{
	"Signity/SignityRelationship.sol": {
		"SignityRelationship": {
			"abi": [
				{
					"inputs": [
						{
							"internalType": "address",
							"name": "_signToken",
							"type": "address"
						},
						{
							"internalType": "address",
							"name": "_signityNFT",
							"type": "address"
						}
					],
					"stateMutability": "nonpayable",
					"type": "constructor"
				},
				{
					"anonymous": false,
					"inputs": [
						{
							"indexed": true,
							"internalType": "uint256",
							"name": "parentSign1",
							"type": "uint256"
						},
						{
							"indexed": true,
							"internalType": "uint256",
							"name": "parentSign2",
							"type": "uint256"
						},
						{
							"indexed": true,
							"internalType": "uint256",
							"name": "childSignId",
							"type": "uint256"
						}
					],
					"name": "ChildBorn",
					"type": "event"
				},
				{
					"anonymous": false,
					"inputs": [
						{
							"indexed": true,
							"internalType": "uint256",
							"name": "signId1",
							"type": "uint256"
						},
						{
							"indexed": true,
							"internalType": "uint256",
							"name": "signId2",
							"type": "uint256"
						},
						{
							"indexed": false,
							"internalType": "uint256",
							"name": "marriageDate",
							"type": "uint256"
						}
					],
					"name": "MarriageAccepted",
					"type": "event"
				},
				{
					"anonymous": false,
					"inputs": [
						{
							"indexed": true,
							"internalType": "uint256",
							"name": "signId1",
							"type": "uint256"
						},
						{
							"indexed": true,
							"internalType": "uint256",
							"name": "signId2",
							"type": "uint256"
						},
						{
							"indexed": false,
							"internalType": "uint256",
							"name": "divorceDate",
							"type": "uint256"
						}
					],
					"name": "MarriageDivorced",
					"type": "event"
				},
				{
					"anonymous": false,
					"inputs": [
						{
							"indexed": true,
							"internalType": "uint256",
							"name": "signId1",
							"type": "uint256"
						},
						{
							"indexed": true,
							"internalType": "uint256",
							"name": "signId2",
							"type": "uint256"
						}
					],
					"name": "MarriageProposed",
					"type": "event"
				},
				{
					"inputs": [],
					"name": "CHILD_COOLDOWN",
					"outputs": [
						{
							"internalType": "uint256",
							"name": "",
							"type": "uint256"
						}
					],
					"stateMutability": "view",
					"type": "function"
				},
				{
					"inputs": [],
					"name": "DIVORCE_COOLDOWN",
					"outputs": [
						{
							"internalType": "uint256",
							"name": "",
							"type": "uint256"
						}
					],
					"stateMutability": "view",
					"type": "function"
				},
				{
					"inputs": [],
					"name": "MAX_CHILDREN",
					"outputs": [
						{
							"internalType": "uint256",
							"name": "",
							"type": "uint256"
						}
					],
					"stateMutability": "view",
					"type": "function"
				},
				{
					"inputs": [
						{
							"internalType": "uint256",
							"name": "toSignId",
							"type": "uint256"
						},
						{
							"internalType": "uint256",
							"name": "fromSignId",
							"type": "uint256"
						}
					],
					"name": "acceptMarriage",
					"outputs": [],
					"stateMutability": "nonpayable",
					"type": "function"
				},
				{
					"inputs": [
						{
							"internalType": "uint256",
							"name": "",
							"type": "uint256"
						}
					],
					"name": "children",
					"outputs": [
						{
							"internalType": "uint256",
							"name": "parentSign1",
							"type": "uint256"
						},
						{
							"internalType": "uint256",
							"name": "parentSign2",
							"type": "uint256"
						},
						{
							"internalType": "uint256",
							"name": "birthDate",
							"type": "uint256"
						},
						{
							"internalType": "bool",
							"name": "exists",
							"type": "bool"
						}
					],
					"stateMutability": "view",
					"type": "function"
				},
				{
					"inputs": [
						{
							"internalType": "uint256",
							"name": "signId",
							"type": "uint256"
						}
					],
					"name": "divorce",
					"outputs": [],
					"stateMutability": "nonpayable",
					"type": "function"
				},
				{
					"inputs": [
						{
							"internalType": "uint256",
							"name": "childSignId",
							"type": "uint256"
						}
					],
					"name": "getChildDetails",
					"outputs": [
						{
							"components": [
								{
									"internalType": "uint256",
									"name": "parentSign1",
									"type": "uint256"
								},
								{
									"internalType": "uint256",
									"name": "parentSign2",
									"type": "uint256"
								},
								{
									"internalType": "uint256",
									"name": "birthDate",
									"type": "uint256"
								},
								{
									"internalType": "bool",
									"name": "exists",
									"type": "bool"
								}
							],
							"internalType": "struct SignityRelationship.Child",
							"name": "",
							"type": "tuple"
						}
					],
					"stateMutability": "view",
					"type": "function"
				},
				{
					"inputs": [
						{
							"internalType": "uint256",
							"name": "signId",
							"type": "uint256"
						}
					],
					"name": "getMarriageDetails",
					"outputs": [
						{
							"components": [
								{
									"internalType": "uint256",
									"name": "signId1",
									"type": "uint256"
								},
								{
									"internalType": "uint256",
									"name": "signId2",
									"type": "uint256"
								},
								{
									"internalType": "uint256",
									"name": "marriageDate",
									"type": "uint256"
								},
								{
									"internalType": "bool",
									"name": "isActive",
									"type": "bool"
								},
								{
									"internalType": "uint256[]",
									"name": "children",
									"type": "uint256[]"
								}
							],
							"internalType": "struct SignityRelationship.Marriage",
							"name": "",
							"type": "tuple"
						}
					],
					"stateMutability": "view",
					"type": "function"
				},
				{
					"inputs": [
						{
							"internalType": "uint256",
							"name": "signId",
							"type": "uint256"
						}
					],
					"name": "isMarried",
					"outputs": [
						{
							"internalType": "bool",
							"name": "",
							"type": "bool"
						}
					],
					"stateMutability": "view",
					"type": "function"
				},
				{
					"inputs": [
						{
							"internalType": "uint256",
							"name": "",
							"type": "uint256"
						}
					],
					"name": "lastChildBirth",
					"outputs": [
						{
							"internalType": "uint256",
							"name": "",
							"type": "uint256"
						}
					],
					"stateMutability": "view",
					"type": "function"
				},
				{
					"inputs": [
						{
							"internalType": "uint256",
							"name": "",
							"type": "uint256"
						}
					],
					"name": "lastDivorceDate",
					"outputs": [
						{
							"internalType": "uint256",
							"name": "",
							"type": "uint256"
						}
					],
					"stateMutability": "view",
					"type": "function"
				},
				{
					"inputs": [
						{
							"internalType": "uint256",
							"name": "",
							"type": "uint256"
						}
					],
					"name": "marriages",
					"outputs": [
						{
							"internalType": "uint256",
							"name": "signId1",
							"type": "uint256"
						},
						{
							"internalType": "uint256",
							"name": "signId2",
							"type": "uint256"
						},
						{
							"internalType": "uint256",
							"name": "marriageDate",
							"type": "uint256"
						},
						{
							"internalType": "bool",
							"name": "isActive",
							"type": "bool"
						}
					],
					"stateMutability": "view",
					"type": "function"
				},
				{
					"inputs": [],
					"name": "owner",
					"outputs": [
						{
							"internalType": "address",
							"name": "",
							"type": "address"
						}
					],
					"stateMutability": "view",
					"type": "function"
				},
				{
					"inputs": [
						{
							"internalType": "uint256",
							"name": "",
							"type": "uint256"
						}
					],
					"name": "proposalExpiry",
					"outputs": [
						{
							"internalType": "uint256",
							"name": "",
							"type": "uint256"
						}
					],
					"stateMutability": "view",
					"type": "function"
				},
				{
					"inputs": [
						{
							"internalType": "uint256",
							"name": "",
							"type": "uint256"
						}
					],
					"name": "proposalTo",
					"outputs": [
						{
							"internalType": "uint256",
							"name": "",
							"type": "uint256"
						}
					],
					"stateMutability": "view",
					"type": "function"
				},
				{
					"inputs": [
						{
							"internalType": "uint256",
							"name": "fromSignId",
							"type": "uint256"
						},
						{
							"internalType": "uint256",
							"name": "toSignId",
							"type": "uint256"
						}
					],
					"name": "proposeMarriage",
					"outputs": [],
					"stateMutability": "nonpayable",
					"type": "function"
				},
				{
					"inputs": [
						{
							"internalType": "uint256",
							"name": "signId",
							"type": "uint256"
						}
					],
					"name": "requestChild",
					"outputs": [],
					"stateMutability": "nonpayable",
					"type": "function"
				},
				{
					"inputs": [],
					"name": "signToken",
					"outputs": [
						{
							"internalType": "contract ISignToken",
							"name": "",
							"type": "address"
						}
					],
					"stateMutability": "view",
					"type": "function"
				},
				{
					"inputs": [],
					"name": "signityNFT",
					"outputs": [
						{
							"internalType": "contract ISignityNFT",
							"name": "",
							"type": "address"
						}
					],
					"stateMutability": "view",
					"type": "function"
				},
				{
					"inputs": [
						{
							"internalType": "uint256",
							"name": "",
							"type": "uint256"
						}
					],
					"name": "spouseOf",
					"outputs": [
						{
							"internalType": "uint256",
							"name": "",
							"type": "uint256"
						}
					],
					"stateMutability": "view",
					"type": "function"
				}
			],
			"devdoc": {
				"kind": "dev",
				"methods": {},
				"version": 1
			},
			"evm": {
				"assembly": "    /* \"Signity/SignityRelationship.sol\":662:7233  contract SignityRelationship {... */\n  mstore(0x40, 0xa0)\n    /* \"Signity/SignityRelationship.sol\":2372:2555  constructor(address _signToken, address _signityNFT) {... */\n  callvalue\n  dup1\n  iszero\n  tag_1\n  jumpi\n  0x00\n  dup1\n  revert\ntag_1:\n  pop\n  mload(0x40)\n  sub(codesize, bytecodeSize)\n  dup1\n  bytecodeSize\n  dup4\n  codecopy\n  dup2\n  dup2\n  add\n  0x40\n  mstore\n  dup2\n  add\n  swap1\n  tag_2\n  swap2\n  swap1\n  tag_3\n  jump\t// in\ntag_2:\n    /* \"Signity/SignityRelationship.sol\":2444:2454  msg.sender */\n  caller\n    /* \"Signity/SignityRelationship.sol\":2436:2454  owner = msg.sender */\n  0xffffffffffffffffffffffffffffffffffffffff\n  and\n  0x80\n  dup2\n  0xffffffffffffffffffffffffffffffffffffffff\n  and\n  dup2\n  mstore\n  pop\n  pop\n    /* \"Signity/SignityRelationship.sol\":2488:2498  _signToken */\n  dup2\n    /* \"Signity/SignityRelationship.sol\":2465:2474  signToken */\n  0x00\n  dup1\n    /* \"Signity/SignityRelationship.sol\":2465:2499  signToken = ISignToken(_signToken) */\n  0x0100\n  exp\n  dup2\n  sload\n  dup2\n  0xffffffffffffffffffffffffffffffffffffffff\n  mul\n  not\n  and\n  swap1\n  dup4\n  0xffffffffffffffffffffffffffffffffffffffff\n  and\n  mul\n  or\n  swap1\n  sstore\n  pop\n    /* \"Signity/SignityRelationship.sol\":2535:2546  _signityNFT */\n  dup1\n    /* \"Signity/SignityRelationship.sol\":2510:2520  signityNFT */\n  0x01\n  0x00\n    /* \"Signity/SignityRelationship.sol\":2510:2547  signityNFT = ISignityNFT(_signityNFT) */\n  0x0100\n  exp\n  dup2\n  sload\n  dup2\n  0xffffffffffffffffffffffffffffffffffffffff\n  mul\n  not\n  and\n  swap1\n  dup4\n  0xffffffffffffffffffffffffffffffffffffffff\n  and\n  mul\n  or\n  swap1\n  sstore\n  pop\n    /* \"Signity/SignityRelationship.sol\":2372:2555  constructor(address _signToken, address _signityNFT) {... */\n  pop\n  pop\n    /* \"Signity/SignityRelationship.sol\":662:7233  contract SignityRelationship {... */\n  jump(tag_6)\n    /* \"#utility.yul\":88:205   */\ntag_8:\n    /* \"#utility.yul\":197:198   */\n  0x00\n    /* \"#utility.yul\":194:195   */\n  dup1\n    /* \"#utility.yul\":187:199   */\n  revert\n    /* \"#utility.yul\":334:460   */\ntag_10:\n    /* \"#utility.yul\":371:378   */\n  0x00\n    /* \"#utility.yul\":411:453   */\n  0xffffffffffffffffffffffffffffffffffffffff\n    /* \"#utility.yul\":404:409   */\n  dup3\n    /* \"#utility.yul\":400:454   */\n  and\n    /* \"#utility.yul\":389:454   */\n  swap1\n  pop\n    /* \"#utility.yul\":334:460   */\n  swap2\n  swap1\n  pop\n  jump\t// out\n    /* \"#utility.yul\":466:562   */\ntag_11:\n    /* \"#utility.yul\":503:510   */\n  0x00\n    /* \"#utility.yul\":532:556   */\n  tag_20\n    /* \"#utility.yul\":550:555   */\n  dup3\n    /* \"#utility.yul\":532:556   */\n  tag_10\n  jump\t// in\ntag_20:\n    /* \"#utility.yul\":521:556   */\n  swap1\n  pop\n    /* \"#utility.yul\":466:562   */\n  swap2\n  swap1\n  pop\n  jump\t// out\n    /* \"#utility.yul\":568:690   */\ntag_12:\n    /* \"#utility.yul\":641:665   */\n  tag_22\n    /* \"#utility.yul\":659:664   */\n  dup2\n    /* \"#utility.yul\":641:665   */\n  tag_11\n  jump\t// in\ntag_22:\n    /* \"#utility.yul\":634:639   */\n  dup2\n    /* \"#utility.yul\":631:666   */\n  eq\n    /* \"#utility.yul\":621:684   */\n  tag_23\n  jumpi\n    /* \"#utility.yul\":680:681   */\n  0x00\n    /* \"#utility.yul\":677:678   */\n  dup1\n    /* \"#utility.yul\":670:682   */\n  revert\n    /* \"#utility.yul\":621:684   */\ntag_23:\n    /* \"#utility.yul\":568:690   */\n  pop\n  jump\t// out\n    /* \"#utility.yul\":696:839   */\ntag_13:\n    /* \"#utility.yul\":753:758   */\n  0x00\n    /* \"#utility.yul\":784:790   */\n  dup2\n    /* \"#utility.yul\":778:791   */\n  mload\n    /* \"#utility.yul\":769:791   */\n  swap1\n  pop\n    /* \"#utility.yul\":800:833   */\n  tag_25\n    /* \"#utility.yul\":827:832   */\n  dup2\n    /* \"#utility.yul\":800:833   */\n  tag_12\n  jump\t// in\ntag_25:\n    /* \"#utility.yul\":696:839   */\n  swap3\n  swap2\n  pop\n  pop\n  jump\t// out\n    /* \"#utility.yul\":845:1352   */\ntag_3:\n    /* \"#utility.yul\":924:930   */\n  0x00\n    /* \"#utility.yul\":932:938   */\n  dup1\n    /* \"#utility.yul\":981:983   */\n  0x40\n    /* \"#utility.yul\":969:978   */\n  dup4\n    /* \"#utility.yul\":960:967   */\n  dup6\n    /* \"#utility.yul\":956:979   */\n  sub\n    /* \"#utility.yul\":952:984   */\n  slt\n    /* \"#utility.yul\":949:1068   */\n  iszero\n  tag_27\n  jumpi\n    /* \"#utility.yul\":987:1066   */\n  tag_28\n  tag_8\n  jump\t// in\ntag_28:\n    /* \"#utility.yul\":949:1068   */\ntag_27:\n    /* \"#utility.yul\":1107:1108   */\n  0x00\n    /* \"#utility.yul\":1132:1196   */\n  tag_29\n    /* \"#utility.yul\":1188:1195   */\n  dup6\n    /* \"#utility.yul\":1179:1185   */\n  dup3\n    /* \"#utility.yul\":1168:1177   */\n  dup7\n    /* \"#utility.yul\":1164:1186   */\n  add\n    /* \"#utility.yul\":1132:1196   */\n  tag_13\n  jump\t// in\ntag_29:\n    /* \"#utility.yul\":1122:1196   */\n  swap3\n  pop\n    /* \"#utility.yul\":1078:1206   */\n  pop\n    /* \"#utility.yul\":1245:1247   */\n  0x20\n    /* \"#utility.yul\":1271:1335   */\n  tag_30\n    /* \"#utility.yul\":1327:1334   */\n  dup6\n    /* \"#utility.yul\":1318:1324   */\n  dup3\n    /* \"#utility.yul\":1307:1316   */\n  dup7\n    /* \"#utility.yul\":1303:1325   */\n  add\n    /* \"#utility.yul\":1271:1335   */\n  tag_13\n  jump\t// in\ntag_30:\n    /* \"#utility.yul\":1261:1335   */\n  swap2\n  pop\n    /* \"#utility.yul\":1216:1345   */\n  pop\n    /* \"#utility.yul\":845:1352   */\n  swap3\n  pop\n  swap3\n  swap1\n  pop\n  jump\t// out\n    /* \"Signity/SignityRelationship.sol\":662:7233  contract SignityRelationship {... */\ntag_6:\n  mload(0x80)\n  codecopy(0x00, dataOffset(sub_0), dataSize(sub_0))\n  0x00\n  assignImmutable(\"0xd905fec1a56b00009651ce5a01a34d2244da02f516f67ee88b03219738dbf226\")\n  return(0x00, dataSize(sub_0))\nstop\n\nsub_0: assembly {\n        /* \"Signity/SignityRelationship.sol\":662:7233  contract SignityRelationship {... */\n      mstore(0x40, 0x80)\n      callvalue\n      dup1\n      iszero\n      tag_1\n      jumpi\n      0x00\n      dup1\n      revert\n    tag_1:\n      pop\n      jumpi(tag_2, lt(calldatasize, 0x04))\n      shr(0xe0, calldataload(0x00))\n      dup1\n      0xb30192ba\n      gt\n      tag_23\n      jumpi\n      dup1\n      0xc222ff49\n      gt\n      tag_24\n      jumpi\n      dup1\n      0xc222ff49\n      eq\n      tag_18\n      jumpi\n      dup1\n      0xc2887cdc\n      eq\n      tag_19\n      jumpi\n      dup1\n      0xdb1db2e1\n      eq\n      tag_20\n      jumpi\n      dup1\n      0xe29f5a07\n      eq\n      tag_21\n      jumpi\n      dup1\n      0xf88bedf9\n      eq\n      tag_22\n      jumpi\n      jump(tag_2)\n    tag_24:\n      dup1\n      0xb30192ba\n      eq\n      tag_13\n      jumpi\n      dup1\n      0xb3841a91\n      eq\n      tag_14\n      jumpi\n      dup1\n      0xb49a5bb2\n      eq\n      tag_15\n      jumpi\n      dup1\n      0xb56c8a0c\n      eq\n      tag_16\n      jumpi\n      dup1\n      0xbdad7fa6\n      eq\n      tag_17\n      jumpi\n      jump(tag_2)\n    tag_23:\n      dup1\n      0x7002ce42\n      gt\n      tag_25\n      jumpi\n      dup1\n      0x7002ce42\n      eq\n      tag_8\n      jumpi\n      dup1\n      0x7dfe7b73\n      eq\n      tag_9\n      jumpi\n      dup1\n      0x874eaa02\n      eq\n      tag_10\n      jumpi\n      dup1\n      0x8da5cb5b\n      eq\n      tag_11\n      jumpi\n      dup1\n      0xa196d01d\n      eq\n      tag_12\n      jumpi\n      jump(tag_2)\n    tag_25:\n      dup1\n      0x080bfbae\n      eq\n      tag_3\n      jumpi\n      dup1\n      0x1204c58f\n      eq\n      tag_4\n      jumpi\n      dup1\n      0x573662c1\n      eq\n      tag_5\n      jumpi\n      dup1\n      0x5cf3f355\n      eq\n      tag_6\n      jumpi\n      dup1\n      0x6abf8db8\n      eq\n      tag_7\n      jumpi\n    tag_2:\n      0x00\n      dup1\n      revert\n        /* \"Signity/SignityRelationship.sol\":1543:1592  uint256 public constant CHILD_COOLDOWN = 180 days */\n    tag_3:\n      tag_26\n      tag_27\n      jump\t// in\n    tag_26:\n      mload(0x40)\n      tag_28\n      swap2\n      swap1\n      tag_29\n      jump\t// in\n    tag_28:\n      mload(0x40)\n      dup1\n      swap2\n      sub\n      swap1\n      return\n        /* \"Signity/SignityRelationship.sol\":2049:2098  mapping(uint256 => uint256) public lastChildBirth */\n    tag_4:\n      tag_30\n      0x04\n      dup1\n      calldatasize\n      sub\n      dup2\n      add\n      swap1\n      tag_31\n      swap2\n      swap1\n      tag_32\n      jump\t// in\n    tag_31:\n      tag_33\n      jump\t// in\n    tag_30:\n      mload(0x40)\n      tag_34\n      swap2\n      swap1\n      tag_29\n      jump\t// in\n    tag_34:\n      mload(0x40)\n      dup1\n      swap2\n      sub\n      swap1\n      return\n        /* \"Signity/SignityRelationship.sol\":1816:1861  mapping(uint256 => Marriage) public marriages */\n    tag_5:\n      tag_35\n      0x04\n      dup1\n      calldatasize\n      sub\n      dup2\n      add\n      swap1\n      tag_36\n      swap2\n      swap1\n      tag_32\n      jump\t// in\n    tag_36:\n      tag_37\n      jump\t// in\n    tag_35:\n      mload(0x40)\n      tag_38\n      swap5\n      swap4\n      swap3\n      swap2\n      swap1\n      tag_39\n      jump\t// in\n    tag_38:\n      mload(0x40)\n      dup1\n      swap2\n      sub\n      swap1\n      return\n        /* \"Signity/SignityRelationship.sol\":3704:4625  function acceptMarriage(uint256 toSignId, uint256 fromSignId) external onlySignOwner(toSignId) {... */\n    tag_6:\n      tag_40\n      0x04\n      dup1\n      calldatasize\n      sub\n      dup2\n      add\n      swap1\n      tag_41\n      swap2\n      swap1\n      tag_42\n      jump\t// in\n    tag_41:\n      tag_43\n      jump\t// in\n    tag_40:\n      stop\n        /* \"Signity/SignityRelationship.sol\":6174:6283  function isMarried(uint256 signId) public view returns (bool) {... */\n    tag_7:\n      tag_44\n      0x04\n      dup1\n      calldatasize\n      sub\n      dup2\n      add\n      swap1\n      tag_45\n      swap2\n      swap1\n      tag_32\n      jump\t// in\n    tag_45:\n      tag_46\n      jump\t// in\n    tag_44:\n      mload(0x40)\n      tag_47\n      swap2\n      swap1\n      tag_48\n      jump\t// in\n    tag_47:\n      mload(0x40)\n      dup1\n      swap2\n      sub\n      swap1\n      return\n        /* \"Signity/SignityRelationship.sol\":1973:2014  mapping(uint256 => Child) public children */\n    tag_8:\n      tag_49\n      0x04\n      dup1\n      calldatasize\n      sub\n      dup2\n      add\n      swap1\n      tag_50\n      swap2\n      swap1\n      tag_32\n      jump\t// in\n    tag_50:\n      tag_51\n      jump\t// in\n    tag_49:\n      mload(0x40)\n      tag_52\n      swap5\n      swap4\n      swap3\n      swap2\n      swap1\n      tag_39\n      jump\t// in\n    tag_52:\n      mload(0x40)\n      dup1\n      swap2\n      sub\n      swap1\n      return\n        /* \"Signity/SignityRelationship.sol\":2290:2339  mapping(uint256 => uint256) public proposalExpiry */\n    tag_9:\n      tag_53\n      0x04\n      dup1\n      calldatasize\n      sub\n      dup2\n      add\n      swap1\n      tag_54\n      swap2\n      swap1\n      tag_32\n      jump\t// in\n    tag_54:\n      tag_55\n      jump\t// in\n    tag_53:\n      mload(0x40)\n      tag_56\n      swap2\n      swap1\n      tag_29\n      jump\t// in\n    tag_56:\n      mload(0x40)\n      dup1\n      swap2\n      sub\n      swap1\n      return\n        /* \"Signity/SignityRelationship.sol\":5230:6143  function requestChild(uint256 signId) external onlySignOwner(signId) {... */\n    tag_10:\n      tag_57\n      0x04\n      dup1\n      calldatasize\n      sub\n      dup2\n      add\n      swap1\n      tag_58\n      swap2\n      swap1\n      tag_32\n      jump\t// in\n    tag_58:\n      tag_59\n      jump\t// in\n    tag_57:\n      stop\n        /* \"Signity/SignityRelationship.sol\":1686:1716  address public immutable owner */\n    tag_11:\n      tag_60\n      tag_61\n      jump\t// in\n    tag_60:\n      mload(0x40)\n      tag_62\n      swap2\n      swap1\n      tag_63\n      jump\t// in\n    tag_62:\n      mload(0x40)\n      dup1\n      swap2\n      sub\n      swap1\n      return\n        /* \"Signity/SignityRelationship.sol\":1757:1786  ISignityNFT public signityNFT */\n    tag_12:\n      tag_64\n      tag_65\n      jump\t// in\n    tag_64:\n      mload(0x40)\n      tag_66\n      swap2\n      swap1\n      tag_67\n      jump\t// in\n    tag_66:\n      mload(0x40)\n      dup1\n      swap2\n      sub\n      swap1\n      return\n        /* \"Signity/SignityRelationship.sol\":6291:6418  function getMarriageDetails(uint256 signId) external view returns (Marriage memory) {... */\n    tag_13:\n      tag_68\n      0x04\n      dup1\n      calldatasize\n      sub\n      dup2\n      add\n      swap1\n      tag_69\n      swap2\n      swap1\n      tag_32\n      jump\t// in\n    tag_69:\n      tag_70\n      jump\t// in\n    tag_68:\n      mload(0x40)\n      tag_71\n      swap2\n      swap1\n      tag_72\n      jump\t// in\n    tag_71:\n      mload(0x40)\n      dup1\n      swap2\n      sub\n      swap1\n      return\n        /* \"Signity/SignityRelationship.sol\":2209:2254  mapping(uint256 => uint256) public proposalTo */\n    tag_14:\n      tag_73\n      0x04\n      dup1\n      calldatasize\n      sub\n      dup2\n      add\n      swap1\n      tag_74\n      swap2\n      swap1\n      tag_32\n      jump\t// in\n    tag_74:\n      tag_75\n      jump\t// in\n    tag_73:\n      mload(0x40)\n      tag_76\n      swap2\n      swap1\n      tag_29\n      jump\t// in\n    tag_76:\n      mload(0x40)\n      dup1\n      swap2\n      sub\n      swap1\n      return\n        /* \"Signity/SignityRelationship.sol\":4633:5198  function divorce(uint256 signId) external onlySignOwner(signId) {... */\n    tag_15:\n      tag_77\n      0x04\n      dup1\n      calldatasize\n      sub\n      dup2\n      add\n      swap1\n      tag_78\n      swap2\n      swap1\n      tag_32\n      jump\t// in\n    tag_78:\n      tag_79\n      jump\t// in\n    tag_77:\n      stop\n        /* \"Signity/SignityRelationship.sol\":1892:1935  mapping(uint256 => uint256) public spouseOf */\n    tag_16:\n      tag_80\n      0x04\n      dup1\n      calldatasize\n      sub\n      dup2\n      add\n      swap1\n      tag_81\n      swap2\n      swap1\n      tag_32\n      jump\t// in\n    tag_81:\n      tag_82\n      jump\t// in\n    tag_80:\n      mload(0x40)\n      tag_83\n      swap2\n      swap1\n      tag_29\n      jump\t// in\n    tag_83:\n      mload(0x40)\n      dup1\n      swap2\n      sub\n      swap1\n      return\n        /* \"Signity/SignityRelationship.sol\":6426:6556  function getChildDetails(uint256 childSignId) external view returns (Child memory) {... */\n    tag_17:\n      tag_84\n      0x04\n      dup1\n      calldatasize\n      sub\n      dup2\n      add\n      swap1\n      tag_85\n      swap2\n      swap1\n      tag_32\n      jump\t// in\n    tag_85:\n      tag_86\n      jump\t// in\n    tag_84:\n      mload(0x40)\n      tag_87\n      swap2\n      swap1\n      tag_88\n      jump\t// in\n    tag_87:\n      mload(0x40)\n      dup1\n      swap2\n      sub\n      swap1\n      return\n        /* \"Signity/SignityRelationship.sol\":1613:1653  uint256 public constant MAX_CHILDREN = 5 */\n    tag_18:\n      tag_89\n      tag_90\n      jump\t// in\n    tag_89:\n      mload(0x40)\n      tag_91\n      swap2\n      swap1\n      tag_29\n      jump\t// in\n    tag_91:\n      mload(0x40)\n      dup1\n      swap2\n      sub\n      swap1\n      return\n        /* \"Signity/SignityRelationship.sol\":2129:2179  mapping(uint256 => uint256) public lastDivorceDate */\n    tag_19:\n      tag_92\n      0x04\n      dup1\n      calldatasize\n      sub\n      dup2\n      add\n      swap1\n      tag_93\n      swap2\n      swap1\n      tag_32\n      jump\t// in\n    tag_93:\n      tag_94\n      jump\t// in\n    tag_92:\n      mload(0x40)\n      tag_95\n      swap2\n      swap1\n      tag_29\n      jump\t// in\n    tag_95:\n      mload(0x40)\n      dup1\n      swap2\n      sub\n      swap1\n      return\n        /* \"Signity/SignityRelationship.sol\":2960:3696  function proposeMarriage(uint256 fromSignId, uint256 toSignId) external onlySignOwner(fromSignId) {... */\n    tag_20:\n      tag_96\n      0x04\n      dup1\n      calldatasize\n      sub\n      dup2\n      add\n      swap1\n      tag_97\n      swap2\n      swap1\n      tag_42\n      jump\t// in\n    tag_97:\n      tag_98\n      jump\t// in\n    tag_96:\n      stop\n        /* \"Signity/SignityRelationship.sol\":1723:1750  ISignToken public signToken */\n    tag_21:\n      tag_99\n      tag_100\n      jump\t// in\n    tag_99:\n      mload(0x40)\n      tag_101\n      swap2\n      swap1\n      tag_102\n      jump\t// in\n    tag_101:\n      mload(0x40)\n      dup1\n      swap2\n      sub\n      swap1\n      return\n        /* \"Signity/SignityRelationship.sol\":1473:1523  uint256 public constant DIVORCE_COOLDOWN = 90 days */\n    tag_22:\n      tag_103\n      tag_104\n      jump\t// in\n    tag_103:\n      mload(0x40)\n      tag_105\n      swap2\n      swap1\n      tag_29\n      jump\t// in\n    tag_105:\n      mload(0x40)\n      dup1\n      swap2\n      sub\n      swap1\n      return\n        /* \"Signity/SignityRelationship.sol\":1543:1592  uint256 public constant CHILD_COOLDOWN = 180 days */\n    tag_27:\n        /* \"Signity/SignityRelationship.sol\":1584:1592  180 days */\n      0xed4e00\n        /* \"Signity/SignityRelationship.sol\":1543:1592  uint256 public constant CHILD_COOLDOWN = 180 days */\n      dup2\n      jump\t// out\n        /* \"Signity/SignityRelationship.sol\":2049:2098  mapping(uint256 => uint256) public lastChildBirth */\n    tag_33:\n      mstore(0x20, 0x05)\n      dup1\n      0x00\n      mstore\n      keccak256(0x00, 0x40)\n      0x00\n      swap2\n      pop\n      swap1\n      pop\n      sload\n      dup2\n      jump\t// out\n        /* \"Signity/SignityRelationship.sol\":1816:1861  mapping(uint256 => Marriage) public marriages */\n    tag_37:\n      mstore(0x20, 0x02)\n      dup1\n      0x00\n      mstore\n      keccak256(0x00, 0x40)\n      0x00\n      swap2\n      pop\n      swap1\n      pop\n      dup1\n      0x00\n      add\n      sload\n      swap1\n      dup1\n      0x01\n      add\n      sload\n      swap1\n      dup1\n      0x02\n      add\n      sload\n      swap1\n      dup1\n      0x03\n      add\n      0x00\n      swap1\n      sload\n      swap1\n      0x0100\n      exp\n      swap1\n      div\n      0xff\n      and\n      swap1\n      pop\n      dup5\n      jump\t// out\n        /* \"Signity/SignityRelationship.sol\":3704:4625  function acceptMarriage(uint256 toSignId, uint256 fromSignId) external onlySignOwner(toSignId) {... */\n    tag_43:\n        /* \"Signity/SignityRelationship.sol\":3789:3797  toSignId */\n      dup2\n        /* \"Signity/SignityRelationship.sol\":2751:2768  address signOwner */\n      0x00\n        /* \"Signity/SignityRelationship.sol\":2780:2790  signityNFT */\n      0x01\n      0x00\n      swap1\n      sload\n      swap1\n      0x0100\n      exp\n      swap1\n      div\n      0xffffffffffffffffffffffffffffffffffffffff\n      and\n        /* \"Signity/SignityRelationship.sol\":2780:2805  signityNFT.getSignDetails */\n      0xffffffffffffffffffffffffffffffffffffffff\n      and\n      0x4eb5fdcf\n        /* \"Signity/SignityRelationship.sol\":2806:2812  signId */\n      dup4\n        /* \"Signity/SignityRelationship.sol\":2780:2813  signityNFT.getSignDetails(signId) */\n      mload(0x40)\n      dup3\n      0xffffffff\n      and\n      0xe0\n      shl\n      dup2\n      mstore\n      0x04\n      add\n      tag_107\n      swap2\n      swap1\n      tag_29\n      jump\t// in\n    tag_107:\n      0x00\n      mload(0x40)\n      dup1\n      dup4\n      sub\n      dup2\n      dup7\n      gas\n      staticcall\n      iszero\n      dup1\n      iszero\n      tag_109\n      jumpi\n      returndatasize\n      0x00\n      dup1\n      returndatacopy\n      revert(0x00, returndatasize)\n    tag_109:\n      pop\n      pop\n      pop\n      pop\n      mload(0x40)\n      returndatasize\n      0x00\n      dup3\n      returndatacopy\n      returndatasize\n      not(0x1f)\n      0x1f\n      dup3\n      add\n      and\n      dup3\n      add\n      dup1\n      0x40\n      mstore\n      pop\n      dup2\n      add\n      swap1\n      tag_110\n      swap2\n      swap1\n      tag_111\n      jump\t// in\n    tag_110:\n        /* \"Signity/SignityRelationship.sol\":2749:2813  (,address signOwner,,,,,,,,) = signityNFT.getSignDetails(signId) */\n      pop\n      pop\n      pop\n      pop\n      pop\n      pop\n      pop\n      pop\n      swap2\n      pop\n      pop\n        /* \"Signity/SignityRelationship.sol\":2845:2855  msg.sender */\n      caller\n        /* \"Signity/SignityRelationship.sol\":2832:2855  signOwner == msg.sender */\n      0xffffffffffffffffffffffffffffffffffffffff\n      and\n        /* \"Signity/SignityRelationship.sol\":2832:2841  signOwner */\n      dup2\n        /* \"Signity/SignityRelationship.sol\":2832:2855  signOwner == msg.sender */\n      0xffffffffffffffffffffffffffffffffffffffff\n      and\n      eq\n        /* \"Signity/SignityRelationship.sol\":2824:2905  require(signOwner == msg.sender, \"SignityRelationship: caller is not sign owner\") */\n      tag_112\n      jumpi\n      mload(0x40)\n      0x08c379a000000000000000000000000000000000000000000000000000000000\n      dup2\n      mstore\n      0x04\n      add\n      tag_113\n      swap1\n      tag_114\n      jump\t// in\n    tag_113:\n      mload(0x40)\n      dup1\n      swap2\n      sub\n      swap1\n      revert\n    tag_112:\n        /* \"Signity/SignityRelationship.sol\":3844:3852  toSignId */\n      dup4\n        /* \"Signity/SignityRelationship.sol\":3818:3828  proposalTo */\n      0x07\n        /* \"Signity/SignityRelationship.sol\":3818:3840  proposalTo[fromSignId] */\n      0x00\n        /* \"Signity/SignityRelationship.sol\":3829:3839  fromSignId */\n      dup6\n        /* \"Signity/SignityRelationship.sol\":3818:3840  proposalTo[fromSignId] */\n      dup2\n      mstore\n      0x20\n      add\n      swap1\n      dup2\n      mstore\n      0x20\n      add\n      0x00\n      keccak256\n      sload\n        /* \"Signity/SignityRelationship.sol\":3818:3852  proposalTo[fromSignId] == toSignId */\n      eq\n        /* \"Signity/SignityRelationship.sol\":3810:3895  require(proposalTo[fromSignId] == toSignId, \"SignityRelationship: no valid proposal\") */\n      tag_116\n      jumpi\n      mload(0x40)\n      0x08c379a000000000000000000000000000000000000000000000000000000000\n      dup2\n      mstore\n      0x04\n      add\n      tag_117\n      swap1\n      tag_118\n      jump\t// in\n    tag_117:\n      mload(0x40)\n      dup1\n      swap2\n      sub\n      swap1\n      revert\n    tag_116:\n        /* \"Signity/SignityRelationship.sol\":3933:3947  proposalExpiry */\n      0x08\n        /* \"Signity/SignityRelationship.sol\":3933:3959  proposalExpiry[fromSignId] */\n      0x00\n        /* \"Signity/SignityRelationship.sol\":3948:3958  fromSignId */\n      dup5\n        /* \"Signity/SignityRelationship.sol\":3933:3959  proposalExpiry[fromSignId] */\n      dup2\n      mstore\n      0x20\n      add\n      swap1\n      dup2\n      mstore\n      0x20\n      add\n      0x00\n      keccak256\n      sload\n        /* \"Signity/SignityRelationship.sol\":3914:3929  block.timestamp */\n      timestamp\n        /* \"Signity/SignityRelationship.sol\":3914:3959  block.timestamp <= proposalExpiry[fromSignId] */\n      gt\n      iszero\n        /* \"Signity/SignityRelationship.sol\":3906:4001  require(block.timestamp <= proposalExpiry[fromSignId], \"SignityRelationship: proposal expired\") */\n      tag_119\n      jumpi\n      mload(0x40)\n      0x08c379a000000000000000000000000000000000000000000000000000000000\n      dup2\n      mstore\n      0x04\n      add\n      tag_120\n      swap1\n      tag_121\n      jump\t// in\n    tag_120:\n      mload(0x40)\n      dup1\n      swap2\n      sub\n      swap1\n      revert\n    tag_119:\n        /* \"Signity/SignityRelationship.sol\":4021:4042  isMarried(fromSignId) */\n      tag_122\n        /* \"Signity/SignityRelationship.sol\":4031:4041  fromSignId */\n      dup4\n        /* \"Signity/SignityRelationship.sol\":4021:4030  isMarried */\n      tag_46\n        /* \"Signity/SignityRelationship.sol\":4021:4042  isMarried(fromSignId) */\n      jump\t// in\n    tag_122:\n        /* \"Signity/SignityRelationship.sol\":4020:4042  !isMarried(fromSignId) */\n      iszero\n        /* \"Signity/SignityRelationship.sol\":4020:4066  !isMarried(fromSignId) && !isMarried(toSignId) */\n      dup1\n      iszero\n      tag_123\n      jumpi\n      pop\n        /* \"Signity/SignityRelationship.sol\":4047:4066  isMarried(toSignId) */\n      tag_124\n        /* \"Signity/SignityRelationship.sol\":4057:4065  toSignId */\n      dup5\n        /* \"Signity/SignityRelationship.sol\":4047:4056  isMarried */\n      tag_46\n        /* \"Signity/SignityRelationship.sol\":4047:4066  isMarried(toSignId) */\n      jump\t// in\n    tag_124:\n        /* \"Signity/SignityRelationship.sol\":4046:4066  !isMarried(toSignId) */\n      iszero\n        /* \"Signity/SignityRelationship.sol\":4020:4066  !isMarried(fromSignId) && !isMarried(toSignId) */\n    tag_123:\n        /* \"Signity/SignityRelationship.sol\":4012:4111  require(!isMarried(fromSignId) && !isMarried(toSignId), \"SignityRelationship: one sign is married\") */\n      tag_125\n      jumpi\n      mload(0x40)\n      0x08c379a000000000000000000000000000000000000000000000000000000000\n      dup2\n      mstore\n      0x04\n      add\n      tag_126\n      swap1\n      tag_127\n      jump\t// in\n    tag_126:\n      mload(0x40)\n      dup1\n      swap2\n      sub\n      swap1\n      revert\n    tag_125:\n        /* \"Signity/SignityRelationship.sol\":4124:4152  Marriage storage newMarriage */\n      0x00\n        /* \"Signity/SignityRelationship.sol\":4155:4164  marriages */\n      0x02\n        /* \"Signity/SignityRelationship.sol\":4155:4176  marriages[fromSignId] */\n      0x00\n        /* \"Signity/SignityRelationship.sol\":4165:4175  fromSignId */\n      dup6\n        /* \"Signity/SignityRelationship.sol\":4155:4176  marriages[fromSignId] */\n      dup2\n      mstore\n      0x20\n      add\n      swap1\n      dup2\n      mstore\n      0x20\n      add\n      0x00\n      keccak256\n        /* \"Signity/SignityRelationship.sol\":4124:4176  Marriage storage newMarriage = marriages[fromSignId] */\n      swap1\n      pop\n        /* \"Signity/SignityRelationship.sol\":4209:4219  fromSignId */\n      dup4\n        /* \"Signity/SignityRelationship.sol\":4187:4198  newMarriage */\n      dup2\n        /* \"Signity/SignityRelationship.sol\":4187:4206  newMarriage.signId1 */\n      0x00\n      add\n        /* \"Signity/SignityRelationship.sol\":4187:4219  newMarriage.signId1 = fromSignId */\n      dup2\n      swap1\n      sstore\n      pop\n        /* \"Signity/SignityRelationship.sol\":4252:4260  toSignId */\n      dup5\n        /* \"Signity/SignityRelationship.sol\":4230:4241  newMarriage */\n      dup2\n        /* \"Signity/SignityRelationship.sol\":4230:4249  newMarriage.signId2 */\n      0x01\n      add\n        /* \"Signity/SignityRelationship.sol\":4230:4260  newMarriage.signId2 = toSignId */\n      dup2\n      swap1\n      sstore\n      pop\n        /* \"Signity/SignityRelationship.sol\":4298:4313  block.timestamp */\n      timestamp\n        /* \"Signity/SignityRelationship.sol\":4271:4282  newMarriage */\n      dup2\n        /* \"Signity/SignityRelationship.sol\":4271:4295  newMarriage.marriageDate */\n      0x02\n      add\n        /* \"Signity/SignityRelationship.sol\":4271:4313  newMarriage.marriageDate = block.timestamp */\n      dup2\n      swap1\n      sstore\n      pop\n        /* \"Signity/SignityRelationship.sol\":4347:4351  true */\n      0x01\n        /* \"Signity/SignityRelationship.sol\":4324:4335  newMarriage */\n      dup2\n        /* \"Signity/SignityRelationship.sol\":4324:4344  newMarriage.isActive */\n      0x03\n      add\n      0x00\n        /* \"Signity/SignityRelationship.sol\":4324:4351  newMarriage.isActive = true */\n      0x0100\n      exp\n      dup2\n      sload\n      dup2\n      0xff\n      mul\n      not\n      and\n      swap1\n      dup4\n      iszero\n      iszero\n      mul\n      or\n      swap1\n      sstore\n      pop\n        /* \"Signity/SignityRelationship.sol\":4387:4395  toSignId */\n      dup5\n        /* \"Signity/SignityRelationship.sol\":4364:4372  spouseOf */\n      0x03\n        /* \"Signity/SignityRelationship.sol\":4364:4384  spouseOf[fromSignId] */\n      0x00\n        /* \"Signity/SignityRelationship.sol\":4373:4383  fromSignId */\n      dup7\n        /* \"Signity/SignityRelationship.sol\":4364:4384  spouseOf[fromSignId] */\n      dup2\n      mstore\n      0x20\n      add\n      swap1\n      dup2\n      mstore\n      0x20\n      add\n      0x00\n      keccak256\n        /* \"Signity/SignityRelationship.sol\":4364:4395  spouseOf[fromSignId] = toSignId */\n      dup2\n      swap1\n      sstore\n      pop\n        /* \"Signity/SignityRelationship.sol\":4427:4437  fromSignId */\n      dup4\n        /* \"Signity/SignityRelationship.sol\":4406:4414  spouseOf */\n      0x03\n        /* \"Signity/SignityRelationship.sol\":4406:4424  spouseOf[toSignId] */\n      0x00\n        /* \"Signity/SignityRelationship.sol\":4415:4423  toSignId */\n      dup8\n        /* \"Signity/SignityRelationship.sol\":4406:4424  spouseOf[toSignId] */\n      dup2\n      mstore\n      0x20\n      add\n      swap1\n      dup2\n      mstore\n      0x20\n      add\n      0x00\n      keccak256\n        /* \"Signity/SignityRelationship.sol\":4406:4437  spouseOf[toSignId] = fromSignId */\n      dup2\n      swap1\n      sstore\n      pop\n        /* \"Signity/SignityRelationship.sol\":4502:4503  0 */\n      0x00\n        /* \"Signity/SignityRelationship.sol\":4477:4487  proposalTo */\n      0x07\n        /* \"Signity/SignityRelationship.sol\":4477:4499  proposalTo[fromSignId] */\n      0x00\n        /* \"Signity/SignityRelationship.sol\":4488:4498  fromSignId */\n      dup7\n        /* \"Signity/SignityRelationship.sol\":4477:4499  proposalTo[fromSignId] */\n      dup2\n      mstore\n      0x20\n      add\n      swap1\n      dup2\n      mstore\n      0x20\n      add\n      0x00\n      keccak256\n        /* \"Signity/SignityRelationship.sol\":4477:4503  proposalTo[fromSignId] = 0 */\n      dup2\n      swap1\n      sstore\n      pop\n        /* \"Signity/SignityRelationship.sol\":4543:4544  0 */\n      0x00\n        /* \"Signity/SignityRelationship.sol\":4514:4528  proposalExpiry */\n      0x08\n        /* \"Signity/SignityRelationship.sol\":4514:4540  proposalExpiry[fromSignId] */\n      0x00\n        /* \"Signity/SignityRelationship.sol\":4529:4539  fromSignId */\n      dup7\n        /* \"Signity/SignityRelationship.sol\":4514:4540  proposalExpiry[fromSignId] */\n      dup2\n      mstore\n      0x20\n      add\n      swap1\n      dup2\n      mstore\n      0x20\n      add\n      0x00\n      keccak256\n        /* \"Signity/SignityRelationship.sol\":4514:4544  proposalExpiry[fromSignId] = 0 */\n      dup2\n      swap1\n      sstore\n      pop\n        /* \"Signity/SignityRelationship.sol\":4591:4599  toSignId */\n      dup5\n        /* \"Signity/SignityRelationship.sol\":4579:4589  fromSignId */\n      dup5\n        /* \"Signity/SignityRelationship.sol\":4562:4617  MarriageAccepted(fromSignId, toSignId, block.timestamp) */\n      0x6c03a5a900f7813306fdf354815eaece8020be09c42a4f0eefddeb7b5f38ac12\n        /* \"Signity/SignityRelationship.sol\":4601:4616  block.timestamp */\n      timestamp\n        /* \"Signity/SignityRelationship.sol\":4562:4617  MarriageAccepted(fromSignId, toSignId, block.timestamp) */\n      mload(0x40)\n      tag_128\n      swap2\n      swap1\n      tag_29\n      jump\t// in\n    tag_128:\n      mload(0x40)\n      dup1\n      swap2\n      sub\n      swap1\n      log3\n        /* \"Signity/SignityRelationship.sol\":3799:4625  {... */\n      pop\n        /* \"Signity/SignityRelationship.sol\":2738:2925  {... */\n      pop\n        /* \"Signity/SignityRelationship.sol\":3704:4625  function acceptMarriage(uint256 toSignId, uint256 fromSignId) external onlySignOwner(toSignId) {... */\n      pop\n      pop\n      pop\n      jump\t// out\n        /* \"Signity/SignityRelationship.sol\":6174:6283  function isMarried(uint256 signId) public view returns (bool) {... */\n    tag_46:\n        /* \"Signity/SignityRelationship.sol\":6230:6234  bool */\n      0x00\n        /* \"Signity/SignityRelationship.sol\":6274:6275  0 */\n      dup1\n        /* \"Signity/SignityRelationship.sol\":6254:6262  spouseOf */\n      0x03\n        /* \"Signity/SignityRelationship.sol\":6254:6270  spouseOf[signId] */\n      0x00\n        /* \"Signity/SignityRelationship.sol\":6263:6269  signId */\n      dup5\n        /* \"Signity/SignityRelationship.sol\":6254:6270  spouseOf[signId] */\n      dup2\n      mstore\n      0x20\n      add\n      swap1\n      dup2\n      mstore\n      0x20\n      add\n      0x00\n      keccak256\n      sload\n        /* \"Signity/SignityRelationship.sol\":6254:6275  spouseOf[signId] != 0 */\n      eq\n      iszero\n        /* \"Signity/SignityRelationship.sol\":6247:6275  return spouseOf[signId] != 0 */\n      swap1\n      pop\n        /* \"Signity/SignityRelationship.sol\":6174:6283  function isMarried(uint256 signId) public view returns (bool) {... */\n      swap2\n      swap1\n      pop\n      jump\t// out\n        /* \"Signity/SignityRelationship.sol\":1973:2014  mapping(uint256 => Child) public children */\n    tag_51:\n      mstore(0x20, 0x04)\n      dup1\n      0x00\n      mstore\n      keccak256(0x00, 0x40)\n      0x00\n      swap2\n      pop\n      swap1\n      pop\n      dup1\n      0x00\n      add\n      sload\n      swap1\n      dup1\n      0x01\n      add\n      sload\n      swap1\n      dup1\n      0x02\n      add\n      sload\n      swap1\n      dup1\n      0x03\n      add\n      0x00\n      swap1\n      sload\n      swap1\n      0x0100\n      exp\n      swap1\n      div\n      0xff\n      and\n      swap1\n      pop\n      dup5\n      jump\t// out\n        /* \"Signity/SignityRelationship.sol\":2290:2339  mapping(uint256 => uint256) public proposalExpiry */\n    tag_55:\n      mstore(0x20, 0x08)\n      dup1\n      0x00\n      mstore\n      keccak256(0x00, 0x40)\n      0x00\n      swap2\n      pop\n      swap1\n      pop\n      sload\n      dup2\n      jump\t// out\n        /* \"Signity/SignityRelationship.sol\":5230:6143  function requestChild(uint256 signId) external onlySignOwner(signId) {... */\n    tag_59:\n        /* \"Signity/SignityRelationship.sol\":5291:5297  signId */\n      dup1\n        /* \"Signity/SignityRelationship.sol\":2751:2768  address signOwner */\n      0x00\n        /* \"Signity/SignityRelationship.sol\":2780:2790  signityNFT */\n      0x01\n      0x00\n      swap1\n      sload\n      swap1\n      0x0100\n      exp\n      swap1\n      div\n      0xffffffffffffffffffffffffffffffffffffffff\n      and\n        /* \"Signity/SignityRelationship.sol\":2780:2805  signityNFT.getSignDetails */\n      0xffffffffffffffffffffffffffffffffffffffff\n      and\n      0x4eb5fdcf\n        /* \"Signity/SignityRelationship.sol\":2806:2812  signId */\n      dup4\n        /* \"Signity/SignityRelationship.sol\":2780:2813  signityNFT.getSignDetails(signId) */\n      mload(0x40)\n      dup3\n      0xffffffff\n      and\n      0xe0\n      shl\n      dup2\n      mstore\n      0x04\n      add\n      tag_131\n      swap2\n      swap1\n      tag_29\n      jump\t// in\n    tag_131:\n      0x00\n      mload(0x40)\n      dup1\n      dup4\n      sub\n      dup2\n      dup7\n      gas\n      staticcall\n      iszero\n      dup1\n      iszero\n      tag_133\n      jumpi\n      returndatasize\n      0x00\n      dup1\n      returndatacopy\n      revert(0x00, returndatasize)\n    tag_133:\n      pop\n      pop\n      pop\n      pop\n      mload(0x40)\n      returndatasize\n      0x00\n      dup3\n      returndatacopy\n      returndatasize\n      not(0x1f)\n      0x1f\n      dup3\n      add\n      and\n      dup3\n      add\n      dup1\n      0x40\n      mstore\n      pop\n      dup2\n      add\n      swap1\n      tag_134\n      swap2\n      swap1\n      tag_111\n      jump\t// in\n    tag_134:\n        /* \"Signity/SignityRelationship.sol\":2749:2813  (,address signOwner,,,,,,,,) = signityNFT.getSignDetails(signId) */\n      pop\n      pop\n      pop\n      pop\n      pop\n      pop\n      pop\n      pop\n      swap2\n      pop\n      pop\n        /* \"Signity/SignityRelationship.sol\":2845:2855  msg.sender */\n      caller\n        /* \"Signity/SignityRelationship.sol\":2832:2855  signOwner == msg.sender */\n      0xffffffffffffffffffffffffffffffffffffffff\n      and\n        /* \"Signity/SignityRelationship.sol\":2832:2841  signOwner */\n      dup2\n        /* \"Signity/SignityRelationship.sol\":2832:2855  signOwner == msg.sender */\n      0xffffffffffffffffffffffffffffffffffffffff\n      and\n      eq\n        /* \"Signity/SignityRelationship.sol\":2824:2905  require(signOwner == msg.sender, \"SignityRelationship: caller is not sign owner\") */\n      tag_135\n      jumpi\n      mload(0x40)\n      0x08c379a000000000000000000000000000000000000000000000000000000000\n      dup2\n      mstore\n      0x04\n      add\n      tag_136\n      swap1\n      tag_114\n      jump\t// in\n    tag_136:\n      mload(0x40)\n      dup1\n      swap2\n      sub\n      swap1\n      revert\n    tag_135:\n        /* \"Signity/SignityRelationship.sol\":5318:5335  isMarried(signId) */\n      tag_138\n        /* \"Signity/SignityRelationship.sol\":5328:5334  signId */\n      dup4\n        /* \"Signity/SignityRelationship.sol\":5318:5327  isMarried */\n      tag_46\n        /* \"Signity/SignityRelationship.sol\":5318:5335  isMarried(signId) */\n      jump\t// in\n    tag_138:\n        /* \"Signity/SignityRelationship.sol\":5310:5377  require(isMarried(signId), \"SignityRelationship: sign not married\") */\n      tag_139\n      jumpi\n      mload(0x40)\n      0x08c379a000000000000000000000000000000000000000000000000000000000\n      dup2\n      mstore\n      0x04\n      add\n      tag_140\n      swap1\n      tag_141\n      jump\t// in\n    tag_140:\n      mload(0x40)\n      dup1\n      swap2\n      sub\n      swap1\n      revert\n    tag_139:\n        /* \"Signity/SignityRelationship.sol\":5388:5404  uint256 spouseId */\n      0x00\n        /* \"Signity/SignityRelationship.sol\":5407:5415  spouseOf */\n      0x03\n        /* \"Signity/SignityRelationship.sol\":5407:5423  spouseOf[signId] */\n      0x00\n        /* \"Signity/SignityRelationship.sol\":5416:5422  signId */\n      dup6\n        /* \"Signity/SignityRelationship.sol\":5407:5423  spouseOf[signId] */\n      dup2\n      mstore\n      0x20\n      add\n      swap1\n      dup2\n      mstore\n      0x20\n      add\n      0x00\n      keccak256\n      sload\n        /* \"Signity/SignityRelationship.sol\":5388:5423  uint256 spouseId = spouseOf[signId] */\n      swap1\n      pop\n        /* \"Signity/SignityRelationship.sol\":5434:5459  Marriage storage marriage */\n      0x00\n        /* \"Signity/SignityRelationship.sol\":5462:5471  marriages */\n      0x02\n        /* \"Signity/SignityRelationship.sol\":5462:5479  marriages[signId] */\n      0x00\n        /* \"Signity/SignityRelationship.sol\":5472:5478  signId */\n      dup7\n        /* \"Signity/SignityRelationship.sol\":5462:5479  marriages[signId] */\n      dup2\n      mstore\n      0x20\n      add\n      swap1\n      dup2\n      mstore\n      0x20\n      add\n      0x00\n      keccak256\n        /* \"Signity/SignityRelationship.sol\":5434:5479  Marriage storage marriage = marriages[signId] */\n      swap1\n      pop\n        /* \"Signity/SignityRelationship.sol\":1652:1653  5 */\n      0x05\n        /* \"Signity/SignityRelationship.sol\":5508:5516  marriage */\n      dup2\n        /* \"Signity/SignityRelationship.sol\":5508:5525  marriage.children */\n      0x04\n      add\n        /* \"Signity/SignityRelationship.sol\":5508:5532  marriage.children.length */\n      dup1\n      sload\n      swap1\n      pop\n        /* \"Signity/SignityRelationship.sol\":5508:5547  marriage.children.length < MAX_CHILDREN */\n      lt\n        /* \"Signity/SignityRelationship.sol\":5500:5593  require(marriage.children.length < MAX_CHILDREN, \"SignityRelationship: max children reached\") */\n      tag_142\n      jumpi\n      mload(0x40)\n      0x08c379a000000000000000000000000000000000000000000000000000000000\n      dup2\n      mstore\n      0x04\n      add\n      tag_143\n      swap1\n      tag_144\n      jump\t// in\n    tag_143:\n      mload(0x40)\n      dup1\n      swap2\n      sub\n      swap1\n      revert\n    tag_142:\n        /* \"Signity/SignityRelationship.sol\":1584:1592  180 days */\n      0xed4e00\n        /* \"Signity/SignityRelationship.sol\":5630:5644  lastChildBirth */\n      0x05\n        /* \"Signity/SignityRelationship.sol\":5630:5652  lastChildBirth[signId] */\n      0x00\n        /* \"Signity/SignityRelationship.sol\":5645:5651  signId */\n      dup8\n        /* \"Signity/SignityRelationship.sol\":5630:5652  lastChildBirth[signId] */\n      dup2\n      mstore\n      0x20\n      add\n      swap1\n      dup2\n      mstore\n      0x20\n      add\n      0x00\n      keccak256\n      sload\n        /* \"Signity/SignityRelationship.sol\":5630:5669  lastChildBirth[signId] + CHILD_COOLDOWN */\n      tag_145\n      swap2\n      swap1\n      tag_146\n      jump\t// in\n    tag_145:\n        /* \"Signity/SignityRelationship.sol\":5612:5627  block.timestamp */\n      timestamp\n        /* \"Signity/SignityRelationship.sol\":5612:5669  block.timestamp > lastChildBirth[signId] + CHILD_COOLDOWN */\n      gt\n        /* \"Signity/SignityRelationship.sol\":5604:5716  require(block.timestamp > lastChildBirth[signId] + CHILD_COOLDOWN, \"SignityRelationship: child cooldown active\") */\n      tag_147\n      jumpi\n      mload(0x40)\n      0x08c379a000000000000000000000000000000000000000000000000000000000\n      dup2\n      mstore\n      0x04\n      add\n      tag_148\n      swap1\n      tag_149\n      jump\t// in\n    tag_148:\n      mload(0x40)\n      dup1\n      swap2\n      sub\n      swap1\n      revert\n    tag_147:\n        /* \"Signity/SignityRelationship.sol\":5814:5815  1 */\n      0x01\n        /* \"Signity/SignityRelationship.sol\":5809:5810  2 */\n      0x02\n        /* \"Signity/SignityRelationship.sol\":5782:5806  _random(block.timestamp) */\n      tag_150\n        /* \"Signity/SignityRelationship.sol\":5790:5805  block.timestamp */\n      timestamp\n        /* \"Signity/SignityRelationship.sol\":5782:5789  _random */\n      tag_151\n        /* \"Signity/SignityRelationship.sol\":5782:5806  _random(block.timestamp) */\n      jump\t// in\n    tag_150:\n        /* \"Signity/SignityRelationship.sol\":5782:5810  _random(block.timestamp) % 2 */\n      tag_152\n      swap2\n      swap1\n      tag_153\n      jump\t// in\n    tag_152:\n        /* \"Signity/SignityRelationship.sol\":5782:5815  _random(block.timestamp) % 2 == 1 */\n      sub\n        /* \"Signity/SignityRelationship.sol\":5778:6136  if (_random(block.timestamp) % 2 == 1) {... */\n      tag_154\n      jumpi\n        /* \"Signity/SignityRelationship.sol\":5832:5851  uint256 childSignId */\n      0x00\n        /* \"Signity/SignityRelationship.sol\":5854:5888  _createChildSign(signId, spouseId) */\n      tag_155\n        /* \"Signity/SignityRelationship.sol\":5871:5877  signId */\n      dup7\n        /* \"Signity/SignityRelationship.sol\":5879:5887  spouseId */\n      dup5\n        /* \"Signity/SignityRelationship.sol\":5854:5870  _createChildSign */\n      tag_156\n        /* \"Signity/SignityRelationship.sol\":5854:5888  _createChildSign(signId, spouseId) */\n      jump\t// in\n    tag_155:\n        /* \"Signity/SignityRelationship.sol\":5832:5888  uint256 childSignId = _createChildSign(signId, spouseId) */\n      swap1\n      pop\n        /* \"Signity/SignityRelationship.sol\":5903:5911  marriage */\n      dup2\n        /* \"Signity/SignityRelationship.sol\":5903:5920  marriage.children */\n      0x04\n      add\n        /* \"Signity/SignityRelationship.sol\":5926:5937  childSignId */\n      dup2\n        /* \"Signity/SignityRelationship.sol\":5903:5938  marriage.children.push(childSignId) */\n      swap1\n      dup1\n      0x01\n      dup2\n      sload\n      add\n      dup1\n      dup3\n      sstore\n      dup1\n      swap2\n      pop\n      pop\n      0x01\n      swap1\n      sub\n      swap1\n      0x00\n      mstore\n      keccak256(0x00, 0x20)\n      add\n      0x00\n      swap1\n      swap2\n      swap1\n      swap2\n      swap1\n      swap2\n      pop\n      sstore\n        /* \"Signity/SignityRelationship.sol\":5978:5993  block.timestamp */\n      timestamp\n        /* \"Signity/SignityRelationship.sol\":5953:5967  lastChildBirth */\n      0x05\n        /* \"Signity/SignityRelationship.sol\":5953:5975  lastChildBirth[signId] */\n      0x00\n        /* \"Signity/SignityRelationship.sol\":5968:5974  signId */\n      dup9\n        /* \"Signity/SignityRelationship.sol\":5953:5975  lastChildBirth[signId] */\n      dup2\n      mstore\n      0x20\n      add\n      swap1\n      dup2\n      mstore\n      0x20\n      add\n      0x00\n      keccak256\n        /* \"Signity/SignityRelationship.sol\":5953:5993  lastChildBirth[signId] = block.timestamp */\n      dup2\n      swap1\n      sstore\n      pop\n        /* \"Signity/SignityRelationship.sol\":6035:6050  block.timestamp */\n      timestamp\n        /* \"Signity/SignityRelationship.sol\":6008:6022  lastChildBirth */\n      0x05\n        /* \"Signity/SignityRelationship.sol\":6008:6032  lastChildBirth[spouseId] */\n      0x00\n        /* \"Signity/SignityRelationship.sol\":6023:6031  spouseId */\n      dup6\n        /* \"Signity/SignityRelationship.sol\":6008:6032  lastChildBirth[spouseId] */\n      dup2\n      mstore\n      0x20\n      add\n      swap1\n      dup2\n      mstore\n      0x20\n      add\n      0x00\n      keccak256\n        /* \"Signity/SignityRelationship.sol\":6008:6050  lastChildBirth[spouseId] = block.timestamp */\n      dup2\n      swap1\n      sstore\n      pop\n        /* \"Signity/SignityRelationship.sol\":6112:6123  childSignId */\n      dup1\n        /* \"Signity/SignityRelationship.sol\":6102:6110  spouseId */\n      dup4\n        /* \"Signity/SignityRelationship.sol\":6094:6100  signId */\n      dup8\n        /* \"Signity/SignityRelationship.sol\":6084:6124  ChildBorn(signId, spouseId, childSignId) */\n      0xcc8b031eff7add8d859d619d96932ecc4776663db05501da5ab3c52e0063913b\n      mload(0x40)\n      mload(0x40)\n      dup1\n      swap2\n      sub\n      swap1\n      log4\n        /* \"Signity/SignityRelationship.sol\":5817:6136  {... */\n      pop\n        /* \"Signity/SignityRelationship.sol\":5778:6136  if (_random(block.timestamp) % 2 == 1) {... */\n    tag_154:\n        /* \"Signity/SignityRelationship.sol\":5299:6143  {... */\n      pop\n      pop\n        /* \"Signity/SignityRelationship.sol\":2738:2925  {... */\n      pop\n        /* \"Signity/SignityRelationship.sol\":5230:6143  function requestChild(uint256 signId) external onlySignOwner(signId) {... */\n      pop\n      pop\n      jump\t// out\n        /* \"Signity/SignityRelationship.sol\":1686:1716  address public immutable owner */\n    tag_61:\n      immutable(\"0xd905fec1a56b00009651ce5a01a34d2244da02f516f67ee88b03219738dbf226\")\n      dup2\n      jump\t// out\n        /* \"Signity/SignityRelationship.sol\":1757:1786  ISignityNFT public signityNFT */\n    tag_65:\n      0x01\n      0x00\n      swap1\n      sload\n      swap1\n      0x0100\n      exp\n      swap1\n      div\n      0xffffffffffffffffffffffffffffffffffffffff\n      and\n      dup2\n      jump\t// out\n        /* \"Signity/SignityRelationship.sol\":6291:6418  function getMarriageDetails(uint256 signId) external view returns (Marriage memory) {... */\n    tag_70:\n        /* \"Signity/SignityRelationship.sol\":6358:6373  Marriage memory */\n      tag_158\n      tag_159\n      jump\t// in\n    tag_158:\n        /* \"Signity/SignityRelationship.sol\":6393:6402  marriages */\n      0x02\n        /* \"Signity/SignityRelationship.sol\":6393:6410  marriages[signId] */\n      0x00\n        /* \"Signity/SignityRelationship.sol\":6403:6409  signId */\n      dup4\n        /* \"Signity/SignityRelationship.sol\":6393:6410  marriages[signId] */\n      dup2\n      mstore\n      0x20\n      add\n      swap1\n      dup2\n      mstore\n      0x20\n      add\n      0x00\n      keccak256\n        /* \"Signity/SignityRelationship.sol\":6386:6410  return marriages[signId] */\n      mload(0x40)\n      dup1\n      0xa0\n      add\n      0x40\n      mstore\n      swap1\n      dup2\n      0x00\n      dup3\n      add\n      sload\n      dup2\n      mstore\n      0x20\n      add\n      0x01\n      dup3\n      add\n      sload\n      dup2\n      mstore\n      0x20\n      add\n      0x02\n      dup3\n      add\n      sload\n      dup2\n      mstore\n      0x20\n      add\n      0x03\n      dup3\n      add\n      0x00\n      swap1\n      sload\n      swap1\n      0x0100\n      exp\n      swap1\n      div\n      0xff\n      and\n      iszero\n      iszero\n      iszero\n      iszero\n      dup2\n      mstore\n      0x20\n      add\n      0x04\n      dup3\n      add\n      dup1\n      sload\n      dup1\n      0x20\n      mul\n      0x20\n      add\n      mload(0x40)\n      swap1\n      dup2\n      add\n      0x40\n      mstore\n      dup1\n      swap3\n      swap2\n      swap1\n      dup2\n      dup2\n      mstore\n      0x20\n      add\n      dup3\n      dup1\n      sload\n      dup1\n      iszero\n      tag_161\n      jumpi\n      0x20\n      mul\n      dup3\n      add\n      swap2\n      swap1\n      0x00\n      mstore\n      keccak256(0x00, 0x20)\n      swap1\n    tag_162:\n      dup2\n      sload\n      dup2\n      mstore\n      0x20\n      add\n      swap1\n      0x01\n      add\n      swap1\n      dup1\n      dup4\n      gt\n      tag_162\n      jumpi\n    tag_161:\n      pop\n      pop\n      pop\n      pop\n      pop\n      dup2\n      mstore\n      pop\n      pop\n      swap1\n      pop\n        /* \"Signity/SignityRelationship.sol\":6291:6418  function getMarriageDetails(uint256 signId) external view returns (Marriage memory) {... */\n      swap2\n      swap1\n      pop\n      jump\t// out\n        /* \"Signity/SignityRelationship.sol\":2209:2254  mapping(uint256 => uint256) public proposalTo */\n    tag_75:\n      mstore(0x20, 0x07)\n      dup1\n      0x00\n      mstore\n      keccak256(0x00, 0x40)\n      0x00\n      swap2\n      pop\n      swap1\n      pop\n      sload\n      dup2\n      jump\t// out\n        /* \"Signity/SignityRelationship.sol\":4633:5198  function divorce(uint256 signId) external onlySignOwner(signId) {... */\n    tag_79:\n        /* \"Signity/SignityRelationship.sol\":4689:4695  signId */\n      dup1\n        /* \"Signity/SignityRelationship.sol\":2751:2768  address signOwner */\n      0x00\n        /* \"Signity/SignityRelationship.sol\":2780:2790  signityNFT */\n      0x01\n      0x00\n      swap1\n      sload\n      swap1\n      0x0100\n      exp\n      swap1\n      div\n      0xffffffffffffffffffffffffffffffffffffffff\n      and\n        /* \"Signity/SignityRelationship.sol\":2780:2805  signityNFT.getSignDetails */\n      0xffffffffffffffffffffffffffffffffffffffff\n      and\n      0x4eb5fdcf\n        /* \"Signity/SignityRelationship.sol\":2806:2812  signId */\n      dup4\n        /* \"Signity/SignityRelationship.sol\":2780:2813  signityNFT.getSignDetails(signId) */\n      mload(0x40)\n      dup3\n      0xffffffff\n      and\n      0xe0\n      shl\n      dup2\n      mstore\n      0x04\n      add\n      tag_164\n      swap2\n      swap1\n      tag_29\n      jump\t// in\n    tag_164:\n      0x00\n      mload(0x40)\n      dup1\n      dup4\n      sub\n      dup2\n      dup7\n      gas\n      staticcall\n      iszero\n      dup1\n      iszero\n      tag_166\n      jumpi\n      returndatasize\n      0x00\n      dup1\n      returndatacopy\n      revert(0x00, returndatasize)\n    tag_166:\n      pop\n      pop\n      pop\n      pop\n      mload(0x40)\n      returndatasize\n      0x00\n      dup3\n      returndatacopy\n      returndatasize\n      not(0x1f)\n      0x1f\n      dup3\n      add\n      and\n      dup3\n      add\n      dup1\n      0x40\n      mstore\n      pop\n      dup2\n      add\n      swap1\n      tag_167\n      swap2\n      swap1\n      tag_111\n      jump\t// in\n    tag_167:\n        /* \"Signity/SignityRelationship.sol\":2749:2813  (,address signOwner,,,,,,,,) = signityNFT.getSignDetails(signId) */\n      pop\n      pop\n      pop\n      pop\n      pop\n      pop\n      pop\n      pop\n      swap2\n      pop\n      pop\n        /* \"Signity/SignityRelationship.sol\":2845:2855  msg.sender */\n      caller\n        /* \"Signity/SignityRelationship.sol\":2832:2855  signOwner == msg.sender */\n      0xffffffffffffffffffffffffffffffffffffffff\n      and\n        /* \"Signity/SignityRelationship.sol\":2832:2841  signOwner */\n      dup2\n        /* \"Signity/SignityRelationship.sol\":2832:2855  signOwner == msg.sender */\n      0xffffffffffffffffffffffffffffffffffffffff\n      and\n      eq\n        /* \"Signity/SignityRelationship.sol\":2824:2905  require(signOwner == msg.sender, \"SignityRelationship: caller is not sign owner\") */\n      tag_168\n      jumpi\n      mload(0x40)\n      0x08c379a000000000000000000000000000000000000000000000000000000000\n      dup2\n      mstore\n      0x04\n      add\n      tag_169\n      swap1\n      tag_114\n      jump\t// in\n    tag_169:\n      mload(0x40)\n      dup1\n      swap2\n      sub\n      swap1\n      revert\n    tag_168:\n        /* \"Signity/SignityRelationship.sol\":4716:4733  isMarried(signId) */\n      tag_171\n        /* \"Signity/SignityRelationship.sol\":4726:4732  signId */\n      dup4\n        /* \"Signity/SignityRelationship.sol\":4716:4725  isMarried */\n      tag_46\n        /* \"Signity/SignityRelationship.sol\":4716:4733  isMarried(signId) */\n      jump\t// in\n    tag_171:\n        /* \"Signity/SignityRelationship.sol\":4708:4775  require(isMarried(signId), \"SignityRelationship: sign not married\") */\n      tag_172\n      jumpi\n      mload(0x40)\n      0x08c379a000000000000000000000000000000000000000000000000000000000\n      dup2\n      mstore\n      0x04\n      add\n      tag_173\n      swap1\n      tag_141\n      jump\t// in\n    tag_173:\n      mload(0x40)\n      dup1\n      swap2\n      sub\n      swap1\n      revert\n    tag_172:\n        /* \"Signity/SignityRelationship.sol\":4796:4812  uint256 spouseId */\n      0x00\n        /* \"Signity/SignityRelationship.sol\":4815:4823  spouseOf */\n      0x03\n        /* \"Signity/SignityRelationship.sol\":4815:4831  spouseOf[signId] */\n      0x00\n        /* \"Signity/SignityRelationship.sol\":4824:4830  signId */\n      dup6\n        /* \"Signity/SignityRelationship.sol\":4815:4831  spouseOf[signId] */\n      dup2\n      mstore\n      0x20\n      add\n      swap1\n      dup2\n      mstore\n      0x20\n      add\n      0x00\n      keccak256\n      sload\n        /* \"Signity/SignityRelationship.sol\":4796:4831  uint256 spouseId = spouseOf[signId] */\n      swap1\n      pop\n        /* \"Signity/SignityRelationship.sol\":4842:4867  Marriage storage marriage */\n      0x00\n        /* \"Signity/SignityRelationship.sol\":4870:4879  marriages */\n      0x02\n        /* \"Signity/SignityRelationship.sol\":4870:4887  marriages[signId] */\n      0x00\n        /* \"Signity/SignityRelationship.sol\":4880:4886  signId */\n      dup7\n        /* \"Signity/SignityRelationship.sol\":4870:4887  marriages[signId] */\n      dup2\n      mstore\n      0x20\n      add\n      swap1\n      dup2\n      mstore\n      0x20\n      add\n      0x00\n      keccak256\n        /* \"Signity/SignityRelationship.sol\":4842:4887  Marriage storage marriage = marriages[signId] */\n      swap1\n      pop\n        /* \"Signity/SignityRelationship.sol\":4928:4933  false */\n      0x00\n        /* \"Signity/SignityRelationship.sol\":4908:4916  marriage */\n      dup2\n        /* \"Signity/SignityRelationship.sol\":4908:4925  marriage.isActive */\n      0x03\n      add\n      0x00\n        /* \"Signity/SignityRelationship.sol\":4908:4933  marriage.isActive = false */\n      0x0100\n      exp\n      dup2\n      sload\n      dup2\n      0xff\n      mul\n      not\n      and\n      swap1\n      dup4\n      iszero\n      iszero\n      mul\n      or\n      swap1\n      sstore\n      pop\n        /* \"Signity/SignityRelationship.sol\":4963:4964  0 */\n      0x00\n        /* \"Signity/SignityRelationship.sol\":4944:4952  spouseOf */\n      0x03\n        /* \"Signity/SignityRelationship.sol\":4944:4960  spouseOf[signId] */\n      0x00\n        /* \"Signity/SignityRelationship.sol\":4953:4959  signId */\n      dup8\n        /* \"Signity/SignityRelationship.sol\":4944:4960  spouseOf[signId] */\n      dup2\n      mstore\n      0x20\n      add\n      swap1\n      dup2\n      mstore\n      0x20\n      add\n      0x00\n      keccak256\n        /* \"Signity/SignityRelationship.sol\":4944:4964  spouseOf[signId] = 0 */\n      dup2\n      swap1\n      sstore\n      pop\n        /* \"Signity/SignityRelationship.sol\":4996:4997  0 */\n      0x00\n        /* \"Signity/SignityRelationship.sol\":4975:4983  spouseOf */\n      0x03\n        /* \"Signity/SignityRelationship.sol\":4975:4993  spouseOf[spouseId] */\n      0x00\n        /* \"Signity/SignityRelationship.sol\":4984:4992  spouseId */\n      dup5\n        /* \"Signity/SignityRelationship.sol\":4975:4993  spouseOf[spouseId] */\n      dup2\n      mstore\n      0x20\n      add\n      swap1\n      dup2\n      mstore\n      0x20\n      add\n      0x00\n      keccak256\n        /* \"Signity/SignityRelationship.sol\":4975:4997  spouseOf[spouseId] = 0 */\n      dup2\n      swap1\n      sstore\n      pop\n        /* \"Signity/SignityRelationship.sol\":5044:5059  block.timestamp */\n      timestamp\n        /* \"Signity/SignityRelationship.sol\":5018:5033  lastDivorceDate */\n      0x06\n        /* \"Signity/SignityRelationship.sol\":5018:5041  lastDivorceDate[signId] */\n      0x00\n        /* \"Signity/SignityRelationship.sol\":5034:5040  signId */\n      dup8\n        /* \"Signity/SignityRelationship.sol\":5018:5041  lastDivorceDate[signId] */\n      dup2\n      mstore\n      0x20\n      add\n      swap1\n      dup2\n      mstore\n      0x20\n      add\n      0x00\n      keccak256\n        /* \"Signity/SignityRelationship.sol\":5018:5059  lastDivorceDate[signId] = block.timestamp */\n      dup2\n      swap1\n      sstore\n      pop\n        /* \"Signity/SignityRelationship.sol\":5098:5113  block.timestamp */\n      timestamp\n        /* \"Signity/SignityRelationship.sol\":5070:5085  lastDivorceDate */\n      0x06\n        /* \"Signity/SignityRelationship.sol\":5070:5095  lastDivorceDate[spouseId] */\n      0x00\n        /* \"Signity/SignityRelationship.sol\":5086:5094  spouseId */\n      dup5\n        /* \"Signity/SignityRelationship.sol\":5070:5095  lastDivorceDate[spouseId] */\n      dup2\n      mstore\n      0x20\n      add\n      swap1\n      dup2\n      mstore\n      0x20\n      add\n      0x00\n      keccak256\n        /* \"Signity/SignityRelationship.sol\":5070:5113  lastDivorceDate[spouseId] = block.timestamp */\n      dup2\n      swap1\n      sstore\n      pop\n        /* \"Signity/SignityRelationship.sol\":5164:5172  spouseId */\n      dup2\n        /* \"Signity/SignityRelationship.sol\":5156:5162  signId */\n      dup6\n        /* \"Signity/SignityRelationship.sol\":5139:5190  MarriageDivorced(signId, spouseId, block.timestamp) */\n      0x8c5de88b98de9839f8bd91fcff59e133ce788f392c0e464516cd3052cd8a9ee1\n        /* \"Signity/SignityRelationship.sol\":5174:5189  block.timestamp */\n      timestamp\n        /* \"Signity/SignityRelationship.sol\":5139:5190  MarriageDivorced(signId, spouseId, block.timestamp) */\n      mload(0x40)\n      tag_174\n      swap2\n      swap1\n      tag_29\n      jump\t// in\n    tag_174:\n      mload(0x40)\n      dup1\n      swap2\n      sub\n      swap1\n      log3\n        /* \"Signity/SignityRelationship.sol\":4697:5198  {... */\n      pop\n      pop\n        /* \"Signity/SignityRelationship.sol\":2738:2925  {... */\n      pop\n        /* \"Signity/SignityRelationship.sol\":4633:5198  function divorce(uint256 signId) external onlySignOwner(signId) {... */\n      pop\n      pop\n      jump\t// out\n        /* \"Signity/SignityRelationship.sol\":1892:1935  mapping(uint256 => uint256) public spouseOf */\n    tag_82:\n      mstore(0x20, 0x03)\n      dup1\n      0x00\n      mstore\n      keccak256(0x00, 0x40)\n      0x00\n      swap2\n      pop\n      swap1\n      pop\n      sload\n      dup2\n      jump\t// out\n        /* \"Signity/SignityRelationship.sol\":6426:6556  function getChildDetails(uint256 childSignId) external view returns (Child memory) {... */\n    tag_86:\n        /* \"Signity/SignityRelationship.sol\":6495:6507  Child memory */\n      tag_175\n      tag_176\n      jump\t// in\n    tag_175:\n        /* \"Signity/SignityRelationship.sol\":6527:6535  children */\n      0x04\n        /* \"Signity/SignityRelationship.sol\":6527:6548  children[childSignId] */\n      0x00\n        /* \"Signity/SignityRelationship.sol\":6536:6547  childSignId */\n      dup4\n        /* \"Signity/SignityRelationship.sol\":6527:6548  children[childSignId] */\n      dup2\n      mstore\n      0x20\n      add\n      swap1\n      dup2\n      mstore\n      0x20\n      add\n      0x00\n      keccak256\n        /* \"Signity/SignityRelationship.sol\":6520:6548  return children[childSignId] */\n      mload(0x40)\n      dup1\n      0x80\n      add\n      0x40\n      mstore\n      swap1\n      dup2\n      0x00\n      dup3\n      add\n      sload\n      dup2\n      mstore\n      0x20\n      add\n      0x01\n      dup3\n      add\n      sload\n      dup2\n      mstore\n      0x20\n      add\n      0x02\n      dup3\n      add\n      sload\n      dup2\n      mstore\n      0x20\n      add\n      0x03\n      dup3\n      add\n      0x00\n      swap1\n      sload\n      swap1\n      0x0100\n      exp\n      swap1\n      div\n      0xff\n      and\n      iszero\n      iszero\n      iszero\n      iszero\n      dup2\n      mstore\n      pop\n      pop\n      swap1\n      pop\n        /* \"Signity/SignityRelationship.sol\":6426:6556  function getChildDetails(uint256 childSignId) external view returns (Child memory) {... */\n      swap2\n      swap1\n      pop\n      jump\t// out\n        /* \"Signity/SignityRelationship.sol\":1613:1653  uint256 public constant MAX_CHILDREN = 5 */\n    tag_90:\n        /* \"Signity/SignityRelationship.sol\":1652:1653  5 */\n      0x05\n        /* \"Signity/SignityRelationship.sol\":1613:1653  uint256 public constant MAX_CHILDREN = 5 */\n      dup2\n      jump\t// out\n        /* \"Signity/SignityRelationship.sol\":2129:2179  mapping(uint256 => uint256) public lastDivorceDate */\n    tag_94:\n      mstore(0x20, 0x06)\n      dup1\n      0x00\n      mstore\n      keccak256(0x00, 0x40)\n      0x00\n      swap2\n      pop\n      swap1\n      pop\n      sload\n      dup2\n      jump\t// out\n        /* \"Signity/SignityRelationship.sol\":2960:3696  function proposeMarriage(uint256 fromSignId, uint256 toSignId) external onlySignOwner(fromSignId) {... */\n    tag_98:\n        /* \"Signity/SignityRelationship.sol\":3046:3056  fromSignId */\n      dup2\n        /* \"Signity/SignityRelationship.sol\":2751:2768  address signOwner */\n      0x00\n        /* \"Signity/SignityRelationship.sol\":2780:2790  signityNFT */\n      0x01\n      0x00\n      swap1\n      sload\n      swap1\n      0x0100\n      exp\n      swap1\n      div\n      0xffffffffffffffffffffffffffffffffffffffff\n      and\n        /* \"Signity/SignityRelationship.sol\":2780:2805  signityNFT.getSignDetails */\n      0xffffffffffffffffffffffffffffffffffffffff\n      and\n      0x4eb5fdcf\n        /* \"Signity/SignityRelationship.sol\":2806:2812  signId */\n      dup4\n        /* \"Signity/SignityRelationship.sol\":2780:2813  signityNFT.getSignDetails(signId) */\n      mload(0x40)\n      dup3\n      0xffffffff\n      and\n      0xe0\n      shl\n      dup2\n      mstore\n      0x04\n      add\n      tag_179\n      swap2\n      swap1\n      tag_29\n      jump\t// in\n    tag_179:\n      0x00\n      mload(0x40)\n      dup1\n      dup4\n      sub\n      dup2\n      dup7\n      gas\n      staticcall\n      iszero\n      dup1\n      iszero\n      tag_181\n      jumpi\n      returndatasize\n      0x00\n      dup1\n      returndatacopy\n      revert(0x00, returndatasize)\n    tag_181:\n      pop\n      pop\n      pop\n      pop\n      mload(0x40)\n      returndatasize\n      0x00\n      dup3\n      returndatacopy\n      returndatasize\n      not(0x1f)\n      0x1f\n      dup3\n      add\n      and\n      dup3\n      add\n      dup1\n      0x40\n      mstore\n      pop\n      dup2\n      add\n      swap1\n      tag_182\n      swap2\n      swap1\n      tag_111\n      jump\t// in\n    tag_182:\n        /* \"Signity/SignityRelationship.sol\":2749:2813  (,address signOwner,,,,,,,,) = signityNFT.getSignDetails(signId) */\n      pop\n      pop\n      pop\n      pop\n      pop\n      pop\n      pop\n      pop\n      swap2\n      pop\n      pop\n        /* \"Signity/SignityRelationship.sol\":2845:2855  msg.sender */\n      caller\n        /* \"Signity/SignityRelationship.sol\":2832:2855  signOwner == msg.sender */\n      0xffffffffffffffffffffffffffffffffffffffff\n      and\n        /* \"Signity/SignityRelationship.sol\":2832:2841  signOwner */\n      dup2\n        /* \"Signity/SignityRelationship.sol\":2832:2855  signOwner == msg.sender */\n      0xffffffffffffffffffffffffffffffffffffffff\n      and\n      eq\n        /* \"Signity/SignityRelationship.sol\":2824:2905  require(signOwner == msg.sender, \"SignityRelationship: caller is not sign owner\") */\n      tag_183\n      jumpi\n      mload(0x40)\n      0x08c379a000000000000000000000000000000000000000000000000000000000\n      dup2\n      mstore\n      0x04\n      add\n      tag_184\n      swap1\n      tag_114\n      jump\t// in\n    tag_184:\n      mload(0x40)\n      dup1\n      swap2\n      sub\n      swap1\n      revert\n    tag_183:\n        /* \"Signity/SignityRelationship.sol\":3078:3099  isMarried(fromSignId) */\n      tag_186\n        /* \"Signity/SignityRelationship.sol\":3088:3098  fromSignId */\n      dup5\n        /* \"Signity/SignityRelationship.sol\":3078:3087  isMarried */\n      tag_46\n        /* \"Signity/SignityRelationship.sol\":3078:3099  isMarried(fromSignId) */\n      jump\t// in\n    tag_186:\n        /* \"Signity/SignityRelationship.sol\":3077:3099  !isMarried(fromSignId) */\n      iszero\n        /* \"Signity/SignityRelationship.sol\":3069:3145  require(!isMarried(fromSignId), \"SignityRelationship: sign already married\") */\n      tag_187\n      jumpi\n      mload(0x40)\n      0x08c379a000000000000000000000000000000000000000000000000000000000\n      dup2\n      mstore\n      0x04\n      add\n      tag_188\n      swap1\n      tag_189\n      jump\t// in\n    tag_188:\n      mload(0x40)\n      dup1\n      swap2\n      sub\n      swap1\n      revert\n    tag_187:\n        /* \"Signity/SignityRelationship.sol\":3165:3184  isMarried(toSignId) */\n      tag_190\n        /* \"Signity/SignityRelationship.sol\":3175:3183  toSignId */\n      dup4\n        /* \"Signity/SignityRelationship.sol\":3165:3174  isMarried */\n      tag_46\n        /* \"Signity/SignityRelationship.sol\":3165:3184  isMarried(toSignId) */\n      jump\t// in\n    tag_190:\n        /* \"Signity/SignityRelationship.sol\":3164:3184  !isMarried(toSignId) */\n      iszero\n        /* \"Signity/SignityRelationship.sol\":3156:3237  require(!isMarried(toSignId), \"SignityRelationship: target sign already married\") */\n      tag_191\n      jumpi\n      mload(0x40)\n      0x08c379a000000000000000000000000000000000000000000000000000000000\n      dup2\n      mstore\n      0x04\n      add\n      tag_192\n      swap1\n      tag_193\n      jump\t// in\n    tag_192:\n      mload(0x40)\n      dup1\n      swap2\n      sub\n      swap1\n      revert\n    tag_191:\n        /* \"Signity/SignityRelationship.sol\":1516:1523  90 days */\n      0x76a700\n        /* \"Signity/SignityRelationship.sol\":3274:3289  lastDivorceDate */\n      0x06\n        /* \"Signity/SignityRelationship.sol\":3274:3301  lastDivorceDate[fromSignId] */\n      0x00\n        /* \"Signity/SignityRelationship.sol\":3290:3300  fromSignId */\n      dup7\n        /* \"Signity/SignityRelationship.sol\":3274:3301  lastDivorceDate[fromSignId] */\n      dup2\n      mstore\n      0x20\n      add\n      swap1\n      dup2\n      mstore\n      0x20\n      add\n      0x00\n      keccak256\n      sload\n        /* \"Signity/SignityRelationship.sol\":3274:3320  lastDivorceDate[fromSignId] + DIVORCE_COOLDOWN */\n      tag_194\n      swap2\n      swap1\n      tag_146\n      jump\t// in\n    tag_194:\n        /* \"Signity/SignityRelationship.sol\":3256:3271  block.timestamp */\n      timestamp\n        /* \"Signity/SignityRelationship.sol\":3256:3320  block.timestamp > lastDivorceDate[fromSignId] + DIVORCE_COOLDOWN */\n      gt\n        /* \"Signity/SignityRelationship.sol\":3248:3369  require(block.timestamp > lastDivorceDate[fromSignId] + DIVORCE_COOLDOWN, \"SignityRelationship: divorce cooldown active\") */\n      tag_195\n      jumpi\n      mload(0x40)\n      0x08c379a000000000000000000000000000000000000000000000000000000000\n      dup2\n      mstore\n      0x04\n      add\n      tag_196\n      swap1\n      tag_197\n      jump\t// in\n    tag_196:\n      mload(0x40)\n      dup1\n      swap2\n      sub\n      swap1\n      revert\n    tag_195:\n        /* \"Signity/SignityRelationship.sol\":1516:1523  90 days */\n      0x76a700\n        /* \"Signity/SignityRelationship.sol\":3406:3421  lastDivorceDate */\n      0x06\n        /* \"Signity/SignityRelationship.sol\":3406:3431  lastDivorceDate[toSignId] */\n      0x00\n        /* \"Signity/SignityRelationship.sol\":3422:3430  toSignId */\n      dup6\n        /* \"Signity/SignityRelationship.sol\":3406:3431  lastDivorceDate[toSignId] */\n      dup2\n      mstore\n      0x20\n      add\n      swap1\n      dup2\n      mstore\n      0x20\n      add\n      0x00\n      keccak256\n      sload\n        /* \"Signity/SignityRelationship.sol\":3406:3450  lastDivorceDate[toSignId] + DIVORCE_COOLDOWN */\n      tag_198\n      swap2\n      swap1\n      tag_146\n      jump\t// in\n    tag_198:\n        /* \"Signity/SignityRelationship.sol\":3388:3403  block.timestamp */\n      timestamp\n        /* \"Signity/SignityRelationship.sol\":3388:3450  block.timestamp > lastDivorceDate[toSignId] + DIVORCE_COOLDOWN */\n      gt\n        /* \"Signity/SignityRelationship.sol\":3380:3506  require(block.timestamp > lastDivorceDate[toSignId] + DIVORCE_COOLDOWN, \"SignityRelationship: target divorce cooldown active\") */\n      tag_199\n      jumpi\n      mload(0x40)\n      0x08c379a000000000000000000000000000000000000000000000000000000000\n      dup2\n      mstore\n      0x04\n      add\n      tag_200\n      swap1\n      tag_201\n      jump\t// in\n    tag_200:\n      mload(0x40)\n      dup1\n      swap2\n      sub\n      swap1\n      revert\n    tag_199:\n        /* \"Signity/SignityRelationship.sol\":3552:3560  toSignId */\n      dup3\n        /* \"Signity/SignityRelationship.sol\":3527:3537  proposalTo */\n      0x07\n        /* \"Signity/SignityRelationship.sol\":3527:3549  proposalTo[fromSignId] */\n      0x00\n        /* \"Signity/SignityRelationship.sol\":3538:3548  fromSignId */\n      dup7\n        /* \"Signity/SignityRelationship.sol\":3527:3549  proposalTo[fromSignId] */\n      dup2\n      mstore\n      0x20\n      add\n      swap1\n      dup2\n      mstore\n      0x20\n      add\n      0x00\n      keccak256\n        /* \"Signity/SignityRelationship.sol\":3527:3560  proposalTo[fromSignId] = toSignId */\n      dup2\n      swap1\n      sstore\n      pop\n        /* \"Signity/SignityRelationship.sol\":3618:3624  7 days */\n      0x093a80\n        /* \"Signity/SignityRelationship.sol\":3600:3615  block.timestamp */\n      timestamp\n        /* \"Signity/SignityRelationship.sol\":3600:3624  block.timestamp + 7 days */\n      tag_202\n      swap2\n      swap1\n      tag_146\n      jump\t// in\n    tag_202:\n        /* \"Signity/SignityRelationship.sol\":3571:3585  proposalExpiry */\n      0x08\n        /* \"Signity/SignityRelationship.sol\":3571:3597  proposalExpiry[fromSignId] */\n      0x00\n        /* \"Signity/SignityRelationship.sol\":3586:3596  fromSignId */\n      dup7\n        /* \"Signity/SignityRelationship.sol\":3571:3597  proposalExpiry[fromSignId] */\n      dup2\n      mstore\n      0x20\n      add\n      swap1\n      dup2\n      mstore\n      0x20\n      add\n      0x00\n      keccak256\n        /* \"Signity/SignityRelationship.sol\":3571:3624  proposalExpiry[fromSignId] = block.timestamp + 7 days */\n      dup2\n      swap1\n      sstore\n      pop\n        /* \"Signity/SignityRelationship.sol\":3679:3687  toSignId */\n      dup3\n        /* \"Signity/SignityRelationship.sol\":3667:3677  fromSignId */\n      dup5\n        /* \"Signity/SignityRelationship.sol\":3650:3688  MarriageProposed(fromSignId, toSignId) */\n      0xd39eb4e990a8f071a7fb2b997daaaa0c2c57ce49895e2761bdba2bab91e7d0fe\n      mload(0x40)\n      mload(0x40)\n      dup1\n      swap2\n      sub\n      swap1\n      log3\n        /* \"Signity/SignityRelationship.sol\":2738:2925  {... */\n      pop\n        /* \"Signity/SignityRelationship.sol\":2960:3696  function proposeMarriage(uint256 fromSignId, uint256 toSignId) external onlySignOwner(fromSignId) {... */\n      pop\n      pop\n      pop\n      jump\t// out\n        /* \"Signity/SignityRelationship.sol\":1723:1750  ISignToken public signToken */\n    tag_100:\n      0x00\n      dup1\n      sload\n      swap1\n      0x0100\n      exp\n      swap1\n      div\n      0xffffffffffffffffffffffffffffffffffffffff\n      and\n      dup2\n      jump\t// out\n        /* \"Signity/SignityRelationship.sol\":1473:1523  uint256 public constant DIVORCE_COOLDOWN = 90 days */\n    tag_104:\n        /* \"Signity/SignityRelationship.sol\":1516:1523  90 days */\n      0x76a700\n        /* \"Signity/SignityRelationship.sol\":1473:1523  uint256 public constant DIVORCE_COOLDOWN = 90 days */\n      dup2\n      jump\t// out\n        /* \"Signity/SignityRelationship.sol\":7064:7230  function _random(uint256 seed) internal view returns (uint256) {... */\n    tag_151:\n        /* \"Signity/SignityRelationship.sol\":7118:7125  uint256 */\n      0x00\n        /* \"Signity/SignityRelationship.sol\":7180:7195  block.timestamp */\n      timestamp\n        /* \"Signity/SignityRelationship.sol\":7197:7213  block.difficulty */\n      prevrandao\n        /* \"Signity/SignityRelationship.sol\":7215:7219  seed */\n      dup4\n        /* \"Signity/SignityRelationship.sol\":7163:7220  abi.encodePacked(block.timestamp, block.difficulty, seed) */\n      add(0x20, mload(0x40))\n      tag_204\n      swap4\n      swap3\n      swap2\n      swap1\n      tag_205\n      jump\t// in\n    tag_204:\n      mload(0x40)\n      0x20\n      dup2\n      dup4\n      sub\n      sub\n      dup2\n      mstore\n      swap1\n      0x40\n      mstore\n        /* \"Signity/SignityRelationship.sol\":7153:7221  keccak256(abi.encodePacked(block.timestamp, block.difficulty, seed)) */\n      dup1\n      mload\n      swap1\n      0x20\n      add\n      keccak256\n        /* \"Signity/SignityRelationship.sol\":7145:7222  uint256(keccak256(abi.encodePacked(block.timestamp, block.difficulty, seed))) */\n      0x00\n      shr\n        /* \"Signity/SignityRelationship.sol\":7138:7222  return uint256(keccak256(abi.encodePacked(block.timestamp, block.difficulty, seed))) */\n      swap1\n      pop\n        /* \"Signity/SignityRelationship.sol\":7064:7230  function _random(uint256 seed) internal view returns (uint256) {... */\n      swap2\n      swap1\n      pop\n      jump\t// out\n        /* \"Signity/SignityRelationship.sol\":6591:7056  function _createChildSign(uint256 parent1, uint256 parent2) internal returns (uint256) {... */\n    tag_156:\n        /* \"Signity/SignityRelationship.sol\":6669:6676  uint256 */\n      0x00\n        /* \"Signity/SignityRelationship.sol\":6689:6708  uint256 childSignId */\n      dup1\n        /* \"Signity/SignityRelationship.sol\":6746:6753  parent1 */\n      dup4\n        /* \"Signity/SignityRelationship.sol\":6755:6762  parent2 */\n      dup4\n        /* \"Signity/SignityRelationship.sol\":6764:6779  block.timestamp */\n      timestamp\n        /* \"Signity/SignityRelationship.sol\":6781:6805  _random(block.timestamp) */\n      tag_207\n        /* \"Signity/SignityRelationship.sol\":6789:6804  block.timestamp */\n      timestamp\n        /* \"Signity/SignityRelationship.sol\":6781:6788  _random */\n      tag_151\n        /* \"Signity/SignityRelationship.sol\":6781:6805  _random(block.timestamp) */\n      jump\t// in\n    tag_207:\n        /* \"Signity/SignityRelationship.sol\":6729:6806  abi.encodePacked(parent1, parent2, block.timestamp, _random(block.timestamp)) */\n      add(0x20, mload(0x40))\n      tag_208\n      swap5\n      swap4\n      swap3\n      swap2\n      swap1\n      tag_209\n      jump\t// in\n    tag_208:\n      mload(0x40)\n      0x20\n      dup2\n      dup4\n      sub\n      sub\n      dup2\n      mstore\n      swap1\n      0x40\n      mstore\n        /* \"Signity/SignityRelationship.sol\":6719:6807  keccak256(abi.encodePacked(parent1, parent2, block.timestamp, _random(block.timestamp))) */\n      dup1\n      mload\n      swap1\n      0x20\n      add\n      keccak256\n        /* \"Signity/SignityRelationship.sol\":6711:6808  uint256(keccak256(abi.encodePacked(parent1, parent2, block.timestamp, _random(block.timestamp)))) */\n      0x00\n      shr\n        /* \"Signity/SignityRelationship.sol\":6689:6808  uint256 childSignId = uint256(keccak256(abi.encodePacked(parent1, parent2, block.timestamp, _random(block.timestamp)))) */\n      swap1\n      pop\n        /* \"Signity/SignityRelationship.sol\":6853:7009  Child({... */\n      mload(0x40)\n      dup1\n      0x80\n      add\n      0x40\n      mstore\n      dup1\n        /* \"Signity/SignityRelationship.sol\":6887:6894  parent1 */\n      dup6\n        /* \"Signity/SignityRelationship.sol\":6853:7009  Child({... */\n      dup2\n      mstore\n      0x20\n      add\n        /* \"Signity/SignityRelationship.sol\":6922:6929  parent2 */\n      dup5\n        /* \"Signity/SignityRelationship.sol\":6853:7009  Child({... */\n      dup2\n      mstore\n      0x20\n      add\n        /* \"Signity/SignityRelationship.sol\":6955:6970  block.timestamp */\n      timestamp\n        /* \"Signity/SignityRelationship.sol\":6853:7009  Child({... */\n      dup2\n      mstore\n      0x20\n      add\n        /* \"Signity/SignityRelationship.sol\":6993:6997  true */\n      0x01\n        /* \"Signity/SignityRelationship.sol\":6853:7009  Child({... */\n      iszero\n      iszero\n      dup2\n      mstore\n      pop\n        /* \"Signity/SignityRelationship.sol\":6829:6837  children */\n      0x04\n        /* \"Signity/SignityRelationship.sol\":6829:6850  children[childSignId] */\n      0x00\n        /* \"Signity/SignityRelationship.sol\":6838:6849  childSignId */\n      dup4\n        /* \"Signity/SignityRelationship.sol\":6829:6850  children[childSignId] */\n      dup2\n      mstore\n      0x20\n      add\n      swap1\n      dup2\n      mstore\n      0x20\n      add\n      0x00\n      keccak256\n        /* \"Signity/SignityRelationship.sol\":6829:7009  children[childSignId] = Child({... */\n      0x00\n      dup3\n      add\n      mload\n      dup2\n      0x00\n      add\n      sstore\n      0x20\n      dup3\n      add\n      mload\n      dup2\n      0x01\n      add\n      sstore\n      0x40\n      dup3\n      add\n      mload\n      dup2\n      0x02\n      add\n      sstore\n      0x60\n      dup3\n      add\n      mload\n      dup2\n      0x03\n      add\n      exp(0x0100, 0x00)\n      dup2\n      sload\n      dup2\n      0xff\n      mul\n      not\n      and\n      swap1\n      dup4\n      iszero\n      iszero\n      mul\n      or\n      swap1\n      sstore\n      pop\n      swap1\n      pop\n      pop\n        /* \"Signity/SignityRelationship.sol\":7037:7048  childSignId */\n      dup1\n        /* \"Signity/SignityRelationship.sol\":7030:7048  return childSignId */\n      swap2\n      pop\n      pop\n        /* \"Signity/SignityRelationship.sol\":6591:7056  function _createChildSign(uint256 parent1, uint256 parent2) internal returns (uint256) {... */\n      swap3\n      swap2\n      pop\n      pop\n      jump\t// out\n    tag_159:\n      mload(0x40)\n      dup1\n      0xa0\n      add\n      0x40\n      mstore\n      dup1\n      0x00\n      dup2\n      mstore\n      0x20\n      add\n      0x00\n      dup2\n      mstore\n      0x20\n      add\n      0x00\n      dup2\n      mstore\n      0x20\n      add\n      iszero(iszero(0x00))\n      dup2\n      mstore\n      0x20\n      add\n      0x60\n      dup2\n      mstore\n      pop\n      swap1\n      jump\t// out\n    tag_176:\n      mload(0x40)\n      dup1\n      0x80\n      add\n      0x40\n      mstore\n      dup1\n      0x00\n      dup2\n      mstore\n      0x20\n      add\n      0x00\n      dup2\n      mstore\n      0x20\n      add\n      0x00\n      dup2\n      mstore\n      0x20\n      add\n      iszero(iszero(0x00))\n      dup2\n      mstore\n      pop\n      swap1\n      jump\t// out\n        /* \"#utility.yul\":7:84   */\n    tag_210:\n        /* \"#utility.yul\":44:51   */\n      0x00\n        /* \"#utility.yul\":73:78   */\n      dup2\n        /* \"#utility.yul\":62:78   */\n      swap1\n      pop\n        /* \"#utility.yul\":7:84   */\n      swap2\n      swap1\n      pop\n      jump\t// out\n        /* \"#utility.yul\":90:208   */\n    tag_211:\n        /* \"#utility.yul\":177:201   */\n      tag_284\n        /* \"#utility.yul\":195:200   */\n      dup2\n        /* \"#utility.yul\":177:201   */\n      tag_210\n      jump\t// in\n    tag_284:\n        /* \"#utility.yul\":172:175   */\n      dup3\n        /* \"#utility.yul\":165:202   */\n      mstore\n        /* \"#utility.yul\":90:208   */\n      pop\n      pop\n      jump\t// out\n        /* \"#utility.yul\":214:436   */\n    tag_29:\n        /* \"#utility.yul\":307:311   */\n      0x00\n        /* \"#utility.yul\":345:347   */\n      0x20\n        /* \"#utility.yul\":334:343   */\n      dup3\n        /* \"#utility.yul\":330:348   */\n      add\n        /* \"#utility.yul\":322:348   */\n      swap1\n      pop\n        /* \"#utility.yul\":358:429   */\n      tag_286\n        /* \"#utility.yul\":426:427   */\n      0x00\n        /* \"#utility.yul\":415:424   */\n      dup4\n        /* \"#utility.yul\":411:428   */\n      add\n        /* \"#utility.yul\":402:408   */\n      dup5\n        /* \"#utility.yul\":358:429   */\n      tag_211\n      jump\t// in\n    tag_286:\n        /* \"#utility.yul\":214:436   */\n      swap3\n      swap2\n      pop\n      pop\n      jump\t// out\n        /* \"#utility.yul\":442:517   */\n    tag_212:\n        /* \"#utility.yul\":475:481   */\n      0x00\n        /* \"#utility.yul\":508:510   */\n      0x40\n        /* \"#utility.yul\":502:511   */\n      mload\n        /* \"#utility.yul\":492:511   */\n      swap1\n      pop\n        /* \"#utility.yul\":442:517   */\n      swap1\n      jump\t// out\n        /* \"#utility.yul\":523:640   */\n    tag_213:\n        /* \"#utility.yul\":632:633   */\n      0x00\n        /* \"#utility.yul\":629:630   */\n      dup1\n        /* \"#utility.yul\":622:634   */\n      revert\n        /* \"#utility.yul\":646:763   */\n    tag_214:\n        /* \"#utility.yul\":755:756   */\n      0x00\n        /* \"#utility.yul\":752:753   */\n      dup1\n        /* \"#utility.yul\":745:757   */\n      revert\n        /* \"#utility.yul\":769:891   */\n    tag_215:\n        /* \"#utility.yul\":842:866   */\n      tag_291\n        /* \"#utility.yul\":860:865   */\n      dup2\n        /* \"#utility.yul\":842:866   */\n      tag_210\n      jump\t// in\n    tag_291:\n        /* \"#utility.yul\":835:840   */\n      dup2\n        /* \"#utility.yul\":832:867   */\n      eq\n        /* \"#utility.yul\":822:885   */\n      tag_292\n      jumpi\n        /* \"#utility.yul\":881:882   */\n      0x00\n        /* \"#utility.yul\":878:879   */\n      dup1\n        /* \"#utility.yul\":871:883   */\n      revert\n        /* \"#utility.yul\":822:885   */\n    tag_292:\n        /* \"#utility.yul\":769:891   */\n      pop\n      jump\t// out\n        /* \"#utility.yul\":897:1036   */\n    tag_216:\n        /* \"#utility.yul\":943:948   */\n      0x00\n        /* \"#utility.yul\":981:987   */\n      dup2\n        /* \"#utility.yul\":968:988   */\n      calldataload\n        /* \"#utility.yul\":959:988   */\n      swap1\n      pop\n        /* \"#utility.yul\":997:1030   */\n      tag_294\n        /* \"#utility.yul\":1024:1029   */\n      dup2\n        /* \"#utility.yul\":997:1030   */\n      tag_215\n      jump\t// in\n    tag_294:\n        /* \"#utility.yul\":897:1036   */\n      swap3\n      swap2\n      pop\n      pop\n      jump\t// out\n        /* \"#utility.yul\":1042:1371   */\n    tag_32:\n        /* \"#utility.yul\":1101:1107   */\n      0x00\n        /* \"#utility.yul\":1150:1152   */\n      0x20\n        /* \"#utility.yul\":1138:1147   */\n      dup3\n        /* \"#utility.yul\":1129:1136   */\n      dup5\n        /* \"#utility.yul\":1125:1148   */\n      sub\n        /* \"#utility.yul\":1121:1153   */\n      slt\n        /* \"#utility.yul\":1118:1237   */\n      iszero\n      tag_296\n      jumpi\n        /* \"#utility.yul\":1156:1235   */\n      tag_297\n      tag_213\n      jump\t// in\n    tag_297:\n        /* \"#utility.yul\":1118:1237   */\n    tag_296:\n        /* \"#utility.yul\":1276:1277   */\n      0x00\n        /* \"#utility.yul\":1301:1354   */\n      tag_298\n        /* \"#utility.yul\":1346:1353   */\n      dup5\n        /* \"#utility.yul\":1337:1343   */\n      dup3\n        /* \"#utility.yul\":1326:1335   */\n      dup6\n        /* \"#utility.yul\":1322:1344   */\n      add\n        /* \"#utility.yul\":1301:1354   */\n      tag_216\n      jump\t// in\n    tag_298:\n        /* \"#utility.yul\":1291:1354   */\n      swap2\n      pop\n        /* \"#utility.yul\":1247:1364   */\n      pop\n        /* \"#utility.yul\":1042:1371   */\n      swap3\n      swap2\n      pop\n      pop\n      jump\t// out\n        /* \"#utility.yul\":1377:1467   */\n    tag_217:\n        /* \"#utility.yul\":1411:1418   */\n      0x00\n        /* \"#utility.yul\":1454:1459   */\n      dup2\n        /* \"#utility.yul\":1447:1460   */\n      iszero\n        /* \"#utility.yul\":1440:1461   */\n      iszero\n        /* \"#utility.yul\":1429:1461   */\n      swap1\n      pop\n        /* \"#utility.yul\":1377:1467   */\n      swap2\n      swap1\n      pop\n      jump\t// out\n        /* \"#utility.yul\":1473:1582   */\n    tag_218:\n        /* \"#utility.yul\":1554:1575   */\n      tag_301\n        /* \"#utility.yul\":1569:1574   */\n      dup2\n        /* \"#utility.yul\":1554:1575   */\n      tag_217\n      jump\t// in\n    tag_301:\n        /* \"#utility.yul\":1549:1552   */\n      dup3\n        /* \"#utility.yul\":1542:1576   */\n      mstore\n        /* \"#utility.yul\":1473:1582   */\n      pop\n      pop\n      jump\t// out\n        /* \"#utility.yul\":1588:2129   */\n    tag_39:\n        /* \"#utility.yul\":1759:1763   */\n      0x00\n        /* \"#utility.yul\":1797:1800   */\n      0x80\n        /* \"#utility.yul\":1786:1795   */\n      dup3\n        /* \"#utility.yul\":1782:1801   */\n      add\n        /* \"#utility.yul\":1774:1801   */\n      swap1\n      pop\n        /* \"#utility.yul\":1811:1882   */\n      tag_303\n        /* \"#utility.yul\":1879:1880   */\n      0x00\n        /* \"#utility.yul\":1868:1877   */\n      dup4\n        /* \"#utility.yul\":1864:1881   */\n      add\n        /* \"#utility.yul\":1855:1861   */\n      dup8\n        /* \"#utility.yul\":1811:1882   */\n      tag_211\n      jump\t// in\n    tag_303:\n        /* \"#utility.yul\":1892:1964   */\n      tag_304\n        /* \"#utility.yul\":1960:1962   */\n      0x20\n        /* \"#utility.yul\":1949:1958   */\n      dup4\n        /* \"#utility.yul\":1945:1963   */\n      add\n        /* \"#utility.yul\":1936:1942   */\n      dup7\n        /* \"#utility.yul\":1892:1964   */\n      tag_211\n      jump\t// in\n    tag_304:\n        /* \"#utility.yul\":1974:2046   */\n      tag_305\n        /* \"#utility.yul\":2042:2044   */\n      0x40\n        /* \"#utility.yul\":2031:2040   */\n      dup4\n        /* \"#utility.yul\":2027:2045   */\n      add\n        /* \"#utility.yul\":2018:2024   */\n      dup6\n        /* \"#utility.yul\":1974:2046   */\n      tag_211\n      jump\t// in\n    tag_305:\n        /* \"#utility.yul\":2056:2122   */\n      tag_306\n        /* \"#utility.yul\":2118:2120   */\n      0x60\n        /* \"#utility.yul\":2107:2116   */\n      dup4\n        /* \"#utility.yul\":2103:2121   */\n      add\n        /* \"#utility.yul\":2094:2100   */\n      dup5\n        /* \"#utility.yul\":2056:2122   */\n      tag_218\n      jump\t// in\n    tag_306:\n        /* \"#utility.yul\":1588:2129   */\n      swap6\n      swap5\n      pop\n      pop\n      pop\n      pop\n      pop\n      jump\t// out\n        /* \"#utility.yul\":2135:2609   */\n    tag_42:\n        /* \"#utility.yul\":2203:2209   */\n      0x00\n        /* \"#utility.yul\":2211:2217   */\n      dup1\n        /* \"#utility.yul\":2260:2262   */\n      0x40\n        /* \"#utility.yul\":2248:2257   */\n      dup4\n        /* \"#utility.yul\":2239:2246   */\n      dup6\n        /* \"#utility.yul\":2235:2258   */\n      sub\n        /* \"#utility.yul\":2231:2263   */\n      slt\n        /* \"#utility.yul\":2228:2347   */\n      iszero\n      tag_308\n      jumpi\n        /* \"#utility.yul\":2266:2345   */\n      tag_309\n      tag_213\n      jump\t// in\n    tag_309:\n        /* \"#utility.yul\":2228:2347   */\n    tag_308:\n        /* \"#utility.yul\":2386:2387   */\n      0x00\n        /* \"#utility.yul\":2411:2464   */\n      tag_310\n        /* \"#utility.yul\":2456:2463   */\n      dup6\n        /* \"#utility.yul\":2447:2453   */\n      dup3\n        /* \"#utility.yul\":2436:2445   */\n      dup7\n        /* \"#utility.yul\":2432:2454   */\n      add\n        /* \"#utility.yul\":2411:2464   */\n      tag_216\n      jump\t// in\n    tag_310:\n        /* \"#utility.yul\":2401:2464   */\n      swap3\n      pop\n        /* \"#utility.yul\":2357:2474   */\n      pop\n        /* \"#utility.yul\":2513:2515   */\n      0x20\n        /* \"#utility.yul\":2539:2592   */\n      tag_311\n        /* \"#utility.yul\":2584:2591   */\n      dup6\n        /* \"#utility.yul\":2575:2581   */\n      dup3\n        /* \"#utility.yul\":2564:2573   */\n      dup7\n        /* \"#utility.yul\":2560:2582   */\n      add\n        /* \"#utility.yul\":2539:2592   */\n      tag_216\n      jump\t// in\n    tag_311:\n        /* \"#utility.yul\":2529:2592   */\n      swap2\n      pop\n        /* \"#utility.yul\":2484:2602   */\n      pop\n        /* \"#utility.yul\":2135:2609   */\n      swap3\n      pop\n      swap3\n      swap1\n      pop\n      jump\t// out\n        /* \"#utility.yul\":2615:2825   */\n    tag_48:\n        /* \"#utility.yul\":2702:2706   */\n      0x00\n        /* \"#utility.yul\":2740:2742   */\n      0x20\n        /* \"#utility.yul\":2729:2738   */\n      dup3\n        /* \"#utility.yul\":2725:2743   */\n      add\n        /* \"#utility.yul\":2717:2743   */\n      swap1\n      pop\n        /* \"#utility.yul\":2753:2818   */\n      tag_313\n        /* \"#utility.yul\":2815:2816   */\n      0x00\n        /* \"#utility.yul\":2804:2813   */\n      dup4\n        /* \"#utility.yul\":2800:2817   */\n      add\n        /* \"#utility.yul\":2791:2797   */\n      dup5\n        /* \"#utility.yul\":2753:2818   */\n      tag_218\n      jump\t// in\n    tag_313:\n        /* \"#utility.yul\":2615:2825   */\n      swap3\n      swap2\n      pop\n      pop\n      jump\t// out\n        /* \"#utility.yul\":2831:2957   */\n    tag_219:\n        /* \"#utility.yul\":2868:2875   */\n      0x00\n        /* \"#utility.yul\":2908:2950   */\n      0xffffffffffffffffffffffffffffffffffffffff\n        /* \"#utility.yul\":2901:2906   */\n      dup3\n        /* \"#utility.yul\":2897:2951   */\n      and\n        /* \"#utility.yul\":2886:2951   */\n      swap1\n      pop\n        /* \"#utility.yul\":2831:2957   */\n      swap2\n      swap1\n      pop\n      jump\t// out\n        /* \"#utility.yul\":2963:3059   */\n    tag_220:\n        /* \"#utility.yul\":3000:3007   */\n      0x00\n        /* \"#utility.yul\":3029:3053   */\n      tag_316\n        /* \"#utility.yul\":3047:3052   */\n      dup3\n        /* \"#utility.yul\":3029:3053   */\n      tag_219\n      jump\t// in\n    tag_316:\n        /* \"#utility.yul\":3018:3053   */\n      swap1\n      pop\n        /* \"#utility.yul\":2963:3059   */\n      swap2\n      swap1\n      pop\n      jump\t// out\n        /* \"#utility.yul\":3065:3183   */\n    tag_221:\n        /* \"#utility.yul\":3152:3176   */\n      tag_318\n        /* \"#utility.yul\":3170:3175   */\n      dup2\n        /* \"#utility.yul\":3152:3176   */\n      tag_220\n      jump\t// in\n    tag_318:\n        /* \"#utility.yul\":3147:3150   */\n      dup3\n        /* \"#utility.yul\":3140:3177   */\n      mstore\n        /* \"#utility.yul\":3065:3183   */\n      pop\n      pop\n      jump\t// out\n        /* \"#utility.yul\":3189:3411   */\n    tag_63:\n        /* \"#utility.yul\":3282:3286   */\n      0x00\n        /* \"#utility.yul\":3320:3322   */\n      0x20\n        /* \"#utility.yul\":3309:3318   */\n      dup3\n        /* \"#utility.yul\":3305:3323   */\n      add\n        /* \"#utility.yul\":3297:3323   */\n      swap1\n      pop\n        /* \"#utility.yul\":3333:3404   */\n      tag_320\n        /* \"#utility.yul\":3401:3402   */\n      0x00\n        /* \"#utility.yul\":3390:3399   */\n      dup4\n        /* \"#utility.yul\":3386:3403   */\n      add\n        /* \"#utility.yul\":3377:3383   */\n      dup5\n        /* \"#utility.yul\":3333:3404   */\n      tag_221\n      jump\t// in\n    tag_320:\n        /* \"#utility.yul\":3189:3411   */\n      swap3\n      swap2\n      pop\n      pop\n      jump\t// out\n        /* \"#utility.yul\":3417:3477   */\n    tag_222:\n        /* \"#utility.yul\":3445:3448   */\n      0x00\n        /* \"#utility.yul\":3466:3471   */\n      dup2\n        /* \"#utility.yul\":3459:3471   */\n      swap1\n      pop\n        /* \"#utility.yul\":3417:3477   */\n      swap2\n      swap1\n      pop\n      jump\t// out\n        /* \"#utility.yul\":3483:3625   */\n    tag_223:\n        /* \"#utility.yul\":3533:3542   */\n      0x00\n        /* \"#utility.yul\":3566:3619   */\n      tag_323\n        /* \"#utility.yul\":3584:3618   */\n      tag_324\n        /* \"#utility.yul\":3593:3617   */\n      tag_325\n        /* \"#utility.yul\":3611:3616   */\n      dup5\n        /* \"#utility.yul\":3593:3617   */\n      tag_219\n      jump\t// in\n    tag_325:\n        /* \"#utility.yul\":3584:3618   */\n      tag_222\n      jump\t// in\n    tag_324:\n        /* \"#utility.yul\":3566:3619   */\n      tag_219\n      jump\t// in\n    tag_323:\n        /* \"#utility.yul\":3553:3619   */\n      swap1\n      pop\n        /* \"#utility.yul\":3483:3625   */\n      swap2\n      swap1\n      pop\n      jump\t// out\n        /* \"#utility.yul\":3631:3757   */\n    tag_224:\n        /* \"#utility.yul\":3681:3690   */\n      0x00\n        /* \"#utility.yul\":3714:3751   */\n      tag_327\n        /* \"#utility.yul\":3745:3750   */\n      dup3\n        /* \"#utility.yul\":3714:3751   */\n      tag_223\n      jump\t// in\n    tag_327:\n        /* \"#utility.yul\":3701:3751   */\n      swap1\n      pop\n        /* \"#utility.yul\":3631:3757   */\n      swap2\n      swap1\n      pop\n      jump\t// out\n        /* \"#utility.yul\":3763:3907   */\n    tag_225:\n        /* \"#utility.yul\":3831:3840   */\n      0x00\n        /* \"#utility.yul\":3864:3901   */\n      tag_329\n        /* \"#utility.yul\":3895:3900   */\n      dup3\n        /* \"#utility.yul\":3864:3901   */\n      tag_224\n      jump\t// in\n    tag_329:\n        /* \"#utility.yul\":3851:3901   */\n      swap1\n      pop\n        /* \"#utility.yul\":3763:3907   */\n      swap2\n      swap1\n      pop\n      jump\t// out\n        /* \"#utility.yul\":3913:4080   */\n    tag_226:\n        /* \"#utility.yul\":4018:4073   */\n      tag_331\n        /* \"#utility.yul\":4067:4072   */\n      dup2\n        /* \"#utility.yul\":4018:4073   */\n      tag_225\n      jump\t// in\n    tag_331:\n        /* \"#utility.yul\":4013:4016   */\n      dup3\n        /* \"#utility.yul\":4006:4074   */\n      mstore\n        /* \"#utility.yul\":3913:4080   */\n      pop\n      pop\n      jump\t// out\n        /* \"#utility.yul\":4086:4344   */\n    tag_67:\n        /* \"#utility.yul\":4197:4201   */\n      0x00\n        /* \"#utility.yul\":4235:4237   */\n      0x20\n        /* \"#utility.yul\":4224:4233   */\n      dup3\n        /* \"#utility.yul\":4220:4238   */\n      add\n        /* \"#utility.yul\":4212:4238   */\n      swap1\n      pop\n        /* \"#utility.yul\":4248:4337   */\n      tag_333\n        /* \"#utility.yul\":4334:4335   */\n      0x00\n        /* \"#utility.yul\":4323:4332   */\n      dup4\n        /* \"#utility.yul\":4319:4336   */\n      add\n        /* \"#utility.yul\":4310:4316   */\n      dup5\n        /* \"#utility.yul\":4248:4337   */\n      tag_226\n      jump\t// in\n    tag_333:\n        /* \"#utility.yul\":4086:4344   */\n      swap3\n      swap2\n      pop\n      pop\n      jump\t// out\n        /* \"#utility.yul\":4350:4458   */\n    tag_227:\n        /* \"#utility.yul\":4427:4451   */\n      tag_335\n        /* \"#utility.yul\":4445:4450   */\n      dup2\n        /* \"#utility.yul\":4427:4451   */\n      tag_210\n      jump\t// in\n    tag_335:\n        /* \"#utility.yul\":4422:4425   */\n      dup3\n        /* \"#utility.yul\":4415:4452   */\n      mstore\n        /* \"#utility.yul\":4350:4458   */\n      pop\n      pop\n      jump\t// out\n        /* \"#utility.yul\":4464:4563   */\n    tag_228:\n        /* \"#utility.yul\":4535:4556   */\n      tag_337\n        /* \"#utility.yul\":4550:4555   */\n      dup2\n        /* \"#utility.yul\":4535:4556   */\n      tag_217\n      jump\t// in\n    tag_337:\n        /* \"#utility.yul\":4530:4533   */\n      dup3\n        /* \"#utility.yul\":4523:4557   */\n      mstore\n        /* \"#utility.yul\":4464:4563   */\n      pop\n      pop\n      jump\t// out\n        /* \"#utility.yul\":4569:4683   */\n    tag_229:\n        /* \"#utility.yul\":4636:4642   */\n      0x00\n        /* \"#utility.yul\":4670:4675   */\n      dup2\n        /* \"#utility.yul\":4664:4676   */\n      mload\n        /* \"#utility.yul\":4654:4676   */\n      swap1\n      pop\n        /* \"#utility.yul\":4569:4683   */\n      swap2\n      swap1\n      pop\n      jump\t// out\n        /* \"#utility.yul\":4689:4863   */\n    tag_230:\n        /* \"#utility.yul\":4778:4789   */\n      0x00\n        /* \"#utility.yul\":4812:4818   */\n      dup3\n        /* \"#utility.yul\":4807:4810   */\n      dup3\n        /* \"#utility.yul\":4800:4819   */\n      mstore\n        /* \"#utility.yul\":4852:4856   */\n      0x20\n        /* \"#utility.yul\":4847:4850   */\n      dup3\n        /* \"#utility.yul\":4843:4857   */\n      add\n        /* \"#utility.yul\":4828:4857   */\n      swap1\n      pop\n        /* \"#utility.yul\":4689:4863   */\n      swap3\n      swap2\n      pop\n      pop\n      jump\t// out\n        /* \"#utility.yul\":4869:5001   */\n    tag_231:\n        /* \"#utility.yul\":4936:4940   */\n      0x00\n        /* \"#utility.yul\":4959:4962   */\n      dup2\n        /* \"#utility.yul\":4951:4962   */\n      swap1\n      pop\n        /* \"#utility.yul\":4989:4993   */\n      0x20\n        /* \"#utility.yul\":4984:4987   */\n      dup3\n        /* \"#utility.yul\":4980:4994   */\n      add\n        /* \"#utility.yul\":4972:4994   */\n      swap1\n      pop\n        /* \"#utility.yul\":4869:5001   */\n      swap2\n      swap1\n      pop\n      jump\t// out\n        /* \"#utility.yul\":5007:5186   */\n    tag_232:\n        /* \"#utility.yul\":5076:5086   */\n      0x00\n        /* \"#utility.yul\":5097:5143   */\n      tag_342\n        /* \"#utility.yul\":5139:5142   */\n      dup4\n        /* \"#utility.yul\":5131:5137   */\n      dup4\n        /* \"#utility.yul\":5097:5143   */\n      tag_227\n      jump\t// in\n    tag_342:\n        /* \"#utility.yul\":5175:5179   */\n      0x20\n        /* \"#utility.yul\":5170:5173   */\n      dup4\n        /* \"#utility.yul\":5166:5180   */\n      add\n        /* \"#utility.yul\":5152:5180   */\n      swap1\n      pop\n        /* \"#utility.yul\":5007:5186   */\n      swap3\n      swap2\n      pop\n      pop\n      jump\t// out\n        /* \"#utility.yul\":5192:5305   */\n    tag_233:\n        /* \"#utility.yul\":5262:5266   */\n      0x00\n        /* \"#utility.yul\":5294:5298   */\n      0x20\n        /* \"#utility.yul\":5289:5292   */\n      dup3\n        /* \"#utility.yul\":5285:5299   */\n      add\n        /* \"#utility.yul\":5277:5299   */\n      swap1\n      pop\n        /* \"#utility.yul\":5192:5305   */\n      swap2\n      swap1\n      pop\n      jump\t// out\n        /* \"#utility.yul\":5341:6053   */\n    tag_234:\n        /* \"#utility.yul\":5450:5453   */\n      0x00\n        /* \"#utility.yul\":5479:5533   */\n      tag_345\n        /* \"#utility.yul\":5527:5532   */\n      dup3\n        /* \"#utility.yul\":5479:5533   */\n      tag_229\n      jump\t// in\n    tag_345:\n        /* \"#utility.yul\":5549:5625   */\n      tag_346\n        /* \"#utility.yul\":5618:5624   */\n      dup2\n        /* \"#utility.yul\":5613:5616   */\n      dup6\n        /* \"#utility.yul\":5549:5625   */\n      tag_230\n      jump\t// in\n    tag_346:\n        /* \"#utility.yul\":5542:5625   */\n      swap4\n      pop\n        /* \"#utility.yul\":5649:5705   */\n      tag_347\n        /* \"#utility.yul\":5699:5704   */\n      dup4\n        /* \"#utility.yul\":5649:5705   */\n      tag_231\n      jump\t// in\n    tag_347:\n        /* \"#utility.yul\":5728:5735   */\n      dup1\n        /* \"#utility.yul\":5759:5760   */\n      0x00\n        /* \"#utility.yul\":5744:6028   */\n    tag_348:\n        /* \"#utility.yul\":5769:5775   */\n      dup4\n        /* \"#utility.yul\":5766:5767   */\n      dup2\n        /* \"#utility.yul\":5763:5776   */\n      lt\n        /* \"#utility.yul\":5744:6028   */\n      iszero\n      tag_350\n      jumpi\n        /* \"#utility.yul\":5845:5851   */\n      dup2\n        /* \"#utility.yul\":5839:5852   */\n      mload\n        /* \"#utility.yul\":5872:5935   */\n      tag_351\n        /* \"#utility.yul\":5931:5934   */\n      dup9\n        /* \"#utility.yul\":5916:5929   */\n      dup3\n        /* \"#utility.yul\":5872:5935   */\n      tag_232\n      jump\t// in\n    tag_351:\n        /* \"#utility.yul\":5865:5935   */\n      swap8\n      pop\n        /* \"#utility.yul\":5958:6018   */\n      tag_352\n        /* \"#utility.yul\":6011:6017   */\n      dup4\n        /* \"#utility.yul\":5958:6018   */\n      tag_233\n      jump\t// in\n    tag_352:\n        /* \"#utility.yul\":5948:6018   */\n      swap3\n      pop\n        /* \"#utility.yul\":5804:6028   */\n      pop\n        /* \"#utility.yul\":5791:5792   */\n      0x01\n        /* \"#utility.yul\":5788:5789   */\n      dup2\n        /* \"#utility.yul\":5784:5793   */\n      add\n        /* \"#utility.yul\":5779:5793   */\n      swap1\n      pop\n        /* \"#utility.yul\":5744:6028   */\n      jump(tag_348)\n    tag_350:\n        /* \"#utility.yul\":5748:5762   */\n      pop\n        /* \"#utility.yul\":6044:6047   */\n      dup6\n        /* \"#utility.yul\":6037:6047   */\n      swap4\n      pop\n        /* \"#utility.yul\":5455:6053   */\n      pop\n      pop\n      pop\n        /* \"#utility.yul\":5341:6053   */\n      swap3\n      swap2\n      pop\n      pop\n      jump\t// out\n        /* \"#utility.yul\":6141:7313   */\n    tag_235:\n        /* \"#utility.yul\":6258:6261   */\n      0x00\n        /* \"#utility.yul\":6294:6298   */\n      0xa0\n        /* \"#utility.yul\":6289:6292   */\n      dup4\n        /* \"#utility.yul\":6285:6299   */\n      add\n        /* \"#utility.yul\":6384:6388   */\n      0x00\n        /* \"#utility.yul\":6377:6382   */\n      dup4\n        /* \"#utility.yul\":6373:6389   */\n      add\n        /* \"#utility.yul\":6367:6390   */\n      mload\n        /* \"#utility.yul\":6403:6466   */\n      tag_354\n        /* \"#utility.yul\":6460:6464   */\n      0x00\n        /* \"#utility.yul\":6455:6458   */\n      dup7\n        /* \"#utility.yul\":6451:6465   */\n      add\n        /* \"#utility.yul\":6437:6449   */\n      dup3\n        /* \"#utility.yul\":6403:6466   */\n      tag_227\n      jump\t// in\n    tag_354:\n        /* \"#utility.yul\":6309:6476   */\n      pop\n        /* \"#utility.yul\":6561:6565   */\n      0x20\n        /* \"#utility.yul\":6554:6559   */\n      dup4\n        /* \"#utility.yul\":6550:6566   */\n      add\n        /* \"#utility.yul\":6544:6567   */\n      mload\n        /* \"#utility.yul\":6580:6643   */\n      tag_355\n        /* \"#utility.yul\":6637:6641   */\n      0x20\n        /* \"#utility.yul\":6632:6635   */\n      dup7\n        /* \"#utility.yul\":6628:6642   */\n      add\n        /* \"#utility.yul\":6614:6626   */\n      dup3\n        /* \"#utility.yul\":6580:6643   */\n      tag_227\n      jump\t// in\n    tag_355:\n        /* \"#utility.yul\":6486:6653   */\n      pop\n        /* \"#utility.yul\":6743:6747   */\n      0x40\n        /* \"#utility.yul\":6736:6741   */\n      dup4\n        /* \"#utility.yul\":6732:6748   */\n      add\n        /* \"#utility.yul\":6726:6749   */\n      mload\n        /* \"#utility.yul\":6762:6825   */\n      tag_356\n        /* \"#utility.yul\":6819:6823   */\n      0x40\n        /* \"#utility.yul\":6814:6817   */\n      dup7\n        /* \"#utility.yul\":6810:6824   */\n      add\n        /* \"#utility.yul\":6796:6808   */\n      dup3\n        /* \"#utility.yul\":6762:6825   */\n      tag_227\n      jump\t// in\n    tag_356:\n        /* \"#utility.yul\":6663:6835   */\n      pop\n        /* \"#utility.yul\":6921:6925   */\n      0x60\n        /* \"#utility.yul\":6914:6919   */\n      dup4\n        /* \"#utility.yul\":6910:6926   */\n      add\n        /* \"#utility.yul\":6904:6927   */\n      mload\n        /* \"#utility.yul\":6940:6997   */\n      tag_357\n        /* \"#utility.yul\":6991:6995   */\n      0x60\n        /* \"#utility.yul\":6986:6989   */\n      dup7\n        /* \"#utility.yul\":6982:6996   */\n      add\n        /* \"#utility.yul\":6968:6980   */\n      dup3\n        /* \"#utility.yul\":6940:6997   */\n      tag_228\n      jump\t// in\n    tag_357:\n        /* \"#utility.yul\":6845:7007   */\n      pop\n        /* \"#utility.yul\":7093:7097   */\n      0x80\n        /* \"#utility.yul\":7086:7091   */\n      dup4\n        /* \"#utility.yul\":7082:7098   */\n      add\n        /* \"#utility.yul\":7076:7099   */\n      mload\n        /* \"#utility.yul\":7146:7149   */\n      dup5\n        /* \"#utility.yul\":7140:7144   */\n      dup3\n        /* \"#utility.yul\":7136:7150   */\n      sub\n        /* \"#utility.yul\":7129:7133   */\n      0x80\n        /* \"#utility.yul\":7124:7127   */\n      dup7\n        /* \"#utility.yul\":7120:7134   */\n      add\n        /* \"#utility.yul\":7113:7151   */\n      mstore\n        /* \"#utility.yul\":7172:7275   */\n      tag_358\n        /* \"#utility.yul\":7270:7274   */\n      dup3\n        /* \"#utility.yul\":7256:7268   */\n      dup3\n        /* \"#utility.yul\":7172:7275   */\n      tag_234\n      jump\t// in\n    tag_358:\n        /* \"#utility.yul\":7164:7275   */\n      swap2\n      pop\n        /* \"#utility.yul\":7017:7286   */\n      pop\n        /* \"#utility.yul\":7303:7307   */\n      dup1\n        /* \"#utility.yul\":7296:7307   */\n      swap2\n      pop\n        /* \"#utility.yul\":6263:7313   */\n      pop\n        /* \"#utility.yul\":6141:7313   */\n      swap3\n      swap2\n      pop\n      pop\n      jump\t// out\n        /* \"#utility.yul\":7319:7688   */\n    tag_72:\n        /* \"#utility.yul\":7460:7464   */\n      0x00\n        /* \"#utility.yul\":7498:7500   */\n      0x20\n        /* \"#utility.yul\":7487:7496   */\n      dup3\n        /* \"#utility.yul\":7483:7501   */\n      add\n        /* \"#utility.yul\":7475:7501   */\n      swap1\n      pop\n        /* \"#utility.yul\":7547:7556   */\n      dup2\n        /* \"#utility.yul\":7541:7545   */\n      dup2\n        /* \"#utility.yul\":7537:7557   */\n      sub\n        /* \"#utility.yul\":7533:7534   */\n      0x00\n        /* \"#utility.yul\":7522:7531   */\n      dup4\n        /* \"#utility.yul\":7518:7535   */\n      add\n        /* \"#utility.yul\":7511:7558   */\n      mstore\n        /* \"#utility.yul\":7575:7681   */\n      tag_360\n        /* \"#utility.yul\":7676:7680   */\n      dup2\n        /* \"#utility.yul\":7667:7673   */\n      dup5\n        /* \"#utility.yul\":7575:7681   */\n      tag_235\n      jump\t// in\n    tag_360:\n        /* \"#utility.yul\":7567:7681   */\n      swap1\n      pop\n        /* \"#utility.yul\":7319:7688   */\n      swap3\n      swap2\n      pop\n      pop\n      jump\t// out\n        /* \"#utility.yul\":7770:8632   */\n    tag_236:\n        /* \"#utility.yul\":7909:7913   */\n      0x80\n        /* \"#utility.yul\":7904:7907   */\n      dup3\n        /* \"#utility.yul\":7900:7914   */\n      add\n        /* \"#utility.yul\":8003:8007   */\n      0x00\n        /* \"#utility.yul\":7996:8001   */\n      dup3\n        /* \"#utility.yul\":7992:8008   */\n      add\n        /* \"#utility.yul\":7986:8009   */\n      mload\n        /* \"#utility.yul\":8022:8085   */\n      tag_362\n        /* \"#utility.yul\":8079:8083   */\n      0x00\n        /* \"#utility.yul\":8074:8077   */\n      dup6\n        /* \"#utility.yul\":8070:8084   */\n      add\n        /* \"#utility.yul\":8056:8068   */\n      dup3\n        /* \"#utility.yul\":8022:8085   */\n      tag_227\n      jump\t// in\n    tag_362:\n        /* \"#utility.yul\":7924:8095   */\n      pop\n        /* \"#utility.yul\":8184:8188   */\n      0x20\n        /* \"#utility.yul\":8177:8182   */\n      dup3\n        /* \"#utility.yul\":8173:8189   */\n      add\n        /* \"#utility.yul\":8167:8190   */\n      mload\n        /* \"#utility.yul\":8203:8266   */\n      tag_363\n        /* \"#utility.yul\":8260:8264   */\n      0x20\n        /* \"#utility.yul\":8255:8258   */\n      dup6\n        /* \"#utility.yul\":8251:8265   */\n      add\n        /* \"#utility.yul\":8237:8249   */\n      dup3\n        /* \"#utility.yul\":8203:8266   */\n      tag_227\n      jump\t// in\n    tag_363:\n        /* \"#utility.yul\":8105:8276   */\n      pop\n        /* \"#utility.yul\":8363:8367   */\n      0x40\n        /* \"#utility.yul\":8356:8361   */\n      dup3\n        /* \"#utility.yul\":8352:8368   */\n      add\n        /* \"#utility.yul\":8346:8369   */\n      mload\n        /* \"#utility.yul\":8382:8445   */\n      tag_364\n        /* \"#utility.yul\":8439:8443   */\n      0x40\n        /* \"#utility.yul\":8434:8437   */\n      dup6\n        /* \"#utility.yul\":8430:8444   */\n      add\n        /* \"#utility.yul\":8416:8428   */\n      dup3\n        /* \"#utility.yul\":8382:8445   */\n      tag_227\n      jump\t// in\n    tag_364:\n        /* \"#utility.yul\":8286:8455   */\n      pop\n        /* \"#utility.yul\":8539:8543   */\n      0x60\n        /* \"#utility.yul\":8532:8537   */\n      dup3\n        /* \"#utility.yul\":8528:8544   */\n      add\n        /* \"#utility.yul\":8522:8545   */\n      mload\n        /* \"#utility.yul\":8558:8615   */\n      tag_365\n        /* \"#utility.yul\":8609:8613   */\n      0x60\n        /* \"#utility.yul\":8604:8607   */\n      dup6\n        /* \"#utility.yul\":8600:8614   */\n      add\n        /* \"#utility.yul\":8586:8598   */\n      dup3\n        /* \"#utility.yul\":8558:8615   */\n      tag_228\n      jump\t// in\n    tag_365:\n        /* \"#utility.yul\":8465:8625   */\n      pop\n        /* \"#utility.yul\":7878:8632   */\n      pop\n        /* \"#utility.yul\":7770:8632   */\n      pop\n      pop\n      jump\t// out\n        /* \"#utility.yul\":8638:8945   */\n    tag_88:\n        /* \"#utility.yul\":8773:8777   */\n      0x00\n        /* \"#utility.yul\":8811:8814   */\n      0x80\n        /* \"#utility.yul\":8800:8809   */\n      dup3\n        /* \"#utility.yul\":8796:8815   */\n      add\n        /* \"#utility.yul\":8788:8815   */\n      swap1\n      pop\n        /* \"#utility.yul\":8825:8938   */\n      tag_367\n        /* \"#utility.yul\":8935:8936   */\n      0x00\n        /* \"#utility.yul\":8924:8933   */\n      dup4\n        /* \"#utility.yul\":8920:8937   */\n      add\n        /* \"#utility.yul\":8911:8917   */\n      dup5\n        /* \"#utility.yul\":8825:8938   */\n      tag_236\n      jump\t// in\n    tag_367:\n        /* \"#utility.yul\":8638:8945   */\n      swap3\n      swap2\n      pop\n      pop\n      jump\t// out\n        /* \"#utility.yul\":8951:9094   */\n    tag_237:\n        /* \"#utility.yul\":9018:9027   */\n      0x00\n        /* \"#utility.yul\":9051:9088   */\n      tag_369\n        /* \"#utility.yul\":9082:9087   */\n      dup3\n        /* \"#utility.yul\":9051:9088   */\n      tag_224\n      jump\t// in\n    tag_369:\n        /* \"#utility.yul\":9038:9088   */\n      swap1\n      pop\n        /* \"#utility.yul\":8951:9094   */\n      swap2\n      swap1\n      pop\n      jump\t// out\n        /* \"#utility.yul\":9100:9265   */\n    tag_238:\n        /* \"#utility.yul\":9204:9258   */\n      tag_371\n        /* \"#utility.yul\":9252:9257   */\n      dup2\n        /* \"#utility.yul\":9204:9258   */\n      tag_237\n      jump\t// in\n    tag_371:\n        /* \"#utility.yul\":9199:9202   */\n      dup3\n        /* \"#utility.yul\":9192:9259   */\n      mstore\n        /* \"#utility.yul\":9100:9265   */\n      pop\n      pop\n      jump\t// out\n        /* \"#utility.yul\":9271:9527   */\n    tag_102:\n        /* \"#utility.yul\":9381:9385   */\n      0x00\n        /* \"#utility.yul\":9419:9421   */\n      0x20\n        /* \"#utility.yul\":9408:9417   */\n      dup3\n        /* \"#utility.yul\":9404:9422   */\n      add\n        /* \"#utility.yul\":9396:9422   */\n      swap1\n      pop\n        /* \"#utility.yul\":9432:9520   */\n      tag_373\n        /* \"#utility.yul\":9517:9518   */\n      0x00\n        /* \"#utility.yul\":9506:9515   */\n      dup4\n        /* \"#utility.yul\":9502:9519   */\n      add\n        /* \"#utility.yul\":9493:9499   */\n      dup5\n        /* \"#utility.yul\":9432:9520   */\n      tag_238\n      jump\t// in\n    tag_373:\n        /* \"#utility.yul\":9271:9527   */\n      swap3\n      swap2\n      pop\n      pop\n      jump\t// out\n        /* \"#utility.yul\":9533:9676   */\n    tag_239:\n        /* \"#utility.yul\":9590:9595   */\n      0x00\n        /* \"#utility.yul\":9621:9627   */\n      dup2\n        /* \"#utility.yul\":9615:9628   */\n      mload\n        /* \"#utility.yul\":9606:9628   */\n      swap1\n      pop\n        /* \"#utility.yul\":9637:9670   */\n      tag_375\n        /* \"#utility.yul\":9664:9669   */\n      dup2\n        /* \"#utility.yul\":9637:9670   */\n      tag_215\n      jump\t// in\n    tag_375:\n        /* \"#utility.yul\":9533:9676   */\n      swap3\n      swap2\n      pop\n      pop\n      jump\t// out\n        /* \"#utility.yul\":9682:9804   */\n    tag_240:\n        /* \"#utility.yul\":9755:9779   */\n      tag_377\n        /* \"#utility.yul\":9773:9778   */\n      dup2\n        /* \"#utility.yul\":9755:9779   */\n      tag_220\n      jump\t// in\n    tag_377:\n        /* \"#utility.yul\":9748:9753   */\n      dup2\n        /* \"#utility.yul\":9745:9780   */\n      eq\n        /* \"#utility.yul\":9735:9798   */\n      tag_378\n      jumpi\n        /* \"#utility.yul\":9794:9795   */\n      0x00\n        /* \"#utility.yul\":9791:9792   */\n      dup1\n        /* \"#utility.yul\":9784:9796   */\n      revert\n        /* \"#utility.yul\":9735:9798   */\n    tag_378:\n        /* \"#utility.yul\":9682:9804   */\n      pop\n      jump\t// out\n        /* \"#utility.yul\":9810:9953   */\n    tag_241:\n        /* \"#utility.yul\":9867:9872   */\n      0x00\n        /* \"#utility.yul\":9898:9904   */\n      dup2\n        /* \"#utility.yul\":9892:9905   */\n      mload\n        /* \"#utility.yul\":9883:9905   */\n      swap1\n      pop\n        /* \"#utility.yul\":9914:9947   */\n      tag_380\n        /* \"#utility.yul\":9941:9946   */\n      dup2\n        /* \"#utility.yul\":9914:9947   */\n      tag_240\n      jump\t// in\n    tag_380:\n        /* \"#utility.yul\":9810:9953   */\n      swap3\n      swap2\n      pop\n      pop\n      jump\t// out\n        /* \"#utility.yul\":9959:10076   */\n    tag_242:\n        /* \"#utility.yul\":10068:10069   */\n      0x00\n        /* \"#utility.yul\":10065:10066   */\n      dup1\n        /* \"#utility.yul\":10058:10070   */\n      revert\n        /* \"#utility.yul\":10082:10199   */\n    tag_243:\n        /* \"#utility.yul\":10191:10192   */\n      0x00\n        /* \"#utility.yul\":10188:10189   */\n      dup1\n        /* \"#utility.yul\":10181:10193   */\n      revert\n        /* \"#utility.yul\":10205:10307   */\n    tag_244:\n        /* \"#utility.yul\":10246:10252   */\n      0x00\n        /* \"#utility.yul\":10297:10299   */\n      0x1f\n        /* \"#utility.yul\":10293:10300   */\n      not\n        /* \"#utility.yul\":10288:10290   */\n      0x1f\n        /* \"#utility.yul\":10281:10286   */\n      dup4\n        /* \"#utility.yul\":10277:10291   */\n      add\n        /* \"#utility.yul\":10273:10301   */\n      and\n        /* \"#utility.yul\":10263:10301   */\n      swap1\n      pop\n        /* \"#utility.yul\":10205:10307   */\n      swap2\n      swap1\n      pop\n      jump\t// out\n        /* \"#utility.yul\":10313:10493   */\n    tag_245:\n        /* \"#utility.yul\":10361:10438   */\n      0x4e487b7100000000000000000000000000000000000000000000000000000000\n        /* \"#utility.yul\":10358:10359   */\n      0x00\n        /* \"#utility.yul\":10351:10439   */\n      mstore\n        /* \"#utility.yul\":10458:10462   */\n      0x41\n        /* \"#utility.yul\":10455:10456   */\n      0x04\n        /* \"#utility.yul\":10448:10463   */\n      mstore\n        /* \"#utility.yul\":10482:10486   */\n      0x24\n        /* \"#utility.yul\":10479:10480   */\n      0x00\n        /* \"#utility.yul\":10472:10487   */\n      revert\n        /* \"#utility.yul\":10499:10780   */\n    tag_246:\n        /* \"#utility.yul\":10582:10609   */\n      tag_386\n        /* \"#utility.yul\":10604:10608   */\n      dup3\n        /* \"#utility.yul\":10582:10609   */\n      tag_244\n      jump\t// in\n    tag_386:\n        /* \"#utility.yul\":10574:10580   */\n      dup2\n        /* \"#utility.yul\":10570:10610   */\n      add\n        /* \"#utility.yul\":10712:10718   */\n      dup2\n        /* \"#utility.yul\":10700:10710   */\n      dup2\n        /* \"#utility.yul\":10697:10719   */\n      lt\n        /* \"#utility.yul\":10676:10694   */\n      0xffffffffffffffff\n        /* \"#utility.yul\":10664:10674   */\n      dup3\n        /* \"#utility.yul\":10661:10695   */\n      gt\n        /* \"#utility.yul\":10658:10720   */\n      or\n        /* \"#utility.yul\":10655:10743   */\n      iszero\n      tag_387\n      jumpi\n        /* \"#utility.yul\":10723:10741   */\n      tag_388\n      tag_245\n      jump\t// in\n    tag_388:\n        /* \"#utility.yul\":10655:10743   */\n    tag_387:\n        /* \"#utility.yul\":10763:10773   */\n      dup1\n        /* \"#utility.yul\":10759:10761   */\n      0x40\n        /* \"#utility.yul\":10752:10774   */\n      mstore\n        /* \"#utility.yul\":10542:10780   */\n      pop\n        /* \"#utility.yul\":10499:10780   */\n      pop\n      pop\n      jump\t// out\n        /* \"#utility.yul\":10786:10915   */\n    tag_247:\n        /* \"#utility.yul\":10820:10826   */\n      0x00\n        /* \"#utility.yul\":10847:10867   */\n      tag_390\n      tag_212\n      jump\t// in\n    tag_390:\n        /* \"#utility.yul\":10837:10867   */\n      swap1\n      pop\n        /* \"#utility.yul\":10876:10909   */\n      tag_391\n        /* \"#utility.yul\":10904:10908   */\n      dup3\n        /* \"#utility.yul\":10896:10902   */\n      dup3\n        /* \"#utility.yul\":10876:10909   */\n      tag_246\n      jump\t// in\n    tag_391:\n        /* \"#utility.yul\":10786:10915   */\n      swap2\n      swap1\n      pop\n      jump\t// out\n        /* \"#utility.yul\":10921:11229   */\n    tag_248:\n        /* \"#utility.yul\":10983:10987   */\n      0x00\n        /* \"#utility.yul\":11073:11091   */\n      0xffffffffffffffff\n        /* \"#utility.yul\":11065:11071   */\n      dup3\n        /* \"#utility.yul\":11062:11092   */\n      gt\n        /* \"#utility.yul\":11059:11115   */\n      iszero\n      tag_393\n      jumpi\n        /* \"#utility.yul\":11095:11113   */\n      tag_394\n      tag_245\n      jump\t// in\n    tag_394:\n        /* \"#utility.yul\":11059:11115   */\n    tag_393:\n        /* \"#utility.yul\":11133:11162   */\n      tag_395\n        /* \"#utility.yul\":11155:11161   */\n      dup3\n        /* \"#utility.yul\":11133:11162   */\n      tag_244\n      jump\t// in\n    tag_395:\n        /* \"#utility.yul\":11125:11162   */\n      swap1\n      pop\n        /* \"#utility.yul\":11217:11221   */\n      0x20\n        /* \"#utility.yul\":11211:11215   */\n      dup2\n        /* \"#utility.yul\":11207:11222   */\n      add\n        /* \"#utility.yul\":11199:11222   */\n      swap1\n      pop\n        /* \"#utility.yul\":10921:11229   */\n      swap2\n      swap1\n      pop\n      jump\t// out\n        /* \"#utility.yul\":11235:11374   */\n    tag_249:\n        /* \"#utility.yul\":11324:11330   */\n      dup3\n        /* \"#utility.yul\":11319:11322   */\n      dup2\n        /* \"#utility.yul\":11314:11317   */\n      dup4\n        /* \"#utility.yul\":11308:11331   */\n      mcopy\n        /* \"#utility.yul\":11365:11366   */\n      0x00\n        /* \"#utility.yul\":11356:11362   */\n      dup4\n        /* \"#utility.yul\":11351:11354   */\n      dup4\n        /* \"#utility.yul\":11347:11363   */\n      add\n        /* \"#utility.yul\":11340:11367   */\n      mstore\n        /* \"#utility.yul\":11235:11374   */\n      pop\n      pop\n      pop\n      jump\t// out\n        /* \"#utility.yul\":11380:11814   */\n    tag_250:\n        /* \"#utility.yul\":11469:11474   */\n      0x00\n        /* \"#utility.yul\":11494:11560   */\n      tag_398\n        /* \"#utility.yul\":11510:11559   */\n      tag_399\n        /* \"#utility.yul\":11552:11558   */\n      dup5\n        /* \"#utility.yul\":11510:11559   */\n      tag_248\n      jump\t// in\n    tag_399:\n        /* \"#utility.yul\":11494:11560   */\n      tag_247\n      jump\t// in\n    tag_398:\n        /* \"#utility.yul\":11485:11560   */\n      swap1\n      pop\n        /* \"#utility.yul\":11583:11589   */\n      dup3\n        /* \"#utility.yul\":11576:11581   */\n      dup2\n        /* \"#utility.yul\":11569:11590   */\n      mstore\n        /* \"#utility.yul\":11621:11625   */\n      0x20\n        /* \"#utility.yul\":11614:11619   */\n      dup2\n        /* \"#utility.yul\":11610:11626   */\n      add\n        /* \"#utility.yul\":11659:11662   */\n      dup5\n        /* \"#utility.yul\":11650:11656   */\n      dup5\n        /* \"#utility.yul\":11645:11648   */\n      dup5\n        /* \"#utility.yul\":11641:11657   */\n      add\n        /* \"#utility.yul\":11638:11663   */\n      gt\n        /* \"#utility.yul\":11635:11747   */\n      iszero\n      tag_400\n      jumpi\n        /* \"#utility.yul\":11666:11745   */\n      tag_401\n      tag_243\n      jump\t// in\n    tag_401:\n        /* \"#utility.yul\":11635:11747   */\n    tag_400:\n        /* \"#utility.yul\":11756:11808   */\n      tag_402\n        /* \"#utility.yul\":11801:11807   */\n      dup5\n        /* \"#utility.yul\":11796:11799   */\n      dup3\n        /* \"#utility.yul\":11791:11794   */\n      dup6\n        /* \"#utility.yul\":11756:11808   */\n      tag_249\n      jump\t// in\n    tag_402:\n        /* \"#utility.yul\":11475:11814   */\n      pop\n        /* \"#utility.yul\":11380:11814   */\n      swap4\n      swap3\n      pop\n      pop\n      pop\n      jump\t// out\n        /* \"#utility.yul\":11834:12189   */\n    tag_251:\n        /* \"#utility.yul\":11901:11906   */\n      0x00\n        /* \"#utility.yul\":11950:11953   */\n      dup3\n        /* \"#utility.yul\":11943:11947   */\n      0x1f\n        /* \"#utility.yul\":11935:11941   */\n      dup4\n        /* \"#utility.yul\":11931:11948   */\n      add\n        /* \"#utility.yul\":11927:11954   */\n      slt\n        /* \"#utility.yul\":11917:12039   */\n      tag_404\n      jumpi\n        /* \"#utility.yul\":11958:12037   */\n      tag_405\n      tag_242\n      jump\t// in\n    tag_405:\n        /* \"#utility.yul\":11917:12039   */\n    tag_404:\n        /* \"#utility.yul\":12068:12074   */\n      dup2\n        /* \"#utility.yul\":12062:12075   */\n      mload\n        /* \"#utility.yul\":12093:12183   */\n      tag_406\n        /* \"#utility.yul\":12179:12182   */\n      dup5\n        /* \"#utility.yul\":12171:12177   */\n      dup3\n        /* \"#utility.yul\":12164:12168   */\n      0x20\n        /* \"#utility.yul\":12156:12162   */\n      dup7\n        /* \"#utility.yul\":12152:12169   */\n      add\n        /* \"#utility.yul\":12093:12183   */\n      tag_250\n      jump\t// in\n    tag_406:\n        /* \"#utility.yul\":12084:12183   */\n      swap2\n      pop\n        /* \"#utility.yul\":11907:12189   */\n      pop\n        /* \"#utility.yul\":11834:12189   */\n      swap3\n      swap2\n      pop\n      pop\n      jump\t// out\n        /* \"#utility.yul\":12195:12311   */\n    tag_252:\n        /* \"#utility.yul\":12265:12286   */\n      tag_408\n        /* \"#utility.yul\":12280:12285   */\n      dup2\n        /* \"#utility.yul\":12265:12286   */\n      tag_217\n      jump\t// in\n    tag_408:\n        /* \"#utility.yul\":12258:12263   */\n      dup2\n        /* \"#utility.yul\":12255:12287   */\n      eq\n        /* \"#utility.yul\":12245:12305   */\n      tag_409\n      jumpi\n        /* \"#utility.yul\":12301:12302   */\n      0x00\n        /* \"#utility.yul\":12298:12299   */\n      dup1\n        /* \"#utility.yul\":12291:12303   */\n      revert\n        /* \"#utility.yul\":12245:12305   */\n    tag_409:\n        /* \"#utility.yul\":12195:12311   */\n      pop\n      jump\t// out\n        /* \"#utility.yul\":12317:12454   */\n    tag_253:\n        /* \"#utility.yul\":12371:12376   */\n      0x00\n        /* \"#utility.yul\":12402:12408   */\n      dup2\n        /* \"#utility.yul\":12396:12409   */\n      mload\n        /* \"#utility.yul\":12387:12409   */\n      swap1\n      pop\n        /* \"#utility.yul\":12418:12448   */\n      tag_411\n        /* \"#utility.yul\":12442:12447   */\n      dup2\n        /* \"#utility.yul\":12418:12448   */\n      tag_252\n      jump\t// in\n    tag_411:\n        /* \"#utility.yul\":12317:12454   */\n      swap3\n      swap2\n      pop\n      pop\n      jump\t// out\n        /* \"#utility.yul\":12460:14562   */\n    tag_111:\n        /* \"#utility.yul\":12628:12634   */\n      0x00\n        /* \"#utility.yul\":12636:12642   */\n      dup1\n        /* \"#utility.yul\":12644:12650   */\n      0x00\n        /* \"#utility.yul\":12652:12658   */\n      dup1\n        /* \"#utility.yul\":12660:12666   */\n      0x00\n        /* \"#utility.yul\":12668:12674   */\n      dup1\n        /* \"#utility.yul\":12676:12682   */\n      0x00\n        /* \"#utility.yul\":12684:12690   */\n      dup1\n        /* \"#utility.yul\":12692:12698   */\n      0x00\n        /* \"#utility.yul\":12700:12706   */\n      dup1\n        /* \"#utility.yul\":12749:12752   */\n      0x0140\n        /* \"#utility.yul\":12737:12746   */\n      dup12\n        /* \"#utility.yul\":12728:12735   */\n      dup14\n        /* \"#utility.yul\":12724:12747   */\n      sub\n        /* \"#utility.yul\":12720:12753   */\n      slt\n        /* \"#utility.yul\":12717:12837   */\n      iszero\n      tag_413\n      jumpi\n        /* \"#utility.yul\":12756:12835   */\n      tag_414\n      tag_213\n      jump\t// in\n    tag_414:\n        /* \"#utility.yul\":12717:12837   */\n    tag_413:\n        /* \"#utility.yul\":12876:12877   */\n      0x00\n        /* \"#utility.yul\":12901:12965   */\n      tag_415\n        /* \"#utility.yul\":12957:12964   */\n      dup14\n        /* \"#utility.yul\":12948:12954   */\n      dup3\n        /* \"#utility.yul\":12937:12946   */\n      dup15\n        /* \"#utility.yul\":12933:12955   */\n      add\n        /* \"#utility.yul\":12901:12965   */\n      tag_239\n      jump\t// in\n    tag_415:\n        /* \"#utility.yul\":12891:12965   */\n      swap11\n      pop\n        /* \"#utility.yul\":12847:12975   */\n      pop\n        /* \"#utility.yul\":13014:13016   */\n      0x20\n        /* \"#utility.yul\":13040:13104   */\n      tag_416\n        /* \"#utility.yul\":13096:13103   */\n      dup14\n        /* \"#utility.yul\":13087:13093   */\n      dup3\n        /* \"#utility.yul\":13076:13085   */\n      dup15\n        /* \"#utility.yul\":13072:13094   */\n      add\n        /* \"#utility.yul\":13040:13104   */\n      tag_241\n      jump\t// in\n    tag_416:\n        /* \"#utility.yul\":13030:13104   */\n      swap10\n      pop\n        /* \"#utility.yul\":12985:13114   */\n      pop\n        /* \"#utility.yul\":13174:13176   */\n      0x40\n        /* \"#utility.yul\":13163:13172   */\n      dup12\n        /* \"#utility.yul\":13159:13177   */\n      add\n        /* \"#utility.yul\":13153:13178   */\n      mload\n        /* \"#utility.yul\":13205:13223   */\n      0xffffffffffffffff\n        /* \"#utility.yul\":13197:13203   */\n      dup2\n        /* \"#utility.yul\":13194:13224   */\n      gt\n        /* \"#utility.yul\":13191:13308   */\n      iszero\n      tag_417\n      jumpi\n        /* \"#utility.yul\":13227:13306   */\n      tag_418\n      tag_214\n      jump\t// in\n    tag_418:\n        /* \"#utility.yul\":13191:13308   */\n    tag_417:\n        /* \"#utility.yul\":13332:13406   */\n      tag_419\n        /* \"#utility.yul\":13398:13405   */\n      dup14\n        /* \"#utility.yul\":13389:13395   */\n      dup3\n        /* \"#utility.yul\":13378:13387   */\n      dup15\n        /* \"#utility.yul\":13374:13396   */\n      add\n        /* \"#utility.yul\":13332:13406   */\n      tag_251\n      jump\t// in\n    tag_419:\n        /* \"#utility.yul\":13322:13406   */\n      swap9\n      pop\n        /* \"#utility.yul\":13124:13416   */\n      pop\n        /* \"#utility.yul\":13455:13457   */\n      0x60\n        /* \"#utility.yul\":13481:13545   */\n      tag_420\n        /* \"#utility.yul\":13537:13544   */\n      dup14\n        /* \"#utility.yul\":13528:13534   */\n      dup3\n        /* \"#utility.yul\":13517:13526   */\n      dup15\n        /* \"#utility.yul\":13513:13535   */\n      add\n        /* \"#utility.yul\":13481:13545   */\n      tag_239\n      jump\t// in\n    tag_420:\n        /* \"#utility.yul\":13471:13545   */\n      swap8\n      pop\n        /* \"#utility.yul\":13426:13555   */\n      pop\n        /* \"#utility.yul\":13594:13597   */\n      0x80\n        /* \"#utility.yul\":13621:13685   */\n      tag_421\n        /* \"#utility.yul\":13677:13684   */\n      dup14\n        /* \"#utility.yul\":13668:13674   */\n      dup3\n        /* \"#utility.yul\":13657:13666   */\n      dup15\n        /* \"#utility.yul\":13653:13675   */\n      add\n        /* \"#utility.yul\":13621:13685   */\n      tag_241\n      jump\t// in\n    tag_421:\n        /* \"#utility.yul\":13611:13685   */\n      swap7\n      pop\n        /* \"#utility.yul\":13565:13695   */\n      pop\n        /* \"#utility.yul\":13734:13737   */\n      0xa0\n        /* \"#utility.yul\":13761:13822   */\n      tag_422\n        /* \"#utility.yul\":13814:13821   */\n      dup14\n        /* \"#utility.yul\":13805:13811   */\n      dup3\n        /* \"#utility.yul\":13794:13803   */\n      dup15\n        /* \"#utility.yul\":13790:13812   */\n      add\n        /* \"#utility.yul\":13761:13822   */\n      tag_253\n      jump\t// in\n    tag_422:\n        /* \"#utility.yul\":13751:13822   */\n      swap6\n      pop\n        /* \"#utility.yul\":13705:13832   */\n      pop\n        /* \"#utility.yul\":13871:13874   */\n      0xc0\n        /* \"#utility.yul\":13898:13962   */\n      tag_423\n        /* \"#utility.yul\":13954:13961   */\n      dup14\n        /* \"#utility.yul\":13945:13951   */\n      dup3\n        /* \"#utility.yul\":13934:13943   */\n      dup15\n        /* \"#utility.yul\":13930:13952   */\n      add\n        /* \"#utility.yul\":13898:13962   */\n      tag_239\n      jump\t// in\n    tag_423:\n        /* \"#utility.yul\":13888:13962   */\n      swap5\n      pop\n        /* \"#utility.yul\":13842:13972   */\n      pop\n        /* \"#utility.yul\":14032:14035   */\n      0xe0\n        /* \"#utility.yul\":14021:14030   */\n      dup12\n        /* \"#utility.yul\":14017:14036   */\n      add\n        /* \"#utility.yul\":14011:14037   */\n      mload\n        /* \"#utility.yul\":14064:14082   */\n      0xffffffffffffffff\n        /* \"#utility.yul\":14056:14062   */\n      dup2\n        /* \"#utility.yul\":14053:14083   */\n      gt\n        /* \"#utility.yul\":14050:14167   */\n      iszero\n      tag_424\n      jumpi\n        /* \"#utility.yul\":14086:14165   */\n      tag_425\n      tag_214\n      jump\t// in\n    tag_425:\n        /* \"#utility.yul\":14050:14167   */\n    tag_424:\n        /* \"#utility.yul\":14191:14265   */\n      tag_426\n        /* \"#utility.yul\":14257:14264   */\n      dup14\n        /* \"#utility.yul\":14248:14254   */\n      dup3\n        /* \"#utility.yul\":14237:14246   */\n      dup15\n        /* \"#utility.yul\":14233:14255   */\n      add\n        /* \"#utility.yul\":14191:14265   */\n      tag_251\n      jump\t// in\n    tag_426:\n        /* \"#utility.yul\":14181:14265   */\n      swap4\n      pop\n        /* \"#utility.yul\":13982:14275   */\n      pop\n        /* \"#utility.yul\":14314:14317   */\n      0x0100\n        /* \"#utility.yul\":14341:14405   */\n      tag_427\n        /* \"#utility.yul\":14397:14404   */\n      dup14\n        /* \"#utility.yul\":14388:14394   */\n      dup3\n        /* \"#utility.yul\":14377:14386   */\n      dup15\n        /* \"#utility.yul\":14373:14395   */\n      add\n        /* \"#utility.yul\":14341:14405   */\n      tag_239\n      jump\t// in\n    tag_427:\n        /* \"#utility.yul\":14331:14405   */\n      swap3\n      pop\n        /* \"#utility.yul\":14285:14415   */\n      pop\n        /* \"#utility.yul\":14454:14457   */\n      0x0120\n        /* \"#utility.yul\":14481:14545   */\n      tag_428\n        /* \"#utility.yul\":14537:14544   */\n      dup14\n        /* \"#utility.yul\":14528:14534   */\n      dup3\n        /* \"#utility.yul\":14517:14526   */\n      dup15\n        /* \"#utility.yul\":14513:14535   */\n      add\n        /* \"#utility.yul\":14481:14545   */\n      tag_239\n      jump\t// in\n    tag_428:\n        /* \"#utility.yul\":14471:14545   */\n      swap2\n      pop\n        /* \"#utility.yul\":14425:14555   */\n      pop\n        /* \"#utility.yul\":12460:14562   */\n      swap3\n      swap6\n      swap9\n      swap12\n      swap2\n      swap5\n      swap8\n      swap11\n      pop\n      swap3\n      swap6\n      swap9\n      pop\n      jump\t// out\n        /* \"#utility.yul\":14568:14737   */\n    tag_254:\n        /* \"#utility.yul\":14652:14663   */\n      0x00\n        /* \"#utility.yul\":14686:14692   */\n      dup3\n        /* \"#utility.yul\":14681:14684   */\n      dup3\n        /* \"#utility.yul\":14674:14693   */\n      mstore\n        /* \"#utility.yul\":14726:14730   */\n      0x20\n        /* \"#utility.yul\":14721:14724   */\n      dup3\n        /* \"#utility.yul\":14717:14731   */\n      add\n        /* \"#utility.yul\":14702:14731   */\n      swap1\n      pop\n        /* \"#utility.yul\":14568:14737   */\n      swap3\n      swap2\n      pop\n      pop\n      jump\t// out\n        /* \"#utility.yul\":14743:14975   */\n    tag_255:\n        /* \"#utility.yul\":14883:14917   */\n      0x5369676e69747952656c6174696f6e736869703a2063616c6c6572206973206e\n        /* \"#utility.yul\":14879:14880   */\n      0x00\n        /* \"#utility.yul\":14871:14877   */\n      dup3\n        /* \"#utility.yul\":14867:14881   */\n      add\n        /* \"#utility.yul\":14860:14918   */\n      mstore\n        /* \"#utility.yul\":14952:14967   */\n      0x6f74207369676e206f776e657200000000000000000000000000000000000000\n        /* \"#utility.yul\":14947:14949   */\n      0x20\n        /* \"#utility.yul\":14939:14945   */\n      dup3\n        /* \"#utility.yul\":14935:14950   */\n      add\n        /* \"#utility.yul\":14928:14968   */\n      mstore\n        /* \"#utility.yul\":14743:14975   */\n      pop\n      jump\t// out\n        /* \"#utility.yul\":14981:15347   */\n    tag_256:\n        /* \"#utility.yul\":15123:15126   */\n      0x00\n        /* \"#utility.yul\":15144:15211   */\n      tag_432\n        /* \"#utility.yul\":15208:15210   */\n      0x2d\n        /* \"#utility.yul\":15203:15206   */\n      dup4\n        /* \"#utility.yul\":15144:15211   */\n      tag_254\n      jump\t// in\n    tag_432:\n        /* \"#utility.yul\":15137:15211   */\n      swap2\n      pop\n        /* \"#utility.yul\":15220:15313   */\n      tag_433\n        /* \"#utility.yul\":15309:15312   */\n      dup3\n        /* \"#utility.yul\":15220:15313   */\n      tag_255\n      jump\t// in\n    tag_433:\n        /* \"#utility.yul\":15338:15340   */\n      0x40\n        /* \"#utility.yul\":15333:15336   */\n      dup3\n        /* \"#utility.yul\":15329:15341   */\n      add\n        /* \"#utility.yul\":15322:15341   */\n      swap1\n      pop\n        /* \"#utility.yul\":14981:15347   */\n      swap2\n      swap1\n      pop\n      jump\t// out\n        /* \"#utility.yul\":15353:15772   */\n    tag_114:\n        /* \"#utility.yul\":15519:15523   */\n      0x00\n        /* \"#utility.yul\":15557:15559   */\n      0x20\n        /* \"#utility.yul\":15546:15555   */\n      dup3\n        /* \"#utility.yul\":15542:15560   */\n      add\n        /* \"#utility.yul\":15534:15560   */\n      swap1\n      pop\n        /* \"#utility.yul\":15606:15615   */\n      dup2\n        /* \"#utility.yul\":15600:15604   */\n      dup2\n        /* \"#utility.yul\":15596:15616   */\n      sub\n        /* \"#utility.yul\":15592:15593   */\n      0x00\n        /* \"#utility.yul\":15581:15590   */\n      dup4\n        /* \"#utility.yul\":15577:15594   */\n      add\n        /* \"#utility.yul\":15570:15617   */\n      mstore\n        /* \"#utility.yul\":15634:15765   */\n      tag_435\n        /* \"#utility.yul\":15760:15764   */\n      dup2\n        /* \"#utility.yul\":15634:15765   */\n      tag_256\n      jump\t// in\n    tag_435:\n        /* \"#utility.yul\":15626:15765   */\n      swap1\n      pop\n        /* \"#utility.yul\":15353:15772   */\n      swap2\n      swap1\n      pop\n      jump\t// out\n        /* \"#utility.yul\":15778:16003   */\n    tag_257:\n        /* \"#utility.yul\":15918:15952   */\n      0x5369676e69747952656c6174696f6e736869703a206e6f2076616c6964207072\n        /* \"#utility.yul\":15914:15915   */\n      0x00\n        /* \"#utility.yul\":15906:15912   */\n      dup3\n        /* \"#utility.yul\":15902:15916   */\n      add\n        /* \"#utility.yul\":15895:15953   */\n      mstore\n        /* \"#utility.yul\":15987:15995   */\n      0x6f706f73616c0000000000000000000000000000000000000000000000000000\n        /* \"#utility.yul\":15982:15984   */\n      0x20\n        /* \"#utility.yul\":15974:15980   */\n      dup3\n        /* \"#utility.yul\":15970:15985   */\n      add\n        /* \"#utility.yul\":15963:15996   */\n      mstore\n        /* \"#utility.yul\":15778:16003   */\n      pop\n      jump\t// out\n        /* \"#utility.yul\":16009:16375   */\n    tag_258:\n        /* \"#utility.yul\":16151:16154   */\n      0x00\n        /* \"#utility.yul\":16172:16239   */\n      tag_438\n        /* \"#utility.yul\":16236:16238   */\n      0x26\n        /* \"#utility.yul\":16231:16234   */\n      dup4\n        /* \"#utility.yul\":16172:16239   */\n      tag_254\n      jump\t// in\n    tag_438:\n        /* \"#utility.yul\":16165:16239   */\n      swap2\n      pop\n        /* \"#utility.yul\":16248:16341   */\n      tag_439\n        /* \"#utility.yul\":16337:16340   */\n      dup3\n        /* \"#utility.yul\":16248:16341   */\n      tag_257\n      jump\t// in\n    tag_439:\n        /* \"#utility.yul\":16366:16368   */\n      0x40\n        /* \"#utility.yul\":16361:16364   */\n      dup3\n        /* \"#utility.yul\":16357:16369   */\n      add\n        /* \"#utility.yul\":16350:16369   */\n      swap1\n      pop\n        /* \"#utility.yul\":16009:16375   */\n      swap2\n      swap1\n      pop\n      jump\t// out\n        /* \"#utility.yul\":16381:16800   */\n    tag_118:\n        /* \"#utility.yul\":16547:16551   */\n      0x00\n        /* \"#utility.yul\":16585:16587   */\n      0x20\n        /* \"#utility.yul\":16574:16583   */\n      dup3\n        /* \"#utility.yul\":16570:16588   */\n      add\n        /* \"#utility.yul\":16562:16588   */\n      swap1\n      pop\n        /* \"#utility.yul\":16634:16643   */\n      dup2\n        /* \"#utility.yul\":16628:16632   */\n      dup2\n        /* \"#utility.yul\":16624:16644   */\n      sub\n        /* \"#utility.yul\":16620:16621   */\n      0x00\n        /* \"#utility.yul\":16609:16618   */\n      dup4\n        /* \"#utility.yul\":16605:16622   */\n      add\n        /* \"#utility.yul\":16598:16645   */\n      mstore\n        /* \"#utility.yul\":16662:16793   */\n      tag_441\n        /* \"#utility.yul\":16788:16792   */\n      dup2\n        /* \"#utility.yul\":16662:16793   */\n      tag_258\n      jump\t// in\n    tag_441:\n        /* \"#utility.yul\":16654:16793   */\n      swap1\n      pop\n        /* \"#utility.yul\":16381:16800   */\n      swap2\n      swap1\n      pop\n      jump\t// out\n        /* \"#utility.yul\":16806:17030   */\n    tag_259:\n        /* \"#utility.yul\":16946:16980   */\n      0x5369676e69747952656c6174696f6e736869703a2070726f706f73616c206578\n        /* \"#utility.yul\":16942:16943   */\n      0x00\n        /* \"#utility.yul\":16934:16940   */\n      dup3\n        /* \"#utility.yul\":16930:16944   */\n      add\n        /* \"#utility.yul\":16923:16981   */\n      mstore\n        /* \"#utility.yul\":17015:17022   */\n      0x7069726564000000000000000000000000000000000000000000000000000000\n        /* \"#utility.yul\":17010:17012   */\n      0x20\n        /* \"#utility.yul\":17002:17008   */\n      dup3\n        /* \"#utility.yul\":16998:17013   */\n      add\n        /* \"#utility.yul\":16991:17023   */\n      mstore\n        /* \"#utility.yul\":16806:17030   */\n      pop\n      jump\t// out\n        /* \"#utility.yul\":17036:17402   */\n    tag_260:\n        /* \"#utility.yul\":17178:17181   */\n      0x00\n        /* \"#utility.yul\":17199:17266   */\n      tag_444\n        /* \"#utility.yul\":17263:17265   */\n      0x25\n        /* \"#utility.yul\":17258:17261   */\n      dup4\n        /* \"#utility.yul\":17199:17266   */\n      tag_254\n      jump\t// in\n    tag_444:\n        /* \"#utility.yul\":17192:17266   */\n      swap2\n      pop\n        /* \"#utility.yul\":17275:17368   */\n      tag_445\n        /* \"#utility.yul\":17364:17367   */\n      dup3\n        /* \"#utility.yul\":17275:17368   */\n      tag_259\n      jump\t// in\n    tag_445:\n        /* \"#utility.yul\":17393:17395   */\n      0x40\n        /* \"#utility.yul\":17388:17391   */\n      dup3\n        /* \"#utility.yul\":17384:17396   */\n      add\n        /* \"#utility.yul\":17377:17396   */\n      swap1\n      pop\n        /* \"#utility.yul\":17036:17402   */\n      swap2\n      swap1\n      pop\n      jump\t// out\n        /* \"#utility.yul\":17408:17827   */\n    tag_121:\n        /* \"#utility.yul\":17574:17578   */\n      0x00\n        /* \"#utility.yul\":17612:17614   */\n      0x20\n        /* \"#utility.yul\":17601:17610   */\n      dup3\n        /* \"#utility.yul\":17597:17615   */\n      add\n        /* \"#utility.yul\":17589:17615   */\n      swap1\n      pop\n        /* \"#utility.yul\":17661:17670   */\n      dup2\n        /* \"#utility.yul\":17655:17659   */\n      dup2\n        /* \"#utility.yul\":17651:17671   */\n      sub\n        /* \"#utility.yul\":17647:17648   */\n      0x00\n        /* \"#utility.yul\":17636:17645   */\n      dup4\n        /* \"#utility.yul\":17632:17649   */\n      add\n        /* \"#utility.yul\":17625:17672   */\n      mstore\n        /* \"#utility.yul\":17689:17820   */\n      tag_447\n        /* \"#utility.yul\":17815:17819   */\n      dup2\n        /* \"#utility.yul\":17689:17820   */\n      tag_260\n      jump\t// in\n    tag_447:\n        /* \"#utility.yul\":17681:17820   */\n      swap1\n      pop\n        /* \"#utility.yul\":17408:17827   */\n      swap2\n      swap1\n      pop\n      jump\t// out\n        /* \"#utility.yul\":17833:18060   */\n    tag_261:\n        /* \"#utility.yul\":17973:18007   */\n      0x5369676e69747952656c6174696f6e736869703a206f6e65207369676e206973\n        /* \"#utility.yul\":17969:17970   */\n      0x00\n        /* \"#utility.yul\":17961:17967   */\n      dup3\n        /* \"#utility.yul\":17957:17971   */\n      add\n        /* \"#utility.yul\":17950:18008   */\n      mstore\n        /* \"#utility.yul\":18042:18052   */\n      0x206d617272696564000000000000000000000000000000000000000000000000\n        /* \"#utility.yul\":18037:18039   */\n      0x20\n        /* \"#utility.yul\":18029:18035   */\n      dup3\n        /* \"#utility.yul\":18025:18040   */\n      add\n        /* \"#utility.yul\":18018:18053   */\n      mstore\n        /* \"#utility.yul\":17833:18060   */\n      pop\n      jump\t// out\n        /* \"#utility.yul\":18066:18432   */\n    tag_262:\n        /* \"#utility.yul\":18208:18211   */\n      0x00\n        /* \"#utility.yul\":18229:18296   */\n      tag_450\n        /* \"#utility.yul\":18293:18295   */\n      0x28\n        /* \"#utility.yul\":18288:18291   */\n      dup4\n        /* \"#utility.yul\":18229:18296   */\n      tag_254\n      jump\t// in\n    tag_450:\n        /* \"#utility.yul\":18222:18296   */\n      swap2\n      pop\n        /* \"#utility.yul\":18305:18398   */\n      tag_451\n        /* \"#utility.yul\":18394:18397   */\n      dup3\n        /* \"#utility.yul\":18305:18398   */\n      tag_261\n      jump\t// in\n    tag_451:\n        /* \"#utility.yul\":18423:18425   */\n      0x40\n        /* \"#utility.yul\":18418:18421   */\n      dup3\n        /* \"#utility.yul\":18414:18426   */\n      add\n        /* \"#utility.yul\":18407:18426   */\n      swap1\n      pop\n        /* \"#utility.yul\":18066:18432   */\n      swap2\n      swap1\n      pop\n      jump\t// out\n        /* \"#utility.yul\":18438:18857   */\n    tag_127:\n        /* \"#utility.yul\":18604:18608   */\n      0x00\n        /* \"#utility.yul\":18642:18644   */\n      0x20\n        /* \"#utility.yul\":18631:18640   */\n      dup3\n        /* \"#utility.yul\":18627:18645   */\n      add\n        /* \"#utility.yul\":18619:18645   */\n      swap1\n      pop\n        /* \"#utility.yul\":18691:18700   */\n      dup2\n        /* \"#utility.yul\":18685:18689   */\n      dup2\n        /* \"#utility.yul\":18681:18701   */\n      sub\n        /* \"#utility.yul\":18677:18678   */\n      0x00\n        /* \"#utility.yul\":18666:18675   */\n      dup4\n        /* \"#utility.yul\":18662:18679   */\n      add\n        /* \"#utility.yul\":18655:18702   */\n      mstore\n        /* \"#utility.yul\":18719:18850   */\n      tag_453\n        /* \"#utility.yul\":18845:18849   */\n      dup2\n        /* \"#utility.yul\":18719:18850   */\n      tag_262\n      jump\t// in\n    tag_453:\n        /* \"#utility.yul\":18711:18850   */\n      swap1\n      pop\n        /* \"#utility.yul\":18438:18857   */\n      swap2\n      swap1\n      pop\n      jump\t// out\n        /* \"#utility.yul\":18863:19087   */\n    tag_263:\n        /* \"#utility.yul\":19003:19037   */\n      0x5369676e69747952656c6174696f6e736869703a207369676e206e6f74206d61\n        /* \"#utility.yul\":18999:19000   */\n      0x00\n        /* \"#utility.yul\":18991:18997   */\n      dup3\n        /* \"#utility.yul\":18987:19001   */\n      add\n        /* \"#utility.yul\":18980:19038   */\n      mstore\n        /* \"#utility.yul\":19072:19079   */\n      0x7272696564000000000000000000000000000000000000000000000000000000\n        /* \"#utility.yul\":19067:19069   */\n      0x20\n        /* \"#utility.yul\":19059:19065   */\n      dup3\n        /* \"#utility.yul\":19055:19070   */\n      add\n        /* \"#utility.yul\":19048:19080   */\n      mstore\n        /* \"#utility.yul\":18863:19087   */\n      pop\n      jump\t// out\n        /* \"#utility.yul\":19093:19459   */\n    tag_264:\n        /* \"#utility.yul\":19235:19238   */\n      0x00\n        /* \"#utility.yul\":19256:19323   */\n      tag_456\n        /* \"#utility.yul\":19320:19322   */\n      0x25\n        /* \"#utility.yul\":19315:19318   */\n      dup4\n        /* \"#utility.yul\":19256:19323   */\n      tag_254\n      jump\t// in\n    tag_456:\n        /* \"#utility.yul\":19249:19323   */\n      swap2\n      pop\n        /* \"#utility.yul\":19332:19425   */\n      tag_457\n        /* \"#utility.yul\":19421:19424   */\n      dup3\n        /* \"#utility.yul\":19332:19425   */\n      tag_263\n      jump\t// in\n    tag_457:\n        /* \"#utility.yul\":19450:19452   */\n      0x40\n        /* \"#utility.yul\":19445:19448   */\n      dup3\n        /* \"#utility.yul\":19441:19453   */\n      add\n        /* \"#utility.yul\":19434:19453   */\n      swap1\n      pop\n        /* \"#utility.yul\":19093:19459   */\n      swap2\n      swap1\n      pop\n      jump\t// out\n        /* \"#utility.yul\":19465:19884   */\n    tag_141:\n        /* \"#utility.yul\":19631:19635   */\n      0x00\n        /* \"#utility.yul\":19669:19671   */\n      0x20\n        /* \"#utility.yul\":19658:19667   */\n      dup3\n        /* \"#utility.yul\":19654:19672   */\n      add\n        /* \"#utility.yul\":19646:19672   */\n      swap1\n      pop\n        /* \"#utility.yul\":19718:19727   */\n      dup2\n        /* \"#utility.yul\":19712:19716   */\n      dup2\n        /* \"#utility.yul\":19708:19728   */\n      sub\n        /* \"#utility.yul\":19704:19705   */\n      0x00\n        /* \"#utility.yul\":19693:19702   */\n      dup4\n        /* \"#utility.yul\":19689:19706   */\n      add\n        /* \"#utility.yul\":19682:19729   */\n      mstore\n        /* \"#utility.yul\":19746:19877   */\n      tag_459\n        /* \"#utility.yul\":19872:19876   */\n      dup2\n        /* \"#utility.yul\":19746:19877   */\n      tag_264\n      jump\t// in\n    tag_459:\n        /* \"#utility.yul\":19738:19877   */\n      swap1\n      pop\n        /* \"#utility.yul\":19465:19884   */\n      swap2\n      swap1\n      pop\n      jump\t// out\n        /* \"#utility.yul\":19890:20118   */\n    tag_265:\n        /* \"#utility.yul\":20030:20064   */\n      0x5369676e69747952656c6174696f6e736869703a206d6178206368696c647265\n        /* \"#utility.yul\":20026:20027   */\n      0x00\n        /* \"#utility.yul\":20018:20024   */\n      dup3\n        /* \"#utility.yul\":20014:20028   */\n      add\n        /* \"#utility.yul\":20007:20065   */\n      mstore\n        /* \"#utility.yul\":20099:20110   */\n      0x6e20726561636865640000000000000000000000000000000000000000000000\n        /* \"#utility.yul\":20094:20096   */\n      0x20\n        /* \"#utility.yul\":20086:20092   */\n      dup3\n        /* \"#utility.yul\":20082:20097   */\n      add\n        /* \"#utility.yul\":20075:20111   */\n      mstore\n        /* \"#utility.yul\":19890:20118   */\n      pop\n      jump\t// out\n        /* \"#utility.yul\":20124:20490   */\n    tag_266:\n        /* \"#utility.yul\":20266:20269   */\n      0x00\n        /* \"#utility.yul\":20287:20354   */\n      tag_462\n        /* \"#utility.yul\":20351:20353   */\n      0x29\n        /* \"#utility.yul\":20346:20349   */\n      dup4\n        /* \"#utility.yul\":20287:20354   */\n      tag_254\n      jump\t// in\n    tag_462:\n        /* \"#utility.yul\":20280:20354   */\n      swap2\n      pop\n        /* \"#utility.yul\":20363:20456   */\n      tag_463\n        /* \"#utility.yul\":20452:20455   */\n      dup3\n        /* \"#utility.yul\":20363:20456   */\n      tag_265\n      jump\t// in\n    tag_463:\n        /* \"#utility.yul\":20481:20483   */\n      0x40\n        /* \"#utility.yul\":20476:20479   */\n      dup3\n        /* \"#utility.yul\":20472:20484   */\n      add\n        /* \"#utility.yul\":20465:20484   */\n      swap1\n      pop\n        /* \"#utility.yul\":20124:20490   */\n      swap2\n      swap1\n      pop\n      jump\t// out\n        /* \"#utility.yul\":20496:20915   */\n    tag_144:\n        /* \"#utility.yul\":20662:20666   */\n      0x00\n        /* \"#utility.yul\":20700:20702   */\n      0x20\n        /* \"#utility.yul\":20689:20698   */\n      dup3\n        /* \"#utility.yul\":20685:20703   */\n      add\n        /* \"#utility.yul\":20677:20703   */\n      swap1\n      pop\n        /* \"#utility.yul\":20749:20758   */\n      dup2\n        /* \"#utility.yul\":20743:20747   */\n      dup2\n        /* \"#utility.yul\":20739:20759   */\n      sub\n        /* \"#utility.yul\":20735:20736   */\n      0x00\n        /* \"#utility.yul\":20724:20733   */\n      dup4\n        /* \"#utility.yul\":20720:20737   */\n      add\n        /* \"#utility.yul\":20713:20760   */\n      mstore\n        /* \"#utility.yul\":20777:20908   */\n      tag_465\n        /* \"#utility.yul\":20903:20907   */\n      dup2\n        /* \"#utility.yul\":20777:20908   */\n      tag_266\n      jump\t// in\n    tag_465:\n        /* \"#utility.yul\":20769:20908   */\n      swap1\n      pop\n        /* \"#utility.yul\":20496:20915   */\n      swap2\n      swap1\n      pop\n      jump\t// out\n        /* \"#utility.yul\":20921:21101   */\n    tag_267:\n        /* \"#utility.yul\":20969:21046   */\n      0x4e487b7100000000000000000000000000000000000000000000000000000000\n        /* \"#utility.yul\":20966:20967   */\n      0x00\n        /* \"#utility.yul\":20959:21047   */\n      mstore\n        /* \"#utility.yul\":21066:21070   */\n      0x11\n        /* \"#utility.yul\":21063:21064   */\n      0x04\n        /* \"#utility.yul\":21056:21071   */\n      mstore\n        /* \"#utility.yul\":21090:21094   */\n      0x24\n        /* \"#utility.yul\":21087:21088   */\n      0x00\n        /* \"#utility.yul\":21080:21095   */\n      revert\n        /* \"#utility.yul\":21107:21298   */\n    tag_146:\n        /* \"#utility.yul\":21147:21150   */\n      0x00\n        /* \"#utility.yul\":21166:21186   */\n      tag_468\n        /* \"#utility.yul\":21184:21185   */\n      dup3\n        /* \"#utility.yul\":21166:21186   */\n      tag_210\n      jump\t// in\n    tag_468:\n        /* \"#utility.yul\":21161:21186   */\n      swap2\n      pop\n        /* \"#utility.yul\":21200:21220   */\n      tag_469\n        /* \"#utility.yul\":21218:21219   */\n      dup4\n        /* \"#utility.yul\":21200:21220   */\n      tag_210\n      jump\t// in\n    tag_469:\n        /* \"#utility.yul\":21195:21220   */\n      swap3\n      pop\n        /* \"#utility.yul\":21243:21244   */\n      dup3\n        /* \"#utility.yul\":21240:21241   */\n      dup3\n        /* \"#utility.yul\":21236:21245   */\n      add\n        /* \"#utility.yul\":21229:21245   */\n      swap1\n      pop\n        /* \"#utility.yul\":21264:21267   */\n      dup1\n        /* \"#utility.yul\":21261:21262   */\n      dup3\n        /* \"#utility.yul\":21258:21268   */\n      gt\n        /* \"#utility.yul\":21255:21291   */\n      iszero\n      tag_470\n      jumpi\n        /* \"#utility.yul\":21271:21289   */\n      tag_471\n      tag_267\n      jump\t// in\n    tag_471:\n        /* \"#utility.yul\":21255:21291   */\n    tag_470:\n        /* \"#utility.yul\":21107:21298   */\n      swap3\n      swap2\n      pop\n      pop\n      jump\t// out\n        /* \"#utility.yul\":21304:21533   */\n    tag_268:\n        /* \"#utility.yul\":21444:21478   */\n      0x5369676e69747952656c6174696f6e736869703a206368696c6420636f6f6c64\n        /* \"#utility.yul\":21440:21441   */\n      0x00\n        /* \"#utility.yul\":21432:21438   */\n      dup3\n        /* \"#utility.yul\":21428:21442   */\n      add\n        /* \"#utility.yul\":21421:21479   */\n      mstore\n        /* \"#utility.yul\":21513:21525   */\n      0x6f776e2061637469766500000000000000000000000000000000000000000000\n        /* \"#utility.yul\":21508:21510   */\n      0x20\n        /* \"#utility.yul\":21500:21506   */\n      dup3\n        /* \"#utility.yul\":21496:21511   */\n      add\n        /* \"#utility.yul\":21489:21526   */\n      mstore\n        /* \"#utility.yul\":21304:21533   */\n      pop\n      jump\t// out\n        /* \"#utility.yul\":21539:21905   */\n    tag_269:\n        /* \"#utility.yul\":21681:21684   */\n      0x00\n        /* \"#utility.yul\":21702:21769   */\n      tag_474\n        /* \"#utility.yul\":21766:21768   */\n      0x2a\n        /* \"#utility.yul\":21761:21764   */\n      dup4\n        /* \"#utility.yul\":21702:21769   */\n      tag_254\n      jump\t// in\n    tag_474:\n        /* \"#utility.yul\":21695:21769   */\n      swap2\n      pop\n        /* \"#utility.yul\":21778:21871   */\n      tag_475\n        /* \"#utility.yul\":21867:21870   */\n      dup3\n        /* \"#utility.yul\":21778:21871   */\n      tag_268\n      jump\t// in\n    tag_475:\n        /* \"#utility.yul\":21896:21898   */\n      0x40\n        /* \"#utility.yul\":21891:21894   */\n      dup3\n        /* \"#utility.yul\":21887:21899   */\n      add\n        /* \"#utility.yul\":21880:21899   */\n      swap1\n      pop\n        /* \"#utility.yul\":21539:21905   */\n      swap2\n      swap1\n      pop\n      jump\t// out\n        /* \"#utility.yul\":21911:22330   */\n    tag_149:\n        /* \"#utility.yul\":22077:22081   */\n      0x00\n        /* \"#utility.yul\":22115:22117   */\n      0x20\n        /* \"#utility.yul\":22104:22113   */\n      dup3\n        /* \"#utility.yul\":22100:22118   */\n      add\n        /* \"#utility.yul\":22092:22118   */\n      swap1\n      pop\n        /* \"#utility.yul\":22164:22173   */\n      dup2\n        /* \"#utility.yul\":22158:22162   */\n      dup2\n        /* \"#utility.yul\":22154:22174   */\n      sub\n        /* \"#utility.yul\":22150:22151   */\n      0x00\n        /* \"#utility.yul\":22139:22148   */\n      dup4\n        /* \"#utility.yul\":22135:22152   */\n      add\n        /* \"#utility.yul\":22128:22175   */\n      mstore\n        /* \"#utility.yul\":22192:22323   */\n      tag_477\n        /* \"#utility.yul\":22318:22322   */\n      dup2\n        /* \"#utility.yul\":22192:22323   */\n      tag_269\n      jump\t// in\n    tag_477:\n        /* \"#utility.yul\":22184:22323   */\n      swap1\n      pop\n        /* \"#utility.yul\":21911:22330   */\n      swap2\n      swap1\n      pop\n      jump\t// out\n        /* \"#utility.yul\":22336:22516   */\n    tag_270:\n        /* \"#utility.yul\":22384:22461   */\n      0x4e487b7100000000000000000000000000000000000000000000000000000000\n        /* \"#utility.yul\":22381:22382   */\n      0x00\n        /* \"#utility.yul\":22374:22462   */\n      mstore\n        /* \"#utility.yul\":22481:22485   */\n      0x12\n        /* \"#utility.yul\":22478:22479   */\n      0x04\n        /* \"#utility.yul\":22471:22486   */\n      mstore\n        /* \"#utility.yul\":22505:22509   */\n      0x24\n        /* \"#utility.yul\":22502:22503   */\n      0x00\n        /* \"#utility.yul\":22495:22510   */\n      revert\n        /* \"#utility.yul\":22522:22698   */\n    tag_153:\n        /* \"#utility.yul\":22554:22555   */\n      0x00\n        /* \"#utility.yul\":22571:22591   */\n      tag_480\n        /* \"#utility.yul\":22589:22590   */\n      dup3\n        /* \"#utility.yul\":22571:22591   */\n      tag_210\n      jump\t// in\n    tag_480:\n        /* \"#utility.yul\":22566:22591   */\n      swap2\n      pop\n        /* \"#utility.yul\":22605:22625   */\n      tag_481\n        /* \"#utility.yul\":22623:22624   */\n      dup4\n        /* \"#utility.yul\":22605:22625   */\n      tag_210\n      jump\t// in\n    tag_481:\n        /* \"#utility.yul\":22600:22625   */\n      swap3\n      pop\n        /* \"#utility.yul\":22644:22645   */\n      dup3\n        /* \"#utility.yul\":22634:22669   */\n      tag_482\n      jumpi\n        /* \"#utility.yul\":22649:22667   */\n      tag_483\n      tag_270\n      jump\t// in\n    tag_483:\n        /* \"#utility.yul\":22634:22669   */\n    tag_482:\n        /* \"#utility.yul\":22690:22691   */\n      dup3\n        /* \"#utility.yul\":22687:22688   */\n      dup3\n        /* \"#utility.yul\":22683:22692   */\n      mod\n        /* \"#utility.yul\":22678:22692   */\n      swap1\n      pop\n        /* \"#utility.yul\":22522:22698   */\n      swap3\n      swap2\n      pop\n      pop\n      jump\t// out\n        /* \"#utility.yul\":22704:22932   */\n    tag_271:\n        /* \"#utility.yul\":22844:22878   */\n      0x5369676e69747952656c6174696f6e736869703a207369676e20616c72656164\n        /* \"#utility.yul\":22840:22841   */\n      0x00\n        /* \"#utility.yul\":22832:22838   */\n      dup3\n        /* \"#utility.yul\":22828:22842   */\n      add\n        /* \"#utility.yul\":22821:22879   */\n      mstore\n        /* \"#utility.yul\":22913:22924   */\n      0x79206d6172726965640000000000000000000000000000000000000000000000\n        /* \"#utility.yul\":22908:22910   */\n      0x20\n        /* \"#utility.yul\":22900:22906   */\n      dup3\n        /* \"#utility.yul\":22896:22911   */\n      add\n        /* \"#utility.yul\":22889:22925   */\n      mstore\n        /* \"#utility.yul\":22704:22932   */\n      pop\n      jump\t// out\n        /* \"#utility.yul\":22938:23304   */\n    tag_272:\n        /* \"#utility.yul\":23080:23083   */\n      0x00\n        /* \"#utility.yul\":23101:23168   */\n      tag_486\n        /* \"#utility.yul\":23165:23167   */\n      0x29\n        /* \"#utility.yul\":23160:23163   */\n      dup4\n        /* \"#utility.yul\":23101:23168   */\n      tag_254\n      jump\t// in\n    tag_486:\n        /* \"#utility.yul\":23094:23168   */\n      swap2\n      pop\n        /* \"#utility.yul\":23177:23270   */\n      tag_487\n        /* \"#utility.yul\":23266:23269   */\n      dup3\n        /* \"#utility.yul\":23177:23270   */\n      tag_271\n      jump\t// in\n    tag_487:\n        /* \"#utility.yul\":23295:23297   */\n      0x40\n        /* \"#utility.yul\":23290:23293   */\n      dup3\n        /* \"#utility.yul\":23286:23298   */\n      add\n        /* \"#utility.yul\":23279:23298   */\n      swap1\n      pop\n        /* \"#utility.yul\":22938:23304   */\n      swap2\n      swap1\n      pop\n      jump\t// out\n        /* \"#utility.yul\":23310:23729   */\n    tag_189:\n        /* \"#utility.yul\":23476:23480   */\n      0x00\n        /* \"#utility.yul\":23514:23516   */\n      0x20\n        /* \"#utility.yul\":23503:23512   */\n      dup3\n        /* \"#utility.yul\":23499:23517   */\n      add\n        /* \"#utility.yul\":23491:23517   */\n      swap1\n      pop\n        /* \"#utility.yul\":23563:23572   */\n      dup2\n        /* \"#utility.yul\":23557:23561   */\n      dup2\n        /* \"#utility.yul\":23553:23573   */\n      sub\n        /* \"#utility.yul\":23549:23550   */\n      0x00\n        /* \"#utility.yul\":23538:23547   */\n      dup4\n        /* \"#utility.yul\":23534:23551   */\n      add\n        /* \"#utility.yul\":23527:23574   */\n      mstore\n        /* \"#utility.yul\":23591:23722   */\n      tag_489\n        /* \"#utility.yul\":23717:23721   */\n      dup2\n        /* \"#utility.yul\":23591:23722   */\n      tag_272\n      jump\t// in\n    tag_489:\n        /* \"#utility.yul\":23583:23722   */\n      swap1\n      pop\n        /* \"#utility.yul\":23310:23729   */\n      swap2\n      swap1\n      pop\n      jump\t// out\n        /* \"#utility.yul\":23735:23970   */\n    tag_273:\n        /* \"#utility.yul\":23875:23909   */\n      0x5369676e69747952656c6174696f6e736869703a20746172676574207369676e\n        /* \"#utility.yul\":23871:23872   */\n      0x00\n        /* \"#utility.yul\":23863:23869   */\n      dup3\n        /* \"#utility.yul\":23859:23873   */\n      add\n        /* \"#utility.yul\":23852:23910   */\n      mstore\n        /* \"#utility.yul\":23944:23962   */\n      0x20616c7265616479206d61727269656400000000000000000000000000000000\n        /* \"#utility.yul\":23939:23941   */\n      0x20\n        /* \"#utility.yul\":23931:23937   */\n      dup3\n        /* \"#utility.yul\":23927:23942   */\n      add\n        /* \"#utility.yul\":23920:23963   */\n      mstore\n        /* \"#utility.yul\":23735:23970   */\n      pop\n      jump\t// out\n        /* \"#utility.yul\":23976:24342   */\n    tag_274:\n        /* \"#utility.yul\":24118:24121   */\n      0x00\n        /* \"#utility.yul\":24139:24206   */\n      tag_492\n        /* \"#utility.yul\":24203:24205   */\n      0x30\n        /* \"#utility.yul\":24198:24201   */\n      dup4\n        /* \"#utility.yul\":24139:24206   */\n      tag_254\n      jump\t// in\n    tag_492:\n        /* \"#utility.yul\":24132:24206   */\n      swap2\n      pop\n        /* \"#utility.yul\":24215:24308   */\n      tag_493\n        /* \"#utility.yul\":24304:24307   */\n      dup3\n        /* \"#utility.yul\":24215:24308   */\n      tag_273\n      jump\t// in\n    tag_493:\n        /* \"#utility.yul\":24333:24335   */\n      0x40\n        /* \"#utility.yul\":24328:24331   */\n      dup3\n        /* \"#utility.yul\":24324:24336   */\n      add\n        /* \"#utility.yul\":24317:24336   */\n      swap1\n      pop\n        /* \"#utility.yul\":23976:24342   */\n      swap2\n      swap1\n      pop\n      jump\t// out\n        /* \"#utility.yul\":24348:24767   */\n    tag_193:\n        /* \"#utility.yul\":24514:24518   */\n      0x00\n        /* \"#utility.yul\":24552:24554   */\n      0x20\n        /* \"#utility.yul\":24541:24550   */\n      dup3\n        /* \"#utility.yul\":24537:24555   */\n      add\n        /* \"#utility.yul\":24529:24555   */\n      swap1\n      pop\n        /* \"#utility.yul\":24601:24610   */\n      dup2\n        /* \"#utility.yul\":24595:24599   */\n      dup2\n        /* \"#utility.yul\":24591:24611   */\n      sub\n        /* \"#utility.yul\":24587:24588   */\n      0x00\n        /* \"#utility.yul\":24576:24585   */\n      dup4\n        /* \"#utility.yul\":24572:24589   */\n      add\n        /* \"#utility.yul\":24565:24612   */\n      mstore\n        /* \"#utility.yul\":24629:24760   */\n      tag_495\n        /* \"#utility.yul\":24755:24759   */\n      dup2\n        /* \"#utility.yul\":24629:24760   */\n      tag_274\n      jump\t// in\n    tag_495:\n        /* \"#utility.yul\":24621:24760   */\n      swap1\n      pop\n        /* \"#utility.yul\":24348:24767   */\n      swap2\n      swap1\n      pop\n      jump\t// out\n        /* \"#utility.yul\":24773:25004   */\n    tag_275:\n        /* \"#utility.yul\":24913:24947   */\n      0x5369676e69747952656c6174696f6e736869703a206469766f72636520636f6f\n        /* \"#utility.yul\":24909:24910   */\n      0x00\n        /* \"#utility.yul\":24901:24907   */\n      dup3\n        /* \"#utility.yul\":24897:24911   */\n      add\n        /* \"#utility.yul\":24890:24948   */\n      mstore\n        /* \"#utility.yul\":24982:24996   */\n      0x6c646f776e206163746976650000000000000000000000000000000000000000\n        /* \"#utility.yul\":24977:24979   */\n      0x20\n        /* \"#utility.yul\":24969:24975   */\n      dup3\n        /* \"#utility.yul\":24965:24980   */\n      add\n        /* \"#utility.yul\":24958:24997   */\n      mstore\n        /* \"#utility.yul\":24773:25004   */\n      pop\n      jump\t// out\n        /* \"#utility.yul\":25010:25376   */\n    tag_276:\n        /* \"#utility.yul\":25152:25155   */\n      0x00\n        /* \"#utility.yul\":25173:25240   */\n      tag_498\n        /* \"#utility.yul\":25237:25239   */\n      0x2c\n        /* \"#utility.yul\":25232:25235   */\n      dup4\n        /* \"#utility.yul\":25173:25240   */\n      tag_254\n      jump\t// in\n    tag_498:\n        /* \"#utility.yul\":25166:25240   */\n      swap2\n      pop\n        /* \"#utility.yul\":25249:25342   */\n      tag_499\n        /* \"#utility.yul\":25338:25341   */\n      dup3\n        /* \"#utility.yul\":25249:25342   */\n      tag_275\n      jump\t// in\n    tag_499:\n        /* \"#utility.yul\":25367:25369   */\n      0x40\n        /* \"#utility.yul\":25362:25365   */\n      dup3\n        /* \"#utility.yul\":25358:25370   */\n      add\n        /* \"#utility.yul\":25351:25370   */\n      swap1\n      pop\n        /* \"#utility.yul\":25010:25376   */\n      swap2\n      swap1\n      pop\n      jump\t// out\n        /* \"#utility.yul\":25382:25801   */\n    tag_197:\n        /* \"#utility.yul\":25548:25552   */\n      0x00\n        /* \"#utility.yul\":25586:25588   */\n      0x20\n        /* \"#utility.yul\":25575:25584   */\n      dup3\n        /* \"#utility.yul\":25571:25589   */\n      add\n        /* \"#utility.yul\":25563:25589   */\n      swap1\n      pop\n        /* \"#utility.yul\":25635:25644   */\n      dup2\n        /* \"#utility.yul\":25629:25633   */\n      dup2\n        /* \"#utility.yul\":25625:25645   */\n      sub\n        /* \"#utility.yul\":25621:25622   */\n      0x00\n        /* \"#utility.yul\":25610:25619   */\n      dup4\n        /* \"#utility.yul\":25606:25623   */\n      add\n        /* \"#utility.yul\":25599:25646   */\n      mstore\n        /* \"#utility.yul\":25663:25794   */\n      tag_501\n        /* \"#utility.yul\":25789:25793   */\n      dup2\n        /* \"#utility.yul\":25663:25794   */\n      tag_276\n      jump\t// in\n    tag_501:\n        /* \"#utility.yul\":25655:25794   */\n      swap1\n      pop\n        /* \"#utility.yul\":25382:25801   */\n      swap2\n      swap1\n      pop\n      jump\t// out\n        /* \"#utility.yul\":25807:26045   */\n    tag_277:\n        /* \"#utility.yul\":25947:25981   */\n      0x5369676e69747952656c6174696f6e736869703a20746172676574206469766f\n        /* \"#utility.yul\":25943:25944   */\n      0x00\n        /* \"#utility.yul\":25935:25941   */\n      dup3\n        /* \"#utility.yul\":25931:25945   */\n      add\n        /* \"#utility.yul\":25924:25982   */\n      mstore\n        /* \"#utility.yul\":26016:26037   */\n      0x72636520636f6f6c646f776e2061637469766500000000000000000000000000\n        /* \"#utility.yul\":26011:26013   */\n      0x20\n        /* \"#utility.yul\":26003:26009   */\n      dup3\n        /* \"#utility.yul\":25999:26014   */\n      add\n        /* \"#utility.yul\":25992:26038   */\n      mstore\n        /* \"#utility.yul\":25807:26045   */\n      pop\n      jump\t// out\n        /* \"#utility.yul\":26051:26417   */\n    tag_278:\n        /* \"#utility.yul\":26193:26196   */\n      0x00\n        /* \"#utility.yul\":26214:26281   */\n      tag_504\n        /* \"#utility.yul\":26278:26280   */\n      0x33\n        /* \"#utility.yul\":26273:26276   */\n      dup4\n        /* \"#utility.yul\":26214:26281   */\n      tag_254\n      jump\t// in\n    tag_504:\n        /* \"#utility.yul\":26207:26281   */\n      swap2\n      pop\n        /* \"#utility.yul\":26290:26383   */\n      tag_505\n        /* \"#utility.yul\":26379:26382   */\n      dup3\n        /* \"#utility.yul\":26290:26383   */\n      tag_277\n      jump\t// in\n    tag_505:\n        /* \"#utility.yul\":26408:26410   */\n      0x40\n        /* \"#utility.yul\":26403:26406   */\n      dup3\n        /* \"#utility.yul\":26399:26411   */\n      add\n        /* \"#utility.yul\":26392:26411   */\n      swap1\n      pop\n        /* \"#utility.yul\":26051:26417   */\n      swap2\n      swap1\n      pop\n      jump\t// out\n        /* \"#utility.yul\":26423:26842   */\n    tag_201:\n        /* \"#utility.yul\":26589:26593   */\n      0x00\n        /* \"#utility.yul\":26627:26629   */\n      0x20\n        /* \"#utility.yul\":26616:26625   */\n      dup3\n        /* \"#utility.yul\":26612:26630   */\n      add\n        /* \"#utility.yul\":26604:26630   */\n      swap1\n      pop\n        /* \"#utility.yul\":26676:26685   */\n      dup2\n        /* \"#utility.yul\":26670:26674   */\n      dup2\n        /* \"#utility.yul\":26666:26686   */\n      sub\n        /* \"#utility.yul\":26662:26663   */\n      0x00\n        /* \"#utility.yul\":26651:26660   */\n      dup4\n        /* \"#utility.yul\":26647:26664   */\n      add\n        /* \"#utility.yul\":26640:26687   */\n      mstore\n        /* \"#utility.yul\":26704:26835   */\n      tag_507\n        /* \"#utility.yul\":26830:26834   */\n      dup2\n        /* \"#utility.yul\":26704:26835   */\n      tag_278\n      jump\t// in\n    tag_507:\n        /* \"#utility.yul\":26696:26835   */\n      swap1\n      pop\n        /* \"#utility.yul\":26423:26842   */\n      swap2\n      swap1\n      pop\n      jump\t// out\n        /* \"#utility.yul\":26848:26927   */\n    tag_279:\n        /* \"#utility.yul\":26887:26894   */\n      0x00\n        /* \"#utility.yul\":26916:26921   */\n      dup2\n        /* \"#utility.yul\":26905:26921   */\n      swap1\n      pop\n        /* \"#utility.yul\":26848:26927   */\n      swap2\n      swap1\n      pop\n      jump\t// out\n        /* \"#utility.yul\":26933:27090   */\n    tag_280:\n        /* \"#utility.yul\":27038:27083   */\n      tag_510\n        /* \"#utility.yul\":27058:27082   */\n      tag_511\n        /* \"#utility.yul\":27076:27081   */\n      dup3\n        /* \"#utility.yul\":27058:27082   */\n      tag_210\n      jump\t// in\n    tag_511:\n        /* \"#utility.yul\":27038:27083   */\n      tag_279\n      jump\t// in\n    tag_510:\n        /* \"#utility.yul\":27033:27036   */\n      dup3\n        /* \"#utility.yul\":27026:27084   */\n      mstore\n        /* \"#utility.yul\":26933:27090   */\n      pop\n      pop\n      jump\t// out\n        /* \"#utility.yul\":27096:27634   */\n    tag_205:\n        /* \"#utility.yul\":27264:27267   */\n      0x00\n        /* \"#utility.yul\":27279:27354   */\n      tag_513\n        /* \"#utility.yul\":27350:27353   */\n      dup3\n        /* \"#utility.yul\":27341:27347   */\n      dup7\n        /* \"#utility.yul\":27279:27354   */\n      tag_280\n      jump\t// in\n    tag_513:\n        /* \"#utility.yul\":27379:27381   */\n      0x20\n        /* \"#utility.yul\":27374:27377   */\n      dup3\n        /* \"#utility.yul\":27370:27382   */\n      add\n        /* \"#utility.yul\":27363:27382   */\n      swap2\n      pop\n        /* \"#utility.yul\":27392:27467   */\n      tag_514\n        /* \"#utility.yul\":27463:27466   */\n      dup3\n        /* \"#utility.yul\":27454:27460   */\n      dup6\n        /* \"#utility.yul\":27392:27467   */\n      tag_280\n      jump\t// in\n    tag_514:\n        /* \"#utility.yul\":27492:27494   */\n      0x20\n        /* \"#utility.yul\":27487:27490   */\n      dup3\n        /* \"#utility.yul\":27483:27495   */\n      add\n        /* \"#utility.yul\":27476:27495   */\n      swap2\n      pop\n        /* \"#utility.yul\":27505:27580   */\n      tag_515\n        /* \"#utility.yul\":27576:27579   */\n      dup3\n        /* \"#utility.yul\":27567:27573   */\n      dup5\n        /* \"#utility.yul\":27505:27580   */\n      tag_280\n      jump\t// in\n    tag_515:\n        /* \"#utility.yul\":27605:27607   */\n      0x20\n        /* \"#utility.yul\":27600:27603   */\n      dup3\n        /* \"#utility.yul\":27596:27608   */\n      add\n        /* \"#utility.yul\":27589:27608   */\n      swap2\n      pop\n        /* \"#utility.yul\":27625:27628   */\n      dup2\n        /* \"#utility.yul\":27618:27628   */\n      swap1\n      pop\n        /* \"#utility.yul\":27096:27634   */\n      swap5\n      swap4\n      pop\n      pop\n      pop\n      pop\n      jump\t// out\n        /* \"#utility.yul\":27640:28319   */\n    tag_209:\n        /* \"#utility.yul\":27836:27839   */\n      0x00\n        /* \"#utility.yul\":27851:27926   */\n      tag_517\n        /* \"#utility.yul\":27922:27925   */\n      dup3\n        /* \"#utility.yul\":27913:27919   */\n      dup8\n        /* \"#utility.yul\":27851:27926   */\n      tag_280\n      jump\t// in\n    tag_517:\n        /* \"#utility.yul\":27951:27953   */\n      0x20\n        /* \"#utility.yul\":27946:27949   */\n      dup3\n        /* \"#utility.yul\":27942:27954   */\n      add\n        /* \"#utility.yul\":27935:27954   */\n      swap2\n      pop\n        /* \"#utility.yul\":27964:28039   */\n      tag_518\n        /* \"#utility.yul\":28035:28038   */\n      dup3\n        /* \"#utility.yul\":28026:28032   */\n      dup7\n        /* \"#utility.yul\":27964:28039   */\n      tag_280\n      jump\t// in\n    tag_518:\n        /* \"#utility.yul\":28064:28066   */\n      0x20\n        /* \"#utility.yul\":28059:28062   */\n      dup3\n        /* \"#utility.yul\":28055:28067   */\n      add\n        /* \"#utility.yul\":28048:28067   */\n      swap2\n      pop\n        /* \"#utility.yul\":28077:28152   */\n      tag_519\n        /* \"#utility.yul\":28148:28151   */\n      dup3\n        /* \"#utility.yul\":28139:28145   */\n      dup6\n        /* \"#utility.yul\":28077:28152   */\n      tag_280\n      jump\t// in\n    tag_519:\n        /* \"#utility.yul\":28177:28179   */\n      0x20\n        /* \"#utility.yul\":28172:28175   */\n      dup3\n        /* \"#utility.yul\":28168:28180   */\n      add\n        /* \"#utility.yul\":28161:28180   */\n      swap2\n      pop\n        /* \"#utility.yul\":28190:28265   */\n      tag_520\n        /* \"#utility.yul\":28261:28264   */\n      dup3\n        /* \"#utility.yul\":28252:28258   */\n      dup5\n        /* \"#utility.yul\":28190:28265   */\n      tag_280\n      jump\t// in\n    tag_520:\n        /* \"#utility.yul\":28290:28292   */\n      0x20\n        /* \"#utility.yul\":28285:28288   */\n      dup3\n        /* \"#utility.yul\":28281:28293   */\n      add\n        /* \"#utility.yul\":28274:28293   */\n      swap2\n      pop\n        /* \"#utility.yul\":28310:28313   */\n      dup2\n        /* \"#utility.yul\":28303:28313   */\n      swap1\n      pop\n        /* \"#utility.yul\":27640:28319   */\n      swap6\n      swap5\n      pop\n      pop\n      pop\n      pop\n      pop\n      jump\t// out\n\n    auxdata: 0xa26469706673582212204162246c1bbed027860fd2bb8a278645264dabb6f788f0edf1d8dd1e9209b63864736f6c634300081a0033\n}\n",
				"bytecode": {
					"linkReferences": {},
					"object": "60a060405234801561000f575f80fd5b5060405161232d38038061232d83398181016040528101906100319190610149565b3373ffffffffffffffffffffffffffffffffffffffff1660808173ffffffffffffffffffffffffffffffffffffffff1681525050815f806101000a81548173ffffffffffffffffffffffffffffffffffffffff021916908373ffffffffffffffffffffffffffffffffffffffff1602179055508060015f6101000a81548173ffffffffffffffffffffffffffffffffffffffff021916908373ffffffffffffffffffffffffffffffffffffffff1602179055505050610187565b5f80fd5b5f73ffffffffffffffffffffffffffffffffffffffff82169050919050565b5f610118826100ef565b9050919050565b6101288161010e565b8114610132575f80fd5b50565b5f815190506101438161011f565b92915050565b5f806040838503121561015f5761015e6100eb565b5b5f61016c85828601610135565b925050602061017d85828601610135565b9150509250929050565b60805161218e61019f5f395f610adb015261218e5ff3fe608060405234801561000f575f80fd5b506004361061012a575f3560e01c8063b30192ba116100ab578063c222ff491161006f578063c222ff4914610392578063c2887cdc146103b0578063db1db2e1146103e0578063e29f5a07146103fc578063f88bedf91461041a5761012a565b8063b30192ba146102b6578063b3841a91146102e6578063b49a5bb214610316578063b56c8a0c14610332578063bdad7fa6146103625761012a565b80637002ce42116100f25780637002ce42146101fb5780637dfe7b731461022e578063874eaa021461025e5780638da5cb5b1461027a578063a196d01d146102985761012a565b8063080bfbae1461012e5780631204c58f1461014c578063573662c11461017c5780635cf3f355146101af5780636abf8db8146101cb575b5f80fd5b610136610438565b6040516101439190611316565b60405180910390f35b6101666004803603810190610161919061136a565b61043f565b6040516101739190611316565b60405180910390f35b6101966004803603810190610191919061136a565b610454565b6040516101a694939291906113af565b60405180910390f35b6101c960048036038101906101c491906113f2565b61048c565b005b6101e560048036038101906101e0919061136a565b610787565b6040516101f29190611430565b60405180910390f35b6102156004803603810190610210919061136a565b6107a4565b60405161022594939291906113af565b60405180910390f35b6102486004803603810190610243919061136a565b6107dc565b6040516102559190611316565b60405180910390f35b6102786004803603810190610273919061136a565b6107f1565b005b610282610ad9565b60405161028f9190611488565b60405180910390f35b6102a0610afd565b6040516102ad91906114fc565b60405180910390f35b6102d060048036038101906102cb919061136a565b610b22565b6040516102dd919061164e565b60405180910390f35b61030060048036038101906102fb919061136a565b610bda565b60405161030d9190611316565b60405180910390f35b610330600480360381019061032b919061136a565b610bef565b005b61034c6004803603810190610347919061136a565b610e2a565b6040516103599190611316565b60405180910390f35b61037c6004803603810190610377919061136a565b610e3f565b60405161038991906116c1565b60405180910390f35b61039a610ea1565b6040516103a79190611316565b60405180910390f35b6103ca60048036038101906103c5919061136a565b610ea6565b6040516103d79190611316565b60405180910390f35b6103fa60048036038101906103f591906113f2565b610ebb565b005b610404611194565b60405161041191906116fa565b60405180910390f35b6104226111b7565b60405161042f9190611316565b60405180910390f35b62ed4e0081565b6005602052805f5260405f205f915090505481565b6002602052805f5260405f205f91509050805f015490806001015490806002015490806003015f9054906101000a900460ff16905084565b815f60015f9054906101000a900473ffffffffffffffffffffffffffffffffffffffff1673ffffffffffffffffffffffffffffffffffffffff16634eb5fdcf836040518263ffffffff1660e01b81526004016104e89190611316565b5f60405180830381865afa158015610502573d5f803e3d5ffd5b505050506040513d5f823e3d601f19601f8201168201806040525081019061052a91906118b7565b50505050505050509150503373ffffffffffffffffffffffffffffffffffffffff168173ffffffffffffffffffffffffffffffffffffffff16146105a3576040517f08c379a000000000000000000000000000000000000000000000000000000000815260040161059a90611a48565b60405180910390fd5b8360075f8581526020019081526020015f2054146105f6576040517f08c379a00000000000000000000000000000000000000000000000000000000081526004016105ed90611ad6565b60405180910390fd5b60085f8481526020019081526020015f205442111561064a576040517f08c379a000000000000000000000000000000000000000000000000000000000815260040161064190611b64565b60405180910390fd5b61065383610787565b158015610666575061066484610787565b155b6106a5576040517f08c379a000000000000000000000000000000000000000000000000000000000815260040161069c90611bf2565b60405180910390fd5b5f60025f8581526020019081526020015f20905083815f01819055508481600101819055504281600201819055506001816003015f6101000a81548160ff0219169083151502179055508460035f8681526020019081526020015f20819055508360035f8781526020019081526020015f20819055505f60075f8681526020019081526020015f20819055505f60085f8681526020019081526020015f208190555084847f6c03a5a900f7813306fdf354815eaece8020be09c42a4f0eefddeb7b5f38ac12426040516107789190611316565b60405180910390a35050505050565b5f8060035f8481526020019081526020015f205414159050919050565b6004602052805f5260405f205f91509050805f015490806001015490806002015490806003015f9054906101000a900460ff16905084565b6008602052805f5260405f205f915090505481565b805f60015f9054906101000a900473ffffffffffffffffffffffffffffffffffffffff1673ffffffffffffffffffffffffffffffffffffffff16634eb5fdcf836040518263ffffffff1660e01b815260040161084d9190611316565b5f60405180830381865afa158015610867573d5f803e3d5ffd5b505050506040513d5f823e3d601f19601f8201168201806040525081019061088f91906118b7565b50505050505050509150503373ffffffffffffffffffffffffffffffffffffffff168173ffffffffffffffffffffffffffffffffffffffff1614610908576040517f08c379a00000000000000000000000000000000000000000000000000000000081526004016108ff90611a48565b60405180910390fd5b61091183610787565b610950576040517f08c379a000000000000000000000000000000000000000000000000000000000815260040161094790611c80565b60405180910390fd5b5f60035f8581526020019081526020015f205490505f60025f8681526020019081526020015f20905060058160040180549050106109c3576040517f08c379a00000000000000000000000000000000000000000000000000000000081526004016109ba90611d0e565b60405180910390fd5b62ed4e0060055f8781526020019081526020015f20546109e39190611d59565b4211610a24576040517f08c379a0000000000000000000000000000000000000000000000000000000008152600401610a1b90611dfc565b60405180910390fd5b60016002610a31426111be565b610a3b9190611e47565b03610ad2575f610a4b86846111f3565b90508160040181908060018154018082558091505060019003905f5260205f20015f90919091909150554260055f8881526020019081526020015f20819055504260055f8581526020019081526020015f20819055508083877fcc8b031eff7add8d859d619d96932ecc4776663db05501da5ab3c52e0063913b60405160405180910390a4505b5050505050565b7f000000000000000000000000000000000000000000000000000000000000000081565b60015f9054906101000a900473ffffffffffffffffffffffffffffffffffffffff1681565b610b2a6112ab565b60025f8381526020019081526020015f206040518060a00160405290815f82015481526020016001820154815260200160028201548152602001600382015f9054906101000a900460ff1615151515815260200160048201805480602002602001604051908101604052809291908181526020018280548015610bca57602002820191905f5260205f20905b815481526020019060010190808311610bb6575b5050505050815250509050919050565b6007602052805f5260405f205f915090505481565b805f60015f9054906101000a900473ffffffffffffffffffffffffffffffffffffffff1673ffffffffffffffffffffffffffffffffffffffff16634eb5fdcf836040518263ffffffff1660e01b8152600401610c4b9190611316565b5f60405180830381865afa158015610c65573d5f803e3d5ffd5b505050506040513d5f823e3d601f19601f82011682018060405250810190610c8d91906118b7565b50505050505050509150503373ffffffffffffffffffffffffffffffffffffffff168173ffffffffffffffffffffffffffffffffffffffff1614610d06576040517f08c379a0000000000000000000000000000000000000000000000000000000008152600401610cfd90611a48565b60405180910390fd5b610d0f83610787565b610d4e576040517f08c379a0000000000000000000000000000000000000000000000000000000008152600401610d4590611c80565b60405180910390fd5b5f60035f8581526020019081526020015f205490505f60025f8681526020019081526020015f2090505f816003015f6101000a81548160ff0219169083151502179055505f60035f8781526020019081526020015f20819055505f60035f8481526020019081526020015f20819055504260065f8781526020019081526020015f20819055504260065f8481526020019081526020015f208190555081857f8c5de88b98de9839f8bd91fcff59e133ce788f392c0e464516cd3052cd8a9ee142604051610e1b9190611316565b60405180910390a35050505050565b6003602052805f5260405f205f915090505481565b610e476112d8565b60045f8381526020019081526020015f206040518060800160405290815f82015481526020016001820154815260200160028201548152602001600382015f9054906101000a900460ff1615151515815250509050919050565b600581565b6006602052805f5260405f205f915090505481565b815f60015f9054906101000a900473ffffffffffffffffffffffffffffffffffffffff1673ffffffffffffffffffffffffffffffffffffffff16634eb5fdcf836040518263ffffffff1660e01b8152600401610f179190611316565b5f60405180830381865afa158015610f31573d5f803e3d5ffd5b505050506040513d5f823e3d601f19601f82011682018060405250810190610f5991906118b7565b50505050505050509150503373ffffffffffffffffffffffffffffffffffffffff168173ffffffffffffffffffffffffffffffffffffffff1614610fd2576040517f08c379a0000000000000000000000000000000000000000000000000000000008152600401610fc990611a48565b60405180910390fd5b610fdb84610787565b1561101b576040517f08c379a000000000000000000000000000000000000000000000000000000000815260040161101290611ee7565b60405180910390fd5b61102483610787565b15611064576040517f08c379a000000000000000000000000000000000000000000000000000000000815260040161105b90611f75565b60405180910390fd5b6276a70060065f8681526020019081526020015f20546110849190611d59565b42116110c5576040517f08c379a00000000000000000000000000000000000000000000000000000000081526004016110bc90612003565b60405180910390fd5b6276a70060065f8581526020019081526020015f20546110e59190611d59565b4211611126576040517f08c379a000000000000000000000000000000000000000000000000000000000815260040161111d90612091565b60405180910390fd5b8260075f8681526020019081526020015f208190555062093a804261114b9190611d59565b60085f8681526020019081526020015f208190555082847fd39eb4e990a8f071a7fb2b997daaaa0c2c57ce49895e2761bdba2bab91e7d0fe60405160405180910390a350505050565b5f8054906101000a900473ffffffffffffffffffffffffffffffffffffffff1681565b6276a70081565b5f4244836040516020016111d4939291906120cf565b604051602081830303815290604052805190602001205f1c9050919050565b5f80838342611201426111be565b604051602001611214949392919061210b565b604051602081830303815290604052805190602001205f1c905060405180608001604052808581526020018481526020014281526020016001151581525060045f8381526020019081526020015f205f820151815f015560208201518160010155604082015181600201556060820151816003015f6101000a81548160ff0219169083151502179055509050508091505092915050565b6040518060a001604052805f81526020015f81526020015f81526020015f15158152602001606081525090565b60405180608001604052805f81526020015f81526020015f81526020015f151581525090565b5f819050919050565b611310816112fe565b82525050565b5f6020820190506113295f830184611307565b92915050565b5f604051905090565b5f80fd5b5f80fd5b611349816112fe565b8114611353575f80fd5b50565b5f8135905061136481611340565b92915050565b5f6020828403121561137f5761137e611338565b5b5f61138c84828501611356565b91505092915050565b5f8115159050919050565b6113a981611395565b82525050565b5f6080820190506113c25f830187611307565b6113cf6020830186611307565b6113dc6040830185611307565b6113e960608301846113a0565b95945050505050565b5f806040838503121561140857611407611338565b5b5f61141585828601611356565b925050602061142685828601611356565b9150509250929050565b5f6020820190506114435f8301846113a0565b92915050565b5f73ffffffffffffffffffffffffffffffffffffffff82169050919050565b5f61147282611449565b9050919050565b61148281611468565b82525050565b5f60208201905061149b5f830184611479565b92915050565b5f819050919050565b5f6114c46114bf6114ba84611449565b6114a1565b611449565b9050919050565b5f6114d5826114aa565b9050919050565b5f6114e6826114cb565b9050919050565b6114f6816114dc565b82525050565b5f60208201905061150f5f8301846114ed565b92915050565b61151e816112fe565b82525050565b61152d81611395565b82525050565b5f81519050919050565b5f82825260208201905092915050565b5f819050602082019050919050565b5f6115678383611515565b60208301905092915050565b5f602082019050919050565b5f61158982611533565b611593818561153d565b935061159e8361154d565b805f5b838110156115ce5781516115b5888261155c565b97506115c083611573565b9250506001810190506115a1565b5085935050505092915050565b5f60a083015f8301516115f05f860182611515565b5060208301516116036020860182611515565b5060408301516116166040860182611515565b5060608301516116296060860182611524565b5060808301518482036080860152611641828261157f565b9150508091505092915050565b5f6020820190508181035f83015261166681846115db565b905092915050565b608082015f8201516116825f850182611515565b5060208201516116956020850182611515565b5060408201516116a86040850182611515565b5060608201516116bb6060850182611524565b50505050565b5f6080820190506116d45f83018461166e565b92915050565b5f6116e4826114cb565b9050919050565b6116f4816116da565b82525050565b5f60208201905061170d5f8301846116eb565b92915050565b5f8151905061172181611340565b92915050565b61173081611468565b811461173a575f80fd5b50565b5f8151905061174b81611727565b92915050565b5f80fd5b5f80fd5b5f601f19601f8301169050919050565b7f4e487b71000000000000000000000000000000000000000000000000000000005f52604160045260245ffd5b61179f82611759565b810181811067ffffffffffffffff821117156117be576117bd611769565b5b80604052505050565b5f6117d061132f565b90506117dc8282611796565b919050565b5f67ffffffffffffffff8211156117fb576117fa611769565b5b61180482611759565b9050602081019050919050565b8281835e5f83830152505050565b5f61183161182c846117e1565b6117c7565b90508281526020810184848401111561184d5761184c611755565b5b611858848285611811565b509392505050565b5f82601f83011261187457611873611751565b5b815161188484826020860161181f565b91505092915050565b61189681611395565b81146118a0575f80fd5b50565b5f815190506118b18161188d565b92915050565b5f805f805f805f805f806101408b8d0312156118d6576118d5611338565b5b5f6118e38d828e01611713565b9a505060206118f48d828e0161173d565b99505060408b015167ffffffffffffffff8111156119155761191461133c565b5b6119218d828e01611860565b98505060606119328d828e01611713565b97505060806119438d828e0161173d565b96505060a06119548d828e016118a3565b95505060c06119658d828e01611713565b94505060e08b015167ffffffffffffffff8111156119865761198561133c565b5b6119928d828e01611860565b9350506101006119a48d828e01611713565b9250506101206119b68d828e01611713565b9150509295989b9194979a5092959850565b5f82825260208201905092915050565b7f5369676e69747952656c6174696f6e736869703a2063616c6c6572206973206e5f8201527f6f74207369676e206f776e657200000000000000000000000000000000000000602082015250565b5f611a32602d836119c8565b9150611a3d826119d8565b604082019050919050565b5f6020820190508181035f830152611a5f81611a26565b9050919050565b7f5369676e69747952656c6174696f6e736869703a206e6f2076616c69642070725f8201527f6f706f73616c0000000000000000000000000000000000000000000000000000602082015250565b5f611ac06026836119c8565b9150611acb82611a66565b604082019050919050565b5f6020820190508181035f830152611aed81611ab4565b9050919050565b7f5369676e69747952656c6174696f6e736869703a2070726f706f73616c2065785f8201527f7069726564000000000000000000000000000000000000000000000000000000602082015250565b5f611b4e6025836119c8565b9150611b5982611af4565b604082019050919050565b5f6020820190508181035f830152611b7b81611b42565b9050919050565b7f5369676e69747952656c6174696f6e736869703a206f6e65207369676e2069735f8201527f206d617272696564000000000000000000000000000000000000000000000000602082015250565b5f611bdc6028836119c8565b9150611be782611b82565b604082019050919050565b5f6020820190508181035f830152611c0981611bd0565b9050919050565b7f5369676e69747952656c6174696f6e736869703a207369676e206e6f74206d615f8201527f7272696564000000000000000000000000000000000000000000000000000000602082015250565b5f611c6a6025836119c8565b9150611c7582611c10565b604082019050919050565b5f6020820190508181035f830152611c9781611c5e565b9050919050565b7f5369676e69747952656c6174696f6e736869703a206d6178206368696c6472655f8201527f6e20726561636865640000000000000000000000000000000000000000000000602082015250565b5f611cf86029836119c8565b9150611d0382611c9e565b604082019050919050565b5f6020820190508181035f830152611d2581611cec565b9050919050565b7f4e487b71000000000000000000000000000000000000000000000000000000005f52601160045260245ffd5b5f611d63826112fe565b9150611d6e836112fe565b9250828201905080821115611d8657611d85611d2c565b5b92915050565b7f5369676e69747952656c6174696f6e736869703a206368696c6420636f6f6c645f8201527f6f776e2061637469766500000000000000000000000000000000000000000000602082015250565b5f611de6602a836119c8565b9150611df182611d8c565b604082019050919050565b5f6020820190508181035f830152611e1381611dda565b9050919050565b7f4e487b71000000000000000000000000000000000000000000000000000000005f52601260045260245ffd5b5f611e51826112fe565b9150611e5c836112fe565b925082611e6c57611e6b611e1a565b5b828206905092915050565b7f5369676e69747952656c6174696f6e736869703a207369676e20616c726561645f8201527f79206d6172726965640000000000000000000000000000000000000000000000602082015250565b5f611ed16029836119c8565b9150611edc82611e77565b604082019050919050565b5f6020820190508181035f830152611efe81611ec5565b9050919050565b7f5369676e69747952656c6174696f6e736869703a20746172676574207369676e5f8201527f20616c7265616479206d61727269656400000000000000000000000000000000602082015250565b5f611f5f6030836119c8565b9150611f6a82611f05565b604082019050919050565b5f6020820190508181035f830152611f8c81611f53565b9050919050565b7f5369676e69747952656c6174696f6e736869703a206469766f72636520636f6f5f8201527f6c646f776e206163746976650000000000000000000000000000000000000000602082015250565b5f611fed602c836119c8565b9150611ff882611f93565b604082019050919050565b5f6020820190508181035f83015261201a81611fe1565b9050919050565b7f5369676e69747952656c6174696f6e736869703a20746172676574206469766f5f8201527f72636520636f6f6c646f776e2061637469766500000000000000000000000000602082015250565b5f61207b6033836119c8565b915061208682612021565b604082019050919050565b5f6020820190508181035f8301526120a88161206f565b9050919050565b5f819050919050565b6120c96120c4826112fe565b6120af565b82525050565b5f6120da82866120b8565b6020820191506120ea82856120b8565b6020820191506120fa82846120b8565b602082019150819050949350505050565b5f61211682876120b8565b60208201915061212682866120b8565b60208201915061213682856120b8565b60208201915061214682846120b8565b6020820191508190509594505050505056fea26469706673582212204162246c1bbed027860fd2bb8a278645264dabb6f788f0edf1d8dd1e9209b63864736f6c634300081a0033",
					"opcodes": "PUSH1 0xA0 PUSH1 0x40 MSTORE CALLVALUE DUP1 ISZERO PUSH2 0xF JUMPI PUSH0 DUP1 REVERT JUMPDEST POP PUSH1 0x40 MLOAD PUSH2 0x232D CODESIZE SUB DUP1 PUSH2 0x232D DUP4 CODECOPY DUP2 DUP2 ADD PUSH1 0x40 MSTORE DUP2 ADD SWAP1 PUSH2 0x31 SWAP2 SWAP1 PUSH2 0x149 JUMP JUMPDEST CALLER PUSH20 0xFFFFFFFFFFFFFFFFFFFFFFFFFFFFFFFFFFFFFFFF AND PUSH1 0x80 DUP2 PUSH20 0xFFFFFFFFFFFFFFFFFFFFFFFFFFFFFFFFFFFFFFFF AND DUP2 MSTORE POP POP DUP2 PUSH0 DUP1 PUSH2 0x100 EXP DUP2 SLOAD DUP2 PUSH20 0xFFFFFFFFFFFFFFFFFFFFFFFFFFFFFFFFFFFFFFFF MUL NOT AND SWAP1 DUP4 PUSH20 0xFFFFFFFFFFFFFFFFFFFFFFFFFFFFFFFFFFFFFFFF AND MUL OR SWAP1 SSTORE POP DUP1 PUSH1 0x1 PUSH0 PUSH2 0x100 EXP DUP2 SLOAD DUP2 PUSH20 0xFFFFFFFFFFFFFFFFFFFFFFFFFFFFFFFFFFFFFFFF MUL NOT AND SWAP1 DUP4 PUSH20 0xFFFFFFFFFFFFFFFFFFFFFFFFFFFFFFFFFFFFFFFF AND MUL OR SWAP1 SSTORE POP POP POP PUSH2 0x187 JUMP JUMPDEST PUSH0 DUP1 REVERT JUMPDEST PUSH0 PUSH20 0xFFFFFFFFFFFFFFFFFFFFFFFFFFFFFFFFFFFFFFFF DUP3 AND SWAP1 POP SWAP2 SWAP1 POP JUMP JUMPDEST PUSH0 PUSH2 0x118 DUP3 PUSH2 0xEF JUMP JUMPDEST SWAP1 POP SWAP2 SWAP1 POP JUMP JUMPDEST PUSH2 0x128 DUP2 PUSH2 0x10E JUMP JUMPDEST DUP2 EQ PUSH2 0x132 JUMPI PUSH0 DUP1 REVERT JUMPDEST POP JUMP JUMPDEST PUSH0 DUP2 MLOAD SWAP1 POP PUSH2 0x143 DUP2 PUSH2 0x11F JUMP JUMPDEST SWAP3 SWAP2 POP POP JUMP JUMPDEST PUSH0 DUP1 PUSH1 0x40 DUP4 DUP6 SUB SLT ISZERO PUSH2 0x15F JUMPI PUSH2 0x15E PUSH2 0xEB JUMP JUMPDEST JUMPDEST PUSH0 PUSH2 0x16C DUP6 DUP3 DUP7 ADD PUSH2 0x135 JUMP JUMPDEST SWAP3 POP POP PUSH1 0x20 PUSH2 0x17D DUP6 DUP3 DUP7 ADD PUSH2 0x135 JUMP JUMPDEST SWAP2 POP POP SWAP3 POP SWAP3 SWAP1 POP JUMP JUMPDEST PUSH1 0x80 MLOAD PUSH2 0x218E PUSH2 0x19F PUSH0 CODECOPY PUSH0 PUSH2 0xADB ADD MSTORE PUSH2 0x218E PUSH0 RETURN INVALID PUSH1 0x80 PUSH1 0x40 MSTORE CALLVALUE DUP1 ISZERO PUSH2 0xF JUMPI PUSH0 DUP1 REVERT JUMPDEST POP PUSH1 0x4 CALLDATASIZE LT PUSH2 0x12A JUMPI PUSH0 CALLDATALOAD PUSH1 0xE0 SHR DUP1 PUSH4 0xB30192BA GT PUSH2 0xAB JUMPI DUP1 PUSH4 0xC222FF49 GT PUSH2 0x6F JUMPI DUP1 PUSH4 0xC222FF49 EQ PUSH2 0x392 JUMPI DUP1 PUSH4 0xC2887CDC EQ PUSH2 0x3B0 JUMPI DUP1 PUSH4 0xDB1DB2E1 EQ PUSH2 0x3E0 JUMPI DUP1 PUSH4 0xE29F5A07 EQ PUSH2 0x3FC JUMPI DUP1 PUSH4 0xF88BEDF9 EQ PUSH2 0x41A JUMPI PUSH2 0x12A JUMP JUMPDEST DUP1 PUSH4 0xB30192BA EQ PUSH2 0x2B6 JUMPI DUP1 PUSH4 0xB3841A91 EQ PUSH2 0x2E6 JUMPI DUP1 PUSH4 0xB49A5BB2 EQ PUSH2 0x316 JUMPI DUP1 PUSH4 0xB56C8A0C EQ PUSH2 0x332 JUMPI DUP1 PUSH4 0xBDAD7FA6 EQ PUSH2 0x362 JUMPI PUSH2 0x12A JUMP JUMPDEST DUP1 PUSH4 0x7002CE42 GT PUSH2 0xF2 JUMPI DUP1 PUSH4 0x7002CE42 EQ PUSH2 0x1FB JUMPI DUP1 PUSH4 0x7DFE7B73 EQ PUSH2 0x22E JUMPI DUP1 PUSH4 0x874EAA02 EQ PUSH2 0x25E JUMPI DUP1 PUSH4 0x8DA5CB5B EQ PUSH2 0x27A JUMPI DUP1 PUSH4 0xA196D01D EQ PUSH2 0x298 JUMPI PUSH2 0x12A JUMP JUMPDEST DUP1 PUSH4 0x80BFBAE EQ PUSH2 0x12E JUMPI DUP1 PUSH4 0x1204C58F EQ PUSH2 0x14C JUMPI DUP1 PUSH4 0x573662C1 EQ PUSH2 0x17C JUMPI DUP1 PUSH4 0x5CF3F355 EQ PUSH2 0x1AF JUMPI DUP1 PUSH4 0x6ABF8DB8 EQ PUSH2 0x1CB JUMPI JUMPDEST PUSH0 DUP1 REVERT JUMPDEST PUSH2 0x136 PUSH2 0x438 JUMP JUMPDEST PUSH1 0x40 MLOAD PUSH2 0x143 SWAP2 SWAP1 PUSH2 0x1316 JUMP JUMPDEST PUSH1 0x40 MLOAD DUP1 SWAP2 SUB SWAP1 RETURN JUMPDEST PUSH2 0x166 PUSH1 0x4 DUP1 CALLDATASIZE SUB DUP2 ADD SWAP1 PUSH2 0x161 SWAP2 SWAP1 PUSH2 0x136A JUMP JUMPDEST PUSH2 0x43F JUMP JUMPDEST PUSH1 0x40 MLOAD PUSH2 0x173 SWAP2 SWAP1 PUSH2 0x1316 JUMP JUMPDEST PUSH1 0x40 MLOAD DUP1 SWAP2 SUB SWAP1 RETURN JUMPDEST PUSH2 0x196 PUSH1 0x4 DUP1 CALLDATASIZE SUB DUP2 ADD SWAP1 PUSH2 0x191 SWAP2 SWAP1 PUSH2 0x136A JUMP JUMPDEST PUSH2 0x454 JUMP JUMPDEST PUSH1 0x40 MLOAD PUSH2 0x1A6 SWAP5 SWAP4 SWAP3 SWAP2 SWAP1 PUSH2 0x13AF JUMP JUMPDEST PUSH1 0x40 MLOAD DUP1 SWAP2 SUB SWAP1 RETURN JUMPDEST PUSH2 0x1C9 PUSH1 0x4 DUP1 CALLDATASIZE SUB DUP2 ADD SWAP1 PUSH2 0x1C4 SWAP2 SWAP1 PUSH2 0x13F2 JUMP JUMPDEST PUSH2 0x48C JUMP JUMPDEST STOP JUMPDEST PUSH2 0x1E5 PUSH1 0x4 DUP1 CALLDATASIZE SUB DUP2 ADD SWAP1 PUSH2 0x1E0 SWAP2 SWAP1 PUSH2 0x136A JUMP JUMPDEST PUSH2 0x787 JUMP JUMPDEST PUSH1 0x40 MLOAD PUSH2 0x1F2 SWAP2 SWAP1 PUSH2 0x1430 JUMP JUMPDEST PUSH1 0x40 MLOAD DUP1 SWAP2 SUB SWAP1 RETURN JUMPDEST PUSH2 0x215 PUSH1 0x4 DUP1 CALLDATASIZE SUB DUP2 ADD SWAP1 PUSH2 0x210 SWAP2 SWAP1 PUSH2 0x136A JUMP JUMPDEST PUSH2 0x7A4 JUMP JUMPDEST PUSH1 0x40 MLOAD PUSH2 0x225 SWAP5 SWAP4 SWAP3 SWAP2 SWAP1 PUSH2 0x13AF JUMP JUMPDEST PUSH1 0x40 MLOAD DUP1 SWAP2 SUB SWAP1 RETURN JUMPDEST PUSH2 0x248 PUSH1 0x4 DUP1 CALLDATASIZE SUB DUP2 ADD SWAP1 PUSH2 0x243 SWAP2 SWAP1 PUSH2 0x136A JUMP JUMPDEST PUSH2 0x7DC JUMP JUMPDEST PUSH1 0x40 MLOAD PUSH2 0x255 SWAP2 SWAP1 PUSH2 0x1316 JUMP JUMPDEST PUSH1 0x40 MLOAD DUP1 SWAP2 SUB SWAP1 RETURN JUMPDEST PUSH2 0x278 PUSH1 0x4 DUP1 CALLDATASIZE SUB DUP2 ADD SWAP1 PUSH2 0x273 SWAP2 SWAP1 PUSH2 0x136A JUMP JUMPDEST PUSH2 0x7F1 JUMP JUMPDEST STOP JUMPDEST PUSH2 0x282 PUSH2 0xAD9 JUMP JUMPDEST PUSH1 0x40 MLOAD PUSH2 0x28F SWAP2 SWAP1 PUSH2 0x1488 JUMP JUMPDEST PUSH1 0x40 MLOAD DUP1 SWAP2 SUB SWAP1 RETURN JUMPDEST PUSH2 0x2A0 PUSH2 0xAFD JUMP JUMPDEST PUSH1 0x40 MLOAD PUSH2 0x2AD SWAP2 SWAP1 PUSH2 0x14FC JUMP JUMPDEST PUSH1 0x40 MLOAD DUP1 SWAP2 SUB SWAP1 RETURN JUMPDEST PUSH2 0x2D0 PUSH1 0x4 DUP1 CALLDATASIZE SUB DUP2 ADD SWAP1 PUSH2 0x2CB SWAP2 SWAP1 PUSH2 0x136A JUMP JUMPDEST PUSH2 0xB22 JUMP JUMPDEST PUSH1 0x40 MLOAD PUSH2 0x2DD SWAP2 SWAP1 PUSH2 0x164E JUMP JUMPDEST PUSH1 0x40 MLOAD DUP1 SWAP2 SUB SWAP1 RETURN JUMPDEST PUSH2 0x300 PUSH1 0x4 DUP1 CALLDATASIZE SUB DUP2 ADD SWAP1 PUSH2 0x2FB SWAP2 SWAP1 PUSH2 0x136A JUMP JUMPDEST PUSH2 0xBDA JUMP JUMPDEST PUSH1 0x40 MLOAD PUSH2 0x30D SWAP2 SWAP1 PUSH2 0x1316 JUMP JUMPDEST PUSH1 0x40 MLOAD DUP1 SWAP2 SUB SWAP1 RETURN JUMPDEST PUSH2 0x330 PUSH1 0x4 DUP1 CALLDATASIZE SUB DUP2 ADD SWAP1 PUSH2 0x32B SWAP2 SWAP1 PUSH2 0x136A JUMP JUMPDEST PUSH2 0xBEF JUMP JUMPDEST STOP JUMPDEST PUSH2 0x34C PUSH1 0x4 DUP1 CALLDATASIZE SUB DUP2 ADD SWAP1 PUSH2 0x347 SWAP2 SWAP1 PUSH2 0x136A JUMP JUMPDEST PUSH2 0xE2A JUMP JUMPDEST PUSH1 0x40 MLOAD PUSH2 0x359 SWAP2 SWAP1 PUSH2 0x1316 JUMP JUMPDEST PUSH1 0x40 MLOAD DUP1 SWAP2 SUB SWAP1 RETURN JUMPDEST PUSH2 0x37C PUSH1 0x4 DUP1 CALLDATASIZE SUB DUP2 ADD SWAP1 PUSH2 0x377 SWAP2 SWAP1 PUSH2 0x136A JUMP JUMPDEST PUSH2 0xE3F JUMP JUMPDEST PUSH1 0x40 MLOAD PUSH2 0x389 SWAP2 SWAP1 PUSH2 0x16C1 JUMP JUMPDEST PUSH1 0x40 MLOAD DUP1 SWAP2 SUB SWAP1 RETURN JUMPDEST PUSH2 0x39A PUSH2 0xEA1 JUMP JUMPDEST PUSH1 0x40 MLOAD PUSH2 0x3A7 SWAP2 SWAP1 PUSH2 0x1316 JUMP JUMPDEST PUSH1 0x40 MLOAD DUP1 SWAP2 SUB SWAP1 RETURN JUMPDEST PUSH2 0x3CA PUSH1 0x4 DUP1 CALLDATASIZE SUB DUP2 ADD SWAP1 PUSH2 0x3C5 SWAP2 SWAP1 PUSH2 0x136A JUMP JUMPDEST PUSH2 0xEA6 JUMP JUMPDEST PUSH1 0x40 MLOAD PUSH2 0x3D7 SWAP2 SWAP1 PUSH2 0x1316 JUMP JUMPDEST PUSH1 0x40 MLOAD DUP1 SWAP2 SUB SWAP1 RETURN JUMPDEST PUSH2 0x3FA PUSH1 0x4 DUP1 CALLDATASIZE SUB DUP2 ADD SWAP1 PUSH2 0x3F5 SWAP2 SWAP1 PUSH2 0x13F2 JUMP JUMPDEST PUSH2 0xEBB JUMP JUMPDEST STOP JUMPDEST PUSH2 0x404 PUSH2 0x1194 JUMP JUMPDEST PUSH1 0x40 MLOAD PUSH2 0x411 SWAP2 SWAP1 PUSH2 0x16FA JUMP JUMPDEST PUSH1 0x40 MLOAD DUP1 SWAP2 SUB SWAP1 RETURN JUMPDEST PUSH2 0x422 PUSH2 0x11B7 JUMP JUMPDEST PUSH1 0x40 MLOAD PUSH2 0x42F SWAP2 SWAP1 PUSH2 0x1316 JUMP JUMPDEST PUSH1 0x40 MLOAD DUP1 SWAP2 SUB SWAP1 RETURN JUMPDEST PUSH3 0xED4E00 DUP2 JUMP JUMPDEST PUSH1 0x5 PUSH1 0x20 MSTORE DUP1 PUSH0 MSTORE PUSH1 0x40 PUSH0 KECCAK256 PUSH0 SWAP2 POP SWAP1 POP SLOAD DUP2 JUMP JUMPDEST PUSH1 0x2 PUSH1 0x20 MSTORE DUP1 PUSH0 MSTORE PUSH1 0x40 PUSH0 KECCAK256 PUSH0 SWAP2 POP SWAP1 POP DUP1 PUSH0 ADD SLOAD SWAP1 DUP1 PUSH1 0x1 ADD SLOAD SWAP1 DUP1 PUSH1 0x2 ADD SLOAD SWAP1 DUP1 PUSH1 0x3 ADD PUSH0 SWAP1 SLOAD SWAP1 PUSH2 0x100 EXP SWAP1 DIV PUSH1 0xFF AND SWAP1 POP DUP5 JUMP JUMPDEST DUP2 PUSH0 PUSH1 0x1 PUSH0 SWAP1 SLOAD SWAP1 PUSH2 0x100 EXP SWAP1 DIV PUSH20 0xFFFFFFFFFFFFFFFFFFFFFFFFFFFFFFFFFFFFFFFF AND PUSH20 0xFFFFFFFFFFFFFFFFFFFFFFFFFFFFFFFFFFFFFFFF AND PUSH4 0x4EB5FDCF DUP4 PUSH1 0x40 MLOAD DUP3 PUSH4 0xFFFFFFFF AND PUSH1 0xE0 SHL DUP2 MSTORE PUSH1 0x4 ADD PUSH2 0x4E8 SWAP2 SWAP1 PUSH2 0x1316 JUMP JUMPDEST PUSH0 PUSH1 0x40 MLOAD DUP1 DUP4 SUB DUP2 DUP7 GAS STATICCALL ISZERO DUP1 ISZERO PUSH2 0x502 JUMPI RETURNDATASIZE PUSH0 DUP1 RETURNDATACOPY RETURNDATASIZE PUSH0 REVERT JUMPDEST POP POP POP POP PUSH1 0x40 MLOAD RETURNDATASIZE PUSH0 DUP3 RETURNDATACOPY RETURNDATASIZE PUSH1 0x1F NOT PUSH1 0x1F DUP3 ADD AND DUP3 ADD DUP1 PUSH1 0x40 MSTORE POP DUP2 ADD SWAP1 PUSH2 0x52A SWAP2 SWAP1 PUSH2 0x18B7 JUMP JUMPDEST POP POP POP POP POP POP POP POP SWAP2 POP POP CALLER PUSH20 0xFFFFFFFFFFFFFFFFFFFFFFFFFFFFFFFFFFFFFFFF AND DUP2 PUSH20 0xFFFFFFFFFFFFFFFFFFFFFFFFFFFFFFFFFFFFFFFF AND EQ PUSH2 0x5A3 JUMPI PUSH1 0x40 MLOAD PUSH32 0x8C379A000000000000000000000000000000000000000000000000000000000 DUP2 MSTORE PUSH1 0x4 ADD PUSH2 0x59A SWAP1 PUSH2 0x1A48 JUMP JUMPDEST PUSH1 0x40 MLOAD DUP1 SWAP2 SUB SWAP1 REVERT JUMPDEST DUP4 PUSH1 0x7 PUSH0 DUP6 DUP2 MSTORE PUSH1 0x20 ADD SWAP1 DUP2 MSTORE PUSH1 0x20 ADD PUSH0 KECCAK256 SLOAD EQ PUSH2 0x5F6 JUMPI PUSH1 0x40 MLOAD PUSH32 0x8C379A000000000000000000000000000000000000000000000000000000000 DUP2 MSTORE PUSH1 0x4 ADD PUSH2 0x5ED SWAP1 PUSH2 0x1AD6 JUMP JUMPDEST PUSH1 0x40 MLOAD DUP1 SWAP2 SUB SWAP1 REVERT JUMPDEST PUSH1 0x8 PUSH0 DUP5 DUP2 MSTORE PUSH1 0x20 ADD SWAP1 DUP2 MSTORE PUSH1 0x20 ADD PUSH0 KECCAK256 SLOAD TIMESTAMP GT ISZERO PUSH2 0x64A JUMPI PUSH1 0x40 MLOAD PUSH32 0x8C379A000000000000000000000000000000000000000000000000000000000 DUP2 MSTORE PUSH1 0x4 ADD PUSH2 0x641 SWAP1 PUSH2 0x1B64 JUMP JUMPDEST PUSH1 0x40 MLOAD DUP1 SWAP2 SUB SWAP1 REVERT JUMPDEST PUSH2 0x653 DUP4 PUSH2 0x787 JUMP JUMPDEST ISZERO DUP1 ISZERO PUSH2 0x666 JUMPI POP PUSH2 0x664 DUP5 PUSH2 0x787 JUMP JUMPDEST ISZERO JUMPDEST PUSH2 0x6A5 JUMPI PUSH1 0x40 MLOAD PUSH32 0x8C379A000000000000000000000000000000000000000000000000000000000 DUP2 MSTORE PUSH1 0x4 ADD PUSH2 0x69C SWAP1 PUSH2 0x1BF2 JUMP JUMPDEST PUSH1 0x40 MLOAD DUP1 SWAP2 SUB SWAP1 REVERT JUMPDEST PUSH0 PUSH1 0x2 PUSH0 DUP6 DUP2 MSTORE PUSH1 0x20 ADD SWAP1 DUP2 MSTORE PUSH1 0x20 ADD PUSH0 KECCAK256 SWAP1 POP DUP4 DUP2 PUSH0 ADD DUP2 SWAP1 SSTORE POP DUP5 DUP2 PUSH1 0x1 ADD DUP2 SWAP1 SSTORE POP TIMESTAMP DUP2 PUSH1 0x2 ADD DUP2 SWAP1 SSTORE POP PUSH1 0x1 DUP2 PUSH1 0x3 ADD PUSH0 PUSH2 0x100 EXP DUP2 SLOAD DUP2 PUSH1 0xFF MUL NOT AND SWAP1 DUP4 ISZERO ISZERO MUL OR SWAP1 SSTORE POP DUP5 PUSH1 0x3 PUSH0 DUP7 DUP2 MSTORE PUSH1 0x20 ADD SWAP1 DUP2 MSTORE PUSH1 0x20 ADD PUSH0 KECCAK256 DUP2 SWAP1 SSTORE POP DUP4 PUSH1 0x3 PUSH0 DUP8 DUP2 MSTORE PUSH1 0x20 ADD SWAP1 DUP2 MSTORE PUSH1 0x20 ADD PUSH0 KECCAK256 DUP2 SWAP1 SSTORE POP PUSH0 PUSH1 0x7 PUSH0 DUP7 DUP2 MSTORE PUSH1 0x20 ADD SWAP1 DUP2 MSTORE PUSH1 0x20 ADD PUSH0 KECCAK256 DUP2 SWAP1 SSTORE POP PUSH0 PUSH1 0x8 PUSH0 DUP7 DUP2 MSTORE PUSH1 0x20 ADD SWAP1 DUP2 MSTORE PUSH1 0x20 ADD PUSH0 KECCAK256 DUP2 SWAP1 SSTORE POP DUP5 DUP5 PUSH32 0x6C03A5A900F7813306FDF354815EAECE8020BE09C42A4F0EEFDDEB7B5F38AC12 TIMESTAMP PUSH1 0x40 MLOAD PUSH2 0x778 SWAP2 SWAP1 PUSH2 0x1316 JUMP JUMPDEST PUSH1 0x40 MLOAD DUP1 SWAP2 SUB SWAP1 LOG3 POP POP POP POP POP JUMP JUMPDEST PUSH0 DUP1 PUSH1 0x3 PUSH0 DUP5 DUP2 MSTORE PUSH1 0x20 ADD SWAP1 DUP2 MSTORE PUSH1 0x20 ADD PUSH0 KECCAK256 SLOAD EQ ISZERO SWAP1 POP SWAP2 SWAP1 POP JUMP JUMPDEST PUSH1 0x4 PUSH1 0x20 MSTORE DUP1 PUSH0 MSTORE PUSH1 0x40 PUSH0 KECCAK256 PUSH0 SWAP2 POP SWAP1 POP DUP1 PUSH0 ADD SLOAD SWAP1 DUP1 PUSH1 0x1 ADD SLOAD SWAP1 DUP1 PUSH1 0x2 ADD SLOAD SWAP1 DUP1 PUSH1 0x3 ADD PUSH0 SWAP1 SLOAD SWAP1 PUSH2 0x100 EXP SWAP1 DIV PUSH1 0xFF AND SWAP1 POP DUP5 JUMP JUMPDEST PUSH1 0x8 PUSH1 0x20 MSTORE DUP1 PUSH0 MSTORE PUSH1 0x40 PUSH0 KECCAK256 PUSH0 SWAP2 POP SWAP1 POP SLOAD DUP2 JUMP JUMPDEST DUP1 PUSH0 PUSH1 0x1 PUSH0 SWAP1 SLOAD SWAP1 PUSH2 0x100 EXP SWAP1 DIV PUSH20 0xFFFFFFFFFFFFFFFFFFFFFFFFFFFFFFFFFFFFFFFF AND PUSH20 0xFFFFFFFFFFFFFFFFFFFFFFFFFFFFFFFFFFFFFFFF AND PUSH4 0x4EB5FDCF DUP4 PUSH1 0x40 MLOAD DUP3 PUSH4 0xFFFFFFFF AND PUSH1 0xE0 SHL DUP2 MSTORE PUSH1 0x4 ADD PUSH2 0x84D SWAP2 SWAP1 PUSH2 0x1316 JUMP JUMPDEST PUSH0 PUSH1 0x40 MLOAD DUP1 DUP4 SUB DUP2 DUP7 GAS STATICCALL ISZERO DUP1 ISZERO PUSH2 0x867 JUMPI RETURNDATASIZE PUSH0 DUP1 RETURNDATACOPY RETURNDATASIZE PUSH0 REVERT JUMPDEST POP POP POP POP PUSH1 0x40 MLOAD RETURNDATASIZE PUSH0 DUP3 RETURNDATACOPY RETURNDATASIZE PUSH1 0x1F NOT PUSH1 0x1F DUP3 ADD AND DUP3 ADD DUP1 PUSH1 0x40 MSTORE POP DUP2 ADD SWAP1 PUSH2 0x88F SWAP2 SWAP1 PUSH2 0x18B7 JUMP JUMPDEST POP POP POP POP POP POP POP POP SWAP2 POP POP CALLER PUSH20 0xFFFFFFFFFFFFFFFFFFFFFFFFFFFFFFFFFFFFFFFF AND DUP2 PUSH20 0xFFFFFFFFFFFFFFFFFFFFFFFFFFFFFFFFFFFFFFFF AND EQ PUSH2 0x908 JUMPI PUSH1 0x40 MLOAD PUSH32 0x8C379A000000000000000000000000000000000000000000000000000000000 DUP2 MSTORE PUSH1 0x4 ADD PUSH2 0x8FF SWAP1 PUSH2 0x1A48 JUMP JUMPDEST PUSH1 0x40 MLOAD DUP1 SWAP2 SUB SWAP1 REVERT JUMPDEST PUSH2 0x911 DUP4 PUSH2 0x787 JUMP JUMPDEST PUSH2 0x950 JUMPI PUSH1 0x40 MLOAD PUSH32 0x8C379A000000000000000000000000000000000000000000000000000000000 DUP2 MSTORE PUSH1 0x4 ADD PUSH2 0x947 SWAP1 PUSH2 0x1C80 JUMP JUMPDEST PUSH1 0x40 MLOAD DUP1 SWAP2 SUB SWAP1 REVERT JUMPDEST PUSH0 PUSH1 0x3 PUSH0 DUP6 DUP2 MSTORE PUSH1 0x20 ADD SWAP1 DUP2 MSTORE PUSH1 0x20 ADD PUSH0 KECCAK256 SLOAD SWAP1 POP PUSH0 PUSH1 0x2 PUSH0 DUP7 DUP2 MSTORE PUSH1 0x20 ADD SWAP1 DUP2 MSTORE PUSH1 0x20 ADD PUSH0 KECCAK256 SWAP1 POP PUSH1 0x5 DUP2 PUSH1 0x4 ADD DUP1 SLOAD SWAP1 POP LT PUSH2 0x9C3 JUMPI PUSH1 0x40 MLOAD PUSH32 0x8C379A000000000000000000000000000000000000000000000000000000000 DUP2 MSTORE PUSH1 0x4 ADD PUSH2 0x9BA SWAP1 PUSH2 0x1D0E JUMP JUMPDEST PUSH1 0x40 MLOAD DUP1 SWAP2 SUB SWAP1 REVERT JUMPDEST PUSH3 0xED4E00 PUSH1 0x5 PUSH0 DUP8 DUP2 MSTORE PUSH1 0x20 ADD SWAP1 DUP2 MSTORE PUSH1 0x20 ADD PUSH0 KECCAK256 SLOAD PUSH2 0x9E3 SWAP2 SWAP1 PUSH2 0x1D59 JUMP JUMPDEST TIMESTAMP GT PUSH2 0xA24 JUMPI PUSH1 0x40 MLOAD PUSH32 0x8C379A000000000000000000000000000000000000000000000000000000000 DUP2 MSTORE PUSH1 0x4 ADD PUSH2 0xA1B SWAP1 PUSH2 0x1DFC JUMP JUMPDEST PUSH1 0x40 MLOAD DUP1 SWAP2 SUB SWAP1 REVERT JUMPDEST PUSH1 0x1 PUSH1 0x2 PUSH2 0xA31 TIMESTAMP PUSH2 0x11BE JUMP JUMPDEST PUSH2 0xA3B SWAP2 SWAP1 PUSH2 0x1E47 JUMP JUMPDEST SUB PUSH2 0xAD2 JUMPI PUSH0 PUSH2 0xA4B DUP7 DUP5 PUSH2 0x11F3 JUMP JUMPDEST SWAP1 POP DUP2 PUSH1 0x4 ADD DUP2 SWAP1 DUP1 PUSH1 0x1 DUP2 SLOAD ADD DUP1 DUP3 SSTORE DUP1 SWAP2 POP POP PUSH1 0x1 SWAP1 SUB SWAP1 PUSH0 MSTORE PUSH1 0x20 PUSH0 KECCAK256 ADD PUSH0 SWAP1 SWAP2 SWAP1 SWAP2 SWAP1 SWAP2 POP SSTORE TIMESTAMP PUSH1 0x5 PUSH0 DUP9 DUP2 MSTORE PUSH1 0x20 ADD SWAP1 DUP2 MSTORE PUSH1 0x20 ADD PUSH0 KECCAK256 DUP2 SWAP1 SSTORE POP TIMESTAMP PUSH1 0x5 PUSH0 DUP6 DUP2 MSTORE PUSH1 0x20 ADD SWAP1 DUP2 MSTORE PUSH1 0x20 ADD PUSH0 KECCAK256 DUP2 SWAP1 SSTORE POP DUP1 DUP4 DUP8 PUSH32 0xCC8B031EFF7ADD8D859D619D96932ECC4776663DB05501DA5AB3C52E0063913B PUSH1 0x40 MLOAD PUSH1 0x40 MLOAD DUP1 SWAP2 SUB SWAP1 LOG4 POP JUMPDEST POP POP POP POP POP JUMP JUMPDEST PUSH32 0x0 DUP2 JUMP JUMPDEST PUSH1 0x1 PUSH0 SWAP1 SLOAD SWAP1 PUSH2 0x100 EXP SWAP1 DIV PUSH20 0xFFFFFFFFFFFFFFFFFFFFFFFFFFFFFFFFFFFFFFFF AND DUP2 JUMP JUMPDEST PUSH2 0xB2A PUSH2 0x12AB JUMP JUMPDEST PUSH1 0x2 PUSH0 DUP4 DUP2 MSTORE PUSH1 0x20 ADD SWAP1 DUP2 MSTORE PUSH1 0x20 ADD PUSH0 KECCAK256 PUSH1 0x40 MLOAD DUP1 PUSH1 0xA0 ADD PUSH1 0x40 MSTORE SWAP1 DUP2 PUSH0 DUP3 ADD SLOAD DUP2 MSTORE PUSH1 0x20 ADD PUSH1 0x1 DUP3 ADD SLOAD DUP2 MSTORE PUSH1 0x20 ADD PUSH1 0x2 DUP3 ADD SLOAD DUP2 MSTORE PUSH1 0x20 ADD PUSH1 0x3 DUP3 ADD PUSH0 SWAP1 SLOAD SWAP1 PUSH2 0x100 EXP SWAP1 DIV PUSH1 0xFF AND ISZERO ISZERO ISZERO ISZERO DUP2 MSTORE PUSH1 0x20 ADD PUSH1 0x4 DUP3 ADD DUP1 SLOAD DUP1 PUSH1 0x20 MUL PUSH1 0x20 ADD PUSH1 0x40 MLOAD SWAP1 DUP2 ADD PUSH1 0x40 MSTORE DUP1 SWAP3 SWAP2 SWAP1 DUP2 DUP2 MSTORE PUSH1 0x20 ADD DUP3 DUP1 SLOAD DUP1 ISZERO PUSH2 0xBCA JUMPI PUSH1 0x20 MUL DUP3 ADD SWAP2 SWAP1 PUSH0 MSTORE PUSH1 0x20 PUSH0 KECCAK256 SWAP1 JUMPDEST DUP2 SLOAD DUP2 MSTORE PUSH1 0x20 ADD SWAP1 PUSH1 0x1 ADD SWAP1 DUP1 DUP4 GT PUSH2 0xBB6 JUMPI JUMPDEST POP POP POP POP POP DUP2 MSTORE POP POP SWAP1 POP SWAP2 SWAP1 POP JUMP JUMPDEST PUSH1 0x7 PUSH1 0x20 MSTORE DUP1 PUSH0 MSTORE PUSH1 0x40 PUSH0 KECCAK256 PUSH0 SWAP2 POP SWAP1 POP SLOAD DUP2 JUMP JUMPDEST DUP1 PUSH0 PUSH1 0x1 PUSH0 SWAP1 SLOAD SWAP1 PUSH2 0x100 EXP SWAP1 DIV PUSH20 0xFFFFFFFFFFFFFFFFFFFFFFFFFFFFFFFFFFFFFFFF AND PUSH20 0xFFFFFFFFFFFFFFFFFFFFFFFFFFFFFFFFFFFFFFFF AND PUSH4 0x4EB5FDCF DUP4 PUSH1 0x40 MLOAD DUP3 PUSH4 0xFFFFFFFF AND PUSH1 0xE0 SHL DUP2 MSTORE PUSH1 0x4 ADD PUSH2 0xC4B SWAP2 SWAP1 PUSH2 0x1316 JUMP JUMPDEST PUSH0 PUSH1 0x40 MLOAD DUP1 DUP4 SUB DUP2 DUP7 GAS STATICCALL ISZERO DUP1 ISZERO PUSH2 0xC65 JUMPI RETURNDATASIZE PUSH0 DUP1 RETURNDATACOPY RETURNDATASIZE PUSH0 REVERT JUMPDEST POP POP POP POP PUSH1 0x40 MLOAD RETURNDATASIZE PUSH0 DUP3 RETURNDATACOPY RETURNDATASIZE PUSH1 0x1F NOT PUSH1 0x1F DUP3 ADD AND DUP3 ADD DUP1 PUSH1 0x40 MSTORE POP DUP2 ADD SWAP1 PUSH2 0xC8D SWAP2 SWAP1 PUSH2 0x18B7 JUMP JUMPDEST POP POP POP POP POP POP POP POP SWAP2 POP POP CALLER PUSH20 0xFFFFFFFFFFFFFFFFFFFFFFFFFFFFFFFFFFFFFFFF AND DUP2 PUSH20 0xFFFFFFFFFFFFFFFFFFFFFFFFFFFFFFFFFFFFFFFF AND EQ PUSH2 0xD06 JUMPI PUSH1 0x40 MLOAD PUSH32 0x8C379A000000000000000000000000000000000000000000000000000000000 DUP2 MSTORE PUSH1 0x4 ADD PUSH2 0xCFD SWAP1 PUSH2 0x1A48 JUMP JUMPDEST PUSH1 0x40 MLOAD DUP1 SWAP2 SUB SWAP1 REVERT JUMPDEST PUSH2 0xD0F DUP4 PUSH2 0x787 JUMP JUMPDEST PUSH2 0xD4E JUMPI PUSH1 0x40 MLOAD PUSH32 0x8C379A000000000000000000000000000000000000000000000000000000000 DUP2 MSTORE PUSH1 0x4 ADD PUSH2 0xD45 SWAP1 PUSH2 0x1C80 JUMP JUMPDEST PUSH1 0x40 MLOAD DUP1 SWAP2 SUB SWAP1 REVERT JUMPDEST PUSH0 PUSH1 0x3 PUSH0 DUP6 DUP2 MSTORE PUSH1 0x20 ADD SWAP1 DUP2 MSTORE PUSH1 0x20 ADD PUSH0 KECCAK256 SLOAD SWAP1 POP PUSH0 PUSH1 0x2 PUSH0 DUP7 DUP2 MSTORE PUSH1 0x20 ADD SWAP1 DUP2 MSTORE PUSH1 0x20 ADD PUSH0 KECCAK256 SWAP1 POP PUSH0 DUP2 PUSH1 0x3 ADD PUSH0 PUSH2 0x100 EXP DUP2 SLOAD DUP2 PUSH1 0xFF MUL NOT AND SWAP1 DUP4 ISZERO ISZERO MUL OR SWAP1 SSTORE POP PUSH0 PUSH1 0x3 PUSH0 DUP8 DUP2 MSTORE PUSH1 0x20 ADD SWAP1 DUP2 MSTORE PUSH1 0x20 ADD PUSH0 KECCAK256 DUP2 SWAP1 SSTORE POP PUSH0 PUSH1 0x3 PUSH0 DUP5 DUP2 MSTORE PUSH1 0x20 ADD SWAP1 DUP2 MSTORE PUSH1 0x20 ADD PUSH0 KECCAK256 DUP2 SWAP1 SSTORE POP TIMESTAMP PUSH1 0x6 PUSH0 DUP8 DUP2 MSTORE PUSH1 0x20 ADD SWAP1 DUP2 MSTORE PUSH1 0x20 ADD PUSH0 KECCAK256 DUP2 SWAP1 SSTORE POP TIMESTAMP PUSH1 0x6 PUSH0 DUP5 DUP2 MSTORE PUSH1 0x20 ADD SWAP1 DUP2 MSTORE PUSH1 0x20 ADD PUSH0 KECCAK256 DUP2 SWAP1 SSTORE POP DUP2 DUP6 PUSH32 0x8C5DE88B98DE9839F8BD91FCFF59E133CE788F392C0E464516CD3052CD8A9EE1 TIMESTAMP PUSH1 0x40 MLOAD PUSH2 0xE1B SWAP2 SWAP1 PUSH2 0x1316 JUMP JUMPDEST PUSH1 0x40 MLOAD DUP1 SWAP2 SUB SWAP1 LOG3 POP POP POP POP POP JUMP JUMPDEST PUSH1 0x3 PUSH1 0x20 MSTORE DUP1 PUSH0 MSTORE PUSH1 0x40 PUSH0 KECCAK256 PUSH0 SWAP2 POP SWAP1 POP SLOAD DUP2 JUMP JUMPDEST PUSH2 0xE47 PUSH2 0x12D8 JUMP JUMPDEST PUSH1 0x4 PUSH0 DUP4 DUP2 MSTORE PUSH1 0x20 ADD SWAP1 DUP2 MSTORE PUSH1 0x20 ADD PUSH0 KECCAK256 PUSH1 0x40 MLOAD DUP1 PUSH1 0x80 ADD PUSH1 0x40 MSTORE SWAP1 DUP2 PUSH0 DUP3 ADD SLOAD DUP2 MSTORE PUSH1 0x20 ADD PUSH1 0x1 DUP3 ADD SLOAD DUP2 MSTORE PUSH1 0x20 ADD PUSH1 0x2 DUP3 ADD SLOAD DUP2 MSTORE PUSH1 0x20 ADD PUSH1 0x3 DUP3 ADD PUSH0 SWAP1 SLOAD SWAP1 PUSH2 0x100 EXP SWAP1 DIV PUSH1 0xFF AND ISZERO ISZERO ISZERO ISZERO DUP2 MSTORE POP POP SWAP1 POP SWAP2 SWAP1 POP JUMP JUMPDEST PUSH1 0x5 DUP2 JUMP JUMPDEST PUSH1 0x6 PUSH1 0x20 MSTORE DUP1 PUSH0 MSTORE PUSH1 0x40 PUSH0 KECCAK256 PUSH0 SWAP2 POP SWAP1 POP SLOAD DUP2 JUMP JUMPDEST DUP2 PUSH0 PUSH1 0x1 PUSH0 SWAP1 SLOAD SWAP1 PUSH2 0x100 EXP SWAP1 DIV PUSH20 0xFFFFFFFFFFFFFFFFFFFFFFFFFFFFFFFFFFFFFFFF AND PUSH20 0xFFFFFFFFFFFFFFFFFFFFFFFFFFFFFFFFFFFFFFFF AND PUSH4 0x4EB5FDCF DUP4 PUSH1 0x40 MLOAD DUP3 PUSH4 0xFFFFFFFF AND PUSH1 0xE0 SHL DUP2 MSTORE PUSH1 0x4 ADD PUSH2 0xF17 SWAP2 SWAP1 PUSH2 0x1316 JUMP JUMPDEST PUSH0 PUSH1 0x40 MLOAD DUP1 DUP4 SUB DUP2 DUP7 GAS STATICCALL ISZERO DUP1 ISZERO PUSH2 0xF31 JUMPI RETURNDATASIZE PUSH0 DUP1 RETURNDATACOPY RETURNDATASIZE PUSH0 REVERT JUMPDEST POP POP POP POP PUSH1 0x40 MLOAD RETURNDATASIZE PUSH0 DUP3 RETURNDATACOPY RETURNDATASIZE PUSH1 0x1F NOT PUSH1 0x1F DUP3 ADD AND DUP3 ADD DUP1 PUSH1 0x40 MSTORE POP DUP2 ADD SWAP1 PUSH2 0xF59 SWAP2 SWAP1 PUSH2 0x18B7 JUMP JUMPDEST POP POP POP POP POP POP POP POP SWAP2 POP POP CALLER PUSH20 0xFFFFFFFFFFFFFFFFFFFFFFFFFFFFFFFFFFFFFFFF AND DUP2 PUSH20 0xFFFFFFFFFFFFFFFFFFFFFFFFFFFFFFFFFFFFFFFF AND EQ PUSH2 0xFD2 JUMPI PUSH1 0x40 MLOAD PUSH32 0x8C379A000000000000000000000000000000000000000000000000000000000 DUP2 MSTORE PUSH1 0x4 ADD PUSH2 0xFC9 SWAP1 PUSH2 0x1A48 JUMP JUMPDEST PUSH1 0x40 MLOAD DUP1 SWAP2 SUB SWAP1 REVERT JUMPDEST PUSH2 0xFDB DUP5 PUSH2 0x787 JUMP JUMPDEST ISZERO PUSH2 0x101B JUMPI PUSH1 0x40 MLOAD PUSH32 0x8C379A000000000000000000000000000000000000000000000000000000000 DUP2 MSTORE PUSH1 0x4 ADD PUSH2 0x1012 SWAP1 PUSH2 0x1EE7 JUMP JUMPDEST PUSH1 0x40 MLOAD DUP1 SWAP2 SUB SWAP1 REVERT JUMPDEST PUSH2 0x1024 DUP4 PUSH2 0x787 JUMP JUMPDEST ISZERO PUSH2 0x1064 JUMPI PUSH1 0x40 MLOAD PUSH32 0x8C379A000000000000000000000000000000000000000000000000000000000 DUP2 MSTORE PUSH1 0x4 ADD PUSH2 0x105B SWAP1 PUSH2 0x1F75 JUMP JUMPDEST PUSH1 0x40 MLOAD DUP1 SWAP2 SUB SWAP1 REVERT JUMPDEST PUSH3 0x76A700 PUSH1 0x6 PUSH0 DUP7 DUP2 MSTORE PUSH1 0x20 ADD SWAP1 DUP2 MSTORE PUSH1 0x20 ADD PUSH0 KECCAK256 SLOAD PUSH2 0x1084 SWAP2 SWAP1 PUSH2 0x1D59 JUMP JUMPDEST TIMESTAMP GT PUSH2 0x10C5 JUMPI PUSH1 0x40 MLOAD PUSH32 0x8C379A000000000000000000000000000000000000000000000000000000000 DUP2 MSTORE PUSH1 0x4 ADD PUSH2 0x10BC SWAP1 PUSH2 0x2003 JUMP JUMPDEST PUSH1 0x40 MLOAD DUP1 SWAP2 SUB SWAP1 REVERT JUMPDEST PUSH3 0x76A700 PUSH1 0x6 PUSH0 DUP6 DUP2 MSTORE PUSH1 0x20 ADD SWAP1 DUP2 MSTORE PUSH1 0x20 ADD PUSH0 KECCAK256 SLOAD PUSH2 0x10E5 SWAP2 SWAP1 PUSH2 0x1D59 JUMP JUMPDEST TIMESTAMP GT PUSH2 0x1126 JUMPI PUSH1 0x40 MLOAD PUSH32 0x8C379A000000000000000000000000000000000000000000000000000000000 DUP2 MSTORE PUSH1 0x4 ADD PUSH2 0x111D SWAP1 PUSH2 0x2091 JUMP JUMPDEST PUSH1 0x40 MLOAD DUP1 SWAP2 SUB SWAP1 REVERT JUMPDEST DUP3 PUSH1 0x7 PUSH0 DUP7 DUP2 MSTORE PUSH1 0x20 ADD SWAP1 DUP2 MSTORE PUSH1 0x20 ADD PUSH0 KECCAK256 DUP2 SWAP1 SSTORE POP PUSH3 0x93A80 TIMESTAMP PUSH2 0x114B SWAP2 SWAP1 PUSH2 0x1D59 JUMP JUMPDEST PUSH1 0x8 PUSH0 DUP7 DUP2 MSTORE PUSH1 0x20 ADD SWAP1 DUP2 MSTORE PUSH1 0x20 ADD PUSH0 KECCAK256 DUP2 SWAP1 SSTORE POP DUP3 DUP5 PUSH32 0xD39EB4E990A8F071A7FB2B997DAAAA0C2C57CE49895E2761BDBA2BAB91E7D0FE PUSH1 0x40 MLOAD PUSH1 0x40 MLOAD DUP1 SWAP2 SUB SWAP1 LOG3 POP POP POP POP JUMP JUMPDEST PUSH0 DUP1 SLOAD SWAP1 PUSH2 0x100 EXP SWAP1 DIV PUSH20 0xFFFFFFFFFFFFFFFFFFFFFFFFFFFFFFFFFFFFFFFF AND DUP2 JUMP JUMPDEST PUSH3 0x76A700 DUP2 JUMP JUMPDEST PUSH0 TIMESTAMP PREVRANDAO DUP4 PUSH1 0x40 MLOAD PUSH1 0x20 ADD PUSH2 0x11D4 SWAP4 SWAP3 SWAP2 SWAP1 PUSH2 0x20CF JUMP JUMPDEST PUSH1 0x40 MLOAD PUSH1 0x20 DUP2 DUP4 SUB SUB DUP2 MSTORE SWAP1 PUSH1 0x40 MSTORE DUP1 MLOAD SWAP1 PUSH1 0x20 ADD KECCAK256 PUSH0 SHR SWAP1 POP SWAP2 SWAP1 POP JUMP JUMPDEST PUSH0 DUP1 DUP4 DUP4 TIMESTAMP PUSH2 0x1201 TIMESTAMP PUSH2 0x11BE JUMP JUMPDEST PUSH1 0x40 MLOAD PUSH1 0x20 ADD PUSH2 0x1214 SWAP5 SWAP4 SWAP3 SWAP2 SWAP1 PUSH2 0x210B JUMP JUMPDEST PUSH1 0x40 MLOAD PUSH1 0x20 DUP2 DUP4 SUB SUB DUP2 MSTORE SWAP1 PUSH1 0x40 MSTORE DUP1 MLOAD SWAP1 PUSH1 0x20 ADD KECCAK256 PUSH0 SHR SWAP1 POP PUSH1 0x40 MLOAD DUP1 PUSH1 0x80 ADD PUSH1 0x40 MSTORE DUP1 DUP6 DUP2 MSTORE PUSH1 0x20 ADD DUP5 DUP2 MSTORE PUSH1 0x20 ADD TIMESTAMP DUP2 MSTORE PUSH1 0x20 ADD PUSH1 0x1 ISZERO ISZERO DUP2 MSTORE POP PUSH1 0x4 PUSH0 DUP4 DUP2 MSTORE PUSH1 0x20 ADD SWAP1 DUP2 MSTORE PUSH1 0x20 ADD PUSH0 KECCAK256 PUSH0 DUP3 ADD MLOAD DUP2 PUSH0 ADD SSTORE PUSH1 0x20 DUP3 ADD MLOAD DUP2 PUSH1 0x1 ADD SSTORE PUSH1 0x40 DUP3 ADD MLOAD DUP2 PUSH1 0x2 ADD SSTORE PUSH1 0x60 DUP3 ADD MLOAD DUP2 PUSH1 0x3 ADD PUSH0 PUSH2 0x100 EXP DUP2 SLOAD DUP2 PUSH1 0xFF MUL NOT AND SWAP1 DUP4 ISZERO ISZERO MUL OR SWAP1 SSTORE POP SWAP1 POP POP DUP1 SWAP2 POP POP SWAP3 SWAP2 POP POP JUMP JUMPDEST PUSH1 0x40 MLOAD DUP1 PUSH1 0xA0 ADD PUSH1 0x40 MSTORE DUP1 PUSH0 DUP2 MSTORE PUSH1 0x20 ADD PUSH0 DUP2 MSTORE PUSH1 0x20 ADD PUSH0 DUP2 MSTORE PUSH1 0x20 ADD PUSH0 ISZERO ISZERO DUP2 MSTORE PUSH1 0x20 ADD PUSH1 0x60 DUP2 MSTORE POP SWAP1 JUMP JUMPDEST PUSH1 0x40 MLOAD DUP1 PUSH1 0x80 ADD PUSH1 0x40 MSTORE DUP1 PUSH0 DUP2 MSTORE PUSH1 0x20 ADD PUSH0 DUP2 MSTORE PUSH1 0x20 ADD PUSH0 DUP2 MSTORE PUSH1 0x20 ADD PUSH0 ISZERO ISZERO DUP2 MSTORE POP SWAP1 JUMP JUMPDEST PUSH0 DUP2 SWAP1 POP SWAP2 SWAP1 POP JUMP JUMPDEST PUSH2 0x1310 DUP2 PUSH2 0x12FE JUMP JUMPDEST DUP3 MSTORE POP POP JUMP JUMPDEST PUSH0 PUSH1 0x20 DUP3 ADD SWAP1 POP PUSH2 0x1329 PUSH0 DUP4 ADD DUP5 PUSH2 0x1307 JUMP JUMPDEST SWAP3 SWAP2 POP POP JUMP JUMPDEST PUSH0 PUSH1 0x40 MLOAD SWAP1 POP SWAP1 JUMP JUMPDEST PUSH0 DUP1 REVERT JUMPDEST PUSH0 DUP1 REVERT JUMPDEST PUSH2 0x1349 DUP2 PUSH2 0x12FE JUMP JUMPDEST DUP2 EQ PUSH2 0x1353 JUMPI PUSH0 DUP1 REVERT JUMPDEST POP JUMP JUMPDEST PUSH0 DUP2 CALLDATALOAD SWAP1 POP PUSH2 0x1364 DUP2 PUSH2 0x1340 JUMP JUMPDEST SWAP3 SWAP2 POP POP JUMP JUMPDEST PUSH0 PUSH1 0x20 DUP3 DUP5 SUB SLT ISZERO PUSH2 0x137F JUMPI PUSH2 0x137E PUSH2 0x1338 JUMP JUMPDEST JUMPDEST PUSH0 PUSH2 0x138C DUP5 DUP3 DUP6 ADD PUSH2 0x1356 JUMP JUMPDEST SWAP2 POP POP SWAP3 SWAP2 POP POP JUMP JUMPDEST PUSH0 DUP2 ISZERO ISZERO SWAP1 POP SWAP2 SWAP1 POP JUMP JUMPDEST PUSH2 0x13A9 DUP2 PUSH2 0x1395 JUMP JUMPDEST DUP3 MSTORE POP POP JUMP JUMPDEST PUSH0 PUSH1 0x80 DUP3 ADD SWAP1 POP PUSH2 0x13C2 PUSH0 DUP4 ADD DUP8 PUSH2 0x1307 JUMP JUMPDEST PUSH2 0x13CF PUSH1 0x20 DUP4 ADD DUP7 PUSH2 0x1307 JUMP JUMPDEST PUSH2 0x13DC PUSH1 0x40 DUP4 ADD DUP6 PUSH2 0x1307 JUMP JUMPDEST PUSH2 0x13E9 PUSH1 0x60 DUP4 ADD DUP5 PUSH2 0x13A0 JUMP JUMPDEST SWAP6 SWAP5 POP POP POP POP POP JUMP JUMPDEST PUSH0 DUP1 PUSH1 0x40 DUP4 DUP6 SUB SLT ISZERO PUSH2 0x1408 JUMPI PUSH2 0x1407 PUSH2 0x1338 JUMP JUMPDEST JUMPDEST PUSH0 PUSH2 0x1415 DUP6 DUP3 DUP7 ADD PUSH2 0x1356 JUMP JUMPDEST SWAP3 POP POP PUSH1 0x20 PUSH2 0x1426 DUP6 DUP3 DUP7 ADD PUSH2 0x1356 JUMP JUMPDEST SWAP2 POP POP SWAP3 POP SWAP3 SWAP1 POP JUMP JUMPDEST PUSH0 PUSH1 0x20 DUP3 ADD SWAP1 POP PUSH2 0x1443 PUSH0 DUP4 ADD DUP5 PUSH2 0x13A0 JUMP JUMPDEST SWAP3 SWAP2 POP POP JUMP JUMPDEST PUSH0 PUSH20 0xFFFFFFFFFFFFFFFFFFFFFFFFFFFFFFFFFFFFFFFF DUP3 AND SWAP1 POP SWAP2 SWAP1 POP JUMP JUMPDEST PUSH0 PUSH2 0x1472 DUP3 PUSH2 0x1449 JUMP JUMPDEST SWAP1 POP SWAP2 SWAP1 POP JUMP JUMPDEST PUSH2 0x1482 DUP2 PUSH2 0x1468 JUMP JUMPDEST DUP3 MSTORE POP POP JUMP JUMPDEST PUSH0 PUSH1 0x20 DUP3 ADD SWAP1 POP PUSH2 0x149B PUSH0 DUP4 ADD DUP5 PUSH2 0x1479 JUMP JUMPDEST SWAP3 SWAP2 POP POP JUMP JUMPDEST PUSH0 DUP2 SWAP1 POP SWAP2 SWAP1 POP JUMP JUMPDEST PUSH0 PUSH2 0x14C4 PUSH2 0x14BF PUSH2 0x14BA DUP5 PUSH2 0x1449 JUMP JUMPDEST PUSH2 0x14A1 JUMP JUMPDEST PUSH2 0x1449 JUMP JUMPDEST SWAP1 POP SWAP2 SWAP1 POP JUMP JUMPDEST PUSH0 PUSH2 0x14D5 DUP3 PUSH2 0x14AA JUMP JUMPDEST SWAP1 POP SWAP2 SWAP1 POP JUMP JUMPDEST PUSH0 PUSH2 0x14E6 DUP3 PUSH2 0x14CB JUMP JUMPDEST SWAP1 POP SWAP2 SWAP1 POP JUMP JUMPDEST PUSH2 0x14F6 DUP2 PUSH2 0x14DC JUMP JUMPDEST DUP3 MSTORE POP POP JUMP JUMPDEST PUSH0 PUSH1 0x20 DUP3 ADD SWAP1 POP PUSH2 0x150F PUSH0 DUP4 ADD DUP5 PUSH2 0x14ED JUMP JUMPDEST SWAP3 SWAP2 POP POP JUMP JUMPDEST PUSH2 0x151E DUP2 PUSH2 0x12FE JUMP JUMPDEST DUP3 MSTORE POP POP JUMP JUMPDEST PUSH2 0x152D DUP2 PUSH2 0x1395 JUMP JUMPDEST DUP3 MSTORE POP POP JUMP JUMPDEST PUSH0 DUP2 MLOAD SWAP1 POP SWAP2 SWAP1 POP JUMP JUMPDEST PUSH0 DUP3 DUP3 MSTORE PUSH1 0x20 DUP3 ADD SWAP1 POP SWAP3 SWAP2 POP POP JUMP JUMPDEST PUSH0 DUP2 SWAP1 POP PUSH1 0x20 DUP3 ADD SWAP1 POP SWAP2 SWAP1 POP JUMP JUMPDEST PUSH0 PUSH2 0x1567 DUP4 DUP4 PUSH2 0x1515 JUMP JUMPDEST PUSH1 0x20 DUP4 ADD SWAP1 POP SWAP3 SWAP2 POP POP JUMP JUMPDEST PUSH0 PUSH1 0x20 DUP3 ADD SWAP1 POP SWAP2 SWAP1 POP JUMP JUMPDEST PUSH0 PUSH2 0x1589 DUP3 PUSH2 0x1533 JUMP JUMPDEST PUSH2 0x1593 DUP2 DUP6 PUSH2 0x153D JUMP JUMPDEST SWAP4 POP PUSH2 0x159E DUP4 PUSH2 0x154D JUMP JUMPDEST DUP1 PUSH0 JUMPDEST DUP4 DUP2 LT ISZERO PUSH2 0x15CE JUMPI DUP2 MLOAD PUSH2 0x15B5 DUP9 DUP3 PUSH2 0x155C JUMP JUMPDEST SWAP8 POP PUSH2 0x15C0 DUP4 PUSH2 0x1573 JUMP JUMPDEST SWAP3 POP POP PUSH1 0x1 DUP2 ADD SWAP1 POP PUSH2 0x15A1 JUMP JUMPDEST POP DUP6 SWAP4 POP POP POP POP SWAP3 SWAP2 POP POP JUMP JUMPDEST PUSH0 PUSH1 0xA0 DUP4 ADD PUSH0 DUP4 ADD MLOAD PUSH2 0x15F0 PUSH0 DUP7 ADD DUP3 PUSH2 0x1515 JUMP JUMPDEST POP PUSH1 0x20 DUP4 ADD MLOAD PUSH2 0x1603 PUSH1 0x20 DUP7 ADD DUP3 PUSH2 0x1515 JUMP JUMPDEST POP PUSH1 0x40 DUP4 ADD MLOAD PUSH2 0x1616 PUSH1 0x40 DUP7 ADD DUP3 PUSH2 0x1515 JUMP JUMPDEST POP PUSH1 0x60 DUP4 ADD MLOAD PUSH2 0x1629 PUSH1 0x60 DUP7 ADD DUP3 PUSH2 0x1524 JUMP JUMPDEST POP PUSH1 0x80 DUP4 ADD MLOAD DUP5 DUP3 SUB PUSH1 0x80 DUP7 ADD MSTORE PUSH2 0x1641 DUP3 DUP3 PUSH2 0x157F JUMP JUMPDEST SWAP2 POP POP DUP1 SWAP2 POP POP SWAP3 SWAP2 POP POP JUMP JUMPDEST PUSH0 PUSH1 0x20 DUP3 ADD SWAP1 POP DUP2 DUP2 SUB PUSH0 DUP4 ADD MSTORE PUSH2 0x1666 DUP2 DUP5 PUSH2 0x15DB JUMP JUMPDEST SWAP1 POP SWAP3 SWAP2 POP POP JUMP JUMPDEST PUSH1 0x80 DUP3 ADD PUSH0 DUP3 ADD MLOAD PUSH2 0x1682 PUSH0 DUP6 ADD DUP3 PUSH2 0x1515 JUMP JUMPDEST POP PUSH1 0x20 DUP3 ADD MLOAD PUSH2 0x1695 PUSH1 0x20 DUP6 ADD DUP3 PUSH2 0x1515 JUMP JUMPDEST POP PUSH1 0x40 DUP3 ADD MLOAD PUSH2 0x16A8 PUSH1 0x40 DUP6 ADD DUP3 PUSH2 0x1515 JUMP JUMPDEST POP PUSH1 0x60 DUP3 ADD MLOAD PUSH2 0x16BB PUSH1 0x60 DUP6 ADD DUP3 PUSH2 0x1524 JUMP JUMPDEST POP POP POP POP JUMP JUMPDEST PUSH0 PUSH1 0x80 DUP3 ADD SWAP1 POP PUSH2 0x16D4 PUSH0 DUP4 ADD DUP5 PUSH2 0x166E JUMP JUMPDEST SWAP3 SWAP2 POP POP JUMP JUMPDEST PUSH0 PUSH2 0x16E4 DUP3 PUSH2 0x14CB JUMP JUMPDEST SWAP1 POP SWAP2 SWAP1 POP JUMP JUMPDEST PUSH2 0x16F4 DUP2 PUSH2 0x16DA JUMP JUMPDEST DUP3 MSTORE POP POP JUMP JUMPDEST PUSH0 PUSH1 0x20 DUP3 ADD SWAP1 POP PUSH2 0x170D PUSH0 DUP4 ADD DUP5 PUSH2 0x16EB JUMP JUMPDEST SWAP3 SWAP2 POP POP JUMP JUMPDEST PUSH0 DUP2 MLOAD SWAP1 POP PUSH2 0x1721 DUP2 PUSH2 0x1340 JUMP JUMPDEST SWAP3 SWAP2 POP POP JUMP JUMPDEST PUSH2 0x1730 DUP2 PUSH2 0x1468 JUMP JUMPDEST DUP2 EQ PUSH2 0x173A JUMPI PUSH0 DUP1 REVERT JUMPDEST POP JUMP JUMPDEST PUSH0 DUP2 MLOAD SWAP1 POP PUSH2 0x174B DUP2 PUSH2 0x1727 JUMP JUMPDEST SWAP3 SWAP2 POP POP JUMP JUMPDEST PUSH0 DUP1 REVERT JUMPDEST PUSH0 DUP1 REVERT JUMPDEST PUSH0 PUSH1 0x1F NOT PUSH1 0x1F DUP4 ADD AND SWAP1 POP SWAP2 SWAP1 POP JUMP JUMPDEST PUSH32 0x4E487B7100000000000000000000000000000000000000000000000000000000 PUSH0 MSTORE PUSH1 0x41 PUSH1 0x4 MSTORE PUSH1 0x24 PUSH0 REVERT JUMPDEST PUSH2 0x179F DUP3 PUSH2 0x1759 JUMP JUMPDEST DUP2 ADD DUP2 DUP2 LT PUSH8 0xFFFFFFFFFFFFFFFF DUP3 GT OR ISZERO PUSH2 0x17BE JUMPI PUSH2 0x17BD PUSH2 0x1769 JUMP JUMPDEST JUMPDEST DUP1 PUSH1 0x40 MSTORE POP POP POP JUMP JUMPDEST PUSH0 PUSH2 0x17D0 PUSH2 0x132F JUMP JUMPDEST SWAP1 POP PUSH2 0x17DC DUP3 DUP3 PUSH2 0x1796 JUMP JUMPDEST SWAP2 SWAP1 POP JUMP JUMPDEST PUSH0 PUSH8 0xFFFFFFFFFFFFFFFF DUP3 GT ISZERO PUSH2 0x17FB JUMPI PUSH2 0x17FA PUSH2 0x1769 JUMP JUMPDEST JUMPDEST PUSH2 0x1804 DUP3 PUSH2 0x1759 JUMP JUMPDEST SWAP1 POP PUSH1 0x20 DUP2 ADD SWAP1 POP SWAP2 SWAP1 POP JUMP JUMPDEST DUP3 DUP2 DUP4 MCOPY PUSH0 DUP4 DUP4 ADD MSTORE POP POP POP JUMP JUMPDEST PUSH0 PUSH2 0x1831 PUSH2 0x182C DUP5 PUSH2 0x17E1 JUMP JUMPDEST PUSH2 0x17C7 JUMP JUMPDEST SWAP1 POP DUP3 DUP2 MSTORE PUSH1 0x20 DUP2 ADD DUP5 DUP5 DUP5 ADD GT ISZERO PUSH2 0x184D JUMPI PUSH2 0x184C PUSH2 0x1755 JUMP JUMPDEST JUMPDEST PUSH2 0x1858 DUP5 DUP3 DUP6 PUSH2 0x1811 JUMP JUMPDEST POP SWAP4 SWAP3 POP POP POP JUMP JUMPDEST PUSH0 DUP3 PUSH1 0x1F DUP4 ADD SLT PUSH2 0x1874 JUMPI PUSH2 0x1873 PUSH2 0x1751 JUMP JUMPDEST JUMPDEST DUP2 MLOAD PUSH2 0x1884 DUP5 DUP3 PUSH1 0x20 DUP7 ADD PUSH2 0x181F JUMP JUMPDEST SWAP2 POP POP SWAP3 SWAP2 POP POP JUMP JUMPDEST PUSH2 0x1896 DUP2 PUSH2 0x1395 JUMP JUMPDEST DUP2 EQ PUSH2 0x18A0 JUMPI PUSH0 DUP1 REVERT JUMPDEST POP JUMP JUMPDEST PUSH0 DUP2 MLOAD SWAP1 POP PUSH2 0x18B1 DUP2 PUSH2 0x188D JUMP JUMPDEST SWAP3 SWAP2 POP POP JUMP JUMPDEST PUSH0 DUP1 PUSH0 DUP1 PUSH0 DUP1 PUSH0 DUP1 PUSH0 DUP1 PUSH2 0x140 DUP12 DUP14 SUB SLT ISZERO PUSH2 0x18D6 JUMPI PUSH2 0x18D5 PUSH2 0x1338 JUMP JUMPDEST JUMPDEST PUSH0 PUSH2 0x18E3 DUP14 DUP3 DUP15 ADD PUSH2 0x1713 JUMP JUMPDEST SWAP11 POP POP PUSH1 0x20 PUSH2 0x18F4 DUP14 DUP3 DUP15 ADD PUSH2 0x173D JUMP JUMPDEST SWAP10 POP POP PUSH1 0x40 DUP12 ADD MLOAD PUSH8 0xFFFFFFFFFFFFFFFF DUP2 GT ISZERO PUSH2 0x1915 JUMPI PUSH2 0x1914 PUSH2 0x133C JUMP JUMPDEST JUMPDEST PUSH2 0x1921 DUP14 DUP3 DUP15 ADD PUSH2 0x1860 JUMP JUMPDEST SWAP9 POP POP PUSH1 0x60 PUSH2 0x1932 DUP14 DUP3 DUP15 ADD PUSH2 0x1713 JUMP JUMPDEST SWAP8 POP POP PUSH1 0x80 PUSH2 0x1943 DUP14 DUP3 DUP15 ADD PUSH2 0x173D JUMP JUMPDEST SWAP7 POP POP PUSH1 0xA0 PUSH2 0x1954 DUP14 DUP3 DUP15 ADD PUSH2 0x18A3 JUMP JUMPDEST SWAP6 POP POP PUSH1 0xC0 PUSH2 0x1965 DUP14 DUP3 DUP15 ADD PUSH2 0x1713 JUMP JUMPDEST SWAP5 POP POP PUSH1 0xE0 DUP12 ADD MLOAD PUSH8 0xFFFFFFFFFFFFFFFF DUP2 GT ISZERO PUSH2 0x1986 JUMPI PUSH2 0x1985 PUSH2 0x133C JUMP JUMPDEST JUMPDEST PUSH2 0x1992 DUP14 DUP3 DUP15 ADD PUSH2 0x1860 JUMP JUMPDEST SWAP4 POP POP PUSH2 0x100 PUSH2 0x19A4 DUP14 DUP3 DUP15 ADD PUSH2 0x1713 JUMP JUMPDEST SWAP3 POP POP PUSH2 0x120 PUSH2 0x19B6 DUP14 DUP3 DUP15 ADD PUSH2 0x1713 JUMP JUMPDEST SWAP2 POP POP SWAP3 SWAP6 SWAP9 SWAP12 SWAP2 SWAP5 SWAP8 SWAP11 POP SWAP3 SWAP6 SWAP9 POP JUMP JUMPDEST PUSH0 DUP3 DUP3 MSTORE PUSH1 0x20 DUP3 ADD SWAP1 POP SWAP3 SWAP2 POP POP JUMP JUMPDEST PUSH32 0x5369676E69747952656C6174696F6E736869703A2063616C6C6572206973206E PUSH0 DUP3 ADD MSTORE PUSH32 0x6F74207369676E206F776E657200000000000000000000000000000000000000 PUSH1 0x20 DUP3 ADD MSTORE POP JUMP JUMPDEST PUSH0 PUSH2 0x1A32 PUSH1 0x2D DUP4 PUSH2 0x19C8 JUMP JUMPDEST SWAP2 POP PUSH2 0x1A3D DUP3 PUSH2 0x19D8 JUMP JUMPDEST PUSH1 0x40 DUP3 ADD SWAP1 POP SWAP2 SWAP1 POP JUMP JUMPDEST PUSH0 PUSH1 0x20 DUP3 ADD SWAP1 POP DUP2 DUP2 SUB PUSH0 DUP4 ADD MSTORE PUSH2 0x1A5F DUP2 PUSH2 0x1A26 JUMP JUMPDEST SWAP1 POP SWAP2 SWAP1 POP JUMP JUMPDEST PUSH32 0x5369676E69747952656C6174696F6E736869703A206E6F2076616C6964207072 PUSH0 DUP3 ADD MSTORE PUSH32 0x6F706F73616C0000000000000000000000000000000000000000000000000000 PUSH1 0x20 DUP3 ADD MSTORE POP JUMP JUMPDEST PUSH0 PUSH2 0x1AC0 PUSH1 0x26 DUP4 PUSH2 0x19C8 JUMP JUMPDEST SWAP2 POP PUSH2 0x1ACB DUP3 PUSH2 0x1A66 JUMP JUMPDEST PUSH1 0x40 DUP3 ADD SWAP1 POP SWAP2 SWAP1 POP JUMP JUMPDEST PUSH0 PUSH1 0x20 DUP3 ADD SWAP1 POP DUP2 DUP2 SUB PUSH0 DUP4 ADD MSTORE PUSH2 0x1AED DUP2 PUSH2 0x1AB4 JUMP JUMPDEST SWAP1 POP SWAP2 SWAP1 POP JUMP JUMPDEST PUSH32 0x5369676E69747952656C6174696F6E736869703A2070726F706F73616C206578 PUSH0 DUP3 ADD MSTORE PUSH32 0x7069726564000000000000000000000000000000000000000000000000000000 PUSH1 0x20 DUP3 ADD MSTORE POP JUMP JUMPDEST PUSH0 PUSH2 0x1B4E PUSH1 0x25 DUP4 PUSH2 0x19C8 JUMP JUMPDEST SWAP2 POP PUSH2 0x1B59 DUP3 PUSH2 0x1AF4 JUMP JUMPDEST PUSH1 0x40 DUP3 ADD SWAP1 POP SWAP2 SWAP1 POP JUMP JUMPDEST PUSH0 PUSH1 0x20 DUP3 ADD SWAP1 POP DUP2 DUP2 SUB PUSH0 DUP4 ADD MSTORE PUSH2 0x1B7B DUP2 PUSH2 0x1B42 JUMP JUMPDEST SWAP1 POP SWAP2 SWAP1 POP JUMP JUMPDEST PUSH32 0x5369676E69747952656C6174696F6E736869703A206F6E65207369676E206973 PUSH0 DUP3 ADD MSTORE PUSH32 0x206D617272696564000000000000000000000000000000000000000000000000 PUSH1 0x20 DUP3 ADD MSTORE POP JUMP JUMPDEST PUSH0 PUSH2 0x1BDC PUSH1 0x28 DUP4 PUSH2 0x19C8 JUMP JUMPDEST SWAP2 POP PUSH2 0x1BE7 DUP3 PUSH2 0x1B82 JUMP JUMPDEST PUSH1 0x40 DUP3 ADD SWAP1 POP SWAP2 SWAP1 POP JUMP JUMPDEST PUSH0 PUSH1 0x20 DUP3 ADD SWAP1 POP DUP2 DUP2 SUB PUSH0 DUP4 ADD MSTORE PUSH2 0x1C09 DUP2 PUSH2 0x1BD0 JUMP JUMPDEST SWAP1 POP SWAP2 SWAP1 POP JUMP JUMPDEST PUSH32 0x5369676E69747952656C6174696F6E736869703A207369676E206E6F74206D61 PUSH0 DUP3 ADD MSTORE PUSH32 0x7272696564000000000000000000000000000000000000000000000000000000 PUSH1 0x20 DUP3 ADD MSTORE POP JUMP JUMPDEST PUSH0 PUSH2 0x1C6A PUSH1 0x25 DUP4 PUSH2 0x19C8 JUMP JUMPDEST SWAP2 POP PUSH2 0x1C75 DUP3 PUSH2 0x1C10 JUMP JUMPDEST PUSH1 0x40 DUP3 ADD SWAP1 POP SWAP2 SWAP1 POP JUMP JUMPDEST PUSH0 PUSH1 0x20 DUP3 ADD SWAP1 POP DUP2 DUP2 SUB PUSH0 DUP4 ADD MSTORE PUSH2 0x1C97 DUP2 PUSH2 0x1C5E JUMP JUMPDEST SWAP1 POP SWAP2 SWAP1 POP JUMP JUMPDEST PUSH32 0x5369676E69747952656C6174696F6E736869703A206D6178206368696C647265 PUSH0 DUP3 ADD MSTORE PUSH32 0x6E20726561636865640000000000000000000000000000000000000000000000 PUSH1 0x20 DUP3 ADD MSTORE POP JUMP JUMPDEST PUSH0 PUSH2 0x1CF8 PUSH1 0x29 DUP4 PUSH2 0x19C8 JUMP JUMPDEST SWAP2 POP PUSH2 0x1D03 DUP3 PUSH2 0x1C9E JUMP JUMPDEST PUSH1 0x40 DUP3 ADD SWAP1 POP SWAP2 SWAP1 POP JUMP JUMPDEST PUSH0 PUSH1 0x20 DUP3 ADD SWAP1 POP DUP2 DUP2 SUB PUSH0 DUP4 ADD MSTORE PUSH2 0x1D25 DUP2 PUSH2 0x1CEC JUMP JUMPDEST SWAP1 POP SWAP2 SWAP1 POP JUMP JUMPDEST PUSH32 0x4E487B7100000000000000000000000000000000000000000000000000000000 PUSH0 MSTORE PUSH1 0x11 PUSH1 0x4 MSTORE PUSH1 0x24 PUSH0 REVERT JUMPDEST PUSH0 PUSH2 0x1D63 DUP3 PUSH2 0x12FE JUMP JUMPDEST SWAP2 POP PUSH2 0x1D6E DUP4 PUSH2 0x12FE JUMP JUMPDEST SWAP3 POP DUP3 DUP3 ADD SWAP1 POP DUP1 DUP3 GT ISZERO PUSH2 0x1D86 JUMPI PUSH2 0x1D85 PUSH2 0x1D2C JUMP JUMPDEST JUMPDEST SWAP3 SWAP2 POP POP JUMP JUMPDEST PUSH32 0x5369676E69747952656C6174696F6E736869703A206368696C6420636F6F6C64 PUSH0 DUP3 ADD MSTORE PUSH32 0x6F776E2061637469766500000000000000000000000000000000000000000000 PUSH1 0x20 DUP3 ADD MSTORE POP JUMP JUMPDEST PUSH0 PUSH2 0x1DE6 PUSH1 0x2A DUP4 PUSH2 0x19C8 JUMP JUMPDEST SWAP2 POP PUSH2 0x1DF1 DUP3 PUSH2 0x1D8C JUMP JUMPDEST PUSH1 0x40 DUP3 ADD SWAP1 POP SWAP2 SWAP1 POP JUMP JUMPDEST PUSH0 PUSH1 0x20 DUP3 ADD SWAP1 POP DUP2 DUP2 SUB PUSH0 DUP4 ADD MSTORE PUSH2 0x1E13 DUP2 PUSH2 0x1DDA JUMP JUMPDEST SWAP1 POP SWAP2 SWAP1 POP JUMP JUMPDEST PUSH32 0x4E487B7100000000000000000000000000000000000000000000000000000000 PUSH0 MSTORE PUSH1 0x12 PUSH1 0x4 MSTORE PUSH1 0x24 PUSH0 REVERT JUMPDEST PUSH0 PUSH2 0x1E51 DUP3 PUSH2 0x12FE JUMP JUMPDEST SWAP2 POP PUSH2 0x1E5C DUP4 PUSH2 0x12FE JUMP JUMPDEST SWAP3 POP DUP3 PUSH2 0x1E6C JUMPI PUSH2 0x1E6B PUSH2 0x1E1A JUMP JUMPDEST JUMPDEST DUP3 DUP3 MOD SWAP1 POP SWAP3 SWAP2 POP POP JUMP JUMPDEST PUSH32 0x5369676E69747952656C6174696F6E736869703A207369676E20616C72656164 PUSH0 DUP3 ADD MSTORE PUSH32 0x79206D6172726965640000000000000000000000000000000000000000000000 PUSH1 0x20 DUP3 ADD MSTORE POP JUMP JUMPDEST PUSH0 PUSH2 0x1ED1 PUSH1 0x29 DUP4 PUSH2 0x19C8 JUMP JUMPDEST SWAP2 POP PUSH2 0x1EDC DUP3 PUSH2 0x1E77 JUMP JUMPDEST PUSH1 0x40 DUP3 ADD SWAP1 POP SWAP2 SWAP1 POP JUMP JUMPDEST PUSH0 PUSH1 0x20 DUP3 ADD SWAP1 POP DUP2 DUP2 SUB PUSH0 DUP4 ADD MSTORE PUSH2 0x1EFE DUP2 PUSH2 0x1EC5 JUMP JUMPDEST SWAP1 POP SWAP2 SWAP1 POP JUMP JUMPDEST PUSH32 0x5369676E69747952656C6174696F6E736869703A20746172676574207369676E PUSH0 DUP3 ADD MSTORE PUSH32 0x20616C7265616479206D61727269656400000000000000000000000000000000 PUSH1 0x20 DUP3 ADD MSTORE POP JUMP JUMPDEST PUSH0 PUSH2 0x1F5F PUSH1 0x30 DUP4 PUSH2 0x19C8 JUMP JUMPDEST SWAP2 POP PUSH2 0x1F6A DUP3 PUSH2 0x1F05 JUMP JUMPDEST PUSH1 0x40 DUP3 ADD SWAP1 POP SWAP2 SWAP1 POP JUMP JUMPDEST PUSH0 PUSH1 0x20 DUP3 ADD SWAP1 POP DUP2 DUP2 SUB PUSH0 DUP4 ADD MSTORE PUSH2 0x1F8C DUP2 PUSH2 0x1F53 JUMP JUMPDEST SWAP1 POP SWAP2 SWAP1 POP JUMP JUMPDEST PUSH32 0x5369676E69747952656C6174696F6E736869703A206469766F72636520636F6F PUSH0 DUP3 ADD MSTORE PUSH32 0x6C646F776E206163746976650000000000000000000000000000000000000000 PUSH1 0x20 DUP3 ADD MSTORE POP JUMP JUMPDEST PUSH0 PUSH2 0x1FED PUSH1 0x2C DUP4 PUSH2 0x19C8 JUMP JUMPDEST SWAP2 POP PUSH2 0x1FF8 DUP3 PUSH2 0x1F93 JUMP JUMPDEST PUSH1 0x40 DUP3 ADD SWAP1 POP SWAP2 SWAP1 POP JUMP JUMPDEST PUSH0 PUSH1 0x20 DUP3 ADD SWAP1 POP DUP2 DUP2 SUB PUSH0 DUP4 ADD MSTORE PUSH2 0x201A DUP2 PUSH2 0x1FE1 JUMP JUMPDEST SWAP1 POP SWAP2 SWAP1 POP JUMP JUMPDEST PUSH32 0x5369676E69747952656C6174696F6E736869703A20746172676574206469766F PUSH0 DUP3 ADD MSTORE PUSH32 0x72636520636F6F6C646F776E2061637469766500000000000000000000000000 PUSH1 0x20 DUP3 ADD MSTORE POP JUMP JUMPDEST PUSH0 PUSH2 0x207B PUSH1 0x33 DUP4 PUSH2 0x19C8 JUMP JUMPDEST SWAP2 POP PUSH2 0x2086 DUP3 PUSH2 0x2021 JUMP JUMPDEST PUSH1 0x40 DUP3 ADD SWAP1 POP SWAP2 SWAP1 POP JUMP JUMPDEST PUSH0 PUSH1 0x20 DUP3 ADD SWAP1 POP DUP2 DUP2 SUB PUSH0 DUP4 ADD MSTORE PUSH2 0x20A8 DUP2 PUSH2 0x206F JUMP JUMPDEST SWAP1 POP SWAP2 SWAP1 POP JUMP JUMPDEST PUSH0 DUP2 SWAP1 POP SWAP2 SWAP1 POP JUMP JUMPDEST PUSH2 0x20C9 PUSH2 0x20C4 DUP3 PUSH2 0x12FE JUMP JUMPDEST PUSH2 0x20AF JUMP JUMPDEST DUP3 MSTORE POP POP JUMP JUMPDEST PUSH0 PUSH2 0x20DA DUP3 DUP7 PUSH2 0x20B8 JUMP JUMPDEST PUSH1 0x20 DUP3 ADD SWAP2 POP PUSH2 0x20EA DUP3 DUP6 PUSH2 0x20B8 JUMP JUMPDEST PUSH1 0x20 DUP3 ADD SWAP2 POP PUSH2 0x20FA DUP3 DUP5 PUSH2 0x20B8 JUMP JUMPDEST PUSH1 0x20 DUP3 ADD SWAP2 POP DUP2 SWAP1 POP SWAP5 SWAP4 POP POP POP POP JUMP JUMPDEST PUSH0 PUSH2 0x2116 DUP3 DUP8 PUSH2 0x20B8 JUMP JUMPDEST PUSH1 0x20 DUP3 ADD SWAP2 POP PUSH2 0x2126 DUP3 DUP7 PUSH2 0x20B8 JUMP JUMPDEST PUSH1 0x20 DUP3 ADD SWAP2 POP PUSH2 0x2136 DUP3 DUP6 PUSH2 0x20B8 JUMP JUMPDEST PUSH1 0x20 DUP3 ADD SWAP2 POP PUSH2 0x2146 DUP3 DUP5 PUSH2 0x20B8 JUMP JUMPDEST PUSH1 0x20 DUP3 ADD SWAP2 POP DUP2 SWAP1 POP SWAP6 SWAP5 POP POP POP POP POP JUMP INVALID LOG2 PUSH5 0x6970667358 0x22 SLT KECCAK256 COINBASE PUSH3 0x246C1B 0xBE 0xD0 0x27 DUP7 0xF 0xD2 0xBB DUP11 0x27 DUP7 GASLIMIT 0x26 0x4D 0xAB 0xB6 0xF7 DUP9 CREATE 0xED CALL 0xD8 0xDD 0x1E SWAP3 MULMOD 0xB6 CODESIZE PUSH5 0x736F6C6343 STOP ADDMOD BYTE STOP CALLER "
				},
				"gasEstimates": {
					"creation": {
						"codeDepositCost": "1718000",
						"executionCost": "infinite",
						"totalCost": "infinite"
					},
					"external": {
						"CHILD_COOLDOWN()": "349",
						"DIVORCE_COOLDOWN()": "435",
						"MAX_CHILDREN()": "347",
						"acceptMarriage(uint256,uint256)": "infinite",
						"children(uint256)": "infinite",
						"divorce(uint256)": "infinite",
						"getChildDetails(uint256)": "infinite",
						"getMarriageDetails(uint256)": "infinite",
						"isMarried(uint256)": "2896",
						"lastChildBirth(uint256)": "infinite",
						"lastDivorceDate(uint256)": "infinite",
						"marriages(uint256)": "infinite",
						"owner()": "infinite",
						"proposalExpiry(uint256)": "infinite",
						"proposalTo(uint256)": "infinite",
						"proposeMarriage(uint256,uint256)": "infinite",
						"requestChild(uint256)": "infinite",
						"signToken()": "infinite",
						"signityNFT()": "infinite",
						"spouseOf(uint256)": "infinite"
					},
					"internal": {
						"_createChildSign(uint256,uint256)": "infinite",
						"_random(uint256)": "infinite"
					}
				},
				"methodIdentifiers": {
					"CHILD_COOLDOWN()": "080bfbae",
					"DIVORCE_COOLDOWN()": "f88bedf9",
					"MAX_CHILDREN()": "c222ff49",
					"acceptMarriage(uint256,uint256)": "5cf3f355",
					"children(uint256)": "7002ce42",
					"divorce(uint256)": "b49a5bb2",
					"getChildDetails(uint256)": "bdad7fa6",
					"getMarriageDetails(uint256)": "b30192ba",
					"isMarried(uint256)": "6abf8db8",
					"lastChildBirth(uint256)": "1204c58f",
					"lastDivorceDate(uint256)": "c2887cdc",
					"marriages(uint256)": "573662c1",
					"owner()": "8da5cb5b",
					"proposalExpiry(uint256)": "7dfe7b73",
					"proposalTo(uint256)": "b3841a91",
					"proposeMarriage(uint256,uint256)": "db1db2e1",
					"requestChild(uint256)": "874eaa02",
					"signToken()": "e29f5a07",
					"signityNFT()": "a196d01d",
					"spouseOf(uint256)": "b56c8a0c"
				}
			},
			"storageLayout": {
				"storage": [
					{
						"astId": 113,
						"contract": "Signity/SignityRelationship.sol:SignityRelationship",
						"label": "signToken",
						"offset": 0,
						"slot": "0",
						"type": "t_contract(ISignToken)22"
					},
					{
						"astId": 116,
						"contract": "Signity/SignityRelationship.sol:SignityRelationship",
						"label": "signityNFT",
						"offset": 0,
						"slot": "1",
						"type": "t_contract(ISignityNFT)48"
					},
					{
						"astId": 121,
						"contract": "Signity/SignityRelationship.sol:SignityRelationship",
						"label": "marriages",
						"offset": 0,
						"slot": "2",
						"type": "t_mapping(t_uint256,t_struct(Marriage)60_storage)"
					},
					{
						"astId": 125,
						"contract": "Signity/SignityRelationship.sol:SignityRelationship",
						"label": "spouseOf",
						"offset": 0,
						"slot": "3",
						"type": "t_mapping(t_uint256,t_uint256)"
					},
					{
						"astId": 130,
						"contract": "Signity/SignityRelationship.sol:SignityRelationship",
						"label": "children",
						"offset": 0,
						"slot": "4",
						"type": "t_mapping(t_uint256,t_struct(Child)69_storage)"
					},
					{
						"astId": 134,
						"contract": "Signity/SignityRelationship.sol:SignityRelationship",
						"label": "lastChildBirth",
						"offset": 0,
						"slot": "5",
						"type": "t_mapping(t_uint256,t_uint256)"
					},
					{
						"astId": 138,
						"contract": "Signity/SignityRelationship.sol:SignityRelationship",
						"label": "lastDivorceDate",
						"offset": 0,
						"slot": "6",
						"type": "t_mapping(t_uint256,t_uint256)"
					},
					{
						"astId": 142,
						"contract": "Signity/SignityRelationship.sol:SignityRelationship",
						"label": "proposalTo",
						"offset": 0,
						"slot": "7",
						"type": "t_mapping(t_uint256,t_uint256)"
					},
					{
						"astId": 146,
						"contract": "Signity/SignityRelationship.sol:SignityRelationship",
						"label": "proposalExpiry",
						"offset": 0,
						"slot": "8",
						"type": "t_mapping(t_uint256,t_uint256)"
					}
				],
				"types": {
					"t_array(t_uint256)dyn_storage": {
						"base": "t_uint256",
						"encoding": "dynamic_array",
						"label": "uint256[]",
						"numberOfBytes": "32"
					},
					"t_bool": {
						"encoding": "inplace",
						"label": "bool",
						"numberOfBytes": "1"
					},
					"t_contract(ISignToken)22": {
						"encoding": "inplace",
						"label": "contract ISignToken",
						"numberOfBytes": "20"
					},
					"t_contract(ISignityNFT)48": {
						"encoding": "inplace",
						"label": "contract ISignityNFT",
						"numberOfBytes": "20"
					},
					"t_mapping(t_uint256,t_struct(Child)69_storage)": {
						"encoding": "mapping",
						"key": "t_uint256",
						"label": "mapping(uint256 => struct SignityRelationship.Child)",
						"numberOfBytes": "32",
						"value": "t_struct(Child)69_storage"
					},
					"t_mapping(t_uint256,t_struct(Marriage)60_storage)": {
						"encoding": "mapping",
						"key": "t_uint256",
						"label": "mapping(uint256 => struct SignityRelationship.Marriage)",
						"numberOfBytes": "32",
						"value": "t_struct(Marriage)60_storage"
					},
					"t_mapping(t_uint256,t_uint256)": {
						"encoding": "mapping",
						"key": "t_uint256",
						"label": "mapping(uint256 => uint256)",
						"numberOfBytes": "32",
						"value": "t_uint256"
					},
					"t_struct(Child)69_storage": {
						"encoding": "inplace",
						"label": "struct SignityRelationship.Child",
						"members": [
							{
								"astId": 62,
								"contract": "Signity/SignityRelationship.sol:SignityRelationship",
								"label": "parentSign1",
								"offset": 0,
								"slot": "0",
								"type": "t_uint256"
							},
							{
								"astId": 64,
								"contract": "Signity/SignityRelationship.sol:SignityRelationship",
								"label": "parentSign2",
								"offset": 0,
								"slot": "1",
								"type": "t_uint256"
							},
							{
								"astId": 66,
								"contract": "Signity/SignityRelationship.sol:SignityRelationship",
								"label": "birthDate",
								"offset": 0,
								"slot": "2",
								"type": "t_uint256"
							},
							{
								"astId": 68,
								"contract": "Signity/SignityRelationship.sol:SignityRelationship",
								"label": "exists",
								"offset": 0,
								"slot": "3",
								"type": "t_bool"
							}
						],
						"numberOfBytes": "128"
					},
					"t_struct(Marriage)60_storage": {
						"encoding": "inplace",
						"label": "struct SignityRelationship.Marriage",
						"members": [
							{
								"astId": 50,
								"contract": "Signity/SignityRelationship.sol:SignityRelationship",
								"label": "signId1",
								"offset": 0,
								"slot": "0",
								"type": "t_uint256"
							},
							{
								"astId": 52,
								"contract": "Signity/SignityRelationship.sol:SignityRelationship",
								"label": "signId2",
								"offset": 0,
								"slot": "1",
								"type": "t_uint256"
							},
							{
								"astId": 54,
								"contract": "Signity/SignityRelationship.sol:SignityRelationship",
								"label": "marriageDate",
								"offset": 0,
								"slot": "2",
								"type": "t_uint256"
							},
							{
								"astId": 56,
								"contract": "Signity/SignityRelationship.sol:SignityRelationship",
								"label": "isActive",
								"offset": 0,
								"slot": "3",
								"type": "t_bool"
							},
							{
								"astId": 59,
								"contract": "Signity/SignityRelationship.sol:SignityRelationship",
								"label": "children",
								"offset": 0,
								"slot": "4",
								"type": "t_array(t_uint256)dyn_storage"
							}
						],
						"numberOfBytes": "160"
					},
					"t_uint256": {
						"encoding": "inplace",
						"label": "uint256",
						"numberOfBytes": "32"
					}
				}
			},
			"userdoc": {
				"kind": "user",
				"methods": {},
				"version": 1
			}
		}
	}
}