{
	"WallContract.sol": {
		"WallRegistry": {
			"abi": [
				{
					"inputs": [
						{
							"internalType": "address",
							"name": "_roleManagerAddress",
							"type": "address"
						}
					],
					"stateMutability": "nonpayable",
					"type": "constructor"
				},
				{
					"inputs": [],
					"name": "AccessControlBadConfirmation",
					"type": "error"
				},
				{
					"inputs": [
						{
							"internalType": "address",
							"name": "account",
							"type": "address"
						},
						{
							"internalType": "bytes32",
							"name": "neededRole",
							"type": "bytes32"
						}
					],
					"name": "AccessControlUnauthorizedAccount",
					"type": "error"
				},
				{
					"anonymous": false,
					"inputs": [
						{
							"indexed": false,
							"internalType": "address",
							"name": "account",
							"type": "address"
						}
					],
					"name": "Paused",
					"type": "event"
				},
				{
					"anonymous": false,
					"inputs": [
						{
							"indexed": true,
							"internalType": "bytes32",
							"name": "role",
							"type": "bytes32"
						},
						{
							"indexed": true,
							"internalType": "bytes32",
							"name": "previousAdminRole",
							"type": "bytes32"
						},
						{
							"indexed": true,
							"internalType": "bytes32",
							"name": "newAdminRole",
							"type": "bytes32"
						}
					],
					"name": "RoleAdminChanged",
					"type": "event"
				},
				{
					"anonymous": false,
					"inputs": [
						{
							"indexed": true,
							"internalType": "bytes32",
							"name": "role",
							"type": "bytes32"
						},
						{
							"indexed": true,
							"internalType": "address",
							"name": "account",
							"type": "address"
						},
						{
							"indexed": true,
							"internalType": "address",
							"name": "sender",
							"type": "address"
						}
					],
					"name": "RoleGranted",
					"type": "event"
				},
				{
					"anonymous": false,
					"inputs": [
						{
							"indexed": true,
							"internalType": "bytes32",
							"name": "role",
							"type": "bytes32"
						},
						{
							"indexed": true,
							"internalType": "address",
							"name": "account",
							"type": "address"
						},
						{
							"indexed": true,
							"internalType": "address",
							"name": "sender",
							"type": "address"
						}
					],
					"name": "RoleRevoked",
					"type": "event"
				},
				{
					"anonymous": false,
					"inputs": [
						{
							"indexed": false,
							"internalType": "address",
							"name": "account",
							"type": "address"
						}
					],
					"name": "Unpaused",
					"type": "event"
				},
				{
					"anonymous": false,
					"inputs": [
						{
							"indexed": true,
							"internalType": "uint256",
							"name": "wallId",
							"type": "uint256"
						},
						{
							"indexed": true,
							"internalType": "address",
							"name": "owner",
							"type": "address"
						},
						{
							"indexed": false,
							"internalType": "string",
							"name": "metadata",
							"type": "string"
						}
					],
					"name": "WallRequestCreated",
					"type": "event"
				},
				{
					"anonymous": false,
					"inputs": [
						{
							"indexed": true,
							"internalType": "uint256",
							"name": "wallId",
							"type": "uint256"
						},
						{
							"indexed": false,
							"internalType": "bool",
							"name": "approved",
							"type": "bool"
						}
					],
					"name": "WallRequestReviewed",
					"type": "event"
				},
				{
					"inputs": [],
					"name": "ADMIN_ROLE",
					"outputs": [
						{
							"internalType": "bytes32",
							"name": "",
							"type": "bytes32"
						}
					],
					"stateMutability": "view",
					"type": "function"
				},
				{
					"inputs": [],
					"name": "DEFAULT_ADMIN_ROLE",
					"outputs": [
						{
							"internalType": "bytes32",
							"name": "",
							"type": "bytes32"
						}
					],
					"stateMutability": "view",
					"type": "function"
				},
				{
					"inputs": [],
					"name": "WALL_OWNER_ROLE",
					"outputs": [
						{
							"internalType": "bytes32",
							"name": "",
							"type": "bytes32"
						}
					],
					"stateMutability": "view",
					"type": "function"
				},
				{
					"inputs": [
						{
							"internalType": "uint256",
							"name": "_wallId",
							"type": "uint256"
						}
					],
					"name": "approveWallRequest",
					"outputs": [],
					"stateMutability": "nonpayable",
					"type": "function"
				},
				{
					"inputs": [
						{
							"internalType": "bytes32",
							"name": "role",
							"type": "bytes32"
						}
					],
					"name": "getRoleAdmin",
					"outputs": [
						{
							"internalType": "bytes32",
							"name": "",
							"type": "bytes32"
						}
					],
					"stateMutability": "view",
					"type": "function"
				},
				{
					"inputs": [
						{
							"internalType": "uint256",
							"name": "_wallId",
							"type": "uint256"
						}
					],
					"name": "getWallDetails",
					"outputs": [
						{
							"components": [
								{
									"internalType": "uint256",
									"name": "id",
									"type": "uint256"
								},
								{
									"internalType": "address",
									"name": "owner",
									"type": "address"
								},
								{
									"internalType": "string",
									"name": "metadata",
									"type": "string"
								},
								{
									"internalType": "bool",
									"name": "approved",
									"type": "bool"
								}
							],
							"internalType": "struct WallRegistry.Wall",
							"name": "",
							"type": "tuple"
						}
					],
					"stateMutability": "view",
					"type": "function"
				},
				{
					"inputs": [
						{
							"internalType": "bytes32",
							"name": "role",
							"type": "bytes32"
						},
						{
							"internalType": "address",
							"name": "account",
							"type": "address"
						}
					],
					"name": "grantRole",
					"outputs": [],
					"stateMutability": "nonpayable",
					"type": "function"
				},
				{
					"inputs": [
						{
							"internalType": "bytes32",
							"name": "role",
							"type": "bytes32"
						},
						{
							"internalType": "address",
							"name": "account",
							"type": "address"
						}
					],
					"name": "hasRole",
					"outputs": [
						{
							"internalType": "bool",
							"name": "",
							"type": "bool"
						}
					],
					"stateMutability": "view",
					"type": "function"
				},
				{
					"inputs": [],
					"name": "pause",
					"outputs": [],
					"stateMutability": "nonpayable",
					"type": "function"
				},
				{
					"inputs": [],
					"name": "paused",
					"outputs": [
						{
							"internalType": "bool",
							"name": "",
							"type": "bool"
						}
					],
					"stateMutability": "view",
					"type": "function"
				},
				{
					"inputs": [
						{
							"internalType": "uint256",
							"name": "_wallId",
							"type": "uint256"
						}
					],
					"name": "rejectWallRequest",
					"outputs": [],
					"stateMutability": "nonpayable",
					"type": "function"
				},
				{
					"inputs": [
						{
							"internalType": "bytes32",
							"name": "role",
							"type": "bytes32"
						},
						{
							"internalType": "address",
							"name": "callerConfirmation",
							"type": "address"
						}
					],
					"name": "renounceRole",
					"outputs": [],
					"stateMutability": "nonpayable",
					"type": "function"
				},
				{
					"inputs": [
						{
							"internalType": "bytes32",
							"name": "role",
							"type": "bytes32"
						},
						{
							"internalType": "address",
							"name": "account",
							"type": "address"
						}
					],
					"name": "revokeRole",
					"outputs": [],
					"stateMutability": "nonpayable",
					"type": "function"
				},
				{
					"inputs": [],
					"name": "roleManager",
					"outputs": [
						{
							"internalType": "contract IRoleManager",
							"name": "",
							"type": "address"
						}
					],
					"stateMutability": "view",
					"type": "function"
				},
				{
					"inputs": [
						{
							"internalType": "string",
							"name": "_metadata",
							"type": "string"
						}
					],
					"name": "submitWallRequest",
					"outputs": [],
					"stateMutability": "nonpayable",
					"type": "function"
				},
				{
					"inputs": [
						{
							"internalType": "bytes4",
							"name": "interfaceId",
							"type": "bytes4"
						}
					],
					"name": "supportsInterface",
					"outputs": [
						{
							"internalType": "bool",
							"name": "",
							"type": "bool"
						}
					],
					"stateMutability": "view",
					"type": "function"
				},
				{
					"inputs": [
						{
							"internalType": "uint256",
							"name": "_wallId",
							"type": "uint256"
						},
						{
							"internalType": "address",
							"name": "_newOwner",
							"type": "address"
						}
					],
					"name": "transferWall",
					"outputs": [],
					"stateMutability": "nonpayable",
					"type": "function"
				},
				{
					"inputs": [],
					"name": "unpause",
					"outputs": [],
					"stateMutability": "nonpayable",
					"type": "function"
				},
				{
					"inputs": [
						{
							"internalType": "uint256",
							"name": "",
							"type": "uint256"
						}
					],
					"name": "walls",
					"outputs": [
						{
							"internalType": "uint256",
							"name": "id",
							"type": "uint256"
						},
						{
							"internalType": "address",
							"name": "owner",
							"type": "address"
						},
						{
							"internalType": "string",
							"name": "metadata",
							"type": "string"
						},
						{
							"internalType": "bool",
							"name": "approved",
							"type": "bool"
						}
					],
					"stateMutability": "view",
					"type": "function"
				}
			],
			"devdoc": {
				"errors": {
					"AccessControlBadConfirmation()": [
						{
							"details": "The caller of a function is not the expected one. NOTE: Don't confuse with {AccessControlUnauthorizedAccount}."
						}
					],
					"AccessControlUnauthorizedAccount(address,bytes32)": [
						{
							"details": "The `account` is missing a role."
						}
					]
				},
				"events": {
					"Paused(address)": {
						"details": "Emitted when the pause is triggered by `account`."
					},
					"RoleAdminChanged(bytes32,bytes32,bytes32)": {
						"details": "Emitted when `newAdminRole` is set as ``role``'s admin role, replacing `previousAdminRole` `DEFAULT_ADMIN_ROLE` is the starting admin for all roles, despite {RoleAdminChanged} not being emitted signaling this."
					},
					"RoleGranted(bytes32,address,address)": {
						"details": "Emitted when `account` is granted `role`. `sender` is the account that originated the contract call. This account bears the admin role (for the granted role). Expected in cases where the role was granted using the internal {AccessControl-_grantRole}."
					},
					"RoleRevoked(bytes32,address,address)": {
						"details": "Emitted when `account` is revoked `role`. `sender` is the account that originated the contract call:   - if using `revokeRole`, it is the admin role bearer   - if using `renounceRole`, it is the role bearer (i.e. `account`)"
					},
					"Unpaused(address)": {
						"details": "Emitted when the pause is lifted by `account`."
					}
				},
				"kind": "dev",
				"methods": {
					"getRoleAdmin(bytes32)": {
						"details": "Returns the admin role that controls `role`. See {grantRole} and {revokeRole}. To change a role's admin, use {_setRoleAdmin}."
					},
					"grantRole(bytes32,address)": {
						"details": "Grants `role` to `account`. If `account` had not been already granted `role`, emits a {RoleGranted} event. Requirements: - the caller must have ``role``'s admin role. May emit a {RoleGranted} event."
					},
					"hasRole(bytes32,address)": {
						"details": "Returns `true` if `account` has been granted `role`."
					},
					"paused()": {
						"details": "Returns true if the contract is paused, and false otherwise."
					},
					"renounceRole(bytes32,address)": {
						"details": "Revokes `role` from the calling account. Roles are often managed via {grantRole} and {revokeRole}: this function's purpose is to provide a mechanism for accounts to lose their privileges if they are compromised (such as when a trusted device is misplaced). If the calling account had been revoked `role`, emits a {RoleRevoked} event. Requirements: - the caller must be `callerConfirmation`. May emit a {RoleRevoked} event."
					},
					"revokeRole(bytes32,address)": {
						"details": "Revokes `role` from `account`. If `account` had been granted `role`, emits a {RoleRevoked} event. Requirements: - the caller must have ``role``'s admin role. May emit a {RoleRevoked} event."
					},
					"supportsInterface(bytes4)": {
						"details": "See {IERC165-supportsInterface}."
					}
				},
				"version": 1
			},
			"evm": {
				"assembly": "    /* \"WallContract.sol\":358:4062  contract WallRegistry is AccessControl, Pausable {... */\n  mstore(0x40, 0x80)\n    /* \"WallContract.sol\":1434:1723  constructor(address _roleManagerAddress) {... */\n  callvalue\n  dup1\n  iszero\n  tag_1\n  jumpi\n  0x00\n  dup1\n  revert\ntag_1:\n  pop\n  mload(0x40)\n  sub(codesize, bytecodeSize)\n  dup1\n  bytecodeSize\n  dup4\n  codecopy\n  dup2\n  dup2\n  add\n  0x40\n  mstore\n  dup2\n  add\n  swap1\n  tag_2\n  swap2\n  swap1\n  tag_3\n  jump\t// in\ntag_2:\n    /* \"@openzeppelin/contracts/security/Pausable.sol\":1006:1011  false */\n  0x00\n    /* \"@openzeppelin/contracts/security/Pausable.sol\":996:1003  _paused */\n  0x01\n  0x00\n    /* \"@openzeppelin/contracts/security/Pausable.sol\":996:1011  _paused = false */\n  0x0100\n  exp\n  dup2\n  sload\n  dup2\n  0xff\n  mul\n  not\n  and\n  swap1\n  dup4\n  iszero\n  iszero\n  mul\n  or\n  swap1\n  sstore\n  pop\n    /* \"WallContract.sol\":1525:1526  0 */\n  0x00\n    /* \"WallContract.sol\":1494:1527  _roleManagerAddress != address(0) */\n  0xffffffffffffffffffffffffffffffffffffffff\n  and\n    /* \"WallContract.sol\":1494:1513  _roleManagerAddress */\n  dup2\n    /* \"WallContract.sol\":1494:1527  _roleManagerAddress != address(0) */\n  0xffffffffffffffffffffffffffffffffffffffff\n  and\n  sub\n    /* \"WallContract.sol\":1486:1559  require(_roleManagerAddress != address(0), \"Invalid RoleManager address\") */\n  tag_8\n  jumpi\n  mload(0x40)\n  0x08c379a000000000000000000000000000000000000000000000000000000000\n  dup2\n  mstore\n  0x04\n  add\n  tag_9\n  swap1\n  tag_10\n  jump\t// in\ntag_9:\n  mload(0x40)\n  dup1\n  swap2\n  sub\n  swap1\n  revert\ntag_8:\n    /* \"WallContract.sol\":1597:1616  _roleManagerAddress */\n  dup1\n    /* \"WallContract.sol\":1570:1581  roleManager */\n  0x01\n  dup1\n    /* \"WallContract.sol\":1570:1617  roleManager = IRoleManager(_roleManagerAddress) */\n  0x0100\n  exp\n  dup2\n  sload\n  dup2\n  0xffffffffffffffffffffffffffffffffffffffff\n  mul\n  not\n  and\n  swap1\n  dup4\n  0xffffffffffffffffffffffffffffffffffffffff\n  and\n  mul\n  or\n  swap1\n  sstore\n  pop\n    /* \"WallContract.sol\":1628:1670  _grantRole(DEFAULT_ADMIN_ROLE, msg.sender) */\n  tag_11\n    /* \"@openzeppelin/contracts/access/AccessControl.sol\":2232:2236  0x00 */\n  0x00\n    /* \"WallContract.sol\":1639:1657  DEFAULT_ADMIN_ROLE */\n  dup1\n  shl\n    /* \"WallContract.sol\":1659:1669  msg.sender */\n  caller\n    /* \"WallContract.sol\":1628:1638  _grantRole */\n  shl(0x20, tag_12)\n    /* \"WallContract.sol\":1628:1670  _grantRole(DEFAULT_ADMIN_ROLE, msg.sender) */\n  0x20\n  shr\n  jump\t// in\ntag_11:\n  pop\n    /* \"WallContract.sol\":1681:1715  _grantRole(ADMIN_ROLE, msg.sender) */\n  tag_13\n    /* \"WallContract.sol\":511:534  keccak256(\"ADMIN_ROLE\") */\n  0xa49807205ce4d355092ef5a8a18f56e8913cf4a201fbe287825b095693c21775\n    /* \"WallContract.sol\":1704:1714  msg.sender */\n  caller\n    /* \"WallContract.sol\":1681:1691  _grantRole */\n  shl(0x20, tag_12)\n    /* \"WallContract.sol\":1681:1715  _grantRole(ADMIN_ROLE, msg.sender) */\n  0x20\n  shr\n  jump\t// in\ntag_13:\n  pop\n    /* \"WallContract.sol\":1434:1723  constructor(address _roleManagerAddress) {... */\n  pop\n    /* \"WallContract.sol\":358:4062  contract WallRegistry is AccessControl, Pausable {... */\n  jump(tag_14)\n    /* \"@openzeppelin/contracts/access/AccessControl.sol\":6179:6495  function _grantRole(bytes32 role, address account) internal virtual returns (bool) {... */\ntag_12:\n    /* \"@openzeppelin/contracts/access/AccessControl.sol\":6256:6260  bool */\n  0x00\n    /* \"@openzeppelin/contracts/access/AccessControl.sol\":6277:6299  hasRole(role, account) */\n  tag_16\n    /* \"@openzeppelin/contracts/access/AccessControl.sol\":6285:6289  role */\n  dup4\n    /* \"@openzeppelin/contracts/access/AccessControl.sol\":6291:6298  account */\n  dup4\n    /* \"@openzeppelin/contracts/access/AccessControl.sol\":6277:6284  hasRole */\n  shl(0x20, tag_17)\n    /* \"@openzeppelin/contracts/access/AccessControl.sol\":6277:6299  hasRole(role, account) */\n  0x20\n  shr\n  jump\t// in\ntag_16:\n    /* \"@openzeppelin/contracts/access/AccessControl.sol\":6272:6489  if (!hasRole(role, account)) {... */\n  tag_18\n  jumpi\n    /* \"@openzeppelin/contracts/access/AccessControl.sol\":6347:6351  true */\n  0x01\n    /* \"@openzeppelin/contracts/access/AccessControl.sol\":6315:6321  _roles */\n  0x00\n    /* \"@openzeppelin/contracts/access/AccessControl.sol\":6315:6327  _roles[role] */\n  dup1\n    /* \"@openzeppelin/contracts/access/AccessControl.sol\":6322:6326  role */\n  dup6\n    /* \"@openzeppelin/contracts/access/AccessControl.sol\":6315:6327  _roles[role] */\n  dup2\n  mstore\n  0x20\n  add\n  swap1\n  dup2\n  mstore\n  0x20\n  add\n  0x00\n  keccak256\n    /* \"@openzeppelin/contracts/access/AccessControl.sol\":6315:6335  _roles[role].hasRole */\n  0x00\n  add\n    /* \"@openzeppelin/contracts/access/AccessControl.sol\":6315:6344  _roles[role].hasRole[account] */\n  0x00\n    /* \"@openzeppelin/contracts/access/AccessControl.sol\":6336:6343  account */\n  dup5\n    /* \"@openzeppelin/contracts/access/AccessControl.sol\":6315:6344  _roles[role].hasRole[account] */\n  0xffffffffffffffffffffffffffffffffffffffff\n  and\n  0xffffffffffffffffffffffffffffffffffffffff\n  and\n  dup2\n  mstore\n  0x20\n  add\n  swap1\n  dup2\n  mstore\n  0x20\n  add\n  0x00\n  keccak256\n  0x00\n    /* \"@openzeppelin/contracts/access/AccessControl.sol\":6315:6351  _roles[role].hasRole[account] = true */\n  0x0100\n  exp\n  dup2\n  sload\n  dup2\n  0xff\n  mul\n  not\n  and\n  swap1\n  dup4\n  iszero\n  iszero\n  mul\n  or\n  swap1\n  sstore\n  pop\n    /* \"@openzeppelin/contracts/access/AccessControl.sol\":6397:6409  _msgSender() */\n  tag_19\n    /* \"@openzeppelin/contracts/access/AccessControl.sol\":6397:6407  _msgSender */\n  shl(0x20, tag_20)\n    /* \"@openzeppelin/contracts/access/AccessControl.sol\":6397:6409  _msgSender() */\n  0x20\n  shr\n  jump\t// in\ntag_19:\n    /* \"@openzeppelin/contracts/access/AccessControl.sol\":6370:6410  RoleGranted(role, account, _msgSender()) */\n  0xffffffffffffffffffffffffffffffffffffffff\n  and\n    /* \"@openzeppelin/contracts/access/AccessControl.sol\":6388:6395  account */\n  dup3\n    /* \"@openzeppelin/contracts/access/AccessControl.sol\":6370:6410  RoleGranted(role, account, _msgSender()) */\n  0xffffffffffffffffffffffffffffffffffffffff\n  and\n    /* \"@openzeppelin/contracts/access/AccessControl.sol\":6382:6386  role */\n  dup5\n    /* \"@openzeppelin/contracts/access/AccessControl.sol\":6370:6410  RoleGranted(role, account, _msgSender()) */\n  0x2f8788117e7eff1d82e926ec794901d17c78024a50270940304540a733656f0d\n  mload(0x40)\n  mload(0x40)\n  dup1\n  swap2\n  sub\n  swap1\n  log4\n    /* \"@openzeppelin/contracts/access/AccessControl.sol\":6431:6435  true */\n  0x01\n    /* \"@openzeppelin/contracts/access/AccessControl.sol\":6424:6435  return true */\n  swap1\n  pop\n  jump(tag_15)\n    /* \"@openzeppelin/contracts/access/AccessControl.sol\":6272:6489  if (!hasRole(role, account)) {... */\ntag_18:\n    /* \"@openzeppelin/contracts/access/AccessControl.sol\":6473:6478  false */\n  0x00\n    /* \"@openzeppelin/contracts/access/AccessControl.sol\":6466:6478  return false */\n  swap1\n  pop\n    /* \"@openzeppelin/contracts/access/AccessControl.sol\":6179:6495  function _grantRole(bytes32 role, address account) internal virtual returns (bool) {... */\ntag_15:\n  swap3\n  swap2\n  pop\n  pop\n  jump\t// out\n    /* \"@openzeppelin/contracts/access/AccessControl.sol\":2854:2990  function hasRole(bytes32 role, address account) public view virtual returns (bool) {... */\ntag_17:\n    /* \"@openzeppelin/contracts/access/AccessControl.sol\":2931:2935  bool */\n  0x00\n    /* \"@openzeppelin/contracts/access/AccessControl.sol\":2954:2960  _roles */\n  dup1\n    /* \"@openzeppelin/contracts/access/AccessControl.sol\":2954:2966  _roles[role] */\n  0x00\n    /* \"@openzeppelin/contracts/access/AccessControl.sol\":2961:2965  role */\n  dup5\n    /* \"@openzeppelin/contracts/access/AccessControl.sol\":2954:2966  _roles[role] */\n  dup2\n  mstore\n  0x20\n  add\n  swap1\n  dup2\n  mstore\n  0x20\n  add\n  0x00\n  keccak256\n    /* \"@openzeppelin/contracts/access/AccessControl.sol\":2954:2974  _roles[role].hasRole */\n  0x00\n  add\n    /* \"@openzeppelin/contracts/access/AccessControl.sol\":2954:2983  _roles[role].hasRole[account] */\n  0x00\n    /* \"@openzeppelin/contracts/access/AccessControl.sol\":2975:2982  account */\n  dup4\n    /* \"@openzeppelin/contracts/access/AccessControl.sol\":2954:2983  _roles[role].hasRole[account] */\n  0xffffffffffffffffffffffffffffffffffffffff\n  and\n  0xffffffffffffffffffffffffffffffffffffffff\n  and\n  dup2\n  mstore\n  0x20\n  add\n  swap1\n  dup2\n  mstore\n  0x20\n  add\n  0x00\n  keccak256\n  0x00\n  swap1\n  sload\n  swap1\n  0x0100\n  exp\n  swap1\n  div\n  0xff\n  and\n    /* \"@openzeppelin/contracts/access/AccessControl.sol\":2947:2983  return _roles[role].hasRole[account] */\n  swap1\n  pop\n    /* \"@openzeppelin/contracts/access/AccessControl.sol\":2854:2990  function hasRole(bytes32 role, address account) public view virtual returns (bool) {... */\n  swap3\n  swap2\n  pop\n  pop\n  jump\t// out\n    /* \"@openzeppelin/contracts/utils/Context.sol\":656:752  function _msgSender() internal view virtual returns (address) {... */\ntag_20:\n    /* \"@openzeppelin/contracts/utils/Context.sol\":709:716  address */\n  0x00\n    /* \"@openzeppelin/contracts/utils/Context.sol\":735:745  msg.sender */\n  caller\n    /* \"@openzeppelin/contracts/utils/Context.sol\":728:745  return msg.sender */\n  swap1\n  pop\n    /* \"@openzeppelin/contracts/utils/Context.sol\":656:752  function _msgSender() internal view virtual returns (address) {... */\n  swap1\n  jump\t// out\n    /* \"#utility.yul\":88:205   */\ntag_25:\n    /* \"#utility.yul\":197:198   */\n  0x00\n    /* \"#utility.yul\":194:195   */\n  dup1\n    /* \"#utility.yul\":187:199   */\n  revert\n    /* \"#utility.yul\":334:460   */\ntag_27:\n    /* \"#utility.yul\":371:378   */\n  0x00\n    /* \"#utility.yul\":411:453   */\n  0xffffffffffffffffffffffffffffffffffffffff\n    /* \"#utility.yul\":404:409   */\n  dup3\n    /* \"#utility.yul\":400:454   */\n  and\n    /* \"#utility.yul\":389:454   */\n  swap1\n  pop\n    /* \"#utility.yul\":334:460   */\n  swap2\n  swap1\n  pop\n  jump\t// out\n    /* \"#utility.yul\":466:562   */\ntag_28:\n    /* \"#utility.yul\":503:510   */\n  0x00\n    /* \"#utility.yul\":532:556   */\n  tag_40\n    /* \"#utility.yul\":550:555   */\n  dup3\n    /* \"#utility.yul\":532:556   */\n  tag_27\n  jump\t// in\ntag_40:\n    /* \"#utility.yul\":521:556   */\n  swap1\n  pop\n    /* \"#utility.yul\":466:562   */\n  swap2\n  swap1\n  pop\n  jump\t// out\n    /* \"#utility.yul\":568:690   */\ntag_29:\n    /* \"#utility.yul\":641:665   */\n  tag_42\n    /* \"#utility.yul\":659:664   */\n  dup2\n    /* \"#utility.yul\":641:665   */\n  tag_28\n  jump\t// in\ntag_42:\n    /* \"#utility.yul\":634:639   */\n  dup2\n    /* \"#utility.yul\":631:666   */\n  eq\n    /* \"#utility.yul\":621:684   */\n  tag_43\n  jumpi\n    /* \"#utility.yul\":680:681   */\n  0x00\n    /* \"#utility.yul\":677:678   */\n  dup1\n    /* \"#utility.yul\":670:682   */\n  revert\n    /* \"#utility.yul\":621:684   */\ntag_43:\n    /* \"#utility.yul\":568:690   */\n  pop\n  jump\t// out\n    /* \"#utility.yul\":696:839   */\ntag_30:\n    /* \"#utility.yul\":753:758   */\n  0x00\n    /* \"#utility.yul\":784:790   */\n  dup2\n    /* \"#utility.yul\":778:791   */\n  mload\n    /* \"#utility.yul\":769:791   */\n  swap1\n  pop\n    /* \"#utility.yul\":800:833   */\n  tag_45\n    /* \"#utility.yul\":827:832   */\n  dup2\n    /* \"#utility.yul\":800:833   */\n  tag_29\n  jump\t// in\ntag_45:\n    /* \"#utility.yul\":696:839   */\n  swap3\n  swap2\n  pop\n  pop\n  jump\t// out\n    /* \"#utility.yul\":845:1196   */\ntag_3:\n    /* \"#utility.yul\":915:921   */\n  0x00\n    /* \"#utility.yul\":964:966   */\n  0x20\n    /* \"#utility.yul\":952:961   */\n  dup3\n    /* \"#utility.yul\":943:950   */\n  dup5\n    /* \"#utility.yul\":939:962   */\n  sub\n    /* \"#utility.yul\":935:967   */\n  slt\n    /* \"#utility.yul\":932:1051   */\n  iszero\n  tag_47\n  jumpi\n    /* \"#utility.yul\":970:1049   */\n  tag_48\n  tag_25\n  jump\t// in\ntag_48:\n    /* \"#utility.yul\":932:1051   */\ntag_47:\n    /* \"#utility.yul\":1090:1091   */\n  0x00\n    /* \"#utility.yul\":1115:1179   */\n  tag_49\n    /* \"#utility.yul\":1171:1178   */\n  dup5\n    /* \"#utility.yul\":1162:1168   */\n  dup3\n    /* \"#utility.yul\":1151:1160   */\n  dup6\n    /* \"#utility.yul\":1147:1169   */\n  add\n    /* \"#utility.yul\":1115:1179   */\n  tag_30\n  jump\t// in\ntag_49:\n    /* \"#utility.yul\":1105:1179   */\n  swap2\n  pop\n    /* \"#utility.yul\":1061:1189   */\n  pop\n    /* \"#utility.yul\":845:1196   */\n  swap3\n  swap2\n  pop\n  pop\n  jump\t// out\n    /* \"#utility.yul\":1202:1371   */\ntag_31:\n    /* \"#utility.yul\":1286:1297   */\n  0x00\n    /* \"#utility.yul\":1320:1326   */\n  dup3\n    /* \"#utility.yul\":1315:1318   */\n  dup3\n    /* \"#utility.yul\":1308:1327   */\n  mstore\n    /* \"#utility.yul\":1360:1364   */\n  0x20\n    /* \"#utility.yul\":1355:1358   */\n  dup3\n    /* \"#utility.yul\":1351:1365   */\n  add\n    /* \"#utility.yul\":1336:1365   */\n  swap1\n  pop\n    /* \"#utility.yul\":1202:1371   */\n  swap3\n  swap2\n  pop\n  pop\n  jump\t// out\n    /* \"#utility.yul\":1377:1554   */\ntag_32:\n    /* \"#utility.yul\":1517:1546   */\n  0x496e76616c696420526f6c654d616e6167657220616464726573730000000000\n    /* \"#utility.yul\":1513:1514   */\n  0x00\n    /* \"#utility.yul\":1505:1511   */\n  dup3\n    /* \"#utility.yul\":1501:1515   */\n  add\n    /* \"#utility.yul\":1494:1547   */\n  mstore\n    /* \"#utility.yul\":1377:1554   */\n  pop\n  jump\t// out\n    /* \"#utility.yul\":1560:1926   */\ntag_33:\n    /* \"#utility.yul\":1702:1705   */\n  0x00\n    /* \"#utility.yul\":1723:1790   */\n  tag_53\n    /* \"#utility.yul\":1787:1789   */\n  0x1b\n    /* \"#utility.yul\":1782:1785   */\n  dup4\n    /* \"#utility.yul\":1723:1790   */\n  tag_31\n  jump\t// in\ntag_53:\n    /* \"#utility.yul\":1716:1790   */\n  swap2\n  pop\n    /* \"#utility.yul\":1799:1892   */\n  tag_54\n    /* \"#utility.yul\":1888:1891   */\n  dup3\n    /* \"#utility.yul\":1799:1892   */\n  tag_32\n  jump\t// in\ntag_54:\n    /* \"#utility.yul\":1917:1919   */\n  0x20\n    /* \"#utility.yul\":1912:1915   */\n  dup3\n    /* \"#utility.yul\":1908:1920   */\n  add\n    /* \"#utility.yul\":1901:1920   */\n  swap1\n  pop\n    /* \"#utility.yul\":1560:1926   */\n  swap2\n  swap1\n  pop\n  jump\t// out\n    /* \"#utility.yul\":1932:2351   */\ntag_10:\n    /* \"#utility.yul\":2098:2102   */\n  0x00\n    /* \"#utility.yul\":2136:2138   */\n  0x20\n    /* \"#utility.yul\":2125:2134   */\n  dup3\n    /* \"#utility.yul\":2121:2139   */\n  add\n    /* \"#utility.yul\":2113:2139   */\n  swap1\n  pop\n    /* \"#utility.yul\":2185:2194   */\n  dup2\n    /* \"#utility.yul\":2179:2183   */\n  dup2\n    /* \"#utility.yul\":2175:2195   */\n  sub\n    /* \"#utility.yul\":2171:2172   */\n  0x00\n    /* \"#utility.yul\":2160:2169   */\n  dup4\n    /* \"#utility.yul\":2156:2173   */\n  add\n    /* \"#utility.yul\":2149:2196   */\n  mstore\n    /* \"#utility.yul\":2213:2344   */\n  tag_56\n    /* \"#utility.yul\":2339:2343   */\n  dup2\n    /* \"#utility.yul\":2213:2344   */\n  tag_33\n  jump\t// in\ntag_56:\n    /* \"#utility.yul\":2205:2344   */\n  swap1\n  pop\n    /* \"#utility.yul\":1932:2351   */\n  swap2\n  swap1\n  pop\n  jump\t// out\n    /* \"WallContract.sol\":358:4062  contract WallRegistry is AccessControl, Pausable {... */\ntag_14:\n  dataSize(sub_0)\n  dup1\n  dataOffset(sub_0)\n  0x00\n  codecopy\n  0x00\n  return\nstop\n\nsub_0: assembly {\n        /* \"WallContract.sol\":358:4062  contract WallRegistry is AccessControl, Pausable {... */\n      mstore(0x40, 0x80)\n      callvalue\n      dup1\n      iszero\n      tag_1\n      jumpi\n      0x00\n      dup1\n      revert\n    tag_1:\n      pop\n      jumpi(tag_2, lt(calldatasize, 0x04))\n      shr(0xe0, calldataload(0x00))\n      dup1\n      0x75b238fc\n      gt\n      tag_22\n      jumpi\n      dup1\n      0xa217fddf\n      gt\n      tag_23\n      jumpi\n      dup1\n      0xa217fddf\n      eq\n      tag_17\n      jumpi\n      dup1\n      0xa27e7361\n      eq\n      tag_18\n      jumpi\n      dup1\n      0xcb3de478\n      eq\n      tag_19\n      jumpi\n      dup1\n      0xd547741f\n      eq\n      tag_20\n      jumpi\n      dup1\n      0xf64fee98\n      eq\n      tag_21\n      jumpi\n      jump(tag_2)\n    tag_23:\n      dup1\n      0x75b238fc\n      eq\n      tag_12\n      jumpi\n      dup1\n      0x8456cb59\n      eq\n      tag_13\n      jumpi\n      dup1\n      0x91d14854\n      eq\n      tag_14\n      jumpi\n      dup1\n      0x98e4abb5\n      eq\n      tag_15\n      jumpi\n      dup1\n      0xa1519b11\n      eq\n      tag_16\n      jumpi\n      jump(tag_2)\n    tag_22:\n      dup1\n      0x2f2ff15d\n      gt\n      tag_24\n      jumpi\n      dup1\n      0x2f2ff15d\n      eq\n      tag_7\n      jumpi\n      dup1\n      0x36568abe\n      eq\n      tag_8\n      jumpi\n      dup1\n      0x3f4ba83a\n      eq\n      tag_9\n      jumpi\n      dup1\n      0x550a3dba\n      eq\n      tag_10\n      jumpi\n      dup1\n      0x5c975abb\n      eq\n      tag_11\n      jumpi\n      jump(tag_2)\n    tag_24:\n      dup1\n      0x435da5\n      eq\n      tag_3\n      jumpi\n      dup1\n      0x01ffc9a7\n      eq\n      tag_4\n      jumpi\n      dup1\n      0x1ab5d0c7\n      eq\n      tag_5\n      jumpi\n      dup1\n      0x248a9ca3\n      eq\n      tag_6\n      jumpi\n    tag_2:\n      0x00\n      dup1\n      revert\n        /* \"WallContract.sol\":662:693  IRoleManager public roleManager */\n    tag_3:\n      tag_25\n      tag_26\n      jump\t// in\n    tag_25:\n      mload(0x40)\n      tag_27\n      swap2\n      swap1\n      tag_28\n      jump\t// in\n    tag_27:\n      mload(0x40)\n      dup1\n      swap2\n      sub\n      swap1\n      return\n        /* \"@openzeppelin/contracts/access/AccessControl.sol\":2565:2767  function supportsInterface(bytes4 interfaceId) public view virtual override returns (bool) {... */\n    tag_4:\n      tag_29\n      0x04\n      dup1\n      calldatasize\n      sub\n      dup2\n      add\n      swap1\n      tag_30\n      swap2\n      swap1\n      tag_31\n      jump\t// in\n    tag_30:\n      tag_32\n      jump\t// in\n    tag_29:\n      mload(0x40)\n      tag_33\n      swap2\n      swap1\n      tag_34\n      jump\t// in\n    tag_33:\n      mload(0x40)\n      dup1\n      swap2\n      sub\n      swap1\n      return\n        /* \"WallContract.sol\":3117:3308  function getWallDetails(uint256 _wallId) public view returns (Wall memory) {... */\n    tag_5:\n      tag_35\n      0x04\n      dup1\n      calldatasize\n      sub\n      dup2\n      add\n      swap1\n      tag_36\n      swap2\n      swap1\n      tag_37\n      jump\t// in\n    tag_36:\n      tag_38\n      jump\t// in\n    tag_35:\n      mload(0x40)\n      tag_39\n      swap2\n      swap1\n      tag_40\n      jump\t// in\n    tag_39:\n      mload(0x40)\n      dup1\n      swap2\n      sub\n      swap1\n      return\n        /* \"@openzeppelin/contracts/access/AccessControl.sol\":3810:3930  function getRoleAdmin(bytes32 role) public view virtual returns (bytes32) {... */\n    tag_6:\n      tag_41\n      0x04\n      dup1\n      calldatasize\n      sub\n      dup2\n      add\n      swap1\n      tag_42\n      swap2\n      swap1\n      tag_43\n      jump\t// in\n    tag_42:\n      tag_44\n      jump\t// in\n    tag_41:\n      mload(0x40)\n      tag_45\n      swap2\n      swap1\n      tag_46\n      jump\t// in\n    tag_45:\n      mload(0x40)\n      dup1\n      swap2\n      sub\n      swap1\n      return\n        /* \"@openzeppelin/contracts/access/AccessControl.sol\":4226:4362  function grantRole(bytes32 role, address account) public virtual onlyRole(getRoleAdmin(role)) {... */\n    tag_7:\n      tag_47\n      0x04\n      dup1\n      calldatasize\n      sub\n      dup2\n      add\n      swap1\n      tag_48\n      swap2\n      swap1\n      tag_49\n      jump\t// in\n    tag_48:\n      tag_50\n      jump\t// in\n    tag_47:\n      stop\n        /* \"@openzeppelin/contracts/access/AccessControl.sol\":5328:5573  function renounceRole(bytes32 role, address callerConfirmation) public virtual {... */\n    tag_8:\n      tag_51\n      0x04\n      dup1\n      calldatasize\n      sub\n      dup2\n      add\n      swap1\n      tag_52\n      swap2\n      swap1\n      tag_49\n      jump\t// in\n    tag_52:\n      tag_53\n      jump\t// in\n    tag_51:\n      stop\n        /* \"WallContract.sol\":3983:4059  function unpause() public onlyRole(ADMIN_ROLE) {... */\n    tag_9:\n      tag_54\n      tag_55\n      jump\t// in\n    tag_54:\n      stop\n        /* \"WallContract.sol\":997:1034  mapping(uint256 => Wall) public walls */\n    tag_10:\n      tag_56\n      0x04\n      dup1\n      calldatasize\n      sub\n      dup2\n      add\n      swap1\n      tag_57\n      swap2\n      swap1\n      tag_37\n      jump\t// in\n    tag_57:\n      tag_58\n      jump\t// in\n    tag_56:\n      mload(0x40)\n      tag_59\n      swap5\n      swap4\n      swap3\n      swap2\n      swap1\n      tag_60\n      jump\t// in\n    tag_59:\n      mload(0x40)\n      dup1\n      swap2\n      sub\n      swap1\n      return\n        /* \"@openzeppelin/contracts/security/Pausable.sol\":1615:1699  function paused() public view virtual returns (bool) {... */\n    tag_11:\n      tag_61\n      tag_62\n      jump\t// in\n    tag_61:\n      mload(0x40)\n      tag_63\n      swap2\n      swap1\n      tag_34\n      jump\t// in\n    tag_63:\n      mload(0x40)\n      dup1\n      swap2\n      sub\n      swap1\n      return\n        /* \"WallContract.sol\":474:534  bytes32 public constant ADMIN_ROLE = keccak256(\"ADMIN_ROLE\") */\n    tag_12:\n      tag_64\n      tag_65\n      jump\t// in\n    tag_64:\n      mload(0x40)\n      tag_66\n      swap2\n      swap1\n      tag_46\n      jump\t// in\n    tag_66:\n      mload(0x40)\n      dup1\n      swap2\n      sub\n      swap1\n      return\n        /* \"WallContract.sol\":3828:3900  function pause() public onlyRole(ADMIN_ROLE) {... */\n    tag_13:\n      tag_67\n      tag_68\n      jump\t// in\n    tag_67:\n      stop\n        /* \"@openzeppelin/contracts/access/AccessControl.sol\":2854:2990  function hasRole(bytes32 role, address account) public view virtual returns (bool) {... */\n    tag_14:\n      tag_69\n      0x04\n      dup1\n      calldatasize\n      sub\n      dup2\n      add\n      swap1\n      tag_70\n      swap2\n      swap1\n      tag_49\n      jump\t// in\n    tag_70:\n      tag_71\n      jump\t// in\n    tag_69:\n      mload(0x40)\n      tag_72\n      swap2\n      swap1\n      tag_34\n      jump\t// in\n    tag_72:\n      mload(0x40)\n      dup1\n      swap2\n      sub\n      swap1\n      return\n        /* \"WallContract.sol\":541:611  bytes32 public constant WALL_OWNER_ROLE = keccak256(\"WALL_OWNER_ROLE\") */\n    tag_15:\n      tag_73\n      tag_74\n      jump\t// in\n    tag_73:\n      mload(0x40)\n      tag_75\n      swap2\n      swap1\n      tag_46\n      jump\t// in\n    tag_75:\n      mload(0x40)\n      dup1\n      swap2\n      sub\n      swap1\n      return\n        /* \"WallContract.sol\":3391:3747  function transferWall(uint256 _wallId, address _newOwner) public {... */\n    tag_16:\n      tag_76\n      0x04\n      dup1\n      calldatasize\n      sub\n      dup2\n      add\n      swap1\n      tag_77\n      swap2\n      swap1\n      tag_78\n      jump\t// in\n    tag_77:\n      tag_79\n      jump\t// in\n    tag_76:\n      stop\n        /* \"@openzeppelin/contracts/access/AccessControl.sol\":2187:2236  bytes32 public constant DEFAULT_ADMIN_ROLE = 0x00 */\n    tag_17:\n      tag_80\n      tag_81\n      jump\t// in\n    tag_80:\n      mload(0x40)\n      tag_82\n      swap2\n      swap1\n      tag_46\n      jump\t// in\n    tag_82:\n      mload(0x40)\n      dup1\n      swap2\n      sub\n      swap1\n      return\n        /* \"WallContract.sol\":1806:2154  function submitWallRequest(string memory _metadata) public {... */\n    tag_18:\n      tag_83\n      0x04\n      dup1\n      calldatasize\n      sub\n      dup2\n      add\n      swap1\n      tag_84\n      swap2\n      swap1\n      tag_85\n      jump\t// in\n    tag_84:\n      tag_86\n      jump\t// in\n    tag_83:\n      stop\n        /* \"WallContract.sol\":2228:2650  function approveWallRequest(uint256 _wallId) public{... */\n    tag_19:\n      tag_87\n      0x04\n      dup1\n      calldatasize\n      sub\n      dup2\n      add\n      swap1\n      tag_88\n      swap2\n      swap1\n      tag_37\n      jump\t// in\n    tag_88:\n      tag_89\n      jump\t// in\n    tag_87:\n      stop\n        /* \"@openzeppelin/contracts/access/AccessControl.sol\":4642:4780  function revokeRole(bytes32 role, address account) public virtual onlyRole(getRoleAdmin(role)) {... */\n    tag_20:\n      tag_90\n      0x04\n      dup1\n      calldatasize\n      sub\n      dup2\n      add\n      swap1\n      tag_91\n      swap2\n      swap1\n      tag_49\n      jump\t// in\n    tag_91:\n      tag_92\n      jump\t// in\n    tag_90:\n      stop\n        /* \"WallContract.sol\":2723:3066  function rejectWallRequest(uint256 _wallId) public onlyRole(ADMIN_ROLE) {... */\n    tag_21:\n      tag_93\n      0x04\n      dup1\n      calldatasize\n      sub\n      dup2\n      add\n      swap1\n      tag_94\n      swap2\n      swap1\n      tag_37\n      jump\t// in\n    tag_94:\n      tag_95\n      jump\t// in\n    tag_93:\n      stop\n        /* \"WallContract.sol\":662:693  IRoleManager public roleManager */\n    tag_26:\n      0x01\n      dup1\n      sload\n      swap1\n      0x0100\n      exp\n      swap1\n      div\n      0xffffffffffffffffffffffffffffffffffffffff\n      and\n      dup2\n      jump\t// out\n        /* \"@openzeppelin/contracts/access/AccessControl.sol\":2565:2767  function supportsInterface(bytes4 interfaceId) public view virtual override returns (bool) {... */\n    tag_32:\n        /* \"@openzeppelin/contracts/access/AccessControl.sol\":2650:2654  bool */\n      0x00\n        /* \"@openzeppelin/contracts/access/AccessControl.sol\":2688:2720  type(IAccessControl).interfaceId */\n      0x7965db0b00000000000000000000000000000000000000000000000000000000\n        /* \"@openzeppelin/contracts/access/AccessControl.sol\":2673:2720  interfaceId == type(IAccessControl).interfaceId */\n      not(0xffffffffffffffffffffffffffffffffffffffffffffffffffffffff)\n      and\n        /* \"@openzeppelin/contracts/access/AccessControl.sol\":2673:2684  interfaceId */\n      dup3\n        /* \"@openzeppelin/contracts/access/AccessControl.sol\":2673:2720  interfaceId == type(IAccessControl).interfaceId */\n      not(0xffffffffffffffffffffffffffffffffffffffffffffffffffffffff)\n      and\n      eq\n        /* \"@openzeppelin/contracts/access/AccessControl.sol\":2673:2760  interfaceId == type(IAccessControl).interfaceId || super.supportsInterface(interfaceId) */\n      dup1\n      tag_97\n      jumpi\n      pop\n        /* \"@openzeppelin/contracts/access/AccessControl.sol\":2724:2760  super.supportsInterface(interfaceId) */\n      tag_98\n        /* \"@openzeppelin/contracts/access/AccessControl.sol\":2748:2759  interfaceId */\n      dup3\n        /* \"@openzeppelin/contracts/access/AccessControl.sol\":2724:2747  super.supportsInterface */\n      tag_99\n        /* \"@openzeppelin/contracts/access/AccessControl.sol\":2724:2760  super.supportsInterface(interfaceId) */\n      jump\t// in\n    tag_98:\n        /* \"@openzeppelin/contracts/access/AccessControl.sol\":2673:2760  interfaceId == type(IAccessControl).interfaceId || super.supportsInterface(interfaceId) */\n    tag_97:\n        /* \"@openzeppelin/contracts/access/AccessControl.sol\":2666:2760  return interfaceId == type(IAccessControl).interfaceId || super.supportsInterface(interfaceId) */\n      swap1\n      pop\n        /* \"@openzeppelin/contracts/access/AccessControl.sol\":2565:2767  function supportsInterface(bytes4 interfaceId) public view virtual override returns (bool) {... */\n      swap2\n      swap1\n      pop\n      jump\t// out\n        /* \"WallContract.sol\":3117:3308  function getWallDetails(uint256 _wallId) public view returns (Wall memory) {... */\n    tag_38:\n        /* \"WallContract.sol\":3179:3190  Wall memory */\n      tag_100\n      tag_101\n      jump\t// in\n    tag_100:\n        /* \"WallContract.sol\":3221:3222  0 */\n      0x00\n        /* \"WallContract.sol\":3211:3218  _wallId */\n      dup3\n        /* \"WallContract.sol\":3211:3222  _wallId > 0 */\n      gt\n        /* \"WallContract.sol\":3211:3248  _wallId > 0 && _wallId <= wallCounter */\n      dup1\n      iszero\n      tag_103\n      jumpi\n      pop\n        /* \"WallContract.sol\":3237:3248  wallCounter */\n      sload(0x02)\n        /* \"WallContract.sol\":3226:3233  _wallId */\n      dup3\n        /* \"WallContract.sol\":3226:3248  _wallId <= wallCounter */\n      gt\n      iszero\n        /* \"WallContract.sol\":3211:3248  _wallId > 0 && _wallId <= wallCounter */\n    tag_103:\n        /* \"WallContract.sol\":3203:3268  require(_wallId > 0 && _wallId <= wallCounter, \"Invalid wall ID\") */\n      tag_104\n      jumpi\n      mload(0x40)\n      0x08c379a000000000000000000000000000000000000000000000000000000000\n      dup2\n      mstore\n      0x04\n      add\n      tag_105\n      swap1\n      tag_106\n      jump\t// in\n    tag_105:\n      mload(0x40)\n      dup1\n      swap2\n      sub\n      swap1\n      revert\n    tag_104:\n        /* \"WallContract.sol\":3286:3291  walls */\n      0x03\n        /* \"WallContract.sol\":3286:3300  walls[_wallId] */\n      0x00\n        /* \"WallContract.sol\":3292:3299  _wallId */\n      dup4\n        /* \"WallContract.sol\":3286:3300  walls[_wallId] */\n      dup2\n      mstore\n      0x20\n      add\n      swap1\n      dup2\n      mstore\n      0x20\n      add\n      0x00\n      keccak256\n        /* \"WallContract.sol\":3279:3300  return walls[_wallId] */\n      mload(0x40)\n      dup1\n      0x80\n      add\n      0x40\n      mstore\n      swap1\n      dup2\n      0x00\n      dup3\n      add\n      sload\n      dup2\n      mstore\n      0x20\n      add\n      0x01\n      dup3\n      add\n      0x00\n      swap1\n      sload\n      swap1\n      0x0100\n      exp\n      swap1\n      div\n      0xffffffffffffffffffffffffffffffffffffffff\n      and\n      0xffffffffffffffffffffffffffffffffffffffff\n      and\n      0xffffffffffffffffffffffffffffffffffffffff\n      and\n      dup2\n      mstore\n      0x20\n      add\n      0x02\n      dup3\n      add\n      dup1\n      sload\n      tag_107\n      swap1\n      tag_108\n      jump\t// in\n    tag_107:\n      dup1\n      0x1f\n      add\n      0x20\n      dup1\n      swap2\n      div\n      mul\n      0x20\n      add\n      mload(0x40)\n      swap1\n      dup2\n      add\n      0x40\n      mstore\n      dup1\n      swap3\n      swap2\n      swap1\n      dup2\n      dup2\n      mstore\n      0x20\n      add\n      dup3\n      dup1\n      sload\n      tag_109\n      swap1\n      tag_108\n      jump\t// in\n    tag_109:\n      dup1\n      iszero\n      tag_110\n      jumpi\n      dup1\n      0x1f\n      lt\n      tag_111\n      jumpi\n      0x0100\n      dup1\n      dup4\n      sload\n      div\n      mul\n      dup4\n      mstore\n      swap2\n      0x20\n      add\n      swap2\n      jump(tag_110)\n    tag_111:\n      dup3\n      add\n      swap2\n      swap1\n      0x00\n      mstore\n      keccak256(0x00, 0x20)\n      swap1\n    tag_112:\n      dup2\n      sload\n      dup2\n      mstore\n      swap1\n      0x01\n      add\n      swap1\n      0x20\n      add\n      dup1\n      dup4\n      gt\n      tag_112\n      jumpi\n      dup3\n      swap1\n      sub\n      0x1f\n      and\n      dup3\n      add\n      swap2\n    tag_110:\n      pop\n      pop\n      pop\n      pop\n      pop\n      dup2\n      mstore\n      0x20\n      add\n      0x03\n      dup3\n      add\n      0x00\n      swap1\n      sload\n      swap1\n      0x0100\n      exp\n      swap1\n      div\n      0xff\n      and\n      iszero\n      iszero\n      iszero\n      iszero\n      dup2\n      mstore\n      pop\n      pop\n      swap1\n      pop\n        /* \"WallContract.sol\":3117:3308  function getWallDetails(uint256 _wallId) public view returns (Wall memory) {... */\n      swap2\n      swap1\n      pop\n      jump\t// out\n        /* \"@openzeppelin/contracts/access/AccessControl.sol\":3810:3930  function getRoleAdmin(bytes32 role) public view virtual returns (bytes32) {... */\n    tag_44:\n        /* \"@openzeppelin/contracts/access/AccessControl.sol\":3875:3882  bytes32 */\n      0x00\n        /* \"@openzeppelin/contracts/access/AccessControl.sol\":3901:3907  _roles */\n      dup1\n        /* \"@openzeppelin/contracts/access/AccessControl.sol\":3901:3913  _roles[role] */\n      0x00\n        /* \"@openzeppelin/contracts/access/AccessControl.sol\":3908:3912  role */\n      dup4\n        /* \"@openzeppelin/contracts/access/AccessControl.sol\":3901:3913  _roles[role] */\n      dup2\n      mstore\n      0x20\n      add\n      swap1\n      dup2\n      mstore\n      0x20\n      add\n      0x00\n      keccak256\n        /* \"@openzeppelin/contracts/access/AccessControl.sol\":3901:3923  _roles[role].adminRole */\n      0x01\n      add\n      sload\n        /* \"@openzeppelin/contracts/access/AccessControl.sol\":3894:3923  return _roles[role].adminRole */\n      swap1\n      pop\n        /* \"@openzeppelin/contracts/access/AccessControl.sol\":3810:3930  function getRoleAdmin(bytes32 role) public view virtual returns (bytes32) {... */\n      swap2\n      swap1\n      pop\n      jump\t// out\n        /* \"@openzeppelin/contracts/access/AccessControl.sol\":4226:4362  function grantRole(bytes32 role, address account) public virtual onlyRole(getRoleAdmin(role)) {... */\n    tag_50:\n        /* \"@openzeppelin/contracts/access/AccessControl.sol\":4300:4318  getRoleAdmin(role) */\n      tag_114\n        /* \"@openzeppelin/contracts/access/AccessControl.sol\":4313:4317  role */\n      dup3\n        /* \"@openzeppelin/contracts/access/AccessControl.sol\":4300:4312  getRoleAdmin */\n      tag_44\n        /* \"@openzeppelin/contracts/access/AccessControl.sol\":4300:4318  getRoleAdmin(role) */\n      jump\t// in\n    tag_114:\n        /* \"@openzeppelin/contracts/access/AccessControl.sol\":2464:2480  _checkRole(role) */\n      tag_116\n        /* \"@openzeppelin/contracts/access/AccessControl.sol\":2475:2479  role */\n      dup2\n        /* \"@openzeppelin/contracts/access/AccessControl.sol\":2464:2474  _checkRole */\n      tag_117\n        /* \"@openzeppelin/contracts/access/AccessControl.sol\":2464:2480  _checkRole(role) */\n      jump\t// in\n    tag_116:\n        /* \"@openzeppelin/contracts/access/AccessControl.sol\":4330:4355  _grantRole(role, account) */\n      tag_119\n        /* \"@openzeppelin/contracts/access/AccessControl.sol\":4341:4345  role */\n      dup4\n        /* \"@openzeppelin/contracts/access/AccessControl.sol\":4347:4354  account */\n      dup4\n        /* \"@openzeppelin/contracts/access/AccessControl.sol\":4330:4340  _grantRole */\n      tag_120\n        /* \"@openzeppelin/contracts/access/AccessControl.sol\":4330:4355  _grantRole(role, account) */\n      jump\t// in\n    tag_119:\n      pop\n        /* \"@openzeppelin/contracts/access/AccessControl.sol\":4226:4362  function grantRole(bytes32 role, address account) public virtual onlyRole(getRoleAdmin(role)) {... */\n      pop\n      pop\n      pop\n      jump\t// out\n        /* \"@openzeppelin/contracts/access/AccessControl.sol\":5328:5573  function renounceRole(bytes32 role, address callerConfirmation) public virtual {... */\n    tag_53:\n        /* \"@openzeppelin/contracts/access/AccessControl.sol\":5443:5455  _msgSender() */\n      tag_122\n        /* \"@openzeppelin/contracts/access/AccessControl.sol\":5443:5453  _msgSender */\n      tag_123\n        /* \"@openzeppelin/contracts/access/AccessControl.sol\":5443:5455  _msgSender() */\n      jump\t// in\n    tag_122:\n        /* \"@openzeppelin/contracts/access/AccessControl.sol\":5421:5455  callerConfirmation != _msgSender() */\n      0xffffffffffffffffffffffffffffffffffffffff\n      and\n        /* \"@openzeppelin/contracts/access/AccessControl.sol\":5421:5439  callerConfirmation */\n      dup2\n        /* \"@openzeppelin/contracts/access/AccessControl.sol\":5421:5455  callerConfirmation != _msgSender() */\n      0xffffffffffffffffffffffffffffffffffffffff\n      and\n      eq\n        /* \"@openzeppelin/contracts/access/AccessControl.sol\":5417:5519  if (callerConfirmation != _msgSender()) {... */\n      tag_124\n      jumpi\n        /* \"@openzeppelin/contracts/access/AccessControl.sol\":5478:5508  AccessControlBadConfirmation() */\n      mload(0x40)\n      0x6697b23200000000000000000000000000000000000000000000000000000000\n      dup2\n      mstore\n      0x04\n      add\n      mload(0x40)\n      dup1\n      swap2\n      sub\n      swap1\n      revert\n        /* \"@openzeppelin/contracts/access/AccessControl.sol\":5417:5519  if (callerConfirmation != _msgSender()) {... */\n    tag_124:\n        /* \"@openzeppelin/contracts/access/AccessControl.sol\":5529:5566  _revokeRole(role, callerConfirmation) */\n      tag_125\n        /* \"@openzeppelin/contracts/access/AccessControl.sol\":5541:5545  role */\n      dup3\n        /* \"@openzeppelin/contracts/access/AccessControl.sol\":5547:5565  callerConfirmation */\n      dup3\n        /* \"@openzeppelin/contracts/access/AccessControl.sol\":5529:5540  _revokeRole */\n      tag_126\n        /* \"@openzeppelin/contracts/access/AccessControl.sol\":5529:5566  _revokeRole(role, callerConfirmation) */\n      jump\t// in\n    tag_125:\n      pop\n        /* \"@openzeppelin/contracts/access/AccessControl.sol\":5328:5573  function renounceRole(bytes32 role, address callerConfirmation) public virtual {... */\n      pop\n      pop\n      jump\t// out\n        /* \"WallContract.sol\":3983:4059  function unpause() public onlyRole(ADMIN_ROLE) {... */\n    tag_55:\n        /* \"WallContract.sol\":511:534  keccak256(\"ADMIN_ROLE\") */\n      0xa49807205ce4d355092ef5a8a18f56e8913cf4a201fbe287825b095693c21775\n        /* \"@openzeppelin/contracts/access/AccessControl.sol\":2464:2480  _checkRole(role) */\n      tag_128\n        /* \"@openzeppelin/contracts/access/AccessControl.sol\":2475:2479  role */\n      dup2\n        /* \"@openzeppelin/contracts/access/AccessControl.sol\":2464:2474  _checkRole */\n      tag_117\n        /* \"@openzeppelin/contracts/access/AccessControl.sol\":2464:2480  _checkRole(role) */\n      jump\t// in\n    tag_128:\n        /* \"WallContract.sol\":4041:4051  _unpause() */\n      tag_130\n        /* \"WallContract.sol\":4041:4049  _unpause */\n      tag_131\n        /* \"WallContract.sol\":4041:4051  _unpause() */\n      jump\t// in\n    tag_130:\n        /* \"WallContract.sol\":3983:4059  function unpause() public onlyRole(ADMIN_ROLE) {... */\n      pop\n      jump\t// out\n        /* \"WallContract.sol\":997:1034  mapping(uint256 => Wall) public walls */\n    tag_58:\n      mstore(0x20, 0x03)\n      dup1\n      0x00\n      mstore\n      keccak256(0x00, 0x40)\n      0x00\n      swap2\n      pop\n      swap1\n      pop\n      dup1\n      0x00\n      add\n      sload\n      swap1\n      dup1\n      0x01\n      add\n      0x00\n      swap1\n      sload\n      swap1\n      0x0100\n      exp\n      swap1\n      div\n      0xffffffffffffffffffffffffffffffffffffffff\n      and\n      swap1\n      dup1\n      0x02\n      add\n      dup1\n      sload\n      tag_132\n      swap1\n      tag_108\n      jump\t// in\n    tag_132:\n      dup1\n      0x1f\n      add\n      0x20\n      dup1\n      swap2\n      div\n      mul\n      0x20\n      add\n      mload(0x40)\n      swap1\n      dup2\n      add\n      0x40\n      mstore\n      dup1\n      swap3\n      swap2\n      swap1\n      dup2\n      dup2\n      mstore\n      0x20\n      add\n      dup3\n      dup1\n      sload\n      tag_133\n      swap1\n      tag_108\n      jump\t// in\n    tag_133:\n      dup1\n      iszero\n      tag_134\n      jumpi\n      dup1\n      0x1f\n      lt\n      tag_135\n      jumpi\n      0x0100\n      dup1\n      dup4\n      sload\n      div\n      mul\n      dup4\n      mstore\n      swap2\n      0x20\n      add\n      swap2\n      jump(tag_134)\n    tag_135:\n      dup3\n      add\n      swap2\n      swap1\n      0x00\n      mstore\n      keccak256(0x00, 0x20)\n      swap1\n    tag_136:\n      dup2\n      sload\n      dup2\n      mstore\n      swap1\n      0x01\n      add\n      swap1\n      0x20\n      add\n      dup1\n      dup4\n      gt\n      tag_136\n      jumpi\n      dup3\n      swap1\n      sub\n      0x1f\n      and\n      dup3\n      add\n      swap2\n    tag_134:\n      pop\n      pop\n      pop\n      pop\n      pop\n      swap1\n      dup1\n      0x03\n      add\n      0x00\n      swap1\n      sload\n      swap1\n      0x0100\n      exp\n      swap1\n      div\n      0xff\n      and\n      swap1\n      pop\n      dup5\n      jump\t// out\n        /* \"@openzeppelin/contracts/security/Pausable.sol\":1615:1699  function paused() public view virtual returns (bool) {... */\n    tag_62:\n        /* \"@openzeppelin/contracts/security/Pausable.sol\":1662:1666  bool */\n      0x00\n        /* \"@openzeppelin/contracts/security/Pausable.sol\":1685:1692  _paused */\n      0x01\n      0x00\n      swap1\n      sload\n      swap1\n      0x0100\n      exp\n      swap1\n      div\n      0xff\n      and\n        /* \"@openzeppelin/contracts/security/Pausable.sol\":1678:1692  return _paused */\n      swap1\n      pop\n        /* \"@openzeppelin/contracts/security/Pausable.sol\":1615:1699  function paused() public view virtual returns (bool) {... */\n      swap1\n      jump\t// out\n        /* \"WallContract.sol\":474:534  bytes32 public constant ADMIN_ROLE = keccak256(\"ADMIN_ROLE\") */\n    tag_65:\n        /* \"WallContract.sol\":511:534  keccak256(\"ADMIN_ROLE\") */\n      0xa49807205ce4d355092ef5a8a18f56e8913cf4a201fbe287825b095693c21775\n        /* \"WallContract.sol\":474:534  bytes32 public constant ADMIN_ROLE = keccak256(\"ADMIN_ROLE\") */\n      dup2\n      jump\t// out\n        /* \"WallContract.sol\":3828:3900  function pause() public onlyRole(ADMIN_ROLE) {... */\n    tag_68:\n        /* \"WallContract.sol\":511:534  keccak256(\"ADMIN_ROLE\") */\n      0xa49807205ce4d355092ef5a8a18f56e8913cf4a201fbe287825b095693c21775\n        /* \"@openzeppelin/contracts/access/AccessControl.sol\":2464:2480  _checkRole(role) */\n      tag_139\n        /* \"@openzeppelin/contracts/access/AccessControl.sol\":2475:2479  role */\n      dup2\n        /* \"@openzeppelin/contracts/access/AccessControl.sol\":2464:2474  _checkRole */\n      tag_117\n        /* \"@openzeppelin/contracts/access/AccessControl.sol\":2464:2480  _checkRole(role) */\n      jump\t// in\n    tag_139:\n        /* \"WallContract.sol\":3884:3892  _pause() */\n      tag_141\n        /* \"WallContract.sol\":3884:3890  _pause */\n      tag_142\n        /* \"WallContract.sol\":3884:3892  _pause() */\n      jump\t// in\n    tag_141:\n        /* \"WallContract.sol\":3828:3900  function pause() public onlyRole(ADMIN_ROLE) {... */\n      pop\n      jump\t// out\n        /* \"@openzeppelin/contracts/access/AccessControl.sol\":2854:2990  function hasRole(bytes32 role, address account) public view virtual returns (bool) {... */\n    tag_71:\n        /* \"@openzeppelin/contracts/access/AccessControl.sol\":2931:2935  bool */\n      0x00\n        /* \"@openzeppelin/contracts/access/AccessControl.sol\":2954:2960  _roles */\n      dup1\n        /* \"@openzeppelin/contracts/access/AccessControl.sol\":2954:2966  _roles[role] */\n      0x00\n        /* \"@openzeppelin/contracts/access/AccessControl.sol\":2961:2965  role */\n      dup5\n        /* \"@openzeppelin/contracts/access/AccessControl.sol\":2954:2966  _roles[role] */\n      dup2\n      mstore\n      0x20\n      add\n      swap1\n      dup2\n      mstore\n      0x20\n      add\n      0x00\n      keccak256\n        /* \"@openzeppelin/contracts/access/AccessControl.sol\":2954:2974  _roles[role].hasRole */\n      0x00\n      add\n        /* \"@openzeppelin/contracts/access/AccessControl.sol\":2954:2983  _roles[role].hasRole[account] */\n      0x00\n        /* \"@openzeppelin/contracts/access/AccessControl.sol\":2975:2982  account */\n      dup4\n        /* \"@openzeppelin/contracts/access/AccessControl.sol\":2954:2983  _roles[role].hasRole[account] */\n      0xffffffffffffffffffffffffffffffffffffffff\n      and\n      0xffffffffffffffffffffffffffffffffffffffff\n      and\n      dup2\n      mstore\n      0x20\n      add\n      swap1\n      dup2\n      mstore\n      0x20\n      add\n      0x00\n      keccak256\n      0x00\n      swap1\n      sload\n      swap1\n      0x0100\n      exp\n      swap1\n      div\n      0xff\n      and\n        /* \"@openzeppelin/contracts/access/AccessControl.sol\":2947:2983  return _roles[role].hasRole[account] */\n      swap1\n      pop\n        /* \"@openzeppelin/contracts/access/AccessControl.sol\":2854:2990  function hasRole(bytes32 role, address account) public view virtual returns (bool) {... */\n      swap3\n      swap2\n      pop\n      pop\n      jump\t// out\n        /* \"WallContract.sol\":541:611  bytes32 public constant WALL_OWNER_ROLE = keccak256(\"WALL_OWNER_ROLE\") */\n    tag_74:\n        /* \"WallContract.sol\":583:611  keccak256(\"WALL_OWNER_ROLE\") */\n      0x329c74013ba5a00a181f8b3dc9d0ae428c8a88ad0625246c0382e31759b580db\n        /* \"WallContract.sol\":541:611  bytes32 public constant WALL_OWNER_ROLE = keccak256(\"WALL_OWNER_ROLE\") */\n      dup2\n      jump\t// out\n        /* \"WallContract.sol\":3391:3747  function transferWall(uint256 _wallId, address _newOwner) public {... */\n    tag_79:\n        /* \"WallContract.sol\":3485:3486  0 */\n      0x00\n        /* \"WallContract.sol\":3475:3482  _wallId */\n      dup3\n        /* \"WallContract.sol\":3475:3486  _wallId > 0 */\n      gt\n        /* \"WallContract.sol\":3475:3512  _wallId > 0 && _wallId <= wallCounter */\n      dup1\n      iszero\n      tag_145\n      jumpi\n      pop\n        /* \"WallContract.sol\":3501:3512  wallCounter */\n      sload(0x02)\n        /* \"WallContract.sol\":3490:3497  _wallId */\n      dup3\n        /* \"WallContract.sol\":3490:3512  _wallId <= wallCounter */\n      gt\n      iszero\n        /* \"WallContract.sol\":3475:3512  _wallId > 0 && _wallId <= wallCounter */\n    tag_145:\n        /* \"WallContract.sol\":3467:3532  require(_wallId > 0 && _wallId <= wallCounter, \"Invalid wall ID\") */\n      tag_146\n      jumpi\n      mload(0x40)\n      0x08c379a000000000000000000000000000000000000000000000000000000000\n      dup2\n      mstore\n      0x04\n      add\n      tag_147\n      swap1\n      tag_106\n      jump\t// in\n    tag_147:\n      mload(0x40)\n      dup1\n      swap2\n      sub\n      swap1\n      revert\n    tag_146:\n        /* \"WallContract.sol\":3575:3585  msg.sender */\n      caller\n        /* \"WallContract.sol\":3551:3585  walls[_wallId].owner == msg.sender */\n      0xffffffffffffffffffffffffffffffffffffffff\n      and\n        /* \"WallContract.sol\":3551:3556  walls */\n      0x03\n        /* \"WallContract.sol\":3551:3565  walls[_wallId] */\n      0x00\n        /* \"WallContract.sol\":3557:3564  _wallId */\n      dup5\n        /* \"WallContract.sol\":3551:3565  walls[_wallId] */\n      dup2\n      mstore\n      0x20\n      add\n      swap1\n      dup2\n      mstore\n      0x20\n      add\n      0x00\n      keccak256\n        /* \"WallContract.sol\":3551:3571  walls[_wallId].owner */\n      0x01\n      add\n      0x00\n      swap1\n      sload\n      swap1\n      0x0100\n      exp\n      swap1\n      div\n      0xffffffffffffffffffffffffffffffffffffffff\n      and\n        /* \"WallContract.sol\":3551:3585  walls[_wallId].owner == msg.sender */\n      0xffffffffffffffffffffffffffffffffffffffff\n      and\n      eq\n        /* \"WallContract.sol\":3543:3624  require(walls[_wallId].owner == msg.sender, \"You are not the owner of this wall\") */\n      tag_148\n      jumpi\n      mload(0x40)\n      0x08c379a000000000000000000000000000000000000000000000000000000000\n      dup2\n      mstore\n      0x04\n      add\n      tag_149\n      swap1\n      tag_150\n      jump\t// in\n    tag_149:\n      mload(0x40)\n      dup1\n      swap2\n      sub\n      swap1\n      revert\n    tag_148:\n        /* \"WallContract.sol\":3664:3665  0 */\n      0x00\n        /* \"WallContract.sol\":3643:3666  _newOwner != address(0) */\n      0xffffffffffffffffffffffffffffffffffffffff\n      and\n        /* \"WallContract.sol\":3643:3652  _newOwner */\n      dup2\n        /* \"WallContract.sol\":3643:3666  _newOwner != address(0) */\n      0xffffffffffffffffffffffffffffffffffffffff\n      and\n      sub\n        /* \"WallContract.sol\":3635:3696  require(_newOwner != address(0), \"Invalid new owner address\") */\n      tag_151\n      jumpi\n      mload(0x40)\n      0x08c379a000000000000000000000000000000000000000000000000000000000\n      dup2\n      mstore\n      0x04\n      add\n      tag_152\n      swap1\n      tag_153\n      jump\t// in\n    tag_152:\n      mload(0x40)\n      dup1\n      swap2\n      sub\n      swap1\n      revert\n    tag_151:\n        /* \"WallContract.sol\":3730:3739  _newOwner */\n      dup1\n        /* \"WallContract.sol\":3707:3712  walls */\n      0x03\n        /* \"WallContract.sol\":3707:3721  walls[_wallId] */\n      0x00\n        /* \"WallContract.sol\":3713:3720  _wallId */\n      dup5\n        /* \"WallContract.sol\":3707:3721  walls[_wallId] */\n      dup2\n      mstore\n      0x20\n      add\n      swap1\n      dup2\n      mstore\n      0x20\n      add\n      0x00\n      keccak256\n        /* \"WallContract.sol\":3707:3727  walls[_wallId].owner */\n      0x01\n      add\n      0x00\n        /* \"WallContract.sol\":3707:3739  walls[_wallId].owner = _newOwner */\n      0x0100\n      exp\n      dup2\n      sload\n      dup2\n      0xffffffffffffffffffffffffffffffffffffffff\n      mul\n      not\n      and\n      swap1\n      dup4\n      0xffffffffffffffffffffffffffffffffffffffff\n      and\n      mul\n      or\n      swap1\n      sstore\n      pop\n        /* \"WallContract.sol\":3391:3747  function transferWall(uint256 _wallId, address _newOwner) public {... */\n      pop\n      pop\n      jump\t// out\n        /* \"@openzeppelin/contracts/access/AccessControl.sol\":2187:2236  bytes32 public constant DEFAULT_ADMIN_ROLE = 0x00 */\n    tag_81:\n        /* \"@openzeppelin/contracts/access/AccessControl.sol\":2232:2236  0x00 */\n      0x00\n        /* \"@openzeppelin/contracts/access/AccessControl.sol\":2187:2236  bytes32 public constant DEFAULT_ADMIN_ROLE = 0x00 */\n      dup1\n      shl\n      dup2\n      jump\t// out\n        /* \"WallContract.sol\":1806:2154  function submitWallRequest(string memory _metadata) public {... */\n    tag_86:\n        /* \"WallContract.sol\":1884:1895  roleManager */\n      0x01\n      dup1\n      sload\n      swap1\n      0x0100\n      exp\n      swap1\n      div\n      0xffffffffffffffffffffffffffffffffffffffff\n      and\n        /* \"WallContract.sol\":1884:1903  roleManager.hasRole */\n      0xffffffffffffffffffffffffffffffffffffffff\n      and\n      0x91d14854\n        /* \"WallContract.sol\":583:611  keccak256(\"WALL_OWNER_ROLE\") */\n      0x329c74013ba5a00a181f8b3dc9d0ae428c8a88ad0625246c0382e31759b580db\n        /* \"WallContract.sol\":1921:1931  msg.sender */\n      caller\n        /* \"WallContract.sol\":1884:1932  roleManager.hasRole(WALL_OWNER_ROLE, msg.sender) */\n      mload(0x40)\n      dup4\n      0xffffffff\n      and\n      0xe0\n      shl\n      dup2\n      mstore\n      0x04\n      add\n      tag_155\n      swap3\n      swap2\n      swap1\n      tag_156\n      jump\t// in\n    tag_155:\n      0x20\n      mload(0x40)\n      dup1\n      dup4\n      sub\n      dup2\n      dup7\n      gas\n      staticcall\n      iszero\n      dup1\n      iszero\n      tag_158\n      jumpi\n      returndatasize\n      0x00\n      dup1\n      returndatacopy\n      revert(0x00, returndatasize)\n    tag_158:\n      pop\n      pop\n      pop\n      pop\n      mload(0x40)\n      returndatasize\n      not(0x1f)\n      0x1f\n      dup3\n      add\n      and\n      dup3\n      add\n      dup1\n      0x40\n      mstore\n      pop\n      dup2\n      add\n      swap1\n      tag_159\n      swap2\n      swap1\n      tag_160\n      jump\t// in\n    tag_159:\n        /* \"WallContract.sol\":1876:1973  require(roleManager.hasRole(WALL_OWNER_ROLE, msg.sender), \"Caller does not have WALL_OWNER_ROLE\") */\n      tag_161\n      jumpi\n      mload(0x40)\n      0x08c379a000000000000000000000000000000000000000000000000000000000\n      dup2\n      mstore\n      0x04\n      add\n      tag_162\n      swap1\n      tag_163\n      jump\t// in\n    tag_162:\n      mload(0x40)\n      dup1\n      swap2\n      sub\n      swap1\n      revert\n    tag_161:\n        /* \"WallContract.sol\":1984:1995  wallCounter */\n      0x02\n      0x00\n        /* \"WallContract.sol\":1984:1997  wallCounter++ */\n      dup2\n      sload\n      dup1\n      swap3\n      swap2\n      swap1\n      tag_164\n      swap1\n      tag_165\n      jump\t// in\n    tag_164:\n      swap2\n      swap1\n      pop\n      sstore\n      pop\n        /* \"WallContract.sol\":2029:2076  Wall(wallCounter, msg.sender, _metadata, false) */\n      mload(0x40)\n      dup1\n      0x80\n      add\n      0x40\n      mstore\n      dup1\n        /* \"WallContract.sol\":2034:2045  wallCounter */\n      sload(0x02)\n        /* \"WallContract.sol\":2029:2076  Wall(wallCounter, msg.sender, _metadata, false) */\n      dup2\n      mstore\n      0x20\n      add\n        /* \"WallContract.sol\":2047:2057  msg.sender */\n      caller\n        /* \"WallContract.sol\":2029:2076  Wall(wallCounter, msg.sender, _metadata, false) */\n      0xffffffffffffffffffffffffffffffffffffffff\n      and\n      dup2\n      mstore\n      0x20\n      add\n        /* \"WallContract.sol\":2059:2068  _metadata */\n      dup3\n        /* \"WallContract.sol\":2029:2076  Wall(wallCounter, msg.sender, _metadata, false) */\n      dup2\n      mstore\n      0x20\n      add\n        /* \"WallContract.sol\":2070:2075  false */\n      0x00\n        /* \"WallContract.sol\":2029:2076  Wall(wallCounter, msg.sender, _metadata, false) */\n      iszero\n      iszero\n      dup2\n      mstore\n      pop\n        /* \"WallContract.sol\":2008:2013  walls */\n      0x03\n        /* \"WallContract.sol\":2008:2026  walls[wallCounter] */\n      0x00\n        /* \"WallContract.sol\":2014:2025  wallCounter */\n      sload(0x02)\n        /* \"WallContract.sol\":2008:2026  walls[wallCounter] */\n      dup2\n      mstore\n      0x20\n      add\n      swap1\n      dup2\n      mstore\n      0x20\n      add\n      0x00\n      keccak256\n        /* \"WallContract.sol\":2008:2076  walls[wallCounter] = Wall(wallCounter, msg.sender, _metadata, false) */\n      0x00\n      dup3\n      add\n      mload\n      dup2\n      0x00\n      add\n      sstore\n      0x20\n      dup3\n      add\n      mload\n      dup2\n      0x01\n      add\n      exp(0x0100, 0x00)\n      dup2\n      sload\n      dup2\n      0xffffffffffffffffffffffffffffffffffffffff\n      mul\n      not\n      and\n      swap1\n      dup4\n      0xffffffffffffffffffffffffffffffffffffffff\n      and\n      mul\n      or\n      swap1\n      sstore\n      pop\n      0x40\n      dup3\n      add\n      mload\n      dup2\n      0x02\n      add\n      swap1\n      dup2\n      tag_166\n      swap2\n      swap1\n      tag_167\n      jump\t// in\n    tag_166:\n      pop\n      0x60\n      dup3\n      add\n      mload\n      dup2\n      0x03\n      add\n      exp(0x0100, 0x00)\n      dup2\n      sload\n      dup2\n      0xff\n      mul\n      not\n      and\n      swap1\n      dup4\n      iszero\n      iszero\n      mul\n      or\n      swap1\n      sstore\n      pop\n      swap1\n      pop\n      pop\n        /* \"WallContract.sol\":2124:2134  msg.sender */\n      caller\n        /* \"WallContract.sol\":2092:2146  WallRequestCreated(wallCounter, msg.sender, _metadata) */\n      0xffffffffffffffffffffffffffffffffffffffff\n      and\n        /* \"WallContract.sol\":2111:2122  wallCounter */\n      sload(0x02)\n        /* \"WallContract.sol\":2092:2146  WallRequestCreated(wallCounter, msg.sender, _metadata) */\n      0xce4e10f97ba900058d5e841de15ec6d2adb9dfdbfc3bff978ffe3a77ed5f4c9d\n        /* \"WallContract.sol\":2136:2145  _metadata */\n      dup4\n        /* \"WallContract.sol\":2092:2146  WallRequestCreated(wallCounter, msg.sender, _metadata) */\n      mload(0x40)\n      tag_168\n      swap2\n      swap1\n      tag_169\n      jump\t// in\n    tag_168:\n      mload(0x40)\n      dup1\n      swap2\n      sub\n      swap1\n      log3\n        /* \"WallContract.sol\":1806:2154  function submitWallRequest(string memory _metadata) public {... */\n      pop\n      jump\t// out\n        /* \"WallContract.sol\":2228:2650  function approveWallRequest(uint256 _wallId) public{... */\n    tag_89:\n        /* \"WallContract.sol\":2298:2309  roleManager */\n      0x01\n      dup1\n      sload\n      swap1\n      0x0100\n      exp\n      swap1\n      div\n      0xffffffffffffffffffffffffffffffffffffffff\n      and\n        /* \"WallContract.sol\":2298:2317  roleManager.hasRole */\n      0xffffffffffffffffffffffffffffffffffffffff\n      and\n      0x91d14854\n        /* \"WallContract.sol\":511:534  keccak256(\"ADMIN_ROLE\") */\n      0xa49807205ce4d355092ef5a8a18f56e8913cf4a201fbe287825b095693c21775\n        /* \"WallContract.sol\":2330:2340  msg.sender */\n      caller\n        /* \"WallContract.sol\":2298:2341  roleManager.hasRole(ADMIN_ROLE, msg.sender) */\n      mload(0x40)\n      dup4\n      0xffffffff\n      and\n      0xe0\n      shl\n      dup2\n      mstore\n      0x04\n      add\n      tag_171\n      swap3\n      swap2\n      swap1\n      tag_156\n      jump\t// in\n    tag_171:\n      0x20\n      mload(0x40)\n      dup1\n      dup4\n      sub\n      dup2\n      dup7\n      gas\n      staticcall\n      iszero\n      dup1\n      iszero\n      tag_173\n      jumpi\n      returndatasize\n      0x00\n      dup1\n      returndatacopy\n      revert(0x00, returndatasize)\n    tag_173:\n      pop\n      pop\n      pop\n      pop\n      mload(0x40)\n      returndatasize\n      not(0x1f)\n      0x1f\n      dup3\n      add\n      and\n      dup3\n      add\n      dup1\n      0x40\n      mstore\n      pop\n      dup2\n      add\n      swap1\n      tag_174\n      swap2\n      swap1\n      tag_160\n      jump\t// in\n    tag_174:\n        /* \"WallContract.sol\":2290:2381  require(roleManager.hasRole(ADMIN_ROLE, msg.sender),\"Caller does not have WALL_OWNER_ROLE\") */\n      tag_175\n      jumpi\n      mload(0x40)\n      0x08c379a000000000000000000000000000000000000000000000000000000000\n      dup2\n      mstore\n      0x04\n      add\n      tag_176\n      swap1\n      tag_163\n      jump\t// in\n    tag_176:\n      mload(0x40)\n      dup1\n      swap2\n      sub\n      swap1\n      revert\n    tag_175:\n        /* \"WallContract.sol\":2410:2411  0 */\n      0x00\n        /* \"WallContract.sol\":2400:2407  _wallId */\n      dup2\n        /* \"WallContract.sol\":2400:2411  _wallId > 0 */\n      gt\n        /* \"WallContract.sol\":2400:2437  _wallId > 0 && _wallId <= wallCounter */\n      dup1\n      iszero\n      tag_177\n      jumpi\n      pop\n        /* \"WallContract.sol\":2426:2437  wallCounter */\n      sload(0x02)\n        /* \"WallContract.sol\":2415:2422  _wallId */\n      dup2\n        /* \"WallContract.sol\":2415:2437  _wallId <= wallCounter */\n      gt\n      iszero\n        /* \"WallContract.sol\":2400:2437  _wallId > 0 && _wallId <= wallCounter */\n    tag_177:\n        /* \"WallContract.sol\":2392:2457  require(_wallId > 0 && _wallId <= wallCounter, \"Invalid wall ID\") */\n      tag_178\n      jumpi\n      mload(0x40)\n      0x08c379a000000000000000000000000000000000000000000000000000000000\n      dup2\n      mstore\n      0x04\n      add\n      tag_179\n      swap1\n      tag_106\n      jump\t// in\n    tag_179:\n      mload(0x40)\n      dup1\n      swap2\n      sub\n      swap1\n      revert\n    tag_178:\n        /* \"WallContract.sol\":2468:2485  Wall storage wall */\n      0x00\n        /* \"WallContract.sol\":2488:2493  walls */\n      0x03\n        /* \"WallContract.sol\":2488:2502  walls[_wallId] */\n      0x00\n        /* \"WallContract.sol\":2494:2501  _wallId */\n      dup4\n        /* \"WallContract.sol\":2488:2502  walls[_wallId] */\n      dup2\n      mstore\n      0x20\n      add\n      swap1\n      dup2\n      mstore\n      0x20\n      add\n      0x00\n      keccak256\n        /* \"WallContract.sol\":2468:2502  Wall storage wall = walls[_wallId] */\n      swap1\n      pop\n        /* \"WallContract.sol\":2522:2526  wall */\n      dup1\n        /* \"WallContract.sol\":2522:2535  wall.approved */\n      0x03\n      add\n      0x00\n      swap1\n      sload\n      swap1\n      0x0100\n      exp\n      swap1\n      div\n      0xff\n      and\n        /* \"WallContract.sol\":2521:2535  !wall.approved */\n      iszero\n        /* \"WallContract.sol\":2513:2561  require(!wall.approved, \"Wall already approved\") */\n      tag_180\n      jumpi\n      mload(0x40)\n      0x08c379a000000000000000000000000000000000000000000000000000000000\n      dup2\n      mstore\n      0x04\n      add\n      tag_181\n      swap1\n      tag_182\n      jump\t// in\n    tag_181:\n      mload(0x40)\n      dup1\n      swap2\n      sub\n      swap1\n      revert\n    tag_180:\n        /* \"WallContract.sol\":2588:2592  true */\n      0x01\n        /* \"WallContract.sol\":2572:2576  wall */\n      dup2\n        /* \"WallContract.sol\":2572:2585  wall.approved */\n      0x03\n      add\n      0x00\n        /* \"WallContract.sol\":2572:2592  wall.approved = true */\n      0x0100\n      exp\n      dup2\n      sload\n      dup2\n      0xff\n      mul\n      not\n      and\n      swap1\n      dup4\n      iszero\n      iszero\n      mul\n      or\n      swap1\n      sstore\n      pop\n        /* \"WallContract.sol\":2628:2635  _wallId */\n      dup2\n        /* \"WallContract.sol\":2608:2642  WallRequestReviewed(_wallId, true) */\n      0xf72ceb6c5d78f67960e7ff1de4b8e1657ebeec4c570a20c4630697e13bee9473\n        /* \"WallContract.sol\":2637:2641  true */\n      0x01\n        /* \"WallContract.sol\":2608:2642  WallRequestReviewed(_wallId, true) */\n      mload(0x40)\n      tag_183\n      swap2\n      swap1\n      tag_34\n      jump\t// in\n    tag_183:\n      mload(0x40)\n      dup1\n      swap2\n      sub\n      swap1\n      log2\n        /* \"WallContract.sol\":2279:2650  {... */\n      pop\n        /* \"WallContract.sol\":2228:2650  function approveWallRequest(uint256 _wallId) public{... */\n      pop\n      jump\t// out\n        /* \"@openzeppelin/contracts/access/AccessControl.sol\":4642:4780  function revokeRole(bytes32 role, address account) public virtual onlyRole(getRoleAdmin(role)) {... */\n    tag_92:\n        /* \"@openzeppelin/contracts/access/AccessControl.sol\":4717:4735  getRoleAdmin(role) */\n      tag_184\n        /* \"@openzeppelin/contracts/access/AccessControl.sol\":4730:4734  role */\n      dup3\n        /* \"@openzeppelin/contracts/access/AccessControl.sol\":4717:4729  getRoleAdmin */\n      tag_44\n        /* \"@openzeppelin/contracts/access/AccessControl.sol\":4717:4735  getRoleAdmin(role) */\n      jump\t// in\n    tag_184:\n        /* \"@openzeppelin/contracts/access/AccessControl.sol\":2464:2480  _checkRole(role) */\n      tag_186\n        /* \"@openzeppelin/contracts/access/AccessControl.sol\":2475:2479  role */\n      dup2\n        /* \"@openzeppelin/contracts/access/AccessControl.sol\":2464:2474  _checkRole */\n      tag_117\n        /* \"@openzeppelin/contracts/access/AccessControl.sol\":2464:2480  _checkRole(role) */\n      jump\t// in\n    tag_186:\n        /* \"@openzeppelin/contracts/access/AccessControl.sol\":4747:4773  _revokeRole(role, account) */\n      tag_188\n        /* \"@openzeppelin/contracts/access/AccessControl.sol\":4759:4763  role */\n      dup4\n        /* \"@openzeppelin/contracts/access/AccessControl.sol\":4765:4772  account */\n      dup4\n        /* \"@openzeppelin/contracts/access/AccessControl.sol\":4747:4758  _revokeRole */\n      tag_126\n        /* \"@openzeppelin/contracts/access/AccessControl.sol\":4747:4773  _revokeRole(role, account) */\n      jump\t// in\n    tag_188:\n      pop\n        /* \"@openzeppelin/contracts/access/AccessControl.sol\":4642:4780  function revokeRole(bytes32 role, address account) public virtual onlyRole(getRoleAdmin(role)) {... */\n      pop\n      pop\n      pop\n      jump\t// out\n        /* \"WallContract.sol\":2723:3066  function rejectWallRequest(uint256 _wallId) public onlyRole(ADMIN_ROLE) {... */\n    tag_95:\n        /* \"WallContract.sol\":511:534  keccak256(\"ADMIN_ROLE\") */\n      0xa49807205ce4d355092ef5a8a18f56e8913cf4a201fbe287825b095693c21775\n        /* \"@openzeppelin/contracts/access/AccessControl.sol\":2464:2480  _checkRole(role) */\n      tag_190\n        /* \"@openzeppelin/contracts/access/AccessControl.sol\":2475:2479  role */\n      dup2\n        /* \"@openzeppelin/contracts/access/AccessControl.sol\":2464:2474  _checkRole */\n      tag_117\n        /* \"@openzeppelin/contracts/access/AccessControl.sol\":2464:2480  _checkRole(role) */\n      jump\t// in\n    tag_190:\n        /* \"WallContract.sol\":2824:2825  0 */\n      0x00\n        /* \"WallContract.sol\":2814:2821  _wallId */\n      dup3\n        /* \"WallContract.sol\":2814:2825  _wallId > 0 */\n      gt\n        /* \"WallContract.sol\":2814:2851  _wallId > 0 && _wallId <= wallCounter */\n      dup1\n      iszero\n      tag_192\n      jumpi\n      pop\n        /* \"WallContract.sol\":2840:2851  wallCounter */\n      sload(0x02)\n        /* \"WallContract.sol\":2829:2836  _wallId */\n      dup3\n        /* \"WallContract.sol\":2829:2851  _wallId <= wallCounter */\n      gt\n      iszero\n        /* \"WallContract.sol\":2814:2851  _wallId > 0 && _wallId <= wallCounter */\n    tag_192:\n        /* \"WallContract.sol\":2806:2871  require(_wallId > 0 && _wallId <= wallCounter, \"Invalid wall ID\") */\n      tag_193\n      jumpi\n      mload(0x40)\n      0x08c379a000000000000000000000000000000000000000000000000000000000\n      dup2\n      mstore\n      0x04\n      add\n      tag_194\n      swap1\n      tag_106\n      jump\t// in\n    tag_194:\n      mload(0x40)\n      dup1\n      swap2\n      sub\n      swap1\n      revert\n    tag_193:\n        /* \"WallContract.sol\":2882:2899  Wall storage wall */\n      0x00\n        /* \"WallContract.sol\":2902:2907  walls */\n      0x03\n        /* \"WallContract.sol\":2902:2916  walls[_wallId] */\n      0x00\n        /* \"WallContract.sol\":2908:2915  _wallId */\n      dup5\n        /* \"WallContract.sol\":2902:2916  walls[_wallId] */\n      dup2\n      mstore\n      0x20\n      add\n      swap1\n      dup2\n      mstore\n      0x20\n      add\n      0x00\n      keccak256\n        /* \"WallContract.sol\":2882:2916  Wall storage wall = walls[_wallId] */\n      swap1\n      pop\n        /* \"WallContract.sol\":2936:2940  wall */\n      dup1\n        /* \"WallContract.sol\":2936:2949  wall.approved */\n      0x03\n      add\n      0x00\n      swap1\n      sload\n      swap1\n      0x0100\n      exp\n      swap1\n      div\n      0xff\n      and\n        /* \"WallContract.sol\":2935:2949  !wall.approved */\n      iszero\n        /* \"WallContract.sol\":2927:2975  require(!wall.approved, \"Wall already approved\") */\n      tag_195\n      jumpi\n      mload(0x40)\n      0x08c379a000000000000000000000000000000000000000000000000000000000\n      dup2\n      mstore\n      0x04\n      add\n      tag_196\n      swap1\n      tag_182\n      jump\t// in\n    tag_196:\n      mload(0x40)\n      dup1\n      swap2\n      sub\n      swap1\n      revert\n    tag_195:\n        /* \"WallContract.sol\":2993:2998  walls */\n      0x03\n        /* \"WallContract.sol\":2993:3007  walls[_wallId] */\n      0x00\n        /* \"WallContract.sol\":2999:3006  _wallId */\n      dup5\n        /* \"WallContract.sol\":2993:3007  walls[_wallId] */\n      dup2\n      mstore\n      0x20\n      add\n      swap1\n      dup2\n      mstore\n      0x20\n      add\n      0x00\n      keccak256\n      0x00\n        /* \"WallContract.sol\":2986:3007  delete walls[_wallId] */\n      dup1\n      dup3\n      add\n      0x00\n      swap1\n      sstore\n      0x01\n      dup3\n      add\n      exp(0x0100, 0x00)\n      dup2\n      sload\n      swap1\n      0xffffffffffffffffffffffffffffffffffffffff\n      mul\n      not\n      and\n      swap1\n      sstore\n      0x02\n      dup3\n      add\n      0x00\n      tag_197\n      swap2\n      swap1\n      tag_198\n      jump\t// in\n    tag_197:\n      0x03\n      dup3\n      add\n      exp(0x0100, 0x00)\n      dup2\n      sload\n      swap1\n      0xff\n      mul\n      not\n      and\n      swap1\n      sstore\n      pop\n      pop\n        /* \"WallContract.sol\":3043:3050  _wallId */\n      dup3\n        /* \"WallContract.sol\":3023:3058  WallRequestReviewed(_wallId, false) */\n      0xf72ceb6c5d78f67960e7ff1de4b8e1657ebeec4c570a20c4630697e13bee9473\n        /* \"WallContract.sol\":3052:3057  false */\n      0x00\n        /* \"WallContract.sol\":3023:3058  WallRequestReviewed(_wallId, false) */\n      mload(0x40)\n      tag_199\n      swap2\n      swap1\n      tag_34\n      jump\t// in\n    tag_199:\n      mload(0x40)\n      dup1\n      swap2\n      sub\n      swap1\n      log2\n        /* \"WallContract.sol\":2795:3066  {... */\n      pop\n        /* \"WallContract.sol\":2723:3066  function rejectWallRequest(uint256 _wallId) public onlyRole(ADMIN_ROLE) {... */\n      pop\n      pop\n      jump\t// out\n        /* \"@openzeppelin/contracts/utils/introspection/ERC165.sol\":763:909  function supportsInterface(bytes4 interfaceId) public view virtual returns (bool) {... */\n    tag_99:\n        /* \"@openzeppelin/contracts/utils/introspection/ERC165.sol\":839:843  bool */\n      0x00\n        /* \"@openzeppelin/contracts/utils/introspection/ERC165.sol\":877:902  type(IERC165).interfaceId */\n      0x01ffc9a700000000000000000000000000000000000000000000000000000000\n        /* \"@openzeppelin/contracts/utils/introspection/ERC165.sol\":862:902  interfaceId == type(IERC165).interfaceId */\n      not(0xffffffffffffffffffffffffffffffffffffffffffffffffffffffff)\n      and\n        /* \"@openzeppelin/contracts/utils/introspection/ERC165.sol\":862:873  interfaceId */\n      dup3\n        /* \"@openzeppelin/contracts/utils/introspection/ERC165.sol\":862:902  interfaceId == type(IERC165).interfaceId */\n      not(0xffffffffffffffffffffffffffffffffffffffffffffffffffffffff)\n      and\n      eq\n        /* \"@openzeppelin/contracts/utils/introspection/ERC165.sol\":855:902  return interfaceId == type(IERC165).interfaceId */\n      swap1\n      pop\n        /* \"@openzeppelin/contracts/utils/introspection/ERC165.sol\":763:909  function supportsInterface(bytes4 interfaceId) public view virtual returns (bool) {... */\n      swap2\n      swap1\n      pop\n      jump\t// out\n        /* \"@openzeppelin/contracts/access/AccessControl.sol\":3199:3302  function _checkRole(bytes32 role) internal view virtual {... */\n    tag_117:\n        /* \"@openzeppelin/contracts/access/AccessControl.sol\":3265:3295  _checkRole(role, _msgSender()) */\n      tag_202\n        /* \"@openzeppelin/contracts/access/AccessControl.sol\":3276:3280  role */\n      dup2\n        /* \"@openzeppelin/contracts/access/AccessControl.sol\":3282:3294  _msgSender() */\n      tag_203\n        /* \"@openzeppelin/contracts/access/AccessControl.sol\":3282:3292  _msgSender */\n      tag_123\n        /* \"@openzeppelin/contracts/access/AccessControl.sol\":3282:3294  _msgSender() */\n      jump\t// in\n    tag_203:\n        /* \"@openzeppelin/contracts/access/AccessControl.sol\":3265:3275  _checkRole */\n      tag_204\n        /* \"@openzeppelin/contracts/access/AccessControl.sol\":3265:3295  _checkRole(role, _msgSender()) */\n      jump\t// in\n    tag_202:\n        /* \"@openzeppelin/contracts/access/AccessControl.sol\":3199:3302  function _checkRole(bytes32 role) internal view virtual {... */\n      pop\n      jump\t// out\n        /* \"@openzeppelin/contracts/access/AccessControl.sol\":6179:6495  function _grantRole(bytes32 role, address account) internal virtual returns (bool) {... */\n    tag_120:\n        /* \"@openzeppelin/contracts/access/AccessControl.sol\":6256:6260  bool */\n      0x00\n        /* \"@openzeppelin/contracts/access/AccessControl.sol\":6277:6299  hasRole(role, account) */\n      tag_206\n        /* \"@openzeppelin/contracts/access/AccessControl.sol\":6285:6289  role */\n      dup4\n        /* \"@openzeppelin/contracts/access/AccessControl.sol\":6291:6298  account */\n      dup4\n        /* \"@openzeppelin/contracts/access/AccessControl.sol\":6277:6284  hasRole */\n      tag_71\n        /* \"@openzeppelin/contracts/access/AccessControl.sol\":6277:6299  hasRole(role, account) */\n      jump\t// in\n    tag_206:\n        /* \"@openzeppelin/contracts/access/AccessControl.sol\":6272:6489  if (!hasRole(role, account)) {... */\n      tag_207\n      jumpi\n        /* \"@openzeppelin/contracts/access/AccessControl.sol\":6347:6351  true */\n      0x01\n        /* \"@openzeppelin/contracts/access/AccessControl.sol\":6315:6321  _roles */\n      0x00\n        /* \"@openzeppelin/contracts/access/AccessControl.sol\":6315:6327  _roles[role] */\n      dup1\n        /* \"@openzeppelin/contracts/access/AccessControl.sol\":6322:6326  role */\n      dup6\n        /* \"@openzeppelin/contracts/access/AccessControl.sol\":6315:6327  _roles[role] */\n      dup2\n      mstore\n      0x20\n      add\n      swap1\n      dup2\n      mstore\n      0x20\n      add\n      0x00\n      keccak256\n        /* \"@openzeppelin/contracts/access/AccessControl.sol\":6315:6335  _roles[role].hasRole */\n      0x00\n      add\n        /* \"@openzeppelin/contracts/access/AccessControl.sol\":6315:6344  _roles[role].hasRole[account] */\n      0x00\n        /* \"@openzeppelin/contracts/access/AccessControl.sol\":6336:6343  account */\n      dup5\n        /* \"@openzeppelin/contracts/access/AccessControl.sol\":6315:6344  _roles[role].hasRole[account] */\n      0xffffffffffffffffffffffffffffffffffffffff\n      and\n      0xffffffffffffffffffffffffffffffffffffffff\n      and\n      dup2\n      mstore\n      0x20\n      add\n      swap1\n      dup2\n      mstore\n      0x20\n      add\n      0x00\n      keccak256\n      0x00\n        /* \"@openzeppelin/contracts/access/AccessControl.sol\":6315:6351  _roles[role].hasRole[account] = true */\n      0x0100\n      exp\n      dup2\n      sload\n      dup2\n      0xff\n      mul\n      not\n      and\n      swap1\n      dup4\n      iszero\n      iszero\n      mul\n      or\n      swap1\n      sstore\n      pop\n        /* \"@openzeppelin/contracts/access/AccessControl.sol\":6397:6409  _msgSender() */\n      tag_208\n        /* \"@openzeppelin/contracts/access/AccessControl.sol\":6397:6407  _msgSender */\n      tag_123\n        /* \"@openzeppelin/contracts/access/AccessControl.sol\":6397:6409  _msgSender() */\n      jump\t// in\n    tag_208:\n        /* \"@openzeppelin/contracts/access/AccessControl.sol\":6370:6410  RoleGranted(role, account, _msgSender()) */\n      0xffffffffffffffffffffffffffffffffffffffff\n      and\n        /* \"@openzeppelin/contracts/access/AccessControl.sol\":6388:6395  account */\n      dup3\n        /* \"@openzeppelin/contracts/access/AccessControl.sol\":6370:6410  RoleGranted(role, account, _msgSender()) */\n      0xffffffffffffffffffffffffffffffffffffffff\n      and\n        /* \"@openzeppelin/contracts/access/AccessControl.sol\":6382:6386  role */\n      dup5\n        /* \"@openzeppelin/contracts/access/AccessControl.sol\":6370:6410  RoleGranted(role, account, _msgSender()) */\n      0x2f8788117e7eff1d82e926ec794901d17c78024a50270940304540a733656f0d\n      mload(0x40)\n      mload(0x40)\n      dup1\n      swap2\n      sub\n      swap1\n      log4\n        /* \"@openzeppelin/contracts/access/AccessControl.sol\":6431:6435  true */\n      0x01\n        /* \"@openzeppelin/contracts/access/AccessControl.sol\":6424:6435  return true */\n      swap1\n      pop\n      jump(tag_205)\n        /* \"@openzeppelin/contracts/access/AccessControl.sol\":6272:6489  if (!hasRole(role, account)) {... */\n    tag_207:\n        /* \"@openzeppelin/contracts/access/AccessControl.sol\":6473:6478  false */\n      0x00\n        /* \"@openzeppelin/contracts/access/AccessControl.sol\":6466:6478  return false */\n      swap1\n      pop\n        /* \"@openzeppelin/contracts/access/AccessControl.sol\":6179:6495  function _grantRole(bytes32 role, address account) internal virtual returns (bool) {... */\n    tag_205:\n      swap3\n      swap2\n      pop\n      pop\n      jump\t// out\n        /* \"@openzeppelin/contracts/utils/Context.sol\":656:752  function _msgSender() internal view virtual returns (address) {... */\n    tag_123:\n        /* \"@openzeppelin/contracts/utils/Context.sol\":709:716  address */\n      0x00\n        /* \"@openzeppelin/contracts/utils/Context.sol\":735:745  msg.sender */\n      caller\n        /* \"@openzeppelin/contracts/utils/Context.sol\":728:745  return msg.sender */\n      swap1\n      pop\n        /* \"@openzeppelin/contracts/utils/Context.sol\":656:752  function _msgSender() internal view virtual returns (address) {... */\n      swap1\n      jump\t// out\n        /* \"@openzeppelin/contracts/access/AccessControl.sol\":6730:7047  function _revokeRole(bytes32 role, address account) internal virtual returns (bool) {... */\n    tag_126:\n        /* \"@openzeppelin/contracts/access/AccessControl.sol\":6808:6812  bool */\n      0x00\n        /* \"@openzeppelin/contracts/access/AccessControl.sol\":6828:6850  hasRole(role, account) */\n      tag_212\n        /* \"@openzeppelin/contracts/access/AccessControl.sol\":6836:6840  role */\n      dup4\n        /* \"@openzeppelin/contracts/access/AccessControl.sol\":6842:6849  account */\n      dup4\n        /* \"@openzeppelin/contracts/access/AccessControl.sol\":6828:6835  hasRole */\n      tag_71\n        /* \"@openzeppelin/contracts/access/AccessControl.sol\":6828:6850  hasRole(role, account) */\n      jump\t// in\n    tag_212:\n        /* \"@openzeppelin/contracts/access/AccessControl.sol\":6824:7041  if (hasRole(role, account)) {... */\n      iszero\n      tag_213\n      jumpi\n        /* \"@openzeppelin/contracts/access/AccessControl.sol\":6898:6903  false */\n      0x00\n        /* \"@openzeppelin/contracts/access/AccessControl.sol\":6866:6872  _roles */\n      dup1\n        /* \"@openzeppelin/contracts/access/AccessControl.sol\":6866:6878  _roles[role] */\n      0x00\n        /* \"@openzeppelin/contracts/access/AccessControl.sol\":6873:6877  role */\n      dup6\n        /* \"@openzeppelin/contracts/access/AccessControl.sol\":6866:6878  _roles[role] */\n      dup2\n      mstore\n      0x20\n      add\n      swap1\n      dup2\n      mstore\n      0x20\n      add\n      0x00\n      keccak256\n        /* \"@openzeppelin/contracts/access/AccessControl.sol\":6866:6886  _roles[role].hasRole */\n      0x00\n      add\n        /* \"@openzeppelin/contracts/access/AccessControl.sol\":6866:6895  _roles[role].hasRole[account] */\n      0x00\n        /* \"@openzeppelin/contracts/access/AccessControl.sol\":6887:6894  account */\n      dup5\n        /* \"@openzeppelin/contracts/access/AccessControl.sol\":6866:6895  _roles[role].hasRole[account] */\n      0xffffffffffffffffffffffffffffffffffffffff\n      and\n      0xffffffffffffffffffffffffffffffffffffffff\n      and\n      dup2\n      mstore\n      0x20\n      add\n      swap1\n      dup2\n      mstore\n      0x20\n      add\n      0x00\n      keccak256\n      0x00\n        /* \"@openzeppelin/contracts/access/AccessControl.sol\":6866:6903  _roles[role].hasRole[account] = false */\n      0x0100\n      exp\n      dup2\n      sload\n      dup2\n      0xff\n      mul\n      not\n      and\n      swap1\n      dup4\n      iszero\n      iszero\n      mul\n      or\n      swap1\n      sstore\n      pop\n        /* \"@openzeppelin/contracts/access/AccessControl.sol\":6949:6961  _msgSender() */\n      tag_214\n        /* \"@openzeppelin/contracts/access/AccessControl.sol\":6949:6959  _msgSender */\n      tag_123\n        /* \"@openzeppelin/contracts/access/AccessControl.sol\":6949:6961  _msgSender() */\n      jump\t// in\n    tag_214:\n        /* \"@openzeppelin/contracts/access/AccessControl.sol\":6922:6962  RoleRevoked(role, account, _msgSender()) */\n      0xffffffffffffffffffffffffffffffffffffffff\n      and\n        /* \"@openzeppelin/contracts/access/AccessControl.sol\":6940:6947  account */\n      dup3\n        /* \"@openzeppelin/contracts/access/AccessControl.sol\":6922:6962  RoleRevoked(role, account, _msgSender()) */\n      0xffffffffffffffffffffffffffffffffffffffff\n      and\n        /* \"@openzeppelin/contracts/access/AccessControl.sol\":6934:6938  role */\n      dup5\n        /* \"@openzeppelin/contracts/access/AccessControl.sol\":6922:6962  RoleRevoked(role, account, _msgSender()) */\n      0xf6391f5c32d9c69d2a47ea670b442974b53935d1edc7fd64eb21e047a839171b\n      mload(0x40)\n      mload(0x40)\n      dup1\n      swap2\n      sub\n      swap1\n      log4\n        /* \"@openzeppelin/contracts/access/AccessControl.sol\":6983:6987  true */\n      0x01\n        /* \"@openzeppelin/contracts/access/AccessControl.sol\":6976:6987  return true */\n      swap1\n      pop\n      jump(tag_211)\n        /* \"@openzeppelin/contracts/access/AccessControl.sol\":6824:7041  if (hasRole(role, account)) {... */\n    tag_213:\n        /* \"@openzeppelin/contracts/access/AccessControl.sol\":7025:7030  false */\n      0x00\n        /* \"@openzeppelin/contracts/access/AccessControl.sol\":7018:7030  return false */\n      swap1\n      pop\n        /* \"@openzeppelin/contracts/access/AccessControl.sol\":6730:7047  function _revokeRole(bytes32 role, address account) internal virtual returns (bool) {... */\n    tag_211:\n      swap3\n      swap2\n      pop\n      pop\n      jump\t// out\n        /* \"@openzeppelin/contracts/security/Pausable.sol\":2433:2550  function _unpause() internal virtual whenPaused {... */\n    tag_131:\n        /* \"@openzeppelin/contracts/security/Pausable.sol\":1486:1502  _requirePaused() */\n      tag_217\n        /* \"@openzeppelin/contracts/security/Pausable.sol\":1486:1500  _requirePaused */\n      tag_218\n        /* \"@openzeppelin/contracts/security/Pausable.sol\":1486:1502  _requirePaused() */\n      jump\t// in\n    tag_217:\n        /* \"@openzeppelin/contracts/security/Pausable.sol\":2501:2506  false */\n      0x00\n        /* \"@openzeppelin/contracts/security/Pausable.sol\":2491:2498  _paused */\n      0x01\n      0x00\n        /* \"@openzeppelin/contracts/security/Pausable.sol\":2491:2506  _paused = false */\n      0x0100\n      exp\n      dup2\n      sload\n      dup2\n      0xff\n      mul\n      not\n      and\n      swap1\n      dup4\n      iszero\n      iszero\n      mul\n      or\n      swap1\n      sstore\n      pop\n        /* \"@openzeppelin/contracts/security/Pausable.sol\":2521:2543  Unpaused(_msgSender()) */\n      0x5db9ee0a495bf2e6ff9c91a7834c1ba4fdd244a5e8aa4e537bd38aeae4b073aa\n        /* \"@openzeppelin/contracts/security/Pausable.sol\":2530:2542  _msgSender() */\n      tag_220\n        /* \"@openzeppelin/contracts/security/Pausable.sol\":2530:2540  _msgSender */\n      tag_123\n        /* \"@openzeppelin/contracts/security/Pausable.sol\":2530:2542  _msgSender() */\n      jump\t// in\n    tag_220:\n        /* \"@openzeppelin/contracts/security/Pausable.sol\":2521:2543  Unpaused(_msgSender()) */\n      mload(0x40)\n      tag_221\n      swap2\n      swap1\n      tag_222\n      jump\t// in\n    tag_221:\n      mload(0x40)\n      dup1\n      swap2\n      sub\n      swap1\n      log1\n        /* \"@openzeppelin/contracts/security/Pausable.sol\":2433:2550  function _unpause() internal virtual whenPaused {... */\n      jump\t// out\n        /* \"@openzeppelin/contracts/security/Pausable.sol\":2186:2301  function _pause() internal virtual whenNotPaused {... */\n    tag_142:\n        /* \"@openzeppelin/contracts/security/Pausable.sol\":1239:1258  _requireNotPaused() */\n      tag_224\n        /* \"@openzeppelin/contracts/security/Pausable.sol\":1239:1256  _requireNotPaused */\n      tag_225\n        /* \"@openzeppelin/contracts/security/Pausable.sol\":1239:1258  _requireNotPaused() */\n      jump\t// in\n    tag_224:\n        /* \"@openzeppelin/contracts/security/Pausable.sol\":2255:2259  true */\n      0x01\n        /* \"@openzeppelin/contracts/security/Pausable.sol\":2245:2252  _paused */\n      dup1\n      0x00\n        /* \"@openzeppelin/contracts/security/Pausable.sol\":2245:2259  _paused = true */\n      0x0100\n      exp\n      dup2\n      sload\n      dup2\n      0xff\n      mul\n      not\n      and\n      swap1\n      dup4\n      iszero\n      iszero\n      mul\n      or\n      swap1\n      sstore\n      pop\n        /* \"@openzeppelin/contracts/security/Pausable.sol\":2274:2294  Paused(_msgSender()) */\n      0x62e78cea01bee320cd4e420270b5ea74000d11b0c9f74754ebdbfc544b05a258\n        /* \"@openzeppelin/contracts/security/Pausable.sol\":2281:2293  _msgSender() */\n      tag_227\n        /* \"@openzeppelin/contracts/security/Pausable.sol\":2281:2291  _msgSender */\n      tag_123\n        /* \"@openzeppelin/contracts/security/Pausable.sol\":2281:2293  _msgSender() */\n      jump\t// in\n    tag_227:\n        /* \"@openzeppelin/contracts/security/Pausable.sol\":2274:2294  Paused(_msgSender()) */\n      mload(0x40)\n      tag_228\n      swap2\n      swap1\n      tag_222\n      jump\t// in\n    tag_228:\n      mload(0x40)\n      dup1\n      swap2\n      sub\n      swap1\n      log1\n        /* \"@openzeppelin/contracts/security/Pausable.sol\":2186:2301  function _pause() internal virtual whenNotPaused {... */\n      jump\t// out\n        /* \"@openzeppelin/contracts/access/AccessControl.sol\":3432:3629  function _checkRole(bytes32 role, address account) internal view virtual {... */\n    tag_204:\n        /* \"@openzeppelin/contracts/access/AccessControl.sol\":3520:3542  hasRole(role, account) */\n      tag_230\n        /* \"@openzeppelin/contracts/access/AccessControl.sol\":3528:3532  role */\n      dup3\n        /* \"@openzeppelin/contracts/access/AccessControl.sol\":3534:3541  account */\n      dup3\n        /* \"@openzeppelin/contracts/access/AccessControl.sol\":3520:3527  hasRole */\n      tag_71\n        /* \"@openzeppelin/contracts/access/AccessControl.sol\":3520:3542  hasRole(role, account) */\n      jump\t// in\n    tag_230:\n        /* \"@openzeppelin/contracts/access/AccessControl.sol\":3515:3623  if (!hasRole(role, account)) {... */\n      tag_231\n      jumpi\n        /* \"@openzeppelin/contracts/access/AccessControl.sol\":3598:3605  account */\n      dup1\n        /* \"@openzeppelin/contracts/access/AccessControl.sol\":3607:3611  role */\n      dup3\n        /* \"@openzeppelin/contracts/access/AccessControl.sol\":3565:3612  AccessControlUnauthorizedAccount(account, role) */\n      mload(0x40)\n      0xe2517d3f00000000000000000000000000000000000000000000000000000000\n      dup2\n      mstore\n      0x04\n      add\n      tag_232\n      swap3\n      swap2\n      swap1\n      tag_233\n      jump\t// in\n    tag_232:\n      mload(0x40)\n      dup1\n      swap2\n      sub\n      swap1\n      revert\n        /* \"@openzeppelin/contracts/access/AccessControl.sol\":3515:3623  if (!hasRole(role, account)) {... */\n    tag_231:\n        /* \"@openzeppelin/contracts/access/AccessControl.sol\":3432:3629  function _checkRole(bytes32 role, address account) internal view virtual {... */\n      pop\n      pop\n      jump\t// out\n        /* \"@openzeppelin/contracts/security/Pausable.sol\":1945:2051  function _requirePaused() internal view virtual {... */\n    tag_218:\n        /* \"@openzeppelin/contracts/security/Pausable.sol\":2011:2019  paused() */\n      tag_235\n        /* \"@openzeppelin/contracts/security/Pausable.sol\":2011:2017  paused */\n      tag_62\n        /* \"@openzeppelin/contracts/security/Pausable.sol\":2011:2019  paused() */\n      jump\t// in\n    tag_235:\n        /* \"@openzeppelin/contracts/security/Pausable.sol\":2003:2044  require(paused(), \"Pausable: not paused\") */\n      tag_236\n      jumpi\n      mload(0x40)\n      0x08c379a000000000000000000000000000000000000000000000000000000000\n      dup2\n      mstore\n      0x04\n      add\n      tag_237\n      swap1\n      tag_238\n      jump\t// in\n    tag_237:\n      mload(0x40)\n      dup1\n      swap2\n      sub\n      swap1\n      revert\n    tag_236:\n        /* \"@openzeppelin/contracts/security/Pausable.sol\":1945:2051  function _requirePaused() internal view virtual {... */\n      jump\t// out\n        /* \"@openzeppelin/contracts/security/Pausable.sol\":1767:1873  function _requireNotPaused() internal view virtual {... */\n    tag_225:\n        /* \"@openzeppelin/contracts/security/Pausable.sol\":1837:1845  paused() */\n      tag_240\n        /* \"@openzeppelin/contracts/security/Pausable.sol\":1837:1843  paused */\n      tag_62\n        /* \"@openzeppelin/contracts/security/Pausable.sol\":1837:1845  paused() */\n      jump\t// in\n    tag_240:\n        /* \"@openzeppelin/contracts/security/Pausable.sol\":1836:1845  !paused() */\n      iszero\n        /* \"@openzeppelin/contracts/security/Pausable.sol\":1828:1866  require(!paused(), \"Pausable: paused\") */\n      tag_241\n      jumpi\n      mload(0x40)\n      0x08c379a000000000000000000000000000000000000000000000000000000000\n      dup2\n      mstore\n      0x04\n      add\n      tag_242\n      swap1\n      tag_243\n      jump\t// in\n    tag_242:\n      mload(0x40)\n      dup1\n      swap2\n      sub\n      swap1\n      revert\n    tag_241:\n        /* \"@openzeppelin/contracts/security/Pausable.sol\":1767:1873  function _requireNotPaused() internal view virtual {... */\n      jump\t// out\n    tag_101:\n      mload(0x40)\n      dup1\n      0x80\n      add\n      0x40\n      mstore\n      dup1\n      0x00\n      dup2\n      mstore\n      0x20\n      add\n      and(0xffffffffffffffffffffffffffffffffffffffff, 0x00)\n      dup2\n      mstore\n      0x20\n      add\n      0x60\n      dup2\n      mstore\n      0x20\n      add\n      iszero(iszero(0x00))\n      dup2\n      mstore\n      pop\n      swap1\n      jump\t// out\n    tag_198:\n      pop\n      dup1\n      sload\n      tag_244\n      swap1\n      tag_108\n      jump\t// in\n    tag_244:\n      0x00\n      dup3\n      sstore\n      dup1\n      0x1f\n      lt\n      tag_246\n      jumpi\n      pop\n      jump(tag_245)\n    tag_246:\n      0x1f\n      add\n      0x20\n      swap1\n      div\n      swap1\n      0x00\n      mstore\n      keccak256(0x00, 0x20)\n      swap1\n      dup2\n      add\n      swap1\n      tag_247\n      swap2\n      swap1\n      tag_248\n      jump\t// in\n    tag_247:\n    tag_245:\n      pop\n      jump\t// out\n    tag_248:\n    tag_249:\n      dup1\n      dup3\n      gt\n      iszero\n      tag_250\n      jumpi\n      0x00\n      dup2\n      0x00\n      swap1\n      sstore\n      pop\n      0x01\n      add\n      jump(tag_249)\n    tag_250:\n      pop\n      swap1\n      jump\t// out\n        /* \"#utility.yul\":7:133   */\n    tag_251:\n        /* \"#utility.yul\":44:51   */\n      0x00\n        /* \"#utility.yul\":84:126   */\n      0xffffffffffffffffffffffffffffffffffffffff\n        /* \"#utility.yul\":77:82   */\n      dup3\n        /* \"#utility.yul\":73:127   */\n      and\n        /* \"#utility.yul\":62:127   */\n      swap1\n      pop\n        /* \"#utility.yul\":7:133   */\n      swap2\n      swap1\n      pop\n      jump\t// out\n        /* \"#utility.yul\":139:199   */\n    tag_252:\n        /* \"#utility.yul\":167:170   */\n      0x00\n        /* \"#utility.yul\":188:193   */\n      dup2\n        /* \"#utility.yul\":181:193   */\n      swap1\n      pop\n        /* \"#utility.yul\":139:199   */\n      swap2\n      swap1\n      pop\n      jump\t// out\n        /* \"#utility.yul\":205:347   */\n    tag_253:\n        /* \"#utility.yul\":255:264   */\n      0x00\n        /* \"#utility.yul\":288:341   */\n      tag_333\n        /* \"#utility.yul\":306:340   */\n      tag_334\n        /* \"#utility.yul\":315:339   */\n      tag_335\n        /* \"#utility.yul\":333:338   */\n      dup5\n        /* \"#utility.yul\":315:339   */\n      tag_251\n      jump\t// in\n    tag_335:\n        /* \"#utility.yul\":306:340   */\n      tag_252\n      jump\t// in\n    tag_334:\n        /* \"#utility.yul\":288:341   */\n      tag_251\n      jump\t// in\n    tag_333:\n        /* \"#utility.yul\":275:341   */\n      swap1\n      pop\n        /* \"#utility.yul\":205:347   */\n      swap2\n      swap1\n      pop\n      jump\t// out\n        /* \"#utility.yul\":353:479   */\n    tag_254:\n        /* \"#utility.yul\":403:412   */\n      0x00\n        /* \"#utility.yul\":436:473   */\n      tag_337\n        /* \"#utility.yul\":467:472   */\n      dup3\n        /* \"#utility.yul\":436:473   */\n      tag_253\n      jump\t// in\n    tag_337:\n        /* \"#utility.yul\":423:473   */\n      swap1\n      pop\n        /* \"#utility.yul\":353:479   */\n      swap2\n      swap1\n      pop\n      jump\t// out\n        /* \"#utility.yul\":485:631   */\n    tag_255:\n        /* \"#utility.yul\":555:564   */\n      0x00\n        /* \"#utility.yul\":588:625   */\n      tag_339\n        /* \"#utility.yul\":619:624   */\n      dup3\n        /* \"#utility.yul\":588:625   */\n      tag_254\n      jump\t// in\n    tag_339:\n        /* \"#utility.yul\":575:625   */\n      swap1\n      pop\n        /* \"#utility.yul\":485:631   */\n      swap2\n      swap1\n      pop\n      jump\t// out\n        /* \"#utility.yul\":637:808   */\n    tag_256:\n        /* \"#utility.yul\":744:801   */\n      tag_341\n        /* \"#utility.yul\":795:800   */\n      dup2\n        /* \"#utility.yul\":744:801   */\n      tag_255\n      jump\t// in\n    tag_341:\n        /* \"#utility.yul\":739:742   */\n      dup3\n        /* \"#utility.yul\":732:802   */\n      mstore\n        /* \"#utility.yul\":637:808   */\n      pop\n      pop\n      jump\t// out\n        /* \"#utility.yul\":814:1076   */\n    tag_28:\n        /* \"#utility.yul\":927:931   */\n      0x00\n        /* \"#utility.yul\":965:967   */\n      0x20\n        /* \"#utility.yul\":954:963   */\n      dup3\n        /* \"#utility.yul\":950:968   */\n      add\n        /* \"#utility.yul\":942:968   */\n      swap1\n      pop\n        /* \"#utility.yul\":978:1069   */\n      tag_343\n        /* \"#utility.yul\":1066:1067   */\n      0x00\n        /* \"#utility.yul\":1055:1064   */\n      dup4\n        /* \"#utility.yul\":1051:1068   */\n      add\n        /* \"#utility.yul\":1042:1048   */\n      dup5\n        /* \"#utility.yul\":978:1069   */\n      tag_256\n      jump\t// in\n    tag_343:\n        /* \"#utility.yul\":814:1076   */\n      swap3\n      swap2\n      pop\n      pop\n      jump\t// out\n        /* \"#utility.yul\":1082:1157   */\n    tag_257:\n        /* \"#utility.yul\":1115:1121   */\n      0x00\n        /* \"#utility.yul\":1148:1150   */\n      0x40\n        /* \"#utility.yul\":1142:1151   */\n      mload\n        /* \"#utility.yul\":1132:1151   */\n      swap1\n      pop\n        /* \"#utility.yul\":1082:1157   */\n      swap1\n      jump\t// out\n        /* \"#utility.yul\":1163:1280   */\n    tag_258:\n        /* \"#utility.yul\":1272:1273   */\n      0x00\n        /* \"#utility.yul\":1269:1270   */\n      dup1\n        /* \"#utility.yul\":1262:1274   */\n      revert\n        /* \"#utility.yul\":1286:1403   */\n    tag_259:\n        /* \"#utility.yul\":1395:1396   */\n      0x00\n        /* \"#utility.yul\":1392:1393   */\n      dup1\n        /* \"#utility.yul\":1385:1397   */\n      revert\n        /* \"#utility.yul\":1409:1558   */\n    tag_260:\n        /* \"#utility.yul\":1445:1452   */\n      0x00\n        /* \"#utility.yul\":1485:1551   */\n      0xffffffff00000000000000000000000000000000000000000000000000000000\n        /* \"#utility.yul\":1478:1483   */\n      dup3\n        /* \"#utility.yul\":1474:1552   */\n      and\n        /* \"#utility.yul\":1463:1552   */\n      swap1\n      pop\n        /* \"#utility.yul\":1409:1558   */\n      swap2\n      swap1\n      pop\n      jump\t// out\n        /* \"#utility.yul\":1564:1684   */\n    tag_261:\n        /* \"#utility.yul\":1636:1659   */\n      tag_349\n        /* \"#utility.yul\":1653:1658   */\n      dup2\n        /* \"#utility.yul\":1636:1659   */\n      tag_260\n      jump\t// in\n    tag_349:\n        /* \"#utility.yul\":1629:1634   */\n      dup2\n        /* \"#utility.yul\":1626:1660   */\n      eq\n        /* \"#utility.yul\":1616:1678   */\n      tag_350\n      jumpi\n        /* \"#utility.yul\":1674:1675   */\n      0x00\n        /* \"#utility.yul\":1671:1672   */\n      dup1\n        /* \"#utility.yul\":1664:1676   */\n      revert\n        /* \"#utility.yul\":1616:1678   */\n    tag_350:\n        /* \"#utility.yul\":1564:1684   */\n      pop\n      jump\t// out\n        /* \"#utility.yul\":1690:1827   */\n    tag_262:\n        /* \"#utility.yul\":1735:1740   */\n      0x00\n        /* \"#utility.yul\":1773:1779   */\n      dup2\n        /* \"#utility.yul\":1760:1780   */\n      calldataload\n        /* \"#utility.yul\":1751:1780   */\n      swap1\n      pop\n        /* \"#utility.yul\":1789:1821   */\n      tag_352\n        /* \"#utility.yul\":1815:1820   */\n      dup2\n        /* \"#utility.yul\":1789:1821   */\n      tag_261\n      jump\t// in\n    tag_352:\n        /* \"#utility.yul\":1690:1827   */\n      swap3\n      swap2\n      pop\n      pop\n      jump\t// out\n        /* \"#utility.yul\":1833:2160   */\n    tag_31:\n        /* \"#utility.yul\":1891:1897   */\n      0x00\n        /* \"#utility.yul\":1940:1942   */\n      0x20\n        /* \"#utility.yul\":1928:1937   */\n      dup3\n        /* \"#utility.yul\":1919:1926   */\n      dup5\n        /* \"#utility.yul\":1915:1938   */\n      sub\n        /* \"#utility.yul\":1911:1943   */\n      slt\n        /* \"#utility.yul\":1908:2027   */\n      iszero\n      tag_354\n      jumpi\n        /* \"#utility.yul\":1946:2025   */\n      tag_355\n      tag_258\n      jump\t// in\n    tag_355:\n        /* \"#utility.yul\":1908:2027   */\n    tag_354:\n        /* \"#utility.yul\":2066:2067   */\n      0x00\n        /* \"#utility.yul\":2091:2143   */\n      tag_356\n        /* \"#utility.yul\":2135:2142   */\n      dup5\n        /* \"#utility.yul\":2126:2132   */\n      dup3\n        /* \"#utility.yul\":2115:2124   */\n      dup6\n        /* \"#utility.yul\":2111:2133   */\n      add\n        /* \"#utility.yul\":2091:2143   */\n      tag_262\n      jump\t// in\n    tag_356:\n        /* \"#utility.yul\":2081:2143   */\n      swap2\n      pop\n        /* \"#utility.yul\":2037:2153   */\n      pop\n        /* \"#utility.yul\":1833:2160   */\n      swap3\n      swap2\n      pop\n      pop\n      jump\t// out\n        /* \"#utility.yul\":2166:2256   */\n    tag_263:\n        /* \"#utility.yul\":2200:2207   */\n      0x00\n        /* \"#utility.yul\":2243:2248   */\n      dup2\n        /* \"#utility.yul\":2236:2249   */\n      iszero\n        /* \"#utility.yul\":2229:2250   */\n      iszero\n        /* \"#utility.yul\":2218:2250   */\n      swap1\n      pop\n        /* \"#utility.yul\":2166:2256   */\n      swap2\n      swap1\n      pop\n      jump\t// out\n        /* \"#utility.yul\":2262:2371   */\n    tag_264:\n        /* \"#utility.yul\":2343:2364   */\n      tag_359\n        /* \"#utility.yul\":2358:2363   */\n      dup2\n        /* \"#utility.yul\":2343:2364   */\n      tag_263\n      jump\t// in\n    tag_359:\n        /* \"#utility.yul\":2338:2341   */\n      dup3\n        /* \"#utility.yul\":2331:2365   */\n      mstore\n        /* \"#utility.yul\":2262:2371   */\n      pop\n      pop\n      jump\t// out\n        /* \"#utility.yul\":2377:2587   */\n    tag_34:\n        /* \"#utility.yul\":2464:2468   */\n      0x00\n        /* \"#utility.yul\":2502:2504   */\n      0x20\n        /* \"#utility.yul\":2491:2500   */\n      dup3\n        /* \"#utility.yul\":2487:2505   */\n      add\n        /* \"#utility.yul\":2479:2505   */\n      swap1\n      pop\n        /* \"#utility.yul\":2515:2580   */\n      tag_361\n        /* \"#utility.yul\":2577:2578   */\n      0x00\n        /* \"#utility.yul\":2566:2575   */\n      dup4\n        /* \"#utility.yul\":2562:2579   */\n      add\n        /* \"#utility.yul\":2553:2559   */\n      dup5\n        /* \"#utility.yul\":2515:2580   */\n      tag_264\n      jump\t// in\n    tag_361:\n        /* \"#utility.yul\":2377:2587   */\n      swap3\n      swap2\n      pop\n      pop\n      jump\t// out\n        /* \"#utility.yul\":2593:2670   */\n    tag_265:\n        /* \"#utility.yul\":2630:2637   */\n      0x00\n        /* \"#utility.yul\":2659:2664   */\n      dup2\n        /* \"#utility.yul\":2648:2664   */\n      swap1\n      pop\n        /* \"#utility.yul\":2593:2670   */\n      swap2\n      swap1\n      pop\n      jump\t// out\n        /* \"#utility.yul\":2676:2798   */\n    tag_266:\n        /* \"#utility.yul\":2749:2773   */\n      tag_364\n        /* \"#utility.yul\":2767:2772   */\n      dup2\n        /* \"#utility.yul\":2749:2773   */\n      tag_265\n      jump\t// in\n    tag_364:\n        /* \"#utility.yul\":2742:2747   */\n      dup2\n        /* \"#utility.yul\":2739:2774   */\n      eq\n        /* \"#utility.yul\":2729:2792   */\n      tag_365\n      jumpi\n        /* \"#utility.yul\":2788:2789   */\n      0x00\n        /* \"#utility.yul\":2785:2786   */\n      dup1\n        /* \"#utility.yul\":2778:2790   */\n      revert\n        /* \"#utility.yul\":2729:2792   */\n    tag_365:\n        /* \"#utility.yul\":2676:2798   */\n      pop\n      jump\t// out\n        /* \"#utility.yul\":2804:2943   */\n    tag_267:\n        /* \"#utility.yul\":2850:2855   */\n      0x00\n        /* \"#utility.yul\":2888:2894   */\n      dup2\n        /* \"#utility.yul\":2875:2895   */\n      calldataload\n        /* \"#utility.yul\":2866:2895   */\n      swap1\n      pop\n        /* \"#utility.yul\":2904:2937   */\n      tag_367\n        /* \"#utility.yul\":2931:2936   */\n      dup2\n        /* \"#utility.yul\":2904:2937   */\n      tag_266\n      jump\t// in\n    tag_367:\n        /* \"#utility.yul\":2804:2943   */\n      swap3\n      swap2\n      pop\n      pop\n      jump\t// out\n        /* \"#utility.yul\":2949:3278   */\n    tag_37:\n        /* \"#utility.yul\":3008:3014   */\n      0x00\n        /* \"#utility.yul\":3057:3059   */\n      0x20\n        /* \"#utility.yul\":3045:3054   */\n      dup3\n        /* \"#utility.yul\":3036:3043   */\n      dup5\n        /* \"#utility.yul\":3032:3055   */\n      sub\n        /* \"#utility.yul\":3028:3060   */\n      slt\n        /* \"#utility.yul\":3025:3144   */\n      iszero\n      tag_369\n      jumpi\n        /* \"#utility.yul\":3063:3142   */\n      tag_370\n      tag_258\n      jump\t// in\n    tag_370:\n        /* \"#utility.yul\":3025:3144   */\n    tag_369:\n        /* \"#utility.yul\":3183:3184   */\n      0x00\n        /* \"#utility.yul\":3208:3261   */\n      tag_371\n        /* \"#utility.yul\":3253:3260   */\n      dup5\n        /* \"#utility.yul\":3244:3250   */\n      dup3\n        /* \"#utility.yul\":3233:3242   */\n      dup6\n        /* \"#utility.yul\":3229:3251   */\n      add\n        /* \"#utility.yul\":3208:3261   */\n      tag_267\n      jump\t// in\n    tag_371:\n        /* \"#utility.yul\":3198:3261   */\n      swap2\n      pop\n        /* \"#utility.yul\":3154:3271   */\n      pop\n        /* \"#utility.yul\":2949:3278   */\n      swap3\n      swap2\n      pop\n      pop\n      jump\t// out\n        /* \"#utility.yul\":3284:3392   */\n    tag_268:\n        /* \"#utility.yul\":3361:3385   */\n      tag_373\n        /* \"#utility.yul\":3379:3384   */\n      dup2\n        /* \"#utility.yul\":3361:3385   */\n      tag_265\n      jump\t// in\n    tag_373:\n        /* \"#utility.yul\":3356:3359   */\n      dup3\n        /* \"#utility.yul\":3349:3386   */\n      mstore\n        /* \"#utility.yul\":3284:3392   */\n      pop\n      pop\n      jump\t// out\n        /* \"#utility.yul\":3398:3494   */\n    tag_269:\n        /* \"#utility.yul\":3435:3442   */\n      0x00\n        /* \"#utility.yul\":3464:3488   */\n      tag_375\n        /* \"#utility.yul\":3482:3487   */\n      dup3\n        /* \"#utility.yul\":3464:3488   */\n      tag_251\n      jump\t// in\n    tag_375:\n        /* \"#utility.yul\":3453:3488   */\n      swap1\n      pop\n        /* \"#utility.yul\":3398:3494   */\n      swap2\n      swap1\n      pop\n      jump\t// out\n        /* \"#utility.yul\":3500:3608   */\n    tag_270:\n        /* \"#utility.yul\":3577:3601   */\n      tag_377\n        /* \"#utility.yul\":3595:3600   */\n      dup2\n        /* \"#utility.yul\":3577:3601   */\n      tag_269\n      jump\t// in\n    tag_377:\n        /* \"#utility.yul\":3572:3575   */\n      dup3\n        /* \"#utility.yul\":3565:3602   */\n      mstore\n        /* \"#utility.yul\":3500:3608   */\n      pop\n      pop\n      jump\t// out\n        /* \"#utility.yul\":3614:3713   */\n    tag_271:\n        /* \"#utility.yul\":3666:3672   */\n      0x00\n        /* \"#utility.yul\":3700:3705   */\n      dup2\n        /* \"#utility.yul\":3694:3706   */\n      mload\n        /* \"#utility.yul\":3684:3706   */\n      swap1\n      pop\n        /* \"#utility.yul\":3614:3713   */\n      swap2\n      swap1\n      pop\n      jump\t// out\n        /* \"#utility.yul\":3719:3878   */\n    tag_272:\n        /* \"#utility.yul\":3793:3804   */\n      0x00\n        /* \"#utility.yul\":3827:3833   */\n      dup3\n        /* \"#utility.yul\":3822:3825   */\n      dup3\n        /* \"#utility.yul\":3815:3834   */\n      mstore\n        /* \"#utility.yul\":3867:3871   */\n      0x20\n        /* \"#utility.yul\":3862:3865   */\n      dup3\n        /* \"#utility.yul\":3858:3872   */\n      add\n        /* \"#utility.yul\":3843:3872   */\n      swap1\n      pop\n        /* \"#utility.yul\":3719:3878   */\n      swap3\n      swap2\n      pop\n      pop\n      jump\t// out\n        /* \"#utility.yul\":3884:4130   */\n    tag_273:\n        /* \"#utility.yul\":3965:3966   */\n      0x00\n        /* \"#utility.yul\":3975:4088   */\n    tag_381:\n        /* \"#utility.yul\":3989:3995   */\n      dup4\n        /* \"#utility.yul\":3986:3987   */\n      dup2\n        /* \"#utility.yul\":3983:3996   */\n      lt\n        /* \"#utility.yul\":3975:4088   */\n      iszero\n      tag_383\n      jumpi\n        /* \"#utility.yul\":4074:4075   */\n      dup1\n        /* \"#utility.yul\":4069:4072   */\n      dup3\n        /* \"#utility.yul\":4065:4076   */\n      add\n        /* \"#utility.yul\":4059:4077   */\n      mload\n        /* \"#utility.yul\":4055:4056   */\n      dup2\n        /* \"#utility.yul\":4050:4053   */\n      dup5\n        /* \"#utility.yul\":4046:4057   */\n      add\n        /* \"#utility.yul\":4039:4078   */\n      mstore\n        /* \"#utility.yul\":4011:4013   */\n      0x20\n        /* \"#utility.yul\":4008:4009   */\n      dup2\n        /* \"#utility.yul\":4004:4014   */\n      add\n        /* \"#utility.yul\":3999:4014   */\n      swap1\n      pop\n        /* \"#utility.yul\":3975:4088   */\n      jump(tag_381)\n    tag_383:\n        /* \"#utility.yul\":4122:4123   */\n      0x00\n        /* \"#utility.yul\":4113:4119   */\n      dup5\n        /* \"#utility.yul\":4108:4111   */\n      dup5\n        /* \"#utility.yul\":4104:4120   */\n      add\n        /* \"#utility.yul\":4097:4124   */\n      mstore\n        /* \"#utility.yul\":3946:4130   */\n      pop\n        /* \"#utility.yul\":3884:4130   */\n      pop\n      pop\n      pop\n      jump\t// out\n        /* \"#utility.yul\":4136:4238   */\n    tag_274:\n        /* \"#utility.yul\":4177:4183   */\n      0x00\n        /* \"#utility.yul\":4228:4230   */\n      0x1f\n        /* \"#utility.yul\":4224:4231   */\n      not\n        /* \"#utility.yul\":4219:4221   */\n      0x1f\n        /* \"#utility.yul\":4212:4217   */\n      dup4\n        /* \"#utility.yul\":4208:4222   */\n      add\n        /* \"#utility.yul\":4204:4232   */\n      and\n        /* \"#utility.yul\":4194:4232   */\n      swap1\n      pop\n        /* \"#utility.yul\":4136:4238   */\n      swap2\n      swap1\n      pop\n      jump\t// out\n        /* \"#utility.yul\":4244:4601   */\n    tag_275:\n        /* \"#utility.yul\":4322:4325   */\n      0x00\n        /* \"#utility.yul\":4350:4389   */\n      tag_386\n        /* \"#utility.yul\":4383:4388   */\n      dup3\n        /* \"#utility.yul\":4350:4389   */\n      tag_271\n      jump\t// in\n    tag_386:\n        /* \"#utility.yul\":4405:4466   */\n      tag_387\n        /* \"#utility.yul\":4459:4465   */\n      dup2\n        /* \"#utility.yul\":4454:4457   */\n      dup6\n        /* \"#utility.yul\":4405:4466   */\n      tag_272\n      jump\t// in\n    tag_387:\n        /* \"#utility.yul\":4398:4466   */\n      swap4\n      pop\n        /* \"#utility.yul\":4475:4540   */\n      tag_388\n        /* \"#utility.yul\":4533:4539   */\n      dup2\n        /* \"#utility.yul\":4528:4531   */\n      dup6\n        /* \"#utility.yul\":4521:4525   */\n      0x20\n        /* \"#utility.yul\":4514:4519   */\n      dup7\n        /* \"#utility.yul\":4510:4526   */\n      add\n        /* \"#utility.yul\":4475:4540   */\n      tag_273\n      jump\t// in\n    tag_388:\n        /* \"#utility.yul\":4565:4594   */\n      tag_389\n        /* \"#utility.yul\":4587:4593   */\n      dup2\n        /* \"#utility.yul\":4565:4594   */\n      tag_274\n      jump\t// in\n    tag_389:\n        /* \"#utility.yul\":4560:4563   */\n      dup5\n        /* \"#utility.yul\":4556:4595   */\n      add\n        /* \"#utility.yul\":4549:4595   */\n      swap2\n      pop\n        /* \"#utility.yul\":4326:4601   */\n      pop\n        /* \"#utility.yul\":4244:4601   */\n      swap3\n      swap2\n      pop\n      pop\n      jump\t// out\n        /* \"#utility.yul\":4607:4706   */\n    tag_276:\n        /* \"#utility.yul\":4678:4699   */\n      tag_391\n        /* \"#utility.yul\":4693:4698   */\n      dup2\n        /* \"#utility.yul\":4678:4699   */\n      tag_263\n      jump\t// in\n    tag_391:\n        /* \"#utility.yul\":4673:4676   */\n      dup3\n        /* \"#utility.yul\":4666:4700   */\n      mstore\n        /* \"#utility.yul\":4607:4706   */\n      pop\n      pop\n      jump\t// out\n        /* \"#utility.yul\":4772:5719   */\n    tag_277:\n        /* \"#utility.yul\":4883:4886   */\n      0x00\n        /* \"#utility.yul\":4919:4923   */\n      0x80\n        /* \"#utility.yul\":4914:4917   */\n      dup4\n        /* \"#utility.yul\":4910:4924   */\n      add\n        /* \"#utility.yul\":5004:5008   */\n      0x00\n        /* \"#utility.yul\":4997:5002   */\n      dup4\n        /* \"#utility.yul\":4993:5009   */\n      add\n        /* \"#utility.yul\":4987:5010   */\n      mload\n        /* \"#utility.yul\":5023:5086   */\n      tag_393\n        /* \"#utility.yul\":5080:5084   */\n      0x00\n        /* \"#utility.yul\":5075:5078   */\n      dup7\n        /* \"#utility.yul\":5071:5085   */\n      add\n        /* \"#utility.yul\":5057:5069   */\n      dup3\n        /* \"#utility.yul\":5023:5086   */\n      tag_268\n      jump\t// in\n    tag_393:\n        /* \"#utility.yul\":4934:5096   */\n      pop\n        /* \"#utility.yul\":5179:5183   */\n      0x20\n        /* \"#utility.yul\":5172:5177   */\n      dup4\n        /* \"#utility.yul\":5168:5184   */\n      add\n        /* \"#utility.yul\":5162:5185   */\n      mload\n        /* \"#utility.yul\":5198:5261   */\n      tag_394\n        /* \"#utility.yul\":5255:5259   */\n      0x20\n        /* \"#utility.yul\":5250:5253   */\n      dup7\n        /* \"#utility.yul\":5246:5260   */\n      add\n        /* \"#utility.yul\":5232:5244   */\n      dup3\n        /* \"#utility.yul\":5198:5261   */\n      tag_270\n      jump\t// in\n    tag_394:\n        /* \"#utility.yul\":5106:5271   */\n      pop\n        /* \"#utility.yul\":5357:5361   */\n      0x40\n        /* \"#utility.yul\":5350:5355   */\n      dup4\n        /* \"#utility.yul\":5346:5362   */\n      add\n        /* \"#utility.yul\":5340:5363   */\n      mload\n        /* \"#utility.yul\":5410:5413   */\n      dup5\n        /* \"#utility.yul\":5404:5408   */\n      dup3\n        /* \"#utility.yul\":5400:5414   */\n      sub\n        /* \"#utility.yul\":5393:5397   */\n      0x40\n        /* \"#utility.yul\":5388:5391   */\n      dup7\n        /* \"#utility.yul\":5384:5398   */\n      add\n        /* \"#utility.yul\":5377:5415   */\n      mstore\n        /* \"#utility.yul\":5436:5509   */\n      tag_395\n        /* \"#utility.yul\":5504:5508   */\n      dup3\n        /* \"#utility.yul\":5490:5502   */\n      dup3\n        /* \"#utility.yul\":5436:5509   */\n      tag_275\n      jump\t// in\n    tag_395:\n        /* \"#utility.yul\":5428:5509   */\n      swap2\n      pop\n        /* \"#utility.yul\":5281:5520   */\n      pop\n        /* \"#utility.yul\":5606:5610   */\n      0x60\n        /* \"#utility.yul\":5599:5604   */\n      dup4\n        /* \"#utility.yul\":5595:5611   */\n      add\n        /* \"#utility.yul\":5589:5612   */\n      mload\n        /* \"#utility.yul\":5625:5682   */\n      tag_396\n        /* \"#utility.yul\":5676:5680   */\n      0x60\n        /* \"#utility.yul\":5671:5674   */\n      dup7\n        /* \"#utility.yul\":5667:5681   */\n      add\n        /* \"#utility.yul\":5653:5665   */\n      dup3\n        /* \"#utility.yul\":5625:5682   */\n      tag_276\n      jump\t// in\n    tag_396:\n        /* \"#utility.yul\":5530:5692   */\n      pop\n        /* \"#utility.yul\":5709:5713   */\n      dup1\n        /* \"#utility.yul\":5702:5713   */\n      swap2\n      pop\n        /* \"#utility.yul\":4888:5719   */\n      pop\n        /* \"#utility.yul\":4772:5719   */\n      swap3\n      swap2\n      pop\n      pop\n      jump\t// out\n        /* \"#utility.yul\":5725:6082   */\n    tag_40:\n        /* \"#utility.yul\":5860:5864   */\n      0x00\n        /* \"#utility.yul\":5898:5900   */\n      0x20\n        /* \"#utility.yul\":5887:5896   */\n      dup3\n        /* \"#utility.yul\":5883:5901   */\n      add\n        /* \"#utility.yul\":5875:5901   */\n      swap1\n      pop\n        /* \"#utility.yul\":5947:5956   */\n      dup2\n        /* \"#utility.yul\":5941:5945   */\n      dup2\n        /* \"#utility.yul\":5937:5957   */\n      sub\n        /* \"#utility.yul\":5933:5934   */\n      0x00\n        /* \"#utility.yul\":5922:5931   */\n      dup4\n        /* \"#utility.yul\":5918:5935   */\n      add\n        /* \"#utility.yul\":5911:5958   */\n      mstore\n        /* \"#utility.yul\":5975:6075   */\n      tag_398\n        /* \"#utility.yul\":6070:6074   */\n      dup2\n        /* \"#utility.yul\":6061:6067   */\n      dup5\n        /* \"#utility.yul\":5975:6075   */\n      tag_277\n      jump\t// in\n    tag_398:\n        /* \"#utility.yul\":5967:6075   */\n      swap1\n      pop\n        /* \"#utility.yul\":5725:6082   */\n      swap3\n      swap2\n      pop\n      pop\n      jump\t// out\n        /* \"#utility.yul\":6088:6165   */\n    tag_278:\n        /* \"#utility.yul\":6125:6132   */\n      0x00\n        /* \"#utility.yul\":6154:6159   */\n      dup2\n        /* \"#utility.yul\":6143:6159   */\n      swap1\n      pop\n        /* \"#utility.yul\":6088:6165   */\n      swap2\n      swap1\n      pop\n      jump\t// out\n        /* \"#utility.yul\":6171:6293   */\n    tag_279:\n        /* \"#utility.yul\":6244:6268   */\n      tag_401\n        /* \"#utility.yul\":6262:6267   */\n      dup2\n        /* \"#utility.yul\":6244:6268   */\n      tag_278\n      jump\t// in\n    tag_401:\n        /* \"#utility.yul\":6237:6242   */\n      dup2\n        /* \"#utility.yul\":6234:6269   */\n      eq\n        /* \"#utility.yul\":6224:6287   */\n      tag_402\n      jumpi\n        /* \"#utility.yul\":6283:6284   */\n      0x00\n        /* \"#utility.yul\":6280:6281   */\n      dup1\n        /* \"#utility.yul\":6273:6285   */\n      revert\n        /* \"#utility.yul\":6224:6287   */\n    tag_402:\n        /* \"#utility.yul\":6171:6293   */\n      pop\n      jump\t// out\n        /* \"#utility.yul\":6299:6438   */\n    tag_280:\n        /* \"#utility.yul\":6345:6350   */\n      0x00\n        /* \"#utility.yul\":6383:6389   */\n      dup2\n        /* \"#utility.yul\":6370:6390   */\n      calldataload\n        /* \"#utility.yul\":6361:6390   */\n      swap1\n      pop\n        /* \"#utility.yul\":6399:6432   */\n      tag_404\n        /* \"#utility.yul\":6426:6431   */\n      dup2\n        /* \"#utility.yul\":6399:6432   */\n      tag_279\n      jump\t// in\n    tag_404:\n        /* \"#utility.yul\":6299:6438   */\n      swap3\n      swap2\n      pop\n      pop\n      jump\t// out\n        /* \"#utility.yul\":6444:6773   */\n    tag_43:\n        /* \"#utility.yul\":6503:6509   */\n      0x00\n        /* \"#utility.yul\":6552:6554   */\n      0x20\n        /* \"#utility.yul\":6540:6549   */\n      dup3\n        /* \"#utility.yul\":6531:6538   */\n      dup5\n        /* \"#utility.yul\":6527:6550   */\n      sub\n        /* \"#utility.yul\":6523:6555   */\n      slt\n        /* \"#utility.yul\":6520:6639   */\n      iszero\n      tag_406\n      jumpi\n        /* \"#utility.yul\":6558:6637   */\n      tag_407\n      tag_258\n      jump\t// in\n    tag_407:\n        /* \"#utility.yul\":6520:6639   */\n    tag_406:\n        /* \"#utility.yul\":6678:6679   */\n      0x00\n        /* \"#utility.yul\":6703:6756   */\n      tag_408\n        /* \"#utility.yul\":6748:6755   */\n      dup5\n        /* \"#utility.yul\":6739:6745   */\n      dup3\n        /* \"#utility.yul\":6728:6737   */\n      dup6\n        /* \"#utility.yul\":6724:6746   */\n      add\n        /* \"#utility.yul\":6703:6756   */\n      tag_280\n      jump\t// in\n    tag_408:\n        /* \"#utility.yul\":6693:6756   */\n      swap2\n      pop\n        /* \"#utility.yul\":6649:6766   */\n      pop\n        /* \"#utility.yul\":6444:6773   */\n      swap3\n      swap2\n      pop\n      pop\n      jump\t// out\n        /* \"#utility.yul\":6779:6897   */\n    tag_281:\n        /* \"#utility.yul\":6866:6890   */\n      tag_410\n        /* \"#utility.yul\":6884:6889   */\n      dup2\n        /* \"#utility.yul\":6866:6890   */\n      tag_278\n      jump\t// in\n    tag_410:\n        /* \"#utility.yul\":6861:6864   */\n      dup3\n        /* \"#utility.yul\":6854:6891   */\n      mstore\n        /* \"#utility.yul\":6779:6897   */\n      pop\n      pop\n      jump\t// out\n        /* \"#utility.yul\":6903:7125   */\n    tag_46:\n        /* \"#utility.yul\":6996:7000   */\n      0x00\n        /* \"#utility.yul\":7034:7036   */\n      0x20\n        /* \"#utility.yul\":7023:7032   */\n      dup3\n        /* \"#utility.yul\":7019:7037   */\n      add\n        /* \"#utility.yul\":7011:7037   */\n      swap1\n      pop\n        /* \"#utility.yul\":7047:7118   */\n      tag_412\n        /* \"#utility.yul\":7115:7116   */\n      0x00\n        /* \"#utility.yul\":7104:7113   */\n      dup4\n        /* \"#utility.yul\":7100:7117   */\n      add\n        /* \"#utility.yul\":7091:7097   */\n      dup5\n        /* \"#utility.yul\":7047:7118   */\n      tag_281\n      jump\t// in\n    tag_412:\n        /* \"#utility.yul\":6903:7125   */\n      swap3\n      swap2\n      pop\n      pop\n      jump\t// out\n        /* \"#utility.yul\":7131:7253   */\n    tag_282:\n        /* \"#utility.yul\":7204:7228   */\n      tag_414\n        /* \"#utility.yul\":7222:7227   */\n      dup2\n        /* \"#utility.yul\":7204:7228   */\n      tag_269\n      jump\t// in\n    tag_414:\n        /* \"#utility.yul\":7197:7202   */\n      dup2\n        /* \"#utility.yul\":7194:7229   */\n      eq\n        /* \"#utility.yul\":7184:7247   */\n      tag_415\n      jumpi\n        /* \"#utility.yul\":7243:7244   */\n      0x00\n        /* \"#utility.yul\":7240:7241   */\n      dup1\n        /* \"#utility.yul\":7233:7245   */\n      revert\n        /* \"#utility.yul\":7184:7247   */\n    tag_415:\n        /* \"#utility.yul\":7131:7253   */\n      pop\n      jump\t// out\n        /* \"#utility.yul\":7259:7398   */\n    tag_283:\n        /* \"#utility.yul\":7305:7310   */\n      0x00\n        /* \"#utility.yul\":7343:7349   */\n      dup2\n        /* \"#utility.yul\":7330:7350   */\n      calldataload\n        /* \"#utility.yul\":7321:7350   */\n      swap1\n      pop\n        /* \"#utility.yul\":7359:7392   */\n      tag_417\n        /* \"#utility.yul\":7386:7391   */\n      dup2\n        /* \"#utility.yul\":7359:7392   */\n      tag_282\n      jump\t// in\n    tag_417:\n        /* \"#utility.yul\":7259:7398   */\n      swap3\n      swap2\n      pop\n      pop\n      jump\t// out\n        /* \"#utility.yul\":7404:7878   */\n    tag_49:\n        /* \"#utility.yul\":7472:7478   */\n      0x00\n        /* \"#utility.yul\":7480:7486   */\n      dup1\n        /* \"#utility.yul\":7529:7531   */\n      0x40\n        /* \"#utility.yul\":7517:7526   */\n      dup4\n        /* \"#utility.yul\":7508:7515   */\n      dup6\n        /* \"#utility.yul\":7504:7527   */\n      sub\n        /* \"#utility.yul\":7500:7532   */\n      slt\n        /* \"#utility.yul\":7497:7616   */\n      iszero\n      tag_419\n      jumpi\n        /* \"#utility.yul\":7535:7614   */\n      tag_420\n      tag_258\n      jump\t// in\n    tag_420:\n        /* \"#utility.yul\":7497:7616   */\n    tag_419:\n        /* \"#utility.yul\":7655:7656   */\n      0x00\n        /* \"#utility.yul\":7680:7733   */\n      tag_421\n        /* \"#utility.yul\":7725:7732   */\n      dup6\n        /* \"#utility.yul\":7716:7722   */\n      dup3\n        /* \"#utility.yul\":7705:7714   */\n      dup7\n        /* \"#utility.yul\":7701:7723   */\n      add\n        /* \"#utility.yul\":7680:7733   */\n      tag_280\n      jump\t// in\n    tag_421:\n        /* \"#utility.yul\":7670:7733   */\n      swap3\n      pop\n        /* \"#utility.yul\":7626:7743   */\n      pop\n        /* \"#utility.yul\":7782:7784   */\n      0x20\n        /* \"#utility.yul\":7808:7861   */\n      tag_422\n        /* \"#utility.yul\":7853:7860   */\n      dup6\n        /* \"#utility.yul\":7844:7850   */\n      dup3\n        /* \"#utility.yul\":7833:7842   */\n      dup7\n        /* \"#utility.yul\":7829:7851   */\n      add\n        /* \"#utility.yul\":7808:7861   */\n      tag_283\n      jump\t// in\n    tag_422:\n        /* \"#utility.yul\":7798:7861   */\n      swap2\n      pop\n        /* \"#utility.yul\":7753:7871   */\n      pop\n        /* \"#utility.yul\":7404:7878   */\n      swap3\n      pop\n      swap3\n      swap1\n      pop\n      jump\t// out\n        /* \"#utility.yul\":7884:8002   */\n    tag_284:\n        /* \"#utility.yul\":7971:7995   */\n      tag_424\n        /* \"#utility.yul\":7989:7994   */\n      dup2\n        /* \"#utility.yul\":7971:7995   */\n      tag_265\n      jump\t// in\n    tag_424:\n        /* \"#utility.yul\":7966:7969   */\n      dup3\n        /* \"#utility.yul\":7959:7996   */\n      mstore\n        /* \"#utility.yul\":7884:8002   */\n      pop\n      pop\n      jump\t// out\n        /* \"#utility.yul\":8008:8126   */\n    tag_285:\n        /* \"#utility.yul\":8095:8119   */\n      tag_426\n        /* \"#utility.yul\":8113:8118   */\n      dup2\n        /* \"#utility.yul\":8095:8119   */\n      tag_269\n      jump\t// in\n    tag_426:\n        /* \"#utility.yul\":8090:8093   */\n      dup3\n        /* \"#utility.yul\":8083:8120   */\n      mstore\n        /* \"#utility.yul\":8008:8126   */\n      pop\n      pop\n      jump\t// out\n        /* \"#utility.yul\":8132:8301   */\n    tag_286:\n        /* \"#utility.yul\":8216:8227   */\n      0x00\n        /* \"#utility.yul\":8250:8256   */\n      dup3\n        /* \"#utility.yul\":8245:8248   */\n      dup3\n        /* \"#utility.yul\":8238:8257   */\n      mstore\n        /* \"#utility.yul\":8290:8294   */\n      0x20\n        /* \"#utility.yul\":8285:8288   */\n      dup3\n        /* \"#utility.yul\":8281:8295   */\n      add\n        /* \"#utility.yul\":8266:8295   */\n      swap1\n      pop\n        /* \"#utility.yul\":8132:8301   */\n      swap3\n      swap2\n      pop\n      pop\n      jump\t// out\n        /* \"#utility.yul\":8307:8684   */\n    tag_287:\n        /* \"#utility.yul\":8395:8398   */\n      0x00\n        /* \"#utility.yul\":8423:8462   */\n      tag_429\n        /* \"#utility.yul\":8456:8461   */\n      dup3\n        /* \"#utility.yul\":8423:8462   */\n      tag_271\n      jump\t// in\n    tag_429:\n        /* \"#utility.yul\":8478:8549   */\n      tag_430\n        /* \"#utility.yul\":8542:8548   */\n      dup2\n        /* \"#utility.yul\":8537:8540   */\n      dup6\n        /* \"#utility.yul\":8478:8549   */\n      tag_286\n      jump\t// in\n    tag_430:\n        /* \"#utility.yul\":8471:8549   */\n      swap4\n      pop\n        /* \"#utility.yul\":8558:8623   */\n      tag_431\n        /* \"#utility.yul\":8616:8622   */\n      dup2\n        /* \"#utility.yul\":8611:8614   */\n      dup6\n        /* \"#utility.yul\":8604:8608   */\n      0x20\n        /* \"#utility.yul\":8597:8602   */\n      dup7\n        /* \"#utility.yul\":8593:8609   */\n      add\n        /* \"#utility.yul\":8558:8623   */\n      tag_273\n      jump\t// in\n    tag_431:\n        /* \"#utility.yul\":8648:8677   */\n      tag_432\n        /* \"#utility.yul\":8670:8676   */\n      dup2\n        /* \"#utility.yul\":8648:8677   */\n      tag_274\n      jump\t// in\n    tag_432:\n        /* \"#utility.yul\":8643:8646   */\n      dup5\n        /* \"#utility.yul\":8639:8678   */\n      add\n        /* \"#utility.yul\":8632:8678   */\n      swap2\n      pop\n        /* \"#utility.yul\":8399:8684   */\n      pop\n        /* \"#utility.yul\":8307:8684   */\n      swap3\n      swap2\n      pop\n      pop\n      jump\t// out\n        /* \"#utility.yul\":8690:9322   */\n    tag_60:\n        /* \"#utility.yul\":8881:8885   */\n      0x00\n        /* \"#utility.yul\":8919:8922   */\n      0x80\n        /* \"#utility.yul\":8908:8917   */\n      dup3\n        /* \"#utility.yul\":8904:8923   */\n      add\n        /* \"#utility.yul\":8896:8923   */\n      swap1\n      pop\n        /* \"#utility.yul\":8933:9004   */\n      tag_434\n        /* \"#utility.yul\":9001:9002   */\n      0x00\n        /* \"#utility.yul\":8990:8999   */\n      dup4\n        /* \"#utility.yul\":8986:9003   */\n      add\n        /* \"#utility.yul\":8977:8983   */\n      dup8\n        /* \"#utility.yul\":8933:9004   */\n      tag_284\n      jump\t// in\n    tag_434:\n        /* \"#utility.yul\":9014:9086   */\n      tag_435\n        /* \"#utility.yul\":9082:9084   */\n      0x20\n        /* \"#utility.yul\":9071:9080   */\n      dup4\n        /* \"#utility.yul\":9067:9085   */\n      add\n        /* \"#utility.yul\":9058:9064   */\n      dup7\n        /* \"#utility.yul\":9014:9086   */\n      tag_285\n      jump\t// in\n    tag_435:\n        /* \"#utility.yul\":9133:9142   */\n      dup2\n        /* \"#utility.yul\":9127:9131   */\n      dup2\n        /* \"#utility.yul\":9123:9143   */\n      sub\n        /* \"#utility.yul\":9118:9120   */\n      0x40\n        /* \"#utility.yul\":9107:9116   */\n      dup4\n        /* \"#utility.yul\":9103:9121   */\n      add\n        /* \"#utility.yul\":9096:9144   */\n      mstore\n        /* \"#utility.yul\":9161:9239   */\n      tag_436\n        /* \"#utility.yul\":9234:9238   */\n      dup2\n        /* \"#utility.yul\":9225:9231   */\n      dup6\n        /* \"#utility.yul\":9161:9239   */\n      tag_287\n      jump\t// in\n    tag_436:\n        /* \"#utility.yul\":9153:9239   */\n      swap1\n      pop\n        /* \"#utility.yul\":9249:9315   */\n      tag_437\n        /* \"#utility.yul\":9311:9313   */\n      0x60\n        /* \"#utility.yul\":9300:9309   */\n      dup4\n        /* \"#utility.yul\":9296:9314   */\n      add\n        /* \"#utility.yul\":9287:9293   */\n      dup5\n        /* \"#utility.yul\":9249:9315   */\n      tag_264\n      jump\t// in\n    tag_437:\n        /* \"#utility.yul\":8690:9322   */\n      swap6\n      swap5\n      pop\n      pop\n      pop\n      pop\n      pop\n      jump\t// out\n        /* \"#utility.yul\":9328:9802   */\n    tag_78:\n        /* \"#utility.yul\":9396:9402   */\n      0x00\n        /* \"#utility.yul\":9404:9410   */\n      dup1\n        /* \"#utility.yul\":9453:9455   */\n      0x40\n        /* \"#utility.yul\":9441:9450   */\n      dup4\n        /* \"#utility.yul\":9432:9439   */\n      dup6\n        /* \"#utility.yul\":9428:9451   */\n      sub\n        /* \"#utility.yul\":9424:9456   */\n      slt\n        /* \"#utility.yul\":9421:9540   */\n      iszero\n      tag_439\n      jumpi\n        /* \"#utility.yul\":9459:9538   */\n      tag_440\n      tag_258\n      jump\t// in\n    tag_440:\n        /* \"#utility.yul\":9421:9540   */\n    tag_439:\n        /* \"#utility.yul\":9579:9580   */\n      0x00\n        /* \"#utility.yul\":9604:9657   */\n      tag_441\n        /* \"#utility.yul\":9649:9656   */\n      dup6\n        /* \"#utility.yul\":9640:9646   */\n      dup3\n        /* \"#utility.yul\":9629:9638   */\n      dup7\n        /* \"#utility.yul\":9625:9647   */\n      add\n        /* \"#utility.yul\":9604:9657   */\n      tag_267\n      jump\t// in\n    tag_441:\n        /* \"#utility.yul\":9594:9657   */\n      swap3\n      pop\n        /* \"#utility.yul\":9550:9667   */\n      pop\n        /* \"#utility.yul\":9706:9708   */\n      0x20\n        /* \"#utility.yul\":9732:9785   */\n      tag_442\n        /* \"#utility.yul\":9777:9784   */\n      dup6\n        /* \"#utility.yul\":9768:9774   */\n      dup3\n        /* \"#utility.yul\":9757:9766   */\n      dup7\n        /* \"#utility.yul\":9753:9775   */\n      add\n        /* \"#utility.yul\":9732:9785   */\n      tag_283\n      jump\t// in\n    tag_442:\n        /* \"#utility.yul\":9722:9785   */\n      swap2\n      pop\n        /* \"#utility.yul\":9677:9795   */\n      pop\n        /* \"#utility.yul\":9328:9802   */\n      swap3\n      pop\n      swap3\n      swap1\n      pop\n      jump\t// out\n        /* \"#utility.yul\":9808:9925   */\n    tag_288:\n        /* \"#utility.yul\":9917:9918   */\n      0x00\n        /* \"#utility.yul\":9914:9915   */\n      dup1\n        /* \"#utility.yul\":9907:9919   */\n      revert\n        /* \"#utility.yul\":9931:10048   */\n    tag_289:\n        /* \"#utility.yul\":10040:10041   */\n      0x00\n        /* \"#utility.yul\":10037:10038   */\n      dup1\n        /* \"#utility.yul\":10030:10042   */\n      revert\n        /* \"#utility.yul\":10054:10234   */\n    tag_290:\n        /* \"#utility.yul\":10102:10179   */\n      0x4e487b7100000000000000000000000000000000000000000000000000000000\n        /* \"#utility.yul\":10099:10100   */\n      0x00\n        /* \"#utility.yul\":10092:10180   */\n      mstore\n        /* \"#utility.yul\":10199:10203   */\n      0x41\n        /* \"#utility.yul\":10196:10197   */\n      0x04\n        /* \"#utility.yul\":10189:10204   */\n      mstore\n        /* \"#utility.yul\":10223:10227   */\n      0x24\n        /* \"#utility.yul\":10220:10221   */\n      0x00\n        /* \"#utility.yul\":10213:10228   */\n      revert\n        /* \"#utility.yul\":10240:10521   */\n    tag_291:\n        /* \"#utility.yul\":10323:10350   */\n      tag_447\n        /* \"#utility.yul\":10345:10349   */\n      dup3\n        /* \"#utility.yul\":10323:10350   */\n      tag_274\n      jump\t// in\n    tag_447:\n        /* \"#utility.yul\":10315:10321   */\n      dup2\n        /* \"#utility.yul\":10311:10351   */\n      add\n        /* \"#utility.yul\":10453:10459   */\n      dup2\n        /* \"#utility.yul\":10441:10451   */\n      dup2\n        /* \"#utility.yul\":10438:10460   */\n      lt\n        /* \"#utility.yul\":10417:10435   */\n      0xffffffffffffffff\n        /* \"#utility.yul\":10405:10415   */\n      dup3\n        /* \"#utility.yul\":10402:10436   */\n      gt\n        /* \"#utility.yul\":10399:10461   */\n      or\n        /* \"#utility.yul\":10396:10484   */\n      iszero\n      tag_448\n      jumpi\n        /* \"#utility.yul\":10464:10482   */\n      tag_449\n      tag_290\n      jump\t// in\n    tag_449:\n        /* \"#utility.yul\":10396:10484   */\n    tag_448:\n        /* \"#utility.yul\":10504:10514   */\n      dup1\n        /* \"#utility.yul\":10500:10502   */\n      0x40\n        /* \"#utility.yul\":10493:10515   */\n      mstore\n        /* \"#utility.yul\":10283:10521   */\n      pop\n        /* \"#utility.yul\":10240:10521   */\n      pop\n      pop\n      jump\t// out\n        /* \"#utility.yul\":10527:10656   */\n    tag_292:\n        /* \"#utility.yul\":10561:10567   */\n      0x00\n        /* \"#utility.yul\":10588:10608   */\n      tag_451\n      tag_257\n      jump\t// in\n    tag_451:\n        /* \"#utility.yul\":10578:10608   */\n      swap1\n      pop\n        /* \"#utility.yul\":10617:10650   */\n      tag_452\n        /* \"#utility.yul\":10645:10649   */\n      dup3\n        /* \"#utility.yul\":10637:10643   */\n      dup3\n        /* \"#utility.yul\":10617:10650   */\n      tag_291\n      jump\t// in\n    tag_452:\n        /* \"#utility.yul\":10527:10656   */\n      swap2\n      swap1\n      pop\n      jump\t// out\n        /* \"#utility.yul\":10662:10970   */\n    tag_293:\n        /* \"#utility.yul\":10724:10728   */\n      0x00\n        /* \"#utility.yul\":10814:10832   */\n      0xffffffffffffffff\n        /* \"#utility.yul\":10806:10812   */\n      dup3\n        /* \"#utility.yul\":10803:10833   */\n      gt\n        /* \"#utility.yul\":10800:10856   */\n      iszero\n      tag_454\n      jumpi\n        /* \"#utility.yul\":10836:10854   */\n      tag_455\n      tag_290\n      jump\t// in\n    tag_455:\n        /* \"#utility.yul\":10800:10856   */\n    tag_454:\n        /* \"#utility.yul\":10874:10903   */\n      tag_456\n        /* \"#utility.yul\":10896:10902   */\n      dup3\n        /* \"#utility.yul\":10874:10903   */\n      tag_274\n      jump\t// in\n    tag_456:\n        /* \"#utility.yul\":10866:10903   */\n      swap1\n      pop\n        /* \"#utility.yul\":10958:10962   */\n      0x20\n        /* \"#utility.yul\":10952:10956   */\n      dup2\n        /* \"#utility.yul\":10948:10963   */\n      add\n        /* \"#utility.yul\":10940:10963   */\n      swap1\n      pop\n        /* \"#utility.yul\":10662:10970   */\n      swap2\n      swap1\n      pop\n      jump\t// out\n        /* \"#utility.yul\":10976:11122   */\n    tag_294:\n        /* \"#utility.yul\":11073:11079   */\n      dup3\n        /* \"#utility.yul\":11068:11071   */\n      dup2\n        /* \"#utility.yul\":11063:11066   */\n      dup4\n        /* \"#utility.yul\":11050:11080   */\n      calldatacopy\n        /* \"#utility.yul\":11114:11115   */\n      0x00\n        /* \"#utility.yul\":11105:11111   */\n      dup4\n        /* \"#utility.yul\":11100:11103   */\n      dup4\n        /* \"#utility.yul\":11096:11112   */\n      add\n        /* \"#utility.yul\":11089:11116   */\n      mstore\n        /* \"#utility.yul\":10976:11122   */\n      pop\n      pop\n      pop\n      jump\t// out\n        /* \"#utility.yul\":11128:11553   */\n    tag_295:\n        /* \"#utility.yul\":11206:11211   */\n      0x00\n        /* \"#utility.yul\":11231:11297   */\n      tag_459\n        /* \"#utility.yul\":11247:11296   */\n      tag_460\n        /* \"#utility.yul\":11289:11295   */\n      dup5\n        /* \"#utility.yul\":11247:11296   */\n      tag_293\n      jump\t// in\n    tag_460:\n        /* \"#utility.yul\":11231:11297   */\n      tag_292\n      jump\t// in\n    tag_459:\n        /* \"#utility.yul\":11222:11297   */\n      swap1\n      pop\n        /* \"#utility.yul\":11320:11326   */\n      dup3\n        /* \"#utility.yul\":11313:11318   */\n      dup2\n        /* \"#utility.yul\":11306:11327   */\n      mstore\n        /* \"#utility.yul\":11358:11362   */\n      0x20\n        /* \"#utility.yul\":11351:11356   */\n      dup2\n        /* \"#utility.yul\":11347:11363   */\n      add\n        /* \"#utility.yul\":11396:11399   */\n      dup5\n        /* \"#utility.yul\":11387:11393   */\n      dup5\n        /* \"#utility.yul\":11382:11385   */\n      dup5\n        /* \"#utility.yul\":11378:11394   */\n      add\n        /* \"#utility.yul\":11375:11400   */\n      gt\n        /* \"#utility.yul\":11372:11484   */\n      iszero\n      tag_461\n      jumpi\n        /* \"#utility.yul\":11403:11482   */\n      tag_462\n      tag_289\n      jump\t// in\n    tag_462:\n        /* \"#utility.yul\":11372:11484   */\n    tag_461:\n        /* \"#utility.yul\":11493:11547   */\n      tag_463\n        /* \"#utility.yul\":11540:11546   */\n      dup5\n        /* \"#utility.yul\":11535:11538   */\n      dup3\n        /* \"#utility.yul\":11530:11533   */\n      dup6\n        /* \"#utility.yul\":11493:11547   */\n      tag_294\n      jump\t// in\n    tag_463:\n        /* \"#utility.yul\":11212:11553   */\n      pop\n        /* \"#utility.yul\":11128:11553   */\n      swap4\n      swap3\n      pop\n      pop\n      pop\n      jump\t// out\n        /* \"#utility.yul\":11573:11913   */\n    tag_296:\n        /* \"#utility.yul\":11629:11634   */\n      0x00\n        /* \"#utility.yul\":11678:11681   */\n      dup3\n        /* \"#utility.yul\":11671:11675   */\n      0x1f\n        /* \"#utility.yul\":11663:11669   */\n      dup4\n        /* \"#utility.yul\":11659:11676   */\n      add\n        /* \"#utility.yul\":11655:11682   */\n      slt\n        /* \"#utility.yul\":11645:11767   */\n      tag_465\n      jumpi\n        /* \"#utility.yul\":11686:11765   */\n      tag_466\n      tag_288\n      jump\t// in\n    tag_466:\n        /* \"#utility.yul\":11645:11767   */\n    tag_465:\n        /* \"#utility.yul\":11803:11809   */\n      dup2\n        /* \"#utility.yul\":11790:11810   */\n      calldataload\n        /* \"#utility.yul\":11828:11907   */\n      tag_467\n        /* \"#utility.yul\":11903:11906   */\n      dup5\n        /* \"#utility.yul\":11895:11901   */\n      dup3\n        /* \"#utility.yul\":11888:11892   */\n      0x20\n        /* \"#utility.yul\":11880:11886   */\n      dup7\n        /* \"#utility.yul\":11876:11893   */\n      add\n        /* \"#utility.yul\":11828:11907   */\n      tag_295\n      jump\t// in\n    tag_467:\n        /* \"#utility.yul\":11819:11907   */\n      swap2\n      pop\n        /* \"#utility.yul\":11635:11913   */\n      pop\n        /* \"#utility.yul\":11573:11913   */\n      swap3\n      swap2\n      pop\n      pop\n      jump\t// out\n        /* \"#utility.yul\":11919:12428   */\n    tag_85:\n        /* \"#utility.yul\":11988:11994   */\n      0x00\n        /* \"#utility.yul\":12037:12039   */\n      0x20\n        /* \"#utility.yul\":12025:12034   */\n      dup3\n        /* \"#utility.yul\":12016:12023   */\n      dup5\n        /* \"#utility.yul\":12012:12035   */\n      sub\n        /* \"#utility.yul\":12008:12040   */\n      slt\n        /* \"#utility.yul\":12005:12124   */\n      iszero\n      tag_469\n      jumpi\n        /* \"#utility.yul\":12043:12122   */\n      tag_470\n      tag_258\n      jump\t// in\n    tag_470:\n        /* \"#utility.yul\":12005:12124   */\n    tag_469:\n        /* \"#utility.yul\":12191:12192   */\n      0x00\n        /* \"#utility.yul\":12180:12189   */\n      dup3\n        /* \"#utility.yul\":12176:12193   */\n      add\n        /* \"#utility.yul\":12163:12194   */\n      calldataload\n        /* \"#utility.yul\":12221:12239   */\n      0xffffffffffffffff\n        /* \"#utility.yul\":12213:12219   */\n      dup2\n        /* \"#utility.yul\":12210:12240   */\n      gt\n        /* \"#utility.yul\":12207:12324   */\n      iszero\n      tag_471\n      jumpi\n        /* \"#utility.yul\":12243:12322   */\n      tag_472\n      tag_259\n      jump\t// in\n    tag_472:\n        /* \"#utility.yul\":12207:12324   */\n    tag_471:\n        /* \"#utility.yul\":12348:12411   */\n      tag_473\n        /* \"#utility.yul\":12403:12410   */\n      dup5\n        /* \"#utility.yul\":12394:12400   */\n      dup3\n        /* \"#utility.yul\":12383:12392   */\n      dup6\n        /* \"#utility.yul\":12379:12401   */\n      add\n        /* \"#utility.yul\":12348:12411   */\n      tag_296\n      jump\t// in\n    tag_473:\n        /* \"#utility.yul\":12338:12411   */\n      swap2\n      pop\n        /* \"#utility.yul\":12134:12421   */\n      pop\n        /* \"#utility.yul\":11919:12428   */\n      swap3\n      swap2\n      pop\n      pop\n      jump\t// out\n        /* \"#utility.yul\":12434:12599   */\n    tag_297:\n        /* \"#utility.yul\":12574:12591   */\n      0x496e76616c69642077616c6c2049440000000000000000000000000000000000\n        /* \"#utility.yul\":12570:12571   */\n      0x00\n        /* \"#utility.yul\":12562:12568   */\n      dup3\n        /* \"#utility.yul\":12558:12572   */\n      add\n        /* \"#utility.yul\":12551:12592   */\n      mstore\n        /* \"#utility.yul\":12434:12599   */\n      pop\n      jump\t// out\n        /* \"#utility.yul\":12605:12971   */\n    tag_298:\n        /* \"#utility.yul\":12747:12750   */\n      0x00\n        /* \"#utility.yul\":12768:12835   */\n      tag_476\n        /* \"#utility.yul\":12832:12834   */\n      0x0f\n        /* \"#utility.yul\":12827:12830   */\n      dup4\n        /* \"#utility.yul\":12768:12835   */\n      tag_286\n      jump\t// in\n    tag_476:\n        /* \"#utility.yul\":12761:12835   */\n      swap2\n      pop\n        /* \"#utility.yul\":12844:12937   */\n      tag_477\n        /* \"#utility.yul\":12933:12936   */\n      dup3\n        /* \"#utility.yul\":12844:12937   */\n      tag_297\n      jump\t// in\n    tag_477:\n        /* \"#utility.yul\":12962:12964   */\n      0x20\n        /* \"#utility.yul\":12957:12960   */\n      dup3\n        /* \"#utility.yul\":12953:12965   */\n      add\n        /* \"#utility.yul\":12946:12965   */\n      swap1\n      pop\n        /* \"#utility.yul\":12605:12971   */\n      swap2\n      swap1\n      pop\n      jump\t// out\n        /* \"#utility.yul\":12977:13396   */\n    tag_106:\n        /* \"#utility.yul\":13143:13147   */\n      0x00\n        /* \"#utility.yul\":13181:13183   */\n      0x20\n        /* \"#utility.yul\":13170:13179   */\n      dup3\n        /* \"#utility.yul\":13166:13184   */\n      add\n        /* \"#utility.yul\":13158:13184   */\n      swap1\n      pop\n        /* \"#utility.yul\":13230:13239   */\n      dup2\n        /* \"#utility.yul\":13224:13228   */\n      dup2\n        /* \"#utility.yul\":13220:13240   */\n      sub\n        /* \"#utility.yul\":13216:13217   */\n      0x00\n        /* \"#utility.yul\":13205:13214   */\n      dup4\n        /* \"#utility.yul\":13201:13218   */\n      add\n        /* \"#utility.yul\":13194:13241   */\n      mstore\n        /* \"#utility.yul\":13258:13389   */\n      tag_479\n        /* \"#utility.yul\":13384:13388   */\n      dup2\n        /* \"#utility.yul\":13258:13389   */\n      tag_298\n      jump\t// in\n    tag_479:\n        /* \"#utility.yul\":13250:13389   */\n      swap1\n      pop\n        /* \"#utility.yul\":12977:13396   */\n      swap2\n      swap1\n      pop\n      jump\t// out\n        /* \"#utility.yul\":13402:13582   */\n    tag_299:\n        /* \"#utility.yul\":13450:13527   */\n      0x4e487b7100000000000000000000000000000000000000000000000000000000\n        /* \"#utility.yul\":13447:13448   */\n      0x00\n        /* \"#utility.yul\":13440:13528   */\n      mstore\n        /* \"#utility.yul\":13547:13551   */\n      0x22\n        /* \"#utility.yul\":13544:13545   */\n      0x04\n        /* \"#utility.yul\":13537:13552   */\n      mstore\n        /* \"#utility.yul\":13571:13575   */\n      0x24\n        /* \"#utility.yul\":13568:13569   */\n      0x00\n        /* \"#utility.yul\":13561:13576   */\n      revert\n        /* \"#utility.yul\":13588:13908   */\n    tag_108:\n        /* \"#utility.yul\":13632:13638   */\n      0x00\n        /* \"#utility.yul\":13669:13670   */\n      0x02\n        /* \"#utility.yul\":13663:13667   */\n      dup3\n        /* \"#utility.yul\":13659:13671   */\n      div\n        /* \"#utility.yul\":13649:13671   */\n      swap1\n      pop\n        /* \"#utility.yul\":13716:13717   */\n      0x01\n        /* \"#utility.yul\":13710:13714   */\n      dup3\n        /* \"#utility.yul\":13706:13718   */\n      and\n        /* \"#utility.yul\":13737:13755   */\n      dup1\n        /* \"#utility.yul\":13727:13808   */\n      tag_482\n      jumpi\n        /* \"#utility.yul\":13793:13797   */\n      0x7f\n        /* \"#utility.yul\":13785:13791   */\n      dup3\n        /* \"#utility.yul\":13781:13798   */\n      and\n        /* \"#utility.yul\":13771:13798   */\n      swap2\n      pop\n        /* \"#utility.yul\":13727:13808   */\n    tag_482:\n        /* \"#utility.yul\":13855:13857   */\n      0x20\n        /* \"#utility.yul\":13847:13853   */\n      dup3\n        /* \"#utility.yul\":13844:13858   */\n      lt\n        /* \"#utility.yul\":13824:13842   */\n      dup2\n        /* \"#utility.yul\":13821:13859   */\n      sub\n        /* \"#utility.yul\":13818:13902   */\n      tag_483\n      jumpi\n        /* \"#utility.yul\":13874:13892   */\n      tag_484\n      tag_299\n      jump\t// in\n    tag_484:\n        /* \"#utility.yul\":13818:13902   */\n    tag_483:\n        /* \"#utility.yul\":13639:13908   */\n      pop\n        /* \"#utility.yul\":13588:13908   */\n      swap2\n      swap1\n      pop\n      jump\t// out\n        /* \"#utility.yul\":13914:14135   */\n    tag_300:\n        /* \"#utility.yul\":14054:14088   */\n      0x596f7520617265206e6f7420746865206f776e6572206f662074686973207761\n        /* \"#utility.yul\":14050:14051   */\n      0x00\n        /* \"#utility.yul\":14042:14048   */\n      dup3\n        /* \"#utility.yul\":14038:14052   */\n      add\n        /* \"#utility.yul\":14031:14089   */\n      mstore\n        /* \"#utility.yul\":14123:14127   */\n      0x6c6c000000000000000000000000000000000000000000000000000000000000\n        /* \"#utility.yul\":14118:14120   */\n      0x20\n        /* \"#utility.yul\":14110:14116   */\n      dup3\n        /* \"#utility.yul\":14106:14121   */\n      add\n        /* \"#utility.yul\":14099:14128   */\n      mstore\n        /* \"#utility.yul\":13914:14135   */\n      pop\n      jump\t// out\n        /* \"#utility.yul\":14141:14507   */\n    tag_301:\n        /* \"#utility.yul\":14283:14286   */\n      0x00\n        /* \"#utility.yul\":14304:14371   */\n      tag_487\n        /* \"#utility.yul\":14368:14370   */\n      0x22\n        /* \"#utility.yul\":14363:14366   */\n      dup4\n        /* \"#utility.yul\":14304:14371   */\n      tag_286\n      jump\t// in\n    tag_487:\n        /* \"#utility.yul\":14297:14371   */\n      swap2\n      pop\n        /* \"#utility.yul\":14380:14473   */\n      tag_488\n        /* \"#utility.yul\":14469:14472   */\n      dup3\n        /* \"#utility.yul\":14380:14473   */\n      tag_300\n      jump\t// in\n    tag_488:\n        /* \"#utility.yul\":14498:14500   */\n      0x40\n        /* \"#utility.yul\":14493:14496   */\n      dup3\n        /* \"#utility.yul\":14489:14501   */\n      add\n        /* \"#utility.yul\":14482:14501   */\n      swap1\n      pop\n        /* \"#utility.yul\":14141:14507   */\n      swap2\n      swap1\n      pop\n      jump\t// out\n        /* \"#utility.yul\":14513:14932   */\n    tag_150:\n        /* \"#utility.yul\":14679:14683   */\n      0x00\n        /* \"#utility.yul\":14717:14719   */\n      0x20\n        /* \"#utility.yul\":14706:14715   */\n      dup3\n        /* \"#utility.yul\":14702:14720   */\n      add\n        /* \"#utility.yul\":14694:14720   */\n      swap1\n      pop\n        /* \"#utility.yul\":14766:14775   */\n      dup2\n        /* \"#utility.yul\":14760:14764   */\n      dup2\n        /* \"#utility.yul\":14756:14776   */\n      sub\n        /* \"#utility.yul\":14752:14753   */\n      0x00\n        /* \"#utility.yul\":14741:14750   */\n      dup4\n        /* \"#utility.yul\":14737:14754   */\n      add\n        /* \"#utility.yul\":14730:14777   */\n      mstore\n        /* \"#utility.yul\":14794:14925   */\n      tag_490\n        /* \"#utility.yul\":14920:14924   */\n      dup2\n        /* \"#utility.yul\":14794:14925   */\n      tag_301\n      jump\t// in\n    tag_490:\n        /* \"#utility.yul\":14786:14925   */\n      swap1\n      pop\n        /* \"#utility.yul\":14513:14932   */\n      swap2\n      swap1\n      pop\n      jump\t// out\n        /* \"#utility.yul\":14938:15113   */\n    tag_302:\n        /* \"#utility.yul\":15078:15105   */\n      0x496e76616c6964206e6577206f776e6572206164647265737300000000000000\n        /* \"#utility.yul\":15074:15075   */\n      0x00\n        /* \"#utility.yul\":15066:15072   */\n      dup3\n        /* \"#utility.yul\":15062:15076   */\n      add\n        /* \"#utility.yul\":15055:15106   */\n      mstore\n        /* \"#utility.yul\":14938:15113   */\n      pop\n      jump\t// out\n        /* \"#utility.yul\":15119:15485   */\n    tag_303:\n        /* \"#utility.yul\":15261:15264   */\n      0x00\n        /* \"#utility.yul\":15282:15349   */\n      tag_493\n        /* \"#utility.yul\":15346:15348   */\n      0x19\n        /* \"#utility.yul\":15341:15344   */\n      dup4\n        /* \"#utility.yul\":15282:15349   */\n      tag_286\n      jump\t// in\n    tag_493:\n        /* \"#utility.yul\":15275:15349   */\n      swap2\n      pop\n        /* \"#utility.yul\":15358:15451   */\n      tag_494\n        /* \"#utility.yul\":15447:15450   */\n      dup3\n        /* \"#utility.yul\":15358:15451   */\n      tag_302\n      jump\t// in\n    tag_494:\n        /* \"#utility.yul\":15476:15478   */\n      0x20\n        /* \"#utility.yul\":15471:15474   */\n      dup3\n        /* \"#utility.yul\":15467:15479   */\n      add\n        /* \"#utility.yul\":15460:15479   */\n      swap1\n      pop\n        /* \"#utility.yul\":15119:15485   */\n      swap2\n      swap1\n      pop\n      jump\t// out\n        /* \"#utility.yul\":15491:15910   */\n    tag_153:\n        /* \"#utility.yul\":15657:15661   */\n      0x00\n        /* \"#utility.yul\":15695:15697   */\n      0x20\n        /* \"#utility.yul\":15684:15693   */\n      dup3\n        /* \"#utility.yul\":15680:15698   */\n      add\n        /* \"#utility.yul\":15672:15698   */\n      swap1\n      pop\n        /* \"#utility.yul\":15744:15753   */\n      dup2\n        /* \"#utility.yul\":15738:15742   */\n      dup2\n        /* \"#utility.yul\":15734:15754   */\n      sub\n        /* \"#utility.yul\":15730:15731   */\n      0x00\n        /* \"#utility.yul\":15719:15728   */\n      dup4\n        /* \"#utility.yul\":15715:15732   */\n      add\n        /* \"#utility.yul\":15708:15755   */\n      mstore\n        /* \"#utility.yul\":15772:15903   */\n      tag_496\n        /* \"#utility.yul\":15898:15902   */\n      dup2\n        /* \"#utility.yul\":15772:15903   */\n      tag_303\n      jump\t// in\n    tag_496:\n        /* \"#utility.yul\":15764:15903   */\n      swap1\n      pop\n        /* \"#utility.yul\":15491:15910   */\n      swap2\n      swap1\n      pop\n      jump\t// out\n        /* \"#utility.yul\":15916:16248   */\n    tag_156:\n        /* \"#utility.yul\":16037:16041   */\n      0x00\n        /* \"#utility.yul\":16075:16077   */\n      0x40\n        /* \"#utility.yul\":16064:16073   */\n      dup3\n        /* \"#utility.yul\":16060:16078   */\n      add\n        /* \"#utility.yul\":16052:16078   */\n      swap1\n      pop\n        /* \"#utility.yul\":16088:16159   */\n      tag_498\n        /* \"#utility.yul\":16156:16157   */\n      0x00\n        /* \"#utility.yul\":16145:16154   */\n      dup4\n        /* \"#utility.yul\":16141:16158   */\n      add\n        /* \"#utility.yul\":16132:16138   */\n      dup6\n        /* \"#utility.yul\":16088:16159   */\n      tag_281\n      jump\t// in\n    tag_498:\n        /* \"#utility.yul\":16169:16241   */\n      tag_499\n        /* \"#utility.yul\":16237:16239   */\n      0x20\n        /* \"#utility.yul\":16226:16235   */\n      dup4\n        /* \"#utility.yul\":16222:16240   */\n      add\n        /* \"#utility.yul\":16213:16219   */\n      dup5\n        /* \"#utility.yul\":16169:16241   */\n      tag_285\n      jump\t// in\n    tag_499:\n        /* \"#utility.yul\":15916:16248   */\n      swap4\n      swap3\n      pop\n      pop\n      pop\n      jump\t// out\n        /* \"#utility.yul\":16254:16370   */\n    tag_304:\n        /* \"#utility.yul\":16324:16345   */\n      tag_501\n        /* \"#utility.yul\":16339:16344   */\n      dup2\n        /* \"#utility.yul\":16324:16345   */\n      tag_263\n      jump\t// in\n    tag_501:\n        /* \"#utility.yul\":16317:16322   */\n      dup2\n        /* \"#utility.yul\":16314:16346   */\n      eq\n        /* \"#utility.yul\":16304:16364   */\n      tag_502\n      jumpi\n        /* \"#utility.yul\":16360:16361   */\n      0x00\n        /* \"#utility.yul\":16357:16358   */\n      dup1\n        /* \"#utility.yul\":16350:16362   */\n      revert\n        /* \"#utility.yul\":16304:16364   */\n    tag_502:\n        /* \"#utility.yul\":16254:16370   */\n      pop\n      jump\t// out\n        /* \"#utility.yul\":16376:16513   */\n    tag_305:\n        /* \"#utility.yul\":16430:16435   */\n      0x00\n        /* \"#utility.yul\":16461:16467   */\n      dup2\n        /* \"#utility.yul\":16455:16468   */\n      mload\n        /* \"#utility.yul\":16446:16468   */\n      swap1\n      pop\n        /* \"#utility.yul\":16477:16507   */\n      tag_504\n        /* \"#utility.yul\":16501:16506   */\n      dup2\n        /* \"#utility.yul\":16477:16507   */\n      tag_304\n      jump\t// in\n    tag_504:\n        /* \"#utility.yul\":16376:16513   */\n      swap3\n      swap2\n      pop\n      pop\n      jump\t// out\n        /* \"#utility.yul\":16519:16864   */\n    tag_160:\n        /* \"#utility.yul\":16586:16592   */\n      0x00\n        /* \"#utility.yul\":16635:16637   */\n      0x20\n        /* \"#utility.yul\":16623:16632   */\n      dup3\n        /* \"#utility.yul\":16614:16621   */\n      dup5\n        /* \"#utility.yul\":16610:16633   */\n      sub\n        /* \"#utility.yul\":16606:16638   */\n      slt\n        /* \"#utility.yul\":16603:16722   */\n      iszero\n      tag_506\n      jumpi\n        /* \"#utility.yul\":16641:16720   */\n      tag_507\n      tag_258\n      jump\t// in\n    tag_507:\n        /* \"#utility.yul\":16603:16722   */\n    tag_506:\n        /* \"#utility.yul\":16761:16762   */\n      0x00\n        /* \"#utility.yul\":16786:16847   */\n      tag_508\n        /* \"#utility.yul\":16839:16846   */\n      dup5\n        /* \"#utility.yul\":16830:16836   */\n      dup3\n        /* \"#utility.yul\":16819:16828   */\n      dup6\n        /* \"#utility.yul\":16815:16837   */\n      add\n        /* \"#utility.yul\":16786:16847   */\n      tag_305\n      jump\t// in\n    tag_508:\n        /* \"#utility.yul\":16776:16847   */\n      swap2\n      pop\n        /* \"#utility.yul\":16732:16857   */\n      pop\n        /* \"#utility.yul\":16519:16864   */\n      swap3\n      swap2\n      pop\n      pop\n      jump\t// out\n        /* \"#utility.yul\":16870:17093   */\n    tag_306:\n        /* \"#utility.yul\":17010:17044   */\n      0x43616c6c657220646f6573206e6f7420686176652057414c4c5f4f574e45525f\n        /* \"#utility.yul\":17006:17007   */\n      0x00\n        /* \"#utility.yul\":16998:17004   */\n      dup3\n        /* \"#utility.yul\":16994:17008   */\n      add\n        /* \"#utility.yul\":16987:17045   */\n      mstore\n        /* \"#utility.yul\":17079:17085   */\n      0x524f4c4500000000000000000000000000000000000000000000000000000000\n        /* \"#utility.yul\":17074:17076   */\n      0x20\n        /* \"#utility.yul\":17066:17072   */\n      dup3\n        /* \"#utility.yul\":17062:17077   */\n      add\n        /* \"#utility.yul\":17055:17086   */\n      mstore\n        /* \"#utility.yul\":16870:17093   */\n      pop\n      jump\t// out\n        /* \"#utility.yul\":17099:17465   */\n    tag_307:\n        /* \"#utility.yul\":17241:17244   */\n      0x00\n        /* \"#utility.yul\":17262:17329   */\n      tag_511\n        /* \"#utility.yul\":17326:17328   */\n      0x24\n        /* \"#utility.yul\":17321:17324   */\n      dup4\n        /* \"#utility.yul\":17262:17329   */\n      tag_286\n      jump\t// in\n    tag_511:\n        /* \"#utility.yul\":17255:17329   */\n      swap2\n      pop\n        /* \"#utility.yul\":17338:17431   */\n      tag_512\n        /* \"#utility.yul\":17427:17430   */\n      dup3\n        /* \"#utility.yul\":17338:17431   */\n      tag_306\n      jump\t// in\n    tag_512:\n        /* \"#utility.yul\":17456:17458   */\n      0x40\n        /* \"#utility.yul\":17451:17454   */\n      dup3\n        /* \"#utility.yul\":17447:17459   */\n      add\n        /* \"#utility.yul\":17440:17459   */\n      swap1\n      pop\n        /* \"#utility.yul\":17099:17465   */\n      swap2\n      swap1\n      pop\n      jump\t// out\n        /* \"#utility.yul\":17471:17890   */\n    tag_163:\n        /* \"#utility.yul\":17637:17641   */\n      0x00\n        /* \"#utility.yul\":17675:17677   */\n      0x20\n        /* \"#utility.yul\":17664:17673   */\n      dup3\n        /* \"#utility.yul\":17660:17678   */\n      add\n        /* \"#utility.yul\":17652:17678   */\n      swap1\n      pop\n        /* \"#utility.yul\":17724:17733   */\n      dup2\n        /* \"#utility.yul\":17718:17722   */\n      dup2\n        /* \"#utility.yul\":17714:17734   */\n      sub\n        /* \"#utility.yul\":17710:17711   */\n      0x00\n        /* \"#utility.yul\":17699:17708   */\n      dup4\n        /* \"#utility.yul\":17695:17712   */\n      add\n        /* \"#utility.yul\":17688:17735   */\n      mstore\n        /* \"#utility.yul\":17752:17883   */\n      tag_514\n        /* \"#utility.yul\":17878:17882   */\n      dup2\n        /* \"#utility.yul\":17752:17883   */\n      tag_307\n      jump\t// in\n    tag_514:\n        /* \"#utility.yul\":17744:17883   */\n      swap1\n      pop\n        /* \"#utility.yul\":17471:17890   */\n      swap2\n      swap1\n      pop\n      jump\t// out\n        /* \"#utility.yul\":17896:18076   */\n    tag_308:\n        /* \"#utility.yul\":17944:18021   */\n      0x4e487b7100000000000000000000000000000000000000000000000000000000\n        /* \"#utility.yul\":17941:17942   */\n      0x00\n        /* \"#utility.yul\":17934:18022   */\n      mstore\n        /* \"#utility.yul\":18041:18045   */\n      0x11\n        /* \"#utility.yul\":18038:18039   */\n      0x04\n        /* \"#utility.yul\":18031:18046   */\n      mstore\n        /* \"#utility.yul\":18065:18069   */\n      0x24\n        /* \"#utility.yul\":18062:18063   */\n      0x00\n        /* \"#utility.yul\":18055:18070   */\n      revert\n        /* \"#utility.yul\":18082:18315   */\n    tag_165:\n        /* \"#utility.yul\":18121:18124   */\n      0x00\n        /* \"#utility.yul\":18144:18168   */\n      tag_517\n        /* \"#utility.yul\":18162:18167   */\n      dup3\n        /* \"#utility.yul\":18144:18168   */\n      tag_265\n      jump\t// in\n    tag_517:\n        /* \"#utility.yul\":18135:18168   */\n      swap2\n      pop\n        /* \"#utility.yul\":18190:18256   */\n      0xffffffffffffffffffffffffffffffffffffffffffffffffffffffffffffffff\n        /* \"#utility.yul\":18183:18188   */\n      dup3\n        /* \"#utility.yul\":18180:18257   */\n      sub\n        /* \"#utility.yul\":18177:18280   */\n      tag_518\n      jumpi\n        /* \"#utility.yul\":18260:18278   */\n      tag_519\n      tag_308\n      jump\t// in\n    tag_519:\n        /* \"#utility.yul\":18177:18280   */\n    tag_518:\n        /* \"#utility.yul\":18307:18308   */\n      0x01\n        /* \"#utility.yul\":18300:18305   */\n      dup3\n        /* \"#utility.yul\":18296:18309   */\n      add\n        /* \"#utility.yul\":18289:18309   */\n      swap1\n      pop\n        /* \"#utility.yul\":18082:18315   */\n      swap2\n      swap1\n      pop\n      jump\t// out\n        /* \"#utility.yul\":18321:18462   */\n    tag_309:\n        /* \"#utility.yul\":18370:18374   */\n      0x00\n        /* \"#utility.yul\":18393:18396   */\n      dup2\n        /* \"#utility.yul\":18385:18396   */\n      swap1\n      pop\n        /* \"#utility.yul\":18416:18419   */\n      dup2\n        /* \"#utility.yul\":18413:18414   */\n      0x00\n        /* \"#utility.yul\":18406:18420   */\n      mstore\n        /* \"#utility.yul\":18450:18454   */\n      0x20\n        /* \"#utility.yul\":18447:18448   */\n      0x00\n        /* \"#utility.yul\":18437:18455   */\n      keccak256\n        /* \"#utility.yul\":18429:18455   */\n      swap1\n      pop\n        /* \"#utility.yul\":18321:18462   */\n      swap2\n      swap1\n      pop\n      jump\t// out\n        /* \"#utility.yul\":18468:18561   */\n    tag_310:\n        /* \"#utility.yul\":18505:18511   */\n      0x00\n        /* \"#utility.yul\":18552:18554   */\n      0x20\n        /* \"#utility.yul\":18547:18549   */\n      0x1f\n        /* \"#utility.yul\":18540:18545   */\n      dup4\n        /* \"#utility.yul\":18536:18550   */\n      add\n        /* \"#utility.yul\":18532:18555   */\n      div\n        /* \"#utility.yul\":18522:18555   */\n      swap1\n      pop\n        /* \"#utility.yul\":18468:18561   */\n      swap2\n      swap1\n      pop\n      jump\t// out\n        /* \"#utility.yul\":18567:18674   */\n    tag_311:\n        /* \"#utility.yul\":18611:18619   */\n      0x00\n        /* \"#utility.yul\":18661:18666   */\n      dup3\n        /* \"#utility.yul\":18655:18659   */\n      dup3\n        /* \"#utility.yul\":18651:18667   */\n      shl\n        /* \"#utility.yul\":18630:18667   */\n      swap1\n      pop\n        /* \"#utility.yul\":18567:18674   */\n      swap3\n      swap2\n      pop\n      pop\n      jump\t// out\n        /* \"#utility.yul\":18680:19073   */\n    tag_312:\n        /* \"#utility.yul\":18749:18755   */\n      0x00\n        /* \"#utility.yul\":18799:18800   */\n      0x08\n        /* \"#utility.yul\":18787:18797   */\n      dup4\n        /* \"#utility.yul\":18783:18801   */\n      mul\n        /* \"#utility.yul\":18822:18919   */\n      tag_524\n        /* \"#utility.yul\":18852:18918   */\n      0xffffffffffffffffffffffffffffffffffffffffffffffffffffffffffffffff\n        /* \"#utility.yul\":18841:18850   */\n      dup3\n        /* \"#utility.yul\":18822:18919   */\n      tag_311\n      jump\t// in\n    tag_524:\n        /* \"#utility.yul\":18940:18979   */\n      tag_525\n        /* \"#utility.yul\":18970:18978   */\n      dup7\n        /* \"#utility.yul\":18959:18968   */\n      dup4\n        /* \"#utility.yul\":18940:18979   */\n      tag_311\n      jump\t// in\n    tag_525:\n        /* \"#utility.yul\":18928:18979   */\n      swap6\n      pop\n        /* \"#utility.yul\":19012:19016   */\n      dup1\n        /* \"#utility.yul\":19008:19017   */\n      not\n        /* \"#utility.yul\":19001:19006   */\n      dup5\n        /* \"#utility.yul\":18997:19018   */\n      and\n        /* \"#utility.yul\":18988:19018   */\n      swap4\n      pop\n        /* \"#utility.yul\":19061:19065   */\n      dup1\n        /* \"#utility.yul\":19051:19059   */\n      dup7\n        /* \"#utility.yul\":19047:19066   */\n      and\n        /* \"#utility.yul\":19040:19045   */\n      dup5\n        /* \"#utility.yul\":19037:19067   */\n      or\n        /* \"#utility.yul\":19027:19067   */\n      swap3\n      pop\n        /* \"#utility.yul\":18756:19073   */\n      pop\n      pop\n        /* \"#utility.yul\":18680:19073   */\n      swap4\n      swap3\n      pop\n      pop\n      pop\n      jump\t// out\n        /* \"#utility.yul\":19079:19221   */\n    tag_313:\n        /* \"#utility.yul\":19129:19138   */\n      0x00\n        /* \"#utility.yul\":19162:19215   */\n      tag_527\n        /* \"#utility.yul\":19180:19214   */\n      tag_528\n        /* \"#utility.yul\":19189:19213   */\n      tag_529\n        /* \"#utility.yul\":19207:19212   */\n      dup5\n        /* \"#utility.yul\":19189:19213   */\n      tag_265\n      jump\t// in\n    tag_529:\n        /* \"#utility.yul\":19180:19214   */\n      tag_252\n      jump\t// in\n    tag_528:\n        /* \"#utility.yul\":19162:19215   */\n      tag_265\n      jump\t// in\n    tag_527:\n        /* \"#utility.yul\":19149:19215   */\n      swap1\n      pop\n        /* \"#utility.yul\":19079:19221   */\n      swap2\n      swap1\n      pop\n      jump\t// out\n        /* \"#utility.yul\":19227:19302   */\n    tag_314:\n        /* \"#utility.yul\":19270:19273   */\n      0x00\n        /* \"#utility.yul\":19291:19296   */\n      dup2\n        /* \"#utility.yul\":19284:19296   */\n      swap1\n      pop\n        /* \"#utility.yul\":19227:19302   */\n      swap2\n      swap1\n      pop\n      jump\t// out\n        /* \"#utility.yul\":19308:19577   */\n    tag_315:\n        /* \"#utility.yul\":19418:19457   */\n      tag_532\n        /* \"#utility.yul\":19449:19456   */\n      dup4\n        /* \"#utility.yul\":19418:19457   */\n      tag_313\n      jump\t// in\n    tag_532:\n        /* \"#utility.yul\":19479:19570   */\n      tag_533\n        /* \"#utility.yul\":19528:19569   */\n      tag_534\n        /* \"#utility.yul\":19552:19568   */\n      dup3\n        /* \"#utility.yul\":19528:19569   */\n      tag_314\n      jump\t// in\n    tag_534:\n        /* \"#utility.yul\":19520:19526   */\n      dup5\n        /* \"#utility.yul\":19513:19517   */\n      dup5\n        /* \"#utility.yul\":19507:19518   */\n      sload\n        /* \"#utility.yul\":19479:19570   */\n      tag_312\n      jump\t// in\n    tag_533:\n        /* \"#utility.yul\":19473:19477   */\n      dup3\n        /* \"#utility.yul\":19466:19571   */\n      sstore\n        /* \"#utility.yul\":19384:19577   */\n      pop\n        /* \"#utility.yul\":19308:19577   */\n      pop\n      pop\n      pop\n      jump\t// out\n        /* \"#utility.yul\":19583:19656   */\n    tag_316:\n        /* \"#utility.yul\":19628:19631   */\n      0x00\n        /* \"#utility.yul\":19583:19656   */\n      swap1\n      jump\t// out\n        /* \"#utility.yul\":19662:19851   */\n    tag_317:\n        /* \"#utility.yul\":19739:19771   */\n      tag_537\n      tag_316\n      jump\t// in\n    tag_537:\n        /* \"#utility.yul\":19780:19845   */\n      tag_538\n        /* \"#utility.yul\":19838:19844   */\n      dup2\n        /* \"#utility.yul\":19830:19836   */\n      dup5\n        /* \"#utility.yul\":19824:19828   */\n      dup5\n        /* \"#utility.yul\":19780:19845   */\n      tag_315\n      jump\t// in\n    tag_538:\n        /* \"#utility.yul\":19715:19851   */\n      pop\n        /* \"#utility.yul\":19662:19851   */\n      pop\n      pop\n      jump\t// out\n        /* \"#utility.yul\":19857:20043   */\n    tag_318:\n        /* \"#utility.yul\":19917:20037   */\n    tag_540:\n        /* \"#utility.yul\":19934:19937   */\n      dup2\n        /* \"#utility.yul\":19927:19932   */\n      dup2\n        /* \"#utility.yul\":19924:19938   */\n      lt\n        /* \"#utility.yul\":19917:20037   */\n      iszero\n      tag_542\n      jumpi\n        /* \"#utility.yul\":19988:20027   */\n      tag_543\n        /* \"#utility.yul\":20025:20026   */\n      0x00\n        /* \"#utility.yul\":20018:20023   */\n      dup3\n        /* \"#utility.yul\":19988:20027   */\n      tag_317\n      jump\t// in\n    tag_543:\n        /* \"#utility.yul\":19961:19962   */\n      0x01\n        /* \"#utility.yul\":19954:19959   */\n      dup2\n        /* \"#utility.yul\":19950:19963   */\n      add\n        /* \"#utility.yul\":19941:19963   */\n      swap1\n      pop\n        /* \"#utility.yul\":19917:20037   */\n      jump(tag_540)\n    tag_542:\n        /* \"#utility.yul\":19857:20043   */\n      pop\n      pop\n      jump\t// out\n        /* \"#utility.yul\":20049:20592   */\n    tag_319:\n        /* \"#utility.yul\":20150:20152   */\n      0x1f\n        /* \"#utility.yul\":20145:20148   */\n      dup3\n        /* \"#utility.yul\":20142:20153   */\n      gt\n        /* \"#utility.yul\":20139:20585   */\n      iszero\n      tag_545\n      jumpi\n        /* \"#utility.yul\":20184:20222   */\n      tag_546\n        /* \"#utility.yul\":20216:20221   */\n      dup2\n        /* \"#utility.yul\":20184:20222   */\n      tag_309\n      jump\t// in\n    tag_546:\n        /* \"#utility.yul\":20268:20297   */\n      tag_547\n        /* \"#utility.yul\":20286:20296   */\n      dup5\n        /* \"#utility.yul\":20268:20297   */\n      tag_310\n      jump\t// in\n    tag_547:\n        /* \"#utility.yul\":20258:20266   */\n      dup2\n        /* \"#utility.yul\":20254:20298   */\n      add\n        /* \"#utility.yul\":20451:20453   */\n      0x20\n        /* \"#utility.yul\":20439:20449   */\n      dup6\n        /* \"#utility.yul\":20436:20454   */\n      lt\n        /* \"#utility.yul\":20433:20482   */\n      iszero\n      tag_548\n      jumpi\n        /* \"#utility.yul\":20472:20480   */\n      dup2\n        /* \"#utility.yul\":20457:20480   */\n      swap1\n      pop\n        /* \"#utility.yul\":20433:20482   */\n    tag_548:\n        /* \"#utility.yul\":20495:20575   */\n      tag_549\n        /* \"#utility.yul\":20551:20573   */\n      tag_550\n        /* \"#utility.yul\":20569:20572   */\n      dup6\n        /* \"#utility.yul\":20551:20573   */\n      tag_310\n      jump\t// in\n    tag_550:\n        /* \"#utility.yul\":20541:20549   */\n      dup4\n        /* \"#utility.yul\":20537:20574   */\n      add\n        /* \"#utility.yul\":20524:20535   */\n      dup3\n        /* \"#utility.yul\":20495:20575   */\n      tag_318\n      jump\t// in\n    tag_549:\n        /* \"#utility.yul\":20154:20585   */\n      pop\n      pop\n        /* \"#utility.yul\":20139:20585   */\n    tag_545:\n        /* \"#utility.yul\":20049:20592   */\n      pop\n      pop\n      pop\n      jump\t// out\n        /* \"#utility.yul\":20598:20715   */\n    tag_320:\n        /* \"#utility.yul\":20652:20660   */\n      0x00\n        /* \"#utility.yul\":20702:20707   */\n      dup3\n        /* \"#utility.yul\":20696:20700   */\n      dup3\n        /* \"#utility.yul\":20692:20708   */\n      shr\n        /* \"#utility.yul\":20671:20708   */\n      swap1\n      pop\n        /* \"#utility.yul\":20598:20715   */\n      swap3\n      swap2\n      pop\n      pop\n      jump\t// out\n        /* \"#utility.yul\":20721:20890   */\n    tag_321:\n        /* \"#utility.yul\":20765:20771   */\n      0x00\n        /* \"#utility.yul\":20798:20849   */\n      tag_553\n        /* \"#utility.yul\":20846:20847   */\n      0x00\n        /* \"#utility.yul\":20842:20848   */\n      not\n        /* \"#utility.yul\":20834:20839   */\n      dup5\n        /* \"#utility.yul\":20831:20832   */\n      0x08\n        /* \"#utility.yul\":20827:20840   */\n      mul\n        /* \"#utility.yul\":20798:20849   */\n      tag_320\n      jump\t// in\n    tag_553:\n        /* \"#utility.yul\":20794:20850   */\n      not\n        /* \"#utility.yul\":20879:20883   */\n      dup1\n        /* \"#utility.yul\":20873:20877   */\n      dup4\n        /* \"#utility.yul\":20869:20884   */\n      and\n        /* \"#utility.yul\":20859:20884   */\n      swap2\n      pop\n        /* \"#utility.yul\":20772:20890   */\n      pop\n        /* \"#utility.yul\":20721:20890   */\n      swap3\n      swap2\n      pop\n      pop\n      jump\t// out\n        /* \"#utility.yul\":20895:21190   */\n    tag_322:\n        /* \"#utility.yul\":20971:20975   */\n      0x00\n        /* \"#utility.yul\":21117:21146   */\n      tag_555\n        /* \"#utility.yul\":21142:21145   */\n      dup4\n        /* \"#utility.yul\":21136:21140   */\n      dup4\n        /* \"#utility.yul\":21117:21146   */\n      tag_321\n      jump\t// in\n    tag_555:\n        /* \"#utility.yul\":21109:21146   */\n      swap2\n      pop\n        /* \"#utility.yul\":21179:21182   */\n      dup3\n        /* \"#utility.yul\":21176:21177   */\n      0x02\n        /* \"#utility.yul\":21172:21183   */\n      mul\n        /* \"#utility.yul\":21166:21170   */\n      dup3\n        /* \"#utility.yul\":21163:21184   */\n      or\n        /* \"#utility.yul\":21155:21184   */\n      swap1\n      pop\n        /* \"#utility.yul\":20895:21190   */\n      swap3\n      swap2\n      pop\n      pop\n      jump\t// out\n        /* \"#utility.yul\":21195:22590   */\n    tag_167:\n        /* \"#utility.yul\":21312:21349   */\n      tag_557\n        /* \"#utility.yul\":21345:21348   */\n      dup3\n        /* \"#utility.yul\":21312:21349   */\n      tag_271\n      jump\t// in\n    tag_557:\n        /* \"#utility.yul\":21414:21432   */\n      0xffffffffffffffff\n        /* \"#utility.yul\":21406:21412   */\n      dup2\n        /* \"#utility.yul\":21403:21433   */\n      gt\n        /* \"#utility.yul\":21400:21456   */\n      iszero\n      tag_558\n      jumpi\n        /* \"#utility.yul\":21436:21454   */\n      tag_559\n      tag_290\n      jump\t// in\n    tag_559:\n        /* \"#utility.yul\":21400:21456   */\n    tag_558:\n        /* \"#utility.yul\":21480:21518   */\n      tag_560\n        /* \"#utility.yul\":21512:21516   */\n      dup3\n        /* \"#utility.yul\":21506:21517   */\n      sload\n        /* \"#utility.yul\":21480:21518   */\n      tag_108\n      jump\t// in\n    tag_560:\n        /* \"#utility.yul\":21565:21632   */\n      tag_561\n        /* \"#utility.yul\":21625:21631   */\n      dup3\n        /* \"#utility.yul\":21617:21623   */\n      dup3\n        /* \"#utility.yul\":21611:21615   */\n      dup6\n        /* \"#utility.yul\":21565:21632   */\n      tag_319\n      jump\t// in\n    tag_561:\n        /* \"#utility.yul\":21659:21660   */\n      0x00\n        /* \"#utility.yul\":21683:21687   */\n      0x20\n        /* \"#utility.yul\":21670:21687   */\n      swap1\n      pop\n        /* \"#utility.yul\":21715:21717   */\n      0x1f\n        /* \"#utility.yul\":21707:21713   */\n      dup4\n        /* \"#utility.yul\":21704:21718   */\n      gt\n        /* \"#utility.yul\":21732:21733   */\n      0x01\n        /* \"#utility.yul\":21727:22345   */\n      dup2\n      eq\n      tag_563\n      jumpi\n        /* \"#utility.yul\":22389:22390   */\n      0x00\n        /* \"#utility.yul\":22406:22412   */\n      dup5\n        /* \"#utility.yul\":22403:22480   */\n      iszero\n      tag_564\n      jumpi\n        /* \"#utility.yul\":22455:22464   */\n      dup3\n        /* \"#utility.yul\":22450:22453   */\n      dup8\n        /* \"#utility.yul\":22446:22465   */\n      add\n        /* \"#utility.yul\":22440:22466   */\n      mload\n        /* \"#utility.yul\":22431:22466   */\n      swap1\n      pop\n        /* \"#utility.yul\":22403:22480   */\n    tag_564:\n        /* \"#utility.yul\":22506:22573   */\n      tag_565\n        /* \"#utility.yul\":22566:22572   */\n      dup6\n        /* \"#utility.yul\":22559:22564   */\n      dup3\n        /* \"#utility.yul\":22506:22573   */\n      tag_322\n      jump\t// in\n    tag_565:\n        /* \"#utility.yul\":22500:22504   */\n      dup7\n        /* \"#utility.yul\":22493:22574   */\n      sstore\n        /* \"#utility.yul\":22362:22584   */\n      pop\n        /* \"#utility.yul\":21697:22584   */\n      jump(tag_562)\n        /* \"#utility.yul\":21727:22345   */\n    tag_563:\n        /* \"#utility.yul\":21779:21783   */\n      0x1f\n        /* \"#utility.yul\":21775:21784   */\n      not\n        /* \"#utility.yul\":21767:21773   */\n      dup5\n        /* \"#utility.yul\":21763:21785   */\n      and\n        /* \"#utility.yul\":21813:21850   */\n      tag_566\n        /* \"#utility.yul\":21845:21849   */\n      dup7\n        /* \"#utility.yul\":21813:21850   */\n      tag_309\n      jump\t// in\n    tag_566:\n        /* \"#utility.yul\":21872:21873   */\n      0x00\n        /* \"#utility.yul\":21886:22094   */\n    tag_567:\n        /* \"#utility.yul\":21900:21907   */\n      dup3\n        /* \"#utility.yul\":21897:21898   */\n      dup2\n        /* \"#utility.yul\":21894:21908   */\n      lt\n        /* \"#utility.yul\":21886:22094   */\n      iszero\n      tag_569\n      jumpi\n        /* \"#utility.yul\":21979:21988   */\n      dup5\n        /* \"#utility.yul\":21974:21977   */\n      dup10\n        /* \"#utility.yul\":21970:21989   */\n      add\n        /* \"#utility.yul\":21964:21990   */\n      mload\n        /* \"#utility.yul\":21956:21962   */\n      dup3\n        /* \"#utility.yul\":21949:21991   */\n      sstore\n        /* \"#utility.yul\":22030:22031   */\n      0x01\n        /* \"#utility.yul\":22022:22028   */\n      dup3\n        /* \"#utility.yul\":22018:22032   */\n      add\n        /* \"#utility.yul\":22008:22032   */\n      swap2\n      pop\n        /* \"#utility.yul\":22077:22079   */\n      0x20\n        /* \"#utility.yul\":22066:22075   */\n      dup6\n        /* \"#utility.yul\":22062:22080   */\n      add\n        /* \"#utility.yul\":22049:22080   */\n      swap5\n      pop\n        /* \"#utility.yul\":21923:21927   */\n      0x20\n        /* \"#utility.yul\":21920:21921   */\n      dup2\n        /* \"#utility.yul\":21916:21928   */\n      add\n        /* \"#utility.yul\":21911:21928   */\n      swap1\n      pop\n        /* \"#utility.yul\":21886:22094   */\n      jump(tag_567)\n    tag_569:\n        /* \"#utility.yul\":22122:22128   */\n      dup7\n        /* \"#utility.yul\":22113:22120   */\n      dup4\n        /* \"#utility.yul\":22110:22129   */\n      lt\n        /* \"#utility.yul\":22107:22286   */\n      iszero\n      tag_570\n      jumpi\n        /* \"#utility.yul\":22180:22189   */\n      dup5\n        /* \"#utility.yul\":22175:22178   */\n      dup10\n        /* \"#utility.yul\":22171:22190   */\n      add\n        /* \"#utility.yul\":22165:22191   */\n      mload\n        /* \"#utility.yul\":22223:22271   */\n      tag_571\n        /* \"#utility.yul\":22265:22269   */\n      0x1f\n        /* \"#utility.yul\":22257:22263   */\n      dup10\n        /* \"#utility.yul\":22253:22270   */\n      and\n        /* \"#utility.yul\":22242:22251   */\n      dup3\n        /* \"#utility.yul\":22223:22271   */\n      tag_321\n      jump\t// in\n    tag_571:\n        /* \"#utility.yul\":22215:22221   */\n      dup4\n        /* \"#utility.yul\":22208:22272   */\n      sstore\n        /* \"#utility.yul\":22130:22286   */\n      pop\n        /* \"#utility.yul\":22107:22286   */\n    tag_570:\n        /* \"#utility.yul\":22332:22333   */\n      0x01\n        /* \"#utility.yul\":22328:22329   */\n      0x02\n        /* \"#utility.yul\":22320:22326   */\n      dup9\n        /* \"#utility.yul\":22316:22330   */\n      mul\n        /* \"#utility.yul\":22312:22334   */\n      add\n        /* \"#utility.yul\":22306:22310   */\n      dup9\n        /* \"#utility.yul\":22299:22335   */\n      sstore\n        /* \"#utility.yul\":21734:22345   */\n      pop\n      pop\n      pop\n        /* \"#utility.yul\":21697:22584   */\n    tag_562:\n      pop\n        /* \"#utility.yul\":21287:22590   */\n      pop\n      pop\n      pop\n        /* \"#utility.yul\":21195:22590   */\n      pop\n      pop\n      jump\t// out\n        /* \"#utility.yul\":22596:22909   */\n    tag_169:\n        /* \"#utility.yul\":22709:22713   */\n      0x00\n        /* \"#utility.yul\":22747:22749   */\n      0x20\n        /* \"#utility.yul\":22736:22745   */\n      dup3\n        /* \"#utility.yul\":22732:22750   */\n      add\n        /* \"#utility.yul\":22724:22750   */\n      swap1\n      pop\n        /* \"#utility.yul\":22796:22805   */\n      dup2\n        /* \"#utility.yul\":22790:22794   */\n      dup2\n        /* \"#utility.yul\":22786:22806   */\n      sub\n        /* \"#utility.yul\":22782:22783   */\n      0x00\n        /* \"#utility.yul\":22771:22780   */\n      dup4\n        /* \"#utility.yul\":22767:22784   */\n      add\n        /* \"#utility.yul\":22760:22807   */\n      mstore\n        /* \"#utility.yul\":22824:22902   */\n      tag_573\n        /* \"#utility.yul\":22897:22901   */\n      dup2\n        /* \"#utility.yul\":22888:22894   */\n      dup5\n        /* \"#utility.yul\":22824:22902   */\n      tag_287\n      jump\t// in\n    tag_573:\n        /* \"#utility.yul\":22816:22902   */\n      swap1\n      pop\n        /* \"#utility.yul\":22596:22909   */\n      swap3\n      swap2\n      pop\n      pop\n      jump\t// out\n        /* \"#utility.yul\":22915:23086   */\n    tag_323:\n        /* \"#utility.yul\":23055:23078   */\n      0x57616c6c20616c726561647920617070726f7665640000000000000000000000\n        /* \"#utility.yul\":23051:23052   */\n      0x00\n        /* \"#utility.yul\":23043:23049   */\n      dup3\n        /* \"#utility.yul\":23039:23053   */\n      add\n        /* \"#utility.yul\":23032:23079   */\n      mstore\n        /* \"#utility.yul\":22915:23086   */\n      pop\n      jump\t// out\n        /* \"#utility.yul\":23092:23458   */\n    tag_324:\n        /* \"#utility.yul\":23234:23237   */\n      0x00\n        /* \"#utility.yul\":23255:23322   */\n      tag_576\n        /* \"#utility.yul\":23319:23321   */\n      0x15\n        /* \"#utility.yul\":23314:23317   */\n      dup4\n        /* \"#utility.yul\":23255:23322   */\n      tag_286\n      jump\t// in\n    tag_576:\n        /* \"#utility.yul\":23248:23322   */\n      swap2\n      pop\n        /* \"#utility.yul\":23331:23424   */\n      tag_577\n        /* \"#utility.yul\":23420:23423   */\n      dup3\n        /* \"#utility.yul\":23331:23424   */\n      tag_323\n      jump\t// in\n    tag_577:\n        /* \"#utility.yul\":23449:23451   */\n      0x20\n        /* \"#utility.yul\":23444:23447   */\n      dup3\n        /* \"#utility.yul\":23440:23452   */\n      add\n        /* \"#utility.yul\":23433:23452   */\n      swap1\n      pop\n        /* \"#utility.yul\":23092:23458   */\n      swap2\n      swap1\n      pop\n      jump\t// out\n        /* \"#utility.yul\":23464:23883   */\n    tag_182:\n        /* \"#utility.yul\":23630:23634   */\n      0x00\n        /* \"#utility.yul\":23668:23670   */\n      0x20\n        /* \"#utility.yul\":23657:23666   */\n      dup3\n        /* \"#utility.yul\":23653:23671   */\n      add\n        /* \"#utility.yul\":23645:23671   */\n      swap1\n      pop\n        /* \"#utility.yul\":23717:23726   */\n      dup2\n        /* \"#utility.yul\":23711:23715   */\n      dup2\n        /* \"#utility.yul\":23707:23727   */\n      sub\n        /* \"#utility.yul\":23703:23704   */\n      0x00\n        /* \"#utility.yul\":23692:23701   */\n      dup4\n        /* \"#utility.yul\":23688:23705   */\n      add\n        /* \"#utility.yul\":23681:23728   */\n      mstore\n        /* \"#utility.yul\":23745:23876   */\n      tag_579\n        /* \"#utility.yul\":23871:23875   */\n      dup2\n        /* \"#utility.yul\":23745:23876   */\n      tag_324\n      jump\t// in\n    tag_579:\n        /* \"#utility.yul\":23737:23876   */\n      swap1\n      pop\n        /* \"#utility.yul\":23464:23883   */\n      swap2\n      swap1\n      pop\n      jump\t// out\n        /* \"#utility.yul\":23889:24111   */\n    tag_222:\n        /* \"#utility.yul\":23982:23986   */\n      0x00\n        /* \"#utility.yul\":24020:24022   */\n      0x20\n        /* \"#utility.yul\":24009:24018   */\n      dup3\n        /* \"#utility.yul\":24005:24023   */\n      add\n        /* \"#utility.yul\":23997:24023   */\n      swap1\n      pop\n        /* \"#utility.yul\":24033:24104   */\n      tag_581\n        /* \"#utility.yul\":24101:24102   */\n      0x00\n        /* \"#utility.yul\":24090:24099   */\n      dup4\n        /* \"#utility.yul\":24086:24103   */\n      add\n        /* \"#utility.yul\":24077:24083   */\n      dup5\n        /* \"#utility.yul\":24033:24104   */\n      tag_285\n      jump\t// in\n    tag_581:\n        /* \"#utility.yul\":23889:24111   */\n      swap3\n      swap2\n      pop\n      pop\n      jump\t// out\n        /* \"#utility.yul\":24117:24449   */\n    tag_233:\n        /* \"#utility.yul\":24238:24242   */\n      0x00\n        /* \"#utility.yul\":24276:24278   */\n      0x40\n        /* \"#utility.yul\":24265:24274   */\n      dup3\n        /* \"#utility.yul\":24261:24279   */\n      add\n        /* \"#utility.yul\":24253:24279   */\n      swap1\n      pop\n        /* \"#utility.yul\":24289:24360   */\n      tag_583\n        /* \"#utility.yul\":24357:24358   */\n      0x00\n        /* \"#utility.yul\":24346:24355   */\n      dup4\n        /* \"#utility.yul\":24342:24359   */\n      add\n        /* \"#utility.yul\":24333:24339   */\n      dup6\n        /* \"#utility.yul\":24289:24360   */\n      tag_285\n      jump\t// in\n    tag_583:\n        /* \"#utility.yul\":24370:24442   */\n      tag_584\n        /* \"#utility.yul\":24438:24440   */\n      0x20\n        /* \"#utility.yul\":24427:24436   */\n      dup4\n        /* \"#utility.yul\":24423:24441   */\n      add\n        /* \"#utility.yul\":24414:24420   */\n      dup5\n        /* \"#utility.yul\":24370:24442   */\n      tag_281\n      jump\t// in\n    tag_584:\n        /* \"#utility.yul\":24117:24449   */\n      swap4\n      swap3\n      pop\n      pop\n      pop\n      jump\t// out\n        /* \"#utility.yul\":24455:24625   */\n    tag_325:\n        /* \"#utility.yul\":24595:24617   */\n      0x5061757361626c653a206e6f7420706175736564000000000000000000000000\n        /* \"#utility.yul\":24591:24592   */\n      0x00\n        /* \"#utility.yul\":24583:24589   */\n      dup3\n        /* \"#utility.yul\":24579:24593   */\n      add\n        /* \"#utility.yul\":24572:24618   */\n      mstore\n        /* \"#utility.yul\":24455:24625   */\n      pop\n      jump\t// out\n        /* \"#utility.yul\":24631:24997   */\n    tag_326:\n        /* \"#utility.yul\":24773:24776   */\n      0x00\n        /* \"#utility.yul\":24794:24861   */\n      tag_587\n        /* \"#utility.yul\":24858:24860   */\n      0x14\n        /* \"#utility.yul\":24853:24856   */\n      dup4\n        /* \"#utility.yul\":24794:24861   */\n      tag_286\n      jump\t// in\n    tag_587:\n        /* \"#utility.yul\":24787:24861   */\n      swap2\n      pop\n        /* \"#utility.yul\":24870:24963   */\n      tag_588\n        /* \"#utility.yul\":24959:24962   */\n      dup3\n        /* \"#utility.yul\":24870:24963   */\n      tag_325\n      jump\t// in\n    tag_588:\n        /* \"#utility.yul\":24988:24990   */\n      0x20\n        /* \"#utility.yul\":24983:24986   */\n      dup3\n        /* \"#utility.yul\":24979:24991   */\n      add\n        /* \"#utility.yul\":24972:24991   */\n      swap1\n      pop\n        /* \"#utility.yul\":24631:24997   */\n      swap2\n      swap1\n      pop\n      jump\t// out\n        /* \"#utility.yul\":25003:25422   */\n    tag_238:\n        /* \"#utility.yul\":25169:25173   */\n      0x00\n        /* \"#utility.yul\":25207:25209   */\n      0x20\n        /* \"#utility.yul\":25196:25205   */\n      dup3\n        /* \"#utility.yul\":25192:25210   */\n      add\n        /* \"#utility.yul\":25184:25210   */\n      swap1\n      pop\n        /* \"#utility.yul\":25256:25265   */\n      dup2\n        /* \"#utility.yul\":25250:25254   */\n      dup2\n        /* \"#utility.yul\":25246:25266   */\n      sub\n        /* \"#utility.yul\":25242:25243   */\n      0x00\n        /* \"#utility.yul\":25231:25240   */\n      dup4\n        /* \"#utility.yul\":25227:25244   */\n      add\n        /* \"#utility.yul\":25220:25267   */\n      mstore\n        /* \"#utility.yul\":25284:25415   */\n      tag_590\n        /* \"#utility.yul\":25410:25414   */\n      dup2\n        /* \"#utility.yul\":25284:25415   */\n      tag_326\n      jump\t// in\n    tag_590:\n        /* \"#utility.yul\":25276:25415   */\n      swap1\n      pop\n        /* \"#utility.yul\":25003:25422   */\n      swap2\n      swap1\n      pop\n      jump\t// out\n        /* \"#utility.yul\":25428:25594   */\n    tag_327:\n        /* \"#utility.yul\":25568:25586   */\n      0x5061757361626c653a2070617573656400000000000000000000000000000000\n        /* \"#utility.yul\":25564:25565   */\n      0x00\n        /* \"#utility.yul\":25556:25562   */\n      dup3\n        /* \"#utility.yul\":25552:25566   */\n      add\n        /* \"#utility.yul\":25545:25587   */\n      mstore\n        /* \"#utility.yul\":25428:25594   */\n      pop\n      jump\t// out\n        /* \"#utility.yul\":25600:25966   */\n    tag_328:\n        /* \"#utility.yul\":25742:25745   */\n      0x00\n        /* \"#utility.yul\":25763:25830   */\n      tag_593\n        /* \"#utility.yul\":25827:25829   */\n      0x10\n        /* \"#utility.yul\":25822:25825   */\n      dup4\n        /* \"#utility.yul\":25763:25830   */\n      tag_286\n      jump\t// in\n    tag_593:\n        /* \"#utility.yul\":25756:25830   */\n      swap2\n      pop\n        /* \"#utility.yul\":25839:25932   */\n      tag_594\n        /* \"#utility.yul\":25928:25931   */\n      dup3\n        /* \"#utility.yul\":25839:25932   */\n      tag_327\n      jump\t// in\n    tag_594:\n        /* \"#utility.yul\":25957:25959   */\n      0x20\n        /* \"#utility.yul\":25952:25955   */\n      dup3\n        /* \"#utility.yul\":25948:25960   */\n      add\n        /* \"#utility.yul\":25941:25960   */\n      swap1\n      pop\n        /* \"#utility.yul\":25600:25966   */\n      swap2\n      swap1\n      pop\n      jump\t// out\n        /* \"#utility.yul\":25972:26391   */\n    tag_243:\n        /* \"#utility.yul\":26138:26142   */\n      0x00\n        /* \"#utility.yul\":26176:26178   */\n      0x20\n        /* \"#utility.yul\":26165:26174   */\n      dup3\n        /* \"#utility.yul\":26161:26179   */\n      add\n        /* \"#utility.yul\":26153:26179   */\n      swap1\n      pop\n        /* \"#utility.yul\":26225:26234   */\n      dup2\n        /* \"#utility.yul\":26219:26223   */\n      dup2\n        /* \"#utility.yul\":26215:26235   */\n      sub\n        /* \"#utility.yul\":26211:26212   */\n      0x00\n        /* \"#utility.yul\":26200:26209   */\n      dup4\n        /* \"#utility.yul\":26196:26213   */\n      add\n        /* \"#utility.yul\":26189:26236   */\n      mstore\n        /* \"#utility.yul\":26253:26384   */\n      tag_596\n        /* \"#utility.yul\":26379:26383   */\n      dup2\n        /* \"#utility.yul\":26253:26384   */\n      tag_328\n      jump\t// in\n    tag_596:\n        /* \"#utility.yul\":26245:26384   */\n      swap1\n      pop\n        /* \"#utility.yul\":25972:26391   */\n      swap2\n      swap1\n      pop\n      jump\t// out\n\n    auxdata: 0xa2646970667358221220cfc6bfa494a2bba4ea725d460243ebb695cfcf9edee0ea72e500748d24128ea564736f6c63430008140033\n}\n",
				"bytecode": {
					"linkReferences": {},
					"object": "608060405234801562000010575f80fd5b506040516200261938038062002619833981810160405281019062000036919062000319565b5f60015f6101000a81548160ff0219169083151502179055505f73ffffffffffffffffffffffffffffffffffffffff168173ffffffffffffffffffffffffffffffffffffffff1603620000c0576040517f08c379a0000000000000000000000000000000000000000000000000000000008152600401620000b790620003a7565b60405180910390fd5b806001806101000a81548173ffffffffffffffffffffffffffffffffffffffff021916908373ffffffffffffffffffffffffffffffffffffffff160217905550620001145f801b336200014f60201b60201c565b50620001477fa49807205ce4d355092ef5a8a18f56e8913cf4a201fbe287825b095693c21775336200014f60201b60201c565b5050620003c7565b5f6200016283836200024a60201b60201c565b620002405760015f808581526020019081526020015f205f015f8473ffffffffffffffffffffffffffffffffffffffff1673ffffffffffffffffffffffffffffffffffffffff1681526020019081526020015f205f6101000a81548160ff021916908315150217905550620001dc620002ad60201b60201c565b73ffffffffffffffffffffffffffffffffffffffff168273ffffffffffffffffffffffffffffffffffffffff16847f2f8788117e7eff1d82e926ec794901d17c78024a50270940304540a733656f0d60405160405180910390a46001905062000244565b5f90505b92915050565b5f805f8481526020019081526020015f205f015f8373ffffffffffffffffffffffffffffffffffffffff1673ffffffffffffffffffffffffffffffffffffffff1681526020019081526020015f205f9054906101000a900460ff16905092915050565b5f33905090565b5f80fd5b5f73ffffffffffffffffffffffffffffffffffffffff82169050919050565b5f620002e382620002b8565b9050919050565b620002f581620002d7565b811462000300575f80fd5b50565b5f815190506200031381620002ea565b92915050565b5f60208284031215620003315762000330620002b4565b5b5f620003408482850162000303565b91505092915050565b5f82825260208201905092915050565b7f496e76616c696420526f6c654d616e61676572206164647265737300000000005f82015250565b5f6200038f601b8362000349565b91506200039c8262000359565b602082019050919050565b5f6020820190508181035f830152620003c08162000381565b9050919050565b61224480620003d55f395ff3fe608060405234801561000f575f80fd5b506004361061011e575f3560e01c806375b238fc116100ab578063a217fddf1161006f578063a217fddf146102f5578063a27e736114610313578063cb3de4781461032f578063d547741f1461034b578063f64fee98146103675761011e565b806375b238fc146102635780638456cb591461028157806391d148541461028b57806398e4abb5146102bb578063a1519b11146102d95761011e565b80632f2ff15d116100f25780632f2ff15d146101d057806336568abe146101ec5780633f4ba83a14610208578063550a3dba146102125780635c975abb146102455761011e565b8062435da51461012257806301ffc9a7146101405780631ab5d0c714610170578063248a9ca3146101a0575b5f80fd5b61012a610383565b6040516101379190611508565b60405180910390f35b61015a60048036038101906101559190611587565b6103a7565b60405161016791906115cc565b60405180910390f35b61018a60048036038101906101859190611618565b610420565b604051610197919061176b565b60405180910390f35b6101ba60048036038101906101b591906117be565b6105a3565b6040516101c791906117f8565b60405180910390f35b6101ea60048036038101906101e5919061183b565b6105bf565b005b6102066004803603810190610201919061183b565b6105e1565b005b61021061065c565b005b61022c60048036038101906102279190611618565b610691565b60405161023c94939291906118df565b60405180910390f35b61024d61076e565b60405161025a91906115cc565b60405180910390f35b61026b610783565b60405161027891906117f8565b60405180910390f35b6102896107a7565b005b6102a560048036038101906102a0919061183b565b6107dc565b6040516102b291906115cc565b60405180910390f35b6102c361083f565b6040516102d091906117f8565b60405180910390f35b6102f360048036038101906102ee9190611929565b610863565b005b6102fd610a18565b60405161030a91906117f8565b60405180910390f35b61032d60048036038101906103289190611a93565b610a1e565b005b61034960048036038101906103449190611618565b610c56565b005b6103656004803603810190610360919061183b565b610e5d565b005b610381600480360381019061037c9190611618565b610e7f565b005b60018054906101000a900473ffffffffffffffffffffffffffffffffffffffff1681565b5f7f7965db0b000000000000000000000000000000000000000000000000000000007bffffffffffffffffffffffffffffffffffffffffffffffffffffffff1916827bffffffffffffffffffffffffffffffffffffffffffffffffffffffff19161480610419575061041882610ffd565b5b9050919050565b6104286113f9565b5f8211801561043957506002548211155b610478576040517f08c379a000000000000000000000000000000000000000000000000000000000815260040161046f90611b24565b60405180910390fd5b60035f8381526020019081526020015f206040518060800160405290815f8201548152602001600182015f9054906101000a900473ffffffffffffffffffffffffffffffffffffffff1673ffffffffffffffffffffffffffffffffffffffff1673ffffffffffffffffffffffffffffffffffffffff16815260200160028201805461050290611b6f565b80601f016020809104026020016040519081016040528092919081815260200182805461052e90611b6f565b80156105795780601f1061055057610100808354040283529160200191610579565b820191905f5260205f20905b81548152906001019060200180831161055c57829003601f168201915b50505050508152602001600382015f9054906101000a900460ff1615151515815250509050919050565b5f805f8381526020019081526020015f20600101549050919050565b6105c8826105a3565b6105d181611066565b6105db838361107a565b50505050565b6105e9611163565b73ffffffffffffffffffffffffffffffffffffffff168173ffffffffffffffffffffffffffffffffffffffff161461064d576040517f6697b23200000000000000000000000000000000000000000000000000000000815260040160405180910390fd5b610657828261116a565b505050565b7fa49807205ce4d355092ef5a8a18f56e8913cf4a201fbe287825b095693c2177561068681611066565b61068e611253565b50565b6003602052805f5260405f205f91509050805f015490806001015f9054906101000a900473ffffffffffffffffffffffffffffffffffffffff16908060020180546106db90611b6f565b80601f016020809104026020016040519081016040528092919081815260200182805461070790611b6f565b80156107525780601f1061072957610100808354040283529160200191610752565b820191905f5260205f20905b81548152906001019060200180831161073557829003601f168201915b505050505090806003015f9054906101000a900460ff16905084565b5f60015f9054906101000a900460ff16905090565b7fa49807205ce4d355092ef5a8a18f56e8913cf4a201fbe287825b095693c2177581565b7fa49807205ce4d355092ef5a8a18f56e8913cf4a201fbe287825b095693c217756107d181611066565b6107d96112b4565b50565b5f805f8481526020019081526020015f205f015f8373ffffffffffffffffffffffffffffffffffffffff1673ffffffffffffffffffffffffffffffffffffffff1681526020019081526020015f205f9054906101000a900460ff16905092915050565b7f329c74013ba5a00a181f8b3dc9d0ae428c8a88ad0625246c0382e31759b580db81565b5f8211801561087457506002548211155b6108b3576040517f08c379a00000000000000000000000000000000000000000000000000000000081526004016108aa90611b24565b60405180910390fd5b3373ffffffffffffffffffffffffffffffffffffffff1660035f8481526020019081526020015f206001015f9054906101000a900473ffffffffffffffffffffffffffffffffffffffff1673ffffffffffffffffffffffffffffffffffffffff1614610954576040517f08c379a000000000000000000000000000000000000000000000000000000000815260040161094b90611c0f565b60405180910390fd5b5f73ffffffffffffffffffffffffffffffffffffffff168173ffffffffffffffffffffffffffffffffffffffff16036109c2576040517f08c379a00000000000000000000000000000000000000000000000000000000081526004016109b990611c77565b60405180910390fd5b8060035f8481526020019081526020015f206001015f6101000a81548173ffffffffffffffffffffffffffffffffffffffff021916908373ffffffffffffffffffffffffffffffffffffffff1602179055505050565b5f801b81565b60018054906101000a900473ffffffffffffffffffffffffffffffffffffffff1673ffffffffffffffffffffffffffffffffffffffff166391d148547f329c74013ba5a00a181f8b3dc9d0ae428c8a88ad0625246c0382e31759b580db336040518363ffffffff1660e01b8152600401610a99929190611c95565b602060405180830381865afa158015610ab4573d5f803e3d5ffd5b505050506040513d601f19601f82011682018060405250810190610ad89190611ce6565b610b17576040517f08c379a0000000000000000000000000000000000000000000000000000000008152600401610b0e90611d81565b60405180910390fd5b60025f815480929190610b2990611dcc565b9190505550604051806080016040528060025481526020013373ffffffffffffffffffffffffffffffffffffffff1681526020018281526020015f151581525060035f60025481526020019081526020015f205f820151815f01556020820151816001015f6101000a81548173ffffffffffffffffffffffffffffffffffffffff021916908373ffffffffffffffffffffffffffffffffffffffff1602179055506040820151816002019081610bdf9190611fa7565b506060820151816003015f6101000a81548160ff0219169083151502179055509050503373ffffffffffffffffffffffffffffffffffffffff166002547fce4e10f97ba900058d5e841de15ec6d2adb9dfdbfc3bff978ffe3a77ed5f4c9d83604051610c4b9190612076565b60405180910390a350565b60018054906101000a900473ffffffffffffffffffffffffffffffffffffffff1673ffffffffffffffffffffffffffffffffffffffff166391d148547fa49807205ce4d355092ef5a8a18f56e8913cf4a201fbe287825b095693c21775336040518363ffffffff1660e01b8152600401610cd1929190611c95565b602060405180830381865afa158015610cec573d5f803e3d5ffd5b505050506040513d601f19601f82011682018060405250810190610d109190611ce6565b610d4f576040517f08c379a0000000000000000000000000000000000000000000000000000000008152600401610d4690611d81565b60405180910390fd5b5f81118015610d6057506002548111155b610d9f576040517f08c379a0000000000000000000000000000000000000000000000000000000008152600401610d9690611b24565b60405180910390fd5b5f60035f8381526020019081526020015f209050806003015f9054906101000a900460ff1615610e04576040517f08c379a0000000000000000000000000000000000000000000000000000000008152600401610dfb906120e0565b60405180910390fd5b6001816003015f6101000a81548160ff021916908315150217905550817ff72ceb6c5d78f67960e7ff1de4b8e1657ebeec4c570a20c4630697e13bee94736001604051610e5191906115cc565b60405180910390a25050565b610e66826105a3565b610e6f81611066565b610e79838361116a565b50505050565b7fa49807205ce4d355092ef5a8a18f56e8913cf4a201fbe287825b095693c21775610ea981611066565b5f82118015610eba57506002548211155b610ef9576040517f08c379a0000000000000000000000000000000000000000000000000000000008152600401610ef090611b24565b60405180910390fd5b5f60035f8481526020019081526020015f209050806003015f9054906101000a900460ff1615610f5e576040517f08c379a0000000000000000000000000000000000000000000000000000000008152600401610f55906120e0565b60405180910390fd5b60035f8481526020019081526020015f205f8082015f9055600182015f6101000a81549073ffffffffffffffffffffffffffffffffffffffff0219169055600282015f610fab9190611436565b600382015f6101000a81549060ff02191690555050827ff72ceb6c5d78f67960e7ff1de4b8e1657ebeec4c570a20c4630697e13bee94735f604051610ff091906115cc565b60405180910390a2505050565b5f7f01ffc9a7000000000000000000000000000000000000000000000000000000007bffffffffffffffffffffffffffffffffffffffffffffffffffffffff1916827bffffffffffffffffffffffffffffffffffffffffffffffffffffffff1916149050919050565b61107781611072611163565b611315565b50565b5f61108583836107dc565b6111595760015f808581526020019081526020015f205f015f8473ffffffffffffffffffffffffffffffffffffffff1673ffffffffffffffffffffffffffffffffffffffff1681526020019081526020015f205f6101000a81548160ff0219169083151502179055506110f6611163565b73ffffffffffffffffffffffffffffffffffffffff168273ffffffffffffffffffffffffffffffffffffffff16847f2f8788117e7eff1d82e926ec794901d17c78024a50270940304540a733656f0d60405160405180910390a46001905061115d565b5f90505b92915050565b5f33905090565b5f61117583836107dc565b15611249575f805f8581526020019081526020015f205f015f8473ffffffffffffffffffffffffffffffffffffffff1673ffffffffffffffffffffffffffffffffffffffff1681526020019081526020015f205f6101000a81548160ff0219169083151502179055506111e6611163565b73ffffffffffffffffffffffffffffffffffffffff168273ffffffffffffffffffffffffffffffffffffffff16847ff6391f5c32d9c69d2a47ea670b442974b53935d1edc7fd64eb21e047a839171b60405160405180910390a46001905061124d565b5f90505b92915050565b61125b611366565b5f60015f6101000a81548160ff0219169083151502179055507f5db9ee0a495bf2e6ff9c91a7834c1ba4fdd244a5e8aa4e537bd38aeae4b073aa61129d611163565b6040516112aa91906120fe565b60405180910390a1565b6112bc6113af565b6001805f6101000a81548160ff0219169083151502179055507f62e78cea01bee320cd4e420270b5ea74000d11b0c9f74754ebdbfc544b05a2586112fe611163565b60405161130b91906120fe565b60405180910390a1565b61131f82826107dc565b6113625780826040517fe2517d3f000000000000000000000000000000000000000000000000000000008152600401611359929190612117565b60405180910390fd5b5050565b61136e61076e565b6113ad576040517f08c379a00000000000000000000000000000000000000000000000000000000081526004016113a490612188565b60405180910390fd5b565b6113b761076e565b156113f7576040517f08c379a00000000000000000000000000000000000000000000000000000000081526004016113ee906121f0565b60405180910390fd5b565b60405180608001604052805f81526020015f73ffffffffffffffffffffffffffffffffffffffff168152602001606081526020015f151581525090565b50805461144290611b6f565b5f825580601f106114535750611470565b601f0160209004905f5260205f209081019061146f9190611473565b5b50565b5b8082111561148a575f815f905550600101611474565b5090565b5f73ffffffffffffffffffffffffffffffffffffffff82169050919050565b5f819050919050565b5f6114d06114cb6114c68461148e565b6114ad565b61148e565b9050919050565b5f6114e1826114b6565b9050919050565b5f6114f2826114d7565b9050919050565b611502816114e8565b82525050565b5f60208201905061151b5f8301846114f9565b92915050565b5f604051905090565b5f80fd5b5f80fd5b5f7fffffffff0000000000000000000000000000000000000000000000000000000082169050919050565b61156681611532565b8114611570575f80fd5b50565b5f813590506115818161155d565b92915050565b5f6020828403121561159c5761159b61152a565b5b5f6115a984828501611573565b91505092915050565b5f8115159050919050565b6115c6816115b2565b82525050565b5f6020820190506115df5f8301846115bd565b92915050565b5f819050919050565b6115f7816115e5565b8114611601575f80fd5b50565b5f81359050611612816115ee565b92915050565b5f6020828403121561162d5761162c61152a565b5b5f61163a84828501611604565b91505092915050565b61164c816115e5565b82525050565b5f61165c8261148e565b9050919050565b61166c81611652565b82525050565b5f81519050919050565b5f82825260208201905092915050565b5f5b838110156116a957808201518184015260208101905061168e565b5f8484015250505050565b5f601f19601f8301169050919050565b5f6116ce82611672565b6116d8818561167c565b93506116e881856020860161168c565b6116f1816116b4565b840191505092915050565b611705816115b2565b82525050565b5f608083015f8301516117205f860182611643565b5060208301516117336020860182611663565b506040830151848203604086015261174b82826116c4565b915050606083015161176060608601826116fc565b508091505092915050565b5f6020820190508181035f830152611783818461170b565b905092915050565b5f819050919050565b61179d8161178b565b81146117a7575f80fd5b50565b5f813590506117b881611794565b92915050565b5f602082840312156117d3576117d261152a565b5b5f6117e0848285016117aa565b91505092915050565b6117f28161178b565b82525050565b5f60208201905061180b5f8301846117e9565b92915050565b61181a81611652565b8114611824575f80fd5b50565b5f8135905061183581611811565b92915050565b5f80604083850312156118515761185061152a565b5b5f61185e858286016117aa565b925050602061186f85828601611827565b9150509250929050565b611882816115e5565b82525050565b61189181611652565b82525050565b5f82825260208201905092915050565b5f6118b182611672565b6118bb8185611897565b93506118cb81856020860161168c565b6118d4816116b4565b840191505092915050565b5f6080820190506118f25f830187611879565b6118ff6020830186611888565b818103604083015261191181856118a7565b905061192060608301846115bd565b95945050505050565b5f806040838503121561193f5761193e61152a565b5b5f61194c85828601611604565b925050602061195d85828601611827565b9150509250929050565b5f80fd5b5f80fd5b7f4e487b71000000000000000000000000000000000000000000000000000000005f52604160045260245ffd5b6119a5826116b4565b810181811067ffffffffffffffff821117156119c4576119c361196f565b5b80604052505050565b5f6119d6611521565b90506119e2828261199c565b919050565b5f67ffffffffffffffff821115611a0157611a0061196f565b5b611a0a826116b4565b9050602081019050919050565b828183375f83830152505050565b5f611a37611a32846119e7565b6119cd565b905082815260208101848484011115611a5357611a5261196b565b5b611a5e848285611a17565b509392505050565b5f82601f830112611a7a57611a79611967565b5b8135611a8a848260208601611a25565b91505092915050565b5f60208284031215611aa857611aa761152a565b5b5f82013567ffffffffffffffff811115611ac557611ac461152e565b5b611ad184828501611a66565b91505092915050565b7f496e76616c69642077616c6c20494400000000000000000000000000000000005f82015250565b5f611b0e600f83611897565b9150611b1982611ada565b602082019050919050565b5f6020820190508181035f830152611b3b81611b02565b9050919050565b7f4e487b71000000000000000000000000000000000000000000000000000000005f52602260045260245ffd5b5f6002820490506001821680611b8657607f821691505b602082108103611b9957611b98611b42565b5b50919050565b7f596f7520617265206e6f7420746865206f776e6572206f6620746869732077615f8201527f6c6c000000000000000000000000000000000000000000000000000000000000602082015250565b5f611bf9602283611897565b9150611c0482611b9f565b604082019050919050565b5f6020820190508181035f830152611c2681611bed565b9050919050565b7f496e76616c6964206e6577206f776e65722061646472657373000000000000005f82015250565b5f611c61601983611897565b9150611c6c82611c2d565b602082019050919050565b5f6020820190508181035f830152611c8e81611c55565b9050919050565b5f604082019050611ca85f8301856117e9565b611cb56020830184611888565b9392505050565b611cc5816115b2565b8114611ccf575f80fd5b50565b5f81519050611ce081611cbc565b92915050565b5f60208284031215611cfb57611cfa61152a565b5b5f611d0884828501611cd2565b91505092915050565b7f43616c6c657220646f6573206e6f7420686176652057414c4c5f4f574e45525f5f8201527f524f4c4500000000000000000000000000000000000000000000000000000000602082015250565b5f611d6b602483611897565b9150611d7682611d11565b604082019050919050565b5f6020820190508181035f830152611d9881611d5f565b9050919050565b7f4e487b71000000000000000000000000000000000000000000000000000000005f52601160045260245ffd5b5f611dd6826115e5565b91507fffffffffffffffffffffffffffffffffffffffffffffffffffffffffffffffff8203611e0857611e07611d9f565b5b600182019050919050565b5f819050815f5260205f209050919050565b5f6020601f8301049050919050565b5f82821b905092915050565b5f60088302611e6f7fffffffffffffffffffffffffffffffffffffffffffffffffffffffffffffffff82611e34565b611e798683611e34565b95508019841693508086168417925050509392505050565b5f611eab611ea6611ea1846115e5565b6114ad565b6115e5565b9050919050565b5f819050919050565b611ec483611e91565b611ed8611ed082611eb2565b848454611e40565b825550505050565b5f90565b611eec611ee0565b611ef7818484611ebb565b505050565b5b81811015611f1a57611f0f5f82611ee4565b600181019050611efd565b5050565b601f821115611f5f57611f3081611e13565b611f3984611e25565b81016020851015611f48578190505b611f5c611f5485611e25565b830182611efc565b50505b505050565b5f82821c905092915050565b5f611f7f5f1984600802611f64565b1980831691505092915050565b5f611f978383611f70565b9150826002028217905092915050565b611fb082611672565b67ffffffffffffffff811115611fc957611fc861196f565b5b611fd38254611b6f565b611fde828285611f1e565b5f60209050601f83116001811461200f575f8415611ffd578287015190505b6120078582611f8c565b86555061206e565b601f19841661201d86611e13565b5f5b828110156120445784890151825560018201915060208501945060208101905061201f565b86831015612061578489015161205d601f891682611f70565b8355505b6001600288020188555050505b505050505050565b5f6020820190508181035f83015261208e81846118a7565b905092915050565b7f57616c6c20616c726561647920617070726f76656400000000000000000000005f82015250565b5f6120ca601583611897565b91506120d582612096565b602082019050919050565b5f6020820190508181035f8301526120f7816120be565b9050919050565b5f6020820190506121115f830184611888565b92915050565b5f60408201905061212a5f830185611888565b61213760208301846117e9565b9392505050565b7f5061757361626c653a206e6f74207061757365640000000000000000000000005f82015250565b5f612172601483611897565b915061217d8261213e565b602082019050919050565b5f6020820190508181035f83015261219f81612166565b9050919050565b7f5061757361626c653a20706175736564000000000000000000000000000000005f82015250565b5f6121da601083611897565b91506121e5826121a6565b602082019050919050565b5f6020820190508181035f830152612207816121ce565b905091905056fea2646970667358221220cfc6bfa494a2bba4ea725d460243ebb695cfcf9edee0ea72e500748d24128ea564736f6c63430008140033",
					"opcodes": "PUSH1 0x80 PUSH1 0x40 MSTORE CALLVALUE DUP1 ISZERO PUSH3 0x10 JUMPI PUSH0 DUP1 REVERT JUMPDEST POP PUSH1 0x40 MLOAD PUSH3 0x2619 CODESIZE SUB DUP1 PUSH3 0x2619 DUP4 CODECOPY DUP2 DUP2 ADD PUSH1 0x40 MSTORE DUP2 ADD SWAP1 PUSH3 0x36 SWAP2 SWAP1 PUSH3 0x319 JUMP JUMPDEST PUSH0 PUSH1 0x1 PUSH0 PUSH2 0x100 EXP DUP2 SLOAD DUP2 PUSH1 0xFF MUL NOT AND SWAP1 DUP4 ISZERO ISZERO MUL OR SWAP1 SSTORE POP PUSH0 PUSH20 0xFFFFFFFFFFFFFFFFFFFFFFFFFFFFFFFFFFFFFFFF AND DUP2 PUSH20 0xFFFFFFFFFFFFFFFFFFFFFFFFFFFFFFFFFFFFFFFF AND SUB PUSH3 0xC0 JUMPI PUSH1 0x40 MLOAD PUSH32 0x8C379A000000000000000000000000000000000000000000000000000000000 DUP2 MSTORE PUSH1 0x4 ADD PUSH3 0xB7 SWAP1 PUSH3 0x3A7 JUMP JUMPDEST PUSH1 0x40 MLOAD DUP1 SWAP2 SUB SWAP1 REVERT JUMPDEST DUP1 PUSH1 0x1 DUP1 PUSH2 0x100 EXP DUP2 SLOAD DUP2 PUSH20 0xFFFFFFFFFFFFFFFFFFFFFFFFFFFFFFFFFFFFFFFF MUL NOT AND SWAP1 DUP4 PUSH20 0xFFFFFFFFFFFFFFFFFFFFFFFFFFFFFFFFFFFFFFFF AND MUL OR SWAP1 SSTORE POP PUSH3 0x114 PUSH0 DUP1 SHL CALLER PUSH3 0x14F PUSH1 0x20 SHL PUSH1 0x20 SHR JUMP JUMPDEST POP PUSH3 0x147 PUSH32 0xA49807205CE4D355092EF5A8A18F56E8913CF4A201FBE287825B095693C21775 CALLER PUSH3 0x14F PUSH1 0x20 SHL PUSH1 0x20 SHR JUMP JUMPDEST POP POP PUSH3 0x3C7 JUMP JUMPDEST PUSH0 PUSH3 0x162 DUP4 DUP4 PUSH3 0x24A PUSH1 0x20 SHL PUSH1 0x20 SHR JUMP JUMPDEST PUSH3 0x240 JUMPI PUSH1 0x1 PUSH0 DUP1 DUP6 DUP2 MSTORE PUSH1 0x20 ADD SWAP1 DUP2 MSTORE PUSH1 0x20 ADD PUSH0 KECCAK256 PUSH0 ADD PUSH0 DUP5 PUSH20 0xFFFFFFFFFFFFFFFFFFFFFFFFFFFFFFFFFFFFFFFF AND PUSH20 0xFFFFFFFFFFFFFFFFFFFFFFFFFFFFFFFFFFFFFFFF AND DUP2 MSTORE PUSH1 0x20 ADD SWAP1 DUP2 MSTORE PUSH1 0x20 ADD PUSH0 KECCAK256 PUSH0 PUSH2 0x100 EXP DUP2 SLOAD DUP2 PUSH1 0xFF MUL NOT AND SWAP1 DUP4 ISZERO ISZERO MUL OR SWAP1 SSTORE POP PUSH3 0x1DC PUSH3 0x2AD PUSH1 0x20 SHL PUSH1 0x20 SHR JUMP JUMPDEST PUSH20 0xFFFFFFFFFFFFFFFFFFFFFFFFFFFFFFFFFFFFFFFF AND DUP3 PUSH20 0xFFFFFFFFFFFFFFFFFFFFFFFFFFFFFFFFFFFFFFFF AND DUP5 PUSH32 0x2F8788117E7EFF1D82E926EC794901D17C78024A50270940304540A733656F0D PUSH1 0x40 MLOAD PUSH1 0x40 MLOAD DUP1 SWAP2 SUB SWAP1 LOG4 PUSH1 0x1 SWAP1 POP PUSH3 0x244 JUMP JUMPDEST PUSH0 SWAP1 POP JUMPDEST SWAP3 SWAP2 POP POP JUMP JUMPDEST PUSH0 DUP1 PUSH0 DUP5 DUP2 MSTORE PUSH1 0x20 ADD SWAP1 DUP2 MSTORE PUSH1 0x20 ADD PUSH0 KECCAK256 PUSH0 ADD PUSH0 DUP4 PUSH20 0xFFFFFFFFFFFFFFFFFFFFFFFFFFFFFFFFFFFFFFFF AND PUSH20 0xFFFFFFFFFFFFFFFFFFFFFFFFFFFFFFFFFFFFFFFF AND DUP2 MSTORE PUSH1 0x20 ADD SWAP1 DUP2 MSTORE PUSH1 0x20 ADD PUSH0 KECCAK256 PUSH0 SWAP1 SLOAD SWAP1 PUSH2 0x100 EXP SWAP1 DIV PUSH1 0xFF AND SWAP1 POP SWAP3 SWAP2 POP POP JUMP JUMPDEST PUSH0 CALLER SWAP1 POP SWAP1 JUMP JUMPDEST PUSH0 DUP1 REVERT JUMPDEST PUSH0 PUSH20 0xFFFFFFFFFFFFFFFFFFFFFFFFFFFFFFFFFFFFFFFF DUP3 AND SWAP1 POP SWAP2 SWAP1 POP JUMP JUMPDEST PUSH0 PUSH3 0x2E3 DUP3 PUSH3 0x2B8 JUMP JUMPDEST SWAP1 POP SWAP2 SWAP1 POP JUMP JUMPDEST PUSH3 0x2F5 DUP2 PUSH3 0x2D7 JUMP JUMPDEST DUP2 EQ PUSH3 0x300 JUMPI PUSH0 DUP1 REVERT JUMPDEST POP JUMP JUMPDEST PUSH0 DUP2 MLOAD SWAP1 POP PUSH3 0x313 DUP2 PUSH3 0x2EA JUMP JUMPDEST SWAP3 SWAP2 POP POP JUMP JUMPDEST PUSH0 PUSH1 0x20 DUP3 DUP5 SUB SLT ISZERO PUSH3 0x331 JUMPI PUSH3 0x330 PUSH3 0x2B4 JUMP JUMPDEST JUMPDEST PUSH0 PUSH3 0x340 DUP5 DUP3 DUP6 ADD PUSH3 0x303 JUMP JUMPDEST SWAP2 POP POP SWAP3 SWAP2 POP POP JUMP JUMPDEST PUSH0 DUP3 DUP3 MSTORE PUSH1 0x20 DUP3 ADD SWAP1 POP SWAP3 SWAP2 POP POP JUMP JUMPDEST PUSH32 0x496E76616C696420526F6C654D616E6167657220616464726573730000000000 PUSH0 DUP3 ADD MSTORE POP JUMP JUMPDEST PUSH0 PUSH3 0x38F PUSH1 0x1B DUP4 PUSH3 0x349 JUMP JUMPDEST SWAP2 POP PUSH3 0x39C DUP3 PUSH3 0x359 JUMP JUMPDEST PUSH1 0x20 DUP3 ADD SWAP1 POP SWAP2 SWAP1 POP JUMP JUMPDEST PUSH0 PUSH1 0x20 DUP3 ADD SWAP1 POP DUP2 DUP2 SUB PUSH0 DUP4 ADD MSTORE PUSH3 0x3C0 DUP2 PUSH3 0x381 JUMP JUMPDEST SWAP1 POP SWAP2 SWAP1 POP JUMP JUMPDEST PUSH2 0x2244 DUP1 PUSH3 0x3D5 PUSH0 CODECOPY PUSH0 RETURN INVALID PUSH1 0x80 PUSH1 0x40 MSTORE CALLVALUE DUP1 ISZERO PUSH2 0xF JUMPI PUSH0 DUP1 REVERT JUMPDEST POP PUSH1 0x4 CALLDATASIZE LT PUSH2 0x11E JUMPI PUSH0 CALLDATALOAD PUSH1 0xE0 SHR DUP1 PUSH4 0x75B238FC GT PUSH2 0xAB JUMPI DUP1 PUSH4 0xA217FDDF GT PUSH2 0x6F JUMPI DUP1 PUSH4 0xA217FDDF EQ PUSH2 0x2F5 JUMPI DUP1 PUSH4 0xA27E7361 EQ PUSH2 0x313 JUMPI DUP1 PUSH4 0xCB3DE478 EQ PUSH2 0x32F JUMPI DUP1 PUSH4 0xD547741F EQ PUSH2 0x34B JUMPI DUP1 PUSH4 0xF64FEE98 EQ PUSH2 0x367 JUMPI PUSH2 0x11E JUMP JUMPDEST DUP1 PUSH4 0x75B238FC EQ PUSH2 0x263 JUMPI DUP1 PUSH4 0x8456CB59 EQ PUSH2 0x281 JUMPI DUP1 PUSH4 0x91D14854 EQ PUSH2 0x28B JUMPI DUP1 PUSH4 0x98E4ABB5 EQ PUSH2 0x2BB JUMPI DUP1 PUSH4 0xA1519B11 EQ PUSH2 0x2D9 JUMPI PUSH2 0x11E JUMP JUMPDEST DUP1 PUSH4 0x2F2FF15D GT PUSH2 0xF2 JUMPI DUP1 PUSH4 0x2F2FF15D EQ PUSH2 0x1D0 JUMPI DUP1 PUSH4 0x36568ABE EQ PUSH2 0x1EC JUMPI DUP1 PUSH4 0x3F4BA83A EQ PUSH2 0x208 JUMPI DUP1 PUSH4 0x550A3DBA EQ PUSH2 0x212 JUMPI DUP1 PUSH4 0x5C975ABB EQ PUSH2 0x245 JUMPI PUSH2 0x11E JUMP JUMPDEST DUP1 PUSH3 0x435DA5 EQ PUSH2 0x122 JUMPI DUP1 PUSH4 0x1FFC9A7 EQ PUSH2 0x140 JUMPI DUP1 PUSH4 0x1AB5D0C7 EQ PUSH2 0x170 JUMPI DUP1 PUSH4 0x248A9CA3 EQ PUSH2 0x1A0 JUMPI JUMPDEST PUSH0 DUP1 REVERT JUMPDEST PUSH2 0x12A PUSH2 0x383 JUMP JUMPDEST PUSH1 0x40 MLOAD PUSH2 0x137 SWAP2 SWAP1 PUSH2 0x1508 JUMP JUMPDEST PUSH1 0x40 MLOAD DUP1 SWAP2 SUB SWAP1 RETURN JUMPDEST PUSH2 0x15A PUSH1 0x4 DUP1 CALLDATASIZE SUB DUP2 ADD SWAP1 PUSH2 0x155 SWAP2 SWAP1 PUSH2 0x1587 JUMP JUMPDEST PUSH2 0x3A7 JUMP JUMPDEST PUSH1 0x40 MLOAD PUSH2 0x167 SWAP2 SWAP1 PUSH2 0x15CC JUMP JUMPDEST PUSH1 0x40 MLOAD DUP1 SWAP2 SUB SWAP1 RETURN JUMPDEST PUSH2 0x18A PUSH1 0x4 DUP1 CALLDATASIZE SUB DUP2 ADD SWAP1 PUSH2 0x185 SWAP2 SWAP1 PUSH2 0x1618 JUMP JUMPDEST PUSH2 0x420 JUMP JUMPDEST PUSH1 0x40 MLOAD PUSH2 0x197 SWAP2 SWAP1 PUSH2 0x176B JUMP JUMPDEST PUSH1 0x40 MLOAD DUP1 SWAP2 SUB SWAP1 RETURN JUMPDEST PUSH2 0x1BA PUSH1 0x4 DUP1 CALLDATASIZE SUB DUP2 ADD SWAP1 PUSH2 0x1B5 SWAP2 SWAP1 PUSH2 0x17BE JUMP JUMPDEST PUSH2 0x5A3 JUMP JUMPDEST PUSH1 0x40 MLOAD PUSH2 0x1C7 SWAP2 SWAP1 PUSH2 0x17F8 JUMP JUMPDEST PUSH1 0x40 MLOAD DUP1 SWAP2 SUB SWAP1 RETURN JUMPDEST PUSH2 0x1EA PUSH1 0x4 DUP1 CALLDATASIZE SUB DUP2 ADD SWAP1 PUSH2 0x1E5 SWAP2 SWAP1 PUSH2 0x183B JUMP JUMPDEST PUSH2 0x5BF JUMP JUMPDEST STOP JUMPDEST PUSH2 0x206 PUSH1 0x4 DUP1 CALLDATASIZE SUB DUP2 ADD SWAP1 PUSH2 0x201 SWAP2 SWAP1 PUSH2 0x183B JUMP JUMPDEST PUSH2 0x5E1 JUMP JUMPDEST STOP JUMPDEST PUSH2 0x210 PUSH2 0x65C JUMP JUMPDEST STOP JUMPDEST PUSH2 0x22C PUSH1 0x4 DUP1 CALLDATASIZE SUB DUP2 ADD SWAP1 PUSH2 0x227 SWAP2 SWAP1 PUSH2 0x1618 JUMP JUMPDEST PUSH2 0x691 JUMP JUMPDEST PUSH1 0x40 MLOAD PUSH2 0x23C SWAP5 SWAP4 SWAP3 SWAP2 SWAP1 PUSH2 0x18DF JUMP JUMPDEST PUSH1 0x40 MLOAD DUP1 SWAP2 SUB SWAP1 RETURN JUMPDEST PUSH2 0x24D PUSH2 0x76E JUMP JUMPDEST PUSH1 0x40 MLOAD PUSH2 0x25A SWAP2 SWAP1 PUSH2 0x15CC JUMP JUMPDEST PUSH1 0x40 MLOAD DUP1 SWAP2 SUB SWAP1 RETURN JUMPDEST PUSH2 0x26B PUSH2 0x783 JUMP JUMPDEST PUSH1 0x40 MLOAD PUSH2 0x278 SWAP2 SWAP1 PUSH2 0x17F8 JUMP JUMPDEST PUSH1 0x40 MLOAD DUP1 SWAP2 SUB SWAP1 RETURN JUMPDEST PUSH2 0x289 PUSH2 0x7A7 JUMP JUMPDEST STOP JUMPDEST PUSH2 0x2A5 PUSH1 0x4 DUP1 CALLDATASIZE SUB DUP2 ADD SWAP1 PUSH2 0x2A0 SWAP2 SWAP1 PUSH2 0x183B JUMP JUMPDEST PUSH2 0x7DC JUMP JUMPDEST PUSH1 0x40 MLOAD PUSH2 0x2B2 SWAP2 SWAP1 PUSH2 0x15CC JUMP JUMPDEST PUSH1 0x40 MLOAD DUP1 SWAP2 SUB SWAP1 RETURN JUMPDEST PUSH2 0x2C3 PUSH2 0x83F JUMP JUMPDEST PUSH1 0x40 MLOAD PUSH2 0x2D0 SWAP2 SWAP1 PUSH2 0x17F8 JUMP JUMPDEST PUSH1 0x40 MLOAD DUP1 SWAP2 SUB SWAP1 RETURN JUMPDEST PUSH2 0x2F3 PUSH1 0x4 DUP1 CALLDATASIZE SUB DUP2 ADD SWAP1 PUSH2 0x2EE SWAP2 SWAP1 PUSH2 0x1929 JUMP JUMPDEST PUSH2 0x863 JUMP JUMPDEST STOP JUMPDEST PUSH2 0x2FD PUSH2 0xA18 JUMP JUMPDEST PUSH1 0x40 MLOAD PUSH2 0x30A SWAP2 SWAP1 PUSH2 0x17F8 JUMP JUMPDEST PUSH1 0x40 MLOAD DUP1 SWAP2 SUB SWAP1 RETURN JUMPDEST PUSH2 0x32D PUSH1 0x4 DUP1 CALLDATASIZE SUB DUP2 ADD SWAP1 PUSH2 0x328 SWAP2 SWAP1 PUSH2 0x1A93 JUMP JUMPDEST PUSH2 0xA1E JUMP JUMPDEST STOP JUMPDEST PUSH2 0x349 PUSH1 0x4 DUP1 CALLDATASIZE SUB DUP2 ADD SWAP1 PUSH2 0x344 SWAP2 SWAP1 PUSH2 0x1618 JUMP JUMPDEST PUSH2 0xC56 JUMP JUMPDEST STOP JUMPDEST PUSH2 0x365 PUSH1 0x4 DUP1 CALLDATASIZE SUB DUP2 ADD SWAP1 PUSH2 0x360 SWAP2 SWAP1 PUSH2 0x183B JUMP JUMPDEST PUSH2 0xE5D JUMP JUMPDEST STOP JUMPDEST PUSH2 0x381 PUSH1 0x4 DUP1 CALLDATASIZE SUB DUP2 ADD SWAP1 PUSH2 0x37C SWAP2 SWAP1 PUSH2 0x1618 JUMP JUMPDEST PUSH2 0xE7F JUMP JUMPDEST STOP JUMPDEST PUSH1 0x1 DUP1 SLOAD SWAP1 PUSH2 0x100 EXP SWAP1 DIV PUSH20 0xFFFFFFFFFFFFFFFFFFFFFFFFFFFFFFFFFFFFFFFF AND DUP2 JUMP JUMPDEST PUSH0 PUSH32 0x7965DB0B00000000000000000000000000000000000000000000000000000000 PUSH28 0xFFFFFFFFFFFFFFFFFFFFFFFFFFFFFFFFFFFFFFFFFFFFFFFFFFFFFFFF NOT AND DUP3 PUSH28 0xFFFFFFFFFFFFFFFFFFFFFFFFFFFFFFFFFFFFFFFFFFFFFFFFFFFFFFFF NOT AND EQ DUP1 PUSH2 0x419 JUMPI POP PUSH2 0x418 DUP3 PUSH2 0xFFD JUMP JUMPDEST JUMPDEST SWAP1 POP SWAP2 SWAP1 POP JUMP JUMPDEST PUSH2 0x428 PUSH2 0x13F9 JUMP JUMPDEST PUSH0 DUP3 GT DUP1 ISZERO PUSH2 0x439 JUMPI POP PUSH1 0x2 SLOAD DUP3 GT ISZERO JUMPDEST PUSH2 0x478 JUMPI PUSH1 0x40 MLOAD PUSH32 0x8C379A000000000000000000000000000000000000000000000000000000000 DUP2 MSTORE PUSH1 0x4 ADD PUSH2 0x46F SWAP1 PUSH2 0x1B24 JUMP JUMPDEST PUSH1 0x40 MLOAD DUP1 SWAP2 SUB SWAP1 REVERT JUMPDEST PUSH1 0x3 PUSH0 DUP4 DUP2 MSTORE PUSH1 0x20 ADD SWAP1 DUP2 MSTORE PUSH1 0x20 ADD PUSH0 KECCAK256 PUSH1 0x40 MLOAD DUP1 PUSH1 0x80 ADD PUSH1 0x40 MSTORE SWAP1 DUP2 PUSH0 DUP3 ADD SLOAD DUP2 MSTORE PUSH1 0x20 ADD PUSH1 0x1 DUP3 ADD PUSH0 SWAP1 SLOAD SWAP1 PUSH2 0x100 EXP SWAP1 DIV PUSH20 0xFFFFFFFFFFFFFFFFFFFFFFFFFFFFFFFFFFFFFFFF AND PUSH20 0xFFFFFFFFFFFFFFFFFFFFFFFFFFFFFFFFFFFFFFFF AND PUSH20 0xFFFFFFFFFFFFFFFFFFFFFFFFFFFFFFFFFFFFFFFF AND DUP2 MSTORE PUSH1 0x20 ADD PUSH1 0x2 DUP3 ADD DUP1 SLOAD PUSH2 0x502 SWAP1 PUSH2 0x1B6F JUMP JUMPDEST DUP1 PUSH1 0x1F ADD PUSH1 0x20 DUP1 SWAP2 DIV MUL PUSH1 0x20 ADD PUSH1 0x40 MLOAD SWAP1 DUP2 ADD PUSH1 0x40 MSTORE DUP1 SWAP3 SWAP2 SWAP1 DUP2 DUP2 MSTORE PUSH1 0x20 ADD DUP3 DUP1 SLOAD PUSH2 0x52E SWAP1 PUSH2 0x1B6F JUMP JUMPDEST DUP1 ISZERO PUSH2 0x579 JUMPI DUP1 PUSH1 0x1F LT PUSH2 0x550 JUMPI PUSH2 0x100 DUP1 DUP4 SLOAD DIV MUL DUP4 MSTORE SWAP2 PUSH1 0x20 ADD SWAP2 PUSH2 0x579 JUMP JUMPDEST DUP3 ADD SWAP2 SWAP1 PUSH0 MSTORE PUSH1 0x20 PUSH0 KECCAK256 SWAP1 JUMPDEST DUP2 SLOAD DUP2 MSTORE SWAP1 PUSH1 0x1 ADD SWAP1 PUSH1 0x20 ADD DUP1 DUP4 GT PUSH2 0x55C JUMPI DUP3 SWAP1 SUB PUSH1 0x1F AND DUP3 ADD SWAP2 JUMPDEST POP POP POP POP POP DUP2 MSTORE PUSH1 0x20 ADD PUSH1 0x3 DUP3 ADD PUSH0 SWAP1 SLOAD SWAP1 PUSH2 0x100 EXP SWAP1 DIV PUSH1 0xFF AND ISZERO ISZERO ISZERO ISZERO DUP2 MSTORE POP POP SWAP1 POP SWAP2 SWAP1 POP JUMP JUMPDEST PUSH0 DUP1 PUSH0 DUP4 DUP2 MSTORE PUSH1 0x20 ADD SWAP1 DUP2 MSTORE PUSH1 0x20 ADD PUSH0 KECCAK256 PUSH1 0x1 ADD SLOAD SWAP1 POP SWAP2 SWAP1 POP JUMP JUMPDEST PUSH2 0x5C8 DUP3 PUSH2 0x5A3 JUMP JUMPDEST PUSH2 0x5D1 DUP2 PUSH2 0x1066 JUMP JUMPDEST PUSH2 0x5DB DUP4 DUP4 PUSH2 0x107A JUMP JUMPDEST POP POP POP POP JUMP JUMPDEST PUSH2 0x5E9 PUSH2 0x1163 JUMP JUMPDEST PUSH20 0xFFFFFFFFFFFFFFFFFFFFFFFFFFFFFFFFFFFFFFFF AND DUP2 PUSH20 0xFFFFFFFFFFFFFFFFFFFFFFFFFFFFFFFFFFFFFFFF AND EQ PUSH2 0x64D JUMPI PUSH1 0x40 MLOAD PUSH32 0x6697B23200000000000000000000000000000000000000000000000000000000 DUP2 MSTORE PUSH1 0x4 ADD PUSH1 0x40 MLOAD DUP1 SWAP2 SUB SWAP1 REVERT JUMPDEST PUSH2 0x657 DUP3 DUP3 PUSH2 0x116A JUMP JUMPDEST POP POP POP JUMP JUMPDEST PUSH32 0xA49807205CE4D355092EF5A8A18F56E8913CF4A201FBE287825B095693C21775 PUSH2 0x686 DUP2 PUSH2 0x1066 JUMP JUMPDEST PUSH2 0x68E PUSH2 0x1253 JUMP JUMPDEST POP JUMP JUMPDEST PUSH1 0x3 PUSH1 0x20 MSTORE DUP1 PUSH0 MSTORE PUSH1 0x40 PUSH0 KECCAK256 PUSH0 SWAP2 POP SWAP1 POP DUP1 PUSH0 ADD SLOAD SWAP1 DUP1 PUSH1 0x1 ADD PUSH0 SWAP1 SLOAD SWAP1 PUSH2 0x100 EXP SWAP1 DIV PUSH20 0xFFFFFFFFFFFFFFFFFFFFFFFFFFFFFFFFFFFFFFFF AND SWAP1 DUP1 PUSH1 0x2 ADD DUP1 SLOAD PUSH2 0x6DB SWAP1 PUSH2 0x1B6F JUMP JUMPDEST DUP1 PUSH1 0x1F ADD PUSH1 0x20 DUP1 SWAP2 DIV MUL PUSH1 0x20 ADD PUSH1 0x40 MLOAD SWAP1 DUP2 ADD PUSH1 0x40 MSTORE DUP1 SWAP3 SWAP2 SWAP1 DUP2 DUP2 MSTORE PUSH1 0x20 ADD DUP3 DUP1 SLOAD PUSH2 0x707 SWAP1 PUSH2 0x1B6F JUMP JUMPDEST DUP1 ISZERO PUSH2 0x752 JUMPI DUP1 PUSH1 0x1F LT PUSH2 0x729 JUMPI PUSH2 0x100 DUP1 DUP4 SLOAD DIV MUL DUP4 MSTORE SWAP2 PUSH1 0x20 ADD SWAP2 PUSH2 0x752 JUMP JUMPDEST DUP3 ADD SWAP2 SWAP1 PUSH0 MSTORE PUSH1 0x20 PUSH0 KECCAK256 SWAP1 JUMPDEST DUP2 SLOAD DUP2 MSTORE SWAP1 PUSH1 0x1 ADD SWAP1 PUSH1 0x20 ADD DUP1 DUP4 GT PUSH2 0x735 JUMPI DUP3 SWAP1 SUB PUSH1 0x1F AND DUP3 ADD SWAP2 JUMPDEST POP POP POP POP POP SWAP1 DUP1 PUSH1 0x3 ADD PUSH0 SWAP1 SLOAD SWAP1 PUSH2 0x100 EXP SWAP1 DIV PUSH1 0xFF AND SWAP1 POP DUP5 JUMP JUMPDEST PUSH0 PUSH1 0x1 PUSH0 SWAP1 SLOAD SWAP1 PUSH2 0x100 EXP SWAP1 DIV PUSH1 0xFF AND SWAP1 POP SWAP1 JUMP JUMPDEST PUSH32 0xA49807205CE4D355092EF5A8A18F56E8913CF4A201FBE287825B095693C21775 DUP2 JUMP JUMPDEST PUSH32 0xA49807205CE4D355092EF5A8A18F56E8913CF4A201FBE287825B095693C21775 PUSH2 0x7D1 DUP2 PUSH2 0x1066 JUMP JUMPDEST PUSH2 0x7D9 PUSH2 0x12B4 JUMP JUMPDEST POP JUMP JUMPDEST PUSH0 DUP1 PUSH0 DUP5 DUP2 MSTORE PUSH1 0x20 ADD SWAP1 DUP2 MSTORE PUSH1 0x20 ADD PUSH0 KECCAK256 PUSH0 ADD PUSH0 DUP4 PUSH20 0xFFFFFFFFFFFFFFFFFFFFFFFFFFFFFFFFFFFFFFFF AND PUSH20 0xFFFFFFFFFFFFFFFFFFFFFFFFFFFFFFFFFFFFFFFF AND DUP2 MSTORE PUSH1 0x20 ADD SWAP1 DUP2 MSTORE PUSH1 0x20 ADD PUSH0 KECCAK256 PUSH0 SWAP1 SLOAD SWAP1 PUSH2 0x100 EXP SWAP1 DIV PUSH1 0xFF AND SWAP1 POP SWAP3 SWAP2 POP POP JUMP JUMPDEST PUSH32 0x329C74013BA5A00A181F8B3DC9D0AE428C8A88AD0625246C0382E31759B580DB DUP2 JUMP JUMPDEST PUSH0 DUP3 GT DUP1 ISZERO PUSH2 0x874 JUMPI POP PUSH1 0x2 SLOAD DUP3 GT ISZERO JUMPDEST PUSH2 0x8B3 JUMPI PUSH1 0x40 MLOAD PUSH32 0x8C379A000000000000000000000000000000000000000000000000000000000 DUP2 MSTORE PUSH1 0x4 ADD PUSH2 0x8AA SWAP1 PUSH2 0x1B24 JUMP JUMPDEST PUSH1 0x40 MLOAD DUP1 SWAP2 SUB SWAP1 REVERT JUMPDEST CALLER PUSH20 0xFFFFFFFFFFFFFFFFFFFFFFFFFFFFFFFFFFFFFFFF AND PUSH1 0x3 PUSH0 DUP5 DUP2 MSTORE PUSH1 0x20 ADD SWAP1 DUP2 MSTORE PUSH1 0x20 ADD PUSH0 KECCAK256 PUSH1 0x1 ADD PUSH0 SWAP1 SLOAD SWAP1 PUSH2 0x100 EXP SWAP1 DIV PUSH20 0xFFFFFFFFFFFFFFFFFFFFFFFFFFFFFFFFFFFFFFFF AND PUSH20 0xFFFFFFFFFFFFFFFFFFFFFFFFFFFFFFFFFFFFFFFF AND EQ PUSH2 0x954 JUMPI PUSH1 0x40 MLOAD PUSH32 0x8C379A000000000000000000000000000000000000000000000000000000000 DUP2 MSTORE PUSH1 0x4 ADD PUSH2 0x94B SWAP1 PUSH2 0x1C0F JUMP JUMPDEST PUSH1 0x40 MLOAD DUP1 SWAP2 SUB SWAP1 REVERT JUMPDEST PUSH0 PUSH20 0xFFFFFFFFFFFFFFFFFFFFFFFFFFFFFFFFFFFFFFFF AND DUP2 PUSH20 0xFFFFFFFFFFFFFFFFFFFFFFFFFFFFFFFFFFFFFFFF AND SUB PUSH2 0x9C2 JUMPI PUSH1 0x40 MLOAD PUSH32 0x8C379A000000000000000000000000000000000000000000000000000000000 DUP2 MSTORE PUSH1 0x4 ADD PUSH2 0x9B9 SWAP1 PUSH2 0x1C77 JUMP JUMPDEST PUSH1 0x40 MLOAD DUP1 SWAP2 SUB SWAP1 REVERT JUMPDEST DUP1 PUSH1 0x3 PUSH0 DUP5 DUP2 MSTORE PUSH1 0x20 ADD SWAP1 DUP2 MSTORE PUSH1 0x20 ADD PUSH0 KECCAK256 PUSH1 0x1 ADD PUSH0 PUSH2 0x100 EXP DUP2 SLOAD DUP2 PUSH20 0xFFFFFFFFFFFFFFFFFFFFFFFFFFFFFFFFFFFFFFFF MUL NOT AND SWAP1 DUP4 PUSH20 0xFFFFFFFFFFFFFFFFFFFFFFFFFFFFFFFFFFFFFFFF AND MUL OR SWAP1 SSTORE POP POP POP JUMP JUMPDEST PUSH0 DUP1 SHL DUP2 JUMP JUMPDEST PUSH1 0x1 DUP1 SLOAD SWAP1 PUSH2 0x100 EXP SWAP1 DIV PUSH20 0xFFFFFFFFFFFFFFFFFFFFFFFFFFFFFFFFFFFFFFFF AND PUSH20 0xFFFFFFFFFFFFFFFFFFFFFFFFFFFFFFFFFFFFFFFF AND PUSH4 0x91D14854 PUSH32 0x329C74013BA5A00A181F8B3DC9D0AE428C8A88AD0625246C0382E31759B580DB CALLER PUSH1 0x40 MLOAD DUP4 PUSH4 0xFFFFFFFF AND PUSH1 0xE0 SHL DUP2 MSTORE PUSH1 0x4 ADD PUSH2 0xA99 SWAP3 SWAP2 SWAP1 PUSH2 0x1C95 JUMP JUMPDEST PUSH1 0x20 PUSH1 0x40 MLOAD DUP1 DUP4 SUB DUP2 DUP7 GAS STATICCALL ISZERO DUP1 ISZERO PUSH2 0xAB4 JUMPI RETURNDATASIZE PUSH0 DUP1 RETURNDATACOPY RETURNDATASIZE PUSH0 REVERT JUMPDEST POP POP POP POP PUSH1 0x40 MLOAD RETURNDATASIZE PUSH1 0x1F NOT PUSH1 0x1F DUP3 ADD AND DUP3 ADD DUP1 PUSH1 0x40 MSTORE POP DUP2 ADD SWAP1 PUSH2 0xAD8 SWAP2 SWAP1 PUSH2 0x1CE6 JUMP JUMPDEST PUSH2 0xB17 JUMPI PUSH1 0x40 MLOAD PUSH32 0x8C379A000000000000000000000000000000000000000000000000000000000 DUP2 MSTORE PUSH1 0x4 ADD PUSH2 0xB0E SWAP1 PUSH2 0x1D81 JUMP JUMPDEST PUSH1 0x40 MLOAD DUP1 SWAP2 SUB SWAP1 REVERT JUMPDEST PUSH1 0x2 PUSH0 DUP2 SLOAD DUP1 SWAP3 SWAP2 SWAP1 PUSH2 0xB29 SWAP1 PUSH2 0x1DCC JUMP JUMPDEST SWAP2 SWAP1 POP SSTORE POP PUSH1 0x40 MLOAD DUP1 PUSH1 0x80 ADD PUSH1 0x40 MSTORE DUP1 PUSH1 0x2 SLOAD DUP2 MSTORE PUSH1 0x20 ADD CALLER PUSH20 0xFFFFFFFFFFFFFFFFFFFFFFFFFFFFFFFFFFFFFFFF AND DUP2 MSTORE PUSH1 0x20 ADD DUP3 DUP2 MSTORE PUSH1 0x20 ADD PUSH0 ISZERO ISZERO DUP2 MSTORE POP PUSH1 0x3 PUSH0 PUSH1 0x2 SLOAD DUP2 MSTORE PUSH1 0x20 ADD SWAP1 DUP2 MSTORE PUSH1 0x20 ADD PUSH0 KECCAK256 PUSH0 DUP3 ADD MLOAD DUP2 PUSH0 ADD SSTORE PUSH1 0x20 DUP3 ADD MLOAD DUP2 PUSH1 0x1 ADD PUSH0 PUSH2 0x100 EXP DUP2 SLOAD DUP2 PUSH20 0xFFFFFFFFFFFFFFFFFFFFFFFFFFFFFFFFFFFFFFFF MUL NOT AND SWAP1 DUP4 PUSH20 0xFFFFFFFFFFFFFFFFFFFFFFFFFFFFFFFFFFFFFFFF AND MUL OR SWAP1 SSTORE POP PUSH1 0x40 DUP3 ADD MLOAD DUP2 PUSH1 0x2 ADD SWAP1 DUP2 PUSH2 0xBDF SWAP2 SWAP1 PUSH2 0x1FA7 JUMP JUMPDEST POP PUSH1 0x60 DUP3 ADD MLOAD DUP2 PUSH1 0x3 ADD PUSH0 PUSH2 0x100 EXP DUP2 SLOAD DUP2 PUSH1 0xFF MUL NOT AND SWAP1 DUP4 ISZERO ISZERO MUL OR SWAP1 SSTORE POP SWAP1 POP POP CALLER PUSH20 0xFFFFFFFFFFFFFFFFFFFFFFFFFFFFFFFFFFFFFFFF AND PUSH1 0x2 SLOAD PUSH32 0xCE4E10F97BA900058D5E841DE15EC6D2ADB9DFDBFC3BFF978FFE3A77ED5F4C9D DUP4 PUSH1 0x40 MLOAD PUSH2 0xC4B SWAP2 SWAP1 PUSH2 0x2076 JUMP JUMPDEST PUSH1 0x40 MLOAD DUP1 SWAP2 SUB SWAP1 LOG3 POP JUMP JUMPDEST PUSH1 0x1 DUP1 SLOAD SWAP1 PUSH2 0x100 EXP SWAP1 DIV PUSH20 0xFFFFFFFFFFFFFFFFFFFFFFFFFFFFFFFFFFFFFFFF AND PUSH20 0xFFFFFFFFFFFFFFFFFFFFFFFFFFFFFFFFFFFFFFFF AND PUSH4 0x91D14854 PUSH32 0xA49807205CE4D355092EF5A8A18F56E8913CF4A201FBE287825B095693C21775 CALLER PUSH1 0x40 MLOAD DUP4 PUSH4 0xFFFFFFFF AND PUSH1 0xE0 SHL DUP2 MSTORE PUSH1 0x4 ADD PUSH2 0xCD1 SWAP3 SWAP2 SWAP1 PUSH2 0x1C95 JUMP JUMPDEST PUSH1 0x20 PUSH1 0x40 MLOAD DUP1 DUP4 SUB DUP2 DUP7 GAS STATICCALL ISZERO DUP1 ISZERO PUSH2 0xCEC JUMPI RETURNDATASIZE PUSH0 DUP1 RETURNDATACOPY RETURNDATASIZE PUSH0 REVERT JUMPDEST POP POP POP POP PUSH1 0x40 MLOAD RETURNDATASIZE PUSH1 0x1F NOT PUSH1 0x1F DUP3 ADD AND DUP3 ADD DUP1 PUSH1 0x40 MSTORE POP DUP2 ADD SWAP1 PUSH2 0xD10 SWAP2 SWAP1 PUSH2 0x1CE6 JUMP JUMPDEST PUSH2 0xD4F JUMPI PUSH1 0x40 MLOAD PUSH32 0x8C379A000000000000000000000000000000000000000000000000000000000 DUP2 MSTORE PUSH1 0x4 ADD PUSH2 0xD46 SWAP1 PUSH2 0x1D81 JUMP JUMPDEST PUSH1 0x40 MLOAD DUP1 SWAP2 SUB SWAP1 REVERT JUMPDEST PUSH0 DUP2 GT DUP1 ISZERO PUSH2 0xD60 JUMPI POP PUSH1 0x2 SLOAD DUP2 GT ISZERO JUMPDEST PUSH2 0xD9F JUMPI PUSH1 0x40 MLOAD PUSH32 0x8C379A000000000000000000000000000000000000000000000000000000000 DUP2 MSTORE PUSH1 0x4 ADD PUSH2 0xD96 SWAP1 PUSH2 0x1B24 JUMP JUMPDEST PUSH1 0x40 MLOAD DUP1 SWAP2 SUB SWAP1 REVERT JUMPDEST PUSH0 PUSH1 0x3 PUSH0 DUP4 DUP2 MSTORE PUSH1 0x20 ADD SWAP1 DUP2 MSTORE PUSH1 0x20 ADD PUSH0 KECCAK256 SWAP1 POP DUP1 PUSH1 0x3 ADD PUSH0 SWAP1 SLOAD SWAP1 PUSH2 0x100 EXP SWAP1 DIV PUSH1 0xFF AND ISZERO PUSH2 0xE04 JUMPI PUSH1 0x40 MLOAD PUSH32 0x8C379A000000000000000000000000000000000000000000000000000000000 DUP2 MSTORE PUSH1 0x4 ADD PUSH2 0xDFB SWAP1 PUSH2 0x20E0 JUMP JUMPDEST PUSH1 0x40 MLOAD DUP1 SWAP2 SUB SWAP1 REVERT JUMPDEST PUSH1 0x1 DUP2 PUSH1 0x3 ADD PUSH0 PUSH2 0x100 EXP DUP2 SLOAD DUP2 PUSH1 0xFF MUL NOT AND SWAP1 DUP4 ISZERO ISZERO MUL OR SWAP1 SSTORE POP DUP2 PUSH32 0xF72CEB6C5D78F67960E7FF1DE4B8E1657EBEEC4C570A20C4630697E13BEE9473 PUSH1 0x1 PUSH1 0x40 MLOAD PUSH2 0xE51 SWAP2 SWAP1 PUSH2 0x15CC JUMP JUMPDEST PUSH1 0x40 MLOAD DUP1 SWAP2 SUB SWAP1 LOG2 POP POP JUMP JUMPDEST PUSH2 0xE66 DUP3 PUSH2 0x5A3 JUMP JUMPDEST PUSH2 0xE6F DUP2 PUSH2 0x1066 JUMP JUMPDEST PUSH2 0xE79 DUP4 DUP4 PUSH2 0x116A JUMP JUMPDEST POP POP POP POP JUMP JUMPDEST PUSH32 0xA49807205CE4D355092EF5A8A18F56E8913CF4A201FBE287825B095693C21775 PUSH2 0xEA9 DUP2 PUSH2 0x1066 JUMP JUMPDEST PUSH0 DUP3 GT DUP1 ISZERO PUSH2 0xEBA JUMPI POP PUSH1 0x2 SLOAD DUP3 GT ISZERO JUMPDEST PUSH2 0xEF9 JUMPI PUSH1 0x40 MLOAD PUSH32 0x8C379A000000000000000000000000000000000000000000000000000000000 DUP2 MSTORE PUSH1 0x4 ADD PUSH2 0xEF0 SWAP1 PUSH2 0x1B24 JUMP JUMPDEST PUSH1 0x40 MLOAD DUP1 SWAP2 SUB SWAP1 REVERT JUMPDEST PUSH0 PUSH1 0x3 PUSH0 DUP5 DUP2 MSTORE PUSH1 0x20 ADD SWAP1 DUP2 MSTORE PUSH1 0x20 ADD PUSH0 KECCAK256 SWAP1 POP DUP1 PUSH1 0x3 ADD PUSH0 SWAP1 SLOAD SWAP1 PUSH2 0x100 EXP SWAP1 DIV PUSH1 0xFF AND ISZERO PUSH2 0xF5E JUMPI PUSH1 0x40 MLOAD PUSH32 0x8C379A000000000000000000000000000000000000000000000000000000000 DUP2 MSTORE PUSH1 0x4 ADD PUSH2 0xF55 SWAP1 PUSH2 0x20E0 JUMP JUMPDEST PUSH1 0x40 MLOAD DUP1 SWAP2 SUB SWAP1 REVERT JUMPDEST PUSH1 0x3 PUSH0 DUP5 DUP2 MSTORE PUSH1 0x20 ADD SWAP1 DUP2 MSTORE PUSH1 0x20 ADD PUSH0 KECCAK256 PUSH0 DUP1 DUP3 ADD PUSH0 SWAP1 SSTORE PUSH1 0x1 DUP3 ADD PUSH0 PUSH2 0x100 EXP DUP2 SLOAD SWAP1 PUSH20 0xFFFFFFFFFFFFFFFFFFFFFFFFFFFFFFFFFFFFFFFF MUL NOT AND SWAP1 SSTORE PUSH1 0x2 DUP3 ADD PUSH0 PUSH2 0xFAB SWAP2 SWAP1 PUSH2 0x1436 JUMP JUMPDEST PUSH1 0x3 DUP3 ADD PUSH0 PUSH2 0x100 EXP DUP2 SLOAD SWAP1 PUSH1 0xFF MUL NOT AND SWAP1 SSTORE POP POP DUP3 PUSH32 0xF72CEB6C5D78F67960E7FF1DE4B8E1657EBEEC4C570A20C4630697E13BEE9473 PUSH0 PUSH1 0x40 MLOAD PUSH2 0xFF0 SWAP2 SWAP1 PUSH2 0x15CC JUMP JUMPDEST PUSH1 0x40 MLOAD DUP1 SWAP2 SUB SWAP1 LOG2 POP POP POP JUMP JUMPDEST PUSH0 PUSH32 0x1FFC9A700000000000000000000000000000000000000000000000000000000 PUSH28 0xFFFFFFFFFFFFFFFFFFFFFFFFFFFFFFFFFFFFFFFFFFFFFFFFFFFFFFFF NOT AND DUP3 PUSH28 0xFFFFFFFFFFFFFFFFFFFFFFFFFFFFFFFFFFFFFFFFFFFFFFFFFFFFFFFF NOT AND EQ SWAP1 POP SWAP2 SWAP1 POP JUMP JUMPDEST PUSH2 0x1077 DUP2 PUSH2 0x1072 PUSH2 0x1163 JUMP JUMPDEST PUSH2 0x1315 JUMP JUMPDEST POP JUMP JUMPDEST PUSH0 PUSH2 0x1085 DUP4 DUP4 PUSH2 0x7DC JUMP JUMPDEST PUSH2 0x1159 JUMPI PUSH1 0x1 PUSH0 DUP1 DUP6 DUP2 MSTORE PUSH1 0x20 ADD SWAP1 DUP2 MSTORE PUSH1 0x20 ADD PUSH0 KECCAK256 PUSH0 ADD PUSH0 DUP5 PUSH20 0xFFFFFFFFFFFFFFFFFFFFFFFFFFFFFFFFFFFFFFFF AND PUSH20 0xFFFFFFFFFFFFFFFFFFFFFFFFFFFFFFFFFFFFFFFF AND DUP2 MSTORE PUSH1 0x20 ADD SWAP1 DUP2 MSTORE PUSH1 0x20 ADD PUSH0 KECCAK256 PUSH0 PUSH2 0x100 EXP DUP2 SLOAD DUP2 PUSH1 0xFF MUL NOT AND SWAP1 DUP4 ISZERO ISZERO MUL OR SWAP1 SSTORE POP PUSH2 0x10F6 PUSH2 0x1163 JUMP JUMPDEST PUSH20 0xFFFFFFFFFFFFFFFFFFFFFFFFFFFFFFFFFFFFFFFF AND DUP3 PUSH20 0xFFFFFFFFFFFFFFFFFFFFFFFFFFFFFFFFFFFFFFFF AND DUP5 PUSH32 0x2F8788117E7EFF1D82E926EC794901D17C78024A50270940304540A733656F0D PUSH1 0x40 MLOAD PUSH1 0x40 MLOAD DUP1 SWAP2 SUB SWAP1 LOG4 PUSH1 0x1 SWAP1 POP PUSH2 0x115D JUMP JUMPDEST PUSH0 SWAP1 POP JUMPDEST SWAP3 SWAP2 POP POP JUMP JUMPDEST PUSH0 CALLER SWAP1 POP SWAP1 JUMP JUMPDEST PUSH0 PUSH2 0x1175 DUP4 DUP4 PUSH2 0x7DC JUMP JUMPDEST ISZERO PUSH2 0x1249 JUMPI PUSH0 DUP1 PUSH0 DUP6 DUP2 MSTORE PUSH1 0x20 ADD SWAP1 DUP2 MSTORE PUSH1 0x20 ADD PUSH0 KECCAK256 PUSH0 ADD PUSH0 DUP5 PUSH20 0xFFFFFFFFFFFFFFFFFFFFFFFFFFFFFFFFFFFFFFFF AND PUSH20 0xFFFFFFFFFFFFFFFFFFFFFFFFFFFFFFFFFFFFFFFF AND DUP2 MSTORE PUSH1 0x20 ADD SWAP1 DUP2 MSTORE PUSH1 0x20 ADD PUSH0 KECCAK256 PUSH0 PUSH2 0x100 EXP DUP2 SLOAD DUP2 PUSH1 0xFF MUL NOT AND SWAP1 DUP4 ISZERO ISZERO MUL OR SWAP1 SSTORE POP PUSH2 0x11E6 PUSH2 0x1163 JUMP JUMPDEST PUSH20 0xFFFFFFFFFFFFFFFFFFFFFFFFFFFFFFFFFFFFFFFF AND DUP3 PUSH20 0xFFFFFFFFFFFFFFFFFFFFFFFFFFFFFFFFFFFFFFFF AND DUP5 PUSH32 0xF6391F5C32D9C69D2A47EA670B442974B53935D1EDC7FD64EB21E047A839171B PUSH1 0x40 MLOAD PUSH1 0x40 MLOAD DUP1 SWAP2 SUB SWAP1 LOG4 PUSH1 0x1 SWAP1 POP PUSH2 0x124D JUMP JUMPDEST PUSH0 SWAP1 POP JUMPDEST SWAP3 SWAP2 POP POP JUMP JUMPDEST PUSH2 0x125B PUSH2 0x1366 JUMP JUMPDEST PUSH0 PUSH1 0x1 PUSH0 PUSH2 0x100 EXP DUP2 SLOAD DUP2 PUSH1 0xFF MUL NOT AND SWAP1 DUP4 ISZERO ISZERO MUL OR SWAP1 SSTORE POP PUSH32 0x5DB9EE0A495BF2E6FF9C91A7834C1BA4FDD244A5E8AA4E537BD38AEAE4B073AA PUSH2 0x129D PUSH2 0x1163 JUMP JUMPDEST PUSH1 0x40 MLOAD PUSH2 0x12AA SWAP2 SWAP1 PUSH2 0x20FE JUMP JUMPDEST PUSH1 0x40 MLOAD DUP1 SWAP2 SUB SWAP1 LOG1 JUMP JUMPDEST PUSH2 0x12BC PUSH2 0x13AF JUMP JUMPDEST PUSH1 0x1 DUP1 PUSH0 PUSH2 0x100 EXP DUP2 SLOAD DUP2 PUSH1 0xFF MUL NOT AND SWAP1 DUP4 ISZERO ISZERO MUL OR SWAP1 SSTORE POP PUSH32 0x62E78CEA01BEE320CD4E420270B5EA74000D11B0C9F74754EBDBFC544B05A258 PUSH2 0x12FE PUSH2 0x1163 JUMP JUMPDEST PUSH1 0x40 MLOAD PUSH2 0x130B SWAP2 SWAP1 PUSH2 0x20FE JUMP JUMPDEST PUSH1 0x40 MLOAD DUP1 SWAP2 SUB SWAP1 LOG1 JUMP JUMPDEST PUSH2 0x131F DUP3 DUP3 PUSH2 0x7DC JUMP JUMPDEST PUSH2 0x1362 JUMPI DUP1 DUP3 PUSH1 0x40 MLOAD PUSH32 0xE2517D3F00000000000000000000000000000000000000000000000000000000 DUP2 MSTORE PUSH1 0x4 ADD PUSH2 0x1359 SWAP3 SWAP2 SWAP1 PUSH2 0x2117 JUMP JUMPDEST PUSH1 0x40 MLOAD DUP1 SWAP2 SUB SWAP1 REVERT JUMPDEST POP POP JUMP JUMPDEST PUSH2 0x136E PUSH2 0x76E JUMP JUMPDEST PUSH2 0x13AD JUMPI PUSH1 0x40 MLOAD PUSH32 0x8C379A000000000000000000000000000000000000000000000000000000000 DUP2 MSTORE PUSH1 0x4 ADD PUSH2 0x13A4 SWAP1 PUSH2 0x2188 JUMP JUMPDEST PUSH1 0x40 MLOAD DUP1 SWAP2 SUB SWAP1 REVERT JUMPDEST JUMP JUMPDEST PUSH2 0x13B7 PUSH2 0x76E JUMP JUMPDEST ISZERO PUSH2 0x13F7 JUMPI PUSH1 0x40 MLOAD PUSH32 0x8C379A000000000000000000000000000000000000000000000000000000000 DUP2 MSTORE PUSH1 0x4 ADD PUSH2 0x13EE SWAP1 PUSH2 0x21F0 JUMP JUMPDEST PUSH1 0x40 MLOAD DUP1 SWAP2 SUB SWAP1 REVERT JUMPDEST JUMP JUMPDEST PUSH1 0x40 MLOAD DUP1 PUSH1 0x80 ADD PUSH1 0x40 MSTORE DUP1 PUSH0 DUP2 MSTORE PUSH1 0x20 ADD PUSH0 PUSH20 0xFFFFFFFFFFFFFFFFFFFFFFFFFFFFFFFFFFFFFFFF AND DUP2 MSTORE PUSH1 0x20 ADD PUSH1 0x60 DUP2 MSTORE PUSH1 0x20 ADD PUSH0 ISZERO ISZERO DUP2 MSTORE POP SWAP1 JUMP JUMPDEST POP DUP1 SLOAD PUSH2 0x1442 SWAP1 PUSH2 0x1B6F JUMP JUMPDEST PUSH0 DUP3 SSTORE DUP1 PUSH1 0x1F LT PUSH2 0x1453 JUMPI POP PUSH2 0x1470 JUMP JUMPDEST PUSH1 0x1F ADD PUSH1 0x20 SWAP1 DIV SWAP1 PUSH0 MSTORE PUSH1 0x20 PUSH0 KECCAK256 SWAP1 DUP2 ADD SWAP1 PUSH2 0x146F SWAP2 SWAP1 PUSH2 0x1473 JUMP JUMPDEST JUMPDEST POP JUMP JUMPDEST JUMPDEST DUP1 DUP3 GT ISZERO PUSH2 0x148A JUMPI PUSH0 DUP2 PUSH0 SWAP1 SSTORE POP PUSH1 0x1 ADD PUSH2 0x1474 JUMP JUMPDEST POP SWAP1 JUMP JUMPDEST PUSH0 PUSH20 0xFFFFFFFFFFFFFFFFFFFFFFFFFFFFFFFFFFFFFFFF DUP3 AND SWAP1 POP SWAP2 SWAP1 POP JUMP JUMPDEST PUSH0 DUP2 SWAP1 POP SWAP2 SWAP1 POP JUMP JUMPDEST PUSH0 PUSH2 0x14D0 PUSH2 0x14CB PUSH2 0x14C6 DUP5 PUSH2 0x148E JUMP JUMPDEST PUSH2 0x14AD JUMP JUMPDEST PUSH2 0x148E JUMP JUMPDEST SWAP1 POP SWAP2 SWAP1 POP JUMP JUMPDEST PUSH0 PUSH2 0x14E1 DUP3 PUSH2 0x14B6 JUMP JUMPDEST SWAP1 POP SWAP2 SWAP1 POP JUMP JUMPDEST PUSH0 PUSH2 0x14F2 DUP3 PUSH2 0x14D7 JUMP JUMPDEST SWAP1 POP SWAP2 SWAP1 POP JUMP JUMPDEST PUSH2 0x1502 DUP2 PUSH2 0x14E8 JUMP JUMPDEST DUP3 MSTORE POP POP JUMP JUMPDEST PUSH0 PUSH1 0x20 DUP3 ADD SWAP1 POP PUSH2 0x151B PUSH0 DUP4 ADD DUP5 PUSH2 0x14F9 JUMP JUMPDEST SWAP3 SWAP2 POP POP JUMP JUMPDEST PUSH0 PUSH1 0x40 MLOAD SWAP1 POP SWAP1 JUMP JUMPDEST PUSH0 DUP1 REVERT JUMPDEST PUSH0 DUP1 REVERT JUMPDEST PUSH0 PUSH32 0xFFFFFFFF00000000000000000000000000000000000000000000000000000000 DUP3 AND SWAP1 POP SWAP2 SWAP1 POP JUMP JUMPDEST PUSH2 0x1566 DUP2 PUSH2 0x1532 JUMP JUMPDEST DUP2 EQ PUSH2 0x1570 JUMPI PUSH0 DUP1 REVERT JUMPDEST POP JUMP JUMPDEST PUSH0 DUP2 CALLDATALOAD SWAP1 POP PUSH2 0x1581 DUP2 PUSH2 0x155D JUMP JUMPDEST SWAP3 SWAP2 POP POP JUMP JUMPDEST PUSH0 PUSH1 0x20 DUP3 DUP5 SUB SLT ISZERO PUSH2 0x159C JUMPI PUSH2 0x159B PUSH2 0x152A JUMP JUMPDEST JUMPDEST PUSH0 PUSH2 0x15A9 DUP5 DUP3 DUP6 ADD PUSH2 0x1573 JUMP JUMPDEST SWAP2 POP POP SWAP3 SWAP2 POP POP JUMP JUMPDEST PUSH0 DUP2 ISZERO ISZERO SWAP1 POP SWAP2 SWAP1 POP JUMP JUMPDEST PUSH2 0x15C6 DUP2 PUSH2 0x15B2 JUMP JUMPDEST DUP3 MSTORE POP POP JUMP JUMPDEST PUSH0 PUSH1 0x20 DUP3 ADD SWAP1 POP PUSH2 0x15DF PUSH0 DUP4 ADD DUP5 PUSH2 0x15BD JUMP JUMPDEST SWAP3 SWAP2 POP POP JUMP JUMPDEST PUSH0 DUP2 SWAP1 POP SWAP2 SWAP1 POP JUMP JUMPDEST PUSH2 0x15F7 DUP2 PUSH2 0x15E5 JUMP JUMPDEST DUP2 EQ PUSH2 0x1601 JUMPI PUSH0 DUP1 REVERT JUMPDEST POP JUMP JUMPDEST PUSH0 DUP2 CALLDATALOAD SWAP1 POP PUSH2 0x1612 DUP2 PUSH2 0x15EE JUMP JUMPDEST SWAP3 SWAP2 POP POP JUMP JUMPDEST PUSH0 PUSH1 0x20 DUP3 DUP5 SUB SLT ISZERO PUSH2 0x162D JUMPI PUSH2 0x162C PUSH2 0x152A JUMP JUMPDEST JUMPDEST PUSH0 PUSH2 0x163A DUP5 DUP3 DUP6 ADD PUSH2 0x1604 JUMP JUMPDEST SWAP2 POP POP SWAP3 SWAP2 POP POP JUMP JUMPDEST PUSH2 0x164C DUP2 PUSH2 0x15E5 JUMP JUMPDEST DUP3 MSTORE POP POP JUMP JUMPDEST PUSH0 PUSH2 0x165C DUP3 PUSH2 0x148E JUMP JUMPDEST SWAP1 POP SWAP2 SWAP1 POP JUMP JUMPDEST PUSH2 0x166C DUP2 PUSH2 0x1652 JUMP JUMPDEST DUP3 MSTORE POP POP JUMP JUMPDEST PUSH0 DUP2 MLOAD SWAP1 POP SWAP2 SWAP1 POP JUMP JUMPDEST PUSH0 DUP3 DUP3 MSTORE PUSH1 0x20 DUP3 ADD SWAP1 POP SWAP3 SWAP2 POP POP JUMP JUMPDEST PUSH0 JUMPDEST DUP4 DUP2 LT ISZERO PUSH2 0x16A9 JUMPI DUP1 DUP3 ADD MLOAD DUP2 DUP5 ADD MSTORE PUSH1 0x20 DUP2 ADD SWAP1 POP PUSH2 0x168E JUMP JUMPDEST PUSH0 DUP5 DUP5 ADD MSTORE POP POP POP POP JUMP JUMPDEST PUSH0 PUSH1 0x1F NOT PUSH1 0x1F DUP4 ADD AND SWAP1 POP SWAP2 SWAP1 POP JUMP JUMPDEST PUSH0 PUSH2 0x16CE DUP3 PUSH2 0x1672 JUMP JUMPDEST PUSH2 0x16D8 DUP2 DUP6 PUSH2 0x167C JUMP JUMPDEST SWAP4 POP PUSH2 0x16E8 DUP2 DUP6 PUSH1 0x20 DUP7 ADD PUSH2 0x168C JUMP JUMPDEST PUSH2 0x16F1 DUP2 PUSH2 0x16B4 JUMP JUMPDEST DUP5 ADD SWAP2 POP POP SWAP3 SWAP2 POP POP JUMP JUMPDEST PUSH2 0x1705 DUP2 PUSH2 0x15B2 JUMP JUMPDEST DUP3 MSTORE POP POP JUMP JUMPDEST PUSH0 PUSH1 0x80 DUP4 ADD PUSH0 DUP4 ADD MLOAD PUSH2 0x1720 PUSH0 DUP7 ADD DUP3 PUSH2 0x1643 JUMP JUMPDEST POP PUSH1 0x20 DUP4 ADD MLOAD PUSH2 0x1733 PUSH1 0x20 DUP7 ADD DUP3 PUSH2 0x1663 JUMP JUMPDEST POP PUSH1 0x40 DUP4 ADD MLOAD DUP5 DUP3 SUB PUSH1 0x40 DUP7 ADD MSTORE PUSH2 0x174B DUP3 DUP3 PUSH2 0x16C4 JUMP JUMPDEST SWAP2 POP POP PUSH1 0x60 DUP4 ADD MLOAD PUSH2 0x1760 PUSH1 0x60 DUP7 ADD DUP3 PUSH2 0x16FC JUMP JUMPDEST POP DUP1 SWAP2 POP POP SWAP3 SWAP2 POP POP JUMP JUMPDEST PUSH0 PUSH1 0x20 DUP3 ADD SWAP1 POP DUP2 DUP2 SUB PUSH0 DUP4 ADD MSTORE PUSH2 0x1783 DUP2 DUP5 PUSH2 0x170B JUMP JUMPDEST SWAP1 POP SWAP3 SWAP2 POP POP JUMP JUMPDEST PUSH0 DUP2 SWAP1 POP SWAP2 SWAP1 POP JUMP JUMPDEST PUSH2 0x179D DUP2 PUSH2 0x178B JUMP JUMPDEST DUP2 EQ PUSH2 0x17A7 JUMPI PUSH0 DUP1 REVERT JUMPDEST POP JUMP JUMPDEST PUSH0 DUP2 CALLDATALOAD SWAP1 POP PUSH2 0x17B8 DUP2 PUSH2 0x1794 JUMP JUMPDEST SWAP3 SWAP2 POP POP JUMP JUMPDEST PUSH0 PUSH1 0x20 DUP3 DUP5 SUB SLT ISZERO PUSH2 0x17D3 JUMPI PUSH2 0x17D2 PUSH2 0x152A JUMP JUMPDEST JUMPDEST PUSH0 PUSH2 0x17E0 DUP5 DUP3 DUP6 ADD PUSH2 0x17AA JUMP JUMPDEST SWAP2 POP POP SWAP3 SWAP2 POP POP JUMP JUMPDEST PUSH2 0x17F2 DUP2 PUSH2 0x178B JUMP JUMPDEST DUP3 MSTORE POP POP JUMP JUMPDEST PUSH0 PUSH1 0x20 DUP3 ADD SWAP1 POP PUSH2 0x180B PUSH0 DUP4 ADD DUP5 PUSH2 0x17E9 JUMP JUMPDEST SWAP3 SWAP2 POP POP JUMP JUMPDEST PUSH2 0x181A DUP2 PUSH2 0x1652 JUMP JUMPDEST DUP2 EQ PUSH2 0x1824 JUMPI PUSH0 DUP1 REVERT JUMPDEST POP JUMP JUMPDEST PUSH0 DUP2 CALLDATALOAD SWAP1 POP PUSH2 0x1835 DUP2 PUSH2 0x1811 JUMP JUMPDEST SWAP3 SWAP2 POP POP JUMP JUMPDEST PUSH0 DUP1 PUSH1 0x40 DUP4 DUP6 SUB SLT ISZERO PUSH2 0x1851 JUMPI PUSH2 0x1850 PUSH2 0x152A JUMP JUMPDEST JUMPDEST PUSH0 PUSH2 0x185E DUP6 DUP3 DUP7 ADD PUSH2 0x17AA JUMP JUMPDEST SWAP3 POP POP PUSH1 0x20 PUSH2 0x186F DUP6 DUP3 DUP7 ADD PUSH2 0x1827 JUMP JUMPDEST SWAP2 POP POP SWAP3 POP SWAP3 SWAP1 POP JUMP JUMPDEST PUSH2 0x1882 DUP2 PUSH2 0x15E5 JUMP JUMPDEST DUP3 MSTORE POP POP JUMP JUMPDEST PUSH2 0x1891 DUP2 PUSH2 0x1652 JUMP JUMPDEST DUP3 MSTORE POP POP JUMP JUMPDEST PUSH0 DUP3 DUP3 MSTORE PUSH1 0x20 DUP3 ADD SWAP1 POP SWAP3 SWAP2 POP POP JUMP JUMPDEST PUSH0 PUSH2 0x18B1 DUP3 PUSH2 0x1672 JUMP JUMPDEST PUSH2 0x18BB DUP2 DUP6 PUSH2 0x1897 JUMP JUMPDEST SWAP4 POP PUSH2 0x18CB DUP2 DUP6 PUSH1 0x20 DUP7 ADD PUSH2 0x168C JUMP JUMPDEST PUSH2 0x18D4 DUP2 PUSH2 0x16B4 JUMP JUMPDEST DUP5 ADD SWAP2 POP POP SWAP3 SWAP2 POP POP JUMP JUMPDEST PUSH0 PUSH1 0x80 DUP3 ADD SWAP1 POP PUSH2 0x18F2 PUSH0 DUP4 ADD DUP8 PUSH2 0x1879 JUMP JUMPDEST PUSH2 0x18FF PUSH1 0x20 DUP4 ADD DUP7 PUSH2 0x1888 JUMP JUMPDEST DUP2 DUP2 SUB PUSH1 0x40 DUP4 ADD MSTORE PUSH2 0x1911 DUP2 DUP6 PUSH2 0x18A7 JUMP JUMPDEST SWAP1 POP PUSH2 0x1920 PUSH1 0x60 DUP4 ADD DUP5 PUSH2 0x15BD JUMP JUMPDEST SWAP6 SWAP5 POP POP POP POP POP JUMP JUMPDEST PUSH0 DUP1 PUSH1 0x40 DUP4 DUP6 SUB SLT ISZERO PUSH2 0x193F JUMPI PUSH2 0x193E PUSH2 0x152A JUMP JUMPDEST JUMPDEST PUSH0 PUSH2 0x194C DUP6 DUP3 DUP7 ADD PUSH2 0x1604 JUMP JUMPDEST SWAP3 POP POP PUSH1 0x20 PUSH2 0x195D DUP6 DUP3 DUP7 ADD PUSH2 0x1827 JUMP JUMPDEST SWAP2 POP POP SWAP3 POP SWAP3 SWAP1 POP JUMP JUMPDEST PUSH0 DUP1 REVERT JUMPDEST PUSH0 DUP1 REVERT JUMPDEST PUSH32 0x4E487B7100000000000000000000000000000000000000000000000000000000 PUSH0 MSTORE PUSH1 0x41 PUSH1 0x4 MSTORE PUSH1 0x24 PUSH0 REVERT JUMPDEST PUSH2 0x19A5 DUP3 PUSH2 0x16B4 JUMP JUMPDEST DUP2 ADD DUP2 DUP2 LT PUSH8 0xFFFFFFFFFFFFFFFF DUP3 GT OR ISZERO PUSH2 0x19C4 JUMPI PUSH2 0x19C3 PUSH2 0x196F JUMP JUMPDEST JUMPDEST DUP1 PUSH1 0x40 MSTORE POP POP POP JUMP JUMPDEST PUSH0 PUSH2 0x19D6 PUSH2 0x1521 JUMP JUMPDEST SWAP1 POP PUSH2 0x19E2 DUP3 DUP3 PUSH2 0x199C JUMP JUMPDEST SWAP2 SWAP1 POP JUMP JUMPDEST PUSH0 PUSH8 0xFFFFFFFFFFFFFFFF DUP3 GT ISZERO PUSH2 0x1A01 JUMPI PUSH2 0x1A00 PUSH2 0x196F JUMP JUMPDEST JUMPDEST PUSH2 0x1A0A DUP3 PUSH2 0x16B4 JUMP JUMPDEST SWAP1 POP PUSH1 0x20 DUP2 ADD SWAP1 POP SWAP2 SWAP1 POP JUMP JUMPDEST DUP3 DUP2 DUP4 CALLDATACOPY PUSH0 DUP4 DUP4 ADD MSTORE POP POP POP JUMP JUMPDEST PUSH0 PUSH2 0x1A37 PUSH2 0x1A32 DUP5 PUSH2 0x19E7 JUMP JUMPDEST PUSH2 0x19CD JUMP JUMPDEST SWAP1 POP DUP3 DUP2 MSTORE PUSH1 0x20 DUP2 ADD DUP5 DUP5 DUP5 ADD GT ISZERO PUSH2 0x1A53 JUMPI PUSH2 0x1A52 PUSH2 0x196B JUMP JUMPDEST JUMPDEST PUSH2 0x1A5E DUP5 DUP3 DUP6 PUSH2 0x1A17 JUMP JUMPDEST POP SWAP4 SWAP3 POP POP POP JUMP JUMPDEST PUSH0 DUP3 PUSH1 0x1F DUP4 ADD SLT PUSH2 0x1A7A JUMPI PUSH2 0x1A79 PUSH2 0x1967 JUMP JUMPDEST JUMPDEST DUP2 CALLDATALOAD PUSH2 0x1A8A DUP5 DUP3 PUSH1 0x20 DUP7 ADD PUSH2 0x1A25 JUMP JUMPDEST SWAP2 POP POP SWAP3 SWAP2 POP POP JUMP JUMPDEST PUSH0 PUSH1 0x20 DUP3 DUP5 SUB SLT ISZERO PUSH2 0x1AA8 JUMPI PUSH2 0x1AA7 PUSH2 0x152A JUMP JUMPDEST JUMPDEST PUSH0 DUP3 ADD CALLDATALOAD PUSH8 0xFFFFFFFFFFFFFFFF DUP2 GT ISZERO PUSH2 0x1AC5 JUMPI PUSH2 0x1AC4 PUSH2 0x152E JUMP JUMPDEST JUMPDEST PUSH2 0x1AD1 DUP5 DUP3 DUP6 ADD PUSH2 0x1A66 JUMP JUMPDEST SWAP2 POP POP SWAP3 SWAP2 POP POP JUMP JUMPDEST PUSH32 0x496E76616C69642077616C6C2049440000000000000000000000000000000000 PUSH0 DUP3 ADD MSTORE POP JUMP JUMPDEST PUSH0 PUSH2 0x1B0E PUSH1 0xF DUP4 PUSH2 0x1897 JUMP JUMPDEST SWAP2 POP PUSH2 0x1B19 DUP3 PUSH2 0x1ADA JUMP JUMPDEST PUSH1 0x20 DUP3 ADD SWAP1 POP SWAP2 SWAP1 POP JUMP JUMPDEST PUSH0 PUSH1 0x20 DUP3 ADD SWAP1 POP DUP2 DUP2 SUB PUSH0 DUP4 ADD MSTORE PUSH2 0x1B3B DUP2 PUSH2 0x1B02 JUMP JUMPDEST SWAP1 POP SWAP2 SWAP1 POP JUMP JUMPDEST PUSH32 0x4E487B7100000000000000000000000000000000000000000000000000000000 PUSH0 MSTORE PUSH1 0x22 PUSH1 0x4 MSTORE PUSH1 0x24 PUSH0 REVERT JUMPDEST PUSH0 PUSH1 0x2 DUP3 DIV SWAP1 POP PUSH1 0x1 DUP3 AND DUP1 PUSH2 0x1B86 JUMPI PUSH1 0x7F DUP3 AND SWAP2 POP JUMPDEST PUSH1 0x20 DUP3 LT DUP2 SUB PUSH2 0x1B99 JUMPI PUSH2 0x1B98 PUSH2 0x1B42 JUMP JUMPDEST JUMPDEST POP SWAP2 SWAP1 POP JUMP JUMPDEST PUSH32 0x596F7520617265206E6F7420746865206F776E6572206F662074686973207761 PUSH0 DUP3 ADD MSTORE PUSH32 0x6C6C000000000000000000000000000000000000000000000000000000000000 PUSH1 0x20 DUP3 ADD MSTORE POP JUMP JUMPDEST PUSH0 PUSH2 0x1BF9 PUSH1 0x22 DUP4 PUSH2 0x1897 JUMP JUMPDEST SWAP2 POP PUSH2 0x1C04 DUP3 PUSH2 0x1B9F JUMP JUMPDEST PUSH1 0x40 DUP3 ADD SWAP1 POP SWAP2 SWAP1 POP JUMP JUMPDEST PUSH0 PUSH1 0x20 DUP3 ADD SWAP1 POP DUP2 DUP2 SUB PUSH0 DUP4 ADD MSTORE PUSH2 0x1C26 DUP2 PUSH2 0x1BED JUMP JUMPDEST SWAP1 POP SWAP2 SWAP1 POP JUMP JUMPDEST PUSH32 0x496E76616C6964206E6577206F776E6572206164647265737300000000000000 PUSH0 DUP3 ADD MSTORE POP JUMP JUMPDEST PUSH0 PUSH2 0x1C61 PUSH1 0x19 DUP4 PUSH2 0x1897 JUMP JUMPDEST SWAP2 POP PUSH2 0x1C6C DUP3 PUSH2 0x1C2D JUMP JUMPDEST PUSH1 0x20 DUP3 ADD SWAP1 POP SWAP2 SWAP1 POP JUMP JUMPDEST PUSH0 PUSH1 0x20 DUP3 ADD SWAP1 POP DUP2 DUP2 SUB PUSH0 DUP4 ADD MSTORE PUSH2 0x1C8E DUP2 PUSH2 0x1C55 JUMP JUMPDEST SWAP1 POP SWAP2 SWAP1 POP JUMP JUMPDEST PUSH0 PUSH1 0x40 DUP3 ADD SWAP1 POP PUSH2 0x1CA8 PUSH0 DUP4 ADD DUP6 PUSH2 0x17E9 JUMP JUMPDEST PUSH2 0x1CB5 PUSH1 0x20 DUP4 ADD DUP5 PUSH2 0x1888 JUMP JUMPDEST SWAP4 SWAP3 POP POP POP JUMP JUMPDEST PUSH2 0x1CC5 DUP2 PUSH2 0x15B2 JUMP JUMPDEST DUP2 EQ PUSH2 0x1CCF JUMPI PUSH0 DUP1 REVERT JUMPDEST POP JUMP JUMPDEST PUSH0 DUP2 MLOAD SWAP1 POP PUSH2 0x1CE0 DUP2 PUSH2 0x1CBC JUMP JUMPDEST SWAP3 SWAP2 POP POP JUMP JUMPDEST PUSH0 PUSH1 0x20 DUP3 DUP5 SUB SLT ISZERO PUSH2 0x1CFB JUMPI PUSH2 0x1CFA PUSH2 0x152A JUMP JUMPDEST JUMPDEST PUSH0 PUSH2 0x1D08 DUP5 DUP3 DUP6 ADD PUSH2 0x1CD2 JUMP JUMPDEST SWAP2 POP POP SWAP3 SWAP2 POP POP JUMP JUMPDEST PUSH32 0x43616C6C657220646F6573206E6F7420686176652057414C4C5F4F574E45525F PUSH0 DUP3 ADD MSTORE PUSH32 0x524F4C4500000000000000000000000000000000000000000000000000000000 PUSH1 0x20 DUP3 ADD MSTORE POP JUMP JUMPDEST PUSH0 PUSH2 0x1D6B PUSH1 0x24 DUP4 PUSH2 0x1897 JUMP JUMPDEST SWAP2 POP PUSH2 0x1D76 DUP3 PUSH2 0x1D11 JUMP JUMPDEST PUSH1 0x40 DUP3 ADD SWAP1 POP SWAP2 SWAP1 POP JUMP JUMPDEST PUSH0 PUSH1 0x20 DUP3 ADD SWAP1 POP DUP2 DUP2 SUB PUSH0 DUP4 ADD MSTORE PUSH2 0x1D98 DUP2 PUSH2 0x1D5F JUMP JUMPDEST SWAP1 POP SWAP2 SWAP1 POP JUMP JUMPDEST PUSH32 0x4E487B7100000000000000000000000000000000000000000000000000000000 PUSH0 MSTORE PUSH1 0x11 PUSH1 0x4 MSTORE PUSH1 0x24 PUSH0 REVERT JUMPDEST PUSH0 PUSH2 0x1DD6 DUP3 PUSH2 0x15E5 JUMP JUMPDEST SWAP2 POP PUSH32 0xFFFFFFFFFFFFFFFFFFFFFFFFFFFFFFFFFFFFFFFFFFFFFFFFFFFFFFFFFFFFFFFF DUP3 SUB PUSH2 0x1E08 JUMPI PUSH2 0x1E07 PUSH2 0x1D9F JUMP JUMPDEST JUMPDEST PUSH1 0x1 DUP3 ADD SWAP1 POP SWAP2 SWAP1 POP JUMP JUMPDEST PUSH0 DUP2 SWAP1 POP DUP2 PUSH0 MSTORE PUSH1 0x20 PUSH0 KECCAK256 SWAP1 POP SWAP2 SWAP1 POP JUMP JUMPDEST PUSH0 PUSH1 0x20 PUSH1 0x1F DUP4 ADD DIV SWAP1 POP SWAP2 SWAP1 POP JUMP JUMPDEST PUSH0 DUP3 DUP3 SHL SWAP1 POP SWAP3 SWAP2 POP POP JUMP JUMPDEST PUSH0 PUSH1 0x8 DUP4 MUL PUSH2 0x1E6F PUSH32 0xFFFFFFFFFFFFFFFFFFFFFFFFFFFFFFFFFFFFFFFFFFFFFFFFFFFFFFFFFFFFFFFF DUP3 PUSH2 0x1E34 JUMP JUMPDEST PUSH2 0x1E79 DUP7 DUP4 PUSH2 0x1E34 JUMP JUMPDEST SWAP6 POP DUP1 NOT DUP5 AND SWAP4 POP DUP1 DUP7 AND DUP5 OR SWAP3 POP POP POP SWAP4 SWAP3 POP POP POP JUMP JUMPDEST PUSH0 PUSH2 0x1EAB PUSH2 0x1EA6 PUSH2 0x1EA1 DUP5 PUSH2 0x15E5 JUMP JUMPDEST PUSH2 0x14AD JUMP JUMPDEST PUSH2 0x15E5 JUMP JUMPDEST SWAP1 POP SWAP2 SWAP1 POP JUMP JUMPDEST PUSH0 DUP2 SWAP1 POP SWAP2 SWAP1 POP JUMP JUMPDEST PUSH2 0x1EC4 DUP4 PUSH2 0x1E91 JUMP JUMPDEST PUSH2 0x1ED8 PUSH2 0x1ED0 DUP3 PUSH2 0x1EB2 JUMP JUMPDEST DUP5 DUP5 SLOAD PUSH2 0x1E40 JUMP JUMPDEST DUP3 SSTORE POP POP POP POP JUMP JUMPDEST PUSH0 SWAP1 JUMP JUMPDEST PUSH2 0x1EEC PUSH2 0x1EE0 JUMP JUMPDEST PUSH2 0x1EF7 DUP2 DUP5 DUP5 PUSH2 0x1EBB JUMP JUMPDEST POP POP POP JUMP JUMPDEST JUMPDEST DUP2 DUP2 LT ISZERO PUSH2 0x1F1A JUMPI PUSH2 0x1F0F PUSH0 DUP3 PUSH2 0x1EE4 JUMP JUMPDEST PUSH1 0x1 DUP2 ADD SWAP1 POP PUSH2 0x1EFD JUMP JUMPDEST POP POP JUMP JUMPDEST PUSH1 0x1F DUP3 GT ISZERO PUSH2 0x1F5F JUMPI PUSH2 0x1F30 DUP2 PUSH2 0x1E13 JUMP JUMPDEST PUSH2 0x1F39 DUP5 PUSH2 0x1E25 JUMP JUMPDEST DUP2 ADD PUSH1 0x20 DUP6 LT ISZERO PUSH2 0x1F48 JUMPI DUP2 SWAP1 POP JUMPDEST PUSH2 0x1F5C PUSH2 0x1F54 DUP6 PUSH2 0x1E25 JUMP JUMPDEST DUP4 ADD DUP3 PUSH2 0x1EFC JUMP JUMPDEST POP POP JUMPDEST POP POP POP JUMP JUMPDEST PUSH0 DUP3 DUP3 SHR SWAP1 POP SWAP3 SWAP2 POP POP JUMP JUMPDEST PUSH0 PUSH2 0x1F7F PUSH0 NOT DUP5 PUSH1 0x8 MUL PUSH2 0x1F64 JUMP JUMPDEST NOT DUP1 DUP4 AND SWAP2 POP POP SWAP3 SWAP2 POP POP JUMP JUMPDEST PUSH0 PUSH2 0x1F97 DUP4 DUP4 PUSH2 0x1F70 JUMP JUMPDEST SWAP2 POP DUP3 PUSH1 0x2 MUL DUP3 OR SWAP1 POP SWAP3 SWAP2 POP POP JUMP JUMPDEST PUSH2 0x1FB0 DUP3 PUSH2 0x1672 JUMP JUMPDEST PUSH8 0xFFFFFFFFFFFFFFFF DUP2 GT ISZERO PUSH2 0x1FC9 JUMPI PUSH2 0x1FC8 PUSH2 0x196F JUMP JUMPDEST JUMPDEST PUSH2 0x1FD3 DUP3 SLOAD PUSH2 0x1B6F JUMP JUMPDEST PUSH2 0x1FDE DUP3 DUP3 DUP6 PUSH2 0x1F1E JUMP JUMPDEST PUSH0 PUSH1 0x20 SWAP1 POP PUSH1 0x1F DUP4 GT PUSH1 0x1 DUP2 EQ PUSH2 0x200F JUMPI PUSH0 DUP5 ISZERO PUSH2 0x1FFD JUMPI DUP3 DUP8 ADD MLOAD SWAP1 POP JUMPDEST PUSH2 0x2007 DUP6 DUP3 PUSH2 0x1F8C JUMP JUMPDEST DUP7 SSTORE POP PUSH2 0x206E JUMP JUMPDEST PUSH1 0x1F NOT DUP5 AND PUSH2 0x201D DUP7 PUSH2 0x1E13 JUMP JUMPDEST PUSH0 JUMPDEST DUP3 DUP2 LT ISZERO PUSH2 0x2044 JUMPI DUP5 DUP10 ADD MLOAD DUP3 SSTORE PUSH1 0x1 DUP3 ADD SWAP2 POP PUSH1 0x20 DUP6 ADD SWAP5 POP PUSH1 0x20 DUP2 ADD SWAP1 POP PUSH2 0x201F JUMP JUMPDEST DUP7 DUP4 LT ISZERO PUSH2 0x2061 JUMPI DUP5 DUP10 ADD MLOAD PUSH2 0x205D PUSH1 0x1F DUP10 AND DUP3 PUSH2 0x1F70 JUMP JUMPDEST DUP4 SSTORE POP JUMPDEST PUSH1 0x1 PUSH1 0x2 DUP9 MUL ADD DUP9 SSTORE POP POP POP JUMPDEST POP POP POP POP POP POP JUMP JUMPDEST PUSH0 PUSH1 0x20 DUP3 ADD SWAP1 POP DUP2 DUP2 SUB PUSH0 DUP4 ADD MSTORE PUSH2 0x208E DUP2 DUP5 PUSH2 0x18A7 JUMP JUMPDEST SWAP1 POP SWAP3 SWAP2 POP POP JUMP JUMPDEST PUSH32 0x57616C6C20616C726561647920617070726F7665640000000000000000000000 PUSH0 DUP3 ADD MSTORE POP JUMP JUMPDEST PUSH0 PUSH2 0x20CA PUSH1 0x15 DUP4 PUSH2 0x1897 JUMP JUMPDEST SWAP2 POP PUSH2 0x20D5 DUP3 PUSH2 0x2096 JUMP JUMPDEST PUSH1 0x20 DUP3 ADD SWAP1 POP SWAP2 SWAP1 POP JUMP JUMPDEST PUSH0 PUSH1 0x20 DUP3 ADD SWAP1 POP DUP2 DUP2 SUB PUSH0 DUP4 ADD MSTORE PUSH2 0x20F7 DUP2 PUSH2 0x20BE JUMP JUMPDEST SWAP1 POP SWAP2 SWAP1 POP JUMP JUMPDEST PUSH0 PUSH1 0x20 DUP3 ADD SWAP1 POP PUSH2 0x2111 PUSH0 DUP4 ADD DUP5 PUSH2 0x1888 JUMP JUMPDEST SWAP3 SWAP2 POP POP JUMP JUMPDEST PUSH0 PUSH1 0x40 DUP3 ADD SWAP1 POP PUSH2 0x212A PUSH0 DUP4 ADD DUP6 PUSH2 0x1888 JUMP JUMPDEST PUSH2 0x2137 PUSH1 0x20 DUP4 ADD DUP5 PUSH2 0x17E9 JUMP JUMPDEST SWAP4 SWAP3 POP POP POP JUMP JUMPDEST PUSH32 0x5061757361626C653A206E6F7420706175736564000000000000000000000000 PUSH0 DUP3 ADD MSTORE POP JUMP JUMPDEST PUSH0 PUSH2 0x2172 PUSH1 0x14 DUP4 PUSH2 0x1897 JUMP JUMPDEST SWAP2 POP PUSH2 0x217D DUP3 PUSH2 0x213E JUMP JUMPDEST PUSH1 0x20 DUP3 ADD SWAP1 POP SWAP2 SWAP1 POP JUMP JUMPDEST PUSH0 PUSH1 0x20 DUP3 ADD SWAP1 POP DUP2 DUP2 SUB PUSH0 DUP4 ADD MSTORE PUSH2 0x219F DUP2 PUSH2 0x2166 JUMP JUMPDEST SWAP1 POP SWAP2 SWAP1 POP JUMP JUMPDEST PUSH32 0x5061757361626C653A2070617573656400000000000000000000000000000000 PUSH0 DUP3 ADD MSTORE POP JUMP JUMPDEST PUSH0 PUSH2 0x21DA PUSH1 0x10 DUP4 PUSH2 0x1897 JUMP JUMPDEST SWAP2 POP PUSH2 0x21E5 DUP3 PUSH2 0x21A6 JUMP JUMPDEST PUSH1 0x20 DUP3 ADD SWAP1 POP SWAP2 SWAP1 POP JUMP JUMPDEST PUSH0 PUSH1 0x20 DUP3 ADD SWAP1 POP DUP2 DUP2 SUB PUSH0 DUP4 ADD MSTORE PUSH2 0x2207 DUP2 PUSH2 0x21CE JUMP JUMPDEST SWAP1 POP SWAP2 SWAP1 POP JUMP INVALID LOG2 PUSH5 0x6970667358 0x22 SLT KECCAK256 0xCF 0xC6 0xBF LOG4 SWAP5 LOG2 0xBB LOG4 0xEA PUSH19 0x5D460243EBB695CFCF9EDEE0EA72E500748D24 SLT DUP15 0xA5 PUSH5 0x736F6C6343 STOP ADDMOD EQ STOP CALLER "
				},
				"gasEstimates": {
					"creation": {
						"codeDepositCost": "1754400",
						"executionCost": "infinite",
						"totalCost": "infinite"
					},
					"external": {
						"ADMIN_ROLE()": "348",
						"DEFAULT_ADMIN_ROLE()": "352",
						"WALL_OWNER_ROLE()": "414",
						"approveWallRequest(uint256)": "infinite",
						"getRoleAdmin(bytes32)": "infinite",
						"getWallDetails(uint256)": "infinite",
						"grantRole(bytes32,address)": "infinite",
						"hasRole(bytes32,address)": "3189",
						"pause()": "infinite",
						"paused()": "2584",
						"rejectWallRequest(uint256)": "infinite",
						"renounceRole(bytes32,address)": "infinite",
						"revokeRole(bytes32,address)": "infinite",
						"roleManager()": "infinite",
						"submitWallRequest(string)": "infinite",
						"supportsInterface(bytes4)": "763",
						"transferWall(uint256,address)": "29520",
						"unpause()": "infinite",
						"walls(uint256)": "infinite"
					}
				},
				"methodIdentifiers": {
					"ADMIN_ROLE()": "75b238fc",
					"DEFAULT_ADMIN_ROLE()": "a217fddf",
					"WALL_OWNER_ROLE()": "98e4abb5",
					"approveWallRequest(uint256)": "cb3de478",
					"getRoleAdmin(bytes32)": "248a9ca3",
					"getWallDetails(uint256)": "1ab5d0c7",
					"grantRole(bytes32,address)": "2f2ff15d",
					"hasRole(bytes32,address)": "91d14854",
					"pause()": "8456cb59",
					"paused()": "5c975abb",
					"rejectWallRequest(uint256)": "f64fee98",
					"renounceRole(bytes32,address)": "36568abe",
					"revokeRole(bytes32,address)": "d547741f",
					"roleManager()": "00435da5",
					"submitWallRequest(string)": "a27e7361",
					"supportsInterface(bytes4)": "01ffc9a7",
					"transferWall(uint256,address)": "a1519b11",
					"unpause()": "3f4ba83a",
					"walls(uint256)": "550a3dba"
				}
			},
			"storageLayout": {
				"storage": [
					{
						"astId": 26,
						"contract": "WallContract.sol:WallRegistry",
						"label": "_roles",
						"offset": 0,
						"slot": "0",
						"type": "t_mapping(t_bytes32,t_struct(RoleData)21_storage)"
					},
					{
						"astId": 396,
						"contract": "WallContract.sol:WallRegistry",
						"label": "_paused",
						"offset": 0,
						"slot": "1",
						"type": "t_bool"
					},
					{
						"astId": 583,
						"contract": "WallContract.sol:WallRegistry",
						"label": "roleManager",
						"offset": 1,
						"slot": "1",
						"type": "t_contract(IRoleManager)566"
					},
					{
						"astId": 594,
						"contract": "WallContract.sol:WallRegistry",
						"label": "wallCounter",
						"offset": 0,
						"slot": "2",
						"type": "t_uint256"
					},
					{
						"astId": 599,
						"contract": "WallContract.sol:WallRegistry",
						"label": "walls",
						"offset": 0,
						"slot": "3",
						"type": "t_mapping(t_uint256,t_struct(Wall)592_storage)"
					}
				],
				"types": {
					"t_address": {
						"encoding": "inplace",
						"label": "address",
						"numberOfBytes": "20"
					},
					"t_bool": {
						"encoding": "inplace",
						"label": "bool",
						"numberOfBytes": "1"
					},
					"t_bytes32": {
						"encoding": "inplace",
						"label": "bytes32",
						"numberOfBytes": "32"
					},
					"t_contract(IRoleManager)566": {
						"encoding": "inplace",
						"label": "contract IRoleManager",
						"numberOfBytes": "20"
					},
					"t_mapping(t_address,t_bool)": {
						"encoding": "mapping",
						"key": "t_address",
						"label": "mapping(address => bool)",
						"numberOfBytes": "32",
						"value": "t_bool"
					},
					"t_mapping(t_bytes32,t_struct(RoleData)21_storage)": {
						"encoding": "mapping",
						"key": "t_bytes32",
						"label": "mapping(bytes32 => struct AccessControl.RoleData)",
						"numberOfBytes": "32",
						"value": "t_struct(RoleData)21_storage"
					},
					"t_mapping(t_uint256,t_struct(Wall)592_storage)": {
						"encoding": "mapping",
						"key": "t_uint256",
						"label": "mapping(uint256 => struct WallRegistry.Wall)",
						"numberOfBytes": "32",
						"value": "t_struct(Wall)592_storage"
					},
					"t_string_storage": {
						"encoding": "bytes",
						"label": "string",
						"numberOfBytes": "32"
					},
					"t_struct(RoleData)21_storage": {
						"encoding": "inplace",
						"label": "struct AccessControl.RoleData",
						"members": [
							{
								"astId": 18,
								"contract": "WallContract.sol:WallRegistry",
								"label": "hasRole",
								"offset": 0,
								"slot": "0",
								"type": "t_mapping(t_address,t_bool)"
							},
							{
								"astId": 20,
								"contract": "WallContract.sol:WallRegistry",
								"label": "adminRole",
								"offset": 0,
								"slot": "1",
								"type": "t_bytes32"
							}
						],
						"numberOfBytes": "64"
					},
					"t_struct(Wall)592_storage": {
						"encoding": "inplace",
						"label": "struct WallRegistry.Wall",
						"members": [
							{
								"astId": 585,
								"contract": "WallContract.sol:WallRegistry",
								"label": "id",
								"offset": 0,
								"slot": "0",
								"type": "t_uint256"
							},
							{
								"astId": 587,
								"contract": "WallContract.sol:WallRegistry",
								"label": "owner",
								"offset": 0,
								"slot": "1",
								"type": "t_address"
							},
							{
								"astId": 589,
								"contract": "WallContract.sol:WallRegistry",
								"label": "metadata",
								"offset": 0,
								"slot": "2",
								"type": "t_string_storage"
							},
							{
								"astId": 591,
								"contract": "WallContract.sol:WallRegistry",
								"label": "approved",
								"offset": 0,
								"slot": "3",
								"type": "t_bool"
							}
						],
						"numberOfBytes": "128"
					},
					"t_uint256": {
						"encoding": "inplace",
						"label": "uint256",
						"numberOfBytes": "32"
					}
				}
			},
			"userdoc": {
				"kind": "user",
				"methods": {},
				"version": 1
			}
		}
	}
}