{
	"WallContract.sol": {
		"Wall": {
			"abi": [
				{
					"inputs": [
						{
							"internalType": "address",
							"name": "_roleManagerAddress",
							"type": "address"
						}
					],
					"stateMutability": "nonpayable",
					"type": "constructor"
				},
				{
					"anonymous": false,
					"inputs": [
						{
							"indexed": false,
							"internalType": "address",
							"name": "account",
							"type": "address"
						}
					],
					"name": "Paused",
					"type": "event"
				},
				{
					"anonymous": false,
					"inputs": [
						{
							"indexed": false,
							"internalType": "address",
							"name": "account",
							"type": "address"
						}
					],
					"name": "Unpaused",
					"type": "event"
				},
				{
					"anonymous": false,
					"inputs": [
						{
							"indexed": true,
							"internalType": "uint256",
							"name": "wallId",
							"type": "uint256"
						},
						{
							"indexed": true,
							"internalType": "uint256",
							"name": "galleryId",
							"type": "uint256"
						},
						{
							"indexed": false,
							"internalType": "bool",
							"name": "isInGallery",
							"type": "bool"
						}
					],
					"name": "WallGalleryStatusUpdated",
					"type": "event"
				},
				{
					"anonymous": false,
					"inputs": [
						{
							"indexed": true,
							"internalType": "uint256",
							"name": "wallId",
							"type": "uint256"
						},
						{
							"indexed": false,
							"internalType": "uint256",
							"name": "percentage",
							"type": "uint256"
						}
					],
					"name": "WallOwnershipPercentageUpdated",
					"type": "event"
				},
				{
					"anonymous": false,
					"inputs": [
						{
							"indexed": true,
							"internalType": "uint256",
							"name": "requestId",
							"type": "uint256"
						},
						{
							"indexed": true,
							"internalType": "uint256",
							"name": "wallId",
							"type": "uint256"
						}
					],
					"name": "WallRequestApproved",
					"type": "event"
				},
				{
					"anonymous": false,
					"inputs": [
						{
							"indexed": true,
							"internalType": "uint256",
							"name": "requestId",
							"type": "uint256"
						}
					],
					"name": "WallRequestRejected",
					"type": "event"
				},
				{
					"anonymous": false,
					"inputs": [
						{
							"indexed": true,
							"internalType": "uint256",
							"name": "requestId",
							"type": "uint256"
						},
						{
							"indexed": true,
							"internalType": "address",
							"name": "requester",
							"type": "address"
						}
					],
					"name": "WallRequested",
					"type": "event"
				},
				{
					"anonymous": false,
					"inputs": [
						{
							"indexed": true,
							"internalType": "uint256",
							"name": "wallId",
							"type": "uint256"
						},
						{
							"indexed": true,
							"internalType": "address",
							"name": "from",
							"type": "address"
						},
						{
							"indexed": true,
							"internalType": "address",
							"name": "to",
							"type": "address"
						}
					],
					"name": "WallTransferred",
					"type": "event"
				},
				{
					"anonymous": false,
					"inputs": [
						{
							"indexed": true,
							"internalType": "uint256",
							"name": "wallId",
							"type": "uint256"
						}
					],
					"name": "WallUpdated",
					"type": "event"
				},
				{
					"inputs": [
						{
							"internalType": "uint256",
							"name": "requestId",
							"type": "uint256"
						}
					],
					"name": "approveWallRequest",
					"outputs": [],
					"stateMutability": "nonpayable",
					"type": "function"
				},
				{
					"inputs": [],
					"name": "galleryContract",
					"outputs": [
						{
							"internalType": "address",
							"name": "",
							"type": "address"
						}
					],
					"stateMutability": "view",
					"type": "function"
				},
				{
					"inputs": [],
					"name": "getPendingRequests",
					"outputs": [
						{
							"internalType": "uint256[]",
							"name": "",
							"type": "uint256[]"
						}
					],
					"stateMutability": "view",
					"type": "function"
				},
				{
					"inputs": [
						{
							"internalType": "uint256",
							"name": "wallId",
							"type": "uint256"
						}
					],
					"name": "getWall",
					"outputs": [
						{
							"components": [
								{
									"internalType": "uint256",
									"name": "id",
									"type": "uint256"
								},
								{
									"internalType": "address",
									"name": "owner",
									"type": "address"
								},
								{
									"components": [
										{
											"internalType": "string",
											"name": "country",
											"type": "string"
										},
										{
											"internalType": "string",
											"name": "city",
											"type": "string"
										},
										{
											"internalType": "string",
											"name": "physicalAddress",
											"type": "string"
										},
										{
											"internalType": "int256",
											"name": "longitude",
											"type": "int256"
										},
										{
											"internalType": "int256",
											"name": "latitude",
											"type": "int256"
										}
									],
									"internalType": "struct Wall.Location",
									"name": "location",
									"type": "tuple"
								},
								{
									"internalType": "uint256",
									"name": "size",
									"type": "uint256"
								},
								{
									"internalType": "uint256",
									"name": "ownershipPercentage",
									"type": "uint256"
								},
								{
									"internalType": "bool",
									"name": "isInGallery",
									"type": "bool"
								},
								{
									"internalType": "uint256",
									"name": "galleryId",
									"type": "uint256"
								},
								{
									"internalType": "uint256",
									"name": "createdAt",
									"type": "uint256"
								},
								{
									"internalType": "uint256",
									"name": "lastUpdated",
									"type": "uint256"
								}
							],
							"internalType": "struct Wall.WallData",
							"name": "",
							"type": "tuple"
						}
					],
					"stateMutability": "view",
					"type": "function"
				},
				{
					"inputs": [
						{
							"internalType": "address",
							"name": "owner",
							"type": "address"
						}
					],
					"name": "getWallsByOwner",
					"outputs": [
						{
							"internalType": "uint256[]",
							"name": "",
							"type": "uint256[]"
						}
					],
					"stateMutability": "view",
					"type": "function"
				},
				{
					"inputs": [
						{
							"internalType": "address",
							"name": "",
							"type": "address"
						},
						{
							"internalType": "uint256",
							"name": "",
							"type": "uint256"
						}
					],
					"name": "ownerWalls",
					"outputs": [
						{
							"internalType": "uint256",
							"name": "",
							"type": "uint256"
						}
					],
					"stateMutability": "view",
					"type": "function"
				},
				{
					"inputs": [],
					"name": "pause",
					"outputs": [],
					"stateMutability": "nonpayable",
					"type": "function"
				},
				{
					"inputs": [],
					"name": "paused",
					"outputs": [
						{
							"internalType": "bool",
							"name": "",
							"type": "bool"
						}
					],
					"stateMutability": "view",
					"type": "function"
				},
				{
					"inputs": [
						{
							"internalType": "uint256",
							"name": "",
							"type": "uint256"
						}
					],
					"name": "pendingWallRequests",
					"outputs": [
						{
							"internalType": "uint256",
							"name": "",
							"type": "uint256"
						}
					],
					"stateMutability": "view",
					"type": "function"
				},
				{
					"inputs": [
						{
							"internalType": "uint256",
							"name": "requestId",
							"type": "uint256"
						}
					],
					"name": "rejectWallRequest",
					"outputs": [],
					"stateMutability": "nonpayable",
					"type": "function"
				},
				{
					"inputs": [
						{
							"internalType": "string",
							"name": "country",
							"type": "string"
						},
						{
							"internalType": "string",
							"name": "city",
							"type": "string"
						},
						{
							"internalType": "string",
							"name": "physicalAddress",
							"type": "string"
						},
						{
							"internalType": "int256",
							"name": "longitude",
							"type": "int256"
						},
						{
							"internalType": "int256",
							"name": "latitude",
							"type": "int256"
						},
						{
							"internalType": "uint256",
							"name": "size",
							"type": "uint256"
						},
						{
							"internalType": "uint256",
							"name": "ownershipPercentage",
							"type": "uint256"
						}
					],
					"name": "requestWall",
					"outputs": [],
					"stateMutability": "nonpayable",
					"type": "function"
				},
				{
					"inputs": [],
					"name": "roleManager",
					"outputs": [
						{
							"internalType": "contract IRoleManager",
							"name": "",
							"type": "address"
						}
					],
					"stateMutability": "view",
					"type": "function"
				},
				{
					"inputs": [
						{
							"internalType": "address",
							"name": "_galleryContract",
							"type": "address"
						}
					],
					"name": "setGalleryContract",
					"outputs": [],
					"stateMutability": "nonpayable",
					"type": "function"
				},
				{
					"inputs": [
						{
							"internalType": "uint256",
							"name": "wallId",
							"type": "uint256"
						},
						{
							"internalType": "uint256",
							"name": "galleryId",
							"type": "uint256"
						},
						{
							"internalType": "bool",
							"name": "inGallery",
							"type": "bool"
						}
					],
					"name": "setGalleryStatus",
					"outputs": [],
					"stateMutability": "nonpayable",
					"type": "function"
				},
				{
					"inputs": [
						{
							"internalType": "uint256",
							"name": "wallId",
							"type": "uint256"
						},
						{
							"internalType": "uint256",
							"name": "percentage",
							"type": "uint256"
						}
					],
					"name": "setOwnershipPercentage",
					"outputs": [],
					"stateMutability": "nonpayable",
					"type": "function"
				},
				{
					"inputs": [
						{
							"internalType": "uint256",
							"name": "wallId",
							"type": "uint256"
						},
						{
							"internalType": "address",
							"name": "newOwner",
							"type": "address"
						}
					],
					"name": "transferWall",
					"outputs": [],
					"stateMutability": "nonpayable",
					"type": "function"
				},
				{
					"inputs": [],
					"name": "unpause",
					"outputs": [],
					"stateMutability": "nonpayable",
					"type": "function"
				},
				{
					"inputs": [
						{
							"internalType": "uint256",
							"name": "wallId",
							"type": "uint256"
						},
						{
							"internalType": "string",
							"name": "country",
							"type": "string"
						},
						{
							"internalType": "string",
							"name": "city",
							"type": "string"
						},
						{
							"internalType": "string",
							"name": "physicalAddress",
							"type": "string"
						},
						{
							"internalType": "int256",
							"name": "longitude",
							"type": "int256"
						},
						{
							"internalType": "int256",
							"name": "latitude",
							"type": "int256"
						},
						{
							"internalType": "uint256",
							"name": "size",
							"type": "uint256"
						}
					],
					"name": "updateWall",
					"outputs": [],
					"stateMutability": "nonpayable",
					"type": "function"
				},
				{
					"inputs": [
						{
							"internalType": "uint256",
							"name": "",
							"type": "uint256"
						}
					],
					"name": "wallRequests",
					"outputs": [
						{
							"internalType": "address",
							"name": "requester",
							"type": "address"
						},
						{
							"components": [
								{
									"internalType": "string",
									"name": "country",
									"type": "string"
								},
								{
									"internalType": "string",
									"name": "city",
									"type": "string"
								},
								{
									"internalType": "string",
									"name": "physicalAddress",
									"type": "string"
								},
								{
									"internalType": "int256",
									"name": "longitude",
									"type": "int256"
								},
								{
									"internalType": "int256",
									"name": "latitude",
									"type": "int256"
								}
							],
							"internalType": "struct Wall.Location",
							"name": "location",
							"type": "tuple"
						},
						{
							"internalType": "uint256",
							"name": "size",
							"type": "uint256"
						},
						{
							"internalType": "uint256",
							"name": "ownershipPercentage",
							"type": "uint256"
						},
						{
							"internalType": "bool",
							"name": "pending",
							"type": "bool"
						},
						{
							"internalType": "bool",
							"name": "approved",
							"type": "bool"
						}
					],
					"stateMutability": "view",
					"type": "function"
				},
				{
					"inputs": [
						{
							"internalType": "uint256",
							"name": "",
							"type": "uint256"
						}
					],
					"name": "walls",
					"outputs": [
						{
							"internalType": "uint256",
							"name": "id",
							"type": "uint256"
						},
						{
							"internalType": "address",
							"name": "owner",
							"type": "address"
						},
						{
							"components": [
								{
									"internalType": "string",
									"name": "country",
									"type": "string"
								},
								{
									"internalType": "string",
									"name": "city",
									"type": "string"
								},
								{
									"internalType": "string",
									"name": "physicalAddress",
									"type": "string"
								},
								{
									"internalType": "int256",
									"name": "longitude",
									"type": "int256"
								},
								{
									"internalType": "int256",
									"name": "latitude",
									"type": "int256"
								}
							],
							"internalType": "struct Wall.Location",
							"name": "location",
							"type": "tuple"
						},
						{
							"internalType": "uint256",
							"name": "size",
							"type": "uint256"
						},
						{
							"internalType": "uint256",
							"name": "ownershipPercentage",
							"type": "uint256"
						},
						{
							"internalType": "bool",
							"name": "isInGallery",
							"type": "bool"
						},
						{
							"internalType": "uint256",
							"name": "galleryId",
							"type": "uint256"
						},
						{
							"internalType": "uint256",
							"name": "createdAt",
							"type": "uint256"
						},
						{
							"internalType": "uint256",
							"name": "lastUpdated",
							"type": "uint256"
						}
					],
					"stateMutability": "view",
					"type": "function"
				}
			],
			"devdoc": {
				"events": {
					"Paused(address)": {
						"details": "Emitted when the pause is triggered by `account`."
					},
					"Unpaused(address)": {
						"details": "Emitted when the pause is lifted by `account`."
					}
				},
				"kind": "dev",
				"methods": {
					"paused()": {
						"details": "Returns true if the contract is paused, and false otherwise."
					}
				},
				"version": 1
			},
			"evm": {
				"assembly": "    /* \"WallContract.sol\":412:10206  contract Wall is Pausable {... */\n  mstore(0x40, 0x80)\n    /* \"WallContract.sol\":2107:2298  constructor(address _roleManagerAddress) {... */\n  callvalue\n  dup1\n  iszero\n  tag_1\n  jumpi\n  0x00\n  dup1\n  revert\ntag_1:\n  pop\n  mload(0x40)\n  sub(codesize, bytecodeSize)\n  dup1\n  bytecodeSize\n  dup4\n  codecopy\n  dup2\n  dup2\n  add\n  0x40\n  mstore\n  dup2\n  add\n  swap1\n  tag_2\n  swap2\n  swap1\n  tag_3\n  jump\t// in\ntag_2:\n    /* \"@openzeppelin/contracts/security/Pausable.sol\":1006:1011  false */\n  0x00\n    /* \"@openzeppelin/contracts/security/Pausable.sol\":996:1003  _paused */\n  dup1\n  0x00\n    /* \"@openzeppelin/contracts/security/Pausable.sol\":996:1011  _paused = false */\n  0x0100\n  exp\n  dup2\n  sload\n  dup2\n  0xff\n  mul\n  not\n  and\n  swap1\n  dup4\n  iszero\n  iszero\n  mul\n  or\n  swap1\n  sstore\n  pop\n    /* \"WallContract.sol\":2198:2199  0 */\n  0x00\n    /* \"WallContract.sol\":2167:2200  _roleManagerAddress != address(0) */\n  0xffffffffffffffffffffffffffffffffffffffff\n  and\n    /* \"WallContract.sol\":2167:2186  _roleManagerAddress */\n  dup2\n    /* \"WallContract.sol\":2167:2200  _roleManagerAddress != address(0) */\n  0xffffffffffffffffffffffffffffffffffffffff\n  and\n  sub\n    /* \"WallContract.sol\":2159:2232  require(_roleManagerAddress != address(0), \"Invalid RoleManager address\") */\n  tag_8\n  jumpi\n  mload(0x40)\n  0x08c379a000000000000000000000000000000000000000000000000000000000\n  dup2\n  mstore\n  0x04\n  add\n  tag_9\n  swap1\n  tag_10\n  jump\t// in\ntag_9:\n  mload(0x40)\n  dup1\n  swap2\n  sub\n  swap1\n  revert\ntag_8:\n    /* \"WallContract.sol\":2270:2289  _roleManagerAddress */\n  dup1\n    /* \"WallContract.sol\":2243:2254  roleManager */\n  0x01\n  0x00\n    /* \"WallContract.sol\":2243:2290  roleManager = IRoleManager(_roleManagerAddress) */\n  0x0100\n  exp\n  dup2\n  sload\n  dup2\n  0xffffffffffffffffffffffffffffffffffffffff\n  mul\n  not\n  and\n  swap1\n  dup4\n  0xffffffffffffffffffffffffffffffffffffffff\n  and\n  mul\n  or\n  swap1\n  sstore\n  pop\n    /* \"WallContract.sol\":2107:2298  constructor(address _roleManagerAddress) {... */\n  pop\n    /* \"WallContract.sol\":412:10206  contract Wall is Pausable {... */\n  jump(tag_11)\n    /* \"#utility.yul\":88:205   */\ntag_13:\n    /* \"#utility.yul\":197:198   */\n  0x00\n    /* \"#utility.yul\":194:195   */\n  dup1\n    /* \"#utility.yul\":187:199   */\n  revert\n    /* \"#utility.yul\":334:460   */\ntag_15:\n    /* \"#utility.yul\":371:378   */\n  0x00\n    /* \"#utility.yul\":411:453   */\n  0xffffffffffffffffffffffffffffffffffffffff\n    /* \"#utility.yul\":404:409   */\n  dup3\n    /* \"#utility.yul\":400:454   */\n  and\n    /* \"#utility.yul\":389:454   */\n  swap1\n  pop\n    /* \"#utility.yul\":334:460   */\n  swap2\n  swap1\n  pop\n  jump\t// out\n    /* \"#utility.yul\":466:562   */\ntag_16:\n    /* \"#utility.yul\":503:510   */\n  0x00\n    /* \"#utility.yul\":532:556   */\n  tag_28\n    /* \"#utility.yul\":550:555   */\n  dup3\n    /* \"#utility.yul\":532:556   */\n  tag_15\n  jump\t// in\ntag_28:\n    /* \"#utility.yul\":521:556   */\n  swap1\n  pop\n    /* \"#utility.yul\":466:562   */\n  swap2\n  swap1\n  pop\n  jump\t// out\n    /* \"#utility.yul\":568:690   */\ntag_17:\n    /* \"#utility.yul\":641:665   */\n  tag_30\n    /* \"#utility.yul\":659:664   */\n  dup2\n    /* \"#utility.yul\":641:665   */\n  tag_16\n  jump\t// in\ntag_30:\n    /* \"#utility.yul\":634:639   */\n  dup2\n    /* \"#utility.yul\":631:666   */\n  eq\n    /* \"#utility.yul\":621:684   */\n  tag_31\n  jumpi\n    /* \"#utility.yul\":680:681   */\n  0x00\n    /* \"#utility.yul\":677:678   */\n  dup1\n    /* \"#utility.yul\":670:682   */\n  revert\n    /* \"#utility.yul\":621:684   */\ntag_31:\n    /* \"#utility.yul\":568:690   */\n  pop\n  jump\t// out\n    /* \"#utility.yul\":696:839   */\ntag_18:\n    /* \"#utility.yul\":753:758   */\n  0x00\n    /* \"#utility.yul\":784:790   */\n  dup2\n    /* \"#utility.yul\":778:791   */\n  mload\n    /* \"#utility.yul\":769:791   */\n  swap1\n  pop\n    /* \"#utility.yul\":800:833   */\n  tag_33\n    /* \"#utility.yul\":827:832   */\n  dup2\n    /* \"#utility.yul\":800:833   */\n  tag_17\n  jump\t// in\ntag_33:\n    /* \"#utility.yul\":696:839   */\n  swap3\n  swap2\n  pop\n  pop\n  jump\t// out\n    /* \"#utility.yul\":845:1196   */\ntag_3:\n    /* \"#utility.yul\":915:921   */\n  0x00\n    /* \"#utility.yul\":964:966   */\n  0x20\n    /* \"#utility.yul\":952:961   */\n  dup3\n    /* \"#utility.yul\":943:950   */\n  dup5\n    /* \"#utility.yul\":939:962   */\n  sub\n    /* \"#utility.yul\":935:967   */\n  slt\n    /* \"#utility.yul\":932:1051   */\n  iszero\n  tag_35\n  jumpi\n    /* \"#utility.yul\":970:1049   */\n  tag_36\n  tag_13\n  jump\t// in\ntag_36:\n    /* \"#utility.yul\":932:1051   */\ntag_35:\n    /* \"#utility.yul\":1090:1091   */\n  0x00\n    /* \"#utility.yul\":1115:1179   */\n  tag_37\n    /* \"#utility.yul\":1171:1178   */\n  dup5\n    /* \"#utility.yul\":1162:1168   */\n  dup3\n    /* \"#utility.yul\":1151:1160   */\n  dup6\n    /* \"#utility.yul\":1147:1169   */\n  add\n    /* \"#utility.yul\":1115:1179   */\n  tag_18\n  jump\t// in\ntag_37:\n    /* \"#utility.yul\":1105:1179   */\n  swap2\n  pop\n    /* \"#utility.yul\":1061:1189   */\n  pop\n    /* \"#utility.yul\":845:1196   */\n  swap3\n  swap2\n  pop\n  pop\n  jump\t// out\n    /* \"#utility.yul\":1202:1371   */\ntag_19:\n    /* \"#utility.yul\":1286:1297   */\n  0x00\n    /* \"#utility.yul\":1320:1326   */\n  dup3\n    /* \"#utility.yul\":1315:1318   */\n  dup3\n    /* \"#utility.yul\":1308:1327   */\n  mstore\n    /* \"#utility.yul\":1360:1364   */\n  0x20\n    /* \"#utility.yul\":1355:1358   */\n  dup3\n    /* \"#utility.yul\":1351:1365   */\n  add\n    /* \"#utility.yul\":1336:1365   */\n  swap1\n  pop\n    /* \"#utility.yul\":1202:1371   */\n  swap3\n  swap2\n  pop\n  pop\n  jump\t// out\n    /* \"#utility.yul\":1377:1554   */\ntag_20:\n    /* \"#utility.yul\":1517:1546   */\n  0x496e76616c696420526f6c654d616e6167657220616464726573730000000000\n    /* \"#utility.yul\":1513:1514   */\n  0x00\n    /* \"#utility.yul\":1505:1511   */\n  dup3\n    /* \"#utility.yul\":1501:1515   */\n  add\n    /* \"#utility.yul\":1494:1547   */\n  mstore\n    /* \"#utility.yul\":1377:1554   */\n  pop\n  jump\t// out\n    /* \"#utility.yul\":1560:1926   */\ntag_21:\n    /* \"#utility.yul\":1702:1705   */\n  0x00\n    /* \"#utility.yul\":1723:1790   */\n  tag_41\n    /* \"#utility.yul\":1787:1789   */\n  0x1b\n    /* \"#utility.yul\":1782:1785   */\n  dup4\n    /* \"#utility.yul\":1723:1790   */\n  tag_19\n  jump\t// in\ntag_41:\n    /* \"#utility.yul\":1716:1790   */\n  swap2\n  pop\n    /* \"#utility.yul\":1799:1892   */\n  tag_42\n    /* \"#utility.yul\":1888:1891   */\n  dup3\n    /* \"#utility.yul\":1799:1892   */\n  tag_20\n  jump\t// in\ntag_42:\n    /* \"#utility.yul\":1917:1919   */\n  0x20\n    /* \"#utility.yul\":1912:1915   */\n  dup3\n    /* \"#utility.yul\":1908:1920   */\n  add\n    /* \"#utility.yul\":1901:1920   */\n  swap1\n  pop\n    /* \"#utility.yul\":1560:1926   */\n  swap2\n  swap1\n  pop\n  jump\t// out\n    /* \"#utility.yul\":1932:2351   */\ntag_10:\n    /* \"#utility.yul\":2098:2102   */\n  0x00\n    /* \"#utility.yul\":2136:2138   */\n  0x20\n    /* \"#utility.yul\":2125:2134   */\n  dup3\n    /* \"#utility.yul\":2121:2139   */\n  add\n    /* \"#utility.yul\":2113:2139   */\n  swap1\n  pop\n    /* \"#utility.yul\":2185:2194   */\n  dup2\n    /* \"#utility.yul\":2179:2183   */\n  dup2\n    /* \"#utility.yul\":2175:2195   */\n  sub\n    /* \"#utility.yul\":2171:2172   */\n  0x00\n    /* \"#utility.yul\":2160:2169   */\n  dup4\n    /* \"#utility.yul\":2156:2173   */\n  add\n    /* \"#utility.yul\":2149:2196   */\n  mstore\n    /* \"#utility.yul\":2213:2344   */\n  tag_44\n    /* \"#utility.yul\":2339:2343   */\n  dup2\n    /* \"#utility.yul\":2213:2344   */\n  tag_21\n  jump\t// in\ntag_44:\n    /* \"#utility.yul\":2205:2344   */\n  swap1\n  pop\n    /* \"#utility.yul\":1932:2351   */\n  swap2\n  swap1\n  pop\n  jump\t// out\n    /* \"WallContract.sol\":412:10206  contract Wall is Pausable {... */\ntag_11:\n  dataSize(sub_0)\n  dup1\n  dataOffset(sub_0)\n  0x00\n  codecopy\n  0x00\n  return\nstop\n\nsub_0: assembly {\n        /* \"WallContract.sol\":412:10206  contract Wall is Pausable {... */\n      mstore(0x40, 0x80)\n      callvalue\n      dup1\n      iszero\n      tag_1\n      jumpi\n      0x00\n      dup1\n      revert\n    tag_1:\n      pop\n      jumpi(tag_2, lt(calldatasize, 0x04))\n      shr(0xe0, calldataload(0x00))\n      dup1\n      0x8456cb59\n      gt\n      tag_23\n      jumpi\n      dup1\n      0xce290e1d\n      gt\n      tag_24\n      jumpi\n      dup1\n      0xce290e1d\n      eq\n      tag_18\n      jumpi\n      dup1\n      0xda817a24\n      eq\n      tag_19\n      jumpi\n      dup1\n      0xefc953ef\n      eq\n      tag_20\n      jumpi\n      dup1\n      0xf64fee98\n      eq\n      tag_21\n      jumpi\n      dup1\n      0xff91e489\n      eq\n      tag_22\n      jumpi\n      jump(tag_2)\n    tag_24:\n      dup1\n      0x8456cb59\n      eq\n      tag_13\n      jumpi\n      dup1\n      0x9f754aad\n      eq\n      tag_14\n      jumpi\n      dup1\n      0x9fd199f6\n      eq\n      tag_15\n      jumpi\n      dup1\n      0xa1519b11\n      eq\n      tag_16\n      jumpi\n      dup1\n      0xcb3de478\n      eq\n      tag_17\n      jumpi\n      jump(tag_2)\n    tag_23:\n      dup1\n      0x550a3dba\n      gt\n      tag_25\n      jumpi\n      dup1\n      0x550a3dba\n      eq\n      tag_8\n      jumpi\n      dup1\n      0x5c975abb\n      eq\n      tag_9\n      jumpi\n      dup1\n      0x6f725c13\n      eq\n      tag_10\n      jumpi\n      dup1\n      0x71d24b70\n      eq\n      tag_11\n      jumpi\n      dup1\n      0x80a1f712\n      eq\n      tag_12\n      jumpi\n      jump(tag_2)\n    tag_25:\n      dup1\n      0x435da5\n      eq\n      tag_3\n      jumpi\n      dup1\n      0x042aa220\n      eq\n      tag_4\n      jumpi\n      dup1\n      0x2b41c0e0\n      eq\n      tag_5\n      jumpi\n      dup1\n      0x3f4ba83a\n      eq\n      tag_6\n      jumpi\n      dup1\n      0x44ee00b7\n      eq\n      tag_7\n      jumpi\n    tag_2:\n      0x00\n      dup1\n      revert\n        /* \"WallContract.sol\":530:561  IRoleManager public roleManager */\n    tag_3:\n      tag_26\n      tag_27\n      jump\t// in\n    tag_26:\n      mload(0x40)\n      tag_28\n      swap2\n      swap1\n      tag_29\n      jump\t// in\n    tag_28:\n      mload(0x40)\n      dup1\n      swap2\n      sub\n      swap1\n      return\n        /* \"WallContract.sol\":7488:7933  function setOwnershipPercentage(uint256 wallId, uint256 percentage) ... */\n    tag_4:\n      tag_30\n      0x04\n      dup1\n      calldatasize\n      sub\n      dup2\n      add\n      swap1\n      tag_31\n      swap2\n      swap1\n      tag_32\n      jump\t// in\n    tag_31:\n      tag_33\n      jump\t// in\n    tag_30:\n      stop\n        /* \"WallContract.sol\":2926:3130  function setGalleryContract(address _galleryContract) external onlyAdmin {... */\n    tag_5:\n      tag_34\n      0x04\n      dup1\n      calldatasize\n      sub\n      dup2\n      add\n      swap1\n      tag_35\n      swap2\n      swap1\n      tag_36\n      jump\t// in\n    tag_35:\n      tag_37\n      jump\t// in\n    tag_34:\n      stop\n        /* \"WallContract.sol\":10136:10203  function unpause() external onlyAdmin {... */\n    tag_6:\n      tag_38\n      tag_39\n      jump\t// in\n    tag_38:\n      stop\n        /* \"WallContract.sol\":1317:1368  mapping(uint256 => WallRequest) public wallRequests */\n    tag_7:\n      tag_40\n      0x04\n      dup1\n      calldatasize\n      sub\n      dup2\n      add\n      swap1\n      tag_41\n      swap2\n      swap1\n      tag_42\n      jump\t// in\n    tag_41:\n      tag_43\n      jump\t// in\n    tag_40:\n      mload(0x40)\n      tag_44\n      swap7\n      swap6\n      swap5\n      swap4\n      swap3\n      swap2\n      swap1\n      tag_45\n      jump\t// in\n    tag_44:\n      mload(0x40)\n      dup1\n      swap2\n      sub\n      swap1\n      return\n        /* \"WallContract.sol\":1269:1310  mapping(uint256 => WallData) public walls */\n    tag_8:\n      tag_46\n      0x04\n      dup1\n      calldatasize\n      sub\n      dup2\n      add\n      swap1\n      tag_47\n      swap2\n      swap1\n      tag_42\n      jump\t// in\n    tag_47:\n      tag_48\n      jump\t// in\n    tag_46:\n      mload(0x40)\n      tag_49\n      swap10\n      swap9\n      swap8\n      swap7\n      swap6\n      swap5\n      swap4\n      swap3\n      swap2\n      swap1\n      tag_50\n      jump\t// in\n    tag_49:\n      mload(0x40)\n      dup1\n      swap2\n      sub\n      swap1\n      return\n        /* \"@openzeppelin/contracts/security/Pausable.sol\":1615:1699  function paused() public view virtual returns (bool) {... */\n    tag_9:\n      tag_51\n      tag_52\n      jump\t// in\n    tag_51:\n      mload(0x40)\n      tag_53\n      swap2\n      swap1\n      tag_54\n      jump\t// in\n    tag_53:\n      mload(0x40)\n      dup1\n      swap2\n      sub\n      swap1\n      return\n        /* \"WallContract.sol\":1375:1422  mapping(address => uint256[]) public ownerWalls */\n    tag_10:\n      tag_55\n      0x04\n      dup1\n      calldatasize\n      sub\n      dup2\n      add\n      swap1\n      tag_56\n      swap2\n      swap1\n      tag_57\n      jump\t// in\n    tag_56:\n      tag_58\n      jump\t// in\n    tag_55:\n      mload(0x40)\n      tag_59\n      swap2\n      swap1\n      tag_60\n      jump\t// in\n    tag_59:\n      mload(0x40)\n      dup1\n      swap2\n      sub\n      swap1\n      return\n        /* \"WallContract.sol\":445:475  address public galleryContract */\n    tag_11:\n      tag_61\n      tag_62\n      jump\t// in\n    tag_61:\n      mload(0x40)\n      tag_63\n      swap2\n      swap1\n      tag_64\n      jump\t// in\n    tag_63:\n      mload(0x40)\n      dup1\n      swap2\n      sub\n      swap1\n      return\n        /* \"WallContract.sol\":8721:9050  function getPendingRequests() external view returns (uint256[] memory) {... */\n    tag_12:\n      tag_65\n      tag_66\n      jump\t// in\n    tag_65:\n      mload(0x40)\n      tag_67\n      swap2\n      swap1\n      tag_68\n      jump\t// in\n    tag_67:\n      mload(0x40)\n      dup1\n      swap2\n      sub\n      swap1\n      return\n        /* \"WallContract.sol\":10065:10128  function pause() external onlyAdmin {... */\n    tag_13:\n      tag_69\n      tag_70\n      jump\t// in\n    tag_69:\n      stop\n        /* \"WallContract.sol\":3169:4496  function requestWall(... */\n    tag_14:\n      tag_71\n      0x04\n      dup1\n      calldatasize\n      sub\n      dup2\n      add\n      swap1\n      tag_72\n      swap2\n      swap1\n      tag_73\n      jump\t// in\n    tag_72:\n      tag_74\n      jump\t// in\n    tag_71:\n      stop\n        /* \"WallContract.sol\":5975:6807  function updateWall(... */\n    tag_15:\n      tag_75\n      0x04\n      dup1\n      calldatasize\n      sub\n      dup2\n      add\n      swap1\n      tag_76\n      swap2\n      swap1\n      tag_77\n      jump\t// in\n    tag_76:\n      tag_78\n      jump\t// in\n    tag_75:\n      stop\n        /* \"WallContract.sol\":6815:7480  function transferWall(uint256 wallId, address newOwner) external ... */\n    tag_16:\n      tag_79\n      0x04\n      dup1\n      calldatasize\n      sub\n      dup2\n      add\n      swap1\n      tag_80\n      swap2\n      swap1\n      tag_81\n      jump\t// in\n    tag_80:\n      tag_82\n      jump\t// in\n    tag_79:\n      stop\n        /* \"WallContract.sol\":4504:5554  function approveWallRequest(uint256 requestId) external onlyAdmin whenNotPaused {... */\n    tag_17:\n      tag_83\n      0x04\n      dup1\n      calldatasize\n      sub\n      dup2\n      add\n      swap1\n      tag_84\n      swap2\n      swap1\n      tag_42\n      jump\t// in\n    tag_84:\n      tag_85\n      jump\t// in\n    tag_83:\n      stop\n        /* \"WallContract.sol\":7978:8419  function setGalleryStatus(uint256 wallId, uint256 galleryId, bool inGallery) ... */\n    tag_18:\n      tag_86\n      0x04\n      dup1\n      calldatasize\n      sub\n      dup2\n      add\n      swap1\n      tag_87\n      swap2\n      swap1\n      tag_88\n      jump\t// in\n    tag_87:\n      tag_89\n      jump\t// in\n    tag_86:\n      stop\n        /* \"WallContract.sol\":1429:1465  uint256[] public pendingWallRequests */\n    tag_19:\n      tag_90\n      0x04\n      dup1\n      calldatasize\n      sub\n      dup2\n      add\n      swap1\n      tag_91\n      swap2\n      swap1\n      tag_42\n      jump\t// in\n    tag_91:\n      tag_92\n      jump\t// in\n    tag_90:\n      mload(0x40)\n      tag_93\n      swap2\n      swap1\n      tag_60\n      jump\t// in\n    tag_93:\n      mload(0x40)\n      dup1\n      swap2\n      sub\n      swap1\n      return\n        /* \"WallContract.sol\":8589:8713  function getWallsByOwner(address owner) external view returns (uint256[] memory) {... */\n    tag_20:\n      tag_94\n      0x04\n      dup1\n      calldatasize\n      sub\n      dup2\n      add\n      swap1\n      tag_95\n      swap2\n      swap1\n      tag_36\n      jump\t// in\n    tag_95:\n      tag_96\n      jump\t// in\n    tag_94:\n      mload(0x40)\n      tag_97\n      swap2\n      swap1\n      tag_68\n      jump\t// in\n    tag_97:\n      mload(0x40)\n      dup1\n      swap2\n      sub\n      swap1\n      return\n        /* \"WallContract.sol\":5562:5938  function rejectWallRequest(uint256 requestId) external onlyAdmin whenNotPaused {... */\n    tag_21:\n      tag_98\n      0x04\n      dup1\n      calldatasize\n      sub\n      dup2\n      add\n      swap1\n      tag_99\n      swap2\n      swap1\n      tag_42\n      jump\t// in\n    tag_99:\n      tag_100\n      jump\t// in\n    tag_98:\n      stop\n        /* \"WallContract.sol\":8450:8581  function getWall(uint256 wallId) external view wallExists(wallId) returns (WallData memory) {... */\n    tag_22:\n      tag_101\n      0x04\n      dup1\n      calldatasize\n      sub\n      dup2\n      add\n      swap1\n      tag_102\n      swap2\n      swap1\n      tag_42\n      jump\t// in\n    tag_102:\n      tag_103\n      jump\t// in\n    tag_101:\n      mload(0x40)\n      tag_104\n      swap2\n      swap1\n      tag_105\n      jump\t// in\n    tag_104:\n      mload(0x40)\n      dup1\n      swap2\n      sub\n      swap1\n      return\n        /* \"WallContract.sol\":530:561  IRoleManager public roleManager */\n    tag_27:\n      0x01\n      0x00\n      swap1\n      sload\n      swap1\n      0x0100\n      exp\n      swap1\n      div\n      0xffffffffffffffffffffffffffffffffffffffff\n      and\n      dup2\n      jump\t// out\n        /* \"WallContract.sol\":7488:7933  function setOwnershipPercentage(uint256 wallId, uint256 percentage) ... */\n    tag_33:\n        /* \"WallContract.sol\":7596:7602  wallId */\n      dup2\n        /* \"WallContract.sol\":2562:2563  0 */\n      0x00\n        /* \"WallContract.sol\":2531:2564  walls[wallId].owner != address(0) */\n      0xffffffffffffffffffffffffffffffffffffffff\n      and\n        /* \"WallContract.sol\":2531:2536  walls */\n      0x03\n        /* \"WallContract.sol\":2531:2544  walls[wallId] */\n      0x00\n        /* \"WallContract.sol\":2537:2543  wallId */\n      dup4\n        /* \"WallContract.sol\":2531:2544  walls[wallId] */\n      dup2\n      mstore\n      0x20\n      add\n      swap1\n      dup2\n      mstore\n      0x20\n      add\n      0x00\n      keccak256\n        /* \"WallContract.sol\":2531:2550  walls[wallId].owner */\n      0x01\n      add\n      0x00\n      swap1\n      sload\n      swap1\n      0x0100\n      exp\n      swap1\n      div\n      0xffffffffffffffffffffffffffffffffffffffff\n      and\n        /* \"WallContract.sol\":2531:2564  walls[wallId].owner != address(0) */\n      0xffffffffffffffffffffffffffffffffffffffff\n      and\n      sub\n        /* \"WallContract.sol\":2523:2588  require(walls[wallId].owner != address(0), \"Wall does not exist\") */\n      tag_107\n      jumpi\n      mload(0x40)\n      0x08c379a000000000000000000000000000000000000000000000000000000000\n      dup2\n      mstore\n      0x04\n      add\n      tag_108\n      swap1\n      tag_109\n      jump\t// in\n    tag_108:\n      mload(0x40)\n      dup1\n      swap2\n      sub\n      swap1\n      revert\n    tag_107:\n        /* \"WallContract.sol\":7628:7634  wallId */\n      dup3\n        /* \"WallContract.sol\":2697:2707  msg.sender */\n      caller\n        /* \"WallContract.sol\":2674:2707  walls[wallId].owner == msg.sender */\n      0xffffffffffffffffffffffffffffffffffffffff\n      and\n        /* \"WallContract.sol\":2674:2679  walls */\n      0x03\n        /* \"WallContract.sol\":2674:2687  walls[wallId] */\n      0x00\n        /* \"WallContract.sol\":2680:2686  wallId */\n      dup4\n        /* \"WallContract.sol\":2674:2687  walls[wallId] */\n      dup2\n      mstore\n      0x20\n      add\n      swap1\n      dup2\n      mstore\n      0x20\n      add\n      0x00\n      keccak256\n        /* \"WallContract.sol\":2674:2693  walls[wallId].owner */\n      0x01\n      add\n      0x00\n      swap1\n      sload\n      swap1\n      0x0100\n      exp\n      swap1\n      div\n      0xffffffffffffffffffffffffffffffffffffffff\n      and\n        /* \"WallContract.sol\":2674:2707  walls[wallId].owner == msg.sender */\n      0xffffffffffffffffffffffffffffffffffffffff\n      and\n      eq\n        /* \"WallContract.sol\":2674:2786  walls[wallId].owner == msg.sender || ... */\n      dup1\n      tag_111\n      jumpi\n      pop\n        /* \"WallContract.sol\":2729:2740  roleManager */\n      0x01\n      0x00\n      swap1\n      sload\n      swap1\n      0x0100\n      exp\n      swap1\n      div\n      0xffffffffffffffffffffffffffffffffffffffff\n      and\n        /* \"WallContract.sol\":2729:2748  roleManager.hasRole */\n      0xffffffffffffffffffffffffffffffffffffffff\n      and\n      0x91d14854\n        /* \"WallContract.sol\":2749:2760  roleManager */\n      0x01\n      0x00\n      swap1\n      sload\n      swap1\n      0x0100\n      exp\n      swap1\n      div\n      0xffffffffffffffffffffffffffffffffffffffff\n      and\n        /* \"WallContract.sol\":2749:2771  roleManager.ADMIN_ROLE */\n      0xffffffffffffffffffffffffffffffffffffffff\n      and\n      0x75b238fc\n        /* \"WallContract.sol\":2749:2773  roleManager.ADMIN_ROLE() */\n      mload(0x40)\n      dup2\n      0xffffffff\n      and\n      0xe0\n      shl\n      dup2\n      mstore\n      0x04\n      add\n      0x20\n      mload(0x40)\n      dup1\n      dup4\n      sub\n      dup2\n      dup7\n      gas\n      staticcall\n      iszero\n      dup1\n      iszero\n      tag_113\n      jumpi\n      returndatasize\n      0x00\n      dup1\n      returndatacopy\n      revert(0x00, returndatasize)\n    tag_113:\n      pop\n      pop\n      pop\n      pop\n      mload(0x40)\n      returndatasize\n      not(0x1f)\n      0x1f\n      dup3\n      add\n      and\n      dup3\n      add\n      dup1\n      0x40\n      mstore\n      pop\n      dup2\n      add\n      swap1\n      tag_114\n      swap2\n      swap1\n      tag_115\n      jump\t// in\n    tag_114:\n        /* \"WallContract.sol\":2775:2785  msg.sender */\n      caller\n        /* \"WallContract.sol\":2729:2786  roleManager.hasRole(roleManager.ADMIN_ROLE(), msg.sender) */\n      mload(0x40)\n      dup4\n      0xffffffff\n      and\n      0xe0\n      shl\n      dup2\n      mstore\n      0x04\n      add\n      tag_116\n      swap3\n      swap2\n      swap1\n      tag_117\n      jump\t// in\n    tag_116:\n      0x20\n      mload(0x40)\n      dup1\n      dup4\n      sub\n      dup2\n      dup7\n      gas\n      staticcall\n      iszero\n      dup1\n      iszero\n      tag_119\n      jumpi\n      returndatasize\n      0x00\n      dup1\n      returndatacopy\n      revert(0x00, returndatasize)\n    tag_119:\n      pop\n      pop\n      pop\n      pop\n      mload(0x40)\n      returndatasize\n      not(0x1f)\n      0x1f\n      dup3\n      add\n      and\n      dup3\n      add\n      dup1\n      0x40\n      mstore\n      pop\n      dup2\n      add\n      swap1\n      tag_120\n      swap2\n      swap1\n      tag_121\n      jump\t// in\n    tag_120:\n        /* \"WallContract.sol\":2674:2786  walls[wallId].owner == msg.sender || ... */\n    tag_111:\n        /* \"WallContract.sol\":2666:2823  require(walls[wallId].owner == msg.sender || ... */\n      tag_122\n      jumpi\n      mload(0x40)\n      0x08c379a000000000000000000000000000000000000000000000000000000000\n      dup2\n      mstore\n      0x04\n      add\n      tag_123\n      swap1\n      tag_124\n      jump\t// in\n    tag_123:\n      mload(0x40)\n      dup1\n      swap2\n      sub\n      swap1\n      revert\n    tag_122:\n        /* \"@openzeppelin/contracts/security/Pausable.sol\":1239:1258  _requireNotPaused() */\n      tag_126\n        /* \"@openzeppelin/contracts/security/Pausable.sol\":1239:1256  _requireNotPaused */\n      tag_127\n        /* \"@openzeppelin/contracts/security/Pausable.sol\":1239:1258  _requireNotPaused() */\n      jump\t// in\n    tag_126:\n        /* \"WallContract.sol\":7698:7700  90 */\n      0x5a\n        /* \"WallContract.sol\":7684:7694  percentage */\n      dup4\n        /* \"WallContract.sol\":7684:7700  percentage <= 90 */\n      gt\n      iszero\n        /* \"WallContract.sol\":7676:7736  require(percentage <= 90, \"Max ownership percentage is 90%\") */\n      tag_129\n      jumpi\n      mload(0x40)\n      0x08c379a000000000000000000000000000000000000000000000000000000000\n      dup2\n      mstore\n      0x04\n      add\n      tag_130\n      swap1\n      tag_131\n      jump\t// in\n    tag_130:\n      mload(0x40)\n      dup1\n      swap2\n      sub\n      swap1\n      revert\n    tag_129:\n        /* \"WallContract.sol\":7793:7803  percentage */\n      dup3\n        /* \"WallContract.sol\":7757:7762  walls */\n      0x03\n        /* \"WallContract.sol\":7757:7770  walls[wallId] */\n      0x00\n        /* \"WallContract.sol\":7763:7769  wallId */\n      dup7\n        /* \"WallContract.sol\":7757:7770  walls[wallId] */\n      dup2\n      mstore\n      0x20\n      add\n      swap1\n      dup2\n      mstore\n      0x20\n      add\n      0x00\n      keccak256\n        /* \"WallContract.sol\":7757:7790  walls[wallId].ownershipPercentage */\n      0x08\n      add\n        /* \"WallContract.sol\":7757:7803  walls[wallId].ownershipPercentage = percentage */\n      dup2\n      swap1\n      sstore\n      pop\n        /* \"WallContract.sol\":7842:7857  block.timestamp */\n      timestamp\n        /* \"WallContract.sol\":7814:7819  walls */\n      0x03\n        /* \"WallContract.sol\":7814:7827  walls[wallId] */\n      0x00\n        /* \"WallContract.sol\":7820:7826  wallId */\n      dup7\n        /* \"WallContract.sol\":7814:7827  walls[wallId] */\n      dup2\n      mstore\n      0x20\n      add\n      swap1\n      dup2\n      mstore\n      0x20\n      add\n      0x00\n      keccak256\n        /* \"WallContract.sol\":7814:7839  walls[wallId].lastUpdated */\n      0x0c\n      add\n        /* \"WallContract.sol\":7814:7857  walls[wallId].lastUpdated = block.timestamp */\n      dup2\n      swap1\n      sstore\n      pop\n        /* \"WallContract.sol\":7906:7912  wallId */\n      dup4\n        /* \"WallContract.sol\":7875:7925  WallOwnershipPercentageUpdated(wallId, percentage) */\n      0x873f6c666fd54a918c1e2592507083f1891e675a335c6d04d0bc1b5b3c169fde\n        /* \"WallContract.sol\":7914:7924  percentage */\n      dup5\n        /* \"WallContract.sol\":7875:7925  WallOwnershipPercentageUpdated(wallId, percentage) */\n      mload(0x40)\n      tag_132\n      swap2\n      swap1\n      tag_60\n      jump\t// in\n    tag_132:\n      mload(0x40)\n      dup1\n      swap2\n      sub\n      swap1\n      log2\n        /* \"WallContract.sol\":2599:2600  _ */\n      pop\n        /* \"WallContract.sol\":7488:7933  function setOwnershipPercentage(uint256 wallId, uint256 percentage) ... */\n      pop\n      pop\n      pop\n      jump\t// out\n        /* \"WallContract.sol\":2926:3130  function setGalleryContract(address _galleryContract) external onlyAdmin {... */\n    tag_37:\n        /* \"WallContract.sol\":2364:2375  roleManager */\n      0x01\n      0x00\n      swap1\n      sload\n      swap1\n      0x0100\n      exp\n      swap1\n      div\n      0xffffffffffffffffffffffffffffffffffffffff\n      and\n        /* \"WallContract.sol\":2364:2383  roleManager.hasRole */\n      0xffffffffffffffffffffffffffffffffffffffff\n      and\n      0x91d14854\n        /* \"WallContract.sol\":2384:2395  roleManager */\n      0x01\n      0x00\n      swap1\n      sload\n      swap1\n      0x0100\n      exp\n      swap1\n      div\n      0xffffffffffffffffffffffffffffffffffffffff\n      and\n        /* \"WallContract.sol\":2384:2406  roleManager.ADMIN_ROLE */\n      0xffffffffffffffffffffffffffffffffffffffff\n      and\n      0x75b238fc\n        /* \"WallContract.sol\":2384:2408  roleManager.ADMIN_ROLE() */\n      mload(0x40)\n      dup2\n      0xffffffff\n      and\n      0xe0\n      shl\n      dup2\n      mstore\n      0x04\n      add\n      0x20\n      mload(0x40)\n      dup1\n      dup4\n      sub\n      dup2\n      dup7\n      gas\n      staticcall\n      iszero\n      dup1\n      iszero\n      tag_135\n      jumpi\n      returndatasize\n      0x00\n      dup1\n      returndatacopy\n      revert(0x00, returndatasize)\n    tag_135:\n      pop\n      pop\n      pop\n      pop\n      mload(0x40)\n      returndatasize\n      not(0x1f)\n      0x1f\n      dup3\n      add\n      and\n      dup3\n      add\n      dup1\n      0x40\n      mstore\n      pop\n      dup2\n      add\n      swap1\n      tag_136\n      swap2\n      swap1\n      tag_115\n      jump\t// in\n    tag_136:\n        /* \"WallContract.sol\":2410:2420  msg.sender */\n      caller\n        /* \"WallContract.sol\":2364:2421  roleManager.hasRole(roleManager.ADMIN_ROLE(), msg.sender) */\n      mload(0x40)\n      dup4\n      0xffffffff\n      and\n      0xe0\n      shl\n      dup2\n      mstore\n      0x04\n      add\n      tag_137\n      swap3\n      swap2\n      swap1\n      tag_117\n      jump\t// in\n    tag_137:\n      0x20\n      mload(0x40)\n      dup1\n      dup4\n      sub\n      dup2\n      dup7\n      gas\n      staticcall\n      iszero\n      dup1\n      iszero\n      tag_139\n      jumpi\n      returndatasize\n      0x00\n      dup1\n      returndatacopy\n      revert(0x00, returndatasize)\n    tag_139:\n      pop\n      pop\n      pop\n      pop\n      mload(0x40)\n      returndatasize\n      not(0x1f)\n      0x1f\n      dup3\n      add\n      and\n      dup3\n      add\n      dup1\n      0x40\n      mstore\n      pop\n      dup2\n      add\n      swap1\n      tag_140\n      swap2\n      swap1\n      tag_121\n      jump\t// in\n    tag_140:\n        /* \"WallContract.sol\":2356:2448  require(roleManager.hasRole(roleManager.ADMIN_ROLE(), msg.sender), \"Caller is not an admin\") */\n      tag_141\n      jumpi\n      mload(0x40)\n      0x08c379a000000000000000000000000000000000000000000000000000000000\n      dup2\n      mstore\n      0x04\n      add\n      tag_142\n      swap1\n      tag_143\n      jump\t// in\n    tag_142:\n      mload(0x40)\n      dup1\n      swap2\n      sub\n      swap1\n      revert\n    tag_141:\n        /* \"WallContract.sol\":3046:3047  0 */\n      0x00\n        /* \"WallContract.sol\":3018:3048  _galleryContract != address(0) */\n      0xffffffffffffffffffffffffffffffffffffffff\n      and\n        /* \"WallContract.sol\":3018:3034  _galleryContract */\n      dup2\n        /* \"WallContract.sol\":3018:3048  _galleryContract != address(0) */\n      0xffffffffffffffffffffffffffffffffffffffff\n      and\n      sub\n        /* \"WallContract.sol\":3010:3077  require(_galleryContract != address(0), \"Invalid gallery contract\") */\n      tag_145\n      jumpi\n      mload(0x40)\n      0x08c379a000000000000000000000000000000000000000000000000000000000\n      dup2\n      mstore\n      0x04\n      add\n      tag_146\n      swap1\n      tag_147\n      jump\t// in\n    tag_146:\n      mload(0x40)\n      dup1\n      swap2\n      sub\n      swap1\n      revert\n    tag_145:\n        /* \"WallContract.sol\":3106:3122  _galleryContract */\n      dup1\n        /* \"WallContract.sol\":3088:3103  galleryContract */\n      0x00\n      0x01\n        /* \"WallContract.sol\":3088:3122  galleryContract = _galleryContract */\n      0x0100\n      exp\n      dup2\n      sload\n      dup2\n      0xffffffffffffffffffffffffffffffffffffffff\n      mul\n      not\n      and\n      swap1\n      dup4\n      0xffffffffffffffffffffffffffffffffffffffff\n      and\n      mul\n      or\n      swap1\n      sstore\n      pop\n        /* \"WallContract.sol\":2926:3130  function setGalleryContract(address _galleryContract) external onlyAdmin {... */\n      pop\n      jump\t// out\n        /* \"WallContract.sol\":10136:10203  function unpause() external onlyAdmin {... */\n    tag_39:\n        /* \"WallContract.sol\":2364:2375  roleManager */\n      0x01\n      0x00\n      swap1\n      sload\n      swap1\n      0x0100\n      exp\n      swap1\n      div\n      0xffffffffffffffffffffffffffffffffffffffff\n      and\n        /* \"WallContract.sol\":2364:2383  roleManager.hasRole */\n      0xffffffffffffffffffffffffffffffffffffffff\n      and\n      0x91d14854\n        /* \"WallContract.sol\":2384:2395  roleManager */\n      0x01\n      0x00\n      swap1\n      sload\n      swap1\n      0x0100\n      exp\n      swap1\n      div\n      0xffffffffffffffffffffffffffffffffffffffff\n      and\n        /* \"WallContract.sol\":2384:2406  roleManager.ADMIN_ROLE */\n      0xffffffffffffffffffffffffffffffffffffffff\n      and\n      0x75b238fc\n        /* \"WallContract.sol\":2384:2408  roleManager.ADMIN_ROLE() */\n      mload(0x40)\n      dup2\n      0xffffffff\n      and\n      0xe0\n      shl\n      dup2\n      mstore\n      0x04\n      add\n      0x20\n      mload(0x40)\n      dup1\n      dup4\n      sub\n      dup2\n      dup7\n      gas\n      staticcall\n      iszero\n      dup1\n      iszero\n      tag_150\n      jumpi\n      returndatasize\n      0x00\n      dup1\n      returndatacopy\n      revert(0x00, returndatasize)\n    tag_150:\n      pop\n      pop\n      pop\n      pop\n      mload(0x40)\n      returndatasize\n      not(0x1f)\n      0x1f\n      dup3\n      add\n      and\n      dup3\n      add\n      dup1\n      0x40\n      mstore\n      pop\n      dup2\n      add\n      swap1\n      tag_151\n      swap2\n      swap1\n      tag_115\n      jump\t// in\n    tag_151:\n        /* \"WallContract.sol\":2410:2420  msg.sender */\n      caller\n        /* \"WallContract.sol\":2364:2421  roleManager.hasRole(roleManager.ADMIN_ROLE(), msg.sender) */\n      mload(0x40)\n      dup4\n      0xffffffff\n      and\n      0xe0\n      shl\n      dup2\n      mstore\n      0x04\n      add\n      tag_152\n      swap3\n      swap2\n      swap1\n      tag_117\n      jump\t// in\n    tag_152:\n      0x20\n      mload(0x40)\n      dup1\n      dup4\n      sub\n      dup2\n      dup7\n      gas\n      staticcall\n      iszero\n      dup1\n      iszero\n      tag_154\n      jumpi\n      returndatasize\n      0x00\n      dup1\n      returndatacopy\n      revert(0x00, returndatasize)\n    tag_154:\n      pop\n      pop\n      pop\n      pop\n      mload(0x40)\n      returndatasize\n      not(0x1f)\n      0x1f\n      dup3\n      add\n      and\n      dup3\n      add\n      dup1\n      0x40\n      mstore\n      pop\n      dup2\n      add\n      swap1\n      tag_155\n      swap2\n      swap1\n      tag_121\n      jump\t// in\n    tag_155:\n        /* \"WallContract.sol\":2356:2448  require(roleManager.hasRole(roleManager.ADMIN_ROLE(), msg.sender), \"Caller is not an admin\") */\n      tag_156\n      jumpi\n      mload(0x40)\n      0x08c379a000000000000000000000000000000000000000000000000000000000\n      dup2\n      mstore\n      0x04\n      add\n      tag_157\n      swap1\n      tag_143\n      jump\t// in\n    tag_157:\n      mload(0x40)\n      dup1\n      swap2\n      sub\n      swap1\n      revert\n    tag_156:\n        /* \"WallContract.sol\":10185:10195  _unpause() */\n      tag_159\n        /* \"WallContract.sol\":10185:10193  _unpause */\n      tag_160\n        /* \"WallContract.sol\":10185:10195  _unpause() */\n      jump\t// in\n    tag_159:\n        /* \"WallContract.sol\":10136:10203  function unpause() external onlyAdmin {... */\n      jump\t// out\n        /* \"WallContract.sol\":1317:1368  mapping(uint256 => WallRequest) public wallRequests */\n    tag_43:\n      mstore(0x20, 0x04)\n      dup1\n      0x00\n      mstore\n      keccak256(0x00, 0x40)\n      0x00\n      swap2\n      pop\n      swap1\n      pop\n      dup1\n      0x00\n      add\n      0x00\n      swap1\n      sload\n      swap1\n      0x0100\n      exp\n      swap1\n      div\n      0xffffffffffffffffffffffffffffffffffffffff\n      and\n      swap1\n      dup1\n      0x01\n      add\n      mload(0x40)\n      dup1\n      0xa0\n      add\n      0x40\n      mstore\n      swap1\n      dup2\n      0x00\n      dup3\n      add\n      dup1\n      sload\n      tag_161\n      swap1\n      tag_162\n      jump\t// in\n    tag_161:\n      dup1\n      0x1f\n      add\n      0x20\n      dup1\n      swap2\n      div\n      mul\n      0x20\n      add\n      mload(0x40)\n      swap1\n      dup2\n      add\n      0x40\n      mstore\n      dup1\n      swap3\n      swap2\n      swap1\n      dup2\n      dup2\n      mstore\n      0x20\n      add\n      dup3\n      dup1\n      sload\n      tag_163\n      swap1\n      tag_162\n      jump\t// in\n    tag_163:\n      dup1\n      iszero\n      tag_164\n      jumpi\n      dup1\n      0x1f\n      lt\n      tag_165\n      jumpi\n      0x0100\n      dup1\n      dup4\n      sload\n      div\n      mul\n      dup4\n      mstore\n      swap2\n      0x20\n      add\n      swap2\n      jump(tag_164)\n    tag_165:\n      dup3\n      add\n      swap2\n      swap1\n      0x00\n      mstore\n      keccak256(0x00, 0x20)\n      swap1\n    tag_166:\n      dup2\n      sload\n      dup2\n      mstore\n      swap1\n      0x01\n      add\n      swap1\n      0x20\n      add\n      dup1\n      dup4\n      gt\n      tag_166\n      jumpi\n      dup3\n      swap1\n      sub\n      0x1f\n      and\n      dup3\n      add\n      swap2\n    tag_164:\n      pop\n      pop\n      pop\n      pop\n      pop\n      dup2\n      mstore\n      0x20\n      add\n      0x01\n      dup3\n      add\n      dup1\n      sload\n      tag_167\n      swap1\n      tag_162\n      jump\t// in\n    tag_167:\n      dup1\n      0x1f\n      add\n      0x20\n      dup1\n      swap2\n      div\n      mul\n      0x20\n      add\n      mload(0x40)\n      swap1\n      dup2\n      add\n      0x40\n      mstore\n      dup1\n      swap3\n      swap2\n      swap1\n      dup2\n      dup2\n      mstore\n      0x20\n      add\n      dup3\n      dup1\n      sload\n      tag_168\n      swap1\n      tag_162\n      jump\t// in\n    tag_168:\n      dup1\n      iszero\n      tag_169\n      jumpi\n      dup1\n      0x1f\n      lt\n      tag_170\n      jumpi\n      0x0100\n      dup1\n      dup4\n      sload\n      div\n      mul\n      dup4\n      mstore\n      swap2\n      0x20\n      add\n      swap2\n      jump(tag_169)\n    tag_170:\n      dup3\n      add\n      swap2\n      swap1\n      0x00\n      mstore\n      keccak256(0x00, 0x20)\n      swap1\n    tag_171:\n      dup2\n      sload\n      dup2\n      mstore\n      swap1\n      0x01\n      add\n      swap1\n      0x20\n      add\n      dup1\n      dup4\n      gt\n      tag_171\n      jumpi\n      dup3\n      swap1\n      sub\n      0x1f\n      and\n      dup3\n      add\n      swap2\n    tag_169:\n      pop\n      pop\n      pop\n      pop\n      pop\n      dup2\n      mstore\n      0x20\n      add\n      0x02\n      dup3\n      add\n      dup1\n      sload\n      tag_172\n      swap1\n      tag_162\n      jump\t// in\n    tag_172:\n      dup1\n      0x1f\n      add\n      0x20\n      dup1\n      swap2\n      div\n      mul\n      0x20\n      add\n      mload(0x40)\n      swap1\n      dup2\n      add\n      0x40\n      mstore\n      dup1\n      swap3\n      swap2\n      swap1\n      dup2\n      dup2\n      mstore\n      0x20\n      add\n      dup3\n      dup1\n      sload\n      tag_173\n      swap1\n      tag_162\n      jump\t// in\n    tag_173:\n      dup1\n      iszero\n      tag_174\n      jumpi\n      dup1\n      0x1f\n      lt\n      tag_175\n      jumpi\n      0x0100\n      dup1\n      dup4\n      sload\n      div\n      mul\n      dup4\n      mstore\n      swap2\n      0x20\n      add\n      swap2\n      jump(tag_174)\n    tag_175:\n      dup3\n      add\n      swap2\n      swap1\n      0x00\n      mstore\n      keccak256(0x00, 0x20)\n      swap1\n    tag_176:\n      dup2\n      sload\n      dup2\n      mstore\n      swap1\n      0x01\n      add\n      swap1\n      0x20\n      add\n      dup1\n      dup4\n      gt\n      tag_176\n      jumpi\n      dup3\n      swap1\n      sub\n      0x1f\n      and\n      dup3\n      add\n      swap2\n    tag_174:\n      pop\n      pop\n      pop\n      pop\n      pop\n      dup2\n      mstore\n      0x20\n      add\n      0x03\n      dup3\n      add\n      sload\n      dup2\n      mstore\n      0x20\n      add\n      0x04\n      dup3\n      add\n      sload\n      dup2\n      mstore\n      pop\n      pop\n      swap1\n      dup1\n      0x06\n      add\n      sload\n      swap1\n      dup1\n      0x07\n      add\n      sload\n      swap1\n      dup1\n      0x08\n      add\n      0x00\n      swap1\n      sload\n      swap1\n      0x0100\n      exp\n      swap1\n      div\n      0xff\n      and\n      swap1\n      dup1\n      0x08\n      add\n      0x01\n      swap1\n      sload\n      swap1\n      0x0100\n      exp\n      swap1\n      div\n      0xff\n      and\n      swap1\n      pop\n      dup7\n      jump\t// out\n        /* \"WallContract.sol\":1269:1310  mapping(uint256 => WallData) public walls */\n    tag_48:\n      mstore(0x20, 0x03)\n      dup1\n      0x00\n      mstore\n      keccak256(0x00, 0x40)\n      0x00\n      swap2\n      pop\n      swap1\n      pop\n      dup1\n      0x00\n      add\n      sload\n      swap1\n      dup1\n      0x01\n      add\n      0x00\n      swap1\n      sload\n      swap1\n      0x0100\n      exp\n      swap1\n      div\n      0xffffffffffffffffffffffffffffffffffffffff\n      and\n      swap1\n      dup1\n      0x02\n      add\n      mload(0x40)\n      dup1\n      0xa0\n      add\n      0x40\n      mstore\n      swap1\n      dup2\n      0x00\n      dup3\n      add\n      dup1\n      sload\n      tag_177\n      swap1\n      tag_162\n      jump\t// in\n    tag_177:\n      dup1\n      0x1f\n      add\n      0x20\n      dup1\n      swap2\n      div\n      mul\n      0x20\n      add\n      mload(0x40)\n      swap1\n      dup2\n      add\n      0x40\n      mstore\n      dup1\n      swap3\n      swap2\n      swap1\n      dup2\n      dup2\n      mstore\n      0x20\n      add\n      dup3\n      dup1\n      sload\n      tag_178\n      swap1\n      tag_162\n      jump\t// in\n    tag_178:\n      dup1\n      iszero\n      tag_179\n      jumpi\n      dup1\n      0x1f\n      lt\n      tag_180\n      jumpi\n      0x0100\n      dup1\n      dup4\n      sload\n      div\n      mul\n      dup4\n      mstore\n      swap2\n      0x20\n      add\n      swap2\n      jump(tag_179)\n    tag_180:\n      dup3\n      add\n      swap2\n      swap1\n      0x00\n      mstore\n      keccak256(0x00, 0x20)\n      swap1\n    tag_181:\n      dup2\n      sload\n      dup2\n      mstore\n      swap1\n      0x01\n      add\n      swap1\n      0x20\n      add\n      dup1\n      dup4\n      gt\n      tag_181\n      jumpi\n      dup3\n      swap1\n      sub\n      0x1f\n      and\n      dup3\n      add\n      swap2\n    tag_179:\n      pop\n      pop\n      pop\n      pop\n      pop\n      dup2\n      mstore\n      0x20\n      add\n      0x01\n      dup3\n      add\n      dup1\n      sload\n      tag_182\n      swap1\n      tag_162\n      jump\t// in\n    tag_182:\n      dup1\n      0x1f\n      add\n      0x20\n      dup1\n      swap2\n      div\n      mul\n      0x20\n      add\n      mload(0x40)\n      swap1\n      dup2\n      add\n      0x40\n      mstore\n      dup1\n      swap3\n      swap2\n      swap1\n      dup2\n      dup2\n      mstore\n      0x20\n      add\n      dup3\n      dup1\n      sload\n      tag_183\n      swap1\n      tag_162\n      jump\t// in\n    tag_183:\n      dup1\n      iszero\n      tag_184\n      jumpi\n      dup1\n      0x1f\n      lt\n      tag_185\n      jumpi\n      0x0100\n      dup1\n      dup4\n      sload\n      div\n      mul\n      dup4\n      mstore\n      swap2\n      0x20\n      add\n      swap2\n      jump(tag_184)\n    tag_185:\n      dup3\n      add\n      swap2\n      swap1\n      0x00\n      mstore\n      keccak256(0x00, 0x20)\n      swap1\n    tag_186:\n      dup2\n      sload\n      dup2\n      mstore\n      swap1\n      0x01\n      add\n      swap1\n      0x20\n      add\n      dup1\n      dup4\n      gt\n      tag_186\n      jumpi\n      dup3\n      swap1\n      sub\n      0x1f\n      and\n      dup3\n      add\n      swap2\n    tag_184:\n      pop\n      pop\n      pop\n      pop\n      pop\n      dup2\n      mstore\n      0x20\n      add\n      0x02\n      dup3\n      add\n      dup1\n      sload\n      tag_187\n      swap1\n      tag_162\n      jump\t// in\n    tag_187:\n      dup1\n      0x1f\n      add\n      0x20\n      dup1\n      swap2\n      div\n      mul\n      0x20\n      add\n      mload(0x40)\n      swap1\n      dup2\n      add\n      0x40\n      mstore\n      dup1\n      swap3\n      swap2\n      swap1\n      dup2\n      dup2\n      mstore\n      0x20\n      add\n      dup3\n      dup1\n      sload\n      tag_188\n      swap1\n      tag_162\n      jump\t// in\n    tag_188:\n      dup1\n      iszero\n      tag_189\n      jumpi\n      dup1\n      0x1f\n      lt\n      tag_190\n      jumpi\n      0x0100\n      dup1\n      dup4\n      sload\n      div\n      mul\n      dup4\n      mstore\n      swap2\n      0x20\n      add\n      swap2\n      jump(tag_189)\n    tag_190:\n      dup3\n      add\n      swap2\n      swap1\n      0x00\n      mstore\n      keccak256(0x00, 0x20)\n      swap1\n    tag_191:\n      dup2\n      sload\n      dup2\n      mstore\n      swap1\n      0x01\n      add\n      swap1\n      0x20\n      add\n      dup1\n      dup4\n      gt\n      tag_191\n      jumpi\n      dup3\n      swap1\n      sub\n      0x1f\n      and\n      dup3\n      add\n      swap2\n    tag_189:\n      pop\n      pop\n      pop\n      pop\n      pop\n      dup2\n      mstore\n      0x20\n      add\n      0x03\n      dup3\n      add\n      sload\n      dup2\n      mstore\n      0x20\n      add\n      0x04\n      dup3\n      add\n      sload\n      dup2\n      mstore\n      pop\n      pop\n      swap1\n      dup1\n      0x07\n      add\n      sload\n      swap1\n      dup1\n      0x08\n      add\n      sload\n      swap1\n      dup1\n      0x09\n      add\n      0x00\n      swap1\n      sload\n      swap1\n      0x0100\n      exp\n      swap1\n      div\n      0xff\n      and\n      swap1\n      dup1\n      0x0a\n      add\n      sload\n      swap1\n      dup1\n      0x0b\n      add\n      sload\n      swap1\n      dup1\n      0x0c\n      add\n      sload\n      swap1\n      pop\n      dup10\n      jump\t// out\n        /* \"@openzeppelin/contracts/security/Pausable.sol\":1615:1699  function paused() public view virtual returns (bool) {... */\n    tag_52:\n        /* \"@openzeppelin/contracts/security/Pausable.sol\":1662:1666  bool */\n      0x00\n        /* \"@openzeppelin/contracts/security/Pausable.sol\":1685:1692  _paused */\n      dup1\n      0x00\n      swap1\n      sload\n      swap1\n      0x0100\n      exp\n      swap1\n      div\n      0xff\n      and\n        /* \"@openzeppelin/contracts/security/Pausable.sol\":1678:1692  return _paused */\n      swap1\n      pop\n        /* \"@openzeppelin/contracts/security/Pausable.sol\":1615:1699  function paused() public view virtual returns (bool) {... */\n      swap1\n      jump\t// out\n        /* \"WallContract.sol\":1375:1422  mapping(address => uint256[]) public ownerWalls */\n    tag_58:\n      mstore(0x20, 0x05)\n      dup2\n      0x00\n      mstore\n      keccak256(0x00, 0x40)\n      dup2\n      dup2\n      sload\n      dup2\n      lt\n      tag_193\n      jumpi\n      0x00\n      dup1\n      revert\n    tag_193:\n      swap1\n      0x00\n      mstore\n      keccak256(0x00, 0x20)\n      add\n      0x00\n      swap2\n      pop\n      swap2\n      pop\n      pop\n      sload\n      dup2\n      jump\t// out\n        /* \"WallContract.sol\":445:475  address public galleryContract */\n    tag_62:\n      0x00\n      0x01\n      swap1\n      sload\n      swap1\n      0x0100\n      exp\n      swap1\n      div\n      0xffffffffffffffffffffffffffffffffffffffff\n      and\n      dup2\n      jump\t// out\n        /* \"WallContract.sol\":8721:9050  function getPendingRequests() external view returns (uint256[] memory) {... */\n    tag_66:\n        /* \"WallContract.sol\":8774:8790  uint256[] memory */\n      0x60\n        /* \"WallContract.sol\":8811:8822  roleManager */\n      0x01\n      0x00\n      swap1\n      sload\n      swap1\n      0x0100\n      exp\n      swap1\n      div\n      0xffffffffffffffffffffffffffffffffffffffff\n      and\n        /* \"WallContract.sol\":8811:8830  roleManager.hasRole */\n      0xffffffffffffffffffffffffffffffffffffffff\n      and\n      0x91d14854\n        /* \"WallContract.sol\":8831:8842  roleManager */\n      0x01\n      0x00\n      swap1\n      sload\n      swap1\n      0x0100\n      exp\n      swap1\n      div\n      0xffffffffffffffffffffffffffffffffffffffff\n      and\n        /* \"WallContract.sol\":8831:8853  roleManager.ADMIN_ROLE */\n      0xffffffffffffffffffffffffffffffffffffffff\n      and\n      0x75b238fc\n        /* \"WallContract.sol\":8831:8855  roleManager.ADMIN_ROLE() */\n      mload(0x40)\n      dup2\n      0xffffffff\n      and\n      0xe0\n      shl\n      dup2\n      mstore\n      0x04\n      add\n      0x20\n      mload(0x40)\n      dup1\n      dup4\n      sub\n      dup2\n      dup7\n      gas\n      staticcall\n      iszero\n      dup1\n      iszero\n      tag_197\n      jumpi\n      returndatasize\n      0x00\n      dup1\n      returndatacopy\n      revert(0x00, returndatasize)\n    tag_197:\n      pop\n      pop\n      pop\n      pop\n      mload(0x40)\n      returndatasize\n      not(0x1f)\n      0x1f\n      dup3\n      add\n      and\n      dup3\n      add\n      dup1\n      0x40\n      mstore\n      pop\n      dup2\n      add\n      swap1\n      tag_198\n      swap2\n      swap1\n      tag_115\n      jump\t// in\n    tag_198:\n        /* \"WallContract.sol\":8857:8867  msg.sender */\n      caller\n        /* \"WallContract.sol\":8811:8868  roleManager.hasRole(roleManager.ADMIN_ROLE(), msg.sender) */\n      mload(0x40)\n      dup4\n      0xffffffff\n      and\n      0xe0\n      shl\n      dup2\n      mstore\n      0x04\n      add\n      tag_199\n      swap3\n      swap2\n      swap1\n      tag_117\n      jump\t// in\n    tag_199:\n      0x20\n      mload(0x40)\n      dup1\n      dup4\n      sub\n      dup2\n      dup7\n      gas\n      staticcall\n      iszero\n      dup1\n      iszero\n      tag_201\n      jumpi\n      returndatasize\n      0x00\n      dup1\n      returndatacopy\n      revert(0x00, returndatasize)\n    tag_201:\n      pop\n      pop\n      pop\n      pop\n      mload(0x40)\n      returndatasize\n      not(0x1f)\n      0x1f\n      dup3\n      add\n      and\n      dup3\n      add\n      dup1\n      0x40\n      mstore\n      pop\n      dup2\n      add\n      swap1\n      tag_202\n      swap2\n      swap1\n      tag_121\n      jump\t// in\n    tag_202:\n        /* \"WallContract.sol\":8811:8952  roleManager.hasRole(roleManager.ADMIN_ROLE(), msg.sender) || ... */\n      dup1\n      tag_203\n      jumpi\n      pop\n        /* \"WallContract.sol\":8890:8901  roleManager */\n      0x01\n      0x00\n      swap1\n      sload\n      swap1\n      0x0100\n      exp\n      swap1\n      div\n      0xffffffffffffffffffffffffffffffffffffffff\n      and\n        /* \"WallContract.sol\":8890:8909  roleManager.hasRole */\n      0xffffffffffffffffffffffffffffffffffffffff\n      and\n      0x91d14854\n        /* \"WallContract.sol\":8910:8921  roleManager */\n      0x01\n      0x00\n      swap1\n      sload\n      swap1\n      0x0100\n      exp\n      swap1\n      div\n      0xffffffffffffffffffffffffffffffffffffffff\n      and\n        /* \"WallContract.sol\":8910:8937  roleManager.WALL_OWNER_ROLE */\n      0xffffffffffffffffffffffffffffffffffffffff\n      and\n      0x98e4abb5\n        /* \"WallContract.sol\":8910:8939  roleManager.WALL_OWNER_ROLE() */\n      mload(0x40)\n      dup2\n      0xffffffff\n      and\n      0xe0\n      shl\n      dup2\n      mstore\n      0x04\n      add\n      0x20\n      mload(0x40)\n      dup1\n      dup4\n      sub\n      dup2\n      dup7\n      gas\n      staticcall\n      iszero\n      dup1\n      iszero\n      tag_205\n      jumpi\n      returndatasize\n      0x00\n      dup1\n      returndatacopy\n      revert(0x00, returndatasize)\n    tag_205:\n      pop\n      pop\n      pop\n      pop\n      mload(0x40)\n      returndatasize\n      not(0x1f)\n      0x1f\n      dup3\n      add\n      and\n      dup3\n      add\n      dup1\n      0x40\n      mstore\n      pop\n      dup2\n      add\n      swap1\n      tag_206\n      swap2\n      swap1\n      tag_115\n      jump\t// in\n    tag_206:\n        /* \"WallContract.sol\":8941:8951  msg.sender */\n      caller\n        /* \"WallContract.sol\":8890:8952  roleManager.hasRole(roleManager.WALL_OWNER_ROLE(), msg.sender) */\n      mload(0x40)\n      dup4\n      0xffffffff\n      and\n      0xe0\n      shl\n      dup2\n      mstore\n      0x04\n      add\n      tag_207\n      swap3\n      swap2\n      swap1\n      tag_117\n      jump\t// in\n    tag_207:\n      0x20\n      mload(0x40)\n      dup1\n      dup4\n      sub\n      dup2\n      dup7\n      gas\n      staticcall\n      iszero\n      dup1\n      iszero\n      tag_209\n      jumpi\n      returndatasize\n      0x00\n      dup1\n      returndatacopy\n      revert(0x00, returndatasize)\n    tag_209:\n      pop\n      pop\n      pop\n      pop\n      mload(0x40)\n      returndatasize\n      not(0x1f)\n      0x1f\n      dup3\n      add\n      and\n      dup3\n      add\n      dup1\n      0x40\n      mstore\n      pop\n      dup2\n      add\n      swap1\n      tag_210\n      swap2\n      swap1\n      tag_121\n      jump\t// in\n    tag_210:\n        /* \"WallContract.sol\":8811:8952  roleManager.hasRole(roleManager.ADMIN_ROLE(), msg.sender) || ... */\n    tag_203:\n        /* \"WallContract.sol\":8803:9005  require(roleManager.hasRole(roleManager.ADMIN_ROLE(), msg.sender) || ... */\n      tag_211\n      jumpi\n      mload(0x40)\n      0x08c379a000000000000000000000000000000000000000000000000000000000\n      dup2\n      mstore\n      0x04\n      add\n      tag_212\n      swap1\n      tag_213\n      jump\t// in\n    tag_212:\n      mload(0x40)\n      dup1\n      swap2\n      sub\n      swap1\n      revert\n    tag_211:\n        /* \"WallContract.sol\":9023:9042  pendingWallRequests */\n      0x06\n        /* \"WallContract.sol\":9016:9042  return pendingWallRequests */\n      dup1\n      sload\n      dup1\n      0x20\n      mul\n      0x20\n      add\n      mload(0x40)\n      swap1\n      dup2\n      add\n      0x40\n      mstore\n      dup1\n      swap3\n      swap2\n      swap1\n      dup2\n      dup2\n      mstore\n      0x20\n      add\n      dup3\n      dup1\n      sload\n      dup1\n      iszero\n      tag_214\n      jumpi\n      0x20\n      mul\n      dup3\n      add\n      swap2\n      swap1\n      0x00\n      mstore\n      keccak256(0x00, 0x20)\n      swap1\n    tag_215:\n      dup2\n      sload\n      dup2\n      mstore\n      0x20\n      add\n      swap1\n      0x01\n      add\n      swap1\n      dup1\n      dup4\n      gt\n      tag_215\n      jumpi\n    tag_214:\n      pop\n      pop\n      pop\n      pop\n      pop\n      swap1\n      pop\n        /* \"WallContract.sol\":8721:9050  function getPendingRequests() external view returns (uint256[] memory) {... */\n      swap1\n      jump\t// out\n        /* \"WallContract.sol\":10065:10128  function pause() external onlyAdmin {... */\n    tag_70:\n        /* \"WallContract.sol\":2364:2375  roleManager */\n      0x01\n      0x00\n      swap1\n      sload\n      swap1\n      0x0100\n      exp\n      swap1\n      div\n      0xffffffffffffffffffffffffffffffffffffffff\n      and\n        /* \"WallContract.sol\":2364:2383  roleManager.hasRole */\n      0xffffffffffffffffffffffffffffffffffffffff\n      and\n      0x91d14854\n        /* \"WallContract.sol\":2384:2395  roleManager */\n      0x01\n      0x00\n      swap1\n      sload\n      swap1\n      0x0100\n      exp\n      swap1\n      div\n      0xffffffffffffffffffffffffffffffffffffffff\n      and\n        /* \"WallContract.sol\":2384:2406  roleManager.ADMIN_ROLE */\n      0xffffffffffffffffffffffffffffffffffffffff\n      and\n      0x75b238fc\n        /* \"WallContract.sol\":2384:2408  roleManager.ADMIN_ROLE() */\n      mload(0x40)\n      dup2\n      0xffffffff\n      and\n      0xe0\n      shl\n      dup2\n      mstore\n      0x04\n      add\n      0x20\n      mload(0x40)\n      dup1\n      dup4\n      sub\n      dup2\n      dup7\n      gas\n      staticcall\n      iszero\n      dup1\n      iszero\n      tag_218\n      jumpi\n      returndatasize\n      0x00\n      dup1\n      returndatacopy\n      revert(0x00, returndatasize)\n    tag_218:\n      pop\n      pop\n      pop\n      pop\n      mload(0x40)\n      returndatasize\n      not(0x1f)\n      0x1f\n      dup3\n      add\n      and\n      dup3\n      add\n      dup1\n      0x40\n      mstore\n      pop\n      dup2\n      add\n      swap1\n      tag_219\n      swap2\n      swap1\n      tag_115\n      jump\t// in\n    tag_219:\n        /* \"WallContract.sol\":2410:2420  msg.sender */\n      caller\n        /* \"WallContract.sol\":2364:2421  roleManager.hasRole(roleManager.ADMIN_ROLE(), msg.sender) */\n      mload(0x40)\n      dup4\n      0xffffffff\n      and\n      0xe0\n      shl\n      dup2\n      mstore\n      0x04\n      add\n      tag_220\n      swap3\n      swap2\n      swap1\n      tag_117\n      jump\t// in\n    tag_220:\n      0x20\n      mload(0x40)\n      dup1\n      dup4\n      sub\n      dup2\n      dup7\n      gas\n      staticcall\n      iszero\n      dup1\n      iszero\n      tag_222\n      jumpi\n      returndatasize\n      0x00\n      dup1\n      returndatacopy\n      revert(0x00, returndatasize)\n    tag_222:\n      pop\n      pop\n      pop\n      pop\n      mload(0x40)\n      returndatasize\n      not(0x1f)\n      0x1f\n      dup3\n      add\n      and\n      dup3\n      add\n      dup1\n      0x40\n      mstore\n      pop\n      dup2\n      add\n      swap1\n      tag_223\n      swap2\n      swap1\n      tag_121\n      jump\t// in\n    tag_223:\n        /* \"WallContract.sol\":2356:2448  require(roleManager.hasRole(roleManager.ADMIN_ROLE(), msg.sender), \"Caller is not an admin\") */\n      tag_224\n      jumpi\n      mload(0x40)\n      0x08c379a000000000000000000000000000000000000000000000000000000000\n      dup2\n      mstore\n      0x04\n      add\n      tag_225\n      swap1\n      tag_143\n      jump\t// in\n    tag_225:\n      mload(0x40)\n      dup1\n      swap2\n      sub\n      swap1\n      revert\n    tag_224:\n        /* \"WallContract.sol\":10112:10120  _pause() */\n      tag_227\n        /* \"WallContract.sol\":10112:10118  _pause */\n      tag_228\n        /* \"WallContract.sol\":10112:10120  _pause() */\n      jump\t// in\n    tag_227:\n        /* \"WallContract.sol\":10065:10128  function pause() external onlyAdmin {... */\n      jump\t// out\n        /* \"WallContract.sol\":3169:4496  function requestWall(... */\n    tag_74:\n        /* \"@openzeppelin/contracts/security/Pausable.sol\":1239:1258  _requireNotPaused() */\n      tag_230\n        /* \"@openzeppelin/contracts/security/Pausable.sol\":1239:1256  _requireNotPaused */\n      tag_127\n        /* \"@openzeppelin/contracts/security/Pausable.sol\":1239:1258  _requireNotPaused() */\n      jump\t// in\n    tag_230:\n        /* \"WallContract.sol\":3460:3471  roleManager */\n      0x01\n      0x00\n      swap1\n      sload\n      swap1\n      0x0100\n      exp\n      swap1\n      div\n      0xffffffffffffffffffffffffffffffffffffffff\n      and\n        /* \"WallContract.sol\":3460:3479  roleManager.hasRole */\n      0xffffffffffffffffffffffffffffffffffffffff\n      and\n      0x91d14854\n        /* \"WallContract.sol\":3480:3491  roleManager */\n      0x01\n      0x00\n      swap1\n      sload\n      swap1\n      0x0100\n      exp\n      swap1\n      div\n      0xffffffffffffffffffffffffffffffffffffffff\n      and\n        /* \"WallContract.sol\":3480:3507  roleManager.WALL_OWNER_ROLE */\n      0xffffffffffffffffffffffffffffffffffffffff\n      and\n      0x98e4abb5\n        /* \"WallContract.sol\":3480:3509  roleManager.WALL_OWNER_ROLE() */\n      mload(0x40)\n      dup2\n      0xffffffff\n      and\n      0xe0\n      shl\n      dup2\n      mstore\n      0x04\n      add\n      0x20\n      mload(0x40)\n      dup1\n      dup4\n      sub\n      dup2\n      dup7\n      gas\n      staticcall\n      iszero\n      dup1\n      iszero\n      tag_233\n      jumpi\n      returndatasize\n      0x00\n      dup1\n      returndatacopy\n      revert(0x00, returndatasize)\n    tag_233:\n      pop\n      pop\n      pop\n      pop\n      mload(0x40)\n      returndatasize\n      not(0x1f)\n      0x1f\n      dup3\n      add\n      and\n      dup3\n      add\n      dup1\n      0x40\n      mstore\n      pop\n      dup2\n      add\n      swap1\n      tag_234\n      swap2\n      swap1\n      tag_115\n      jump\t// in\n    tag_234:\n        /* \"WallContract.sol\":3511:3521  msg.sender */\n      caller\n        /* \"WallContract.sol\":3460:3522  roleManager.hasRole(roleManager.WALL_OWNER_ROLE(), msg.sender) */\n      mload(0x40)\n      dup4\n      0xffffffff\n      and\n      0xe0\n      shl\n      dup2\n      mstore\n      0x04\n      add\n      tag_235\n      swap3\n      swap2\n      swap1\n      tag_117\n      jump\t// in\n    tag_235:\n      0x20\n      mload(0x40)\n      dup1\n      dup4\n      sub\n      dup2\n      dup7\n      gas\n      staticcall\n      iszero\n      dup1\n      iszero\n      tag_237\n      jumpi\n      returndatasize\n      0x00\n      dup1\n      returndatacopy\n      revert(0x00, returndatasize)\n    tag_237:\n      pop\n      pop\n      pop\n      pop\n      mload(0x40)\n      returndatasize\n      not(0x1f)\n      0x1f\n      dup3\n      add\n      and\n      dup3\n      add\n      dup1\n      0x40\n      mstore\n      pop\n      dup2\n      add\n      swap1\n      tag_238\n      swap2\n      swap1\n      tag_121\n      jump\t// in\n    tag_238:\n        /* \"WallContract.sol\":3452:3599  require(roleManager.hasRole(roleManager.WALL_OWNER_ROLE(), msg.sender), ... */\n      tag_239\n      jumpi\n      mload(0x40)\n      0x08c379a000000000000000000000000000000000000000000000000000000000\n      dup2\n      mstore\n      0x04\n      add\n      tag_240\n      swap1\n      tag_241\n      jump\t// in\n    tag_240:\n      mload(0x40)\n      dup1\n      swap2\n      sub\n      swap1\n      revert\n    tag_239:\n        /* \"WallContract.sol\":3652:3653  0 */\n      0x00\n        /* \"WallContract.sol\":3634:3641  country */\n      dup11\n      dup11\n        /* \"WallContract.sol\":3628:3649  bytes(country).length */\n      swap1\n      pop\n        /* \"WallContract.sol\":3628:3653  bytes(country).length > 0 */\n      gt\n        /* \"WallContract.sol\":3628:3679  bytes(country).length > 0 && bytes(city).length > 0 */\n      dup1\n      iszero\n      tag_242\n      jumpi\n      pop\n        /* \"WallContract.sol\":3678:3679  0 */\n      0x00\n        /* \"WallContract.sol\":3663:3667  city */\n      dup9\n      dup9\n        /* \"WallContract.sol\":3657:3675  bytes(city).length */\n      swap1\n      pop\n        /* \"WallContract.sol\":3657:3679  bytes(city).length > 0 */\n      gt\n        /* \"WallContract.sol\":3628:3679  bytes(country).length > 0 && bytes(city).length > 0 */\n    tag_242:\n        /* \"WallContract.sol\":3620:3705  require(bytes(country).length > 0 && bytes(city).length > 0, \"Invalid location data\") */\n      tag_243\n      jumpi\n      mload(0x40)\n      0x08c379a000000000000000000000000000000000000000000000000000000000\n      dup2\n      mstore\n      0x04\n      add\n      tag_244\n      swap1\n      tag_245\n      jump\t// in\n    tag_244:\n      mload(0x40)\n      dup1\n      swap2\n      sub\n      swap1\n      revert\n    tag_243:\n        /* \"WallContract.sol\":3731:3732  0 */\n      0x00\n        /* \"WallContract.sol\":3724:3728  size */\n      dup3\n        /* \"WallContract.sol\":3724:3732  size > 0 */\n      gt\n        /* \"WallContract.sol\":3716:3749  require(size > 0, \"Invalid size\") */\n      tag_246\n      jumpi\n      mload(0x40)\n      0x08c379a000000000000000000000000000000000000000000000000000000000\n      dup2\n      mstore\n      0x04\n      add\n      tag_247\n      swap1\n      tag_248\n      jump\t// in\n    tag_247:\n      mload(0x40)\n      dup1\n      swap2\n      sub\n      swap1\n      revert\n    tag_246:\n        /* \"WallContract.sol\":3791:3793  90 */\n      0x5a\n        /* \"WallContract.sol\":3768:3787  ownershipPercentage */\n      dup2\n        /* \"WallContract.sol\":3768:3793  ownershipPercentage <= 90 */\n      gt\n      iszero\n        /* \"WallContract.sol\":3760:3829  require(ownershipPercentage <= 90, \"Max ownership percentage is 90%\") */\n      tag_249\n      jumpi\n      mload(0x40)\n      0x08c379a000000000000000000000000000000000000000000000000000000000\n      dup2\n      mstore\n      0x04\n      add\n      tag_250\n      swap1\n      tag_131\n      jump\t// in\n    tag_250:\n      mload(0x40)\n      dup1\n      swap2\n      sub\n      swap1\n      revert\n    tag_249:\n        /* \"WallContract.sol\":3842:3859  uint256 requestId */\n      0x00\n        /* \"WallContract.sol\":3862:3878  _getNextWallId() */\n      tag_251\n        /* \"WallContract.sol\":3862:3876  _getNextWallId */\n      tag_252\n        /* \"WallContract.sol\":3862:3878  _getNextWallId() */\n      jump\t// in\n    tag_251:\n        /* \"WallContract.sol\":3842:3878  uint256 requestId = _getNextWallId() */\n      swap1\n      pop\n        /* \"WallContract.sol\":3899:3923  Location memory location */\n      0x00\n        /* \"WallContract.sol\":3926:4118  Location({... */\n      mload(0x40)\n      dup1\n      0xa0\n      add\n      0x40\n      mstore\n      dup1\n        /* \"WallContract.sol\":3959:3966  country */\n      dup14\n      dup14\n        /* \"WallContract.sol\":3926:4118  Location({... */\n      dup1\n      dup1\n      0x1f\n      add\n      0x20\n      dup1\n      swap2\n      div\n      mul\n      0x20\n      add\n      mload(0x40)\n      swap1\n      dup2\n      add\n      0x40\n      mstore\n      dup1\n      swap4\n      swap3\n      swap2\n      swap1\n      dup2\n      dup2\n      mstore\n      0x20\n      add\n      dup4\n      dup4\n      dup1\n      dup3\n      dup5\n      calldatacopy\n      0x00\n      dup2\n      dup5\n      add\n      mstore\n      not(0x1f)\n      0x1f\n      dup3\n      add\n      and\n      swap1\n      pop\n      dup1\n      dup4\n      add\n      swap3\n      pop\n      pop\n      pop\n      pop\n      pop\n      pop\n      pop\n      dup2\n      mstore\n      0x20\n      add\n        /* \"WallContract.sol\":3987:3991  city */\n      dup12\n      dup12\n        /* \"WallContract.sol\":3926:4118  Location({... */\n      dup1\n      dup1\n      0x1f\n      add\n      0x20\n      dup1\n      swap2\n      div\n      mul\n      0x20\n      add\n      mload(0x40)\n      swap1\n      dup2\n      add\n      0x40\n      mstore\n      dup1\n      swap4\n      swap3\n      swap2\n      swap1\n      dup2\n      dup2\n      mstore\n      0x20\n      add\n      dup4\n      dup4\n      dup1\n      dup3\n      dup5\n      calldatacopy\n      0x00\n      dup2\n      dup5\n      add\n      mstore\n      not(0x1f)\n      0x1f\n      dup3\n      add\n      and\n      swap1\n      pop\n      dup1\n      dup4\n      add\n      swap3\n      pop\n      pop\n      pop\n      pop\n      pop\n      pop\n      pop\n      dup2\n      mstore\n      0x20\n      add\n        /* \"WallContract.sol\":4023:4038  physicalAddress */\n      dup10\n      dup10\n        /* \"WallContract.sol\":3926:4118  Location({... */\n      dup1\n      dup1\n      0x1f\n      add\n      0x20\n      dup1\n      swap2\n      div\n      mul\n      0x20\n      add\n      mload(0x40)\n      swap1\n      dup2\n      add\n      0x40\n      mstore\n      dup1\n      swap4\n      swap3\n      swap2\n      swap1\n      dup2\n      dup2\n      mstore\n      0x20\n      add\n      dup4\n      dup4\n      dup1\n      dup3\n      dup5\n      calldatacopy\n      0x00\n      dup2\n      dup5\n      add\n      mstore\n      not(0x1f)\n      0x1f\n      dup3\n      add\n      and\n      swap1\n      pop\n      dup1\n      dup4\n      add\n      swap3\n      pop\n      pop\n      pop\n      pop\n      pop\n      pop\n      pop\n      dup2\n      mstore\n      0x20\n      add\n        /* \"WallContract.sol\":4064:4073  longitude */\n      dup8\n        /* \"WallContract.sol\":3926:4118  Location({... */\n      dup2\n      mstore\n      0x20\n      add\n        /* \"WallContract.sol\":4098:4106  latitude */\n      dup7\n        /* \"WallContract.sol\":3926:4118  Location({... */\n      dup2\n      mstore\n      pop\n        /* \"WallContract.sol\":3899:4118  Location memory location = Location({... */\n      swap1\n      pop\n        /* \"WallContract.sol\":4157:4388  WallRequest({... */\n      mload(0x40)\n      dup1\n      0xc0\n      add\n      0x40\n      mstore\n      dup1\n        /* \"WallContract.sol\":4195:4205  msg.sender */\n      caller\n        /* \"WallContract.sol\":4157:4388  WallRequest({... */\n      0xffffffffffffffffffffffffffffffffffffffff\n      and\n      dup2\n      mstore\n      0x20\n      add\n        /* \"WallContract.sol\":4230:4238  location */\n      dup3\n        /* \"WallContract.sol\":4157:4388  WallRequest({... */\n      dup2\n      mstore\n      0x20\n      add\n        /* \"WallContract.sol\":4259:4263  size */\n      dup6\n        /* \"WallContract.sol\":4157:4388  WallRequest({... */\n      dup2\n      mstore\n      0x20\n      add\n        /* \"WallContract.sol\":4299:4318  ownershipPercentage */\n      dup5\n        /* \"WallContract.sol\":4157:4388  WallRequest({... */\n      dup2\n      mstore\n      0x20\n      add\n        /* \"WallContract.sol\":4342:4346  true */\n      0x01\n        /* \"WallContract.sol\":4157:4388  WallRequest({... */\n      iszero\n      iszero\n      dup2\n      mstore\n      0x20\n      add\n        /* \"WallContract.sol\":4371:4376  false */\n      0x00\n        /* \"WallContract.sol\":4157:4388  WallRequest({... */\n      iszero\n      iszero\n      dup2\n      mstore\n      pop\n        /* \"WallContract.sol\":4131:4143  wallRequests */\n      0x04\n        /* \"WallContract.sol\":4131:4154  wallRequests[requestId] */\n      0x00\n        /* \"WallContract.sol\":4144:4153  requestId */\n      dup5\n        /* \"WallContract.sol\":4131:4154  wallRequests[requestId] */\n      dup2\n      mstore\n      0x20\n      add\n      swap1\n      dup2\n      mstore\n      0x20\n      add\n      0x00\n      keccak256\n        /* \"WallContract.sol\":4131:4388  wallRequests[requestId] = WallRequest({... */\n      0x00\n      dup3\n      add\n      mload\n      dup2\n      0x00\n      add\n      exp(0x0100, 0x00)\n      dup2\n      sload\n      dup2\n      0xffffffffffffffffffffffffffffffffffffffff\n      mul\n      not\n      and\n      swap1\n      dup4\n      0xffffffffffffffffffffffffffffffffffffffff\n      and\n      mul\n      or\n      swap1\n      sstore\n      pop\n      0x20\n      dup3\n      add\n      mload\n      dup2\n      0x01\n      add\n      0x00\n      dup3\n      add\n      mload\n      dup2\n      0x00\n      add\n      swap1\n      dup2\n      tag_253\n      swap2\n      swap1\n      tag_254\n      jump\t// in\n    tag_253:\n      pop\n      0x20\n      dup3\n      add\n      mload\n      dup2\n      0x01\n      add\n      swap1\n      dup2\n      tag_255\n      swap2\n      swap1\n      tag_254\n      jump\t// in\n    tag_255:\n      pop\n      0x40\n      dup3\n      add\n      mload\n      dup2\n      0x02\n      add\n      swap1\n      dup2\n      tag_256\n      swap2\n      swap1\n      tag_254\n      jump\t// in\n    tag_256:\n      pop\n      0x60\n      dup3\n      add\n      mload\n      dup2\n      0x03\n      add\n      sstore\n      0x80\n      dup3\n      add\n      mload\n      dup2\n      0x04\n      add\n      sstore\n      pop\n      pop\n      0x40\n      dup3\n      add\n      mload\n      dup2\n      0x06\n      add\n      sstore\n      0x60\n      dup3\n      add\n      mload\n      dup2\n      0x07\n      add\n      sstore\n      0x80\n      dup3\n      add\n      mload\n      dup2\n      0x08\n      add\n      exp(0x0100, 0x00)\n      dup2\n      sload\n      dup2\n      0xff\n      mul\n      not\n      and\n      swap1\n      dup4\n      iszero\n      iszero\n      mul\n      or\n      swap1\n      sstore\n      pop\n      0xa0\n      dup3\n      add\n      mload\n      dup2\n      0x08\n      add\n      exp(0x0100, 0x01)\n      dup2\n      sload\n      dup2\n      0xff\n      mul\n      not\n      and\n      swap1\n      dup4\n      iszero\n      iszero\n      mul\n      or\n      swap1\n      sstore\n      pop\n      swap1\n      pop\n      pop\n        /* \"WallContract.sol\":4401:4420  pendingWallRequests */\n      0x06\n        /* \"WallContract.sol\":4426:4435  requestId */\n      dup3\n        /* \"WallContract.sol\":4401:4436  pendingWallRequests.push(requestId) */\n      swap1\n      dup1\n      0x01\n      dup2\n      sload\n      add\n      dup1\n      dup3\n      sstore\n      dup1\n      swap2\n      pop\n      pop\n      0x01\n      swap1\n      sub\n      swap1\n      0x00\n      mstore\n      keccak256(0x00, 0x20)\n      add\n      0x00\n      swap1\n      swap2\n      swap1\n      swap2\n      swap1\n      swap2\n      pop\n      sstore\n        /* \"WallContract.sol\":4477:4487  msg.sender */\n      caller\n        /* \"WallContract.sol\":4452:4488  WallRequested(requestId, msg.sender) */\n      0xffffffffffffffffffffffffffffffffffffffff\n      and\n        /* \"WallContract.sol\":4466:4475  requestId */\n      dup3\n        /* \"WallContract.sol\":4452:4488  WallRequested(requestId, msg.sender) */\n      0xcbbbcc1725193dff50b4699b7d4be5dfa0b8091ac6b9081400e3704fc8ed244c\n      mload(0x40)\n      mload(0x40)\n      dup1\n      swap2\n      sub\n      swap1\n      log3\n        /* \"WallContract.sol\":3441:4496  {... */\n      pop\n      pop\n        /* \"WallContract.sol\":3169:4496  function requestWall(... */\n      pop\n      pop\n      pop\n      pop\n      pop\n      pop\n      pop\n      pop\n      pop\n      pop\n      jump\t// out\n        /* \"WallContract.sol\":5975:6807  function updateWall(... */\n    tag_78:\n        /* \"WallContract.sol\":6230:6236  wallId */\n      dup10\n        /* \"WallContract.sol\":2562:2563  0 */\n      0x00\n        /* \"WallContract.sol\":2531:2564  walls[wallId].owner != address(0) */\n      0xffffffffffffffffffffffffffffffffffffffff\n      and\n        /* \"WallContract.sol\":2531:2536  walls */\n      0x03\n        /* \"WallContract.sol\":2531:2544  walls[wallId] */\n      0x00\n        /* \"WallContract.sol\":2537:2543  wallId */\n      dup4\n        /* \"WallContract.sol\":2531:2544  walls[wallId] */\n      dup2\n      mstore\n      0x20\n      add\n      swap1\n      dup2\n      mstore\n      0x20\n      add\n      0x00\n      keccak256\n        /* \"WallContract.sol\":2531:2550  walls[wallId].owner */\n      0x01\n      add\n      0x00\n      swap1\n      sload\n      swap1\n      0x0100\n      exp\n      swap1\n      div\n      0xffffffffffffffffffffffffffffffffffffffff\n      and\n        /* \"WallContract.sol\":2531:2564  walls[wallId].owner != address(0) */\n      0xffffffffffffffffffffffffffffffffffffffff\n      and\n      sub\n        /* \"WallContract.sol\":2523:2588  require(walls[wallId].owner != address(0), \"Wall does not exist\") */\n      tag_259\n      jumpi\n      mload(0x40)\n      0x08c379a000000000000000000000000000000000000000000000000000000000\n      dup2\n      mstore\n      0x04\n      add\n      tag_260\n      swap1\n      tag_109\n      jump\t// in\n    tag_260:\n      mload(0x40)\n      dup1\n      swap2\n      sub\n      swap1\n      revert\n    tag_259:\n        /* \"WallContract.sol\":6252:6258  wallId */\n      dup11\n        /* \"WallContract.sol\":2697:2707  msg.sender */\n      caller\n        /* \"WallContract.sol\":2674:2707  walls[wallId].owner == msg.sender */\n      0xffffffffffffffffffffffffffffffffffffffff\n      and\n        /* \"WallContract.sol\":2674:2679  walls */\n      0x03\n        /* \"WallContract.sol\":2674:2687  walls[wallId] */\n      0x00\n        /* \"WallContract.sol\":2680:2686  wallId */\n      dup4\n        /* \"WallContract.sol\":2674:2687  walls[wallId] */\n      dup2\n      mstore\n      0x20\n      add\n      swap1\n      dup2\n      mstore\n      0x20\n      add\n      0x00\n      keccak256\n        /* \"WallContract.sol\":2674:2693  walls[wallId].owner */\n      0x01\n      add\n      0x00\n      swap1\n      sload\n      swap1\n      0x0100\n      exp\n      swap1\n      div\n      0xffffffffffffffffffffffffffffffffffffffff\n      and\n        /* \"WallContract.sol\":2674:2707  walls[wallId].owner == msg.sender */\n      0xffffffffffffffffffffffffffffffffffffffff\n      and\n      eq\n        /* \"WallContract.sol\":2674:2786  walls[wallId].owner == msg.sender || ... */\n      dup1\n      tag_262\n      jumpi\n      pop\n        /* \"WallContract.sol\":2729:2740  roleManager */\n      0x01\n      0x00\n      swap1\n      sload\n      swap1\n      0x0100\n      exp\n      swap1\n      div\n      0xffffffffffffffffffffffffffffffffffffffff\n      and\n        /* \"WallContract.sol\":2729:2748  roleManager.hasRole */\n      0xffffffffffffffffffffffffffffffffffffffff\n      and\n      0x91d14854\n        /* \"WallContract.sol\":2749:2760  roleManager */\n      0x01\n      0x00\n      swap1\n      sload\n      swap1\n      0x0100\n      exp\n      swap1\n      div\n      0xffffffffffffffffffffffffffffffffffffffff\n      and\n        /* \"WallContract.sol\":2749:2771  roleManager.ADMIN_ROLE */\n      0xffffffffffffffffffffffffffffffffffffffff\n      and\n      0x75b238fc\n        /* \"WallContract.sol\":2749:2773  roleManager.ADMIN_ROLE() */\n      mload(0x40)\n      dup2\n      0xffffffff\n      and\n      0xe0\n      shl\n      dup2\n      mstore\n      0x04\n      add\n      0x20\n      mload(0x40)\n      dup1\n      dup4\n      sub\n      dup2\n      dup7\n      gas\n      staticcall\n      iszero\n      dup1\n      iszero\n      tag_264\n      jumpi\n      returndatasize\n      0x00\n      dup1\n      returndatacopy\n      revert(0x00, returndatasize)\n    tag_264:\n      pop\n      pop\n      pop\n      pop\n      mload(0x40)\n      returndatasize\n      not(0x1f)\n      0x1f\n      dup3\n      add\n      and\n      dup3\n      add\n      dup1\n      0x40\n      mstore\n      pop\n      dup2\n      add\n      swap1\n      tag_265\n      swap2\n      swap1\n      tag_115\n      jump\t// in\n    tag_265:\n        /* \"WallContract.sol\":2775:2785  msg.sender */\n      caller\n        /* \"WallContract.sol\":2729:2786  roleManager.hasRole(roleManager.ADMIN_ROLE(), msg.sender) */\n      mload(0x40)\n      dup4\n      0xffffffff\n      and\n      0xe0\n      shl\n      dup2\n      mstore\n      0x04\n      add\n      tag_266\n      swap3\n      swap2\n      swap1\n      tag_117\n      jump\t// in\n    tag_266:\n      0x20\n      mload(0x40)\n      dup1\n      dup4\n      sub\n      dup2\n      dup7\n      gas\n      staticcall\n      iszero\n      dup1\n      iszero\n      tag_268\n      jumpi\n      returndatasize\n      0x00\n      dup1\n      returndatacopy\n      revert(0x00, returndatasize)\n    tag_268:\n      pop\n      pop\n      pop\n      pop\n      mload(0x40)\n      returndatasize\n      not(0x1f)\n      0x1f\n      dup3\n      add\n      and\n      dup3\n      add\n      dup1\n      0x40\n      mstore\n      pop\n      dup2\n      add\n      swap1\n      tag_269\n      swap2\n      swap1\n      tag_121\n      jump\t// in\n    tag_269:\n        /* \"WallContract.sol\":2674:2786  walls[wallId].owner == msg.sender || ... */\n    tag_262:\n        /* \"WallContract.sol\":2666:2823  require(walls[wallId].owner == msg.sender || ... */\n      tag_270\n      jumpi\n      mload(0x40)\n      0x08c379a000000000000000000000000000000000000000000000000000000000\n      dup2\n      mstore\n      0x04\n      add\n      tag_271\n      swap1\n      tag_124\n      jump\t// in\n    tag_271:\n      mload(0x40)\n      dup1\n      swap2\n      sub\n      swap1\n      revert\n    tag_270:\n        /* \"@openzeppelin/contracts/security/Pausable.sol\":1239:1258  _requireNotPaused() */\n      tag_273\n        /* \"@openzeppelin/contracts/security/Pausable.sol\":1239:1256  _requireNotPaused */\n      tag_127\n        /* \"@openzeppelin/contracts/security/Pausable.sol\":1239:1258  _requireNotPaused() */\n      jump\t// in\n    tag_273:\n        /* \"WallContract.sol\":6317:6318  0 */\n      0x00\n        /* \"WallContract.sol\":6299:6306  country */\n      dup12\n      dup12\n        /* \"WallContract.sol\":6293:6314  bytes(country).length */\n      swap1\n      pop\n        /* \"WallContract.sol\":6293:6318  bytes(country).length > 0 */\n      gt\n        /* \"WallContract.sol\":6293:6344  bytes(country).length > 0 && bytes(city).length > 0 */\n      dup1\n      iszero\n      tag_275\n      jumpi\n      pop\n        /* \"WallContract.sol\":6343:6344  0 */\n      0x00\n        /* \"WallContract.sol\":6328:6332  city */\n      dup10\n      dup10\n        /* \"WallContract.sol\":6322:6340  bytes(city).length */\n      swap1\n      pop\n        /* \"WallContract.sol\":6322:6344  bytes(city).length > 0 */\n      gt\n        /* \"WallContract.sol\":6293:6344  bytes(country).length > 0 && bytes(city).length > 0 */\n    tag_275:\n        /* \"WallContract.sol\":6285:6370  require(bytes(country).length > 0 && bytes(city).length > 0, \"Invalid location data\") */\n      tag_276\n      jumpi\n      mload(0x40)\n      0x08c379a000000000000000000000000000000000000000000000000000000000\n      dup2\n      mstore\n      0x04\n      add\n      tag_277\n      swap1\n      tag_245\n      jump\t// in\n    tag_277:\n      mload(0x40)\n      dup1\n      swap2\n      sub\n      swap1\n      revert\n    tag_276:\n        /* \"WallContract.sol\":6396:6397  0 */\n      0x00\n        /* \"WallContract.sol\":6389:6393  size */\n      dup4\n        /* \"WallContract.sol\":6389:6397  size > 0 */\n      gt\n        /* \"WallContract.sol\":6381:6414  require(size > 0, \"Invalid size\") */\n      tag_278\n      jumpi\n      mload(0x40)\n      0x08c379a000000000000000000000000000000000000000000000000000000000\n      dup2\n      mstore\n      0x04\n      add\n      tag_279\n      swap1\n      tag_248\n      jump\t// in\n    tag_279:\n      mload(0x40)\n      dup1\n      swap2\n      sub\n      swap1\n      revert\n    tag_278:\n        /* \"WallContract.sol\":6427:6448  WallData storage wall */\n      0x00\n        /* \"WallContract.sol\":6451:6456  walls */\n      0x03\n        /* \"WallContract.sol\":6451:6464  walls[wallId] */\n      0x00\n        /* \"WallContract.sol\":6457:6463  wallId */\n      dup15\n        /* \"WallContract.sol\":6451:6464  walls[wallId] */\n      dup2\n      mstore\n      0x20\n      add\n      swap1\n      dup2\n      mstore\n      0x20\n      add\n      0x00\n      keccak256\n        /* \"WallContract.sol\":6427:6464  WallData storage wall = walls[wallId] */\n      swap1\n      pop\n        /* \"WallContract.sol\":6499:6506  country */\n      dup12\n      dup12\n        /* \"WallContract.sol\":6475:6479  wall */\n      dup3\n        /* \"WallContract.sol\":6475:6488  wall.location */\n      0x02\n      add\n        /* \"WallContract.sol\":6475:6496  wall.location.country */\n      0x00\n      add\n        /* \"WallContract.sol\":6475:6506  wall.location.country = country */\n      swap2\n      dup3\n      tag_280\n      swap3\n      swap2\n      swap1\n      tag_281\n      jump\t// in\n    tag_280:\n      pop\n        /* \"WallContract.sol\":6538:6542  city */\n      dup10\n      dup10\n        /* \"WallContract.sol\":6517:6521  wall */\n      dup3\n        /* \"WallContract.sol\":6517:6530  wall.location */\n      0x02\n      add\n        /* \"WallContract.sol\":6517:6535  wall.location.city */\n      0x01\n      add\n        /* \"WallContract.sol\":6517:6542  wall.location.city = city */\n      swap2\n      dup3\n      tag_282\n      swap3\n      swap2\n      swap1\n      tag_281\n      jump\t// in\n    tag_282:\n      pop\n        /* \"WallContract.sol\":6585:6600  physicalAddress */\n      dup8\n      dup8\n        /* \"WallContract.sol\":6553:6557  wall */\n      dup3\n        /* \"WallContract.sol\":6553:6566  wall.location */\n      0x02\n      add\n        /* \"WallContract.sol\":6553:6582  wall.location.physicalAddress */\n      0x02\n      add\n        /* \"WallContract.sol\":6553:6600  wall.location.physicalAddress = physicalAddress */\n      swap2\n      dup3\n      tag_283\n      swap3\n      swap2\n      swap1\n      tag_281\n      jump\t// in\n    tag_283:\n      pop\n        /* \"WallContract.sol\":6637:6646  longitude */\n      dup6\n        /* \"WallContract.sol\":6611:6615  wall */\n      dup2\n        /* \"WallContract.sol\":6611:6624  wall.location */\n      0x02\n      add\n        /* \"WallContract.sol\":6611:6634  wall.location.longitude */\n      0x03\n      add\n        /* \"WallContract.sol\":6611:6646  wall.location.longitude = longitude */\n      dup2\n      swap1\n      sstore\n      pop\n        /* \"WallContract.sol\":6682:6690  latitude */\n      dup5\n        /* \"WallContract.sol\":6657:6661  wall */\n      dup2\n        /* \"WallContract.sol\":6657:6670  wall.location */\n      0x02\n      add\n        /* \"WallContract.sol\":6657:6679  wall.location.latitude */\n      0x04\n      add\n        /* \"WallContract.sol\":6657:6690  wall.location.latitude = latitude */\n      dup2\n      swap1\n      sstore\n      pop\n        /* \"WallContract.sol\":6713:6717  size */\n      dup4\n        /* \"WallContract.sol\":6701:6705  wall */\n      dup2\n        /* \"WallContract.sol\":6701:6710  wall.size */\n      0x07\n      add\n        /* \"WallContract.sol\":6701:6717  wall.size = size */\n      dup2\n      swap1\n      sstore\n      pop\n        /* \"WallContract.sol\":6747:6762  block.timestamp */\n      timestamp\n        /* \"WallContract.sol\":6728:6732  wall */\n      dup2\n        /* \"WallContract.sol\":6728:6744  wall.lastUpdated */\n      0x0c\n      add\n        /* \"WallContract.sol\":6728:6762  wall.lastUpdated = block.timestamp */\n      dup2\n      swap1\n      sstore\n      pop\n        /* \"WallContract.sol\":6792:6798  wallId */\n      dup13\n        /* \"WallContract.sol\":6780:6799  WallUpdated(wallId) */\n      0xd62fa94c71eba8cfe5ab835190623c67e15149837fd0cd60c1c170a8f31439e3\n      mload(0x40)\n      mload(0x40)\n      dup1\n      swap2\n      sub\n      swap1\n      log2\n        /* \"WallContract.sol\":6274:6807  {... */\n      pop\n        /* \"WallContract.sol\":2599:2600  _ */\n      pop\n        /* \"WallContract.sol\":5975:6807  function updateWall(... */\n      pop\n      pop\n      pop\n      pop\n      pop\n      pop\n      pop\n      pop\n      pop\n      pop\n      pop\n      jump\t// out\n        /* \"WallContract.sol\":6815:7480  function transferWall(uint256 wallId, address newOwner) external ... */\n    tag_82:\n        /* \"WallContract.sol\":6901:6907  wallId */\n      dup2\n        /* \"WallContract.sol\":2562:2563  0 */\n      0x00\n        /* \"WallContract.sol\":2531:2564  walls[wallId].owner != address(0) */\n      0xffffffffffffffffffffffffffffffffffffffff\n      and\n        /* \"WallContract.sol\":2531:2536  walls */\n      0x03\n        /* \"WallContract.sol\":2531:2544  walls[wallId] */\n      0x00\n        /* \"WallContract.sol\":2537:2543  wallId */\n      dup4\n        /* \"WallContract.sol\":2531:2544  walls[wallId] */\n      dup2\n      mstore\n      0x20\n      add\n      swap1\n      dup2\n      mstore\n      0x20\n      add\n      0x00\n      keccak256\n        /* \"WallContract.sol\":2531:2550  walls[wallId].owner */\n      0x01\n      add\n      0x00\n      swap1\n      sload\n      swap1\n      0x0100\n      exp\n      swap1\n      div\n      0xffffffffffffffffffffffffffffffffffffffff\n      and\n        /* \"WallContract.sol\":2531:2564  walls[wallId].owner != address(0) */\n      0xffffffffffffffffffffffffffffffffffffffff\n      and\n      sub\n        /* \"WallContract.sol\":2523:2588  require(walls[wallId].owner != address(0), \"Wall does not exist\") */\n      tag_285\n      jumpi\n      mload(0x40)\n      0x08c379a000000000000000000000000000000000000000000000000000000000\n      dup2\n      mstore\n      0x04\n      add\n      tag_286\n      swap1\n      tag_109\n      jump\t// in\n    tag_286:\n      mload(0x40)\n      dup1\n      swap2\n      sub\n      swap1\n      revert\n    tag_285:\n        /* \"WallContract.sol\":6933:6939  wallId */\n      dup3\n        /* \"WallContract.sol\":2697:2707  msg.sender */\n      caller\n        /* \"WallContract.sol\":2674:2707  walls[wallId].owner == msg.sender */\n      0xffffffffffffffffffffffffffffffffffffffff\n      and\n        /* \"WallContract.sol\":2674:2679  walls */\n      0x03\n        /* \"WallContract.sol\":2674:2687  walls[wallId] */\n      0x00\n        /* \"WallContract.sol\":2680:2686  wallId */\n      dup4\n        /* \"WallContract.sol\":2674:2687  walls[wallId] */\n      dup2\n      mstore\n      0x20\n      add\n      swap1\n      dup2\n      mstore\n      0x20\n      add\n      0x00\n      keccak256\n        /* \"WallContract.sol\":2674:2693  walls[wallId].owner */\n      0x01\n      add\n      0x00\n      swap1\n      sload\n      swap1\n      0x0100\n      exp\n      swap1\n      div\n      0xffffffffffffffffffffffffffffffffffffffff\n      and\n        /* \"WallContract.sol\":2674:2707  walls[wallId].owner == msg.sender */\n      0xffffffffffffffffffffffffffffffffffffffff\n      and\n      eq\n        /* \"WallContract.sol\":2674:2786  walls[wallId].owner == msg.sender || ... */\n      dup1\n      tag_288\n      jumpi\n      pop\n        /* \"WallContract.sol\":2729:2740  roleManager */\n      0x01\n      0x00\n      swap1\n      sload\n      swap1\n      0x0100\n      exp\n      swap1\n      div\n      0xffffffffffffffffffffffffffffffffffffffff\n      and\n        /* \"WallContract.sol\":2729:2748  roleManager.hasRole */\n      0xffffffffffffffffffffffffffffffffffffffff\n      and\n      0x91d14854\n        /* \"WallContract.sol\":2749:2760  roleManager */\n      0x01\n      0x00\n      swap1\n      sload\n      swap1\n      0x0100\n      exp\n      swap1\n      div\n      0xffffffffffffffffffffffffffffffffffffffff\n      and\n        /* \"WallContract.sol\":2749:2771  roleManager.ADMIN_ROLE */\n      0xffffffffffffffffffffffffffffffffffffffff\n      and\n      0x75b238fc\n        /* \"WallContract.sol\":2749:2773  roleManager.ADMIN_ROLE() */\n      mload(0x40)\n      dup2\n      0xffffffff\n      and\n      0xe0\n      shl\n      dup2\n      mstore\n      0x04\n      add\n      0x20\n      mload(0x40)\n      dup1\n      dup4\n      sub\n      dup2\n      dup7\n      gas\n      staticcall\n      iszero\n      dup1\n      iszero\n      tag_290\n      jumpi\n      returndatasize\n      0x00\n      dup1\n      returndatacopy\n      revert(0x00, returndatasize)\n    tag_290:\n      pop\n      pop\n      pop\n      pop\n      mload(0x40)\n      returndatasize\n      not(0x1f)\n      0x1f\n      dup3\n      add\n      and\n      dup3\n      add\n      dup1\n      0x40\n      mstore\n      pop\n      dup2\n      add\n      swap1\n      tag_291\n      swap2\n      swap1\n      tag_115\n      jump\t// in\n    tag_291:\n        /* \"WallContract.sol\":2775:2785  msg.sender */\n      caller\n        /* \"WallContract.sol\":2729:2786  roleManager.hasRole(roleManager.ADMIN_ROLE(), msg.sender) */\n      mload(0x40)\n      dup4\n      0xffffffff\n      and\n      0xe0\n      shl\n      dup2\n      mstore\n      0x04\n      add\n      tag_292\n      swap3\n      swap2\n      swap1\n      tag_117\n      jump\t// in\n    tag_292:\n      0x20\n      mload(0x40)\n      dup1\n      dup4\n      sub\n      dup2\n      dup7\n      gas\n      staticcall\n      iszero\n      dup1\n      iszero\n      tag_294\n      jumpi\n      returndatasize\n      0x00\n      dup1\n      returndatacopy\n      revert(0x00, returndatasize)\n    tag_294:\n      pop\n      pop\n      pop\n      pop\n      mload(0x40)\n      returndatasize\n      not(0x1f)\n      0x1f\n      dup3\n      add\n      and\n      dup3\n      add\n      dup1\n      0x40\n      mstore\n      pop\n      dup2\n      add\n      swap1\n      tag_295\n      swap2\n      swap1\n      tag_121\n      jump\t// in\n    tag_295:\n        /* \"WallContract.sol\":2674:2786  walls[wallId].owner == msg.sender || ... */\n    tag_288:\n        /* \"WallContract.sol\":2666:2823  require(walls[wallId].owner == msg.sender || ... */\n      tag_296\n      jumpi\n      mload(0x40)\n      0x08c379a000000000000000000000000000000000000000000000000000000000\n      dup2\n      mstore\n      0x04\n      add\n      tag_297\n      swap1\n      tag_124\n      jump\t// in\n    tag_297:\n      mload(0x40)\n      dup1\n      swap2\n      sub\n      swap1\n      revert\n    tag_296:\n        /* \"@openzeppelin/contracts/security/Pausable.sol\":1239:1258  _requireNotPaused() */\n      tag_299\n        /* \"@openzeppelin/contracts/security/Pausable.sol\":1239:1256  _requireNotPaused */\n      tag_127\n        /* \"@openzeppelin/contracts/security/Pausable.sol\":1239:1258  _requireNotPaused() */\n      jump\t// in\n    tag_299:\n        /* \"WallContract.sol\":7009:7010  0 */\n      0x00\n        /* \"WallContract.sol\":6989:7011  newOwner != address(0) */\n      0xffffffffffffffffffffffffffffffffffffffff\n      and\n        /* \"WallContract.sol\":6989:6997  newOwner */\n      dup4\n        /* \"WallContract.sol\":6989:7011  newOwner != address(0) */\n      0xffffffffffffffffffffffffffffffffffffffff\n      and\n      sub\n        /* \"WallContract.sol\":6981:7033  require(newOwner != address(0), \"Invalid new owner\") */\n      tag_301\n      jumpi\n      mload(0x40)\n      0x08c379a000000000000000000000000000000000000000000000000000000000\n      dup2\n      mstore\n      0x04\n      add\n      tag_302\n      swap1\n      tag_303\n      jump\t// in\n    tag_302:\n      mload(0x40)\n      dup1\n      swap2\n      sub\n      swap1\n      revert\n    tag_301:\n        /* \"WallContract.sol\":7052:7063  roleManager */\n      0x01\n      0x00\n      swap1\n      sload\n      swap1\n      0x0100\n      exp\n      swap1\n      div\n      0xffffffffffffffffffffffffffffffffffffffff\n      and\n        /* \"WallContract.sol\":7052:7071  roleManager.hasRole */\n      0xffffffffffffffffffffffffffffffffffffffff\n      and\n      0x91d14854\n        /* \"WallContract.sol\":7072:7083  roleManager */\n      0x01\n      0x00\n      swap1\n      sload\n      swap1\n      0x0100\n      exp\n      swap1\n      div\n      0xffffffffffffffffffffffffffffffffffffffff\n      and\n        /* \"WallContract.sol\":7072:7099  roleManager.WALL_OWNER_ROLE */\n      0xffffffffffffffffffffffffffffffffffffffff\n      and\n      0x98e4abb5\n        /* \"WallContract.sol\":7072:7101  roleManager.WALL_OWNER_ROLE() */\n      mload(0x40)\n      dup2\n      0xffffffff\n      and\n      0xe0\n      shl\n      dup2\n      mstore\n      0x04\n      add\n      0x20\n      mload(0x40)\n      dup1\n      dup4\n      sub\n      dup2\n      dup7\n      gas\n      staticcall\n      iszero\n      dup1\n      iszero\n      tag_305\n      jumpi\n      returndatasize\n      0x00\n      dup1\n      returndatacopy\n      revert(0x00, returndatasize)\n    tag_305:\n      pop\n      pop\n      pop\n      pop\n      mload(0x40)\n      returndatasize\n      not(0x1f)\n      0x1f\n      dup3\n      add\n      and\n      dup3\n      add\n      dup1\n      0x40\n      mstore\n      pop\n      dup2\n      add\n      swap1\n      tag_306\n      swap2\n      swap1\n      tag_115\n      jump\t// in\n    tag_306:\n        /* \"WallContract.sol\":7103:7111  newOwner */\n      dup6\n        /* \"WallContract.sol\":7052:7112  roleManager.hasRole(roleManager.WALL_OWNER_ROLE(), newOwner) */\n      mload(0x40)\n      dup4\n      0xffffffff\n      and\n      0xe0\n      shl\n      dup2\n      mstore\n      0x04\n      add\n      tag_307\n      swap3\n      swap2\n      swap1\n      tag_117\n      jump\t// in\n    tag_307:\n      0x20\n      mload(0x40)\n      dup1\n      dup4\n      sub\n      dup2\n      dup7\n      gas\n      staticcall\n      iszero\n      dup1\n      iszero\n      tag_309\n      jumpi\n      returndatasize\n      0x00\n      dup1\n      returndatacopy\n      revert(0x00, returndatasize)\n    tag_309:\n      pop\n      pop\n      pop\n      pop\n      mload(0x40)\n      returndatasize\n      not(0x1f)\n      0x1f\n      dup3\n      add\n      and\n      dup3\n      add\n      dup1\n      0x40\n      mstore\n      pop\n      dup2\n      add\n      swap1\n      tag_310\n      swap2\n      swap1\n      tag_121\n      jump\t// in\n    tag_310:\n        /* \"WallContract.sol\":7044:7170  require(roleManager.hasRole(roleManager.WALL_OWNER_ROLE(), newOwner), ... */\n      tag_311\n      jumpi\n      mload(0x40)\n      0x08c379a000000000000000000000000000000000000000000000000000000000\n      dup2\n      mstore\n      0x04\n      add\n      tag_312\n      swap1\n      tag_313\n      jump\t// in\n    tag_312:\n      mload(0x40)\n      dup1\n      swap2\n      sub\n      swap1\n      revert\n    tag_311:\n        /* \"WallContract.sol\":7183:7199  address oldOwner */\n      0x00\n        /* \"WallContract.sol\":7202:7207  walls */\n      0x03\n        /* \"WallContract.sol\":7202:7215  walls[wallId] */\n      0x00\n        /* \"WallContract.sol\":7208:7214  wallId */\n      dup7\n        /* \"WallContract.sol\":7202:7215  walls[wallId] */\n      dup2\n      mstore\n      0x20\n      add\n      swap1\n      dup2\n      mstore\n      0x20\n      add\n      0x00\n      keccak256\n        /* \"WallContract.sol\":7202:7221  walls[wallId].owner */\n      0x01\n      add\n      0x00\n      swap1\n      sload\n      swap1\n      0x0100\n      exp\n      swap1\n      div\n      0xffffffffffffffffffffffffffffffffffffffff\n      and\n        /* \"WallContract.sol\":7183:7221  address oldOwner = walls[wallId].owner */\n      swap1\n      pop\n        /* \"WallContract.sol\":7254:7262  newOwner */\n      dup4\n        /* \"WallContract.sol\":7232:7237  walls */\n      0x03\n        /* \"WallContract.sol\":7232:7245  walls[wallId] */\n      0x00\n        /* \"WallContract.sol\":7238:7244  wallId */\n      dup8\n        /* \"WallContract.sol\":7232:7245  walls[wallId] */\n      dup2\n      mstore\n      0x20\n      add\n      swap1\n      dup2\n      mstore\n      0x20\n      add\n      0x00\n      keccak256\n        /* \"WallContract.sol\":7232:7251  walls[wallId].owner */\n      0x01\n      add\n      0x00\n        /* \"WallContract.sol\":7232:7262  walls[wallId].owner = newOwner */\n      0x0100\n      exp\n      dup2\n      sload\n      dup2\n      0xffffffffffffffffffffffffffffffffffffffff\n      mul\n      not\n      and\n      swap1\n      dup4\n      0xffffffffffffffffffffffffffffffffffffffff\n      and\n      mul\n      or\n      swap1\n      sstore\n      pop\n        /* \"WallContract.sol\":7301:7316  block.timestamp */\n      timestamp\n        /* \"WallContract.sol\":7273:7278  walls */\n      0x03\n        /* \"WallContract.sol\":7273:7286  walls[wallId] */\n      0x00\n        /* \"WallContract.sol\":7279:7285  wallId */\n      dup8\n        /* \"WallContract.sol\":7273:7286  walls[wallId] */\n      dup2\n      mstore\n      0x20\n      add\n      swap1\n      dup2\n      mstore\n      0x20\n      add\n      0x00\n      keccak256\n        /* \"WallContract.sol\":7273:7298  walls[wallId].lastUpdated */\n      0x0c\n      add\n        /* \"WallContract.sol\":7273:7316  walls[wallId].lastUpdated = block.timestamp */\n      dup2\n      swap1\n      sstore\n      pop\n        /* \"WallContract.sol\":7329:7367  _removeWallFromOwner(wallId, oldOwner) */\n      tag_314\n        /* \"WallContract.sol\":7350:7356  wallId */\n      dup6\n        /* \"WallContract.sol\":7358:7366  oldOwner */\n      dup3\n        /* \"WallContract.sol\":7329:7349  _removeWallFromOwner */\n      tag_315\n        /* \"WallContract.sol\":7329:7367  _removeWallFromOwner(wallId, oldOwner) */\n      jump\t// in\n    tag_314:\n        /* \"WallContract.sol\":7378:7388  ownerWalls */\n      0x05\n        /* \"WallContract.sol\":7378:7398  ownerWalls[newOwner] */\n      0x00\n        /* \"WallContract.sol\":7389:7397  newOwner */\n      dup6\n        /* \"WallContract.sol\":7378:7398  ownerWalls[newOwner] */\n      0xffffffffffffffffffffffffffffffffffffffff\n      and\n      0xffffffffffffffffffffffffffffffffffffffff\n      and\n      dup2\n      mstore\n      0x20\n      add\n      swap1\n      dup2\n      mstore\n      0x20\n      add\n      0x00\n      keccak256\n        /* \"WallContract.sol\":7404:7410  wallId */\n      dup6\n        /* \"WallContract.sol\":7378:7411  ownerWalls[newOwner].push(wallId) */\n      swap1\n      dup1\n      0x01\n      dup2\n      sload\n      add\n      dup1\n      dup3\n      sstore\n      dup1\n      swap2\n      pop\n      pop\n      0x01\n      swap1\n      sub\n      swap1\n      0x00\n      mstore\n      keccak256(0x00, 0x20)\n      add\n      0x00\n      swap1\n      swap2\n      swap1\n      swap2\n      swap1\n      swap2\n      pop\n      sstore\n        /* \"WallContract.sol\":7463:7471  newOwner */\n      dup4\n        /* \"WallContract.sol\":7429:7472  WallTransferred(wallId, oldOwner, newOwner) */\n      0xffffffffffffffffffffffffffffffffffffffff\n      and\n        /* \"WallContract.sol\":7453:7461  oldOwner */\n      dup2\n        /* \"WallContract.sol\":7429:7472  WallTransferred(wallId, oldOwner, newOwner) */\n      0xffffffffffffffffffffffffffffffffffffffff\n      and\n        /* \"WallContract.sol\":7445:7451  wallId */\n      dup7\n        /* \"WallContract.sol\":7429:7472  WallTransferred(wallId, oldOwner, newOwner) */\n      0xa54354750c707642a038f4ac683faa206a3649a6c35a44f9640d34d20578b15b\n      mload(0x40)\n      mload(0x40)\n      dup1\n      swap2\n      sub\n      swap1\n      log4\n        /* \"WallContract.sol\":6970:7480  {... */\n      pop\n        /* \"WallContract.sol\":2599:2600  _ */\n      pop\n        /* \"WallContract.sol\":6815:7480  function transferWall(uint256 wallId, address newOwner) external ... */\n      pop\n      pop\n      pop\n      jump\t// out\n        /* \"WallContract.sol\":4504:5554  function approveWallRequest(uint256 requestId) external onlyAdmin whenNotPaused {... */\n    tag_85:\n        /* \"WallContract.sol\":2364:2375  roleManager */\n      0x01\n      0x00\n      swap1\n      sload\n      swap1\n      0x0100\n      exp\n      swap1\n      div\n      0xffffffffffffffffffffffffffffffffffffffff\n      and\n        /* \"WallContract.sol\":2364:2383  roleManager.hasRole */\n      0xffffffffffffffffffffffffffffffffffffffff\n      and\n      0x91d14854\n        /* \"WallContract.sol\":2384:2395  roleManager */\n      0x01\n      0x00\n      swap1\n      sload\n      swap1\n      0x0100\n      exp\n      swap1\n      div\n      0xffffffffffffffffffffffffffffffffffffffff\n      and\n        /* \"WallContract.sol\":2384:2406  roleManager.ADMIN_ROLE */\n      0xffffffffffffffffffffffffffffffffffffffff\n      and\n      0x75b238fc\n        /* \"WallContract.sol\":2384:2408  roleManager.ADMIN_ROLE() */\n      mload(0x40)\n      dup2\n      0xffffffff\n      and\n      0xe0\n      shl\n      dup2\n      mstore\n      0x04\n      add\n      0x20\n      mload(0x40)\n      dup1\n      dup4\n      sub\n      dup2\n      dup7\n      gas\n      staticcall\n      iszero\n      dup1\n      iszero\n      tag_319\n      jumpi\n      returndatasize\n      0x00\n      dup1\n      returndatacopy\n      revert(0x00, returndatasize)\n    tag_319:\n      pop\n      pop\n      pop\n      pop\n      mload(0x40)\n      returndatasize\n      not(0x1f)\n      0x1f\n      dup3\n      add\n      and\n      dup3\n      add\n      dup1\n      0x40\n      mstore\n      pop\n      dup2\n      add\n      swap1\n      tag_320\n      swap2\n      swap1\n      tag_115\n      jump\t// in\n    tag_320:\n        /* \"WallContract.sol\":2410:2420  msg.sender */\n      caller\n        /* \"WallContract.sol\":2364:2421  roleManager.hasRole(roleManager.ADMIN_ROLE(), msg.sender) */\n      mload(0x40)\n      dup4\n      0xffffffff\n      and\n      0xe0\n      shl\n      dup2\n      mstore\n      0x04\n      add\n      tag_321\n      swap3\n      swap2\n      swap1\n      tag_117\n      jump\t// in\n    tag_321:\n      0x20\n      mload(0x40)\n      dup1\n      dup4\n      sub\n      dup2\n      dup7\n      gas\n      staticcall\n      iszero\n      dup1\n      iszero\n      tag_323\n      jumpi\n      returndatasize\n      0x00\n      dup1\n      returndatacopy\n      revert(0x00, returndatasize)\n    tag_323:\n      pop\n      pop\n      pop\n      pop\n      mload(0x40)\n      returndatasize\n      not(0x1f)\n      0x1f\n      dup3\n      add\n      and\n      dup3\n      add\n      dup1\n      0x40\n      mstore\n      pop\n      dup2\n      add\n      swap1\n      tag_324\n      swap2\n      swap1\n      tag_121\n      jump\t// in\n    tag_324:\n        /* \"WallContract.sol\":2356:2448  require(roleManager.hasRole(roleManager.ADMIN_ROLE(), msg.sender), \"Caller is not an admin\") */\n      tag_325\n      jumpi\n      mload(0x40)\n      0x08c379a000000000000000000000000000000000000000000000000000000000\n      dup2\n      mstore\n      0x04\n      add\n      tag_326\n      swap1\n      tag_143\n      jump\t// in\n    tag_326:\n      mload(0x40)\n      dup1\n      swap2\n      sub\n      swap1\n      revert\n    tag_325:\n        /* \"@openzeppelin/contracts/security/Pausable.sol\":1239:1258  _requireNotPaused() */\n      tag_328\n        /* \"@openzeppelin/contracts/security/Pausable.sol\":1239:1256  _requireNotPaused */\n      tag_127\n        /* \"@openzeppelin/contracts/security/Pausable.sol\":1239:1258  _requireNotPaused() */\n      jump\t// in\n    tag_328:\n        /* \"WallContract.sol\":4595:4622  WallRequest storage request */\n      0x00\n        /* \"WallContract.sol\":4625:4637  wallRequests */\n      0x04\n        /* \"WallContract.sol\":4625:4648  wallRequests[requestId] */\n      0x00\n        /* \"WallContract.sol\":4638:4647  requestId */\n      dup4\n        /* \"WallContract.sol\":4625:4648  wallRequests[requestId] */\n      dup2\n      mstore\n      0x20\n      add\n      swap1\n      dup2\n      mstore\n      0x20\n      add\n      0x00\n      keccak256\n        /* \"WallContract.sol\":4595:4648  WallRequest storage request = wallRequests[requestId] */\n      swap1\n      pop\n        /* \"WallContract.sol\":4667:4674  request */\n      dup1\n        /* \"WallContract.sol\":4667:4682  request.pending */\n      0x08\n      add\n      0x00\n      swap1\n      sload\n      swap1\n      0x0100\n      exp\n      swap1\n      div\n      0xff\n      and\n        /* \"WallContract.sol\":4659:4706  require(request.pending, \"Request not pending\") */\n      tag_330\n      jumpi\n      mload(0x40)\n      0x08c379a000000000000000000000000000000000000000000000000000000000\n      dup2\n      mstore\n      0x04\n      add\n      tag_331\n      swap1\n      tag_332\n      jump\t// in\n    tag_331:\n      mload(0x40)\n      dup1\n      swap2\n      sub\n      swap1\n      revert\n    tag_330:\n        /* \"WallContract.sol\":4735:4746  roleManager */\n      0x01\n      0x00\n      swap1\n      sload\n      swap1\n      0x0100\n      exp\n      swap1\n      div\n      0xffffffffffffffffffffffffffffffffffffffff\n      and\n        /* \"WallContract.sol\":4735:4754  roleManager.hasRole */\n      0xffffffffffffffffffffffffffffffffffffffff\n      and\n      0x91d14854\n        /* \"WallContract.sol\":4755:4766  roleManager */\n      0x01\n      0x00\n      swap1\n      sload\n      swap1\n      0x0100\n      exp\n      swap1\n      div\n      0xffffffffffffffffffffffffffffffffffffffff\n      and\n        /* \"WallContract.sol\":4755:4782  roleManager.WALL_OWNER_ROLE */\n      0xffffffffffffffffffffffffffffffffffffffff\n      and\n      0x98e4abb5\n        /* \"WallContract.sol\":4755:4784  roleManager.WALL_OWNER_ROLE() */\n      mload(0x40)\n      dup2\n      0xffffffff\n      and\n      0xe0\n      shl\n      dup2\n      mstore\n      0x04\n      add\n      0x20\n      mload(0x40)\n      dup1\n      dup4\n      sub\n      dup2\n      dup7\n      gas\n      staticcall\n      iszero\n      dup1\n      iszero\n      tag_334\n      jumpi\n      returndatasize\n      0x00\n      dup1\n      returndatacopy\n      revert(0x00, returndatasize)\n    tag_334:\n      pop\n      pop\n      pop\n      pop\n      mload(0x40)\n      returndatasize\n      not(0x1f)\n      0x1f\n      dup3\n      add\n      and\n      dup3\n      add\n      dup1\n      0x40\n      mstore\n      pop\n      dup2\n      add\n      swap1\n      tag_335\n      swap2\n      swap1\n      tag_115\n      jump\t// in\n    tag_335:\n        /* \"WallContract.sol\":4786:4793  request */\n      dup4\n        /* \"WallContract.sol\":4786:4803  request.requester */\n      0x00\n      add\n      0x00\n      swap1\n      sload\n      swap1\n      0x0100\n      exp\n      swap1\n      div\n      0xffffffffffffffffffffffffffffffffffffffff\n      and\n        /* \"WallContract.sol\":4735:4804  roleManager.hasRole(roleManager.WALL_OWNER_ROLE(), request.requester) */\n      mload(0x40)\n      dup4\n      0xffffffff\n      and\n      0xe0\n      shl\n      dup2\n      mstore\n      0x04\n      add\n      tag_336\n      swap3\n      swap2\n      swap1\n      tag_117\n      jump\t// in\n    tag_336:\n      0x20\n      mload(0x40)\n      dup1\n      dup4\n      sub\n      dup2\n      dup7\n      gas\n      staticcall\n      iszero\n      dup1\n      iszero\n      tag_338\n      jumpi\n      returndatasize\n      0x00\n      dup1\n      returndatacopy\n      revert(0x00, returndatasize)\n    tag_338:\n      pop\n      pop\n      pop\n      pop\n      mload(0x40)\n      returndatasize\n      not(0x1f)\n      0x1f\n      dup3\n      add\n      and\n      dup3\n      add\n      dup1\n      0x40\n      mstore\n      pop\n      dup2\n      add\n      swap1\n      tag_339\n      swap2\n      swap1\n      tag_121\n      jump\t// in\n    tag_339:\n        /* \"WallContract.sol\":4727:4866  require(roleManager.hasRole(roleManager.WALL_OWNER_ROLE(), request.requester), ... */\n      tag_340\n      jumpi\n      mload(0x40)\n      0x08c379a000000000000000000000000000000000000000000000000000000000\n      dup2\n      mstore\n      0x04\n      add\n      tag_341\n      swap1\n      tag_342\n      jump\t// in\n    tag_341:\n      mload(0x40)\n      dup1\n      swap2\n      sub\n      swap1\n      revert\n    tag_340:\n        /* \"WallContract.sol\":4897:4902  false */\n      0x00\n        /* \"WallContract.sol\":4879:4886  request */\n      dup2\n        /* \"WallContract.sol\":4879:4894  request.pending */\n      0x08\n      add\n      0x00\n        /* \"WallContract.sol\":4879:4902  request.pending = false */\n      0x0100\n      exp\n      dup2\n      sload\n      dup2\n      0xff\n      mul\n      not\n      and\n      swap1\n      dup4\n      iszero\n      iszero\n      mul\n      or\n      swap1\n      sstore\n      pop\n        /* \"WallContract.sol\":4932:4936  true */\n      0x01\n        /* \"WallContract.sol\":4913:4920  request */\n      dup2\n        /* \"WallContract.sol\":4913:4929  request.approved */\n      0x08\n      add\n      0x01\n        /* \"WallContract.sol\":4913:4936  request.approved = true */\n      0x0100\n      exp\n      dup2\n      sload\n      dup2\n      0xff\n      mul\n      not\n      and\n      swap1\n      dup4\n      iszero\n      iszero\n      mul\n      or\n      swap1\n      sstore\n      pop\n        /* \"WallContract.sol\":4949:4972  WallData memory newWall */\n      0x00\n        /* \"WallContract.sol\":4975:5344  WallData({... */\n      mload(0x40)\n      dup1\n      0x0120\n      add\n      0x40\n      mstore\n      dup1\n        /* \"WallContract.sol\":5003:5012  requestId */\n      dup5\n        /* \"WallContract.sol\":4975:5344  WallData({... */\n      dup2\n      mstore\n      0x20\n      add\n        /* \"WallContract.sol\":5034:5041  request */\n      dup4\n        /* \"WallContract.sol\":5034:5051  request.requester */\n      0x00\n      add\n      0x00\n      swap1\n      sload\n      swap1\n      0x0100\n      exp\n      swap1\n      div\n      0xffffffffffffffffffffffffffffffffffffffff\n      and\n        /* \"WallContract.sol\":4975:5344  WallData({... */\n      0xffffffffffffffffffffffffffffffffffffffff\n      and\n      dup2\n      mstore\n      0x20\n      add\n        /* \"WallContract.sol\":5076:5083  request */\n      dup4\n        /* \"WallContract.sol\":5076:5092  request.location */\n      0x01\n      add\n        /* \"WallContract.sol\":4975:5344  WallData({... */\n      mload(0x40)\n      dup1\n      0xa0\n      add\n      0x40\n      mstore\n      swap1\n      dup2\n      0x00\n      dup3\n      add\n      dup1\n      sload\n      tag_343\n      swap1\n      tag_162\n      jump\t// in\n    tag_343:\n      dup1\n      0x1f\n      add\n      0x20\n      dup1\n      swap2\n      div\n      mul\n      0x20\n      add\n      mload(0x40)\n      swap1\n      dup2\n      add\n      0x40\n      mstore\n      dup1\n      swap3\n      swap2\n      swap1\n      dup2\n      dup2\n      mstore\n      0x20\n      add\n      dup3\n      dup1\n      sload\n      tag_344\n      swap1\n      tag_162\n      jump\t// in\n    tag_344:\n      dup1\n      iszero\n      tag_345\n      jumpi\n      dup1\n      0x1f\n      lt\n      tag_346\n      jumpi\n      0x0100\n      dup1\n      dup4\n      sload\n      div\n      mul\n      dup4\n      mstore\n      swap2\n      0x20\n      add\n      swap2\n      jump(tag_345)\n    tag_346:\n      dup3\n      add\n      swap2\n      swap1\n      0x00\n      mstore\n      keccak256(0x00, 0x20)\n      swap1\n    tag_347:\n      dup2\n      sload\n      dup2\n      mstore\n      swap1\n      0x01\n      add\n      swap1\n      0x20\n      add\n      dup1\n      dup4\n      gt\n      tag_347\n      jumpi\n      dup3\n      swap1\n      sub\n      0x1f\n      and\n      dup3\n      add\n      swap2\n    tag_345:\n      pop\n      pop\n      pop\n      pop\n      pop\n      dup2\n      mstore\n      0x20\n      add\n      0x01\n      dup3\n      add\n      dup1\n      sload\n      tag_348\n      swap1\n      tag_162\n      jump\t// in\n    tag_348:\n      dup1\n      0x1f\n      add\n      0x20\n      dup1\n      swap2\n      div\n      mul\n      0x20\n      add\n      mload(0x40)\n      swap1\n      dup2\n      add\n      0x40\n      mstore\n      dup1\n      swap3\n      swap2\n      swap1\n      dup2\n      dup2\n      mstore\n      0x20\n      add\n      dup3\n      dup1\n      sload\n      tag_349\n      swap1\n      tag_162\n      jump\t// in\n    tag_349:\n      dup1\n      iszero\n      tag_350\n      jumpi\n      dup1\n      0x1f\n      lt\n      tag_351\n      jumpi\n      0x0100\n      dup1\n      dup4\n      sload\n      div\n      mul\n      dup4\n      mstore\n      swap2\n      0x20\n      add\n      swap2\n      jump(tag_350)\n    tag_351:\n      dup3\n      add\n      swap2\n      swap1\n      0x00\n      mstore\n      keccak256(0x00, 0x20)\n      swap1\n    tag_352:\n      dup2\n      sload\n      dup2\n      mstore\n      swap1\n      0x01\n      add\n      swap1\n      0x20\n      add\n      dup1\n      dup4\n      gt\n      tag_352\n      jumpi\n      dup3\n      swap1\n      sub\n      0x1f\n      and\n      dup3\n      add\n      swap2\n    tag_350:\n      pop\n      pop\n      pop\n      pop\n      pop\n      dup2\n      mstore\n      0x20\n      add\n      0x02\n      dup3\n      add\n      dup1\n      sload\n      tag_353\n      swap1\n      tag_162\n      jump\t// in\n    tag_353:\n      dup1\n      0x1f\n      add\n      0x20\n      dup1\n      swap2\n      div\n      mul\n      0x20\n      add\n      mload(0x40)\n      swap1\n      dup2\n      add\n      0x40\n      mstore\n      dup1\n      swap3\n      swap2\n      swap1\n      dup2\n      dup2\n      mstore\n      0x20\n      add\n      dup3\n      dup1\n      sload\n      tag_354\n      swap1\n      tag_162\n      jump\t// in\n    tag_354:\n      dup1\n      iszero\n      tag_355\n      jumpi\n      dup1\n      0x1f\n      lt\n      tag_356\n      jumpi\n      0x0100\n      dup1\n      dup4\n      sload\n      div\n      mul\n      dup4\n      mstore\n      swap2\n      0x20\n      add\n      swap2\n      jump(tag_355)\n    tag_356:\n      dup3\n      add\n      swap2\n      swap1\n      0x00\n      mstore\n      keccak256(0x00, 0x20)\n      swap1\n    tag_357:\n      dup2\n      sload\n      dup2\n      mstore\n      swap1\n      0x01\n      add\n      swap1\n      0x20\n      add\n      dup1\n      dup4\n      gt\n      tag_357\n      jumpi\n      dup3\n      swap1\n      sub\n      0x1f\n      and\n      dup3\n      add\n      swap2\n    tag_355:\n      pop\n      pop\n      pop\n      pop\n      pop\n      dup2\n      mstore\n      0x20\n      add\n      0x03\n      dup3\n      add\n      sload\n      dup2\n      mstore\n      0x20\n      add\n      0x04\n      dup3\n      add\n      sload\n      dup2\n      mstore\n      pop\n      pop\n      dup2\n      mstore\n      0x20\n      add\n        /* \"WallContract.sol\":5113:5120  request */\n      dup4\n        /* \"WallContract.sol\":5113:5125  request.size */\n      0x06\n      add\n      sload\n        /* \"WallContract.sol\":4975:5344  WallData({... */\n      dup2\n      mstore\n      0x20\n      add\n        /* \"WallContract.sol\":5161:5168  request */\n      dup4\n        /* \"WallContract.sol\":5161:5188  request.ownershipPercentage */\n      0x07\n      add\n      sload\n        /* \"WallContract.sol\":4975:5344  WallData({... */\n      dup2\n      mstore\n      0x20\n      add\n        /* \"WallContract.sol\":5216:5221  false */\n      0x00\n        /* \"WallContract.sol\":4975:5344  WallData({... */\n      iszero\n      iszero\n      dup2\n      mstore\n      0x20\n      add\n        /* \"WallContract.sol\":5247:5248  0 */\n      0x00\n        /* \"WallContract.sol\":4975:5344  WallData({... */\n      dup2\n      mstore\n      0x20\n      add\n        /* \"WallContract.sol\":5274:5289  block.timestamp */\n      timestamp\n        /* \"WallContract.sol\":4975:5344  WallData({... */\n      dup2\n      mstore\n      0x20\n      add\n        /* \"WallContract.sol\":5317:5332  block.timestamp */\n      timestamp\n        /* \"WallContract.sol\":4975:5344  WallData({... */\n      dup2\n      mstore\n      pop\n        /* \"WallContract.sol\":4949:5344  WallData memory newWall = WallData({... */\n      swap1\n      pop\n        /* \"WallContract.sol\":5376:5383  newWall */\n      dup1\n        /* \"WallContract.sol\":5357:5362  walls */\n      0x03\n        /* \"WallContract.sol\":5357:5373  walls[requestId] */\n      0x00\n        /* \"WallContract.sol\":5363:5372  requestId */\n      dup6\n        /* \"WallContract.sol\":5357:5373  walls[requestId] */\n      dup2\n      mstore\n      0x20\n      add\n      swap1\n      dup2\n      mstore\n      0x20\n      add\n      0x00\n      keccak256\n        /* \"WallContract.sol\":5357:5383  walls[requestId] = newWall */\n      0x00\n      dup3\n      add\n      mload\n      dup2\n      0x00\n      add\n      sstore\n      0x20\n      dup3\n      add\n      mload\n      dup2\n      0x01\n      add\n      exp(0x0100, 0x00)\n      dup2\n      sload\n      dup2\n      0xffffffffffffffffffffffffffffffffffffffff\n      mul\n      not\n      and\n      swap1\n      dup4\n      0xffffffffffffffffffffffffffffffffffffffff\n      and\n      mul\n      or\n      swap1\n      sstore\n      pop\n      0x40\n      dup3\n      add\n      mload\n      dup2\n      0x02\n      add\n      0x00\n      dup3\n      add\n      mload\n      dup2\n      0x00\n      add\n      swap1\n      dup2\n      tag_358\n      swap2\n      swap1\n      tag_254\n      jump\t// in\n    tag_358:\n      pop\n      0x20\n      dup3\n      add\n      mload\n      dup2\n      0x01\n      add\n      swap1\n      dup2\n      tag_359\n      swap2\n      swap1\n      tag_254\n      jump\t// in\n    tag_359:\n      pop\n      0x40\n      dup3\n      add\n      mload\n      dup2\n      0x02\n      add\n      swap1\n      dup2\n      tag_360\n      swap2\n      swap1\n      tag_254\n      jump\t// in\n    tag_360:\n      pop\n      0x60\n      dup3\n      add\n      mload\n      dup2\n      0x03\n      add\n      sstore\n      0x80\n      dup3\n      add\n      mload\n      dup2\n      0x04\n      add\n      sstore\n      pop\n      pop\n      0x60\n      dup3\n      add\n      mload\n      dup2\n      0x07\n      add\n      sstore\n      0x80\n      dup3\n      add\n      mload\n      dup2\n      0x08\n      add\n      sstore\n      0xa0\n      dup3\n      add\n      mload\n      dup2\n      0x09\n      add\n      exp(0x0100, 0x00)\n      dup2\n      sload\n      dup2\n      0xff\n      mul\n      not\n      and\n      swap1\n      dup4\n      iszero\n      iszero\n      mul\n      or\n      swap1\n      sstore\n      pop\n      0xc0\n      dup3\n      add\n      mload\n      dup2\n      0x0a\n      add\n      sstore\n      0xe0\n      dup3\n      add\n      mload\n      dup2\n      0x0b\n      add\n      sstore\n      0x0100\n      dup3\n      add\n      mload\n      dup2\n      0x0c\n      add\n      sstore\n      swap1\n      pop\n      pop\n        /* \"WallContract.sol\":5394:5404  ownerWalls */\n      0x05\n        /* \"WallContract.sol\":5394:5423  ownerWalls[request.requester] */\n      0x00\n        /* \"WallContract.sol\":5405:5412  request */\n      dup4\n        /* \"WallContract.sol\":5405:5422  request.requester */\n      0x00\n      add\n      0x00\n      swap1\n      sload\n      swap1\n      0x0100\n      exp\n      swap1\n      div\n      0xffffffffffffffffffffffffffffffffffffffff\n      and\n        /* \"WallContract.sol\":5394:5423  ownerWalls[request.requester] */\n      0xffffffffffffffffffffffffffffffffffffffff\n      and\n      0xffffffffffffffffffffffffffffffffffffffff\n      and\n      dup2\n      mstore\n      0x20\n      add\n      swap1\n      dup2\n      mstore\n      0x20\n      add\n      0x00\n      keccak256\n        /* \"WallContract.sol\":5429:5438  requestId */\n      dup4\n        /* \"WallContract.sol\":5394:5439  ownerWalls[request.requester].push(requestId) */\n      swap1\n      dup1\n      0x01\n      dup2\n      sload\n      add\n      dup1\n      dup3\n      sstore\n      dup1\n      swap2\n      pop\n      pop\n      0x01\n      swap1\n      sub\n      swap1\n      0x00\n      mstore\n      keccak256(0x00, 0x20)\n      add\n      0x00\n      swap1\n      swap2\n      swap1\n      swap2\n      swap1\n      swap2\n      pop\n      sstore\n        /* \"WallContract.sol\":5450:5487  _removeFromPendingRequests(requestId) */\n      tag_362\n        /* \"WallContract.sol\":5477:5486  requestId */\n      dup4\n        /* \"WallContract.sol\":5450:5476  _removeFromPendingRequests */\n      tag_363\n        /* \"WallContract.sol\":5450:5487  _removeFromPendingRequests(requestId) */\n      jump\t// in\n    tag_362:\n        /* \"WallContract.sol\":5536:5545  requestId */\n      dup3\n        /* \"WallContract.sol\":5525:5534  requestId */\n      dup4\n        /* \"WallContract.sol\":5505:5546  WallRequestApproved(requestId, requestId) */\n      0x9f590c35d933762074155ff5a113fc98b6f567020152980d42abc18fbff30e93\n      mload(0x40)\n      mload(0x40)\n      dup1\n      swap2\n      sub\n      swap1\n      log3\n        /* \"WallContract.sol\":4584:5554  {... */\n      pop\n      pop\n        /* \"WallContract.sol\":4504:5554  function approveWallRequest(uint256 requestId) external onlyAdmin whenNotPaused {... */\n      pop\n      jump\t// out\n        /* \"WallContract.sol\":7978:8419  function setGalleryStatus(uint256 wallId, uint256 galleryId, bool inGallery) ... */\n    tag_89:\n        /* \"WallContract.sol\":8095:8101  wallId */\n      dup3\n        /* \"WallContract.sol\":2562:2563  0 */\n      0x00\n        /* \"WallContract.sol\":2531:2564  walls[wallId].owner != address(0) */\n      0xffffffffffffffffffffffffffffffffffffffff\n      and\n        /* \"WallContract.sol\":2531:2536  walls */\n      0x03\n        /* \"WallContract.sol\":2531:2544  walls[wallId] */\n      0x00\n        /* \"WallContract.sol\":2537:2543  wallId */\n      dup4\n        /* \"WallContract.sol\":2531:2544  walls[wallId] */\n      dup2\n      mstore\n      0x20\n      add\n      swap1\n      dup2\n      mstore\n      0x20\n      add\n      0x00\n      keccak256\n        /* \"WallContract.sol\":2531:2550  walls[wallId].owner */\n      0x01\n      add\n      0x00\n      swap1\n      sload\n      swap1\n      0x0100\n      exp\n      swap1\n      div\n      0xffffffffffffffffffffffffffffffffffffffff\n      and\n        /* \"WallContract.sol\":2531:2564  walls[wallId].owner != address(0) */\n      0xffffffffffffffffffffffffffffffffffffffff\n      and\n      sub\n        /* \"WallContract.sol\":2523:2588  require(walls[wallId].owner != address(0), \"Wall does not exist\") */\n      tag_365\n      jumpi\n      mload(0x40)\n      0x08c379a000000000000000000000000000000000000000000000000000000000\n      dup2\n      mstore\n      0x04\n      add\n      tag_366\n      swap1\n      tag_109\n      jump\t// in\n    tag_366:\n      mload(0x40)\n      dup1\n      swap2\n      sub\n      swap1\n      revert\n    tag_365:\n        /* \"WallContract.sol\":8141:8156  galleryContract */\n      0x00\n      0x01\n      swap1\n      sload\n      swap1\n      0x0100\n      exp\n      swap1\n      div\n      0xffffffffffffffffffffffffffffffffffffffff\n      and\n        /* \"WallContract.sol\":8127:8156  msg.sender == galleryContract */\n      0xffffffffffffffffffffffffffffffffffffffff\n      and\n        /* \"WallContract.sol\":8127:8137  msg.sender */\n      caller\n        /* \"WallContract.sol\":8127:8156  msg.sender == galleryContract */\n      0xffffffffffffffffffffffffffffffffffffffff\n      and\n      eq\n        /* \"WallContract.sol\":8119:8191  require(msg.sender == galleryContract, \"Only gallery contract can call\") */\n      tag_368\n      jumpi\n      mload(0x40)\n      0x08c379a000000000000000000000000000000000000000000000000000000000\n      dup2\n      mstore\n      0x04\n      add\n      tag_369\n      swap1\n      tag_370\n      jump\t// in\n    tag_369:\n      mload(0x40)\n      dup1\n      swap2\n      sub\n      swap1\n      revert\n    tag_368:\n        /* \"WallContract.sol\":8230:8239  inGallery */\n      dup2\n        /* \"WallContract.sol\":8202:8207  walls */\n      0x03\n        /* \"WallContract.sol\":8202:8215  walls[wallId] */\n      0x00\n        /* \"WallContract.sol\":8208:8214  wallId */\n      dup7\n        /* \"WallContract.sol\":8202:8215  walls[wallId] */\n      dup2\n      mstore\n      0x20\n      add\n      swap1\n      dup2\n      mstore\n      0x20\n      add\n      0x00\n      keccak256\n        /* \"WallContract.sol\":8202:8227  walls[wallId].isInGallery */\n      0x09\n      add\n      0x00\n        /* \"WallContract.sol\":8202:8239  walls[wallId].isInGallery = inGallery */\n      0x0100\n      exp\n      dup2\n      sload\n      dup2\n      0xff\n      mul\n      not\n      and\n      swap1\n      dup4\n      iszero\n      iszero\n      mul\n      or\n      swap1\n      sstore\n      pop\n        /* \"WallContract.sol\":8276:8285  galleryId */\n      dup3\n        /* \"WallContract.sol\":8250:8255  walls */\n      0x03\n        /* \"WallContract.sol\":8250:8263  walls[wallId] */\n      0x00\n        /* \"WallContract.sol\":8256:8262  wallId */\n      dup7\n        /* \"WallContract.sol\":8250:8263  walls[wallId] */\n      dup2\n      mstore\n      0x20\n      add\n      swap1\n      dup2\n      mstore\n      0x20\n      add\n      0x00\n      keccak256\n        /* \"WallContract.sol\":8250:8273  walls[wallId].galleryId */\n      0x0a\n      add\n        /* \"WallContract.sol\":8250:8285  walls[wallId].galleryId = galleryId */\n      dup2\n      swap1\n      sstore\n      pop\n        /* \"WallContract.sol\":8324:8339  block.timestamp */\n      timestamp\n        /* \"WallContract.sol\":8296:8301  walls */\n      0x03\n        /* \"WallContract.sol\":8296:8309  walls[wallId] */\n      0x00\n        /* \"WallContract.sol\":8302:8308  wallId */\n      dup7\n        /* \"WallContract.sol\":8296:8309  walls[wallId] */\n      dup2\n      mstore\n      0x20\n      add\n      swap1\n      dup2\n      mstore\n      0x20\n      add\n      0x00\n      keccak256\n        /* \"WallContract.sol\":8296:8321  walls[wallId].lastUpdated */\n      0x0c\n      add\n        /* \"WallContract.sol\":8296:8339  walls[wallId].lastUpdated = block.timestamp */\n      dup2\n      swap1\n      sstore\n      pop\n        /* \"WallContract.sol\":8390:8399  galleryId */\n      dup3\n        /* \"WallContract.sol\":8382:8388  wallId */\n      dup5\n        /* \"WallContract.sol\":8357:8411  WallGalleryStatusUpdated(wallId, galleryId, inGallery) */\n      0x9f3fb7f30a7a75bcbe64925ea9cecb8a7dca5096c4174d2a843abba66ac6c967\n        /* \"WallContract.sol\":8401:8410  inGallery */\n      dup5\n        /* \"WallContract.sol\":8357:8411  WallGalleryStatusUpdated(wallId, galleryId, inGallery) */\n      mload(0x40)\n      tag_371\n      swap2\n      swap1\n      tag_54\n      jump\t// in\n    tag_371:\n      mload(0x40)\n      dup1\n      swap2\n      sub\n      swap1\n      log3\n        /* \"WallContract.sol\":7978:8419  function setGalleryStatus(uint256 wallId, uint256 galleryId, bool inGallery) ... */\n      pop\n      pop\n      pop\n      pop\n      jump\t// out\n        /* \"WallContract.sol\":1429:1465  uint256[] public pendingWallRequests */\n    tag_92:\n      0x06\n      dup2\n      dup2\n      sload\n      dup2\n      lt\n      tag_372\n      jumpi\n      0x00\n      dup1\n      revert\n    tag_372:\n      swap1\n      0x00\n      mstore\n      keccak256(0x00, 0x20)\n      add\n      0x00\n      swap2\n      pop\n      swap1\n      pop\n      sload\n      dup2\n      jump\t// out\n        /* \"WallContract.sol\":8589:8713  function getWallsByOwner(address owner) external view returns (uint256[] memory) {... */\n    tag_96:\n        /* \"WallContract.sol\":8652:8668  uint256[] memory */\n      0x60\n        /* \"WallContract.sol\":8688:8698  ownerWalls */\n      0x05\n        /* \"WallContract.sol\":8688:8705  ownerWalls[owner] */\n      0x00\n        /* \"WallContract.sol\":8699:8704  owner */\n      dup4\n        /* \"WallContract.sol\":8688:8705  ownerWalls[owner] */\n      0xffffffffffffffffffffffffffffffffffffffff\n      and\n      0xffffffffffffffffffffffffffffffffffffffff\n      and\n      dup2\n      mstore\n      0x20\n      add\n      swap1\n      dup2\n      mstore\n      0x20\n      add\n      0x00\n      keccak256\n        /* \"WallContract.sol\":8681:8705  return ownerWalls[owner] */\n      dup1\n      sload\n      dup1\n      0x20\n      mul\n      0x20\n      add\n      mload(0x40)\n      swap1\n      dup2\n      add\n      0x40\n      mstore\n      dup1\n      swap3\n      swap2\n      swap1\n      dup2\n      dup2\n      mstore\n      0x20\n      add\n      dup3\n      dup1\n      sload\n      dup1\n      iszero\n      tag_375\n      jumpi\n      0x20\n      mul\n      dup3\n      add\n      swap2\n      swap1\n      0x00\n      mstore\n      keccak256(0x00, 0x20)\n      swap1\n    tag_376:\n      dup2\n      sload\n      dup2\n      mstore\n      0x20\n      add\n      swap1\n      0x01\n      add\n      swap1\n      dup1\n      dup4\n      gt\n      tag_376\n      jumpi\n    tag_375:\n      pop\n      pop\n      pop\n      pop\n      pop\n      swap1\n      pop\n        /* \"WallContract.sol\":8589:8713  function getWallsByOwner(address owner) external view returns (uint256[] memory) {... */\n      swap2\n      swap1\n      pop\n      jump\t// out\n        /* \"WallContract.sol\":5562:5938  function rejectWallRequest(uint256 requestId) external onlyAdmin whenNotPaused {... */\n    tag_100:\n        /* \"WallContract.sol\":2364:2375  roleManager */\n      0x01\n      0x00\n      swap1\n      sload\n      swap1\n      0x0100\n      exp\n      swap1\n      div\n      0xffffffffffffffffffffffffffffffffffffffff\n      and\n        /* \"WallContract.sol\":2364:2383  roleManager.hasRole */\n      0xffffffffffffffffffffffffffffffffffffffff\n      and\n      0x91d14854\n        /* \"WallContract.sol\":2384:2395  roleManager */\n      0x01\n      0x00\n      swap1\n      sload\n      swap1\n      0x0100\n      exp\n      swap1\n      div\n      0xffffffffffffffffffffffffffffffffffffffff\n      and\n        /* \"WallContract.sol\":2384:2406  roleManager.ADMIN_ROLE */\n      0xffffffffffffffffffffffffffffffffffffffff\n      and\n      0x75b238fc\n        /* \"WallContract.sol\":2384:2408  roleManager.ADMIN_ROLE() */\n      mload(0x40)\n      dup2\n      0xffffffff\n      and\n      0xe0\n      shl\n      dup2\n      mstore\n      0x04\n      add\n      0x20\n      mload(0x40)\n      dup1\n      dup4\n      sub\n      dup2\n      dup7\n      gas\n      staticcall\n      iszero\n      dup1\n      iszero\n      tag_379\n      jumpi\n      returndatasize\n      0x00\n      dup1\n      returndatacopy\n      revert(0x00, returndatasize)\n    tag_379:\n      pop\n      pop\n      pop\n      pop\n      mload(0x40)\n      returndatasize\n      not(0x1f)\n      0x1f\n      dup3\n      add\n      and\n      dup3\n      add\n      dup1\n      0x40\n      mstore\n      pop\n      dup2\n      add\n      swap1\n      tag_380\n      swap2\n      swap1\n      tag_115\n      jump\t// in\n    tag_380:\n        /* \"WallContract.sol\":2410:2420  msg.sender */\n      caller\n        /* \"WallContract.sol\":2364:2421  roleManager.hasRole(roleManager.ADMIN_ROLE(), msg.sender) */\n      mload(0x40)\n      dup4\n      0xffffffff\n      and\n      0xe0\n      shl\n      dup2\n      mstore\n      0x04\n      add\n      tag_381\n      swap3\n      swap2\n      swap1\n      tag_117\n      jump\t// in\n    tag_381:\n      0x20\n      mload(0x40)\n      dup1\n      dup4\n      sub\n      dup2\n      dup7\n      gas\n      staticcall\n      iszero\n      dup1\n      iszero\n      tag_383\n      jumpi\n      returndatasize\n      0x00\n      dup1\n      returndatacopy\n      revert(0x00, returndatasize)\n    tag_383:\n      pop\n      pop\n      pop\n      pop\n      mload(0x40)\n      returndatasize\n      not(0x1f)\n      0x1f\n      dup3\n      add\n      and\n      dup3\n      add\n      dup1\n      0x40\n      mstore\n      pop\n      dup2\n      add\n      swap1\n      tag_384\n      swap2\n      swap1\n      tag_121\n      jump\t// in\n    tag_384:\n        /* \"WallContract.sol\":2356:2448  require(roleManager.hasRole(roleManager.ADMIN_ROLE(), msg.sender), \"Caller is not an admin\") */\n      tag_385\n      jumpi\n      mload(0x40)\n      0x08c379a000000000000000000000000000000000000000000000000000000000\n      dup2\n      mstore\n      0x04\n      add\n      tag_386\n      swap1\n      tag_143\n      jump\t// in\n    tag_386:\n      mload(0x40)\n      dup1\n      swap2\n      sub\n      swap1\n      revert\n    tag_385:\n        /* \"@openzeppelin/contracts/security/Pausable.sol\":1239:1258  _requireNotPaused() */\n      tag_388\n        /* \"@openzeppelin/contracts/security/Pausable.sol\":1239:1256  _requireNotPaused */\n      tag_127\n        /* \"@openzeppelin/contracts/security/Pausable.sol\":1239:1258  _requireNotPaused() */\n      jump\t// in\n    tag_388:\n        /* \"WallContract.sol\":5652:5679  WallRequest storage request */\n      0x00\n        /* \"WallContract.sol\":5682:5694  wallRequests */\n      0x04\n        /* \"WallContract.sol\":5682:5705  wallRequests[requestId] */\n      0x00\n        /* \"WallContract.sol\":5695:5704  requestId */\n      dup4\n        /* \"WallContract.sol\":5682:5705  wallRequests[requestId] */\n      dup2\n      mstore\n      0x20\n      add\n      swap1\n      dup2\n      mstore\n      0x20\n      add\n      0x00\n      keccak256\n        /* \"WallContract.sol\":5652:5705  WallRequest storage request = wallRequests[requestId] */\n      swap1\n      pop\n        /* \"WallContract.sol\":5724:5731  request */\n      dup1\n        /* \"WallContract.sol\":5724:5739  request.pending */\n      0x08\n      add\n      0x00\n      swap1\n      sload\n      swap1\n      0x0100\n      exp\n      swap1\n      div\n      0xff\n      and\n        /* \"WallContract.sol\":5716:5763  require(request.pending, \"Request not pending\") */\n      tag_390\n      jumpi\n      mload(0x40)\n      0x08c379a000000000000000000000000000000000000000000000000000000000\n      dup2\n      mstore\n      0x04\n      add\n      tag_391\n      swap1\n      tag_332\n      jump\t// in\n    tag_391:\n      mload(0x40)\n      dup1\n      swap2\n      sub\n      swap1\n      revert\n    tag_390:\n        /* \"WallContract.sol\":5794:5799  false */\n      0x00\n        /* \"WallContract.sol\":5776:5783  request */\n      dup2\n        /* \"WallContract.sol\":5776:5791  request.pending */\n      0x08\n      add\n      0x00\n        /* \"WallContract.sol\":5776:5799  request.pending = false */\n      0x0100\n      exp\n      dup2\n      sload\n      dup2\n      0xff\n      mul\n      not\n      and\n      swap1\n      dup4\n      iszero\n      iszero\n      mul\n      or\n      swap1\n      sstore\n      pop\n        /* \"WallContract.sol\":5829:5834  false */\n      0x00\n        /* \"WallContract.sol\":5810:5817  request */\n      dup2\n        /* \"WallContract.sol\":5810:5826  request.approved */\n      0x08\n      add\n      0x01\n        /* \"WallContract.sol\":5810:5834  request.approved = false */\n      0x0100\n      exp\n      dup2\n      sload\n      dup2\n      0xff\n      mul\n      not\n      and\n      swap1\n      dup4\n      iszero\n      iszero\n      mul\n      or\n      swap1\n      sstore\n      pop\n        /* \"WallContract.sol\":5845:5882  _removeFromPendingRequests(requestId) */\n      tag_392\n        /* \"WallContract.sol\":5872:5881  requestId */\n      dup3\n        /* \"WallContract.sol\":5845:5871  _removeFromPendingRequests */\n      tag_363\n        /* \"WallContract.sol\":5845:5882  _removeFromPendingRequests(requestId) */\n      jump\t// in\n    tag_392:\n        /* \"WallContract.sol\":5920:5929  requestId */\n      dup2\n        /* \"WallContract.sol\":5900:5930  WallRequestRejected(requestId) */\n      0xfc16a62acc42f1401e209c71f8bb430a6f13ab2cf2b6b9d9f0090f44b57314aa\n      mload(0x40)\n      mload(0x40)\n      dup1\n      swap2\n      sub\n      swap1\n      log2\n        /* \"WallContract.sol\":5641:5938  {... */\n      pop\n        /* \"WallContract.sol\":5562:5938  function rejectWallRequest(uint256 requestId) external onlyAdmin whenNotPaused {... */\n      pop\n      jump\t// out\n        /* \"WallContract.sol\":8450:8581  function getWall(uint256 wallId) external view wallExists(wallId) returns (WallData memory) {... */\n    tag_103:\n        /* \"WallContract.sol\":8525:8540  WallData memory */\n      tag_393\n      tag_394\n      jump\t// in\n    tag_393:\n        /* \"WallContract.sol\":8508:8514  wallId */\n      dup2\n        /* \"WallContract.sol\":2562:2563  0 */\n      0x00\n        /* \"WallContract.sol\":2531:2564  walls[wallId].owner != address(0) */\n      0xffffffffffffffffffffffffffffffffffffffff\n      and\n        /* \"WallContract.sol\":2531:2536  walls */\n      0x03\n        /* \"WallContract.sol\":2531:2544  walls[wallId] */\n      0x00\n        /* \"WallContract.sol\":2537:2543  wallId */\n      dup4\n        /* \"WallContract.sol\":2531:2544  walls[wallId] */\n      dup2\n      mstore\n      0x20\n      add\n      swap1\n      dup2\n      mstore\n      0x20\n      add\n      0x00\n      keccak256\n        /* \"WallContract.sol\":2531:2550  walls[wallId].owner */\n      0x01\n      add\n      0x00\n      swap1\n      sload\n      swap1\n      0x0100\n      exp\n      swap1\n      div\n      0xffffffffffffffffffffffffffffffffffffffff\n      and\n        /* \"WallContract.sol\":2531:2564  walls[wallId].owner != address(0) */\n      0xffffffffffffffffffffffffffffffffffffffff\n      and\n      sub\n        /* \"WallContract.sol\":2523:2588  require(walls[wallId].owner != address(0), \"Wall does not exist\") */\n      tag_396\n      jumpi\n      mload(0x40)\n      0x08c379a000000000000000000000000000000000000000000000000000000000\n      dup2\n      mstore\n      0x04\n      add\n      tag_397\n      swap1\n      tag_109\n      jump\t// in\n    tag_397:\n      mload(0x40)\n      dup1\n      swap2\n      sub\n      swap1\n      revert\n    tag_396:\n        /* \"WallContract.sol\":8560:8565  walls */\n      0x03\n        /* \"WallContract.sol\":8560:8573  walls[wallId] */\n      0x00\n        /* \"WallContract.sol\":8566:8572  wallId */\n      dup5\n        /* \"WallContract.sol\":8560:8573  walls[wallId] */\n      dup2\n      mstore\n      0x20\n      add\n      swap1\n      dup2\n      mstore\n      0x20\n      add\n      0x00\n      keccak256\n        /* \"WallContract.sol\":8553:8573  return walls[wallId] */\n      mload(0x40)\n      dup1\n      0x0120\n      add\n      0x40\n      mstore\n      swap1\n      dup2\n      0x00\n      dup3\n      add\n      sload\n      dup2\n      mstore\n      0x20\n      add\n      0x01\n      dup3\n      add\n      0x00\n      swap1\n      sload\n      swap1\n      0x0100\n      exp\n      swap1\n      div\n      0xffffffffffffffffffffffffffffffffffffffff\n      and\n      0xffffffffffffffffffffffffffffffffffffffff\n      and\n      0xffffffffffffffffffffffffffffffffffffffff\n      and\n      dup2\n      mstore\n      0x20\n      add\n      0x02\n      dup3\n      add\n      mload(0x40)\n      dup1\n      0xa0\n      add\n      0x40\n      mstore\n      swap1\n      dup2\n      0x00\n      dup3\n      add\n      dup1\n      sload\n      tag_399\n      swap1\n      tag_162\n      jump\t// in\n    tag_399:\n      dup1\n      0x1f\n      add\n      0x20\n      dup1\n      swap2\n      div\n      mul\n      0x20\n      add\n      mload(0x40)\n      swap1\n      dup2\n      add\n      0x40\n      mstore\n      dup1\n      swap3\n      swap2\n      swap1\n      dup2\n      dup2\n      mstore\n      0x20\n      add\n      dup3\n      dup1\n      sload\n      tag_400\n      swap1\n      tag_162\n      jump\t// in\n    tag_400:\n      dup1\n      iszero\n      tag_401\n      jumpi\n      dup1\n      0x1f\n      lt\n      tag_402\n      jumpi\n      0x0100\n      dup1\n      dup4\n      sload\n      div\n      mul\n      dup4\n      mstore\n      swap2\n      0x20\n      add\n      swap2\n      jump(tag_401)\n    tag_402:\n      dup3\n      add\n      swap2\n      swap1\n      0x00\n      mstore\n      keccak256(0x00, 0x20)\n      swap1\n    tag_403:\n      dup2\n      sload\n      dup2\n      mstore\n      swap1\n      0x01\n      add\n      swap1\n      0x20\n      add\n      dup1\n      dup4\n      gt\n      tag_403\n      jumpi\n      dup3\n      swap1\n      sub\n      0x1f\n      and\n      dup3\n      add\n      swap2\n    tag_401:\n      pop\n      pop\n      pop\n      pop\n      pop\n      dup2\n      mstore\n      0x20\n      add\n      0x01\n      dup3\n      add\n      dup1\n      sload\n      tag_404\n      swap1\n      tag_162\n      jump\t// in\n    tag_404:\n      dup1\n      0x1f\n      add\n      0x20\n      dup1\n      swap2\n      div\n      mul\n      0x20\n      add\n      mload(0x40)\n      swap1\n      dup2\n      add\n      0x40\n      mstore\n      dup1\n      swap3\n      swap2\n      swap1\n      dup2\n      dup2\n      mstore\n      0x20\n      add\n      dup3\n      dup1\n      sload\n      tag_405\n      swap1\n      tag_162\n      jump\t// in\n    tag_405:\n      dup1\n      iszero\n      tag_406\n      jumpi\n      dup1\n      0x1f\n      lt\n      tag_407\n      jumpi\n      0x0100\n      dup1\n      dup4\n      sload\n      div\n      mul\n      dup4\n      mstore\n      swap2\n      0x20\n      add\n      swap2\n      jump(tag_406)\n    tag_407:\n      dup3\n      add\n      swap2\n      swap1\n      0x00\n      mstore\n      keccak256(0x00, 0x20)\n      swap1\n    tag_408:\n      dup2\n      sload\n      dup2\n      mstore\n      swap1\n      0x01\n      add\n      swap1\n      0x20\n      add\n      dup1\n      dup4\n      gt\n      tag_408\n      jumpi\n      dup3\n      swap1\n      sub\n      0x1f\n      and\n      dup3\n      add\n      swap2\n    tag_406:\n      pop\n      pop\n      pop\n      pop\n      pop\n      dup2\n      mstore\n      0x20\n      add\n      0x02\n      dup3\n      add\n      dup1\n      sload\n      tag_409\n      swap1\n      tag_162\n      jump\t// in\n    tag_409:\n      dup1\n      0x1f\n      add\n      0x20\n      dup1\n      swap2\n      div\n      mul\n      0x20\n      add\n      mload(0x40)\n      swap1\n      dup2\n      add\n      0x40\n      mstore\n      dup1\n      swap3\n      swap2\n      swap1\n      dup2\n      dup2\n      mstore\n      0x20\n      add\n      dup3\n      dup1\n      sload\n      tag_410\n      swap1\n      tag_162\n      jump\t// in\n    tag_410:\n      dup1\n      iszero\n      tag_411\n      jumpi\n      dup1\n      0x1f\n      lt\n      tag_412\n      jumpi\n      0x0100\n      dup1\n      dup4\n      sload\n      div\n      mul\n      dup4\n      mstore\n      swap2\n      0x20\n      add\n      swap2\n      jump(tag_411)\n    tag_412:\n      dup3\n      add\n      swap2\n      swap1\n      0x00\n      mstore\n      keccak256(0x00, 0x20)\n      swap1\n    tag_413:\n      dup2\n      sload\n      dup2\n      mstore\n      swap1\n      0x01\n      add\n      swap1\n      0x20\n      add\n      dup1\n      dup4\n      gt\n      tag_413\n      jumpi\n      dup3\n      swap1\n      sub\n      0x1f\n      and\n      dup3\n      add\n      swap2\n    tag_411:\n      pop\n      pop\n      pop\n      pop\n      pop\n      dup2\n      mstore\n      0x20\n      add\n      0x03\n      dup3\n      add\n      sload\n      dup2\n      mstore\n      0x20\n      add\n      0x04\n      dup3\n      add\n      sload\n      dup2\n      mstore\n      pop\n      pop\n      dup2\n      mstore\n      0x20\n      add\n      0x07\n      dup3\n      add\n      sload\n      dup2\n      mstore\n      0x20\n      add\n      0x08\n      dup3\n      add\n      sload\n      dup2\n      mstore\n      0x20\n      add\n      0x09\n      dup3\n      add\n      0x00\n      swap1\n      sload\n      swap1\n      0x0100\n      exp\n      swap1\n      div\n      0xff\n      and\n      iszero\n      iszero\n      iszero\n      iszero\n      dup2\n      mstore\n      0x20\n      add\n      0x0a\n      dup3\n      add\n      sload\n      dup2\n      mstore\n      0x20\n      add\n      0x0b\n      dup3\n      add\n      sload\n      dup2\n      mstore\n      0x20\n      add\n      0x0c\n      dup3\n      add\n      sload\n      dup2\n      mstore\n      pop\n      pop\n      swap2\n      pop\n        /* \"WallContract.sol\":8450:8581  function getWall(uint256 wallId) external view wallExists(wallId) returns (WallData memory) {... */\n      pop\n      swap2\n      swap1\n      pop\n      jump\t// out\n        /* \"@openzeppelin/contracts/security/Pausable.sol\":1767:1873  function _requireNotPaused() internal view virtual {... */\n    tag_127:\n        /* \"@openzeppelin/contracts/security/Pausable.sol\":1837:1845  paused() */\n      tag_415\n        /* \"@openzeppelin/contracts/security/Pausable.sol\":1837:1843  paused */\n      tag_52\n        /* \"@openzeppelin/contracts/security/Pausable.sol\":1837:1845  paused() */\n      jump\t// in\n    tag_415:\n        /* \"@openzeppelin/contracts/security/Pausable.sol\":1836:1845  !paused() */\n      iszero\n        /* \"@openzeppelin/contracts/security/Pausable.sol\":1828:1866  require(!paused(), \"Pausable: paused\") */\n      tag_416\n      jumpi\n      mload(0x40)\n      0x08c379a000000000000000000000000000000000000000000000000000000000\n      dup2\n      mstore\n      0x04\n      add\n      tag_417\n      swap1\n      tag_418\n      jump\t// in\n    tag_417:\n      mload(0x40)\n      dup1\n      swap2\n      sub\n      swap1\n      revert\n    tag_416:\n        /* \"@openzeppelin/contracts/security/Pausable.sol\":1767:1873  function _requireNotPaused() internal view virtual {... */\n      jump\t// out\n        /* \"@openzeppelin/contracts/security/Pausable.sol\":2433:2550  function _unpause() internal virtual whenPaused {... */\n    tag_160:\n        /* \"@openzeppelin/contracts/security/Pausable.sol\":1486:1502  _requirePaused() */\n      tag_420\n        /* \"@openzeppelin/contracts/security/Pausable.sol\":1486:1500  _requirePaused */\n      tag_421\n        /* \"@openzeppelin/contracts/security/Pausable.sol\":1486:1502  _requirePaused() */\n      jump\t// in\n    tag_420:\n        /* \"@openzeppelin/contracts/security/Pausable.sol\":2501:2506  false */\n      0x00\n        /* \"@openzeppelin/contracts/security/Pausable.sol\":2491:2498  _paused */\n      dup1\n      0x00\n        /* \"@openzeppelin/contracts/security/Pausable.sol\":2491:2506  _paused = false */\n      0x0100\n      exp\n      dup2\n      sload\n      dup2\n      0xff\n      mul\n      not\n      and\n      swap1\n      dup4\n      iszero\n      iszero\n      mul\n      or\n      swap1\n      sstore\n      pop\n        /* \"@openzeppelin/contracts/security/Pausable.sol\":2521:2543  Unpaused(_msgSender()) */\n      0x5db9ee0a495bf2e6ff9c91a7834c1ba4fdd244a5e8aa4e537bd38aeae4b073aa\n        /* \"@openzeppelin/contracts/security/Pausable.sol\":2530:2542  _msgSender() */\n      tag_423\n        /* \"@openzeppelin/contracts/security/Pausable.sol\":2530:2540  _msgSender */\n      tag_424\n        /* \"@openzeppelin/contracts/security/Pausable.sol\":2530:2542  _msgSender() */\n      jump\t// in\n    tag_423:\n        /* \"@openzeppelin/contracts/security/Pausable.sol\":2521:2543  Unpaused(_msgSender()) */\n      mload(0x40)\n      tag_425\n      swap2\n      swap1\n      tag_64\n      jump\t// in\n    tag_425:\n      mload(0x40)\n      dup1\n      swap2\n      sub\n      swap1\n      log1\n        /* \"@openzeppelin/contracts/security/Pausable.sol\":2433:2550  function _unpause() internal virtual whenPaused {... */\n      jump\t// out\n        /* \"@openzeppelin/contracts/security/Pausable.sol\":2186:2301  function _pause() internal virtual whenNotPaused {... */\n    tag_228:\n        /* \"@openzeppelin/contracts/security/Pausable.sol\":1239:1258  _requireNotPaused() */\n      tag_427\n        /* \"@openzeppelin/contracts/security/Pausable.sol\":1239:1256  _requireNotPaused */\n      tag_127\n        /* \"@openzeppelin/contracts/security/Pausable.sol\":1239:1258  _requireNotPaused() */\n      jump\t// in\n    tag_427:\n        /* \"@openzeppelin/contracts/security/Pausable.sol\":2255:2259  true */\n      0x01\n        /* \"@openzeppelin/contracts/security/Pausable.sol\":2245:2252  _paused */\n      0x00\n      dup1\n        /* \"@openzeppelin/contracts/security/Pausable.sol\":2245:2259  _paused = true */\n      0x0100\n      exp\n      dup2\n      sload\n      dup2\n      0xff\n      mul\n      not\n      and\n      swap1\n      dup4\n      iszero\n      iszero\n      mul\n      or\n      swap1\n      sstore\n      pop\n        /* \"@openzeppelin/contracts/security/Pausable.sol\":2274:2294  Paused(_msgSender()) */\n      0x62e78cea01bee320cd4e420270b5ea74000d11b0c9f74754ebdbfc544b05a258\n        /* \"@openzeppelin/contracts/security/Pausable.sol\":2281:2293  _msgSender() */\n      tag_429\n        /* \"@openzeppelin/contracts/security/Pausable.sol\":2281:2291  _msgSender */\n      tag_424\n        /* \"@openzeppelin/contracts/security/Pausable.sol\":2281:2293  _msgSender() */\n      jump\t// in\n    tag_429:\n        /* \"@openzeppelin/contracts/security/Pausable.sol\":2274:2294  Paused(_msgSender()) */\n      mload(0x40)\n      tag_430\n      swap2\n      swap1\n      tag_64\n      jump\t// in\n    tag_430:\n      mload(0x40)\n      dup1\n      swap2\n      sub\n      swap1\n      log1\n        /* \"@openzeppelin/contracts/security/Pausable.sol\":2186:2301  function _pause() internal virtual whenNotPaused {... */\n      jump\t// out\n        /* \"WallContract.sol\":9092:9219  function _getNextWallId() private returns (uint256) {... */\n    tag_252:\n        /* \"WallContract.sol\":9135:9142  uint256 */\n      0x00\n        /* \"WallContract.sol\":9155:9175  _wallIds.increment() */\n      tag_432\n        /* \"WallContract.sol\":9155:9163  _wallIds */\n      0x02\n        /* \"WallContract.sol\":9155:9173  _wallIds.increment */\n      tag_433\n        /* \"WallContract.sol\":9155:9175  _wallIds.increment() */\n      jump\t// in\n    tag_432:\n        /* \"WallContract.sol\":9193:9211  _wallIds.current() */\n      tag_434\n        /* \"WallContract.sol\":9193:9201  _wallIds */\n      0x02\n        /* \"WallContract.sol\":9193:9209  _wallIds.current */\n      tag_435\n        /* \"WallContract.sol\":9193:9211  _wallIds.current() */\n      jump\t// in\n    tag_434:\n        /* \"WallContract.sol\":9186:9211  return _wallIds.current() */\n      swap1\n      pop\n        /* \"WallContract.sol\":9092:9219  function _getNextWallId() private returns (uint256) {... */\n      swap1\n      jump\t// out\n        /* \"WallContract.sol\":9616:10033  function _removeWallFromOwner(uint256 wallId, address owner) private {... */\n    tag_315:\n        /* \"WallContract.sol\":9696:9728  uint256[] storage ownerWallsList */\n      0x00\n        /* \"WallContract.sol\":9731:9741  ownerWalls */\n      0x05\n        /* \"WallContract.sol\":9731:9748  ownerWalls[owner] */\n      0x00\n        /* \"WallContract.sol\":9742:9747  owner */\n      dup4\n        /* \"WallContract.sol\":9731:9748  ownerWalls[owner] */\n      0xffffffffffffffffffffffffffffffffffffffff\n      and\n      0xffffffffffffffffffffffffffffffffffffffff\n      and\n      dup2\n      mstore\n      0x20\n      add\n      swap1\n      dup2\n      mstore\n      0x20\n      add\n      0x00\n      keccak256\n        /* \"WallContract.sol\":9696:9748  uint256[] storage ownerWallsList = ownerWalls[owner] */\n      swap1\n      pop\n        /* \"WallContract.sol\":9764:9770  uint i */\n      0x00\n        /* \"WallContract.sol\":9759:10026  for (uint i = 0; i < ownerWallsList.length; i++) {... */\n    tag_437:\n        /* \"WallContract.sol\":9780:9794  ownerWallsList */\n      dup2\n        /* \"WallContract.sol\":9780:9801  ownerWallsList.length */\n      dup1\n      sload\n      swap1\n      pop\n        /* \"WallContract.sol\":9776:9777  i */\n      dup2\n        /* \"WallContract.sol\":9776:9801  i < ownerWallsList.length */\n      lt\n        /* \"WallContract.sol\":9759:10026  for (uint i = 0; i < ownerWallsList.length; i++) {... */\n      iszero\n      tag_438\n      jumpi\n        /* \"WallContract.sol\":9848:9854  wallId */\n      dup4\n        /* \"WallContract.sol\":9827:9841  ownerWallsList */\n      dup3\n        /* \"WallContract.sol\":9842:9843  i */\n      dup3\n        /* \"WallContract.sol\":9827:9844  ownerWallsList[i] */\n      dup2\n      sload\n      dup2\n      lt\n      tag_440\n      jumpi\n      tag_441\n      tag_442\n      jump\t// in\n    tag_441:\n    tag_440:\n      swap1\n      0x00\n      mstore\n      keccak256(0x00, 0x20)\n      add\n      sload\n        /* \"WallContract.sol\":9827:9854  ownerWallsList[i] == wallId */\n      sub\n        /* \"WallContract.sol\":9823:10015  if (ownerWallsList[i] == wallId) {... */\n      tag_444\n      jumpi\n        /* \"WallContract.sol\":9895:9909  ownerWallsList */\n      dup2\n        /* \"WallContract.sol\":9934:9935  1 */\n      0x01\n        /* \"WallContract.sol\":9910:9924  ownerWallsList */\n      dup4\n        /* \"WallContract.sol\":9910:9931  ownerWallsList.length */\n      dup1\n      sload\n      swap1\n      pop\n        /* \"WallContract.sol\":9910:9935  ownerWallsList.length - 1 */\n      tag_445\n      swap2\n      swap1\n      tag_446\n      jump\t// in\n    tag_445:\n        /* \"WallContract.sol\":9895:9936  ownerWallsList[ownerWallsList.length - 1] */\n      dup2\n      sload\n      dup2\n      lt\n      tag_447\n      jumpi\n      tag_448\n      tag_442\n      jump\t// in\n    tag_448:\n    tag_447:\n      swap1\n      0x00\n      mstore\n      keccak256(0x00, 0x20)\n      add\n      sload\n        /* \"WallContract.sol\":9875:9889  ownerWallsList */\n      dup3\n        /* \"WallContract.sol\":9890:9891  i */\n      dup3\n        /* \"WallContract.sol\":9875:9892  ownerWallsList[i] */\n      dup2\n      sload\n      dup2\n      lt\n      tag_450\n      jumpi\n      tag_451\n      tag_442\n      jump\t// in\n    tag_451:\n    tag_450:\n      swap1\n      0x00\n      mstore\n      keccak256(0x00, 0x20)\n      add\n        /* \"WallContract.sol\":9875:9936  ownerWallsList[i] = ownerWallsList[ownerWallsList.length - 1] */\n      dup2\n      swap1\n      sstore\n      pop\n        /* \"WallContract.sol\":9955:9969  ownerWallsList */\n      dup2\n        /* \"WallContract.sol\":9955:9975  ownerWallsList.pop() */\n      dup1\n      sload\n      dup1\n      tag_453\n      jumpi\n      tag_454\n      tag_455\n      jump\t// in\n    tag_454:\n    tag_453:\n      0x01\n      swap1\n      sub\n      dup2\n      dup2\n      swap1\n      0x00\n      mstore\n      keccak256(0x00, 0x20)\n      add\n      0x00\n      swap1\n      sstore\n      swap1\n      sstore\n        /* \"WallContract.sol\":9994:9999  break */\n      jump(tag_438)\n        /* \"WallContract.sol\":9823:10015  if (ownerWallsList[i] == wallId) {... */\n    tag_444:\n        /* \"WallContract.sol\":9803:9806  i++ */\n      dup1\n      dup1\n      tag_457\n      swap1\n      tag_458\n      jump\t// in\n    tag_457:\n      swap2\n      pop\n      pop\n        /* \"WallContract.sol\":9759:10026  for (uint i = 0; i < ownerWallsList.length; i++) {... */\n      jump(tag_437)\n    tag_438:\n      pop\n        /* \"WallContract.sol\":9685:10033  {... */\n      pop\n        /* \"WallContract.sol\":9616:10033  function _removeWallFromOwner(uint256 wallId, address owner) private {... */\n      pop\n      pop\n      jump\t// out\n        /* \"WallContract.sol\":9227:9608  function _removeFromPendingRequests(uint256 requestId) private {... */\n    tag_363:\n        /* \"WallContract.sol\":9306:9312  uint i */\n      0x00\n        /* \"WallContract.sol\":9301:9601  for (uint i = 0; i < pendingWallRequests.length; i++) {... */\n    tag_460:\n        /* \"WallContract.sol\":9322:9341  pendingWallRequests */\n      0x06\n        /* \"WallContract.sol\":9322:9348  pendingWallRequests.length */\n      dup1\n      sload\n      swap1\n      pop\n        /* \"WallContract.sol\":9318:9319  i */\n      dup2\n        /* \"WallContract.sol\":9318:9348  i < pendingWallRequests.length */\n      lt\n        /* \"WallContract.sol\":9301:9601  for (uint i = 0; i < pendingWallRequests.length; i++) {... */\n      iszero\n      tag_461\n      jumpi\n        /* \"WallContract.sol\":9400:9409  requestId */\n      dup2\n        /* \"WallContract.sol\":9374:9393  pendingWallRequests */\n      0x06\n        /* \"WallContract.sol\":9394:9395  i */\n      dup3\n        /* \"WallContract.sol\":9374:9396  pendingWallRequests[i] */\n      dup2\n      sload\n      dup2\n      lt\n      tag_463\n      jumpi\n      tag_464\n      tag_442\n      jump\t// in\n    tag_464:\n    tag_463:\n      swap1\n      0x00\n      mstore\n      keccak256(0x00, 0x20)\n      add\n      sload\n        /* \"WallContract.sol\":9374:9409  pendingWallRequests[i] == requestId */\n      sub\n        /* \"WallContract.sol\":9370:9590  if (pendingWallRequests[i] == requestId) {... */\n      tag_466\n      jumpi\n        /* \"WallContract.sol\":9455:9474  pendingWallRequests */\n      0x06\n        /* \"WallContract.sol\":9504:9505  1 */\n      0x01\n        /* \"WallContract.sol\":9475:9494  pendingWallRequests */\n      0x06\n        /* \"WallContract.sol\":9475:9501  pendingWallRequests.length */\n      dup1\n      sload\n      swap1\n      pop\n        /* \"WallContract.sol\":9475:9505  pendingWallRequests.length - 1 */\n      tag_467\n      swap2\n      swap1\n      tag_446\n      jump\t// in\n    tag_467:\n        /* \"WallContract.sol\":9455:9506  pendingWallRequests[pendingWallRequests.length - 1] */\n      dup2\n      sload\n      dup2\n      lt\n      tag_468\n      jumpi\n      tag_469\n      tag_442\n      jump\t// in\n    tag_469:\n    tag_468:\n      swap1\n      0x00\n      mstore\n      keccak256(0x00, 0x20)\n      add\n      sload\n        /* \"WallContract.sol\":9430:9449  pendingWallRequests */\n      0x06\n        /* \"WallContract.sol\":9450:9451  i */\n      dup3\n        /* \"WallContract.sol\":9430:9452  pendingWallRequests[i] */\n      dup2\n      sload\n      dup2\n      lt\n      tag_471\n      jumpi\n      tag_472\n      tag_442\n      jump\t// in\n    tag_472:\n    tag_471:\n      swap1\n      0x00\n      mstore\n      keccak256(0x00, 0x20)\n      add\n        /* \"WallContract.sol\":9430:9506  pendingWallRequests[i] = pendingWallRequests[pendingWallRequests.length - 1] */\n      dup2\n      swap1\n      sstore\n      pop\n        /* \"WallContract.sol\":9525:9544  pendingWallRequests */\n      0x06\n        /* \"WallContract.sol\":9525:9550  pendingWallRequests.pop() */\n      dup1\n      sload\n      dup1\n      tag_474\n      jumpi\n      tag_475\n      tag_455\n      jump\t// in\n    tag_475:\n    tag_474:\n      0x01\n      swap1\n      sub\n      dup2\n      dup2\n      swap1\n      0x00\n      mstore\n      keccak256(0x00, 0x20)\n      add\n      0x00\n      swap1\n      sstore\n      swap1\n      sstore\n        /* \"WallContract.sol\":9569:9574  break */\n      jump(tag_461)\n        /* \"WallContract.sol\":9370:9590  if (pendingWallRequests[i] == requestId) {... */\n    tag_466:\n        /* \"WallContract.sol\":9350:9353  i++ */\n      dup1\n      dup1\n      tag_477\n      swap1\n      tag_458\n      jump\t// in\n    tag_477:\n      swap2\n      pop\n      pop\n        /* \"WallContract.sol\":9301:9601  for (uint i = 0; i < pendingWallRequests.length; i++) {... */\n      jump(tag_460)\n    tag_461:\n      pop\n        /* \"WallContract.sol\":9227:9608  function _removeFromPendingRequests(uint256 requestId) private {... */\n      pop\n      jump\t// out\n        /* \"@openzeppelin/contracts/security/Pausable.sol\":1945:2051  function _requirePaused() internal view virtual {... */\n    tag_421:\n        /* \"@openzeppelin/contracts/security/Pausable.sol\":2011:2019  paused() */\n      tag_479\n        /* \"@openzeppelin/contracts/security/Pausable.sol\":2011:2017  paused */\n      tag_52\n        /* \"@openzeppelin/contracts/security/Pausable.sol\":2011:2019  paused() */\n      jump\t// in\n    tag_479:\n        /* \"@openzeppelin/contracts/security/Pausable.sol\":2003:2044  require(paused(), \"Pausable: not paused\") */\n      tag_480\n      jumpi\n      mload(0x40)\n      0x08c379a000000000000000000000000000000000000000000000000000000000\n      dup2\n      mstore\n      0x04\n      add\n      tag_481\n      swap1\n      tag_482\n      jump\t// in\n    tag_481:\n      mload(0x40)\n      dup1\n      swap2\n      sub\n      swap1\n      revert\n    tag_480:\n        /* \"@openzeppelin/contracts/security/Pausable.sol\":1945:2051  function _requirePaused() internal view virtual {... */\n      jump\t// out\n        /* \"@openzeppelin/contracts/utils/Context.sol\":656:752  function _msgSender() internal view virtual returns (address) {... */\n    tag_424:\n        /* \"@openzeppelin/contracts/utils/Context.sol\":709:716  address */\n      0x00\n        /* \"@openzeppelin/contracts/utils/Context.sol\":735:745  msg.sender */\n      caller\n        /* \"@openzeppelin/contracts/utils/Context.sol\":728:745  return msg.sender */\n      swap1\n      pop\n        /* \"@openzeppelin/contracts/utils/Context.sol\":656:752  function _msgSender() internal view virtual returns (address) {... */\n      swap1\n      jump\t// out\n        /* \"@openzeppelin/contracts/utils/Counters.sol\":945:1068  function increment(Counter storage counter) internal {... */\n    tag_433:\n        /* \"@openzeppelin/contracts/utils/Counters.sol\":1050:1051  1 */\n      0x01\n        /* \"@openzeppelin/contracts/utils/Counters.sol\":1032:1039  counter */\n      dup2\n        /* \"@openzeppelin/contracts/utils/Counters.sol\":1032:1046  counter._value */\n      0x00\n      add\n      0x00\n        /* \"@openzeppelin/contracts/utils/Counters.sol\":1032:1051  counter._value += 1 */\n      dup3\n      dup3\n      sload\n      add\n      swap3\n      pop\n      pop\n      dup2\n      swap1\n      sstore\n      pop\n        /* \"@openzeppelin/contracts/utils/Counters.sol\":945:1068  function increment(Counter storage counter) internal {... */\n      pop\n      jump\t// out\n        /* \"@openzeppelin/contracts/utils/Counters.sol\":827:939  function current(Counter storage counter) internal view returns (uint256) {... */\n    tag_435:\n        /* \"@openzeppelin/contracts/utils/Counters.sol\":892:899  uint256 */\n      0x00\n        /* \"@openzeppelin/contracts/utils/Counters.sol\":918:925  counter */\n      dup2\n        /* \"@openzeppelin/contracts/utils/Counters.sol\":918:932  counter._value */\n      0x00\n      add\n      sload\n        /* \"@openzeppelin/contracts/utils/Counters.sol\":911:932  return counter._value */\n      swap1\n      pop\n        /* \"@openzeppelin/contracts/utils/Counters.sol\":827:939  function current(Counter storage counter) internal view returns (uint256) {... */\n      swap2\n      swap1\n      pop\n      jump\t// out\n    tag_394:\n      mload(0x40)\n      dup1\n      0x0120\n      add\n      0x40\n      mstore\n      dup1\n      0x00\n      dup2\n      mstore\n      0x20\n      add\n      and(0xffffffffffffffffffffffffffffffffffffffff, 0x00)\n      dup2\n      mstore\n      0x20\n      add\n      tag_486\n      tag_487\n      jump\t// in\n    tag_486:\n      dup2\n      mstore\n      0x20\n      add\n      0x00\n      dup2\n      mstore\n      0x20\n      add\n      0x00\n      dup2\n      mstore\n      0x20\n      add\n      iszero(iszero(0x00))\n      dup2\n      mstore\n      0x20\n      add\n      0x00\n      dup2\n      mstore\n      0x20\n      add\n      0x00\n      dup2\n      mstore\n      0x20\n      add\n      0x00\n      dup2\n      mstore\n      pop\n      swap1\n      jump\t// out\n    tag_487:\n      mload(0x40)\n      dup1\n      0xa0\n      add\n      0x40\n      mstore\n      dup1\n      0x60\n      dup2\n      mstore\n      0x20\n      add\n      0x60\n      dup2\n      mstore\n      0x20\n      add\n      0x60\n      dup2\n      mstore\n      0x20\n      add\n      0x00\n      dup2\n      mstore\n      0x20\n      add\n      0x00\n      dup2\n      mstore\n      pop\n      swap1\n      jump\t// out\n        /* \"#utility.yul\":7:133   */\n    tag_488:\n        /* \"#utility.yul\":44:51   */\n      0x00\n        /* \"#utility.yul\":84:126   */\n      0xffffffffffffffffffffffffffffffffffffffff\n        /* \"#utility.yul\":77:82   */\n      dup3\n        /* \"#utility.yul\":73:127   */\n      and\n        /* \"#utility.yul\":62:127   */\n      swap1\n      pop\n        /* \"#utility.yul\":7:133   */\n      swap2\n      swap1\n      pop\n      jump\t// out\n        /* \"#utility.yul\":139:199   */\n    tag_489:\n        /* \"#utility.yul\":167:170   */\n      0x00\n        /* \"#utility.yul\":188:193   */\n      dup2\n        /* \"#utility.yul\":181:193   */\n      swap1\n      pop\n        /* \"#utility.yul\":139:199   */\n      swap2\n      swap1\n      pop\n      jump\t// out\n        /* \"#utility.yul\":205:347   */\n    tag_490:\n        /* \"#utility.yul\":255:264   */\n      0x00\n        /* \"#utility.yul\":288:341   */\n      tag_594\n        /* \"#utility.yul\":306:340   */\n      tag_595\n        /* \"#utility.yul\":315:339   */\n      tag_596\n        /* \"#utility.yul\":333:338   */\n      dup5\n        /* \"#utility.yul\":315:339   */\n      tag_488\n      jump\t// in\n    tag_596:\n        /* \"#utility.yul\":306:340   */\n      tag_489\n      jump\t// in\n    tag_595:\n        /* \"#utility.yul\":288:341   */\n      tag_488\n      jump\t// in\n    tag_594:\n        /* \"#utility.yul\":275:341   */\n      swap1\n      pop\n        /* \"#utility.yul\":205:347   */\n      swap2\n      swap1\n      pop\n      jump\t// out\n        /* \"#utility.yul\":353:479   */\n    tag_491:\n        /* \"#utility.yul\":403:412   */\n      0x00\n        /* \"#utility.yul\":436:473   */\n      tag_598\n        /* \"#utility.yul\":467:472   */\n      dup3\n        /* \"#utility.yul\":436:473   */\n      tag_490\n      jump\t// in\n    tag_598:\n        /* \"#utility.yul\":423:473   */\n      swap1\n      pop\n        /* \"#utility.yul\":353:479   */\n      swap2\n      swap1\n      pop\n      jump\t// out\n        /* \"#utility.yul\":485:631   */\n    tag_492:\n        /* \"#utility.yul\":555:564   */\n      0x00\n        /* \"#utility.yul\":588:625   */\n      tag_600\n        /* \"#utility.yul\":619:624   */\n      dup3\n        /* \"#utility.yul\":588:625   */\n      tag_491\n      jump\t// in\n    tag_600:\n        /* \"#utility.yul\":575:625   */\n      swap1\n      pop\n        /* \"#utility.yul\":485:631   */\n      swap2\n      swap1\n      pop\n      jump\t// out\n        /* \"#utility.yul\":637:808   */\n    tag_493:\n        /* \"#utility.yul\":744:801   */\n      tag_602\n        /* \"#utility.yul\":795:800   */\n      dup2\n        /* \"#utility.yul\":744:801   */\n      tag_492\n      jump\t// in\n    tag_602:\n        /* \"#utility.yul\":739:742   */\n      dup3\n        /* \"#utility.yul\":732:802   */\n      mstore\n        /* \"#utility.yul\":637:808   */\n      pop\n      pop\n      jump\t// out\n        /* \"#utility.yul\":814:1076   */\n    tag_29:\n        /* \"#utility.yul\":927:931   */\n      0x00\n        /* \"#utility.yul\":965:967   */\n      0x20\n        /* \"#utility.yul\":954:963   */\n      dup3\n        /* \"#utility.yul\":950:968   */\n      add\n        /* \"#utility.yul\":942:968   */\n      swap1\n      pop\n        /* \"#utility.yul\":978:1069   */\n      tag_604\n        /* \"#utility.yul\":1066:1067   */\n      0x00\n        /* \"#utility.yul\":1055:1064   */\n      dup4\n        /* \"#utility.yul\":1051:1068   */\n      add\n        /* \"#utility.yul\":1042:1048   */\n      dup5\n        /* \"#utility.yul\":978:1069   */\n      tag_493\n      jump\t// in\n    tag_604:\n        /* \"#utility.yul\":814:1076   */\n      swap3\n      swap2\n      pop\n      pop\n      jump\t// out\n        /* \"#utility.yul\":1163:1280   */\n    tag_495:\n        /* \"#utility.yul\":1272:1273   */\n      0x00\n        /* \"#utility.yul\":1269:1270   */\n      dup1\n        /* \"#utility.yul\":1262:1274   */\n      revert\n        /* \"#utility.yul\":1286:1403   */\n    tag_496:\n        /* \"#utility.yul\":1395:1396   */\n      0x00\n        /* \"#utility.yul\":1392:1393   */\n      dup1\n        /* \"#utility.yul\":1385:1397   */\n      revert\n        /* \"#utility.yul\":1409:1486   */\n    tag_497:\n        /* \"#utility.yul\":1446:1453   */\n      0x00\n        /* \"#utility.yul\":1475:1480   */\n      dup2\n        /* \"#utility.yul\":1464:1480   */\n      swap1\n      pop\n        /* \"#utility.yul\":1409:1486   */\n      swap2\n      swap1\n      pop\n      jump\t// out\n        /* \"#utility.yul\":1492:1614   */\n    tag_498:\n        /* \"#utility.yul\":1565:1589   */\n      tag_610\n        /* \"#utility.yul\":1583:1588   */\n      dup2\n        /* \"#utility.yul\":1565:1589   */\n      tag_497\n      jump\t// in\n    tag_610:\n        /* \"#utility.yul\":1558:1563   */\n      dup2\n        /* \"#utility.yul\":1555:1590   */\n      eq\n        /* \"#utility.yul\":1545:1608   */\n      tag_611\n      jumpi\n        /* \"#utility.yul\":1604:1605   */\n      0x00\n        /* \"#utility.yul\":1601:1602   */\n      dup1\n        /* \"#utility.yul\":1594:1606   */\n      revert\n        /* \"#utility.yul\":1545:1608   */\n    tag_611:\n        /* \"#utility.yul\":1492:1614   */\n      pop\n      jump\t// out\n        /* \"#utility.yul\":1620:1759   */\n    tag_499:\n        /* \"#utility.yul\":1666:1671   */\n      0x00\n        /* \"#utility.yul\":1704:1710   */\n      dup2\n        /* \"#utility.yul\":1691:1711   */\n      calldataload\n        /* \"#utility.yul\":1682:1711   */\n      swap1\n      pop\n        /* \"#utility.yul\":1720:1753   */\n      tag_613\n        /* \"#utility.yul\":1747:1752   */\n      dup2\n        /* \"#utility.yul\":1720:1753   */\n      tag_498\n      jump\t// in\n    tag_613:\n        /* \"#utility.yul\":1620:1759   */\n      swap3\n      swap2\n      pop\n      pop\n      jump\t// out\n        /* \"#utility.yul\":1765:2239   */\n    tag_32:\n        /* \"#utility.yul\":1833:1839   */\n      0x00\n        /* \"#utility.yul\":1841:1847   */\n      dup1\n        /* \"#utility.yul\":1890:1892   */\n      0x40\n        /* \"#utility.yul\":1878:1887   */\n      dup4\n        /* \"#utility.yul\":1869:1876   */\n      dup6\n        /* \"#utility.yul\":1865:1888   */\n      sub\n        /* \"#utility.yul\":1861:1893   */\n      slt\n        /* \"#utility.yul\":1858:1977   */\n      iszero\n      tag_615\n      jumpi\n        /* \"#utility.yul\":1896:1975   */\n      tag_616\n      tag_495\n      jump\t// in\n    tag_616:\n        /* \"#utility.yul\":1858:1977   */\n    tag_615:\n        /* \"#utility.yul\":2016:2017   */\n      0x00\n        /* \"#utility.yul\":2041:2094   */\n      tag_617\n        /* \"#utility.yul\":2086:2093   */\n      dup6\n        /* \"#utility.yul\":2077:2083   */\n      dup3\n        /* \"#utility.yul\":2066:2075   */\n      dup7\n        /* \"#utility.yul\":2062:2084   */\n      add\n        /* \"#utility.yul\":2041:2094   */\n      tag_499\n      jump\t// in\n    tag_617:\n        /* \"#utility.yul\":2031:2094   */\n      swap3\n      pop\n        /* \"#utility.yul\":1987:2104   */\n      pop\n        /* \"#utility.yul\":2143:2145   */\n      0x20\n        /* \"#utility.yul\":2169:2222   */\n      tag_618\n        /* \"#utility.yul\":2214:2221   */\n      dup6\n        /* \"#utility.yul\":2205:2211   */\n      dup3\n        /* \"#utility.yul\":2194:2203   */\n      dup7\n        /* \"#utility.yul\":2190:2212   */\n      add\n        /* \"#utility.yul\":2169:2222   */\n      tag_499\n      jump\t// in\n    tag_618:\n        /* \"#utility.yul\":2159:2222   */\n      swap2\n      pop\n        /* \"#utility.yul\":2114:2232   */\n      pop\n        /* \"#utility.yul\":1765:2239   */\n      swap3\n      pop\n      swap3\n      swap1\n      pop\n      jump\t// out\n        /* \"#utility.yul\":2245:2341   */\n    tag_500:\n        /* \"#utility.yul\":2282:2289   */\n      0x00\n        /* \"#utility.yul\":2311:2335   */\n      tag_620\n        /* \"#utility.yul\":2329:2334   */\n      dup3\n        /* \"#utility.yul\":2311:2335   */\n      tag_488\n      jump\t// in\n    tag_620:\n        /* \"#utility.yul\":2300:2335   */\n      swap1\n      pop\n        /* \"#utility.yul\":2245:2341   */\n      swap2\n      swap1\n      pop\n      jump\t// out\n        /* \"#utility.yul\":2347:2469   */\n    tag_501:\n        /* \"#utility.yul\":2420:2444   */\n      tag_622\n        /* \"#utility.yul\":2438:2443   */\n      dup2\n        /* \"#utility.yul\":2420:2444   */\n      tag_500\n      jump\t// in\n    tag_622:\n        /* \"#utility.yul\":2413:2418   */\n      dup2\n        /* \"#utility.yul\":2410:2445   */\n      eq\n        /* \"#utility.yul\":2400:2463   */\n      tag_623\n      jumpi\n        /* \"#utility.yul\":2459:2460   */\n      0x00\n        /* \"#utility.yul\":2456:2457   */\n      dup1\n        /* \"#utility.yul\":2449:2461   */\n      revert\n        /* \"#utility.yul\":2400:2463   */\n    tag_623:\n        /* \"#utility.yul\":2347:2469   */\n      pop\n      jump\t// out\n        /* \"#utility.yul\":2475:2614   */\n    tag_502:\n        /* \"#utility.yul\":2521:2526   */\n      0x00\n        /* \"#utility.yul\":2559:2565   */\n      dup2\n        /* \"#utility.yul\":2546:2566   */\n      calldataload\n        /* \"#utility.yul\":2537:2566   */\n      swap1\n      pop\n        /* \"#utility.yul\":2575:2608   */\n      tag_625\n        /* \"#utility.yul\":2602:2607   */\n      dup2\n        /* \"#utility.yul\":2575:2608   */\n      tag_501\n      jump\t// in\n    tag_625:\n        /* \"#utility.yul\":2475:2614   */\n      swap3\n      swap2\n      pop\n      pop\n      jump\t// out\n        /* \"#utility.yul\":2620:2949   */\n    tag_36:\n        /* \"#utility.yul\":2679:2685   */\n      0x00\n        /* \"#utility.yul\":2728:2730   */\n      0x20\n        /* \"#utility.yul\":2716:2725   */\n      dup3\n        /* \"#utility.yul\":2707:2714   */\n      dup5\n        /* \"#utility.yul\":2703:2726   */\n      sub\n        /* \"#utility.yul\":2699:2731   */\n      slt\n        /* \"#utility.yul\":2696:2815   */\n      iszero\n      tag_627\n      jumpi\n        /* \"#utility.yul\":2734:2813   */\n      tag_628\n      tag_495\n      jump\t// in\n    tag_628:\n        /* \"#utility.yul\":2696:2815   */\n    tag_627:\n        /* \"#utility.yul\":2854:2855   */\n      0x00\n        /* \"#utility.yul\":2879:2932   */\n      tag_629\n        /* \"#utility.yul\":2924:2931   */\n      dup5\n        /* \"#utility.yul\":2915:2921   */\n      dup3\n        /* \"#utility.yul\":2904:2913   */\n      dup6\n        /* \"#utility.yul\":2900:2922   */\n      add\n        /* \"#utility.yul\":2879:2932   */\n      tag_502\n      jump\t// in\n    tag_629:\n        /* \"#utility.yul\":2869:2932   */\n      swap2\n      pop\n        /* \"#utility.yul\":2825:2942   */\n      pop\n        /* \"#utility.yul\":2620:2949   */\n      swap3\n      swap2\n      pop\n      pop\n      jump\t// out\n        /* \"#utility.yul\":2955:3284   */\n    tag_42:\n        /* \"#utility.yul\":3014:3020   */\n      0x00\n        /* \"#utility.yul\":3063:3065   */\n      0x20\n        /* \"#utility.yul\":3051:3060   */\n      dup3\n        /* \"#utility.yul\":3042:3049   */\n      dup5\n        /* \"#utility.yul\":3038:3061   */\n      sub\n        /* \"#utility.yul\":3034:3066   */\n      slt\n        /* \"#utility.yul\":3031:3150   */\n      iszero\n      tag_631\n      jumpi\n        /* \"#utility.yul\":3069:3148   */\n      tag_632\n      tag_495\n      jump\t// in\n    tag_632:\n        /* \"#utility.yul\":3031:3150   */\n    tag_631:\n        /* \"#utility.yul\":3189:3190   */\n      0x00\n        /* \"#utility.yul\":3214:3267   */\n      tag_633\n        /* \"#utility.yul\":3259:3266   */\n      dup5\n        /* \"#utility.yul\":3250:3256   */\n      dup3\n        /* \"#utility.yul\":3239:3248   */\n      dup6\n        /* \"#utility.yul\":3235:3257   */\n      add\n        /* \"#utility.yul\":3214:3267   */\n      tag_499\n      jump\t// in\n    tag_633:\n        /* \"#utility.yul\":3204:3267   */\n      swap2\n      pop\n        /* \"#utility.yul\":3160:3277   */\n      pop\n        /* \"#utility.yul\":2955:3284   */\n      swap3\n      swap2\n      pop\n      pop\n      jump\t// out\n        /* \"#utility.yul\":3290:3408   */\n    tag_503:\n        /* \"#utility.yul\":3377:3401   */\n      tag_635\n        /* \"#utility.yul\":3395:3400   */\n      dup2\n        /* \"#utility.yul\":3377:3401   */\n      tag_500\n      jump\t// in\n    tag_635:\n        /* \"#utility.yul\":3372:3375   */\n      dup3\n        /* \"#utility.yul\":3365:3402   */\n      mstore\n        /* \"#utility.yul\":3290:3408   */\n      pop\n      pop\n      jump\t// out\n        /* \"#utility.yul\":3414:3513   */\n    tag_504:\n        /* \"#utility.yul\":3466:3472   */\n      0x00\n        /* \"#utility.yul\":3500:3505   */\n      dup2\n        /* \"#utility.yul\":3494:3506   */\n      mload\n        /* \"#utility.yul\":3484:3506   */\n      swap1\n      pop\n        /* \"#utility.yul\":3414:3513   */\n      swap2\n      swap1\n      pop\n      jump\t// out\n        /* \"#utility.yul\":3519:3678   */\n    tag_505:\n        /* \"#utility.yul\":3593:3604   */\n      0x00\n        /* \"#utility.yul\":3627:3633   */\n      dup3\n        /* \"#utility.yul\":3622:3625   */\n      dup3\n        /* \"#utility.yul\":3615:3634   */\n      mstore\n        /* \"#utility.yul\":3667:3671   */\n      0x20\n        /* \"#utility.yul\":3662:3665   */\n      dup3\n        /* \"#utility.yul\":3658:3672   */\n      add\n        /* \"#utility.yul\":3643:3672   */\n      swap1\n      pop\n        /* \"#utility.yul\":3519:3678   */\n      swap3\n      swap2\n      pop\n      pop\n      jump\t// out\n        /* \"#utility.yul\":3684:3930   */\n    tag_506:\n        /* \"#utility.yul\":3765:3766   */\n      0x00\n        /* \"#utility.yul\":3775:3888   */\n    tag_639:\n        /* \"#utility.yul\":3789:3795   */\n      dup4\n        /* \"#utility.yul\":3786:3787   */\n      dup2\n        /* \"#utility.yul\":3783:3796   */\n      lt\n        /* \"#utility.yul\":3775:3888   */\n      iszero\n      tag_641\n      jumpi\n        /* \"#utility.yul\":3874:3875   */\n      dup1\n        /* \"#utility.yul\":3869:3872   */\n      dup3\n        /* \"#utility.yul\":3865:3876   */\n      add\n        /* \"#utility.yul\":3859:3877   */\n      mload\n        /* \"#utility.yul\":3855:3856   */\n      dup2\n        /* \"#utility.yul\":3850:3853   */\n      dup5\n        /* \"#utility.yul\":3846:3857   */\n      add\n        /* \"#utility.yul\":3839:3878   */\n      mstore\n        /* \"#utility.yul\":3811:3813   */\n      0x20\n        /* \"#utility.yul\":3808:3809   */\n      dup2\n        /* \"#utility.yul\":3804:3814   */\n      add\n        /* \"#utility.yul\":3799:3814   */\n      swap1\n      pop\n        /* \"#utility.yul\":3775:3888   */\n      jump(tag_639)\n    tag_641:\n        /* \"#utility.yul\":3922:3923   */\n      0x00\n        /* \"#utility.yul\":3913:3919   */\n      dup5\n        /* \"#utility.yul\":3908:3911   */\n      dup5\n        /* \"#utility.yul\":3904:3920   */\n      add\n        /* \"#utility.yul\":3897:3924   */\n      mstore\n        /* \"#utility.yul\":3746:3930   */\n      pop\n        /* \"#utility.yul\":3684:3930   */\n      pop\n      pop\n      pop\n      jump\t// out\n        /* \"#utility.yul\":3936:4038   */\n    tag_507:\n        /* \"#utility.yul\":3977:3983   */\n      0x00\n        /* \"#utility.yul\":4028:4030   */\n      0x1f\n        /* \"#utility.yul\":4024:4031   */\n      not\n        /* \"#utility.yul\":4019:4021   */\n      0x1f\n        /* \"#utility.yul\":4012:4017   */\n      dup4\n        /* \"#utility.yul\":4008:4022   */\n      add\n        /* \"#utility.yul\":4004:4032   */\n      and\n        /* \"#utility.yul\":3994:4032   */\n      swap1\n      pop\n        /* \"#utility.yul\":3936:4038   */\n      swap2\n      swap1\n      pop\n      jump\t// out\n        /* \"#utility.yul\":4044:4401   */\n    tag_508:\n        /* \"#utility.yul\":4122:4125   */\n      0x00\n        /* \"#utility.yul\":4150:4189   */\n      tag_644\n        /* \"#utility.yul\":4183:4188   */\n      dup3\n        /* \"#utility.yul\":4150:4189   */\n      tag_504\n      jump\t// in\n    tag_644:\n        /* \"#utility.yul\":4205:4266   */\n      tag_645\n        /* \"#utility.yul\":4259:4265   */\n      dup2\n        /* \"#utility.yul\":4254:4257   */\n      dup6\n        /* \"#utility.yul\":4205:4266   */\n      tag_505\n      jump\t// in\n    tag_645:\n        /* \"#utility.yul\":4198:4266   */\n      swap4\n      pop\n        /* \"#utility.yul\":4275:4340   */\n      tag_646\n        /* \"#utility.yul\":4333:4339   */\n      dup2\n        /* \"#utility.yul\":4328:4331   */\n      dup6\n        /* \"#utility.yul\":4321:4325   */\n      0x20\n        /* \"#utility.yul\":4314:4319   */\n      dup7\n        /* \"#utility.yul\":4310:4326   */\n      add\n        /* \"#utility.yul\":4275:4340   */\n      tag_506\n      jump\t// in\n    tag_646:\n        /* \"#utility.yul\":4365:4394   */\n      tag_647\n        /* \"#utility.yul\":4387:4393   */\n      dup2\n        /* \"#utility.yul\":4365:4394   */\n      tag_507\n      jump\t// in\n    tag_647:\n        /* \"#utility.yul\":4360:4363   */\n      dup5\n        /* \"#utility.yul\":4356:4395   */\n      add\n        /* \"#utility.yul\":4349:4395   */\n      swap2\n      pop\n        /* \"#utility.yul\":4126:4401   */\n      pop\n        /* \"#utility.yul\":4044:4401   */\n      swap3\n      swap2\n      pop\n      pop\n      jump\t// out\n        /* \"#utility.yul\":4407:4483   */\n    tag_509:\n        /* \"#utility.yul\":4443:4450   */\n      0x00\n        /* \"#utility.yul\":4472:4477   */\n      dup2\n        /* \"#utility.yul\":4461:4477   */\n      swap1\n      pop\n        /* \"#utility.yul\":4407:4483   */\n      swap2\n      swap1\n      pop\n      jump\t// out\n        /* \"#utility.yul\":4489:4594   */\n    tag_510:\n        /* \"#utility.yul\":4564:4587   */\n      tag_650\n        /* \"#utility.yul\":4581:4586   */\n      dup2\n        /* \"#utility.yul\":4564:4587   */\n      tag_509\n      jump\t// in\n    tag_650:\n        /* \"#utility.yul\":4559:4562   */\n      dup3\n        /* \"#utility.yul\":4552:4588   */\n      mstore\n        /* \"#utility.yul\":4489:4594   */\n      pop\n      pop\n      jump\t// out\n        /* \"#utility.yul\":4652:5941   */\n    tag_511:\n        /* \"#utility.yul\":4771:4774   */\n      0x00\n        /* \"#utility.yul\":4807:4811   */\n      0xa0\n        /* \"#utility.yul\":4802:4805   */\n      dup4\n        /* \"#utility.yul\":4798:4812   */\n      add\n        /* \"#utility.yul\":4897:4901   */\n      0x00\n        /* \"#utility.yul\":4890:4895   */\n      dup4\n        /* \"#utility.yul\":4886:4902   */\n      add\n        /* \"#utility.yul\":4880:4903   */\n      mload\n        /* \"#utility.yul\":4950:4953   */\n      dup5\n        /* \"#utility.yul\":4944:4948   */\n      dup3\n        /* \"#utility.yul\":4940:4954   */\n      sub\n        /* \"#utility.yul\":4933:4937   */\n      0x00\n        /* \"#utility.yul\":4928:4931   */\n      dup7\n        /* \"#utility.yul\":4924:4938   */\n      add\n        /* \"#utility.yul\":4917:4955   */\n      mstore\n        /* \"#utility.yul\":4976:5049   */\n      tag_652\n        /* \"#utility.yul\":5044:5048   */\n      dup3\n        /* \"#utility.yul\":5030:5042   */\n      dup3\n        /* \"#utility.yul\":4976:5049   */\n      tag_508\n      jump\t// in\n    tag_652:\n        /* \"#utility.yul\":4968:5049   */\n      swap2\n      pop\n        /* \"#utility.yul\":4822:5060   */\n      pop\n        /* \"#utility.yul\":5142:5146   */\n      0x20\n        /* \"#utility.yul\":5135:5140   */\n      dup4\n        /* \"#utility.yul\":5131:5147   */\n      add\n        /* \"#utility.yul\":5125:5148   */\n      mload\n        /* \"#utility.yul\":5195:5198   */\n      dup5\n        /* \"#utility.yul\":5189:5193   */\n      dup3\n        /* \"#utility.yul\":5185:5199   */\n      sub\n        /* \"#utility.yul\":5178:5182   */\n      0x20\n        /* \"#utility.yul\":5173:5176   */\n      dup7\n        /* \"#utility.yul\":5169:5183   */\n      add\n        /* \"#utility.yul\":5162:5200   */\n      mstore\n        /* \"#utility.yul\":5221:5294   */\n      tag_653\n        /* \"#utility.yul\":5289:5293   */\n      dup3\n        /* \"#utility.yul\":5275:5287   */\n      dup3\n        /* \"#utility.yul\":5221:5294   */\n      tag_508\n      jump\t// in\n    tag_653:\n        /* \"#utility.yul\":5213:5294   */\n      swap2\n      pop\n        /* \"#utility.yul\":5070:5305   */\n      pop\n        /* \"#utility.yul\":5398:5402   */\n      0x40\n        /* \"#utility.yul\":5391:5396   */\n      dup4\n        /* \"#utility.yul\":5387:5403   */\n      add\n        /* \"#utility.yul\":5381:5404   */\n      mload\n        /* \"#utility.yul\":5451:5454   */\n      dup5\n        /* \"#utility.yul\":5445:5449   */\n      dup3\n        /* \"#utility.yul\":5441:5455   */\n      sub\n        /* \"#utility.yul\":5434:5438   */\n      0x40\n        /* \"#utility.yul\":5429:5432   */\n      dup7\n        /* \"#utility.yul\":5425:5439   */\n      add\n        /* \"#utility.yul\":5418:5456   */\n      mstore\n        /* \"#utility.yul\":5477:5550   */\n      tag_654\n        /* \"#utility.yul\":5545:5549   */\n      dup3\n        /* \"#utility.yul\":5531:5543   */\n      dup3\n        /* \"#utility.yul\":5477:5550   */\n      tag_508\n      jump\t// in\n    tag_654:\n        /* \"#utility.yul\":5469:5550   */\n      swap2\n      pop\n        /* \"#utility.yul\":5315:5561   */\n      pop\n        /* \"#utility.yul\":5648:5652   */\n      0x60\n        /* \"#utility.yul\":5641:5646   */\n      dup4\n        /* \"#utility.yul\":5637:5653   */\n      add\n        /* \"#utility.yul\":5631:5654   */\n      mload\n        /* \"#utility.yul\":5667:5728   */\n      tag_655\n        /* \"#utility.yul\":5722:5726   */\n      0x60\n        /* \"#utility.yul\":5717:5720   */\n      dup7\n        /* \"#utility.yul\":5713:5727   */\n      add\n        /* \"#utility.yul\":5699:5711   */\n      dup3\n        /* \"#utility.yul\":5667:5728   */\n      tag_510\n      jump\t// in\n    tag_655:\n        /* \"#utility.yul\":5571:5738   */\n      pop\n        /* \"#utility.yul\":5824:5828   */\n      0x80\n        /* \"#utility.yul\":5817:5822   */\n      dup4\n        /* \"#utility.yul\":5813:5829   */\n      add\n        /* \"#utility.yul\":5807:5830   */\n      mload\n        /* \"#utility.yul\":5843:5904   */\n      tag_656\n        /* \"#utility.yul\":5898:5902   */\n      0x80\n        /* \"#utility.yul\":5893:5896   */\n      dup7\n        /* \"#utility.yul\":5889:5903   */\n      add\n        /* \"#utility.yul\":5875:5887   */\n      dup3\n        /* \"#utility.yul\":5843:5904   */\n      tag_510\n      jump\t// in\n    tag_656:\n        /* \"#utility.yul\":5748:5914   */\n      pop\n        /* \"#utility.yul\":5931:5935   */\n      dup1\n        /* \"#utility.yul\":5924:5935   */\n      swap2\n      pop\n        /* \"#utility.yul\":4776:5941   */\n      pop\n        /* \"#utility.yul\":4652:5941   */\n      swap3\n      swap2\n      pop\n      pop\n      jump\t// out\n        /* \"#utility.yul\":5947:6065   */\n    tag_512:\n        /* \"#utility.yul\":6034:6058   */\n      tag_658\n        /* \"#utility.yul\":6052:6057   */\n      dup2\n        /* \"#utility.yul\":6034:6058   */\n      tag_497\n      jump\t// in\n    tag_658:\n        /* \"#utility.yul\":6029:6032   */\n      dup3\n        /* \"#utility.yul\":6022:6059   */\n      mstore\n        /* \"#utility.yul\":5947:6065   */\n      pop\n      pop\n      jump\t// out\n        /* \"#utility.yul\":6071:6161   */\n    tag_513:\n        /* \"#utility.yul\":6105:6112   */\n      0x00\n        /* \"#utility.yul\":6148:6153   */\n      dup2\n        /* \"#utility.yul\":6141:6154   */\n      iszero\n        /* \"#utility.yul\":6134:6155   */\n      iszero\n        /* \"#utility.yul\":6123:6155   */\n      swap1\n      pop\n        /* \"#utility.yul\":6071:6161   */\n      swap2\n      swap1\n      pop\n      jump\t// out\n        /* \"#utility.yul\":6167:6276   */\n    tag_514:\n        /* \"#utility.yul\":6248:6269   */\n      tag_661\n        /* \"#utility.yul\":6263:6268   */\n      dup2\n        /* \"#utility.yul\":6248:6269   */\n      tag_513\n      jump\t// in\n    tag_661:\n        /* \"#utility.yul\":6243:6246   */\n      dup3\n        /* \"#utility.yul\":6236:6270   */\n      mstore\n        /* \"#utility.yul\":6167:6276   */\n      pop\n      pop\n      jump\t// out\n        /* \"#utility.yul\":6282:7184   */\n    tag_45:\n        /* \"#utility.yul\":6553:6557   */\n      0x00\n        /* \"#utility.yul\":6591:6594   */\n      0xc0\n        /* \"#utility.yul\":6580:6589   */\n      dup3\n        /* \"#utility.yul\":6576:6595   */\n      add\n        /* \"#utility.yul\":6568:6595   */\n      swap1\n      pop\n        /* \"#utility.yul\":6605:6676   */\n      tag_663\n        /* \"#utility.yul\":6673:6674   */\n      0x00\n        /* \"#utility.yul\":6662:6671   */\n      dup4\n        /* \"#utility.yul\":6658:6675   */\n      add\n        /* \"#utility.yul\":6649:6655   */\n      dup10\n        /* \"#utility.yul\":6605:6676   */\n      tag_503\n      jump\t// in\n    tag_663:\n        /* \"#utility.yul\":6723:6732   */\n      dup2\n        /* \"#utility.yul\":6717:6721   */\n      dup2\n        /* \"#utility.yul\":6713:6733   */\n      sub\n        /* \"#utility.yul\":6708:6710   */\n      0x20\n        /* \"#utility.yul\":6697:6706   */\n      dup4\n        /* \"#utility.yul\":6693:6711   */\n      add\n        /* \"#utility.yul\":6686:6734   */\n      mstore\n        /* \"#utility.yul\":6751:6859   */\n      tag_664\n        /* \"#utility.yul\":6854:6858   */\n      dup2\n        /* \"#utility.yul\":6845:6851   */\n      dup9\n        /* \"#utility.yul\":6751:6859   */\n      tag_511\n      jump\t// in\n    tag_664:\n        /* \"#utility.yul\":6743:6859   */\n      swap1\n      pop\n        /* \"#utility.yul\":6869:6941   */\n      tag_665\n        /* \"#utility.yul\":6937:6939   */\n      0x40\n        /* \"#utility.yul\":6926:6935   */\n      dup4\n        /* \"#utility.yul\":6922:6940   */\n      add\n        /* \"#utility.yul\":6913:6919   */\n      dup8\n        /* \"#utility.yul\":6869:6941   */\n      tag_512\n      jump\t// in\n    tag_665:\n        /* \"#utility.yul\":6951:7023   */\n      tag_666\n        /* \"#utility.yul\":7019:7021   */\n      0x60\n        /* \"#utility.yul\":7008:7017   */\n      dup4\n        /* \"#utility.yul\":7004:7022   */\n      add\n        /* \"#utility.yul\":6995:7001   */\n      dup7\n        /* \"#utility.yul\":6951:7023   */\n      tag_512\n      jump\t// in\n    tag_666:\n        /* \"#utility.yul\":7033:7100   */\n      tag_667\n        /* \"#utility.yul\":7095:7098   */\n      0x80\n        /* \"#utility.yul\":7084:7093   */\n      dup4\n        /* \"#utility.yul\":7080:7099   */\n      add\n        /* \"#utility.yul\":7071:7077   */\n      dup6\n        /* \"#utility.yul\":7033:7100   */\n      tag_514\n      jump\t// in\n    tag_667:\n        /* \"#utility.yul\":7110:7177   */\n      tag_668\n        /* \"#utility.yul\":7172:7175   */\n      0xa0\n        /* \"#utility.yul\":7161:7170   */\n      dup4\n        /* \"#utility.yul\":7157:7176   */\n      add\n        /* \"#utility.yul\":7148:7154   */\n      dup5\n        /* \"#utility.yul\":7110:7177   */\n      tag_514\n      jump\t// in\n    tag_668:\n        /* \"#utility.yul\":6282:7184   */\n      swap8\n      swap7\n      pop\n      pop\n      pop\n      pop\n      pop\n      pop\n      pop\n      jump\t// out\n        /* \"#utility.yul\":7190:8437   */\n    tag_50:\n        /* \"#utility.yul\":7551:7555   */\n      0x00\n        /* \"#utility.yul\":7589:7592   */\n      0x0120\n        /* \"#utility.yul\":7578:7587   */\n      dup3\n        /* \"#utility.yul\":7574:7593   */\n      add\n        /* \"#utility.yul\":7566:7593   */\n      swap1\n      pop\n        /* \"#utility.yul\":7603:7674   */\n      tag_670\n        /* \"#utility.yul\":7671:7672   */\n      0x00\n        /* \"#utility.yul\":7660:7669   */\n      dup4\n        /* \"#utility.yul\":7656:7673   */\n      add\n        /* \"#utility.yul\":7647:7653   */\n      dup13\n        /* \"#utility.yul\":7603:7674   */\n      tag_512\n      jump\t// in\n    tag_670:\n        /* \"#utility.yul\":7684:7756   */\n      tag_671\n        /* \"#utility.yul\":7752:7754   */\n      0x20\n        /* \"#utility.yul\":7741:7750   */\n      dup4\n        /* \"#utility.yul\":7737:7755   */\n      add\n        /* \"#utility.yul\":7728:7734   */\n      dup12\n        /* \"#utility.yul\":7684:7756   */\n      tag_503\n      jump\t// in\n    tag_671:\n        /* \"#utility.yul\":7803:7812   */\n      dup2\n        /* \"#utility.yul\":7797:7801   */\n      dup2\n        /* \"#utility.yul\":7793:7813   */\n      sub\n        /* \"#utility.yul\":7788:7790   */\n      0x40\n        /* \"#utility.yul\":7777:7786   */\n      dup4\n        /* \"#utility.yul\":7773:7791   */\n      add\n        /* \"#utility.yul\":7766:7814   */\n      mstore\n        /* \"#utility.yul\":7831:7939   */\n      tag_672\n        /* \"#utility.yul\":7934:7938   */\n      dup2\n        /* \"#utility.yul\":7925:7931   */\n      dup11\n        /* \"#utility.yul\":7831:7939   */\n      tag_511\n      jump\t// in\n    tag_672:\n        /* \"#utility.yul\":7823:7939   */\n      swap1\n      pop\n        /* \"#utility.yul\":7949:8021   */\n      tag_673\n        /* \"#utility.yul\":8017:8019   */\n      0x60\n        /* \"#utility.yul\":8006:8015   */\n      dup4\n        /* \"#utility.yul\":8002:8020   */\n      add\n        /* \"#utility.yul\":7993:7999   */\n      dup10\n        /* \"#utility.yul\":7949:8021   */\n      tag_512\n      jump\t// in\n    tag_673:\n        /* \"#utility.yul\":8031:8104   */\n      tag_674\n        /* \"#utility.yul\":8099:8102   */\n      0x80\n        /* \"#utility.yul\":8088:8097   */\n      dup4\n        /* \"#utility.yul\":8084:8103   */\n      add\n        /* \"#utility.yul\":8075:8081   */\n      dup9\n        /* \"#utility.yul\":8031:8104   */\n      tag_512\n      jump\t// in\n    tag_674:\n        /* \"#utility.yul\":8114:8181   */\n      tag_675\n        /* \"#utility.yul\":8176:8179   */\n      0xa0\n        /* \"#utility.yul\":8165:8174   */\n      dup4\n        /* \"#utility.yul\":8161:8180   */\n      add\n        /* \"#utility.yul\":8152:8158   */\n      dup8\n        /* \"#utility.yul\":8114:8181   */\n      tag_514\n      jump\t// in\n    tag_675:\n        /* \"#utility.yul\":8191:8264   */\n      tag_676\n        /* \"#utility.yul\":8259:8262   */\n      0xc0\n        /* \"#utility.yul\":8248:8257   */\n      dup4\n        /* \"#utility.yul\":8244:8263   */\n      add\n        /* \"#utility.yul\":8235:8241   */\n      dup7\n        /* \"#utility.yul\":8191:8264   */\n      tag_512\n      jump\t// in\n    tag_676:\n        /* \"#utility.yul\":8274:8347   */\n      tag_677\n        /* \"#utility.yul\":8342:8345   */\n      0xe0\n        /* \"#utility.yul\":8331:8340   */\n      dup4\n        /* \"#utility.yul\":8327:8346   */\n      add\n        /* \"#utility.yul\":8318:8324   */\n      dup6\n        /* \"#utility.yul\":8274:8347   */\n      tag_512\n      jump\t// in\n    tag_677:\n        /* \"#utility.yul\":8357:8430   */\n      tag_678\n        /* \"#utility.yul\":8425:8428   */\n      0x0100\n        /* \"#utility.yul\":8414:8423   */\n      dup4\n        /* \"#utility.yul\":8410:8429   */\n      add\n        /* \"#utility.yul\":8401:8407   */\n      dup5\n        /* \"#utility.yul\":8357:8430   */\n      tag_512\n      jump\t// in\n    tag_678:\n        /* \"#utility.yul\":7190:8437   */\n      swap11\n      swap10\n      pop\n      pop\n      pop\n      pop\n      pop\n      pop\n      pop\n      pop\n      pop\n      pop\n      jump\t// out\n        /* \"#utility.yul\":8443:8653   */\n    tag_54:\n        /* \"#utility.yul\":8530:8534   */\n      0x00\n        /* \"#utility.yul\":8568:8570   */\n      0x20\n        /* \"#utility.yul\":8557:8566   */\n      dup3\n        /* \"#utility.yul\":8553:8571   */\n      add\n        /* \"#utility.yul\":8545:8571   */\n      swap1\n      pop\n        /* \"#utility.yul\":8581:8646   */\n      tag_680\n        /* \"#utility.yul\":8643:8644   */\n      0x00\n        /* \"#utility.yul\":8632:8641   */\n      dup4\n        /* \"#utility.yul\":8628:8645   */\n      add\n        /* \"#utility.yul\":8619:8625   */\n      dup5\n        /* \"#utility.yul\":8581:8646   */\n      tag_514\n      jump\t// in\n    tag_680:\n        /* \"#utility.yul\":8443:8653   */\n      swap3\n      swap2\n      pop\n      pop\n      jump\t// out\n        /* \"#utility.yul\":8659:9133   */\n    tag_57:\n        /* \"#utility.yul\":8727:8733   */\n      0x00\n        /* \"#utility.yul\":8735:8741   */\n      dup1\n        /* \"#utility.yul\":8784:8786   */\n      0x40\n        /* \"#utility.yul\":8772:8781   */\n      dup4\n        /* \"#utility.yul\":8763:8770   */\n      dup6\n        /* \"#utility.yul\":8759:8782   */\n      sub\n        /* \"#utility.yul\":8755:8787   */\n      slt\n        /* \"#utility.yul\":8752:8871   */\n      iszero\n      tag_682\n      jumpi\n        /* \"#utility.yul\":8790:8869   */\n      tag_683\n      tag_495\n      jump\t// in\n    tag_683:\n        /* \"#utility.yul\":8752:8871   */\n    tag_682:\n        /* \"#utility.yul\":8910:8911   */\n      0x00\n        /* \"#utility.yul\":8935:8988   */\n      tag_684\n        /* \"#utility.yul\":8980:8987   */\n      dup6\n        /* \"#utility.yul\":8971:8977   */\n      dup3\n        /* \"#utility.yul\":8960:8969   */\n      dup7\n        /* \"#utility.yul\":8956:8978   */\n      add\n        /* \"#utility.yul\":8935:8988   */\n      tag_502\n      jump\t// in\n    tag_684:\n        /* \"#utility.yul\":8925:8988   */\n      swap3\n      pop\n        /* \"#utility.yul\":8881:8998   */\n      pop\n        /* \"#utility.yul\":9037:9039   */\n      0x20\n        /* \"#utility.yul\":9063:9116   */\n      tag_685\n        /* \"#utility.yul\":9108:9115   */\n      dup6\n        /* \"#utility.yul\":9099:9105   */\n      dup3\n        /* \"#utility.yul\":9088:9097   */\n      dup7\n        /* \"#utility.yul\":9084:9106   */\n      add\n        /* \"#utility.yul\":9063:9116   */\n      tag_499\n      jump\t// in\n    tag_685:\n        /* \"#utility.yul\":9053:9116   */\n      swap2\n      pop\n        /* \"#utility.yul\":9008:9126   */\n      pop\n        /* \"#utility.yul\":8659:9133   */\n      swap3\n      pop\n      swap3\n      swap1\n      pop\n      jump\t// out\n        /* \"#utility.yul\":9139:9361   */\n    tag_60:\n        /* \"#utility.yul\":9232:9236   */\n      0x00\n        /* \"#utility.yul\":9270:9272   */\n      0x20\n        /* \"#utility.yul\":9259:9268   */\n      dup3\n        /* \"#utility.yul\":9255:9273   */\n      add\n        /* \"#utility.yul\":9247:9273   */\n      swap1\n      pop\n        /* \"#utility.yul\":9283:9354   */\n      tag_687\n        /* \"#utility.yul\":9351:9352   */\n      0x00\n        /* \"#utility.yul\":9340:9349   */\n      dup4\n        /* \"#utility.yul\":9336:9353   */\n      add\n        /* \"#utility.yul\":9327:9333   */\n      dup5\n        /* \"#utility.yul\":9283:9354   */\n      tag_512\n      jump\t// in\n    tag_687:\n        /* \"#utility.yul\":9139:9361   */\n      swap3\n      swap2\n      pop\n      pop\n      jump\t// out\n        /* \"#utility.yul\":9367:9589   */\n    tag_64:\n        /* \"#utility.yul\":9460:9464   */\n      0x00\n        /* \"#utility.yul\":9498:9500   */\n      0x20\n        /* \"#utility.yul\":9487:9496   */\n      dup3\n        /* \"#utility.yul\":9483:9501   */\n      add\n        /* \"#utility.yul\":9475:9501   */\n      swap1\n      pop\n        /* \"#utility.yul\":9511:9582   */\n      tag_689\n        /* \"#utility.yul\":9579:9580   */\n      0x00\n        /* \"#utility.yul\":9568:9577   */\n      dup4\n        /* \"#utility.yul\":9564:9581   */\n      add\n        /* \"#utility.yul\":9555:9561   */\n      dup5\n        /* \"#utility.yul\":9511:9582   */\n      tag_503\n      jump\t// in\n    tag_689:\n        /* \"#utility.yul\":9367:9589   */\n      swap3\n      swap2\n      pop\n      pop\n      jump\t// out\n        /* \"#utility.yul\":9595:9709   */\n    tag_515:\n        /* \"#utility.yul\":9662:9668   */\n      0x00\n        /* \"#utility.yul\":9696:9701   */\n      dup2\n        /* \"#utility.yul\":9690:9702   */\n      mload\n        /* \"#utility.yul\":9680:9702   */\n      swap1\n      pop\n        /* \"#utility.yul\":9595:9709   */\n      swap2\n      swap1\n      pop\n      jump\t// out\n        /* \"#utility.yul\":9715:9899   */\n    tag_516:\n        /* \"#utility.yul\":9814:9825   */\n      0x00\n        /* \"#utility.yul\":9848:9854   */\n      dup3\n        /* \"#utility.yul\":9843:9846   */\n      dup3\n        /* \"#utility.yul\":9836:9855   */\n      mstore\n        /* \"#utility.yul\":9888:9892   */\n      0x20\n        /* \"#utility.yul\":9883:9886   */\n      dup3\n        /* \"#utility.yul\":9879:9893   */\n      add\n        /* \"#utility.yul\":9864:9893   */\n      swap1\n      pop\n        /* \"#utility.yul\":9715:9899   */\n      swap3\n      swap2\n      pop\n      pop\n      jump\t// out\n        /* \"#utility.yul\":9905:10037   */\n    tag_517:\n        /* \"#utility.yul\":9972:9976   */\n      0x00\n        /* \"#utility.yul\":9995:9998   */\n      dup2\n        /* \"#utility.yul\":9987:9998   */\n      swap1\n      pop\n        /* \"#utility.yul\":10025:10029   */\n      0x20\n        /* \"#utility.yul\":10020:10023   */\n      dup3\n        /* \"#utility.yul\":10016:10030   */\n      add\n        /* \"#utility.yul\":10008:10030   */\n      swap1\n      pop\n        /* \"#utility.yul\":9905:10037   */\n      swap2\n      swap1\n      pop\n      jump\t// out\n        /* \"#utility.yul\":10043:10151   */\n    tag_518:\n        /* \"#utility.yul\":10120:10144   */\n      tag_694\n        /* \"#utility.yul\":10138:10143   */\n      dup2\n        /* \"#utility.yul\":10120:10144   */\n      tag_497\n      jump\t// in\n    tag_694:\n        /* \"#utility.yul\":10115:10118   */\n      dup3\n        /* \"#utility.yul\":10108:10145   */\n      mstore\n        /* \"#utility.yul\":10043:10151   */\n      pop\n      pop\n      jump\t// out\n        /* \"#utility.yul\":10157:10336   */\n    tag_519:\n        /* \"#utility.yul\":10226:10236   */\n      0x00\n        /* \"#utility.yul\":10247:10293   */\n      tag_696\n        /* \"#utility.yul\":10289:10292   */\n      dup4\n        /* \"#utility.yul\":10281:10287   */\n      dup4\n        /* \"#utility.yul\":10247:10293   */\n      tag_518\n      jump\t// in\n    tag_696:\n        /* \"#utility.yul\":10325:10329   */\n      0x20\n        /* \"#utility.yul\":10320:10323   */\n      dup4\n        /* \"#utility.yul\":10316:10330   */\n      add\n        /* \"#utility.yul\":10302:10330   */\n      swap1\n      pop\n        /* \"#utility.yul\":10157:10336   */\n      swap3\n      swap2\n      pop\n      pop\n      jump\t// out\n        /* \"#utility.yul\":10342:10455   */\n    tag_520:\n        /* \"#utility.yul\":10412:10416   */\n      0x00\n        /* \"#utility.yul\":10444:10448   */\n      0x20\n        /* \"#utility.yul\":10439:10442   */\n      dup3\n        /* \"#utility.yul\":10435:10449   */\n      add\n        /* \"#utility.yul\":10427:10449   */\n      swap1\n      pop\n        /* \"#utility.yul\":10342:10455   */\n      swap2\n      swap1\n      pop\n      jump\t// out\n        /* \"#utility.yul\":10491:11223   */\n    tag_521:\n        /* \"#utility.yul\":10610:10613   */\n      0x00\n        /* \"#utility.yul\":10639:10693   */\n      tag_699\n        /* \"#utility.yul\":10687:10692   */\n      dup3\n        /* \"#utility.yul\":10639:10693   */\n      tag_515\n      jump\t// in\n    tag_699:\n        /* \"#utility.yul\":10709:10795   */\n      tag_700\n        /* \"#utility.yul\":10788:10794   */\n      dup2\n        /* \"#utility.yul\":10783:10786   */\n      dup6\n        /* \"#utility.yul\":10709:10795   */\n      tag_516\n      jump\t// in\n    tag_700:\n        /* \"#utility.yul\":10702:10795   */\n      swap4\n      pop\n        /* \"#utility.yul\":10819:10875   */\n      tag_701\n        /* \"#utility.yul\":10869:10874   */\n      dup4\n        /* \"#utility.yul\":10819:10875   */\n      tag_517\n      jump\t// in\n    tag_701:\n        /* \"#utility.yul\":10898:10905   */\n      dup1\n        /* \"#utility.yul\":10929:10930   */\n      0x00\n        /* \"#utility.yul\":10914:11198   */\n    tag_702:\n        /* \"#utility.yul\":10939:10945   */\n      dup4\n        /* \"#utility.yul\":10936:10937   */\n      dup2\n        /* \"#utility.yul\":10933:10946   */\n      lt\n        /* \"#utility.yul\":10914:11198   */\n      iszero\n      tag_704\n      jumpi\n        /* \"#utility.yul\":11015:11021   */\n      dup2\n        /* \"#utility.yul\":11009:11022   */\n      mload\n        /* \"#utility.yul\":11042:11105   */\n      tag_705\n        /* \"#utility.yul\":11101:11104   */\n      dup9\n        /* \"#utility.yul\":11086:11099   */\n      dup3\n        /* \"#utility.yul\":11042:11105   */\n      tag_519\n      jump\t// in\n    tag_705:\n        /* \"#utility.yul\":11035:11105   */\n      swap8\n      pop\n        /* \"#utility.yul\":11128:11188   */\n      tag_706\n        /* \"#utility.yul\":11181:11187   */\n      dup4\n        /* \"#utility.yul\":11128:11188   */\n      tag_520\n      jump\t// in\n    tag_706:\n        /* \"#utility.yul\":11118:11188   */\n      swap3\n      pop\n        /* \"#utility.yul\":10974:11198   */\n      pop\n        /* \"#utility.yul\":10961:10962   */\n      0x01\n        /* \"#utility.yul\":10958:10959   */\n      dup2\n        /* \"#utility.yul\":10954:10963   */\n      add\n        /* \"#utility.yul\":10949:10963   */\n      swap1\n      pop\n        /* \"#utility.yul\":10914:11198   */\n      jump(tag_702)\n    tag_704:\n        /* \"#utility.yul\":10918:10932   */\n      pop\n        /* \"#utility.yul\":11214:11217   */\n      dup6\n        /* \"#utility.yul\":11207:11217   */\n      swap4\n      pop\n        /* \"#utility.yul\":10615:11223   */\n      pop\n      pop\n      pop\n        /* \"#utility.yul\":10491:11223   */\n      swap3\n      swap2\n      pop\n      pop\n      jump\t// out\n        /* \"#utility.yul\":11229:11602   */\n    tag_68:\n        /* \"#utility.yul\":11372:11376   */\n      0x00\n        /* \"#utility.yul\":11410:11412   */\n      0x20\n        /* \"#utility.yul\":11399:11408   */\n      dup3\n        /* \"#utility.yul\":11395:11413   */\n      add\n        /* \"#utility.yul\":11387:11413   */\n      swap1\n      pop\n        /* \"#utility.yul\":11459:11468   */\n      dup2\n        /* \"#utility.yul\":11453:11457   */\n      dup2\n        /* \"#utility.yul\":11449:11469   */\n      sub\n        /* \"#utility.yul\":11445:11446   */\n      0x00\n        /* \"#utility.yul\":11434:11443   */\n      dup4\n        /* \"#utility.yul\":11430:11447   */\n      add\n        /* \"#utility.yul\":11423:11470   */\n      mstore\n        /* \"#utility.yul\":11487:11595   */\n      tag_708\n        /* \"#utility.yul\":11590:11594   */\n      dup2\n        /* \"#utility.yul\":11581:11587   */\n      dup5\n        /* \"#utility.yul\":11487:11595   */\n      tag_521\n      jump\t// in\n    tag_708:\n        /* \"#utility.yul\":11479:11595   */\n      swap1\n      pop\n        /* \"#utility.yul\":11229:11602   */\n      swap3\n      swap2\n      pop\n      pop\n      jump\t// out\n        /* \"#utility.yul\":11608:11725   */\n    tag_522:\n        /* \"#utility.yul\":11717:11718   */\n      0x00\n        /* \"#utility.yul\":11714:11715   */\n      dup1\n        /* \"#utility.yul\":11707:11719   */\n      revert\n        /* \"#utility.yul\":11731:11848   */\n    tag_523:\n        /* \"#utility.yul\":11840:11841   */\n      0x00\n        /* \"#utility.yul\":11837:11838   */\n      dup1\n        /* \"#utility.yul\":11830:11842   */\n      revert\n        /* \"#utility.yul\":11854:11971   */\n    tag_524:\n        /* \"#utility.yul\":11963:11964   */\n      0x00\n        /* \"#utility.yul\":11960:11961   */\n      dup1\n        /* \"#utility.yul\":11953:11965   */\n      revert\n        /* \"#utility.yul\":11991:12544   */\n    tag_525:\n        /* \"#utility.yul\":12049:12057   */\n      0x00\n        /* \"#utility.yul\":12059:12065   */\n      dup1\n        /* \"#utility.yul\":12109:12112   */\n      dup4\n        /* \"#utility.yul\":12102:12106   */\n      0x1f\n        /* \"#utility.yul\":12094:12100   */\n      dup5\n        /* \"#utility.yul\":12090:12107   */\n      add\n        /* \"#utility.yul\":12086:12113   */\n      slt\n        /* \"#utility.yul\":12076:12198   */\n      tag_713\n      jumpi\n        /* \"#utility.yul\":12117:12196   */\n      tag_714\n      tag_522\n      jump\t// in\n    tag_714:\n        /* \"#utility.yul\":12076:12198   */\n    tag_713:\n        /* \"#utility.yul\":12230:12236   */\n      dup3\n        /* \"#utility.yul\":12217:12237   */\n      calldataload\n        /* \"#utility.yul\":12207:12237   */\n      swap1\n      pop\n        /* \"#utility.yul\":12260:12278   */\n      0xffffffffffffffff\n        /* \"#utility.yul\":12252:12258   */\n      dup2\n        /* \"#utility.yul\":12249:12279   */\n      gt\n        /* \"#utility.yul\":12246:12363   */\n      iszero\n      tag_715\n      jumpi\n        /* \"#utility.yul\":12282:12361   */\n      tag_716\n      tag_523\n      jump\t// in\n    tag_716:\n        /* \"#utility.yul\":12246:12363   */\n    tag_715:\n        /* \"#utility.yul\":12396:12400   */\n      0x20\n        /* \"#utility.yul\":12388:12394   */\n      dup4\n        /* \"#utility.yul\":12384:12401   */\n      add\n        /* \"#utility.yul\":12372:12401   */\n      swap2\n      pop\n        /* \"#utility.yul\":12450:12453   */\n      dup4\n        /* \"#utility.yul\":12442:12446   */\n      0x01\n        /* \"#utility.yul\":12434:12440   */\n      dup3\n        /* \"#utility.yul\":12430:12447   */\n      mul\n        /* \"#utility.yul\":12420:12428   */\n      dup4\n        /* \"#utility.yul\":12416:12448   */\n      add\n        /* \"#utility.yul\":12413:12454   */\n      gt\n        /* \"#utility.yul\":12410:12538   */\n      iszero\n      tag_717\n      jumpi\n        /* \"#utility.yul\":12457:12536   */\n      tag_718\n      tag_524\n      jump\t// in\n    tag_718:\n        /* \"#utility.yul\":12410:12538   */\n    tag_717:\n        /* \"#utility.yul\":11991:12544   */\n      swap3\n      pop\n      swap3\n      swap1\n      pop\n      jump\t// out\n        /* \"#utility.yul\":12550:12670   */\n    tag_526:\n        /* \"#utility.yul\":12622:12645   */\n      tag_720\n        /* \"#utility.yul\":12639:12644   */\n      dup2\n        /* \"#utility.yul\":12622:12645   */\n      tag_509\n      jump\t// in\n    tag_720:\n        /* \"#utility.yul\":12615:12620   */\n      dup2\n        /* \"#utility.yul\":12612:12646   */\n      eq\n        /* \"#utility.yul\":12602:12664   */\n      tag_721\n      jumpi\n        /* \"#utility.yul\":12660:12661   */\n      0x00\n        /* \"#utility.yul\":12657:12658   */\n      dup1\n        /* \"#utility.yul\":12650:12662   */\n      revert\n        /* \"#utility.yul\":12602:12664   */\n    tag_721:\n        /* \"#utility.yul\":12550:12670   */\n      pop\n      jump\t// out\n        /* \"#utility.yul\":12676:12813   */\n    tag_527:\n        /* \"#utility.yul\":12721:12726   */\n      0x00\n        /* \"#utility.yul\":12759:12765   */\n      dup2\n        /* \"#utility.yul\":12746:12766   */\n      calldataload\n        /* \"#utility.yul\":12737:12766   */\n      swap1\n      pop\n        /* \"#utility.yul\":12775:12807   */\n      tag_723\n        /* \"#utility.yul\":12801:12806   */\n      dup2\n        /* \"#utility.yul\":12775:12807   */\n      tag_526\n      jump\t// in\n    tag_723:\n        /* \"#utility.yul\":12676:12813   */\n      swap3\n      swap2\n      pop\n      pop\n      jump\t// out\n        /* \"#utility.yul\":12819:14618   */\n    tag_73:\n        /* \"#utility.yul\":12966:12972   */\n      0x00\n        /* \"#utility.yul\":12974:12980   */\n      dup1\n        /* \"#utility.yul\":12982:12988   */\n      0x00\n        /* \"#utility.yul\":12990:12996   */\n      dup1\n        /* \"#utility.yul\":12998:13004   */\n      0x00\n        /* \"#utility.yul\":13006:13012   */\n      dup1\n        /* \"#utility.yul\":13014:13020   */\n      0x00\n        /* \"#utility.yul\":13022:13028   */\n      dup1\n        /* \"#utility.yul\":13030:13036   */\n      0x00\n        /* \"#utility.yul\":13038:13044   */\n      dup1\n        /* \"#utility.yul\":13087:13090   */\n      0xe0\n        /* \"#utility.yul\":13075:13084   */\n      dup12\n        /* \"#utility.yul\":13066:13073   */\n      dup14\n        /* \"#utility.yul\":13062:13085   */\n      sub\n        /* \"#utility.yul\":13058:13091   */\n      slt\n        /* \"#utility.yul\":13055:13175   */\n      iszero\n      tag_725\n      jumpi\n        /* \"#utility.yul\":13094:13173   */\n      tag_726\n      tag_495\n      jump\t// in\n    tag_726:\n        /* \"#utility.yul\":13055:13175   */\n    tag_725:\n        /* \"#utility.yul\":13242:13243   */\n      0x00\n        /* \"#utility.yul\":13231:13240   */\n      dup12\n        /* \"#utility.yul\":13227:13244   */\n      add\n        /* \"#utility.yul\":13214:13245   */\n      calldataload\n        /* \"#utility.yul\":13272:13290   */\n      0xffffffffffffffff\n        /* \"#utility.yul\":13264:13270   */\n      dup2\n        /* \"#utility.yul\":13261:13291   */\n      gt\n        /* \"#utility.yul\":13258:13375   */\n      iszero\n      tag_727\n      jumpi\n        /* \"#utility.yul\":13294:13373   */\n      tag_728\n      tag_496\n      jump\t// in\n    tag_728:\n        /* \"#utility.yul\":13258:13375   */\n    tag_727:\n        /* \"#utility.yul\":13407:13472   */\n      tag_729\n        /* \"#utility.yul\":13464:13471   */\n      dup14\n        /* \"#utility.yul\":13455:13461   */\n      dup3\n        /* \"#utility.yul\":13444:13453   */\n      dup15\n        /* \"#utility.yul\":13440:13462   */\n      add\n        /* \"#utility.yul\":13407:13472   */\n      tag_525\n      jump\t// in\n    tag_729:\n        /* \"#utility.yul\":13389:13472   */\n      swap11\n      pop\n      swap11\n      pop\n        /* \"#utility.yul\":13185:13482   */\n      pop\n        /* \"#utility.yul\":13549:13551   */\n      0x20\n        /* \"#utility.yul\":13538:13547   */\n      dup12\n        /* \"#utility.yul\":13534:13552   */\n      add\n        /* \"#utility.yul\":13521:13553   */\n      calldataload\n        /* \"#utility.yul\":13580:13598   */\n      0xffffffffffffffff\n        /* \"#utility.yul\":13572:13578   */\n      dup2\n        /* \"#utility.yul\":13569:13599   */\n      gt\n        /* \"#utility.yul\":13566:13683   */\n      iszero\n      tag_730\n      jumpi\n        /* \"#utility.yul\":13602:13681   */\n      tag_731\n      tag_496\n      jump\t// in\n    tag_731:\n        /* \"#utility.yul\":13566:13683   */\n    tag_730:\n        /* \"#utility.yul\":13715:13780   */\n      tag_732\n        /* \"#utility.yul\":13772:13779   */\n      dup14\n        /* \"#utility.yul\":13763:13769   */\n      dup3\n        /* \"#utility.yul\":13752:13761   */\n      dup15\n        /* \"#utility.yul\":13748:13770   */\n      add\n        /* \"#utility.yul\":13715:13780   */\n      tag_525\n      jump\t// in\n    tag_732:\n        /* \"#utility.yul\":13697:13780   */\n      swap9\n      pop\n      swap9\n      pop\n        /* \"#utility.yul\":13492:13790   */\n      pop\n        /* \"#utility.yul\":13857:13859   */\n      0x40\n        /* \"#utility.yul\":13846:13855   */\n      dup12\n        /* \"#utility.yul\":13842:13860   */\n      add\n        /* \"#utility.yul\":13829:13861   */\n      calldataload\n        /* \"#utility.yul\":13888:13906   */\n      0xffffffffffffffff\n        /* \"#utility.yul\":13880:13886   */\n      dup2\n        /* \"#utility.yul\":13877:13907   */\n      gt\n        /* \"#utility.yul\":13874:13991   */\n      iszero\n      tag_733\n      jumpi\n        /* \"#utility.yul\":13910:13989   */\n      tag_734\n      tag_496\n      jump\t// in\n    tag_734:\n        /* \"#utility.yul\":13874:13991   */\n    tag_733:\n        /* \"#utility.yul\":14023:14088   */\n      tag_735\n        /* \"#utility.yul\":14080:14087   */\n      dup14\n        /* \"#utility.yul\":14071:14077   */\n      dup3\n        /* \"#utility.yul\":14060:14069   */\n      dup15\n        /* \"#utility.yul\":14056:14078   */\n      add\n        /* \"#utility.yul\":14023:14088   */\n      tag_525\n      jump\t// in\n    tag_735:\n        /* \"#utility.yul\":14005:14088   */\n      swap7\n      pop\n      swap7\n      pop\n        /* \"#utility.yul\":13800:14098   */\n      pop\n        /* \"#utility.yul\":14137:14139   */\n      0x60\n        /* \"#utility.yul\":14163:14215   */\n      tag_736\n        /* \"#utility.yul\":14207:14214   */\n      dup14\n        /* \"#utility.yul\":14198:14204   */\n      dup3\n        /* \"#utility.yul\":14187:14196   */\n      dup15\n        /* \"#utility.yul\":14183:14205   */\n      add\n        /* \"#utility.yul\":14163:14215   */\n      tag_527\n      jump\t// in\n    tag_736:\n        /* \"#utility.yul\":14153:14215   */\n      swap5\n      pop\n        /* \"#utility.yul\":14108:14225   */\n      pop\n        /* \"#utility.yul\":14264:14267   */\n      0x80\n        /* \"#utility.yul\":14291:14343   */\n      tag_737\n        /* \"#utility.yul\":14335:14342   */\n      dup14\n        /* \"#utility.yul\":14326:14332   */\n      dup3\n        /* \"#utility.yul\":14315:14324   */\n      dup15\n        /* \"#utility.yul\":14311:14333   */\n      add\n        /* \"#utility.yul\":14291:14343   */\n      tag_527\n      jump\t// in\n    tag_737:\n        /* \"#utility.yul\":14281:14343   */\n      swap4\n      pop\n        /* \"#utility.yul\":14235:14353   */\n      pop\n        /* \"#utility.yul\":14392:14395   */\n      0xa0\n        /* \"#utility.yul\":14419:14472   */\n      tag_738\n        /* \"#utility.yul\":14464:14471   */\n      dup14\n        /* \"#utility.yul\":14455:14461   */\n      dup3\n        /* \"#utility.yul\":14444:14453   */\n      dup15\n        /* \"#utility.yul\":14440:14462   */\n      add\n        /* \"#utility.yul\":14419:14472   */\n      tag_499\n      jump\t// in\n    tag_738:\n        /* \"#utility.yul\":14409:14472   */\n      swap3\n      pop\n        /* \"#utility.yul\":14363:14482   */\n      pop\n        /* \"#utility.yul\":14521:14524   */\n      0xc0\n        /* \"#utility.yul\":14548:14601   */\n      tag_739\n        /* \"#utility.yul\":14593:14600   */\n      dup14\n        /* \"#utility.yul\":14584:14590   */\n      dup3\n        /* \"#utility.yul\":14573:14582   */\n      dup15\n        /* \"#utility.yul\":14569:14591   */\n      add\n        /* \"#utility.yul\":14548:14601   */\n      tag_499\n      jump\t// in\n    tag_739:\n        /* \"#utility.yul\":14538:14601   */\n      swap2\n      pop\n        /* \"#utility.yul\":14492:14611   */\n      pop\n        /* \"#utility.yul\":12819:14618   */\n      swap3\n      swap6\n      swap9\n      swap12\n      swap2\n      swap5\n      swap8\n      swap11\n      pop\n      swap3\n      swap6\n      swap9\n      pop\n      jump\t// out\n        /* \"#utility.yul\":14624:16423   */\n    tag_77:\n        /* \"#utility.yul\":14771:14777   */\n      0x00\n        /* \"#utility.yul\":14779:14785   */\n      dup1\n        /* \"#utility.yul\":14787:14793   */\n      0x00\n        /* \"#utility.yul\":14795:14801   */\n      dup1\n        /* \"#utility.yul\":14803:14809   */\n      0x00\n        /* \"#utility.yul\":14811:14817   */\n      dup1\n        /* \"#utility.yul\":14819:14825   */\n      0x00\n        /* \"#utility.yul\":14827:14833   */\n      dup1\n        /* \"#utility.yul\":14835:14841   */\n      0x00\n        /* \"#utility.yul\":14843:14849   */\n      dup1\n        /* \"#utility.yul\":14892:14895   */\n      0xe0\n        /* \"#utility.yul\":14880:14889   */\n      dup12\n        /* \"#utility.yul\":14871:14878   */\n      dup14\n        /* \"#utility.yul\":14867:14890   */\n      sub\n        /* \"#utility.yul\":14863:14896   */\n      slt\n        /* \"#utility.yul\":14860:14980   */\n      iszero\n      tag_741\n      jumpi\n        /* \"#utility.yul\":14899:14978   */\n      tag_742\n      tag_495\n      jump\t// in\n    tag_742:\n        /* \"#utility.yul\":14860:14980   */\n    tag_741:\n        /* \"#utility.yul\":15019:15020   */\n      0x00\n        /* \"#utility.yul\":15044:15097   */\n      tag_743\n        /* \"#utility.yul\":15089:15096   */\n      dup14\n        /* \"#utility.yul\":15080:15086   */\n      dup3\n        /* \"#utility.yul\":15069:15078   */\n      dup15\n        /* \"#utility.yul\":15065:15087   */\n      add\n        /* \"#utility.yul\":15044:15097   */\n      tag_499\n      jump\t// in\n    tag_743:\n        /* \"#utility.yul\":15034:15097   */\n      swap11\n      pop\n        /* \"#utility.yul\":14990:15107   */\n      pop\n        /* \"#utility.yul\":15174:15176   */\n      0x20\n        /* \"#utility.yul\":15163:15172   */\n      dup12\n        /* \"#utility.yul\":15159:15177   */\n      add\n        /* \"#utility.yul\":15146:15178   */\n      calldataload\n        /* \"#utility.yul\":15205:15223   */\n      0xffffffffffffffff\n        /* \"#utility.yul\":15197:15203   */\n      dup2\n        /* \"#utility.yul\":15194:15224   */\n      gt\n        /* \"#utility.yul\":15191:15308   */\n      iszero\n      tag_744\n      jumpi\n        /* \"#utility.yul\":15227:15306   */\n      tag_745\n      tag_496\n      jump\t// in\n    tag_745:\n        /* \"#utility.yul\":15191:15308   */\n    tag_744:\n        /* \"#utility.yul\":15340:15405   */\n      tag_746\n        /* \"#utility.yul\":15397:15404   */\n      dup14\n        /* \"#utility.yul\":15388:15394   */\n      dup3\n        /* \"#utility.yul\":15377:15386   */\n      dup15\n        /* \"#utility.yul\":15373:15395   */\n      add\n        /* \"#utility.yul\":15340:15405   */\n      tag_525\n      jump\t// in\n    tag_746:\n        /* \"#utility.yul\":15322:15405   */\n      swap10\n      pop\n      swap10\n      pop\n        /* \"#utility.yul\":15117:15415   */\n      pop\n        /* \"#utility.yul\":15482:15484   */\n      0x40\n        /* \"#utility.yul\":15471:15480   */\n      dup12\n        /* \"#utility.yul\":15467:15485   */\n      add\n        /* \"#utility.yul\":15454:15486   */\n      calldataload\n        /* \"#utility.yul\":15513:15531   */\n      0xffffffffffffffff\n        /* \"#utility.yul\":15505:15511   */\n      dup2\n        /* \"#utility.yul\":15502:15532   */\n      gt\n        /* \"#utility.yul\":15499:15616   */\n      iszero\n      tag_747\n      jumpi\n        /* \"#utility.yul\":15535:15614   */\n      tag_748\n      tag_496\n      jump\t// in\n    tag_748:\n        /* \"#utility.yul\":15499:15616   */\n    tag_747:\n        /* \"#utility.yul\":15648:15713   */\n      tag_749\n        /* \"#utility.yul\":15705:15712   */\n      dup14\n        /* \"#utility.yul\":15696:15702   */\n      dup3\n        /* \"#utility.yul\":15685:15694   */\n      dup15\n        /* \"#utility.yul\":15681:15703   */\n      add\n        /* \"#utility.yul\":15648:15713   */\n      tag_525\n      jump\t// in\n    tag_749:\n        /* \"#utility.yul\":15630:15713   */\n      swap8\n      pop\n      swap8\n      pop\n        /* \"#utility.yul\":15425:15723   */\n      pop\n        /* \"#utility.yul\":15790:15792   */\n      0x60\n        /* \"#utility.yul\":15779:15788   */\n      dup12\n        /* \"#utility.yul\":15775:15793   */\n      add\n        /* \"#utility.yul\":15762:15794   */\n      calldataload\n        /* \"#utility.yul\":15821:15839   */\n      0xffffffffffffffff\n        /* \"#utility.yul\":15813:15819   */\n      dup2\n        /* \"#utility.yul\":15810:15840   */\n      gt\n        /* \"#utility.yul\":15807:15924   */\n      iszero\n      tag_750\n      jumpi\n        /* \"#utility.yul\":15843:15922   */\n      tag_751\n      tag_496\n      jump\t// in\n    tag_751:\n        /* \"#utility.yul\":15807:15924   */\n    tag_750:\n        /* \"#utility.yul\":15956:16021   */\n      tag_752\n        /* \"#utility.yul\":16013:16020   */\n      dup14\n        /* \"#utility.yul\":16004:16010   */\n      dup3\n        /* \"#utility.yul\":15993:16002   */\n      dup15\n        /* \"#utility.yul\":15989:16011   */\n      add\n        /* \"#utility.yul\":15956:16021   */\n      tag_525\n      jump\t// in\n    tag_752:\n        /* \"#utility.yul\":15938:16021   */\n      swap6\n      pop\n      swap6\n      pop\n        /* \"#utility.yul\":15733:16031   */\n      pop\n        /* \"#utility.yul\":16070:16073   */\n      0x80\n        /* \"#utility.yul\":16097:16149   */\n      tag_753\n        /* \"#utility.yul\":16141:16148   */\n      dup14\n        /* \"#utility.yul\":16132:16138   */\n      dup3\n        /* \"#utility.yul\":16121:16130   */\n      dup15\n        /* \"#utility.yul\":16117:16139   */\n      add\n        /* \"#utility.yul\":16097:16149   */\n      tag_527\n      jump\t// in\n    tag_753:\n        /* \"#utility.yul\":16087:16149   */\n      swap4\n      pop\n        /* \"#utility.yul\":16041:16159   */\n      pop\n        /* \"#utility.yul\":16198:16201   */\n      0xa0\n        /* \"#utility.yul\":16225:16277   */\n      tag_754\n        /* \"#utility.yul\":16269:16276   */\n      dup14\n        /* \"#utility.yul\":16260:16266   */\n      dup3\n        /* \"#utility.yul\":16249:16258   */\n      dup15\n        /* \"#utility.yul\":16245:16267   */\n      add\n        /* \"#utility.yul\":16225:16277   */\n      tag_527\n      jump\t// in\n    tag_754:\n        /* \"#utility.yul\":16215:16277   */\n      swap3\n      pop\n        /* \"#utility.yul\":16169:16287   */\n      pop\n        /* \"#utility.yul\":16326:16329   */\n      0xc0\n        /* \"#utility.yul\":16353:16406   */\n      tag_755\n        /* \"#utility.yul\":16398:16405   */\n      dup14\n        /* \"#utility.yul\":16389:16395   */\n      dup3\n        /* \"#utility.yul\":16378:16387   */\n      dup15\n        /* \"#utility.yul\":16374:16396   */\n      add\n        /* \"#utility.yul\":16353:16406   */\n      tag_499\n      jump\t// in\n    tag_755:\n        /* \"#utility.yul\":16343:16406   */\n      swap2\n      pop\n        /* \"#utility.yul\":16297:16416   */\n      pop\n        /* \"#utility.yul\":14624:16423   */\n      swap3\n      swap6\n      swap9\n      swap12\n      swap2\n      swap5\n      swap8\n      swap11\n      pop\n      swap3\n      swap6\n      swap9\n      pop\n      jump\t// out\n        /* \"#utility.yul\":16429:16903   */\n    tag_81:\n        /* \"#utility.yul\":16497:16503   */\n      0x00\n        /* \"#utility.yul\":16505:16511   */\n      dup1\n        /* \"#utility.yul\":16554:16556   */\n      0x40\n        /* \"#utility.yul\":16542:16551   */\n      dup4\n        /* \"#utility.yul\":16533:16540   */\n      dup6\n        /* \"#utility.yul\":16529:16552   */\n      sub\n        /* \"#utility.yul\":16525:16557   */\n      slt\n        /* \"#utility.yul\":16522:16641   */\n      iszero\n      tag_757\n      jumpi\n        /* \"#utility.yul\":16560:16639   */\n      tag_758\n      tag_495\n      jump\t// in\n    tag_758:\n        /* \"#utility.yul\":16522:16641   */\n    tag_757:\n        /* \"#utility.yul\":16680:16681   */\n      0x00\n        /* \"#utility.yul\":16705:16758   */\n      tag_759\n        /* \"#utility.yul\":16750:16757   */\n      dup6\n        /* \"#utility.yul\":16741:16747   */\n      dup3\n        /* \"#utility.yul\":16730:16739   */\n      dup7\n        /* \"#utility.yul\":16726:16748   */\n      add\n        /* \"#utility.yul\":16705:16758   */\n      tag_499\n      jump\t// in\n    tag_759:\n        /* \"#utility.yul\":16695:16758   */\n      swap3\n      pop\n        /* \"#utility.yul\":16651:16768   */\n      pop\n        /* \"#utility.yul\":16807:16809   */\n      0x20\n        /* \"#utility.yul\":16833:16886   */\n      tag_760\n        /* \"#utility.yul\":16878:16885   */\n      dup6\n        /* \"#utility.yul\":16869:16875   */\n      dup3\n        /* \"#utility.yul\":16858:16867   */\n      dup7\n        /* \"#utility.yul\":16854:16876   */\n      add\n        /* \"#utility.yul\":16833:16886   */\n      tag_502\n      jump\t// in\n    tag_760:\n        /* \"#utility.yul\":16823:16886   */\n      swap2\n      pop\n        /* \"#utility.yul\":16778:16896   */\n      pop\n        /* \"#utility.yul\":16429:16903   */\n      swap3\n      pop\n      swap3\n      swap1\n      pop\n      jump\t// out\n        /* \"#utility.yul\":16909:17025   */\n    tag_528:\n        /* \"#utility.yul\":16979:17000   */\n      tag_762\n        /* \"#utility.yul\":16994:16999   */\n      dup2\n        /* \"#utility.yul\":16979:17000   */\n      tag_513\n      jump\t// in\n    tag_762:\n        /* \"#utility.yul\":16972:16977   */\n      dup2\n        /* \"#utility.yul\":16969:17001   */\n      eq\n        /* \"#utility.yul\":16959:17019   */\n      tag_763\n      jumpi\n        /* \"#utility.yul\":17015:17016   */\n      0x00\n        /* \"#utility.yul\":17012:17013   */\n      dup1\n        /* \"#utility.yul\":17005:17017   */\n      revert\n        /* \"#utility.yul\":16959:17019   */\n    tag_763:\n        /* \"#utility.yul\":16909:17025   */\n      pop\n      jump\t// out\n        /* \"#utility.yul\":17031:17164   */\n    tag_529:\n        /* \"#utility.yul\":17074:17079   */\n      0x00\n        /* \"#utility.yul\":17112:17118   */\n      dup2\n        /* \"#utility.yul\":17099:17119   */\n      calldataload\n        /* \"#utility.yul\":17090:17119   */\n      swap1\n      pop\n        /* \"#utility.yul\":17128:17158   */\n      tag_765\n        /* \"#utility.yul\":17152:17157   */\n      dup2\n        /* \"#utility.yul\":17128:17158   */\n      tag_528\n      jump\t// in\n    tag_765:\n        /* \"#utility.yul\":17031:17164   */\n      swap3\n      swap2\n      pop\n      pop\n      jump\t// out\n        /* \"#utility.yul\":17170:17783   */\n    tag_88:\n        /* \"#utility.yul\":17244:17250   */\n      0x00\n        /* \"#utility.yul\":17252:17258   */\n      dup1\n        /* \"#utility.yul\":17260:17266   */\n      0x00\n        /* \"#utility.yul\":17309:17311   */\n      0x60\n        /* \"#utility.yul\":17297:17306   */\n      dup5\n        /* \"#utility.yul\":17288:17295   */\n      dup7\n        /* \"#utility.yul\":17284:17307   */\n      sub\n        /* \"#utility.yul\":17280:17312   */\n      slt\n        /* \"#utility.yul\":17277:17396   */\n      iszero\n      tag_767\n      jumpi\n        /* \"#utility.yul\":17315:17394   */\n      tag_768\n      tag_495\n      jump\t// in\n    tag_768:\n        /* \"#utility.yul\":17277:17396   */\n    tag_767:\n        /* \"#utility.yul\":17435:17436   */\n      0x00\n        /* \"#utility.yul\":17460:17513   */\n      tag_769\n        /* \"#utility.yul\":17505:17512   */\n      dup7\n        /* \"#utility.yul\":17496:17502   */\n      dup3\n        /* \"#utility.yul\":17485:17494   */\n      dup8\n        /* \"#utility.yul\":17481:17503   */\n      add\n        /* \"#utility.yul\":17460:17513   */\n      tag_499\n      jump\t// in\n    tag_769:\n        /* \"#utility.yul\":17450:17513   */\n      swap4\n      pop\n        /* \"#utility.yul\":17406:17523   */\n      pop\n        /* \"#utility.yul\":17562:17564   */\n      0x20\n        /* \"#utility.yul\":17588:17641   */\n      tag_770\n        /* \"#utility.yul\":17633:17640   */\n      dup7\n        /* \"#utility.yul\":17624:17630   */\n      dup3\n        /* \"#utility.yul\":17613:17622   */\n      dup8\n        /* \"#utility.yul\":17609:17631   */\n      add\n        /* \"#utility.yul\":17588:17641   */\n      tag_499\n      jump\t// in\n    tag_770:\n        /* \"#utility.yul\":17578:17641   */\n      swap3\n      pop\n        /* \"#utility.yul\":17533:17651   */\n      pop\n        /* \"#utility.yul\":17690:17692   */\n      0x40\n        /* \"#utility.yul\":17716:17766   */\n      tag_771\n        /* \"#utility.yul\":17758:17765   */\n      dup7\n        /* \"#utility.yul\":17749:17755   */\n      dup3\n        /* \"#utility.yul\":17738:17747   */\n      dup8\n        /* \"#utility.yul\":17734:17756   */\n      add\n        /* \"#utility.yul\":17716:17766   */\n      tag_529\n      jump\t// in\n    tag_771:\n        /* \"#utility.yul\":17706:17766   */\n      swap2\n      pop\n        /* \"#utility.yul\":17661:17776   */\n      pop\n        /* \"#utility.yul\":17170:17783   */\n      swap3\n      pop\n      swap3\n      pop\n      swap3\n      jump\t// out\n        /* \"#utility.yul\":17789:17897   */\n    tag_530:\n        /* \"#utility.yul\":17866:17890   */\n      tag_773\n        /* \"#utility.yul\":17884:17889   */\n      dup2\n        /* \"#utility.yul\":17866:17890   */\n      tag_500\n      jump\t// in\n    tag_773:\n        /* \"#utility.yul\":17861:17864   */\n      dup3\n        /* \"#utility.yul\":17854:17891   */\n      mstore\n        /* \"#utility.yul\":17789:17897   */\n      pop\n      pop\n      jump\t// out\n        /* \"#utility.yul\":17955:19234   */\n    tag_531:\n        /* \"#utility.yul\":18064:18067   */\n      0x00\n        /* \"#utility.yul\":18100:18104   */\n      0xa0\n        /* \"#utility.yul\":18095:18098   */\n      dup4\n        /* \"#utility.yul\":18091:18105   */\n      add\n        /* \"#utility.yul\":18190:18194   */\n      0x00\n        /* \"#utility.yul\":18183:18188   */\n      dup4\n        /* \"#utility.yul\":18179:18195   */\n      add\n        /* \"#utility.yul\":18173:18196   */\n      mload\n        /* \"#utility.yul\":18243:18246   */\n      dup5\n        /* \"#utility.yul\":18237:18241   */\n      dup3\n        /* \"#utility.yul\":18233:18247   */\n      sub\n        /* \"#utility.yul\":18226:18230   */\n      0x00\n        /* \"#utility.yul\":18221:18224   */\n      dup7\n        /* \"#utility.yul\":18217:18231   */\n      add\n        /* \"#utility.yul\":18210:18248   */\n      mstore\n        /* \"#utility.yul\":18269:18342   */\n      tag_775\n        /* \"#utility.yul\":18337:18341   */\n      dup3\n        /* \"#utility.yul\":18323:18335   */\n      dup3\n        /* \"#utility.yul\":18269:18342   */\n      tag_508\n      jump\t// in\n    tag_775:\n        /* \"#utility.yul\":18261:18342   */\n      swap2\n      pop\n        /* \"#utility.yul\":18115:18353   */\n      pop\n        /* \"#utility.yul\":18435:18439   */\n      0x20\n        /* \"#utility.yul\":18428:18433   */\n      dup4\n        /* \"#utility.yul\":18424:18440   */\n      add\n        /* \"#utility.yul\":18418:18441   */\n      mload\n        /* \"#utility.yul\":18488:18491   */\n      dup5\n        /* \"#utility.yul\":18482:18486   */\n      dup3\n        /* \"#utility.yul\":18478:18492   */\n      sub\n        /* \"#utility.yul\":18471:18475   */\n      0x20\n        /* \"#utility.yul\":18466:18469   */\n      dup7\n        /* \"#utility.yul\":18462:18476   */\n      add\n        /* \"#utility.yul\":18455:18493   */\n      mstore\n        /* \"#utility.yul\":18514:18587   */\n      tag_776\n        /* \"#utility.yul\":18582:18586   */\n      dup3\n        /* \"#utility.yul\":18568:18580   */\n      dup3\n        /* \"#utility.yul\":18514:18587   */\n      tag_508\n      jump\t// in\n    tag_776:\n        /* \"#utility.yul\":18506:18587   */\n      swap2\n      pop\n        /* \"#utility.yul\":18363:18598   */\n      pop\n        /* \"#utility.yul\":18691:18695   */\n      0x40\n        /* \"#utility.yul\":18684:18689   */\n      dup4\n        /* \"#utility.yul\":18680:18696   */\n      add\n        /* \"#utility.yul\":18674:18697   */\n      mload\n        /* \"#utility.yul\":18744:18747   */\n      dup5\n        /* \"#utility.yul\":18738:18742   */\n      dup3\n        /* \"#utility.yul\":18734:18748   */\n      sub\n        /* \"#utility.yul\":18727:18731   */\n      0x40\n        /* \"#utility.yul\":18722:18725   */\n      dup7\n        /* \"#utility.yul\":18718:18732   */\n      add\n        /* \"#utility.yul\":18711:18749   */\n      mstore\n        /* \"#utility.yul\":18770:18843   */\n      tag_777\n        /* \"#utility.yul\":18838:18842   */\n      dup3\n        /* \"#utility.yul\":18824:18836   */\n      dup3\n        /* \"#utility.yul\":18770:18843   */\n      tag_508\n      jump\t// in\n    tag_777:\n        /* \"#utility.yul\":18762:18843   */\n      swap2\n      pop\n        /* \"#utility.yul\":18608:18854   */\n      pop\n        /* \"#utility.yul\":18941:18945   */\n      0x60\n        /* \"#utility.yul\":18934:18939   */\n      dup4\n        /* \"#utility.yul\":18930:18946   */\n      add\n        /* \"#utility.yul\":18924:18947   */\n      mload\n        /* \"#utility.yul\":18960:19021   */\n      tag_778\n        /* \"#utility.yul\":19015:19019   */\n      0x60\n        /* \"#utility.yul\":19010:19013   */\n      dup7\n        /* \"#utility.yul\":19006:19020   */\n      add\n        /* \"#utility.yul\":18992:19004   */\n      dup3\n        /* \"#utility.yul\":18960:19021   */\n      tag_510\n      jump\t// in\n    tag_778:\n        /* \"#utility.yul\":18864:19031   */\n      pop\n        /* \"#utility.yul\":19117:19121   */\n      0x80\n        /* \"#utility.yul\":19110:19115   */\n      dup4\n        /* \"#utility.yul\":19106:19122   */\n      add\n        /* \"#utility.yul\":19100:19123   */\n      mload\n        /* \"#utility.yul\":19136:19197   */\n      tag_779\n        /* \"#utility.yul\":19191:19195   */\n      0x80\n        /* \"#utility.yul\":19186:19189   */\n      dup7\n        /* \"#utility.yul\":19182:19196   */\n      add\n        /* \"#utility.yul\":19168:19180   */\n      dup3\n        /* \"#utility.yul\":19136:19197   */\n      tag_510\n      jump\t// in\n    tag_779:\n        /* \"#utility.yul\":19041:19207   */\n      pop\n        /* \"#utility.yul\":19224:19228   */\n      dup1\n        /* \"#utility.yul\":19217:19228   */\n      swap2\n      pop\n        /* \"#utility.yul\":18069:19234   */\n      pop\n        /* \"#utility.yul\":17955:19234   */\n      swap3\n      swap2\n      pop\n      pop\n      jump\t// out\n        /* \"#utility.yul\":19240:19339   */\n    tag_532:\n        /* \"#utility.yul\":19311:19332   */\n      tag_781\n        /* \"#utility.yul\":19326:19331   */\n      dup2\n        /* \"#utility.yul\":19311:19332   */\n      tag_513\n      jump\t// in\n    tag_781:\n        /* \"#utility.yul\":19306:19309   */\n      dup3\n        /* \"#utility.yul\":19299:19333   */\n      mstore\n        /* \"#utility.yul\":19240:19339   */\n      pop\n      pop\n      jump\t// out\n        /* \"#utility.yul\":19397:21293   */\n    tag_533:\n        /* \"#utility.yul\":19516:19519   */\n      0x00\n        /* \"#utility.yul\":19552:19558   */\n      0x0120\n        /* \"#utility.yul\":19547:19550   */\n      dup4\n        /* \"#utility.yul\":19543:19559   */\n      add\n        /* \"#utility.yul\":19639:19643   */\n      0x00\n        /* \"#utility.yul\":19632:19637   */\n      dup4\n        /* \"#utility.yul\":19628:19644   */\n      add\n        /* \"#utility.yul\":19622:19645   */\n      mload\n        /* \"#utility.yul\":19658:19721   */\n      tag_783\n        /* \"#utility.yul\":19715:19719   */\n      0x00\n        /* \"#utility.yul\":19710:19713   */\n      dup7\n        /* \"#utility.yul\":19706:19720   */\n      add\n        /* \"#utility.yul\":19692:19704   */\n      dup3\n        /* \"#utility.yul\":19658:19721   */\n      tag_518\n      jump\t// in\n    tag_783:\n        /* \"#utility.yul\":19569:19731   */\n      pop\n        /* \"#utility.yul\":19814:19818   */\n      0x20\n        /* \"#utility.yul\":19807:19812   */\n      dup4\n        /* \"#utility.yul\":19803:19819   */\n      add\n        /* \"#utility.yul\":19797:19820   */\n      mload\n        /* \"#utility.yul\":19833:19896   */\n      tag_784\n        /* \"#utility.yul\":19890:19894   */\n      0x20\n        /* \"#utility.yul\":19885:19888   */\n      dup7\n        /* \"#utility.yul\":19881:19895   */\n      add\n        /* \"#utility.yul\":19867:19879   */\n      dup3\n        /* \"#utility.yul\":19833:19896   */\n      tag_530\n      jump\t// in\n    tag_784:\n        /* \"#utility.yul\":19741:19906   */\n      pop\n        /* \"#utility.yul\":19992:19996   */\n      0x40\n        /* \"#utility.yul\":19985:19990   */\n      dup4\n        /* \"#utility.yul\":19981:19997   */\n      add\n        /* \"#utility.yul\":19975:19998   */\n      mload\n        /* \"#utility.yul\":20045:20048   */\n      dup5\n        /* \"#utility.yul\":20039:20043   */\n      dup3\n        /* \"#utility.yul\":20035:20049   */\n      sub\n        /* \"#utility.yul\":20028:20032   */\n      0x40\n        /* \"#utility.yul\":20023:20026   */\n      dup7\n        /* \"#utility.yul\":20019:20033   */\n      add\n        /* \"#utility.yul\":20012:20050   */\n      mstore\n        /* \"#utility.yul\":20071:20174   */\n      tag_785\n        /* \"#utility.yul\":20169:20173   */\n      dup3\n        /* \"#utility.yul\":20155:20167   */\n      dup3\n        /* \"#utility.yul\":20071:20174   */\n      tag_531\n      jump\t// in\n    tag_785:\n        /* \"#utility.yul\":20063:20174   */\n      swap2\n      pop\n        /* \"#utility.yul\":19916:20185   */\n      pop\n        /* \"#utility.yul\":20267:20271   */\n      0x60\n        /* \"#utility.yul\":20260:20265   */\n      dup4\n        /* \"#utility.yul\":20256:20272   */\n      add\n        /* \"#utility.yul\":20250:20273   */\n      mload\n        /* \"#utility.yul\":20286:20349   */\n      tag_786\n        /* \"#utility.yul\":20343:20347   */\n      0x60\n        /* \"#utility.yul\":20338:20341   */\n      dup7\n        /* \"#utility.yul\":20334:20348   */\n      add\n        /* \"#utility.yul\":20320:20332   */\n      dup3\n        /* \"#utility.yul\":20286:20349   */\n      tag_518\n      jump\t// in\n    tag_786:\n        /* \"#utility.yul\":20195:20359   */\n      pop\n        /* \"#utility.yul\":20456:20460   */\n      0x80\n        /* \"#utility.yul\":20449:20454   */\n      dup4\n        /* \"#utility.yul\":20445:20461   */\n      add\n        /* \"#utility.yul\":20439:20462   */\n      mload\n        /* \"#utility.yul\":20475:20538   */\n      tag_787\n        /* \"#utility.yul\":20532:20536   */\n      0x80\n        /* \"#utility.yul\":20527:20530   */\n      dup7\n        /* \"#utility.yul\":20523:20537   */\n      add\n        /* \"#utility.yul\":20509:20521   */\n      dup3\n        /* \"#utility.yul\":20475:20538   */\n      tag_518\n      jump\t// in\n    tag_787:\n        /* \"#utility.yul\":20369:20548   */\n      pop\n        /* \"#utility.yul\":20637:20641   */\n      0xa0\n        /* \"#utility.yul\":20630:20635   */\n      dup4\n        /* \"#utility.yul\":20626:20642   */\n      add\n        /* \"#utility.yul\":20620:20643   */\n      mload\n        /* \"#utility.yul\":20656:20713   */\n      tag_788\n        /* \"#utility.yul\":20707:20711   */\n      0xa0\n        /* \"#utility.yul\":20702:20705   */\n      dup7\n        /* \"#utility.yul\":20698:20712   */\n      add\n        /* \"#utility.yul\":20684:20696   */\n      dup3\n        /* \"#utility.yul\":20656:20713   */\n      tag_532\n      jump\t// in\n    tag_788:\n        /* \"#utility.yul\":20558:20723   */\n      pop\n        /* \"#utility.yul\":20810:20814   */\n      0xc0\n        /* \"#utility.yul\":20803:20808   */\n      dup4\n        /* \"#utility.yul\":20799:20815   */\n      add\n        /* \"#utility.yul\":20793:20816   */\n      mload\n        /* \"#utility.yul\":20829:20892   */\n      tag_789\n        /* \"#utility.yul\":20886:20890   */\n      0xc0\n        /* \"#utility.yul\":20881:20884   */\n      dup7\n        /* \"#utility.yul\":20877:20891   */\n      add\n        /* \"#utility.yul\":20863:20875   */\n      dup3\n        /* \"#utility.yul\":20829:20892   */\n      tag_518\n      jump\t// in\n    tag_789:\n        /* \"#utility.yul\":20733:20902   */\n      pop\n        /* \"#utility.yul\":20989:20993   */\n      0xe0\n        /* \"#utility.yul\":20982:20987   */\n      dup4\n        /* \"#utility.yul\":20978:20994   */\n      add\n        /* \"#utility.yul\":20972:20995   */\n      mload\n        /* \"#utility.yul\":21008:21071   */\n      tag_790\n        /* \"#utility.yul\":21065:21069   */\n      0xe0\n        /* \"#utility.yul\":21060:21063   */\n      dup7\n        /* \"#utility.yul\":21056:21070   */\n      add\n        /* \"#utility.yul\":21042:21054   */\n      dup3\n        /* \"#utility.yul\":21008:21071   */\n      tag_518\n      jump\t// in\n    tag_790:\n        /* \"#utility.yul\":20912:21081   */\n      pop\n        /* \"#utility.yul\":21170:21176   */\n      0x0100\n        /* \"#utility.yul\":21163:21168   */\n      dup4\n        /* \"#utility.yul\":21159:21177   */\n      add\n        /* \"#utility.yul\":21153:21178   */\n      mload\n        /* \"#utility.yul\":21191:21256   */\n      tag_791\n        /* \"#utility.yul\":21248:21254   */\n      0x0100\n        /* \"#utility.yul\":21243:21246   */\n      dup7\n        /* \"#utility.yul\":21239:21255   */\n      add\n        /* \"#utility.yul\":21225:21237   */\n      dup3\n        /* \"#utility.yul\":21191:21256   */\n      tag_518\n      jump\t// in\n    tag_791:\n        /* \"#utility.yul\":21091:21266   */\n      pop\n        /* \"#utility.yul\":21283:21287   */\n      dup1\n        /* \"#utility.yul\":21276:21287   */\n      swap2\n      pop\n        /* \"#utility.yul\":19521:21293   */\n      pop\n        /* \"#utility.yul\":19397:21293   */\n      swap3\n      swap2\n      pop\n      pop\n      jump\t// out\n        /* \"#utility.yul\":21299:21672   */\n    tag_105:\n        /* \"#utility.yul\":21442:21446   */\n      0x00\n        /* \"#utility.yul\":21480:21482   */\n      0x20\n        /* \"#utility.yul\":21469:21478   */\n      dup3\n        /* \"#utility.yul\":21465:21483   */\n      add\n        /* \"#utility.yul\":21457:21483   */\n      swap1\n      pop\n        /* \"#utility.yul\":21529:21538   */\n      dup2\n        /* \"#utility.yul\":21523:21527   */\n      dup2\n        /* \"#utility.yul\":21519:21539   */\n      sub\n        /* \"#utility.yul\":21515:21516   */\n      0x00\n        /* \"#utility.yul\":21504:21513   */\n      dup4\n        /* \"#utility.yul\":21500:21517   */\n      add\n        /* \"#utility.yul\":21493:21540   */\n      mstore\n        /* \"#utility.yul\":21557:21665   */\n      tag_793\n        /* \"#utility.yul\":21660:21664   */\n      dup2\n        /* \"#utility.yul\":21651:21657   */\n      dup5\n        /* \"#utility.yul\":21557:21665   */\n      tag_533\n      jump\t// in\n    tag_793:\n        /* \"#utility.yul\":21549:21665   */\n      swap1\n      pop\n        /* \"#utility.yul\":21299:21672   */\n      swap3\n      swap2\n      pop\n      pop\n      jump\t// out\n        /* \"#utility.yul\":21678:21847   */\n    tag_534:\n        /* \"#utility.yul\":21762:21773   */\n      0x00\n        /* \"#utility.yul\":21796:21802   */\n      dup3\n        /* \"#utility.yul\":21791:21794   */\n      dup3\n        /* \"#utility.yul\":21784:21803   */\n      mstore\n        /* \"#utility.yul\":21836:21840   */\n      0x20\n        /* \"#utility.yul\":21831:21834   */\n      dup3\n        /* \"#utility.yul\":21827:21841   */\n      add\n        /* \"#utility.yul\":21812:21841   */\n      swap1\n      pop\n        /* \"#utility.yul\":21678:21847   */\n      swap3\n      swap2\n      pop\n      pop\n      jump\t// out\n        /* \"#utility.yul\":21853:22022   */\n    tag_535:\n        /* \"#utility.yul\":21993:22014   */\n      0x57616c6c20646f6573206e6f7420657869737400000000000000000000000000\n        /* \"#utility.yul\":21989:21990   */\n      0x00\n        /* \"#utility.yul\":21981:21987   */\n      dup3\n        /* \"#utility.yul\":21977:21991   */\n      add\n        /* \"#utility.yul\":21970:22015   */\n      mstore\n        /* \"#utility.yul\":21853:22022   */\n      pop\n      jump\t// out\n        /* \"#utility.yul\":22028:22394   */\n    tag_536:\n        /* \"#utility.yul\":22170:22173   */\n      0x00\n        /* \"#utility.yul\":22191:22258   */\n      tag_797\n        /* \"#utility.yul\":22255:22257   */\n      0x13\n        /* \"#utility.yul\":22250:22253   */\n      dup4\n        /* \"#utility.yul\":22191:22258   */\n      tag_534\n      jump\t// in\n    tag_797:\n        /* \"#utility.yul\":22184:22258   */\n      swap2\n      pop\n        /* \"#utility.yul\":22267:22360   */\n      tag_798\n        /* \"#utility.yul\":22356:22359   */\n      dup3\n        /* \"#utility.yul\":22267:22360   */\n      tag_535\n      jump\t// in\n    tag_798:\n        /* \"#utility.yul\":22385:22387   */\n      0x20\n        /* \"#utility.yul\":22380:22383   */\n      dup3\n        /* \"#utility.yul\":22376:22388   */\n      add\n        /* \"#utility.yul\":22369:22388   */\n      swap1\n      pop\n        /* \"#utility.yul\":22028:22394   */\n      swap2\n      swap1\n      pop\n      jump\t// out\n        /* \"#utility.yul\":22400:22819   */\n    tag_109:\n        /* \"#utility.yul\":22566:22570   */\n      0x00\n        /* \"#utility.yul\":22604:22606   */\n      0x20\n        /* \"#utility.yul\":22593:22602   */\n      dup3\n        /* \"#utility.yul\":22589:22607   */\n      add\n        /* \"#utility.yul\":22581:22607   */\n      swap1\n      pop\n        /* \"#utility.yul\":22653:22662   */\n      dup2\n        /* \"#utility.yul\":22647:22651   */\n      dup2\n        /* \"#utility.yul\":22643:22663   */\n      sub\n        /* \"#utility.yul\":22639:22640   */\n      0x00\n        /* \"#utility.yul\":22628:22637   */\n      dup4\n        /* \"#utility.yul\":22624:22641   */\n      add\n        /* \"#utility.yul\":22617:22664   */\n      mstore\n        /* \"#utility.yul\":22681:22812   */\n      tag_800\n        /* \"#utility.yul\":22807:22811   */\n      dup2\n        /* \"#utility.yul\":22681:22812   */\n      tag_536\n      jump\t// in\n    tag_800:\n        /* \"#utility.yul\":22673:22812   */\n      swap1\n      pop\n        /* \"#utility.yul\":22400:22819   */\n      swap2\n      swap1\n      pop\n      jump\t// out\n        /* \"#utility.yul\":22825:22902   */\n    tag_537:\n        /* \"#utility.yul\":22862:22869   */\n      0x00\n        /* \"#utility.yul\":22891:22896   */\n      dup2\n        /* \"#utility.yul\":22880:22896   */\n      swap1\n      pop\n        /* \"#utility.yul\":22825:22902   */\n      swap2\n      swap1\n      pop\n      jump\t// out\n        /* \"#utility.yul\":22908:23030   */\n    tag_538:\n        /* \"#utility.yul\":22981:23005   */\n      tag_803\n        /* \"#utility.yul\":22999:23004   */\n      dup2\n        /* \"#utility.yul\":22981:23005   */\n      tag_537\n      jump\t// in\n    tag_803:\n        /* \"#utility.yul\":22974:22979   */\n      dup2\n        /* \"#utility.yul\":22971:23006   */\n      eq\n        /* \"#utility.yul\":22961:23024   */\n      tag_804\n      jumpi\n        /* \"#utility.yul\":23020:23021   */\n      0x00\n        /* \"#utility.yul\":23017:23018   */\n      dup1\n        /* \"#utility.yul\":23010:23022   */\n      revert\n        /* \"#utility.yul\":22961:23024   */\n    tag_804:\n        /* \"#utility.yul\":22908:23030   */\n      pop\n      jump\t// out\n        /* \"#utility.yul\":23036:23179   */\n    tag_539:\n        /* \"#utility.yul\":23093:23098   */\n      0x00\n        /* \"#utility.yul\":23124:23130   */\n      dup2\n        /* \"#utility.yul\":23118:23131   */\n      mload\n        /* \"#utility.yul\":23109:23131   */\n      swap1\n      pop\n        /* \"#utility.yul\":23140:23173   */\n      tag_806\n        /* \"#utility.yul\":23167:23172   */\n      dup2\n        /* \"#utility.yul\":23140:23173   */\n      tag_538\n      jump\t// in\n    tag_806:\n        /* \"#utility.yul\":23036:23179   */\n      swap3\n      swap2\n      pop\n      pop\n      jump\t// out\n        /* \"#utility.yul\":23185:23536   */\n    tag_115:\n        /* \"#utility.yul\":23255:23261   */\n      0x00\n        /* \"#utility.yul\":23304:23306   */\n      0x20\n        /* \"#utility.yul\":23292:23301   */\n      dup3\n        /* \"#utility.yul\":23283:23290   */\n      dup5\n        /* \"#utility.yul\":23279:23302   */\n      sub\n        /* \"#utility.yul\":23275:23307   */\n      slt\n        /* \"#utility.yul\":23272:23391   */\n      iszero\n      tag_808\n      jumpi\n        /* \"#utility.yul\":23310:23389   */\n      tag_809\n      tag_495\n      jump\t// in\n    tag_809:\n        /* \"#utility.yul\":23272:23391   */\n    tag_808:\n        /* \"#utility.yul\":23430:23431   */\n      0x00\n        /* \"#utility.yul\":23455:23519   */\n      tag_810\n        /* \"#utility.yul\":23511:23518   */\n      dup5\n        /* \"#utility.yul\":23502:23508   */\n      dup3\n        /* \"#utility.yul\":23491:23500   */\n      dup6\n        /* \"#utility.yul\":23487:23509   */\n      add\n        /* \"#utility.yul\":23455:23519   */\n      tag_539\n      jump\t// in\n    tag_810:\n        /* \"#utility.yul\":23445:23519   */\n      swap2\n      pop\n        /* \"#utility.yul\":23401:23529   */\n      pop\n        /* \"#utility.yul\":23185:23536   */\n      swap3\n      swap2\n      pop\n      pop\n      jump\t// out\n        /* \"#utility.yul\":23542:23660   */\n    tag_540:\n        /* \"#utility.yul\":23629:23653   */\n      tag_812\n        /* \"#utility.yul\":23647:23652   */\n      dup2\n        /* \"#utility.yul\":23629:23653   */\n      tag_537\n      jump\t// in\n    tag_812:\n        /* \"#utility.yul\":23624:23627   */\n      dup3\n        /* \"#utility.yul\":23617:23654   */\n      mstore\n        /* \"#utility.yul\":23542:23660   */\n      pop\n      pop\n      jump\t// out\n        /* \"#utility.yul\":23666:23998   */\n    tag_117:\n        /* \"#utility.yul\":23787:23791   */\n      0x00\n        /* \"#utility.yul\":23825:23827   */\n      0x40\n        /* \"#utility.yul\":23814:23823   */\n      dup3\n        /* \"#utility.yul\":23810:23828   */\n      add\n        /* \"#utility.yul\":23802:23828   */\n      swap1\n      pop\n        /* \"#utility.yul\":23838:23909   */\n      tag_814\n        /* \"#utility.yul\":23906:23907   */\n      0x00\n        /* \"#utility.yul\":23895:23904   */\n      dup4\n        /* \"#utility.yul\":23891:23908   */\n      add\n        /* \"#utility.yul\":23882:23888   */\n      dup6\n        /* \"#utility.yul\":23838:23909   */\n      tag_540\n      jump\t// in\n    tag_814:\n        /* \"#utility.yul\":23919:23991   */\n      tag_815\n        /* \"#utility.yul\":23987:23989   */\n      0x20\n        /* \"#utility.yul\":23976:23985   */\n      dup4\n        /* \"#utility.yul\":23972:23990   */\n      add\n        /* \"#utility.yul\":23963:23969   */\n      dup5\n        /* \"#utility.yul\":23919:23991   */\n      tag_503\n      jump\t// in\n    tag_815:\n        /* \"#utility.yul\":23666:23998   */\n      swap4\n      swap3\n      pop\n      pop\n      pop\n      jump\t// out\n        /* \"#utility.yul\":24004:24141   */\n    tag_541:\n        /* \"#utility.yul\":24058:24063   */\n      0x00\n        /* \"#utility.yul\":24089:24095   */\n      dup2\n        /* \"#utility.yul\":24083:24096   */\n      mload\n        /* \"#utility.yul\":24074:24096   */\n      swap1\n      pop\n        /* \"#utility.yul\":24105:24135   */\n      tag_817\n        /* \"#utility.yul\":24129:24134   */\n      dup2\n        /* \"#utility.yul\":24105:24135   */\n      tag_528\n      jump\t// in\n    tag_817:\n        /* \"#utility.yul\":24004:24141   */\n      swap3\n      swap2\n      pop\n      pop\n      jump\t// out\n        /* \"#utility.yul\":24147:24492   */\n    tag_121:\n        /* \"#utility.yul\":24214:24220   */\n      0x00\n        /* \"#utility.yul\":24263:24265   */\n      0x20\n        /* \"#utility.yul\":24251:24260   */\n      dup3\n        /* \"#utility.yul\":24242:24249   */\n      dup5\n        /* \"#utility.yul\":24238:24261   */\n      sub\n        /* \"#utility.yul\":24234:24266   */\n      slt\n        /* \"#utility.yul\":24231:24350   */\n      iszero\n      tag_819\n      jumpi\n        /* \"#utility.yul\":24269:24348   */\n      tag_820\n      tag_495\n      jump\t// in\n    tag_820:\n        /* \"#utility.yul\":24231:24350   */\n    tag_819:\n        /* \"#utility.yul\":24389:24390   */\n      0x00\n        /* \"#utility.yul\":24414:24475   */\n      tag_821\n        /* \"#utility.yul\":24467:24474   */\n      dup5\n        /* \"#utility.yul\":24458:24464   */\n      dup3\n        /* \"#utility.yul\":24447:24456   */\n      dup6\n        /* \"#utility.yul\":24443:24465   */\n      add\n        /* \"#utility.yul\":24414:24475   */\n      tag_541\n      jump\t// in\n    tag_821:\n        /* \"#utility.yul\":24404:24475   */\n      swap2\n      pop\n        /* \"#utility.yul\":24360:24485   */\n      pop\n        /* \"#utility.yul\":24147:24492   */\n      swap3\n      swap2\n      pop\n      pop\n      jump\t// out\n        /* \"#utility.yul\":24498:24662   */\n    tag_542:\n        /* \"#utility.yul\":24638:24654   */\n      0x4e6f7420617574686f72697a6564000000000000000000000000000000000000\n        /* \"#utility.yul\":24634:24635   */\n      0x00\n        /* \"#utility.yul\":24626:24632   */\n      dup3\n        /* \"#utility.yul\":24622:24636   */\n      add\n        /* \"#utility.yul\":24615:24655   */\n      mstore\n        /* \"#utility.yul\":24498:24662   */\n      pop\n      jump\t// out\n        /* \"#utility.yul\":24668:25034   */\n    tag_543:\n        /* \"#utility.yul\":24810:24813   */\n      0x00\n        /* \"#utility.yul\":24831:24898   */\n      tag_824\n        /* \"#utility.yul\":24895:24897   */\n      0x0e\n        /* \"#utility.yul\":24890:24893   */\n      dup4\n        /* \"#utility.yul\":24831:24898   */\n      tag_534\n      jump\t// in\n    tag_824:\n        /* \"#utility.yul\":24824:24898   */\n      swap2\n      pop\n        /* \"#utility.yul\":24907:25000   */\n      tag_825\n        /* \"#utility.yul\":24996:24999   */\n      dup3\n        /* \"#utility.yul\":24907:25000   */\n      tag_542\n      jump\t// in\n    tag_825:\n        /* \"#utility.yul\":25025:25027   */\n      0x20\n        /* \"#utility.yul\":25020:25023   */\n      dup3\n        /* \"#utility.yul\":25016:25028   */\n      add\n        /* \"#utility.yul\":25009:25028   */\n      swap1\n      pop\n        /* \"#utility.yul\":24668:25034   */\n      swap2\n      swap1\n      pop\n      jump\t// out\n        /* \"#utility.yul\":25040:25459   */\n    tag_124:\n        /* \"#utility.yul\":25206:25210   */\n      0x00\n        /* \"#utility.yul\":25244:25246   */\n      0x20\n        /* \"#utility.yul\":25233:25242   */\n      dup3\n        /* \"#utility.yul\":25229:25247   */\n      add\n        /* \"#utility.yul\":25221:25247   */\n      swap1\n      pop\n        /* \"#utility.yul\":25293:25302   */\n      dup2\n        /* \"#utility.yul\":25287:25291   */\n      dup2\n        /* \"#utility.yul\":25283:25303   */\n      sub\n        /* \"#utility.yul\":25279:25280   */\n      0x00\n        /* \"#utility.yul\":25268:25277   */\n      dup4\n        /* \"#utility.yul\":25264:25281   */\n      add\n        /* \"#utility.yul\":25257:25304   */\n      mstore\n        /* \"#utility.yul\":25321:25452   */\n      tag_827\n        /* \"#utility.yul\":25447:25451   */\n      dup2\n        /* \"#utility.yul\":25321:25452   */\n      tag_543\n      jump\t// in\n    tag_827:\n        /* \"#utility.yul\":25313:25452   */\n      swap1\n      pop\n        /* \"#utility.yul\":25040:25459   */\n      swap2\n      swap1\n      pop\n      jump\t// out\n        /* \"#utility.yul\":25465:25646   */\n    tag_544:\n        /* \"#utility.yul\":25605:25638   */\n      0x4d6178206f776e6572736869702070657263656e746167652069732039302500\n        /* \"#utility.yul\":25601:25602   */\n      0x00\n        /* \"#utility.yul\":25593:25599   */\n      dup3\n        /* \"#utility.yul\":25589:25603   */\n      add\n        /* \"#utility.yul\":25582:25639   */\n      mstore\n        /* \"#utility.yul\":25465:25646   */\n      pop\n      jump\t// out\n        /* \"#utility.yul\":25652:26018   */\n    tag_545:\n        /* \"#utility.yul\":25794:25797   */\n      0x00\n        /* \"#utility.yul\":25815:25882   */\n      tag_830\n        /* \"#utility.yul\":25879:25881   */\n      0x1f\n        /* \"#utility.yul\":25874:25877   */\n      dup4\n        /* \"#utility.yul\":25815:25882   */\n      tag_534\n      jump\t// in\n    tag_830:\n        /* \"#utility.yul\":25808:25882   */\n      swap2\n      pop\n        /* \"#utility.yul\":25891:25984   */\n      tag_831\n        /* \"#utility.yul\":25980:25983   */\n      dup3\n        /* \"#utility.yul\":25891:25984   */\n      tag_544\n      jump\t// in\n    tag_831:\n        /* \"#utility.yul\":26009:26011   */\n      0x20\n        /* \"#utility.yul\":26004:26007   */\n      dup3\n        /* \"#utility.yul\":26000:26012   */\n      add\n        /* \"#utility.yul\":25993:26012   */\n      swap1\n      pop\n        /* \"#utility.yul\":25652:26018   */\n      swap2\n      swap1\n      pop\n      jump\t// out\n        /* \"#utility.yul\":26024:26443   */\n    tag_131:\n        /* \"#utility.yul\":26190:26194   */\n      0x00\n        /* \"#utility.yul\":26228:26230   */\n      0x20\n        /* \"#utility.yul\":26217:26226   */\n      dup3\n        /* \"#utility.yul\":26213:26231   */\n      add\n        /* \"#utility.yul\":26205:26231   */\n      swap1\n      pop\n        /* \"#utility.yul\":26277:26286   */\n      dup2\n        /* \"#utility.yul\":26271:26275   */\n      dup2\n        /* \"#utility.yul\":26267:26287   */\n      sub\n        /* \"#utility.yul\":26263:26264   */\n      0x00\n        /* \"#utility.yul\":26252:26261   */\n      dup4\n        /* \"#utility.yul\":26248:26265   */\n      add\n        /* \"#utility.yul\":26241:26288   */\n      mstore\n        /* \"#utility.yul\":26305:26436   */\n      tag_833\n        /* \"#utility.yul\":26431:26435   */\n      dup2\n        /* \"#utility.yul\":26305:26436   */\n      tag_545\n      jump\t// in\n    tag_833:\n        /* \"#utility.yul\":26297:26436   */\n      swap1\n      pop\n        /* \"#utility.yul\":26024:26443   */\n      swap2\n      swap1\n      pop\n      jump\t// out\n        /* \"#utility.yul\":26449:26621   */\n    tag_546:\n        /* \"#utility.yul\":26589:26613   */\n      0x43616c6c6572206973206e6f7420616e2061646d696e00000000000000000000\n        /* \"#utility.yul\":26585:26586   */\n      0x00\n        /* \"#utility.yul\":26577:26583   */\n      dup3\n        /* \"#utility.yul\":26573:26587   */\n      add\n        /* \"#utility.yul\":26566:26614   */\n      mstore\n        /* \"#utility.yul\":26449:26621   */\n      pop\n      jump\t// out\n        /* \"#utility.yul\":26627:26993   */\n    tag_547:\n        /* \"#utility.yul\":26769:26772   */\n      0x00\n        /* \"#utility.yul\":26790:26857   */\n      tag_836\n        /* \"#utility.yul\":26854:26856   */\n      0x16\n        /* \"#utility.yul\":26849:26852   */\n      dup4\n        /* \"#utility.yul\":26790:26857   */\n      tag_534\n      jump\t// in\n    tag_836:\n        /* \"#utility.yul\":26783:26857   */\n      swap2\n      pop\n        /* \"#utility.yul\":26866:26959   */\n      tag_837\n        /* \"#utility.yul\":26955:26958   */\n      dup3\n        /* \"#utility.yul\":26866:26959   */\n      tag_546\n      jump\t// in\n    tag_837:\n        /* \"#utility.yul\":26984:26986   */\n      0x20\n        /* \"#utility.yul\":26979:26982   */\n      dup3\n        /* \"#utility.yul\":26975:26987   */\n      add\n        /* \"#utility.yul\":26968:26987   */\n      swap1\n      pop\n        /* \"#utility.yul\":26627:26993   */\n      swap2\n      swap1\n      pop\n      jump\t// out\n        /* \"#utility.yul\":26999:27418   */\n    tag_143:\n        /* \"#utility.yul\":27165:27169   */\n      0x00\n        /* \"#utility.yul\":27203:27205   */\n      0x20\n        /* \"#utility.yul\":27192:27201   */\n      dup3\n        /* \"#utility.yul\":27188:27206   */\n      add\n        /* \"#utility.yul\":27180:27206   */\n      swap1\n      pop\n        /* \"#utility.yul\":27252:27261   */\n      dup2\n        /* \"#utility.yul\":27246:27250   */\n      dup2\n        /* \"#utility.yul\":27242:27262   */\n      sub\n        /* \"#utility.yul\":27238:27239   */\n      0x00\n        /* \"#utility.yul\":27227:27236   */\n      dup4\n        /* \"#utility.yul\":27223:27240   */\n      add\n        /* \"#utility.yul\":27216:27263   */\n      mstore\n        /* \"#utility.yul\":27280:27411   */\n      tag_839\n        /* \"#utility.yul\":27406:27410   */\n      dup2\n        /* \"#utility.yul\":27280:27411   */\n      tag_547\n      jump\t// in\n    tag_839:\n        /* \"#utility.yul\":27272:27411   */\n      swap1\n      pop\n        /* \"#utility.yul\":26999:27418   */\n      swap2\n      swap1\n      pop\n      jump\t// out\n        /* \"#utility.yul\":27424:27598   */\n    tag_548:\n        /* \"#utility.yul\":27564:27590   */\n      0x496e76616c69642067616c6c65727920636f6e74726163740000000000000000\n        /* \"#utility.yul\":27560:27561   */\n      0x00\n        /* \"#utility.yul\":27552:27558   */\n      dup3\n        /* \"#utility.yul\":27548:27562   */\n      add\n        /* \"#utility.yul\":27541:27591   */\n      mstore\n        /* \"#utility.yul\":27424:27598   */\n      pop\n      jump\t// out\n        /* \"#utility.yul\":27604:27970   */\n    tag_549:\n        /* \"#utility.yul\":27746:27749   */\n      0x00\n        /* \"#utility.yul\":27767:27834   */\n      tag_842\n        /* \"#utility.yul\":27831:27833   */\n      0x18\n        /* \"#utility.yul\":27826:27829   */\n      dup4\n        /* \"#utility.yul\":27767:27834   */\n      tag_534\n      jump\t// in\n    tag_842:\n        /* \"#utility.yul\":27760:27834   */\n      swap2\n      pop\n        /* \"#utility.yul\":27843:27936   */\n      tag_843\n        /* \"#utility.yul\":27932:27935   */\n      dup3\n        /* \"#utility.yul\":27843:27936   */\n      tag_548\n      jump\t// in\n    tag_843:\n        /* \"#utility.yul\":27961:27963   */\n      0x20\n        /* \"#utility.yul\":27956:27959   */\n      dup3\n        /* \"#utility.yul\":27952:27964   */\n      add\n        /* \"#utility.yul\":27945:27964   */\n      swap1\n      pop\n        /* \"#utility.yul\":27604:27970   */\n      swap2\n      swap1\n      pop\n      jump\t// out\n        /* \"#utility.yul\":27976:28395   */\n    tag_147:\n        /* \"#utility.yul\":28142:28146   */\n      0x00\n        /* \"#utility.yul\":28180:28182   */\n      0x20\n        /* \"#utility.yul\":28169:28178   */\n      dup3\n        /* \"#utility.yul\":28165:28183   */\n      add\n        /* \"#utility.yul\":28157:28183   */\n      swap1\n      pop\n        /* \"#utility.yul\":28229:28238   */\n      dup2\n        /* \"#utility.yul\":28223:28227   */\n      dup2\n        /* \"#utility.yul\":28219:28239   */\n      sub\n        /* \"#utility.yul\":28215:28216   */\n      0x00\n        /* \"#utility.yul\":28204:28213   */\n      dup4\n        /* \"#utility.yul\":28200:28217   */\n      add\n        /* \"#utility.yul\":28193:28240   */\n      mstore\n        /* \"#utility.yul\":28257:28388   */\n      tag_845\n        /* \"#utility.yul\":28383:28387   */\n      dup2\n        /* \"#utility.yul\":28257:28388   */\n      tag_549\n      jump\t// in\n    tag_845:\n        /* \"#utility.yul\":28249:28388   */\n      swap1\n      pop\n        /* \"#utility.yul\":27976:28395   */\n      swap2\n      swap1\n      pop\n      jump\t// out\n        /* \"#utility.yul\":28401:28581   */\n    tag_550:\n        /* \"#utility.yul\":28449:28526   */\n      0x4e487b7100000000000000000000000000000000000000000000000000000000\n        /* \"#utility.yul\":28446:28447   */\n      0x00\n        /* \"#utility.yul\":28439:28527   */\n      mstore\n        /* \"#utility.yul\":28546:28550   */\n      0x22\n        /* \"#utility.yul\":28543:28544   */\n      0x04\n        /* \"#utility.yul\":28536:28551   */\n      mstore\n        /* \"#utility.yul\":28570:28574   */\n      0x24\n        /* \"#utility.yul\":28567:28568   */\n      0x00\n        /* \"#utility.yul\":28560:28575   */\n      revert\n        /* \"#utility.yul\":28587:28907   */\n    tag_162:\n        /* \"#utility.yul\":28631:28637   */\n      0x00\n        /* \"#utility.yul\":28668:28669   */\n      0x02\n        /* \"#utility.yul\":28662:28666   */\n      dup3\n        /* \"#utility.yul\":28658:28670   */\n      div\n        /* \"#utility.yul\":28648:28670   */\n      swap1\n      pop\n        /* \"#utility.yul\":28715:28716   */\n      0x01\n        /* \"#utility.yul\":28709:28713   */\n      dup3\n        /* \"#utility.yul\":28705:28717   */\n      and\n        /* \"#utility.yul\":28736:28754   */\n      dup1\n        /* \"#utility.yul\":28726:28807   */\n      tag_848\n      jumpi\n        /* \"#utility.yul\":28792:28796   */\n      0x7f\n        /* \"#utility.yul\":28784:28790   */\n      dup3\n        /* \"#utility.yul\":28780:28797   */\n      and\n        /* \"#utility.yul\":28770:28797   */\n      swap2\n      pop\n        /* \"#utility.yul\":28726:28807   */\n    tag_848:\n        /* \"#utility.yul\":28854:28856   */\n      0x20\n        /* \"#utility.yul\":28846:28852   */\n      dup3\n        /* \"#utility.yul\":28843:28857   */\n      lt\n        /* \"#utility.yul\":28823:28841   */\n      dup2\n        /* \"#utility.yul\":28820:28858   */\n      sub\n        /* \"#utility.yul\":28817:28901   */\n      tag_849\n      jumpi\n        /* \"#utility.yul\":28873:28891   */\n      tag_850\n      tag_550\n      jump\t// in\n    tag_850:\n        /* \"#utility.yul\":28817:28901   */\n    tag_849:\n        /* \"#utility.yul\":28638:28907   */\n      pop\n        /* \"#utility.yul\":28587:28907   */\n      swap2\n      swap1\n      pop\n      jump\t// out\n        /* \"#utility.yul\":28913:29094   */\n    tag_551:\n        /* \"#utility.yul\":29053:29086   */\n      0x4e6f7420617574686f72697a656420746f207669657720726571756573747300\n        /* \"#utility.yul\":29049:29050   */\n      0x00\n        /* \"#utility.yul\":29041:29047   */\n      dup3\n        /* \"#utility.yul\":29037:29051   */\n      add\n        /* \"#utility.yul\":29030:29087   */\n      mstore\n        /* \"#utility.yul\":28913:29094   */\n      pop\n      jump\t// out\n        /* \"#utility.yul\":29100:29466   */\n    tag_552:\n        /* \"#utility.yul\":29242:29245   */\n      0x00\n        /* \"#utility.yul\":29263:29330   */\n      tag_853\n        /* \"#utility.yul\":29327:29329   */\n      0x1f\n        /* \"#utility.yul\":29322:29325   */\n      dup4\n        /* \"#utility.yul\":29263:29330   */\n      tag_534\n      jump\t// in\n    tag_853:\n        /* \"#utility.yul\":29256:29330   */\n      swap2\n      pop\n        /* \"#utility.yul\":29339:29432   */\n      tag_854\n        /* \"#utility.yul\":29428:29431   */\n      dup3\n        /* \"#utility.yul\":29339:29432   */\n      tag_551\n      jump\t// in\n    tag_854:\n        /* \"#utility.yul\":29457:29459   */\n      0x20\n        /* \"#utility.yul\":29452:29455   */\n      dup3\n        /* \"#utility.yul\":29448:29460   */\n      add\n        /* \"#utility.yul\":29441:29460   */\n      swap1\n      pop\n        /* \"#utility.yul\":29100:29466   */\n      swap2\n      swap1\n      pop\n      jump\t// out\n        /* \"#utility.yul\":29472:29891   */\n    tag_213:\n        /* \"#utility.yul\":29638:29642   */\n      0x00\n        /* \"#utility.yul\":29676:29678   */\n      0x20\n        /* \"#utility.yul\":29665:29674   */\n      dup3\n        /* \"#utility.yul\":29661:29679   */\n      add\n        /* \"#utility.yul\":29653:29679   */\n      swap1\n      pop\n        /* \"#utility.yul\":29725:29734   */\n      dup2\n        /* \"#utility.yul\":29719:29723   */\n      dup2\n        /* \"#utility.yul\":29715:29735   */\n      sub\n        /* \"#utility.yul\":29711:29712   */\n      0x00\n        /* \"#utility.yul\":29700:29709   */\n      dup4\n        /* \"#utility.yul\":29696:29713   */\n      add\n        /* \"#utility.yul\":29689:29736   */\n      mstore\n        /* \"#utility.yul\":29753:29884   */\n      tag_856\n        /* \"#utility.yul\":29879:29883   */\n      dup2\n        /* \"#utility.yul\":29753:29884   */\n      tag_552\n      jump\t// in\n    tag_856:\n        /* \"#utility.yul\":29745:29884   */\n      swap1\n      pop\n        /* \"#utility.yul\":29472:29891   */\n      swap2\n      swap1\n      pop\n      jump\t// out\n        /* \"#utility.yul\":29897:30138   */\n    tag_553:\n        /* \"#utility.yul\":30037:30071   */\n      0x4d75737420686176652057414c4c5f4f574e45525f524f4c4520746f20726571\n        /* \"#utility.yul\":30033:30034   */\n      0x00\n        /* \"#utility.yul\":30025:30031   */\n      dup3\n        /* \"#utility.yul\":30021:30035   */\n      add\n        /* \"#utility.yul\":30014:30072   */\n      mstore\n        /* \"#utility.yul\":30106:30130   */\n      0x756573742077616c6c20726567697374726174696f6e00000000000000000000\n        /* \"#utility.yul\":30101:30103   */\n      0x20\n        /* \"#utility.yul\":30093:30099   */\n      dup3\n        /* \"#utility.yul\":30089:30104   */\n      add\n        /* \"#utility.yul\":30082:30131   */\n      mstore\n        /* \"#utility.yul\":29897:30138   */\n      pop\n      jump\t// out\n        /* \"#utility.yul\":30144:30510   */\n    tag_554:\n        /* \"#utility.yul\":30286:30289   */\n      0x00\n        /* \"#utility.yul\":30307:30374   */\n      tag_859\n        /* \"#utility.yul\":30371:30373   */\n      0x36\n        /* \"#utility.yul\":30366:30369   */\n      dup4\n        /* \"#utility.yul\":30307:30374   */\n      tag_534\n      jump\t// in\n    tag_859:\n        /* \"#utility.yul\":30300:30374   */\n      swap2\n      pop\n        /* \"#utility.yul\":30383:30476   */\n      tag_860\n        /* \"#utility.yul\":30472:30475   */\n      dup3\n        /* \"#utility.yul\":30383:30476   */\n      tag_553\n      jump\t// in\n    tag_860:\n        /* \"#utility.yul\":30501:30503   */\n      0x40\n        /* \"#utility.yul\":30496:30499   */\n      dup3\n        /* \"#utility.yul\":30492:30504   */\n      add\n        /* \"#utility.yul\":30485:30504   */\n      swap1\n      pop\n        /* \"#utility.yul\":30144:30510   */\n      swap2\n      swap1\n      pop\n      jump\t// out\n        /* \"#utility.yul\":30516:30935   */\n    tag_241:\n        /* \"#utility.yul\":30682:30686   */\n      0x00\n        /* \"#utility.yul\":30720:30722   */\n      0x20\n        /* \"#utility.yul\":30709:30718   */\n      dup3\n        /* \"#utility.yul\":30705:30723   */\n      add\n        /* \"#utility.yul\":30697:30723   */\n      swap1\n      pop\n        /* \"#utility.yul\":30769:30778   */\n      dup2\n        /* \"#utility.yul\":30763:30767   */\n      dup2\n        /* \"#utility.yul\":30759:30779   */\n      sub\n        /* \"#utility.yul\":30755:30756   */\n      0x00\n        /* \"#utility.yul\":30744:30753   */\n      dup4\n        /* \"#utility.yul\":30740:30757   */\n      add\n        /* \"#utility.yul\":30733:30780   */\n      mstore\n        /* \"#utility.yul\":30797:30928   */\n      tag_862\n        /* \"#utility.yul\":30923:30927   */\n      dup2\n        /* \"#utility.yul\":30797:30928   */\n      tag_554\n      jump\t// in\n    tag_862:\n        /* \"#utility.yul\":30789:30928   */\n      swap1\n      pop\n        /* \"#utility.yul\":30516:30935   */\n      swap2\n      swap1\n      pop\n      jump\t// out\n        /* \"#utility.yul\":30941:31112   */\n    tag_555:\n        /* \"#utility.yul\":31081:31104   */\n      0x496e76616c6964206c6f636174696f6e20646174610000000000000000000000\n        /* \"#utility.yul\":31077:31078   */\n      0x00\n        /* \"#utility.yul\":31069:31075   */\n      dup3\n        /* \"#utility.yul\":31065:31079   */\n      add\n        /* \"#utility.yul\":31058:31105   */\n      mstore\n        /* \"#utility.yul\":30941:31112   */\n      pop\n      jump\t// out\n        /* \"#utility.yul\":31118:31484   */\n    tag_556:\n        /* \"#utility.yul\":31260:31263   */\n      0x00\n        /* \"#utility.yul\":31281:31348   */\n      tag_865\n        /* \"#utility.yul\":31345:31347   */\n      0x15\n        /* \"#utility.yul\":31340:31343   */\n      dup4\n        /* \"#utility.yul\":31281:31348   */\n      tag_534\n      jump\t// in\n    tag_865:\n        /* \"#utility.yul\":31274:31348   */\n      swap2\n      pop\n        /* \"#utility.yul\":31357:31450   */\n      tag_866\n        /* \"#utility.yul\":31446:31449   */\n      dup3\n        /* \"#utility.yul\":31357:31450   */\n      tag_555\n      jump\t// in\n    tag_866:\n        /* \"#utility.yul\":31475:31477   */\n      0x20\n        /* \"#utility.yul\":31470:31473   */\n      dup3\n        /* \"#utility.yul\":31466:31478   */\n      add\n        /* \"#utility.yul\":31459:31478   */\n      swap1\n      pop\n        /* \"#utility.yul\":31118:31484   */\n      swap2\n      swap1\n      pop\n      jump\t// out\n        /* \"#utility.yul\":31490:31909   */\n    tag_245:\n        /* \"#utility.yul\":31656:31660   */\n      0x00\n        /* \"#utility.yul\":31694:31696   */\n      0x20\n        /* \"#utility.yul\":31683:31692   */\n      dup3\n        /* \"#utility.yul\":31679:31697   */\n      add\n        /* \"#utility.yul\":31671:31697   */\n      swap1\n      pop\n        /* \"#utility.yul\":31743:31752   */\n      dup2\n        /* \"#utility.yul\":31737:31741   */\n      dup2\n        /* \"#utility.yul\":31733:31753   */\n      sub\n        /* \"#utility.yul\":31729:31730   */\n      0x00\n        /* \"#utility.yul\":31718:31727   */\n      dup4\n        /* \"#utility.yul\":31714:31731   */\n      add\n        /* \"#utility.yul\":31707:31754   */\n      mstore\n        /* \"#utility.yul\":31771:31902   */\n      tag_868\n        /* \"#utility.yul\":31897:31901   */\n      dup2\n        /* \"#utility.yul\":31771:31902   */\n      tag_556\n      jump\t// in\n    tag_868:\n        /* \"#utility.yul\":31763:31902   */\n      swap1\n      pop\n        /* \"#utility.yul\":31490:31909   */\n      swap2\n      swap1\n      pop\n      jump\t// out\n        /* \"#utility.yul\":31915:32077   */\n    tag_557:\n        /* \"#utility.yul\":32055:32069   */\n      0x496e76616c69642073697a650000000000000000000000000000000000000000\n        /* \"#utility.yul\":32051:32052   */\n      0x00\n        /* \"#utility.yul\":32043:32049   */\n      dup3\n        /* \"#utility.yul\":32039:32053   */\n      add\n        /* \"#utility.yul\":32032:32070   */\n      mstore\n        /* \"#utility.yul\":31915:32077   */\n      pop\n      jump\t// out\n        /* \"#utility.yul\":32083:32449   */\n    tag_558:\n        /* \"#utility.yul\":32225:32228   */\n      0x00\n        /* \"#utility.yul\":32246:32313   */\n      tag_871\n        /* \"#utility.yul\":32310:32312   */\n      0x0c\n        /* \"#utility.yul\":32305:32308   */\n      dup4\n        /* \"#utility.yul\":32246:32313   */\n      tag_534\n      jump\t// in\n    tag_871:\n        /* \"#utility.yul\":32239:32313   */\n      swap2\n      pop\n        /* \"#utility.yul\":32322:32415   */\n      tag_872\n        /* \"#utility.yul\":32411:32414   */\n      dup3\n        /* \"#utility.yul\":32322:32415   */\n      tag_557\n      jump\t// in\n    tag_872:\n        /* \"#utility.yul\":32440:32442   */\n      0x20\n        /* \"#utility.yul\":32435:32438   */\n      dup3\n        /* \"#utility.yul\":32431:32443   */\n      add\n        /* \"#utility.yul\":32424:32443   */\n      swap1\n      pop\n        /* \"#utility.yul\":32083:32449   */\n      swap2\n      swap1\n      pop\n      jump\t// out\n        /* \"#utility.yul\":32455:32874   */\n    tag_248:\n        /* \"#utility.yul\":32621:32625   */\n      0x00\n        /* \"#utility.yul\":32659:32661   */\n      0x20\n        /* \"#utility.yul\":32648:32657   */\n      dup3\n        /* \"#utility.yul\":32644:32662   */\n      add\n        /* \"#utility.yul\":32636:32662   */\n      swap1\n      pop\n        /* \"#utility.yul\":32708:32717   */\n      dup2\n        /* \"#utility.yul\":32702:32706   */\n      dup2\n        /* \"#utility.yul\":32698:32718   */\n      sub\n        /* \"#utility.yul\":32694:32695   */\n      0x00\n        /* \"#utility.yul\":32683:32692   */\n      dup4\n        /* \"#utility.yul\":32679:32696   */\n      add\n        /* \"#utility.yul\":32672:32719   */\n      mstore\n        /* \"#utility.yul\":32736:32867   */\n      tag_874\n        /* \"#utility.yul\":32862:32866   */\n      dup2\n        /* \"#utility.yul\":32736:32867   */\n      tag_558\n      jump\t// in\n    tag_874:\n        /* \"#utility.yul\":32728:32867   */\n      swap1\n      pop\n        /* \"#utility.yul\":32455:32874   */\n      swap2\n      swap1\n      pop\n      jump\t// out\n        /* \"#utility.yul\":32880:33060   */\n    tag_559:\n        /* \"#utility.yul\":32928:33005   */\n      0x4e487b7100000000000000000000000000000000000000000000000000000000\n        /* \"#utility.yul\":32925:32926   */\n      0x00\n        /* \"#utility.yul\":32918:33006   */\n      mstore\n        /* \"#utility.yul\":33025:33029   */\n      0x41\n        /* \"#utility.yul\":33022:33023   */\n      0x04\n        /* \"#utility.yul\":33015:33030   */\n      mstore\n        /* \"#utility.yul\":33049:33053   */\n      0x24\n        /* \"#utility.yul\":33046:33047   */\n      0x00\n        /* \"#utility.yul\":33039:33054   */\n      revert\n        /* \"#utility.yul\":33066:33207   */\n    tag_560:\n        /* \"#utility.yul\":33115:33119   */\n      0x00\n        /* \"#utility.yul\":33138:33141   */\n      dup2\n        /* \"#utility.yul\":33130:33141   */\n      swap1\n      pop\n        /* \"#utility.yul\":33161:33164   */\n      dup2\n        /* \"#utility.yul\":33158:33159   */\n      0x00\n        /* \"#utility.yul\":33151:33165   */\n      mstore\n        /* \"#utility.yul\":33195:33199   */\n      0x20\n        /* \"#utility.yul\":33192:33193   */\n      0x00\n        /* \"#utility.yul\":33182:33200   */\n      keccak256\n        /* \"#utility.yul\":33174:33200   */\n      swap1\n      pop\n        /* \"#utility.yul\":33066:33207   */\n      swap2\n      swap1\n      pop\n      jump\t// out\n        /* \"#utility.yul\":33213:33306   */\n    tag_561:\n        /* \"#utility.yul\":33250:33256   */\n      0x00\n        /* \"#utility.yul\":33297:33299   */\n      0x20\n        /* \"#utility.yul\":33292:33294   */\n      0x1f\n        /* \"#utility.yul\":33285:33290   */\n      dup4\n        /* \"#utility.yul\":33281:33295   */\n      add\n        /* \"#utility.yul\":33277:33300   */\n      div\n        /* \"#utility.yul\":33267:33300   */\n      swap1\n      pop\n        /* \"#utility.yul\":33213:33306   */\n      swap2\n      swap1\n      pop\n      jump\t// out\n        /* \"#utility.yul\":33312:33419   */\n    tag_562:\n        /* \"#utility.yul\":33356:33364   */\n      0x00\n        /* \"#utility.yul\":33406:33411   */\n      dup3\n        /* \"#utility.yul\":33400:33404   */\n      dup3\n        /* \"#utility.yul\":33396:33412   */\n      shl\n        /* \"#utility.yul\":33375:33412   */\n      swap1\n      pop\n        /* \"#utility.yul\":33312:33419   */\n      swap3\n      swap2\n      pop\n      pop\n      jump\t// out\n        /* \"#utility.yul\":33425:33818   */\n    tag_563:\n        /* \"#utility.yul\":33494:33500   */\n      0x00\n        /* \"#utility.yul\":33544:33545   */\n      0x08\n        /* \"#utility.yul\":33532:33542   */\n      dup4\n        /* \"#utility.yul\":33528:33546   */\n      mul\n        /* \"#utility.yul\":33567:33664   */\n      tag_880\n        /* \"#utility.yul\":33597:33663   */\n      0xffffffffffffffffffffffffffffffffffffffffffffffffffffffffffffffff\n        /* \"#utility.yul\":33586:33595   */\n      dup3\n        /* \"#utility.yul\":33567:33664   */\n      tag_562\n      jump\t// in\n    tag_880:\n        /* \"#utility.yul\":33685:33724   */\n      tag_881\n        /* \"#utility.yul\":33715:33723   */\n      dup7\n        /* \"#utility.yul\":33704:33713   */\n      dup4\n        /* \"#utility.yul\":33685:33724   */\n      tag_562\n      jump\t// in\n    tag_881:\n        /* \"#utility.yul\":33673:33724   */\n      swap6\n      pop\n        /* \"#utility.yul\":33757:33761   */\n      dup1\n        /* \"#utility.yul\":33753:33762   */\n      not\n        /* \"#utility.yul\":33746:33751   */\n      dup5\n        /* \"#utility.yul\":33742:33763   */\n      and\n        /* \"#utility.yul\":33733:33763   */\n      swap4\n      pop\n        /* \"#utility.yul\":33806:33810   */\n      dup1\n        /* \"#utility.yul\":33796:33804   */\n      dup7\n        /* \"#utility.yul\":33792:33811   */\n      and\n        /* \"#utility.yul\":33785:33790   */\n      dup5\n        /* \"#utility.yul\":33782:33812   */\n      or\n        /* \"#utility.yul\":33772:33812   */\n      swap3\n      pop\n        /* \"#utility.yul\":33501:33818   */\n      pop\n      pop\n        /* \"#utility.yul\":33425:33818   */\n      swap4\n      swap3\n      pop\n      pop\n      pop\n      jump\t// out\n        /* \"#utility.yul\":33824:33966   */\n    tag_564:\n        /* \"#utility.yul\":33874:33883   */\n      0x00\n        /* \"#utility.yul\":33907:33960   */\n      tag_883\n        /* \"#utility.yul\":33925:33959   */\n      tag_884\n        /* \"#utility.yul\":33934:33958   */\n      tag_885\n        /* \"#utility.yul\":33952:33957   */\n      dup5\n        /* \"#utility.yul\":33934:33958   */\n      tag_497\n      jump\t// in\n    tag_885:\n        /* \"#utility.yul\":33925:33959   */\n      tag_489\n      jump\t// in\n    tag_884:\n        /* \"#utility.yul\":33907:33960   */\n      tag_497\n      jump\t// in\n    tag_883:\n        /* \"#utility.yul\":33894:33960   */\n      swap1\n      pop\n        /* \"#utility.yul\":33824:33966   */\n      swap2\n      swap1\n      pop\n      jump\t// out\n        /* \"#utility.yul\":33972:34047   */\n    tag_565:\n        /* \"#utility.yul\":34015:34018   */\n      0x00\n        /* \"#utility.yul\":34036:34041   */\n      dup2\n        /* \"#utility.yul\":34029:34041   */\n      swap1\n      pop\n        /* \"#utility.yul\":33972:34047   */\n      swap2\n      swap1\n      pop\n      jump\t// out\n        /* \"#utility.yul\":34053:34322   */\n    tag_566:\n        /* \"#utility.yul\":34163:34202   */\n      tag_888\n        /* \"#utility.yul\":34194:34201   */\n      dup4\n        /* \"#utility.yul\":34163:34202   */\n      tag_564\n      jump\t// in\n    tag_888:\n        /* \"#utility.yul\":34224:34315   */\n      tag_889\n        /* \"#utility.yul\":34273:34314   */\n      tag_890\n        /* \"#utility.yul\":34297:34313   */\n      dup3\n        /* \"#utility.yul\":34273:34314   */\n      tag_565\n      jump\t// in\n    tag_890:\n        /* \"#utility.yul\":34265:34271   */\n      dup5\n        /* \"#utility.yul\":34258:34262   */\n      dup5\n        /* \"#utility.yul\":34252:34263   */\n      sload\n        /* \"#utility.yul\":34224:34315   */\n      tag_563\n      jump\t// in\n    tag_889:\n        /* \"#utility.yul\":34218:34222   */\n      dup3\n        /* \"#utility.yul\":34211:34316   */\n      sstore\n        /* \"#utility.yul\":34129:34322   */\n      pop\n        /* \"#utility.yul\":34053:34322   */\n      pop\n      pop\n      pop\n      jump\t// out\n        /* \"#utility.yul\":34328:34401   */\n    tag_567:\n        /* \"#utility.yul\":34373:34376   */\n      0x00\n        /* \"#utility.yul\":34328:34401   */\n      swap1\n      jump\t// out\n        /* \"#utility.yul\":34407:34596   */\n    tag_568:\n        /* \"#utility.yul\":34484:34516   */\n      tag_893\n      tag_567\n      jump\t// in\n    tag_893:\n        /* \"#utility.yul\":34525:34590   */\n      tag_894\n        /* \"#utility.yul\":34583:34589   */\n      dup2\n        /* \"#utility.yul\":34575:34581   */\n      dup5\n        /* \"#utility.yul\":34569:34573   */\n      dup5\n        /* \"#utility.yul\":34525:34590   */\n      tag_566\n      jump\t// in\n    tag_894:\n        /* \"#utility.yul\":34460:34596   */\n      pop\n        /* \"#utility.yul\":34407:34596   */\n      pop\n      pop\n      jump\t// out\n        /* \"#utility.yul\":34602:34788   */\n    tag_569:\n        /* \"#utility.yul\":34662:34782   */\n    tag_896:\n        /* \"#utility.yul\":34679:34682   */\n      dup2\n        /* \"#utility.yul\":34672:34677   */\n      dup2\n        /* \"#utility.yul\":34669:34683   */\n      lt\n        /* \"#utility.yul\":34662:34782   */\n      iszero\n      tag_898\n      jumpi\n        /* \"#utility.yul\":34733:34772   */\n      tag_899\n        /* \"#utility.yul\":34770:34771   */\n      0x00\n        /* \"#utility.yul\":34763:34768   */\n      dup3\n        /* \"#utility.yul\":34733:34772   */\n      tag_568\n      jump\t// in\n    tag_899:\n        /* \"#utility.yul\":34706:34707   */\n      0x01\n        /* \"#utility.yul\":34699:34704   */\n      dup2\n        /* \"#utility.yul\":34695:34708   */\n      add\n        /* \"#utility.yul\":34686:34708   */\n      swap1\n      pop\n        /* \"#utility.yul\":34662:34782   */\n      jump(tag_896)\n    tag_898:\n        /* \"#utility.yul\":34602:34788   */\n      pop\n      pop\n      jump\t// out\n        /* \"#utility.yul\":34794:35337   */\n    tag_570:\n        /* \"#utility.yul\":34895:34897   */\n      0x1f\n        /* \"#utility.yul\":34890:34893   */\n      dup3\n        /* \"#utility.yul\":34887:34898   */\n      gt\n        /* \"#utility.yul\":34884:35330   */\n      iszero\n      tag_901\n      jumpi\n        /* \"#utility.yul\":34929:34967   */\n      tag_902\n        /* \"#utility.yul\":34961:34966   */\n      dup2\n        /* \"#utility.yul\":34929:34967   */\n      tag_560\n      jump\t// in\n    tag_902:\n        /* \"#utility.yul\":35013:35042   */\n      tag_903\n        /* \"#utility.yul\":35031:35041   */\n      dup5\n        /* \"#utility.yul\":35013:35042   */\n      tag_561\n      jump\t// in\n    tag_903:\n        /* \"#utility.yul\":35003:35011   */\n      dup2\n        /* \"#utility.yul\":34999:35043   */\n      add\n        /* \"#utility.yul\":35196:35198   */\n      0x20\n        /* \"#utility.yul\":35184:35194   */\n      dup6\n        /* \"#utility.yul\":35181:35199   */\n      lt\n        /* \"#utility.yul\":35178:35227   */\n      iszero\n      tag_904\n      jumpi\n        /* \"#utility.yul\":35217:35225   */\n      dup2\n        /* \"#utility.yul\":35202:35225   */\n      swap1\n      pop\n        /* \"#utility.yul\":35178:35227   */\n    tag_904:\n        /* \"#utility.yul\":35240:35320   */\n      tag_905\n        /* \"#utility.yul\":35296:35318   */\n      tag_906\n        /* \"#utility.yul\":35314:35317   */\n      dup6\n        /* \"#utility.yul\":35296:35318   */\n      tag_561\n      jump\t// in\n    tag_906:\n        /* \"#utility.yul\":35286:35294   */\n      dup4\n        /* \"#utility.yul\":35282:35319   */\n      add\n        /* \"#utility.yul\":35269:35280   */\n      dup3\n        /* \"#utility.yul\":35240:35320   */\n      tag_569\n      jump\t// in\n    tag_905:\n        /* \"#utility.yul\":34899:35330   */\n      pop\n      pop\n        /* \"#utility.yul\":34884:35330   */\n    tag_901:\n        /* \"#utility.yul\":34794:35337   */\n      pop\n      pop\n      pop\n      jump\t// out\n        /* \"#utility.yul\":35343:35460   */\n    tag_571:\n        /* \"#utility.yul\":35397:35405   */\n      0x00\n        /* \"#utility.yul\":35447:35452   */\n      dup3\n        /* \"#utility.yul\":35441:35445   */\n      dup3\n        /* \"#utility.yul\":35437:35453   */\n      shr\n        /* \"#utility.yul\":35416:35453   */\n      swap1\n      pop\n        /* \"#utility.yul\":35343:35460   */\n      swap3\n      swap2\n      pop\n      pop\n      jump\t// out\n        /* \"#utility.yul\":35466:35635   */\n    tag_572:\n        /* \"#utility.yul\":35510:35516   */\n      0x00\n        /* \"#utility.yul\":35543:35594   */\n      tag_909\n        /* \"#utility.yul\":35591:35592   */\n      0x00\n        /* \"#utility.yul\":35587:35593   */\n      not\n        /* \"#utility.yul\":35579:35584   */\n      dup5\n        /* \"#utility.yul\":35576:35577   */\n      0x08\n        /* \"#utility.yul\":35572:35585   */\n      mul\n        /* \"#utility.yul\":35543:35594   */\n      tag_571\n      jump\t// in\n    tag_909:\n        /* \"#utility.yul\":35539:35595   */\n      not\n        /* \"#utility.yul\":35624:35628   */\n      dup1\n        /* \"#utility.yul\":35618:35622   */\n      dup4\n        /* \"#utility.yul\":35614:35629   */\n      and\n        /* \"#utility.yul\":35604:35629   */\n      swap2\n      pop\n        /* \"#utility.yul\":35517:35635   */\n      pop\n        /* \"#utility.yul\":35466:35635   */\n      swap3\n      swap2\n      pop\n      pop\n      jump\t// out\n        /* \"#utility.yul\":35640:35935   */\n    tag_573:\n        /* \"#utility.yul\":35716:35720   */\n      0x00\n        /* \"#utility.yul\":35862:35891   */\n      tag_911\n        /* \"#utility.yul\":35887:35890   */\n      dup4\n        /* \"#utility.yul\":35881:35885   */\n      dup4\n        /* \"#utility.yul\":35862:35891   */\n      tag_572\n      jump\t// in\n    tag_911:\n        /* \"#utility.yul\":35854:35891   */\n      swap2\n      pop\n        /* \"#utility.yul\":35924:35927   */\n      dup3\n        /* \"#utility.yul\":35921:35922   */\n      0x02\n        /* \"#utility.yul\":35917:35928   */\n      mul\n        /* \"#utility.yul\":35911:35915   */\n      dup3\n        /* \"#utility.yul\":35908:35929   */\n      or\n        /* \"#utility.yul\":35900:35929   */\n      swap1\n      pop\n        /* \"#utility.yul\":35640:35935   */\n      swap3\n      swap2\n      pop\n      pop\n      jump\t// out\n        /* \"#utility.yul\":35940:37335   */\n    tag_254:\n        /* \"#utility.yul\":36057:36094   */\n      tag_913\n        /* \"#utility.yul\":36090:36093   */\n      dup3\n        /* \"#utility.yul\":36057:36094   */\n      tag_504\n      jump\t// in\n    tag_913:\n        /* \"#utility.yul\":36159:36177   */\n      0xffffffffffffffff\n        /* \"#utility.yul\":36151:36157   */\n      dup2\n        /* \"#utility.yul\":36148:36178   */\n      gt\n        /* \"#utility.yul\":36145:36201   */\n      iszero\n      tag_914\n      jumpi\n        /* \"#utility.yul\":36181:36199   */\n      tag_915\n      tag_559\n      jump\t// in\n    tag_915:\n        /* \"#utility.yul\":36145:36201   */\n    tag_914:\n        /* \"#utility.yul\":36225:36263   */\n      tag_916\n        /* \"#utility.yul\":36257:36261   */\n      dup3\n        /* \"#utility.yul\":36251:36262   */\n      sload\n        /* \"#utility.yul\":36225:36263   */\n      tag_162\n      jump\t// in\n    tag_916:\n        /* \"#utility.yul\":36310:36377   */\n      tag_917\n        /* \"#utility.yul\":36370:36376   */\n      dup3\n        /* \"#utility.yul\":36362:36368   */\n      dup3\n        /* \"#utility.yul\":36356:36360   */\n      dup6\n        /* \"#utility.yul\":36310:36377   */\n      tag_570\n      jump\t// in\n    tag_917:\n        /* \"#utility.yul\":36404:36405   */\n      0x00\n        /* \"#utility.yul\":36428:36432   */\n      0x20\n        /* \"#utility.yul\":36415:36432   */\n      swap1\n      pop\n        /* \"#utility.yul\":36460:36462   */\n      0x1f\n        /* \"#utility.yul\":36452:36458   */\n      dup4\n        /* \"#utility.yul\":36449:36463   */\n      gt\n        /* \"#utility.yul\":36477:36478   */\n      0x01\n        /* \"#utility.yul\":36472:37090   */\n      dup2\n      eq\n      tag_919\n      jumpi\n        /* \"#utility.yul\":37134:37135   */\n      0x00\n        /* \"#utility.yul\":37151:37157   */\n      dup5\n        /* \"#utility.yul\":37148:37225   */\n      iszero\n      tag_920\n      jumpi\n        /* \"#utility.yul\":37200:37209   */\n      dup3\n        /* \"#utility.yul\":37195:37198   */\n      dup8\n        /* \"#utility.yul\":37191:37210   */\n      add\n        /* \"#utility.yul\":37185:37211   */\n      mload\n        /* \"#utility.yul\":37176:37211   */\n      swap1\n      pop\n        /* \"#utility.yul\":37148:37225   */\n    tag_920:\n        /* \"#utility.yul\":37251:37318   */\n      tag_921\n        /* \"#utility.yul\":37311:37317   */\n      dup6\n        /* \"#utility.yul\":37304:37309   */\n      dup3\n        /* \"#utility.yul\":37251:37318   */\n      tag_573\n      jump\t// in\n    tag_921:\n        /* \"#utility.yul\":37245:37249   */\n      dup7\n        /* \"#utility.yul\":37238:37319   */\n      sstore\n        /* \"#utility.yul\":37107:37329   */\n      pop\n        /* \"#utility.yul\":36442:37329   */\n      jump(tag_918)\n        /* \"#utility.yul\":36472:37090   */\n    tag_919:\n        /* \"#utility.yul\":36524:36528   */\n      0x1f\n        /* \"#utility.yul\":36520:36529   */\n      not\n        /* \"#utility.yul\":36512:36518   */\n      dup5\n        /* \"#utility.yul\":36508:36530   */\n      and\n        /* \"#utility.yul\":36558:36595   */\n      tag_922\n        /* \"#utility.yul\":36590:36594   */\n      dup7\n        /* \"#utility.yul\":36558:36595   */\n      tag_560\n      jump\t// in\n    tag_922:\n        /* \"#utility.yul\":36617:36618   */\n      0x00\n        /* \"#utility.yul\":36631:36839   */\n    tag_923:\n        /* \"#utility.yul\":36645:36652   */\n      dup3\n        /* \"#utility.yul\":36642:36643   */\n      dup2\n        /* \"#utility.yul\":36639:36653   */\n      lt\n        /* \"#utility.yul\":36631:36839   */\n      iszero\n      tag_925\n      jumpi\n        /* \"#utility.yul\":36724:36733   */\n      dup5\n        /* \"#utility.yul\":36719:36722   */\n      dup10\n        /* \"#utility.yul\":36715:36734   */\n      add\n        /* \"#utility.yul\":36709:36735   */\n      mload\n        /* \"#utility.yul\":36701:36707   */\n      dup3\n        /* \"#utility.yul\":36694:36736   */\n      sstore\n        /* \"#utility.yul\":36775:36776   */\n      0x01\n        /* \"#utility.yul\":36767:36773   */\n      dup3\n        /* \"#utility.yul\":36763:36777   */\n      add\n        /* \"#utility.yul\":36753:36777   */\n      swap2\n      pop\n        /* \"#utility.yul\":36822:36824   */\n      0x20\n        /* \"#utility.yul\":36811:36820   */\n      dup6\n        /* \"#utility.yul\":36807:36825   */\n      add\n        /* \"#utility.yul\":36794:36825   */\n      swap5\n      pop\n        /* \"#utility.yul\":36668:36672   */\n      0x20\n        /* \"#utility.yul\":36665:36666   */\n      dup2\n        /* \"#utility.yul\":36661:36673   */\n      add\n        /* \"#utility.yul\":36656:36673   */\n      swap1\n      pop\n        /* \"#utility.yul\":36631:36839   */\n      jump(tag_923)\n    tag_925:\n        /* \"#utility.yul\":36867:36873   */\n      dup7\n        /* \"#utility.yul\":36858:36865   */\n      dup4\n        /* \"#utility.yul\":36855:36874   */\n      lt\n        /* \"#utility.yul\":36852:37031   */\n      iszero\n      tag_926\n      jumpi\n        /* \"#utility.yul\":36925:36934   */\n      dup5\n        /* \"#utility.yul\":36920:36923   */\n      dup10\n        /* \"#utility.yul\":36916:36935   */\n      add\n        /* \"#utility.yul\":36910:36936   */\n      mload\n        /* \"#utility.yul\":36968:37016   */\n      tag_927\n        /* \"#utility.yul\":37010:37014   */\n      0x1f\n        /* \"#utility.yul\":37002:37008   */\n      dup10\n        /* \"#utility.yul\":36998:37015   */\n      and\n        /* \"#utility.yul\":36987:36996   */\n      dup3\n        /* \"#utility.yul\":36968:37016   */\n      tag_572\n      jump\t// in\n    tag_927:\n        /* \"#utility.yul\":36960:36966   */\n      dup4\n        /* \"#utility.yul\":36953:37017   */\n      sstore\n        /* \"#utility.yul\":36875:37031   */\n      pop\n        /* \"#utility.yul\":36852:37031   */\n    tag_926:\n        /* \"#utility.yul\":37077:37078   */\n      0x01\n        /* \"#utility.yul\":37073:37074   */\n      0x02\n        /* \"#utility.yul\":37065:37071   */\n      dup9\n        /* \"#utility.yul\":37061:37075   */\n      mul\n        /* \"#utility.yul\":37057:37079   */\n      add\n        /* \"#utility.yul\":37051:37055   */\n      dup9\n        /* \"#utility.yul\":37044:37080   */\n      sstore\n        /* \"#utility.yul\":36479:37090   */\n      pop\n      pop\n      pop\n        /* \"#utility.yul\":36442:37329   */\n    tag_918:\n      pop\n        /* \"#utility.yul\":36032:37335   */\n      pop\n      pop\n      pop\n        /* \"#utility.yul\":35940:37335   */\n      pop\n      pop\n      jump\t// out\n        /* \"#utility.yul\":37341:37438   */\n    tag_574:\n        /* \"#utility.yul\":37400:37406   */\n      0x00\n        /* \"#utility.yul\":37428:37431   */\n      dup3\n        /* \"#utility.yul\":37418:37431   */\n      swap1\n      pop\n        /* \"#utility.yul\":37341:37438   */\n      swap3\n      swap2\n      pop\n      pop\n      jump\t// out\n        /* \"#utility.yul\":37444:38847   */\n    tag_281:\n        /* \"#utility.yul\":37568:37612   */\n      tag_930\n        /* \"#utility.yul\":37608:37611   */\n      dup4\n        /* \"#utility.yul\":37603:37606   */\n      dup4\n        /* \"#utility.yul\":37568:37612   */\n      tag_574\n      jump\t// in\n    tag_930:\n        /* \"#utility.yul\":37677:37695   */\n      0xffffffffffffffff\n        /* \"#utility.yul\":37669:37675   */\n      dup2\n        /* \"#utility.yul\":37666:37696   */\n      gt\n        /* \"#utility.yul\":37663:37719   */\n      iszero\n      tag_931\n      jumpi\n        /* \"#utility.yul\":37699:37717   */\n      tag_932\n      tag_559\n      jump\t// in\n    tag_932:\n        /* \"#utility.yul\":37663:37719   */\n    tag_931:\n        /* \"#utility.yul\":37743:37781   */\n      tag_933\n        /* \"#utility.yul\":37775:37779   */\n      dup3\n        /* \"#utility.yul\":37769:37780   */\n      sload\n        /* \"#utility.yul\":37743:37781   */\n      tag_162\n      jump\t// in\n    tag_933:\n        /* \"#utility.yul\":37828:37895   */\n      tag_934\n        /* \"#utility.yul\":37888:37894   */\n      dup3\n        /* \"#utility.yul\":37880:37886   */\n      dup3\n        /* \"#utility.yul\":37874:37878   */\n      dup6\n        /* \"#utility.yul\":37828:37895   */\n      tag_570\n      jump\t// in\n    tag_934:\n        /* \"#utility.yul\":37922:37923   */\n      0x00\n        /* \"#utility.yul\":37951:37953   */\n      0x1f\n        /* \"#utility.yul\":37943:37949   */\n      dup4\n        /* \"#utility.yul\":37940:37954   */\n      gt\n        /* \"#utility.yul\":37968:37969   */\n      0x01\n        /* \"#utility.yul\":37963:38595   */\n      dup2\n      eq\n      tag_936\n      jumpi\n        /* \"#utility.yul\":38639:38640   */\n      0x00\n        /* \"#utility.yul\":38656:38662   */\n      dup5\n        /* \"#utility.yul\":38653:38737   */\n      iszero\n      tag_937\n      jumpi\n        /* \"#utility.yul\":38712:38721   */\n      dup3\n        /* \"#utility.yul\":38707:38710   */\n      dup8\n        /* \"#utility.yul\":38703:38722   */\n      add\n        /* \"#utility.yul\":38690:38723   */\n      calldataload\n        /* \"#utility.yul\":38681:38723   */\n      swap1\n      pop\n        /* \"#utility.yul\":38653:38737   */\n    tag_937:\n        /* \"#utility.yul\":38763:38830   */\n      tag_938\n        /* \"#utility.yul\":38823:38829   */\n      dup6\n        /* \"#utility.yul\":38816:38821   */\n      dup3\n        /* \"#utility.yul\":38763:38830   */\n      tag_573\n      jump\t// in\n    tag_938:\n        /* \"#utility.yul\":38757:38761   */\n      dup7\n        /* \"#utility.yul\":38750:38831   */\n      sstore\n        /* \"#utility.yul\":38612:38841   */\n      pop\n        /* \"#utility.yul\":37933:38841   */\n      jump(tag_935)\n        /* \"#utility.yul\":37963:38595   */\n    tag_936:\n        /* \"#utility.yul\":38015:38019   */\n      0x1f\n        /* \"#utility.yul\":38011:38020   */\n      not\n        /* \"#utility.yul\":38003:38009   */\n      dup5\n        /* \"#utility.yul\":37999:38021   */\n      and\n        /* \"#utility.yul\":38049:38086   */\n      tag_939\n        /* \"#utility.yul\":38081:38085   */\n      dup7\n        /* \"#utility.yul\":38049:38086   */\n      tag_560\n      jump\t// in\n    tag_939:\n        /* \"#utility.yul\":38108:38109   */\n      0x00\n        /* \"#utility.yul\":38122:38337   */\n    tag_940:\n        /* \"#utility.yul\":38136:38143   */\n      dup3\n        /* \"#utility.yul\":38133:38134   */\n      dup2\n        /* \"#utility.yul\":38130:38144   */\n      lt\n        /* \"#utility.yul\":38122:38337   */\n      iszero\n      tag_942\n      jumpi\n        /* \"#utility.yul\":38222:38231   */\n      dup5\n        /* \"#utility.yul\":38217:38220   */\n      dup10\n        /* \"#utility.yul\":38213:38232   */\n      add\n        /* \"#utility.yul\":38200:38233   */\n      calldataload\n        /* \"#utility.yul\":38192:38198   */\n      dup3\n        /* \"#utility.yul\":38185:38234   */\n      sstore\n        /* \"#utility.yul\":38273:38274   */\n      0x01\n        /* \"#utility.yul\":38265:38271   */\n      dup3\n        /* \"#utility.yul\":38261:38275   */\n      add\n        /* \"#utility.yul\":38251:38275   */\n      swap2\n      pop\n        /* \"#utility.yul\":38320:38322   */\n      0x20\n        /* \"#utility.yul\":38309:38318   */\n      dup6\n        /* \"#utility.yul\":38305:38323   */\n      add\n        /* \"#utility.yul\":38292:38323   */\n      swap5\n      pop\n        /* \"#utility.yul\":38159:38163   */\n      0x20\n        /* \"#utility.yul\":38156:38157   */\n      dup2\n        /* \"#utility.yul\":38152:38164   */\n      add\n        /* \"#utility.yul\":38147:38164   */\n      swap1\n      pop\n        /* \"#utility.yul\":38122:38337   */\n      jump(tag_940)\n    tag_942:\n        /* \"#utility.yul\":38365:38371   */\n      dup7\n        /* \"#utility.yul\":38356:38363   */\n      dup4\n        /* \"#utility.yul\":38353:38372   */\n      lt\n        /* \"#utility.yul\":38350:38536   */\n      iszero\n      tag_943\n      jumpi\n        /* \"#utility.yul\":38430:38439   */\n      dup5\n        /* \"#utility.yul\":38425:38428   */\n      dup10\n        /* \"#utility.yul\":38421:38440   */\n      add\n        /* \"#utility.yul\":38408:38441   */\n      calldataload\n        /* \"#utility.yul\":38473:38521   */\n      tag_944\n        /* \"#utility.yul\":38515:38519   */\n      0x1f\n        /* \"#utility.yul\":38507:38513   */\n      dup10\n        /* \"#utility.yul\":38503:38520   */\n      and\n        /* \"#utility.yul\":38492:38501   */\n      dup3\n        /* \"#utility.yul\":38473:38521   */\n      tag_572\n      jump\t// in\n    tag_944:\n        /* \"#utility.yul\":38465:38471   */\n      dup4\n        /* \"#utility.yul\":38458:38522   */\n      sstore\n        /* \"#utility.yul\":38373:38536   */\n      pop\n        /* \"#utility.yul\":38350:38536   */\n    tag_943:\n        /* \"#utility.yul\":38582:38583   */\n      0x01\n        /* \"#utility.yul\":38578:38579   */\n      0x02\n        /* \"#utility.yul\":38570:38576   */\n      dup9\n        /* \"#utility.yul\":38566:38580   */\n      mul\n        /* \"#utility.yul\":38562:38584   */\n      add\n        /* \"#utility.yul\":38556:38560   */\n      dup9\n        /* \"#utility.yul\":38549:38585   */\n      sstore\n        /* \"#utility.yul\":37970:38595   */\n      pop\n      pop\n      pop\n        /* \"#utility.yul\":37933:38841   */\n    tag_935:\n      pop\n        /* \"#utility.yul\":37543:38847   */\n      pop\n      pop\n      pop\n        /* \"#utility.yul\":37444:38847   */\n      pop\n      pop\n      pop\n      jump\t// out\n        /* \"#utility.yul\":38853:39020   */\n    tag_575:\n        /* \"#utility.yul\":38993:39012   */\n      0x496e76616c6964206e6577206f776e6572000000000000000000000000000000\n        /* \"#utility.yul\":38989:38990   */\n      0x00\n        /* \"#utility.yul\":38981:38987   */\n      dup3\n        /* \"#utility.yul\":38977:38991   */\n      add\n        /* \"#utility.yul\":38970:39013   */\n      mstore\n        /* \"#utility.yul\":38853:39020   */\n      pop\n      jump\t// out\n        /* \"#utility.yul\":39026:39392   */\n    tag_576:\n        /* \"#utility.yul\":39168:39171   */\n      0x00\n        /* \"#utility.yul\":39189:39256   */\n      tag_947\n        /* \"#utility.yul\":39253:39255   */\n      0x11\n        /* \"#utility.yul\":39248:39251   */\n      dup4\n        /* \"#utility.yul\":39189:39256   */\n      tag_534\n      jump\t// in\n    tag_947:\n        /* \"#utility.yul\":39182:39256   */\n      swap2\n      pop\n        /* \"#utility.yul\":39265:39358   */\n      tag_948\n        /* \"#utility.yul\":39354:39357   */\n      dup3\n        /* \"#utility.yul\":39265:39358   */\n      tag_575\n      jump\t// in\n    tag_948:\n        /* \"#utility.yul\":39383:39385   */\n      0x20\n        /* \"#utility.yul\":39378:39381   */\n      dup3\n        /* \"#utility.yul\":39374:39386   */\n      add\n        /* \"#utility.yul\":39367:39386   */\n      swap1\n      pop\n        /* \"#utility.yul\":39026:39392   */\n      swap2\n      swap1\n      pop\n      jump\t// out\n        /* \"#utility.yul\":39398:39817   */\n    tag_303:\n        /* \"#utility.yul\":39564:39568   */\n      0x00\n        /* \"#utility.yul\":39602:39604   */\n      0x20\n        /* \"#utility.yul\":39591:39600   */\n      dup3\n        /* \"#utility.yul\":39587:39605   */\n      add\n        /* \"#utility.yul\":39579:39605   */\n      swap1\n      pop\n        /* \"#utility.yul\":39651:39660   */\n      dup2\n        /* \"#utility.yul\":39645:39649   */\n      dup2\n        /* \"#utility.yul\":39641:39661   */\n      sub\n        /* \"#utility.yul\":39637:39638   */\n      0x00\n        /* \"#utility.yul\":39626:39635   */\n      dup4\n        /* \"#utility.yul\":39622:39639   */\n      add\n        /* \"#utility.yul\":39615:39662   */\n      mstore\n        /* \"#utility.yul\":39679:39810   */\n      tag_950\n        /* \"#utility.yul\":39805:39809   */\n      dup2\n        /* \"#utility.yul\":39679:39810   */\n      tag_576\n      jump\t// in\n    tag_950:\n        /* \"#utility.yul\":39671:39810   */\n      swap1\n      pop\n        /* \"#utility.yul\":39398:39817   */\n      swap2\n      swap1\n      pop\n      jump\t// out\n        /* \"#utility.yul\":39823:40045   */\n    tag_577:\n        /* \"#utility.yul\":39963:39997   */\n      0x4e6577206f776e6572206d75737420686176652057414c4c5f4f574e45525f52\n        /* \"#utility.yul\":39959:39960   */\n      0x00\n        /* \"#utility.yul\":39951:39957   */\n      dup3\n        /* \"#utility.yul\":39947:39961   */\n      add\n        /* \"#utility.yul\":39940:39998   */\n      mstore\n        /* \"#utility.yul\":40032:40037   */\n      0x4f4c450000000000000000000000000000000000000000000000000000000000\n        /* \"#utility.yul\":40027:40029   */\n      0x20\n        /* \"#utility.yul\":40019:40025   */\n      dup3\n        /* \"#utility.yul\":40015:40030   */\n      add\n        /* \"#utility.yul\":40008:40038   */\n      mstore\n        /* \"#utility.yul\":39823:40045   */\n      pop\n      jump\t// out\n        /* \"#utility.yul\":40051:40417   */\n    tag_578:\n        /* \"#utility.yul\":40193:40196   */\n      0x00\n        /* \"#utility.yul\":40214:40281   */\n      tag_953\n        /* \"#utility.yul\":40278:40280   */\n      0x23\n        /* \"#utility.yul\":40273:40276   */\n      dup4\n        /* \"#utility.yul\":40214:40281   */\n      tag_534\n      jump\t// in\n    tag_953:\n        /* \"#utility.yul\":40207:40281   */\n      swap2\n      pop\n        /* \"#utility.yul\":40290:40383   */\n      tag_954\n        /* \"#utility.yul\":40379:40382   */\n      dup3\n        /* \"#utility.yul\":40290:40383   */\n      tag_577\n      jump\t// in\n    tag_954:\n        /* \"#utility.yul\":40408:40410   */\n      0x40\n        /* \"#utility.yul\":40403:40406   */\n      dup3\n        /* \"#utility.yul\":40399:40411   */\n      add\n        /* \"#utility.yul\":40392:40411   */\n      swap1\n      pop\n        /* \"#utility.yul\":40051:40417   */\n      swap2\n      swap1\n      pop\n      jump\t// out\n        /* \"#utility.yul\":40423:40842   */\n    tag_313:\n        /* \"#utility.yul\":40589:40593   */\n      0x00\n        /* \"#utility.yul\":40627:40629   */\n      0x20\n        /* \"#utility.yul\":40616:40625   */\n      dup3\n        /* \"#utility.yul\":40612:40630   */\n      add\n        /* \"#utility.yul\":40604:40630   */\n      swap1\n      pop\n        /* \"#utility.yul\":40676:40685   */\n      dup2\n        /* \"#utility.yul\":40670:40674   */\n      dup2\n        /* \"#utility.yul\":40666:40686   */\n      sub\n        /* \"#utility.yul\":40662:40663   */\n      0x00\n        /* \"#utility.yul\":40651:40660   */\n      dup4\n        /* \"#utility.yul\":40647:40664   */\n      add\n        /* \"#utility.yul\":40640:40687   */\n      mstore\n        /* \"#utility.yul\":40704:40835   */\n      tag_956\n        /* \"#utility.yul\":40830:40834   */\n      dup2\n        /* \"#utility.yul\":40704:40835   */\n      tag_578\n      jump\t// in\n    tag_956:\n        /* \"#utility.yul\":40696:40835   */\n      swap1\n      pop\n        /* \"#utility.yul\":40423:40842   */\n      swap2\n      swap1\n      pop\n      jump\t// out\n        /* \"#utility.yul\":40848:41017   */\n    tag_579:\n        /* \"#utility.yul\":40988:41009   */\n      0x52657175657374206e6f742070656e64696e6700000000000000000000000000\n        /* \"#utility.yul\":40984:40985   */\n      0x00\n        /* \"#utility.yul\":40976:40982   */\n      dup3\n        /* \"#utility.yul\":40972:40986   */\n      add\n        /* \"#utility.yul\":40965:41010   */\n      mstore\n        /* \"#utility.yul\":40848:41017   */\n      pop\n      jump\t// out\n        /* \"#utility.yul\":41023:41389   */\n    tag_580:\n        /* \"#utility.yul\":41165:41168   */\n      0x00\n        /* \"#utility.yul\":41186:41253   */\n      tag_959\n        /* \"#utility.yul\":41250:41252   */\n      0x13\n        /* \"#utility.yul\":41245:41248   */\n      dup4\n        /* \"#utility.yul\":41186:41253   */\n      tag_534\n      jump\t// in\n    tag_959:\n        /* \"#utility.yul\":41179:41253   */\n      swap2\n      pop\n        /* \"#utility.yul\":41262:41355   */\n      tag_960\n        /* \"#utility.yul\":41351:41354   */\n      dup3\n        /* \"#utility.yul\":41262:41355   */\n      tag_579\n      jump\t// in\n    tag_960:\n        /* \"#utility.yul\":41380:41382   */\n      0x20\n        /* \"#utility.yul\":41375:41378   */\n      dup3\n        /* \"#utility.yul\":41371:41383   */\n      add\n        /* \"#utility.yul\":41364:41383   */\n      swap1\n      pop\n        /* \"#utility.yul\":41023:41389   */\n      swap2\n      swap1\n      pop\n      jump\t// out\n        /* \"#utility.yul\":41395:41814   */\n    tag_332:\n        /* \"#utility.yul\":41561:41565   */\n      0x00\n        /* \"#utility.yul\":41599:41601   */\n      0x20\n        /* \"#utility.yul\":41588:41597   */\n      dup3\n        /* \"#utility.yul\":41584:41602   */\n      add\n        /* \"#utility.yul\":41576:41602   */\n      swap1\n      pop\n        /* \"#utility.yul\":41648:41657   */\n      dup2\n        /* \"#utility.yul\":41642:41646   */\n      dup2\n        /* \"#utility.yul\":41638:41658   */\n      sub\n        /* \"#utility.yul\":41634:41635   */\n      0x00\n        /* \"#utility.yul\":41623:41632   */\n      dup4\n        /* \"#utility.yul\":41619:41636   */\n      add\n        /* \"#utility.yul\":41612:41659   */\n      mstore\n        /* \"#utility.yul\":41676:41807   */\n      tag_962\n        /* \"#utility.yul\":41802:41806   */\n      dup2\n        /* \"#utility.yul\":41676:41807   */\n      tag_580\n      jump\t// in\n    tag_962:\n        /* \"#utility.yul\":41668:41807   */\n      swap1\n      pop\n        /* \"#utility.yul\":41395:41814   */\n      swap2\n      swap1\n      pop\n      jump\t// out\n        /* \"#utility.yul\":41820:42046   */\n    tag_581:\n        /* \"#utility.yul\":41960:41994   */\n      0x526571756573746572206d757374206d61696e7461696e2057414c4c5f4f574e\n        /* \"#utility.yul\":41956:41957   */\n      0x00\n        /* \"#utility.yul\":41948:41954   */\n      dup3\n        /* \"#utility.yul\":41944:41958   */\n      add\n        /* \"#utility.yul\":41937:41995   */\n      mstore\n        /* \"#utility.yul\":42029:42038   */\n      0x45525f524f4c4500000000000000000000000000000000000000000000000000\n        /* \"#utility.yul\":42024:42026   */\n      0x20\n        /* \"#utility.yul\":42016:42022   */\n      dup3\n        /* \"#utility.yul\":42012:42027   */\n      add\n        /* \"#utility.yul\":42005:42039   */\n      mstore\n        /* \"#utility.yul\":41820:42046   */\n      pop\n      jump\t// out\n        /* \"#utility.yul\":42052:42418   */\n    tag_582:\n        /* \"#utility.yul\":42194:42197   */\n      0x00\n        /* \"#utility.yul\":42215:42282   */\n      tag_965\n        /* \"#utility.yul\":42279:42281   */\n      0x27\n        /* \"#utility.yul\":42274:42277   */\n      dup4\n        /* \"#utility.yul\":42215:42282   */\n      tag_534\n      jump\t// in\n    tag_965:\n        /* \"#utility.yul\":42208:42282   */\n      swap2\n      pop\n        /* \"#utility.yul\":42291:42384   */\n      tag_966\n        /* \"#utility.yul\":42380:42383   */\n      dup3\n        /* \"#utility.yul\":42291:42384   */\n      tag_581\n      jump\t// in\n    tag_966:\n        /* \"#utility.yul\":42409:42411   */\n      0x40\n        /* \"#utility.yul\":42404:42407   */\n      dup3\n        /* \"#utility.yul\":42400:42412   */\n      add\n        /* \"#utility.yul\":42393:42412   */\n      swap1\n      pop\n        /* \"#utility.yul\":42052:42418   */\n      swap2\n      swap1\n      pop\n      jump\t// out\n        /* \"#utility.yul\":42424:42843   */\n    tag_342:\n        /* \"#utility.yul\":42590:42594   */\n      0x00\n        /* \"#utility.yul\":42628:42630   */\n      0x20\n        /* \"#utility.yul\":42617:42626   */\n      dup3\n        /* \"#utility.yul\":42613:42631   */\n      add\n        /* \"#utility.yul\":42605:42631   */\n      swap1\n      pop\n        /* \"#utility.yul\":42677:42686   */\n      dup2\n        /* \"#utility.yul\":42671:42675   */\n      dup2\n        /* \"#utility.yul\":42667:42687   */\n      sub\n        /* \"#utility.yul\":42663:42664   */\n      0x00\n        /* \"#utility.yul\":42652:42661   */\n      dup4\n        /* \"#utility.yul\":42648:42665   */\n      add\n        /* \"#utility.yul\":42641:42688   */\n      mstore\n        /* \"#utility.yul\":42705:42836   */\n      tag_968\n        /* \"#utility.yul\":42831:42835   */\n      dup2\n        /* \"#utility.yul\":42705:42836   */\n      tag_582\n      jump\t// in\n    tag_968:\n        /* \"#utility.yul\":42697:42836   */\n      swap1\n      pop\n        /* \"#utility.yul\":42424:42843   */\n      swap2\n      swap1\n      pop\n      jump\t// out\n        /* \"#utility.yul\":42849:43029   */\n    tag_583:\n        /* \"#utility.yul\":42989:43021   */\n      0x4f6e6c792067616c6c65727920636f6e74726163742063616e2063616c6c0000\n        /* \"#utility.yul\":42985:42986   */\n      0x00\n        /* \"#utility.yul\":42977:42983   */\n      dup3\n        /* \"#utility.yul\":42973:42987   */\n      add\n        /* \"#utility.yul\":42966:43022   */\n      mstore\n        /* \"#utility.yul\":42849:43029   */\n      pop\n      jump\t// out\n        /* \"#utility.yul\":43035:43401   */\n    tag_584:\n        /* \"#utility.yul\":43177:43180   */\n      0x00\n        /* \"#utility.yul\":43198:43265   */\n      tag_971\n        /* \"#utility.yul\":43262:43264   */\n      0x1e\n        /* \"#utility.yul\":43257:43260   */\n      dup4\n        /* \"#utility.yul\":43198:43265   */\n      tag_534\n      jump\t// in\n    tag_971:\n        /* \"#utility.yul\":43191:43265   */\n      swap2\n      pop\n        /* \"#utility.yul\":43274:43367   */\n      tag_972\n        /* \"#utility.yul\":43363:43366   */\n      dup3\n        /* \"#utility.yul\":43274:43367   */\n      tag_583\n      jump\t// in\n    tag_972:\n        /* \"#utility.yul\":43392:43394   */\n      0x20\n        /* \"#utility.yul\":43387:43390   */\n      dup3\n        /* \"#utility.yul\":43383:43395   */\n      add\n        /* \"#utility.yul\":43376:43395   */\n      swap1\n      pop\n        /* \"#utility.yul\":43035:43401   */\n      swap2\n      swap1\n      pop\n      jump\t// out\n        /* \"#utility.yul\":43407:43826   */\n    tag_370:\n        /* \"#utility.yul\":43573:43577   */\n      0x00\n        /* \"#utility.yul\":43611:43613   */\n      0x20\n        /* \"#utility.yul\":43600:43609   */\n      dup3\n        /* \"#utility.yul\":43596:43614   */\n      add\n        /* \"#utility.yul\":43588:43614   */\n      swap1\n      pop\n        /* \"#utility.yul\":43660:43669   */\n      dup2\n        /* \"#utility.yul\":43654:43658   */\n      dup2\n        /* \"#utility.yul\":43650:43670   */\n      sub\n        /* \"#utility.yul\":43646:43647   */\n      0x00\n        /* \"#utility.yul\":43635:43644   */\n      dup4\n        /* \"#utility.yul\":43631:43648   */\n      add\n        /* \"#utility.yul\":43624:43671   */\n      mstore\n        /* \"#utility.yul\":43688:43819   */\n      tag_974\n        /* \"#utility.yul\":43814:43818   */\n      dup2\n        /* \"#utility.yul\":43688:43819   */\n      tag_584\n      jump\t// in\n    tag_974:\n        /* \"#utility.yul\":43680:43819   */\n      swap1\n      pop\n        /* \"#utility.yul\":43407:43826   */\n      swap2\n      swap1\n      pop\n      jump\t// out\n        /* \"#utility.yul\":43832:43998   */\n    tag_585:\n        /* \"#utility.yul\":43972:43990   */\n      0x5061757361626c653a2070617573656400000000000000000000000000000000\n        /* \"#utility.yul\":43968:43969   */\n      0x00\n        /* \"#utility.yul\":43960:43966   */\n      dup3\n        /* \"#utility.yul\":43956:43970   */\n      add\n        /* \"#utility.yul\":43949:43991   */\n      mstore\n        /* \"#utility.yul\":43832:43998   */\n      pop\n      jump\t// out\n        /* \"#utility.yul\":44004:44370   */\n    tag_586:\n        /* \"#utility.yul\":44146:44149   */\n      0x00\n        /* \"#utility.yul\":44167:44234   */\n      tag_977\n        /* \"#utility.yul\":44231:44233   */\n      0x10\n        /* \"#utility.yul\":44226:44229   */\n      dup4\n        /* \"#utility.yul\":44167:44234   */\n      tag_534\n      jump\t// in\n    tag_977:\n        /* \"#utility.yul\":44160:44234   */\n      swap2\n      pop\n        /* \"#utility.yul\":44243:44336   */\n      tag_978\n        /* \"#utility.yul\":44332:44335   */\n      dup3\n        /* \"#utility.yul\":44243:44336   */\n      tag_585\n      jump\t// in\n    tag_978:\n        /* \"#utility.yul\":44361:44363   */\n      0x20\n        /* \"#utility.yul\":44356:44359   */\n      dup3\n        /* \"#utility.yul\":44352:44364   */\n      add\n        /* \"#utility.yul\":44345:44364   */\n      swap1\n      pop\n        /* \"#utility.yul\":44004:44370   */\n      swap2\n      swap1\n      pop\n      jump\t// out\n        /* \"#utility.yul\":44376:44795   */\n    tag_418:\n        /* \"#utility.yul\":44542:44546   */\n      0x00\n        /* \"#utility.yul\":44580:44582   */\n      0x20\n        /* \"#utility.yul\":44569:44578   */\n      dup3\n        /* \"#utility.yul\":44565:44583   */\n      add\n        /* \"#utility.yul\":44557:44583   */\n      swap1\n      pop\n        /* \"#utility.yul\":44629:44638   */\n      dup2\n        /* \"#utility.yul\":44623:44627   */\n      dup2\n        /* \"#utility.yul\":44619:44639   */\n      sub\n        /* \"#utility.yul\":44615:44616   */\n      0x00\n        /* \"#utility.yul\":44604:44613   */\n      dup4\n        /* \"#utility.yul\":44600:44617   */\n      add\n        /* \"#utility.yul\":44593:44640   */\n      mstore\n        /* \"#utility.yul\":44657:44788   */\n      tag_980\n        /* \"#utility.yul\":44783:44787   */\n      dup2\n        /* \"#utility.yul\":44657:44788   */\n      tag_586\n      jump\t// in\n    tag_980:\n        /* \"#utility.yul\":44649:44788   */\n      swap1\n      pop\n        /* \"#utility.yul\":44376:44795   */\n      swap2\n      swap1\n      pop\n      jump\t// out\n        /* \"#utility.yul\":44801:44981   */\n    tag_442:\n        /* \"#utility.yul\":44849:44926   */\n      0x4e487b7100000000000000000000000000000000000000000000000000000000\n        /* \"#utility.yul\":44846:44847   */\n      0x00\n        /* \"#utility.yul\":44839:44927   */\n      mstore\n        /* \"#utility.yul\":44946:44950   */\n      0x32\n        /* \"#utility.yul\":44943:44944   */\n      0x04\n        /* \"#utility.yul\":44936:44951   */\n      mstore\n        /* \"#utility.yul\":44970:44974   */\n      0x24\n        /* \"#utility.yul\":44967:44968   */\n      0x00\n        /* \"#utility.yul\":44960:44975   */\n      revert\n        /* \"#utility.yul\":44987:45167   */\n    tag_587:\n        /* \"#utility.yul\":45035:45112   */\n      0x4e487b7100000000000000000000000000000000000000000000000000000000\n        /* \"#utility.yul\":45032:45033   */\n      0x00\n        /* \"#utility.yul\":45025:45113   */\n      mstore\n        /* \"#utility.yul\":45132:45136   */\n      0x11\n        /* \"#utility.yul\":45129:45130   */\n      0x04\n        /* \"#utility.yul\":45122:45137   */\n      mstore\n        /* \"#utility.yul\":45156:45160   */\n      0x24\n        /* \"#utility.yul\":45153:45154   */\n      0x00\n        /* \"#utility.yul\":45146:45161   */\n      revert\n        /* \"#utility.yul\":45173:45367   */\n    tag_446:\n        /* \"#utility.yul\":45213:45217   */\n      0x00\n        /* \"#utility.yul\":45233:45253   */\n      tag_984\n        /* \"#utility.yul\":45251:45252   */\n      dup3\n        /* \"#utility.yul\":45233:45253   */\n      tag_497\n      jump\t// in\n    tag_984:\n        /* \"#utility.yul\":45228:45253   */\n      swap2\n      pop\n        /* \"#utility.yul\":45267:45287   */\n      tag_985\n        /* \"#utility.yul\":45285:45286   */\n      dup4\n        /* \"#utility.yul\":45267:45287   */\n      tag_497\n      jump\t// in\n    tag_985:\n        /* \"#utility.yul\":45262:45287   */\n      swap3\n      pop\n        /* \"#utility.yul\":45311:45312   */\n      dup3\n        /* \"#utility.yul\":45308:45309   */\n      dup3\n        /* \"#utility.yul\":45304:45313   */\n      sub\n        /* \"#utility.yul\":45296:45313   */\n      swap1\n      pop\n        /* \"#utility.yul\":45335:45336   */\n      dup2\n        /* \"#utility.yul\":45329:45333   */\n      dup2\n        /* \"#utility.yul\":45326:45337   */\n      gt\n        /* \"#utility.yul\":45323:45360   */\n      iszero\n      tag_986\n      jumpi\n        /* \"#utility.yul\":45340:45358   */\n      tag_987\n      tag_587\n      jump\t// in\n    tag_987:\n        /* \"#utility.yul\":45323:45360   */\n    tag_986:\n        /* \"#utility.yul\":45173:45367   */\n      swap3\n      swap2\n      pop\n      pop\n      jump\t// out\n        /* \"#utility.yul\":45373:45553   */\n    tag_455:\n        /* \"#utility.yul\":45421:45498   */\n      0x4e487b7100000000000000000000000000000000000000000000000000000000\n        /* \"#utility.yul\":45418:45419   */\n      0x00\n        /* \"#utility.yul\":45411:45499   */\n      mstore\n        /* \"#utility.yul\":45518:45522   */\n      0x31\n        /* \"#utility.yul\":45515:45516   */\n      0x04\n        /* \"#utility.yul\":45508:45523   */\n      mstore\n        /* \"#utility.yul\":45542:45546   */\n      0x24\n        /* \"#utility.yul\":45539:45540   */\n      0x00\n        /* \"#utility.yul\":45532:45547   */\n      revert\n        /* \"#utility.yul\":45559:45792   */\n    tag_458:\n        /* \"#utility.yul\":45598:45601   */\n      0x00\n        /* \"#utility.yul\":45621:45645   */\n      tag_990\n        /* \"#utility.yul\":45639:45644   */\n      dup3\n        /* \"#utility.yul\":45621:45645   */\n      tag_497\n      jump\t// in\n    tag_990:\n        /* \"#utility.yul\":45612:45645   */\n      swap2\n      pop\n        /* \"#utility.yul\":45667:45733   */\n      0xffffffffffffffffffffffffffffffffffffffffffffffffffffffffffffffff\n        /* \"#utility.yul\":45660:45665   */\n      dup3\n        /* \"#utility.yul\":45657:45734   */\n      sub\n        /* \"#utility.yul\":45654:45757   */\n      tag_991\n      jumpi\n        /* \"#utility.yul\":45737:45755   */\n      tag_992\n      tag_587\n      jump\t// in\n    tag_992:\n        /* \"#utility.yul\":45654:45757   */\n    tag_991:\n        /* \"#utility.yul\":45784:45785   */\n      0x01\n        /* \"#utility.yul\":45777:45782   */\n      dup3\n        /* \"#utility.yul\":45773:45786   */\n      add\n        /* \"#utility.yul\":45766:45786   */\n      swap1\n      pop\n        /* \"#utility.yul\":45559:45792   */\n      swap2\n      swap1\n      pop\n      jump\t// out\n        /* \"#utility.yul\":45798:45968   */\n    tag_588:\n        /* \"#utility.yul\":45938:45960   */\n      0x5061757361626c653a206e6f7420706175736564000000000000000000000000\n        /* \"#utility.yul\":45934:45935   */\n      0x00\n        /* \"#utility.yul\":45926:45932   */\n      dup3\n        /* \"#utility.yul\":45922:45936   */\n      add\n        /* \"#utility.yul\":45915:45961   */\n      mstore\n        /* \"#utility.yul\":45798:45968   */\n      pop\n      jump\t// out\n        /* \"#utility.yul\":45974:46340   */\n    tag_589:\n        /* \"#utility.yul\":46116:46119   */\n      0x00\n        /* \"#utility.yul\":46137:46204   */\n      tag_995\n        /* \"#utility.yul\":46201:46203   */\n      0x14\n        /* \"#utility.yul\":46196:46199   */\n      dup4\n        /* \"#utility.yul\":46137:46204   */\n      tag_534\n      jump\t// in\n    tag_995:\n        /* \"#utility.yul\":46130:46204   */\n      swap2\n      pop\n        /* \"#utility.yul\":46213:46306   */\n      tag_996\n        /* \"#utility.yul\":46302:46305   */\n      dup3\n        /* \"#utility.yul\":46213:46306   */\n      tag_588\n      jump\t// in\n    tag_996:\n        /* \"#utility.yul\":46331:46333   */\n      0x20\n        /* \"#utility.yul\":46326:46329   */\n      dup3\n        /* \"#utility.yul\":46322:46334   */\n      add\n        /* \"#utility.yul\":46315:46334   */\n      swap1\n      pop\n        /* \"#utility.yul\":45974:46340   */\n      swap2\n      swap1\n      pop\n      jump\t// out\n        /* \"#utility.yul\":46346:46765   */\n    tag_482:\n        /* \"#utility.yul\":46512:46516   */\n      0x00\n        /* \"#utility.yul\":46550:46552   */\n      0x20\n        /* \"#utility.yul\":46539:46548   */\n      dup3\n        /* \"#utility.yul\":46535:46553   */\n      add\n        /* \"#utility.yul\":46527:46553   */\n      swap1\n      pop\n        /* \"#utility.yul\":46599:46608   */\n      dup2\n        /* \"#utility.yul\":46593:46597   */\n      dup2\n        /* \"#utility.yul\":46589:46609   */\n      sub\n        /* \"#utility.yul\":46585:46586   */\n      0x00\n        /* \"#utility.yul\":46574:46583   */\n      dup4\n        /* \"#utility.yul\":46570:46587   */\n      add\n        /* \"#utility.yul\":46563:46610   */\n      mstore\n        /* \"#utility.yul\":46627:46758   */\n      tag_998\n        /* \"#utility.yul\":46753:46757   */\n      dup2\n        /* \"#utility.yul\":46627:46758   */\n      tag_589\n      jump\t// in\n    tag_998:\n        /* \"#utility.yul\":46619:46758   */\n      swap1\n      pop\n        /* \"#utility.yul\":46346:46765   */\n      swap2\n      swap1\n      pop\n      jump\t// out\n\n    auxdata: 0xa264697066735822122079d698e11cda940171d85298fe6106083ca2791f64b536811874017d1c668c4664736f6c63430008140033\n}\n",
				"bytecode": {
					"linkReferences": {},
					"object": "608060405234801562000010575f80fd5b5060405162004f3838038062004f3883398181016040528101906200003691906200016b565b5f805f6101000a81548160ff0219169083151502179055505f73ffffffffffffffffffffffffffffffffffffffff168173ffffffffffffffffffffffffffffffffffffffff1603620000bf576040517f08c379a0000000000000000000000000000000000000000000000000000000008152600401620000b690620001f9565b60405180910390fd5b8060015f6101000a81548173ffffffffffffffffffffffffffffffffffffffff021916908373ffffffffffffffffffffffffffffffffffffffff1602179055505062000219565b5f80fd5b5f73ffffffffffffffffffffffffffffffffffffffff82169050919050565b5f62000135826200010a565b9050919050565b620001478162000129565b811462000152575f80fd5b50565b5f8151905062000165816200013c565b92915050565b5f6020828403121562000183576200018262000106565b5b5f620001928482850162000155565b91505092915050565b5f82825260208201905092915050565b7f496e76616c696420526f6c654d616e61676572206164647265737300000000005f82015250565b5f620001e1601b836200019b565b9150620001ee82620001ab565b602082019050919050565b5f6020820190508181035f8301526200021281620001d3565b9050919050565b614d1180620002275f395ff3fe608060405234801561000f575f80fd5b5060043610610129575f3560e01c80638456cb59116100ab578063ce290e1d1161006f578063ce290e1d146102fe578063da817a241461031a578063efc953ef1461034a578063f64fee981461037a578063ff91e4891461039657610129565b80638456cb59146102845780639f754aad1461028e5780639fd199f6146102aa578063a1519b11146102c6578063cb3de478146102e257610129565b8063550a3dba116100f2578063550a3dba146101c25780635c975abb146101fa5780636f725c131461021857806371d24b701461024857806380a1f7121461026657610129565b8062435da51461012d578063042aa2201461014b5780632b41c0e0146101675780633f4ba83a1461018357806344ee00b71461018d575b5f80fd5b6101356103c6565b60405161014291906136ad565b60405180910390f35b61016560048036038101906101609190613701565b6103eb565b005b610181600480360381019061017c919061377a565b61071a565b005b61018b610932565b005b6101a760048036038101906101a291906137a5565b610aa3565b6040516101b99695949392919061392b565b60405180910390f35b6101dc60048036038101906101d791906137a5565b610ce0565b6040516101f199989796959493929190613991565b60405180910390f35b610202610f22565b60405161020f9190613a23565b60405180910390f35b610232600480360381019061022d9190613a3c565b610f36565b60405161023f9190613a7a565b60405180910390f35b610250610f61565b60405161025d9190613a93565b60405180910390f35b61026e610f86565b60405161027b9190613b63565b60405180910390f35b61028c611272565b005b6102a860048036038101906102a39190613c0e565b6113e3565b005b6102c460048036038101906102bf9190613d0b565b6118f3565b005b6102e060048036038101906102db9190613e08565b611cc1565b005b6102fc60048036038101906102f791906137a5565b612280565b005b61031860048036038101906103139190613e70565b612a3d565b005b610334600480360381019061032f91906137a5565b612c0a565b6040516103419190613a7a565b60405180910390f35b610364600480360381019061035f919061377a565b612c2a565b6040516103719190613b63565b60405180910390f35b610394600480360381019061038f91906137a5565b612cbd565b005b6103b060048036038101906103ab91906137a5565b612f01565b6040516103bd9190614021565b60405180910390f35b60015f9054906101000a900473ffffffffffffffffffffffffffffffffffffffff1681565b815f73ffffffffffffffffffffffffffffffffffffffff1660035f8381526020019081526020015f206001015f9054906101000a900473ffffffffffffffffffffffffffffffffffffffff1673ffffffffffffffffffffffffffffffffffffffff160361048d576040517f08c379a00000000000000000000000000000000000000000000000000000000081526004016104849061409b565b60405180910390fd5b823373ffffffffffffffffffffffffffffffffffffffff1660035f8381526020019081526020015f206001015f9054906101000a900473ffffffffffffffffffffffffffffffffffffffff1673ffffffffffffffffffffffffffffffffffffffff16148061061f575060015f9054906101000a900473ffffffffffffffffffffffffffffffffffffffff1673ffffffffffffffffffffffffffffffffffffffff166391d1485460015f9054906101000a900473ffffffffffffffffffffffffffffffffffffffff1673ffffffffffffffffffffffffffffffffffffffff166375b238fc6040518163ffffffff1660e01b8152600401602060405180830381865afa15801561059d573d5f803e3d5ffd5b505050506040513d601f19601f820116820180604052508101906105c191906140ec565b336040518363ffffffff1660e01b81526004016105df929190614126565b602060405180830381865afa1580156105fa573d5f803e3d5ffd5b505050506040513d601f19601f8201168201806040525081019061061e9190614161565b5b61065e576040517f08c379a0000000000000000000000000000000000000000000000000000000008152600401610655906141d6565b60405180910390fd5b610666613251565b605a8311156106aa576040517f08c379a00000000000000000000000000000000000000000000000000000000081526004016106a19061423e565b60405180910390fd5b8260035f8681526020019081526020015f20600801819055504260035f8681526020019081526020015f20600c0181905550837f873f6c666fd54a918c1e2592507083f1891e675a335c6d04d0bc1b5b3c169fde8460405161070c9190613a7a565b60405180910390a250505050565b60015f9054906101000a900473ffffffffffffffffffffffffffffffffffffffff1673ffffffffffffffffffffffffffffffffffffffff166391d1485460015f9054906101000a900473ffffffffffffffffffffffffffffffffffffffff1673ffffffffffffffffffffffffffffffffffffffff166375b238fc6040518163ffffffff1660e01b8152600401602060405180830381865afa1580156107c1573d5f803e3d5ffd5b505050506040513d601f19601f820116820180604052508101906107e591906140ec565b336040518363ffffffff1660e01b8152600401610803929190614126565b602060405180830381865afa15801561081e573d5f803e3d5ffd5b505050506040513d601f19601f820116820180604052508101906108429190614161565b610881576040517f08c379a0000000000000000000000000000000000000000000000000000000008152600401610878906142a6565b60405180910390fd5b5f73ffffffffffffffffffffffffffffffffffffffff168173ffffffffffffffffffffffffffffffffffffffff16036108ef576040517f08c379a00000000000000000000000000000000000000000000000000000000081526004016108e69061430e565b60405180910390fd5b805f60016101000a81548173ffffffffffffffffffffffffffffffffffffffff021916908373ffffffffffffffffffffffffffffffffffffffff16021790555050565b60015f9054906101000a900473ffffffffffffffffffffffffffffffffffffffff1673ffffffffffffffffffffffffffffffffffffffff166391d1485460015f9054906101000a900473ffffffffffffffffffffffffffffffffffffffff1673ffffffffffffffffffffffffffffffffffffffff166375b238fc6040518163ffffffff1660e01b8152600401602060405180830381865afa1580156109d9573d5f803e3d5ffd5b505050506040513d601f19601f820116820180604052508101906109fd91906140ec565b336040518363ffffffff1660e01b8152600401610a1b929190614126565b602060405180830381865afa158015610a36573d5f803e3d5ffd5b505050506040513d601f19601f82011682018060405250810190610a5a9190614161565b610a99576040517f08c379a0000000000000000000000000000000000000000000000000000000008152600401610a90906142a6565b60405180910390fd5b610aa161329b565b565b6004602052805f5260405f205f91509050805f015f9054906101000a900473ffffffffffffffffffffffffffffffffffffffff1690806001016040518060a00160405290815f82018054610af690614359565b80601f0160208091040260200160405190810160405280929190818152602001828054610b2290614359565b8015610b6d5780601f10610b4457610100808354040283529160200191610b6d565b820191905f5260205f20905b815481529060010190602001808311610b5057829003601f168201915b50505050508152602001600182018054610b8690614359565b80601f0160208091040260200160405190810160405280929190818152602001828054610bb290614359565b8015610bfd5780601f10610bd457610100808354040283529160200191610bfd565b820191905f5260205f20905b815481529060010190602001808311610be057829003601f168201915b50505050508152602001600282018054610c1690614359565b80601f0160208091040260200160405190810160405280929190818152602001828054610c4290614359565b8015610c8d5780601f10610c6457610100808354040283529160200191610c8d565b820191905f5260205f20905b815481529060010190602001808311610c7057829003601f168201915b505050505081526020016003820154815260200160048201548152505090806006015490806007015490806008015f9054906101000a900460ff16908060080160019054906101000a900460ff16905086565b6003602052805f5260405f205f91509050805f015490806001015f9054906101000a900473ffffffffffffffffffffffffffffffffffffffff1690806002016040518060a00160405290815f82018054610d3990614359565b80601f0160208091040260200160405190810160405280929190818152602001828054610d6590614359565b8015610db05780601f10610d8757610100808354040283529160200191610db0565b820191905f5260205f20905b815481529060010190602001808311610d9357829003601f168201915b50505050508152602001600182018054610dc990614359565b80601f0160208091040260200160405190810160405280929190818152602001828054610df590614359565b8015610e405780601f10610e1757610100808354040283529160200191610e40565b820191905f5260205f20905b815481529060010190602001808311610e2357829003601f168201915b50505050508152602001600282018054610e5990614359565b80601f0160208091040260200160405190810160405280929190818152602001828054610e8590614359565b8015610ed05780601f10610ea757610100808354040283529160200191610ed0565b820191905f5260205f20905b815481529060010190602001808311610eb357829003601f168201915b505050505081526020016003820154815260200160048201548152505090806007015490806008015490806009015f9054906101000a900460ff169080600a01549080600b01549080600c0154905089565b5f805f9054906101000a900460ff16905090565b6005602052815f5260405f208181548110610f4f575f80fd5b905f5260205f20015f91509150505481565b5f60019054906101000a900473ffffffffffffffffffffffffffffffffffffffff1681565b606060015f9054906101000a900473ffffffffffffffffffffffffffffffffffffffff1673ffffffffffffffffffffffffffffffffffffffff166391d1485460015f9054906101000a900473ffffffffffffffffffffffffffffffffffffffff1673ffffffffffffffffffffffffffffffffffffffff166375b238fc6040518163ffffffff1660e01b8152600401602060405180830381865afa15801561102f573d5f803e3d5ffd5b505050506040513d601f19601f8201168201806040525081019061105391906140ec565b336040518363ffffffff1660e01b8152600401611071929190614126565b602060405180830381865afa15801561108c573d5f803e3d5ffd5b505050506040513d601f19601f820116820180604052508101906110b09190614161565b806111df575060015f9054906101000a900473ffffffffffffffffffffffffffffffffffffffff1673ffffffffffffffffffffffffffffffffffffffff166391d1485460015f9054906101000a900473ffffffffffffffffffffffffffffffffffffffff1673ffffffffffffffffffffffffffffffffffffffff166398e4abb56040518163ffffffff1660e01b8152600401602060405180830381865afa15801561115d573d5f803e3d5ffd5b505050506040513d601f19601f8201168201806040525081019061118191906140ec565b336040518363ffffffff1660e01b815260040161119f929190614126565b602060405180830381865afa1580156111ba573d5f803e3d5ffd5b505050506040513d601f19601f820116820180604052508101906111de9190614161565b5b61121e576040517f08c379a0000000000000000000000000000000000000000000000000000000008152600401611215906143d3565b60405180910390fd5b600680548060200260200160405190810160405280929190818152602001828054801561126857602002820191905f5260205f20905b815481526020019060010190808311611254575b5050505050905090565b60015f9054906101000a900473ffffffffffffffffffffffffffffffffffffffff1673ffffffffffffffffffffffffffffffffffffffff166391d1485460015f9054906101000a900473ffffffffffffffffffffffffffffffffffffffff1673ffffffffffffffffffffffffffffffffffffffff166375b238fc6040518163ffffffff1660e01b8152600401602060405180830381865afa158015611319573d5f803e3d5ffd5b505050506040513d601f19601f8201168201806040525081019061133d91906140ec565b336040518363ffffffff1660e01b815260040161135b929190614126565b602060405180830381865afa158015611376573d5f803e3d5ffd5b505050506040513d601f19601f8201168201806040525081019061139a9190614161565b6113d9576040517f08c379a00000000000000000000000000000000000000000000000000000000081526004016113d0906142a6565b60405180910390fd5b6113e16132fb565b565b6113eb613251565b60015f9054906101000a900473ffffffffffffffffffffffffffffffffffffffff1673ffffffffffffffffffffffffffffffffffffffff166391d1485460015f9054906101000a900473ffffffffffffffffffffffffffffffffffffffff1673ffffffffffffffffffffffffffffffffffffffff166398e4abb56040518163ffffffff1660e01b8152600401602060405180830381865afa158015611492573d5f803e3d5ffd5b505050506040513d601f19601f820116820180604052508101906114b691906140ec565b336040518363ffffffff1660e01b81526004016114d4929190614126565b602060405180830381865afa1580156114ef573d5f803e3d5ffd5b505050506040513d601f19601f820116820180604052508101906115139190614161565b611552576040517f08c379a000000000000000000000000000000000000000000000000000000000815260040161154990614461565b60405180910390fd5b5f8a8a905011801561156657505f88889050115b6115a5576040517f08c379a000000000000000000000000000000000000000000000000000000000815260040161159c906144c9565b60405180910390fd5b5f82116115e7576040517f08c379a00000000000000000000000000000000000000000000000000000000081526004016115de90614531565b60405180910390fd5b605a81111561162b576040517f08c379a00000000000000000000000000000000000000000000000000000000081526004016116229061423e565b60405180910390fd5b5f61163461335c565b90505f6040518060a001604052808d8d8080601f0160208091040260200160405190810160405280939291908181526020018383808284375f81840152601f19601f8201169050808301925050505050505081526020018b8b8080601f0160208091040260200160405190810160405280939291908181526020018383808284375f81840152601f19601f82011690508083019250505050505050815260200189898080601f0160208091040260200160405190810160405280939291908181526020018383808284375f81840152601f19601f8201169050808301925050505050505081526020018781526020018681525090506040518060c001604052803373ffffffffffffffffffffffffffffffffffffffff1681526020018281526020018581526020018481526020016001151581526020015f151581525060045f8481526020019081526020015f205f820151815f015f6101000a81548173ffffffffffffffffffffffffffffffffffffffff021916908373ffffffffffffffffffffffffffffffffffffffff1602179055506020820151816001015f820151815f0190816117e29190614710565b5060208201518160010190816117f89190614710565b50604082015181600201908161180e9190614710565b506060820151816003015560808201518160040155505060408201518160060155606082015181600701556080820151816008015f6101000a81548160ff02191690831515021790555060a08201518160080160016101000a81548160ff021916908315150217905550905050600682908060018154018082558091505060019003905f5260205f20015f90919091909150553373ffffffffffffffffffffffffffffffffffffffff16827fcbbbcc1725193dff50b4699b7d4be5dfa0b8091ac6b9081400e3704fc8ed244c60405160405180910390a3505050505050505050505050565b895f73ffffffffffffffffffffffffffffffffffffffff1660035f8381526020019081526020015f206001015f9054906101000a900473ffffffffffffffffffffffffffffffffffffffff1673ffffffffffffffffffffffffffffffffffffffff1603611995576040517f08c379a000000000000000000000000000000000000000000000000000000000815260040161198c9061409b565b60405180910390fd5b8a3373ffffffffffffffffffffffffffffffffffffffff1660035f8381526020019081526020015f206001015f9054906101000a900473ffffffffffffffffffffffffffffffffffffffff1673ffffffffffffffffffffffffffffffffffffffff161480611b27575060015f9054906101000a900473ffffffffffffffffffffffffffffffffffffffff1673ffffffffffffffffffffffffffffffffffffffff166391d1485460015f9054906101000a900473ffffffffffffffffffffffffffffffffffffffff1673ffffffffffffffffffffffffffffffffffffffff166375b238fc6040518163ffffffff1660e01b8152600401602060405180830381865afa158015611aa5573d5f803e3d5ffd5b505050506040513d601f19601f82011682018060405250810190611ac991906140ec565b336040518363ffffffff1660e01b8152600401611ae7929190614126565b602060405180830381865afa158015611b02573d5f803e3d5ffd5b505050506040513d601f19601f82011682018060405250810190611b269190614161565b5b611b66576040517f08c379a0000000000000000000000000000000000000000000000000000000008152600401611b5d906141d6565b60405180910390fd5b611b6e613251565b5f8b8b9050118015611b8257505f89899050115b611bc1576040517f08c379a0000000000000000000000000000000000000000000000000000000008152600401611bb8906144c9565b60405180910390fd5b5f8311611c03576040517f08c379a0000000000000000000000000000000000000000000000000000000008152600401611bfa90614531565b60405180910390fd5b5f60035f8e81526020019081526020015f2090508b8b826002015f019182611c2c9291906147e9565b508989826002016001019182611c439291906147e9565b508787826002016002019182611c5a9291906147e9565b508581600201600301819055508481600201600401819055508381600701819055504281600c01819055508c7fd62fa94c71eba8cfe5ab835190623c67e15149837fd0cd60c1c170a8f31439e360405160405180910390a250505050505050505050505050565b815f73ffffffffffffffffffffffffffffffffffffffff1660035f8381526020019081526020015f206001015f9054906101000a900473ffffffffffffffffffffffffffffffffffffffff1673ffffffffffffffffffffffffffffffffffffffff1603611d63576040517f08c379a0000000000000000000000000000000000000000000000000000000008152600401611d5a9061409b565b60405180910390fd5b823373ffffffffffffffffffffffffffffffffffffffff1660035f8381526020019081526020015f206001015f9054906101000a900473ffffffffffffffffffffffffffffffffffffffff1673ffffffffffffffffffffffffffffffffffffffff161480611ef5575060015f9054906101000a900473ffffffffffffffffffffffffffffffffffffffff1673ffffffffffffffffffffffffffffffffffffffff166391d1485460015f9054906101000a900473ffffffffffffffffffffffffffffffffffffffff1673ffffffffffffffffffffffffffffffffffffffff166375b238fc6040518163ffffffff1660e01b8152600401602060405180830381865afa158015611e73573d5f803e3d5ffd5b505050506040513d601f19601f82011682018060405250810190611e9791906140ec565b336040518363ffffffff1660e01b8152600401611eb5929190614126565b602060405180830381865afa158015611ed0573d5f803e3d5ffd5b505050506040513d601f19601f82011682018060405250810190611ef49190614161565b5b611f34576040517f08c379a0000000000000000000000000000000000000000000000000000000008152600401611f2b906141d6565b60405180910390fd5b611f3c613251565b5f73ffffffffffffffffffffffffffffffffffffffff168373ffffffffffffffffffffffffffffffffffffffff1603611faa576040517f08c379a0000000000000000000000000000000000000000000000000000000008152600401611fa190614900565b60405180910390fd5b60015f9054906101000a900473ffffffffffffffffffffffffffffffffffffffff1673ffffffffffffffffffffffffffffffffffffffff166391d1485460015f9054906101000a900473ffffffffffffffffffffffffffffffffffffffff1673ffffffffffffffffffffffffffffffffffffffff166398e4abb56040518163ffffffff1660e01b8152600401602060405180830381865afa158015612051573d5f803e3d5ffd5b505050506040513d601f19601f8201168201806040525081019061207591906140ec565b856040518363ffffffff1660e01b8152600401612093929190614126565b602060405180830381865afa1580156120ae573d5f803e3d5ffd5b505050506040513d601f19601f820116820180604052508101906120d29190614161565b612111576040517f08c379a00000000000000000000000000000000000000000000000000000000081526004016121089061498e565b60405180910390fd5b5f60035f8681526020019081526020015f206001015f9054906101000a900473ffffffffffffffffffffffffffffffffffffffff1690508360035f8781526020019081526020015f206001015f6101000a81548173ffffffffffffffffffffffffffffffffffffffff021916908373ffffffffffffffffffffffffffffffffffffffff1602179055504260035f8781526020019081526020015f20600c01819055506121bd8582613376565b60055f8573ffffffffffffffffffffffffffffffffffffffff1673ffffffffffffffffffffffffffffffffffffffff1681526020019081526020015f2085908060018154018082558091505060019003905f5260205f20015f90919091909150558373ffffffffffffffffffffffffffffffffffffffff168173ffffffffffffffffffffffffffffffffffffffff16867fa54354750c707642a038f4ac683faa206a3649a6c35a44f9640d34d20578b15b60405160405180910390a45050505050565b60015f9054906101000a900473ffffffffffffffffffffffffffffffffffffffff1673ffffffffffffffffffffffffffffffffffffffff166391d1485460015f9054906101000a900473ffffffffffffffffffffffffffffffffffffffff1673ffffffffffffffffffffffffffffffffffffffff166375b238fc6040518163ffffffff1660e01b8152600401602060405180830381865afa158015612327573d5f803e3d5ffd5b505050506040513d601f19601f8201168201806040525081019061234b91906140ec565b336040518363ffffffff1660e01b8152600401612369929190614126565b602060405180830381865afa158015612384573d5f803e3d5ffd5b505050506040513d601f19601f820116820180604052508101906123a89190614161565b6123e7576040517f08c379a00000000000000000000000000000000000000000000000000000000081526004016123de906142a6565b60405180910390fd5b6123ef613251565b5f60045f8381526020019081526020015f209050806008015f9054906101000a900460ff16612453576040517f08c379a000000000000000000000000000000000000000000000000000000000815260040161244a906149f6565b60405180910390fd5b60015f9054906101000a900473ffffffffffffffffffffffffffffffffffffffff1673ffffffffffffffffffffffffffffffffffffffff166391d1485460015f9054906101000a900473ffffffffffffffffffffffffffffffffffffffff1673ffffffffffffffffffffffffffffffffffffffff166398e4abb56040518163ffffffff1660e01b8152600401602060405180830381865afa1580156124fa573d5f803e3d5ffd5b505050506040513d601f19601f8201168201806040525081019061251e91906140ec565b835f015f9054906101000a900473ffffffffffffffffffffffffffffffffffffffff166040518363ffffffff1660e01b815260040161255e929190614126565b602060405180830381865afa158015612579573d5f803e3d5ffd5b505050506040513d601f19601f8201168201806040525081019061259d9190614161565b6125dc576040517f08c379a00000000000000000000000000000000000000000000000000000000081526004016125d390614a84565b60405180910390fd5b5f816008015f6101000a81548160ff02191690831515021790555060018160080160016101000a81548160ff0219169083151502179055505f604051806101200160405280848152602001835f015f9054906101000a900473ffffffffffffffffffffffffffffffffffffffff1673ffffffffffffffffffffffffffffffffffffffff168152602001836001016040518060a00160405290815f8201805461268390614359565b80601f01602080910402602001604051908101604052809291908181526020018280546126af90614359565b80156126fa5780601f106126d1576101008083540402835291602001916126fa565b820191905f5260205f20905b8154815290600101906020018083116126dd57829003601f168201915b5050505050815260200160018201805461271390614359565b80601f016020809104026020016040519081016040528092919081815260200182805461273f90614359565b801561278a5780601f106127615761010080835404028352916020019161278a565b820191905f5260205f20905b81548152906001019060200180831161276d57829003601f168201915b505050505081526020016002820180546127a390614359565b80601f01602080910402602001604051908101604052809291908181526020018280546127cf90614359565b801561281a5780601f106127f15761010080835404028352916020019161281a565b820191905f5260205f20905b8154815290600101906020018083116127fd57829003601f168201915b5050505050815260200160038201548152602001600482015481525050815260200183600601548152602001836007015481526020015f151581526020015f81526020014281526020014281525090508060035f8581526020019081526020015f205f820151815f01556020820151816001015f6101000a81548173ffffffffffffffffffffffffffffffffffffffff021916908373ffffffffffffffffffffffffffffffffffffffff1602179055506040820151816002015f820151815f0190816128e69190614710565b5060208201518160010190816128fc9190614710565b5060408201518160020190816129129190614710565b5060608201518160030155608082015181600401555050606082015181600701556080820151816008015560a0820151816009015f6101000a81548160ff02191690831515021790555060c082015181600a015560e082015181600b015561010082015181600c015590505060055f835f015f9054906101000a900473ffffffffffffffffffffffffffffffffffffffff1673ffffffffffffffffffffffffffffffffffffffff1673ffffffffffffffffffffffffffffffffffffffff1681526020019081526020015f2083908060018154018082558091505060019003905f5260205f20015f9091909190915055612a0a83613473565b82837f9f590c35d933762074155ff5a113fc98b6f567020152980d42abc18fbff30e9360405160405180910390a3505050565b825f73ffffffffffffffffffffffffffffffffffffffff1660035f8381526020019081526020015f206001015f9054906101000a900473ffffffffffffffffffffffffffffffffffffffff1673ffffffffffffffffffffffffffffffffffffffff1603612adf576040517f08c379a0000000000000000000000000000000000000000000000000000000008152600401612ad69061409b565b60405180910390fd5b5f60019054906101000a900473ffffffffffffffffffffffffffffffffffffffff1673ffffffffffffffffffffffffffffffffffffffff163373ffffffffffffffffffffffffffffffffffffffff1614612b6e576040517f08c379a0000000000000000000000000000000000000000000000000000000008152600401612b6590614aec565b60405180910390fd5b8160035f8681526020019081526020015f206009015f6101000a81548160ff0219169083151502179055508260035f8681526020019081526020015f20600a01819055504260035f8681526020019081526020015f20600c018190555082847f9f3fb7f30a7a75bcbe64925ea9cecb8a7dca5096c4174d2a843abba66ac6c96784604051612bfc9190613a23565b60405180910390a350505050565b60068181548110612c19575f80fd5b905f5260205f20015f915090505481565b606060055f8373ffffffffffffffffffffffffffffffffffffffff1673ffffffffffffffffffffffffffffffffffffffff1681526020019081526020015f20805480602002602001604051908101604052809291908181526020018280548015612cb157602002820191905f5260205f20905b815481526020019060010190808311612c9d575b50505050509050919050565b60015f9054906101000a900473ffffffffffffffffffffffffffffffffffffffff1673ffffffffffffffffffffffffffffffffffffffff166391d1485460015f9054906101000a900473ffffffffffffffffffffffffffffffffffffffff1673ffffffffffffffffffffffffffffffffffffffff166375b238fc6040518163ffffffff1660e01b8152600401602060405180830381865afa158015612d64573d5f803e3d5ffd5b505050506040513d601f19601f82011682018060405250810190612d8891906140ec565b336040518363ffffffff1660e01b8152600401612da6929190614126565b602060405180830381865afa158015612dc1573d5f803e3d5ffd5b505050506040513d601f19601f82011682018060405250810190612de59190614161565b612e24576040517f08c379a0000000000000000000000000000000000000000000000000000000008152600401612e1b906142a6565b60405180910390fd5b612e2c613251565b5f60045f8381526020019081526020015f209050806008015f9054906101000a900460ff16612e90576040517f08c379a0000000000000000000000000000000000000000000000000000000008152600401612e87906149f6565b60405180910390fd5b5f816008015f6101000a81548160ff0219169083151502179055505f8160080160016101000a81548160ff021916908315150217905550612ed082613473565b817ffc16a62acc42f1401e209c71f8bb430a6f13ab2cf2b6b9d9f0090f44b57314aa60405160405180910390a25050565b612f096135a4565b815f73ffffffffffffffffffffffffffffffffffffffff1660035f8381526020019081526020015f206001015f9054906101000a900473ffffffffffffffffffffffffffffffffffffffff1673ffffffffffffffffffffffffffffffffffffffff1603612fab576040517f08c379a0000000000000000000000000000000000000000000000000000000008152600401612fa29061409b565b60405180910390fd5b60035f8481526020019081526020015f20604051806101200160405290815f8201548152602001600182015f9054906101000a900473ffffffffffffffffffffffffffffffffffffffff1673ffffffffffffffffffffffffffffffffffffffff1673ffffffffffffffffffffffffffffffffffffffff168152602001600282016040518060a00160405290815f8201805461304590614359565b80601f016020809104026020016040519081016040528092919081815260200182805461307190614359565b80156130bc5780601f10613093576101008083540402835291602001916130bc565b820191905f5260205f20905b81548152906001019060200180831161309f57829003601f168201915b505050505081526020016001820180546130d590614359565b80601f016020809104026020016040519081016040528092919081815260200182805461310190614359565b801561314c5780601f106131235761010080835404028352916020019161314c565b820191905f5260205f20905b81548152906001019060200180831161312f57829003601f168201915b5050505050815260200160028201805461316590614359565b80601f016020809104026020016040519081016040528092919081815260200182805461319190614359565b80156131dc5780601f106131b3576101008083540402835291602001916131dc565b820191905f5260205f20905b8154815290600101906020018083116131bf57829003601f168201915b505050505081526020016003820154815260200160048201548152505081526020016007820154815260200160088201548152602001600982015f9054906101000a900460ff16151515158152602001600a8201548152602001600b8201548152602001600c82015481525050915050919050565b613259610f22565b15613299576040517f08c379a000000000000000000000000000000000000000000000000000000000815260040161329090614b54565b60405180910390fd5b565b6132a3613534565b5f805f6101000a81548160ff0219169083151502179055507f5db9ee0a495bf2e6ff9c91a7834c1ba4fdd244a5e8aa4e537bd38aeae4b073aa6132e461357d565b6040516132f19190613a93565b60405180910390a1565b613303613251565b60015f806101000a81548160ff0219169083151502179055507f62e78cea01bee320cd4e420270b5ea74000d11b0c9f74754ebdbfc544b05a25861334561357d565b6040516133529190613a93565b60405180910390a1565b5f6133676002613584565b6133716002613598565b905090565b5f60055f8373ffffffffffffffffffffffffffffffffffffffff1673ffffffffffffffffffffffffffffffffffffffff1681526020019081526020015f2090505f5b818054905081101561346d57838282815481106133d8576133d7614b72565b5b905f5260205f2001540361345a5781600183805490506133f89190614bcc565b8154811061340957613408614b72565b5b905f5260205f20015482828154811061342557613424614b72565b5b905f5260205f2001819055508180548061344257613441614bff565b5b600190038181905f5260205f20015f9055905561346d565b808061346590614c2c565b9150506133b8565b50505050565b5f5b60068054905081101561353057816006828154811061349757613496614b72565b5b905f5260205f2001540361351d57600660016006805490506134b99190614bcc565b815481106134ca576134c9614b72565b5b905f5260205f200154600682815481106134e7576134e6614b72565b5b905f5260205f200181905550600680548061350557613504614bff565b5b600190038181905f5260205f20015f90559055613530565b808061352890614c2c565b915050613475565b5050565b61353c610f22565b61357b576040517f08c379a000000000000000000000000000000000000000000000000000000000815260040161357290614cbd565b60405180910390fd5b565b5f33905090565b6001815f015f828254019250508190555050565b5f815f01549050919050565b6040518061012001604052805f81526020015f73ffffffffffffffffffffffffffffffffffffffff1681526020016135da613606565b81526020015f81526020015f81526020015f151581526020015f81526020015f81526020015f81525090565b6040518060a001604052806060815260200160608152602001606081526020015f81526020015f81525090565b5f73ffffffffffffffffffffffffffffffffffffffff82169050919050565b5f819050919050565b5f61367561367061366b84613633565b613652565b613633565b9050919050565b5f6136868261365b565b9050919050565b5f6136978261367c565b9050919050565b6136a78161368d565b82525050565b5f6020820190506136c05f83018461369e565b92915050565b5f80fd5b5f80fd5b5f819050919050565b6136e0816136ce565b81146136ea575f80fd5b50565b5f813590506136fb816136d7565b92915050565b5f8060408385031215613717576137166136c6565b5b5f613724858286016136ed565b9250506020613735858286016136ed565b9150509250929050565b5f61374982613633565b9050919050565b6137598161373f565b8114613763575f80fd5b50565b5f8135905061377481613750565b92915050565b5f6020828403121561378f5761378e6136c6565b5b5f61379c84828501613766565b91505092915050565b5f602082840312156137ba576137b96136c6565b5b5f6137c7848285016136ed565b91505092915050565b6137d98161373f565b82525050565b5f81519050919050565b5f82825260208201905092915050565b5f5b838110156138165780820151818401526020810190506137fb565b5f8484015250505050565b5f601f19601f8301169050919050565b5f61383b826137df565b61384581856137e9565b93506138558185602086016137f9565b61385e81613821565b840191505092915050565b5f819050919050565b61387b81613869565b82525050565b5f60a083015f8301518482035f86015261389b8282613831565b915050602083015184820360208601526138b58282613831565b915050604083015184820360408601526138cf8282613831565b91505060608301516138e46060860182613872565b5060808301516138f76080860182613872565b508091505092915050565b61390b816136ce565b82525050565b5f8115159050919050565b61392581613911565b82525050565b5f60c08201905061393e5f8301896137d0565b81810360208301526139508188613881565b905061395f6040830187613902565b61396c6060830186613902565b613979608083018561391c565b61398660a083018461391c565b979650505050505050565b5f610120820190506139a55f83018c613902565b6139b2602083018b6137d0565b81810360408301526139c4818a613881565b90506139d36060830189613902565b6139e06080830188613902565b6139ed60a083018761391c565b6139fa60c0830186613902565b613a0760e0830185613902565b613a15610100830184613902565b9a9950505050505050505050565b5f602082019050613a365f83018461391c565b92915050565b5f8060408385031215613a5257613a516136c6565b5b5f613a5f85828601613766565b9250506020613a70858286016136ed565b9150509250929050565b5f602082019050613a8d5f830184613902565b92915050565b5f602082019050613aa65f8301846137d0565b92915050565b5f81519050919050565b5f82825260208201905092915050565b5f819050602082019050919050565b613ade816136ce565b82525050565b5f613aef8383613ad5565b60208301905092915050565b5f602082019050919050565b5f613b1182613aac565b613b1b8185613ab6565b9350613b2683613ac6565b805f5b83811015613b56578151613b3d8882613ae4565b9750613b4883613afb565b925050600181019050613b29565b5085935050505092915050565b5f6020820190508181035f830152613b7b8184613b07565b905092915050565b5f80fd5b5f80fd5b5f80fd5b5f8083601f840112613ba457613ba3613b83565b5b8235905067ffffffffffffffff811115613bc157613bc0613b87565b5b602083019150836001820283011115613bdd57613bdc613b8b565b5b9250929050565b613bed81613869565b8114613bf7575f80fd5b50565b5f81359050613c0881613be4565b92915050565b5f805f805f805f805f8060e08b8d031215613c2c57613c2b6136c6565b5b5f8b013567ffffffffffffffff811115613c4957613c486136ca565b5b613c558d828e01613b8f565b9a509a505060208b013567ffffffffffffffff811115613c7857613c776136ca565b5b613c848d828e01613b8f565b985098505060408b013567ffffffffffffffff811115613ca757613ca66136ca565b5b613cb38d828e01613b8f565b96509650506060613cc68d828e01613bfa565b9450506080613cd78d828e01613bfa565b93505060a0613ce88d828e016136ed565b92505060c0613cf98d828e016136ed565b9150509295989b9194979a5092959850565b5f805f805f805f805f8060e08b8d031215613d2957613d286136c6565b5b5f613d368d828e016136ed565b9a505060208b013567ffffffffffffffff811115613d5757613d566136ca565b5b613d638d828e01613b8f565b995099505060408b013567ffffffffffffffff811115613d8657613d856136ca565b5b613d928d828e01613b8f565b975097505060608b013567ffffffffffffffff811115613db557613db46136ca565b5b613dc18d828e01613b8f565b95509550506080613dd48d828e01613bfa565b93505060a0613de58d828e01613bfa565b92505060c0613df68d828e016136ed565b9150509295989b9194979a5092959850565b5f8060408385031215613e1e57613e1d6136c6565b5b5f613e2b858286016136ed565b9250506020613e3c85828601613766565b9150509250929050565b613e4f81613911565b8114613e59575f80fd5b50565b5f81359050613e6a81613e46565b92915050565b5f805f60608486031215613e8757613e866136c6565b5b5f613e94868287016136ed565b9350506020613ea5868287016136ed565b9250506040613eb686828701613e5c565b9150509250925092565b613ec98161373f565b82525050565b5f60a083015f8301518482035f860152613ee98282613831565b91505060208301518482036020860152613f038282613831565b91505060408301518482036040860152613f1d8282613831565b9150506060830151613f326060860182613872565b506080830151613f456080860182613872565b508091505092915050565b613f5981613911565b82525050565b5f61012083015f830151613f755f860182613ad5565b506020830151613f886020860182613ec0565b5060408301518482036040860152613fa08282613ecf565b9150506060830151613fb56060860182613ad5565b506080830151613fc86080860182613ad5565b5060a0830151613fdb60a0860182613f50565b5060c0830151613fee60c0860182613ad5565b5060e083015161400160e0860182613ad5565b50610100830151614016610100860182613ad5565b508091505092915050565b5f6020820190508181035f8301526140398184613f5f565b905092915050565b5f82825260208201905092915050565b7f57616c6c20646f6573206e6f74206578697374000000000000000000000000005f82015250565b5f614085601383614041565b915061409082614051565b602082019050919050565b5f6020820190508181035f8301526140b281614079565b9050919050565b5f819050919050565b6140cb816140b9565b81146140d5575f80fd5b50565b5f815190506140e6816140c2565b92915050565b5f60208284031215614101576141006136c6565b5b5f61410e848285016140d8565b91505092915050565b614120816140b9565b82525050565b5f6040820190506141395f830185614117565b61414660208301846137d0565b9392505050565b5f8151905061415b81613e46565b92915050565b5f60208284031215614176576141756136c6565b5b5f6141838482850161414d565b91505092915050565b7f4e6f7420617574686f72697a65640000000000000000000000000000000000005f82015250565b5f6141c0600e83614041565b91506141cb8261418c565b602082019050919050565b5f6020820190508181035f8301526141ed816141b4565b9050919050565b7f4d6178206f776e6572736869702070657263656e7461676520697320393025005f82015250565b5f614228601f83614041565b9150614233826141f4565b602082019050919050565b5f6020820190508181035f8301526142558161421c565b9050919050565b7f43616c6c6572206973206e6f7420616e2061646d696e000000000000000000005f82015250565b5f614290601683614041565b915061429b8261425c565b602082019050919050565b5f6020820190508181035f8301526142bd81614284565b9050919050565b7f496e76616c69642067616c6c65727920636f6e747261637400000000000000005f82015250565b5f6142f8601883614041565b9150614303826142c4565b602082019050919050565b5f6020820190508181035f830152614325816142ec565b9050919050565b7f4e487b71000000000000000000000000000000000000000000000000000000005f52602260045260245ffd5b5f600282049050600182168061437057607f821691505b6020821081036143835761438261432c565b5b50919050565b7f4e6f7420617574686f72697a656420746f2076696577207265717565737473005f82015250565b5f6143bd601f83614041565b91506143c882614389565b602082019050919050565b5f6020820190508181035f8301526143ea816143b1565b9050919050565b7f4d75737420686176652057414c4c5f4f574e45525f524f4c4520746f207265715f8201527f756573742077616c6c20726567697374726174696f6e00000000000000000000602082015250565b5f61444b603683614041565b9150614456826143f1565b604082019050919050565b5f6020820190508181035f8301526144788161443f565b9050919050565b7f496e76616c6964206c6f636174696f6e206461746100000000000000000000005f82015250565b5f6144b3601583614041565b91506144be8261447f565b602082019050919050565b5f6020820190508181035f8301526144e0816144a7565b9050919050565b7f496e76616c69642073697a6500000000000000000000000000000000000000005f82015250565b5f61451b600c83614041565b9150614526826144e7565b602082019050919050565b5f6020820190508181035f8301526145488161450f565b9050919050565b7f4e487b71000000000000000000000000000000000000000000000000000000005f52604160045260245ffd5b5f819050815f5260205f209050919050565b5f6020601f8301049050919050565b5f82821b905092915050565b5f600883026145d87fffffffffffffffffffffffffffffffffffffffffffffffffffffffffffffffff8261459d565b6145e2868361459d565b95508019841693508086168417925050509392505050565b5f61461461460f61460a846136ce565b613652565b6136ce565b9050919050565b5f819050919050565b61462d836145fa565b6146416146398261461b565b8484546145a9565b825550505050565b5f90565b614655614649565b614660818484614624565b505050565b5b81811015614683576146785f8261464d565b600181019050614666565b5050565b601f8211156146c8576146998161457c565b6146a28461458e565b810160208510156146b1578190505b6146c56146bd8561458e565b830182614665565b50505b505050565b5f82821c905092915050565b5f6146e85f19846008026146cd565b1980831691505092915050565b5f61470083836146d9565b9150826002028217905092915050565b614719826137df565b67ffffffffffffffff8111156147325761473161454f565b5b61473c8254614359565b614747828285614687565b5f60209050601f831160018114614778575f8415614766578287015190505b61477085826146f5565b8655506147d7565b601f1984166147868661457c565b5f5b828110156147ad57848901518255600182019150602085019450602081019050614788565b868310156147ca57848901516147c6601f8916826146d9565b8355505b6001600288020188555050505b505050505050565b5f82905092915050565b6147f383836147df565b67ffffffffffffffff81111561480c5761480b61454f565b5b6148168254614359565b614821828285614687565b5f601f83116001811461484e575f841561483c578287013590505b61484685826146f5565b8655506148ad565b601f19841661485c8661457c565b5f5b828110156148835784890135825560018201915060208501945060208101905061485e565b868310156148a0578489013561489c601f8916826146d9565b8355505b6001600288020188555050505b50505050505050565b7f496e76616c6964206e6577206f776e65720000000000000000000000000000005f82015250565b5f6148ea601183614041565b91506148f5826148b6565b602082019050919050565b5f6020820190508181035f830152614917816148de565b9050919050565b7f4e6577206f776e6572206d75737420686176652057414c4c5f4f574e45525f525f8201527f4f4c450000000000000000000000000000000000000000000000000000000000602082015250565b5f614978602383614041565b91506149838261491e565b604082019050919050565b5f6020820190508181035f8301526149a58161496c565b9050919050565b7f52657175657374206e6f742070656e64696e67000000000000000000000000005f82015250565b5f6149e0601383614041565b91506149eb826149ac565b602082019050919050565b5f6020820190508181035f830152614a0d816149d4565b9050919050565b7f526571756573746572206d757374206d61696e7461696e2057414c4c5f4f574e5f8201527f45525f524f4c4500000000000000000000000000000000000000000000000000602082015250565b5f614a6e602783614041565b9150614a7982614a14565b604082019050919050565b5f6020820190508181035f830152614a9b81614a62565b9050919050565b7f4f6e6c792067616c6c65727920636f6e74726163742063616e2063616c6c00005f82015250565b5f614ad6601e83614041565b9150614ae182614aa2565b602082019050919050565b5f6020820190508181035f830152614b0381614aca565b9050919050565b7f5061757361626c653a20706175736564000000000000000000000000000000005f82015250565b5f614b3e601083614041565b9150614b4982614b0a565b602082019050919050565b5f6020820190508181035f830152614b6b81614b32565b9050919050565b7f4e487b71000000000000000000000000000000000000000000000000000000005f52603260045260245ffd5b7f4e487b71000000000000000000000000000000000000000000000000000000005f52601160045260245ffd5b5f614bd6826136ce565b9150614be1836136ce565b9250828203905081811115614bf957614bf8614b9f565b5b92915050565b7f4e487b71000000000000000000000000000000000000000000000000000000005f52603160045260245ffd5b5f614c36826136ce565b91507fffffffffffffffffffffffffffffffffffffffffffffffffffffffffffffffff8203614c6857614c67614b9f565b5b600182019050919050565b7f5061757361626c653a206e6f74207061757365640000000000000000000000005f82015250565b5f614ca7601483614041565b9150614cb282614c73565b602082019050919050565b5f6020820190508181035f830152614cd481614c9b565b905091905056fea264697066735822122079d698e11cda940171d85298fe6106083ca2791f64b536811874017d1c668c4664736f6c63430008140033",
					"opcodes": "PUSH1 0x80 PUSH1 0x40 MSTORE CALLVALUE DUP1 ISZERO PUSH3 0x10 JUMPI PUSH0 DUP1 REVERT JUMPDEST POP PUSH1 0x40 MLOAD PUSH3 0x4F38 CODESIZE SUB DUP1 PUSH3 0x4F38 DUP4 CODECOPY DUP2 DUP2 ADD PUSH1 0x40 MSTORE DUP2 ADD SWAP1 PUSH3 0x36 SWAP2 SWAP1 PUSH3 0x16B JUMP JUMPDEST PUSH0 DUP1 PUSH0 PUSH2 0x100 EXP DUP2 SLOAD DUP2 PUSH1 0xFF MUL NOT AND SWAP1 DUP4 ISZERO ISZERO MUL OR SWAP1 SSTORE POP PUSH0 PUSH20 0xFFFFFFFFFFFFFFFFFFFFFFFFFFFFFFFFFFFFFFFF AND DUP2 PUSH20 0xFFFFFFFFFFFFFFFFFFFFFFFFFFFFFFFFFFFFFFFF AND SUB PUSH3 0xBF JUMPI PUSH1 0x40 MLOAD PUSH32 0x8C379A000000000000000000000000000000000000000000000000000000000 DUP2 MSTORE PUSH1 0x4 ADD PUSH3 0xB6 SWAP1 PUSH3 0x1F9 JUMP JUMPDEST PUSH1 0x40 MLOAD DUP1 SWAP2 SUB SWAP1 REVERT JUMPDEST DUP1 PUSH1 0x1 PUSH0 PUSH2 0x100 EXP DUP2 SLOAD DUP2 PUSH20 0xFFFFFFFFFFFFFFFFFFFFFFFFFFFFFFFFFFFFFFFF MUL NOT AND SWAP1 DUP4 PUSH20 0xFFFFFFFFFFFFFFFFFFFFFFFFFFFFFFFFFFFFFFFF AND MUL OR SWAP1 SSTORE POP POP PUSH3 0x219 JUMP JUMPDEST PUSH0 DUP1 REVERT JUMPDEST PUSH0 PUSH20 0xFFFFFFFFFFFFFFFFFFFFFFFFFFFFFFFFFFFFFFFF DUP3 AND SWAP1 POP SWAP2 SWAP1 POP JUMP JUMPDEST PUSH0 PUSH3 0x135 DUP3 PUSH3 0x10A JUMP JUMPDEST SWAP1 POP SWAP2 SWAP1 POP JUMP JUMPDEST PUSH3 0x147 DUP2 PUSH3 0x129 JUMP JUMPDEST DUP2 EQ PUSH3 0x152 JUMPI PUSH0 DUP1 REVERT JUMPDEST POP JUMP JUMPDEST PUSH0 DUP2 MLOAD SWAP1 POP PUSH3 0x165 DUP2 PUSH3 0x13C JUMP JUMPDEST SWAP3 SWAP2 POP POP JUMP JUMPDEST PUSH0 PUSH1 0x20 DUP3 DUP5 SUB SLT ISZERO PUSH3 0x183 JUMPI PUSH3 0x182 PUSH3 0x106 JUMP JUMPDEST JUMPDEST PUSH0 PUSH3 0x192 DUP5 DUP3 DUP6 ADD PUSH3 0x155 JUMP JUMPDEST SWAP2 POP POP SWAP3 SWAP2 POP POP JUMP JUMPDEST PUSH0 DUP3 DUP3 MSTORE PUSH1 0x20 DUP3 ADD SWAP1 POP SWAP3 SWAP2 POP POP JUMP JUMPDEST PUSH32 0x496E76616C696420526F6C654D616E6167657220616464726573730000000000 PUSH0 DUP3 ADD MSTORE POP JUMP JUMPDEST PUSH0 PUSH3 0x1E1 PUSH1 0x1B DUP4 PUSH3 0x19B JUMP JUMPDEST SWAP2 POP PUSH3 0x1EE DUP3 PUSH3 0x1AB JUMP JUMPDEST PUSH1 0x20 DUP3 ADD SWAP1 POP SWAP2 SWAP1 POP JUMP JUMPDEST PUSH0 PUSH1 0x20 DUP3 ADD SWAP1 POP DUP2 DUP2 SUB PUSH0 DUP4 ADD MSTORE PUSH3 0x212 DUP2 PUSH3 0x1D3 JUMP JUMPDEST SWAP1 POP SWAP2 SWAP1 POP JUMP JUMPDEST PUSH2 0x4D11 DUP1 PUSH3 0x227 PUSH0 CODECOPY PUSH0 RETURN INVALID PUSH1 0x80 PUSH1 0x40 MSTORE CALLVALUE DUP1 ISZERO PUSH2 0xF JUMPI PUSH0 DUP1 REVERT JUMPDEST POP PUSH1 0x4 CALLDATASIZE LT PUSH2 0x129 JUMPI PUSH0 CALLDATALOAD PUSH1 0xE0 SHR DUP1 PUSH4 0x8456CB59 GT PUSH2 0xAB JUMPI DUP1 PUSH4 0xCE290E1D GT PUSH2 0x6F JUMPI DUP1 PUSH4 0xCE290E1D EQ PUSH2 0x2FE JUMPI DUP1 PUSH4 0xDA817A24 EQ PUSH2 0x31A JUMPI DUP1 PUSH4 0xEFC953EF EQ PUSH2 0x34A JUMPI DUP1 PUSH4 0xF64FEE98 EQ PUSH2 0x37A JUMPI DUP1 PUSH4 0xFF91E489 EQ PUSH2 0x396 JUMPI PUSH2 0x129 JUMP JUMPDEST DUP1 PUSH4 0x8456CB59 EQ PUSH2 0x284 JUMPI DUP1 PUSH4 0x9F754AAD EQ PUSH2 0x28E JUMPI DUP1 PUSH4 0x9FD199F6 EQ PUSH2 0x2AA JUMPI DUP1 PUSH4 0xA1519B11 EQ PUSH2 0x2C6 JUMPI DUP1 PUSH4 0xCB3DE478 EQ PUSH2 0x2E2 JUMPI PUSH2 0x129 JUMP JUMPDEST DUP1 PUSH4 0x550A3DBA GT PUSH2 0xF2 JUMPI DUP1 PUSH4 0x550A3DBA EQ PUSH2 0x1C2 JUMPI DUP1 PUSH4 0x5C975ABB EQ PUSH2 0x1FA JUMPI DUP1 PUSH4 0x6F725C13 EQ PUSH2 0x218 JUMPI DUP1 PUSH4 0x71D24B70 EQ PUSH2 0x248 JUMPI DUP1 PUSH4 0x80A1F712 EQ PUSH2 0x266 JUMPI PUSH2 0x129 JUMP JUMPDEST DUP1 PUSH3 0x435DA5 EQ PUSH2 0x12D JUMPI DUP1 PUSH4 0x42AA220 EQ PUSH2 0x14B JUMPI DUP1 PUSH4 0x2B41C0E0 EQ PUSH2 0x167 JUMPI DUP1 PUSH4 0x3F4BA83A EQ PUSH2 0x183 JUMPI DUP1 PUSH4 0x44EE00B7 EQ PUSH2 0x18D JUMPI JUMPDEST PUSH0 DUP1 REVERT JUMPDEST PUSH2 0x135 PUSH2 0x3C6 JUMP JUMPDEST PUSH1 0x40 MLOAD PUSH2 0x142 SWAP2 SWAP1 PUSH2 0x36AD JUMP JUMPDEST PUSH1 0x40 MLOAD DUP1 SWAP2 SUB SWAP1 RETURN JUMPDEST PUSH2 0x165 PUSH1 0x4 DUP1 CALLDATASIZE SUB DUP2 ADD SWAP1 PUSH2 0x160 SWAP2 SWAP1 PUSH2 0x3701 JUMP JUMPDEST PUSH2 0x3EB JUMP JUMPDEST STOP JUMPDEST PUSH2 0x181 PUSH1 0x4 DUP1 CALLDATASIZE SUB DUP2 ADD SWAP1 PUSH2 0x17C SWAP2 SWAP1 PUSH2 0x377A JUMP JUMPDEST PUSH2 0x71A JUMP JUMPDEST STOP JUMPDEST PUSH2 0x18B PUSH2 0x932 JUMP JUMPDEST STOP JUMPDEST PUSH2 0x1A7 PUSH1 0x4 DUP1 CALLDATASIZE SUB DUP2 ADD SWAP1 PUSH2 0x1A2 SWAP2 SWAP1 PUSH2 0x37A5 JUMP JUMPDEST PUSH2 0xAA3 JUMP JUMPDEST PUSH1 0x40 MLOAD PUSH2 0x1B9 SWAP7 SWAP6 SWAP5 SWAP4 SWAP3 SWAP2 SWAP1 PUSH2 0x392B JUMP JUMPDEST PUSH1 0x40 MLOAD DUP1 SWAP2 SUB SWAP1 RETURN JUMPDEST PUSH2 0x1DC PUSH1 0x4 DUP1 CALLDATASIZE SUB DUP2 ADD SWAP1 PUSH2 0x1D7 SWAP2 SWAP1 PUSH2 0x37A5 JUMP JUMPDEST PUSH2 0xCE0 JUMP JUMPDEST PUSH1 0x40 MLOAD PUSH2 0x1F1 SWAP10 SWAP9 SWAP8 SWAP7 SWAP6 SWAP5 SWAP4 SWAP3 SWAP2 SWAP1 PUSH2 0x3991 JUMP JUMPDEST PUSH1 0x40 MLOAD DUP1 SWAP2 SUB SWAP1 RETURN JUMPDEST PUSH2 0x202 PUSH2 0xF22 JUMP JUMPDEST PUSH1 0x40 MLOAD PUSH2 0x20F SWAP2 SWAP1 PUSH2 0x3A23 JUMP JUMPDEST PUSH1 0x40 MLOAD DUP1 SWAP2 SUB SWAP1 RETURN JUMPDEST PUSH2 0x232 PUSH1 0x4 DUP1 CALLDATASIZE SUB DUP2 ADD SWAP1 PUSH2 0x22D SWAP2 SWAP1 PUSH2 0x3A3C JUMP JUMPDEST PUSH2 0xF36 JUMP JUMPDEST PUSH1 0x40 MLOAD PUSH2 0x23F SWAP2 SWAP1 PUSH2 0x3A7A JUMP JUMPDEST PUSH1 0x40 MLOAD DUP1 SWAP2 SUB SWAP1 RETURN JUMPDEST PUSH2 0x250 PUSH2 0xF61 JUMP JUMPDEST PUSH1 0x40 MLOAD PUSH2 0x25D SWAP2 SWAP1 PUSH2 0x3A93 JUMP JUMPDEST PUSH1 0x40 MLOAD DUP1 SWAP2 SUB SWAP1 RETURN JUMPDEST PUSH2 0x26E PUSH2 0xF86 JUMP JUMPDEST PUSH1 0x40 MLOAD PUSH2 0x27B SWAP2 SWAP1 PUSH2 0x3B63 JUMP JUMPDEST PUSH1 0x40 MLOAD DUP1 SWAP2 SUB SWAP1 RETURN JUMPDEST PUSH2 0x28C PUSH2 0x1272 JUMP JUMPDEST STOP JUMPDEST PUSH2 0x2A8 PUSH1 0x4 DUP1 CALLDATASIZE SUB DUP2 ADD SWAP1 PUSH2 0x2A3 SWAP2 SWAP1 PUSH2 0x3C0E JUMP JUMPDEST PUSH2 0x13E3 JUMP JUMPDEST STOP JUMPDEST PUSH2 0x2C4 PUSH1 0x4 DUP1 CALLDATASIZE SUB DUP2 ADD SWAP1 PUSH2 0x2BF SWAP2 SWAP1 PUSH2 0x3D0B JUMP JUMPDEST PUSH2 0x18F3 JUMP JUMPDEST STOP JUMPDEST PUSH2 0x2E0 PUSH1 0x4 DUP1 CALLDATASIZE SUB DUP2 ADD SWAP1 PUSH2 0x2DB SWAP2 SWAP1 PUSH2 0x3E08 JUMP JUMPDEST PUSH2 0x1CC1 JUMP JUMPDEST STOP JUMPDEST PUSH2 0x2FC PUSH1 0x4 DUP1 CALLDATASIZE SUB DUP2 ADD SWAP1 PUSH2 0x2F7 SWAP2 SWAP1 PUSH2 0x37A5 JUMP JUMPDEST PUSH2 0x2280 JUMP JUMPDEST STOP JUMPDEST PUSH2 0x318 PUSH1 0x4 DUP1 CALLDATASIZE SUB DUP2 ADD SWAP1 PUSH2 0x313 SWAP2 SWAP1 PUSH2 0x3E70 JUMP JUMPDEST PUSH2 0x2A3D JUMP JUMPDEST STOP JUMPDEST PUSH2 0x334 PUSH1 0x4 DUP1 CALLDATASIZE SUB DUP2 ADD SWAP1 PUSH2 0x32F SWAP2 SWAP1 PUSH2 0x37A5 JUMP JUMPDEST PUSH2 0x2C0A JUMP JUMPDEST PUSH1 0x40 MLOAD PUSH2 0x341 SWAP2 SWAP1 PUSH2 0x3A7A JUMP JUMPDEST PUSH1 0x40 MLOAD DUP1 SWAP2 SUB SWAP1 RETURN JUMPDEST PUSH2 0x364 PUSH1 0x4 DUP1 CALLDATASIZE SUB DUP2 ADD SWAP1 PUSH2 0x35F SWAP2 SWAP1 PUSH2 0x377A JUMP JUMPDEST PUSH2 0x2C2A JUMP JUMPDEST PUSH1 0x40 MLOAD PUSH2 0x371 SWAP2 SWAP1 PUSH2 0x3B63 JUMP JUMPDEST PUSH1 0x40 MLOAD DUP1 SWAP2 SUB SWAP1 RETURN JUMPDEST PUSH2 0x394 PUSH1 0x4 DUP1 CALLDATASIZE SUB DUP2 ADD SWAP1 PUSH2 0x38F SWAP2 SWAP1 PUSH2 0x37A5 JUMP JUMPDEST PUSH2 0x2CBD JUMP JUMPDEST STOP JUMPDEST PUSH2 0x3B0 PUSH1 0x4 DUP1 CALLDATASIZE SUB DUP2 ADD SWAP1 PUSH2 0x3AB SWAP2 SWAP1 PUSH2 0x37A5 JUMP JUMPDEST PUSH2 0x2F01 JUMP JUMPDEST PUSH1 0x40 MLOAD PUSH2 0x3BD SWAP2 SWAP1 PUSH2 0x4021 JUMP JUMPDEST PUSH1 0x40 MLOAD DUP1 SWAP2 SUB SWAP1 RETURN JUMPDEST PUSH1 0x1 PUSH0 SWAP1 SLOAD SWAP1 PUSH2 0x100 EXP SWAP1 DIV PUSH20 0xFFFFFFFFFFFFFFFFFFFFFFFFFFFFFFFFFFFFFFFF AND DUP2 JUMP JUMPDEST DUP2 PUSH0 PUSH20 0xFFFFFFFFFFFFFFFFFFFFFFFFFFFFFFFFFFFFFFFF AND PUSH1 0x3 PUSH0 DUP4 DUP2 MSTORE PUSH1 0x20 ADD SWAP1 DUP2 MSTORE PUSH1 0x20 ADD PUSH0 KECCAK256 PUSH1 0x1 ADD PUSH0 SWAP1 SLOAD SWAP1 PUSH2 0x100 EXP SWAP1 DIV PUSH20 0xFFFFFFFFFFFFFFFFFFFFFFFFFFFFFFFFFFFFFFFF AND PUSH20 0xFFFFFFFFFFFFFFFFFFFFFFFFFFFFFFFFFFFFFFFF AND SUB PUSH2 0x48D JUMPI PUSH1 0x40 MLOAD PUSH32 0x8C379A000000000000000000000000000000000000000000000000000000000 DUP2 MSTORE PUSH1 0x4 ADD PUSH2 0x484 SWAP1 PUSH2 0x409B JUMP JUMPDEST PUSH1 0x40 MLOAD DUP1 SWAP2 SUB SWAP1 REVERT JUMPDEST DUP3 CALLER PUSH20 0xFFFFFFFFFFFFFFFFFFFFFFFFFFFFFFFFFFFFFFFF AND PUSH1 0x3 PUSH0 DUP4 DUP2 MSTORE PUSH1 0x20 ADD SWAP1 DUP2 MSTORE PUSH1 0x20 ADD PUSH0 KECCAK256 PUSH1 0x1 ADD PUSH0 SWAP1 SLOAD SWAP1 PUSH2 0x100 EXP SWAP1 DIV PUSH20 0xFFFFFFFFFFFFFFFFFFFFFFFFFFFFFFFFFFFFFFFF AND PUSH20 0xFFFFFFFFFFFFFFFFFFFFFFFFFFFFFFFFFFFFFFFF AND EQ DUP1 PUSH2 0x61F JUMPI POP PUSH1 0x1 PUSH0 SWAP1 SLOAD SWAP1 PUSH2 0x100 EXP SWAP1 DIV PUSH20 0xFFFFFFFFFFFFFFFFFFFFFFFFFFFFFFFFFFFFFFFF AND PUSH20 0xFFFFFFFFFFFFFFFFFFFFFFFFFFFFFFFFFFFFFFFF AND PUSH4 0x91D14854 PUSH1 0x1 PUSH0 SWAP1 SLOAD SWAP1 PUSH2 0x100 EXP SWAP1 DIV PUSH20 0xFFFFFFFFFFFFFFFFFFFFFFFFFFFFFFFFFFFFFFFF AND PUSH20 0xFFFFFFFFFFFFFFFFFFFFFFFFFFFFFFFFFFFFFFFF AND PUSH4 0x75B238FC PUSH1 0x40 MLOAD DUP2 PUSH4 0xFFFFFFFF AND PUSH1 0xE0 SHL DUP2 MSTORE PUSH1 0x4 ADD PUSH1 0x20 PUSH1 0x40 MLOAD DUP1 DUP4 SUB DUP2 DUP7 GAS STATICCALL ISZERO DUP1 ISZERO PUSH2 0x59D JUMPI RETURNDATASIZE PUSH0 DUP1 RETURNDATACOPY RETURNDATASIZE PUSH0 REVERT JUMPDEST POP POP POP POP PUSH1 0x40 MLOAD RETURNDATASIZE PUSH1 0x1F NOT PUSH1 0x1F DUP3 ADD AND DUP3 ADD DUP1 PUSH1 0x40 MSTORE POP DUP2 ADD SWAP1 PUSH2 0x5C1 SWAP2 SWAP1 PUSH2 0x40EC JUMP JUMPDEST CALLER PUSH1 0x40 MLOAD DUP4 PUSH4 0xFFFFFFFF AND PUSH1 0xE0 SHL DUP2 MSTORE PUSH1 0x4 ADD PUSH2 0x5DF SWAP3 SWAP2 SWAP1 PUSH2 0x4126 JUMP JUMPDEST PUSH1 0x20 PUSH1 0x40 MLOAD DUP1 DUP4 SUB DUP2 DUP7 GAS STATICCALL ISZERO DUP1 ISZERO PUSH2 0x5FA JUMPI RETURNDATASIZE PUSH0 DUP1 RETURNDATACOPY RETURNDATASIZE PUSH0 REVERT JUMPDEST POP POP POP POP PUSH1 0x40 MLOAD RETURNDATASIZE PUSH1 0x1F NOT PUSH1 0x1F DUP3 ADD AND DUP3 ADD DUP1 PUSH1 0x40 MSTORE POP DUP2 ADD SWAP1 PUSH2 0x61E SWAP2 SWAP1 PUSH2 0x4161 JUMP JUMPDEST JUMPDEST PUSH2 0x65E JUMPI PUSH1 0x40 MLOAD PUSH32 0x8C379A000000000000000000000000000000000000000000000000000000000 DUP2 MSTORE PUSH1 0x4 ADD PUSH2 0x655 SWAP1 PUSH2 0x41D6 JUMP JUMPDEST PUSH1 0x40 MLOAD DUP1 SWAP2 SUB SWAP1 REVERT JUMPDEST PUSH2 0x666 PUSH2 0x3251 JUMP JUMPDEST PUSH1 0x5A DUP4 GT ISZERO PUSH2 0x6AA JUMPI PUSH1 0x40 MLOAD PUSH32 0x8C379A000000000000000000000000000000000000000000000000000000000 DUP2 MSTORE PUSH1 0x4 ADD PUSH2 0x6A1 SWAP1 PUSH2 0x423E JUMP JUMPDEST PUSH1 0x40 MLOAD DUP1 SWAP2 SUB SWAP1 REVERT JUMPDEST DUP3 PUSH1 0x3 PUSH0 DUP7 DUP2 MSTORE PUSH1 0x20 ADD SWAP1 DUP2 MSTORE PUSH1 0x20 ADD PUSH0 KECCAK256 PUSH1 0x8 ADD DUP2 SWAP1 SSTORE POP TIMESTAMP PUSH1 0x3 PUSH0 DUP7 DUP2 MSTORE PUSH1 0x20 ADD SWAP1 DUP2 MSTORE PUSH1 0x20 ADD PUSH0 KECCAK256 PUSH1 0xC ADD DUP2 SWAP1 SSTORE POP DUP4 PUSH32 0x873F6C666FD54A918C1E2592507083F1891E675A335C6D04D0BC1B5B3C169FDE DUP5 PUSH1 0x40 MLOAD PUSH2 0x70C SWAP2 SWAP1 PUSH2 0x3A7A JUMP JUMPDEST PUSH1 0x40 MLOAD DUP1 SWAP2 SUB SWAP1 LOG2 POP POP POP POP JUMP JUMPDEST PUSH1 0x1 PUSH0 SWAP1 SLOAD SWAP1 PUSH2 0x100 EXP SWAP1 DIV PUSH20 0xFFFFFFFFFFFFFFFFFFFFFFFFFFFFFFFFFFFFFFFF AND PUSH20 0xFFFFFFFFFFFFFFFFFFFFFFFFFFFFFFFFFFFFFFFF AND PUSH4 0x91D14854 PUSH1 0x1 PUSH0 SWAP1 SLOAD SWAP1 PUSH2 0x100 EXP SWAP1 DIV PUSH20 0xFFFFFFFFFFFFFFFFFFFFFFFFFFFFFFFFFFFFFFFF AND PUSH20 0xFFFFFFFFFFFFFFFFFFFFFFFFFFFFFFFFFFFFFFFF AND PUSH4 0x75B238FC PUSH1 0x40 MLOAD DUP2 PUSH4 0xFFFFFFFF AND PUSH1 0xE0 SHL DUP2 MSTORE PUSH1 0x4 ADD PUSH1 0x20 PUSH1 0x40 MLOAD DUP1 DUP4 SUB DUP2 DUP7 GAS STATICCALL ISZERO DUP1 ISZERO PUSH2 0x7C1 JUMPI RETURNDATASIZE PUSH0 DUP1 RETURNDATACOPY RETURNDATASIZE PUSH0 REVERT JUMPDEST POP POP POP POP PUSH1 0x40 MLOAD RETURNDATASIZE PUSH1 0x1F NOT PUSH1 0x1F DUP3 ADD AND DUP3 ADD DUP1 PUSH1 0x40 MSTORE POP DUP2 ADD SWAP1 PUSH2 0x7E5 SWAP2 SWAP1 PUSH2 0x40EC JUMP JUMPDEST CALLER PUSH1 0x40 MLOAD DUP4 PUSH4 0xFFFFFFFF AND PUSH1 0xE0 SHL DUP2 MSTORE PUSH1 0x4 ADD PUSH2 0x803 SWAP3 SWAP2 SWAP1 PUSH2 0x4126 JUMP JUMPDEST PUSH1 0x20 PUSH1 0x40 MLOAD DUP1 DUP4 SUB DUP2 DUP7 GAS STATICCALL ISZERO DUP1 ISZERO PUSH2 0x81E JUMPI RETURNDATASIZE PUSH0 DUP1 RETURNDATACOPY RETURNDATASIZE PUSH0 REVERT JUMPDEST POP POP POP POP PUSH1 0x40 MLOAD RETURNDATASIZE PUSH1 0x1F NOT PUSH1 0x1F DUP3 ADD AND DUP3 ADD DUP1 PUSH1 0x40 MSTORE POP DUP2 ADD SWAP1 PUSH2 0x842 SWAP2 SWAP1 PUSH2 0x4161 JUMP JUMPDEST PUSH2 0x881 JUMPI PUSH1 0x40 MLOAD PUSH32 0x8C379A000000000000000000000000000000000000000000000000000000000 DUP2 MSTORE PUSH1 0x4 ADD PUSH2 0x878 SWAP1 PUSH2 0x42A6 JUMP JUMPDEST PUSH1 0x40 MLOAD DUP1 SWAP2 SUB SWAP1 REVERT JUMPDEST PUSH0 PUSH20 0xFFFFFFFFFFFFFFFFFFFFFFFFFFFFFFFFFFFFFFFF AND DUP2 PUSH20 0xFFFFFFFFFFFFFFFFFFFFFFFFFFFFFFFFFFFFFFFF AND SUB PUSH2 0x8EF JUMPI PUSH1 0x40 MLOAD PUSH32 0x8C379A000000000000000000000000000000000000000000000000000000000 DUP2 MSTORE PUSH1 0x4 ADD PUSH2 0x8E6 SWAP1 PUSH2 0x430E JUMP JUMPDEST PUSH1 0x40 MLOAD DUP1 SWAP2 SUB SWAP1 REVERT JUMPDEST DUP1 PUSH0 PUSH1 0x1 PUSH2 0x100 EXP DUP2 SLOAD DUP2 PUSH20 0xFFFFFFFFFFFFFFFFFFFFFFFFFFFFFFFFFFFFFFFF MUL NOT AND SWAP1 DUP4 PUSH20 0xFFFFFFFFFFFFFFFFFFFFFFFFFFFFFFFFFFFFFFFF AND MUL OR SWAP1 SSTORE POP POP JUMP JUMPDEST PUSH1 0x1 PUSH0 SWAP1 SLOAD SWAP1 PUSH2 0x100 EXP SWAP1 DIV PUSH20 0xFFFFFFFFFFFFFFFFFFFFFFFFFFFFFFFFFFFFFFFF AND PUSH20 0xFFFFFFFFFFFFFFFFFFFFFFFFFFFFFFFFFFFFFFFF AND PUSH4 0x91D14854 PUSH1 0x1 PUSH0 SWAP1 SLOAD SWAP1 PUSH2 0x100 EXP SWAP1 DIV PUSH20 0xFFFFFFFFFFFFFFFFFFFFFFFFFFFFFFFFFFFFFFFF AND PUSH20 0xFFFFFFFFFFFFFFFFFFFFFFFFFFFFFFFFFFFFFFFF AND PUSH4 0x75B238FC PUSH1 0x40 MLOAD DUP2 PUSH4 0xFFFFFFFF AND PUSH1 0xE0 SHL DUP2 MSTORE PUSH1 0x4 ADD PUSH1 0x20 PUSH1 0x40 MLOAD DUP1 DUP4 SUB DUP2 DUP7 GAS STATICCALL ISZERO DUP1 ISZERO PUSH2 0x9D9 JUMPI RETURNDATASIZE PUSH0 DUP1 RETURNDATACOPY RETURNDATASIZE PUSH0 REVERT JUMPDEST POP POP POP POP PUSH1 0x40 MLOAD RETURNDATASIZE PUSH1 0x1F NOT PUSH1 0x1F DUP3 ADD AND DUP3 ADD DUP1 PUSH1 0x40 MSTORE POP DUP2 ADD SWAP1 PUSH2 0x9FD SWAP2 SWAP1 PUSH2 0x40EC JUMP JUMPDEST CALLER PUSH1 0x40 MLOAD DUP4 PUSH4 0xFFFFFFFF AND PUSH1 0xE0 SHL DUP2 MSTORE PUSH1 0x4 ADD PUSH2 0xA1B SWAP3 SWAP2 SWAP1 PUSH2 0x4126 JUMP JUMPDEST PUSH1 0x20 PUSH1 0x40 MLOAD DUP1 DUP4 SUB DUP2 DUP7 GAS STATICCALL ISZERO DUP1 ISZERO PUSH2 0xA36 JUMPI RETURNDATASIZE PUSH0 DUP1 RETURNDATACOPY RETURNDATASIZE PUSH0 REVERT JUMPDEST POP POP POP POP PUSH1 0x40 MLOAD RETURNDATASIZE PUSH1 0x1F NOT PUSH1 0x1F DUP3 ADD AND DUP3 ADD DUP1 PUSH1 0x40 MSTORE POP DUP2 ADD SWAP1 PUSH2 0xA5A SWAP2 SWAP1 PUSH2 0x4161 JUMP JUMPDEST PUSH2 0xA99 JUMPI PUSH1 0x40 MLOAD PUSH32 0x8C379A000000000000000000000000000000000000000000000000000000000 DUP2 MSTORE PUSH1 0x4 ADD PUSH2 0xA90 SWAP1 PUSH2 0x42A6 JUMP JUMPDEST PUSH1 0x40 MLOAD DUP1 SWAP2 SUB SWAP1 REVERT JUMPDEST PUSH2 0xAA1 PUSH2 0x329B JUMP JUMPDEST JUMP JUMPDEST PUSH1 0x4 PUSH1 0x20 MSTORE DUP1 PUSH0 MSTORE PUSH1 0x40 PUSH0 KECCAK256 PUSH0 SWAP2 POP SWAP1 POP DUP1 PUSH0 ADD PUSH0 SWAP1 SLOAD SWAP1 PUSH2 0x100 EXP SWAP1 DIV PUSH20 0xFFFFFFFFFFFFFFFFFFFFFFFFFFFFFFFFFFFFFFFF AND SWAP1 DUP1 PUSH1 0x1 ADD PUSH1 0x40 MLOAD DUP1 PUSH1 0xA0 ADD PUSH1 0x40 MSTORE SWAP1 DUP2 PUSH0 DUP3 ADD DUP1 SLOAD PUSH2 0xAF6 SWAP1 PUSH2 0x4359 JUMP JUMPDEST DUP1 PUSH1 0x1F ADD PUSH1 0x20 DUP1 SWAP2 DIV MUL PUSH1 0x20 ADD PUSH1 0x40 MLOAD SWAP1 DUP2 ADD PUSH1 0x40 MSTORE DUP1 SWAP3 SWAP2 SWAP1 DUP2 DUP2 MSTORE PUSH1 0x20 ADD DUP3 DUP1 SLOAD PUSH2 0xB22 SWAP1 PUSH2 0x4359 JUMP JUMPDEST DUP1 ISZERO PUSH2 0xB6D JUMPI DUP1 PUSH1 0x1F LT PUSH2 0xB44 JUMPI PUSH2 0x100 DUP1 DUP4 SLOAD DIV MUL DUP4 MSTORE SWAP2 PUSH1 0x20 ADD SWAP2 PUSH2 0xB6D JUMP JUMPDEST DUP3 ADD SWAP2 SWAP1 PUSH0 MSTORE PUSH1 0x20 PUSH0 KECCAK256 SWAP1 JUMPDEST DUP2 SLOAD DUP2 MSTORE SWAP1 PUSH1 0x1 ADD SWAP1 PUSH1 0x20 ADD DUP1 DUP4 GT PUSH2 0xB50 JUMPI DUP3 SWAP1 SUB PUSH1 0x1F AND DUP3 ADD SWAP2 JUMPDEST POP POP POP POP POP DUP2 MSTORE PUSH1 0x20 ADD PUSH1 0x1 DUP3 ADD DUP1 SLOAD PUSH2 0xB86 SWAP1 PUSH2 0x4359 JUMP JUMPDEST DUP1 PUSH1 0x1F ADD PUSH1 0x20 DUP1 SWAP2 DIV MUL PUSH1 0x20 ADD PUSH1 0x40 MLOAD SWAP1 DUP2 ADD PUSH1 0x40 MSTORE DUP1 SWAP3 SWAP2 SWAP1 DUP2 DUP2 MSTORE PUSH1 0x20 ADD DUP3 DUP1 SLOAD PUSH2 0xBB2 SWAP1 PUSH2 0x4359 JUMP JUMPDEST DUP1 ISZERO PUSH2 0xBFD JUMPI DUP1 PUSH1 0x1F LT PUSH2 0xBD4 JUMPI PUSH2 0x100 DUP1 DUP4 SLOAD DIV MUL DUP4 MSTORE SWAP2 PUSH1 0x20 ADD SWAP2 PUSH2 0xBFD JUMP JUMPDEST DUP3 ADD SWAP2 SWAP1 PUSH0 MSTORE PUSH1 0x20 PUSH0 KECCAK256 SWAP1 JUMPDEST DUP2 SLOAD DUP2 MSTORE SWAP1 PUSH1 0x1 ADD SWAP1 PUSH1 0x20 ADD DUP1 DUP4 GT PUSH2 0xBE0 JUMPI DUP3 SWAP1 SUB PUSH1 0x1F AND DUP3 ADD SWAP2 JUMPDEST POP POP POP POP POP DUP2 MSTORE PUSH1 0x20 ADD PUSH1 0x2 DUP3 ADD DUP1 SLOAD PUSH2 0xC16 SWAP1 PUSH2 0x4359 JUMP JUMPDEST DUP1 PUSH1 0x1F ADD PUSH1 0x20 DUP1 SWAP2 DIV MUL PUSH1 0x20 ADD PUSH1 0x40 MLOAD SWAP1 DUP2 ADD PUSH1 0x40 MSTORE DUP1 SWAP3 SWAP2 SWAP1 DUP2 DUP2 MSTORE PUSH1 0x20 ADD DUP3 DUP1 SLOAD PUSH2 0xC42 SWAP1 PUSH2 0x4359 JUMP JUMPDEST DUP1 ISZERO PUSH2 0xC8D JUMPI DUP1 PUSH1 0x1F LT PUSH2 0xC64 JUMPI PUSH2 0x100 DUP1 DUP4 SLOAD DIV MUL DUP4 MSTORE SWAP2 PUSH1 0x20 ADD SWAP2 PUSH2 0xC8D JUMP JUMPDEST DUP3 ADD SWAP2 SWAP1 PUSH0 MSTORE PUSH1 0x20 PUSH0 KECCAK256 SWAP1 JUMPDEST DUP2 SLOAD DUP2 MSTORE SWAP1 PUSH1 0x1 ADD SWAP1 PUSH1 0x20 ADD DUP1 DUP4 GT PUSH2 0xC70 JUMPI DUP3 SWAP1 SUB PUSH1 0x1F AND DUP3 ADD SWAP2 JUMPDEST POP POP POP POP POP DUP2 MSTORE PUSH1 0x20 ADD PUSH1 0x3 DUP3 ADD SLOAD DUP2 MSTORE PUSH1 0x20 ADD PUSH1 0x4 DUP3 ADD SLOAD DUP2 MSTORE POP POP SWAP1 DUP1 PUSH1 0x6 ADD SLOAD SWAP1 DUP1 PUSH1 0x7 ADD SLOAD SWAP1 DUP1 PUSH1 0x8 ADD PUSH0 SWAP1 SLOAD SWAP1 PUSH2 0x100 EXP SWAP1 DIV PUSH1 0xFF AND SWAP1 DUP1 PUSH1 0x8 ADD PUSH1 0x1 SWAP1 SLOAD SWAP1 PUSH2 0x100 EXP SWAP1 DIV PUSH1 0xFF AND SWAP1 POP DUP7 JUMP JUMPDEST PUSH1 0x3 PUSH1 0x20 MSTORE DUP1 PUSH0 MSTORE PUSH1 0x40 PUSH0 KECCAK256 PUSH0 SWAP2 POP SWAP1 POP DUP1 PUSH0 ADD SLOAD SWAP1 DUP1 PUSH1 0x1 ADD PUSH0 SWAP1 SLOAD SWAP1 PUSH2 0x100 EXP SWAP1 DIV PUSH20 0xFFFFFFFFFFFFFFFFFFFFFFFFFFFFFFFFFFFFFFFF AND SWAP1 DUP1 PUSH1 0x2 ADD PUSH1 0x40 MLOAD DUP1 PUSH1 0xA0 ADD PUSH1 0x40 MSTORE SWAP1 DUP2 PUSH0 DUP3 ADD DUP1 SLOAD PUSH2 0xD39 SWAP1 PUSH2 0x4359 JUMP JUMPDEST DUP1 PUSH1 0x1F ADD PUSH1 0x20 DUP1 SWAP2 DIV MUL PUSH1 0x20 ADD PUSH1 0x40 MLOAD SWAP1 DUP2 ADD PUSH1 0x40 MSTORE DUP1 SWAP3 SWAP2 SWAP1 DUP2 DUP2 MSTORE PUSH1 0x20 ADD DUP3 DUP1 SLOAD PUSH2 0xD65 SWAP1 PUSH2 0x4359 JUMP JUMPDEST DUP1 ISZERO PUSH2 0xDB0 JUMPI DUP1 PUSH1 0x1F LT PUSH2 0xD87 JUMPI PUSH2 0x100 DUP1 DUP4 SLOAD DIV MUL DUP4 MSTORE SWAP2 PUSH1 0x20 ADD SWAP2 PUSH2 0xDB0 JUMP JUMPDEST DUP3 ADD SWAP2 SWAP1 PUSH0 MSTORE PUSH1 0x20 PUSH0 KECCAK256 SWAP1 JUMPDEST DUP2 SLOAD DUP2 MSTORE SWAP1 PUSH1 0x1 ADD SWAP1 PUSH1 0x20 ADD DUP1 DUP4 GT PUSH2 0xD93 JUMPI DUP3 SWAP1 SUB PUSH1 0x1F AND DUP3 ADD SWAP2 JUMPDEST POP POP POP POP POP DUP2 MSTORE PUSH1 0x20 ADD PUSH1 0x1 DUP3 ADD DUP1 SLOAD PUSH2 0xDC9 SWAP1 PUSH2 0x4359 JUMP JUMPDEST DUP1 PUSH1 0x1F ADD PUSH1 0x20 DUP1 SWAP2 DIV MUL PUSH1 0x20 ADD PUSH1 0x40 MLOAD SWAP1 DUP2 ADD PUSH1 0x40 MSTORE DUP1 SWAP3 SWAP2 SWAP1 DUP2 DUP2 MSTORE PUSH1 0x20 ADD DUP3 DUP1 SLOAD PUSH2 0xDF5 SWAP1 PUSH2 0x4359 JUMP JUMPDEST DUP1 ISZERO PUSH2 0xE40 JUMPI DUP1 PUSH1 0x1F LT PUSH2 0xE17 JUMPI PUSH2 0x100 DUP1 DUP4 SLOAD DIV MUL DUP4 MSTORE SWAP2 PUSH1 0x20 ADD SWAP2 PUSH2 0xE40 JUMP JUMPDEST DUP3 ADD SWAP2 SWAP1 PUSH0 MSTORE PUSH1 0x20 PUSH0 KECCAK256 SWAP1 JUMPDEST DUP2 SLOAD DUP2 MSTORE SWAP1 PUSH1 0x1 ADD SWAP1 PUSH1 0x20 ADD DUP1 DUP4 GT PUSH2 0xE23 JUMPI DUP3 SWAP1 SUB PUSH1 0x1F AND DUP3 ADD SWAP2 JUMPDEST POP POP POP POP POP DUP2 MSTORE PUSH1 0x20 ADD PUSH1 0x2 DUP3 ADD DUP1 SLOAD PUSH2 0xE59 SWAP1 PUSH2 0x4359 JUMP JUMPDEST DUP1 PUSH1 0x1F ADD PUSH1 0x20 DUP1 SWAP2 DIV MUL PUSH1 0x20 ADD PUSH1 0x40 MLOAD SWAP1 DUP2 ADD PUSH1 0x40 MSTORE DUP1 SWAP3 SWAP2 SWAP1 DUP2 DUP2 MSTORE PUSH1 0x20 ADD DUP3 DUP1 SLOAD PUSH2 0xE85 SWAP1 PUSH2 0x4359 JUMP JUMPDEST DUP1 ISZERO PUSH2 0xED0 JUMPI DUP1 PUSH1 0x1F LT PUSH2 0xEA7 JUMPI PUSH2 0x100 DUP1 DUP4 SLOAD DIV MUL DUP4 MSTORE SWAP2 PUSH1 0x20 ADD SWAP2 PUSH2 0xED0 JUMP JUMPDEST DUP3 ADD SWAP2 SWAP1 PUSH0 MSTORE PUSH1 0x20 PUSH0 KECCAK256 SWAP1 JUMPDEST DUP2 SLOAD DUP2 MSTORE SWAP1 PUSH1 0x1 ADD SWAP1 PUSH1 0x20 ADD DUP1 DUP4 GT PUSH2 0xEB3 JUMPI DUP3 SWAP1 SUB PUSH1 0x1F AND DUP3 ADD SWAP2 JUMPDEST POP POP POP POP POP DUP2 MSTORE PUSH1 0x20 ADD PUSH1 0x3 DUP3 ADD SLOAD DUP2 MSTORE PUSH1 0x20 ADD PUSH1 0x4 DUP3 ADD SLOAD DUP2 MSTORE POP POP SWAP1 DUP1 PUSH1 0x7 ADD SLOAD SWAP1 DUP1 PUSH1 0x8 ADD SLOAD SWAP1 DUP1 PUSH1 0x9 ADD PUSH0 SWAP1 SLOAD SWAP1 PUSH2 0x100 EXP SWAP1 DIV PUSH1 0xFF AND SWAP1 DUP1 PUSH1 0xA ADD SLOAD SWAP1 DUP1 PUSH1 0xB ADD SLOAD SWAP1 DUP1 PUSH1 0xC ADD SLOAD SWAP1 POP DUP10 JUMP JUMPDEST PUSH0 DUP1 PUSH0 SWAP1 SLOAD SWAP1 PUSH2 0x100 EXP SWAP1 DIV PUSH1 0xFF AND SWAP1 POP SWAP1 JUMP JUMPDEST PUSH1 0x5 PUSH1 0x20 MSTORE DUP2 PUSH0 MSTORE PUSH1 0x40 PUSH0 KECCAK256 DUP2 DUP2 SLOAD DUP2 LT PUSH2 0xF4F JUMPI PUSH0 DUP1 REVERT JUMPDEST SWAP1 PUSH0 MSTORE PUSH1 0x20 PUSH0 KECCAK256 ADD PUSH0 SWAP2 POP SWAP2 POP POP SLOAD DUP2 JUMP JUMPDEST PUSH0 PUSH1 0x1 SWAP1 SLOAD SWAP1 PUSH2 0x100 EXP SWAP1 DIV PUSH20 0xFFFFFFFFFFFFFFFFFFFFFFFFFFFFFFFFFFFFFFFF AND DUP2 JUMP JUMPDEST PUSH1 0x60 PUSH1 0x1 PUSH0 SWAP1 SLOAD SWAP1 PUSH2 0x100 EXP SWAP1 DIV PUSH20 0xFFFFFFFFFFFFFFFFFFFFFFFFFFFFFFFFFFFFFFFF AND PUSH20 0xFFFFFFFFFFFFFFFFFFFFFFFFFFFFFFFFFFFFFFFF AND PUSH4 0x91D14854 PUSH1 0x1 PUSH0 SWAP1 SLOAD SWAP1 PUSH2 0x100 EXP SWAP1 DIV PUSH20 0xFFFFFFFFFFFFFFFFFFFFFFFFFFFFFFFFFFFFFFFF AND PUSH20 0xFFFFFFFFFFFFFFFFFFFFFFFFFFFFFFFFFFFFFFFF AND PUSH4 0x75B238FC PUSH1 0x40 MLOAD DUP2 PUSH4 0xFFFFFFFF AND PUSH1 0xE0 SHL DUP2 MSTORE PUSH1 0x4 ADD PUSH1 0x20 PUSH1 0x40 MLOAD DUP1 DUP4 SUB DUP2 DUP7 GAS STATICCALL ISZERO DUP1 ISZERO PUSH2 0x102F JUMPI RETURNDATASIZE PUSH0 DUP1 RETURNDATACOPY RETURNDATASIZE PUSH0 REVERT JUMPDEST POP POP POP POP PUSH1 0x40 MLOAD RETURNDATASIZE PUSH1 0x1F NOT PUSH1 0x1F DUP3 ADD AND DUP3 ADD DUP1 PUSH1 0x40 MSTORE POP DUP2 ADD SWAP1 PUSH2 0x1053 SWAP2 SWAP1 PUSH2 0x40EC JUMP JUMPDEST CALLER PUSH1 0x40 MLOAD DUP4 PUSH4 0xFFFFFFFF AND PUSH1 0xE0 SHL DUP2 MSTORE PUSH1 0x4 ADD PUSH2 0x1071 SWAP3 SWAP2 SWAP1 PUSH2 0x4126 JUMP JUMPDEST PUSH1 0x20 PUSH1 0x40 MLOAD DUP1 DUP4 SUB DUP2 DUP7 GAS STATICCALL ISZERO DUP1 ISZERO PUSH2 0x108C JUMPI RETURNDATASIZE PUSH0 DUP1 RETURNDATACOPY RETURNDATASIZE PUSH0 REVERT JUMPDEST POP POP POP POP PUSH1 0x40 MLOAD RETURNDATASIZE PUSH1 0x1F NOT PUSH1 0x1F DUP3 ADD AND DUP3 ADD DUP1 PUSH1 0x40 MSTORE POP DUP2 ADD SWAP1 PUSH2 0x10B0 SWAP2 SWAP1 PUSH2 0x4161 JUMP JUMPDEST DUP1 PUSH2 0x11DF JUMPI POP PUSH1 0x1 PUSH0 SWAP1 SLOAD SWAP1 PUSH2 0x100 EXP SWAP1 DIV PUSH20 0xFFFFFFFFFFFFFFFFFFFFFFFFFFFFFFFFFFFFFFFF AND PUSH20 0xFFFFFFFFFFFFFFFFFFFFFFFFFFFFFFFFFFFFFFFF AND PUSH4 0x91D14854 PUSH1 0x1 PUSH0 SWAP1 SLOAD SWAP1 PUSH2 0x100 EXP SWAP1 DIV PUSH20 0xFFFFFFFFFFFFFFFFFFFFFFFFFFFFFFFFFFFFFFFF AND PUSH20 0xFFFFFFFFFFFFFFFFFFFFFFFFFFFFFFFFFFFFFFFF AND PUSH4 0x98E4ABB5 PUSH1 0x40 MLOAD DUP2 PUSH4 0xFFFFFFFF AND PUSH1 0xE0 SHL DUP2 MSTORE PUSH1 0x4 ADD PUSH1 0x20 PUSH1 0x40 MLOAD DUP1 DUP4 SUB DUP2 DUP7 GAS STATICCALL ISZERO DUP1 ISZERO PUSH2 0x115D JUMPI RETURNDATASIZE PUSH0 DUP1 RETURNDATACOPY RETURNDATASIZE PUSH0 REVERT JUMPDEST POP POP POP POP PUSH1 0x40 MLOAD RETURNDATASIZE PUSH1 0x1F NOT PUSH1 0x1F DUP3 ADD AND DUP3 ADD DUP1 PUSH1 0x40 MSTORE POP DUP2 ADD SWAP1 PUSH2 0x1181 SWAP2 SWAP1 PUSH2 0x40EC JUMP JUMPDEST CALLER PUSH1 0x40 MLOAD DUP4 PUSH4 0xFFFFFFFF AND PUSH1 0xE0 SHL DUP2 MSTORE PUSH1 0x4 ADD PUSH2 0x119F SWAP3 SWAP2 SWAP1 PUSH2 0x4126 JUMP JUMPDEST PUSH1 0x20 PUSH1 0x40 MLOAD DUP1 DUP4 SUB DUP2 DUP7 GAS STATICCALL ISZERO DUP1 ISZERO PUSH2 0x11BA JUMPI RETURNDATASIZE PUSH0 DUP1 RETURNDATACOPY RETURNDATASIZE PUSH0 REVERT JUMPDEST POP POP POP POP PUSH1 0x40 MLOAD RETURNDATASIZE PUSH1 0x1F NOT PUSH1 0x1F DUP3 ADD AND DUP3 ADD DUP1 PUSH1 0x40 MSTORE POP DUP2 ADD SWAP1 PUSH2 0x11DE SWAP2 SWAP1 PUSH2 0x4161 JUMP JUMPDEST JUMPDEST PUSH2 0x121E JUMPI PUSH1 0x40 MLOAD PUSH32 0x8C379A000000000000000000000000000000000000000000000000000000000 DUP2 MSTORE PUSH1 0x4 ADD PUSH2 0x1215 SWAP1 PUSH2 0x43D3 JUMP JUMPDEST PUSH1 0x40 MLOAD DUP1 SWAP2 SUB SWAP1 REVERT JUMPDEST PUSH1 0x6 DUP1 SLOAD DUP1 PUSH1 0x20 MUL PUSH1 0x20 ADD PUSH1 0x40 MLOAD SWAP1 DUP2 ADD PUSH1 0x40 MSTORE DUP1 SWAP3 SWAP2 SWAP1 DUP2 DUP2 MSTORE PUSH1 0x20 ADD DUP3 DUP1 SLOAD DUP1 ISZERO PUSH2 0x1268 JUMPI PUSH1 0x20 MUL DUP3 ADD SWAP2 SWAP1 PUSH0 MSTORE PUSH1 0x20 PUSH0 KECCAK256 SWAP1 JUMPDEST DUP2 SLOAD DUP2 MSTORE PUSH1 0x20 ADD SWAP1 PUSH1 0x1 ADD SWAP1 DUP1 DUP4 GT PUSH2 0x1254 JUMPI JUMPDEST POP POP POP POP POP SWAP1 POP SWAP1 JUMP JUMPDEST PUSH1 0x1 PUSH0 SWAP1 SLOAD SWAP1 PUSH2 0x100 EXP SWAP1 DIV PUSH20 0xFFFFFFFFFFFFFFFFFFFFFFFFFFFFFFFFFFFFFFFF AND PUSH20 0xFFFFFFFFFFFFFFFFFFFFFFFFFFFFFFFFFFFFFFFF AND PUSH4 0x91D14854 PUSH1 0x1 PUSH0 SWAP1 SLOAD SWAP1 PUSH2 0x100 EXP SWAP1 DIV PUSH20 0xFFFFFFFFFFFFFFFFFFFFFFFFFFFFFFFFFFFFFFFF AND PUSH20 0xFFFFFFFFFFFFFFFFFFFFFFFFFFFFFFFFFFFFFFFF AND PUSH4 0x75B238FC PUSH1 0x40 MLOAD DUP2 PUSH4 0xFFFFFFFF AND PUSH1 0xE0 SHL DUP2 MSTORE PUSH1 0x4 ADD PUSH1 0x20 PUSH1 0x40 MLOAD DUP1 DUP4 SUB DUP2 DUP7 GAS STATICCALL ISZERO DUP1 ISZERO PUSH2 0x1319 JUMPI RETURNDATASIZE PUSH0 DUP1 RETURNDATACOPY RETURNDATASIZE PUSH0 REVERT JUMPDEST POP POP POP POP PUSH1 0x40 MLOAD RETURNDATASIZE PUSH1 0x1F NOT PUSH1 0x1F DUP3 ADD AND DUP3 ADD DUP1 PUSH1 0x40 MSTORE POP DUP2 ADD SWAP1 PUSH2 0x133D SWAP2 SWAP1 PUSH2 0x40EC JUMP JUMPDEST CALLER PUSH1 0x40 MLOAD DUP4 PUSH4 0xFFFFFFFF AND PUSH1 0xE0 SHL DUP2 MSTORE PUSH1 0x4 ADD PUSH2 0x135B SWAP3 SWAP2 SWAP1 PUSH2 0x4126 JUMP JUMPDEST PUSH1 0x20 PUSH1 0x40 MLOAD DUP1 DUP4 SUB DUP2 DUP7 GAS STATICCALL ISZERO DUP1 ISZERO PUSH2 0x1376 JUMPI RETURNDATASIZE PUSH0 DUP1 RETURNDATACOPY RETURNDATASIZE PUSH0 REVERT JUMPDEST POP POP POP POP PUSH1 0x40 MLOAD RETURNDATASIZE PUSH1 0x1F NOT PUSH1 0x1F DUP3 ADD AND DUP3 ADD DUP1 PUSH1 0x40 MSTORE POP DUP2 ADD SWAP1 PUSH2 0x139A SWAP2 SWAP1 PUSH2 0x4161 JUMP JUMPDEST PUSH2 0x13D9 JUMPI PUSH1 0x40 MLOAD PUSH32 0x8C379A000000000000000000000000000000000000000000000000000000000 DUP2 MSTORE PUSH1 0x4 ADD PUSH2 0x13D0 SWAP1 PUSH2 0x42A6 JUMP JUMPDEST PUSH1 0x40 MLOAD DUP1 SWAP2 SUB SWAP1 REVERT JUMPDEST PUSH2 0x13E1 PUSH2 0x32FB JUMP JUMPDEST JUMP JUMPDEST PUSH2 0x13EB PUSH2 0x3251 JUMP JUMPDEST PUSH1 0x1 PUSH0 SWAP1 SLOAD SWAP1 PUSH2 0x100 EXP SWAP1 DIV PUSH20 0xFFFFFFFFFFFFFFFFFFFFFFFFFFFFFFFFFFFFFFFF AND PUSH20 0xFFFFFFFFFFFFFFFFFFFFFFFFFFFFFFFFFFFFFFFF AND PUSH4 0x91D14854 PUSH1 0x1 PUSH0 SWAP1 SLOAD SWAP1 PUSH2 0x100 EXP SWAP1 DIV PUSH20 0xFFFFFFFFFFFFFFFFFFFFFFFFFFFFFFFFFFFFFFFF AND PUSH20 0xFFFFFFFFFFFFFFFFFFFFFFFFFFFFFFFFFFFFFFFF AND PUSH4 0x98E4ABB5 PUSH1 0x40 MLOAD DUP2 PUSH4 0xFFFFFFFF AND PUSH1 0xE0 SHL DUP2 MSTORE PUSH1 0x4 ADD PUSH1 0x20 PUSH1 0x40 MLOAD DUP1 DUP4 SUB DUP2 DUP7 GAS STATICCALL ISZERO DUP1 ISZERO PUSH2 0x1492 JUMPI RETURNDATASIZE PUSH0 DUP1 RETURNDATACOPY RETURNDATASIZE PUSH0 REVERT JUMPDEST POP POP POP POP PUSH1 0x40 MLOAD RETURNDATASIZE PUSH1 0x1F NOT PUSH1 0x1F DUP3 ADD AND DUP3 ADD DUP1 PUSH1 0x40 MSTORE POP DUP2 ADD SWAP1 PUSH2 0x14B6 SWAP2 SWAP1 PUSH2 0x40EC JUMP JUMPDEST CALLER PUSH1 0x40 MLOAD DUP4 PUSH4 0xFFFFFFFF AND PUSH1 0xE0 SHL DUP2 MSTORE PUSH1 0x4 ADD PUSH2 0x14D4 SWAP3 SWAP2 SWAP1 PUSH2 0x4126 JUMP JUMPDEST PUSH1 0x20 PUSH1 0x40 MLOAD DUP1 DUP4 SUB DUP2 DUP7 GAS STATICCALL ISZERO DUP1 ISZERO PUSH2 0x14EF JUMPI RETURNDATASIZE PUSH0 DUP1 RETURNDATACOPY RETURNDATASIZE PUSH0 REVERT JUMPDEST POP POP POP POP PUSH1 0x40 MLOAD RETURNDATASIZE PUSH1 0x1F NOT PUSH1 0x1F DUP3 ADD AND DUP3 ADD DUP1 PUSH1 0x40 MSTORE POP DUP2 ADD SWAP1 PUSH2 0x1513 SWAP2 SWAP1 PUSH2 0x4161 JUMP JUMPDEST PUSH2 0x1552 JUMPI PUSH1 0x40 MLOAD PUSH32 0x8C379A000000000000000000000000000000000000000000000000000000000 DUP2 MSTORE PUSH1 0x4 ADD PUSH2 0x1549 SWAP1 PUSH2 0x4461 JUMP JUMPDEST PUSH1 0x40 MLOAD DUP1 SWAP2 SUB SWAP1 REVERT JUMPDEST PUSH0 DUP11 DUP11 SWAP1 POP GT DUP1 ISZERO PUSH2 0x1566 JUMPI POP PUSH0 DUP9 DUP9 SWAP1 POP GT JUMPDEST PUSH2 0x15A5 JUMPI PUSH1 0x40 MLOAD PUSH32 0x8C379A000000000000000000000000000000000000000000000000000000000 DUP2 MSTORE PUSH1 0x4 ADD PUSH2 0x159C SWAP1 PUSH2 0x44C9 JUMP JUMPDEST PUSH1 0x40 MLOAD DUP1 SWAP2 SUB SWAP1 REVERT JUMPDEST PUSH0 DUP3 GT PUSH2 0x15E7 JUMPI PUSH1 0x40 MLOAD PUSH32 0x8C379A000000000000000000000000000000000000000000000000000000000 DUP2 MSTORE PUSH1 0x4 ADD PUSH2 0x15DE SWAP1 PUSH2 0x4531 JUMP JUMPDEST PUSH1 0x40 MLOAD DUP1 SWAP2 SUB SWAP1 REVERT JUMPDEST PUSH1 0x5A DUP2 GT ISZERO PUSH2 0x162B JUMPI PUSH1 0x40 MLOAD PUSH32 0x8C379A000000000000000000000000000000000000000000000000000000000 DUP2 MSTORE PUSH1 0x4 ADD PUSH2 0x1622 SWAP1 PUSH2 0x423E JUMP JUMPDEST PUSH1 0x40 MLOAD DUP1 SWAP2 SUB SWAP1 REVERT JUMPDEST PUSH0 PUSH2 0x1634 PUSH2 0x335C JUMP JUMPDEST SWAP1 POP PUSH0 PUSH1 0x40 MLOAD DUP1 PUSH1 0xA0 ADD PUSH1 0x40 MSTORE DUP1 DUP14 DUP14 DUP1 DUP1 PUSH1 0x1F ADD PUSH1 0x20 DUP1 SWAP2 DIV MUL PUSH1 0x20 ADD PUSH1 0x40 MLOAD SWAP1 DUP2 ADD PUSH1 0x40 MSTORE DUP1 SWAP4 SWAP3 SWAP2 SWAP1 DUP2 DUP2 MSTORE PUSH1 0x20 ADD DUP4 DUP4 DUP1 DUP3 DUP5 CALLDATACOPY PUSH0 DUP2 DUP5 ADD MSTORE PUSH1 0x1F NOT PUSH1 0x1F DUP3 ADD AND SWAP1 POP DUP1 DUP4 ADD SWAP3 POP POP POP POP POP POP POP DUP2 MSTORE PUSH1 0x20 ADD DUP12 DUP12 DUP1 DUP1 PUSH1 0x1F ADD PUSH1 0x20 DUP1 SWAP2 DIV MUL PUSH1 0x20 ADD PUSH1 0x40 MLOAD SWAP1 DUP2 ADD PUSH1 0x40 MSTORE DUP1 SWAP4 SWAP3 SWAP2 SWAP1 DUP2 DUP2 MSTORE PUSH1 0x20 ADD DUP4 DUP4 DUP1 DUP3 DUP5 CALLDATACOPY PUSH0 DUP2 DUP5 ADD MSTORE PUSH1 0x1F NOT PUSH1 0x1F DUP3 ADD AND SWAP1 POP DUP1 DUP4 ADD SWAP3 POP POP POP POP POP POP POP DUP2 MSTORE PUSH1 0x20 ADD DUP10 DUP10 DUP1 DUP1 PUSH1 0x1F ADD PUSH1 0x20 DUP1 SWAP2 DIV MUL PUSH1 0x20 ADD PUSH1 0x40 MLOAD SWAP1 DUP2 ADD PUSH1 0x40 MSTORE DUP1 SWAP4 SWAP3 SWAP2 SWAP1 DUP2 DUP2 MSTORE PUSH1 0x20 ADD DUP4 DUP4 DUP1 DUP3 DUP5 CALLDATACOPY PUSH0 DUP2 DUP5 ADD MSTORE PUSH1 0x1F NOT PUSH1 0x1F DUP3 ADD AND SWAP1 POP DUP1 DUP4 ADD SWAP3 POP POP POP POP POP POP POP DUP2 MSTORE PUSH1 0x20 ADD DUP8 DUP2 MSTORE PUSH1 0x20 ADD DUP7 DUP2 MSTORE POP SWAP1 POP PUSH1 0x40 MLOAD DUP1 PUSH1 0xC0 ADD PUSH1 0x40 MSTORE DUP1 CALLER PUSH20 0xFFFFFFFFFFFFFFFFFFFFFFFFFFFFFFFFFFFFFFFF AND DUP2 MSTORE PUSH1 0x20 ADD DUP3 DUP2 MSTORE PUSH1 0x20 ADD DUP6 DUP2 MSTORE PUSH1 0x20 ADD DUP5 DUP2 MSTORE PUSH1 0x20 ADD PUSH1 0x1 ISZERO ISZERO DUP2 MSTORE PUSH1 0x20 ADD PUSH0 ISZERO ISZERO DUP2 MSTORE POP PUSH1 0x4 PUSH0 DUP5 DUP2 MSTORE PUSH1 0x20 ADD SWAP1 DUP2 MSTORE PUSH1 0x20 ADD PUSH0 KECCAK256 PUSH0 DUP3 ADD MLOAD DUP2 PUSH0 ADD PUSH0 PUSH2 0x100 EXP DUP2 SLOAD DUP2 PUSH20 0xFFFFFFFFFFFFFFFFFFFFFFFFFFFFFFFFFFFFFFFF MUL NOT AND SWAP1 DUP4 PUSH20 0xFFFFFFFFFFFFFFFFFFFFFFFFFFFFFFFFFFFFFFFF AND MUL OR SWAP1 SSTORE POP PUSH1 0x20 DUP3 ADD MLOAD DUP2 PUSH1 0x1 ADD PUSH0 DUP3 ADD MLOAD DUP2 PUSH0 ADD SWAP1 DUP2 PUSH2 0x17E2 SWAP2 SWAP1 PUSH2 0x4710 JUMP JUMPDEST POP PUSH1 0x20 DUP3 ADD MLOAD DUP2 PUSH1 0x1 ADD SWAP1 DUP2 PUSH2 0x17F8 SWAP2 SWAP1 PUSH2 0x4710 JUMP JUMPDEST POP PUSH1 0x40 DUP3 ADD MLOAD DUP2 PUSH1 0x2 ADD SWAP1 DUP2 PUSH2 0x180E SWAP2 SWAP1 PUSH2 0x4710 JUMP JUMPDEST POP PUSH1 0x60 DUP3 ADD MLOAD DUP2 PUSH1 0x3 ADD SSTORE PUSH1 0x80 DUP3 ADD MLOAD DUP2 PUSH1 0x4 ADD SSTORE POP POP PUSH1 0x40 DUP3 ADD MLOAD DUP2 PUSH1 0x6 ADD SSTORE PUSH1 0x60 DUP3 ADD MLOAD DUP2 PUSH1 0x7 ADD SSTORE PUSH1 0x80 DUP3 ADD MLOAD DUP2 PUSH1 0x8 ADD PUSH0 PUSH2 0x100 EXP DUP2 SLOAD DUP2 PUSH1 0xFF MUL NOT AND SWAP1 DUP4 ISZERO ISZERO MUL OR SWAP1 SSTORE POP PUSH1 0xA0 DUP3 ADD MLOAD DUP2 PUSH1 0x8 ADD PUSH1 0x1 PUSH2 0x100 EXP DUP2 SLOAD DUP2 PUSH1 0xFF MUL NOT AND SWAP1 DUP4 ISZERO ISZERO MUL OR SWAP1 SSTORE POP SWAP1 POP POP PUSH1 0x6 DUP3 SWAP1 DUP1 PUSH1 0x1 DUP2 SLOAD ADD DUP1 DUP3 SSTORE DUP1 SWAP2 POP POP PUSH1 0x1 SWAP1 SUB SWAP1 PUSH0 MSTORE PUSH1 0x20 PUSH0 KECCAK256 ADD PUSH0 SWAP1 SWAP2 SWAP1 SWAP2 SWAP1 SWAP2 POP SSTORE CALLER PUSH20 0xFFFFFFFFFFFFFFFFFFFFFFFFFFFFFFFFFFFFFFFF AND DUP3 PUSH32 0xCBBBCC1725193DFF50B4699B7D4BE5DFA0B8091AC6B9081400E3704FC8ED244C PUSH1 0x40 MLOAD PUSH1 0x40 MLOAD DUP1 SWAP2 SUB SWAP1 LOG3 POP POP POP POP POP POP POP POP POP POP POP POP JUMP JUMPDEST DUP10 PUSH0 PUSH20 0xFFFFFFFFFFFFFFFFFFFFFFFFFFFFFFFFFFFFFFFF AND PUSH1 0x3 PUSH0 DUP4 DUP2 MSTORE PUSH1 0x20 ADD SWAP1 DUP2 MSTORE PUSH1 0x20 ADD PUSH0 KECCAK256 PUSH1 0x1 ADD PUSH0 SWAP1 SLOAD SWAP1 PUSH2 0x100 EXP SWAP1 DIV PUSH20 0xFFFFFFFFFFFFFFFFFFFFFFFFFFFFFFFFFFFFFFFF AND PUSH20 0xFFFFFFFFFFFFFFFFFFFFFFFFFFFFFFFFFFFFFFFF AND SUB PUSH2 0x1995 JUMPI PUSH1 0x40 MLOAD PUSH32 0x8C379A000000000000000000000000000000000000000000000000000000000 DUP2 MSTORE PUSH1 0x4 ADD PUSH2 0x198C SWAP1 PUSH2 0x409B JUMP JUMPDEST PUSH1 0x40 MLOAD DUP1 SWAP2 SUB SWAP1 REVERT JUMPDEST DUP11 CALLER PUSH20 0xFFFFFFFFFFFFFFFFFFFFFFFFFFFFFFFFFFFFFFFF AND PUSH1 0x3 PUSH0 DUP4 DUP2 MSTORE PUSH1 0x20 ADD SWAP1 DUP2 MSTORE PUSH1 0x20 ADD PUSH0 KECCAK256 PUSH1 0x1 ADD PUSH0 SWAP1 SLOAD SWAP1 PUSH2 0x100 EXP SWAP1 DIV PUSH20 0xFFFFFFFFFFFFFFFFFFFFFFFFFFFFFFFFFFFFFFFF AND PUSH20 0xFFFFFFFFFFFFFFFFFFFFFFFFFFFFFFFFFFFFFFFF AND EQ DUP1 PUSH2 0x1B27 JUMPI POP PUSH1 0x1 PUSH0 SWAP1 SLOAD SWAP1 PUSH2 0x100 EXP SWAP1 DIV PUSH20 0xFFFFFFFFFFFFFFFFFFFFFFFFFFFFFFFFFFFFFFFF AND PUSH20 0xFFFFFFFFFFFFFFFFFFFFFFFFFFFFFFFFFFFFFFFF AND PUSH4 0x91D14854 PUSH1 0x1 PUSH0 SWAP1 SLOAD SWAP1 PUSH2 0x100 EXP SWAP1 DIV PUSH20 0xFFFFFFFFFFFFFFFFFFFFFFFFFFFFFFFFFFFFFFFF AND PUSH20 0xFFFFFFFFFFFFFFFFFFFFFFFFFFFFFFFFFFFFFFFF AND PUSH4 0x75B238FC PUSH1 0x40 MLOAD DUP2 PUSH4 0xFFFFFFFF AND PUSH1 0xE0 SHL DUP2 MSTORE PUSH1 0x4 ADD PUSH1 0x20 PUSH1 0x40 MLOAD DUP1 DUP4 SUB DUP2 DUP7 GAS STATICCALL ISZERO DUP1 ISZERO PUSH2 0x1AA5 JUMPI RETURNDATASIZE PUSH0 DUP1 RETURNDATACOPY RETURNDATASIZE PUSH0 REVERT JUMPDEST POP POP POP POP PUSH1 0x40 MLOAD RETURNDATASIZE PUSH1 0x1F NOT PUSH1 0x1F DUP3 ADD AND DUP3 ADD DUP1 PUSH1 0x40 MSTORE POP DUP2 ADD SWAP1 PUSH2 0x1AC9 SWAP2 SWAP1 PUSH2 0x40EC JUMP JUMPDEST CALLER PUSH1 0x40 MLOAD DUP4 PUSH4 0xFFFFFFFF AND PUSH1 0xE0 SHL DUP2 MSTORE PUSH1 0x4 ADD PUSH2 0x1AE7 SWAP3 SWAP2 SWAP1 PUSH2 0x4126 JUMP JUMPDEST PUSH1 0x20 PUSH1 0x40 MLOAD DUP1 DUP4 SUB DUP2 DUP7 GAS STATICCALL ISZERO DUP1 ISZERO PUSH2 0x1B02 JUMPI RETURNDATASIZE PUSH0 DUP1 RETURNDATACOPY RETURNDATASIZE PUSH0 REVERT JUMPDEST POP POP POP POP PUSH1 0x40 MLOAD RETURNDATASIZE PUSH1 0x1F NOT PUSH1 0x1F DUP3 ADD AND DUP3 ADD DUP1 PUSH1 0x40 MSTORE POP DUP2 ADD SWAP1 PUSH2 0x1B26 SWAP2 SWAP1 PUSH2 0x4161 JUMP JUMPDEST JUMPDEST PUSH2 0x1B66 JUMPI PUSH1 0x40 MLOAD PUSH32 0x8C379A000000000000000000000000000000000000000000000000000000000 DUP2 MSTORE PUSH1 0x4 ADD PUSH2 0x1B5D SWAP1 PUSH2 0x41D6 JUMP JUMPDEST PUSH1 0x40 MLOAD DUP1 SWAP2 SUB SWAP1 REVERT JUMPDEST PUSH2 0x1B6E PUSH2 0x3251 JUMP JUMPDEST PUSH0 DUP12 DUP12 SWAP1 POP GT DUP1 ISZERO PUSH2 0x1B82 JUMPI POP PUSH0 DUP10 DUP10 SWAP1 POP GT JUMPDEST PUSH2 0x1BC1 JUMPI PUSH1 0x40 MLOAD PUSH32 0x8C379A000000000000000000000000000000000000000000000000000000000 DUP2 MSTORE PUSH1 0x4 ADD PUSH2 0x1BB8 SWAP1 PUSH2 0x44C9 JUMP JUMPDEST PUSH1 0x40 MLOAD DUP1 SWAP2 SUB SWAP1 REVERT JUMPDEST PUSH0 DUP4 GT PUSH2 0x1C03 JUMPI PUSH1 0x40 MLOAD PUSH32 0x8C379A000000000000000000000000000000000000000000000000000000000 DUP2 MSTORE PUSH1 0x4 ADD PUSH2 0x1BFA SWAP1 PUSH2 0x4531 JUMP JUMPDEST PUSH1 0x40 MLOAD DUP1 SWAP2 SUB SWAP1 REVERT JUMPDEST PUSH0 PUSH1 0x3 PUSH0 DUP15 DUP2 MSTORE PUSH1 0x20 ADD SWAP1 DUP2 MSTORE PUSH1 0x20 ADD PUSH0 KECCAK256 SWAP1 POP DUP12 DUP12 DUP3 PUSH1 0x2 ADD PUSH0 ADD SWAP2 DUP3 PUSH2 0x1C2C SWAP3 SWAP2 SWAP1 PUSH2 0x47E9 JUMP JUMPDEST POP DUP10 DUP10 DUP3 PUSH1 0x2 ADD PUSH1 0x1 ADD SWAP2 DUP3 PUSH2 0x1C43 SWAP3 SWAP2 SWAP1 PUSH2 0x47E9 JUMP JUMPDEST POP DUP8 DUP8 DUP3 PUSH1 0x2 ADD PUSH1 0x2 ADD SWAP2 DUP3 PUSH2 0x1C5A SWAP3 SWAP2 SWAP1 PUSH2 0x47E9 JUMP JUMPDEST POP DUP6 DUP2 PUSH1 0x2 ADD PUSH1 0x3 ADD DUP2 SWAP1 SSTORE POP DUP5 DUP2 PUSH1 0x2 ADD PUSH1 0x4 ADD DUP2 SWAP1 SSTORE POP DUP4 DUP2 PUSH1 0x7 ADD DUP2 SWAP1 SSTORE POP TIMESTAMP DUP2 PUSH1 0xC ADD DUP2 SWAP1 SSTORE POP DUP13 PUSH32 0xD62FA94C71EBA8CFE5AB835190623C67E15149837FD0CD60C1C170A8F31439E3 PUSH1 0x40 MLOAD PUSH1 0x40 MLOAD DUP1 SWAP2 SUB SWAP1 LOG2 POP POP POP POP POP POP POP POP POP POP POP POP POP JUMP JUMPDEST DUP2 PUSH0 PUSH20 0xFFFFFFFFFFFFFFFFFFFFFFFFFFFFFFFFFFFFFFFF AND PUSH1 0x3 PUSH0 DUP4 DUP2 MSTORE PUSH1 0x20 ADD SWAP1 DUP2 MSTORE PUSH1 0x20 ADD PUSH0 KECCAK256 PUSH1 0x1 ADD PUSH0 SWAP1 SLOAD SWAP1 PUSH2 0x100 EXP SWAP1 DIV PUSH20 0xFFFFFFFFFFFFFFFFFFFFFFFFFFFFFFFFFFFFFFFF AND PUSH20 0xFFFFFFFFFFFFFFFFFFFFFFFFFFFFFFFFFFFFFFFF AND SUB PUSH2 0x1D63 JUMPI PUSH1 0x40 MLOAD PUSH32 0x8C379A000000000000000000000000000000000000000000000000000000000 DUP2 MSTORE PUSH1 0x4 ADD PUSH2 0x1D5A SWAP1 PUSH2 0x409B JUMP JUMPDEST PUSH1 0x40 MLOAD DUP1 SWAP2 SUB SWAP1 REVERT JUMPDEST DUP3 CALLER PUSH20 0xFFFFFFFFFFFFFFFFFFFFFFFFFFFFFFFFFFFFFFFF AND PUSH1 0x3 PUSH0 DUP4 DUP2 MSTORE PUSH1 0x20 ADD SWAP1 DUP2 MSTORE PUSH1 0x20 ADD PUSH0 KECCAK256 PUSH1 0x1 ADD PUSH0 SWAP1 SLOAD SWAP1 PUSH2 0x100 EXP SWAP1 DIV PUSH20 0xFFFFFFFFFFFFFFFFFFFFFFFFFFFFFFFFFFFFFFFF AND PUSH20 0xFFFFFFFFFFFFFFFFFFFFFFFFFFFFFFFFFFFFFFFF AND EQ DUP1 PUSH2 0x1EF5 JUMPI POP PUSH1 0x1 PUSH0 SWAP1 SLOAD SWAP1 PUSH2 0x100 EXP SWAP1 DIV PUSH20 0xFFFFFFFFFFFFFFFFFFFFFFFFFFFFFFFFFFFFFFFF AND PUSH20 0xFFFFFFFFFFFFFFFFFFFFFFFFFFFFFFFFFFFFFFFF AND PUSH4 0x91D14854 PUSH1 0x1 PUSH0 SWAP1 SLOAD SWAP1 PUSH2 0x100 EXP SWAP1 DIV PUSH20 0xFFFFFFFFFFFFFFFFFFFFFFFFFFFFFFFFFFFFFFFF AND PUSH20 0xFFFFFFFFFFFFFFFFFFFFFFFFFFFFFFFFFFFFFFFF AND PUSH4 0x75B238FC PUSH1 0x40 MLOAD DUP2 PUSH4 0xFFFFFFFF AND PUSH1 0xE0 SHL DUP2 MSTORE PUSH1 0x4 ADD PUSH1 0x20 PUSH1 0x40 MLOAD DUP1 DUP4 SUB DUP2 DUP7 GAS STATICCALL ISZERO DUP1 ISZERO PUSH2 0x1E73 JUMPI RETURNDATASIZE PUSH0 DUP1 RETURNDATACOPY RETURNDATASIZE PUSH0 REVERT JUMPDEST POP POP POP POP PUSH1 0x40 MLOAD RETURNDATASIZE PUSH1 0x1F NOT PUSH1 0x1F DUP3 ADD AND DUP3 ADD DUP1 PUSH1 0x40 MSTORE POP DUP2 ADD SWAP1 PUSH2 0x1E97 SWAP2 SWAP1 PUSH2 0x40EC JUMP JUMPDEST CALLER PUSH1 0x40 MLOAD DUP4 PUSH4 0xFFFFFFFF AND PUSH1 0xE0 SHL DUP2 MSTORE PUSH1 0x4 ADD PUSH2 0x1EB5 SWAP3 SWAP2 SWAP1 PUSH2 0x4126 JUMP JUMPDEST PUSH1 0x20 PUSH1 0x40 MLOAD DUP1 DUP4 SUB DUP2 DUP7 GAS STATICCALL ISZERO DUP1 ISZERO PUSH2 0x1ED0 JUMPI RETURNDATASIZE PUSH0 DUP1 RETURNDATACOPY RETURNDATASIZE PUSH0 REVERT JUMPDEST POP POP POP POP PUSH1 0x40 MLOAD RETURNDATASIZE PUSH1 0x1F NOT PUSH1 0x1F DUP3 ADD AND DUP3 ADD DUP1 PUSH1 0x40 MSTORE POP DUP2 ADD SWAP1 PUSH2 0x1EF4 SWAP2 SWAP1 PUSH2 0x4161 JUMP JUMPDEST JUMPDEST PUSH2 0x1F34 JUMPI PUSH1 0x40 MLOAD PUSH32 0x8C379A000000000000000000000000000000000000000000000000000000000 DUP2 MSTORE PUSH1 0x4 ADD PUSH2 0x1F2B SWAP1 PUSH2 0x41D6 JUMP JUMPDEST PUSH1 0x40 MLOAD DUP1 SWAP2 SUB SWAP1 REVERT JUMPDEST PUSH2 0x1F3C PUSH2 0x3251 JUMP JUMPDEST PUSH0 PUSH20 0xFFFFFFFFFFFFFFFFFFFFFFFFFFFFFFFFFFFFFFFF AND DUP4 PUSH20 0xFFFFFFFFFFFFFFFFFFFFFFFFFFFFFFFFFFFFFFFF AND SUB PUSH2 0x1FAA JUMPI PUSH1 0x40 MLOAD PUSH32 0x8C379A000000000000000000000000000000000000000000000000000000000 DUP2 MSTORE PUSH1 0x4 ADD PUSH2 0x1FA1 SWAP1 PUSH2 0x4900 JUMP JUMPDEST PUSH1 0x40 MLOAD DUP1 SWAP2 SUB SWAP1 REVERT JUMPDEST PUSH1 0x1 PUSH0 SWAP1 SLOAD SWAP1 PUSH2 0x100 EXP SWAP1 DIV PUSH20 0xFFFFFFFFFFFFFFFFFFFFFFFFFFFFFFFFFFFFFFFF AND PUSH20 0xFFFFFFFFFFFFFFFFFFFFFFFFFFFFFFFFFFFFFFFF AND PUSH4 0x91D14854 PUSH1 0x1 PUSH0 SWAP1 SLOAD SWAP1 PUSH2 0x100 EXP SWAP1 DIV PUSH20 0xFFFFFFFFFFFFFFFFFFFFFFFFFFFFFFFFFFFFFFFF AND PUSH20 0xFFFFFFFFFFFFFFFFFFFFFFFFFFFFFFFFFFFFFFFF AND PUSH4 0x98E4ABB5 PUSH1 0x40 MLOAD DUP2 PUSH4 0xFFFFFFFF AND PUSH1 0xE0 SHL DUP2 MSTORE PUSH1 0x4 ADD PUSH1 0x20 PUSH1 0x40 MLOAD DUP1 DUP4 SUB DUP2 DUP7 GAS STATICCALL ISZERO DUP1 ISZERO PUSH2 0x2051 JUMPI RETURNDATASIZE PUSH0 DUP1 RETURNDATACOPY RETURNDATASIZE PUSH0 REVERT JUMPDEST POP POP POP POP PUSH1 0x40 MLOAD RETURNDATASIZE PUSH1 0x1F NOT PUSH1 0x1F DUP3 ADD AND DUP3 ADD DUP1 PUSH1 0x40 MSTORE POP DUP2 ADD SWAP1 PUSH2 0x2075 SWAP2 SWAP1 PUSH2 0x40EC JUMP JUMPDEST DUP6 PUSH1 0x40 MLOAD DUP4 PUSH4 0xFFFFFFFF AND PUSH1 0xE0 SHL DUP2 MSTORE PUSH1 0x4 ADD PUSH2 0x2093 SWAP3 SWAP2 SWAP1 PUSH2 0x4126 JUMP JUMPDEST PUSH1 0x20 PUSH1 0x40 MLOAD DUP1 DUP4 SUB DUP2 DUP7 GAS STATICCALL ISZERO DUP1 ISZERO PUSH2 0x20AE JUMPI RETURNDATASIZE PUSH0 DUP1 RETURNDATACOPY RETURNDATASIZE PUSH0 REVERT JUMPDEST POP POP POP POP PUSH1 0x40 MLOAD RETURNDATASIZE PUSH1 0x1F NOT PUSH1 0x1F DUP3 ADD AND DUP3 ADD DUP1 PUSH1 0x40 MSTORE POP DUP2 ADD SWAP1 PUSH2 0x20D2 SWAP2 SWAP1 PUSH2 0x4161 JUMP JUMPDEST PUSH2 0x2111 JUMPI PUSH1 0x40 MLOAD PUSH32 0x8C379A000000000000000000000000000000000000000000000000000000000 DUP2 MSTORE PUSH1 0x4 ADD PUSH2 0x2108 SWAP1 PUSH2 0x498E JUMP JUMPDEST PUSH1 0x40 MLOAD DUP1 SWAP2 SUB SWAP1 REVERT JUMPDEST PUSH0 PUSH1 0x3 PUSH0 DUP7 DUP2 MSTORE PUSH1 0x20 ADD SWAP1 DUP2 MSTORE PUSH1 0x20 ADD PUSH0 KECCAK256 PUSH1 0x1 ADD PUSH0 SWAP1 SLOAD SWAP1 PUSH2 0x100 EXP SWAP1 DIV PUSH20 0xFFFFFFFFFFFFFFFFFFFFFFFFFFFFFFFFFFFFFFFF AND SWAP1 POP DUP4 PUSH1 0x3 PUSH0 DUP8 DUP2 MSTORE PUSH1 0x20 ADD SWAP1 DUP2 MSTORE PUSH1 0x20 ADD PUSH0 KECCAK256 PUSH1 0x1 ADD PUSH0 PUSH2 0x100 EXP DUP2 SLOAD DUP2 PUSH20 0xFFFFFFFFFFFFFFFFFFFFFFFFFFFFFFFFFFFFFFFF MUL NOT AND SWAP1 DUP4 PUSH20 0xFFFFFFFFFFFFFFFFFFFFFFFFFFFFFFFFFFFFFFFF AND MUL OR SWAP1 SSTORE POP TIMESTAMP PUSH1 0x3 PUSH0 DUP8 DUP2 MSTORE PUSH1 0x20 ADD SWAP1 DUP2 MSTORE PUSH1 0x20 ADD PUSH0 KECCAK256 PUSH1 0xC ADD DUP2 SWAP1 SSTORE POP PUSH2 0x21BD DUP6 DUP3 PUSH2 0x3376 JUMP JUMPDEST PUSH1 0x5 PUSH0 DUP6 PUSH20 0xFFFFFFFFFFFFFFFFFFFFFFFFFFFFFFFFFFFFFFFF AND PUSH20 0xFFFFFFFFFFFFFFFFFFFFFFFFFFFFFFFFFFFFFFFF AND DUP2 MSTORE PUSH1 0x20 ADD SWAP1 DUP2 MSTORE PUSH1 0x20 ADD PUSH0 KECCAK256 DUP6 SWAP1 DUP1 PUSH1 0x1 DUP2 SLOAD ADD DUP1 DUP3 SSTORE DUP1 SWAP2 POP POP PUSH1 0x1 SWAP1 SUB SWAP1 PUSH0 MSTORE PUSH1 0x20 PUSH0 KECCAK256 ADD PUSH0 SWAP1 SWAP2 SWAP1 SWAP2 SWAP1 SWAP2 POP SSTORE DUP4 PUSH20 0xFFFFFFFFFFFFFFFFFFFFFFFFFFFFFFFFFFFFFFFF AND DUP2 PUSH20 0xFFFFFFFFFFFFFFFFFFFFFFFFFFFFFFFFFFFFFFFF AND DUP7 PUSH32 0xA54354750C707642A038F4AC683FAA206A3649A6C35A44F9640D34D20578B15B PUSH1 0x40 MLOAD PUSH1 0x40 MLOAD DUP1 SWAP2 SUB SWAP1 LOG4 POP POP POP POP POP JUMP JUMPDEST PUSH1 0x1 PUSH0 SWAP1 SLOAD SWAP1 PUSH2 0x100 EXP SWAP1 DIV PUSH20 0xFFFFFFFFFFFFFFFFFFFFFFFFFFFFFFFFFFFFFFFF AND PUSH20 0xFFFFFFFFFFFFFFFFFFFFFFFFFFFFFFFFFFFFFFFF AND PUSH4 0x91D14854 PUSH1 0x1 PUSH0 SWAP1 SLOAD SWAP1 PUSH2 0x100 EXP SWAP1 DIV PUSH20 0xFFFFFFFFFFFFFFFFFFFFFFFFFFFFFFFFFFFFFFFF AND PUSH20 0xFFFFFFFFFFFFFFFFFFFFFFFFFFFFFFFFFFFFFFFF AND PUSH4 0x75B238FC PUSH1 0x40 MLOAD DUP2 PUSH4 0xFFFFFFFF AND PUSH1 0xE0 SHL DUP2 MSTORE PUSH1 0x4 ADD PUSH1 0x20 PUSH1 0x40 MLOAD DUP1 DUP4 SUB DUP2 DUP7 GAS STATICCALL ISZERO DUP1 ISZERO PUSH2 0x2327 JUMPI RETURNDATASIZE PUSH0 DUP1 RETURNDATACOPY RETURNDATASIZE PUSH0 REVERT JUMPDEST POP POP POP POP PUSH1 0x40 MLOAD RETURNDATASIZE PUSH1 0x1F NOT PUSH1 0x1F DUP3 ADD AND DUP3 ADD DUP1 PUSH1 0x40 MSTORE POP DUP2 ADD SWAP1 PUSH2 0x234B SWAP2 SWAP1 PUSH2 0x40EC JUMP JUMPDEST CALLER PUSH1 0x40 MLOAD DUP4 PUSH4 0xFFFFFFFF AND PUSH1 0xE0 SHL DUP2 MSTORE PUSH1 0x4 ADD PUSH2 0x2369 SWAP3 SWAP2 SWAP1 PUSH2 0x4126 JUMP JUMPDEST PUSH1 0x20 PUSH1 0x40 MLOAD DUP1 DUP4 SUB DUP2 DUP7 GAS STATICCALL ISZERO DUP1 ISZERO PUSH2 0x2384 JUMPI RETURNDATASIZE PUSH0 DUP1 RETURNDATACOPY RETURNDATASIZE PUSH0 REVERT JUMPDEST POP POP POP POP PUSH1 0x40 MLOAD RETURNDATASIZE PUSH1 0x1F NOT PUSH1 0x1F DUP3 ADD AND DUP3 ADD DUP1 PUSH1 0x40 MSTORE POP DUP2 ADD SWAP1 PUSH2 0x23A8 SWAP2 SWAP1 PUSH2 0x4161 JUMP JUMPDEST PUSH2 0x23E7 JUMPI PUSH1 0x40 MLOAD PUSH32 0x8C379A000000000000000000000000000000000000000000000000000000000 DUP2 MSTORE PUSH1 0x4 ADD PUSH2 0x23DE SWAP1 PUSH2 0x42A6 JUMP JUMPDEST PUSH1 0x40 MLOAD DUP1 SWAP2 SUB SWAP1 REVERT JUMPDEST PUSH2 0x23EF PUSH2 0x3251 JUMP JUMPDEST PUSH0 PUSH1 0x4 PUSH0 DUP4 DUP2 MSTORE PUSH1 0x20 ADD SWAP1 DUP2 MSTORE PUSH1 0x20 ADD PUSH0 KECCAK256 SWAP1 POP DUP1 PUSH1 0x8 ADD PUSH0 SWAP1 SLOAD SWAP1 PUSH2 0x100 EXP SWAP1 DIV PUSH1 0xFF AND PUSH2 0x2453 JUMPI PUSH1 0x40 MLOAD PUSH32 0x8C379A000000000000000000000000000000000000000000000000000000000 DUP2 MSTORE PUSH1 0x4 ADD PUSH2 0x244A SWAP1 PUSH2 0x49F6 JUMP JUMPDEST PUSH1 0x40 MLOAD DUP1 SWAP2 SUB SWAP1 REVERT JUMPDEST PUSH1 0x1 PUSH0 SWAP1 SLOAD SWAP1 PUSH2 0x100 EXP SWAP1 DIV PUSH20 0xFFFFFFFFFFFFFFFFFFFFFFFFFFFFFFFFFFFFFFFF AND PUSH20 0xFFFFFFFFFFFFFFFFFFFFFFFFFFFFFFFFFFFFFFFF AND PUSH4 0x91D14854 PUSH1 0x1 PUSH0 SWAP1 SLOAD SWAP1 PUSH2 0x100 EXP SWAP1 DIV PUSH20 0xFFFFFFFFFFFFFFFFFFFFFFFFFFFFFFFFFFFFFFFF AND PUSH20 0xFFFFFFFFFFFFFFFFFFFFFFFFFFFFFFFFFFFFFFFF AND PUSH4 0x98E4ABB5 PUSH1 0x40 MLOAD DUP2 PUSH4 0xFFFFFFFF AND PUSH1 0xE0 SHL DUP2 MSTORE PUSH1 0x4 ADD PUSH1 0x20 PUSH1 0x40 MLOAD DUP1 DUP4 SUB DUP2 DUP7 GAS STATICCALL ISZERO DUP1 ISZERO PUSH2 0x24FA JUMPI RETURNDATASIZE PUSH0 DUP1 RETURNDATACOPY RETURNDATASIZE PUSH0 REVERT JUMPDEST POP POP POP POP PUSH1 0x40 MLOAD RETURNDATASIZE PUSH1 0x1F NOT PUSH1 0x1F DUP3 ADD AND DUP3 ADD DUP1 PUSH1 0x40 MSTORE POP DUP2 ADD SWAP1 PUSH2 0x251E SWAP2 SWAP1 PUSH2 0x40EC JUMP JUMPDEST DUP4 PUSH0 ADD PUSH0 SWAP1 SLOAD SWAP1 PUSH2 0x100 EXP SWAP1 DIV PUSH20 0xFFFFFFFFFFFFFFFFFFFFFFFFFFFFFFFFFFFFFFFF AND PUSH1 0x40 MLOAD DUP4 PUSH4 0xFFFFFFFF AND PUSH1 0xE0 SHL DUP2 MSTORE PUSH1 0x4 ADD PUSH2 0x255E SWAP3 SWAP2 SWAP1 PUSH2 0x4126 JUMP JUMPDEST PUSH1 0x20 PUSH1 0x40 MLOAD DUP1 DUP4 SUB DUP2 DUP7 GAS STATICCALL ISZERO DUP1 ISZERO PUSH2 0x2579 JUMPI RETURNDATASIZE PUSH0 DUP1 RETURNDATACOPY RETURNDATASIZE PUSH0 REVERT JUMPDEST POP POP POP POP PUSH1 0x40 MLOAD RETURNDATASIZE PUSH1 0x1F NOT PUSH1 0x1F DUP3 ADD AND DUP3 ADD DUP1 PUSH1 0x40 MSTORE POP DUP2 ADD SWAP1 PUSH2 0x259D SWAP2 SWAP1 PUSH2 0x4161 JUMP JUMPDEST PUSH2 0x25DC JUMPI PUSH1 0x40 MLOAD PUSH32 0x8C379A000000000000000000000000000000000000000000000000000000000 DUP2 MSTORE PUSH1 0x4 ADD PUSH2 0x25D3 SWAP1 PUSH2 0x4A84 JUMP JUMPDEST PUSH1 0x40 MLOAD DUP1 SWAP2 SUB SWAP1 REVERT JUMPDEST PUSH0 DUP2 PUSH1 0x8 ADD PUSH0 PUSH2 0x100 EXP DUP2 SLOAD DUP2 PUSH1 0xFF MUL NOT AND SWAP1 DUP4 ISZERO ISZERO MUL OR SWAP1 SSTORE POP PUSH1 0x1 DUP2 PUSH1 0x8 ADD PUSH1 0x1 PUSH2 0x100 EXP DUP2 SLOAD DUP2 PUSH1 0xFF MUL NOT AND SWAP1 DUP4 ISZERO ISZERO MUL OR SWAP1 SSTORE POP PUSH0 PUSH1 0x40 MLOAD DUP1 PUSH2 0x120 ADD PUSH1 0x40 MSTORE DUP1 DUP5 DUP2 MSTORE PUSH1 0x20 ADD DUP4 PUSH0 ADD PUSH0 SWAP1 SLOAD SWAP1 PUSH2 0x100 EXP SWAP1 DIV PUSH20 0xFFFFFFFFFFFFFFFFFFFFFFFFFFFFFFFFFFFFFFFF AND PUSH20 0xFFFFFFFFFFFFFFFFFFFFFFFFFFFFFFFFFFFFFFFF AND DUP2 MSTORE PUSH1 0x20 ADD DUP4 PUSH1 0x1 ADD PUSH1 0x40 MLOAD DUP1 PUSH1 0xA0 ADD PUSH1 0x40 MSTORE SWAP1 DUP2 PUSH0 DUP3 ADD DUP1 SLOAD PUSH2 0x2683 SWAP1 PUSH2 0x4359 JUMP JUMPDEST DUP1 PUSH1 0x1F ADD PUSH1 0x20 DUP1 SWAP2 DIV MUL PUSH1 0x20 ADD PUSH1 0x40 MLOAD SWAP1 DUP2 ADD PUSH1 0x40 MSTORE DUP1 SWAP3 SWAP2 SWAP1 DUP2 DUP2 MSTORE PUSH1 0x20 ADD DUP3 DUP1 SLOAD PUSH2 0x26AF SWAP1 PUSH2 0x4359 JUMP JUMPDEST DUP1 ISZERO PUSH2 0x26FA JUMPI DUP1 PUSH1 0x1F LT PUSH2 0x26D1 JUMPI PUSH2 0x100 DUP1 DUP4 SLOAD DIV MUL DUP4 MSTORE SWAP2 PUSH1 0x20 ADD SWAP2 PUSH2 0x26FA JUMP JUMPDEST DUP3 ADD SWAP2 SWAP1 PUSH0 MSTORE PUSH1 0x20 PUSH0 KECCAK256 SWAP1 JUMPDEST DUP2 SLOAD DUP2 MSTORE SWAP1 PUSH1 0x1 ADD SWAP1 PUSH1 0x20 ADD DUP1 DUP4 GT PUSH2 0x26DD JUMPI DUP3 SWAP1 SUB PUSH1 0x1F AND DUP3 ADD SWAP2 JUMPDEST POP POP POP POP POP DUP2 MSTORE PUSH1 0x20 ADD PUSH1 0x1 DUP3 ADD DUP1 SLOAD PUSH2 0x2713 SWAP1 PUSH2 0x4359 JUMP JUMPDEST DUP1 PUSH1 0x1F ADD PUSH1 0x20 DUP1 SWAP2 DIV MUL PUSH1 0x20 ADD PUSH1 0x40 MLOAD SWAP1 DUP2 ADD PUSH1 0x40 MSTORE DUP1 SWAP3 SWAP2 SWAP1 DUP2 DUP2 MSTORE PUSH1 0x20 ADD DUP3 DUP1 SLOAD PUSH2 0x273F SWAP1 PUSH2 0x4359 JUMP JUMPDEST DUP1 ISZERO PUSH2 0x278A JUMPI DUP1 PUSH1 0x1F LT PUSH2 0x2761 JUMPI PUSH2 0x100 DUP1 DUP4 SLOAD DIV MUL DUP4 MSTORE SWAP2 PUSH1 0x20 ADD SWAP2 PUSH2 0x278A JUMP JUMPDEST DUP3 ADD SWAP2 SWAP1 PUSH0 MSTORE PUSH1 0x20 PUSH0 KECCAK256 SWAP1 JUMPDEST DUP2 SLOAD DUP2 MSTORE SWAP1 PUSH1 0x1 ADD SWAP1 PUSH1 0x20 ADD DUP1 DUP4 GT PUSH2 0x276D JUMPI DUP3 SWAP1 SUB PUSH1 0x1F AND DUP3 ADD SWAP2 JUMPDEST POP POP POP POP POP DUP2 MSTORE PUSH1 0x20 ADD PUSH1 0x2 DUP3 ADD DUP1 SLOAD PUSH2 0x27A3 SWAP1 PUSH2 0x4359 JUMP JUMPDEST DUP1 PUSH1 0x1F ADD PUSH1 0x20 DUP1 SWAP2 DIV MUL PUSH1 0x20 ADD PUSH1 0x40 MLOAD SWAP1 DUP2 ADD PUSH1 0x40 MSTORE DUP1 SWAP3 SWAP2 SWAP1 DUP2 DUP2 MSTORE PUSH1 0x20 ADD DUP3 DUP1 SLOAD PUSH2 0x27CF SWAP1 PUSH2 0x4359 JUMP JUMPDEST DUP1 ISZERO PUSH2 0x281A JUMPI DUP1 PUSH1 0x1F LT PUSH2 0x27F1 JUMPI PUSH2 0x100 DUP1 DUP4 SLOAD DIV MUL DUP4 MSTORE SWAP2 PUSH1 0x20 ADD SWAP2 PUSH2 0x281A JUMP JUMPDEST DUP3 ADD SWAP2 SWAP1 PUSH0 MSTORE PUSH1 0x20 PUSH0 KECCAK256 SWAP1 JUMPDEST DUP2 SLOAD DUP2 MSTORE SWAP1 PUSH1 0x1 ADD SWAP1 PUSH1 0x20 ADD DUP1 DUP4 GT PUSH2 0x27FD JUMPI DUP3 SWAP1 SUB PUSH1 0x1F AND DUP3 ADD SWAP2 JUMPDEST POP POP POP POP POP DUP2 MSTORE PUSH1 0x20 ADD PUSH1 0x3 DUP3 ADD SLOAD DUP2 MSTORE PUSH1 0x20 ADD PUSH1 0x4 DUP3 ADD SLOAD DUP2 MSTORE POP POP DUP2 MSTORE PUSH1 0x20 ADD DUP4 PUSH1 0x6 ADD SLOAD DUP2 MSTORE PUSH1 0x20 ADD DUP4 PUSH1 0x7 ADD SLOAD DUP2 MSTORE PUSH1 0x20 ADD PUSH0 ISZERO ISZERO DUP2 MSTORE PUSH1 0x20 ADD PUSH0 DUP2 MSTORE PUSH1 0x20 ADD TIMESTAMP DUP2 MSTORE PUSH1 0x20 ADD TIMESTAMP DUP2 MSTORE POP SWAP1 POP DUP1 PUSH1 0x3 PUSH0 DUP6 DUP2 MSTORE PUSH1 0x20 ADD SWAP1 DUP2 MSTORE PUSH1 0x20 ADD PUSH0 KECCAK256 PUSH0 DUP3 ADD MLOAD DUP2 PUSH0 ADD SSTORE PUSH1 0x20 DUP3 ADD MLOAD DUP2 PUSH1 0x1 ADD PUSH0 PUSH2 0x100 EXP DUP2 SLOAD DUP2 PUSH20 0xFFFFFFFFFFFFFFFFFFFFFFFFFFFFFFFFFFFFFFFF MUL NOT AND SWAP1 DUP4 PUSH20 0xFFFFFFFFFFFFFFFFFFFFFFFFFFFFFFFFFFFFFFFF AND MUL OR SWAP1 SSTORE POP PUSH1 0x40 DUP3 ADD MLOAD DUP2 PUSH1 0x2 ADD PUSH0 DUP3 ADD MLOAD DUP2 PUSH0 ADD SWAP1 DUP2 PUSH2 0x28E6 SWAP2 SWAP1 PUSH2 0x4710 JUMP JUMPDEST POP PUSH1 0x20 DUP3 ADD MLOAD DUP2 PUSH1 0x1 ADD SWAP1 DUP2 PUSH2 0x28FC SWAP2 SWAP1 PUSH2 0x4710 JUMP JUMPDEST POP PUSH1 0x40 DUP3 ADD MLOAD DUP2 PUSH1 0x2 ADD SWAP1 DUP2 PUSH2 0x2912 SWAP2 SWAP1 PUSH2 0x4710 JUMP JUMPDEST POP PUSH1 0x60 DUP3 ADD MLOAD DUP2 PUSH1 0x3 ADD SSTORE PUSH1 0x80 DUP3 ADD MLOAD DUP2 PUSH1 0x4 ADD SSTORE POP POP PUSH1 0x60 DUP3 ADD MLOAD DUP2 PUSH1 0x7 ADD SSTORE PUSH1 0x80 DUP3 ADD MLOAD DUP2 PUSH1 0x8 ADD SSTORE PUSH1 0xA0 DUP3 ADD MLOAD DUP2 PUSH1 0x9 ADD PUSH0 PUSH2 0x100 EXP DUP2 SLOAD DUP2 PUSH1 0xFF MUL NOT AND SWAP1 DUP4 ISZERO ISZERO MUL OR SWAP1 SSTORE POP PUSH1 0xC0 DUP3 ADD MLOAD DUP2 PUSH1 0xA ADD SSTORE PUSH1 0xE0 DUP3 ADD MLOAD DUP2 PUSH1 0xB ADD SSTORE PUSH2 0x100 DUP3 ADD MLOAD DUP2 PUSH1 0xC ADD SSTORE SWAP1 POP POP PUSH1 0x5 PUSH0 DUP4 PUSH0 ADD PUSH0 SWAP1 SLOAD SWAP1 PUSH2 0x100 EXP SWAP1 DIV PUSH20 0xFFFFFFFFFFFFFFFFFFFFFFFFFFFFFFFFFFFFFFFF AND PUSH20 0xFFFFFFFFFFFFFFFFFFFFFFFFFFFFFFFFFFFFFFFF AND PUSH20 0xFFFFFFFFFFFFFFFFFFFFFFFFFFFFFFFFFFFFFFFF AND DUP2 MSTORE PUSH1 0x20 ADD SWAP1 DUP2 MSTORE PUSH1 0x20 ADD PUSH0 KECCAK256 DUP4 SWAP1 DUP1 PUSH1 0x1 DUP2 SLOAD ADD DUP1 DUP3 SSTORE DUP1 SWAP2 POP POP PUSH1 0x1 SWAP1 SUB SWAP1 PUSH0 MSTORE PUSH1 0x20 PUSH0 KECCAK256 ADD PUSH0 SWAP1 SWAP2 SWAP1 SWAP2 SWAP1 SWAP2 POP SSTORE PUSH2 0x2A0A DUP4 PUSH2 0x3473 JUMP JUMPDEST DUP3 DUP4 PUSH32 0x9F590C35D933762074155FF5A113FC98B6F567020152980D42ABC18FBFF30E93 PUSH1 0x40 MLOAD PUSH1 0x40 MLOAD DUP1 SWAP2 SUB SWAP1 LOG3 POP POP POP JUMP JUMPDEST DUP3 PUSH0 PUSH20 0xFFFFFFFFFFFFFFFFFFFFFFFFFFFFFFFFFFFFFFFF AND PUSH1 0x3 PUSH0 DUP4 DUP2 MSTORE PUSH1 0x20 ADD SWAP1 DUP2 MSTORE PUSH1 0x20 ADD PUSH0 KECCAK256 PUSH1 0x1 ADD PUSH0 SWAP1 SLOAD SWAP1 PUSH2 0x100 EXP SWAP1 DIV PUSH20 0xFFFFFFFFFFFFFFFFFFFFFFFFFFFFFFFFFFFFFFFF AND PUSH20 0xFFFFFFFFFFFFFFFFFFFFFFFFFFFFFFFFFFFFFFFF AND SUB PUSH2 0x2ADF JUMPI PUSH1 0x40 MLOAD PUSH32 0x8C379A000000000000000000000000000000000000000000000000000000000 DUP2 MSTORE PUSH1 0x4 ADD PUSH2 0x2AD6 SWAP1 PUSH2 0x409B JUMP JUMPDEST PUSH1 0x40 MLOAD DUP1 SWAP2 SUB SWAP1 REVERT JUMPDEST PUSH0 PUSH1 0x1 SWAP1 SLOAD SWAP1 PUSH2 0x100 EXP SWAP1 DIV PUSH20 0xFFFFFFFFFFFFFFFFFFFFFFFFFFFFFFFFFFFFFFFF AND PUSH20 0xFFFFFFFFFFFFFFFFFFFFFFFFFFFFFFFFFFFFFFFF AND CALLER PUSH20 0xFFFFFFFFFFFFFFFFFFFFFFFFFFFFFFFFFFFFFFFF AND EQ PUSH2 0x2B6E JUMPI PUSH1 0x40 MLOAD PUSH32 0x8C379A000000000000000000000000000000000000000000000000000000000 DUP2 MSTORE PUSH1 0x4 ADD PUSH2 0x2B65 SWAP1 PUSH2 0x4AEC JUMP JUMPDEST PUSH1 0x40 MLOAD DUP1 SWAP2 SUB SWAP1 REVERT JUMPDEST DUP2 PUSH1 0x3 PUSH0 DUP7 DUP2 MSTORE PUSH1 0x20 ADD SWAP1 DUP2 MSTORE PUSH1 0x20 ADD PUSH0 KECCAK256 PUSH1 0x9 ADD PUSH0 PUSH2 0x100 EXP DUP2 SLOAD DUP2 PUSH1 0xFF MUL NOT AND SWAP1 DUP4 ISZERO ISZERO MUL OR SWAP1 SSTORE POP DUP3 PUSH1 0x3 PUSH0 DUP7 DUP2 MSTORE PUSH1 0x20 ADD SWAP1 DUP2 MSTORE PUSH1 0x20 ADD PUSH0 KECCAK256 PUSH1 0xA ADD DUP2 SWAP1 SSTORE POP TIMESTAMP PUSH1 0x3 PUSH0 DUP7 DUP2 MSTORE PUSH1 0x20 ADD SWAP1 DUP2 MSTORE PUSH1 0x20 ADD PUSH0 KECCAK256 PUSH1 0xC ADD DUP2 SWAP1 SSTORE POP DUP3 DUP5 PUSH32 0x9F3FB7F30A7A75BCBE64925EA9CECB8A7DCA5096C4174D2A843ABBA66AC6C967 DUP5 PUSH1 0x40 MLOAD PUSH2 0x2BFC SWAP2 SWAP1 PUSH2 0x3A23 JUMP JUMPDEST PUSH1 0x40 MLOAD DUP1 SWAP2 SUB SWAP1 LOG3 POP POP POP POP JUMP JUMPDEST PUSH1 0x6 DUP2 DUP2 SLOAD DUP2 LT PUSH2 0x2C19 JUMPI PUSH0 DUP1 REVERT JUMPDEST SWAP1 PUSH0 MSTORE PUSH1 0x20 PUSH0 KECCAK256 ADD PUSH0 SWAP2 POP SWAP1 POP SLOAD DUP2 JUMP JUMPDEST PUSH1 0x60 PUSH1 0x5 PUSH0 DUP4 PUSH20 0xFFFFFFFFFFFFFFFFFFFFFFFFFFFFFFFFFFFFFFFF AND PUSH20 0xFFFFFFFFFFFFFFFFFFFFFFFFFFFFFFFFFFFFFFFF AND DUP2 MSTORE PUSH1 0x20 ADD SWAP1 DUP2 MSTORE PUSH1 0x20 ADD PUSH0 KECCAK256 DUP1 SLOAD DUP1 PUSH1 0x20 MUL PUSH1 0x20 ADD PUSH1 0x40 MLOAD SWAP1 DUP2 ADD PUSH1 0x40 MSTORE DUP1 SWAP3 SWAP2 SWAP1 DUP2 DUP2 MSTORE PUSH1 0x20 ADD DUP3 DUP1 SLOAD DUP1 ISZERO PUSH2 0x2CB1 JUMPI PUSH1 0x20 MUL DUP3 ADD SWAP2 SWAP1 PUSH0 MSTORE PUSH1 0x20 PUSH0 KECCAK256 SWAP1 JUMPDEST DUP2 SLOAD DUP2 MSTORE PUSH1 0x20 ADD SWAP1 PUSH1 0x1 ADD SWAP1 DUP1 DUP4 GT PUSH2 0x2C9D JUMPI JUMPDEST POP POP POP POP POP SWAP1 POP SWAP2 SWAP1 POP JUMP JUMPDEST PUSH1 0x1 PUSH0 SWAP1 SLOAD SWAP1 PUSH2 0x100 EXP SWAP1 DIV PUSH20 0xFFFFFFFFFFFFFFFFFFFFFFFFFFFFFFFFFFFFFFFF AND PUSH20 0xFFFFFFFFFFFFFFFFFFFFFFFFFFFFFFFFFFFFFFFF AND PUSH4 0x91D14854 PUSH1 0x1 PUSH0 SWAP1 SLOAD SWAP1 PUSH2 0x100 EXP SWAP1 DIV PUSH20 0xFFFFFFFFFFFFFFFFFFFFFFFFFFFFFFFFFFFFFFFF AND PUSH20 0xFFFFFFFFFFFFFFFFFFFFFFFFFFFFFFFFFFFFFFFF AND PUSH4 0x75B238FC PUSH1 0x40 MLOAD DUP2 PUSH4 0xFFFFFFFF AND PUSH1 0xE0 SHL DUP2 MSTORE PUSH1 0x4 ADD PUSH1 0x20 PUSH1 0x40 MLOAD DUP1 DUP4 SUB DUP2 DUP7 GAS STATICCALL ISZERO DUP1 ISZERO PUSH2 0x2D64 JUMPI RETURNDATASIZE PUSH0 DUP1 RETURNDATACOPY RETURNDATASIZE PUSH0 REVERT JUMPDEST POP POP POP POP PUSH1 0x40 MLOAD RETURNDATASIZE PUSH1 0x1F NOT PUSH1 0x1F DUP3 ADD AND DUP3 ADD DUP1 PUSH1 0x40 MSTORE POP DUP2 ADD SWAP1 PUSH2 0x2D88 SWAP2 SWAP1 PUSH2 0x40EC JUMP JUMPDEST CALLER PUSH1 0x40 MLOAD DUP4 PUSH4 0xFFFFFFFF AND PUSH1 0xE0 SHL DUP2 MSTORE PUSH1 0x4 ADD PUSH2 0x2DA6 SWAP3 SWAP2 SWAP1 PUSH2 0x4126 JUMP JUMPDEST PUSH1 0x20 PUSH1 0x40 MLOAD DUP1 DUP4 SUB DUP2 DUP7 GAS STATICCALL ISZERO DUP1 ISZERO PUSH2 0x2DC1 JUMPI RETURNDATASIZE PUSH0 DUP1 RETURNDATACOPY RETURNDATASIZE PUSH0 REVERT JUMPDEST POP POP POP POP PUSH1 0x40 MLOAD RETURNDATASIZE PUSH1 0x1F NOT PUSH1 0x1F DUP3 ADD AND DUP3 ADD DUP1 PUSH1 0x40 MSTORE POP DUP2 ADD SWAP1 PUSH2 0x2DE5 SWAP2 SWAP1 PUSH2 0x4161 JUMP JUMPDEST PUSH2 0x2E24 JUMPI PUSH1 0x40 MLOAD PUSH32 0x8C379A000000000000000000000000000000000000000000000000000000000 DUP2 MSTORE PUSH1 0x4 ADD PUSH2 0x2E1B SWAP1 PUSH2 0x42A6 JUMP JUMPDEST PUSH1 0x40 MLOAD DUP1 SWAP2 SUB SWAP1 REVERT JUMPDEST PUSH2 0x2E2C PUSH2 0x3251 JUMP JUMPDEST PUSH0 PUSH1 0x4 PUSH0 DUP4 DUP2 MSTORE PUSH1 0x20 ADD SWAP1 DUP2 MSTORE PUSH1 0x20 ADD PUSH0 KECCAK256 SWAP1 POP DUP1 PUSH1 0x8 ADD PUSH0 SWAP1 SLOAD SWAP1 PUSH2 0x100 EXP SWAP1 DIV PUSH1 0xFF AND PUSH2 0x2E90 JUMPI PUSH1 0x40 MLOAD PUSH32 0x8C379A000000000000000000000000000000000000000000000000000000000 DUP2 MSTORE PUSH1 0x4 ADD PUSH2 0x2E87 SWAP1 PUSH2 0x49F6 JUMP JUMPDEST PUSH1 0x40 MLOAD DUP1 SWAP2 SUB SWAP1 REVERT JUMPDEST PUSH0 DUP2 PUSH1 0x8 ADD PUSH0 PUSH2 0x100 EXP DUP2 SLOAD DUP2 PUSH1 0xFF MUL NOT AND SWAP1 DUP4 ISZERO ISZERO MUL OR SWAP1 SSTORE POP PUSH0 DUP2 PUSH1 0x8 ADD PUSH1 0x1 PUSH2 0x100 EXP DUP2 SLOAD DUP2 PUSH1 0xFF MUL NOT AND SWAP1 DUP4 ISZERO ISZERO MUL OR SWAP1 SSTORE POP PUSH2 0x2ED0 DUP3 PUSH2 0x3473 JUMP JUMPDEST DUP2 PUSH32 0xFC16A62ACC42F1401E209C71F8BB430A6F13AB2CF2B6B9D9F0090F44B57314AA PUSH1 0x40 MLOAD PUSH1 0x40 MLOAD DUP1 SWAP2 SUB SWAP1 LOG2 POP POP JUMP JUMPDEST PUSH2 0x2F09 PUSH2 0x35A4 JUMP JUMPDEST DUP2 PUSH0 PUSH20 0xFFFFFFFFFFFFFFFFFFFFFFFFFFFFFFFFFFFFFFFF AND PUSH1 0x3 PUSH0 DUP4 DUP2 MSTORE PUSH1 0x20 ADD SWAP1 DUP2 MSTORE PUSH1 0x20 ADD PUSH0 KECCAK256 PUSH1 0x1 ADD PUSH0 SWAP1 SLOAD SWAP1 PUSH2 0x100 EXP SWAP1 DIV PUSH20 0xFFFFFFFFFFFFFFFFFFFFFFFFFFFFFFFFFFFFFFFF AND PUSH20 0xFFFFFFFFFFFFFFFFFFFFFFFFFFFFFFFFFFFFFFFF AND SUB PUSH2 0x2FAB JUMPI PUSH1 0x40 MLOAD PUSH32 0x8C379A000000000000000000000000000000000000000000000000000000000 DUP2 MSTORE PUSH1 0x4 ADD PUSH2 0x2FA2 SWAP1 PUSH2 0x409B JUMP JUMPDEST PUSH1 0x40 MLOAD DUP1 SWAP2 SUB SWAP1 REVERT JUMPDEST PUSH1 0x3 PUSH0 DUP5 DUP2 MSTORE PUSH1 0x20 ADD SWAP1 DUP2 MSTORE PUSH1 0x20 ADD PUSH0 KECCAK256 PUSH1 0x40 MLOAD DUP1 PUSH2 0x120 ADD PUSH1 0x40 MSTORE SWAP1 DUP2 PUSH0 DUP3 ADD SLOAD DUP2 MSTORE PUSH1 0x20 ADD PUSH1 0x1 DUP3 ADD PUSH0 SWAP1 SLOAD SWAP1 PUSH2 0x100 EXP SWAP1 DIV PUSH20 0xFFFFFFFFFFFFFFFFFFFFFFFFFFFFFFFFFFFFFFFF AND PUSH20 0xFFFFFFFFFFFFFFFFFFFFFFFFFFFFFFFFFFFFFFFF AND PUSH20 0xFFFFFFFFFFFFFFFFFFFFFFFFFFFFFFFFFFFFFFFF AND DUP2 MSTORE PUSH1 0x20 ADD PUSH1 0x2 DUP3 ADD PUSH1 0x40 MLOAD DUP1 PUSH1 0xA0 ADD PUSH1 0x40 MSTORE SWAP1 DUP2 PUSH0 DUP3 ADD DUP1 SLOAD PUSH2 0x3045 SWAP1 PUSH2 0x4359 JUMP JUMPDEST DUP1 PUSH1 0x1F ADD PUSH1 0x20 DUP1 SWAP2 DIV MUL PUSH1 0x20 ADD PUSH1 0x40 MLOAD SWAP1 DUP2 ADD PUSH1 0x40 MSTORE DUP1 SWAP3 SWAP2 SWAP1 DUP2 DUP2 MSTORE PUSH1 0x20 ADD DUP3 DUP1 SLOAD PUSH2 0x3071 SWAP1 PUSH2 0x4359 JUMP JUMPDEST DUP1 ISZERO PUSH2 0x30BC JUMPI DUP1 PUSH1 0x1F LT PUSH2 0x3093 JUMPI PUSH2 0x100 DUP1 DUP4 SLOAD DIV MUL DUP4 MSTORE SWAP2 PUSH1 0x20 ADD SWAP2 PUSH2 0x30BC JUMP JUMPDEST DUP3 ADD SWAP2 SWAP1 PUSH0 MSTORE PUSH1 0x20 PUSH0 KECCAK256 SWAP1 JUMPDEST DUP2 SLOAD DUP2 MSTORE SWAP1 PUSH1 0x1 ADD SWAP1 PUSH1 0x20 ADD DUP1 DUP4 GT PUSH2 0x309F JUMPI DUP3 SWAP1 SUB PUSH1 0x1F AND DUP3 ADD SWAP2 JUMPDEST POP POP POP POP POP DUP2 MSTORE PUSH1 0x20 ADD PUSH1 0x1 DUP3 ADD DUP1 SLOAD PUSH2 0x30D5 SWAP1 PUSH2 0x4359 JUMP JUMPDEST DUP1 PUSH1 0x1F ADD PUSH1 0x20 DUP1 SWAP2 DIV MUL PUSH1 0x20 ADD PUSH1 0x40 MLOAD SWAP1 DUP2 ADD PUSH1 0x40 MSTORE DUP1 SWAP3 SWAP2 SWAP1 DUP2 DUP2 MSTORE PUSH1 0x20 ADD DUP3 DUP1 SLOAD PUSH2 0x3101 SWAP1 PUSH2 0x4359 JUMP JUMPDEST DUP1 ISZERO PUSH2 0x314C JUMPI DUP1 PUSH1 0x1F LT PUSH2 0x3123 JUMPI PUSH2 0x100 DUP1 DUP4 SLOAD DIV MUL DUP4 MSTORE SWAP2 PUSH1 0x20 ADD SWAP2 PUSH2 0x314C JUMP JUMPDEST DUP3 ADD SWAP2 SWAP1 PUSH0 MSTORE PUSH1 0x20 PUSH0 KECCAK256 SWAP1 JUMPDEST DUP2 SLOAD DUP2 MSTORE SWAP1 PUSH1 0x1 ADD SWAP1 PUSH1 0x20 ADD DUP1 DUP4 GT PUSH2 0x312F JUMPI DUP3 SWAP1 SUB PUSH1 0x1F AND DUP3 ADD SWAP2 JUMPDEST POP POP POP POP POP DUP2 MSTORE PUSH1 0x20 ADD PUSH1 0x2 DUP3 ADD DUP1 SLOAD PUSH2 0x3165 SWAP1 PUSH2 0x4359 JUMP JUMPDEST DUP1 PUSH1 0x1F ADD PUSH1 0x20 DUP1 SWAP2 DIV MUL PUSH1 0x20 ADD PUSH1 0x40 MLOAD SWAP1 DUP2 ADD PUSH1 0x40 MSTORE DUP1 SWAP3 SWAP2 SWAP1 DUP2 DUP2 MSTORE PUSH1 0x20 ADD DUP3 DUP1 SLOAD PUSH2 0x3191 SWAP1 PUSH2 0x4359 JUMP JUMPDEST DUP1 ISZERO PUSH2 0x31DC JUMPI DUP1 PUSH1 0x1F LT PUSH2 0x31B3 JUMPI PUSH2 0x100 DUP1 DUP4 SLOAD DIV MUL DUP4 MSTORE SWAP2 PUSH1 0x20 ADD SWAP2 PUSH2 0x31DC JUMP JUMPDEST DUP3 ADD SWAP2 SWAP1 PUSH0 MSTORE PUSH1 0x20 PUSH0 KECCAK256 SWAP1 JUMPDEST DUP2 SLOAD DUP2 MSTORE SWAP1 PUSH1 0x1 ADD SWAP1 PUSH1 0x20 ADD DUP1 DUP4 GT PUSH2 0x31BF JUMPI DUP3 SWAP1 SUB PUSH1 0x1F AND DUP3 ADD SWAP2 JUMPDEST POP POP POP POP POP DUP2 MSTORE PUSH1 0x20 ADD PUSH1 0x3 DUP3 ADD SLOAD DUP2 MSTORE PUSH1 0x20 ADD PUSH1 0x4 DUP3 ADD SLOAD DUP2 MSTORE POP POP DUP2 MSTORE PUSH1 0x20 ADD PUSH1 0x7 DUP3 ADD SLOAD DUP2 MSTORE PUSH1 0x20 ADD PUSH1 0x8 DUP3 ADD SLOAD DUP2 MSTORE PUSH1 0x20 ADD PUSH1 0x9 DUP3 ADD PUSH0 SWAP1 SLOAD SWAP1 PUSH2 0x100 EXP SWAP1 DIV PUSH1 0xFF AND ISZERO ISZERO ISZERO ISZERO DUP2 MSTORE PUSH1 0x20 ADD PUSH1 0xA DUP3 ADD SLOAD DUP2 MSTORE PUSH1 0x20 ADD PUSH1 0xB DUP3 ADD SLOAD DUP2 MSTORE PUSH1 0x20 ADD PUSH1 0xC DUP3 ADD SLOAD DUP2 MSTORE POP POP SWAP2 POP POP SWAP2 SWAP1 POP JUMP JUMPDEST PUSH2 0x3259 PUSH2 0xF22 JUMP JUMPDEST ISZERO PUSH2 0x3299 JUMPI PUSH1 0x40 MLOAD PUSH32 0x8C379A000000000000000000000000000000000000000000000000000000000 DUP2 MSTORE PUSH1 0x4 ADD PUSH2 0x3290 SWAP1 PUSH2 0x4B54 JUMP JUMPDEST PUSH1 0x40 MLOAD DUP1 SWAP2 SUB SWAP1 REVERT JUMPDEST JUMP JUMPDEST PUSH2 0x32A3 PUSH2 0x3534 JUMP JUMPDEST PUSH0 DUP1 PUSH0 PUSH2 0x100 EXP DUP2 SLOAD DUP2 PUSH1 0xFF MUL NOT AND SWAP1 DUP4 ISZERO ISZERO MUL OR SWAP1 SSTORE POP PUSH32 0x5DB9EE0A495BF2E6FF9C91A7834C1BA4FDD244A5E8AA4E537BD38AEAE4B073AA PUSH2 0x32E4 PUSH2 0x357D JUMP JUMPDEST PUSH1 0x40 MLOAD PUSH2 0x32F1 SWAP2 SWAP1 PUSH2 0x3A93 JUMP JUMPDEST PUSH1 0x40 MLOAD DUP1 SWAP2 SUB SWAP1 LOG1 JUMP JUMPDEST PUSH2 0x3303 PUSH2 0x3251 JUMP JUMPDEST PUSH1 0x1 PUSH0 DUP1 PUSH2 0x100 EXP DUP2 SLOAD DUP2 PUSH1 0xFF MUL NOT AND SWAP1 DUP4 ISZERO ISZERO MUL OR SWAP1 SSTORE POP PUSH32 0x62E78CEA01BEE320CD4E420270B5EA74000D11B0C9F74754EBDBFC544B05A258 PUSH2 0x3345 PUSH2 0x357D JUMP JUMPDEST PUSH1 0x40 MLOAD PUSH2 0x3352 SWAP2 SWAP1 PUSH2 0x3A93 JUMP JUMPDEST PUSH1 0x40 MLOAD DUP1 SWAP2 SUB SWAP1 LOG1 JUMP JUMPDEST PUSH0 PUSH2 0x3367 PUSH1 0x2 PUSH2 0x3584 JUMP JUMPDEST PUSH2 0x3371 PUSH1 0x2 PUSH2 0x3598 JUMP JUMPDEST SWAP1 POP SWAP1 JUMP JUMPDEST PUSH0 PUSH1 0x5 PUSH0 DUP4 PUSH20 0xFFFFFFFFFFFFFFFFFFFFFFFFFFFFFFFFFFFFFFFF AND PUSH20 0xFFFFFFFFFFFFFFFFFFFFFFFFFFFFFFFFFFFFFFFF AND DUP2 MSTORE PUSH1 0x20 ADD SWAP1 DUP2 MSTORE PUSH1 0x20 ADD PUSH0 KECCAK256 SWAP1 POP PUSH0 JUMPDEST DUP2 DUP1 SLOAD SWAP1 POP DUP2 LT ISZERO PUSH2 0x346D JUMPI DUP4 DUP3 DUP3 DUP2 SLOAD DUP2 LT PUSH2 0x33D8 JUMPI PUSH2 0x33D7 PUSH2 0x4B72 JUMP JUMPDEST JUMPDEST SWAP1 PUSH0 MSTORE PUSH1 0x20 PUSH0 KECCAK256 ADD SLOAD SUB PUSH2 0x345A JUMPI DUP2 PUSH1 0x1 DUP4 DUP1 SLOAD SWAP1 POP PUSH2 0x33F8 SWAP2 SWAP1 PUSH2 0x4BCC JUMP JUMPDEST DUP2 SLOAD DUP2 LT PUSH2 0x3409 JUMPI PUSH2 0x3408 PUSH2 0x4B72 JUMP JUMPDEST JUMPDEST SWAP1 PUSH0 MSTORE PUSH1 0x20 PUSH0 KECCAK256 ADD SLOAD DUP3 DUP3 DUP2 SLOAD DUP2 LT PUSH2 0x3425 JUMPI PUSH2 0x3424 PUSH2 0x4B72 JUMP JUMPDEST JUMPDEST SWAP1 PUSH0 MSTORE PUSH1 0x20 PUSH0 KECCAK256 ADD DUP2 SWAP1 SSTORE POP DUP2 DUP1 SLOAD DUP1 PUSH2 0x3442 JUMPI PUSH2 0x3441 PUSH2 0x4BFF JUMP JUMPDEST JUMPDEST PUSH1 0x1 SWAP1 SUB DUP2 DUP2 SWAP1 PUSH0 MSTORE PUSH1 0x20 PUSH0 KECCAK256 ADD PUSH0 SWAP1 SSTORE SWAP1 SSTORE PUSH2 0x346D JUMP JUMPDEST DUP1 DUP1 PUSH2 0x3465 SWAP1 PUSH2 0x4C2C JUMP JUMPDEST SWAP2 POP POP PUSH2 0x33B8 JUMP JUMPDEST POP POP POP POP JUMP JUMPDEST PUSH0 JUMPDEST PUSH1 0x6 DUP1 SLOAD SWAP1 POP DUP2 LT ISZERO PUSH2 0x3530 JUMPI DUP2 PUSH1 0x6 DUP3 DUP2 SLOAD DUP2 LT PUSH2 0x3497 JUMPI PUSH2 0x3496 PUSH2 0x4B72 JUMP JUMPDEST JUMPDEST SWAP1 PUSH0 MSTORE PUSH1 0x20 PUSH0 KECCAK256 ADD SLOAD SUB PUSH2 0x351D JUMPI PUSH1 0x6 PUSH1 0x1 PUSH1 0x6 DUP1 SLOAD SWAP1 POP PUSH2 0x34B9 SWAP2 SWAP1 PUSH2 0x4BCC JUMP JUMPDEST DUP2 SLOAD DUP2 LT PUSH2 0x34CA JUMPI PUSH2 0x34C9 PUSH2 0x4B72 JUMP JUMPDEST JUMPDEST SWAP1 PUSH0 MSTORE PUSH1 0x20 PUSH0 KECCAK256 ADD SLOAD PUSH1 0x6 DUP3 DUP2 SLOAD DUP2 LT PUSH2 0x34E7 JUMPI PUSH2 0x34E6 PUSH2 0x4B72 JUMP JUMPDEST JUMPDEST SWAP1 PUSH0 MSTORE PUSH1 0x20 PUSH0 KECCAK256 ADD DUP2 SWAP1 SSTORE POP PUSH1 0x6 DUP1 SLOAD DUP1 PUSH2 0x3505 JUMPI PUSH2 0x3504 PUSH2 0x4BFF JUMP JUMPDEST JUMPDEST PUSH1 0x1 SWAP1 SUB DUP2 DUP2 SWAP1 PUSH0 MSTORE PUSH1 0x20 PUSH0 KECCAK256 ADD PUSH0 SWAP1 SSTORE SWAP1 SSTORE PUSH2 0x3530 JUMP JUMPDEST DUP1 DUP1 PUSH2 0x3528 SWAP1 PUSH2 0x4C2C JUMP JUMPDEST SWAP2 POP POP PUSH2 0x3475 JUMP JUMPDEST POP POP JUMP JUMPDEST PUSH2 0x353C PUSH2 0xF22 JUMP JUMPDEST PUSH2 0x357B JUMPI PUSH1 0x40 MLOAD PUSH32 0x8C379A000000000000000000000000000000000000000000000000000000000 DUP2 MSTORE PUSH1 0x4 ADD PUSH2 0x3572 SWAP1 PUSH2 0x4CBD JUMP JUMPDEST PUSH1 0x40 MLOAD DUP1 SWAP2 SUB SWAP1 REVERT JUMPDEST JUMP JUMPDEST PUSH0 CALLER SWAP1 POP SWAP1 JUMP JUMPDEST PUSH1 0x1 DUP2 PUSH0 ADD PUSH0 DUP3 DUP3 SLOAD ADD SWAP3 POP POP DUP2 SWAP1 SSTORE POP POP JUMP JUMPDEST PUSH0 DUP2 PUSH0 ADD SLOAD SWAP1 POP SWAP2 SWAP1 POP JUMP JUMPDEST PUSH1 0x40 MLOAD DUP1 PUSH2 0x120 ADD PUSH1 0x40 MSTORE DUP1 PUSH0 DUP2 MSTORE PUSH1 0x20 ADD PUSH0 PUSH20 0xFFFFFFFFFFFFFFFFFFFFFFFFFFFFFFFFFFFFFFFF AND DUP2 MSTORE PUSH1 0x20 ADD PUSH2 0x35DA PUSH2 0x3606 JUMP JUMPDEST DUP2 MSTORE PUSH1 0x20 ADD PUSH0 DUP2 MSTORE PUSH1 0x20 ADD PUSH0 DUP2 MSTORE PUSH1 0x20 ADD PUSH0 ISZERO ISZERO DUP2 MSTORE PUSH1 0x20 ADD PUSH0 DUP2 MSTORE PUSH1 0x20 ADD PUSH0 DUP2 MSTORE PUSH1 0x20 ADD PUSH0 DUP2 MSTORE POP SWAP1 JUMP JUMPDEST PUSH1 0x40 MLOAD DUP1 PUSH1 0xA0 ADD PUSH1 0x40 MSTORE DUP1 PUSH1 0x60 DUP2 MSTORE PUSH1 0x20 ADD PUSH1 0x60 DUP2 MSTORE PUSH1 0x20 ADD PUSH1 0x60 DUP2 MSTORE PUSH1 0x20 ADD PUSH0 DUP2 MSTORE PUSH1 0x20 ADD PUSH0 DUP2 MSTORE POP SWAP1 JUMP JUMPDEST PUSH0 PUSH20 0xFFFFFFFFFFFFFFFFFFFFFFFFFFFFFFFFFFFFFFFF DUP3 AND SWAP1 POP SWAP2 SWAP1 POP JUMP JUMPDEST PUSH0 DUP2 SWAP1 POP SWAP2 SWAP1 POP JUMP JUMPDEST PUSH0 PUSH2 0x3675 PUSH2 0x3670 PUSH2 0x366B DUP5 PUSH2 0x3633 JUMP JUMPDEST PUSH2 0x3652 JUMP JUMPDEST PUSH2 0x3633 JUMP JUMPDEST SWAP1 POP SWAP2 SWAP1 POP JUMP JUMPDEST PUSH0 PUSH2 0x3686 DUP3 PUSH2 0x365B JUMP JUMPDEST SWAP1 POP SWAP2 SWAP1 POP JUMP JUMPDEST PUSH0 PUSH2 0x3697 DUP3 PUSH2 0x367C JUMP JUMPDEST SWAP1 POP SWAP2 SWAP1 POP JUMP JUMPDEST PUSH2 0x36A7 DUP2 PUSH2 0x368D JUMP JUMPDEST DUP3 MSTORE POP POP JUMP JUMPDEST PUSH0 PUSH1 0x20 DUP3 ADD SWAP1 POP PUSH2 0x36C0 PUSH0 DUP4 ADD DUP5 PUSH2 0x369E JUMP JUMPDEST SWAP3 SWAP2 POP POP JUMP JUMPDEST PUSH0 DUP1 REVERT JUMPDEST PUSH0 DUP1 REVERT JUMPDEST PUSH0 DUP2 SWAP1 POP SWAP2 SWAP1 POP JUMP JUMPDEST PUSH2 0x36E0 DUP2 PUSH2 0x36CE JUMP JUMPDEST DUP2 EQ PUSH2 0x36EA JUMPI PUSH0 DUP1 REVERT JUMPDEST POP JUMP JUMPDEST PUSH0 DUP2 CALLDATALOAD SWAP1 POP PUSH2 0x36FB DUP2 PUSH2 0x36D7 JUMP JUMPDEST SWAP3 SWAP2 POP POP JUMP JUMPDEST PUSH0 DUP1 PUSH1 0x40 DUP4 DUP6 SUB SLT ISZERO PUSH2 0x3717 JUMPI PUSH2 0x3716 PUSH2 0x36C6 JUMP JUMPDEST JUMPDEST PUSH0 PUSH2 0x3724 DUP6 DUP3 DUP7 ADD PUSH2 0x36ED JUMP JUMPDEST SWAP3 POP POP PUSH1 0x20 PUSH2 0x3735 DUP6 DUP3 DUP7 ADD PUSH2 0x36ED JUMP JUMPDEST SWAP2 POP POP SWAP3 POP SWAP3 SWAP1 POP JUMP JUMPDEST PUSH0 PUSH2 0x3749 DUP3 PUSH2 0x3633 JUMP JUMPDEST SWAP1 POP SWAP2 SWAP1 POP JUMP JUMPDEST PUSH2 0x3759 DUP2 PUSH2 0x373F JUMP JUMPDEST DUP2 EQ PUSH2 0x3763 JUMPI PUSH0 DUP1 REVERT JUMPDEST POP JUMP JUMPDEST PUSH0 DUP2 CALLDATALOAD SWAP1 POP PUSH2 0x3774 DUP2 PUSH2 0x3750 JUMP JUMPDEST SWAP3 SWAP2 POP POP JUMP JUMPDEST PUSH0 PUSH1 0x20 DUP3 DUP5 SUB SLT ISZERO PUSH2 0x378F JUMPI PUSH2 0x378E PUSH2 0x36C6 JUMP JUMPDEST JUMPDEST PUSH0 PUSH2 0x379C DUP5 DUP3 DUP6 ADD PUSH2 0x3766 JUMP JUMPDEST SWAP2 POP POP SWAP3 SWAP2 POP POP JUMP JUMPDEST PUSH0 PUSH1 0x20 DUP3 DUP5 SUB SLT ISZERO PUSH2 0x37BA JUMPI PUSH2 0x37B9 PUSH2 0x36C6 JUMP JUMPDEST JUMPDEST PUSH0 PUSH2 0x37C7 DUP5 DUP3 DUP6 ADD PUSH2 0x36ED JUMP JUMPDEST SWAP2 POP POP SWAP3 SWAP2 POP POP JUMP JUMPDEST PUSH2 0x37D9 DUP2 PUSH2 0x373F JUMP JUMPDEST DUP3 MSTORE POP POP JUMP JUMPDEST PUSH0 DUP2 MLOAD SWAP1 POP SWAP2 SWAP1 POP JUMP JUMPDEST PUSH0 DUP3 DUP3 MSTORE PUSH1 0x20 DUP3 ADD SWAP1 POP SWAP3 SWAP2 POP POP JUMP JUMPDEST PUSH0 JUMPDEST DUP4 DUP2 LT ISZERO PUSH2 0x3816 JUMPI DUP1 DUP3 ADD MLOAD DUP2 DUP5 ADD MSTORE PUSH1 0x20 DUP2 ADD SWAP1 POP PUSH2 0x37FB JUMP JUMPDEST PUSH0 DUP5 DUP5 ADD MSTORE POP POP POP POP JUMP JUMPDEST PUSH0 PUSH1 0x1F NOT PUSH1 0x1F DUP4 ADD AND SWAP1 POP SWAP2 SWAP1 POP JUMP JUMPDEST PUSH0 PUSH2 0x383B DUP3 PUSH2 0x37DF JUMP JUMPDEST PUSH2 0x3845 DUP2 DUP6 PUSH2 0x37E9 JUMP JUMPDEST SWAP4 POP PUSH2 0x3855 DUP2 DUP6 PUSH1 0x20 DUP7 ADD PUSH2 0x37F9 JUMP JUMPDEST PUSH2 0x385E DUP2 PUSH2 0x3821 JUMP JUMPDEST DUP5 ADD SWAP2 POP POP SWAP3 SWAP2 POP POP JUMP JUMPDEST PUSH0 DUP2 SWAP1 POP SWAP2 SWAP1 POP JUMP JUMPDEST PUSH2 0x387B DUP2 PUSH2 0x3869 JUMP JUMPDEST DUP3 MSTORE POP POP JUMP JUMPDEST PUSH0 PUSH1 0xA0 DUP4 ADD PUSH0 DUP4 ADD MLOAD DUP5 DUP3 SUB PUSH0 DUP7 ADD MSTORE PUSH2 0x389B DUP3 DUP3 PUSH2 0x3831 JUMP JUMPDEST SWAP2 POP POP PUSH1 0x20 DUP4 ADD MLOAD DUP5 DUP3 SUB PUSH1 0x20 DUP7 ADD MSTORE PUSH2 0x38B5 DUP3 DUP3 PUSH2 0x3831 JUMP JUMPDEST SWAP2 POP POP PUSH1 0x40 DUP4 ADD MLOAD DUP5 DUP3 SUB PUSH1 0x40 DUP7 ADD MSTORE PUSH2 0x38CF DUP3 DUP3 PUSH2 0x3831 JUMP JUMPDEST SWAP2 POP POP PUSH1 0x60 DUP4 ADD MLOAD PUSH2 0x38E4 PUSH1 0x60 DUP7 ADD DUP3 PUSH2 0x3872 JUMP JUMPDEST POP PUSH1 0x80 DUP4 ADD MLOAD PUSH2 0x38F7 PUSH1 0x80 DUP7 ADD DUP3 PUSH2 0x3872 JUMP JUMPDEST POP DUP1 SWAP2 POP POP SWAP3 SWAP2 POP POP JUMP JUMPDEST PUSH2 0x390B DUP2 PUSH2 0x36CE JUMP JUMPDEST DUP3 MSTORE POP POP JUMP JUMPDEST PUSH0 DUP2 ISZERO ISZERO SWAP1 POP SWAP2 SWAP1 POP JUMP JUMPDEST PUSH2 0x3925 DUP2 PUSH2 0x3911 JUMP JUMPDEST DUP3 MSTORE POP POP JUMP JUMPDEST PUSH0 PUSH1 0xC0 DUP3 ADD SWAP1 POP PUSH2 0x393E PUSH0 DUP4 ADD DUP10 PUSH2 0x37D0 JUMP JUMPDEST DUP2 DUP2 SUB PUSH1 0x20 DUP4 ADD MSTORE PUSH2 0x3950 DUP2 DUP9 PUSH2 0x3881 JUMP JUMPDEST SWAP1 POP PUSH2 0x395F PUSH1 0x40 DUP4 ADD DUP8 PUSH2 0x3902 JUMP JUMPDEST PUSH2 0x396C PUSH1 0x60 DUP4 ADD DUP7 PUSH2 0x3902 JUMP JUMPDEST PUSH2 0x3979 PUSH1 0x80 DUP4 ADD DUP6 PUSH2 0x391C JUMP JUMPDEST PUSH2 0x3986 PUSH1 0xA0 DUP4 ADD DUP5 PUSH2 0x391C JUMP JUMPDEST SWAP8 SWAP7 POP POP POP POP POP POP POP JUMP JUMPDEST PUSH0 PUSH2 0x120 DUP3 ADD SWAP1 POP PUSH2 0x39A5 PUSH0 DUP4 ADD DUP13 PUSH2 0x3902 JUMP JUMPDEST PUSH2 0x39B2 PUSH1 0x20 DUP4 ADD DUP12 PUSH2 0x37D0 JUMP JUMPDEST DUP2 DUP2 SUB PUSH1 0x40 DUP4 ADD MSTORE PUSH2 0x39C4 DUP2 DUP11 PUSH2 0x3881 JUMP JUMPDEST SWAP1 POP PUSH2 0x39D3 PUSH1 0x60 DUP4 ADD DUP10 PUSH2 0x3902 JUMP JUMPDEST PUSH2 0x39E0 PUSH1 0x80 DUP4 ADD DUP9 PUSH2 0x3902 JUMP JUMPDEST PUSH2 0x39ED PUSH1 0xA0 DUP4 ADD DUP8 PUSH2 0x391C JUMP JUMPDEST PUSH2 0x39FA PUSH1 0xC0 DUP4 ADD DUP7 PUSH2 0x3902 JUMP JUMPDEST PUSH2 0x3A07 PUSH1 0xE0 DUP4 ADD DUP6 PUSH2 0x3902 JUMP JUMPDEST PUSH2 0x3A15 PUSH2 0x100 DUP4 ADD DUP5 PUSH2 0x3902 JUMP JUMPDEST SWAP11 SWAP10 POP POP POP POP POP POP POP POP POP POP JUMP JUMPDEST PUSH0 PUSH1 0x20 DUP3 ADD SWAP1 POP PUSH2 0x3A36 PUSH0 DUP4 ADD DUP5 PUSH2 0x391C JUMP JUMPDEST SWAP3 SWAP2 POP POP JUMP JUMPDEST PUSH0 DUP1 PUSH1 0x40 DUP4 DUP6 SUB SLT ISZERO PUSH2 0x3A52 JUMPI PUSH2 0x3A51 PUSH2 0x36C6 JUMP JUMPDEST JUMPDEST PUSH0 PUSH2 0x3A5F DUP6 DUP3 DUP7 ADD PUSH2 0x3766 JUMP JUMPDEST SWAP3 POP POP PUSH1 0x20 PUSH2 0x3A70 DUP6 DUP3 DUP7 ADD PUSH2 0x36ED JUMP JUMPDEST SWAP2 POP POP SWAP3 POP SWAP3 SWAP1 POP JUMP JUMPDEST PUSH0 PUSH1 0x20 DUP3 ADD SWAP1 POP PUSH2 0x3A8D PUSH0 DUP4 ADD DUP5 PUSH2 0x3902 JUMP JUMPDEST SWAP3 SWAP2 POP POP JUMP JUMPDEST PUSH0 PUSH1 0x20 DUP3 ADD SWAP1 POP PUSH2 0x3AA6 PUSH0 DUP4 ADD DUP5 PUSH2 0x37D0 JUMP JUMPDEST SWAP3 SWAP2 POP POP JUMP JUMPDEST PUSH0 DUP2 MLOAD SWAP1 POP SWAP2 SWAP1 POP JUMP JUMPDEST PUSH0 DUP3 DUP3 MSTORE PUSH1 0x20 DUP3 ADD SWAP1 POP SWAP3 SWAP2 POP POP JUMP JUMPDEST PUSH0 DUP2 SWAP1 POP PUSH1 0x20 DUP3 ADD SWAP1 POP SWAP2 SWAP1 POP JUMP JUMPDEST PUSH2 0x3ADE DUP2 PUSH2 0x36CE JUMP JUMPDEST DUP3 MSTORE POP POP JUMP JUMPDEST PUSH0 PUSH2 0x3AEF DUP4 DUP4 PUSH2 0x3AD5 JUMP JUMPDEST PUSH1 0x20 DUP4 ADD SWAP1 POP SWAP3 SWAP2 POP POP JUMP JUMPDEST PUSH0 PUSH1 0x20 DUP3 ADD SWAP1 POP SWAP2 SWAP1 POP JUMP JUMPDEST PUSH0 PUSH2 0x3B11 DUP3 PUSH2 0x3AAC JUMP JUMPDEST PUSH2 0x3B1B DUP2 DUP6 PUSH2 0x3AB6 JUMP JUMPDEST SWAP4 POP PUSH2 0x3B26 DUP4 PUSH2 0x3AC6 JUMP JUMPDEST DUP1 PUSH0 JUMPDEST DUP4 DUP2 LT ISZERO PUSH2 0x3B56 JUMPI DUP2 MLOAD PUSH2 0x3B3D DUP9 DUP3 PUSH2 0x3AE4 JUMP JUMPDEST SWAP8 POP PUSH2 0x3B48 DUP4 PUSH2 0x3AFB JUMP JUMPDEST SWAP3 POP POP PUSH1 0x1 DUP2 ADD SWAP1 POP PUSH2 0x3B29 JUMP JUMPDEST POP DUP6 SWAP4 POP POP POP POP SWAP3 SWAP2 POP POP JUMP JUMPDEST PUSH0 PUSH1 0x20 DUP3 ADD SWAP1 POP DUP2 DUP2 SUB PUSH0 DUP4 ADD MSTORE PUSH2 0x3B7B DUP2 DUP5 PUSH2 0x3B07 JUMP JUMPDEST SWAP1 POP SWAP3 SWAP2 POP POP JUMP JUMPDEST PUSH0 DUP1 REVERT JUMPDEST PUSH0 DUP1 REVERT JUMPDEST PUSH0 DUP1 REVERT JUMPDEST PUSH0 DUP1 DUP4 PUSH1 0x1F DUP5 ADD SLT PUSH2 0x3BA4 JUMPI PUSH2 0x3BA3 PUSH2 0x3B83 JUMP JUMPDEST JUMPDEST DUP3 CALLDATALOAD SWAP1 POP PUSH8 0xFFFFFFFFFFFFFFFF DUP2 GT ISZERO PUSH2 0x3BC1 JUMPI PUSH2 0x3BC0 PUSH2 0x3B87 JUMP JUMPDEST JUMPDEST PUSH1 0x20 DUP4 ADD SWAP2 POP DUP4 PUSH1 0x1 DUP3 MUL DUP4 ADD GT ISZERO PUSH2 0x3BDD JUMPI PUSH2 0x3BDC PUSH2 0x3B8B JUMP JUMPDEST JUMPDEST SWAP3 POP SWAP3 SWAP1 POP JUMP JUMPDEST PUSH2 0x3BED DUP2 PUSH2 0x3869 JUMP JUMPDEST DUP2 EQ PUSH2 0x3BF7 JUMPI PUSH0 DUP1 REVERT JUMPDEST POP JUMP JUMPDEST PUSH0 DUP2 CALLDATALOAD SWAP1 POP PUSH2 0x3C08 DUP2 PUSH2 0x3BE4 JUMP JUMPDEST SWAP3 SWAP2 POP POP JUMP JUMPDEST PUSH0 DUP1 PUSH0 DUP1 PUSH0 DUP1 PUSH0 DUP1 PUSH0 DUP1 PUSH1 0xE0 DUP12 DUP14 SUB SLT ISZERO PUSH2 0x3C2C JUMPI PUSH2 0x3C2B PUSH2 0x36C6 JUMP JUMPDEST JUMPDEST PUSH0 DUP12 ADD CALLDATALOAD PUSH8 0xFFFFFFFFFFFFFFFF DUP2 GT ISZERO PUSH2 0x3C49 JUMPI PUSH2 0x3C48 PUSH2 0x36CA JUMP JUMPDEST JUMPDEST PUSH2 0x3C55 DUP14 DUP3 DUP15 ADD PUSH2 0x3B8F JUMP JUMPDEST SWAP11 POP SWAP11 POP POP PUSH1 0x20 DUP12 ADD CALLDATALOAD PUSH8 0xFFFFFFFFFFFFFFFF DUP2 GT ISZERO PUSH2 0x3C78 JUMPI PUSH2 0x3C77 PUSH2 0x36CA JUMP JUMPDEST JUMPDEST PUSH2 0x3C84 DUP14 DUP3 DUP15 ADD PUSH2 0x3B8F JUMP JUMPDEST SWAP9 POP SWAP9 POP POP PUSH1 0x40 DUP12 ADD CALLDATALOAD PUSH8 0xFFFFFFFFFFFFFFFF DUP2 GT ISZERO PUSH2 0x3CA7 JUMPI PUSH2 0x3CA6 PUSH2 0x36CA JUMP JUMPDEST JUMPDEST PUSH2 0x3CB3 DUP14 DUP3 DUP15 ADD PUSH2 0x3B8F JUMP JUMPDEST SWAP7 POP SWAP7 POP POP PUSH1 0x60 PUSH2 0x3CC6 DUP14 DUP3 DUP15 ADD PUSH2 0x3BFA JUMP JUMPDEST SWAP5 POP POP PUSH1 0x80 PUSH2 0x3CD7 DUP14 DUP3 DUP15 ADD PUSH2 0x3BFA JUMP JUMPDEST SWAP4 POP POP PUSH1 0xA0 PUSH2 0x3CE8 DUP14 DUP3 DUP15 ADD PUSH2 0x36ED JUMP JUMPDEST SWAP3 POP POP PUSH1 0xC0 PUSH2 0x3CF9 DUP14 DUP3 DUP15 ADD PUSH2 0x36ED JUMP JUMPDEST SWAP2 POP POP SWAP3 SWAP6 SWAP9 SWAP12 SWAP2 SWAP5 SWAP8 SWAP11 POP SWAP3 SWAP6 SWAP9 POP JUMP JUMPDEST PUSH0 DUP1 PUSH0 DUP1 PUSH0 DUP1 PUSH0 DUP1 PUSH0 DUP1 PUSH1 0xE0 DUP12 DUP14 SUB SLT ISZERO PUSH2 0x3D29 JUMPI PUSH2 0x3D28 PUSH2 0x36C6 JUMP JUMPDEST JUMPDEST PUSH0 PUSH2 0x3D36 DUP14 DUP3 DUP15 ADD PUSH2 0x36ED JUMP JUMPDEST SWAP11 POP POP PUSH1 0x20 DUP12 ADD CALLDATALOAD PUSH8 0xFFFFFFFFFFFFFFFF DUP2 GT ISZERO PUSH2 0x3D57 JUMPI PUSH2 0x3D56 PUSH2 0x36CA JUMP JUMPDEST JUMPDEST PUSH2 0x3D63 DUP14 DUP3 DUP15 ADD PUSH2 0x3B8F JUMP JUMPDEST SWAP10 POP SWAP10 POP POP PUSH1 0x40 DUP12 ADD CALLDATALOAD PUSH8 0xFFFFFFFFFFFFFFFF DUP2 GT ISZERO PUSH2 0x3D86 JUMPI PUSH2 0x3D85 PUSH2 0x36CA JUMP JUMPDEST JUMPDEST PUSH2 0x3D92 DUP14 DUP3 DUP15 ADD PUSH2 0x3B8F JUMP JUMPDEST SWAP8 POP SWAP8 POP POP PUSH1 0x60 DUP12 ADD CALLDATALOAD PUSH8 0xFFFFFFFFFFFFFFFF DUP2 GT ISZERO PUSH2 0x3DB5 JUMPI PUSH2 0x3DB4 PUSH2 0x36CA JUMP JUMPDEST JUMPDEST PUSH2 0x3DC1 DUP14 DUP3 DUP15 ADD PUSH2 0x3B8F JUMP JUMPDEST SWAP6 POP SWAP6 POP POP PUSH1 0x80 PUSH2 0x3DD4 DUP14 DUP3 DUP15 ADD PUSH2 0x3BFA JUMP JUMPDEST SWAP4 POP POP PUSH1 0xA0 PUSH2 0x3DE5 DUP14 DUP3 DUP15 ADD PUSH2 0x3BFA JUMP JUMPDEST SWAP3 POP POP PUSH1 0xC0 PUSH2 0x3DF6 DUP14 DUP3 DUP15 ADD PUSH2 0x36ED JUMP JUMPDEST SWAP2 POP POP SWAP3 SWAP6 SWAP9 SWAP12 SWAP2 SWAP5 SWAP8 SWAP11 POP SWAP3 SWAP6 SWAP9 POP JUMP JUMPDEST PUSH0 DUP1 PUSH1 0x40 DUP4 DUP6 SUB SLT ISZERO PUSH2 0x3E1E JUMPI PUSH2 0x3E1D PUSH2 0x36C6 JUMP JUMPDEST JUMPDEST PUSH0 PUSH2 0x3E2B DUP6 DUP3 DUP7 ADD PUSH2 0x36ED JUMP JUMPDEST SWAP3 POP POP PUSH1 0x20 PUSH2 0x3E3C DUP6 DUP3 DUP7 ADD PUSH2 0x3766 JUMP JUMPDEST SWAP2 POP POP SWAP3 POP SWAP3 SWAP1 POP JUMP JUMPDEST PUSH2 0x3E4F DUP2 PUSH2 0x3911 JUMP JUMPDEST DUP2 EQ PUSH2 0x3E59 JUMPI PUSH0 DUP1 REVERT JUMPDEST POP JUMP JUMPDEST PUSH0 DUP2 CALLDATALOAD SWAP1 POP PUSH2 0x3E6A DUP2 PUSH2 0x3E46 JUMP JUMPDEST SWAP3 SWAP2 POP POP JUMP JUMPDEST PUSH0 DUP1 PUSH0 PUSH1 0x60 DUP5 DUP7 SUB SLT ISZERO PUSH2 0x3E87 JUMPI PUSH2 0x3E86 PUSH2 0x36C6 JUMP JUMPDEST JUMPDEST PUSH0 PUSH2 0x3E94 DUP7 DUP3 DUP8 ADD PUSH2 0x36ED JUMP JUMPDEST SWAP4 POP POP PUSH1 0x20 PUSH2 0x3EA5 DUP7 DUP3 DUP8 ADD PUSH2 0x36ED JUMP JUMPDEST SWAP3 POP POP PUSH1 0x40 PUSH2 0x3EB6 DUP7 DUP3 DUP8 ADD PUSH2 0x3E5C JUMP JUMPDEST SWAP2 POP POP SWAP3 POP SWAP3 POP SWAP3 JUMP JUMPDEST PUSH2 0x3EC9 DUP2 PUSH2 0x373F JUMP JUMPDEST DUP3 MSTORE POP POP JUMP JUMPDEST PUSH0 PUSH1 0xA0 DUP4 ADD PUSH0 DUP4 ADD MLOAD DUP5 DUP3 SUB PUSH0 DUP7 ADD MSTORE PUSH2 0x3EE9 DUP3 DUP3 PUSH2 0x3831 JUMP JUMPDEST SWAP2 POP POP PUSH1 0x20 DUP4 ADD MLOAD DUP5 DUP3 SUB PUSH1 0x20 DUP7 ADD MSTORE PUSH2 0x3F03 DUP3 DUP3 PUSH2 0x3831 JUMP JUMPDEST SWAP2 POP POP PUSH1 0x40 DUP4 ADD MLOAD DUP5 DUP3 SUB PUSH1 0x40 DUP7 ADD MSTORE PUSH2 0x3F1D DUP3 DUP3 PUSH2 0x3831 JUMP JUMPDEST SWAP2 POP POP PUSH1 0x60 DUP4 ADD MLOAD PUSH2 0x3F32 PUSH1 0x60 DUP7 ADD DUP3 PUSH2 0x3872 JUMP JUMPDEST POP PUSH1 0x80 DUP4 ADD MLOAD PUSH2 0x3F45 PUSH1 0x80 DUP7 ADD DUP3 PUSH2 0x3872 JUMP JUMPDEST POP DUP1 SWAP2 POP POP SWAP3 SWAP2 POP POP JUMP JUMPDEST PUSH2 0x3F59 DUP2 PUSH2 0x3911 JUMP JUMPDEST DUP3 MSTORE POP POP JUMP JUMPDEST PUSH0 PUSH2 0x120 DUP4 ADD PUSH0 DUP4 ADD MLOAD PUSH2 0x3F75 PUSH0 DUP7 ADD DUP3 PUSH2 0x3AD5 JUMP JUMPDEST POP PUSH1 0x20 DUP4 ADD MLOAD PUSH2 0x3F88 PUSH1 0x20 DUP7 ADD DUP3 PUSH2 0x3EC0 JUMP JUMPDEST POP PUSH1 0x40 DUP4 ADD MLOAD DUP5 DUP3 SUB PUSH1 0x40 DUP7 ADD MSTORE PUSH2 0x3FA0 DUP3 DUP3 PUSH2 0x3ECF JUMP JUMPDEST SWAP2 POP POP PUSH1 0x60 DUP4 ADD MLOAD PUSH2 0x3FB5 PUSH1 0x60 DUP7 ADD DUP3 PUSH2 0x3AD5 JUMP JUMPDEST POP PUSH1 0x80 DUP4 ADD MLOAD PUSH2 0x3FC8 PUSH1 0x80 DUP7 ADD DUP3 PUSH2 0x3AD5 JUMP JUMPDEST POP PUSH1 0xA0 DUP4 ADD MLOAD PUSH2 0x3FDB PUSH1 0xA0 DUP7 ADD DUP3 PUSH2 0x3F50 JUMP JUMPDEST POP PUSH1 0xC0 DUP4 ADD MLOAD PUSH2 0x3FEE PUSH1 0xC0 DUP7 ADD DUP3 PUSH2 0x3AD5 JUMP JUMPDEST POP PUSH1 0xE0 DUP4 ADD MLOAD PUSH2 0x4001 PUSH1 0xE0 DUP7 ADD DUP3 PUSH2 0x3AD5 JUMP JUMPDEST POP PUSH2 0x100 DUP4 ADD MLOAD PUSH2 0x4016 PUSH2 0x100 DUP7 ADD DUP3 PUSH2 0x3AD5 JUMP JUMPDEST POP DUP1 SWAP2 POP POP SWAP3 SWAP2 POP POP JUMP JUMPDEST PUSH0 PUSH1 0x20 DUP3 ADD SWAP1 POP DUP2 DUP2 SUB PUSH0 DUP4 ADD MSTORE PUSH2 0x4039 DUP2 DUP5 PUSH2 0x3F5F JUMP JUMPDEST SWAP1 POP SWAP3 SWAP2 POP POP JUMP JUMPDEST PUSH0 DUP3 DUP3 MSTORE PUSH1 0x20 DUP3 ADD SWAP1 POP SWAP3 SWAP2 POP POP JUMP JUMPDEST PUSH32 0x57616C6C20646F6573206E6F7420657869737400000000000000000000000000 PUSH0 DUP3 ADD MSTORE POP JUMP JUMPDEST PUSH0 PUSH2 0x4085 PUSH1 0x13 DUP4 PUSH2 0x4041 JUMP JUMPDEST SWAP2 POP PUSH2 0x4090 DUP3 PUSH2 0x4051 JUMP JUMPDEST PUSH1 0x20 DUP3 ADD SWAP1 POP SWAP2 SWAP1 POP JUMP JUMPDEST PUSH0 PUSH1 0x20 DUP3 ADD SWAP1 POP DUP2 DUP2 SUB PUSH0 DUP4 ADD MSTORE PUSH2 0x40B2 DUP2 PUSH2 0x4079 JUMP JUMPDEST SWAP1 POP SWAP2 SWAP1 POP JUMP JUMPDEST PUSH0 DUP2 SWAP1 POP SWAP2 SWAP1 POP JUMP JUMPDEST PUSH2 0x40CB DUP2 PUSH2 0x40B9 JUMP JUMPDEST DUP2 EQ PUSH2 0x40D5 JUMPI PUSH0 DUP1 REVERT JUMPDEST POP JUMP JUMPDEST PUSH0 DUP2 MLOAD SWAP1 POP PUSH2 0x40E6 DUP2 PUSH2 0x40C2 JUMP JUMPDEST SWAP3 SWAP2 POP POP JUMP JUMPDEST PUSH0 PUSH1 0x20 DUP3 DUP5 SUB SLT ISZERO PUSH2 0x4101 JUMPI PUSH2 0x4100 PUSH2 0x36C6 JUMP JUMPDEST JUMPDEST PUSH0 PUSH2 0x410E DUP5 DUP3 DUP6 ADD PUSH2 0x40D8 JUMP JUMPDEST SWAP2 POP POP SWAP3 SWAP2 POP POP JUMP JUMPDEST PUSH2 0x4120 DUP2 PUSH2 0x40B9 JUMP JUMPDEST DUP3 MSTORE POP POP JUMP JUMPDEST PUSH0 PUSH1 0x40 DUP3 ADD SWAP1 POP PUSH2 0x4139 PUSH0 DUP4 ADD DUP6 PUSH2 0x4117 JUMP JUMPDEST PUSH2 0x4146 PUSH1 0x20 DUP4 ADD DUP5 PUSH2 0x37D0 JUMP JUMPDEST SWAP4 SWAP3 POP POP POP JUMP JUMPDEST PUSH0 DUP2 MLOAD SWAP1 POP PUSH2 0x415B DUP2 PUSH2 0x3E46 JUMP JUMPDEST SWAP3 SWAP2 POP POP JUMP JUMPDEST PUSH0 PUSH1 0x20 DUP3 DUP5 SUB SLT ISZERO PUSH2 0x4176 JUMPI PUSH2 0x4175 PUSH2 0x36C6 JUMP JUMPDEST JUMPDEST PUSH0 PUSH2 0x4183 DUP5 DUP3 DUP6 ADD PUSH2 0x414D JUMP JUMPDEST SWAP2 POP POP SWAP3 SWAP2 POP POP JUMP JUMPDEST PUSH32 0x4E6F7420617574686F72697A6564000000000000000000000000000000000000 PUSH0 DUP3 ADD MSTORE POP JUMP JUMPDEST PUSH0 PUSH2 0x41C0 PUSH1 0xE DUP4 PUSH2 0x4041 JUMP JUMPDEST SWAP2 POP PUSH2 0x41CB DUP3 PUSH2 0x418C JUMP JUMPDEST PUSH1 0x20 DUP3 ADD SWAP1 POP SWAP2 SWAP1 POP JUMP JUMPDEST PUSH0 PUSH1 0x20 DUP3 ADD SWAP1 POP DUP2 DUP2 SUB PUSH0 DUP4 ADD MSTORE PUSH2 0x41ED DUP2 PUSH2 0x41B4 JUMP JUMPDEST SWAP1 POP SWAP2 SWAP1 POP JUMP JUMPDEST PUSH32 0x4D6178206F776E6572736869702070657263656E746167652069732039302500 PUSH0 DUP3 ADD MSTORE POP JUMP JUMPDEST PUSH0 PUSH2 0x4228 PUSH1 0x1F DUP4 PUSH2 0x4041 JUMP JUMPDEST SWAP2 POP PUSH2 0x4233 DUP3 PUSH2 0x41F4 JUMP JUMPDEST PUSH1 0x20 DUP3 ADD SWAP1 POP SWAP2 SWAP1 POP JUMP JUMPDEST PUSH0 PUSH1 0x20 DUP3 ADD SWAP1 POP DUP2 DUP2 SUB PUSH0 DUP4 ADD MSTORE PUSH2 0x4255 DUP2 PUSH2 0x421C JUMP JUMPDEST SWAP1 POP SWAP2 SWAP1 POP JUMP JUMPDEST PUSH32 0x43616C6C6572206973206E6F7420616E2061646D696E00000000000000000000 PUSH0 DUP3 ADD MSTORE POP JUMP JUMPDEST PUSH0 PUSH2 0x4290 PUSH1 0x16 DUP4 PUSH2 0x4041 JUMP JUMPDEST SWAP2 POP PUSH2 0x429B DUP3 PUSH2 0x425C JUMP JUMPDEST PUSH1 0x20 DUP3 ADD SWAP1 POP SWAP2 SWAP1 POP JUMP JUMPDEST PUSH0 PUSH1 0x20 DUP3 ADD SWAP1 POP DUP2 DUP2 SUB PUSH0 DUP4 ADD MSTORE PUSH2 0x42BD DUP2 PUSH2 0x4284 JUMP JUMPDEST SWAP1 POP SWAP2 SWAP1 POP JUMP JUMPDEST PUSH32 0x496E76616C69642067616C6C65727920636F6E74726163740000000000000000 PUSH0 DUP3 ADD MSTORE POP JUMP JUMPDEST PUSH0 PUSH2 0x42F8 PUSH1 0x18 DUP4 PUSH2 0x4041 JUMP JUMPDEST SWAP2 POP PUSH2 0x4303 DUP3 PUSH2 0x42C4 JUMP JUMPDEST PUSH1 0x20 DUP3 ADD SWAP1 POP SWAP2 SWAP1 POP JUMP JUMPDEST PUSH0 PUSH1 0x20 DUP3 ADD SWAP1 POP DUP2 DUP2 SUB PUSH0 DUP4 ADD MSTORE PUSH2 0x4325 DUP2 PUSH2 0x42EC JUMP JUMPDEST SWAP1 POP SWAP2 SWAP1 POP JUMP JUMPDEST PUSH32 0x4E487B7100000000000000000000000000000000000000000000000000000000 PUSH0 MSTORE PUSH1 0x22 PUSH1 0x4 MSTORE PUSH1 0x24 PUSH0 REVERT JUMPDEST PUSH0 PUSH1 0x2 DUP3 DIV SWAP1 POP PUSH1 0x1 DUP3 AND DUP1 PUSH2 0x4370 JUMPI PUSH1 0x7F DUP3 AND SWAP2 POP JUMPDEST PUSH1 0x20 DUP3 LT DUP2 SUB PUSH2 0x4383 JUMPI PUSH2 0x4382 PUSH2 0x432C JUMP JUMPDEST JUMPDEST POP SWAP2 SWAP1 POP JUMP JUMPDEST PUSH32 0x4E6F7420617574686F72697A656420746F207669657720726571756573747300 PUSH0 DUP3 ADD MSTORE POP JUMP JUMPDEST PUSH0 PUSH2 0x43BD PUSH1 0x1F DUP4 PUSH2 0x4041 JUMP JUMPDEST SWAP2 POP PUSH2 0x43C8 DUP3 PUSH2 0x4389 JUMP JUMPDEST PUSH1 0x20 DUP3 ADD SWAP1 POP SWAP2 SWAP1 POP JUMP JUMPDEST PUSH0 PUSH1 0x20 DUP3 ADD SWAP1 POP DUP2 DUP2 SUB PUSH0 DUP4 ADD MSTORE PUSH2 0x43EA DUP2 PUSH2 0x43B1 JUMP JUMPDEST SWAP1 POP SWAP2 SWAP1 POP JUMP JUMPDEST PUSH32 0x4D75737420686176652057414C4C5F4F574E45525F524F4C4520746F20726571 PUSH0 DUP3 ADD MSTORE PUSH32 0x756573742077616C6C20726567697374726174696F6E00000000000000000000 PUSH1 0x20 DUP3 ADD MSTORE POP JUMP JUMPDEST PUSH0 PUSH2 0x444B PUSH1 0x36 DUP4 PUSH2 0x4041 JUMP JUMPDEST SWAP2 POP PUSH2 0x4456 DUP3 PUSH2 0x43F1 JUMP JUMPDEST PUSH1 0x40 DUP3 ADD SWAP1 POP SWAP2 SWAP1 POP JUMP JUMPDEST PUSH0 PUSH1 0x20 DUP3 ADD SWAP1 POP DUP2 DUP2 SUB PUSH0 DUP4 ADD MSTORE PUSH2 0x4478 DUP2 PUSH2 0x443F JUMP JUMPDEST SWAP1 POP SWAP2 SWAP1 POP JUMP JUMPDEST PUSH32 0x496E76616C6964206C6F636174696F6E20646174610000000000000000000000 PUSH0 DUP3 ADD MSTORE POP JUMP JUMPDEST PUSH0 PUSH2 0x44B3 PUSH1 0x15 DUP4 PUSH2 0x4041 JUMP JUMPDEST SWAP2 POP PUSH2 0x44BE DUP3 PUSH2 0x447F JUMP JUMPDEST PUSH1 0x20 DUP3 ADD SWAP1 POP SWAP2 SWAP1 POP JUMP JUMPDEST PUSH0 PUSH1 0x20 DUP3 ADD SWAP1 POP DUP2 DUP2 SUB PUSH0 DUP4 ADD MSTORE PUSH2 0x44E0 DUP2 PUSH2 0x44A7 JUMP JUMPDEST SWAP1 POP SWAP2 SWAP1 POP JUMP JUMPDEST PUSH32 0x496E76616C69642073697A650000000000000000000000000000000000000000 PUSH0 DUP3 ADD MSTORE POP JUMP JUMPDEST PUSH0 PUSH2 0x451B PUSH1 0xC DUP4 PUSH2 0x4041 JUMP JUMPDEST SWAP2 POP PUSH2 0x4526 DUP3 PUSH2 0x44E7 JUMP JUMPDEST PUSH1 0x20 DUP3 ADD SWAP1 POP SWAP2 SWAP1 POP JUMP JUMPDEST PUSH0 PUSH1 0x20 DUP3 ADD SWAP1 POP DUP2 DUP2 SUB PUSH0 DUP4 ADD MSTORE PUSH2 0x4548 DUP2 PUSH2 0x450F JUMP JUMPDEST SWAP1 POP SWAP2 SWAP1 POP JUMP JUMPDEST PUSH32 0x4E487B7100000000000000000000000000000000000000000000000000000000 PUSH0 MSTORE PUSH1 0x41 PUSH1 0x4 MSTORE PUSH1 0x24 PUSH0 REVERT JUMPDEST PUSH0 DUP2 SWAP1 POP DUP2 PUSH0 MSTORE PUSH1 0x20 PUSH0 KECCAK256 SWAP1 POP SWAP2 SWAP1 POP JUMP JUMPDEST PUSH0 PUSH1 0x20 PUSH1 0x1F DUP4 ADD DIV SWAP1 POP SWAP2 SWAP1 POP JUMP JUMPDEST PUSH0 DUP3 DUP3 SHL SWAP1 POP SWAP3 SWAP2 POP POP JUMP JUMPDEST PUSH0 PUSH1 0x8 DUP4 MUL PUSH2 0x45D8 PUSH32 0xFFFFFFFFFFFFFFFFFFFFFFFFFFFFFFFFFFFFFFFFFFFFFFFFFFFFFFFFFFFFFFFF DUP3 PUSH2 0x459D JUMP JUMPDEST PUSH2 0x45E2 DUP7 DUP4 PUSH2 0x459D JUMP JUMPDEST SWAP6 POP DUP1 NOT DUP5 AND SWAP4 POP DUP1 DUP7 AND DUP5 OR SWAP3 POP POP POP SWAP4 SWAP3 POP POP POP JUMP JUMPDEST PUSH0 PUSH2 0x4614 PUSH2 0x460F PUSH2 0x460A DUP5 PUSH2 0x36CE JUMP JUMPDEST PUSH2 0x3652 JUMP JUMPDEST PUSH2 0x36CE JUMP JUMPDEST SWAP1 POP SWAP2 SWAP1 POP JUMP JUMPDEST PUSH0 DUP2 SWAP1 POP SWAP2 SWAP1 POP JUMP JUMPDEST PUSH2 0x462D DUP4 PUSH2 0x45FA JUMP JUMPDEST PUSH2 0x4641 PUSH2 0x4639 DUP3 PUSH2 0x461B JUMP JUMPDEST DUP5 DUP5 SLOAD PUSH2 0x45A9 JUMP JUMPDEST DUP3 SSTORE POP POP POP POP JUMP JUMPDEST PUSH0 SWAP1 JUMP JUMPDEST PUSH2 0x4655 PUSH2 0x4649 JUMP JUMPDEST PUSH2 0x4660 DUP2 DUP5 DUP5 PUSH2 0x4624 JUMP JUMPDEST POP POP POP JUMP JUMPDEST JUMPDEST DUP2 DUP2 LT ISZERO PUSH2 0x4683 JUMPI PUSH2 0x4678 PUSH0 DUP3 PUSH2 0x464D JUMP JUMPDEST PUSH1 0x1 DUP2 ADD SWAP1 POP PUSH2 0x4666 JUMP JUMPDEST POP POP JUMP JUMPDEST PUSH1 0x1F DUP3 GT ISZERO PUSH2 0x46C8 JUMPI PUSH2 0x4699 DUP2 PUSH2 0x457C JUMP JUMPDEST PUSH2 0x46A2 DUP5 PUSH2 0x458E JUMP JUMPDEST DUP2 ADD PUSH1 0x20 DUP6 LT ISZERO PUSH2 0x46B1 JUMPI DUP2 SWAP1 POP JUMPDEST PUSH2 0x46C5 PUSH2 0x46BD DUP6 PUSH2 0x458E JUMP JUMPDEST DUP4 ADD DUP3 PUSH2 0x4665 JUMP JUMPDEST POP POP JUMPDEST POP POP POP JUMP JUMPDEST PUSH0 DUP3 DUP3 SHR SWAP1 POP SWAP3 SWAP2 POP POP JUMP JUMPDEST PUSH0 PUSH2 0x46E8 PUSH0 NOT DUP5 PUSH1 0x8 MUL PUSH2 0x46CD JUMP JUMPDEST NOT DUP1 DUP4 AND SWAP2 POP POP SWAP3 SWAP2 POP POP JUMP JUMPDEST PUSH0 PUSH2 0x4700 DUP4 DUP4 PUSH2 0x46D9 JUMP JUMPDEST SWAP2 POP DUP3 PUSH1 0x2 MUL DUP3 OR SWAP1 POP SWAP3 SWAP2 POP POP JUMP JUMPDEST PUSH2 0x4719 DUP3 PUSH2 0x37DF JUMP JUMPDEST PUSH8 0xFFFFFFFFFFFFFFFF DUP2 GT ISZERO PUSH2 0x4732 JUMPI PUSH2 0x4731 PUSH2 0x454F JUMP JUMPDEST JUMPDEST PUSH2 0x473C DUP3 SLOAD PUSH2 0x4359 JUMP JUMPDEST PUSH2 0x4747 DUP3 DUP3 DUP6 PUSH2 0x4687 JUMP JUMPDEST PUSH0 PUSH1 0x20 SWAP1 POP PUSH1 0x1F DUP4 GT PUSH1 0x1 DUP2 EQ PUSH2 0x4778 JUMPI PUSH0 DUP5 ISZERO PUSH2 0x4766 JUMPI DUP3 DUP8 ADD MLOAD SWAP1 POP JUMPDEST PUSH2 0x4770 DUP6 DUP3 PUSH2 0x46F5 JUMP JUMPDEST DUP7 SSTORE POP PUSH2 0x47D7 JUMP JUMPDEST PUSH1 0x1F NOT DUP5 AND PUSH2 0x4786 DUP7 PUSH2 0x457C JUMP JUMPDEST PUSH0 JUMPDEST DUP3 DUP2 LT ISZERO PUSH2 0x47AD JUMPI DUP5 DUP10 ADD MLOAD DUP3 SSTORE PUSH1 0x1 DUP3 ADD SWAP2 POP PUSH1 0x20 DUP6 ADD SWAP5 POP PUSH1 0x20 DUP2 ADD SWAP1 POP PUSH2 0x4788 JUMP JUMPDEST DUP7 DUP4 LT ISZERO PUSH2 0x47CA JUMPI DUP5 DUP10 ADD MLOAD PUSH2 0x47C6 PUSH1 0x1F DUP10 AND DUP3 PUSH2 0x46D9 JUMP JUMPDEST DUP4 SSTORE POP JUMPDEST PUSH1 0x1 PUSH1 0x2 DUP9 MUL ADD DUP9 SSTORE POP POP POP JUMPDEST POP POP POP POP POP POP JUMP JUMPDEST PUSH0 DUP3 SWAP1 POP SWAP3 SWAP2 POP POP JUMP JUMPDEST PUSH2 0x47F3 DUP4 DUP4 PUSH2 0x47DF JUMP JUMPDEST PUSH8 0xFFFFFFFFFFFFFFFF DUP2 GT ISZERO PUSH2 0x480C JUMPI PUSH2 0x480B PUSH2 0x454F JUMP JUMPDEST JUMPDEST PUSH2 0x4816 DUP3 SLOAD PUSH2 0x4359 JUMP JUMPDEST PUSH2 0x4821 DUP3 DUP3 DUP6 PUSH2 0x4687 JUMP JUMPDEST PUSH0 PUSH1 0x1F DUP4 GT PUSH1 0x1 DUP2 EQ PUSH2 0x484E JUMPI PUSH0 DUP5 ISZERO PUSH2 0x483C JUMPI DUP3 DUP8 ADD CALLDATALOAD SWAP1 POP JUMPDEST PUSH2 0x4846 DUP6 DUP3 PUSH2 0x46F5 JUMP JUMPDEST DUP7 SSTORE POP PUSH2 0x48AD JUMP JUMPDEST PUSH1 0x1F NOT DUP5 AND PUSH2 0x485C DUP7 PUSH2 0x457C JUMP JUMPDEST PUSH0 JUMPDEST DUP3 DUP2 LT ISZERO PUSH2 0x4883 JUMPI DUP5 DUP10 ADD CALLDATALOAD DUP3 SSTORE PUSH1 0x1 DUP3 ADD SWAP2 POP PUSH1 0x20 DUP6 ADD SWAP5 POP PUSH1 0x20 DUP2 ADD SWAP1 POP PUSH2 0x485E JUMP JUMPDEST DUP7 DUP4 LT ISZERO PUSH2 0x48A0 JUMPI DUP5 DUP10 ADD CALLDATALOAD PUSH2 0x489C PUSH1 0x1F DUP10 AND DUP3 PUSH2 0x46D9 JUMP JUMPDEST DUP4 SSTORE POP JUMPDEST PUSH1 0x1 PUSH1 0x2 DUP9 MUL ADD DUP9 SSTORE POP POP POP JUMPDEST POP POP POP POP POP POP POP JUMP JUMPDEST PUSH32 0x496E76616C6964206E6577206F776E6572000000000000000000000000000000 PUSH0 DUP3 ADD MSTORE POP JUMP JUMPDEST PUSH0 PUSH2 0x48EA PUSH1 0x11 DUP4 PUSH2 0x4041 JUMP JUMPDEST SWAP2 POP PUSH2 0x48F5 DUP3 PUSH2 0x48B6 JUMP JUMPDEST PUSH1 0x20 DUP3 ADD SWAP1 POP SWAP2 SWAP1 POP JUMP JUMPDEST PUSH0 PUSH1 0x20 DUP3 ADD SWAP1 POP DUP2 DUP2 SUB PUSH0 DUP4 ADD MSTORE PUSH2 0x4917 DUP2 PUSH2 0x48DE JUMP JUMPDEST SWAP1 POP SWAP2 SWAP1 POP JUMP JUMPDEST PUSH32 0x4E6577206F776E6572206D75737420686176652057414C4C5F4F574E45525F52 PUSH0 DUP3 ADD MSTORE PUSH32 0x4F4C450000000000000000000000000000000000000000000000000000000000 PUSH1 0x20 DUP3 ADD MSTORE POP JUMP JUMPDEST PUSH0 PUSH2 0x4978 PUSH1 0x23 DUP4 PUSH2 0x4041 JUMP JUMPDEST SWAP2 POP PUSH2 0x4983 DUP3 PUSH2 0x491E JUMP JUMPDEST PUSH1 0x40 DUP3 ADD SWAP1 POP SWAP2 SWAP1 POP JUMP JUMPDEST PUSH0 PUSH1 0x20 DUP3 ADD SWAP1 POP DUP2 DUP2 SUB PUSH0 DUP4 ADD MSTORE PUSH2 0x49A5 DUP2 PUSH2 0x496C JUMP JUMPDEST SWAP1 POP SWAP2 SWAP1 POP JUMP JUMPDEST PUSH32 0x52657175657374206E6F742070656E64696E6700000000000000000000000000 PUSH0 DUP3 ADD MSTORE POP JUMP JUMPDEST PUSH0 PUSH2 0x49E0 PUSH1 0x13 DUP4 PUSH2 0x4041 JUMP JUMPDEST SWAP2 POP PUSH2 0x49EB DUP3 PUSH2 0x49AC JUMP JUMPDEST PUSH1 0x20 DUP3 ADD SWAP1 POP SWAP2 SWAP1 POP JUMP JUMPDEST PUSH0 PUSH1 0x20 DUP3 ADD SWAP1 POP DUP2 DUP2 SUB PUSH0 DUP4 ADD MSTORE PUSH2 0x4A0D DUP2 PUSH2 0x49D4 JUMP JUMPDEST SWAP1 POP SWAP2 SWAP1 POP JUMP JUMPDEST PUSH32 0x526571756573746572206D757374206D61696E7461696E2057414C4C5F4F574E PUSH0 DUP3 ADD MSTORE PUSH32 0x45525F524F4C4500000000000000000000000000000000000000000000000000 PUSH1 0x20 DUP3 ADD MSTORE POP JUMP JUMPDEST PUSH0 PUSH2 0x4A6E PUSH1 0x27 DUP4 PUSH2 0x4041 JUMP JUMPDEST SWAP2 POP PUSH2 0x4A79 DUP3 PUSH2 0x4A14 JUMP JUMPDEST PUSH1 0x40 DUP3 ADD SWAP1 POP SWAP2 SWAP1 POP JUMP JUMPDEST PUSH0 PUSH1 0x20 DUP3 ADD SWAP1 POP DUP2 DUP2 SUB PUSH0 DUP4 ADD MSTORE PUSH2 0x4A9B DUP2 PUSH2 0x4A62 JUMP JUMPDEST SWAP1 POP SWAP2 SWAP1 POP JUMP JUMPDEST PUSH32 0x4F6E6C792067616C6C65727920636F6E74726163742063616E2063616C6C0000 PUSH0 DUP3 ADD MSTORE POP JUMP JUMPDEST PUSH0 PUSH2 0x4AD6 PUSH1 0x1E DUP4 PUSH2 0x4041 JUMP JUMPDEST SWAP2 POP PUSH2 0x4AE1 DUP3 PUSH2 0x4AA2 JUMP JUMPDEST PUSH1 0x20 DUP3 ADD SWAP1 POP SWAP2 SWAP1 POP JUMP JUMPDEST PUSH0 PUSH1 0x20 DUP3 ADD SWAP1 POP DUP2 DUP2 SUB PUSH0 DUP4 ADD MSTORE PUSH2 0x4B03 DUP2 PUSH2 0x4ACA JUMP JUMPDEST SWAP1 POP SWAP2 SWAP1 POP JUMP JUMPDEST PUSH32 0x5061757361626C653A2070617573656400000000000000000000000000000000 PUSH0 DUP3 ADD MSTORE POP JUMP JUMPDEST PUSH0 PUSH2 0x4B3E PUSH1 0x10 DUP4 PUSH2 0x4041 JUMP JUMPDEST SWAP2 POP PUSH2 0x4B49 DUP3 PUSH2 0x4B0A JUMP JUMPDEST PUSH1 0x20 DUP3 ADD SWAP1 POP SWAP2 SWAP1 POP JUMP JUMPDEST PUSH0 PUSH1 0x20 DUP3 ADD SWAP1 POP DUP2 DUP2 SUB PUSH0 DUP4 ADD MSTORE PUSH2 0x4B6B DUP2 PUSH2 0x4B32 JUMP JUMPDEST SWAP1 POP SWAP2 SWAP1 POP JUMP JUMPDEST PUSH32 0x4E487B7100000000000000000000000000000000000000000000000000000000 PUSH0 MSTORE PUSH1 0x32 PUSH1 0x4 MSTORE PUSH1 0x24 PUSH0 REVERT JUMPDEST PUSH32 0x4E487B7100000000000000000000000000000000000000000000000000000000 PUSH0 MSTORE PUSH1 0x11 PUSH1 0x4 MSTORE PUSH1 0x24 PUSH0 REVERT JUMPDEST PUSH0 PUSH2 0x4BD6 DUP3 PUSH2 0x36CE JUMP JUMPDEST SWAP2 POP PUSH2 0x4BE1 DUP4 PUSH2 0x36CE JUMP JUMPDEST SWAP3 POP DUP3 DUP3 SUB SWAP1 POP DUP2 DUP2 GT ISZERO PUSH2 0x4BF9 JUMPI PUSH2 0x4BF8 PUSH2 0x4B9F JUMP JUMPDEST JUMPDEST SWAP3 SWAP2 POP POP JUMP JUMPDEST PUSH32 0x4E487B7100000000000000000000000000000000000000000000000000000000 PUSH0 MSTORE PUSH1 0x31 PUSH1 0x4 MSTORE PUSH1 0x24 PUSH0 REVERT JUMPDEST PUSH0 PUSH2 0x4C36 DUP3 PUSH2 0x36CE JUMP JUMPDEST SWAP2 POP PUSH32 0xFFFFFFFFFFFFFFFFFFFFFFFFFFFFFFFFFFFFFFFFFFFFFFFFFFFFFFFFFFFFFFFF DUP3 SUB PUSH2 0x4C68 JUMPI PUSH2 0x4C67 PUSH2 0x4B9F JUMP JUMPDEST JUMPDEST PUSH1 0x1 DUP3 ADD SWAP1 POP SWAP2 SWAP1 POP JUMP JUMPDEST PUSH32 0x5061757361626C653A206E6F7420706175736564000000000000000000000000 PUSH0 DUP3 ADD MSTORE POP JUMP JUMPDEST PUSH0 PUSH2 0x4CA7 PUSH1 0x14 DUP4 PUSH2 0x4041 JUMP JUMPDEST SWAP2 POP PUSH2 0x4CB2 DUP3 PUSH2 0x4C73 JUMP JUMPDEST PUSH1 0x20 DUP3 ADD SWAP1 POP SWAP2 SWAP1 POP JUMP JUMPDEST PUSH0 PUSH1 0x20 DUP3 ADD SWAP1 POP DUP2 DUP2 SUB PUSH0 DUP4 ADD MSTORE PUSH2 0x4CD4 DUP2 PUSH2 0x4C9B JUMP JUMPDEST SWAP1 POP SWAP2 SWAP1 POP JUMP INVALID LOG2 PUSH5 0x6970667358 0x22 SLT KECCAK256 PUSH26 0xD698E11CDA940171D85298FE6106083CA2791F64B53681187401 PUSH30 0x1C668C4664736F6C63430008140033000000000000000000000000000000 "
				},
				"gasEstimates": {
					"creation": {
						"codeDepositCost": "3945800",
						"executionCost": "infinite",
						"totalCost": "infinite"
					},
					"external": {
						"approveWallRequest(uint256)": "infinite",
						"galleryContract()": "2647",
						"getPendingRequests()": "infinite",
						"getWall(uint256)": "infinite",
						"getWallsByOwner(address)": "infinite",
						"ownerWalls(address,uint256)": "infinite",
						"pause()": "infinite",
						"paused()": "2518",
						"pendingWallRequests(uint256)": "infinite",
						"rejectWallRequest(uint256)": "infinite",
						"requestWall(string,string,string,int256,int256,uint256,uint256)": "infinite",
						"roleManager()": "infinite",
						"setGalleryContract(address)": "infinite",
						"setGalleryStatus(uint256,uint256,bool)": "infinite",
						"setOwnershipPercentage(uint256,uint256)": "infinite",
						"transferWall(uint256,address)": "infinite",
						"unpause()": "infinite",
						"updateWall(uint256,string,string,string,int256,int256,uint256)": "infinite",
						"wallRequests(uint256)": "infinite",
						"walls(uint256)": "infinite"
					},
					"internal": {
						"_getNextWallId()": "26435",
						"_removeFromPendingRequests(uint256)": "infinite",
						"_removeWallFromOwner(uint256,address)": "infinite"
					}
				},
				"methodIdentifiers": {
					"approveWallRequest(uint256)": "cb3de478",
					"galleryContract()": "71d24b70",
					"getPendingRequests()": "80a1f712",
					"getWall(uint256)": "ff91e489",
					"getWallsByOwner(address)": "efc953ef",
					"ownerWalls(address,uint256)": "6f725c13",
					"pause()": "8456cb59",
					"paused()": "5c975abb",
					"pendingWallRequests(uint256)": "da817a24",
					"rejectWallRequest(uint256)": "f64fee98",
					"requestWall(string,string,string,int256,int256,uint256,uint256)": "9f754aad",
					"roleManager()": "00435da5",
					"setGalleryContract(address)": "2b41c0e0",
					"setGalleryStatus(uint256,uint256,bool)": "ce290e1d",
					"setOwnershipPercentage(uint256,uint256)": "042aa220",
					"transferWall(uint256,address)": "a1519b11",
					"unpause()": "3f4ba83a",
					"updateWall(uint256,string,string,string,int256,int256,uint256)": "9fd199f6",
					"wallRequests(uint256)": "44ee00b7",
					"walls(uint256)": "550a3dba"
				}
			},
			"storageLayout": {
				"storage": [
					{
						"astId": 17,
						"contract": "WallContract.sol:Wall",
						"label": "_paused",
						"offset": 0,
						"slot": "0",
						"type": "t_bool"
					},
					{
						"astId": 239,
						"contract": "WallContract.sol:Wall",
						"label": "galleryContract",
						"offset": 1,
						"slot": "0",
						"type": "t_address"
					},
					{
						"astId": 246,
						"contract": "WallContract.sol:Wall",
						"label": "roleManager",
						"offset": 0,
						"slot": "1",
						"type": "t_contract(IRoleManager)235"
					},
					{
						"astId": 249,
						"contract": "WallContract.sol:Wall",
						"label": "_wallIds",
						"offset": 0,
						"slot": "2",
						"type": "t_struct(Counter)143_storage"
					},
					{
						"astId": 299,
						"contract": "WallContract.sol:Wall",
						"label": "walls",
						"offset": 0,
						"slot": "3",
						"type": "t_mapping(t_uint256,t_struct(WallData)280_storage)"
					},
					{
						"astId": 304,
						"contract": "WallContract.sol:Wall",
						"label": "wallRequests",
						"offset": 0,
						"slot": "4",
						"type": "t_mapping(t_uint256,t_struct(WallRequest)294_storage)"
					},
					{
						"astId": 309,
						"contract": "WallContract.sol:Wall",
						"label": "ownerWalls",
						"offset": 0,
						"slot": "5",
						"type": "t_mapping(t_address,t_array(t_uint256)dyn_storage)"
					},
					{
						"astId": 312,
						"contract": "WallContract.sol:Wall",
						"label": "pendingWallRequests",
						"offset": 0,
						"slot": "6",
						"type": "t_array(t_uint256)dyn_storage"
					}
				],
				"types": {
					"t_address": {
						"encoding": "inplace",
						"label": "address",
						"numberOfBytes": "20"
					},
					"t_array(t_uint256)dyn_storage": {
						"base": "t_uint256",
						"encoding": "dynamic_array",
						"label": "uint256[]",
						"numberOfBytes": "32"
					},
					"t_bool": {
						"encoding": "inplace",
						"label": "bool",
						"numberOfBytes": "1"
					},
					"t_contract(IRoleManager)235": {
						"encoding": "inplace",
						"label": "contract IRoleManager",
						"numberOfBytes": "20"
					},
					"t_int256": {
						"encoding": "inplace",
						"label": "int256",
						"numberOfBytes": "32"
					},
					"t_mapping(t_address,t_array(t_uint256)dyn_storage)": {
						"encoding": "mapping",
						"key": "t_address",
						"label": "mapping(address => uint256[])",
						"numberOfBytes": "32",
						"value": "t_array(t_uint256)dyn_storage"
					},
					"t_mapping(t_uint256,t_struct(WallData)280_storage)": {
						"encoding": "mapping",
						"key": "t_uint256",
						"label": "mapping(uint256 => struct Wall.WallData)",
						"numberOfBytes": "32",
						"value": "t_struct(WallData)280_storage"
					},
					"t_mapping(t_uint256,t_struct(WallRequest)294_storage)": {
						"encoding": "mapping",
						"key": "t_uint256",
						"label": "mapping(uint256 => struct Wall.WallRequest)",
						"numberOfBytes": "32",
						"value": "t_struct(WallRequest)294_storage"
					},
					"t_string_storage": {
						"encoding": "bytes",
						"label": "string",
						"numberOfBytes": "32"
					},
					"t_struct(Counter)143_storage": {
						"encoding": "inplace",
						"label": "struct Counters.Counter",
						"members": [
							{
								"astId": 142,
								"contract": "WallContract.sol:Wall",
								"label": "_value",
								"offset": 0,
								"slot": "0",
								"type": "t_uint256"
							}
						],
						"numberOfBytes": "32"
					},
					"t_struct(Location)260_storage": {
						"encoding": "inplace",
						"label": "struct Wall.Location",
						"members": [
							{
								"astId": 251,
								"contract": "WallContract.sol:Wall",
								"label": "country",
								"offset": 0,
								"slot": "0",
								"type": "t_string_storage"
							},
							{
								"astId": 253,
								"contract": "WallContract.sol:Wall",
								"label": "city",
								"offset": 0,
								"slot": "1",
								"type": "t_string_storage"
							},
							{
								"astId": 255,
								"contract": "WallContract.sol:Wall",
								"label": "physicalAddress",
								"offset": 0,
								"slot": "2",
								"type": "t_string_storage"
							},
							{
								"astId": 257,
								"contract": "WallContract.sol:Wall",
								"label": "longitude",
								"offset": 0,
								"slot": "3",
								"type": "t_int256"
							},
							{
								"astId": 259,
								"contract": "WallContract.sol:Wall",
								"label": "latitude",
								"offset": 0,
								"slot": "4",
								"type": "t_int256"
							}
						],
						"numberOfBytes": "160"
					},
					"t_struct(WallData)280_storage": {
						"encoding": "inplace",
						"label": "struct Wall.WallData",
						"members": [
							{
								"astId": 262,
								"contract": "WallContract.sol:Wall",
								"label": "id",
								"offset": 0,
								"slot": "0",
								"type": "t_uint256"
							},
							{
								"astId": 264,
								"contract": "WallContract.sol:Wall",
								"label": "owner",
								"offset": 0,
								"slot": "1",
								"type": "t_address"
							},
							{
								"astId": 267,
								"contract": "WallContract.sol:Wall",
								"label": "location",
								"offset": 0,
								"slot": "2",
								"type": "t_struct(Location)260_storage"
							},
							{
								"astId": 269,
								"contract": "WallContract.sol:Wall",
								"label": "size",
								"offset": 0,
								"slot": "7",
								"type": "t_uint256"
							},
							{
								"astId": 271,
								"contract": "WallContract.sol:Wall",
								"label": "ownershipPercentage",
								"offset": 0,
								"slot": "8",
								"type": "t_uint256"
							},
							{
								"astId": 273,
								"contract": "WallContract.sol:Wall",
								"label": "isInGallery",
								"offset": 0,
								"slot": "9",
								"type": "t_bool"
							},
							{
								"astId": 275,
								"contract": "WallContract.sol:Wall",
								"label": "galleryId",
								"offset": 0,
								"slot": "10",
								"type": "t_uint256"
							},
							{
								"astId": 277,
								"contract": "WallContract.sol:Wall",
								"label": "createdAt",
								"offset": 0,
								"slot": "11",
								"type": "t_uint256"
							},
							{
								"astId": 279,
								"contract": "WallContract.sol:Wall",
								"label": "lastUpdated",
								"offset": 0,
								"slot": "12",
								"type": "t_uint256"
							}
						],
						"numberOfBytes": "416"
					},
					"t_struct(WallRequest)294_storage": {
						"encoding": "inplace",
						"label": "struct Wall.WallRequest",
						"members": [
							{
								"astId": 282,
								"contract": "WallContract.sol:Wall",
								"label": "requester",
								"offset": 0,
								"slot": "0",
								"type": "t_address"
							},
							{
								"astId": 285,
								"contract": "WallContract.sol:Wall",
								"label": "location",
								"offset": 0,
								"slot": "1",
								"type": "t_struct(Location)260_storage"
							},
							{
								"astId": 287,
								"contract": "WallContract.sol:Wall",
								"label": "size",
								"offset": 0,
								"slot": "6",
								"type": "t_uint256"
							},
							{
								"astId": 289,
								"contract": "WallContract.sol:Wall",
								"label": "ownershipPercentage",
								"offset": 0,
								"slot": "7",
								"type": "t_uint256"
							},
							{
								"astId": 291,
								"contract": "WallContract.sol:Wall",
								"label": "pending",
								"offset": 0,
								"slot": "8",
								"type": "t_bool"
							},
							{
								"astId": 293,
								"contract": "WallContract.sol:Wall",
								"label": "approved",
								"offset": 1,
								"slot": "8",
								"type": "t_bool"
							}
						],
						"numberOfBytes": "288"
					},
					"t_uint256": {
						"encoding": "inplace",
						"label": "uint256",
						"numberOfBytes": "32"
					}
				}
			},
			"userdoc": {
				"kind": "user",
				"methods": {},
				"version": 1
			}
		}
	}
}