{
	"Rolemanager.sol": {
		"RoleManager": {
			"abi": [
				{
					"inputs": [],
					"stateMutability": "nonpayable",
					"type": "constructor"
				},
				{
					"inputs": [],
					"name": "AccessControlBadConfirmation",
					"type": "error"
				},
				{
					"inputs": [
						{
							"internalType": "address",
							"name": "account",
							"type": "address"
						},
						{
							"internalType": "bytes32",
							"name": "neededRole",
							"type": "bytes32"
						}
					],
					"name": "AccessControlUnauthorizedAccount",
					"type": "error"
				},
				{
					"anonymous": false,
					"inputs": [
						{
							"indexed": false,
							"internalType": "address",
							"name": "account",
							"type": "address"
						}
					],
					"name": "Paused",
					"type": "event"
				},
				{
					"anonymous": false,
					"inputs": [
						{
							"indexed": true,
							"internalType": "bytes32",
							"name": "role",
							"type": "bytes32"
						},
						{
							"indexed": true,
							"internalType": "bytes32",
							"name": "previousAdminRole",
							"type": "bytes32"
						},
						{
							"indexed": true,
							"internalType": "bytes32",
							"name": "newAdminRole",
							"type": "bytes32"
						}
					],
					"name": "RoleAdminChanged",
					"type": "event"
				},
				{
					"anonymous": false,
					"inputs": [
						{
							"indexed": true,
							"internalType": "address",
							"name": "user",
							"type": "address"
						},
						{
							"indexed": true,
							"internalType": "bytes32",
							"name": "role",
							"type": "bytes32"
						}
					],
					"name": "RoleAssigned",
					"type": "event"
				},
				{
					"anonymous": false,
					"inputs": [
						{
							"indexed": true,
							"internalType": "bytes32",
							"name": "role",
							"type": "bytes32"
						},
						{
							"indexed": true,
							"internalType": "address",
							"name": "account",
							"type": "address"
						},
						{
							"indexed": true,
							"internalType": "address",
							"name": "sender",
							"type": "address"
						}
					],
					"name": "RoleGranted",
					"type": "event"
				},
				{
					"anonymous": false,
					"inputs": [
						{
							"indexed": true,
							"internalType": "address",
							"name": "requester",
							"type": "address"
						},
						{
							"indexed": true,
							"internalType": "bytes32",
							"name": "role",
							"type": "bytes32"
						}
					],
					"name": "RoleRequestApproved",
					"type": "event"
				},
				{
					"anonymous": false,
					"inputs": [
						{
							"indexed": true,
							"internalType": "address",
							"name": "requester",
							"type": "address"
						},
						{
							"indexed": true,
							"internalType": "bytes32",
							"name": "role",
							"type": "bytes32"
						}
					],
					"name": "RoleRequestRejected",
					"type": "event"
				},
				{
					"anonymous": false,
					"inputs": [
						{
							"indexed": true,
							"internalType": "address",
							"name": "requester",
							"type": "address"
						},
						{
							"indexed": true,
							"internalType": "bytes32",
							"name": "role",
							"type": "bytes32"
						},
						{
							"indexed": false,
							"internalType": "string",
							"name": "reason",
							"type": "string"
						}
					],
					"name": "RoleRequested",
					"type": "event"
				},
				{
					"anonymous": false,
					"inputs": [
						{
							"indexed": true,
							"internalType": "bytes32",
							"name": "role",
							"type": "bytes32"
						},
						{
							"indexed": true,
							"internalType": "address",
							"name": "account",
							"type": "address"
						},
						{
							"indexed": true,
							"internalType": "address",
							"name": "sender",
							"type": "address"
						}
					],
					"name": "RoleRevoked",
					"type": "event"
				},
				{
					"anonymous": false,
					"inputs": [
						{
							"indexed": true,
							"internalType": "address",
							"name": "user",
							"type": "address"
						},
						{
							"indexed": true,
							"internalType": "bytes32",
							"name": "role",
							"type": "bytes32"
						}
					],
					"name": "RoleRevoked",
					"type": "event"
				},
				{
					"anonymous": false,
					"inputs": [
						{
							"indexed": false,
							"internalType": "address",
							"name": "account",
							"type": "address"
						}
					],
					"name": "Unpaused",
					"type": "event"
				},
				{
					"inputs": [],
					"name": "ADMIN_ROLE",
					"outputs": [
						{
							"internalType": "bytes32",
							"name": "",
							"type": "bytes32"
						}
					],
					"stateMutability": "view",
					"type": "function"
				},
				{
					"inputs": [],
					"name": "DEFAULT_ADMIN_ROLE",
					"outputs": [
						{
							"internalType": "bytes32",
							"name": "",
							"type": "bytes32"
						}
					],
					"stateMutability": "view",
					"type": "function"
				},
				{
					"inputs": [],
					"name": "GALLERY_OWNER_ROLE",
					"outputs": [
						{
							"internalType": "bytes32",
							"name": "",
							"type": "bytes32"
						}
					],
					"stateMutability": "view",
					"type": "function"
				},
				{
					"inputs": [],
					"name": "PAINTER_ROLE",
					"outputs": [
						{
							"internalType": "bytes32",
							"name": "",
							"type": "bytes32"
						}
					],
					"stateMutability": "view",
					"type": "function"
				},
				{
					"inputs": [],
					"name": "SPONSOR_ROLE",
					"outputs": [
						{
							"internalType": "bytes32",
							"name": "",
							"type": "bytes32"
						}
					],
					"stateMutability": "view",
					"type": "function"
				},
				{
					"inputs": [],
					"name": "WALL_OWNER_ROLE",
					"outputs": [
						{
							"internalType": "bytes32",
							"name": "",
							"type": "bytes32"
						}
					],
					"stateMutability": "view",
					"type": "function"
				},
				{
					"inputs": [
						{
							"internalType": "address",
							"name": "_requester",
							"type": "address"
						},
						{
							"internalType": "bytes32",
							"name": "_role",
							"type": "bytes32"
						}
					],
					"name": "approveRoleRequest",
					"outputs": [],
					"stateMutability": "nonpayable",
					"type": "function"
				},
				{
					"inputs": [
						{
							"internalType": "address",
							"name": "_user",
							"type": "address"
						},
						{
							"internalType": "bytes32",
							"name": "_role",
							"type": "bytes32"
						}
					],
					"name": "assignRole",
					"outputs": [],
					"stateMutability": "nonpayable",
					"type": "function"
				},
				{
					"inputs": [],
					"name": "getPendingRequests",
					"outputs": [
						{
							"components": [
								{
									"internalType": "address",
									"name": "requester",
									"type": "address"
								},
								{
									"internalType": "bytes32",
									"name": "role",
									"type": "bytes32"
								},
								{
									"internalType": "string",
									"name": "reason",
									"type": "string"
								},
								{
									"internalType": "bool",
									"name": "pending",
									"type": "bool"
								},
								{
									"internalType": "bool",
									"name": "approved",
									"type": "bool"
								}
							],
							"internalType": "struct RoleManager.RoleRequest[]",
							"name": "",
							"type": "tuple[]"
						}
					],
					"stateMutability": "view",
					"type": "function"
				},
				{
					"inputs": [
						{
							"internalType": "bytes32",
							"name": "role",
							"type": "bytes32"
						}
					],
					"name": "getRoleAdmin",
					"outputs": [
						{
							"internalType": "bytes32",
							"name": "",
							"type": "bytes32"
						}
					],
					"stateMutability": "view",
					"type": "function"
				},
				{
					"inputs": [
						{
							"internalType": "address",
							"name": "_requester",
							"type": "address"
						},
						{
							"internalType": "bytes32",
							"name": "_role",
							"type": "bytes32"
						}
					],
					"name": "getRoleRequest",
					"outputs": [
						{
							"internalType": "address",
							"name": "requester",
							"type": "address"
						},
						{
							"internalType": "bytes32",
							"name": "role",
							"type": "bytes32"
						},
						{
							"internalType": "string",
							"name": "reason",
							"type": "string"
						},
						{
							"internalType": "bool",
							"name": "pending",
							"type": "bool"
						},
						{
							"internalType": "bool",
							"name": "approved",
							"type": "bool"
						}
					],
					"stateMutability": "view",
					"type": "function"
				},
				{
					"inputs": [
						{
							"internalType": "bytes32",
							"name": "role",
							"type": "bytes32"
						},
						{
							"internalType": "address",
							"name": "account",
							"type": "address"
						}
					],
					"name": "grantRole",
					"outputs": [],
					"stateMutability": "nonpayable",
					"type": "function"
				},
				{
					"inputs": [
						{
							"internalType": "bytes32",
							"name": "role",
							"type": "bytes32"
						},
						{
							"internalType": "address",
							"name": "account",
							"type": "address"
						}
					],
					"name": "hasRole",
					"outputs": [
						{
							"internalType": "bool",
							"name": "",
							"type": "bool"
						}
					],
					"stateMutability": "view",
					"type": "function"
				},
				{
					"inputs": [],
					"name": "pause",
					"outputs": [],
					"stateMutability": "nonpayable",
					"type": "function"
				},
				{
					"inputs": [],
					"name": "paused",
					"outputs": [
						{
							"internalType": "bool",
							"name": "",
							"type": "bool"
						}
					],
					"stateMutability": "view",
					"type": "function"
				},
				{
					"inputs": [
						{
							"internalType": "uint256",
							"name": "",
							"type": "uint256"
						}
					],
					"name": "pendingRequests",
					"outputs": [
						{
							"internalType": "address",
							"name": "requester",
							"type": "address"
						},
						{
							"internalType": "bytes32",
							"name": "role",
							"type": "bytes32"
						},
						{
							"internalType": "string",
							"name": "reason",
							"type": "string"
						},
						{
							"internalType": "bool",
							"name": "pending",
							"type": "bool"
						},
						{
							"internalType": "bool",
							"name": "approved",
							"type": "bool"
						}
					],
					"stateMutability": "view",
					"type": "function"
				},
				{
					"inputs": [
						{
							"internalType": "address",
							"name": "_requester",
							"type": "address"
						},
						{
							"internalType": "bytes32",
							"name": "_role",
							"type": "bytes32"
						}
					],
					"name": "rejectRoleRequest",
					"outputs": [],
					"stateMutability": "nonpayable",
					"type": "function"
				},
				{
					"inputs": [
						{
							"internalType": "bytes32",
							"name": "role",
							"type": "bytes32"
						},
						{
							"internalType": "address",
							"name": "callerConfirmation",
							"type": "address"
						}
					],
					"name": "renounceRole",
					"outputs": [],
					"stateMutability": "nonpayable",
					"type": "function"
				},
				{
					"inputs": [
						{
							"internalType": "bytes32",
							"name": "_role",
							"type": "bytes32"
						},
						{
							"internalType": "string",
							"name": "_reason",
							"type": "string"
						}
					],
					"name": "requestRole",
					"outputs": [],
					"stateMutability": "nonpayable",
					"type": "function"
				},
				{
					"inputs": [
						{
							"internalType": "address",
							"name": "_user",
							"type": "address"
						},
						{
							"internalType": "bytes32",
							"name": "_role",
							"type": "bytes32"
						}
					],
					"name": "revokeRole",
					"outputs": [],
					"stateMutability": "nonpayable",
					"type": "function"
				},
				{
					"inputs": [
						{
							"internalType": "bytes32",
							"name": "role",
							"type": "bytes32"
						},
						{
							"internalType": "address",
							"name": "account",
							"type": "address"
						}
					],
					"name": "revokeRole",
					"outputs": [],
					"stateMutability": "nonpayable",
					"type": "function"
				},
				{
					"inputs": [
						{
							"internalType": "address",
							"name": "",
							"type": "address"
						},
						{
							"internalType": "bytes32",
							"name": "",
							"type": "bytes32"
						}
					],
					"name": "roleRequests",
					"outputs": [
						{
							"internalType": "address",
							"name": "requester",
							"type": "address"
						},
						{
							"internalType": "bytes32",
							"name": "role",
							"type": "bytes32"
						},
						{
							"internalType": "string",
							"name": "reason",
							"type": "string"
						},
						{
							"internalType": "bool",
							"name": "pending",
							"type": "bool"
						},
						{
							"internalType": "bool",
							"name": "approved",
							"type": "bool"
						}
					],
					"stateMutability": "view",
					"type": "function"
				},
				{
					"inputs": [
						{
							"internalType": "bytes4",
							"name": "interfaceId",
							"type": "bytes4"
						}
					],
					"name": "supportsInterface",
					"outputs": [
						{
							"internalType": "bool",
							"name": "",
							"type": "bool"
						}
					],
					"stateMutability": "view",
					"type": "function"
				},
				{
					"inputs": [],
					"name": "unpause",
					"outputs": [],
					"stateMutability": "nonpayable",
					"type": "function"
				}
			],
			"devdoc": {
				"errors": {
					"AccessControlBadConfirmation()": [
						{
							"details": "The caller of a function is not the expected one. NOTE: Don't confuse with {AccessControlUnauthorizedAccount}."
						}
					],
					"AccessControlUnauthorizedAccount(address,bytes32)": [
						{
							"details": "The `account` is missing a role."
						}
					]
				},
				"events": {
					"Paused(address)": {
						"details": "Emitted when the pause is triggered by `account`."
					},
					"RoleAdminChanged(bytes32,bytes32,bytes32)": {
						"details": "Emitted when `newAdminRole` is set as ``role``'s admin role, replacing `previousAdminRole` `DEFAULT_ADMIN_ROLE` is the starting admin for all roles, despite {RoleAdminChanged} not being emitted signaling this."
					},
					"RoleGranted(bytes32,address,address)": {
						"details": "Emitted when `account` is granted `role`. `sender` is the account that originated the contract call. This account bears the admin role (for the granted role). Expected in cases where the role was granted using the internal {AccessControl-_grantRole}."
					},
					"RoleRevoked(bytes32,address,address)": {
						"details": "Emitted when `account` is revoked `role`. `sender` is the account that originated the contract call:   - if using `revokeRole`, it is the admin role bearer   - if using `renounceRole`, it is the role bearer (i.e. `account`)"
					},
					"Unpaused(address)": {
						"details": "Emitted when the pause is lifted by `account`."
					}
				},
				"kind": "dev",
				"methods": {
					"approveRoleRequest(address,bytes32)": {
						"details": "Approve a role request",
						"params": {
							"_requester": "Address of the user who requested the role",
							"_role": "The role that was requested"
						}
					},
					"assignRole(address,bytes32)": {
						"details": "Directly assign a role (admin bypass)",
						"params": {
							"_role": "Role to assign",
							"_user": "Address to assign the role to"
						}
					},
					"getPendingRequests()": {
						"details": "Get all pending role requests"
					},
					"getRoleAdmin(bytes32)": {
						"details": "Returns the admin role that controls `role`. See {grantRole} and {revokeRole}. To change a role's admin, use {_setRoleAdmin}."
					},
					"getRoleRequest(address,bytes32)": {
						"details": "Get specific role request details"
					},
					"grantRole(bytes32,address)": {
						"details": "Grants `role` to `account`. If `account` had not been already granted `role`, emits a {RoleGranted} event. Requirements: - the caller must have ``role``'s admin role. May emit a {RoleGranted} event."
					},
					"hasRole(bytes32,address)": {
						"details": "Returns `true` if `account` has been granted `role`."
					},
					"paused()": {
						"details": "Returns true if the contract is paused, and false otherwise."
					},
					"rejectRoleRequest(address,bytes32)": {
						"details": "Reject a role request",
						"params": {
							"_requester": "Address of the user who requested the role",
							"_role": "The role that was requested"
						}
					},
					"renounceRole(bytes32,address)": {
						"details": "Revokes `role` from the calling account. Roles are often managed via {grantRole} and {revokeRole}: this function's purpose is to provide a mechanism for accounts to lose their privileges if they are compromised (such as when a trusted device is misplaced). If the calling account had been revoked `role`, emits a {RoleRevoked} event. Requirements: - the caller must be `callerConfirmation`. May emit a {RoleRevoked} event."
					},
					"requestRole(bytes32,string)": {
						"details": "Request a role with a reason",
						"params": {
							"_reason": "The reason for requesting the role",
							"_role": "The role being requested"
						}
					},
					"revokeRole(address,bytes32)": {
						"details": "Revoke a role",
						"params": {
							"_role": "Role to revoke",
							"_user": "Address to revoke the role from"
						}
					},
					"revokeRole(bytes32,address)": {
						"details": "Revokes `role` from `account`. If `account` had been granted `role`, emits a {RoleRevoked} event. Requirements: - the caller must have ``role``'s admin role. May emit a {RoleRevoked} event."
					},
					"supportsInterface(bytes4)": {
						"details": "See {IERC165-supportsInterface}."
					}
				},
				"version": 1
			},
			"evm": {
				"assembly": "    /* \"Rolemanager.sol\":179:6177  contract RoleManager is AccessControl, Pausable {... */\n  mstore(0x40, 0x80)\n    /* \"Rolemanager.sol\":1506:1626  constructor() {... */\n  callvalue\n  dup1\n  iszero\n  tag_1\n  jumpi\n  0x00\n  dup1\n  revert\ntag_1:\n  pop\n    /* \"@openzeppelin/contracts/security/Pausable.sol\":1006:1011  false */\n  0x00\n    /* \"@openzeppelin/contracts/security/Pausable.sol\":996:1003  _paused */\n  0x01\n  0x00\n    /* \"@openzeppelin/contracts/security/Pausable.sol\":996:1011  _paused = false */\n  0x0100\n  exp\n  dup2\n  sload\n  dup2\n  0xff\n  mul\n  not\n  and\n  swap1\n  dup4\n  iszero\n  iszero\n  mul\n  or\n  swap1\n  sstore\n  pop\n    /* \"Rolemanager.sol\":1531:1573  _grantRole(DEFAULT_ADMIN_ROLE, msg.sender) */\n  tag_6\n    /* \"@openzeppelin/contracts/access/AccessControl.sol\":2232:2236  0x00 */\n  0x00\n    /* \"Rolemanager.sol\":1542:1560  DEFAULT_ADMIN_ROLE */\n  dup1\n  shl\n    /* \"Rolemanager.sol\":1562:1572  msg.sender */\n  caller\n    /* \"Rolemanager.sol\":1531:1541  _grantRole */\n  shl(0x20, tag_7)\n    /* \"Rolemanager.sol\":1531:1573  _grantRole(DEFAULT_ADMIN_ROLE, msg.sender) */\n  0x20\n  shr\n  jump\t// in\ntag_6:\n  pop\n    /* \"Rolemanager.sol\":1584:1618  _grantRole(ADMIN_ROLE, msg.sender) */\n  tag_8\n    /* \"Rolemanager.sol\":296:319  keccak256(\"ADMIN_ROLE\") */\n  0xa49807205ce4d355092ef5a8a18f56e8913cf4a201fbe287825b095693c21775\n    /* \"Rolemanager.sol\":1607:1617  msg.sender */\n  caller\n    /* \"Rolemanager.sol\":1584:1594  _grantRole */\n  shl(0x20, tag_7)\n    /* \"Rolemanager.sol\":1584:1618  _grantRole(ADMIN_ROLE, msg.sender) */\n  0x20\n  shr\n  jump\t// in\ntag_8:\n  pop\n    /* \"Rolemanager.sol\":179:6177  contract RoleManager is AccessControl, Pausable {... */\n  jump(tag_9)\n    /* \"@openzeppelin/contracts/access/AccessControl.sol\":6179:6495  function _grantRole(bytes32 role, address account) internal virtual returns (bool) {... */\ntag_7:\n    /* \"@openzeppelin/contracts/access/AccessControl.sol\":6256:6260  bool */\n  0x00\n    /* \"@openzeppelin/contracts/access/AccessControl.sol\":6277:6299  hasRole(role, account) */\n  tag_11\n    /* \"@openzeppelin/contracts/access/AccessControl.sol\":6285:6289  role */\n  dup4\n    /* \"@openzeppelin/contracts/access/AccessControl.sol\":6291:6298  account */\n  dup4\n    /* \"@openzeppelin/contracts/access/AccessControl.sol\":6277:6284  hasRole */\n  shl(0x20, tag_12)\n    /* \"@openzeppelin/contracts/access/AccessControl.sol\":6277:6299  hasRole(role, account) */\n  0x20\n  shr\n  jump\t// in\ntag_11:\n    /* \"@openzeppelin/contracts/access/AccessControl.sol\":6272:6489  if (!hasRole(role, account)) {... */\n  tag_13\n  jumpi\n    /* \"@openzeppelin/contracts/access/AccessControl.sol\":6347:6351  true */\n  0x01\n    /* \"@openzeppelin/contracts/access/AccessControl.sol\":6315:6321  _roles */\n  0x00\n    /* \"@openzeppelin/contracts/access/AccessControl.sol\":6315:6327  _roles[role] */\n  dup1\n    /* \"@openzeppelin/contracts/access/AccessControl.sol\":6322:6326  role */\n  dup6\n    /* \"@openzeppelin/contracts/access/AccessControl.sol\":6315:6327  _roles[role] */\n  dup2\n  mstore\n  0x20\n  add\n  swap1\n  dup2\n  mstore\n  0x20\n  add\n  0x00\n  keccak256\n    /* \"@openzeppelin/contracts/access/AccessControl.sol\":6315:6335  _roles[role].hasRole */\n  0x00\n  add\n    /* \"@openzeppelin/contracts/access/AccessControl.sol\":6315:6344  _roles[role].hasRole[account] */\n  0x00\n    /* \"@openzeppelin/contracts/access/AccessControl.sol\":6336:6343  account */\n  dup5\n    /* \"@openzeppelin/contracts/access/AccessControl.sol\":6315:6344  _roles[role].hasRole[account] */\n  0xffffffffffffffffffffffffffffffffffffffff\n  and\n  0xffffffffffffffffffffffffffffffffffffffff\n  and\n  dup2\n  mstore\n  0x20\n  add\n  swap1\n  dup2\n  mstore\n  0x20\n  add\n  0x00\n  keccak256\n  0x00\n    /* \"@openzeppelin/contracts/access/AccessControl.sol\":6315:6351  _roles[role].hasRole[account] = true */\n  0x0100\n  exp\n  dup2\n  sload\n  dup2\n  0xff\n  mul\n  not\n  and\n  swap1\n  dup4\n  iszero\n  iszero\n  mul\n  or\n  swap1\n  sstore\n  pop\n    /* \"@openzeppelin/contracts/access/AccessControl.sol\":6397:6409  _msgSender() */\n  tag_14\n    /* \"@openzeppelin/contracts/access/AccessControl.sol\":6397:6407  _msgSender */\n  shl(0x20, tag_15)\n    /* \"@openzeppelin/contracts/access/AccessControl.sol\":6397:6409  _msgSender() */\n  0x20\n  shr\n  jump\t// in\ntag_14:\n    /* \"@openzeppelin/contracts/access/AccessControl.sol\":6370:6410  RoleGranted(role, account, _msgSender()) */\n  0xffffffffffffffffffffffffffffffffffffffff\n  and\n    /* \"@openzeppelin/contracts/access/AccessControl.sol\":6388:6395  account */\n  dup3\n    /* \"@openzeppelin/contracts/access/AccessControl.sol\":6370:6410  RoleGranted(role, account, _msgSender()) */\n  0xffffffffffffffffffffffffffffffffffffffff\n  and\n    /* \"@openzeppelin/contracts/access/AccessControl.sol\":6382:6386  role */\n  dup5\n    /* \"@openzeppelin/contracts/access/AccessControl.sol\":6370:6410  RoleGranted(role, account, _msgSender()) */\n  0x2f8788117e7eff1d82e926ec794901d17c78024a50270940304540a733656f0d\n  mload(0x40)\n  mload(0x40)\n  dup1\n  swap2\n  sub\n  swap1\n  log4\n    /* \"@openzeppelin/contracts/access/AccessControl.sol\":6431:6435  true */\n  0x01\n    /* \"@openzeppelin/contracts/access/AccessControl.sol\":6424:6435  return true */\n  swap1\n  pop\n  jump(tag_10)\n    /* \"@openzeppelin/contracts/access/AccessControl.sol\":6272:6489  if (!hasRole(role, account)) {... */\ntag_13:\n    /* \"@openzeppelin/contracts/access/AccessControl.sol\":6473:6478  false */\n  0x00\n    /* \"@openzeppelin/contracts/access/AccessControl.sol\":6466:6478  return false */\n  swap1\n  pop\n    /* \"@openzeppelin/contracts/access/AccessControl.sol\":6179:6495  function _grantRole(bytes32 role, address account) internal virtual returns (bool) {... */\ntag_10:\n  swap3\n  swap2\n  pop\n  pop\n  jump\t// out\n    /* \"@openzeppelin/contracts/access/AccessControl.sol\":2854:2990  function hasRole(bytes32 role, address account) public view virtual returns (bool) {... */\ntag_12:\n    /* \"@openzeppelin/contracts/access/AccessControl.sol\":2931:2935  bool */\n  0x00\n    /* \"@openzeppelin/contracts/access/AccessControl.sol\":2954:2960  _roles */\n  dup1\n    /* \"@openzeppelin/contracts/access/AccessControl.sol\":2954:2966  _roles[role] */\n  0x00\n    /* \"@openzeppelin/contracts/access/AccessControl.sol\":2961:2965  role */\n  dup5\n    /* \"@openzeppelin/contracts/access/AccessControl.sol\":2954:2966  _roles[role] */\n  dup2\n  mstore\n  0x20\n  add\n  swap1\n  dup2\n  mstore\n  0x20\n  add\n  0x00\n  keccak256\n    /* \"@openzeppelin/contracts/access/AccessControl.sol\":2954:2974  _roles[role].hasRole */\n  0x00\n  add\n    /* \"@openzeppelin/contracts/access/AccessControl.sol\":2954:2983  _roles[role].hasRole[account] */\n  0x00\n    /* \"@openzeppelin/contracts/access/AccessControl.sol\":2975:2982  account */\n  dup4\n    /* \"@openzeppelin/contracts/access/AccessControl.sol\":2954:2983  _roles[role].hasRole[account] */\n  0xffffffffffffffffffffffffffffffffffffffff\n  and\n  0xffffffffffffffffffffffffffffffffffffffff\n  and\n  dup2\n  mstore\n  0x20\n  add\n  swap1\n  dup2\n  mstore\n  0x20\n  add\n  0x00\n  keccak256\n  0x00\n  swap1\n  sload\n  swap1\n  0x0100\n  exp\n  swap1\n  div\n  0xff\n  and\n    /* \"@openzeppelin/contracts/access/AccessControl.sol\":2947:2983  return _roles[role].hasRole[account] */\n  swap1\n  pop\n    /* \"@openzeppelin/contracts/access/AccessControl.sol\":2854:2990  function hasRole(bytes32 role, address account) public view virtual returns (bool) {... */\n  swap3\n  swap2\n  pop\n  pop\n  jump\t// out\n    /* \"@openzeppelin/contracts/utils/Context.sol\":656:752  function _msgSender() internal view virtual returns (address) {... */\ntag_15:\n    /* \"@openzeppelin/contracts/utils/Context.sol\":709:716  address */\n  0x00\n    /* \"@openzeppelin/contracts/utils/Context.sol\":735:745  msg.sender */\n  caller\n    /* \"@openzeppelin/contracts/utils/Context.sol\":728:745  return msg.sender */\n  swap1\n  pop\n    /* \"@openzeppelin/contracts/utils/Context.sol\":656:752  function _msgSender() internal view virtual returns (address) {... */\n  swap1\n  jump\t// out\n    /* \"Rolemanager.sol\":179:6177  contract RoleManager is AccessControl, Pausable {... */\ntag_9:\n  dataSize(sub_0)\n  dup1\n  dataOffset(sub_0)\n  0x00\n  codecopy\n  0x00\n  return\nstop\n\nsub_0: assembly {\n        /* \"Rolemanager.sol\":179:6177  contract RoleManager is AccessControl, Pausable {... */\n      mstore(0x40, 0x80)\n      callvalue\n      dup1\n      iszero\n      tag_1\n      jumpi\n      0x00\n      dup1\n      revert\n    tag_1:\n      pop\n      jumpi(tag_2, lt(calldatasize, 0x04))\n      shr(0xe0, calldataload(0x00))\n      dup1\n      0x75b238fc\n      gt\n      tag_27\n      jumpi\n      dup1\n      0x9411ca46\n      gt\n      tag_28\n      jumpi\n      dup1\n      0x9411ca46\n      eq\n      tag_21\n      jumpi\n      dup1\n      0x98e4abb5\n      eq\n      tag_22\n      jumpi\n      dup1\n      0xa217fddf\n      eq\n      tag_23\n      jumpi\n      dup1\n      0xbd605121\n      eq\n      tag_24\n      jumpi\n      dup1\n      0xc2d79444\n      eq\n      tag_25\n      jumpi\n      dup1\n      0xd547741f\n      eq\n      tag_26\n      jumpi\n      jump(tag_2)\n    tag_28:\n      dup1\n      0x75b238fc\n      eq\n      tag_15\n      jumpi\n      dup1\n      0x768b01aa\n      eq\n      tag_16\n      jumpi\n      dup1\n      0x78988ebd\n      eq\n      tag_17\n      jumpi\n      dup1\n      0x80a1f712\n      eq\n      tag_18\n      jumpi\n      dup1\n      0x8456cb59\n      eq\n      tag_19\n      jumpi\n      dup1\n      0x91d14854\n      eq\n      tag_20\n      jumpi\n      jump(tag_2)\n    tag_27:\n      dup1\n      0x2f2ff15d\n      gt\n      tag_29\n      jumpi\n      dup1\n      0x2f2ff15d\n      eq\n      tag_9\n      jumpi\n      dup1\n      0x303e3840\n      eq\n      tag_10\n      jumpi\n      dup1\n      0x36568abe\n      eq\n      tag_11\n      jumpi\n      dup1\n      0x3c652a9a\n      eq\n      tag_12\n      jumpi\n      dup1\n      0x3f4ba83a\n      eq\n      tag_13\n      jumpi\n      dup1\n      0x5c975abb\n      eq\n      tag_14\n      jumpi\n      jump(tag_2)\n    tag_29:\n      dup1\n      0x01ffc9a7\n      eq\n      tag_3\n      jumpi\n      dup1\n      0x18097b69\n      eq\n      tag_4\n      jumpi\n      dup1\n      0x1d9486de\n      eq\n      tag_5\n      jumpi\n      dup1\n      0x208dd1ff\n      eq\n      tag_6\n      jumpi\n      dup1\n      0x248a9ca3\n      eq\n      tag_7\n      jumpi\n      dup1\n      0x25df448c\n      eq\n      tag_8\n      jumpi\n    tag_2:\n      0x00\n      dup1\n      revert\n        /* \"@openzeppelin/contracts/access/AccessControl.sol\":2565:2767  function supportsInterface(bytes4 interfaceId) public view virtual override returns (bool) {... */\n    tag_3:\n      tag_30\n      0x04\n      dup1\n      calldatasize\n      sub\n      dup2\n      add\n      swap1\n      tag_31\n      swap2\n      swap1\n      tag_32\n      jump\t// in\n    tag_31:\n      tag_33\n      jump\t// in\n    tag_30:\n      mload(0x40)\n      tag_34\n      swap2\n      swap1\n      tag_35\n      jump\t// in\n    tag_34:\n      mload(0x40)\n      dup1\n      swap2\n      sub\n      swap1\n      return\n        /* \"Rolemanager.sol\":4925:5398  function getRoleRequest(address _requester, bytes32 _role) public view returns (... */\n    tag_4:\n      tag_36\n      0x04\n      dup1\n      calldatasize\n      sub\n      dup2\n      add\n      swap1\n      tag_37\n      swap2\n      swap1\n      tag_38\n      jump\t// in\n    tag_37:\n      tag_39\n      jump\t// in\n    tag_36:\n      mload(0x40)\n      tag_40\n      swap6\n      swap5\n      swap4\n      swap3\n      swap2\n      swap1\n      tag_41\n      jump\t// in\n    tag_40:\n      mload(0x40)\n      dup1\n      swap2\n      sub\n      swap1\n      return\n        /* \"Rolemanager.sol\":4057:4292  function assignRole(address _user, bytes32 _role) public onlyRole(ADMIN_ROLE) whenNotPaused {... */\n    tag_5:\n      tag_42\n      0x04\n      dup1\n      calldatasize\n      sub\n      dup2\n      add\n      swap1\n      tag_43\n      swap2\n      swap1\n      tag_38\n      jump\t// in\n    tag_43:\n      tag_44\n      jump\t// in\n    tag_42:\n      stop\n        /* \"Rolemanager.sol\":4434:4669  function revokeRole(address _user, bytes32 _role) public onlyRole(ADMIN_ROLE) whenNotPaused {... */\n    tag_6:\n      tag_45\n      0x04\n      dup1\n      calldatasize\n      sub\n      dup2\n      add\n      swap1\n      tag_46\n      swap2\n      swap1\n      tag_38\n      jump\t// in\n    tag_46:\n      tag_47\n      jump\t// in\n    tag_45:\n      stop\n        /* \"@openzeppelin/contracts/access/AccessControl.sol\":3810:3930  function getRoleAdmin(bytes32 role) public view virtual returns (bytes32) {... */\n    tag_7:\n      tag_48\n      0x04\n      dup1\n      calldatasize\n      sub\n      dup2\n      add\n      swap1\n      tag_49\n      swap2\n      swap1\n      tag_50\n      jump\t// in\n    tag_49:\n      tag_51\n      jump\t// in\n    tag_48:\n      mload(0x40)\n      tag_52\n      swap2\n      swap1\n      tag_53\n      jump\t// in\n    tag_52:\n      mload(0x40)\n      dup1\n      swap2\n      sub\n      swap1\n      return\n        /* \"Rolemanager.sol\":2653:3227  function approveRoleRequest(address _requester, bytes32 _role) public onlyRole(ADMIN_ROLE) whenNotPaused {... */\n    tag_8:\n      tag_54\n      0x04\n      dup1\n      calldatasize\n      sub\n      dup2\n      add\n      swap1\n      tag_55\n      swap2\n      swap1\n      tag_38\n      jump\t// in\n    tag_55:\n      tag_56\n      jump\t// in\n    tag_54:\n      stop\n        /* \"@openzeppelin/contracts/access/AccessControl.sol\":4226:4362  function grantRole(bytes32 role, address account) public virtual onlyRole(getRoleAdmin(role)) {... */\n    tag_9:\n      tag_57\n      0x04\n      dup1\n      calldatasize\n      sub\n      dup2\n      add\n      swap1\n      tag_58\n      swap2\n      swap1\n      tag_59\n      jump\t// in\n    tag_58:\n      tag_60\n      jump\t// in\n    tag_57:\n      stop\n        /* \"Rolemanager.sol\":403:467  bytes32 public constant PAINTER_ROLE = keccak256(\"PAINTER_ROLE\") */\n    tag_10:\n      tag_61\n      tag_62\n      jump\t// in\n    tag_61:\n      mload(0x40)\n      tag_63\n      swap2\n      swap1\n      tag_53\n      jump\t// in\n    tag_63:\n      mload(0x40)\n      dup1\n      swap2\n      sub\n      swap1\n      return\n        /* \"@openzeppelin/contracts/access/AccessControl.sol\":5328:5573  function renounceRole(bytes32 role, address callerConfirmation) public virtual {... */\n    tag_11:\n      tag_64\n      0x04\n      dup1\n      calldatasize\n      sub\n      dup2\n      add\n      swap1\n      tag_65\n      swap2\n      swap1\n      tag_59\n      jump\t// in\n    tag_65:\n      tag_66\n      jump\t// in\n    tag_64:\n      stop\n        /* \"Rolemanager.sol\":1051:1087  RoleRequest[] public pendingRequests */\n    tag_12:\n      tag_67\n      0x04\n      dup1\n      calldatasize\n      sub\n      dup2\n      add\n      swap1\n      tag_68\n      swap2\n      swap1\n      tag_69\n      jump\t// in\n    tag_68:\n      tag_70\n      jump\t// in\n    tag_67:\n      mload(0x40)\n      tag_71\n      swap6\n      swap5\n      swap4\n      swap3\n      swap2\n      swap1\n      tag_41\n      jump\t// in\n    tag_71:\n      mload(0x40)\n      dup1\n      swap2\n      sub\n      swap1\n      return\n        /* \"Rolemanager.sol\":6098:6174  function unpause() public onlyRole(ADMIN_ROLE) {... */\n    tag_13:\n      tag_72\n      tag_73\n      jump\t// in\n    tag_72:\n      stop\n        /* \"@openzeppelin/contracts/security/Pausable.sol\":1615:1699  function paused() public view virtual returns (bool) {... */\n    tag_14:\n      tag_74\n      tag_75\n      jump\t// in\n    tag_74:\n      mload(0x40)\n      tag_76\n      swap2\n      swap1\n      tag_35\n      jump\t// in\n    tag_76:\n      mload(0x40)\n      dup1\n      swap2\n      sub\n      swap1\n      return\n        /* \"Rolemanager.sol\":259:319  bytes32 public constant ADMIN_ROLE = keccak256(\"ADMIN_ROLE\") */\n    tag_15:\n      tag_77\n      tag_78\n      jump\t// in\n    tag_77:\n      mload(0x40)\n      tag_79\n      swap2\n      swap1\n      tag_53\n      jump\t// in\n    tag_79:\n      mload(0x40)\n      dup1\n      swap2\n      sub\n      swap1\n      return\n        /* \"Rolemanager.sol\":1798:2473  function requestRole(bytes32 _role, string memory _reason) public whenNotPaused {... */\n    tag_16:\n      tag_80\n      0x04\n      dup1\n      calldatasize\n      sub\n      dup2\n      add\n      swap1\n      tag_81\n      swap2\n      swap1\n      tag_82\n      jump\t// in\n    tag_81:\n      tag_83\n      jump\t// in\n    tag_80:\n      stop\n        /* \"Rolemanager.sol\":474:550  bytes32 public constant GALLERY_OWNER_ROLE = keccak256(\"GALLERY_OWNER_ROLE\") */\n    tag_17:\n      tag_84\n      tag_85\n      jump\t// in\n    tag_84:\n      mload(0x40)\n      tag_86\n      swap2\n      swap1\n      tag_53\n      jump\t// in\n    tag_86:\n      mload(0x40)\n      dup1\n      swap2\n      sub\n      swap1\n      return\n        /* \"Rolemanager.sol\":4738:4852  function getPendingRequests() public view returns (RoleRequest[] memory) {... */\n    tag_18:\n      tag_87\n      tag_88\n      jump\t// in\n    tag_87:\n      mload(0x40)\n      tag_89\n      swap2\n      swap1\n      tag_90\n      jump\t// in\n    tag_89:\n      mload(0x40)\n      dup1\n      swap2\n      sub\n      swap1\n      return\n        /* \"Rolemanager.sol\":6018:6090  function pause() public onlyRole(ADMIN_ROLE) {... */\n    tag_19:\n      tag_91\n      tag_92\n      jump\t// in\n    tag_91:\n      stop\n        /* \"@openzeppelin/contracts/access/AccessControl.sol\":2854:2990  function hasRole(bytes32 role, address account) public view virtual returns (bool) {... */\n    tag_20:\n      tag_93\n      0x04\n      dup1\n      calldatasize\n      sub\n      dup2\n      add\n      swap1\n      tag_94\n      swap2\n      swap1\n      tag_59\n      jump\t// in\n    tag_94:\n      tag_95\n      jump\t// in\n    tag_93:\n      mload(0x40)\n      tag_96\n      swap2\n      swap1\n      tag_35\n      jump\t// in\n    tag_96:\n      mload(0x40)\n      dup1\n      swap2\n      sub\n      swap1\n      return\n        /* \"Rolemanager.sol\":904:975  mapping(address => mapping(bytes32 => RoleRequest)) public roleRequests */\n    tag_21:\n      tag_97\n      0x04\n      dup1\n      calldatasize\n      sub\n      dup2\n      add\n      swap1\n      tag_98\n      swap2\n      swap1\n      tag_38\n      jump\t// in\n    tag_98:\n      tag_99\n      jump\t// in\n    tag_97:\n      mload(0x40)\n      tag_100\n      swap6\n      swap5\n      swap4\n      swap3\n      swap2\n      swap1\n      tag_41\n      jump\t// in\n    tag_100:\n      mload(0x40)\n      dup1\n      swap2\n      sub\n      swap1\n      return\n        /* \"Rolemanager.sol\":326:396  bytes32 public constant WALL_OWNER_ROLE = keccak256(\"WALL_OWNER_ROLE\") */\n    tag_22:\n      tag_101\n      tag_102\n      jump\t// in\n    tag_101:\n      mload(0x40)\n      tag_103\n      swap2\n      swap1\n      tag_53\n      jump\t// in\n    tag_103:\n      mload(0x40)\n      dup1\n      swap2\n      sub\n      swap1\n      return\n        /* \"@openzeppelin/contracts/access/AccessControl.sol\":2187:2236  bytes32 public constant DEFAULT_ADMIN_ROLE = 0x00 */\n    tag_23:\n      tag_104\n      tag_105\n      jump\t// in\n    tag_104:\n      mload(0x40)\n      tag_106\n      swap2\n      swap1\n      tag_53\n      jump\t// in\n    tag_106:\n      mload(0x40)\n      dup1\n      swap2\n      sub\n      swap1\n      return\n        /* \"Rolemanager.sol\":3406:3893  function rejectRoleRequest(address _requester, bytes32 _role) public onlyRole(ADMIN_ROLE) whenNotPaused {... */\n    tag_24:\n      tag_107\n      0x04\n      dup1\n      calldatasize\n      sub\n      dup2\n      add\n      swap1\n      tag_108\n      swap2\n      swap1\n      tag_38\n      jump\t// in\n    tag_108:\n      tag_109\n      jump\t// in\n    tag_107:\n      stop\n        /* \"Rolemanager.sol\":557:621  bytes32 public constant SPONSOR_ROLE = keccak256(\"SPONSOR_ROLE\") */\n    tag_25:\n      tag_110\n      tag_111\n      jump\t// in\n    tag_110:\n      mload(0x40)\n      tag_112\n      swap2\n      swap1\n      tag_53\n      jump\t// in\n    tag_112:\n      mload(0x40)\n      dup1\n      swap2\n      sub\n      swap1\n      return\n        /* \"@openzeppelin/contracts/access/AccessControl.sol\":4642:4780  function revokeRole(bytes32 role, address account) public virtual onlyRole(getRoleAdmin(role)) {... */\n    tag_26:\n      tag_113\n      0x04\n      dup1\n      calldatasize\n      sub\n      dup2\n      add\n      swap1\n      tag_114\n      swap2\n      swap1\n      tag_59\n      jump\t// in\n    tag_114:\n      tag_115\n      jump\t// in\n    tag_113:\n      stop\n        /* \"@openzeppelin/contracts/access/AccessControl.sol\":2565:2767  function supportsInterface(bytes4 interfaceId) public view virtual override returns (bool) {... */\n    tag_33:\n        /* \"@openzeppelin/contracts/access/AccessControl.sol\":2650:2654  bool */\n      0x00\n        /* \"@openzeppelin/contracts/access/AccessControl.sol\":2688:2720  type(IAccessControl).interfaceId */\n      0x7965db0b00000000000000000000000000000000000000000000000000000000\n        /* \"@openzeppelin/contracts/access/AccessControl.sol\":2673:2720  interfaceId == type(IAccessControl).interfaceId */\n      not(0xffffffffffffffffffffffffffffffffffffffffffffffffffffffff)\n      and\n        /* \"@openzeppelin/contracts/access/AccessControl.sol\":2673:2684  interfaceId */\n      dup3\n        /* \"@openzeppelin/contracts/access/AccessControl.sol\":2673:2720  interfaceId == type(IAccessControl).interfaceId */\n      not(0xffffffffffffffffffffffffffffffffffffffffffffffffffffffff)\n      and\n      eq\n        /* \"@openzeppelin/contracts/access/AccessControl.sol\":2673:2760  interfaceId == type(IAccessControl).interfaceId || super.supportsInterface(interfaceId) */\n      dup1\n      tag_117\n      jumpi\n      pop\n        /* \"@openzeppelin/contracts/access/AccessControl.sol\":2724:2760  super.supportsInterface(interfaceId) */\n      tag_118\n        /* \"@openzeppelin/contracts/access/AccessControl.sol\":2748:2759  interfaceId */\n      dup3\n        /* \"@openzeppelin/contracts/access/AccessControl.sol\":2724:2747  super.supportsInterface */\n      tag_119\n        /* \"@openzeppelin/contracts/access/AccessControl.sol\":2724:2760  super.supportsInterface(interfaceId) */\n      jump\t// in\n    tag_118:\n        /* \"@openzeppelin/contracts/access/AccessControl.sol\":2673:2760  interfaceId == type(IAccessControl).interfaceId || super.supportsInterface(interfaceId) */\n    tag_117:\n        /* \"@openzeppelin/contracts/access/AccessControl.sol\":2666:2760  return interfaceId == type(IAccessControl).interfaceId || super.supportsInterface(interfaceId) */\n      swap1\n      pop\n        /* \"@openzeppelin/contracts/access/AccessControl.sol\":2565:2767  function supportsInterface(bytes4 interfaceId) public view virtual override returns (bool) {... */\n      swap2\n      swap1\n      pop\n      jump\t// out\n        /* \"Rolemanager.sol\":4925:5398  function getRoleRequest(address _requester, bytes32 _role) public view returns (... */\n    tag_39:\n        /* \"Rolemanager.sol\":5015:5032  address requester */\n      0x00\n        /* \"Rolemanager.sol\":5043:5055  bytes32 role */\n      dup1\n        /* \"Rolemanager.sol\":5066:5086  string memory reason */\n      0x60\n        /* \"Rolemanager.sol\":5097:5109  bool pending */\n      0x00\n        /* \"Rolemanager.sol\":5120:5133  bool approved */\n      dup1\n        /* \"Rolemanager.sol\":5152:5178  RoleRequest memory request */\n      0x00\n        /* \"Rolemanager.sol\":5181:5193  roleRequests */\n      0x02\n        /* \"Rolemanager.sol\":5181:5205  roleRequests[_requester] */\n      0x00\n        /* \"Rolemanager.sol\":5194:5204  _requester */\n      dup10\n        /* \"Rolemanager.sol\":5181:5205  roleRequests[_requester] */\n      0xffffffffffffffffffffffffffffffffffffffff\n      and\n      0xffffffffffffffffffffffffffffffffffffffff\n      and\n      dup2\n      mstore\n      0x20\n      add\n      swap1\n      dup2\n      mstore\n      0x20\n      add\n      0x00\n      keccak256\n        /* \"Rolemanager.sol\":5181:5212  roleRequests[_requester][_role] */\n      0x00\n        /* \"Rolemanager.sol\":5206:5211  _role */\n      dup9\n        /* \"Rolemanager.sol\":5181:5212  roleRequests[_requester][_role] */\n      dup2\n      mstore\n      0x20\n      add\n      swap1\n      dup2\n      mstore\n      0x20\n      add\n      0x00\n      keccak256\n        /* \"Rolemanager.sol\":5152:5212  RoleRequest memory request = roleRequests[_requester][_role] */\n      mload(0x40)\n      dup1\n      0xa0\n      add\n      0x40\n      mstore\n      swap1\n      dup2\n      0x00\n      dup3\n      add\n      0x00\n      swap1\n      sload\n      swap1\n      0x0100\n      exp\n      swap1\n      div\n      0xffffffffffffffffffffffffffffffffffffffff\n      and\n      0xffffffffffffffffffffffffffffffffffffffff\n      and\n      0xffffffffffffffffffffffffffffffffffffffff\n      and\n      dup2\n      mstore\n      0x20\n      add\n      0x01\n      dup3\n      add\n      sload\n      dup2\n      mstore\n      0x20\n      add\n      0x02\n      dup3\n      add\n      dup1\n      sload\n      tag_121\n      swap1\n      tag_122\n      jump\t// in\n    tag_121:\n      dup1\n      0x1f\n      add\n      0x20\n      dup1\n      swap2\n      div\n      mul\n      0x20\n      add\n      mload(0x40)\n      swap1\n      dup2\n      add\n      0x40\n      mstore\n      dup1\n      swap3\n      swap2\n      swap1\n      dup2\n      dup2\n      mstore\n      0x20\n      add\n      dup3\n      dup1\n      sload\n      tag_123\n      swap1\n      tag_122\n      jump\t// in\n    tag_123:\n      dup1\n      iszero\n      tag_124\n      jumpi\n      dup1\n      0x1f\n      lt\n      tag_125\n      jumpi\n      0x0100\n      dup1\n      dup4\n      sload\n      div\n      mul\n      dup4\n      mstore\n      swap2\n      0x20\n      add\n      swap2\n      jump(tag_124)\n    tag_125:\n      dup3\n      add\n      swap2\n      swap1\n      0x00\n      mstore\n      keccak256(0x00, 0x20)\n      swap1\n    tag_126:\n      dup2\n      sload\n      dup2\n      mstore\n      swap1\n      0x01\n      add\n      swap1\n      0x20\n      add\n      dup1\n      dup4\n      gt\n      tag_126\n      jumpi\n      dup3\n      swap1\n      sub\n      0x1f\n      and\n      dup3\n      add\n      swap2\n    tag_124:\n      pop\n      pop\n      pop\n      pop\n      pop\n      dup2\n      mstore\n      0x20\n      add\n      0x03\n      dup3\n      add\n      0x00\n      swap1\n      sload\n      swap1\n      0x0100\n      exp\n      swap1\n      div\n      0xff\n      and\n      iszero\n      iszero\n      iszero\n      iszero\n      dup2\n      mstore\n      0x20\n      add\n      0x03\n      dup3\n      add\n      0x01\n      swap1\n      sload\n      swap1\n      0x0100\n      exp\n      swap1\n      div\n      0xff\n      and\n      iszero\n      iszero\n      iszero\n      iszero\n      dup2\n      mstore\n      pop\n      pop\n      swap1\n      pop\n        /* \"Rolemanager.sol\":5245:5252  request */\n      dup1\n        /* \"Rolemanager.sol\":5245:5262  request.requester */\n      0x00\n      add\n      mload\n        /* \"Rolemanager.sol\":5277:5284  request */\n      dup2\n        /* \"Rolemanager.sol\":5277:5289  request.role */\n      0x20\n      add\n      mload\n        /* \"Rolemanager.sol\":5304:5311  request */\n      dup3\n        /* \"Rolemanager.sol\":5304:5318  request.reason */\n      0x40\n      add\n      mload\n        /* \"Rolemanager.sol\":5333:5340  request */\n      dup4\n        /* \"Rolemanager.sol\":5333:5348  request.pending */\n      0x60\n      add\n      mload\n        /* \"Rolemanager.sol\":5363:5370  request */\n      dup5\n        /* \"Rolemanager.sol\":5363:5379  request.approved */\n      0x80\n      add\n      mload\n        /* \"Rolemanager.sol\":5223:5390  return (... */\n      swap6\n      pop\n      swap6\n      pop\n      swap6\n      pop\n      swap6\n      pop\n      swap6\n      pop\n      pop\n        /* \"Rolemanager.sol\":4925:5398  function getRoleRequest(address _requester, bytes32 _role) public view returns (... */\n      swap3\n      swap6\n      pop\n      swap3\n      swap6\n      swap1\n      swap4\n      pop\n      jump\t// out\n        /* \"Rolemanager.sol\":4057:4292  function assignRole(address _user, bytes32 _role) public onlyRole(ADMIN_ROLE) whenNotPaused {... */\n    tag_44:\n        /* \"Rolemanager.sol\":296:319  keccak256(\"ADMIN_ROLE\") */\n      0xa49807205ce4d355092ef5a8a18f56e8913cf4a201fbe287825b095693c21775\n        /* \"@openzeppelin/contracts/access/AccessControl.sol\":2464:2480  _checkRole(role) */\n      tag_128\n        /* \"@openzeppelin/contracts/access/AccessControl.sol\":2475:2479  role */\n      dup2\n        /* \"@openzeppelin/contracts/access/AccessControl.sol\":2464:2474  _checkRole */\n      tag_129\n        /* \"@openzeppelin/contracts/access/AccessControl.sol\":2464:2480  _checkRole(role) */\n      jump\t// in\n    tag_128:\n        /* \"@openzeppelin/contracts/security/Pausable.sol\":1239:1258  _requireNotPaused() */\n      tag_131\n        /* \"@openzeppelin/contracts/security/Pausable.sol\":1239:1256  _requireNotPaused */\n      tag_132\n        /* \"@openzeppelin/contracts/security/Pausable.sol\":1239:1258  _requireNotPaused() */\n      jump\t// in\n    tag_131:\n        /* \"Rolemanager.sol\":4185:4186  0 */\n      0x00\n        /* \"Rolemanager.sol\":4168:4187  _user != address(0) */\n      0xffffffffffffffffffffffffffffffffffffffff\n      and\n        /* \"Rolemanager.sol\":4168:4173  _user */\n      dup4\n        /* \"Rolemanager.sol\":4168:4187  _user != address(0) */\n      0xffffffffffffffffffffffffffffffffffffffff\n      and\n      sub\n        /* \"Rolemanager.sol\":4160:4207  require(_user != address(0), \"Invalid address\") */\n      tag_134\n      jumpi\n      mload(0x40)\n      0x08c379a000000000000000000000000000000000000000000000000000000000\n      dup2\n      mstore\n      0x04\n      add\n      tag_135\n      swap1\n      tag_136\n      jump\t// in\n    tag_135:\n      mload(0x40)\n      dup1\n      swap2\n      sub\n      swap1\n      revert\n    tag_134:\n        /* \"Rolemanager.sol\":4218:4242  _grantRole(_role, _user) */\n      tag_137\n        /* \"Rolemanager.sol\":4229:4234  _role */\n      dup3\n        /* \"Rolemanager.sol\":4236:4241  _user */\n      dup5\n        /* \"Rolemanager.sol\":4218:4228  _grantRole */\n      tag_138\n        /* \"Rolemanager.sol\":4218:4242  _grantRole(_role, _user) */\n      jump\t// in\n    tag_137:\n      pop\n        /* \"Rolemanager.sol\":4278:4283  _role */\n      dup2\n        /* \"Rolemanager.sol\":4271:4276  _user */\n      dup4\n        /* \"Rolemanager.sol\":4258:4284  RoleAssigned(_user, _role) */\n      0xffffffffffffffffffffffffffffffffffffffff\n      and\n      0x0666448aae9b9c8249fd8213a35a9c10218a0eac2fb39b96ed90c67214c7e761\n      mload(0x40)\n      mload(0x40)\n      dup1\n      swap2\n      sub\n      swap1\n      log3\n        /* \"Rolemanager.sol\":4057:4292  function assignRole(address _user, bytes32 _role) public onlyRole(ADMIN_ROLE) whenNotPaused {... */\n      pop\n      pop\n      pop\n      jump\t// out\n        /* \"Rolemanager.sol\":4434:4669  function revokeRole(address _user, bytes32 _role) public onlyRole(ADMIN_ROLE) whenNotPaused {... */\n    tag_47:\n        /* \"Rolemanager.sol\":296:319  keccak256(\"ADMIN_ROLE\") */\n      0xa49807205ce4d355092ef5a8a18f56e8913cf4a201fbe287825b095693c21775\n        /* \"@openzeppelin/contracts/access/AccessControl.sol\":2464:2480  _checkRole(role) */\n      tag_140\n        /* \"@openzeppelin/contracts/access/AccessControl.sol\":2475:2479  role */\n      dup2\n        /* \"@openzeppelin/contracts/access/AccessControl.sol\":2464:2474  _checkRole */\n      tag_129\n        /* \"@openzeppelin/contracts/access/AccessControl.sol\":2464:2480  _checkRole(role) */\n      jump\t// in\n    tag_140:\n        /* \"@openzeppelin/contracts/security/Pausable.sol\":1239:1258  _requireNotPaused() */\n      tag_142\n        /* \"@openzeppelin/contracts/security/Pausable.sol\":1239:1256  _requireNotPaused */\n      tag_132\n        /* \"@openzeppelin/contracts/security/Pausable.sol\":1239:1258  _requireNotPaused() */\n      jump\t// in\n    tag_142:\n        /* \"Rolemanager.sol\":4562:4563  0 */\n      0x00\n        /* \"Rolemanager.sol\":4545:4564  _user != address(0) */\n      0xffffffffffffffffffffffffffffffffffffffff\n      and\n        /* \"Rolemanager.sol\":4545:4550  _user */\n      dup4\n        /* \"Rolemanager.sol\":4545:4564  _user != address(0) */\n      0xffffffffffffffffffffffffffffffffffffffff\n      and\n      sub\n        /* \"Rolemanager.sol\":4537:4584  require(_user != address(0), \"Invalid address\") */\n      tag_144\n      jumpi\n      mload(0x40)\n      0x08c379a000000000000000000000000000000000000000000000000000000000\n      dup2\n      mstore\n      0x04\n      add\n      tag_145\n      swap1\n      tag_136\n      jump\t// in\n    tag_145:\n      mload(0x40)\n      dup1\n      swap2\n      sub\n      swap1\n      revert\n    tag_144:\n        /* \"Rolemanager.sol\":4595:4620  _revokeRole(_role, _user) */\n      tag_146\n        /* \"Rolemanager.sol\":4607:4612  _role */\n      dup3\n        /* \"Rolemanager.sol\":4614:4619  _user */\n      dup5\n        /* \"Rolemanager.sol\":4595:4606  _revokeRole */\n      tag_147\n        /* \"Rolemanager.sol\":4595:4620  _revokeRole(_role, _user) */\n      jump\t// in\n    tag_146:\n      pop\n        /* \"Rolemanager.sol\":4655:4660  _role */\n      dup2\n        /* \"Rolemanager.sol\":4648:4653  _user */\n      dup4\n        /* \"Rolemanager.sol\":4636:4661  RoleRevoked(_user, _role) */\n      0xffffffffffffffffffffffffffffffffffffffff\n      and\n      0xea83a7caef01824e96446a8c4bc8ff4669edd99e129b53e32c077f85d2168081\n      mload(0x40)\n      mload(0x40)\n      dup1\n      swap2\n      sub\n      swap1\n      log3\n        /* \"Rolemanager.sol\":4434:4669  function revokeRole(address _user, bytes32 _role) public onlyRole(ADMIN_ROLE) whenNotPaused {... */\n      pop\n      pop\n      pop\n      jump\t// out\n        /* \"@openzeppelin/contracts/access/AccessControl.sol\":3810:3930  function getRoleAdmin(bytes32 role) public view virtual returns (bytes32) {... */\n    tag_51:\n        /* \"@openzeppelin/contracts/access/AccessControl.sol\":3875:3882  bytes32 */\n      0x00\n        /* \"@openzeppelin/contracts/access/AccessControl.sol\":3901:3907  _roles */\n      dup1\n        /* \"@openzeppelin/contracts/access/AccessControl.sol\":3901:3913  _roles[role] */\n      0x00\n        /* \"@openzeppelin/contracts/access/AccessControl.sol\":3908:3912  role */\n      dup4\n        /* \"@openzeppelin/contracts/access/AccessControl.sol\":3901:3913  _roles[role] */\n      dup2\n      mstore\n      0x20\n      add\n      swap1\n      dup2\n      mstore\n      0x20\n      add\n      0x00\n      keccak256\n        /* \"@openzeppelin/contracts/access/AccessControl.sol\":3901:3923  _roles[role].adminRole */\n      0x01\n      add\n      sload\n        /* \"@openzeppelin/contracts/access/AccessControl.sol\":3894:3923  return _roles[role].adminRole */\n      swap1\n      pop\n        /* \"@openzeppelin/contracts/access/AccessControl.sol\":3810:3930  function getRoleAdmin(bytes32 role) public view virtual returns (bytes32) {... */\n      swap2\n      swap1\n      pop\n      jump\t// out\n        /* \"Rolemanager.sol\":2653:3227  function approveRoleRequest(address _requester, bytes32 _role) public onlyRole(ADMIN_ROLE) whenNotPaused {... */\n    tag_56:\n        /* \"Rolemanager.sol\":296:319  keccak256(\"ADMIN_ROLE\") */\n      0xa49807205ce4d355092ef5a8a18f56e8913cf4a201fbe287825b095693c21775\n        /* \"@openzeppelin/contracts/access/AccessControl.sol\":2464:2480  _checkRole(role) */\n      tag_150\n        /* \"@openzeppelin/contracts/access/AccessControl.sol\":2475:2479  role */\n      dup2\n        /* \"@openzeppelin/contracts/access/AccessControl.sol\":2464:2474  _checkRole */\n      tag_129\n        /* \"@openzeppelin/contracts/access/AccessControl.sol\":2464:2480  _checkRole(role) */\n      jump\t// in\n    tag_150:\n        /* \"@openzeppelin/contracts/security/Pausable.sol\":1239:1258  _requireNotPaused() */\n      tag_152\n        /* \"@openzeppelin/contracts/security/Pausable.sol\":1239:1256  _requireNotPaused */\n      tag_132\n        /* \"@openzeppelin/contracts/security/Pausable.sol\":1239:1258  _requireNotPaused() */\n      jump\t// in\n    tag_152:\n        /* \"Rolemanager.sol\":2799:2800  0 */\n      0x00\n        /* \"Rolemanager.sol\":2777:2801  _requester != address(0) */\n      0xffffffffffffffffffffffffffffffffffffffff\n      and\n        /* \"Rolemanager.sol\":2777:2787  _requester */\n      dup4\n        /* \"Rolemanager.sol\":2777:2801  _requester != address(0) */\n      0xffffffffffffffffffffffffffffffffffffffff\n      and\n      sub\n        /* \"Rolemanager.sol\":2769:2821  require(_requester != address(0), \"Invalid address\") */\n      tag_154\n      jumpi\n      mload(0x40)\n      0x08c379a000000000000000000000000000000000000000000000000000000000\n      dup2\n      mstore\n      0x04\n      add\n      tag_155\n      swap1\n      tag_136\n      jump\t// in\n    tag_155:\n      mload(0x40)\n      dup1\n      swap2\n      sub\n      swap1\n      revert\n    tag_154:\n        /* \"Rolemanager.sol\":2832:2859  RoleRequest storage request */\n      0x00\n        /* \"Rolemanager.sol\":2862:2874  roleRequests */\n      0x02\n        /* \"Rolemanager.sol\":2862:2886  roleRequests[_requester] */\n      0x00\n        /* \"Rolemanager.sol\":2875:2885  _requester */\n      dup6\n        /* \"Rolemanager.sol\":2862:2886  roleRequests[_requester] */\n      0xffffffffffffffffffffffffffffffffffffffff\n      and\n      0xffffffffffffffffffffffffffffffffffffffff\n      and\n      dup2\n      mstore\n      0x20\n      add\n      swap1\n      dup2\n      mstore\n      0x20\n      add\n      0x00\n      keccak256\n        /* \"Rolemanager.sol\":2862:2893  roleRequests[_requester][_role] */\n      0x00\n        /* \"Rolemanager.sol\":2887:2892  _role */\n      dup5\n        /* \"Rolemanager.sol\":2862:2893  roleRequests[_requester][_role] */\n      dup2\n      mstore\n      0x20\n      add\n      swap1\n      dup2\n      mstore\n      0x20\n      add\n      0x00\n      keccak256\n        /* \"Rolemanager.sol\":2832:2893  RoleRequest storage request = roleRequests[_requester][_role] */\n      swap1\n      pop\n        /* \"Rolemanager.sol\":2912:2919  request */\n      dup1\n        /* \"Rolemanager.sol\":2912:2927  request.pending */\n      0x03\n      add\n      0x00\n      swap1\n      sload\n      swap1\n      0x0100\n      exp\n      swap1\n      div\n      0xff\n      and\n        /* \"Rolemanager.sol\":2904:2950  require(request.pending, \"No pending request\") */\n      tag_156\n      jumpi\n      mload(0x40)\n      0x08c379a000000000000000000000000000000000000000000000000000000000\n      dup2\n      mstore\n      0x04\n      add\n      tag_157\n      swap1\n      tag_158\n      jump\t// in\n    tag_157:\n      mload(0x40)\n      dup1\n      swap2\n      sub\n      swap1\n      revert\n    tag_156:\n        /* \"Rolemanager.sol\":2981:2986  false */\n      0x00\n        /* \"Rolemanager.sol\":2963:2970  request */\n      dup2\n        /* \"Rolemanager.sol\":2963:2978  request.pending */\n      0x03\n      add\n      0x00\n        /* \"Rolemanager.sol\":2963:2986  request.pending = false */\n      0x0100\n      exp\n      dup2\n      sload\n      dup2\n      0xff\n      mul\n      not\n      and\n      swap1\n      dup4\n      iszero\n      iszero\n      mul\n      or\n      swap1\n      sstore\n      pop\n        /* \"Rolemanager.sol\":3016:3020  true */\n      0x01\n        /* \"Rolemanager.sol\":2997:3004  request */\n      dup2\n        /* \"Rolemanager.sol\":2997:3013  request.approved */\n      0x03\n      add\n      0x01\n        /* \"Rolemanager.sol\":2997:3020  request.approved = true */\n      0x0100\n      exp\n      dup2\n      sload\n      dup2\n      0xff\n      mul\n      not\n      and\n      swap1\n      dup4\n      iszero\n      iszero\n      mul\n      or\n      swap1\n      sstore\n      pop\n        /* \"Rolemanager.sol\":3031:3076  _removeFromPendingRequests(_requester, _role) */\n      tag_159\n        /* \"Rolemanager.sol\":3058:3068  _requester */\n      dup5\n        /* \"Rolemanager.sol\":3070:3075  _role */\n      dup5\n        /* \"Rolemanager.sol\":3031:3057  _removeFromPendingRequests */\n      tag_160\n        /* \"Rolemanager.sol\":3031:3076  _removeFromPendingRequests(_requester, _role) */\n      jump\t// in\n    tag_159:\n        /* \"Rolemanager.sol\":3087:3116  _grantRole(_role, _requester) */\n      tag_161\n        /* \"Rolemanager.sol\":3098:3103  _role */\n      dup4\n        /* \"Rolemanager.sol\":3105:3115  _requester */\n      dup6\n        /* \"Rolemanager.sol\":3087:3097  _grantRole */\n      tag_138\n        /* \"Rolemanager.sol\":3087:3116  _grantRole(_role, _requester) */\n      jump\t// in\n    tag_161:\n      pop\n        /* \"Rolemanager.sol\":3166:3171  _role */\n      dup3\n        /* \"Rolemanager.sol\":3154:3164  _requester */\n      dup5\n        /* \"Rolemanager.sol\":3134:3172  RoleRequestApproved(_requester, _role) */\n      0xffffffffffffffffffffffffffffffffffffffff\n      and\n      0x7eb8b9d1e030c150ef76a2962c9e6f78af369eb66f093314f8b59040fc5992da\n      mload(0x40)\n      mload(0x40)\n      dup1\n      swap2\n      sub\n      swap1\n      log3\n        /* \"Rolemanager.sol\":3213:3218  _role */\n      dup3\n        /* \"Rolemanager.sol\":3201:3211  _requester */\n      dup5\n        /* \"Rolemanager.sol\":3188:3219  RoleAssigned(_requester, _role) */\n      0xffffffffffffffffffffffffffffffffffffffff\n      and\n      0x0666448aae9b9c8249fd8213a35a9c10218a0eac2fb39b96ed90c67214c7e761\n      mload(0x40)\n      mload(0x40)\n      dup1\n      swap2\n      sub\n      swap1\n      log3\n        /* \"Rolemanager.sol\":2758:3227  {... */\n      pop\n        /* \"Rolemanager.sol\":2653:3227  function approveRoleRequest(address _requester, bytes32 _role) public onlyRole(ADMIN_ROLE) whenNotPaused {... */\n      pop\n      pop\n      pop\n      jump\t// out\n        /* \"@openzeppelin/contracts/access/AccessControl.sol\":4226:4362  function grantRole(bytes32 role, address account) public virtual onlyRole(getRoleAdmin(role)) {... */\n    tag_60:\n        /* \"@openzeppelin/contracts/access/AccessControl.sol\":4300:4318  getRoleAdmin(role) */\n      tag_162\n        /* \"@openzeppelin/contracts/access/AccessControl.sol\":4313:4317  role */\n      dup3\n        /* \"@openzeppelin/contracts/access/AccessControl.sol\":4300:4312  getRoleAdmin */\n      tag_51\n        /* \"@openzeppelin/contracts/access/AccessControl.sol\":4300:4318  getRoleAdmin(role) */\n      jump\t// in\n    tag_162:\n        /* \"@openzeppelin/contracts/access/AccessControl.sol\":2464:2480  _checkRole(role) */\n      tag_164\n        /* \"@openzeppelin/contracts/access/AccessControl.sol\":2475:2479  role */\n      dup2\n        /* \"@openzeppelin/contracts/access/AccessControl.sol\":2464:2474  _checkRole */\n      tag_129\n        /* \"@openzeppelin/contracts/access/AccessControl.sol\":2464:2480  _checkRole(role) */\n      jump\t// in\n    tag_164:\n        /* \"@openzeppelin/contracts/access/AccessControl.sol\":4330:4355  _grantRole(role, account) */\n      tag_166\n        /* \"@openzeppelin/contracts/access/AccessControl.sol\":4341:4345  role */\n      dup4\n        /* \"@openzeppelin/contracts/access/AccessControl.sol\":4347:4354  account */\n      dup4\n        /* \"@openzeppelin/contracts/access/AccessControl.sol\":4330:4340  _grantRole */\n      tag_138\n        /* \"@openzeppelin/contracts/access/AccessControl.sol\":4330:4355  _grantRole(role, account) */\n      jump\t// in\n    tag_166:\n      pop\n        /* \"@openzeppelin/contracts/access/AccessControl.sol\":4226:4362  function grantRole(bytes32 role, address account) public virtual onlyRole(getRoleAdmin(role)) {... */\n      pop\n      pop\n      pop\n      jump\t// out\n        /* \"Rolemanager.sol\":403:467  bytes32 public constant PAINTER_ROLE = keccak256(\"PAINTER_ROLE\") */\n    tag_62:\n        /* \"Rolemanager.sol\":442:467  keccak256(\"PAINTER_ROLE\") */\n      0x709f71abb733aa2493d642ec84d615695650e6806fd401c97e1fecbd9c84c1d6\n        /* \"Rolemanager.sol\":403:467  bytes32 public constant PAINTER_ROLE = keccak256(\"PAINTER_ROLE\") */\n      dup2\n      jump\t// out\n        /* \"@openzeppelin/contracts/access/AccessControl.sol\":5328:5573  function renounceRole(bytes32 role, address callerConfirmation) public virtual {... */\n    tag_66:\n        /* \"@openzeppelin/contracts/access/AccessControl.sol\":5443:5455  _msgSender() */\n      tag_168\n        /* \"@openzeppelin/contracts/access/AccessControl.sol\":5443:5453  _msgSender */\n      tag_169\n        /* \"@openzeppelin/contracts/access/AccessControl.sol\":5443:5455  _msgSender() */\n      jump\t// in\n    tag_168:\n        /* \"@openzeppelin/contracts/access/AccessControl.sol\":5421:5455  callerConfirmation != _msgSender() */\n      0xffffffffffffffffffffffffffffffffffffffff\n      and\n        /* \"@openzeppelin/contracts/access/AccessControl.sol\":5421:5439  callerConfirmation */\n      dup2\n        /* \"@openzeppelin/contracts/access/AccessControl.sol\":5421:5455  callerConfirmation != _msgSender() */\n      0xffffffffffffffffffffffffffffffffffffffff\n      and\n      eq\n        /* \"@openzeppelin/contracts/access/AccessControl.sol\":5417:5519  if (callerConfirmation != _msgSender()) {... */\n      tag_170\n      jumpi\n        /* \"@openzeppelin/contracts/access/AccessControl.sol\":5478:5508  AccessControlBadConfirmation() */\n      mload(0x40)\n      0x6697b23200000000000000000000000000000000000000000000000000000000\n      dup2\n      mstore\n      0x04\n      add\n      mload(0x40)\n      dup1\n      swap2\n      sub\n      swap1\n      revert\n        /* \"@openzeppelin/contracts/access/AccessControl.sol\":5417:5519  if (callerConfirmation != _msgSender()) {... */\n    tag_170:\n        /* \"@openzeppelin/contracts/access/AccessControl.sol\":5529:5566  _revokeRole(role, callerConfirmation) */\n      tag_171\n        /* \"@openzeppelin/contracts/access/AccessControl.sol\":5541:5545  role */\n      dup3\n        /* \"@openzeppelin/contracts/access/AccessControl.sol\":5547:5565  callerConfirmation */\n      dup3\n        /* \"@openzeppelin/contracts/access/AccessControl.sol\":5529:5540  _revokeRole */\n      tag_147\n        /* \"@openzeppelin/contracts/access/AccessControl.sol\":5529:5566  _revokeRole(role, callerConfirmation) */\n      jump\t// in\n    tag_171:\n      pop\n        /* \"@openzeppelin/contracts/access/AccessControl.sol\":5328:5573  function renounceRole(bytes32 role, address callerConfirmation) public virtual {... */\n      pop\n      pop\n      jump\t// out\n        /* \"Rolemanager.sol\":1051:1087  RoleRequest[] public pendingRequests */\n    tag_70:\n      0x03\n      dup2\n      dup2\n      sload\n      dup2\n      lt\n      tag_172\n      jumpi\n      0x00\n      dup1\n      revert\n    tag_172:\n      swap1\n      0x00\n      mstore\n      keccak256(0x00, 0x20)\n      swap1\n      0x04\n      mul\n      add\n      0x00\n      swap2\n      pop\n      swap1\n      pop\n      dup1\n      0x00\n      add\n      0x00\n      swap1\n      sload\n      swap1\n      0x0100\n      exp\n      swap1\n      div\n      0xffffffffffffffffffffffffffffffffffffffff\n      and\n      swap1\n      dup1\n      0x01\n      add\n      sload\n      swap1\n      dup1\n      0x02\n      add\n      dup1\n      sload\n      tag_174\n      swap1\n      tag_122\n      jump\t// in\n    tag_174:\n      dup1\n      0x1f\n      add\n      0x20\n      dup1\n      swap2\n      div\n      mul\n      0x20\n      add\n      mload(0x40)\n      swap1\n      dup2\n      add\n      0x40\n      mstore\n      dup1\n      swap3\n      swap2\n      swap1\n      dup2\n      dup2\n      mstore\n      0x20\n      add\n      dup3\n      dup1\n      sload\n      tag_175\n      swap1\n      tag_122\n      jump\t// in\n    tag_175:\n      dup1\n      iszero\n      tag_176\n      jumpi\n      dup1\n      0x1f\n      lt\n      tag_177\n      jumpi\n      0x0100\n      dup1\n      dup4\n      sload\n      div\n      mul\n      dup4\n      mstore\n      swap2\n      0x20\n      add\n      swap2\n      jump(tag_176)\n    tag_177:\n      dup3\n      add\n      swap2\n      swap1\n      0x00\n      mstore\n      keccak256(0x00, 0x20)\n      swap1\n    tag_178:\n      dup2\n      sload\n      dup2\n      mstore\n      swap1\n      0x01\n      add\n      swap1\n      0x20\n      add\n      dup1\n      dup4\n      gt\n      tag_178\n      jumpi\n      dup3\n      swap1\n      sub\n      0x1f\n      and\n      dup3\n      add\n      swap2\n    tag_176:\n      pop\n      pop\n      pop\n      pop\n      pop\n      swap1\n      dup1\n      0x03\n      add\n      0x00\n      swap1\n      sload\n      swap1\n      0x0100\n      exp\n      swap1\n      div\n      0xff\n      and\n      swap1\n      dup1\n      0x03\n      add\n      0x01\n      swap1\n      sload\n      swap1\n      0x0100\n      exp\n      swap1\n      div\n      0xff\n      and\n      swap1\n      pop\n      dup6\n      jump\t// out\n        /* \"Rolemanager.sol\":6098:6174  function unpause() public onlyRole(ADMIN_ROLE) {... */\n    tag_73:\n        /* \"Rolemanager.sol\":296:319  keccak256(\"ADMIN_ROLE\") */\n      0xa49807205ce4d355092ef5a8a18f56e8913cf4a201fbe287825b095693c21775\n        /* \"@openzeppelin/contracts/access/AccessControl.sol\":2464:2480  _checkRole(role) */\n      tag_180\n        /* \"@openzeppelin/contracts/access/AccessControl.sol\":2475:2479  role */\n      dup2\n        /* \"@openzeppelin/contracts/access/AccessControl.sol\":2464:2474  _checkRole */\n      tag_129\n        /* \"@openzeppelin/contracts/access/AccessControl.sol\":2464:2480  _checkRole(role) */\n      jump\t// in\n    tag_180:\n        /* \"Rolemanager.sol\":6156:6166  _unpause() */\n      tag_182\n        /* \"Rolemanager.sol\":6156:6164  _unpause */\n      tag_183\n        /* \"Rolemanager.sol\":6156:6166  _unpause() */\n      jump\t// in\n    tag_182:\n        /* \"Rolemanager.sol\":6098:6174  function unpause() public onlyRole(ADMIN_ROLE) {... */\n      pop\n      jump\t// out\n        /* \"@openzeppelin/contracts/security/Pausable.sol\":1615:1699  function paused() public view virtual returns (bool) {... */\n    tag_75:\n        /* \"@openzeppelin/contracts/security/Pausable.sol\":1662:1666  bool */\n      0x00\n        /* \"@openzeppelin/contracts/security/Pausable.sol\":1685:1692  _paused */\n      0x01\n      0x00\n      swap1\n      sload\n      swap1\n      0x0100\n      exp\n      swap1\n      div\n      0xff\n      and\n        /* \"@openzeppelin/contracts/security/Pausable.sol\":1678:1692  return _paused */\n      swap1\n      pop\n        /* \"@openzeppelin/contracts/security/Pausable.sol\":1615:1699  function paused() public view virtual returns (bool) {... */\n      swap1\n      jump\t// out\n        /* \"Rolemanager.sol\":259:319  bytes32 public constant ADMIN_ROLE = keccak256(\"ADMIN_ROLE\") */\n    tag_78:\n        /* \"Rolemanager.sol\":296:319  keccak256(\"ADMIN_ROLE\") */\n      0xa49807205ce4d355092ef5a8a18f56e8913cf4a201fbe287825b095693c21775\n        /* \"Rolemanager.sol\":259:319  bytes32 public constant ADMIN_ROLE = keccak256(\"ADMIN_ROLE\") */\n      dup2\n      jump\t// out\n        /* \"Rolemanager.sol\":1798:2473  function requestRole(bytes32 _role, string memory _reason) public whenNotPaused {... */\n    tag_83:\n        /* \"@openzeppelin/contracts/security/Pausable.sol\":1239:1258  _requireNotPaused() */\n      tag_186\n        /* \"@openzeppelin/contracts/security/Pausable.sol\":1239:1256  _requireNotPaused */\n      tag_132\n        /* \"@openzeppelin/contracts/security/Pausable.sol\":1239:1258  _requireNotPaused() */\n      jump\t// in\n    tag_186:\n        /* \"Rolemanager.sol\":1898:1924  hasRole(_role, msg.sender) */\n      tag_188\n        /* \"Rolemanager.sol\":1906:1911  _role */\n      dup3\n        /* \"Rolemanager.sol\":1913:1923  msg.sender */\n      caller\n        /* \"Rolemanager.sol\":1898:1905  hasRole */\n      tag_95\n        /* \"Rolemanager.sol\":1898:1924  hasRole(_role, msg.sender) */\n      jump\t// in\n    tag_188:\n        /* \"Rolemanager.sol\":1897:1924  !hasRole(_role, msg.sender) */\n      iszero\n        /* \"Rolemanager.sol\":1889:1945  require(!hasRole(_role, msg.sender), \"Already has role\") */\n      tag_189\n      jumpi\n      mload(0x40)\n      0x08c379a000000000000000000000000000000000000000000000000000000000\n      dup2\n      mstore\n      0x04\n      add\n      tag_190\n      swap1\n      tag_191\n      jump\t// in\n    tag_190:\n      mload(0x40)\n      dup1\n      swap2\n      sub\n      swap1\n      revert\n    tag_189:\n        /* \"Rolemanager.sol\":1988:1989  0 */\n      0x00\n        /* \"Rolemanager.sol\":1970:1977  _reason */\n      dup2\n        /* \"Rolemanager.sol\":1964:1985  bytes(_reason).length */\n      mload\n        /* \"Rolemanager.sol\":1964:1989  bytes(_reason).length > 0 */\n      gt\n        /* \"Rolemanager.sol\":1956:2009  require(bytes(_reason).length > 0, \"Reason required\") */\n      tag_192\n      jumpi\n      mload(0x40)\n      0x08c379a000000000000000000000000000000000000000000000000000000000\n      dup2\n      mstore\n      0x04\n      add\n      tag_193\n      swap1\n      tag_194\n      jump\t// in\n    tag_193:\n      mload(0x40)\n      dup1\n      swap2\n      sub\n      swap1\n      revert\n    tag_192:\n        /* \"Rolemanager.sol\":2029:2041  roleRequests */\n      0x02\n        /* \"Rolemanager.sol\":2029:2053  roleRequests[msg.sender] */\n      0x00\n        /* \"Rolemanager.sol\":2042:2052  msg.sender */\n      caller\n        /* \"Rolemanager.sol\":2029:2053  roleRequests[msg.sender] */\n      0xffffffffffffffffffffffffffffffffffffffff\n      and\n      0xffffffffffffffffffffffffffffffffffffffff\n      and\n      dup2\n      mstore\n      0x20\n      add\n      swap1\n      dup2\n      mstore\n      0x20\n      add\n      0x00\n      keccak256\n        /* \"Rolemanager.sol\":2029:2060  roleRequests[msg.sender][_role] */\n      0x00\n        /* \"Rolemanager.sol\":2054:2059  _role */\n      dup4\n        /* \"Rolemanager.sol\":2029:2060  roleRequests[msg.sender][_role] */\n      dup2\n      mstore\n      0x20\n      add\n      swap1\n      dup2\n      mstore\n      0x20\n      add\n      0x00\n      keccak256\n        /* \"Rolemanager.sol\":2029:2068  roleRequests[msg.sender][_role].pending */\n      0x03\n      add\n      0x00\n      swap1\n      sload\n      swap1\n      0x0100\n      exp\n      swap1\n      div\n      0xff\n      and\n        /* \"Rolemanager.sol\":2028:2068  !roleRequests[msg.sender][_role].pending */\n      iszero\n        /* \"Rolemanager.sol\":2020:2096  require(!roleRequests[msg.sender][_role].pending, \"Request already pending\") */\n      tag_195\n      jumpi\n      mload(0x40)\n      0x08c379a000000000000000000000000000000000000000000000000000000000\n      dup2\n      mstore\n      0x04\n      add\n      tag_196\n      swap1\n      tag_197\n      jump\t// in\n    tag_196:\n      mload(0x40)\n      dup1\n      swap2\n      sub\n      swap1\n      revert\n    tag_195:\n        /* \"Rolemanager.sol\":2109:2135  RoleRequest memory request */\n      0x00\n        /* \"Rolemanager.sol\":2138:2312  RoleRequest({... */\n      mload(0x40)\n      dup1\n      0xa0\n      add\n      0x40\n      mstore\n      dup1\n        /* \"Rolemanager.sol\":2176:2186  msg.sender */\n      caller\n        /* \"Rolemanager.sol\":2138:2312  RoleRequest({... */\n      0xffffffffffffffffffffffffffffffffffffffff\n      and\n      dup2\n      mstore\n      0x20\n      add\n        /* \"Rolemanager.sol\":2207:2212  _role */\n      dup5\n        /* \"Rolemanager.sol\":2138:2312  RoleRequest({... */\n      dup2\n      mstore\n      0x20\n      add\n        /* \"Rolemanager.sol\":2235:2242  _reason */\n      dup4\n        /* \"Rolemanager.sol\":2138:2312  RoleRequest({... */\n      dup2\n      mstore\n      0x20\n      add\n        /* \"Rolemanager.sol\":2266:2270  true */\n      0x01\n        /* \"Rolemanager.sol\":2138:2312  RoleRequest({... */\n      iszero\n      iszero\n      dup2\n      mstore\n      0x20\n      add\n        /* \"Rolemanager.sol\":2295:2300  false */\n      0x00\n        /* \"Rolemanager.sol\":2138:2312  RoleRequest({... */\n      iszero\n      iszero\n      dup2\n      mstore\n      pop\n        /* \"Rolemanager.sol\":2109:2312  RoleRequest memory request = RoleRequest({... */\n      swap1\n      pop\n        /* \"Rolemanager.sol\":2359:2366  request */\n      dup1\n        /* \"Rolemanager.sol\":2325:2337  roleRequests */\n      0x02\n        /* \"Rolemanager.sol\":2325:2349  roleRequests[msg.sender] */\n      0x00\n        /* \"Rolemanager.sol\":2338:2348  msg.sender */\n      caller\n        /* \"Rolemanager.sol\":2325:2349  roleRequests[msg.sender] */\n      0xffffffffffffffffffffffffffffffffffffffff\n      and\n      0xffffffffffffffffffffffffffffffffffffffff\n      and\n      dup2\n      mstore\n      0x20\n      add\n      swap1\n      dup2\n      mstore\n      0x20\n      add\n      0x00\n      keccak256\n        /* \"Rolemanager.sol\":2325:2356  roleRequests[msg.sender][_role] */\n      0x00\n        /* \"Rolemanager.sol\":2350:2355  _role */\n      dup6\n        /* \"Rolemanager.sol\":2325:2356  roleRequests[msg.sender][_role] */\n      dup2\n      mstore\n      0x20\n      add\n      swap1\n      dup2\n      mstore\n      0x20\n      add\n      0x00\n      keccak256\n        /* \"Rolemanager.sol\":2325:2366  roleRequests[msg.sender][_role] = request */\n      0x00\n      dup3\n      add\n      mload\n      dup2\n      0x00\n      add\n      exp(0x0100, 0x00)\n      dup2\n      sload\n      dup2\n      0xffffffffffffffffffffffffffffffffffffffff\n      mul\n      not\n      and\n      swap1\n      dup4\n      0xffffffffffffffffffffffffffffffffffffffff\n      and\n      mul\n      or\n      swap1\n      sstore\n      pop\n      0x20\n      dup3\n      add\n      mload\n      dup2\n      0x01\n      add\n      sstore\n      0x40\n      dup3\n      add\n      mload\n      dup2\n      0x02\n      add\n      swap1\n      dup2\n      tag_198\n      swap2\n      swap1\n      tag_199\n      jump\t// in\n    tag_198:\n      pop\n      0x60\n      dup3\n      add\n      mload\n      dup2\n      0x03\n      add\n      exp(0x0100, 0x00)\n      dup2\n      sload\n      dup2\n      0xff\n      mul\n      not\n      and\n      swap1\n      dup4\n      iszero\n      iszero\n      mul\n      or\n      swap1\n      sstore\n      pop\n      0x80\n      dup3\n      add\n      mload\n      dup2\n      0x03\n      add\n      exp(0x0100, 0x01)\n      dup2\n      sload\n      dup2\n      0xff\n      mul\n      not\n      and\n      swap1\n      dup4\n      iszero\n      iszero\n      mul\n      or\n      swap1\n      sstore\n      pop\n      swap1\n      pop\n      pop\n        /* \"Rolemanager.sol\":2377:2392  pendingRequests */\n      0x03\n        /* \"Rolemanager.sol\":2398:2405  request */\n      dup2\n        /* \"Rolemanager.sol\":2377:2406  pendingRequests.push(request) */\n      swap1\n      dup1\n      0x01\n      dup2\n      sload\n      add\n      dup1\n      dup3\n      sstore\n      dup1\n      swap2\n      pop\n      pop\n      0x01\n      swap1\n      sub\n      swap1\n      0x00\n      mstore\n      keccak256(0x00, 0x20)\n      swap1\n      0x04\n      mul\n      add\n      0x00\n      swap1\n      swap2\n      swap1\n      swap2\n      swap1\n      swap2\n      pop\n      0x00\n      dup3\n      add\n      mload\n      dup2\n      0x00\n      add\n      exp(0x0100, 0x00)\n      dup2\n      sload\n      dup2\n      0xffffffffffffffffffffffffffffffffffffffff\n      mul\n      not\n      and\n      swap1\n      dup4\n      0xffffffffffffffffffffffffffffffffffffffff\n      and\n      mul\n      or\n      swap1\n      sstore\n      pop\n      0x20\n      dup3\n      add\n      mload\n      dup2\n      0x01\n      add\n      sstore\n      0x40\n      dup3\n      add\n      mload\n      dup2\n      0x02\n      add\n      swap1\n      dup2\n      tag_201\n      swap2\n      swap1\n      tag_199\n      jump\t// in\n    tag_201:\n      pop\n      0x60\n      dup3\n      add\n      mload\n      dup2\n      0x03\n      add\n      exp(0x0100, 0x00)\n      dup2\n      sload\n      dup2\n      0xff\n      mul\n      not\n      and\n      swap1\n      dup4\n      iszero\n      iszero\n      mul\n      or\n      swap1\n      sstore\n      pop\n      0x80\n      dup3\n      add\n      mload\n      dup2\n      0x03\n      add\n      exp(0x0100, 0x01)\n      dup2\n      sload\n      dup2\n      0xff\n      mul\n      not\n      and\n      swap1\n      dup4\n      iszero\n      iszero\n      mul\n      or\n      swap1\n      sstore\n      pop\n      pop\n      pop\n        /* \"Rolemanager.sol\":2450:2455  _role */\n      dup3\n        /* \"Rolemanager.sol\":2438:2448  msg.sender */\n      caller\n        /* \"Rolemanager.sol\":2424:2465  RoleRequested(msg.sender, _role, _reason) */\n      0xffffffffffffffffffffffffffffffffffffffff\n      and\n      0x98f6f2d133c420a141a671ce9479e3956417c7f04bd370de1cd64ce10d385d94\n        /* \"Rolemanager.sol\":2457:2464  _reason */\n      dup5\n        /* \"Rolemanager.sol\":2424:2465  RoleRequested(msg.sender, _role, _reason) */\n      mload(0x40)\n      tag_202\n      swap2\n      swap1\n      tag_203\n      jump\t// in\n    tag_202:\n      mload(0x40)\n      dup1\n      swap2\n      sub\n      swap1\n      log3\n        /* \"Rolemanager.sol\":1878:2473  {... */\n      pop\n        /* \"Rolemanager.sol\":1798:2473  function requestRole(bytes32 _role, string memory _reason) public whenNotPaused {... */\n      pop\n      pop\n      jump\t// out\n        /* \"Rolemanager.sol\":474:550  bytes32 public constant GALLERY_OWNER_ROLE = keccak256(\"GALLERY_OWNER_ROLE\") */\n    tag_85:\n        /* \"Rolemanager.sol\":519:550  keccak256(\"GALLERY_OWNER_ROLE\") */\n      0x876bbbf5907d194533faadcead8cfa42ad0f2b1653cc89d94228f5c04f389a15\n        /* \"Rolemanager.sol\":474:550  bytes32 public constant GALLERY_OWNER_ROLE = keccak256(\"GALLERY_OWNER_ROLE\") */\n      dup2\n      jump\t// out\n        /* \"Rolemanager.sol\":4738:4852  function getPendingRequests() public view returns (RoleRequest[] memory) {... */\n    tag_88:\n        /* \"Rolemanager.sol\":4789:4809  RoleRequest[] memory */\n      0x60\n        /* \"Rolemanager.sol\":4829:4844  pendingRequests */\n      0x03\n        /* \"Rolemanager.sol\":4822:4844  return pendingRequests */\n      dup1\n      sload\n      dup1\n      0x20\n      mul\n      0x20\n      add\n      mload(0x40)\n      swap1\n      dup2\n      add\n      0x40\n      mstore\n      dup1\n      swap3\n      swap2\n      swap1\n      dup2\n      dup2\n      mstore\n      0x20\n      add\n      0x00\n      swap1\n    tag_205:\n      dup3\n      dup3\n      lt\n      iszero\n      tag_206\n      jumpi\n      dup4\n      dup3\n      swap1\n      0x00\n      mstore\n      keccak256(0x00, 0x20)\n      swap1\n      0x04\n      mul\n      add\n      mload(0x40)\n      dup1\n      0xa0\n      add\n      0x40\n      mstore\n      swap1\n      dup2\n      0x00\n      dup3\n      add\n      0x00\n      swap1\n      sload\n      swap1\n      0x0100\n      exp\n      swap1\n      div\n      0xffffffffffffffffffffffffffffffffffffffff\n      and\n      0xffffffffffffffffffffffffffffffffffffffff\n      and\n      0xffffffffffffffffffffffffffffffffffffffff\n      and\n      dup2\n      mstore\n      0x20\n      add\n      0x01\n      dup3\n      add\n      sload\n      dup2\n      mstore\n      0x20\n      add\n      0x02\n      dup3\n      add\n      dup1\n      sload\n      tag_208\n      swap1\n      tag_122\n      jump\t// in\n    tag_208:\n      dup1\n      0x1f\n      add\n      0x20\n      dup1\n      swap2\n      div\n      mul\n      0x20\n      add\n      mload(0x40)\n      swap1\n      dup2\n      add\n      0x40\n      mstore\n      dup1\n      swap3\n      swap2\n      swap1\n      dup2\n      dup2\n      mstore\n      0x20\n      add\n      dup3\n      dup1\n      sload\n      tag_209\n      swap1\n      tag_122\n      jump\t// in\n    tag_209:\n      dup1\n      iszero\n      tag_210\n      jumpi\n      dup1\n      0x1f\n      lt\n      tag_211\n      jumpi\n      0x0100\n      dup1\n      dup4\n      sload\n      div\n      mul\n      dup4\n      mstore\n      swap2\n      0x20\n      add\n      swap2\n      jump(tag_210)\n    tag_211:\n      dup3\n      add\n      swap2\n      swap1\n      0x00\n      mstore\n      keccak256(0x00, 0x20)\n      swap1\n    tag_212:\n      dup2\n      sload\n      dup2\n      mstore\n      swap1\n      0x01\n      add\n      swap1\n      0x20\n      add\n      dup1\n      dup4\n      gt\n      tag_212\n      jumpi\n      dup3\n      swap1\n      sub\n      0x1f\n      and\n      dup3\n      add\n      swap2\n    tag_210:\n      pop\n      pop\n      pop\n      pop\n      pop\n      dup2\n      mstore\n      0x20\n      add\n      0x03\n      dup3\n      add\n      0x00\n      swap1\n      sload\n      swap1\n      0x0100\n      exp\n      swap1\n      div\n      0xff\n      and\n      iszero\n      iszero\n      iszero\n      iszero\n      dup2\n      mstore\n      0x20\n      add\n      0x03\n      dup3\n      add\n      0x01\n      swap1\n      sload\n      swap1\n      0x0100\n      exp\n      swap1\n      div\n      0xff\n      and\n      iszero\n      iszero\n      iszero\n      iszero\n      dup2\n      mstore\n      pop\n      pop\n      dup2\n      mstore\n      0x20\n      add\n      swap1\n      0x01\n      add\n      swap1\n      jump(tag_205)\n    tag_206:\n      pop\n      pop\n      pop\n      pop\n      swap1\n      pop\n        /* \"Rolemanager.sol\":4738:4852  function getPendingRequests() public view returns (RoleRequest[] memory) {... */\n      swap1\n      jump\t// out\n        /* \"Rolemanager.sol\":6018:6090  function pause() public onlyRole(ADMIN_ROLE) {... */\n    tag_92:\n        /* \"Rolemanager.sol\":296:319  keccak256(\"ADMIN_ROLE\") */\n      0xa49807205ce4d355092ef5a8a18f56e8913cf4a201fbe287825b095693c21775\n        /* \"@openzeppelin/contracts/access/AccessControl.sol\":2464:2480  _checkRole(role) */\n      tag_214\n        /* \"@openzeppelin/contracts/access/AccessControl.sol\":2475:2479  role */\n      dup2\n        /* \"@openzeppelin/contracts/access/AccessControl.sol\":2464:2474  _checkRole */\n      tag_129\n        /* \"@openzeppelin/contracts/access/AccessControl.sol\":2464:2480  _checkRole(role) */\n      jump\t// in\n    tag_214:\n        /* \"Rolemanager.sol\":6074:6082  _pause() */\n      tag_216\n        /* \"Rolemanager.sol\":6074:6080  _pause */\n      tag_217\n        /* \"Rolemanager.sol\":6074:6082  _pause() */\n      jump\t// in\n    tag_216:\n        /* \"Rolemanager.sol\":6018:6090  function pause() public onlyRole(ADMIN_ROLE) {... */\n      pop\n      jump\t// out\n        /* \"@openzeppelin/contracts/access/AccessControl.sol\":2854:2990  function hasRole(bytes32 role, address account) public view virtual returns (bool) {... */\n    tag_95:\n        /* \"@openzeppelin/contracts/access/AccessControl.sol\":2931:2935  bool */\n      0x00\n        /* \"@openzeppelin/contracts/access/AccessControl.sol\":2954:2960  _roles */\n      dup1\n        /* \"@openzeppelin/contracts/access/AccessControl.sol\":2954:2966  _roles[role] */\n      0x00\n        /* \"@openzeppelin/contracts/access/AccessControl.sol\":2961:2965  role */\n      dup5\n        /* \"@openzeppelin/contracts/access/AccessControl.sol\":2954:2966  _roles[role] */\n      dup2\n      mstore\n      0x20\n      add\n      swap1\n      dup2\n      mstore\n      0x20\n      add\n      0x00\n      keccak256\n        /* \"@openzeppelin/contracts/access/AccessControl.sol\":2954:2974  _roles[role].hasRole */\n      0x00\n      add\n        /* \"@openzeppelin/contracts/access/AccessControl.sol\":2954:2983  _roles[role].hasRole[account] */\n      0x00\n        /* \"@openzeppelin/contracts/access/AccessControl.sol\":2975:2982  account */\n      dup4\n        /* \"@openzeppelin/contracts/access/AccessControl.sol\":2954:2983  _roles[role].hasRole[account] */\n      0xffffffffffffffffffffffffffffffffffffffff\n      and\n      0xffffffffffffffffffffffffffffffffffffffff\n      and\n      dup2\n      mstore\n      0x20\n      add\n      swap1\n      dup2\n      mstore\n      0x20\n      add\n      0x00\n      keccak256\n      0x00\n      swap1\n      sload\n      swap1\n      0x0100\n      exp\n      swap1\n      div\n      0xff\n      and\n        /* \"@openzeppelin/contracts/access/AccessControl.sol\":2947:2983  return _roles[role].hasRole[account] */\n      swap1\n      pop\n        /* \"@openzeppelin/contracts/access/AccessControl.sol\":2854:2990  function hasRole(bytes32 role, address account) public view virtual returns (bool) {... */\n      swap3\n      swap2\n      pop\n      pop\n      jump\t// out\n        /* \"Rolemanager.sol\":904:975  mapping(address => mapping(bytes32 => RoleRequest)) public roleRequests */\n    tag_99:\n      mstore(0x20, 0x02)\n      dup2\n      0x00\n      mstore\n      mstore(0x20, keccak256(0x00, 0x40))\n      dup1\n      0x00\n      mstore\n      keccak256(0x00, 0x40)\n      0x00\n      swap2\n      pop\n      swap2\n      pop\n      pop\n      dup1\n      0x00\n      add\n      0x00\n      swap1\n      sload\n      swap1\n      0x0100\n      exp\n      swap1\n      div\n      0xffffffffffffffffffffffffffffffffffffffff\n      and\n      swap1\n      dup1\n      0x01\n      add\n      sload\n      swap1\n      dup1\n      0x02\n      add\n      dup1\n      sload\n      tag_219\n      swap1\n      tag_122\n      jump\t// in\n    tag_219:\n      dup1\n      0x1f\n      add\n      0x20\n      dup1\n      swap2\n      div\n      mul\n      0x20\n      add\n      mload(0x40)\n      swap1\n      dup2\n      add\n      0x40\n      mstore\n      dup1\n      swap3\n      swap2\n      swap1\n      dup2\n      dup2\n      mstore\n      0x20\n      add\n      dup3\n      dup1\n      sload\n      tag_220\n      swap1\n      tag_122\n      jump\t// in\n    tag_220:\n      dup1\n      iszero\n      tag_221\n      jumpi\n      dup1\n      0x1f\n      lt\n      tag_222\n      jumpi\n      0x0100\n      dup1\n      dup4\n      sload\n      div\n      mul\n      dup4\n      mstore\n      swap2\n      0x20\n      add\n      swap2\n      jump(tag_221)\n    tag_222:\n      dup3\n      add\n      swap2\n      swap1\n      0x00\n      mstore\n      keccak256(0x00, 0x20)\n      swap1\n    tag_223:\n      dup2\n      sload\n      dup2\n      mstore\n      swap1\n      0x01\n      add\n      swap1\n      0x20\n      add\n      dup1\n      dup4\n      gt\n      tag_223\n      jumpi\n      dup3\n      swap1\n      sub\n      0x1f\n      and\n      dup3\n      add\n      swap2\n    tag_221:\n      pop\n      pop\n      pop\n      pop\n      pop\n      swap1\n      dup1\n      0x03\n      add\n      0x00\n      swap1\n      sload\n      swap1\n      0x0100\n      exp\n      swap1\n      div\n      0xff\n      and\n      swap1\n      dup1\n      0x03\n      add\n      0x01\n      swap1\n      sload\n      swap1\n      0x0100\n      exp\n      swap1\n      div\n      0xff\n      and\n      swap1\n      pop\n      dup6\n      jump\t// out\n        /* \"Rolemanager.sol\":326:396  bytes32 public constant WALL_OWNER_ROLE = keccak256(\"WALL_OWNER_ROLE\") */\n    tag_102:\n        /* \"Rolemanager.sol\":368:396  keccak256(\"WALL_OWNER_ROLE\") */\n      0x329c74013ba5a00a181f8b3dc9d0ae428c8a88ad0625246c0382e31759b580db\n        /* \"Rolemanager.sol\":326:396  bytes32 public constant WALL_OWNER_ROLE = keccak256(\"WALL_OWNER_ROLE\") */\n      dup2\n      jump\t// out\n        /* \"@openzeppelin/contracts/access/AccessControl.sol\":2187:2236  bytes32 public constant DEFAULT_ADMIN_ROLE = 0x00 */\n    tag_105:\n        /* \"@openzeppelin/contracts/access/AccessControl.sol\":2232:2236  0x00 */\n      0x00\n        /* \"@openzeppelin/contracts/access/AccessControl.sol\":2187:2236  bytes32 public constant DEFAULT_ADMIN_ROLE = 0x00 */\n      dup1\n      shl\n      dup2\n      jump\t// out\n        /* \"Rolemanager.sol\":3406:3893  function rejectRoleRequest(address _requester, bytes32 _role) public onlyRole(ADMIN_ROLE) whenNotPaused {... */\n    tag_109:\n        /* \"Rolemanager.sol\":296:319  keccak256(\"ADMIN_ROLE\") */\n      0xa49807205ce4d355092ef5a8a18f56e8913cf4a201fbe287825b095693c21775\n        /* \"@openzeppelin/contracts/access/AccessControl.sol\":2464:2480  _checkRole(role) */\n      tag_225\n        /* \"@openzeppelin/contracts/access/AccessControl.sol\":2475:2479  role */\n      dup2\n        /* \"@openzeppelin/contracts/access/AccessControl.sol\":2464:2474  _checkRole */\n      tag_129\n        /* \"@openzeppelin/contracts/access/AccessControl.sol\":2464:2480  _checkRole(role) */\n      jump\t// in\n    tag_225:\n        /* \"@openzeppelin/contracts/security/Pausable.sol\":1239:1258  _requireNotPaused() */\n      tag_227\n        /* \"@openzeppelin/contracts/security/Pausable.sol\":1239:1256  _requireNotPaused */\n      tag_132\n        /* \"@openzeppelin/contracts/security/Pausable.sol\":1239:1258  _requireNotPaused() */\n      jump\t// in\n    tag_227:\n        /* \"Rolemanager.sol\":3551:3552  0 */\n      0x00\n        /* \"Rolemanager.sol\":3529:3553  _requester != address(0) */\n      0xffffffffffffffffffffffffffffffffffffffff\n      and\n        /* \"Rolemanager.sol\":3529:3539  _requester */\n      dup4\n        /* \"Rolemanager.sol\":3529:3553  _requester != address(0) */\n      0xffffffffffffffffffffffffffffffffffffffff\n      and\n      sub\n        /* \"Rolemanager.sol\":3521:3573  require(_requester != address(0), \"Invalid address\") */\n      tag_229\n      jumpi\n      mload(0x40)\n      0x08c379a000000000000000000000000000000000000000000000000000000000\n      dup2\n      mstore\n      0x04\n      add\n      tag_230\n      swap1\n      tag_136\n      jump\t// in\n    tag_230:\n      mload(0x40)\n      dup1\n      swap2\n      sub\n      swap1\n      revert\n    tag_229:\n        /* \"Rolemanager.sol\":3584:3611  RoleRequest storage request */\n      0x00\n        /* \"Rolemanager.sol\":3614:3626  roleRequests */\n      0x02\n        /* \"Rolemanager.sol\":3614:3638  roleRequests[_requester] */\n      0x00\n        /* \"Rolemanager.sol\":3627:3637  _requester */\n      dup6\n        /* \"Rolemanager.sol\":3614:3638  roleRequests[_requester] */\n      0xffffffffffffffffffffffffffffffffffffffff\n      and\n      0xffffffffffffffffffffffffffffffffffffffff\n      and\n      dup2\n      mstore\n      0x20\n      add\n      swap1\n      dup2\n      mstore\n      0x20\n      add\n      0x00\n      keccak256\n        /* \"Rolemanager.sol\":3614:3645  roleRequests[_requester][_role] */\n      0x00\n        /* \"Rolemanager.sol\":3639:3644  _role */\n      dup5\n        /* \"Rolemanager.sol\":3614:3645  roleRequests[_requester][_role] */\n      dup2\n      mstore\n      0x20\n      add\n      swap1\n      dup2\n      mstore\n      0x20\n      add\n      0x00\n      keccak256\n        /* \"Rolemanager.sol\":3584:3645  RoleRequest storage request = roleRequests[_requester][_role] */\n      swap1\n      pop\n        /* \"Rolemanager.sol\":3664:3671  request */\n      dup1\n        /* \"Rolemanager.sol\":3664:3679  request.pending */\n      0x03\n      add\n      0x00\n      swap1\n      sload\n      swap1\n      0x0100\n      exp\n      swap1\n      div\n      0xff\n      and\n        /* \"Rolemanager.sol\":3656:3702  require(request.pending, \"No pending request\") */\n      tag_231\n      jumpi\n      mload(0x40)\n      0x08c379a000000000000000000000000000000000000000000000000000000000\n      dup2\n      mstore\n      0x04\n      add\n      tag_232\n      swap1\n      tag_158\n      jump\t// in\n    tag_232:\n      mload(0x40)\n      dup1\n      swap2\n      sub\n      swap1\n      revert\n    tag_231:\n        /* \"Rolemanager.sol\":3733:3738  false */\n      0x00\n        /* \"Rolemanager.sol\":3715:3722  request */\n      dup2\n        /* \"Rolemanager.sol\":3715:3730  request.pending */\n      0x03\n      add\n      0x00\n        /* \"Rolemanager.sol\":3715:3738  request.pending = false */\n      0x0100\n      exp\n      dup2\n      sload\n      dup2\n      0xff\n      mul\n      not\n      and\n      swap1\n      dup4\n      iszero\n      iszero\n      mul\n      or\n      swap1\n      sstore\n      pop\n        /* \"Rolemanager.sol\":3768:3773  false */\n      0x00\n        /* \"Rolemanager.sol\":3749:3756  request */\n      dup2\n        /* \"Rolemanager.sol\":3749:3765  request.approved */\n      0x03\n      add\n      0x01\n        /* \"Rolemanager.sol\":3749:3773  request.approved = false */\n      0x0100\n      exp\n      dup2\n      sload\n      dup2\n      0xff\n      mul\n      not\n      and\n      swap1\n      dup4\n      iszero\n      iszero\n      mul\n      or\n      swap1\n      sstore\n      pop\n        /* \"Rolemanager.sol\":3784:3829  _removeFromPendingRequests(_requester, _role) */\n      tag_233\n        /* \"Rolemanager.sol\":3811:3821  _requester */\n      dup5\n        /* \"Rolemanager.sol\":3823:3828  _role */\n      dup5\n        /* \"Rolemanager.sol\":3784:3810  _removeFromPendingRequests */\n      tag_160\n        /* \"Rolemanager.sol\":3784:3829  _removeFromPendingRequests(_requester, _role) */\n      jump\t// in\n    tag_233:\n        /* \"Rolemanager.sol\":3879:3884  _role */\n      dup3\n        /* \"Rolemanager.sol\":3867:3877  _requester */\n      dup5\n        /* \"Rolemanager.sol\":3847:3885  RoleRequestRejected(_requester, _role) */\n      0xffffffffffffffffffffffffffffffffffffffff\n      and\n      0x4b685ab8ace04ef41f36cfa424816013417e507b3c57629fdd55778c29587527\n      mload(0x40)\n      mload(0x40)\n      dup1\n      swap2\n      sub\n      swap1\n      log3\n        /* \"Rolemanager.sol\":3510:3893  {... */\n      pop\n        /* \"Rolemanager.sol\":3406:3893  function rejectRoleRequest(address _requester, bytes32 _role) public onlyRole(ADMIN_ROLE) whenNotPaused {... */\n      pop\n      pop\n      pop\n      jump\t// out\n        /* \"Rolemanager.sol\":557:621  bytes32 public constant SPONSOR_ROLE = keccak256(\"SPONSOR_ROLE\") */\n    tag_111:\n        /* \"Rolemanager.sol\":596:621  keccak256(\"SPONSOR_ROLE\") */\n      0x1597bc5e34ff090612f53164e4e642d2ab4fc78bffe19ed1b602a0d12559561a\n        /* \"Rolemanager.sol\":557:621  bytes32 public constant SPONSOR_ROLE = keccak256(\"SPONSOR_ROLE\") */\n      dup2\n      jump\t// out\n        /* \"@openzeppelin/contracts/access/AccessControl.sol\":4642:4780  function revokeRole(bytes32 role, address account) public virtual onlyRole(getRoleAdmin(role)) {... */\n    tag_115:\n        /* \"@openzeppelin/contracts/access/AccessControl.sol\":4717:4735  getRoleAdmin(role) */\n      tag_234\n        /* \"@openzeppelin/contracts/access/AccessControl.sol\":4730:4734  role */\n      dup3\n        /* \"@openzeppelin/contracts/access/AccessControl.sol\":4717:4729  getRoleAdmin */\n      tag_51\n        /* \"@openzeppelin/contracts/access/AccessControl.sol\":4717:4735  getRoleAdmin(role) */\n      jump\t// in\n    tag_234:\n        /* \"@openzeppelin/contracts/access/AccessControl.sol\":2464:2480  _checkRole(role) */\n      tag_236\n        /* \"@openzeppelin/contracts/access/AccessControl.sol\":2475:2479  role */\n      dup2\n        /* \"@openzeppelin/contracts/access/AccessControl.sol\":2464:2474  _checkRole */\n      tag_129\n        /* \"@openzeppelin/contracts/access/AccessControl.sol\":2464:2480  _checkRole(role) */\n      jump\t// in\n    tag_236:\n        /* \"@openzeppelin/contracts/access/AccessControl.sol\":4747:4773  _revokeRole(role, account) */\n      tag_238\n        /* \"@openzeppelin/contracts/access/AccessControl.sol\":4759:4763  role */\n      dup4\n        /* \"@openzeppelin/contracts/access/AccessControl.sol\":4765:4772  account */\n      dup4\n        /* \"@openzeppelin/contracts/access/AccessControl.sol\":4747:4758  _revokeRole */\n      tag_147\n        /* \"@openzeppelin/contracts/access/AccessControl.sol\":4747:4773  _revokeRole(role, account) */\n      jump\t// in\n    tag_238:\n      pop\n        /* \"@openzeppelin/contracts/access/AccessControl.sol\":4642:4780  function revokeRole(bytes32 role, address account) public virtual onlyRole(getRoleAdmin(role)) {... */\n      pop\n      pop\n      pop\n      jump\t// out\n        /* \"@openzeppelin/contracts/utils/introspection/ERC165.sol\":763:909  function supportsInterface(bytes4 interfaceId) public view virtual returns (bool) {... */\n    tag_119:\n        /* \"@openzeppelin/contracts/utils/introspection/ERC165.sol\":839:843  bool */\n      0x00\n        /* \"@openzeppelin/contracts/utils/introspection/ERC165.sol\":877:902  type(IERC165).interfaceId */\n      0x01ffc9a700000000000000000000000000000000000000000000000000000000\n        /* \"@openzeppelin/contracts/utils/introspection/ERC165.sol\":862:902  interfaceId == type(IERC165).interfaceId */\n      not(0xffffffffffffffffffffffffffffffffffffffffffffffffffffffff)\n      and\n        /* \"@openzeppelin/contracts/utils/introspection/ERC165.sol\":862:873  interfaceId */\n      dup3\n        /* \"@openzeppelin/contracts/utils/introspection/ERC165.sol\":862:902  interfaceId == type(IERC165).interfaceId */\n      not(0xffffffffffffffffffffffffffffffffffffffffffffffffffffffff)\n      and\n      eq\n        /* \"@openzeppelin/contracts/utils/introspection/ERC165.sol\":855:902  return interfaceId == type(IERC165).interfaceId */\n      swap1\n      pop\n        /* \"@openzeppelin/contracts/utils/introspection/ERC165.sol\":763:909  function supportsInterface(bytes4 interfaceId) public view virtual returns (bool) {... */\n      swap2\n      swap1\n      pop\n      jump\t// out\n        /* \"@openzeppelin/contracts/access/AccessControl.sol\":3199:3302  function _checkRole(bytes32 role) internal view virtual {... */\n    tag_129:\n        /* \"@openzeppelin/contracts/access/AccessControl.sol\":3265:3295  _checkRole(role, _msgSender()) */\n      tag_241\n        /* \"@openzeppelin/contracts/access/AccessControl.sol\":3276:3280  role */\n      dup2\n        /* \"@openzeppelin/contracts/access/AccessControl.sol\":3282:3294  _msgSender() */\n      tag_242\n        /* \"@openzeppelin/contracts/access/AccessControl.sol\":3282:3292  _msgSender */\n      tag_169\n        /* \"@openzeppelin/contracts/access/AccessControl.sol\":3282:3294  _msgSender() */\n      jump\t// in\n    tag_242:\n        /* \"@openzeppelin/contracts/access/AccessControl.sol\":3265:3275  _checkRole */\n      tag_243\n        /* \"@openzeppelin/contracts/access/AccessControl.sol\":3265:3295  _checkRole(role, _msgSender()) */\n      jump\t// in\n    tag_241:\n        /* \"@openzeppelin/contracts/access/AccessControl.sol\":3199:3302  function _checkRole(bytes32 role) internal view virtual {... */\n      pop\n      jump\t// out\n        /* \"@openzeppelin/contracts/security/Pausable.sol\":1767:1873  function _requireNotPaused() internal view virtual {... */\n    tag_132:\n        /* \"@openzeppelin/contracts/security/Pausable.sol\":1837:1845  paused() */\n      tag_245\n        /* \"@openzeppelin/contracts/security/Pausable.sol\":1837:1843  paused */\n      tag_75\n        /* \"@openzeppelin/contracts/security/Pausable.sol\":1837:1845  paused() */\n      jump\t// in\n    tag_245:\n        /* \"@openzeppelin/contracts/security/Pausable.sol\":1836:1845  !paused() */\n      iszero\n        /* \"@openzeppelin/contracts/security/Pausable.sol\":1828:1866  require(!paused(), \"Pausable: paused\") */\n      tag_246\n      jumpi\n      mload(0x40)\n      0x08c379a000000000000000000000000000000000000000000000000000000000\n      dup2\n      mstore\n      0x04\n      add\n      tag_247\n      swap1\n      tag_248\n      jump\t// in\n    tag_247:\n      mload(0x40)\n      dup1\n      swap2\n      sub\n      swap1\n      revert\n    tag_246:\n        /* \"@openzeppelin/contracts/security/Pausable.sol\":1767:1873  function _requireNotPaused() internal view virtual {... */\n      jump\t// out\n        /* \"@openzeppelin/contracts/access/AccessControl.sol\":6179:6495  function _grantRole(bytes32 role, address account) internal virtual returns (bool) {... */\n    tag_138:\n        /* \"@openzeppelin/contracts/access/AccessControl.sol\":6256:6260  bool */\n      0x00\n        /* \"@openzeppelin/contracts/access/AccessControl.sol\":6277:6299  hasRole(role, account) */\n      tag_250\n        /* \"@openzeppelin/contracts/access/AccessControl.sol\":6285:6289  role */\n      dup4\n        /* \"@openzeppelin/contracts/access/AccessControl.sol\":6291:6298  account */\n      dup4\n        /* \"@openzeppelin/contracts/access/AccessControl.sol\":6277:6284  hasRole */\n      tag_95\n        /* \"@openzeppelin/contracts/access/AccessControl.sol\":6277:6299  hasRole(role, account) */\n      jump\t// in\n    tag_250:\n        /* \"@openzeppelin/contracts/access/AccessControl.sol\":6272:6489  if (!hasRole(role, account)) {... */\n      tag_251\n      jumpi\n        /* \"@openzeppelin/contracts/access/AccessControl.sol\":6347:6351  true */\n      0x01\n        /* \"@openzeppelin/contracts/access/AccessControl.sol\":6315:6321  _roles */\n      0x00\n        /* \"@openzeppelin/contracts/access/AccessControl.sol\":6315:6327  _roles[role] */\n      dup1\n        /* \"@openzeppelin/contracts/access/AccessControl.sol\":6322:6326  role */\n      dup6\n        /* \"@openzeppelin/contracts/access/AccessControl.sol\":6315:6327  _roles[role] */\n      dup2\n      mstore\n      0x20\n      add\n      swap1\n      dup2\n      mstore\n      0x20\n      add\n      0x00\n      keccak256\n        /* \"@openzeppelin/contracts/access/AccessControl.sol\":6315:6335  _roles[role].hasRole */\n      0x00\n      add\n        /* \"@openzeppelin/contracts/access/AccessControl.sol\":6315:6344  _roles[role].hasRole[account] */\n      0x00\n        /* \"@openzeppelin/contracts/access/AccessControl.sol\":6336:6343  account */\n      dup5\n        /* \"@openzeppelin/contracts/access/AccessControl.sol\":6315:6344  _roles[role].hasRole[account] */\n      0xffffffffffffffffffffffffffffffffffffffff\n      and\n      0xffffffffffffffffffffffffffffffffffffffff\n      and\n      dup2\n      mstore\n      0x20\n      add\n      swap1\n      dup2\n      mstore\n      0x20\n      add\n      0x00\n      keccak256\n      0x00\n        /* \"@openzeppelin/contracts/access/AccessControl.sol\":6315:6351  _roles[role].hasRole[account] = true */\n      0x0100\n      exp\n      dup2\n      sload\n      dup2\n      0xff\n      mul\n      not\n      and\n      swap1\n      dup4\n      iszero\n      iszero\n      mul\n      or\n      swap1\n      sstore\n      pop\n        /* \"@openzeppelin/contracts/access/AccessControl.sol\":6397:6409  _msgSender() */\n      tag_252\n        /* \"@openzeppelin/contracts/access/AccessControl.sol\":6397:6407  _msgSender */\n      tag_169\n        /* \"@openzeppelin/contracts/access/AccessControl.sol\":6397:6409  _msgSender() */\n      jump\t// in\n    tag_252:\n        /* \"@openzeppelin/contracts/access/AccessControl.sol\":6370:6410  RoleGranted(role, account, _msgSender()) */\n      0xffffffffffffffffffffffffffffffffffffffff\n      and\n        /* \"@openzeppelin/contracts/access/AccessControl.sol\":6388:6395  account */\n      dup3\n        /* \"@openzeppelin/contracts/access/AccessControl.sol\":6370:6410  RoleGranted(role, account, _msgSender()) */\n      0xffffffffffffffffffffffffffffffffffffffff\n      and\n        /* \"@openzeppelin/contracts/access/AccessControl.sol\":6382:6386  role */\n      dup5\n        /* \"@openzeppelin/contracts/access/AccessControl.sol\":6370:6410  RoleGranted(role, account, _msgSender()) */\n      0x2f8788117e7eff1d82e926ec794901d17c78024a50270940304540a733656f0d\n      mload(0x40)\n      mload(0x40)\n      dup1\n      swap2\n      sub\n      swap1\n      log4\n        /* \"@openzeppelin/contracts/access/AccessControl.sol\":6431:6435  true */\n      0x01\n        /* \"@openzeppelin/contracts/access/AccessControl.sol\":6424:6435  return true */\n      swap1\n      pop\n      jump(tag_249)\n        /* \"@openzeppelin/contracts/access/AccessControl.sol\":6272:6489  if (!hasRole(role, account)) {... */\n    tag_251:\n        /* \"@openzeppelin/contracts/access/AccessControl.sol\":6473:6478  false */\n      0x00\n        /* \"@openzeppelin/contracts/access/AccessControl.sol\":6466:6478  return false */\n      swap1\n      pop\n        /* \"@openzeppelin/contracts/access/AccessControl.sol\":6179:6495  function _grantRole(bytes32 role, address account) internal virtual returns (bool) {... */\n    tag_249:\n      swap3\n      swap2\n      pop\n      pop\n      jump\t// out\n        /* \"@openzeppelin/contracts/access/AccessControl.sol\":6730:7047  function _revokeRole(bytes32 role, address account) internal virtual returns (bool) {... */\n    tag_147:\n        /* \"@openzeppelin/contracts/access/AccessControl.sol\":6808:6812  bool */\n      0x00\n        /* \"@openzeppelin/contracts/access/AccessControl.sol\":6828:6850  hasRole(role, account) */\n      tag_255\n        /* \"@openzeppelin/contracts/access/AccessControl.sol\":6836:6840  role */\n      dup4\n        /* \"@openzeppelin/contracts/access/AccessControl.sol\":6842:6849  account */\n      dup4\n        /* \"@openzeppelin/contracts/access/AccessControl.sol\":6828:6835  hasRole */\n      tag_95\n        /* \"@openzeppelin/contracts/access/AccessControl.sol\":6828:6850  hasRole(role, account) */\n      jump\t// in\n    tag_255:\n        /* \"@openzeppelin/contracts/access/AccessControl.sol\":6824:7041  if (hasRole(role, account)) {... */\n      iszero\n      tag_256\n      jumpi\n        /* \"@openzeppelin/contracts/access/AccessControl.sol\":6898:6903  false */\n      0x00\n        /* \"@openzeppelin/contracts/access/AccessControl.sol\":6866:6872  _roles */\n      dup1\n        /* \"@openzeppelin/contracts/access/AccessControl.sol\":6866:6878  _roles[role] */\n      0x00\n        /* \"@openzeppelin/contracts/access/AccessControl.sol\":6873:6877  role */\n      dup6\n        /* \"@openzeppelin/contracts/access/AccessControl.sol\":6866:6878  _roles[role] */\n      dup2\n      mstore\n      0x20\n      add\n      swap1\n      dup2\n      mstore\n      0x20\n      add\n      0x00\n      keccak256\n        /* \"@openzeppelin/contracts/access/AccessControl.sol\":6866:6886  _roles[role].hasRole */\n      0x00\n      add\n        /* \"@openzeppelin/contracts/access/AccessControl.sol\":6866:6895  _roles[role].hasRole[account] */\n      0x00\n        /* \"@openzeppelin/contracts/access/AccessControl.sol\":6887:6894  account */\n      dup5\n        /* \"@openzeppelin/contracts/access/AccessControl.sol\":6866:6895  _roles[role].hasRole[account] */\n      0xffffffffffffffffffffffffffffffffffffffff\n      and\n      0xffffffffffffffffffffffffffffffffffffffff\n      and\n      dup2\n      mstore\n      0x20\n      add\n      swap1\n      dup2\n      mstore\n      0x20\n      add\n      0x00\n      keccak256\n      0x00\n        /* \"@openzeppelin/contracts/access/AccessControl.sol\":6866:6903  _roles[role].hasRole[account] = false */\n      0x0100\n      exp\n      dup2\n      sload\n      dup2\n      0xff\n      mul\n      not\n      and\n      swap1\n      dup4\n      iszero\n      iszero\n      mul\n      or\n      swap1\n      sstore\n      pop\n        /* \"@openzeppelin/contracts/access/AccessControl.sol\":6949:6961  _msgSender() */\n      tag_257\n        /* \"@openzeppelin/contracts/access/AccessControl.sol\":6949:6959  _msgSender */\n      tag_169\n        /* \"@openzeppelin/contracts/access/AccessControl.sol\":6949:6961  _msgSender() */\n      jump\t// in\n    tag_257:\n        /* \"@openzeppelin/contracts/access/AccessControl.sol\":6922:6962  RoleRevoked(role, account, _msgSender()) */\n      0xffffffffffffffffffffffffffffffffffffffff\n      and\n        /* \"@openzeppelin/contracts/access/AccessControl.sol\":6940:6947  account */\n      dup3\n        /* \"@openzeppelin/contracts/access/AccessControl.sol\":6922:6962  RoleRevoked(role, account, _msgSender()) */\n      0xffffffffffffffffffffffffffffffffffffffff\n      and\n        /* \"@openzeppelin/contracts/access/AccessControl.sol\":6934:6938  role */\n      dup5\n        /* \"@openzeppelin/contracts/access/AccessControl.sol\":6922:6962  RoleRevoked(role, account, _msgSender()) */\n      0xf6391f5c32d9c69d2a47ea670b442974b53935d1edc7fd64eb21e047a839171b\n      mload(0x40)\n      mload(0x40)\n      dup1\n      swap2\n      sub\n      swap1\n      log4\n        /* \"@openzeppelin/contracts/access/AccessControl.sol\":6983:6987  true */\n      0x01\n        /* \"@openzeppelin/contracts/access/AccessControl.sol\":6976:6987  return true */\n      swap1\n      pop\n      jump(tag_254)\n        /* \"@openzeppelin/contracts/access/AccessControl.sol\":6824:7041  if (hasRole(role, account)) {... */\n    tag_256:\n        /* \"@openzeppelin/contracts/access/AccessControl.sol\":7025:7030  false */\n      0x00\n        /* \"@openzeppelin/contracts/access/AccessControl.sol\":7018:7030  return false */\n      swap1\n      pop\n        /* \"@openzeppelin/contracts/access/AccessControl.sol\":6730:7047  function _revokeRole(bytes32 role, address account) internal virtual returns (bool) {... */\n    tag_254:\n      swap3\n      swap2\n      pop\n      pop\n      jump\t// out\n        /* \"Rolemanager.sol\":5482:5974  function _removeFromPendingRequests(address _requester, bytes32 _role) private {... */\n    tag_160:\n        /* \"Rolemanager.sol\":5577:5583  uint i */\n      0x00\n        /* \"Rolemanager.sol\":5572:5967  for (uint i = 0; i < pendingRequests.length; i++) {... */\n    tag_260:\n        /* \"Rolemanager.sol\":5593:5608  pendingRequests */\n      0x03\n        /* \"Rolemanager.sol\":5593:5615  pendingRequests.length */\n      dup1\n      sload\n      swap1\n      pop\n        /* \"Rolemanager.sol\":5589:5590  i */\n      dup2\n        /* \"Rolemanager.sol\":5589:5615  i < pendingRequests.length */\n      lt\n        /* \"Rolemanager.sol\":5572:5967  for (uint i = 0; i < pendingRequests.length; i++) {... */\n      iszero\n      tag_261\n      jumpi\n        /* \"Rolemanager.sol\":5673:5683  _requester */\n      dup3\n        /* \"Rolemanager.sol\":5641:5683  pendingRequests[i].requester == _requester */\n      0xffffffffffffffffffffffffffffffffffffffff\n      and\n        /* \"Rolemanager.sol\":5641:5656  pendingRequests */\n      0x03\n        /* \"Rolemanager.sol\":5657:5658  i */\n      dup3\n        /* \"Rolemanager.sol\":5641:5659  pendingRequests[i] */\n      dup2\n      sload\n      dup2\n      lt\n      tag_263\n      jumpi\n      tag_264\n      tag_265\n      jump\t// in\n    tag_264:\n    tag_263:\n      swap1\n      0x00\n      mstore\n      keccak256(0x00, 0x20)\n      swap1\n      0x04\n      mul\n      add\n        /* \"Rolemanager.sol\":5641:5669  pendingRequests[i].requester */\n      0x00\n      add\n      0x00\n      swap1\n      sload\n      swap1\n      0x0100\n      exp\n      swap1\n      div\n      0xffffffffffffffffffffffffffffffffffffffff\n      and\n        /* \"Rolemanager.sol\":5641:5683  pendingRequests[i].requester == _requester */\n      0xffffffffffffffffffffffffffffffffffffffff\n      and\n      eq\n        /* \"Rolemanager.sol\":5641:5719  pendingRequests[i].requester == _requester && pendingRequests[i].role == _role */\n      dup1\n      iszero\n      tag_267\n      jumpi\n      pop\n        /* \"Rolemanager.sol\":5714:5719  _role */\n      dup2\n        /* \"Rolemanager.sol\":5687:5702  pendingRequests */\n      0x03\n        /* \"Rolemanager.sol\":5703:5704  i */\n      dup3\n        /* \"Rolemanager.sol\":5687:5705  pendingRequests[i] */\n      dup2\n      sload\n      dup2\n      lt\n      tag_268\n      jumpi\n      tag_269\n      tag_265\n      jump\t// in\n    tag_269:\n    tag_268:\n      swap1\n      0x00\n      mstore\n      keccak256(0x00, 0x20)\n      swap1\n      0x04\n      mul\n      add\n        /* \"Rolemanager.sol\":5687:5710  pendingRequests[i].role */\n      0x01\n      add\n      sload\n        /* \"Rolemanager.sol\":5687:5719  pendingRequests[i].role == _role */\n      eq\n        /* \"Rolemanager.sol\":5641:5719  pendingRequests[i].requester == _requester && pendingRequests[i].role == _role */\n    tag_267:\n        /* \"Rolemanager.sol\":5637:5956  if (pendingRequests[i].requester == _requester && pendingRequests[i].role == _role) {... */\n      iszero\n      tag_271\n      jumpi\n        /* \"Rolemanager.sol\":5833:5848  pendingRequests */\n      0x03\n        /* \"Rolemanager.sol\":5874:5875  1 */\n      0x01\n        /* \"Rolemanager.sol\":5849:5864  pendingRequests */\n      0x03\n        /* \"Rolemanager.sol\":5849:5871  pendingRequests.length */\n      dup1\n      sload\n      swap1\n      pop\n        /* \"Rolemanager.sol\":5849:5875  pendingRequests.length - 1 */\n      tag_272\n      swap2\n      swap1\n      tag_273\n      jump\t// in\n    tag_272:\n        /* \"Rolemanager.sol\":5833:5876  pendingRequests[pendingRequests.length - 1] */\n      dup2\n      sload\n      dup2\n      lt\n      tag_274\n      jumpi\n      tag_275\n      tag_265\n      jump\t// in\n    tag_275:\n    tag_274:\n      swap1\n      0x00\n      mstore\n      keccak256(0x00, 0x20)\n      swap1\n      0x04\n      mul\n      add\n        /* \"Rolemanager.sol\":5812:5827  pendingRequests */\n      0x03\n        /* \"Rolemanager.sol\":5828:5829  i */\n      dup3\n        /* \"Rolemanager.sol\":5812:5830  pendingRequests[i] */\n      dup2\n      sload\n      dup2\n      lt\n      tag_277\n      jumpi\n      tag_278\n      tag_265\n      jump\t// in\n    tag_278:\n    tag_277:\n      swap1\n      0x00\n      mstore\n      keccak256(0x00, 0x20)\n      swap1\n      0x04\n      mul\n      add\n        /* \"Rolemanager.sol\":5812:5876  pendingRequests[i] = pendingRequests[pendingRequests.length - 1] */\n      0x00\n      dup3\n      add\n      0x00\n      swap1\n      sload\n      swap1\n      0x0100\n      exp\n      swap1\n      div\n      0xffffffffffffffffffffffffffffffffffffffff\n      and\n      dup2\n      0x00\n      add\n      exp(0x0100, 0x00)\n      dup2\n      sload\n      dup2\n      0xffffffffffffffffffffffffffffffffffffffff\n      mul\n      not\n      and\n      swap1\n      dup4\n      0xffffffffffffffffffffffffffffffffffffffff\n      and\n      mul\n      or\n      swap1\n      sstore\n      pop\n      0x01\n      dup3\n      add\n      sload\n      dup2\n      0x01\n      add\n      sstore\n      0x02\n      dup3\n      add\n      dup2\n      0x02\n      add\n      swap1\n      dup2\n      tag_280\n      swap2\n      swap1\n      tag_281\n      jump\t// in\n    tag_280:\n      pop\n      0x03\n      dup3\n      add\n      0x00\n      swap1\n      sload\n      swap1\n      0x0100\n      exp\n      swap1\n      div\n      0xff\n      and\n      dup2\n      0x03\n      add\n      exp(0x0100, 0x00)\n      dup2\n      sload\n      dup2\n      0xff\n      mul\n      not\n      and\n      swap1\n      dup4\n      iszero\n      iszero\n      mul\n      or\n      swap1\n      sstore\n      pop\n      0x03\n      dup3\n      add\n      0x01\n      swap1\n      sload\n      swap1\n      0x0100\n      exp\n      swap1\n      div\n      0xff\n      and\n      dup2\n      0x03\n      add\n      exp(0x0100, 0x01)\n      dup2\n      sload\n      dup2\n      0xff\n      mul\n      not\n      and\n      swap1\n      dup4\n      iszero\n      iszero\n      mul\n      or\n      swap1\n      sstore\n      pop\n      swap1\n      pop\n      pop\n        /* \"Rolemanager.sol\":5895:5910  pendingRequests */\n      0x03\n        /* \"Rolemanager.sol\":5895:5916  pendingRequests.pop() */\n      dup1\n      sload\n      dup1\n      tag_282\n      jumpi\n      tag_283\n      tag_284\n      jump\t// in\n    tag_283:\n    tag_282:\n      0x01\n      swap1\n      sub\n      dup2\n      dup2\n      swap1\n      0x00\n      mstore\n      keccak256(0x00, 0x20)\n      swap1\n      0x04\n      mul\n      add\n      0x00\n      dup1\n      dup3\n      add\n      exp(0x0100, 0x00)\n      dup2\n      sload\n      swap1\n      0xffffffffffffffffffffffffffffffffffffffff\n      mul\n      not\n      and\n      swap1\n      sstore\n      0x01\n      dup3\n      add\n      0x00\n      swap1\n      sstore\n      0x02\n      dup3\n      add\n      0x00\n      tag_286\n      swap2\n      swap1\n      tag_287\n      jump\t// in\n    tag_286:\n      0x03\n      dup3\n      add\n      exp(0x0100, 0x00)\n      dup2\n      sload\n      swap1\n      0xff\n      mul\n      not\n      and\n      swap1\n      sstore\n      0x03\n      dup3\n      add\n      exp(0x0100, 0x01)\n      dup2\n      sload\n      swap1\n      0xff\n      mul\n      not\n      and\n      swap1\n      sstore\n      pop\n      pop\n      swap1\n      sstore\n        /* \"Rolemanager.sol\":5935:5940  break */\n      jump(tag_261)\n        /* \"Rolemanager.sol\":5637:5956  if (pendingRequests[i].requester == _requester && pendingRequests[i].role == _role) {... */\n    tag_271:\n        /* \"Rolemanager.sol\":5617:5620  i++ */\n      dup1\n      dup1\n      tag_288\n      swap1\n      tag_289\n      jump\t// in\n    tag_288:\n      swap2\n      pop\n      pop\n        /* \"Rolemanager.sol\":5572:5967  for (uint i = 0; i < pendingRequests.length; i++) {... */\n      jump(tag_260)\n    tag_261:\n      pop\n        /* \"Rolemanager.sol\":5482:5974  function _removeFromPendingRequests(address _requester, bytes32 _role) private {... */\n      pop\n      pop\n      jump\t// out\n        /* \"@openzeppelin/contracts/utils/Context.sol\":656:752  function _msgSender() internal view virtual returns (address) {... */\n    tag_169:\n        /* \"@openzeppelin/contracts/utils/Context.sol\":709:716  address */\n      0x00\n        /* \"@openzeppelin/contracts/utils/Context.sol\":735:745  msg.sender */\n      caller\n        /* \"@openzeppelin/contracts/utils/Context.sol\":728:745  return msg.sender */\n      swap1\n      pop\n        /* \"@openzeppelin/contracts/utils/Context.sol\":656:752  function _msgSender() internal view virtual returns (address) {... */\n      swap1\n      jump\t// out\n        /* \"@openzeppelin/contracts/security/Pausable.sol\":2433:2550  function _unpause() internal virtual whenPaused {... */\n    tag_183:\n        /* \"@openzeppelin/contracts/security/Pausable.sol\":1486:1502  _requirePaused() */\n      tag_292\n        /* \"@openzeppelin/contracts/security/Pausable.sol\":1486:1500  _requirePaused */\n      tag_293\n        /* \"@openzeppelin/contracts/security/Pausable.sol\":1486:1502  _requirePaused() */\n      jump\t// in\n    tag_292:\n        /* \"@openzeppelin/contracts/security/Pausable.sol\":2501:2506  false */\n      0x00\n        /* \"@openzeppelin/contracts/security/Pausable.sol\":2491:2498  _paused */\n      0x01\n      0x00\n        /* \"@openzeppelin/contracts/security/Pausable.sol\":2491:2506  _paused = false */\n      0x0100\n      exp\n      dup2\n      sload\n      dup2\n      0xff\n      mul\n      not\n      and\n      swap1\n      dup4\n      iszero\n      iszero\n      mul\n      or\n      swap1\n      sstore\n      pop\n        /* \"@openzeppelin/contracts/security/Pausable.sol\":2521:2543  Unpaused(_msgSender()) */\n      0x5db9ee0a495bf2e6ff9c91a7834c1ba4fdd244a5e8aa4e537bd38aeae4b073aa\n        /* \"@openzeppelin/contracts/security/Pausable.sol\":2530:2542  _msgSender() */\n      tag_295\n        /* \"@openzeppelin/contracts/security/Pausable.sol\":2530:2540  _msgSender */\n      tag_169\n        /* \"@openzeppelin/contracts/security/Pausable.sol\":2530:2542  _msgSender() */\n      jump\t// in\n    tag_295:\n        /* \"@openzeppelin/contracts/security/Pausable.sol\":2521:2543  Unpaused(_msgSender()) */\n      mload(0x40)\n      tag_296\n      swap2\n      swap1\n      tag_297\n      jump\t// in\n    tag_296:\n      mload(0x40)\n      dup1\n      swap2\n      sub\n      swap1\n      log1\n        /* \"@openzeppelin/contracts/security/Pausable.sol\":2433:2550  function _unpause() internal virtual whenPaused {... */\n      jump\t// out\n        /* \"@openzeppelin/contracts/security/Pausable.sol\":2186:2301  function _pause() internal virtual whenNotPaused {... */\n    tag_217:\n        /* \"@openzeppelin/contracts/security/Pausable.sol\":1239:1258  _requireNotPaused() */\n      tag_299\n        /* \"@openzeppelin/contracts/security/Pausable.sol\":1239:1256  _requireNotPaused */\n      tag_132\n        /* \"@openzeppelin/contracts/security/Pausable.sol\":1239:1258  _requireNotPaused() */\n      jump\t// in\n    tag_299:\n        /* \"@openzeppelin/contracts/security/Pausable.sol\":2255:2259  true */\n      0x01\n        /* \"@openzeppelin/contracts/security/Pausable.sol\":2245:2252  _paused */\n      dup1\n      0x00\n        /* \"@openzeppelin/contracts/security/Pausable.sol\":2245:2259  _paused = true */\n      0x0100\n      exp\n      dup2\n      sload\n      dup2\n      0xff\n      mul\n      not\n      and\n      swap1\n      dup4\n      iszero\n      iszero\n      mul\n      or\n      swap1\n      sstore\n      pop\n        /* \"@openzeppelin/contracts/security/Pausable.sol\":2274:2294  Paused(_msgSender()) */\n      0x62e78cea01bee320cd4e420270b5ea74000d11b0c9f74754ebdbfc544b05a258\n        /* \"@openzeppelin/contracts/security/Pausable.sol\":2281:2293  _msgSender() */\n      tag_301\n        /* \"@openzeppelin/contracts/security/Pausable.sol\":2281:2291  _msgSender */\n      tag_169\n        /* \"@openzeppelin/contracts/security/Pausable.sol\":2281:2293  _msgSender() */\n      jump\t// in\n    tag_301:\n        /* \"@openzeppelin/contracts/security/Pausable.sol\":2274:2294  Paused(_msgSender()) */\n      mload(0x40)\n      tag_302\n      swap2\n      swap1\n      tag_297\n      jump\t// in\n    tag_302:\n      mload(0x40)\n      dup1\n      swap2\n      sub\n      swap1\n      log1\n        /* \"@openzeppelin/contracts/security/Pausable.sol\":2186:2301  function _pause() internal virtual whenNotPaused {... */\n      jump\t// out\n        /* \"@openzeppelin/contracts/access/AccessControl.sol\":3432:3629  function _checkRole(bytes32 role, address account) internal view virtual {... */\n    tag_243:\n        /* \"@openzeppelin/contracts/access/AccessControl.sol\":3520:3542  hasRole(role, account) */\n      tag_304\n        /* \"@openzeppelin/contracts/access/AccessControl.sol\":3528:3532  role */\n      dup3\n        /* \"@openzeppelin/contracts/access/AccessControl.sol\":3534:3541  account */\n      dup3\n        /* \"@openzeppelin/contracts/access/AccessControl.sol\":3520:3527  hasRole */\n      tag_95\n        /* \"@openzeppelin/contracts/access/AccessControl.sol\":3520:3542  hasRole(role, account) */\n      jump\t// in\n    tag_304:\n        /* \"@openzeppelin/contracts/access/AccessControl.sol\":3515:3623  if (!hasRole(role, account)) {... */\n      tag_305\n      jumpi\n        /* \"@openzeppelin/contracts/access/AccessControl.sol\":3598:3605  account */\n      dup1\n        /* \"@openzeppelin/contracts/access/AccessControl.sol\":3607:3611  role */\n      dup3\n        /* \"@openzeppelin/contracts/access/AccessControl.sol\":3565:3612  AccessControlUnauthorizedAccount(account, role) */\n      mload(0x40)\n      0xe2517d3f00000000000000000000000000000000000000000000000000000000\n      dup2\n      mstore\n      0x04\n      add\n      tag_306\n      swap3\n      swap2\n      swap1\n      tag_307\n      jump\t// in\n    tag_306:\n      mload(0x40)\n      dup1\n      swap2\n      sub\n      swap1\n      revert\n        /* \"@openzeppelin/contracts/access/AccessControl.sol\":3515:3623  if (!hasRole(role, account)) {... */\n    tag_305:\n        /* \"@openzeppelin/contracts/access/AccessControl.sol\":3432:3629  function _checkRole(bytes32 role, address account) internal view virtual {... */\n      pop\n      pop\n      jump\t// out\n        /* \"@openzeppelin/contracts/security/Pausable.sol\":1945:2051  function _requirePaused() internal view virtual {... */\n    tag_293:\n        /* \"@openzeppelin/contracts/security/Pausable.sol\":2011:2019  paused() */\n      tag_309\n        /* \"@openzeppelin/contracts/security/Pausable.sol\":2011:2017  paused */\n      tag_75\n        /* \"@openzeppelin/contracts/security/Pausable.sol\":2011:2019  paused() */\n      jump\t// in\n    tag_309:\n        /* \"@openzeppelin/contracts/security/Pausable.sol\":2003:2044  require(paused(), \"Pausable: not paused\") */\n      tag_310\n      jumpi\n      mload(0x40)\n      0x08c379a000000000000000000000000000000000000000000000000000000000\n      dup2\n      mstore\n      0x04\n      add\n      tag_311\n      swap1\n      tag_312\n      jump\t// in\n    tag_311:\n      mload(0x40)\n      dup1\n      swap2\n      sub\n      swap1\n      revert\n    tag_310:\n        /* \"@openzeppelin/contracts/security/Pausable.sol\":1945:2051  function _requirePaused() internal view virtual {... */\n      jump\t// out\n    tag_287:\n      pop\n      dup1\n      sload\n      tag_313\n      swap1\n      tag_122\n      jump\t// in\n    tag_313:\n      0x00\n      dup3\n      sstore\n      dup1\n      0x1f\n      lt\n      tag_315\n      jumpi\n      pop\n      jump(tag_314)\n    tag_315:\n      0x1f\n      add\n      0x20\n      swap1\n      div\n      swap1\n      0x00\n      mstore\n      keccak256(0x00, 0x20)\n      swap1\n      dup2\n      add\n      swap1\n      tag_316\n      swap2\n      swap1\n      tag_317\n      jump\t// in\n    tag_316:\n    tag_314:\n      pop\n      jump\t// out\n    tag_317:\n    tag_318:\n      dup1\n      dup3\n      gt\n      iszero\n      tag_319\n      jumpi\n      0x00\n      dup2\n      0x00\n      swap1\n      sstore\n      pop\n      0x01\n      add\n      jump(tag_318)\n    tag_319:\n      pop\n      swap1\n      jump\t// out\n        /* \"#utility.yul\":7:82   */\n    tag_320:\n        /* \"#utility.yul\":40:46   */\n      0x00\n        /* \"#utility.yul\":73:75   */\n      0x40\n        /* \"#utility.yul\":67:76   */\n      mload\n        /* \"#utility.yul\":57:76   */\n      swap1\n      pop\n        /* \"#utility.yul\":7:82   */\n      swap1\n      jump\t// out\n        /* \"#utility.yul\":88:205   */\n    tag_321:\n        /* \"#utility.yul\":197:198   */\n      0x00\n        /* \"#utility.yul\":194:195   */\n      dup1\n        /* \"#utility.yul\":187:199   */\n      revert\n        /* \"#utility.yul\":211:328   */\n    tag_322:\n        /* \"#utility.yul\":320:321   */\n      0x00\n        /* \"#utility.yul\":317:318   */\n      dup1\n        /* \"#utility.yul\":310:322   */\n      revert\n        /* \"#utility.yul\":334:483   */\n    tag_323:\n        /* \"#utility.yul\":370:377   */\n      0x00\n        /* \"#utility.yul\":410:476   */\n      0xffffffff00000000000000000000000000000000000000000000000000000000\n        /* \"#utility.yul\":403:408   */\n      dup3\n        /* \"#utility.yul\":399:477   */\n      and\n        /* \"#utility.yul\":388:477   */\n      swap1\n      pop\n        /* \"#utility.yul\":334:483   */\n      swap2\n      swap1\n      pop\n      jump\t// out\n        /* \"#utility.yul\":489:609   */\n    tag_324:\n        /* \"#utility.yul\":561:584   */\n      tag_404\n        /* \"#utility.yul\":578:583   */\n      dup2\n        /* \"#utility.yul\":561:584   */\n      tag_323\n      jump\t// in\n    tag_404:\n        /* \"#utility.yul\":554:559   */\n      dup2\n        /* \"#utility.yul\":551:585   */\n      eq\n        /* \"#utility.yul\":541:603   */\n      tag_405\n      jumpi\n        /* \"#utility.yul\":599:600   */\n      0x00\n        /* \"#utility.yul\":596:597   */\n      dup1\n        /* \"#utility.yul\":589:601   */\n      revert\n        /* \"#utility.yul\":541:603   */\n    tag_405:\n        /* \"#utility.yul\":489:609   */\n      pop\n      jump\t// out\n        /* \"#utility.yul\":615:752   */\n    tag_325:\n        /* \"#utility.yul\":660:665   */\n      0x00\n        /* \"#utility.yul\":698:704   */\n      dup2\n        /* \"#utility.yul\":685:705   */\n      calldataload\n        /* \"#utility.yul\":676:705   */\n      swap1\n      pop\n        /* \"#utility.yul\":714:746   */\n      tag_407\n        /* \"#utility.yul\":740:745   */\n      dup2\n        /* \"#utility.yul\":714:746   */\n      tag_324\n      jump\t// in\n    tag_407:\n        /* \"#utility.yul\":615:752   */\n      swap3\n      swap2\n      pop\n      pop\n      jump\t// out\n        /* \"#utility.yul\":758:1085   */\n    tag_32:\n        /* \"#utility.yul\":816:822   */\n      0x00\n        /* \"#utility.yul\":865:867   */\n      0x20\n        /* \"#utility.yul\":853:862   */\n      dup3\n        /* \"#utility.yul\":844:851   */\n      dup5\n        /* \"#utility.yul\":840:863   */\n      sub\n        /* \"#utility.yul\":836:868   */\n      slt\n        /* \"#utility.yul\":833:952   */\n      iszero\n      tag_409\n      jumpi\n        /* \"#utility.yul\":871:950   */\n      tag_410\n      tag_321\n      jump\t// in\n    tag_410:\n        /* \"#utility.yul\":833:952   */\n    tag_409:\n        /* \"#utility.yul\":991:992   */\n      0x00\n        /* \"#utility.yul\":1016:1068   */\n      tag_411\n        /* \"#utility.yul\":1060:1067   */\n      dup5\n        /* \"#utility.yul\":1051:1057   */\n      dup3\n        /* \"#utility.yul\":1040:1049   */\n      dup6\n        /* \"#utility.yul\":1036:1058   */\n      add\n        /* \"#utility.yul\":1016:1068   */\n      tag_325\n      jump\t// in\n    tag_411:\n        /* \"#utility.yul\":1006:1068   */\n      swap2\n      pop\n        /* \"#utility.yul\":962:1078   */\n      pop\n        /* \"#utility.yul\":758:1085   */\n      swap3\n      swap2\n      pop\n      pop\n      jump\t// out\n        /* \"#utility.yul\":1091:1181   */\n    tag_326:\n        /* \"#utility.yul\":1125:1132   */\n      0x00\n        /* \"#utility.yul\":1168:1173   */\n      dup2\n        /* \"#utility.yul\":1161:1174   */\n      iszero\n        /* \"#utility.yul\":1154:1175   */\n      iszero\n        /* \"#utility.yul\":1143:1175   */\n      swap1\n      pop\n        /* \"#utility.yul\":1091:1181   */\n      swap2\n      swap1\n      pop\n      jump\t// out\n        /* \"#utility.yul\":1187:1296   */\n    tag_327:\n        /* \"#utility.yul\":1268:1289   */\n      tag_414\n        /* \"#utility.yul\":1283:1288   */\n      dup2\n        /* \"#utility.yul\":1268:1289   */\n      tag_326\n      jump\t// in\n    tag_414:\n        /* \"#utility.yul\":1263:1266   */\n      dup3\n        /* \"#utility.yul\":1256:1290   */\n      mstore\n        /* \"#utility.yul\":1187:1296   */\n      pop\n      pop\n      jump\t// out\n        /* \"#utility.yul\":1302:1512   */\n    tag_35:\n        /* \"#utility.yul\":1389:1393   */\n      0x00\n        /* \"#utility.yul\":1427:1429   */\n      0x20\n        /* \"#utility.yul\":1416:1425   */\n      dup3\n        /* \"#utility.yul\":1412:1430   */\n      add\n        /* \"#utility.yul\":1404:1430   */\n      swap1\n      pop\n        /* \"#utility.yul\":1440:1505   */\n      tag_416\n        /* \"#utility.yul\":1502:1503   */\n      0x00\n        /* \"#utility.yul\":1491:1500   */\n      dup4\n        /* \"#utility.yul\":1487:1504   */\n      add\n        /* \"#utility.yul\":1478:1484   */\n      dup5\n        /* \"#utility.yul\":1440:1505   */\n      tag_327\n      jump\t// in\n    tag_416:\n        /* \"#utility.yul\":1302:1512   */\n      swap3\n      swap2\n      pop\n      pop\n      jump\t// out\n        /* \"#utility.yul\":1518:1644   */\n    tag_328:\n        /* \"#utility.yul\":1555:1562   */\n      0x00\n        /* \"#utility.yul\":1595:1637   */\n      0xffffffffffffffffffffffffffffffffffffffff\n        /* \"#utility.yul\":1588:1593   */\n      dup3\n        /* \"#utility.yul\":1584:1638   */\n      and\n        /* \"#utility.yul\":1573:1638   */\n      swap1\n      pop\n        /* \"#utility.yul\":1518:1644   */\n      swap2\n      swap1\n      pop\n      jump\t// out\n        /* \"#utility.yul\":1650:1746   */\n    tag_329:\n        /* \"#utility.yul\":1687:1694   */\n      0x00\n        /* \"#utility.yul\":1716:1740   */\n      tag_419\n        /* \"#utility.yul\":1734:1739   */\n      dup3\n        /* \"#utility.yul\":1716:1740   */\n      tag_328\n      jump\t// in\n    tag_419:\n        /* \"#utility.yul\":1705:1740   */\n      swap1\n      pop\n        /* \"#utility.yul\":1650:1746   */\n      swap2\n      swap1\n      pop\n      jump\t// out\n        /* \"#utility.yul\":1752:1874   */\n    tag_330:\n        /* \"#utility.yul\":1825:1849   */\n      tag_421\n        /* \"#utility.yul\":1843:1848   */\n      dup2\n        /* \"#utility.yul\":1825:1849   */\n      tag_329\n      jump\t// in\n    tag_421:\n        /* \"#utility.yul\":1818:1823   */\n      dup2\n        /* \"#utility.yul\":1815:1850   */\n      eq\n        /* \"#utility.yul\":1805:1868   */\n      tag_422\n      jumpi\n        /* \"#utility.yul\":1864:1865   */\n      0x00\n        /* \"#utility.yul\":1861:1862   */\n      dup1\n        /* \"#utility.yul\":1854:1866   */\n      revert\n        /* \"#utility.yul\":1805:1868   */\n    tag_422:\n        /* \"#utility.yul\":1752:1874   */\n      pop\n      jump\t// out\n        /* \"#utility.yul\":1880:2019   */\n    tag_331:\n        /* \"#utility.yul\":1926:1931   */\n      0x00\n        /* \"#utility.yul\":1964:1970   */\n      dup2\n        /* \"#utility.yul\":1951:1971   */\n      calldataload\n        /* \"#utility.yul\":1942:1971   */\n      swap1\n      pop\n        /* \"#utility.yul\":1980:2013   */\n      tag_424\n        /* \"#utility.yul\":2007:2012   */\n      dup2\n        /* \"#utility.yul\":1980:2013   */\n      tag_330\n      jump\t// in\n    tag_424:\n        /* \"#utility.yul\":1880:2019   */\n      swap3\n      swap2\n      pop\n      pop\n      jump\t// out\n        /* \"#utility.yul\":2025:2102   */\n    tag_332:\n        /* \"#utility.yul\":2062:2069   */\n      0x00\n        /* \"#utility.yul\":2091:2096   */\n      dup2\n        /* \"#utility.yul\":2080:2096   */\n      swap1\n      pop\n        /* \"#utility.yul\":2025:2102   */\n      swap2\n      swap1\n      pop\n      jump\t// out\n        /* \"#utility.yul\":2108:2230   */\n    tag_333:\n        /* \"#utility.yul\":2181:2205   */\n      tag_427\n        /* \"#utility.yul\":2199:2204   */\n      dup2\n        /* \"#utility.yul\":2181:2205   */\n      tag_332\n      jump\t// in\n    tag_427:\n        /* \"#utility.yul\":2174:2179   */\n      dup2\n        /* \"#utility.yul\":2171:2206   */\n      eq\n        /* \"#utility.yul\":2161:2224   */\n      tag_428\n      jumpi\n        /* \"#utility.yul\":2220:2221   */\n      0x00\n        /* \"#utility.yul\":2217:2218   */\n      dup1\n        /* \"#utility.yul\":2210:2222   */\n      revert\n        /* \"#utility.yul\":2161:2224   */\n    tag_428:\n        /* \"#utility.yul\":2108:2230   */\n      pop\n      jump\t// out\n        /* \"#utility.yul\":2236:2375   */\n    tag_334:\n        /* \"#utility.yul\":2282:2287   */\n      0x00\n        /* \"#utility.yul\":2320:2326   */\n      dup2\n        /* \"#utility.yul\":2307:2327   */\n      calldataload\n        /* \"#utility.yul\":2298:2327   */\n      swap1\n      pop\n        /* \"#utility.yul\":2336:2369   */\n      tag_430\n        /* \"#utility.yul\":2363:2368   */\n      dup2\n        /* \"#utility.yul\":2336:2369   */\n      tag_333\n      jump\t// in\n    tag_430:\n        /* \"#utility.yul\":2236:2375   */\n      swap3\n      swap2\n      pop\n      pop\n      jump\t// out\n        /* \"#utility.yul\":2381:2855   */\n    tag_38:\n        /* \"#utility.yul\":2449:2455   */\n      0x00\n        /* \"#utility.yul\":2457:2463   */\n      dup1\n        /* \"#utility.yul\":2506:2508   */\n      0x40\n        /* \"#utility.yul\":2494:2503   */\n      dup4\n        /* \"#utility.yul\":2485:2492   */\n      dup6\n        /* \"#utility.yul\":2481:2504   */\n      sub\n        /* \"#utility.yul\":2477:2509   */\n      slt\n        /* \"#utility.yul\":2474:2593   */\n      iszero\n      tag_432\n      jumpi\n        /* \"#utility.yul\":2512:2591   */\n      tag_433\n      tag_321\n      jump\t// in\n    tag_433:\n        /* \"#utility.yul\":2474:2593   */\n    tag_432:\n        /* \"#utility.yul\":2632:2633   */\n      0x00\n        /* \"#utility.yul\":2657:2710   */\n      tag_434\n        /* \"#utility.yul\":2702:2709   */\n      dup6\n        /* \"#utility.yul\":2693:2699   */\n      dup3\n        /* \"#utility.yul\":2682:2691   */\n      dup7\n        /* \"#utility.yul\":2678:2700   */\n      add\n        /* \"#utility.yul\":2657:2710   */\n      tag_331\n      jump\t// in\n    tag_434:\n        /* \"#utility.yul\":2647:2710   */\n      swap3\n      pop\n        /* \"#utility.yul\":2603:2720   */\n      pop\n        /* \"#utility.yul\":2759:2761   */\n      0x20\n        /* \"#utility.yul\":2785:2838   */\n      tag_435\n        /* \"#utility.yul\":2830:2837   */\n      dup6\n        /* \"#utility.yul\":2821:2827   */\n      dup3\n        /* \"#utility.yul\":2810:2819   */\n      dup7\n        /* \"#utility.yul\":2806:2828   */\n      add\n        /* \"#utility.yul\":2785:2838   */\n      tag_334\n      jump\t// in\n    tag_435:\n        /* \"#utility.yul\":2775:2838   */\n      swap2\n      pop\n        /* \"#utility.yul\":2730:2848   */\n      pop\n        /* \"#utility.yul\":2381:2855   */\n      swap3\n      pop\n      swap3\n      swap1\n      pop\n      jump\t// out\n        /* \"#utility.yul\":2861:2979   */\n    tag_335:\n        /* \"#utility.yul\":2948:2972   */\n      tag_437\n        /* \"#utility.yul\":2966:2971   */\n      dup2\n        /* \"#utility.yul\":2948:2972   */\n      tag_329\n      jump\t// in\n    tag_437:\n        /* \"#utility.yul\":2943:2946   */\n      dup3\n        /* \"#utility.yul\":2936:2973   */\n      mstore\n        /* \"#utility.yul\":2861:2979   */\n      pop\n      pop\n      jump\t// out\n        /* \"#utility.yul\":2985:3103   */\n    tag_336:\n        /* \"#utility.yul\":3072:3096   */\n      tag_439\n        /* \"#utility.yul\":3090:3095   */\n      dup2\n        /* \"#utility.yul\":3072:3096   */\n      tag_332\n      jump\t// in\n    tag_439:\n        /* \"#utility.yul\":3067:3070   */\n      dup3\n        /* \"#utility.yul\":3060:3097   */\n      mstore\n        /* \"#utility.yul\":2985:3103   */\n      pop\n      pop\n      jump\t// out\n        /* \"#utility.yul\":3109:3208   */\n    tag_337:\n        /* \"#utility.yul\":3161:3167   */\n      0x00\n        /* \"#utility.yul\":3195:3200   */\n      dup2\n        /* \"#utility.yul\":3189:3201   */\n      mload\n        /* \"#utility.yul\":3179:3201   */\n      swap1\n      pop\n        /* \"#utility.yul\":3109:3208   */\n      swap2\n      swap1\n      pop\n      jump\t// out\n        /* \"#utility.yul\":3214:3383   */\n    tag_338:\n        /* \"#utility.yul\":3298:3309   */\n      0x00\n        /* \"#utility.yul\":3332:3338   */\n      dup3\n        /* \"#utility.yul\":3327:3330   */\n      dup3\n        /* \"#utility.yul\":3320:3339   */\n      mstore\n        /* \"#utility.yul\":3372:3376   */\n      0x20\n        /* \"#utility.yul\":3367:3370   */\n      dup3\n        /* \"#utility.yul\":3363:3377   */\n      add\n        /* \"#utility.yul\":3348:3377   */\n      swap1\n      pop\n        /* \"#utility.yul\":3214:3383   */\n      swap3\n      swap2\n      pop\n      pop\n      jump\t// out\n        /* \"#utility.yul\":3389:3635   */\n    tag_339:\n        /* \"#utility.yul\":3470:3471   */\n      0x00\n        /* \"#utility.yul\":3480:3593   */\n    tag_443:\n        /* \"#utility.yul\":3494:3500   */\n      dup4\n        /* \"#utility.yul\":3491:3492   */\n      dup2\n        /* \"#utility.yul\":3488:3501   */\n      lt\n        /* \"#utility.yul\":3480:3593   */\n      iszero\n      tag_445\n      jumpi\n        /* \"#utility.yul\":3579:3580   */\n      dup1\n        /* \"#utility.yul\":3574:3577   */\n      dup3\n        /* \"#utility.yul\":3570:3581   */\n      add\n        /* \"#utility.yul\":3564:3582   */\n      mload\n        /* \"#utility.yul\":3560:3561   */\n      dup2\n        /* \"#utility.yul\":3555:3558   */\n      dup5\n        /* \"#utility.yul\":3551:3562   */\n      add\n        /* \"#utility.yul\":3544:3583   */\n      mstore\n        /* \"#utility.yul\":3516:3518   */\n      0x20\n        /* \"#utility.yul\":3513:3514   */\n      dup2\n        /* \"#utility.yul\":3509:3519   */\n      add\n        /* \"#utility.yul\":3504:3519   */\n      swap1\n      pop\n        /* \"#utility.yul\":3480:3593   */\n      jump(tag_443)\n    tag_445:\n        /* \"#utility.yul\":3627:3628   */\n      0x00\n        /* \"#utility.yul\":3618:3624   */\n      dup5\n        /* \"#utility.yul\":3613:3616   */\n      dup5\n        /* \"#utility.yul\":3609:3625   */\n      add\n        /* \"#utility.yul\":3602:3629   */\n      mstore\n        /* \"#utility.yul\":3451:3635   */\n      pop\n        /* \"#utility.yul\":3389:3635   */\n      pop\n      pop\n      pop\n      jump\t// out\n        /* \"#utility.yul\":3641:3743   */\n    tag_340:\n        /* \"#utility.yul\":3682:3688   */\n      0x00\n        /* \"#utility.yul\":3733:3735   */\n      0x1f\n        /* \"#utility.yul\":3729:3736   */\n      not\n        /* \"#utility.yul\":3724:3726   */\n      0x1f\n        /* \"#utility.yul\":3717:3722   */\n      dup4\n        /* \"#utility.yul\":3713:3727   */\n      add\n        /* \"#utility.yul\":3709:3737   */\n      and\n        /* \"#utility.yul\":3699:3737   */\n      swap1\n      pop\n        /* \"#utility.yul\":3641:3743   */\n      swap2\n      swap1\n      pop\n      jump\t// out\n        /* \"#utility.yul\":3749:4126   */\n    tag_341:\n        /* \"#utility.yul\":3837:3840   */\n      0x00\n        /* \"#utility.yul\":3865:3904   */\n      tag_448\n        /* \"#utility.yul\":3898:3903   */\n      dup3\n        /* \"#utility.yul\":3865:3904   */\n      tag_337\n      jump\t// in\n    tag_448:\n        /* \"#utility.yul\":3920:3991   */\n      tag_449\n        /* \"#utility.yul\":3984:3990   */\n      dup2\n        /* \"#utility.yul\":3979:3982   */\n      dup6\n        /* \"#utility.yul\":3920:3991   */\n      tag_338\n      jump\t// in\n    tag_449:\n        /* \"#utility.yul\":3913:3991   */\n      swap4\n      pop\n        /* \"#utility.yul\":4000:4065   */\n      tag_450\n        /* \"#utility.yul\":4058:4064   */\n      dup2\n        /* \"#utility.yul\":4053:4056   */\n      dup6\n        /* \"#utility.yul\":4046:4050   */\n      0x20\n        /* \"#utility.yul\":4039:4044   */\n      dup7\n        /* \"#utility.yul\":4035:4051   */\n      add\n        /* \"#utility.yul\":4000:4065   */\n      tag_339\n      jump\t// in\n    tag_450:\n        /* \"#utility.yul\":4090:4119   */\n      tag_451\n        /* \"#utility.yul\":4112:4118   */\n      dup2\n        /* \"#utility.yul\":4090:4119   */\n      tag_340\n      jump\t// in\n    tag_451:\n        /* \"#utility.yul\":4085:4088   */\n      dup5\n        /* \"#utility.yul\":4081:4120   */\n      add\n        /* \"#utility.yul\":4074:4120   */\n      swap2\n      pop\n        /* \"#utility.yul\":3841:4126   */\n      pop\n        /* \"#utility.yul\":3749:4126   */\n      swap3\n      swap2\n      pop\n      pop\n      jump\t// out\n        /* \"#utility.yul\":4132:4863   */\n    tag_41:\n        /* \"#utility.yul\":4345:4349   */\n      0x00\n        /* \"#utility.yul\":4383:4386   */\n      0xa0\n        /* \"#utility.yul\":4372:4381   */\n      dup3\n        /* \"#utility.yul\":4368:4387   */\n      add\n        /* \"#utility.yul\":4360:4387   */\n      swap1\n      pop\n        /* \"#utility.yul\":4397:4468   */\n      tag_453\n        /* \"#utility.yul\":4465:4466   */\n      0x00\n        /* \"#utility.yul\":4454:4463   */\n      dup4\n        /* \"#utility.yul\":4450:4467   */\n      add\n        /* \"#utility.yul\":4441:4447   */\n      dup9\n        /* \"#utility.yul\":4397:4468   */\n      tag_335\n      jump\t// in\n    tag_453:\n        /* \"#utility.yul\":4478:4550   */\n      tag_454\n        /* \"#utility.yul\":4546:4548   */\n      0x20\n        /* \"#utility.yul\":4535:4544   */\n      dup4\n        /* \"#utility.yul\":4531:4549   */\n      add\n        /* \"#utility.yul\":4522:4528   */\n      dup8\n        /* \"#utility.yul\":4478:4550   */\n      tag_336\n      jump\t// in\n    tag_454:\n        /* \"#utility.yul\":4597:4606   */\n      dup2\n        /* \"#utility.yul\":4591:4595   */\n      dup2\n        /* \"#utility.yul\":4587:4607   */\n      sub\n        /* \"#utility.yul\":4582:4584   */\n      0x40\n        /* \"#utility.yul\":4571:4580   */\n      dup4\n        /* \"#utility.yul\":4567:4585   */\n      add\n        /* \"#utility.yul\":4560:4608   */\n      mstore\n        /* \"#utility.yul\":4625:4703   */\n      tag_455\n        /* \"#utility.yul\":4698:4702   */\n      dup2\n        /* \"#utility.yul\":4689:4695   */\n      dup7\n        /* \"#utility.yul\":4625:4703   */\n      tag_341\n      jump\t// in\n    tag_455:\n        /* \"#utility.yul\":4617:4703   */\n      swap1\n      pop\n        /* \"#utility.yul\":4713:4779   */\n      tag_456\n        /* \"#utility.yul\":4775:4777   */\n      0x60\n        /* \"#utility.yul\":4764:4773   */\n      dup4\n        /* \"#utility.yul\":4760:4778   */\n      add\n        /* \"#utility.yul\":4751:4757   */\n      dup6\n        /* \"#utility.yul\":4713:4779   */\n      tag_327\n      jump\t// in\n    tag_456:\n        /* \"#utility.yul\":4789:4856   */\n      tag_457\n        /* \"#utility.yul\":4851:4854   */\n      0x80\n        /* \"#utility.yul\":4840:4849   */\n      dup4\n        /* \"#utility.yul\":4836:4855   */\n      add\n        /* \"#utility.yul\":4827:4833   */\n      dup5\n        /* \"#utility.yul\":4789:4856   */\n      tag_327\n      jump\t// in\n    tag_457:\n        /* \"#utility.yul\":4132:4863   */\n      swap7\n      swap6\n      pop\n      pop\n      pop\n      pop\n      pop\n      pop\n      jump\t// out\n        /* \"#utility.yul\":4869:5198   */\n    tag_50:\n        /* \"#utility.yul\":4928:4934   */\n      0x00\n        /* \"#utility.yul\":4977:4979   */\n      0x20\n        /* \"#utility.yul\":4965:4974   */\n      dup3\n        /* \"#utility.yul\":4956:4963   */\n      dup5\n        /* \"#utility.yul\":4952:4975   */\n      sub\n        /* \"#utility.yul\":4948:4980   */\n      slt\n        /* \"#utility.yul\":4945:5064   */\n      iszero\n      tag_459\n      jumpi\n        /* \"#utility.yul\":4983:5062   */\n      tag_460\n      tag_321\n      jump\t// in\n    tag_460:\n        /* \"#utility.yul\":4945:5064   */\n    tag_459:\n        /* \"#utility.yul\":5103:5104   */\n      0x00\n        /* \"#utility.yul\":5128:5181   */\n      tag_461\n        /* \"#utility.yul\":5173:5180   */\n      dup5\n        /* \"#utility.yul\":5164:5170   */\n      dup3\n        /* \"#utility.yul\":5153:5162   */\n      dup6\n        /* \"#utility.yul\":5149:5171   */\n      add\n        /* \"#utility.yul\":5128:5181   */\n      tag_334\n      jump\t// in\n    tag_461:\n        /* \"#utility.yul\":5118:5181   */\n      swap2\n      pop\n        /* \"#utility.yul\":5074:5191   */\n      pop\n        /* \"#utility.yul\":4869:5198   */\n      swap3\n      swap2\n      pop\n      pop\n      jump\t// out\n        /* \"#utility.yul\":5204:5426   */\n    tag_53:\n        /* \"#utility.yul\":5297:5301   */\n      0x00\n        /* \"#utility.yul\":5335:5337   */\n      0x20\n        /* \"#utility.yul\":5324:5333   */\n      dup3\n        /* \"#utility.yul\":5320:5338   */\n      add\n        /* \"#utility.yul\":5312:5338   */\n      swap1\n      pop\n        /* \"#utility.yul\":5348:5419   */\n      tag_463\n        /* \"#utility.yul\":5416:5417   */\n      0x00\n        /* \"#utility.yul\":5405:5414   */\n      dup4\n        /* \"#utility.yul\":5401:5418   */\n      add\n        /* \"#utility.yul\":5392:5398   */\n      dup5\n        /* \"#utility.yul\":5348:5419   */\n      tag_336\n      jump\t// in\n    tag_463:\n        /* \"#utility.yul\":5204:5426   */\n      swap3\n      swap2\n      pop\n      pop\n      jump\t// out\n        /* \"#utility.yul\":5432:5906   */\n    tag_59:\n        /* \"#utility.yul\":5500:5506   */\n      0x00\n        /* \"#utility.yul\":5508:5514   */\n      dup1\n        /* \"#utility.yul\":5557:5559   */\n      0x40\n        /* \"#utility.yul\":5545:5554   */\n      dup4\n        /* \"#utility.yul\":5536:5543   */\n      dup6\n        /* \"#utility.yul\":5532:5555   */\n      sub\n        /* \"#utility.yul\":5528:5560   */\n      slt\n        /* \"#utility.yul\":5525:5644   */\n      iszero\n      tag_465\n      jumpi\n        /* \"#utility.yul\":5563:5642   */\n      tag_466\n      tag_321\n      jump\t// in\n    tag_466:\n        /* \"#utility.yul\":5525:5644   */\n    tag_465:\n        /* \"#utility.yul\":5683:5684   */\n      0x00\n        /* \"#utility.yul\":5708:5761   */\n      tag_467\n        /* \"#utility.yul\":5753:5760   */\n      dup6\n        /* \"#utility.yul\":5744:5750   */\n      dup3\n        /* \"#utility.yul\":5733:5742   */\n      dup7\n        /* \"#utility.yul\":5729:5751   */\n      add\n        /* \"#utility.yul\":5708:5761   */\n      tag_334\n      jump\t// in\n    tag_467:\n        /* \"#utility.yul\":5698:5761   */\n      swap3\n      pop\n        /* \"#utility.yul\":5654:5771   */\n      pop\n        /* \"#utility.yul\":5810:5812   */\n      0x20\n        /* \"#utility.yul\":5836:5889   */\n      tag_468\n        /* \"#utility.yul\":5881:5888   */\n      dup6\n        /* \"#utility.yul\":5872:5878   */\n      dup3\n        /* \"#utility.yul\":5861:5870   */\n      dup7\n        /* \"#utility.yul\":5857:5879   */\n      add\n        /* \"#utility.yul\":5836:5889   */\n      tag_331\n      jump\t// in\n    tag_468:\n        /* \"#utility.yul\":5826:5889   */\n      swap2\n      pop\n        /* \"#utility.yul\":5781:5899   */\n      pop\n        /* \"#utility.yul\":5432:5906   */\n      swap3\n      pop\n      swap3\n      swap1\n      pop\n      jump\t// out\n        /* \"#utility.yul\":5912:5989   */\n    tag_342:\n        /* \"#utility.yul\":5949:5956   */\n      0x00\n        /* \"#utility.yul\":5978:5983   */\n      dup2\n        /* \"#utility.yul\":5967:5983   */\n      swap1\n      pop\n        /* \"#utility.yul\":5912:5989   */\n      swap2\n      swap1\n      pop\n      jump\t// out\n        /* \"#utility.yul\":5995:6117   */\n    tag_343:\n        /* \"#utility.yul\":6068:6092   */\n      tag_471\n        /* \"#utility.yul\":6086:6091   */\n      dup2\n        /* \"#utility.yul\":6068:6092   */\n      tag_342\n      jump\t// in\n    tag_471:\n        /* \"#utility.yul\":6061:6066   */\n      dup2\n        /* \"#utility.yul\":6058:6093   */\n      eq\n        /* \"#utility.yul\":6048:6111   */\n      tag_472\n      jumpi\n        /* \"#utility.yul\":6107:6108   */\n      0x00\n        /* \"#utility.yul\":6104:6105   */\n      dup1\n        /* \"#utility.yul\":6097:6109   */\n      revert\n        /* \"#utility.yul\":6048:6111   */\n    tag_472:\n        /* \"#utility.yul\":5995:6117   */\n      pop\n      jump\t// out\n        /* \"#utility.yul\":6123:6262   */\n    tag_344:\n        /* \"#utility.yul\":6169:6174   */\n      0x00\n        /* \"#utility.yul\":6207:6213   */\n      dup2\n        /* \"#utility.yul\":6194:6214   */\n      calldataload\n        /* \"#utility.yul\":6185:6214   */\n      swap1\n      pop\n        /* \"#utility.yul\":6223:6256   */\n      tag_474\n        /* \"#utility.yul\":6250:6255   */\n      dup2\n        /* \"#utility.yul\":6223:6256   */\n      tag_343\n      jump\t// in\n    tag_474:\n        /* \"#utility.yul\":6123:6262   */\n      swap3\n      swap2\n      pop\n      pop\n      jump\t// out\n        /* \"#utility.yul\":6268:6597   */\n    tag_69:\n        /* \"#utility.yul\":6327:6333   */\n      0x00\n        /* \"#utility.yul\":6376:6378   */\n      0x20\n        /* \"#utility.yul\":6364:6373   */\n      dup3\n        /* \"#utility.yul\":6355:6362   */\n      dup5\n        /* \"#utility.yul\":6351:6374   */\n      sub\n        /* \"#utility.yul\":6347:6379   */\n      slt\n        /* \"#utility.yul\":6344:6463   */\n      iszero\n      tag_476\n      jumpi\n        /* \"#utility.yul\":6382:6461   */\n      tag_477\n      tag_321\n      jump\t// in\n    tag_477:\n        /* \"#utility.yul\":6344:6463   */\n    tag_476:\n        /* \"#utility.yul\":6502:6503   */\n      0x00\n        /* \"#utility.yul\":6527:6580   */\n      tag_478\n        /* \"#utility.yul\":6572:6579   */\n      dup5\n        /* \"#utility.yul\":6563:6569   */\n      dup3\n        /* \"#utility.yul\":6552:6561   */\n      dup6\n        /* \"#utility.yul\":6548:6570   */\n      add\n        /* \"#utility.yul\":6527:6580   */\n      tag_344\n      jump\t// in\n    tag_478:\n        /* \"#utility.yul\":6517:6580   */\n      swap2\n      pop\n        /* \"#utility.yul\":6473:6590   */\n      pop\n        /* \"#utility.yul\":6268:6597   */\n      swap3\n      swap2\n      pop\n      pop\n      jump\t// out\n        /* \"#utility.yul\":6603:6720   */\n    tag_345:\n        /* \"#utility.yul\":6712:6713   */\n      0x00\n        /* \"#utility.yul\":6709:6710   */\n      dup1\n        /* \"#utility.yul\":6702:6714   */\n      revert\n        /* \"#utility.yul\":6726:6843   */\n    tag_346:\n        /* \"#utility.yul\":6835:6836   */\n      0x00\n        /* \"#utility.yul\":6832:6833   */\n      dup1\n        /* \"#utility.yul\":6825:6837   */\n      revert\n        /* \"#utility.yul\":6849:7029   */\n    tag_347:\n        /* \"#utility.yul\":6897:6974   */\n      0x4e487b7100000000000000000000000000000000000000000000000000000000\n        /* \"#utility.yul\":6894:6895   */\n      0x00\n        /* \"#utility.yul\":6887:6975   */\n      mstore\n        /* \"#utility.yul\":6994:6998   */\n      0x41\n        /* \"#utility.yul\":6991:6992   */\n      0x04\n        /* \"#utility.yul\":6984:6999   */\n      mstore\n        /* \"#utility.yul\":7018:7022   */\n      0x24\n        /* \"#utility.yul\":7015:7016   */\n      0x00\n        /* \"#utility.yul\":7008:7023   */\n      revert\n        /* \"#utility.yul\":7035:7316   */\n    tag_348:\n        /* \"#utility.yul\":7118:7145   */\n      tag_483\n        /* \"#utility.yul\":7140:7144   */\n      dup3\n        /* \"#utility.yul\":7118:7145   */\n      tag_340\n      jump\t// in\n    tag_483:\n        /* \"#utility.yul\":7110:7116   */\n      dup2\n        /* \"#utility.yul\":7106:7146   */\n      add\n        /* \"#utility.yul\":7248:7254   */\n      dup2\n        /* \"#utility.yul\":7236:7246   */\n      dup2\n        /* \"#utility.yul\":7233:7255   */\n      lt\n        /* \"#utility.yul\":7212:7230   */\n      0xffffffffffffffff\n        /* \"#utility.yul\":7200:7210   */\n      dup3\n        /* \"#utility.yul\":7197:7231   */\n      gt\n        /* \"#utility.yul\":7194:7256   */\n      or\n        /* \"#utility.yul\":7191:7279   */\n      iszero\n      tag_484\n      jumpi\n        /* \"#utility.yul\":7259:7277   */\n      tag_485\n      tag_347\n      jump\t// in\n    tag_485:\n        /* \"#utility.yul\":7191:7279   */\n    tag_484:\n        /* \"#utility.yul\":7299:7309   */\n      dup1\n        /* \"#utility.yul\":7295:7297   */\n      0x40\n        /* \"#utility.yul\":7288:7310   */\n      mstore\n        /* \"#utility.yul\":7078:7316   */\n      pop\n        /* \"#utility.yul\":7035:7316   */\n      pop\n      pop\n      jump\t// out\n        /* \"#utility.yul\":7322:7451   */\n    tag_349:\n        /* \"#utility.yul\":7356:7362   */\n      0x00\n        /* \"#utility.yul\":7383:7403   */\n      tag_487\n      tag_320\n      jump\t// in\n    tag_487:\n        /* \"#utility.yul\":7373:7403   */\n      swap1\n      pop\n        /* \"#utility.yul\":7412:7445   */\n      tag_488\n        /* \"#utility.yul\":7440:7444   */\n      dup3\n        /* \"#utility.yul\":7432:7438   */\n      dup3\n        /* \"#utility.yul\":7412:7445   */\n      tag_348\n      jump\t// in\n    tag_488:\n        /* \"#utility.yul\":7322:7451   */\n      swap2\n      swap1\n      pop\n      jump\t// out\n        /* \"#utility.yul\":7457:7765   */\n    tag_350:\n        /* \"#utility.yul\":7519:7523   */\n      0x00\n        /* \"#utility.yul\":7609:7627   */\n      0xffffffffffffffff\n        /* \"#utility.yul\":7601:7607   */\n      dup3\n        /* \"#utility.yul\":7598:7628   */\n      gt\n        /* \"#utility.yul\":7595:7651   */\n      iszero\n      tag_490\n      jumpi\n        /* \"#utility.yul\":7631:7649   */\n      tag_491\n      tag_347\n      jump\t// in\n    tag_491:\n        /* \"#utility.yul\":7595:7651   */\n    tag_490:\n        /* \"#utility.yul\":7669:7698   */\n      tag_492\n        /* \"#utility.yul\":7691:7697   */\n      dup3\n        /* \"#utility.yul\":7669:7698   */\n      tag_340\n      jump\t// in\n    tag_492:\n        /* \"#utility.yul\":7661:7698   */\n      swap1\n      pop\n        /* \"#utility.yul\":7753:7757   */\n      0x20\n        /* \"#utility.yul\":7747:7751   */\n      dup2\n        /* \"#utility.yul\":7743:7758   */\n      add\n        /* \"#utility.yul\":7735:7758   */\n      swap1\n      pop\n        /* \"#utility.yul\":7457:7765   */\n      swap2\n      swap1\n      pop\n      jump\t// out\n        /* \"#utility.yul\":7771:7917   */\n    tag_351:\n        /* \"#utility.yul\":7868:7874   */\n      dup3\n        /* \"#utility.yul\":7863:7866   */\n      dup2\n        /* \"#utility.yul\":7858:7861   */\n      dup4\n        /* \"#utility.yul\":7845:7875   */\n      calldatacopy\n        /* \"#utility.yul\":7909:7910   */\n      0x00\n        /* \"#utility.yul\":7900:7906   */\n      dup4\n        /* \"#utility.yul\":7895:7898   */\n      dup4\n        /* \"#utility.yul\":7891:7907   */\n      add\n        /* \"#utility.yul\":7884:7911   */\n      mstore\n        /* \"#utility.yul\":7771:7917   */\n      pop\n      pop\n      pop\n      jump\t// out\n        /* \"#utility.yul\":7923:8348   */\n    tag_352:\n        /* \"#utility.yul\":8001:8006   */\n      0x00\n        /* \"#utility.yul\":8026:8092   */\n      tag_495\n        /* \"#utility.yul\":8042:8091   */\n      tag_496\n        /* \"#utility.yul\":8084:8090   */\n      dup5\n        /* \"#utility.yul\":8042:8091   */\n      tag_350\n      jump\t// in\n    tag_496:\n        /* \"#utility.yul\":8026:8092   */\n      tag_349\n      jump\t// in\n    tag_495:\n        /* \"#utility.yul\":8017:8092   */\n      swap1\n      pop\n        /* \"#utility.yul\":8115:8121   */\n      dup3\n        /* \"#utility.yul\":8108:8113   */\n      dup2\n        /* \"#utility.yul\":8101:8122   */\n      mstore\n        /* \"#utility.yul\":8153:8157   */\n      0x20\n        /* \"#utility.yul\":8146:8151   */\n      dup2\n        /* \"#utility.yul\":8142:8158   */\n      add\n        /* \"#utility.yul\":8191:8194   */\n      dup5\n        /* \"#utility.yul\":8182:8188   */\n      dup5\n        /* \"#utility.yul\":8177:8180   */\n      dup5\n        /* \"#utility.yul\":8173:8189   */\n      add\n        /* \"#utility.yul\":8170:8195   */\n      gt\n        /* \"#utility.yul\":8167:8279   */\n      iszero\n      tag_497\n      jumpi\n        /* \"#utility.yul\":8198:8277   */\n      tag_498\n      tag_346\n      jump\t// in\n    tag_498:\n        /* \"#utility.yul\":8167:8279   */\n    tag_497:\n        /* \"#utility.yul\":8288:8342   */\n      tag_499\n        /* \"#utility.yul\":8335:8341   */\n      dup5\n        /* \"#utility.yul\":8330:8333   */\n      dup3\n        /* \"#utility.yul\":8325:8328   */\n      dup6\n        /* \"#utility.yul\":8288:8342   */\n      tag_351\n      jump\t// in\n    tag_499:\n        /* \"#utility.yul\":8007:8348   */\n      pop\n        /* \"#utility.yul\":7923:8348   */\n      swap4\n      swap3\n      pop\n      pop\n      pop\n      jump\t// out\n        /* \"#utility.yul\":8368:8708   */\n    tag_353:\n        /* \"#utility.yul\":8424:8429   */\n      0x00\n        /* \"#utility.yul\":8473:8476   */\n      dup3\n        /* \"#utility.yul\":8466:8470   */\n      0x1f\n        /* \"#utility.yul\":8458:8464   */\n      dup4\n        /* \"#utility.yul\":8454:8471   */\n      add\n        /* \"#utility.yul\":8450:8477   */\n      slt\n        /* \"#utility.yul\":8440:8562   */\n      tag_501\n      jumpi\n        /* \"#utility.yul\":8481:8560   */\n      tag_502\n      tag_345\n      jump\t// in\n    tag_502:\n        /* \"#utility.yul\":8440:8562   */\n    tag_501:\n        /* \"#utility.yul\":8598:8604   */\n      dup2\n        /* \"#utility.yul\":8585:8605   */\n      calldataload\n        /* \"#utility.yul\":8623:8702   */\n      tag_503\n        /* \"#utility.yul\":8698:8701   */\n      dup5\n        /* \"#utility.yul\":8690:8696   */\n      dup3\n        /* \"#utility.yul\":8683:8687   */\n      0x20\n        /* \"#utility.yul\":8675:8681   */\n      dup7\n        /* \"#utility.yul\":8671:8688   */\n      add\n        /* \"#utility.yul\":8623:8702   */\n      tag_352\n      jump\t// in\n    tag_503:\n        /* \"#utility.yul\":8614:8702   */\n      swap2\n      pop\n        /* \"#utility.yul\":8430:8708   */\n      pop\n        /* \"#utility.yul\":8368:8708   */\n      swap3\n      swap2\n      pop\n      pop\n      jump\t// out\n        /* \"#utility.yul\":8714:9368   */\n    tag_82:\n        /* \"#utility.yul\":8792:8798   */\n      0x00\n        /* \"#utility.yul\":8800:8806   */\n      dup1\n        /* \"#utility.yul\":8849:8851   */\n      0x40\n        /* \"#utility.yul\":8837:8846   */\n      dup4\n        /* \"#utility.yul\":8828:8835   */\n      dup6\n        /* \"#utility.yul\":8824:8847   */\n      sub\n        /* \"#utility.yul\":8820:8852   */\n      slt\n        /* \"#utility.yul\":8817:8936   */\n      iszero\n      tag_505\n      jumpi\n        /* \"#utility.yul\":8855:8934   */\n      tag_506\n      tag_321\n      jump\t// in\n    tag_506:\n        /* \"#utility.yul\":8817:8936   */\n    tag_505:\n        /* \"#utility.yul\":8975:8976   */\n      0x00\n        /* \"#utility.yul\":9000:9053   */\n      tag_507\n        /* \"#utility.yul\":9045:9052   */\n      dup6\n        /* \"#utility.yul\":9036:9042   */\n      dup3\n        /* \"#utility.yul\":9025:9034   */\n      dup7\n        /* \"#utility.yul\":9021:9043   */\n      add\n        /* \"#utility.yul\":9000:9053   */\n      tag_334\n      jump\t// in\n    tag_507:\n        /* \"#utility.yul\":8990:9053   */\n      swap3\n      pop\n        /* \"#utility.yul\":8946:9063   */\n      pop\n        /* \"#utility.yul\":9130:9132   */\n      0x20\n        /* \"#utility.yul\":9119:9128   */\n      dup4\n        /* \"#utility.yul\":9115:9133   */\n      add\n        /* \"#utility.yul\":9102:9134   */\n      calldataload\n        /* \"#utility.yul\":9161:9179   */\n      0xffffffffffffffff\n        /* \"#utility.yul\":9153:9159   */\n      dup2\n        /* \"#utility.yul\":9150:9180   */\n      gt\n        /* \"#utility.yul\":9147:9264   */\n      iszero\n      tag_508\n      jumpi\n        /* \"#utility.yul\":9183:9262   */\n      tag_509\n      tag_322\n      jump\t// in\n    tag_509:\n        /* \"#utility.yul\":9147:9264   */\n    tag_508:\n        /* \"#utility.yul\":9288:9351   */\n      tag_510\n        /* \"#utility.yul\":9343:9350   */\n      dup6\n        /* \"#utility.yul\":9334:9340   */\n      dup3\n        /* \"#utility.yul\":9323:9332   */\n      dup7\n        /* \"#utility.yul\":9319:9341   */\n      add\n        /* \"#utility.yul\":9288:9351   */\n      tag_353\n      jump\t// in\n    tag_510:\n        /* \"#utility.yul\":9278:9351   */\n      swap2\n      pop\n        /* \"#utility.yul\":9073:9361   */\n      pop\n        /* \"#utility.yul\":8714:9368   */\n      swap3\n      pop\n      swap3\n      swap1\n      pop\n      jump\t// out\n        /* \"#utility.yul\":9374:9516   */\n    tag_354:\n        /* \"#utility.yul\":9469:9475   */\n      0x00\n        /* \"#utility.yul\":9503:9508   */\n      dup2\n        /* \"#utility.yul\":9497:9509   */\n      mload\n        /* \"#utility.yul\":9487:9509   */\n      swap1\n      pop\n        /* \"#utility.yul\":9374:9516   */\n      swap2\n      swap1\n      pop\n      jump\t// out\n        /* \"#utility.yul\":9522:9734   */\n    tag_355:\n        /* \"#utility.yul\":9649:9660   */\n      0x00\n        /* \"#utility.yul\":9683:9689   */\n      dup3\n        /* \"#utility.yul\":9678:9681   */\n      dup3\n        /* \"#utility.yul\":9671:9690   */\n      mstore\n        /* \"#utility.yul\":9723:9727   */\n      0x20\n        /* \"#utility.yul\":9718:9721   */\n      dup3\n        /* \"#utility.yul\":9714:9728   */\n      add\n        /* \"#utility.yul\":9699:9728   */\n      swap1\n      pop\n        /* \"#utility.yul\":9522:9734   */\n      swap3\n      swap2\n      pop\n      pop\n      jump\t// out\n        /* \"#utility.yul\":9740:9900   */\n    tag_356:\n        /* \"#utility.yul\":9835:9839   */\n      0x00\n        /* \"#utility.yul\":9858:9861   */\n      dup2\n        /* \"#utility.yul\":9850:9861   */\n      swap1\n      pop\n        /* \"#utility.yul\":9888:9892   */\n      0x20\n        /* \"#utility.yul\":9883:9886   */\n      dup3\n        /* \"#utility.yul\":9879:9893   */\n      add\n        /* \"#utility.yul\":9871:9893   */\n      swap1\n      pop\n        /* \"#utility.yul\":9740:9900   */\n      swap2\n      swap1\n      pop\n      jump\t// out\n        /* \"#utility.yul\":9906:10014   */\n    tag_357:\n        /* \"#utility.yul\":9983:10007   */\n      tag_515\n        /* \"#utility.yul\":10001:10006   */\n      dup2\n        /* \"#utility.yul\":9983:10007   */\n      tag_329\n      jump\t// in\n    tag_515:\n        /* \"#utility.yul\":9978:9981   */\n      dup3\n        /* \"#utility.yul\":9971:10008   */\n      mstore\n        /* \"#utility.yul\":9906:10014   */\n      pop\n      pop\n      jump\t// out\n        /* \"#utility.yul\":10020:10128   */\n    tag_358:\n        /* \"#utility.yul\":10097:10121   */\n      tag_517\n        /* \"#utility.yul\":10115:10120   */\n      dup2\n        /* \"#utility.yul\":10097:10121   */\n      tag_332\n      jump\t// in\n    tag_517:\n        /* \"#utility.yul\":10092:10095   */\n      dup3\n        /* \"#utility.yul\":10085:10122   */\n      mstore\n        /* \"#utility.yul\":10020:10128   */\n      pop\n      pop\n      jump\t// out\n        /* \"#utility.yul\":10134:10293   */\n    tag_359:\n        /* \"#utility.yul\":10208:10219   */\n      0x00\n        /* \"#utility.yul\":10242:10248   */\n      dup3\n        /* \"#utility.yul\":10237:10240   */\n      dup3\n        /* \"#utility.yul\":10230:10249   */\n      mstore\n        /* \"#utility.yul\":10282:10286   */\n      0x20\n        /* \"#utility.yul\":10277:10280   */\n      dup3\n        /* \"#utility.yul\":10273:10287   */\n      add\n        /* \"#utility.yul\":10258:10287   */\n      swap1\n      pop\n        /* \"#utility.yul\":10134:10293   */\n      swap3\n      swap2\n      pop\n      pop\n      jump\t// out\n        /* \"#utility.yul\":10299:10656   */\n    tag_360:\n        /* \"#utility.yul\":10377:10380   */\n      0x00\n        /* \"#utility.yul\":10405:10444   */\n      tag_520\n        /* \"#utility.yul\":10438:10443   */\n      dup3\n        /* \"#utility.yul\":10405:10444   */\n      tag_337\n      jump\t// in\n    tag_520:\n        /* \"#utility.yul\":10460:10521   */\n      tag_521\n        /* \"#utility.yul\":10514:10520   */\n      dup2\n        /* \"#utility.yul\":10509:10512   */\n      dup6\n        /* \"#utility.yul\":10460:10521   */\n      tag_359\n      jump\t// in\n    tag_521:\n        /* \"#utility.yul\":10453:10521   */\n      swap4\n      pop\n        /* \"#utility.yul\":10530:10595   */\n      tag_522\n        /* \"#utility.yul\":10588:10594   */\n      dup2\n        /* \"#utility.yul\":10583:10586   */\n      dup6\n        /* \"#utility.yul\":10576:10580   */\n      0x20\n        /* \"#utility.yul\":10569:10574   */\n      dup7\n        /* \"#utility.yul\":10565:10581   */\n      add\n        /* \"#utility.yul\":10530:10595   */\n      tag_339\n      jump\t// in\n    tag_522:\n        /* \"#utility.yul\":10620:10649   */\n      tag_523\n        /* \"#utility.yul\":10642:10648   */\n      dup2\n        /* \"#utility.yul\":10620:10649   */\n      tag_340\n      jump\t// in\n    tag_523:\n        /* \"#utility.yul\":10615:10618   */\n      dup5\n        /* \"#utility.yul\":10611:10650   */\n      add\n        /* \"#utility.yul\":10604:10650   */\n      swap2\n      pop\n        /* \"#utility.yul\":10381:10656   */\n      pop\n        /* \"#utility.yul\":10299:10656   */\n      swap3\n      swap2\n      pop\n      pop\n      jump\t// out\n        /* \"#utility.yul\":10662:10761   */\n    tag_361:\n        /* \"#utility.yul\":10733:10754   */\n      tag_525\n        /* \"#utility.yul\":10748:10753   */\n      dup2\n        /* \"#utility.yul\":10733:10754   */\n      tag_326\n      jump\t// in\n    tag_525:\n        /* \"#utility.yul\":10728:10731   */\n      dup3\n        /* \"#utility.yul\":10721:10755   */\n      mstore\n        /* \"#utility.yul\":10662:10761   */\n      pop\n      pop\n      jump\t// out\n        /* \"#utility.yul\":10839:11965   */\n    tag_362:\n        /* \"#utility.yul\":10954:10957   */\n      0x00\n        /* \"#utility.yul\":10990:10994   */\n      0xa0\n        /* \"#utility.yul\":10985:10988   */\n      dup4\n        /* \"#utility.yul\":10981:10995   */\n      add\n        /* \"#utility.yul\":11082:11086   */\n      0x00\n        /* \"#utility.yul\":11075:11080   */\n      dup4\n        /* \"#utility.yul\":11071:11087   */\n      add\n        /* \"#utility.yul\":11065:11088   */\n      mload\n        /* \"#utility.yul\":11101:11164   */\n      tag_527\n        /* \"#utility.yul\":11158:11162   */\n      0x00\n        /* \"#utility.yul\":11153:11156   */\n      dup7\n        /* \"#utility.yul\":11149:11163   */\n      add\n        /* \"#utility.yul\":11135:11147   */\n      dup3\n        /* \"#utility.yul\":11101:11164   */\n      tag_357\n      jump\t// in\n    tag_527:\n        /* \"#utility.yul\":11005:11174   */\n      pop\n        /* \"#utility.yul\":11256:11260   */\n      0x20\n        /* \"#utility.yul\":11249:11254   */\n      dup4\n        /* \"#utility.yul\":11245:11261   */\n      add\n        /* \"#utility.yul\":11239:11262   */\n      mload\n        /* \"#utility.yul\":11275:11338   */\n      tag_528\n        /* \"#utility.yul\":11332:11336   */\n      0x20\n        /* \"#utility.yul\":11327:11330   */\n      dup7\n        /* \"#utility.yul\":11323:11337   */\n      add\n        /* \"#utility.yul\":11309:11321   */\n      dup3\n        /* \"#utility.yul\":11275:11338   */\n      tag_358\n      jump\t// in\n    tag_528:\n        /* \"#utility.yul\":11184:11348   */\n      pop\n        /* \"#utility.yul\":11432:11436   */\n      0x40\n        /* \"#utility.yul\":11425:11430   */\n      dup4\n        /* \"#utility.yul\":11421:11437   */\n      add\n        /* \"#utility.yul\":11415:11438   */\n      mload\n        /* \"#utility.yul\":11485:11488   */\n      dup5\n        /* \"#utility.yul\":11479:11483   */\n      dup3\n        /* \"#utility.yul\":11475:11489   */\n      sub\n        /* \"#utility.yul\":11468:11472   */\n      0x40\n        /* \"#utility.yul\":11463:11466   */\n      dup7\n        /* \"#utility.yul\":11459:11473   */\n      add\n        /* \"#utility.yul\":11452:11490   */\n      mstore\n        /* \"#utility.yul\":11511:11584   */\n      tag_529\n        /* \"#utility.yul\":11579:11583   */\n      dup3\n        /* \"#utility.yul\":11565:11577   */\n      dup3\n        /* \"#utility.yul\":11511:11584   */\n      tag_360\n      jump\t// in\n    tag_529:\n        /* \"#utility.yul\":11503:11584   */\n      swap2\n      pop\n        /* \"#utility.yul\":11358:11595   */\n      pop\n        /* \"#utility.yul\":11680:11684   */\n      0x60\n        /* \"#utility.yul\":11673:11678   */\n      dup4\n        /* \"#utility.yul\":11669:11685   */\n      add\n        /* \"#utility.yul\":11663:11686   */\n      mload\n        /* \"#utility.yul\":11699:11756   */\n      tag_530\n        /* \"#utility.yul\":11750:11754   */\n      0x60\n        /* \"#utility.yul\":11745:11748   */\n      dup7\n        /* \"#utility.yul\":11741:11755   */\n      add\n        /* \"#utility.yul\":11727:11739   */\n      dup3\n        /* \"#utility.yul\":11699:11756   */\n      tag_361\n      jump\t// in\n    tag_530:\n        /* \"#utility.yul\":11605:11766   */\n      pop\n        /* \"#utility.yul\":11852:11856   */\n      0x80\n        /* \"#utility.yul\":11845:11850   */\n      dup4\n        /* \"#utility.yul\":11841:11857   */\n      add\n        /* \"#utility.yul\":11835:11858   */\n      mload\n        /* \"#utility.yul\":11871:11928   */\n      tag_531\n        /* \"#utility.yul\":11922:11926   */\n      0x80\n        /* \"#utility.yul\":11917:11920   */\n      dup7\n        /* \"#utility.yul\":11913:11927   */\n      add\n        /* \"#utility.yul\":11899:11911   */\n      dup3\n        /* \"#utility.yul\":11871:11928   */\n      tag_361\n      jump\t// in\n    tag_531:\n        /* \"#utility.yul\":11776:11938   */\n      pop\n        /* \"#utility.yul\":11955:11959   */\n      dup1\n        /* \"#utility.yul\":11948:11959   */\n      swap2\n      pop\n        /* \"#utility.yul\":10959:11965   */\n      pop\n        /* \"#utility.yul\":10839:11965   */\n      swap3\n      swap2\n      pop\n      pop\n      jump\t// out\n        /* \"#utility.yul\":11971:12239   */\n    tag_363:\n        /* \"#utility.yul\":12096:12106   */\n      0x00\n        /* \"#utility.yul\":12131:12233   */\n      tag_533\n        /* \"#utility.yul\":12229:12232   */\n      dup4\n        /* \"#utility.yul\":12221:12227   */\n      dup4\n        /* \"#utility.yul\":12131:12233   */\n      tag_362\n      jump\t// in\n    tag_533:\n        /* \"#utility.yul\":12117:12233   */\n      swap1\n      pop\n        /* \"#utility.yul\":11971:12239   */\n      swap3\n      swap2\n      pop\n      pop\n      jump\t// out\n        /* \"#utility.yul\":12245:12386   */\n    tag_364:\n        /* \"#utility.yul\":12343:12347   */\n      0x00\n        /* \"#utility.yul\":12375:12379   */\n      0x20\n        /* \"#utility.yul\":12370:12373   */\n      dup3\n        /* \"#utility.yul\":12366:12380   */\n      add\n        /* \"#utility.yul\":12358:12380   */\n      swap1\n      pop\n        /* \"#utility.yul\":12245:12386   */\n      swap2\n      swap1\n      pop\n      jump\t// out\n        /* \"#utility.yul\":12468:13603   */\n    tag_365:\n        /* \"#utility.yul\":12643:12646   */\n      0x00\n        /* \"#utility.yul\":12672:12754   */\n      tag_536\n        /* \"#utility.yul\":12748:12753   */\n      dup3\n        /* \"#utility.yul\":12672:12754   */\n      tag_354\n      jump\t// in\n    tag_536:\n        /* \"#utility.yul\":12770:12884   */\n      tag_537\n        /* \"#utility.yul\":12877:12883   */\n      dup2\n        /* \"#utility.yul\":12872:12875   */\n      dup6\n        /* \"#utility.yul\":12770:12884   */\n      tag_355\n      jump\t// in\n    tag_537:\n        /* \"#utility.yul\":12763:12884   */\n      swap4\n      pop\n        /* \"#utility.yul\":12910:12913   */\n      dup4\n        /* \"#utility.yul\":12955:12959   */\n      0x20\n        /* \"#utility.yul\":12947:12953   */\n      dup3\n        /* \"#utility.yul\":12943:12960   */\n      mul\n        /* \"#utility.yul\":12938:12941   */\n      dup6\n        /* \"#utility.yul\":12934:12961   */\n      add\n        /* \"#utility.yul\":12985:13069   */\n      tag_538\n        /* \"#utility.yul\":13063:13068   */\n      dup6\n        /* \"#utility.yul\":12985:13069   */\n      tag_356\n      jump\t// in\n    tag_538:\n        /* \"#utility.yul\":13092:13099   */\n      dup1\n        /* \"#utility.yul\":13123:13124   */\n      0x00\n        /* \"#utility.yul\":13108:13558   */\n    tag_539:\n        /* \"#utility.yul\":13133:13139   */\n      dup6\n        /* \"#utility.yul\":13130:13131   */\n      dup2\n        /* \"#utility.yul\":13127:13140   */\n      lt\n        /* \"#utility.yul\":13108:13558   */\n      iszero\n      tag_541\n      jumpi\n        /* \"#utility.yul\":13204:13213   */\n      dup5\n        /* \"#utility.yul\":13198:13202   */\n      dup5\n        /* \"#utility.yul\":13194:13214   */\n      sub\n        /* \"#utility.yul\":13189:13192   */\n      dup10\n        /* \"#utility.yul\":13182:13215   */\n      mstore\n        /* \"#utility.yul\":13255:13261   */\n      dup2\n        /* \"#utility.yul\":13249:13262   */\n      mload\n        /* \"#utility.yul\":13283:13403   */\n      tag_542\n        /* \"#utility.yul\":13398:13402   */\n      dup6\n        /* \"#utility.yul\":13383:13396   */\n      dup3\n        /* \"#utility.yul\":13283:13403   */\n      tag_363\n      jump\t// in\n    tag_542:\n        /* \"#utility.yul\":13275:13403   */\n      swap5\n      pop\n        /* \"#utility.yul\":13426:13514   */\n      tag_543\n        /* \"#utility.yul\":13507:13513   */\n      dup4\n        /* \"#utility.yul\":13426:13514   */\n      tag_364\n      jump\t// in\n    tag_543:\n        /* \"#utility.yul\":13416:13514   */\n      swap3\n      pop\n        /* \"#utility.yul\":13543:13547   */\n      0x20\n        /* \"#utility.yul\":13538:13541   */\n      dup11\n        /* \"#utility.yul\":13534:13548   */\n      add\n        /* \"#utility.yul\":13527:13548   */\n      swap10\n      pop\n        /* \"#utility.yul\":13168:13558   */\n      pop\n        /* \"#utility.yul\":13155:13156   */\n      0x01\n        /* \"#utility.yul\":13152:13153   */\n      dup2\n        /* \"#utility.yul\":13148:13157   */\n      add\n        /* \"#utility.yul\":13143:13157   */\n      swap1\n      pop\n        /* \"#utility.yul\":13108:13558   */\n      jump(tag_539)\n    tag_541:\n        /* \"#utility.yul\":13112:13126   */\n      pop\n        /* \"#utility.yul\":13574:13578   */\n      dup3\n        /* \"#utility.yul\":13567:13578   */\n      swap8\n      pop\n        /* \"#utility.yul\":13594:13597   */\n      dup8\n        /* \"#utility.yul\":13587:13597   */\n      swap6\n      pop\n        /* \"#utility.yul\":12648:13603   */\n      pop\n      pop\n      pop\n      pop\n      pop\n        /* \"#utility.yul\":12468:13603   */\n      swap3\n      swap2\n      pop\n      pop\n      jump\t// out\n        /* \"#utility.yul\":13609:14094   */\n    tag_90:\n        /* \"#utility.yul\":13808:13812   */\n      0x00\n        /* \"#utility.yul\":13846:13848   */\n      0x20\n        /* \"#utility.yul\":13835:13844   */\n      dup3\n        /* \"#utility.yul\":13831:13849   */\n      add\n        /* \"#utility.yul\":13823:13849   */\n      swap1\n      pop\n        /* \"#utility.yul\":13895:13904   */\n      dup2\n        /* \"#utility.yul\":13889:13893   */\n      dup2\n        /* \"#utility.yul\":13885:13905   */\n      sub\n        /* \"#utility.yul\":13881:13882   */\n      0x00\n        /* \"#utility.yul\":13870:13879   */\n      dup4\n        /* \"#utility.yul\":13866:13883   */\n      add\n        /* \"#utility.yul\":13859:13906   */\n      mstore\n        /* \"#utility.yul\":13923:14087   */\n      tag_545\n        /* \"#utility.yul\":14082:14086   */\n      dup2\n        /* \"#utility.yul\":14073:14079   */\n      dup5\n        /* \"#utility.yul\":13923:14087   */\n      tag_365\n      jump\t// in\n    tag_545:\n        /* \"#utility.yul\":13915:14087   */\n      swap1\n      pop\n        /* \"#utility.yul\":13609:14094   */\n      swap3\n      swap2\n      pop\n      pop\n      jump\t// out\n        /* \"#utility.yul\":14100:14280   */\n    tag_366:\n        /* \"#utility.yul\":14148:14225   */\n      0x4e487b7100000000000000000000000000000000000000000000000000000000\n        /* \"#utility.yul\":14145:14146   */\n      0x00\n        /* \"#utility.yul\":14138:14226   */\n      mstore\n        /* \"#utility.yul\":14245:14249   */\n      0x22\n        /* \"#utility.yul\":14242:14243   */\n      0x04\n        /* \"#utility.yul\":14235:14250   */\n      mstore\n        /* \"#utility.yul\":14269:14273   */\n      0x24\n        /* \"#utility.yul\":14266:14267   */\n      0x00\n        /* \"#utility.yul\":14259:14274   */\n      revert\n        /* \"#utility.yul\":14286:14606   */\n    tag_122:\n        /* \"#utility.yul\":14330:14336   */\n      0x00\n        /* \"#utility.yul\":14367:14368   */\n      0x02\n        /* \"#utility.yul\":14361:14365   */\n      dup3\n        /* \"#utility.yul\":14357:14369   */\n      div\n        /* \"#utility.yul\":14347:14369   */\n      swap1\n      pop\n        /* \"#utility.yul\":14414:14415   */\n      0x01\n        /* \"#utility.yul\":14408:14412   */\n      dup3\n        /* \"#utility.yul\":14404:14416   */\n      and\n        /* \"#utility.yul\":14435:14453   */\n      dup1\n        /* \"#utility.yul\":14425:14506   */\n      tag_548\n      jumpi\n        /* \"#utility.yul\":14491:14495   */\n      0x7f\n        /* \"#utility.yul\":14483:14489   */\n      dup3\n        /* \"#utility.yul\":14479:14496   */\n      and\n        /* \"#utility.yul\":14469:14496   */\n      swap2\n      pop\n        /* \"#utility.yul\":14425:14506   */\n    tag_548:\n        /* \"#utility.yul\":14553:14555   */\n      0x20\n        /* \"#utility.yul\":14545:14551   */\n      dup3\n        /* \"#utility.yul\":14542:14556   */\n      lt\n        /* \"#utility.yul\":14522:14540   */\n      dup2\n        /* \"#utility.yul\":14519:14557   */\n      sub\n        /* \"#utility.yul\":14516:14600   */\n      tag_549\n      jumpi\n        /* \"#utility.yul\":14572:14590   */\n      tag_550\n      tag_366\n      jump\t// in\n    tag_550:\n        /* \"#utility.yul\":14516:14600   */\n    tag_549:\n        /* \"#utility.yul\":14337:14606   */\n      pop\n        /* \"#utility.yul\":14286:14606   */\n      swap2\n      swap1\n      pop\n      jump\t// out\n        /* \"#utility.yul\":14612:14777   */\n    tag_367:\n        /* \"#utility.yul\":14752:14769   */\n      0x496e76616c696420616464726573730000000000000000000000000000000000\n        /* \"#utility.yul\":14748:14749   */\n      0x00\n        /* \"#utility.yul\":14740:14746   */\n      dup3\n        /* \"#utility.yul\":14736:14750   */\n      add\n        /* \"#utility.yul\":14729:14770   */\n      mstore\n        /* \"#utility.yul\":14612:14777   */\n      pop\n      jump\t// out\n        /* \"#utility.yul\":14783:15149   */\n    tag_368:\n        /* \"#utility.yul\":14925:14928   */\n      0x00\n        /* \"#utility.yul\":14946:15013   */\n      tag_553\n        /* \"#utility.yul\":15010:15012   */\n      0x0f\n        /* \"#utility.yul\":15005:15008   */\n      dup4\n        /* \"#utility.yul\":14946:15013   */\n      tag_338\n      jump\t// in\n    tag_553:\n        /* \"#utility.yul\":14939:15013   */\n      swap2\n      pop\n        /* \"#utility.yul\":15022:15115   */\n      tag_554\n        /* \"#utility.yul\":15111:15114   */\n      dup3\n        /* \"#utility.yul\":15022:15115   */\n      tag_367\n      jump\t// in\n    tag_554:\n        /* \"#utility.yul\":15140:15142   */\n      0x20\n        /* \"#utility.yul\":15135:15138   */\n      dup3\n        /* \"#utility.yul\":15131:15143   */\n      add\n        /* \"#utility.yul\":15124:15143   */\n      swap1\n      pop\n        /* \"#utility.yul\":14783:15149   */\n      swap2\n      swap1\n      pop\n      jump\t// out\n        /* \"#utility.yul\":15155:15574   */\n    tag_136:\n        /* \"#utility.yul\":15321:15325   */\n      0x00\n        /* \"#utility.yul\":15359:15361   */\n      0x20\n        /* \"#utility.yul\":15348:15357   */\n      dup3\n        /* \"#utility.yul\":15344:15362   */\n      add\n        /* \"#utility.yul\":15336:15362   */\n      swap1\n      pop\n        /* \"#utility.yul\":15408:15417   */\n      dup2\n        /* \"#utility.yul\":15402:15406   */\n      dup2\n        /* \"#utility.yul\":15398:15418   */\n      sub\n        /* \"#utility.yul\":15394:15395   */\n      0x00\n        /* \"#utility.yul\":15383:15392   */\n      dup4\n        /* \"#utility.yul\":15379:15396   */\n      add\n        /* \"#utility.yul\":15372:15419   */\n      mstore\n        /* \"#utility.yul\":15436:15567   */\n      tag_556\n        /* \"#utility.yul\":15562:15566   */\n      dup2\n        /* \"#utility.yul\":15436:15567   */\n      tag_368\n      jump\t// in\n    tag_556:\n        /* \"#utility.yul\":15428:15567   */\n      swap1\n      pop\n        /* \"#utility.yul\":15155:15574   */\n      swap2\n      swap1\n      pop\n      jump\t// out\n        /* \"#utility.yul\":15580:15748   */\n    tag_369:\n        /* \"#utility.yul\":15720:15740   */\n      0x4e6f2070656e64696e6720726571756573740000000000000000000000000000\n        /* \"#utility.yul\":15716:15717   */\n      0x00\n        /* \"#utility.yul\":15708:15714   */\n      dup3\n        /* \"#utility.yul\":15704:15718   */\n      add\n        /* \"#utility.yul\":15697:15741   */\n      mstore\n        /* \"#utility.yul\":15580:15748   */\n      pop\n      jump\t// out\n        /* \"#utility.yul\":15754:16120   */\n    tag_370:\n        /* \"#utility.yul\":15896:15899   */\n      0x00\n        /* \"#utility.yul\":15917:15984   */\n      tag_559\n        /* \"#utility.yul\":15981:15983   */\n      0x12\n        /* \"#utility.yul\":15976:15979   */\n      dup4\n        /* \"#utility.yul\":15917:15984   */\n      tag_338\n      jump\t// in\n    tag_559:\n        /* \"#utility.yul\":15910:15984   */\n      swap2\n      pop\n        /* \"#utility.yul\":15993:16086   */\n      tag_560\n        /* \"#utility.yul\":16082:16085   */\n      dup3\n        /* \"#utility.yul\":15993:16086   */\n      tag_369\n      jump\t// in\n    tag_560:\n        /* \"#utility.yul\":16111:16113   */\n      0x20\n        /* \"#utility.yul\":16106:16109   */\n      dup3\n        /* \"#utility.yul\":16102:16114   */\n      add\n        /* \"#utility.yul\":16095:16114   */\n      swap1\n      pop\n        /* \"#utility.yul\":15754:16120   */\n      swap2\n      swap1\n      pop\n      jump\t// out\n        /* \"#utility.yul\":16126:16545   */\n    tag_158:\n        /* \"#utility.yul\":16292:16296   */\n      0x00\n        /* \"#utility.yul\":16330:16332   */\n      0x20\n        /* \"#utility.yul\":16319:16328   */\n      dup3\n        /* \"#utility.yul\":16315:16333   */\n      add\n        /* \"#utility.yul\":16307:16333   */\n      swap1\n      pop\n        /* \"#utility.yul\":16379:16388   */\n      dup2\n        /* \"#utility.yul\":16373:16377   */\n      dup2\n        /* \"#utility.yul\":16369:16389   */\n      sub\n        /* \"#utility.yul\":16365:16366   */\n      0x00\n        /* \"#utility.yul\":16354:16363   */\n      dup4\n        /* \"#utility.yul\":16350:16367   */\n      add\n        /* \"#utility.yul\":16343:16390   */\n      mstore\n        /* \"#utility.yul\":16407:16538   */\n      tag_562\n        /* \"#utility.yul\":16533:16537   */\n      dup2\n        /* \"#utility.yul\":16407:16538   */\n      tag_370\n      jump\t// in\n    tag_562:\n        /* \"#utility.yul\":16399:16538   */\n      swap1\n      pop\n        /* \"#utility.yul\":16126:16545   */\n      swap2\n      swap1\n      pop\n      jump\t// out\n        /* \"#utility.yul\":16551:16717   */\n    tag_371:\n        /* \"#utility.yul\":16691:16709   */\n      0x416c72656164792068617320726f6c6500000000000000000000000000000000\n        /* \"#utility.yul\":16687:16688   */\n      0x00\n        /* \"#utility.yul\":16679:16685   */\n      dup3\n        /* \"#utility.yul\":16675:16689   */\n      add\n        /* \"#utility.yul\":16668:16710   */\n      mstore\n        /* \"#utility.yul\":16551:16717   */\n      pop\n      jump\t// out\n        /* \"#utility.yul\":16723:17089   */\n    tag_372:\n        /* \"#utility.yul\":16865:16868   */\n      0x00\n        /* \"#utility.yul\":16886:16953   */\n      tag_565\n        /* \"#utility.yul\":16950:16952   */\n      0x10\n        /* \"#utility.yul\":16945:16948   */\n      dup4\n        /* \"#utility.yul\":16886:16953   */\n      tag_338\n      jump\t// in\n    tag_565:\n        /* \"#utility.yul\":16879:16953   */\n      swap2\n      pop\n        /* \"#utility.yul\":16962:17055   */\n      tag_566\n        /* \"#utility.yul\":17051:17054   */\n      dup3\n        /* \"#utility.yul\":16962:17055   */\n      tag_371\n      jump\t// in\n    tag_566:\n        /* \"#utility.yul\":17080:17082   */\n      0x20\n        /* \"#utility.yul\":17075:17078   */\n      dup3\n        /* \"#utility.yul\":17071:17083   */\n      add\n        /* \"#utility.yul\":17064:17083   */\n      swap1\n      pop\n        /* \"#utility.yul\":16723:17089   */\n      swap2\n      swap1\n      pop\n      jump\t// out\n        /* \"#utility.yul\":17095:17514   */\n    tag_191:\n        /* \"#utility.yul\":17261:17265   */\n      0x00\n        /* \"#utility.yul\":17299:17301   */\n      0x20\n        /* \"#utility.yul\":17288:17297   */\n      dup3\n        /* \"#utility.yul\":17284:17302   */\n      add\n        /* \"#utility.yul\":17276:17302   */\n      swap1\n      pop\n        /* \"#utility.yul\":17348:17357   */\n      dup2\n        /* \"#utility.yul\":17342:17346   */\n      dup2\n        /* \"#utility.yul\":17338:17358   */\n      sub\n        /* \"#utility.yul\":17334:17335   */\n      0x00\n        /* \"#utility.yul\":17323:17332   */\n      dup4\n        /* \"#utility.yul\":17319:17336   */\n      add\n        /* \"#utility.yul\":17312:17359   */\n      mstore\n        /* \"#utility.yul\":17376:17507   */\n      tag_568\n        /* \"#utility.yul\":17502:17506   */\n      dup2\n        /* \"#utility.yul\":17376:17507   */\n      tag_372\n      jump\t// in\n    tag_568:\n        /* \"#utility.yul\":17368:17507   */\n      swap1\n      pop\n        /* \"#utility.yul\":17095:17514   */\n      swap2\n      swap1\n      pop\n      jump\t// out\n        /* \"#utility.yul\":17520:17685   */\n    tag_373:\n        /* \"#utility.yul\":17660:17677   */\n      0x526561736f6e2072657175697265640000000000000000000000000000000000\n        /* \"#utility.yul\":17656:17657   */\n      0x00\n        /* \"#utility.yul\":17648:17654   */\n      dup3\n        /* \"#utility.yul\":17644:17658   */\n      add\n        /* \"#utility.yul\":17637:17678   */\n      mstore\n        /* \"#utility.yul\":17520:17685   */\n      pop\n      jump\t// out\n        /* \"#utility.yul\":17691:18057   */\n    tag_374:\n        /* \"#utility.yul\":17833:17836   */\n      0x00\n        /* \"#utility.yul\":17854:17921   */\n      tag_571\n        /* \"#utility.yul\":17918:17920   */\n      0x0f\n        /* \"#utility.yul\":17913:17916   */\n      dup4\n        /* \"#utility.yul\":17854:17921   */\n      tag_338\n      jump\t// in\n    tag_571:\n        /* \"#utility.yul\":17847:17921   */\n      swap2\n      pop\n        /* \"#utility.yul\":17930:18023   */\n      tag_572\n        /* \"#utility.yul\":18019:18022   */\n      dup3\n        /* \"#utility.yul\":17930:18023   */\n      tag_373\n      jump\t// in\n    tag_572:\n        /* \"#utility.yul\":18048:18050   */\n      0x20\n        /* \"#utility.yul\":18043:18046   */\n      dup3\n        /* \"#utility.yul\":18039:18051   */\n      add\n        /* \"#utility.yul\":18032:18051   */\n      swap1\n      pop\n        /* \"#utility.yul\":17691:18057   */\n      swap2\n      swap1\n      pop\n      jump\t// out\n        /* \"#utility.yul\":18063:18482   */\n    tag_194:\n        /* \"#utility.yul\":18229:18233   */\n      0x00\n        /* \"#utility.yul\":18267:18269   */\n      0x20\n        /* \"#utility.yul\":18256:18265   */\n      dup3\n        /* \"#utility.yul\":18252:18270   */\n      add\n        /* \"#utility.yul\":18244:18270   */\n      swap1\n      pop\n        /* \"#utility.yul\":18316:18325   */\n      dup2\n        /* \"#utility.yul\":18310:18314   */\n      dup2\n        /* \"#utility.yul\":18306:18326   */\n      sub\n        /* \"#utility.yul\":18302:18303   */\n      0x00\n        /* \"#utility.yul\":18291:18300   */\n      dup4\n        /* \"#utility.yul\":18287:18304   */\n      add\n        /* \"#utility.yul\":18280:18327   */\n      mstore\n        /* \"#utility.yul\":18344:18475   */\n      tag_574\n        /* \"#utility.yul\":18470:18474   */\n      dup2\n        /* \"#utility.yul\":18344:18475   */\n      tag_374\n      jump\t// in\n    tag_574:\n        /* \"#utility.yul\":18336:18475   */\n      swap1\n      pop\n        /* \"#utility.yul\":18063:18482   */\n      swap2\n      swap1\n      pop\n      jump\t// out\n        /* \"#utility.yul\":18488:18661   */\n    tag_375:\n        /* \"#utility.yul\":18628:18653   */\n      0x5265717565737420616c72656164792070656e64696e67000000000000000000\n        /* \"#utility.yul\":18624:18625   */\n      0x00\n        /* \"#utility.yul\":18616:18622   */\n      dup3\n        /* \"#utility.yul\":18612:18626   */\n      add\n        /* \"#utility.yul\":18605:18654   */\n      mstore\n        /* \"#utility.yul\":18488:18661   */\n      pop\n      jump\t// out\n        /* \"#utility.yul\":18667:19033   */\n    tag_376:\n        /* \"#utility.yul\":18809:18812   */\n      0x00\n        /* \"#utility.yul\":18830:18897   */\n      tag_577\n        /* \"#utility.yul\":18894:18896   */\n      0x17\n        /* \"#utility.yul\":18889:18892   */\n      dup4\n        /* \"#utility.yul\":18830:18897   */\n      tag_338\n      jump\t// in\n    tag_577:\n        /* \"#utility.yul\":18823:18897   */\n      swap2\n      pop\n        /* \"#utility.yul\":18906:18999   */\n      tag_578\n        /* \"#utility.yul\":18995:18998   */\n      dup3\n        /* \"#utility.yul\":18906:18999   */\n      tag_375\n      jump\t// in\n    tag_578:\n        /* \"#utility.yul\":19024:19026   */\n      0x20\n        /* \"#utility.yul\":19019:19022   */\n      dup3\n        /* \"#utility.yul\":19015:19027   */\n      add\n        /* \"#utility.yul\":19008:19027   */\n      swap1\n      pop\n        /* \"#utility.yul\":18667:19033   */\n      swap2\n      swap1\n      pop\n      jump\t// out\n        /* \"#utility.yul\":19039:19458   */\n    tag_197:\n        /* \"#utility.yul\":19205:19209   */\n      0x00\n        /* \"#utility.yul\":19243:19245   */\n      0x20\n        /* \"#utility.yul\":19232:19241   */\n      dup3\n        /* \"#utility.yul\":19228:19246   */\n      add\n        /* \"#utility.yul\":19220:19246   */\n      swap1\n      pop\n        /* \"#utility.yul\":19292:19301   */\n      dup2\n        /* \"#utility.yul\":19286:19290   */\n      dup2\n        /* \"#utility.yul\":19282:19302   */\n      sub\n        /* \"#utility.yul\":19278:19279   */\n      0x00\n        /* \"#utility.yul\":19267:19276   */\n      dup4\n        /* \"#utility.yul\":19263:19280   */\n      add\n        /* \"#utility.yul\":19256:19303   */\n      mstore\n        /* \"#utility.yul\":19320:19451   */\n      tag_580\n        /* \"#utility.yul\":19446:19450   */\n      dup2\n        /* \"#utility.yul\":19320:19451   */\n      tag_376\n      jump\t// in\n    tag_580:\n        /* \"#utility.yul\":19312:19451   */\n      swap1\n      pop\n        /* \"#utility.yul\":19039:19458   */\n      swap2\n      swap1\n      pop\n      jump\t// out\n        /* \"#utility.yul\":19464:19605   */\n    tag_377:\n        /* \"#utility.yul\":19513:19517   */\n      0x00\n        /* \"#utility.yul\":19536:19539   */\n      dup2\n        /* \"#utility.yul\":19528:19539   */\n      swap1\n      pop\n        /* \"#utility.yul\":19559:19562   */\n      dup2\n        /* \"#utility.yul\":19556:19557   */\n      0x00\n        /* \"#utility.yul\":19549:19563   */\n      mstore\n        /* \"#utility.yul\":19593:19597   */\n      0x20\n        /* \"#utility.yul\":19590:19591   */\n      0x00\n        /* \"#utility.yul\":19580:19598   */\n      keccak256\n        /* \"#utility.yul\":19572:19598   */\n      swap1\n      pop\n        /* \"#utility.yul\":19464:19605   */\n      swap2\n      swap1\n      pop\n      jump\t// out\n        /* \"#utility.yul\":19611:19704   */\n    tag_378:\n        /* \"#utility.yul\":19648:19654   */\n      0x00\n        /* \"#utility.yul\":19695:19697   */\n      0x20\n        /* \"#utility.yul\":19690:19692   */\n      0x1f\n        /* \"#utility.yul\":19683:19688   */\n      dup4\n        /* \"#utility.yul\":19679:19693   */\n      add\n        /* \"#utility.yul\":19675:19698   */\n      div\n        /* \"#utility.yul\":19665:19698   */\n      swap1\n      pop\n        /* \"#utility.yul\":19611:19704   */\n      swap2\n      swap1\n      pop\n      jump\t// out\n        /* \"#utility.yul\":19710:19817   */\n    tag_379:\n        /* \"#utility.yul\":19754:19762   */\n      0x00\n        /* \"#utility.yul\":19804:19809   */\n      dup3\n        /* \"#utility.yul\":19798:19802   */\n      dup3\n        /* \"#utility.yul\":19794:19810   */\n      shl\n        /* \"#utility.yul\":19773:19810   */\n      swap1\n      pop\n        /* \"#utility.yul\":19710:19817   */\n      swap3\n      swap2\n      pop\n      pop\n      jump\t// out\n        /* \"#utility.yul\":19823:20216   */\n    tag_380:\n        /* \"#utility.yul\":19892:19898   */\n      0x00\n        /* \"#utility.yul\":19942:19943   */\n      0x08\n        /* \"#utility.yul\":19930:19940   */\n      dup4\n        /* \"#utility.yul\":19926:19944   */\n      mul\n        /* \"#utility.yul\":19965:20062   */\n      tag_585\n        /* \"#utility.yul\":19995:20061   */\n      0xffffffffffffffffffffffffffffffffffffffffffffffffffffffffffffffff\n        /* \"#utility.yul\":19984:19993   */\n      dup3\n        /* \"#utility.yul\":19965:20062   */\n      tag_379\n      jump\t// in\n    tag_585:\n        /* \"#utility.yul\":20083:20122   */\n      tag_586\n        /* \"#utility.yul\":20113:20121   */\n      dup7\n        /* \"#utility.yul\":20102:20111   */\n      dup4\n        /* \"#utility.yul\":20083:20122   */\n      tag_379\n      jump\t// in\n    tag_586:\n        /* \"#utility.yul\":20071:20122   */\n      swap6\n      pop\n        /* \"#utility.yul\":20155:20159   */\n      dup1\n        /* \"#utility.yul\":20151:20160   */\n      not\n        /* \"#utility.yul\":20144:20149   */\n      dup5\n        /* \"#utility.yul\":20140:20161   */\n      and\n        /* \"#utility.yul\":20131:20161   */\n      swap4\n      pop\n        /* \"#utility.yul\":20204:20208   */\n      dup1\n        /* \"#utility.yul\":20194:20202   */\n      dup7\n        /* \"#utility.yul\":20190:20209   */\n      and\n        /* \"#utility.yul\":20183:20188   */\n      dup5\n        /* \"#utility.yul\":20180:20210   */\n      or\n        /* \"#utility.yul\":20170:20210   */\n      swap3\n      pop\n        /* \"#utility.yul\":19899:20216   */\n      pop\n      pop\n        /* \"#utility.yul\":19823:20216   */\n      swap4\n      swap3\n      pop\n      pop\n      pop\n      jump\t// out\n        /* \"#utility.yul\":20222:20282   */\n    tag_381:\n        /* \"#utility.yul\":20250:20253   */\n      0x00\n        /* \"#utility.yul\":20271:20276   */\n      dup2\n        /* \"#utility.yul\":20264:20276   */\n      swap1\n      pop\n        /* \"#utility.yul\":20222:20282   */\n      swap2\n      swap1\n      pop\n      jump\t// out\n        /* \"#utility.yul\":20288:20430   */\n    tag_382:\n        /* \"#utility.yul\":20338:20347   */\n      0x00\n        /* \"#utility.yul\":20371:20424   */\n      tag_589\n        /* \"#utility.yul\":20389:20423   */\n      tag_590\n        /* \"#utility.yul\":20398:20422   */\n      tag_591\n        /* \"#utility.yul\":20416:20421   */\n      dup5\n        /* \"#utility.yul\":20398:20422   */\n      tag_342\n      jump\t// in\n    tag_591:\n        /* \"#utility.yul\":20389:20423   */\n      tag_381\n      jump\t// in\n    tag_590:\n        /* \"#utility.yul\":20371:20424   */\n      tag_342\n      jump\t// in\n    tag_589:\n        /* \"#utility.yul\":20358:20424   */\n      swap1\n      pop\n        /* \"#utility.yul\":20288:20430   */\n      swap2\n      swap1\n      pop\n      jump\t// out\n        /* \"#utility.yul\":20436:20511   */\n    tag_383:\n        /* \"#utility.yul\":20479:20482   */\n      0x00\n        /* \"#utility.yul\":20500:20505   */\n      dup2\n        /* \"#utility.yul\":20493:20505   */\n      swap1\n      pop\n        /* \"#utility.yul\":20436:20511   */\n      swap2\n      swap1\n      pop\n      jump\t// out\n        /* \"#utility.yul\":20517:20786   */\n    tag_384:\n        /* \"#utility.yul\":20627:20666   */\n      tag_594\n        /* \"#utility.yul\":20658:20665   */\n      dup4\n        /* \"#utility.yul\":20627:20666   */\n      tag_382\n      jump\t// in\n    tag_594:\n        /* \"#utility.yul\":20688:20779   */\n      tag_595\n        /* \"#utility.yul\":20737:20778   */\n      tag_596\n        /* \"#utility.yul\":20761:20777   */\n      dup3\n        /* \"#utility.yul\":20737:20778   */\n      tag_383\n      jump\t// in\n    tag_596:\n        /* \"#utility.yul\":20729:20735   */\n      dup5\n        /* \"#utility.yul\":20722:20726   */\n      dup5\n        /* \"#utility.yul\":20716:20727   */\n      sload\n        /* \"#utility.yul\":20688:20779   */\n      tag_380\n      jump\t// in\n    tag_595:\n        /* \"#utility.yul\":20682:20686   */\n      dup3\n        /* \"#utility.yul\":20675:20780   */\n      sstore\n        /* \"#utility.yul\":20593:20786   */\n      pop\n        /* \"#utility.yul\":20517:20786   */\n      pop\n      pop\n      pop\n      jump\t// out\n        /* \"#utility.yul\":20792:20865   */\n    tag_385:\n        /* \"#utility.yul\":20837:20840   */\n      0x00\n        /* \"#utility.yul\":20792:20865   */\n      swap1\n      jump\t// out\n        /* \"#utility.yul\":20871:21060   */\n    tag_386:\n        /* \"#utility.yul\":20948:20980   */\n      tag_599\n      tag_385\n      jump\t// in\n    tag_599:\n        /* \"#utility.yul\":20989:21054   */\n      tag_600\n        /* \"#utility.yul\":21047:21053   */\n      dup2\n        /* \"#utility.yul\":21039:21045   */\n      dup5\n        /* \"#utility.yul\":21033:21037   */\n      dup5\n        /* \"#utility.yul\":20989:21054   */\n      tag_384\n      jump\t// in\n    tag_600:\n        /* \"#utility.yul\":20924:21060   */\n      pop\n        /* \"#utility.yul\":20871:21060   */\n      pop\n      pop\n      jump\t// out\n        /* \"#utility.yul\":21066:21252   */\n    tag_387:\n        /* \"#utility.yul\":21126:21246   */\n    tag_602:\n        /* \"#utility.yul\":21143:21146   */\n      dup2\n        /* \"#utility.yul\":21136:21141   */\n      dup2\n        /* \"#utility.yul\":21133:21147   */\n      lt\n        /* \"#utility.yul\":21126:21246   */\n      iszero\n      tag_604\n      jumpi\n        /* \"#utility.yul\":21197:21236   */\n      tag_605\n        /* \"#utility.yul\":21234:21235   */\n      0x00\n        /* \"#utility.yul\":21227:21232   */\n      dup3\n        /* \"#utility.yul\":21197:21236   */\n      tag_386\n      jump\t// in\n    tag_605:\n        /* \"#utility.yul\":21170:21171   */\n      0x01\n        /* \"#utility.yul\":21163:21168   */\n      dup2\n        /* \"#utility.yul\":21159:21172   */\n      add\n        /* \"#utility.yul\":21150:21172   */\n      swap1\n      pop\n        /* \"#utility.yul\":21126:21246   */\n      jump(tag_602)\n    tag_604:\n        /* \"#utility.yul\":21066:21252   */\n      pop\n      pop\n      jump\t// out\n        /* \"#utility.yul\":21258:21801   */\n    tag_388:\n        /* \"#utility.yul\":21359:21361   */\n      0x1f\n        /* \"#utility.yul\":21354:21357   */\n      dup3\n        /* \"#utility.yul\":21351:21362   */\n      gt\n        /* \"#utility.yul\":21348:21794   */\n      iszero\n      tag_607\n      jumpi\n        /* \"#utility.yul\":21393:21431   */\n      tag_608\n        /* \"#utility.yul\":21425:21430   */\n      dup2\n        /* \"#utility.yul\":21393:21431   */\n      tag_377\n      jump\t// in\n    tag_608:\n        /* \"#utility.yul\":21477:21506   */\n      tag_609\n        /* \"#utility.yul\":21495:21505   */\n      dup5\n        /* \"#utility.yul\":21477:21506   */\n      tag_378\n      jump\t// in\n    tag_609:\n        /* \"#utility.yul\":21467:21475   */\n      dup2\n        /* \"#utility.yul\":21463:21507   */\n      add\n        /* \"#utility.yul\":21660:21662   */\n      0x20\n        /* \"#utility.yul\":21648:21658   */\n      dup6\n        /* \"#utility.yul\":21645:21663   */\n      lt\n        /* \"#utility.yul\":21642:21691   */\n      iszero\n      tag_610\n      jumpi\n        /* \"#utility.yul\":21681:21689   */\n      dup2\n        /* \"#utility.yul\":21666:21689   */\n      swap1\n      pop\n        /* \"#utility.yul\":21642:21691   */\n    tag_610:\n        /* \"#utility.yul\":21704:21784   */\n      tag_611\n        /* \"#utility.yul\":21760:21782   */\n      tag_612\n        /* \"#utility.yul\":21778:21781   */\n      dup6\n        /* \"#utility.yul\":21760:21782   */\n      tag_378\n      jump\t// in\n    tag_612:\n        /* \"#utility.yul\":21750:21758   */\n      dup4\n        /* \"#utility.yul\":21746:21783   */\n      add\n        /* \"#utility.yul\":21733:21744   */\n      dup3\n        /* \"#utility.yul\":21704:21784   */\n      tag_387\n      jump\t// in\n    tag_611:\n        /* \"#utility.yul\":21363:21794   */\n      pop\n      pop\n        /* \"#utility.yul\":21348:21794   */\n    tag_607:\n        /* \"#utility.yul\":21258:21801   */\n      pop\n      pop\n      pop\n      jump\t// out\n        /* \"#utility.yul\":21807:21924   */\n    tag_389:\n        /* \"#utility.yul\":21861:21869   */\n      0x00\n        /* \"#utility.yul\":21911:21916   */\n      dup3\n        /* \"#utility.yul\":21905:21909   */\n      dup3\n        /* \"#utility.yul\":21901:21917   */\n      shr\n        /* \"#utility.yul\":21880:21917   */\n      swap1\n      pop\n        /* \"#utility.yul\":21807:21924   */\n      swap3\n      swap2\n      pop\n      pop\n      jump\t// out\n        /* \"#utility.yul\":21930:22099   */\n    tag_390:\n        /* \"#utility.yul\":21974:21980   */\n      0x00\n        /* \"#utility.yul\":22007:22058   */\n      tag_615\n        /* \"#utility.yul\":22055:22056   */\n      0x00\n        /* \"#utility.yul\":22051:22057   */\n      not\n        /* \"#utility.yul\":22043:22048   */\n      dup5\n        /* \"#utility.yul\":22040:22041   */\n      0x08\n        /* \"#utility.yul\":22036:22049   */\n      mul\n        /* \"#utility.yul\":22007:22058   */\n      tag_389\n      jump\t// in\n    tag_615:\n        /* \"#utility.yul\":22003:22059   */\n      not\n        /* \"#utility.yul\":22088:22092   */\n      dup1\n        /* \"#utility.yul\":22082:22086   */\n      dup4\n        /* \"#utility.yul\":22078:22093   */\n      and\n        /* \"#utility.yul\":22068:22093   */\n      swap2\n      pop\n        /* \"#utility.yul\":21981:22099   */\n      pop\n        /* \"#utility.yul\":21930:22099   */\n      swap3\n      swap2\n      pop\n      pop\n      jump\t// out\n        /* \"#utility.yul\":22104:22399   */\n    tag_391:\n        /* \"#utility.yul\":22180:22184   */\n      0x00\n        /* \"#utility.yul\":22326:22355   */\n      tag_617\n        /* \"#utility.yul\":22351:22354   */\n      dup4\n        /* \"#utility.yul\":22345:22349   */\n      dup4\n        /* \"#utility.yul\":22326:22355   */\n      tag_390\n      jump\t// in\n    tag_617:\n        /* \"#utility.yul\":22318:22355   */\n      swap2\n      pop\n        /* \"#utility.yul\":22388:22391   */\n      dup3\n        /* \"#utility.yul\":22385:22386   */\n      0x02\n        /* \"#utility.yul\":22381:22392   */\n      mul\n        /* \"#utility.yul\":22375:22379   */\n      dup3\n        /* \"#utility.yul\":22372:22393   */\n      or\n        /* \"#utility.yul\":22364:22393   */\n      swap1\n      pop\n        /* \"#utility.yul\":22104:22399   */\n      swap3\n      swap2\n      pop\n      pop\n      jump\t// out\n        /* \"#utility.yul\":22404:23799   */\n    tag_199:\n        /* \"#utility.yul\":22521:22558   */\n      tag_619\n        /* \"#utility.yul\":22554:22557   */\n      dup3\n        /* \"#utility.yul\":22521:22558   */\n      tag_337\n      jump\t// in\n    tag_619:\n        /* \"#utility.yul\":22623:22641   */\n      0xffffffffffffffff\n        /* \"#utility.yul\":22615:22621   */\n      dup2\n        /* \"#utility.yul\":22612:22642   */\n      gt\n        /* \"#utility.yul\":22609:22665   */\n      iszero\n      tag_620\n      jumpi\n        /* \"#utility.yul\":22645:22663   */\n      tag_621\n      tag_347\n      jump\t// in\n    tag_621:\n        /* \"#utility.yul\":22609:22665   */\n    tag_620:\n        /* \"#utility.yul\":22689:22727   */\n      tag_622\n        /* \"#utility.yul\":22721:22725   */\n      dup3\n        /* \"#utility.yul\":22715:22726   */\n      sload\n        /* \"#utility.yul\":22689:22727   */\n      tag_122\n      jump\t// in\n    tag_622:\n        /* \"#utility.yul\":22774:22841   */\n      tag_623\n        /* \"#utility.yul\":22834:22840   */\n      dup3\n        /* \"#utility.yul\":22826:22832   */\n      dup3\n        /* \"#utility.yul\":22820:22824   */\n      dup6\n        /* \"#utility.yul\":22774:22841   */\n      tag_388\n      jump\t// in\n    tag_623:\n        /* \"#utility.yul\":22868:22869   */\n      0x00\n        /* \"#utility.yul\":22892:22896   */\n      0x20\n        /* \"#utility.yul\":22879:22896   */\n      swap1\n      pop\n        /* \"#utility.yul\":22924:22926   */\n      0x1f\n        /* \"#utility.yul\":22916:22922   */\n      dup4\n        /* \"#utility.yul\":22913:22927   */\n      gt\n        /* \"#utility.yul\":22941:22942   */\n      0x01\n        /* \"#utility.yul\":22936:23554   */\n      dup2\n      eq\n      tag_625\n      jumpi\n        /* \"#utility.yul\":23598:23599   */\n      0x00\n        /* \"#utility.yul\":23615:23621   */\n      dup5\n        /* \"#utility.yul\":23612:23689   */\n      iszero\n      tag_626\n      jumpi\n        /* \"#utility.yul\":23664:23673   */\n      dup3\n        /* \"#utility.yul\":23659:23662   */\n      dup8\n        /* \"#utility.yul\":23655:23674   */\n      add\n        /* \"#utility.yul\":23649:23675   */\n      mload\n        /* \"#utility.yul\":23640:23675   */\n      swap1\n      pop\n        /* \"#utility.yul\":23612:23689   */\n    tag_626:\n        /* \"#utility.yul\":23715:23782   */\n      tag_627\n        /* \"#utility.yul\":23775:23781   */\n      dup6\n        /* \"#utility.yul\":23768:23773   */\n      dup3\n        /* \"#utility.yul\":23715:23782   */\n      tag_391\n      jump\t// in\n    tag_627:\n        /* \"#utility.yul\":23709:23713   */\n      dup7\n        /* \"#utility.yul\":23702:23783   */\n      sstore\n        /* \"#utility.yul\":23571:23793   */\n      pop\n        /* \"#utility.yul\":22906:23793   */\n      jump(tag_624)\n        /* \"#utility.yul\":22936:23554   */\n    tag_625:\n        /* \"#utility.yul\":22988:22992   */\n      0x1f\n        /* \"#utility.yul\":22984:22993   */\n      not\n        /* \"#utility.yul\":22976:22982   */\n      dup5\n        /* \"#utility.yul\":22972:22994   */\n      and\n        /* \"#utility.yul\":23022:23059   */\n      tag_628\n        /* \"#utility.yul\":23054:23058   */\n      dup7\n        /* \"#utility.yul\":23022:23059   */\n      tag_377\n      jump\t// in\n    tag_628:\n        /* \"#utility.yul\":23081:23082   */\n      0x00\n        /* \"#utility.yul\":23095:23303   */\n    tag_629:\n        /* \"#utility.yul\":23109:23116   */\n      dup3\n        /* \"#utility.yul\":23106:23107   */\n      dup2\n        /* \"#utility.yul\":23103:23117   */\n      lt\n        /* \"#utility.yul\":23095:23303   */\n      iszero\n      tag_631\n      jumpi\n        /* \"#utility.yul\":23188:23197   */\n      dup5\n        /* \"#utility.yul\":23183:23186   */\n      dup10\n        /* \"#utility.yul\":23179:23198   */\n      add\n        /* \"#utility.yul\":23173:23199   */\n      mload\n        /* \"#utility.yul\":23165:23171   */\n      dup3\n        /* \"#utility.yul\":23158:23200   */\n      sstore\n        /* \"#utility.yul\":23239:23240   */\n      0x01\n        /* \"#utility.yul\":23231:23237   */\n      dup3\n        /* \"#utility.yul\":23227:23241   */\n      add\n        /* \"#utility.yul\":23217:23241   */\n      swap2\n      pop\n        /* \"#utility.yul\":23286:23288   */\n      0x20\n        /* \"#utility.yul\":23275:23284   */\n      dup6\n        /* \"#utility.yul\":23271:23289   */\n      add\n        /* \"#utility.yul\":23258:23289   */\n      swap5\n      pop\n        /* \"#utility.yul\":23132:23136   */\n      0x20\n        /* \"#utility.yul\":23129:23130   */\n      dup2\n        /* \"#utility.yul\":23125:23137   */\n      add\n        /* \"#utility.yul\":23120:23137   */\n      swap1\n      pop\n        /* \"#utility.yul\":23095:23303   */\n      jump(tag_629)\n    tag_631:\n        /* \"#utility.yul\":23331:23337   */\n      dup7\n        /* \"#utility.yul\":23322:23329   */\n      dup4\n        /* \"#utility.yul\":23319:23338   */\n      lt\n        /* \"#utility.yul\":23316:23495   */\n      iszero\n      tag_632\n      jumpi\n        /* \"#utility.yul\":23389:23398   */\n      dup5\n        /* \"#utility.yul\":23384:23387   */\n      dup10\n        /* \"#utility.yul\":23380:23399   */\n      add\n        /* \"#utility.yul\":23374:23400   */\n      mload\n        /* \"#utility.yul\":23432:23480   */\n      tag_633\n        /* \"#utility.yul\":23474:23478   */\n      0x1f\n        /* \"#utility.yul\":23466:23472   */\n      dup10\n        /* \"#utility.yul\":23462:23479   */\n      and\n        /* \"#utility.yul\":23451:23460   */\n      dup3\n        /* \"#utility.yul\":23432:23480   */\n      tag_390\n      jump\t// in\n    tag_633:\n        /* \"#utility.yul\":23424:23430   */\n      dup4\n        /* \"#utility.yul\":23417:23481   */\n      sstore\n        /* \"#utility.yul\":23339:23495   */\n      pop\n        /* \"#utility.yul\":23316:23495   */\n    tag_632:\n        /* \"#utility.yul\":23541:23542   */\n      0x01\n        /* \"#utility.yul\":23537:23538   */\n      0x02\n        /* \"#utility.yul\":23529:23535   */\n      dup9\n        /* \"#utility.yul\":23525:23539   */\n      mul\n        /* \"#utility.yul\":23521:23543   */\n      add\n        /* \"#utility.yul\":23515:23519   */\n      dup9\n        /* \"#utility.yul\":23508:23544   */\n      sstore\n        /* \"#utility.yul\":22943:23554   */\n      pop\n      pop\n      pop\n        /* \"#utility.yul\":22906:23793   */\n    tag_624:\n      pop\n        /* \"#utility.yul\":22496:23799   */\n      pop\n      pop\n      pop\n        /* \"#utility.yul\":22404:23799   */\n      pop\n      pop\n      jump\t// out\n        /* \"#utility.yul\":23805:24118   */\n    tag_203:\n        /* \"#utility.yul\":23918:23922   */\n      0x00\n        /* \"#utility.yul\":23956:23958   */\n      0x20\n        /* \"#utility.yul\":23945:23954   */\n      dup3\n        /* \"#utility.yul\":23941:23959   */\n      add\n        /* \"#utility.yul\":23933:23959   */\n      swap1\n      pop\n        /* \"#utility.yul\":24005:24014   */\n      dup2\n        /* \"#utility.yul\":23999:24003   */\n      dup2\n        /* \"#utility.yul\":23995:24015   */\n      sub\n        /* \"#utility.yul\":23991:23992   */\n      0x00\n        /* \"#utility.yul\":23980:23989   */\n      dup4\n        /* \"#utility.yul\":23976:23993   */\n      add\n        /* \"#utility.yul\":23969:24016   */\n      mstore\n        /* \"#utility.yul\":24033:24111   */\n      tag_635\n        /* \"#utility.yul\":24106:24110   */\n      dup2\n        /* \"#utility.yul\":24097:24103   */\n      dup5\n        /* \"#utility.yul\":24033:24111   */\n      tag_341\n      jump\t// in\n    tag_635:\n        /* \"#utility.yul\":24025:24111   */\n      swap1\n      pop\n        /* \"#utility.yul\":23805:24118   */\n      swap3\n      swap2\n      pop\n      pop\n      jump\t// out\n        /* \"#utility.yul\":24124:24290   */\n    tag_392:\n        /* \"#utility.yul\":24264:24282   */\n      0x5061757361626c653a2070617573656400000000000000000000000000000000\n        /* \"#utility.yul\":24260:24261   */\n      0x00\n        /* \"#utility.yul\":24252:24258   */\n      dup3\n        /* \"#utility.yul\":24248:24262   */\n      add\n        /* \"#utility.yul\":24241:24283   */\n      mstore\n        /* \"#utility.yul\":24124:24290   */\n      pop\n      jump\t// out\n        /* \"#utility.yul\":24296:24662   */\n    tag_393:\n        /* \"#utility.yul\":24438:24441   */\n      0x00\n        /* \"#utility.yul\":24459:24526   */\n      tag_638\n        /* \"#utility.yul\":24523:24525   */\n      0x10\n        /* \"#utility.yul\":24518:24521   */\n      dup4\n        /* \"#utility.yul\":24459:24526   */\n      tag_338\n      jump\t// in\n    tag_638:\n        /* \"#utility.yul\":24452:24526   */\n      swap2\n      pop\n        /* \"#utility.yul\":24535:24628   */\n      tag_639\n        /* \"#utility.yul\":24624:24627   */\n      dup3\n        /* \"#utility.yul\":24535:24628   */\n      tag_392\n      jump\t// in\n    tag_639:\n        /* \"#utility.yul\":24653:24655   */\n      0x20\n        /* \"#utility.yul\":24648:24651   */\n      dup3\n        /* \"#utility.yul\":24644:24656   */\n      add\n        /* \"#utility.yul\":24637:24656   */\n      swap1\n      pop\n        /* \"#utility.yul\":24296:24662   */\n      swap2\n      swap1\n      pop\n      jump\t// out\n        /* \"#utility.yul\":24668:25087   */\n    tag_248:\n        /* \"#utility.yul\":24834:24838   */\n      0x00\n        /* \"#utility.yul\":24872:24874   */\n      0x20\n        /* \"#utility.yul\":24861:24870   */\n      dup3\n        /* \"#utility.yul\":24857:24875   */\n      add\n        /* \"#utility.yul\":24849:24875   */\n      swap1\n      pop\n        /* \"#utility.yul\":24921:24930   */\n      dup2\n        /* \"#utility.yul\":24915:24919   */\n      dup2\n        /* \"#utility.yul\":24911:24931   */\n      sub\n        /* \"#utility.yul\":24907:24908   */\n      0x00\n        /* \"#utility.yul\":24896:24905   */\n      dup4\n        /* \"#utility.yul\":24892:24909   */\n      add\n        /* \"#utility.yul\":24885:24932   */\n      mstore\n        /* \"#utility.yul\":24949:25080   */\n      tag_641\n        /* \"#utility.yul\":25075:25079   */\n      dup2\n        /* \"#utility.yul\":24949:25080   */\n      tag_393\n      jump\t// in\n    tag_641:\n        /* \"#utility.yul\":24941:25080   */\n      swap1\n      pop\n        /* \"#utility.yul\":24668:25087   */\n      swap2\n      swap1\n      pop\n      jump\t// out\n        /* \"#utility.yul\":25093:25273   */\n    tag_265:\n        /* \"#utility.yul\":25141:25218   */\n      0x4e487b7100000000000000000000000000000000000000000000000000000000\n        /* \"#utility.yul\":25138:25139   */\n      0x00\n        /* \"#utility.yul\":25131:25219   */\n      mstore\n        /* \"#utility.yul\":25238:25242   */\n      0x32\n        /* \"#utility.yul\":25235:25236   */\n      0x04\n        /* \"#utility.yul\":25228:25243   */\n      mstore\n        /* \"#utility.yul\":25262:25266   */\n      0x24\n        /* \"#utility.yul\":25259:25260   */\n      0x00\n        /* \"#utility.yul\":25252:25267   */\n      revert\n        /* \"#utility.yul\":25279:25459   */\n    tag_394:\n        /* \"#utility.yul\":25327:25404   */\n      0x4e487b7100000000000000000000000000000000000000000000000000000000\n        /* \"#utility.yul\":25324:25325   */\n      0x00\n        /* \"#utility.yul\":25317:25405   */\n      mstore\n        /* \"#utility.yul\":25424:25428   */\n      0x11\n        /* \"#utility.yul\":25421:25422   */\n      0x04\n        /* \"#utility.yul\":25414:25429   */\n      mstore\n        /* \"#utility.yul\":25448:25452   */\n      0x24\n        /* \"#utility.yul\":25445:25446   */\n      0x00\n        /* \"#utility.yul\":25438:25453   */\n      revert\n        /* \"#utility.yul\":25465:25659   */\n    tag_273:\n        /* \"#utility.yul\":25505:25509   */\n      0x00\n        /* \"#utility.yul\":25525:25545   */\n      tag_645\n        /* \"#utility.yul\":25543:25544   */\n      dup3\n        /* \"#utility.yul\":25525:25545   */\n      tag_342\n      jump\t// in\n    tag_645:\n        /* \"#utility.yul\":25520:25545   */\n      swap2\n      pop\n        /* \"#utility.yul\":25559:25579   */\n      tag_646\n        /* \"#utility.yul\":25577:25578   */\n      dup4\n        /* \"#utility.yul\":25559:25579   */\n      tag_342\n      jump\t// in\n    tag_646:\n        /* \"#utility.yul\":25554:25579   */\n      swap3\n      pop\n        /* \"#utility.yul\":25603:25604   */\n      dup3\n        /* \"#utility.yul\":25600:25601   */\n      dup3\n        /* \"#utility.yul\":25596:25605   */\n      sub\n        /* \"#utility.yul\":25588:25605   */\n      swap1\n      pop\n        /* \"#utility.yul\":25627:25628   */\n      dup2\n        /* \"#utility.yul\":25621:25625   */\n      dup2\n        /* \"#utility.yul\":25618:25629   */\n      gt\n        /* \"#utility.yul\":25615:25652   */\n      iszero\n      tag_647\n      jumpi\n        /* \"#utility.yul\":25632:25650   */\n      tag_648\n      tag_394\n      jump\t// in\n    tag_648:\n        /* \"#utility.yul\":25615:25652   */\n    tag_647:\n        /* \"#utility.yul\":25465:25659   */\n      swap3\n      swap2\n      pop\n      pop\n      jump\t// out\n        /* \"#utility.yul\":25665:25814   */\n    tag_395:\n        /* \"#utility.yul\":25714:25720   */\n      0x00\n        /* \"#utility.yul\":25748:25753   */\n      dup2\n        /* \"#utility.yul\":25742:25754   */\n      sload\n        /* \"#utility.yul\":25732:25754   */\n      swap1\n      pop\n        /* \"#utility.yul\":25774:25807   */\n      tag_650\n        /* \"#utility.yul\":25800:25806   */\n      dup2\n        /* \"#utility.yul\":25774:25807   */\n      tag_122\n      jump\t// in\n    tag_650:\n        /* \"#utility.yul\":25764:25807   */\n      swap1\n      pop\n        /* \"#utility.yul\":25665:25814   */\n      swap2\n      swap1\n      pop\n      jump\t// out\n        /* \"#utility.yul\":25820:27271   */\n    tag_281:\n        /* \"#utility.yul\":25931:25934   */\n      dup2\n        /* \"#utility.yul\":25925:25929   */\n      dup2\n        /* \"#utility.yul\":25922:25935   */\n      sub\n        /* \"#utility.yul\":25919:25945   */\n      tag_652\n      jumpi\n        /* \"#utility.yul\":25938:25943   */\n      pop\n      pop\n      jump(tag_651)\n        /* \"#utility.yul\":25919:25945   */\n    tag_652:\n        /* \"#utility.yul\":25969:26003   */\n      tag_653\n        /* \"#utility.yul\":25999:26002   */\n      dup3\n        /* \"#utility.yul\":25969:26003   */\n      tag_395\n      jump\t// in\n    tag_653:\n        /* \"#utility.yul\":26068:26086   */\n      0xffffffffffffffff\n        /* \"#utility.yul\":26060:26066   */\n      dup2\n        /* \"#utility.yul\":26057:26087   */\n      gt\n        /* \"#utility.yul\":26054:26110   */\n      iszero\n      tag_654\n      jumpi\n        /* \"#utility.yul\":26090:26108   */\n      tag_655\n      tag_347\n      jump\t// in\n    tag_655:\n        /* \"#utility.yul\":26054:26110   */\n    tag_654:\n        /* \"#utility.yul\":26134:26172   */\n      tag_656\n        /* \"#utility.yul\":26166:26170   */\n      dup3\n        /* \"#utility.yul\":26160:26171   */\n      sload\n        /* \"#utility.yul\":26134:26172   */\n      tag_122\n      jump\t// in\n    tag_656:\n        /* \"#utility.yul\":26219:26286   */\n      tag_657\n        /* \"#utility.yul\":26279:26285   */\n      dup3\n        /* \"#utility.yul\":26271:26277   */\n      dup3\n        /* \"#utility.yul\":26265:26269   */\n      dup6\n        /* \"#utility.yul\":26219:26286   */\n      tag_388\n      jump\t// in\n    tag_657:\n        /* \"#utility.yul\":26313:26314   */\n      0x00\n        /* \"#utility.yul\":26342:26344   */\n      0x1f\n        /* \"#utility.yul\":26334:26340   */\n      dup4\n        /* \"#utility.yul\":26331:26345   */\n      gt\n        /* \"#utility.yul\":26359:26360   */\n      0x01\n        /* \"#utility.yul\":26354:27026   */\n      dup2\n      eq\n      tag_659\n      jumpi\n        /* \"#utility.yul\":27070:27071   */\n      0x00\n        /* \"#utility.yul\":27087:27093   */\n      dup5\n        /* \"#utility.yul\":27084:27161   */\n      iszero\n      tag_660\n      jumpi\n        /* \"#utility.yul\":27136:27145   */\n      dup3\n        /* \"#utility.yul\":27131:27134   */\n      dup8\n        /* \"#utility.yul\":27127:27146   */\n      add\n        /* \"#utility.yul\":27121:27147   */\n      sload\n        /* \"#utility.yul\":27112:27147   */\n      swap1\n      pop\n        /* \"#utility.yul\":27084:27161   */\n    tag_660:\n        /* \"#utility.yul\":27187:27254   */\n      tag_661\n        /* \"#utility.yul\":27247:27253   */\n      dup6\n        /* \"#utility.yul\":27240:27245   */\n      dup3\n        /* \"#utility.yul\":27187:27254   */\n      tag_391\n      jump\t// in\n    tag_661:\n        /* \"#utility.yul\":27181:27185   */\n      dup7\n        /* \"#utility.yul\":27174:27255   */\n      sstore\n        /* \"#utility.yul\":27043:27265   */\n      pop\n        /* \"#utility.yul\":26324:27265   */\n      jump(tag_658)\n        /* \"#utility.yul\":26354:27026   */\n    tag_659:\n        /* \"#utility.yul\":26406:26410   */\n      0x1f\n        /* \"#utility.yul\":26402:26411   */\n      not\n        /* \"#utility.yul\":26394:26400   */\n      dup5\n        /* \"#utility.yul\":26390:26412   */\n      and\n        /* \"#utility.yul\":26432:26468   */\n      tag_662\n        /* \"#utility.yul\":26464:26467   */\n      dup8\n        /* \"#utility.yul\":26432:26468   */\n      tag_377\n      jump\t// in\n    tag_662:\n        /* \"#utility.yul\":26425:26468   */\n      swap7\n      pop\n        /* \"#utility.yul\":26495:26532   */\n      tag_663\n        /* \"#utility.yul\":26527:26531   */\n      dup7\n        /* \"#utility.yul\":26495:26532   */\n      tag_377\n      jump\t// in\n    tag_663:\n        /* \"#utility.yul\":26554:26555   */\n      0x00\n        /* \"#utility.yul\":26568:26775   */\n    tag_664:\n        /* \"#utility.yul\":26582:26589   */\n      dup3\n        /* \"#utility.yul\":26579:26580   */\n      dup2\n        /* \"#utility.yul\":26576:26590   */\n      lt\n        /* \"#utility.yul\":26568:26775   */\n      iszero\n      tag_666\n      jumpi\n        /* \"#utility.yul\":26661:26670   */\n      dup5\n        /* \"#utility.yul\":26656:26659   */\n      dup10\n        /* \"#utility.yul\":26652:26671   */\n      add\n        /* \"#utility.yul\":26646:26672   */\n      sload\n        /* \"#utility.yul\":26638:26644   */\n      dup3\n        /* \"#utility.yul\":26631:26673   */\n      sstore\n        /* \"#utility.yul\":26712:26713   */\n      0x01\n        /* \"#utility.yul\":26704:26710   */\n      dup3\n        /* \"#utility.yul\":26700:26714   */\n      add\n        /* \"#utility.yul\":26690:26714   */\n      swap2\n      pop\n        /* \"#utility.yul\":26759:26760   */\n      0x01\n        /* \"#utility.yul\":26748:26757   */\n      dup6\n        /* \"#utility.yul\":26744:26761   */\n      add\n        /* \"#utility.yul\":26731:26761   */\n      swap5\n      pop\n        /* \"#utility.yul\":26605:26609   */\n      0x20\n        /* \"#utility.yul\":26602:26603   */\n      dup2\n        /* \"#utility.yul\":26598:26610   */\n      add\n        /* \"#utility.yul\":26593:26610   */\n      swap1\n      pop\n        /* \"#utility.yul\":26568:26775   */\n      jump(tag_664)\n    tag_666:\n        /* \"#utility.yul\":26803:26809   */\n      dup7\n        /* \"#utility.yul\":26794:26801   */\n      dup4\n        /* \"#utility.yul\":26791:26810   */\n      lt\n        /* \"#utility.yul\":26788:26967   */\n      iszero\n      tag_667\n      jumpi\n        /* \"#utility.yul\":26861:26870   */\n      dup5\n        /* \"#utility.yul\":26856:26859   */\n      dup10\n        /* \"#utility.yul\":26852:26871   */\n      add\n        /* \"#utility.yul\":26846:26872   */\n      sload\n        /* \"#utility.yul\":26904:26952   */\n      tag_668\n        /* \"#utility.yul\":26946:26950   */\n      0x1f\n        /* \"#utility.yul\":26938:26944   */\n      dup10\n        /* \"#utility.yul\":26934:26951   */\n      and\n        /* \"#utility.yul\":26923:26932   */\n      dup3\n        /* \"#utility.yul\":26904:26952   */\n      tag_390\n      jump\t// in\n    tag_668:\n        /* \"#utility.yul\":26896:26902   */\n      dup4\n        /* \"#utility.yul\":26889:26953   */\n      sstore\n        /* \"#utility.yul\":26811:26967   */\n      pop\n        /* \"#utility.yul\":26788:26967   */\n    tag_667:\n        /* \"#utility.yul\":27013:27014   */\n      0x01\n        /* \"#utility.yul\":27009:27010   */\n      0x02\n        /* \"#utility.yul\":27001:27007   */\n      dup9\n        /* \"#utility.yul\":26997:27011   */\n      mul\n        /* \"#utility.yul\":26993:27015   */\n      add\n        /* \"#utility.yul\":26987:26991   */\n      dup9\n        /* \"#utility.yul\":26980:27016   */\n      sstore\n        /* \"#utility.yul\":26361:27026   */\n      pop\n      pop\n      pop\n        /* \"#utility.yul\":26324:27265   */\n    tag_658:\n      pop\n        /* \"#utility.yul\":25909:27271   */\n      pop\n      pop\n      pop\n        /* \"#utility.yul\":25820:27271   */\n      pop\n      pop\n    tag_651:\n      jump\t// out\n        /* \"#utility.yul\":27277:27457   */\n    tag_284:\n        /* \"#utility.yul\":27325:27402   */\n      0x4e487b7100000000000000000000000000000000000000000000000000000000\n        /* \"#utility.yul\":27322:27323   */\n      0x00\n        /* \"#utility.yul\":27315:27403   */\n      mstore\n        /* \"#utility.yul\":27422:27426   */\n      0x31\n        /* \"#utility.yul\":27419:27420   */\n      0x04\n        /* \"#utility.yul\":27412:27427   */\n      mstore\n        /* \"#utility.yul\":27446:27450   */\n      0x24\n        /* \"#utility.yul\":27443:27444   */\n      0x00\n        /* \"#utility.yul\":27436:27451   */\n      revert\n        /* \"#utility.yul\":27463:27696   */\n    tag_289:\n        /* \"#utility.yul\":27502:27505   */\n      0x00\n        /* \"#utility.yul\":27525:27549   */\n      tag_671\n        /* \"#utility.yul\":27543:27548   */\n      dup3\n        /* \"#utility.yul\":27525:27549   */\n      tag_342\n      jump\t// in\n    tag_671:\n        /* \"#utility.yul\":27516:27549   */\n      swap2\n      pop\n        /* \"#utility.yul\":27571:27637   */\n      0xffffffffffffffffffffffffffffffffffffffffffffffffffffffffffffffff\n        /* \"#utility.yul\":27564:27569   */\n      dup3\n        /* \"#utility.yul\":27561:27638   */\n      sub\n        /* \"#utility.yul\":27558:27661   */\n      tag_672\n      jumpi\n        /* \"#utility.yul\":27641:27659   */\n      tag_673\n      tag_394\n      jump\t// in\n    tag_673:\n        /* \"#utility.yul\":27558:27661   */\n    tag_672:\n        /* \"#utility.yul\":27688:27689   */\n      0x01\n        /* \"#utility.yul\":27681:27686   */\n      dup3\n        /* \"#utility.yul\":27677:27690   */\n      add\n        /* \"#utility.yul\":27670:27690   */\n      swap1\n      pop\n        /* \"#utility.yul\":27463:27696   */\n      swap2\n      swap1\n      pop\n      jump\t// out\n        /* \"#utility.yul\":27702:27924   */\n    tag_297:\n        /* \"#utility.yul\":27795:27799   */\n      0x00\n        /* \"#utility.yul\":27833:27835   */\n      0x20\n        /* \"#utility.yul\":27822:27831   */\n      dup3\n        /* \"#utility.yul\":27818:27836   */\n      add\n        /* \"#utility.yul\":27810:27836   */\n      swap1\n      pop\n        /* \"#utility.yul\":27846:27917   */\n      tag_675\n        /* \"#utility.yul\":27914:27915   */\n      0x00\n        /* \"#utility.yul\":27903:27912   */\n      dup4\n        /* \"#utility.yul\":27899:27916   */\n      add\n        /* \"#utility.yul\":27890:27896   */\n      dup5\n        /* \"#utility.yul\":27846:27917   */\n      tag_335\n      jump\t// in\n    tag_675:\n        /* \"#utility.yul\":27702:27924   */\n      swap3\n      swap2\n      pop\n      pop\n      jump\t// out\n        /* \"#utility.yul\":27930:28262   */\n    tag_307:\n        /* \"#utility.yul\":28051:28055   */\n      0x00\n        /* \"#utility.yul\":28089:28091   */\n      0x40\n        /* \"#utility.yul\":28078:28087   */\n      dup3\n        /* \"#utility.yul\":28074:28092   */\n      add\n        /* \"#utility.yul\":28066:28092   */\n      swap1\n      pop\n        /* \"#utility.yul\":28102:28173   */\n      tag_677\n        /* \"#utility.yul\":28170:28171   */\n      0x00\n        /* \"#utility.yul\":28159:28168   */\n      dup4\n        /* \"#utility.yul\":28155:28172   */\n      add\n        /* \"#utility.yul\":28146:28152   */\n      dup6\n        /* \"#utility.yul\":28102:28173   */\n      tag_335\n      jump\t// in\n    tag_677:\n        /* \"#utility.yul\":28183:28255   */\n      tag_678\n        /* \"#utility.yul\":28251:28253   */\n      0x20\n        /* \"#utility.yul\":28240:28249   */\n      dup4\n        /* \"#utility.yul\":28236:28254   */\n      add\n        /* \"#utility.yul\":28227:28233   */\n      dup5\n        /* \"#utility.yul\":28183:28255   */\n      tag_336\n      jump\t// in\n    tag_678:\n        /* \"#utility.yul\":27930:28262   */\n      swap4\n      swap3\n      pop\n      pop\n      pop\n      jump\t// out\n        /* \"#utility.yul\":28268:28438   */\n    tag_396:\n        /* \"#utility.yul\":28408:28430   */\n      0x5061757361626c653a206e6f7420706175736564000000000000000000000000\n        /* \"#utility.yul\":28404:28405   */\n      0x00\n        /* \"#utility.yul\":28396:28402   */\n      dup3\n        /* \"#utility.yul\":28392:28406   */\n      add\n        /* \"#utility.yul\":28385:28431   */\n      mstore\n        /* \"#utility.yul\":28268:28438   */\n      pop\n      jump\t// out\n        /* \"#utility.yul\":28444:28810   */\n    tag_397:\n        /* \"#utility.yul\":28586:28589   */\n      0x00\n        /* \"#utility.yul\":28607:28674   */\n      tag_681\n        /* \"#utility.yul\":28671:28673   */\n      0x14\n        /* \"#utility.yul\":28666:28669   */\n      dup4\n        /* \"#utility.yul\":28607:28674   */\n      tag_338\n      jump\t// in\n    tag_681:\n        /* \"#utility.yul\":28600:28674   */\n      swap2\n      pop\n        /* \"#utility.yul\":28683:28776   */\n      tag_682\n        /* \"#utility.yul\":28772:28775   */\n      dup3\n        /* \"#utility.yul\":28683:28776   */\n      tag_396\n      jump\t// in\n    tag_682:\n        /* \"#utility.yul\":28801:28803   */\n      0x20\n        /* \"#utility.yul\":28796:28799   */\n      dup3\n        /* \"#utility.yul\":28792:28804   */\n      add\n        /* \"#utility.yul\":28785:28804   */\n      swap1\n      pop\n        /* \"#utility.yul\":28444:28810   */\n      swap2\n      swap1\n      pop\n      jump\t// out\n        /* \"#utility.yul\":28816:29235   */\n    tag_312:\n        /* \"#utility.yul\":28982:28986   */\n      0x00\n        /* \"#utility.yul\":29020:29022   */\n      0x20\n        /* \"#utility.yul\":29009:29018   */\n      dup3\n        /* \"#utility.yul\":29005:29023   */\n      add\n        /* \"#utility.yul\":28997:29023   */\n      swap1\n      pop\n        /* \"#utility.yul\":29069:29078   */\n      dup2\n        /* \"#utility.yul\":29063:29067   */\n      dup2\n        /* \"#utility.yul\":29059:29079   */\n      sub\n        /* \"#utility.yul\":29055:29056   */\n      0x00\n        /* \"#utility.yul\":29044:29053   */\n      dup4\n        /* \"#utility.yul\":29040:29057   */\n      add\n        /* \"#utility.yul\":29033:29080   */\n      mstore\n        /* \"#utility.yul\":29097:29228   */\n      tag_684\n        /* \"#utility.yul\":29223:29227   */\n      dup2\n        /* \"#utility.yul\":29097:29228   */\n      tag_397\n      jump\t// in\n    tag_684:\n        /* \"#utility.yul\":29089:29228   */\n      swap1\n      pop\n        /* \"#utility.yul\":28816:29235   */\n      swap2\n      swap1\n      pop\n      jump\t// out\n\n    auxdata: 0xa264697066735822122063cbb36c12d4e78628a0ba5e6cc50094ac3a9329fe62aa6f3679b25b892ce84e64736f6c63430008140033\n}\n",
				"bytecode": {
					"linkReferences": {},
					"object": "608060405234801562000010575f80fd5b505f60015f6101000a81548160ff0219169083151502179055506200003e5f801b336200007860201b60201c565b50620000717fa49807205ce4d355092ef5a8a18f56e8913cf4a201fbe287825b095693c21775336200007860201b60201c565b50620001dd565b5f6200008b83836200017360201b60201c565b620001695760015f808581526020019081526020015f205f015f8473ffffffffffffffffffffffffffffffffffffffff1673ffffffffffffffffffffffffffffffffffffffff1681526020019081526020015f205f6101000a81548160ff02191690831515021790555062000105620001d660201b60201c565b73ffffffffffffffffffffffffffffffffffffffff168273ffffffffffffffffffffffffffffffffffffffff16847f2f8788117e7eff1d82e926ec794901d17c78024a50270940304540a733656f0d60405160405180910390a4600190506200016d565b5f90505b92915050565b5f805f8481526020019081526020015f205f015f8373ffffffffffffffffffffffffffffffffffffffff1673ffffffffffffffffffffffffffffffffffffffff1681526020019081526020015f205f9054906101000a900460ff16905092915050565b5f33905090565b612ba080620001eb5f395ff3fe608060405234801561000f575f80fd5b5060043610610156575f3560e01c806375b238fc116100c15780639411ca461161007a5780639411ca46146103a457806398e4abb5146103d8578063a217fddf146103f6578063bd60512114610414578063c2d7944414610430578063d547741f1461044e57610156565b806375b238fc146102f4578063768b01aa1461031257806378988ebd1461032e57806380a1f7121461034c5780638456cb591461036a57806391d148541461037457610156565b80632f2ff15d116101135780632f2ff15d14610242578063303e38401461025e57806336568abe1461027c5780633c652a9a146102985780633f4ba83a146102cc5780635c975abb146102d657610156565b806301ffc9a71461015a57806318097b691461018a5780631d9486de146101be578063208dd1ff146101da578063248a9ca3146101f657806325df448c14610226575b5f80fd5b610174600480360381019061016f9190611d1c565b61046a565b6040516101819190611d61565b60405180910390f35b6101a4600480360381019061019f9190611e07565b6104e3565b6040516101b5959493929190611eed565b60405180910390f35b6101d860048036038101906101d39190611e07565b610693565b005b6101f460048036038101906101ef9190611e07565b610787565b005b610210600480360381019061020b9190611f45565b61087b565b60405161021d9190611f70565b60405180910390f35b610240600480360381019061023b9190611e07565b610897565b005b61025c60048036038101906102579190611f89565b610ab1565b005b610266610ad3565b6040516102739190611f70565b60405180910390f35b61029660048036038101906102919190611f89565b610af7565b005b6102b260048036038101906102ad9190611ffa565b610b72565b6040516102c3959493929190611eed565b60405180910390f35b6102d4610c71565b005b6102de610ca6565b6040516102eb9190611d61565b60405180910390f35b6102fc610cbb565b6040516103099190611f70565b60405180910390f35b61032c60048036038101906103279190612151565b610cdf565b005b61033661106a565b6040516103439190611f70565b60405180910390f35b61035461108e565b604051610361919061234e565b60405180910390f35b61037261120d565b005b61038e60048036038101906103899190611f89565b611242565b60405161039b9190611d61565b60405180910390f35b6103be60048036038101906103b99190611e07565b6112a5565b6040516103cf959493929190611eed565b60405180910390f35b6103e06113a0565b6040516103ed9190611f70565b60405180910390f35b6103fe6113c4565b60405161040b9190611f70565b60405180910390f35b61042e60048036038101906104299190611e07565b6113ca565b005b610438611594565b6040516104459190611f70565b60405180910390f35b61046860048036038101906104639190611f89565b6115b8565b005b5f7f7965db0b000000000000000000000000000000000000000000000000000000007bffffffffffffffffffffffffffffffffffffffffffffffffffffffff1916827bffffffffffffffffffffffffffffffffffffffffffffffffffffffff191614806104dc57506104db826115da565b5b9050919050565b5f8060605f805f60025f8973ffffffffffffffffffffffffffffffffffffffff1673ffffffffffffffffffffffffffffffffffffffff1681526020019081526020015f205f8881526020019081526020015f206040518060a00160405290815f82015f9054906101000a900473ffffffffffffffffffffffffffffffffffffffff1673ffffffffffffffffffffffffffffffffffffffff1673ffffffffffffffffffffffffffffffffffffffff168152602001600182015481526020016002820180546105af9061239b565b80601f01602080910402602001604051908101604052809291908181526020018280546105db9061239b565b80156106265780601f106105fd57610100808354040283529160200191610626565b820191905f5260205f20905b81548152906001019060200180831161060957829003601f168201915b50505050508152602001600382015f9054906101000a900460ff161515151581526020016003820160019054906101000a900460ff1615151515815250509050805f0151816020015182604001518360600151846080015195509550955095509550509295509295909350565b7fa49807205ce4d355092ef5a8a18f56e8913cf4a201fbe287825b095693c217756106bd81611643565b6106c5611657565b5f73ffffffffffffffffffffffffffffffffffffffff168373ffffffffffffffffffffffffffffffffffffffff1603610733576040517f08c379a000000000000000000000000000000000000000000000000000000000815260040161072a90612415565b60405180910390fd5b61073d82846116a1565b50818373ffffffffffffffffffffffffffffffffffffffff167f0666448aae9b9c8249fd8213a35a9c10218a0eac2fb39b96ed90c67214c7e76160405160405180910390a3505050565b7fa49807205ce4d355092ef5a8a18f56e8913cf4a201fbe287825b095693c217756107b181611643565b6107b9611657565b5f73ffffffffffffffffffffffffffffffffffffffff168373ffffffffffffffffffffffffffffffffffffffff1603610827576040517f08c379a000000000000000000000000000000000000000000000000000000000815260040161081e90612415565b60405180910390fd5b610831828461178a565b50818373ffffffffffffffffffffffffffffffffffffffff167fea83a7caef01824e96446a8c4bc8ff4669edd99e129b53e32c077f85d216808160405160405180910390a3505050565b5f805f8381526020019081526020015f20600101549050919050565b7fa49807205ce4d355092ef5a8a18f56e8913cf4a201fbe287825b095693c217756108c181611643565b6108c9611657565b5f73ffffffffffffffffffffffffffffffffffffffff168373ffffffffffffffffffffffffffffffffffffffff1603610937576040517f08c379a000000000000000000000000000000000000000000000000000000000815260040161092e90612415565b60405180910390fd5b5f60025f8573ffffffffffffffffffffffffffffffffffffffff1673ffffffffffffffffffffffffffffffffffffffff1681526020019081526020015f205f8481526020019081526020015f209050806003015f9054906101000a900460ff166109d6576040517f08c379a00000000000000000000000000000000000000000000000000000000081526004016109cd9061247d565b60405180910390fd5b5f816003015f6101000a81548160ff02191690831515021790555060018160030160016101000a81548160ff021916908315150217905550610a188484611873565b610a2283856116a1565b50828473ffffffffffffffffffffffffffffffffffffffff167f7eb8b9d1e030c150ef76a2962c9e6f78af369eb66f093314f8b59040fc5992da60405160405180910390a3828473ffffffffffffffffffffffffffffffffffffffff167f0666448aae9b9c8249fd8213a35a9c10218a0eac2fb39b96ed90c67214c7e76160405160405180910390a350505050565b610aba8261087b565b610ac381611643565b610acd83836116a1565b50505050565b7f709f71abb733aa2493d642ec84d615695650e6806fd401c97e1fecbd9c84c1d681565b610aff611afb565b73ffffffffffffffffffffffffffffffffffffffff168173ffffffffffffffffffffffffffffffffffffffff1614610b63576040517f6697b23200000000000000000000000000000000000000000000000000000000815260040160405180910390fd5b610b6d828261178a565b505050565b60038181548110610b81575f80fd5b905f5260205f2090600402015f91509050805f015f9054906101000a900473ffffffffffffffffffffffffffffffffffffffff1690806001015490806002018054610bcb9061239b565b80601f0160208091040260200160405190810160405280929190818152602001828054610bf79061239b565b8015610c425780601f10610c1957610100808354040283529160200191610c42565b820191905f5260205f20905b815481529060010190602001808311610c2557829003601f168201915b505050505090806003015f9054906101000a900460ff16908060030160019054906101000a900460ff16905085565b7fa49807205ce4d355092ef5a8a18f56e8913cf4a201fbe287825b095693c21775610c9b81611643565b610ca3611b02565b50565b5f60015f9054906101000a900460ff16905090565b7fa49807205ce4d355092ef5a8a18f56e8913cf4a201fbe287825b095693c2177581565b610ce7611657565b610cf18233611242565b15610d31576040517f08c379a0000000000000000000000000000000000000000000000000000000008152600401610d28906124e5565b60405180910390fd5b5f815111610d74576040517f08c379a0000000000000000000000000000000000000000000000000000000008152600401610d6b9061254d565b60405180910390fd5b60025f3373ffffffffffffffffffffffffffffffffffffffff1673ffffffffffffffffffffffffffffffffffffffff1681526020019081526020015f205f8381526020019081526020015f206003015f9054906101000a900460ff1615610e10576040517f08c379a0000000000000000000000000000000000000000000000000000000008152600401610e07906125b5565b60405180910390fd5b5f6040518060a001604052803373ffffffffffffffffffffffffffffffffffffffff1681526020018481526020018381526020016001151581526020015f151581525090508060025f3373ffffffffffffffffffffffffffffffffffffffff1673ffffffffffffffffffffffffffffffffffffffff1681526020019081526020015f205f8581526020019081526020015f205f820151815f015f6101000a81548173ffffffffffffffffffffffffffffffffffffffff021916908373ffffffffffffffffffffffffffffffffffffffff160217905550602082015181600101556040820151816002019081610f059190612770565b506060820151816003015f6101000a81548160ff02191690831515021790555060808201518160030160016101000a81548160ff021916908315150217905550905050600381908060018154018082558091505060019003905f5260205f2090600402015f909190919091505f820151815f015f6101000a81548173ffffffffffffffffffffffffffffffffffffffff021916908373ffffffffffffffffffffffffffffffffffffffff160217905550602082015181600101556040820151816002019081610fd49190612770565b506060820151816003015f6101000a81548160ff02191690831515021790555060808201518160030160016101000a81548160ff0219169083151502179055505050823373ffffffffffffffffffffffffffffffffffffffff167f98f6f2d133c420a141a671ce9479e3956417c7f04bd370de1cd64ce10d385d948460405161105d919061283f565b60405180910390a3505050565b7f876bbbf5907d194533faadcead8cfa42ad0f2b1653cc89d94228f5c04f389a1581565b60606003805480602002602001604051908101604052809291908181526020015f905b82821015611204578382905f5260205f2090600402016040518060a00160405290815f82015f9054906101000a900473ffffffffffffffffffffffffffffffffffffffff1673ffffffffffffffffffffffffffffffffffffffff1673ffffffffffffffffffffffffffffffffffffffff168152602001600182015481526020016002820180546111409061239b565b80601f016020809104026020016040519081016040528092919081815260200182805461116c9061239b565b80156111b75780601f1061118e576101008083540402835291602001916111b7565b820191905f5260205f20905b81548152906001019060200180831161119a57829003601f168201915b50505050508152602001600382015f9054906101000a900460ff161515151581526020016003820160019054906101000a900460ff161515151581525050815260200190600101906110b1565b50505050905090565b7fa49807205ce4d355092ef5a8a18f56e8913cf4a201fbe287825b095693c2177561123781611643565b61123f611b63565b50565b5f805f8481526020019081526020015f205f015f8373ffffffffffffffffffffffffffffffffffffffff1673ffffffffffffffffffffffffffffffffffffffff1681526020019081526020015f205f9054906101000a900460ff16905092915050565b6002602052815f5260405f20602052805f5260405f205f9150915050805f015f9054906101000a900473ffffffffffffffffffffffffffffffffffffffff16908060010154908060020180546112fa9061239b565b80601f01602080910402602001604051908101604052809291908181526020018280546113269061239b565b80156113715780601f1061134857610100808354040283529160200191611371565b820191905f5260205f20905b81548152906001019060200180831161135457829003601f168201915b505050505090806003015f9054906101000a900460ff16908060030160019054906101000a900460ff16905085565b7f329c74013ba5a00a181f8b3dc9d0ae428c8a88ad0625246c0382e31759b580db81565b5f801b81565b7fa49807205ce4d355092ef5a8a18f56e8913cf4a201fbe287825b095693c217756113f481611643565b6113fc611657565b5f73ffffffffffffffffffffffffffffffffffffffff168373ffffffffffffffffffffffffffffffffffffffff160361146a576040517f08c379a000000000000000000000000000000000000000000000000000000000815260040161146190612415565b60405180910390fd5b5f60025f8573ffffffffffffffffffffffffffffffffffffffff1673ffffffffffffffffffffffffffffffffffffffff1681526020019081526020015f205f8481526020019081526020015f209050806003015f9054906101000a900460ff16611509576040517f08c379a00000000000000000000000000000000000000000000000000000000081526004016115009061247d565b60405180910390fd5b5f816003015f6101000a81548160ff0219169083151502179055505f8160030160016101000a81548160ff02191690831515021790555061154a8484611873565b828473ffffffffffffffffffffffffffffffffffffffff167f4b685ab8ace04ef41f36cfa424816013417e507b3c57629fdd55778c2958752760405160405180910390a350505050565b7f1597bc5e34ff090612f53164e4e642d2ab4fc78bffe19ed1b602a0d12559561a81565b6115c18261087b565b6115ca81611643565b6115d4838361178a565b50505050565b5f7f01ffc9a7000000000000000000000000000000000000000000000000000000007bffffffffffffffffffffffffffffffffffffffffffffffffffffffff1916827bffffffffffffffffffffffffffffffffffffffffffffffffffffffff1916149050919050565b6116548161164f611afb565b611bc4565b50565b61165f610ca6565b1561169f576040517f08c379a0000000000000000000000000000000000000000000000000000000008152600401611696906128a9565b60405180910390fd5b565b5f6116ac8383611242565b6117805760015f808581526020019081526020015f205f015f8473ffffffffffffffffffffffffffffffffffffffff1673ffffffffffffffffffffffffffffffffffffffff1681526020019081526020015f205f6101000a81548160ff02191690831515021790555061171d611afb565b73ffffffffffffffffffffffffffffffffffffffff168273ffffffffffffffffffffffffffffffffffffffff16847f2f8788117e7eff1d82e926ec794901d17c78024a50270940304540a733656f0d60405160405180910390a460019050611784565b5f90505b92915050565b5f6117958383611242565b15611869575f805f8581526020019081526020015f205f015f8473ffffffffffffffffffffffffffffffffffffffff1673ffffffffffffffffffffffffffffffffffffffff1681526020019081526020015f205f6101000a81548160ff021916908315150217905550611806611afb565b73ffffffffffffffffffffffffffffffffffffffff168273ffffffffffffffffffffffffffffffffffffffff16847ff6391f5c32d9c69d2a47ea670b442974b53935d1edc7fd64eb21e047a839171b60405160405180910390a46001905061186d565b5f90505b92915050565b5f5b600380549050811015611af6578273ffffffffffffffffffffffffffffffffffffffff16600382815481106118ad576118ac6128c7565b5b905f5260205f2090600402015f015f9054906101000a900473ffffffffffffffffffffffffffffffffffffffff1673ffffffffffffffffffffffffffffffffffffffff161480156119205750816003828154811061190e5761190d6128c7565b5b905f5260205f20906004020160010154145b15611ae357600360016003805490506119399190612921565b8154811061194a576119496128c7565b5b905f5260205f2090600402016003828154811061196a576119696128c7565b5b905f5260205f2090600402015f82015f9054906101000a900473ffffffffffffffffffffffffffffffffffffffff16815f015f6101000a81548173ffffffffffffffffffffffffffffffffffffffff021916908373ffffffffffffffffffffffffffffffffffffffff16021790555060018201548160010155600282018160020190816119f79190612969565b50600382015f9054906101000a900460ff16816003015f6101000a81548160ff0219169083151502179055506003820160019054906101000a900460ff168160030160016101000a81548160ff0219169083151502179055509050506003805480611a6557611a64612a4e565b5b600190038181905f5260205f2090600402015f8082015f6101000a81549073ffffffffffffffffffffffffffffffffffffffff0219169055600182015f9055600282015f611ab39190611c5e565b600382015f6101000a81549060ff02191690556003820160016101000a81549060ff021916905550509055611af6565b8080611aee90612a7b565b915050611875565b505050565b5f33905090565b611b0a611c15565b5f60015f6101000a81548160ff0219169083151502179055507f5db9ee0a495bf2e6ff9c91a7834c1ba4fdd244a5e8aa4e537bd38aeae4b073aa611b4c611afb565b604051611b599190612ac2565b60405180910390a1565b611b6b611657565b6001805f6101000a81548160ff0219169083151502179055507f62e78cea01bee320cd4e420270b5ea74000d11b0c9f74754ebdbfc544b05a258611bad611afb565b604051611bba9190612ac2565b60405180910390a1565b611bce8282611242565b611c115780826040517fe2517d3f000000000000000000000000000000000000000000000000000000008152600401611c08929190612adb565b60405180910390fd5b5050565b611c1d610ca6565b611c5c576040517f08c379a0000000000000000000000000000000000000000000000000000000008152600401611c5390612b4c565b60405180910390fd5b565b508054611c6a9061239b565b5f825580601f10611c7b5750611c98565b601f0160209004905f5260205f2090810190611c979190611c9b565b5b50565b5b80821115611cb2575f815f905550600101611c9c565b5090565b5f604051905090565b5f80fd5b5f80fd5b5f7fffffffff0000000000000000000000000000000000000000000000000000000082169050919050565b611cfb81611cc7565b8114611d05575f80fd5b50565b5f81359050611d1681611cf2565b92915050565b5f60208284031215611d3157611d30611cbf565b5b5f611d3e84828501611d08565b91505092915050565b5f8115159050919050565b611d5b81611d47565b82525050565b5f602082019050611d745f830184611d52565b92915050565b5f73ffffffffffffffffffffffffffffffffffffffff82169050919050565b5f611da382611d7a565b9050919050565b611db381611d99565b8114611dbd575f80fd5b50565b5f81359050611dce81611daa565b92915050565b5f819050919050565b611de681611dd4565b8114611df0575f80fd5b50565b5f81359050611e0181611ddd565b92915050565b5f8060408385031215611e1d57611e1c611cbf565b5b5f611e2a85828601611dc0565b9250506020611e3b85828601611df3565b9150509250929050565b611e4e81611d99565b82525050565b611e5d81611dd4565b82525050565b5f81519050919050565b5f82825260208201905092915050565b5f5b83811015611e9a578082015181840152602081019050611e7f565b5f8484015250505050565b5f601f19601f8301169050919050565b5f611ebf82611e63565b611ec98185611e6d565b9350611ed9818560208601611e7d565b611ee281611ea5565b840191505092915050565b5f60a082019050611f005f830188611e45565b611f0d6020830187611e54565b8181036040830152611f1f8186611eb5565b9050611f2e6060830185611d52565b611f3b6080830184611d52565b9695505050505050565b5f60208284031215611f5a57611f59611cbf565b5b5f611f6784828501611df3565b91505092915050565b5f602082019050611f835f830184611e54565b92915050565b5f8060408385031215611f9f57611f9e611cbf565b5b5f611fac85828601611df3565b9250506020611fbd85828601611dc0565b9150509250929050565b5f819050919050565b611fd981611fc7565b8114611fe3575f80fd5b50565b5f81359050611ff481611fd0565b92915050565b5f6020828403121561200f5761200e611cbf565b5b5f61201c84828501611fe6565b91505092915050565b5f80fd5b5f80fd5b7f4e487b71000000000000000000000000000000000000000000000000000000005f52604160045260245ffd5b61206382611ea5565b810181811067ffffffffffffffff821117156120825761208161202d565b5b80604052505050565b5f612094611cb6565b90506120a0828261205a565b919050565b5f67ffffffffffffffff8211156120bf576120be61202d565b5b6120c882611ea5565b9050602081019050919050565b828183375f83830152505050565b5f6120f56120f0846120a5565b61208b565b90508281526020810184848401111561211157612110612029565b5b61211c8482856120d5565b509392505050565b5f82601f83011261213857612137612025565b5b81356121488482602086016120e3565b91505092915050565b5f806040838503121561216757612166611cbf565b5b5f61217485828601611df3565b925050602083013567ffffffffffffffff81111561219557612194611cc3565b5b6121a185828601612124565b9150509250929050565b5f81519050919050565b5f82825260208201905092915050565b5f819050602082019050919050565b6121dd81611d99565b82525050565b6121ec81611dd4565b82525050565b5f82825260208201905092915050565b5f61220c82611e63565b61221681856121f2565b9350612226818560208601611e7d565b61222f81611ea5565b840191505092915050565b61224381611d47565b82525050565b5f60a083015f83015161225e5f8601826121d4565b50602083015161227160208601826121e3565b50604083015184820360408601526122898282612202565b915050606083015161229e606086018261223a565b5060808301516122b1608086018261223a565b508091505092915050565b5f6122c78383612249565b905092915050565b5f602082019050919050565b5f6122e5826121ab565b6122ef81856121b5565b935083602082028501612301856121c5565b805f5b8581101561233c578484038952815161231d85826122bc565b9450612328836122cf565b925060208a01995050600181019050612304565b50829750879550505050505092915050565b5f6020820190508181035f83015261236681846122db565b905092915050565b7f4e487b71000000000000000000000000000000000000000000000000000000005f52602260045260245ffd5b5f60028204905060018216806123b257607f821691505b6020821081036123c5576123c461236e565b5b50919050565b7f496e76616c6964206164647265737300000000000000000000000000000000005f82015250565b5f6123ff600f83611e6d565b915061240a826123cb565b602082019050919050565b5f6020820190508181035f83015261242c816123f3565b9050919050565b7f4e6f2070656e64696e67207265717565737400000000000000000000000000005f82015250565b5f612467601283611e6d565b915061247282612433565b602082019050919050565b5f6020820190508181035f8301526124948161245b565b9050919050565b7f416c72656164792068617320726f6c65000000000000000000000000000000005f82015250565b5f6124cf601083611e6d565b91506124da8261249b565b602082019050919050565b5f6020820190508181035f8301526124fc816124c3565b9050919050565b7f526561736f6e20726571756972656400000000000000000000000000000000005f82015250565b5f612537600f83611e6d565b915061254282612503565b602082019050919050565b5f6020820190508181035f8301526125648161252b565b9050919050565b7f5265717565737420616c72656164792070656e64696e670000000000000000005f82015250565b5f61259f601783611e6d565b91506125aa8261256b565b602082019050919050565b5f6020820190508181035f8301526125cc81612593565b9050919050565b5f819050815f5260205f209050919050565b5f6020601f8301049050919050565b5f82821b905092915050565b5f6008830261262f7fffffffffffffffffffffffffffffffffffffffffffffffffffffffffffffffff826125f4565b61263986836125f4565b95508019841693508086168417925050509392505050565b5f819050919050565b5f61267461266f61266a84611fc7565b612651565b611fc7565b9050919050565b5f819050919050565b61268d8361265a565b6126a16126998261267b565b848454612600565b825550505050565b5f90565b6126b56126a9565b6126c0818484612684565b505050565b5b818110156126e3576126d85f826126ad565b6001810190506126c6565b5050565b601f821115612728576126f9816125d3565b612702846125e5565b81016020851015612711578190505b61272561271d856125e5565b8301826126c5565b50505b505050565b5f82821c905092915050565b5f6127485f198460080261272d565b1980831691505092915050565b5f6127608383612739565b9150826002028217905092915050565b61277982611e63565b67ffffffffffffffff8111156127925761279161202d565b5b61279c825461239b565b6127a78282856126e7565b5f60209050601f8311600181146127d8575f84156127c6578287015190505b6127d08582612755565b865550612837565b601f1984166127e6866125d3565b5f5b8281101561280d578489015182556001820191506020850194506020810190506127e8565b8683101561282a5784890151612826601f891682612739565b8355505b6001600288020188555050505b505050505050565b5f6020820190508181035f8301526128578184611eb5565b905092915050565b7f5061757361626c653a20706175736564000000000000000000000000000000005f82015250565b5f612893601083611e6d565b915061289e8261285f565b602082019050919050565b5f6020820190508181035f8301526128c081612887565b9050919050565b7f4e487b71000000000000000000000000000000000000000000000000000000005f52603260045260245ffd5b7f4e487b71000000000000000000000000000000000000000000000000000000005f52601160045260245ffd5b5f61292b82611fc7565b915061293683611fc7565b925082820390508181111561294e5761294d6128f4565b5b92915050565b5f815490506129628161239b565b9050919050565b818103612977575050612a4c565b61298082612954565b67ffffffffffffffff8111156129995761299861202d565b5b6129a3825461239b565b6129ae8282856126e7565b5f601f8311600181146129db575f84156129c9578287015490505b6129d38582612755565b865550612a45565b601f1984166129e9876125d3565b96506129f4866125d3565b5f5b82811015612a1b578489015482556001820191506001850194506020810190506129f6565b86831015612a385784890154612a34601f891682612739565b8355505b6001600288020188555050505b5050505050505b565b7f4e487b71000000000000000000000000000000000000000000000000000000005f52603160045260245ffd5b5f612a8582611fc7565b91507fffffffffffffffffffffffffffffffffffffffffffffffffffffffffffffffff8203612ab757612ab66128f4565b5b600182019050919050565b5f602082019050612ad55f830184611e45565b92915050565b5f604082019050612aee5f830185611e45565b612afb6020830184611e54565b9392505050565b7f5061757361626c653a206e6f74207061757365640000000000000000000000005f82015250565b5f612b36601483611e6d565b9150612b4182612b02565b602082019050919050565b5f6020820190508181035f830152612b6381612b2a565b905091905056fea264697066735822122063cbb36c12d4e78628a0ba5e6cc50094ac3a9329fe62aa6f3679b25b892ce84e64736f6c63430008140033",
					"opcodes": "PUSH1 0x80 PUSH1 0x40 MSTORE CALLVALUE DUP1 ISZERO PUSH3 0x10 JUMPI PUSH0 DUP1 REVERT JUMPDEST POP PUSH0 PUSH1 0x1 PUSH0 PUSH2 0x100 EXP DUP2 SLOAD DUP2 PUSH1 0xFF MUL NOT AND SWAP1 DUP4 ISZERO ISZERO MUL OR SWAP1 SSTORE POP PUSH3 0x3E PUSH0 DUP1 SHL CALLER PUSH3 0x78 PUSH1 0x20 SHL PUSH1 0x20 SHR JUMP JUMPDEST POP PUSH3 0x71 PUSH32 0xA49807205CE4D355092EF5A8A18F56E8913CF4A201FBE287825B095693C21775 CALLER PUSH3 0x78 PUSH1 0x20 SHL PUSH1 0x20 SHR JUMP JUMPDEST POP PUSH3 0x1DD JUMP JUMPDEST PUSH0 PUSH3 0x8B DUP4 DUP4 PUSH3 0x173 PUSH1 0x20 SHL PUSH1 0x20 SHR JUMP JUMPDEST PUSH3 0x169 JUMPI PUSH1 0x1 PUSH0 DUP1 DUP6 DUP2 MSTORE PUSH1 0x20 ADD SWAP1 DUP2 MSTORE PUSH1 0x20 ADD PUSH0 KECCAK256 PUSH0 ADD PUSH0 DUP5 PUSH20 0xFFFFFFFFFFFFFFFFFFFFFFFFFFFFFFFFFFFFFFFF AND PUSH20 0xFFFFFFFFFFFFFFFFFFFFFFFFFFFFFFFFFFFFFFFF AND DUP2 MSTORE PUSH1 0x20 ADD SWAP1 DUP2 MSTORE PUSH1 0x20 ADD PUSH0 KECCAK256 PUSH0 PUSH2 0x100 EXP DUP2 SLOAD DUP2 PUSH1 0xFF MUL NOT AND SWAP1 DUP4 ISZERO ISZERO MUL OR SWAP1 SSTORE POP PUSH3 0x105 PUSH3 0x1D6 PUSH1 0x20 SHL PUSH1 0x20 SHR JUMP JUMPDEST PUSH20 0xFFFFFFFFFFFFFFFFFFFFFFFFFFFFFFFFFFFFFFFF AND DUP3 PUSH20 0xFFFFFFFFFFFFFFFFFFFFFFFFFFFFFFFFFFFFFFFF AND DUP5 PUSH32 0x2F8788117E7EFF1D82E926EC794901D17C78024A50270940304540A733656F0D PUSH1 0x40 MLOAD PUSH1 0x40 MLOAD DUP1 SWAP2 SUB SWAP1 LOG4 PUSH1 0x1 SWAP1 POP PUSH3 0x16D JUMP JUMPDEST PUSH0 SWAP1 POP JUMPDEST SWAP3 SWAP2 POP POP JUMP JUMPDEST PUSH0 DUP1 PUSH0 DUP5 DUP2 MSTORE PUSH1 0x20 ADD SWAP1 DUP2 MSTORE PUSH1 0x20 ADD PUSH0 KECCAK256 PUSH0 ADD PUSH0 DUP4 PUSH20 0xFFFFFFFFFFFFFFFFFFFFFFFFFFFFFFFFFFFFFFFF AND PUSH20 0xFFFFFFFFFFFFFFFFFFFFFFFFFFFFFFFFFFFFFFFF AND DUP2 MSTORE PUSH1 0x20 ADD SWAP1 DUP2 MSTORE PUSH1 0x20 ADD PUSH0 KECCAK256 PUSH0 SWAP1 SLOAD SWAP1 PUSH2 0x100 EXP SWAP1 DIV PUSH1 0xFF AND SWAP1 POP SWAP3 SWAP2 POP POP JUMP JUMPDEST PUSH0 CALLER SWAP1 POP SWAP1 JUMP JUMPDEST PUSH2 0x2BA0 DUP1 PUSH3 0x1EB PUSH0 CODECOPY PUSH0 RETURN INVALID PUSH1 0x80 PUSH1 0x40 MSTORE CALLVALUE DUP1 ISZERO PUSH2 0xF JUMPI PUSH0 DUP1 REVERT JUMPDEST POP PUSH1 0x4 CALLDATASIZE LT PUSH2 0x156 JUMPI PUSH0 CALLDATALOAD PUSH1 0xE0 SHR DUP1 PUSH4 0x75B238FC GT PUSH2 0xC1 JUMPI DUP1 PUSH4 0x9411CA46 GT PUSH2 0x7A JUMPI DUP1 PUSH4 0x9411CA46 EQ PUSH2 0x3A4 JUMPI DUP1 PUSH4 0x98E4ABB5 EQ PUSH2 0x3D8 JUMPI DUP1 PUSH4 0xA217FDDF EQ PUSH2 0x3F6 JUMPI DUP1 PUSH4 0xBD605121 EQ PUSH2 0x414 JUMPI DUP1 PUSH4 0xC2D79444 EQ PUSH2 0x430 JUMPI DUP1 PUSH4 0xD547741F EQ PUSH2 0x44E JUMPI PUSH2 0x156 JUMP JUMPDEST DUP1 PUSH4 0x75B238FC EQ PUSH2 0x2F4 JUMPI DUP1 PUSH4 0x768B01AA EQ PUSH2 0x312 JUMPI DUP1 PUSH4 0x78988EBD EQ PUSH2 0x32E JUMPI DUP1 PUSH4 0x80A1F712 EQ PUSH2 0x34C JUMPI DUP1 PUSH4 0x8456CB59 EQ PUSH2 0x36A JUMPI DUP1 PUSH4 0x91D14854 EQ PUSH2 0x374 JUMPI PUSH2 0x156 JUMP JUMPDEST DUP1 PUSH4 0x2F2FF15D GT PUSH2 0x113 JUMPI DUP1 PUSH4 0x2F2FF15D EQ PUSH2 0x242 JUMPI DUP1 PUSH4 0x303E3840 EQ PUSH2 0x25E JUMPI DUP1 PUSH4 0x36568ABE EQ PUSH2 0x27C JUMPI DUP1 PUSH4 0x3C652A9A EQ PUSH2 0x298 JUMPI DUP1 PUSH4 0x3F4BA83A EQ PUSH2 0x2CC JUMPI DUP1 PUSH4 0x5C975ABB EQ PUSH2 0x2D6 JUMPI PUSH2 0x156 JUMP JUMPDEST DUP1 PUSH4 0x1FFC9A7 EQ PUSH2 0x15A JUMPI DUP1 PUSH4 0x18097B69 EQ PUSH2 0x18A JUMPI DUP1 PUSH4 0x1D9486DE EQ PUSH2 0x1BE JUMPI DUP1 PUSH4 0x208DD1FF EQ PUSH2 0x1DA JUMPI DUP1 PUSH4 0x248A9CA3 EQ PUSH2 0x1F6 JUMPI DUP1 PUSH4 0x25DF448C EQ PUSH2 0x226 JUMPI JUMPDEST PUSH0 DUP1 REVERT JUMPDEST PUSH2 0x174 PUSH1 0x4 DUP1 CALLDATASIZE SUB DUP2 ADD SWAP1 PUSH2 0x16F SWAP2 SWAP1 PUSH2 0x1D1C JUMP JUMPDEST PUSH2 0x46A JUMP JUMPDEST PUSH1 0x40 MLOAD PUSH2 0x181 SWAP2 SWAP1 PUSH2 0x1D61 JUMP JUMPDEST PUSH1 0x40 MLOAD DUP1 SWAP2 SUB SWAP1 RETURN JUMPDEST PUSH2 0x1A4 PUSH1 0x4 DUP1 CALLDATASIZE SUB DUP2 ADD SWAP1 PUSH2 0x19F SWAP2 SWAP1 PUSH2 0x1E07 JUMP JUMPDEST PUSH2 0x4E3 JUMP JUMPDEST PUSH1 0x40 MLOAD PUSH2 0x1B5 SWAP6 SWAP5 SWAP4 SWAP3 SWAP2 SWAP1 PUSH2 0x1EED JUMP JUMPDEST PUSH1 0x40 MLOAD DUP1 SWAP2 SUB SWAP1 RETURN JUMPDEST PUSH2 0x1D8 PUSH1 0x4 DUP1 CALLDATASIZE SUB DUP2 ADD SWAP1 PUSH2 0x1D3 SWAP2 SWAP1 PUSH2 0x1E07 JUMP JUMPDEST PUSH2 0x693 JUMP JUMPDEST STOP JUMPDEST PUSH2 0x1F4 PUSH1 0x4 DUP1 CALLDATASIZE SUB DUP2 ADD SWAP1 PUSH2 0x1EF SWAP2 SWAP1 PUSH2 0x1E07 JUMP JUMPDEST PUSH2 0x787 JUMP JUMPDEST STOP JUMPDEST PUSH2 0x210 PUSH1 0x4 DUP1 CALLDATASIZE SUB DUP2 ADD SWAP1 PUSH2 0x20B SWAP2 SWAP1 PUSH2 0x1F45 JUMP JUMPDEST PUSH2 0x87B JUMP JUMPDEST PUSH1 0x40 MLOAD PUSH2 0x21D SWAP2 SWAP1 PUSH2 0x1F70 JUMP JUMPDEST PUSH1 0x40 MLOAD DUP1 SWAP2 SUB SWAP1 RETURN JUMPDEST PUSH2 0x240 PUSH1 0x4 DUP1 CALLDATASIZE SUB DUP2 ADD SWAP1 PUSH2 0x23B SWAP2 SWAP1 PUSH2 0x1E07 JUMP JUMPDEST PUSH2 0x897 JUMP JUMPDEST STOP JUMPDEST PUSH2 0x25C PUSH1 0x4 DUP1 CALLDATASIZE SUB DUP2 ADD SWAP1 PUSH2 0x257 SWAP2 SWAP1 PUSH2 0x1F89 JUMP JUMPDEST PUSH2 0xAB1 JUMP JUMPDEST STOP JUMPDEST PUSH2 0x266 PUSH2 0xAD3 JUMP JUMPDEST PUSH1 0x40 MLOAD PUSH2 0x273 SWAP2 SWAP1 PUSH2 0x1F70 JUMP JUMPDEST PUSH1 0x40 MLOAD DUP1 SWAP2 SUB SWAP1 RETURN JUMPDEST PUSH2 0x296 PUSH1 0x4 DUP1 CALLDATASIZE SUB DUP2 ADD SWAP1 PUSH2 0x291 SWAP2 SWAP1 PUSH2 0x1F89 JUMP JUMPDEST PUSH2 0xAF7 JUMP JUMPDEST STOP JUMPDEST PUSH2 0x2B2 PUSH1 0x4 DUP1 CALLDATASIZE SUB DUP2 ADD SWAP1 PUSH2 0x2AD SWAP2 SWAP1 PUSH2 0x1FFA JUMP JUMPDEST PUSH2 0xB72 JUMP JUMPDEST PUSH1 0x40 MLOAD PUSH2 0x2C3 SWAP6 SWAP5 SWAP4 SWAP3 SWAP2 SWAP1 PUSH2 0x1EED JUMP JUMPDEST PUSH1 0x40 MLOAD DUP1 SWAP2 SUB SWAP1 RETURN JUMPDEST PUSH2 0x2D4 PUSH2 0xC71 JUMP JUMPDEST STOP JUMPDEST PUSH2 0x2DE PUSH2 0xCA6 JUMP JUMPDEST PUSH1 0x40 MLOAD PUSH2 0x2EB SWAP2 SWAP1 PUSH2 0x1D61 JUMP JUMPDEST PUSH1 0x40 MLOAD DUP1 SWAP2 SUB SWAP1 RETURN JUMPDEST PUSH2 0x2FC PUSH2 0xCBB JUMP JUMPDEST PUSH1 0x40 MLOAD PUSH2 0x309 SWAP2 SWAP1 PUSH2 0x1F70 JUMP JUMPDEST PUSH1 0x40 MLOAD DUP1 SWAP2 SUB SWAP1 RETURN JUMPDEST PUSH2 0x32C PUSH1 0x4 DUP1 CALLDATASIZE SUB DUP2 ADD SWAP1 PUSH2 0x327 SWAP2 SWAP1 PUSH2 0x2151 JUMP JUMPDEST PUSH2 0xCDF JUMP JUMPDEST STOP JUMPDEST PUSH2 0x336 PUSH2 0x106A JUMP JUMPDEST PUSH1 0x40 MLOAD PUSH2 0x343 SWAP2 SWAP1 PUSH2 0x1F70 JUMP JUMPDEST PUSH1 0x40 MLOAD DUP1 SWAP2 SUB SWAP1 RETURN JUMPDEST PUSH2 0x354 PUSH2 0x108E JUMP JUMPDEST PUSH1 0x40 MLOAD PUSH2 0x361 SWAP2 SWAP1 PUSH2 0x234E JUMP JUMPDEST PUSH1 0x40 MLOAD DUP1 SWAP2 SUB SWAP1 RETURN JUMPDEST PUSH2 0x372 PUSH2 0x120D JUMP JUMPDEST STOP JUMPDEST PUSH2 0x38E PUSH1 0x4 DUP1 CALLDATASIZE SUB DUP2 ADD SWAP1 PUSH2 0x389 SWAP2 SWAP1 PUSH2 0x1F89 JUMP JUMPDEST PUSH2 0x1242 JUMP JUMPDEST PUSH1 0x40 MLOAD PUSH2 0x39B SWAP2 SWAP1 PUSH2 0x1D61 JUMP JUMPDEST PUSH1 0x40 MLOAD DUP1 SWAP2 SUB SWAP1 RETURN JUMPDEST PUSH2 0x3BE PUSH1 0x4 DUP1 CALLDATASIZE SUB DUP2 ADD SWAP1 PUSH2 0x3B9 SWAP2 SWAP1 PUSH2 0x1E07 JUMP JUMPDEST PUSH2 0x12A5 JUMP JUMPDEST PUSH1 0x40 MLOAD PUSH2 0x3CF SWAP6 SWAP5 SWAP4 SWAP3 SWAP2 SWAP1 PUSH2 0x1EED JUMP JUMPDEST PUSH1 0x40 MLOAD DUP1 SWAP2 SUB SWAP1 RETURN JUMPDEST PUSH2 0x3E0 PUSH2 0x13A0 JUMP JUMPDEST PUSH1 0x40 MLOAD PUSH2 0x3ED SWAP2 SWAP1 PUSH2 0x1F70 JUMP JUMPDEST PUSH1 0x40 MLOAD DUP1 SWAP2 SUB SWAP1 RETURN JUMPDEST PUSH2 0x3FE PUSH2 0x13C4 JUMP JUMPDEST PUSH1 0x40 MLOAD PUSH2 0x40B SWAP2 SWAP1 PUSH2 0x1F70 JUMP JUMPDEST PUSH1 0x40 MLOAD DUP1 SWAP2 SUB SWAP1 RETURN JUMPDEST PUSH2 0x42E PUSH1 0x4 DUP1 CALLDATASIZE SUB DUP2 ADD SWAP1 PUSH2 0x429 SWAP2 SWAP1 PUSH2 0x1E07 JUMP JUMPDEST PUSH2 0x13CA JUMP JUMPDEST STOP JUMPDEST PUSH2 0x438 PUSH2 0x1594 JUMP JUMPDEST PUSH1 0x40 MLOAD PUSH2 0x445 SWAP2 SWAP1 PUSH2 0x1F70 JUMP JUMPDEST PUSH1 0x40 MLOAD DUP1 SWAP2 SUB SWAP1 RETURN JUMPDEST PUSH2 0x468 PUSH1 0x4 DUP1 CALLDATASIZE SUB DUP2 ADD SWAP1 PUSH2 0x463 SWAP2 SWAP1 PUSH2 0x1F89 JUMP JUMPDEST PUSH2 0x15B8 JUMP JUMPDEST STOP JUMPDEST PUSH0 PUSH32 0x7965DB0B00000000000000000000000000000000000000000000000000000000 PUSH28 0xFFFFFFFFFFFFFFFFFFFFFFFFFFFFFFFFFFFFFFFFFFFFFFFFFFFFFFFF NOT AND DUP3 PUSH28 0xFFFFFFFFFFFFFFFFFFFFFFFFFFFFFFFFFFFFFFFFFFFFFFFFFFFFFFFF NOT AND EQ DUP1 PUSH2 0x4DC JUMPI POP PUSH2 0x4DB DUP3 PUSH2 0x15DA JUMP JUMPDEST JUMPDEST SWAP1 POP SWAP2 SWAP1 POP JUMP JUMPDEST PUSH0 DUP1 PUSH1 0x60 PUSH0 DUP1 PUSH0 PUSH1 0x2 PUSH0 DUP10 PUSH20 0xFFFFFFFFFFFFFFFFFFFFFFFFFFFFFFFFFFFFFFFF AND PUSH20 0xFFFFFFFFFFFFFFFFFFFFFFFFFFFFFFFFFFFFFFFF AND DUP2 MSTORE PUSH1 0x20 ADD SWAP1 DUP2 MSTORE PUSH1 0x20 ADD PUSH0 KECCAK256 PUSH0 DUP9 DUP2 MSTORE PUSH1 0x20 ADD SWAP1 DUP2 MSTORE PUSH1 0x20 ADD PUSH0 KECCAK256 PUSH1 0x40 MLOAD DUP1 PUSH1 0xA0 ADD PUSH1 0x40 MSTORE SWAP1 DUP2 PUSH0 DUP3 ADD PUSH0 SWAP1 SLOAD SWAP1 PUSH2 0x100 EXP SWAP1 DIV PUSH20 0xFFFFFFFFFFFFFFFFFFFFFFFFFFFFFFFFFFFFFFFF AND PUSH20 0xFFFFFFFFFFFFFFFFFFFFFFFFFFFFFFFFFFFFFFFF AND PUSH20 0xFFFFFFFFFFFFFFFFFFFFFFFFFFFFFFFFFFFFFFFF AND DUP2 MSTORE PUSH1 0x20 ADD PUSH1 0x1 DUP3 ADD SLOAD DUP2 MSTORE PUSH1 0x20 ADD PUSH1 0x2 DUP3 ADD DUP1 SLOAD PUSH2 0x5AF SWAP1 PUSH2 0x239B JUMP JUMPDEST DUP1 PUSH1 0x1F ADD PUSH1 0x20 DUP1 SWAP2 DIV MUL PUSH1 0x20 ADD PUSH1 0x40 MLOAD SWAP1 DUP2 ADD PUSH1 0x40 MSTORE DUP1 SWAP3 SWAP2 SWAP1 DUP2 DUP2 MSTORE PUSH1 0x20 ADD DUP3 DUP1 SLOAD PUSH2 0x5DB SWAP1 PUSH2 0x239B JUMP JUMPDEST DUP1 ISZERO PUSH2 0x626 JUMPI DUP1 PUSH1 0x1F LT PUSH2 0x5FD JUMPI PUSH2 0x100 DUP1 DUP4 SLOAD DIV MUL DUP4 MSTORE SWAP2 PUSH1 0x20 ADD SWAP2 PUSH2 0x626 JUMP JUMPDEST DUP3 ADD SWAP2 SWAP1 PUSH0 MSTORE PUSH1 0x20 PUSH0 KECCAK256 SWAP1 JUMPDEST DUP2 SLOAD DUP2 MSTORE SWAP1 PUSH1 0x1 ADD SWAP1 PUSH1 0x20 ADD DUP1 DUP4 GT PUSH2 0x609 JUMPI DUP3 SWAP1 SUB PUSH1 0x1F AND DUP3 ADD SWAP2 JUMPDEST POP POP POP POP POP DUP2 MSTORE PUSH1 0x20 ADD PUSH1 0x3 DUP3 ADD PUSH0 SWAP1 SLOAD SWAP1 PUSH2 0x100 EXP SWAP1 DIV PUSH1 0xFF AND ISZERO ISZERO ISZERO ISZERO DUP2 MSTORE PUSH1 0x20 ADD PUSH1 0x3 DUP3 ADD PUSH1 0x1 SWAP1 SLOAD SWAP1 PUSH2 0x100 EXP SWAP1 DIV PUSH1 0xFF AND ISZERO ISZERO ISZERO ISZERO DUP2 MSTORE POP POP SWAP1 POP DUP1 PUSH0 ADD MLOAD DUP2 PUSH1 0x20 ADD MLOAD DUP3 PUSH1 0x40 ADD MLOAD DUP4 PUSH1 0x60 ADD MLOAD DUP5 PUSH1 0x80 ADD MLOAD SWAP6 POP SWAP6 POP SWAP6 POP SWAP6 POP SWAP6 POP POP SWAP3 SWAP6 POP SWAP3 SWAP6 SWAP1 SWAP4 POP JUMP JUMPDEST PUSH32 0xA49807205CE4D355092EF5A8A18F56E8913CF4A201FBE287825B095693C21775 PUSH2 0x6BD DUP2 PUSH2 0x1643 JUMP JUMPDEST PUSH2 0x6C5 PUSH2 0x1657 JUMP JUMPDEST PUSH0 PUSH20 0xFFFFFFFFFFFFFFFFFFFFFFFFFFFFFFFFFFFFFFFF AND DUP4 PUSH20 0xFFFFFFFFFFFFFFFFFFFFFFFFFFFFFFFFFFFFFFFF AND SUB PUSH2 0x733 JUMPI PUSH1 0x40 MLOAD PUSH32 0x8C379A000000000000000000000000000000000000000000000000000000000 DUP2 MSTORE PUSH1 0x4 ADD PUSH2 0x72A SWAP1 PUSH2 0x2415 JUMP JUMPDEST PUSH1 0x40 MLOAD DUP1 SWAP2 SUB SWAP1 REVERT JUMPDEST PUSH2 0x73D DUP3 DUP5 PUSH2 0x16A1 JUMP JUMPDEST POP DUP2 DUP4 PUSH20 0xFFFFFFFFFFFFFFFFFFFFFFFFFFFFFFFFFFFFFFFF AND PUSH32 0x666448AAE9B9C8249FD8213A35A9C10218A0EAC2FB39B96ED90C67214C7E761 PUSH1 0x40 MLOAD PUSH1 0x40 MLOAD DUP1 SWAP2 SUB SWAP1 LOG3 POP POP POP JUMP JUMPDEST PUSH32 0xA49807205CE4D355092EF5A8A18F56E8913CF4A201FBE287825B095693C21775 PUSH2 0x7B1 DUP2 PUSH2 0x1643 JUMP JUMPDEST PUSH2 0x7B9 PUSH2 0x1657 JUMP JUMPDEST PUSH0 PUSH20 0xFFFFFFFFFFFFFFFFFFFFFFFFFFFFFFFFFFFFFFFF AND DUP4 PUSH20 0xFFFFFFFFFFFFFFFFFFFFFFFFFFFFFFFFFFFFFFFF AND SUB PUSH2 0x827 JUMPI PUSH1 0x40 MLOAD PUSH32 0x8C379A000000000000000000000000000000000000000000000000000000000 DUP2 MSTORE PUSH1 0x4 ADD PUSH2 0x81E SWAP1 PUSH2 0x2415 JUMP JUMPDEST PUSH1 0x40 MLOAD DUP1 SWAP2 SUB SWAP1 REVERT JUMPDEST PUSH2 0x831 DUP3 DUP5 PUSH2 0x178A JUMP JUMPDEST POP DUP2 DUP4 PUSH20 0xFFFFFFFFFFFFFFFFFFFFFFFFFFFFFFFFFFFFFFFF AND PUSH32 0xEA83A7CAEF01824E96446A8C4BC8FF4669EDD99E129B53E32C077F85D2168081 PUSH1 0x40 MLOAD PUSH1 0x40 MLOAD DUP1 SWAP2 SUB SWAP1 LOG3 POP POP POP JUMP JUMPDEST PUSH0 DUP1 PUSH0 DUP4 DUP2 MSTORE PUSH1 0x20 ADD SWAP1 DUP2 MSTORE PUSH1 0x20 ADD PUSH0 KECCAK256 PUSH1 0x1 ADD SLOAD SWAP1 POP SWAP2 SWAP1 POP JUMP JUMPDEST PUSH32 0xA49807205CE4D355092EF5A8A18F56E8913CF4A201FBE287825B095693C21775 PUSH2 0x8C1 DUP2 PUSH2 0x1643 JUMP JUMPDEST PUSH2 0x8C9 PUSH2 0x1657 JUMP JUMPDEST PUSH0 PUSH20 0xFFFFFFFFFFFFFFFFFFFFFFFFFFFFFFFFFFFFFFFF AND DUP4 PUSH20 0xFFFFFFFFFFFFFFFFFFFFFFFFFFFFFFFFFFFFFFFF AND SUB PUSH2 0x937 JUMPI PUSH1 0x40 MLOAD PUSH32 0x8C379A000000000000000000000000000000000000000000000000000000000 DUP2 MSTORE PUSH1 0x4 ADD PUSH2 0x92E SWAP1 PUSH2 0x2415 JUMP JUMPDEST PUSH1 0x40 MLOAD DUP1 SWAP2 SUB SWAP1 REVERT JUMPDEST PUSH0 PUSH1 0x2 PUSH0 DUP6 PUSH20 0xFFFFFFFFFFFFFFFFFFFFFFFFFFFFFFFFFFFFFFFF AND PUSH20 0xFFFFFFFFFFFFFFFFFFFFFFFFFFFFFFFFFFFFFFFF AND DUP2 MSTORE PUSH1 0x20 ADD SWAP1 DUP2 MSTORE PUSH1 0x20 ADD PUSH0 KECCAK256 PUSH0 DUP5 DUP2 MSTORE PUSH1 0x20 ADD SWAP1 DUP2 MSTORE PUSH1 0x20 ADD PUSH0 KECCAK256 SWAP1 POP DUP1 PUSH1 0x3 ADD PUSH0 SWAP1 SLOAD SWAP1 PUSH2 0x100 EXP SWAP1 DIV PUSH1 0xFF AND PUSH2 0x9D6 JUMPI PUSH1 0x40 MLOAD PUSH32 0x8C379A000000000000000000000000000000000000000000000000000000000 DUP2 MSTORE PUSH1 0x4 ADD PUSH2 0x9CD SWAP1 PUSH2 0x247D JUMP JUMPDEST PUSH1 0x40 MLOAD DUP1 SWAP2 SUB SWAP1 REVERT JUMPDEST PUSH0 DUP2 PUSH1 0x3 ADD PUSH0 PUSH2 0x100 EXP DUP2 SLOAD DUP2 PUSH1 0xFF MUL NOT AND SWAP1 DUP4 ISZERO ISZERO MUL OR SWAP1 SSTORE POP PUSH1 0x1 DUP2 PUSH1 0x3 ADD PUSH1 0x1 PUSH2 0x100 EXP DUP2 SLOAD DUP2 PUSH1 0xFF MUL NOT AND SWAP1 DUP4 ISZERO ISZERO MUL OR SWAP1 SSTORE POP PUSH2 0xA18 DUP5 DUP5 PUSH2 0x1873 JUMP JUMPDEST PUSH2 0xA22 DUP4 DUP6 PUSH2 0x16A1 JUMP JUMPDEST POP DUP3 DUP5 PUSH20 0xFFFFFFFFFFFFFFFFFFFFFFFFFFFFFFFFFFFFFFFF AND PUSH32 0x7EB8B9D1E030C150EF76A2962C9E6F78AF369EB66F093314F8B59040FC5992DA PUSH1 0x40 MLOAD PUSH1 0x40 MLOAD DUP1 SWAP2 SUB SWAP1 LOG3 DUP3 DUP5 PUSH20 0xFFFFFFFFFFFFFFFFFFFFFFFFFFFFFFFFFFFFFFFF AND PUSH32 0x666448AAE9B9C8249FD8213A35A9C10218A0EAC2FB39B96ED90C67214C7E761 PUSH1 0x40 MLOAD PUSH1 0x40 MLOAD DUP1 SWAP2 SUB SWAP1 LOG3 POP POP POP POP JUMP JUMPDEST PUSH2 0xABA DUP3 PUSH2 0x87B JUMP JUMPDEST PUSH2 0xAC3 DUP2 PUSH2 0x1643 JUMP JUMPDEST PUSH2 0xACD DUP4 DUP4 PUSH2 0x16A1 JUMP JUMPDEST POP POP POP POP JUMP JUMPDEST PUSH32 0x709F71ABB733AA2493D642EC84D615695650E6806FD401C97E1FECBD9C84C1D6 DUP2 JUMP JUMPDEST PUSH2 0xAFF PUSH2 0x1AFB JUMP JUMPDEST PUSH20 0xFFFFFFFFFFFFFFFFFFFFFFFFFFFFFFFFFFFFFFFF AND DUP2 PUSH20 0xFFFFFFFFFFFFFFFFFFFFFFFFFFFFFFFFFFFFFFFF AND EQ PUSH2 0xB63 JUMPI PUSH1 0x40 MLOAD PUSH32 0x6697B23200000000000000000000000000000000000000000000000000000000 DUP2 MSTORE PUSH1 0x4 ADD PUSH1 0x40 MLOAD DUP1 SWAP2 SUB SWAP1 REVERT JUMPDEST PUSH2 0xB6D DUP3 DUP3 PUSH2 0x178A JUMP JUMPDEST POP POP POP JUMP JUMPDEST PUSH1 0x3 DUP2 DUP2 SLOAD DUP2 LT PUSH2 0xB81 JUMPI PUSH0 DUP1 REVERT JUMPDEST SWAP1 PUSH0 MSTORE PUSH1 0x20 PUSH0 KECCAK256 SWAP1 PUSH1 0x4 MUL ADD PUSH0 SWAP2 POP SWAP1 POP DUP1 PUSH0 ADD PUSH0 SWAP1 SLOAD SWAP1 PUSH2 0x100 EXP SWAP1 DIV PUSH20 0xFFFFFFFFFFFFFFFFFFFFFFFFFFFFFFFFFFFFFFFF AND SWAP1 DUP1 PUSH1 0x1 ADD SLOAD SWAP1 DUP1 PUSH1 0x2 ADD DUP1 SLOAD PUSH2 0xBCB SWAP1 PUSH2 0x239B JUMP JUMPDEST DUP1 PUSH1 0x1F ADD PUSH1 0x20 DUP1 SWAP2 DIV MUL PUSH1 0x20 ADD PUSH1 0x40 MLOAD SWAP1 DUP2 ADD PUSH1 0x40 MSTORE DUP1 SWAP3 SWAP2 SWAP1 DUP2 DUP2 MSTORE PUSH1 0x20 ADD DUP3 DUP1 SLOAD PUSH2 0xBF7 SWAP1 PUSH2 0x239B JUMP JUMPDEST DUP1 ISZERO PUSH2 0xC42 JUMPI DUP1 PUSH1 0x1F LT PUSH2 0xC19 JUMPI PUSH2 0x100 DUP1 DUP4 SLOAD DIV MUL DUP4 MSTORE SWAP2 PUSH1 0x20 ADD SWAP2 PUSH2 0xC42 JUMP JUMPDEST DUP3 ADD SWAP2 SWAP1 PUSH0 MSTORE PUSH1 0x20 PUSH0 KECCAK256 SWAP1 JUMPDEST DUP2 SLOAD DUP2 MSTORE SWAP1 PUSH1 0x1 ADD SWAP1 PUSH1 0x20 ADD DUP1 DUP4 GT PUSH2 0xC25 JUMPI DUP3 SWAP1 SUB PUSH1 0x1F AND DUP3 ADD SWAP2 JUMPDEST POP POP POP POP POP SWAP1 DUP1 PUSH1 0x3 ADD PUSH0 SWAP1 SLOAD SWAP1 PUSH2 0x100 EXP SWAP1 DIV PUSH1 0xFF AND SWAP1 DUP1 PUSH1 0x3 ADD PUSH1 0x1 SWAP1 SLOAD SWAP1 PUSH2 0x100 EXP SWAP1 DIV PUSH1 0xFF AND SWAP1 POP DUP6 JUMP JUMPDEST PUSH32 0xA49807205CE4D355092EF5A8A18F56E8913CF4A201FBE287825B095693C21775 PUSH2 0xC9B DUP2 PUSH2 0x1643 JUMP JUMPDEST PUSH2 0xCA3 PUSH2 0x1B02 JUMP JUMPDEST POP JUMP JUMPDEST PUSH0 PUSH1 0x1 PUSH0 SWAP1 SLOAD SWAP1 PUSH2 0x100 EXP SWAP1 DIV PUSH1 0xFF AND SWAP1 POP SWAP1 JUMP JUMPDEST PUSH32 0xA49807205CE4D355092EF5A8A18F56E8913CF4A201FBE287825B095693C21775 DUP2 JUMP JUMPDEST PUSH2 0xCE7 PUSH2 0x1657 JUMP JUMPDEST PUSH2 0xCF1 DUP3 CALLER PUSH2 0x1242 JUMP JUMPDEST ISZERO PUSH2 0xD31 JUMPI PUSH1 0x40 MLOAD PUSH32 0x8C379A000000000000000000000000000000000000000000000000000000000 DUP2 MSTORE PUSH1 0x4 ADD PUSH2 0xD28 SWAP1 PUSH2 0x24E5 JUMP JUMPDEST PUSH1 0x40 MLOAD DUP1 SWAP2 SUB SWAP1 REVERT JUMPDEST PUSH0 DUP2 MLOAD GT PUSH2 0xD74 JUMPI PUSH1 0x40 MLOAD PUSH32 0x8C379A000000000000000000000000000000000000000000000000000000000 DUP2 MSTORE PUSH1 0x4 ADD PUSH2 0xD6B SWAP1 PUSH2 0x254D JUMP JUMPDEST PUSH1 0x40 MLOAD DUP1 SWAP2 SUB SWAP1 REVERT JUMPDEST PUSH1 0x2 PUSH0 CALLER PUSH20 0xFFFFFFFFFFFFFFFFFFFFFFFFFFFFFFFFFFFFFFFF AND PUSH20 0xFFFFFFFFFFFFFFFFFFFFFFFFFFFFFFFFFFFFFFFF AND DUP2 MSTORE PUSH1 0x20 ADD SWAP1 DUP2 MSTORE PUSH1 0x20 ADD PUSH0 KECCAK256 PUSH0 DUP4 DUP2 MSTORE PUSH1 0x20 ADD SWAP1 DUP2 MSTORE PUSH1 0x20 ADD PUSH0 KECCAK256 PUSH1 0x3 ADD PUSH0 SWAP1 SLOAD SWAP1 PUSH2 0x100 EXP SWAP1 DIV PUSH1 0xFF AND ISZERO PUSH2 0xE10 JUMPI PUSH1 0x40 MLOAD PUSH32 0x8C379A000000000000000000000000000000000000000000000000000000000 DUP2 MSTORE PUSH1 0x4 ADD PUSH2 0xE07 SWAP1 PUSH2 0x25B5 JUMP JUMPDEST PUSH1 0x40 MLOAD DUP1 SWAP2 SUB SWAP1 REVERT JUMPDEST PUSH0 PUSH1 0x40 MLOAD DUP1 PUSH1 0xA0 ADD PUSH1 0x40 MSTORE DUP1 CALLER PUSH20 0xFFFFFFFFFFFFFFFFFFFFFFFFFFFFFFFFFFFFFFFF AND DUP2 MSTORE PUSH1 0x20 ADD DUP5 DUP2 MSTORE PUSH1 0x20 ADD DUP4 DUP2 MSTORE PUSH1 0x20 ADD PUSH1 0x1 ISZERO ISZERO DUP2 MSTORE PUSH1 0x20 ADD PUSH0 ISZERO ISZERO DUP2 MSTORE POP SWAP1 POP DUP1 PUSH1 0x2 PUSH0 CALLER PUSH20 0xFFFFFFFFFFFFFFFFFFFFFFFFFFFFFFFFFFFFFFFF AND PUSH20 0xFFFFFFFFFFFFFFFFFFFFFFFFFFFFFFFFFFFFFFFF AND DUP2 MSTORE PUSH1 0x20 ADD SWAP1 DUP2 MSTORE PUSH1 0x20 ADD PUSH0 KECCAK256 PUSH0 DUP6 DUP2 MSTORE PUSH1 0x20 ADD SWAP1 DUP2 MSTORE PUSH1 0x20 ADD PUSH0 KECCAK256 PUSH0 DUP3 ADD MLOAD DUP2 PUSH0 ADD PUSH0 PUSH2 0x100 EXP DUP2 SLOAD DUP2 PUSH20 0xFFFFFFFFFFFFFFFFFFFFFFFFFFFFFFFFFFFFFFFF MUL NOT AND SWAP1 DUP4 PUSH20 0xFFFFFFFFFFFFFFFFFFFFFFFFFFFFFFFFFFFFFFFF AND MUL OR SWAP1 SSTORE POP PUSH1 0x20 DUP3 ADD MLOAD DUP2 PUSH1 0x1 ADD SSTORE PUSH1 0x40 DUP3 ADD MLOAD DUP2 PUSH1 0x2 ADD SWAP1 DUP2 PUSH2 0xF05 SWAP2 SWAP1 PUSH2 0x2770 JUMP JUMPDEST POP PUSH1 0x60 DUP3 ADD MLOAD DUP2 PUSH1 0x3 ADD PUSH0 PUSH2 0x100 EXP DUP2 SLOAD DUP2 PUSH1 0xFF MUL NOT AND SWAP1 DUP4 ISZERO ISZERO MUL OR SWAP1 SSTORE POP PUSH1 0x80 DUP3 ADD MLOAD DUP2 PUSH1 0x3 ADD PUSH1 0x1 PUSH2 0x100 EXP DUP2 SLOAD DUP2 PUSH1 0xFF MUL NOT AND SWAP1 DUP4 ISZERO ISZERO MUL OR SWAP1 SSTORE POP SWAP1 POP POP PUSH1 0x3 DUP2 SWAP1 DUP1 PUSH1 0x1 DUP2 SLOAD ADD DUP1 DUP3 SSTORE DUP1 SWAP2 POP POP PUSH1 0x1 SWAP1 SUB SWAP1 PUSH0 MSTORE PUSH1 0x20 PUSH0 KECCAK256 SWAP1 PUSH1 0x4 MUL ADD PUSH0 SWAP1 SWAP2 SWAP1 SWAP2 SWAP1 SWAP2 POP PUSH0 DUP3 ADD MLOAD DUP2 PUSH0 ADD PUSH0 PUSH2 0x100 EXP DUP2 SLOAD DUP2 PUSH20 0xFFFFFFFFFFFFFFFFFFFFFFFFFFFFFFFFFFFFFFFF MUL NOT AND SWAP1 DUP4 PUSH20 0xFFFFFFFFFFFFFFFFFFFFFFFFFFFFFFFFFFFFFFFF AND MUL OR SWAP1 SSTORE POP PUSH1 0x20 DUP3 ADD MLOAD DUP2 PUSH1 0x1 ADD SSTORE PUSH1 0x40 DUP3 ADD MLOAD DUP2 PUSH1 0x2 ADD SWAP1 DUP2 PUSH2 0xFD4 SWAP2 SWAP1 PUSH2 0x2770 JUMP JUMPDEST POP PUSH1 0x60 DUP3 ADD MLOAD DUP2 PUSH1 0x3 ADD PUSH0 PUSH2 0x100 EXP DUP2 SLOAD DUP2 PUSH1 0xFF MUL NOT AND SWAP1 DUP4 ISZERO ISZERO MUL OR SWAP1 SSTORE POP PUSH1 0x80 DUP3 ADD MLOAD DUP2 PUSH1 0x3 ADD PUSH1 0x1 PUSH2 0x100 EXP DUP2 SLOAD DUP2 PUSH1 0xFF MUL NOT AND SWAP1 DUP4 ISZERO ISZERO MUL OR SWAP1 SSTORE POP POP POP DUP3 CALLER PUSH20 0xFFFFFFFFFFFFFFFFFFFFFFFFFFFFFFFFFFFFFFFF AND PUSH32 0x98F6F2D133C420A141A671CE9479E3956417C7F04BD370DE1CD64CE10D385D94 DUP5 PUSH1 0x40 MLOAD PUSH2 0x105D SWAP2 SWAP1 PUSH2 0x283F JUMP JUMPDEST PUSH1 0x40 MLOAD DUP1 SWAP2 SUB SWAP1 LOG3 POP POP POP JUMP JUMPDEST PUSH32 0x876BBBF5907D194533FAADCEAD8CFA42AD0F2B1653CC89D94228F5C04F389A15 DUP2 JUMP JUMPDEST PUSH1 0x60 PUSH1 0x3 DUP1 SLOAD DUP1 PUSH1 0x20 MUL PUSH1 0x20 ADD PUSH1 0x40 MLOAD SWAP1 DUP2 ADD PUSH1 0x40 MSTORE DUP1 SWAP3 SWAP2 SWAP1 DUP2 DUP2 MSTORE PUSH1 0x20 ADD PUSH0 SWAP1 JUMPDEST DUP3 DUP3 LT ISZERO PUSH2 0x1204 JUMPI DUP4 DUP3 SWAP1 PUSH0 MSTORE PUSH1 0x20 PUSH0 KECCAK256 SWAP1 PUSH1 0x4 MUL ADD PUSH1 0x40 MLOAD DUP1 PUSH1 0xA0 ADD PUSH1 0x40 MSTORE SWAP1 DUP2 PUSH0 DUP3 ADD PUSH0 SWAP1 SLOAD SWAP1 PUSH2 0x100 EXP SWAP1 DIV PUSH20 0xFFFFFFFFFFFFFFFFFFFFFFFFFFFFFFFFFFFFFFFF AND PUSH20 0xFFFFFFFFFFFFFFFFFFFFFFFFFFFFFFFFFFFFFFFF AND PUSH20 0xFFFFFFFFFFFFFFFFFFFFFFFFFFFFFFFFFFFFFFFF AND DUP2 MSTORE PUSH1 0x20 ADD PUSH1 0x1 DUP3 ADD SLOAD DUP2 MSTORE PUSH1 0x20 ADD PUSH1 0x2 DUP3 ADD DUP1 SLOAD PUSH2 0x1140 SWAP1 PUSH2 0x239B JUMP JUMPDEST DUP1 PUSH1 0x1F ADD PUSH1 0x20 DUP1 SWAP2 DIV MUL PUSH1 0x20 ADD PUSH1 0x40 MLOAD SWAP1 DUP2 ADD PUSH1 0x40 MSTORE DUP1 SWAP3 SWAP2 SWAP1 DUP2 DUP2 MSTORE PUSH1 0x20 ADD DUP3 DUP1 SLOAD PUSH2 0x116C SWAP1 PUSH2 0x239B JUMP JUMPDEST DUP1 ISZERO PUSH2 0x11B7 JUMPI DUP1 PUSH1 0x1F LT PUSH2 0x118E JUMPI PUSH2 0x100 DUP1 DUP4 SLOAD DIV MUL DUP4 MSTORE SWAP2 PUSH1 0x20 ADD SWAP2 PUSH2 0x11B7 JUMP JUMPDEST DUP3 ADD SWAP2 SWAP1 PUSH0 MSTORE PUSH1 0x20 PUSH0 KECCAK256 SWAP1 JUMPDEST DUP2 SLOAD DUP2 MSTORE SWAP1 PUSH1 0x1 ADD SWAP1 PUSH1 0x20 ADD DUP1 DUP4 GT PUSH2 0x119A JUMPI DUP3 SWAP1 SUB PUSH1 0x1F AND DUP3 ADD SWAP2 JUMPDEST POP POP POP POP POP DUP2 MSTORE PUSH1 0x20 ADD PUSH1 0x3 DUP3 ADD PUSH0 SWAP1 SLOAD SWAP1 PUSH2 0x100 EXP SWAP1 DIV PUSH1 0xFF AND ISZERO ISZERO ISZERO ISZERO DUP2 MSTORE PUSH1 0x20 ADD PUSH1 0x3 DUP3 ADD PUSH1 0x1 SWAP1 SLOAD SWAP1 PUSH2 0x100 EXP SWAP1 DIV PUSH1 0xFF AND ISZERO ISZERO ISZERO ISZERO DUP2 MSTORE POP POP DUP2 MSTORE PUSH1 0x20 ADD SWAP1 PUSH1 0x1 ADD SWAP1 PUSH2 0x10B1 JUMP JUMPDEST POP POP POP POP SWAP1 POP SWAP1 JUMP JUMPDEST PUSH32 0xA49807205CE4D355092EF5A8A18F56E8913CF4A201FBE287825B095693C21775 PUSH2 0x1237 DUP2 PUSH2 0x1643 JUMP JUMPDEST PUSH2 0x123F PUSH2 0x1B63 JUMP JUMPDEST POP JUMP JUMPDEST PUSH0 DUP1 PUSH0 DUP5 DUP2 MSTORE PUSH1 0x20 ADD SWAP1 DUP2 MSTORE PUSH1 0x20 ADD PUSH0 KECCAK256 PUSH0 ADD PUSH0 DUP4 PUSH20 0xFFFFFFFFFFFFFFFFFFFFFFFFFFFFFFFFFFFFFFFF AND PUSH20 0xFFFFFFFFFFFFFFFFFFFFFFFFFFFFFFFFFFFFFFFF AND DUP2 MSTORE PUSH1 0x20 ADD SWAP1 DUP2 MSTORE PUSH1 0x20 ADD PUSH0 KECCAK256 PUSH0 SWAP1 SLOAD SWAP1 PUSH2 0x100 EXP SWAP1 DIV PUSH1 0xFF AND SWAP1 POP SWAP3 SWAP2 POP POP JUMP JUMPDEST PUSH1 0x2 PUSH1 0x20 MSTORE DUP2 PUSH0 MSTORE PUSH1 0x40 PUSH0 KECCAK256 PUSH1 0x20 MSTORE DUP1 PUSH0 MSTORE PUSH1 0x40 PUSH0 KECCAK256 PUSH0 SWAP2 POP SWAP2 POP POP DUP1 PUSH0 ADD PUSH0 SWAP1 SLOAD SWAP1 PUSH2 0x100 EXP SWAP1 DIV PUSH20 0xFFFFFFFFFFFFFFFFFFFFFFFFFFFFFFFFFFFFFFFF AND SWAP1 DUP1 PUSH1 0x1 ADD SLOAD SWAP1 DUP1 PUSH1 0x2 ADD DUP1 SLOAD PUSH2 0x12FA SWAP1 PUSH2 0x239B JUMP JUMPDEST DUP1 PUSH1 0x1F ADD PUSH1 0x20 DUP1 SWAP2 DIV MUL PUSH1 0x20 ADD PUSH1 0x40 MLOAD SWAP1 DUP2 ADD PUSH1 0x40 MSTORE DUP1 SWAP3 SWAP2 SWAP1 DUP2 DUP2 MSTORE PUSH1 0x20 ADD DUP3 DUP1 SLOAD PUSH2 0x1326 SWAP1 PUSH2 0x239B JUMP JUMPDEST DUP1 ISZERO PUSH2 0x1371 JUMPI DUP1 PUSH1 0x1F LT PUSH2 0x1348 JUMPI PUSH2 0x100 DUP1 DUP4 SLOAD DIV MUL DUP4 MSTORE SWAP2 PUSH1 0x20 ADD SWAP2 PUSH2 0x1371 JUMP JUMPDEST DUP3 ADD SWAP2 SWAP1 PUSH0 MSTORE PUSH1 0x20 PUSH0 KECCAK256 SWAP1 JUMPDEST DUP2 SLOAD DUP2 MSTORE SWAP1 PUSH1 0x1 ADD SWAP1 PUSH1 0x20 ADD DUP1 DUP4 GT PUSH2 0x1354 JUMPI DUP3 SWAP1 SUB PUSH1 0x1F AND DUP3 ADD SWAP2 JUMPDEST POP POP POP POP POP SWAP1 DUP1 PUSH1 0x3 ADD PUSH0 SWAP1 SLOAD SWAP1 PUSH2 0x100 EXP SWAP1 DIV PUSH1 0xFF AND SWAP1 DUP1 PUSH1 0x3 ADD PUSH1 0x1 SWAP1 SLOAD SWAP1 PUSH2 0x100 EXP SWAP1 DIV PUSH1 0xFF AND SWAP1 POP DUP6 JUMP JUMPDEST PUSH32 0x329C74013BA5A00A181F8B3DC9D0AE428C8A88AD0625246C0382E31759B580DB DUP2 JUMP JUMPDEST PUSH0 DUP1 SHL DUP2 JUMP JUMPDEST PUSH32 0xA49807205CE4D355092EF5A8A18F56E8913CF4A201FBE287825B095693C21775 PUSH2 0x13F4 DUP2 PUSH2 0x1643 JUMP JUMPDEST PUSH2 0x13FC PUSH2 0x1657 JUMP JUMPDEST PUSH0 PUSH20 0xFFFFFFFFFFFFFFFFFFFFFFFFFFFFFFFFFFFFFFFF AND DUP4 PUSH20 0xFFFFFFFFFFFFFFFFFFFFFFFFFFFFFFFFFFFFFFFF AND SUB PUSH2 0x146A JUMPI PUSH1 0x40 MLOAD PUSH32 0x8C379A000000000000000000000000000000000000000000000000000000000 DUP2 MSTORE PUSH1 0x4 ADD PUSH2 0x1461 SWAP1 PUSH2 0x2415 JUMP JUMPDEST PUSH1 0x40 MLOAD DUP1 SWAP2 SUB SWAP1 REVERT JUMPDEST PUSH0 PUSH1 0x2 PUSH0 DUP6 PUSH20 0xFFFFFFFFFFFFFFFFFFFFFFFFFFFFFFFFFFFFFFFF AND PUSH20 0xFFFFFFFFFFFFFFFFFFFFFFFFFFFFFFFFFFFFFFFF AND DUP2 MSTORE PUSH1 0x20 ADD SWAP1 DUP2 MSTORE PUSH1 0x20 ADD PUSH0 KECCAK256 PUSH0 DUP5 DUP2 MSTORE PUSH1 0x20 ADD SWAP1 DUP2 MSTORE PUSH1 0x20 ADD PUSH0 KECCAK256 SWAP1 POP DUP1 PUSH1 0x3 ADD PUSH0 SWAP1 SLOAD SWAP1 PUSH2 0x100 EXP SWAP1 DIV PUSH1 0xFF AND PUSH2 0x1509 JUMPI PUSH1 0x40 MLOAD PUSH32 0x8C379A000000000000000000000000000000000000000000000000000000000 DUP2 MSTORE PUSH1 0x4 ADD PUSH2 0x1500 SWAP1 PUSH2 0x247D JUMP JUMPDEST PUSH1 0x40 MLOAD DUP1 SWAP2 SUB SWAP1 REVERT JUMPDEST PUSH0 DUP2 PUSH1 0x3 ADD PUSH0 PUSH2 0x100 EXP DUP2 SLOAD DUP2 PUSH1 0xFF MUL NOT AND SWAP1 DUP4 ISZERO ISZERO MUL OR SWAP1 SSTORE POP PUSH0 DUP2 PUSH1 0x3 ADD PUSH1 0x1 PUSH2 0x100 EXP DUP2 SLOAD DUP2 PUSH1 0xFF MUL NOT AND SWAP1 DUP4 ISZERO ISZERO MUL OR SWAP1 SSTORE POP PUSH2 0x154A DUP5 DUP5 PUSH2 0x1873 JUMP JUMPDEST DUP3 DUP5 PUSH20 0xFFFFFFFFFFFFFFFFFFFFFFFFFFFFFFFFFFFFFFFF AND PUSH32 0x4B685AB8ACE04EF41F36CFA424816013417E507B3C57629FDD55778C29587527 PUSH1 0x40 MLOAD PUSH1 0x40 MLOAD DUP1 SWAP2 SUB SWAP1 LOG3 POP POP POP POP JUMP JUMPDEST PUSH32 0x1597BC5E34FF090612F53164E4E642D2AB4FC78BFFE19ED1B602A0D12559561A DUP2 JUMP JUMPDEST PUSH2 0x15C1 DUP3 PUSH2 0x87B JUMP JUMPDEST PUSH2 0x15CA DUP2 PUSH2 0x1643 JUMP JUMPDEST PUSH2 0x15D4 DUP4 DUP4 PUSH2 0x178A JUMP JUMPDEST POP POP POP POP JUMP JUMPDEST PUSH0 PUSH32 0x1FFC9A700000000000000000000000000000000000000000000000000000000 PUSH28 0xFFFFFFFFFFFFFFFFFFFFFFFFFFFFFFFFFFFFFFFFFFFFFFFFFFFFFFFF NOT AND DUP3 PUSH28 0xFFFFFFFFFFFFFFFFFFFFFFFFFFFFFFFFFFFFFFFFFFFFFFFFFFFFFFFF NOT AND EQ SWAP1 POP SWAP2 SWAP1 POP JUMP JUMPDEST PUSH2 0x1654 DUP2 PUSH2 0x164F PUSH2 0x1AFB JUMP JUMPDEST PUSH2 0x1BC4 JUMP JUMPDEST POP JUMP JUMPDEST PUSH2 0x165F PUSH2 0xCA6 JUMP JUMPDEST ISZERO PUSH2 0x169F JUMPI PUSH1 0x40 MLOAD PUSH32 0x8C379A000000000000000000000000000000000000000000000000000000000 DUP2 MSTORE PUSH1 0x4 ADD PUSH2 0x1696 SWAP1 PUSH2 0x28A9 JUMP JUMPDEST PUSH1 0x40 MLOAD DUP1 SWAP2 SUB SWAP1 REVERT JUMPDEST JUMP JUMPDEST PUSH0 PUSH2 0x16AC DUP4 DUP4 PUSH2 0x1242 JUMP JUMPDEST PUSH2 0x1780 JUMPI PUSH1 0x1 PUSH0 DUP1 DUP6 DUP2 MSTORE PUSH1 0x20 ADD SWAP1 DUP2 MSTORE PUSH1 0x20 ADD PUSH0 KECCAK256 PUSH0 ADD PUSH0 DUP5 PUSH20 0xFFFFFFFFFFFFFFFFFFFFFFFFFFFFFFFFFFFFFFFF AND PUSH20 0xFFFFFFFFFFFFFFFFFFFFFFFFFFFFFFFFFFFFFFFF AND DUP2 MSTORE PUSH1 0x20 ADD SWAP1 DUP2 MSTORE PUSH1 0x20 ADD PUSH0 KECCAK256 PUSH0 PUSH2 0x100 EXP DUP2 SLOAD DUP2 PUSH1 0xFF MUL NOT AND SWAP1 DUP4 ISZERO ISZERO MUL OR SWAP1 SSTORE POP PUSH2 0x171D PUSH2 0x1AFB JUMP JUMPDEST PUSH20 0xFFFFFFFFFFFFFFFFFFFFFFFFFFFFFFFFFFFFFFFF AND DUP3 PUSH20 0xFFFFFFFFFFFFFFFFFFFFFFFFFFFFFFFFFFFFFFFF AND DUP5 PUSH32 0x2F8788117E7EFF1D82E926EC794901D17C78024A50270940304540A733656F0D PUSH1 0x40 MLOAD PUSH1 0x40 MLOAD DUP1 SWAP2 SUB SWAP1 LOG4 PUSH1 0x1 SWAP1 POP PUSH2 0x1784 JUMP JUMPDEST PUSH0 SWAP1 POP JUMPDEST SWAP3 SWAP2 POP POP JUMP JUMPDEST PUSH0 PUSH2 0x1795 DUP4 DUP4 PUSH2 0x1242 JUMP JUMPDEST ISZERO PUSH2 0x1869 JUMPI PUSH0 DUP1 PUSH0 DUP6 DUP2 MSTORE PUSH1 0x20 ADD SWAP1 DUP2 MSTORE PUSH1 0x20 ADD PUSH0 KECCAK256 PUSH0 ADD PUSH0 DUP5 PUSH20 0xFFFFFFFFFFFFFFFFFFFFFFFFFFFFFFFFFFFFFFFF AND PUSH20 0xFFFFFFFFFFFFFFFFFFFFFFFFFFFFFFFFFFFFFFFF AND DUP2 MSTORE PUSH1 0x20 ADD SWAP1 DUP2 MSTORE PUSH1 0x20 ADD PUSH0 KECCAK256 PUSH0 PUSH2 0x100 EXP DUP2 SLOAD DUP2 PUSH1 0xFF MUL NOT AND SWAP1 DUP4 ISZERO ISZERO MUL OR SWAP1 SSTORE POP PUSH2 0x1806 PUSH2 0x1AFB JUMP JUMPDEST PUSH20 0xFFFFFFFFFFFFFFFFFFFFFFFFFFFFFFFFFFFFFFFF AND DUP3 PUSH20 0xFFFFFFFFFFFFFFFFFFFFFFFFFFFFFFFFFFFFFFFF AND DUP5 PUSH32 0xF6391F5C32D9C69D2A47EA670B442974B53935D1EDC7FD64EB21E047A839171B PUSH1 0x40 MLOAD PUSH1 0x40 MLOAD DUP1 SWAP2 SUB SWAP1 LOG4 PUSH1 0x1 SWAP1 POP PUSH2 0x186D JUMP JUMPDEST PUSH0 SWAP1 POP JUMPDEST SWAP3 SWAP2 POP POP JUMP JUMPDEST PUSH0 JUMPDEST PUSH1 0x3 DUP1 SLOAD SWAP1 POP DUP2 LT ISZERO PUSH2 0x1AF6 JUMPI DUP3 PUSH20 0xFFFFFFFFFFFFFFFFFFFFFFFFFFFFFFFFFFFFFFFF AND PUSH1 0x3 DUP3 DUP2 SLOAD DUP2 LT PUSH2 0x18AD JUMPI PUSH2 0x18AC PUSH2 0x28C7 JUMP JUMPDEST JUMPDEST SWAP1 PUSH0 MSTORE PUSH1 0x20 PUSH0 KECCAK256 SWAP1 PUSH1 0x4 MUL ADD PUSH0 ADD PUSH0 SWAP1 SLOAD SWAP1 PUSH2 0x100 EXP SWAP1 DIV PUSH20 0xFFFFFFFFFFFFFFFFFFFFFFFFFFFFFFFFFFFFFFFF AND PUSH20 0xFFFFFFFFFFFFFFFFFFFFFFFFFFFFFFFFFFFFFFFF AND EQ DUP1 ISZERO PUSH2 0x1920 JUMPI POP DUP2 PUSH1 0x3 DUP3 DUP2 SLOAD DUP2 LT PUSH2 0x190E JUMPI PUSH2 0x190D PUSH2 0x28C7 JUMP JUMPDEST JUMPDEST SWAP1 PUSH0 MSTORE PUSH1 0x20 PUSH0 KECCAK256 SWAP1 PUSH1 0x4 MUL ADD PUSH1 0x1 ADD SLOAD EQ JUMPDEST ISZERO PUSH2 0x1AE3 JUMPI PUSH1 0x3 PUSH1 0x1 PUSH1 0x3 DUP1 SLOAD SWAP1 POP PUSH2 0x1939 SWAP2 SWAP1 PUSH2 0x2921 JUMP JUMPDEST DUP2 SLOAD DUP2 LT PUSH2 0x194A JUMPI PUSH2 0x1949 PUSH2 0x28C7 JUMP JUMPDEST JUMPDEST SWAP1 PUSH0 MSTORE PUSH1 0x20 PUSH0 KECCAK256 SWAP1 PUSH1 0x4 MUL ADD PUSH1 0x3 DUP3 DUP2 SLOAD DUP2 LT PUSH2 0x196A JUMPI PUSH2 0x1969 PUSH2 0x28C7 JUMP JUMPDEST JUMPDEST SWAP1 PUSH0 MSTORE PUSH1 0x20 PUSH0 KECCAK256 SWAP1 PUSH1 0x4 MUL ADD PUSH0 DUP3 ADD PUSH0 SWAP1 SLOAD SWAP1 PUSH2 0x100 EXP SWAP1 DIV PUSH20 0xFFFFFFFFFFFFFFFFFFFFFFFFFFFFFFFFFFFFFFFF AND DUP2 PUSH0 ADD PUSH0 PUSH2 0x100 EXP DUP2 SLOAD DUP2 PUSH20 0xFFFFFFFFFFFFFFFFFFFFFFFFFFFFFFFFFFFFFFFF MUL NOT AND SWAP1 DUP4 PUSH20 0xFFFFFFFFFFFFFFFFFFFFFFFFFFFFFFFFFFFFFFFF AND MUL OR SWAP1 SSTORE POP PUSH1 0x1 DUP3 ADD SLOAD DUP2 PUSH1 0x1 ADD SSTORE PUSH1 0x2 DUP3 ADD DUP2 PUSH1 0x2 ADD SWAP1 DUP2 PUSH2 0x19F7 SWAP2 SWAP1 PUSH2 0x2969 JUMP JUMPDEST POP PUSH1 0x3 DUP3 ADD PUSH0 SWAP1 SLOAD SWAP1 PUSH2 0x100 EXP SWAP1 DIV PUSH1 0xFF AND DUP2 PUSH1 0x3 ADD PUSH0 PUSH2 0x100 EXP DUP2 SLOAD DUP2 PUSH1 0xFF MUL NOT AND SWAP1 DUP4 ISZERO ISZERO MUL OR SWAP1 SSTORE POP PUSH1 0x3 DUP3 ADD PUSH1 0x1 SWAP1 SLOAD SWAP1 PUSH2 0x100 EXP SWAP1 DIV PUSH1 0xFF AND DUP2 PUSH1 0x3 ADD PUSH1 0x1 PUSH2 0x100 EXP DUP2 SLOAD DUP2 PUSH1 0xFF MUL NOT AND SWAP1 DUP4 ISZERO ISZERO MUL OR SWAP1 SSTORE POP SWAP1 POP POP PUSH1 0x3 DUP1 SLOAD DUP1 PUSH2 0x1A65 JUMPI PUSH2 0x1A64 PUSH2 0x2A4E JUMP JUMPDEST JUMPDEST PUSH1 0x1 SWAP1 SUB DUP2 DUP2 SWAP1 PUSH0 MSTORE PUSH1 0x20 PUSH0 KECCAK256 SWAP1 PUSH1 0x4 MUL ADD PUSH0 DUP1 DUP3 ADD PUSH0 PUSH2 0x100 EXP DUP2 SLOAD SWAP1 PUSH20 0xFFFFFFFFFFFFFFFFFFFFFFFFFFFFFFFFFFFFFFFF MUL NOT AND SWAP1 SSTORE PUSH1 0x1 DUP3 ADD PUSH0 SWAP1 SSTORE PUSH1 0x2 DUP3 ADD PUSH0 PUSH2 0x1AB3 SWAP2 SWAP1 PUSH2 0x1C5E JUMP JUMPDEST PUSH1 0x3 DUP3 ADD PUSH0 PUSH2 0x100 EXP DUP2 SLOAD SWAP1 PUSH1 0xFF MUL NOT AND SWAP1 SSTORE PUSH1 0x3 DUP3 ADD PUSH1 0x1 PUSH2 0x100 EXP DUP2 SLOAD SWAP1 PUSH1 0xFF MUL NOT AND SWAP1 SSTORE POP POP SWAP1 SSTORE PUSH2 0x1AF6 JUMP JUMPDEST DUP1 DUP1 PUSH2 0x1AEE SWAP1 PUSH2 0x2A7B JUMP JUMPDEST SWAP2 POP POP PUSH2 0x1875 JUMP JUMPDEST POP POP POP JUMP JUMPDEST PUSH0 CALLER SWAP1 POP SWAP1 JUMP JUMPDEST PUSH2 0x1B0A PUSH2 0x1C15 JUMP JUMPDEST PUSH0 PUSH1 0x1 PUSH0 PUSH2 0x100 EXP DUP2 SLOAD DUP2 PUSH1 0xFF MUL NOT AND SWAP1 DUP4 ISZERO ISZERO MUL OR SWAP1 SSTORE POP PUSH32 0x5DB9EE0A495BF2E6FF9C91A7834C1BA4FDD244A5E8AA4E537BD38AEAE4B073AA PUSH2 0x1B4C PUSH2 0x1AFB JUMP JUMPDEST PUSH1 0x40 MLOAD PUSH2 0x1B59 SWAP2 SWAP1 PUSH2 0x2AC2 JUMP JUMPDEST PUSH1 0x40 MLOAD DUP1 SWAP2 SUB SWAP1 LOG1 JUMP JUMPDEST PUSH2 0x1B6B PUSH2 0x1657 JUMP JUMPDEST PUSH1 0x1 DUP1 PUSH0 PUSH2 0x100 EXP DUP2 SLOAD DUP2 PUSH1 0xFF MUL NOT AND SWAP1 DUP4 ISZERO ISZERO MUL OR SWAP1 SSTORE POP PUSH32 0x62E78CEA01BEE320CD4E420270B5EA74000D11B0C9F74754EBDBFC544B05A258 PUSH2 0x1BAD PUSH2 0x1AFB JUMP JUMPDEST PUSH1 0x40 MLOAD PUSH2 0x1BBA SWAP2 SWAP1 PUSH2 0x2AC2 JUMP JUMPDEST PUSH1 0x40 MLOAD DUP1 SWAP2 SUB SWAP1 LOG1 JUMP JUMPDEST PUSH2 0x1BCE DUP3 DUP3 PUSH2 0x1242 JUMP JUMPDEST PUSH2 0x1C11 JUMPI DUP1 DUP3 PUSH1 0x40 MLOAD PUSH32 0xE2517D3F00000000000000000000000000000000000000000000000000000000 DUP2 MSTORE PUSH1 0x4 ADD PUSH2 0x1C08 SWAP3 SWAP2 SWAP1 PUSH2 0x2ADB JUMP JUMPDEST PUSH1 0x40 MLOAD DUP1 SWAP2 SUB SWAP1 REVERT JUMPDEST POP POP JUMP JUMPDEST PUSH2 0x1C1D PUSH2 0xCA6 JUMP JUMPDEST PUSH2 0x1C5C JUMPI PUSH1 0x40 MLOAD PUSH32 0x8C379A000000000000000000000000000000000000000000000000000000000 DUP2 MSTORE PUSH1 0x4 ADD PUSH2 0x1C53 SWAP1 PUSH2 0x2B4C JUMP JUMPDEST PUSH1 0x40 MLOAD DUP1 SWAP2 SUB SWAP1 REVERT JUMPDEST JUMP JUMPDEST POP DUP1 SLOAD PUSH2 0x1C6A SWAP1 PUSH2 0x239B JUMP JUMPDEST PUSH0 DUP3 SSTORE DUP1 PUSH1 0x1F LT PUSH2 0x1C7B JUMPI POP PUSH2 0x1C98 JUMP JUMPDEST PUSH1 0x1F ADD PUSH1 0x20 SWAP1 DIV SWAP1 PUSH0 MSTORE PUSH1 0x20 PUSH0 KECCAK256 SWAP1 DUP2 ADD SWAP1 PUSH2 0x1C97 SWAP2 SWAP1 PUSH2 0x1C9B JUMP JUMPDEST JUMPDEST POP JUMP JUMPDEST JUMPDEST DUP1 DUP3 GT ISZERO PUSH2 0x1CB2 JUMPI PUSH0 DUP2 PUSH0 SWAP1 SSTORE POP PUSH1 0x1 ADD PUSH2 0x1C9C JUMP JUMPDEST POP SWAP1 JUMP JUMPDEST PUSH0 PUSH1 0x40 MLOAD SWAP1 POP SWAP1 JUMP JUMPDEST PUSH0 DUP1 REVERT JUMPDEST PUSH0 DUP1 REVERT JUMPDEST PUSH0 PUSH32 0xFFFFFFFF00000000000000000000000000000000000000000000000000000000 DUP3 AND SWAP1 POP SWAP2 SWAP1 POP JUMP JUMPDEST PUSH2 0x1CFB DUP2 PUSH2 0x1CC7 JUMP JUMPDEST DUP2 EQ PUSH2 0x1D05 JUMPI PUSH0 DUP1 REVERT JUMPDEST POP JUMP JUMPDEST PUSH0 DUP2 CALLDATALOAD SWAP1 POP PUSH2 0x1D16 DUP2 PUSH2 0x1CF2 JUMP JUMPDEST SWAP3 SWAP2 POP POP JUMP JUMPDEST PUSH0 PUSH1 0x20 DUP3 DUP5 SUB SLT ISZERO PUSH2 0x1D31 JUMPI PUSH2 0x1D30 PUSH2 0x1CBF JUMP JUMPDEST JUMPDEST PUSH0 PUSH2 0x1D3E DUP5 DUP3 DUP6 ADD PUSH2 0x1D08 JUMP JUMPDEST SWAP2 POP POP SWAP3 SWAP2 POP POP JUMP JUMPDEST PUSH0 DUP2 ISZERO ISZERO SWAP1 POP SWAP2 SWAP1 POP JUMP JUMPDEST PUSH2 0x1D5B DUP2 PUSH2 0x1D47 JUMP JUMPDEST DUP3 MSTORE POP POP JUMP JUMPDEST PUSH0 PUSH1 0x20 DUP3 ADD SWAP1 POP PUSH2 0x1D74 PUSH0 DUP4 ADD DUP5 PUSH2 0x1D52 JUMP JUMPDEST SWAP3 SWAP2 POP POP JUMP JUMPDEST PUSH0 PUSH20 0xFFFFFFFFFFFFFFFFFFFFFFFFFFFFFFFFFFFFFFFF DUP3 AND SWAP1 POP SWAP2 SWAP1 POP JUMP JUMPDEST PUSH0 PUSH2 0x1DA3 DUP3 PUSH2 0x1D7A JUMP JUMPDEST SWAP1 POP SWAP2 SWAP1 POP JUMP JUMPDEST PUSH2 0x1DB3 DUP2 PUSH2 0x1D99 JUMP JUMPDEST DUP2 EQ PUSH2 0x1DBD JUMPI PUSH0 DUP1 REVERT JUMPDEST POP JUMP JUMPDEST PUSH0 DUP2 CALLDATALOAD SWAP1 POP PUSH2 0x1DCE DUP2 PUSH2 0x1DAA JUMP JUMPDEST SWAP3 SWAP2 POP POP JUMP JUMPDEST PUSH0 DUP2 SWAP1 POP SWAP2 SWAP1 POP JUMP JUMPDEST PUSH2 0x1DE6 DUP2 PUSH2 0x1DD4 JUMP JUMPDEST DUP2 EQ PUSH2 0x1DF0 JUMPI PUSH0 DUP1 REVERT JUMPDEST POP JUMP JUMPDEST PUSH0 DUP2 CALLDATALOAD SWAP1 POP PUSH2 0x1E01 DUP2 PUSH2 0x1DDD JUMP JUMPDEST SWAP3 SWAP2 POP POP JUMP JUMPDEST PUSH0 DUP1 PUSH1 0x40 DUP4 DUP6 SUB SLT ISZERO PUSH2 0x1E1D JUMPI PUSH2 0x1E1C PUSH2 0x1CBF JUMP JUMPDEST JUMPDEST PUSH0 PUSH2 0x1E2A DUP6 DUP3 DUP7 ADD PUSH2 0x1DC0 JUMP JUMPDEST SWAP3 POP POP PUSH1 0x20 PUSH2 0x1E3B DUP6 DUP3 DUP7 ADD PUSH2 0x1DF3 JUMP JUMPDEST SWAP2 POP POP SWAP3 POP SWAP3 SWAP1 POP JUMP JUMPDEST PUSH2 0x1E4E DUP2 PUSH2 0x1D99 JUMP JUMPDEST DUP3 MSTORE POP POP JUMP JUMPDEST PUSH2 0x1E5D DUP2 PUSH2 0x1DD4 JUMP JUMPDEST DUP3 MSTORE POP POP JUMP JUMPDEST PUSH0 DUP2 MLOAD SWAP1 POP SWAP2 SWAP1 POP JUMP JUMPDEST PUSH0 DUP3 DUP3 MSTORE PUSH1 0x20 DUP3 ADD SWAP1 POP SWAP3 SWAP2 POP POP JUMP JUMPDEST PUSH0 JUMPDEST DUP4 DUP2 LT ISZERO PUSH2 0x1E9A JUMPI DUP1 DUP3 ADD MLOAD DUP2 DUP5 ADD MSTORE PUSH1 0x20 DUP2 ADD SWAP1 POP PUSH2 0x1E7F JUMP JUMPDEST PUSH0 DUP5 DUP5 ADD MSTORE POP POP POP POP JUMP JUMPDEST PUSH0 PUSH1 0x1F NOT PUSH1 0x1F DUP4 ADD AND SWAP1 POP SWAP2 SWAP1 POP JUMP JUMPDEST PUSH0 PUSH2 0x1EBF DUP3 PUSH2 0x1E63 JUMP JUMPDEST PUSH2 0x1EC9 DUP2 DUP6 PUSH2 0x1E6D JUMP JUMPDEST SWAP4 POP PUSH2 0x1ED9 DUP2 DUP6 PUSH1 0x20 DUP7 ADD PUSH2 0x1E7D JUMP JUMPDEST PUSH2 0x1EE2 DUP2 PUSH2 0x1EA5 JUMP JUMPDEST DUP5 ADD SWAP2 POP POP SWAP3 SWAP2 POP POP JUMP JUMPDEST PUSH0 PUSH1 0xA0 DUP3 ADD SWAP1 POP PUSH2 0x1F00 PUSH0 DUP4 ADD DUP9 PUSH2 0x1E45 JUMP JUMPDEST PUSH2 0x1F0D PUSH1 0x20 DUP4 ADD DUP8 PUSH2 0x1E54 JUMP JUMPDEST DUP2 DUP2 SUB PUSH1 0x40 DUP4 ADD MSTORE PUSH2 0x1F1F DUP2 DUP7 PUSH2 0x1EB5 JUMP JUMPDEST SWAP1 POP PUSH2 0x1F2E PUSH1 0x60 DUP4 ADD DUP6 PUSH2 0x1D52 JUMP JUMPDEST PUSH2 0x1F3B PUSH1 0x80 DUP4 ADD DUP5 PUSH2 0x1D52 JUMP JUMPDEST SWAP7 SWAP6 POP POP POP POP POP POP JUMP JUMPDEST PUSH0 PUSH1 0x20 DUP3 DUP5 SUB SLT ISZERO PUSH2 0x1F5A JUMPI PUSH2 0x1F59 PUSH2 0x1CBF JUMP JUMPDEST JUMPDEST PUSH0 PUSH2 0x1F67 DUP5 DUP3 DUP6 ADD PUSH2 0x1DF3 JUMP JUMPDEST SWAP2 POP POP SWAP3 SWAP2 POP POP JUMP JUMPDEST PUSH0 PUSH1 0x20 DUP3 ADD SWAP1 POP PUSH2 0x1F83 PUSH0 DUP4 ADD DUP5 PUSH2 0x1E54 JUMP JUMPDEST SWAP3 SWAP2 POP POP JUMP JUMPDEST PUSH0 DUP1 PUSH1 0x40 DUP4 DUP6 SUB SLT ISZERO PUSH2 0x1F9F JUMPI PUSH2 0x1F9E PUSH2 0x1CBF JUMP JUMPDEST JUMPDEST PUSH0 PUSH2 0x1FAC DUP6 DUP3 DUP7 ADD PUSH2 0x1DF3 JUMP JUMPDEST SWAP3 POP POP PUSH1 0x20 PUSH2 0x1FBD DUP6 DUP3 DUP7 ADD PUSH2 0x1DC0 JUMP JUMPDEST SWAP2 POP POP SWAP3 POP SWAP3 SWAP1 POP JUMP JUMPDEST PUSH0 DUP2 SWAP1 POP SWAP2 SWAP1 POP JUMP JUMPDEST PUSH2 0x1FD9 DUP2 PUSH2 0x1FC7 JUMP JUMPDEST DUP2 EQ PUSH2 0x1FE3 JUMPI PUSH0 DUP1 REVERT JUMPDEST POP JUMP JUMPDEST PUSH0 DUP2 CALLDATALOAD SWAP1 POP PUSH2 0x1FF4 DUP2 PUSH2 0x1FD0 JUMP JUMPDEST SWAP3 SWAP2 POP POP JUMP JUMPDEST PUSH0 PUSH1 0x20 DUP3 DUP5 SUB SLT ISZERO PUSH2 0x200F JUMPI PUSH2 0x200E PUSH2 0x1CBF JUMP JUMPDEST JUMPDEST PUSH0 PUSH2 0x201C DUP5 DUP3 DUP6 ADD PUSH2 0x1FE6 JUMP JUMPDEST SWAP2 POP POP SWAP3 SWAP2 POP POP JUMP JUMPDEST PUSH0 DUP1 REVERT JUMPDEST PUSH0 DUP1 REVERT JUMPDEST PUSH32 0x4E487B7100000000000000000000000000000000000000000000000000000000 PUSH0 MSTORE PUSH1 0x41 PUSH1 0x4 MSTORE PUSH1 0x24 PUSH0 REVERT JUMPDEST PUSH2 0x2063 DUP3 PUSH2 0x1EA5 JUMP JUMPDEST DUP2 ADD DUP2 DUP2 LT PUSH8 0xFFFFFFFFFFFFFFFF DUP3 GT OR ISZERO PUSH2 0x2082 JUMPI PUSH2 0x2081 PUSH2 0x202D JUMP JUMPDEST JUMPDEST DUP1 PUSH1 0x40 MSTORE POP POP POP JUMP JUMPDEST PUSH0 PUSH2 0x2094 PUSH2 0x1CB6 JUMP JUMPDEST SWAP1 POP PUSH2 0x20A0 DUP3 DUP3 PUSH2 0x205A JUMP JUMPDEST SWAP2 SWAP1 POP JUMP JUMPDEST PUSH0 PUSH8 0xFFFFFFFFFFFFFFFF DUP3 GT ISZERO PUSH2 0x20BF JUMPI PUSH2 0x20BE PUSH2 0x202D JUMP JUMPDEST JUMPDEST PUSH2 0x20C8 DUP3 PUSH2 0x1EA5 JUMP JUMPDEST SWAP1 POP PUSH1 0x20 DUP2 ADD SWAP1 POP SWAP2 SWAP1 POP JUMP JUMPDEST DUP3 DUP2 DUP4 CALLDATACOPY PUSH0 DUP4 DUP4 ADD MSTORE POP POP POP JUMP JUMPDEST PUSH0 PUSH2 0x20F5 PUSH2 0x20F0 DUP5 PUSH2 0x20A5 JUMP JUMPDEST PUSH2 0x208B JUMP JUMPDEST SWAP1 POP DUP3 DUP2 MSTORE PUSH1 0x20 DUP2 ADD DUP5 DUP5 DUP5 ADD GT ISZERO PUSH2 0x2111 JUMPI PUSH2 0x2110 PUSH2 0x2029 JUMP JUMPDEST JUMPDEST PUSH2 0x211C DUP5 DUP3 DUP6 PUSH2 0x20D5 JUMP JUMPDEST POP SWAP4 SWAP3 POP POP POP JUMP JUMPDEST PUSH0 DUP3 PUSH1 0x1F DUP4 ADD SLT PUSH2 0x2138 JUMPI PUSH2 0x2137 PUSH2 0x2025 JUMP JUMPDEST JUMPDEST DUP2 CALLDATALOAD PUSH2 0x2148 DUP5 DUP3 PUSH1 0x20 DUP7 ADD PUSH2 0x20E3 JUMP JUMPDEST SWAP2 POP POP SWAP3 SWAP2 POP POP JUMP JUMPDEST PUSH0 DUP1 PUSH1 0x40 DUP4 DUP6 SUB SLT ISZERO PUSH2 0x2167 JUMPI PUSH2 0x2166 PUSH2 0x1CBF JUMP JUMPDEST JUMPDEST PUSH0 PUSH2 0x2174 DUP6 DUP3 DUP7 ADD PUSH2 0x1DF3 JUMP JUMPDEST SWAP3 POP POP PUSH1 0x20 DUP4 ADD CALLDATALOAD PUSH8 0xFFFFFFFFFFFFFFFF DUP2 GT ISZERO PUSH2 0x2195 JUMPI PUSH2 0x2194 PUSH2 0x1CC3 JUMP JUMPDEST JUMPDEST PUSH2 0x21A1 DUP6 DUP3 DUP7 ADD PUSH2 0x2124 JUMP JUMPDEST SWAP2 POP POP SWAP3 POP SWAP3 SWAP1 POP JUMP JUMPDEST PUSH0 DUP2 MLOAD SWAP1 POP SWAP2 SWAP1 POP JUMP JUMPDEST PUSH0 DUP3 DUP3 MSTORE PUSH1 0x20 DUP3 ADD SWAP1 POP SWAP3 SWAP2 POP POP JUMP JUMPDEST PUSH0 DUP2 SWAP1 POP PUSH1 0x20 DUP3 ADD SWAP1 POP SWAP2 SWAP1 POP JUMP JUMPDEST PUSH2 0x21DD DUP2 PUSH2 0x1D99 JUMP JUMPDEST DUP3 MSTORE POP POP JUMP JUMPDEST PUSH2 0x21EC DUP2 PUSH2 0x1DD4 JUMP JUMPDEST DUP3 MSTORE POP POP JUMP JUMPDEST PUSH0 DUP3 DUP3 MSTORE PUSH1 0x20 DUP3 ADD SWAP1 POP SWAP3 SWAP2 POP POP JUMP JUMPDEST PUSH0 PUSH2 0x220C DUP3 PUSH2 0x1E63 JUMP JUMPDEST PUSH2 0x2216 DUP2 DUP6 PUSH2 0x21F2 JUMP JUMPDEST SWAP4 POP PUSH2 0x2226 DUP2 DUP6 PUSH1 0x20 DUP7 ADD PUSH2 0x1E7D JUMP JUMPDEST PUSH2 0x222F DUP2 PUSH2 0x1EA5 JUMP JUMPDEST DUP5 ADD SWAP2 POP POP SWAP3 SWAP2 POP POP JUMP JUMPDEST PUSH2 0x2243 DUP2 PUSH2 0x1D47 JUMP JUMPDEST DUP3 MSTORE POP POP JUMP JUMPDEST PUSH0 PUSH1 0xA0 DUP4 ADD PUSH0 DUP4 ADD MLOAD PUSH2 0x225E PUSH0 DUP7 ADD DUP3 PUSH2 0x21D4 JUMP JUMPDEST POP PUSH1 0x20 DUP4 ADD MLOAD PUSH2 0x2271 PUSH1 0x20 DUP7 ADD DUP3 PUSH2 0x21E3 JUMP JUMPDEST POP PUSH1 0x40 DUP4 ADD MLOAD DUP5 DUP3 SUB PUSH1 0x40 DUP7 ADD MSTORE PUSH2 0x2289 DUP3 DUP3 PUSH2 0x2202 JUMP JUMPDEST SWAP2 POP POP PUSH1 0x60 DUP4 ADD MLOAD PUSH2 0x229E PUSH1 0x60 DUP7 ADD DUP3 PUSH2 0x223A JUMP JUMPDEST POP PUSH1 0x80 DUP4 ADD MLOAD PUSH2 0x22B1 PUSH1 0x80 DUP7 ADD DUP3 PUSH2 0x223A JUMP JUMPDEST POP DUP1 SWAP2 POP POP SWAP3 SWAP2 POP POP JUMP JUMPDEST PUSH0 PUSH2 0x22C7 DUP4 DUP4 PUSH2 0x2249 JUMP JUMPDEST SWAP1 POP SWAP3 SWAP2 POP POP JUMP JUMPDEST PUSH0 PUSH1 0x20 DUP3 ADD SWAP1 POP SWAP2 SWAP1 POP JUMP JUMPDEST PUSH0 PUSH2 0x22E5 DUP3 PUSH2 0x21AB JUMP JUMPDEST PUSH2 0x22EF DUP2 DUP6 PUSH2 0x21B5 JUMP JUMPDEST SWAP4 POP DUP4 PUSH1 0x20 DUP3 MUL DUP6 ADD PUSH2 0x2301 DUP6 PUSH2 0x21C5 JUMP JUMPDEST DUP1 PUSH0 JUMPDEST DUP6 DUP2 LT ISZERO PUSH2 0x233C JUMPI DUP5 DUP5 SUB DUP10 MSTORE DUP2 MLOAD PUSH2 0x231D DUP6 DUP3 PUSH2 0x22BC JUMP JUMPDEST SWAP5 POP PUSH2 0x2328 DUP4 PUSH2 0x22CF JUMP JUMPDEST SWAP3 POP PUSH1 0x20 DUP11 ADD SWAP10 POP POP PUSH1 0x1 DUP2 ADD SWAP1 POP PUSH2 0x2304 JUMP JUMPDEST POP DUP3 SWAP8 POP DUP8 SWAP6 POP POP POP POP POP POP SWAP3 SWAP2 POP POP JUMP JUMPDEST PUSH0 PUSH1 0x20 DUP3 ADD SWAP1 POP DUP2 DUP2 SUB PUSH0 DUP4 ADD MSTORE PUSH2 0x2366 DUP2 DUP5 PUSH2 0x22DB JUMP JUMPDEST SWAP1 POP SWAP3 SWAP2 POP POP JUMP JUMPDEST PUSH32 0x4E487B7100000000000000000000000000000000000000000000000000000000 PUSH0 MSTORE PUSH1 0x22 PUSH1 0x4 MSTORE PUSH1 0x24 PUSH0 REVERT JUMPDEST PUSH0 PUSH1 0x2 DUP3 DIV SWAP1 POP PUSH1 0x1 DUP3 AND DUP1 PUSH2 0x23B2 JUMPI PUSH1 0x7F DUP3 AND SWAP2 POP JUMPDEST PUSH1 0x20 DUP3 LT DUP2 SUB PUSH2 0x23C5 JUMPI PUSH2 0x23C4 PUSH2 0x236E JUMP JUMPDEST JUMPDEST POP SWAP2 SWAP1 POP JUMP JUMPDEST PUSH32 0x496E76616C696420616464726573730000000000000000000000000000000000 PUSH0 DUP3 ADD MSTORE POP JUMP JUMPDEST PUSH0 PUSH2 0x23FF PUSH1 0xF DUP4 PUSH2 0x1E6D JUMP JUMPDEST SWAP2 POP PUSH2 0x240A DUP3 PUSH2 0x23CB JUMP JUMPDEST PUSH1 0x20 DUP3 ADD SWAP1 POP SWAP2 SWAP1 POP JUMP JUMPDEST PUSH0 PUSH1 0x20 DUP3 ADD SWAP1 POP DUP2 DUP2 SUB PUSH0 DUP4 ADD MSTORE PUSH2 0x242C DUP2 PUSH2 0x23F3 JUMP JUMPDEST SWAP1 POP SWAP2 SWAP1 POP JUMP JUMPDEST PUSH32 0x4E6F2070656E64696E6720726571756573740000000000000000000000000000 PUSH0 DUP3 ADD MSTORE POP JUMP JUMPDEST PUSH0 PUSH2 0x2467 PUSH1 0x12 DUP4 PUSH2 0x1E6D JUMP JUMPDEST SWAP2 POP PUSH2 0x2472 DUP3 PUSH2 0x2433 JUMP JUMPDEST PUSH1 0x20 DUP3 ADD SWAP1 POP SWAP2 SWAP1 POP JUMP JUMPDEST PUSH0 PUSH1 0x20 DUP3 ADD SWAP1 POP DUP2 DUP2 SUB PUSH0 DUP4 ADD MSTORE PUSH2 0x2494 DUP2 PUSH2 0x245B JUMP JUMPDEST SWAP1 POP SWAP2 SWAP1 POP JUMP JUMPDEST PUSH32 0x416C72656164792068617320726F6C6500000000000000000000000000000000 PUSH0 DUP3 ADD MSTORE POP JUMP JUMPDEST PUSH0 PUSH2 0x24CF PUSH1 0x10 DUP4 PUSH2 0x1E6D JUMP JUMPDEST SWAP2 POP PUSH2 0x24DA DUP3 PUSH2 0x249B JUMP JUMPDEST PUSH1 0x20 DUP3 ADD SWAP1 POP SWAP2 SWAP1 POP JUMP JUMPDEST PUSH0 PUSH1 0x20 DUP3 ADD SWAP1 POP DUP2 DUP2 SUB PUSH0 DUP4 ADD MSTORE PUSH2 0x24FC DUP2 PUSH2 0x24C3 JUMP JUMPDEST SWAP1 POP SWAP2 SWAP1 POP JUMP JUMPDEST PUSH32 0x526561736F6E2072657175697265640000000000000000000000000000000000 PUSH0 DUP3 ADD MSTORE POP JUMP JUMPDEST PUSH0 PUSH2 0x2537 PUSH1 0xF DUP4 PUSH2 0x1E6D JUMP JUMPDEST SWAP2 POP PUSH2 0x2542 DUP3 PUSH2 0x2503 JUMP JUMPDEST PUSH1 0x20 DUP3 ADD SWAP1 POP SWAP2 SWAP1 POP JUMP JUMPDEST PUSH0 PUSH1 0x20 DUP3 ADD SWAP1 POP DUP2 DUP2 SUB PUSH0 DUP4 ADD MSTORE PUSH2 0x2564 DUP2 PUSH2 0x252B JUMP JUMPDEST SWAP1 POP SWAP2 SWAP1 POP JUMP JUMPDEST PUSH32 0x5265717565737420616C72656164792070656E64696E67000000000000000000 PUSH0 DUP3 ADD MSTORE POP JUMP JUMPDEST PUSH0 PUSH2 0x259F PUSH1 0x17 DUP4 PUSH2 0x1E6D JUMP JUMPDEST SWAP2 POP PUSH2 0x25AA DUP3 PUSH2 0x256B JUMP JUMPDEST PUSH1 0x20 DUP3 ADD SWAP1 POP SWAP2 SWAP1 POP JUMP JUMPDEST PUSH0 PUSH1 0x20 DUP3 ADD SWAP1 POP DUP2 DUP2 SUB PUSH0 DUP4 ADD MSTORE PUSH2 0x25CC DUP2 PUSH2 0x2593 JUMP JUMPDEST SWAP1 POP SWAP2 SWAP1 POP JUMP JUMPDEST PUSH0 DUP2 SWAP1 POP DUP2 PUSH0 MSTORE PUSH1 0x20 PUSH0 KECCAK256 SWAP1 POP SWAP2 SWAP1 POP JUMP JUMPDEST PUSH0 PUSH1 0x20 PUSH1 0x1F DUP4 ADD DIV SWAP1 POP SWAP2 SWAP1 POP JUMP JUMPDEST PUSH0 DUP3 DUP3 SHL SWAP1 POP SWAP3 SWAP2 POP POP JUMP JUMPDEST PUSH0 PUSH1 0x8 DUP4 MUL PUSH2 0x262F PUSH32 0xFFFFFFFFFFFFFFFFFFFFFFFFFFFFFFFFFFFFFFFFFFFFFFFFFFFFFFFFFFFFFFFF DUP3 PUSH2 0x25F4 JUMP JUMPDEST PUSH2 0x2639 DUP7 DUP4 PUSH2 0x25F4 JUMP JUMPDEST SWAP6 POP DUP1 NOT DUP5 AND SWAP4 POP DUP1 DUP7 AND DUP5 OR SWAP3 POP POP POP SWAP4 SWAP3 POP POP POP JUMP JUMPDEST PUSH0 DUP2 SWAP1 POP SWAP2 SWAP1 POP JUMP JUMPDEST PUSH0 PUSH2 0x2674 PUSH2 0x266F PUSH2 0x266A DUP5 PUSH2 0x1FC7 JUMP JUMPDEST PUSH2 0x2651 JUMP JUMPDEST PUSH2 0x1FC7 JUMP JUMPDEST SWAP1 POP SWAP2 SWAP1 POP JUMP JUMPDEST PUSH0 DUP2 SWAP1 POP SWAP2 SWAP1 POP JUMP JUMPDEST PUSH2 0x268D DUP4 PUSH2 0x265A JUMP JUMPDEST PUSH2 0x26A1 PUSH2 0x2699 DUP3 PUSH2 0x267B JUMP JUMPDEST DUP5 DUP5 SLOAD PUSH2 0x2600 JUMP JUMPDEST DUP3 SSTORE POP POP POP POP JUMP JUMPDEST PUSH0 SWAP1 JUMP JUMPDEST PUSH2 0x26B5 PUSH2 0x26A9 JUMP JUMPDEST PUSH2 0x26C0 DUP2 DUP5 DUP5 PUSH2 0x2684 JUMP JUMPDEST POP POP POP JUMP JUMPDEST JUMPDEST DUP2 DUP2 LT ISZERO PUSH2 0x26E3 JUMPI PUSH2 0x26D8 PUSH0 DUP3 PUSH2 0x26AD JUMP JUMPDEST PUSH1 0x1 DUP2 ADD SWAP1 POP PUSH2 0x26C6 JUMP JUMPDEST POP POP JUMP JUMPDEST PUSH1 0x1F DUP3 GT ISZERO PUSH2 0x2728 JUMPI PUSH2 0x26F9 DUP2 PUSH2 0x25D3 JUMP JUMPDEST PUSH2 0x2702 DUP5 PUSH2 0x25E5 JUMP JUMPDEST DUP2 ADD PUSH1 0x20 DUP6 LT ISZERO PUSH2 0x2711 JUMPI DUP2 SWAP1 POP JUMPDEST PUSH2 0x2725 PUSH2 0x271D DUP6 PUSH2 0x25E5 JUMP JUMPDEST DUP4 ADD DUP3 PUSH2 0x26C5 JUMP JUMPDEST POP POP JUMPDEST POP POP POP JUMP JUMPDEST PUSH0 DUP3 DUP3 SHR SWAP1 POP SWAP3 SWAP2 POP POP JUMP JUMPDEST PUSH0 PUSH2 0x2748 PUSH0 NOT DUP5 PUSH1 0x8 MUL PUSH2 0x272D JUMP JUMPDEST NOT DUP1 DUP4 AND SWAP2 POP POP SWAP3 SWAP2 POP POP JUMP JUMPDEST PUSH0 PUSH2 0x2760 DUP4 DUP4 PUSH2 0x2739 JUMP JUMPDEST SWAP2 POP DUP3 PUSH1 0x2 MUL DUP3 OR SWAP1 POP SWAP3 SWAP2 POP POP JUMP JUMPDEST PUSH2 0x2779 DUP3 PUSH2 0x1E63 JUMP JUMPDEST PUSH8 0xFFFFFFFFFFFFFFFF DUP2 GT ISZERO PUSH2 0x2792 JUMPI PUSH2 0x2791 PUSH2 0x202D JUMP JUMPDEST JUMPDEST PUSH2 0x279C DUP3 SLOAD PUSH2 0x239B JUMP JUMPDEST PUSH2 0x27A7 DUP3 DUP3 DUP6 PUSH2 0x26E7 JUMP JUMPDEST PUSH0 PUSH1 0x20 SWAP1 POP PUSH1 0x1F DUP4 GT PUSH1 0x1 DUP2 EQ PUSH2 0x27D8 JUMPI PUSH0 DUP5 ISZERO PUSH2 0x27C6 JUMPI DUP3 DUP8 ADD MLOAD SWAP1 POP JUMPDEST PUSH2 0x27D0 DUP6 DUP3 PUSH2 0x2755 JUMP JUMPDEST DUP7 SSTORE POP PUSH2 0x2837 JUMP JUMPDEST PUSH1 0x1F NOT DUP5 AND PUSH2 0x27E6 DUP7 PUSH2 0x25D3 JUMP JUMPDEST PUSH0 JUMPDEST DUP3 DUP2 LT ISZERO PUSH2 0x280D JUMPI DUP5 DUP10 ADD MLOAD DUP3 SSTORE PUSH1 0x1 DUP3 ADD SWAP2 POP PUSH1 0x20 DUP6 ADD SWAP5 POP PUSH1 0x20 DUP2 ADD SWAP1 POP PUSH2 0x27E8 JUMP JUMPDEST DUP7 DUP4 LT ISZERO PUSH2 0x282A JUMPI DUP5 DUP10 ADD MLOAD PUSH2 0x2826 PUSH1 0x1F DUP10 AND DUP3 PUSH2 0x2739 JUMP JUMPDEST DUP4 SSTORE POP JUMPDEST PUSH1 0x1 PUSH1 0x2 DUP9 MUL ADD DUP9 SSTORE POP POP POP JUMPDEST POP POP POP POP POP POP JUMP JUMPDEST PUSH0 PUSH1 0x20 DUP3 ADD SWAP1 POP DUP2 DUP2 SUB PUSH0 DUP4 ADD MSTORE PUSH2 0x2857 DUP2 DUP5 PUSH2 0x1EB5 JUMP JUMPDEST SWAP1 POP SWAP3 SWAP2 POP POP JUMP JUMPDEST PUSH32 0x5061757361626C653A2070617573656400000000000000000000000000000000 PUSH0 DUP3 ADD MSTORE POP JUMP JUMPDEST PUSH0 PUSH2 0x2893 PUSH1 0x10 DUP4 PUSH2 0x1E6D JUMP JUMPDEST SWAP2 POP PUSH2 0x289E DUP3 PUSH2 0x285F JUMP JUMPDEST PUSH1 0x20 DUP3 ADD SWAP1 POP SWAP2 SWAP1 POP JUMP JUMPDEST PUSH0 PUSH1 0x20 DUP3 ADD SWAP1 POP DUP2 DUP2 SUB PUSH0 DUP4 ADD MSTORE PUSH2 0x28C0 DUP2 PUSH2 0x2887 JUMP JUMPDEST SWAP1 POP SWAP2 SWAP1 POP JUMP JUMPDEST PUSH32 0x4E487B7100000000000000000000000000000000000000000000000000000000 PUSH0 MSTORE PUSH1 0x32 PUSH1 0x4 MSTORE PUSH1 0x24 PUSH0 REVERT JUMPDEST PUSH32 0x4E487B7100000000000000000000000000000000000000000000000000000000 PUSH0 MSTORE PUSH1 0x11 PUSH1 0x4 MSTORE PUSH1 0x24 PUSH0 REVERT JUMPDEST PUSH0 PUSH2 0x292B DUP3 PUSH2 0x1FC7 JUMP JUMPDEST SWAP2 POP PUSH2 0x2936 DUP4 PUSH2 0x1FC7 JUMP JUMPDEST SWAP3 POP DUP3 DUP3 SUB SWAP1 POP DUP2 DUP2 GT ISZERO PUSH2 0x294E JUMPI PUSH2 0x294D PUSH2 0x28F4 JUMP JUMPDEST JUMPDEST SWAP3 SWAP2 POP POP JUMP JUMPDEST PUSH0 DUP2 SLOAD SWAP1 POP PUSH2 0x2962 DUP2 PUSH2 0x239B JUMP JUMPDEST SWAP1 POP SWAP2 SWAP1 POP JUMP JUMPDEST DUP2 DUP2 SUB PUSH2 0x2977 JUMPI POP POP PUSH2 0x2A4C JUMP JUMPDEST PUSH2 0x2980 DUP3 PUSH2 0x2954 JUMP JUMPDEST PUSH8 0xFFFFFFFFFFFFFFFF DUP2 GT ISZERO PUSH2 0x2999 JUMPI PUSH2 0x2998 PUSH2 0x202D JUMP JUMPDEST JUMPDEST PUSH2 0x29A3 DUP3 SLOAD PUSH2 0x239B JUMP JUMPDEST PUSH2 0x29AE DUP3 DUP3 DUP6 PUSH2 0x26E7 JUMP JUMPDEST PUSH0 PUSH1 0x1F DUP4 GT PUSH1 0x1 DUP2 EQ PUSH2 0x29DB JUMPI PUSH0 DUP5 ISZERO PUSH2 0x29C9 JUMPI DUP3 DUP8 ADD SLOAD SWAP1 POP JUMPDEST PUSH2 0x29D3 DUP6 DUP3 PUSH2 0x2755 JUMP JUMPDEST DUP7 SSTORE POP PUSH2 0x2A45 JUMP JUMPDEST PUSH1 0x1F NOT DUP5 AND PUSH2 0x29E9 DUP8 PUSH2 0x25D3 JUMP JUMPDEST SWAP7 POP PUSH2 0x29F4 DUP7 PUSH2 0x25D3 JUMP JUMPDEST PUSH0 JUMPDEST DUP3 DUP2 LT ISZERO PUSH2 0x2A1B JUMPI DUP5 DUP10 ADD SLOAD DUP3 SSTORE PUSH1 0x1 DUP3 ADD SWAP2 POP PUSH1 0x1 DUP6 ADD SWAP5 POP PUSH1 0x20 DUP2 ADD SWAP1 POP PUSH2 0x29F6 JUMP JUMPDEST DUP7 DUP4 LT ISZERO PUSH2 0x2A38 JUMPI DUP5 DUP10 ADD SLOAD PUSH2 0x2A34 PUSH1 0x1F DUP10 AND DUP3 PUSH2 0x2739 JUMP JUMPDEST DUP4 SSTORE POP JUMPDEST PUSH1 0x1 PUSH1 0x2 DUP9 MUL ADD DUP9 SSTORE POP POP POP JUMPDEST POP POP POP POP POP POP JUMPDEST JUMP JUMPDEST PUSH32 0x4E487B7100000000000000000000000000000000000000000000000000000000 PUSH0 MSTORE PUSH1 0x31 PUSH1 0x4 MSTORE PUSH1 0x24 PUSH0 REVERT JUMPDEST PUSH0 PUSH2 0x2A85 DUP3 PUSH2 0x1FC7 JUMP JUMPDEST SWAP2 POP PUSH32 0xFFFFFFFFFFFFFFFFFFFFFFFFFFFFFFFFFFFFFFFFFFFFFFFFFFFFFFFFFFFFFFFF DUP3 SUB PUSH2 0x2AB7 JUMPI PUSH2 0x2AB6 PUSH2 0x28F4 JUMP JUMPDEST JUMPDEST PUSH1 0x1 DUP3 ADD SWAP1 POP SWAP2 SWAP1 POP JUMP JUMPDEST PUSH0 PUSH1 0x20 DUP3 ADD SWAP1 POP PUSH2 0x2AD5 PUSH0 DUP4 ADD DUP5 PUSH2 0x1E45 JUMP JUMPDEST SWAP3 SWAP2 POP POP JUMP JUMPDEST PUSH0 PUSH1 0x40 DUP3 ADD SWAP1 POP PUSH2 0x2AEE PUSH0 DUP4 ADD DUP6 PUSH2 0x1E45 JUMP JUMPDEST PUSH2 0x2AFB PUSH1 0x20 DUP4 ADD DUP5 PUSH2 0x1E54 JUMP JUMPDEST SWAP4 SWAP3 POP POP POP JUMP JUMPDEST PUSH32 0x5061757361626C653A206E6F7420706175736564000000000000000000000000 PUSH0 DUP3 ADD MSTORE POP JUMP JUMPDEST PUSH0 PUSH2 0x2B36 PUSH1 0x14 DUP4 PUSH2 0x1E6D JUMP JUMPDEST SWAP2 POP PUSH2 0x2B41 DUP3 PUSH2 0x2B02 JUMP JUMPDEST PUSH1 0x20 DUP3 ADD SWAP1 POP SWAP2 SWAP1 POP JUMP JUMPDEST PUSH0 PUSH1 0x20 DUP3 ADD SWAP1 POP DUP2 DUP2 SUB PUSH0 DUP4 ADD MSTORE PUSH2 0x2B63 DUP2 PUSH2 0x2B2A JUMP JUMPDEST SWAP1 POP SWAP2 SWAP1 POP JUMP INVALID LOG2 PUSH5 0x6970667358 0x22 SLT KECCAK256 PUSH4 0xCBB36C12 0xD4 0xE7 DUP7 0x28 LOG0 0xBA 0x5E PUSH13 0xC50094AC3A9329FE62AA6F3679 0xB2 JUMPDEST DUP10 0x2C 0xE8 0x4E PUSH5 0x736F6C6343 STOP ADDMOD EQ STOP CALLER "
				},
				"gasEstimates": {
					"creation": {
						"codeDepositCost": "2233600",
						"executionCost": "infinite",
						"totalCost": "infinite"
					},
					"external": {
						"ADMIN_ROLE()": "348",
						"DEFAULT_ADMIN_ROLE()": "396",
						"GALLERY_OWNER_ROLE()": "392",
						"PAINTER_ROLE()": "370",
						"SPONSOR_ROLE()": "435",
						"WALL_OWNER_ROLE()": "369",
						"approveRoleRequest(address,bytes32)": "infinite",
						"assignRole(address,bytes32)": "infinite",
						"getPendingRequests()": "infinite",
						"getRoleAdmin(bytes32)": "infinite",
						"getRoleRequest(address,bytes32)": "infinite",
						"grantRole(bytes32,address)": "infinite",
						"hasRole(bytes32,address)": "3255",
						"pause()": "infinite",
						"paused()": "2606",
						"pendingRequests(uint256)": "infinite",
						"rejectRoleRequest(address,bytes32)": "infinite",
						"renounceRole(bytes32,address)": "infinite",
						"requestRole(bytes32,string)": "infinite",
						"revokeRole(address,bytes32)": "infinite",
						"revokeRole(bytes32,address)": "infinite",
						"roleRequests(address,bytes32)": "infinite",
						"supportsInterface(bytes4)": "741",
						"unpause()": "infinite"
					},
					"internal": {
						"_removeFromPendingRequests(address,bytes32)": "infinite"
					}
				},
				"methodIdentifiers": {
					"ADMIN_ROLE()": "75b238fc",
					"DEFAULT_ADMIN_ROLE()": "a217fddf",
					"GALLERY_OWNER_ROLE()": "78988ebd",
					"PAINTER_ROLE()": "303e3840",
					"SPONSOR_ROLE()": "c2d79444",
					"WALL_OWNER_ROLE()": "98e4abb5",
					"approveRoleRequest(address,bytes32)": "25df448c",
					"assignRole(address,bytes32)": "1d9486de",
					"getPendingRequests()": "80a1f712",
					"getRoleAdmin(bytes32)": "248a9ca3",
					"getRoleRequest(address,bytes32)": "18097b69",
					"grantRole(bytes32,address)": "2f2ff15d",
					"hasRole(bytes32,address)": "91d14854",
					"pause()": "8456cb59",
					"paused()": "5c975abb",
					"pendingRequests(uint256)": "3c652a9a",
					"rejectRoleRequest(address,bytes32)": "bd605121",
					"renounceRole(bytes32,address)": "36568abe",
					"requestRole(bytes32,string)": "768b01aa",
					"revokeRole(address,bytes32)": "208dd1ff",
					"revokeRole(bytes32,address)": "d547741f",
					"roleRequests(address,bytes32)": "9411ca46",
					"supportsInterface(bytes4)": "01ffc9a7",
					"unpause()": "3f4ba83a"
				}
			},
			"storageLayout": {
				"storage": [
					{
						"astId": 26,
						"contract": "Rolemanager.sol:RoleManager",
						"label": "_roles",
						"offset": 0,
						"slot": "0",
						"type": "t_mapping(t_bytes32,t_struct(RoleData)21_storage)"
					},
					{
						"astId": 396,
						"contract": "Rolemanager.sol:RoleManager",
						"label": "_paused",
						"offset": 0,
						"slot": "1",
						"type": "t_bool"
					},
					{
						"astId": 603,
						"contract": "Rolemanager.sol:RoleManager",
						"label": "roleRequests",
						"offset": 0,
						"slot": "2",
						"type": "t_mapping(t_address,t_mapping(t_bytes32,t_struct(RoleRequest)596_storage))"
					},
					{
						"astId": 607,
						"contract": "Rolemanager.sol:RoleManager",
						"label": "pendingRequests",
						"offset": 0,
						"slot": "3",
						"type": "t_array(t_struct(RoleRequest)596_storage)dyn_storage"
					}
				],
				"types": {
					"t_address": {
						"encoding": "inplace",
						"label": "address",
						"numberOfBytes": "20"
					},
					"t_array(t_struct(RoleRequest)596_storage)dyn_storage": {
						"base": "t_struct(RoleRequest)596_storage",
						"encoding": "dynamic_array",
						"label": "struct RoleManager.RoleRequest[]",
						"numberOfBytes": "32"
					},
					"t_bool": {
						"encoding": "inplace",
						"label": "bool",
						"numberOfBytes": "1"
					},
					"t_bytes32": {
						"encoding": "inplace",
						"label": "bytes32",
						"numberOfBytes": "32"
					},
					"t_mapping(t_address,t_bool)": {
						"encoding": "mapping",
						"key": "t_address",
						"label": "mapping(address => bool)",
						"numberOfBytes": "32",
						"value": "t_bool"
					},
					"t_mapping(t_address,t_mapping(t_bytes32,t_struct(RoleRequest)596_storage))": {
						"encoding": "mapping",
						"key": "t_address",
						"label": "mapping(address => mapping(bytes32 => struct RoleManager.RoleRequest))",
						"numberOfBytes": "32",
						"value": "t_mapping(t_bytes32,t_struct(RoleRequest)596_storage)"
					},
					"t_mapping(t_bytes32,t_struct(RoleData)21_storage)": {
						"encoding": "mapping",
						"key": "t_bytes32",
						"label": "mapping(bytes32 => struct AccessControl.RoleData)",
						"numberOfBytes": "32",
						"value": "t_struct(RoleData)21_storage"
					},
					"t_mapping(t_bytes32,t_struct(RoleRequest)596_storage)": {
						"encoding": "mapping",
						"key": "t_bytes32",
						"label": "mapping(bytes32 => struct RoleManager.RoleRequest)",
						"numberOfBytes": "32",
						"value": "t_struct(RoleRequest)596_storage"
					},
					"t_string_storage": {
						"encoding": "bytes",
						"label": "string",
						"numberOfBytes": "32"
					},
					"t_struct(RoleData)21_storage": {
						"encoding": "inplace",
						"label": "struct AccessControl.RoleData",
						"members": [
							{
								"astId": 18,
								"contract": "Rolemanager.sol:RoleManager",
								"label": "hasRole",
								"offset": 0,
								"slot": "0",
								"type": "t_mapping(t_address,t_bool)"
							},
							{
								"astId": 20,
								"contract": "Rolemanager.sol:RoleManager",
								"label": "adminRole",
								"offset": 0,
								"slot": "1",
								"type": "t_bytes32"
							}
						],
						"numberOfBytes": "64"
					},
					"t_struct(RoleRequest)596_storage": {
						"encoding": "inplace",
						"label": "struct RoleManager.RoleRequest",
						"members": [
							{
								"astId": 587,
								"contract": "Rolemanager.sol:RoleManager",
								"label": "requester",
								"offset": 0,
								"slot": "0",
								"type": "t_address"
							},
							{
								"astId": 589,
								"contract": "Rolemanager.sol:RoleManager",
								"label": "role",
								"offset": 0,
								"slot": "1",
								"type": "t_bytes32"
							},
							{
								"astId": 591,
								"contract": "Rolemanager.sol:RoleManager",
								"label": "reason",
								"offset": 0,
								"slot": "2",
								"type": "t_string_storage"
							},
							{
								"astId": 593,
								"contract": "Rolemanager.sol:RoleManager",
								"label": "pending",
								"offset": 0,
								"slot": "3",
								"type": "t_bool"
							},
							{
								"astId": 595,
								"contract": "Rolemanager.sol:RoleManager",
								"label": "approved",
								"offset": 1,
								"slot": "3",
								"type": "t_bool"
							}
						],
						"numberOfBytes": "128"
					}
				}
			},
			"userdoc": {
				"kind": "user",
				"methods": {},
				"version": 1
			}
		}
	}
}