{
	"Gallery.sol": {
		"Gallery": {
			"abi": [
				{
					"inputs": [
						{
							"internalType": "address",
							"name": "_roleManagerAddress",
							"type": "address"
						},
						{
							"internalType": "address",
							"name": "_wallContractAddress",
							"type": "address"
						}
					],
					"stateMutability": "nonpayable",
					"type": "constructor"
				},
				{
					"anonymous": false,
					"inputs": [
						{
							"indexed": true,
							"internalType": "uint256",
							"name": "galleryId",
							"type": "uint256"
						}
					],
					"name": "GalleryRequestApproved",
					"type": "event"
				},
				{
					"anonymous": false,
					"inputs": [
						{
							"indexed": true,
							"internalType": "uint256",
							"name": "requestId",
							"type": "uint256"
						}
					],
					"name": "GalleryRequestRejected",
					"type": "event"
				},
				{
					"anonymous": false,
					"inputs": [
						{
							"indexed": true,
							"internalType": "uint256",
							"name": "requestId",
							"type": "uint256"
						},
						{
							"indexed": true,
							"internalType": "address",
							"name": "requester",
							"type": "address"
						}
					],
					"name": "GalleryRequested",
					"type": "event"
				},
				{
					"anonymous": false,
					"inputs": [
						{
							"indexed": false,
							"internalType": "address",
							"name": "account",
							"type": "address"
						}
					],
					"name": "Paused",
					"type": "event"
				},
				{
					"anonymous": false,
					"inputs": [
						{
							"indexed": false,
							"internalType": "uint256",
							"name": "newPercentage",
							"type": "uint256"
						}
					],
					"name": "PlatformPercentageUpdated",
					"type": "event"
				},
				{
					"anonymous": false,
					"inputs": [
						{
							"indexed": false,
							"internalType": "address",
							"name": "account",
							"type": "address"
						}
					],
					"name": "Unpaused",
					"type": "event"
				},
				{
					"anonymous": false,
					"inputs": [
						{
							"indexed": true,
							"internalType": "uint256",
							"name": "galleryId",
							"type": "uint256"
						},
						{
							"indexed": true,
							"internalType": "uint256",
							"name": "wallId",
							"type": "uint256"
						}
					],
					"name": "WallRemovedFromGallery",
					"type": "event"
				},
				{
					"anonymous": false,
					"inputs": [
						{
							"indexed": true,
							"internalType": "uint256",
							"name": "galleryId",
							"type": "uint256"
						},
						{
							"indexed": true,
							"internalType": "uint256",
							"name": "wallId",
							"type": "uint256"
						}
					],
					"name": "WallToGalleryRequestApproved",
					"type": "event"
				},
				{
					"anonymous": false,
					"inputs": [
						{
							"indexed": true,
							"internalType": "uint256",
							"name": "galleryId",
							"type": "uint256"
						},
						{
							"indexed": true,
							"internalType": "uint256",
							"name": "wallId",
							"type": "uint256"
						}
					],
					"name": "WallToGalleryRequestRejected",
					"type": "event"
				},
				{
					"anonymous": false,
					"inputs": [
						{
							"indexed": true,
							"internalType": "uint256",
							"name": "galleryId",
							"type": "uint256"
						},
						{
							"indexed": true,
							"internalType": "uint256",
							"name": "wallId",
							"type": "uint256"
						},
						{
							"indexed": true,
							"internalType": "address",
							"name": "wallOwner",
							"type": "address"
						}
					],
					"name": "WallToGalleryRequested",
					"type": "event"
				},
				{
					"inputs": [
						{
							"internalType": "uint256",
							"name": "requestId",
							"type": "uint256"
						}
					],
					"name": "approveGalleryRequest",
					"outputs": [],
					"stateMutability": "nonpayable",
					"type": "function"
				},
				{
					"inputs": [
						{
							"internalType": "uint256",
							"name": "galleryId",
							"type": "uint256"
						},
						{
							"internalType": "uint256",
							"name": "wallId",
							"type": "uint256"
						}
					],
					"name": "approveWallToGallery",
					"outputs": [],
					"stateMutability": "nonpayable",
					"type": "function"
				},
				{
					"inputs": [
						{
							"internalType": "uint256",
							"name": "",
							"type": "uint256"
						}
					],
					"name": "galleries",
					"outputs": [
						{
							"internalType": "uint256",
							"name": "id",
							"type": "uint256"
						},
						{
							"internalType": "string",
							"name": "name",
							"type": "string"
						},
						{
							"internalType": "string",
							"name": "description",
							"type": "string"
						},
						{
							"components": [
								{
									"internalType": "string",
									"name": "city",
									"type": "string"
								},
								{
									"internalType": "string",
									"name": "country",
									"type": "string"
								},
								{
									"internalType": "int256",
									"name": "longitude",
									"type": "int256"
								},
								{
									"internalType": "int256",
									"name": "latitude",
									"type": "int256"
								}
							],
							"internalType": "struct Gallery.Location",
							"name": "location",
							"type": "tuple"
						},
						{
							"internalType": "address",
							"name": "owner",
							"type": "address"
						},
						{
							"internalType": "uint256",
							"name": "ownershipPercentage",
							"type": "uint256"
						},
						{
							"internalType": "bool",
							"name": "isActive",
							"type": "bool"
						},
						{
							"internalType": "uint256",
							"name": "createdAt",
							"type": "uint256"
						},
						{
							"internalType": "uint256",
							"name": "lastUpdated",
							"type": "uint256"
						}
					],
					"stateMutability": "view",
					"type": "function"
				},
				{
					"inputs": [
						{
							"internalType": "uint256",
							"name": "",
							"type": "uint256"
						}
					],
					"name": "galleryRequests",
					"outputs": [
						{
							"internalType": "address",
							"name": "requester",
							"type": "address"
						},
						{
							"internalType": "string",
							"name": "name",
							"type": "string"
						},
						{
							"internalType": "string",
							"name": "description",
							"type": "string"
						},
						{
							"components": [
								{
									"internalType": "string",
									"name": "city",
									"type": "string"
								},
								{
									"internalType": "string",
									"name": "country",
									"type": "string"
								},
								{
									"internalType": "int256",
									"name": "longitude",
									"type": "int256"
								},
								{
									"internalType": "int256",
									"name": "latitude",
									"type": "int256"
								}
							],
							"internalType": "struct Gallery.Location",
							"name": "location",
							"type": "tuple"
						},
						{
							"internalType": "uint256",
							"name": "ownershipPercentage",
							"type": "uint256"
						},
						{
							"internalType": "bool",
							"name": "pending",
							"type": "bool"
						},
						{
							"internalType": "bool",
							"name": "approved",
							"type": "bool"
						}
					],
					"stateMutability": "view",
					"type": "function"
				},
				{
					"inputs": [
						{
							"internalType": "uint256",
							"name": "",
							"type": "uint256"
						},
						{
							"internalType": "uint256",
							"name": "",
							"type": "uint256"
						}
					],
					"name": "galleryWalls",
					"outputs": [
						{
							"internalType": "uint256",
							"name": "",
							"type": "uint256"
						}
					],
					"stateMutability": "view",
					"type": "function"
				},
				{
					"inputs": [
						{
							"internalType": "uint256",
							"name": "galleryId",
							"type": "uint256"
						}
					],
					"name": "getGallery",
					"outputs": [
						{
							"components": [
								{
									"internalType": "uint256",
									"name": "id",
									"type": "uint256"
								},
								{
									"internalType": "string",
									"name": "name",
									"type": "string"
								},
								{
									"internalType": "string",
									"name": "description",
									"type": "string"
								},
								{
									"components": [
										{
											"internalType": "string",
											"name": "city",
											"type": "string"
										},
										{
											"internalType": "string",
											"name": "country",
											"type": "string"
										},
										{
											"internalType": "int256",
											"name": "longitude",
											"type": "int256"
										},
										{
											"internalType": "int256",
											"name": "latitude",
											"type": "int256"
										}
									],
									"internalType": "struct Gallery.Location",
									"name": "location",
									"type": "tuple"
								},
								{
									"internalType": "address",
									"name": "owner",
									"type": "address"
								},
								{
									"internalType": "uint256",
									"name": "ownershipPercentage",
									"type": "uint256"
								},
								{
									"internalType": "bool",
									"name": "isActive",
									"type": "bool"
								},
								{
									"internalType": "uint256",
									"name": "createdAt",
									"type": "uint256"
								},
								{
									"internalType": "uint256",
									"name": "lastUpdated",
									"type": "uint256"
								}
							],
							"internalType": "struct Gallery.GalleryData",
							"name": "",
							"type": "tuple"
						}
					],
					"stateMutability": "view",
					"type": "function"
				},
				{
					"inputs": [
						{
							"internalType": "uint256",
							"name": "galleryId",
							"type": "uint256"
						}
					],
					"name": "getGalleryWalls",
					"outputs": [
						{
							"internalType": "uint256[]",
							"name": "",
							"type": "uint256[]"
						}
					],
					"stateMutability": "view",
					"type": "function"
				},
				{
					"inputs": [],
					"name": "pause",
					"outputs": [],
					"stateMutability": "nonpayable",
					"type": "function"
				},
				{
					"inputs": [],
					"name": "paused",
					"outputs": [
						{
							"internalType": "bool",
							"name": "",
							"type": "bool"
						}
					],
					"stateMutability": "view",
					"type": "function"
				},
				{
					"inputs": [],
					"name": "platformPercentage",
					"outputs": [
						{
							"internalType": "uint256",
							"name": "",
							"type": "uint256"
						}
					],
					"stateMutability": "view",
					"type": "function"
				},
				{
					"inputs": [
						{
							"internalType": "uint256",
							"name": "requestId",
							"type": "uint256"
						}
					],
					"name": "rejectGalleryRequest",
					"outputs": [],
					"stateMutability": "nonpayable",
					"type": "function"
				},
				{
					"inputs": [
						{
							"internalType": "uint256",
							"name": "galleryId",
							"type": "uint256"
						},
						{
							"internalType": "uint256",
							"name": "wallId",
							"type": "uint256"
						}
					],
					"name": "rejectWallToGallery",
					"outputs": [],
					"stateMutability": "nonpayable",
					"type": "function"
				},
				{
					"inputs": [
						{
							"internalType": "uint256",
							"name": "galleryId",
							"type": "uint256"
						},
						{
							"internalType": "uint256",
							"name": "wallId",
							"type": "uint256"
						}
					],
					"name": "removeWallFromGallery",
					"outputs": [],
					"stateMutability": "nonpayable",
					"type": "function"
				},
				{
					"inputs": [
						{
							"components": [
								{
									"internalType": "string",
									"name": "name",
									"type": "string"
								},
								{
									"internalType": "string",
									"name": "description",
									"type": "string"
								},
								{
									"internalType": "string",
									"name": "city",
									"type": "string"
								},
								{
									"internalType": "string",
									"name": "country",
									"type": "string"
								},
								{
									"internalType": "int256",
									"name": "longitude",
									"type": "int256"
								},
								{
									"internalType": "int256",
									"name": "latitude",
									"type": "int256"
								},
								{
									"internalType": "uint256",
									"name": "ownershipPercentage",
									"type": "uint256"
								}
							],
							"internalType": "struct Gallery.GalleryCreationParams",
							"name": "params",
							"type": "tuple"
						}
					],
					"name": "requestGallery",
					"outputs": [],
					"stateMutability": "nonpayable",
					"type": "function"
				},
				{
					"inputs": [
						{
							"internalType": "uint256",
							"name": "galleryId",
							"type": "uint256"
						},
						{
							"internalType": "uint256",
							"name": "wallId",
							"type": "uint256"
						}
					],
					"name": "requestWallToGallery",
					"outputs": [],
					"stateMutability": "nonpayable",
					"type": "function"
				},
				{
					"inputs": [],
					"name": "roleManager",
					"outputs": [
						{
							"internalType": "contract IRoleManager",
							"name": "",
							"type": "address"
						}
					],
					"stateMutability": "view",
					"type": "function"
				},
				{
					"inputs": [
						{
							"internalType": "uint256",
							"name": "_percentage",
							"type": "uint256"
						}
					],
					"name": "setPlatformPercentage",
					"outputs": [],
					"stateMutability": "nonpayable",
					"type": "function"
				},
				{
					"inputs": [],
					"name": "unpause",
					"outputs": [],
					"stateMutability": "nonpayable",
					"type": "function"
				},
				{
					"inputs": [],
					"name": "wallContract",
					"outputs": [
						{
							"internalType": "contract IWall",
							"name": "",
							"type": "address"
						}
					],
					"stateMutability": "view",
					"type": "function"
				},
				{
					"inputs": [
						{
							"internalType": "uint256",
							"name": "",
							"type": "uint256"
						},
						{
							"internalType": "uint256",
							"name": "",
							"type": "uint256"
						}
					],
					"name": "wallToGalleryRequests",
					"outputs": [
						{
							"internalType": "uint256",
							"name": "wallId",
							"type": "uint256"
						},
						{
							"internalType": "address",
							"name": "wallOwner",
							"type": "address"
						},
						{
							"internalType": "uint256",
							"name": "wallOwnerPercentage",
							"type": "uint256"
						},
						{
							"internalType": "bool",
							"name": "pending",
							"type": "bool"
						},
						{
							"internalType": "bool",
							"name": "approved",
							"type": "bool"
						}
					],
					"stateMutability": "view",
					"type": "function"
				}
			],
			"devdoc": {
				"events": {
					"Paused(address)": {
						"details": "Emitted when the pause is triggered by `account`."
					},
					"Unpaused(address)": {
						"details": "Emitted when the pause is lifted by `account`."
					}
				},
				"kind": "dev",
				"methods": {
					"paused()": {
						"details": "Returns true if the contract is paused, and false otherwise."
					}
				},
				"version": 1
			},
			"evm": {
				"assembly": "    /* \"Gallery.sol\":826:10444  contract Gallery is Pausable {... */\n  mstore(0x40, 0x80)\n    /* \"Gallery.sol\":3081:3475  constructor(address _roleManagerAddress, address _wallContractAddress) {... */\n  callvalue\n  dup1\n  iszero\n  tag_1\n  jumpi\n  0x00\n  dup1\n  revert\ntag_1:\n  pop\n  mload(0x40)\n  sub(codesize, bytecodeSize)\n  dup1\n  bytecodeSize\n  dup4\n  codecopy\n  dup2\n  dup2\n  add\n  0x40\n  mstore\n  dup2\n  add\n  swap1\n  tag_2\n  swap2\n  swap1\n  tag_3\n  jump\t// in\ntag_2:\n    /* \"@openzeppelin/contracts/security/Pausable.sol\":1006:1011  false */\n  0x00\n    /* \"@openzeppelin/contracts/security/Pausable.sol\":996:1003  _paused */\n  dup1\n  0x00\n    /* \"@openzeppelin/contracts/security/Pausable.sol\":996:1011  _paused = false */\n  0x0100\n  exp\n  dup2\n  sload\n  dup2\n  0xff\n  mul\n  not\n  and\n  swap1\n  dup4\n  iszero\n  iszero\n  mul\n  or\n  swap1\n  sstore\n  pop\n    /* \"Gallery.sol\":3202:3203  0 */\n  0x00\n    /* \"Gallery.sol\":3171:3204  _roleManagerAddress != address(0) */\n  0xffffffffffffffffffffffffffffffffffffffff\n  and\n    /* \"Gallery.sol\":3171:3190  _roleManagerAddress */\n  dup3\n    /* \"Gallery.sol\":3171:3204  _roleManagerAddress != address(0) */\n  0xffffffffffffffffffffffffffffffffffffffff\n  and\n  sub\n    /* \"Gallery.sol\":3163:3236  require(_roleManagerAddress != address(0), \"Invalid RoleManager address\") */\n  tag_8\n  jumpi\n  mload(0x40)\n  0x08c379a000000000000000000000000000000000000000000000000000000000\n  dup2\n  mstore\n  0x04\n  add\n  tag_9\n  swap1\n  tag_10\n  jump\t// in\ntag_9:\n  mload(0x40)\n  dup1\n  swap2\n  sub\n  swap1\n  revert\ntag_8:\n    /* \"Gallery.sol\":3287:3288  0 */\n  0x00\n    /* \"Gallery.sol\":3255:3289  _wallContractAddress != address(0) */\n  0xffffffffffffffffffffffffffffffffffffffff\n  and\n    /* \"Gallery.sol\":3255:3275  _wallContractAddress */\n  dup2\n    /* \"Gallery.sol\":3255:3289  _wallContractAddress != address(0) */\n  0xffffffffffffffffffffffffffffffffffffffff\n  and\n  sub\n    /* \"Gallery.sol\":3247:3323  require(_wallContractAddress != address(0), \"Invalid Wall contract address\") */\n  tag_11\n  jumpi\n  mload(0x40)\n  0x08c379a000000000000000000000000000000000000000000000000000000000\n  dup2\n  mstore\n  0x04\n  add\n  tag_12\n  swap1\n  tag_13\n  jump\t// in\ntag_12:\n  mload(0x40)\n  dup1\n  swap2\n  sub\n  swap1\n  revert\ntag_11:\n    /* \"Gallery.sol\":3361:3380  _roleManagerAddress */\n  dup2\n    /* \"Gallery.sol\":3334:3345  roleManager */\n  0x00\n  0x01\n    /* \"Gallery.sol\":3334:3381  roleManager = IRoleManager(_roleManagerAddress) */\n  0x0100\n  exp\n  dup2\n  sload\n  dup2\n  0xffffffffffffffffffffffffffffffffffffffff\n  mul\n  not\n  and\n  swap1\n  dup4\n  0xffffffffffffffffffffffffffffffffffffffff\n  and\n  mul\n  or\n  swap1\n  sstore\n  pop\n    /* \"Gallery.sol\":3413:3433  _wallContractAddress */\n  dup1\n    /* \"Gallery.sol\":3392:3404  wallContract */\n  0x01\n  0x00\n    /* \"Gallery.sol\":3392:3434  wallContract = IWall(_wallContractAddress) */\n  0x0100\n  exp\n  dup2\n  sload\n  dup2\n  0xffffffffffffffffffffffffffffffffffffffff\n  mul\n  not\n  and\n  swap1\n  dup4\n  0xffffffffffffffffffffffffffffffffffffffff\n  and\n  mul\n  or\n  swap1\n  sstore\n  pop\n    /* \"Gallery.sol\":3466:3467  0 */\n  0x00\n    /* \"Gallery.sol\":3445:3463  platformPercentage */\n  0x03\n    /* \"Gallery.sol\":3445:3467  platformPercentage = 0 */\n  dup2\n  swap1\n  sstore\n  pop\n    /* \"Gallery.sol\":3081:3475  constructor(address _roleManagerAddress, address _wallContractAddress) {... */\n  pop\n  pop\n    /* \"Gallery.sol\":826:10444  contract Gallery is Pausable {... */\n  jump(tag_14)\n    /* \"#utility.yul\":88:205   */\ntag_16:\n    /* \"#utility.yul\":197:198   */\n  0x00\n    /* \"#utility.yul\":194:195   */\n  dup1\n    /* \"#utility.yul\":187:199   */\n  revert\n    /* \"#utility.yul\":334:460   */\ntag_18:\n    /* \"#utility.yul\":371:378   */\n  0x00\n    /* \"#utility.yul\":411:453   */\n  0xffffffffffffffffffffffffffffffffffffffff\n    /* \"#utility.yul\":404:409   */\n  dup3\n    /* \"#utility.yul\":400:454   */\n  and\n    /* \"#utility.yul\":389:454   */\n  swap1\n  pop\n    /* \"#utility.yul\":334:460   */\n  swap2\n  swap1\n  pop\n  jump\t// out\n    /* \"#utility.yul\":466:562   */\ntag_19:\n    /* \"#utility.yul\":503:510   */\n  0x00\n    /* \"#utility.yul\":532:556   */\n  tag_33\n    /* \"#utility.yul\":550:555   */\n  dup3\n    /* \"#utility.yul\":532:556   */\n  tag_18\n  jump\t// in\ntag_33:\n    /* \"#utility.yul\":521:556   */\n  swap1\n  pop\n    /* \"#utility.yul\":466:562   */\n  swap2\n  swap1\n  pop\n  jump\t// out\n    /* \"#utility.yul\":568:690   */\ntag_20:\n    /* \"#utility.yul\":641:665   */\n  tag_35\n    /* \"#utility.yul\":659:664   */\n  dup2\n    /* \"#utility.yul\":641:665   */\n  tag_19\n  jump\t// in\ntag_35:\n    /* \"#utility.yul\":634:639   */\n  dup2\n    /* \"#utility.yul\":631:666   */\n  eq\n    /* \"#utility.yul\":621:684   */\n  tag_36\n  jumpi\n    /* \"#utility.yul\":680:681   */\n  0x00\n    /* \"#utility.yul\":677:678   */\n  dup1\n    /* \"#utility.yul\":670:682   */\n  revert\n    /* \"#utility.yul\":621:684   */\ntag_36:\n    /* \"#utility.yul\":568:690   */\n  pop\n  jump\t// out\n    /* \"#utility.yul\":696:839   */\ntag_21:\n    /* \"#utility.yul\":753:758   */\n  0x00\n    /* \"#utility.yul\":784:790   */\n  dup2\n    /* \"#utility.yul\":778:791   */\n  mload\n    /* \"#utility.yul\":769:791   */\n  swap1\n  pop\n    /* \"#utility.yul\":800:833   */\n  tag_38\n    /* \"#utility.yul\":827:832   */\n  dup2\n    /* \"#utility.yul\":800:833   */\n  tag_20\n  jump\t// in\ntag_38:\n    /* \"#utility.yul\":696:839   */\n  swap3\n  swap2\n  pop\n  pop\n  jump\t// out\n    /* \"#utility.yul\":845:1352   */\ntag_3:\n    /* \"#utility.yul\":924:930   */\n  0x00\n    /* \"#utility.yul\":932:938   */\n  dup1\n    /* \"#utility.yul\":981:983   */\n  0x40\n    /* \"#utility.yul\":969:978   */\n  dup4\n    /* \"#utility.yul\":960:967   */\n  dup6\n    /* \"#utility.yul\":956:979   */\n  sub\n    /* \"#utility.yul\":952:984   */\n  slt\n    /* \"#utility.yul\":949:1068   */\n  iszero\n  tag_40\n  jumpi\n    /* \"#utility.yul\":987:1066   */\n  tag_41\n  tag_16\n  jump\t// in\ntag_41:\n    /* \"#utility.yul\":949:1068   */\ntag_40:\n    /* \"#utility.yul\":1107:1108   */\n  0x00\n    /* \"#utility.yul\":1132:1196   */\n  tag_42\n    /* \"#utility.yul\":1188:1195   */\n  dup6\n    /* \"#utility.yul\":1179:1185   */\n  dup3\n    /* \"#utility.yul\":1168:1177   */\n  dup7\n    /* \"#utility.yul\":1164:1186   */\n  add\n    /* \"#utility.yul\":1132:1196   */\n  tag_21\n  jump\t// in\ntag_42:\n    /* \"#utility.yul\":1122:1196   */\n  swap3\n  pop\n    /* \"#utility.yul\":1078:1206   */\n  pop\n    /* \"#utility.yul\":1245:1247   */\n  0x20\n    /* \"#utility.yul\":1271:1335   */\n  tag_43\n    /* \"#utility.yul\":1327:1334   */\n  dup6\n    /* \"#utility.yul\":1318:1324   */\n  dup3\n    /* \"#utility.yul\":1307:1316   */\n  dup7\n    /* \"#utility.yul\":1303:1325   */\n  add\n    /* \"#utility.yul\":1271:1335   */\n  tag_21\n  jump\t// in\ntag_43:\n    /* \"#utility.yul\":1261:1335   */\n  swap2\n  pop\n    /* \"#utility.yul\":1216:1345   */\n  pop\n    /* \"#utility.yul\":845:1352   */\n  swap3\n  pop\n  swap3\n  swap1\n  pop\n  jump\t// out\n    /* \"#utility.yul\":1358:1527   */\ntag_22:\n    /* \"#utility.yul\":1442:1453   */\n  0x00\n    /* \"#utility.yul\":1476:1482   */\n  dup3\n    /* \"#utility.yul\":1471:1474   */\n  dup3\n    /* \"#utility.yul\":1464:1483   */\n  mstore\n    /* \"#utility.yul\":1516:1520   */\n  0x20\n    /* \"#utility.yul\":1511:1514   */\n  dup3\n    /* \"#utility.yul\":1507:1521   */\n  add\n    /* \"#utility.yul\":1492:1521   */\n  swap1\n  pop\n    /* \"#utility.yul\":1358:1527   */\n  swap3\n  swap2\n  pop\n  pop\n  jump\t// out\n    /* \"#utility.yul\":1533:1710   */\ntag_23:\n    /* \"#utility.yul\":1673:1702   */\n  0x496e76616c696420526f6c654d616e6167657220616464726573730000000000\n    /* \"#utility.yul\":1669:1670   */\n  0x00\n    /* \"#utility.yul\":1661:1667   */\n  dup3\n    /* \"#utility.yul\":1657:1671   */\n  add\n    /* \"#utility.yul\":1650:1703   */\n  mstore\n    /* \"#utility.yul\":1533:1710   */\n  pop\n  jump\t// out\n    /* \"#utility.yul\":1716:2082   */\ntag_24:\n    /* \"#utility.yul\":1858:1861   */\n  0x00\n    /* \"#utility.yul\":1879:1946   */\n  tag_47\n    /* \"#utility.yul\":1943:1945   */\n  0x1b\n    /* \"#utility.yul\":1938:1941   */\n  dup4\n    /* \"#utility.yul\":1879:1946   */\n  tag_22\n  jump\t// in\ntag_47:\n    /* \"#utility.yul\":1872:1946   */\n  swap2\n  pop\n    /* \"#utility.yul\":1955:2048   */\n  tag_48\n    /* \"#utility.yul\":2044:2047   */\n  dup3\n    /* \"#utility.yul\":1955:2048   */\n  tag_23\n  jump\t// in\ntag_48:\n    /* \"#utility.yul\":2073:2075   */\n  0x20\n    /* \"#utility.yul\":2068:2071   */\n  dup3\n    /* \"#utility.yul\":2064:2076   */\n  add\n    /* \"#utility.yul\":2057:2076   */\n  swap1\n  pop\n    /* \"#utility.yul\":1716:2082   */\n  swap2\n  swap1\n  pop\n  jump\t// out\n    /* \"#utility.yul\":2088:2507   */\ntag_10:\n    /* \"#utility.yul\":2254:2258   */\n  0x00\n    /* \"#utility.yul\":2292:2294   */\n  0x20\n    /* \"#utility.yul\":2281:2290   */\n  dup3\n    /* \"#utility.yul\":2277:2295   */\n  add\n    /* \"#utility.yul\":2269:2295   */\n  swap1\n  pop\n    /* \"#utility.yul\":2341:2350   */\n  dup2\n    /* \"#utility.yul\":2335:2339   */\n  dup2\n    /* \"#utility.yul\":2331:2351   */\n  sub\n    /* \"#utility.yul\":2327:2328   */\n  0x00\n    /* \"#utility.yul\":2316:2325   */\n  dup4\n    /* \"#utility.yul\":2312:2329   */\n  add\n    /* \"#utility.yul\":2305:2352   */\n  mstore\n    /* \"#utility.yul\":2369:2500   */\n  tag_50\n    /* \"#utility.yul\":2495:2499   */\n  dup2\n    /* \"#utility.yul\":2369:2500   */\n  tag_24\n  jump\t// in\ntag_50:\n    /* \"#utility.yul\":2361:2500   */\n  swap1\n  pop\n    /* \"#utility.yul\":2088:2507   */\n  swap2\n  swap1\n  pop\n  jump\t// out\n    /* \"#utility.yul\":2513:2692   */\ntag_25:\n    /* \"#utility.yul\":2653:2684   */\n  0x496e76616c69642057616c6c20636f6e74726163742061646472657373000000\n    /* \"#utility.yul\":2649:2650   */\n  0x00\n    /* \"#utility.yul\":2641:2647   */\n  dup3\n    /* \"#utility.yul\":2637:2651   */\n  add\n    /* \"#utility.yul\":2630:2685   */\n  mstore\n    /* \"#utility.yul\":2513:2692   */\n  pop\n  jump\t// out\n    /* \"#utility.yul\":2698:3064   */\ntag_26:\n    /* \"#utility.yul\":2840:2843   */\n  0x00\n    /* \"#utility.yul\":2861:2928   */\n  tag_53\n    /* \"#utility.yul\":2925:2927   */\n  0x1d\n    /* \"#utility.yul\":2920:2923   */\n  dup4\n    /* \"#utility.yul\":2861:2928   */\n  tag_22\n  jump\t// in\ntag_53:\n    /* \"#utility.yul\":2854:2928   */\n  swap2\n  pop\n    /* \"#utility.yul\":2937:3030   */\n  tag_54\n    /* \"#utility.yul\":3026:3029   */\n  dup3\n    /* \"#utility.yul\":2937:3030   */\n  tag_25\n  jump\t// in\ntag_54:\n    /* \"#utility.yul\":3055:3057   */\n  0x20\n    /* \"#utility.yul\":3050:3053   */\n  dup3\n    /* \"#utility.yul\":3046:3058   */\n  add\n    /* \"#utility.yul\":3039:3058   */\n  swap1\n  pop\n    /* \"#utility.yul\":2698:3064   */\n  swap2\n  swap1\n  pop\n  jump\t// out\n    /* \"#utility.yul\":3070:3489   */\ntag_13:\n    /* \"#utility.yul\":3236:3240   */\n  0x00\n    /* \"#utility.yul\":3274:3276   */\n  0x20\n    /* \"#utility.yul\":3263:3272   */\n  dup3\n    /* \"#utility.yul\":3259:3277   */\n  add\n    /* \"#utility.yul\":3251:3277   */\n  swap1\n  pop\n    /* \"#utility.yul\":3323:3332   */\n  dup2\n    /* \"#utility.yul\":3317:3321   */\n  dup2\n    /* \"#utility.yul\":3313:3333   */\n  sub\n    /* \"#utility.yul\":3309:3310   */\n  0x00\n    /* \"#utility.yul\":3298:3307   */\n  dup4\n    /* \"#utility.yul\":3294:3311   */\n  add\n    /* \"#utility.yul\":3287:3334   */\n  mstore\n    /* \"#utility.yul\":3351:3482   */\n  tag_56\n    /* \"#utility.yul\":3477:3481   */\n  dup2\n    /* \"#utility.yul\":3351:3482   */\n  tag_26\n  jump\t// in\ntag_56:\n    /* \"#utility.yul\":3343:3482   */\n  swap1\n  pop\n    /* \"#utility.yul\":3070:3489   */\n  swap2\n  swap1\n  pop\n  jump\t// out\n    /* \"Gallery.sol\":826:10444  contract Gallery is Pausable {... */\ntag_14:\n  dataSize(sub_0)\n  dup1\n  dataOffset(sub_0)\n  0x00\n  codecopy\n  0x00\n  return\nstop\n\nsub_0: assembly {\n        /* \"Gallery.sol\":826:10444  contract Gallery is Pausable {... */\n      mstore(0x40, 0x80)\n      callvalue\n      dup1\n      iszero\n      tag_1\n      jumpi\n      0x00\n      dup1\n      revert\n    tag_1:\n      pop\n      jumpi(tag_2, lt(calldatasize, 0x04))\n      shr(0xe0, calldataload(0x00))\n      dup1\n      0x9eb99f55\n      gt\n      tag_23\n      jumpi\n      dup1\n      0xd328ec70\n      gt\n      tag_24\n      jumpi\n      dup1\n      0xd328ec70\n      eq\n      tag_18\n      jumpi\n      dup1\n      0xe3fbf314\n      eq\n      tag_19\n      jumpi\n      dup1\n      0xeaf4cc75\n      eq\n      tag_20\n      jumpi\n      dup1\n      0xf0c87bc7\n      eq\n      tag_21\n      jumpi\n      dup1\n      0xf685d28f\n      eq\n      tag_22\n      jumpi\n      jump(tag_2)\n    tag_24:\n      dup1\n      0x9eb99f55\n      eq\n      tag_13\n      jumpi\n      dup1\n      0xaad53a84\n      eq\n      tag_14\n      jumpi\n      dup1\n      0xab44ac83\n      eq\n      tag_15\n      jumpi\n      dup1\n      0xc705bc18\n      eq\n      tag_16\n      jumpi\n      dup1\n      0xcc88600b\n      eq\n      tag_17\n      jumpi\n      jump(tag_2)\n    tag_23:\n      dup1\n      0x3f4ba83a\n      gt\n      tag_25\n      jumpi\n      dup1\n      0x3f4ba83a\n      eq\n      tag_8\n      jumpi\n      dup1\n      0x489b920f\n      eq\n      tag_9\n      jumpi\n      dup1\n      0x5c975abb\n      eq\n      tag_10\n      jumpi\n      dup1\n      0x641a9350\n      eq\n      tag_11\n      jumpi\n      dup1\n      0x8456cb59\n      eq\n      tag_12\n      jumpi\n      jump(tag_2)\n    tag_25:\n      dup1\n      0x435da5\n      eq\n      tag_3\n      jumpi\n      dup1\n      0x01640ca4\n      eq\n      tag_4\n      jumpi\n      dup1\n      0x14d39bad\n      eq\n      tag_5\n      jumpi\n      dup1\n      0x1f741897\n      eq\n      tag_6\n      jumpi\n      dup1\n      0x300d20a1\n      eq\n      tag_7\n      jumpi\n    tag_2:\n      0x00\n      dup1\n      revert\n        /* \"Gallery.sol\":910:941  IRoleManager public roleManager */\n    tag_3:\n      tag_26\n      tag_27\n      jump\t// in\n    tag_26:\n      mload(0x40)\n      tag_28\n      swap2\n      swap1\n      tag_29\n      jump\t// in\n    tag_28:\n      mload(0x40)\n      dup1\n      swap2\n      sub\n      swap1\n      return\n        /* \"Gallery.sol\":2140:2188  mapping(uint256 => GalleryData) public galleries */\n    tag_4:\n      tag_30\n      0x04\n      dup1\n      calldatasize\n      sub\n      dup2\n      add\n      swap1\n      tag_31\n      swap2\n      swap1\n      tag_32\n      jump\t// in\n    tag_31:\n      tag_33\n      jump\t// in\n    tag_30:\n      mload(0x40)\n      tag_34\n      swap10\n      swap9\n      swap8\n      swap7\n      swap6\n      swap5\n      swap4\n      swap3\n      swap2\n      swap1\n      tag_35\n      jump\t// in\n    tag_34:\n      mload(0x40)\n      dup1\n      swap2\n      sub\n      swap1\n      return\n        /* \"Gallery.sol\":3958:4194  function setPlatformPercentage(uint256 _percentage) external onlyAdmin {... */\n    tag_5:\n      tag_36\n      0x04\n      dup1\n      calldatasize\n      sub\n      dup2\n      add\n      swap1\n      tag_37\n      swap2\n      swap1\n      tag_32\n      jump\t// in\n    tag_37:\n      tag_38\n      jump\t// in\n    tag_36:\n      stop\n        /* \"Gallery.sol\":1025:1058  uint256 public platformPercentage */\n    tag_6:\n      tag_39\n      tag_40\n      jump\t// in\n    tag_39:\n      mload(0x40)\n      tag_41\n      swap2\n      swap1\n      tag_42\n      jump\t// in\n    tag_41:\n      mload(0x40)\n      dup1\n      swap2\n      sub\n      swap1\n      return\n        /* \"Gallery.sol\":2259:2348  mapping(uint256 => mapping(uint256 => WallToGalleryRequest)) public wallToGalleryRequests */\n    tag_7:\n      tag_43\n      0x04\n      dup1\n      calldatasize\n      sub\n      dup2\n      add\n      swap1\n      tag_44\n      swap2\n      swap1\n      tag_45\n      jump\t// in\n    tag_44:\n      tag_46\n      jump\t// in\n    tag_43:\n      mload(0x40)\n      tag_47\n      swap6\n      swap5\n      swap4\n      swap3\n      swap2\n      swap1\n      tag_48\n      jump\t// in\n    tag_47:\n      mload(0x40)\n      dup1\n      swap2\n      sub\n      swap1\n      return\n        /* \"Gallery.sol\":10374:10441  function unpause() external onlyAdmin {... */\n    tag_8:\n      tag_49\n      tag_50\n      jump\t// in\n    tag_49:\n      stop\n        /* \"Gallery.sol\":8568:9011  function rejectWallToGallery(uint256 galleryId, uint256 wallId) ... */\n    tag_9:\n      tag_51\n      0x04\n      dup1\n      calldatasize\n      sub\n      dup2\n      add\n      swap1\n      tag_52\n      swap2\n      swap1\n      tag_45\n      jump\t// in\n    tag_52:\n      tag_53\n      jump\t// in\n    tag_51:\n      stop\n        /* \"@openzeppelin/contracts/security/Pausable.sol\":1615:1699  function paused() public view virtual returns (bool) {... */\n    tag_10:\n      tag_54\n      tag_55\n      jump\t// in\n    tag_54:\n      mload(0x40)\n      tag_56\n      swap2\n      swap1\n      tag_57\n      jump\t// in\n    tag_56:\n      mload(0x40)\n      dup1\n      swap2\n      sub\n      swap1\n      return\n        /* \"Gallery.sol\":9019:9478  function removeWallFromGallery(uint256 galleryId, uint256 wallId) ... */\n    tag_11:\n      tag_58\n      0x04\n      dup1\n      calldatasize\n      sub\n      dup2\n      add\n      swap1\n      tag_59\n      swap2\n      swap1\n      tag_45\n      jump\t// in\n    tag_59:\n      tag_60\n      jump\t// in\n    tag_58:\n      stop\n        /* \"Gallery.sol\":10303:10366  function pause() external onlyAdmin {... */\n    tag_12:\n      tag_61\n      tag_62\n      jump\t// in\n    tag_61:\n      stop\n        /* \"Gallery.sol\":2355:2404  mapping(uint256 => uint256[]) public galleryWalls */\n    tag_13:\n      tag_63\n      0x04\n      dup1\n      calldatasize\n      sub\n      dup2\n      add\n      swap1\n      tag_64\n      swap2\n      swap1\n      tag_45\n      jump\t// in\n    tag_64:\n      tag_65\n      jump\t// in\n    tag_63:\n      mload(0x40)\n      tag_66\n      swap2\n      swap1\n      tag_42\n      jump\t// in\n    tag_66:\n      mload(0x40)\n      dup1\n      swap2\n      sub\n      swap1\n      return\n        /* \"Gallery.sol\":948:973  IWall public wallContract */\n    tag_14:\n      tag_67\n      tag_68\n      jump\t// in\n    tag_67:\n      mload(0x40)\n      tag_69\n      swap2\n      swap1\n      tag_70\n      jump\t// in\n    tag_69:\n      mload(0x40)\n      dup1\n      swap2\n      sub\n      swap1\n      return\n        /* \"Gallery.sol\":6570:7836  function requestWallToGallery(uint256 galleryId, uint256 wallId) external whenNotPaused {... */\n    tag_15:\n      tag_71\n      0x04\n      dup1\n      calldatasize\n      sub\n      dup2\n      add\n      swap1\n      tag_72\n      swap2\n      swap1\n      tag_45\n      jump\t// in\n    tag_72:\n      tag_73\n      jump\t// in\n    tag_71:\n      stop\n        /* \"Gallery.sol\":10090:10295  function getGalleryWalls(uint256 galleryId) external view returns (uint256[] memory) {... */\n    tag_16:\n      tag_74\n      0x04\n      dup1\n      calldatasize\n      sub\n      dup2\n      add\n      swap1\n      tag_75\n      swap2\n      swap1\n      tag_32\n      jump\t// in\n    tag_75:\n      tag_76\n      jump\t// in\n    tag_74:\n      mload(0x40)\n      tag_77\n      swap2\n      swap1\n      tag_78\n      jump\t// in\n    tag_77:\n      mload(0x40)\n      dup1\n      swap2\n      sub\n      swap1\n      return\n        /* \"Gallery.sol\":6222:6562  function rejectGalleryRequest(uint256 requestId) external onlyAdmin whenNotPaused {... */\n    tag_17:\n      tag_79\n      0x04\n      dup1\n      calldatasize\n      sub\n      dup2\n      add\n      swap1\n      tag_80\n      swap2\n      swap1\n      tag_32\n      jump\t// in\n    tag_80:\n      tag_81\n      jump\t// in\n    tag_79:\n      stop\n        /* \"Gallery.sol\":4202:5286  function requestGallery(GalleryCreationParams calldata params) external whenNotPaused {... */\n    tag_18:\n      tag_82\n      0x04\n      dup1\n      calldatasize\n      sub\n      dup2\n      add\n      swap1\n      tag_83\n      swap2\n      swap1\n      tag_84\n      jump\t// in\n    tag_83:\n      tag_85\n      jump\t// in\n    tag_82:\n      stop\n        /* \"Gallery.sol\":9883:10082  function getGallery(uint256 galleryId) external view returns (GalleryData memory) {... */\n    tag_19:\n      tag_86\n      0x04\n      dup1\n      calldatasize\n      sub\n      dup2\n      add\n      swap1\n      tag_87\n      swap2\n      swap1\n      tag_32\n      jump\t// in\n    tag_87:\n      tag_88\n      jump\t// in\n    tag_86:\n      mload(0x40)\n      tag_89\n      swap2\n      swap1\n      tag_90\n      jump\t// in\n    tag_89:\n      mload(0x40)\n      dup1\n      swap2\n      sub\n      swap1\n      return\n        /* \"Gallery.sol\":2195:2252  mapping(uint256 => GalleryRequest) public galleryRequests */\n    tag_20:\n      tag_91\n      0x04\n      dup1\n      calldatasize\n      sub\n      dup2\n      add\n      swap1\n      tag_92\n      swap2\n      swap1\n      tag_32\n      jump\t// in\n    tag_92:\n      tag_93\n      jump\t// in\n    tag_91:\n      mload(0x40)\n      tag_94\n      swap8\n      swap7\n      swap6\n      swap5\n      swap4\n      swap3\n      swap2\n      swap1\n      tag_95\n      jump\t// in\n    tag_94:\n      mload(0x40)\n      dup1\n      swap2\n      sub\n      swap1\n      return\n        /* \"Gallery.sol\":5294:6214  function approveGalleryRequest(uint256 requestId) external onlyAdmin whenNotPaused {... */\n    tag_21:\n      tag_96\n      0x04\n      dup1\n      calldatasize\n      sub\n      dup2\n      add\n      swap1\n      tag_97\n      swap2\n      swap1\n      tag_32\n      jump\t// in\n    tag_97:\n      tag_98\n      jump\t// in\n    tag_96:\n      stop\n        /* \"Gallery.sol\":7844:8560  function approveWallToGallery(uint256 galleryId, uint256 wallId) ... */\n    tag_22:\n      tag_99\n      0x04\n      dup1\n      calldatasize\n      sub\n      dup2\n      add\n      swap1\n      tag_100\n      swap2\n      swap1\n      tag_45\n      jump\t// in\n    tag_100:\n      tag_101\n      jump\t// in\n    tag_99:\n      stop\n        /* \"Gallery.sol\":910:941  IRoleManager public roleManager */\n    tag_27:\n      0x00\n      0x01\n      swap1\n      sload\n      swap1\n      0x0100\n      exp\n      swap1\n      div\n      0xffffffffffffffffffffffffffffffffffffffff\n      and\n      dup2\n      jump\t// out\n        /* \"Gallery.sol\":2140:2188  mapping(uint256 => GalleryData) public galleries */\n    tag_33:\n      mstore(0x20, 0x04)\n      dup1\n      0x00\n      mstore\n      keccak256(0x00, 0x40)\n      0x00\n      swap2\n      pop\n      swap1\n      pop\n      dup1\n      0x00\n      add\n      sload\n      swap1\n      dup1\n      0x01\n      add\n      dup1\n      sload\n      tag_102\n      swap1\n      tag_103\n      jump\t// in\n    tag_102:\n      dup1\n      0x1f\n      add\n      0x20\n      dup1\n      swap2\n      div\n      mul\n      0x20\n      add\n      mload(0x40)\n      swap1\n      dup2\n      add\n      0x40\n      mstore\n      dup1\n      swap3\n      swap2\n      swap1\n      dup2\n      dup2\n      mstore\n      0x20\n      add\n      dup3\n      dup1\n      sload\n      tag_104\n      swap1\n      tag_103\n      jump\t// in\n    tag_104:\n      dup1\n      iszero\n      tag_105\n      jumpi\n      dup1\n      0x1f\n      lt\n      tag_106\n      jumpi\n      0x0100\n      dup1\n      dup4\n      sload\n      div\n      mul\n      dup4\n      mstore\n      swap2\n      0x20\n      add\n      swap2\n      jump(tag_105)\n    tag_106:\n      dup3\n      add\n      swap2\n      swap1\n      0x00\n      mstore\n      keccak256(0x00, 0x20)\n      swap1\n    tag_107:\n      dup2\n      sload\n      dup2\n      mstore\n      swap1\n      0x01\n      add\n      swap1\n      0x20\n      add\n      dup1\n      dup4\n      gt\n      tag_107\n      jumpi\n      dup3\n      swap1\n      sub\n      0x1f\n      and\n      dup3\n      add\n      swap2\n    tag_105:\n      pop\n      pop\n      pop\n      pop\n      pop\n      swap1\n      dup1\n      0x02\n      add\n      dup1\n      sload\n      tag_108\n      swap1\n      tag_103\n      jump\t// in\n    tag_108:\n      dup1\n      0x1f\n      add\n      0x20\n      dup1\n      swap2\n      div\n      mul\n      0x20\n      add\n      mload(0x40)\n      swap1\n      dup2\n      add\n      0x40\n      mstore\n      dup1\n      swap3\n      swap2\n      swap1\n      dup2\n      dup2\n      mstore\n      0x20\n      add\n      dup3\n      dup1\n      sload\n      tag_109\n      swap1\n      tag_103\n      jump\t// in\n    tag_109:\n      dup1\n      iszero\n      tag_110\n      jumpi\n      dup1\n      0x1f\n      lt\n      tag_111\n      jumpi\n      0x0100\n      dup1\n      dup4\n      sload\n      div\n      mul\n      dup4\n      mstore\n      swap2\n      0x20\n      add\n      swap2\n      jump(tag_110)\n    tag_111:\n      dup3\n      add\n      swap2\n      swap1\n      0x00\n      mstore\n      keccak256(0x00, 0x20)\n      swap1\n    tag_112:\n      dup2\n      sload\n      dup2\n      mstore\n      swap1\n      0x01\n      add\n      swap1\n      0x20\n      add\n      dup1\n      dup4\n      gt\n      tag_112\n      jumpi\n      dup3\n      swap1\n      sub\n      0x1f\n      and\n      dup3\n      add\n      swap2\n    tag_110:\n      pop\n      pop\n      pop\n      pop\n      pop\n      swap1\n      dup1\n      0x03\n      add\n      mload(0x40)\n      dup1\n      0x80\n      add\n      0x40\n      mstore\n      swap1\n      dup2\n      0x00\n      dup3\n      add\n      dup1\n      sload\n      tag_113\n      swap1\n      tag_103\n      jump\t// in\n    tag_113:\n      dup1\n      0x1f\n      add\n      0x20\n      dup1\n      swap2\n      div\n      mul\n      0x20\n      add\n      mload(0x40)\n      swap1\n      dup2\n      add\n      0x40\n      mstore\n      dup1\n      swap3\n      swap2\n      swap1\n      dup2\n      dup2\n      mstore\n      0x20\n      add\n      dup3\n      dup1\n      sload\n      tag_114\n      swap1\n      tag_103\n      jump\t// in\n    tag_114:\n      dup1\n      iszero\n      tag_115\n      jumpi\n      dup1\n      0x1f\n      lt\n      tag_116\n      jumpi\n      0x0100\n      dup1\n      dup4\n      sload\n      div\n      mul\n      dup4\n      mstore\n      swap2\n      0x20\n      add\n      swap2\n      jump(tag_115)\n    tag_116:\n      dup3\n      add\n      swap2\n      swap1\n      0x00\n      mstore\n      keccak256(0x00, 0x20)\n      swap1\n    tag_117:\n      dup2\n      sload\n      dup2\n      mstore\n      swap1\n      0x01\n      add\n      swap1\n      0x20\n      add\n      dup1\n      dup4\n      gt\n      tag_117\n      jumpi\n      dup3\n      swap1\n      sub\n      0x1f\n      and\n      dup3\n      add\n      swap2\n    tag_115:\n      pop\n      pop\n      pop\n      pop\n      pop\n      dup2\n      mstore\n      0x20\n      add\n      0x01\n      dup3\n      add\n      dup1\n      sload\n      tag_118\n      swap1\n      tag_103\n      jump\t// in\n    tag_118:\n      dup1\n      0x1f\n      add\n      0x20\n      dup1\n      swap2\n      div\n      mul\n      0x20\n      add\n      mload(0x40)\n      swap1\n      dup2\n      add\n      0x40\n      mstore\n      dup1\n      swap3\n      swap2\n      swap1\n      dup2\n      dup2\n      mstore\n      0x20\n      add\n      dup3\n      dup1\n      sload\n      tag_119\n      swap1\n      tag_103\n      jump\t// in\n    tag_119:\n      dup1\n      iszero\n      tag_120\n      jumpi\n      dup1\n      0x1f\n      lt\n      tag_121\n      jumpi\n      0x0100\n      dup1\n      dup4\n      sload\n      div\n      mul\n      dup4\n      mstore\n      swap2\n      0x20\n      add\n      swap2\n      jump(tag_120)\n    tag_121:\n      dup3\n      add\n      swap2\n      swap1\n      0x00\n      mstore\n      keccak256(0x00, 0x20)\n      swap1\n    tag_122:\n      dup2\n      sload\n      dup2\n      mstore\n      swap1\n      0x01\n      add\n      swap1\n      0x20\n      add\n      dup1\n      dup4\n      gt\n      tag_122\n      jumpi\n      dup3\n      swap1\n      sub\n      0x1f\n      and\n      dup3\n      add\n      swap2\n    tag_120:\n      pop\n      pop\n      pop\n      pop\n      pop\n      dup2\n      mstore\n      0x20\n      add\n      0x02\n      dup3\n      add\n      sload\n      dup2\n      mstore\n      0x20\n      add\n      0x03\n      dup3\n      add\n      sload\n      dup2\n      mstore\n      pop\n      pop\n      swap1\n      dup1\n      0x07\n      add\n      0x00\n      swap1\n      sload\n      swap1\n      0x0100\n      exp\n      swap1\n      div\n      0xffffffffffffffffffffffffffffffffffffffff\n      and\n      swap1\n      dup1\n      0x08\n      add\n      sload\n      swap1\n      dup1\n      0x09\n      add\n      0x00\n      swap1\n      sload\n      swap1\n      0x0100\n      exp\n      swap1\n      div\n      0xff\n      and\n      swap1\n      dup1\n      0x0a\n      add\n      sload\n      swap1\n      dup1\n      0x0b\n      add\n      sload\n      swap1\n      pop\n      dup10\n      jump\t// out\n        /* \"Gallery.sol\":3958:4194  function setPlatformPercentage(uint256 _percentage) external onlyAdmin {... */\n    tag_38:\n        /* \"Gallery.sol\":3678:3689  roleManager */\n      0x00\n      0x01\n      swap1\n      sload\n      swap1\n      0x0100\n      exp\n      swap1\n      div\n      0xffffffffffffffffffffffffffffffffffffffff\n      and\n        /* \"Gallery.sol\":3678:3697  roleManager.hasRole */\n      0xffffffffffffffffffffffffffffffffffffffff\n      and\n      0x91d14854\n        /* \"Gallery.sol\":3698:3709  roleManager */\n      0x00\n      0x01\n      swap1\n      sload\n      swap1\n      0x0100\n      exp\n      swap1\n      div\n      0xffffffffffffffffffffffffffffffffffffffff\n      and\n        /* \"Gallery.sol\":3698:3720  roleManager.ADMIN_ROLE */\n      0xffffffffffffffffffffffffffffffffffffffff\n      and\n      0x75b238fc\n        /* \"Gallery.sol\":3698:3722  roleManager.ADMIN_ROLE() */\n      mload(0x40)\n      dup2\n      0xffffffff\n      and\n      0xe0\n      shl\n      dup2\n      mstore\n      0x04\n      add\n      0x20\n      mload(0x40)\n      dup1\n      dup4\n      sub\n      dup2\n      dup7\n      gas\n      staticcall\n      iszero\n      dup1\n      iszero\n      tag_125\n      jumpi\n      returndatasize\n      0x00\n      dup1\n      returndatacopy\n      revert(0x00, returndatasize)\n    tag_125:\n      pop\n      pop\n      pop\n      pop\n      mload(0x40)\n      returndatasize\n      not(0x1f)\n      0x1f\n      dup3\n      add\n      and\n      dup3\n      add\n      dup1\n      0x40\n      mstore\n      pop\n      dup2\n      add\n      swap1\n      tag_126\n      swap2\n      swap1\n      tag_127\n      jump\t// in\n    tag_126:\n        /* \"Gallery.sol\":3724:3734  msg.sender */\n      caller\n        /* \"Gallery.sol\":3678:3735  roleManager.hasRole(roleManager.ADMIN_ROLE(), msg.sender) */\n      mload(0x40)\n      dup4\n      0xffffffff\n      and\n      0xe0\n      shl\n      dup2\n      mstore\n      0x04\n      add\n      tag_128\n      swap3\n      swap2\n      swap1\n      tag_129\n      jump\t// in\n    tag_128:\n      0x20\n      mload(0x40)\n      dup1\n      dup4\n      sub\n      dup2\n      dup7\n      gas\n      staticcall\n      iszero\n      dup1\n      iszero\n      tag_131\n      jumpi\n      returndatasize\n      0x00\n      dup1\n      returndatacopy\n      revert(0x00, returndatasize)\n    tag_131:\n      pop\n      pop\n      pop\n      pop\n      mload(0x40)\n      returndatasize\n      not(0x1f)\n      0x1f\n      dup3\n      add\n      and\n      dup3\n      add\n      dup1\n      0x40\n      mstore\n      pop\n      dup2\n      add\n      swap1\n      tag_132\n      swap2\n      swap1\n      tag_133\n      jump\t// in\n    tag_132:\n        /* \"Gallery.sol\":3670:3762  require(roleManager.hasRole(roleManager.ADMIN_ROLE(), msg.sender), \"Caller is not an admin\") */\n      tag_134\n      jumpi\n      mload(0x40)\n      0x08c379a000000000000000000000000000000000000000000000000000000000\n      dup2\n      mstore\n      0x04\n      add\n      tag_135\n      swap1\n      tag_136\n      jump\t// in\n    tag_135:\n      mload(0x40)\n      dup1\n      swap2\n      sub\n      swap1\n      revert\n    tag_134:\n        /* \"Gallery.sol\":4063:4066  100 */\n      0x64\n        /* \"Gallery.sol\":4048:4059  _percentage */\n      dup2\n        /* \"Gallery.sol\":4048:4066  _percentage <= 100 */\n      gt\n      iszero\n        /* \"Gallery.sol\":4040:4089  require(_percentage <= 100, \"Invalid percentage\") */\n      tag_138\n      jumpi\n      mload(0x40)\n      0x08c379a000000000000000000000000000000000000000000000000000000000\n      dup2\n      mstore\n      0x04\n      add\n      tag_139\n      swap1\n      tag_140\n      jump\t// in\n    tag_139:\n      mload(0x40)\n      dup1\n      swap2\n      sub\n      swap1\n      revert\n    tag_138:\n        /* \"Gallery.sol\":4121:4132  _percentage */\n      dup1\n        /* \"Gallery.sol\":4100:4118  platformPercentage */\n      0x03\n        /* \"Gallery.sol\":4100:4132  platformPercentage = _percentage */\n      dup2\n      swap1\n      sstore\n      pop\n        /* \"Gallery.sol\":4148:4186  PlatformPercentageUpdated(_percentage) */\n      0x939be2c65dbf8fd3fa426b40f964a7038810059517125d552f6f45b487713d82\n        /* \"Gallery.sol\":4174:4185  _percentage */\n      dup2\n        /* \"Gallery.sol\":4148:4186  PlatformPercentageUpdated(_percentage) */\n      mload(0x40)\n      tag_141\n      swap2\n      swap1\n      tag_42\n      jump\t// in\n    tag_141:\n      mload(0x40)\n      dup1\n      swap2\n      sub\n      swap1\n      log1\n        /* \"Gallery.sol\":3958:4194  function setPlatformPercentage(uint256 _percentage) external onlyAdmin {... */\n      pop\n      jump\t// out\n        /* \"Gallery.sol\":1025:1058  uint256 public platformPercentage */\n    tag_40:\n      sload(0x03)\n      dup2\n      jump\t// out\n        /* \"Gallery.sol\":2259:2348  mapping(uint256 => mapping(uint256 => WallToGalleryRequest)) public wallToGalleryRequests */\n    tag_46:\n      mstore(0x20, 0x06)\n      dup2\n      0x00\n      mstore\n      mstore(0x20, keccak256(0x00, 0x40))\n      dup1\n      0x00\n      mstore\n      keccak256(0x00, 0x40)\n      0x00\n      swap2\n      pop\n      swap2\n      pop\n      pop\n      dup1\n      0x00\n      add\n      sload\n      swap1\n      dup1\n      0x01\n      add\n      0x00\n      swap1\n      sload\n      swap1\n      0x0100\n      exp\n      swap1\n      div\n      0xffffffffffffffffffffffffffffffffffffffff\n      and\n      swap1\n      dup1\n      0x02\n      add\n      sload\n      swap1\n      dup1\n      0x03\n      add\n      0x00\n      swap1\n      sload\n      swap1\n      0x0100\n      exp\n      swap1\n      div\n      0xff\n      and\n      swap1\n      dup1\n      0x03\n      add\n      0x01\n      swap1\n      sload\n      swap1\n      0x0100\n      exp\n      swap1\n      div\n      0xff\n      and\n      swap1\n      pop\n      dup6\n      jump\t// out\n        /* \"Gallery.sol\":10374:10441  function unpause() external onlyAdmin {... */\n    tag_50:\n        /* \"Gallery.sol\":3678:3689  roleManager */\n      0x00\n      0x01\n      swap1\n      sload\n      swap1\n      0x0100\n      exp\n      swap1\n      div\n      0xffffffffffffffffffffffffffffffffffffffff\n      and\n        /* \"Gallery.sol\":3678:3697  roleManager.hasRole */\n      0xffffffffffffffffffffffffffffffffffffffff\n      and\n      0x91d14854\n        /* \"Gallery.sol\":3698:3709  roleManager */\n      0x00\n      0x01\n      swap1\n      sload\n      swap1\n      0x0100\n      exp\n      swap1\n      div\n      0xffffffffffffffffffffffffffffffffffffffff\n      and\n        /* \"Gallery.sol\":3698:3720  roleManager.ADMIN_ROLE */\n      0xffffffffffffffffffffffffffffffffffffffff\n      and\n      0x75b238fc\n        /* \"Gallery.sol\":3698:3722  roleManager.ADMIN_ROLE() */\n      mload(0x40)\n      dup2\n      0xffffffff\n      and\n      0xe0\n      shl\n      dup2\n      mstore\n      0x04\n      add\n      0x20\n      mload(0x40)\n      dup1\n      dup4\n      sub\n      dup2\n      dup7\n      gas\n      staticcall\n      iszero\n      dup1\n      iszero\n      tag_144\n      jumpi\n      returndatasize\n      0x00\n      dup1\n      returndatacopy\n      revert(0x00, returndatasize)\n    tag_144:\n      pop\n      pop\n      pop\n      pop\n      mload(0x40)\n      returndatasize\n      not(0x1f)\n      0x1f\n      dup3\n      add\n      and\n      dup3\n      add\n      dup1\n      0x40\n      mstore\n      pop\n      dup2\n      add\n      swap1\n      tag_145\n      swap2\n      swap1\n      tag_127\n      jump\t// in\n    tag_145:\n        /* \"Gallery.sol\":3724:3734  msg.sender */\n      caller\n        /* \"Gallery.sol\":3678:3735  roleManager.hasRole(roleManager.ADMIN_ROLE(), msg.sender) */\n      mload(0x40)\n      dup4\n      0xffffffff\n      and\n      0xe0\n      shl\n      dup2\n      mstore\n      0x04\n      add\n      tag_146\n      swap3\n      swap2\n      swap1\n      tag_129\n      jump\t// in\n    tag_146:\n      0x20\n      mload(0x40)\n      dup1\n      dup4\n      sub\n      dup2\n      dup7\n      gas\n      staticcall\n      iszero\n      dup1\n      iszero\n      tag_148\n      jumpi\n      returndatasize\n      0x00\n      dup1\n      returndatacopy\n      revert(0x00, returndatasize)\n    tag_148:\n      pop\n      pop\n      pop\n      pop\n      mload(0x40)\n      returndatasize\n      not(0x1f)\n      0x1f\n      dup3\n      add\n      and\n      dup3\n      add\n      dup1\n      0x40\n      mstore\n      pop\n      dup2\n      add\n      swap1\n      tag_149\n      swap2\n      swap1\n      tag_133\n      jump\t// in\n    tag_149:\n        /* \"Gallery.sol\":3670:3762  require(roleManager.hasRole(roleManager.ADMIN_ROLE(), msg.sender), \"Caller is not an admin\") */\n      tag_150\n      jumpi\n      mload(0x40)\n      0x08c379a000000000000000000000000000000000000000000000000000000000\n      dup2\n      mstore\n      0x04\n      add\n      tag_151\n      swap1\n      tag_136\n      jump\t// in\n    tag_151:\n      mload(0x40)\n      dup1\n      swap2\n      sub\n      swap1\n      revert\n    tag_150:\n        /* \"Gallery.sol\":10423:10433  _unpause() */\n      tag_153\n        /* \"Gallery.sol\":10423:10431  _unpause */\n      tag_154\n        /* \"Gallery.sol\":10423:10433  _unpause() */\n      jump\t// in\n    tag_153:\n        /* \"Gallery.sol\":10374:10441  function unpause() external onlyAdmin {... */\n      jump\t// out\n        /* \"Gallery.sol\":8568:9011  function rejectWallToGallery(uint256 galleryId, uint256 wallId) ... */\n    tag_53:\n        /* \"Gallery.sol\":8678:8687  galleryId */\n      dup2\n        /* \"Gallery.sol\":3884:3894  msg.sender */\n      caller\n        /* \"Gallery.sol\":3854:3894  galleries[galleryId].owner == msg.sender */\n      0xffffffffffffffffffffffffffffffffffffffff\n      and\n        /* \"Gallery.sol\":3854:3863  galleries */\n      0x04\n        /* \"Gallery.sol\":3854:3874  galleries[galleryId] */\n      0x00\n        /* \"Gallery.sol\":3864:3873  galleryId */\n      dup4\n        /* \"Gallery.sol\":3854:3874  galleries[galleryId] */\n      dup2\n      mstore\n      0x20\n      add\n      swap1\n      dup2\n      mstore\n      0x20\n      add\n      0x00\n      keccak256\n        /* \"Gallery.sol\":3854:3880  galleries[galleryId].owner */\n      0x07\n      add\n      0x00\n      swap1\n      sload\n      swap1\n      0x0100\n      exp\n      swap1\n      div\n      0xffffffffffffffffffffffffffffffffffffffff\n      and\n        /* \"Gallery.sol\":3854:3894  galleries[galleryId].owner == msg.sender */\n      0xffffffffffffffffffffffffffffffffffffffff\n      and\n      eq\n        /* \"Gallery.sol\":3846:3930  require(galleries[galleryId].owner == msg.sender, \"Caller is not the gallery owner\") */\n      tag_156\n      jumpi\n      mload(0x40)\n      0x08c379a000000000000000000000000000000000000000000000000000000000\n      dup2\n      mstore\n      0x04\n      add\n      tag_157\n      swap1\n      tag_158\n      jump\t// in\n    tag_157:\n      mload(0x40)\n      dup1\n      swap2\n      sub\n      swap1\n      revert\n    tag_156:\n        /* \"@openzeppelin/contracts/security/Pausable.sol\":1239:1258  _requireNotPaused() */\n      tag_160\n        /* \"@openzeppelin/contracts/security/Pausable.sol\":1239:1256  _requireNotPaused */\n      tag_161\n        /* \"@openzeppelin/contracts/security/Pausable.sol\":1239:1258  _requireNotPaused() */\n      jump\t// in\n    tag_160:\n        /* \"Gallery.sol\":8730:8766  WallToGalleryRequest storage request */\n      0x00\n        /* \"Gallery.sol\":8769:8790  wallToGalleryRequests */\n      0x06\n        /* \"Gallery.sol\":8769:8801  wallToGalleryRequests[galleryId] */\n      0x00\n        /* \"Gallery.sol\":8791:8800  galleryId */\n      dup6\n        /* \"Gallery.sol\":8769:8801  wallToGalleryRequests[galleryId] */\n      dup2\n      mstore\n      0x20\n      add\n      swap1\n      dup2\n      mstore\n      0x20\n      add\n      0x00\n      keccak256\n        /* \"Gallery.sol\":8769:8809  wallToGalleryRequests[galleryId][wallId] */\n      0x00\n        /* \"Gallery.sol\":8802:8808  wallId */\n      dup5\n        /* \"Gallery.sol\":8769:8809  wallToGalleryRequests[galleryId][wallId] */\n      dup2\n      mstore\n      0x20\n      add\n      swap1\n      dup2\n      mstore\n      0x20\n      add\n      0x00\n      keccak256\n        /* \"Gallery.sol\":8730:8809  WallToGalleryRequest storage request = wallToGalleryRequests[galleryId][wallId] */\n      swap1\n      pop\n        /* \"Gallery.sol\":8828:8835  request */\n      dup1\n        /* \"Gallery.sol\":8828:8843  request.pending */\n      0x03\n      add\n      0x00\n      swap1\n      sload\n      swap1\n      0x0100\n      exp\n      swap1\n      div\n      0xff\n      and\n        /* \"Gallery.sol\":8820:8867  require(request.pending, \"Request not pending\") */\n      tag_163\n      jumpi\n      mload(0x40)\n      0x08c379a000000000000000000000000000000000000000000000000000000000\n      dup2\n      mstore\n      0x04\n      add\n      tag_164\n      swap1\n      tag_165\n      jump\t// in\n    tag_164:\n      mload(0x40)\n      dup1\n      swap2\n      sub\n      swap1\n      revert\n    tag_163:\n        /* \"Gallery.sol\":8898:8903  false */\n      0x00\n        /* \"Gallery.sol\":8880:8887  request */\n      dup2\n        /* \"Gallery.sol\":8880:8895  request.pending */\n      0x03\n      add\n      0x00\n        /* \"Gallery.sol\":8880:8903  request.pending = false */\n      0x0100\n      exp\n      dup2\n      sload\n      dup2\n      0xff\n      mul\n      not\n      and\n      swap1\n      dup4\n      iszero\n      iszero\n      mul\n      or\n      swap1\n      sstore\n      pop\n        /* \"Gallery.sol\":8933:8938  false */\n      0x00\n        /* \"Gallery.sol\":8914:8921  request */\n      dup2\n        /* \"Gallery.sol\":8914:8930  request.approved */\n      0x03\n      add\n      0x01\n        /* \"Gallery.sol\":8914:8938  request.approved = false */\n      0x0100\n      exp\n      dup2\n      sload\n      dup2\n      0xff\n      mul\n      not\n      and\n      swap1\n      dup4\n      iszero\n      iszero\n      mul\n      or\n      swap1\n      sstore\n      pop\n        /* \"Gallery.sol\":8996:9002  wallId */\n      dup3\n        /* \"Gallery.sol\":8985:8994  galleryId */\n      dup5\n        /* \"Gallery.sol\":8956:9003  WallToGalleryRequestRejected(galleryId, wallId) */\n      0x409e24d1de9b35460a711a3d1a6690caca8a22c4c49d543d5f5507c76da71f65\n      mload(0x40)\n      mload(0x40)\n      dup1\n      swap2\n      sub\n      swap1\n      log3\n        /* \"Gallery.sol\":8719:9011  {... */\n      pop\n        /* \"Gallery.sol\":8568:9011  function rejectWallToGallery(uint256 galleryId, uint256 wallId) ... */\n      pop\n      pop\n      pop\n      jump\t// out\n        /* \"@openzeppelin/contracts/security/Pausable.sol\":1615:1699  function paused() public view virtual returns (bool) {... */\n    tag_55:\n        /* \"@openzeppelin/contracts/security/Pausable.sol\":1662:1666  bool */\n      0x00\n        /* \"@openzeppelin/contracts/security/Pausable.sol\":1685:1692  _paused */\n      dup1\n      0x00\n      swap1\n      sload\n      swap1\n      0x0100\n      exp\n      swap1\n      div\n      0xff\n      and\n        /* \"@openzeppelin/contracts/security/Pausable.sol\":1678:1692  return _paused */\n      swap1\n      pop\n        /* \"@openzeppelin/contracts/security/Pausable.sol\":1615:1699  function paused() public view virtual returns (bool) {... */\n      swap1\n      jump\t// out\n        /* \"Gallery.sol\":9019:9478  function removeWallFromGallery(uint256 galleryId, uint256 wallId) ... */\n    tag_60:\n        /* \"Gallery.sol\":3678:3689  roleManager */\n      0x00\n      0x01\n      swap1\n      sload\n      swap1\n      0x0100\n      exp\n      swap1\n      div\n      0xffffffffffffffffffffffffffffffffffffffff\n      and\n        /* \"Gallery.sol\":3678:3697  roleManager.hasRole */\n      0xffffffffffffffffffffffffffffffffffffffff\n      and\n      0x91d14854\n        /* \"Gallery.sol\":3698:3709  roleManager */\n      0x00\n      0x01\n      swap1\n      sload\n      swap1\n      0x0100\n      exp\n      swap1\n      div\n      0xffffffffffffffffffffffffffffffffffffffff\n      and\n        /* \"Gallery.sol\":3698:3720  roleManager.ADMIN_ROLE */\n      0xffffffffffffffffffffffffffffffffffffffff\n      and\n      0x75b238fc\n        /* \"Gallery.sol\":3698:3722  roleManager.ADMIN_ROLE() */\n      mload(0x40)\n      dup2\n      0xffffffff\n      and\n      0xe0\n      shl\n      dup2\n      mstore\n      0x04\n      add\n      0x20\n      mload(0x40)\n      dup1\n      dup4\n      sub\n      dup2\n      dup7\n      gas\n      staticcall\n      iszero\n      dup1\n      iszero\n      tag_169\n      jumpi\n      returndatasize\n      0x00\n      dup1\n      returndatacopy\n      revert(0x00, returndatasize)\n    tag_169:\n      pop\n      pop\n      pop\n      pop\n      mload(0x40)\n      returndatasize\n      not(0x1f)\n      0x1f\n      dup3\n      add\n      and\n      dup3\n      add\n      dup1\n      0x40\n      mstore\n      pop\n      dup2\n      add\n      swap1\n      tag_170\n      swap2\n      swap1\n      tag_127\n      jump\t// in\n    tag_170:\n        /* \"Gallery.sol\":3724:3734  msg.sender */\n      caller\n        /* \"Gallery.sol\":3678:3735  roleManager.hasRole(roleManager.ADMIN_ROLE(), msg.sender) */\n      mload(0x40)\n      dup4\n      0xffffffff\n      and\n      0xe0\n      shl\n      dup2\n      mstore\n      0x04\n      add\n      tag_171\n      swap3\n      swap2\n      swap1\n      tag_129\n      jump\t// in\n    tag_171:\n      0x20\n      mload(0x40)\n      dup1\n      dup4\n      sub\n      dup2\n      dup7\n      gas\n      staticcall\n      iszero\n      dup1\n      iszero\n      tag_173\n      jumpi\n      returndatasize\n      0x00\n      dup1\n      returndatacopy\n      revert(0x00, returndatasize)\n    tag_173:\n      pop\n      pop\n      pop\n      pop\n      mload(0x40)\n      returndatasize\n      not(0x1f)\n      0x1f\n      dup3\n      add\n      and\n      dup3\n      add\n      dup1\n      0x40\n      mstore\n      pop\n      dup2\n      add\n      swap1\n      tag_174\n      swap2\n      swap1\n      tag_133\n      jump\t// in\n    tag_174:\n        /* \"Gallery.sol\":3670:3762  require(roleManager.hasRole(roleManager.ADMIN_ROLE(), msg.sender), \"Caller is not an admin\") */\n      tag_175\n      jumpi\n      mload(0x40)\n      0x08c379a000000000000000000000000000000000000000000000000000000000\n      dup2\n      mstore\n      0x04\n      add\n      tag_176\n      swap1\n      tag_136\n      jump\t// in\n    tag_176:\n      mload(0x40)\n      dup1\n      swap2\n      sub\n      swap1\n      revert\n    tag_175:\n        /* \"@openzeppelin/contracts/security/Pausable.sol\":1239:1258  _requireNotPaused() */\n      tag_178\n        /* \"@openzeppelin/contracts/security/Pausable.sol\":1239:1256  _requireNotPaused */\n      tag_161\n        /* \"@openzeppelin/contracts/security/Pausable.sol\":1239:1258  _requireNotPaused() */\n      jump\t// in\n    tag_178:\n        /* \"Gallery.sol\":9173:9182  galleries */\n      0x04\n        /* \"Gallery.sol\":9173:9193  galleries[galleryId] */\n      0x00\n        /* \"Gallery.sol\":9183:9192  galleryId */\n      dup4\n        /* \"Gallery.sol\":9173:9193  galleries[galleryId] */\n      dup2\n      mstore\n      0x20\n      add\n      swap1\n      dup2\n      mstore\n      0x20\n      add\n      0x00\n      keccak256\n        /* \"Gallery.sol\":9173:9202  galleries[galleryId].isActive */\n      0x09\n      add\n      0x00\n      swap1\n      sload\n      swap1\n      0x0100\n      exp\n      swap1\n      div\n      0xff\n      and\n        /* \"Gallery.sol\":9165:9225  require(galleries[galleryId].isActive, \"Gallery not active\") */\n      tag_180\n      jumpi\n      mload(0x40)\n      0x08c379a000000000000000000000000000000000000000000000000000000000\n      dup2\n      mstore\n      0x04\n      add\n      tag_181\n      swap1\n      tag_182\n      jump\t// in\n    tag_181:\n      mload(0x40)\n      dup1\n      swap2\n      sub\n      swap1\n      revert\n    tag_180:\n        /* \"Gallery.sol\":9246:9287  _removeWallFromGallery(galleryId, wallId) */\n      tag_183\n        /* \"Gallery.sol\":9269:9278  galleryId */\n      dup3\n        /* \"Gallery.sol\":9280:9286  wallId */\n      dup3\n        /* \"Gallery.sol\":9246:9268  _removeWallFromGallery */\n      tag_184\n        /* \"Gallery.sol\":9246:9287  _removeWallFromGallery(galleryId, wallId) */\n      jump\t// in\n    tag_183:\n        /* \"Gallery.sol\":9298:9310  wallContract */\n      0x01\n      0x00\n      swap1\n      sload\n      swap1\n      0x0100\n      exp\n      swap1\n      div\n      0xffffffffffffffffffffffffffffffffffffffff\n      and\n        /* \"Gallery.sol\":9298:9327  wallContract.setGalleryStatus */\n      0xffffffffffffffffffffffffffffffffffffffff\n      and\n      0xce290e1d\n        /* \"Gallery.sol\":9328:9334  wallId */\n      dup3\n        /* \"Gallery.sol\":9336:9337  0 */\n      0x00\n        /* \"Gallery.sol\":9339:9344  false */\n      dup1\n        /* \"Gallery.sol\":9298:9345  wallContract.setGalleryStatus(wallId, 0, false) */\n      mload(0x40)\n      dup5\n      0xffffffff\n      and\n      0xe0\n      shl\n      dup2\n      mstore\n      0x04\n      add\n      tag_185\n      swap4\n      swap3\n      swap2\n      swap1\n      tag_186\n      jump\t// in\n    tag_185:\n      0x00\n      mload(0x40)\n      dup1\n      dup4\n      sub\n      dup2\n      0x00\n      dup8\n      dup1\n      extcodesize\n      iszero\n      dup1\n      iszero\n      tag_187\n      jumpi\n      0x00\n      dup1\n      revert\n    tag_187:\n      pop\n      gas\n      call\n      iszero\n      dup1\n      iszero\n      tag_189\n      jumpi\n      returndatasize\n      0x00\n      dup1\n      returndatacopy\n      revert(0x00, returndatasize)\n    tag_189:\n      pop\n      pop\n      pop\n      pop\n        /* \"Gallery.sol\":9363:9384  wallToGalleryRequests */\n      0x06\n        /* \"Gallery.sol\":9363:9395  wallToGalleryRequests[galleryId] */\n      0x00\n        /* \"Gallery.sol\":9385:9394  galleryId */\n      dup4\n        /* \"Gallery.sol\":9363:9395  wallToGalleryRequests[galleryId] */\n      dup2\n      mstore\n      0x20\n      add\n      swap1\n      dup2\n      mstore\n      0x20\n      add\n      0x00\n      keccak256\n        /* \"Gallery.sol\":9363:9403  wallToGalleryRequests[galleryId][wallId] */\n      0x00\n        /* \"Gallery.sol\":9396:9402  wallId */\n      dup3\n        /* \"Gallery.sol\":9363:9403  wallToGalleryRequests[galleryId][wallId] */\n      dup2\n      mstore\n      0x20\n      add\n      swap1\n      dup2\n      mstore\n      0x20\n      add\n      0x00\n      keccak256\n      0x00\n        /* \"Gallery.sol\":9356:9403  delete wallToGalleryRequests[galleryId][wallId] */\n      dup1\n      dup3\n      add\n      0x00\n      swap1\n      sstore\n      0x01\n      dup3\n      add\n      exp(0x0100, 0x00)\n      dup2\n      sload\n      swap1\n      0xffffffffffffffffffffffffffffffffffffffff\n      mul\n      not\n      and\n      swap1\n      sstore\n      0x02\n      dup3\n      add\n      0x00\n      swap1\n      sstore\n      0x03\n      dup3\n      add\n      exp(0x0100, 0x00)\n      dup2\n      sload\n      swap1\n      0xff\n      mul\n      not\n      and\n      swap1\n      sstore\n      0x03\n      dup3\n      add\n      exp(0x0100, 0x01)\n      dup2\n      sload\n      swap1\n      0xff\n      mul\n      not\n      and\n      swap1\n      sstore\n      pop\n      pop\n        /* \"Gallery.sol\":9463:9469  wallId */\n      dup1\n        /* \"Gallery.sol\":9452:9461  galleryId */\n      dup3\n        /* \"Gallery.sol\":9429:9470  WallRemovedFromGallery(galleryId, wallId) */\n      0x9c2a665641680d8945c31c04e9280e79cdc8fb9da62e272d871d116bb7ae894d\n      mload(0x40)\n      mload(0x40)\n      dup1\n      swap2\n      sub\n      swap1\n      log3\n        /* \"Gallery.sol\":9019:9478  function removeWallFromGallery(uint256 galleryId, uint256 wallId) ... */\n      pop\n      pop\n      jump\t// out\n        /* \"Gallery.sol\":10303:10366  function pause() external onlyAdmin {... */\n    tag_62:\n        /* \"Gallery.sol\":3678:3689  roleManager */\n      0x00\n      0x01\n      swap1\n      sload\n      swap1\n      0x0100\n      exp\n      swap1\n      div\n      0xffffffffffffffffffffffffffffffffffffffff\n      and\n        /* \"Gallery.sol\":3678:3697  roleManager.hasRole */\n      0xffffffffffffffffffffffffffffffffffffffff\n      and\n      0x91d14854\n        /* \"Gallery.sol\":3698:3709  roleManager */\n      0x00\n      0x01\n      swap1\n      sload\n      swap1\n      0x0100\n      exp\n      swap1\n      div\n      0xffffffffffffffffffffffffffffffffffffffff\n      and\n        /* \"Gallery.sol\":3698:3720  roleManager.ADMIN_ROLE */\n      0xffffffffffffffffffffffffffffffffffffffff\n      and\n      0x75b238fc\n        /* \"Gallery.sol\":3698:3722  roleManager.ADMIN_ROLE() */\n      mload(0x40)\n      dup2\n      0xffffffff\n      and\n      0xe0\n      shl\n      dup2\n      mstore\n      0x04\n      add\n      0x20\n      mload(0x40)\n      dup1\n      dup4\n      sub\n      dup2\n      dup7\n      gas\n      staticcall\n      iszero\n      dup1\n      iszero\n      tag_192\n      jumpi\n      returndatasize\n      0x00\n      dup1\n      returndatacopy\n      revert(0x00, returndatasize)\n    tag_192:\n      pop\n      pop\n      pop\n      pop\n      mload(0x40)\n      returndatasize\n      not(0x1f)\n      0x1f\n      dup3\n      add\n      and\n      dup3\n      add\n      dup1\n      0x40\n      mstore\n      pop\n      dup2\n      add\n      swap1\n      tag_193\n      swap2\n      swap1\n      tag_127\n      jump\t// in\n    tag_193:\n        /* \"Gallery.sol\":3724:3734  msg.sender */\n      caller\n        /* \"Gallery.sol\":3678:3735  roleManager.hasRole(roleManager.ADMIN_ROLE(), msg.sender) */\n      mload(0x40)\n      dup4\n      0xffffffff\n      and\n      0xe0\n      shl\n      dup2\n      mstore\n      0x04\n      add\n      tag_194\n      swap3\n      swap2\n      swap1\n      tag_129\n      jump\t// in\n    tag_194:\n      0x20\n      mload(0x40)\n      dup1\n      dup4\n      sub\n      dup2\n      dup7\n      gas\n      staticcall\n      iszero\n      dup1\n      iszero\n      tag_196\n      jumpi\n      returndatasize\n      0x00\n      dup1\n      returndatacopy\n      revert(0x00, returndatasize)\n    tag_196:\n      pop\n      pop\n      pop\n      pop\n      mload(0x40)\n      returndatasize\n      not(0x1f)\n      0x1f\n      dup3\n      add\n      and\n      dup3\n      add\n      dup1\n      0x40\n      mstore\n      pop\n      dup2\n      add\n      swap1\n      tag_197\n      swap2\n      swap1\n      tag_133\n      jump\t// in\n    tag_197:\n        /* \"Gallery.sol\":3670:3762  require(roleManager.hasRole(roleManager.ADMIN_ROLE(), msg.sender), \"Caller is not an admin\") */\n      tag_198\n      jumpi\n      mload(0x40)\n      0x08c379a000000000000000000000000000000000000000000000000000000000\n      dup2\n      mstore\n      0x04\n      add\n      tag_199\n      swap1\n      tag_136\n      jump\t// in\n    tag_199:\n      mload(0x40)\n      dup1\n      swap2\n      sub\n      swap1\n      revert\n    tag_198:\n        /* \"Gallery.sol\":10350:10358  _pause() */\n      tag_201\n        /* \"Gallery.sol\":10350:10356  _pause */\n      tag_202\n        /* \"Gallery.sol\":10350:10358  _pause() */\n      jump\t// in\n    tag_201:\n        /* \"Gallery.sol\":10303:10366  function pause() external onlyAdmin {... */\n      jump\t// out\n        /* \"Gallery.sol\":2355:2404  mapping(uint256 => uint256[]) public galleryWalls */\n    tag_65:\n      mstore(0x20, 0x07)\n      dup2\n      0x00\n      mstore\n      keccak256(0x00, 0x40)\n      dup2\n      dup2\n      sload\n      dup2\n      lt\n      tag_203\n      jumpi\n      0x00\n      dup1\n      revert\n    tag_203:\n      swap1\n      0x00\n      mstore\n      keccak256(0x00, 0x20)\n      add\n      0x00\n      swap2\n      pop\n      swap2\n      pop\n      pop\n      sload\n      dup2\n      jump\t// out\n        /* \"Gallery.sol\":948:973  IWall public wallContract */\n    tag_68:\n      0x01\n      0x00\n      swap1\n      sload\n      swap1\n      0x0100\n      exp\n      swap1\n      div\n      0xffffffffffffffffffffffffffffffffffffffff\n      and\n      dup2\n      jump\t// out\n        /* \"Gallery.sol\":6570:7836  function requestWallToGallery(uint256 galleryId, uint256 wallId) external whenNotPaused {... */\n    tag_73:\n        /* \"@openzeppelin/contracts/security/Pausable.sol\":1239:1258  _requireNotPaused() */\n      tag_206\n        /* \"@openzeppelin/contracts/security/Pausable.sol\":1239:1256  _requireNotPaused */\n      tag_161\n        /* \"@openzeppelin/contracts/security/Pausable.sol\":1239:1258  _requireNotPaused() */\n      jump\t// in\n    tag_206:\n        /* \"Gallery.sol\":6677:6688  roleManager */\n      0x00\n      0x01\n      swap1\n      sload\n      swap1\n      0x0100\n      exp\n      swap1\n      div\n      0xffffffffffffffffffffffffffffffffffffffff\n      and\n        /* \"Gallery.sol\":6677:6696  roleManager.hasRole */\n      0xffffffffffffffffffffffffffffffffffffffff\n      and\n      0x91d14854\n        /* \"Gallery.sol\":6697:6708  roleManager */\n      0x00\n      0x01\n      swap1\n      sload\n      swap1\n      0x0100\n      exp\n      swap1\n      div\n      0xffffffffffffffffffffffffffffffffffffffff\n      and\n        /* \"Gallery.sol\":6697:6724  roleManager.WALL_OWNER_ROLE */\n      0xffffffffffffffffffffffffffffffffffffffff\n      and\n      0x98e4abb5\n        /* \"Gallery.sol\":6697:6726  roleManager.WALL_OWNER_ROLE() */\n      mload(0x40)\n      dup2\n      0xffffffff\n      and\n      0xe0\n      shl\n      dup2\n      mstore\n      0x04\n      add\n      0x20\n      mload(0x40)\n      dup1\n      dup4\n      sub\n      dup2\n      dup7\n      gas\n      staticcall\n      iszero\n      dup1\n      iszero\n      tag_209\n      jumpi\n      returndatasize\n      0x00\n      dup1\n      returndatacopy\n      revert(0x00, returndatasize)\n    tag_209:\n      pop\n      pop\n      pop\n      pop\n      mload(0x40)\n      returndatasize\n      not(0x1f)\n      0x1f\n      dup3\n      add\n      and\n      dup3\n      add\n      dup1\n      0x40\n      mstore\n      pop\n      dup2\n      add\n      swap1\n      tag_210\n      swap2\n      swap1\n      tag_127\n      jump\t// in\n    tag_210:\n        /* \"Gallery.sol\":6728:6738  msg.sender */\n      caller\n        /* \"Gallery.sol\":6677:6739  roleManager.hasRole(roleManager.WALL_OWNER_ROLE(), msg.sender) */\n      mload(0x40)\n      dup4\n      0xffffffff\n      and\n      0xe0\n      shl\n      dup2\n      mstore\n      0x04\n      add\n      tag_211\n      swap3\n      swap2\n      swap1\n      tag_129\n      jump\t// in\n    tag_211:\n      0x20\n      mload(0x40)\n      dup1\n      dup4\n      sub\n      dup2\n      dup7\n      gas\n      staticcall\n      iszero\n      dup1\n      iszero\n      tag_213\n      jumpi\n      returndatasize\n      0x00\n      dup1\n      returndatacopy\n      revert(0x00, returndatasize)\n    tag_213:\n      pop\n      pop\n      pop\n      pop\n      mload(0x40)\n      returndatasize\n      not(0x1f)\n      0x1f\n      dup3\n      add\n      and\n      dup3\n      add\n      dup1\n      0x40\n      mstore\n      pop\n      dup2\n      add\n      swap1\n      tag_214\n      swap2\n      swap1\n      tag_133\n      jump\t// in\n    tag_214:\n        /* \"Gallery.sol\":6669:6787  require(roleManager.hasRole(roleManager.WALL_OWNER_ROLE(), msg.sender), ... */\n      tag_215\n      jumpi\n      mload(0x40)\n      0x08c379a000000000000000000000000000000000000000000000000000000000\n      dup2\n      mstore\n      0x04\n      add\n      tag_216\n      swap1\n      tag_217\n      jump\t// in\n    tag_216:\n      mload(0x40)\n      dup1\n      swap2\n      sub\n      swap1\n      revert\n    tag_215:\n        /* \"Gallery.sol\":6806:6815  galleries */\n      0x04\n        /* \"Gallery.sol\":6806:6826  galleries[galleryId] */\n      0x00\n        /* \"Gallery.sol\":6816:6825  galleryId */\n      dup4\n        /* \"Gallery.sol\":6806:6826  galleries[galleryId] */\n      dup2\n      mstore\n      0x20\n      add\n      swap1\n      dup2\n      mstore\n      0x20\n      add\n      0x00\n      keccak256\n        /* \"Gallery.sol\":6806:6835  galleries[galleryId].isActive */\n      0x09\n      add\n      0x00\n      swap1\n      sload\n      swap1\n      0x0100\n      exp\n      swap1\n      div\n      0xff\n      and\n        /* \"Gallery.sol\":6798:6858  require(galleries[galleryId].isActive, \"Gallery not active\") */\n      tag_218\n      jumpi\n      mload(0x40)\n      0x08c379a000000000000000000000000000000000000000000000000000000000\n      dup2\n      mstore\n      0x04\n      add\n      tag_219\n      swap1\n      tag_182\n      jump\t// in\n    tag_219:\n      mload(0x40)\n      dup1\n      swap2\n      sub\n      swap1\n      revert\n    tag_218:\n        /* \"Gallery.sol\":6908:6925  address wallOwner */\n      0x00\n        /* \"Gallery.sol\":6964:6991  uint256 wallOwnerPercentage */\n      dup1\n        /* \"Gallery.sol\":7006:7022  bool isInGallery */\n      0x00\n        /* \"Gallery.sol\":7063:7075  wallContract */\n      0x01\n      0x00\n      swap1\n      sload\n      swap1\n      0x0100\n      exp\n      swap1\n      div\n      0xffffffffffffffffffffffffffffffffffffffff\n      and\n        /* \"Gallery.sol\":7063:7083  wallContract.getWall */\n      0xffffffffffffffffffffffffffffffffffffffff\n      and\n      0xff91e489\n        /* \"Gallery.sol\":7084:7090  wallId */\n      dup6\n        /* \"Gallery.sol\":7063:7091  wallContract.getWall(wallId) */\n      mload(0x40)\n      dup3\n      0xffffffff\n      and\n      0xe0\n      shl\n      dup2\n      mstore\n      0x04\n      add\n      tag_220\n      swap2\n      swap1\n      tag_42\n      jump\t// in\n    tag_220:\n      0xc0\n      mload(0x40)\n      dup1\n      dup4\n      sub\n      dup2\n      dup7\n      gas\n      staticcall\n      iszero\n      dup1\n      iszero\n      tag_222\n      jumpi\n      returndatasize\n      0x00\n      dup1\n      returndatacopy\n      revert(0x00, returndatasize)\n    tag_222:\n      pop\n      pop\n      pop\n      pop\n      mload(0x40)\n      returndatasize\n      not(0x1f)\n      0x1f\n      dup3\n      add\n      and\n      dup3\n      add\n      dup1\n      0x40\n      mstore\n      pop\n      dup2\n      add\n      swap1\n      tag_223\n      swap2\n      swap1\n      tag_224\n      jump\t// in\n    tag_223:\n        /* \"Gallery.sol\":6871:7091  (... */\n      pop\n      swap5\n      pop\n      swap5\n      pop\n      pop\n      swap4\n      pop\n      pop\n        /* \"Gallery.sol\":7125:7135  msg.sender */\n      caller\n        /* \"Gallery.sol\":7112:7135  wallOwner == msg.sender */\n      0xffffffffffffffffffffffffffffffffffffffff\n      and\n        /* \"Gallery.sol\":7112:7121  wallOwner */\n      dup4\n        /* \"Gallery.sol\":7112:7135  wallOwner == msg.sender */\n      0xffffffffffffffffffffffffffffffffffffffff\n      and\n      eq\n        /* \"Gallery.sol\":7104:7154  require(wallOwner == msg.sender, \"Not wall owner\") */\n      tag_225\n      jumpi\n      mload(0x40)\n      0x08c379a000000000000000000000000000000000000000000000000000000000\n      dup2\n      mstore\n      0x04\n      add\n      tag_226\n      swap1\n      tag_227\n      jump\t// in\n    tag_226:\n      mload(0x40)\n      dup1\n      swap2\n      sub\n      swap1\n      revert\n    tag_225:\n        /* \"Gallery.sol\":7174:7185  isInGallery */\n      dup1\n        /* \"Gallery.sol\":7173:7185  !isInGallery */\n      iszero\n        /* \"Gallery.sol\":7165:7215  require(!isInGallery, \"Wall already in a gallery\") */\n      tag_228\n      jumpi\n      mload(0x40)\n      0x08c379a000000000000000000000000000000000000000000000000000000000\n      dup2\n      mstore\n      0x04\n      add\n      tag_229\n      swap1\n      tag_230\n      jump\t// in\n    tag_229:\n      mload(0x40)\n      dup1\n      swap2\n      sub\n      swap1\n      revert\n    tag_228:\n        /* \"Gallery.sol\":7236:7259  uint256 totalPercentage */\n      0x00\n        /* \"Gallery.sol\":7397:7415  platformPercentage */\n      sload(0x03)\n        /* \"Gallery.sol\":7319:7328  galleries */\n      0x04\n        /* \"Gallery.sol\":7319:7339  galleries[galleryId] */\n      0x00\n        /* \"Gallery.sol\":7329:7338  galleryId */\n      dup9\n        /* \"Gallery.sol\":7319:7339  galleries[galleryId] */\n      dup2\n      mstore\n      0x20\n      add\n      swap1\n      dup2\n      mstore\n      0x20\n      add\n      0x00\n      keccak256\n        /* \"Gallery.sol\":7319:7359  galleries[galleryId].ownershipPercentage */\n      0x08\n      add\n      sload\n        /* \"Gallery.sol\":7262:7281  wallOwnerPercentage */\n      dup5\n        /* \"Gallery.sol\":7262:7359  wallOwnerPercentage + ... */\n      tag_231\n      swap2\n      swap1\n      tag_232\n      jump\t// in\n    tag_231:\n        /* \"Gallery.sol\":7262:7415  wallOwnerPercentage + ... */\n      tag_233\n      swap2\n      swap1\n      tag_232\n      jump\t// in\n    tag_233:\n        /* \"Gallery.sol\":7236:7415  uint256 totalPercentage = wallOwnerPercentage + ... */\n      swap1\n      pop\n        /* \"Gallery.sol\":7453:7456  100 */\n      0x64\n        /* \"Gallery.sol\":7434:7449  totalPercentage */\n      dup2\n        /* \"Gallery.sol\":7434:7456  totalPercentage <= 100 */\n      gt\n      iszero\n        /* \"Gallery.sol\":7426:7490  require(totalPercentage <= 100, \"Total percentage exceeds 100%\") */\n      tag_234\n      jumpi\n      mload(0x40)\n      0x08c379a000000000000000000000000000000000000000000000000000000000\n      dup2\n      mstore\n      0x04\n      add\n      tag_235\n      swap1\n      tag_236\n      jump\t// in\n    tag_235:\n      mload(0x40)\n      dup1\n      swap2\n      sub\n      swap1\n      revert\n    tag_234:\n        /* \"Gallery.sol\":7546:7757  WallToGalleryRequest({... */\n      mload(0x40)\n      dup1\n      0xa0\n      add\n      0x40\n      mstore\n      dup1\n        /* \"Gallery.sol\":7590:7596  wallId */\n      dup7\n        /* \"Gallery.sol\":7546:7757  WallToGalleryRequest({... */\n      dup2\n      mstore\n      0x20\n      add\n        /* \"Gallery.sol\":7622:7632  msg.sender */\n      caller\n        /* \"Gallery.sol\":7546:7757  WallToGalleryRequest({... */\n      0xffffffffffffffffffffffffffffffffffffffff\n      and\n      dup2\n      mstore\n      0x20\n      add\n        /* \"Gallery.sol\":7668:7687  wallOwnerPercentage */\n      dup5\n        /* \"Gallery.sol\":7546:7757  WallToGalleryRequest({... */\n      dup2\n      mstore\n      0x20\n      add\n        /* \"Gallery.sol\":7711:7715  true */\n      0x01\n        /* \"Gallery.sol\":7546:7757  WallToGalleryRequest({... */\n      iszero\n      iszero\n      dup2\n      mstore\n      0x20\n      add\n        /* \"Gallery.sol\":7740:7745  false */\n      0x00\n        /* \"Gallery.sol\":7546:7757  WallToGalleryRequest({... */\n      iszero\n      iszero\n      dup2\n      mstore\n      pop\n        /* \"Gallery.sol\":7503:7524  wallToGalleryRequests */\n      0x06\n        /* \"Gallery.sol\":7503:7535  wallToGalleryRequests[galleryId] */\n      0x00\n        /* \"Gallery.sol\":7525:7534  galleryId */\n      dup9\n        /* \"Gallery.sol\":7503:7535  wallToGalleryRequests[galleryId] */\n      dup2\n      mstore\n      0x20\n      add\n      swap1\n      dup2\n      mstore\n      0x20\n      add\n      0x00\n      keccak256\n        /* \"Gallery.sol\":7503:7543  wallToGalleryRequests[galleryId][wallId] */\n      0x00\n        /* \"Gallery.sol\":7536:7542  wallId */\n      dup8\n        /* \"Gallery.sol\":7503:7543  wallToGalleryRequests[galleryId][wallId] */\n      dup2\n      mstore\n      0x20\n      add\n      swap1\n      dup2\n      mstore\n      0x20\n      add\n      0x00\n      keccak256\n        /* \"Gallery.sol\":7503:7757  wallToGalleryRequests[galleryId][wallId] = WallToGalleryRequest({... */\n      0x00\n      dup3\n      add\n      mload\n      dup2\n      0x00\n      add\n      sstore\n      0x20\n      dup3\n      add\n      mload\n      dup2\n      0x01\n      add\n      exp(0x0100, 0x00)\n      dup2\n      sload\n      dup2\n      0xffffffffffffffffffffffffffffffffffffffff\n      mul\n      not\n      and\n      swap1\n      dup4\n      0xffffffffffffffffffffffffffffffffffffffff\n      and\n      mul\n      or\n      swap1\n      sstore\n      pop\n      0x40\n      dup3\n      add\n      mload\n      dup2\n      0x02\n      add\n      sstore\n      0x60\n      dup3\n      add\n      mload\n      dup2\n      0x03\n      add\n      exp(0x0100, 0x00)\n      dup2\n      sload\n      dup2\n      0xff\n      mul\n      not\n      and\n      swap1\n      dup4\n      iszero\n      iszero\n      mul\n      or\n      swap1\n      sstore\n      pop\n      0x80\n      dup3\n      add\n      mload\n      dup2\n      0x03\n      add\n      exp(0x0100, 0x01)\n      dup2\n      sload\n      dup2\n      0xff\n      mul\n      not\n      and\n      swap1\n      dup4\n      iszero\n      iszero\n      mul\n      or\n      swap1\n      sstore\n      pop\n      swap1\n      pop\n      pop\n        /* \"Gallery.sol\":7817:7827  msg.sender */\n      caller\n        /* \"Gallery.sol\":7775:7828  WallToGalleryRequested(galleryId, wallId, msg.sender) */\n      0xffffffffffffffffffffffffffffffffffffffff\n      and\n        /* \"Gallery.sol\":7809:7815  wallId */\n      dup6\n        /* \"Gallery.sol\":7798:7807  galleryId */\n      dup8\n        /* \"Gallery.sol\":7775:7828  WallToGalleryRequested(galleryId, wallId, msg.sender) */\n      0x83fd119663c1d37d19f3fd2cfdd3b77cf9a048037dc45cec86d017fa4ed6fba8\n      mload(0x40)\n      mload(0x40)\n      dup1\n      swap2\n      sub\n      swap1\n      log4\n        /* \"Gallery.sol\":6658:7836  {... */\n      pop\n      pop\n      pop\n      pop\n        /* \"Gallery.sol\":6570:7836  function requestWallToGallery(uint256 galleryId, uint256 wallId) external whenNotPaused {... */\n      pop\n      pop\n      jump\t// out\n        /* \"Gallery.sol\":10090:10295  function getGalleryWalls(uint256 galleryId) external view returns (uint256[] memory) {... */\n    tag_76:\n        /* \"Gallery.sol\":10157:10173  uint256[] memory */\n      0x60\n        /* \"Gallery.sol\":10194:10203  galleries */\n      0x04\n        /* \"Gallery.sol\":10194:10214  galleries[galleryId] */\n      0x00\n        /* \"Gallery.sol\":10204:10213  galleryId */\n      dup4\n        /* \"Gallery.sol\":10194:10214  galleries[galleryId] */\n      dup2\n      mstore\n      0x20\n      add\n      swap1\n      dup2\n      mstore\n      0x20\n      add\n      0x00\n      keccak256\n        /* \"Gallery.sol\":10194:10223  galleries[galleryId].isActive */\n      0x09\n      add\n      0x00\n      swap1\n      sload\n      swap1\n      0x0100\n      exp\n      swap1\n      div\n      0xff\n      and\n        /* \"Gallery.sol\":10186:10246  require(galleries[galleryId].isActive, \"Gallery not active\") */\n      tag_238\n      jumpi\n      mload(0x40)\n      0x08c379a000000000000000000000000000000000000000000000000000000000\n      dup2\n      mstore\n      0x04\n      add\n      tag_239\n      swap1\n      tag_182\n      jump\t// in\n    tag_239:\n      mload(0x40)\n      dup1\n      swap2\n      sub\n      swap1\n      revert\n    tag_238:\n        /* \"Gallery.sol\":10264:10276  galleryWalls */\n      0x07\n        /* \"Gallery.sol\":10264:10287  galleryWalls[galleryId] */\n      0x00\n        /* \"Gallery.sol\":10277:10286  galleryId */\n      dup4\n        /* \"Gallery.sol\":10264:10287  galleryWalls[galleryId] */\n      dup2\n      mstore\n      0x20\n      add\n      swap1\n      dup2\n      mstore\n      0x20\n      add\n      0x00\n      keccak256\n        /* \"Gallery.sol\":10257:10287  return galleryWalls[galleryId] */\n      dup1\n      sload\n      dup1\n      0x20\n      mul\n      0x20\n      add\n      mload(0x40)\n      swap1\n      dup2\n      add\n      0x40\n      mstore\n      dup1\n      swap3\n      swap2\n      swap1\n      dup2\n      dup2\n      mstore\n      0x20\n      add\n      dup3\n      dup1\n      sload\n      dup1\n      iszero\n      tag_240\n      jumpi\n      0x20\n      mul\n      dup3\n      add\n      swap2\n      swap1\n      0x00\n      mstore\n      keccak256(0x00, 0x20)\n      swap1\n    tag_241:\n      dup2\n      sload\n      dup2\n      mstore\n      0x20\n      add\n      swap1\n      0x01\n      add\n      swap1\n      dup1\n      dup4\n      gt\n      tag_241\n      jumpi\n    tag_240:\n      pop\n      pop\n      pop\n      pop\n      pop\n      swap1\n      pop\n        /* \"Gallery.sol\":10090:10295  function getGalleryWalls(uint256 galleryId) external view returns (uint256[] memory) {... */\n      swap2\n      swap1\n      pop\n      jump\t// out\n        /* \"Gallery.sol\":6222:6562  function rejectGalleryRequest(uint256 requestId) external onlyAdmin whenNotPaused {... */\n    tag_81:\n        /* \"Gallery.sol\":3678:3689  roleManager */\n      0x00\n      0x01\n      swap1\n      sload\n      swap1\n      0x0100\n      exp\n      swap1\n      div\n      0xffffffffffffffffffffffffffffffffffffffff\n      and\n        /* \"Gallery.sol\":3678:3697  roleManager.hasRole */\n      0xffffffffffffffffffffffffffffffffffffffff\n      and\n      0x91d14854\n        /* \"Gallery.sol\":3698:3709  roleManager */\n      0x00\n      0x01\n      swap1\n      sload\n      swap1\n      0x0100\n      exp\n      swap1\n      div\n      0xffffffffffffffffffffffffffffffffffffffff\n      and\n        /* \"Gallery.sol\":3698:3720  roleManager.ADMIN_ROLE */\n      0xffffffffffffffffffffffffffffffffffffffff\n      and\n      0x75b238fc\n        /* \"Gallery.sol\":3698:3722  roleManager.ADMIN_ROLE() */\n      mload(0x40)\n      dup2\n      0xffffffff\n      and\n      0xe0\n      shl\n      dup2\n      mstore\n      0x04\n      add\n      0x20\n      mload(0x40)\n      dup1\n      dup4\n      sub\n      dup2\n      dup7\n      gas\n      staticcall\n      iszero\n      dup1\n      iszero\n      tag_244\n      jumpi\n      returndatasize\n      0x00\n      dup1\n      returndatacopy\n      revert(0x00, returndatasize)\n    tag_244:\n      pop\n      pop\n      pop\n      pop\n      mload(0x40)\n      returndatasize\n      not(0x1f)\n      0x1f\n      dup3\n      add\n      and\n      dup3\n      add\n      dup1\n      0x40\n      mstore\n      pop\n      dup2\n      add\n      swap1\n      tag_245\n      swap2\n      swap1\n      tag_127\n      jump\t// in\n    tag_245:\n        /* \"Gallery.sol\":3724:3734  msg.sender */\n      caller\n        /* \"Gallery.sol\":3678:3735  roleManager.hasRole(roleManager.ADMIN_ROLE(), msg.sender) */\n      mload(0x40)\n      dup4\n      0xffffffff\n      and\n      0xe0\n      shl\n      dup2\n      mstore\n      0x04\n      add\n      tag_246\n      swap3\n      swap2\n      swap1\n      tag_129\n      jump\t// in\n    tag_246:\n      0x20\n      mload(0x40)\n      dup1\n      dup4\n      sub\n      dup2\n      dup7\n      gas\n      staticcall\n      iszero\n      dup1\n      iszero\n      tag_248\n      jumpi\n      returndatasize\n      0x00\n      dup1\n      returndatacopy\n      revert(0x00, returndatasize)\n    tag_248:\n      pop\n      pop\n      pop\n      pop\n      mload(0x40)\n      returndatasize\n      not(0x1f)\n      0x1f\n      dup3\n      add\n      and\n      dup3\n      add\n      dup1\n      0x40\n      mstore\n      pop\n      dup2\n      add\n      swap1\n      tag_249\n      swap2\n      swap1\n      tag_133\n      jump\t// in\n    tag_249:\n        /* \"Gallery.sol\":3670:3762  require(roleManager.hasRole(roleManager.ADMIN_ROLE(), msg.sender), \"Caller is not an admin\") */\n      tag_250\n      jumpi\n      mload(0x40)\n      0x08c379a000000000000000000000000000000000000000000000000000000000\n      dup2\n      mstore\n      0x04\n      add\n      tag_251\n      swap1\n      tag_136\n      jump\t// in\n    tag_251:\n      mload(0x40)\n      dup1\n      swap2\n      sub\n      swap1\n      revert\n    tag_250:\n        /* \"@openzeppelin/contracts/security/Pausable.sol\":1239:1258  _requireNotPaused() */\n      tag_253\n        /* \"@openzeppelin/contracts/security/Pausable.sol\":1239:1256  _requireNotPaused */\n      tag_161\n        /* \"@openzeppelin/contracts/security/Pausable.sol\":1239:1258  _requireNotPaused() */\n      jump\t// in\n    tag_253:\n        /* \"Gallery.sol\":6315:6345  GalleryRequest storage request */\n      0x00\n        /* \"Gallery.sol\":6348:6363  galleryRequests */\n      0x05\n        /* \"Gallery.sol\":6348:6374  galleryRequests[requestId] */\n      0x00\n        /* \"Gallery.sol\":6364:6373  requestId */\n      dup4\n        /* \"Gallery.sol\":6348:6374  galleryRequests[requestId] */\n      dup2\n      mstore\n      0x20\n      add\n      swap1\n      dup2\n      mstore\n      0x20\n      add\n      0x00\n      keccak256\n        /* \"Gallery.sol\":6315:6374  GalleryRequest storage request = galleryRequests[requestId] */\n      swap1\n      pop\n        /* \"Gallery.sol\":6393:6400  request */\n      dup1\n        /* \"Gallery.sol\":6393:6408  request.pending */\n      0x08\n      add\n      0x00\n      swap1\n      sload\n      swap1\n      0x0100\n      exp\n      swap1\n      div\n      0xff\n      and\n        /* \"Gallery.sol\":6385:6432  require(request.pending, \"Request not pending\") */\n      tag_255\n      jumpi\n      mload(0x40)\n      0x08c379a000000000000000000000000000000000000000000000000000000000\n      dup2\n      mstore\n      0x04\n      add\n      tag_256\n      swap1\n      tag_165\n      jump\t// in\n    tag_256:\n      mload(0x40)\n      dup1\n      swap2\n      sub\n      swap1\n      revert\n    tag_255:\n        /* \"Gallery.sol\":6463:6468  false */\n      0x00\n        /* \"Gallery.sol\":6445:6452  request */\n      dup2\n        /* \"Gallery.sol\":6445:6460  request.pending */\n      0x08\n      add\n      0x00\n        /* \"Gallery.sol\":6445:6468  request.pending = false */\n      0x0100\n      exp\n      dup2\n      sload\n      dup2\n      0xff\n      mul\n      not\n      and\n      swap1\n      dup4\n      iszero\n      iszero\n      mul\n      or\n      swap1\n      sstore\n      pop\n        /* \"Gallery.sol\":6498:6503  false */\n      0x00\n        /* \"Gallery.sol\":6479:6486  request */\n      dup2\n        /* \"Gallery.sol\":6479:6495  request.approved */\n      0x08\n      add\n      0x01\n        /* \"Gallery.sol\":6479:6503  request.approved = false */\n      0x0100\n      exp\n      dup2\n      sload\n      dup2\n      0xff\n      mul\n      not\n      and\n      swap1\n      dup4\n      iszero\n      iszero\n      mul\n      or\n      swap1\n      sstore\n      pop\n        /* \"Gallery.sol\":6544:6553  requestId */\n      dup2\n        /* \"Gallery.sol\":6521:6554  GalleryRequestRejected(requestId) */\n      0x02066478e278f4d976df7f644bad66cbe88ce3249c27a53c746fc078510100c3\n      mload(0x40)\n      mload(0x40)\n      dup1\n      swap2\n      sub\n      swap1\n      log2\n        /* \"Gallery.sol\":6304:6562  {... */\n      pop\n        /* \"Gallery.sol\":6222:6562  function rejectGalleryRequest(uint256 requestId) external onlyAdmin whenNotPaused {... */\n      pop\n      jump\t// out\n        /* \"Gallery.sol\":4202:5286  function requestGallery(GalleryCreationParams calldata params) external whenNotPaused {... */\n    tag_85:\n        /* \"@openzeppelin/contracts/security/Pausable.sol\":1239:1258  _requireNotPaused() */\n      tag_258\n        /* \"@openzeppelin/contracts/security/Pausable.sol\":1239:1256  _requireNotPaused */\n      tag_161\n        /* \"@openzeppelin/contracts/security/Pausable.sol\":1239:1258  _requireNotPaused() */\n      jump\t// in\n    tag_258:\n        /* \"Gallery.sol\":4307:4318  roleManager */\n      0x00\n      0x01\n      swap1\n      sload\n      swap1\n      0x0100\n      exp\n      swap1\n      div\n      0xffffffffffffffffffffffffffffffffffffffff\n      and\n        /* \"Gallery.sol\":4307:4326  roleManager.hasRole */\n      0xffffffffffffffffffffffffffffffffffffffff\n      and\n      0x91d14854\n        /* \"Gallery.sol\":4327:4338  roleManager */\n      0x00\n      0x01\n      swap1\n      sload\n      swap1\n      0x0100\n      exp\n      swap1\n      div\n      0xffffffffffffffffffffffffffffffffffffffff\n      and\n        /* \"Gallery.sol\":4327:4357  roleManager.GALLERY_OWNER_ROLE */\n      0xffffffffffffffffffffffffffffffffffffffff\n      and\n      0x78988ebd\n        /* \"Gallery.sol\":4327:4359  roleManager.GALLERY_OWNER_ROLE() */\n      mload(0x40)\n      dup2\n      0xffffffff\n      and\n      0xe0\n      shl\n      dup2\n      mstore\n      0x04\n      add\n      0x20\n      mload(0x40)\n      dup1\n      dup4\n      sub\n      dup2\n      dup7\n      gas\n      staticcall\n      iszero\n      dup1\n      iszero\n      tag_261\n      jumpi\n      returndatasize\n      0x00\n      dup1\n      returndatacopy\n      revert(0x00, returndatasize)\n    tag_261:\n      pop\n      pop\n      pop\n      pop\n      mload(0x40)\n      returndatasize\n      not(0x1f)\n      0x1f\n      dup3\n      add\n      and\n      dup3\n      add\n      dup1\n      0x40\n      mstore\n      pop\n      dup2\n      add\n      swap1\n      tag_262\n      swap2\n      swap1\n      tag_127\n      jump\t// in\n    tag_262:\n        /* \"Gallery.sol\":4361:4371  msg.sender */\n      caller\n        /* \"Gallery.sol\":4307:4372  roleManager.hasRole(roleManager.GALLERY_OWNER_ROLE(), msg.sender) */\n      mload(0x40)\n      dup4\n      0xffffffff\n      and\n      0xe0\n      shl\n      dup2\n      mstore\n      0x04\n      add\n      tag_263\n      swap3\n      swap2\n      swap1\n      tag_129\n      jump\t// in\n    tag_263:\n      0x20\n      mload(0x40)\n      dup1\n      dup4\n      sub\n      dup2\n      dup7\n      gas\n      staticcall\n      iszero\n      dup1\n      iszero\n      tag_265\n      jumpi\n      returndatasize\n      0x00\n      dup1\n      returndatacopy\n      revert(0x00, returndatasize)\n    tag_265:\n      pop\n      pop\n      pop\n      pop\n      mload(0x40)\n      returndatasize\n      not(0x1f)\n      0x1f\n      dup3\n      add\n      and\n      dup3\n      add\n      dup1\n      0x40\n      mstore\n      pop\n      dup2\n      add\n      swap1\n      tag_266\n      swap2\n      swap1\n      tag_133\n      jump\t// in\n    tag_266:\n        /* \"Gallery.sol\":4299:4423  require(roleManager.hasRole(roleManager.GALLERY_OWNER_ROLE(), msg.sender), ... */\n      tag_267\n      jumpi\n      mload(0x40)\n      0x08c379a000000000000000000000000000000000000000000000000000000000\n      dup2\n      mstore\n      0x04\n      add\n      tag_268\n      swap1\n      tag_269\n      jump\t// in\n    tag_268:\n      mload(0x40)\n      dup1\n      swap2\n      sub\n      swap1\n      revert\n    tag_267:\n        /* \"Gallery.sol\":4470:4471  0 */\n      0x00\n        /* \"Gallery.sol\":4448:4454  params */\n      dup2\n        /* \"Gallery.sol\":4448:4459  params.name */\n      dup1\n      0x00\n      add\n      swap1\n      tag_270\n      swap2\n      swap1\n      tag_271\n      jump\t// in\n    tag_270:\n        /* \"Gallery.sol\":4442:4467  bytes(params.name).length */\n      swap1\n      pop\n        /* \"Gallery.sol\":4442:4471  bytes(params.name).length > 0 */\n      gt\n        /* \"Gallery.sol\":4434:4489  require(bytes(params.name).length > 0, \"Name required\") */\n      tag_272\n      jumpi\n      mload(0x40)\n      0x08c379a000000000000000000000000000000000000000000000000000000000\n      dup2\n      mstore\n      0x04\n      add\n      tag_273\n      swap1\n      tag_274\n      jump\t// in\n    tag_273:\n      mload(0x40)\n      dup1\n      swap2\n      sub\n      swap1\n      revert\n    tag_272:\n        /* \"Gallery.sol\":4538:4540  50 */\n      0x32\n        /* \"Gallery.sol\":4508:4514  params */\n      dup2\n        /* \"Gallery.sol\":4508:4534  params.ownershipPercentage */\n      0xc0\n      add\n      calldataload\n        /* \"Gallery.sol\":4508:4540  params.ownershipPercentage <= 50 */\n      gt\n      iszero\n        /* \"Gallery.sol\":4500:4576  require(params.ownershipPercentage <= 50, \"Max ownership percentage is 50%\") */\n      tag_275\n      jumpi\n      mload(0x40)\n      0x08c379a000000000000000000000000000000000000000000000000000000000\n      dup2\n      mstore\n      0x04\n      add\n      tag_276\n      swap1\n      tag_277\n      jump\t// in\n    tag_276:\n      mload(0x40)\n      dup1\n      swap2\n      sub\n      swap1\n      revert\n    tag_275:\n        /* \"Gallery.sol\":4597:4614  uint256 requestId */\n      0x00\n        /* \"Gallery.sol\":4617:4638  _galleryIds.current() */\n      tag_278\n        /* \"Gallery.sol\":4617:4628  _galleryIds */\n      0x02\n        /* \"Gallery.sol\":4617:4636  _galleryIds.current */\n      tag_279\n        /* \"Gallery.sol\":4617:4638  _galleryIds.current() */\n      jump\t// in\n    tag_278:\n        /* \"Gallery.sol\":4597:4638  uint256 requestId = _galleryIds.current() */\n      swap1\n      pop\n        /* \"Gallery.sol\":4649:4672  _galleryIds.increment() */\n      tag_280\n        /* \"Gallery.sol\":4649:4660  _galleryIds */\n      0x02\n        /* \"Gallery.sol\":4649:4670  _galleryIds.increment */\n      tag_281\n        /* \"Gallery.sol\":4649:4672  _galleryIds.increment() */\n      jump\t// in\n    tag_280:\n        /* \"Gallery.sol\":4685:4709  Location memory location */\n      0x00\n        /* \"Gallery.sol\":4712:4885  Location({... */\n      mload(0x40)\n      dup1\n      0x80\n      add\n      0x40\n      mstore\n      dup1\n        /* \"Gallery.sol\":4742:4748  params */\n      dup5\n        /* \"Gallery.sol\":4742:4753  params.city */\n      dup1\n      0x40\n      add\n      swap1\n      tag_282\n      swap2\n      swap1\n      tag_271\n      jump\t// in\n    tag_282:\n        /* \"Gallery.sol\":4712:4885  Location({... */\n      dup1\n      dup1\n      0x1f\n      add\n      0x20\n      dup1\n      swap2\n      div\n      mul\n      0x20\n      add\n      mload(0x40)\n      swap1\n      dup2\n      add\n      0x40\n      mstore\n      dup1\n      swap4\n      swap3\n      swap2\n      swap1\n      dup2\n      dup2\n      mstore\n      0x20\n      add\n      dup4\n      dup4\n      dup1\n      dup3\n      dup5\n      calldatacopy\n      0x00\n      dup2\n      dup5\n      add\n      mstore\n      not(0x1f)\n      0x1f\n      dup3\n      add\n      and\n      swap1\n      pop\n      dup1\n      dup4\n      add\n      swap3\n      pop\n      pop\n      pop\n      pop\n      pop\n      pop\n      pop\n      dup2\n      mstore\n      0x20\n      add\n        /* \"Gallery.sol\":4777:4783  params */\n      dup5\n        /* \"Gallery.sol\":4777:4791  params.country */\n      dup1\n      0x60\n      add\n      swap1\n      tag_283\n      swap2\n      swap1\n      tag_271\n      jump\t// in\n    tag_283:\n        /* \"Gallery.sol\":4712:4885  Location({... */\n      dup1\n      dup1\n      0x1f\n      add\n      0x20\n      dup1\n      swap2\n      div\n      mul\n      0x20\n      add\n      mload(0x40)\n      swap1\n      dup2\n      add\n      0x40\n      mstore\n      dup1\n      swap4\n      swap3\n      swap2\n      swap1\n      dup2\n      dup2\n      mstore\n      0x20\n      add\n      dup4\n      dup4\n      dup1\n      dup3\n      dup5\n      calldatacopy\n      0x00\n      dup2\n      dup5\n      add\n      mstore\n      not(0x1f)\n      0x1f\n      dup3\n      add\n      and\n      swap1\n      pop\n      dup1\n      dup4\n      add\n      swap3\n      pop\n      pop\n      pop\n      pop\n      pop\n      pop\n      pop\n      dup2\n      mstore\n      0x20\n      add\n        /* \"Gallery.sol\":4817:4823  params */\n      dup5\n        /* \"Gallery.sol\":4817:4833  params.longitude */\n      0x80\n      add\n      calldataload\n        /* \"Gallery.sol\":4712:4885  Location({... */\n      dup2\n      mstore\n      0x20\n      add\n        /* \"Gallery.sol\":4858:4864  params */\n      dup5\n        /* \"Gallery.sol\":4858:4873  params.latitude */\n      0xa0\n      add\n      calldataload\n        /* \"Gallery.sol\":4712:4885  Location({... */\n      dup2\n      mstore\n      pop\n        /* \"Gallery.sol\":4685:4885  Location memory location = Location({... */\n      swap1\n      pop\n        /* \"Gallery.sol\":4927:5221  GalleryRequest({... */\n      mload(0x40)\n      dup1\n      0xe0\n      add\n      0x40\n      mstore\n      dup1\n        /* \"Gallery.sol\":4968:4978  msg.sender */\n      caller\n        /* \"Gallery.sol\":4927:5221  GalleryRequest({... */\n      0xffffffffffffffffffffffffffffffffffffffff\n      and\n      dup2\n      mstore\n      0x20\n      add\n        /* \"Gallery.sol\":4999:5005  params */\n      dup5\n        /* \"Gallery.sol\":4999:5010  params.name */\n      dup1\n      0x00\n      add\n      swap1\n      tag_284\n      swap2\n      swap1\n      tag_271\n      jump\t// in\n    tag_284:\n        /* \"Gallery.sol\":4927:5221  GalleryRequest({... */\n      dup1\n      dup1\n      0x1f\n      add\n      0x20\n      dup1\n      swap2\n      div\n      mul\n      0x20\n      add\n      mload(0x40)\n      swap1\n      dup2\n      add\n      0x40\n      mstore\n      dup1\n      swap4\n      swap3\n      swap2\n      swap1\n      dup2\n      dup2\n      mstore\n      0x20\n      add\n      dup4\n      dup4\n      dup1\n      dup3\n      dup5\n      calldatacopy\n      0x00\n      dup2\n      dup5\n      add\n      mstore\n      not(0x1f)\n      0x1f\n      dup3\n      add\n      and\n      swap1\n      pop\n      dup1\n      dup4\n      add\n      swap3\n      pop\n      pop\n      pop\n      pop\n      pop\n      pop\n      pop\n      dup2\n      mstore\n      0x20\n      add\n        /* \"Gallery.sol\":5038:5044  params */\n      dup5\n        /* \"Gallery.sol\":5038:5056  params.description */\n      dup1\n      0x20\n      add\n      swap1\n      tag_285\n      swap2\n      swap1\n      tag_271\n      jump\t// in\n    tag_285:\n        /* \"Gallery.sol\":4927:5221  GalleryRequest({... */\n      dup1\n      dup1\n      0x1f\n      add\n      0x20\n      dup1\n      swap2\n      div\n      mul\n      0x20\n      add\n      mload(0x40)\n      swap1\n      dup2\n      add\n      0x40\n      mstore\n      dup1\n      swap4\n      swap3\n      swap2\n      swap1\n      dup2\n      dup2\n      mstore\n      0x20\n      add\n      dup4\n      dup4\n      dup1\n      dup3\n      dup5\n      calldatacopy\n      0x00\n      dup2\n      dup5\n      add\n      mstore\n      not(0x1f)\n      0x1f\n      dup3\n      add\n      and\n      swap1\n      pop\n      dup1\n      dup4\n      add\n      swap3\n      pop\n      pop\n      pop\n      pop\n      pop\n      pop\n      pop\n      dup2\n      mstore\n      0x20\n      add\n        /* \"Gallery.sol\":5081:5089  location */\n      dup3\n        /* \"Gallery.sol\":4927:5221  GalleryRequest({... */\n      dup2\n      mstore\n      0x20\n      add\n        /* \"Gallery.sol\":5125:5131  params */\n      dup5\n        /* \"Gallery.sol\":5125:5151  params.ownershipPercentage */\n      0xc0\n      add\n      calldataload\n        /* \"Gallery.sol\":4927:5221  GalleryRequest({... */\n      dup2\n      mstore\n      0x20\n      add\n        /* \"Gallery.sol\":5175:5179  true */\n      0x01\n        /* \"Gallery.sol\":4927:5221  GalleryRequest({... */\n      iszero\n      iszero\n      dup2\n      mstore\n      0x20\n      add\n        /* \"Gallery.sol\":5204:5209  false */\n      0x00\n        /* \"Gallery.sol\":4927:5221  GalleryRequest({... */\n      iszero\n      iszero\n      dup2\n      mstore\n      pop\n        /* \"Gallery.sol\":4898:4913  galleryRequests */\n      0x05\n        /* \"Gallery.sol\":4898:4924  galleryRequests[requestId] */\n      0x00\n        /* \"Gallery.sol\":4914:4923  requestId */\n      dup5\n        /* \"Gallery.sol\":4898:4924  galleryRequests[requestId] */\n      dup2\n      mstore\n      0x20\n      add\n      swap1\n      dup2\n      mstore\n      0x20\n      add\n      0x00\n      keccak256\n        /* \"Gallery.sol\":4898:5221  galleryRequests[requestId] = GalleryRequest({... */\n      0x00\n      dup3\n      add\n      mload\n      dup2\n      0x00\n      add\n      exp(0x0100, 0x00)\n      dup2\n      sload\n      dup2\n      0xffffffffffffffffffffffffffffffffffffffff\n      mul\n      not\n      and\n      swap1\n      dup4\n      0xffffffffffffffffffffffffffffffffffffffff\n      and\n      mul\n      or\n      swap1\n      sstore\n      pop\n      0x20\n      dup3\n      add\n      mload\n      dup2\n      0x01\n      add\n      swap1\n      dup2\n      tag_286\n      swap2\n      swap1\n      tag_287\n      jump\t// in\n    tag_286:\n      pop\n      0x40\n      dup3\n      add\n      mload\n      dup2\n      0x02\n      add\n      swap1\n      dup2\n      tag_288\n      swap2\n      swap1\n      tag_287\n      jump\t// in\n    tag_288:\n      pop\n      0x60\n      dup3\n      add\n      mload\n      dup2\n      0x03\n      add\n      0x00\n      dup3\n      add\n      mload\n      dup2\n      0x00\n      add\n      swap1\n      dup2\n      tag_289\n      swap2\n      swap1\n      tag_287\n      jump\t// in\n    tag_289:\n      pop\n      0x20\n      dup3\n      add\n      mload\n      dup2\n      0x01\n      add\n      swap1\n      dup2\n      tag_290\n      swap2\n      swap1\n      tag_287\n      jump\t// in\n    tag_290:\n      pop\n      0x40\n      dup3\n      add\n      mload\n      dup2\n      0x02\n      add\n      sstore\n      0x60\n      dup3\n      add\n      mload\n      dup2\n      0x03\n      add\n      sstore\n      pop\n      pop\n      0x80\n      dup3\n      add\n      mload\n      dup2\n      0x07\n      add\n      sstore\n      0xa0\n      dup3\n      add\n      mload\n      dup2\n      0x08\n      add\n      exp(0x0100, 0x00)\n      dup2\n      sload\n      dup2\n      0xff\n      mul\n      not\n      and\n      swap1\n      dup4\n      iszero\n      iszero\n      mul\n      or\n      swap1\n      sstore\n      pop\n      0xc0\n      dup3\n      add\n      mload\n      dup2\n      0x08\n      add\n      exp(0x0100, 0x01)\n      dup2\n      sload\n      dup2\n      0xff\n      mul\n      not\n      and\n      swap1\n      dup4\n      iszero\n      iszero\n      mul\n      or\n      swap1\n      sstore\n      pop\n      swap1\n      pop\n      pop\n        /* \"Gallery.sol\":5267:5277  msg.sender */\n      caller\n        /* \"Gallery.sol\":5239:5278  GalleryRequested(requestId, msg.sender) */\n      0xffffffffffffffffffffffffffffffffffffffff\n      and\n        /* \"Gallery.sol\":5256:5265  requestId */\n      dup3\n        /* \"Gallery.sol\":5239:5278  GalleryRequested(requestId, msg.sender) */\n      0x64c62480238fcbb55f3f9db41207d81adb09b6a08336161aa728e4d6d398fee8\n      mload(0x40)\n      mload(0x40)\n      dup1\n      swap2\n      sub\n      swap1\n      log3\n        /* \"Gallery.sol\":4288:5286  {... */\n      pop\n      pop\n        /* \"Gallery.sol\":4202:5286  function requestGallery(GalleryCreationParams calldata params) external whenNotPaused {... */\n      pop\n      jump\t// out\n        /* \"Gallery.sol\":9883:10082  function getGallery(uint256 galleryId) external view returns (GalleryData memory) {... */\n    tag_88:\n        /* \"Gallery.sol\":9945:9963  GalleryData memory */\n      tag_291\n      tag_292\n      jump\t// in\n    tag_291:\n        /* \"Gallery.sol\":9984:9993  galleries */\n      0x04\n        /* \"Gallery.sol\":9984:10004  galleries[galleryId] */\n      0x00\n        /* \"Gallery.sol\":9994:10003  galleryId */\n      dup4\n        /* \"Gallery.sol\":9984:10004  galleries[galleryId] */\n      dup2\n      mstore\n      0x20\n      add\n      swap1\n      dup2\n      mstore\n      0x20\n      add\n      0x00\n      keccak256\n        /* \"Gallery.sol\":9984:10013  galleries[galleryId].isActive */\n      0x09\n      add\n      0x00\n      swap1\n      sload\n      swap1\n      0x0100\n      exp\n      swap1\n      div\n      0xff\n      and\n        /* \"Gallery.sol\":9976:10036  require(galleries[galleryId].isActive, \"Gallery not active\") */\n      tag_294\n      jumpi\n      mload(0x40)\n      0x08c379a000000000000000000000000000000000000000000000000000000000\n      dup2\n      mstore\n      0x04\n      add\n      tag_295\n      swap1\n      tag_182\n      jump\t// in\n    tag_295:\n      mload(0x40)\n      dup1\n      swap2\n      sub\n      swap1\n      revert\n    tag_294:\n        /* \"Gallery.sol\":10054:10063  galleries */\n      0x04\n        /* \"Gallery.sol\":10054:10074  galleries[galleryId] */\n      0x00\n        /* \"Gallery.sol\":10064:10073  galleryId */\n      dup4\n        /* \"Gallery.sol\":10054:10074  galleries[galleryId] */\n      dup2\n      mstore\n      0x20\n      add\n      swap1\n      dup2\n      mstore\n      0x20\n      add\n      0x00\n      keccak256\n        /* \"Gallery.sol\":10047:10074  return galleries[galleryId] */\n      mload(0x40)\n      dup1\n      0x0120\n      add\n      0x40\n      mstore\n      swap1\n      dup2\n      0x00\n      dup3\n      add\n      sload\n      dup2\n      mstore\n      0x20\n      add\n      0x01\n      dup3\n      add\n      dup1\n      sload\n      tag_296\n      swap1\n      tag_103\n      jump\t// in\n    tag_296:\n      dup1\n      0x1f\n      add\n      0x20\n      dup1\n      swap2\n      div\n      mul\n      0x20\n      add\n      mload(0x40)\n      swap1\n      dup2\n      add\n      0x40\n      mstore\n      dup1\n      swap3\n      swap2\n      swap1\n      dup2\n      dup2\n      mstore\n      0x20\n      add\n      dup3\n      dup1\n      sload\n      tag_297\n      swap1\n      tag_103\n      jump\t// in\n    tag_297:\n      dup1\n      iszero\n      tag_298\n      jumpi\n      dup1\n      0x1f\n      lt\n      tag_299\n      jumpi\n      0x0100\n      dup1\n      dup4\n      sload\n      div\n      mul\n      dup4\n      mstore\n      swap2\n      0x20\n      add\n      swap2\n      jump(tag_298)\n    tag_299:\n      dup3\n      add\n      swap2\n      swap1\n      0x00\n      mstore\n      keccak256(0x00, 0x20)\n      swap1\n    tag_300:\n      dup2\n      sload\n      dup2\n      mstore\n      swap1\n      0x01\n      add\n      swap1\n      0x20\n      add\n      dup1\n      dup4\n      gt\n      tag_300\n      jumpi\n      dup3\n      swap1\n      sub\n      0x1f\n      and\n      dup3\n      add\n      swap2\n    tag_298:\n      pop\n      pop\n      pop\n      pop\n      pop\n      dup2\n      mstore\n      0x20\n      add\n      0x02\n      dup3\n      add\n      dup1\n      sload\n      tag_301\n      swap1\n      tag_103\n      jump\t// in\n    tag_301:\n      dup1\n      0x1f\n      add\n      0x20\n      dup1\n      swap2\n      div\n      mul\n      0x20\n      add\n      mload(0x40)\n      swap1\n      dup2\n      add\n      0x40\n      mstore\n      dup1\n      swap3\n      swap2\n      swap1\n      dup2\n      dup2\n      mstore\n      0x20\n      add\n      dup3\n      dup1\n      sload\n      tag_302\n      swap1\n      tag_103\n      jump\t// in\n    tag_302:\n      dup1\n      iszero\n      tag_303\n      jumpi\n      dup1\n      0x1f\n      lt\n      tag_304\n      jumpi\n      0x0100\n      dup1\n      dup4\n      sload\n      div\n      mul\n      dup4\n      mstore\n      swap2\n      0x20\n      add\n      swap2\n      jump(tag_303)\n    tag_304:\n      dup3\n      add\n      swap2\n      swap1\n      0x00\n      mstore\n      keccak256(0x00, 0x20)\n      swap1\n    tag_305:\n      dup2\n      sload\n      dup2\n      mstore\n      swap1\n      0x01\n      add\n      swap1\n      0x20\n      add\n      dup1\n      dup4\n      gt\n      tag_305\n      jumpi\n      dup3\n      swap1\n      sub\n      0x1f\n      and\n      dup3\n      add\n      swap2\n    tag_303:\n      pop\n      pop\n      pop\n      pop\n      pop\n      dup2\n      mstore\n      0x20\n      add\n      0x03\n      dup3\n      add\n      mload(0x40)\n      dup1\n      0x80\n      add\n      0x40\n      mstore\n      swap1\n      dup2\n      0x00\n      dup3\n      add\n      dup1\n      sload\n      tag_306\n      swap1\n      tag_103\n      jump\t// in\n    tag_306:\n      dup1\n      0x1f\n      add\n      0x20\n      dup1\n      swap2\n      div\n      mul\n      0x20\n      add\n      mload(0x40)\n      swap1\n      dup2\n      add\n      0x40\n      mstore\n      dup1\n      swap3\n      swap2\n      swap1\n      dup2\n      dup2\n      mstore\n      0x20\n      add\n      dup3\n      dup1\n      sload\n      tag_307\n      swap1\n      tag_103\n      jump\t// in\n    tag_307:\n      dup1\n      iszero\n      tag_308\n      jumpi\n      dup1\n      0x1f\n      lt\n      tag_309\n      jumpi\n      0x0100\n      dup1\n      dup4\n      sload\n      div\n      mul\n      dup4\n      mstore\n      swap2\n      0x20\n      add\n      swap2\n      jump(tag_308)\n    tag_309:\n      dup3\n      add\n      swap2\n      swap1\n      0x00\n      mstore\n      keccak256(0x00, 0x20)\n      swap1\n    tag_310:\n      dup2\n      sload\n      dup2\n      mstore\n      swap1\n      0x01\n      add\n      swap1\n      0x20\n      add\n      dup1\n      dup4\n      gt\n      tag_310\n      jumpi\n      dup3\n      swap1\n      sub\n      0x1f\n      and\n      dup3\n      add\n      swap2\n    tag_308:\n      pop\n      pop\n      pop\n      pop\n      pop\n      dup2\n      mstore\n      0x20\n      add\n      0x01\n      dup3\n      add\n      dup1\n      sload\n      tag_311\n      swap1\n      tag_103\n      jump\t// in\n    tag_311:\n      dup1\n      0x1f\n      add\n      0x20\n      dup1\n      swap2\n      div\n      mul\n      0x20\n      add\n      mload(0x40)\n      swap1\n      dup2\n      add\n      0x40\n      mstore\n      dup1\n      swap3\n      swap2\n      swap1\n      dup2\n      dup2\n      mstore\n      0x20\n      add\n      dup3\n      dup1\n      sload\n      tag_312\n      swap1\n      tag_103\n      jump\t// in\n    tag_312:\n      dup1\n      iszero\n      tag_313\n      jumpi\n      dup1\n      0x1f\n      lt\n      tag_314\n      jumpi\n      0x0100\n      dup1\n      dup4\n      sload\n      div\n      mul\n      dup4\n      mstore\n      swap2\n      0x20\n      add\n      swap2\n      jump(tag_313)\n    tag_314:\n      dup3\n      add\n      swap2\n      swap1\n      0x00\n      mstore\n      keccak256(0x00, 0x20)\n      swap1\n    tag_315:\n      dup2\n      sload\n      dup2\n      mstore\n      swap1\n      0x01\n      add\n      swap1\n      0x20\n      add\n      dup1\n      dup4\n      gt\n      tag_315\n      jumpi\n      dup3\n      swap1\n      sub\n      0x1f\n      and\n      dup3\n      add\n      swap2\n    tag_313:\n      pop\n      pop\n      pop\n      pop\n      pop\n      dup2\n      mstore\n      0x20\n      add\n      0x02\n      dup3\n      add\n      sload\n      dup2\n      mstore\n      0x20\n      add\n      0x03\n      dup3\n      add\n      sload\n      dup2\n      mstore\n      pop\n      pop\n      dup2\n      mstore\n      0x20\n      add\n      0x07\n      dup3\n      add\n      0x00\n      swap1\n      sload\n      swap1\n      0x0100\n      exp\n      swap1\n      div\n      0xffffffffffffffffffffffffffffffffffffffff\n      and\n      0xffffffffffffffffffffffffffffffffffffffff\n      and\n      0xffffffffffffffffffffffffffffffffffffffff\n      and\n      dup2\n      mstore\n      0x20\n      add\n      0x08\n      dup3\n      add\n      sload\n      dup2\n      mstore\n      0x20\n      add\n      0x09\n      dup3\n      add\n      0x00\n      swap1\n      sload\n      swap1\n      0x0100\n      exp\n      swap1\n      div\n      0xff\n      and\n      iszero\n      iszero\n      iszero\n      iszero\n      dup2\n      mstore\n      0x20\n      add\n      0x0a\n      dup3\n      add\n      sload\n      dup2\n      mstore\n      0x20\n      add\n      0x0b\n      dup3\n      add\n      sload\n      dup2\n      mstore\n      pop\n      pop\n      swap1\n      pop\n        /* \"Gallery.sol\":9883:10082  function getGallery(uint256 galleryId) external view returns (GalleryData memory) {... */\n      swap2\n      swap1\n      pop\n      jump\t// out\n        /* \"Gallery.sol\":2195:2252  mapping(uint256 => GalleryRequest) public galleryRequests */\n    tag_93:\n      mstore(0x20, 0x05)\n      dup1\n      0x00\n      mstore\n      keccak256(0x00, 0x40)\n      0x00\n      swap2\n      pop\n      swap1\n      pop\n      dup1\n      0x00\n      add\n      0x00\n      swap1\n      sload\n      swap1\n      0x0100\n      exp\n      swap1\n      div\n      0xffffffffffffffffffffffffffffffffffffffff\n      and\n      swap1\n      dup1\n      0x01\n      add\n      dup1\n      sload\n      tag_316\n      swap1\n      tag_103\n      jump\t// in\n    tag_316:\n      dup1\n      0x1f\n      add\n      0x20\n      dup1\n      swap2\n      div\n      mul\n      0x20\n      add\n      mload(0x40)\n      swap1\n      dup2\n      add\n      0x40\n      mstore\n      dup1\n      swap3\n      swap2\n      swap1\n      dup2\n      dup2\n      mstore\n      0x20\n      add\n      dup3\n      dup1\n      sload\n      tag_317\n      swap1\n      tag_103\n      jump\t// in\n    tag_317:\n      dup1\n      iszero\n      tag_318\n      jumpi\n      dup1\n      0x1f\n      lt\n      tag_319\n      jumpi\n      0x0100\n      dup1\n      dup4\n      sload\n      div\n      mul\n      dup4\n      mstore\n      swap2\n      0x20\n      add\n      swap2\n      jump(tag_318)\n    tag_319:\n      dup3\n      add\n      swap2\n      swap1\n      0x00\n      mstore\n      keccak256(0x00, 0x20)\n      swap1\n    tag_320:\n      dup2\n      sload\n      dup2\n      mstore\n      swap1\n      0x01\n      add\n      swap1\n      0x20\n      add\n      dup1\n      dup4\n      gt\n      tag_320\n      jumpi\n      dup3\n      swap1\n      sub\n      0x1f\n      and\n      dup3\n      add\n      swap2\n    tag_318:\n      pop\n      pop\n      pop\n      pop\n      pop\n      swap1\n      dup1\n      0x02\n      add\n      dup1\n      sload\n      tag_321\n      swap1\n      tag_103\n      jump\t// in\n    tag_321:\n      dup1\n      0x1f\n      add\n      0x20\n      dup1\n      swap2\n      div\n      mul\n      0x20\n      add\n      mload(0x40)\n      swap1\n      dup2\n      add\n      0x40\n      mstore\n      dup1\n      swap3\n      swap2\n      swap1\n      dup2\n      dup2\n      mstore\n      0x20\n      add\n      dup3\n      dup1\n      sload\n      tag_322\n      swap1\n      tag_103\n      jump\t// in\n    tag_322:\n      dup1\n      iszero\n      tag_323\n      jumpi\n      dup1\n      0x1f\n      lt\n      tag_324\n      jumpi\n      0x0100\n      dup1\n      dup4\n      sload\n      div\n      mul\n      dup4\n      mstore\n      swap2\n      0x20\n      add\n      swap2\n      jump(tag_323)\n    tag_324:\n      dup3\n      add\n      swap2\n      swap1\n      0x00\n      mstore\n      keccak256(0x00, 0x20)\n      swap1\n    tag_325:\n      dup2\n      sload\n      dup2\n      mstore\n      swap1\n      0x01\n      add\n      swap1\n      0x20\n      add\n      dup1\n      dup4\n      gt\n      tag_325\n      jumpi\n      dup3\n      swap1\n      sub\n      0x1f\n      and\n      dup3\n      add\n      swap2\n    tag_323:\n      pop\n      pop\n      pop\n      pop\n      pop\n      swap1\n      dup1\n      0x03\n      add\n      mload(0x40)\n      dup1\n      0x80\n      add\n      0x40\n      mstore\n      swap1\n      dup2\n      0x00\n      dup3\n      add\n      dup1\n      sload\n      tag_326\n      swap1\n      tag_103\n      jump\t// in\n    tag_326:\n      dup1\n      0x1f\n      add\n      0x20\n      dup1\n      swap2\n      div\n      mul\n      0x20\n      add\n      mload(0x40)\n      swap1\n      dup2\n      add\n      0x40\n      mstore\n      dup1\n      swap3\n      swap2\n      swap1\n      dup2\n      dup2\n      mstore\n      0x20\n      add\n      dup3\n      dup1\n      sload\n      tag_327\n      swap1\n      tag_103\n      jump\t// in\n    tag_327:\n      dup1\n      iszero\n      tag_328\n      jumpi\n      dup1\n      0x1f\n      lt\n      tag_329\n      jumpi\n      0x0100\n      dup1\n      dup4\n      sload\n      div\n      mul\n      dup4\n      mstore\n      swap2\n      0x20\n      add\n      swap2\n      jump(tag_328)\n    tag_329:\n      dup3\n      add\n      swap2\n      swap1\n      0x00\n      mstore\n      keccak256(0x00, 0x20)\n      swap1\n    tag_330:\n      dup2\n      sload\n      dup2\n      mstore\n      swap1\n      0x01\n      add\n      swap1\n      0x20\n      add\n      dup1\n      dup4\n      gt\n      tag_330\n      jumpi\n      dup3\n      swap1\n      sub\n      0x1f\n      and\n      dup3\n      add\n      swap2\n    tag_328:\n      pop\n      pop\n      pop\n      pop\n      pop\n      dup2\n      mstore\n      0x20\n      add\n      0x01\n      dup3\n      add\n      dup1\n      sload\n      tag_331\n      swap1\n      tag_103\n      jump\t// in\n    tag_331:\n      dup1\n      0x1f\n      add\n      0x20\n      dup1\n      swap2\n      div\n      mul\n      0x20\n      add\n      mload(0x40)\n      swap1\n      dup2\n      add\n      0x40\n      mstore\n      dup1\n      swap3\n      swap2\n      swap1\n      dup2\n      dup2\n      mstore\n      0x20\n      add\n      dup3\n      dup1\n      sload\n      tag_332\n      swap1\n      tag_103\n      jump\t// in\n    tag_332:\n      dup1\n      iszero\n      tag_333\n      jumpi\n      dup1\n      0x1f\n      lt\n      tag_334\n      jumpi\n      0x0100\n      dup1\n      dup4\n      sload\n      div\n      mul\n      dup4\n      mstore\n      swap2\n      0x20\n      add\n      swap2\n      jump(tag_333)\n    tag_334:\n      dup3\n      add\n      swap2\n      swap1\n      0x00\n      mstore\n      keccak256(0x00, 0x20)\n      swap1\n    tag_335:\n      dup2\n      sload\n      dup2\n      mstore\n      swap1\n      0x01\n      add\n      swap1\n      0x20\n      add\n      dup1\n      dup4\n      gt\n      tag_335\n      jumpi\n      dup3\n      swap1\n      sub\n      0x1f\n      and\n      dup3\n      add\n      swap2\n    tag_333:\n      pop\n      pop\n      pop\n      pop\n      pop\n      dup2\n      mstore\n      0x20\n      add\n      0x02\n      dup3\n      add\n      sload\n      dup2\n      mstore\n      0x20\n      add\n      0x03\n      dup3\n      add\n      sload\n      dup2\n      mstore\n      pop\n      pop\n      swap1\n      dup1\n      0x07\n      add\n      sload\n      swap1\n      dup1\n      0x08\n      add\n      0x00\n      swap1\n      sload\n      swap1\n      0x0100\n      exp\n      swap1\n      div\n      0xff\n      and\n      swap1\n      dup1\n      0x08\n      add\n      0x01\n      swap1\n      sload\n      swap1\n      0x0100\n      exp\n      swap1\n      div\n      0xff\n      and\n      swap1\n      pop\n      dup8\n      jump\t// out\n        /* \"Gallery.sol\":5294:6214  function approveGalleryRequest(uint256 requestId) external onlyAdmin whenNotPaused {... */\n    tag_98:\n        /* \"Gallery.sol\":3678:3689  roleManager */\n      0x00\n      0x01\n      swap1\n      sload\n      swap1\n      0x0100\n      exp\n      swap1\n      div\n      0xffffffffffffffffffffffffffffffffffffffff\n      and\n        /* \"Gallery.sol\":3678:3697  roleManager.hasRole */\n      0xffffffffffffffffffffffffffffffffffffffff\n      and\n      0x91d14854\n        /* \"Gallery.sol\":3698:3709  roleManager */\n      0x00\n      0x01\n      swap1\n      sload\n      swap1\n      0x0100\n      exp\n      swap1\n      div\n      0xffffffffffffffffffffffffffffffffffffffff\n      and\n        /* \"Gallery.sol\":3698:3720  roleManager.ADMIN_ROLE */\n      0xffffffffffffffffffffffffffffffffffffffff\n      and\n      0x75b238fc\n        /* \"Gallery.sol\":3698:3722  roleManager.ADMIN_ROLE() */\n      mload(0x40)\n      dup2\n      0xffffffff\n      and\n      0xe0\n      shl\n      dup2\n      mstore\n      0x04\n      add\n      0x20\n      mload(0x40)\n      dup1\n      dup4\n      sub\n      dup2\n      dup7\n      gas\n      staticcall\n      iszero\n      dup1\n      iszero\n      tag_338\n      jumpi\n      returndatasize\n      0x00\n      dup1\n      returndatacopy\n      revert(0x00, returndatasize)\n    tag_338:\n      pop\n      pop\n      pop\n      pop\n      mload(0x40)\n      returndatasize\n      not(0x1f)\n      0x1f\n      dup3\n      add\n      and\n      dup3\n      add\n      dup1\n      0x40\n      mstore\n      pop\n      dup2\n      add\n      swap1\n      tag_339\n      swap2\n      swap1\n      tag_127\n      jump\t// in\n    tag_339:\n        /* \"Gallery.sol\":3724:3734  msg.sender */\n      caller\n        /* \"Gallery.sol\":3678:3735  roleManager.hasRole(roleManager.ADMIN_ROLE(), msg.sender) */\n      mload(0x40)\n      dup4\n      0xffffffff\n      and\n      0xe0\n      shl\n      dup2\n      mstore\n      0x04\n      add\n      tag_340\n      swap3\n      swap2\n      swap1\n      tag_129\n      jump\t// in\n    tag_340:\n      0x20\n      mload(0x40)\n      dup1\n      dup4\n      sub\n      dup2\n      dup7\n      gas\n      staticcall\n      iszero\n      dup1\n      iszero\n      tag_342\n      jumpi\n      returndatasize\n      0x00\n      dup1\n      returndatacopy\n      revert(0x00, returndatasize)\n    tag_342:\n      pop\n      pop\n      pop\n      pop\n      mload(0x40)\n      returndatasize\n      not(0x1f)\n      0x1f\n      dup3\n      add\n      and\n      dup3\n      add\n      dup1\n      0x40\n      mstore\n      pop\n      dup2\n      add\n      swap1\n      tag_343\n      swap2\n      swap1\n      tag_133\n      jump\t// in\n    tag_343:\n        /* \"Gallery.sol\":3670:3762  require(roleManager.hasRole(roleManager.ADMIN_ROLE(), msg.sender), \"Caller is not an admin\") */\n      tag_344\n      jumpi\n      mload(0x40)\n      0x08c379a000000000000000000000000000000000000000000000000000000000\n      dup2\n      mstore\n      0x04\n      add\n      tag_345\n      swap1\n      tag_136\n      jump\t// in\n    tag_345:\n      mload(0x40)\n      dup1\n      swap2\n      sub\n      swap1\n      revert\n    tag_344:\n        /* \"@openzeppelin/contracts/security/Pausable.sol\":1239:1258  _requireNotPaused() */\n      tag_347\n        /* \"@openzeppelin/contracts/security/Pausable.sol\":1239:1256  _requireNotPaused */\n      tag_161\n        /* \"@openzeppelin/contracts/security/Pausable.sol\":1239:1258  _requireNotPaused() */\n      jump\t// in\n    tag_347:\n        /* \"Gallery.sol\":5388:5418  GalleryRequest storage request */\n      0x00\n        /* \"Gallery.sol\":5421:5436  galleryRequests */\n      0x05\n        /* \"Gallery.sol\":5421:5447  galleryRequests[requestId] */\n      0x00\n        /* \"Gallery.sol\":5437:5446  requestId */\n      dup4\n        /* \"Gallery.sol\":5421:5447  galleryRequests[requestId] */\n      dup2\n      mstore\n      0x20\n      add\n      swap1\n      dup2\n      mstore\n      0x20\n      add\n      0x00\n      keccak256\n        /* \"Gallery.sol\":5388:5447  GalleryRequest storage request = galleryRequests[requestId] */\n      swap1\n      pop\n        /* \"Gallery.sol\":5466:5473  request */\n      dup1\n        /* \"Gallery.sol\":5466:5481  request.pending */\n      0x08\n      add\n      0x00\n      swap1\n      sload\n      swap1\n      0x0100\n      exp\n      swap1\n      div\n      0xff\n      and\n        /* \"Gallery.sol\":5458:5505  require(request.pending, \"Request not pending\") */\n      tag_349\n      jumpi\n      mload(0x40)\n      0x08c379a000000000000000000000000000000000000000000000000000000000\n      dup2\n      mstore\n      0x04\n      add\n      tag_350\n      swap1\n      tag_165\n      jump\t// in\n    tag_350:\n      mload(0x40)\n      dup1\n      swap2\n      sub\n      swap1\n      revert\n    tag_349:\n        /* \"Gallery.sol\":5524:5535  roleManager */\n      0x00\n      0x01\n      swap1\n      sload\n      swap1\n      0x0100\n      exp\n      swap1\n      div\n      0xffffffffffffffffffffffffffffffffffffffff\n      and\n        /* \"Gallery.sol\":5524:5543  roleManager.hasRole */\n      0xffffffffffffffffffffffffffffffffffffffff\n      and\n      0x91d14854\n        /* \"Gallery.sol\":5544:5555  roleManager */\n      0x00\n      0x01\n      swap1\n      sload\n      swap1\n      0x0100\n      exp\n      swap1\n      div\n      0xffffffffffffffffffffffffffffffffffffffff\n      and\n        /* \"Gallery.sol\":5544:5574  roleManager.GALLERY_OWNER_ROLE */\n      0xffffffffffffffffffffffffffffffffffffffff\n      and\n      0x78988ebd\n        /* \"Gallery.sol\":5544:5576  roleManager.GALLERY_OWNER_ROLE() */\n      mload(0x40)\n      dup2\n      0xffffffff\n      and\n      0xe0\n      shl\n      dup2\n      mstore\n      0x04\n      add\n      0x20\n      mload(0x40)\n      dup1\n      dup4\n      sub\n      dup2\n      dup7\n      gas\n      staticcall\n      iszero\n      dup1\n      iszero\n      tag_352\n      jumpi\n      returndatasize\n      0x00\n      dup1\n      returndatacopy\n      revert(0x00, returndatasize)\n    tag_352:\n      pop\n      pop\n      pop\n      pop\n      mload(0x40)\n      returndatasize\n      not(0x1f)\n      0x1f\n      dup3\n      add\n      and\n      dup3\n      add\n      dup1\n      0x40\n      mstore\n      pop\n      dup2\n      add\n      swap1\n      tag_353\n      swap2\n      swap1\n      tag_127\n      jump\t// in\n    tag_353:\n        /* \"Gallery.sol\":5578:5585  request */\n      dup4\n        /* \"Gallery.sol\":5578:5595  request.requester */\n      0x00\n      add\n      0x00\n      swap1\n      sload\n      swap1\n      0x0100\n      exp\n      swap1\n      div\n      0xffffffffffffffffffffffffffffffffffffffff\n      and\n        /* \"Gallery.sol\":5524:5596  roleManager.hasRole(roleManager.GALLERY_OWNER_ROLE(), request.requester) */\n      mload(0x40)\n      dup4\n      0xffffffff\n      and\n      0xe0\n      shl\n      dup2\n      mstore\n      0x04\n      add\n      tag_354\n      swap3\n      swap2\n      swap1\n      tag_129\n      jump\t// in\n    tag_354:\n      0x20\n      mload(0x40)\n      dup1\n      dup4\n      sub\n      dup2\n      dup7\n      gas\n      staticcall\n      iszero\n      dup1\n      iszero\n      tag_356\n      jumpi\n      returndatasize\n      0x00\n      dup1\n      returndatacopy\n      revert(0x00, returndatasize)\n    tag_356:\n      pop\n      pop\n      pop\n      pop\n      mload(0x40)\n      returndatasize\n      not(0x1f)\n      0x1f\n      dup3\n      add\n      and\n      dup3\n      add\n      dup1\n      0x40\n      mstore\n      pop\n      dup2\n      add\n      swap1\n      tag_357\n      swap2\n      swap1\n      tag_133\n      jump\t// in\n    tag_357:\n        /* \"Gallery.sol\":5516:5661  require(roleManager.hasRole(roleManager.GALLERY_OWNER_ROLE(), request.requester), ... */\n      tag_358\n      jumpi\n      mload(0x40)\n      0x08c379a000000000000000000000000000000000000000000000000000000000\n      dup2\n      mstore\n      0x04\n      add\n      tag_359\n      swap1\n      tag_360\n      jump\t// in\n    tag_359:\n      mload(0x40)\n      dup1\n      swap2\n      sub\n      swap1\n      revert\n    tag_358:\n        /* \"Gallery.sol\":5692:5697  false */\n      0x00\n        /* \"Gallery.sol\":5674:5681  request */\n      dup2\n        /* \"Gallery.sol\":5674:5689  request.pending */\n      0x08\n      add\n      0x00\n        /* \"Gallery.sol\":5674:5697  request.pending = false */\n      0x0100\n      exp\n      dup2\n      sload\n      dup2\n      0xff\n      mul\n      not\n      and\n      swap1\n      dup4\n      iszero\n      iszero\n      mul\n      or\n      swap1\n      sstore\n      pop\n        /* \"Gallery.sol\":5727:5731  true */\n      0x01\n        /* \"Gallery.sol\":5708:5715  request */\n      dup2\n        /* \"Gallery.sol\":5708:5724  request.approved */\n      0x08\n      add\n      0x01\n        /* \"Gallery.sol\":5708:5731  request.approved = true */\n      0x0100\n      exp\n      dup2\n      sload\n      dup2\n      0xff\n      mul\n      not\n      and\n      swap1\n      dup4\n      iszero\n      iszero\n      mul\n      or\n      swap1\n      sstore\n      pop\n        /* \"Gallery.sol\":5767:6155  GalleryData({... */\n      mload(0x40)\n      dup1\n      0x0120\n      add\n      0x40\n      mstore\n      dup1\n        /* \"Gallery.sol\":5798:5807  requestId */\n      dup4\n        /* \"Gallery.sol\":5767:6155  GalleryData({... */\n      dup2\n      mstore\n      0x20\n      add\n        /* \"Gallery.sol\":5828:5835  request */\n      dup3\n        /* \"Gallery.sol\":5828:5840  request.name */\n      0x01\n      add\n        /* \"Gallery.sol\":5767:6155  GalleryData({... */\n      dup1\n      sload\n      tag_361\n      swap1\n      tag_103\n      jump\t// in\n    tag_361:\n      dup1\n      0x1f\n      add\n      0x20\n      dup1\n      swap2\n      div\n      mul\n      0x20\n      add\n      mload(0x40)\n      swap1\n      dup2\n      add\n      0x40\n      mstore\n      dup1\n      swap3\n      swap2\n      swap1\n      dup2\n      dup2\n      mstore\n      0x20\n      add\n      dup3\n      dup1\n      sload\n      tag_362\n      swap1\n      tag_103\n      jump\t// in\n    tag_362:\n      dup1\n      iszero\n      tag_363\n      jumpi\n      dup1\n      0x1f\n      lt\n      tag_364\n      jumpi\n      0x0100\n      dup1\n      dup4\n      sload\n      div\n      mul\n      dup4\n      mstore\n      swap2\n      0x20\n      add\n      swap2\n      jump(tag_363)\n    tag_364:\n      dup3\n      add\n      swap2\n      swap1\n      0x00\n      mstore\n      keccak256(0x00, 0x20)\n      swap1\n    tag_365:\n      dup2\n      sload\n      dup2\n      mstore\n      swap1\n      0x01\n      add\n      swap1\n      0x20\n      add\n      dup1\n      dup4\n      gt\n      tag_365\n      jumpi\n      dup3\n      swap1\n      sub\n      0x1f\n      and\n      dup3\n      add\n      swap2\n    tag_363:\n      pop\n      pop\n      pop\n      pop\n      pop\n      dup2\n      mstore\n      0x20\n      add\n        /* \"Gallery.sol\":5868:5875  request */\n      dup3\n        /* \"Gallery.sol\":5868:5887  request.description */\n      0x02\n      add\n        /* \"Gallery.sol\":5767:6155  GalleryData({... */\n      dup1\n      sload\n      tag_366\n      swap1\n      tag_103\n      jump\t// in\n    tag_366:\n      dup1\n      0x1f\n      add\n      0x20\n      dup1\n      swap2\n      div\n      mul\n      0x20\n      add\n      mload(0x40)\n      swap1\n      dup2\n      add\n      0x40\n      mstore\n      dup1\n      swap3\n      swap2\n      swap1\n      dup2\n      dup2\n      mstore\n      0x20\n      add\n      dup3\n      dup1\n      sload\n      tag_367\n      swap1\n      tag_103\n      jump\t// in\n    tag_367:\n      dup1\n      iszero\n      tag_368\n      jumpi\n      dup1\n      0x1f\n      lt\n      tag_369\n      jumpi\n      0x0100\n      dup1\n      dup4\n      sload\n      div\n      mul\n      dup4\n      mstore\n      swap2\n      0x20\n      add\n      swap2\n      jump(tag_368)\n    tag_369:\n      dup3\n      add\n      swap2\n      swap1\n      0x00\n      mstore\n      keccak256(0x00, 0x20)\n      swap1\n    tag_370:\n      dup2\n      sload\n      dup2\n      mstore\n      swap1\n      0x01\n      add\n      swap1\n      0x20\n      add\n      dup1\n      dup4\n      gt\n      tag_370\n      jumpi\n      dup3\n      swap1\n      sub\n      0x1f\n      and\n      dup3\n      add\n      swap2\n    tag_368:\n      pop\n      pop\n      pop\n      pop\n      pop\n      dup2\n      mstore\n      0x20\n      add\n        /* \"Gallery.sol\":5912:5919  request */\n      dup3\n        /* \"Gallery.sol\":5912:5928  request.location */\n      0x03\n      add\n        /* \"Gallery.sol\":5767:6155  GalleryData({... */\n      mload(0x40)\n      dup1\n      0x80\n      add\n      0x40\n      mstore\n      swap1\n      dup2\n      0x00\n      dup3\n      add\n      dup1\n      sload\n      tag_371\n      swap1\n      tag_103\n      jump\t// in\n    tag_371:\n      dup1\n      0x1f\n      add\n      0x20\n      dup1\n      swap2\n      div\n      mul\n      0x20\n      add\n      mload(0x40)\n      swap1\n      dup2\n      add\n      0x40\n      mstore\n      dup1\n      swap3\n      swap2\n      swap1\n      dup2\n      dup2\n      mstore\n      0x20\n      add\n      dup3\n      dup1\n      sload\n      tag_372\n      swap1\n      tag_103\n      jump\t// in\n    tag_372:\n      dup1\n      iszero\n      tag_373\n      jumpi\n      dup1\n      0x1f\n      lt\n      tag_374\n      jumpi\n      0x0100\n      dup1\n      dup4\n      sload\n      div\n      mul\n      dup4\n      mstore\n      swap2\n      0x20\n      add\n      swap2\n      jump(tag_373)\n    tag_374:\n      dup3\n      add\n      swap2\n      swap1\n      0x00\n      mstore\n      keccak256(0x00, 0x20)\n      swap1\n    tag_375:\n      dup2\n      sload\n      dup2\n      mstore\n      swap1\n      0x01\n      add\n      swap1\n      0x20\n      add\n      dup1\n      dup4\n      gt\n      tag_375\n      jumpi\n      dup3\n      swap1\n      sub\n      0x1f\n      and\n      dup3\n      add\n      swap2\n    tag_373:\n      pop\n      pop\n      pop\n      pop\n      pop\n      dup2\n      mstore\n      0x20\n      add\n      0x01\n      dup3\n      add\n      dup1\n      sload\n      tag_376\n      swap1\n      tag_103\n      jump\t// in\n    tag_376:\n      dup1\n      0x1f\n      add\n      0x20\n      dup1\n      swap2\n      div\n      mul\n      0x20\n      add\n      mload(0x40)\n      swap1\n      dup2\n      add\n      0x40\n      mstore\n      dup1\n      swap3\n      swap2\n      swap1\n      dup2\n      dup2\n      mstore\n      0x20\n      add\n      dup3\n      dup1\n      sload\n      tag_377\n      swap1\n      tag_103\n      jump\t// in\n    tag_377:\n      dup1\n      iszero\n      tag_378\n      jumpi\n      dup1\n      0x1f\n      lt\n      tag_379\n      jumpi\n      0x0100\n      dup1\n      dup4\n      sload\n      div\n      mul\n      dup4\n      mstore\n      swap2\n      0x20\n      add\n      swap2\n      jump(tag_378)\n    tag_379:\n      dup3\n      add\n      swap2\n      swap1\n      0x00\n      mstore\n      keccak256(0x00, 0x20)\n      swap1\n    tag_380:\n      dup2\n      sload\n      dup2\n      mstore\n      swap1\n      0x01\n      add\n      swap1\n      0x20\n      add\n      dup1\n      dup4\n      gt\n      tag_380\n      jumpi\n      dup3\n      swap1\n      sub\n      0x1f\n      and\n      dup3\n      add\n      swap2\n    tag_378:\n      pop\n      pop\n      pop\n      pop\n      pop\n      dup2\n      mstore\n      0x20\n      add\n      0x02\n      dup3\n      add\n      sload\n      dup2\n      mstore\n      0x20\n      add\n      0x03\n      dup3\n      add\n      sload\n      dup2\n      mstore\n      pop\n      pop\n      dup2\n      mstore\n      0x20\n      add\n        /* \"Gallery.sol\":5950:5957  request */\n      dup3\n        /* \"Gallery.sol\":5950:5967  request.requester */\n      0x00\n      add\n      0x00\n      swap1\n      sload\n      swap1\n      0x0100\n      exp\n      swap1\n      div\n      0xffffffffffffffffffffffffffffffffffffffff\n      and\n        /* \"Gallery.sol\":5767:6155  GalleryData({... */\n      0xffffffffffffffffffffffffffffffffffffffff\n      and\n      dup2\n      mstore\n      0x20\n      add\n        /* \"Gallery.sol\":6003:6010  request */\n      dup3\n        /* \"Gallery.sol\":6003:6030  request.ownershipPercentage */\n      0x07\n      add\n      sload\n        /* \"Gallery.sol\":5767:6155  GalleryData({... */\n      dup2\n      mstore\n      0x20\n      add\n        /* \"Gallery.sol\":6055:6059  true */\n      0x01\n        /* \"Gallery.sol\":5767:6155  GalleryData({... */\n      iszero\n      iszero\n      dup2\n      mstore\n      0x20\n      add\n        /* \"Gallery.sol\":6085:6100  block.timestamp */\n      timestamp\n        /* \"Gallery.sol\":5767:6155  GalleryData({... */\n      dup2\n      mstore\n      0x20\n      add\n        /* \"Gallery.sol\":6128:6143  block.timestamp */\n      timestamp\n        /* \"Gallery.sol\":5767:6155  GalleryData({... */\n      dup2\n      mstore\n      pop\n        /* \"Gallery.sol\":5744:5753  galleries */\n      0x04\n        /* \"Gallery.sol\":5744:5764  galleries[requestId] */\n      0x00\n        /* \"Gallery.sol\":5754:5763  requestId */\n      dup5\n        /* \"Gallery.sol\":5744:5764  galleries[requestId] */\n      dup2\n      mstore\n      0x20\n      add\n      swap1\n      dup2\n      mstore\n      0x20\n      add\n      0x00\n      keccak256\n        /* \"Gallery.sol\":5744:6155  galleries[requestId] = GalleryData({... */\n      0x00\n      dup3\n      add\n      mload\n      dup2\n      0x00\n      add\n      sstore\n      0x20\n      dup3\n      add\n      mload\n      dup2\n      0x01\n      add\n      swap1\n      dup2\n      tag_381\n      swap2\n      swap1\n      tag_287\n      jump\t// in\n    tag_381:\n      pop\n      0x40\n      dup3\n      add\n      mload\n      dup2\n      0x02\n      add\n      swap1\n      dup2\n      tag_382\n      swap2\n      swap1\n      tag_287\n      jump\t// in\n    tag_382:\n      pop\n      0x60\n      dup3\n      add\n      mload\n      dup2\n      0x03\n      add\n      0x00\n      dup3\n      add\n      mload\n      dup2\n      0x00\n      add\n      swap1\n      dup2\n      tag_383\n      swap2\n      swap1\n      tag_287\n      jump\t// in\n    tag_383:\n      pop\n      0x20\n      dup3\n      add\n      mload\n      dup2\n      0x01\n      add\n      swap1\n      dup2\n      tag_384\n      swap2\n      swap1\n      tag_287\n      jump\t// in\n    tag_384:\n      pop\n      0x40\n      dup3\n      add\n      mload\n      dup2\n      0x02\n      add\n      sstore\n      0x60\n      dup3\n      add\n      mload\n      dup2\n      0x03\n      add\n      sstore\n      pop\n      pop\n      0x80\n      dup3\n      add\n      mload\n      dup2\n      0x07\n      add\n      exp(0x0100, 0x00)\n      dup2\n      sload\n      dup2\n      0xffffffffffffffffffffffffffffffffffffffff\n      mul\n      not\n      and\n      swap1\n      dup4\n      0xffffffffffffffffffffffffffffffffffffffff\n      and\n      mul\n      or\n      swap1\n      sstore\n      pop\n      0xa0\n      dup3\n      add\n      mload\n      dup2\n      0x08\n      add\n      sstore\n      0xc0\n      dup3\n      add\n      mload\n      dup2\n      0x09\n      add\n      exp(0x0100, 0x00)\n      dup2\n      sload\n      dup2\n      0xff\n      mul\n      not\n      and\n      swap1\n      dup4\n      iszero\n      iszero\n      mul\n      or\n      swap1\n      sstore\n      pop\n      0xe0\n      dup3\n      add\n      mload\n      dup2\n      0x0a\n      add\n      sstore\n      0x0100\n      dup3\n      add\n      mload\n      dup2\n      0x0b\n      add\n      sstore\n      swap1\n      pop\n      pop\n        /* \"Gallery.sol\":6196:6205  requestId */\n      dup2\n        /* \"Gallery.sol\":6173:6206  GalleryRequestApproved(requestId) */\n      0x8bf0b9f064110e184ac3a17211475b991009bba03afd86413f3114d9058b670a\n      mload(0x40)\n      mload(0x40)\n      dup1\n      swap2\n      sub\n      swap1\n      log2\n        /* \"Gallery.sol\":5377:6214  {... */\n      pop\n        /* \"Gallery.sol\":5294:6214  function approveGalleryRequest(uint256 requestId) external onlyAdmin whenNotPaused {... */\n      pop\n      jump\t// out\n        /* \"Gallery.sol\":7844:8560  function approveWallToGallery(uint256 galleryId, uint256 wallId) ... */\n    tag_101:\n        /* \"Gallery.sol\":7955:7964  galleryId */\n      dup2\n        /* \"Gallery.sol\":3884:3894  msg.sender */\n      caller\n        /* \"Gallery.sol\":3854:3894  galleries[galleryId].owner == msg.sender */\n      0xffffffffffffffffffffffffffffffffffffffff\n      and\n        /* \"Gallery.sol\":3854:3863  galleries */\n      0x04\n        /* \"Gallery.sol\":3854:3874  galleries[galleryId] */\n      0x00\n        /* \"Gallery.sol\":3864:3873  galleryId */\n      dup4\n        /* \"Gallery.sol\":3854:3874  galleries[galleryId] */\n      dup2\n      mstore\n      0x20\n      add\n      swap1\n      dup2\n      mstore\n      0x20\n      add\n      0x00\n      keccak256\n        /* \"Gallery.sol\":3854:3880  galleries[galleryId].owner */\n      0x07\n      add\n      0x00\n      swap1\n      sload\n      swap1\n      0x0100\n      exp\n      swap1\n      div\n      0xffffffffffffffffffffffffffffffffffffffff\n      and\n        /* \"Gallery.sol\":3854:3894  galleries[galleryId].owner == msg.sender */\n      0xffffffffffffffffffffffffffffffffffffffff\n      and\n      eq\n        /* \"Gallery.sol\":3846:3930  require(galleries[galleryId].owner == msg.sender, \"Caller is not the gallery owner\") */\n      tag_386\n      jumpi\n      mload(0x40)\n      0x08c379a000000000000000000000000000000000000000000000000000000000\n      dup2\n      mstore\n      0x04\n      add\n      tag_387\n      swap1\n      tag_158\n      jump\t// in\n    tag_387:\n      mload(0x40)\n      dup1\n      swap2\n      sub\n      swap1\n      revert\n    tag_386:\n        /* \"@openzeppelin/contracts/security/Pausable.sol\":1239:1258  _requireNotPaused() */\n      tag_389\n        /* \"@openzeppelin/contracts/security/Pausable.sol\":1239:1256  _requireNotPaused */\n      tag_161\n        /* \"@openzeppelin/contracts/security/Pausable.sol\":1239:1258  _requireNotPaused() */\n      jump\t// in\n    tag_389:\n        /* \"Gallery.sol\":8007:8043  WallToGalleryRequest storage request */\n      0x00\n        /* \"Gallery.sol\":8046:8067  wallToGalleryRequests */\n      0x06\n        /* \"Gallery.sol\":8046:8078  wallToGalleryRequests[galleryId] */\n      0x00\n        /* \"Gallery.sol\":8068:8077  galleryId */\n      dup6\n        /* \"Gallery.sol\":8046:8078  wallToGalleryRequests[galleryId] */\n      dup2\n      mstore\n      0x20\n      add\n      swap1\n      dup2\n      mstore\n      0x20\n      add\n      0x00\n      keccak256\n        /* \"Gallery.sol\":8046:8086  wallToGalleryRequests[galleryId][wallId] */\n      0x00\n        /* \"Gallery.sol\":8079:8085  wallId */\n      dup5\n        /* \"Gallery.sol\":8046:8086  wallToGalleryRequests[galleryId][wallId] */\n      dup2\n      mstore\n      0x20\n      add\n      swap1\n      dup2\n      mstore\n      0x20\n      add\n      0x00\n      keccak256\n        /* \"Gallery.sol\":8007:8086  WallToGalleryRequest storage request = wallToGalleryRequests[galleryId][wallId] */\n      swap1\n      pop\n        /* \"Gallery.sol\":8105:8112  request */\n      dup1\n        /* \"Gallery.sol\":8105:8120  request.pending */\n      0x03\n      add\n      0x00\n      swap1\n      sload\n      swap1\n      0x0100\n      exp\n      swap1\n      div\n      0xff\n      and\n        /* \"Gallery.sol\":8097:8144  require(request.pending, \"Request not pending\") */\n      tag_391\n      jumpi\n      mload(0x40)\n      0x08c379a000000000000000000000000000000000000000000000000000000000\n      dup2\n      mstore\n      0x04\n      add\n      tag_392\n      swap1\n      tag_165\n      jump\t// in\n    tag_392:\n      mload(0x40)\n      dup1\n      swap2\n      sub\n      swap1\n      revert\n    tag_391:\n        /* \"Gallery.sol\":8163:8174  roleManager */\n      0x00\n      0x01\n      swap1\n      sload\n      swap1\n      0x0100\n      exp\n      swap1\n      div\n      0xffffffffffffffffffffffffffffffffffffffff\n      and\n        /* \"Gallery.sol\":8163:8182  roleManager.hasRole */\n      0xffffffffffffffffffffffffffffffffffffffff\n      and\n      0x91d14854\n        /* \"Gallery.sol\":8183:8194  roleManager */\n      0x00\n      0x01\n      swap1\n      sload\n      swap1\n      0x0100\n      exp\n      swap1\n      div\n      0xffffffffffffffffffffffffffffffffffffffff\n      and\n        /* \"Gallery.sol\":8183:8210  roleManager.WALL_OWNER_ROLE */\n      0xffffffffffffffffffffffffffffffffffffffff\n      and\n      0x98e4abb5\n        /* \"Gallery.sol\":8183:8212  roleManager.WALL_OWNER_ROLE() */\n      mload(0x40)\n      dup2\n      0xffffffff\n      and\n      0xe0\n      shl\n      dup2\n      mstore\n      0x04\n      add\n      0x20\n      mload(0x40)\n      dup1\n      dup4\n      sub\n      dup2\n      dup7\n      gas\n      staticcall\n      iszero\n      dup1\n      iszero\n      tag_394\n      jumpi\n      returndatasize\n      0x00\n      dup1\n      returndatacopy\n      revert(0x00, returndatasize)\n    tag_394:\n      pop\n      pop\n      pop\n      pop\n      mload(0x40)\n      returndatasize\n      not(0x1f)\n      0x1f\n      dup3\n      add\n      and\n      dup3\n      add\n      dup1\n      0x40\n      mstore\n      pop\n      dup2\n      add\n      swap1\n      tag_395\n      swap2\n      swap1\n      tag_127\n      jump\t// in\n    tag_395:\n        /* \"Gallery.sol\":8214:8221  request */\n      dup4\n        /* \"Gallery.sol\":8214:8231  request.wallOwner */\n      0x01\n      add\n      0x00\n      swap1\n      sload\n      swap1\n      0x0100\n      exp\n      swap1\n      div\n      0xffffffffffffffffffffffffffffffffffffffff\n      and\n        /* \"Gallery.sol\":8163:8232  roleManager.hasRole(roleManager.WALL_OWNER_ROLE(), request.wallOwner) */\n      mload(0x40)\n      dup4\n      0xffffffff\n      and\n      0xe0\n      shl\n      dup2\n      mstore\n      0x04\n      add\n      tag_396\n      swap3\n      swap2\n      swap1\n      tag_129\n      jump\t// in\n    tag_396:\n      0x20\n      mload(0x40)\n      dup1\n      dup4\n      sub\n      dup2\n      dup7\n      gas\n      staticcall\n      iszero\n      dup1\n      iszero\n      tag_398\n      jumpi\n      returndatasize\n      0x00\n      dup1\n      returndatacopy\n      revert(0x00, returndatasize)\n    tag_398:\n      pop\n      pop\n      pop\n      pop\n      mload(0x40)\n      returndatasize\n      not(0x1f)\n      0x1f\n      dup3\n      add\n      and\n      dup3\n      add\n      dup1\n      0x40\n      mstore\n      pop\n      dup2\n      add\n      swap1\n      tag_399\n      swap2\n      swap1\n      tag_133\n      jump\t// in\n    tag_399:\n        /* \"Gallery.sol\":8155:8295  require(roleManager.hasRole(roleManager.WALL_OWNER_ROLE(), request.wallOwner), ... */\n      tag_400\n      jumpi\n      mload(0x40)\n      0x08c379a000000000000000000000000000000000000000000000000000000000\n      dup2\n      mstore\n      0x04\n      add\n      tag_401\n      swap1\n      tag_402\n      jump\t// in\n    tag_401:\n      mload(0x40)\n      dup1\n      swap2\n      sub\n      swap1\n      revert\n    tag_400:\n        /* \"Gallery.sol\":8326:8331  false */\n      0x00\n        /* \"Gallery.sol\":8308:8315  request */\n      dup2\n        /* \"Gallery.sol\":8308:8323  request.pending */\n      0x03\n      add\n      0x00\n        /* \"Gallery.sol\":8308:8331  request.pending = false */\n      0x0100\n      exp\n      dup2\n      sload\n      dup2\n      0xff\n      mul\n      not\n      and\n      swap1\n      dup4\n      iszero\n      iszero\n      mul\n      or\n      swap1\n      sstore\n      pop\n        /* \"Gallery.sol\":8361:8365  true */\n      0x01\n        /* \"Gallery.sol\":8342:8349  request */\n      dup2\n        /* \"Gallery.sol\":8342:8358  request.approved */\n      0x03\n      add\n      0x01\n        /* \"Gallery.sol\":8342:8365  request.approved = true */\n      0x0100\n      exp\n      dup2\n      sload\n      dup2\n      0xff\n      mul\n      not\n      and\n      swap1\n      dup4\n      iszero\n      iszero\n      mul\n      or\n      swap1\n      sstore\n      pop\n        /* \"Gallery.sol\":8386:8398  wallContract */\n      0x01\n      0x00\n      swap1\n      sload\n      swap1\n      0x0100\n      exp\n      swap1\n      div\n      0xffffffffffffffffffffffffffffffffffffffff\n      and\n        /* \"Gallery.sol\":8386:8415  wallContract.setGalleryStatus */\n      0xffffffffffffffffffffffffffffffffffffffff\n      and\n      0xce290e1d\n        /* \"Gallery.sol\":8416:8422  wallId */\n      dup5\n        /* \"Gallery.sol\":8424:8433  galleryId */\n      dup7\n        /* \"Gallery.sol\":8435:8439  true */\n      0x01\n        /* \"Gallery.sol\":8386:8440  wallContract.setGalleryStatus(wallId, galleryId, true) */\n      mload(0x40)\n      dup5\n      0xffffffff\n      and\n      0xe0\n      shl\n      dup2\n      mstore\n      0x04\n      add\n      tag_403\n      swap4\n      swap3\n      swap2\n      swap1\n      tag_404\n      jump\t// in\n    tag_403:\n      0x00\n      mload(0x40)\n      dup1\n      dup4\n      sub\n      dup2\n      0x00\n      dup8\n      dup1\n      extcodesize\n      iszero\n      dup1\n      iszero\n      tag_405\n      jumpi\n      0x00\n      dup1\n      revert\n    tag_405:\n      pop\n      gas\n      call\n      iszero\n      dup1\n      iszero\n      tag_407\n      jumpi\n      returndatasize\n      0x00\n      dup1\n      returndatacopy\n      revert(0x00, returndatasize)\n    tag_407:\n      pop\n      pop\n      pop\n      pop\n        /* \"Gallery.sol\":8451:8463  galleryWalls */\n      0x07\n        /* \"Gallery.sol\":8451:8474  galleryWalls[galleryId] */\n      0x00\n        /* \"Gallery.sol\":8464:8473  galleryId */\n      dup6\n        /* \"Gallery.sol\":8451:8474  galleryWalls[galleryId] */\n      dup2\n      mstore\n      0x20\n      add\n      swap1\n      dup2\n      mstore\n      0x20\n      add\n      0x00\n      keccak256\n        /* \"Gallery.sol\":8480:8486  wallId */\n      dup4\n        /* \"Gallery.sol\":8451:8487  galleryWalls[galleryId].push(wallId) */\n      swap1\n      dup1\n      0x01\n      dup2\n      sload\n      add\n      dup1\n      dup3\n      sstore\n      dup1\n      swap2\n      pop\n      pop\n      0x01\n      swap1\n      sub\n      swap1\n      0x00\n      mstore\n      keccak256(0x00, 0x20)\n      add\n      0x00\n      swap1\n      swap2\n      swap1\n      swap2\n      swap1\n      swap2\n      pop\n      sstore\n        /* \"Gallery.sol\":8545:8551  wallId */\n      dup3\n        /* \"Gallery.sol\":8534:8543  galleryId */\n      dup5\n        /* \"Gallery.sol\":8505:8552  WallToGalleryRequestApproved(galleryId, wallId) */\n      0xdc2149b93c86806566c8fa4d25318ab9dd1b921d334a786bea5e3ca461e8e2b4\n      mload(0x40)\n      mload(0x40)\n      dup1\n      swap2\n      sub\n      swap1\n      log3\n        /* \"Gallery.sol\":7996:8560  {... */\n      pop\n        /* \"Gallery.sol\":7844:8560  function approveWallToGallery(uint256 galleryId, uint256 wallId) ... */\n      pop\n      pop\n      pop\n      jump\t// out\n        /* \"@openzeppelin/contracts/security/Pausable.sol\":2433:2550  function _unpause() internal virtual whenPaused {... */\n    tag_154:\n        /* \"@openzeppelin/contracts/security/Pausable.sol\":1486:1502  _requirePaused() */\n      tag_410\n        /* \"@openzeppelin/contracts/security/Pausable.sol\":1486:1500  _requirePaused */\n      tag_411\n        /* \"@openzeppelin/contracts/security/Pausable.sol\":1486:1502  _requirePaused() */\n      jump\t// in\n    tag_410:\n        /* \"@openzeppelin/contracts/security/Pausable.sol\":2501:2506  false */\n      0x00\n        /* \"@openzeppelin/contracts/security/Pausable.sol\":2491:2498  _paused */\n      dup1\n      0x00\n        /* \"@openzeppelin/contracts/security/Pausable.sol\":2491:2506  _paused = false */\n      0x0100\n      exp\n      dup2\n      sload\n      dup2\n      0xff\n      mul\n      not\n      and\n      swap1\n      dup4\n      iszero\n      iszero\n      mul\n      or\n      swap1\n      sstore\n      pop\n        /* \"@openzeppelin/contracts/security/Pausable.sol\":2521:2543  Unpaused(_msgSender()) */\n      0x5db9ee0a495bf2e6ff9c91a7834c1ba4fdd244a5e8aa4e537bd38aeae4b073aa\n        /* \"@openzeppelin/contracts/security/Pausable.sol\":2530:2542  _msgSender() */\n      tag_413\n        /* \"@openzeppelin/contracts/security/Pausable.sol\":2530:2540  _msgSender */\n      tag_414\n        /* \"@openzeppelin/contracts/security/Pausable.sol\":2530:2542  _msgSender() */\n      jump\t// in\n    tag_413:\n        /* \"@openzeppelin/contracts/security/Pausable.sol\":2521:2543  Unpaused(_msgSender()) */\n      mload(0x40)\n      tag_415\n      swap2\n      swap1\n      tag_416\n      jump\t// in\n    tag_415:\n      mload(0x40)\n      dup1\n      swap2\n      sub\n      swap1\n      log1\n        /* \"@openzeppelin/contracts/security/Pausable.sol\":2433:2550  function _unpause() internal virtual whenPaused {... */\n      jump\t// out\n        /* \"@openzeppelin/contracts/security/Pausable.sol\":1767:1873  function _requireNotPaused() internal view virtual {... */\n    tag_161:\n        /* \"@openzeppelin/contracts/security/Pausable.sol\":1837:1845  paused() */\n      tag_418\n        /* \"@openzeppelin/contracts/security/Pausable.sol\":1837:1843  paused */\n      tag_55\n        /* \"@openzeppelin/contracts/security/Pausable.sol\":1837:1845  paused() */\n      jump\t// in\n    tag_418:\n        /* \"@openzeppelin/contracts/security/Pausable.sol\":1836:1845  !paused() */\n      iszero\n        /* \"@openzeppelin/contracts/security/Pausable.sol\":1828:1866  require(!paused(), \"Pausable: paused\") */\n      tag_419\n      jumpi\n      mload(0x40)\n      0x08c379a000000000000000000000000000000000000000000000000000000000\n      dup2\n      mstore\n      0x04\n      add\n      tag_420\n      swap1\n      tag_421\n      jump\t// in\n    tag_420:\n      mload(0x40)\n      dup1\n      swap2\n      sub\n      swap1\n      revert\n    tag_419:\n        /* \"@openzeppelin/contracts/security/Pausable.sol\":1767:1873  function _requireNotPaused() internal view virtual {... */\n      jump\t// out\n        /* \"Gallery.sol\":9486:9852  function _removeWallFromGallery(uint256 galleryId, uint256 wallId) private {... */\n    tag_184:\n        /* \"Gallery.sol\":9572:9595  uint256[] storage walls */\n      0x00\n        /* \"Gallery.sol\":9598:9610  galleryWalls */\n      0x07\n        /* \"Gallery.sol\":9598:9621  galleryWalls[galleryId] */\n      0x00\n        /* \"Gallery.sol\":9611:9620  galleryId */\n      dup5\n        /* \"Gallery.sol\":9598:9621  galleryWalls[galleryId] */\n      dup2\n      mstore\n      0x20\n      add\n      swap1\n      dup2\n      mstore\n      0x20\n      add\n      0x00\n      keccak256\n        /* \"Gallery.sol\":9572:9621  uint256[] storage walls = galleryWalls[galleryId] */\n      swap1\n      pop\n        /* \"Gallery.sol\":9637:9643  uint i */\n      0x00\n        /* \"Gallery.sol\":9632:9845  for (uint i = 0; i < walls.length; i++) {... */\n    tag_423:\n        /* \"Gallery.sol\":9653:9658  walls */\n      dup2\n        /* \"Gallery.sol\":9653:9665  walls.length */\n      dup1\n      sload\n      swap1\n      pop\n        /* \"Gallery.sol\":9649:9650  i */\n      dup2\n        /* \"Gallery.sol\":9649:9665  i < walls.length */\n      lt\n        /* \"Gallery.sol\":9632:9845  for (uint i = 0; i < walls.length; i++) {... */\n      iszero\n      tag_424\n      jumpi\n        /* \"Gallery.sol\":9703:9709  wallId */\n      dup3\n        /* \"Gallery.sol\":9691:9696  walls */\n      dup3\n        /* \"Gallery.sol\":9697:9698  i */\n      dup3\n        /* \"Gallery.sol\":9691:9699  walls[i] */\n      dup2\n      sload\n      dup2\n      lt\n      tag_426\n      jumpi\n      tag_427\n      tag_428\n      jump\t// in\n    tag_427:\n    tag_426:\n      swap1\n      0x00\n      mstore\n      keccak256(0x00, 0x20)\n      add\n      sload\n        /* \"Gallery.sol\":9691:9709  walls[i] == wallId */\n      sub\n        /* \"Gallery.sol\":9687:9834  if (walls[i] == wallId) {... */\n      tag_430\n      jumpi\n        /* \"Gallery.sol\":9741:9746  walls */\n      dup2\n        /* \"Gallery.sol\":9762:9763  1 */\n      0x01\n        /* \"Gallery.sol\":9747:9752  walls */\n      dup4\n        /* \"Gallery.sol\":9747:9759  walls.length */\n      dup1\n      sload\n      swap1\n      pop\n        /* \"Gallery.sol\":9747:9763  walls.length - 1 */\n      tag_431\n      swap2\n      swap1\n      tag_432\n      jump\t// in\n    tag_431:\n        /* \"Gallery.sol\":9741:9764  walls[walls.length - 1] */\n      dup2\n      sload\n      dup2\n      lt\n      tag_433\n      jumpi\n      tag_434\n      tag_428\n      jump\t// in\n    tag_434:\n    tag_433:\n      swap1\n      0x00\n      mstore\n      keccak256(0x00, 0x20)\n      add\n      sload\n        /* \"Gallery.sol\":9730:9735  walls */\n      dup3\n        /* \"Gallery.sol\":9736:9737  i */\n      dup3\n        /* \"Gallery.sol\":9730:9738  walls[i] */\n      dup2\n      sload\n      dup2\n      lt\n      tag_436\n      jumpi\n      tag_437\n      tag_428\n      jump\t// in\n    tag_437:\n    tag_436:\n      swap1\n      0x00\n      mstore\n      keccak256(0x00, 0x20)\n      add\n        /* \"Gallery.sol\":9730:9764  walls[i] = walls[walls.length - 1] */\n      dup2\n      swap1\n      sstore\n      pop\n        /* \"Gallery.sol\":9783:9788  walls */\n      dup2\n        /* \"Gallery.sol\":9783:9794  walls.pop() */\n      dup1\n      sload\n      dup1\n      tag_439\n      jumpi\n      tag_440\n      tag_441\n      jump\t// in\n    tag_440:\n    tag_439:\n      0x01\n      swap1\n      sub\n      dup2\n      dup2\n      swap1\n      0x00\n      mstore\n      keccak256(0x00, 0x20)\n      add\n      0x00\n      swap1\n      sstore\n      swap1\n      sstore\n        /* \"Gallery.sol\":9813:9818  break */\n      jump(tag_424)\n        /* \"Gallery.sol\":9687:9834  if (walls[i] == wallId) {... */\n    tag_430:\n        /* \"Gallery.sol\":9667:9670  i++ */\n      dup1\n      dup1\n      tag_443\n      swap1\n      tag_444\n      jump\t// in\n    tag_443:\n      swap2\n      pop\n      pop\n        /* \"Gallery.sol\":9632:9845  for (uint i = 0; i < walls.length; i++) {... */\n      jump(tag_423)\n    tag_424:\n      pop\n        /* \"Gallery.sol\":9561:9852  {... */\n      pop\n        /* \"Gallery.sol\":9486:9852  function _removeWallFromGallery(uint256 galleryId, uint256 wallId) private {... */\n      pop\n      pop\n      jump\t// out\n        /* \"@openzeppelin/contracts/security/Pausable.sol\":2186:2301  function _pause() internal virtual whenNotPaused {... */\n    tag_202:\n        /* \"@openzeppelin/contracts/security/Pausable.sol\":1239:1258  _requireNotPaused() */\n      tag_446\n        /* \"@openzeppelin/contracts/security/Pausable.sol\":1239:1256  _requireNotPaused */\n      tag_161\n        /* \"@openzeppelin/contracts/security/Pausable.sol\":1239:1258  _requireNotPaused() */\n      jump\t// in\n    tag_446:\n        /* \"@openzeppelin/contracts/security/Pausable.sol\":2255:2259  true */\n      0x01\n        /* \"@openzeppelin/contracts/security/Pausable.sol\":2245:2252  _paused */\n      0x00\n      dup1\n        /* \"@openzeppelin/contracts/security/Pausable.sol\":2245:2259  _paused = true */\n      0x0100\n      exp\n      dup2\n      sload\n      dup2\n      0xff\n      mul\n      not\n      and\n      swap1\n      dup4\n      iszero\n      iszero\n      mul\n      or\n      swap1\n      sstore\n      pop\n        /* \"@openzeppelin/contracts/security/Pausable.sol\":2274:2294  Paused(_msgSender()) */\n      0x62e78cea01bee320cd4e420270b5ea74000d11b0c9f74754ebdbfc544b05a258\n        /* \"@openzeppelin/contracts/security/Pausable.sol\":2281:2293  _msgSender() */\n      tag_448\n        /* \"@openzeppelin/contracts/security/Pausable.sol\":2281:2291  _msgSender */\n      tag_414\n        /* \"@openzeppelin/contracts/security/Pausable.sol\":2281:2293  _msgSender() */\n      jump\t// in\n    tag_448:\n        /* \"@openzeppelin/contracts/security/Pausable.sol\":2274:2294  Paused(_msgSender()) */\n      mload(0x40)\n      tag_449\n      swap2\n      swap1\n      tag_416\n      jump\t// in\n    tag_449:\n      mload(0x40)\n      dup1\n      swap2\n      sub\n      swap1\n      log1\n        /* \"@openzeppelin/contracts/security/Pausable.sol\":2186:2301  function _pause() internal virtual whenNotPaused {... */\n      jump\t// out\n        /* \"@openzeppelin/contracts/utils/Counters.sol\":827:939  function current(Counter storage counter) internal view returns (uint256) {... */\n    tag_279:\n        /* \"@openzeppelin/contracts/utils/Counters.sol\":892:899  uint256 */\n      0x00\n        /* \"@openzeppelin/contracts/utils/Counters.sol\":918:925  counter */\n      dup2\n        /* \"@openzeppelin/contracts/utils/Counters.sol\":918:932  counter._value */\n      0x00\n      add\n      sload\n        /* \"@openzeppelin/contracts/utils/Counters.sol\":911:932  return counter._value */\n      swap1\n      pop\n        /* \"@openzeppelin/contracts/utils/Counters.sol\":827:939  function current(Counter storage counter) internal view returns (uint256) {... */\n      swap2\n      swap1\n      pop\n      jump\t// out\n        /* \"@openzeppelin/contracts/utils/Counters.sol\":945:1068  function increment(Counter storage counter) internal {... */\n    tag_281:\n        /* \"@openzeppelin/contracts/utils/Counters.sol\":1050:1051  1 */\n      0x01\n        /* \"@openzeppelin/contracts/utils/Counters.sol\":1032:1039  counter */\n      dup2\n        /* \"@openzeppelin/contracts/utils/Counters.sol\":1032:1046  counter._value */\n      0x00\n      add\n      0x00\n        /* \"@openzeppelin/contracts/utils/Counters.sol\":1032:1051  counter._value += 1 */\n      dup3\n      dup3\n      sload\n      add\n      swap3\n      pop\n      pop\n      dup2\n      swap1\n      sstore\n      pop\n        /* \"@openzeppelin/contracts/utils/Counters.sol\":945:1068  function increment(Counter storage counter) internal {... */\n      pop\n      jump\t// out\n        /* \"@openzeppelin/contracts/security/Pausable.sol\":1945:2051  function _requirePaused() internal view virtual {... */\n    tag_411:\n        /* \"@openzeppelin/contracts/security/Pausable.sol\":2011:2019  paused() */\n      tag_453\n        /* \"@openzeppelin/contracts/security/Pausable.sol\":2011:2017  paused */\n      tag_55\n        /* \"@openzeppelin/contracts/security/Pausable.sol\":2011:2019  paused() */\n      jump\t// in\n    tag_453:\n        /* \"@openzeppelin/contracts/security/Pausable.sol\":2003:2044  require(paused(), \"Pausable: not paused\") */\n      tag_454\n      jumpi\n      mload(0x40)\n      0x08c379a000000000000000000000000000000000000000000000000000000000\n      dup2\n      mstore\n      0x04\n      add\n      tag_455\n      swap1\n      tag_456\n      jump\t// in\n    tag_455:\n      mload(0x40)\n      dup1\n      swap2\n      sub\n      swap1\n      revert\n    tag_454:\n        /* \"@openzeppelin/contracts/security/Pausable.sol\":1945:2051  function _requirePaused() internal view virtual {... */\n      jump\t// out\n        /* \"@openzeppelin/contracts/utils/Context.sol\":656:752  function _msgSender() internal view virtual returns (address) {... */\n    tag_414:\n        /* \"@openzeppelin/contracts/utils/Context.sol\":709:716  address */\n      0x00\n        /* \"@openzeppelin/contracts/utils/Context.sol\":735:745  msg.sender */\n      caller\n        /* \"@openzeppelin/contracts/utils/Context.sol\":728:745  return msg.sender */\n      swap1\n      pop\n        /* \"@openzeppelin/contracts/utils/Context.sol\":656:752  function _msgSender() internal view virtual returns (address) {... */\n      swap1\n      jump\t// out\n    tag_292:\n      mload(0x40)\n      dup1\n      0x0120\n      add\n      0x40\n      mstore\n      dup1\n      0x00\n      dup2\n      mstore\n      0x20\n      add\n      0x60\n      dup2\n      mstore\n      0x20\n      add\n      0x60\n      dup2\n      mstore\n      0x20\n      add\n      tag_458\n      tag_459\n      jump\t// in\n    tag_458:\n      dup2\n      mstore\n      0x20\n      add\n      and(0xffffffffffffffffffffffffffffffffffffffff, 0x00)\n      dup2\n      mstore\n      0x20\n      add\n      0x00\n      dup2\n      mstore\n      0x20\n      add\n      iszero(iszero(0x00))\n      dup2\n      mstore\n      0x20\n      add\n      0x00\n      dup2\n      mstore\n      0x20\n      add\n      0x00\n      dup2\n      mstore\n      pop\n      swap1\n      jump\t// out\n    tag_459:\n      mload(0x40)\n      dup1\n      0x80\n      add\n      0x40\n      mstore\n      dup1\n      0x60\n      dup2\n      mstore\n      0x20\n      add\n      0x60\n      dup2\n      mstore\n      0x20\n      add\n      0x00\n      dup2\n      mstore\n      0x20\n      add\n      0x00\n      dup2\n      mstore\n      pop\n      swap1\n      jump\t// out\n        /* \"#utility.yul\":7:133   */\n    tag_460:\n        /* \"#utility.yul\":44:51   */\n      0x00\n        /* \"#utility.yul\":84:126   */\n      0xffffffffffffffffffffffffffffffffffffffff\n        /* \"#utility.yul\":77:82   */\n      dup3\n        /* \"#utility.yul\":73:127   */\n      and\n        /* \"#utility.yul\":62:127   */\n      swap1\n      pop\n        /* \"#utility.yul\":7:133   */\n      swap2\n      swap1\n      pop\n      jump\t// out\n        /* \"#utility.yul\":139:199   */\n    tag_461:\n        /* \"#utility.yul\":167:170   */\n      0x00\n        /* \"#utility.yul\":188:193   */\n      dup2\n        /* \"#utility.yul\":181:193   */\n      swap1\n      pop\n        /* \"#utility.yul\":139:199   */\n      swap2\n      swap1\n      pop\n      jump\t// out\n        /* \"#utility.yul\":205:347   */\n    tag_462:\n        /* \"#utility.yul\":255:264   */\n      0x00\n        /* \"#utility.yul\":288:341   */\n      tag_570\n        /* \"#utility.yul\":306:340   */\n      tag_571\n        /* \"#utility.yul\":315:339   */\n      tag_572\n        /* \"#utility.yul\":333:338   */\n      dup5\n        /* \"#utility.yul\":315:339   */\n      tag_460\n      jump\t// in\n    tag_572:\n        /* \"#utility.yul\":306:340   */\n      tag_461\n      jump\t// in\n    tag_571:\n        /* \"#utility.yul\":288:341   */\n      tag_460\n      jump\t// in\n    tag_570:\n        /* \"#utility.yul\":275:341   */\n      swap1\n      pop\n        /* \"#utility.yul\":205:347   */\n      swap2\n      swap1\n      pop\n      jump\t// out\n        /* \"#utility.yul\":353:479   */\n    tag_463:\n        /* \"#utility.yul\":403:412   */\n      0x00\n        /* \"#utility.yul\":436:473   */\n      tag_574\n        /* \"#utility.yul\":467:472   */\n      dup3\n        /* \"#utility.yul\":436:473   */\n      tag_462\n      jump\t// in\n    tag_574:\n        /* \"#utility.yul\":423:473   */\n      swap1\n      pop\n        /* \"#utility.yul\":353:479   */\n      swap2\n      swap1\n      pop\n      jump\t// out\n        /* \"#utility.yul\":485:631   */\n    tag_464:\n        /* \"#utility.yul\":555:564   */\n      0x00\n        /* \"#utility.yul\":588:625   */\n      tag_576\n        /* \"#utility.yul\":619:624   */\n      dup3\n        /* \"#utility.yul\":588:625   */\n      tag_463\n      jump\t// in\n    tag_576:\n        /* \"#utility.yul\":575:625   */\n      swap1\n      pop\n        /* \"#utility.yul\":485:631   */\n      swap2\n      swap1\n      pop\n      jump\t// out\n        /* \"#utility.yul\":637:808   */\n    tag_465:\n        /* \"#utility.yul\":744:801   */\n      tag_578\n        /* \"#utility.yul\":795:800   */\n      dup2\n        /* \"#utility.yul\":744:801   */\n      tag_464\n      jump\t// in\n    tag_578:\n        /* \"#utility.yul\":739:742   */\n      dup3\n        /* \"#utility.yul\":732:802   */\n      mstore\n        /* \"#utility.yul\":637:808   */\n      pop\n      pop\n      jump\t// out\n        /* \"#utility.yul\":814:1076   */\n    tag_29:\n        /* \"#utility.yul\":927:931   */\n      0x00\n        /* \"#utility.yul\":965:967   */\n      0x20\n        /* \"#utility.yul\":954:963   */\n      dup3\n        /* \"#utility.yul\":950:968   */\n      add\n        /* \"#utility.yul\":942:968   */\n      swap1\n      pop\n        /* \"#utility.yul\":978:1069   */\n      tag_580\n        /* \"#utility.yul\":1066:1067   */\n      0x00\n        /* \"#utility.yul\":1055:1064   */\n      dup4\n        /* \"#utility.yul\":1051:1068   */\n      add\n        /* \"#utility.yul\":1042:1048   */\n      dup5\n        /* \"#utility.yul\":978:1069   */\n      tag_465\n      jump\t// in\n    tag_580:\n        /* \"#utility.yul\":814:1076   */\n      swap3\n      swap2\n      pop\n      pop\n      jump\t// out\n        /* \"#utility.yul\":1163:1280   */\n    tag_467:\n        /* \"#utility.yul\":1272:1273   */\n      0x00\n        /* \"#utility.yul\":1269:1270   */\n      dup1\n        /* \"#utility.yul\":1262:1274   */\n      revert\n        /* \"#utility.yul\":1286:1403   */\n    tag_468:\n        /* \"#utility.yul\":1395:1396   */\n      0x00\n        /* \"#utility.yul\":1392:1393   */\n      dup1\n        /* \"#utility.yul\":1385:1397   */\n      revert\n        /* \"#utility.yul\":1409:1486   */\n    tag_469:\n        /* \"#utility.yul\":1446:1453   */\n      0x00\n        /* \"#utility.yul\":1475:1480   */\n      dup2\n        /* \"#utility.yul\":1464:1480   */\n      swap1\n      pop\n        /* \"#utility.yul\":1409:1486   */\n      swap2\n      swap1\n      pop\n      jump\t// out\n        /* \"#utility.yul\":1492:1614   */\n    tag_470:\n        /* \"#utility.yul\":1565:1589   */\n      tag_586\n        /* \"#utility.yul\":1583:1588   */\n      dup2\n        /* \"#utility.yul\":1565:1589   */\n      tag_469\n      jump\t// in\n    tag_586:\n        /* \"#utility.yul\":1558:1563   */\n      dup2\n        /* \"#utility.yul\":1555:1590   */\n      eq\n        /* \"#utility.yul\":1545:1608   */\n      tag_587\n      jumpi\n        /* \"#utility.yul\":1604:1605   */\n      0x00\n        /* \"#utility.yul\":1601:1602   */\n      dup1\n        /* \"#utility.yul\":1594:1606   */\n      revert\n        /* \"#utility.yul\":1545:1608   */\n    tag_587:\n        /* \"#utility.yul\":1492:1614   */\n      pop\n      jump\t// out\n        /* \"#utility.yul\":1620:1759   */\n    tag_471:\n        /* \"#utility.yul\":1666:1671   */\n      0x00\n        /* \"#utility.yul\":1704:1710   */\n      dup2\n        /* \"#utility.yul\":1691:1711   */\n      calldataload\n        /* \"#utility.yul\":1682:1711   */\n      swap1\n      pop\n        /* \"#utility.yul\":1720:1753   */\n      tag_589\n        /* \"#utility.yul\":1747:1752   */\n      dup2\n        /* \"#utility.yul\":1720:1753   */\n      tag_470\n      jump\t// in\n    tag_589:\n        /* \"#utility.yul\":1620:1759   */\n      swap3\n      swap2\n      pop\n      pop\n      jump\t// out\n        /* \"#utility.yul\":1765:2094   */\n    tag_32:\n        /* \"#utility.yul\":1824:1830   */\n      0x00\n        /* \"#utility.yul\":1873:1875   */\n      0x20\n        /* \"#utility.yul\":1861:1870   */\n      dup3\n        /* \"#utility.yul\":1852:1859   */\n      dup5\n        /* \"#utility.yul\":1848:1871   */\n      sub\n        /* \"#utility.yul\":1844:1876   */\n      slt\n        /* \"#utility.yul\":1841:1960   */\n      iszero\n      tag_591\n      jumpi\n        /* \"#utility.yul\":1879:1958   */\n      tag_592\n      tag_467\n      jump\t// in\n    tag_592:\n        /* \"#utility.yul\":1841:1960   */\n    tag_591:\n        /* \"#utility.yul\":1999:2000   */\n      0x00\n        /* \"#utility.yul\":2024:2077   */\n      tag_593\n        /* \"#utility.yul\":2069:2076   */\n      dup5\n        /* \"#utility.yul\":2060:2066   */\n      dup3\n        /* \"#utility.yul\":2049:2058   */\n      dup6\n        /* \"#utility.yul\":2045:2067   */\n      add\n        /* \"#utility.yul\":2024:2077   */\n      tag_471\n      jump\t// in\n    tag_593:\n        /* \"#utility.yul\":2014:2077   */\n      swap2\n      pop\n        /* \"#utility.yul\":1970:2087   */\n      pop\n        /* \"#utility.yul\":1765:2094   */\n      swap3\n      swap2\n      pop\n      pop\n      jump\t// out\n        /* \"#utility.yul\":2100:2218   */\n    tag_472:\n        /* \"#utility.yul\":2187:2211   */\n      tag_595\n        /* \"#utility.yul\":2205:2210   */\n      dup2\n        /* \"#utility.yul\":2187:2211   */\n      tag_469\n      jump\t// in\n    tag_595:\n        /* \"#utility.yul\":2182:2185   */\n      dup3\n        /* \"#utility.yul\":2175:2212   */\n      mstore\n        /* \"#utility.yul\":2100:2218   */\n      pop\n      pop\n      jump\t// out\n        /* \"#utility.yul\":2224:2323   */\n    tag_473:\n        /* \"#utility.yul\":2276:2282   */\n      0x00\n        /* \"#utility.yul\":2310:2315   */\n      dup2\n        /* \"#utility.yul\":2304:2316   */\n      mload\n        /* \"#utility.yul\":2294:2316   */\n      swap1\n      pop\n        /* \"#utility.yul\":2224:2323   */\n      swap2\n      swap1\n      pop\n      jump\t// out\n        /* \"#utility.yul\":2329:2498   */\n    tag_474:\n        /* \"#utility.yul\":2413:2424   */\n      0x00\n        /* \"#utility.yul\":2447:2453   */\n      dup3\n        /* \"#utility.yul\":2442:2445   */\n      dup3\n        /* \"#utility.yul\":2435:2454   */\n      mstore\n        /* \"#utility.yul\":2487:2491   */\n      0x20\n        /* \"#utility.yul\":2482:2485   */\n      dup3\n        /* \"#utility.yul\":2478:2492   */\n      add\n        /* \"#utility.yul\":2463:2492   */\n      swap1\n      pop\n        /* \"#utility.yul\":2329:2498   */\n      swap3\n      swap2\n      pop\n      pop\n      jump\t// out\n        /* \"#utility.yul\":2504:2750   */\n    tag_475:\n        /* \"#utility.yul\":2585:2586   */\n      0x00\n        /* \"#utility.yul\":2595:2708   */\n    tag_599:\n        /* \"#utility.yul\":2609:2615   */\n      dup4\n        /* \"#utility.yul\":2606:2607   */\n      dup2\n        /* \"#utility.yul\":2603:2616   */\n      lt\n        /* \"#utility.yul\":2595:2708   */\n      iszero\n      tag_601\n      jumpi\n        /* \"#utility.yul\":2694:2695   */\n      dup1\n        /* \"#utility.yul\":2689:2692   */\n      dup3\n        /* \"#utility.yul\":2685:2696   */\n      add\n        /* \"#utility.yul\":2679:2697   */\n      mload\n        /* \"#utility.yul\":2675:2676   */\n      dup2\n        /* \"#utility.yul\":2670:2673   */\n      dup5\n        /* \"#utility.yul\":2666:2677   */\n      add\n        /* \"#utility.yul\":2659:2698   */\n      mstore\n        /* \"#utility.yul\":2631:2633   */\n      0x20\n        /* \"#utility.yul\":2628:2629   */\n      dup2\n        /* \"#utility.yul\":2624:2634   */\n      add\n        /* \"#utility.yul\":2619:2634   */\n      swap1\n      pop\n        /* \"#utility.yul\":2595:2708   */\n      jump(tag_599)\n    tag_601:\n        /* \"#utility.yul\":2742:2743   */\n      0x00\n        /* \"#utility.yul\":2733:2739   */\n      dup5\n        /* \"#utility.yul\":2728:2731   */\n      dup5\n        /* \"#utility.yul\":2724:2740   */\n      add\n        /* \"#utility.yul\":2717:2744   */\n      mstore\n        /* \"#utility.yul\":2566:2750   */\n      pop\n        /* \"#utility.yul\":2504:2750   */\n      pop\n      pop\n      pop\n      jump\t// out\n        /* \"#utility.yul\":2756:2858   */\n    tag_476:\n        /* \"#utility.yul\":2797:2803   */\n      0x00\n        /* \"#utility.yul\":2848:2850   */\n      0x1f\n        /* \"#utility.yul\":2844:2851   */\n      not\n        /* \"#utility.yul\":2839:2841   */\n      0x1f\n        /* \"#utility.yul\":2832:2837   */\n      dup4\n        /* \"#utility.yul\":2828:2842   */\n      add\n        /* \"#utility.yul\":2824:2852   */\n      and\n        /* \"#utility.yul\":2814:2852   */\n      swap1\n      pop\n        /* \"#utility.yul\":2756:2858   */\n      swap2\n      swap1\n      pop\n      jump\t// out\n        /* \"#utility.yul\":2864:3241   */\n    tag_477:\n        /* \"#utility.yul\":2952:2955   */\n      0x00\n        /* \"#utility.yul\":2980:3019   */\n      tag_604\n        /* \"#utility.yul\":3013:3018   */\n      dup3\n        /* \"#utility.yul\":2980:3019   */\n      tag_473\n      jump\t// in\n    tag_604:\n        /* \"#utility.yul\":3035:3106   */\n      tag_605\n        /* \"#utility.yul\":3099:3105   */\n      dup2\n        /* \"#utility.yul\":3094:3097   */\n      dup6\n        /* \"#utility.yul\":3035:3106   */\n      tag_474\n      jump\t// in\n    tag_605:\n        /* \"#utility.yul\":3028:3106   */\n      swap4\n      pop\n        /* \"#utility.yul\":3115:3180   */\n      tag_606\n        /* \"#utility.yul\":3173:3179   */\n      dup2\n        /* \"#utility.yul\":3168:3171   */\n      dup6\n        /* \"#utility.yul\":3161:3165   */\n      0x20\n        /* \"#utility.yul\":3154:3159   */\n      dup7\n        /* \"#utility.yul\":3150:3166   */\n      add\n        /* \"#utility.yul\":3115:3180   */\n      tag_475\n      jump\t// in\n    tag_606:\n        /* \"#utility.yul\":3205:3234   */\n      tag_607\n        /* \"#utility.yul\":3227:3233   */\n      dup2\n        /* \"#utility.yul\":3205:3234   */\n      tag_476\n      jump\t// in\n    tag_607:\n        /* \"#utility.yul\":3200:3203   */\n      dup5\n        /* \"#utility.yul\":3196:3235   */\n      add\n        /* \"#utility.yul\":3189:3235   */\n      swap2\n      pop\n        /* \"#utility.yul\":2956:3241   */\n      pop\n        /* \"#utility.yul\":2864:3241   */\n      swap3\n      swap2\n      pop\n      pop\n      jump\t// out\n        /* \"#utility.yul\":3247:3406   */\n    tag_478:\n        /* \"#utility.yul\":3321:3332   */\n      0x00\n        /* \"#utility.yul\":3355:3361   */\n      dup3\n        /* \"#utility.yul\":3350:3353   */\n      dup3\n        /* \"#utility.yul\":3343:3362   */\n      mstore\n        /* \"#utility.yul\":3395:3399   */\n      0x20\n        /* \"#utility.yul\":3390:3393   */\n      dup3\n        /* \"#utility.yul\":3386:3400   */\n      add\n        /* \"#utility.yul\":3371:3400   */\n      swap1\n      pop\n        /* \"#utility.yul\":3247:3406   */\n      swap3\n      swap2\n      pop\n      pop\n      jump\t// out\n        /* \"#utility.yul\":3412:3769   */\n    tag_479:\n        /* \"#utility.yul\":3490:3493   */\n      0x00\n        /* \"#utility.yul\":3518:3557   */\n      tag_610\n        /* \"#utility.yul\":3551:3556   */\n      dup3\n        /* \"#utility.yul\":3518:3557   */\n      tag_473\n      jump\t// in\n    tag_610:\n        /* \"#utility.yul\":3573:3634   */\n      tag_611\n        /* \"#utility.yul\":3627:3633   */\n      dup2\n        /* \"#utility.yul\":3622:3625   */\n      dup6\n        /* \"#utility.yul\":3573:3634   */\n      tag_478\n      jump\t// in\n    tag_611:\n        /* \"#utility.yul\":3566:3634   */\n      swap4\n      pop\n        /* \"#utility.yul\":3643:3708   */\n      tag_612\n        /* \"#utility.yul\":3701:3707   */\n      dup2\n        /* \"#utility.yul\":3696:3699   */\n      dup6\n        /* \"#utility.yul\":3689:3693   */\n      0x20\n        /* \"#utility.yul\":3682:3687   */\n      dup7\n        /* \"#utility.yul\":3678:3694   */\n      add\n        /* \"#utility.yul\":3643:3708   */\n      tag_475\n      jump\t// in\n    tag_612:\n        /* \"#utility.yul\":3733:3762   */\n      tag_613\n        /* \"#utility.yul\":3755:3761   */\n      dup2\n        /* \"#utility.yul\":3733:3762   */\n      tag_476\n      jump\t// in\n    tag_613:\n        /* \"#utility.yul\":3728:3731   */\n      dup5\n        /* \"#utility.yul\":3724:3763   */\n      add\n        /* \"#utility.yul\":3717:3763   */\n      swap2\n      pop\n        /* \"#utility.yul\":3494:3769   */\n      pop\n        /* \"#utility.yul\":3412:3769   */\n      swap3\n      swap2\n      pop\n      pop\n      jump\t// out\n        /* \"#utility.yul\":3775:3851   */\n    tag_480:\n        /* \"#utility.yul\":3811:3818   */\n      0x00\n        /* \"#utility.yul\":3840:3845   */\n      dup2\n        /* \"#utility.yul\":3829:3845   */\n      swap1\n      pop\n        /* \"#utility.yul\":3775:3851   */\n      swap2\n      swap1\n      pop\n      jump\t// out\n        /* \"#utility.yul\":3857:3962   */\n    tag_481:\n        /* \"#utility.yul\":3932:3955   */\n      tag_616\n        /* \"#utility.yul\":3949:3954   */\n      dup2\n        /* \"#utility.yul\":3932:3955   */\n      tag_480\n      jump\t// in\n    tag_616:\n        /* \"#utility.yul\":3927:3930   */\n      dup3\n        /* \"#utility.yul\":3920:3956   */\n      mstore\n        /* \"#utility.yul\":3857:3962   */\n      pop\n      pop\n      jump\t// out\n        /* \"#utility.yul\":4026:5059   */\n    tag_482:\n        /* \"#utility.yul\":4145:4148   */\n      0x00\n        /* \"#utility.yul\":4181:4185   */\n      0x80\n        /* \"#utility.yul\":4176:4179   */\n      dup4\n        /* \"#utility.yul\":4172:4186   */\n      add\n        /* \"#utility.yul\":4268:4272   */\n      0x00\n        /* \"#utility.yul\":4261:4266   */\n      dup4\n        /* \"#utility.yul\":4257:4273   */\n      add\n        /* \"#utility.yul\":4251:4274   */\n      mload\n        /* \"#utility.yul\":4321:4324   */\n      dup5\n        /* \"#utility.yul\":4315:4319   */\n      dup3\n        /* \"#utility.yul\":4311:4325   */\n      sub\n        /* \"#utility.yul\":4304:4308   */\n      0x00\n        /* \"#utility.yul\":4299:4302   */\n      dup7\n        /* \"#utility.yul\":4295:4309   */\n      add\n        /* \"#utility.yul\":4288:4326   */\n      mstore\n        /* \"#utility.yul\":4347:4420   */\n      tag_618\n        /* \"#utility.yul\":4415:4419   */\n      dup3\n        /* \"#utility.yul\":4401:4413   */\n      dup3\n        /* \"#utility.yul\":4347:4420   */\n      tag_479\n      jump\t// in\n    tag_618:\n        /* \"#utility.yul\":4339:4420   */\n      swap2\n      pop\n        /* \"#utility.yul\":4196:4431   */\n      pop\n        /* \"#utility.yul\":4516:4520   */\n      0x20\n        /* \"#utility.yul\":4509:4514   */\n      dup4\n        /* \"#utility.yul\":4505:4521   */\n      add\n        /* \"#utility.yul\":4499:4522   */\n      mload\n        /* \"#utility.yul\":4569:4572   */\n      dup5\n        /* \"#utility.yul\":4563:4567   */\n      dup3\n        /* \"#utility.yul\":4559:4573   */\n      sub\n        /* \"#utility.yul\":4552:4556   */\n      0x20\n        /* \"#utility.yul\":4547:4550   */\n      dup7\n        /* \"#utility.yul\":4543:4557   */\n      add\n        /* \"#utility.yul\":4536:4574   */\n      mstore\n        /* \"#utility.yul\":4595:4668   */\n      tag_619\n        /* \"#utility.yul\":4663:4667   */\n      dup3\n        /* \"#utility.yul\":4649:4661   */\n      dup3\n        /* \"#utility.yul\":4595:4668   */\n      tag_479\n      jump\t// in\n    tag_619:\n        /* \"#utility.yul\":4587:4668   */\n      swap2\n      pop\n        /* \"#utility.yul\":4441:4679   */\n      pop\n        /* \"#utility.yul\":4766:4770   */\n      0x40\n        /* \"#utility.yul\":4759:4764   */\n      dup4\n        /* \"#utility.yul\":4755:4771   */\n      add\n        /* \"#utility.yul\":4749:4772   */\n      mload\n        /* \"#utility.yul\":4785:4846   */\n      tag_620\n        /* \"#utility.yul\":4840:4844   */\n      0x40\n        /* \"#utility.yul\":4835:4838   */\n      dup7\n        /* \"#utility.yul\":4831:4845   */\n      add\n        /* \"#utility.yul\":4817:4829   */\n      dup3\n        /* \"#utility.yul\":4785:4846   */\n      tag_481\n      jump\t// in\n    tag_620:\n        /* \"#utility.yul\":4689:4856   */\n      pop\n        /* \"#utility.yul\":4942:4946   */\n      0x60\n        /* \"#utility.yul\":4935:4940   */\n      dup4\n        /* \"#utility.yul\":4931:4947   */\n      add\n        /* \"#utility.yul\":4925:4948   */\n      mload\n        /* \"#utility.yul\":4961:5022   */\n      tag_621\n        /* \"#utility.yul\":5016:5020   */\n      0x60\n        /* \"#utility.yul\":5011:5014   */\n      dup7\n        /* \"#utility.yul\":5007:5021   */\n      add\n        /* \"#utility.yul\":4993:5005   */\n      dup3\n        /* \"#utility.yul\":4961:5022   */\n      tag_481\n      jump\t// in\n    tag_621:\n        /* \"#utility.yul\":4866:5032   */\n      pop\n        /* \"#utility.yul\":5049:5053   */\n      dup1\n        /* \"#utility.yul\":5042:5053   */\n      swap2\n      pop\n        /* \"#utility.yul\":4150:5059   */\n      pop\n        /* \"#utility.yul\":4026:5059   */\n      swap3\n      swap2\n      pop\n      pop\n      jump\t// out\n        /* \"#utility.yul\":5065:5161   */\n    tag_483:\n        /* \"#utility.yul\":5102:5109   */\n      0x00\n        /* \"#utility.yul\":5131:5155   */\n      tag_623\n        /* \"#utility.yul\":5149:5154   */\n      dup3\n        /* \"#utility.yul\":5131:5155   */\n      tag_460\n      jump\t// in\n    tag_623:\n        /* \"#utility.yul\":5120:5155   */\n      swap1\n      pop\n        /* \"#utility.yul\":5065:5161   */\n      swap2\n      swap1\n      pop\n      jump\t// out\n        /* \"#utility.yul\":5167:5285   */\n    tag_484:\n        /* \"#utility.yul\":5254:5278   */\n      tag_625\n        /* \"#utility.yul\":5272:5277   */\n      dup2\n        /* \"#utility.yul\":5254:5278   */\n      tag_483\n      jump\t// in\n    tag_625:\n        /* \"#utility.yul\":5249:5252   */\n      dup3\n        /* \"#utility.yul\":5242:5279   */\n      mstore\n        /* \"#utility.yul\":5167:5285   */\n      pop\n      pop\n      jump\t// out\n        /* \"#utility.yul\":5291:5381   */\n    tag_485:\n        /* \"#utility.yul\":5325:5332   */\n      0x00\n        /* \"#utility.yul\":5368:5373   */\n      dup2\n        /* \"#utility.yul\":5361:5374   */\n      iszero\n        /* \"#utility.yul\":5354:5375   */\n      iszero\n        /* \"#utility.yul\":5343:5375   */\n      swap1\n      pop\n        /* \"#utility.yul\":5291:5381   */\n      swap2\n      swap1\n      pop\n      jump\t// out\n        /* \"#utility.yul\":5387:5496   */\n    tag_486:\n        /* \"#utility.yul\":5468:5489   */\n      tag_628\n        /* \"#utility.yul\":5483:5488   */\n      dup2\n        /* \"#utility.yul\":5468:5489   */\n      tag_485\n      jump\t// in\n    tag_628:\n        /* \"#utility.yul\":5463:5466   */\n      dup3\n        /* \"#utility.yul\":5456:5490   */\n      mstore\n        /* \"#utility.yul\":5387:5496   */\n      pop\n      pop\n      jump\t// out\n        /* \"#utility.yul\":5502:6931   */\n    tag_35:\n        /* \"#utility.yul\":5903:5907   */\n      0x00\n        /* \"#utility.yul\":5941:5944   */\n      0x0120\n        /* \"#utility.yul\":5930:5939   */\n      dup3\n        /* \"#utility.yul\":5926:5945   */\n      add\n        /* \"#utility.yul\":5918:5945   */\n      swap1\n      pop\n        /* \"#utility.yul\":5955:6026   */\n      tag_630\n        /* \"#utility.yul\":6023:6024   */\n      0x00\n        /* \"#utility.yul\":6012:6021   */\n      dup4\n        /* \"#utility.yul\":6008:6025   */\n      add\n        /* \"#utility.yul\":5999:6005   */\n      dup13\n        /* \"#utility.yul\":5955:6026   */\n      tag_472\n      jump\t// in\n    tag_630:\n        /* \"#utility.yul\":6073:6082   */\n      dup2\n        /* \"#utility.yul\":6067:6071   */\n      dup2\n        /* \"#utility.yul\":6063:6083   */\n      sub\n        /* \"#utility.yul\":6058:6060   */\n      0x20\n        /* \"#utility.yul\":6047:6056   */\n      dup4\n        /* \"#utility.yul\":6043:6061   */\n      add\n        /* \"#utility.yul\":6036:6084   */\n      mstore\n        /* \"#utility.yul\":6101:6179   */\n      tag_631\n        /* \"#utility.yul\":6174:6178   */\n      dup2\n        /* \"#utility.yul\":6165:6171   */\n      dup12\n        /* \"#utility.yul\":6101:6179   */\n      tag_477\n      jump\t// in\n    tag_631:\n        /* \"#utility.yul\":6093:6179   */\n      swap1\n      pop\n        /* \"#utility.yul\":6226:6235   */\n      dup2\n        /* \"#utility.yul\":6220:6224   */\n      dup2\n        /* \"#utility.yul\":6216:6236   */\n      sub\n        /* \"#utility.yul\":6211:6213   */\n      0x40\n        /* \"#utility.yul\":6200:6209   */\n      dup4\n        /* \"#utility.yul\":6196:6214   */\n      add\n        /* \"#utility.yul\":6189:6237   */\n      mstore\n        /* \"#utility.yul\":6254:6332   */\n      tag_632\n        /* \"#utility.yul\":6327:6331   */\n      dup2\n        /* \"#utility.yul\":6318:6324   */\n      dup11\n        /* \"#utility.yul\":6254:6332   */\n      tag_477\n      jump\t// in\n    tag_632:\n        /* \"#utility.yul\":6246:6332   */\n      swap1\n      pop\n        /* \"#utility.yul\":6379:6388   */\n      dup2\n        /* \"#utility.yul\":6373:6377   */\n      dup2\n        /* \"#utility.yul\":6369:6389   */\n      sub\n        /* \"#utility.yul\":6364:6366   */\n      0x60\n        /* \"#utility.yul\":6353:6362   */\n      dup4\n        /* \"#utility.yul\":6349:6367   */\n      add\n        /* \"#utility.yul\":6342:6390   */\n      mstore\n        /* \"#utility.yul\":6407:6515   */\n      tag_633\n        /* \"#utility.yul\":6510:6514   */\n      dup2\n        /* \"#utility.yul\":6501:6507   */\n      dup10\n        /* \"#utility.yul\":6407:6515   */\n      tag_482\n      jump\t// in\n    tag_633:\n        /* \"#utility.yul\":6399:6515   */\n      swap1\n      pop\n        /* \"#utility.yul\":6525:6598   */\n      tag_634\n        /* \"#utility.yul\":6593:6596   */\n      0x80\n        /* \"#utility.yul\":6582:6591   */\n      dup4\n        /* \"#utility.yul\":6578:6597   */\n      add\n        /* \"#utility.yul\":6569:6575   */\n      dup9\n        /* \"#utility.yul\":6525:6598   */\n      tag_484\n      jump\t// in\n    tag_634:\n        /* \"#utility.yul\":6608:6681   */\n      tag_635\n        /* \"#utility.yul\":6676:6679   */\n      0xa0\n        /* \"#utility.yul\":6665:6674   */\n      dup4\n        /* \"#utility.yul\":6661:6680   */\n      add\n        /* \"#utility.yul\":6652:6658   */\n      dup8\n        /* \"#utility.yul\":6608:6681   */\n      tag_472\n      jump\t// in\n    tag_635:\n        /* \"#utility.yul\":6691:6758   */\n      tag_636\n        /* \"#utility.yul\":6753:6756   */\n      0xc0\n        /* \"#utility.yul\":6742:6751   */\n      dup4\n        /* \"#utility.yul\":6738:6757   */\n      add\n        /* \"#utility.yul\":6729:6735   */\n      dup7\n        /* \"#utility.yul\":6691:6758   */\n      tag_486\n      jump\t// in\n    tag_636:\n        /* \"#utility.yul\":6768:6841   */\n      tag_637\n        /* \"#utility.yul\":6836:6839   */\n      0xe0\n        /* \"#utility.yul\":6825:6834   */\n      dup4\n        /* \"#utility.yul\":6821:6840   */\n      add\n        /* \"#utility.yul\":6812:6818   */\n      dup6\n        /* \"#utility.yul\":6768:6841   */\n      tag_472\n      jump\t// in\n    tag_637:\n        /* \"#utility.yul\":6851:6924   */\n      tag_638\n        /* \"#utility.yul\":6919:6922   */\n      0x0100\n        /* \"#utility.yul\":6908:6917   */\n      dup4\n        /* \"#utility.yul\":6904:6923   */\n      add\n        /* \"#utility.yul\":6895:6901   */\n      dup5\n        /* \"#utility.yul\":6851:6924   */\n      tag_472\n      jump\t// in\n    tag_638:\n        /* \"#utility.yul\":5502:6931   */\n      swap11\n      swap10\n      pop\n      pop\n      pop\n      pop\n      pop\n      pop\n      pop\n      pop\n      pop\n      pop\n      jump\t// out\n        /* \"#utility.yul\":6937:7159   */\n    tag_42:\n        /* \"#utility.yul\":7030:7034   */\n      0x00\n        /* \"#utility.yul\":7068:7070   */\n      0x20\n        /* \"#utility.yul\":7057:7066   */\n      dup3\n        /* \"#utility.yul\":7053:7071   */\n      add\n        /* \"#utility.yul\":7045:7071   */\n      swap1\n      pop\n        /* \"#utility.yul\":7081:7152   */\n      tag_640\n        /* \"#utility.yul\":7149:7150   */\n      0x00\n        /* \"#utility.yul\":7138:7147   */\n      dup4\n        /* \"#utility.yul\":7134:7151   */\n      add\n        /* \"#utility.yul\":7125:7131   */\n      dup5\n        /* \"#utility.yul\":7081:7152   */\n      tag_472\n      jump\t// in\n    tag_640:\n        /* \"#utility.yul\":6937:7159   */\n      swap3\n      swap2\n      pop\n      pop\n      jump\t// out\n        /* \"#utility.yul\":7165:7639   */\n    tag_45:\n        /* \"#utility.yul\":7233:7239   */\n      0x00\n        /* \"#utility.yul\":7241:7247   */\n      dup1\n        /* \"#utility.yul\":7290:7292   */\n      0x40\n        /* \"#utility.yul\":7278:7287   */\n      dup4\n        /* \"#utility.yul\":7269:7276   */\n      dup6\n        /* \"#utility.yul\":7265:7288   */\n      sub\n        /* \"#utility.yul\":7261:7293   */\n      slt\n        /* \"#utility.yul\":7258:7377   */\n      iszero\n      tag_642\n      jumpi\n        /* \"#utility.yul\":7296:7375   */\n      tag_643\n      tag_467\n      jump\t// in\n    tag_643:\n        /* \"#utility.yul\":7258:7377   */\n    tag_642:\n        /* \"#utility.yul\":7416:7417   */\n      0x00\n        /* \"#utility.yul\":7441:7494   */\n      tag_644\n        /* \"#utility.yul\":7486:7493   */\n      dup6\n        /* \"#utility.yul\":7477:7483   */\n      dup3\n        /* \"#utility.yul\":7466:7475   */\n      dup7\n        /* \"#utility.yul\":7462:7484   */\n      add\n        /* \"#utility.yul\":7441:7494   */\n      tag_471\n      jump\t// in\n    tag_644:\n        /* \"#utility.yul\":7431:7494   */\n      swap3\n      pop\n        /* \"#utility.yul\":7387:7504   */\n      pop\n        /* \"#utility.yul\":7543:7545   */\n      0x20\n        /* \"#utility.yul\":7569:7622   */\n      tag_645\n        /* \"#utility.yul\":7614:7621   */\n      dup6\n        /* \"#utility.yul\":7605:7611   */\n      dup3\n        /* \"#utility.yul\":7594:7603   */\n      dup7\n        /* \"#utility.yul\":7590:7612   */\n      add\n        /* \"#utility.yul\":7569:7622   */\n      tag_471\n      jump\t// in\n    tag_645:\n        /* \"#utility.yul\":7559:7622   */\n      swap2\n      pop\n        /* \"#utility.yul\":7514:7632   */\n      pop\n        /* \"#utility.yul\":7165:7639   */\n      swap3\n      pop\n      swap3\n      swap1\n      pop\n      jump\t// out\n        /* \"#utility.yul\":7645:8285   */\n    tag_48:\n        /* \"#utility.yul\":7838:7842   */\n      0x00\n        /* \"#utility.yul\":7876:7879   */\n      0xa0\n        /* \"#utility.yul\":7865:7874   */\n      dup3\n        /* \"#utility.yul\":7861:7880   */\n      add\n        /* \"#utility.yul\":7853:7880   */\n      swap1\n      pop\n        /* \"#utility.yul\":7890:7961   */\n      tag_647\n        /* \"#utility.yul\":7958:7959   */\n      0x00\n        /* \"#utility.yul\":7947:7956   */\n      dup4\n        /* \"#utility.yul\":7943:7960   */\n      add\n        /* \"#utility.yul\":7934:7940   */\n      dup9\n        /* \"#utility.yul\":7890:7961   */\n      tag_472\n      jump\t// in\n    tag_647:\n        /* \"#utility.yul\":7971:8043   */\n      tag_648\n        /* \"#utility.yul\":8039:8041   */\n      0x20\n        /* \"#utility.yul\":8028:8037   */\n      dup4\n        /* \"#utility.yul\":8024:8042   */\n      add\n        /* \"#utility.yul\":8015:8021   */\n      dup8\n        /* \"#utility.yul\":7971:8043   */\n      tag_484\n      jump\t// in\n    tag_648:\n        /* \"#utility.yul\":8053:8125   */\n      tag_649\n        /* \"#utility.yul\":8121:8123   */\n      0x40\n        /* \"#utility.yul\":8110:8119   */\n      dup4\n        /* \"#utility.yul\":8106:8124   */\n      add\n        /* \"#utility.yul\":8097:8103   */\n      dup7\n        /* \"#utility.yul\":8053:8125   */\n      tag_472\n      jump\t// in\n    tag_649:\n        /* \"#utility.yul\":8135:8201   */\n      tag_650\n        /* \"#utility.yul\":8197:8199   */\n      0x60\n        /* \"#utility.yul\":8186:8195   */\n      dup4\n        /* \"#utility.yul\":8182:8200   */\n      add\n        /* \"#utility.yul\":8173:8179   */\n      dup6\n        /* \"#utility.yul\":8135:8201   */\n      tag_486\n      jump\t// in\n    tag_650:\n        /* \"#utility.yul\":8211:8278   */\n      tag_651\n        /* \"#utility.yul\":8273:8276   */\n      0x80\n        /* \"#utility.yul\":8262:8271   */\n      dup4\n        /* \"#utility.yul\":8258:8277   */\n      add\n        /* \"#utility.yul\":8249:8255   */\n      dup5\n        /* \"#utility.yul\":8211:8278   */\n      tag_486\n      jump\t// in\n    tag_651:\n        /* \"#utility.yul\":7645:8285   */\n      swap7\n      swap6\n      pop\n      pop\n      pop\n      pop\n      pop\n      pop\n      jump\t// out\n        /* \"#utility.yul\":8291:8501   */\n    tag_57:\n        /* \"#utility.yul\":8378:8382   */\n      0x00\n        /* \"#utility.yul\":8416:8418   */\n      0x20\n        /* \"#utility.yul\":8405:8414   */\n      dup3\n        /* \"#utility.yul\":8401:8419   */\n      add\n        /* \"#utility.yul\":8393:8419   */\n      swap1\n      pop\n        /* \"#utility.yul\":8429:8494   */\n      tag_653\n        /* \"#utility.yul\":8491:8492   */\n      0x00\n        /* \"#utility.yul\":8480:8489   */\n      dup4\n        /* \"#utility.yul\":8476:8493   */\n      add\n        /* \"#utility.yul\":8467:8473   */\n      dup5\n        /* \"#utility.yul\":8429:8494   */\n      tag_486\n      jump\t// in\n    tag_653:\n        /* \"#utility.yul\":8291:8501   */\n      swap3\n      swap2\n      pop\n      pop\n      jump\t// out\n        /* \"#utility.yul\":8507:8646   */\n    tag_487:\n        /* \"#utility.yul\":8570:8579   */\n      0x00\n        /* \"#utility.yul\":8603:8640   */\n      tag_655\n        /* \"#utility.yul\":8634:8639   */\n      dup3\n        /* \"#utility.yul\":8603:8640   */\n      tag_463\n      jump\t// in\n    tag_655:\n        /* \"#utility.yul\":8590:8640   */\n      swap1\n      pop\n        /* \"#utility.yul\":8507:8646   */\n      swap2\n      swap1\n      pop\n      jump\t// out\n        /* \"#utility.yul\":8652:8809   */\n    tag_488:\n        /* \"#utility.yul\":8752:8802   */\n      tag_657\n        /* \"#utility.yul\":8796:8801   */\n      dup2\n        /* \"#utility.yul\":8752:8802   */\n      tag_487\n      jump\t// in\n    tag_657:\n        /* \"#utility.yul\":8747:8750   */\n      dup3\n        /* \"#utility.yul\":8740:8803   */\n      mstore\n        /* \"#utility.yul\":8652:8809   */\n      pop\n      pop\n      jump\t// out\n        /* \"#utility.yul\":8815:9063   */\n    tag_70:\n        /* \"#utility.yul\":8921:8925   */\n      0x00\n        /* \"#utility.yul\":8959:8961   */\n      0x20\n        /* \"#utility.yul\":8948:8957   */\n      dup3\n        /* \"#utility.yul\":8944:8962   */\n      add\n        /* \"#utility.yul\":8936:8962   */\n      swap1\n      pop\n        /* \"#utility.yul\":8972:9056   */\n      tag_659\n        /* \"#utility.yul\":9053:9054   */\n      0x00\n        /* \"#utility.yul\":9042:9051   */\n      dup4\n        /* \"#utility.yul\":9038:9055   */\n      add\n        /* \"#utility.yul\":9029:9035   */\n      dup5\n        /* \"#utility.yul\":8972:9056   */\n      tag_488\n      jump\t// in\n    tag_659:\n        /* \"#utility.yul\":8815:9063   */\n      swap3\n      swap2\n      pop\n      pop\n      jump\t// out\n        /* \"#utility.yul\":9069:9183   */\n    tag_489:\n        /* \"#utility.yul\":9136:9142   */\n      0x00\n        /* \"#utility.yul\":9170:9175   */\n      dup2\n        /* \"#utility.yul\":9164:9176   */\n      mload\n        /* \"#utility.yul\":9154:9176   */\n      swap1\n      pop\n        /* \"#utility.yul\":9069:9183   */\n      swap2\n      swap1\n      pop\n      jump\t// out\n        /* \"#utility.yul\":9189:9373   */\n    tag_490:\n        /* \"#utility.yul\":9288:9299   */\n      0x00\n        /* \"#utility.yul\":9322:9328   */\n      dup3\n        /* \"#utility.yul\":9317:9320   */\n      dup3\n        /* \"#utility.yul\":9310:9329   */\n      mstore\n        /* \"#utility.yul\":9362:9366   */\n      0x20\n        /* \"#utility.yul\":9357:9360   */\n      dup3\n        /* \"#utility.yul\":9353:9367   */\n      add\n        /* \"#utility.yul\":9338:9367   */\n      swap1\n      pop\n        /* \"#utility.yul\":9189:9373   */\n      swap3\n      swap2\n      pop\n      pop\n      jump\t// out\n        /* \"#utility.yul\":9379:9511   */\n    tag_491:\n        /* \"#utility.yul\":9446:9450   */\n      0x00\n        /* \"#utility.yul\":9469:9472   */\n      dup2\n        /* \"#utility.yul\":9461:9472   */\n      swap1\n      pop\n        /* \"#utility.yul\":9499:9503   */\n      0x20\n        /* \"#utility.yul\":9494:9497   */\n      dup3\n        /* \"#utility.yul\":9490:9504   */\n      add\n        /* \"#utility.yul\":9482:9504   */\n      swap1\n      pop\n        /* \"#utility.yul\":9379:9511   */\n      swap2\n      swap1\n      pop\n      jump\t// out\n        /* \"#utility.yul\":9517:9625   */\n    tag_492:\n        /* \"#utility.yul\":9594:9618   */\n      tag_664\n        /* \"#utility.yul\":9612:9617   */\n      dup2\n        /* \"#utility.yul\":9594:9618   */\n      tag_469\n      jump\t// in\n    tag_664:\n        /* \"#utility.yul\":9589:9592   */\n      dup3\n        /* \"#utility.yul\":9582:9619   */\n      mstore\n        /* \"#utility.yul\":9517:9625   */\n      pop\n      pop\n      jump\t// out\n        /* \"#utility.yul\":9631:9810   */\n    tag_493:\n        /* \"#utility.yul\":9700:9710   */\n      0x00\n        /* \"#utility.yul\":9721:9767   */\n      tag_666\n        /* \"#utility.yul\":9763:9766   */\n      dup4\n        /* \"#utility.yul\":9755:9761   */\n      dup4\n        /* \"#utility.yul\":9721:9767   */\n      tag_492\n      jump\t// in\n    tag_666:\n        /* \"#utility.yul\":9799:9803   */\n      0x20\n        /* \"#utility.yul\":9794:9797   */\n      dup4\n        /* \"#utility.yul\":9790:9804   */\n      add\n        /* \"#utility.yul\":9776:9804   */\n      swap1\n      pop\n        /* \"#utility.yul\":9631:9810   */\n      swap3\n      swap2\n      pop\n      pop\n      jump\t// out\n        /* \"#utility.yul\":9816:9929   */\n    tag_494:\n        /* \"#utility.yul\":9886:9890   */\n      0x00\n        /* \"#utility.yul\":9918:9922   */\n      0x20\n        /* \"#utility.yul\":9913:9916   */\n      dup3\n        /* \"#utility.yul\":9909:9923   */\n      add\n        /* \"#utility.yul\":9901:9923   */\n      swap1\n      pop\n        /* \"#utility.yul\":9816:9929   */\n      swap2\n      swap1\n      pop\n      jump\t// out\n        /* \"#utility.yul\":9965:10697   */\n    tag_495:\n        /* \"#utility.yul\":10084:10087   */\n      0x00\n        /* \"#utility.yul\":10113:10167   */\n      tag_669\n        /* \"#utility.yul\":10161:10166   */\n      dup3\n        /* \"#utility.yul\":10113:10167   */\n      tag_489\n      jump\t// in\n    tag_669:\n        /* \"#utility.yul\":10183:10269   */\n      tag_670\n        /* \"#utility.yul\":10262:10268   */\n      dup2\n        /* \"#utility.yul\":10257:10260   */\n      dup6\n        /* \"#utility.yul\":10183:10269   */\n      tag_490\n      jump\t// in\n    tag_670:\n        /* \"#utility.yul\":10176:10269   */\n      swap4\n      pop\n        /* \"#utility.yul\":10293:10349   */\n      tag_671\n        /* \"#utility.yul\":10343:10348   */\n      dup4\n        /* \"#utility.yul\":10293:10349   */\n      tag_491\n      jump\t// in\n    tag_671:\n        /* \"#utility.yul\":10372:10379   */\n      dup1\n        /* \"#utility.yul\":10403:10404   */\n      0x00\n        /* \"#utility.yul\":10388:10672   */\n    tag_672:\n        /* \"#utility.yul\":10413:10419   */\n      dup4\n        /* \"#utility.yul\":10410:10411   */\n      dup2\n        /* \"#utility.yul\":10407:10420   */\n      lt\n        /* \"#utility.yul\":10388:10672   */\n      iszero\n      tag_674\n      jumpi\n        /* \"#utility.yul\":10489:10495   */\n      dup2\n        /* \"#utility.yul\":10483:10496   */\n      mload\n        /* \"#utility.yul\":10516:10579   */\n      tag_675\n        /* \"#utility.yul\":10575:10578   */\n      dup9\n        /* \"#utility.yul\":10560:10573   */\n      dup3\n        /* \"#utility.yul\":10516:10579   */\n      tag_493\n      jump\t// in\n    tag_675:\n        /* \"#utility.yul\":10509:10579   */\n      swap8\n      pop\n        /* \"#utility.yul\":10602:10662   */\n      tag_676\n        /* \"#utility.yul\":10655:10661   */\n      dup4\n        /* \"#utility.yul\":10602:10662   */\n      tag_494\n      jump\t// in\n    tag_676:\n        /* \"#utility.yul\":10592:10662   */\n      swap3\n      pop\n        /* \"#utility.yul\":10448:10672   */\n      pop\n        /* \"#utility.yul\":10435:10436   */\n      0x01\n        /* \"#utility.yul\":10432:10433   */\n      dup2\n        /* \"#utility.yul\":10428:10437   */\n      add\n        /* \"#utility.yul\":10423:10437   */\n      swap1\n      pop\n        /* \"#utility.yul\":10388:10672   */\n      jump(tag_672)\n    tag_674:\n        /* \"#utility.yul\":10392:10406   */\n      pop\n        /* \"#utility.yul\":10688:10691   */\n      dup6\n        /* \"#utility.yul\":10681:10691   */\n      swap4\n      pop\n        /* \"#utility.yul\":10089:10697   */\n      pop\n      pop\n      pop\n        /* \"#utility.yul\":9965:10697   */\n      swap3\n      swap2\n      pop\n      pop\n      jump\t// out\n        /* \"#utility.yul\":10703:11076   */\n    tag_78:\n        /* \"#utility.yul\":10846:10850   */\n      0x00\n        /* \"#utility.yul\":10884:10886   */\n      0x20\n        /* \"#utility.yul\":10873:10882   */\n      dup3\n        /* \"#utility.yul\":10869:10887   */\n      add\n        /* \"#utility.yul\":10861:10887   */\n      swap1\n      pop\n        /* \"#utility.yul\":10933:10942   */\n      dup2\n        /* \"#utility.yul\":10927:10931   */\n      dup2\n        /* \"#utility.yul\":10923:10943   */\n      sub\n        /* \"#utility.yul\":10919:10920   */\n      0x00\n        /* \"#utility.yul\":10908:10917   */\n      dup4\n        /* \"#utility.yul\":10904:10921   */\n      add\n        /* \"#utility.yul\":10897:10944   */\n      mstore\n        /* \"#utility.yul\":10961:11069   */\n      tag_678\n        /* \"#utility.yul\":11064:11068   */\n      dup2\n        /* \"#utility.yul\":11055:11061   */\n      dup5\n        /* \"#utility.yul\":10961:11069   */\n      tag_495\n      jump\t// in\n    tag_678:\n        /* \"#utility.yul\":10953:11069   */\n      swap1\n      pop\n        /* \"#utility.yul\":10703:11076   */\n      swap3\n      swap2\n      pop\n      pop\n      jump\t// out\n        /* \"#utility.yul\":11082:11199   */\n    tag_496:\n        /* \"#utility.yul\":11191:11192   */\n      0x00\n        /* \"#utility.yul\":11188:11189   */\n      dup1\n        /* \"#utility.yul\":11181:11193   */\n      revert\n        /* \"#utility.yul\":11249:11494   */\n    tag_497:\n        /* \"#utility.yul\":11335:11340   */\n      0x00\n        /* \"#utility.yul\":11376:11379   */\n      0xe0\n        /* \"#utility.yul\":11367:11373   */\n      dup3\n        /* \"#utility.yul\":11362:11365   */\n      dup5\n        /* \"#utility.yul\":11358:11374   */\n      sub\n        /* \"#utility.yul\":11354:11380   */\n      slt\n        /* \"#utility.yul\":11351:11464   */\n      iszero\n      tag_681\n      jumpi\n        /* \"#utility.yul\":11383:11462   */\n      tag_682\n      tag_496\n      jump\t// in\n    tag_682:\n        /* \"#utility.yul\":11351:11464   */\n    tag_681:\n        /* \"#utility.yul\":11482:11488   */\n      dup2\n        /* \"#utility.yul\":11473:11488   */\n      swap1\n      pop\n        /* \"#utility.yul\":11249:11494   */\n      swap3\n      swap2\n      pop\n      pop\n      jump\t// out\n        /* \"#utility.yul\":11500:12069   */\n    tag_84:\n        /* \"#utility.yul\":11599:11605   */\n      0x00\n        /* \"#utility.yul\":11648:11650   */\n      0x20\n        /* \"#utility.yul\":11636:11645   */\n      dup3\n        /* \"#utility.yul\":11627:11634   */\n      dup5\n        /* \"#utility.yul\":11623:11646   */\n      sub\n        /* \"#utility.yul\":11619:11651   */\n      slt\n        /* \"#utility.yul\":11616:11735   */\n      iszero\n      tag_684\n      jumpi\n        /* \"#utility.yul\":11654:11733   */\n      tag_685\n      tag_467\n      jump\t// in\n    tag_685:\n        /* \"#utility.yul\":11616:11735   */\n    tag_684:\n        /* \"#utility.yul\":11802:11803   */\n      0x00\n        /* \"#utility.yul\":11791:11800   */\n      dup3\n        /* \"#utility.yul\":11787:11804   */\n      add\n        /* \"#utility.yul\":11774:11805   */\n      calldataload\n        /* \"#utility.yul\":11832:11850   */\n      0xffffffffffffffff\n        /* \"#utility.yul\":11824:11830   */\n      dup2\n        /* \"#utility.yul\":11821:11851   */\n      gt\n        /* \"#utility.yul\":11818:11935   */\n      iszero\n      tag_686\n      jumpi\n        /* \"#utility.yul\":11854:11933   */\n      tag_687\n      tag_468\n      jump\t// in\n    tag_687:\n        /* \"#utility.yul\":11818:11935   */\n    tag_686:\n        /* \"#utility.yul\":11959:12052   */\n      tag_688\n        /* \"#utility.yul\":12044:12051   */\n      dup5\n        /* \"#utility.yul\":12035:12041   */\n      dup3\n        /* \"#utility.yul\":12024:12033   */\n      dup6\n        /* \"#utility.yul\":12020:12042   */\n      add\n        /* \"#utility.yul\":11959:12052   */\n      tag_497\n      jump\t// in\n    tag_688:\n        /* \"#utility.yul\":11949:12052   */\n      swap2\n      pop\n        /* \"#utility.yul\":11745:12062   */\n      pop\n        /* \"#utility.yul\":11500:12069   */\n      swap3\n      swap2\n      pop\n      pop\n      jump\t// out\n        /* \"#utility.yul\":12133:13156   */\n    tag_498:\n        /* \"#utility.yul\":12242:12245   */\n      0x00\n        /* \"#utility.yul\":12278:12282   */\n      0x80\n        /* \"#utility.yul\":12273:12276   */\n      dup4\n        /* \"#utility.yul\":12269:12283   */\n      add\n        /* \"#utility.yul\":12365:12369   */\n      0x00\n        /* \"#utility.yul\":12358:12363   */\n      dup4\n        /* \"#utility.yul\":12354:12370   */\n      add\n        /* \"#utility.yul\":12348:12371   */\n      mload\n        /* \"#utility.yul\":12418:12421   */\n      dup5\n        /* \"#utility.yul\":12412:12416   */\n      dup3\n        /* \"#utility.yul\":12408:12422   */\n      sub\n        /* \"#utility.yul\":12401:12405   */\n      0x00\n        /* \"#utility.yul\":12396:12399   */\n      dup7\n        /* \"#utility.yul\":12392:12406   */\n      add\n        /* \"#utility.yul\":12385:12423   */\n      mstore\n        /* \"#utility.yul\":12444:12517   */\n      tag_690\n        /* \"#utility.yul\":12512:12516   */\n      dup3\n        /* \"#utility.yul\":12498:12510   */\n      dup3\n        /* \"#utility.yul\":12444:12517   */\n      tag_479\n      jump\t// in\n    tag_690:\n        /* \"#utility.yul\":12436:12517   */\n      swap2\n      pop\n        /* \"#utility.yul\":12293:12528   */\n      pop\n        /* \"#utility.yul\":12613:12617   */\n      0x20\n        /* \"#utility.yul\":12606:12611   */\n      dup4\n        /* \"#utility.yul\":12602:12618   */\n      add\n        /* \"#utility.yul\":12596:12619   */\n      mload\n        /* \"#utility.yul\":12666:12669   */\n      dup5\n        /* \"#utility.yul\":12660:12664   */\n      dup3\n        /* \"#utility.yul\":12656:12670   */\n      sub\n        /* \"#utility.yul\":12649:12653   */\n      0x20\n        /* \"#utility.yul\":12644:12647   */\n      dup7\n        /* \"#utility.yul\":12640:12654   */\n      add\n        /* \"#utility.yul\":12633:12671   */\n      mstore\n        /* \"#utility.yul\":12692:12765   */\n      tag_691\n        /* \"#utility.yul\":12760:12764   */\n      dup3\n        /* \"#utility.yul\":12746:12758   */\n      dup3\n        /* \"#utility.yul\":12692:12765   */\n      tag_479\n      jump\t// in\n    tag_691:\n        /* \"#utility.yul\":12684:12765   */\n      swap2\n      pop\n        /* \"#utility.yul\":12538:12776   */\n      pop\n        /* \"#utility.yul\":12863:12867   */\n      0x40\n        /* \"#utility.yul\":12856:12861   */\n      dup4\n        /* \"#utility.yul\":12852:12868   */\n      add\n        /* \"#utility.yul\":12846:12869   */\n      mload\n        /* \"#utility.yul\":12882:12943   */\n      tag_692\n        /* \"#utility.yul\":12937:12941   */\n      0x40\n        /* \"#utility.yul\":12932:12935   */\n      dup7\n        /* \"#utility.yul\":12928:12942   */\n      add\n        /* \"#utility.yul\":12914:12926   */\n      dup3\n        /* \"#utility.yul\":12882:12943   */\n      tag_481\n      jump\t// in\n    tag_692:\n        /* \"#utility.yul\":12786:12953   */\n      pop\n        /* \"#utility.yul\":13039:13043   */\n      0x60\n        /* \"#utility.yul\":13032:13037   */\n      dup4\n        /* \"#utility.yul\":13028:13044   */\n      add\n        /* \"#utility.yul\":13022:13045   */\n      mload\n        /* \"#utility.yul\":13058:13119   */\n      tag_693\n        /* \"#utility.yul\":13113:13117   */\n      0x60\n        /* \"#utility.yul\":13108:13111   */\n      dup7\n        /* \"#utility.yul\":13104:13118   */\n      add\n        /* \"#utility.yul\":13090:13102   */\n      dup3\n        /* \"#utility.yul\":13058:13119   */\n      tag_481\n      jump\t// in\n    tag_693:\n        /* \"#utility.yul\":12963:13129   */\n      pop\n        /* \"#utility.yul\":13146:13150   */\n      dup1\n        /* \"#utility.yul\":13139:13150   */\n      swap2\n      pop\n        /* \"#utility.yul\":12247:13156   */\n      pop\n        /* \"#utility.yul\":12133:13156   */\n      swap3\n      swap2\n      pop\n      pop\n      jump\t// out\n        /* \"#utility.yul\":13162:13270   */\n    tag_499:\n        /* \"#utility.yul\":13239:13263   */\n      tag_695\n        /* \"#utility.yul\":13257:13262   */\n      dup2\n        /* \"#utility.yul\":13239:13263   */\n      tag_483\n      jump\t// in\n    tag_695:\n        /* \"#utility.yul\":13234:13237   */\n      dup3\n        /* \"#utility.yul\":13227:13264   */\n      mstore\n        /* \"#utility.yul\":13162:13270   */\n      pop\n      pop\n      jump\t// out\n        /* \"#utility.yul\":13276:13375   */\n    tag_500:\n        /* \"#utility.yul\":13347:13368   */\n      tag_697\n        /* \"#utility.yul\":13362:13367   */\n      dup2\n        /* \"#utility.yul\":13347:13368   */\n      tag_485\n      jump\t// in\n    tag_697:\n        /* \"#utility.yul\":13342:13345   */\n      dup3\n        /* \"#utility.yul\":13335:13369   */\n      mstore\n        /* \"#utility.yul\":13276:13375   */\n      pop\n      pop\n      jump\t// out\n        /* \"#utility.yul\":13445:15488   */\n    tag_501:\n        /* \"#utility.yul\":13570:13573   */\n      0x00\n        /* \"#utility.yul\":13606:13612   */\n      0x0120\n        /* \"#utility.yul\":13601:13604   */\n      dup4\n        /* \"#utility.yul\":13597:13613   */\n      add\n        /* \"#utility.yul\":13693:13697   */\n      0x00\n        /* \"#utility.yul\":13686:13691   */\n      dup4\n        /* \"#utility.yul\":13682:13698   */\n      add\n        /* \"#utility.yul\":13676:13699   */\n      mload\n        /* \"#utility.yul\":13712:13775   */\n      tag_699\n        /* \"#utility.yul\":13769:13773   */\n      0x00\n        /* \"#utility.yul\":13764:13767   */\n      dup7\n        /* \"#utility.yul\":13760:13774   */\n      add\n        /* \"#utility.yul\":13746:13758   */\n      dup3\n        /* \"#utility.yul\":13712:13775   */\n      tag_492\n      jump\t// in\n    tag_699:\n        /* \"#utility.yul\":13623:13785   */\n      pop\n        /* \"#utility.yul\":13867:13871   */\n      0x20\n        /* \"#utility.yul\":13860:13865   */\n      dup4\n        /* \"#utility.yul\":13856:13872   */\n      add\n        /* \"#utility.yul\":13850:13873   */\n      mload\n        /* \"#utility.yul\":13920:13923   */\n      dup5\n        /* \"#utility.yul\":13914:13918   */\n      dup3\n        /* \"#utility.yul\":13910:13924   */\n      sub\n        /* \"#utility.yul\":13903:13907   */\n      0x20\n        /* \"#utility.yul\":13898:13901   */\n      dup7\n        /* \"#utility.yul\":13894:13908   */\n      add\n        /* \"#utility.yul\":13887:13925   */\n      mstore\n        /* \"#utility.yul\":13946:14019   */\n      tag_700\n        /* \"#utility.yul\":14014:14018   */\n      dup3\n        /* \"#utility.yul\":14000:14012   */\n      dup3\n        /* \"#utility.yul\":13946:14019   */\n      tag_479\n      jump\t// in\n    tag_700:\n        /* \"#utility.yul\":13938:14019   */\n      swap2\n      pop\n        /* \"#utility.yul\":13795:14030   */\n      pop\n        /* \"#utility.yul\":14119:14123   */\n      0x40\n        /* \"#utility.yul\":14112:14117   */\n      dup4\n        /* \"#utility.yul\":14108:14124   */\n      add\n        /* \"#utility.yul\":14102:14125   */\n      mload\n        /* \"#utility.yul\":14172:14175   */\n      dup5\n        /* \"#utility.yul\":14166:14170   */\n      dup3\n        /* \"#utility.yul\":14162:14176   */\n      sub\n        /* \"#utility.yul\":14155:14159   */\n      0x40\n        /* \"#utility.yul\":14150:14153   */\n      dup7\n        /* \"#utility.yul\":14146:14160   */\n      add\n        /* \"#utility.yul\":14139:14177   */\n      mstore\n        /* \"#utility.yul\":14198:14271   */\n      tag_701\n        /* \"#utility.yul\":14266:14270   */\n      dup3\n        /* \"#utility.yul\":14252:14264   */\n      dup3\n        /* \"#utility.yul\":14198:14271   */\n      tag_479\n      jump\t// in\n    tag_701:\n        /* \"#utility.yul\":14190:14271   */\n      swap2\n      pop\n        /* \"#utility.yul\":14040:14282   */\n      pop\n        /* \"#utility.yul\":14368:14372   */\n      0x60\n        /* \"#utility.yul\":14361:14366   */\n      dup4\n        /* \"#utility.yul\":14357:14373   */\n      add\n        /* \"#utility.yul\":14351:14374   */\n      mload\n        /* \"#utility.yul\":14421:14424   */\n      dup5\n        /* \"#utility.yul\":14415:14419   */\n      dup3\n        /* \"#utility.yul\":14411:14425   */\n      sub\n        /* \"#utility.yul\":14404:14408   */\n      0x60\n        /* \"#utility.yul\":14399:14402   */\n      dup7\n        /* \"#utility.yul\":14395:14409   */\n      add\n        /* \"#utility.yul\":14388:14426   */\n      mstore\n        /* \"#utility.yul\":14447:14550   */\n      tag_702\n        /* \"#utility.yul\":14545:14549   */\n      dup3\n        /* \"#utility.yul\":14531:14543   */\n      dup3\n        /* \"#utility.yul\":14447:14550   */\n      tag_498\n      jump\t// in\n    tag_702:\n        /* \"#utility.yul\":14439:14550   */\n      swap2\n      pop\n        /* \"#utility.yul\":14292:14561   */\n      pop\n        /* \"#utility.yul\":14644:14648   */\n      0x80\n        /* \"#utility.yul\":14637:14642   */\n      dup4\n        /* \"#utility.yul\":14633:14649   */\n      add\n        /* \"#utility.yul\":14627:14650   */\n      mload\n        /* \"#utility.yul\":14663:14726   */\n      tag_703\n        /* \"#utility.yul\":14720:14724   */\n      0x80\n        /* \"#utility.yul\":14715:14718   */\n      dup7\n        /* \"#utility.yul\":14711:14725   */\n      add\n        /* \"#utility.yul\":14697:14709   */\n      dup3\n        /* \"#utility.yul\":14663:14726   */\n      tag_499\n      jump\t// in\n    tag_703:\n        /* \"#utility.yul\":14571:14736   */\n      pop\n        /* \"#utility.yul\":14833:14837   */\n      0xa0\n        /* \"#utility.yul\":14826:14831   */\n      dup4\n        /* \"#utility.yul\":14822:14838   */\n      add\n        /* \"#utility.yul\":14816:14839   */\n      mload\n        /* \"#utility.yul\":14852:14915   */\n      tag_704\n        /* \"#utility.yul\":14909:14913   */\n      0xa0\n        /* \"#utility.yul\":14904:14907   */\n      dup7\n        /* \"#utility.yul\":14900:14914   */\n      add\n        /* \"#utility.yul\":14886:14898   */\n      dup3\n        /* \"#utility.yul\":14852:14915   */\n      tag_492\n      jump\t// in\n    tag_704:\n        /* \"#utility.yul\":14746:14925   */\n      pop\n        /* \"#utility.yul\":15011:15015   */\n      0xc0\n        /* \"#utility.yul\":15004:15009   */\n      dup4\n        /* \"#utility.yul\":15000:15016   */\n      add\n        /* \"#utility.yul\":14994:15017   */\n      mload\n        /* \"#utility.yul\":15030:15087   */\n      tag_705\n        /* \"#utility.yul\":15081:15085   */\n      0xc0\n        /* \"#utility.yul\":15076:15079   */\n      dup7\n        /* \"#utility.yul\":15072:15086   */\n      add\n        /* \"#utility.yul\":15058:15070   */\n      dup3\n        /* \"#utility.yul\":15030:15087   */\n      tag_500\n      jump\t// in\n    tag_705:\n        /* \"#utility.yul\":14935:15097   */\n      pop\n        /* \"#utility.yul\":15184:15188   */\n      0xe0\n        /* \"#utility.yul\":15177:15182   */\n      dup4\n        /* \"#utility.yul\":15173:15189   */\n      add\n        /* \"#utility.yul\":15167:15190   */\n      mload\n        /* \"#utility.yul\":15203:15266   */\n      tag_706\n        /* \"#utility.yul\":15260:15264   */\n      0xe0\n        /* \"#utility.yul\":15255:15258   */\n      dup7\n        /* \"#utility.yul\":15251:15265   */\n      add\n        /* \"#utility.yul\":15237:15249   */\n      dup3\n        /* \"#utility.yul\":15203:15266   */\n      tag_492\n      jump\t// in\n    tag_706:\n        /* \"#utility.yul\":15107:15276   */\n      pop\n        /* \"#utility.yul\":15365:15371   */\n      0x0100\n        /* \"#utility.yul\":15358:15363   */\n      dup4\n        /* \"#utility.yul\":15354:15372   */\n      add\n        /* \"#utility.yul\":15348:15373   */\n      mload\n        /* \"#utility.yul\":15386:15451   */\n      tag_707\n        /* \"#utility.yul\":15443:15449   */\n      0x0100\n        /* \"#utility.yul\":15438:15441   */\n      dup7\n        /* \"#utility.yul\":15434:15450   */\n      add\n        /* \"#utility.yul\":15420:15432   */\n      dup3\n        /* \"#utility.yul\":15386:15451   */\n      tag_492\n      jump\t// in\n    tag_707:\n        /* \"#utility.yul\":15286:15461   */\n      pop\n        /* \"#utility.yul\":15478:15482   */\n      dup1\n        /* \"#utility.yul\":15471:15482   */\n      swap2\n      pop\n        /* \"#utility.yul\":13575:15488   */\n      pop\n        /* \"#utility.yul\":13445:15488   */\n      swap3\n      swap2\n      pop\n      pop\n      jump\t// out\n        /* \"#utility.yul\":15494:15879   */\n    tag_90:\n        /* \"#utility.yul\":15643:15647   */\n      0x00\n        /* \"#utility.yul\":15681:15683   */\n      0x20\n        /* \"#utility.yul\":15670:15679   */\n      dup3\n        /* \"#utility.yul\":15666:15684   */\n      add\n        /* \"#utility.yul\":15658:15684   */\n      swap1\n      pop\n        /* \"#utility.yul\":15730:15739   */\n      dup2\n        /* \"#utility.yul\":15724:15728   */\n      dup2\n        /* \"#utility.yul\":15720:15740   */\n      sub\n        /* \"#utility.yul\":15716:15717   */\n      0x00\n        /* \"#utility.yul\":15705:15714   */\n      dup4\n        /* \"#utility.yul\":15701:15718   */\n      add\n        /* \"#utility.yul\":15694:15741   */\n      mstore\n        /* \"#utility.yul\":15758:15872   */\n      tag_709\n        /* \"#utility.yul\":15867:15871   */\n      dup2\n        /* \"#utility.yul\":15858:15864   */\n      dup5\n        /* \"#utility.yul\":15758:15872   */\n      tag_501\n      jump\t// in\n    tag_709:\n        /* \"#utility.yul\":15750:15872   */\n      swap1\n      pop\n        /* \"#utility.yul\":15494:15879   */\n      swap3\n      swap2\n      pop\n      pop\n      jump\t// out\n        /* \"#utility.yul\":15885:17080   */\n    tag_95:\n        /* \"#utility.yul\":16224:16228   */\n      0x00\n        /* \"#utility.yul\":16262:16265   */\n      0xe0\n        /* \"#utility.yul\":16251:16260   */\n      dup3\n        /* \"#utility.yul\":16247:16266   */\n      add\n        /* \"#utility.yul\":16239:16266   */\n      swap1\n      pop\n        /* \"#utility.yul\":16276:16347   */\n      tag_711\n        /* \"#utility.yul\":16344:16345   */\n      0x00\n        /* \"#utility.yul\":16333:16342   */\n      dup4\n        /* \"#utility.yul\":16329:16346   */\n      add\n        /* \"#utility.yul\":16320:16326   */\n      dup11\n        /* \"#utility.yul\":16276:16347   */\n      tag_484\n      jump\t// in\n    tag_711:\n        /* \"#utility.yul\":16394:16403   */\n      dup2\n        /* \"#utility.yul\":16388:16392   */\n      dup2\n        /* \"#utility.yul\":16384:16404   */\n      sub\n        /* \"#utility.yul\":16379:16381   */\n      0x20\n        /* \"#utility.yul\":16368:16377   */\n      dup4\n        /* \"#utility.yul\":16364:16382   */\n      add\n        /* \"#utility.yul\":16357:16405   */\n      mstore\n        /* \"#utility.yul\":16422:16500   */\n      tag_712\n        /* \"#utility.yul\":16495:16499   */\n      dup2\n        /* \"#utility.yul\":16486:16492   */\n      dup10\n        /* \"#utility.yul\":16422:16500   */\n      tag_477\n      jump\t// in\n    tag_712:\n        /* \"#utility.yul\":16414:16500   */\n      swap1\n      pop\n        /* \"#utility.yul\":16547:16556   */\n      dup2\n        /* \"#utility.yul\":16541:16545   */\n      dup2\n        /* \"#utility.yul\":16537:16557   */\n      sub\n        /* \"#utility.yul\":16532:16534   */\n      0x40\n        /* \"#utility.yul\":16521:16530   */\n      dup4\n        /* \"#utility.yul\":16517:16535   */\n      add\n        /* \"#utility.yul\":16510:16558   */\n      mstore\n        /* \"#utility.yul\":16575:16653   */\n      tag_713\n        /* \"#utility.yul\":16648:16652   */\n      dup2\n        /* \"#utility.yul\":16639:16645   */\n      dup9\n        /* \"#utility.yul\":16575:16653   */\n      tag_477\n      jump\t// in\n    tag_713:\n        /* \"#utility.yul\":16567:16653   */\n      swap1\n      pop\n        /* \"#utility.yul\":16700:16709   */\n      dup2\n        /* \"#utility.yul\":16694:16698   */\n      dup2\n        /* \"#utility.yul\":16690:16710   */\n      sub\n        /* \"#utility.yul\":16685:16687   */\n      0x60\n        /* \"#utility.yul\":16674:16683   */\n      dup4\n        /* \"#utility.yul\":16670:16688   */\n      add\n        /* \"#utility.yul\":16663:16711   */\n      mstore\n        /* \"#utility.yul\":16728:16836   */\n      tag_714\n        /* \"#utility.yul\":16831:16835   */\n      dup2\n        /* \"#utility.yul\":16822:16828   */\n      dup8\n        /* \"#utility.yul\":16728:16836   */\n      tag_482\n      jump\t// in\n    tag_714:\n        /* \"#utility.yul\":16720:16836   */\n      swap1\n      pop\n        /* \"#utility.yul\":16846:16919   */\n      tag_715\n        /* \"#utility.yul\":16914:16917   */\n      0x80\n        /* \"#utility.yul\":16903:16912   */\n      dup4\n        /* \"#utility.yul\":16899:16918   */\n      add\n        /* \"#utility.yul\":16890:16896   */\n      dup7\n        /* \"#utility.yul\":16846:16919   */\n      tag_472\n      jump\t// in\n    tag_715:\n        /* \"#utility.yul\":16929:16996   */\n      tag_716\n        /* \"#utility.yul\":16991:16994   */\n      0xa0\n        /* \"#utility.yul\":16980:16989   */\n      dup4\n        /* \"#utility.yul\":16976:16995   */\n      add\n        /* \"#utility.yul\":16967:16973   */\n      dup6\n        /* \"#utility.yul\":16929:16996   */\n      tag_486\n      jump\t// in\n    tag_716:\n        /* \"#utility.yul\":17006:17073   */\n      tag_717\n        /* \"#utility.yul\":17068:17071   */\n      0xc0\n        /* \"#utility.yul\":17057:17066   */\n      dup4\n        /* \"#utility.yul\":17053:17072   */\n      add\n        /* \"#utility.yul\":17044:17050   */\n      dup5\n        /* \"#utility.yul\":17006:17073   */\n      tag_486\n      jump\t// in\n    tag_717:\n        /* \"#utility.yul\":15885:17080   */\n      swap9\n      swap8\n      pop\n      pop\n      pop\n      pop\n      pop\n      pop\n      pop\n      pop\n      jump\t// out\n        /* \"#utility.yul\":17086:17266   */\n    tag_502:\n        /* \"#utility.yul\":17134:17211   */\n      0x4e487b7100000000000000000000000000000000000000000000000000000000\n        /* \"#utility.yul\":17131:17132   */\n      0x00\n        /* \"#utility.yul\":17124:17212   */\n      mstore\n        /* \"#utility.yul\":17231:17235   */\n      0x22\n        /* \"#utility.yul\":17228:17229   */\n      0x04\n        /* \"#utility.yul\":17221:17236   */\n      mstore\n        /* \"#utility.yul\":17255:17259   */\n      0x24\n        /* \"#utility.yul\":17252:17253   */\n      0x00\n        /* \"#utility.yul\":17245:17260   */\n      revert\n        /* \"#utility.yul\":17272:17592   */\n    tag_103:\n        /* \"#utility.yul\":17316:17322   */\n      0x00\n        /* \"#utility.yul\":17353:17354   */\n      0x02\n        /* \"#utility.yul\":17347:17351   */\n      dup3\n        /* \"#utility.yul\":17343:17355   */\n      div\n        /* \"#utility.yul\":17333:17355   */\n      swap1\n      pop\n        /* \"#utility.yul\":17400:17401   */\n      0x01\n        /* \"#utility.yul\":17394:17398   */\n      dup3\n        /* \"#utility.yul\":17390:17402   */\n      and\n        /* \"#utility.yul\":17421:17439   */\n      dup1\n        /* \"#utility.yul\":17411:17492   */\n      tag_720\n      jumpi\n        /* \"#utility.yul\":17477:17481   */\n      0x7f\n        /* \"#utility.yul\":17469:17475   */\n      dup3\n        /* \"#utility.yul\":17465:17482   */\n      and\n        /* \"#utility.yul\":17455:17482   */\n      swap2\n      pop\n        /* \"#utility.yul\":17411:17492   */\n    tag_720:\n        /* \"#utility.yul\":17539:17541   */\n      0x20\n        /* \"#utility.yul\":17531:17537   */\n      dup3\n        /* \"#utility.yul\":17528:17542   */\n      lt\n        /* \"#utility.yul\":17508:17526   */\n      dup2\n        /* \"#utility.yul\":17505:17543   */\n      sub\n        /* \"#utility.yul\":17502:17586   */\n      tag_721\n      jumpi\n        /* \"#utility.yul\":17558:17576   */\n      tag_722\n      tag_502\n      jump\t// in\n    tag_722:\n        /* \"#utility.yul\":17502:17586   */\n    tag_721:\n        /* \"#utility.yul\":17323:17592   */\n      pop\n        /* \"#utility.yul\":17272:17592   */\n      swap2\n      swap1\n      pop\n      jump\t// out\n        /* \"#utility.yul\":17598:17675   */\n    tag_503:\n        /* \"#utility.yul\":17635:17642   */\n      0x00\n        /* \"#utility.yul\":17664:17669   */\n      dup2\n        /* \"#utility.yul\":17653:17669   */\n      swap1\n      pop\n        /* \"#utility.yul\":17598:17675   */\n      swap2\n      swap1\n      pop\n      jump\t// out\n        /* \"#utility.yul\":17681:17803   */\n    tag_504:\n        /* \"#utility.yul\":17754:17778   */\n      tag_725\n        /* \"#utility.yul\":17772:17777   */\n      dup2\n        /* \"#utility.yul\":17754:17778   */\n      tag_503\n      jump\t// in\n    tag_725:\n        /* \"#utility.yul\":17747:17752   */\n      dup2\n        /* \"#utility.yul\":17744:17779   */\n      eq\n        /* \"#utility.yul\":17734:17797   */\n      tag_726\n      jumpi\n        /* \"#utility.yul\":17793:17794   */\n      0x00\n        /* \"#utility.yul\":17790:17791   */\n      dup1\n        /* \"#utility.yul\":17783:17795   */\n      revert\n        /* \"#utility.yul\":17734:17797   */\n    tag_726:\n        /* \"#utility.yul\":17681:17803   */\n      pop\n      jump\t// out\n        /* \"#utility.yul\":17809:17952   */\n    tag_505:\n        /* \"#utility.yul\":17866:17871   */\n      0x00\n        /* \"#utility.yul\":17897:17903   */\n      dup2\n        /* \"#utility.yul\":17891:17904   */\n      mload\n        /* \"#utility.yul\":17882:17904   */\n      swap1\n      pop\n        /* \"#utility.yul\":17913:17946   */\n      tag_728\n        /* \"#utility.yul\":17940:17945   */\n      dup2\n        /* \"#utility.yul\":17913:17946   */\n      tag_504\n      jump\t// in\n    tag_728:\n        /* \"#utility.yul\":17809:17952   */\n      swap3\n      swap2\n      pop\n      pop\n      jump\t// out\n        /* \"#utility.yul\":17958:18309   */\n    tag_127:\n        /* \"#utility.yul\":18028:18034   */\n      0x00\n        /* \"#utility.yul\":18077:18079   */\n      0x20\n        /* \"#utility.yul\":18065:18074   */\n      dup3\n        /* \"#utility.yul\":18056:18063   */\n      dup5\n        /* \"#utility.yul\":18052:18075   */\n      sub\n        /* \"#utility.yul\":18048:18080   */\n      slt\n        /* \"#utility.yul\":18045:18164   */\n      iszero\n      tag_730\n      jumpi\n        /* \"#utility.yul\":18083:18162   */\n      tag_731\n      tag_467\n      jump\t// in\n    tag_731:\n        /* \"#utility.yul\":18045:18164   */\n    tag_730:\n        /* \"#utility.yul\":18203:18204   */\n      0x00\n        /* \"#utility.yul\":18228:18292   */\n      tag_732\n        /* \"#utility.yul\":18284:18291   */\n      dup5\n        /* \"#utility.yul\":18275:18281   */\n      dup3\n        /* \"#utility.yul\":18264:18273   */\n      dup6\n        /* \"#utility.yul\":18260:18282   */\n      add\n        /* \"#utility.yul\":18228:18292   */\n      tag_505\n      jump\t// in\n    tag_732:\n        /* \"#utility.yul\":18218:18292   */\n      swap2\n      pop\n        /* \"#utility.yul\":18174:18302   */\n      pop\n        /* \"#utility.yul\":17958:18309   */\n      swap3\n      swap2\n      pop\n      pop\n      jump\t// out\n        /* \"#utility.yul\":18315:18433   */\n    tag_506:\n        /* \"#utility.yul\":18402:18426   */\n      tag_734\n        /* \"#utility.yul\":18420:18425   */\n      dup2\n        /* \"#utility.yul\":18402:18426   */\n      tag_503\n      jump\t// in\n    tag_734:\n        /* \"#utility.yul\":18397:18400   */\n      dup3\n        /* \"#utility.yul\":18390:18427   */\n      mstore\n        /* \"#utility.yul\":18315:18433   */\n      pop\n      pop\n      jump\t// out\n        /* \"#utility.yul\":18439:18771   */\n    tag_129:\n        /* \"#utility.yul\":18560:18564   */\n      0x00\n        /* \"#utility.yul\":18598:18600   */\n      0x40\n        /* \"#utility.yul\":18587:18596   */\n      dup3\n        /* \"#utility.yul\":18583:18601   */\n      add\n        /* \"#utility.yul\":18575:18601   */\n      swap1\n      pop\n        /* \"#utility.yul\":18611:18682   */\n      tag_736\n        /* \"#utility.yul\":18679:18680   */\n      0x00\n        /* \"#utility.yul\":18668:18677   */\n      dup4\n        /* \"#utility.yul\":18664:18681   */\n      add\n        /* \"#utility.yul\":18655:18661   */\n      dup6\n        /* \"#utility.yul\":18611:18682   */\n      tag_506\n      jump\t// in\n    tag_736:\n        /* \"#utility.yul\":18692:18764   */\n      tag_737\n        /* \"#utility.yul\":18760:18762   */\n      0x20\n        /* \"#utility.yul\":18749:18758   */\n      dup4\n        /* \"#utility.yul\":18745:18763   */\n      add\n        /* \"#utility.yul\":18736:18742   */\n      dup5\n        /* \"#utility.yul\":18692:18764   */\n      tag_484\n      jump\t// in\n    tag_737:\n        /* \"#utility.yul\":18439:18771   */\n      swap4\n      swap3\n      pop\n      pop\n      pop\n      jump\t// out\n        /* \"#utility.yul\":18777:18893   */\n    tag_507:\n        /* \"#utility.yul\":18847:18868   */\n      tag_739\n        /* \"#utility.yul\":18862:18867   */\n      dup2\n        /* \"#utility.yul\":18847:18868   */\n      tag_485\n      jump\t// in\n    tag_739:\n        /* \"#utility.yul\":18840:18845   */\n      dup2\n        /* \"#utility.yul\":18837:18869   */\n      eq\n        /* \"#utility.yul\":18827:18887   */\n      tag_740\n      jumpi\n        /* \"#utility.yul\":18883:18884   */\n      0x00\n        /* \"#utility.yul\":18880:18881   */\n      dup1\n        /* \"#utility.yul\":18873:18885   */\n      revert\n        /* \"#utility.yul\":18827:18887   */\n    tag_740:\n        /* \"#utility.yul\":18777:18893   */\n      pop\n      jump\t// out\n        /* \"#utility.yul\":18899:19036   */\n    tag_508:\n        /* \"#utility.yul\":18953:18958   */\n      0x00\n        /* \"#utility.yul\":18984:18990   */\n      dup2\n        /* \"#utility.yul\":18978:18991   */\n      mload\n        /* \"#utility.yul\":18969:18991   */\n      swap1\n      pop\n        /* \"#utility.yul\":19000:19030   */\n      tag_742\n        /* \"#utility.yul\":19024:19029   */\n      dup2\n        /* \"#utility.yul\":19000:19030   */\n      tag_507\n      jump\t// in\n    tag_742:\n        /* \"#utility.yul\":18899:19036   */\n      swap3\n      swap2\n      pop\n      pop\n      jump\t// out\n        /* \"#utility.yul\":19042:19387   */\n    tag_133:\n        /* \"#utility.yul\":19109:19115   */\n      0x00\n        /* \"#utility.yul\":19158:19160   */\n      0x20\n        /* \"#utility.yul\":19146:19155   */\n      dup3\n        /* \"#utility.yul\":19137:19144   */\n      dup5\n        /* \"#utility.yul\":19133:19156   */\n      sub\n        /* \"#utility.yul\":19129:19161   */\n      slt\n        /* \"#utility.yul\":19126:19245   */\n      iszero\n      tag_744\n      jumpi\n        /* \"#utility.yul\":19164:19243   */\n      tag_745\n      tag_467\n      jump\t// in\n    tag_745:\n        /* \"#utility.yul\":19126:19245   */\n    tag_744:\n        /* \"#utility.yul\":19284:19285   */\n      0x00\n        /* \"#utility.yul\":19309:19370   */\n      tag_746\n        /* \"#utility.yul\":19362:19369   */\n      dup5\n        /* \"#utility.yul\":19353:19359   */\n      dup3\n        /* \"#utility.yul\":19342:19351   */\n      dup6\n        /* \"#utility.yul\":19338:19360   */\n      add\n        /* \"#utility.yul\":19309:19370   */\n      tag_508\n      jump\t// in\n    tag_746:\n        /* \"#utility.yul\":19299:19370   */\n      swap2\n      pop\n        /* \"#utility.yul\":19255:19380   */\n      pop\n        /* \"#utility.yul\":19042:19387   */\n      swap3\n      swap2\n      pop\n      pop\n      jump\t// out\n        /* \"#utility.yul\":19393:19565   */\n    tag_509:\n        /* \"#utility.yul\":19533:19557   */\n      0x43616c6c6572206973206e6f7420616e2061646d696e00000000000000000000\n        /* \"#utility.yul\":19529:19530   */\n      0x00\n        /* \"#utility.yul\":19521:19527   */\n      dup3\n        /* \"#utility.yul\":19517:19531   */\n      add\n        /* \"#utility.yul\":19510:19558   */\n      mstore\n        /* \"#utility.yul\":19393:19565   */\n      pop\n      jump\t// out\n        /* \"#utility.yul\":19571:19937   */\n    tag_510:\n        /* \"#utility.yul\":19713:19716   */\n      0x00\n        /* \"#utility.yul\":19734:19801   */\n      tag_749\n        /* \"#utility.yul\":19798:19800   */\n      0x16\n        /* \"#utility.yul\":19793:19796   */\n      dup4\n        /* \"#utility.yul\":19734:19801   */\n      tag_474\n      jump\t// in\n    tag_749:\n        /* \"#utility.yul\":19727:19801   */\n      swap2\n      pop\n        /* \"#utility.yul\":19810:19903   */\n      tag_750\n        /* \"#utility.yul\":19899:19902   */\n      dup3\n        /* \"#utility.yul\":19810:19903   */\n      tag_509\n      jump\t// in\n    tag_750:\n        /* \"#utility.yul\":19928:19930   */\n      0x20\n        /* \"#utility.yul\":19923:19926   */\n      dup3\n        /* \"#utility.yul\":19919:19931   */\n      add\n        /* \"#utility.yul\":19912:19931   */\n      swap1\n      pop\n        /* \"#utility.yul\":19571:19937   */\n      swap2\n      swap1\n      pop\n      jump\t// out\n        /* \"#utility.yul\":19943:20362   */\n    tag_136:\n        /* \"#utility.yul\":20109:20113   */\n      0x00\n        /* \"#utility.yul\":20147:20149   */\n      0x20\n        /* \"#utility.yul\":20136:20145   */\n      dup3\n        /* \"#utility.yul\":20132:20150   */\n      add\n        /* \"#utility.yul\":20124:20150   */\n      swap1\n      pop\n        /* \"#utility.yul\":20196:20205   */\n      dup2\n        /* \"#utility.yul\":20190:20194   */\n      dup2\n        /* \"#utility.yul\":20186:20206   */\n      sub\n        /* \"#utility.yul\":20182:20183   */\n      0x00\n        /* \"#utility.yul\":20171:20180   */\n      dup4\n        /* \"#utility.yul\":20167:20184   */\n      add\n        /* \"#utility.yul\":20160:20207   */\n      mstore\n        /* \"#utility.yul\":20224:20355   */\n      tag_752\n        /* \"#utility.yul\":20350:20354   */\n      dup2\n        /* \"#utility.yul\":20224:20355   */\n      tag_510\n      jump\t// in\n    tag_752:\n        /* \"#utility.yul\":20216:20355   */\n      swap1\n      pop\n        /* \"#utility.yul\":19943:20362   */\n      swap2\n      swap1\n      pop\n      jump\t// out\n        /* \"#utility.yul\":20368:20536   */\n    tag_511:\n        /* \"#utility.yul\":20508:20528   */\n      0x496e76616c69642070657263656e746167650000000000000000000000000000\n        /* \"#utility.yul\":20504:20505   */\n      0x00\n        /* \"#utility.yul\":20496:20502   */\n      dup3\n        /* \"#utility.yul\":20492:20506   */\n      add\n        /* \"#utility.yul\":20485:20529   */\n      mstore\n        /* \"#utility.yul\":20368:20536   */\n      pop\n      jump\t// out\n        /* \"#utility.yul\":20542:20908   */\n    tag_512:\n        /* \"#utility.yul\":20684:20687   */\n      0x00\n        /* \"#utility.yul\":20705:20772   */\n      tag_755\n        /* \"#utility.yul\":20769:20771   */\n      0x12\n        /* \"#utility.yul\":20764:20767   */\n      dup4\n        /* \"#utility.yul\":20705:20772   */\n      tag_474\n      jump\t// in\n    tag_755:\n        /* \"#utility.yul\":20698:20772   */\n      swap2\n      pop\n        /* \"#utility.yul\":20781:20874   */\n      tag_756\n        /* \"#utility.yul\":20870:20873   */\n      dup3\n        /* \"#utility.yul\":20781:20874   */\n      tag_511\n      jump\t// in\n    tag_756:\n        /* \"#utility.yul\":20899:20901   */\n      0x20\n        /* \"#utility.yul\":20894:20897   */\n      dup3\n        /* \"#utility.yul\":20890:20902   */\n      add\n        /* \"#utility.yul\":20883:20902   */\n      swap1\n      pop\n        /* \"#utility.yul\":20542:20908   */\n      swap2\n      swap1\n      pop\n      jump\t// out\n        /* \"#utility.yul\":20914:21333   */\n    tag_140:\n        /* \"#utility.yul\":21080:21084   */\n      0x00\n        /* \"#utility.yul\":21118:21120   */\n      0x20\n        /* \"#utility.yul\":21107:21116   */\n      dup3\n        /* \"#utility.yul\":21103:21121   */\n      add\n        /* \"#utility.yul\":21095:21121   */\n      swap1\n      pop\n        /* \"#utility.yul\":21167:21176   */\n      dup2\n        /* \"#utility.yul\":21161:21165   */\n      dup2\n        /* \"#utility.yul\":21157:21177   */\n      sub\n        /* \"#utility.yul\":21153:21154   */\n      0x00\n        /* \"#utility.yul\":21142:21151   */\n      dup4\n        /* \"#utility.yul\":21138:21155   */\n      add\n        /* \"#utility.yul\":21131:21178   */\n      mstore\n        /* \"#utility.yul\":21195:21326   */\n      tag_758\n        /* \"#utility.yul\":21321:21325   */\n      dup2\n        /* \"#utility.yul\":21195:21326   */\n      tag_512\n      jump\t// in\n    tag_758:\n        /* \"#utility.yul\":21187:21326   */\n      swap1\n      pop\n        /* \"#utility.yul\":20914:21333   */\n      swap2\n      swap1\n      pop\n      jump\t// out\n        /* \"#utility.yul\":21339:21520   */\n    tag_513:\n        /* \"#utility.yul\":21479:21512   */\n      0x43616c6c6572206973206e6f74207468652067616c6c657279206f776e657200\n        /* \"#utility.yul\":21475:21476   */\n      0x00\n        /* \"#utility.yul\":21467:21473   */\n      dup3\n        /* \"#utility.yul\":21463:21477   */\n      add\n        /* \"#utility.yul\":21456:21513   */\n      mstore\n        /* \"#utility.yul\":21339:21520   */\n      pop\n      jump\t// out\n        /* \"#utility.yul\":21526:21892   */\n    tag_514:\n        /* \"#utility.yul\":21668:21671   */\n      0x00\n        /* \"#utility.yul\":21689:21756   */\n      tag_761\n        /* \"#utility.yul\":21753:21755   */\n      0x1f\n        /* \"#utility.yul\":21748:21751   */\n      dup4\n        /* \"#utility.yul\":21689:21756   */\n      tag_474\n      jump\t// in\n    tag_761:\n        /* \"#utility.yul\":21682:21756   */\n      swap2\n      pop\n        /* \"#utility.yul\":21765:21858   */\n      tag_762\n        /* \"#utility.yul\":21854:21857   */\n      dup3\n        /* \"#utility.yul\":21765:21858   */\n      tag_513\n      jump\t// in\n    tag_762:\n        /* \"#utility.yul\":21883:21885   */\n      0x20\n        /* \"#utility.yul\":21878:21881   */\n      dup3\n        /* \"#utility.yul\":21874:21886   */\n      add\n        /* \"#utility.yul\":21867:21886   */\n      swap1\n      pop\n        /* \"#utility.yul\":21526:21892   */\n      swap2\n      swap1\n      pop\n      jump\t// out\n        /* \"#utility.yul\":21898:22317   */\n    tag_158:\n        /* \"#utility.yul\":22064:22068   */\n      0x00\n        /* \"#utility.yul\":22102:22104   */\n      0x20\n        /* \"#utility.yul\":22091:22100   */\n      dup3\n        /* \"#utility.yul\":22087:22105   */\n      add\n        /* \"#utility.yul\":22079:22105   */\n      swap1\n      pop\n        /* \"#utility.yul\":22151:22160   */\n      dup2\n        /* \"#utility.yul\":22145:22149   */\n      dup2\n        /* \"#utility.yul\":22141:22161   */\n      sub\n        /* \"#utility.yul\":22137:22138   */\n      0x00\n        /* \"#utility.yul\":22126:22135   */\n      dup4\n        /* \"#utility.yul\":22122:22139   */\n      add\n        /* \"#utility.yul\":22115:22162   */\n      mstore\n        /* \"#utility.yul\":22179:22310   */\n      tag_764\n        /* \"#utility.yul\":22305:22309   */\n      dup2\n        /* \"#utility.yul\":22179:22310   */\n      tag_514\n      jump\t// in\n    tag_764:\n        /* \"#utility.yul\":22171:22310   */\n      swap1\n      pop\n        /* \"#utility.yul\":21898:22317   */\n      swap2\n      swap1\n      pop\n      jump\t// out\n        /* \"#utility.yul\":22323:22492   */\n    tag_515:\n        /* \"#utility.yul\":22463:22484   */\n      0x52657175657374206e6f742070656e64696e6700000000000000000000000000\n        /* \"#utility.yul\":22459:22460   */\n      0x00\n        /* \"#utility.yul\":22451:22457   */\n      dup3\n        /* \"#utility.yul\":22447:22461   */\n      add\n        /* \"#utility.yul\":22440:22485   */\n      mstore\n        /* \"#utility.yul\":22323:22492   */\n      pop\n      jump\t// out\n        /* \"#utility.yul\":22498:22864   */\n    tag_516:\n        /* \"#utility.yul\":22640:22643   */\n      0x00\n        /* \"#utility.yul\":22661:22728   */\n      tag_767\n        /* \"#utility.yul\":22725:22727   */\n      0x13\n        /* \"#utility.yul\":22720:22723   */\n      dup4\n        /* \"#utility.yul\":22661:22728   */\n      tag_474\n      jump\t// in\n    tag_767:\n        /* \"#utility.yul\":22654:22728   */\n      swap2\n      pop\n        /* \"#utility.yul\":22737:22830   */\n      tag_768\n        /* \"#utility.yul\":22826:22829   */\n      dup3\n        /* \"#utility.yul\":22737:22830   */\n      tag_515\n      jump\t// in\n    tag_768:\n        /* \"#utility.yul\":22855:22857   */\n      0x20\n        /* \"#utility.yul\":22850:22853   */\n      dup3\n        /* \"#utility.yul\":22846:22858   */\n      add\n        /* \"#utility.yul\":22839:22858   */\n      swap1\n      pop\n        /* \"#utility.yul\":22498:22864   */\n      swap2\n      swap1\n      pop\n      jump\t// out\n        /* \"#utility.yul\":22870:23289   */\n    tag_165:\n        /* \"#utility.yul\":23036:23040   */\n      0x00\n        /* \"#utility.yul\":23074:23076   */\n      0x20\n        /* \"#utility.yul\":23063:23072   */\n      dup3\n        /* \"#utility.yul\":23059:23077   */\n      add\n        /* \"#utility.yul\":23051:23077   */\n      swap1\n      pop\n        /* \"#utility.yul\":23123:23132   */\n      dup2\n        /* \"#utility.yul\":23117:23121   */\n      dup2\n        /* \"#utility.yul\":23113:23133   */\n      sub\n        /* \"#utility.yul\":23109:23110   */\n      0x00\n        /* \"#utility.yul\":23098:23107   */\n      dup4\n        /* \"#utility.yul\":23094:23111   */\n      add\n        /* \"#utility.yul\":23087:23134   */\n      mstore\n        /* \"#utility.yul\":23151:23282   */\n      tag_770\n        /* \"#utility.yul\":23277:23281   */\n      dup2\n        /* \"#utility.yul\":23151:23282   */\n      tag_516\n      jump\t// in\n    tag_770:\n        /* \"#utility.yul\":23143:23282   */\n      swap1\n      pop\n        /* \"#utility.yul\":22870:23289   */\n      swap2\n      swap1\n      pop\n      jump\t// out\n        /* \"#utility.yul\":23295:23463   */\n    tag_517:\n        /* \"#utility.yul\":23435:23455   */\n      0x47616c6c657279206e6f74206163746976650000000000000000000000000000\n        /* \"#utility.yul\":23431:23432   */\n      0x00\n        /* \"#utility.yul\":23423:23429   */\n      dup3\n        /* \"#utility.yul\":23419:23433   */\n      add\n        /* \"#utility.yul\":23412:23456   */\n      mstore\n        /* \"#utility.yul\":23295:23463   */\n      pop\n      jump\t// out\n        /* \"#utility.yul\":23469:23835   */\n    tag_518:\n        /* \"#utility.yul\":23611:23614   */\n      0x00\n        /* \"#utility.yul\":23632:23699   */\n      tag_773\n        /* \"#utility.yul\":23696:23698   */\n      0x12\n        /* \"#utility.yul\":23691:23694   */\n      dup4\n        /* \"#utility.yul\":23632:23699   */\n      tag_474\n      jump\t// in\n    tag_773:\n        /* \"#utility.yul\":23625:23699   */\n      swap2\n      pop\n        /* \"#utility.yul\":23708:23801   */\n      tag_774\n        /* \"#utility.yul\":23797:23800   */\n      dup3\n        /* \"#utility.yul\":23708:23801   */\n      tag_517\n      jump\t// in\n    tag_774:\n        /* \"#utility.yul\":23826:23828   */\n      0x20\n        /* \"#utility.yul\":23821:23824   */\n      dup3\n        /* \"#utility.yul\":23817:23829   */\n      add\n        /* \"#utility.yul\":23810:23829   */\n      swap1\n      pop\n        /* \"#utility.yul\":23469:23835   */\n      swap2\n      swap1\n      pop\n      jump\t// out\n        /* \"#utility.yul\":23841:24260   */\n    tag_182:\n        /* \"#utility.yul\":24007:24011   */\n      0x00\n        /* \"#utility.yul\":24045:24047   */\n      0x20\n        /* \"#utility.yul\":24034:24043   */\n      dup3\n        /* \"#utility.yul\":24030:24048   */\n      add\n        /* \"#utility.yul\":24022:24048   */\n      swap1\n      pop\n        /* \"#utility.yul\":24094:24103   */\n      dup2\n        /* \"#utility.yul\":24088:24092   */\n      dup2\n        /* \"#utility.yul\":24084:24104   */\n      sub\n        /* \"#utility.yul\":24080:24081   */\n      0x00\n        /* \"#utility.yul\":24069:24078   */\n      dup4\n        /* \"#utility.yul\":24065:24082   */\n      add\n        /* \"#utility.yul\":24058:24105   */\n      mstore\n        /* \"#utility.yul\":24122:24253   */\n      tag_776\n        /* \"#utility.yul\":24248:24252   */\n      dup2\n        /* \"#utility.yul\":24122:24253   */\n      tag_518\n      jump\t// in\n    tag_776:\n        /* \"#utility.yul\":24114:24253   */\n      swap1\n      pop\n        /* \"#utility.yul\":23841:24260   */\n      swap2\n      swap1\n      pop\n      jump\t// out\n        /* \"#utility.yul\":24266:24351   */\n    tag_519:\n        /* \"#utility.yul\":24311:24318   */\n      0x00\n        /* \"#utility.yul\":24340:24345   */\n      dup2\n        /* \"#utility.yul\":24329:24345   */\n      swap1\n      pop\n        /* \"#utility.yul\":24266:24351   */\n      swap2\n      swap1\n      pop\n      jump\t// out\n        /* \"#utility.yul\":24357:24515   */\n    tag_520:\n        /* \"#utility.yul\":24415:24424   */\n      0x00\n        /* \"#utility.yul\":24448:24509   */\n      tag_779\n        /* \"#utility.yul\":24466:24508   */\n      tag_780\n        /* \"#utility.yul\":24475:24507   */\n      tag_781\n        /* \"#utility.yul\":24501:24506   */\n      dup5\n        /* \"#utility.yul\":24475:24507   */\n      tag_519\n      jump\t// in\n    tag_781:\n        /* \"#utility.yul\":24466:24508   */\n      tag_461\n      jump\t// in\n    tag_780:\n        /* \"#utility.yul\":24448:24509   */\n      tag_469\n      jump\t// in\n    tag_779:\n        /* \"#utility.yul\":24435:24509   */\n      swap1\n      pop\n        /* \"#utility.yul\":24357:24515   */\n      swap2\n      swap1\n      pop\n      jump\t// out\n        /* \"#utility.yul\":24521:24668   */\n    tag_521:\n        /* \"#utility.yul\":24616:24661   */\n      tag_783\n        /* \"#utility.yul\":24655:24660   */\n      dup2\n        /* \"#utility.yul\":24616:24661   */\n      tag_520\n      jump\t// in\n    tag_783:\n        /* \"#utility.yul\":24611:24614   */\n      dup3\n        /* \"#utility.yul\":24604:24662   */\n      mstore\n        /* \"#utility.yul\":24521:24668   */\n      pop\n      pop\n      jump\t// out\n        /* \"#utility.yul\":24674:25120   */\n    tag_186:\n        /* \"#utility.yul\":24825:24829   */\n      0x00\n        /* \"#utility.yul\":24863:24865   */\n      0x60\n        /* \"#utility.yul\":24852:24861   */\n      dup3\n        /* \"#utility.yul\":24848:24866   */\n      add\n        /* \"#utility.yul\":24840:24866   */\n      swap1\n      pop\n        /* \"#utility.yul\":24876:24947   */\n      tag_785\n        /* \"#utility.yul\":24944:24945   */\n      0x00\n        /* \"#utility.yul\":24933:24942   */\n      dup4\n        /* \"#utility.yul\":24929:24946   */\n      add\n        /* \"#utility.yul\":24920:24926   */\n      dup7\n        /* \"#utility.yul\":24876:24947   */\n      tag_472\n      jump\t// in\n    tag_785:\n        /* \"#utility.yul\":24957:25037   */\n      tag_786\n        /* \"#utility.yul\":25033:25035   */\n      0x20\n        /* \"#utility.yul\":25022:25031   */\n      dup4\n        /* \"#utility.yul\":25018:25036   */\n      add\n        /* \"#utility.yul\":25009:25015   */\n      dup6\n        /* \"#utility.yul\":24957:25037   */\n      tag_521\n      jump\t// in\n    tag_786:\n        /* \"#utility.yul\":25047:25113   */\n      tag_787\n        /* \"#utility.yul\":25109:25111   */\n      0x40\n        /* \"#utility.yul\":25098:25107   */\n      dup4\n        /* \"#utility.yul\":25094:25112   */\n      add\n        /* \"#utility.yul\":25085:25091   */\n      dup5\n        /* \"#utility.yul\":25047:25113   */\n      tag_486\n      jump\t// in\n    tag_787:\n        /* \"#utility.yul\":24674:25120   */\n      swap5\n      swap4\n      pop\n      pop\n      pop\n      pop\n      jump\t// out\n        /* \"#utility.yul\":25126:25301   */\n    tag_522:\n        /* \"#utility.yul\":25266:25293   */\n      0x4d75737420686176652057414c4c5f4f574e45525f524f4c4500000000000000\n        /* \"#utility.yul\":25262:25263   */\n      0x00\n        /* \"#utility.yul\":25254:25260   */\n      dup3\n        /* \"#utility.yul\":25250:25264   */\n      add\n        /* \"#utility.yul\":25243:25294   */\n      mstore\n        /* \"#utility.yul\":25126:25301   */\n      pop\n      jump\t// out\n        /* \"#utility.yul\":25307:25673   */\n    tag_523:\n        /* \"#utility.yul\":25449:25452   */\n      0x00\n        /* \"#utility.yul\":25470:25537   */\n      tag_790\n        /* \"#utility.yul\":25534:25536   */\n      0x19\n        /* \"#utility.yul\":25529:25532   */\n      dup4\n        /* \"#utility.yul\":25470:25537   */\n      tag_474\n      jump\t// in\n    tag_790:\n        /* \"#utility.yul\":25463:25537   */\n      swap2\n      pop\n        /* \"#utility.yul\":25546:25639   */\n      tag_791\n        /* \"#utility.yul\":25635:25638   */\n      dup3\n        /* \"#utility.yul\":25546:25639   */\n      tag_522\n      jump\t// in\n    tag_791:\n        /* \"#utility.yul\":25664:25666   */\n      0x20\n        /* \"#utility.yul\":25659:25662   */\n      dup3\n        /* \"#utility.yul\":25655:25667   */\n      add\n        /* \"#utility.yul\":25648:25667   */\n      swap1\n      pop\n        /* \"#utility.yul\":25307:25673   */\n      swap2\n      swap1\n      pop\n      jump\t// out\n        /* \"#utility.yul\":25679:26098   */\n    tag_217:\n        /* \"#utility.yul\":25845:25849   */\n      0x00\n        /* \"#utility.yul\":25883:25885   */\n      0x20\n        /* \"#utility.yul\":25872:25881   */\n      dup3\n        /* \"#utility.yul\":25868:25886   */\n      add\n        /* \"#utility.yul\":25860:25886   */\n      swap1\n      pop\n        /* \"#utility.yul\":25932:25941   */\n      dup2\n        /* \"#utility.yul\":25926:25930   */\n      dup2\n        /* \"#utility.yul\":25922:25942   */\n      sub\n        /* \"#utility.yul\":25918:25919   */\n      0x00\n        /* \"#utility.yul\":25907:25916   */\n      dup4\n        /* \"#utility.yul\":25903:25920   */\n      add\n        /* \"#utility.yul\":25896:25943   */\n      mstore\n        /* \"#utility.yul\":25960:26091   */\n      tag_793\n        /* \"#utility.yul\":26086:26090   */\n      dup2\n        /* \"#utility.yul\":25960:26091   */\n      tag_523\n      jump\t// in\n    tag_793:\n        /* \"#utility.yul\":25952:26091   */\n      swap1\n      pop\n        /* \"#utility.yul\":25679:26098   */\n      swap2\n      swap1\n      pop\n      jump\t// out\n        /* \"#utility.yul\":26104:26247   */\n    tag_524:\n        /* \"#utility.yul\":26161:26166   */\n      0x00\n        /* \"#utility.yul\":26192:26198   */\n      dup2\n        /* \"#utility.yul\":26186:26199   */\n      mload\n        /* \"#utility.yul\":26177:26199   */\n      swap1\n      pop\n        /* \"#utility.yul\":26208:26241   */\n      tag_795\n        /* \"#utility.yul\":26235:26240   */\n      dup2\n        /* \"#utility.yul\":26208:26241   */\n      tag_470\n      jump\t// in\n    tag_795:\n        /* \"#utility.yul\":26104:26247   */\n      swap3\n      swap2\n      pop\n      pop\n      jump\t// out\n        /* \"#utility.yul\":26253:26375   */\n    tag_525:\n        /* \"#utility.yul\":26326:26350   */\n      tag_797\n        /* \"#utility.yul\":26344:26349   */\n      dup2\n        /* \"#utility.yul\":26326:26350   */\n      tag_483\n      jump\t// in\n    tag_797:\n        /* \"#utility.yul\":26319:26324   */\n      dup2\n        /* \"#utility.yul\":26316:26351   */\n      eq\n        /* \"#utility.yul\":26306:26369   */\n      tag_798\n      jumpi\n        /* \"#utility.yul\":26365:26366   */\n      0x00\n        /* \"#utility.yul\":26362:26363   */\n      dup1\n        /* \"#utility.yul\":26355:26367   */\n      revert\n        /* \"#utility.yul\":26306:26369   */\n    tag_798:\n        /* \"#utility.yul\":26253:26375   */\n      pop\n      jump\t// out\n        /* \"#utility.yul\":26381:26524   */\n    tag_526:\n        /* \"#utility.yul\":26438:26443   */\n      0x00\n        /* \"#utility.yul\":26469:26475   */\n      dup2\n        /* \"#utility.yul\":26463:26476   */\n      mload\n        /* \"#utility.yul\":26454:26476   */\n      swap1\n      pop\n        /* \"#utility.yul\":26485:26518   */\n      tag_800\n        /* \"#utility.yul\":26512:26517   */\n      dup2\n        /* \"#utility.yul\":26485:26518   */\n      tag_525\n      jump\t// in\n    tag_800:\n        /* \"#utility.yul\":26381:26524   */\n      swap3\n      swap2\n      pop\n      pop\n      jump\t// out\n        /* \"#utility.yul\":26530:27658   */\n    tag_224:\n        /* \"#utility.yul\":26642:26648   */\n      0x00\n        /* \"#utility.yul\":26650:26656   */\n      dup1\n        /* \"#utility.yul\":26658:26664   */\n      0x00\n        /* \"#utility.yul\":26666:26672   */\n      dup1\n        /* \"#utility.yul\":26674:26680   */\n      0x00\n        /* \"#utility.yul\":26682:26688   */\n      dup1\n        /* \"#utility.yul\":26731:26734   */\n      0xc0\n        /* \"#utility.yul\":26719:26728   */\n      dup8\n        /* \"#utility.yul\":26710:26717   */\n      dup10\n        /* \"#utility.yul\":26706:26729   */\n      sub\n        /* \"#utility.yul\":26702:26735   */\n      slt\n        /* \"#utility.yul\":26699:26819   */\n      iszero\n      tag_802\n      jumpi\n        /* \"#utility.yul\":26738:26817   */\n      tag_803\n      tag_467\n      jump\t// in\n    tag_803:\n        /* \"#utility.yul\":26699:26819   */\n    tag_802:\n        /* \"#utility.yul\":26858:26859   */\n      0x00\n        /* \"#utility.yul\":26883:26947   */\n      tag_804\n        /* \"#utility.yul\":26939:26946   */\n      dup10\n        /* \"#utility.yul\":26930:26936   */\n      dup3\n        /* \"#utility.yul\":26919:26928   */\n      dup11\n        /* \"#utility.yul\":26915:26937   */\n      add\n        /* \"#utility.yul\":26883:26947   */\n      tag_524\n      jump\t// in\n    tag_804:\n        /* \"#utility.yul\":26873:26947   */\n      swap7\n      pop\n        /* \"#utility.yul\":26829:26957   */\n      pop\n        /* \"#utility.yul\":26996:26998   */\n      0x20\n        /* \"#utility.yul\":27022:27086   */\n      tag_805\n        /* \"#utility.yul\":27078:27085   */\n      dup10\n        /* \"#utility.yul\":27069:27075   */\n      dup3\n        /* \"#utility.yul\":27058:27067   */\n      dup11\n        /* \"#utility.yul\":27054:27076   */\n      add\n        /* \"#utility.yul\":27022:27086   */\n      tag_526\n      jump\t// in\n    tag_805:\n        /* \"#utility.yul\":27012:27086   */\n      swap6\n      pop\n        /* \"#utility.yul\":26967:27096   */\n      pop\n        /* \"#utility.yul\":27135:27137   */\n      0x40\n        /* \"#utility.yul\":27161:27225   */\n      tag_806\n        /* \"#utility.yul\":27217:27224   */\n      dup10\n        /* \"#utility.yul\":27208:27214   */\n      dup3\n        /* \"#utility.yul\":27197:27206   */\n      dup11\n        /* \"#utility.yul\":27193:27215   */\n      add\n        /* \"#utility.yul\":27161:27225   */\n      tag_524\n      jump\t// in\n    tag_806:\n        /* \"#utility.yul\":27151:27225   */\n      swap5\n      pop\n        /* \"#utility.yul\":27106:27235   */\n      pop\n        /* \"#utility.yul\":27274:27276   */\n      0x60\n        /* \"#utility.yul\":27300:27364   */\n      tag_807\n        /* \"#utility.yul\":27356:27363   */\n      dup10\n        /* \"#utility.yul\":27347:27353   */\n      dup3\n        /* \"#utility.yul\":27336:27345   */\n      dup11\n        /* \"#utility.yul\":27332:27354   */\n      add\n        /* \"#utility.yul\":27300:27364   */\n      tag_524\n      jump\t// in\n    tag_807:\n        /* \"#utility.yul\":27290:27364   */\n      swap4\n      pop\n        /* \"#utility.yul\":27245:27374   */\n      pop\n        /* \"#utility.yul\":27413:27416   */\n      0x80\n        /* \"#utility.yul\":27440:27501   */\n      tag_808\n        /* \"#utility.yul\":27493:27500   */\n      dup10\n        /* \"#utility.yul\":27484:27490   */\n      dup3\n        /* \"#utility.yul\":27473:27482   */\n      dup11\n        /* \"#utility.yul\":27469:27491   */\n      add\n        /* \"#utility.yul\":27440:27501   */\n      tag_508\n      jump\t// in\n    tag_808:\n        /* \"#utility.yul\":27430:27501   */\n      swap3\n      pop\n        /* \"#utility.yul\":27384:27511   */\n      pop\n        /* \"#utility.yul\":27550:27553   */\n      0xa0\n        /* \"#utility.yul\":27577:27641   */\n      tag_809\n        /* \"#utility.yul\":27633:27640   */\n      dup10\n        /* \"#utility.yul\":27624:27630   */\n      dup3\n        /* \"#utility.yul\":27613:27622   */\n      dup11\n        /* \"#utility.yul\":27609:27631   */\n      add\n        /* \"#utility.yul\":27577:27641   */\n      tag_524\n      jump\t// in\n    tag_809:\n        /* \"#utility.yul\":27567:27641   */\n      swap2\n      pop\n        /* \"#utility.yul\":27521:27651   */\n      pop\n        /* \"#utility.yul\":26530:27658   */\n      swap3\n      swap6\n      pop\n      swap3\n      swap6\n      pop\n      swap3\n      swap6\n      jump\t// out\n        /* \"#utility.yul\":27664:27828   */\n    tag_527:\n        /* \"#utility.yul\":27804:27820   */\n      0x4e6f742077616c6c206f776e6572000000000000000000000000000000000000\n        /* \"#utility.yul\":27800:27801   */\n      0x00\n        /* \"#utility.yul\":27792:27798   */\n      dup3\n        /* \"#utility.yul\":27788:27802   */\n      add\n        /* \"#utility.yul\":27781:27821   */\n      mstore\n        /* \"#utility.yul\":27664:27828   */\n      pop\n      jump\t// out\n        /* \"#utility.yul\":27834:28200   */\n    tag_528:\n        /* \"#utility.yul\":27976:27979   */\n      0x00\n        /* \"#utility.yul\":27997:28064   */\n      tag_812\n        /* \"#utility.yul\":28061:28063   */\n      0x0e\n        /* \"#utility.yul\":28056:28059   */\n      dup4\n        /* \"#utility.yul\":27997:28064   */\n      tag_474\n      jump\t// in\n    tag_812:\n        /* \"#utility.yul\":27990:28064   */\n      swap2\n      pop\n        /* \"#utility.yul\":28073:28166   */\n      tag_813\n        /* \"#utility.yul\":28162:28165   */\n      dup3\n        /* \"#utility.yul\":28073:28166   */\n      tag_527\n      jump\t// in\n    tag_813:\n        /* \"#utility.yul\":28191:28193   */\n      0x20\n        /* \"#utility.yul\":28186:28189   */\n      dup3\n        /* \"#utility.yul\":28182:28194   */\n      add\n        /* \"#utility.yul\":28175:28194   */\n      swap1\n      pop\n        /* \"#utility.yul\":27834:28200   */\n      swap2\n      swap1\n      pop\n      jump\t// out\n        /* \"#utility.yul\":28206:28625   */\n    tag_227:\n        /* \"#utility.yul\":28372:28376   */\n      0x00\n        /* \"#utility.yul\":28410:28412   */\n      0x20\n        /* \"#utility.yul\":28399:28408   */\n      dup3\n        /* \"#utility.yul\":28395:28413   */\n      add\n        /* \"#utility.yul\":28387:28413   */\n      swap1\n      pop\n        /* \"#utility.yul\":28459:28468   */\n      dup2\n        /* \"#utility.yul\":28453:28457   */\n      dup2\n        /* \"#utility.yul\":28449:28469   */\n      sub\n        /* \"#utility.yul\":28445:28446   */\n      0x00\n        /* \"#utility.yul\":28434:28443   */\n      dup4\n        /* \"#utility.yul\":28430:28447   */\n      add\n        /* \"#utility.yul\":28423:28470   */\n      mstore\n        /* \"#utility.yul\":28487:28618   */\n      tag_815\n        /* \"#utility.yul\":28613:28617   */\n      dup2\n        /* \"#utility.yul\":28487:28618   */\n      tag_528\n      jump\t// in\n    tag_815:\n        /* \"#utility.yul\":28479:28618   */\n      swap1\n      pop\n        /* \"#utility.yul\":28206:28625   */\n      swap2\n      swap1\n      pop\n      jump\t// out\n        /* \"#utility.yul\":28631:28806   */\n    tag_529:\n        /* \"#utility.yul\":28771:28798   */\n      0x57616c6c20616c726561647920696e20612067616c6c65727900000000000000\n        /* \"#utility.yul\":28767:28768   */\n      0x00\n        /* \"#utility.yul\":28759:28765   */\n      dup3\n        /* \"#utility.yul\":28755:28769   */\n      add\n        /* \"#utility.yul\":28748:28799   */\n      mstore\n        /* \"#utility.yul\":28631:28806   */\n      pop\n      jump\t// out\n        /* \"#utility.yul\":28812:29178   */\n    tag_530:\n        /* \"#utility.yul\":28954:28957   */\n      0x00\n        /* \"#utility.yul\":28975:29042   */\n      tag_818\n        /* \"#utility.yul\":29039:29041   */\n      0x19\n        /* \"#utility.yul\":29034:29037   */\n      dup4\n        /* \"#utility.yul\":28975:29042   */\n      tag_474\n      jump\t// in\n    tag_818:\n        /* \"#utility.yul\":28968:29042   */\n      swap2\n      pop\n        /* \"#utility.yul\":29051:29144   */\n      tag_819\n        /* \"#utility.yul\":29140:29143   */\n      dup3\n        /* \"#utility.yul\":29051:29144   */\n      tag_529\n      jump\t// in\n    tag_819:\n        /* \"#utility.yul\":29169:29171   */\n      0x20\n        /* \"#utility.yul\":29164:29167   */\n      dup3\n        /* \"#utility.yul\":29160:29172   */\n      add\n        /* \"#utility.yul\":29153:29172   */\n      swap1\n      pop\n        /* \"#utility.yul\":28812:29178   */\n      swap2\n      swap1\n      pop\n      jump\t// out\n        /* \"#utility.yul\":29184:29603   */\n    tag_230:\n        /* \"#utility.yul\":29350:29354   */\n      0x00\n        /* \"#utility.yul\":29388:29390   */\n      0x20\n        /* \"#utility.yul\":29377:29386   */\n      dup3\n        /* \"#utility.yul\":29373:29391   */\n      add\n        /* \"#utility.yul\":29365:29391   */\n      swap1\n      pop\n        /* \"#utility.yul\":29437:29446   */\n      dup2\n        /* \"#utility.yul\":29431:29435   */\n      dup2\n        /* \"#utility.yul\":29427:29447   */\n      sub\n        /* \"#utility.yul\":29423:29424   */\n      0x00\n        /* \"#utility.yul\":29412:29421   */\n      dup4\n        /* \"#utility.yul\":29408:29425   */\n      add\n        /* \"#utility.yul\":29401:29448   */\n      mstore\n        /* \"#utility.yul\":29465:29596   */\n      tag_821\n        /* \"#utility.yul\":29591:29595   */\n      dup2\n        /* \"#utility.yul\":29465:29596   */\n      tag_530\n      jump\t// in\n    tag_821:\n        /* \"#utility.yul\":29457:29596   */\n      swap1\n      pop\n        /* \"#utility.yul\":29184:29603   */\n      swap2\n      swap1\n      pop\n      jump\t// out\n        /* \"#utility.yul\":29609:29789   */\n    tag_531:\n        /* \"#utility.yul\":29657:29734   */\n      0x4e487b7100000000000000000000000000000000000000000000000000000000\n        /* \"#utility.yul\":29654:29655   */\n      0x00\n        /* \"#utility.yul\":29647:29735   */\n      mstore\n        /* \"#utility.yul\":29754:29758   */\n      0x11\n        /* \"#utility.yul\":29751:29752   */\n      0x04\n        /* \"#utility.yul\":29744:29759   */\n      mstore\n        /* \"#utility.yul\":29778:29782   */\n      0x24\n        /* \"#utility.yul\":29775:29776   */\n      0x00\n        /* \"#utility.yul\":29768:29783   */\n      revert\n        /* \"#utility.yul\":29795:29986   */\n    tag_232:\n        /* \"#utility.yul\":29835:29838   */\n      0x00\n        /* \"#utility.yul\":29854:29874   */\n      tag_824\n        /* \"#utility.yul\":29872:29873   */\n      dup3\n        /* \"#utility.yul\":29854:29874   */\n      tag_469\n      jump\t// in\n    tag_824:\n        /* \"#utility.yul\":29849:29874   */\n      swap2\n      pop\n        /* \"#utility.yul\":29888:29908   */\n      tag_825\n        /* \"#utility.yul\":29906:29907   */\n      dup4\n        /* \"#utility.yul\":29888:29908   */\n      tag_469\n      jump\t// in\n    tag_825:\n        /* \"#utility.yul\":29883:29908   */\n      swap3\n      pop\n        /* \"#utility.yul\":29931:29932   */\n      dup3\n        /* \"#utility.yul\":29928:29929   */\n      dup3\n        /* \"#utility.yul\":29924:29933   */\n      add\n        /* \"#utility.yul\":29917:29933   */\n      swap1\n      pop\n        /* \"#utility.yul\":29952:29955   */\n      dup1\n        /* \"#utility.yul\":29949:29950   */\n      dup3\n        /* \"#utility.yul\":29946:29956   */\n      gt\n        /* \"#utility.yul\":29943:29979   */\n      iszero\n      tag_826\n      jumpi\n        /* \"#utility.yul\":29959:29977   */\n      tag_827\n      tag_531\n      jump\t// in\n    tag_827:\n        /* \"#utility.yul\":29943:29979   */\n    tag_826:\n        /* \"#utility.yul\":29795:29986   */\n      swap3\n      swap2\n      pop\n      pop\n      jump\t// out\n        /* \"#utility.yul\":29992:30171   */\n    tag_532:\n        /* \"#utility.yul\":30132:30163   */\n      0x546f74616c2070657263656e7461676520657863656564732031303025000000\n        /* \"#utility.yul\":30128:30129   */\n      0x00\n        /* \"#utility.yul\":30120:30126   */\n      dup3\n        /* \"#utility.yul\":30116:30130   */\n      add\n        /* \"#utility.yul\":30109:30164   */\n      mstore\n        /* \"#utility.yul\":29992:30171   */\n      pop\n      jump\t// out\n        /* \"#utility.yul\":30177:30543   */\n    tag_533:\n        /* \"#utility.yul\":30319:30322   */\n      0x00\n        /* \"#utility.yul\":30340:30407   */\n      tag_830\n        /* \"#utility.yul\":30404:30406   */\n      0x1d\n        /* \"#utility.yul\":30399:30402   */\n      dup4\n        /* \"#utility.yul\":30340:30407   */\n      tag_474\n      jump\t// in\n    tag_830:\n        /* \"#utility.yul\":30333:30407   */\n      swap2\n      pop\n        /* \"#utility.yul\":30416:30509   */\n      tag_831\n        /* \"#utility.yul\":30505:30508   */\n      dup3\n        /* \"#utility.yul\":30416:30509   */\n      tag_532\n      jump\t// in\n    tag_831:\n        /* \"#utility.yul\":30534:30536   */\n      0x20\n        /* \"#utility.yul\":30529:30532   */\n      dup3\n        /* \"#utility.yul\":30525:30537   */\n      add\n        /* \"#utility.yul\":30518:30537   */\n      swap1\n      pop\n        /* \"#utility.yul\":30177:30543   */\n      swap2\n      swap1\n      pop\n      jump\t// out\n        /* \"#utility.yul\":30549:30968   */\n    tag_236:\n        /* \"#utility.yul\":30715:30719   */\n      0x00\n        /* \"#utility.yul\":30753:30755   */\n      0x20\n        /* \"#utility.yul\":30742:30751   */\n      dup3\n        /* \"#utility.yul\":30738:30756   */\n      add\n        /* \"#utility.yul\":30730:30756   */\n      swap1\n      pop\n        /* \"#utility.yul\":30802:30811   */\n      dup2\n        /* \"#utility.yul\":30796:30800   */\n      dup2\n        /* \"#utility.yul\":30792:30812   */\n      sub\n        /* \"#utility.yul\":30788:30789   */\n      0x00\n        /* \"#utility.yul\":30777:30786   */\n      dup4\n        /* \"#utility.yul\":30773:30790   */\n      add\n        /* \"#utility.yul\":30766:30813   */\n      mstore\n        /* \"#utility.yul\":30830:30961   */\n      tag_833\n        /* \"#utility.yul\":30956:30960   */\n      dup2\n        /* \"#utility.yul\":30830:30961   */\n      tag_533\n      jump\t// in\n    tag_833:\n        /* \"#utility.yul\":30822:30961   */\n      swap1\n      pop\n        /* \"#utility.yul\":30549:30968   */\n      swap2\n      swap1\n      pop\n      jump\t// out\n        /* \"#utility.yul\":30974:31152   */\n    tag_534:\n        /* \"#utility.yul\":31114:31144   */\n      0x4d75737420686176652047414c4c4552595f4f574e45525f524f4c4500000000\n        /* \"#utility.yul\":31110:31111   */\n      0x00\n        /* \"#utility.yul\":31102:31108   */\n      dup3\n        /* \"#utility.yul\":31098:31112   */\n      add\n        /* \"#utility.yul\":31091:31145   */\n      mstore\n        /* \"#utility.yul\":30974:31152   */\n      pop\n      jump\t// out\n        /* \"#utility.yul\":31158:31524   */\n    tag_535:\n        /* \"#utility.yul\":31300:31303   */\n      0x00\n        /* \"#utility.yul\":31321:31388   */\n      tag_836\n        /* \"#utility.yul\":31385:31387   */\n      0x1c\n        /* \"#utility.yul\":31380:31383   */\n      dup4\n        /* \"#utility.yul\":31321:31388   */\n      tag_474\n      jump\t// in\n    tag_836:\n        /* \"#utility.yul\":31314:31388   */\n      swap2\n      pop\n        /* \"#utility.yul\":31397:31490   */\n      tag_837\n        /* \"#utility.yul\":31486:31489   */\n      dup3\n        /* \"#utility.yul\":31397:31490   */\n      tag_534\n      jump\t// in\n    tag_837:\n        /* \"#utility.yul\":31515:31517   */\n      0x20\n        /* \"#utility.yul\":31510:31513   */\n      dup3\n        /* \"#utility.yul\":31506:31518   */\n      add\n        /* \"#utility.yul\":31499:31518   */\n      swap1\n      pop\n        /* \"#utility.yul\":31158:31524   */\n      swap2\n      swap1\n      pop\n      jump\t// out\n        /* \"#utility.yul\":31530:31949   */\n    tag_269:\n        /* \"#utility.yul\":31696:31700   */\n      0x00\n        /* \"#utility.yul\":31734:31736   */\n      0x20\n        /* \"#utility.yul\":31723:31732   */\n      dup3\n        /* \"#utility.yul\":31719:31737   */\n      add\n        /* \"#utility.yul\":31711:31737   */\n      swap1\n      pop\n        /* \"#utility.yul\":31783:31792   */\n      dup2\n        /* \"#utility.yul\":31777:31781   */\n      dup2\n        /* \"#utility.yul\":31773:31793   */\n      sub\n        /* \"#utility.yul\":31769:31770   */\n      0x00\n        /* \"#utility.yul\":31758:31767   */\n      dup4\n        /* \"#utility.yul\":31754:31771   */\n      add\n        /* \"#utility.yul\":31747:31794   */\n      mstore\n        /* \"#utility.yul\":31811:31942   */\n      tag_839\n        /* \"#utility.yul\":31937:31941   */\n      dup2\n        /* \"#utility.yul\":31811:31942   */\n      tag_535\n      jump\t// in\n    tag_839:\n        /* \"#utility.yul\":31803:31942   */\n      swap1\n      pop\n        /* \"#utility.yul\":31530:31949   */\n      swap2\n      swap1\n      pop\n      jump\t// out\n        /* \"#utility.yul\":31955:32072   */\n    tag_536:\n        /* \"#utility.yul\":32064:32065   */\n      0x00\n        /* \"#utility.yul\":32061:32062   */\n      dup1\n        /* \"#utility.yul\":32054:32066   */\n      revert\n        /* \"#utility.yul\":32078:32195   */\n    tag_537:\n        /* \"#utility.yul\":32187:32188   */\n      0x00\n        /* \"#utility.yul\":32184:32185   */\n      dup1\n        /* \"#utility.yul\":32177:32189   */\n      revert\n        /* \"#utility.yul\":32201:32318   */\n    tag_538:\n        /* \"#utility.yul\":32310:32311   */\n      0x00\n        /* \"#utility.yul\":32307:32308   */\n      dup1\n        /* \"#utility.yul\":32300:32312   */\n      revert\n        /* \"#utility.yul\":32324:33049   */\n    tag_271:\n        /* \"#utility.yul\":32402:32406   */\n      0x00\n        /* \"#utility.yul\":32408:32414   */\n      dup1\n        /* \"#utility.yul\":32464:32475   */\n      dup4\n        /* \"#utility.yul\":32451:32476   */\n      calldataload\n        /* \"#utility.yul\":32564:32565   */\n      0x01\n        /* \"#utility.yul\":32558:32562   */\n      0x20\n        /* \"#utility.yul\":32554:32566   */\n      sub\n        /* \"#utility.yul\":32543:32551   */\n      dup5\n        /* \"#utility.yul\":32527:32541   */\n      calldatasize\n        /* \"#utility.yul\":32523:32552   */\n      sub\n        /* \"#utility.yul\":32519:32567   */\n      sub\n        /* \"#utility.yul\":32499:32517   */\n      dup2\n        /* \"#utility.yul\":32495:32568   */\n      slt\n        /* \"#utility.yul\":32485:32653   */\n      tag_844\n      jumpi\n        /* \"#utility.yul\":32572:32651   */\n      tag_845\n      tag_536\n      jump\t// in\n    tag_845:\n        /* \"#utility.yul\":32485:32653   */\n    tag_844:\n        /* \"#utility.yul\":32684:32702   */\n      dup1\n        /* \"#utility.yul\":32674:32682   */\n      dup5\n        /* \"#utility.yul\":32670:32703   */\n      add\n        /* \"#utility.yul\":32662:32703   */\n      swap3\n      pop\n        /* \"#utility.yul\":32736:32740   */\n      dup3\n        /* \"#utility.yul\":32723:32741   */\n      calldataload\n        /* \"#utility.yul\":32713:32741   */\n      swap2\n      pop\n        /* \"#utility.yul\":32764:32782   */\n      0xffffffffffffffff\n        /* \"#utility.yul\":32756:32762   */\n      dup3\n        /* \"#utility.yul\":32753:32783   */\n      gt\n        /* \"#utility.yul\":32750:32867   */\n      iszero\n      tag_846\n      jumpi\n        /* \"#utility.yul\":32786:32865   */\n      tag_847\n      tag_537\n      jump\t// in\n    tag_847:\n        /* \"#utility.yul\":32750:32867   */\n    tag_846:\n        /* \"#utility.yul\":32894:32896   */\n      0x20\n        /* \"#utility.yul\":32888:32892   */\n      dup4\n        /* \"#utility.yul\":32884:32897   */\n      add\n        /* \"#utility.yul\":32876:32897   */\n      swap3\n      pop\n        /* \"#utility.yul\":32951:32955   */\n      0x01\n        /* \"#utility.yul\":32943:32949   */\n      dup3\n        /* \"#utility.yul\":32939:32956   */\n      mul\n        /* \"#utility.yul\":32923:32937   */\n      calldatasize\n        /* \"#utility.yul\":32919:32957   */\n      sub\n        /* \"#utility.yul\":32913:32917   */\n      dup4\n        /* \"#utility.yul\":32909:32958   */\n      sgt\n        /* \"#utility.yul\":32906:33042   */\n      iszero\n      tag_848\n      jumpi\n        /* \"#utility.yul\":32961:33040   */\n      tag_849\n      tag_538\n      jump\t// in\n    tag_849:\n        /* \"#utility.yul\":32906:33042   */\n    tag_848:\n        /* \"#utility.yul\":32415:33049   */\n      pop\n        /* \"#utility.yul\":32324:33049   */\n      swap3\n      pop\n      swap3\n      swap1\n      pop\n      jump\t// out\n        /* \"#utility.yul\":33055:33218   */\n    tag_539:\n        /* \"#utility.yul\":33195:33210   */\n      0x4e616d6520726571756972656400000000000000000000000000000000000000\n        /* \"#utility.yul\":33191:33192   */\n      0x00\n        /* \"#utility.yul\":33183:33189   */\n      dup3\n        /* \"#utility.yul\":33179:33193   */\n      add\n        /* \"#utility.yul\":33172:33211   */\n      mstore\n        /* \"#utility.yul\":33055:33218   */\n      pop\n      jump\t// out\n        /* \"#utility.yul\":33224:33590   */\n    tag_540:\n        /* \"#utility.yul\":33366:33369   */\n      0x00\n        /* \"#utility.yul\":33387:33454   */\n      tag_852\n        /* \"#utility.yul\":33451:33453   */\n      0x0d\n        /* \"#utility.yul\":33446:33449   */\n      dup4\n        /* \"#utility.yul\":33387:33454   */\n      tag_474\n      jump\t// in\n    tag_852:\n        /* \"#utility.yul\":33380:33454   */\n      swap2\n      pop\n        /* \"#utility.yul\":33463:33556   */\n      tag_853\n        /* \"#utility.yul\":33552:33555   */\n      dup3\n        /* \"#utility.yul\":33463:33556   */\n      tag_539\n      jump\t// in\n    tag_853:\n        /* \"#utility.yul\":33581:33583   */\n      0x20\n        /* \"#utility.yul\":33576:33579   */\n      dup3\n        /* \"#utility.yul\":33572:33584   */\n      add\n        /* \"#utility.yul\":33565:33584   */\n      swap1\n      pop\n        /* \"#utility.yul\":33224:33590   */\n      swap2\n      swap1\n      pop\n      jump\t// out\n        /* \"#utility.yul\":33596:34015   */\n    tag_274:\n        /* \"#utility.yul\":33762:33766   */\n      0x00\n        /* \"#utility.yul\":33800:33802   */\n      0x20\n        /* \"#utility.yul\":33789:33798   */\n      dup3\n        /* \"#utility.yul\":33785:33803   */\n      add\n        /* \"#utility.yul\":33777:33803   */\n      swap1\n      pop\n        /* \"#utility.yul\":33849:33858   */\n      dup2\n        /* \"#utility.yul\":33843:33847   */\n      dup2\n        /* \"#utility.yul\":33839:33859   */\n      sub\n        /* \"#utility.yul\":33835:33836   */\n      0x00\n        /* \"#utility.yul\":33824:33833   */\n      dup4\n        /* \"#utility.yul\":33820:33837   */\n      add\n        /* \"#utility.yul\":33813:33860   */\n      mstore\n        /* \"#utility.yul\":33877:34008   */\n      tag_855\n        /* \"#utility.yul\":34003:34007   */\n      dup2\n        /* \"#utility.yul\":33877:34008   */\n      tag_540\n      jump\t// in\n    tag_855:\n        /* \"#utility.yul\":33869:34008   */\n      swap1\n      pop\n        /* \"#utility.yul\":33596:34015   */\n      swap2\n      swap1\n      pop\n      jump\t// out\n        /* \"#utility.yul\":34021:34202   */\n    tag_541:\n        /* \"#utility.yul\":34161:34194   */\n      0x4d6178206f776e6572736869702070657263656e746167652069732035302500\n        /* \"#utility.yul\":34157:34158   */\n      0x00\n        /* \"#utility.yul\":34149:34155   */\n      dup3\n        /* \"#utility.yul\":34145:34159   */\n      add\n        /* \"#utility.yul\":34138:34195   */\n      mstore\n        /* \"#utility.yul\":34021:34202   */\n      pop\n      jump\t// out\n        /* \"#utility.yul\":34208:34574   */\n    tag_542:\n        /* \"#utility.yul\":34350:34353   */\n      0x00\n        /* \"#utility.yul\":34371:34438   */\n      tag_858\n        /* \"#utility.yul\":34435:34437   */\n      0x1f\n        /* \"#utility.yul\":34430:34433   */\n      dup4\n        /* \"#utility.yul\":34371:34438   */\n      tag_474\n      jump\t// in\n    tag_858:\n        /* \"#utility.yul\":34364:34438   */\n      swap2\n      pop\n        /* \"#utility.yul\":34447:34540   */\n      tag_859\n        /* \"#utility.yul\":34536:34539   */\n      dup3\n        /* \"#utility.yul\":34447:34540   */\n      tag_541\n      jump\t// in\n    tag_859:\n        /* \"#utility.yul\":34565:34567   */\n      0x20\n        /* \"#utility.yul\":34560:34563   */\n      dup3\n        /* \"#utility.yul\":34556:34568   */\n      add\n        /* \"#utility.yul\":34549:34568   */\n      swap1\n      pop\n        /* \"#utility.yul\":34208:34574   */\n      swap2\n      swap1\n      pop\n      jump\t// out\n        /* \"#utility.yul\":34580:34999   */\n    tag_277:\n        /* \"#utility.yul\":34746:34750   */\n      0x00\n        /* \"#utility.yul\":34784:34786   */\n      0x20\n        /* \"#utility.yul\":34773:34782   */\n      dup3\n        /* \"#utility.yul\":34769:34787   */\n      add\n        /* \"#utility.yul\":34761:34787   */\n      swap1\n      pop\n        /* \"#utility.yul\":34833:34842   */\n      dup2\n        /* \"#utility.yul\":34827:34831   */\n      dup2\n        /* \"#utility.yul\":34823:34843   */\n      sub\n        /* \"#utility.yul\":34819:34820   */\n      0x00\n        /* \"#utility.yul\":34808:34817   */\n      dup4\n        /* \"#utility.yul\":34804:34821   */\n      add\n        /* \"#utility.yul\":34797:34844   */\n      mstore\n        /* \"#utility.yul\":34861:34992   */\n      tag_861\n        /* \"#utility.yul\":34987:34991   */\n      dup2\n        /* \"#utility.yul\":34861:34992   */\n      tag_542\n      jump\t// in\n    tag_861:\n        /* \"#utility.yul\":34853:34992   */\n      swap1\n      pop\n        /* \"#utility.yul\":34580:34999   */\n      swap2\n      swap1\n      pop\n      jump\t// out\n        /* \"#utility.yul\":35005:35185   */\n    tag_543:\n        /* \"#utility.yul\":35053:35130   */\n      0x4e487b7100000000000000000000000000000000000000000000000000000000\n        /* \"#utility.yul\":35050:35051   */\n      0x00\n        /* \"#utility.yul\":35043:35131   */\n      mstore\n        /* \"#utility.yul\":35150:35154   */\n      0x41\n        /* \"#utility.yul\":35147:35148   */\n      0x04\n        /* \"#utility.yul\":35140:35155   */\n      mstore\n        /* \"#utility.yul\":35174:35178   */\n      0x24\n        /* \"#utility.yul\":35171:35172   */\n      0x00\n        /* \"#utility.yul\":35164:35179   */\n      revert\n        /* \"#utility.yul\":35191:35332   */\n    tag_544:\n        /* \"#utility.yul\":35240:35244   */\n      0x00\n        /* \"#utility.yul\":35263:35266   */\n      dup2\n        /* \"#utility.yul\":35255:35266   */\n      swap1\n      pop\n        /* \"#utility.yul\":35286:35289   */\n      dup2\n        /* \"#utility.yul\":35283:35284   */\n      0x00\n        /* \"#utility.yul\":35276:35290   */\n      mstore\n        /* \"#utility.yul\":35320:35324   */\n      0x20\n        /* \"#utility.yul\":35317:35318   */\n      0x00\n        /* \"#utility.yul\":35307:35325   */\n      keccak256\n        /* \"#utility.yul\":35299:35325   */\n      swap1\n      pop\n        /* \"#utility.yul\":35191:35332   */\n      swap2\n      swap1\n      pop\n      jump\t// out\n        /* \"#utility.yul\":35338:35431   */\n    tag_545:\n        /* \"#utility.yul\":35375:35381   */\n      0x00\n        /* \"#utility.yul\":35422:35424   */\n      0x20\n        /* \"#utility.yul\":35417:35419   */\n      0x1f\n        /* \"#utility.yul\":35410:35415   */\n      dup4\n        /* \"#utility.yul\":35406:35420   */\n      add\n        /* \"#utility.yul\":35402:35425   */\n      div\n        /* \"#utility.yul\":35392:35425   */\n      swap1\n      pop\n        /* \"#utility.yul\":35338:35431   */\n      swap2\n      swap1\n      pop\n      jump\t// out\n        /* \"#utility.yul\":35437:35544   */\n    tag_546:\n        /* \"#utility.yul\":35481:35489   */\n      0x00\n        /* \"#utility.yul\":35531:35536   */\n      dup3\n        /* \"#utility.yul\":35525:35529   */\n      dup3\n        /* \"#utility.yul\":35521:35537   */\n      shl\n        /* \"#utility.yul\":35500:35537   */\n      swap1\n      pop\n        /* \"#utility.yul\":35437:35544   */\n      swap3\n      swap2\n      pop\n      pop\n      jump\t// out\n        /* \"#utility.yul\":35550:35943   */\n    tag_547:\n        /* \"#utility.yul\":35619:35625   */\n      0x00\n        /* \"#utility.yul\":35669:35670   */\n      0x08\n        /* \"#utility.yul\":35657:35667   */\n      dup4\n        /* \"#utility.yul\":35653:35671   */\n      mul\n        /* \"#utility.yul\":35692:35789   */\n      tag_867\n        /* \"#utility.yul\":35722:35788   */\n      0xffffffffffffffffffffffffffffffffffffffffffffffffffffffffffffffff\n        /* \"#utility.yul\":35711:35720   */\n      dup3\n        /* \"#utility.yul\":35692:35789   */\n      tag_546\n      jump\t// in\n    tag_867:\n        /* \"#utility.yul\":35810:35849   */\n      tag_868\n        /* \"#utility.yul\":35840:35848   */\n      dup7\n        /* \"#utility.yul\":35829:35838   */\n      dup4\n        /* \"#utility.yul\":35810:35849   */\n      tag_546\n      jump\t// in\n    tag_868:\n        /* \"#utility.yul\":35798:35849   */\n      swap6\n      pop\n        /* \"#utility.yul\":35882:35886   */\n      dup1\n        /* \"#utility.yul\":35878:35887   */\n      not\n        /* \"#utility.yul\":35871:35876   */\n      dup5\n        /* \"#utility.yul\":35867:35888   */\n      and\n        /* \"#utility.yul\":35858:35888   */\n      swap4\n      pop\n        /* \"#utility.yul\":35931:35935   */\n      dup1\n        /* \"#utility.yul\":35921:35929   */\n      dup7\n        /* \"#utility.yul\":35917:35936   */\n      and\n        /* \"#utility.yul\":35910:35915   */\n      dup5\n        /* \"#utility.yul\":35907:35937   */\n      or\n        /* \"#utility.yul\":35897:35937   */\n      swap3\n      pop\n        /* \"#utility.yul\":35626:35943   */\n      pop\n      pop\n        /* \"#utility.yul\":35550:35943   */\n      swap4\n      swap3\n      pop\n      pop\n      pop\n      jump\t// out\n        /* \"#utility.yul\":35949:36091   */\n    tag_548:\n        /* \"#utility.yul\":35999:36008   */\n      0x00\n        /* \"#utility.yul\":36032:36085   */\n      tag_870\n        /* \"#utility.yul\":36050:36084   */\n      tag_871\n        /* \"#utility.yul\":36059:36083   */\n      tag_872\n        /* \"#utility.yul\":36077:36082   */\n      dup5\n        /* \"#utility.yul\":36059:36083   */\n      tag_469\n      jump\t// in\n    tag_872:\n        /* \"#utility.yul\":36050:36084   */\n      tag_461\n      jump\t// in\n    tag_871:\n        /* \"#utility.yul\":36032:36085   */\n      tag_469\n      jump\t// in\n    tag_870:\n        /* \"#utility.yul\":36019:36085   */\n      swap1\n      pop\n        /* \"#utility.yul\":35949:36091   */\n      swap2\n      swap1\n      pop\n      jump\t// out\n        /* \"#utility.yul\":36097:36172   */\n    tag_549:\n        /* \"#utility.yul\":36140:36143   */\n      0x00\n        /* \"#utility.yul\":36161:36166   */\n      dup2\n        /* \"#utility.yul\":36154:36166   */\n      swap1\n      pop\n        /* \"#utility.yul\":36097:36172   */\n      swap2\n      swap1\n      pop\n      jump\t// out\n        /* \"#utility.yul\":36178:36447   */\n    tag_550:\n        /* \"#utility.yul\":36288:36327   */\n      tag_875\n        /* \"#utility.yul\":36319:36326   */\n      dup4\n        /* \"#utility.yul\":36288:36327   */\n      tag_548\n      jump\t// in\n    tag_875:\n        /* \"#utility.yul\":36349:36440   */\n      tag_876\n        /* \"#utility.yul\":36398:36439   */\n      tag_877\n        /* \"#utility.yul\":36422:36438   */\n      dup3\n        /* \"#utility.yul\":36398:36439   */\n      tag_549\n      jump\t// in\n    tag_877:\n        /* \"#utility.yul\":36390:36396   */\n      dup5\n        /* \"#utility.yul\":36383:36387   */\n      dup5\n        /* \"#utility.yul\":36377:36388   */\n      sload\n        /* \"#utility.yul\":36349:36440   */\n      tag_547\n      jump\t// in\n    tag_876:\n        /* \"#utility.yul\":36343:36347   */\n      dup3\n        /* \"#utility.yul\":36336:36441   */\n      sstore\n        /* \"#utility.yul\":36254:36447   */\n      pop\n        /* \"#utility.yul\":36178:36447   */\n      pop\n      pop\n      pop\n      jump\t// out\n        /* \"#utility.yul\":36453:36526   */\n    tag_551:\n        /* \"#utility.yul\":36498:36501   */\n      0x00\n        /* \"#utility.yul\":36453:36526   */\n      swap1\n      jump\t// out\n        /* \"#utility.yul\":36532:36721   */\n    tag_552:\n        /* \"#utility.yul\":36609:36641   */\n      tag_880\n      tag_551\n      jump\t// in\n    tag_880:\n        /* \"#utility.yul\":36650:36715   */\n      tag_881\n        /* \"#utility.yul\":36708:36714   */\n      dup2\n        /* \"#utility.yul\":36700:36706   */\n      dup5\n        /* \"#utility.yul\":36694:36698   */\n      dup5\n        /* \"#utility.yul\":36650:36715   */\n      tag_550\n      jump\t// in\n    tag_881:\n        /* \"#utility.yul\":36585:36721   */\n      pop\n        /* \"#utility.yul\":36532:36721   */\n      pop\n      pop\n      jump\t// out\n        /* \"#utility.yul\":36727:36913   */\n    tag_553:\n        /* \"#utility.yul\":36787:36907   */\n    tag_883:\n        /* \"#utility.yul\":36804:36807   */\n      dup2\n        /* \"#utility.yul\":36797:36802   */\n      dup2\n        /* \"#utility.yul\":36794:36808   */\n      lt\n        /* \"#utility.yul\":36787:36907   */\n      iszero\n      tag_885\n      jumpi\n        /* \"#utility.yul\":36858:36897   */\n      tag_886\n        /* \"#utility.yul\":36895:36896   */\n      0x00\n        /* \"#utility.yul\":36888:36893   */\n      dup3\n        /* \"#utility.yul\":36858:36897   */\n      tag_552\n      jump\t// in\n    tag_886:\n        /* \"#utility.yul\":36831:36832   */\n      0x01\n        /* \"#utility.yul\":36824:36829   */\n      dup2\n        /* \"#utility.yul\":36820:36833   */\n      add\n        /* \"#utility.yul\":36811:36833   */\n      swap1\n      pop\n        /* \"#utility.yul\":36787:36907   */\n      jump(tag_883)\n    tag_885:\n        /* \"#utility.yul\":36727:36913   */\n      pop\n      pop\n      jump\t// out\n        /* \"#utility.yul\":36919:37462   */\n    tag_554:\n        /* \"#utility.yul\":37020:37022   */\n      0x1f\n        /* \"#utility.yul\":37015:37018   */\n      dup3\n        /* \"#utility.yul\":37012:37023   */\n      gt\n        /* \"#utility.yul\":37009:37455   */\n      iszero\n      tag_888\n      jumpi\n        /* \"#utility.yul\":37054:37092   */\n      tag_889\n        /* \"#utility.yul\":37086:37091   */\n      dup2\n        /* \"#utility.yul\":37054:37092   */\n      tag_544\n      jump\t// in\n    tag_889:\n        /* \"#utility.yul\":37138:37167   */\n      tag_890\n        /* \"#utility.yul\":37156:37166   */\n      dup5\n        /* \"#utility.yul\":37138:37167   */\n      tag_545\n      jump\t// in\n    tag_890:\n        /* \"#utility.yul\":37128:37136   */\n      dup2\n        /* \"#utility.yul\":37124:37168   */\n      add\n        /* \"#utility.yul\":37321:37323   */\n      0x20\n        /* \"#utility.yul\":37309:37319   */\n      dup6\n        /* \"#utility.yul\":37306:37324   */\n      lt\n        /* \"#utility.yul\":37303:37352   */\n      iszero\n      tag_891\n      jumpi\n        /* \"#utility.yul\":37342:37350   */\n      dup2\n        /* \"#utility.yul\":37327:37350   */\n      swap1\n      pop\n        /* \"#utility.yul\":37303:37352   */\n    tag_891:\n        /* \"#utility.yul\":37365:37445   */\n      tag_892\n        /* \"#utility.yul\":37421:37443   */\n      tag_893\n        /* \"#utility.yul\":37439:37442   */\n      dup6\n        /* \"#utility.yul\":37421:37443   */\n      tag_545\n      jump\t// in\n    tag_893:\n        /* \"#utility.yul\":37411:37419   */\n      dup4\n        /* \"#utility.yul\":37407:37444   */\n      add\n        /* \"#utility.yul\":37394:37405   */\n      dup3\n        /* \"#utility.yul\":37365:37445   */\n      tag_553\n      jump\t// in\n    tag_892:\n        /* \"#utility.yul\":37024:37455   */\n      pop\n      pop\n        /* \"#utility.yul\":37009:37455   */\n    tag_888:\n        /* \"#utility.yul\":36919:37462   */\n      pop\n      pop\n      pop\n      jump\t// out\n        /* \"#utility.yul\":37468:37585   */\n    tag_555:\n        /* \"#utility.yul\":37522:37530   */\n      0x00\n        /* \"#utility.yul\":37572:37577   */\n      dup3\n        /* \"#utility.yul\":37566:37570   */\n      dup3\n        /* \"#utility.yul\":37562:37578   */\n      shr\n        /* \"#utility.yul\":37541:37578   */\n      swap1\n      pop\n        /* \"#utility.yul\":37468:37585   */\n      swap3\n      swap2\n      pop\n      pop\n      jump\t// out\n        /* \"#utility.yul\":37591:37760   */\n    tag_556:\n        /* \"#utility.yul\":37635:37641   */\n      0x00\n        /* \"#utility.yul\":37668:37719   */\n      tag_896\n        /* \"#utility.yul\":37716:37717   */\n      0x00\n        /* \"#utility.yul\":37712:37718   */\n      not\n        /* \"#utility.yul\":37704:37709   */\n      dup5\n        /* \"#utility.yul\":37701:37702   */\n      0x08\n        /* \"#utility.yul\":37697:37710   */\n      mul\n        /* \"#utility.yul\":37668:37719   */\n      tag_555\n      jump\t// in\n    tag_896:\n        /* \"#utility.yul\":37664:37720   */\n      not\n        /* \"#utility.yul\":37749:37753   */\n      dup1\n        /* \"#utility.yul\":37743:37747   */\n      dup4\n        /* \"#utility.yul\":37739:37754   */\n      and\n        /* \"#utility.yul\":37729:37754   */\n      swap2\n      pop\n        /* \"#utility.yul\":37642:37760   */\n      pop\n        /* \"#utility.yul\":37591:37760   */\n      swap3\n      swap2\n      pop\n      pop\n      jump\t// out\n        /* \"#utility.yul\":37765:38060   */\n    tag_557:\n        /* \"#utility.yul\":37841:37845   */\n      0x00\n        /* \"#utility.yul\":37987:38016   */\n      tag_898\n        /* \"#utility.yul\":38012:38015   */\n      dup4\n        /* \"#utility.yul\":38006:38010   */\n      dup4\n        /* \"#utility.yul\":37987:38016   */\n      tag_556\n      jump\t// in\n    tag_898:\n        /* \"#utility.yul\":37979:38016   */\n      swap2\n      pop\n        /* \"#utility.yul\":38049:38052   */\n      dup3\n        /* \"#utility.yul\":38046:38047   */\n      0x02\n        /* \"#utility.yul\":38042:38053   */\n      mul\n        /* \"#utility.yul\":38036:38040   */\n      dup3\n        /* \"#utility.yul\":38033:38054   */\n      or\n        /* \"#utility.yul\":38025:38054   */\n      swap1\n      pop\n        /* \"#utility.yul\":37765:38060   */\n      swap3\n      swap2\n      pop\n      pop\n      jump\t// out\n        /* \"#utility.yul\":38065:39460   */\n    tag_287:\n        /* \"#utility.yul\":38182:38219   */\n      tag_900\n        /* \"#utility.yul\":38215:38218   */\n      dup3\n        /* \"#utility.yul\":38182:38219   */\n      tag_473\n      jump\t// in\n    tag_900:\n        /* \"#utility.yul\":38284:38302   */\n      0xffffffffffffffff\n        /* \"#utility.yul\":38276:38282   */\n      dup2\n        /* \"#utility.yul\":38273:38303   */\n      gt\n        /* \"#utility.yul\":38270:38326   */\n      iszero\n      tag_901\n      jumpi\n        /* \"#utility.yul\":38306:38324   */\n      tag_902\n      tag_543\n      jump\t// in\n    tag_902:\n        /* \"#utility.yul\":38270:38326   */\n    tag_901:\n        /* \"#utility.yul\":38350:38388   */\n      tag_903\n        /* \"#utility.yul\":38382:38386   */\n      dup3\n        /* \"#utility.yul\":38376:38387   */\n      sload\n        /* \"#utility.yul\":38350:38388   */\n      tag_103\n      jump\t// in\n    tag_903:\n        /* \"#utility.yul\":38435:38502   */\n      tag_904\n        /* \"#utility.yul\":38495:38501   */\n      dup3\n        /* \"#utility.yul\":38487:38493   */\n      dup3\n        /* \"#utility.yul\":38481:38485   */\n      dup6\n        /* \"#utility.yul\":38435:38502   */\n      tag_554\n      jump\t// in\n    tag_904:\n        /* \"#utility.yul\":38529:38530   */\n      0x00\n        /* \"#utility.yul\":38553:38557   */\n      0x20\n        /* \"#utility.yul\":38540:38557   */\n      swap1\n      pop\n        /* \"#utility.yul\":38585:38587   */\n      0x1f\n        /* \"#utility.yul\":38577:38583   */\n      dup4\n        /* \"#utility.yul\":38574:38588   */\n      gt\n        /* \"#utility.yul\":38602:38603   */\n      0x01\n        /* \"#utility.yul\":38597:39215   */\n      dup2\n      eq\n      tag_906\n      jumpi\n        /* \"#utility.yul\":39259:39260   */\n      0x00\n        /* \"#utility.yul\":39276:39282   */\n      dup5\n        /* \"#utility.yul\":39273:39350   */\n      iszero\n      tag_907\n      jumpi\n        /* \"#utility.yul\":39325:39334   */\n      dup3\n        /* \"#utility.yul\":39320:39323   */\n      dup8\n        /* \"#utility.yul\":39316:39335   */\n      add\n        /* \"#utility.yul\":39310:39336   */\n      mload\n        /* \"#utility.yul\":39301:39336   */\n      swap1\n      pop\n        /* \"#utility.yul\":39273:39350   */\n    tag_907:\n        /* \"#utility.yul\":39376:39443   */\n      tag_908\n        /* \"#utility.yul\":39436:39442   */\n      dup6\n        /* \"#utility.yul\":39429:39434   */\n      dup3\n        /* \"#utility.yul\":39376:39443   */\n      tag_557\n      jump\t// in\n    tag_908:\n        /* \"#utility.yul\":39370:39374   */\n      dup7\n        /* \"#utility.yul\":39363:39444   */\n      sstore\n        /* \"#utility.yul\":39232:39454   */\n      pop\n        /* \"#utility.yul\":38567:39454   */\n      jump(tag_905)\n        /* \"#utility.yul\":38597:39215   */\n    tag_906:\n        /* \"#utility.yul\":38649:38653   */\n      0x1f\n        /* \"#utility.yul\":38645:38654   */\n      not\n        /* \"#utility.yul\":38637:38643   */\n      dup5\n        /* \"#utility.yul\":38633:38655   */\n      and\n        /* \"#utility.yul\":38683:38720   */\n      tag_909\n        /* \"#utility.yul\":38715:38719   */\n      dup7\n        /* \"#utility.yul\":38683:38720   */\n      tag_544\n      jump\t// in\n    tag_909:\n        /* \"#utility.yul\":38742:38743   */\n      0x00\n        /* \"#utility.yul\":38756:38964   */\n    tag_910:\n        /* \"#utility.yul\":38770:38777   */\n      dup3\n        /* \"#utility.yul\":38767:38768   */\n      dup2\n        /* \"#utility.yul\":38764:38778   */\n      lt\n        /* \"#utility.yul\":38756:38964   */\n      iszero\n      tag_912\n      jumpi\n        /* \"#utility.yul\":38849:38858   */\n      dup5\n        /* \"#utility.yul\":38844:38847   */\n      dup10\n        /* \"#utility.yul\":38840:38859   */\n      add\n        /* \"#utility.yul\":38834:38860   */\n      mload\n        /* \"#utility.yul\":38826:38832   */\n      dup3\n        /* \"#utility.yul\":38819:38861   */\n      sstore\n        /* \"#utility.yul\":38900:38901   */\n      0x01\n        /* \"#utility.yul\":38892:38898   */\n      dup3\n        /* \"#utility.yul\":38888:38902   */\n      add\n        /* \"#utility.yul\":38878:38902   */\n      swap2\n      pop\n        /* \"#utility.yul\":38947:38949   */\n      0x20\n        /* \"#utility.yul\":38936:38945   */\n      dup6\n        /* \"#utility.yul\":38932:38950   */\n      add\n        /* \"#utility.yul\":38919:38950   */\n      swap5\n      pop\n        /* \"#utility.yul\":38793:38797   */\n      0x20\n        /* \"#utility.yul\":38790:38791   */\n      dup2\n        /* \"#utility.yul\":38786:38798   */\n      add\n        /* \"#utility.yul\":38781:38798   */\n      swap1\n      pop\n        /* \"#utility.yul\":38756:38964   */\n      jump(tag_910)\n    tag_912:\n        /* \"#utility.yul\":38992:38998   */\n      dup7\n        /* \"#utility.yul\":38983:38990   */\n      dup4\n        /* \"#utility.yul\":38980:38999   */\n      lt\n        /* \"#utility.yul\":38977:39156   */\n      iszero\n      tag_913\n      jumpi\n        /* \"#utility.yul\":39050:39059   */\n      dup5\n        /* \"#utility.yul\":39045:39048   */\n      dup10\n        /* \"#utility.yul\":39041:39060   */\n      add\n        /* \"#utility.yul\":39035:39061   */\n      mload\n        /* \"#utility.yul\":39093:39141   */\n      tag_914\n        /* \"#utility.yul\":39135:39139   */\n      0x1f\n        /* \"#utility.yul\":39127:39133   */\n      dup10\n        /* \"#utility.yul\":39123:39140   */\n      and\n        /* \"#utility.yul\":39112:39121   */\n      dup3\n        /* \"#utility.yul\":39093:39141   */\n      tag_556\n      jump\t// in\n    tag_914:\n        /* \"#utility.yul\":39085:39091   */\n      dup4\n        /* \"#utility.yul\":39078:39142   */\n      sstore\n        /* \"#utility.yul\":39000:39156   */\n      pop\n        /* \"#utility.yul\":38977:39156   */\n    tag_913:\n        /* \"#utility.yul\":39202:39203   */\n      0x01\n        /* \"#utility.yul\":39198:39199   */\n      0x02\n        /* \"#utility.yul\":39190:39196   */\n      dup9\n        /* \"#utility.yul\":39186:39200   */\n      mul\n        /* \"#utility.yul\":39182:39204   */\n      add\n        /* \"#utility.yul\":39176:39180   */\n      dup9\n        /* \"#utility.yul\":39169:39205   */\n      sstore\n        /* \"#utility.yul\":38604:39215   */\n      pop\n      pop\n      pop\n        /* \"#utility.yul\":38567:39454   */\n    tag_905:\n      pop\n        /* \"#utility.yul\":38157:39460   */\n      pop\n      pop\n      pop\n        /* \"#utility.yul\":38065:39460   */\n      pop\n      pop\n      jump\t// out\n        /* \"#utility.yul\":39466:39695   */\n    tag_558:\n        /* \"#utility.yul\":39606:39640   */\n      0x526571756573746572206d757374206d61696e7461696e2047414c4c4552595f\n        /* \"#utility.yul\":39602:39603   */\n      0x00\n        /* \"#utility.yul\":39594:39600   */\n      dup3\n        /* \"#utility.yul\":39590:39604   */\n      add\n        /* \"#utility.yul\":39583:39641   */\n      mstore\n        /* \"#utility.yul\":39675:39687   */\n      0x4f574e45525f524f4c4500000000000000000000000000000000000000000000\n        /* \"#utility.yul\":39670:39672   */\n      0x20\n        /* \"#utility.yul\":39662:39668   */\n      dup3\n        /* \"#utility.yul\":39658:39673   */\n      add\n        /* \"#utility.yul\":39651:39688   */\n      mstore\n        /* \"#utility.yul\":39466:39695   */\n      pop\n      jump\t// out\n        /* \"#utility.yul\":39701:40067   */\n    tag_559:\n        /* \"#utility.yul\":39843:39846   */\n      0x00\n        /* \"#utility.yul\":39864:39931   */\n      tag_917\n        /* \"#utility.yul\":39928:39930   */\n      0x2a\n        /* \"#utility.yul\":39923:39926   */\n      dup4\n        /* \"#utility.yul\":39864:39931   */\n      tag_474\n      jump\t// in\n    tag_917:\n        /* \"#utility.yul\":39857:39931   */\n      swap2\n      pop\n        /* \"#utility.yul\":39940:40033   */\n      tag_918\n        /* \"#utility.yul\":40029:40032   */\n      dup3\n        /* \"#utility.yul\":39940:40033   */\n      tag_558\n      jump\t// in\n    tag_918:\n        /* \"#utility.yul\":40058:40060   */\n      0x40\n        /* \"#utility.yul\":40053:40056   */\n      dup3\n        /* \"#utility.yul\":40049:40061   */\n      add\n        /* \"#utility.yul\":40042:40061   */\n      swap1\n      pop\n        /* \"#utility.yul\":39701:40067   */\n      swap2\n      swap1\n      pop\n      jump\t// out\n        /* \"#utility.yul\":40073:40492   */\n    tag_360:\n        /* \"#utility.yul\":40239:40243   */\n      0x00\n        /* \"#utility.yul\":40277:40279   */\n      0x20\n        /* \"#utility.yul\":40266:40275   */\n      dup3\n        /* \"#utility.yul\":40262:40280   */\n      add\n        /* \"#utility.yul\":40254:40280   */\n      swap1\n      pop\n        /* \"#utility.yul\":40326:40335   */\n      dup2\n        /* \"#utility.yul\":40320:40324   */\n      dup2\n        /* \"#utility.yul\":40316:40336   */\n      sub\n        /* \"#utility.yul\":40312:40313   */\n      0x00\n        /* \"#utility.yul\":40301:40310   */\n      dup4\n        /* \"#utility.yul\":40297:40314   */\n      add\n        /* \"#utility.yul\":40290:40337   */\n      mstore\n        /* \"#utility.yul\":40354:40485   */\n      tag_920\n        /* \"#utility.yul\":40480:40484   */\n      dup2\n        /* \"#utility.yul\":40354:40485   */\n      tag_559\n      jump\t// in\n    tag_920:\n        /* \"#utility.yul\":40346:40485   */\n      swap1\n      pop\n        /* \"#utility.yul\":40073:40492   */\n      swap2\n      swap1\n      pop\n      jump\t// out\n        /* \"#utility.yul\":40498:40725   */\n    tag_560:\n        /* \"#utility.yul\":40638:40672   */\n      0x57616c6c206f776e6572206d757374206d61696e7461696e2057414c4c5f4f57\n        /* \"#utility.yul\":40634:40635   */\n      0x00\n        /* \"#utility.yul\":40626:40632   */\n      dup3\n        /* \"#utility.yul\":40622:40636   */\n      add\n        /* \"#utility.yul\":40615:40673   */\n      mstore\n        /* \"#utility.yul\":40707:40717   */\n      0x4e45525f524f4c45000000000000000000000000000000000000000000000000\n        /* \"#utility.yul\":40702:40704   */\n      0x20\n        /* \"#utility.yul\":40694:40700   */\n      dup3\n        /* \"#utility.yul\":40690:40705   */\n      add\n        /* \"#utility.yul\":40683:40718   */\n      mstore\n        /* \"#utility.yul\":40498:40725   */\n      pop\n      jump\t// out\n        /* \"#utility.yul\":40731:41097   */\n    tag_561:\n        /* \"#utility.yul\":40873:40876   */\n      0x00\n        /* \"#utility.yul\":40894:40961   */\n      tag_923\n        /* \"#utility.yul\":40958:40960   */\n      0x28\n        /* \"#utility.yul\":40953:40956   */\n      dup4\n        /* \"#utility.yul\":40894:40961   */\n      tag_474\n      jump\t// in\n    tag_923:\n        /* \"#utility.yul\":40887:40961   */\n      swap2\n      pop\n        /* \"#utility.yul\":40970:41063   */\n      tag_924\n        /* \"#utility.yul\":41059:41062   */\n      dup3\n        /* \"#utility.yul\":40970:41063   */\n      tag_560\n      jump\t// in\n    tag_924:\n        /* \"#utility.yul\":41088:41090   */\n      0x40\n        /* \"#utility.yul\":41083:41086   */\n      dup3\n        /* \"#utility.yul\":41079:41091   */\n      add\n        /* \"#utility.yul\":41072:41091   */\n      swap1\n      pop\n        /* \"#utility.yul\":40731:41097   */\n      swap2\n      swap1\n      pop\n      jump\t// out\n        /* \"#utility.yul\":41103:41522   */\n    tag_402:\n        /* \"#utility.yul\":41269:41273   */\n      0x00\n        /* \"#utility.yul\":41307:41309   */\n      0x20\n        /* \"#utility.yul\":41296:41305   */\n      dup3\n        /* \"#utility.yul\":41292:41310   */\n      add\n        /* \"#utility.yul\":41284:41310   */\n      swap1\n      pop\n        /* \"#utility.yul\":41356:41365   */\n      dup2\n        /* \"#utility.yul\":41350:41354   */\n      dup2\n        /* \"#utility.yul\":41346:41366   */\n      sub\n        /* \"#utility.yul\":41342:41343   */\n      0x00\n        /* \"#utility.yul\":41331:41340   */\n      dup4\n        /* \"#utility.yul\":41327:41344   */\n      add\n        /* \"#utility.yul\":41320:41367   */\n      mstore\n        /* \"#utility.yul\":41384:41515   */\n      tag_926\n        /* \"#utility.yul\":41510:41514   */\n      dup2\n        /* \"#utility.yul\":41384:41515   */\n      tag_561\n      jump\t// in\n    tag_926:\n        /* \"#utility.yul\":41376:41515   */\n      swap1\n      pop\n        /* \"#utility.yul\":41103:41522   */\n      swap2\n      swap1\n      pop\n      jump\t// out\n        /* \"#utility.yul\":41528:41958   */\n    tag_404:\n        /* \"#utility.yul\":41671:41675   */\n      0x00\n        /* \"#utility.yul\":41709:41711   */\n      0x60\n        /* \"#utility.yul\":41698:41707   */\n      dup3\n        /* \"#utility.yul\":41694:41712   */\n      add\n        /* \"#utility.yul\":41686:41712   */\n      swap1\n      pop\n        /* \"#utility.yul\":41722:41793   */\n      tag_928\n        /* \"#utility.yul\":41790:41791   */\n      0x00\n        /* \"#utility.yul\":41779:41788   */\n      dup4\n        /* \"#utility.yul\":41775:41792   */\n      add\n        /* \"#utility.yul\":41766:41772   */\n      dup7\n        /* \"#utility.yul\":41722:41793   */\n      tag_472\n      jump\t// in\n    tag_928:\n        /* \"#utility.yul\":41803:41875   */\n      tag_929\n        /* \"#utility.yul\":41871:41873   */\n      0x20\n        /* \"#utility.yul\":41860:41869   */\n      dup4\n        /* \"#utility.yul\":41856:41874   */\n      add\n        /* \"#utility.yul\":41847:41853   */\n      dup6\n        /* \"#utility.yul\":41803:41875   */\n      tag_472\n      jump\t// in\n    tag_929:\n        /* \"#utility.yul\":41885:41951   */\n      tag_930\n        /* \"#utility.yul\":41947:41949   */\n      0x40\n        /* \"#utility.yul\":41936:41945   */\n      dup4\n        /* \"#utility.yul\":41932:41950   */\n      add\n        /* \"#utility.yul\":41923:41929   */\n      dup5\n        /* \"#utility.yul\":41885:41951   */\n      tag_486\n      jump\t// in\n    tag_930:\n        /* \"#utility.yul\":41528:41958   */\n      swap5\n      swap4\n      pop\n      pop\n      pop\n      pop\n      jump\t// out\n        /* \"#utility.yul\":41964:42186   */\n    tag_416:\n        /* \"#utility.yul\":42057:42061   */\n      0x00\n        /* \"#utility.yul\":42095:42097   */\n      0x20\n        /* \"#utility.yul\":42084:42093   */\n      dup3\n        /* \"#utility.yul\":42080:42098   */\n      add\n        /* \"#utility.yul\":42072:42098   */\n      swap1\n      pop\n        /* \"#utility.yul\":42108:42179   */\n      tag_932\n        /* \"#utility.yul\":42176:42177   */\n      0x00\n        /* \"#utility.yul\":42165:42174   */\n      dup4\n        /* \"#utility.yul\":42161:42178   */\n      add\n        /* \"#utility.yul\":42152:42158   */\n      dup5\n        /* \"#utility.yul\":42108:42179   */\n      tag_484\n      jump\t// in\n    tag_932:\n        /* \"#utility.yul\":41964:42186   */\n      swap3\n      swap2\n      pop\n      pop\n      jump\t// out\n        /* \"#utility.yul\":42192:42358   */\n    tag_562:\n        /* \"#utility.yul\":42332:42350   */\n      0x5061757361626c653a2070617573656400000000000000000000000000000000\n        /* \"#utility.yul\":42328:42329   */\n      0x00\n        /* \"#utility.yul\":42320:42326   */\n      dup3\n        /* \"#utility.yul\":42316:42330   */\n      add\n        /* \"#utility.yul\":42309:42351   */\n      mstore\n        /* \"#utility.yul\":42192:42358   */\n      pop\n      jump\t// out\n        /* \"#utility.yul\":42364:42730   */\n    tag_563:\n        /* \"#utility.yul\":42506:42509   */\n      0x00\n        /* \"#utility.yul\":42527:42594   */\n      tag_935\n        /* \"#utility.yul\":42591:42593   */\n      0x10\n        /* \"#utility.yul\":42586:42589   */\n      dup4\n        /* \"#utility.yul\":42527:42594   */\n      tag_474\n      jump\t// in\n    tag_935:\n        /* \"#utility.yul\":42520:42594   */\n      swap2\n      pop\n        /* \"#utility.yul\":42603:42696   */\n      tag_936\n        /* \"#utility.yul\":42692:42695   */\n      dup3\n        /* \"#utility.yul\":42603:42696   */\n      tag_562\n      jump\t// in\n    tag_936:\n        /* \"#utility.yul\":42721:42723   */\n      0x20\n        /* \"#utility.yul\":42716:42719   */\n      dup3\n        /* \"#utility.yul\":42712:42724   */\n      add\n        /* \"#utility.yul\":42705:42724   */\n      swap1\n      pop\n        /* \"#utility.yul\":42364:42730   */\n      swap2\n      swap1\n      pop\n      jump\t// out\n        /* \"#utility.yul\":42736:43155   */\n    tag_421:\n        /* \"#utility.yul\":42902:42906   */\n      0x00\n        /* \"#utility.yul\":42940:42942   */\n      0x20\n        /* \"#utility.yul\":42929:42938   */\n      dup3\n        /* \"#utility.yul\":42925:42943   */\n      add\n        /* \"#utility.yul\":42917:42943   */\n      swap1\n      pop\n        /* \"#utility.yul\":42989:42998   */\n      dup2\n        /* \"#utility.yul\":42983:42987   */\n      dup2\n        /* \"#utility.yul\":42979:42999   */\n      sub\n        /* \"#utility.yul\":42975:42976   */\n      0x00\n        /* \"#utility.yul\":42964:42973   */\n      dup4\n        /* \"#utility.yul\":42960:42977   */\n      add\n        /* \"#utility.yul\":42953:43000   */\n      mstore\n        /* \"#utility.yul\":43017:43148   */\n      tag_938\n        /* \"#utility.yul\":43143:43147   */\n      dup2\n        /* \"#utility.yul\":43017:43148   */\n      tag_563\n      jump\t// in\n    tag_938:\n        /* \"#utility.yul\":43009:43148   */\n      swap1\n      pop\n        /* \"#utility.yul\":42736:43155   */\n      swap2\n      swap1\n      pop\n      jump\t// out\n        /* \"#utility.yul\":43161:43341   */\n    tag_428:\n        /* \"#utility.yul\":43209:43286   */\n      0x4e487b7100000000000000000000000000000000000000000000000000000000\n        /* \"#utility.yul\":43206:43207   */\n      0x00\n        /* \"#utility.yul\":43199:43287   */\n      mstore\n        /* \"#utility.yul\":43306:43310   */\n      0x32\n        /* \"#utility.yul\":43303:43304   */\n      0x04\n        /* \"#utility.yul\":43296:43311   */\n      mstore\n        /* \"#utility.yul\":43330:43334   */\n      0x24\n        /* \"#utility.yul\":43327:43328   */\n      0x00\n        /* \"#utility.yul\":43320:43335   */\n      revert\n        /* \"#utility.yul\":43347:43541   */\n    tag_432:\n        /* \"#utility.yul\":43387:43391   */\n      0x00\n        /* \"#utility.yul\":43407:43427   */\n      tag_941\n        /* \"#utility.yul\":43425:43426   */\n      dup3\n        /* \"#utility.yul\":43407:43427   */\n      tag_469\n      jump\t// in\n    tag_941:\n        /* \"#utility.yul\":43402:43427   */\n      swap2\n      pop\n        /* \"#utility.yul\":43441:43461   */\n      tag_942\n        /* \"#utility.yul\":43459:43460   */\n      dup4\n        /* \"#utility.yul\":43441:43461   */\n      tag_469\n      jump\t// in\n    tag_942:\n        /* \"#utility.yul\":43436:43461   */\n      swap3\n      pop\n        /* \"#utility.yul\":43485:43486   */\n      dup3\n        /* \"#utility.yul\":43482:43483   */\n      dup3\n        /* \"#utility.yul\":43478:43487   */\n      sub\n        /* \"#utility.yul\":43470:43487   */\n      swap1\n      pop\n        /* \"#utility.yul\":43509:43510   */\n      dup2\n        /* \"#utility.yul\":43503:43507   */\n      dup2\n        /* \"#utility.yul\":43500:43511   */\n      gt\n        /* \"#utility.yul\":43497:43534   */\n      iszero\n      tag_943\n      jumpi\n        /* \"#utility.yul\":43514:43532   */\n      tag_944\n      tag_531\n      jump\t// in\n    tag_944:\n        /* \"#utility.yul\":43497:43534   */\n    tag_943:\n        /* \"#utility.yul\":43347:43541   */\n      swap3\n      swap2\n      pop\n      pop\n      jump\t// out\n        /* \"#utility.yul\":43547:43727   */\n    tag_441:\n        /* \"#utility.yul\":43595:43672   */\n      0x4e487b7100000000000000000000000000000000000000000000000000000000\n        /* \"#utility.yul\":43592:43593   */\n      0x00\n        /* \"#utility.yul\":43585:43673   */\n      mstore\n        /* \"#utility.yul\":43692:43696   */\n      0x31\n        /* \"#utility.yul\":43689:43690   */\n      0x04\n        /* \"#utility.yul\":43682:43697   */\n      mstore\n        /* \"#utility.yul\":43716:43720   */\n      0x24\n        /* \"#utility.yul\":43713:43714   */\n      0x00\n        /* \"#utility.yul\":43706:43721   */\n      revert\n        /* \"#utility.yul\":43733:43966   */\n    tag_444:\n        /* \"#utility.yul\":43772:43775   */\n      0x00\n        /* \"#utility.yul\":43795:43819   */\n      tag_947\n        /* \"#utility.yul\":43813:43818   */\n      dup3\n        /* \"#utility.yul\":43795:43819   */\n      tag_469\n      jump\t// in\n    tag_947:\n        /* \"#utility.yul\":43786:43819   */\n      swap2\n      pop\n        /* \"#utility.yul\":43841:43907   */\n      0xffffffffffffffffffffffffffffffffffffffffffffffffffffffffffffffff\n        /* \"#utility.yul\":43834:43839   */\n      dup3\n        /* \"#utility.yul\":43831:43908   */\n      sub\n        /* \"#utility.yul\":43828:43931   */\n      tag_948\n      jumpi\n        /* \"#utility.yul\":43911:43929   */\n      tag_949\n      tag_531\n      jump\t// in\n    tag_949:\n        /* \"#utility.yul\":43828:43931   */\n    tag_948:\n        /* \"#utility.yul\":43958:43959   */\n      0x01\n        /* \"#utility.yul\":43951:43956   */\n      dup3\n        /* \"#utility.yul\":43947:43960   */\n      add\n        /* \"#utility.yul\":43940:43960   */\n      swap1\n      pop\n        /* \"#utility.yul\":43733:43966   */\n      swap2\n      swap1\n      pop\n      jump\t// out\n        /* \"#utility.yul\":43972:44142   */\n    tag_564:\n        /* \"#utility.yul\":44112:44134   */\n      0x5061757361626c653a206e6f7420706175736564000000000000000000000000\n        /* \"#utility.yul\":44108:44109   */\n      0x00\n        /* \"#utility.yul\":44100:44106   */\n      dup3\n        /* \"#utility.yul\":44096:44110   */\n      add\n        /* \"#utility.yul\":44089:44135   */\n      mstore\n        /* \"#utility.yul\":43972:44142   */\n      pop\n      jump\t// out\n        /* \"#utility.yul\":44148:44514   */\n    tag_565:\n        /* \"#utility.yul\":44290:44293   */\n      0x00\n        /* \"#utility.yul\":44311:44378   */\n      tag_952\n        /* \"#utility.yul\":44375:44377   */\n      0x14\n        /* \"#utility.yul\":44370:44373   */\n      dup4\n        /* \"#utility.yul\":44311:44378   */\n      tag_474\n      jump\t// in\n    tag_952:\n        /* \"#utility.yul\":44304:44378   */\n      swap2\n      pop\n        /* \"#utility.yul\":44387:44480   */\n      tag_953\n        /* \"#utility.yul\":44476:44479   */\n      dup3\n        /* \"#utility.yul\":44387:44480   */\n      tag_564\n      jump\t// in\n    tag_953:\n        /* \"#utility.yul\":44505:44507   */\n      0x20\n        /* \"#utility.yul\":44500:44503   */\n      dup3\n        /* \"#utility.yul\":44496:44508   */\n      add\n        /* \"#utility.yul\":44489:44508   */\n      swap1\n      pop\n        /* \"#utility.yul\":44148:44514   */\n      swap2\n      swap1\n      pop\n      jump\t// out\n        /* \"#utility.yul\":44520:44939   */\n    tag_456:\n        /* \"#utility.yul\":44686:44690   */\n      0x00\n        /* \"#utility.yul\":44724:44726   */\n      0x20\n        /* \"#utility.yul\":44713:44722   */\n      dup3\n        /* \"#utility.yul\":44709:44727   */\n      add\n        /* \"#utility.yul\":44701:44727   */\n      swap1\n      pop\n        /* \"#utility.yul\":44773:44782   */\n      dup2\n        /* \"#utility.yul\":44767:44771   */\n      dup2\n        /* \"#utility.yul\":44763:44783   */\n      sub\n        /* \"#utility.yul\":44759:44760   */\n      0x00\n        /* \"#utility.yul\":44748:44757   */\n      dup4\n        /* \"#utility.yul\":44744:44761   */\n      add\n        /* \"#utility.yul\":44737:44784   */\n      mstore\n        /* \"#utility.yul\":44801:44932   */\n      tag_955\n        /* \"#utility.yul\":44927:44931   */\n      dup2\n        /* \"#utility.yul\":44801:44932   */\n      tag_565\n      jump\t// in\n    tag_955:\n        /* \"#utility.yul\":44793:44932   */\n      swap1\n      pop\n        /* \"#utility.yul\":44520:44939   */\n      swap2\n      swap1\n      pop\n      jump\t// out\n\n    auxdata: 0xa2646970667358221220035582410cc9b0e0a6cf6f8b5043596223bd4d8f1fcb16213d724fc38cea87a364736f6c63430008140033\n}\n",
				"bytecode": {
					"linkReferences": {},
					"object": "608060405234801562000010575f80fd5b5060405162004b7c38038062004b7c833981810160405281019062000036919062000224565b5f805f6101000a81548160ff0219169083151502179055505f73ffffffffffffffffffffffffffffffffffffffff168273ffffffffffffffffffffffffffffffffffffffff1603620000bf576040517f08c379a0000000000000000000000000000000000000000000000000000000008152600401620000b690620002c7565b60405180910390fd5b5f73ffffffffffffffffffffffffffffffffffffffff168173ffffffffffffffffffffffffffffffffffffffff160362000130576040517f08c379a0000000000000000000000000000000000000000000000000000000008152600401620001279062000335565b60405180910390fd5b815f60016101000a81548173ffffffffffffffffffffffffffffffffffffffff021916908373ffffffffffffffffffffffffffffffffffffffff1602179055508060015f6101000a81548173ffffffffffffffffffffffffffffffffffffffff021916908373ffffffffffffffffffffffffffffffffffffffff1602179055505f600381905550505062000355565b5f80fd5b5f73ffffffffffffffffffffffffffffffffffffffff82169050919050565b5f620001ee82620001c3565b9050919050565b6200020081620001e2565b81146200020b575f80fd5b50565b5f815190506200021e81620001f5565b92915050565b5f80604083850312156200023d576200023c620001bf565b5b5f6200024c858286016200020e565b92505060206200025f858286016200020e565b9150509250929050565b5f82825260208201905092915050565b7f496e76616c696420526f6c654d616e61676572206164647265737300000000005f82015250565b5f620002af601b8362000269565b9150620002bc8262000279565b602082019050919050565b5f6020820190508181035f830152620002e081620002a1565b9050919050565b7f496e76616c69642057616c6c20636f6e747261637420616464726573730000005f82015250565b5f6200031d601d8362000269565b91506200032a82620002e7565b602082019050919050565b5f6020820190508181035f8301526200034e816200030f565b9050919050565b61481980620003635f395ff3fe608060405234801561000f575f80fd5b5060043610610129575f3560e01c80639eb99f55116100ab578063d328ec701161006f578063d328ec7014610311578063e3fbf3141461032d578063eaf4cc751461035d578063f0c87bc714610393578063f685d28f146103af57610129565b80639eb99f551461025b578063aad53a841461028b578063ab44ac83146102a9578063c705bc18146102c5578063cc88600b146102f557610129565b80633f4ba83a116100f25780633f4ba83a146101f1578063489b920f146101fb5780635c975abb14610217578063641a9350146102355780638456cb591461025157610129565b8062435da51461012d57806301640ca41461014b57806314d39bad146101835780631f7418971461019f578063300d20a1146101bd575b5f80fd5b6101356103cb565b6040516101429190613332565b60405180910390f35b61016560048036038101906101609190613386565b6103f0565b60405161017a9998979695949392919061354b565b60405180910390f35b61019d60048036038101906101989190613386565b6106ae565b005b6101a761089a565b6040516101b491906135eb565b60405180910390f35b6101d760048036038101906101d29190613604565b6108a0565b6040516101e8959493929190613642565b60405180910390f35b6101f9610915565b005b61021560048036038101906102109190613604565b610a86565b005b61021f610c0e565b60405161022c9190613693565b60405180910390f35b61024f600480360381019061024a9190613604565b610c22565b005b610259610f35565b005b61027560048036038101906102709190613604565b6110a6565b60405161028291906135eb565b60405180910390f35b6102936110d1565b6040516102a091906136cc565b60405180910390f35b6102c360048036038101906102be9190613604565b6110f6565b005b6102df60048036038101906102da9190613386565b6115d6565b6040516102ec919061379c565b60405180910390f35b61030f600480360381019061030a9190613386565b61169d565b005b61032b600480360381019061032691906137de565b6118d8565b005b61034760048036038101906103429190613386565b611e18565b604051610354919061397a565b60405180910390f35b61037760048036038101906103729190613386565b6121a1565b60405161038a979695949392919061399a565b60405180910390f35b6103ad60048036038101906103a89190613386565b612460565b005b6103c960048036038101906103c49190613604565b612c0e565b005b5f60019054906101000a900473ffffffffffffffffffffffffffffffffffffffff1681565b6004602052805f5260405f205f91509050805f01549080600101805461041590613a49565b80601f016020809104026020016040519081016040528092919081815260200182805461044190613a49565b801561048c5780601f106104635761010080835404028352916020019161048c565b820191905f5260205f20905b81548152906001019060200180831161046f57829003601f168201915b5050505050908060020180546104a190613a49565b80601f01602080910402602001604051908101604052809291908181526020018280546104cd90613a49565b80156105185780601f106104ef57610100808354040283529160200191610518565b820191905f5260205f20905b8154815290600101906020018083116104fb57829003601f168201915b505050505090806003016040518060800160405290815f8201805461053c90613a49565b80601f016020809104026020016040519081016040528092919081815260200182805461056890613a49565b80156105b35780601f1061058a576101008083540402835291602001916105b3565b820191905f5260205f20905b81548152906001019060200180831161059657829003601f168201915b505050505081526020016001820180546105cc90613a49565b80601f01602080910402602001604051908101604052809291908181526020018280546105f890613a49565b80156106435780601f1061061a57610100808354040283529160200191610643565b820191905f5260205f20905b81548152906001019060200180831161062657829003601f168201915b505050505081526020016002820154815260200160038201548152505090806007015f9054906101000a900473ffffffffffffffffffffffffffffffffffffffff1690806008015490806009015f9054906101000a900460ff169080600a01549080600b0154905089565b5f60019054906101000a900473ffffffffffffffffffffffffffffffffffffffff1673ffffffffffffffffffffffffffffffffffffffff166391d148545f60019054906101000a900473ffffffffffffffffffffffffffffffffffffffff1673ffffffffffffffffffffffffffffffffffffffff166375b238fc6040518163ffffffff1660e01b8152600401602060405180830381865afa158015610755573d5f803e3d5ffd5b505050506040513d601f19601f820116820180604052508101906107799190613aac565b336040518363ffffffff1660e01b8152600401610797929190613ae6565b602060405180830381865afa1580156107b2573d5f803e3d5ffd5b505050506040513d601f19601f820116820180604052508101906107d69190613b37565b610815576040517f08c379a000000000000000000000000000000000000000000000000000000000815260040161080c90613bac565b60405180910390fd5b6064811115610859576040517f08c379a000000000000000000000000000000000000000000000000000000000815260040161085090613c14565b60405180910390fd5b806003819055507f939be2c65dbf8fd3fa426b40f964a7038810059517125d552f6f45b487713d828160405161088f91906135eb565b60405180910390a150565b60035481565b6006602052815f5260405f20602052805f5260405f205f9150915050805f015490806001015f9054906101000a900473ffffffffffffffffffffffffffffffffffffffff1690806002015490806003015f9054906101000a900460ff16908060030160019054906101000a900460ff16905085565b5f60019054906101000a900473ffffffffffffffffffffffffffffffffffffffff1673ffffffffffffffffffffffffffffffffffffffff166391d148545f60019054906101000a900473ffffffffffffffffffffffffffffffffffffffff1673ffffffffffffffffffffffffffffffffffffffff166375b238fc6040518163ffffffff1660e01b8152600401602060405180830381865afa1580156109bc573d5f803e3d5ffd5b505050506040513d601f19601f820116820180604052508101906109e09190613aac565b336040518363ffffffff1660e01b81526004016109fe929190613ae6565b602060405180830381865afa158015610a19573d5f803e3d5ffd5b505050506040513d601f19601f82011682018060405250810190610a3d9190613b37565b610a7c576040517f08c379a0000000000000000000000000000000000000000000000000000000008152600401610a7390613bac565b60405180910390fd5b610a84612fe2565b565b813373ffffffffffffffffffffffffffffffffffffffff1660045f8381526020019081526020015f206007015f9054906101000a900473ffffffffffffffffffffffffffffffffffffffff1673ffffffffffffffffffffffffffffffffffffffff1614610b28576040517f08c379a0000000000000000000000000000000000000000000000000000000008152600401610b1f90613c7c565b60405180910390fd5b610b30613042565b5f60065f8581526020019081526020015f205f8481526020019081526020015f209050806003015f9054906101000a900460ff16610ba3576040517f08c379a0000000000000000000000000000000000000000000000000000000008152600401610b9a90613ce4565b60405180910390fd5b5f816003015f6101000a81548160ff0219169083151502179055505f8160030160016101000a81548160ff02191690831515021790555082847f409e24d1de9b35460a711a3d1a6690caca8a22c4c49d543d5f5507c76da71f6560405160405180910390a350505050565b5f805f9054906101000a900460ff16905090565b5f60019054906101000a900473ffffffffffffffffffffffffffffffffffffffff1673ffffffffffffffffffffffffffffffffffffffff166391d148545f60019054906101000a900473ffffffffffffffffffffffffffffffffffffffff1673ffffffffffffffffffffffffffffffffffffffff166375b238fc6040518163ffffffff1660e01b8152600401602060405180830381865afa158015610cc9573d5f803e3d5ffd5b505050506040513d601f19601f82011682018060405250810190610ced9190613aac565b336040518363ffffffff1660e01b8152600401610d0b929190613ae6565b602060405180830381865afa158015610d26573d5f803e3d5ffd5b505050506040513d601f19601f82011682018060405250810190610d4a9190613b37565b610d89576040517f08c379a0000000000000000000000000000000000000000000000000000000008152600401610d8090613bac565b60405180910390fd5b610d91613042565b60045f8381526020019081526020015f206009015f9054906101000a900460ff16610df1576040517f08c379a0000000000000000000000000000000000000000000000000000000008152600401610de890613d4c565b60405180910390fd5b610dfb828261308c565b60015f9054906101000a900473ffffffffffffffffffffffffffffffffffffffff1673ffffffffffffffffffffffffffffffffffffffff1663ce290e1d825f806040518463ffffffff1660e01b8152600401610e5993929190613da3565b5f604051808303815f87803b158015610e70575f80fd5b505af1158015610e82573d5f803e3d5ffd5b5050505060065f8381526020019081526020015f205f8281526020019081526020015f205f8082015f9055600182015f6101000a81549073ffffffffffffffffffffffffffffffffffffffff0219169055600282015f9055600382015f6101000a81549060ff02191690556003820160016101000a81549060ff0219169055505080827f9c2a665641680d8945c31c04e9280e79cdc8fb9da62e272d871d116bb7ae894d60405160405180910390a35050565b5f60019054906101000a900473ffffffffffffffffffffffffffffffffffffffff1673ffffffffffffffffffffffffffffffffffffffff166391d148545f60019054906101000a900473ffffffffffffffffffffffffffffffffffffffff1673ffffffffffffffffffffffffffffffffffffffff166375b238fc6040518163ffffffff1660e01b8152600401602060405180830381865afa158015610fdc573d5f803e3d5ffd5b505050506040513d601f19601f820116820180604052508101906110009190613aac565b336040518363ffffffff1660e01b815260040161101e929190613ae6565b602060405180830381865afa158015611039573d5f803e3d5ffd5b505050506040513d601f19601f8201168201806040525081019061105d9190613b37565b61109c576040517f08c379a000000000000000000000000000000000000000000000000000000000815260040161109390613bac565b60405180910390fd5b6110a461315d565b565b6007602052815f5260405f2081815481106110bf575f80fd5b905f5260205f20015f91509150505481565b60015f9054906101000a900473ffffffffffffffffffffffffffffffffffffffff1681565b6110fe613042565b5f60019054906101000a900473ffffffffffffffffffffffffffffffffffffffff1673ffffffffffffffffffffffffffffffffffffffff166391d148545f60019054906101000a900473ffffffffffffffffffffffffffffffffffffffff1673ffffffffffffffffffffffffffffffffffffffff166398e4abb56040518163ffffffff1660e01b8152600401602060405180830381865afa1580156111a5573d5f803e3d5ffd5b505050506040513d601f19601f820116820180604052508101906111c99190613aac565b336040518363ffffffff1660e01b81526004016111e7929190613ae6565b602060405180830381865afa158015611202573d5f803e3d5ffd5b505050506040513d601f19601f820116820180604052508101906112269190613b37565b611265576040517f08c379a000000000000000000000000000000000000000000000000000000000815260040161125c90613e22565b60405180910390fd5b60045f8381526020019081526020015f206009015f9054906101000a900460ff166112c5576040517f08c379a00000000000000000000000000000000000000000000000000000000081526004016112bc90613d4c565b60405180910390fd5b5f805f60015f9054906101000a900473ffffffffffffffffffffffffffffffffffffffff1673ffffffffffffffffffffffffffffffffffffffff1663ff91e489856040518263ffffffff1660e01b815260040161132291906135eb565b60c060405180830381865afa15801561133d573d5f803e3d5ffd5b505050506040513d601f19601f820116820180604052508101906113619190613e7e565b5094509450509350503373ffffffffffffffffffffffffffffffffffffffff168373ffffffffffffffffffffffffffffffffffffffff16146113d8576040517f08c379a00000000000000000000000000000000000000000000000000000000081526004016113cf90613f51565b60405180910390fd5b8015611419576040517f08c379a000000000000000000000000000000000000000000000000000000000815260040161141090613fb9565b60405180910390fd5b5f60035460045f8881526020019081526020015f20600801548461143d9190614004565b6114479190614004565b9050606481111561148d576040517f08c379a000000000000000000000000000000000000000000000000000000000815260040161148490614081565b60405180910390fd5b6040518060a001604052808681526020013373ffffffffffffffffffffffffffffffffffffffff1681526020018481526020016001151581526020015f151581525060065f8881526020019081526020015f205f8781526020019081526020015f205f820151815f01556020820151816001015f6101000a81548173ffffffffffffffffffffffffffffffffffffffff021916908373ffffffffffffffffffffffffffffffffffffffff160217905550604082015181600201556060820151816003015f6101000a81548160ff02191690831515021790555060808201518160030160016101000a81548160ff0219169083151502179055509050503373ffffffffffffffffffffffffffffffffffffffff1685877f83fd119663c1d37d19f3fd2cfdd3b77cf9a048037dc45cec86d017fa4ed6fba860405160405180910390a4505050505050565b606060045f8381526020019081526020015f206009015f9054906101000a900460ff16611638576040517f08c379a000000000000000000000000000000000000000000000000000000000815260040161162f90613d4c565b60405180910390fd5b60075f8381526020019081526020015f2080548060200260200160405190810160405280929190818152602001828054801561169157602002820191905f5260205f20905b81548152602001906001019080831161167d575b50505050509050919050565b5f60019054906101000a900473ffffffffffffffffffffffffffffffffffffffff1673ffffffffffffffffffffffffffffffffffffffff166391d148545f60019054906101000a900473ffffffffffffffffffffffffffffffffffffffff1673ffffffffffffffffffffffffffffffffffffffff166375b238fc6040518163ffffffff1660e01b8152600401602060405180830381865afa158015611744573d5f803e3d5ffd5b505050506040513d601f19601f820116820180604052508101906117689190613aac565b336040518363ffffffff1660e01b8152600401611786929190613ae6565b602060405180830381865afa1580156117a1573d5f803e3d5ffd5b505050506040513d601f19601f820116820180604052508101906117c59190613b37565b611804576040517f08c379a00000000000000000000000000000000000000000000000000000000081526004016117fb90613bac565b60405180910390fd5b61180c613042565b5f60055f8381526020019081526020015f209050806008015f9054906101000a900460ff16611870576040517f08c379a000000000000000000000000000000000000000000000000000000000815260040161186790613ce4565b60405180910390fd5b5f816008015f6101000a81548160ff0219169083151502179055505f8160080160016101000a81548160ff021916908315150217905550817f02066478e278f4d976df7f644bad66cbe88ce3249c27a53c746fc078510100c360405160405180910390a25050565b6118e0613042565b5f60019054906101000a900473ffffffffffffffffffffffffffffffffffffffff1673ffffffffffffffffffffffffffffffffffffffff166391d148545f60019054906101000a900473ffffffffffffffffffffffffffffffffffffffff1673ffffffffffffffffffffffffffffffffffffffff166378988ebd6040518163ffffffff1660e01b8152600401602060405180830381865afa158015611987573d5f803e3d5ffd5b505050506040513d601f19601f820116820180604052508101906119ab9190613aac565b336040518363ffffffff1660e01b81526004016119c9929190613ae6565b602060405180830381865afa1580156119e4573d5f803e3d5ffd5b505050506040513d601f19601f82011682018060405250810190611a089190613b37565b611a47576040517f08c379a0000000000000000000000000000000000000000000000000000000008152600401611a3e906140e9565b60405180910390fd5b5f81805f0190611a579190614113565b905011611a99576040517f08c379a0000000000000000000000000000000000000000000000000000000008152600401611a90906141bf565b60405180910390fd5b60328160c001351115611ae1576040517f08c379a0000000000000000000000000000000000000000000000000000000008152600401611ad890614227565b60405180910390fd5b5f611aec60026131be565b9050611af860026131ca565b5f6040518060800160405280848060400190611b149190614113565b8080601f0160208091040260200160405190810160405280939291908181526020018383808284375f81840152601f19601f820116905080830192505050505050508152602001848060600190611b6b9190614113565b8080601f0160208091040260200160405190810160405280939291908181526020018383808284375f81840152601f19601f820116905080830192505050505050508152602001846080013581526020018460a0013581525090506040518060e001604052803373ffffffffffffffffffffffffffffffffffffffff16815260200184805f0190611bfc9190614113565b8080601f0160208091040260200160405190810160405280939291908181526020018383808284375f81840152601f19601f820116905080830192505050505050508152602001848060200190611c539190614113565b8080601f0160208091040260200160405190810160405280939291908181526020018383808284375f81840152601f19601f8201169050808301925050505050505081526020018281526020018460c0013581526020016001151581526020015f151581525060055f8481526020019081526020015f205f820151815f015f6101000a81548173ffffffffffffffffffffffffffffffffffffffff021916908373ffffffffffffffffffffffffffffffffffffffff1602179055506020820151816001019081611d239190614406565b506040820151816002019081611d399190614406565b506060820151816003015f820151815f019081611d569190614406565b506020820151816001019081611d6c9190614406565b50604082015181600201556060820151816003015550506080820151816007015560a0820151816008015f6101000a81548160ff02191690831515021790555060c08201518160080160016101000a81548160ff0219169083151502179055509050503373ffffffffffffffffffffffffffffffffffffffff16827f64c62480238fcbb55f3f9db41207d81adb09b6a08336161aa728e4d6d398fee860405160405180910390a3505050565b611e2061322e565b60045f8381526020019081526020015f206009015f9054906101000a900460ff16611e80576040517f08c379a0000000000000000000000000000000000000000000000000000000008152600401611e7790613d4c565b60405180910390fd5b60045f8381526020019081526020015f20604051806101200160405290815f8201548152602001600182018054611eb690613a49565b80601f0160208091040260200160405190810160405280929190818152602001828054611ee290613a49565b8015611f2d5780601f10611f0457610100808354040283529160200191611f2d565b820191905f5260205f20905b815481529060010190602001808311611f1057829003601f168201915b50505050508152602001600282018054611f4690613a49565b80601f0160208091040260200160405190810160405280929190818152602001828054611f7290613a49565b8015611fbd5780601f10611f9457610100808354040283529160200191611fbd565b820191905f5260205f20905b815481529060010190602001808311611fa057829003601f168201915b50505050508152602001600382016040518060800160405290815f82018054611fe590613a49565b80601f016020809104026020016040519081016040528092919081815260200182805461201190613a49565b801561205c5780601f106120335761010080835404028352916020019161205c565b820191905f5260205f20905b81548152906001019060200180831161203f57829003601f168201915b5050505050815260200160018201805461207590613a49565b80601f01602080910402602001604051908101604052809291908181526020018280546120a190613a49565b80156120ec5780601f106120c3576101008083540402835291602001916120ec565b820191905f5260205f20905b8154815290600101906020018083116120cf57829003601f168201915b50505050508152602001600282015481526020016003820154815250508152602001600782015f9054906101000a900473ffffffffffffffffffffffffffffffffffffffff1673ffffffffffffffffffffffffffffffffffffffff1673ffffffffffffffffffffffffffffffffffffffff16815260200160088201548152602001600982015f9054906101000a900460ff16151515158152602001600a8201548152602001600b820154815250509050919050565b6005602052805f5260405f205f91509050805f015f9054906101000a900473ffffffffffffffffffffffffffffffffffffffff16908060010180546121e590613a49565b80601f016020809104026020016040519081016040528092919081815260200182805461221190613a49565b801561225c5780601f106122335761010080835404028352916020019161225c565b820191905f5260205f20905b81548152906001019060200180831161223f57829003601f168201915b50505050509080600201805461227190613a49565b80601f016020809104026020016040519081016040528092919081815260200182805461229d90613a49565b80156122e85780601f106122bf576101008083540402835291602001916122e8565b820191905f5260205f20905b8154815290600101906020018083116122cb57829003601f168201915b505050505090806003016040518060800160405290815f8201805461230c90613a49565b80601f016020809104026020016040519081016040528092919081815260200182805461233890613a49565b80156123835780601f1061235a57610100808354040283529160200191612383565b820191905f5260205f20905b81548152906001019060200180831161236657829003601f168201915b5050505050815260200160018201805461239c90613a49565b80601f01602080910402602001604051908101604052809291908181526020018280546123c890613a49565b80156124135780601f106123ea57610100808354040283529160200191612413565b820191905f5260205f20905b8154815290600101906020018083116123f657829003601f168201915b505050505081526020016002820154815260200160038201548152505090806007015490806008015f9054906101000a900460ff16908060080160019054906101000a900460ff16905087565b5f60019054906101000a900473ffffffffffffffffffffffffffffffffffffffff1673ffffffffffffffffffffffffffffffffffffffff166391d148545f60019054906101000a900473ffffffffffffffffffffffffffffffffffffffff1673ffffffffffffffffffffffffffffffffffffffff166375b238fc6040518163ffffffff1660e01b8152600401602060405180830381865afa158015612507573d5f803e3d5ffd5b505050506040513d601f19601f8201168201806040525081019061252b9190613aac565b336040518363ffffffff1660e01b8152600401612549929190613ae6565b602060405180830381865afa158015612564573d5f803e3d5ffd5b505050506040513d601f19601f820116820180604052508101906125889190613b37565b6125c7576040517f08c379a00000000000000000000000000000000000000000000000000000000081526004016125be90613bac565b60405180910390fd5b6125cf613042565b5f60055f8381526020019081526020015f209050806008015f9054906101000a900460ff16612633576040517f08c379a000000000000000000000000000000000000000000000000000000000815260040161262a90613ce4565b60405180910390fd5b5f60019054906101000a900473ffffffffffffffffffffffffffffffffffffffff1673ffffffffffffffffffffffffffffffffffffffff166391d148545f60019054906101000a900473ffffffffffffffffffffffffffffffffffffffff1673ffffffffffffffffffffffffffffffffffffffff166378988ebd6040518163ffffffff1660e01b8152600401602060405180830381865afa1580156126da573d5f803e3d5ffd5b505050506040513d601f19601f820116820180604052508101906126fe9190613aac565b835f015f9054906101000a900473ffffffffffffffffffffffffffffffffffffffff166040518363ffffffff1660e01b815260040161273e929190613ae6565b602060405180830381865afa158015612759573d5f803e3d5ffd5b505050506040513d601f19601f8201168201806040525081019061277d9190613b37565b6127bc576040517f08c379a00000000000000000000000000000000000000000000000000000000081526004016127b390614545565b60405180910390fd5b5f816008015f6101000a81548160ff02191690831515021790555060018160080160016101000a81548160ff02191690831515021790555060405180610120016040528083815260200182600101805461281590613a49565b80601f016020809104026020016040519081016040528092919081815260200182805461284190613a49565b801561288c5780601f106128635761010080835404028352916020019161288c565b820191905f5260205f20905b81548152906001019060200180831161286f57829003601f168201915b505050505081526020018260020180546128a590613a49565b80601f01602080910402602001604051908101604052809291908181526020018280546128d190613a49565b801561291c5780601f106128f35761010080835404028352916020019161291c565b820191905f5260205f20905b8154815290600101906020018083116128ff57829003601f168201915b50505050508152602001826003016040518060800160405290815f8201805461294490613a49565b80601f016020809104026020016040519081016040528092919081815260200182805461297090613a49565b80156129bb5780601f10612992576101008083540402835291602001916129bb565b820191905f5260205f20905b81548152906001019060200180831161299e57829003601f168201915b505050505081526020016001820180546129d490613a49565b80601f0160208091040260200160405190810160405280929190818152602001828054612a0090613a49565b8015612a4b5780601f10612a2257610100808354040283529160200191612a4b565b820191905f5260205f20905b815481529060010190602001808311612a2e57829003601f168201915b50505050508152602001600282015481526020016003820154815250508152602001825f015f9054906101000a900473ffffffffffffffffffffffffffffffffffffffff1673ffffffffffffffffffffffffffffffffffffffff168152602001826007015481526020016001151581526020014281526020014281525060045f8481526020019081526020015f205f820151815f01556020820151816001019081612af69190614406565b506040820151816002019081612b0c9190614406565b506060820151816003015f820151815f019081612b299190614406565b506020820151816001019081612b3f9190614406565b50604082015181600201556060820151816003015550506080820151816007015f6101000a81548173ffffffffffffffffffffffffffffffffffffffff021916908373ffffffffffffffffffffffffffffffffffffffff16021790555060a0820151816008015560c0820151816009015f6101000a81548160ff02191690831515021790555060e082015181600a015561010082015181600b0155905050817f8bf0b9f064110e184ac3a17211475b991009bba03afd86413f3114d9058b670a60405160405180910390a25050565b813373ffffffffffffffffffffffffffffffffffffffff1660045f8381526020019081526020015f206007015f9054906101000a900473ffffffffffffffffffffffffffffffffffffffff1673ffffffffffffffffffffffffffffffffffffffff1614612cb0576040517f08c379a0000000000000000000000000000000000000000000000000000000008152600401612ca790613c7c565b60405180910390fd5b612cb8613042565b5f60065f8581526020019081526020015f205f8481526020019081526020015f209050806003015f9054906101000a900460ff16612d2b576040517f08c379a0000000000000000000000000000000000000000000000000000000008152600401612d2290613ce4565b60405180910390fd5b5f60019054906101000a900473ffffffffffffffffffffffffffffffffffffffff1673ffffffffffffffffffffffffffffffffffffffff166391d148545f60019054906101000a900473ffffffffffffffffffffffffffffffffffffffff1673ffffffffffffffffffffffffffffffffffffffff166398e4abb56040518163ffffffff1660e01b8152600401602060405180830381865afa158015612dd2573d5f803e3d5ffd5b505050506040513d601f19601f82011682018060405250810190612df69190613aac565b836001015f9054906101000a900473ffffffffffffffffffffffffffffffffffffffff166040518363ffffffff1660e01b8152600401612e37929190613ae6565b602060405180830381865afa158015612e52573d5f803e3d5ffd5b505050506040513d601f19601f82011682018060405250810190612e769190613b37565b612eb5576040517f08c379a0000000000000000000000000000000000000000000000000000000008152600401612eac906145d3565b60405180910390fd5b5f816003015f6101000a81548160ff02191690831515021790555060018160030160016101000a81548160ff02191690831515021790555060015f9054906101000a900473ffffffffffffffffffffffffffffffffffffffff1673ffffffffffffffffffffffffffffffffffffffff1663ce290e1d848660016040518463ffffffff1660e01b8152600401612f4c939291906145f1565b5f604051808303815f87803b158015612f63575f80fd5b505af1158015612f75573d5f803e3d5ffd5b5050505060075f8581526020019081526020015f2083908060018154018082558091505060019003905f5260205f20015f909190919091505582847fdc2149b93c86806566c8fa4d25318ab9dd1b921d334a786bea5e3ca461e8e2b460405160405180910390a350505050565b612fea6131de565b5f805f6101000a81548160ff0219169083151502179055507f5db9ee0a495bf2e6ff9c91a7834c1ba4fdd244a5e8aa4e537bd38aeae4b073aa61302b613227565b6040516130389190614626565b60405180910390a1565b61304a610c0e565b1561308a576040517f08c379a000000000000000000000000000000000000000000000000000000000815260040161308190614689565b60405180910390fd5b565b5f60075f8481526020019081526020015f2090505f5b818054905081101561315757828282815481106130c2576130c16146a7565b5b905f5260205f200154036131445781600183805490506130e291906146d4565b815481106130f3576130f26146a7565b5b905f5260205f20015482828154811061310f5761310e6146a7565b5b905f5260205f2001819055508180548061312c5761312b614707565b5b600190038181905f5260205f20015f90559055613157565b808061314f90614734565b9150506130a2565b50505050565b613165613042565b60015f806101000a81548160ff0219169083151502179055507f62e78cea01bee320cd4e420270b5ea74000d11b0c9f74754ebdbfc544b05a2586131a7613227565b6040516131b49190614626565b60405180910390a1565b5f815f01549050919050565b6001815f015f828254019250508190555050565b6131e6610c0e565b613225576040517f08c379a000000000000000000000000000000000000000000000000000000000815260040161321c906147c5565b60405180910390fd5b565b5f33905090565b6040518061012001604052805f81526020016060815260200160608152602001613256613292565b81526020015f73ffffffffffffffffffffffffffffffffffffffff1681526020015f81526020015f151581526020015f81526020015f81525090565b604051806080016040528060608152602001606081526020015f81526020015f81525090565b5f73ffffffffffffffffffffffffffffffffffffffff82169050919050565b5f819050919050565b5f6132fa6132f56132f0846132b8565b6132d7565b6132b8565b9050919050565b5f61330b826132e0565b9050919050565b5f61331c82613301565b9050919050565b61332c81613312565b82525050565b5f6020820190506133455f830184613323565b92915050565b5f80fd5b5f80fd5b5f819050919050565b61336581613353565b811461336f575f80fd5b50565b5f813590506133808161335c565b92915050565b5f6020828403121561339b5761339a61334b565b5b5f6133a884828501613372565b91505092915050565b6133ba81613353565b82525050565b5f81519050919050565b5f82825260208201905092915050565b5f5b838110156133f75780820151818401526020810190506133dc565b5f8484015250505050565b5f601f19601f8301169050919050565b5f61341c826133c0565b61342681856133ca565b93506134368185602086016133da565b61343f81613402565b840191505092915050565b5f82825260208201905092915050565b5f613464826133c0565b61346e818561344a565b935061347e8185602086016133da565b61348781613402565b840191505092915050565b5f819050919050565b6134a481613492565b82525050565b5f608083015f8301518482035f8601526134c4828261345a565b915050602083015184820360208601526134de828261345a565b91505060408301516134f3604086018261349b565b506060830151613506606086018261349b565b508091505092915050565b5f61351b826132b8565b9050919050565b61352b81613511565b82525050565b5f8115159050919050565b61354581613531565b82525050565b5f6101208201905061355f5f83018c6133b1565b8181036020830152613571818b613412565b90508181036040830152613585818a613412565b9050818103606083015261359981896134aa565b90506135a86080830188613522565b6135b560a08301876133b1565b6135c260c083018661353c565b6135cf60e08301856133b1565b6135dd6101008301846133b1565b9a9950505050505050505050565b5f6020820190506135fe5f8301846133b1565b92915050565b5f806040838503121561361a5761361961334b565b5b5f61362785828601613372565b925050602061363885828601613372565b9150509250929050565b5f60a0820190506136555f8301886133b1565b6136626020830187613522565b61366f60408301866133b1565b61367c606083018561353c565b613689608083018461353c565b9695505050505050565b5f6020820190506136a65f83018461353c565b92915050565b5f6136b682613301565b9050919050565b6136c6816136ac565b82525050565b5f6020820190506136df5f8301846136bd565b92915050565b5f81519050919050565b5f82825260208201905092915050565b5f819050602082019050919050565b61371781613353565b82525050565b5f613728838361370e565b60208301905092915050565b5f602082019050919050565b5f61374a826136e5565b61375481856136ef565b935061375f836136ff565b805f5b8381101561378f578151613776888261371d565b975061378183613734565b925050600181019050613762565b5085935050505092915050565b5f6020820190508181035f8301526137b48184613740565b905092915050565b5f80fd5b5f60e082840312156137d5576137d46137bc565b5b81905092915050565b5f602082840312156137f3576137f261334b565b5b5f82013567ffffffffffffffff8111156138105761380f61334f565b5b61381c848285016137c0565b91505092915050565b5f608083015f8301518482035f86015261383f828261345a565b91505060208301518482036020860152613859828261345a565b915050604083015161386e604086018261349b565b506060830151613881606086018261349b565b508091505092915050565b61389581613511565b82525050565b6138a481613531565b82525050565b5f61012083015f8301516138c05f86018261370e565b50602083015184820360208601526138d8828261345a565b915050604083015184820360408601526138f2828261345a565b9150506060830151848203606086015261390c8282613825565b9150506080830151613921608086018261388c565b5060a083015161393460a086018261370e565b5060c083015161394760c086018261389b565b5060e083015161395a60e086018261370e565b5061010083015161396f61010086018261370e565b508091505092915050565b5f6020820190508181035f83015261399281846138aa565b905092915050565b5f60e0820190506139ad5f83018a613522565b81810360208301526139bf8189613412565b905081810360408301526139d38188613412565b905081810360608301526139e781876134aa565b90506139f660808301866133b1565b613a0360a083018561353c565b613a1060c083018461353c565b98975050505050505050565b7f4e487b71000000000000000000000000000000000000000000000000000000005f52602260045260245ffd5b5f6002820490506001821680613a6057607f821691505b602082108103613a7357613a72613a1c565b5b50919050565b5f819050919050565b613a8b81613a79565b8114613a95575f80fd5b50565b5f81519050613aa681613a82565b92915050565b5f60208284031215613ac157613ac061334b565b5b5f613ace84828501613a98565b91505092915050565b613ae081613a79565b82525050565b5f604082019050613af95f830185613ad7565b613b066020830184613522565b9392505050565b613b1681613531565b8114613b20575f80fd5b50565b5f81519050613b3181613b0d565b92915050565b5f60208284031215613b4c57613b4b61334b565b5b5f613b5984828501613b23565b91505092915050565b7f43616c6c6572206973206e6f7420616e2061646d696e000000000000000000005f82015250565b5f613b966016836133ca565b9150613ba182613b62565b602082019050919050565b5f6020820190508181035f830152613bc381613b8a565b9050919050565b7f496e76616c69642070657263656e7461676500000000000000000000000000005f82015250565b5f613bfe6012836133ca565b9150613c0982613bca565b602082019050919050565b5f6020820190508181035f830152613c2b81613bf2565b9050919050565b7f43616c6c6572206973206e6f74207468652067616c6c657279206f776e6572005f82015250565b5f613c66601f836133ca565b9150613c7182613c32565b602082019050919050565b5f6020820190508181035f830152613c9381613c5a565b9050919050565b7f52657175657374206e6f742070656e64696e67000000000000000000000000005f82015250565b5f613cce6013836133ca565b9150613cd982613c9a565b602082019050919050565b5f6020820190508181035f830152613cfb81613cc2565b9050919050565b7f47616c6c657279206e6f742061637469766500000000000000000000000000005f82015250565b5f613d366012836133ca565b9150613d4182613d02565b602082019050919050565b5f6020820190508181035f830152613d6381613d2a565b9050919050565b5f819050919050565b5f613d8d613d88613d8384613d6a565b6132d7565b613353565b9050919050565b613d9d81613d73565b82525050565b5f606082019050613db65f8301866133b1565b613dc36020830185613d94565b613dd0604083018461353c565b949350505050565b7f4d75737420686176652057414c4c5f4f574e45525f524f4c45000000000000005f82015250565b5f613e0c6019836133ca565b9150613e1782613dd8565b602082019050919050565b5f6020820190508181035f830152613e3981613e00565b9050919050565b5f81519050613e4e8161335c565b92915050565b613e5d81613511565b8114613e67575f80fd5b50565b5f81519050613e7881613e54565b92915050565b5f805f805f8060c08789031215613e9857613e9761334b565b5b5f613ea589828a01613e40565b9650506020613eb689828a01613e6a565b9550506040613ec789828a01613e40565b9450506060613ed889828a01613e40565b9350506080613ee989828a01613b23565b92505060a0613efa89828a01613e40565b9150509295509295509295565b7f4e6f742077616c6c206f776e65720000000000000000000000000000000000005f82015250565b5f613f3b600e836133ca565b9150613f4682613f07565b602082019050919050565b5f6020820190508181035f830152613f6881613f2f565b9050919050565b7f57616c6c20616c726561647920696e20612067616c6c657279000000000000005f82015250565b5f613fa36019836133ca565b9150613fae82613f6f565b602082019050919050565b5f6020820190508181035f830152613fd081613f97565b9050919050565b7f4e487b71000000000000000000000000000000000000000000000000000000005f52601160045260245ffd5b5f61400e82613353565b915061401983613353565b925082820190508082111561403157614030613fd7565b5b92915050565b7f546f74616c2070657263656e74616765206578636565647320313030250000005f82015250565b5f61406b601d836133ca565b915061407682614037565b602082019050919050565b5f6020820190508181035f8301526140988161405f565b9050919050565b7f4d75737420686176652047414c4c4552595f4f574e45525f524f4c45000000005f82015250565b5f6140d3601c836133ca565b91506140de8261409f565b602082019050919050565b5f6020820190508181035f830152614100816140c7565b9050919050565b5f80fd5b5f80fd5b5f80fd5b5f808335600160200384360303811261412f5761412e614107565b5b80840192508235915067ffffffffffffffff8211156141515761415061410b565b5b60208301925060018202360383131561416d5761416c61410f565b5b509250929050565b7f4e616d65207265717569726564000000000000000000000000000000000000005f82015250565b5f6141a9600d836133ca565b91506141b482614175565b602082019050919050565b5f6020820190508181035f8301526141d68161419d565b9050919050565b7f4d6178206f776e6572736869702070657263656e7461676520697320353025005f82015250565b5f614211601f836133ca565b915061421c826141dd565b602082019050919050565b5f6020820190508181035f83015261423e81614205565b9050919050565b7f4e487b71000000000000000000000000000000000000000000000000000000005f52604160045260245ffd5b5f819050815f5260205f209050919050565b5f6020601f8301049050919050565b5f82821b905092915050565b5f600883026142ce7fffffffffffffffffffffffffffffffffffffffffffffffffffffffffffffffff82614293565b6142d88683614293565b95508019841693508086168417925050509392505050565b5f61430a61430561430084613353565b6132d7565b613353565b9050919050565b5f819050919050565b614323836142f0565b61433761432f82614311565b84845461429f565b825550505050565b5f90565b61434b61433f565b61435681848461431a565b505050565b5b818110156143795761436e5f82614343565b60018101905061435c565b5050565b601f8211156143be5761438f81614272565b61439884614284565b810160208510156143a7578190505b6143bb6143b385614284565b83018261435b565b50505b505050565b5f82821c905092915050565b5f6143de5f19846008026143c3565b1980831691505092915050565b5f6143f683836143cf565b9150826002028217905092915050565b61440f826133c0565b67ffffffffffffffff81111561442857614427614245565b5b6144328254613a49565b61443d82828561437d565b5f60209050601f83116001811461446e575f841561445c578287015190505b61446685826143eb565b8655506144cd565b601f19841661447c86614272565b5f5b828110156144a35784890151825560018201915060208501945060208101905061447e565b868310156144c057848901516144bc601f8916826143cf565b8355505b6001600288020188555050505b505050505050565b7f526571756573746572206d757374206d61696e7461696e2047414c4c4552595f5f8201527f4f574e45525f524f4c4500000000000000000000000000000000000000000000602082015250565b5f61452f602a836133ca565b915061453a826144d5565b604082019050919050565b5f6020820190508181035f83015261455c81614523565b9050919050565b7f57616c6c206f776e6572206d757374206d61696e7461696e2057414c4c5f4f575f8201527f4e45525f524f4c45000000000000000000000000000000000000000000000000602082015250565b5f6145bd6028836133ca565b91506145c882614563565b604082019050919050565b5f6020820190508181035f8301526145ea816145b1565b9050919050565b5f6060820190506146045f8301866133b1565b61461160208301856133b1565b61461e604083018461353c565b949350505050565b5f6020820190506146395f830184613522565b92915050565b7f5061757361626c653a20706175736564000000000000000000000000000000005f82015250565b5f6146736010836133ca565b915061467e8261463f565b602082019050919050565b5f6020820190508181035f8301526146a081614667565b9050919050565b7f4e487b71000000000000000000000000000000000000000000000000000000005f52603260045260245ffd5b5f6146de82613353565b91506146e983613353565b925082820390508181111561470157614700613fd7565b5b92915050565b7f4e487b71000000000000000000000000000000000000000000000000000000005f52603160045260245ffd5b5f61473e82613353565b91507fffffffffffffffffffffffffffffffffffffffffffffffffffffffffffffffff82036147705761476f613fd7565b5b600182019050919050565b7f5061757361626c653a206e6f74207061757365640000000000000000000000005f82015250565b5f6147af6014836133ca565b91506147ba8261477b565b602082019050919050565b5f6020820190508181035f8301526147dc816147a3565b905091905056fea2646970667358221220035582410cc9b0e0a6cf6f8b5043596223bd4d8f1fcb16213d724fc38cea87a364736f6c63430008140033",
					"opcodes": "PUSH1 0x80 PUSH1 0x40 MSTORE CALLVALUE DUP1 ISZERO PUSH3 0x10 JUMPI PUSH0 DUP1 REVERT JUMPDEST POP PUSH1 0x40 MLOAD PUSH3 0x4B7C CODESIZE SUB DUP1 PUSH3 0x4B7C DUP4 CODECOPY DUP2 DUP2 ADD PUSH1 0x40 MSTORE DUP2 ADD SWAP1 PUSH3 0x36 SWAP2 SWAP1 PUSH3 0x224 JUMP JUMPDEST PUSH0 DUP1 PUSH0 PUSH2 0x100 EXP DUP2 SLOAD DUP2 PUSH1 0xFF MUL NOT AND SWAP1 DUP4 ISZERO ISZERO MUL OR SWAP1 SSTORE POP PUSH0 PUSH20 0xFFFFFFFFFFFFFFFFFFFFFFFFFFFFFFFFFFFFFFFF AND DUP3 PUSH20 0xFFFFFFFFFFFFFFFFFFFFFFFFFFFFFFFFFFFFFFFF AND SUB PUSH3 0xBF JUMPI PUSH1 0x40 MLOAD PUSH32 0x8C379A000000000000000000000000000000000000000000000000000000000 DUP2 MSTORE PUSH1 0x4 ADD PUSH3 0xB6 SWAP1 PUSH3 0x2C7 JUMP JUMPDEST PUSH1 0x40 MLOAD DUP1 SWAP2 SUB SWAP1 REVERT JUMPDEST PUSH0 PUSH20 0xFFFFFFFFFFFFFFFFFFFFFFFFFFFFFFFFFFFFFFFF AND DUP2 PUSH20 0xFFFFFFFFFFFFFFFFFFFFFFFFFFFFFFFFFFFFFFFF AND SUB PUSH3 0x130 JUMPI PUSH1 0x40 MLOAD PUSH32 0x8C379A000000000000000000000000000000000000000000000000000000000 DUP2 MSTORE PUSH1 0x4 ADD PUSH3 0x127 SWAP1 PUSH3 0x335 JUMP JUMPDEST PUSH1 0x40 MLOAD DUP1 SWAP2 SUB SWAP1 REVERT JUMPDEST DUP2 PUSH0 PUSH1 0x1 PUSH2 0x100 EXP DUP2 SLOAD DUP2 PUSH20 0xFFFFFFFFFFFFFFFFFFFFFFFFFFFFFFFFFFFFFFFF MUL NOT AND SWAP1 DUP4 PUSH20 0xFFFFFFFFFFFFFFFFFFFFFFFFFFFFFFFFFFFFFFFF AND MUL OR SWAP1 SSTORE POP DUP1 PUSH1 0x1 PUSH0 PUSH2 0x100 EXP DUP2 SLOAD DUP2 PUSH20 0xFFFFFFFFFFFFFFFFFFFFFFFFFFFFFFFFFFFFFFFF MUL NOT AND SWAP1 DUP4 PUSH20 0xFFFFFFFFFFFFFFFFFFFFFFFFFFFFFFFFFFFFFFFF AND MUL OR SWAP1 SSTORE POP PUSH0 PUSH1 0x3 DUP2 SWAP1 SSTORE POP POP POP PUSH3 0x355 JUMP JUMPDEST PUSH0 DUP1 REVERT JUMPDEST PUSH0 PUSH20 0xFFFFFFFFFFFFFFFFFFFFFFFFFFFFFFFFFFFFFFFF DUP3 AND SWAP1 POP SWAP2 SWAP1 POP JUMP JUMPDEST PUSH0 PUSH3 0x1EE DUP3 PUSH3 0x1C3 JUMP JUMPDEST SWAP1 POP SWAP2 SWAP1 POP JUMP JUMPDEST PUSH3 0x200 DUP2 PUSH3 0x1E2 JUMP JUMPDEST DUP2 EQ PUSH3 0x20B JUMPI PUSH0 DUP1 REVERT JUMPDEST POP JUMP JUMPDEST PUSH0 DUP2 MLOAD SWAP1 POP PUSH3 0x21E DUP2 PUSH3 0x1F5 JUMP JUMPDEST SWAP3 SWAP2 POP POP JUMP JUMPDEST PUSH0 DUP1 PUSH1 0x40 DUP4 DUP6 SUB SLT ISZERO PUSH3 0x23D JUMPI PUSH3 0x23C PUSH3 0x1BF JUMP JUMPDEST JUMPDEST PUSH0 PUSH3 0x24C DUP6 DUP3 DUP7 ADD PUSH3 0x20E JUMP JUMPDEST SWAP3 POP POP PUSH1 0x20 PUSH3 0x25F DUP6 DUP3 DUP7 ADD PUSH3 0x20E JUMP JUMPDEST SWAP2 POP POP SWAP3 POP SWAP3 SWAP1 POP JUMP JUMPDEST PUSH0 DUP3 DUP3 MSTORE PUSH1 0x20 DUP3 ADD SWAP1 POP SWAP3 SWAP2 POP POP JUMP JUMPDEST PUSH32 0x496E76616C696420526F6C654D616E6167657220616464726573730000000000 PUSH0 DUP3 ADD MSTORE POP JUMP JUMPDEST PUSH0 PUSH3 0x2AF PUSH1 0x1B DUP4 PUSH3 0x269 JUMP JUMPDEST SWAP2 POP PUSH3 0x2BC DUP3 PUSH3 0x279 JUMP JUMPDEST PUSH1 0x20 DUP3 ADD SWAP1 POP SWAP2 SWAP1 POP JUMP JUMPDEST PUSH0 PUSH1 0x20 DUP3 ADD SWAP1 POP DUP2 DUP2 SUB PUSH0 DUP4 ADD MSTORE PUSH3 0x2E0 DUP2 PUSH3 0x2A1 JUMP JUMPDEST SWAP1 POP SWAP2 SWAP1 POP JUMP JUMPDEST PUSH32 0x496E76616C69642057616C6C20636F6E74726163742061646472657373000000 PUSH0 DUP3 ADD MSTORE POP JUMP JUMPDEST PUSH0 PUSH3 0x31D PUSH1 0x1D DUP4 PUSH3 0x269 JUMP JUMPDEST SWAP2 POP PUSH3 0x32A DUP3 PUSH3 0x2E7 JUMP JUMPDEST PUSH1 0x20 DUP3 ADD SWAP1 POP SWAP2 SWAP1 POP JUMP JUMPDEST PUSH0 PUSH1 0x20 DUP3 ADD SWAP1 POP DUP2 DUP2 SUB PUSH0 DUP4 ADD MSTORE PUSH3 0x34E DUP2 PUSH3 0x30F JUMP JUMPDEST SWAP1 POP SWAP2 SWAP1 POP JUMP JUMPDEST PUSH2 0x4819 DUP1 PUSH3 0x363 PUSH0 CODECOPY PUSH0 RETURN INVALID PUSH1 0x80 PUSH1 0x40 MSTORE CALLVALUE DUP1 ISZERO PUSH2 0xF JUMPI PUSH0 DUP1 REVERT JUMPDEST POP PUSH1 0x4 CALLDATASIZE LT PUSH2 0x129 JUMPI PUSH0 CALLDATALOAD PUSH1 0xE0 SHR DUP1 PUSH4 0x9EB99F55 GT PUSH2 0xAB JUMPI DUP1 PUSH4 0xD328EC70 GT PUSH2 0x6F JUMPI DUP1 PUSH4 0xD328EC70 EQ PUSH2 0x311 JUMPI DUP1 PUSH4 0xE3FBF314 EQ PUSH2 0x32D JUMPI DUP1 PUSH4 0xEAF4CC75 EQ PUSH2 0x35D JUMPI DUP1 PUSH4 0xF0C87BC7 EQ PUSH2 0x393 JUMPI DUP1 PUSH4 0xF685D28F EQ PUSH2 0x3AF JUMPI PUSH2 0x129 JUMP JUMPDEST DUP1 PUSH4 0x9EB99F55 EQ PUSH2 0x25B JUMPI DUP1 PUSH4 0xAAD53A84 EQ PUSH2 0x28B JUMPI DUP1 PUSH4 0xAB44AC83 EQ PUSH2 0x2A9 JUMPI DUP1 PUSH4 0xC705BC18 EQ PUSH2 0x2C5 JUMPI DUP1 PUSH4 0xCC88600B EQ PUSH2 0x2F5 JUMPI PUSH2 0x129 JUMP JUMPDEST DUP1 PUSH4 0x3F4BA83A GT PUSH2 0xF2 JUMPI DUP1 PUSH4 0x3F4BA83A EQ PUSH2 0x1F1 JUMPI DUP1 PUSH4 0x489B920F EQ PUSH2 0x1FB JUMPI DUP1 PUSH4 0x5C975ABB EQ PUSH2 0x217 JUMPI DUP1 PUSH4 0x641A9350 EQ PUSH2 0x235 JUMPI DUP1 PUSH4 0x8456CB59 EQ PUSH2 0x251 JUMPI PUSH2 0x129 JUMP JUMPDEST DUP1 PUSH3 0x435DA5 EQ PUSH2 0x12D JUMPI DUP1 PUSH4 0x1640CA4 EQ PUSH2 0x14B JUMPI DUP1 PUSH4 0x14D39BAD EQ PUSH2 0x183 JUMPI DUP1 PUSH4 0x1F741897 EQ PUSH2 0x19F JUMPI DUP1 PUSH4 0x300D20A1 EQ PUSH2 0x1BD JUMPI JUMPDEST PUSH0 DUP1 REVERT JUMPDEST PUSH2 0x135 PUSH2 0x3CB JUMP JUMPDEST PUSH1 0x40 MLOAD PUSH2 0x142 SWAP2 SWAP1 PUSH2 0x3332 JUMP JUMPDEST PUSH1 0x40 MLOAD DUP1 SWAP2 SUB SWAP1 RETURN JUMPDEST PUSH2 0x165 PUSH1 0x4 DUP1 CALLDATASIZE SUB DUP2 ADD SWAP1 PUSH2 0x160 SWAP2 SWAP1 PUSH2 0x3386 JUMP JUMPDEST PUSH2 0x3F0 JUMP JUMPDEST PUSH1 0x40 MLOAD PUSH2 0x17A SWAP10 SWAP9 SWAP8 SWAP7 SWAP6 SWAP5 SWAP4 SWAP3 SWAP2 SWAP1 PUSH2 0x354B JUMP JUMPDEST PUSH1 0x40 MLOAD DUP1 SWAP2 SUB SWAP1 RETURN JUMPDEST PUSH2 0x19D PUSH1 0x4 DUP1 CALLDATASIZE SUB DUP2 ADD SWAP1 PUSH2 0x198 SWAP2 SWAP1 PUSH2 0x3386 JUMP JUMPDEST PUSH2 0x6AE JUMP JUMPDEST STOP JUMPDEST PUSH2 0x1A7 PUSH2 0x89A JUMP JUMPDEST PUSH1 0x40 MLOAD PUSH2 0x1B4 SWAP2 SWAP1 PUSH2 0x35EB JUMP JUMPDEST PUSH1 0x40 MLOAD DUP1 SWAP2 SUB SWAP1 RETURN JUMPDEST PUSH2 0x1D7 PUSH1 0x4 DUP1 CALLDATASIZE SUB DUP2 ADD SWAP1 PUSH2 0x1D2 SWAP2 SWAP1 PUSH2 0x3604 JUMP JUMPDEST PUSH2 0x8A0 JUMP JUMPDEST PUSH1 0x40 MLOAD PUSH2 0x1E8 SWAP6 SWAP5 SWAP4 SWAP3 SWAP2 SWAP1 PUSH2 0x3642 JUMP JUMPDEST PUSH1 0x40 MLOAD DUP1 SWAP2 SUB SWAP1 RETURN JUMPDEST PUSH2 0x1F9 PUSH2 0x915 JUMP JUMPDEST STOP JUMPDEST PUSH2 0x215 PUSH1 0x4 DUP1 CALLDATASIZE SUB DUP2 ADD SWAP1 PUSH2 0x210 SWAP2 SWAP1 PUSH2 0x3604 JUMP JUMPDEST PUSH2 0xA86 JUMP JUMPDEST STOP JUMPDEST PUSH2 0x21F PUSH2 0xC0E JUMP JUMPDEST PUSH1 0x40 MLOAD PUSH2 0x22C SWAP2 SWAP1 PUSH2 0x3693 JUMP JUMPDEST PUSH1 0x40 MLOAD DUP1 SWAP2 SUB SWAP1 RETURN JUMPDEST PUSH2 0x24F PUSH1 0x4 DUP1 CALLDATASIZE SUB DUP2 ADD SWAP1 PUSH2 0x24A SWAP2 SWAP1 PUSH2 0x3604 JUMP JUMPDEST PUSH2 0xC22 JUMP JUMPDEST STOP JUMPDEST PUSH2 0x259 PUSH2 0xF35 JUMP JUMPDEST STOP JUMPDEST PUSH2 0x275 PUSH1 0x4 DUP1 CALLDATASIZE SUB DUP2 ADD SWAP1 PUSH2 0x270 SWAP2 SWAP1 PUSH2 0x3604 JUMP JUMPDEST PUSH2 0x10A6 JUMP JUMPDEST PUSH1 0x40 MLOAD PUSH2 0x282 SWAP2 SWAP1 PUSH2 0x35EB JUMP JUMPDEST PUSH1 0x40 MLOAD DUP1 SWAP2 SUB SWAP1 RETURN JUMPDEST PUSH2 0x293 PUSH2 0x10D1 JUMP JUMPDEST PUSH1 0x40 MLOAD PUSH2 0x2A0 SWAP2 SWAP1 PUSH2 0x36CC JUMP JUMPDEST PUSH1 0x40 MLOAD DUP1 SWAP2 SUB SWAP1 RETURN JUMPDEST PUSH2 0x2C3 PUSH1 0x4 DUP1 CALLDATASIZE SUB DUP2 ADD SWAP1 PUSH2 0x2BE SWAP2 SWAP1 PUSH2 0x3604 JUMP JUMPDEST PUSH2 0x10F6 JUMP JUMPDEST STOP JUMPDEST PUSH2 0x2DF PUSH1 0x4 DUP1 CALLDATASIZE SUB DUP2 ADD SWAP1 PUSH2 0x2DA SWAP2 SWAP1 PUSH2 0x3386 JUMP JUMPDEST PUSH2 0x15D6 JUMP JUMPDEST PUSH1 0x40 MLOAD PUSH2 0x2EC SWAP2 SWAP1 PUSH2 0x379C JUMP JUMPDEST PUSH1 0x40 MLOAD DUP1 SWAP2 SUB SWAP1 RETURN JUMPDEST PUSH2 0x30F PUSH1 0x4 DUP1 CALLDATASIZE SUB DUP2 ADD SWAP1 PUSH2 0x30A SWAP2 SWAP1 PUSH2 0x3386 JUMP JUMPDEST PUSH2 0x169D JUMP JUMPDEST STOP JUMPDEST PUSH2 0x32B PUSH1 0x4 DUP1 CALLDATASIZE SUB DUP2 ADD SWAP1 PUSH2 0x326 SWAP2 SWAP1 PUSH2 0x37DE JUMP JUMPDEST PUSH2 0x18D8 JUMP JUMPDEST STOP JUMPDEST PUSH2 0x347 PUSH1 0x4 DUP1 CALLDATASIZE SUB DUP2 ADD SWAP1 PUSH2 0x342 SWAP2 SWAP1 PUSH2 0x3386 JUMP JUMPDEST PUSH2 0x1E18 JUMP JUMPDEST PUSH1 0x40 MLOAD PUSH2 0x354 SWAP2 SWAP1 PUSH2 0x397A JUMP JUMPDEST PUSH1 0x40 MLOAD DUP1 SWAP2 SUB SWAP1 RETURN JUMPDEST PUSH2 0x377 PUSH1 0x4 DUP1 CALLDATASIZE SUB DUP2 ADD SWAP1 PUSH2 0x372 SWAP2 SWAP1 PUSH2 0x3386 JUMP JUMPDEST PUSH2 0x21A1 JUMP JUMPDEST PUSH1 0x40 MLOAD PUSH2 0x38A SWAP8 SWAP7 SWAP6 SWAP5 SWAP4 SWAP3 SWAP2 SWAP1 PUSH2 0x399A JUMP JUMPDEST PUSH1 0x40 MLOAD DUP1 SWAP2 SUB SWAP1 RETURN JUMPDEST PUSH2 0x3AD PUSH1 0x4 DUP1 CALLDATASIZE SUB DUP2 ADD SWAP1 PUSH2 0x3A8 SWAP2 SWAP1 PUSH2 0x3386 JUMP JUMPDEST PUSH2 0x2460 JUMP JUMPDEST STOP JUMPDEST PUSH2 0x3C9 PUSH1 0x4 DUP1 CALLDATASIZE SUB DUP2 ADD SWAP1 PUSH2 0x3C4 SWAP2 SWAP1 PUSH2 0x3604 JUMP JUMPDEST PUSH2 0x2C0E JUMP JUMPDEST STOP JUMPDEST PUSH0 PUSH1 0x1 SWAP1 SLOAD SWAP1 PUSH2 0x100 EXP SWAP1 DIV PUSH20 0xFFFFFFFFFFFFFFFFFFFFFFFFFFFFFFFFFFFFFFFF AND DUP2 JUMP JUMPDEST PUSH1 0x4 PUSH1 0x20 MSTORE DUP1 PUSH0 MSTORE PUSH1 0x40 PUSH0 KECCAK256 PUSH0 SWAP2 POP SWAP1 POP DUP1 PUSH0 ADD SLOAD SWAP1 DUP1 PUSH1 0x1 ADD DUP1 SLOAD PUSH2 0x415 SWAP1 PUSH2 0x3A49 JUMP JUMPDEST DUP1 PUSH1 0x1F ADD PUSH1 0x20 DUP1 SWAP2 DIV MUL PUSH1 0x20 ADD PUSH1 0x40 MLOAD SWAP1 DUP2 ADD PUSH1 0x40 MSTORE DUP1 SWAP3 SWAP2 SWAP1 DUP2 DUP2 MSTORE PUSH1 0x20 ADD DUP3 DUP1 SLOAD PUSH2 0x441 SWAP1 PUSH2 0x3A49 JUMP JUMPDEST DUP1 ISZERO PUSH2 0x48C JUMPI DUP1 PUSH1 0x1F LT PUSH2 0x463 JUMPI PUSH2 0x100 DUP1 DUP4 SLOAD DIV MUL DUP4 MSTORE SWAP2 PUSH1 0x20 ADD SWAP2 PUSH2 0x48C JUMP JUMPDEST DUP3 ADD SWAP2 SWAP1 PUSH0 MSTORE PUSH1 0x20 PUSH0 KECCAK256 SWAP1 JUMPDEST DUP2 SLOAD DUP2 MSTORE SWAP1 PUSH1 0x1 ADD SWAP1 PUSH1 0x20 ADD DUP1 DUP4 GT PUSH2 0x46F JUMPI DUP3 SWAP1 SUB PUSH1 0x1F AND DUP3 ADD SWAP2 JUMPDEST POP POP POP POP POP SWAP1 DUP1 PUSH1 0x2 ADD DUP1 SLOAD PUSH2 0x4A1 SWAP1 PUSH2 0x3A49 JUMP JUMPDEST DUP1 PUSH1 0x1F ADD PUSH1 0x20 DUP1 SWAP2 DIV MUL PUSH1 0x20 ADD PUSH1 0x40 MLOAD SWAP1 DUP2 ADD PUSH1 0x40 MSTORE DUP1 SWAP3 SWAP2 SWAP1 DUP2 DUP2 MSTORE PUSH1 0x20 ADD DUP3 DUP1 SLOAD PUSH2 0x4CD SWAP1 PUSH2 0x3A49 JUMP JUMPDEST DUP1 ISZERO PUSH2 0x518 JUMPI DUP1 PUSH1 0x1F LT PUSH2 0x4EF JUMPI PUSH2 0x100 DUP1 DUP4 SLOAD DIV MUL DUP4 MSTORE SWAP2 PUSH1 0x20 ADD SWAP2 PUSH2 0x518 JUMP JUMPDEST DUP3 ADD SWAP2 SWAP1 PUSH0 MSTORE PUSH1 0x20 PUSH0 KECCAK256 SWAP1 JUMPDEST DUP2 SLOAD DUP2 MSTORE SWAP1 PUSH1 0x1 ADD SWAP1 PUSH1 0x20 ADD DUP1 DUP4 GT PUSH2 0x4FB JUMPI DUP3 SWAP1 SUB PUSH1 0x1F AND DUP3 ADD SWAP2 JUMPDEST POP POP POP POP POP SWAP1 DUP1 PUSH1 0x3 ADD PUSH1 0x40 MLOAD DUP1 PUSH1 0x80 ADD PUSH1 0x40 MSTORE SWAP1 DUP2 PUSH0 DUP3 ADD DUP1 SLOAD PUSH2 0x53C SWAP1 PUSH2 0x3A49 JUMP JUMPDEST DUP1 PUSH1 0x1F ADD PUSH1 0x20 DUP1 SWAP2 DIV MUL PUSH1 0x20 ADD PUSH1 0x40 MLOAD SWAP1 DUP2 ADD PUSH1 0x40 MSTORE DUP1 SWAP3 SWAP2 SWAP1 DUP2 DUP2 MSTORE PUSH1 0x20 ADD DUP3 DUP1 SLOAD PUSH2 0x568 SWAP1 PUSH2 0x3A49 JUMP JUMPDEST DUP1 ISZERO PUSH2 0x5B3 JUMPI DUP1 PUSH1 0x1F LT PUSH2 0x58A JUMPI PUSH2 0x100 DUP1 DUP4 SLOAD DIV MUL DUP4 MSTORE SWAP2 PUSH1 0x20 ADD SWAP2 PUSH2 0x5B3 JUMP JUMPDEST DUP3 ADD SWAP2 SWAP1 PUSH0 MSTORE PUSH1 0x20 PUSH0 KECCAK256 SWAP1 JUMPDEST DUP2 SLOAD DUP2 MSTORE SWAP1 PUSH1 0x1 ADD SWAP1 PUSH1 0x20 ADD DUP1 DUP4 GT PUSH2 0x596 JUMPI DUP3 SWAP1 SUB PUSH1 0x1F AND DUP3 ADD SWAP2 JUMPDEST POP POP POP POP POP DUP2 MSTORE PUSH1 0x20 ADD PUSH1 0x1 DUP3 ADD DUP1 SLOAD PUSH2 0x5CC SWAP1 PUSH2 0x3A49 JUMP JUMPDEST DUP1 PUSH1 0x1F ADD PUSH1 0x20 DUP1 SWAP2 DIV MUL PUSH1 0x20 ADD PUSH1 0x40 MLOAD SWAP1 DUP2 ADD PUSH1 0x40 MSTORE DUP1 SWAP3 SWAP2 SWAP1 DUP2 DUP2 MSTORE PUSH1 0x20 ADD DUP3 DUP1 SLOAD PUSH2 0x5F8 SWAP1 PUSH2 0x3A49 JUMP JUMPDEST DUP1 ISZERO PUSH2 0x643 JUMPI DUP1 PUSH1 0x1F LT PUSH2 0x61A JUMPI PUSH2 0x100 DUP1 DUP4 SLOAD DIV MUL DUP4 MSTORE SWAP2 PUSH1 0x20 ADD SWAP2 PUSH2 0x643 JUMP JUMPDEST DUP3 ADD SWAP2 SWAP1 PUSH0 MSTORE PUSH1 0x20 PUSH0 KECCAK256 SWAP1 JUMPDEST DUP2 SLOAD DUP2 MSTORE SWAP1 PUSH1 0x1 ADD SWAP1 PUSH1 0x20 ADD DUP1 DUP4 GT PUSH2 0x626 JUMPI DUP3 SWAP1 SUB PUSH1 0x1F AND DUP3 ADD SWAP2 JUMPDEST POP POP POP POP POP DUP2 MSTORE PUSH1 0x20 ADD PUSH1 0x2 DUP3 ADD SLOAD DUP2 MSTORE PUSH1 0x20 ADD PUSH1 0x3 DUP3 ADD SLOAD DUP2 MSTORE POP POP SWAP1 DUP1 PUSH1 0x7 ADD PUSH0 SWAP1 SLOAD SWAP1 PUSH2 0x100 EXP SWAP1 DIV PUSH20 0xFFFFFFFFFFFFFFFFFFFFFFFFFFFFFFFFFFFFFFFF AND SWAP1 DUP1 PUSH1 0x8 ADD SLOAD SWAP1 DUP1 PUSH1 0x9 ADD PUSH0 SWAP1 SLOAD SWAP1 PUSH2 0x100 EXP SWAP1 DIV PUSH1 0xFF AND SWAP1 DUP1 PUSH1 0xA ADD SLOAD SWAP1 DUP1 PUSH1 0xB ADD SLOAD SWAP1 POP DUP10 JUMP JUMPDEST PUSH0 PUSH1 0x1 SWAP1 SLOAD SWAP1 PUSH2 0x100 EXP SWAP1 DIV PUSH20 0xFFFFFFFFFFFFFFFFFFFFFFFFFFFFFFFFFFFFFFFF AND PUSH20 0xFFFFFFFFFFFFFFFFFFFFFFFFFFFFFFFFFFFFFFFF AND PUSH4 0x91D14854 PUSH0 PUSH1 0x1 SWAP1 SLOAD SWAP1 PUSH2 0x100 EXP SWAP1 DIV PUSH20 0xFFFFFFFFFFFFFFFFFFFFFFFFFFFFFFFFFFFFFFFF AND PUSH20 0xFFFFFFFFFFFFFFFFFFFFFFFFFFFFFFFFFFFFFFFF AND PUSH4 0x75B238FC PUSH1 0x40 MLOAD DUP2 PUSH4 0xFFFFFFFF AND PUSH1 0xE0 SHL DUP2 MSTORE PUSH1 0x4 ADD PUSH1 0x20 PUSH1 0x40 MLOAD DUP1 DUP4 SUB DUP2 DUP7 GAS STATICCALL ISZERO DUP1 ISZERO PUSH2 0x755 JUMPI RETURNDATASIZE PUSH0 DUP1 RETURNDATACOPY RETURNDATASIZE PUSH0 REVERT JUMPDEST POP POP POP POP PUSH1 0x40 MLOAD RETURNDATASIZE PUSH1 0x1F NOT PUSH1 0x1F DUP3 ADD AND DUP3 ADD DUP1 PUSH1 0x40 MSTORE POP DUP2 ADD SWAP1 PUSH2 0x779 SWAP2 SWAP1 PUSH2 0x3AAC JUMP JUMPDEST CALLER PUSH1 0x40 MLOAD DUP4 PUSH4 0xFFFFFFFF AND PUSH1 0xE0 SHL DUP2 MSTORE PUSH1 0x4 ADD PUSH2 0x797 SWAP3 SWAP2 SWAP1 PUSH2 0x3AE6 JUMP JUMPDEST PUSH1 0x20 PUSH1 0x40 MLOAD DUP1 DUP4 SUB DUP2 DUP7 GAS STATICCALL ISZERO DUP1 ISZERO PUSH2 0x7B2 JUMPI RETURNDATASIZE PUSH0 DUP1 RETURNDATACOPY RETURNDATASIZE PUSH0 REVERT JUMPDEST POP POP POP POP PUSH1 0x40 MLOAD RETURNDATASIZE PUSH1 0x1F NOT PUSH1 0x1F DUP3 ADD AND DUP3 ADD DUP1 PUSH1 0x40 MSTORE POP DUP2 ADD SWAP1 PUSH2 0x7D6 SWAP2 SWAP1 PUSH2 0x3B37 JUMP JUMPDEST PUSH2 0x815 JUMPI PUSH1 0x40 MLOAD PUSH32 0x8C379A000000000000000000000000000000000000000000000000000000000 DUP2 MSTORE PUSH1 0x4 ADD PUSH2 0x80C SWAP1 PUSH2 0x3BAC JUMP JUMPDEST PUSH1 0x40 MLOAD DUP1 SWAP2 SUB SWAP1 REVERT JUMPDEST PUSH1 0x64 DUP2 GT ISZERO PUSH2 0x859 JUMPI PUSH1 0x40 MLOAD PUSH32 0x8C379A000000000000000000000000000000000000000000000000000000000 DUP2 MSTORE PUSH1 0x4 ADD PUSH2 0x850 SWAP1 PUSH2 0x3C14 JUMP JUMPDEST PUSH1 0x40 MLOAD DUP1 SWAP2 SUB SWAP1 REVERT JUMPDEST DUP1 PUSH1 0x3 DUP2 SWAP1 SSTORE POP PUSH32 0x939BE2C65DBF8FD3FA426B40F964A7038810059517125D552F6F45B487713D82 DUP2 PUSH1 0x40 MLOAD PUSH2 0x88F SWAP2 SWAP1 PUSH2 0x35EB JUMP JUMPDEST PUSH1 0x40 MLOAD DUP1 SWAP2 SUB SWAP1 LOG1 POP JUMP JUMPDEST PUSH1 0x3 SLOAD DUP2 JUMP JUMPDEST PUSH1 0x6 PUSH1 0x20 MSTORE DUP2 PUSH0 MSTORE PUSH1 0x40 PUSH0 KECCAK256 PUSH1 0x20 MSTORE DUP1 PUSH0 MSTORE PUSH1 0x40 PUSH0 KECCAK256 PUSH0 SWAP2 POP SWAP2 POP POP DUP1 PUSH0 ADD SLOAD SWAP1 DUP1 PUSH1 0x1 ADD PUSH0 SWAP1 SLOAD SWAP1 PUSH2 0x100 EXP SWAP1 DIV PUSH20 0xFFFFFFFFFFFFFFFFFFFFFFFFFFFFFFFFFFFFFFFF AND SWAP1 DUP1 PUSH1 0x2 ADD SLOAD SWAP1 DUP1 PUSH1 0x3 ADD PUSH0 SWAP1 SLOAD SWAP1 PUSH2 0x100 EXP SWAP1 DIV PUSH1 0xFF AND SWAP1 DUP1 PUSH1 0x3 ADD PUSH1 0x1 SWAP1 SLOAD SWAP1 PUSH2 0x100 EXP SWAP1 DIV PUSH1 0xFF AND SWAP1 POP DUP6 JUMP JUMPDEST PUSH0 PUSH1 0x1 SWAP1 SLOAD SWAP1 PUSH2 0x100 EXP SWAP1 DIV PUSH20 0xFFFFFFFFFFFFFFFFFFFFFFFFFFFFFFFFFFFFFFFF AND PUSH20 0xFFFFFFFFFFFFFFFFFFFFFFFFFFFFFFFFFFFFFFFF AND PUSH4 0x91D14854 PUSH0 PUSH1 0x1 SWAP1 SLOAD SWAP1 PUSH2 0x100 EXP SWAP1 DIV PUSH20 0xFFFFFFFFFFFFFFFFFFFFFFFFFFFFFFFFFFFFFFFF AND PUSH20 0xFFFFFFFFFFFFFFFFFFFFFFFFFFFFFFFFFFFFFFFF AND PUSH4 0x75B238FC PUSH1 0x40 MLOAD DUP2 PUSH4 0xFFFFFFFF AND PUSH1 0xE0 SHL DUP2 MSTORE PUSH1 0x4 ADD PUSH1 0x20 PUSH1 0x40 MLOAD DUP1 DUP4 SUB DUP2 DUP7 GAS STATICCALL ISZERO DUP1 ISZERO PUSH2 0x9BC JUMPI RETURNDATASIZE PUSH0 DUP1 RETURNDATACOPY RETURNDATASIZE PUSH0 REVERT JUMPDEST POP POP POP POP PUSH1 0x40 MLOAD RETURNDATASIZE PUSH1 0x1F NOT PUSH1 0x1F DUP3 ADD AND DUP3 ADD DUP1 PUSH1 0x40 MSTORE POP DUP2 ADD SWAP1 PUSH2 0x9E0 SWAP2 SWAP1 PUSH2 0x3AAC JUMP JUMPDEST CALLER PUSH1 0x40 MLOAD DUP4 PUSH4 0xFFFFFFFF AND PUSH1 0xE0 SHL DUP2 MSTORE PUSH1 0x4 ADD PUSH2 0x9FE SWAP3 SWAP2 SWAP1 PUSH2 0x3AE6 JUMP JUMPDEST PUSH1 0x20 PUSH1 0x40 MLOAD DUP1 DUP4 SUB DUP2 DUP7 GAS STATICCALL ISZERO DUP1 ISZERO PUSH2 0xA19 JUMPI RETURNDATASIZE PUSH0 DUP1 RETURNDATACOPY RETURNDATASIZE PUSH0 REVERT JUMPDEST POP POP POP POP PUSH1 0x40 MLOAD RETURNDATASIZE PUSH1 0x1F NOT PUSH1 0x1F DUP3 ADD AND DUP3 ADD DUP1 PUSH1 0x40 MSTORE POP DUP2 ADD SWAP1 PUSH2 0xA3D SWAP2 SWAP1 PUSH2 0x3B37 JUMP JUMPDEST PUSH2 0xA7C JUMPI PUSH1 0x40 MLOAD PUSH32 0x8C379A000000000000000000000000000000000000000000000000000000000 DUP2 MSTORE PUSH1 0x4 ADD PUSH2 0xA73 SWAP1 PUSH2 0x3BAC JUMP JUMPDEST PUSH1 0x40 MLOAD DUP1 SWAP2 SUB SWAP1 REVERT JUMPDEST PUSH2 0xA84 PUSH2 0x2FE2 JUMP JUMPDEST JUMP JUMPDEST DUP2 CALLER PUSH20 0xFFFFFFFFFFFFFFFFFFFFFFFFFFFFFFFFFFFFFFFF AND PUSH1 0x4 PUSH0 DUP4 DUP2 MSTORE PUSH1 0x20 ADD SWAP1 DUP2 MSTORE PUSH1 0x20 ADD PUSH0 KECCAK256 PUSH1 0x7 ADD PUSH0 SWAP1 SLOAD SWAP1 PUSH2 0x100 EXP SWAP1 DIV PUSH20 0xFFFFFFFFFFFFFFFFFFFFFFFFFFFFFFFFFFFFFFFF AND PUSH20 0xFFFFFFFFFFFFFFFFFFFFFFFFFFFFFFFFFFFFFFFF AND EQ PUSH2 0xB28 JUMPI PUSH1 0x40 MLOAD PUSH32 0x8C379A000000000000000000000000000000000000000000000000000000000 DUP2 MSTORE PUSH1 0x4 ADD PUSH2 0xB1F SWAP1 PUSH2 0x3C7C JUMP JUMPDEST PUSH1 0x40 MLOAD DUP1 SWAP2 SUB SWAP1 REVERT JUMPDEST PUSH2 0xB30 PUSH2 0x3042 JUMP JUMPDEST PUSH0 PUSH1 0x6 PUSH0 DUP6 DUP2 MSTORE PUSH1 0x20 ADD SWAP1 DUP2 MSTORE PUSH1 0x20 ADD PUSH0 KECCAK256 PUSH0 DUP5 DUP2 MSTORE PUSH1 0x20 ADD SWAP1 DUP2 MSTORE PUSH1 0x20 ADD PUSH0 KECCAK256 SWAP1 POP DUP1 PUSH1 0x3 ADD PUSH0 SWAP1 SLOAD SWAP1 PUSH2 0x100 EXP SWAP1 DIV PUSH1 0xFF AND PUSH2 0xBA3 JUMPI PUSH1 0x40 MLOAD PUSH32 0x8C379A000000000000000000000000000000000000000000000000000000000 DUP2 MSTORE PUSH1 0x4 ADD PUSH2 0xB9A SWAP1 PUSH2 0x3CE4 JUMP JUMPDEST PUSH1 0x40 MLOAD DUP1 SWAP2 SUB SWAP1 REVERT JUMPDEST PUSH0 DUP2 PUSH1 0x3 ADD PUSH0 PUSH2 0x100 EXP DUP2 SLOAD DUP2 PUSH1 0xFF MUL NOT AND SWAP1 DUP4 ISZERO ISZERO MUL OR SWAP1 SSTORE POP PUSH0 DUP2 PUSH1 0x3 ADD PUSH1 0x1 PUSH2 0x100 EXP DUP2 SLOAD DUP2 PUSH1 0xFF MUL NOT AND SWAP1 DUP4 ISZERO ISZERO MUL OR SWAP1 SSTORE POP DUP3 DUP5 PUSH32 0x409E24D1DE9B35460A711A3D1A6690CACA8A22C4C49D543D5F5507C76DA71F65 PUSH1 0x40 MLOAD PUSH1 0x40 MLOAD DUP1 SWAP2 SUB SWAP1 LOG3 POP POP POP POP JUMP JUMPDEST PUSH0 DUP1 PUSH0 SWAP1 SLOAD SWAP1 PUSH2 0x100 EXP SWAP1 DIV PUSH1 0xFF AND SWAP1 POP SWAP1 JUMP JUMPDEST PUSH0 PUSH1 0x1 SWAP1 SLOAD SWAP1 PUSH2 0x100 EXP SWAP1 DIV PUSH20 0xFFFFFFFFFFFFFFFFFFFFFFFFFFFFFFFFFFFFFFFF AND PUSH20 0xFFFFFFFFFFFFFFFFFFFFFFFFFFFFFFFFFFFFFFFF AND PUSH4 0x91D14854 PUSH0 PUSH1 0x1 SWAP1 SLOAD SWAP1 PUSH2 0x100 EXP SWAP1 DIV PUSH20 0xFFFFFFFFFFFFFFFFFFFFFFFFFFFFFFFFFFFFFFFF AND PUSH20 0xFFFFFFFFFFFFFFFFFFFFFFFFFFFFFFFFFFFFFFFF AND PUSH4 0x75B238FC PUSH1 0x40 MLOAD DUP2 PUSH4 0xFFFFFFFF AND PUSH1 0xE0 SHL DUP2 MSTORE PUSH1 0x4 ADD PUSH1 0x20 PUSH1 0x40 MLOAD DUP1 DUP4 SUB DUP2 DUP7 GAS STATICCALL ISZERO DUP1 ISZERO PUSH2 0xCC9 JUMPI RETURNDATASIZE PUSH0 DUP1 RETURNDATACOPY RETURNDATASIZE PUSH0 REVERT JUMPDEST POP POP POP POP PUSH1 0x40 MLOAD RETURNDATASIZE PUSH1 0x1F NOT PUSH1 0x1F DUP3 ADD AND DUP3 ADD DUP1 PUSH1 0x40 MSTORE POP DUP2 ADD SWAP1 PUSH2 0xCED SWAP2 SWAP1 PUSH2 0x3AAC JUMP JUMPDEST CALLER PUSH1 0x40 MLOAD DUP4 PUSH4 0xFFFFFFFF AND PUSH1 0xE0 SHL DUP2 MSTORE PUSH1 0x4 ADD PUSH2 0xD0B SWAP3 SWAP2 SWAP1 PUSH2 0x3AE6 JUMP JUMPDEST PUSH1 0x20 PUSH1 0x40 MLOAD DUP1 DUP4 SUB DUP2 DUP7 GAS STATICCALL ISZERO DUP1 ISZERO PUSH2 0xD26 JUMPI RETURNDATASIZE PUSH0 DUP1 RETURNDATACOPY RETURNDATASIZE PUSH0 REVERT JUMPDEST POP POP POP POP PUSH1 0x40 MLOAD RETURNDATASIZE PUSH1 0x1F NOT PUSH1 0x1F DUP3 ADD AND DUP3 ADD DUP1 PUSH1 0x40 MSTORE POP DUP2 ADD SWAP1 PUSH2 0xD4A SWAP2 SWAP1 PUSH2 0x3B37 JUMP JUMPDEST PUSH2 0xD89 JUMPI PUSH1 0x40 MLOAD PUSH32 0x8C379A000000000000000000000000000000000000000000000000000000000 DUP2 MSTORE PUSH1 0x4 ADD PUSH2 0xD80 SWAP1 PUSH2 0x3BAC JUMP JUMPDEST PUSH1 0x40 MLOAD DUP1 SWAP2 SUB SWAP1 REVERT JUMPDEST PUSH2 0xD91 PUSH2 0x3042 JUMP JUMPDEST PUSH1 0x4 PUSH0 DUP4 DUP2 MSTORE PUSH1 0x20 ADD SWAP1 DUP2 MSTORE PUSH1 0x20 ADD PUSH0 KECCAK256 PUSH1 0x9 ADD PUSH0 SWAP1 SLOAD SWAP1 PUSH2 0x100 EXP SWAP1 DIV PUSH1 0xFF AND PUSH2 0xDF1 JUMPI PUSH1 0x40 MLOAD PUSH32 0x8C379A000000000000000000000000000000000000000000000000000000000 DUP2 MSTORE PUSH1 0x4 ADD PUSH2 0xDE8 SWAP1 PUSH2 0x3D4C JUMP JUMPDEST PUSH1 0x40 MLOAD DUP1 SWAP2 SUB SWAP1 REVERT JUMPDEST PUSH2 0xDFB DUP3 DUP3 PUSH2 0x308C JUMP JUMPDEST PUSH1 0x1 PUSH0 SWAP1 SLOAD SWAP1 PUSH2 0x100 EXP SWAP1 DIV PUSH20 0xFFFFFFFFFFFFFFFFFFFFFFFFFFFFFFFFFFFFFFFF AND PUSH20 0xFFFFFFFFFFFFFFFFFFFFFFFFFFFFFFFFFFFFFFFF AND PUSH4 0xCE290E1D DUP3 PUSH0 DUP1 PUSH1 0x40 MLOAD DUP5 PUSH4 0xFFFFFFFF AND PUSH1 0xE0 SHL DUP2 MSTORE PUSH1 0x4 ADD PUSH2 0xE59 SWAP4 SWAP3 SWAP2 SWAP1 PUSH2 0x3DA3 JUMP JUMPDEST PUSH0 PUSH1 0x40 MLOAD DUP1 DUP4 SUB DUP2 PUSH0 DUP8 DUP1 EXTCODESIZE ISZERO DUP1 ISZERO PUSH2 0xE70 JUMPI PUSH0 DUP1 REVERT JUMPDEST POP GAS CALL ISZERO DUP1 ISZERO PUSH2 0xE82 JUMPI RETURNDATASIZE PUSH0 DUP1 RETURNDATACOPY RETURNDATASIZE PUSH0 REVERT JUMPDEST POP POP POP POP PUSH1 0x6 PUSH0 DUP4 DUP2 MSTORE PUSH1 0x20 ADD SWAP1 DUP2 MSTORE PUSH1 0x20 ADD PUSH0 KECCAK256 PUSH0 DUP3 DUP2 MSTORE PUSH1 0x20 ADD SWAP1 DUP2 MSTORE PUSH1 0x20 ADD PUSH0 KECCAK256 PUSH0 DUP1 DUP3 ADD PUSH0 SWAP1 SSTORE PUSH1 0x1 DUP3 ADD PUSH0 PUSH2 0x100 EXP DUP2 SLOAD SWAP1 PUSH20 0xFFFFFFFFFFFFFFFFFFFFFFFFFFFFFFFFFFFFFFFF MUL NOT AND SWAP1 SSTORE PUSH1 0x2 DUP3 ADD PUSH0 SWAP1 SSTORE PUSH1 0x3 DUP3 ADD PUSH0 PUSH2 0x100 EXP DUP2 SLOAD SWAP1 PUSH1 0xFF MUL NOT AND SWAP1 SSTORE PUSH1 0x3 DUP3 ADD PUSH1 0x1 PUSH2 0x100 EXP DUP2 SLOAD SWAP1 PUSH1 0xFF MUL NOT AND SWAP1 SSTORE POP POP DUP1 DUP3 PUSH32 0x9C2A665641680D8945C31C04E9280E79CDC8FB9DA62E272D871D116BB7AE894D PUSH1 0x40 MLOAD PUSH1 0x40 MLOAD DUP1 SWAP2 SUB SWAP1 LOG3 POP POP JUMP JUMPDEST PUSH0 PUSH1 0x1 SWAP1 SLOAD SWAP1 PUSH2 0x100 EXP SWAP1 DIV PUSH20 0xFFFFFFFFFFFFFFFFFFFFFFFFFFFFFFFFFFFFFFFF AND PUSH20 0xFFFFFFFFFFFFFFFFFFFFFFFFFFFFFFFFFFFFFFFF AND PUSH4 0x91D14854 PUSH0 PUSH1 0x1 SWAP1 SLOAD SWAP1 PUSH2 0x100 EXP SWAP1 DIV PUSH20 0xFFFFFFFFFFFFFFFFFFFFFFFFFFFFFFFFFFFFFFFF AND PUSH20 0xFFFFFFFFFFFFFFFFFFFFFFFFFFFFFFFFFFFFFFFF AND PUSH4 0x75B238FC PUSH1 0x40 MLOAD DUP2 PUSH4 0xFFFFFFFF AND PUSH1 0xE0 SHL DUP2 MSTORE PUSH1 0x4 ADD PUSH1 0x20 PUSH1 0x40 MLOAD DUP1 DUP4 SUB DUP2 DUP7 GAS STATICCALL ISZERO DUP1 ISZERO PUSH2 0xFDC JUMPI RETURNDATASIZE PUSH0 DUP1 RETURNDATACOPY RETURNDATASIZE PUSH0 REVERT JUMPDEST POP POP POP POP PUSH1 0x40 MLOAD RETURNDATASIZE PUSH1 0x1F NOT PUSH1 0x1F DUP3 ADD AND DUP3 ADD DUP1 PUSH1 0x40 MSTORE POP DUP2 ADD SWAP1 PUSH2 0x1000 SWAP2 SWAP1 PUSH2 0x3AAC JUMP JUMPDEST CALLER PUSH1 0x40 MLOAD DUP4 PUSH4 0xFFFFFFFF AND PUSH1 0xE0 SHL DUP2 MSTORE PUSH1 0x4 ADD PUSH2 0x101E SWAP3 SWAP2 SWAP1 PUSH2 0x3AE6 JUMP JUMPDEST PUSH1 0x20 PUSH1 0x40 MLOAD DUP1 DUP4 SUB DUP2 DUP7 GAS STATICCALL ISZERO DUP1 ISZERO PUSH2 0x1039 JUMPI RETURNDATASIZE PUSH0 DUP1 RETURNDATACOPY RETURNDATASIZE PUSH0 REVERT JUMPDEST POP POP POP POP PUSH1 0x40 MLOAD RETURNDATASIZE PUSH1 0x1F NOT PUSH1 0x1F DUP3 ADD AND DUP3 ADD DUP1 PUSH1 0x40 MSTORE POP DUP2 ADD SWAP1 PUSH2 0x105D SWAP2 SWAP1 PUSH2 0x3B37 JUMP JUMPDEST PUSH2 0x109C JUMPI PUSH1 0x40 MLOAD PUSH32 0x8C379A000000000000000000000000000000000000000000000000000000000 DUP2 MSTORE PUSH1 0x4 ADD PUSH2 0x1093 SWAP1 PUSH2 0x3BAC JUMP JUMPDEST PUSH1 0x40 MLOAD DUP1 SWAP2 SUB SWAP1 REVERT JUMPDEST PUSH2 0x10A4 PUSH2 0x315D JUMP JUMPDEST JUMP JUMPDEST PUSH1 0x7 PUSH1 0x20 MSTORE DUP2 PUSH0 MSTORE PUSH1 0x40 PUSH0 KECCAK256 DUP2 DUP2 SLOAD DUP2 LT PUSH2 0x10BF JUMPI PUSH0 DUP1 REVERT JUMPDEST SWAP1 PUSH0 MSTORE PUSH1 0x20 PUSH0 KECCAK256 ADD PUSH0 SWAP2 POP SWAP2 POP POP SLOAD DUP2 JUMP JUMPDEST PUSH1 0x1 PUSH0 SWAP1 SLOAD SWAP1 PUSH2 0x100 EXP SWAP1 DIV PUSH20 0xFFFFFFFFFFFFFFFFFFFFFFFFFFFFFFFFFFFFFFFF AND DUP2 JUMP JUMPDEST PUSH2 0x10FE PUSH2 0x3042 JUMP JUMPDEST PUSH0 PUSH1 0x1 SWAP1 SLOAD SWAP1 PUSH2 0x100 EXP SWAP1 DIV PUSH20 0xFFFFFFFFFFFFFFFFFFFFFFFFFFFFFFFFFFFFFFFF AND PUSH20 0xFFFFFFFFFFFFFFFFFFFFFFFFFFFFFFFFFFFFFFFF AND PUSH4 0x91D14854 PUSH0 PUSH1 0x1 SWAP1 SLOAD SWAP1 PUSH2 0x100 EXP SWAP1 DIV PUSH20 0xFFFFFFFFFFFFFFFFFFFFFFFFFFFFFFFFFFFFFFFF AND PUSH20 0xFFFFFFFFFFFFFFFFFFFFFFFFFFFFFFFFFFFFFFFF AND PUSH4 0x98E4ABB5 PUSH1 0x40 MLOAD DUP2 PUSH4 0xFFFFFFFF AND PUSH1 0xE0 SHL DUP2 MSTORE PUSH1 0x4 ADD PUSH1 0x20 PUSH1 0x40 MLOAD DUP1 DUP4 SUB DUP2 DUP7 GAS STATICCALL ISZERO DUP1 ISZERO PUSH2 0x11A5 JUMPI RETURNDATASIZE PUSH0 DUP1 RETURNDATACOPY RETURNDATASIZE PUSH0 REVERT JUMPDEST POP POP POP POP PUSH1 0x40 MLOAD RETURNDATASIZE PUSH1 0x1F NOT PUSH1 0x1F DUP3 ADD AND DUP3 ADD DUP1 PUSH1 0x40 MSTORE POP DUP2 ADD SWAP1 PUSH2 0x11C9 SWAP2 SWAP1 PUSH2 0x3AAC JUMP JUMPDEST CALLER PUSH1 0x40 MLOAD DUP4 PUSH4 0xFFFFFFFF AND PUSH1 0xE0 SHL DUP2 MSTORE PUSH1 0x4 ADD PUSH2 0x11E7 SWAP3 SWAP2 SWAP1 PUSH2 0x3AE6 JUMP JUMPDEST PUSH1 0x20 PUSH1 0x40 MLOAD DUP1 DUP4 SUB DUP2 DUP7 GAS STATICCALL ISZERO DUP1 ISZERO PUSH2 0x1202 JUMPI RETURNDATASIZE PUSH0 DUP1 RETURNDATACOPY RETURNDATASIZE PUSH0 REVERT JUMPDEST POP POP POP POP PUSH1 0x40 MLOAD RETURNDATASIZE PUSH1 0x1F NOT PUSH1 0x1F DUP3 ADD AND DUP3 ADD DUP1 PUSH1 0x40 MSTORE POP DUP2 ADD SWAP1 PUSH2 0x1226 SWAP2 SWAP1 PUSH2 0x3B37 JUMP JUMPDEST PUSH2 0x1265 JUMPI PUSH1 0x40 MLOAD PUSH32 0x8C379A000000000000000000000000000000000000000000000000000000000 DUP2 MSTORE PUSH1 0x4 ADD PUSH2 0x125C SWAP1 PUSH2 0x3E22 JUMP JUMPDEST PUSH1 0x40 MLOAD DUP1 SWAP2 SUB SWAP1 REVERT JUMPDEST PUSH1 0x4 PUSH0 DUP4 DUP2 MSTORE PUSH1 0x20 ADD SWAP1 DUP2 MSTORE PUSH1 0x20 ADD PUSH0 KECCAK256 PUSH1 0x9 ADD PUSH0 SWAP1 SLOAD SWAP1 PUSH2 0x100 EXP SWAP1 DIV PUSH1 0xFF AND PUSH2 0x12C5 JUMPI PUSH1 0x40 MLOAD PUSH32 0x8C379A000000000000000000000000000000000000000000000000000000000 DUP2 MSTORE PUSH1 0x4 ADD PUSH2 0x12BC SWAP1 PUSH2 0x3D4C JUMP JUMPDEST PUSH1 0x40 MLOAD DUP1 SWAP2 SUB SWAP1 REVERT JUMPDEST PUSH0 DUP1 PUSH0 PUSH1 0x1 PUSH0 SWAP1 SLOAD SWAP1 PUSH2 0x100 EXP SWAP1 DIV PUSH20 0xFFFFFFFFFFFFFFFFFFFFFFFFFFFFFFFFFFFFFFFF AND PUSH20 0xFFFFFFFFFFFFFFFFFFFFFFFFFFFFFFFFFFFFFFFF AND PUSH4 0xFF91E489 DUP6 PUSH1 0x40 MLOAD DUP3 PUSH4 0xFFFFFFFF AND PUSH1 0xE0 SHL DUP2 MSTORE PUSH1 0x4 ADD PUSH2 0x1322 SWAP2 SWAP1 PUSH2 0x35EB JUMP JUMPDEST PUSH1 0xC0 PUSH1 0x40 MLOAD DUP1 DUP4 SUB DUP2 DUP7 GAS STATICCALL ISZERO DUP1 ISZERO PUSH2 0x133D JUMPI RETURNDATASIZE PUSH0 DUP1 RETURNDATACOPY RETURNDATASIZE PUSH0 REVERT JUMPDEST POP POP POP POP PUSH1 0x40 MLOAD RETURNDATASIZE PUSH1 0x1F NOT PUSH1 0x1F DUP3 ADD AND DUP3 ADD DUP1 PUSH1 0x40 MSTORE POP DUP2 ADD SWAP1 PUSH2 0x1361 SWAP2 SWAP1 PUSH2 0x3E7E JUMP JUMPDEST POP SWAP5 POP SWAP5 POP POP SWAP4 POP POP CALLER PUSH20 0xFFFFFFFFFFFFFFFFFFFFFFFFFFFFFFFFFFFFFFFF AND DUP4 PUSH20 0xFFFFFFFFFFFFFFFFFFFFFFFFFFFFFFFFFFFFFFFF AND EQ PUSH2 0x13D8 JUMPI PUSH1 0x40 MLOAD PUSH32 0x8C379A000000000000000000000000000000000000000000000000000000000 DUP2 MSTORE PUSH1 0x4 ADD PUSH2 0x13CF SWAP1 PUSH2 0x3F51 JUMP JUMPDEST PUSH1 0x40 MLOAD DUP1 SWAP2 SUB SWAP1 REVERT JUMPDEST DUP1 ISZERO PUSH2 0x1419 JUMPI PUSH1 0x40 MLOAD PUSH32 0x8C379A000000000000000000000000000000000000000000000000000000000 DUP2 MSTORE PUSH1 0x4 ADD PUSH2 0x1410 SWAP1 PUSH2 0x3FB9 JUMP JUMPDEST PUSH1 0x40 MLOAD DUP1 SWAP2 SUB SWAP1 REVERT JUMPDEST PUSH0 PUSH1 0x3 SLOAD PUSH1 0x4 PUSH0 DUP9 DUP2 MSTORE PUSH1 0x20 ADD SWAP1 DUP2 MSTORE PUSH1 0x20 ADD PUSH0 KECCAK256 PUSH1 0x8 ADD SLOAD DUP5 PUSH2 0x143D SWAP2 SWAP1 PUSH2 0x4004 JUMP JUMPDEST PUSH2 0x1447 SWAP2 SWAP1 PUSH2 0x4004 JUMP JUMPDEST SWAP1 POP PUSH1 0x64 DUP2 GT ISZERO PUSH2 0x148D JUMPI PUSH1 0x40 MLOAD PUSH32 0x8C379A000000000000000000000000000000000000000000000000000000000 DUP2 MSTORE PUSH1 0x4 ADD PUSH2 0x1484 SWAP1 PUSH2 0x4081 JUMP JUMPDEST PUSH1 0x40 MLOAD DUP1 SWAP2 SUB SWAP1 REVERT JUMPDEST PUSH1 0x40 MLOAD DUP1 PUSH1 0xA0 ADD PUSH1 0x40 MSTORE DUP1 DUP7 DUP2 MSTORE PUSH1 0x20 ADD CALLER PUSH20 0xFFFFFFFFFFFFFFFFFFFFFFFFFFFFFFFFFFFFFFFF AND DUP2 MSTORE PUSH1 0x20 ADD DUP5 DUP2 MSTORE PUSH1 0x20 ADD PUSH1 0x1 ISZERO ISZERO DUP2 MSTORE PUSH1 0x20 ADD PUSH0 ISZERO ISZERO DUP2 MSTORE POP PUSH1 0x6 PUSH0 DUP9 DUP2 MSTORE PUSH1 0x20 ADD SWAP1 DUP2 MSTORE PUSH1 0x20 ADD PUSH0 KECCAK256 PUSH0 DUP8 DUP2 MSTORE PUSH1 0x20 ADD SWAP1 DUP2 MSTORE PUSH1 0x20 ADD PUSH0 KECCAK256 PUSH0 DUP3 ADD MLOAD DUP2 PUSH0 ADD SSTORE PUSH1 0x20 DUP3 ADD MLOAD DUP2 PUSH1 0x1 ADD PUSH0 PUSH2 0x100 EXP DUP2 SLOAD DUP2 PUSH20 0xFFFFFFFFFFFFFFFFFFFFFFFFFFFFFFFFFFFFFFFF MUL NOT AND SWAP1 DUP4 PUSH20 0xFFFFFFFFFFFFFFFFFFFFFFFFFFFFFFFFFFFFFFFF AND MUL OR SWAP1 SSTORE POP PUSH1 0x40 DUP3 ADD MLOAD DUP2 PUSH1 0x2 ADD SSTORE PUSH1 0x60 DUP3 ADD MLOAD DUP2 PUSH1 0x3 ADD PUSH0 PUSH2 0x100 EXP DUP2 SLOAD DUP2 PUSH1 0xFF MUL NOT AND SWAP1 DUP4 ISZERO ISZERO MUL OR SWAP1 SSTORE POP PUSH1 0x80 DUP3 ADD MLOAD DUP2 PUSH1 0x3 ADD PUSH1 0x1 PUSH2 0x100 EXP DUP2 SLOAD DUP2 PUSH1 0xFF MUL NOT AND SWAP1 DUP4 ISZERO ISZERO MUL OR SWAP1 SSTORE POP SWAP1 POP POP CALLER PUSH20 0xFFFFFFFFFFFFFFFFFFFFFFFFFFFFFFFFFFFFFFFF AND DUP6 DUP8 PUSH32 0x83FD119663C1D37D19F3FD2CFDD3B77CF9A048037DC45CEC86D017FA4ED6FBA8 PUSH1 0x40 MLOAD PUSH1 0x40 MLOAD DUP1 SWAP2 SUB SWAP1 LOG4 POP POP POP POP POP POP JUMP JUMPDEST PUSH1 0x60 PUSH1 0x4 PUSH0 DUP4 DUP2 MSTORE PUSH1 0x20 ADD SWAP1 DUP2 MSTORE PUSH1 0x20 ADD PUSH0 KECCAK256 PUSH1 0x9 ADD PUSH0 SWAP1 SLOAD SWAP1 PUSH2 0x100 EXP SWAP1 DIV PUSH1 0xFF AND PUSH2 0x1638 JUMPI PUSH1 0x40 MLOAD PUSH32 0x8C379A000000000000000000000000000000000000000000000000000000000 DUP2 MSTORE PUSH1 0x4 ADD PUSH2 0x162F SWAP1 PUSH2 0x3D4C JUMP JUMPDEST PUSH1 0x40 MLOAD DUP1 SWAP2 SUB SWAP1 REVERT JUMPDEST PUSH1 0x7 PUSH0 DUP4 DUP2 MSTORE PUSH1 0x20 ADD SWAP1 DUP2 MSTORE PUSH1 0x20 ADD PUSH0 KECCAK256 DUP1 SLOAD DUP1 PUSH1 0x20 MUL PUSH1 0x20 ADD PUSH1 0x40 MLOAD SWAP1 DUP2 ADD PUSH1 0x40 MSTORE DUP1 SWAP3 SWAP2 SWAP1 DUP2 DUP2 MSTORE PUSH1 0x20 ADD DUP3 DUP1 SLOAD DUP1 ISZERO PUSH2 0x1691 JUMPI PUSH1 0x20 MUL DUP3 ADD SWAP2 SWAP1 PUSH0 MSTORE PUSH1 0x20 PUSH0 KECCAK256 SWAP1 JUMPDEST DUP2 SLOAD DUP2 MSTORE PUSH1 0x20 ADD SWAP1 PUSH1 0x1 ADD SWAP1 DUP1 DUP4 GT PUSH2 0x167D JUMPI JUMPDEST POP POP POP POP POP SWAP1 POP SWAP2 SWAP1 POP JUMP JUMPDEST PUSH0 PUSH1 0x1 SWAP1 SLOAD SWAP1 PUSH2 0x100 EXP SWAP1 DIV PUSH20 0xFFFFFFFFFFFFFFFFFFFFFFFFFFFFFFFFFFFFFFFF AND PUSH20 0xFFFFFFFFFFFFFFFFFFFFFFFFFFFFFFFFFFFFFFFF AND PUSH4 0x91D14854 PUSH0 PUSH1 0x1 SWAP1 SLOAD SWAP1 PUSH2 0x100 EXP SWAP1 DIV PUSH20 0xFFFFFFFFFFFFFFFFFFFFFFFFFFFFFFFFFFFFFFFF AND PUSH20 0xFFFFFFFFFFFFFFFFFFFFFFFFFFFFFFFFFFFFFFFF AND PUSH4 0x75B238FC PUSH1 0x40 MLOAD DUP2 PUSH4 0xFFFFFFFF AND PUSH1 0xE0 SHL DUP2 MSTORE PUSH1 0x4 ADD PUSH1 0x20 PUSH1 0x40 MLOAD DUP1 DUP4 SUB DUP2 DUP7 GAS STATICCALL ISZERO DUP1 ISZERO PUSH2 0x1744 JUMPI RETURNDATASIZE PUSH0 DUP1 RETURNDATACOPY RETURNDATASIZE PUSH0 REVERT JUMPDEST POP POP POP POP PUSH1 0x40 MLOAD RETURNDATASIZE PUSH1 0x1F NOT PUSH1 0x1F DUP3 ADD AND DUP3 ADD DUP1 PUSH1 0x40 MSTORE POP DUP2 ADD SWAP1 PUSH2 0x1768 SWAP2 SWAP1 PUSH2 0x3AAC JUMP JUMPDEST CALLER PUSH1 0x40 MLOAD DUP4 PUSH4 0xFFFFFFFF AND PUSH1 0xE0 SHL DUP2 MSTORE PUSH1 0x4 ADD PUSH2 0x1786 SWAP3 SWAP2 SWAP1 PUSH2 0x3AE6 JUMP JUMPDEST PUSH1 0x20 PUSH1 0x40 MLOAD DUP1 DUP4 SUB DUP2 DUP7 GAS STATICCALL ISZERO DUP1 ISZERO PUSH2 0x17A1 JUMPI RETURNDATASIZE PUSH0 DUP1 RETURNDATACOPY RETURNDATASIZE PUSH0 REVERT JUMPDEST POP POP POP POP PUSH1 0x40 MLOAD RETURNDATASIZE PUSH1 0x1F NOT PUSH1 0x1F DUP3 ADD AND DUP3 ADD DUP1 PUSH1 0x40 MSTORE POP DUP2 ADD SWAP1 PUSH2 0x17C5 SWAP2 SWAP1 PUSH2 0x3B37 JUMP JUMPDEST PUSH2 0x1804 JUMPI PUSH1 0x40 MLOAD PUSH32 0x8C379A000000000000000000000000000000000000000000000000000000000 DUP2 MSTORE PUSH1 0x4 ADD PUSH2 0x17FB SWAP1 PUSH2 0x3BAC JUMP JUMPDEST PUSH1 0x40 MLOAD DUP1 SWAP2 SUB SWAP1 REVERT JUMPDEST PUSH2 0x180C PUSH2 0x3042 JUMP JUMPDEST PUSH0 PUSH1 0x5 PUSH0 DUP4 DUP2 MSTORE PUSH1 0x20 ADD SWAP1 DUP2 MSTORE PUSH1 0x20 ADD PUSH0 KECCAK256 SWAP1 POP DUP1 PUSH1 0x8 ADD PUSH0 SWAP1 SLOAD SWAP1 PUSH2 0x100 EXP SWAP1 DIV PUSH1 0xFF AND PUSH2 0x1870 JUMPI PUSH1 0x40 MLOAD PUSH32 0x8C379A000000000000000000000000000000000000000000000000000000000 DUP2 MSTORE PUSH1 0x4 ADD PUSH2 0x1867 SWAP1 PUSH2 0x3CE4 JUMP JUMPDEST PUSH1 0x40 MLOAD DUP1 SWAP2 SUB SWAP1 REVERT JUMPDEST PUSH0 DUP2 PUSH1 0x8 ADD PUSH0 PUSH2 0x100 EXP DUP2 SLOAD DUP2 PUSH1 0xFF MUL NOT AND SWAP1 DUP4 ISZERO ISZERO MUL OR SWAP1 SSTORE POP PUSH0 DUP2 PUSH1 0x8 ADD PUSH1 0x1 PUSH2 0x100 EXP DUP2 SLOAD DUP2 PUSH1 0xFF MUL NOT AND SWAP1 DUP4 ISZERO ISZERO MUL OR SWAP1 SSTORE POP DUP2 PUSH32 0x2066478E278F4D976DF7F644BAD66CBE88CE3249C27A53C746FC078510100C3 PUSH1 0x40 MLOAD PUSH1 0x40 MLOAD DUP1 SWAP2 SUB SWAP1 LOG2 POP POP JUMP JUMPDEST PUSH2 0x18E0 PUSH2 0x3042 JUMP JUMPDEST PUSH0 PUSH1 0x1 SWAP1 SLOAD SWAP1 PUSH2 0x100 EXP SWAP1 DIV PUSH20 0xFFFFFFFFFFFFFFFFFFFFFFFFFFFFFFFFFFFFFFFF AND PUSH20 0xFFFFFFFFFFFFFFFFFFFFFFFFFFFFFFFFFFFFFFFF AND PUSH4 0x91D14854 PUSH0 PUSH1 0x1 SWAP1 SLOAD SWAP1 PUSH2 0x100 EXP SWAP1 DIV PUSH20 0xFFFFFFFFFFFFFFFFFFFFFFFFFFFFFFFFFFFFFFFF AND PUSH20 0xFFFFFFFFFFFFFFFFFFFFFFFFFFFFFFFFFFFFFFFF AND PUSH4 0x78988EBD PUSH1 0x40 MLOAD DUP2 PUSH4 0xFFFFFFFF AND PUSH1 0xE0 SHL DUP2 MSTORE PUSH1 0x4 ADD PUSH1 0x20 PUSH1 0x40 MLOAD DUP1 DUP4 SUB DUP2 DUP7 GAS STATICCALL ISZERO DUP1 ISZERO PUSH2 0x1987 JUMPI RETURNDATASIZE PUSH0 DUP1 RETURNDATACOPY RETURNDATASIZE PUSH0 REVERT JUMPDEST POP POP POP POP PUSH1 0x40 MLOAD RETURNDATASIZE PUSH1 0x1F NOT PUSH1 0x1F DUP3 ADD AND DUP3 ADD DUP1 PUSH1 0x40 MSTORE POP DUP2 ADD SWAP1 PUSH2 0x19AB SWAP2 SWAP1 PUSH2 0x3AAC JUMP JUMPDEST CALLER PUSH1 0x40 MLOAD DUP4 PUSH4 0xFFFFFFFF AND PUSH1 0xE0 SHL DUP2 MSTORE PUSH1 0x4 ADD PUSH2 0x19C9 SWAP3 SWAP2 SWAP1 PUSH2 0x3AE6 JUMP JUMPDEST PUSH1 0x20 PUSH1 0x40 MLOAD DUP1 DUP4 SUB DUP2 DUP7 GAS STATICCALL ISZERO DUP1 ISZERO PUSH2 0x19E4 JUMPI RETURNDATASIZE PUSH0 DUP1 RETURNDATACOPY RETURNDATASIZE PUSH0 REVERT JUMPDEST POP POP POP POP PUSH1 0x40 MLOAD RETURNDATASIZE PUSH1 0x1F NOT PUSH1 0x1F DUP3 ADD AND DUP3 ADD DUP1 PUSH1 0x40 MSTORE POP DUP2 ADD SWAP1 PUSH2 0x1A08 SWAP2 SWAP1 PUSH2 0x3B37 JUMP JUMPDEST PUSH2 0x1A47 JUMPI PUSH1 0x40 MLOAD PUSH32 0x8C379A000000000000000000000000000000000000000000000000000000000 DUP2 MSTORE PUSH1 0x4 ADD PUSH2 0x1A3E SWAP1 PUSH2 0x40E9 JUMP JUMPDEST PUSH1 0x40 MLOAD DUP1 SWAP2 SUB SWAP1 REVERT JUMPDEST PUSH0 DUP2 DUP1 PUSH0 ADD SWAP1 PUSH2 0x1A57 SWAP2 SWAP1 PUSH2 0x4113 JUMP JUMPDEST SWAP1 POP GT PUSH2 0x1A99 JUMPI PUSH1 0x40 MLOAD PUSH32 0x8C379A000000000000000000000000000000000000000000000000000000000 DUP2 MSTORE PUSH1 0x4 ADD PUSH2 0x1A90 SWAP1 PUSH2 0x41BF JUMP JUMPDEST PUSH1 0x40 MLOAD DUP1 SWAP2 SUB SWAP1 REVERT JUMPDEST PUSH1 0x32 DUP2 PUSH1 0xC0 ADD CALLDATALOAD GT ISZERO PUSH2 0x1AE1 JUMPI PUSH1 0x40 MLOAD PUSH32 0x8C379A000000000000000000000000000000000000000000000000000000000 DUP2 MSTORE PUSH1 0x4 ADD PUSH2 0x1AD8 SWAP1 PUSH2 0x4227 JUMP JUMPDEST PUSH1 0x40 MLOAD DUP1 SWAP2 SUB SWAP1 REVERT JUMPDEST PUSH0 PUSH2 0x1AEC PUSH1 0x2 PUSH2 0x31BE JUMP JUMPDEST SWAP1 POP PUSH2 0x1AF8 PUSH1 0x2 PUSH2 0x31CA JUMP JUMPDEST PUSH0 PUSH1 0x40 MLOAD DUP1 PUSH1 0x80 ADD PUSH1 0x40 MSTORE DUP1 DUP5 DUP1 PUSH1 0x40 ADD SWAP1 PUSH2 0x1B14 SWAP2 SWAP1 PUSH2 0x4113 JUMP JUMPDEST DUP1 DUP1 PUSH1 0x1F ADD PUSH1 0x20 DUP1 SWAP2 DIV MUL PUSH1 0x20 ADD PUSH1 0x40 MLOAD SWAP1 DUP2 ADD PUSH1 0x40 MSTORE DUP1 SWAP4 SWAP3 SWAP2 SWAP1 DUP2 DUP2 MSTORE PUSH1 0x20 ADD DUP4 DUP4 DUP1 DUP3 DUP5 CALLDATACOPY PUSH0 DUP2 DUP5 ADD MSTORE PUSH1 0x1F NOT PUSH1 0x1F DUP3 ADD AND SWAP1 POP DUP1 DUP4 ADD SWAP3 POP POP POP POP POP POP POP DUP2 MSTORE PUSH1 0x20 ADD DUP5 DUP1 PUSH1 0x60 ADD SWAP1 PUSH2 0x1B6B SWAP2 SWAP1 PUSH2 0x4113 JUMP JUMPDEST DUP1 DUP1 PUSH1 0x1F ADD PUSH1 0x20 DUP1 SWAP2 DIV MUL PUSH1 0x20 ADD PUSH1 0x40 MLOAD SWAP1 DUP2 ADD PUSH1 0x40 MSTORE DUP1 SWAP4 SWAP3 SWAP2 SWAP1 DUP2 DUP2 MSTORE PUSH1 0x20 ADD DUP4 DUP4 DUP1 DUP3 DUP5 CALLDATACOPY PUSH0 DUP2 DUP5 ADD MSTORE PUSH1 0x1F NOT PUSH1 0x1F DUP3 ADD AND SWAP1 POP DUP1 DUP4 ADD SWAP3 POP POP POP POP POP POP POP DUP2 MSTORE PUSH1 0x20 ADD DUP5 PUSH1 0x80 ADD CALLDATALOAD DUP2 MSTORE PUSH1 0x20 ADD DUP5 PUSH1 0xA0 ADD CALLDATALOAD DUP2 MSTORE POP SWAP1 POP PUSH1 0x40 MLOAD DUP1 PUSH1 0xE0 ADD PUSH1 0x40 MSTORE DUP1 CALLER PUSH20 0xFFFFFFFFFFFFFFFFFFFFFFFFFFFFFFFFFFFFFFFF AND DUP2 MSTORE PUSH1 0x20 ADD DUP5 DUP1 PUSH0 ADD SWAP1 PUSH2 0x1BFC SWAP2 SWAP1 PUSH2 0x4113 JUMP JUMPDEST DUP1 DUP1 PUSH1 0x1F ADD PUSH1 0x20 DUP1 SWAP2 DIV MUL PUSH1 0x20 ADD PUSH1 0x40 MLOAD SWAP1 DUP2 ADD PUSH1 0x40 MSTORE DUP1 SWAP4 SWAP3 SWAP2 SWAP1 DUP2 DUP2 MSTORE PUSH1 0x20 ADD DUP4 DUP4 DUP1 DUP3 DUP5 CALLDATACOPY PUSH0 DUP2 DUP5 ADD MSTORE PUSH1 0x1F NOT PUSH1 0x1F DUP3 ADD AND SWAP1 POP DUP1 DUP4 ADD SWAP3 POP POP POP POP POP POP POP DUP2 MSTORE PUSH1 0x20 ADD DUP5 DUP1 PUSH1 0x20 ADD SWAP1 PUSH2 0x1C53 SWAP2 SWAP1 PUSH2 0x4113 JUMP JUMPDEST DUP1 DUP1 PUSH1 0x1F ADD PUSH1 0x20 DUP1 SWAP2 DIV MUL PUSH1 0x20 ADD PUSH1 0x40 MLOAD SWAP1 DUP2 ADD PUSH1 0x40 MSTORE DUP1 SWAP4 SWAP3 SWAP2 SWAP1 DUP2 DUP2 MSTORE PUSH1 0x20 ADD DUP4 DUP4 DUP1 DUP3 DUP5 CALLDATACOPY PUSH0 DUP2 DUP5 ADD MSTORE PUSH1 0x1F NOT PUSH1 0x1F DUP3 ADD AND SWAP1 POP DUP1 DUP4 ADD SWAP3 POP POP POP POP POP POP POP DUP2 MSTORE PUSH1 0x20 ADD DUP3 DUP2 MSTORE PUSH1 0x20 ADD DUP5 PUSH1 0xC0 ADD CALLDATALOAD DUP2 MSTORE PUSH1 0x20 ADD PUSH1 0x1 ISZERO ISZERO DUP2 MSTORE PUSH1 0x20 ADD PUSH0 ISZERO ISZERO DUP2 MSTORE POP PUSH1 0x5 PUSH0 DUP5 DUP2 MSTORE PUSH1 0x20 ADD SWAP1 DUP2 MSTORE PUSH1 0x20 ADD PUSH0 KECCAK256 PUSH0 DUP3 ADD MLOAD DUP2 PUSH0 ADD PUSH0 PUSH2 0x100 EXP DUP2 SLOAD DUP2 PUSH20 0xFFFFFFFFFFFFFFFFFFFFFFFFFFFFFFFFFFFFFFFF MUL NOT AND SWAP1 DUP4 PUSH20 0xFFFFFFFFFFFFFFFFFFFFFFFFFFFFFFFFFFFFFFFF AND MUL OR SWAP1 SSTORE POP PUSH1 0x20 DUP3 ADD MLOAD DUP2 PUSH1 0x1 ADD SWAP1 DUP2 PUSH2 0x1D23 SWAP2 SWAP1 PUSH2 0x4406 JUMP JUMPDEST POP PUSH1 0x40 DUP3 ADD MLOAD DUP2 PUSH1 0x2 ADD SWAP1 DUP2 PUSH2 0x1D39 SWAP2 SWAP1 PUSH2 0x4406 JUMP JUMPDEST POP PUSH1 0x60 DUP3 ADD MLOAD DUP2 PUSH1 0x3 ADD PUSH0 DUP3 ADD MLOAD DUP2 PUSH0 ADD SWAP1 DUP2 PUSH2 0x1D56 SWAP2 SWAP1 PUSH2 0x4406 JUMP JUMPDEST POP PUSH1 0x20 DUP3 ADD MLOAD DUP2 PUSH1 0x1 ADD SWAP1 DUP2 PUSH2 0x1D6C SWAP2 SWAP1 PUSH2 0x4406 JUMP JUMPDEST POP PUSH1 0x40 DUP3 ADD MLOAD DUP2 PUSH1 0x2 ADD SSTORE PUSH1 0x60 DUP3 ADD MLOAD DUP2 PUSH1 0x3 ADD SSTORE POP POP PUSH1 0x80 DUP3 ADD MLOAD DUP2 PUSH1 0x7 ADD SSTORE PUSH1 0xA0 DUP3 ADD MLOAD DUP2 PUSH1 0x8 ADD PUSH0 PUSH2 0x100 EXP DUP2 SLOAD DUP2 PUSH1 0xFF MUL NOT AND SWAP1 DUP4 ISZERO ISZERO MUL OR SWAP1 SSTORE POP PUSH1 0xC0 DUP3 ADD MLOAD DUP2 PUSH1 0x8 ADD PUSH1 0x1 PUSH2 0x100 EXP DUP2 SLOAD DUP2 PUSH1 0xFF MUL NOT AND SWAP1 DUP4 ISZERO ISZERO MUL OR SWAP1 SSTORE POP SWAP1 POP POP CALLER PUSH20 0xFFFFFFFFFFFFFFFFFFFFFFFFFFFFFFFFFFFFFFFF AND DUP3 PUSH32 0x64C62480238FCBB55F3F9DB41207D81ADB09B6A08336161AA728E4D6D398FEE8 PUSH1 0x40 MLOAD PUSH1 0x40 MLOAD DUP1 SWAP2 SUB SWAP1 LOG3 POP POP POP JUMP JUMPDEST PUSH2 0x1E20 PUSH2 0x322E JUMP JUMPDEST PUSH1 0x4 PUSH0 DUP4 DUP2 MSTORE PUSH1 0x20 ADD SWAP1 DUP2 MSTORE PUSH1 0x20 ADD PUSH0 KECCAK256 PUSH1 0x9 ADD PUSH0 SWAP1 SLOAD SWAP1 PUSH2 0x100 EXP SWAP1 DIV PUSH1 0xFF AND PUSH2 0x1E80 JUMPI PUSH1 0x40 MLOAD PUSH32 0x8C379A000000000000000000000000000000000000000000000000000000000 DUP2 MSTORE PUSH1 0x4 ADD PUSH2 0x1E77 SWAP1 PUSH2 0x3D4C JUMP JUMPDEST PUSH1 0x40 MLOAD DUP1 SWAP2 SUB SWAP1 REVERT JUMPDEST PUSH1 0x4 PUSH0 DUP4 DUP2 MSTORE PUSH1 0x20 ADD SWAP1 DUP2 MSTORE PUSH1 0x20 ADD PUSH0 KECCAK256 PUSH1 0x40 MLOAD DUP1 PUSH2 0x120 ADD PUSH1 0x40 MSTORE SWAP1 DUP2 PUSH0 DUP3 ADD SLOAD DUP2 MSTORE PUSH1 0x20 ADD PUSH1 0x1 DUP3 ADD DUP1 SLOAD PUSH2 0x1EB6 SWAP1 PUSH2 0x3A49 JUMP JUMPDEST DUP1 PUSH1 0x1F ADD PUSH1 0x20 DUP1 SWAP2 DIV MUL PUSH1 0x20 ADD PUSH1 0x40 MLOAD SWAP1 DUP2 ADD PUSH1 0x40 MSTORE DUP1 SWAP3 SWAP2 SWAP1 DUP2 DUP2 MSTORE PUSH1 0x20 ADD DUP3 DUP1 SLOAD PUSH2 0x1EE2 SWAP1 PUSH2 0x3A49 JUMP JUMPDEST DUP1 ISZERO PUSH2 0x1F2D JUMPI DUP1 PUSH1 0x1F LT PUSH2 0x1F04 JUMPI PUSH2 0x100 DUP1 DUP4 SLOAD DIV MUL DUP4 MSTORE SWAP2 PUSH1 0x20 ADD SWAP2 PUSH2 0x1F2D JUMP JUMPDEST DUP3 ADD SWAP2 SWAP1 PUSH0 MSTORE PUSH1 0x20 PUSH0 KECCAK256 SWAP1 JUMPDEST DUP2 SLOAD DUP2 MSTORE SWAP1 PUSH1 0x1 ADD SWAP1 PUSH1 0x20 ADD DUP1 DUP4 GT PUSH2 0x1F10 JUMPI DUP3 SWAP1 SUB PUSH1 0x1F AND DUP3 ADD SWAP2 JUMPDEST POP POP POP POP POP DUP2 MSTORE PUSH1 0x20 ADD PUSH1 0x2 DUP3 ADD DUP1 SLOAD PUSH2 0x1F46 SWAP1 PUSH2 0x3A49 JUMP JUMPDEST DUP1 PUSH1 0x1F ADD PUSH1 0x20 DUP1 SWAP2 DIV MUL PUSH1 0x20 ADD PUSH1 0x40 MLOAD SWAP1 DUP2 ADD PUSH1 0x40 MSTORE DUP1 SWAP3 SWAP2 SWAP1 DUP2 DUP2 MSTORE PUSH1 0x20 ADD DUP3 DUP1 SLOAD PUSH2 0x1F72 SWAP1 PUSH2 0x3A49 JUMP JUMPDEST DUP1 ISZERO PUSH2 0x1FBD JUMPI DUP1 PUSH1 0x1F LT PUSH2 0x1F94 JUMPI PUSH2 0x100 DUP1 DUP4 SLOAD DIV MUL DUP4 MSTORE SWAP2 PUSH1 0x20 ADD SWAP2 PUSH2 0x1FBD JUMP JUMPDEST DUP3 ADD SWAP2 SWAP1 PUSH0 MSTORE PUSH1 0x20 PUSH0 KECCAK256 SWAP1 JUMPDEST DUP2 SLOAD DUP2 MSTORE SWAP1 PUSH1 0x1 ADD SWAP1 PUSH1 0x20 ADD DUP1 DUP4 GT PUSH2 0x1FA0 JUMPI DUP3 SWAP1 SUB PUSH1 0x1F AND DUP3 ADD SWAP2 JUMPDEST POP POP POP POP POP DUP2 MSTORE PUSH1 0x20 ADD PUSH1 0x3 DUP3 ADD PUSH1 0x40 MLOAD DUP1 PUSH1 0x80 ADD PUSH1 0x40 MSTORE SWAP1 DUP2 PUSH0 DUP3 ADD DUP1 SLOAD PUSH2 0x1FE5 SWAP1 PUSH2 0x3A49 JUMP JUMPDEST DUP1 PUSH1 0x1F ADD PUSH1 0x20 DUP1 SWAP2 DIV MUL PUSH1 0x20 ADD PUSH1 0x40 MLOAD SWAP1 DUP2 ADD PUSH1 0x40 MSTORE DUP1 SWAP3 SWAP2 SWAP1 DUP2 DUP2 MSTORE PUSH1 0x20 ADD DUP3 DUP1 SLOAD PUSH2 0x2011 SWAP1 PUSH2 0x3A49 JUMP JUMPDEST DUP1 ISZERO PUSH2 0x205C JUMPI DUP1 PUSH1 0x1F LT PUSH2 0x2033 JUMPI PUSH2 0x100 DUP1 DUP4 SLOAD DIV MUL DUP4 MSTORE SWAP2 PUSH1 0x20 ADD SWAP2 PUSH2 0x205C JUMP JUMPDEST DUP3 ADD SWAP2 SWAP1 PUSH0 MSTORE PUSH1 0x20 PUSH0 KECCAK256 SWAP1 JUMPDEST DUP2 SLOAD DUP2 MSTORE SWAP1 PUSH1 0x1 ADD SWAP1 PUSH1 0x20 ADD DUP1 DUP4 GT PUSH2 0x203F JUMPI DUP3 SWAP1 SUB PUSH1 0x1F AND DUP3 ADD SWAP2 JUMPDEST POP POP POP POP POP DUP2 MSTORE PUSH1 0x20 ADD PUSH1 0x1 DUP3 ADD DUP1 SLOAD PUSH2 0x2075 SWAP1 PUSH2 0x3A49 JUMP JUMPDEST DUP1 PUSH1 0x1F ADD PUSH1 0x20 DUP1 SWAP2 DIV MUL PUSH1 0x20 ADD PUSH1 0x40 MLOAD SWAP1 DUP2 ADD PUSH1 0x40 MSTORE DUP1 SWAP3 SWAP2 SWAP1 DUP2 DUP2 MSTORE PUSH1 0x20 ADD DUP3 DUP1 SLOAD PUSH2 0x20A1 SWAP1 PUSH2 0x3A49 JUMP JUMPDEST DUP1 ISZERO PUSH2 0x20EC JUMPI DUP1 PUSH1 0x1F LT PUSH2 0x20C3 JUMPI PUSH2 0x100 DUP1 DUP4 SLOAD DIV MUL DUP4 MSTORE SWAP2 PUSH1 0x20 ADD SWAP2 PUSH2 0x20EC JUMP JUMPDEST DUP3 ADD SWAP2 SWAP1 PUSH0 MSTORE PUSH1 0x20 PUSH0 KECCAK256 SWAP1 JUMPDEST DUP2 SLOAD DUP2 MSTORE SWAP1 PUSH1 0x1 ADD SWAP1 PUSH1 0x20 ADD DUP1 DUP4 GT PUSH2 0x20CF JUMPI DUP3 SWAP1 SUB PUSH1 0x1F AND DUP3 ADD SWAP2 JUMPDEST POP POP POP POP POP DUP2 MSTORE PUSH1 0x20 ADD PUSH1 0x2 DUP3 ADD SLOAD DUP2 MSTORE PUSH1 0x20 ADD PUSH1 0x3 DUP3 ADD SLOAD DUP2 MSTORE POP POP DUP2 MSTORE PUSH1 0x20 ADD PUSH1 0x7 DUP3 ADD PUSH0 SWAP1 SLOAD SWAP1 PUSH2 0x100 EXP SWAP1 DIV PUSH20 0xFFFFFFFFFFFFFFFFFFFFFFFFFFFFFFFFFFFFFFFF AND PUSH20 0xFFFFFFFFFFFFFFFFFFFFFFFFFFFFFFFFFFFFFFFF AND PUSH20 0xFFFFFFFFFFFFFFFFFFFFFFFFFFFFFFFFFFFFFFFF AND DUP2 MSTORE PUSH1 0x20 ADD PUSH1 0x8 DUP3 ADD SLOAD DUP2 MSTORE PUSH1 0x20 ADD PUSH1 0x9 DUP3 ADD PUSH0 SWAP1 SLOAD SWAP1 PUSH2 0x100 EXP SWAP1 DIV PUSH1 0xFF AND ISZERO ISZERO ISZERO ISZERO DUP2 MSTORE PUSH1 0x20 ADD PUSH1 0xA DUP3 ADD SLOAD DUP2 MSTORE PUSH1 0x20 ADD PUSH1 0xB DUP3 ADD SLOAD DUP2 MSTORE POP POP SWAP1 POP SWAP2 SWAP1 POP JUMP JUMPDEST PUSH1 0x5 PUSH1 0x20 MSTORE DUP1 PUSH0 MSTORE PUSH1 0x40 PUSH0 KECCAK256 PUSH0 SWAP2 POP SWAP1 POP DUP1 PUSH0 ADD PUSH0 SWAP1 SLOAD SWAP1 PUSH2 0x100 EXP SWAP1 DIV PUSH20 0xFFFFFFFFFFFFFFFFFFFFFFFFFFFFFFFFFFFFFFFF AND SWAP1 DUP1 PUSH1 0x1 ADD DUP1 SLOAD PUSH2 0x21E5 SWAP1 PUSH2 0x3A49 JUMP JUMPDEST DUP1 PUSH1 0x1F ADD PUSH1 0x20 DUP1 SWAP2 DIV MUL PUSH1 0x20 ADD PUSH1 0x40 MLOAD SWAP1 DUP2 ADD PUSH1 0x40 MSTORE DUP1 SWAP3 SWAP2 SWAP1 DUP2 DUP2 MSTORE PUSH1 0x20 ADD DUP3 DUP1 SLOAD PUSH2 0x2211 SWAP1 PUSH2 0x3A49 JUMP JUMPDEST DUP1 ISZERO PUSH2 0x225C JUMPI DUP1 PUSH1 0x1F LT PUSH2 0x2233 JUMPI PUSH2 0x100 DUP1 DUP4 SLOAD DIV MUL DUP4 MSTORE SWAP2 PUSH1 0x20 ADD SWAP2 PUSH2 0x225C JUMP JUMPDEST DUP3 ADD SWAP2 SWAP1 PUSH0 MSTORE PUSH1 0x20 PUSH0 KECCAK256 SWAP1 JUMPDEST DUP2 SLOAD DUP2 MSTORE SWAP1 PUSH1 0x1 ADD SWAP1 PUSH1 0x20 ADD DUP1 DUP4 GT PUSH2 0x223F JUMPI DUP3 SWAP1 SUB PUSH1 0x1F AND DUP3 ADD SWAP2 JUMPDEST POP POP POP POP POP SWAP1 DUP1 PUSH1 0x2 ADD DUP1 SLOAD PUSH2 0x2271 SWAP1 PUSH2 0x3A49 JUMP JUMPDEST DUP1 PUSH1 0x1F ADD PUSH1 0x20 DUP1 SWAP2 DIV MUL PUSH1 0x20 ADD PUSH1 0x40 MLOAD SWAP1 DUP2 ADD PUSH1 0x40 MSTORE DUP1 SWAP3 SWAP2 SWAP1 DUP2 DUP2 MSTORE PUSH1 0x20 ADD DUP3 DUP1 SLOAD PUSH2 0x229D SWAP1 PUSH2 0x3A49 JUMP JUMPDEST DUP1 ISZERO PUSH2 0x22E8 JUMPI DUP1 PUSH1 0x1F LT PUSH2 0x22BF JUMPI PUSH2 0x100 DUP1 DUP4 SLOAD DIV MUL DUP4 MSTORE SWAP2 PUSH1 0x20 ADD SWAP2 PUSH2 0x22E8 JUMP JUMPDEST DUP3 ADD SWAP2 SWAP1 PUSH0 MSTORE PUSH1 0x20 PUSH0 KECCAK256 SWAP1 JUMPDEST DUP2 SLOAD DUP2 MSTORE SWAP1 PUSH1 0x1 ADD SWAP1 PUSH1 0x20 ADD DUP1 DUP4 GT PUSH2 0x22CB JUMPI DUP3 SWAP1 SUB PUSH1 0x1F AND DUP3 ADD SWAP2 JUMPDEST POP POP POP POP POP SWAP1 DUP1 PUSH1 0x3 ADD PUSH1 0x40 MLOAD DUP1 PUSH1 0x80 ADD PUSH1 0x40 MSTORE SWAP1 DUP2 PUSH0 DUP3 ADD DUP1 SLOAD PUSH2 0x230C SWAP1 PUSH2 0x3A49 JUMP JUMPDEST DUP1 PUSH1 0x1F ADD PUSH1 0x20 DUP1 SWAP2 DIV MUL PUSH1 0x20 ADD PUSH1 0x40 MLOAD SWAP1 DUP2 ADD PUSH1 0x40 MSTORE DUP1 SWAP3 SWAP2 SWAP1 DUP2 DUP2 MSTORE PUSH1 0x20 ADD DUP3 DUP1 SLOAD PUSH2 0x2338 SWAP1 PUSH2 0x3A49 JUMP JUMPDEST DUP1 ISZERO PUSH2 0x2383 JUMPI DUP1 PUSH1 0x1F LT PUSH2 0x235A JUMPI PUSH2 0x100 DUP1 DUP4 SLOAD DIV MUL DUP4 MSTORE SWAP2 PUSH1 0x20 ADD SWAP2 PUSH2 0x2383 JUMP JUMPDEST DUP3 ADD SWAP2 SWAP1 PUSH0 MSTORE PUSH1 0x20 PUSH0 KECCAK256 SWAP1 JUMPDEST DUP2 SLOAD DUP2 MSTORE SWAP1 PUSH1 0x1 ADD SWAP1 PUSH1 0x20 ADD DUP1 DUP4 GT PUSH2 0x2366 JUMPI DUP3 SWAP1 SUB PUSH1 0x1F AND DUP3 ADD SWAP2 JUMPDEST POP POP POP POP POP DUP2 MSTORE PUSH1 0x20 ADD PUSH1 0x1 DUP3 ADD DUP1 SLOAD PUSH2 0x239C SWAP1 PUSH2 0x3A49 JUMP JUMPDEST DUP1 PUSH1 0x1F ADD PUSH1 0x20 DUP1 SWAP2 DIV MUL PUSH1 0x20 ADD PUSH1 0x40 MLOAD SWAP1 DUP2 ADD PUSH1 0x40 MSTORE DUP1 SWAP3 SWAP2 SWAP1 DUP2 DUP2 MSTORE PUSH1 0x20 ADD DUP3 DUP1 SLOAD PUSH2 0x23C8 SWAP1 PUSH2 0x3A49 JUMP JUMPDEST DUP1 ISZERO PUSH2 0x2413 JUMPI DUP1 PUSH1 0x1F LT PUSH2 0x23EA JUMPI PUSH2 0x100 DUP1 DUP4 SLOAD DIV MUL DUP4 MSTORE SWAP2 PUSH1 0x20 ADD SWAP2 PUSH2 0x2413 JUMP JUMPDEST DUP3 ADD SWAP2 SWAP1 PUSH0 MSTORE PUSH1 0x20 PUSH0 KECCAK256 SWAP1 JUMPDEST DUP2 SLOAD DUP2 MSTORE SWAP1 PUSH1 0x1 ADD SWAP1 PUSH1 0x20 ADD DUP1 DUP4 GT PUSH2 0x23F6 JUMPI DUP3 SWAP1 SUB PUSH1 0x1F AND DUP3 ADD SWAP2 JUMPDEST POP POP POP POP POP DUP2 MSTORE PUSH1 0x20 ADD PUSH1 0x2 DUP3 ADD SLOAD DUP2 MSTORE PUSH1 0x20 ADD PUSH1 0x3 DUP3 ADD SLOAD DUP2 MSTORE POP POP SWAP1 DUP1 PUSH1 0x7 ADD SLOAD SWAP1 DUP1 PUSH1 0x8 ADD PUSH0 SWAP1 SLOAD SWAP1 PUSH2 0x100 EXP SWAP1 DIV PUSH1 0xFF AND SWAP1 DUP1 PUSH1 0x8 ADD PUSH1 0x1 SWAP1 SLOAD SWAP1 PUSH2 0x100 EXP SWAP1 DIV PUSH1 0xFF AND SWAP1 POP DUP8 JUMP JUMPDEST PUSH0 PUSH1 0x1 SWAP1 SLOAD SWAP1 PUSH2 0x100 EXP SWAP1 DIV PUSH20 0xFFFFFFFFFFFFFFFFFFFFFFFFFFFFFFFFFFFFFFFF AND PUSH20 0xFFFFFFFFFFFFFFFFFFFFFFFFFFFFFFFFFFFFFFFF AND PUSH4 0x91D14854 PUSH0 PUSH1 0x1 SWAP1 SLOAD SWAP1 PUSH2 0x100 EXP SWAP1 DIV PUSH20 0xFFFFFFFFFFFFFFFFFFFFFFFFFFFFFFFFFFFFFFFF AND PUSH20 0xFFFFFFFFFFFFFFFFFFFFFFFFFFFFFFFFFFFFFFFF AND PUSH4 0x75B238FC PUSH1 0x40 MLOAD DUP2 PUSH4 0xFFFFFFFF AND PUSH1 0xE0 SHL DUP2 MSTORE PUSH1 0x4 ADD PUSH1 0x20 PUSH1 0x40 MLOAD DUP1 DUP4 SUB DUP2 DUP7 GAS STATICCALL ISZERO DUP1 ISZERO PUSH2 0x2507 JUMPI RETURNDATASIZE PUSH0 DUP1 RETURNDATACOPY RETURNDATASIZE PUSH0 REVERT JUMPDEST POP POP POP POP PUSH1 0x40 MLOAD RETURNDATASIZE PUSH1 0x1F NOT PUSH1 0x1F DUP3 ADD AND DUP3 ADD DUP1 PUSH1 0x40 MSTORE POP DUP2 ADD SWAP1 PUSH2 0x252B SWAP2 SWAP1 PUSH2 0x3AAC JUMP JUMPDEST CALLER PUSH1 0x40 MLOAD DUP4 PUSH4 0xFFFFFFFF AND PUSH1 0xE0 SHL DUP2 MSTORE PUSH1 0x4 ADD PUSH2 0x2549 SWAP3 SWAP2 SWAP1 PUSH2 0x3AE6 JUMP JUMPDEST PUSH1 0x20 PUSH1 0x40 MLOAD DUP1 DUP4 SUB DUP2 DUP7 GAS STATICCALL ISZERO DUP1 ISZERO PUSH2 0x2564 JUMPI RETURNDATASIZE PUSH0 DUP1 RETURNDATACOPY RETURNDATASIZE PUSH0 REVERT JUMPDEST POP POP POP POP PUSH1 0x40 MLOAD RETURNDATASIZE PUSH1 0x1F NOT PUSH1 0x1F DUP3 ADD AND DUP3 ADD DUP1 PUSH1 0x40 MSTORE POP DUP2 ADD SWAP1 PUSH2 0x2588 SWAP2 SWAP1 PUSH2 0x3B37 JUMP JUMPDEST PUSH2 0x25C7 JUMPI PUSH1 0x40 MLOAD PUSH32 0x8C379A000000000000000000000000000000000000000000000000000000000 DUP2 MSTORE PUSH1 0x4 ADD PUSH2 0x25BE SWAP1 PUSH2 0x3BAC JUMP JUMPDEST PUSH1 0x40 MLOAD DUP1 SWAP2 SUB SWAP1 REVERT JUMPDEST PUSH2 0x25CF PUSH2 0x3042 JUMP JUMPDEST PUSH0 PUSH1 0x5 PUSH0 DUP4 DUP2 MSTORE PUSH1 0x20 ADD SWAP1 DUP2 MSTORE PUSH1 0x20 ADD PUSH0 KECCAK256 SWAP1 POP DUP1 PUSH1 0x8 ADD PUSH0 SWAP1 SLOAD SWAP1 PUSH2 0x100 EXP SWAP1 DIV PUSH1 0xFF AND PUSH2 0x2633 JUMPI PUSH1 0x40 MLOAD PUSH32 0x8C379A000000000000000000000000000000000000000000000000000000000 DUP2 MSTORE PUSH1 0x4 ADD PUSH2 0x262A SWAP1 PUSH2 0x3CE4 JUMP JUMPDEST PUSH1 0x40 MLOAD DUP1 SWAP2 SUB SWAP1 REVERT JUMPDEST PUSH0 PUSH1 0x1 SWAP1 SLOAD SWAP1 PUSH2 0x100 EXP SWAP1 DIV PUSH20 0xFFFFFFFFFFFFFFFFFFFFFFFFFFFFFFFFFFFFFFFF AND PUSH20 0xFFFFFFFFFFFFFFFFFFFFFFFFFFFFFFFFFFFFFFFF AND PUSH4 0x91D14854 PUSH0 PUSH1 0x1 SWAP1 SLOAD SWAP1 PUSH2 0x100 EXP SWAP1 DIV PUSH20 0xFFFFFFFFFFFFFFFFFFFFFFFFFFFFFFFFFFFFFFFF AND PUSH20 0xFFFFFFFFFFFFFFFFFFFFFFFFFFFFFFFFFFFFFFFF AND PUSH4 0x78988EBD PUSH1 0x40 MLOAD DUP2 PUSH4 0xFFFFFFFF AND PUSH1 0xE0 SHL DUP2 MSTORE PUSH1 0x4 ADD PUSH1 0x20 PUSH1 0x40 MLOAD DUP1 DUP4 SUB DUP2 DUP7 GAS STATICCALL ISZERO DUP1 ISZERO PUSH2 0x26DA JUMPI RETURNDATASIZE PUSH0 DUP1 RETURNDATACOPY RETURNDATASIZE PUSH0 REVERT JUMPDEST POP POP POP POP PUSH1 0x40 MLOAD RETURNDATASIZE PUSH1 0x1F NOT PUSH1 0x1F DUP3 ADD AND DUP3 ADD DUP1 PUSH1 0x40 MSTORE POP DUP2 ADD SWAP1 PUSH2 0x26FE SWAP2 SWAP1 PUSH2 0x3AAC JUMP JUMPDEST DUP4 PUSH0 ADD PUSH0 SWAP1 SLOAD SWAP1 PUSH2 0x100 EXP SWAP1 DIV PUSH20 0xFFFFFFFFFFFFFFFFFFFFFFFFFFFFFFFFFFFFFFFF AND PUSH1 0x40 MLOAD DUP4 PUSH4 0xFFFFFFFF AND PUSH1 0xE0 SHL DUP2 MSTORE PUSH1 0x4 ADD PUSH2 0x273E SWAP3 SWAP2 SWAP1 PUSH2 0x3AE6 JUMP JUMPDEST PUSH1 0x20 PUSH1 0x40 MLOAD DUP1 DUP4 SUB DUP2 DUP7 GAS STATICCALL ISZERO DUP1 ISZERO PUSH2 0x2759 JUMPI RETURNDATASIZE PUSH0 DUP1 RETURNDATACOPY RETURNDATASIZE PUSH0 REVERT JUMPDEST POP POP POP POP PUSH1 0x40 MLOAD RETURNDATASIZE PUSH1 0x1F NOT PUSH1 0x1F DUP3 ADD AND DUP3 ADD DUP1 PUSH1 0x40 MSTORE POP DUP2 ADD SWAP1 PUSH2 0x277D SWAP2 SWAP1 PUSH2 0x3B37 JUMP JUMPDEST PUSH2 0x27BC JUMPI PUSH1 0x40 MLOAD PUSH32 0x8C379A000000000000000000000000000000000000000000000000000000000 DUP2 MSTORE PUSH1 0x4 ADD PUSH2 0x27B3 SWAP1 PUSH2 0x4545 JUMP JUMPDEST PUSH1 0x40 MLOAD DUP1 SWAP2 SUB SWAP1 REVERT JUMPDEST PUSH0 DUP2 PUSH1 0x8 ADD PUSH0 PUSH2 0x100 EXP DUP2 SLOAD DUP2 PUSH1 0xFF MUL NOT AND SWAP1 DUP4 ISZERO ISZERO MUL OR SWAP1 SSTORE POP PUSH1 0x1 DUP2 PUSH1 0x8 ADD PUSH1 0x1 PUSH2 0x100 EXP DUP2 SLOAD DUP2 PUSH1 0xFF MUL NOT AND SWAP1 DUP4 ISZERO ISZERO MUL OR SWAP1 SSTORE POP PUSH1 0x40 MLOAD DUP1 PUSH2 0x120 ADD PUSH1 0x40 MSTORE DUP1 DUP4 DUP2 MSTORE PUSH1 0x20 ADD DUP3 PUSH1 0x1 ADD DUP1 SLOAD PUSH2 0x2815 SWAP1 PUSH2 0x3A49 JUMP JUMPDEST DUP1 PUSH1 0x1F ADD PUSH1 0x20 DUP1 SWAP2 DIV MUL PUSH1 0x20 ADD PUSH1 0x40 MLOAD SWAP1 DUP2 ADD PUSH1 0x40 MSTORE DUP1 SWAP3 SWAP2 SWAP1 DUP2 DUP2 MSTORE PUSH1 0x20 ADD DUP3 DUP1 SLOAD PUSH2 0x2841 SWAP1 PUSH2 0x3A49 JUMP JUMPDEST DUP1 ISZERO PUSH2 0x288C JUMPI DUP1 PUSH1 0x1F LT PUSH2 0x2863 JUMPI PUSH2 0x100 DUP1 DUP4 SLOAD DIV MUL DUP4 MSTORE SWAP2 PUSH1 0x20 ADD SWAP2 PUSH2 0x288C JUMP JUMPDEST DUP3 ADD SWAP2 SWAP1 PUSH0 MSTORE PUSH1 0x20 PUSH0 KECCAK256 SWAP1 JUMPDEST DUP2 SLOAD DUP2 MSTORE SWAP1 PUSH1 0x1 ADD SWAP1 PUSH1 0x20 ADD DUP1 DUP4 GT PUSH2 0x286F JUMPI DUP3 SWAP1 SUB PUSH1 0x1F AND DUP3 ADD SWAP2 JUMPDEST POP POP POP POP POP DUP2 MSTORE PUSH1 0x20 ADD DUP3 PUSH1 0x2 ADD DUP1 SLOAD PUSH2 0x28A5 SWAP1 PUSH2 0x3A49 JUMP JUMPDEST DUP1 PUSH1 0x1F ADD PUSH1 0x20 DUP1 SWAP2 DIV MUL PUSH1 0x20 ADD PUSH1 0x40 MLOAD SWAP1 DUP2 ADD PUSH1 0x40 MSTORE DUP1 SWAP3 SWAP2 SWAP1 DUP2 DUP2 MSTORE PUSH1 0x20 ADD DUP3 DUP1 SLOAD PUSH2 0x28D1 SWAP1 PUSH2 0x3A49 JUMP JUMPDEST DUP1 ISZERO PUSH2 0x291C JUMPI DUP1 PUSH1 0x1F LT PUSH2 0x28F3 JUMPI PUSH2 0x100 DUP1 DUP4 SLOAD DIV MUL DUP4 MSTORE SWAP2 PUSH1 0x20 ADD SWAP2 PUSH2 0x291C JUMP JUMPDEST DUP3 ADD SWAP2 SWAP1 PUSH0 MSTORE PUSH1 0x20 PUSH0 KECCAK256 SWAP1 JUMPDEST DUP2 SLOAD DUP2 MSTORE SWAP1 PUSH1 0x1 ADD SWAP1 PUSH1 0x20 ADD DUP1 DUP4 GT PUSH2 0x28FF JUMPI DUP3 SWAP1 SUB PUSH1 0x1F AND DUP3 ADD SWAP2 JUMPDEST POP POP POP POP POP DUP2 MSTORE PUSH1 0x20 ADD DUP3 PUSH1 0x3 ADD PUSH1 0x40 MLOAD DUP1 PUSH1 0x80 ADD PUSH1 0x40 MSTORE SWAP1 DUP2 PUSH0 DUP3 ADD DUP1 SLOAD PUSH2 0x2944 SWAP1 PUSH2 0x3A49 JUMP JUMPDEST DUP1 PUSH1 0x1F ADD PUSH1 0x20 DUP1 SWAP2 DIV MUL PUSH1 0x20 ADD PUSH1 0x40 MLOAD SWAP1 DUP2 ADD PUSH1 0x40 MSTORE DUP1 SWAP3 SWAP2 SWAP1 DUP2 DUP2 MSTORE PUSH1 0x20 ADD DUP3 DUP1 SLOAD PUSH2 0x2970 SWAP1 PUSH2 0x3A49 JUMP JUMPDEST DUP1 ISZERO PUSH2 0x29BB JUMPI DUP1 PUSH1 0x1F LT PUSH2 0x2992 JUMPI PUSH2 0x100 DUP1 DUP4 SLOAD DIV MUL DUP4 MSTORE SWAP2 PUSH1 0x20 ADD SWAP2 PUSH2 0x29BB JUMP JUMPDEST DUP3 ADD SWAP2 SWAP1 PUSH0 MSTORE PUSH1 0x20 PUSH0 KECCAK256 SWAP1 JUMPDEST DUP2 SLOAD DUP2 MSTORE SWAP1 PUSH1 0x1 ADD SWAP1 PUSH1 0x20 ADD DUP1 DUP4 GT PUSH2 0x299E JUMPI DUP3 SWAP1 SUB PUSH1 0x1F AND DUP3 ADD SWAP2 JUMPDEST POP POP POP POP POP DUP2 MSTORE PUSH1 0x20 ADD PUSH1 0x1 DUP3 ADD DUP1 SLOAD PUSH2 0x29D4 SWAP1 PUSH2 0x3A49 JUMP JUMPDEST DUP1 PUSH1 0x1F ADD PUSH1 0x20 DUP1 SWAP2 DIV MUL PUSH1 0x20 ADD PUSH1 0x40 MLOAD SWAP1 DUP2 ADD PUSH1 0x40 MSTORE DUP1 SWAP3 SWAP2 SWAP1 DUP2 DUP2 MSTORE PUSH1 0x20 ADD DUP3 DUP1 SLOAD PUSH2 0x2A00 SWAP1 PUSH2 0x3A49 JUMP JUMPDEST DUP1 ISZERO PUSH2 0x2A4B JUMPI DUP1 PUSH1 0x1F LT PUSH2 0x2A22 JUMPI PUSH2 0x100 DUP1 DUP4 SLOAD DIV MUL DUP4 MSTORE SWAP2 PUSH1 0x20 ADD SWAP2 PUSH2 0x2A4B JUMP JUMPDEST DUP3 ADD SWAP2 SWAP1 PUSH0 MSTORE PUSH1 0x20 PUSH0 KECCAK256 SWAP1 JUMPDEST DUP2 SLOAD DUP2 MSTORE SWAP1 PUSH1 0x1 ADD SWAP1 PUSH1 0x20 ADD DUP1 DUP4 GT PUSH2 0x2A2E JUMPI DUP3 SWAP1 SUB PUSH1 0x1F AND DUP3 ADD SWAP2 JUMPDEST POP POP POP POP POP DUP2 MSTORE PUSH1 0x20 ADD PUSH1 0x2 DUP3 ADD SLOAD DUP2 MSTORE PUSH1 0x20 ADD PUSH1 0x3 DUP3 ADD SLOAD DUP2 MSTORE POP POP DUP2 MSTORE PUSH1 0x20 ADD DUP3 PUSH0 ADD PUSH0 SWAP1 SLOAD SWAP1 PUSH2 0x100 EXP SWAP1 DIV PUSH20 0xFFFFFFFFFFFFFFFFFFFFFFFFFFFFFFFFFFFFFFFF AND PUSH20 0xFFFFFFFFFFFFFFFFFFFFFFFFFFFFFFFFFFFFFFFF AND DUP2 MSTORE PUSH1 0x20 ADD DUP3 PUSH1 0x7 ADD SLOAD DUP2 MSTORE PUSH1 0x20 ADD PUSH1 0x1 ISZERO ISZERO DUP2 MSTORE PUSH1 0x20 ADD TIMESTAMP DUP2 MSTORE PUSH1 0x20 ADD TIMESTAMP DUP2 MSTORE POP PUSH1 0x4 PUSH0 DUP5 DUP2 MSTORE PUSH1 0x20 ADD SWAP1 DUP2 MSTORE PUSH1 0x20 ADD PUSH0 KECCAK256 PUSH0 DUP3 ADD MLOAD DUP2 PUSH0 ADD SSTORE PUSH1 0x20 DUP3 ADD MLOAD DUP2 PUSH1 0x1 ADD SWAP1 DUP2 PUSH2 0x2AF6 SWAP2 SWAP1 PUSH2 0x4406 JUMP JUMPDEST POP PUSH1 0x40 DUP3 ADD MLOAD DUP2 PUSH1 0x2 ADD SWAP1 DUP2 PUSH2 0x2B0C SWAP2 SWAP1 PUSH2 0x4406 JUMP JUMPDEST POP PUSH1 0x60 DUP3 ADD MLOAD DUP2 PUSH1 0x3 ADD PUSH0 DUP3 ADD MLOAD DUP2 PUSH0 ADD SWAP1 DUP2 PUSH2 0x2B29 SWAP2 SWAP1 PUSH2 0x4406 JUMP JUMPDEST POP PUSH1 0x20 DUP3 ADD MLOAD DUP2 PUSH1 0x1 ADD SWAP1 DUP2 PUSH2 0x2B3F SWAP2 SWAP1 PUSH2 0x4406 JUMP JUMPDEST POP PUSH1 0x40 DUP3 ADD MLOAD DUP2 PUSH1 0x2 ADD SSTORE PUSH1 0x60 DUP3 ADD MLOAD DUP2 PUSH1 0x3 ADD SSTORE POP POP PUSH1 0x80 DUP3 ADD MLOAD DUP2 PUSH1 0x7 ADD PUSH0 PUSH2 0x100 EXP DUP2 SLOAD DUP2 PUSH20 0xFFFFFFFFFFFFFFFFFFFFFFFFFFFFFFFFFFFFFFFF MUL NOT AND SWAP1 DUP4 PUSH20 0xFFFFFFFFFFFFFFFFFFFFFFFFFFFFFFFFFFFFFFFF AND MUL OR SWAP1 SSTORE POP PUSH1 0xA0 DUP3 ADD MLOAD DUP2 PUSH1 0x8 ADD SSTORE PUSH1 0xC0 DUP3 ADD MLOAD DUP2 PUSH1 0x9 ADD PUSH0 PUSH2 0x100 EXP DUP2 SLOAD DUP2 PUSH1 0xFF MUL NOT AND SWAP1 DUP4 ISZERO ISZERO MUL OR SWAP1 SSTORE POP PUSH1 0xE0 DUP3 ADD MLOAD DUP2 PUSH1 0xA ADD SSTORE PUSH2 0x100 DUP3 ADD MLOAD DUP2 PUSH1 0xB ADD SSTORE SWAP1 POP POP DUP2 PUSH32 0x8BF0B9F064110E184AC3A17211475B991009BBA03AFD86413F3114D9058B670A PUSH1 0x40 MLOAD PUSH1 0x40 MLOAD DUP1 SWAP2 SUB SWAP1 LOG2 POP POP JUMP JUMPDEST DUP2 CALLER PUSH20 0xFFFFFFFFFFFFFFFFFFFFFFFFFFFFFFFFFFFFFFFF AND PUSH1 0x4 PUSH0 DUP4 DUP2 MSTORE PUSH1 0x20 ADD SWAP1 DUP2 MSTORE PUSH1 0x20 ADD PUSH0 KECCAK256 PUSH1 0x7 ADD PUSH0 SWAP1 SLOAD SWAP1 PUSH2 0x100 EXP SWAP1 DIV PUSH20 0xFFFFFFFFFFFFFFFFFFFFFFFFFFFFFFFFFFFFFFFF AND PUSH20 0xFFFFFFFFFFFFFFFFFFFFFFFFFFFFFFFFFFFFFFFF AND EQ PUSH2 0x2CB0 JUMPI PUSH1 0x40 MLOAD PUSH32 0x8C379A000000000000000000000000000000000000000000000000000000000 DUP2 MSTORE PUSH1 0x4 ADD PUSH2 0x2CA7 SWAP1 PUSH2 0x3C7C JUMP JUMPDEST PUSH1 0x40 MLOAD DUP1 SWAP2 SUB SWAP1 REVERT JUMPDEST PUSH2 0x2CB8 PUSH2 0x3042 JUMP JUMPDEST PUSH0 PUSH1 0x6 PUSH0 DUP6 DUP2 MSTORE PUSH1 0x20 ADD SWAP1 DUP2 MSTORE PUSH1 0x20 ADD PUSH0 KECCAK256 PUSH0 DUP5 DUP2 MSTORE PUSH1 0x20 ADD SWAP1 DUP2 MSTORE PUSH1 0x20 ADD PUSH0 KECCAK256 SWAP1 POP DUP1 PUSH1 0x3 ADD PUSH0 SWAP1 SLOAD SWAP1 PUSH2 0x100 EXP SWAP1 DIV PUSH1 0xFF AND PUSH2 0x2D2B JUMPI PUSH1 0x40 MLOAD PUSH32 0x8C379A000000000000000000000000000000000000000000000000000000000 DUP2 MSTORE PUSH1 0x4 ADD PUSH2 0x2D22 SWAP1 PUSH2 0x3CE4 JUMP JUMPDEST PUSH1 0x40 MLOAD DUP1 SWAP2 SUB SWAP1 REVERT JUMPDEST PUSH0 PUSH1 0x1 SWAP1 SLOAD SWAP1 PUSH2 0x100 EXP SWAP1 DIV PUSH20 0xFFFFFFFFFFFFFFFFFFFFFFFFFFFFFFFFFFFFFFFF AND PUSH20 0xFFFFFFFFFFFFFFFFFFFFFFFFFFFFFFFFFFFFFFFF AND PUSH4 0x91D14854 PUSH0 PUSH1 0x1 SWAP1 SLOAD SWAP1 PUSH2 0x100 EXP SWAP1 DIV PUSH20 0xFFFFFFFFFFFFFFFFFFFFFFFFFFFFFFFFFFFFFFFF AND PUSH20 0xFFFFFFFFFFFFFFFFFFFFFFFFFFFFFFFFFFFFFFFF AND PUSH4 0x98E4ABB5 PUSH1 0x40 MLOAD DUP2 PUSH4 0xFFFFFFFF AND PUSH1 0xE0 SHL DUP2 MSTORE PUSH1 0x4 ADD PUSH1 0x20 PUSH1 0x40 MLOAD DUP1 DUP4 SUB DUP2 DUP7 GAS STATICCALL ISZERO DUP1 ISZERO PUSH2 0x2DD2 JUMPI RETURNDATASIZE PUSH0 DUP1 RETURNDATACOPY RETURNDATASIZE PUSH0 REVERT JUMPDEST POP POP POP POP PUSH1 0x40 MLOAD RETURNDATASIZE PUSH1 0x1F NOT PUSH1 0x1F DUP3 ADD AND DUP3 ADD DUP1 PUSH1 0x40 MSTORE POP DUP2 ADD SWAP1 PUSH2 0x2DF6 SWAP2 SWAP1 PUSH2 0x3AAC JUMP JUMPDEST DUP4 PUSH1 0x1 ADD PUSH0 SWAP1 SLOAD SWAP1 PUSH2 0x100 EXP SWAP1 DIV PUSH20 0xFFFFFFFFFFFFFFFFFFFFFFFFFFFFFFFFFFFFFFFF AND PUSH1 0x40 MLOAD DUP4 PUSH4 0xFFFFFFFF AND PUSH1 0xE0 SHL DUP2 MSTORE PUSH1 0x4 ADD PUSH2 0x2E37 SWAP3 SWAP2 SWAP1 PUSH2 0x3AE6 JUMP JUMPDEST PUSH1 0x20 PUSH1 0x40 MLOAD DUP1 DUP4 SUB DUP2 DUP7 GAS STATICCALL ISZERO DUP1 ISZERO PUSH2 0x2E52 JUMPI RETURNDATASIZE PUSH0 DUP1 RETURNDATACOPY RETURNDATASIZE PUSH0 REVERT JUMPDEST POP POP POP POP PUSH1 0x40 MLOAD RETURNDATASIZE PUSH1 0x1F NOT PUSH1 0x1F DUP3 ADD AND DUP3 ADD DUP1 PUSH1 0x40 MSTORE POP DUP2 ADD SWAP1 PUSH2 0x2E76 SWAP2 SWAP1 PUSH2 0x3B37 JUMP JUMPDEST PUSH2 0x2EB5 JUMPI PUSH1 0x40 MLOAD PUSH32 0x8C379A000000000000000000000000000000000000000000000000000000000 DUP2 MSTORE PUSH1 0x4 ADD PUSH2 0x2EAC SWAP1 PUSH2 0x45D3 JUMP JUMPDEST PUSH1 0x40 MLOAD DUP1 SWAP2 SUB SWAP1 REVERT JUMPDEST PUSH0 DUP2 PUSH1 0x3 ADD PUSH0 PUSH2 0x100 EXP DUP2 SLOAD DUP2 PUSH1 0xFF MUL NOT AND SWAP1 DUP4 ISZERO ISZERO MUL OR SWAP1 SSTORE POP PUSH1 0x1 DUP2 PUSH1 0x3 ADD PUSH1 0x1 PUSH2 0x100 EXP DUP2 SLOAD DUP2 PUSH1 0xFF MUL NOT AND SWAP1 DUP4 ISZERO ISZERO MUL OR SWAP1 SSTORE POP PUSH1 0x1 PUSH0 SWAP1 SLOAD SWAP1 PUSH2 0x100 EXP SWAP1 DIV PUSH20 0xFFFFFFFFFFFFFFFFFFFFFFFFFFFFFFFFFFFFFFFF AND PUSH20 0xFFFFFFFFFFFFFFFFFFFFFFFFFFFFFFFFFFFFFFFF AND PUSH4 0xCE290E1D DUP5 DUP7 PUSH1 0x1 PUSH1 0x40 MLOAD DUP5 PUSH4 0xFFFFFFFF AND PUSH1 0xE0 SHL DUP2 MSTORE PUSH1 0x4 ADD PUSH2 0x2F4C SWAP4 SWAP3 SWAP2 SWAP1 PUSH2 0x45F1 JUMP JUMPDEST PUSH0 PUSH1 0x40 MLOAD DUP1 DUP4 SUB DUP2 PUSH0 DUP8 DUP1 EXTCODESIZE ISZERO DUP1 ISZERO PUSH2 0x2F63 JUMPI PUSH0 DUP1 REVERT JUMPDEST POP GAS CALL ISZERO DUP1 ISZERO PUSH2 0x2F75 JUMPI RETURNDATASIZE PUSH0 DUP1 RETURNDATACOPY RETURNDATASIZE PUSH0 REVERT JUMPDEST POP POP POP POP PUSH1 0x7 PUSH0 DUP6 DUP2 MSTORE PUSH1 0x20 ADD SWAP1 DUP2 MSTORE PUSH1 0x20 ADD PUSH0 KECCAK256 DUP4 SWAP1 DUP1 PUSH1 0x1 DUP2 SLOAD ADD DUP1 DUP3 SSTORE DUP1 SWAP2 POP POP PUSH1 0x1 SWAP1 SUB SWAP1 PUSH0 MSTORE PUSH1 0x20 PUSH0 KECCAK256 ADD PUSH0 SWAP1 SWAP2 SWAP1 SWAP2 SWAP1 SWAP2 POP SSTORE DUP3 DUP5 PUSH32 0xDC2149B93C86806566C8FA4D25318AB9DD1B921D334A786BEA5E3CA461E8E2B4 PUSH1 0x40 MLOAD PUSH1 0x40 MLOAD DUP1 SWAP2 SUB SWAP1 LOG3 POP POP POP POP JUMP JUMPDEST PUSH2 0x2FEA PUSH2 0x31DE JUMP JUMPDEST PUSH0 DUP1 PUSH0 PUSH2 0x100 EXP DUP2 SLOAD DUP2 PUSH1 0xFF MUL NOT AND SWAP1 DUP4 ISZERO ISZERO MUL OR SWAP1 SSTORE POP PUSH32 0x5DB9EE0A495BF2E6FF9C91A7834C1BA4FDD244A5E8AA4E537BD38AEAE4B073AA PUSH2 0x302B PUSH2 0x3227 JUMP JUMPDEST PUSH1 0x40 MLOAD PUSH2 0x3038 SWAP2 SWAP1 PUSH2 0x4626 JUMP JUMPDEST PUSH1 0x40 MLOAD DUP1 SWAP2 SUB SWAP1 LOG1 JUMP JUMPDEST PUSH2 0x304A PUSH2 0xC0E JUMP JUMPDEST ISZERO PUSH2 0x308A JUMPI PUSH1 0x40 MLOAD PUSH32 0x8C379A000000000000000000000000000000000000000000000000000000000 DUP2 MSTORE PUSH1 0x4 ADD PUSH2 0x3081 SWAP1 PUSH2 0x4689 JUMP JUMPDEST PUSH1 0x40 MLOAD DUP1 SWAP2 SUB SWAP1 REVERT JUMPDEST JUMP JUMPDEST PUSH0 PUSH1 0x7 PUSH0 DUP5 DUP2 MSTORE PUSH1 0x20 ADD SWAP1 DUP2 MSTORE PUSH1 0x20 ADD PUSH0 KECCAK256 SWAP1 POP PUSH0 JUMPDEST DUP2 DUP1 SLOAD SWAP1 POP DUP2 LT ISZERO PUSH2 0x3157 JUMPI DUP3 DUP3 DUP3 DUP2 SLOAD DUP2 LT PUSH2 0x30C2 JUMPI PUSH2 0x30C1 PUSH2 0x46A7 JUMP JUMPDEST JUMPDEST SWAP1 PUSH0 MSTORE PUSH1 0x20 PUSH0 KECCAK256 ADD SLOAD SUB PUSH2 0x3144 JUMPI DUP2 PUSH1 0x1 DUP4 DUP1 SLOAD SWAP1 POP PUSH2 0x30E2 SWAP2 SWAP1 PUSH2 0x46D4 JUMP JUMPDEST DUP2 SLOAD DUP2 LT PUSH2 0x30F3 JUMPI PUSH2 0x30F2 PUSH2 0x46A7 JUMP JUMPDEST JUMPDEST SWAP1 PUSH0 MSTORE PUSH1 0x20 PUSH0 KECCAK256 ADD SLOAD DUP3 DUP3 DUP2 SLOAD DUP2 LT PUSH2 0x310F JUMPI PUSH2 0x310E PUSH2 0x46A7 JUMP JUMPDEST JUMPDEST SWAP1 PUSH0 MSTORE PUSH1 0x20 PUSH0 KECCAK256 ADD DUP2 SWAP1 SSTORE POP DUP2 DUP1 SLOAD DUP1 PUSH2 0x312C JUMPI PUSH2 0x312B PUSH2 0x4707 JUMP JUMPDEST JUMPDEST PUSH1 0x1 SWAP1 SUB DUP2 DUP2 SWAP1 PUSH0 MSTORE PUSH1 0x20 PUSH0 KECCAK256 ADD PUSH0 SWAP1 SSTORE SWAP1 SSTORE PUSH2 0x3157 JUMP JUMPDEST DUP1 DUP1 PUSH2 0x314F SWAP1 PUSH2 0x4734 JUMP JUMPDEST SWAP2 POP POP PUSH2 0x30A2 JUMP JUMPDEST POP POP POP POP JUMP JUMPDEST PUSH2 0x3165 PUSH2 0x3042 JUMP JUMPDEST PUSH1 0x1 PUSH0 DUP1 PUSH2 0x100 EXP DUP2 SLOAD DUP2 PUSH1 0xFF MUL NOT AND SWAP1 DUP4 ISZERO ISZERO MUL OR SWAP1 SSTORE POP PUSH32 0x62E78CEA01BEE320CD4E420270B5EA74000D11B0C9F74754EBDBFC544B05A258 PUSH2 0x31A7 PUSH2 0x3227 JUMP JUMPDEST PUSH1 0x40 MLOAD PUSH2 0x31B4 SWAP2 SWAP1 PUSH2 0x4626 JUMP JUMPDEST PUSH1 0x40 MLOAD DUP1 SWAP2 SUB SWAP1 LOG1 JUMP JUMPDEST PUSH0 DUP2 PUSH0 ADD SLOAD SWAP1 POP SWAP2 SWAP1 POP JUMP JUMPDEST PUSH1 0x1 DUP2 PUSH0 ADD PUSH0 DUP3 DUP3 SLOAD ADD SWAP3 POP POP DUP2 SWAP1 SSTORE POP POP JUMP JUMPDEST PUSH2 0x31E6 PUSH2 0xC0E JUMP JUMPDEST PUSH2 0x3225 JUMPI PUSH1 0x40 MLOAD PUSH32 0x8C379A000000000000000000000000000000000000000000000000000000000 DUP2 MSTORE PUSH1 0x4 ADD PUSH2 0x321C SWAP1 PUSH2 0x47C5 JUMP JUMPDEST PUSH1 0x40 MLOAD DUP1 SWAP2 SUB SWAP1 REVERT JUMPDEST JUMP JUMPDEST PUSH0 CALLER SWAP1 POP SWAP1 JUMP JUMPDEST PUSH1 0x40 MLOAD DUP1 PUSH2 0x120 ADD PUSH1 0x40 MSTORE DUP1 PUSH0 DUP2 MSTORE PUSH1 0x20 ADD PUSH1 0x60 DUP2 MSTORE PUSH1 0x20 ADD PUSH1 0x60 DUP2 MSTORE PUSH1 0x20 ADD PUSH2 0x3256 PUSH2 0x3292 JUMP JUMPDEST DUP2 MSTORE PUSH1 0x20 ADD PUSH0 PUSH20 0xFFFFFFFFFFFFFFFFFFFFFFFFFFFFFFFFFFFFFFFF AND DUP2 MSTORE PUSH1 0x20 ADD PUSH0 DUP2 MSTORE PUSH1 0x20 ADD PUSH0 ISZERO ISZERO DUP2 MSTORE PUSH1 0x20 ADD PUSH0 DUP2 MSTORE PUSH1 0x20 ADD PUSH0 DUP2 MSTORE POP SWAP1 JUMP JUMPDEST PUSH1 0x40 MLOAD DUP1 PUSH1 0x80 ADD PUSH1 0x40 MSTORE DUP1 PUSH1 0x60 DUP2 MSTORE PUSH1 0x20 ADD PUSH1 0x60 DUP2 MSTORE PUSH1 0x20 ADD PUSH0 DUP2 MSTORE PUSH1 0x20 ADD PUSH0 DUP2 MSTORE POP SWAP1 JUMP JUMPDEST PUSH0 PUSH20 0xFFFFFFFFFFFFFFFFFFFFFFFFFFFFFFFFFFFFFFFF DUP3 AND SWAP1 POP SWAP2 SWAP1 POP JUMP JUMPDEST PUSH0 DUP2 SWAP1 POP SWAP2 SWAP1 POP JUMP JUMPDEST PUSH0 PUSH2 0x32FA PUSH2 0x32F5 PUSH2 0x32F0 DUP5 PUSH2 0x32B8 JUMP JUMPDEST PUSH2 0x32D7 JUMP JUMPDEST PUSH2 0x32B8 JUMP JUMPDEST SWAP1 POP SWAP2 SWAP1 POP JUMP JUMPDEST PUSH0 PUSH2 0x330B DUP3 PUSH2 0x32E0 JUMP JUMPDEST SWAP1 POP SWAP2 SWAP1 POP JUMP JUMPDEST PUSH0 PUSH2 0x331C DUP3 PUSH2 0x3301 JUMP JUMPDEST SWAP1 POP SWAP2 SWAP1 POP JUMP JUMPDEST PUSH2 0x332C DUP2 PUSH2 0x3312 JUMP JUMPDEST DUP3 MSTORE POP POP JUMP JUMPDEST PUSH0 PUSH1 0x20 DUP3 ADD SWAP1 POP PUSH2 0x3345 PUSH0 DUP4 ADD DUP5 PUSH2 0x3323 JUMP JUMPDEST SWAP3 SWAP2 POP POP JUMP JUMPDEST PUSH0 DUP1 REVERT JUMPDEST PUSH0 DUP1 REVERT JUMPDEST PUSH0 DUP2 SWAP1 POP SWAP2 SWAP1 POP JUMP JUMPDEST PUSH2 0x3365 DUP2 PUSH2 0x3353 JUMP JUMPDEST DUP2 EQ PUSH2 0x336F JUMPI PUSH0 DUP1 REVERT JUMPDEST POP JUMP JUMPDEST PUSH0 DUP2 CALLDATALOAD SWAP1 POP PUSH2 0x3380 DUP2 PUSH2 0x335C JUMP JUMPDEST SWAP3 SWAP2 POP POP JUMP JUMPDEST PUSH0 PUSH1 0x20 DUP3 DUP5 SUB SLT ISZERO PUSH2 0x339B JUMPI PUSH2 0x339A PUSH2 0x334B JUMP JUMPDEST JUMPDEST PUSH0 PUSH2 0x33A8 DUP5 DUP3 DUP6 ADD PUSH2 0x3372 JUMP JUMPDEST SWAP2 POP POP SWAP3 SWAP2 POP POP JUMP JUMPDEST PUSH2 0x33BA DUP2 PUSH2 0x3353 JUMP JUMPDEST DUP3 MSTORE POP POP JUMP JUMPDEST PUSH0 DUP2 MLOAD SWAP1 POP SWAP2 SWAP1 POP JUMP JUMPDEST PUSH0 DUP3 DUP3 MSTORE PUSH1 0x20 DUP3 ADD SWAP1 POP SWAP3 SWAP2 POP POP JUMP JUMPDEST PUSH0 JUMPDEST DUP4 DUP2 LT ISZERO PUSH2 0x33F7 JUMPI DUP1 DUP3 ADD MLOAD DUP2 DUP5 ADD MSTORE PUSH1 0x20 DUP2 ADD SWAP1 POP PUSH2 0x33DC JUMP JUMPDEST PUSH0 DUP5 DUP5 ADD MSTORE POP POP POP POP JUMP JUMPDEST PUSH0 PUSH1 0x1F NOT PUSH1 0x1F DUP4 ADD AND SWAP1 POP SWAP2 SWAP1 POP JUMP JUMPDEST PUSH0 PUSH2 0x341C DUP3 PUSH2 0x33C0 JUMP JUMPDEST PUSH2 0x3426 DUP2 DUP6 PUSH2 0x33CA JUMP JUMPDEST SWAP4 POP PUSH2 0x3436 DUP2 DUP6 PUSH1 0x20 DUP7 ADD PUSH2 0x33DA JUMP JUMPDEST PUSH2 0x343F DUP2 PUSH2 0x3402 JUMP JUMPDEST DUP5 ADD SWAP2 POP POP SWAP3 SWAP2 POP POP JUMP JUMPDEST PUSH0 DUP3 DUP3 MSTORE PUSH1 0x20 DUP3 ADD SWAP1 POP SWAP3 SWAP2 POP POP JUMP JUMPDEST PUSH0 PUSH2 0x3464 DUP3 PUSH2 0x33C0 JUMP JUMPDEST PUSH2 0x346E DUP2 DUP6 PUSH2 0x344A JUMP JUMPDEST SWAP4 POP PUSH2 0x347E DUP2 DUP6 PUSH1 0x20 DUP7 ADD PUSH2 0x33DA JUMP JUMPDEST PUSH2 0x3487 DUP2 PUSH2 0x3402 JUMP JUMPDEST DUP5 ADD SWAP2 POP POP SWAP3 SWAP2 POP POP JUMP JUMPDEST PUSH0 DUP2 SWAP1 POP SWAP2 SWAP1 POP JUMP JUMPDEST PUSH2 0x34A4 DUP2 PUSH2 0x3492 JUMP JUMPDEST DUP3 MSTORE POP POP JUMP JUMPDEST PUSH0 PUSH1 0x80 DUP4 ADD PUSH0 DUP4 ADD MLOAD DUP5 DUP3 SUB PUSH0 DUP7 ADD MSTORE PUSH2 0x34C4 DUP3 DUP3 PUSH2 0x345A JUMP JUMPDEST SWAP2 POP POP PUSH1 0x20 DUP4 ADD MLOAD DUP5 DUP3 SUB PUSH1 0x20 DUP7 ADD MSTORE PUSH2 0x34DE DUP3 DUP3 PUSH2 0x345A JUMP JUMPDEST SWAP2 POP POP PUSH1 0x40 DUP4 ADD MLOAD PUSH2 0x34F3 PUSH1 0x40 DUP7 ADD DUP3 PUSH2 0x349B JUMP JUMPDEST POP PUSH1 0x60 DUP4 ADD MLOAD PUSH2 0x3506 PUSH1 0x60 DUP7 ADD DUP3 PUSH2 0x349B JUMP JUMPDEST POP DUP1 SWAP2 POP POP SWAP3 SWAP2 POP POP JUMP JUMPDEST PUSH0 PUSH2 0x351B DUP3 PUSH2 0x32B8 JUMP JUMPDEST SWAP1 POP SWAP2 SWAP1 POP JUMP JUMPDEST PUSH2 0x352B DUP2 PUSH2 0x3511 JUMP JUMPDEST DUP3 MSTORE POP POP JUMP JUMPDEST PUSH0 DUP2 ISZERO ISZERO SWAP1 POP SWAP2 SWAP1 POP JUMP JUMPDEST PUSH2 0x3545 DUP2 PUSH2 0x3531 JUMP JUMPDEST DUP3 MSTORE POP POP JUMP JUMPDEST PUSH0 PUSH2 0x120 DUP3 ADD SWAP1 POP PUSH2 0x355F PUSH0 DUP4 ADD DUP13 PUSH2 0x33B1 JUMP JUMPDEST DUP2 DUP2 SUB PUSH1 0x20 DUP4 ADD MSTORE PUSH2 0x3571 DUP2 DUP12 PUSH2 0x3412 JUMP JUMPDEST SWAP1 POP DUP2 DUP2 SUB PUSH1 0x40 DUP4 ADD MSTORE PUSH2 0x3585 DUP2 DUP11 PUSH2 0x3412 JUMP JUMPDEST SWAP1 POP DUP2 DUP2 SUB PUSH1 0x60 DUP4 ADD MSTORE PUSH2 0x3599 DUP2 DUP10 PUSH2 0x34AA JUMP JUMPDEST SWAP1 POP PUSH2 0x35A8 PUSH1 0x80 DUP4 ADD DUP9 PUSH2 0x3522 JUMP JUMPDEST PUSH2 0x35B5 PUSH1 0xA0 DUP4 ADD DUP8 PUSH2 0x33B1 JUMP JUMPDEST PUSH2 0x35C2 PUSH1 0xC0 DUP4 ADD DUP7 PUSH2 0x353C JUMP JUMPDEST PUSH2 0x35CF PUSH1 0xE0 DUP4 ADD DUP6 PUSH2 0x33B1 JUMP JUMPDEST PUSH2 0x35DD PUSH2 0x100 DUP4 ADD DUP5 PUSH2 0x33B1 JUMP JUMPDEST SWAP11 SWAP10 POP POP POP POP POP POP POP POP POP POP JUMP JUMPDEST PUSH0 PUSH1 0x20 DUP3 ADD SWAP1 POP PUSH2 0x35FE PUSH0 DUP4 ADD DUP5 PUSH2 0x33B1 JUMP JUMPDEST SWAP3 SWAP2 POP POP JUMP JUMPDEST PUSH0 DUP1 PUSH1 0x40 DUP4 DUP6 SUB SLT ISZERO PUSH2 0x361A JUMPI PUSH2 0x3619 PUSH2 0x334B JUMP JUMPDEST JUMPDEST PUSH0 PUSH2 0x3627 DUP6 DUP3 DUP7 ADD PUSH2 0x3372 JUMP JUMPDEST SWAP3 POP POP PUSH1 0x20 PUSH2 0x3638 DUP6 DUP3 DUP7 ADD PUSH2 0x3372 JUMP JUMPDEST SWAP2 POP POP SWAP3 POP SWAP3 SWAP1 POP JUMP JUMPDEST PUSH0 PUSH1 0xA0 DUP3 ADD SWAP1 POP PUSH2 0x3655 PUSH0 DUP4 ADD DUP9 PUSH2 0x33B1 JUMP JUMPDEST PUSH2 0x3662 PUSH1 0x20 DUP4 ADD DUP8 PUSH2 0x3522 JUMP JUMPDEST PUSH2 0x366F PUSH1 0x40 DUP4 ADD DUP7 PUSH2 0x33B1 JUMP JUMPDEST PUSH2 0x367C PUSH1 0x60 DUP4 ADD DUP6 PUSH2 0x353C JUMP JUMPDEST PUSH2 0x3689 PUSH1 0x80 DUP4 ADD DUP5 PUSH2 0x353C JUMP JUMPDEST SWAP7 SWAP6 POP POP POP POP POP POP JUMP JUMPDEST PUSH0 PUSH1 0x20 DUP3 ADD SWAP1 POP PUSH2 0x36A6 PUSH0 DUP4 ADD DUP5 PUSH2 0x353C JUMP JUMPDEST SWAP3 SWAP2 POP POP JUMP JUMPDEST PUSH0 PUSH2 0x36B6 DUP3 PUSH2 0x3301 JUMP JUMPDEST SWAP1 POP SWAP2 SWAP1 POP JUMP JUMPDEST PUSH2 0x36C6 DUP2 PUSH2 0x36AC JUMP JUMPDEST DUP3 MSTORE POP POP JUMP JUMPDEST PUSH0 PUSH1 0x20 DUP3 ADD SWAP1 POP PUSH2 0x36DF PUSH0 DUP4 ADD DUP5 PUSH2 0x36BD JUMP JUMPDEST SWAP3 SWAP2 POP POP JUMP JUMPDEST PUSH0 DUP2 MLOAD SWAP1 POP SWAP2 SWAP1 POP JUMP JUMPDEST PUSH0 DUP3 DUP3 MSTORE PUSH1 0x20 DUP3 ADD SWAP1 POP SWAP3 SWAP2 POP POP JUMP JUMPDEST PUSH0 DUP2 SWAP1 POP PUSH1 0x20 DUP3 ADD SWAP1 POP SWAP2 SWAP1 POP JUMP JUMPDEST PUSH2 0x3717 DUP2 PUSH2 0x3353 JUMP JUMPDEST DUP3 MSTORE POP POP JUMP JUMPDEST PUSH0 PUSH2 0x3728 DUP4 DUP4 PUSH2 0x370E JUMP JUMPDEST PUSH1 0x20 DUP4 ADD SWAP1 POP SWAP3 SWAP2 POP POP JUMP JUMPDEST PUSH0 PUSH1 0x20 DUP3 ADD SWAP1 POP SWAP2 SWAP1 POP JUMP JUMPDEST PUSH0 PUSH2 0x374A DUP3 PUSH2 0x36E5 JUMP JUMPDEST PUSH2 0x3754 DUP2 DUP6 PUSH2 0x36EF JUMP JUMPDEST SWAP4 POP PUSH2 0x375F DUP4 PUSH2 0x36FF JUMP JUMPDEST DUP1 PUSH0 JUMPDEST DUP4 DUP2 LT ISZERO PUSH2 0x378F JUMPI DUP2 MLOAD PUSH2 0x3776 DUP9 DUP3 PUSH2 0x371D JUMP JUMPDEST SWAP8 POP PUSH2 0x3781 DUP4 PUSH2 0x3734 JUMP JUMPDEST SWAP3 POP POP PUSH1 0x1 DUP2 ADD SWAP1 POP PUSH2 0x3762 JUMP JUMPDEST POP DUP6 SWAP4 POP POP POP POP SWAP3 SWAP2 POP POP JUMP JUMPDEST PUSH0 PUSH1 0x20 DUP3 ADD SWAP1 POP DUP2 DUP2 SUB PUSH0 DUP4 ADD MSTORE PUSH2 0x37B4 DUP2 DUP5 PUSH2 0x3740 JUMP JUMPDEST SWAP1 POP SWAP3 SWAP2 POP POP JUMP JUMPDEST PUSH0 DUP1 REVERT JUMPDEST PUSH0 PUSH1 0xE0 DUP3 DUP5 SUB SLT ISZERO PUSH2 0x37D5 JUMPI PUSH2 0x37D4 PUSH2 0x37BC JUMP JUMPDEST JUMPDEST DUP2 SWAP1 POP SWAP3 SWAP2 POP POP JUMP JUMPDEST PUSH0 PUSH1 0x20 DUP3 DUP5 SUB SLT ISZERO PUSH2 0x37F3 JUMPI PUSH2 0x37F2 PUSH2 0x334B JUMP JUMPDEST JUMPDEST PUSH0 DUP3 ADD CALLDATALOAD PUSH8 0xFFFFFFFFFFFFFFFF DUP2 GT ISZERO PUSH2 0x3810 JUMPI PUSH2 0x380F PUSH2 0x334F JUMP JUMPDEST JUMPDEST PUSH2 0x381C DUP5 DUP3 DUP6 ADD PUSH2 0x37C0 JUMP JUMPDEST SWAP2 POP POP SWAP3 SWAP2 POP POP JUMP JUMPDEST PUSH0 PUSH1 0x80 DUP4 ADD PUSH0 DUP4 ADD MLOAD DUP5 DUP3 SUB PUSH0 DUP7 ADD MSTORE PUSH2 0x383F DUP3 DUP3 PUSH2 0x345A JUMP JUMPDEST SWAP2 POP POP PUSH1 0x20 DUP4 ADD MLOAD DUP5 DUP3 SUB PUSH1 0x20 DUP7 ADD MSTORE PUSH2 0x3859 DUP3 DUP3 PUSH2 0x345A JUMP JUMPDEST SWAP2 POP POP PUSH1 0x40 DUP4 ADD MLOAD PUSH2 0x386E PUSH1 0x40 DUP7 ADD DUP3 PUSH2 0x349B JUMP JUMPDEST POP PUSH1 0x60 DUP4 ADD MLOAD PUSH2 0x3881 PUSH1 0x60 DUP7 ADD DUP3 PUSH2 0x349B JUMP JUMPDEST POP DUP1 SWAP2 POP POP SWAP3 SWAP2 POP POP JUMP JUMPDEST PUSH2 0x3895 DUP2 PUSH2 0x3511 JUMP JUMPDEST DUP3 MSTORE POP POP JUMP JUMPDEST PUSH2 0x38A4 DUP2 PUSH2 0x3531 JUMP JUMPDEST DUP3 MSTORE POP POP JUMP JUMPDEST PUSH0 PUSH2 0x120 DUP4 ADD PUSH0 DUP4 ADD MLOAD PUSH2 0x38C0 PUSH0 DUP7 ADD DUP3 PUSH2 0x370E JUMP JUMPDEST POP PUSH1 0x20 DUP4 ADD MLOAD DUP5 DUP3 SUB PUSH1 0x20 DUP7 ADD MSTORE PUSH2 0x38D8 DUP3 DUP3 PUSH2 0x345A JUMP JUMPDEST SWAP2 POP POP PUSH1 0x40 DUP4 ADD MLOAD DUP5 DUP3 SUB PUSH1 0x40 DUP7 ADD MSTORE PUSH2 0x38F2 DUP3 DUP3 PUSH2 0x345A JUMP JUMPDEST SWAP2 POP POP PUSH1 0x60 DUP4 ADD MLOAD DUP5 DUP3 SUB PUSH1 0x60 DUP7 ADD MSTORE PUSH2 0x390C DUP3 DUP3 PUSH2 0x3825 JUMP JUMPDEST SWAP2 POP POP PUSH1 0x80 DUP4 ADD MLOAD PUSH2 0x3921 PUSH1 0x80 DUP7 ADD DUP3 PUSH2 0x388C JUMP JUMPDEST POP PUSH1 0xA0 DUP4 ADD MLOAD PUSH2 0x3934 PUSH1 0xA0 DUP7 ADD DUP3 PUSH2 0x370E JUMP JUMPDEST POP PUSH1 0xC0 DUP4 ADD MLOAD PUSH2 0x3947 PUSH1 0xC0 DUP7 ADD DUP3 PUSH2 0x389B JUMP JUMPDEST POP PUSH1 0xE0 DUP4 ADD MLOAD PUSH2 0x395A PUSH1 0xE0 DUP7 ADD DUP3 PUSH2 0x370E JUMP JUMPDEST POP PUSH2 0x100 DUP4 ADD MLOAD PUSH2 0x396F PUSH2 0x100 DUP7 ADD DUP3 PUSH2 0x370E JUMP JUMPDEST POP DUP1 SWAP2 POP POP SWAP3 SWAP2 POP POP JUMP JUMPDEST PUSH0 PUSH1 0x20 DUP3 ADD SWAP1 POP DUP2 DUP2 SUB PUSH0 DUP4 ADD MSTORE PUSH2 0x3992 DUP2 DUP5 PUSH2 0x38AA JUMP JUMPDEST SWAP1 POP SWAP3 SWAP2 POP POP JUMP JUMPDEST PUSH0 PUSH1 0xE0 DUP3 ADD SWAP1 POP PUSH2 0x39AD PUSH0 DUP4 ADD DUP11 PUSH2 0x3522 JUMP JUMPDEST DUP2 DUP2 SUB PUSH1 0x20 DUP4 ADD MSTORE PUSH2 0x39BF DUP2 DUP10 PUSH2 0x3412 JUMP JUMPDEST SWAP1 POP DUP2 DUP2 SUB PUSH1 0x40 DUP4 ADD MSTORE PUSH2 0x39D3 DUP2 DUP9 PUSH2 0x3412 JUMP JUMPDEST SWAP1 POP DUP2 DUP2 SUB PUSH1 0x60 DUP4 ADD MSTORE PUSH2 0x39E7 DUP2 DUP8 PUSH2 0x34AA JUMP JUMPDEST SWAP1 POP PUSH2 0x39F6 PUSH1 0x80 DUP4 ADD DUP7 PUSH2 0x33B1 JUMP JUMPDEST PUSH2 0x3A03 PUSH1 0xA0 DUP4 ADD DUP6 PUSH2 0x353C JUMP JUMPDEST PUSH2 0x3A10 PUSH1 0xC0 DUP4 ADD DUP5 PUSH2 0x353C JUMP JUMPDEST SWAP9 SWAP8 POP POP POP POP POP POP POP POP JUMP JUMPDEST PUSH32 0x4E487B7100000000000000000000000000000000000000000000000000000000 PUSH0 MSTORE PUSH1 0x22 PUSH1 0x4 MSTORE PUSH1 0x24 PUSH0 REVERT JUMPDEST PUSH0 PUSH1 0x2 DUP3 DIV SWAP1 POP PUSH1 0x1 DUP3 AND DUP1 PUSH2 0x3A60 JUMPI PUSH1 0x7F DUP3 AND SWAP2 POP JUMPDEST PUSH1 0x20 DUP3 LT DUP2 SUB PUSH2 0x3A73 JUMPI PUSH2 0x3A72 PUSH2 0x3A1C JUMP JUMPDEST JUMPDEST POP SWAP2 SWAP1 POP JUMP JUMPDEST PUSH0 DUP2 SWAP1 POP SWAP2 SWAP1 POP JUMP JUMPDEST PUSH2 0x3A8B DUP2 PUSH2 0x3A79 JUMP JUMPDEST DUP2 EQ PUSH2 0x3A95 JUMPI PUSH0 DUP1 REVERT JUMPDEST POP JUMP JUMPDEST PUSH0 DUP2 MLOAD SWAP1 POP PUSH2 0x3AA6 DUP2 PUSH2 0x3A82 JUMP JUMPDEST SWAP3 SWAP2 POP POP JUMP JUMPDEST PUSH0 PUSH1 0x20 DUP3 DUP5 SUB SLT ISZERO PUSH2 0x3AC1 JUMPI PUSH2 0x3AC0 PUSH2 0x334B JUMP JUMPDEST JUMPDEST PUSH0 PUSH2 0x3ACE DUP5 DUP3 DUP6 ADD PUSH2 0x3A98 JUMP JUMPDEST SWAP2 POP POP SWAP3 SWAP2 POP POP JUMP JUMPDEST PUSH2 0x3AE0 DUP2 PUSH2 0x3A79 JUMP JUMPDEST DUP3 MSTORE POP POP JUMP JUMPDEST PUSH0 PUSH1 0x40 DUP3 ADD SWAP1 POP PUSH2 0x3AF9 PUSH0 DUP4 ADD DUP6 PUSH2 0x3AD7 JUMP JUMPDEST PUSH2 0x3B06 PUSH1 0x20 DUP4 ADD DUP5 PUSH2 0x3522 JUMP JUMPDEST SWAP4 SWAP3 POP POP POP JUMP JUMPDEST PUSH2 0x3B16 DUP2 PUSH2 0x3531 JUMP JUMPDEST DUP2 EQ PUSH2 0x3B20 JUMPI PUSH0 DUP1 REVERT JUMPDEST POP JUMP JUMPDEST PUSH0 DUP2 MLOAD SWAP1 POP PUSH2 0x3B31 DUP2 PUSH2 0x3B0D JUMP JUMPDEST SWAP3 SWAP2 POP POP JUMP JUMPDEST PUSH0 PUSH1 0x20 DUP3 DUP5 SUB SLT ISZERO PUSH2 0x3B4C JUMPI PUSH2 0x3B4B PUSH2 0x334B JUMP JUMPDEST JUMPDEST PUSH0 PUSH2 0x3B59 DUP5 DUP3 DUP6 ADD PUSH2 0x3B23 JUMP JUMPDEST SWAP2 POP POP SWAP3 SWAP2 POP POP JUMP JUMPDEST PUSH32 0x43616C6C6572206973206E6F7420616E2061646D696E00000000000000000000 PUSH0 DUP3 ADD MSTORE POP JUMP JUMPDEST PUSH0 PUSH2 0x3B96 PUSH1 0x16 DUP4 PUSH2 0x33CA JUMP JUMPDEST SWAP2 POP PUSH2 0x3BA1 DUP3 PUSH2 0x3B62 JUMP JUMPDEST PUSH1 0x20 DUP3 ADD SWAP1 POP SWAP2 SWAP1 POP JUMP JUMPDEST PUSH0 PUSH1 0x20 DUP3 ADD SWAP1 POP DUP2 DUP2 SUB PUSH0 DUP4 ADD MSTORE PUSH2 0x3BC3 DUP2 PUSH2 0x3B8A JUMP JUMPDEST SWAP1 POP SWAP2 SWAP1 POP JUMP JUMPDEST PUSH32 0x496E76616C69642070657263656E746167650000000000000000000000000000 PUSH0 DUP3 ADD MSTORE POP JUMP JUMPDEST PUSH0 PUSH2 0x3BFE PUSH1 0x12 DUP4 PUSH2 0x33CA JUMP JUMPDEST SWAP2 POP PUSH2 0x3C09 DUP3 PUSH2 0x3BCA JUMP JUMPDEST PUSH1 0x20 DUP3 ADD SWAP1 POP SWAP2 SWAP1 POP JUMP JUMPDEST PUSH0 PUSH1 0x20 DUP3 ADD SWAP1 POP DUP2 DUP2 SUB PUSH0 DUP4 ADD MSTORE PUSH2 0x3C2B DUP2 PUSH2 0x3BF2 JUMP JUMPDEST SWAP1 POP SWAP2 SWAP1 POP JUMP JUMPDEST PUSH32 0x43616C6C6572206973206E6F74207468652067616C6C657279206F776E657200 PUSH0 DUP3 ADD MSTORE POP JUMP JUMPDEST PUSH0 PUSH2 0x3C66 PUSH1 0x1F DUP4 PUSH2 0x33CA JUMP JUMPDEST SWAP2 POP PUSH2 0x3C71 DUP3 PUSH2 0x3C32 JUMP JUMPDEST PUSH1 0x20 DUP3 ADD SWAP1 POP SWAP2 SWAP1 POP JUMP JUMPDEST PUSH0 PUSH1 0x20 DUP3 ADD SWAP1 POP DUP2 DUP2 SUB PUSH0 DUP4 ADD MSTORE PUSH2 0x3C93 DUP2 PUSH2 0x3C5A JUMP JUMPDEST SWAP1 POP SWAP2 SWAP1 POP JUMP JUMPDEST PUSH32 0x52657175657374206E6F742070656E64696E6700000000000000000000000000 PUSH0 DUP3 ADD MSTORE POP JUMP JUMPDEST PUSH0 PUSH2 0x3CCE PUSH1 0x13 DUP4 PUSH2 0x33CA JUMP JUMPDEST SWAP2 POP PUSH2 0x3CD9 DUP3 PUSH2 0x3C9A JUMP JUMPDEST PUSH1 0x20 DUP3 ADD SWAP1 POP SWAP2 SWAP1 POP JUMP JUMPDEST PUSH0 PUSH1 0x20 DUP3 ADD SWAP1 POP DUP2 DUP2 SUB PUSH0 DUP4 ADD MSTORE PUSH2 0x3CFB DUP2 PUSH2 0x3CC2 JUMP JUMPDEST SWAP1 POP SWAP2 SWAP1 POP JUMP JUMPDEST PUSH32 0x47616C6C657279206E6F74206163746976650000000000000000000000000000 PUSH0 DUP3 ADD MSTORE POP JUMP JUMPDEST PUSH0 PUSH2 0x3D36 PUSH1 0x12 DUP4 PUSH2 0x33CA JUMP JUMPDEST SWAP2 POP PUSH2 0x3D41 DUP3 PUSH2 0x3D02 JUMP JUMPDEST PUSH1 0x20 DUP3 ADD SWAP1 POP SWAP2 SWAP1 POP JUMP JUMPDEST PUSH0 PUSH1 0x20 DUP3 ADD SWAP1 POP DUP2 DUP2 SUB PUSH0 DUP4 ADD MSTORE PUSH2 0x3D63 DUP2 PUSH2 0x3D2A JUMP JUMPDEST SWAP1 POP SWAP2 SWAP1 POP JUMP JUMPDEST PUSH0 DUP2 SWAP1 POP SWAP2 SWAP1 POP JUMP JUMPDEST PUSH0 PUSH2 0x3D8D PUSH2 0x3D88 PUSH2 0x3D83 DUP5 PUSH2 0x3D6A JUMP JUMPDEST PUSH2 0x32D7 JUMP JUMPDEST PUSH2 0x3353 JUMP JUMPDEST SWAP1 POP SWAP2 SWAP1 POP JUMP JUMPDEST PUSH2 0x3D9D DUP2 PUSH2 0x3D73 JUMP JUMPDEST DUP3 MSTORE POP POP JUMP JUMPDEST PUSH0 PUSH1 0x60 DUP3 ADD SWAP1 POP PUSH2 0x3DB6 PUSH0 DUP4 ADD DUP7 PUSH2 0x33B1 JUMP JUMPDEST PUSH2 0x3DC3 PUSH1 0x20 DUP4 ADD DUP6 PUSH2 0x3D94 JUMP JUMPDEST PUSH2 0x3DD0 PUSH1 0x40 DUP4 ADD DUP5 PUSH2 0x353C JUMP JUMPDEST SWAP5 SWAP4 POP POP POP POP JUMP JUMPDEST PUSH32 0x4D75737420686176652057414C4C5F4F574E45525F524F4C4500000000000000 PUSH0 DUP3 ADD MSTORE POP JUMP JUMPDEST PUSH0 PUSH2 0x3E0C PUSH1 0x19 DUP4 PUSH2 0x33CA JUMP JUMPDEST SWAP2 POP PUSH2 0x3E17 DUP3 PUSH2 0x3DD8 JUMP JUMPDEST PUSH1 0x20 DUP3 ADD SWAP1 POP SWAP2 SWAP1 POP JUMP JUMPDEST PUSH0 PUSH1 0x20 DUP3 ADD SWAP1 POP DUP2 DUP2 SUB PUSH0 DUP4 ADD MSTORE PUSH2 0x3E39 DUP2 PUSH2 0x3E00 JUMP JUMPDEST SWAP1 POP SWAP2 SWAP1 POP JUMP JUMPDEST PUSH0 DUP2 MLOAD SWAP1 POP PUSH2 0x3E4E DUP2 PUSH2 0x335C JUMP JUMPDEST SWAP3 SWAP2 POP POP JUMP JUMPDEST PUSH2 0x3E5D DUP2 PUSH2 0x3511 JUMP JUMPDEST DUP2 EQ PUSH2 0x3E67 JUMPI PUSH0 DUP1 REVERT JUMPDEST POP JUMP JUMPDEST PUSH0 DUP2 MLOAD SWAP1 POP PUSH2 0x3E78 DUP2 PUSH2 0x3E54 JUMP JUMPDEST SWAP3 SWAP2 POP POP JUMP JUMPDEST PUSH0 DUP1 PUSH0 DUP1 PUSH0 DUP1 PUSH1 0xC0 DUP8 DUP10 SUB SLT ISZERO PUSH2 0x3E98 JUMPI PUSH2 0x3E97 PUSH2 0x334B JUMP JUMPDEST JUMPDEST PUSH0 PUSH2 0x3EA5 DUP10 DUP3 DUP11 ADD PUSH2 0x3E40 JUMP JUMPDEST SWAP7 POP POP PUSH1 0x20 PUSH2 0x3EB6 DUP10 DUP3 DUP11 ADD PUSH2 0x3E6A JUMP JUMPDEST SWAP6 POP POP PUSH1 0x40 PUSH2 0x3EC7 DUP10 DUP3 DUP11 ADD PUSH2 0x3E40 JUMP JUMPDEST SWAP5 POP POP PUSH1 0x60 PUSH2 0x3ED8 DUP10 DUP3 DUP11 ADD PUSH2 0x3E40 JUMP JUMPDEST SWAP4 POP POP PUSH1 0x80 PUSH2 0x3EE9 DUP10 DUP3 DUP11 ADD PUSH2 0x3B23 JUMP JUMPDEST SWAP3 POP POP PUSH1 0xA0 PUSH2 0x3EFA DUP10 DUP3 DUP11 ADD PUSH2 0x3E40 JUMP JUMPDEST SWAP2 POP POP SWAP3 SWAP6 POP SWAP3 SWAP6 POP SWAP3 SWAP6 JUMP JUMPDEST PUSH32 0x4E6F742077616C6C206F776E6572000000000000000000000000000000000000 PUSH0 DUP3 ADD MSTORE POP JUMP JUMPDEST PUSH0 PUSH2 0x3F3B PUSH1 0xE DUP4 PUSH2 0x33CA JUMP JUMPDEST SWAP2 POP PUSH2 0x3F46 DUP3 PUSH2 0x3F07 JUMP JUMPDEST PUSH1 0x20 DUP3 ADD SWAP1 POP SWAP2 SWAP1 POP JUMP JUMPDEST PUSH0 PUSH1 0x20 DUP3 ADD SWAP1 POP DUP2 DUP2 SUB PUSH0 DUP4 ADD MSTORE PUSH2 0x3F68 DUP2 PUSH2 0x3F2F JUMP JUMPDEST SWAP1 POP SWAP2 SWAP1 POP JUMP JUMPDEST PUSH32 0x57616C6C20616C726561647920696E20612067616C6C65727900000000000000 PUSH0 DUP3 ADD MSTORE POP JUMP JUMPDEST PUSH0 PUSH2 0x3FA3 PUSH1 0x19 DUP4 PUSH2 0x33CA JUMP JUMPDEST SWAP2 POP PUSH2 0x3FAE DUP3 PUSH2 0x3F6F JUMP JUMPDEST PUSH1 0x20 DUP3 ADD SWAP1 POP SWAP2 SWAP1 POP JUMP JUMPDEST PUSH0 PUSH1 0x20 DUP3 ADD SWAP1 POP DUP2 DUP2 SUB PUSH0 DUP4 ADD MSTORE PUSH2 0x3FD0 DUP2 PUSH2 0x3F97 JUMP JUMPDEST SWAP1 POP SWAP2 SWAP1 POP JUMP JUMPDEST PUSH32 0x4E487B7100000000000000000000000000000000000000000000000000000000 PUSH0 MSTORE PUSH1 0x11 PUSH1 0x4 MSTORE PUSH1 0x24 PUSH0 REVERT JUMPDEST PUSH0 PUSH2 0x400E DUP3 PUSH2 0x3353 JUMP JUMPDEST SWAP2 POP PUSH2 0x4019 DUP4 PUSH2 0x3353 JUMP JUMPDEST SWAP3 POP DUP3 DUP3 ADD SWAP1 POP DUP1 DUP3 GT ISZERO PUSH2 0x4031 JUMPI PUSH2 0x4030 PUSH2 0x3FD7 JUMP JUMPDEST JUMPDEST SWAP3 SWAP2 POP POP JUMP JUMPDEST PUSH32 0x546F74616C2070657263656E7461676520657863656564732031303025000000 PUSH0 DUP3 ADD MSTORE POP JUMP JUMPDEST PUSH0 PUSH2 0x406B PUSH1 0x1D DUP4 PUSH2 0x33CA JUMP JUMPDEST SWAP2 POP PUSH2 0x4076 DUP3 PUSH2 0x4037 JUMP JUMPDEST PUSH1 0x20 DUP3 ADD SWAP1 POP SWAP2 SWAP1 POP JUMP JUMPDEST PUSH0 PUSH1 0x20 DUP3 ADD SWAP1 POP DUP2 DUP2 SUB PUSH0 DUP4 ADD MSTORE PUSH2 0x4098 DUP2 PUSH2 0x405F JUMP JUMPDEST SWAP1 POP SWAP2 SWAP1 POP JUMP JUMPDEST PUSH32 0x4D75737420686176652047414C4C4552595F4F574E45525F524F4C4500000000 PUSH0 DUP3 ADD MSTORE POP JUMP JUMPDEST PUSH0 PUSH2 0x40D3 PUSH1 0x1C DUP4 PUSH2 0x33CA JUMP JUMPDEST SWAP2 POP PUSH2 0x40DE DUP3 PUSH2 0x409F JUMP JUMPDEST PUSH1 0x20 DUP3 ADD SWAP1 POP SWAP2 SWAP1 POP JUMP JUMPDEST PUSH0 PUSH1 0x20 DUP3 ADD SWAP1 POP DUP2 DUP2 SUB PUSH0 DUP4 ADD MSTORE PUSH2 0x4100 DUP2 PUSH2 0x40C7 JUMP JUMPDEST SWAP1 POP SWAP2 SWAP1 POP JUMP JUMPDEST PUSH0 DUP1 REVERT JUMPDEST PUSH0 DUP1 REVERT JUMPDEST PUSH0 DUP1 REVERT JUMPDEST PUSH0 DUP1 DUP4 CALLDATALOAD PUSH1 0x1 PUSH1 0x20 SUB DUP5 CALLDATASIZE SUB SUB DUP2 SLT PUSH2 0x412F JUMPI PUSH2 0x412E PUSH2 0x4107 JUMP JUMPDEST JUMPDEST DUP1 DUP5 ADD SWAP3 POP DUP3 CALLDATALOAD SWAP2 POP PUSH8 0xFFFFFFFFFFFFFFFF DUP3 GT ISZERO PUSH2 0x4151 JUMPI PUSH2 0x4150 PUSH2 0x410B JUMP JUMPDEST JUMPDEST PUSH1 0x20 DUP4 ADD SWAP3 POP PUSH1 0x1 DUP3 MUL CALLDATASIZE SUB DUP4 SGT ISZERO PUSH2 0x416D JUMPI PUSH2 0x416C PUSH2 0x410F JUMP JUMPDEST JUMPDEST POP SWAP3 POP SWAP3 SWAP1 POP JUMP JUMPDEST PUSH32 0x4E616D6520726571756972656400000000000000000000000000000000000000 PUSH0 DUP3 ADD MSTORE POP JUMP JUMPDEST PUSH0 PUSH2 0x41A9 PUSH1 0xD DUP4 PUSH2 0x33CA JUMP JUMPDEST SWAP2 POP PUSH2 0x41B4 DUP3 PUSH2 0x4175 JUMP JUMPDEST PUSH1 0x20 DUP3 ADD SWAP1 POP SWAP2 SWAP1 POP JUMP JUMPDEST PUSH0 PUSH1 0x20 DUP3 ADD SWAP1 POP DUP2 DUP2 SUB PUSH0 DUP4 ADD MSTORE PUSH2 0x41D6 DUP2 PUSH2 0x419D JUMP JUMPDEST SWAP1 POP SWAP2 SWAP1 POP JUMP JUMPDEST PUSH32 0x4D6178206F776E6572736869702070657263656E746167652069732035302500 PUSH0 DUP3 ADD MSTORE POP JUMP JUMPDEST PUSH0 PUSH2 0x4211 PUSH1 0x1F DUP4 PUSH2 0x33CA JUMP JUMPDEST SWAP2 POP PUSH2 0x421C DUP3 PUSH2 0x41DD JUMP JUMPDEST PUSH1 0x20 DUP3 ADD SWAP1 POP SWAP2 SWAP1 POP JUMP JUMPDEST PUSH0 PUSH1 0x20 DUP3 ADD SWAP1 POP DUP2 DUP2 SUB PUSH0 DUP4 ADD MSTORE PUSH2 0x423E DUP2 PUSH2 0x4205 JUMP JUMPDEST SWAP1 POP SWAP2 SWAP1 POP JUMP JUMPDEST PUSH32 0x4E487B7100000000000000000000000000000000000000000000000000000000 PUSH0 MSTORE PUSH1 0x41 PUSH1 0x4 MSTORE PUSH1 0x24 PUSH0 REVERT JUMPDEST PUSH0 DUP2 SWAP1 POP DUP2 PUSH0 MSTORE PUSH1 0x20 PUSH0 KECCAK256 SWAP1 POP SWAP2 SWAP1 POP JUMP JUMPDEST PUSH0 PUSH1 0x20 PUSH1 0x1F DUP4 ADD DIV SWAP1 POP SWAP2 SWAP1 POP JUMP JUMPDEST PUSH0 DUP3 DUP3 SHL SWAP1 POP SWAP3 SWAP2 POP POP JUMP JUMPDEST PUSH0 PUSH1 0x8 DUP4 MUL PUSH2 0x42CE PUSH32 0xFFFFFFFFFFFFFFFFFFFFFFFFFFFFFFFFFFFFFFFFFFFFFFFFFFFFFFFFFFFFFFFF DUP3 PUSH2 0x4293 JUMP JUMPDEST PUSH2 0x42D8 DUP7 DUP4 PUSH2 0x4293 JUMP JUMPDEST SWAP6 POP DUP1 NOT DUP5 AND SWAP4 POP DUP1 DUP7 AND DUP5 OR SWAP3 POP POP POP SWAP4 SWAP3 POP POP POP JUMP JUMPDEST PUSH0 PUSH2 0x430A PUSH2 0x4305 PUSH2 0x4300 DUP5 PUSH2 0x3353 JUMP JUMPDEST PUSH2 0x32D7 JUMP JUMPDEST PUSH2 0x3353 JUMP JUMPDEST SWAP1 POP SWAP2 SWAP1 POP JUMP JUMPDEST PUSH0 DUP2 SWAP1 POP SWAP2 SWAP1 POP JUMP JUMPDEST PUSH2 0x4323 DUP4 PUSH2 0x42F0 JUMP JUMPDEST PUSH2 0x4337 PUSH2 0x432F DUP3 PUSH2 0x4311 JUMP JUMPDEST DUP5 DUP5 SLOAD PUSH2 0x429F JUMP JUMPDEST DUP3 SSTORE POP POP POP POP JUMP JUMPDEST PUSH0 SWAP1 JUMP JUMPDEST PUSH2 0x434B PUSH2 0x433F JUMP JUMPDEST PUSH2 0x4356 DUP2 DUP5 DUP5 PUSH2 0x431A JUMP JUMPDEST POP POP POP JUMP JUMPDEST JUMPDEST DUP2 DUP2 LT ISZERO PUSH2 0x4379 JUMPI PUSH2 0x436E PUSH0 DUP3 PUSH2 0x4343 JUMP JUMPDEST PUSH1 0x1 DUP2 ADD SWAP1 POP PUSH2 0x435C JUMP JUMPDEST POP POP JUMP JUMPDEST PUSH1 0x1F DUP3 GT ISZERO PUSH2 0x43BE JUMPI PUSH2 0x438F DUP2 PUSH2 0x4272 JUMP JUMPDEST PUSH2 0x4398 DUP5 PUSH2 0x4284 JUMP JUMPDEST DUP2 ADD PUSH1 0x20 DUP6 LT ISZERO PUSH2 0x43A7 JUMPI DUP2 SWAP1 POP JUMPDEST PUSH2 0x43BB PUSH2 0x43B3 DUP6 PUSH2 0x4284 JUMP JUMPDEST DUP4 ADD DUP3 PUSH2 0x435B JUMP JUMPDEST POP POP JUMPDEST POP POP POP JUMP JUMPDEST PUSH0 DUP3 DUP3 SHR SWAP1 POP SWAP3 SWAP2 POP POP JUMP JUMPDEST PUSH0 PUSH2 0x43DE PUSH0 NOT DUP5 PUSH1 0x8 MUL PUSH2 0x43C3 JUMP JUMPDEST NOT DUP1 DUP4 AND SWAP2 POP POP SWAP3 SWAP2 POP POP JUMP JUMPDEST PUSH0 PUSH2 0x43F6 DUP4 DUP4 PUSH2 0x43CF JUMP JUMPDEST SWAP2 POP DUP3 PUSH1 0x2 MUL DUP3 OR SWAP1 POP SWAP3 SWAP2 POP POP JUMP JUMPDEST PUSH2 0x440F DUP3 PUSH2 0x33C0 JUMP JUMPDEST PUSH8 0xFFFFFFFFFFFFFFFF DUP2 GT ISZERO PUSH2 0x4428 JUMPI PUSH2 0x4427 PUSH2 0x4245 JUMP JUMPDEST JUMPDEST PUSH2 0x4432 DUP3 SLOAD PUSH2 0x3A49 JUMP JUMPDEST PUSH2 0x443D DUP3 DUP3 DUP6 PUSH2 0x437D JUMP JUMPDEST PUSH0 PUSH1 0x20 SWAP1 POP PUSH1 0x1F DUP4 GT PUSH1 0x1 DUP2 EQ PUSH2 0x446E JUMPI PUSH0 DUP5 ISZERO PUSH2 0x445C JUMPI DUP3 DUP8 ADD MLOAD SWAP1 POP JUMPDEST PUSH2 0x4466 DUP6 DUP3 PUSH2 0x43EB JUMP JUMPDEST DUP7 SSTORE POP PUSH2 0x44CD JUMP JUMPDEST PUSH1 0x1F NOT DUP5 AND PUSH2 0x447C DUP7 PUSH2 0x4272 JUMP JUMPDEST PUSH0 JUMPDEST DUP3 DUP2 LT ISZERO PUSH2 0x44A3 JUMPI DUP5 DUP10 ADD MLOAD DUP3 SSTORE PUSH1 0x1 DUP3 ADD SWAP2 POP PUSH1 0x20 DUP6 ADD SWAP5 POP PUSH1 0x20 DUP2 ADD SWAP1 POP PUSH2 0x447E JUMP JUMPDEST DUP7 DUP4 LT ISZERO PUSH2 0x44C0 JUMPI DUP5 DUP10 ADD MLOAD PUSH2 0x44BC PUSH1 0x1F DUP10 AND DUP3 PUSH2 0x43CF JUMP JUMPDEST DUP4 SSTORE POP JUMPDEST PUSH1 0x1 PUSH1 0x2 DUP9 MUL ADD DUP9 SSTORE POP POP POP JUMPDEST POP POP POP POP POP POP JUMP JUMPDEST PUSH32 0x526571756573746572206D757374206D61696E7461696E2047414C4C4552595F PUSH0 DUP3 ADD MSTORE PUSH32 0x4F574E45525F524F4C4500000000000000000000000000000000000000000000 PUSH1 0x20 DUP3 ADD MSTORE POP JUMP JUMPDEST PUSH0 PUSH2 0x452F PUSH1 0x2A DUP4 PUSH2 0x33CA JUMP JUMPDEST SWAP2 POP PUSH2 0x453A DUP3 PUSH2 0x44D5 JUMP JUMPDEST PUSH1 0x40 DUP3 ADD SWAP1 POP SWAP2 SWAP1 POP JUMP JUMPDEST PUSH0 PUSH1 0x20 DUP3 ADD SWAP1 POP DUP2 DUP2 SUB PUSH0 DUP4 ADD MSTORE PUSH2 0x455C DUP2 PUSH2 0x4523 JUMP JUMPDEST SWAP1 POP SWAP2 SWAP1 POP JUMP JUMPDEST PUSH32 0x57616C6C206F776E6572206D757374206D61696E7461696E2057414C4C5F4F57 PUSH0 DUP3 ADD MSTORE PUSH32 0x4E45525F524F4C45000000000000000000000000000000000000000000000000 PUSH1 0x20 DUP3 ADD MSTORE POP JUMP JUMPDEST PUSH0 PUSH2 0x45BD PUSH1 0x28 DUP4 PUSH2 0x33CA JUMP JUMPDEST SWAP2 POP PUSH2 0x45C8 DUP3 PUSH2 0x4563 JUMP JUMPDEST PUSH1 0x40 DUP3 ADD SWAP1 POP SWAP2 SWAP1 POP JUMP JUMPDEST PUSH0 PUSH1 0x20 DUP3 ADD SWAP1 POP DUP2 DUP2 SUB PUSH0 DUP4 ADD MSTORE PUSH2 0x45EA DUP2 PUSH2 0x45B1 JUMP JUMPDEST SWAP1 POP SWAP2 SWAP1 POP JUMP JUMPDEST PUSH0 PUSH1 0x60 DUP3 ADD SWAP1 POP PUSH2 0x4604 PUSH0 DUP4 ADD DUP7 PUSH2 0x33B1 JUMP JUMPDEST PUSH2 0x4611 PUSH1 0x20 DUP4 ADD DUP6 PUSH2 0x33B1 JUMP JUMPDEST PUSH2 0x461E PUSH1 0x40 DUP4 ADD DUP5 PUSH2 0x353C JUMP JUMPDEST SWAP5 SWAP4 POP POP POP POP JUMP JUMPDEST PUSH0 PUSH1 0x20 DUP3 ADD SWAP1 POP PUSH2 0x4639 PUSH0 DUP4 ADD DUP5 PUSH2 0x3522 JUMP JUMPDEST SWAP3 SWAP2 POP POP JUMP JUMPDEST PUSH32 0x5061757361626C653A2070617573656400000000000000000000000000000000 PUSH0 DUP3 ADD MSTORE POP JUMP JUMPDEST PUSH0 PUSH2 0x4673 PUSH1 0x10 DUP4 PUSH2 0x33CA JUMP JUMPDEST SWAP2 POP PUSH2 0x467E DUP3 PUSH2 0x463F JUMP JUMPDEST PUSH1 0x20 DUP3 ADD SWAP1 POP SWAP2 SWAP1 POP JUMP JUMPDEST PUSH0 PUSH1 0x20 DUP3 ADD SWAP1 POP DUP2 DUP2 SUB PUSH0 DUP4 ADD MSTORE PUSH2 0x46A0 DUP2 PUSH2 0x4667 JUMP JUMPDEST SWAP1 POP SWAP2 SWAP1 POP JUMP JUMPDEST PUSH32 0x4E487B7100000000000000000000000000000000000000000000000000000000 PUSH0 MSTORE PUSH1 0x32 PUSH1 0x4 MSTORE PUSH1 0x24 PUSH0 REVERT JUMPDEST PUSH0 PUSH2 0x46DE DUP3 PUSH2 0x3353 JUMP JUMPDEST SWAP2 POP PUSH2 0x46E9 DUP4 PUSH2 0x3353 JUMP JUMPDEST SWAP3 POP DUP3 DUP3 SUB SWAP1 POP DUP2 DUP2 GT ISZERO PUSH2 0x4701 JUMPI PUSH2 0x4700 PUSH2 0x3FD7 JUMP JUMPDEST JUMPDEST SWAP3 SWAP2 POP POP JUMP JUMPDEST PUSH32 0x4E487B7100000000000000000000000000000000000000000000000000000000 PUSH0 MSTORE PUSH1 0x31 PUSH1 0x4 MSTORE PUSH1 0x24 PUSH0 REVERT JUMPDEST PUSH0 PUSH2 0x473E DUP3 PUSH2 0x3353 JUMP JUMPDEST SWAP2 POP PUSH32 0xFFFFFFFFFFFFFFFFFFFFFFFFFFFFFFFFFFFFFFFFFFFFFFFFFFFFFFFFFFFFFFFF DUP3 SUB PUSH2 0x4770 JUMPI PUSH2 0x476F PUSH2 0x3FD7 JUMP JUMPDEST JUMPDEST PUSH1 0x1 DUP3 ADD SWAP1 POP SWAP2 SWAP1 POP JUMP JUMPDEST PUSH32 0x5061757361626C653A206E6F7420706175736564000000000000000000000000 PUSH0 DUP3 ADD MSTORE POP JUMP JUMPDEST PUSH0 PUSH2 0x47AF PUSH1 0x14 DUP4 PUSH2 0x33CA JUMP JUMPDEST SWAP2 POP PUSH2 0x47BA DUP3 PUSH2 0x477B JUMP JUMPDEST PUSH1 0x20 DUP3 ADD SWAP1 POP SWAP2 SWAP1 POP JUMP JUMPDEST PUSH0 PUSH1 0x20 DUP3 ADD SWAP1 POP DUP2 DUP2 SUB PUSH0 DUP4 ADD MSTORE PUSH2 0x47DC DUP2 PUSH2 0x47A3 JUMP JUMPDEST SWAP1 POP SWAP2 SWAP1 POP JUMP INVALID LOG2 PUSH5 0x6970667358 0x22 SLT KECCAK256 SUB SSTORE DUP3 COINBASE 0xC 0xC9 0xB0 0xE0 0xA6 0xCF PUSH16 0x8B5043596223BD4D8F1FCB16213D724F 0xC3 DUP13 0xEA DUP8 LOG3 PUSH5 0x736F6C6343 STOP ADDMOD EQ STOP CALLER "
				},
				"gasEstimates": {
					"creation": {
						"codeDepositCost": "3691400",
						"executionCost": "infinite",
						"totalCost": "infinite"
					},
					"external": {
						"approveGalleryRequest(uint256)": "infinite",
						"approveWallToGallery(uint256,uint256)": "infinite",
						"galleries(uint256)": "infinite",
						"galleryRequests(uint256)": "infinite",
						"galleryWalls(uint256,uint256)": "infinite",
						"getGallery(uint256)": "infinite",
						"getGalleryWalls(uint256)": "infinite",
						"pause()": "infinite",
						"paused()": "2540",
						"platformPercentage()": "2515",
						"rejectGalleryRequest(uint256)": "infinite",
						"rejectWallToGallery(uint256,uint256)": "infinite",
						"removeWallFromGallery(uint256,uint256)": "infinite",
						"requestGallery((string,string,string,string,int256,int256,uint256))": "infinite",
						"requestWallToGallery(uint256,uint256)": "infinite",
						"roleManager()": "infinite",
						"setPlatformPercentage(uint256)": "infinite",
						"unpause()": "infinite",
						"wallContract()": "infinite",
						"wallToGalleryRequests(uint256,uint256)": "infinite"
					},
					"internal": {
						"_removeWallFromGallery(uint256,uint256)": "infinite"
					}
				},
				"methodIdentifiers": {
					"approveGalleryRequest(uint256)": "f0c87bc7",
					"approveWallToGallery(uint256,uint256)": "f685d28f",
					"galleries(uint256)": "01640ca4",
					"galleryRequests(uint256)": "eaf4cc75",
					"galleryWalls(uint256,uint256)": "9eb99f55",
					"getGallery(uint256)": "e3fbf314",
					"getGalleryWalls(uint256)": "c705bc18",
					"pause()": "8456cb59",
					"paused()": "5c975abb",
					"platformPercentage()": "1f741897",
					"rejectGalleryRequest(uint256)": "cc88600b",
					"rejectWallToGallery(uint256,uint256)": "489b920f",
					"removeWallFromGallery(uint256,uint256)": "641a9350",
					"requestGallery((string,string,string,string,int256,int256,uint256))": "d328ec70",
					"requestWallToGallery(uint256,uint256)": "ab44ac83",
					"roleManager()": "00435da5",
					"setPlatformPercentage(uint256)": "14d39bad",
					"unpause()": "3f4ba83a",
					"wallContract()": "aad53a84",
					"wallToGalleryRequests(uint256,uint256)": "300d20a1"
				}
			},
			"storageLayout": {
				"storage": [
					{
						"astId": 17,
						"contract": "Gallery.sol:Gallery",
						"label": "_paused",
						"offset": 0,
						"slot": "0",
						"type": "t_bool"
					},
					{
						"astId": 276,
						"contract": "Gallery.sol:Gallery",
						"label": "roleManager",
						"offset": 1,
						"slot": "0",
						"type": "t_contract(IRoleManager)240"
					},
					{
						"astId": 279,
						"contract": "Gallery.sol:Gallery",
						"label": "wallContract",
						"offset": 0,
						"slot": "1",
						"type": "t_contract(IWall)267"
					},
					{
						"astId": 282,
						"contract": "Gallery.sol:Gallery",
						"label": "_galleryIds",
						"offset": 0,
						"slot": "2",
						"type": "t_struct(Counter)143_storage"
					},
					{
						"astId": 284,
						"contract": "Gallery.sol:Gallery",
						"label": "platformPercentage",
						"offset": 0,
						"slot": "3",
						"type": "t_uint256"
					},
					{
						"astId": 360,
						"contract": "Gallery.sol:Gallery",
						"label": "galleries",
						"offset": 0,
						"slot": "4",
						"type": "t_mapping(t_uint256,t_struct(GalleryData)313_storage)"
					},
					{
						"astId": 365,
						"contract": "Gallery.sol:Gallery",
						"label": "galleryRequests",
						"offset": 0,
						"slot": "5",
						"type": "t_mapping(t_uint256,t_struct(GalleryRequest)329_storage)"
					},
					{
						"astId": 372,
						"contract": "Gallery.sol:Gallery",
						"label": "wallToGalleryRequests",
						"offset": 0,
						"slot": "6",
						"type": "t_mapping(t_uint256,t_mapping(t_uint256,t_struct(WallToGalleryRequest)340_storage))"
					},
					{
						"astId": 377,
						"contract": "Gallery.sol:Gallery",
						"label": "galleryWalls",
						"offset": 0,
						"slot": "7",
						"type": "t_mapping(t_uint256,t_array(t_uint256)dyn_storage)"
					}
				],
				"types": {
					"t_address": {
						"encoding": "inplace",
						"label": "address",
						"numberOfBytes": "20"
					},
					"t_array(t_uint256)dyn_storage": {
						"base": "t_uint256",
						"encoding": "dynamic_array",
						"label": "uint256[]",
						"numberOfBytes": "32"
					},
					"t_bool": {
						"encoding": "inplace",
						"label": "bool",
						"numberOfBytes": "1"
					},
					"t_contract(IRoleManager)240": {
						"encoding": "inplace",
						"label": "contract IRoleManager",
						"numberOfBytes": "20"
					},
					"t_contract(IWall)267": {
						"encoding": "inplace",
						"label": "contract IWall",
						"numberOfBytes": "20"
					},
					"t_int256": {
						"encoding": "inplace",
						"label": "int256",
						"numberOfBytes": "32"
					},
					"t_mapping(t_uint256,t_array(t_uint256)dyn_storage)": {
						"encoding": "mapping",
						"key": "t_uint256",
						"label": "mapping(uint256 => uint256[])",
						"numberOfBytes": "32",
						"value": "t_array(t_uint256)dyn_storage"
					},
					"t_mapping(t_uint256,t_mapping(t_uint256,t_struct(WallToGalleryRequest)340_storage))": {
						"encoding": "mapping",
						"key": "t_uint256",
						"label": "mapping(uint256 => mapping(uint256 => struct Gallery.WallToGalleryRequest))",
						"numberOfBytes": "32",
						"value": "t_mapping(t_uint256,t_struct(WallToGalleryRequest)340_storage)"
					},
					"t_mapping(t_uint256,t_struct(GalleryData)313_storage)": {
						"encoding": "mapping",
						"key": "t_uint256",
						"label": "mapping(uint256 => struct Gallery.GalleryData)",
						"numberOfBytes": "32",
						"value": "t_struct(GalleryData)313_storage"
					},
					"t_mapping(t_uint256,t_struct(GalleryRequest)329_storage)": {
						"encoding": "mapping",
						"key": "t_uint256",
						"label": "mapping(uint256 => struct Gallery.GalleryRequest)",
						"numberOfBytes": "32",
						"value": "t_struct(GalleryRequest)329_storage"
					},
					"t_mapping(t_uint256,t_struct(WallToGalleryRequest)340_storage)": {
						"encoding": "mapping",
						"key": "t_uint256",
						"label": "mapping(uint256 => struct Gallery.WallToGalleryRequest)",
						"numberOfBytes": "32",
						"value": "t_struct(WallToGalleryRequest)340_storage"
					},
					"t_string_storage": {
						"encoding": "bytes",
						"label": "string",
						"numberOfBytes": "32"
					},
					"t_struct(Counter)143_storage": {
						"encoding": "inplace",
						"label": "struct Counters.Counter",
						"members": [
							{
								"astId": 142,
								"contract": "Gallery.sol:Gallery",
								"label": "_value",
								"offset": 0,
								"slot": "0",
								"type": "t_uint256"
							}
						],
						"numberOfBytes": "32"
					},
					"t_struct(GalleryData)313_storage": {
						"encoding": "inplace",
						"label": "struct Gallery.GalleryData",
						"members": [
							{
								"astId": 295,
								"contract": "Gallery.sol:Gallery",
								"label": "id",
								"offset": 0,
								"slot": "0",
								"type": "t_uint256"
							},
							{
								"astId": 297,
								"contract": "Gallery.sol:Gallery",
								"label": "name",
								"offset": 0,
								"slot": "1",
								"type": "t_string_storage"
							},
							{
								"astId": 299,
								"contract": "Gallery.sol:Gallery",
								"label": "description",
								"offset": 0,
								"slot": "2",
								"type": "t_string_storage"
							},
							{
								"astId": 302,
								"contract": "Gallery.sol:Gallery",
								"label": "location",
								"offset": 0,
								"slot": "3",
								"type": "t_struct(Location)293_storage"
							},
							{
								"astId": 304,
								"contract": "Gallery.sol:Gallery",
								"label": "owner",
								"offset": 0,
								"slot": "7",
								"type": "t_address"
							},
							{
								"astId": 306,
								"contract": "Gallery.sol:Gallery",
								"label": "ownershipPercentage",
								"offset": 0,
								"slot": "8",
								"type": "t_uint256"
							},
							{
								"astId": 308,
								"contract": "Gallery.sol:Gallery",
								"label": "isActive",
								"offset": 0,
								"slot": "9",
								"type": "t_bool"
							},
							{
								"astId": 310,
								"contract": "Gallery.sol:Gallery",
								"label": "createdAt",
								"offset": 0,
								"slot": "10",
								"type": "t_uint256"
							},
							{
								"astId": 312,
								"contract": "Gallery.sol:Gallery",
								"label": "lastUpdated",
								"offset": 0,
								"slot": "11",
								"type": "t_uint256"
							}
						],
						"numberOfBytes": "384"
					},
					"t_struct(GalleryRequest)329_storage": {
						"encoding": "inplace",
						"label": "struct Gallery.GalleryRequest",
						"members": [
							{
								"astId": 315,
								"contract": "Gallery.sol:Gallery",
								"label": "requester",
								"offset": 0,
								"slot": "0",
								"type": "t_address"
							},
							{
								"astId": 317,
								"contract": "Gallery.sol:Gallery",
								"label": "name",
								"offset": 0,
								"slot": "1",
								"type": "t_string_storage"
							},
							{
								"astId": 319,
								"contract": "Gallery.sol:Gallery",
								"label": "description",
								"offset": 0,
								"slot": "2",
								"type": "t_string_storage"
							},
							{
								"astId": 322,
								"contract": "Gallery.sol:Gallery",
								"label": "location",
								"offset": 0,
								"slot": "3",
								"type": "t_struct(Location)293_storage"
							},
							{
								"astId": 324,
								"contract": "Gallery.sol:Gallery",
								"label": "ownershipPercentage",
								"offset": 0,
								"slot": "7",
								"type": "t_uint256"
							},
							{
								"astId": 326,
								"contract": "Gallery.sol:Gallery",
								"label": "pending",
								"offset": 0,
								"slot": "8",
								"type": "t_bool"
							},
							{
								"astId": 328,
								"contract": "Gallery.sol:Gallery",
								"label": "approved",
								"offset": 1,
								"slot": "8",
								"type": "t_bool"
							}
						],
						"numberOfBytes": "288"
					},
					"t_struct(Location)293_storage": {
						"encoding": "inplace",
						"label": "struct Gallery.Location",
						"members": [
							{
								"astId": 286,
								"contract": "Gallery.sol:Gallery",
								"label": "city",
								"offset": 0,
								"slot": "0",
								"type": "t_string_storage"
							},
							{
								"astId": 288,
								"contract": "Gallery.sol:Gallery",
								"label": "country",
								"offset": 0,
								"slot": "1",
								"type": "t_string_storage"
							},
							{
								"astId": 290,
								"contract": "Gallery.sol:Gallery",
								"label": "longitude",
								"offset": 0,
								"slot": "2",
								"type": "t_int256"
							},
							{
								"astId": 292,
								"contract": "Gallery.sol:Gallery",
								"label": "latitude",
								"offset": 0,
								"slot": "3",
								"type": "t_int256"
							}
						],
						"numberOfBytes": "128"
					},
					"t_struct(WallToGalleryRequest)340_storage": {
						"encoding": "inplace",
						"label": "struct Gallery.WallToGalleryRequest",
						"members": [
							{
								"astId": 331,
								"contract": "Gallery.sol:Gallery",
								"label": "wallId",
								"offset": 0,
								"slot": "0",
								"type": "t_uint256"
							},
							{
								"astId": 333,
								"contract": "Gallery.sol:Gallery",
								"label": "wallOwner",
								"offset": 0,
								"slot": "1",
								"type": "t_address"
							},
							{
								"astId": 335,
								"contract": "Gallery.sol:Gallery",
								"label": "wallOwnerPercentage",
								"offset": 0,
								"slot": "2",
								"type": "t_uint256"
							},
							{
								"astId": 337,
								"contract": "Gallery.sol:Gallery",
								"label": "pending",
								"offset": 0,
								"slot": "3",
								"type": "t_bool"
							},
							{
								"astId": 339,
								"contract": "Gallery.sol:Gallery",
								"label": "approved",
								"offset": 1,
								"slot": "3",
								"type": "t_bool"
							}
						],
						"numberOfBytes": "128"
					},
					"t_uint256": {
						"encoding": "inplace",
						"label": "uint256",
						"numberOfBytes": "32"
					}
				}
			},
			"userdoc": {
				"kind": "user",
				"methods": {},
				"version": 1
			}
		}
	}
}