{
	"looks/ProductCertificate.sol": {
		"ProductCertificate": {
			"abi": [
				{
					"inputs": [],
					"stateMutability": "nonpayable",
					"type": "constructor"
				},
				{
					"inputs": [
						{
							"internalType": "address",
							"name": "owner",
							"type": "address"
						}
					],
					"name": "OwnableInvalidOwner",
					"type": "error"
				},
				{
					"inputs": [
						{
							"internalType": "address",
							"name": "account",
							"type": "address"
						}
					],
					"name": "OwnableUnauthorizedAccount",
					"type": "error"
				},
				{
					"anonymous": false,
					"inputs": [
						{
							"indexed": true,
							"internalType": "address",
							"name": "previousOwner",
							"type": "address"
						},
						{
							"indexed": true,
							"internalType": "address",
							"name": "newOwner",
							"type": "address"
						}
					],
					"name": "OwnershipTransferred",
					"type": "event"
				},
				{
					"inputs": [
						{
							"internalType": "string",
							"name": "productId",
							"type": "string"
						}
					],
					"name": "getCertificates",
					"outputs": [
						{
							"components": [
								{
									"internalType": "string",
									"name": "name",
									"type": "string"
								},
								{
									"internalType": "string",
									"name": "issuedBy",
									"type": "string"
								},
								{
									"internalType": "uint256",
									"name": "issueDate",
									"type": "uint256"
								},
								{
									"internalType": "uint256",
									"name": "validUntil",
									"type": "uint256"
								},
								{
									"internalType": "bool",
									"name": "isValid",
									"type": "bool"
								}
							],
							"internalType": "struct ProductCertificate.Certificate[]",
							"name": "",
							"type": "tuple[]"
						}
					],
					"stateMutability": "view",
					"type": "function"
				},
				{
					"inputs": [
						{
							"internalType": "string",
							"name": "productId",
							"type": "string"
						},
						{
							"internalType": "string",
							"name": "name",
							"type": "string"
						},
						{
							"internalType": "string",
							"name": "issuedBy",
							"type": "string"
						},
						{
							"internalType": "uint256",
							"name": "issueDate",
							"type": "uint256"
						},
						{
							"internalType": "uint256",
							"name": "validUntil",
							"type": "uint256"
						}
					],
					"name": "issueCertificate",
					"outputs": [],
					"stateMutability": "nonpayable",
					"type": "function"
				},
				{
					"inputs": [],
					"name": "owner",
					"outputs": [
						{
							"internalType": "address",
							"name": "",
							"type": "address"
						}
					],
					"stateMutability": "view",
					"type": "function"
				},
				{
					"inputs": [],
					"name": "renounceOwnership",
					"outputs": [],
					"stateMutability": "nonpayable",
					"type": "function"
				},
				{
					"inputs": [
						{
							"internalType": "string",
							"name": "productId",
							"type": "string"
						},
						{
							"internalType": "uint256",
							"name": "certificateIndex",
							"type": "uint256"
						}
					],
					"name": "revokeCertificate",
					"outputs": [],
					"stateMutability": "nonpayable",
					"type": "function"
				},
				{
					"inputs": [
						{
							"internalType": "address",
							"name": "newOwner",
							"type": "address"
						}
					],
					"name": "transferOwnership",
					"outputs": [],
					"stateMutability": "nonpayable",
					"type": "function"
				}
			],
			"devdoc": {
				"errors": {
					"OwnableInvalidOwner(address)": [
						{
							"details": "The owner is not a valid owner account. (eg. `address(0)`)"
						}
					],
					"OwnableUnauthorizedAccount(address)": [
						{
							"details": "The caller account is not authorized to perform an operation."
						}
					]
				},
				"kind": "dev",
				"methods": {
					"owner()": {
						"details": "Returns the address of the current owner."
					},
					"renounceOwnership()": {
						"details": "Leaves the contract without owner. It will not be possible to call `onlyOwner` functions. Can only be called by the current owner. NOTE: Renouncing ownership will leave the contract without an owner, thereby disabling any functionality that is only available to the owner."
					},
					"transferOwnership(address)": {
						"details": "Transfers ownership of the contract to a new account (`newOwner`). Can only be called by the current owner."
					}
				},
				"version": 1
			},
			"evm": {
				"assembly": "    /* \"looks/ProductCertificate.sol\":117:1536  contract ProductCertificate is Ownable {... */\n  mstore(0x40, 0x80)\n    /* \"looks/ProductCertificate.sol\":458:494  constructor() Ownable(msg.sender) {} */\n  callvalue\n  dup1\n  iszero\n  tag_1\n  jumpi\n  0x00\n  dup1\n  revert\ntag_1:\n  pop\n    /* \"looks/ProductCertificate.sol\":480:490  msg.sender */\n  caller\n    /* \"@openzeppelin/contracts/access/Ownable.sol\":1297:1298  0 */\n  0x00\n    /* \"@openzeppelin/contracts/access/Ownable.sol\":1273:1299  initialOwner == address(0) */\n  0xffffffffffffffffffffffffffffffffffffffff\n  and\n    /* \"@openzeppelin/contracts/access/Ownable.sol\":1273:1285  initialOwner */\n  dup2\n    /* \"@openzeppelin/contracts/access/Ownable.sol\":1273:1299  initialOwner == address(0) */\n  0xffffffffffffffffffffffffffffffffffffffff\n  and\n  sub\n    /* \"@openzeppelin/contracts/access/Ownable.sol\":1269:1364  if (initialOwner == address(0)) {... */\n  tag_5\n  jumpi\n    /* \"@openzeppelin/contracts/access/Ownable.sol\":1350:1351  0 */\n  0x00\n    /* \"@openzeppelin/contracts/access/Ownable.sol\":1322:1353  OwnableInvalidOwner(address(0)) */\n  mload(0x40)\n  0x1e4fbdf700000000000000000000000000000000000000000000000000000000\n  dup2\n  mstore\n  0x04\n  add\n  tag_6\n  swap2\n  swap1\n  tag_7\n  jump\t// in\ntag_6:\n  mload(0x40)\n  dup1\n  swap2\n  sub\n  swap1\n  revert\n    /* \"@openzeppelin/contracts/access/Ownable.sol\":1269:1364  if (initialOwner == address(0)) {... */\ntag_5:\n    /* \"@openzeppelin/contracts/access/Ownable.sol\":1373:1405  _transferOwnership(initialOwner) */\n  tag_8\n    /* \"@openzeppelin/contracts/access/Ownable.sol\":1392:1404  initialOwner */\n  dup2\n    /* \"@openzeppelin/contracts/access/Ownable.sol\":1373:1391  _transferOwnership */\n  shl(0x20, tag_9)\n    /* \"@openzeppelin/contracts/access/Ownable.sol\":1373:1405  _transferOwnership(initialOwner) */\n  0x20\n  shr\n  jump\t// in\ntag_8:\n    /* \"@openzeppelin/contracts/access/Ownable.sol\":1225:1412  constructor(address initialOwner) {... */\n  pop\n    /* \"looks/ProductCertificate.sol\":117:1536  contract ProductCertificate is Ownable {... */\n  jump(tag_11)\n    /* \"@openzeppelin/contracts/access/Ownable.sol\":2912:3099  function _transferOwnership(address newOwner) internal virtual {... */\ntag_9:\n    /* \"@openzeppelin/contracts/access/Ownable.sol\":2985:3001  address oldOwner */\n  0x00\n    /* \"@openzeppelin/contracts/access/Ownable.sol\":3004:3010  _owner */\n  dup1\n  0x00\n  swap1\n  sload\n  swap1\n  0x0100\n  exp\n  swap1\n  div\n  0xffffffffffffffffffffffffffffffffffffffff\n  and\n    /* \"@openzeppelin/contracts/access/Ownable.sol\":2985:3010  address oldOwner = _owner */\n  swap1\n  pop\n    /* \"@openzeppelin/contracts/access/Ownable.sol\":3029:3037  newOwner */\n  dup2\n    /* \"@openzeppelin/contracts/access/Ownable.sol\":3020:3026  _owner */\n  0x00\n  dup1\n    /* \"@openzeppelin/contracts/access/Ownable.sol\":3020:3037  _owner = newOwner */\n  0x0100\n  exp\n  dup2\n  sload\n  dup2\n  0xffffffffffffffffffffffffffffffffffffffff\n  mul\n  not\n  and\n  swap1\n  dup4\n  0xffffffffffffffffffffffffffffffffffffffff\n  and\n  mul\n  or\n  swap1\n  sstore\n  pop\n    /* \"@openzeppelin/contracts/access/Ownable.sol\":3083:3091  newOwner */\n  dup2\n    /* \"@openzeppelin/contracts/access/Ownable.sol\":3052:3092  OwnershipTransferred(oldOwner, newOwner) */\n  0xffffffffffffffffffffffffffffffffffffffff\n  and\n    /* \"@openzeppelin/contracts/access/Ownable.sol\":3073:3081  oldOwner */\n  dup2\n    /* \"@openzeppelin/contracts/access/Ownable.sol\":3052:3092  OwnershipTransferred(oldOwner, newOwner) */\n  0xffffffffffffffffffffffffffffffffffffffff\n  and\n  0x8be0079c531659141344cd1fd0a4f28419497f9722a3daafe3b4186f6b6457e0\n  mload(0x40)\n  mload(0x40)\n  dup1\n  swap2\n  sub\n  swap1\n  log3\n    /* \"@openzeppelin/contracts/access/Ownable.sol\":2975:3099  {... */\n  pop\n    /* \"@openzeppelin/contracts/access/Ownable.sol\":2912:3099  function _transferOwnership(address newOwner) internal virtual {... */\n  pop\n  jump\t// out\n    /* \"#utility.yul\":7:133   */\ntag_13:\n    /* \"#utility.yul\":44:51   */\n  0x00\n    /* \"#utility.yul\":84:126   */\n  0xffffffffffffffffffffffffffffffffffffffff\n    /* \"#utility.yul\":77:82   */\n  dup3\n    /* \"#utility.yul\":73:127   */\n  and\n    /* \"#utility.yul\":62:127   */\n  swap1\n  pop\n    /* \"#utility.yul\":7:133   */\n  swap2\n  swap1\n  pop\n  jump\t// out\n    /* \"#utility.yul\":139:235   */\ntag_14:\n    /* \"#utility.yul\":176:183   */\n  0x00\n    /* \"#utility.yul\":205:229   */\n  tag_19\n    /* \"#utility.yul\":223:228   */\n  dup3\n    /* \"#utility.yul\":205:229   */\n  tag_13\n  jump\t// in\ntag_19:\n    /* \"#utility.yul\":194:229   */\n  swap1\n  pop\n    /* \"#utility.yul\":139:235   */\n  swap2\n  swap1\n  pop\n  jump\t// out\n    /* \"#utility.yul\":241:359   */\ntag_15:\n    /* \"#utility.yul\":328:352   */\n  tag_21\n    /* \"#utility.yul\":346:351   */\n  dup2\n    /* \"#utility.yul\":328:352   */\n  tag_14\n  jump\t// in\ntag_21:\n    /* \"#utility.yul\":323:326   */\n  dup3\n    /* \"#utility.yul\":316:353   */\n  mstore\n    /* \"#utility.yul\":241:359   */\n  pop\n  pop\n  jump\t// out\n    /* \"#utility.yul\":365:587   */\ntag_7:\n    /* \"#utility.yul\":458:462   */\n  0x00\n    /* \"#utility.yul\":496:498   */\n  0x20\n    /* \"#utility.yul\":485:494   */\n  dup3\n    /* \"#utility.yul\":481:499   */\n  add\n    /* \"#utility.yul\":473:499   */\n  swap1\n  pop\n    /* \"#utility.yul\":509:580   */\n  tag_23\n    /* \"#utility.yul\":577:578   */\n  0x00\n    /* \"#utility.yul\":566:575   */\n  dup4\n    /* \"#utility.yul\":562:579   */\n  add\n    /* \"#utility.yul\":553:559   */\n  dup5\n    /* \"#utility.yul\":509:580   */\n  tag_15\n  jump\t// in\ntag_23:\n    /* \"#utility.yul\":365:587   */\n  swap3\n  swap2\n  pop\n  pop\n  jump\t// out\n    /* \"looks/ProductCertificate.sol\":117:1536  contract ProductCertificate is Ownable {... */\ntag_11:\n  dataSize(sub_0)\n  dup1\n  dataOffset(sub_0)\n  0x00\n  codecopy\n  0x00\n  return\nstop\n\nsub_0: assembly {\n        /* \"looks/ProductCertificate.sol\":117:1536  contract ProductCertificate is Ownable {... */\n      mstore(0x40, 0x80)\n      callvalue\n      dup1\n      iszero\n      tag_1\n      jumpi\n      0x00\n      dup1\n      revert\n    tag_1:\n      pop\n      jumpi(tag_2, lt(calldatasize, 0x04))\n      shr(0xe0, calldataload(0x00))\n      dup1\n      0x327eb157\n      eq\n      tag_3\n      jumpi\n      dup1\n      0x6a6dc088\n      eq\n      tag_4\n      jumpi\n      dup1\n      0x715018a6\n      eq\n      tag_5\n      jumpi\n      dup1\n      0x8da5cb5b\n      eq\n      tag_6\n      jumpi\n      dup1\n      0xdfc2611c\n      eq\n      tag_7\n      jumpi\n      dup1\n      0xf2fde38b\n      eq\n      tag_8\n      jumpi\n    tag_2:\n      0x00\n      dup1\n      revert\n        /* \"looks/ProductCertificate.sol\":539:1025  function issueCertificate(... */\n    tag_3:\n      tag_9\n      0x04\n      dup1\n      calldatasize\n      sub\n      dup2\n      add\n      swap1\n      tag_10\n      swap2\n      swap1\n      tag_11\n      jump\t// in\n    tag_10:\n      tag_12\n      jump\t// in\n    tag_9:\n      stop\n        /* \"looks/ProductCertificate.sol\":1390:1533  function getCertificates(string memory productId) public view returns (Certificate[] memory) {... */\n    tag_4:\n      tag_13\n      0x04\n      dup1\n      calldatasize\n      sub\n      dup2\n      add\n      swap1\n      tag_14\n      swap2\n      swap1\n      tag_15\n      jump\t// in\n    tag_14:\n      tag_16\n      jump\t// in\n    tag_13:\n      mload(0x40)\n      tag_17\n      swap2\n      swap1\n      tag_18\n      jump\t// in\n    tag_17:\n      mload(0x40)\n      dup1\n      swap2\n      sub\n      swap1\n      return\n        /* \"@openzeppelin/contracts/access/Ownable.sol\":2293:2394  function renounceOwnership() public virtual onlyOwner {... */\n    tag_5:\n      tag_19\n      tag_20\n      jump\t// in\n    tag_19:\n      stop\n        /* \"@openzeppelin/contracts/access/Ownable.sol\":1638:1723  function owner() public view virtual returns (address) {... */\n    tag_6:\n      tag_21\n      tag_22\n      jump\t// in\n    tag_21:\n      mload(0x40)\n      tag_23\n      swap2\n      swap1\n      tag_24\n      jump\t// in\n    tag_23:\n      mload(0x40)\n      dup1\n      swap2\n      sub\n      swap1\n      return\n        /* \"looks/ProductCertificate.sol\":1063:1330  function revokeCertificate(string memory productId, uint256 certificateIndex) public onlyOwner {... */\n    tag_7:\n      tag_25\n      0x04\n      dup1\n      calldatasize\n      sub\n      dup2\n      add\n      swap1\n      tag_26\n      swap2\n      swap1\n      tag_27\n      jump\t// in\n    tag_26:\n      tag_28\n      jump\t// in\n    tag_25:\n      stop\n        /* \"@openzeppelin/contracts/access/Ownable.sol\":2543:2758  function transferOwnership(address newOwner) public virtual onlyOwner {... */\n    tag_8:\n      tag_29\n      0x04\n      dup1\n      calldatasize\n      sub\n      dup2\n      add\n      swap1\n      tag_30\n      swap2\n      swap1\n      tag_31\n      jump\t// in\n    tag_30:\n      tag_32\n      jump\t// in\n    tag_29:\n      stop\n        /* \"looks/ProductCertificate.sol\":539:1025  function issueCertificate(... */\n    tag_12:\n        /* \"@openzeppelin/contracts/access/Ownable.sol\":1531:1544  _checkOwner() */\n      tag_34\n        /* \"@openzeppelin/contracts/access/Ownable.sol\":1531:1542  _checkOwner */\n      tag_35\n        /* \"@openzeppelin/contracts/access/Ownable.sol\":1531:1544  _checkOwner() */\n      jump\t// in\n    tag_34:\n        /* \"looks/ProductCertificate.sol\":753:776  Certificate memory cert */\n      0x00\n        /* \"looks/ProductCertificate.sol\":779:961  Certificate({... */\n      mload(0x40)\n      dup1\n      0xa0\n      add\n      0x40\n      mstore\n      dup1\n        /* \"looks/ProductCertificate.sol\":812:816  name */\n      dup7\n        /* \"looks/ProductCertificate.sol\":779:961  Certificate({... */\n      dup2\n      mstore\n      0x20\n      add\n        /* \"looks/ProductCertificate.sol\":841:849  issuedBy */\n      dup6\n        /* \"looks/ProductCertificate.sol\":779:961  Certificate({... */\n      dup2\n      mstore\n      0x20\n      add\n        /* \"looks/ProductCertificate.sol\":875:884  issueDate */\n      dup5\n        /* \"looks/ProductCertificate.sol\":779:961  Certificate({... */\n      dup2\n      mstore\n      0x20\n      add\n        /* \"looks/ProductCertificate.sol\":911:921  validUntil */\n      dup4\n        /* \"looks/ProductCertificate.sol\":779:961  Certificate({... */\n      dup2\n      mstore\n      0x20\n      add\n        /* \"looks/ProductCertificate.sol\":945:949  true */\n      0x01\n        /* \"looks/ProductCertificate.sol\":779:961  Certificate({... */\n      iszero\n      iszero\n      dup2\n      mstore\n      pop\n        /* \"looks/ProductCertificate.sol\":753:961  Certificate memory cert = Certificate({... */\n      swap1\n      pop\n        /* \"looks/ProductCertificate.sol\":982:995  _certificates */\n      0x01\n        /* \"looks/ProductCertificate.sol\":996:1005  productId */\n      dup7\n        /* \"looks/ProductCertificate.sol\":982:1006  _certificates[productId] */\n      mload(0x40)\n      tag_37\n      swap2\n      swap1\n      tag_38\n      jump\t// in\n    tag_37:\n      swap1\n      dup2\n      mstore\n      0x20\n      add\n      mload(0x40)\n      dup1\n      swap2\n      sub\n      swap1\n      keccak256\n        /* \"looks/ProductCertificate.sol\":1012:1016  cert */\n      dup2\n        /* \"looks/ProductCertificate.sol\":982:1017  _certificates[productId].push(cert) */\n      swap1\n      dup1\n      0x01\n      dup2\n      sload\n      add\n      dup1\n      dup3\n      sstore\n      dup1\n      swap2\n      pop\n      pop\n      0x01\n      swap1\n      sub\n      swap1\n      0x00\n      mstore\n      keccak256(0x00, 0x20)\n      swap1\n      0x05\n      mul\n      add\n      0x00\n      swap1\n      swap2\n      swap1\n      swap2\n      swap1\n      swap2\n      pop\n      0x00\n      dup3\n      add\n      mload\n      dup2\n      0x00\n      add\n      swap1\n      dup2\n      tag_40\n      swap2\n      swap1\n      tag_41\n      jump\t// in\n    tag_40:\n      pop\n      0x20\n      dup3\n      add\n      mload\n      dup2\n      0x01\n      add\n      swap1\n      dup2\n      tag_42\n      swap2\n      swap1\n      tag_41\n      jump\t// in\n    tag_42:\n      pop\n      0x40\n      dup3\n      add\n      mload\n      dup2\n      0x02\n      add\n      sstore\n      0x60\n      dup3\n      add\n      mload\n      dup2\n      0x03\n      add\n      sstore\n      0x80\n      dup3\n      add\n      mload\n      dup2\n      0x04\n      add\n      exp(0x0100, 0x00)\n      dup2\n      sload\n      dup2\n      0xff\n      mul\n      not\n      and\n      swap1\n      dup4\n      iszero\n      iszero\n      mul\n      or\n      swap1\n      sstore\n      pop\n      pop\n      pop\n        /* \"looks/ProductCertificate.sol\":742:1025  {... */\n      pop\n        /* \"looks/ProductCertificate.sol\":539:1025  function issueCertificate(... */\n      pop\n      pop\n      pop\n      pop\n      pop\n      jump\t// out\n        /* \"looks/ProductCertificate.sol\":1390:1533  function getCertificates(string memory productId) public view returns (Certificate[] memory) {... */\n    tag_16:\n        /* \"looks/ProductCertificate.sol\":1461:1481  Certificate[] memory */\n      0x60\n        /* \"looks/ProductCertificate.sol\":1501:1514  _certificates */\n      0x01\n        /* \"looks/ProductCertificate.sol\":1515:1524  productId */\n      dup3\n        /* \"looks/ProductCertificate.sol\":1501:1525  _certificates[productId] */\n      mload(0x40)\n      tag_44\n      swap2\n      swap1\n      tag_38\n      jump\t// in\n    tag_44:\n      swap1\n      dup2\n      mstore\n      0x20\n      add\n      mload(0x40)\n      dup1\n      swap2\n      sub\n      swap1\n      keccak256\n        /* \"looks/ProductCertificate.sol\":1494:1525  return _certificates[productId] */\n      dup1\n      sload\n      dup1\n      0x20\n      mul\n      0x20\n      add\n      mload(0x40)\n      swap1\n      dup2\n      add\n      0x40\n      mstore\n      dup1\n      swap3\n      swap2\n      swap1\n      dup2\n      dup2\n      mstore\n      0x20\n      add\n      0x00\n      swap1\n    tag_45:\n      dup3\n      dup3\n      lt\n      iszero\n      tag_46\n      jumpi\n      dup4\n      dup3\n      swap1\n      0x00\n      mstore\n      keccak256(0x00, 0x20)\n      swap1\n      0x05\n      mul\n      add\n      mload(0x40)\n      dup1\n      0xa0\n      add\n      0x40\n      mstore\n      swap1\n      dup2\n      0x00\n      dup3\n      add\n      dup1\n      sload\n      tag_48\n      swap1\n      tag_49\n      jump\t// in\n    tag_48:\n      dup1\n      0x1f\n      add\n      0x20\n      dup1\n      swap2\n      div\n      mul\n      0x20\n      add\n      mload(0x40)\n      swap1\n      dup2\n      add\n      0x40\n      mstore\n      dup1\n      swap3\n      swap2\n      swap1\n      dup2\n      dup2\n      mstore\n      0x20\n      add\n      dup3\n      dup1\n      sload\n      tag_50\n      swap1\n      tag_49\n      jump\t// in\n    tag_50:\n      dup1\n      iszero\n      tag_51\n      jumpi\n      dup1\n      0x1f\n      lt\n      tag_52\n      jumpi\n      0x0100\n      dup1\n      dup4\n      sload\n      div\n      mul\n      dup4\n      mstore\n      swap2\n      0x20\n      add\n      swap2\n      jump(tag_51)\n    tag_52:\n      dup3\n      add\n      swap2\n      swap1\n      0x00\n      mstore\n      keccak256(0x00, 0x20)\n      swap1\n    tag_53:\n      dup2\n      sload\n      dup2\n      mstore\n      swap1\n      0x01\n      add\n      swap1\n      0x20\n      add\n      dup1\n      dup4\n      gt\n      tag_53\n      jumpi\n      dup3\n      swap1\n      sub\n      0x1f\n      and\n      dup3\n      add\n      swap2\n    tag_51:\n      pop\n      pop\n      pop\n      pop\n      pop\n      dup2\n      mstore\n      0x20\n      add\n      0x01\n      dup3\n      add\n      dup1\n      sload\n      tag_54\n      swap1\n      tag_49\n      jump\t// in\n    tag_54:\n      dup1\n      0x1f\n      add\n      0x20\n      dup1\n      swap2\n      div\n      mul\n      0x20\n      add\n      mload(0x40)\n      swap1\n      dup2\n      add\n      0x40\n      mstore\n      dup1\n      swap3\n      swap2\n      swap1\n      dup2\n      dup2\n      mstore\n      0x20\n      add\n      dup3\n      dup1\n      sload\n      tag_55\n      swap1\n      tag_49\n      jump\t// in\n    tag_55:\n      dup1\n      iszero\n      tag_56\n      jumpi\n      dup1\n      0x1f\n      lt\n      tag_57\n      jumpi\n      0x0100\n      dup1\n      dup4\n      sload\n      div\n      mul\n      dup4\n      mstore\n      swap2\n      0x20\n      add\n      swap2\n      jump(tag_56)\n    tag_57:\n      dup3\n      add\n      swap2\n      swap1\n      0x00\n      mstore\n      keccak256(0x00, 0x20)\n      swap1\n    tag_58:\n      dup2\n      sload\n      dup2\n      mstore\n      swap1\n      0x01\n      add\n      swap1\n      0x20\n      add\n      dup1\n      dup4\n      gt\n      tag_58\n      jumpi\n      dup3\n      swap1\n      sub\n      0x1f\n      and\n      dup3\n      add\n      swap2\n    tag_56:\n      pop\n      pop\n      pop\n      pop\n      pop\n      dup2\n      mstore\n      0x20\n      add\n      0x02\n      dup3\n      add\n      sload\n      dup2\n      mstore\n      0x20\n      add\n      0x03\n      dup3\n      add\n      sload\n      dup2\n      mstore\n      0x20\n      add\n      0x04\n      dup3\n      add\n      0x00\n      swap1\n      sload\n      swap1\n      0x0100\n      exp\n      swap1\n      div\n      0xff\n      and\n      iszero\n      iszero\n      iszero\n      iszero\n      dup2\n      mstore\n      pop\n      pop\n      dup2\n      mstore\n      0x20\n      add\n      swap1\n      0x01\n      add\n      swap1\n      jump(tag_45)\n    tag_46:\n      pop\n      pop\n      pop\n      pop\n      swap1\n      pop\n        /* \"looks/ProductCertificate.sol\":1390:1533  function getCertificates(string memory productId) public view returns (Certificate[] memory) {... */\n      swap2\n      swap1\n      pop\n      jump\t// out\n        /* \"@openzeppelin/contracts/access/Ownable.sol\":2293:2394  function renounceOwnership() public virtual onlyOwner {... */\n    tag_20:\n        /* \"@openzeppelin/contracts/access/Ownable.sol\":1531:1544  _checkOwner() */\n      tag_60\n        /* \"@openzeppelin/contracts/access/Ownable.sol\":1531:1542  _checkOwner */\n      tag_35\n        /* \"@openzeppelin/contracts/access/Ownable.sol\":1531:1544  _checkOwner() */\n      jump\t// in\n    tag_60:\n        /* \"@openzeppelin/contracts/access/Ownable.sol\":2357:2387  _transferOwnership(address(0)) */\n      tag_62\n        /* \"@openzeppelin/contracts/access/Ownable.sol\":2384:2385  0 */\n      0x00\n        /* \"@openzeppelin/contracts/access/Ownable.sol\":2357:2375  _transferOwnership */\n      tag_63\n        /* \"@openzeppelin/contracts/access/Ownable.sol\":2357:2387  _transferOwnership(address(0)) */\n      jump\t// in\n    tag_62:\n        /* \"@openzeppelin/contracts/access/Ownable.sol\":2293:2394  function renounceOwnership() public virtual onlyOwner {... */\n      jump\t// out\n        /* \"@openzeppelin/contracts/access/Ownable.sol\":1638:1723  function owner() public view virtual returns (address) {... */\n    tag_22:\n        /* \"@openzeppelin/contracts/access/Ownable.sol\":1684:1691  address */\n      0x00\n        /* \"@openzeppelin/contracts/access/Ownable.sol\":1710:1716  _owner */\n      dup1\n      0x00\n      swap1\n      sload\n      swap1\n      0x0100\n      exp\n      swap1\n      div\n      0xffffffffffffffffffffffffffffffffffffffff\n      and\n        /* \"@openzeppelin/contracts/access/Ownable.sol\":1703:1716  return _owner */\n      swap1\n      pop\n        /* \"@openzeppelin/contracts/access/Ownable.sol\":1638:1723  function owner() public view virtual returns (address) {... */\n      swap1\n      jump\t// out\n        /* \"looks/ProductCertificate.sol\":1063:1330  function revokeCertificate(string memory productId, uint256 certificateIndex) public onlyOwner {... */\n    tag_28:\n        /* \"@openzeppelin/contracts/access/Ownable.sol\":1531:1544  _checkOwner() */\n      tag_66\n        /* \"@openzeppelin/contracts/access/Ownable.sol\":1531:1542  _checkOwner */\n      tag_35\n        /* \"@openzeppelin/contracts/access/Ownable.sol\":1531:1544  _checkOwner() */\n      jump\t// in\n    tag_66:\n        /* \"looks/ProductCertificate.sol\":1196:1209  _certificates */\n      0x01\n        /* \"looks/ProductCertificate.sol\":1210:1219  productId */\n      dup3\n        /* \"looks/ProductCertificate.sol\":1196:1220  _certificates[productId] */\n      mload(0x40)\n      tag_68\n      swap2\n      swap1\n      tag_38\n      jump\t// in\n    tag_68:\n      swap1\n      dup2\n      mstore\n      0x20\n      add\n      mload(0x40)\n      dup1\n      swap2\n      sub\n      swap1\n      keccak256\n        /* \"looks/ProductCertificate.sol\":1196:1227  _certificates[productId].length */\n      dup1\n      sload\n      swap1\n      pop\n        /* \"looks/ProductCertificate.sol\":1177:1193  certificateIndex */\n      dup2\n        /* \"looks/ProductCertificate.sol\":1177:1227  certificateIndex < _certificates[productId].length */\n      lt\n        /* \"looks/ProductCertificate.sol\":1169:1253  require(certificateIndex < _certificates[productId].length, \"Certificate not found\") */\n      tag_69\n      jumpi\n      mload(0x40)\n      0x08c379a000000000000000000000000000000000000000000000000000000000\n      dup2\n      mstore\n      0x04\n      add\n      tag_70\n      swap1\n      tag_71\n      jump\t// in\n    tag_70:\n      mload(0x40)\n      dup1\n      swap2\n      sub\n      swap1\n      revert\n    tag_69:\n        /* \"looks/ProductCertificate.sol\":1317:1322  false */\n      0x00\n        /* \"looks/ProductCertificate.sol\":1264:1277  _certificates */\n      0x01\n        /* \"looks/ProductCertificate.sol\":1278:1287  productId */\n      dup4\n        /* \"looks/ProductCertificate.sol\":1264:1288  _certificates[productId] */\n      mload(0x40)\n      tag_72\n      swap2\n      swap1\n      tag_38\n      jump\t// in\n    tag_72:\n      swap1\n      dup2\n      mstore\n      0x20\n      add\n      mload(0x40)\n      dup1\n      swap2\n      sub\n      swap1\n      keccak256\n        /* \"looks/ProductCertificate.sol\":1289:1305  certificateIndex */\n      dup3\n        /* \"looks/ProductCertificate.sol\":1264:1306  _certificates[productId][certificateIndex] */\n      dup2\n      sload\n      dup2\n      lt\n      tag_73\n      jumpi\n      tag_74\n      tag_75\n      jump\t// in\n    tag_74:\n    tag_73:\n      swap1\n      0x00\n      mstore\n      keccak256(0x00, 0x20)\n      swap1\n      0x05\n      mul\n      add\n        /* \"looks/ProductCertificate.sol\":1264:1314  _certificates[productId][certificateIndex].isValid */\n      0x04\n      add\n      0x00\n        /* \"looks/ProductCertificate.sol\":1264:1322  _certificates[productId][certificateIndex].isValid = false */\n      0x0100\n      exp\n      dup2\n      sload\n      dup2\n      0xff\n      mul\n      not\n      and\n      swap1\n      dup4\n      iszero\n      iszero\n      mul\n      or\n      swap1\n      sstore\n      pop\n        /* \"looks/ProductCertificate.sol\":1063:1330  function revokeCertificate(string memory productId, uint256 certificateIndex) public onlyOwner {... */\n      pop\n      pop\n      jump\t// out\n        /* \"@openzeppelin/contracts/access/Ownable.sol\":2543:2758  function transferOwnership(address newOwner) public virtual onlyOwner {... */\n    tag_32:\n        /* \"@openzeppelin/contracts/access/Ownable.sol\":1531:1544  _checkOwner() */\n      tag_78\n        /* \"@openzeppelin/contracts/access/Ownable.sol\":1531:1542  _checkOwner */\n      tag_35\n        /* \"@openzeppelin/contracts/access/Ownable.sol\":1531:1544  _checkOwner() */\n      jump\t// in\n    tag_78:\n        /* \"@openzeppelin/contracts/access/Ownable.sol\":2647:2648  0 */\n      0x00\n        /* \"@openzeppelin/contracts/access/Ownable.sol\":2627:2649  newOwner == address(0) */\n      0xffffffffffffffffffffffffffffffffffffffff\n      and\n        /* \"@openzeppelin/contracts/access/Ownable.sol\":2627:2635  newOwner */\n      dup2\n        /* \"@openzeppelin/contracts/access/Ownable.sol\":2627:2649  newOwner == address(0) */\n      0xffffffffffffffffffffffffffffffffffffffff\n      and\n      sub\n        /* \"@openzeppelin/contracts/access/Ownable.sol\":2623:2714  if (newOwner == address(0)) {... */\n      tag_80\n      jumpi\n        /* \"@openzeppelin/contracts/access/Ownable.sol\":2700:2701  0 */\n      0x00\n        /* \"@openzeppelin/contracts/access/Ownable.sol\":2672:2703  OwnableInvalidOwner(address(0)) */\n      mload(0x40)\n      0x1e4fbdf700000000000000000000000000000000000000000000000000000000\n      dup2\n      mstore\n      0x04\n      add\n      tag_81\n      swap2\n      swap1\n      tag_24\n      jump\t// in\n    tag_81:\n      mload(0x40)\n      dup1\n      swap2\n      sub\n      swap1\n      revert\n        /* \"@openzeppelin/contracts/access/Ownable.sol\":2623:2714  if (newOwner == address(0)) {... */\n    tag_80:\n        /* \"@openzeppelin/contracts/access/Ownable.sol\":2723:2751  _transferOwnership(newOwner) */\n      tag_82\n        /* \"@openzeppelin/contracts/access/Ownable.sol\":2742:2750  newOwner */\n      dup2\n        /* \"@openzeppelin/contracts/access/Ownable.sol\":2723:2741  _transferOwnership */\n      tag_63\n        /* \"@openzeppelin/contracts/access/Ownable.sol\":2723:2751  _transferOwnership(newOwner) */\n      jump\t// in\n    tag_82:\n        /* \"@openzeppelin/contracts/access/Ownable.sol\":2543:2758  function transferOwnership(address newOwner) public virtual onlyOwner {... */\n      pop\n      jump\t// out\n        /* \"@openzeppelin/contracts/access/Ownable.sol\":1796:1958  function _checkOwner() internal view virtual {... */\n    tag_35:\n        /* \"@openzeppelin/contracts/access/Ownable.sol\":1866:1878  _msgSender() */\n      tag_84\n        /* \"@openzeppelin/contracts/access/Ownable.sol\":1866:1876  _msgSender */\n      tag_85\n        /* \"@openzeppelin/contracts/access/Ownable.sol\":1866:1878  _msgSender() */\n      jump\t// in\n    tag_84:\n        /* \"@openzeppelin/contracts/access/Ownable.sol\":1855:1878  owner() != _msgSender() */\n      0xffffffffffffffffffffffffffffffffffffffff\n      and\n        /* \"@openzeppelin/contracts/access/Ownable.sol\":1855:1862  owner() */\n      tag_86\n        /* \"@openzeppelin/contracts/access/Ownable.sol\":1855:1860  owner */\n      tag_22\n        /* \"@openzeppelin/contracts/access/Ownable.sol\":1855:1862  owner() */\n      jump\t// in\n    tag_86:\n        /* \"@openzeppelin/contracts/access/Ownable.sol\":1855:1878  owner() != _msgSender() */\n      0xffffffffffffffffffffffffffffffffffffffff\n      and\n      eq\n        /* \"@openzeppelin/contracts/access/Ownable.sol\":1851:1952  if (owner() != _msgSender()) {... */\n      tag_87\n      jumpi\n        /* \"@openzeppelin/contracts/access/Ownable.sol\":1928:1940  _msgSender() */\n      tag_88\n        /* \"@openzeppelin/contracts/access/Ownable.sol\":1928:1938  _msgSender */\n      tag_85\n        /* \"@openzeppelin/contracts/access/Ownable.sol\":1928:1940  _msgSender() */\n      jump\t// in\n    tag_88:\n        /* \"@openzeppelin/contracts/access/Ownable.sol\":1901:1941  OwnableUnauthorizedAccount(_msgSender()) */\n      mload(0x40)\n      0x118cdaa700000000000000000000000000000000000000000000000000000000\n      dup2\n      mstore\n      0x04\n      add\n      tag_89\n      swap2\n      swap1\n      tag_24\n      jump\t// in\n    tag_89:\n      mload(0x40)\n      dup1\n      swap2\n      sub\n      swap1\n      revert\n        /* \"@openzeppelin/contracts/access/Ownable.sol\":1851:1952  if (owner() != _msgSender()) {... */\n    tag_87:\n        /* \"@openzeppelin/contracts/access/Ownable.sol\":1796:1958  function _checkOwner() internal view virtual {... */\n      jump\t// out\n        /* \"@openzeppelin/contracts/access/Ownable.sol\":2912:3099  function _transferOwnership(address newOwner) internal virtual {... */\n    tag_63:\n        /* \"@openzeppelin/contracts/access/Ownable.sol\":2985:3001  address oldOwner */\n      0x00\n        /* \"@openzeppelin/contracts/access/Ownable.sol\":3004:3010  _owner */\n      dup1\n      0x00\n      swap1\n      sload\n      swap1\n      0x0100\n      exp\n      swap1\n      div\n      0xffffffffffffffffffffffffffffffffffffffff\n      and\n        /* \"@openzeppelin/contracts/access/Ownable.sol\":2985:3010  address oldOwner = _owner */\n      swap1\n      pop\n        /* \"@openzeppelin/contracts/access/Ownable.sol\":3029:3037  newOwner */\n      dup2\n        /* \"@openzeppelin/contracts/access/Ownable.sol\":3020:3026  _owner */\n      0x00\n      dup1\n        /* \"@openzeppelin/contracts/access/Ownable.sol\":3020:3037  _owner = newOwner */\n      0x0100\n      exp\n      dup2\n      sload\n      dup2\n      0xffffffffffffffffffffffffffffffffffffffff\n      mul\n      not\n      and\n      swap1\n      dup4\n      0xffffffffffffffffffffffffffffffffffffffff\n      and\n      mul\n      or\n      swap1\n      sstore\n      pop\n        /* \"@openzeppelin/contracts/access/Ownable.sol\":3083:3091  newOwner */\n      dup2\n        /* \"@openzeppelin/contracts/access/Ownable.sol\":3052:3092  OwnershipTransferred(oldOwner, newOwner) */\n      0xffffffffffffffffffffffffffffffffffffffff\n      and\n        /* \"@openzeppelin/contracts/access/Ownable.sol\":3073:3081  oldOwner */\n      dup2\n        /* \"@openzeppelin/contracts/access/Ownable.sol\":3052:3092  OwnershipTransferred(oldOwner, newOwner) */\n      0xffffffffffffffffffffffffffffffffffffffff\n      and\n      0x8be0079c531659141344cd1fd0a4f28419497f9722a3daafe3b4186f6b6457e0\n      mload(0x40)\n      mload(0x40)\n      dup1\n      swap2\n      sub\n      swap1\n      log3\n        /* \"@openzeppelin/contracts/access/Ownable.sol\":2975:3099  {... */\n      pop\n        /* \"@openzeppelin/contracts/access/Ownable.sol\":2912:3099  function _transferOwnership(address newOwner) internal virtual {... */\n      pop\n      jump\t// out\n        /* \"@openzeppelin/contracts/utils/Context.sol\":656:752  function _msgSender() internal view virtual returns (address) {... */\n    tag_85:\n        /* \"@openzeppelin/contracts/utils/Context.sol\":709:716  address */\n      0x00\n        /* \"@openzeppelin/contracts/utils/Context.sol\":735:745  msg.sender */\n      caller\n        /* \"@openzeppelin/contracts/utils/Context.sol\":728:745  return msg.sender */\n      swap1\n      pop\n        /* \"@openzeppelin/contracts/utils/Context.sol\":656:752  function _msgSender() internal view virtual returns (address) {... */\n      swap1\n      jump\t// out\n        /* \"#utility.yul\":7:82   */\n    tag_92:\n        /* \"#utility.yul\":40:46   */\n      0x00\n        /* \"#utility.yul\":73:75   */\n      0x40\n        /* \"#utility.yul\":67:76   */\n      mload\n        /* \"#utility.yul\":57:76   */\n      swap1\n      pop\n        /* \"#utility.yul\":7:82   */\n      swap1\n      jump\t// out\n        /* \"#utility.yul\":88:205   */\n    tag_93:\n        /* \"#utility.yul\":197:198   */\n      0x00\n        /* \"#utility.yul\":194:195   */\n      dup1\n        /* \"#utility.yul\":187:199   */\n      revert\n        /* \"#utility.yul\":211:328   */\n    tag_94:\n        /* \"#utility.yul\":320:321   */\n      0x00\n        /* \"#utility.yul\":317:318   */\n      dup1\n        /* \"#utility.yul\":310:322   */\n      revert\n        /* \"#utility.yul\":334:451   */\n    tag_95:\n        /* \"#utility.yul\":443:444   */\n      0x00\n        /* \"#utility.yul\":440:441   */\n      dup1\n        /* \"#utility.yul\":433:445   */\n      revert\n        /* \"#utility.yul\":457:574   */\n    tag_96:\n        /* \"#utility.yul\":566:567   */\n      0x00\n        /* \"#utility.yul\":563:564   */\n      dup1\n        /* \"#utility.yul\":556:568   */\n      revert\n        /* \"#utility.yul\":580:682   */\n    tag_97:\n        /* \"#utility.yul\":621:627   */\n      0x00\n        /* \"#utility.yul\":672:674   */\n      0x1f\n        /* \"#utility.yul\":668:675   */\n      not\n        /* \"#utility.yul\":663:665   */\n      0x1f\n        /* \"#utility.yul\":656:661   */\n      dup4\n        /* \"#utility.yul\":652:666   */\n      add\n        /* \"#utility.yul\":648:676   */\n      and\n        /* \"#utility.yul\":638:676   */\n      swap1\n      pop\n        /* \"#utility.yul\":580:682   */\n      swap2\n      swap1\n      pop\n      jump\t// out\n        /* \"#utility.yul\":688:868   */\n    tag_98:\n        /* \"#utility.yul\":736:813   */\n      0x4e487b7100000000000000000000000000000000000000000000000000000000\n        /* \"#utility.yul\":733:734   */\n      0x00\n        /* \"#utility.yul\":726:814   */\n      mstore\n        /* \"#utility.yul\":833:837   */\n      0x41\n        /* \"#utility.yul\":830:831   */\n      0x04\n        /* \"#utility.yul\":823:838   */\n      mstore\n        /* \"#utility.yul\":857:861   */\n      0x24\n        /* \"#utility.yul\":854:855   */\n      0x00\n        /* \"#utility.yul\":847:862   */\n      revert\n        /* \"#utility.yul\":874:1155   */\n    tag_99:\n        /* \"#utility.yul\":957:984   */\n      tag_157\n        /* \"#utility.yul\":979:983   */\n      dup3\n        /* \"#utility.yul\":957:984   */\n      tag_97\n      jump\t// in\n    tag_157:\n        /* \"#utility.yul\":949:955   */\n      dup2\n        /* \"#utility.yul\":945:985   */\n      add\n        /* \"#utility.yul\":1087:1093   */\n      dup2\n        /* \"#utility.yul\":1075:1085   */\n      dup2\n        /* \"#utility.yul\":1072:1094   */\n      lt\n        /* \"#utility.yul\":1051:1069   */\n      0xffffffffffffffff\n        /* \"#utility.yul\":1039:1049   */\n      dup3\n        /* \"#utility.yul\":1036:1070   */\n      gt\n        /* \"#utility.yul\":1033:1095   */\n      or\n        /* \"#utility.yul\":1030:1118   */\n      iszero\n      tag_158\n      jumpi\n        /* \"#utility.yul\":1098:1116   */\n      tag_159\n      tag_98\n      jump\t// in\n    tag_159:\n        /* \"#utility.yul\":1030:1118   */\n    tag_158:\n        /* \"#utility.yul\":1138:1148   */\n      dup1\n        /* \"#utility.yul\":1134:1136   */\n      0x40\n        /* \"#utility.yul\":1127:1149   */\n      mstore\n        /* \"#utility.yul\":917:1155   */\n      pop\n        /* \"#utility.yul\":874:1155   */\n      pop\n      pop\n      jump\t// out\n        /* \"#utility.yul\":1161:1290   */\n    tag_100:\n        /* \"#utility.yul\":1195:1201   */\n      0x00\n        /* \"#utility.yul\":1222:1242   */\n      tag_161\n      tag_92\n      jump\t// in\n    tag_161:\n        /* \"#utility.yul\":1212:1242   */\n      swap1\n      pop\n        /* \"#utility.yul\":1251:1284   */\n      tag_162\n        /* \"#utility.yul\":1279:1283   */\n      dup3\n        /* \"#utility.yul\":1271:1277   */\n      dup3\n        /* \"#utility.yul\":1251:1284   */\n      tag_99\n      jump\t// in\n    tag_162:\n        /* \"#utility.yul\":1161:1290   */\n      swap2\n      swap1\n      pop\n      jump\t// out\n        /* \"#utility.yul\":1296:1604   */\n    tag_101:\n        /* \"#utility.yul\":1358:1362   */\n      0x00\n        /* \"#utility.yul\":1448:1466   */\n      0xffffffffffffffff\n        /* \"#utility.yul\":1440:1446   */\n      dup3\n        /* \"#utility.yul\":1437:1467   */\n      gt\n        /* \"#utility.yul\":1434:1490   */\n      iszero\n      tag_164\n      jumpi\n        /* \"#utility.yul\":1470:1488   */\n      tag_165\n      tag_98\n      jump\t// in\n    tag_165:\n        /* \"#utility.yul\":1434:1490   */\n    tag_164:\n        /* \"#utility.yul\":1508:1537   */\n      tag_166\n        /* \"#utility.yul\":1530:1536   */\n      dup3\n        /* \"#utility.yul\":1508:1537   */\n      tag_97\n      jump\t// in\n    tag_166:\n        /* \"#utility.yul\":1500:1537   */\n      swap1\n      pop\n        /* \"#utility.yul\":1592:1596   */\n      0x20\n        /* \"#utility.yul\":1586:1590   */\n      dup2\n        /* \"#utility.yul\":1582:1597   */\n      add\n        /* \"#utility.yul\":1574:1597   */\n      swap1\n      pop\n        /* \"#utility.yul\":1296:1604   */\n      swap2\n      swap1\n      pop\n      jump\t// out\n        /* \"#utility.yul\":1610:1758   */\n    tag_102:\n        /* \"#utility.yul\":1708:1714   */\n      dup3\n        /* \"#utility.yul\":1703:1706   */\n      dup2\n        /* \"#utility.yul\":1698:1701   */\n      dup4\n        /* \"#utility.yul\":1685:1715   */\n      calldatacopy\n        /* \"#utility.yul\":1749:1750   */\n      0x00\n        /* \"#utility.yul\":1740:1746   */\n      dup4\n        /* \"#utility.yul\":1735:1738   */\n      dup4\n        /* \"#utility.yul\":1731:1747   */\n      add\n        /* \"#utility.yul\":1724:1751   */\n      mstore\n        /* \"#utility.yul\":1610:1758   */\n      pop\n      pop\n      pop\n      jump\t// out\n        /* \"#utility.yul\":1764:2189   */\n    tag_103:\n        /* \"#utility.yul\":1842:1847   */\n      0x00\n        /* \"#utility.yul\":1867:1933   */\n      tag_169\n        /* \"#utility.yul\":1883:1932   */\n      tag_170\n        /* \"#utility.yul\":1925:1931   */\n      dup5\n        /* \"#utility.yul\":1883:1932   */\n      tag_101\n      jump\t// in\n    tag_170:\n        /* \"#utility.yul\":1867:1933   */\n      tag_100\n      jump\t// in\n    tag_169:\n        /* \"#utility.yul\":1858:1933   */\n      swap1\n      pop\n        /* \"#utility.yul\":1956:1962   */\n      dup3\n        /* \"#utility.yul\":1949:1954   */\n      dup2\n        /* \"#utility.yul\":1942:1963   */\n      mstore\n        /* \"#utility.yul\":1994:1998   */\n      0x20\n        /* \"#utility.yul\":1987:1992   */\n      dup2\n        /* \"#utility.yul\":1983:1999   */\n      add\n        /* \"#utility.yul\":2032:2035   */\n      dup5\n        /* \"#utility.yul\":2023:2029   */\n      dup5\n        /* \"#utility.yul\":2018:2021   */\n      dup5\n        /* \"#utility.yul\":2014:2030   */\n      add\n        /* \"#utility.yul\":2011:2036   */\n      gt\n        /* \"#utility.yul\":2008:2120   */\n      iszero\n      tag_171\n      jumpi\n        /* \"#utility.yul\":2039:2118   */\n      tag_172\n      tag_96\n      jump\t// in\n    tag_172:\n        /* \"#utility.yul\":2008:2120   */\n    tag_171:\n        /* \"#utility.yul\":2129:2183   */\n      tag_173\n        /* \"#utility.yul\":2176:2182   */\n      dup5\n        /* \"#utility.yul\":2171:2174   */\n      dup3\n        /* \"#utility.yul\":2166:2169   */\n      dup6\n        /* \"#utility.yul\":2129:2183   */\n      tag_102\n      jump\t// in\n    tag_173:\n        /* \"#utility.yul\":1848:2189   */\n      pop\n        /* \"#utility.yul\":1764:2189   */\n      swap4\n      swap3\n      pop\n      pop\n      pop\n      jump\t// out\n        /* \"#utility.yul\":2209:2549   */\n    tag_104:\n        /* \"#utility.yul\":2265:2270   */\n      0x00\n        /* \"#utility.yul\":2314:2317   */\n      dup3\n        /* \"#utility.yul\":2307:2311   */\n      0x1f\n        /* \"#utility.yul\":2299:2305   */\n      dup4\n        /* \"#utility.yul\":2295:2312   */\n      add\n        /* \"#utility.yul\":2291:2318   */\n      slt\n        /* \"#utility.yul\":2281:2403   */\n      tag_175\n      jumpi\n        /* \"#utility.yul\":2322:2401   */\n      tag_176\n      tag_95\n      jump\t// in\n    tag_176:\n        /* \"#utility.yul\":2281:2403   */\n    tag_175:\n        /* \"#utility.yul\":2439:2445   */\n      dup2\n        /* \"#utility.yul\":2426:2446   */\n      calldataload\n        /* \"#utility.yul\":2464:2543   */\n      tag_177\n        /* \"#utility.yul\":2539:2542   */\n      dup5\n        /* \"#utility.yul\":2531:2537   */\n      dup3\n        /* \"#utility.yul\":2524:2528   */\n      0x20\n        /* \"#utility.yul\":2516:2522   */\n      dup7\n        /* \"#utility.yul\":2512:2529   */\n      add\n        /* \"#utility.yul\":2464:2543   */\n      tag_103\n      jump\t// in\n    tag_177:\n        /* \"#utility.yul\":2455:2543   */\n      swap2\n      pop\n        /* \"#utility.yul\":2271:2549   */\n      pop\n        /* \"#utility.yul\":2209:2549   */\n      swap3\n      swap2\n      pop\n      pop\n      jump\t// out\n        /* \"#utility.yul\":2555:2632   */\n    tag_105:\n        /* \"#utility.yul\":2592:2599   */\n      0x00\n        /* \"#utility.yul\":2621:2626   */\n      dup2\n        /* \"#utility.yul\":2610:2626   */\n      swap1\n      pop\n        /* \"#utility.yul\":2555:2632   */\n      swap2\n      swap1\n      pop\n      jump\t// out\n        /* \"#utility.yul\":2638:2760   */\n    tag_106:\n        /* \"#utility.yul\":2711:2735   */\n      tag_180\n        /* \"#utility.yul\":2729:2734   */\n      dup2\n        /* \"#utility.yul\":2711:2735   */\n      tag_105\n      jump\t// in\n    tag_180:\n        /* \"#utility.yul\":2704:2709   */\n      dup2\n        /* \"#utility.yul\":2701:2736   */\n      eq\n        /* \"#utility.yul\":2691:2754   */\n      tag_181\n      jumpi\n        /* \"#utility.yul\":2750:2751   */\n      0x00\n        /* \"#utility.yul\":2747:2748   */\n      dup1\n        /* \"#utility.yul\":2740:2752   */\n      revert\n        /* \"#utility.yul\":2691:2754   */\n    tag_181:\n        /* \"#utility.yul\":2638:2760   */\n      pop\n      jump\t// out\n        /* \"#utility.yul\":2766:2905   */\n    tag_107:\n        /* \"#utility.yul\":2812:2817   */\n      0x00\n        /* \"#utility.yul\":2850:2856   */\n      dup2\n        /* \"#utility.yul\":2837:2857   */\n      calldataload\n        /* \"#utility.yul\":2828:2857   */\n      swap1\n      pop\n        /* \"#utility.yul\":2866:2899   */\n      tag_183\n        /* \"#utility.yul\":2893:2898   */\n      dup2\n        /* \"#utility.yul\":2866:2899   */\n      tag_106\n      jump\t// in\n    tag_183:\n        /* \"#utility.yul\":2766:2905   */\n      swap3\n      swap2\n      pop\n      pop\n      jump\t// out\n        /* \"#utility.yul\":2911:4362   */\n    tag_11:\n        /* \"#utility.yul\":3036:3042   */\n      0x00\n        /* \"#utility.yul\":3044:3050   */\n      dup1\n        /* \"#utility.yul\":3052:3058   */\n      0x00\n        /* \"#utility.yul\":3060:3066   */\n      dup1\n        /* \"#utility.yul\":3068:3074   */\n      0x00\n        /* \"#utility.yul\":3117:3120   */\n      0xa0\n        /* \"#utility.yul\":3105:3114   */\n      dup7\n        /* \"#utility.yul\":3096:3103   */\n      dup9\n        /* \"#utility.yul\":3092:3115   */\n      sub\n        /* \"#utility.yul\":3088:3121   */\n      slt\n        /* \"#utility.yul\":3085:3205   */\n      iszero\n      tag_185\n      jumpi\n        /* \"#utility.yul\":3124:3203   */\n      tag_186\n      tag_93\n      jump\t// in\n    tag_186:\n        /* \"#utility.yul\":3085:3205   */\n    tag_185:\n        /* \"#utility.yul\":3272:3273   */\n      0x00\n        /* \"#utility.yul\":3261:3270   */\n      dup7\n        /* \"#utility.yul\":3257:3274   */\n      add\n        /* \"#utility.yul\":3244:3275   */\n      calldataload\n        /* \"#utility.yul\":3302:3320   */\n      0xffffffffffffffff\n        /* \"#utility.yul\":3294:3300   */\n      dup2\n        /* \"#utility.yul\":3291:3321   */\n      gt\n        /* \"#utility.yul\":3288:3405   */\n      iszero\n      tag_187\n      jumpi\n        /* \"#utility.yul\":3324:3403   */\n      tag_188\n      tag_94\n      jump\t// in\n    tag_188:\n        /* \"#utility.yul\":3288:3405   */\n    tag_187:\n        /* \"#utility.yul\":3429:3492   */\n      tag_189\n        /* \"#utility.yul\":3484:3491   */\n      dup9\n        /* \"#utility.yul\":3475:3481   */\n      dup3\n        /* \"#utility.yul\":3464:3473   */\n      dup10\n        /* \"#utility.yul\":3460:3482   */\n      add\n        /* \"#utility.yul\":3429:3492   */\n      tag_104\n      jump\t// in\n    tag_189:\n        /* \"#utility.yul\":3419:3492   */\n      swap6\n      pop\n        /* \"#utility.yul\":3215:3502   */\n      pop\n        /* \"#utility.yul\":3569:3571   */\n      0x20\n        /* \"#utility.yul\":3558:3567   */\n      dup7\n        /* \"#utility.yul\":3554:3572   */\n      add\n        /* \"#utility.yul\":3541:3573   */\n      calldataload\n        /* \"#utility.yul\":3600:3618   */\n      0xffffffffffffffff\n        /* \"#utility.yul\":3592:3598   */\n      dup2\n        /* \"#utility.yul\":3589:3619   */\n      gt\n        /* \"#utility.yul\":3586:3703   */\n      iszero\n      tag_190\n      jumpi\n        /* \"#utility.yul\":3622:3701   */\n      tag_191\n      tag_94\n      jump\t// in\n    tag_191:\n        /* \"#utility.yul\":3586:3703   */\n    tag_190:\n        /* \"#utility.yul\":3727:3790   */\n      tag_192\n        /* \"#utility.yul\":3782:3789   */\n      dup9\n        /* \"#utility.yul\":3773:3779   */\n      dup3\n        /* \"#utility.yul\":3762:3771   */\n      dup10\n        /* \"#utility.yul\":3758:3780   */\n      add\n        /* \"#utility.yul\":3727:3790   */\n      tag_104\n      jump\t// in\n    tag_192:\n        /* \"#utility.yul\":3717:3790   */\n      swap5\n      pop\n        /* \"#utility.yul\":3512:3800   */\n      pop\n        /* \"#utility.yul\":3867:3869   */\n      0x40\n        /* \"#utility.yul\":3856:3865   */\n      dup7\n        /* \"#utility.yul\":3852:3870   */\n      add\n        /* \"#utility.yul\":3839:3871   */\n      calldataload\n        /* \"#utility.yul\":3898:3916   */\n      0xffffffffffffffff\n        /* \"#utility.yul\":3890:3896   */\n      dup2\n        /* \"#utility.yul\":3887:3917   */\n      gt\n        /* \"#utility.yul\":3884:4001   */\n      iszero\n      tag_193\n      jumpi\n        /* \"#utility.yul\":3920:3999   */\n      tag_194\n      tag_94\n      jump\t// in\n    tag_194:\n        /* \"#utility.yul\":3884:4001   */\n    tag_193:\n        /* \"#utility.yul\":4025:4088   */\n      tag_195\n        /* \"#utility.yul\":4080:4087   */\n      dup9\n        /* \"#utility.yul\":4071:4077   */\n      dup3\n        /* \"#utility.yul\":4060:4069   */\n      dup10\n        /* \"#utility.yul\":4056:4078   */\n      add\n        /* \"#utility.yul\":4025:4088   */\n      tag_104\n      jump\t// in\n    tag_195:\n        /* \"#utility.yul\":4015:4088   */\n      swap4\n      pop\n        /* \"#utility.yul\":3810:4098   */\n      pop\n        /* \"#utility.yul\":4137:4139   */\n      0x60\n        /* \"#utility.yul\":4163:4216   */\n      tag_196\n        /* \"#utility.yul\":4208:4215   */\n      dup9\n        /* \"#utility.yul\":4199:4205   */\n      dup3\n        /* \"#utility.yul\":4188:4197   */\n      dup10\n        /* \"#utility.yul\":4184:4206   */\n      add\n        /* \"#utility.yul\":4163:4216   */\n      tag_107\n      jump\t// in\n    tag_196:\n        /* \"#utility.yul\":4153:4216   */\n      swap3\n      pop\n        /* \"#utility.yul\":4108:4226   */\n      pop\n        /* \"#utility.yul\":4265:4268   */\n      0x80\n        /* \"#utility.yul\":4292:4345   */\n      tag_197\n        /* \"#utility.yul\":4337:4344   */\n      dup9\n        /* \"#utility.yul\":4328:4334   */\n      dup3\n        /* \"#utility.yul\":4317:4326   */\n      dup10\n        /* \"#utility.yul\":4313:4335   */\n      add\n        /* \"#utility.yul\":4292:4345   */\n      tag_107\n      jump\t// in\n    tag_197:\n        /* \"#utility.yul\":4282:4345   */\n      swap2\n      pop\n        /* \"#utility.yul\":4236:4355   */\n      pop\n        /* \"#utility.yul\":2911:4362   */\n      swap3\n      swap6\n      pop\n      swap3\n      swap6\n      swap1\n      swap4\n      pop\n      jump\t// out\n        /* \"#utility.yul\":4368:4877   */\n    tag_15:\n        /* \"#utility.yul\":4437:4443   */\n      0x00\n        /* \"#utility.yul\":4486:4488   */\n      0x20\n        /* \"#utility.yul\":4474:4483   */\n      dup3\n        /* \"#utility.yul\":4465:4472   */\n      dup5\n        /* \"#utility.yul\":4461:4484   */\n      sub\n        /* \"#utility.yul\":4457:4489   */\n      slt\n        /* \"#utility.yul\":4454:4573   */\n      iszero\n      tag_199\n      jumpi\n        /* \"#utility.yul\":4492:4571   */\n      tag_200\n      tag_93\n      jump\t// in\n    tag_200:\n        /* \"#utility.yul\":4454:4573   */\n    tag_199:\n        /* \"#utility.yul\":4640:4641   */\n      0x00\n        /* \"#utility.yul\":4629:4638   */\n      dup3\n        /* \"#utility.yul\":4625:4642   */\n      add\n        /* \"#utility.yul\":4612:4643   */\n      calldataload\n        /* \"#utility.yul\":4670:4688   */\n      0xffffffffffffffff\n        /* \"#utility.yul\":4662:4668   */\n      dup2\n        /* \"#utility.yul\":4659:4689   */\n      gt\n        /* \"#utility.yul\":4656:4773   */\n      iszero\n      tag_201\n      jumpi\n        /* \"#utility.yul\":4692:4771   */\n      tag_202\n      tag_94\n      jump\t// in\n    tag_202:\n        /* \"#utility.yul\":4656:4773   */\n    tag_201:\n        /* \"#utility.yul\":4797:4860   */\n      tag_203\n        /* \"#utility.yul\":4852:4859   */\n      dup5\n        /* \"#utility.yul\":4843:4849   */\n      dup3\n        /* \"#utility.yul\":4832:4841   */\n      dup6\n        /* \"#utility.yul\":4828:4850   */\n      add\n        /* \"#utility.yul\":4797:4860   */\n      tag_104\n      jump\t// in\n    tag_203:\n        /* \"#utility.yul\":4787:4860   */\n      swap2\n      pop\n        /* \"#utility.yul\":4583:4870   */\n      pop\n        /* \"#utility.yul\":4368:4877   */\n      swap3\n      swap2\n      pop\n      pop\n      jump\t// out\n        /* \"#utility.yul\":4883:5025   */\n    tag_108:\n        /* \"#utility.yul\":4978:4984   */\n      0x00\n        /* \"#utility.yul\":5012:5017   */\n      dup2\n        /* \"#utility.yul\":5006:5018   */\n      mload\n        /* \"#utility.yul\":4996:5018   */\n      swap1\n      pop\n        /* \"#utility.yul\":4883:5025   */\n      swap2\n      swap1\n      pop\n      jump\t// out\n        /* \"#utility.yul\":5031:5243   */\n    tag_109:\n        /* \"#utility.yul\":5158:5169   */\n      0x00\n        /* \"#utility.yul\":5192:5198   */\n      dup3\n        /* \"#utility.yul\":5187:5190   */\n      dup3\n        /* \"#utility.yul\":5180:5199   */\n      mstore\n        /* \"#utility.yul\":5232:5236   */\n      0x20\n        /* \"#utility.yul\":5227:5230   */\n      dup3\n        /* \"#utility.yul\":5223:5237   */\n      add\n        /* \"#utility.yul\":5208:5237   */\n      swap1\n      pop\n        /* \"#utility.yul\":5031:5243   */\n      swap3\n      swap2\n      pop\n      pop\n      jump\t// out\n        /* \"#utility.yul\":5249:5409   */\n    tag_110:\n        /* \"#utility.yul\":5344:5348   */\n      0x00\n        /* \"#utility.yul\":5367:5370   */\n      dup2\n        /* \"#utility.yul\":5359:5370   */\n      swap1\n      pop\n        /* \"#utility.yul\":5397:5401   */\n      0x20\n        /* \"#utility.yul\":5392:5395   */\n      dup3\n        /* \"#utility.yul\":5388:5402   */\n      add\n        /* \"#utility.yul\":5380:5402   */\n      swap1\n      pop\n        /* \"#utility.yul\":5249:5409   */\n      swap2\n      swap1\n      pop\n      jump\t// out\n        /* \"#utility.yul\":5415:5514   */\n    tag_111:\n        /* \"#utility.yul\":5467:5473   */\n      0x00\n        /* \"#utility.yul\":5501:5506   */\n      dup2\n        /* \"#utility.yul\":5495:5507   */\n      mload\n        /* \"#utility.yul\":5485:5507   */\n      swap1\n      pop\n        /* \"#utility.yul\":5415:5514   */\n      swap2\n      swap1\n      pop\n      jump\t// out\n        /* \"#utility.yul\":5520:5679   */\n    tag_112:\n        /* \"#utility.yul\":5594:5605   */\n      0x00\n        /* \"#utility.yul\":5628:5634   */\n      dup3\n        /* \"#utility.yul\":5623:5626   */\n      dup3\n        /* \"#utility.yul\":5616:5635   */\n      mstore\n        /* \"#utility.yul\":5668:5672   */\n      0x20\n        /* \"#utility.yul\":5663:5666   */\n      dup3\n        /* \"#utility.yul\":5659:5673   */\n      add\n        /* \"#utility.yul\":5644:5673   */\n      swap1\n      pop\n        /* \"#utility.yul\":5520:5679   */\n      swap3\n      swap2\n      pop\n      pop\n      jump\t// out\n        /* \"#utility.yul\":5685:5824   */\n    tag_113:\n        /* \"#utility.yul\":5774:5780   */\n      dup3\n        /* \"#utility.yul\":5769:5772   */\n      dup2\n        /* \"#utility.yul\":5764:5767   */\n      dup4\n        /* \"#utility.yul\":5758:5781   */\n      mcopy\n        /* \"#utility.yul\":5815:5816   */\n      0x00\n        /* \"#utility.yul\":5806:5812   */\n      dup4\n        /* \"#utility.yul\":5801:5804   */\n      dup4\n        /* \"#utility.yul\":5797:5813   */\n      add\n        /* \"#utility.yul\":5790:5817   */\n      mstore\n        /* \"#utility.yul\":5685:5824   */\n      pop\n      pop\n      pop\n      jump\t// out\n        /* \"#utility.yul\":5830:6187   */\n    tag_114:\n        /* \"#utility.yul\":5908:5911   */\n      0x00\n        /* \"#utility.yul\":5936:5975   */\n      tag_211\n        /* \"#utility.yul\":5969:5974   */\n      dup3\n        /* \"#utility.yul\":5936:5975   */\n      tag_111\n      jump\t// in\n    tag_211:\n        /* \"#utility.yul\":5991:6052   */\n      tag_212\n        /* \"#utility.yul\":6045:6051   */\n      dup2\n        /* \"#utility.yul\":6040:6043   */\n      dup6\n        /* \"#utility.yul\":5991:6052   */\n      tag_112\n      jump\t// in\n    tag_212:\n        /* \"#utility.yul\":5984:6052   */\n      swap4\n      pop\n        /* \"#utility.yul\":6061:6126   */\n      tag_213\n        /* \"#utility.yul\":6119:6125   */\n      dup2\n        /* \"#utility.yul\":6114:6117   */\n      dup6\n        /* \"#utility.yul\":6107:6111   */\n      0x20\n        /* \"#utility.yul\":6100:6105   */\n      dup7\n        /* \"#utility.yul\":6096:6112   */\n      add\n        /* \"#utility.yul\":6061:6126   */\n      tag_113\n      jump\t// in\n    tag_213:\n        /* \"#utility.yul\":6151:6180   */\n      tag_214\n        /* \"#utility.yul\":6173:6179   */\n      dup2\n        /* \"#utility.yul\":6151:6180   */\n      tag_97\n      jump\t// in\n    tag_214:\n        /* \"#utility.yul\":6146:6149   */\n      dup5\n        /* \"#utility.yul\":6142:6181   */\n      add\n        /* \"#utility.yul\":6135:6181   */\n      swap2\n      pop\n        /* \"#utility.yul\":5912:6187   */\n      pop\n        /* \"#utility.yul\":5830:6187   */\n      swap3\n      swap2\n      pop\n      pop\n      jump\t// out\n        /* \"#utility.yul\":6193:6301   */\n    tag_115:\n        /* \"#utility.yul\":6270:6294   */\n      tag_216\n        /* \"#utility.yul\":6288:6293   */\n      dup2\n        /* \"#utility.yul\":6270:6294   */\n      tag_105\n      jump\t// in\n    tag_216:\n        /* \"#utility.yul\":6265:6268   */\n      dup3\n        /* \"#utility.yul\":6258:6295   */\n      mstore\n        /* \"#utility.yul\":6193:6301   */\n      pop\n      pop\n      jump\t// out\n        /* \"#utility.yul\":6307:6397   */\n    tag_116:\n        /* \"#utility.yul\":6341:6348   */\n      0x00\n        /* \"#utility.yul\":6384:6389   */\n      dup2\n        /* \"#utility.yul\":6377:6390   */\n      iszero\n        /* \"#utility.yul\":6370:6391   */\n      iszero\n        /* \"#utility.yul\":6359:6391   */\n      swap1\n      pop\n        /* \"#utility.yul\":6307:6397   */\n      swap2\n      swap1\n      pop\n      jump\t// out\n        /* \"#utility.yul\":6403:6502   */\n    tag_117:\n        /* \"#utility.yul\":6474:6495   */\n      tag_219\n        /* \"#utility.yul\":6489:6494   */\n      dup2\n        /* \"#utility.yul\":6474:6495   */\n      tag_116\n      jump\t// in\n    tag_219:\n        /* \"#utility.yul\":6469:6472   */\n      dup3\n        /* \"#utility.yul\":6462:6496   */\n      mstore\n        /* \"#utility.yul\":6403:6502   */\n      pop\n      pop\n      jump\t// out\n        /* \"#utility.yul\":6594:7801   */\n    tag_118:\n        /* \"#utility.yul\":6709:6712   */\n      0x00\n        /* \"#utility.yul\":6745:6749   */\n      0xa0\n        /* \"#utility.yul\":6740:6743   */\n      dup4\n        /* \"#utility.yul\":6736:6750   */\n      add\n        /* \"#utility.yul\":6832:6836   */\n      0x00\n        /* \"#utility.yul\":6825:6830   */\n      dup4\n        /* \"#utility.yul\":6821:6837   */\n      add\n        /* \"#utility.yul\":6815:6838   */\n      mload\n        /* \"#utility.yul\":6885:6888   */\n      dup5\n        /* \"#utility.yul\":6879:6883   */\n      dup3\n        /* \"#utility.yul\":6875:6889   */\n      sub\n        /* \"#utility.yul\":6868:6872   */\n      0x00\n        /* \"#utility.yul\":6863:6866   */\n      dup7\n        /* \"#utility.yul\":6859:6873   */\n      add\n        /* \"#utility.yul\":6852:6890   */\n      mstore\n        /* \"#utility.yul\":6911:6984   */\n      tag_221\n        /* \"#utility.yul\":6979:6983   */\n      dup3\n        /* \"#utility.yul\":6965:6977   */\n      dup3\n        /* \"#utility.yul\":6911:6984   */\n      tag_114\n      jump\t// in\n    tag_221:\n        /* \"#utility.yul\":6903:6984   */\n      swap2\n      pop\n        /* \"#utility.yul\":6760:6995   */\n      pop\n        /* \"#utility.yul\":7081:7085   */\n      0x20\n        /* \"#utility.yul\":7074:7079   */\n      dup4\n        /* \"#utility.yul\":7070:7086   */\n      add\n        /* \"#utility.yul\":7064:7087   */\n      mload\n        /* \"#utility.yul\":7134:7137   */\n      dup5\n        /* \"#utility.yul\":7128:7132   */\n      dup3\n        /* \"#utility.yul\":7124:7138   */\n      sub\n        /* \"#utility.yul\":7117:7121   */\n      0x20\n        /* \"#utility.yul\":7112:7115   */\n      dup7\n        /* \"#utility.yul\":7108:7122   */\n      add\n        /* \"#utility.yul\":7101:7139   */\n      mstore\n        /* \"#utility.yul\":7160:7233   */\n      tag_222\n        /* \"#utility.yul\":7228:7232   */\n      dup3\n        /* \"#utility.yul\":7214:7226   */\n      dup3\n        /* \"#utility.yul\":7160:7233   */\n      tag_114\n      jump\t// in\n    tag_222:\n        /* \"#utility.yul\":7152:7233   */\n      swap2\n      pop\n        /* \"#utility.yul\":7005:7244   */\n      pop\n        /* \"#utility.yul\":7331:7335   */\n      0x40\n        /* \"#utility.yul\":7324:7329   */\n      dup4\n        /* \"#utility.yul\":7320:7336   */\n      add\n        /* \"#utility.yul\":7314:7337   */\n      mload\n        /* \"#utility.yul\":7350:7413   */\n      tag_223\n        /* \"#utility.yul\":7407:7411   */\n      0x40\n        /* \"#utility.yul\":7402:7405   */\n      dup7\n        /* \"#utility.yul\":7398:7412   */\n      add\n        /* \"#utility.yul\":7384:7396   */\n      dup3\n        /* \"#utility.yul\":7350:7413   */\n      tag_115\n      jump\t// in\n    tag_223:\n        /* \"#utility.yul\":7254:7423   */\n      pop\n        /* \"#utility.yul\":7511:7515   */\n      0x60\n        /* \"#utility.yul\":7504:7509   */\n      dup4\n        /* \"#utility.yul\":7500:7516   */\n      add\n        /* \"#utility.yul\":7494:7517   */\n      mload\n        /* \"#utility.yul\":7530:7593   */\n      tag_224\n        /* \"#utility.yul\":7587:7591   */\n      0x60\n        /* \"#utility.yul\":7582:7585   */\n      dup7\n        /* \"#utility.yul\":7578:7592   */\n      add\n        /* \"#utility.yul\":7564:7576   */\n      dup3\n        /* \"#utility.yul\":7530:7593   */\n      tag_115\n      jump\t// in\n    tag_224:\n        /* \"#utility.yul\":7433:7603   */\n      pop\n        /* \"#utility.yul\":7688:7692   */\n      0x80\n        /* \"#utility.yul\":7681:7686   */\n      dup4\n        /* \"#utility.yul\":7677:7693   */\n      add\n        /* \"#utility.yul\":7671:7694   */\n      mload\n        /* \"#utility.yul\":7707:7764   */\n      tag_225\n        /* \"#utility.yul\":7758:7762   */\n      0x80\n        /* \"#utility.yul\":7753:7756   */\n      dup7\n        /* \"#utility.yul\":7749:7763   */\n      add\n        /* \"#utility.yul\":7735:7747   */\n      dup3\n        /* \"#utility.yul\":7707:7764   */\n      tag_117\n      jump\t// in\n    tag_225:\n        /* \"#utility.yul\":7613:7774   */\n      pop\n        /* \"#utility.yul\":7791:7795   */\n      dup1\n        /* \"#utility.yul\":7784:7795   */\n      swap2\n      pop\n        /* \"#utility.yul\":6714:7801   */\n      pop\n        /* \"#utility.yul\":6594:7801   */\n      swap3\n      swap2\n      pop\n      pop\n      jump\t// out\n        /* \"#utility.yul\":7807:8075   */\n    tag_119:\n        /* \"#utility.yul\":7932:7942   */\n      0x00\n        /* \"#utility.yul\":7967:8069   */\n      tag_227\n        /* \"#utility.yul\":8065:8068   */\n      dup4\n        /* \"#utility.yul\":8057:8063   */\n      dup4\n        /* \"#utility.yul\":7967:8069   */\n      tag_118\n      jump\t// in\n    tag_227:\n        /* \"#utility.yul\":7953:8069   */\n      swap1\n      pop\n        /* \"#utility.yul\":7807:8075   */\n      swap3\n      swap2\n      pop\n      pop\n      jump\t// out\n        /* \"#utility.yul\":8081:8222   */\n    tag_120:\n        /* \"#utility.yul\":8179:8183   */\n      0x00\n        /* \"#utility.yul\":8211:8215   */\n      0x20\n        /* \"#utility.yul\":8206:8209   */\n      dup3\n        /* \"#utility.yul\":8202:8216   */\n      add\n        /* \"#utility.yul\":8194:8216   */\n      swap1\n      pop\n        /* \"#utility.yul\":8081:8222   */\n      swap2\n      swap1\n      pop\n      jump\t// out\n        /* \"#utility.yul\":8318:9453   */\n    tag_121:\n        /* \"#utility.yul\":8493:8496   */\n      0x00\n        /* \"#utility.yul\":8522:8604   */\n      tag_230\n        /* \"#utility.yul\":8598:8603   */\n      dup3\n        /* \"#utility.yul\":8522:8604   */\n      tag_108\n      jump\t// in\n    tag_230:\n        /* \"#utility.yul\":8620:8734   */\n      tag_231\n        /* \"#utility.yul\":8727:8733   */\n      dup2\n        /* \"#utility.yul\":8722:8725   */\n      dup6\n        /* \"#utility.yul\":8620:8734   */\n      tag_109\n      jump\t// in\n    tag_231:\n        /* \"#utility.yul\":8613:8734   */\n      swap4\n      pop\n        /* \"#utility.yul\":8760:8763   */\n      dup4\n        /* \"#utility.yul\":8805:8809   */\n      0x20\n        /* \"#utility.yul\":8797:8803   */\n      dup3\n        /* \"#utility.yul\":8793:8810   */\n      mul\n        /* \"#utility.yul\":8788:8791   */\n      dup6\n        /* \"#utility.yul\":8784:8811   */\n      add\n        /* \"#utility.yul\":8835:8919   */\n      tag_232\n        /* \"#utility.yul\":8913:8918   */\n      dup6\n        /* \"#utility.yul\":8835:8919   */\n      tag_110\n      jump\t// in\n    tag_232:\n        /* \"#utility.yul\":8942:8949   */\n      dup1\n        /* \"#utility.yul\":8973:8974   */\n      0x00\n        /* \"#utility.yul\":8958:9408   */\n    tag_233:\n        /* \"#utility.yul\":8983:8989   */\n      dup6\n        /* \"#utility.yul\":8980:8981   */\n      dup2\n        /* \"#utility.yul\":8977:8990   */\n      lt\n        /* \"#utility.yul\":8958:9408   */\n      iszero\n      tag_235\n      jumpi\n        /* \"#utility.yul\":9054:9063   */\n      dup5\n        /* \"#utility.yul\":9048:9052   */\n      dup5\n        /* \"#utility.yul\":9044:9064   */\n      sub\n        /* \"#utility.yul\":9039:9042   */\n      dup10\n        /* \"#utility.yul\":9032:9065   */\n      mstore\n        /* \"#utility.yul\":9105:9111   */\n      dup2\n        /* \"#utility.yul\":9099:9112   */\n      mload\n        /* \"#utility.yul\":9133:9253   */\n      tag_236\n        /* \"#utility.yul\":9248:9252   */\n      dup6\n        /* \"#utility.yul\":9233:9246   */\n      dup3\n        /* \"#utility.yul\":9133:9253   */\n      tag_119\n      jump\t// in\n    tag_236:\n        /* \"#utility.yul\":9125:9253   */\n      swap5\n      pop\n        /* \"#utility.yul\":9276:9364   */\n      tag_237\n        /* \"#utility.yul\":9357:9363   */\n      dup4\n        /* \"#utility.yul\":9276:9364   */\n      tag_120\n      jump\t// in\n    tag_237:\n        /* \"#utility.yul\":9266:9364   */\n      swap3\n      pop\n        /* \"#utility.yul\":9393:9397   */\n      0x20\n        /* \"#utility.yul\":9388:9391   */\n      dup11\n        /* \"#utility.yul\":9384:9398   */\n      add\n        /* \"#utility.yul\":9377:9398   */\n      swap10\n      pop\n        /* \"#utility.yul\":9018:9408   */\n      pop\n        /* \"#utility.yul\":9005:9006   */\n      0x01\n        /* \"#utility.yul\":9002:9003   */\n      dup2\n        /* \"#utility.yul\":8998:9007   */\n      add\n        /* \"#utility.yul\":8993:9007   */\n      swap1\n      pop\n        /* \"#utility.yul\":8958:9408   */\n      jump(tag_233)\n    tag_235:\n        /* \"#utility.yul\":8962:8976   */\n      pop\n        /* \"#utility.yul\":9424:9428   */\n      dup3\n        /* \"#utility.yul\":9417:9428   */\n      swap8\n      pop\n        /* \"#utility.yul\":9444:9447   */\n      dup8\n        /* \"#utility.yul\":9437:9447   */\n      swap6\n      pop\n        /* \"#utility.yul\":8498:9453   */\n      pop\n      pop\n      pop\n      pop\n      pop\n        /* \"#utility.yul\":8318:9453   */\n      swap3\n      swap2\n      pop\n      pop\n      jump\t// out\n        /* \"#utility.yul\":9459:9944   */\n    tag_18:\n        /* \"#utility.yul\":9658:9662   */\n      0x00\n        /* \"#utility.yul\":9696:9698   */\n      0x20\n        /* \"#utility.yul\":9685:9694   */\n      dup3\n        /* \"#utility.yul\":9681:9699   */\n      add\n        /* \"#utility.yul\":9673:9699   */\n      swap1\n      pop\n        /* \"#utility.yul\":9745:9754   */\n      dup2\n        /* \"#utility.yul\":9739:9743   */\n      dup2\n        /* \"#utility.yul\":9735:9755   */\n      sub\n        /* \"#utility.yul\":9731:9732   */\n      0x00\n        /* \"#utility.yul\":9720:9729   */\n      dup4\n        /* \"#utility.yul\":9716:9733   */\n      add\n        /* \"#utility.yul\":9709:9756   */\n      mstore\n        /* \"#utility.yul\":9773:9937   */\n      tag_239\n        /* \"#utility.yul\":9932:9936   */\n      dup2\n        /* \"#utility.yul\":9923:9929   */\n      dup5\n        /* \"#utility.yul\":9773:9937   */\n      tag_121\n      jump\t// in\n    tag_239:\n        /* \"#utility.yul\":9765:9937   */\n      swap1\n      pop\n        /* \"#utility.yul\":9459:9944   */\n      swap3\n      swap2\n      pop\n      pop\n      jump\t// out\n        /* \"#utility.yul\":9950:10076   */\n    tag_122:\n        /* \"#utility.yul\":9987:9994   */\n      0x00\n        /* \"#utility.yul\":10027:10069   */\n      0xffffffffffffffffffffffffffffffffffffffff\n        /* \"#utility.yul\":10020:10025   */\n      dup3\n        /* \"#utility.yul\":10016:10070   */\n      and\n        /* \"#utility.yul\":10005:10070   */\n      swap1\n      pop\n        /* \"#utility.yul\":9950:10076   */\n      swap2\n      swap1\n      pop\n      jump\t// out\n        /* \"#utility.yul\":10082:10178   */\n    tag_123:\n        /* \"#utility.yul\":10119:10126   */\n      0x00\n        /* \"#utility.yul\":10148:10172   */\n      tag_242\n        /* \"#utility.yul\":10166:10171   */\n      dup3\n        /* \"#utility.yul\":10148:10172   */\n      tag_122\n      jump\t// in\n    tag_242:\n        /* \"#utility.yul\":10137:10172   */\n      swap1\n      pop\n        /* \"#utility.yul\":10082:10178   */\n      swap2\n      swap1\n      pop\n      jump\t// out\n        /* \"#utility.yul\":10184:10302   */\n    tag_124:\n        /* \"#utility.yul\":10271:10295   */\n      tag_244\n        /* \"#utility.yul\":10289:10294   */\n      dup2\n        /* \"#utility.yul\":10271:10295   */\n      tag_123\n      jump\t// in\n    tag_244:\n        /* \"#utility.yul\":10266:10269   */\n      dup3\n        /* \"#utility.yul\":10259:10296   */\n      mstore\n        /* \"#utility.yul\":10184:10302   */\n      pop\n      pop\n      jump\t// out\n        /* \"#utility.yul\":10308:10530   */\n    tag_24:\n        /* \"#utility.yul\":10401:10405   */\n      0x00\n        /* \"#utility.yul\":10439:10441   */\n      0x20\n        /* \"#utility.yul\":10428:10437   */\n      dup3\n        /* \"#utility.yul\":10424:10442   */\n      add\n        /* \"#utility.yul\":10416:10442   */\n      swap1\n      pop\n        /* \"#utility.yul\":10452:10523   */\n      tag_246\n        /* \"#utility.yul\":10520:10521   */\n      0x00\n        /* \"#utility.yul\":10509:10518   */\n      dup4\n        /* \"#utility.yul\":10505:10522   */\n      add\n        /* \"#utility.yul\":10496:10502   */\n      dup5\n        /* \"#utility.yul\":10452:10523   */\n      tag_124\n      jump\t// in\n    tag_246:\n        /* \"#utility.yul\":10308:10530   */\n      swap3\n      swap2\n      pop\n      pop\n      jump\t// out\n        /* \"#utility.yul\":10536:11190   */\n    tag_27:\n        /* \"#utility.yul\":10614:10620   */\n      0x00\n        /* \"#utility.yul\":10622:10628   */\n      dup1\n        /* \"#utility.yul\":10671:10673   */\n      0x40\n        /* \"#utility.yul\":10659:10668   */\n      dup4\n        /* \"#utility.yul\":10650:10657   */\n      dup6\n        /* \"#utility.yul\":10646:10669   */\n      sub\n        /* \"#utility.yul\":10642:10674   */\n      slt\n        /* \"#utility.yul\":10639:10758   */\n      iszero\n      tag_248\n      jumpi\n        /* \"#utility.yul\":10677:10756   */\n      tag_249\n      tag_93\n      jump\t// in\n    tag_249:\n        /* \"#utility.yul\":10639:10758   */\n    tag_248:\n        /* \"#utility.yul\":10825:10826   */\n      0x00\n        /* \"#utility.yul\":10814:10823   */\n      dup4\n        /* \"#utility.yul\":10810:10827   */\n      add\n        /* \"#utility.yul\":10797:10828   */\n      calldataload\n        /* \"#utility.yul\":10855:10873   */\n      0xffffffffffffffff\n        /* \"#utility.yul\":10847:10853   */\n      dup2\n        /* \"#utility.yul\":10844:10874   */\n      gt\n        /* \"#utility.yul\":10841:10958   */\n      iszero\n      tag_250\n      jumpi\n        /* \"#utility.yul\":10877:10956   */\n      tag_251\n      tag_94\n      jump\t// in\n    tag_251:\n        /* \"#utility.yul\":10841:10958   */\n    tag_250:\n        /* \"#utility.yul\":10982:11045   */\n      tag_252\n        /* \"#utility.yul\":11037:11044   */\n      dup6\n        /* \"#utility.yul\":11028:11034   */\n      dup3\n        /* \"#utility.yul\":11017:11026   */\n      dup7\n        /* \"#utility.yul\":11013:11035   */\n      add\n        /* \"#utility.yul\":10982:11045   */\n      tag_104\n      jump\t// in\n    tag_252:\n        /* \"#utility.yul\":10972:11045   */\n      swap3\n      pop\n        /* \"#utility.yul\":10768:11055   */\n      pop\n        /* \"#utility.yul\":11094:11096   */\n      0x20\n        /* \"#utility.yul\":11120:11173   */\n      tag_253\n        /* \"#utility.yul\":11165:11172   */\n      dup6\n        /* \"#utility.yul\":11156:11162   */\n      dup3\n        /* \"#utility.yul\":11145:11154   */\n      dup7\n        /* \"#utility.yul\":11141:11163   */\n      add\n        /* \"#utility.yul\":11120:11173   */\n      tag_107\n      jump\t// in\n    tag_253:\n        /* \"#utility.yul\":11110:11173   */\n      swap2\n      pop\n        /* \"#utility.yul\":11065:11183   */\n      pop\n        /* \"#utility.yul\":10536:11190   */\n      swap3\n      pop\n      swap3\n      swap1\n      pop\n      jump\t// out\n        /* \"#utility.yul\":11196:11318   */\n    tag_125:\n        /* \"#utility.yul\":11269:11293   */\n      tag_255\n        /* \"#utility.yul\":11287:11292   */\n      dup2\n        /* \"#utility.yul\":11269:11293   */\n      tag_123\n      jump\t// in\n    tag_255:\n        /* \"#utility.yul\":11262:11267   */\n      dup2\n        /* \"#utility.yul\":11259:11294   */\n      eq\n        /* \"#utility.yul\":11249:11312   */\n      tag_256\n      jumpi\n        /* \"#utility.yul\":11308:11309   */\n      0x00\n        /* \"#utility.yul\":11305:11306   */\n      dup1\n        /* \"#utility.yul\":11298:11310   */\n      revert\n        /* \"#utility.yul\":11249:11312   */\n    tag_256:\n        /* \"#utility.yul\":11196:11318   */\n      pop\n      jump\t// out\n        /* \"#utility.yul\":11324:11463   */\n    tag_126:\n        /* \"#utility.yul\":11370:11375   */\n      0x00\n        /* \"#utility.yul\":11408:11414   */\n      dup2\n        /* \"#utility.yul\":11395:11415   */\n      calldataload\n        /* \"#utility.yul\":11386:11415   */\n      swap1\n      pop\n        /* \"#utility.yul\":11424:11457   */\n      tag_258\n        /* \"#utility.yul\":11451:11456   */\n      dup2\n        /* \"#utility.yul\":11424:11457   */\n      tag_125\n      jump\t// in\n    tag_258:\n        /* \"#utility.yul\":11324:11463   */\n      swap3\n      swap2\n      pop\n      pop\n      jump\t// out\n        /* \"#utility.yul\":11469:11798   */\n    tag_31:\n        /* \"#utility.yul\":11528:11534   */\n      0x00\n        /* \"#utility.yul\":11577:11579   */\n      0x20\n        /* \"#utility.yul\":11565:11574   */\n      dup3\n        /* \"#utility.yul\":11556:11563   */\n      dup5\n        /* \"#utility.yul\":11552:11575   */\n      sub\n        /* \"#utility.yul\":11548:11580   */\n      slt\n        /* \"#utility.yul\":11545:11664   */\n      iszero\n      tag_260\n      jumpi\n        /* \"#utility.yul\":11583:11662   */\n      tag_261\n      tag_93\n      jump\t// in\n    tag_261:\n        /* \"#utility.yul\":11545:11664   */\n    tag_260:\n        /* \"#utility.yul\":11703:11704   */\n      0x00\n        /* \"#utility.yul\":11728:11781   */\n      tag_262\n        /* \"#utility.yul\":11773:11780   */\n      dup5\n        /* \"#utility.yul\":11764:11770   */\n      dup3\n        /* \"#utility.yul\":11753:11762   */\n      dup6\n        /* \"#utility.yul\":11749:11771   */\n      add\n        /* \"#utility.yul\":11728:11781   */\n      tag_126\n      jump\t// in\n    tag_262:\n        /* \"#utility.yul\":11718:11781   */\n      swap2\n      pop\n        /* \"#utility.yul\":11674:11791   */\n      pop\n        /* \"#utility.yul\":11469:11798   */\n      swap3\n      swap2\n      pop\n      pop\n      jump\t// out\n        /* \"#utility.yul\":11804:11952   */\n    tag_127:\n        /* \"#utility.yul\":11906:11917   */\n      0x00\n        /* \"#utility.yul\":11943:11946   */\n      dup2\n        /* \"#utility.yul\":11928:11946   */\n      swap1\n      pop\n        /* \"#utility.yul\":11804:11952   */\n      swap3\n      swap2\n      pop\n      pop\n      jump\t// out\n        /* \"#utility.yul\":11958:12348   */\n    tag_128:\n        /* \"#utility.yul\":12064:12067   */\n      0x00\n        /* \"#utility.yul\":12092:12131   */\n      tag_265\n        /* \"#utility.yul\":12125:12130   */\n      dup3\n        /* \"#utility.yul\":12092:12131   */\n      tag_111\n      jump\t// in\n    tag_265:\n        /* \"#utility.yul\":12147:12236   */\n      tag_266\n        /* \"#utility.yul\":12229:12235   */\n      dup2\n        /* \"#utility.yul\":12224:12227   */\n      dup6\n        /* \"#utility.yul\":12147:12236   */\n      tag_127\n      jump\t// in\n    tag_266:\n        /* \"#utility.yul\":12140:12236   */\n      swap4\n      pop\n        /* \"#utility.yul\":12245:12310   */\n      tag_267\n        /* \"#utility.yul\":12303:12309   */\n      dup2\n        /* \"#utility.yul\":12298:12301   */\n      dup6\n        /* \"#utility.yul\":12291:12295   */\n      0x20\n        /* \"#utility.yul\":12284:12289   */\n      dup7\n        /* \"#utility.yul\":12280:12296   */\n      add\n        /* \"#utility.yul\":12245:12310   */\n      tag_113\n      jump\t// in\n    tag_267:\n        /* \"#utility.yul\":12335:12341   */\n      dup1\n        /* \"#utility.yul\":12330:12333   */\n      dup5\n        /* \"#utility.yul\":12326:12342   */\n      add\n        /* \"#utility.yul\":12319:12342   */\n      swap2\n      pop\n        /* \"#utility.yul\":12068:12348   */\n      pop\n        /* \"#utility.yul\":11958:12348   */\n      swap3\n      swap2\n      pop\n      pop\n      jump\t// out\n        /* \"#utility.yul\":12354:12629   */\n    tag_38:\n        /* \"#utility.yul\":12486:12489   */\n      0x00\n        /* \"#utility.yul\":12508:12603   */\n      tag_269\n        /* \"#utility.yul\":12599:12602   */\n      dup3\n        /* \"#utility.yul\":12590:12596   */\n      dup5\n        /* \"#utility.yul\":12508:12603   */\n      tag_128\n      jump\t// in\n    tag_269:\n        /* \"#utility.yul\":12501:12603   */\n      swap2\n      pop\n        /* \"#utility.yul\":12620:12623   */\n      dup2\n        /* \"#utility.yul\":12613:12623   */\n      swap1\n      pop\n        /* \"#utility.yul\":12354:12629   */\n      swap3\n      swap2\n      pop\n      pop\n      jump\t// out\n        /* \"#utility.yul\":12635:12815   */\n    tag_129:\n        /* \"#utility.yul\":12683:12760   */\n      0x4e487b7100000000000000000000000000000000000000000000000000000000\n        /* \"#utility.yul\":12680:12681   */\n      0x00\n        /* \"#utility.yul\":12673:12761   */\n      mstore\n        /* \"#utility.yul\":12780:12784   */\n      0x22\n        /* \"#utility.yul\":12777:12778   */\n      0x04\n        /* \"#utility.yul\":12770:12785   */\n      mstore\n        /* \"#utility.yul\":12804:12808   */\n      0x24\n        /* \"#utility.yul\":12801:12802   */\n      0x00\n        /* \"#utility.yul\":12794:12809   */\n      revert\n        /* \"#utility.yul\":12821:13141   */\n    tag_49:\n        /* \"#utility.yul\":12865:12871   */\n      0x00\n        /* \"#utility.yul\":12902:12903   */\n      0x02\n        /* \"#utility.yul\":12896:12900   */\n      dup3\n        /* \"#utility.yul\":12892:12904   */\n      div\n        /* \"#utility.yul\":12882:12904   */\n      swap1\n      pop\n        /* \"#utility.yul\":12949:12950   */\n      0x01\n        /* \"#utility.yul\":12943:12947   */\n      dup3\n        /* \"#utility.yul\":12939:12951   */\n      and\n        /* \"#utility.yul\":12970:12988   */\n      dup1\n        /* \"#utility.yul\":12960:13041   */\n      tag_272\n      jumpi\n        /* \"#utility.yul\":13026:13030   */\n      0x7f\n        /* \"#utility.yul\":13018:13024   */\n      dup3\n        /* \"#utility.yul\":13014:13031   */\n      and\n        /* \"#utility.yul\":13004:13031   */\n      swap2\n      pop\n        /* \"#utility.yul\":12960:13041   */\n    tag_272:\n        /* \"#utility.yul\":13088:13090   */\n      0x20\n        /* \"#utility.yul\":13080:13086   */\n      dup3\n        /* \"#utility.yul\":13077:13091   */\n      lt\n        /* \"#utility.yul\":13057:13075   */\n      dup2\n        /* \"#utility.yul\":13054:13092   */\n      sub\n        /* \"#utility.yul\":13051:13135   */\n      tag_273\n      jumpi\n        /* \"#utility.yul\":13107:13125   */\n      tag_274\n      tag_129\n      jump\t// in\n    tag_274:\n        /* \"#utility.yul\":13051:13135   */\n    tag_273:\n        /* \"#utility.yul\":12872:13141   */\n      pop\n        /* \"#utility.yul\":12821:13141   */\n      swap2\n      swap1\n      pop\n      jump\t// out\n        /* \"#utility.yul\":13147:13288   */\n    tag_130:\n        /* \"#utility.yul\":13196:13200   */\n      0x00\n        /* \"#utility.yul\":13219:13222   */\n      dup2\n        /* \"#utility.yul\":13211:13222   */\n      swap1\n      pop\n        /* \"#utility.yul\":13242:13245   */\n      dup2\n        /* \"#utility.yul\":13239:13240   */\n      0x00\n        /* \"#utility.yul\":13232:13246   */\n      mstore\n        /* \"#utility.yul\":13276:13280   */\n      0x20\n        /* \"#utility.yul\":13273:13274   */\n      0x00\n        /* \"#utility.yul\":13263:13281   */\n      keccak256\n        /* \"#utility.yul\":13255:13281   */\n      swap1\n      pop\n        /* \"#utility.yul\":13147:13288   */\n      swap2\n      swap1\n      pop\n      jump\t// out\n        /* \"#utility.yul\":13294:13387   */\n    tag_131:\n        /* \"#utility.yul\":13331:13337   */\n      0x00\n        /* \"#utility.yul\":13378:13380   */\n      0x20\n        /* \"#utility.yul\":13373:13375   */\n      0x1f\n        /* \"#utility.yul\":13366:13371   */\n      dup4\n        /* \"#utility.yul\":13362:13376   */\n      add\n        /* \"#utility.yul\":13358:13381   */\n      div\n        /* \"#utility.yul\":13348:13381   */\n      swap1\n      pop\n        /* \"#utility.yul\":13294:13387   */\n      swap2\n      swap1\n      pop\n      jump\t// out\n        /* \"#utility.yul\":13393:13500   */\n    tag_132:\n        /* \"#utility.yul\":13437:13445   */\n      0x00\n        /* \"#utility.yul\":13487:13492   */\n      dup3\n        /* \"#utility.yul\":13481:13485   */\n      dup3\n        /* \"#utility.yul\":13477:13493   */\n      shl\n        /* \"#utility.yul\":13456:13493   */\n      swap1\n      pop\n        /* \"#utility.yul\":13393:13500   */\n      swap3\n      swap2\n      pop\n      pop\n      jump\t// out\n        /* \"#utility.yul\":13506:13899   */\n    tag_133:\n        /* \"#utility.yul\":13575:13581   */\n      0x00\n        /* \"#utility.yul\":13625:13626   */\n      0x08\n        /* \"#utility.yul\":13613:13623   */\n      dup4\n        /* \"#utility.yul\":13609:13627   */\n      mul\n        /* \"#utility.yul\":13648:13745   */\n      tag_279\n        /* \"#utility.yul\":13678:13744   */\n      0xffffffffffffffffffffffffffffffffffffffffffffffffffffffffffffffff\n        /* \"#utility.yul\":13667:13676   */\n      dup3\n        /* \"#utility.yul\":13648:13745   */\n      tag_132\n      jump\t// in\n    tag_279:\n        /* \"#utility.yul\":13766:13805   */\n      tag_280\n        /* \"#utility.yul\":13796:13804   */\n      dup7\n        /* \"#utility.yul\":13785:13794   */\n      dup4\n        /* \"#utility.yul\":13766:13805   */\n      tag_132\n      jump\t// in\n    tag_280:\n        /* \"#utility.yul\":13754:13805   */\n      swap6\n      pop\n        /* \"#utility.yul\":13838:13842   */\n      dup1\n        /* \"#utility.yul\":13834:13843   */\n      not\n        /* \"#utility.yul\":13827:13832   */\n      dup5\n        /* \"#utility.yul\":13823:13844   */\n      and\n        /* \"#utility.yul\":13814:13844   */\n      swap4\n      pop\n        /* \"#utility.yul\":13887:13891   */\n      dup1\n        /* \"#utility.yul\":13877:13885   */\n      dup7\n        /* \"#utility.yul\":13873:13892   */\n      and\n        /* \"#utility.yul\":13866:13871   */\n      dup5\n        /* \"#utility.yul\":13863:13893   */\n      or\n        /* \"#utility.yul\":13853:13893   */\n      swap3\n      pop\n        /* \"#utility.yul\":13582:13899   */\n      pop\n      pop\n        /* \"#utility.yul\":13506:13899   */\n      swap4\n      swap3\n      pop\n      pop\n      pop\n      jump\t// out\n        /* \"#utility.yul\":13905:13965   */\n    tag_134:\n        /* \"#utility.yul\":13933:13936   */\n      0x00\n        /* \"#utility.yul\":13954:13959   */\n      dup2\n        /* \"#utility.yul\":13947:13959   */\n      swap1\n      pop\n        /* \"#utility.yul\":13905:13965   */\n      swap2\n      swap1\n      pop\n      jump\t// out\n        /* \"#utility.yul\":13971:14113   */\n    tag_135:\n        /* \"#utility.yul\":14021:14030   */\n      0x00\n        /* \"#utility.yul\":14054:14107   */\n      tag_283\n        /* \"#utility.yul\":14072:14106   */\n      tag_284\n        /* \"#utility.yul\":14081:14105   */\n      tag_285\n        /* \"#utility.yul\":14099:14104   */\n      dup5\n        /* \"#utility.yul\":14081:14105   */\n      tag_105\n      jump\t// in\n    tag_285:\n        /* \"#utility.yul\":14072:14106   */\n      tag_134\n      jump\t// in\n    tag_284:\n        /* \"#utility.yul\":14054:14107   */\n      tag_105\n      jump\t// in\n    tag_283:\n        /* \"#utility.yul\":14041:14107   */\n      swap1\n      pop\n        /* \"#utility.yul\":13971:14113   */\n      swap2\n      swap1\n      pop\n      jump\t// out\n        /* \"#utility.yul\":14119:14194   */\n    tag_136:\n        /* \"#utility.yul\":14162:14165   */\n      0x00\n        /* \"#utility.yul\":14183:14188   */\n      dup2\n        /* \"#utility.yul\":14176:14188   */\n      swap1\n      pop\n        /* \"#utility.yul\":14119:14194   */\n      swap2\n      swap1\n      pop\n      jump\t// out\n        /* \"#utility.yul\":14200:14469   */\n    tag_137:\n        /* \"#utility.yul\":14310:14349   */\n      tag_288\n        /* \"#utility.yul\":14341:14348   */\n      dup4\n        /* \"#utility.yul\":14310:14349   */\n      tag_135\n      jump\t// in\n    tag_288:\n        /* \"#utility.yul\":14371:14462   */\n      tag_289\n        /* \"#utility.yul\":14420:14461   */\n      tag_290\n        /* \"#utility.yul\":14444:14460   */\n      dup3\n        /* \"#utility.yul\":14420:14461   */\n      tag_136\n      jump\t// in\n    tag_290:\n        /* \"#utility.yul\":14412:14418   */\n      dup5\n        /* \"#utility.yul\":14405:14409   */\n      dup5\n        /* \"#utility.yul\":14399:14410   */\n      sload\n        /* \"#utility.yul\":14371:14462   */\n      tag_133\n      jump\t// in\n    tag_289:\n        /* \"#utility.yul\":14365:14369   */\n      dup3\n        /* \"#utility.yul\":14358:14463   */\n      sstore\n        /* \"#utility.yul\":14276:14469   */\n      pop\n        /* \"#utility.yul\":14200:14469   */\n      pop\n      pop\n      pop\n      jump\t// out\n        /* \"#utility.yul\":14475:14548   */\n    tag_138:\n        /* \"#utility.yul\":14520:14523   */\n      0x00\n        /* \"#utility.yul\":14475:14548   */\n      swap1\n      jump\t// out\n        /* \"#utility.yul\":14554:14743   */\n    tag_139:\n        /* \"#utility.yul\":14631:14663   */\n      tag_293\n      tag_138\n      jump\t// in\n    tag_293:\n        /* \"#utility.yul\":14672:14737   */\n      tag_294\n        /* \"#utility.yul\":14730:14736   */\n      dup2\n        /* \"#utility.yul\":14722:14728   */\n      dup5\n        /* \"#utility.yul\":14716:14720   */\n      dup5\n        /* \"#utility.yul\":14672:14737   */\n      tag_137\n      jump\t// in\n    tag_294:\n        /* \"#utility.yul\":14607:14743   */\n      pop\n        /* \"#utility.yul\":14554:14743   */\n      pop\n      pop\n      jump\t// out\n        /* \"#utility.yul\":14749:14935   */\n    tag_140:\n        /* \"#utility.yul\":14809:14929   */\n    tag_296:\n        /* \"#utility.yul\":14826:14829   */\n      dup2\n        /* \"#utility.yul\":14819:14824   */\n      dup2\n        /* \"#utility.yul\":14816:14830   */\n      lt\n        /* \"#utility.yul\":14809:14929   */\n      iszero\n      tag_298\n      jumpi\n        /* \"#utility.yul\":14880:14919   */\n      tag_299\n        /* \"#utility.yul\":14917:14918   */\n      0x00\n        /* \"#utility.yul\":14910:14915   */\n      dup3\n        /* \"#utility.yul\":14880:14919   */\n      tag_139\n      jump\t// in\n    tag_299:\n        /* \"#utility.yul\":14853:14854   */\n      0x01\n        /* \"#utility.yul\":14846:14851   */\n      dup2\n        /* \"#utility.yul\":14842:14855   */\n      add\n        /* \"#utility.yul\":14833:14855   */\n      swap1\n      pop\n        /* \"#utility.yul\":14809:14929   */\n      jump(tag_296)\n    tag_298:\n        /* \"#utility.yul\":14749:14935   */\n      pop\n      pop\n      jump\t// out\n        /* \"#utility.yul\":14941:15484   */\n    tag_141:\n        /* \"#utility.yul\":15042:15044   */\n      0x1f\n        /* \"#utility.yul\":15037:15040   */\n      dup3\n        /* \"#utility.yul\":15034:15045   */\n      gt\n        /* \"#utility.yul\":15031:15477   */\n      iszero\n      tag_301\n      jumpi\n        /* \"#utility.yul\":15076:15114   */\n      tag_302\n        /* \"#utility.yul\":15108:15113   */\n      dup2\n        /* \"#utility.yul\":15076:15114   */\n      tag_130\n      jump\t// in\n    tag_302:\n        /* \"#utility.yul\":15160:15189   */\n      tag_303\n        /* \"#utility.yul\":15178:15188   */\n      dup5\n        /* \"#utility.yul\":15160:15189   */\n      tag_131\n      jump\t// in\n    tag_303:\n        /* \"#utility.yul\":15150:15158   */\n      dup2\n        /* \"#utility.yul\":15146:15190   */\n      add\n        /* \"#utility.yul\":15343:15345   */\n      0x20\n        /* \"#utility.yul\":15331:15341   */\n      dup6\n        /* \"#utility.yul\":15328:15346   */\n      lt\n        /* \"#utility.yul\":15325:15374   */\n      iszero\n      tag_304\n      jumpi\n        /* \"#utility.yul\":15364:15372   */\n      dup2\n        /* \"#utility.yul\":15349:15372   */\n      swap1\n      pop\n        /* \"#utility.yul\":15325:15374   */\n    tag_304:\n        /* \"#utility.yul\":15387:15467   */\n      tag_305\n        /* \"#utility.yul\":15443:15465   */\n      tag_306\n        /* \"#utility.yul\":15461:15464   */\n      dup6\n        /* \"#utility.yul\":15443:15465   */\n      tag_131\n      jump\t// in\n    tag_306:\n        /* \"#utility.yul\":15433:15441   */\n      dup4\n        /* \"#utility.yul\":15429:15466   */\n      add\n        /* \"#utility.yul\":15416:15427   */\n      dup3\n        /* \"#utility.yul\":15387:15467   */\n      tag_140\n      jump\t// in\n    tag_305:\n        /* \"#utility.yul\":15046:15477   */\n      pop\n      pop\n        /* \"#utility.yul\":15031:15477   */\n    tag_301:\n        /* \"#utility.yul\":14941:15484   */\n      pop\n      pop\n      pop\n      jump\t// out\n        /* \"#utility.yul\":15490:15607   */\n    tag_142:\n        /* \"#utility.yul\":15544:15552   */\n      0x00\n        /* \"#utility.yul\":15594:15599   */\n      dup3\n        /* \"#utility.yul\":15588:15592   */\n      dup3\n        /* \"#utility.yul\":15584:15600   */\n      shr\n        /* \"#utility.yul\":15563:15600   */\n      swap1\n      pop\n        /* \"#utility.yul\":15490:15607   */\n      swap3\n      swap2\n      pop\n      pop\n      jump\t// out\n        /* \"#utility.yul\":15613:15782   */\n    tag_143:\n        /* \"#utility.yul\":15657:15663   */\n      0x00\n        /* \"#utility.yul\":15690:15741   */\n      tag_309\n        /* \"#utility.yul\":15738:15739   */\n      0x00\n        /* \"#utility.yul\":15734:15740   */\n      not\n        /* \"#utility.yul\":15726:15731   */\n      dup5\n        /* \"#utility.yul\":15723:15724   */\n      0x08\n        /* \"#utility.yul\":15719:15732   */\n      mul\n        /* \"#utility.yul\":15690:15741   */\n      tag_142\n      jump\t// in\n    tag_309:\n        /* \"#utility.yul\":15686:15742   */\n      not\n        /* \"#utility.yul\":15771:15775   */\n      dup1\n        /* \"#utility.yul\":15765:15769   */\n      dup4\n        /* \"#utility.yul\":15761:15776   */\n      and\n        /* \"#utility.yul\":15751:15776   */\n      swap2\n      pop\n        /* \"#utility.yul\":15664:15782   */\n      pop\n        /* \"#utility.yul\":15613:15782   */\n      swap3\n      swap2\n      pop\n      pop\n      jump\t// out\n        /* \"#utility.yul\":15787:16082   */\n    tag_144:\n        /* \"#utility.yul\":15863:15867   */\n      0x00\n        /* \"#utility.yul\":16009:16038   */\n      tag_311\n        /* \"#utility.yul\":16034:16037   */\n      dup4\n        /* \"#utility.yul\":16028:16032   */\n      dup4\n        /* \"#utility.yul\":16009:16038   */\n      tag_143\n      jump\t// in\n    tag_311:\n        /* \"#utility.yul\":16001:16038   */\n      swap2\n      pop\n        /* \"#utility.yul\":16071:16074   */\n      dup3\n        /* \"#utility.yul\":16068:16069   */\n      0x02\n        /* \"#utility.yul\":16064:16075   */\n      mul\n        /* \"#utility.yul\":16058:16062   */\n      dup3\n        /* \"#utility.yul\":16055:16076   */\n      or\n        /* \"#utility.yul\":16047:16076   */\n      swap1\n      pop\n        /* \"#utility.yul\":15787:16082   */\n      swap3\n      swap2\n      pop\n      pop\n      jump\t// out\n        /* \"#utility.yul\":16087:17482   */\n    tag_41:\n        /* \"#utility.yul\":16204:16241   */\n      tag_313\n        /* \"#utility.yul\":16237:16240   */\n      dup3\n        /* \"#utility.yul\":16204:16241   */\n      tag_111\n      jump\t// in\n    tag_313:\n        /* \"#utility.yul\":16306:16324   */\n      0xffffffffffffffff\n        /* \"#utility.yul\":16298:16304   */\n      dup2\n        /* \"#utility.yul\":16295:16325   */\n      gt\n        /* \"#utility.yul\":16292:16348   */\n      iszero\n      tag_314\n      jumpi\n        /* \"#utility.yul\":16328:16346   */\n      tag_315\n      tag_98\n      jump\t// in\n    tag_315:\n        /* \"#utility.yul\":16292:16348   */\n    tag_314:\n        /* \"#utility.yul\":16372:16410   */\n      tag_316\n        /* \"#utility.yul\":16404:16408   */\n      dup3\n        /* \"#utility.yul\":16398:16409   */\n      sload\n        /* \"#utility.yul\":16372:16410   */\n      tag_49\n      jump\t// in\n    tag_316:\n        /* \"#utility.yul\":16457:16524   */\n      tag_317\n        /* \"#utility.yul\":16517:16523   */\n      dup3\n        /* \"#utility.yul\":16509:16515   */\n      dup3\n        /* \"#utility.yul\":16503:16507   */\n      dup6\n        /* \"#utility.yul\":16457:16524   */\n      tag_141\n      jump\t// in\n    tag_317:\n        /* \"#utility.yul\":16551:16552   */\n      0x00\n        /* \"#utility.yul\":16575:16579   */\n      0x20\n        /* \"#utility.yul\":16562:16579   */\n      swap1\n      pop\n        /* \"#utility.yul\":16607:16609   */\n      0x1f\n        /* \"#utility.yul\":16599:16605   */\n      dup4\n        /* \"#utility.yul\":16596:16610   */\n      gt\n        /* \"#utility.yul\":16624:16625   */\n      0x01\n        /* \"#utility.yul\":16619:17237   */\n      dup2\n      eq\n      tag_319\n      jumpi\n        /* \"#utility.yul\":17281:17282   */\n      0x00\n        /* \"#utility.yul\":17298:17304   */\n      dup5\n        /* \"#utility.yul\":17295:17372   */\n      iszero\n      tag_320\n      jumpi\n        /* \"#utility.yul\":17347:17356   */\n      dup3\n        /* \"#utility.yul\":17342:17345   */\n      dup8\n        /* \"#utility.yul\":17338:17357   */\n      add\n        /* \"#utility.yul\":17332:17358   */\n      mload\n        /* \"#utility.yul\":17323:17358   */\n      swap1\n      pop\n        /* \"#utility.yul\":17295:17372   */\n    tag_320:\n        /* \"#utility.yul\":17398:17465   */\n      tag_321\n        /* \"#utility.yul\":17458:17464   */\n      dup6\n        /* \"#utility.yul\":17451:17456   */\n      dup3\n        /* \"#utility.yul\":17398:17465   */\n      tag_144\n      jump\t// in\n    tag_321:\n        /* \"#utility.yul\":17392:17396   */\n      dup7\n        /* \"#utility.yul\":17385:17466   */\n      sstore\n        /* \"#utility.yul\":17254:17476   */\n      pop\n        /* \"#utility.yul\":16589:17476   */\n      jump(tag_318)\n        /* \"#utility.yul\":16619:17237   */\n    tag_319:\n        /* \"#utility.yul\":16671:16675   */\n      0x1f\n        /* \"#utility.yul\":16667:16676   */\n      not\n        /* \"#utility.yul\":16659:16665   */\n      dup5\n        /* \"#utility.yul\":16655:16677   */\n      and\n        /* \"#utility.yul\":16705:16742   */\n      tag_322\n        /* \"#utility.yul\":16737:16741   */\n      dup7\n        /* \"#utility.yul\":16705:16742   */\n      tag_130\n      jump\t// in\n    tag_322:\n        /* \"#utility.yul\":16764:16765   */\n      0x00\n        /* \"#utility.yul\":16778:16986   */\n    tag_323:\n        /* \"#utility.yul\":16792:16799   */\n      dup3\n        /* \"#utility.yul\":16789:16790   */\n      dup2\n        /* \"#utility.yul\":16786:16800   */\n      lt\n        /* \"#utility.yul\":16778:16986   */\n      iszero\n      tag_325\n      jumpi\n        /* \"#utility.yul\":16871:16880   */\n      dup5\n        /* \"#utility.yul\":16866:16869   */\n      dup10\n        /* \"#utility.yul\":16862:16881   */\n      add\n        /* \"#utility.yul\":16856:16882   */\n      mload\n        /* \"#utility.yul\":16848:16854   */\n      dup3\n        /* \"#utility.yul\":16841:16883   */\n      sstore\n        /* \"#utility.yul\":16922:16923   */\n      0x01\n        /* \"#utility.yul\":16914:16920   */\n      dup3\n        /* \"#utility.yul\":16910:16924   */\n      add\n        /* \"#utility.yul\":16900:16924   */\n      swap2\n      pop\n        /* \"#utility.yul\":16969:16971   */\n      0x20\n        /* \"#utility.yul\":16958:16967   */\n      dup6\n        /* \"#utility.yul\":16954:16972   */\n      add\n        /* \"#utility.yul\":16941:16972   */\n      swap5\n      pop\n        /* \"#utility.yul\":16815:16819   */\n      0x20\n        /* \"#utility.yul\":16812:16813   */\n      dup2\n        /* \"#utility.yul\":16808:16820   */\n      add\n        /* \"#utility.yul\":16803:16820   */\n      swap1\n      pop\n        /* \"#utility.yul\":16778:16986   */\n      jump(tag_323)\n    tag_325:\n        /* \"#utility.yul\":17014:17020   */\n      dup7\n        /* \"#utility.yul\":17005:17012   */\n      dup4\n        /* \"#utility.yul\":17002:17021   */\n      lt\n        /* \"#utility.yul\":16999:17178   */\n      iszero\n      tag_326\n      jumpi\n        /* \"#utility.yul\":17072:17081   */\n      dup5\n        /* \"#utility.yul\":17067:17070   */\n      dup10\n        /* \"#utility.yul\":17063:17082   */\n      add\n        /* \"#utility.yul\":17057:17083   */\n      mload\n        /* \"#utility.yul\":17115:17163   */\n      tag_327\n        /* \"#utility.yul\":17157:17161   */\n      0x1f\n        /* \"#utility.yul\":17149:17155   */\n      dup10\n        /* \"#utility.yul\":17145:17162   */\n      and\n        /* \"#utility.yul\":17134:17143   */\n      dup3\n        /* \"#utility.yul\":17115:17163   */\n      tag_143\n      jump\t// in\n    tag_327:\n        /* \"#utility.yul\":17107:17113   */\n      dup4\n        /* \"#utility.yul\":17100:17164   */\n      sstore\n        /* \"#utility.yul\":17022:17178   */\n      pop\n        /* \"#utility.yul\":16999:17178   */\n    tag_326:\n        /* \"#utility.yul\":17224:17225   */\n      0x01\n        /* \"#utility.yul\":17220:17221   */\n      0x02\n        /* \"#utility.yul\":17212:17218   */\n      dup9\n        /* \"#utility.yul\":17208:17222   */\n      mul\n        /* \"#utility.yul\":17204:17226   */\n      add\n        /* \"#utility.yul\":17198:17202   */\n      dup9\n        /* \"#utility.yul\":17191:17227   */\n      sstore\n        /* \"#utility.yul\":16626:17237   */\n      pop\n      pop\n      pop\n        /* \"#utility.yul\":16589:17476   */\n    tag_318:\n      pop\n        /* \"#utility.yul\":16179:17482   */\n      pop\n      pop\n      pop\n        /* \"#utility.yul\":16087:17482   */\n      pop\n      pop\n      jump\t// out\n        /* \"#utility.yul\":17488:17657   */\n    tag_145:\n        /* \"#utility.yul\":17572:17583   */\n      0x00\n        /* \"#utility.yul\":17606:17612   */\n      dup3\n        /* \"#utility.yul\":17601:17604   */\n      dup3\n        /* \"#utility.yul\":17594:17613   */\n      mstore\n        /* \"#utility.yul\":17646:17650   */\n      0x20\n        /* \"#utility.yul\":17641:17644   */\n      dup3\n        /* \"#utility.yul\":17637:17651   */\n      add\n        /* \"#utility.yul\":17622:17651   */\n      swap1\n      pop\n        /* \"#utility.yul\":17488:17657   */\n      swap3\n      swap2\n      pop\n      pop\n      jump\t// out\n        /* \"#utility.yul\":17663:17834   */\n    tag_146:\n        /* \"#utility.yul\":17803:17826   */\n      0x4365727469666963617465206e6f7420666f756e640000000000000000000000\n        /* \"#utility.yul\":17799:17800   */\n      0x00\n        /* \"#utility.yul\":17791:17797   */\n      dup3\n        /* \"#utility.yul\":17787:17801   */\n      add\n        /* \"#utility.yul\":17780:17827   */\n      mstore\n        /* \"#utility.yul\":17663:17834   */\n      pop\n      jump\t// out\n        /* \"#utility.yul\":17840:18206   */\n    tag_147:\n        /* \"#utility.yul\":17982:17985   */\n      0x00\n        /* \"#utility.yul\":18003:18070   */\n      tag_331\n        /* \"#utility.yul\":18067:18069   */\n      0x15\n        /* \"#utility.yul\":18062:18065   */\n      dup4\n        /* \"#utility.yul\":18003:18070   */\n      tag_145\n      jump\t// in\n    tag_331:\n        /* \"#utility.yul\":17996:18070   */\n      swap2\n      pop\n        /* \"#utility.yul\":18079:18172   */\n      tag_332\n        /* \"#utility.yul\":18168:18171   */\n      dup3\n        /* \"#utility.yul\":18079:18172   */\n      tag_146\n      jump\t// in\n    tag_332:\n        /* \"#utility.yul\":18197:18199   */\n      0x20\n        /* \"#utility.yul\":18192:18195   */\n      dup3\n        /* \"#utility.yul\":18188:18200   */\n      add\n        /* \"#utility.yul\":18181:18200   */\n      swap1\n      pop\n        /* \"#utility.yul\":17840:18206   */\n      swap2\n      swap1\n      pop\n      jump\t// out\n        /* \"#utility.yul\":18212:18631   */\n    tag_71:\n        /* \"#utility.yul\":18378:18382   */\n      0x00\n        /* \"#utility.yul\":18416:18418   */\n      0x20\n        /* \"#utility.yul\":18405:18414   */\n      dup3\n        /* \"#utility.yul\":18401:18419   */\n      add\n        /* \"#utility.yul\":18393:18419   */\n      swap1\n      pop\n        /* \"#utility.yul\":18465:18474   */\n      dup2\n        /* \"#utility.yul\":18459:18463   */\n      dup2\n        /* \"#utility.yul\":18455:18475   */\n      sub\n        /* \"#utility.yul\":18451:18452   */\n      0x00\n        /* \"#utility.yul\":18440:18449   */\n      dup4\n        /* \"#utility.yul\":18436:18453   */\n      add\n        /* \"#utility.yul\":18429:18476   */\n      mstore\n        /* \"#utility.yul\":18493:18624   */\n      tag_334\n        /* \"#utility.yul\":18619:18623   */\n      dup2\n        /* \"#utility.yul\":18493:18624   */\n      tag_147\n      jump\t// in\n    tag_334:\n        /* \"#utility.yul\":18485:18624   */\n      swap1\n      pop\n        /* \"#utility.yul\":18212:18631   */\n      swap2\n      swap1\n      pop\n      jump\t// out\n        /* \"#utility.yul\":18637:18817   */\n    tag_75:\n        /* \"#utility.yul\":18685:18762   */\n      0x4e487b7100000000000000000000000000000000000000000000000000000000\n        /* \"#utility.yul\":18682:18683   */\n      0x00\n        /* \"#utility.yul\":18675:18763   */\n      mstore\n        /* \"#utility.yul\":18782:18786   */\n      0x32\n        /* \"#utility.yul\":18779:18780   */\n      0x04\n        /* \"#utility.yul\":18772:18787   */\n      mstore\n        /* \"#utility.yul\":18806:18810   */\n      0x24\n        /* \"#utility.yul\":18803:18804   */\n      0x00\n        /* \"#utility.yul\":18796:18811   */\n      revert\n\n    auxdata: 0xa2646970667358221220e2a3ca64f7416afa6e8b1e9135524ffa5d701a657ef72d342e643ce48c1958b364736f6c634300081a0033\n}\n",
				"bytecode": {
					"linkReferences": {},
					"object": "608060405234801561000f575f80fd5b50335f73ffffffffffffffffffffffffffffffffffffffff168173ffffffffffffffffffffffffffffffffffffffff1603610081575f6040517f1e4fbdf70000000000000000000000000000000000000000000000000000000081526004016100789190610196565b60405180910390fd5b6100908161009660201b60201c565b506101af565b5f805f9054906101000a900473ffffffffffffffffffffffffffffffffffffffff169050815f806101000a81548173ffffffffffffffffffffffffffffffffffffffff021916908373ffffffffffffffffffffffffffffffffffffffff1602179055508173ffffffffffffffffffffffffffffffffffffffff168173ffffffffffffffffffffffffffffffffffffffff167f8be0079c531659141344cd1fd0a4f28419497f9722a3daafe3b4186f6b6457e060405160405180910390a35050565b5f73ffffffffffffffffffffffffffffffffffffffff82169050919050565b5f61018082610157565b9050919050565b61019081610176565b82525050565b5f6020820190506101a95f830184610187565b92915050565b610ff5806101bc5f395ff3fe608060405234801561000f575f80fd5b5060043610610060575f3560e01c8063327eb157146100645780636a6dc08814610080578063715018a6146100b05780638da5cb5b146100ba578063dfc2611c146100d8578063f2fde38b146100f4575b5f80fd5b61007e6004803603810190610079919061080a565b610110565b005b61009a600480360381019061009591906108d5565b6101f1565b6040516100a79190610ada565b60405180910390f35b6100b86103b8565b005b6100c26103cb565b6040516100cf9190610b39565b60405180910390f35b6100f260048036038101906100ed9190610b52565b6103f2565b005b61010e60048036038101906101099190610bd6565b6104b7565b005b61011861053b565b5f6040518060a001604052808681526020018581526020018481526020018381526020016001151581525090506001866040516101559190610c3b565b908152602001604051809103902081908060018154018082558091505060019003905f5260205f2090600502015f909190919091505f820151815f01908161019d9190610e4b565b5060208201518160010190816101b39190610e4b565b5060408201518160020155606082015181600301556080820151816004015f6101000a81548160ff0219169083151502179055505050505050505050565b60606001826040516102039190610c3b565b9081526020016040518091039020805480602002602001604051908101604052809291908181526020015f905b828210156103ad578382905f5260205f2090600502016040518060a00160405290815f8201805461026090610c7e565b80601f016020809104026020016040519081016040528092919081815260200182805461028c90610c7e565b80156102d75780601f106102ae576101008083540402835291602001916102d7565b820191905f5260205f20905b8154815290600101906020018083116102ba57829003601f168201915b505050505081526020016001820180546102f090610c7e565b80601f016020809104026020016040519081016040528092919081815260200182805461031c90610c7e565b80156103675780601f1061033e57610100808354040283529160200191610367565b820191905f5260205f20905b81548152906001019060200180831161034a57829003601f168201915b505050505081526020016002820154815260200160038201548152602001600482015f9054906101000a900460ff16151515158152505081526020019060010190610230565b505050509050919050565b6103c061053b565b6103c95f6105c2565b565b5f805f9054906101000a900473ffffffffffffffffffffffffffffffffffffffff16905090565b6103fa61053b565b60018260405161040a9190610c3b565b908152602001604051809103902080549050811061045d576040517f08c379a000000000000000000000000000000000000000000000000000000000815260040161045490610f74565b60405180910390fd5b5f60018360405161046e9190610c3b565b9081526020016040518091039020828154811061048e5761048d610f92565b5b905f5260205f2090600502016004015f6101000a81548160ff0219169083151502179055505050565b6104bf61053b565b5f73ffffffffffffffffffffffffffffffffffffffff168173ffffffffffffffffffffffffffffffffffffffff160361052f575f6040517f1e4fbdf70000000000000000000000000000000000000000000000000000000081526004016105269190610b39565b60405180910390fd5b610538816105c2565b50565b610543610683565b73ffffffffffffffffffffffffffffffffffffffff166105616103cb565b73ffffffffffffffffffffffffffffffffffffffff16146105c057610584610683565b6040517f118cdaa70000000000000000000000000000000000000000000000000000000081526004016105b79190610b39565b60405180910390fd5b565b5f805f9054906101000a900473ffffffffffffffffffffffffffffffffffffffff169050815f806101000a81548173ffffffffffffffffffffffffffffffffffffffff021916908373ffffffffffffffffffffffffffffffffffffffff1602179055508173ffffffffffffffffffffffffffffffffffffffff168173ffffffffffffffffffffffffffffffffffffffff167f8be0079c531659141344cd1fd0a4f28419497f9722a3daafe3b4186f6b6457e060405160405180910390a35050565b5f33905090565b5f604051905090565b5f80fd5b5f80fd5b5f80fd5b5f80fd5b5f601f19601f8301169050919050565b7f4e487b71000000000000000000000000000000000000000000000000000000005f52604160045260245ffd5b6106e9826106a3565b810181811067ffffffffffffffff82111715610708576107076106b3565b5b80604052505050565b5f61071a61068a565b905061072682826106e0565b919050565b5f67ffffffffffffffff821115610745576107446106b3565b5b61074e826106a3565b9050602081019050919050565b828183375f83830152505050565b5f61077b6107768461072b565b610711565b9050828152602081018484840111156107975761079661069f565b5b6107a284828561075b565b509392505050565b5f82601f8301126107be576107bd61069b565b5b81356107ce848260208601610769565b91505092915050565b5f819050919050565b6107e9816107d7565b81146107f3575f80fd5b50565b5f81359050610804816107e0565b92915050565b5f805f805f60a0868803121561082357610822610693565b5b5f86013567ffffffffffffffff8111156108405761083f610697565b5b61084c888289016107aa565b955050602086013567ffffffffffffffff81111561086d5761086c610697565b5b610879888289016107aa565b945050604086013567ffffffffffffffff81111561089a57610899610697565b5b6108a6888289016107aa565b93505060606108b7888289016107f6565b92505060806108c8888289016107f6565b9150509295509295909350565b5f602082840312156108ea576108e9610693565b5b5f82013567ffffffffffffffff81111561090757610906610697565b5b610913848285016107aa565b91505092915050565b5f81519050919050565b5f82825260208201905092915050565b5f819050602082019050919050565b5f81519050919050565b5f82825260208201905092915050565b8281835e5f83830152505050565b5f61097782610945565b610981818561094f565b935061099181856020860161095f565b61099a816106a3565b840191505092915050565b6109ae816107d7565b82525050565b5f8115159050919050565b6109c8816109b4565b82525050565b5f60a083015f8301518482035f8601526109e8828261096d565b91505060208301518482036020860152610a02828261096d565b9150506040830151610a1760408601826109a5565b506060830151610a2a60608601826109a5565b506080830151610a3d60808601826109bf565b508091505092915050565b5f610a5383836109ce565b905092915050565b5f602082019050919050565b5f610a718261091c565b610a7b8185610926565b935083602082028501610a8d85610936565b805f5b85811015610ac85784840389528151610aa98582610a48565b9450610ab483610a5b565b925060208a01995050600181019050610a90565b50829750879550505050505092915050565b5f6020820190508181035f830152610af28184610a67565b905092915050565b5f73ffffffffffffffffffffffffffffffffffffffff82169050919050565b5f610b2382610afa565b9050919050565b610b3381610b19565b82525050565b5f602082019050610b4c5f830184610b2a565b92915050565b5f8060408385031215610b6857610b67610693565b5b5f83013567ffffffffffffffff811115610b8557610b84610697565b5b610b91858286016107aa565b9250506020610ba2858286016107f6565b9150509250929050565b610bb581610b19565b8114610bbf575f80fd5b50565b5f81359050610bd081610bac565b92915050565b5f60208284031215610beb57610bea610693565b5b5f610bf884828501610bc2565b91505092915050565b5f81905092915050565b5f610c1582610945565b610c1f8185610c01565b9350610c2f81856020860161095f565b80840191505092915050565b5f610c468284610c0b565b915081905092915050565b7f4e487b71000000000000000000000000000000000000000000000000000000005f52602260045260245ffd5b5f6002820490506001821680610c9557607f821691505b602082108103610ca857610ca7610c51565b5b50919050565b5f819050815f5260205f209050919050565b5f6020601f8301049050919050565b5f82821b905092915050565b5f60088302610d0a7fffffffffffffffffffffffffffffffffffffffffffffffffffffffffffffffff82610ccf565b610d148683610ccf565b95508019841693508086168417925050509392505050565b5f819050919050565b5f610d4f610d4a610d45846107d7565b610d2c565b6107d7565b9050919050565b5f819050919050565b610d6883610d35565b610d7c610d7482610d56565b848454610cdb565b825550505050565b5f90565b610d90610d84565b610d9b818484610d5f565b505050565b5b81811015610dbe57610db35f82610d88565b600181019050610da1565b5050565b601f821115610e0357610dd481610cae565b610ddd84610cc0565b81016020851015610dec578190505b610e00610df885610cc0565b830182610da0565b50505b505050565b5f82821c905092915050565b5f610e235f1984600802610e08565b1980831691505092915050565b5f610e3b8383610e14565b9150826002028217905092915050565b610e5482610945565b67ffffffffffffffff811115610e6d57610e6c6106b3565b5b610e778254610c7e565b610e82828285610dc2565b5f60209050601f831160018114610eb3575f8415610ea1578287015190505b610eab8582610e30565b865550610f12565b601f198416610ec186610cae565b5f5b82811015610ee857848901518255600182019150602085019450602081019050610ec3565b86831015610f055784890151610f01601f891682610e14565b8355505b6001600288020188555050505b505050505050565b5f82825260208201905092915050565b7f4365727469666963617465206e6f7420666f756e6400000000000000000000005f82015250565b5f610f5e601583610f1a565b9150610f6982610f2a565b602082019050919050565b5f6020820190508181035f830152610f8b81610f52565b9050919050565b7f4e487b71000000000000000000000000000000000000000000000000000000005f52603260045260245ffdfea2646970667358221220e2a3ca64f7416afa6e8b1e9135524ffa5d701a657ef72d342e643ce48c1958b364736f6c634300081a0033",
					"opcodes": "PUSH1 0x80 PUSH1 0x40 MSTORE CALLVALUE DUP1 ISZERO PUSH2 0xF JUMPI PUSH0 DUP1 REVERT JUMPDEST POP CALLER PUSH0 PUSH20 0xFFFFFFFFFFFFFFFFFFFFFFFFFFFFFFFFFFFFFFFF AND DUP2 PUSH20 0xFFFFFFFFFFFFFFFFFFFFFFFFFFFFFFFFFFFFFFFF AND SUB PUSH2 0x81 JUMPI PUSH0 PUSH1 0x40 MLOAD PUSH32 0x1E4FBDF700000000000000000000000000000000000000000000000000000000 DUP2 MSTORE PUSH1 0x4 ADD PUSH2 0x78 SWAP2 SWAP1 PUSH2 0x196 JUMP JUMPDEST PUSH1 0x40 MLOAD DUP1 SWAP2 SUB SWAP1 REVERT JUMPDEST PUSH2 0x90 DUP2 PUSH2 0x96 PUSH1 0x20 SHL PUSH1 0x20 SHR JUMP JUMPDEST POP PUSH2 0x1AF JUMP JUMPDEST PUSH0 DUP1 PUSH0 SWAP1 SLOAD SWAP1 PUSH2 0x100 EXP SWAP1 DIV PUSH20 0xFFFFFFFFFFFFFFFFFFFFFFFFFFFFFFFFFFFFFFFF AND SWAP1 POP DUP2 PUSH0 DUP1 PUSH2 0x100 EXP DUP2 SLOAD DUP2 PUSH20 0xFFFFFFFFFFFFFFFFFFFFFFFFFFFFFFFFFFFFFFFF MUL NOT AND SWAP1 DUP4 PUSH20 0xFFFFFFFFFFFFFFFFFFFFFFFFFFFFFFFFFFFFFFFF AND MUL OR SWAP1 SSTORE POP DUP2 PUSH20 0xFFFFFFFFFFFFFFFFFFFFFFFFFFFFFFFFFFFFFFFF AND DUP2 PUSH20 0xFFFFFFFFFFFFFFFFFFFFFFFFFFFFFFFFFFFFFFFF AND PUSH32 0x8BE0079C531659141344CD1FD0A4F28419497F9722A3DAAFE3B4186F6B6457E0 PUSH1 0x40 MLOAD PUSH1 0x40 MLOAD DUP1 SWAP2 SUB SWAP1 LOG3 POP POP JUMP JUMPDEST PUSH0 PUSH20 0xFFFFFFFFFFFFFFFFFFFFFFFFFFFFFFFFFFFFFFFF DUP3 AND SWAP1 POP SWAP2 SWAP1 POP JUMP JUMPDEST PUSH0 PUSH2 0x180 DUP3 PUSH2 0x157 JUMP JUMPDEST SWAP1 POP SWAP2 SWAP1 POP JUMP JUMPDEST PUSH2 0x190 DUP2 PUSH2 0x176 JUMP JUMPDEST DUP3 MSTORE POP POP JUMP JUMPDEST PUSH0 PUSH1 0x20 DUP3 ADD SWAP1 POP PUSH2 0x1A9 PUSH0 DUP4 ADD DUP5 PUSH2 0x187 JUMP JUMPDEST SWAP3 SWAP2 POP POP JUMP JUMPDEST PUSH2 0xFF5 DUP1 PUSH2 0x1BC PUSH0 CODECOPY PUSH0 RETURN INVALID PUSH1 0x80 PUSH1 0x40 MSTORE CALLVALUE DUP1 ISZERO PUSH2 0xF JUMPI PUSH0 DUP1 REVERT JUMPDEST POP PUSH1 0x4 CALLDATASIZE LT PUSH2 0x60 JUMPI PUSH0 CALLDATALOAD PUSH1 0xE0 SHR DUP1 PUSH4 0x327EB157 EQ PUSH2 0x64 JUMPI DUP1 PUSH4 0x6A6DC088 EQ PUSH2 0x80 JUMPI DUP1 PUSH4 0x715018A6 EQ PUSH2 0xB0 JUMPI DUP1 PUSH4 0x8DA5CB5B EQ PUSH2 0xBA JUMPI DUP1 PUSH4 0xDFC2611C EQ PUSH2 0xD8 JUMPI DUP1 PUSH4 0xF2FDE38B EQ PUSH2 0xF4 JUMPI JUMPDEST PUSH0 DUP1 REVERT JUMPDEST PUSH2 0x7E PUSH1 0x4 DUP1 CALLDATASIZE SUB DUP2 ADD SWAP1 PUSH2 0x79 SWAP2 SWAP1 PUSH2 0x80A JUMP JUMPDEST PUSH2 0x110 JUMP JUMPDEST STOP JUMPDEST PUSH2 0x9A PUSH1 0x4 DUP1 CALLDATASIZE SUB DUP2 ADD SWAP1 PUSH2 0x95 SWAP2 SWAP1 PUSH2 0x8D5 JUMP JUMPDEST PUSH2 0x1F1 JUMP JUMPDEST PUSH1 0x40 MLOAD PUSH2 0xA7 SWAP2 SWAP1 PUSH2 0xADA JUMP JUMPDEST PUSH1 0x40 MLOAD DUP1 SWAP2 SUB SWAP1 RETURN JUMPDEST PUSH2 0xB8 PUSH2 0x3B8 JUMP JUMPDEST STOP JUMPDEST PUSH2 0xC2 PUSH2 0x3CB JUMP JUMPDEST PUSH1 0x40 MLOAD PUSH2 0xCF SWAP2 SWAP1 PUSH2 0xB39 JUMP JUMPDEST PUSH1 0x40 MLOAD DUP1 SWAP2 SUB SWAP1 RETURN JUMPDEST PUSH2 0xF2 PUSH1 0x4 DUP1 CALLDATASIZE SUB DUP2 ADD SWAP1 PUSH2 0xED SWAP2 SWAP1 PUSH2 0xB52 JUMP JUMPDEST PUSH2 0x3F2 JUMP JUMPDEST STOP JUMPDEST PUSH2 0x10E PUSH1 0x4 DUP1 CALLDATASIZE SUB DUP2 ADD SWAP1 PUSH2 0x109 SWAP2 SWAP1 PUSH2 0xBD6 JUMP JUMPDEST PUSH2 0x4B7 JUMP JUMPDEST STOP JUMPDEST PUSH2 0x118 PUSH2 0x53B JUMP JUMPDEST PUSH0 PUSH1 0x40 MLOAD DUP1 PUSH1 0xA0 ADD PUSH1 0x40 MSTORE DUP1 DUP7 DUP2 MSTORE PUSH1 0x20 ADD DUP6 DUP2 MSTORE PUSH1 0x20 ADD DUP5 DUP2 MSTORE PUSH1 0x20 ADD DUP4 DUP2 MSTORE PUSH1 0x20 ADD PUSH1 0x1 ISZERO ISZERO DUP2 MSTORE POP SWAP1 POP PUSH1 0x1 DUP7 PUSH1 0x40 MLOAD PUSH2 0x155 SWAP2 SWAP1 PUSH2 0xC3B JUMP JUMPDEST SWAP1 DUP2 MSTORE PUSH1 0x20 ADD PUSH1 0x40 MLOAD DUP1 SWAP2 SUB SWAP1 KECCAK256 DUP2 SWAP1 DUP1 PUSH1 0x1 DUP2 SLOAD ADD DUP1 DUP3 SSTORE DUP1 SWAP2 POP POP PUSH1 0x1 SWAP1 SUB SWAP1 PUSH0 MSTORE PUSH1 0x20 PUSH0 KECCAK256 SWAP1 PUSH1 0x5 MUL ADD PUSH0 SWAP1 SWAP2 SWAP1 SWAP2 SWAP1 SWAP2 POP PUSH0 DUP3 ADD MLOAD DUP2 PUSH0 ADD SWAP1 DUP2 PUSH2 0x19D SWAP2 SWAP1 PUSH2 0xE4B JUMP JUMPDEST POP PUSH1 0x20 DUP3 ADD MLOAD DUP2 PUSH1 0x1 ADD SWAP1 DUP2 PUSH2 0x1B3 SWAP2 SWAP1 PUSH2 0xE4B JUMP JUMPDEST POP PUSH1 0x40 DUP3 ADD MLOAD DUP2 PUSH1 0x2 ADD SSTORE PUSH1 0x60 DUP3 ADD MLOAD DUP2 PUSH1 0x3 ADD SSTORE PUSH1 0x80 DUP3 ADD MLOAD DUP2 PUSH1 0x4 ADD PUSH0 PUSH2 0x100 EXP DUP2 SLOAD DUP2 PUSH1 0xFF MUL NOT AND SWAP1 DUP4 ISZERO ISZERO MUL OR SWAP1 SSTORE POP POP POP POP POP POP POP POP POP JUMP JUMPDEST PUSH1 0x60 PUSH1 0x1 DUP3 PUSH1 0x40 MLOAD PUSH2 0x203 SWAP2 SWAP1 PUSH2 0xC3B JUMP JUMPDEST SWAP1 DUP2 MSTORE PUSH1 0x20 ADD PUSH1 0x40 MLOAD DUP1 SWAP2 SUB SWAP1 KECCAK256 DUP1 SLOAD DUP1 PUSH1 0x20 MUL PUSH1 0x20 ADD PUSH1 0x40 MLOAD SWAP1 DUP2 ADD PUSH1 0x40 MSTORE DUP1 SWAP3 SWAP2 SWAP1 DUP2 DUP2 MSTORE PUSH1 0x20 ADD PUSH0 SWAP1 JUMPDEST DUP3 DUP3 LT ISZERO PUSH2 0x3AD JUMPI DUP4 DUP3 SWAP1 PUSH0 MSTORE PUSH1 0x20 PUSH0 KECCAK256 SWAP1 PUSH1 0x5 MUL ADD PUSH1 0x40 MLOAD DUP1 PUSH1 0xA0 ADD PUSH1 0x40 MSTORE SWAP1 DUP2 PUSH0 DUP3 ADD DUP1 SLOAD PUSH2 0x260 SWAP1 PUSH2 0xC7E JUMP JUMPDEST DUP1 PUSH1 0x1F ADD PUSH1 0x20 DUP1 SWAP2 DIV MUL PUSH1 0x20 ADD PUSH1 0x40 MLOAD SWAP1 DUP2 ADD PUSH1 0x40 MSTORE DUP1 SWAP3 SWAP2 SWAP1 DUP2 DUP2 MSTORE PUSH1 0x20 ADD DUP3 DUP1 SLOAD PUSH2 0x28C SWAP1 PUSH2 0xC7E JUMP JUMPDEST DUP1 ISZERO PUSH2 0x2D7 JUMPI DUP1 PUSH1 0x1F LT PUSH2 0x2AE JUMPI PUSH2 0x100 DUP1 DUP4 SLOAD DIV MUL DUP4 MSTORE SWAP2 PUSH1 0x20 ADD SWAP2 PUSH2 0x2D7 JUMP JUMPDEST DUP3 ADD SWAP2 SWAP1 PUSH0 MSTORE PUSH1 0x20 PUSH0 KECCAK256 SWAP1 JUMPDEST DUP2 SLOAD DUP2 MSTORE SWAP1 PUSH1 0x1 ADD SWAP1 PUSH1 0x20 ADD DUP1 DUP4 GT PUSH2 0x2BA JUMPI DUP3 SWAP1 SUB PUSH1 0x1F AND DUP3 ADD SWAP2 JUMPDEST POP POP POP POP POP DUP2 MSTORE PUSH1 0x20 ADD PUSH1 0x1 DUP3 ADD DUP1 SLOAD PUSH2 0x2F0 SWAP1 PUSH2 0xC7E JUMP JUMPDEST DUP1 PUSH1 0x1F ADD PUSH1 0x20 DUP1 SWAP2 DIV MUL PUSH1 0x20 ADD PUSH1 0x40 MLOAD SWAP1 DUP2 ADD PUSH1 0x40 MSTORE DUP1 SWAP3 SWAP2 SWAP1 DUP2 DUP2 MSTORE PUSH1 0x20 ADD DUP3 DUP1 SLOAD PUSH2 0x31C SWAP1 PUSH2 0xC7E JUMP JUMPDEST DUP1 ISZERO PUSH2 0x367 JUMPI DUP1 PUSH1 0x1F LT PUSH2 0x33E JUMPI PUSH2 0x100 DUP1 DUP4 SLOAD DIV MUL DUP4 MSTORE SWAP2 PUSH1 0x20 ADD SWAP2 PUSH2 0x367 JUMP JUMPDEST DUP3 ADD SWAP2 SWAP1 PUSH0 MSTORE PUSH1 0x20 PUSH0 KECCAK256 SWAP1 JUMPDEST DUP2 SLOAD DUP2 MSTORE SWAP1 PUSH1 0x1 ADD SWAP1 PUSH1 0x20 ADD DUP1 DUP4 GT PUSH2 0x34A JUMPI DUP3 SWAP1 SUB PUSH1 0x1F AND DUP3 ADD SWAP2 JUMPDEST POP POP POP POP POP DUP2 MSTORE PUSH1 0x20 ADD PUSH1 0x2 DUP3 ADD SLOAD DUP2 MSTORE PUSH1 0x20 ADD PUSH1 0x3 DUP3 ADD SLOAD DUP2 MSTORE PUSH1 0x20 ADD PUSH1 0x4 DUP3 ADD PUSH0 SWAP1 SLOAD SWAP1 PUSH2 0x100 EXP SWAP1 DIV PUSH1 0xFF AND ISZERO ISZERO ISZERO ISZERO DUP2 MSTORE POP POP DUP2 MSTORE PUSH1 0x20 ADD SWAP1 PUSH1 0x1 ADD SWAP1 PUSH2 0x230 JUMP JUMPDEST POP POP POP POP SWAP1 POP SWAP2 SWAP1 POP JUMP JUMPDEST PUSH2 0x3C0 PUSH2 0x53B JUMP JUMPDEST PUSH2 0x3C9 PUSH0 PUSH2 0x5C2 JUMP JUMPDEST JUMP JUMPDEST PUSH0 DUP1 PUSH0 SWAP1 SLOAD SWAP1 PUSH2 0x100 EXP SWAP1 DIV PUSH20 0xFFFFFFFFFFFFFFFFFFFFFFFFFFFFFFFFFFFFFFFF AND SWAP1 POP SWAP1 JUMP JUMPDEST PUSH2 0x3FA PUSH2 0x53B JUMP JUMPDEST PUSH1 0x1 DUP3 PUSH1 0x40 MLOAD PUSH2 0x40A SWAP2 SWAP1 PUSH2 0xC3B JUMP JUMPDEST SWAP1 DUP2 MSTORE PUSH1 0x20 ADD PUSH1 0x40 MLOAD DUP1 SWAP2 SUB SWAP1 KECCAK256 DUP1 SLOAD SWAP1 POP DUP2 LT PUSH2 0x45D JUMPI PUSH1 0x40 MLOAD PUSH32 0x8C379A000000000000000000000000000000000000000000000000000000000 DUP2 MSTORE PUSH1 0x4 ADD PUSH2 0x454 SWAP1 PUSH2 0xF74 JUMP JUMPDEST PUSH1 0x40 MLOAD DUP1 SWAP2 SUB SWAP1 REVERT JUMPDEST PUSH0 PUSH1 0x1 DUP4 PUSH1 0x40 MLOAD PUSH2 0x46E SWAP2 SWAP1 PUSH2 0xC3B JUMP JUMPDEST SWAP1 DUP2 MSTORE PUSH1 0x20 ADD PUSH1 0x40 MLOAD DUP1 SWAP2 SUB SWAP1 KECCAK256 DUP3 DUP2 SLOAD DUP2 LT PUSH2 0x48E JUMPI PUSH2 0x48D PUSH2 0xF92 JUMP JUMPDEST JUMPDEST SWAP1 PUSH0 MSTORE PUSH1 0x20 PUSH0 KECCAK256 SWAP1 PUSH1 0x5 MUL ADD PUSH1 0x4 ADD PUSH0 PUSH2 0x100 EXP DUP2 SLOAD DUP2 PUSH1 0xFF MUL NOT AND SWAP1 DUP4 ISZERO ISZERO MUL OR SWAP1 SSTORE POP POP POP JUMP JUMPDEST PUSH2 0x4BF PUSH2 0x53B JUMP JUMPDEST PUSH0 PUSH20 0xFFFFFFFFFFFFFFFFFFFFFFFFFFFFFFFFFFFFFFFF AND DUP2 PUSH20 0xFFFFFFFFFFFFFFFFFFFFFFFFFFFFFFFFFFFFFFFF AND SUB PUSH2 0x52F JUMPI PUSH0 PUSH1 0x40 MLOAD PUSH32 0x1E4FBDF700000000000000000000000000000000000000000000000000000000 DUP2 MSTORE PUSH1 0x4 ADD PUSH2 0x526 SWAP2 SWAP1 PUSH2 0xB39 JUMP JUMPDEST PUSH1 0x40 MLOAD DUP1 SWAP2 SUB SWAP1 REVERT JUMPDEST PUSH2 0x538 DUP2 PUSH2 0x5C2 JUMP JUMPDEST POP JUMP JUMPDEST PUSH2 0x543 PUSH2 0x683 JUMP JUMPDEST PUSH20 0xFFFFFFFFFFFFFFFFFFFFFFFFFFFFFFFFFFFFFFFF AND PUSH2 0x561 PUSH2 0x3CB JUMP JUMPDEST PUSH20 0xFFFFFFFFFFFFFFFFFFFFFFFFFFFFFFFFFFFFFFFF AND EQ PUSH2 0x5C0 JUMPI PUSH2 0x584 PUSH2 0x683 JUMP JUMPDEST PUSH1 0x40 MLOAD PUSH32 0x118CDAA700000000000000000000000000000000000000000000000000000000 DUP2 MSTORE PUSH1 0x4 ADD PUSH2 0x5B7 SWAP2 SWAP1 PUSH2 0xB39 JUMP JUMPDEST PUSH1 0x40 MLOAD DUP1 SWAP2 SUB SWAP1 REVERT JUMPDEST JUMP JUMPDEST PUSH0 DUP1 PUSH0 SWAP1 SLOAD SWAP1 PUSH2 0x100 EXP SWAP1 DIV PUSH20 0xFFFFFFFFFFFFFFFFFFFFFFFFFFFFFFFFFFFFFFFF AND SWAP1 POP DUP2 PUSH0 DUP1 PUSH2 0x100 EXP DUP2 SLOAD DUP2 PUSH20 0xFFFFFFFFFFFFFFFFFFFFFFFFFFFFFFFFFFFFFFFF MUL NOT AND SWAP1 DUP4 PUSH20 0xFFFFFFFFFFFFFFFFFFFFFFFFFFFFFFFFFFFFFFFF AND MUL OR SWAP1 SSTORE POP DUP2 PUSH20 0xFFFFFFFFFFFFFFFFFFFFFFFFFFFFFFFFFFFFFFFF AND DUP2 PUSH20 0xFFFFFFFFFFFFFFFFFFFFFFFFFFFFFFFFFFFFFFFF AND PUSH32 0x8BE0079C531659141344CD1FD0A4F28419497F9722A3DAAFE3B4186F6B6457E0 PUSH1 0x40 MLOAD PUSH1 0x40 MLOAD DUP1 SWAP2 SUB SWAP1 LOG3 POP POP JUMP JUMPDEST PUSH0 CALLER SWAP1 POP SWAP1 JUMP JUMPDEST PUSH0 PUSH1 0x40 MLOAD SWAP1 POP SWAP1 JUMP JUMPDEST PUSH0 DUP1 REVERT JUMPDEST PUSH0 DUP1 REVERT JUMPDEST PUSH0 DUP1 REVERT JUMPDEST PUSH0 DUP1 REVERT JUMPDEST PUSH0 PUSH1 0x1F NOT PUSH1 0x1F DUP4 ADD AND SWAP1 POP SWAP2 SWAP1 POP JUMP JUMPDEST PUSH32 0x4E487B7100000000000000000000000000000000000000000000000000000000 PUSH0 MSTORE PUSH1 0x41 PUSH1 0x4 MSTORE PUSH1 0x24 PUSH0 REVERT JUMPDEST PUSH2 0x6E9 DUP3 PUSH2 0x6A3 JUMP JUMPDEST DUP2 ADD DUP2 DUP2 LT PUSH8 0xFFFFFFFFFFFFFFFF DUP3 GT OR ISZERO PUSH2 0x708 JUMPI PUSH2 0x707 PUSH2 0x6B3 JUMP JUMPDEST JUMPDEST DUP1 PUSH1 0x40 MSTORE POP POP POP JUMP JUMPDEST PUSH0 PUSH2 0x71A PUSH2 0x68A JUMP JUMPDEST SWAP1 POP PUSH2 0x726 DUP3 DUP3 PUSH2 0x6E0 JUMP JUMPDEST SWAP2 SWAP1 POP JUMP JUMPDEST PUSH0 PUSH8 0xFFFFFFFFFFFFFFFF DUP3 GT ISZERO PUSH2 0x745 JUMPI PUSH2 0x744 PUSH2 0x6B3 JUMP JUMPDEST JUMPDEST PUSH2 0x74E DUP3 PUSH2 0x6A3 JUMP JUMPDEST SWAP1 POP PUSH1 0x20 DUP2 ADD SWAP1 POP SWAP2 SWAP1 POP JUMP JUMPDEST DUP3 DUP2 DUP4 CALLDATACOPY PUSH0 DUP4 DUP4 ADD MSTORE POP POP POP JUMP JUMPDEST PUSH0 PUSH2 0x77B PUSH2 0x776 DUP5 PUSH2 0x72B JUMP JUMPDEST PUSH2 0x711 JUMP JUMPDEST SWAP1 POP DUP3 DUP2 MSTORE PUSH1 0x20 DUP2 ADD DUP5 DUP5 DUP5 ADD GT ISZERO PUSH2 0x797 JUMPI PUSH2 0x796 PUSH2 0x69F JUMP JUMPDEST JUMPDEST PUSH2 0x7A2 DUP5 DUP3 DUP6 PUSH2 0x75B JUMP JUMPDEST POP SWAP4 SWAP3 POP POP POP JUMP JUMPDEST PUSH0 DUP3 PUSH1 0x1F DUP4 ADD SLT PUSH2 0x7BE JUMPI PUSH2 0x7BD PUSH2 0x69B JUMP JUMPDEST JUMPDEST DUP2 CALLDATALOAD PUSH2 0x7CE DUP5 DUP3 PUSH1 0x20 DUP7 ADD PUSH2 0x769 JUMP JUMPDEST SWAP2 POP POP SWAP3 SWAP2 POP POP JUMP JUMPDEST PUSH0 DUP2 SWAP1 POP SWAP2 SWAP1 POP JUMP JUMPDEST PUSH2 0x7E9 DUP2 PUSH2 0x7D7 JUMP JUMPDEST DUP2 EQ PUSH2 0x7F3 JUMPI PUSH0 DUP1 REVERT JUMPDEST POP JUMP JUMPDEST PUSH0 DUP2 CALLDATALOAD SWAP1 POP PUSH2 0x804 DUP2 PUSH2 0x7E0 JUMP JUMPDEST SWAP3 SWAP2 POP POP JUMP JUMPDEST PUSH0 DUP1 PUSH0 DUP1 PUSH0 PUSH1 0xA0 DUP7 DUP9 SUB SLT ISZERO PUSH2 0x823 JUMPI PUSH2 0x822 PUSH2 0x693 JUMP JUMPDEST JUMPDEST PUSH0 DUP7 ADD CALLDATALOAD PUSH8 0xFFFFFFFFFFFFFFFF DUP2 GT ISZERO PUSH2 0x840 JUMPI PUSH2 0x83F PUSH2 0x697 JUMP JUMPDEST JUMPDEST PUSH2 0x84C DUP9 DUP3 DUP10 ADD PUSH2 0x7AA JUMP JUMPDEST SWAP6 POP POP PUSH1 0x20 DUP7 ADD CALLDATALOAD PUSH8 0xFFFFFFFFFFFFFFFF DUP2 GT ISZERO PUSH2 0x86D JUMPI PUSH2 0x86C PUSH2 0x697 JUMP JUMPDEST JUMPDEST PUSH2 0x879 DUP9 DUP3 DUP10 ADD PUSH2 0x7AA JUMP JUMPDEST SWAP5 POP POP PUSH1 0x40 DUP7 ADD CALLDATALOAD PUSH8 0xFFFFFFFFFFFFFFFF DUP2 GT ISZERO PUSH2 0x89A JUMPI PUSH2 0x899 PUSH2 0x697 JUMP JUMPDEST JUMPDEST PUSH2 0x8A6 DUP9 DUP3 DUP10 ADD PUSH2 0x7AA JUMP JUMPDEST SWAP4 POP POP PUSH1 0x60 PUSH2 0x8B7 DUP9 DUP3 DUP10 ADD PUSH2 0x7F6 JUMP JUMPDEST SWAP3 POP POP PUSH1 0x80 PUSH2 0x8C8 DUP9 DUP3 DUP10 ADD PUSH2 0x7F6 JUMP JUMPDEST SWAP2 POP POP SWAP3 SWAP6 POP SWAP3 SWAP6 SWAP1 SWAP4 POP JUMP JUMPDEST PUSH0 PUSH1 0x20 DUP3 DUP5 SUB SLT ISZERO PUSH2 0x8EA JUMPI PUSH2 0x8E9 PUSH2 0x693 JUMP JUMPDEST JUMPDEST PUSH0 DUP3 ADD CALLDATALOAD PUSH8 0xFFFFFFFFFFFFFFFF DUP2 GT ISZERO PUSH2 0x907 JUMPI PUSH2 0x906 PUSH2 0x697 JUMP JUMPDEST JUMPDEST PUSH2 0x913 DUP5 DUP3 DUP6 ADD PUSH2 0x7AA JUMP JUMPDEST SWAP2 POP POP SWAP3 SWAP2 POP POP JUMP JUMPDEST PUSH0 DUP2 MLOAD SWAP1 POP SWAP2 SWAP1 POP JUMP JUMPDEST PUSH0 DUP3 DUP3 MSTORE PUSH1 0x20 DUP3 ADD SWAP1 POP SWAP3 SWAP2 POP POP JUMP JUMPDEST PUSH0 DUP2 SWAP1 POP PUSH1 0x20 DUP3 ADD SWAP1 POP SWAP2 SWAP1 POP JUMP JUMPDEST PUSH0 DUP2 MLOAD SWAP1 POP SWAP2 SWAP1 POP JUMP JUMPDEST PUSH0 DUP3 DUP3 MSTORE PUSH1 0x20 DUP3 ADD SWAP1 POP SWAP3 SWAP2 POP POP JUMP JUMPDEST DUP3 DUP2 DUP4 MCOPY PUSH0 DUP4 DUP4 ADD MSTORE POP POP POP JUMP JUMPDEST PUSH0 PUSH2 0x977 DUP3 PUSH2 0x945 JUMP JUMPDEST PUSH2 0x981 DUP2 DUP6 PUSH2 0x94F JUMP JUMPDEST SWAP4 POP PUSH2 0x991 DUP2 DUP6 PUSH1 0x20 DUP7 ADD PUSH2 0x95F JUMP JUMPDEST PUSH2 0x99A DUP2 PUSH2 0x6A3 JUMP JUMPDEST DUP5 ADD SWAP2 POP POP SWAP3 SWAP2 POP POP JUMP JUMPDEST PUSH2 0x9AE DUP2 PUSH2 0x7D7 JUMP JUMPDEST DUP3 MSTORE POP POP JUMP JUMPDEST PUSH0 DUP2 ISZERO ISZERO SWAP1 POP SWAP2 SWAP1 POP JUMP JUMPDEST PUSH2 0x9C8 DUP2 PUSH2 0x9B4 JUMP JUMPDEST DUP3 MSTORE POP POP JUMP JUMPDEST PUSH0 PUSH1 0xA0 DUP4 ADD PUSH0 DUP4 ADD MLOAD DUP5 DUP3 SUB PUSH0 DUP7 ADD MSTORE PUSH2 0x9E8 DUP3 DUP3 PUSH2 0x96D JUMP JUMPDEST SWAP2 POP POP PUSH1 0x20 DUP4 ADD MLOAD DUP5 DUP3 SUB PUSH1 0x20 DUP7 ADD MSTORE PUSH2 0xA02 DUP3 DUP3 PUSH2 0x96D JUMP JUMPDEST SWAP2 POP POP PUSH1 0x40 DUP4 ADD MLOAD PUSH2 0xA17 PUSH1 0x40 DUP7 ADD DUP3 PUSH2 0x9A5 JUMP JUMPDEST POP PUSH1 0x60 DUP4 ADD MLOAD PUSH2 0xA2A PUSH1 0x60 DUP7 ADD DUP3 PUSH2 0x9A5 JUMP JUMPDEST POP PUSH1 0x80 DUP4 ADD MLOAD PUSH2 0xA3D PUSH1 0x80 DUP7 ADD DUP3 PUSH2 0x9BF JUMP JUMPDEST POP DUP1 SWAP2 POP POP SWAP3 SWAP2 POP POP JUMP JUMPDEST PUSH0 PUSH2 0xA53 DUP4 DUP4 PUSH2 0x9CE JUMP JUMPDEST SWAP1 POP SWAP3 SWAP2 POP POP JUMP JUMPDEST PUSH0 PUSH1 0x20 DUP3 ADD SWAP1 POP SWAP2 SWAP1 POP JUMP JUMPDEST PUSH0 PUSH2 0xA71 DUP3 PUSH2 0x91C JUMP JUMPDEST PUSH2 0xA7B DUP2 DUP6 PUSH2 0x926 JUMP JUMPDEST SWAP4 POP DUP4 PUSH1 0x20 DUP3 MUL DUP6 ADD PUSH2 0xA8D DUP6 PUSH2 0x936 JUMP JUMPDEST DUP1 PUSH0 JUMPDEST DUP6 DUP2 LT ISZERO PUSH2 0xAC8 JUMPI DUP5 DUP5 SUB DUP10 MSTORE DUP2 MLOAD PUSH2 0xAA9 DUP6 DUP3 PUSH2 0xA48 JUMP JUMPDEST SWAP5 POP PUSH2 0xAB4 DUP4 PUSH2 0xA5B JUMP JUMPDEST SWAP3 POP PUSH1 0x20 DUP11 ADD SWAP10 POP POP PUSH1 0x1 DUP2 ADD SWAP1 POP PUSH2 0xA90 JUMP JUMPDEST POP DUP3 SWAP8 POP DUP8 SWAP6 POP POP POP POP POP POP SWAP3 SWAP2 POP POP JUMP JUMPDEST PUSH0 PUSH1 0x20 DUP3 ADD SWAP1 POP DUP2 DUP2 SUB PUSH0 DUP4 ADD MSTORE PUSH2 0xAF2 DUP2 DUP5 PUSH2 0xA67 JUMP JUMPDEST SWAP1 POP SWAP3 SWAP2 POP POP JUMP JUMPDEST PUSH0 PUSH20 0xFFFFFFFFFFFFFFFFFFFFFFFFFFFFFFFFFFFFFFFF DUP3 AND SWAP1 POP SWAP2 SWAP1 POP JUMP JUMPDEST PUSH0 PUSH2 0xB23 DUP3 PUSH2 0xAFA JUMP JUMPDEST SWAP1 POP SWAP2 SWAP1 POP JUMP JUMPDEST PUSH2 0xB33 DUP2 PUSH2 0xB19 JUMP JUMPDEST DUP3 MSTORE POP POP JUMP JUMPDEST PUSH0 PUSH1 0x20 DUP3 ADD SWAP1 POP PUSH2 0xB4C PUSH0 DUP4 ADD DUP5 PUSH2 0xB2A JUMP JUMPDEST SWAP3 SWAP2 POP POP JUMP JUMPDEST PUSH0 DUP1 PUSH1 0x40 DUP4 DUP6 SUB SLT ISZERO PUSH2 0xB68 JUMPI PUSH2 0xB67 PUSH2 0x693 JUMP JUMPDEST JUMPDEST PUSH0 DUP4 ADD CALLDATALOAD PUSH8 0xFFFFFFFFFFFFFFFF DUP2 GT ISZERO PUSH2 0xB85 JUMPI PUSH2 0xB84 PUSH2 0x697 JUMP JUMPDEST JUMPDEST PUSH2 0xB91 DUP6 DUP3 DUP7 ADD PUSH2 0x7AA JUMP JUMPDEST SWAP3 POP POP PUSH1 0x20 PUSH2 0xBA2 DUP6 DUP3 DUP7 ADD PUSH2 0x7F6 JUMP JUMPDEST SWAP2 POP POP SWAP3 POP SWAP3 SWAP1 POP JUMP JUMPDEST PUSH2 0xBB5 DUP2 PUSH2 0xB19 JUMP JUMPDEST DUP2 EQ PUSH2 0xBBF JUMPI PUSH0 DUP1 REVERT JUMPDEST POP JUMP JUMPDEST PUSH0 DUP2 CALLDATALOAD SWAP1 POP PUSH2 0xBD0 DUP2 PUSH2 0xBAC JUMP JUMPDEST SWAP3 SWAP2 POP POP JUMP JUMPDEST PUSH0 PUSH1 0x20 DUP3 DUP5 SUB SLT ISZERO PUSH2 0xBEB JUMPI PUSH2 0xBEA PUSH2 0x693 JUMP JUMPDEST JUMPDEST PUSH0 PUSH2 0xBF8 DUP5 DUP3 DUP6 ADD PUSH2 0xBC2 JUMP JUMPDEST SWAP2 POP POP SWAP3 SWAP2 POP POP JUMP JUMPDEST PUSH0 DUP2 SWAP1 POP SWAP3 SWAP2 POP POP JUMP JUMPDEST PUSH0 PUSH2 0xC15 DUP3 PUSH2 0x945 JUMP JUMPDEST PUSH2 0xC1F DUP2 DUP6 PUSH2 0xC01 JUMP JUMPDEST SWAP4 POP PUSH2 0xC2F DUP2 DUP6 PUSH1 0x20 DUP7 ADD PUSH2 0x95F JUMP JUMPDEST DUP1 DUP5 ADD SWAP2 POP POP SWAP3 SWAP2 POP POP JUMP JUMPDEST PUSH0 PUSH2 0xC46 DUP3 DUP5 PUSH2 0xC0B JUMP JUMPDEST SWAP2 POP DUP2 SWAP1 POP SWAP3 SWAP2 POP POP JUMP JUMPDEST PUSH32 0x4E487B7100000000000000000000000000000000000000000000000000000000 PUSH0 MSTORE PUSH1 0x22 PUSH1 0x4 MSTORE PUSH1 0x24 PUSH0 REVERT JUMPDEST PUSH0 PUSH1 0x2 DUP3 DIV SWAP1 POP PUSH1 0x1 DUP3 AND DUP1 PUSH2 0xC95 JUMPI PUSH1 0x7F DUP3 AND SWAP2 POP JUMPDEST PUSH1 0x20 DUP3 LT DUP2 SUB PUSH2 0xCA8 JUMPI PUSH2 0xCA7 PUSH2 0xC51 JUMP JUMPDEST JUMPDEST POP SWAP2 SWAP1 POP JUMP JUMPDEST PUSH0 DUP2 SWAP1 POP DUP2 PUSH0 MSTORE PUSH1 0x20 PUSH0 KECCAK256 SWAP1 POP SWAP2 SWAP1 POP JUMP JUMPDEST PUSH0 PUSH1 0x20 PUSH1 0x1F DUP4 ADD DIV SWAP1 POP SWAP2 SWAP1 POP JUMP JUMPDEST PUSH0 DUP3 DUP3 SHL SWAP1 POP SWAP3 SWAP2 POP POP JUMP JUMPDEST PUSH0 PUSH1 0x8 DUP4 MUL PUSH2 0xD0A PUSH32 0xFFFFFFFFFFFFFFFFFFFFFFFFFFFFFFFFFFFFFFFFFFFFFFFFFFFFFFFFFFFFFFFF DUP3 PUSH2 0xCCF JUMP JUMPDEST PUSH2 0xD14 DUP7 DUP4 PUSH2 0xCCF JUMP JUMPDEST SWAP6 POP DUP1 NOT DUP5 AND SWAP4 POP DUP1 DUP7 AND DUP5 OR SWAP3 POP POP POP SWAP4 SWAP3 POP POP POP JUMP JUMPDEST PUSH0 DUP2 SWAP1 POP SWAP2 SWAP1 POP JUMP JUMPDEST PUSH0 PUSH2 0xD4F PUSH2 0xD4A PUSH2 0xD45 DUP5 PUSH2 0x7D7 JUMP JUMPDEST PUSH2 0xD2C JUMP JUMPDEST PUSH2 0x7D7 JUMP JUMPDEST SWAP1 POP SWAP2 SWAP1 POP JUMP JUMPDEST PUSH0 DUP2 SWAP1 POP SWAP2 SWAP1 POP JUMP JUMPDEST PUSH2 0xD68 DUP4 PUSH2 0xD35 JUMP JUMPDEST PUSH2 0xD7C PUSH2 0xD74 DUP3 PUSH2 0xD56 JUMP JUMPDEST DUP5 DUP5 SLOAD PUSH2 0xCDB JUMP JUMPDEST DUP3 SSTORE POP POP POP POP JUMP JUMPDEST PUSH0 SWAP1 JUMP JUMPDEST PUSH2 0xD90 PUSH2 0xD84 JUMP JUMPDEST PUSH2 0xD9B DUP2 DUP5 DUP5 PUSH2 0xD5F JUMP JUMPDEST POP POP POP JUMP JUMPDEST JUMPDEST DUP2 DUP2 LT ISZERO PUSH2 0xDBE JUMPI PUSH2 0xDB3 PUSH0 DUP3 PUSH2 0xD88 JUMP JUMPDEST PUSH1 0x1 DUP2 ADD SWAP1 POP PUSH2 0xDA1 JUMP JUMPDEST POP POP JUMP JUMPDEST PUSH1 0x1F DUP3 GT ISZERO PUSH2 0xE03 JUMPI PUSH2 0xDD4 DUP2 PUSH2 0xCAE JUMP JUMPDEST PUSH2 0xDDD DUP5 PUSH2 0xCC0 JUMP JUMPDEST DUP2 ADD PUSH1 0x20 DUP6 LT ISZERO PUSH2 0xDEC JUMPI DUP2 SWAP1 POP JUMPDEST PUSH2 0xE00 PUSH2 0xDF8 DUP6 PUSH2 0xCC0 JUMP JUMPDEST DUP4 ADD DUP3 PUSH2 0xDA0 JUMP JUMPDEST POP POP JUMPDEST POP POP POP JUMP JUMPDEST PUSH0 DUP3 DUP3 SHR SWAP1 POP SWAP3 SWAP2 POP POP JUMP JUMPDEST PUSH0 PUSH2 0xE23 PUSH0 NOT DUP5 PUSH1 0x8 MUL PUSH2 0xE08 JUMP JUMPDEST NOT DUP1 DUP4 AND SWAP2 POP POP SWAP3 SWAP2 POP POP JUMP JUMPDEST PUSH0 PUSH2 0xE3B DUP4 DUP4 PUSH2 0xE14 JUMP JUMPDEST SWAP2 POP DUP3 PUSH1 0x2 MUL DUP3 OR SWAP1 POP SWAP3 SWAP2 POP POP JUMP JUMPDEST PUSH2 0xE54 DUP3 PUSH2 0x945 JUMP JUMPDEST PUSH8 0xFFFFFFFFFFFFFFFF DUP2 GT ISZERO PUSH2 0xE6D JUMPI PUSH2 0xE6C PUSH2 0x6B3 JUMP JUMPDEST JUMPDEST PUSH2 0xE77 DUP3 SLOAD PUSH2 0xC7E JUMP JUMPDEST PUSH2 0xE82 DUP3 DUP3 DUP6 PUSH2 0xDC2 JUMP JUMPDEST PUSH0 PUSH1 0x20 SWAP1 POP PUSH1 0x1F DUP4 GT PUSH1 0x1 DUP2 EQ PUSH2 0xEB3 JUMPI PUSH0 DUP5 ISZERO PUSH2 0xEA1 JUMPI DUP3 DUP8 ADD MLOAD SWAP1 POP JUMPDEST PUSH2 0xEAB DUP6 DUP3 PUSH2 0xE30 JUMP JUMPDEST DUP7 SSTORE POP PUSH2 0xF12 JUMP JUMPDEST PUSH1 0x1F NOT DUP5 AND PUSH2 0xEC1 DUP7 PUSH2 0xCAE JUMP JUMPDEST PUSH0 JUMPDEST DUP3 DUP2 LT ISZERO PUSH2 0xEE8 JUMPI DUP5 DUP10 ADD MLOAD DUP3 SSTORE PUSH1 0x1 DUP3 ADD SWAP2 POP PUSH1 0x20 DUP6 ADD SWAP5 POP PUSH1 0x20 DUP2 ADD SWAP1 POP PUSH2 0xEC3 JUMP JUMPDEST DUP7 DUP4 LT ISZERO PUSH2 0xF05 JUMPI DUP5 DUP10 ADD MLOAD PUSH2 0xF01 PUSH1 0x1F DUP10 AND DUP3 PUSH2 0xE14 JUMP JUMPDEST DUP4 SSTORE POP JUMPDEST PUSH1 0x1 PUSH1 0x2 DUP9 MUL ADD DUP9 SSTORE POP POP POP JUMPDEST POP POP POP POP POP POP JUMP JUMPDEST PUSH0 DUP3 DUP3 MSTORE PUSH1 0x20 DUP3 ADD SWAP1 POP SWAP3 SWAP2 POP POP JUMP JUMPDEST PUSH32 0x4365727469666963617465206E6F7420666F756E640000000000000000000000 PUSH0 DUP3 ADD MSTORE POP JUMP JUMPDEST PUSH0 PUSH2 0xF5E PUSH1 0x15 DUP4 PUSH2 0xF1A JUMP JUMPDEST SWAP2 POP PUSH2 0xF69 DUP3 PUSH2 0xF2A JUMP JUMPDEST PUSH1 0x20 DUP3 ADD SWAP1 POP SWAP2 SWAP1 POP JUMP JUMPDEST PUSH0 PUSH1 0x20 DUP3 ADD SWAP1 POP DUP2 DUP2 SUB PUSH0 DUP4 ADD MSTORE PUSH2 0xF8B DUP2 PUSH2 0xF52 JUMP JUMPDEST SWAP1 POP SWAP2 SWAP1 POP JUMP JUMPDEST PUSH32 0x4E487B7100000000000000000000000000000000000000000000000000000000 PUSH0 MSTORE PUSH1 0x32 PUSH1 0x4 MSTORE PUSH1 0x24 PUSH0 REVERT INVALID LOG2 PUSH5 0x6970667358 0x22 SLT KECCAK256 0xE2 LOG3 0xCA PUSH5 0xF7416AFA6E DUP12 0x1E SWAP2 CALLDATALOAD MSTORE 0x4F STATICCALL TSTORE PUSH17 0x1A657EF72D342E643CE48C1958B364736F PUSH13 0x634300081A0033000000000000 "
				},
				"gasEstimates": {
					"creation": {
						"codeDepositCost": "817000",
						"executionCost": "infinite",
						"totalCost": "infinite"
					},
					"external": {
						"getCertificates(string)": "infinite",
						"issueCertificate(string,string,string,uint256,uint256)": "infinite",
						"owner()": "2559",
						"renounceOwnership()": "infinite",
						"revokeCertificate(string,uint256)": "infinite",
						"transferOwnership(address)": "infinite"
					}
				},
				"methodIdentifiers": {
					"getCertificates(string)": "6a6dc088",
					"issueCertificate(string,string,string,uint256,uint256)": "327eb157",
					"owner()": "8da5cb5b",
					"renounceOwnership()": "715018a6",
					"revokeCertificate(string,uint256)": "dfc2611c",
					"transferOwnership(address)": "f2fde38b"
				}
			},
			"storageLayout": {
				"storage": [
					{
						"astId": 8,
						"contract": "looks/ProductCertificate.sol:ProductCertificate",
						"label": "_owner",
						"offset": 0,
						"slot": "0",
						"type": "t_address"
					},
					{
						"astId": 199,
						"contract": "looks/ProductCertificate.sol:ProductCertificate",
						"label": "_certificates",
						"offset": 0,
						"slot": "1",
						"type": "t_mapping(t_string_memory_ptr,t_array(t_struct(Certificate)193_storage)dyn_storage)"
					}
				],
				"types": {
					"t_address": {
						"encoding": "inplace",
						"label": "address",
						"numberOfBytes": "20"
					},
					"t_array(t_struct(Certificate)193_storage)dyn_storage": {
						"base": "t_struct(Certificate)193_storage",
						"encoding": "dynamic_array",
						"label": "struct ProductCertificate.Certificate[]",
						"numberOfBytes": "32"
					},
					"t_bool": {
						"encoding": "inplace",
						"label": "bool",
						"numberOfBytes": "1"
					},
					"t_mapping(t_string_memory_ptr,t_array(t_struct(Certificate)193_storage)dyn_storage)": {
						"encoding": "mapping",
						"key": "t_string_memory_ptr",
						"label": "mapping(string => struct ProductCertificate.Certificate[])",
						"numberOfBytes": "32",
						"value": "t_array(t_struct(Certificate)193_storage)dyn_storage"
					},
					"t_string_memory_ptr": {
						"encoding": "bytes",
						"label": "string",
						"numberOfBytes": "32"
					},
					"t_string_storage": {
						"encoding": "bytes",
						"label": "string",
						"numberOfBytes": "32"
					},
					"t_struct(Certificate)193_storage": {
						"encoding": "inplace",
						"label": "struct ProductCertificate.Certificate",
						"members": [
							{
								"astId": 184,
								"contract": "looks/ProductCertificate.sol:ProductCertificate",
								"label": "name",
								"offset": 0,
								"slot": "0",
								"type": "t_string_storage"
							},
							{
								"astId": 186,
								"contract": "looks/ProductCertificate.sol:ProductCertificate",
								"label": "issuedBy",
								"offset": 0,
								"slot": "1",
								"type": "t_string_storage"
							},
							{
								"astId": 188,
								"contract": "looks/ProductCertificate.sol:ProductCertificate",
								"label": "issueDate",
								"offset": 0,
								"slot": "2",
								"type": "t_uint256"
							},
							{
								"astId": 190,
								"contract": "looks/ProductCertificate.sol:ProductCertificate",
								"label": "validUntil",
								"offset": 0,
								"slot": "3",
								"type": "t_uint256"
							},
							{
								"astId": 192,
								"contract": "looks/ProductCertificate.sol:ProductCertificate",
								"label": "isValid",
								"offset": 0,
								"slot": "4",
								"type": "t_bool"
							}
						],
						"numberOfBytes": "160"
					},
					"t_uint256": {
						"encoding": "inplace",
						"label": "uint256",
						"numberOfBytes": "32"
					}
				}
			},
			"userdoc": {
				"kind": "user",
				"methods": {},
				"version": 1
			}
		}
	}
}