{
	"data": {
		"bytecode": {
			"linkReferences": {},
			"object": "608060405234801562000010575f80fd5b50604051620057b9380380620057b9833981810160405281019062000036919062000224565b5f805f6101000a81548160ff0219169083151502179055505f73ffffffffffffffffffffffffffffffffffffffff168273ffffffffffffffffffffffffffffffffffffffff1603620000bf576040517f08c379a0000000000000000000000000000000000000000000000000000000008152600401620000b690620002c7565b60405180910390fd5b5f73ffffffffffffffffffffffffffffffffffffffff168173ffffffffffffffffffffffffffffffffffffffff160362000130576040517f08c379a0000000000000000000000000000000000000000000000000000000008152600401620001279062000335565b60405180910390fd5b815f60016101000a81548173ffffffffffffffffffffffffffffffffffffffff021916908373ffffffffffffffffffffffffffffffffffffffff1602179055508060015f6101000a81548173ffffffffffffffffffffffffffffffffffffffff021916908373ffffffffffffffffffffffffffffffffffffffff1602179055505f600381905550505062000355565b5f80fd5b5f73ffffffffffffffffffffffffffffffffffffffff82169050919050565b5f620001ee82620001c3565b9050919050565b6200020081620001e2565b81146200020b575f80fd5b50565b5f815190506200021e81620001f5565b92915050565b5f80604083850312156200023d576200023c620001bf565b5b5f6200024c858286016200020e565b92505060206200025f858286016200020e565b9150509250929050565b5f82825260208201905092915050565b7f496e76616c696420526f6c654d616e61676572206164647265737300000000005f82015250565b5f620002af601b8362000269565b9150620002bc8262000279565b602082019050919050565b5f6020820190508181035f830152620002e081620002a1565b9050919050565b7f496e76616c69642057616c6c20636f6e747261637420616464726573730000005f82015250565b5f6200031d601d8362000269565b91506200032a82620002e7565b602082019050919050565b5f6020820190508181035f8301526200034e816200030f565b9050919050565b61545680620003635f395ff3fe608060405234801561000f575f80fd5b5060043610610155575f3560e01c80638456cb59116100c1578063cc88600b1161007a578063cc88600b146103e9578063d328ec7014610405578063e3fbf31414610421578063eaf4cc7514610451578063f0c87bc714610487578063f685d28f146104a357610155565b80638456cb59146103155780639eb99f551461031f578063aad53a841461034f578063ab44ac831461036d578063b78e50a614610389578063c705bc18146103b957610155565b806346e012fa1161011357806346e012fa14610227578063489b920f146102575780635c975abb14610273578063641a93501461029157806366b0a206146102ad5780637ad5df52146102e057610155565b8062435da51461015957806301640ca41461017757806314d39bad146101af5780631f741897146101cb578063300d20a1146101e95780633f4ba83a1461021d575b5f80fd5b6101616104bf565b60405161016e9190613ba5565b60405180910390f35b610191600480360381019061018c9190613c02565b6104e4565b6040516101a699989796959493929190613dc7565b60405180910390f35b6101c960048036038101906101c49190613c02565b6107a2565b005b6101d361098e565b6040516101e09190613e67565b60405180910390f35b61020360048036038101906101fe9190613e80565b610994565b604051610214959493929190613ebe565b60405180910390f35b610225610a09565b005b610241600480360381019061023c9190613c02565b610b7a565b60405161024e9190613f0f565b60405180910390f35b610271600480360381019061026c9190613e80565b610ba3565b005b61027b610d2b565b6040516102889190613f0f565b60405180910390f35b6102ab60048036038101906102a69190613e80565b610d3f565b005b6102c760048036038101906102c29190613c02565b611052565b6040516102d79493929190613f28565b60405180910390f35b6102fa60048036038101906102f59190613c02565b611397565b60405161030c96959493929190613f6b565b60405180910390f35b61031d61171e565b005b61033960048036038101906103349190613e80565b61188f565b6040516103469190613e67565b60405180910390f35b6103576118ba565b6040516103649190613fea565b60405180910390f35b61038760048036038101906103829190613e80565b6118df565b005b6103a3600480360381019061039e9190613c02565b611dc7565b6040516103b09190613f0f565b60405180910390f35b6103d360048036038101906103ce9190613c02565b611e32565b6040516103e091906140ba565b60405180910390f35b61040360048036038101906103fe9190613c02565b611ef9565b005b61041f600480360381019061041a91906140fc565b612134565b005b61043b60048036038101906104369190613c02565b612674565b6040516104489190614298565b60405180910390f35b61046b60048036038101906104669190613c02565b612a14565b60405161047e97969594939291906142b8565b60405180910390f35b6104a1600480360381019061049c9190613c02565b612cd3565b005b6104bd60048036038101906104b89190613e80565b613481565b005b5f60019054906101000a900473ffffffffffffffffffffffffffffffffffffffff1681565b6004602052805f5260405f205f91509050805f01549080600101805461050990614367565b80601f016020809104026020016040519081016040528092919081815260200182805461053590614367565b80156105805780601f1061055757610100808354040283529160200191610580565b820191905f5260205f20905b81548152906001019060200180831161056357829003601f168201915b50505050509080600201805461059590614367565b80601f01602080910402602001604051908101604052809291908181526020018280546105c190614367565b801561060c5780601f106105e35761010080835404028352916020019161060c565b820191905f5260205f20905b8154815290600101906020018083116105ef57829003601f168201915b505050505090806003016040518060800160405290815f8201805461063090614367565b80601f016020809104026020016040519081016040528092919081815260200182805461065c90614367565b80156106a75780601f1061067e576101008083540402835291602001916106a7565b820191905f5260205f20905b81548152906001019060200180831161068a57829003601f168201915b505050505081526020016001820180546106c090614367565b80601f01602080910402602001604051908101604052809291908181526020018280546106ec90614367565b80156107375780601f1061070e57610100808354040283529160200191610737565b820191905f5260205f20905b81548152906001019060200180831161071a57829003601f168201915b505050505081526020016002820154815260200160038201548152505090806007015f9054906101000a900473ffffffffffffffffffffffffffffffffffffffff1690806008015490806009015f9054906101000a900460ff169080600a01549080600b0154905089565b5f60019054906101000a900473ffffffffffffffffffffffffffffffffffffffff1673ffffffffffffffffffffffffffffffffffffffff166391d148545f60019054906101000a900473ffffffffffffffffffffffffffffffffffffffff1673ffffffffffffffffffffffffffffffffffffffff166375b238fc6040518163ffffffff1660e01b8152600401602060405180830381865afa158015610849573d5f803e3d5ffd5b505050506040513d601f19601f8201168201806040525081019061086d91906143ca565b336040518363ffffffff1660e01b815260040161088b929190614404565b602060405180830381865afa1580156108a6573d5f803e3d5ffd5b505050506040513d601f19601f820116820180604052508101906108ca9190614455565b610909576040517f08c379a0000000000000000000000000000000000000000000000000000000008152600401610900906144ca565b60405180910390fd5b606481111561094d576040517f08c379a000000000000000000000000000000000000000000000000000000000815260040161094490614532565b60405180910390fd5b806003819055507f939be2c65dbf8fd3fa426b40f964a7038810059517125d552f6f45b487713d82816040516109839190613e67565b60405180910390a150565b60035481565b6006602052815f5260405f20602052805f5260405f205f9150915050805f015490806001015f9054906101000a900473ffffffffffffffffffffffffffffffffffffffff1690806002015490806003015f9054906101000a900460ff16908060030160019054906101000a900460ff16905085565b5f60019054906101000a900473ffffffffffffffffffffffffffffffffffffffff1673ffffffffffffffffffffffffffffffffffffffff166391d148545f60019054906101000a900473ffffffffffffffffffffffffffffffffffffffff1673ffffffffffffffffffffffffffffffffffffffff166375b238fc6040518163ffffffff1660e01b8152600401602060405180830381865afa158015610ab0573d5f803e3d5ffd5b505050506040513d601f19601f82011682018060405250810190610ad491906143ca565b336040518363ffffffff1660e01b8152600401610af2929190614404565b602060405180830381865afa158015610b0d573d5f803e3d5ffd5b505050506040513d601f19601f82011682018060405250810190610b319190614455565b610b70576040517f08c379a0000000000000000000000000000000000000000000000000000000008152600401610b67906144ca565b60405180910390fd5b610b78613855565b565b5f60045f8381526020019081526020015f206009015f9054906101000a900460ff169050919050565b813373ffffffffffffffffffffffffffffffffffffffff1660045f8381526020019081526020015f206007015f9054906101000a900473ffffffffffffffffffffffffffffffffffffffff1673ffffffffffffffffffffffffffffffffffffffff1614610c45576040517f08c379a0000000000000000000000000000000000000000000000000000000008152600401610c3c9061459a565b60405180910390fd5b610c4d6138b5565b5f60065f8581526020019081526020015f205f8481526020019081526020015f209050806003015f9054906101000a900460ff16610cc0576040517f08c379a0000000000000000000000000000000000000000000000000000000008152600401610cb790614602565b60405180910390fd5b5f816003015f6101000a81548160ff0219169083151502179055505f8160030160016101000a81548160ff02191690831515021790555082847f409e24d1de9b35460a711a3d1a6690caca8a22c4c49d543d5f5507c76da71f6560405160405180910390a350505050565b5f805f9054906101000a900460ff16905090565b5f60019054906101000a900473ffffffffffffffffffffffffffffffffffffffff1673ffffffffffffffffffffffffffffffffffffffff166391d148545f60019054906101000a900473ffffffffffffffffffffffffffffffffffffffff1673ffffffffffffffffffffffffffffffffffffffff166375b238fc6040518163ffffffff1660e01b8152600401602060405180830381865afa158015610de6573d5f803e3d5ffd5b505050506040513d601f19601f82011682018060405250810190610e0a91906143ca565b336040518363ffffffff1660e01b8152600401610e28929190614404565b602060405180830381865afa158015610e43573d5f803e3d5ffd5b505050506040513d601f19601f82011682018060405250810190610e679190614455565b610ea6576040517f08c379a0000000000000000000000000000000000000000000000000000000008152600401610e9d906144ca565b60405180910390fd5b610eae6138b5565b60045f8381526020019081526020015f206009015f9054906101000a900460ff16610f0e576040517f08c379a0000000000000000000000000000000000000000000000000000000008152600401610f059061466a565b60405180910390fd5b610f1882826138ff565b60015f9054906101000a900473ffffffffffffffffffffffffffffffffffffffff1673ffffffffffffffffffffffffffffffffffffffff1663ce290e1d825f806040518463ffffffff1660e01b8152600401610f76939291906146c1565b5f604051808303815f87803b158015610f8d575f80fd5b505af1158015610f9f573d5f803e3d5ffd5b5050505060065f8381526020019081526020015f205f8281526020019081526020015f205f8082015f9055600182015f6101000a81549073ffffffffffffffffffffffffffffffffffffffff0219169055600282015f9055600382015f6101000a81549060ff02191690556003820160016101000a81549060ff0219169055505080827f9c2a665641680d8945c31c04e9280e79cdc8fb9da62e272d871d116bb7ae894d60405160405180910390a35050565b5f805f805f60045f8781526020019081526020015f20604051806101200160405290815f820154815260200160018201805461108d90614367565b80601f01602080910402602001604051908101604052809291908181526020018280546110b990614367565b80156111045780601f106110db57610100808354040283529160200191611104565b820191905f5260205f20905b8154815290600101906020018083116110e757829003601f168201915b5050505050815260200160028201805461111d90614367565b80601f016020809104026020016040519081016040528092919081815260200182805461114990614367565b80156111945780601f1061116b57610100808354040283529160200191611194565b820191905f5260205f20905b81548152906001019060200180831161117757829003601f168201915b50505050508152602001600382016040518060800160405290815f820180546111bc90614367565b80601f01602080910402602001604051908101604052809291908181526020018280546111e890614367565b80156112335780601f1061120a57610100808354040283529160200191611233565b820191905f5260205f20905b81548152906001019060200180831161121657829003601f168201915b5050505050815260200160018201805461124c90614367565b80601f016020809104026020016040519081016040528092919081815260200182805461127890614367565b80156112c35780601f1061129a576101008083540402835291602001916112c3565b820191905f5260205f20905b8154815290600101906020018083116112a657829003601f168201915b50505050508152602001600282015481526020016003820154815250508152602001600782015f9054906101000a900473ffffffffffffffffffffffffffffffffffffffff1673ffffffffffffffffffffffffffffffffffffffff1673ffffffffffffffffffffffffffffffffffffffff16815260200160088201548152602001600982015f9054906101000a900460ff16151515158152602001600a8201548152602001600b82015481525050905085815f0151148160c001518260800151835f01519450945094509450509193509193565b5f805f805f805f60045f8981526020019081526020015f20604051806101200160405290815f82015481526020016001820180546113d490614367565b80601f016020809104026020016040519081016040528092919081815260200182805461140090614367565b801561144b5780601f106114225761010080835404028352916020019161144b565b820191905f5260205f20905b81548152906001019060200180831161142e57829003601f168201915b5050505050815260200160028201805461146490614367565b80601f016020809104026020016040519081016040528092919081815260200182805461149090614367565b80156114db5780601f106114b2576101008083540402835291602001916114db565b820191905f5260205f20905b8154815290600101906020018083116114be57829003601f168201915b50505050508152602001600382016040518060800160405290815f8201805461150390614367565b80601f016020809104026020016040519081016040528092919081815260200182805461152f90614367565b801561157a5780601f106115515761010080835404028352916020019161157a565b820191905f5260205f20905b81548152906001019060200180831161155d57829003601f168201915b5050505050815260200160018201805461159390614367565b80601f01602080910402602001604051908101604052809291908181526020018280546115bf90614367565b801561160a5780601f106115e15761010080835404028352916020019161160a565b820191905f5260205f20905b8154815290600101906020018083116115ed57829003601f168201915b50505050508152602001600282015481526020016003820154815250508152602001600782015f9054906101000a900473ffffffffffffffffffffffffffffffffffffffff1673ffffffffffffffffffffffffffffffffffffffff1673ffffffffffffffffffffffffffffffffffffffff16815260200160088201548152602001600982015f9054906101000a900460ff16151515158152602001600a8201548152602001600b8201548152505090505f815f015110155f73ffffffffffffffffffffffffffffffffffffffff16826080015173ffffffffffffffffffffffffffffffffffffffff1614158260c00151835f015184608001518560e001519650965096509650965096505091939550919395565b5f60019054906101000a900473ffffffffffffffffffffffffffffffffffffffff1673ffffffffffffffffffffffffffffffffffffffff166391d148545f60019054906101000a900473ffffffffffffffffffffffffffffffffffffffff1673ffffffffffffffffffffffffffffffffffffffff166375b238fc6040518163ffffffff1660e01b8152600401602060405180830381865afa1580156117c5573d5f803e3d5ffd5b505050506040513d601f19601f820116820180604052508101906117e991906143ca565b336040518363ffffffff1660e01b8152600401611807929190614404565b602060405180830381865afa158015611822573d5f803e3d5ffd5b505050506040513d601f19601f820116820180604052508101906118469190614455565b611885576040517f08c379a000000000000000000000000000000000000000000000000000000000815260040161187c906144ca565b60405180910390fd5b61188d6139d0565b565b6007602052815f5260405f2081815481106118a8575f80fd5b905f5260205f20015f91509150505481565b60015f9054906101000a900473ffffffffffffffffffffffffffffffffffffffff1681565b6118e76138b5565b5f60019054906101000a900473ffffffffffffffffffffffffffffffffffffffff1673ffffffffffffffffffffffffffffffffffffffff166391d148545f60019054906101000a900473ffffffffffffffffffffffffffffffffffffffff1673ffffffffffffffffffffffffffffffffffffffff166398e4abb56040518163ffffffff1660e01b8152600401602060405180830381865afa15801561198e573d5f803e3d5ffd5b505050506040513d601f19601f820116820180604052508101906119b291906143ca565b336040518363ffffffff1660e01b81526004016119d0929190614404565b602060405180830381865afa1580156119eb573d5f803e3d5ffd5b505050506040513d601f19601f82011682018060405250810190611a0f9190614455565b611a4e576040517f08c379a0000000000000000000000000000000000000000000000000000000008152600401611a4590614740565b60405180910390fd5b60045f8381526020019081526020015f206009015f9054906101000a900460ff16611aae576040517f08c379a0000000000000000000000000000000000000000000000000000000008152600401611aa59061466a565b60405180910390fd5b5f60015f9054906101000a900473ffffffffffffffffffffffffffffffffffffffff1673ffffffffffffffffffffffffffffffffffffffff1663ff91e489836040518263ffffffff1660e01b8152600401611b099190613e67565b5f60405180830381865afa158015611b23573d5f803e3d5ffd5b505050506040513d5f823e3d601f19601f82011682018060405250810190611b4b9190614ac2565b90503373ffffffffffffffffffffffffffffffffffffffff16816020015173ffffffffffffffffffffffffffffffffffffffff1614611bbf576040517f08c379a0000000000000000000000000000000000000000000000000000000008152600401611bb690614b53565b60405180910390fd5b8060a0015115611c04576040517f08c379a0000000000000000000000000000000000000000000000000000000008152600401611bfb90614bbb565b60405180910390fd5b5f60035460045f8681526020019081526020015f20600801548360800151611c2c9190614c06565b611c369190614c06565b90506064811115611c7c576040517f08c379a0000000000000000000000000000000000000000000000000000000008152600401611c7390614c83565b60405180910390fd5b6040518060a001604052808481526020013373ffffffffffffffffffffffffffffffffffffffff168152602001836080015181526020016001151581526020015f151581525060065f8681526020019081526020015f205f8581526020019081526020015f205f820151815f01556020820151816001015f6101000a81548173ffffffffffffffffffffffffffffffffffffffff021916908373ffffffffffffffffffffffffffffffffffffffff160217905550604082015181600201556060820151816003015f6101000a81548160ff02191690831515021790555060808201518160030160016101000a81548160ff0219169083151502179055509050503373ffffffffffffffffffffffffffffffffffffffff1683857f83fd119663c1d37d19f3fd2cfdd3b77cf9a048037dc45cec86d017fa4ed6fba860405160405180910390a450505050565b5f8073ffffffffffffffffffffffffffffffffffffffff1660045f8481526020019081526020015f206007015f9054906101000a900473ffffffffffffffffffffffffffffffffffffffff1673ffffffffffffffffffffffffffffffffffffffff1614159050919050565b606060045f8381526020019081526020015f206009015f9054906101000a900460ff16611e94576040517f08c379a0000000000000000000000000000000000000000000000000000000008152600401611e8b9061466a565b60405180910390fd5b60075f8381526020019081526020015f20805480602002602001604051908101604052809291908181526020018280548015611eed57602002820191905f5260205f20905b815481526020019060010190808311611ed9575b50505050509050919050565b5f60019054906101000a900473ffffffffffffffffffffffffffffffffffffffff1673ffffffffffffffffffffffffffffffffffffffff166391d148545f60019054906101000a900473ffffffffffffffffffffffffffffffffffffffff1673ffffffffffffffffffffffffffffffffffffffff166375b238fc6040518163ffffffff1660e01b8152600401602060405180830381865afa158015611fa0573d5f803e3d5ffd5b505050506040513d601f19601f82011682018060405250810190611fc491906143ca565b336040518363ffffffff1660e01b8152600401611fe2929190614404565b602060405180830381865afa158015611ffd573d5f803e3d5ffd5b505050506040513d601f19601f820116820180604052508101906120219190614455565b612060576040517f08c379a0000000000000000000000000000000000000000000000000000000008152600401612057906144ca565b60405180910390fd5b6120686138b5565b5f60055f8381526020019081526020015f209050806008015f9054906101000a900460ff166120cc576040517f08c379a00000000000000000000000000000000000000000000000000000000081526004016120c390614602565b60405180910390fd5b5f816008015f6101000a81548160ff0219169083151502179055505f8160080160016101000a81548160ff021916908315150217905550817f02066478e278f4d976df7f644bad66cbe88ce3249c27a53c746fc078510100c360405160405180910390a25050565b61213c6138b5565b5f60019054906101000a900473ffffffffffffffffffffffffffffffffffffffff1673ffffffffffffffffffffffffffffffffffffffff166391d148545f60019054906101000a900473ffffffffffffffffffffffffffffffffffffffff1673ffffffffffffffffffffffffffffffffffffffff166378988ebd6040518163ffffffff1660e01b8152600401602060405180830381865afa1580156121e3573d5f803e3d5ffd5b505050506040513d601f19601f8201168201806040525081019061220791906143ca565b336040518363ffffffff1660e01b8152600401612225929190614404565b602060405180830381865afa158015612240573d5f803e3d5ffd5b505050506040513d601f19601f820116820180604052508101906122649190614455565b6122a3576040517f08c379a000000000000000000000000000000000000000000000000000000000815260040161229a90614ceb565b60405180910390fd5b5f81805f01906122b39190614d15565b9050116122f5576040517f08c379a00000000000000000000000000000000000000000000000000000000081526004016122ec90614dc1565b60405180910390fd5b60328160c00135111561233d576040517f08c379a000000000000000000000000000000000000000000000000000000000815260040161233490614e29565b60405180910390fd5b5f6123486002613a31565b90506123546002613a3d565b5f60405180608001604052808480604001906123709190614d15565b8080601f0160208091040260200160405190810160405280939291908181526020018383808284375f81840152601f19601f8201169050808301925050505050505081526020018480606001906123c79190614d15565b8080601f0160208091040260200160405190810160405280939291908181526020018383808284375f81840152601f19601f820116905080830192505050505050508152602001846080013581526020018460a0013581525090506040518060e001604052803373ffffffffffffffffffffffffffffffffffffffff16815260200184805f01906124589190614d15565b8080601f0160208091040260200160405190810160405280939291908181526020018383808284375f81840152601f19601f8201169050808301925050505050505081526020018480602001906124af9190614d15565b8080601f0160208091040260200160405190810160405280939291908181526020018383808284375f81840152601f19601f8201169050808301925050505050505081526020018281526020018460c0013581526020016001151581526020015f151581525060055f8481526020019081526020015f205f820151815f015f6101000a81548173ffffffffffffffffffffffffffffffffffffffff021916908373ffffffffffffffffffffffffffffffffffffffff160217905550602082015181600101908161257f9190614fdb565b5060408201518160020190816125959190614fdb565b506060820151816003015f820151815f0190816125b29190614fdb565b5060208201518160010190816125c89190614fdb565b50604082015181600201556060820151816003015550506080820151816007015560a0820151816008015f6101000a81548160ff02191690831515021790555060c08201518160080160016101000a81548160ff0219169083151502179055509050503373ffffffffffffffffffffffffffffffffffffffff16827f64c62480238fcbb55f3f9db41207d81adb09b6a08336161aa728e4d6d398fee860405160405180910390a3505050565b61267c613aa1565b5f60045f8481526020019081526020015f20604051806101200160405290815f82015481526020016001820180546126b390614367565b80601f01602080910402602001604051908101604052809291908181526020018280546126df90614367565b801561272a5780601f106127015761010080835404028352916020019161272a565b820191905f5260205f20905b81548152906001019060200180831161270d57829003601f168201915b5050505050815260200160028201805461274390614367565b80601f016020809104026020016040519081016040528092919081815260200182805461276f90614367565b80156127ba5780601f10612791576101008083540402835291602001916127ba565b820191905f5260205f20905b81548152906001019060200180831161279d57829003601f168201915b50505050508152602001600382016040518060800160405290815f820180546127e290614367565b80601f016020809104026020016040519081016040528092919081815260200182805461280e90614367565b80156128595780601f1061283057610100808354040283529160200191612859565b820191905f5260205f20905b81548152906001019060200180831161283c57829003601f168201915b5050505050815260200160018201805461287290614367565b80601f016020809104026020016040519081016040528092919081815260200182805461289e90614367565b80156128e95780601f106128c0576101008083540402835291602001916128e9565b820191905f5260205f20905b8154815290600101906020018083116128cc57829003601f168201915b50505050508152602001600282015481526020016003820154815250508152602001600782015f9054906101000a900473ffffffffffffffffffffffffffffffffffffffff1673ffffffffffffffffffffffffffffffffffffffff1673ffffffffffffffffffffffffffffffffffffffff16815260200160088201548152602001600982015f9054906101000a900460ff16151515158152602001600a8201548152602001600b8201548152505090505f73ffffffffffffffffffffffffffffffffffffffff16816080015173ffffffffffffffffffffffffffffffffffffffff1603612a0b576040517f08c379a0000000000000000000000000000000000000000000000000000000008152600401612a02906150f4565b60405180910390fd5b80915050919050565b6005602052805f5260405f205f91509050805f015f9054906101000a900473ffffffffffffffffffffffffffffffffffffffff1690806001018054612a5890614367565b80601f0160208091040260200160405190810160405280929190818152602001828054612a8490614367565b8015612acf5780601f10612aa657610100808354040283529160200191612acf565b820191905f5260205f20905b815481529060010190602001808311612ab257829003601f168201915b505050505090806002018054612ae490614367565b80601f0160208091040260200160405190810160405280929190818152602001828054612b1090614367565b8015612b5b5780601f10612b3257610100808354040283529160200191612b5b565b820191905f5260205f20905b815481529060010190602001808311612b3e57829003601f168201915b505050505090806003016040518060800160405290815f82018054612b7f90614367565b80601f0160208091040260200160405190810160405280929190818152602001828054612bab90614367565b8015612bf65780601f10612bcd57610100808354040283529160200191612bf6565b820191905f5260205f20905b815481529060010190602001808311612bd957829003601f168201915b50505050508152602001600182018054612c0f90614367565b80601f0160208091040260200160405190810160405280929190818152602001828054612c3b90614367565b8015612c865780601f10612c5d57610100808354040283529160200191612c86565b820191905f5260205f20905b815481529060010190602001808311612c6957829003601f168201915b505050505081526020016002820154815260200160038201548152505090806007015490806008015f9054906101000a900460ff16908060080160019054906101000a900460ff16905087565b5f60019054906101000a900473ffffffffffffffffffffffffffffffffffffffff1673ffffffffffffffffffffffffffffffffffffffff166391d148545f60019054906101000a900473ffffffffffffffffffffffffffffffffffffffff1673ffffffffffffffffffffffffffffffffffffffff166375b238fc6040518163ffffffff1660e01b8152600401602060405180830381865afa158015612d7a573d5f803e3d5ffd5b505050506040513d601f19601f82011682018060405250810190612d9e91906143ca565b336040518363ffffffff1660e01b8152600401612dbc929190614404565b602060405180830381865afa158015612dd7573d5f803e3d5ffd5b505050506040513d601f19601f82011682018060405250810190612dfb9190614455565b612e3a576040517f08c379a0000000000000000000000000000000000000000000000000000000008152600401612e31906144ca565b60405180910390fd5b612e426138b5565b5f60055f8381526020019081526020015f209050806008015f9054906101000a900460ff16612ea6576040517f08c379a0000000000000000000000000000000000000000000000000000000008152600401612e9d90614602565b60405180910390fd5b5f60019054906101000a900473ffffffffffffffffffffffffffffffffffffffff1673ffffffffffffffffffffffffffffffffffffffff166391d148545f60019054906101000a900473ffffffffffffffffffffffffffffffffffffffff1673ffffffffffffffffffffffffffffffffffffffff166378988ebd6040518163ffffffff1660e01b8152600401602060405180830381865afa158015612f4d573d5f803e3d5ffd5b505050506040513d601f19601f82011682018060405250810190612f7191906143ca565b835f015f9054906101000a900473ffffffffffffffffffffffffffffffffffffffff166040518363ffffffff1660e01b8152600401612fb1929190614404565b602060405180830381865afa158015612fcc573d5f803e3d5ffd5b505050506040513d601f19601f82011682018060405250810190612ff09190614455565b61302f576040517f08c379a000000000000000000000000000000000000000000000000000000000815260040161302690615182565b60405180910390fd5b5f816008015f6101000a81548160ff02191690831515021790555060018160080160016101000a81548160ff02191690831515021790555060405180610120016040528083815260200182600101805461308890614367565b80601f01602080910402602001604051908101604052809291908181526020018280546130b490614367565b80156130ff5780601f106130d6576101008083540402835291602001916130ff565b820191905f5260205f20905b8154815290600101906020018083116130e257829003601f168201915b5050505050815260200182600201805461311890614367565b80601f016020809104026020016040519081016040528092919081815260200182805461314490614367565b801561318f5780601f106131665761010080835404028352916020019161318f565b820191905f5260205f20905b81548152906001019060200180831161317257829003601f168201915b50505050508152602001826003016040518060800160405290815f820180546131b790614367565b80601f01602080910402602001604051908101604052809291908181526020018280546131e390614367565b801561322e5780601f106132055761010080835404028352916020019161322e565b820191905f5260205f20905b81548152906001019060200180831161321157829003601f168201915b5050505050815260200160018201805461324790614367565b80601f016020809104026020016040519081016040528092919081815260200182805461327390614367565b80156132be5780601f10613295576101008083540402835291602001916132be565b820191905f5260205f20905b8154815290600101906020018083116132a157829003601f168201915b50505050508152602001600282015481526020016003820154815250508152602001825f015f9054906101000a900473ffffffffffffffffffffffffffffffffffffffff1673ffffffffffffffffffffffffffffffffffffffff168152602001826007015481526020016001151581526020014281526020014281525060045f8481526020019081526020015f205f820151815f015560208201518160010190816133699190614fdb565b50604082015181600201908161337f9190614fdb565b506060820151816003015f820151815f01908161339c9190614fdb565b5060208201518160010190816133b29190614fdb565b50604082015181600201556060820151816003015550506080820151816007015f6101000a81548173ffffffffffffffffffffffffffffffffffffffff021916908373ffffffffffffffffffffffffffffffffffffffff16021790555060a0820151816008015560c0820151816009015f6101000a81548160ff02191690831515021790555060e082015181600a015561010082015181600b0155905050817f8bf0b9f064110e184ac3a17211475b991009bba03afd86413f3114d9058b670a60405160405180910390a25050565b813373ffffffffffffffffffffffffffffffffffffffff1660045f8381526020019081526020015f206007015f9054906101000a900473ffffffffffffffffffffffffffffffffffffffff1673ffffffffffffffffffffffffffffffffffffffff1614613523576040517f08c379a000000000000000000000000000000000000000000000000000000000815260040161351a9061459a565b60405180910390fd5b61352b6138b5565b5f60065f8581526020019081526020015f205f8481526020019081526020015f209050806003015f9054906101000a900460ff1661359e576040517f08c379a000000000000000000000000000000000000000000000000000000000815260040161359590614602565b60405180910390fd5b5f60019054906101000a900473ffffffffffffffffffffffffffffffffffffffff1673ffffffffffffffffffffffffffffffffffffffff166391d148545f60019054906101000a900473ffffffffffffffffffffffffffffffffffffffff1673ffffffffffffffffffffffffffffffffffffffff166398e4abb56040518163ffffffff1660e01b8152600401602060405180830381865afa158015613645573d5f803e3d5ffd5b505050506040513d601f19601f8201168201806040525081019061366991906143ca565b836001015f9054906101000a900473ffffffffffffffffffffffffffffffffffffffff166040518363ffffffff1660e01b81526004016136aa929190614404565b602060405180830381865afa1580156136c5573d5f803e3d5ffd5b505050506040513d601f19601f820116820180604052508101906136e99190614455565b613728576040517f08c379a000000000000000000000000000000000000000000000000000000000815260040161371f90615210565b60405180910390fd5b5f816003015f6101000a81548160ff02191690831515021790555060018160030160016101000a81548160ff02191690831515021790555060015f9054906101000a900473ffffffffffffffffffffffffffffffffffffffff1673ffffffffffffffffffffffffffffffffffffffff1663ce290e1d848660016040518463ffffffff1660e01b81526004016137bf9392919061522e565b5f604051808303815f87803b1580156137d6575f80fd5b505af11580156137e8573d5f803e3d5ffd5b5050505060075f8581526020019081526020015f2083908060018154018082558091505060019003905f5260205f20015f909190919091505582847fdc2149b93c86806566c8fa4d25318ab9dd1b921d334a786bea5e3ca461e8e2b460405160405180910390a350505050565b61385d613a51565b5f805f6101000a81548160ff0219169083151502179055507f5db9ee0a495bf2e6ff9c91a7834c1ba4fdd244a5e8aa4e537bd38aeae4b073aa61389e613a9a565b6040516138ab9190615263565b60405180910390a1565b6138bd610d2b565b156138fd576040517f08c379a00000000000000000000000000000000000000000000000000000000081526004016138f4906152c6565b60405180910390fd5b565b5f60075f8481526020019081526020015f2090505f5b81805490508110156139ca5782828281548110613935576139346152e4565b5b905f5260205f200154036139b75781600183805490506139559190615311565b81548110613966576139656152e4565b5b905f5260205f200154828281548110613982576139816152e4565b5b905f5260205f2001819055508180548061399f5761399e615344565b5b600190038181905f5260205f20015f905590556139ca565b80806139c290615371565b915050613915565b50505050565b6139d86138b5565b60015f806101000a81548160ff0219169083151502179055507f62e78cea01bee320cd4e420270b5ea74000d11b0c9f74754ebdbfc544b05a258613a1a613a9a565b604051613a279190615263565b60405180910390a1565b5f815f01549050919050565b6001815f015f828254019250508190555050565b613a59610d2b565b613a98576040517f08c379a0000000000000000000000000000000000000000000000000000000008152600401613a8f90615402565b60405180910390fd5b565b5f33905090565b6040518061012001604052805f81526020016060815260200160608152602001613ac9613b05565b81526020015f73ffffffffffffffffffffffffffffffffffffffff1681526020015f81526020015f151581526020015f81526020015f81525090565b604051806080016040528060608152602001606081526020015f81526020015f81525090565b5f73ffffffffffffffffffffffffffffffffffffffff82169050919050565b5f819050919050565b5f613b6d613b68613b6384613b2b565b613b4a565b613b2b565b9050919050565b5f613b7e82613b53565b9050919050565b5f613b8f82613b74565b9050919050565b613b9f81613b85565b82525050565b5f602082019050613bb85f830184613b96565b92915050565b5f604051905090565b5f80fd5b5f80fd5b5f819050919050565b613be181613bcf565b8114613beb575f80fd5b50565b5f81359050613bfc81613bd8565b92915050565b5f60208284031215613c1757613c16613bc7565b5b5f613c2484828501613bee565b91505092915050565b613c3681613bcf565b82525050565b5f81519050919050565b5f82825260208201905092915050565b5f5b83811015613c73578082015181840152602081019050613c58565b5f8484015250505050565b5f601f19601f8301169050919050565b5f613c9882613c3c565b613ca28185613c46565b9350613cb2818560208601613c56565b613cbb81613c7e565b840191505092915050565b5f82825260208201905092915050565b5f613ce082613c3c565b613cea8185613cc6565b9350613cfa818560208601613c56565b613d0381613c7e565b840191505092915050565b5f819050919050565b613d2081613d0e565b82525050565b5f608083015f8301518482035f860152613d408282613cd6565b91505060208301518482036020860152613d5a8282613cd6565b9150506040830151613d6f6040860182613d17565b506060830151613d826060860182613d17565b508091505092915050565b5f613d9782613b2b565b9050919050565b613da781613d8d565b82525050565b5f8115159050919050565b613dc181613dad565b82525050565b5f61012082019050613ddb5f83018c613c2d565b8181036020830152613ded818b613c8e565b90508181036040830152613e01818a613c8e565b90508181036060830152613e158189613d26565b9050613e246080830188613d9e565b613e3160a0830187613c2d565b613e3e60c0830186613db8565b613e4b60e0830185613c2d565b613e59610100830184613c2d565b9a9950505050505050505050565b5f602082019050613e7a5f830184613c2d565b92915050565b5f8060408385031215613e9657613e95613bc7565b5b5f613ea385828601613bee565b9250506020613eb485828601613bee565b9150509250929050565b5f60a082019050613ed15f830188613c2d565b613ede6020830187613d9e565b613eeb6040830186613c2d565b613ef86060830185613db8565b613f056080830184613db8565b9695505050505050565b5f602082019050613f225f830184613db8565b92915050565b5f608082019050613f3b5f830187613db8565b613f486020830186613db8565b613f556040830185613d9e565b613f626060830184613c2d565b95945050505050565b5f60c082019050613f7e5f830189613db8565b613f8b6020830188613db8565b613f986040830187613db8565b613fa56060830186613c2d565b613fb26080830185613d9e565b613fbf60a0830184613c2d565b979650505050505050565b5f613fd482613b74565b9050919050565b613fe481613fca565b82525050565b5f602082019050613ffd5f830184613fdb565b92915050565b5f81519050919050565b5f82825260208201905092915050565b5f819050602082019050919050565b61403581613bcf565b82525050565b5f614046838361402c565b60208301905092915050565b5f602082019050919050565b5f61406882614003565b614072818561400d565b935061407d8361401d565b805f5b838110156140ad578151614094888261403b565b975061409f83614052565b925050600181019050614080565b5085935050505092915050565b5f6020820190508181035f8301526140d2818461405e565b905092915050565b5f80fd5b5f60e082840312156140f3576140f26140da565b5b81905092915050565b5f6020828403121561411157614110613bc7565b5b5f82013567ffffffffffffffff81111561412e5761412d613bcb565b5b61413a848285016140de565b91505092915050565b5f608083015f8301518482035f86015261415d8282613cd6565b915050602083015184820360208601526141778282613cd6565b915050604083015161418c6040860182613d17565b50606083015161419f6060860182613d17565b508091505092915050565b6141b381613d8d565b82525050565b6141c281613dad565b82525050565b5f61012083015f8301516141de5f86018261402c565b50602083015184820360208601526141f68282613cd6565b915050604083015184820360408601526142108282613cd6565b9150506060830151848203606086015261422a8282614143565b915050608083015161423f60808601826141aa565b5060a083015161425260a086018261402c565b5060c083015161426560c08601826141b9565b5060e083015161427860e086018261402c565b5061010083015161428d61010086018261402c565b508091505092915050565b5f6020820190508181035f8301526142b081846141c8565b905092915050565b5f60e0820190506142cb5f83018a613d9e565b81810360208301526142dd8189613c8e565b905081810360408301526142f18188613c8e565b905081810360608301526143058187613d26565b90506143146080830186613c2d565b61432160a0830185613db8565b61432e60c0830184613db8565b98975050505050505050565b7f4e487b71000000000000000000000000000000000000000000000000000000005f52602260045260245ffd5b5f600282049050600182168061437e57607f821691505b6020821081036143915761439061433a565b5b50919050565b5f819050919050565b6143a981614397565b81146143b3575f80fd5b50565b5f815190506143c4816143a0565b92915050565b5f602082840312156143df576143de613bc7565b5b5f6143ec848285016143b6565b91505092915050565b6143fe81614397565b82525050565b5f6040820190506144175f8301856143f5565b6144246020830184613d9e565b9392505050565b61443481613dad565b811461443e575f80fd5b50565b5f8151905061444f8161442b565b92915050565b5f6020828403121561446a57614469613bc7565b5b5f61447784828501614441565b91505092915050565b7f43616c6c6572206973206e6f7420616e2061646d696e000000000000000000005f82015250565b5f6144b4601683613c46565b91506144bf82614480565b602082019050919050565b5f6020820190508181035f8301526144e1816144a8565b9050919050565b7f496e76616c69642070657263656e7461676500000000000000000000000000005f82015250565b5f61451c601283613c46565b9150614527826144e8565b602082019050919050565b5f6020820190508181035f83015261454981614510565b9050919050565b7f43616c6c6572206973206e6f74207468652067616c6c657279206f776e6572005f82015250565b5f614584601f83613c46565b915061458f82614550565b602082019050919050565b5f6020820190508181035f8301526145b181614578565b9050919050565b7f52657175657374206e6f742070656e64696e67000000000000000000000000005f82015250565b5f6145ec601383613c46565b91506145f7826145b8565b602082019050919050565b5f6020820190508181035f830152614619816145e0565b9050919050565b7f47616c6c657279206e6f742061637469766500000000000000000000000000005f82015250565b5f614654601283613c46565b915061465f82614620565b602082019050919050565b5f6020820190508181035f83015261468181614648565b9050919050565b5f819050919050565b5f6146ab6146a66146a184614688565b613b4a565b613bcf565b9050919050565b6146bb81614691565b82525050565b5f6060820190506146d45f830186613c2d565b6146e160208301856146b2565b6146ee6040830184613db8565b949350505050565b7f4d75737420686176652057414c4c5f4f574e45525f524f4c45000000000000005f82015250565b5f61472a601983613c46565b9150614735826146f6565b602082019050919050565b5f6020820190508181035f8301526147578161471e565b9050919050565b5f80fd5b7f4e487b71000000000000000000000000000000000000000000000000000000005f52604160045260245ffd5b61479882613c7e565b810181811067ffffffffffffffff821117156147b7576147b6614762565b5b80604052505050565b5f6147c9613bbe565b90506147d5828261478f565b919050565b5f80fd5b5f815190506147ec81613bd8565b92915050565b6147fb81613d8d565b8114614805575f80fd5b50565b5f81519050614816816147f2565b92915050565b5f80fd5b5f80fd5b5f67ffffffffffffffff82111561483e5761483d614762565b5b61484782613c7e565b9050602081019050919050565b5f61486661486184614824565b6147c0565b90508281526020810184848401111561488257614881614820565b5b61488d848285613c56565b509392505050565b5f82601f8301126148a9576148a861481c565b5b81516148b9848260208601614854565b91505092915050565b6148cb81613d0e565b81146148d5575f80fd5b50565b5f815190506148e6816148c2565b92915050565b5f60a082840312156149015761490061475e565b5b61490b60a06147c0565b90505f82015167ffffffffffffffff81111561492a576149296147da565b5b61493684828501614895565b5f83015250602082015167ffffffffffffffff811115614959576149586147da565b5b61496584828501614895565b602083015250604082015167ffffffffffffffff811115614989576149886147da565b5b61499584828501614895565b60408301525060606149a9848285016148d8565b60608301525060806149bd848285016148d8565b60808301525092915050565b5f61012082840312156149df576149de61475e565b5b6149ea6101206147c0565b90505f6149f9848285016147de565b5f830152506020614a0c84828501614808565b602083015250604082015167ffffffffffffffff811115614a3057614a2f6147da565b5b614a3c848285016148ec565b6040830152506060614a50848285016147de565b6060830152506080614a64848285016147de565b60808301525060a0614a7884828501614441565b60a08301525060c0614a8c848285016147de565b60c08301525060e0614aa0848285016147de565b60e083015250610100614ab5848285016147de565b6101008301525092915050565b5f60208284031215614ad757614ad6613bc7565b5b5f82015167ffffffffffffffff811115614af457614af3613bcb565b5b614b00848285016149c9565b91505092915050565b7f4e6f742077616c6c206f776e65720000000000000000000000000000000000005f82015250565b5f614b3d600e83613c46565b9150614b4882614b09565b602082019050919050565b5f6020820190508181035f830152614b6a81614b31565b9050919050565b7f57616c6c20616c726561647920696e20612067616c6c657279000000000000005f82015250565b5f614ba5601983613c46565b9150614bb082614b71565b602082019050919050565b5f6020820190508181035f830152614bd281614b99565b9050919050565b7f4e487b71000000000000000000000000000000000000000000000000000000005f52601160045260245ffd5b5f614c1082613bcf565b9150614c1b83613bcf565b9250828201905080821115614c3357614c32614bd9565b5b92915050565b7f546f74616c2070657263656e74616765206578636565647320313030250000005f82015250565b5f614c6d601d83613c46565b9150614c7882614c39565b602082019050919050565b5f6020820190508181035f830152614c9a81614c61565b9050919050565b7f4d75737420686176652047414c4c4552595f4f574e45525f524f4c45000000005f82015250565b5f614cd5601c83613c46565b9150614ce082614ca1565b602082019050919050565b5f6020820190508181035f830152614d0281614cc9565b9050919050565b5f80fd5b5f80fd5b5f80fd5b5f8083356001602003843603038112614d3157614d30614d09565b5b80840192508235915067ffffffffffffffff821115614d5357614d52614d0d565b5b602083019250600182023603831315614d6f57614d6e614d11565b5b509250929050565b7f4e616d65207265717569726564000000000000000000000000000000000000005f82015250565b5f614dab600d83613c46565b9150614db682614d77565b602082019050919050565b5f6020820190508181035f830152614dd881614d9f565b9050919050565b7f4d6178206f776e6572736869702070657263656e7461676520697320353025005f82015250565b5f614e13601f83613c46565b9150614e1e82614ddf565b602082019050919050565b5f6020820190508181035f830152614e4081614e07565b9050919050565b5f819050815f5260205f209050919050565b5f6020601f8301049050919050565b5f82821b905092915050565b5f60088302614ea37fffffffffffffffffffffffffffffffffffffffffffffffffffffffffffffffff82614e68565b614ead8683614e68565b95508019841693508086168417925050509392505050565b5f614edf614eda614ed584613bcf565b613b4a565b613bcf565b9050919050565b5f819050919050565b614ef883614ec5565b614f0c614f0482614ee6565b848454614e74565b825550505050565b5f90565b614f20614f14565b614f2b818484614eef565b505050565b5b81811015614f4e57614f435f82614f18565b600181019050614f31565b5050565b601f821115614f9357614f6481614e47565b614f6d84614e59565b81016020851015614f7c578190505b614f90614f8885614e59565b830182614f30565b50505b505050565b5f82821c905092915050565b5f614fb35f1984600802614f98565b1980831691505092915050565b5f614fcb8383614fa4565b9150826002028217905092915050565b614fe482613c3c565b67ffffffffffffffff811115614ffd57614ffc614762565b5b6150078254614367565b615012828285614f52565b5f60209050601f831160018114615043575f8415615031578287015190505b61503b8582614fc0565b8655506150a2565b601f19841661505186614e47565b5f5b8281101561507857848901518255600182019150602085019450602081019050615053565b868310156150955784890151615091601f891682614fa4565b8355505b6001600288020188555050505b505050505050565b7f47616c6c65727920646f6573206e6f74206578697374000000000000000000005f82015250565b5f6150de601683613c46565b91506150e9826150aa565b602082019050919050565b5f6020820190508181035f83015261510b816150d2565b9050919050565b7f526571756573746572206d757374206d61696e7461696e2047414c4c4552595f5f8201527f4f574e45525f524f4c4500000000000000000000000000000000000000000000602082015250565b5f61516c602a83613c46565b915061517782615112565b604082019050919050565b5f6020820190508181035f83015261519981615160565b9050919050565b7f57616c6c206f776e6572206d757374206d61696e7461696e2057414c4c5f4f575f8201527f4e45525f524f4c45000000000000000000000000000000000000000000000000602082015250565b5f6151fa602883613c46565b9150615205826151a0565b604082019050919050565b5f6020820190508181035f830152615227816151ee565b9050919050565b5f6060820190506152415f830186613c2d565b61524e6020830185613c2d565b61525b6040830184613db8565b949350505050565b5f6020820190506152765f830184613d9e565b92915050565b7f5061757361626c653a20706175736564000000000000000000000000000000005f82015250565b5f6152b0601083613c46565b91506152bb8261527c565b602082019050919050565b5f6020820190508181035f8301526152dd816152a4565b9050919050565b7f4e487b71000000000000000000000000000000000000000000000000000000005f52603260045260245ffd5b5f61531b82613bcf565b915061532683613bcf565b925082820390508181111561533e5761533d614bd9565b5b92915050565b7f4e487b71000000000000000000000000000000000000000000000000000000005f52603160045260245ffd5b5f61537b82613bcf565b91507fffffffffffffffffffffffffffffffffffffffffffffffffffffffffffffffff82036153ad576153ac614bd9565b5b600182019050919050565b7f5061757361626c653a206e6f74207061757365640000000000000000000000005f82015250565b5f6153ec601483613c46565b91506153f7826153b8565b602082019050919050565b5f6020820190508181035f830152615419816153e0565b905091905056fea2646970667358221220547a4e3305723f65c0663a97191aa33a6b8c0049f15be5cdb08616fc7802b18a64736f6c63430008140033",
			"opcodes": "PUSH1 0x80 PUSH1 0x40 MSTORE CALLVALUE DUP1 ISZERO PUSH3 0x10 JUMPI PUSH0 DUP1 REVERT JUMPDEST POP PUSH1 0x40 MLOAD PUSH3 0x57B9 CODESIZE SUB DUP1 PUSH3 0x57B9 DUP4 CODECOPY DUP2 DUP2 ADD PUSH1 0x40 MSTORE DUP2 ADD SWAP1 PUSH3 0x36 SWAP2 SWAP1 PUSH3 0x224 JUMP JUMPDEST PUSH0 DUP1 PUSH0 PUSH2 0x100 EXP DUP2 SLOAD DUP2 PUSH1 0xFF MUL NOT AND SWAP1 DUP4 ISZERO ISZERO MUL OR SWAP1 SSTORE POP PUSH0 PUSH20 0xFFFFFFFFFFFFFFFFFFFFFFFFFFFFFFFFFFFFFFFF AND DUP3 PUSH20 0xFFFFFFFFFFFFFFFFFFFFFFFFFFFFFFFFFFFFFFFF AND SUB PUSH3 0xBF JUMPI PUSH1 0x40 MLOAD PUSH32 0x8C379A000000000000000000000000000000000000000000000000000000000 DUP2 MSTORE PUSH1 0x4 ADD PUSH3 0xB6 SWAP1 PUSH3 0x2C7 JUMP JUMPDEST PUSH1 0x40 MLOAD DUP1 SWAP2 SUB SWAP1 REVERT JUMPDEST PUSH0 PUSH20 0xFFFFFFFFFFFFFFFFFFFFFFFFFFFFFFFFFFFFFFFF AND DUP2 PUSH20 0xFFFFFFFFFFFFFFFFFFFFFFFFFFFFFFFFFFFFFFFF AND SUB PUSH3 0x130 JUMPI PUSH1 0x40 MLOAD PUSH32 0x8C379A000000000000000000000000000000000000000000000000000000000 DUP2 MSTORE PUSH1 0x4 ADD PUSH3 0x127 SWAP1 PUSH3 0x335 JUMP JUMPDEST PUSH1 0x40 MLOAD DUP1 SWAP2 SUB SWAP1 REVERT JUMPDEST DUP2 PUSH0 PUSH1 0x1 PUSH2 0x100 EXP DUP2 SLOAD DUP2 PUSH20 0xFFFFFFFFFFFFFFFFFFFFFFFFFFFFFFFFFFFFFFFF MUL NOT AND SWAP1 DUP4 PUSH20 0xFFFFFFFFFFFFFFFFFFFFFFFFFFFFFFFFFFFFFFFF AND MUL OR SWAP1 SSTORE POP DUP1 PUSH1 0x1 PUSH0 PUSH2 0x100 EXP DUP2 SLOAD DUP2 PUSH20 0xFFFFFFFFFFFFFFFFFFFFFFFFFFFFFFFFFFFFFFFF MUL NOT AND SWAP1 DUP4 PUSH20 0xFFFFFFFFFFFFFFFFFFFFFFFFFFFFFFFFFFFFFFFF AND MUL OR SWAP1 SSTORE POP PUSH0 PUSH1 0x3 DUP2 SWAP1 SSTORE POP POP POP PUSH3 0x355 JUMP JUMPDEST PUSH0 DUP1 REVERT JUMPDEST PUSH0 PUSH20 0xFFFFFFFFFFFFFFFFFFFFFFFFFFFFFFFFFFFFFFFF DUP3 AND SWAP1 POP SWAP2 SWAP1 POP JUMP JUMPDEST PUSH0 PUSH3 0x1EE DUP3 PUSH3 0x1C3 JUMP JUMPDEST SWAP1 POP SWAP2 SWAP1 POP JUMP JUMPDEST PUSH3 0x200 DUP2 PUSH3 0x1E2 JUMP JUMPDEST DUP2 EQ PUSH3 0x20B JUMPI PUSH0 DUP1 REVERT JUMPDEST POP JUMP JUMPDEST PUSH0 DUP2 MLOAD SWAP1 POP PUSH3 0x21E DUP2 PUSH3 0x1F5 JUMP JUMPDEST SWAP3 SWAP2 POP POP JUMP JUMPDEST PUSH0 DUP1 PUSH1 0x40 DUP4 DUP6 SUB SLT ISZERO PUSH3 0x23D JUMPI PUSH3 0x23C PUSH3 0x1BF JUMP JUMPDEST JUMPDEST PUSH0 PUSH3 0x24C DUP6 DUP3 DUP7 ADD PUSH3 0x20E JUMP JUMPDEST SWAP3 POP POP PUSH1 0x20 PUSH3 0x25F DUP6 DUP3 DUP7 ADD PUSH3 0x20E JUMP JUMPDEST SWAP2 POP POP SWAP3 POP SWAP3 SWAP1 POP JUMP JUMPDEST PUSH0 DUP3 DUP3 MSTORE PUSH1 0x20 DUP3 ADD SWAP1 POP SWAP3 SWAP2 POP POP JUMP JUMPDEST PUSH32 0x496E76616C696420526F6C654D616E6167657220616464726573730000000000 PUSH0 DUP3 ADD MSTORE POP JUMP JUMPDEST PUSH0 PUSH3 0x2AF PUSH1 0x1B DUP4 PUSH3 0x269 JUMP JUMPDEST SWAP2 POP PUSH3 0x2BC DUP3 PUSH3 0x279 JUMP JUMPDEST PUSH1 0x20 DUP3 ADD SWAP1 POP SWAP2 SWAP1 POP JUMP JUMPDEST PUSH0 PUSH1 0x20 DUP3 ADD SWAP1 POP DUP2 DUP2 SUB PUSH0 DUP4 ADD MSTORE PUSH3 0x2E0 DUP2 PUSH3 0x2A1 JUMP JUMPDEST SWAP1 POP SWAP2 SWAP1 POP JUMP JUMPDEST PUSH32 0x496E76616C69642057616C6C20636F6E74726163742061646472657373000000 PUSH0 DUP3 ADD MSTORE POP JUMP JUMPDEST PUSH0 PUSH3 0x31D PUSH1 0x1D DUP4 PUSH3 0x269 JUMP JUMPDEST SWAP2 POP PUSH3 0x32A DUP3 PUSH3 0x2E7 JUMP JUMPDEST PUSH1 0x20 DUP3 ADD SWAP1 POP SWAP2 SWAP1 POP JUMP JUMPDEST PUSH0 PUSH1 0x20 DUP3 ADD SWAP1 POP DUP2 DUP2 SUB PUSH0 DUP4 ADD MSTORE PUSH3 0x34E DUP2 PUSH3 0x30F JUMP JUMPDEST SWAP1 POP SWAP2 SWAP1 POP JUMP JUMPDEST PUSH2 0x5456 DUP1 PUSH3 0x363 PUSH0 CODECOPY PUSH0 RETURN INVALID PUSH1 0x80 PUSH1 0x40 MSTORE CALLVALUE DUP1 ISZERO PUSH2 0xF JUMPI PUSH0 DUP1 REVERT JUMPDEST POP PUSH1 0x4 CALLDATASIZE LT PUSH2 0x155 JUMPI PUSH0 CALLDATALOAD PUSH1 0xE0 SHR DUP1 PUSH4 0x8456CB59 GT PUSH2 0xC1 JUMPI DUP1 PUSH4 0xCC88600B GT PUSH2 0x7A JUMPI DUP1 PUSH4 0xCC88600B EQ PUSH2 0x3E9 JUMPI DUP1 PUSH4 0xD328EC70 EQ PUSH2 0x405 JUMPI DUP1 PUSH4 0xE3FBF314 EQ PUSH2 0x421 JUMPI DUP1 PUSH4 0xEAF4CC75 EQ PUSH2 0x451 JUMPI DUP1 PUSH4 0xF0C87BC7 EQ PUSH2 0x487 JUMPI DUP1 PUSH4 0xF685D28F EQ PUSH2 0x4A3 JUMPI PUSH2 0x155 JUMP JUMPDEST DUP1 PUSH4 0x8456CB59 EQ PUSH2 0x315 JUMPI DUP1 PUSH4 0x9EB99F55 EQ PUSH2 0x31F JUMPI DUP1 PUSH4 0xAAD53A84 EQ PUSH2 0x34F JUMPI DUP1 PUSH4 0xAB44AC83 EQ PUSH2 0x36D JUMPI DUP1 PUSH4 0xB78E50A6 EQ PUSH2 0x389 JUMPI DUP1 PUSH4 0xC705BC18 EQ PUSH2 0x3B9 JUMPI PUSH2 0x155 JUMP JUMPDEST DUP1 PUSH4 0x46E012FA GT PUSH2 0x113 JUMPI DUP1 PUSH4 0x46E012FA EQ PUSH2 0x227 JUMPI DUP1 PUSH4 0x489B920F EQ PUSH2 0x257 JUMPI DUP1 PUSH4 0x5C975ABB EQ PUSH2 0x273 JUMPI DUP1 PUSH4 0x641A9350 EQ PUSH2 0x291 JUMPI DUP1 PUSH4 0x66B0A206 EQ PUSH2 0x2AD JUMPI DUP1 PUSH4 0x7AD5DF52 EQ PUSH2 0x2E0 JUMPI PUSH2 0x155 JUMP JUMPDEST DUP1 PUSH3 0x435DA5 EQ PUSH2 0x159 JUMPI DUP1 PUSH4 0x1640CA4 EQ PUSH2 0x177 JUMPI DUP1 PUSH4 0x14D39BAD EQ PUSH2 0x1AF JUMPI DUP1 PUSH4 0x1F741897 EQ PUSH2 0x1CB JUMPI DUP1 PUSH4 0x300D20A1 EQ PUSH2 0x1E9 JUMPI DUP1 PUSH4 0x3F4BA83A EQ PUSH2 0x21D JUMPI JUMPDEST PUSH0 DUP1 REVERT JUMPDEST PUSH2 0x161 PUSH2 0x4BF JUMP JUMPDEST PUSH1 0x40 MLOAD PUSH2 0x16E SWAP2 SWAP1 PUSH2 0x3BA5 JUMP JUMPDEST PUSH1 0x40 MLOAD DUP1 SWAP2 SUB SWAP1 RETURN JUMPDEST PUSH2 0x191 PUSH1 0x4 DUP1 CALLDATASIZE SUB DUP2 ADD SWAP1 PUSH2 0x18C SWAP2 SWAP1 PUSH2 0x3C02 JUMP JUMPDEST PUSH2 0x4E4 JUMP JUMPDEST PUSH1 0x40 MLOAD PUSH2 0x1A6 SWAP10 SWAP9 SWAP8 SWAP7 SWAP6 SWAP5 SWAP4 SWAP3 SWAP2 SWAP1 PUSH2 0x3DC7 JUMP JUMPDEST PUSH1 0x40 MLOAD DUP1 SWAP2 SUB SWAP1 RETURN JUMPDEST PUSH2 0x1C9 PUSH1 0x4 DUP1 CALLDATASIZE SUB DUP2 ADD SWAP1 PUSH2 0x1C4 SWAP2 SWAP1 PUSH2 0x3C02 JUMP JUMPDEST PUSH2 0x7A2 JUMP JUMPDEST STOP JUMPDEST PUSH2 0x1D3 PUSH2 0x98E JUMP JUMPDEST PUSH1 0x40 MLOAD PUSH2 0x1E0 SWAP2 SWAP1 PUSH2 0x3E67 JUMP JUMPDEST PUSH1 0x40 MLOAD DUP1 SWAP2 SUB SWAP1 RETURN JUMPDEST PUSH2 0x203 PUSH1 0x4 DUP1 CALLDATASIZE SUB DUP2 ADD SWAP1 PUSH2 0x1FE SWAP2 SWAP1 PUSH2 0x3E80 JUMP JUMPDEST PUSH2 0x994 JUMP JUMPDEST PUSH1 0x40 MLOAD PUSH2 0x214 SWAP6 SWAP5 SWAP4 SWAP3 SWAP2 SWAP1 PUSH2 0x3EBE JUMP JUMPDEST PUSH1 0x40 MLOAD DUP1 SWAP2 SUB SWAP1 RETURN JUMPDEST PUSH2 0x225 PUSH2 0xA09 JUMP JUMPDEST STOP JUMPDEST PUSH2 0x241 PUSH1 0x4 DUP1 CALLDATASIZE SUB DUP2 ADD SWAP1 PUSH2 0x23C SWAP2 SWAP1 PUSH2 0x3C02 JUMP JUMPDEST PUSH2 0xB7A JUMP JUMPDEST PUSH1 0x40 MLOAD PUSH2 0x24E SWAP2 SWAP1 PUSH2 0x3F0F JUMP JUMPDEST PUSH1 0x40 MLOAD DUP1 SWAP2 SUB SWAP1 RETURN JUMPDEST PUSH2 0x271 PUSH1 0x4 DUP1 CALLDATASIZE SUB DUP2 ADD SWAP1 PUSH2 0x26C SWAP2 SWAP1 PUSH2 0x3E80 JUMP JUMPDEST PUSH2 0xBA3 JUMP JUMPDEST STOP JUMPDEST PUSH2 0x27B PUSH2 0xD2B JUMP JUMPDEST PUSH1 0x40 MLOAD PUSH2 0x288 SWAP2 SWAP1 PUSH2 0x3F0F JUMP JUMPDEST PUSH1 0x40 MLOAD DUP1 SWAP2 SUB SWAP1 RETURN JUMPDEST PUSH2 0x2AB PUSH1 0x4 DUP1 CALLDATASIZE SUB DUP2 ADD SWAP1 PUSH2 0x2A6 SWAP2 SWAP1 PUSH2 0x3E80 JUMP JUMPDEST PUSH2 0xD3F JUMP JUMPDEST STOP JUMPDEST PUSH2 0x2C7 PUSH1 0x4 DUP1 CALLDATASIZE SUB DUP2 ADD SWAP1 PUSH2 0x2C2 SWAP2 SWAP1 PUSH2 0x3C02 JUMP JUMPDEST PUSH2 0x1052 JUMP JUMPDEST PUSH1 0x40 MLOAD PUSH2 0x2D7 SWAP5 SWAP4 SWAP3 SWAP2 SWAP1 PUSH2 0x3F28 JUMP JUMPDEST PUSH1 0x40 MLOAD DUP1 SWAP2 SUB SWAP1 RETURN JUMPDEST PUSH2 0x2FA PUSH1 0x4 DUP1 CALLDATASIZE SUB DUP2 ADD SWAP1 PUSH2 0x2F5 SWAP2 SWAP1 PUSH2 0x3C02 JUMP JUMPDEST PUSH2 0x1397 JUMP JUMPDEST PUSH1 0x40 MLOAD PUSH2 0x30C SWAP7 SWAP6 SWAP5 SWAP4 SWAP3 SWAP2 SWAP1 PUSH2 0x3F6B JUMP JUMPDEST PUSH1 0x40 MLOAD DUP1 SWAP2 SUB SWAP1 RETURN JUMPDEST PUSH2 0x31D PUSH2 0x171E JUMP JUMPDEST STOP JUMPDEST PUSH2 0x339 PUSH1 0x4 DUP1 CALLDATASIZE SUB DUP2 ADD SWAP1 PUSH2 0x334 SWAP2 SWAP1 PUSH2 0x3E80 JUMP JUMPDEST PUSH2 0x188F JUMP JUMPDEST PUSH1 0x40 MLOAD PUSH2 0x346 SWAP2 SWAP1 PUSH2 0x3E67 JUMP JUMPDEST PUSH1 0x40 MLOAD DUP1 SWAP2 SUB SWAP1 RETURN JUMPDEST PUSH2 0x357 PUSH2 0x18BA JUMP JUMPDEST PUSH1 0x40 MLOAD PUSH2 0x364 SWAP2 SWAP1 PUSH2 0x3FEA JUMP JUMPDEST PUSH1 0x40 MLOAD DUP1 SWAP2 SUB SWAP1 RETURN JUMPDEST PUSH2 0x387 PUSH1 0x4 DUP1 CALLDATASIZE SUB DUP2 ADD SWAP1 PUSH2 0x382 SWAP2 SWAP1 PUSH2 0x3E80 JUMP JUMPDEST PUSH2 0x18DF JUMP JUMPDEST STOP JUMPDEST PUSH2 0x3A3 PUSH1 0x4 DUP1 CALLDATASIZE SUB DUP2 ADD SWAP1 PUSH2 0x39E SWAP2 SWAP1 PUSH2 0x3C02 JUMP JUMPDEST PUSH2 0x1DC7 JUMP JUMPDEST PUSH1 0x40 MLOAD PUSH2 0x3B0 SWAP2 SWAP1 PUSH2 0x3F0F JUMP JUMPDEST PUSH1 0x40 MLOAD DUP1 SWAP2 SUB SWAP1 RETURN JUMPDEST PUSH2 0x3D3 PUSH1 0x4 DUP1 CALLDATASIZE SUB DUP2 ADD SWAP1 PUSH2 0x3CE SWAP2 SWAP1 PUSH2 0x3C02 JUMP JUMPDEST PUSH2 0x1E32 JUMP JUMPDEST PUSH1 0x40 MLOAD PUSH2 0x3E0 SWAP2 SWAP1 PUSH2 0x40BA JUMP JUMPDEST PUSH1 0x40 MLOAD DUP1 SWAP2 SUB SWAP1 RETURN JUMPDEST PUSH2 0x403 PUSH1 0x4 DUP1 CALLDATASIZE SUB DUP2 ADD SWAP1 PUSH2 0x3FE SWAP2 SWAP1 PUSH2 0x3C02 JUMP JUMPDEST PUSH2 0x1EF9 JUMP JUMPDEST STOP JUMPDEST PUSH2 0x41F PUSH1 0x4 DUP1 CALLDATASIZE SUB DUP2 ADD SWAP1 PUSH2 0x41A SWAP2 SWAP1 PUSH2 0x40FC JUMP JUMPDEST PUSH2 0x2134 JUMP JUMPDEST STOP JUMPDEST PUSH2 0x43B PUSH1 0x4 DUP1 CALLDATASIZE SUB DUP2 ADD SWAP1 PUSH2 0x436 SWAP2 SWAP1 PUSH2 0x3C02 JUMP JUMPDEST PUSH2 0x2674 JUMP JUMPDEST PUSH1 0x40 MLOAD PUSH2 0x448 SWAP2 SWAP1 PUSH2 0x4298 JUMP JUMPDEST PUSH1 0x40 MLOAD DUP1 SWAP2 SUB SWAP1 RETURN JUMPDEST PUSH2 0x46B PUSH1 0x4 DUP1 CALLDATASIZE SUB DUP2 ADD SWAP1 PUSH2 0x466 SWAP2 SWAP1 PUSH2 0x3C02 JUMP JUMPDEST PUSH2 0x2A14 JUMP JUMPDEST PUSH1 0x40 MLOAD PUSH2 0x47E SWAP8 SWAP7 SWAP6 SWAP5 SWAP4 SWAP3 SWAP2 SWAP1 PUSH2 0x42B8 JUMP JUMPDEST PUSH1 0x40 MLOAD DUP1 SWAP2 SUB SWAP1 RETURN JUMPDEST PUSH2 0x4A1 PUSH1 0x4 DUP1 CALLDATASIZE SUB DUP2 ADD SWAP1 PUSH2 0x49C SWAP2 SWAP1 PUSH2 0x3C02 JUMP JUMPDEST PUSH2 0x2CD3 JUMP JUMPDEST STOP JUMPDEST PUSH2 0x4BD PUSH1 0x4 DUP1 CALLDATASIZE SUB DUP2 ADD SWAP1 PUSH2 0x4B8 SWAP2 SWAP1 PUSH2 0x3E80 JUMP JUMPDEST PUSH2 0x3481 JUMP JUMPDEST STOP JUMPDEST PUSH0 PUSH1 0x1 SWAP1 SLOAD SWAP1 PUSH2 0x100 EXP SWAP1 DIV PUSH20 0xFFFFFFFFFFFFFFFFFFFFFFFFFFFFFFFFFFFFFFFF AND DUP2 JUMP JUMPDEST PUSH1 0x4 PUSH1 0x20 MSTORE DUP1 PUSH0 MSTORE PUSH1 0x40 PUSH0 KECCAK256 PUSH0 SWAP2 POP SWAP1 POP DUP1 PUSH0 ADD SLOAD SWAP1 DUP1 PUSH1 0x1 ADD DUP1 SLOAD PUSH2 0x509 SWAP1 PUSH2 0x4367 JUMP JUMPDEST DUP1 PUSH1 0x1F ADD PUSH1 0x20 DUP1 SWAP2 DIV MUL PUSH1 0x20 ADD PUSH1 0x40 MLOAD SWAP1 DUP2 ADD PUSH1 0x40 MSTORE DUP1 SWAP3 SWAP2 SWAP1 DUP2 DUP2 MSTORE PUSH1 0x20 ADD DUP3 DUP1 SLOAD PUSH2 0x535 SWAP1 PUSH2 0x4367 JUMP JUMPDEST DUP1 ISZERO PUSH2 0x580 JUMPI DUP1 PUSH1 0x1F LT PUSH2 0x557 JUMPI PUSH2 0x100 DUP1 DUP4 SLOAD DIV MUL DUP4 MSTORE SWAP2 PUSH1 0x20 ADD SWAP2 PUSH2 0x580 JUMP JUMPDEST DUP3 ADD SWAP2 SWAP1 PUSH0 MSTORE PUSH1 0x20 PUSH0 KECCAK256 SWAP1 JUMPDEST DUP2 SLOAD DUP2 MSTORE SWAP1 PUSH1 0x1 ADD SWAP1 PUSH1 0x20 ADD DUP1 DUP4 GT PUSH2 0x563 JUMPI DUP3 SWAP1 SUB PUSH1 0x1F AND DUP3 ADD SWAP2 JUMPDEST POP POP POP POP POP SWAP1 DUP1 PUSH1 0x2 ADD DUP1 SLOAD PUSH2 0x595 SWAP1 PUSH2 0x4367 JUMP JUMPDEST DUP1 PUSH1 0x1F ADD PUSH1 0x20 DUP1 SWAP2 DIV MUL PUSH1 0x20 ADD PUSH1 0x40 MLOAD SWAP1 DUP2 ADD PUSH1 0x40 MSTORE DUP1 SWAP3 SWAP2 SWAP1 DUP2 DUP2 MSTORE PUSH1 0x20 ADD DUP3 DUP1 SLOAD PUSH2 0x5C1 SWAP1 PUSH2 0x4367 JUMP JUMPDEST DUP1 ISZERO PUSH2 0x60C JUMPI DUP1 PUSH1 0x1F LT PUSH2 0x5E3 JUMPI PUSH2 0x100 DUP1 DUP4 SLOAD DIV MUL DUP4 MSTORE SWAP2 PUSH1 0x20 ADD SWAP2 PUSH2 0x60C JUMP JUMPDEST DUP3 ADD SWAP2 SWAP1 PUSH0 MSTORE PUSH1 0x20 PUSH0 KECCAK256 SWAP1 JUMPDEST DUP2 SLOAD DUP2 MSTORE SWAP1 PUSH1 0x1 ADD SWAP1 PUSH1 0x20 ADD DUP1 DUP4 GT PUSH2 0x5EF JUMPI DUP3 SWAP1 SUB PUSH1 0x1F AND DUP3 ADD SWAP2 JUMPDEST POP POP POP POP POP SWAP1 DUP1 PUSH1 0x3 ADD PUSH1 0x40 MLOAD DUP1 PUSH1 0x80 ADD PUSH1 0x40 MSTORE SWAP1 DUP2 PUSH0 DUP3 ADD DUP1 SLOAD PUSH2 0x630 SWAP1 PUSH2 0x4367 JUMP JUMPDEST DUP1 PUSH1 0x1F ADD PUSH1 0x20 DUP1 SWAP2 DIV MUL PUSH1 0x20 ADD PUSH1 0x40 MLOAD SWAP1 DUP2 ADD PUSH1 0x40 MSTORE DUP1 SWAP3 SWAP2 SWAP1 DUP2 DUP2 MSTORE PUSH1 0x20 ADD DUP3 DUP1 SLOAD PUSH2 0x65C SWAP1 PUSH2 0x4367 JUMP JUMPDEST DUP1 ISZERO PUSH2 0x6A7 JUMPI DUP1 PUSH1 0x1F LT PUSH2 0x67E JUMPI PUSH2 0x100 DUP1 DUP4 SLOAD DIV MUL DUP4 MSTORE SWAP2 PUSH1 0x20 ADD SWAP2 PUSH2 0x6A7 JUMP JUMPDEST DUP3 ADD SWAP2 SWAP1 PUSH0 MSTORE PUSH1 0x20 PUSH0 KECCAK256 SWAP1 JUMPDEST DUP2 SLOAD DUP2 MSTORE SWAP1 PUSH1 0x1 ADD SWAP1 PUSH1 0x20 ADD DUP1 DUP4 GT PUSH2 0x68A JUMPI DUP3 SWAP1 SUB PUSH1 0x1F AND DUP3 ADD SWAP2 JUMPDEST POP POP POP POP POP DUP2 MSTORE PUSH1 0x20 ADD PUSH1 0x1 DUP3 ADD DUP1 SLOAD PUSH2 0x6C0 SWAP1 PUSH2 0x4367 JUMP JUMPDEST DUP1 PUSH1 0x1F ADD PUSH1 0x20 DUP1 SWAP2 DIV MUL PUSH1 0x20 ADD PUSH1 0x40 MLOAD SWAP1 DUP2 ADD PUSH1 0x40 MSTORE DUP1 SWAP3 SWAP2 SWAP1 DUP2 DUP2 MSTORE PUSH1 0x20 ADD DUP3 DUP1 SLOAD PUSH2 0x6EC SWAP1 PUSH2 0x4367 JUMP JUMPDEST DUP1 ISZERO PUSH2 0x737 JUMPI DUP1 PUSH1 0x1F LT PUSH2 0x70E JUMPI PUSH2 0x100 DUP1 DUP4 SLOAD DIV MUL DUP4 MSTORE SWAP2 PUSH1 0x20 ADD SWAP2 PUSH2 0x737 JUMP JUMPDEST DUP3 ADD SWAP2 SWAP1 PUSH0 MSTORE PUSH1 0x20 PUSH0 KECCAK256 SWAP1 JUMPDEST DUP2 SLOAD DUP2 MSTORE SWAP1 PUSH1 0x1 ADD SWAP1 PUSH1 0x20 ADD DUP1 DUP4 GT PUSH2 0x71A JUMPI DUP3 SWAP1 SUB PUSH1 0x1F AND DUP3 ADD SWAP2 JUMPDEST POP POP POP POP POP DUP2 MSTORE PUSH1 0x20 ADD PUSH1 0x2 DUP3 ADD SLOAD DUP2 MSTORE PUSH1 0x20 ADD PUSH1 0x3 DUP3 ADD SLOAD DUP2 MSTORE POP POP SWAP1 DUP1 PUSH1 0x7 ADD PUSH0 SWAP1 SLOAD SWAP1 PUSH2 0x100 EXP SWAP1 DIV PUSH20 0xFFFFFFFFFFFFFFFFFFFFFFFFFFFFFFFFFFFFFFFF AND SWAP1 DUP1 PUSH1 0x8 ADD SLOAD SWAP1 DUP1 PUSH1 0x9 ADD PUSH0 SWAP1 SLOAD SWAP1 PUSH2 0x100 EXP SWAP1 DIV PUSH1 0xFF AND SWAP1 DUP1 PUSH1 0xA ADD SLOAD SWAP1 DUP1 PUSH1 0xB ADD SLOAD SWAP1 POP DUP10 JUMP JUMPDEST PUSH0 PUSH1 0x1 SWAP1 SLOAD SWAP1 PUSH2 0x100 EXP SWAP1 DIV PUSH20 0xFFFFFFFFFFFFFFFFFFFFFFFFFFFFFFFFFFFFFFFF AND PUSH20 0xFFFFFFFFFFFFFFFFFFFFFFFFFFFFFFFFFFFFFFFF AND PUSH4 0x91D14854 PUSH0 PUSH1 0x1 SWAP1 SLOAD SWAP1 PUSH2 0x100 EXP SWAP1 DIV PUSH20 0xFFFFFFFFFFFFFFFFFFFFFFFFFFFFFFFFFFFFFFFF AND PUSH20 0xFFFFFFFFFFFFFFFFFFFFFFFFFFFFFFFFFFFFFFFF AND PUSH4 0x75B238FC PUSH1 0x40 MLOAD DUP2 PUSH4 0xFFFFFFFF AND PUSH1 0xE0 SHL DUP2 MSTORE PUSH1 0x4 ADD PUSH1 0x20 PUSH1 0x40 MLOAD DUP1 DUP4 SUB DUP2 DUP7 GAS STATICCALL ISZERO DUP1 ISZERO PUSH2 0x849 JUMPI RETURNDATASIZE PUSH0 DUP1 RETURNDATACOPY RETURNDATASIZE PUSH0 REVERT JUMPDEST POP POP POP POP PUSH1 0x40 MLOAD RETURNDATASIZE PUSH1 0x1F NOT PUSH1 0x1F DUP3 ADD AND DUP3 ADD DUP1 PUSH1 0x40 MSTORE POP DUP2 ADD SWAP1 PUSH2 0x86D SWAP2 SWAP1 PUSH2 0x43CA JUMP JUMPDEST CALLER PUSH1 0x40 MLOAD DUP4 PUSH4 0xFFFFFFFF AND PUSH1 0xE0 SHL DUP2 MSTORE PUSH1 0x4 ADD PUSH2 0x88B SWAP3 SWAP2 SWAP1 PUSH2 0x4404 JUMP JUMPDEST PUSH1 0x20 PUSH1 0x40 MLOAD DUP1 DUP4 SUB DUP2 DUP7 GAS STATICCALL ISZERO DUP1 ISZERO PUSH2 0x8A6 JUMPI RETURNDATASIZE PUSH0 DUP1 RETURNDATACOPY RETURNDATASIZE PUSH0 REVERT JUMPDEST POP POP POP POP PUSH1 0x40 MLOAD RETURNDATASIZE PUSH1 0x1F NOT PUSH1 0x1F DUP3 ADD AND DUP3 ADD DUP1 PUSH1 0x40 MSTORE POP DUP2 ADD SWAP1 PUSH2 0x8CA SWAP2 SWAP1 PUSH2 0x4455 JUMP JUMPDEST PUSH2 0x909 JUMPI PUSH1 0x40 MLOAD PUSH32 0x8C379A000000000000000000000000000000000000000000000000000000000 DUP2 MSTORE PUSH1 0x4 ADD PUSH2 0x900 SWAP1 PUSH2 0x44CA JUMP JUMPDEST PUSH1 0x40 MLOAD DUP1 SWAP2 SUB SWAP1 REVERT JUMPDEST PUSH1 0x64 DUP2 GT ISZERO PUSH2 0x94D JUMPI PUSH1 0x40 MLOAD PUSH32 0x8C379A000000000000000000000000000000000000000000000000000000000 DUP2 MSTORE PUSH1 0x4 ADD PUSH2 0x944 SWAP1 PUSH2 0x4532 JUMP JUMPDEST PUSH1 0x40 MLOAD DUP1 SWAP2 SUB SWAP1 REVERT JUMPDEST DUP1 PUSH1 0x3 DUP2 SWAP1 SSTORE POP PUSH32 0x939BE2C65DBF8FD3FA426B40F964A7038810059517125D552F6F45B487713D82 DUP2 PUSH1 0x40 MLOAD PUSH2 0x983 SWAP2 SWAP1 PUSH2 0x3E67 JUMP JUMPDEST PUSH1 0x40 MLOAD DUP1 SWAP2 SUB SWAP1 LOG1 POP JUMP JUMPDEST PUSH1 0x3 SLOAD DUP2 JUMP JUMPDEST PUSH1 0x6 PUSH1 0x20 MSTORE DUP2 PUSH0 MSTORE PUSH1 0x40 PUSH0 KECCAK256 PUSH1 0x20 MSTORE DUP1 PUSH0 MSTORE PUSH1 0x40 PUSH0 KECCAK256 PUSH0 SWAP2 POP SWAP2 POP POP DUP1 PUSH0 ADD SLOAD SWAP1 DUP1 PUSH1 0x1 ADD PUSH0 SWAP1 SLOAD SWAP1 PUSH2 0x100 EXP SWAP1 DIV PUSH20 0xFFFFFFFFFFFFFFFFFFFFFFFFFFFFFFFFFFFFFFFF AND SWAP1 DUP1 PUSH1 0x2 ADD SLOAD SWAP1 DUP1 PUSH1 0x3 ADD PUSH0 SWAP1 SLOAD SWAP1 PUSH2 0x100 EXP SWAP1 DIV PUSH1 0xFF AND SWAP1 DUP1 PUSH1 0x3 ADD PUSH1 0x1 SWAP1 SLOAD SWAP1 PUSH2 0x100 EXP SWAP1 DIV PUSH1 0xFF AND SWAP1 POP DUP6 JUMP JUMPDEST PUSH0 PUSH1 0x1 SWAP1 SLOAD SWAP1 PUSH2 0x100 EXP SWAP1 DIV PUSH20 0xFFFFFFFFFFFFFFFFFFFFFFFFFFFFFFFFFFFFFFFF AND PUSH20 0xFFFFFFFFFFFFFFFFFFFFFFFFFFFFFFFFFFFFFFFF AND PUSH4 0x91D14854 PUSH0 PUSH1 0x1 SWAP1 SLOAD SWAP1 PUSH2 0x100 EXP SWAP1 DIV PUSH20 0xFFFFFFFFFFFFFFFFFFFFFFFFFFFFFFFFFFFFFFFF AND PUSH20 0xFFFFFFFFFFFFFFFFFFFFFFFFFFFFFFFFFFFFFFFF AND PUSH4 0x75B238FC PUSH1 0x40 MLOAD DUP2 PUSH4 0xFFFFFFFF AND PUSH1 0xE0 SHL DUP2 MSTORE PUSH1 0x4 ADD PUSH1 0x20 PUSH1 0x40 MLOAD DUP1 DUP4 SUB DUP2 DUP7 GAS STATICCALL ISZERO DUP1 ISZERO PUSH2 0xAB0 JUMPI RETURNDATASIZE PUSH0 DUP1 RETURNDATACOPY RETURNDATASIZE PUSH0 REVERT JUMPDEST POP POP POP POP PUSH1 0x40 MLOAD RETURNDATASIZE PUSH1 0x1F NOT PUSH1 0x1F DUP3 ADD AND DUP3 ADD DUP1 PUSH1 0x40 MSTORE POP DUP2 ADD SWAP1 PUSH2 0xAD4 SWAP2 SWAP1 PUSH2 0x43CA JUMP JUMPDEST CALLER PUSH1 0x40 MLOAD DUP4 PUSH4 0xFFFFFFFF AND PUSH1 0xE0 SHL DUP2 MSTORE PUSH1 0x4 ADD PUSH2 0xAF2 SWAP3 SWAP2 SWAP1 PUSH2 0x4404 JUMP JUMPDEST PUSH1 0x20 PUSH1 0x40 MLOAD DUP1 DUP4 SUB DUP2 DUP7 GAS STATICCALL ISZERO DUP1 ISZERO PUSH2 0xB0D JUMPI RETURNDATASIZE PUSH0 DUP1 RETURNDATACOPY RETURNDATASIZE PUSH0 REVERT JUMPDEST POP POP POP POP PUSH1 0x40 MLOAD RETURNDATASIZE PUSH1 0x1F NOT PUSH1 0x1F DUP3 ADD AND DUP3 ADD DUP1 PUSH1 0x40 MSTORE POP DUP2 ADD SWAP1 PUSH2 0xB31 SWAP2 SWAP1 PUSH2 0x4455 JUMP JUMPDEST PUSH2 0xB70 JUMPI PUSH1 0x40 MLOAD PUSH32 0x8C379A000000000000000000000000000000000000000000000000000000000 DUP2 MSTORE PUSH1 0x4 ADD PUSH2 0xB67 SWAP1 PUSH2 0x44CA JUMP JUMPDEST PUSH1 0x40 MLOAD DUP1 SWAP2 SUB SWAP1 REVERT JUMPDEST PUSH2 0xB78 PUSH2 0x3855 JUMP JUMPDEST JUMP JUMPDEST PUSH0 PUSH1 0x4 PUSH0 DUP4 DUP2 MSTORE PUSH1 0x20 ADD SWAP1 DUP2 MSTORE PUSH1 0x20 ADD PUSH0 KECCAK256 PUSH1 0x9 ADD PUSH0 SWAP1 SLOAD SWAP1 PUSH2 0x100 EXP SWAP1 DIV PUSH1 0xFF AND SWAP1 POP SWAP2 SWAP1 POP JUMP JUMPDEST DUP2 CALLER PUSH20 0xFFFFFFFFFFFFFFFFFFFFFFFFFFFFFFFFFFFFFFFF AND PUSH1 0x4 PUSH0 DUP4 DUP2 MSTORE PUSH1 0x20 ADD SWAP1 DUP2 MSTORE PUSH1 0x20 ADD PUSH0 KECCAK256 PUSH1 0x7 ADD PUSH0 SWAP1 SLOAD SWAP1 PUSH2 0x100 EXP SWAP1 DIV PUSH20 0xFFFFFFFFFFFFFFFFFFFFFFFFFFFFFFFFFFFFFFFF AND PUSH20 0xFFFFFFFFFFFFFFFFFFFFFFFFFFFFFFFFFFFFFFFF AND EQ PUSH2 0xC45 JUMPI PUSH1 0x40 MLOAD PUSH32 0x8C379A000000000000000000000000000000000000000000000000000000000 DUP2 MSTORE PUSH1 0x4 ADD PUSH2 0xC3C SWAP1 PUSH2 0x459A JUMP JUMPDEST PUSH1 0x40 MLOAD DUP1 SWAP2 SUB SWAP1 REVERT JUMPDEST PUSH2 0xC4D PUSH2 0x38B5 JUMP JUMPDEST PUSH0 PUSH1 0x6 PUSH0 DUP6 DUP2 MSTORE PUSH1 0x20 ADD SWAP1 DUP2 MSTORE PUSH1 0x20 ADD PUSH0 KECCAK256 PUSH0 DUP5 DUP2 MSTORE PUSH1 0x20 ADD SWAP1 DUP2 MSTORE PUSH1 0x20 ADD PUSH0 KECCAK256 SWAP1 POP DUP1 PUSH1 0x3 ADD PUSH0 SWAP1 SLOAD SWAP1 PUSH2 0x100 EXP SWAP1 DIV PUSH1 0xFF AND PUSH2 0xCC0 JUMPI PUSH1 0x40 MLOAD PUSH32 0x8C379A000000000000000000000000000000000000000000000000000000000 DUP2 MSTORE PUSH1 0x4 ADD PUSH2 0xCB7 SWAP1 PUSH2 0x4602 JUMP JUMPDEST PUSH1 0x40 MLOAD DUP1 SWAP2 SUB SWAP1 REVERT JUMPDEST PUSH0 DUP2 PUSH1 0x3 ADD PUSH0 PUSH2 0x100 EXP DUP2 SLOAD DUP2 PUSH1 0xFF MUL NOT AND SWAP1 DUP4 ISZERO ISZERO MUL OR SWAP1 SSTORE POP PUSH0 DUP2 PUSH1 0x3 ADD PUSH1 0x1 PUSH2 0x100 EXP DUP2 SLOAD DUP2 PUSH1 0xFF MUL NOT AND SWAP1 DUP4 ISZERO ISZERO MUL OR SWAP1 SSTORE POP DUP3 DUP5 PUSH32 0x409E24D1DE9B35460A711A3D1A6690CACA8A22C4C49D543D5F5507C76DA71F65 PUSH1 0x40 MLOAD PUSH1 0x40 MLOAD DUP1 SWAP2 SUB SWAP1 LOG3 POP POP POP POP JUMP JUMPDEST PUSH0 DUP1 PUSH0 SWAP1 SLOAD SWAP1 PUSH2 0x100 EXP SWAP1 DIV PUSH1 0xFF AND SWAP1 POP SWAP1 JUMP JUMPDEST PUSH0 PUSH1 0x1 SWAP1 SLOAD SWAP1 PUSH2 0x100 EXP SWAP1 DIV PUSH20 0xFFFFFFFFFFFFFFFFFFFFFFFFFFFFFFFFFFFFFFFF AND PUSH20 0xFFFFFFFFFFFFFFFFFFFFFFFFFFFFFFFFFFFFFFFF AND PUSH4 0x91D14854 PUSH0 PUSH1 0x1 SWAP1 SLOAD SWAP1 PUSH2 0x100 EXP SWAP1 DIV PUSH20 0xFFFFFFFFFFFFFFFFFFFFFFFFFFFFFFFFFFFFFFFF AND PUSH20 0xFFFFFFFFFFFFFFFFFFFFFFFFFFFFFFFFFFFFFFFF AND PUSH4 0x75B238FC PUSH1 0x40 MLOAD DUP2 PUSH4 0xFFFFFFFF AND PUSH1 0xE0 SHL DUP2 MSTORE PUSH1 0x4 ADD PUSH1 0x20 PUSH1 0x40 MLOAD DUP1 DUP4 SUB DUP2 DUP7 GAS STATICCALL ISZERO DUP1 ISZERO PUSH2 0xDE6 JUMPI RETURNDATASIZE PUSH0 DUP1 RETURNDATACOPY RETURNDATASIZE PUSH0 REVERT JUMPDEST POP POP POP POP PUSH1 0x40 MLOAD RETURNDATASIZE PUSH1 0x1F NOT PUSH1 0x1F DUP3 ADD AND DUP3 ADD DUP1 PUSH1 0x40 MSTORE POP DUP2 ADD SWAP1 PUSH2 0xE0A SWAP2 SWAP1 PUSH2 0x43CA JUMP JUMPDEST CALLER PUSH1 0x40 MLOAD DUP4 PUSH4 0xFFFFFFFF AND PUSH1 0xE0 SHL DUP2 MSTORE PUSH1 0x4 ADD PUSH2 0xE28 SWAP3 SWAP2 SWAP1 PUSH2 0x4404 JUMP JUMPDEST PUSH1 0x20 PUSH1 0x40 MLOAD DUP1 DUP4 SUB DUP2 DUP7 GAS STATICCALL ISZERO DUP1 ISZERO PUSH2 0xE43 JUMPI RETURNDATASIZE PUSH0 DUP1 RETURNDATACOPY RETURNDATASIZE PUSH0 REVERT JUMPDEST POP POP POP POP PUSH1 0x40 MLOAD RETURNDATASIZE PUSH1 0x1F NOT PUSH1 0x1F DUP3 ADD AND DUP3 ADD DUP1 PUSH1 0x40 MSTORE POP DUP2 ADD SWAP1 PUSH2 0xE67 SWAP2 SWAP1 PUSH2 0x4455 JUMP JUMPDEST PUSH2 0xEA6 JUMPI PUSH1 0x40 MLOAD PUSH32 0x8C379A000000000000000000000000000000000000000000000000000000000 DUP2 MSTORE PUSH1 0x4 ADD PUSH2 0xE9D SWAP1 PUSH2 0x44CA JUMP JUMPDEST PUSH1 0x40 MLOAD DUP1 SWAP2 SUB SWAP1 REVERT JUMPDEST PUSH2 0xEAE PUSH2 0x38B5 JUMP JUMPDEST PUSH1 0x4 PUSH0 DUP4 DUP2 MSTORE PUSH1 0x20 ADD SWAP1 DUP2 MSTORE PUSH1 0x20 ADD PUSH0 KECCAK256 PUSH1 0x9 ADD PUSH0 SWAP1 SLOAD SWAP1 PUSH2 0x100 EXP SWAP1 DIV PUSH1 0xFF AND PUSH2 0xF0E JUMPI PUSH1 0x40 MLOAD PUSH32 0x8C379A000000000000000000000000000000000000000000000000000000000 DUP2 MSTORE PUSH1 0x4 ADD PUSH2 0xF05 SWAP1 PUSH2 0x466A JUMP JUMPDEST PUSH1 0x40 MLOAD DUP1 SWAP2 SUB SWAP1 REVERT JUMPDEST PUSH2 0xF18 DUP3 DUP3 PUSH2 0x38FF JUMP JUMPDEST PUSH1 0x1 PUSH0 SWAP1 SLOAD SWAP1 PUSH2 0x100 EXP SWAP1 DIV PUSH20 0xFFFFFFFFFFFFFFFFFFFFFFFFFFFFFFFFFFFFFFFF AND PUSH20 0xFFFFFFFFFFFFFFFFFFFFFFFFFFFFFFFFFFFFFFFF AND PUSH4 0xCE290E1D DUP3 PUSH0 DUP1 PUSH1 0x40 MLOAD DUP5 PUSH4 0xFFFFFFFF AND PUSH1 0xE0 SHL DUP2 MSTORE PUSH1 0x4 ADD PUSH2 0xF76 SWAP4 SWAP3 SWAP2 SWAP1 PUSH2 0x46C1 JUMP JUMPDEST PUSH0 PUSH1 0x40 MLOAD DUP1 DUP4 SUB DUP2 PUSH0 DUP8 DUP1 EXTCODESIZE ISZERO DUP1 ISZERO PUSH2 0xF8D JUMPI PUSH0 DUP1 REVERT JUMPDEST POP GAS CALL ISZERO DUP1 ISZERO PUSH2 0xF9F JUMPI RETURNDATASIZE PUSH0 DUP1 RETURNDATACOPY RETURNDATASIZE PUSH0 REVERT JUMPDEST POP POP POP POP PUSH1 0x6 PUSH0 DUP4 DUP2 MSTORE PUSH1 0x20 ADD SWAP1 DUP2 MSTORE PUSH1 0x20 ADD PUSH0 KECCAK256 PUSH0 DUP3 DUP2 MSTORE PUSH1 0x20 ADD SWAP1 DUP2 MSTORE PUSH1 0x20 ADD PUSH0 KECCAK256 PUSH0 DUP1 DUP3 ADD PUSH0 SWAP1 SSTORE PUSH1 0x1 DUP3 ADD PUSH0 PUSH2 0x100 EXP DUP2 SLOAD SWAP1 PUSH20 0xFFFFFFFFFFFFFFFFFFFFFFFFFFFFFFFFFFFFFFFF MUL NOT AND SWAP1 SSTORE PUSH1 0x2 DUP3 ADD PUSH0 SWAP1 SSTORE PUSH1 0x3 DUP3 ADD PUSH0 PUSH2 0x100 EXP DUP2 SLOAD SWAP1 PUSH1 0xFF MUL NOT AND SWAP1 SSTORE PUSH1 0x3 DUP3 ADD PUSH1 0x1 PUSH2 0x100 EXP DUP2 SLOAD SWAP1 PUSH1 0xFF MUL NOT AND SWAP1 SSTORE POP POP DUP1 DUP3 PUSH32 0x9C2A665641680D8945C31C04E9280E79CDC8FB9DA62E272D871D116BB7AE894D PUSH1 0x40 MLOAD PUSH1 0x40 MLOAD DUP1 SWAP2 SUB SWAP1 LOG3 POP POP JUMP JUMPDEST PUSH0 DUP1 PUSH0 DUP1 PUSH0 PUSH1 0x4 PUSH0 DUP8 DUP2 MSTORE PUSH1 0x20 ADD SWAP1 DUP2 MSTORE PUSH1 0x20 ADD PUSH0 KECCAK256 PUSH1 0x40 MLOAD DUP1 PUSH2 0x120 ADD PUSH1 0x40 MSTORE SWAP1 DUP2 PUSH0 DUP3 ADD SLOAD DUP2 MSTORE PUSH1 0x20 ADD PUSH1 0x1 DUP3 ADD DUP1 SLOAD PUSH2 0x108D SWAP1 PUSH2 0x4367 JUMP JUMPDEST DUP1 PUSH1 0x1F ADD PUSH1 0x20 DUP1 SWAP2 DIV MUL PUSH1 0x20 ADD PUSH1 0x40 MLOAD SWAP1 DUP2 ADD PUSH1 0x40 MSTORE DUP1 SWAP3 SWAP2 SWAP1 DUP2 DUP2 MSTORE PUSH1 0x20 ADD DUP3 DUP1 SLOAD PUSH2 0x10B9 SWAP1 PUSH2 0x4367 JUMP JUMPDEST DUP1 ISZERO PUSH2 0x1104 JUMPI DUP1 PUSH1 0x1F LT PUSH2 0x10DB JUMPI PUSH2 0x100 DUP1 DUP4 SLOAD DIV MUL DUP4 MSTORE SWAP2 PUSH1 0x20 ADD SWAP2 PUSH2 0x1104 JUMP JUMPDEST DUP3 ADD SWAP2 SWAP1 PUSH0 MSTORE PUSH1 0x20 PUSH0 KECCAK256 SWAP1 JUMPDEST DUP2 SLOAD DUP2 MSTORE SWAP1 PUSH1 0x1 ADD SWAP1 PUSH1 0x20 ADD DUP1 DUP4 GT PUSH2 0x10E7 JUMPI DUP3 SWAP1 SUB PUSH1 0x1F AND DUP3 ADD SWAP2 JUMPDEST POP POP POP POP POP DUP2 MSTORE PUSH1 0x20 ADD PUSH1 0x2 DUP3 ADD DUP1 SLOAD PUSH2 0x111D SWAP1 PUSH2 0x4367 JUMP JUMPDEST DUP1 PUSH1 0x1F ADD PUSH1 0x20 DUP1 SWAP2 DIV MUL PUSH1 0x20 ADD PUSH1 0x40 MLOAD SWAP1 DUP2 ADD PUSH1 0x40 MSTORE DUP1 SWAP3 SWAP2 SWAP1 DUP2 DUP2 MSTORE PUSH1 0x20 ADD DUP3 DUP1 SLOAD PUSH2 0x1149 SWAP1 PUSH2 0x4367 JUMP JUMPDEST DUP1 ISZERO PUSH2 0x1194 JUMPI DUP1 PUSH1 0x1F LT PUSH2 0x116B JUMPI PUSH2 0x100 DUP1 DUP4 SLOAD DIV MUL DUP4 MSTORE SWAP2 PUSH1 0x20 ADD SWAP2 PUSH2 0x1194 JUMP JUMPDEST DUP3 ADD SWAP2 SWAP1 PUSH0 MSTORE PUSH1 0x20 PUSH0 KECCAK256 SWAP1 JUMPDEST DUP2 SLOAD DUP2 MSTORE SWAP1 PUSH1 0x1 ADD SWAP1 PUSH1 0x20 ADD DUP1 DUP4 GT PUSH2 0x1177 JUMPI DUP3 SWAP1 SUB PUSH1 0x1F AND DUP3 ADD SWAP2 JUMPDEST POP POP POP POP POP DUP2 MSTORE PUSH1 0x20 ADD PUSH1 0x3 DUP3 ADD PUSH1 0x40 MLOAD DUP1 PUSH1 0x80 ADD PUSH1 0x40 MSTORE SWAP1 DUP2 PUSH0 DUP3 ADD DUP1 SLOAD PUSH2 0x11BC SWAP1 PUSH2 0x4367 JUMP JUMPDEST DUP1 PUSH1 0x1F ADD PUSH1 0x20 DUP1 SWAP2 DIV MUL PUSH1 0x20 ADD PUSH1 0x40 MLOAD SWAP1 DUP2 ADD PUSH1 0x40 MSTORE DUP1 SWAP3 SWAP2 SWAP1 DUP2 DUP2 MSTORE PUSH1 0x20 ADD DUP3 DUP1 SLOAD PUSH2 0x11E8 SWAP1 PUSH2 0x4367 JUMP JUMPDEST DUP1 ISZERO PUSH2 0x1233 JUMPI DUP1 PUSH1 0x1F LT PUSH2 0x120A JUMPI PUSH2 0x100 DUP1 DUP4 SLOAD DIV MUL DUP4 MSTORE SWAP2 PUSH1 0x20 ADD SWAP2 PUSH2 0x1233 JUMP JUMPDEST DUP3 ADD SWAP2 SWAP1 PUSH0 MSTORE PUSH1 0x20 PUSH0 KECCAK256 SWAP1 JUMPDEST DUP2 SLOAD DUP2 MSTORE SWAP1 PUSH1 0x1 ADD SWAP1 PUSH1 0x20 ADD DUP1 DUP4 GT PUSH2 0x1216 JUMPI DUP3 SWAP1 SUB PUSH1 0x1F AND DUP3 ADD SWAP2 JUMPDEST POP POP POP POP POP DUP2 MSTORE PUSH1 0x20 ADD PUSH1 0x1 DUP3 ADD DUP1 SLOAD PUSH2 0x124C SWAP1 PUSH2 0x4367 JUMP JUMPDEST DUP1 PUSH1 0x1F ADD PUSH1 0x20 DUP1 SWAP2 DIV MUL PUSH1 0x20 ADD PUSH1 0x40 MLOAD SWAP1 DUP2 ADD PUSH1 0x40 MSTORE DUP1 SWAP3 SWAP2 SWAP1 DUP2 DUP2 MSTORE PUSH1 0x20 ADD DUP3 DUP1 SLOAD PUSH2 0x1278 SWAP1 PUSH2 0x4367 JUMP JUMPDEST DUP1 ISZERO PUSH2 0x12C3 JUMPI DUP1 PUSH1 0x1F LT PUSH2 0x129A JUMPI PUSH2 0x100 DUP1 DUP4 SLOAD DIV MUL DUP4 MSTORE SWAP2 PUSH1 0x20 ADD SWAP2 PUSH2 0x12C3 JUMP JUMPDEST DUP3 ADD SWAP2 SWAP1 PUSH0 MSTORE PUSH1 0x20 PUSH0 KECCAK256 SWAP1 JUMPDEST DUP2 SLOAD DUP2 MSTORE SWAP1 PUSH1 0x1 ADD SWAP1 PUSH1 0x20 ADD DUP1 DUP4 GT PUSH2 0x12A6 JUMPI DUP3 SWAP1 SUB PUSH1 0x1F AND DUP3 ADD SWAP2 JUMPDEST POP POP POP POP POP DUP2 MSTORE PUSH1 0x20 ADD PUSH1 0x2 DUP3 ADD SLOAD DUP2 MSTORE PUSH1 0x20 ADD PUSH1 0x3 DUP3 ADD SLOAD DUP2 MSTORE POP POP DUP2 MSTORE PUSH1 0x20 ADD PUSH1 0x7 DUP3 ADD PUSH0 SWAP1 SLOAD SWAP1 PUSH2 0x100 EXP SWAP1 DIV PUSH20 0xFFFFFFFFFFFFFFFFFFFFFFFFFFFFFFFFFFFFFFFF AND PUSH20 0xFFFFFFFFFFFFFFFFFFFFFFFFFFFFFFFFFFFFFFFF AND PUSH20 0xFFFFFFFFFFFFFFFFFFFFFFFFFFFFFFFFFFFFFFFF AND DUP2 MSTORE PUSH1 0x20 ADD PUSH1 0x8 DUP3 ADD SLOAD DUP2 MSTORE PUSH1 0x20 ADD PUSH1 0x9 DUP3 ADD PUSH0 SWAP1 SLOAD SWAP1 PUSH2 0x100 EXP SWAP1 DIV PUSH1 0xFF AND ISZERO ISZERO ISZERO ISZERO DUP2 MSTORE PUSH1 0x20 ADD PUSH1 0xA DUP3 ADD SLOAD DUP2 MSTORE PUSH1 0x20 ADD PUSH1 0xB DUP3 ADD SLOAD DUP2 MSTORE POP POP SWAP1 POP DUP6 DUP2 PUSH0 ADD MLOAD EQ DUP2 PUSH1 0xC0 ADD MLOAD DUP3 PUSH1 0x80 ADD MLOAD DUP4 PUSH0 ADD MLOAD SWAP5 POP SWAP5 POP SWAP5 POP SWAP5 POP POP SWAP2 SWAP4 POP SWAP2 SWAP4 JUMP JUMPDEST PUSH0 DUP1 PUSH0 DUP1 PUSH0 DUP1 PUSH0 PUSH1 0x4 PUSH0 DUP10 DUP2 MSTORE PUSH1 0x20 ADD SWAP1 DUP2 MSTORE PUSH1 0x20 ADD PUSH0 KECCAK256 PUSH1 0x40 MLOAD DUP1 PUSH2 0x120 ADD PUSH1 0x40 MSTORE SWAP1 DUP2 PUSH0 DUP3 ADD SLOAD DUP2 MSTORE PUSH1 0x20 ADD PUSH1 0x1 DUP3 ADD DUP1 SLOAD PUSH2 0x13D4 SWAP1 PUSH2 0x4367 JUMP JUMPDEST DUP1 PUSH1 0x1F ADD PUSH1 0x20 DUP1 SWAP2 DIV MUL PUSH1 0x20 ADD PUSH1 0x40 MLOAD SWAP1 DUP2 ADD PUSH1 0x40 MSTORE DUP1 SWAP3 SWAP2 SWAP1 DUP2 DUP2 MSTORE PUSH1 0x20 ADD DUP3 DUP1 SLOAD PUSH2 0x1400 SWAP1 PUSH2 0x4367 JUMP JUMPDEST DUP1 ISZERO PUSH2 0x144B JUMPI DUP1 PUSH1 0x1F LT PUSH2 0x1422 JUMPI PUSH2 0x100 DUP1 DUP4 SLOAD DIV MUL DUP4 MSTORE SWAP2 PUSH1 0x20 ADD SWAP2 PUSH2 0x144B JUMP JUMPDEST DUP3 ADD SWAP2 SWAP1 PUSH0 MSTORE PUSH1 0x20 PUSH0 KECCAK256 SWAP1 JUMPDEST DUP2 SLOAD DUP2 MSTORE SWAP1 PUSH1 0x1 ADD SWAP1 PUSH1 0x20 ADD DUP1 DUP4 GT PUSH2 0x142E JUMPI DUP3 SWAP1 SUB PUSH1 0x1F AND DUP3 ADD SWAP2 JUMPDEST POP POP POP POP POP DUP2 MSTORE PUSH1 0x20 ADD PUSH1 0x2 DUP3 ADD DUP1 SLOAD PUSH2 0x1464 SWAP1 PUSH2 0x4367 JUMP JUMPDEST DUP1 PUSH1 0x1F ADD PUSH1 0x20 DUP1 SWAP2 DIV MUL PUSH1 0x20 ADD PUSH1 0x40 MLOAD SWAP1 DUP2 ADD PUSH1 0x40 MSTORE DUP1 SWAP3 SWAP2 SWAP1 DUP2 DUP2 MSTORE PUSH1 0x20 ADD DUP3 DUP1 SLOAD PUSH2 0x1490 SWAP1 PUSH2 0x4367 JUMP JUMPDEST DUP1 ISZERO PUSH2 0x14DB JUMPI DUP1 PUSH1 0x1F LT PUSH2 0x14B2 JUMPI PUSH2 0x100 DUP1 DUP4 SLOAD DIV MUL DUP4 MSTORE SWAP2 PUSH1 0x20 ADD SWAP2 PUSH2 0x14DB JUMP JUMPDEST DUP3 ADD SWAP2 SWAP1 PUSH0 MSTORE PUSH1 0x20 PUSH0 KECCAK256 SWAP1 JUMPDEST DUP2 SLOAD DUP2 MSTORE SWAP1 PUSH1 0x1 ADD SWAP1 PUSH1 0x20 ADD DUP1 DUP4 GT PUSH2 0x14BE JUMPI DUP3 SWAP1 SUB PUSH1 0x1F AND DUP3 ADD SWAP2 JUMPDEST POP POP POP POP POP DUP2 MSTORE PUSH1 0x20 ADD PUSH1 0x3 DUP3 ADD PUSH1 0x40 MLOAD DUP1 PUSH1 0x80 ADD PUSH1 0x40 MSTORE SWAP1 DUP2 PUSH0 DUP3 ADD DUP1 SLOAD PUSH2 0x1503 SWAP1 PUSH2 0x4367 JUMP JUMPDEST DUP1 PUSH1 0x1F ADD PUSH1 0x20 DUP1 SWAP2 DIV MUL PUSH1 0x20 ADD PUSH1 0x40 MLOAD SWAP1 DUP2 ADD PUSH1 0x40 MSTORE DUP1 SWAP3 SWAP2 SWAP1 DUP2 DUP2 MSTORE PUSH1 0x20 ADD DUP3 DUP1 SLOAD PUSH2 0x152F SWAP1 PUSH2 0x4367 JUMP JUMPDEST DUP1 ISZERO PUSH2 0x157A JUMPI DUP1 PUSH1 0x1F LT PUSH2 0x1551 JUMPI PUSH2 0x100 DUP1 DUP4 SLOAD DIV MUL DUP4 MSTORE SWAP2 PUSH1 0x20 ADD SWAP2 PUSH2 0x157A JUMP JUMPDEST DUP3 ADD SWAP2 SWAP1 PUSH0 MSTORE PUSH1 0x20 PUSH0 KECCAK256 SWAP1 JUMPDEST DUP2 SLOAD DUP2 MSTORE SWAP1 PUSH1 0x1 ADD SWAP1 PUSH1 0x20 ADD DUP1 DUP4 GT PUSH2 0x155D JUMPI DUP3 SWAP1 SUB PUSH1 0x1F AND DUP3 ADD SWAP2 JUMPDEST POP POP POP POP POP DUP2 MSTORE PUSH1 0x20 ADD PUSH1 0x1 DUP3 ADD DUP1 SLOAD PUSH2 0x1593 SWAP1 PUSH2 0x4367 JUMP JUMPDEST DUP1 PUSH1 0x1F ADD PUSH1 0x20 DUP1 SWAP2 DIV MUL PUSH1 0x20 ADD PUSH1 0x40 MLOAD SWAP1 DUP2 ADD PUSH1 0x40 MSTORE DUP1 SWAP3 SWAP2 SWAP1 DUP2 DUP2 MSTORE PUSH1 0x20 ADD DUP3 DUP1 SLOAD PUSH2 0x15BF SWAP1 PUSH2 0x4367 JUMP JUMPDEST DUP1 ISZERO PUSH2 0x160A JUMPI DUP1 PUSH1 0x1F LT PUSH2 0x15E1 JUMPI PUSH2 0x100 DUP1 DUP4 SLOAD DIV MUL DUP4 MSTORE SWAP2 PUSH1 0x20 ADD SWAP2 PUSH2 0x160A JUMP JUMPDEST DUP3 ADD SWAP2 SWAP1 PUSH0 MSTORE PUSH1 0x20 PUSH0 KECCAK256 SWAP1 JUMPDEST DUP2 SLOAD DUP2 MSTORE SWAP1 PUSH1 0x1 ADD SWAP1 PUSH1 0x20 ADD DUP1 DUP4 GT PUSH2 0x15ED JUMPI DUP3 SWAP1 SUB PUSH1 0x1F AND DUP3 ADD SWAP2 JUMPDEST POP POP POP POP POP DUP2 MSTORE PUSH1 0x20 ADD PUSH1 0x2 DUP3 ADD SLOAD DUP2 MSTORE PUSH1 0x20 ADD PUSH1 0x3 DUP3 ADD SLOAD DUP2 MSTORE POP POP DUP2 MSTORE PUSH1 0x20 ADD PUSH1 0x7 DUP3 ADD PUSH0 SWAP1 SLOAD SWAP1 PUSH2 0x100 EXP SWAP1 DIV PUSH20 0xFFFFFFFFFFFFFFFFFFFFFFFFFFFFFFFFFFFFFFFF AND PUSH20 0xFFFFFFFFFFFFFFFFFFFFFFFFFFFFFFFFFFFFFFFF AND PUSH20 0xFFFFFFFFFFFFFFFFFFFFFFFFFFFFFFFFFFFFFFFF AND DUP2 MSTORE PUSH1 0x20 ADD PUSH1 0x8 DUP3 ADD SLOAD DUP2 MSTORE PUSH1 0x20 ADD PUSH1 0x9 DUP3 ADD PUSH0 SWAP1 SLOAD SWAP1 PUSH2 0x100 EXP SWAP1 DIV PUSH1 0xFF AND ISZERO ISZERO ISZERO ISZERO DUP2 MSTORE PUSH1 0x20 ADD PUSH1 0xA DUP3 ADD SLOAD DUP2 MSTORE PUSH1 0x20 ADD PUSH1 0xB DUP3 ADD SLOAD DUP2 MSTORE POP POP SWAP1 POP PUSH0 DUP2 PUSH0 ADD MLOAD LT ISZERO PUSH0 PUSH20 0xFFFFFFFFFFFFFFFFFFFFFFFFFFFFFFFFFFFFFFFF AND DUP3 PUSH1 0x80 ADD MLOAD PUSH20 0xFFFFFFFFFFFFFFFFFFFFFFFFFFFFFFFFFFFFFFFF AND EQ ISZERO DUP3 PUSH1 0xC0 ADD MLOAD DUP4 PUSH0 ADD MLOAD DUP5 PUSH1 0x80 ADD MLOAD DUP6 PUSH1 0xE0 ADD MLOAD SWAP7 POP SWAP7 POP SWAP7 POP SWAP7 POP SWAP7 POP SWAP7 POP POP SWAP2 SWAP4 SWAP6 POP SWAP2 SWAP4 SWAP6 JUMP JUMPDEST PUSH0 PUSH1 0x1 SWAP1 SLOAD SWAP1 PUSH2 0x100 EXP SWAP1 DIV PUSH20 0xFFFFFFFFFFFFFFFFFFFFFFFFFFFFFFFFFFFFFFFF AND PUSH20 0xFFFFFFFFFFFFFFFFFFFFFFFFFFFFFFFFFFFFFFFF AND PUSH4 0x91D14854 PUSH0 PUSH1 0x1 SWAP1 SLOAD SWAP1 PUSH2 0x100 EXP SWAP1 DIV PUSH20 0xFFFFFFFFFFFFFFFFFFFFFFFFFFFFFFFFFFFFFFFF AND PUSH20 0xFFFFFFFFFFFFFFFFFFFFFFFFFFFFFFFFFFFFFFFF AND PUSH4 0x75B238FC PUSH1 0x40 MLOAD DUP2 PUSH4 0xFFFFFFFF AND PUSH1 0xE0 SHL DUP2 MSTORE PUSH1 0x4 ADD PUSH1 0x20 PUSH1 0x40 MLOAD DUP1 DUP4 SUB DUP2 DUP7 GAS STATICCALL ISZERO DUP1 ISZERO PUSH2 0x17C5 JUMPI RETURNDATASIZE PUSH0 DUP1 RETURNDATACOPY RETURNDATASIZE PUSH0 REVERT JUMPDEST POP POP POP POP PUSH1 0x40 MLOAD RETURNDATASIZE PUSH1 0x1F NOT PUSH1 0x1F DUP3 ADD AND DUP3 ADD DUP1 PUSH1 0x40 MSTORE POP DUP2 ADD SWAP1 PUSH2 0x17E9 SWAP2 SWAP1 PUSH2 0x43CA JUMP JUMPDEST CALLER PUSH1 0x40 MLOAD DUP4 PUSH4 0xFFFFFFFF AND PUSH1 0xE0 SHL DUP2 MSTORE PUSH1 0x4 ADD PUSH2 0x1807 SWAP3 SWAP2 SWAP1 PUSH2 0x4404 JUMP JUMPDEST PUSH1 0x20 PUSH1 0x40 MLOAD DUP1 DUP4 SUB DUP2 DUP7 GAS STATICCALL ISZERO DUP1 ISZERO PUSH2 0x1822 JUMPI RETURNDATASIZE PUSH0 DUP1 RETURNDATACOPY RETURNDATASIZE PUSH0 REVERT JUMPDEST POP POP POP POP PUSH1 0x40 MLOAD RETURNDATASIZE PUSH1 0x1F NOT PUSH1 0x1F DUP3 ADD AND DUP3 ADD DUP1 PUSH1 0x40 MSTORE POP DUP2 ADD SWAP1 PUSH2 0x1846 SWAP2 SWAP1 PUSH2 0x4455 JUMP JUMPDEST PUSH2 0x1885 JUMPI PUSH1 0x40 MLOAD PUSH32 0x8C379A000000000000000000000000000000000000000000000000000000000 DUP2 MSTORE PUSH1 0x4 ADD PUSH2 0x187C SWAP1 PUSH2 0x44CA JUMP JUMPDEST PUSH1 0x40 MLOAD DUP1 SWAP2 SUB SWAP1 REVERT JUMPDEST PUSH2 0x188D PUSH2 0x39D0 JUMP JUMPDEST JUMP JUMPDEST PUSH1 0x7 PUSH1 0x20 MSTORE DUP2 PUSH0 MSTORE PUSH1 0x40 PUSH0 KECCAK256 DUP2 DUP2 SLOAD DUP2 LT PUSH2 0x18A8 JUMPI PUSH0 DUP1 REVERT JUMPDEST SWAP1 PUSH0 MSTORE PUSH1 0x20 PUSH0 KECCAK256 ADD PUSH0 SWAP2 POP SWAP2 POP POP SLOAD DUP2 JUMP JUMPDEST PUSH1 0x1 PUSH0 SWAP1 SLOAD SWAP1 PUSH2 0x100 EXP SWAP1 DIV PUSH20 0xFFFFFFFFFFFFFFFFFFFFFFFFFFFFFFFFFFFFFFFF AND DUP2 JUMP JUMPDEST PUSH2 0x18E7 PUSH2 0x38B5 JUMP JUMPDEST PUSH0 PUSH1 0x1 SWAP1 SLOAD SWAP1 PUSH2 0x100 EXP SWAP1 DIV PUSH20 0xFFFFFFFFFFFFFFFFFFFFFFFFFFFFFFFFFFFFFFFF AND PUSH20 0xFFFFFFFFFFFFFFFFFFFFFFFFFFFFFFFFFFFFFFFF AND PUSH4 0x91D14854 PUSH0 PUSH1 0x1 SWAP1 SLOAD SWAP1 PUSH2 0x100 EXP SWAP1 DIV PUSH20 0xFFFFFFFFFFFFFFFFFFFFFFFFFFFFFFFFFFFFFFFF AND PUSH20 0xFFFFFFFFFFFFFFFFFFFFFFFFFFFFFFFFFFFFFFFF AND PUSH4 0x98E4ABB5 PUSH1 0x40 MLOAD DUP2 PUSH4 0xFFFFFFFF AND PUSH1 0xE0 SHL DUP2 MSTORE PUSH1 0x4 ADD PUSH1 0x20 PUSH1 0x40 MLOAD DUP1 DUP4 SUB DUP2 DUP7 GAS STATICCALL ISZERO DUP1 ISZERO PUSH2 0x198E JUMPI RETURNDATASIZE PUSH0 DUP1 RETURNDATACOPY RETURNDATASIZE PUSH0 REVERT JUMPDEST POP POP POP POP PUSH1 0x40 MLOAD RETURNDATASIZE PUSH1 0x1F NOT PUSH1 0x1F DUP3 ADD AND DUP3 ADD DUP1 PUSH1 0x40 MSTORE POP DUP2 ADD SWAP1 PUSH2 0x19B2 SWAP2 SWAP1 PUSH2 0x43CA JUMP JUMPDEST CALLER PUSH1 0x40 MLOAD DUP4 PUSH4 0xFFFFFFFF AND PUSH1 0xE0 SHL DUP2 MSTORE PUSH1 0x4 ADD PUSH2 0x19D0 SWAP3 SWAP2 SWAP1 PUSH2 0x4404 JUMP JUMPDEST PUSH1 0x20 PUSH1 0x40 MLOAD DUP1 DUP4 SUB DUP2 DUP7 GAS STATICCALL ISZERO DUP1 ISZERO PUSH2 0x19EB JUMPI RETURNDATASIZE PUSH0 DUP1 RETURNDATACOPY RETURNDATASIZE PUSH0 REVERT JUMPDEST POP POP POP POP PUSH1 0x40 MLOAD RETURNDATASIZE PUSH1 0x1F NOT PUSH1 0x1F DUP3 ADD AND DUP3 ADD DUP1 PUSH1 0x40 MSTORE POP DUP2 ADD SWAP1 PUSH2 0x1A0F SWAP2 SWAP1 PUSH2 0x4455 JUMP JUMPDEST PUSH2 0x1A4E JUMPI PUSH1 0x40 MLOAD PUSH32 0x8C379A000000000000000000000000000000000000000000000000000000000 DUP2 MSTORE PUSH1 0x4 ADD PUSH2 0x1A45 SWAP1 PUSH2 0x4740 JUMP JUMPDEST PUSH1 0x40 MLOAD DUP1 SWAP2 SUB SWAP1 REVERT JUMPDEST PUSH1 0x4 PUSH0 DUP4 DUP2 MSTORE PUSH1 0x20 ADD SWAP1 DUP2 MSTORE PUSH1 0x20 ADD PUSH0 KECCAK256 PUSH1 0x9 ADD PUSH0 SWAP1 SLOAD SWAP1 PUSH2 0x100 EXP SWAP1 DIV PUSH1 0xFF AND PUSH2 0x1AAE JUMPI PUSH1 0x40 MLOAD PUSH32 0x8C379A000000000000000000000000000000000000000000000000000000000 DUP2 MSTORE PUSH1 0x4 ADD PUSH2 0x1AA5 SWAP1 PUSH2 0x466A JUMP JUMPDEST PUSH1 0x40 MLOAD DUP1 SWAP2 SUB SWAP1 REVERT JUMPDEST PUSH0 PUSH1 0x1 PUSH0 SWAP1 SLOAD SWAP1 PUSH2 0x100 EXP SWAP1 DIV PUSH20 0xFFFFFFFFFFFFFFFFFFFFFFFFFFFFFFFFFFFFFFFF AND PUSH20 0xFFFFFFFFFFFFFFFFFFFFFFFFFFFFFFFFFFFFFFFF AND PUSH4 0xFF91E489 DUP4 PUSH1 0x40 MLOAD DUP3 PUSH4 0xFFFFFFFF AND PUSH1 0xE0 SHL DUP2 MSTORE PUSH1 0x4 ADD PUSH2 0x1B09 SWAP2 SWAP1 PUSH2 0x3E67 JUMP JUMPDEST PUSH0 PUSH1 0x40 MLOAD DUP1 DUP4 SUB DUP2 DUP7 GAS STATICCALL ISZERO DUP1 ISZERO PUSH2 0x1B23 JUMPI RETURNDATASIZE PUSH0 DUP1 RETURNDATACOPY RETURNDATASIZE PUSH0 REVERT JUMPDEST POP POP POP POP PUSH1 0x40 MLOAD RETURNDATASIZE PUSH0 DUP3 RETURNDATACOPY RETURNDATASIZE PUSH1 0x1F NOT PUSH1 0x1F DUP3 ADD AND DUP3 ADD DUP1 PUSH1 0x40 MSTORE POP DUP2 ADD SWAP1 PUSH2 0x1B4B SWAP2 SWAP1 PUSH2 0x4AC2 JUMP JUMPDEST SWAP1 POP CALLER PUSH20 0xFFFFFFFFFFFFFFFFFFFFFFFFFFFFFFFFFFFFFFFF AND DUP2 PUSH1 0x20 ADD MLOAD PUSH20 0xFFFFFFFFFFFFFFFFFFFFFFFFFFFFFFFFFFFFFFFF AND EQ PUSH2 0x1BBF JUMPI PUSH1 0x40 MLOAD PUSH32 0x8C379A000000000000000000000000000000000000000000000000000000000 DUP2 MSTORE PUSH1 0x4 ADD PUSH2 0x1BB6 SWAP1 PUSH2 0x4B53 JUMP JUMPDEST PUSH1 0x40 MLOAD DUP1 SWAP2 SUB SWAP1 REVERT JUMPDEST DUP1 PUSH1 0xA0 ADD MLOAD ISZERO PUSH2 0x1C04 JUMPI PUSH1 0x40 MLOAD PUSH32 0x8C379A000000000000000000000000000000000000000000000000000000000 DUP2 MSTORE PUSH1 0x4 ADD PUSH2 0x1BFB SWAP1 PUSH2 0x4BBB JUMP JUMPDEST PUSH1 0x40 MLOAD DUP1 SWAP2 SUB SWAP1 REVERT JUMPDEST PUSH0 PUSH1 0x3 SLOAD PUSH1 0x4 PUSH0 DUP7 DUP2 MSTORE PUSH1 0x20 ADD SWAP1 DUP2 MSTORE PUSH1 0x20 ADD PUSH0 KECCAK256 PUSH1 0x8 ADD SLOAD DUP4 PUSH1 0x80 ADD MLOAD PUSH2 0x1C2C SWAP2 SWAP1 PUSH2 0x4C06 JUMP JUMPDEST PUSH2 0x1C36 SWAP2 SWAP1 PUSH2 0x4C06 JUMP JUMPDEST SWAP1 POP PUSH1 0x64 DUP2 GT ISZERO PUSH2 0x1C7C JUMPI PUSH1 0x40 MLOAD PUSH32 0x8C379A000000000000000000000000000000000000000000000000000000000 DUP2 MSTORE PUSH1 0x4 ADD PUSH2 0x1C73 SWAP1 PUSH2 0x4C83 JUMP JUMPDEST PUSH1 0x40 MLOAD DUP1 SWAP2 SUB SWAP1 REVERT JUMPDEST PUSH1 0x40 MLOAD DUP1 PUSH1 0xA0 ADD PUSH1 0x40 MSTORE DUP1 DUP5 DUP2 MSTORE PUSH1 0x20 ADD CALLER PUSH20 0xFFFFFFFFFFFFFFFFFFFFFFFFFFFFFFFFFFFFFFFF AND DUP2 MSTORE PUSH1 0x20 ADD DUP4 PUSH1 0x80 ADD MLOAD DUP2 MSTORE PUSH1 0x20 ADD PUSH1 0x1 ISZERO ISZERO DUP2 MSTORE PUSH1 0x20 ADD PUSH0 ISZERO ISZERO DUP2 MSTORE POP PUSH1 0x6 PUSH0 DUP7 DUP2 MSTORE PUSH1 0x20 ADD SWAP1 DUP2 MSTORE PUSH1 0x20 ADD PUSH0 KECCAK256 PUSH0 DUP6 DUP2 MSTORE PUSH1 0x20 ADD SWAP1 DUP2 MSTORE PUSH1 0x20 ADD PUSH0 KECCAK256 PUSH0 DUP3 ADD MLOAD DUP2 PUSH0 ADD SSTORE PUSH1 0x20 DUP3 ADD MLOAD DUP2 PUSH1 0x1 ADD PUSH0 PUSH2 0x100 EXP DUP2 SLOAD DUP2 PUSH20 0xFFFFFFFFFFFFFFFFFFFFFFFFFFFFFFFFFFFFFFFF MUL NOT AND SWAP1 DUP4 PUSH20 0xFFFFFFFFFFFFFFFFFFFFFFFFFFFFFFFFFFFFFFFF AND MUL OR SWAP1 SSTORE POP PUSH1 0x40 DUP3 ADD MLOAD DUP2 PUSH1 0x2 ADD SSTORE PUSH1 0x60 DUP3 ADD MLOAD DUP2 PUSH1 0x3 ADD PUSH0 PUSH2 0x100 EXP DUP2 SLOAD DUP2 PUSH1 0xFF MUL NOT AND SWAP1 DUP4 ISZERO ISZERO MUL OR SWAP1 SSTORE POP PUSH1 0x80 DUP3 ADD MLOAD DUP2 PUSH1 0x3 ADD PUSH1 0x1 PUSH2 0x100 EXP DUP2 SLOAD DUP2 PUSH1 0xFF MUL NOT AND SWAP1 DUP4 ISZERO ISZERO MUL OR SWAP1 SSTORE POP SWAP1 POP POP CALLER PUSH20 0xFFFFFFFFFFFFFFFFFFFFFFFFFFFFFFFFFFFFFFFF AND DUP4 DUP6 PUSH32 0x83FD119663C1D37D19F3FD2CFDD3B77CF9A048037DC45CEC86D017FA4ED6FBA8 PUSH1 0x40 MLOAD PUSH1 0x40 MLOAD DUP1 SWAP2 SUB SWAP1 LOG4 POP POP POP POP JUMP JUMPDEST PUSH0 DUP1 PUSH20 0xFFFFFFFFFFFFFFFFFFFFFFFFFFFFFFFFFFFFFFFF AND PUSH1 0x4 PUSH0 DUP5 DUP2 MSTORE PUSH1 0x20 ADD SWAP1 DUP2 MSTORE PUSH1 0x20 ADD PUSH0 KECCAK256 PUSH1 0x7 ADD PUSH0 SWAP1 SLOAD SWAP1 PUSH2 0x100 EXP SWAP1 DIV PUSH20 0xFFFFFFFFFFFFFFFFFFFFFFFFFFFFFFFFFFFFFFFF AND PUSH20 0xFFFFFFFFFFFFFFFFFFFFFFFFFFFFFFFFFFFFFFFF AND EQ ISZERO SWAP1 POP SWAP2 SWAP1 POP JUMP JUMPDEST PUSH1 0x60 PUSH1 0x4 PUSH0 DUP4 DUP2 MSTORE PUSH1 0x20 ADD SWAP1 DUP2 MSTORE PUSH1 0x20 ADD PUSH0 KECCAK256 PUSH1 0x9 ADD PUSH0 SWAP1 SLOAD SWAP1 PUSH2 0x100 EXP SWAP1 DIV PUSH1 0xFF AND PUSH2 0x1E94 JUMPI PUSH1 0x40 MLOAD PUSH32 0x8C379A000000000000000000000000000000000000000000000000000000000 DUP2 MSTORE PUSH1 0x4 ADD PUSH2 0x1E8B SWAP1 PUSH2 0x466A JUMP JUMPDEST PUSH1 0x40 MLOAD DUP1 SWAP2 SUB SWAP1 REVERT JUMPDEST PUSH1 0x7 PUSH0 DUP4 DUP2 MSTORE PUSH1 0x20 ADD SWAP1 DUP2 MSTORE PUSH1 0x20 ADD PUSH0 KECCAK256 DUP1 SLOAD DUP1 PUSH1 0x20 MUL PUSH1 0x20 ADD PUSH1 0x40 MLOAD SWAP1 DUP2 ADD PUSH1 0x40 MSTORE DUP1 SWAP3 SWAP2 SWAP1 DUP2 DUP2 MSTORE PUSH1 0x20 ADD DUP3 DUP1 SLOAD DUP1 ISZERO PUSH2 0x1EED JUMPI PUSH1 0x20 MUL DUP3 ADD SWAP2 SWAP1 PUSH0 MSTORE PUSH1 0x20 PUSH0 KECCAK256 SWAP1 JUMPDEST DUP2 SLOAD DUP2 MSTORE PUSH1 0x20 ADD SWAP1 PUSH1 0x1 ADD SWAP1 DUP1 DUP4 GT PUSH2 0x1ED9 JUMPI JUMPDEST POP POP POP POP POP SWAP1 POP SWAP2 SWAP1 POP JUMP JUMPDEST PUSH0 PUSH1 0x1 SWAP1 SLOAD SWAP1 PUSH2 0x100 EXP SWAP1 DIV PUSH20 0xFFFFFFFFFFFFFFFFFFFFFFFFFFFFFFFFFFFFFFFF AND PUSH20 0xFFFFFFFFFFFFFFFFFFFFFFFFFFFFFFFFFFFFFFFF AND PUSH4 0x91D14854 PUSH0 PUSH1 0x1 SWAP1 SLOAD SWAP1 PUSH2 0x100 EXP SWAP1 DIV PUSH20 0xFFFFFFFFFFFFFFFFFFFFFFFFFFFFFFFFFFFFFFFF AND PUSH20 0xFFFFFFFFFFFFFFFFFFFFFFFFFFFFFFFFFFFFFFFF AND PUSH4 0x75B238FC PUSH1 0x40 MLOAD DUP2 PUSH4 0xFFFFFFFF AND PUSH1 0xE0 SHL DUP2 MSTORE PUSH1 0x4 ADD PUSH1 0x20 PUSH1 0x40 MLOAD DUP1 DUP4 SUB DUP2 DUP7 GAS STATICCALL ISZERO DUP1 ISZERO PUSH2 0x1FA0 JUMPI RETURNDATASIZE PUSH0 DUP1 RETURNDATACOPY RETURNDATASIZE PUSH0 REVERT JUMPDEST POP POP POP POP PUSH1 0x40 MLOAD RETURNDATASIZE PUSH1 0x1F NOT PUSH1 0x1F DUP3 ADD AND DUP3 ADD DUP1 PUSH1 0x40 MSTORE POP DUP2 ADD SWAP1 PUSH2 0x1FC4 SWAP2 SWAP1 PUSH2 0x43CA JUMP JUMPDEST CALLER PUSH1 0x40 MLOAD DUP4 PUSH4 0xFFFFFFFF AND PUSH1 0xE0 SHL DUP2 MSTORE PUSH1 0x4 ADD PUSH2 0x1FE2 SWAP3 SWAP2 SWAP1 PUSH2 0x4404 JUMP JUMPDEST PUSH1 0x20 PUSH1 0x40 MLOAD DUP1 DUP4 SUB DUP2 DUP7 GAS STATICCALL ISZERO DUP1 ISZERO PUSH2 0x1FFD JUMPI RETURNDATASIZE PUSH0 DUP1 RETURNDATACOPY RETURNDATASIZE PUSH0 REVERT JUMPDEST POP POP POP POP PUSH1 0x40 MLOAD RETURNDATASIZE PUSH1 0x1F NOT PUSH1 0x1F DUP3 ADD AND DUP3 ADD DUP1 PUSH1 0x40 MSTORE POP DUP2 ADD SWAP1 PUSH2 0x2021 SWAP2 SWAP1 PUSH2 0x4455 JUMP JUMPDEST PUSH2 0x2060 JUMPI PUSH1 0x40 MLOAD PUSH32 0x8C379A000000000000000000000000000000000000000000000000000000000 DUP2 MSTORE PUSH1 0x4 ADD PUSH2 0x2057 SWAP1 PUSH2 0x44CA JUMP JUMPDEST PUSH1 0x40 MLOAD DUP1 SWAP2 SUB SWAP1 REVERT JUMPDEST PUSH2 0x2068 PUSH2 0x38B5 JUMP JUMPDEST PUSH0 PUSH1 0x5 PUSH0 DUP4 DUP2 MSTORE PUSH1 0x20 ADD SWAP1 DUP2 MSTORE PUSH1 0x20 ADD PUSH0 KECCAK256 SWAP1 POP DUP1 PUSH1 0x8 ADD PUSH0 SWAP1 SLOAD SWAP1 PUSH2 0x100 EXP SWAP1 DIV PUSH1 0xFF AND PUSH2 0x20CC JUMPI PUSH1 0x40 MLOAD PUSH32 0x8C379A000000000000000000000000000000000000000000000000000000000 DUP2 MSTORE PUSH1 0x4 ADD PUSH2 0x20C3 SWAP1 PUSH2 0x4602 JUMP JUMPDEST PUSH1 0x40 MLOAD DUP1 SWAP2 SUB SWAP1 REVERT JUMPDEST PUSH0 DUP2 PUSH1 0x8 ADD PUSH0 PUSH2 0x100 EXP DUP2 SLOAD DUP2 PUSH1 0xFF MUL NOT AND SWAP1 DUP4 ISZERO ISZERO MUL OR SWAP1 SSTORE POP PUSH0 DUP2 PUSH1 0x8 ADD PUSH1 0x1 PUSH2 0x100 EXP DUP2 SLOAD DUP2 PUSH1 0xFF MUL NOT AND SWAP1 DUP4 ISZERO ISZERO MUL OR SWAP1 SSTORE POP DUP2 PUSH32 0x2066478E278F4D976DF7F644BAD66CBE88CE3249C27A53C746FC078510100C3 PUSH1 0x40 MLOAD PUSH1 0x40 MLOAD DUP1 SWAP2 SUB SWAP1 LOG2 POP POP JUMP JUMPDEST PUSH2 0x213C PUSH2 0x38B5 JUMP JUMPDEST PUSH0 PUSH1 0x1 SWAP1 SLOAD SWAP1 PUSH2 0x100 EXP SWAP1 DIV PUSH20 0xFFFFFFFFFFFFFFFFFFFFFFFFFFFFFFFFFFFFFFFF AND PUSH20 0xFFFFFFFFFFFFFFFFFFFFFFFFFFFFFFFFFFFFFFFF AND PUSH4 0x91D14854 PUSH0 PUSH1 0x1 SWAP1 SLOAD SWAP1 PUSH2 0x100 EXP SWAP1 DIV PUSH20 0xFFFFFFFFFFFFFFFFFFFFFFFFFFFFFFFFFFFFFFFF AND PUSH20 0xFFFFFFFFFFFFFFFFFFFFFFFFFFFFFFFFFFFFFFFF AND PUSH4 0x78988EBD PUSH1 0x40 MLOAD DUP2 PUSH4 0xFFFFFFFF AND PUSH1 0xE0 SHL DUP2 MSTORE PUSH1 0x4 ADD PUSH1 0x20 PUSH1 0x40 MLOAD DUP1 DUP4 SUB DUP2 DUP7 GAS STATICCALL ISZERO DUP1 ISZERO PUSH2 0x21E3 JUMPI RETURNDATASIZE PUSH0 DUP1 RETURNDATACOPY RETURNDATASIZE PUSH0 REVERT JUMPDEST POP POP POP POP PUSH1 0x40 MLOAD RETURNDATASIZE PUSH1 0x1F NOT PUSH1 0x1F DUP3 ADD AND DUP3 ADD DUP1 PUSH1 0x40 MSTORE POP DUP2 ADD SWAP1 PUSH2 0x2207 SWAP2 SWAP1 PUSH2 0x43CA JUMP JUMPDEST CALLER PUSH1 0x40 MLOAD DUP4 PUSH4 0xFFFFFFFF AND PUSH1 0xE0 SHL DUP2 MSTORE PUSH1 0x4 ADD PUSH2 0x2225 SWAP3 SWAP2 SWAP1 PUSH2 0x4404 JUMP JUMPDEST PUSH1 0x20 PUSH1 0x40 MLOAD DUP1 DUP4 SUB DUP2 DUP7 GAS STATICCALL ISZERO DUP1 ISZERO PUSH2 0x2240 JUMPI RETURNDATASIZE PUSH0 DUP1 RETURNDATACOPY RETURNDATASIZE PUSH0 REVERT JUMPDEST POP POP POP POP PUSH1 0x40 MLOAD RETURNDATASIZE PUSH1 0x1F NOT PUSH1 0x1F DUP3 ADD AND DUP3 ADD DUP1 PUSH1 0x40 MSTORE POP DUP2 ADD SWAP1 PUSH2 0x2264 SWAP2 SWAP1 PUSH2 0x4455 JUMP JUMPDEST PUSH2 0x22A3 JUMPI PUSH1 0x40 MLOAD PUSH32 0x8C379A000000000000000000000000000000000000000000000000000000000 DUP2 MSTORE PUSH1 0x4 ADD PUSH2 0x229A SWAP1 PUSH2 0x4CEB JUMP JUMPDEST PUSH1 0x40 MLOAD DUP1 SWAP2 SUB SWAP1 REVERT JUMPDEST PUSH0 DUP2 DUP1 PUSH0 ADD SWAP1 PUSH2 0x22B3 SWAP2 SWAP1 PUSH2 0x4D15 JUMP JUMPDEST SWAP1 POP GT PUSH2 0x22F5 JUMPI PUSH1 0x40 MLOAD PUSH32 0x8C379A000000000000000000000000000000000000000000000000000000000 DUP2 MSTORE PUSH1 0x4 ADD PUSH2 0x22EC SWAP1 PUSH2 0x4DC1 JUMP JUMPDEST PUSH1 0x40 MLOAD DUP1 SWAP2 SUB SWAP1 REVERT JUMPDEST PUSH1 0x32 DUP2 PUSH1 0xC0 ADD CALLDATALOAD GT ISZERO PUSH2 0x233D JUMPI PUSH1 0x40 MLOAD PUSH32 0x8C379A000000000000000000000000000000000000000000000000000000000 DUP2 MSTORE PUSH1 0x4 ADD PUSH2 0x2334 SWAP1 PUSH2 0x4E29 JUMP JUMPDEST PUSH1 0x40 MLOAD DUP1 SWAP2 SUB SWAP1 REVERT JUMPDEST PUSH0 PUSH2 0x2348 PUSH1 0x2 PUSH2 0x3A31 JUMP JUMPDEST SWAP1 POP PUSH2 0x2354 PUSH1 0x2 PUSH2 0x3A3D JUMP JUMPDEST PUSH0 PUSH1 0x40 MLOAD DUP1 PUSH1 0x80 ADD PUSH1 0x40 MSTORE DUP1 DUP5 DUP1 PUSH1 0x40 ADD SWAP1 PUSH2 0x2370 SWAP2 SWAP1 PUSH2 0x4D15 JUMP JUMPDEST DUP1 DUP1 PUSH1 0x1F ADD PUSH1 0x20 DUP1 SWAP2 DIV MUL PUSH1 0x20 ADD PUSH1 0x40 MLOAD SWAP1 DUP2 ADD PUSH1 0x40 MSTORE DUP1 SWAP4 SWAP3 SWAP2 SWAP1 DUP2 DUP2 MSTORE PUSH1 0x20 ADD DUP4 DUP4 DUP1 DUP3 DUP5 CALLDATACOPY PUSH0 DUP2 DUP5 ADD MSTORE PUSH1 0x1F NOT PUSH1 0x1F DUP3 ADD AND SWAP1 POP DUP1 DUP4 ADD SWAP3 POP POP POP POP POP POP POP DUP2 MSTORE PUSH1 0x20 ADD DUP5 DUP1 PUSH1 0x60 ADD SWAP1 PUSH2 0x23C7 SWAP2 SWAP1 PUSH2 0x4D15 JUMP JUMPDEST DUP1 DUP1 PUSH1 0x1F ADD PUSH1 0x20 DUP1 SWAP2 DIV MUL PUSH1 0x20 ADD PUSH1 0x40 MLOAD SWAP1 DUP2 ADD PUSH1 0x40 MSTORE DUP1 SWAP4 SWAP3 SWAP2 SWAP1 DUP2 DUP2 MSTORE PUSH1 0x20 ADD DUP4 DUP4 DUP1 DUP3 DUP5 CALLDATACOPY PUSH0 DUP2 DUP5 ADD MSTORE PUSH1 0x1F NOT PUSH1 0x1F DUP3 ADD AND SWAP1 POP DUP1 DUP4 ADD SWAP3 POP POP POP POP POP POP POP DUP2 MSTORE PUSH1 0x20 ADD DUP5 PUSH1 0x80 ADD CALLDATALOAD DUP2 MSTORE PUSH1 0x20 ADD DUP5 PUSH1 0xA0 ADD CALLDATALOAD DUP2 MSTORE POP SWAP1 POP PUSH1 0x40 MLOAD DUP1 PUSH1 0xE0 ADD PUSH1 0x40 MSTORE DUP1 CALLER PUSH20 0xFFFFFFFFFFFFFFFFFFFFFFFFFFFFFFFFFFFFFFFF AND DUP2 MSTORE PUSH1 0x20 ADD DUP5 DUP1 PUSH0 ADD SWAP1 PUSH2 0x2458 SWAP2 SWAP1 PUSH2 0x4D15 JUMP JUMPDEST DUP1 DUP1 PUSH1 0x1F ADD PUSH1 0x20 DUP1 SWAP2 DIV MUL PUSH1 0x20 ADD PUSH1 0x40 MLOAD SWAP1 DUP2 ADD PUSH1 0x40 MSTORE DUP1 SWAP4 SWAP3 SWAP2 SWAP1 DUP2 DUP2 MSTORE PUSH1 0x20 ADD DUP4 DUP4 DUP1 DUP3 DUP5 CALLDATACOPY PUSH0 DUP2 DUP5 ADD MSTORE PUSH1 0x1F NOT PUSH1 0x1F DUP3 ADD AND SWAP1 POP DUP1 DUP4 ADD SWAP3 POP POP POP POP POP POP POP DUP2 MSTORE PUSH1 0x20 ADD DUP5 DUP1 PUSH1 0x20 ADD SWAP1 PUSH2 0x24AF SWAP2 SWAP1 PUSH2 0x4D15 JUMP JUMPDEST DUP1 DUP1 PUSH1 0x1F ADD PUSH1 0x20 DUP1 SWAP2 DIV MUL PUSH1 0x20 ADD PUSH1 0x40 MLOAD SWAP1 DUP2 ADD PUSH1 0x40 MSTORE DUP1 SWAP4 SWAP3 SWAP2 SWAP1 DUP2 DUP2 MSTORE PUSH1 0x20 ADD DUP4 DUP4 DUP1 DUP3 DUP5 CALLDATACOPY PUSH0 DUP2 DUP5 ADD MSTORE PUSH1 0x1F NOT PUSH1 0x1F DUP3 ADD AND SWAP1 POP DUP1 DUP4 ADD SWAP3 POP POP POP POP POP POP POP DUP2 MSTORE PUSH1 0x20 ADD DUP3 DUP2 MSTORE PUSH1 0x20 ADD DUP5 PUSH1 0xC0 ADD CALLDATALOAD DUP2 MSTORE PUSH1 0x20 ADD PUSH1 0x1 ISZERO ISZERO DUP2 MSTORE PUSH1 0x20 ADD PUSH0 ISZERO ISZERO DUP2 MSTORE POP PUSH1 0x5 PUSH0 DUP5 DUP2 MSTORE PUSH1 0x20 ADD SWAP1 DUP2 MSTORE PUSH1 0x20 ADD PUSH0 KECCAK256 PUSH0 DUP3 ADD MLOAD DUP2 PUSH0 ADD PUSH0 PUSH2 0x100 EXP DUP2 SLOAD DUP2 PUSH20 0xFFFFFFFFFFFFFFFFFFFFFFFFFFFFFFFFFFFFFFFF MUL NOT AND SWAP1 DUP4 PUSH20 0xFFFFFFFFFFFFFFFFFFFFFFFFFFFFFFFFFFFFFFFF AND MUL OR SWAP1 SSTORE POP PUSH1 0x20 DUP3 ADD MLOAD DUP2 PUSH1 0x1 ADD SWAP1 DUP2 PUSH2 0x257F SWAP2 SWAP1 PUSH2 0x4FDB JUMP JUMPDEST POP PUSH1 0x40 DUP3 ADD MLOAD DUP2 PUSH1 0x2 ADD SWAP1 DUP2 PUSH2 0x2595 SWAP2 SWAP1 PUSH2 0x4FDB JUMP JUMPDEST POP PUSH1 0x60 DUP3 ADD MLOAD DUP2 PUSH1 0x3 ADD PUSH0 DUP3 ADD MLOAD DUP2 PUSH0 ADD SWAP1 DUP2 PUSH2 0x25B2 SWAP2 SWAP1 PUSH2 0x4FDB JUMP JUMPDEST POP PUSH1 0x20 DUP3 ADD MLOAD DUP2 PUSH1 0x1 ADD SWAP1 DUP2 PUSH2 0x25C8 SWAP2 SWAP1 PUSH2 0x4FDB JUMP JUMPDEST POP PUSH1 0x40 DUP3 ADD MLOAD DUP2 PUSH1 0x2 ADD SSTORE PUSH1 0x60 DUP3 ADD MLOAD DUP2 PUSH1 0x3 ADD SSTORE POP POP PUSH1 0x80 DUP3 ADD MLOAD DUP2 PUSH1 0x7 ADD SSTORE PUSH1 0xA0 DUP3 ADD MLOAD DUP2 PUSH1 0x8 ADD PUSH0 PUSH2 0x100 EXP DUP2 SLOAD DUP2 PUSH1 0xFF MUL NOT AND SWAP1 DUP4 ISZERO ISZERO MUL OR SWAP1 SSTORE POP PUSH1 0xC0 DUP3 ADD MLOAD DUP2 PUSH1 0x8 ADD PUSH1 0x1 PUSH2 0x100 EXP DUP2 SLOAD DUP2 PUSH1 0xFF MUL NOT AND SWAP1 DUP4 ISZERO ISZERO MUL OR SWAP1 SSTORE POP SWAP1 POP POP CALLER PUSH20 0xFFFFFFFFFFFFFFFFFFFFFFFFFFFFFFFFFFFFFFFF AND DUP3 PUSH32 0x64C62480238FCBB55F3F9DB41207D81ADB09B6A08336161AA728E4D6D398FEE8 PUSH1 0x40 MLOAD PUSH1 0x40 MLOAD DUP1 SWAP2 SUB SWAP1 LOG3 POP POP POP JUMP JUMPDEST PUSH2 0x267C PUSH2 0x3AA1 JUMP JUMPDEST PUSH0 PUSH1 0x4 PUSH0 DUP5 DUP2 MSTORE PUSH1 0x20 ADD SWAP1 DUP2 MSTORE PUSH1 0x20 ADD PUSH0 KECCAK256 PUSH1 0x40 MLOAD DUP1 PUSH2 0x120 ADD PUSH1 0x40 MSTORE SWAP1 DUP2 PUSH0 DUP3 ADD SLOAD DUP2 MSTORE PUSH1 0x20 ADD PUSH1 0x1 DUP3 ADD DUP1 SLOAD PUSH2 0x26B3 SWAP1 PUSH2 0x4367 JUMP JUMPDEST DUP1 PUSH1 0x1F ADD PUSH1 0x20 DUP1 SWAP2 DIV MUL PUSH1 0x20 ADD PUSH1 0x40 MLOAD SWAP1 DUP2 ADD PUSH1 0x40 MSTORE DUP1 SWAP3 SWAP2 SWAP1 DUP2 DUP2 MSTORE PUSH1 0x20 ADD DUP3 DUP1 SLOAD PUSH2 0x26DF SWAP1 PUSH2 0x4367 JUMP JUMPDEST DUP1 ISZERO PUSH2 0x272A JUMPI DUP1 PUSH1 0x1F LT PUSH2 0x2701 JUMPI PUSH2 0x100 DUP1 DUP4 SLOAD DIV MUL DUP4 MSTORE SWAP2 PUSH1 0x20 ADD SWAP2 PUSH2 0x272A JUMP JUMPDEST DUP3 ADD SWAP2 SWAP1 PUSH0 MSTORE PUSH1 0x20 PUSH0 KECCAK256 SWAP1 JUMPDEST DUP2 SLOAD DUP2 MSTORE SWAP1 PUSH1 0x1 ADD SWAP1 PUSH1 0x20 ADD DUP1 DUP4 GT PUSH2 0x270D JUMPI DUP3 SWAP1 SUB PUSH1 0x1F AND DUP3 ADD SWAP2 JUMPDEST POP POP POP POP POP DUP2 MSTORE PUSH1 0x20 ADD PUSH1 0x2 DUP3 ADD DUP1 SLOAD PUSH2 0x2743 SWAP1 PUSH2 0x4367 JUMP JUMPDEST DUP1 PUSH1 0x1F ADD PUSH1 0x20 DUP1 SWAP2 DIV MUL PUSH1 0x20 ADD PUSH1 0x40 MLOAD SWAP1 DUP2 ADD PUSH1 0x40 MSTORE DUP1 SWAP3 SWAP2 SWAP1 DUP2 DUP2 MSTORE PUSH1 0x20 ADD DUP3 DUP1 SLOAD PUSH2 0x276F SWAP1 PUSH2 0x4367 JUMP JUMPDEST DUP1 ISZERO PUSH2 0x27BA JUMPI DUP1 PUSH1 0x1F LT PUSH2 0x2791 JUMPI PUSH2 0x100 DUP1 DUP4 SLOAD DIV MUL DUP4 MSTORE SWAP2 PUSH1 0x20 ADD SWAP2 PUSH2 0x27BA JUMP JUMPDEST DUP3 ADD SWAP2 SWAP1 PUSH0 MSTORE PUSH1 0x20 PUSH0 KECCAK256 SWAP1 JUMPDEST DUP2 SLOAD DUP2 MSTORE SWAP1 PUSH1 0x1 ADD SWAP1 PUSH1 0x20 ADD DUP1 DUP4 GT PUSH2 0x279D JUMPI DUP3 SWAP1 SUB PUSH1 0x1F AND DUP3 ADD SWAP2 JUMPDEST POP POP POP POP POP DUP2 MSTORE PUSH1 0x20 ADD PUSH1 0x3 DUP3 ADD PUSH1 0x40 MLOAD DUP1 PUSH1 0x80 ADD PUSH1 0x40 MSTORE SWAP1 DUP2 PUSH0 DUP3 ADD DUP1 SLOAD PUSH2 0x27E2 SWAP1 PUSH2 0x4367 JUMP JUMPDEST DUP1 PUSH1 0x1F ADD PUSH1 0x20 DUP1 SWAP2 DIV MUL PUSH1 0x20 ADD PUSH1 0x40 MLOAD SWAP1 DUP2 ADD PUSH1 0x40 MSTORE DUP1 SWAP3 SWAP2 SWAP1 DUP2 DUP2 MSTORE PUSH1 0x20 ADD DUP3 DUP1 SLOAD PUSH2 0x280E SWAP1 PUSH2 0x4367 JUMP JUMPDEST DUP1 ISZERO PUSH2 0x2859 JUMPI DUP1 PUSH1 0x1F LT PUSH2 0x2830 JUMPI PUSH2 0x100 DUP1 DUP4 SLOAD DIV MUL DUP4 MSTORE SWAP2 PUSH1 0x20 ADD SWAP2 PUSH2 0x2859 JUMP JUMPDEST DUP3 ADD SWAP2 SWAP1 PUSH0 MSTORE PUSH1 0x20 PUSH0 KECCAK256 SWAP1 JUMPDEST DUP2 SLOAD DUP2 MSTORE SWAP1 PUSH1 0x1 ADD SWAP1 PUSH1 0x20 ADD DUP1 DUP4 GT PUSH2 0x283C JUMPI DUP3 SWAP1 SUB PUSH1 0x1F AND DUP3 ADD SWAP2 JUMPDEST POP POP POP POP POP DUP2 MSTORE PUSH1 0x20 ADD PUSH1 0x1 DUP3 ADD DUP1 SLOAD PUSH2 0x2872 SWAP1 PUSH2 0x4367 JUMP JUMPDEST DUP1 PUSH1 0x1F ADD PUSH1 0x20 DUP1 SWAP2 DIV MUL PUSH1 0x20 ADD PUSH1 0x40 MLOAD SWAP1 DUP2 ADD PUSH1 0x40 MSTORE DUP1 SWAP3 SWAP2 SWAP1 DUP2 DUP2 MSTORE PUSH1 0x20 ADD DUP3 DUP1 SLOAD PUSH2 0x289E SWAP1 PUSH2 0x4367 JUMP JUMPDEST DUP1 ISZERO PUSH2 0x28E9 JUMPI DUP1 PUSH1 0x1F LT PUSH2 0x28C0 JUMPI PUSH2 0x100 DUP1 DUP4 SLOAD DIV MUL DUP4 MSTORE SWAP2 PUSH1 0x20 ADD SWAP2 PUSH2 0x28E9 JUMP JUMPDEST DUP3 ADD SWAP2 SWAP1 PUSH0 MSTORE PUSH1 0x20 PUSH0 KECCAK256 SWAP1 JUMPDEST DUP2 SLOAD DUP2 MSTORE SWAP1 PUSH1 0x1 ADD SWAP1 PUSH1 0x20 ADD DUP1 DUP4 GT PUSH2 0x28CC JUMPI DUP3 SWAP1 SUB PUSH1 0x1F AND DUP3 ADD SWAP2 JUMPDEST POP POP POP POP POP DUP2 MSTORE PUSH1 0x20 ADD PUSH1 0x2 DUP3 ADD SLOAD DUP2 MSTORE PUSH1 0x20 ADD PUSH1 0x3 DUP3 ADD SLOAD DUP2 MSTORE POP POP DUP2 MSTORE PUSH1 0x20 ADD PUSH1 0x7 DUP3 ADD PUSH0 SWAP1 SLOAD SWAP1 PUSH2 0x100 EXP SWAP1 DIV PUSH20 0xFFFFFFFFFFFFFFFFFFFFFFFFFFFFFFFFFFFFFFFF AND PUSH20 0xFFFFFFFFFFFFFFFFFFFFFFFFFFFFFFFFFFFFFFFF AND PUSH20 0xFFFFFFFFFFFFFFFFFFFFFFFFFFFFFFFFFFFFFFFF AND DUP2 MSTORE PUSH1 0x20 ADD PUSH1 0x8 DUP3 ADD SLOAD DUP2 MSTORE PUSH1 0x20 ADD PUSH1 0x9 DUP3 ADD PUSH0 SWAP1 SLOAD SWAP1 PUSH2 0x100 EXP SWAP1 DIV PUSH1 0xFF AND ISZERO ISZERO ISZERO ISZERO DUP2 MSTORE PUSH1 0x20 ADD PUSH1 0xA DUP3 ADD SLOAD DUP2 MSTORE PUSH1 0x20 ADD PUSH1 0xB DUP3 ADD SLOAD DUP2 MSTORE POP POP SWAP1 POP PUSH0 PUSH20 0xFFFFFFFFFFFFFFFFFFFFFFFFFFFFFFFFFFFFFFFF AND DUP2 PUSH1 0x80 ADD MLOAD PUSH20 0xFFFFFFFFFFFFFFFFFFFFFFFFFFFFFFFFFFFFFFFF AND SUB PUSH2 0x2A0B JUMPI PUSH1 0x40 MLOAD PUSH32 0x8C379A000000000000000000000000000000000000000000000000000000000 DUP2 MSTORE PUSH1 0x4 ADD PUSH2 0x2A02 SWAP1 PUSH2 0x50F4 JUMP JUMPDEST PUSH1 0x40 MLOAD DUP1 SWAP2 SUB SWAP1 REVERT JUMPDEST DUP1 SWAP2 POP POP SWAP2 SWAP1 POP JUMP JUMPDEST PUSH1 0x5 PUSH1 0x20 MSTORE DUP1 PUSH0 MSTORE PUSH1 0x40 PUSH0 KECCAK256 PUSH0 SWAP2 POP SWAP1 POP DUP1 PUSH0 ADD PUSH0 SWAP1 SLOAD SWAP1 PUSH2 0x100 EXP SWAP1 DIV PUSH20 0xFFFFFFFFFFFFFFFFFFFFFFFFFFFFFFFFFFFFFFFF AND SWAP1 DUP1 PUSH1 0x1 ADD DUP1 SLOAD PUSH2 0x2A58 SWAP1 PUSH2 0x4367 JUMP JUMPDEST DUP1 PUSH1 0x1F ADD PUSH1 0x20 DUP1 SWAP2 DIV MUL PUSH1 0x20 ADD PUSH1 0x40 MLOAD SWAP1 DUP2 ADD PUSH1 0x40 MSTORE DUP1 SWAP3 SWAP2 SWAP1 DUP2 DUP2 MSTORE PUSH1 0x20 ADD DUP3 DUP1 SLOAD PUSH2 0x2A84 SWAP1 PUSH2 0x4367 JUMP JUMPDEST DUP1 ISZERO PUSH2 0x2ACF JUMPI DUP1 PUSH1 0x1F LT PUSH2 0x2AA6 JUMPI PUSH2 0x100 DUP1 DUP4 SLOAD DIV MUL DUP4 MSTORE SWAP2 PUSH1 0x20 ADD SWAP2 PUSH2 0x2ACF JUMP JUMPDEST DUP3 ADD SWAP2 SWAP1 PUSH0 MSTORE PUSH1 0x20 PUSH0 KECCAK256 SWAP1 JUMPDEST DUP2 SLOAD DUP2 MSTORE SWAP1 PUSH1 0x1 ADD SWAP1 PUSH1 0x20 ADD DUP1 DUP4 GT PUSH2 0x2AB2 JUMPI DUP3 SWAP1 SUB PUSH1 0x1F AND DUP3 ADD SWAP2 JUMPDEST POP POP POP POP POP SWAP1 DUP1 PUSH1 0x2 ADD DUP1 SLOAD PUSH2 0x2AE4 SWAP1 PUSH2 0x4367 JUMP JUMPDEST DUP1 PUSH1 0x1F ADD PUSH1 0x20 DUP1 SWAP2 DIV MUL PUSH1 0x20 ADD PUSH1 0x40 MLOAD SWAP1 DUP2 ADD PUSH1 0x40 MSTORE DUP1 SWAP3 SWAP2 SWAP1 DUP2 DUP2 MSTORE PUSH1 0x20 ADD DUP3 DUP1 SLOAD PUSH2 0x2B10 SWAP1 PUSH2 0x4367 JUMP JUMPDEST DUP1 ISZERO PUSH2 0x2B5B JUMPI DUP1 PUSH1 0x1F LT PUSH2 0x2B32 JUMPI PUSH2 0x100 DUP1 DUP4 SLOAD DIV MUL DUP4 MSTORE SWAP2 PUSH1 0x20 ADD SWAP2 PUSH2 0x2B5B JUMP JUMPDEST DUP3 ADD SWAP2 SWAP1 PUSH0 MSTORE PUSH1 0x20 PUSH0 KECCAK256 SWAP1 JUMPDEST DUP2 SLOAD DUP2 MSTORE SWAP1 PUSH1 0x1 ADD SWAP1 PUSH1 0x20 ADD DUP1 DUP4 GT PUSH2 0x2B3E JUMPI DUP3 SWAP1 SUB PUSH1 0x1F AND DUP3 ADD SWAP2 JUMPDEST POP POP POP POP POP SWAP1 DUP1 PUSH1 0x3 ADD PUSH1 0x40 MLOAD DUP1 PUSH1 0x80 ADD PUSH1 0x40 MSTORE SWAP1 DUP2 PUSH0 DUP3 ADD DUP1 SLOAD PUSH2 0x2B7F SWAP1 PUSH2 0x4367 JUMP JUMPDEST DUP1 PUSH1 0x1F ADD PUSH1 0x20 DUP1 SWAP2 DIV MUL PUSH1 0x20 ADD PUSH1 0x40 MLOAD SWAP1 DUP2 ADD PUSH1 0x40 MSTORE DUP1 SWAP3 SWAP2 SWAP1 DUP2 DUP2 MSTORE PUSH1 0x20 ADD DUP3 DUP1 SLOAD PUSH2 0x2BAB SWAP1 PUSH2 0x4367 JUMP JUMPDEST DUP1 ISZERO PUSH2 0x2BF6 JUMPI DUP1 PUSH1 0x1F LT PUSH2 0x2BCD JUMPI PUSH2 0x100 DUP1 DUP4 SLOAD DIV MUL DUP4 MSTORE SWAP2 PUSH1 0x20 ADD SWAP2 PUSH2 0x2BF6 JUMP JUMPDEST DUP3 ADD SWAP2 SWAP1 PUSH0 MSTORE PUSH1 0x20 PUSH0 KECCAK256 SWAP1 JUMPDEST DUP2 SLOAD DUP2 MSTORE SWAP1 PUSH1 0x1 ADD SWAP1 PUSH1 0x20 ADD DUP1 DUP4 GT PUSH2 0x2BD9 JUMPI DUP3 SWAP1 SUB PUSH1 0x1F AND DUP3 ADD SWAP2 JUMPDEST POP POP POP POP POP DUP2 MSTORE PUSH1 0x20 ADD PUSH1 0x1 DUP3 ADD DUP1 SLOAD PUSH2 0x2C0F SWAP1 PUSH2 0x4367 JUMP JUMPDEST DUP1 PUSH1 0x1F ADD PUSH1 0x20 DUP1 SWAP2 DIV MUL PUSH1 0x20 ADD PUSH1 0x40 MLOAD SWAP1 DUP2 ADD PUSH1 0x40 MSTORE DUP1 SWAP3 SWAP2 SWAP1 DUP2 DUP2 MSTORE PUSH1 0x20 ADD DUP3 DUP1 SLOAD PUSH2 0x2C3B SWAP1 PUSH2 0x4367 JUMP JUMPDEST DUP1 ISZERO PUSH2 0x2C86 JUMPI DUP1 PUSH1 0x1F LT PUSH2 0x2C5D JUMPI PUSH2 0x100 DUP1 DUP4 SLOAD DIV MUL DUP4 MSTORE SWAP2 PUSH1 0x20 ADD SWAP2 PUSH2 0x2C86 JUMP JUMPDEST DUP3 ADD SWAP2 SWAP1 PUSH0 MSTORE PUSH1 0x20 PUSH0 KECCAK256 SWAP1 JUMPDEST DUP2 SLOAD DUP2 MSTORE SWAP1 PUSH1 0x1 ADD SWAP1 PUSH1 0x20 ADD DUP1 DUP4 GT PUSH2 0x2C69 JUMPI DUP3 SWAP1 SUB PUSH1 0x1F AND DUP3 ADD SWAP2 JUMPDEST POP POP POP POP POP DUP2 MSTORE PUSH1 0x20 ADD PUSH1 0x2 DUP3 ADD SLOAD DUP2 MSTORE PUSH1 0x20 ADD PUSH1 0x3 DUP3 ADD SLOAD DUP2 MSTORE POP POP SWAP1 DUP1 PUSH1 0x7 ADD SLOAD SWAP1 DUP1 PUSH1 0x8 ADD PUSH0 SWAP1 SLOAD SWAP1 PUSH2 0x100 EXP SWAP1 DIV PUSH1 0xFF AND SWAP1 DUP1 PUSH1 0x8 ADD PUSH1 0x1 SWAP1 SLOAD SWAP1 PUSH2 0x100 EXP SWAP1 DIV PUSH1 0xFF AND SWAP1 POP DUP8 JUMP JUMPDEST PUSH0 PUSH1 0x1 SWAP1 SLOAD SWAP1 PUSH2 0x100 EXP SWAP1 DIV PUSH20 0xFFFFFFFFFFFFFFFFFFFFFFFFFFFFFFFFFFFFFFFF AND PUSH20 0xFFFFFFFFFFFFFFFFFFFFFFFFFFFFFFFFFFFFFFFF AND PUSH4 0x91D14854 PUSH0 PUSH1 0x1 SWAP1 SLOAD SWAP1 PUSH2 0x100 EXP SWAP1 DIV PUSH20 0xFFFFFFFFFFFFFFFFFFFFFFFFFFFFFFFFFFFFFFFF AND PUSH20 0xFFFFFFFFFFFFFFFFFFFFFFFFFFFFFFFFFFFFFFFF AND PUSH4 0x75B238FC PUSH1 0x40 MLOAD DUP2 PUSH4 0xFFFFFFFF AND PUSH1 0xE0 SHL DUP2 MSTORE PUSH1 0x4 ADD PUSH1 0x20 PUSH1 0x40 MLOAD DUP1 DUP4 SUB DUP2 DUP7 GAS STATICCALL ISZERO DUP1 ISZERO PUSH2 0x2D7A JUMPI RETURNDATASIZE PUSH0 DUP1 RETURNDATACOPY RETURNDATASIZE PUSH0 REVERT JUMPDEST POP POP POP POP PUSH1 0x40 MLOAD RETURNDATASIZE PUSH1 0x1F NOT PUSH1 0x1F DUP3 ADD AND DUP3 ADD DUP1 PUSH1 0x40 MSTORE POP DUP2 ADD SWAP1 PUSH2 0x2D9E SWAP2 SWAP1 PUSH2 0x43CA JUMP JUMPDEST CALLER PUSH1 0x40 MLOAD DUP4 PUSH4 0xFFFFFFFF AND PUSH1 0xE0 SHL DUP2 MSTORE PUSH1 0x4 ADD PUSH2 0x2DBC SWAP3 SWAP2 SWAP1 PUSH2 0x4404 JUMP JUMPDEST PUSH1 0x20 PUSH1 0x40 MLOAD DUP1 DUP4 SUB DUP2 DUP7 GAS STATICCALL ISZERO DUP1 ISZERO PUSH2 0x2DD7 JUMPI RETURNDATASIZE PUSH0 DUP1 RETURNDATACOPY RETURNDATASIZE PUSH0 REVERT JUMPDEST POP POP POP POP PUSH1 0x40 MLOAD RETURNDATASIZE PUSH1 0x1F NOT PUSH1 0x1F DUP3 ADD AND DUP3 ADD DUP1 PUSH1 0x40 MSTORE POP DUP2 ADD SWAP1 PUSH2 0x2DFB SWAP2 SWAP1 PUSH2 0x4455 JUMP JUMPDEST PUSH2 0x2E3A JUMPI PUSH1 0x40 MLOAD PUSH32 0x8C379A000000000000000000000000000000000000000000000000000000000 DUP2 MSTORE PUSH1 0x4 ADD PUSH2 0x2E31 SWAP1 PUSH2 0x44CA JUMP JUMPDEST PUSH1 0x40 MLOAD DUP1 SWAP2 SUB SWAP1 REVERT JUMPDEST PUSH2 0x2E42 PUSH2 0x38B5 JUMP JUMPDEST PUSH0 PUSH1 0x5 PUSH0 DUP4 DUP2 MSTORE PUSH1 0x20 ADD SWAP1 DUP2 MSTORE PUSH1 0x20 ADD PUSH0 KECCAK256 SWAP1 POP DUP1 PUSH1 0x8 ADD PUSH0 SWAP1 SLOAD SWAP1 PUSH2 0x100 EXP SWAP1 DIV PUSH1 0xFF AND PUSH2 0x2EA6 JUMPI PUSH1 0x40 MLOAD PUSH32 0x8C379A000000000000000000000000000000000000000000000000000000000 DUP2 MSTORE PUSH1 0x4 ADD PUSH2 0x2E9D SWAP1 PUSH2 0x4602 JUMP JUMPDEST PUSH1 0x40 MLOAD DUP1 SWAP2 SUB SWAP1 REVERT JUMPDEST PUSH0 PUSH1 0x1 SWAP1 SLOAD SWAP1 PUSH2 0x100 EXP SWAP1 DIV PUSH20 0xFFFFFFFFFFFFFFFFFFFFFFFFFFFFFFFFFFFFFFFF AND PUSH20 0xFFFFFFFFFFFFFFFFFFFFFFFFFFFFFFFFFFFFFFFF AND PUSH4 0x91D14854 PUSH0 PUSH1 0x1 SWAP1 SLOAD SWAP1 PUSH2 0x100 EXP SWAP1 DIV PUSH20 0xFFFFFFFFFFFFFFFFFFFFFFFFFFFFFFFFFFFFFFFF AND PUSH20 0xFFFFFFFFFFFFFFFFFFFFFFFFFFFFFFFFFFFFFFFF AND PUSH4 0x78988EBD PUSH1 0x40 MLOAD DUP2 PUSH4 0xFFFFFFFF AND PUSH1 0xE0 SHL DUP2 MSTORE PUSH1 0x4 ADD PUSH1 0x20 PUSH1 0x40 MLOAD DUP1 DUP4 SUB DUP2 DUP7 GAS STATICCALL ISZERO DUP1 ISZERO PUSH2 0x2F4D JUMPI RETURNDATASIZE PUSH0 DUP1 RETURNDATACOPY RETURNDATASIZE PUSH0 REVERT JUMPDEST POP POP POP POP PUSH1 0x40 MLOAD RETURNDATASIZE PUSH1 0x1F NOT PUSH1 0x1F DUP3 ADD AND DUP3 ADD DUP1 PUSH1 0x40 MSTORE POP DUP2 ADD SWAP1 PUSH2 0x2F71 SWAP2 SWAP1 PUSH2 0x43CA JUMP JUMPDEST DUP4 PUSH0 ADD PUSH0 SWAP1 SLOAD SWAP1 PUSH2 0x100 EXP SWAP1 DIV PUSH20 0xFFFFFFFFFFFFFFFFFFFFFFFFFFFFFFFFFFFFFFFF AND PUSH1 0x40 MLOAD DUP4 PUSH4 0xFFFFFFFF AND PUSH1 0xE0 SHL DUP2 MSTORE PUSH1 0x4 ADD PUSH2 0x2FB1 SWAP3 SWAP2 SWAP1 PUSH2 0x4404 JUMP JUMPDEST PUSH1 0x20 PUSH1 0x40 MLOAD DUP1 DUP4 SUB DUP2 DUP7 GAS STATICCALL ISZERO DUP1 ISZERO PUSH2 0x2FCC JUMPI RETURNDATASIZE PUSH0 DUP1 RETURNDATACOPY RETURNDATASIZE PUSH0 REVERT JUMPDEST POP POP POP POP PUSH1 0x40 MLOAD RETURNDATASIZE PUSH1 0x1F NOT PUSH1 0x1F DUP3 ADD AND DUP3 ADD DUP1 PUSH1 0x40 MSTORE POP DUP2 ADD SWAP1 PUSH2 0x2FF0 SWAP2 SWAP1 PUSH2 0x4455 JUMP JUMPDEST PUSH2 0x302F JUMPI PUSH1 0x40 MLOAD PUSH32 0x8C379A000000000000000000000000000000000000000000000000000000000 DUP2 MSTORE PUSH1 0x4 ADD PUSH2 0x3026 SWAP1 PUSH2 0x5182 JUMP JUMPDEST PUSH1 0x40 MLOAD DUP1 SWAP2 SUB SWAP1 REVERT JUMPDEST PUSH0 DUP2 PUSH1 0x8 ADD PUSH0 PUSH2 0x100 EXP DUP2 SLOAD DUP2 PUSH1 0xFF MUL NOT AND SWAP1 DUP4 ISZERO ISZERO MUL OR SWAP1 SSTORE POP PUSH1 0x1 DUP2 PUSH1 0x8 ADD PUSH1 0x1 PUSH2 0x100 EXP DUP2 SLOAD DUP2 PUSH1 0xFF MUL NOT AND SWAP1 DUP4 ISZERO ISZERO MUL OR SWAP1 SSTORE POP PUSH1 0x40 MLOAD DUP1 PUSH2 0x120 ADD PUSH1 0x40 MSTORE DUP1 DUP4 DUP2 MSTORE PUSH1 0x20 ADD DUP3 PUSH1 0x1 ADD DUP1 SLOAD PUSH2 0x3088 SWAP1 PUSH2 0x4367 JUMP JUMPDEST DUP1 PUSH1 0x1F ADD PUSH1 0x20 DUP1 SWAP2 DIV MUL PUSH1 0x20 ADD PUSH1 0x40 MLOAD SWAP1 DUP2 ADD PUSH1 0x40 MSTORE DUP1 SWAP3 SWAP2 SWAP1 DUP2 DUP2 MSTORE PUSH1 0x20 ADD DUP3 DUP1 SLOAD PUSH2 0x30B4 SWAP1 PUSH2 0x4367 JUMP JUMPDEST DUP1 ISZERO PUSH2 0x30FF JUMPI DUP1 PUSH1 0x1F LT PUSH2 0x30D6 JUMPI PUSH2 0x100 DUP1 DUP4 SLOAD DIV MUL DUP4 MSTORE SWAP2 PUSH1 0x20 ADD SWAP2 PUSH2 0x30FF JUMP JUMPDEST DUP3 ADD SWAP2 SWAP1 PUSH0 MSTORE PUSH1 0x20 PUSH0 KECCAK256 SWAP1 JUMPDEST DUP2 SLOAD DUP2 MSTORE SWAP1 PUSH1 0x1 ADD SWAP1 PUSH1 0x20 ADD DUP1 DUP4 GT PUSH2 0x30E2 JUMPI DUP3 SWAP1 SUB PUSH1 0x1F AND DUP3 ADD SWAP2 JUMPDEST POP POP POP POP POP DUP2 MSTORE PUSH1 0x20 ADD DUP3 PUSH1 0x2 ADD DUP1 SLOAD PUSH2 0x3118 SWAP1 PUSH2 0x4367 JUMP JUMPDEST DUP1 PUSH1 0x1F ADD PUSH1 0x20 DUP1 SWAP2 DIV MUL PUSH1 0x20 ADD PUSH1 0x40 MLOAD SWAP1 DUP2 ADD PUSH1 0x40 MSTORE DUP1 SWAP3 SWAP2 SWAP1 DUP2 DUP2 MSTORE PUSH1 0x20 ADD DUP3 DUP1 SLOAD PUSH2 0x3144 SWAP1 PUSH2 0x4367 JUMP JUMPDEST DUP1 ISZERO PUSH2 0x318F JUMPI DUP1 PUSH1 0x1F LT PUSH2 0x3166 JUMPI PUSH2 0x100 DUP1 DUP4 SLOAD DIV MUL DUP4 MSTORE SWAP2 PUSH1 0x20 ADD SWAP2 PUSH2 0x318F JUMP JUMPDEST DUP3 ADD SWAP2 SWAP1 PUSH0 MSTORE PUSH1 0x20 PUSH0 KECCAK256 SWAP1 JUMPDEST DUP2 SLOAD DUP2 MSTORE SWAP1 PUSH1 0x1 ADD SWAP1 PUSH1 0x20 ADD DUP1 DUP4 GT PUSH2 0x3172 JUMPI DUP3 SWAP1 SUB PUSH1 0x1F AND DUP3 ADD SWAP2 JUMPDEST POP POP POP POP POP DUP2 MSTORE PUSH1 0x20 ADD DUP3 PUSH1 0x3 ADD PUSH1 0x40 MLOAD DUP1 PUSH1 0x80 ADD PUSH1 0x40 MSTORE SWAP1 DUP2 PUSH0 DUP3 ADD DUP1 SLOAD PUSH2 0x31B7 SWAP1 PUSH2 0x4367 JUMP JUMPDEST DUP1 PUSH1 0x1F ADD PUSH1 0x20 DUP1 SWAP2 DIV MUL PUSH1 0x20 ADD PUSH1 0x40 MLOAD SWAP1 DUP2 ADD PUSH1 0x40 MSTORE DUP1 SWAP3 SWAP2 SWAP1 DUP2 DUP2 MSTORE PUSH1 0x20 ADD DUP3 DUP1 SLOAD PUSH2 0x31E3 SWAP1 PUSH2 0x4367 JUMP JUMPDEST DUP1 ISZERO PUSH2 0x322E JUMPI DUP1 PUSH1 0x1F LT PUSH2 0x3205 JUMPI PUSH2 0x100 DUP1 DUP4 SLOAD DIV MUL DUP4 MSTORE SWAP2 PUSH1 0x20 ADD SWAP2 PUSH2 0x322E JUMP JUMPDEST DUP3 ADD SWAP2 SWAP1 PUSH0 MSTORE PUSH1 0x20 PUSH0 KECCAK256 SWAP1 JUMPDEST DUP2 SLOAD DUP2 MSTORE SWAP1 PUSH1 0x1 ADD SWAP1 PUSH1 0x20 ADD DUP1 DUP4 GT PUSH2 0x3211 JUMPI DUP3 SWAP1 SUB PUSH1 0x1F AND DUP3 ADD SWAP2 JUMPDEST POP POP POP POP POP DUP2 MSTORE PUSH1 0x20 ADD PUSH1 0x1 DUP3 ADD DUP1 SLOAD PUSH2 0x3247 SWAP1 PUSH2 0x4367 JUMP JUMPDEST DUP1 PUSH1 0x1F ADD PUSH1 0x20 DUP1 SWAP2 DIV MUL PUSH1 0x20 ADD PUSH1 0x40 MLOAD SWAP1 DUP2 ADD PUSH1 0x40 MSTORE DUP1 SWAP3 SWAP2 SWAP1 DUP2 DUP2 MSTORE PUSH1 0x20 ADD DUP3 DUP1 SLOAD PUSH2 0x3273 SWAP1 PUSH2 0x4367 JUMP JUMPDEST DUP1 ISZERO PUSH2 0x32BE JUMPI DUP1 PUSH1 0x1F LT PUSH2 0x3295 JUMPI PUSH2 0x100 DUP1 DUP4 SLOAD DIV MUL DUP4 MSTORE SWAP2 PUSH1 0x20 ADD SWAP2 PUSH2 0x32BE JUMP JUMPDEST DUP3 ADD SWAP2 SWAP1 PUSH0 MSTORE PUSH1 0x20 PUSH0 KECCAK256 SWAP1 JUMPDEST DUP2 SLOAD DUP2 MSTORE SWAP1 PUSH1 0x1 ADD SWAP1 PUSH1 0x20 ADD DUP1 DUP4 GT PUSH2 0x32A1 JUMPI DUP3 SWAP1 SUB PUSH1 0x1F AND DUP3 ADD SWAP2 JUMPDEST POP POP POP POP POP DUP2 MSTORE PUSH1 0x20 ADD PUSH1 0x2 DUP3 ADD SLOAD DUP2 MSTORE PUSH1 0x20 ADD PUSH1 0x3 DUP3 ADD SLOAD DUP2 MSTORE POP POP DUP2 MSTORE PUSH1 0x20 ADD DUP3 PUSH0 ADD PUSH0 SWAP1 SLOAD SWAP1 PUSH2 0x100 EXP SWAP1 DIV PUSH20 0xFFFFFFFFFFFFFFFFFFFFFFFFFFFFFFFFFFFFFFFF AND PUSH20 0xFFFFFFFFFFFFFFFFFFFFFFFFFFFFFFFFFFFFFFFF AND DUP2 MSTORE PUSH1 0x20 ADD DUP3 PUSH1 0x7 ADD SLOAD DUP2 MSTORE PUSH1 0x20 ADD PUSH1 0x1 ISZERO ISZERO DUP2 MSTORE PUSH1 0x20 ADD TIMESTAMP DUP2 MSTORE PUSH1 0x20 ADD TIMESTAMP DUP2 MSTORE POP PUSH1 0x4 PUSH0 DUP5 DUP2 MSTORE PUSH1 0x20 ADD SWAP1 DUP2 MSTORE PUSH1 0x20 ADD PUSH0 KECCAK256 PUSH0 DUP3 ADD MLOAD DUP2 PUSH0 ADD SSTORE PUSH1 0x20 DUP3 ADD MLOAD DUP2 PUSH1 0x1 ADD SWAP1 DUP2 PUSH2 0x3369 SWAP2 SWAP1 PUSH2 0x4FDB JUMP JUMPDEST POP PUSH1 0x40 DUP3 ADD MLOAD DUP2 PUSH1 0x2 ADD SWAP1 DUP2 PUSH2 0x337F SWAP2 SWAP1 PUSH2 0x4FDB JUMP JUMPDEST POP PUSH1 0x60 DUP3 ADD MLOAD DUP2 PUSH1 0x3 ADD PUSH0 DUP3 ADD MLOAD DUP2 PUSH0 ADD SWAP1 DUP2 PUSH2 0x339C SWAP2 SWAP1 PUSH2 0x4FDB JUMP JUMPDEST POP PUSH1 0x20 DUP3 ADD MLOAD DUP2 PUSH1 0x1 ADD SWAP1 DUP2 PUSH2 0x33B2 SWAP2 SWAP1 PUSH2 0x4FDB JUMP JUMPDEST POP PUSH1 0x40 DUP3 ADD MLOAD DUP2 PUSH1 0x2 ADD SSTORE PUSH1 0x60 DUP3 ADD MLOAD DUP2 PUSH1 0x3 ADD SSTORE POP POP PUSH1 0x80 DUP3 ADD MLOAD DUP2 PUSH1 0x7 ADD PUSH0 PUSH2 0x100 EXP DUP2 SLOAD DUP2 PUSH20 0xFFFFFFFFFFFFFFFFFFFFFFFFFFFFFFFFFFFFFFFF MUL NOT AND SWAP1 DUP4 PUSH20 0xFFFFFFFFFFFFFFFFFFFFFFFFFFFFFFFFFFFFFFFF AND MUL OR SWAP1 SSTORE POP PUSH1 0xA0 DUP3 ADD MLOAD DUP2 PUSH1 0x8 ADD SSTORE PUSH1 0xC0 DUP3 ADD MLOAD DUP2 PUSH1 0x9 ADD PUSH0 PUSH2 0x100 EXP DUP2 SLOAD DUP2 PUSH1 0xFF MUL NOT AND SWAP1 DUP4 ISZERO ISZERO MUL OR SWAP1 SSTORE POP PUSH1 0xE0 DUP3 ADD MLOAD DUP2 PUSH1 0xA ADD SSTORE PUSH2 0x100 DUP3 ADD MLOAD DUP2 PUSH1 0xB ADD SSTORE SWAP1 POP POP DUP2 PUSH32 0x8BF0B9F064110E184AC3A17211475B991009BBA03AFD86413F3114D9058B670A PUSH1 0x40 MLOAD PUSH1 0x40 MLOAD DUP1 SWAP2 SUB SWAP1 LOG2 POP POP JUMP JUMPDEST DUP2 CALLER PUSH20 0xFFFFFFFFFFFFFFFFFFFFFFFFFFFFFFFFFFFFFFFF AND PUSH1 0x4 PUSH0 DUP4 DUP2 MSTORE PUSH1 0x20 ADD SWAP1 DUP2 MSTORE PUSH1 0x20 ADD PUSH0 KECCAK256 PUSH1 0x7 ADD PUSH0 SWAP1 SLOAD SWAP1 PUSH2 0x100 EXP SWAP1 DIV PUSH20 0xFFFFFFFFFFFFFFFFFFFFFFFFFFFFFFFFFFFFFFFF AND PUSH20 0xFFFFFFFFFFFFFFFFFFFFFFFFFFFFFFFFFFFFFFFF AND EQ PUSH2 0x3523 JUMPI PUSH1 0x40 MLOAD PUSH32 0x8C379A000000000000000000000000000000000000000000000000000000000 DUP2 MSTORE PUSH1 0x4 ADD PUSH2 0x351A SWAP1 PUSH2 0x459A JUMP JUMPDEST PUSH1 0x40 MLOAD DUP1 SWAP2 SUB SWAP1 REVERT JUMPDEST PUSH2 0x352B PUSH2 0x38B5 JUMP JUMPDEST PUSH0 PUSH1 0x6 PUSH0 DUP6 DUP2 MSTORE PUSH1 0x20 ADD SWAP1 DUP2 MSTORE PUSH1 0x20 ADD PUSH0 KECCAK256 PUSH0 DUP5 DUP2 MSTORE PUSH1 0x20 ADD SWAP1 DUP2 MSTORE PUSH1 0x20 ADD PUSH0 KECCAK256 SWAP1 POP DUP1 PUSH1 0x3 ADD PUSH0 SWAP1 SLOAD SWAP1 PUSH2 0x100 EXP SWAP1 DIV PUSH1 0xFF AND PUSH2 0x359E JUMPI PUSH1 0x40 MLOAD PUSH32 0x8C379A000000000000000000000000000000000000000000000000000000000 DUP2 MSTORE PUSH1 0x4 ADD PUSH2 0x3595 SWAP1 PUSH2 0x4602 JUMP JUMPDEST PUSH1 0x40 MLOAD DUP1 SWAP2 SUB SWAP1 REVERT JUMPDEST PUSH0 PUSH1 0x1 SWAP1 SLOAD SWAP1 PUSH2 0x100 EXP SWAP1 DIV PUSH20 0xFFFFFFFFFFFFFFFFFFFFFFFFFFFFFFFFFFFFFFFF AND PUSH20 0xFFFFFFFFFFFFFFFFFFFFFFFFFFFFFFFFFFFFFFFF AND PUSH4 0x91D14854 PUSH0 PUSH1 0x1 SWAP1 SLOAD SWAP1 PUSH2 0x100 EXP SWAP1 DIV PUSH20 0xFFFFFFFFFFFFFFFFFFFFFFFFFFFFFFFFFFFFFFFF AND PUSH20 0xFFFFFFFFFFFFFFFFFFFFFFFFFFFFFFFFFFFFFFFF AND PUSH4 0x98E4ABB5 PUSH1 0x40 MLOAD DUP2 PUSH4 0xFFFFFFFF AND PUSH1 0xE0 SHL DUP2 MSTORE PUSH1 0x4 ADD PUSH1 0x20 PUSH1 0x40 MLOAD DUP1 DUP4 SUB DUP2 DUP7 GAS STATICCALL ISZERO DUP1 ISZERO PUSH2 0x3645 JUMPI RETURNDATASIZE PUSH0 DUP1 RETURNDATACOPY RETURNDATASIZE PUSH0 REVERT JUMPDEST POP POP POP POP PUSH1 0x40 MLOAD RETURNDATASIZE PUSH1 0x1F NOT PUSH1 0x1F DUP3 ADD AND DUP3 ADD DUP1 PUSH1 0x40 MSTORE POP DUP2 ADD SWAP1 PUSH2 0x3669 SWAP2 SWAP1 PUSH2 0x43CA JUMP JUMPDEST DUP4 PUSH1 0x1 ADD PUSH0 SWAP1 SLOAD SWAP1 PUSH2 0x100 EXP SWAP1 DIV PUSH20 0xFFFFFFFFFFFFFFFFFFFFFFFFFFFFFFFFFFFFFFFF AND PUSH1 0x40 MLOAD DUP4 PUSH4 0xFFFFFFFF AND PUSH1 0xE0 SHL DUP2 MSTORE PUSH1 0x4 ADD PUSH2 0x36AA SWAP3 SWAP2 SWAP1 PUSH2 0x4404 JUMP JUMPDEST PUSH1 0x20 PUSH1 0x40 MLOAD DUP1 DUP4 SUB DUP2 DUP7 GAS STATICCALL ISZERO DUP1 ISZERO PUSH2 0x36C5 JUMPI RETURNDATASIZE PUSH0 DUP1 RETURNDATACOPY RETURNDATASIZE PUSH0 REVERT JUMPDEST POP POP POP POP PUSH1 0x40 MLOAD RETURNDATASIZE PUSH1 0x1F NOT PUSH1 0x1F DUP3 ADD AND DUP3 ADD DUP1 PUSH1 0x40 MSTORE POP DUP2 ADD SWAP1 PUSH2 0x36E9 SWAP2 SWAP1 PUSH2 0x4455 JUMP JUMPDEST PUSH2 0x3728 JUMPI PUSH1 0x40 MLOAD PUSH32 0x8C379A000000000000000000000000000000000000000000000000000000000 DUP2 MSTORE PUSH1 0x4 ADD PUSH2 0x371F SWAP1 PUSH2 0x5210 JUMP JUMPDEST PUSH1 0x40 MLOAD DUP1 SWAP2 SUB SWAP1 REVERT JUMPDEST PUSH0 DUP2 PUSH1 0x3 ADD PUSH0 PUSH2 0x100 EXP DUP2 SLOAD DUP2 PUSH1 0xFF MUL NOT AND SWAP1 DUP4 ISZERO ISZERO MUL OR SWAP1 SSTORE POP PUSH1 0x1 DUP2 PUSH1 0x3 ADD PUSH1 0x1 PUSH2 0x100 EXP DUP2 SLOAD DUP2 PUSH1 0xFF MUL NOT AND SWAP1 DUP4 ISZERO ISZERO MUL OR SWAP1 SSTORE POP PUSH1 0x1 PUSH0 SWAP1 SLOAD SWAP1 PUSH2 0x100 EXP SWAP1 DIV PUSH20 0xFFFFFFFFFFFFFFFFFFFFFFFFFFFFFFFFFFFFFFFF AND PUSH20 0xFFFFFFFFFFFFFFFFFFFFFFFFFFFFFFFFFFFFFFFF AND PUSH4 0xCE290E1D DUP5 DUP7 PUSH1 0x1 PUSH1 0x40 MLOAD DUP5 PUSH4 0xFFFFFFFF AND PUSH1 0xE0 SHL DUP2 MSTORE PUSH1 0x4 ADD PUSH2 0x37BF SWAP4 SWAP3 SWAP2 SWAP1 PUSH2 0x522E JUMP JUMPDEST PUSH0 PUSH1 0x40 MLOAD DUP1 DUP4 SUB DUP2 PUSH0 DUP8 DUP1 EXTCODESIZE ISZERO DUP1 ISZERO PUSH2 0x37D6 JUMPI PUSH0 DUP1 REVERT JUMPDEST POP GAS CALL ISZERO DUP1 ISZERO PUSH2 0x37E8 JUMPI RETURNDATASIZE PUSH0 DUP1 RETURNDATACOPY RETURNDATASIZE PUSH0 REVERT JUMPDEST POP POP POP POP PUSH1 0x7 PUSH0 DUP6 DUP2 MSTORE PUSH1 0x20 ADD SWAP1 DUP2 MSTORE PUSH1 0x20 ADD PUSH0 KECCAK256 DUP4 SWAP1 DUP1 PUSH1 0x1 DUP2 SLOAD ADD DUP1 DUP3 SSTORE DUP1 SWAP2 POP POP PUSH1 0x1 SWAP1 SUB SWAP1 PUSH0 MSTORE PUSH1 0x20 PUSH0 KECCAK256 ADD PUSH0 SWAP1 SWAP2 SWAP1 SWAP2 SWAP1 SWAP2 POP SSTORE DUP3 DUP5 PUSH32 0xDC2149B93C86806566C8FA4D25318AB9DD1B921D334A786BEA5E3CA461E8E2B4 PUSH1 0x40 MLOAD PUSH1 0x40 MLOAD DUP1 SWAP2 SUB SWAP1 LOG3 POP POP POP POP JUMP JUMPDEST PUSH2 0x385D PUSH2 0x3A51 JUMP JUMPDEST PUSH0 DUP1 PUSH0 PUSH2 0x100 EXP DUP2 SLOAD DUP2 PUSH1 0xFF MUL NOT AND SWAP1 DUP4 ISZERO ISZERO MUL OR SWAP1 SSTORE POP PUSH32 0x5DB9EE0A495BF2E6FF9C91A7834C1BA4FDD244A5E8AA4E537BD38AEAE4B073AA PUSH2 0x389E PUSH2 0x3A9A JUMP JUMPDEST PUSH1 0x40 MLOAD PUSH2 0x38AB SWAP2 SWAP1 PUSH2 0x5263 JUMP JUMPDEST PUSH1 0x40 MLOAD DUP1 SWAP2 SUB SWAP1 LOG1 JUMP JUMPDEST PUSH2 0x38BD PUSH2 0xD2B JUMP JUMPDEST ISZERO PUSH2 0x38FD JUMPI PUSH1 0x40 MLOAD PUSH32 0x8C379A000000000000000000000000000000000000000000000000000000000 DUP2 MSTORE PUSH1 0x4 ADD PUSH2 0x38F4 SWAP1 PUSH2 0x52C6 JUMP JUMPDEST PUSH1 0x40 MLOAD DUP1 SWAP2 SUB SWAP1 REVERT JUMPDEST JUMP JUMPDEST PUSH0 PUSH1 0x7 PUSH0 DUP5 DUP2 MSTORE PUSH1 0x20 ADD SWAP1 DUP2 MSTORE PUSH1 0x20 ADD PUSH0 KECCAK256 SWAP1 POP PUSH0 JUMPDEST DUP2 DUP1 SLOAD SWAP1 POP DUP2 LT ISZERO PUSH2 0x39CA JUMPI DUP3 DUP3 DUP3 DUP2 SLOAD DUP2 LT PUSH2 0x3935 JUMPI PUSH2 0x3934 PUSH2 0x52E4 JUMP JUMPDEST JUMPDEST SWAP1 PUSH0 MSTORE PUSH1 0x20 PUSH0 KECCAK256 ADD SLOAD SUB PUSH2 0x39B7 JUMPI DUP2 PUSH1 0x1 DUP4 DUP1 SLOAD SWAP1 POP PUSH2 0x3955 SWAP2 SWAP1 PUSH2 0x5311 JUMP JUMPDEST DUP2 SLOAD DUP2 LT PUSH2 0x3966 JUMPI PUSH2 0x3965 PUSH2 0x52E4 JUMP JUMPDEST JUMPDEST SWAP1 PUSH0 MSTORE PUSH1 0x20 PUSH0 KECCAK256 ADD SLOAD DUP3 DUP3 DUP2 SLOAD DUP2 LT PUSH2 0x3982 JUMPI PUSH2 0x3981 PUSH2 0x52E4 JUMP JUMPDEST JUMPDEST SWAP1 PUSH0 MSTORE PUSH1 0x20 PUSH0 KECCAK256 ADD DUP2 SWAP1 SSTORE POP DUP2 DUP1 SLOAD DUP1 PUSH2 0x399F JUMPI PUSH2 0x399E PUSH2 0x5344 JUMP JUMPDEST JUMPDEST PUSH1 0x1 SWAP1 SUB DUP2 DUP2 SWAP1 PUSH0 MSTORE PUSH1 0x20 PUSH0 KECCAK256 ADD PUSH0 SWAP1 SSTORE SWAP1 SSTORE PUSH2 0x39CA JUMP JUMPDEST DUP1 DUP1 PUSH2 0x39C2 SWAP1 PUSH2 0x5371 JUMP JUMPDEST SWAP2 POP POP PUSH2 0x3915 JUMP JUMPDEST POP POP POP POP JUMP JUMPDEST PUSH2 0x39D8 PUSH2 0x38B5 JUMP JUMPDEST PUSH1 0x1 PUSH0 DUP1 PUSH2 0x100 EXP DUP2 SLOAD DUP2 PUSH1 0xFF MUL NOT AND SWAP1 DUP4 ISZERO ISZERO MUL OR SWAP1 SSTORE POP PUSH32 0x62E78CEA01BEE320CD4E420270B5EA74000D11B0C9F74754EBDBFC544B05A258 PUSH2 0x3A1A PUSH2 0x3A9A JUMP JUMPDEST PUSH1 0x40 MLOAD PUSH2 0x3A27 SWAP2 SWAP1 PUSH2 0x5263 JUMP JUMPDEST PUSH1 0x40 MLOAD DUP1 SWAP2 SUB SWAP1 LOG1 JUMP JUMPDEST PUSH0 DUP2 PUSH0 ADD SLOAD SWAP1 POP SWAP2 SWAP1 POP JUMP JUMPDEST PUSH1 0x1 DUP2 PUSH0 ADD PUSH0 DUP3 DUP3 SLOAD ADD SWAP3 POP POP DUP2 SWAP1 SSTORE POP POP JUMP JUMPDEST PUSH2 0x3A59 PUSH2 0xD2B JUMP JUMPDEST PUSH2 0x3A98 JUMPI PUSH1 0x40 MLOAD PUSH32 0x8C379A000000000000000000000000000000000000000000000000000000000 DUP2 MSTORE PUSH1 0x4 ADD PUSH2 0x3A8F SWAP1 PUSH2 0x5402 JUMP JUMPDEST PUSH1 0x40 MLOAD DUP1 SWAP2 SUB SWAP1 REVERT JUMPDEST JUMP JUMPDEST PUSH0 CALLER SWAP1 POP SWAP1 JUMP JUMPDEST PUSH1 0x40 MLOAD DUP1 PUSH2 0x120 ADD PUSH1 0x40 MSTORE DUP1 PUSH0 DUP2 MSTORE PUSH1 0x20 ADD PUSH1 0x60 DUP2 MSTORE PUSH1 0x20 ADD PUSH1 0x60 DUP2 MSTORE PUSH1 0x20 ADD PUSH2 0x3AC9 PUSH2 0x3B05 JUMP JUMPDEST DUP2 MSTORE PUSH1 0x20 ADD PUSH0 PUSH20 0xFFFFFFFFFFFFFFFFFFFFFFFFFFFFFFFFFFFFFFFF AND DUP2 MSTORE PUSH1 0x20 ADD PUSH0 DUP2 MSTORE PUSH1 0x20 ADD PUSH0 ISZERO ISZERO DUP2 MSTORE PUSH1 0x20 ADD PUSH0 DUP2 MSTORE PUSH1 0x20 ADD PUSH0 DUP2 MSTORE POP SWAP1 JUMP JUMPDEST PUSH1 0x40 MLOAD DUP1 PUSH1 0x80 ADD PUSH1 0x40 MSTORE DUP1 PUSH1 0x60 DUP2 MSTORE PUSH1 0x20 ADD PUSH1 0x60 DUP2 MSTORE PUSH1 0x20 ADD PUSH0 DUP2 MSTORE PUSH1 0x20 ADD PUSH0 DUP2 MSTORE POP SWAP1 JUMP JUMPDEST PUSH0 PUSH20 0xFFFFFFFFFFFFFFFFFFFFFFFFFFFFFFFFFFFFFFFF DUP3 AND SWAP1 POP SWAP2 SWAP1 POP JUMP JUMPDEST PUSH0 DUP2 SWAP1 POP SWAP2 SWAP1 POP JUMP JUMPDEST PUSH0 PUSH2 0x3B6D PUSH2 0x3B68 PUSH2 0x3B63 DUP5 PUSH2 0x3B2B JUMP JUMPDEST PUSH2 0x3B4A JUMP JUMPDEST PUSH2 0x3B2B JUMP JUMPDEST SWAP1 POP SWAP2 SWAP1 POP JUMP JUMPDEST PUSH0 PUSH2 0x3B7E DUP3 PUSH2 0x3B53 JUMP JUMPDEST SWAP1 POP SWAP2 SWAP1 POP JUMP JUMPDEST PUSH0 PUSH2 0x3B8F DUP3 PUSH2 0x3B74 JUMP JUMPDEST SWAP1 POP SWAP2 SWAP1 POP JUMP JUMPDEST PUSH2 0x3B9F DUP2 PUSH2 0x3B85 JUMP JUMPDEST DUP3 MSTORE POP POP JUMP JUMPDEST PUSH0 PUSH1 0x20 DUP3 ADD SWAP1 POP PUSH2 0x3BB8 PUSH0 DUP4 ADD DUP5 PUSH2 0x3B96 JUMP JUMPDEST SWAP3 SWAP2 POP POP JUMP JUMPDEST PUSH0 PUSH1 0x40 MLOAD SWAP1 POP SWAP1 JUMP JUMPDEST PUSH0 DUP1 REVERT JUMPDEST PUSH0 DUP1 REVERT JUMPDEST PUSH0 DUP2 SWAP1 POP SWAP2 SWAP1 POP JUMP JUMPDEST PUSH2 0x3BE1 DUP2 PUSH2 0x3BCF JUMP JUMPDEST DUP2 EQ PUSH2 0x3BEB JUMPI PUSH0 DUP1 REVERT JUMPDEST POP JUMP JUMPDEST PUSH0 DUP2 CALLDATALOAD SWAP1 POP PUSH2 0x3BFC DUP2 PUSH2 0x3BD8 JUMP JUMPDEST SWAP3 SWAP2 POP POP JUMP JUMPDEST PUSH0 PUSH1 0x20 DUP3 DUP5 SUB SLT ISZERO PUSH2 0x3C17 JUMPI PUSH2 0x3C16 PUSH2 0x3BC7 JUMP JUMPDEST JUMPDEST PUSH0 PUSH2 0x3C24 DUP5 DUP3 DUP6 ADD PUSH2 0x3BEE JUMP JUMPDEST SWAP2 POP POP SWAP3 SWAP2 POP POP JUMP JUMPDEST PUSH2 0x3C36 DUP2 PUSH2 0x3BCF JUMP JUMPDEST DUP3 MSTORE POP POP JUMP JUMPDEST PUSH0 DUP2 MLOAD SWAP1 POP SWAP2 SWAP1 POP JUMP JUMPDEST PUSH0 DUP3 DUP3 MSTORE PUSH1 0x20 DUP3 ADD SWAP1 POP SWAP3 SWAP2 POP POP JUMP JUMPDEST PUSH0 JUMPDEST DUP4 DUP2 LT ISZERO PUSH2 0x3C73 JUMPI DUP1 DUP3 ADD MLOAD DUP2 DUP5 ADD MSTORE PUSH1 0x20 DUP2 ADD SWAP1 POP PUSH2 0x3C58 JUMP JUMPDEST PUSH0 DUP5 DUP5 ADD MSTORE POP POP POP POP JUMP JUMPDEST PUSH0 PUSH1 0x1F NOT PUSH1 0x1F DUP4 ADD AND SWAP1 POP SWAP2 SWAP1 POP JUMP JUMPDEST PUSH0 PUSH2 0x3C98 DUP3 PUSH2 0x3C3C JUMP JUMPDEST PUSH2 0x3CA2 DUP2 DUP6 PUSH2 0x3C46 JUMP JUMPDEST SWAP4 POP PUSH2 0x3CB2 DUP2 DUP6 PUSH1 0x20 DUP7 ADD PUSH2 0x3C56 JUMP JUMPDEST PUSH2 0x3CBB DUP2 PUSH2 0x3C7E JUMP JUMPDEST DUP5 ADD SWAP2 POP POP SWAP3 SWAP2 POP POP JUMP JUMPDEST PUSH0 DUP3 DUP3 MSTORE PUSH1 0x20 DUP3 ADD SWAP1 POP SWAP3 SWAP2 POP POP JUMP JUMPDEST PUSH0 PUSH2 0x3CE0 DUP3 PUSH2 0x3C3C JUMP JUMPDEST PUSH2 0x3CEA DUP2 DUP6 PUSH2 0x3CC6 JUMP JUMPDEST SWAP4 POP PUSH2 0x3CFA DUP2 DUP6 PUSH1 0x20 DUP7 ADD PUSH2 0x3C56 JUMP JUMPDEST PUSH2 0x3D03 DUP2 PUSH2 0x3C7E JUMP JUMPDEST DUP5 ADD SWAP2 POP POP SWAP3 SWAP2 POP POP JUMP JUMPDEST PUSH0 DUP2 SWAP1 POP SWAP2 SWAP1 POP JUMP JUMPDEST PUSH2 0x3D20 DUP2 PUSH2 0x3D0E JUMP JUMPDEST DUP3 MSTORE POP POP JUMP JUMPDEST PUSH0 PUSH1 0x80 DUP4 ADD PUSH0 DUP4 ADD MLOAD DUP5 DUP3 SUB PUSH0 DUP7 ADD MSTORE PUSH2 0x3D40 DUP3 DUP3 PUSH2 0x3CD6 JUMP JUMPDEST SWAP2 POP POP PUSH1 0x20 DUP4 ADD MLOAD DUP5 DUP3 SUB PUSH1 0x20 DUP7 ADD MSTORE PUSH2 0x3D5A DUP3 DUP3 PUSH2 0x3CD6 JUMP JUMPDEST SWAP2 POP POP PUSH1 0x40 DUP4 ADD MLOAD PUSH2 0x3D6F PUSH1 0x40 DUP7 ADD DUP3 PUSH2 0x3D17 JUMP JUMPDEST POP PUSH1 0x60 DUP4 ADD MLOAD PUSH2 0x3D82 PUSH1 0x60 DUP7 ADD DUP3 PUSH2 0x3D17 JUMP JUMPDEST POP DUP1 SWAP2 POP POP SWAP3 SWAP2 POP POP JUMP JUMPDEST PUSH0 PUSH2 0x3D97 DUP3 PUSH2 0x3B2B JUMP JUMPDEST SWAP1 POP SWAP2 SWAP1 POP JUMP JUMPDEST PUSH2 0x3DA7 DUP2 PUSH2 0x3D8D JUMP JUMPDEST DUP3 MSTORE POP POP JUMP JUMPDEST PUSH0 DUP2 ISZERO ISZERO SWAP1 POP SWAP2 SWAP1 POP JUMP JUMPDEST PUSH2 0x3DC1 DUP2 PUSH2 0x3DAD JUMP JUMPDEST DUP3 MSTORE POP POP JUMP JUMPDEST PUSH0 PUSH2 0x120 DUP3 ADD SWAP1 POP PUSH2 0x3DDB PUSH0 DUP4 ADD DUP13 PUSH2 0x3C2D JUMP JUMPDEST DUP2 DUP2 SUB PUSH1 0x20 DUP4 ADD MSTORE PUSH2 0x3DED DUP2 DUP12 PUSH2 0x3C8E JUMP JUMPDEST SWAP1 POP DUP2 DUP2 SUB PUSH1 0x40 DUP4 ADD MSTORE PUSH2 0x3E01 DUP2 DUP11 PUSH2 0x3C8E JUMP JUMPDEST SWAP1 POP DUP2 DUP2 SUB PUSH1 0x60 DUP4 ADD MSTORE PUSH2 0x3E15 DUP2 DUP10 PUSH2 0x3D26 JUMP JUMPDEST SWAP1 POP PUSH2 0x3E24 PUSH1 0x80 DUP4 ADD DUP9 PUSH2 0x3D9E JUMP JUMPDEST PUSH2 0x3E31 PUSH1 0xA0 DUP4 ADD DUP8 PUSH2 0x3C2D JUMP JUMPDEST PUSH2 0x3E3E PUSH1 0xC0 DUP4 ADD DUP7 PUSH2 0x3DB8 JUMP JUMPDEST PUSH2 0x3E4B PUSH1 0xE0 DUP4 ADD DUP6 PUSH2 0x3C2D JUMP JUMPDEST PUSH2 0x3E59 PUSH2 0x100 DUP4 ADD DUP5 PUSH2 0x3C2D JUMP JUMPDEST SWAP11 SWAP10 POP POP POP POP POP POP POP POP POP POP JUMP JUMPDEST PUSH0 PUSH1 0x20 DUP3 ADD SWAP1 POP PUSH2 0x3E7A PUSH0 DUP4 ADD DUP5 PUSH2 0x3C2D JUMP JUMPDEST SWAP3 SWAP2 POP POP JUMP JUMPDEST PUSH0 DUP1 PUSH1 0x40 DUP4 DUP6 SUB SLT ISZERO PUSH2 0x3E96 JUMPI PUSH2 0x3E95 PUSH2 0x3BC7 JUMP JUMPDEST JUMPDEST PUSH0 PUSH2 0x3EA3 DUP6 DUP3 DUP7 ADD PUSH2 0x3BEE JUMP JUMPDEST SWAP3 POP POP PUSH1 0x20 PUSH2 0x3EB4 DUP6 DUP3 DUP7 ADD PUSH2 0x3BEE JUMP JUMPDEST SWAP2 POP POP SWAP3 POP SWAP3 SWAP1 POP JUMP JUMPDEST PUSH0 PUSH1 0xA0 DUP3 ADD SWAP1 POP PUSH2 0x3ED1 PUSH0 DUP4 ADD DUP9 PUSH2 0x3C2D JUMP JUMPDEST PUSH2 0x3EDE PUSH1 0x20 DUP4 ADD DUP8 PUSH2 0x3D9E JUMP JUMPDEST PUSH2 0x3EEB PUSH1 0x40 DUP4 ADD DUP7 PUSH2 0x3C2D JUMP JUMPDEST PUSH2 0x3EF8 PUSH1 0x60 DUP4 ADD DUP6 PUSH2 0x3DB8 JUMP JUMPDEST PUSH2 0x3F05 PUSH1 0x80 DUP4 ADD DUP5 PUSH2 0x3DB8 JUMP JUMPDEST SWAP7 SWAP6 POP POP POP POP POP POP JUMP JUMPDEST PUSH0 PUSH1 0x20 DUP3 ADD SWAP1 POP PUSH2 0x3F22 PUSH0 DUP4 ADD DUP5 PUSH2 0x3DB8 JUMP JUMPDEST SWAP3 SWAP2 POP POP JUMP JUMPDEST PUSH0 PUSH1 0x80 DUP3 ADD SWAP1 POP PUSH2 0x3F3B PUSH0 DUP4 ADD DUP8 PUSH2 0x3DB8 JUMP JUMPDEST PUSH2 0x3F48 PUSH1 0x20 DUP4 ADD DUP7 PUSH2 0x3DB8 JUMP JUMPDEST PUSH2 0x3F55 PUSH1 0x40 DUP4 ADD DUP6 PUSH2 0x3D9E JUMP JUMPDEST PUSH2 0x3F62 PUSH1 0x60 DUP4 ADD DUP5 PUSH2 0x3C2D JUMP JUMPDEST SWAP6 SWAP5 POP POP POP POP POP JUMP JUMPDEST PUSH0 PUSH1 0xC0 DUP3 ADD SWAP1 POP PUSH2 0x3F7E PUSH0 DUP4 ADD DUP10 PUSH2 0x3DB8 JUMP JUMPDEST PUSH2 0x3F8B PUSH1 0x20 DUP4 ADD DUP9 PUSH2 0x3DB8 JUMP JUMPDEST PUSH2 0x3F98 PUSH1 0x40 DUP4 ADD DUP8 PUSH2 0x3DB8 JUMP JUMPDEST PUSH2 0x3FA5 PUSH1 0x60 DUP4 ADD DUP7 PUSH2 0x3C2D JUMP JUMPDEST PUSH2 0x3FB2 PUSH1 0x80 DUP4 ADD DUP6 PUSH2 0x3D9E JUMP JUMPDEST PUSH2 0x3FBF PUSH1 0xA0 DUP4 ADD DUP5 PUSH2 0x3C2D JUMP JUMPDEST SWAP8 SWAP7 POP POP POP POP POP POP POP JUMP JUMPDEST PUSH0 PUSH2 0x3FD4 DUP3 PUSH2 0x3B74 JUMP JUMPDEST SWAP1 POP SWAP2 SWAP1 POP JUMP JUMPDEST PUSH2 0x3FE4 DUP2 PUSH2 0x3FCA JUMP JUMPDEST DUP3 MSTORE POP POP JUMP JUMPDEST PUSH0 PUSH1 0x20 DUP3 ADD SWAP1 POP PUSH2 0x3FFD PUSH0 DUP4 ADD DUP5 PUSH2 0x3FDB JUMP JUMPDEST SWAP3 SWAP2 POP POP JUMP JUMPDEST PUSH0 DUP2 MLOAD SWAP1 POP SWAP2 SWAP1 POP JUMP JUMPDEST PUSH0 DUP3 DUP3 MSTORE PUSH1 0x20 DUP3 ADD SWAP1 POP SWAP3 SWAP2 POP POP JUMP JUMPDEST PUSH0 DUP2 SWAP1 POP PUSH1 0x20 DUP3 ADD SWAP1 POP SWAP2 SWAP1 POP JUMP JUMPDEST PUSH2 0x4035 DUP2 PUSH2 0x3BCF JUMP JUMPDEST DUP3 MSTORE POP POP JUMP JUMPDEST PUSH0 PUSH2 0x4046 DUP4 DUP4 PUSH2 0x402C JUMP JUMPDEST PUSH1 0x20 DUP4 ADD SWAP1 POP SWAP3 SWAP2 POP POP JUMP JUMPDEST PUSH0 PUSH1 0x20 DUP3 ADD SWAP1 POP SWAP2 SWAP1 POP JUMP JUMPDEST PUSH0 PUSH2 0x4068 DUP3 PUSH2 0x4003 JUMP JUMPDEST PUSH2 0x4072 DUP2 DUP6 PUSH2 0x400D JUMP JUMPDEST SWAP4 POP PUSH2 0x407D DUP4 PUSH2 0x401D JUMP JUMPDEST DUP1 PUSH0 JUMPDEST DUP4 DUP2 LT ISZERO PUSH2 0x40AD JUMPI DUP2 MLOAD PUSH2 0x4094 DUP9 DUP3 PUSH2 0x403B JUMP JUMPDEST SWAP8 POP PUSH2 0x409F DUP4 PUSH2 0x4052 JUMP JUMPDEST SWAP3 POP POP PUSH1 0x1 DUP2 ADD SWAP1 POP PUSH2 0x4080 JUMP JUMPDEST POP DUP6 SWAP4 POP POP POP POP SWAP3 SWAP2 POP POP JUMP JUMPDEST PUSH0 PUSH1 0x20 DUP3 ADD SWAP1 POP DUP2 DUP2 SUB PUSH0 DUP4 ADD MSTORE PUSH2 0x40D2 DUP2 DUP5 PUSH2 0x405E JUMP JUMPDEST SWAP1 POP SWAP3 SWAP2 POP POP JUMP JUMPDEST PUSH0 DUP1 REVERT JUMPDEST PUSH0 PUSH1 0xE0 DUP3 DUP5 SUB SLT ISZERO PUSH2 0x40F3 JUMPI PUSH2 0x40F2 PUSH2 0x40DA JUMP JUMPDEST JUMPDEST DUP2 SWAP1 POP SWAP3 SWAP2 POP POP JUMP JUMPDEST PUSH0 PUSH1 0x20 DUP3 DUP5 SUB SLT ISZERO PUSH2 0x4111 JUMPI PUSH2 0x4110 PUSH2 0x3BC7 JUMP JUMPDEST JUMPDEST PUSH0 DUP3 ADD CALLDATALOAD PUSH8 0xFFFFFFFFFFFFFFFF DUP2 GT ISZERO PUSH2 0x412E JUMPI PUSH2 0x412D PUSH2 0x3BCB JUMP JUMPDEST JUMPDEST PUSH2 0x413A DUP5 DUP3 DUP6 ADD PUSH2 0x40DE JUMP JUMPDEST SWAP2 POP POP SWAP3 SWAP2 POP POP JUMP JUMPDEST PUSH0 PUSH1 0x80 DUP4 ADD PUSH0 DUP4 ADD MLOAD DUP5 DUP3 SUB PUSH0 DUP7 ADD MSTORE PUSH2 0x415D DUP3 DUP3 PUSH2 0x3CD6 JUMP JUMPDEST SWAP2 POP POP PUSH1 0x20 DUP4 ADD MLOAD DUP5 DUP3 SUB PUSH1 0x20 DUP7 ADD MSTORE PUSH2 0x4177 DUP3 DUP3 PUSH2 0x3CD6 JUMP JUMPDEST SWAP2 POP POP PUSH1 0x40 DUP4 ADD MLOAD PUSH2 0x418C PUSH1 0x40 DUP7 ADD DUP3 PUSH2 0x3D17 JUMP JUMPDEST POP PUSH1 0x60 DUP4 ADD MLOAD PUSH2 0x419F PUSH1 0x60 DUP7 ADD DUP3 PUSH2 0x3D17 JUMP JUMPDEST POP DUP1 SWAP2 POP POP SWAP3 SWAP2 POP POP JUMP JUMPDEST PUSH2 0x41B3 DUP2 PUSH2 0x3D8D JUMP JUMPDEST DUP3 MSTORE POP POP JUMP JUMPDEST PUSH2 0x41C2 DUP2 PUSH2 0x3DAD JUMP JUMPDEST DUP3 MSTORE POP POP JUMP JUMPDEST PUSH0 PUSH2 0x120 DUP4 ADD PUSH0 DUP4 ADD MLOAD PUSH2 0x41DE PUSH0 DUP7 ADD DUP3 PUSH2 0x402C JUMP JUMPDEST POP PUSH1 0x20 DUP4 ADD MLOAD DUP5 DUP3 SUB PUSH1 0x20 DUP7 ADD MSTORE PUSH2 0x41F6 DUP3 DUP3 PUSH2 0x3CD6 JUMP JUMPDEST SWAP2 POP POP PUSH1 0x40 DUP4 ADD MLOAD DUP5 DUP3 SUB PUSH1 0x40 DUP7 ADD MSTORE PUSH2 0x4210 DUP3 DUP3 PUSH2 0x3CD6 JUMP JUMPDEST SWAP2 POP POP PUSH1 0x60 DUP4 ADD MLOAD DUP5 DUP3 SUB PUSH1 0x60 DUP7 ADD MSTORE PUSH2 0x422A DUP3 DUP3 PUSH2 0x4143 JUMP JUMPDEST SWAP2 POP POP PUSH1 0x80 DUP4 ADD MLOAD PUSH2 0x423F PUSH1 0x80 DUP7 ADD DUP3 PUSH2 0x41AA JUMP JUMPDEST POP PUSH1 0xA0 DUP4 ADD MLOAD PUSH2 0x4252 PUSH1 0xA0 DUP7 ADD DUP3 PUSH2 0x402C JUMP JUMPDEST POP PUSH1 0xC0 DUP4 ADD MLOAD PUSH2 0x4265 PUSH1 0xC0 DUP7 ADD DUP3 PUSH2 0x41B9 JUMP JUMPDEST POP PUSH1 0xE0 DUP4 ADD MLOAD PUSH2 0x4278 PUSH1 0xE0 DUP7 ADD DUP3 PUSH2 0x402C JUMP JUMPDEST POP PUSH2 0x100 DUP4 ADD MLOAD PUSH2 0x428D PUSH2 0x100 DUP7 ADD DUP3 PUSH2 0x402C JUMP JUMPDEST POP DUP1 SWAP2 POP POP SWAP3 SWAP2 POP POP JUMP JUMPDEST PUSH0 PUSH1 0x20 DUP3 ADD SWAP1 POP DUP2 DUP2 SUB PUSH0 DUP4 ADD MSTORE PUSH2 0x42B0 DUP2 DUP5 PUSH2 0x41C8 JUMP JUMPDEST SWAP1 POP SWAP3 SWAP2 POP POP JUMP JUMPDEST PUSH0 PUSH1 0xE0 DUP3 ADD SWAP1 POP PUSH2 0x42CB PUSH0 DUP4 ADD DUP11 PUSH2 0x3D9E JUMP JUMPDEST DUP2 DUP2 SUB PUSH1 0x20 DUP4 ADD MSTORE PUSH2 0x42DD DUP2 DUP10 PUSH2 0x3C8E JUMP JUMPDEST SWAP1 POP DUP2 DUP2 SUB PUSH1 0x40 DUP4 ADD MSTORE PUSH2 0x42F1 DUP2 DUP9 PUSH2 0x3C8E JUMP JUMPDEST SWAP1 POP DUP2 DUP2 SUB PUSH1 0x60 DUP4 ADD MSTORE PUSH2 0x4305 DUP2 DUP8 PUSH2 0x3D26 JUMP JUMPDEST SWAP1 POP PUSH2 0x4314 PUSH1 0x80 DUP4 ADD DUP7 PUSH2 0x3C2D JUMP JUMPDEST PUSH2 0x4321 PUSH1 0xA0 DUP4 ADD DUP6 PUSH2 0x3DB8 JUMP JUMPDEST PUSH2 0x432E PUSH1 0xC0 DUP4 ADD DUP5 PUSH2 0x3DB8 JUMP JUMPDEST SWAP9 SWAP8 POP POP POP POP POP POP POP POP JUMP JUMPDEST PUSH32 0x4E487B7100000000000000000000000000000000000000000000000000000000 PUSH0 MSTORE PUSH1 0x22 PUSH1 0x4 MSTORE PUSH1 0x24 PUSH0 REVERT JUMPDEST PUSH0 PUSH1 0x2 DUP3 DIV SWAP1 POP PUSH1 0x1 DUP3 AND DUP1 PUSH2 0x437E JUMPI PUSH1 0x7F DUP3 AND SWAP2 POP JUMPDEST PUSH1 0x20 DUP3 LT DUP2 SUB PUSH2 0x4391 JUMPI PUSH2 0x4390 PUSH2 0x433A JUMP JUMPDEST JUMPDEST POP SWAP2 SWAP1 POP JUMP JUMPDEST PUSH0 DUP2 SWAP1 POP SWAP2 SWAP1 POP JUMP JUMPDEST PUSH2 0x43A9 DUP2 PUSH2 0x4397 JUMP JUMPDEST DUP2 EQ PUSH2 0x43B3 JUMPI PUSH0 DUP1 REVERT JUMPDEST POP JUMP JUMPDEST PUSH0 DUP2 MLOAD SWAP1 POP PUSH2 0x43C4 DUP2 PUSH2 0x43A0 JUMP JUMPDEST SWAP3 SWAP2 POP POP JUMP JUMPDEST PUSH0 PUSH1 0x20 DUP3 DUP5 SUB SLT ISZERO PUSH2 0x43DF JUMPI PUSH2 0x43DE PUSH2 0x3BC7 JUMP JUMPDEST JUMPDEST PUSH0 PUSH2 0x43EC DUP5 DUP3 DUP6 ADD PUSH2 0x43B6 JUMP JUMPDEST SWAP2 POP POP SWAP3 SWAP2 POP POP JUMP JUMPDEST PUSH2 0x43FE DUP2 PUSH2 0x4397 JUMP JUMPDEST DUP3 MSTORE POP POP JUMP JUMPDEST PUSH0 PUSH1 0x40 DUP3 ADD SWAP1 POP PUSH2 0x4417 PUSH0 DUP4 ADD DUP6 PUSH2 0x43F5 JUMP JUMPDEST PUSH2 0x4424 PUSH1 0x20 DUP4 ADD DUP5 PUSH2 0x3D9E JUMP JUMPDEST SWAP4 SWAP3 POP POP POP JUMP JUMPDEST PUSH2 0x4434 DUP2 PUSH2 0x3DAD JUMP JUMPDEST DUP2 EQ PUSH2 0x443E JUMPI PUSH0 DUP1 REVERT JUMPDEST POP JUMP JUMPDEST PUSH0 DUP2 MLOAD SWAP1 POP PUSH2 0x444F DUP2 PUSH2 0x442B JUMP JUMPDEST SWAP3 SWAP2 POP POP JUMP JUMPDEST PUSH0 PUSH1 0x20 DUP3 DUP5 SUB SLT ISZERO PUSH2 0x446A JUMPI PUSH2 0x4469 PUSH2 0x3BC7 JUMP JUMPDEST JUMPDEST PUSH0 PUSH2 0x4477 DUP5 DUP3 DUP6 ADD PUSH2 0x4441 JUMP JUMPDEST SWAP2 POP POP SWAP3 SWAP2 POP POP JUMP JUMPDEST PUSH32 0x43616C6C6572206973206E6F7420616E2061646D696E00000000000000000000 PUSH0 DUP3 ADD MSTORE POP JUMP JUMPDEST PUSH0 PUSH2 0x44B4 PUSH1 0x16 DUP4 PUSH2 0x3C46 JUMP JUMPDEST SWAP2 POP PUSH2 0x44BF DUP3 PUSH2 0x4480 JUMP JUMPDEST PUSH1 0x20 DUP3 ADD SWAP1 POP SWAP2 SWAP1 POP JUMP JUMPDEST PUSH0 PUSH1 0x20 DUP3 ADD SWAP1 POP DUP2 DUP2 SUB PUSH0 DUP4 ADD MSTORE PUSH2 0x44E1 DUP2 PUSH2 0x44A8 JUMP JUMPDEST SWAP1 POP SWAP2 SWAP1 POP JUMP JUMPDEST PUSH32 0x496E76616C69642070657263656E746167650000000000000000000000000000 PUSH0 DUP3 ADD MSTORE POP JUMP JUMPDEST PUSH0 PUSH2 0x451C PUSH1 0x12 DUP4 PUSH2 0x3C46 JUMP JUMPDEST SWAP2 POP PUSH2 0x4527 DUP3 PUSH2 0x44E8 JUMP JUMPDEST PUSH1 0x20 DUP3 ADD SWAP1 POP SWAP2 SWAP1 POP JUMP JUMPDEST PUSH0 PUSH1 0x20 DUP3 ADD SWAP1 POP DUP2 DUP2 SUB PUSH0 DUP4 ADD MSTORE PUSH2 0x4549 DUP2 PUSH2 0x4510 JUMP JUMPDEST SWAP1 POP SWAP2 SWAP1 POP JUMP JUMPDEST PUSH32 0x43616C6C6572206973206E6F74207468652067616C6C657279206F776E657200 PUSH0 DUP3 ADD MSTORE POP JUMP JUMPDEST PUSH0 PUSH2 0x4584 PUSH1 0x1F DUP4 PUSH2 0x3C46 JUMP JUMPDEST SWAP2 POP PUSH2 0x458F DUP3 PUSH2 0x4550 JUMP JUMPDEST PUSH1 0x20 DUP3 ADD SWAP1 POP SWAP2 SWAP1 POP JUMP JUMPDEST PUSH0 PUSH1 0x20 DUP3 ADD SWAP1 POP DUP2 DUP2 SUB PUSH0 DUP4 ADD MSTORE PUSH2 0x45B1 DUP2 PUSH2 0x4578 JUMP JUMPDEST SWAP1 POP SWAP2 SWAP1 POP JUMP JUMPDEST PUSH32 0x52657175657374206E6F742070656E64696E6700000000000000000000000000 PUSH0 DUP3 ADD MSTORE POP JUMP JUMPDEST PUSH0 PUSH2 0x45EC PUSH1 0x13 DUP4 PUSH2 0x3C46 JUMP JUMPDEST SWAP2 POP PUSH2 0x45F7 DUP3 PUSH2 0x45B8 JUMP JUMPDEST PUSH1 0x20 DUP3 ADD SWAP1 POP SWAP2 SWAP1 POP JUMP JUMPDEST PUSH0 PUSH1 0x20 DUP3 ADD SWAP1 POP DUP2 DUP2 SUB PUSH0 DUP4 ADD MSTORE PUSH2 0x4619 DUP2 PUSH2 0x45E0 JUMP JUMPDEST SWAP1 POP SWAP2 SWAP1 POP JUMP JUMPDEST PUSH32 0x47616C6C657279206E6F74206163746976650000000000000000000000000000 PUSH0 DUP3 ADD MSTORE POP JUMP JUMPDEST PUSH0 PUSH2 0x4654 PUSH1 0x12 DUP4 PUSH2 0x3C46 JUMP JUMPDEST SWAP2 POP PUSH2 0x465F DUP3 PUSH2 0x4620 JUMP JUMPDEST PUSH1 0x20 DUP3 ADD SWAP1 POP SWAP2 SWAP1 POP JUMP JUMPDEST PUSH0 PUSH1 0x20 DUP3 ADD SWAP1 POP DUP2 DUP2 SUB PUSH0 DUP4 ADD MSTORE PUSH2 0x4681 DUP2 PUSH2 0x4648 JUMP JUMPDEST SWAP1 POP SWAP2 SWAP1 POP JUMP JUMPDEST PUSH0 DUP2 SWAP1 POP SWAP2 SWAP1 POP JUMP JUMPDEST PUSH0 PUSH2 0x46AB PUSH2 0x46A6 PUSH2 0x46A1 DUP5 PUSH2 0x4688 JUMP JUMPDEST PUSH2 0x3B4A JUMP JUMPDEST PUSH2 0x3BCF JUMP JUMPDEST SWAP1 POP SWAP2 SWAP1 POP JUMP JUMPDEST PUSH2 0x46BB DUP2 PUSH2 0x4691 JUMP JUMPDEST DUP3 MSTORE POP POP JUMP JUMPDEST PUSH0 PUSH1 0x60 DUP3 ADD SWAP1 POP PUSH2 0x46D4 PUSH0 DUP4 ADD DUP7 PUSH2 0x3C2D JUMP JUMPDEST PUSH2 0x46E1 PUSH1 0x20 DUP4 ADD DUP6 PUSH2 0x46B2 JUMP JUMPDEST PUSH2 0x46EE PUSH1 0x40 DUP4 ADD DUP5 PUSH2 0x3DB8 JUMP JUMPDEST SWAP5 SWAP4 POP POP POP POP JUMP JUMPDEST PUSH32 0x4D75737420686176652057414C4C5F4F574E45525F524F4C4500000000000000 PUSH0 DUP3 ADD MSTORE POP JUMP JUMPDEST PUSH0 PUSH2 0x472A PUSH1 0x19 DUP4 PUSH2 0x3C46 JUMP JUMPDEST SWAP2 POP PUSH2 0x4735 DUP3 PUSH2 0x46F6 JUMP JUMPDEST PUSH1 0x20 DUP3 ADD SWAP1 POP SWAP2 SWAP1 POP JUMP JUMPDEST PUSH0 PUSH1 0x20 DUP3 ADD SWAP1 POP DUP2 DUP2 SUB PUSH0 DUP4 ADD MSTORE PUSH2 0x4757 DUP2 PUSH2 0x471E JUMP JUMPDEST SWAP1 POP SWAP2 SWAP1 POP JUMP JUMPDEST PUSH0 DUP1 REVERT JUMPDEST PUSH32 0x4E487B7100000000000000000000000000000000000000000000000000000000 PUSH0 MSTORE PUSH1 0x41 PUSH1 0x4 MSTORE PUSH1 0x24 PUSH0 REVERT JUMPDEST PUSH2 0x4798 DUP3 PUSH2 0x3C7E JUMP JUMPDEST DUP2 ADD DUP2 DUP2 LT PUSH8 0xFFFFFFFFFFFFFFFF DUP3 GT OR ISZERO PUSH2 0x47B7 JUMPI PUSH2 0x47B6 PUSH2 0x4762 JUMP JUMPDEST JUMPDEST DUP1 PUSH1 0x40 MSTORE POP POP POP JUMP JUMPDEST PUSH0 PUSH2 0x47C9 PUSH2 0x3BBE JUMP JUMPDEST SWAP1 POP PUSH2 0x47D5 DUP3 DUP3 PUSH2 0x478F JUMP JUMPDEST SWAP2 SWAP1 POP JUMP JUMPDEST PUSH0 DUP1 REVERT JUMPDEST PUSH0 DUP2 MLOAD SWAP1 POP PUSH2 0x47EC DUP2 PUSH2 0x3BD8 JUMP JUMPDEST SWAP3 SWAP2 POP POP JUMP JUMPDEST PUSH2 0x47FB DUP2 PUSH2 0x3D8D JUMP JUMPDEST DUP2 EQ PUSH2 0x4805 JUMPI PUSH0 DUP1 REVERT JUMPDEST POP JUMP JUMPDEST PUSH0 DUP2 MLOAD SWAP1 POP PUSH2 0x4816 DUP2 PUSH2 0x47F2 JUMP JUMPDEST SWAP3 SWAP2 POP POP JUMP JUMPDEST PUSH0 DUP1 REVERT JUMPDEST PUSH0 DUP1 REVERT JUMPDEST PUSH0 PUSH8 0xFFFFFFFFFFFFFFFF DUP3 GT ISZERO PUSH2 0x483E JUMPI PUSH2 0x483D PUSH2 0x4762 JUMP JUMPDEST JUMPDEST PUSH2 0x4847 DUP3 PUSH2 0x3C7E JUMP JUMPDEST SWAP1 POP PUSH1 0x20 DUP2 ADD SWAP1 POP SWAP2 SWAP1 POP JUMP JUMPDEST PUSH0 PUSH2 0x4866 PUSH2 0x4861 DUP5 PUSH2 0x4824 JUMP JUMPDEST PUSH2 0x47C0 JUMP JUMPDEST SWAP1 POP DUP3 DUP2 MSTORE PUSH1 0x20 DUP2 ADD DUP5 DUP5 DUP5 ADD GT ISZERO PUSH2 0x4882 JUMPI PUSH2 0x4881 PUSH2 0x4820 JUMP JUMPDEST JUMPDEST PUSH2 0x488D DUP5 DUP3 DUP6 PUSH2 0x3C56 JUMP JUMPDEST POP SWAP4 SWAP3 POP POP POP JUMP JUMPDEST PUSH0 DUP3 PUSH1 0x1F DUP4 ADD SLT PUSH2 0x48A9 JUMPI PUSH2 0x48A8 PUSH2 0x481C JUMP JUMPDEST JUMPDEST DUP2 MLOAD PUSH2 0x48B9 DUP5 DUP3 PUSH1 0x20 DUP7 ADD PUSH2 0x4854 JUMP JUMPDEST SWAP2 POP POP SWAP3 SWAP2 POP POP JUMP JUMPDEST PUSH2 0x48CB DUP2 PUSH2 0x3D0E JUMP JUMPDEST DUP2 EQ PUSH2 0x48D5 JUMPI PUSH0 DUP1 REVERT JUMPDEST POP JUMP JUMPDEST PUSH0 DUP2 MLOAD SWAP1 POP PUSH2 0x48E6 DUP2 PUSH2 0x48C2 JUMP JUMPDEST SWAP3 SWAP2 POP POP JUMP JUMPDEST PUSH0 PUSH1 0xA0 DUP3 DUP5 SUB SLT ISZERO PUSH2 0x4901 JUMPI PUSH2 0x4900 PUSH2 0x475E JUMP JUMPDEST JUMPDEST PUSH2 0x490B PUSH1 0xA0 PUSH2 0x47C0 JUMP JUMPDEST SWAP1 POP PUSH0 DUP3 ADD MLOAD PUSH8 0xFFFFFFFFFFFFFFFF DUP2 GT ISZERO PUSH2 0x492A JUMPI PUSH2 0x4929 PUSH2 0x47DA JUMP JUMPDEST JUMPDEST PUSH2 0x4936 DUP5 DUP3 DUP6 ADD PUSH2 0x4895 JUMP JUMPDEST PUSH0 DUP4 ADD MSTORE POP PUSH1 0x20 DUP3 ADD MLOAD PUSH8 0xFFFFFFFFFFFFFFFF DUP2 GT ISZERO PUSH2 0x4959 JUMPI PUSH2 0x4958 PUSH2 0x47DA JUMP JUMPDEST JUMPDEST PUSH2 0x4965 DUP5 DUP3 DUP6 ADD PUSH2 0x4895 JUMP JUMPDEST PUSH1 0x20 DUP4 ADD MSTORE POP PUSH1 0x40 DUP3 ADD MLOAD PUSH8 0xFFFFFFFFFFFFFFFF DUP2 GT ISZERO PUSH2 0x4989 JUMPI PUSH2 0x4988 PUSH2 0x47DA JUMP JUMPDEST JUMPDEST PUSH2 0x4995 DUP5 DUP3 DUP6 ADD PUSH2 0x4895 JUMP JUMPDEST PUSH1 0x40 DUP4 ADD MSTORE POP PUSH1 0x60 PUSH2 0x49A9 DUP5 DUP3 DUP6 ADD PUSH2 0x48D8 JUMP JUMPDEST PUSH1 0x60 DUP4 ADD MSTORE POP PUSH1 0x80 PUSH2 0x49BD DUP5 DUP3 DUP6 ADD PUSH2 0x48D8 JUMP JUMPDEST PUSH1 0x80 DUP4 ADD MSTORE POP SWAP3 SWAP2 POP POP JUMP JUMPDEST PUSH0 PUSH2 0x120 DUP3 DUP5 SUB SLT ISZERO PUSH2 0x49DF JUMPI PUSH2 0x49DE PUSH2 0x475E JUMP JUMPDEST JUMPDEST PUSH2 0x49EA PUSH2 0x120 PUSH2 0x47C0 JUMP JUMPDEST SWAP1 POP PUSH0 PUSH2 0x49F9 DUP5 DUP3 DUP6 ADD PUSH2 0x47DE JUMP JUMPDEST PUSH0 DUP4 ADD MSTORE POP PUSH1 0x20 PUSH2 0x4A0C DUP5 DUP3 DUP6 ADD PUSH2 0x4808 JUMP JUMPDEST PUSH1 0x20 DUP4 ADD MSTORE POP PUSH1 0x40 DUP3 ADD MLOAD PUSH8 0xFFFFFFFFFFFFFFFF DUP2 GT ISZERO PUSH2 0x4A30 JUMPI PUSH2 0x4A2F PUSH2 0x47DA JUMP JUMPDEST JUMPDEST PUSH2 0x4A3C DUP5 DUP3 DUP6 ADD PUSH2 0x48EC JUMP JUMPDEST PUSH1 0x40 DUP4 ADD MSTORE POP PUSH1 0x60 PUSH2 0x4A50 DUP5 DUP3 DUP6 ADD PUSH2 0x47DE JUMP JUMPDEST PUSH1 0x60 DUP4 ADD MSTORE POP PUSH1 0x80 PUSH2 0x4A64 DUP5 DUP3 DUP6 ADD PUSH2 0x47DE JUMP JUMPDEST PUSH1 0x80 DUP4 ADD MSTORE POP PUSH1 0xA0 PUSH2 0x4A78 DUP5 DUP3 DUP6 ADD PUSH2 0x4441 JUMP JUMPDEST PUSH1 0xA0 DUP4 ADD MSTORE POP PUSH1 0xC0 PUSH2 0x4A8C DUP5 DUP3 DUP6 ADD PUSH2 0x47DE JUMP JUMPDEST PUSH1 0xC0 DUP4 ADD MSTORE POP PUSH1 0xE0 PUSH2 0x4AA0 DUP5 DUP3 DUP6 ADD PUSH2 0x47DE JUMP JUMPDEST PUSH1 0xE0 DUP4 ADD MSTORE POP PUSH2 0x100 PUSH2 0x4AB5 DUP5 DUP3 DUP6 ADD PUSH2 0x47DE JUMP JUMPDEST PUSH2 0x100 DUP4 ADD MSTORE POP SWAP3 SWAP2 POP POP JUMP JUMPDEST PUSH0 PUSH1 0x20 DUP3 DUP5 SUB SLT ISZERO PUSH2 0x4AD7 JUMPI PUSH2 0x4AD6 PUSH2 0x3BC7 JUMP JUMPDEST JUMPDEST PUSH0 DUP3 ADD MLOAD PUSH8 0xFFFFFFFFFFFFFFFF DUP2 GT ISZERO PUSH2 0x4AF4 JUMPI PUSH2 0x4AF3 PUSH2 0x3BCB JUMP JUMPDEST JUMPDEST PUSH2 0x4B00 DUP5 DUP3 DUP6 ADD PUSH2 0x49C9 JUMP JUMPDEST SWAP2 POP POP SWAP3 SWAP2 POP POP JUMP JUMPDEST PUSH32 0x4E6F742077616C6C206F776E6572000000000000000000000000000000000000 PUSH0 DUP3 ADD MSTORE POP JUMP JUMPDEST PUSH0 PUSH2 0x4B3D PUSH1 0xE DUP4 PUSH2 0x3C46 JUMP JUMPDEST SWAP2 POP PUSH2 0x4B48 DUP3 PUSH2 0x4B09 JUMP JUMPDEST PUSH1 0x20 DUP3 ADD SWAP1 POP SWAP2 SWAP1 POP JUMP JUMPDEST PUSH0 PUSH1 0x20 DUP3 ADD SWAP1 POP DUP2 DUP2 SUB PUSH0 DUP4 ADD MSTORE PUSH2 0x4B6A DUP2 PUSH2 0x4B31 JUMP JUMPDEST SWAP1 POP SWAP2 SWAP1 POP JUMP JUMPDEST PUSH32 0x57616C6C20616C726561647920696E20612067616C6C65727900000000000000 PUSH0 DUP3 ADD MSTORE POP JUMP JUMPDEST PUSH0 PUSH2 0x4BA5 PUSH1 0x19 DUP4 PUSH2 0x3C46 JUMP JUMPDEST SWAP2 POP PUSH2 0x4BB0 DUP3 PUSH2 0x4B71 JUMP JUMPDEST PUSH1 0x20 DUP3 ADD SWAP1 POP SWAP2 SWAP1 POP JUMP JUMPDEST PUSH0 PUSH1 0x20 DUP3 ADD SWAP1 POP DUP2 DUP2 SUB PUSH0 DUP4 ADD MSTORE PUSH2 0x4BD2 DUP2 PUSH2 0x4B99 JUMP JUMPDEST SWAP1 POP SWAP2 SWAP1 POP JUMP JUMPDEST PUSH32 0x4E487B7100000000000000000000000000000000000000000000000000000000 PUSH0 MSTORE PUSH1 0x11 PUSH1 0x4 MSTORE PUSH1 0x24 PUSH0 REVERT JUMPDEST PUSH0 PUSH2 0x4C10 DUP3 PUSH2 0x3BCF JUMP JUMPDEST SWAP2 POP PUSH2 0x4C1B DUP4 PUSH2 0x3BCF JUMP JUMPDEST SWAP3 POP DUP3 DUP3 ADD SWAP1 POP DUP1 DUP3 GT ISZERO PUSH2 0x4C33 JUMPI PUSH2 0x4C32 PUSH2 0x4BD9 JUMP JUMPDEST JUMPDEST SWAP3 SWAP2 POP POP JUMP JUMPDEST PUSH32 0x546F74616C2070657263656E7461676520657863656564732031303025000000 PUSH0 DUP3 ADD MSTORE POP JUMP JUMPDEST PUSH0 PUSH2 0x4C6D PUSH1 0x1D DUP4 PUSH2 0x3C46 JUMP JUMPDEST SWAP2 POP PUSH2 0x4C78 DUP3 PUSH2 0x4C39 JUMP JUMPDEST PUSH1 0x20 DUP3 ADD SWAP1 POP SWAP2 SWAP1 POP JUMP JUMPDEST PUSH0 PUSH1 0x20 DUP3 ADD SWAP1 POP DUP2 DUP2 SUB PUSH0 DUP4 ADD MSTORE PUSH2 0x4C9A DUP2 PUSH2 0x4C61 JUMP JUMPDEST SWAP1 POP SWAP2 SWAP1 POP JUMP JUMPDEST PUSH32 0x4D75737420686176652047414C4C4552595F4F574E45525F524F4C4500000000 PUSH0 DUP3 ADD MSTORE POP JUMP JUMPDEST PUSH0 PUSH2 0x4CD5 PUSH1 0x1C DUP4 PUSH2 0x3C46 JUMP JUMPDEST SWAP2 POP PUSH2 0x4CE0 DUP3 PUSH2 0x4CA1 JUMP JUMPDEST PUSH1 0x20 DUP3 ADD SWAP1 POP SWAP2 SWAP1 POP JUMP JUMPDEST PUSH0 PUSH1 0x20 DUP3 ADD SWAP1 POP DUP2 DUP2 SUB PUSH0 DUP4 ADD MSTORE PUSH2 0x4D02 DUP2 PUSH2 0x4CC9 JUMP JUMPDEST SWAP1 POP SWAP2 SWAP1 POP JUMP JUMPDEST PUSH0 DUP1 REVERT JUMPDEST PUSH0 DUP1 REVERT JUMPDEST PUSH0 DUP1 REVERT JUMPDEST PUSH0 DUP1 DUP4 CALLDATALOAD PUSH1 0x1 PUSH1 0x20 SUB DUP5 CALLDATASIZE SUB SUB DUP2 SLT PUSH2 0x4D31 JUMPI PUSH2 0x4D30 PUSH2 0x4D09 JUMP JUMPDEST JUMPDEST DUP1 DUP5 ADD SWAP3 POP DUP3 CALLDATALOAD SWAP2 POP PUSH8 0xFFFFFFFFFFFFFFFF DUP3 GT ISZERO PUSH2 0x4D53 JUMPI PUSH2 0x4D52 PUSH2 0x4D0D JUMP JUMPDEST JUMPDEST PUSH1 0x20 DUP4 ADD SWAP3 POP PUSH1 0x1 DUP3 MUL CALLDATASIZE SUB DUP4 SGT ISZERO PUSH2 0x4D6F JUMPI PUSH2 0x4D6E PUSH2 0x4D11 JUMP JUMPDEST JUMPDEST POP SWAP3 POP SWAP3 SWAP1 POP JUMP JUMPDEST PUSH32 0x4E616D6520726571756972656400000000000000000000000000000000000000 PUSH0 DUP3 ADD MSTORE POP JUMP JUMPDEST PUSH0 PUSH2 0x4DAB PUSH1 0xD DUP4 PUSH2 0x3C46 JUMP JUMPDEST SWAP2 POP PUSH2 0x4DB6 DUP3 PUSH2 0x4D77 JUMP JUMPDEST PUSH1 0x20 DUP3 ADD SWAP1 POP SWAP2 SWAP1 POP JUMP JUMPDEST PUSH0 PUSH1 0x20 DUP3 ADD SWAP1 POP DUP2 DUP2 SUB PUSH0 DUP4 ADD MSTORE PUSH2 0x4DD8 DUP2 PUSH2 0x4D9F JUMP JUMPDEST SWAP1 POP SWAP2 SWAP1 POP JUMP JUMPDEST PUSH32 0x4D6178206F776E6572736869702070657263656E746167652069732035302500 PUSH0 DUP3 ADD MSTORE POP JUMP JUMPDEST PUSH0 PUSH2 0x4E13 PUSH1 0x1F DUP4 PUSH2 0x3C46 JUMP JUMPDEST SWAP2 POP PUSH2 0x4E1E DUP3 PUSH2 0x4DDF JUMP JUMPDEST PUSH1 0x20 DUP3 ADD SWAP1 POP SWAP2 SWAP1 POP JUMP JUMPDEST PUSH0 PUSH1 0x20 DUP3 ADD SWAP1 POP DUP2 DUP2 SUB PUSH0 DUP4 ADD MSTORE PUSH2 0x4E40 DUP2 PUSH2 0x4E07 JUMP JUMPDEST SWAP1 POP SWAP2 SWAP1 POP JUMP JUMPDEST PUSH0 DUP2 SWAP1 POP DUP2 PUSH0 MSTORE PUSH1 0x20 PUSH0 KECCAK256 SWAP1 POP SWAP2 SWAP1 POP JUMP JUMPDEST PUSH0 PUSH1 0x20 PUSH1 0x1F DUP4 ADD DIV SWAP1 POP SWAP2 SWAP1 POP JUMP JUMPDEST PUSH0 DUP3 DUP3 SHL SWAP1 POP SWAP3 SWAP2 POP POP JUMP JUMPDEST PUSH0 PUSH1 0x8 DUP4 MUL PUSH2 0x4EA3 PUSH32 0xFFFFFFFFFFFFFFFFFFFFFFFFFFFFFFFFFFFFFFFFFFFFFFFFFFFFFFFFFFFFFFFF DUP3 PUSH2 0x4E68 JUMP JUMPDEST PUSH2 0x4EAD DUP7 DUP4 PUSH2 0x4E68 JUMP JUMPDEST SWAP6 POP DUP1 NOT DUP5 AND SWAP4 POP DUP1 DUP7 AND DUP5 OR SWAP3 POP POP POP SWAP4 SWAP3 POP POP POP JUMP JUMPDEST PUSH0 PUSH2 0x4EDF PUSH2 0x4EDA PUSH2 0x4ED5 DUP5 PUSH2 0x3BCF JUMP JUMPDEST PUSH2 0x3B4A JUMP JUMPDEST PUSH2 0x3BCF JUMP JUMPDEST SWAP1 POP SWAP2 SWAP1 POP JUMP JUMPDEST PUSH0 DUP2 SWAP1 POP SWAP2 SWAP1 POP JUMP JUMPDEST PUSH2 0x4EF8 DUP4 PUSH2 0x4EC5 JUMP JUMPDEST PUSH2 0x4F0C PUSH2 0x4F04 DUP3 PUSH2 0x4EE6 JUMP JUMPDEST DUP5 DUP5 SLOAD PUSH2 0x4E74 JUMP JUMPDEST DUP3 SSTORE POP POP POP POP JUMP JUMPDEST PUSH0 SWAP1 JUMP JUMPDEST PUSH2 0x4F20 PUSH2 0x4F14 JUMP JUMPDEST PUSH2 0x4F2B DUP2 DUP5 DUP5 PUSH2 0x4EEF JUMP JUMPDEST POP POP POP JUMP JUMPDEST JUMPDEST DUP2 DUP2 LT ISZERO PUSH2 0x4F4E JUMPI PUSH2 0x4F43 PUSH0 DUP3 PUSH2 0x4F18 JUMP JUMPDEST PUSH1 0x1 DUP2 ADD SWAP1 POP PUSH2 0x4F31 JUMP JUMPDEST POP POP JUMP JUMPDEST PUSH1 0x1F DUP3 GT ISZERO PUSH2 0x4F93 JUMPI PUSH2 0x4F64 DUP2 PUSH2 0x4E47 JUMP JUMPDEST PUSH2 0x4F6D DUP5 PUSH2 0x4E59 JUMP JUMPDEST DUP2 ADD PUSH1 0x20 DUP6 LT ISZERO PUSH2 0x4F7C JUMPI DUP2 SWAP1 POP JUMPDEST PUSH2 0x4F90 PUSH2 0x4F88 DUP6 PUSH2 0x4E59 JUMP JUMPDEST DUP4 ADD DUP3 PUSH2 0x4F30 JUMP JUMPDEST POP POP JUMPDEST POP POP POP JUMP JUMPDEST PUSH0 DUP3 DUP3 SHR SWAP1 POP SWAP3 SWAP2 POP POP JUMP JUMPDEST PUSH0 PUSH2 0x4FB3 PUSH0 NOT DUP5 PUSH1 0x8 MUL PUSH2 0x4F98 JUMP JUMPDEST NOT DUP1 DUP4 AND SWAP2 POP POP SWAP3 SWAP2 POP POP JUMP JUMPDEST PUSH0 PUSH2 0x4FCB DUP4 DUP4 PUSH2 0x4FA4 JUMP JUMPDEST SWAP2 POP DUP3 PUSH1 0x2 MUL DUP3 OR SWAP1 POP SWAP3 SWAP2 POP POP JUMP JUMPDEST PUSH2 0x4FE4 DUP3 PUSH2 0x3C3C JUMP JUMPDEST PUSH8 0xFFFFFFFFFFFFFFFF DUP2 GT ISZERO PUSH2 0x4FFD JUMPI PUSH2 0x4FFC PUSH2 0x4762 JUMP JUMPDEST JUMPDEST PUSH2 0x5007 DUP3 SLOAD PUSH2 0x4367 JUMP JUMPDEST PUSH2 0x5012 DUP3 DUP3 DUP6 PUSH2 0x4F52 JUMP JUMPDEST PUSH0 PUSH1 0x20 SWAP1 POP PUSH1 0x1F DUP4 GT PUSH1 0x1 DUP2 EQ PUSH2 0x5043 JUMPI PUSH0 DUP5 ISZERO PUSH2 0x5031 JUMPI DUP3 DUP8 ADD MLOAD SWAP1 POP JUMPDEST PUSH2 0x503B DUP6 DUP3 PUSH2 0x4FC0 JUMP JUMPDEST DUP7 SSTORE POP PUSH2 0x50A2 JUMP JUMPDEST PUSH1 0x1F NOT DUP5 AND PUSH2 0x5051 DUP7 PUSH2 0x4E47 JUMP JUMPDEST PUSH0 JUMPDEST DUP3 DUP2 LT ISZERO PUSH2 0x5078 JUMPI DUP5 DUP10 ADD MLOAD DUP3 SSTORE PUSH1 0x1 DUP3 ADD SWAP2 POP PUSH1 0x20 DUP6 ADD SWAP5 POP PUSH1 0x20 DUP2 ADD SWAP1 POP PUSH2 0x5053 JUMP JUMPDEST DUP7 DUP4 LT ISZERO PUSH2 0x5095 JUMPI DUP5 DUP10 ADD MLOAD PUSH2 0x5091 PUSH1 0x1F DUP10 AND DUP3 PUSH2 0x4FA4 JUMP JUMPDEST DUP4 SSTORE POP JUMPDEST PUSH1 0x1 PUSH1 0x2 DUP9 MUL ADD DUP9 SSTORE POP POP POP JUMPDEST POP POP POP POP POP POP JUMP JUMPDEST PUSH32 0x47616C6C65727920646F6573206E6F7420657869737400000000000000000000 PUSH0 DUP3 ADD MSTORE POP JUMP JUMPDEST PUSH0 PUSH2 0x50DE PUSH1 0x16 DUP4 PUSH2 0x3C46 JUMP JUMPDEST SWAP2 POP PUSH2 0x50E9 DUP3 PUSH2 0x50AA JUMP JUMPDEST PUSH1 0x20 DUP3 ADD SWAP1 POP SWAP2 SWAP1 POP JUMP JUMPDEST PUSH0 PUSH1 0x20 DUP3 ADD SWAP1 POP DUP2 DUP2 SUB PUSH0 DUP4 ADD MSTORE PUSH2 0x510B DUP2 PUSH2 0x50D2 JUMP JUMPDEST SWAP1 POP SWAP2 SWAP1 POP JUMP JUMPDEST PUSH32 0x526571756573746572206D757374206D61696E7461696E2047414C4C4552595F PUSH0 DUP3 ADD MSTORE PUSH32 0x4F574E45525F524F4C4500000000000000000000000000000000000000000000 PUSH1 0x20 DUP3 ADD MSTORE POP JUMP JUMPDEST PUSH0 PUSH2 0x516C PUSH1 0x2A DUP4 PUSH2 0x3C46 JUMP JUMPDEST SWAP2 POP PUSH2 0x5177 DUP3 PUSH2 0x5112 JUMP JUMPDEST PUSH1 0x40 DUP3 ADD SWAP1 POP SWAP2 SWAP1 POP JUMP JUMPDEST PUSH0 PUSH1 0x20 DUP3 ADD SWAP1 POP DUP2 DUP2 SUB PUSH0 DUP4 ADD MSTORE PUSH2 0x5199 DUP2 PUSH2 0x5160 JUMP JUMPDEST SWAP1 POP SWAP2 SWAP1 POP JUMP JUMPDEST PUSH32 0x57616C6C206F776E6572206D757374206D61696E7461696E2057414C4C5F4F57 PUSH0 DUP3 ADD MSTORE PUSH32 0x4E45525F524F4C45000000000000000000000000000000000000000000000000 PUSH1 0x20 DUP3 ADD MSTORE POP JUMP JUMPDEST PUSH0 PUSH2 0x51FA PUSH1 0x28 DUP4 PUSH2 0x3C46 JUMP JUMPDEST SWAP2 POP PUSH2 0x5205 DUP3 PUSH2 0x51A0 JUMP JUMPDEST PUSH1 0x40 DUP3 ADD SWAP1 POP SWAP2 SWAP1 POP JUMP JUMPDEST PUSH0 PUSH1 0x20 DUP3 ADD SWAP1 POP DUP2 DUP2 SUB PUSH0 DUP4 ADD MSTORE PUSH2 0x5227 DUP2 PUSH2 0x51EE JUMP JUMPDEST SWAP1 POP SWAP2 SWAP1 POP JUMP JUMPDEST PUSH0 PUSH1 0x60 DUP3 ADD SWAP1 POP PUSH2 0x5241 PUSH0 DUP4 ADD DUP7 PUSH2 0x3C2D JUMP JUMPDEST PUSH2 0x524E PUSH1 0x20 DUP4 ADD DUP6 PUSH2 0x3C2D JUMP JUMPDEST PUSH2 0x525B PUSH1 0x40 DUP4 ADD DUP5 PUSH2 0x3DB8 JUMP JUMPDEST SWAP5 SWAP4 POP POP POP POP JUMP JUMPDEST PUSH0 PUSH1 0x20 DUP3 ADD SWAP1 POP PUSH2 0x5276 PUSH0 DUP4 ADD DUP5 PUSH2 0x3D9E JUMP JUMPDEST SWAP3 SWAP2 POP POP JUMP JUMPDEST PUSH32 0x5061757361626C653A2070617573656400000000000000000000000000000000 PUSH0 DUP3 ADD MSTORE POP JUMP JUMPDEST PUSH0 PUSH2 0x52B0 PUSH1 0x10 DUP4 PUSH2 0x3C46 JUMP JUMPDEST SWAP2 POP PUSH2 0x52BB DUP3 PUSH2 0x527C JUMP JUMPDEST PUSH1 0x20 DUP3 ADD SWAP1 POP SWAP2 SWAP1 POP JUMP JUMPDEST PUSH0 PUSH1 0x20 DUP3 ADD SWAP1 POP DUP2 DUP2 SUB PUSH0 DUP4 ADD MSTORE PUSH2 0x52DD DUP2 PUSH2 0x52A4 JUMP JUMPDEST SWAP1 POP SWAP2 SWAP1 POP JUMP JUMPDEST PUSH32 0x4E487B7100000000000000000000000000000000000000000000000000000000 PUSH0 MSTORE PUSH1 0x32 PUSH1 0x4 MSTORE PUSH1 0x24 PUSH0 REVERT JUMPDEST PUSH0 PUSH2 0x531B DUP3 PUSH2 0x3BCF JUMP JUMPDEST SWAP2 POP PUSH2 0x5326 DUP4 PUSH2 0x3BCF JUMP JUMPDEST SWAP3 POP DUP3 DUP3 SUB SWAP1 POP DUP2 DUP2 GT ISZERO PUSH2 0x533E JUMPI PUSH2 0x533D PUSH2 0x4BD9 JUMP JUMPDEST JUMPDEST SWAP3 SWAP2 POP POP JUMP JUMPDEST PUSH32 0x4E487B7100000000000000000000000000000000000000000000000000000000 PUSH0 MSTORE PUSH1 0x31 PUSH1 0x4 MSTORE PUSH1 0x24 PUSH0 REVERT JUMPDEST PUSH0 PUSH2 0x537B DUP3 PUSH2 0x3BCF JUMP JUMPDEST SWAP2 POP PUSH32 0xFFFFFFFFFFFFFFFFFFFFFFFFFFFFFFFFFFFFFFFFFFFFFFFFFFFFFFFFFFFFFFFF DUP3 SUB PUSH2 0x53AD JUMPI PUSH2 0x53AC PUSH2 0x4BD9 JUMP JUMPDEST JUMPDEST PUSH1 0x1 DUP3 ADD SWAP1 POP SWAP2 SWAP1 POP JUMP JUMPDEST PUSH32 0x5061757361626C653A206E6F7420706175736564000000000000000000000000 PUSH0 DUP3 ADD MSTORE POP JUMP JUMPDEST PUSH0 PUSH2 0x53EC PUSH1 0x14 DUP4 PUSH2 0x3C46 JUMP JUMPDEST SWAP2 POP PUSH2 0x53F7 DUP3 PUSH2 0x53B8 JUMP JUMPDEST PUSH1 0x20 DUP3 ADD SWAP1 POP SWAP2 SWAP1 POP JUMP JUMPDEST PUSH0 PUSH1 0x20 DUP3 ADD SWAP1 POP DUP2 DUP2 SUB PUSH0 DUP4 ADD MSTORE PUSH2 0x5419 DUP2 PUSH2 0x53E0 JUMP JUMPDEST SWAP1 POP SWAP2 SWAP1 POP JUMP INVALID LOG2 PUSH5 0x6970667358 0x22 SLT KECCAK256 SLOAD PUSH27 0x4E3305723F65C0663A97191AA33A6B8C0049F15BE5CDB08616FC78 MUL 0xB1 DUP11 PUSH5 0x736F6C6343 STOP ADDMOD EQ STOP CALLER "
		},
		"gasEstimates": {
			"creation": {
				"codeDepositCost": "4318000",
				"executionCost": "infinite",
				"totalCost": "infinite"
			},
			"external": {
				"approveGalleryRequest(uint256)": "infinite",
				"approveWallToGallery(uint256,uint256)": "infinite",
				"debugGalleryState(uint256)": "infinite",
				"galleries(uint256)": "infinite",
				"galleryExists(uint256)": "2948",
				"galleryRequests(uint256)": "infinite",
				"galleryWalls(uint256,uint256)": "infinite",
				"getGallery(uint256)": "infinite",
				"getGalleryWalls(uint256)": "infinite",
				"isGalleryActive(uint256)": "2839",
				"pause()": "infinite",
				"paused()": "2540",
				"platformPercentage()": "2515",
				"rejectGalleryRequest(uint256)": "infinite",
				"rejectWallToGallery(uint256,uint256)": "infinite",
				"removeWallFromGallery(uint256,uint256)": "infinite",
				"requestGallery((string,string,string,string,int256,int256,uint256))": "infinite",
				"requestWallToGallery(uint256,uint256)": "infinite",
				"roleManager()": "infinite",
				"setPlatformPercentage(uint256)": "infinite",
				"unpause()": "infinite",
				"verifyGalleryData(uint256)": "infinite",
				"wallContract()": "infinite",
				"wallToGalleryRequests(uint256,uint256)": "infinite"
			},
			"internal": {
				"_removeWallFromGallery(uint256,uint256)": "infinite"
			}
		},
		"methodIdentifiers": {
			"approveGalleryRequest(uint256)": "f0c87bc7",
			"approveWallToGallery(uint256,uint256)": "f685d28f",
			"debugGalleryState(uint256)": "66b0a206",
			"galleries(uint256)": "01640ca4",
			"galleryExists(uint256)": "b78e50a6",
			"galleryRequests(uint256)": "eaf4cc75",
			"galleryWalls(uint256,uint256)": "9eb99f55",
			"getGallery(uint256)": "e3fbf314",
			"getGalleryWalls(uint256)": "c705bc18",
			"isGalleryActive(uint256)": "46e012fa",
			"pause()": "8456cb59",
			"paused()": "5c975abb",
			"platformPercentage()": "1f741897",
			"rejectGalleryRequest(uint256)": "cc88600b",
			"rejectWallToGallery(uint256,uint256)": "489b920f",
			"removeWallFromGallery(uint256,uint256)": "641a9350",
			"requestGallery((string,string,string,string,int256,int256,uint256))": "d328ec70",
			"requestWallToGallery(uint256,uint256)": "ab44ac83",
			"roleManager()": "00435da5",
			"setPlatformPercentage(uint256)": "14d39bad",
			"unpause()": "3f4ba83a",
			"verifyGalleryData(uint256)": "7ad5df52",
			"wallContract()": "aad53a84",
			"wallToGalleryRequests(uint256,uint256)": "300d20a1"
		}
	},
	"abi": [
		{
			"inputs": [
				{
					"internalType": "address",
					"name": "_roleManagerAddress",
					"type": "address"
				},
				{
					"internalType": "address",
					"name": "_wallContractAddress",
					"type": "address"
				}
			],
			"stateMutability": "nonpayable",
			"type": "constructor"
		},
		{
			"anonymous": false,
			"inputs": [
				{
					"indexed": true,
					"internalType": "uint256",
					"name": "galleryId",
					"type": "uint256"
				}
			],
			"name": "GalleryRequestApproved",
			"type": "event"
		},
		{
			"anonymous": false,
			"inputs": [
				{
					"indexed": true,
					"internalType": "uint256",
					"name": "requestId",
					"type": "uint256"
				}
			],
			"name": "GalleryRequestRejected",
			"type": "event"
		},
		{
			"anonymous": false,
			"inputs": [
				{
					"indexed": true,
					"internalType": "uint256",
					"name": "requestId",
					"type": "uint256"
				},
				{
					"indexed": true,
					"internalType": "address",
					"name": "requester",
					"type": "address"
				}
			],
			"name": "GalleryRequested",
			"type": "event"
		},
		{
			"anonymous": false,
			"inputs": [
				{
					"indexed": false,
					"internalType": "address",
					"name": "account",
					"type": "address"
				}
			],
			"name": "Paused",
			"type": "event"
		},
		{
			"anonymous": false,
			"inputs": [
				{
					"indexed": false,
					"internalType": "uint256",
					"name": "newPercentage",
					"type": "uint256"
				}
			],
			"name": "PlatformPercentageUpdated",
			"type": "event"
		},
		{
			"anonymous": false,
			"inputs": [
				{
					"indexed": false,
					"internalType": "address",
					"name": "account",
					"type": "address"
				}
			],
			"name": "Unpaused",
			"type": "event"
		},
		{
			"anonymous": false,
			"inputs": [
				{
					"indexed": true,
					"internalType": "uint256",
					"name": "galleryId",
					"type": "uint256"
				},
				{
					"indexed": true,
					"internalType": "uint256",
					"name": "wallId",
					"type": "uint256"
				}
			],
			"name": "WallRemovedFromGallery",
			"type": "event"
		},
		{
			"anonymous": false,
			"inputs": [
				{
					"indexed": true,
					"internalType": "uint256",
					"name": "galleryId",
					"type": "uint256"
				},
				{
					"indexed": true,
					"internalType": "uint256",
					"name": "wallId",
					"type": "uint256"
				}
			],
			"name": "WallToGalleryRequestApproved",
			"type": "event"
		},
		{
			"anonymous": false,
			"inputs": [
				{
					"indexed": true,
					"internalType": "uint256",
					"name": "galleryId",
					"type": "uint256"
				},
				{
					"indexed": true,
					"internalType": "uint256",
					"name": "wallId",
					"type": "uint256"
				}
			],
			"name": "WallToGalleryRequestRejected",
			"type": "event"
		},
		{
			"anonymous": false,
			"inputs": [
				{
					"indexed": true,
					"internalType": "uint256",
					"name": "galleryId",
					"type": "uint256"
				},
				{
					"indexed": true,
					"internalType": "uint256",
					"name": "wallId",
					"type": "uint256"
				},
				{
					"indexed": true,
					"internalType": "address",
					"name": "wallOwner",
					"type": "address"
				}
			],
			"name": "WallToGalleryRequested",
			"type": "event"
		},
		{
			"inputs": [
				{
					"internalType": "uint256",
					"name": "requestId",
					"type": "uint256"
				}
			],
			"name": "approveGalleryRequest",
			"outputs": [],
			"stateMutability": "nonpayable",
			"type": "function"
		},
		{
			"inputs": [
				{
					"internalType": "uint256",
					"name": "galleryId",
					"type": "uint256"
				},
				{
					"internalType": "uint256",
					"name": "wallId",
					"type": "uint256"
				}
			],
			"name": "approveWallToGallery",
			"outputs": [],
			"stateMutability": "nonpayable",
			"type": "function"
		},
		{
			"inputs": [
				{
					"internalType": "uint256",
					"name": "galleryId",
					"type": "uint256"
				}
			],
			"name": "debugGalleryState",
			"outputs": [
				{
					"internalType": "bool",
					"name": "exists",
					"type": "bool"
				},
				{
					"internalType": "bool",
					"name": "isActive",
					"type": "bool"
				},
				{
					"internalType": "address",
					"name": "owner",
					"type": "address"
				},
				{
					"internalType": "uint256",
					"name": "id",
					"type": "uint256"
				}
			],
			"stateMutability": "view",
			"type": "function"
		},
		{
			"inputs": [
				{
					"internalType": "uint256",
					"name": "",
					"type": "uint256"
				}
			],
			"name": "galleries",
			"outputs": [
				{
					"internalType": "uint256",
					"name": "id",
					"type": "uint256"
				},
				{
					"internalType": "string",
					"name": "name",
					"type": "string"
				},
				{
					"internalType": "string",
					"name": "description",
					"type": "string"
				},
				{
					"components": [
						{
							"internalType": "string",
							"name": "city",
							"type": "string"
						},
						{
							"internalType": "string",
							"name": "country",
							"type": "string"
						},
						{
							"internalType": "int256",
							"name": "longitude",
							"type": "int256"
						},
						{
							"internalType": "int256",
							"name": "latitude",
							"type": "int256"
						}
					],
					"internalType": "struct Gallery.Location",
					"name": "location",
					"type": "tuple"
				},
				{
					"internalType": "address",
					"name": "owner",
					"type": "address"
				},
				{
					"internalType": "uint256",
					"name": "ownershipPercentage",
					"type": "uint256"
				},
				{
					"internalType": "bool",
					"name": "isActive",
					"type": "bool"
				},
				{
					"internalType": "uint256",
					"name": "createdAt",
					"type": "uint256"
				},
				{
					"internalType": "uint256",
					"name": "lastUpdated",
					"type": "uint256"
				}
			],
			"stateMutability": "view",
			"type": "function"
		},
		{
			"inputs": [
				{
					"internalType": "uint256",
					"name": "galleryId",
					"type": "uint256"
				}
			],
			"name": "galleryExists",
			"outputs": [
				{
					"internalType": "bool",
					"name": "",
					"type": "bool"
				}
			],
			"stateMutability": "view",
			"type": "function"
		},
		{
			"inputs": [
				{
					"internalType": "uint256",
					"name": "",
					"type": "uint256"
				}
			],
			"name": "galleryRequests",
			"outputs": [
				{
					"internalType": "address",
					"name": "requester",
					"type": "address"
				},
				{
					"internalType": "string",
					"name": "name",
					"type": "string"
				},
				{
					"internalType": "string",
					"name": "description",
					"type": "string"
				},
				{
					"components": [
						{
							"internalType": "string",
							"name": "city",
							"type": "string"
						},
						{
							"internalType": "string",
							"name": "country",
							"type": "string"
						},
						{
							"internalType": "int256",
							"name": "longitude",
							"type": "int256"
						},
						{
							"internalType": "int256",
							"name": "latitude",
							"type": "int256"
						}
					],
					"internalType": "struct Gallery.Location",
					"name": "location",
					"type": "tuple"
				},
				{
					"internalType": "uint256",
					"name": "ownershipPercentage",
					"type": "uint256"
				},
				{
					"internalType": "bool",
					"name": "pending",
					"type": "bool"
				},
				{
					"internalType": "bool",
					"name": "approved",
					"type": "bool"
				}
			],
			"stateMutability": "view",
			"type": "function"
		},
		{
			"inputs": [
				{
					"internalType": "uint256",
					"name": "",
					"type": "uint256"
				},
				{
					"internalType": "uint256",
					"name": "",
					"type": "uint256"
				}
			],
			"name": "galleryWalls",
			"outputs": [
				{
					"internalType": "uint256",
					"name": "",
					"type": "uint256"
				}
			],
			"stateMutability": "view",
			"type": "function"
		},
		{
			"inputs": [
				{
					"internalType": "uint256",
					"name": "galleryId",
					"type": "uint256"
				}
			],
			"name": "getGallery",
			"outputs": [
				{
					"components": [
						{
							"internalType": "uint256",
							"name": "id",
							"type": "uint256"
						},
						{
							"internalType": "string",
							"name": "name",
							"type": "string"
						},
						{
							"internalType": "string",
							"name": "description",
							"type": "string"
						},
						{
							"components": [
								{
									"internalType": "string",
									"name": "city",
									"type": "string"
								},
								{
									"internalType": "string",
									"name": "country",
									"type": "string"
								},
								{
									"internalType": "int256",
									"name": "longitude",
									"type": "int256"
								},
								{
									"internalType": "int256",
									"name": "latitude",
									"type": "int256"
								}
							],
							"internalType": "struct Gallery.Location",
							"name": "location",
							"type": "tuple"
						},
						{
							"internalType": "address",
							"name": "owner",
							"type": "address"
						},
						{
							"internalType": "uint256",
							"name": "ownershipPercentage",
							"type": "uint256"
						},
						{
							"internalType": "bool",
							"name": "isActive",
							"type": "bool"
						},
						{
							"internalType": "uint256",
							"name": "createdAt",
							"type": "uint256"
						},
						{
							"internalType": "uint256",
							"name": "lastUpdated",
							"type": "uint256"
						}
					],
					"internalType": "struct Gallery.GalleryData",
					"name": "",
					"type": "tuple"
				}
			],
			"stateMutability": "view",
			"type": "function"
		},
		{
			"inputs": [
				{
					"internalType": "uint256",
					"name": "galleryId",
					"type": "uint256"
				}
			],
			"name": "getGalleryWalls",
			"outputs": [
				{
					"internalType": "uint256[]",
					"name": "",
					"type": "uint256[]"
				}
			],
			"stateMutability": "view",
			"type": "function"
		},
		{
			"inputs": [
				{
					"internalType": "uint256",
					"name": "galleryId",
					"type": "uint256"
				}
			],
			"name": "isGalleryActive",
			"outputs": [
				{
					"internalType": "bool",
					"name": "",
					"type": "bool"
				}
			],
			"stateMutability": "view",
			"type": "function"
		},
		{
			"inputs": [],
			"name": "pause",
			"outputs": [],
			"stateMutability": "nonpayable",
			"type": "function"
		},
		{
			"inputs": [],
			"name": "paused",
			"outputs": [
				{
					"internalType": "bool",
					"name": "",
					"type": "bool"
				}
			],
			"stateMutability": "view",
			"type": "function"
		},
		{
			"inputs": [],
			"name": "platformPercentage",
			"outputs": [
				{
					"internalType": "uint256",
					"name": "",
					"type": "uint256"
				}
			],
			"stateMutability": "view",
			"type": "function"
		},
		{
			"inputs": [
				{
					"internalType": "uint256",
					"name": "requestId",
					"type": "uint256"
				}
			],
			"name": "rejectGalleryRequest",
			"outputs": [],
			"stateMutability": "nonpayable",
			"type": "function"
		},
		{
			"inputs": [
				{
					"internalType": "uint256",
					"name": "galleryId",
					"type": "uint256"
				},
				{
					"internalType": "uint256",
					"name": "wallId",
					"type": "uint256"
				}
			],
			"name": "rejectWallToGallery",
			"outputs": [],
			"stateMutability": "nonpayable",
			"type": "function"
		},
		{
			"inputs": [
				{
					"internalType": "uint256",
					"name": "galleryId",
					"type": "uint256"
				},
				{
					"internalType": "uint256",
					"name": "wallId",
					"type": "uint256"
				}
			],
			"name": "removeWallFromGallery",
			"outputs": [],
			"stateMutability": "nonpayable",
			"type": "function"
		},
		{
			"inputs": [
				{
					"components": [
						{
							"internalType": "string",
							"name": "name",
							"type": "string"
						},
						{
							"internalType": "string",
							"name": "description",
							"type": "string"
						},
						{
							"internalType": "string",
							"name": "city",
							"type": "string"
						},
						{
							"internalType": "string",
							"name": "country",
							"type": "string"
						},
						{
							"internalType": "int256",
							"name": "longitude",
							"type": "int256"
						},
						{
							"internalType": "int256",
							"name": "latitude",
							"type": "int256"
						},
						{
							"internalType": "uint256",
							"name": "ownershipPercentage",
							"type": "uint256"
						}
					],
					"internalType": "struct Gallery.GalleryCreationParams",
					"name": "params",
					"type": "tuple"
				}
			],
			"name": "requestGallery",
			"outputs": [],
			"stateMutability": "nonpayable",
			"type": "function"
		},
		{
			"inputs": [
				{
					"internalType": "uint256",
					"name": "galleryId",
					"type": "uint256"
				},
				{
					"internalType": "uint256",
					"name": "wallId",
					"type": "uint256"
				}
			],
			"name": "requestWallToGallery",
			"outputs": [],
			"stateMutability": "nonpayable",
			"type": "function"
		},
		{
			"inputs": [],
			"name": "roleManager",
			"outputs": [
				{
					"internalType": "contract IRoleManager",
					"name": "",
					"type": "address"
				}
			],
			"stateMutability": "view",
			"type": "function"
		},
		{
			"inputs": [
				{
					"internalType": "uint256",
					"name": "_percentage",
					"type": "uint256"
				}
			],
			"name": "setPlatformPercentage",
			"outputs": [],
			"stateMutability": "nonpayable",
			"type": "function"
		},
		{
			"inputs": [],
			"name": "unpause",
			"outputs": [],
			"stateMutability": "nonpayable",
			"type": "function"
		},
		{
			"inputs": [
				{
					"internalType": "uint256",
					"name": "galleryId",
					"type": "uint256"
				}
			],
			"name": "verifyGalleryData",
			"outputs": [
				{
					"internalType": "bool",
					"name": "exists",
					"type": "bool"
				},
				{
					"internalType": "bool",
					"name": "hasOwner",
					"type": "bool"
				},
				{
					"internalType": "bool",
					"name": "isActive",
					"type": "bool"
				},
				{
					"internalType": "uint256",
					"name": "actualId",
					"type": "uint256"
				},
				{
					"internalType": "address",
					"name": "owner",
					"type": "address"
				},
				{
					"internalType": "uint256",
					"name": "createdAt",
					"type": "uint256"
				}
			],
			"stateMutability": "view",
			"type": "function"
		},
		{
			"inputs": [],
			"name": "wallContract",
			"outputs": [
				{
					"internalType": "contract IWall",
					"name": "",
					"type": "address"
				}
			],
			"stateMutability": "view",
			"type": "function"
		},
		{
			"inputs": [
				{
					"internalType": "uint256",
					"name": "",
					"type": "uint256"
				},
				{
					"internalType": "uint256",
					"name": "",
					"type": "uint256"
				}
			],
			"name": "wallToGalleryRequests",
			"outputs": [
				{
					"internalType": "uint256",
					"name": "wallId",
					"type": "uint256"
				},
				{
					"internalType": "address",
					"name": "wallOwner",
					"type": "address"
				},
				{
					"internalType": "uint256",
					"name": "wallOwnerPercentage",
					"type": "uint256"
				},
				{
					"internalType": "bool",
					"name": "pending",
					"type": "bool"
				},
				{
					"internalType": "bool",
					"name": "approved",
					"type": "bool"
				}
			],
			"stateMutability": "view",
			"type": "function"
		}
	]
}