{
	"data": {
		"bytecode": {
			"linkReferences": {},
			"object": "610100604052348015610010575f80fd5b50604051616175380380616175833981810160405281019061003291906103c7565b6040518060400160405280600d81526020017f57616c6c205061696e74696e67000000000000000000000000000000000000008152506040518060400160405280600681526020017f575041494e540000000000000000000000000000000000000000000000000000815250815f90816100ac9190610665565b5080600190816100bc9190610665565b5050505f60065f6101000a81548160ff0219169083151502179055505f73ffffffffffffffffffffffffffffffffffffffff168473ffffffffffffffffffffffffffffffffffffffff1603610146576040517f08c379a000000000000000000000000000000000000000000000000000000000815260040161013d9061078e565b60405180910390fd5b5f73ffffffffffffffffffffffffffffffffffffffff168373ffffffffffffffffffffffffffffffffffffffff16036101b4576040517f08c379a00000000000000000000000000000000000000000000000000000000081526004016101ab906107f6565b60405180910390fd5b5f73ffffffffffffffffffffffffffffffffffffffff168273ffffffffffffffffffffffffffffffffffffffff1603610222576040517f08c379a00000000000000000000000000000000000000000000000000000000081526004016102199061085e565b60405180910390fd5b5f73ffffffffffffffffffffffffffffffffffffffff168173ffffffffffffffffffffffffffffffffffffffff1603610290576040517f08c379a0000000000000000000000000000000000000000000000000000000008152600401610287906108c6565b60405180910390fd5b8373ffffffffffffffffffffffffffffffffffffffff1660808173ffffffffffffffffffffffffffffffffffffffff16815250508273ffffffffffffffffffffffffffffffffffffffff1660a08173ffffffffffffffffffffffffffffffffffffffff16815250508173ffffffffffffffffffffffffffffffffffffffff1660c08173ffffffffffffffffffffffffffffffffffffffff16815250508073ffffffffffffffffffffffffffffffffffffffff1660e08173ffffffffffffffffffffffffffffffffffffffff1681525050505050506108e4565b5f80fd5b5f73ffffffffffffffffffffffffffffffffffffffff82169050919050565b5f6103968261036d565b9050919050565b6103a68161038c565b81146103b0575f80fd5b50565b5f815190506103c18161039d565b92915050565b5f805f80608085870312156103df576103de610369565b5b5f6103ec878288016103b3565b94505060206103fd878288016103b3565b935050604061040e878288016103b3565b925050606061041f878288016103b3565b91505092959194509250565b5f81519050919050565b7f4e487b71000000000000000000000000000000000000000000000000000000005f52604160045260245ffd5b7f4e487b71000000000000000000000000000000000000000000000000000000005f52602260045260245ffd5b5f60028204905060018216806104a657607f821691505b6020821081036104b9576104b8610462565b5b50919050565b5f819050815f5260205f209050919050565b5f6020601f8301049050919050565b5f82821b905092915050565b5f6008830261051b7fffffffffffffffffffffffffffffffffffffffffffffffffffffffffffffffff826104e0565b61052586836104e0565b95508019841693508086168417925050509392505050565b5f819050919050565b5f819050919050565b5f61056961056461055f8461053d565b610546565b61053d565b9050919050565b5f819050919050565b6105828361054f565b61059661058e82610570565b8484546104ec565b825550505050565b5f90565b6105aa61059e565b6105b5818484610579565b505050565b5b818110156105d8576105cd5f826105a2565b6001810190506105bb565b5050565b601f82111561061d576105ee816104bf565b6105f7846104d1565b81016020851015610606578190505b61061a610612856104d1565b8301826105ba565b50505b505050565b5f82821c905092915050565b5f61063d5f1984600802610622565b1980831691505092915050565b5f610655838361062e565b9150826002028217905092915050565b61066e8261042b565b67ffffffffffffffff81111561068757610686610435565b5b610691825461048f565b61069c8282856105dc565b5f60209050601f8311600181146106cd575f84156106bb578287015190505b6106c5858261064a565b86555061072c565b601f1984166106db866104bf565b5f5b82811015610702578489015182556001820191506020850194506020810190506106dd565b8683101561071f578489015161071b601f89168261062e565b8355505b6001600288020188555050505b505050505050565b5f82825260208201905092915050565b7f496e76616c696420526f6c654d616e61676572206164647265737300000000005f82015250565b5f610778601b83610734565b915061078382610744565b602082019050919050565b5f6020820190508181035f8301526107a58161076c565b9050919050565b7f496e76616c69642057616c6c20636f6e747261637420616464726573730000005f82015250565b5f6107e0601d83610734565b91506107eb826107ac565b602082019050919050565b5f6020820190508181035f83015261080d816107d4565b9050919050565b7f496e76616c69642047616c6c65727920636f6e747261637420616464726573735f82015250565b5f610848602083610734565b915061085382610814565b602082019050919050565b5f6020820190508181035f8301526108758161083c565b9050919050565b7f496e76616c69642053686172657320636f6e74726163742061646472657373005f82015250565b5f6108b0601f83610734565b91506108bb8261087c565b602082019050919050565b5f6020820190508181035f8301526108dd816108a4565b9050919050565b60805160a05160c05160e0516157d961099c5f395f8181611586015261356101525f81816115620152818161168e015281816120a40152818161251c015281816133ce015261347001525f81816110fb015281816115ac01528181611da401528181611fc20152818161243a015261333001525f818161066a015281816107fe0152818161083a01528181610cf501528181610d3101528181610e6401528181610ea001528181611a190152611a5501526157d95ff3fe608060405234801561000f575f80fd5b50600436106101ed575f3560e01c80637eb4ecb41161010d578063b88d4fde116100a0578063e1f4ab5f1161006f578063e1f4ab5f146105d0578063e38da54b14610600578063e985e9c51461061c578063eb1b1e711461064c576101ed565b8063b88d4fde1461051f578063c7ca6daa1461053b578063c87b56dd14610570578063df0b2dc8146105a0576101ed565b806395d89b41116100dc57806395d89b4114610493578063a22cb465146104b1578063a245e7ff146104cd578063aad53a8414610501576101ed565b80637eb4ecb41461041f5780638085be021461043d5780638456cb591461045957806389814b9c14610463576101ed565b80633f4ba83a116101855780635c975abb116101545780635c975abb146103835780636352211e146103a157806370a08231146103d157806371d24b7014610401576101ed565b80633f4ba83a1461031157806341bc8b641461031b57806342842e0e146103375780635398cb1414610353576101ed565b8063081812fc116101c1578063081812fc1461027957806308e9c7d7146102a9578063095ea7b3146102d957806323b872dd146102f5576101ed565b8062435da5146101f157806301ffc9a71461020f57806306fdde031461023f578063072e91d91461025d575b5f80fd5b6101f9610668565b6040516102069190613d09565b60405180910390f35b61022960048036038101906102249190613d88565b61068c565b6040516102369190613dcd565b60405180910390f35b61024761076d565b6040516102549190613e56565b60405180910390f35b61027760048036038101906102729190613ea9565b6107fc565b005b610293600480360381019061028e9190613ea9565b610b30565b6040516102a09190613ef4565b60405180910390f35b6102c360048036038101906102be9190613f37565b610b4b565b6040516102d09190614019565b60405180910390f35b6102f360048036038101906102ee9190614039565b610bde565b005b61030f600480360381019061030a9190614077565b610bf4565b005b610319610cf3565b005b61033560048036038101906103309190614128565b610e62565b005b610351600480360381019061034c9190614077565b6113fe565b005b61036d60048036038101906103689190613ea9565b61141d565b60405161037a9190614019565b60405180910390f35b61038b611484565b6040516103989190613dcd565b60405180910390f35b6103bb60048036038101906103b69190613ea9565b611499565b6040516103c89190613ef4565b60405180910390f35b6103eb60048036038101906103e69190613f37565b6114aa565b6040516103f89190614194565b60405180910390f35b610409611560565b60405161041691906141cd565b60405180910390f35b610427611584565b6040516104349190614206565b60405180910390f35b61045760048036038101906104529190613ea9565b6115a8565b005b610461611a17565b005b61047d60048036038101906104789190613f37565b611b86565b60405161048a9190614019565b60405180910390f35b61049b611c19565b6040516104a89190613e56565b60405180910390f35b6104cb60048036038101906104c69190614249565b611ca9565b005b6104e760048036038101906104e29190613ea9565b611cbf565b6040516104f89594939291906142fa565b60405180910390f35b610509611da2565b6040516105169190614372565b60405180910390f35b610539600480360381019061053491906144b3565b611dc6565b005b61055560048036038101906105509190613ea9565b611deb565b60405161056796959493929190614533565b60405180910390f35b61058a60048036038101906105859190613ea9565b611ed4565b6040516105979190613e56565b60405180910390f35b6105ba60048036038101906105b59190613ea9565b611f3a565b6040516105c79190614019565b60405180910390f35b6105ea60048036038101906105e59190613ea9565b611fa1565b6040516105f79190613dcd565b60405180910390f35b61061a60048036038101906106159190613ea9565b611fbe565b005b61063660048036038101906106319190614599565b6123a8565b6040516106439190613dcd565b60405180910390f35b61066660048036038101906106619190613ea9565b612436565b005b7f000000000000000000000000000000000000000000000000000000000000000081565b5f7f80ac58cd000000000000000000000000000000000000000000000000000000007bffffffffffffffffffffffffffffffffffffffffffffffffffffffff1916827bffffffffffffffffffffffffffffffffffffffffffffffffffffffff1916148061075657507f5b5e139f000000000000000000000000000000000000000000000000000000007bffffffffffffffffffffffffffffffffffffffffffffffffffffffff1916827bffffffffffffffffffffffffffffffffffffffffffffffffffffffff1916145b8061076657506107658261298b565b5b9050919050565b60605f805461077b90614604565b80601f01602080910402602001604051908101604052809291908181526020018280546107a790614604565b80156107f25780601f106107c9576101008083540402835291602001916107f2565b820191905f5260205f20905b8154815290600101906020018083116107d557829003601f168201915b5050505050905090565b7f000000000000000000000000000000000000000000000000000000000000000073ffffffffffffffffffffffffffffffffffffffff166391d148547f000000000000000000000000000000000000000000000000000000000000000073ffffffffffffffffffffffffffffffffffffffff1663303e38406040518163ffffffff1660e01b8152600401602060405180830381865afa1580156108a1573d5f803e3d5ffd5b505050506040513d601f19601f820116820180604052508101906108c59190614667565b336040518363ffffffff1660e01b81526004016108e39291906146a1565b602060405180830381865afa1580156108fe573d5f803e3d5ffd5b505050506040513d601f19601f8201168201806040525081019061092291906146dc565b610961576040517f08c379a000000000000000000000000000000000000000000000000000000000815260040161095890614751565b60405180910390fd5b6109696129f4565b5f600d5f8381526020019081526020015f2090503373ffffffffffffffffffffffffffffffffffffffff16816001015f9054906101000a900473ffffffffffffffffffffffffffffffffffffffff1673ffffffffffffffffffffffffffffffffffffffff1614610a0e576040517f08c379a0000000000000000000000000000000000000000000000000000000008152600401610a05906147b9565b60405180910390fd5b60026003811115610a2257610a21614287565b5b816003015f9054906101000a900460ff166003811115610a4557610a44614287565b5b14610a85576040517f08c379a0000000000000000000000000000000000000000000000000000000008152600401610a7c90614821565b60405180910390fd5b6003816003015f6101000a81548160ff02191690836003811115610aac57610aab614287565b5b0217905550610af7600a5f3373ffffffffffffffffffffffffffffffffffffffff1673ffffffffffffffffffffffffffffffffffffffff1681526020019081526020015f2083612a3e565b600b5f8381526020019081526020015f2082908060018154018082558091505060019003905f5260205f20015f90919091909150555050565b5f610b3a82612af4565b50610b4482612b7a565b9050919050565b6060600a5f8373ffffffffffffffffffffffffffffffffffffffff1673ffffffffffffffffffffffffffffffffffffffff1681526020019081526020015f20805480602002602001604051908101604052809291908181526020018280548015610bd257602002820191905f5260205f20905b815481526020019060010190808311610bbe575b50505050509050919050565b610bf08282610beb612bb3565b612bba565b5050565b5f73ffffffffffffffffffffffffffffffffffffffff168273ffffffffffffffffffffffffffffffffffffffff1603610c64575f6040517f64a0ae92000000000000000000000000000000000000000000000000000000008152600401610c5b9190613ef4565b60405180910390fd5b5f610c778383610c72612bb3565b612bcc565b90508373ffffffffffffffffffffffffffffffffffffffff168173ffffffffffffffffffffffffffffffffffffffff1614610ced578382826040517f64283d7b000000000000000000000000000000000000000000000000000000008152600401610ce49392919061483f565b60405180910390fd5b50505050565b7f000000000000000000000000000000000000000000000000000000000000000073ffffffffffffffffffffffffffffffffffffffff166391d148547f000000000000000000000000000000000000000000000000000000000000000073ffffffffffffffffffffffffffffffffffffffff166375b238fc6040518163ffffffff1660e01b8152600401602060405180830381865afa158015610d98573d5f803e3d5ffd5b505050506040513d601f19601f82011682018060405250810190610dbc9190614667565b336040518363ffffffff1660e01b8152600401610dda9291906146a1565b602060405180830381865afa158015610df5573d5f803e3d5ffd5b505050506040513d601f19601f82011682018060405250810190610e1991906146dc565b610e58576040517f08c379a0000000000000000000000000000000000000000000000000000000008152600401610e4f906148be565b60405180910390fd5b610e60612dd7565b565b7f000000000000000000000000000000000000000000000000000000000000000073ffffffffffffffffffffffffffffffffffffffff166391d148547f000000000000000000000000000000000000000000000000000000000000000073ffffffffffffffffffffffffffffffffffffffff1663303e38406040518163ffffffff1660e01b8152600401602060405180830381865afa158015610f07573d5f803e3d5ffd5b505050506040513d601f19601f82011682018060405250810190610f2b9190614667565b336040518363ffffffff1660e01b8152600401610f499291906146a1565b602060405180830381865afa158015610f64573d5f803e3d5ffd5b505050506040513d601f19601f82011682018060405250810190610f8891906146dc565b610fc7576040517f08c379a0000000000000000000000000000000000000000000000000000000008152600401610fbe90614751565b60405180910390fd5b610fcf6129f4565b5f8282905011611014576040517f08c379a000000000000000000000000000000000000000000000000000000000815260040161100b90614926565b60405180910390fd5b600e5f8481526020019081526020015f205f9054906101000a900460ff1615611072576040517f08c379a00000000000000000000000000000000000000000000000000000000081526004016110699061498e565b60405180910390fd5b5f600381111561108557611084614287565b5b600d5f8581526020019081526020015f206003015f9054906101000a900460ff1660038111156110b8576110b7614287565b5b146110f8576040517f08c379a00000000000000000000000000000000000000000000000000000000081526004016110ef906149f6565b60405180910390fd5b5f7f000000000000000000000000000000000000000000000000000000000000000073ffffffffffffffffffffffffffffffffffffffff1663ff91e489856040518263ffffffff1660e01b81526004016111529190614194565b5f60405180830381865afa15801561116c573d5f803e3d5ffd5b505050506040513d5f823e3d601f19601f820116820180604052508101906111949190614ceb565b90508060a001516111da576040517f08c379a00000000000000000000000000000000000000000000000000000000081526004016111d190614d7c565b60405180910390fd5b6040518060a001604052808581526020013373ffffffffffffffffffffffffffffffffffffffff16815260200184848080601f0160208091040260200160405190810160405280939291908181526020018383808284375f81840152601f19601f8201169050808301925050505050505081526020016001600381111561126457611263614287565b5b815260200142815250600d5f8681526020019081526020015f205f820151815f01556020820151816001015f6101000a81548173ffffffffffffffffffffffffffffffffffffffff021916908373ffffffffffffffffffffffffffffffffffffffff16021790555060408201518160020190816112e19190614f2e565b506060820151816003015f6101000a81548160ff0219169083600381111561130c5761130b614287565b5b02179055506080820151816004015590505060085f3373ffffffffffffffffffffffffffffffffffffffff1673ffffffffffffffffffffffffffffffffffffffff1681526020019081526020015f2084908060018154018082558091505060019003905f5260205f20015f909190919091505560095f8581526020019081526020015f2084908060018154018082558091505060019003905f5260205f20015f90919091909150553373ffffffffffffffffffffffffffffffffffffffff16847f2c01190deb24fe5101a0373e8ee0ed3438853aaffeaf7fa5ca1c8db13d9e32b960405160405180910390a350505050565b61141883838360405180602001604052805f815250611dc6565b505050565b606060095f8381526020019081526020015f2080548060200260200160405190810160405280929190818152602001828054801561147857602002820191905f5260205f20905b815481526020019060010190808311611464575b50505050509050919050565b5f60065f9054906101000a900460ff16905090565b5f6114a382612af4565b9050919050565b5f8073ffffffffffffffffffffffffffffffffffffffff168273ffffffffffffffffffffffffffffffffffffffff160361151b575f6040517f89c62b640000000000000000000000000000000000000000000000000000000081526004016115129190613ef4565b60405180910390fd5b60035f8373ffffffffffffffffffffffffffffffffffffffff1673ffffffffffffffffffffffffffffffffffffffff1681526020019081526020015f20549050919050565b7f000000000000000000000000000000000000000000000000000000000000000081565b7f000000000000000000000000000000000000000000000000000000000000000081565b805f7f000000000000000000000000000000000000000000000000000000000000000073ffffffffffffffffffffffffffffffffffffffff1663ff91e489836040518263ffffffff1660e01b81526004016116039190614194565b5f60405180830381865afa15801561161d573d5f803e3d5ffd5b505050506040513d5f823e3d601f19601f820116820180604052508101906116459190614ceb565b90508060a0015161168b576040517f08c379a000000000000000000000000000000000000000000000000000000000815260040161168290614d7c565b60405180910390fd5b5f7f000000000000000000000000000000000000000000000000000000000000000073ffffffffffffffffffffffffffffffffffffffff1663e3fbf3148360c001516040518263ffffffff1660e01b81526004016116e99190614194565b5f60405180830381865afa158015611703573d5f803e3d5ffd5b505050506040513d5f823e3d601f19601f8201168201806040525081019061172b91906150fc565b90508060a00151611771576040517f08c379a00000000000000000000000000000000000000000000000000000000081526004016117689061518d565b60405180910390fd5b806060015173ffffffffffffffffffffffffffffffffffffffff163373ffffffffffffffffffffffffffffffffffffffff16146117e3576040517f08c379a00000000000000000000000000000000000000000000000000000000081526004016117da906151f5565b60405180910390fd5b6117eb6129f4565b5f600d5f8681526020019081526020015f2090506001600381111561181357611812614287565b5b816003015f9054906101000a900460ff16600381111561183657611835614287565b5b14611876576040517f08c379a000000000000000000000000000000000000000000000000000000000815260040161186d9061525d565b60405180910390fd5b6002816003015f6101000a81548160ff0219169083600381111561189d5761189c614287565b5b021790555061190b60085f836001015f9054906101000a900473ffffffffffffffffffffffffffffffffffffffff1673ffffffffffffffffffffffffffffffffffffffff1673ffffffffffffffffffffffffffffffffffffffff1681526020019081526020015f2086612a3e565b61192560095f8781526020019081526020015f2086612a3e565b600a5f826001015f9054906101000a900473ffffffffffffffffffffffffffffffffffffffff1673ffffffffffffffffffffffffffffffffffffffff1673ffffffffffffffffffffffffffffffffffffffff1681526020019081526020015f2085908060018154018082558091505060019003905f5260205f20015f9091909190915055806001015f9054906101000a900473ffffffffffffffffffffffffffffffffffffffff1673ffffffffffffffffffffffffffffffffffffffff16857fe90f4a07e9a9af1dd1030380992296ac79b9aea4f6705f8365f9df1bcbf3ad4c60405160405180910390a35050505050565b7f000000000000000000000000000000000000000000000000000000000000000073ffffffffffffffffffffffffffffffffffffffff166391d148547f000000000000000000000000000000000000000000000000000000000000000073ffffffffffffffffffffffffffffffffffffffff166375b238fc6040518163ffffffff1660e01b8152600401602060405180830381865afa158015611abc573d5f803e3d5ffd5b505050506040513d601f19601f82011682018060405250810190611ae09190614667565b336040518363ffffffff1660e01b8152600401611afe9291906146a1565b602060405180830381865afa158015611b19573d5f803e3d5ffd5b505050506040513d601f19601f82011682018060405250810190611b3d91906146dc565b611b7c576040517f08c379a0000000000000000000000000000000000000000000000000000000008152600401611b73906148be565b60405180910390fd5b611b84612e38565b565b606060085f8373ffffffffffffffffffffffffffffffffffffffff1673ffffffffffffffffffffffffffffffffffffffff1681526020019081526020015f20805480602002602001604051908101604052809291908181526020018280548015611c0d57602002820191905f5260205f20905b815481526020019060010190808311611bf9575b50505050509050919050565b606060018054611c2890614604565b80601f0160208091040260200160405190810160405280929190818152602001828054611c5490614604565b8015611c9f5780601f10611c7657610100808354040283529160200191611c9f565b820191905f5260205f20905b815481529060010190602001808311611c8257829003601f168201915b5050505050905090565b611cbb611cb4612bb3565b8383612e9a565b5050565b600d602052805f5260405f205f91509050805f015490806001015f9054906101000a900473ffffffffffffffffffffffffffffffffffffffff1690806002018054611d0990614604565b80601f0160208091040260200160405190810160405280929190818152602001828054611d3590614604565b8015611d805780601f10611d5757610100808354040283529160200191611d80565b820191905f5260205f20905b815481529060010190602001808311611d6357829003601f168201915b505050505090806003015f9054906101000a900460ff16908060040154905085565b7f000000000000000000000000000000000000000000000000000000000000000081565b611dd1848484610bf4565b611de5611ddc612bb3565b85858585613003565b50505050565b600c602052805f5260405f205f91509050805f015490806001015490806002015f9054906101000a900473ffffffffffffffffffffffffffffffffffffffff1690806003018054611e3b90614604565b80601f0160208091040260200160405190810160405280929190818152602001828054611e6790614604565b8015611eb25780601f10611e8957610100808354040283529160200191611eb2565b820191905f5260205f20905b815481529060010190602001808311611e9557829003601f168201915b505050505090806004015f9054906101000a900460ff16908060050154905086565b6060611edf82612af4565b505f611ee96131af565b90505f815111611f075760405180602001604052805f815250611f32565b80611f11846131c5565b604051602001611f229291906152b5565b6040516020818303038152906040525b915050919050565b6060600b5f8381526020019081526020015f20805480602002602001604051908101604052809291908181526020018280548015611f9557602002820191905f5260205f20905b815481526020019060010190808311611f81575b50505050509050919050565b600e602052805f5260405f205f915054906101000a900460ff1681565b805f7f000000000000000000000000000000000000000000000000000000000000000073ffffffffffffffffffffffffffffffffffffffff1663ff91e489836040518263ffffffff1660e01b81526004016120199190614194565b5f60405180830381865afa158015612033573d5f803e3d5ffd5b505050506040513d5f823e3d601f19601f8201168201806040525081019061205b9190614ceb565b90508060a001516120a1576040517f08c379a000000000000000000000000000000000000000000000000000000000815260040161209890614d7c565b60405180910390fd5b5f7f000000000000000000000000000000000000000000000000000000000000000073ffffffffffffffffffffffffffffffffffffffff1663e3fbf3148360c001516040518263ffffffff1660e01b81526004016120ff9190614194565b5f60405180830381865afa158015612119573d5f803e3d5ffd5b505050506040513d5f823e3d601f19601f8201168201806040525081019061214191906150fc565b90508060a00151612187576040517f08c379a000000000000000000000000000000000000000000000000000000000815260040161217e9061518d565b60405180910390fd5b806060015173ffffffffffffffffffffffffffffffffffffffff163373ffffffffffffffffffffffffffffffffffffffff16146121f9576040517f08c379a00000000000000000000000000000000000000000000000000000000081526004016121f0906151f5565b60405180910390fd5b6122016129f4565b5f600d5f8681526020019081526020015f2090506001600381111561222957612228614287565b5b816003015f9054906101000a900460ff16600381111561224c5761224b614287565b5b1461228c576040517f08c379a00000000000000000000000000000000000000000000000000000000081526004016122839061525d565b60405180910390fd5b5f816003015f6101000a81548160ff021916908360038111156122b2576122b1614287565b5b021790555061232060085f836001015f9054906101000a900473ffffffffffffffffffffffffffffffffffffffff1673ffffffffffffffffffffffffffffffffffffffff1673ffffffffffffffffffffffffffffffffffffffff1681526020019081526020015f2086612a3e565b61233a60095f8781526020019081526020015f2086612a3e565b806001015f9054906101000a900473ffffffffffffffffffffffffffffffffffffffff1673ffffffffffffffffffffffffffffffffffffffff16857f8ab069580156e517907e83c0c2a44bbad72364aa9544e12aa96ba9ec2b091a8c60405160405180910390a35050505050565b5f60055f8473ffffffffffffffffffffffffffffffffffffffff1673ffffffffffffffffffffffffffffffffffffffff1681526020019081526020015f205f8373ffffffffffffffffffffffffffffffffffffffff1673ffffffffffffffffffffffffffffffffffffffff1681526020019081526020015f205f9054906101000a900460ff16905092915050565b805f7f000000000000000000000000000000000000000000000000000000000000000073ffffffffffffffffffffffffffffffffffffffff1663ff91e489836040518263ffffffff1660e01b81526004016124919190614194565b5f60405180830381865afa1580156124ab573d5f803e3d5ffd5b505050506040513d5f823e3d601f19601f820116820180604052508101906124d39190614ceb565b90508060a00151612519576040517f08c379a000000000000000000000000000000000000000000000000000000000815260040161251090614d7c565b60405180910390fd5b5f7f000000000000000000000000000000000000000000000000000000000000000073ffffffffffffffffffffffffffffffffffffffff1663e3fbf3148360c001516040518263ffffffff1660e01b81526004016125779190614194565b5f60405180830381865afa158015612591573d5f803e3d5ffd5b505050506040513d5f823e3d601f19601f820116820180604052508101906125b991906150fc565b90508060a001516125ff576040517f08c379a00000000000000000000000000000000000000000000000000000000081526004016125f69061518d565b60405180910390fd5b806060015173ffffffffffffffffffffffffffffffffffffffff163373ffffffffffffffffffffffffffffffffffffffff1614612671576040517f08c379a0000000000000000000000000000000000000000000000000000000008152600401612668906151f5565b60405180910390fd5b6126796129f4565b5f600d5f8681526020019081526020015f2090506003808111156126a05761269f614287565b5b816003015f9054906101000a900460ff1660038111156126c3576126c2614287565b5b14612703576040517f08c379a00000000000000000000000000000000000000000000000000000000081526004016126fa90615322565b60405180910390fd5b61270d600761328f565b5f61271860076132a3565b9050612747826001015f9054906101000a900473ffffffffffffffffffffffffffffffffffffffff16826132af565b6040518060c00160405280828152602001878152602001836001015f9054906101000a900473ffffffffffffffffffffffffffffffffffffffff1673ffffffffffffffffffffffffffffffffffffffff1681526020018360020180546127ac90614604565b80601f01602080910402602001604051908101604052809291908181526020018280546127d890614604565b80156128235780601f106127fa57610100808354040283529160200191612823565b820191905f5260205f20905b81548152906001019060200180831161280657829003601f168201915b505050505081526020015f1515815260200142815250600c5f8381526020019081526020015f205f820151815f0155602082015181600101556040820151816002015f6101000a81548173ffffffffffffffffffffffffffffffffffffffff021916908373ffffffffffffffffffffffffffffffffffffffff16021790555060608201518160030190816128b79190614f2e565b506080820151816004015f6101000a81548160ff02191690831515021790555060a082015181600501559050506128fe600b5f8881526020019081526020015f2087612a3e565b6001600e5f8881526020019081526020015f205f6101000a81548160ff0219169083151502179055506129558187846001015f9054906101000a900473ffffffffffffffffffffffffffffffffffffffff166132cc565b85817f5a49448ef5c36af17b1aeb44ac91d414aa5cc30977940fa1a5b216f936a804d260405160405180910390a3505050505050565b5f7f01ffc9a7000000000000000000000000000000000000000000000000000000007bffffffffffffffffffffffffffffffffffffffffffffffffffffffff1916827bffffffffffffffffffffffffffffffffffffffffffffffffffffffff1916149050919050565b6129fc611484565b15612a3c576040517f08c379a0000000000000000000000000000000000000000000000000000000008152600401612a339061538a565b60405180910390fd5b565b5f5b8280549050811015612aef5781838281548110612a6057612a5f6153a8565b5b905f5260205f20015403612ae2578260018480549050612a809190615402565b81548110612a9157612a906153a8565b5b905f5260205f200154838281548110612aad57612aac6153a8565b5b905f5260205f20018190555082805480612aca57612ac9615435565b5b600190038181905f5260205f20015f90559055612aef565b8080600101915050612a40565b505050565b5f80612aff83613664565b90505f73ffffffffffffffffffffffffffffffffffffffff168173ffffffffffffffffffffffffffffffffffffffff1603612b7157826040517f7e273289000000000000000000000000000000000000000000000000000000008152600401612b689190614194565b60405180910390fd5b80915050919050565b5f60045f8381526020019081526020015f205f9054906101000a900473ffffffffffffffffffffffffffffffffffffffff169050919050565b5f33905090565b612bc7838383600161369d565b505050565b5f80612bd784613664565b90505f73ffffffffffffffffffffffffffffffffffffffff168373ffffffffffffffffffffffffffffffffffffffff1614612c1857612c1781848661385c565b5b5f73ffffffffffffffffffffffffffffffffffffffff168173ffffffffffffffffffffffffffffffffffffffff1614612ca357612c575f855f8061369d565b600160035f8373ffffffffffffffffffffffffffffffffffffffff1673ffffffffffffffffffffffffffffffffffffffff1681526020019081526020015f205f82825403925050819055505b5f73ffffffffffffffffffffffffffffffffffffffff168573ffffffffffffffffffffffffffffffffffffffff1614612d2257600160035f8773ffffffffffffffffffffffffffffffffffffffff1673ffffffffffffffffffffffffffffffffffffffff1681526020019081526020015f205f82825401925050819055505b8460025f8681526020019081526020015f205f6101000a81548173ffffffffffffffffffffffffffffffffffffffff021916908373ffffffffffffffffffffffffffffffffffffffff160217905550838573ffffffffffffffffffffffffffffffffffffffff168273ffffffffffffffffffffffffffffffffffffffff167fddf252ad1be2c89b69c2b068fc378daa952ba7f163c4a11628f55a4df523b3ef60405160405180910390a4809150509392505050565b612ddf61391f565b5f60065f6101000a81548160ff0219169083151502179055507f5db9ee0a495bf2e6ff9c91a7834c1ba4fdd244a5e8aa4e537bd38aeae4b073aa612e21612bb3565b604051612e2e9190613ef4565b60405180910390a1565b612e406129f4565b600160065f6101000a81548160ff0219169083151502179055507f62e78cea01bee320cd4e420270b5ea74000d11b0c9f74754ebdbfc544b05a258612e83612bb3565b604051612e909190613ef4565b60405180910390a1565b5f73ffffffffffffffffffffffffffffffffffffffff168273ffffffffffffffffffffffffffffffffffffffff1603612f0a57816040517f5b08ba18000000000000000000000000000000000000000000000000000000008152600401612f019190613ef4565b60405180910390fd5b8060055f8573ffffffffffffffffffffffffffffffffffffffff1673ffffffffffffffffffffffffffffffffffffffff1681526020019081526020015f205f8473ffffffffffffffffffffffffffffffffffffffff1673ffffffffffffffffffffffffffffffffffffffff1681526020019081526020015f205f6101000a81548160ff0219169083151502179055508173ffffffffffffffffffffffffffffffffffffffff168373ffffffffffffffffffffffffffffffffffffffff167f17307eab39ab6107e8899845ad3d59bd9653f200f220920489ca2b5937696c3183604051612ff69190613dcd565b60405180910390a3505050565b5f8373ffffffffffffffffffffffffffffffffffffffff163b11156131a8578273ffffffffffffffffffffffffffffffffffffffff1663150b7a02868685856040518563ffffffff1660e01b815260040161306194939291906154b4565b6020604051808303815f875af192505050801561309c57506040513d601f19601f820116820180604052508101906130999190615512565b60015b61311d573d805f81146130ca576040519150601f19603f3d011682016040523d82523d5f602084013e6130cf565b606091505b505f81510361311557836040517f64a0ae9200000000000000000000000000000000000000000000000000000000815260040161310c9190613ef4565b60405180910390fd5b805181602001fd5b63150b7a0260e01b7bffffffffffffffffffffffffffffffffffffffffffffffffffffffff1916817bffffffffffffffffffffffffffffffffffffffffffffffffffffffff1916146131a657836040517f64a0ae9200000000000000000000000000000000000000000000000000000000815260040161319d9190613ef4565b60405180910390fd5b505b5050505050565b606060405180602001604052805f815250905090565b60605f60016131d384613968565b0190505f8167ffffffffffffffff8111156131f1576131f061438f565b5b6040519080825280601f01601f1916602001820160405280156132235781602001600182028036833780820191505090505b5090505f82602001820190505b600115613284578080600190039150507f3031323334353637383961626364656600000000000000000000000000000000600a86061a8153600a85816132795761327861553d565b5b0494505f8503613230575b819350505050919050565b6001815f015f828254019250508190555050565b5f815f01549050919050565b6132c8828260405180602001604052805f815250613ab9565b5050565b600c5f8481526020019081526020015f206004015f9054906101000a900460ff161561332d576040517f08c379a0000000000000000000000000000000000000000000000000000000008152600401613324906155b4565b60405180910390fd5b5f7f000000000000000000000000000000000000000000000000000000000000000073ffffffffffffffffffffffffffffffffffffffff1663ff91e489846040518263ffffffff1660e01b81526004016133879190614194565b5f60405180830381865afa1580156133a1573d5f803e3d5ffd5b505050506040513d5f823e3d601f19601f820116820180604052508101906133c99190614ceb565b90505f7f000000000000000000000000000000000000000000000000000000000000000073ffffffffffffffffffffffffffffffffffffffff1663e3fbf3148360c001516040518263ffffffff1660e01b81526004016134299190614194565b5f60405180830381865afa158015613443573d5f803e3d5ffd5b505050506040513d5f823e3d601f19601f8201168201806040525081019061346b91906150fc565b90505f7f000000000000000000000000000000000000000000000000000000000000000073ffffffffffffffffffffffffffffffffffffffff16631f7418976040518163ffffffff1660e01b8152600401602060405180830381865afa1580156134d7573d5f803e3d5ffd5b505050506040513d601f19601f820116820180604052508101906134fb91906155d2565b90506064826080015184608001518361351491906155fd565b61351e91906155fd565b111561355f576040517f08c379a00000000000000000000000000000000000000000000000000000000081526004016135569061567a565b60405180910390fd5b7f000000000000000000000000000000000000000000000000000000000000000073ffffffffffffffffffffffffffffffffffffffff166317ba1245875f8660200151866060015189878a608001518a608001516040518963ffffffff1660e01b81526004016135d6989796959493929190615698565b5f604051808303815f87803b1580156135ed575f80fd5b505af11580156135ff573d5f803e3d5ffd5b505050506001600c5f8881526020019081526020015f206004015f6101000a81548160ff021916908315150217905550857f02deede74b5d808c4427b3b6f5c19347053842f97802787be8edf94f1c9714e860405160405180910390a2505050505050565b5f60025f8381526020019081526020015f205f9054906101000a900473ffffffffffffffffffffffffffffffffffffffff169050919050565b80806136d557505f73ffffffffffffffffffffffffffffffffffffffff168273ffffffffffffffffffffffffffffffffffffffff1614155b15613807575f6136e484612af4565b90505f73ffffffffffffffffffffffffffffffffffffffff168373ffffffffffffffffffffffffffffffffffffffff161415801561374e57508273ffffffffffffffffffffffffffffffffffffffff168173ffffffffffffffffffffffffffffffffffffffff1614155b8015613761575061375f81846123a8565b155b156137a357826040517fa9fbf51f00000000000000000000000000000000000000000000000000000000815260040161379a9190613ef4565b60405180910390fd5b811561380557838573ffffffffffffffffffffffffffffffffffffffff168273ffffffffffffffffffffffffffffffffffffffff167f8c5be1e5ebec7d5bd14f71427d1e84f3dd0314c0f7b2291e5b200ac8c7c3b92560405160405180910390a45b505b8360045f8581526020019081526020015f205f6101000a81548173ffffffffffffffffffffffffffffffffffffffff021916908373ffffffffffffffffffffffffffffffffffffffff16021790555050505050565b613867838383613adc565b61391a575f73ffffffffffffffffffffffffffffffffffffffff168373ffffffffffffffffffffffffffffffffffffffff16036138db57806040517f7e2732890000000000000000000000000000000000000000000000000000000081526004016138d29190614194565b60405180910390fd5b81816040517f177e802f000000000000000000000000000000000000000000000000000000008152600401613911929190615714565b60405180910390fd5b505050565b613927611484565b613966576040517f08c379a000000000000000000000000000000000000000000000000000000000815260040161395d90615785565b60405180910390fd5b565b5f805f90507a184f03e93ff9f4daa797ed6e38ed64bf6a1f01000000000000000083106139c4577a184f03e93ff9f4daa797ed6e38ed64bf6a1f01000000000000000083816139ba576139b961553d565b5b0492506040810190505b6d04ee2d6d415b85acef81000000008310613a01576d04ee2d6d415b85acef810000000083816139f7576139f661553d565b5b0492506020810190505b662386f26fc100008310613a3057662386f26fc100008381613a2657613a2561553d565b5b0492506010810190505b6305f5e1008310613a59576305f5e1008381613a4f57613a4e61553d565b5b0492506008810190505b6127108310613a7e576127108381613a7457613a7361553d565b5b0492506004810190505b60648310613aa15760648381613a9757613a9661553d565b5b0492506002810190505b600a8310613ab0576001810190505b80915050919050565b613ac38383613b9c565b613ad7613ace612bb3565b5f858585613003565b505050565b5f8073ffffffffffffffffffffffffffffffffffffffff168373ffffffffffffffffffffffffffffffffffffffff1614158015613b9357508273ffffffffffffffffffffffffffffffffffffffff168473ffffffffffffffffffffffffffffffffffffffff161480613b545750613b5384846123a8565b5b80613b9257508273ffffffffffffffffffffffffffffffffffffffff16613b7a83612b7a565b73ffffffffffffffffffffffffffffffffffffffff16145b5b90509392505050565b5f73ffffffffffffffffffffffffffffffffffffffff168273ffffffffffffffffffffffffffffffffffffffff1603613c0c575f6040517f64a0ae92000000000000000000000000000000000000000000000000000000008152600401613c039190613ef4565b60405180910390fd5b5f613c1883835f612bcc565b90505f73ffffffffffffffffffffffffffffffffffffffff168173ffffffffffffffffffffffffffffffffffffffff1614613c8a575f6040517f73c6ac6e000000000000000000000000000000000000000000000000000000008152600401613c819190613ef4565b60405180910390fd5b505050565b5f73ffffffffffffffffffffffffffffffffffffffff82169050919050565b5f819050919050565b5f613cd1613ccc613cc784613c8f565b613cae565b613c8f565b9050919050565b5f613ce282613cb7565b9050919050565b5f613cf382613cd8565b9050919050565b613d0381613ce9565b82525050565b5f602082019050613d1c5f830184613cfa565b92915050565b5f604051905090565b5f80fd5b5f80fd5b5f7fffffffff0000000000000000000000000000000000000000000000000000000082169050919050565b613d6781613d33565b8114613d71575f80fd5b50565b5f81359050613d8281613d5e565b92915050565b5f60208284031215613d9d57613d9c613d2b565b5b5f613daa84828501613d74565b91505092915050565b5f8115159050919050565b613dc781613db3565b82525050565b5f602082019050613de05f830184613dbe565b92915050565b5f81519050919050565b5f82825260208201905092915050565b8281835e5f83830152505050565b5f601f19601f8301169050919050565b5f613e2882613de6565b613e328185613df0565b9350613e42818560208601613e00565b613e4b81613e0e565b840191505092915050565b5f6020820190508181035f830152613e6e8184613e1e565b905092915050565b5f819050919050565b613e8881613e76565b8114613e92575f80fd5b50565b5f81359050613ea381613e7f565b92915050565b5f60208284031215613ebe57613ebd613d2b565b5b5f613ecb84828501613e95565b91505092915050565b5f613ede82613c8f565b9050919050565b613eee81613ed4565b82525050565b5f602082019050613f075f830184613ee5565b92915050565b613f1681613ed4565b8114613f20575f80fd5b50565b5f81359050613f3181613f0d565b92915050565b5f60208284031215613f4c57613f4b613d2b565b5b5f613f5984828501613f23565b91505092915050565b5f81519050919050565b5f82825260208201905092915050565b5f819050602082019050919050565b613f9481613e76565b82525050565b5f613fa58383613f8b565b60208301905092915050565b5f602082019050919050565b5f613fc782613f62565b613fd18185613f6c565b9350613fdc83613f7c565b805f5b8381101561400c578151613ff38882613f9a565b9750613ffe83613fb1565b925050600181019050613fdf565b5085935050505092915050565b5f6020820190508181035f8301526140318184613fbd565b905092915050565b5f806040838503121561404f5761404e613d2b565b5b5f61405c85828601613f23565b925050602061406d85828601613e95565b9150509250929050565b5f805f6060848603121561408e5761408d613d2b565b5b5f61409b86828701613f23565b93505060206140ac86828701613f23565b92505060406140bd86828701613e95565b9150509250925092565b5f80fd5b5f80fd5b5f80fd5b5f8083601f8401126140e8576140e76140c7565b5b8235905067ffffffffffffffff811115614105576141046140cb565b5b602083019150836001820283011115614121576141206140cf565b5b9250929050565b5f805f6040848603121561413f5761413e613d2b565b5b5f61414c86828701613e95565b935050602084013567ffffffffffffffff81111561416d5761416c613d2f565b5b614179868287016140d3565b92509250509250925092565b61418e81613e76565b82525050565b5f6020820190506141a75f830184614185565b92915050565b5f6141b782613cd8565b9050919050565b6141c7816141ad565b82525050565b5f6020820190506141e05f8301846141be565b92915050565b5f6141f082613cd8565b9050919050565b614200816141e6565b82525050565b5f6020820190506142195f8301846141f7565b92915050565b61422881613db3565b8114614232575f80fd5b50565b5f813590506142438161421f565b92915050565b5f806040838503121561425f5761425e613d2b565b5b5f61426c85828601613f23565b925050602061427d85828601614235565b9150509250929050565b7f4e487b71000000000000000000000000000000000000000000000000000000005f52602160045260245ffd5b600481106142c5576142c4614287565b5b50565b5f8190506142d5826142b4565b919050565b5f6142e4826142c8565b9050919050565b6142f4816142da565b82525050565b5f60a08201905061430d5f830188614185565b61431a6020830187613ee5565b818103604083015261432c8186613e1e565b905061433b60608301856142eb565b6143486080830184614185565b9695505050505050565b5f61435c82613cd8565b9050919050565b61436c81614352565b82525050565b5f6020820190506143855f830184614363565b92915050565b5f80fd5b7f4e487b71000000000000000000000000000000000000000000000000000000005f52604160045260245ffd5b6143c582613e0e565b810181811067ffffffffffffffff821117156143e4576143e361438f565b5b80604052505050565b5f6143f6613d22565b905061440282826143bc565b919050565b5f67ffffffffffffffff8211156144215761442061438f565b5b61442a82613e0e565b9050602081019050919050565b828183375f83830152505050565b5f61445761445284614407565b6143ed565b9050828152602081018484840111156144735761447261438b565b5b61447e848285614437565b509392505050565b5f82601f83011261449a576144996140c7565b5b81356144aa848260208601614445565b91505092915050565b5f805f80608085870312156144cb576144ca613d2b565b5b5f6144d887828801613f23565b94505060206144e987828801613f23565b93505060406144fa87828801613e95565b925050606085013567ffffffffffffffff81111561451b5761451a613d2f565b5b61452787828801614486565b91505092959194509250565b5f60c0820190506145465f830189614185565b6145536020830188614185565b6145606040830187613ee5565b81810360608301526145728186613e1e565b90506145816080830185613dbe565b61458e60a0830184614185565b979650505050505050565b5f80604083850312156145af576145ae613d2b565b5b5f6145bc85828601613f23565b92505060206145cd85828601613f23565b9150509250929050565b7f4e487b71000000000000000000000000000000000000000000000000000000005f52602260045260245ffd5b5f600282049050600182168061461b57607f821691505b60208210810361462e5761462d6145d7565b5b50919050565b5f819050919050565b61464681614634565b8114614650575f80fd5b50565b5f815190506146618161463d565b92915050565b5f6020828403121561467c5761467b613d2b565b5b5f61468984828501614653565b91505092915050565b61469b81614634565b82525050565b5f6040820190506146b45f830185614692565b6146c16020830184613ee5565b9392505050565b5f815190506146d68161421f565b92915050565b5f602082840312156146f1576146f0613d2b565b5b5f6146fe848285016146c8565b91505092915050565b7f4d7573742068617665205041494e5445525f524f4c45000000000000000000005f82015250565b5f61473b601683613df0565b915061474682614707565b602082019050919050565b5f6020820190508181035f8301526147688161472f565b9050919050565b7f4e6f742061737369676e6564207061696e7465720000000000000000000000005f82015250565b5f6147a3601483613df0565b91506147ae8261476f565b602082019050919050565b5f6020820190508181035f8301526147d081614797565b9050919050565b7f4e6f7420696e2070726f636573730000000000000000000000000000000000005f82015250565b5f61480b600e83613df0565b9150614816826147d7565b602082019050919050565b5f6020820190508181035f830152614838816147ff565b9050919050565b5f6060820190506148525f830186613ee5565b61485f6020830185614185565b61486c6040830184613ee5565b949350505050565b7f4d75737420686176652041444d494e5f524f4c450000000000000000000000005f82015250565b5f6148a8601483613df0565b91506148b382614874565b602082019050919050565b5f6020820190508181035f8301526148d58161489c565b9050919050565b7f4465736372697074696f6e2063616e6e6f7420626520656d70747900000000005f82015250565b5f614910601b83613df0565b915061491b826148dc565b602082019050919050565b5f6020820190508181035f83015261493d81614904565b9050919050565b7f57616c6c20616c7265616479207061696e7465640000000000000000000000005f82015250565b5f614978601483613df0565b915061498382614944565b602082019050919050565b5f6020820190508181035f8301526149a58161496c565b9050919050565b7f52657175657374206578697374730000000000000000000000000000000000005f82015250565b5f6149e0600e83613df0565b91506149eb826149ac565b602082019050919050565b5f6020820190508181035f830152614a0d816149d4565b9050919050565b5f80fd5b5f80fd5b5f81519050614a2a81613e7f565b92915050565b5f81519050614a3e81613f0d565b92915050565b5f67ffffffffffffffff821115614a5e57614a5d61438f565b5b614a6782613e0e565b9050602081019050919050565b5f614a86614a8184614a44565b6143ed565b905082815260208101848484011115614aa257614aa161438b565b5b614aad848285613e00565b509392505050565b5f82601f830112614ac957614ac86140c7565b5b8151614ad9848260208601614a74565b91505092915050565b5f819050919050565b614af481614ae2565b8114614afe575f80fd5b50565b5f81519050614b0f81614aeb565b92915050565b5f60a08284031215614b2a57614b29614a14565b5b614b3460a06143ed565b90505f82015167ffffffffffffffff811115614b5357614b52614a18565b5b614b5f84828501614ab5565b5f83015250602082015167ffffffffffffffff811115614b8257614b81614a18565b5b614b8e84828501614ab5565b602083015250604082015167ffffffffffffffff811115614bb257614bb1614a18565b5b614bbe84828501614ab5565b6040830152506060614bd284828501614b01565b6060830152506080614be684828501614b01565b60808301525092915050565b5f6101208284031215614c0857614c07614a14565b5b614c136101206143ed565b90505f614c2284828501614a1c565b5f830152506020614c3584828501614a30565b602083015250604082015167ffffffffffffffff811115614c5957614c58614a18565b5b614c6584828501614b15565b6040830152506060614c7984828501614a1c565b6060830152506080614c8d84828501614a1c565b60808301525060a0614ca1848285016146c8565b60a08301525060c0614cb584828501614a1c565b60c08301525060e0614cc984828501614a1c565b60e083015250610100614cde84828501614a1c565b6101008301525092915050565b5f60208284031215614d0057614cff613d2b565b5b5f82015167ffffffffffffffff811115614d1d57614d1c613d2f565b5b614d2984828501614bf2565b91505092915050565b7f57616c6c206e6f7420696e2067616c6c657279000000000000000000000000005f82015250565b5f614d66601383613df0565b9150614d7182614d32565b602082019050919050565b5f6020820190508181035f830152614d9381614d5a565b9050919050565b5f819050815f5260205f209050919050565b5f6020601f8301049050919050565b5f82821b905092915050565b5f60088302614df67fffffffffffffffffffffffffffffffffffffffffffffffffffffffffffffffff82614dbb565b614e008683614dbb565b95508019841693508086168417925050509392505050565b5f614e32614e2d614e2884613e76565b613cae565b613e76565b9050919050565b5f819050919050565b614e4b83614e18565b614e5f614e5782614e39565b848454614dc7565b825550505050565b5f90565b614e73614e67565b614e7e818484614e42565b505050565b5b81811015614ea157614e965f82614e6b565b600181019050614e84565b5050565b601f821115614ee657614eb781614d9a565b614ec084614dac565b81016020851015614ecf578190505b614ee3614edb85614dac565b830182614e83565b50505b505050565b5f82821c905092915050565b5f614f065f1984600802614eeb565b1980831691505092915050565b5f614f1e8383614ef7565b9150826002028217905092915050565b614f3782613de6565b67ffffffffffffffff811115614f5057614f4f61438f565b5b614f5a8254614604565b614f65828285614ea5565b5f60209050601f831160018114614f96575f8415614f84578287015190505b614f8e8582614f13565b865550614ff5565b601f198416614fa486614d9a565b5f5b82811015614fcb57848901518255600182019150602085019450602081019050614fa6565b86831015614fe85784890151614fe4601f891682614ef7565b8355505b6001600288020188555050505b505050505050565b5f610100828403121561501357615012614a14565b5b61501e6101006143ed565b90505f61502d84828501614a1c565b5f83015250602082015167ffffffffffffffff8111156150505761504f614a18565b5b61505c84828501614ab5565b602083015250604082015167ffffffffffffffff8111156150805761507f614a18565b5b61508c84828501614ab5565b60408301525060606150a084828501614a30565b60608301525060806150b484828501614a1c565b60808301525060a06150c8848285016146c8565b60a08301525060c06150dc84828501614a1c565b60c08301525060e06150f084828501614a1c565b60e08301525092915050565b5f6020828403121561511157615110613d2b565b5b5f82015167ffffffffffffffff81111561512e5761512d613d2f565b5b61513a84828501614ffd565b91505092915050565b7f47616c6c657279206e6f742061637469766500000000000000000000000000005f82015250565b5f615177601283613df0565b915061518282615143565b602082019050919050565b5f6020820190508181035f8301526151a48161516b565b9050919050565b7f4e6f742067616c6c657279206f776e65720000000000000000000000000000005f82015250565b5f6151df601183613df0565b91506151ea826151ab565b602082019050919050565b5f6020820190508181035f83015261520c816151d3565b9050919050565b7f496e76616c6964207374617475730000000000000000000000000000000000005f82015250565b5f615247600e83613df0565b915061525282615213565b602082019050919050565b5f6020820190508181035f8301526152748161523b565b9050919050565b5f81905092915050565b5f61528f82613de6565b615299818561527b565b93506152a9818560208601613e00565b80840191505092915050565b5f6152c08285615285565b91506152cc8284615285565b91508190509392505050565b7f4e6f7420636f6d706c65746564000000000000000000000000000000000000005f82015250565b5f61530c600d83613df0565b9150615317826152d8565b602082019050919050565b5f6020820190508181035f83015261533981615300565b9050919050565b7f5061757361626c653a20706175736564000000000000000000000000000000005f82015250565b5f615374601083613df0565b915061537f82615340565b602082019050919050565b5f6020820190508181035f8301526153a181615368565b9050919050565b7f4e487b71000000000000000000000000000000000000000000000000000000005f52603260045260245ffd5b7f4e487b71000000000000000000000000000000000000000000000000000000005f52601160045260245ffd5b5f61540c82613e76565b915061541783613e76565b925082820390508181111561542f5761542e6153d5565b5b92915050565b7f4e487b71000000000000000000000000000000000000000000000000000000005f52603160045260245ffd5b5f81519050919050565b5f82825260208201905092915050565b5f61548682615462565b615490818561546c565b93506154a0818560208601613e00565b6154a981613e0e565b840191505092915050565b5f6080820190506154c75f830187613ee5565b6154d46020830186613ee5565b6154e16040830185614185565b81810360608301526154f3818461547c565b905095945050505050565b5f8151905061550c81613d5e565b92915050565b5f6020828403121561552757615526613d2b565b5b5f615534848285016154fe565b91505092915050565b7f4e487b71000000000000000000000000000000000000000000000000000000005f52601260045260245ffd5b7f536861726573206d696e746564000000000000000000000000000000000000005f82015250565b5f61559e600d83613df0565b91506155a98261556a565b602082019050919050565b5f6020820190508181035f8301526155cb81615592565b9050919050565b5f602082840312156155e7576155e6613d2b565b5b5f6155f484828501614a1c565b91505092915050565b5f61560782613e76565b915061561283613e76565b925082820190508082111561562a576156296153d5565b5b92915050565b7f45786365656473203130302500000000000000000000000000000000000000005f82015250565b5f615664600c83613df0565b915061566f82615630565b602082019050919050565b5f6020820190508181035f83015261569181615658565b9050919050565b5f610100820190506156ac5f83018b614185565b6156b9602083018a613ee5565b6156c66040830189613ee5565b6156d36060830188613ee5565b6156e06080830187613ee5565b6156ed60a0830186614185565b6156fa60c0830185614185565b61570760e0830184614185565b9998505050505050505050565b5f6040820190506157275f830185613ee5565b6157346020830184614185565b9392505050565b7f5061757361626c653a206e6f74207061757365640000000000000000000000005f82015250565b5f61576f601483613df0565b915061577a8261573b565b602082019050919050565b5f6020820190508181035f83015261579c81615763565b905091905056fea264697066735822122029cb9782dc399c2f3835c1b300c79af97227c9c49cbf833a296344e42d91891c64736f6c634300081a0033",
			"opcodes": "PUSH2 0x100 PUSH1 0x40 MSTORE CALLVALUE DUP1 ISZERO PUSH2 0x10 JUMPI PUSH0 DUP1 REVERT JUMPDEST POP PUSH1 0x40 MLOAD PUSH2 0x6175 CODESIZE SUB DUP1 PUSH2 0x6175 DUP4 CODECOPY DUP2 DUP2 ADD PUSH1 0x40 MSTORE DUP2 ADD SWAP1 PUSH2 0x32 SWAP2 SWAP1 PUSH2 0x3C7 JUMP JUMPDEST PUSH1 0x40 MLOAD DUP1 PUSH1 0x40 ADD PUSH1 0x40 MSTORE DUP1 PUSH1 0xD DUP2 MSTORE PUSH1 0x20 ADD PUSH32 0x57616C6C205061696E74696E6700000000000000000000000000000000000000 DUP2 MSTORE POP PUSH1 0x40 MLOAD DUP1 PUSH1 0x40 ADD PUSH1 0x40 MSTORE DUP1 PUSH1 0x6 DUP2 MSTORE PUSH1 0x20 ADD PUSH32 0x575041494E540000000000000000000000000000000000000000000000000000 DUP2 MSTORE POP DUP2 PUSH0 SWAP1 DUP2 PUSH2 0xAC SWAP2 SWAP1 PUSH2 0x665 JUMP JUMPDEST POP DUP1 PUSH1 0x1 SWAP1 DUP2 PUSH2 0xBC SWAP2 SWAP1 PUSH2 0x665 JUMP JUMPDEST POP POP POP PUSH0 PUSH1 0x6 PUSH0 PUSH2 0x100 EXP DUP2 SLOAD DUP2 PUSH1 0xFF MUL NOT AND SWAP1 DUP4 ISZERO ISZERO MUL OR SWAP1 SSTORE POP PUSH0 PUSH20 0xFFFFFFFFFFFFFFFFFFFFFFFFFFFFFFFFFFFFFFFF AND DUP5 PUSH20 0xFFFFFFFFFFFFFFFFFFFFFFFFFFFFFFFFFFFFFFFF AND SUB PUSH2 0x146 JUMPI PUSH1 0x40 MLOAD PUSH32 0x8C379A000000000000000000000000000000000000000000000000000000000 DUP2 MSTORE PUSH1 0x4 ADD PUSH2 0x13D SWAP1 PUSH2 0x78E JUMP JUMPDEST PUSH1 0x40 MLOAD DUP1 SWAP2 SUB SWAP1 REVERT JUMPDEST PUSH0 PUSH20 0xFFFFFFFFFFFFFFFFFFFFFFFFFFFFFFFFFFFFFFFF AND DUP4 PUSH20 0xFFFFFFFFFFFFFFFFFFFFFFFFFFFFFFFFFFFFFFFF AND SUB PUSH2 0x1B4 JUMPI PUSH1 0x40 MLOAD PUSH32 0x8C379A000000000000000000000000000000000000000000000000000000000 DUP2 MSTORE PUSH1 0x4 ADD PUSH2 0x1AB SWAP1 PUSH2 0x7F6 JUMP JUMPDEST PUSH1 0x40 MLOAD DUP1 SWAP2 SUB SWAP1 REVERT JUMPDEST PUSH0 PUSH20 0xFFFFFFFFFFFFFFFFFFFFFFFFFFFFFFFFFFFFFFFF AND DUP3 PUSH20 0xFFFFFFFFFFFFFFFFFFFFFFFFFFFFFFFFFFFFFFFF AND SUB PUSH2 0x222 JUMPI PUSH1 0x40 MLOAD PUSH32 0x8C379A000000000000000000000000000000000000000000000000000000000 DUP2 MSTORE PUSH1 0x4 ADD PUSH2 0x219 SWAP1 PUSH2 0x85E JUMP JUMPDEST PUSH1 0x40 MLOAD DUP1 SWAP2 SUB SWAP1 REVERT JUMPDEST PUSH0 PUSH20 0xFFFFFFFFFFFFFFFFFFFFFFFFFFFFFFFFFFFFFFFF AND DUP2 PUSH20 0xFFFFFFFFFFFFFFFFFFFFFFFFFFFFFFFFFFFFFFFF AND SUB PUSH2 0x290 JUMPI PUSH1 0x40 MLOAD PUSH32 0x8C379A000000000000000000000000000000000000000000000000000000000 DUP2 MSTORE PUSH1 0x4 ADD PUSH2 0x287 SWAP1 PUSH2 0x8C6 JUMP JUMPDEST PUSH1 0x40 MLOAD DUP1 SWAP2 SUB SWAP1 REVERT JUMPDEST DUP4 PUSH20 0xFFFFFFFFFFFFFFFFFFFFFFFFFFFFFFFFFFFFFFFF AND PUSH1 0x80 DUP2 PUSH20 0xFFFFFFFFFFFFFFFFFFFFFFFFFFFFFFFFFFFFFFFF AND DUP2 MSTORE POP POP DUP3 PUSH20 0xFFFFFFFFFFFFFFFFFFFFFFFFFFFFFFFFFFFFFFFF AND PUSH1 0xA0 DUP2 PUSH20 0xFFFFFFFFFFFFFFFFFFFFFFFFFFFFFFFFFFFFFFFF AND DUP2 MSTORE POP POP DUP2 PUSH20 0xFFFFFFFFFFFFFFFFFFFFFFFFFFFFFFFFFFFFFFFF AND PUSH1 0xC0 DUP2 PUSH20 0xFFFFFFFFFFFFFFFFFFFFFFFFFFFFFFFFFFFFFFFF AND DUP2 MSTORE POP POP DUP1 PUSH20 0xFFFFFFFFFFFFFFFFFFFFFFFFFFFFFFFFFFFFFFFF AND PUSH1 0xE0 DUP2 PUSH20 0xFFFFFFFFFFFFFFFFFFFFFFFFFFFFFFFFFFFFFFFF AND DUP2 MSTORE POP POP POP POP POP POP PUSH2 0x8E4 JUMP JUMPDEST PUSH0 DUP1 REVERT JUMPDEST PUSH0 PUSH20 0xFFFFFFFFFFFFFFFFFFFFFFFFFFFFFFFFFFFFFFFF DUP3 AND SWAP1 POP SWAP2 SWAP1 POP JUMP JUMPDEST PUSH0 PUSH2 0x396 DUP3 PUSH2 0x36D JUMP JUMPDEST SWAP1 POP SWAP2 SWAP1 POP JUMP JUMPDEST PUSH2 0x3A6 DUP2 PUSH2 0x38C JUMP JUMPDEST DUP2 EQ PUSH2 0x3B0 JUMPI PUSH0 DUP1 REVERT JUMPDEST POP JUMP JUMPDEST PUSH0 DUP2 MLOAD SWAP1 POP PUSH2 0x3C1 DUP2 PUSH2 0x39D JUMP JUMPDEST SWAP3 SWAP2 POP POP JUMP JUMPDEST PUSH0 DUP1 PUSH0 DUP1 PUSH1 0x80 DUP6 DUP8 SUB SLT ISZERO PUSH2 0x3DF JUMPI PUSH2 0x3DE PUSH2 0x369 JUMP JUMPDEST JUMPDEST PUSH0 PUSH2 0x3EC DUP8 DUP3 DUP9 ADD PUSH2 0x3B3 JUMP JUMPDEST SWAP5 POP POP PUSH1 0x20 PUSH2 0x3FD DUP8 DUP3 DUP9 ADD PUSH2 0x3B3 JUMP JUMPDEST SWAP4 POP POP PUSH1 0x40 PUSH2 0x40E DUP8 DUP3 DUP9 ADD PUSH2 0x3B3 JUMP JUMPDEST SWAP3 POP POP PUSH1 0x60 PUSH2 0x41F DUP8 DUP3 DUP9 ADD PUSH2 0x3B3 JUMP JUMPDEST SWAP2 POP POP SWAP3 SWAP6 SWAP2 SWAP5 POP SWAP3 POP JUMP JUMPDEST PUSH0 DUP2 MLOAD SWAP1 POP SWAP2 SWAP1 POP JUMP JUMPDEST PUSH32 0x4E487B7100000000000000000000000000000000000000000000000000000000 PUSH0 MSTORE PUSH1 0x41 PUSH1 0x4 MSTORE PUSH1 0x24 PUSH0 REVERT JUMPDEST PUSH32 0x4E487B7100000000000000000000000000000000000000000000000000000000 PUSH0 MSTORE PUSH1 0x22 PUSH1 0x4 MSTORE PUSH1 0x24 PUSH0 REVERT JUMPDEST PUSH0 PUSH1 0x2 DUP3 DIV SWAP1 POP PUSH1 0x1 DUP3 AND DUP1 PUSH2 0x4A6 JUMPI PUSH1 0x7F DUP3 AND SWAP2 POP JUMPDEST PUSH1 0x20 DUP3 LT DUP2 SUB PUSH2 0x4B9 JUMPI PUSH2 0x4B8 PUSH2 0x462 JUMP JUMPDEST JUMPDEST POP SWAP2 SWAP1 POP JUMP JUMPDEST PUSH0 DUP2 SWAP1 POP DUP2 PUSH0 MSTORE PUSH1 0x20 PUSH0 KECCAK256 SWAP1 POP SWAP2 SWAP1 POP JUMP JUMPDEST PUSH0 PUSH1 0x20 PUSH1 0x1F DUP4 ADD DIV SWAP1 POP SWAP2 SWAP1 POP JUMP JUMPDEST PUSH0 DUP3 DUP3 SHL SWAP1 POP SWAP3 SWAP2 POP POP JUMP JUMPDEST PUSH0 PUSH1 0x8 DUP4 MUL PUSH2 0x51B PUSH32 0xFFFFFFFFFFFFFFFFFFFFFFFFFFFFFFFFFFFFFFFFFFFFFFFFFFFFFFFFFFFFFFFF DUP3 PUSH2 0x4E0 JUMP JUMPDEST PUSH2 0x525 DUP7 DUP4 PUSH2 0x4E0 JUMP JUMPDEST SWAP6 POP DUP1 NOT DUP5 AND SWAP4 POP DUP1 DUP7 AND DUP5 OR SWAP3 POP POP POP SWAP4 SWAP3 POP POP POP JUMP JUMPDEST PUSH0 DUP2 SWAP1 POP SWAP2 SWAP1 POP JUMP JUMPDEST PUSH0 DUP2 SWAP1 POP SWAP2 SWAP1 POP JUMP JUMPDEST PUSH0 PUSH2 0x569 PUSH2 0x564 PUSH2 0x55F DUP5 PUSH2 0x53D JUMP JUMPDEST PUSH2 0x546 JUMP JUMPDEST PUSH2 0x53D JUMP JUMPDEST SWAP1 POP SWAP2 SWAP1 POP JUMP JUMPDEST PUSH0 DUP2 SWAP1 POP SWAP2 SWAP1 POP JUMP JUMPDEST PUSH2 0x582 DUP4 PUSH2 0x54F JUMP JUMPDEST PUSH2 0x596 PUSH2 0x58E DUP3 PUSH2 0x570 JUMP JUMPDEST DUP5 DUP5 SLOAD PUSH2 0x4EC JUMP JUMPDEST DUP3 SSTORE POP POP POP POP JUMP JUMPDEST PUSH0 SWAP1 JUMP JUMPDEST PUSH2 0x5AA PUSH2 0x59E JUMP JUMPDEST PUSH2 0x5B5 DUP2 DUP5 DUP5 PUSH2 0x579 JUMP JUMPDEST POP POP POP JUMP JUMPDEST JUMPDEST DUP2 DUP2 LT ISZERO PUSH2 0x5D8 JUMPI PUSH2 0x5CD PUSH0 DUP3 PUSH2 0x5A2 JUMP JUMPDEST PUSH1 0x1 DUP2 ADD SWAP1 POP PUSH2 0x5BB JUMP JUMPDEST POP POP JUMP JUMPDEST PUSH1 0x1F DUP3 GT ISZERO PUSH2 0x61D JUMPI PUSH2 0x5EE DUP2 PUSH2 0x4BF JUMP JUMPDEST PUSH2 0x5F7 DUP5 PUSH2 0x4D1 JUMP JUMPDEST DUP2 ADD PUSH1 0x20 DUP6 LT ISZERO PUSH2 0x606 JUMPI DUP2 SWAP1 POP JUMPDEST PUSH2 0x61A PUSH2 0x612 DUP6 PUSH2 0x4D1 JUMP JUMPDEST DUP4 ADD DUP3 PUSH2 0x5BA JUMP JUMPDEST POP POP JUMPDEST POP POP POP JUMP JUMPDEST PUSH0 DUP3 DUP3 SHR SWAP1 POP SWAP3 SWAP2 POP POP JUMP JUMPDEST PUSH0 PUSH2 0x63D PUSH0 NOT DUP5 PUSH1 0x8 MUL PUSH2 0x622 JUMP JUMPDEST NOT DUP1 DUP4 AND SWAP2 POP POP SWAP3 SWAP2 POP POP JUMP JUMPDEST PUSH0 PUSH2 0x655 DUP4 DUP4 PUSH2 0x62E JUMP JUMPDEST SWAP2 POP DUP3 PUSH1 0x2 MUL DUP3 OR SWAP1 POP SWAP3 SWAP2 POP POP JUMP JUMPDEST PUSH2 0x66E DUP3 PUSH2 0x42B JUMP JUMPDEST PUSH8 0xFFFFFFFFFFFFFFFF DUP2 GT ISZERO PUSH2 0x687 JUMPI PUSH2 0x686 PUSH2 0x435 JUMP JUMPDEST JUMPDEST PUSH2 0x691 DUP3 SLOAD PUSH2 0x48F JUMP JUMPDEST PUSH2 0x69C DUP3 DUP3 DUP6 PUSH2 0x5DC JUMP JUMPDEST PUSH0 PUSH1 0x20 SWAP1 POP PUSH1 0x1F DUP4 GT PUSH1 0x1 DUP2 EQ PUSH2 0x6CD JUMPI PUSH0 DUP5 ISZERO PUSH2 0x6BB JUMPI DUP3 DUP8 ADD MLOAD SWAP1 POP JUMPDEST PUSH2 0x6C5 DUP6 DUP3 PUSH2 0x64A JUMP JUMPDEST DUP7 SSTORE POP PUSH2 0x72C JUMP JUMPDEST PUSH1 0x1F NOT DUP5 AND PUSH2 0x6DB DUP7 PUSH2 0x4BF JUMP JUMPDEST PUSH0 JUMPDEST DUP3 DUP2 LT ISZERO PUSH2 0x702 JUMPI DUP5 DUP10 ADD MLOAD DUP3 SSTORE PUSH1 0x1 DUP3 ADD SWAP2 POP PUSH1 0x20 DUP6 ADD SWAP5 POP PUSH1 0x20 DUP2 ADD SWAP1 POP PUSH2 0x6DD JUMP JUMPDEST DUP7 DUP4 LT ISZERO PUSH2 0x71F JUMPI DUP5 DUP10 ADD MLOAD PUSH2 0x71B PUSH1 0x1F DUP10 AND DUP3 PUSH2 0x62E JUMP JUMPDEST DUP4 SSTORE POP JUMPDEST PUSH1 0x1 PUSH1 0x2 DUP9 MUL ADD DUP9 SSTORE POP POP POP JUMPDEST POP POP POP POP POP POP JUMP JUMPDEST PUSH0 DUP3 DUP3 MSTORE PUSH1 0x20 DUP3 ADD SWAP1 POP SWAP3 SWAP2 POP POP JUMP JUMPDEST PUSH32 0x496E76616C696420526F6C654D616E6167657220616464726573730000000000 PUSH0 DUP3 ADD MSTORE POP JUMP JUMPDEST PUSH0 PUSH2 0x778 PUSH1 0x1B DUP4 PUSH2 0x734 JUMP JUMPDEST SWAP2 POP PUSH2 0x783 DUP3 PUSH2 0x744 JUMP JUMPDEST PUSH1 0x20 DUP3 ADD SWAP1 POP SWAP2 SWAP1 POP JUMP JUMPDEST PUSH0 PUSH1 0x20 DUP3 ADD SWAP1 POP DUP2 DUP2 SUB PUSH0 DUP4 ADD MSTORE PUSH2 0x7A5 DUP2 PUSH2 0x76C JUMP JUMPDEST SWAP1 POP SWAP2 SWAP1 POP JUMP JUMPDEST PUSH32 0x496E76616C69642057616C6C20636F6E74726163742061646472657373000000 PUSH0 DUP3 ADD MSTORE POP JUMP JUMPDEST PUSH0 PUSH2 0x7E0 PUSH1 0x1D DUP4 PUSH2 0x734 JUMP JUMPDEST SWAP2 POP PUSH2 0x7EB DUP3 PUSH2 0x7AC JUMP JUMPDEST PUSH1 0x20 DUP3 ADD SWAP1 POP SWAP2 SWAP1 POP JUMP JUMPDEST PUSH0 PUSH1 0x20 DUP3 ADD SWAP1 POP DUP2 DUP2 SUB PUSH0 DUP4 ADD MSTORE PUSH2 0x80D DUP2 PUSH2 0x7D4 JUMP JUMPDEST SWAP1 POP SWAP2 SWAP1 POP JUMP JUMPDEST PUSH32 0x496E76616C69642047616C6C65727920636F6E74726163742061646472657373 PUSH0 DUP3 ADD MSTORE POP JUMP JUMPDEST PUSH0 PUSH2 0x848 PUSH1 0x20 DUP4 PUSH2 0x734 JUMP JUMPDEST SWAP2 POP PUSH2 0x853 DUP3 PUSH2 0x814 JUMP JUMPDEST PUSH1 0x20 DUP3 ADD SWAP1 POP SWAP2 SWAP1 POP JUMP JUMPDEST PUSH0 PUSH1 0x20 DUP3 ADD SWAP1 POP DUP2 DUP2 SUB PUSH0 DUP4 ADD MSTORE PUSH2 0x875 DUP2 PUSH2 0x83C JUMP JUMPDEST SWAP1 POP SWAP2 SWAP1 POP JUMP JUMPDEST PUSH32 0x496E76616C69642053686172657320636F6E7472616374206164647265737300 PUSH0 DUP3 ADD MSTORE POP JUMP JUMPDEST PUSH0 PUSH2 0x8B0 PUSH1 0x1F DUP4 PUSH2 0x734 JUMP JUMPDEST SWAP2 POP PUSH2 0x8BB DUP3 PUSH2 0x87C JUMP JUMPDEST PUSH1 0x20 DUP3 ADD SWAP1 POP SWAP2 SWAP1 POP JUMP JUMPDEST PUSH0 PUSH1 0x20 DUP3 ADD SWAP1 POP DUP2 DUP2 SUB PUSH0 DUP4 ADD MSTORE PUSH2 0x8DD DUP2 PUSH2 0x8A4 JUMP JUMPDEST SWAP1 POP SWAP2 SWAP1 POP JUMP JUMPDEST PUSH1 0x80 MLOAD PUSH1 0xA0 MLOAD PUSH1 0xC0 MLOAD PUSH1 0xE0 MLOAD PUSH2 0x57D9 PUSH2 0x99C PUSH0 CODECOPY PUSH0 DUP2 DUP2 PUSH2 0x1586 ADD MSTORE PUSH2 0x3561 ADD MSTORE PUSH0 DUP2 DUP2 PUSH2 0x1562 ADD MSTORE DUP2 DUP2 PUSH2 0x168E ADD MSTORE DUP2 DUP2 PUSH2 0x20A4 ADD MSTORE DUP2 DUP2 PUSH2 0x251C ADD MSTORE DUP2 DUP2 PUSH2 0x33CE ADD MSTORE PUSH2 0x3470 ADD MSTORE PUSH0 DUP2 DUP2 PUSH2 0x10FB ADD MSTORE DUP2 DUP2 PUSH2 0x15AC ADD MSTORE DUP2 DUP2 PUSH2 0x1DA4 ADD MSTORE DUP2 DUP2 PUSH2 0x1FC2 ADD MSTORE DUP2 DUP2 PUSH2 0x243A ADD MSTORE PUSH2 0x3330 ADD MSTORE PUSH0 DUP2 DUP2 PUSH2 0x66A ADD MSTORE DUP2 DUP2 PUSH2 0x7FE ADD MSTORE DUP2 DUP2 PUSH2 0x83A ADD MSTORE DUP2 DUP2 PUSH2 0xCF5 ADD MSTORE DUP2 DUP2 PUSH2 0xD31 ADD MSTORE DUP2 DUP2 PUSH2 0xE64 ADD MSTORE DUP2 DUP2 PUSH2 0xEA0 ADD MSTORE DUP2 DUP2 PUSH2 0x1A19 ADD MSTORE PUSH2 0x1A55 ADD MSTORE PUSH2 0x57D9 PUSH0 RETURN INVALID PUSH1 0x80 PUSH1 0x40 MSTORE CALLVALUE DUP1 ISZERO PUSH2 0xF JUMPI PUSH0 DUP1 REVERT JUMPDEST POP PUSH1 0x4 CALLDATASIZE LT PUSH2 0x1ED JUMPI PUSH0 CALLDATALOAD PUSH1 0xE0 SHR DUP1 PUSH4 0x7EB4ECB4 GT PUSH2 0x10D JUMPI DUP1 PUSH4 0xB88D4FDE GT PUSH2 0xA0 JUMPI DUP1 PUSH4 0xE1F4AB5F GT PUSH2 0x6F JUMPI DUP1 PUSH4 0xE1F4AB5F EQ PUSH2 0x5D0 JUMPI DUP1 PUSH4 0xE38DA54B EQ PUSH2 0x600 JUMPI DUP1 PUSH4 0xE985E9C5 EQ PUSH2 0x61C JUMPI DUP1 PUSH4 0xEB1B1E71 EQ PUSH2 0x64C JUMPI PUSH2 0x1ED JUMP JUMPDEST DUP1 PUSH4 0xB88D4FDE EQ PUSH2 0x51F JUMPI DUP1 PUSH4 0xC7CA6DAA EQ PUSH2 0x53B JUMPI DUP1 PUSH4 0xC87B56DD EQ PUSH2 0x570 JUMPI DUP1 PUSH4 0xDF0B2DC8 EQ PUSH2 0x5A0 JUMPI PUSH2 0x1ED JUMP JUMPDEST DUP1 PUSH4 0x95D89B41 GT PUSH2 0xDC JUMPI DUP1 PUSH4 0x95D89B41 EQ PUSH2 0x493 JUMPI DUP1 PUSH4 0xA22CB465 EQ PUSH2 0x4B1 JUMPI DUP1 PUSH4 0xA245E7FF EQ PUSH2 0x4CD JUMPI DUP1 PUSH4 0xAAD53A84 EQ PUSH2 0x501 JUMPI PUSH2 0x1ED JUMP JUMPDEST DUP1 PUSH4 0x7EB4ECB4 EQ PUSH2 0x41F JUMPI DUP1 PUSH4 0x8085BE02 EQ PUSH2 0x43D JUMPI DUP1 PUSH4 0x8456CB59 EQ PUSH2 0x459 JUMPI DUP1 PUSH4 0x89814B9C EQ PUSH2 0x463 JUMPI PUSH2 0x1ED JUMP JUMPDEST DUP1 PUSH4 0x3F4BA83A GT PUSH2 0x185 JUMPI DUP1 PUSH4 0x5C975ABB GT PUSH2 0x154 JUMPI DUP1 PUSH4 0x5C975ABB EQ PUSH2 0x383 JUMPI DUP1 PUSH4 0x6352211E EQ PUSH2 0x3A1 JUMPI DUP1 PUSH4 0x70A08231 EQ PUSH2 0x3D1 JUMPI DUP1 PUSH4 0x71D24B70 EQ PUSH2 0x401 JUMPI PUSH2 0x1ED JUMP JUMPDEST DUP1 PUSH4 0x3F4BA83A EQ PUSH2 0x311 JUMPI DUP1 PUSH4 0x41BC8B64 EQ PUSH2 0x31B JUMPI DUP1 PUSH4 0x42842E0E EQ PUSH2 0x337 JUMPI DUP1 PUSH4 0x5398CB14 EQ PUSH2 0x353 JUMPI PUSH2 0x1ED JUMP JUMPDEST DUP1 PUSH4 0x81812FC GT PUSH2 0x1C1 JUMPI DUP1 PUSH4 0x81812FC EQ PUSH2 0x279 JUMPI DUP1 PUSH4 0x8E9C7D7 EQ PUSH2 0x2A9 JUMPI DUP1 PUSH4 0x95EA7B3 EQ PUSH2 0x2D9 JUMPI DUP1 PUSH4 0x23B872DD EQ PUSH2 0x2F5 JUMPI PUSH2 0x1ED JUMP JUMPDEST DUP1 PUSH3 0x435DA5 EQ PUSH2 0x1F1 JUMPI DUP1 PUSH4 0x1FFC9A7 EQ PUSH2 0x20F JUMPI DUP1 PUSH4 0x6FDDE03 EQ PUSH2 0x23F JUMPI DUP1 PUSH4 0x72E91D9 EQ PUSH2 0x25D JUMPI JUMPDEST PUSH0 DUP1 REVERT JUMPDEST PUSH2 0x1F9 PUSH2 0x668 JUMP JUMPDEST PUSH1 0x40 MLOAD PUSH2 0x206 SWAP2 SWAP1 PUSH2 0x3D09 JUMP JUMPDEST PUSH1 0x40 MLOAD DUP1 SWAP2 SUB SWAP1 RETURN JUMPDEST PUSH2 0x229 PUSH1 0x4 DUP1 CALLDATASIZE SUB DUP2 ADD SWAP1 PUSH2 0x224 SWAP2 SWAP1 PUSH2 0x3D88 JUMP JUMPDEST PUSH2 0x68C JUMP JUMPDEST PUSH1 0x40 MLOAD PUSH2 0x236 SWAP2 SWAP1 PUSH2 0x3DCD JUMP JUMPDEST PUSH1 0x40 MLOAD DUP1 SWAP2 SUB SWAP1 RETURN JUMPDEST PUSH2 0x247 PUSH2 0x76D JUMP JUMPDEST PUSH1 0x40 MLOAD PUSH2 0x254 SWAP2 SWAP1 PUSH2 0x3E56 JUMP JUMPDEST PUSH1 0x40 MLOAD DUP1 SWAP2 SUB SWAP1 RETURN JUMPDEST PUSH2 0x277 PUSH1 0x4 DUP1 CALLDATASIZE SUB DUP2 ADD SWAP1 PUSH2 0x272 SWAP2 SWAP1 PUSH2 0x3EA9 JUMP JUMPDEST PUSH2 0x7FC JUMP JUMPDEST STOP JUMPDEST PUSH2 0x293 PUSH1 0x4 DUP1 CALLDATASIZE SUB DUP2 ADD SWAP1 PUSH2 0x28E SWAP2 SWAP1 PUSH2 0x3EA9 JUMP JUMPDEST PUSH2 0xB30 JUMP JUMPDEST PUSH1 0x40 MLOAD PUSH2 0x2A0 SWAP2 SWAP1 PUSH2 0x3EF4 JUMP JUMPDEST PUSH1 0x40 MLOAD DUP1 SWAP2 SUB SWAP1 RETURN JUMPDEST PUSH2 0x2C3 PUSH1 0x4 DUP1 CALLDATASIZE SUB DUP2 ADD SWAP1 PUSH2 0x2BE SWAP2 SWAP1 PUSH2 0x3F37 JUMP JUMPDEST PUSH2 0xB4B JUMP JUMPDEST PUSH1 0x40 MLOAD PUSH2 0x2D0 SWAP2 SWAP1 PUSH2 0x4019 JUMP JUMPDEST PUSH1 0x40 MLOAD DUP1 SWAP2 SUB SWAP1 RETURN JUMPDEST PUSH2 0x2F3 PUSH1 0x4 DUP1 CALLDATASIZE SUB DUP2 ADD SWAP1 PUSH2 0x2EE SWAP2 SWAP1 PUSH2 0x4039 JUMP JUMPDEST PUSH2 0xBDE JUMP JUMPDEST STOP JUMPDEST PUSH2 0x30F PUSH1 0x4 DUP1 CALLDATASIZE SUB DUP2 ADD SWAP1 PUSH2 0x30A SWAP2 SWAP1 PUSH2 0x4077 JUMP JUMPDEST PUSH2 0xBF4 JUMP JUMPDEST STOP JUMPDEST PUSH2 0x319 PUSH2 0xCF3 JUMP JUMPDEST STOP JUMPDEST PUSH2 0x335 PUSH1 0x4 DUP1 CALLDATASIZE SUB DUP2 ADD SWAP1 PUSH2 0x330 SWAP2 SWAP1 PUSH2 0x4128 JUMP JUMPDEST PUSH2 0xE62 JUMP JUMPDEST STOP JUMPDEST PUSH2 0x351 PUSH1 0x4 DUP1 CALLDATASIZE SUB DUP2 ADD SWAP1 PUSH2 0x34C SWAP2 SWAP1 PUSH2 0x4077 JUMP JUMPDEST PUSH2 0x13FE JUMP JUMPDEST STOP JUMPDEST PUSH2 0x36D PUSH1 0x4 DUP1 CALLDATASIZE SUB DUP2 ADD SWAP1 PUSH2 0x368 SWAP2 SWAP1 PUSH2 0x3EA9 JUMP JUMPDEST PUSH2 0x141D JUMP JUMPDEST PUSH1 0x40 MLOAD PUSH2 0x37A SWAP2 SWAP1 PUSH2 0x4019 JUMP JUMPDEST PUSH1 0x40 MLOAD DUP1 SWAP2 SUB SWAP1 RETURN JUMPDEST PUSH2 0x38B PUSH2 0x1484 JUMP JUMPDEST PUSH1 0x40 MLOAD PUSH2 0x398 SWAP2 SWAP1 PUSH2 0x3DCD JUMP JUMPDEST PUSH1 0x40 MLOAD DUP1 SWAP2 SUB SWAP1 RETURN JUMPDEST PUSH2 0x3BB PUSH1 0x4 DUP1 CALLDATASIZE SUB DUP2 ADD SWAP1 PUSH2 0x3B6 SWAP2 SWAP1 PUSH2 0x3EA9 JUMP JUMPDEST PUSH2 0x1499 JUMP JUMPDEST PUSH1 0x40 MLOAD PUSH2 0x3C8 SWAP2 SWAP1 PUSH2 0x3EF4 JUMP JUMPDEST PUSH1 0x40 MLOAD DUP1 SWAP2 SUB SWAP1 RETURN JUMPDEST PUSH2 0x3EB PUSH1 0x4 DUP1 CALLDATASIZE SUB DUP2 ADD SWAP1 PUSH2 0x3E6 SWAP2 SWAP1 PUSH2 0x3F37 JUMP JUMPDEST PUSH2 0x14AA JUMP JUMPDEST PUSH1 0x40 MLOAD PUSH2 0x3F8 SWAP2 SWAP1 PUSH2 0x4194 JUMP JUMPDEST PUSH1 0x40 MLOAD DUP1 SWAP2 SUB SWAP1 RETURN JUMPDEST PUSH2 0x409 PUSH2 0x1560 JUMP JUMPDEST PUSH1 0x40 MLOAD PUSH2 0x416 SWAP2 SWAP1 PUSH2 0x41CD JUMP JUMPDEST PUSH1 0x40 MLOAD DUP1 SWAP2 SUB SWAP1 RETURN JUMPDEST PUSH2 0x427 PUSH2 0x1584 JUMP JUMPDEST PUSH1 0x40 MLOAD PUSH2 0x434 SWAP2 SWAP1 PUSH2 0x4206 JUMP JUMPDEST PUSH1 0x40 MLOAD DUP1 SWAP2 SUB SWAP1 RETURN JUMPDEST PUSH2 0x457 PUSH1 0x4 DUP1 CALLDATASIZE SUB DUP2 ADD SWAP1 PUSH2 0x452 SWAP2 SWAP1 PUSH2 0x3EA9 JUMP JUMPDEST PUSH2 0x15A8 JUMP JUMPDEST STOP JUMPDEST PUSH2 0x461 PUSH2 0x1A17 JUMP JUMPDEST STOP JUMPDEST PUSH2 0x47D PUSH1 0x4 DUP1 CALLDATASIZE SUB DUP2 ADD SWAP1 PUSH2 0x478 SWAP2 SWAP1 PUSH2 0x3F37 JUMP JUMPDEST PUSH2 0x1B86 JUMP JUMPDEST PUSH1 0x40 MLOAD PUSH2 0x48A SWAP2 SWAP1 PUSH2 0x4019 JUMP JUMPDEST PUSH1 0x40 MLOAD DUP1 SWAP2 SUB SWAP1 RETURN JUMPDEST PUSH2 0x49B PUSH2 0x1C19 JUMP JUMPDEST PUSH1 0x40 MLOAD PUSH2 0x4A8 SWAP2 SWAP1 PUSH2 0x3E56 JUMP JUMPDEST PUSH1 0x40 MLOAD DUP1 SWAP2 SUB SWAP1 RETURN JUMPDEST PUSH2 0x4CB PUSH1 0x4 DUP1 CALLDATASIZE SUB DUP2 ADD SWAP1 PUSH2 0x4C6 SWAP2 SWAP1 PUSH2 0x4249 JUMP JUMPDEST PUSH2 0x1CA9 JUMP JUMPDEST STOP JUMPDEST PUSH2 0x4E7 PUSH1 0x4 DUP1 CALLDATASIZE SUB DUP2 ADD SWAP1 PUSH2 0x4E2 SWAP2 SWAP1 PUSH2 0x3EA9 JUMP JUMPDEST PUSH2 0x1CBF JUMP JUMPDEST PUSH1 0x40 MLOAD PUSH2 0x4F8 SWAP6 SWAP5 SWAP4 SWAP3 SWAP2 SWAP1 PUSH2 0x42FA JUMP JUMPDEST PUSH1 0x40 MLOAD DUP1 SWAP2 SUB SWAP1 RETURN JUMPDEST PUSH2 0x509 PUSH2 0x1DA2 JUMP JUMPDEST PUSH1 0x40 MLOAD PUSH2 0x516 SWAP2 SWAP1 PUSH2 0x4372 JUMP JUMPDEST PUSH1 0x40 MLOAD DUP1 SWAP2 SUB SWAP1 RETURN JUMPDEST PUSH2 0x539 PUSH1 0x4 DUP1 CALLDATASIZE SUB DUP2 ADD SWAP1 PUSH2 0x534 SWAP2 SWAP1 PUSH2 0x44B3 JUMP JUMPDEST PUSH2 0x1DC6 JUMP JUMPDEST STOP JUMPDEST PUSH2 0x555 PUSH1 0x4 DUP1 CALLDATASIZE SUB DUP2 ADD SWAP1 PUSH2 0x550 SWAP2 SWAP1 PUSH2 0x3EA9 JUMP JUMPDEST PUSH2 0x1DEB JUMP JUMPDEST PUSH1 0x40 MLOAD PUSH2 0x567 SWAP7 SWAP6 SWAP5 SWAP4 SWAP3 SWAP2 SWAP1 PUSH2 0x4533 JUMP JUMPDEST PUSH1 0x40 MLOAD DUP1 SWAP2 SUB SWAP1 RETURN JUMPDEST PUSH2 0x58A PUSH1 0x4 DUP1 CALLDATASIZE SUB DUP2 ADD SWAP1 PUSH2 0x585 SWAP2 SWAP1 PUSH2 0x3EA9 JUMP JUMPDEST PUSH2 0x1ED4 JUMP JUMPDEST PUSH1 0x40 MLOAD PUSH2 0x597 SWAP2 SWAP1 PUSH2 0x3E56 JUMP JUMPDEST PUSH1 0x40 MLOAD DUP1 SWAP2 SUB SWAP1 RETURN JUMPDEST PUSH2 0x5BA PUSH1 0x4 DUP1 CALLDATASIZE SUB DUP2 ADD SWAP1 PUSH2 0x5B5 SWAP2 SWAP1 PUSH2 0x3EA9 JUMP JUMPDEST PUSH2 0x1F3A JUMP JUMPDEST PUSH1 0x40 MLOAD PUSH2 0x5C7 SWAP2 SWAP1 PUSH2 0x4019 JUMP JUMPDEST PUSH1 0x40 MLOAD DUP1 SWAP2 SUB SWAP1 RETURN JUMPDEST PUSH2 0x5EA PUSH1 0x4 DUP1 CALLDATASIZE SUB DUP2 ADD SWAP1 PUSH2 0x5E5 SWAP2 SWAP1 PUSH2 0x3EA9 JUMP JUMPDEST PUSH2 0x1FA1 JUMP JUMPDEST PUSH1 0x40 MLOAD PUSH2 0x5F7 SWAP2 SWAP1 PUSH2 0x3DCD JUMP JUMPDEST PUSH1 0x40 MLOAD DUP1 SWAP2 SUB SWAP1 RETURN JUMPDEST PUSH2 0x61A PUSH1 0x4 DUP1 CALLDATASIZE SUB DUP2 ADD SWAP1 PUSH2 0x615 SWAP2 SWAP1 PUSH2 0x3EA9 JUMP JUMPDEST PUSH2 0x1FBE JUMP JUMPDEST STOP JUMPDEST PUSH2 0x636 PUSH1 0x4 DUP1 CALLDATASIZE SUB DUP2 ADD SWAP1 PUSH2 0x631 SWAP2 SWAP1 PUSH2 0x4599 JUMP JUMPDEST PUSH2 0x23A8 JUMP JUMPDEST PUSH1 0x40 MLOAD PUSH2 0x643 SWAP2 SWAP1 PUSH2 0x3DCD JUMP JUMPDEST PUSH1 0x40 MLOAD DUP1 SWAP2 SUB SWAP1 RETURN JUMPDEST PUSH2 0x666 PUSH1 0x4 DUP1 CALLDATASIZE SUB DUP2 ADD SWAP1 PUSH2 0x661 SWAP2 SWAP1 PUSH2 0x3EA9 JUMP JUMPDEST PUSH2 0x2436 JUMP JUMPDEST STOP JUMPDEST PUSH32 0x0 DUP2 JUMP JUMPDEST PUSH0 PUSH32 0x80AC58CD00000000000000000000000000000000000000000000000000000000 PUSH28 0xFFFFFFFFFFFFFFFFFFFFFFFFFFFFFFFFFFFFFFFFFFFFFFFFFFFFFFFF NOT AND DUP3 PUSH28 0xFFFFFFFFFFFFFFFFFFFFFFFFFFFFFFFFFFFFFFFFFFFFFFFFFFFFFFFF NOT AND EQ DUP1 PUSH2 0x756 JUMPI POP PUSH32 0x5B5E139F00000000000000000000000000000000000000000000000000000000 PUSH28 0xFFFFFFFFFFFFFFFFFFFFFFFFFFFFFFFFFFFFFFFFFFFFFFFFFFFFFFFF NOT AND DUP3 PUSH28 0xFFFFFFFFFFFFFFFFFFFFFFFFFFFFFFFFFFFFFFFFFFFFFFFFFFFFFFFF NOT AND EQ JUMPDEST DUP1 PUSH2 0x766 JUMPI POP PUSH2 0x765 DUP3 PUSH2 0x298B JUMP JUMPDEST JUMPDEST SWAP1 POP SWAP2 SWAP1 POP JUMP JUMPDEST PUSH1 0x60 PUSH0 DUP1 SLOAD PUSH2 0x77B SWAP1 PUSH2 0x4604 JUMP JUMPDEST DUP1 PUSH1 0x1F ADD PUSH1 0x20 DUP1 SWAP2 DIV MUL PUSH1 0x20 ADD PUSH1 0x40 MLOAD SWAP1 DUP2 ADD PUSH1 0x40 MSTORE DUP1 SWAP3 SWAP2 SWAP1 DUP2 DUP2 MSTORE PUSH1 0x20 ADD DUP3 DUP1 SLOAD PUSH2 0x7A7 SWAP1 PUSH2 0x4604 JUMP JUMPDEST DUP1 ISZERO PUSH2 0x7F2 JUMPI DUP1 PUSH1 0x1F LT PUSH2 0x7C9 JUMPI PUSH2 0x100 DUP1 DUP4 SLOAD DIV MUL DUP4 MSTORE SWAP2 PUSH1 0x20 ADD SWAP2 PUSH2 0x7F2 JUMP JUMPDEST DUP3 ADD SWAP2 SWAP1 PUSH0 MSTORE PUSH1 0x20 PUSH0 KECCAK256 SWAP1 JUMPDEST DUP2 SLOAD DUP2 MSTORE SWAP1 PUSH1 0x1 ADD SWAP1 PUSH1 0x20 ADD DUP1 DUP4 GT PUSH2 0x7D5 JUMPI DUP3 SWAP1 SUB PUSH1 0x1F AND DUP3 ADD SWAP2 JUMPDEST POP POP POP POP POP SWAP1 POP SWAP1 JUMP JUMPDEST PUSH32 0x0 PUSH20 0xFFFFFFFFFFFFFFFFFFFFFFFFFFFFFFFFFFFFFFFF AND PUSH4 0x91D14854 PUSH32 0x0 PUSH20 0xFFFFFFFFFFFFFFFFFFFFFFFFFFFFFFFFFFFFFFFF AND PUSH4 0x303E3840 PUSH1 0x40 MLOAD DUP2 PUSH4 0xFFFFFFFF AND PUSH1 0xE0 SHL DUP2 MSTORE PUSH1 0x4 ADD PUSH1 0x20 PUSH1 0x40 MLOAD DUP1 DUP4 SUB DUP2 DUP7 GAS STATICCALL ISZERO DUP1 ISZERO PUSH2 0x8A1 JUMPI RETURNDATASIZE PUSH0 DUP1 RETURNDATACOPY RETURNDATASIZE PUSH0 REVERT JUMPDEST POP POP POP POP PUSH1 0x40 MLOAD RETURNDATASIZE PUSH1 0x1F NOT PUSH1 0x1F DUP3 ADD AND DUP3 ADD DUP1 PUSH1 0x40 MSTORE POP DUP2 ADD SWAP1 PUSH2 0x8C5 SWAP2 SWAP1 PUSH2 0x4667 JUMP JUMPDEST CALLER PUSH1 0x40 MLOAD DUP4 PUSH4 0xFFFFFFFF AND PUSH1 0xE0 SHL DUP2 MSTORE PUSH1 0x4 ADD PUSH2 0x8E3 SWAP3 SWAP2 SWAP1 PUSH2 0x46A1 JUMP JUMPDEST PUSH1 0x20 PUSH1 0x40 MLOAD DUP1 DUP4 SUB DUP2 DUP7 GAS STATICCALL ISZERO DUP1 ISZERO PUSH2 0x8FE JUMPI RETURNDATASIZE PUSH0 DUP1 RETURNDATACOPY RETURNDATASIZE PUSH0 REVERT JUMPDEST POP POP POP POP PUSH1 0x40 MLOAD RETURNDATASIZE PUSH1 0x1F NOT PUSH1 0x1F DUP3 ADD AND DUP3 ADD DUP1 PUSH1 0x40 MSTORE POP DUP2 ADD SWAP1 PUSH2 0x922 SWAP2 SWAP1 PUSH2 0x46DC JUMP JUMPDEST PUSH2 0x961 JUMPI PUSH1 0x40 MLOAD PUSH32 0x8C379A000000000000000000000000000000000000000000000000000000000 DUP2 MSTORE PUSH1 0x4 ADD PUSH2 0x958 SWAP1 PUSH2 0x4751 JUMP JUMPDEST PUSH1 0x40 MLOAD DUP1 SWAP2 SUB SWAP1 REVERT JUMPDEST PUSH2 0x969 PUSH2 0x29F4 JUMP JUMPDEST PUSH0 PUSH1 0xD PUSH0 DUP4 DUP2 MSTORE PUSH1 0x20 ADD SWAP1 DUP2 MSTORE PUSH1 0x20 ADD PUSH0 KECCAK256 SWAP1 POP CALLER PUSH20 0xFFFFFFFFFFFFFFFFFFFFFFFFFFFFFFFFFFFFFFFF AND DUP2 PUSH1 0x1 ADD PUSH0 SWAP1 SLOAD SWAP1 PUSH2 0x100 EXP SWAP1 DIV PUSH20 0xFFFFFFFFFFFFFFFFFFFFFFFFFFFFFFFFFFFFFFFF AND PUSH20 0xFFFFFFFFFFFFFFFFFFFFFFFFFFFFFFFFFFFFFFFF AND EQ PUSH2 0xA0E JUMPI PUSH1 0x40 MLOAD PUSH32 0x8C379A000000000000000000000000000000000000000000000000000000000 DUP2 MSTORE PUSH1 0x4 ADD PUSH2 0xA05 SWAP1 PUSH2 0x47B9 JUMP JUMPDEST PUSH1 0x40 MLOAD DUP1 SWAP2 SUB SWAP1 REVERT JUMPDEST PUSH1 0x2 PUSH1 0x3 DUP2 GT ISZERO PUSH2 0xA22 JUMPI PUSH2 0xA21 PUSH2 0x4287 JUMP JUMPDEST JUMPDEST DUP2 PUSH1 0x3 ADD PUSH0 SWAP1 SLOAD SWAP1 PUSH2 0x100 EXP SWAP1 DIV PUSH1 0xFF AND PUSH1 0x3 DUP2 GT ISZERO PUSH2 0xA45 JUMPI PUSH2 0xA44 PUSH2 0x4287 JUMP JUMPDEST JUMPDEST EQ PUSH2 0xA85 JUMPI PUSH1 0x40 MLOAD PUSH32 0x8C379A000000000000000000000000000000000000000000000000000000000 DUP2 MSTORE PUSH1 0x4 ADD PUSH2 0xA7C SWAP1 PUSH2 0x4821 JUMP JUMPDEST PUSH1 0x40 MLOAD DUP1 SWAP2 SUB SWAP1 REVERT JUMPDEST PUSH1 0x3 DUP2 PUSH1 0x3 ADD PUSH0 PUSH2 0x100 EXP DUP2 SLOAD DUP2 PUSH1 0xFF MUL NOT AND SWAP1 DUP4 PUSH1 0x3 DUP2 GT ISZERO PUSH2 0xAAC JUMPI PUSH2 0xAAB PUSH2 0x4287 JUMP JUMPDEST JUMPDEST MUL OR SWAP1 SSTORE POP PUSH2 0xAF7 PUSH1 0xA PUSH0 CALLER PUSH20 0xFFFFFFFFFFFFFFFFFFFFFFFFFFFFFFFFFFFFFFFF AND PUSH20 0xFFFFFFFFFFFFFFFFFFFFFFFFFFFFFFFFFFFFFFFF AND DUP2 MSTORE PUSH1 0x20 ADD SWAP1 DUP2 MSTORE PUSH1 0x20 ADD PUSH0 KECCAK256 DUP4 PUSH2 0x2A3E JUMP JUMPDEST PUSH1 0xB PUSH0 DUP4 DUP2 MSTORE PUSH1 0x20 ADD SWAP1 DUP2 MSTORE PUSH1 0x20 ADD PUSH0 KECCAK256 DUP3 SWAP1 DUP1 PUSH1 0x1 DUP2 SLOAD ADD DUP1 DUP3 SSTORE DUP1 SWAP2 POP POP PUSH1 0x1 SWAP1 SUB SWAP1 PUSH0 MSTORE PUSH1 0x20 PUSH0 KECCAK256 ADD PUSH0 SWAP1 SWAP2 SWAP1 SWAP2 SWAP1 SWAP2 POP SSTORE POP POP JUMP JUMPDEST PUSH0 PUSH2 0xB3A DUP3 PUSH2 0x2AF4 JUMP JUMPDEST POP PUSH2 0xB44 DUP3 PUSH2 0x2B7A JUMP JUMPDEST SWAP1 POP SWAP2 SWAP1 POP JUMP JUMPDEST PUSH1 0x60 PUSH1 0xA PUSH0 DUP4 PUSH20 0xFFFFFFFFFFFFFFFFFFFFFFFFFFFFFFFFFFFFFFFF AND PUSH20 0xFFFFFFFFFFFFFFFFFFFFFFFFFFFFFFFFFFFFFFFF AND DUP2 MSTORE PUSH1 0x20 ADD SWAP1 DUP2 MSTORE PUSH1 0x20 ADD PUSH0 KECCAK256 DUP1 SLOAD DUP1 PUSH1 0x20 MUL PUSH1 0x20 ADD PUSH1 0x40 MLOAD SWAP1 DUP2 ADD PUSH1 0x40 MSTORE DUP1 SWAP3 SWAP2 SWAP1 DUP2 DUP2 MSTORE PUSH1 0x20 ADD DUP3 DUP1 SLOAD DUP1 ISZERO PUSH2 0xBD2 JUMPI PUSH1 0x20 MUL DUP3 ADD SWAP2 SWAP1 PUSH0 MSTORE PUSH1 0x20 PUSH0 KECCAK256 SWAP1 JUMPDEST DUP2 SLOAD DUP2 MSTORE PUSH1 0x20 ADD SWAP1 PUSH1 0x1 ADD SWAP1 DUP1 DUP4 GT PUSH2 0xBBE JUMPI JUMPDEST POP POP POP POP POP SWAP1 POP SWAP2 SWAP1 POP JUMP JUMPDEST PUSH2 0xBF0 DUP3 DUP3 PUSH2 0xBEB PUSH2 0x2BB3 JUMP JUMPDEST PUSH2 0x2BBA JUMP JUMPDEST POP POP JUMP JUMPDEST PUSH0 PUSH20 0xFFFFFFFFFFFFFFFFFFFFFFFFFFFFFFFFFFFFFFFF AND DUP3 PUSH20 0xFFFFFFFFFFFFFFFFFFFFFFFFFFFFFFFFFFFFFFFF AND SUB PUSH2 0xC64 JUMPI PUSH0 PUSH1 0x40 MLOAD PUSH32 0x64A0AE9200000000000000000000000000000000000000000000000000000000 DUP2 MSTORE PUSH1 0x4 ADD PUSH2 0xC5B SWAP2 SWAP1 PUSH2 0x3EF4 JUMP JUMPDEST PUSH1 0x40 MLOAD DUP1 SWAP2 SUB SWAP1 REVERT JUMPDEST PUSH0 PUSH2 0xC77 DUP4 DUP4 PUSH2 0xC72 PUSH2 0x2BB3 JUMP JUMPDEST PUSH2 0x2BCC JUMP JUMPDEST SWAP1 POP DUP4 PUSH20 0xFFFFFFFFFFFFFFFFFFFFFFFFFFFFFFFFFFFFFFFF AND DUP2 PUSH20 0xFFFFFFFFFFFFFFFFFFFFFFFFFFFFFFFFFFFFFFFF AND EQ PUSH2 0xCED JUMPI DUP4 DUP3 DUP3 PUSH1 0x40 MLOAD PUSH32 0x64283D7B00000000000000000000000000000000000000000000000000000000 DUP2 MSTORE PUSH1 0x4 ADD PUSH2 0xCE4 SWAP4 SWAP3 SWAP2 SWAP1 PUSH2 0x483F JUMP JUMPDEST PUSH1 0x40 MLOAD DUP1 SWAP2 SUB SWAP1 REVERT JUMPDEST POP POP POP POP JUMP JUMPDEST PUSH32 0x0 PUSH20 0xFFFFFFFFFFFFFFFFFFFFFFFFFFFFFFFFFFFFFFFF AND PUSH4 0x91D14854 PUSH32 0x0 PUSH20 0xFFFFFFFFFFFFFFFFFFFFFFFFFFFFFFFFFFFFFFFF AND PUSH4 0x75B238FC PUSH1 0x40 MLOAD DUP2 PUSH4 0xFFFFFFFF AND PUSH1 0xE0 SHL DUP2 MSTORE PUSH1 0x4 ADD PUSH1 0x20 PUSH1 0x40 MLOAD DUP1 DUP4 SUB DUP2 DUP7 GAS STATICCALL ISZERO DUP1 ISZERO PUSH2 0xD98 JUMPI RETURNDATASIZE PUSH0 DUP1 RETURNDATACOPY RETURNDATASIZE PUSH0 REVERT JUMPDEST POP POP POP POP PUSH1 0x40 MLOAD RETURNDATASIZE PUSH1 0x1F NOT PUSH1 0x1F DUP3 ADD AND DUP3 ADD DUP1 PUSH1 0x40 MSTORE POP DUP2 ADD SWAP1 PUSH2 0xDBC SWAP2 SWAP1 PUSH2 0x4667 JUMP JUMPDEST CALLER PUSH1 0x40 MLOAD DUP4 PUSH4 0xFFFFFFFF AND PUSH1 0xE0 SHL DUP2 MSTORE PUSH1 0x4 ADD PUSH2 0xDDA SWAP3 SWAP2 SWAP1 PUSH2 0x46A1 JUMP JUMPDEST PUSH1 0x20 PUSH1 0x40 MLOAD DUP1 DUP4 SUB DUP2 DUP7 GAS STATICCALL ISZERO DUP1 ISZERO PUSH2 0xDF5 JUMPI RETURNDATASIZE PUSH0 DUP1 RETURNDATACOPY RETURNDATASIZE PUSH0 REVERT JUMPDEST POP POP POP POP PUSH1 0x40 MLOAD RETURNDATASIZE PUSH1 0x1F NOT PUSH1 0x1F DUP3 ADD AND DUP3 ADD DUP1 PUSH1 0x40 MSTORE POP DUP2 ADD SWAP1 PUSH2 0xE19 SWAP2 SWAP1 PUSH2 0x46DC JUMP JUMPDEST PUSH2 0xE58 JUMPI PUSH1 0x40 MLOAD PUSH32 0x8C379A000000000000000000000000000000000000000000000000000000000 DUP2 MSTORE PUSH1 0x4 ADD PUSH2 0xE4F SWAP1 PUSH2 0x48BE JUMP JUMPDEST PUSH1 0x40 MLOAD DUP1 SWAP2 SUB SWAP1 REVERT JUMPDEST PUSH2 0xE60 PUSH2 0x2DD7 JUMP JUMPDEST JUMP JUMPDEST PUSH32 0x0 PUSH20 0xFFFFFFFFFFFFFFFFFFFFFFFFFFFFFFFFFFFFFFFF AND PUSH4 0x91D14854 PUSH32 0x0 PUSH20 0xFFFFFFFFFFFFFFFFFFFFFFFFFFFFFFFFFFFFFFFF AND PUSH4 0x303E3840 PUSH1 0x40 MLOAD DUP2 PUSH4 0xFFFFFFFF AND PUSH1 0xE0 SHL DUP2 MSTORE PUSH1 0x4 ADD PUSH1 0x20 PUSH1 0x40 MLOAD DUP1 DUP4 SUB DUP2 DUP7 GAS STATICCALL ISZERO DUP1 ISZERO PUSH2 0xF07 JUMPI RETURNDATASIZE PUSH0 DUP1 RETURNDATACOPY RETURNDATASIZE PUSH0 REVERT JUMPDEST POP POP POP POP PUSH1 0x40 MLOAD RETURNDATASIZE PUSH1 0x1F NOT PUSH1 0x1F DUP3 ADD AND DUP3 ADD DUP1 PUSH1 0x40 MSTORE POP DUP2 ADD SWAP1 PUSH2 0xF2B SWAP2 SWAP1 PUSH2 0x4667 JUMP JUMPDEST CALLER PUSH1 0x40 MLOAD DUP4 PUSH4 0xFFFFFFFF AND PUSH1 0xE0 SHL DUP2 MSTORE PUSH1 0x4 ADD PUSH2 0xF49 SWAP3 SWAP2 SWAP1 PUSH2 0x46A1 JUMP JUMPDEST PUSH1 0x20 PUSH1 0x40 MLOAD DUP1 DUP4 SUB DUP2 DUP7 GAS STATICCALL ISZERO DUP1 ISZERO PUSH2 0xF64 JUMPI RETURNDATASIZE PUSH0 DUP1 RETURNDATACOPY RETURNDATASIZE PUSH0 REVERT JUMPDEST POP POP POP POP PUSH1 0x40 MLOAD RETURNDATASIZE PUSH1 0x1F NOT PUSH1 0x1F DUP3 ADD AND DUP3 ADD DUP1 PUSH1 0x40 MSTORE POP DUP2 ADD SWAP1 PUSH2 0xF88 SWAP2 SWAP1 PUSH2 0x46DC JUMP JUMPDEST PUSH2 0xFC7 JUMPI PUSH1 0x40 MLOAD PUSH32 0x8C379A000000000000000000000000000000000000000000000000000000000 DUP2 MSTORE PUSH1 0x4 ADD PUSH2 0xFBE SWAP1 PUSH2 0x4751 JUMP JUMPDEST PUSH1 0x40 MLOAD DUP1 SWAP2 SUB SWAP1 REVERT JUMPDEST PUSH2 0xFCF PUSH2 0x29F4 JUMP JUMPDEST PUSH0 DUP3 DUP3 SWAP1 POP GT PUSH2 0x1014 JUMPI PUSH1 0x40 MLOAD PUSH32 0x8C379A000000000000000000000000000000000000000000000000000000000 DUP2 MSTORE PUSH1 0x4 ADD PUSH2 0x100B SWAP1 PUSH2 0x4926 JUMP JUMPDEST PUSH1 0x40 MLOAD DUP1 SWAP2 SUB SWAP1 REVERT JUMPDEST PUSH1 0xE PUSH0 DUP5 DUP2 MSTORE PUSH1 0x20 ADD SWAP1 DUP2 MSTORE PUSH1 0x20 ADD PUSH0 KECCAK256 PUSH0 SWAP1 SLOAD SWAP1 PUSH2 0x100 EXP SWAP1 DIV PUSH1 0xFF AND ISZERO PUSH2 0x1072 JUMPI PUSH1 0x40 MLOAD PUSH32 0x8C379A000000000000000000000000000000000000000000000000000000000 DUP2 MSTORE PUSH1 0x4 ADD PUSH2 0x1069 SWAP1 PUSH2 0x498E JUMP JUMPDEST PUSH1 0x40 MLOAD DUP1 SWAP2 SUB SWAP1 REVERT JUMPDEST PUSH0 PUSH1 0x3 DUP2 GT ISZERO PUSH2 0x1085 JUMPI PUSH2 0x1084 PUSH2 0x4287 JUMP JUMPDEST JUMPDEST PUSH1 0xD PUSH0 DUP6 DUP2 MSTORE PUSH1 0x20 ADD SWAP1 DUP2 MSTORE PUSH1 0x20 ADD PUSH0 KECCAK256 PUSH1 0x3 ADD PUSH0 SWAP1 SLOAD SWAP1 PUSH2 0x100 EXP SWAP1 DIV PUSH1 0xFF AND PUSH1 0x3 DUP2 GT ISZERO PUSH2 0x10B8 JUMPI PUSH2 0x10B7 PUSH2 0x4287 JUMP JUMPDEST JUMPDEST EQ PUSH2 0x10F8 JUMPI PUSH1 0x40 MLOAD PUSH32 0x8C379A000000000000000000000000000000000000000000000000000000000 DUP2 MSTORE PUSH1 0x4 ADD PUSH2 0x10EF SWAP1 PUSH2 0x49F6 JUMP JUMPDEST PUSH1 0x40 MLOAD DUP1 SWAP2 SUB SWAP1 REVERT JUMPDEST PUSH0 PUSH32 0x0 PUSH20 0xFFFFFFFFFFFFFFFFFFFFFFFFFFFFFFFFFFFFFFFF AND PUSH4 0xFF91E489 DUP6 PUSH1 0x40 MLOAD DUP3 PUSH4 0xFFFFFFFF AND PUSH1 0xE0 SHL DUP2 MSTORE PUSH1 0x4 ADD PUSH2 0x1152 SWAP2 SWAP1 PUSH2 0x4194 JUMP JUMPDEST PUSH0 PUSH1 0x40 MLOAD DUP1 DUP4 SUB DUP2 DUP7 GAS STATICCALL ISZERO DUP1 ISZERO PUSH2 0x116C JUMPI RETURNDATASIZE PUSH0 DUP1 RETURNDATACOPY RETURNDATASIZE PUSH0 REVERT JUMPDEST POP POP POP POP PUSH1 0x40 MLOAD RETURNDATASIZE PUSH0 DUP3 RETURNDATACOPY RETURNDATASIZE PUSH1 0x1F NOT PUSH1 0x1F DUP3 ADD AND DUP3 ADD DUP1 PUSH1 0x40 MSTORE POP DUP2 ADD SWAP1 PUSH2 0x1194 SWAP2 SWAP1 PUSH2 0x4CEB JUMP JUMPDEST SWAP1 POP DUP1 PUSH1 0xA0 ADD MLOAD PUSH2 0x11DA JUMPI PUSH1 0x40 MLOAD PUSH32 0x8C379A000000000000000000000000000000000000000000000000000000000 DUP2 MSTORE PUSH1 0x4 ADD PUSH2 0x11D1 SWAP1 PUSH2 0x4D7C JUMP JUMPDEST PUSH1 0x40 MLOAD DUP1 SWAP2 SUB SWAP1 REVERT JUMPDEST PUSH1 0x40 MLOAD DUP1 PUSH1 0xA0 ADD PUSH1 0x40 MSTORE DUP1 DUP6 DUP2 MSTORE PUSH1 0x20 ADD CALLER PUSH20 0xFFFFFFFFFFFFFFFFFFFFFFFFFFFFFFFFFFFFFFFF AND DUP2 MSTORE PUSH1 0x20 ADD DUP5 DUP5 DUP1 DUP1 PUSH1 0x1F ADD PUSH1 0x20 DUP1 SWAP2 DIV MUL PUSH1 0x20 ADD PUSH1 0x40 MLOAD SWAP1 DUP2 ADD PUSH1 0x40 MSTORE DUP1 SWAP4 SWAP3 SWAP2 SWAP1 DUP2 DUP2 MSTORE PUSH1 0x20 ADD DUP4 DUP4 DUP1 DUP3 DUP5 CALLDATACOPY PUSH0 DUP2 DUP5 ADD MSTORE PUSH1 0x1F NOT PUSH1 0x1F DUP3 ADD AND SWAP1 POP DUP1 DUP4 ADD SWAP3 POP POP POP POP POP POP POP DUP2 MSTORE PUSH1 0x20 ADD PUSH1 0x1 PUSH1 0x3 DUP2 GT ISZERO PUSH2 0x1264 JUMPI PUSH2 0x1263 PUSH2 0x4287 JUMP JUMPDEST JUMPDEST DUP2 MSTORE PUSH1 0x20 ADD TIMESTAMP DUP2 MSTORE POP PUSH1 0xD PUSH0 DUP7 DUP2 MSTORE PUSH1 0x20 ADD SWAP1 DUP2 MSTORE PUSH1 0x20 ADD PUSH0 KECCAK256 PUSH0 DUP3 ADD MLOAD DUP2 PUSH0 ADD SSTORE PUSH1 0x20 DUP3 ADD MLOAD DUP2 PUSH1 0x1 ADD PUSH0 PUSH2 0x100 EXP DUP2 SLOAD DUP2 PUSH20 0xFFFFFFFFFFFFFFFFFFFFFFFFFFFFFFFFFFFFFFFF MUL NOT AND SWAP1 DUP4 PUSH20 0xFFFFFFFFFFFFFFFFFFFFFFFFFFFFFFFFFFFFFFFF AND MUL OR SWAP1 SSTORE POP PUSH1 0x40 DUP3 ADD MLOAD DUP2 PUSH1 0x2 ADD SWAP1 DUP2 PUSH2 0x12E1 SWAP2 SWAP1 PUSH2 0x4F2E JUMP JUMPDEST POP PUSH1 0x60 DUP3 ADD MLOAD DUP2 PUSH1 0x3 ADD PUSH0 PUSH2 0x100 EXP DUP2 SLOAD DUP2 PUSH1 0xFF MUL NOT AND SWAP1 DUP4 PUSH1 0x3 DUP2 GT ISZERO PUSH2 0x130C JUMPI PUSH2 0x130B PUSH2 0x4287 JUMP JUMPDEST JUMPDEST MUL OR SWAP1 SSTORE POP PUSH1 0x80 DUP3 ADD MLOAD DUP2 PUSH1 0x4 ADD SSTORE SWAP1 POP POP PUSH1 0x8 PUSH0 CALLER PUSH20 0xFFFFFFFFFFFFFFFFFFFFFFFFFFFFFFFFFFFFFFFF AND PUSH20 0xFFFFFFFFFFFFFFFFFFFFFFFFFFFFFFFFFFFFFFFF AND DUP2 MSTORE PUSH1 0x20 ADD SWAP1 DUP2 MSTORE PUSH1 0x20 ADD PUSH0 KECCAK256 DUP5 SWAP1 DUP1 PUSH1 0x1 DUP2 SLOAD ADD DUP1 DUP3 SSTORE DUP1 SWAP2 POP POP PUSH1 0x1 SWAP1 SUB SWAP1 PUSH0 MSTORE PUSH1 0x20 PUSH0 KECCAK256 ADD PUSH0 SWAP1 SWAP2 SWAP1 SWAP2 SWAP1 SWAP2 POP SSTORE PUSH1 0x9 PUSH0 DUP6 DUP2 MSTORE PUSH1 0x20 ADD SWAP1 DUP2 MSTORE PUSH1 0x20 ADD PUSH0 KECCAK256 DUP5 SWAP1 DUP1 PUSH1 0x1 DUP2 SLOAD ADD DUP1 DUP3 SSTORE DUP1 SWAP2 POP POP PUSH1 0x1 SWAP1 SUB SWAP1 PUSH0 MSTORE PUSH1 0x20 PUSH0 KECCAK256 ADD PUSH0 SWAP1 SWAP2 SWAP1 SWAP2 SWAP1 SWAP2 POP SSTORE CALLER PUSH20 0xFFFFFFFFFFFFFFFFFFFFFFFFFFFFFFFFFFFFFFFF AND DUP5 PUSH32 0x2C01190DEB24FE5101A0373E8EE0ED3438853AAFFEAF7FA5CA1C8DB13D9E32B9 PUSH1 0x40 MLOAD PUSH1 0x40 MLOAD DUP1 SWAP2 SUB SWAP1 LOG3 POP POP POP POP JUMP JUMPDEST PUSH2 0x1418 DUP4 DUP4 DUP4 PUSH1 0x40 MLOAD DUP1 PUSH1 0x20 ADD PUSH1 0x40 MSTORE DUP1 PUSH0 DUP2 MSTORE POP PUSH2 0x1DC6 JUMP JUMPDEST POP POP POP JUMP JUMPDEST PUSH1 0x60 PUSH1 0x9 PUSH0 DUP4 DUP2 MSTORE PUSH1 0x20 ADD SWAP1 DUP2 MSTORE PUSH1 0x20 ADD PUSH0 KECCAK256 DUP1 SLOAD DUP1 PUSH1 0x20 MUL PUSH1 0x20 ADD PUSH1 0x40 MLOAD SWAP1 DUP2 ADD PUSH1 0x40 MSTORE DUP1 SWAP3 SWAP2 SWAP1 DUP2 DUP2 MSTORE PUSH1 0x20 ADD DUP3 DUP1 SLOAD DUP1 ISZERO PUSH2 0x1478 JUMPI PUSH1 0x20 MUL DUP3 ADD SWAP2 SWAP1 PUSH0 MSTORE PUSH1 0x20 PUSH0 KECCAK256 SWAP1 JUMPDEST DUP2 SLOAD DUP2 MSTORE PUSH1 0x20 ADD SWAP1 PUSH1 0x1 ADD SWAP1 DUP1 DUP4 GT PUSH2 0x1464 JUMPI JUMPDEST POP POP POP POP POP SWAP1 POP SWAP2 SWAP1 POP JUMP JUMPDEST PUSH0 PUSH1 0x6 PUSH0 SWAP1 SLOAD SWAP1 PUSH2 0x100 EXP SWAP1 DIV PUSH1 0xFF AND SWAP1 POP SWAP1 JUMP JUMPDEST PUSH0 PUSH2 0x14A3 DUP3 PUSH2 0x2AF4 JUMP JUMPDEST SWAP1 POP SWAP2 SWAP1 POP JUMP JUMPDEST PUSH0 DUP1 PUSH20 0xFFFFFFFFFFFFFFFFFFFFFFFFFFFFFFFFFFFFFFFF AND DUP3 PUSH20 0xFFFFFFFFFFFFFFFFFFFFFFFFFFFFFFFFFFFFFFFF AND SUB PUSH2 0x151B JUMPI PUSH0 PUSH1 0x40 MLOAD PUSH32 0x89C62B6400000000000000000000000000000000000000000000000000000000 DUP2 MSTORE PUSH1 0x4 ADD PUSH2 0x1512 SWAP2 SWAP1 PUSH2 0x3EF4 JUMP JUMPDEST PUSH1 0x40 MLOAD DUP1 SWAP2 SUB SWAP1 REVERT JUMPDEST PUSH1 0x3 PUSH0 DUP4 PUSH20 0xFFFFFFFFFFFFFFFFFFFFFFFFFFFFFFFFFFFFFFFF AND PUSH20 0xFFFFFFFFFFFFFFFFFFFFFFFFFFFFFFFFFFFFFFFF AND DUP2 MSTORE PUSH1 0x20 ADD SWAP1 DUP2 MSTORE PUSH1 0x20 ADD PUSH0 KECCAK256 SLOAD SWAP1 POP SWAP2 SWAP1 POP JUMP JUMPDEST PUSH32 0x0 DUP2 JUMP JUMPDEST PUSH32 0x0 DUP2 JUMP JUMPDEST DUP1 PUSH0 PUSH32 0x0 PUSH20 0xFFFFFFFFFFFFFFFFFFFFFFFFFFFFFFFFFFFFFFFF AND PUSH4 0xFF91E489 DUP4 PUSH1 0x40 MLOAD DUP3 PUSH4 0xFFFFFFFF AND PUSH1 0xE0 SHL DUP2 MSTORE PUSH1 0x4 ADD PUSH2 0x1603 SWAP2 SWAP1 PUSH2 0x4194 JUMP JUMPDEST PUSH0 PUSH1 0x40 MLOAD DUP1 DUP4 SUB DUP2 DUP7 GAS STATICCALL ISZERO DUP1 ISZERO PUSH2 0x161D JUMPI RETURNDATASIZE PUSH0 DUP1 RETURNDATACOPY RETURNDATASIZE PUSH0 REVERT JUMPDEST POP POP POP POP PUSH1 0x40 MLOAD RETURNDATASIZE PUSH0 DUP3 RETURNDATACOPY RETURNDATASIZE PUSH1 0x1F NOT PUSH1 0x1F DUP3 ADD AND DUP3 ADD DUP1 PUSH1 0x40 MSTORE POP DUP2 ADD SWAP1 PUSH2 0x1645 SWAP2 SWAP1 PUSH2 0x4CEB JUMP JUMPDEST SWAP1 POP DUP1 PUSH1 0xA0 ADD MLOAD PUSH2 0x168B JUMPI PUSH1 0x40 MLOAD PUSH32 0x8C379A000000000000000000000000000000000000000000000000000000000 DUP2 MSTORE PUSH1 0x4 ADD PUSH2 0x1682 SWAP1 PUSH2 0x4D7C JUMP JUMPDEST PUSH1 0x40 MLOAD DUP1 SWAP2 SUB SWAP1 REVERT JUMPDEST PUSH0 PUSH32 0x0 PUSH20 0xFFFFFFFFFFFFFFFFFFFFFFFFFFFFFFFFFFFFFFFF AND PUSH4 0xE3FBF314 DUP4 PUSH1 0xC0 ADD MLOAD PUSH1 0x40 MLOAD DUP3 PUSH4 0xFFFFFFFF AND PUSH1 0xE0 SHL DUP2 MSTORE PUSH1 0x4 ADD PUSH2 0x16E9 SWAP2 SWAP1 PUSH2 0x4194 JUMP JUMPDEST PUSH0 PUSH1 0x40 MLOAD DUP1 DUP4 SUB DUP2 DUP7 GAS STATICCALL ISZERO DUP1 ISZERO PUSH2 0x1703 JUMPI RETURNDATASIZE PUSH0 DUP1 RETURNDATACOPY RETURNDATASIZE PUSH0 REVERT JUMPDEST POP POP POP POP PUSH1 0x40 MLOAD RETURNDATASIZE PUSH0 DUP3 RETURNDATACOPY RETURNDATASIZE PUSH1 0x1F NOT PUSH1 0x1F DUP3 ADD AND DUP3 ADD DUP1 PUSH1 0x40 MSTORE POP DUP2 ADD SWAP1 PUSH2 0x172B SWAP2 SWAP1 PUSH2 0x50FC JUMP JUMPDEST SWAP1 POP DUP1 PUSH1 0xA0 ADD MLOAD PUSH2 0x1771 JUMPI PUSH1 0x40 MLOAD PUSH32 0x8C379A000000000000000000000000000000000000000000000000000000000 DUP2 MSTORE PUSH1 0x4 ADD PUSH2 0x1768 SWAP1 PUSH2 0x518D JUMP JUMPDEST PUSH1 0x40 MLOAD DUP1 SWAP2 SUB SWAP1 REVERT JUMPDEST DUP1 PUSH1 0x60 ADD MLOAD PUSH20 0xFFFFFFFFFFFFFFFFFFFFFFFFFFFFFFFFFFFFFFFF AND CALLER PUSH20 0xFFFFFFFFFFFFFFFFFFFFFFFFFFFFFFFFFFFFFFFF AND EQ PUSH2 0x17E3 JUMPI PUSH1 0x40 MLOAD PUSH32 0x8C379A000000000000000000000000000000000000000000000000000000000 DUP2 MSTORE PUSH1 0x4 ADD PUSH2 0x17DA SWAP1 PUSH2 0x51F5 JUMP JUMPDEST PUSH1 0x40 MLOAD DUP1 SWAP2 SUB SWAP1 REVERT JUMPDEST PUSH2 0x17EB PUSH2 0x29F4 JUMP JUMPDEST PUSH0 PUSH1 0xD PUSH0 DUP7 DUP2 MSTORE PUSH1 0x20 ADD SWAP1 DUP2 MSTORE PUSH1 0x20 ADD PUSH0 KECCAK256 SWAP1 POP PUSH1 0x1 PUSH1 0x3 DUP2 GT ISZERO PUSH2 0x1813 JUMPI PUSH2 0x1812 PUSH2 0x4287 JUMP JUMPDEST JUMPDEST DUP2 PUSH1 0x3 ADD PUSH0 SWAP1 SLOAD SWAP1 PUSH2 0x100 EXP SWAP1 DIV PUSH1 0xFF AND PUSH1 0x3 DUP2 GT ISZERO PUSH2 0x1836 JUMPI PUSH2 0x1835 PUSH2 0x4287 JUMP JUMPDEST JUMPDEST EQ PUSH2 0x1876 JUMPI PUSH1 0x40 MLOAD PUSH32 0x8C379A000000000000000000000000000000000000000000000000000000000 DUP2 MSTORE PUSH1 0x4 ADD PUSH2 0x186D SWAP1 PUSH2 0x525D JUMP JUMPDEST PUSH1 0x40 MLOAD DUP1 SWAP2 SUB SWAP1 REVERT JUMPDEST PUSH1 0x2 DUP2 PUSH1 0x3 ADD PUSH0 PUSH2 0x100 EXP DUP2 SLOAD DUP2 PUSH1 0xFF MUL NOT AND SWAP1 DUP4 PUSH1 0x3 DUP2 GT ISZERO PUSH2 0x189D JUMPI PUSH2 0x189C PUSH2 0x4287 JUMP JUMPDEST JUMPDEST MUL OR SWAP1 SSTORE POP PUSH2 0x190B PUSH1 0x8 PUSH0 DUP4 PUSH1 0x1 ADD PUSH0 SWAP1 SLOAD SWAP1 PUSH2 0x100 EXP SWAP1 DIV PUSH20 0xFFFFFFFFFFFFFFFFFFFFFFFFFFFFFFFFFFFFFFFF AND PUSH20 0xFFFFFFFFFFFFFFFFFFFFFFFFFFFFFFFFFFFFFFFF AND PUSH20 0xFFFFFFFFFFFFFFFFFFFFFFFFFFFFFFFFFFFFFFFF AND DUP2 MSTORE PUSH1 0x20 ADD SWAP1 DUP2 MSTORE PUSH1 0x20 ADD PUSH0 KECCAK256 DUP7 PUSH2 0x2A3E JUMP JUMPDEST PUSH2 0x1925 PUSH1 0x9 PUSH0 DUP8 DUP2 MSTORE PUSH1 0x20 ADD SWAP1 DUP2 MSTORE PUSH1 0x20 ADD PUSH0 KECCAK256 DUP7 PUSH2 0x2A3E JUMP JUMPDEST PUSH1 0xA PUSH0 DUP3 PUSH1 0x1 ADD PUSH0 SWAP1 SLOAD SWAP1 PUSH2 0x100 EXP SWAP1 DIV PUSH20 0xFFFFFFFFFFFFFFFFFFFFFFFFFFFFFFFFFFFFFFFF AND PUSH20 0xFFFFFFFFFFFFFFFFFFFFFFFFFFFFFFFFFFFFFFFF AND PUSH20 0xFFFFFFFFFFFFFFFFFFFFFFFFFFFFFFFFFFFFFFFF AND DUP2 MSTORE PUSH1 0x20 ADD SWAP1 DUP2 MSTORE PUSH1 0x20 ADD PUSH0 KECCAK256 DUP6 SWAP1 DUP1 PUSH1 0x1 DUP2 SLOAD ADD DUP1 DUP3 SSTORE DUP1 SWAP2 POP POP PUSH1 0x1 SWAP1 SUB SWAP1 PUSH0 MSTORE PUSH1 0x20 PUSH0 KECCAK256 ADD PUSH0 SWAP1 SWAP2 SWAP1 SWAP2 SWAP1 SWAP2 POP SSTORE DUP1 PUSH1 0x1 ADD PUSH0 SWAP1 SLOAD SWAP1 PUSH2 0x100 EXP SWAP1 DIV PUSH20 0xFFFFFFFFFFFFFFFFFFFFFFFFFFFFFFFFFFFFFFFF AND PUSH20 0xFFFFFFFFFFFFFFFFFFFFFFFFFFFFFFFFFFFFFFFF AND DUP6 PUSH32 0xE90F4A07E9A9AF1DD1030380992296AC79B9AEA4F6705F8365F9DF1BCBF3AD4C PUSH1 0x40 MLOAD PUSH1 0x40 MLOAD DUP1 SWAP2 SUB SWAP1 LOG3 POP POP POP POP POP JUMP JUMPDEST PUSH32 0x0 PUSH20 0xFFFFFFFFFFFFFFFFFFFFFFFFFFFFFFFFFFFFFFFF AND PUSH4 0x91D14854 PUSH32 0x0 PUSH20 0xFFFFFFFFFFFFFFFFFFFFFFFFFFFFFFFFFFFFFFFF AND PUSH4 0x75B238FC PUSH1 0x40 MLOAD DUP2 PUSH4 0xFFFFFFFF AND PUSH1 0xE0 SHL DUP2 MSTORE PUSH1 0x4 ADD PUSH1 0x20 PUSH1 0x40 MLOAD DUP1 DUP4 SUB DUP2 DUP7 GAS STATICCALL ISZERO DUP1 ISZERO PUSH2 0x1ABC JUMPI RETURNDATASIZE PUSH0 DUP1 RETURNDATACOPY RETURNDATASIZE PUSH0 REVERT JUMPDEST POP POP POP POP PUSH1 0x40 MLOAD RETURNDATASIZE PUSH1 0x1F NOT PUSH1 0x1F DUP3 ADD AND DUP3 ADD DUP1 PUSH1 0x40 MSTORE POP DUP2 ADD SWAP1 PUSH2 0x1AE0 SWAP2 SWAP1 PUSH2 0x4667 JUMP JUMPDEST CALLER PUSH1 0x40 MLOAD DUP4 PUSH4 0xFFFFFFFF AND PUSH1 0xE0 SHL DUP2 MSTORE PUSH1 0x4 ADD PUSH2 0x1AFE SWAP3 SWAP2 SWAP1 PUSH2 0x46A1 JUMP JUMPDEST PUSH1 0x20 PUSH1 0x40 MLOAD DUP1 DUP4 SUB DUP2 DUP7 GAS STATICCALL ISZERO DUP1 ISZERO PUSH2 0x1B19 JUMPI RETURNDATASIZE PUSH0 DUP1 RETURNDATACOPY RETURNDATASIZE PUSH0 REVERT JUMPDEST POP POP POP POP PUSH1 0x40 MLOAD RETURNDATASIZE PUSH1 0x1F NOT PUSH1 0x1F DUP3 ADD AND DUP3 ADD DUP1 PUSH1 0x40 MSTORE POP DUP2 ADD SWAP1 PUSH2 0x1B3D SWAP2 SWAP1 PUSH2 0x46DC JUMP JUMPDEST PUSH2 0x1B7C JUMPI PUSH1 0x40 MLOAD PUSH32 0x8C379A000000000000000000000000000000000000000000000000000000000 DUP2 MSTORE PUSH1 0x4 ADD PUSH2 0x1B73 SWAP1 PUSH2 0x48BE JUMP JUMPDEST PUSH1 0x40 MLOAD DUP1 SWAP2 SUB SWAP1 REVERT JUMPDEST PUSH2 0x1B84 PUSH2 0x2E38 JUMP JUMPDEST JUMP JUMPDEST PUSH1 0x60 PUSH1 0x8 PUSH0 DUP4 PUSH20 0xFFFFFFFFFFFFFFFFFFFFFFFFFFFFFFFFFFFFFFFF AND PUSH20 0xFFFFFFFFFFFFFFFFFFFFFFFFFFFFFFFFFFFFFFFF AND DUP2 MSTORE PUSH1 0x20 ADD SWAP1 DUP2 MSTORE PUSH1 0x20 ADD PUSH0 KECCAK256 DUP1 SLOAD DUP1 PUSH1 0x20 MUL PUSH1 0x20 ADD PUSH1 0x40 MLOAD SWAP1 DUP2 ADD PUSH1 0x40 MSTORE DUP1 SWAP3 SWAP2 SWAP1 DUP2 DUP2 MSTORE PUSH1 0x20 ADD DUP3 DUP1 SLOAD DUP1 ISZERO PUSH2 0x1C0D JUMPI PUSH1 0x20 MUL DUP3 ADD SWAP2 SWAP1 PUSH0 MSTORE PUSH1 0x20 PUSH0 KECCAK256 SWAP1 JUMPDEST DUP2 SLOAD DUP2 MSTORE PUSH1 0x20 ADD SWAP1 PUSH1 0x1 ADD SWAP1 DUP1 DUP4 GT PUSH2 0x1BF9 JUMPI JUMPDEST POP POP POP POP POP SWAP1 POP SWAP2 SWAP1 POP JUMP JUMPDEST PUSH1 0x60 PUSH1 0x1 DUP1 SLOAD PUSH2 0x1C28 SWAP1 PUSH2 0x4604 JUMP JUMPDEST DUP1 PUSH1 0x1F ADD PUSH1 0x20 DUP1 SWAP2 DIV MUL PUSH1 0x20 ADD PUSH1 0x40 MLOAD SWAP1 DUP2 ADD PUSH1 0x40 MSTORE DUP1 SWAP3 SWAP2 SWAP1 DUP2 DUP2 MSTORE PUSH1 0x20 ADD DUP3 DUP1 SLOAD PUSH2 0x1C54 SWAP1 PUSH2 0x4604 JUMP JUMPDEST DUP1 ISZERO PUSH2 0x1C9F JUMPI DUP1 PUSH1 0x1F LT PUSH2 0x1C76 JUMPI PUSH2 0x100 DUP1 DUP4 SLOAD DIV MUL DUP4 MSTORE SWAP2 PUSH1 0x20 ADD SWAP2 PUSH2 0x1C9F JUMP JUMPDEST DUP3 ADD SWAP2 SWAP1 PUSH0 MSTORE PUSH1 0x20 PUSH0 KECCAK256 SWAP1 JUMPDEST DUP2 SLOAD DUP2 MSTORE SWAP1 PUSH1 0x1 ADD SWAP1 PUSH1 0x20 ADD DUP1 DUP4 GT PUSH2 0x1C82 JUMPI DUP3 SWAP1 SUB PUSH1 0x1F AND DUP3 ADD SWAP2 JUMPDEST POP POP POP POP POP SWAP1 POP SWAP1 JUMP JUMPDEST PUSH2 0x1CBB PUSH2 0x1CB4 PUSH2 0x2BB3 JUMP JUMPDEST DUP4 DUP4 PUSH2 0x2E9A JUMP JUMPDEST POP POP JUMP JUMPDEST PUSH1 0xD PUSH1 0x20 MSTORE DUP1 PUSH0 MSTORE PUSH1 0x40 PUSH0 KECCAK256 PUSH0 SWAP2 POP SWAP1 POP DUP1 PUSH0 ADD SLOAD SWAP1 DUP1 PUSH1 0x1 ADD PUSH0 SWAP1 SLOAD SWAP1 PUSH2 0x100 EXP SWAP1 DIV PUSH20 0xFFFFFFFFFFFFFFFFFFFFFFFFFFFFFFFFFFFFFFFF AND SWAP1 DUP1 PUSH1 0x2 ADD DUP1 SLOAD PUSH2 0x1D09 SWAP1 PUSH2 0x4604 JUMP JUMPDEST DUP1 PUSH1 0x1F ADD PUSH1 0x20 DUP1 SWAP2 DIV MUL PUSH1 0x20 ADD PUSH1 0x40 MLOAD SWAP1 DUP2 ADD PUSH1 0x40 MSTORE DUP1 SWAP3 SWAP2 SWAP1 DUP2 DUP2 MSTORE PUSH1 0x20 ADD DUP3 DUP1 SLOAD PUSH2 0x1D35 SWAP1 PUSH2 0x4604 JUMP JUMPDEST DUP1 ISZERO PUSH2 0x1D80 JUMPI DUP1 PUSH1 0x1F LT PUSH2 0x1D57 JUMPI PUSH2 0x100 DUP1 DUP4 SLOAD DIV MUL DUP4 MSTORE SWAP2 PUSH1 0x20 ADD SWAP2 PUSH2 0x1D80 JUMP JUMPDEST DUP3 ADD SWAP2 SWAP1 PUSH0 MSTORE PUSH1 0x20 PUSH0 KECCAK256 SWAP1 JUMPDEST DUP2 SLOAD DUP2 MSTORE SWAP1 PUSH1 0x1 ADD SWAP1 PUSH1 0x20 ADD DUP1 DUP4 GT PUSH2 0x1D63 JUMPI DUP3 SWAP1 SUB PUSH1 0x1F AND DUP3 ADD SWAP2 JUMPDEST POP POP POP POP POP SWAP1 DUP1 PUSH1 0x3 ADD PUSH0 SWAP1 SLOAD SWAP1 PUSH2 0x100 EXP SWAP1 DIV PUSH1 0xFF AND SWAP1 DUP1 PUSH1 0x4 ADD SLOAD SWAP1 POP DUP6 JUMP JUMPDEST PUSH32 0x0 DUP2 JUMP JUMPDEST PUSH2 0x1DD1 DUP5 DUP5 DUP5 PUSH2 0xBF4 JUMP JUMPDEST PUSH2 0x1DE5 PUSH2 0x1DDC PUSH2 0x2BB3 JUMP JUMPDEST DUP6 DUP6 DUP6 DUP6 PUSH2 0x3003 JUMP JUMPDEST POP POP POP POP JUMP JUMPDEST PUSH1 0xC PUSH1 0x20 MSTORE DUP1 PUSH0 MSTORE PUSH1 0x40 PUSH0 KECCAK256 PUSH0 SWAP2 POP SWAP1 POP DUP1 PUSH0 ADD SLOAD SWAP1 DUP1 PUSH1 0x1 ADD SLOAD SWAP1 DUP1 PUSH1 0x2 ADD PUSH0 SWAP1 SLOAD SWAP1 PUSH2 0x100 EXP SWAP1 DIV PUSH20 0xFFFFFFFFFFFFFFFFFFFFFFFFFFFFFFFFFFFFFFFF AND SWAP1 DUP1 PUSH1 0x3 ADD DUP1 SLOAD PUSH2 0x1E3B SWAP1 PUSH2 0x4604 JUMP JUMPDEST DUP1 PUSH1 0x1F ADD PUSH1 0x20 DUP1 SWAP2 DIV MUL PUSH1 0x20 ADD PUSH1 0x40 MLOAD SWAP1 DUP2 ADD PUSH1 0x40 MSTORE DUP1 SWAP3 SWAP2 SWAP1 DUP2 DUP2 MSTORE PUSH1 0x20 ADD DUP3 DUP1 SLOAD PUSH2 0x1E67 SWAP1 PUSH2 0x4604 JUMP JUMPDEST DUP1 ISZERO PUSH2 0x1EB2 JUMPI DUP1 PUSH1 0x1F LT PUSH2 0x1E89 JUMPI PUSH2 0x100 DUP1 DUP4 SLOAD DIV MUL DUP4 MSTORE SWAP2 PUSH1 0x20 ADD SWAP2 PUSH2 0x1EB2 JUMP JUMPDEST DUP3 ADD SWAP2 SWAP1 PUSH0 MSTORE PUSH1 0x20 PUSH0 KECCAK256 SWAP1 JUMPDEST DUP2 SLOAD DUP2 MSTORE SWAP1 PUSH1 0x1 ADD SWAP1 PUSH1 0x20 ADD DUP1 DUP4 GT PUSH2 0x1E95 JUMPI DUP3 SWAP1 SUB PUSH1 0x1F AND DUP3 ADD SWAP2 JUMPDEST POP POP POP POP POP SWAP1 DUP1 PUSH1 0x4 ADD PUSH0 SWAP1 SLOAD SWAP1 PUSH2 0x100 EXP SWAP1 DIV PUSH1 0xFF AND SWAP1 DUP1 PUSH1 0x5 ADD SLOAD SWAP1 POP DUP7 JUMP JUMPDEST PUSH1 0x60 PUSH2 0x1EDF DUP3 PUSH2 0x2AF4 JUMP JUMPDEST POP PUSH0 PUSH2 0x1EE9 PUSH2 0x31AF JUMP JUMPDEST SWAP1 POP PUSH0 DUP2 MLOAD GT PUSH2 0x1F07 JUMPI PUSH1 0x40 MLOAD DUP1 PUSH1 0x20 ADD PUSH1 0x40 MSTORE DUP1 PUSH0 DUP2 MSTORE POP PUSH2 0x1F32 JUMP JUMPDEST DUP1 PUSH2 0x1F11 DUP5 PUSH2 0x31C5 JUMP JUMPDEST PUSH1 0x40 MLOAD PUSH1 0x20 ADD PUSH2 0x1F22 SWAP3 SWAP2 SWAP1 PUSH2 0x52B5 JUMP JUMPDEST PUSH1 0x40 MLOAD PUSH1 0x20 DUP2 DUP4 SUB SUB DUP2 MSTORE SWAP1 PUSH1 0x40 MSTORE JUMPDEST SWAP2 POP POP SWAP2 SWAP1 POP JUMP JUMPDEST PUSH1 0x60 PUSH1 0xB PUSH0 DUP4 DUP2 MSTORE PUSH1 0x20 ADD SWAP1 DUP2 MSTORE PUSH1 0x20 ADD PUSH0 KECCAK256 DUP1 SLOAD DUP1 PUSH1 0x20 MUL PUSH1 0x20 ADD PUSH1 0x40 MLOAD SWAP1 DUP2 ADD PUSH1 0x40 MSTORE DUP1 SWAP3 SWAP2 SWAP1 DUP2 DUP2 MSTORE PUSH1 0x20 ADD DUP3 DUP1 SLOAD DUP1 ISZERO PUSH2 0x1F95 JUMPI PUSH1 0x20 MUL DUP3 ADD SWAP2 SWAP1 PUSH0 MSTORE PUSH1 0x20 PUSH0 KECCAK256 SWAP1 JUMPDEST DUP2 SLOAD DUP2 MSTORE PUSH1 0x20 ADD SWAP1 PUSH1 0x1 ADD SWAP1 DUP1 DUP4 GT PUSH2 0x1F81 JUMPI JUMPDEST POP POP POP POP POP SWAP1 POP SWAP2 SWAP1 POP JUMP JUMPDEST PUSH1 0xE PUSH1 0x20 MSTORE DUP1 PUSH0 MSTORE PUSH1 0x40 PUSH0 KECCAK256 PUSH0 SWAP2 POP SLOAD SWAP1 PUSH2 0x100 EXP SWAP1 DIV PUSH1 0xFF AND DUP2 JUMP JUMPDEST DUP1 PUSH0 PUSH32 0x0 PUSH20 0xFFFFFFFFFFFFFFFFFFFFFFFFFFFFFFFFFFFFFFFF AND PUSH4 0xFF91E489 DUP4 PUSH1 0x40 MLOAD DUP3 PUSH4 0xFFFFFFFF AND PUSH1 0xE0 SHL DUP2 MSTORE PUSH1 0x4 ADD PUSH2 0x2019 SWAP2 SWAP1 PUSH2 0x4194 JUMP JUMPDEST PUSH0 PUSH1 0x40 MLOAD DUP1 DUP4 SUB DUP2 DUP7 GAS STATICCALL ISZERO DUP1 ISZERO PUSH2 0x2033 JUMPI RETURNDATASIZE PUSH0 DUP1 RETURNDATACOPY RETURNDATASIZE PUSH0 REVERT JUMPDEST POP POP POP POP PUSH1 0x40 MLOAD RETURNDATASIZE PUSH0 DUP3 RETURNDATACOPY RETURNDATASIZE PUSH1 0x1F NOT PUSH1 0x1F DUP3 ADD AND DUP3 ADD DUP1 PUSH1 0x40 MSTORE POP DUP2 ADD SWAP1 PUSH2 0x205B SWAP2 SWAP1 PUSH2 0x4CEB JUMP JUMPDEST SWAP1 POP DUP1 PUSH1 0xA0 ADD MLOAD PUSH2 0x20A1 JUMPI PUSH1 0x40 MLOAD PUSH32 0x8C379A000000000000000000000000000000000000000000000000000000000 DUP2 MSTORE PUSH1 0x4 ADD PUSH2 0x2098 SWAP1 PUSH2 0x4D7C JUMP JUMPDEST PUSH1 0x40 MLOAD DUP1 SWAP2 SUB SWAP1 REVERT JUMPDEST PUSH0 PUSH32 0x0 PUSH20 0xFFFFFFFFFFFFFFFFFFFFFFFFFFFFFFFFFFFFFFFF AND PUSH4 0xE3FBF314 DUP4 PUSH1 0xC0 ADD MLOAD PUSH1 0x40 MLOAD DUP3 PUSH4 0xFFFFFFFF AND PUSH1 0xE0 SHL DUP2 MSTORE PUSH1 0x4 ADD PUSH2 0x20FF SWAP2 SWAP1 PUSH2 0x4194 JUMP JUMPDEST PUSH0 PUSH1 0x40 MLOAD DUP1 DUP4 SUB DUP2 DUP7 GAS STATICCALL ISZERO DUP1 ISZERO PUSH2 0x2119 JUMPI RETURNDATASIZE PUSH0 DUP1 RETURNDATACOPY RETURNDATASIZE PUSH0 REVERT JUMPDEST POP POP POP POP PUSH1 0x40 MLOAD RETURNDATASIZE PUSH0 DUP3 RETURNDATACOPY RETURNDATASIZE PUSH1 0x1F NOT PUSH1 0x1F DUP3 ADD AND DUP3 ADD DUP1 PUSH1 0x40 MSTORE POP DUP2 ADD SWAP1 PUSH2 0x2141 SWAP2 SWAP1 PUSH2 0x50FC JUMP JUMPDEST SWAP1 POP DUP1 PUSH1 0xA0 ADD MLOAD PUSH2 0x2187 JUMPI PUSH1 0x40 MLOAD PUSH32 0x8C379A000000000000000000000000000000000000000000000000000000000 DUP2 MSTORE PUSH1 0x4 ADD PUSH2 0x217E SWAP1 PUSH2 0x518D JUMP JUMPDEST PUSH1 0x40 MLOAD DUP1 SWAP2 SUB SWAP1 REVERT JUMPDEST DUP1 PUSH1 0x60 ADD MLOAD PUSH20 0xFFFFFFFFFFFFFFFFFFFFFFFFFFFFFFFFFFFFFFFF AND CALLER PUSH20 0xFFFFFFFFFFFFFFFFFFFFFFFFFFFFFFFFFFFFFFFF AND EQ PUSH2 0x21F9 JUMPI PUSH1 0x40 MLOAD PUSH32 0x8C379A000000000000000000000000000000000000000000000000000000000 DUP2 MSTORE PUSH1 0x4 ADD PUSH2 0x21F0 SWAP1 PUSH2 0x51F5 JUMP JUMPDEST PUSH1 0x40 MLOAD DUP1 SWAP2 SUB SWAP1 REVERT JUMPDEST PUSH2 0x2201 PUSH2 0x29F4 JUMP JUMPDEST PUSH0 PUSH1 0xD PUSH0 DUP7 DUP2 MSTORE PUSH1 0x20 ADD SWAP1 DUP2 MSTORE PUSH1 0x20 ADD PUSH0 KECCAK256 SWAP1 POP PUSH1 0x1 PUSH1 0x3 DUP2 GT ISZERO PUSH2 0x2229 JUMPI PUSH2 0x2228 PUSH2 0x4287 JUMP JUMPDEST JUMPDEST DUP2 PUSH1 0x3 ADD PUSH0 SWAP1 SLOAD SWAP1 PUSH2 0x100 EXP SWAP1 DIV PUSH1 0xFF AND PUSH1 0x3 DUP2 GT ISZERO PUSH2 0x224C JUMPI PUSH2 0x224B PUSH2 0x4287 JUMP JUMPDEST JUMPDEST EQ PUSH2 0x228C JUMPI PUSH1 0x40 MLOAD PUSH32 0x8C379A000000000000000000000000000000000000000000000000000000000 DUP2 MSTORE PUSH1 0x4 ADD PUSH2 0x2283 SWAP1 PUSH2 0x525D JUMP JUMPDEST PUSH1 0x40 MLOAD DUP1 SWAP2 SUB SWAP1 REVERT JUMPDEST PUSH0 DUP2 PUSH1 0x3 ADD PUSH0 PUSH2 0x100 EXP DUP2 SLOAD DUP2 PUSH1 0xFF MUL NOT AND SWAP1 DUP4 PUSH1 0x3 DUP2 GT ISZERO PUSH2 0x22B2 JUMPI PUSH2 0x22B1 PUSH2 0x4287 JUMP JUMPDEST JUMPDEST MUL OR SWAP1 SSTORE POP PUSH2 0x2320 PUSH1 0x8 PUSH0 DUP4 PUSH1 0x1 ADD PUSH0 SWAP1 SLOAD SWAP1 PUSH2 0x100 EXP SWAP1 DIV PUSH20 0xFFFFFFFFFFFFFFFFFFFFFFFFFFFFFFFFFFFFFFFF AND PUSH20 0xFFFFFFFFFFFFFFFFFFFFFFFFFFFFFFFFFFFFFFFF AND PUSH20 0xFFFFFFFFFFFFFFFFFFFFFFFFFFFFFFFFFFFFFFFF AND DUP2 MSTORE PUSH1 0x20 ADD SWAP1 DUP2 MSTORE PUSH1 0x20 ADD PUSH0 KECCAK256 DUP7 PUSH2 0x2A3E JUMP JUMPDEST PUSH2 0x233A PUSH1 0x9 PUSH0 DUP8 DUP2 MSTORE PUSH1 0x20 ADD SWAP1 DUP2 MSTORE PUSH1 0x20 ADD PUSH0 KECCAK256 DUP7 PUSH2 0x2A3E JUMP JUMPDEST DUP1 PUSH1 0x1 ADD PUSH0 SWAP1 SLOAD SWAP1 PUSH2 0x100 EXP SWAP1 DIV PUSH20 0xFFFFFFFFFFFFFFFFFFFFFFFFFFFFFFFFFFFFFFFF AND PUSH20 0xFFFFFFFFFFFFFFFFFFFFFFFFFFFFFFFFFFFFFFFF AND DUP6 PUSH32 0x8AB069580156E517907E83C0C2A44BBAD72364AA9544E12AA96BA9EC2B091A8C PUSH1 0x40 MLOAD PUSH1 0x40 MLOAD DUP1 SWAP2 SUB SWAP1 LOG3 POP POP POP POP POP JUMP JUMPDEST PUSH0 PUSH1 0x5 PUSH0 DUP5 PUSH20 0xFFFFFFFFFFFFFFFFFFFFFFFFFFFFFFFFFFFFFFFF AND PUSH20 0xFFFFFFFFFFFFFFFFFFFFFFFFFFFFFFFFFFFFFFFF AND DUP2 MSTORE PUSH1 0x20 ADD SWAP1 DUP2 MSTORE PUSH1 0x20 ADD PUSH0 KECCAK256 PUSH0 DUP4 PUSH20 0xFFFFFFFFFFFFFFFFFFFFFFFFFFFFFFFFFFFFFFFF AND PUSH20 0xFFFFFFFFFFFFFFFFFFFFFFFFFFFFFFFFFFFFFFFF AND DUP2 MSTORE PUSH1 0x20 ADD SWAP1 DUP2 MSTORE PUSH1 0x20 ADD PUSH0 KECCAK256 PUSH0 SWAP1 SLOAD SWAP1 PUSH2 0x100 EXP SWAP1 DIV PUSH1 0xFF AND SWAP1 POP SWAP3 SWAP2 POP POP JUMP JUMPDEST DUP1 PUSH0 PUSH32 0x0 PUSH20 0xFFFFFFFFFFFFFFFFFFFFFFFFFFFFFFFFFFFFFFFF AND PUSH4 0xFF91E489 DUP4 PUSH1 0x40 MLOAD DUP3 PUSH4 0xFFFFFFFF AND PUSH1 0xE0 SHL DUP2 MSTORE PUSH1 0x4 ADD PUSH2 0x2491 SWAP2 SWAP1 PUSH2 0x4194 JUMP JUMPDEST PUSH0 PUSH1 0x40 MLOAD DUP1 DUP4 SUB DUP2 DUP7 GAS STATICCALL ISZERO DUP1 ISZERO PUSH2 0x24AB JUMPI RETURNDATASIZE PUSH0 DUP1 RETURNDATACOPY RETURNDATASIZE PUSH0 REVERT JUMPDEST POP POP POP POP PUSH1 0x40 MLOAD RETURNDATASIZE PUSH0 DUP3 RETURNDATACOPY RETURNDATASIZE PUSH1 0x1F NOT PUSH1 0x1F DUP3 ADD AND DUP3 ADD DUP1 PUSH1 0x40 MSTORE POP DUP2 ADD SWAP1 PUSH2 0x24D3 SWAP2 SWAP1 PUSH2 0x4CEB JUMP JUMPDEST SWAP1 POP DUP1 PUSH1 0xA0 ADD MLOAD PUSH2 0x2519 JUMPI PUSH1 0x40 MLOAD PUSH32 0x8C379A000000000000000000000000000000000000000000000000000000000 DUP2 MSTORE PUSH1 0x4 ADD PUSH2 0x2510 SWAP1 PUSH2 0x4D7C JUMP JUMPDEST PUSH1 0x40 MLOAD DUP1 SWAP2 SUB SWAP1 REVERT JUMPDEST PUSH0 PUSH32 0x0 PUSH20 0xFFFFFFFFFFFFFFFFFFFFFFFFFFFFFFFFFFFFFFFF AND PUSH4 0xE3FBF314 DUP4 PUSH1 0xC0 ADD MLOAD PUSH1 0x40 MLOAD DUP3 PUSH4 0xFFFFFFFF AND PUSH1 0xE0 SHL DUP2 MSTORE PUSH1 0x4 ADD PUSH2 0x2577 SWAP2 SWAP1 PUSH2 0x4194 JUMP JUMPDEST PUSH0 PUSH1 0x40 MLOAD DUP1 DUP4 SUB DUP2 DUP7 GAS STATICCALL ISZERO DUP1 ISZERO PUSH2 0x2591 JUMPI RETURNDATASIZE PUSH0 DUP1 RETURNDATACOPY RETURNDATASIZE PUSH0 REVERT JUMPDEST POP POP POP POP PUSH1 0x40 MLOAD RETURNDATASIZE PUSH0 DUP3 RETURNDATACOPY RETURNDATASIZE PUSH1 0x1F NOT PUSH1 0x1F DUP3 ADD AND DUP3 ADD DUP1 PUSH1 0x40 MSTORE POP DUP2 ADD SWAP1 PUSH2 0x25B9 SWAP2 SWAP1 PUSH2 0x50FC JUMP JUMPDEST SWAP1 POP DUP1 PUSH1 0xA0 ADD MLOAD PUSH2 0x25FF JUMPI PUSH1 0x40 MLOAD PUSH32 0x8C379A000000000000000000000000000000000000000000000000000000000 DUP2 MSTORE PUSH1 0x4 ADD PUSH2 0x25F6 SWAP1 PUSH2 0x518D JUMP JUMPDEST PUSH1 0x40 MLOAD DUP1 SWAP2 SUB SWAP1 REVERT JUMPDEST DUP1 PUSH1 0x60 ADD MLOAD PUSH20 0xFFFFFFFFFFFFFFFFFFFFFFFFFFFFFFFFFFFFFFFF AND CALLER PUSH20 0xFFFFFFFFFFFFFFFFFFFFFFFFFFFFFFFFFFFFFFFF AND EQ PUSH2 0x2671 JUMPI PUSH1 0x40 MLOAD PUSH32 0x8C379A000000000000000000000000000000000000000000000000000000000 DUP2 MSTORE PUSH1 0x4 ADD PUSH2 0x2668 SWAP1 PUSH2 0x51F5 JUMP JUMPDEST PUSH1 0x40 MLOAD DUP1 SWAP2 SUB SWAP1 REVERT JUMPDEST PUSH2 0x2679 PUSH2 0x29F4 JUMP JUMPDEST PUSH0 PUSH1 0xD PUSH0 DUP7 DUP2 MSTORE PUSH1 0x20 ADD SWAP1 DUP2 MSTORE PUSH1 0x20 ADD PUSH0 KECCAK256 SWAP1 POP PUSH1 0x3 DUP1 DUP2 GT ISZERO PUSH2 0x26A0 JUMPI PUSH2 0x269F PUSH2 0x4287 JUMP JUMPDEST JUMPDEST DUP2 PUSH1 0x3 ADD PUSH0 SWAP1 SLOAD SWAP1 PUSH2 0x100 EXP SWAP1 DIV PUSH1 0xFF AND PUSH1 0x3 DUP2 GT ISZERO PUSH2 0x26C3 JUMPI PUSH2 0x26C2 PUSH2 0x4287 JUMP JUMPDEST JUMPDEST EQ PUSH2 0x2703 JUMPI PUSH1 0x40 MLOAD PUSH32 0x8C379A000000000000000000000000000000000000000000000000000000000 DUP2 MSTORE PUSH1 0x4 ADD PUSH2 0x26FA SWAP1 PUSH2 0x5322 JUMP JUMPDEST PUSH1 0x40 MLOAD DUP1 SWAP2 SUB SWAP1 REVERT JUMPDEST PUSH2 0x270D PUSH1 0x7 PUSH2 0x328F JUMP JUMPDEST PUSH0 PUSH2 0x2718 PUSH1 0x7 PUSH2 0x32A3 JUMP JUMPDEST SWAP1 POP PUSH2 0x2747 DUP3 PUSH1 0x1 ADD PUSH0 SWAP1 SLOAD SWAP1 PUSH2 0x100 EXP SWAP1 DIV PUSH20 0xFFFFFFFFFFFFFFFFFFFFFFFFFFFFFFFFFFFFFFFF AND DUP3 PUSH2 0x32AF JUMP JUMPDEST PUSH1 0x40 MLOAD DUP1 PUSH1 0xC0 ADD PUSH1 0x40 MSTORE DUP1 DUP3 DUP2 MSTORE PUSH1 0x20 ADD DUP8 DUP2 MSTORE PUSH1 0x20 ADD DUP4 PUSH1 0x1 ADD PUSH0 SWAP1 SLOAD SWAP1 PUSH2 0x100 EXP SWAP1 DIV PUSH20 0xFFFFFFFFFFFFFFFFFFFFFFFFFFFFFFFFFFFFFFFF AND PUSH20 0xFFFFFFFFFFFFFFFFFFFFFFFFFFFFFFFFFFFFFFFF AND DUP2 MSTORE PUSH1 0x20 ADD DUP4 PUSH1 0x2 ADD DUP1 SLOAD PUSH2 0x27AC SWAP1 PUSH2 0x4604 JUMP JUMPDEST DUP1 PUSH1 0x1F ADD PUSH1 0x20 DUP1 SWAP2 DIV MUL PUSH1 0x20 ADD PUSH1 0x40 MLOAD SWAP1 DUP2 ADD PUSH1 0x40 MSTORE DUP1 SWAP3 SWAP2 SWAP1 DUP2 DUP2 MSTORE PUSH1 0x20 ADD DUP3 DUP1 SLOAD PUSH2 0x27D8 SWAP1 PUSH2 0x4604 JUMP JUMPDEST DUP1 ISZERO PUSH2 0x2823 JUMPI DUP1 PUSH1 0x1F LT PUSH2 0x27FA JUMPI PUSH2 0x100 DUP1 DUP4 SLOAD DIV MUL DUP4 MSTORE SWAP2 PUSH1 0x20 ADD SWAP2 PUSH2 0x2823 JUMP JUMPDEST DUP3 ADD SWAP2 SWAP1 PUSH0 MSTORE PUSH1 0x20 PUSH0 KECCAK256 SWAP1 JUMPDEST DUP2 SLOAD DUP2 MSTORE SWAP1 PUSH1 0x1 ADD SWAP1 PUSH1 0x20 ADD DUP1 DUP4 GT PUSH2 0x2806 JUMPI DUP3 SWAP1 SUB PUSH1 0x1F AND DUP3 ADD SWAP2 JUMPDEST POP POP POP POP POP DUP2 MSTORE PUSH1 0x20 ADD PUSH0 ISZERO ISZERO DUP2 MSTORE PUSH1 0x20 ADD TIMESTAMP DUP2 MSTORE POP PUSH1 0xC PUSH0 DUP4 DUP2 MSTORE PUSH1 0x20 ADD SWAP1 DUP2 MSTORE PUSH1 0x20 ADD PUSH0 KECCAK256 PUSH0 DUP3 ADD MLOAD DUP2 PUSH0 ADD SSTORE PUSH1 0x20 DUP3 ADD MLOAD DUP2 PUSH1 0x1 ADD SSTORE PUSH1 0x40 DUP3 ADD MLOAD DUP2 PUSH1 0x2 ADD PUSH0 PUSH2 0x100 EXP DUP2 SLOAD DUP2 PUSH20 0xFFFFFFFFFFFFFFFFFFFFFFFFFFFFFFFFFFFFFFFF MUL NOT AND SWAP1 DUP4 PUSH20 0xFFFFFFFFFFFFFFFFFFFFFFFFFFFFFFFFFFFFFFFF AND MUL OR SWAP1 SSTORE POP PUSH1 0x60 DUP3 ADD MLOAD DUP2 PUSH1 0x3 ADD SWAP1 DUP2 PUSH2 0x28B7 SWAP2 SWAP1 PUSH2 0x4F2E JUMP JUMPDEST POP PUSH1 0x80 DUP3 ADD MLOAD DUP2 PUSH1 0x4 ADD PUSH0 PUSH2 0x100 EXP DUP2 SLOAD DUP2 PUSH1 0xFF MUL NOT AND SWAP1 DUP4 ISZERO ISZERO MUL OR SWAP1 SSTORE POP PUSH1 0xA0 DUP3 ADD MLOAD DUP2 PUSH1 0x5 ADD SSTORE SWAP1 POP POP PUSH2 0x28FE PUSH1 0xB PUSH0 DUP9 DUP2 MSTORE PUSH1 0x20 ADD SWAP1 DUP2 MSTORE PUSH1 0x20 ADD PUSH0 KECCAK256 DUP8 PUSH2 0x2A3E JUMP JUMPDEST PUSH1 0x1 PUSH1 0xE PUSH0 DUP9 DUP2 MSTORE PUSH1 0x20 ADD SWAP1 DUP2 MSTORE PUSH1 0x20 ADD PUSH0 KECCAK256 PUSH0 PUSH2 0x100 EXP DUP2 SLOAD DUP2 PUSH1 0xFF MUL NOT AND SWAP1 DUP4 ISZERO ISZERO MUL OR SWAP1 SSTORE POP PUSH2 0x2955 DUP2 DUP8 DUP5 PUSH1 0x1 ADD PUSH0 SWAP1 SLOAD SWAP1 PUSH2 0x100 EXP SWAP1 DIV PUSH20 0xFFFFFFFFFFFFFFFFFFFFFFFFFFFFFFFFFFFFFFFF AND PUSH2 0x32CC JUMP JUMPDEST DUP6 DUP2 PUSH32 0x5A49448EF5C36AF17B1AEB44AC91D414AA5CC30977940FA1A5B216F936A804D2 PUSH1 0x40 MLOAD PUSH1 0x40 MLOAD DUP1 SWAP2 SUB SWAP1 LOG3 POP POP POP POP POP POP JUMP JUMPDEST PUSH0 PUSH32 0x1FFC9A700000000000000000000000000000000000000000000000000000000 PUSH28 0xFFFFFFFFFFFFFFFFFFFFFFFFFFFFFFFFFFFFFFFFFFFFFFFFFFFFFFFF NOT AND DUP3 PUSH28 0xFFFFFFFFFFFFFFFFFFFFFFFFFFFFFFFFFFFFFFFFFFFFFFFFFFFFFFFF NOT AND EQ SWAP1 POP SWAP2 SWAP1 POP JUMP JUMPDEST PUSH2 0x29FC PUSH2 0x1484 JUMP JUMPDEST ISZERO PUSH2 0x2A3C JUMPI PUSH1 0x40 MLOAD PUSH32 0x8C379A000000000000000000000000000000000000000000000000000000000 DUP2 MSTORE PUSH1 0x4 ADD PUSH2 0x2A33 SWAP1 PUSH2 0x538A JUMP JUMPDEST PUSH1 0x40 MLOAD DUP1 SWAP2 SUB SWAP1 REVERT JUMPDEST JUMP JUMPDEST PUSH0 JUMPDEST DUP3 DUP1 SLOAD SWAP1 POP DUP2 LT ISZERO PUSH2 0x2AEF JUMPI DUP2 DUP4 DUP3 DUP2 SLOAD DUP2 LT PUSH2 0x2A60 JUMPI PUSH2 0x2A5F PUSH2 0x53A8 JUMP JUMPDEST JUMPDEST SWAP1 PUSH0 MSTORE PUSH1 0x20 PUSH0 KECCAK256 ADD SLOAD SUB PUSH2 0x2AE2 JUMPI DUP3 PUSH1 0x1 DUP5 DUP1 SLOAD SWAP1 POP PUSH2 0x2A80 SWAP2 SWAP1 PUSH2 0x5402 JUMP JUMPDEST DUP2 SLOAD DUP2 LT PUSH2 0x2A91 JUMPI PUSH2 0x2A90 PUSH2 0x53A8 JUMP JUMPDEST JUMPDEST SWAP1 PUSH0 MSTORE PUSH1 0x20 PUSH0 KECCAK256 ADD SLOAD DUP4 DUP3 DUP2 SLOAD DUP2 LT PUSH2 0x2AAD JUMPI PUSH2 0x2AAC PUSH2 0x53A8 JUMP JUMPDEST JUMPDEST SWAP1 PUSH0 MSTORE PUSH1 0x20 PUSH0 KECCAK256 ADD DUP2 SWAP1 SSTORE POP DUP3 DUP1 SLOAD DUP1 PUSH2 0x2ACA JUMPI PUSH2 0x2AC9 PUSH2 0x5435 JUMP JUMPDEST JUMPDEST PUSH1 0x1 SWAP1 SUB DUP2 DUP2 SWAP1 PUSH0 MSTORE PUSH1 0x20 PUSH0 KECCAK256 ADD PUSH0 SWAP1 SSTORE SWAP1 SSTORE PUSH2 0x2AEF JUMP JUMPDEST DUP1 DUP1 PUSH1 0x1 ADD SWAP2 POP POP PUSH2 0x2A40 JUMP JUMPDEST POP POP POP JUMP JUMPDEST PUSH0 DUP1 PUSH2 0x2AFF DUP4 PUSH2 0x3664 JUMP JUMPDEST SWAP1 POP PUSH0 PUSH20 0xFFFFFFFFFFFFFFFFFFFFFFFFFFFFFFFFFFFFFFFF AND DUP2 PUSH20 0xFFFFFFFFFFFFFFFFFFFFFFFFFFFFFFFFFFFFFFFF AND SUB PUSH2 0x2B71 JUMPI DUP3 PUSH1 0x40 MLOAD PUSH32 0x7E27328900000000000000000000000000000000000000000000000000000000 DUP2 MSTORE PUSH1 0x4 ADD PUSH2 0x2B68 SWAP2 SWAP1 PUSH2 0x4194 JUMP JUMPDEST PUSH1 0x40 MLOAD DUP1 SWAP2 SUB SWAP1 REVERT JUMPDEST DUP1 SWAP2 POP POP SWAP2 SWAP1 POP JUMP JUMPDEST PUSH0 PUSH1 0x4 PUSH0 DUP4 DUP2 MSTORE PUSH1 0x20 ADD SWAP1 DUP2 MSTORE PUSH1 0x20 ADD PUSH0 KECCAK256 PUSH0 SWAP1 SLOAD SWAP1 PUSH2 0x100 EXP SWAP1 DIV PUSH20 0xFFFFFFFFFFFFFFFFFFFFFFFFFFFFFFFFFFFFFFFF AND SWAP1 POP SWAP2 SWAP1 POP JUMP JUMPDEST PUSH0 CALLER SWAP1 POP SWAP1 JUMP JUMPDEST PUSH2 0x2BC7 DUP4 DUP4 DUP4 PUSH1 0x1 PUSH2 0x369D JUMP JUMPDEST POP POP POP JUMP JUMPDEST PUSH0 DUP1 PUSH2 0x2BD7 DUP5 PUSH2 0x3664 JUMP JUMPDEST SWAP1 POP PUSH0 PUSH20 0xFFFFFFFFFFFFFFFFFFFFFFFFFFFFFFFFFFFFFFFF AND DUP4 PUSH20 0xFFFFFFFFFFFFFFFFFFFFFFFFFFFFFFFFFFFFFFFF AND EQ PUSH2 0x2C18 JUMPI PUSH2 0x2C17 DUP2 DUP5 DUP7 PUSH2 0x385C JUMP JUMPDEST JUMPDEST PUSH0 PUSH20 0xFFFFFFFFFFFFFFFFFFFFFFFFFFFFFFFFFFFFFFFF AND DUP2 PUSH20 0xFFFFFFFFFFFFFFFFFFFFFFFFFFFFFFFFFFFFFFFF AND EQ PUSH2 0x2CA3 JUMPI PUSH2 0x2C57 PUSH0 DUP6 PUSH0 DUP1 PUSH2 0x369D JUMP JUMPDEST PUSH1 0x1 PUSH1 0x3 PUSH0 DUP4 PUSH20 0xFFFFFFFFFFFFFFFFFFFFFFFFFFFFFFFFFFFFFFFF AND PUSH20 0xFFFFFFFFFFFFFFFFFFFFFFFFFFFFFFFFFFFFFFFF AND DUP2 MSTORE PUSH1 0x20 ADD SWAP1 DUP2 MSTORE PUSH1 0x20 ADD PUSH0 KECCAK256 PUSH0 DUP3 DUP3 SLOAD SUB SWAP3 POP POP DUP2 SWAP1 SSTORE POP JUMPDEST PUSH0 PUSH20 0xFFFFFFFFFFFFFFFFFFFFFFFFFFFFFFFFFFFFFFFF AND DUP6 PUSH20 0xFFFFFFFFFFFFFFFFFFFFFFFFFFFFFFFFFFFFFFFF AND EQ PUSH2 0x2D22 JUMPI PUSH1 0x1 PUSH1 0x3 PUSH0 DUP8 PUSH20 0xFFFFFFFFFFFFFFFFFFFFFFFFFFFFFFFFFFFFFFFF AND PUSH20 0xFFFFFFFFFFFFFFFFFFFFFFFFFFFFFFFFFFFFFFFF AND DUP2 MSTORE PUSH1 0x20 ADD SWAP1 DUP2 MSTORE PUSH1 0x20 ADD PUSH0 KECCAK256 PUSH0 DUP3 DUP3 SLOAD ADD SWAP3 POP POP DUP2 SWAP1 SSTORE POP JUMPDEST DUP5 PUSH1 0x2 PUSH0 DUP7 DUP2 MSTORE PUSH1 0x20 ADD SWAP1 DUP2 MSTORE PUSH1 0x20 ADD PUSH0 KECCAK256 PUSH0 PUSH2 0x100 EXP DUP2 SLOAD DUP2 PUSH20 0xFFFFFFFFFFFFFFFFFFFFFFFFFFFFFFFFFFFFFFFF MUL NOT AND SWAP1 DUP4 PUSH20 0xFFFFFFFFFFFFFFFFFFFFFFFFFFFFFFFFFFFFFFFF AND MUL OR SWAP1 SSTORE POP DUP4 DUP6 PUSH20 0xFFFFFFFFFFFFFFFFFFFFFFFFFFFFFFFFFFFFFFFF AND DUP3 PUSH20 0xFFFFFFFFFFFFFFFFFFFFFFFFFFFFFFFFFFFFFFFF AND PUSH32 0xDDF252AD1BE2C89B69C2B068FC378DAA952BA7F163C4A11628F55A4DF523B3EF PUSH1 0x40 MLOAD PUSH1 0x40 MLOAD DUP1 SWAP2 SUB SWAP1 LOG4 DUP1 SWAP2 POP POP SWAP4 SWAP3 POP POP POP JUMP JUMPDEST PUSH2 0x2DDF PUSH2 0x391F JUMP JUMPDEST PUSH0 PUSH1 0x6 PUSH0 PUSH2 0x100 EXP DUP2 SLOAD DUP2 PUSH1 0xFF MUL NOT AND SWAP1 DUP4 ISZERO ISZERO MUL OR SWAP1 SSTORE POP PUSH32 0x5DB9EE0A495BF2E6FF9C91A7834C1BA4FDD244A5E8AA4E537BD38AEAE4B073AA PUSH2 0x2E21 PUSH2 0x2BB3 JUMP JUMPDEST PUSH1 0x40 MLOAD PUSH2 0x2E2E SWAP2 SWAP1 PUSH2 0x3EF4 JUMP JUMPDEST PUSH1 0x40 MLOAD DUP1 SWAP2 SUB SWAP1 LOG1 JUMP JUMPDEST PUSH2 0x2E40 PUSH2 0x29F4 JUMP JUMPDEST PUSH1 0x1 PUSH1 0x6 PUSH0 PUSH2 0x100 EXP DUP2 SLOAD DUP2 PUSH1 0xFF MUL NOT AND SWAP1 DUP4 ISZERO ISZERO MUL OR SWAP1 SSTORE POP PUSH32 0x62E78CEA01BEE320CD4E420270B5EA74000D11B0C9F74754EBDBFC544B05A258 PUSH2 0x2E83 PUSH2 0x2BB3 JUMP JUMPDEST PUSH1 0x40 MLOAD PUSH2 0x2E90 SWAP2 SWAP1 PUSH2 0x3EF4 JUMP JUMPDEST PUSH1 0x40 MLOAD DUP1 SWAP2 SUB SWAP1 LOG1 JUMP JUMPDEST PUSH0 PUSH20 0xFFFFFFFFFFFFFFFFFFFFFFFFFFFFFFFFFFFFFFFF AND DUP3 PUSH20 0xFFFFFFFFFFFFFFFFFFFFFFFFFFFFFFFFFFFFFFFF AND SUB PUSH2 0x2F0A JUMPI DUP2 PUSH1 0x40 MLOAD PUSH32 0x5B08BA1800000000000000000000000000000000000000000000000000000000 DUP2 MSTORE PUSH1 0x4 ADD PUSH2 0x2F01 SWAP2 SWAP1 PUSH2 0x3EF4 JUMP JUMPDEST PUSH1 0x40 MLOAD DUP1 SWAP2 SUB SWAP1 REVERT JUMPDEST DUP1 PUSH1 0x5 PUSH0 DUP6 PUSH20 0xFFFFFFFFFFFFFFFFFFFFFFFFFFFFFFFFFFFFFFFF AND PUSH20 0xFFFFFFFFFFFFFFFFFFFFFFFFFFFFFFFFFFFFFFFF AND DUP2 MSTORE PUSH1 0x20 ADD SWAP1 DUP2 MSTORE PUSH1 0x20 ADD PUSH0 KECCAK256 PUSH0 DUP5 PUSH20 0xFFFFFFFFFFFFFFFFFFFFFFFFFFFFFFFFFFFFFFFF AND PUSH20 0xFFFFFFFFFFFFFFFFFFFFFFFFFFFFFFFFFFFFFFFF AND DUP2 MSTORE PUSH1 0x20 ADD SWAP1 DUP2 MSTORE PUSH1 0x20 ADD PUSH0 KECCAK256 PUSH0 PUSH2 0x100 EXP DUP2 SLOAD DUP2 PUSH1 0xFF MUL NOT AND SWAP1 DUP4 ISZERO ISZERO MUL OR SWAP1 SSTORE POP DUP2 PUSH20 0xFFFFFFFFFFFFFFFFFFFFFFFFFFFFFFFFFFFFFFFF AND DUP4 PUSH20 0xFFFFFFFFFFFFFFFFFFFFFFFFFFFFFFFFFFFFFFFF AND PUSH32 0x17307EAB39AB6107E8899845AD3D59BD9653F200F220920489CA2B5937696C31 DUP4 PUSH1 0x40 MLOAD PUSH2 0x2FF6 SWAP2 SWAP1 PUSH2 0x3DCD JUMP JUMPDEST PUSH1 0x40 MLOAD DUP1 SWAP2 SUB SWAP1 LOG3 POP POP POP JUMP JUMPDEST PUSH0 DUP4 PUSH20 0xFFFFFFFFFFFFFFFFFFFFFFFFFFFFFFFFFFFFFFFF AND EXTCODESIZE GT ISZERO PUSH2 0x31A8 JUMPI DUP3 PUSH20 0xFFFFFFFFFFFFFFFFFFFFFFFFFFFFFFFFFFFFFFFF AND PUSH4 0x150B7A02 DUP7 DUP7 DUP6 DUP6 PUSH1 0x40 MLOAD DUP6 PUSH4 0xFFFFFFFF AND PUSH1 0xE0 SHL DUP2 MSTORE PUSH1 0x4 ADD PUSH2 0x3061 SWAP5 SWAP4 SWAP3 SWAP2 SWAP1 PUSH2 0x54B4 JUMP JUMPDEST PUSH1 0x20 PUSH1 0x40 MLOAD DUP1 DUP4 SUB DUP2 PUSH0 DUP8 GAS CALL SWAP3 POP POP POP DUP1 ISZERO PUSH2 0x309C JUMPI POP PUSH1 0x40 MLOAD RETURNDATASIZE PUSH1 0x1F NOT PUSH1 0x1F DUP3 ADD AND DUP3 ADD DUP1 PUSH1 0x40 MSTORE POP DUP2 ADD SWAP1 PUSH2 0x3099 SWAP2 SWAP1 PUSH2 0x5512 JUMP JUMPDEST PUSH1 0x1 JUMPDEST PUSH2 0x311D JUMPI RETURNDATASIZE DUP1 PUSH0 DUP2 EQ PUSH2 0x30CA JUMPI PUSH1 0x40 MLOAD SWAP2 POP PUSH1 0x1F NOT PUSH1 0x3F RETURNDATASIZE ADD AND DUP3 ADD PUSH1 0x40 MSTORE RETURNDATASIZE DUP3 MSTORE RETURNDATASIZE PUSH0 PUSH1 0x20 DUP5 ADD RETURNDATACOPY PUSH2 0x30CF JUMP JUMPDEST PUSH1 0x60 SWAP2 POP JUMPDEST POP PUSH0 DUP2 MLOAD SUB PUSH2 0x3115 JUMPI DUP4 PUSH1 0x40 MLOAD PUSH32 0x64A0AE9200000000000000000000000000000000000000000000000000000000 DUP2 MSTORE PUSH1 0x4 ADD PUSH2 0x310C SWAP2 SWAP1 PUSH2 0x3EF4 JUMP JUMPDEST PUSH1 0x40 MLOAD DUP1 SWAP2 SUB SWAP1 REVERT JUMPDEST DUP1 MLOAD DUP2 PUSH1 0x20 ADD REVERT JUMPDEST PUSH4 0x150B7A02 PUSH1 0xE0 SHL PUSH28 0xFFFFFFFFFFFFFFFFFFFFFFFFFFFFFFFFFFFFFFFFFFFFFFFFFFFFFFFF NOT AND DUP2 PUSH28 0xFFFFFFFFFFFFFFFFFFFFFFFFFFFFFFFFFFFFFFFFFFFFFFFFFFFFFFFF NOT AND EQ PUSH2 0x31A6 JUMPI DUP4 PUSH1 0x40 MLOAD PUSH32 0x64A0AE9200000000000000000000000000000000000000000000000000000000 DUP2 MSTORE PUSH1 0x4 ADD PUSH2 0x319D SWAP2 SWAP1 PUSH2 0x3EF4 JUMP JUMPDEST PUSH1 0x40 MLOAD DUP1 SWAP2 SUB SWAP1 REVERT JUMPDEST POP JUMPDEST POP POP POP POP POP JUMP JUMPDEST PUSH1 0x60 PUSH1 0x40 MLOAD DUP1 PUSH1 0x20 ADD PUSH1 0x40 MSTORE DUP1 PUSH0 DUP2 MSTORE POP SWAP1 POP SWAP1 JUMP JUMPDEST PUSH1 0x60 PUSH0 PUSH1 0x1 PUSH2 0x31D3 DUP5 PUSH2 0x3968 JUMP JUMPDEST ADD SWAP1 POP PUSH0 DUP2 PUSH8 0xFFFFFFFFFFFFFFFF DUP2 GT ISZERO PUSH2 0x31F1 JUMPI PUSH2 0x31F0 PUSH2 0x438F JUMP JUMPDEST JUMPDEST PUSH1 0x40 MLOAD SWAP1 DUP1 DUP3 MSTORE DUP1 PUSH1 0x1F ADD PUSH1 0x1F NOT AND PUSH1 0x20 ADD DUP3 ADD PUSH1 0x40 MSTORE DUP1 ISZERO PUSH2 0x3223 JUMPI DUP2 PUSH1 0x20 ADD PUSH1 0x1 DUP3 MUL DUP1 CALLDATASIZE DUP4 CALLDATACOPY DUP1 DUP3 ADD SWAP2 POP POP SWAP1 POP JUMPDEST POP SWAP1 POP PUSH0 DUP3 PUSH1 0x20 ADD DUP3 ADD SWAP1 POP JUMPDEST PUSH1 0x1 ISZERO PUSH2 0x3284 JUMPI DUP1 DUP1 PUSH1 0x1 SWAP1 SUB SWAP2 POP POP PUSH32 0x3031323334353637383961626364656600000000000000000000000000000000 PUSH1 0xA DUP7 MOD BYTE DUP2 MSTORE8 PUSH1 0xA DUP6 DUP2 PUSH2 0x3279 JUMPI PUSH2 0x3278 PUSH2 0x553D JUMP JUMPDEST JUMPDEST DIV SWAP5 POP PUSH0 DUP6 SUB PUSH2 0x3230 JUMPI JUMPDEST DUP2 SWAP4 POP POP POP POP SWAP2 SWAP1 POP JUMP JUMPDEST PUSH1 0x1 DUP2 PUSH0 ADD PUSH0 DUP3 DUP3 SLOAD ADD SWAP3 POP POP DUP2 SWAP1 SSTORE POP POP JUMP JUMPDEST PUSH0 DUP2 PUSH0 ADD SLOAD SWAP1 POP SWAP2 SWAP1 POP JUMP JUMPDEST PUSH2 0x32C8 DUP3 DUP3 PUSH1 0x40 MLOAD DUP1 PUSH1 0x20 ADD PUSH1 0x40 MSTORE DUP1 PUSH0 DUP2 MSTORE POP PUSH2 0x3AB9 JUMP JUMPDEST POP POP JUMP JUMPDEST PUSH1 0xC PUSH0 DUP5 DUP2 MSTORE PUSH1 0x20 ADD SWAP1 DUP2 MSTORE PUSH1 0x20 ADD PUSH0 KECCAK256 PUSH1 0x4 ADD PUSH0 SWAP1 SLOAD SWAP1 PUSH2 0x100 EXP SWAP1 DIV PUSH1 0xFF AND ISZERO PUSH2 0x332D JUMPI PUSH1 0x40 MLOAD PUSH32 0x8C379A000000000000000000000000000000000000000000000000000000000 DUP2 MSTORE PUSH1 0x4 ADD PUSH2 0x3324 SWAP1 PUSH2 0x55B4 JUMP JUMPDEST PUSH1 0x40 MLOAD DUP1 SWAP2 SUB SWAP1 REVERT JUMPDEST PUSH0 PUSH32 0x0 PUSH20 0xFFFFFFFFFFFFFFFFFFFFFFFFFFFFFFFFFFFFFFFF AND PUSH4 0xFF91E489 DUP5 PUSH1 0x40 MLOAD DUP3 PUSH4 0xFFFFFFFF AND PUSH1 0xE0 SHL DUP2 MSTORE PUSH1 0x4 ADD PUSH2 0x3387 SWAP2 SWAP1 PUSH2 0x4194 JUMP JUMPDEST PUSH0 PUSH1 0x40 MLOAD DUP1 DUP4 SUB DUP2 DUP7 GAS STATICCALL ISZERO DUP1 ISZERO PUSH2 0x33A1 JUMPI RETURNDATASIZE PUSH0 DUP1 RETURNDATACOPY RETURNDATASIZE PUSH0 REVERT JUMPDEST POP POP POP POP PUSH1 0x40 MLOAD RETURNDATASIZE PUSH0 DUP3 RETURNDATACOPY RETURNDATASIZE PUSH1 0x1F NOT PUSH1 0x1F DUP3 ADD AND DUP3 ADD DUP1 PUSH1 0x40 MSTORE POP DUP2 ADD SWAP1 PUSH2 0x33C9 SWAP2 SWAP1 PUSH2 0x4CEB JUMP JUMPDEST SWAP1 POP PUSH0 PUSH32 0x0 PUSH20 0xFFFFFFFFFFFFFFFFFFFFFFFFFFFFFFFFFFFFFFFF AND PUSH4 0xE3FBF314 DUP4 PUSH1 0xC0 ADD MLOAD PUSH1 0x40 MLOAD DUP3 PUSH4 0xFFFFFFFF AND PUSH1 0xE0 SHL DUP2 MSTORE PUSH1 0x4 ADD PUSH2 0x3429 SWAP2 SWAP1 PUSH2 0x4194 JUMP JUMPDEST PUSH0 PUSH1 0x40 MLOAD DUP1 DUP4 SUB DUP2 DUP7 GAS STATICCALL ISZERO DUP1 ISZERO PUSH2 0x3443 JUMPI RETURNDATASIZE PUSH0 DUP1 RETURNDATACOPY RETURNDATASIZE PUSH0 REVERT JUMPDEST POP POP POP POP PUSH1 0x40 MLOAD RETURNDATASIZE PUSH0 DUP3 RETURNDATACOPY RETURNDATASIZE PUSH1 0x1F NOT PUSH1 0x1F DUP3 ADD AND DUP3 ADD DUP1 PUSH1 0x40 MSTORE POP DUP2 ADD SWAP1 PUSH2 0x346B SWAP2 SWAP1 PUSH2 0x50FC JUMP JUMPDEST SWAP1 POP PUSH0 PUSH32 0x0 PUSH20 0xFFFFFFFFFFFFFFFFFFFFFFFFFFFFFFFFFFFFFFFF AND PUSH4 0x1F741897 PUSH1 0x40 MLOAD DUP2 PUSH4 0xFFFFFFFF AND PUSH1 0xE0 SHL DUP2 MSTORE PUSH1 0x4 ADD PUSH1 0x20 PUSH1 0x40 MLOAD DUP1 DUP4 SUB DUP2 DUP7 GAS STATICCALL ISZERO DUP1 ISZERO PUSH2 0x34D7 JUMPI RETURNDATASIZE PUSH0 DUP1 RETURNDATACOPY RETURNDATASIZE PUSH0 REVERT JUMPDEST POP POP POP POP PUSH1 0x40 MLOAD RETURNDATASIZE PUSH1 0x1F NOT PUSH1 0x1F DUP3 ADD AND DUP3 ADD DUP1 PUSH1 0x40 MSTORE POP DUP2 ADD SWAP1 PUSH2 0x34FB SWAP2 SWAP1 PUSH2 0x55D2 JUMP JUMPDEST SWAP1 POP PUSH1 0x64 DUP3 PUSH1 0x80 ADD MLOAD DUP5 PUSH1 0x80 ADD MLOAD DUP4 PUSH2 0x3514 SWAP2 SWAP1 PUSH2 0x55FD JUMP JUMPDEST PUSH2 0x351E SWAP2 SWAP1 PUSH2 0x55FD JUMP JUMPDEST GT ISZERO PUSH2 0x355F JUMPI PUSH1 0x40 MLOAD PUSH32 0x8C379A000000000000000000000000000000000000000000000000000000000 DUP2 MSTORE PUSH1 0x4 ADD PUSH2 0x3556 SWAP1 PUSH2 0x567A JUMP JUMPDEST PUSH1 0x40 MLOAD DUP1 SWAP2 SUB SWAP1 REVERT JUMPDEST PUSH32 0x0 PUSH20 0xFFFFFFFFFFFFFFFFFFFFFFFFFFFFFFFFFFFFFFFF AND PUSH4 0x17BA1245 DUP8 PUSH0 DUP7 PUSH1 0x20 ADD MLOAD DUP7 PUSH1 0x60 ADD MLOAD DUP10 DUP8 DUP11 PUSH1 0x80 ADD MLOAD DUP11 PUSH1 0x80 ADD MLOAD PUSH1 0x40 MLOAD DUP10 PUSH4 0xFFFFFFFF AND PUSH1 0xE0 SHL DUP2 MSTORE PUSH1 0x4 ADD PUSH2 0x35D6 SWAP9 SWAP8 SWAP7 SWAP6 SWAP5 SWAP4 SWAP3 SWAP2 SWAP1 PUSH2 0x5698 JUMP JUMPDEST PUSH0 PUSH1 0x40 MLOAD DUP1 DUP4 SUB DUP2 PUSH0 DUP8 DUP1 EXTCODESIZE ISZERO DUP1 ISZERO PUSH2 0x35ED JUMPI PUSH0 DUP1 REVERT JUMPDEST POP GAS CALL ISZERO DUP1 ISZERO PUSH2 0x35FF JUMPI RETURNDATASIZE PUSH0 DUP1 RETURNDATACOPY RETURNDATASIZE PUSH0 REVERT JUMPDEST POP POP POP POP PUSH1 0x1 PUSH1 0xC PUSH0 DUP9 DUP2 MSTORE PUSH1 0x20 ADD SWAP1 DUP2 MSTORE PUSH1 0x20 ADD PUSH0 KECCAK256 PUSH1 0x4 ADD PUSH0 PUSH2 0x100 EXP DUP2 SLOAD DUP2 PUSH1 0xFF MUL NOT AND SWAP1 DUP4 ISZERO ISZERO MUL OR SWAP1 SSTORE POP DUP6 PUSH32 0x2DEEDE74B5D808C4427B3B6F5C19347053842F97802787BE8EDF94F1C9714E8 PUSH1 0x40 MLOAD PUSH1 0x40 MLOAD DUP1 SWAP2 SUB SWAP1 LOG2 POP POP POP POP POP POP JUMP JUMPDEST PUSH0 PUSH1 0x2 PUSH0 DUP4 DUP2 MSTORE PUSH1 0x20 ADD SWAP1 DUP2 MSTORE PUSH1 0x20 ADD PUSH0 KECCAK256 PUSH0 SWAP1 SLOAD SWAP1 PUSH2 0x100 EXP SWAP1 DIV PUSH20 0xFFFFFFFFFFFFFFFFFFFFFFFFFFFFFFFFFFFFFFFF AND SWAP1 POP SWAP2 SWAP1 POP JUMP JUMPDEST DUP1 DUP1 PUSH2 0x36D5 JUMPI POP PUSH0 PUSH20 0xFFFFFFFFFFFFFFFFFFFFFFFFFFFFFFFFFFFFFFFF AND DUP3 PUSH20 0xFFFFFFFFFFFFFFFFFFFFFFFFFFFFFFFFFFFFFFFF AND EQ ISZERO JUMPDEST ISZERO PUSH2 0x3807 JUMPI PUSH0 PUSH2 0x36E4 DUP5 PUSH2 0x2AF4 JUMP JUMPDEST SWAP1 POP PUSH0 PUSH20 0xFFFFFFFFFFFFFFFFFFFFFFFFFFFFFFFFFFFFFFFF AND DUP4 PUSH20 0xFFFFFFFFFFFFFFFFFFFFFFFFFFFFFFFFFFFFFFFF AND EQ ISZERO DUP1 ISZERO PUSH2 0x374E JUMPI POP DUP3 PUSH20 0xFFFFFFFFFFFFFFFFFFFFFFFFFFFFFFFFFFFFFFFF AND DUP2 PUSH20 0xFFFFFFFFFFFFFFFFFFFFFFFFFFFFFFFFFFFFFFFF AND EQ ISZERO JUMPDEST DUP1 ISZERO PUSH2 0x3761 JUMPI POP PUSH2 0x375F DUP2 DUP5 PUSH2 0x23A8 JUMP JUMPDEST ISZERO JUMPDEST ISZERO PUSH2 0x37A3 JUMPI DUP3 PUSH1 0x40 MLOAD PUSH32 0xA9FBF51F00000000000000000000000000000000000000000000000000000000 DUP2 MSTORE PUSH1 0x4 ADD PUSH2 0x379A SWAP2 SWAP1 PUSH2 0x3EF4 JUMP JUMPDEST PUSH1 0x40 MLOAD DUP1 SWAP2 SUB SWAP1 REVERT JUMPDEST DUP2 ISZERO PUSH2 0x3805 JUMPI DUP4 DUP6 PUSH20 0xFFFFFFFFFFFFFFFFFFFFFFFFFFFFFFFFFFFFFFFF AND DUP3 PUSH20 0xFFFFFFFFFFFFFFFFFFFFFFFFFFFFFFFFFFFFFFFF AND PUSH32 0x8C5BE1E5EBEC7D5BD14F71427D1E84F3DD0314C0F7B2291E5B200AC8C7C3B925 PUSH1 0x40 MLOAD PUSH1 0x40 MLOAD DUP1 SWAP2 SUB SWAP1 LOG4 JUMPDEST POP JUMPDEST DUP4 PUSH1 0x4 PUSH0 DUP6 DUP2 MSTORE PUSH1 0x20 ADD SWAP1 DUP2 MSTORE PUSH1 0x20 ADD PUSH0 KECCAK256 PUSH0 PUSH2 0x100 EXP DUP2 SLOAD DUP2 PUSH20 0xFFFFFFFFFFFFFFFFFFFFFFFFFFFFFFFFFFFFFFFF MUL NOT AND SWAP1 DUP4 PUSH20 0xFFFFFFFFFFFFFFFFFFFFFFFFFFFFFFFFFFFFFFFF AND MUL OR SWAP1 SSTORE POP POP POP POP POP JUMP JUMPDEST PUSH2 0x3867 DUP4 DUP4 DUP4 PUSH2 0x3ADC JUMP JUMPDEST PUSH2 0x391A JUMPI PUSH0 PUSH20 0xFFFFFFFFFFFFFFFFFFFFFFFFFFFFFFFFFFFFFFFF AND DUP4 PUSH20 0xFFFFFFFFFFFFFFFFFFFFFFFFFFFFFFFFFFFFFFFF AND SUB PUSH2 0x38DB JUMPI DUP1 PUSH1 0x40 MLOAD PUSH32 0x7E27328900000000000000000000000000000000000000000000000000000000 DUP2 MSTORE PUSH1 0x4 ADD PUSH2 0x38D2 SWAP2 SWAP1 PUSH2 0x4194 JUMP JUMPDEST PUSH1 0x40 MLOAD DUP1 SWAP2 SUB SWAP1 REVERT JUMPDEST DUP2 DUP2 PUSH1 0x40 MLOAD PUSH32 0x177E802F00000000000000000000000000000000000000000000000000000000 DUP2 MSTORE PUSH1 0x4 ADD PUSH2 0x3911 SWAP3 SWAP2 SWAP1 PUSH2 0x5714 JUMP JUMPDEST PUSH1 0x40 MLOAD DUP1 SWAP2 SUB SWAP1 REVERT JUMPDEST POP POP POP JUMP JUMPDEST PUSH2 0x3927 PUSH2 0x1484 JUMP JUMPDEST PUSH2 0x3966 JUMPI PUSH1 0x40 MLOAD PUSH32 0x8C379A000000000000000000000000000000000000000000000000000000000 DUP2 MSTORE PUSH1 0x4 ADD PUSH2 0x395D SWAP1 PUSH2 0x5785 JUMP JUMPDEST PUSH1 0x40 MLOAD DUP1 SWAP2 SUB SWAP1 REVERT JUMPDEST JUMP JUMPDEST PUSH0 DUP1 PUSH0 SWAP1 POP PUSH27 0x184F03E93FF9F4DAA797ED6E38ED64BF6A1F010000000000000000 DUP4 LT PUSH2 0x39C4 JUMPI PUSH27 0x184F03E93FF9F4DAA797ED6E38ED64BF6A1F010000000000000000 DUP4 DUP2 PUSH2 0x39BA JUMPI PUSH2 0x39B9 PUSH2 0x553D JUMP JUMPDEST JUMPDEST DIV SWAP3 POP PUSH1 0x40 DUP2 ADD SWAP1 POP JUMPDEST PUSH14 0x4EE2D6D415B85ACEF8100000000 DUP4 LT PUSH2 0x3A01 JUMPI PUSH14 0x4EE2D6D415B85ACEF8100000000 DUP4 DUP2 PUSH2 0x39F7 JUMPI PUSH2 0x39F6 PUSH2 0x553D JUMP JUMPDEST JUMPDEST DIV SWAP3 POP PUSH1 0x20 DUP2 ADD SWAP1 POP JUMPDEST PUSH7 0x2386F26FC10000 DUP4 LT PUSH2 0x3A30 JUMPI PUSH7 0x2386F26FC10000 DUP4 DUP2 PUSH2 0x3A26 JUMPI PUSH2 0x3A25 PUSH2 0x553D JUMP JUMPDEST JUMPDEST DIV SWAP3 POP PUSH1 0x10 DUP2 ADD SWAP1 POP JUMPDEST PUSH4 0x5F5E100 DUP4 LT PUSH2 0x3A59 JUMPI PUSH4 0x5F5E100 DUP4 DUP2 PUSH2 0x3A4F JUMPI PUSH2 0x3A4E PUSH2 0x553D JUMP JUMPDEST JUMPDEST DIV SWAP3 POP PUSH1 0x8 DUP2 ADD SWAP1 POP JUMPDEST PUSH2 0x2710 DUP4 LT PUSH2 0x3A7E JUMPI PUSH2 0x2710 DUP4 DUP2 PUSH2 0x3A74 JUMPI PUSH2 0x3A73 PUSH2 0x553D JUMP JUMPDEST JUMPDEST DIV SWAP3 POP PUSH1 0x4 DUP2 ADD SWAP1 POP JUMPDEST PUSH1 0x64 DUP4 LT PUSH2 0x3AA1 JUMPI PUSH1 0x64 DUP4 DUP2 PUSH2 0x3A97 JUMPI PUSH2 0x3A96 PUSH2 0x553D JUMP JUMPDEST JUMPDEST DIV SWAP3 POP PUSH1 0x2 DUP2 ADD SWAP1 POP JUMPDEST PUSH1 0xA DUP4 LT PUSH2 0x3AB0 JUMPI PUSH1 0x1 DUP2 ADD SWAP1 POP JUMPDEST DUP1 SWAP2 POP POP SWAP2 SWAP1 POP JUMP JUMPDEST PUSH2 0x3AC3 DUP4 DUP4 PUSH2 0x3B9C JUMP JUMPDEST PUSH2 0x3AD7 PUSH2 0x3ACE PUSH2 0x2BB3 JUMP JUMPDEST PUSH0 DUP6 DUP6 DUP6 PUSH2 0x3003 JUMP JUMPDEST POP POP POP JUMP JUMPDEST PUSH0 DUP1 PUSH20 0xFFFFFFFFFFFFFFFFFFFFFFFFFFFFFFFFFFFFFFFF AND DUP4 PUSH20 0xFFFFFFFFFFFFFFFFFFFFFFFFFFFFFFFFFFFFFFFF AND EQ ISZERO DUP1 ISZERO PUSH2 0x3B93 JUMPI POP DUP3 PUSH20 0xFFFFFFFFFFFFFFFFFFFFFFFFFFFFFFFFFFFFFFFF AND DUP5 PUSH20 0xFFFFFFFFFFFFFFFFFFFFFFFFFFFFFFFFFFFFFFFF AND EQ DUP1 PUSH2 0x3B54 JUMPI POP PUSH2 0x3B53 DUP5 DUP5 PUSH2 0x23A8 JUMP JUMPDEST JUMPDEST DUP1 PUSH2 0x3B92 JUMPI POP DUP3 PUSH20 0xFFFFFFFFFFFFFFFFFFFFFFFFFFFFFFFFFFFFFFFF AND PUSH2 0x3B7A DUP4 PUSH2 0x2B7A JUMP JUMPDEST PUSH20 0xFFFFFFFFFFFFFFFFFFFFFFFFFFFFFFFFFFFFFFFF AND EQ JUMPDEST JUMPDEST SWAP1 POP SWAP4 SWAP3 POP POP POP JUMP JUMPDEST PUSH0 PUSH20 0xFFFFFFFFFFFFFFFFFFFFFFFFFFFFFFFFFFFFFFFF AND DUP3 PUSH20 0xFFFFFFFFFFFFFFFFFFFFFFFFFFFFFFFFFFFFFFFF AND SUB PUSH2 0x3C0C JUMPI PUSH0 PUSH1 0x40 MLOAD PUSH32 0x64A0AE9200000000000000000000000000000000000000000000000000000000 DUP2 MSTORE PUSH1 0x4 ADD PUSH2 0x3C03 SWAP2 SWAP1 PUSH2 0x3EF4 JUMP JUMPDEST PUSH1 0x40 MLOAD DUP1 SWAP2 SUB SWAP1 REVERT JUMPDEST PUSH0 PUSH2 0x3C18 DUP4 DUP4 PUSH0 PUSH2 0x2BCC JUMP JUMPDEST SWAP1 POP PUSH0 PUSH20 0xFFFFFFFFFFFFFFFFFFFFFFFFFFFFFFFFFFFFFFFF AND DUP2 PUSH20 0xFFFFFFFFFFFFFFFFFFFFFFFFFFFFFFFFFFFFFFFF AND EQ PUSH2 0x3C8A JUMPI PUSH0 PUSH1 0x40 MLOAD PUSH32 0x73C6AC6E00000000000000000000000000000000000000000000000000000000 DUP2 MSTORE PUSH1 0x4 ADD PUSH2 0x3C81 SWAP2 SWAP1 PUSH2 0x3EF4 JUMP JUMPDEST PUSH1 0x40 MLOAD DUP1 SWAP2 SUB SWAP1 REVERT JUMPDEST POP POP POP JUMP JUMPDEST PUSH0 PUSH20 0xFFFFFFFFFFFFFFFFFFFFFFFFFFFFFFFFFFFFFFFF DUP3 AND SWAP1 POP SWAP2 SWAP1 POP JUMP JUMPDEST PUSH0 DUP2 SWAP1 POP SWAP2 SWAP1 POP JUMP JUMPDEST PUSH0 PUSH2 0x3CD1 PUSH2 0x3CCC PUSH2 0x3CC7 DUP5 PUSH2 0x3C8F JUMP JUMPDEST PUSH2 0x3CAE JUMP JUMPDEST PUSH2 0x3C8F JUMP JUMPDEST SWAP1 POP SWAP2 SWAP1 POP JUMP JUMPDEST PUSH0 PUSH2 0x3CE2 DUP3 PUSH2 0x3CB7 JUMP JUMPDEST SWAP1 POP SWAP2 SWAP1 POP JUMP JUMPDEST PUSH0 PUSH2 0x3CF3 DUP3 PUSH2 0x3CD8 JUMP JUMPDEST SWAP1 POP SWAP2 SWAP1 POP JUMP JUMPDEST PUSH2 0x3D03 DUP2 PUSH2 0x3CE9 JUMP JUMPDEST DUP3 MSTORE POP POP JUMP JUMPDEST PUSH0 PUSH1 0x20 DUP3 ADD SWAP1 POP PUSH2 0x3D1C PUSH0 DUP4 ADD DUP5 PUSH2 0x3CFA JUMP JUMPDEST SWAP3 SWAP2 POP POP JUMP JUMPDEST PUSH0 PUSH1 0x40 MLOAD SWAP1 POP SWAP1 JUMP JUMPDEST PUSH0 DUP1 REVERT JUMPDEST PUSH0 DUP1 REVERT JUMPDEST PUSH0 PUSH32 0xFFFFFFFF00000000000000000000000000000000000000000000000000000000 DUP3 AND SWAP1 POP SWAP2 SWAP1 POP JUMP JUMPDEST PUSH2 0x3D67 DUP2 PUSH2 0x3D33 JUMP JUMPDEST DUP2 EQ PUSH2 0x3D71 JUMPI PUSH0 DUP1 REVERT JUMPDEST POP JUMP JUMPDEST PUSH0 DUP2 CALLDATALOAD SWAP1 POP PUSH2 0x3D82 DUP2 PUSH2 0x3D5E JUMP JUMPDEST SWAP3 SWAP2 POP POP JUMP JUMPDEST PUSH0 PUSH1 0x20 DUP3 DUP5 SUB SLT ISZERO PUSH2 0x3D9D JUMPI PUSH2 0x3D9C PUSH2 0x3D2B JUMP JUMPDEST JUMPDEST PUSH0 PUSH2 0x3DAA DUP5 DUP3 DUP6 ADD PUSH2 0x3D74 JUMP JUMPDEST SWAP2 POP POP SWAP3 SWAP2 POP POP JUMP JUMPDEST PUSH0 DUP2 ISZERO ISZERO SWAP1 POP SWAP2 SWAP1 POP JUMP JUMPDEST PUSH2 0x3DC7 DUP2 PUSH2 0x3DB3 JUMP JUMPDEST DUP3 MSTORE POP POP JUMP JUMPDEST PUSH0 PUSH1 0x20 DUP3 ADD SWAP1 POP PUSH2 0x3DE0 PUSH0 DUP4 ADD DUP5 PUSH2 0x3DBE JUMP JUMPDEST SWAP3 SWAP2 POP POP JUMP JUMPDEST PUSH0 DUP2 MLOAD SWAP1 POP SWAP2 SWAP1 POP JUMP JUMPDEST PUSH0 DUP3 DUP3 MSTORE PUSH1 0x20 DUP3 ADD SWAP1 POP SWAP3 SWAP2 POP POP JUMP JUMPDEST DUP3 DUP2 DUP4 MCOPY PUSH0 DUP4 DUP4 ADD MSTORE POP POP POP JUMP JUMPDEST PUSH0 PUSH1 0x1F NOT PUSH1 0x1F DUP4 ADD AND SWAP1 POP SWAP2 SWAP1 POP JUMP JUMPDEST PUSH0 PUSH2 0x3E28 DUP3 PUSH2 0x3DE6 JUMP JUMPDEST PUSH2 0x3E32 DUP2 DUP6 PUSH2 0x3DF0 JUMP JUMPDEST SWAP4 POP PUSH2 0x3E42 DUP2 DUP6 PUSH1 0x20 DUP7 ADD PUSH2 0x3E00 JUMP JUMPDEST PUSH2 0x3E4B DUP2 PUSH2 0x3E0E JUMP JUMPDEST DUP5 ADD SWAP2 POP POP SWAP3 SWAP2 POP POP JUMP JUMPDEST PUSH0 PUSH1 0x20 DUP3 ADD SWAP1 POP DUP2 DUP2 SUB PUSH0 DUP4 ADD MSTORE PUSH2 0x3E6E DUP2 DUP5 PUSH2 0x3E1E JUMP JUMPDEST SWAP1 POP SWAP3 SWAP2 POP POP JUMP JUMPDEST PUSH0 DUP2 SWAP1 POP SWAP2 SWAP1 POP JUMP JUMPDEST PUSH2 0x3E88 DUP2 PUSH2 0x3E76 JUMP JUMPDEST DUP2 EQ PUSH2 0x3E92 JUMPI PUSH0 DUP1 REVERT JUMPDEST POP JUMP JUMPDEST PUSH0 DUP2 CALLDATALOAD SWAP1 POP PUSH2 0x3EA3 DUP2 PUSH2 0x3E7F JUMP JUMPDEST SWAP3 SWAP2 POP POP JUMP JUMPDEST PUSH0 PUSH1 0x20 DUP3 DUP5 SUB SLT ISZERO PUSH2 0x3EBE JUMPI PUSH2 0x3EBD PUSH2 0x3D2B JUMP JUMPDEST JUMPDEST PUSH0 PUSH2 0x3ECB DUP5 DUP3 DUP6 ADD PUSH2 0x3E95 JUMP JUMPDEST SWAP2 POP POP SWAP3 SWAP2 POP POP JUMP JUMPDEST PUSH0 PUSH2 0x3EDE DUP3 PUSH2 0x3C8F JUMP JUMPDEST SWAP1 POP SWAP2 SWAP1 POP JUMP JUMPDEST PUSH2 0x3EEE DUP2 PUSH2 0x3ED4 JUMP JUMPDEST DUP3 MSTORE POP POP JUMP JUMPDEST PUSH0 PUSH1 0x20 DUP3 ADD SWAP1 POP PUSH2 0x3F07 PUSH0 DUP4 ADD DUP5 PUSH2 0x3EE5 JUMP JUMPDEST SWAP3 SWAP2 POP POP JUMP JUMPDEST PUSH2 0x3F16 DUP2 PUSH2 0x3ED4 JUMP JUMPDEST DUP2 EQ PUSH2 0x3F20 JUMPI PUSH0 DUP1 REVERT JUMPDEST POP JUMP JUMPDEST PUSH0 DUP2 CALLDATALOAD SWAP1 POP PUSH2 0x3F31 DUP2 PUSH2 0x3F0D JUMP JUMPDEST SWAP3 SWAP2 POP POP JUMP JUMPDEST PUSH0 PUSH1 0x20 DUP3 DUP5 SUB SLT ISZERO PUSH2 0x3F4C JUMPI PUSH2 0x3F4B PUSH2 0x3D2B JUMP JUMPDEST JUMPDEST PUSH0 PUSH2 0x3F59 DUP5 DUP3 DUP6 ADD PUSH2 0x3F23 JUMP JUMPDEST SWAP2 POP POP SWAP3 SWAP2 POP POP JUMP JUMPDEST PUSH0 DUP2 MLOAD SWAP1 POP SWAP2 SWAP1 POP JUMP JUMPDEST PUSH0 DUP3 DUP3 MSTORE PUSH1 0x20 DUP3 ADD SWAP1 POP SWAP3 SWAP2 POP POP JUMP JUMPDEST PUSH0 DUP2 SWAP1 POP PUSH1 0x20 DUP3 ADD SWAP1 POP SWAP2 SWAP1 POP JUMP JUMPDEST PUSH2 0x3F94 DUP2 PUSH2 0x3E76 JUMP JUMPDEST DUP3 MSTORE POP POP JUMP JUMPDEST PUSH0 PUSH2 0x3FA5 DUP4 DUP4 PUSH2 0x3F8B JUMP JUMPDEST PUSH1 0x20 DUP4 ADD SWAP1 POP SWAP3 SWAP2 POP POP JUMP JUMPDEST PUSH0 PUSH1 0x20 DUP3 ADD SWAP1 POP SWAP2 SWAP1 POP JUMP JUMPDEST PUSH0 PUSH2 0x3FC7 DUP3 PUSH2 0x3F62 JUMP JUMPDEST PUSH2 0x3FD1 DUP2 DUP6 PUSH2 0x3F6C JUMP JUMPDEST SWAP4 POP PUSH2 0x3FDC DUP4 PUSH2 0x3F7C JUMP JUMPDEST DUP1 PUSH0 JUMPDEST DUP4 DUP2 LT ISZERO PUSH2 0x400C JUMPI DUP2 MLOAD PUSH2 0x3FF3 DUP9 DUP3 PUSH2 0x3F9A JUMP JUMPDEST SWAP8 POP PUSH2 0x3FFE DUP4 PUSH2 0x3FB1 JUMP JUMPDEST SWAP3 POP POP PUSH1 0x1 DUP2 ADD SWAP1 POP PUSH2 0x3FDF JUMP JUMPDEST POP DUP6 SWAP4 POP POP POP POP SWAP3 SWAP2 POP POP JUMP JUMPDEST PUSH0 PUSH1 0x20 DUP3 ADD SWAP1 POP DUP2 DUP2 SUB PUSH0 DUP4 ADD MSTORE PUSH2 0x4031 DUP2 DUP5 PUSH2 0x3FBD JUMP JUMPDEST SWAP1 POP SWAP3 SWAP2 POP POP JUMP JUMPDEST PUSH0 DUP1 PUSH1 0x40 DUP4 DUP6 SUB SLT ISZERO PUSH2 0x404F JUMPI PUSH2 0x404E PUSH2 0x3D2B JUMP JUMPDEST JUMPDEST PUSH0 PUSH2 0x405C DUP6 DUP3 DUP7 ADD PUSH2 0x3F23 JUMP JUMPDEST SWAP3 POP POP PUSH1 0x20 PUSH2 0x406D DUP6 DUP3 DUP7 ADD PUSH2 0x3E95 JUMP JUMPDEST SWAP2 POP POP SWAP3 POP SWAP3 SWAP1 POP JUMP JUMPDEST PUSH0 DUP1 PUSH0 PUSH1 0x60 DUP5 DUP7 SUB SLT ISZERO PUSH2 0x408E JUMPI PUSH2 0x408D PUSH2 0x3D2B JUMP JUMPDEST JUMPDEST PUSH0 PUSH2 0x409B DUP7 DUP3 DUP8 ADD PUSH2 0x3F23 JUMP JUMPDEST SWAP4 POP POP PUSH1 0x20 PUSH2 0x40AC DUP7 DUP3 DUP8 ADD PUSH2 0x3F23 JUMP JUMPDEST SWAP3 POP POP PUSH1 0x40 PUSH2 0x40BD DUP7 DUP3 DUP8 ADD PUSH2 0x3E95 JUMP JUMPDEST SWAP2 POP POP SWAP3 POP SWAP3 POP SWAP3 JUMP JUMPDEST PUSH0 DUP1 REVERT JUMPDEST PUSH0 DUP1 REVERT JUMPDEST PUSH0 DUP1 REVERT JUMPDEST PUSH0 DUP1 DUP4 PUSH1 0x1F DUP5 ADD SLT PUSH2 0x40E8 JUMPI PUSH2 0x40E7 PUSH2 0x40C7 JUMP JUMPDEST JUMPDEST DUP3 CALLDATALOAD SWAP1 POP PUSH8 0xFFFFFFFFFFFFFFFF DUP2 GT ISZERO PUSH2 0x4105 JUMPI PUSH2 0x4104 PUSH2 0x40CB JUMP JUMPDEST JUMPDEST PUSH1 0x20 DUP4 ADD SWAP2 POP DUP4 PUSH1 0x1 DUP3 MUL DUP4 ADD GT ISZERO PUSH2 0x4121 JUMPI PUSH2 0x4120 PUSH2 0x40CF JUMP JUMPDEST JUMPDEST SWAP3 POP SWAP3 SWAP1 POP JUMP JUMPDEST PUSH0 DUP1 PUSH0 PUSH1 0x40 DUP5 DUP7 SUB SLT ISZERO PUSH2 0x413F JUMPI PUSH2 0x413E PUSH2 0x3D2B JUMP JUMPDEST JUMPDEST PUSH0 PUSH2 0x414C DUP7 DUP3 DUP8 ADD PUSH2 0x3E95 JUMP JUMPDEST SWAP4 POP POP PUSH1 0x20 DUP5 ADD CALLDATALOAD PUSH8 0xFFFFFFFFFFFFFFFF DUP2 GT ISZERO PUSH2 0x416D JUMPI PUSH2 0x416C PUSH2 0x3D2F JUMP JUMPDEST JUMPDEST PUSH2 0x4179 DUP7 DUP3 DUP8 ADD PUSH2 0x40D3 JUMP JUMPDEST SWAP3 POP SWAP3 POP POP SWAP3 POP SWAP3 POP SWAP3 JUMP JUMPDEST PUSH2 0x418E DUP2 PUSH2 0x3E76 JUMP JUMPDEST DUP3 MSTORE POP POP JUMP JUMPDEST PUSH0 PUSH1 0x20 DUP3 ADD SWAP1 POP PUSH2 0x41A7 PUSH0 DUP4 ADD DUP5 PUSH2 0x4185 JUMP JUMPDEST SWAP3 SWAP2 POP POP JUMP JUMPDEST PUSH0 PUSH2 0x41B7 DUP3 PUSH2 0x3CD8 JUMP JUMPDEST SWAP1 POP SWAP2 SWAP1 POP JUMP JUMPDEST PUSH2 0x41C7 DUP2 PUSH2 0x41AD JUMP JUMPDEST DUP3 MSTORE POP POP JUMP JUMPDEST PUSH0 PUSH1 0x20 DUP3 ADD SWAP1 POP PUSH2 0x41E0 PUSH0 DUP4 ADD DUP5 PUSH2 0x41BE JUMP JUMPDEST SWAP3 SWAP2 POP POP JUMP JUMPDEST PUSH0 PUSH2 0x41F0 DUP3 PUSH2 0x3CD8 JUMP JUMPDEST SWAP1 POP SWAP2 SWAP1 POP JUMP JUMPDEST PUSH2 0x4200 DUP2 PUSH2 0x41E6 JUMP JUMPDEST DUP3 MSTORE POP POP JUMP JUMPDEST PUSH0 PUSH1 0x20 DUP3 ADD SWAP1 POP PUSH2 0x4219 PUSH0 DUP4 ADD DUP5 PUSH2 0x41F7 JUMP JUMPDEST SWAP3 SWAP2 POP POP JUMP JUMPDEST PUSH2 0x4228 DUP2 PUSH2 0x3DB3 JUMP JUMPDEST DUP2 EQ PUSH2 0x4232 JUMPI PUSH0 DUP1 REVERT JUMPDEST POP JUMP JUMPDEST PUSH0 DUP2 CALLDATALOAD SWAP1 POP PUSH2 0x4243 DUP2 PUSH2 0x421F JUMP JUMPDEST SWAP3 SWAP2 POP POP JUMP JUMPDEST PUSH0 DUP1 PUSH1 0x40 DUP4 DUP6 SUB SLT ISZERO PUSH2 0x425F JUMPI PUSH2 0x425E PUSH2 0x3D2B JUMP JUMPDEST JUMPDEST PUSH0 PUSH2 0x426C DUP6 DUP3 DUP7 ADD PUSH2 0x3F23 JUMP JUMPDEST SWAP3 POP POP PUSH1 0x20 PUSH2 0x427D DUP6 DUP3 DUP7 ADD PUSH2 0x4235 JUMP JUMPDEST SWAP2 POP POP SWAP3 POP SWAP3 SWAP1 POP JUMP JUMPDEST PUSH32 0x4E487B7100000000000000000000000000000000000000000000000000000000 PUSH0 MSTORE PUSH1 0x21 PUSH1 0x4 MSTORE PUSH1 0x24 PUSH0 REVERT JUMPDEST PUSH1 0x4 DUP2 LT PUSH2 0x42C5 JUMPI PUSH2 0x42C4 PUSH2 0x4287 JUMP JUMPDEST JUMPDEST POP JUMP JUMPDEST PUSH0 DUP2 SWAP1 POP PUSH2 0x42D5 DUP3 PUSH2 0x42B4 JUMP JUMPDEST SWAP2 SWAP1 POP JUMP JUMPDEST PUSH0 PUSH2 0x42E4 DUP3 PUSH2 0x42C8 JUMP JUMPDEST SWAP1 POP SWAP2 SWAP1 POP JUMP JUMPDEST PUSH2 0x42F4 DUP2 PUSH2 0x42DA JUMP JUMPDEST DUP3 MSTORE POP POP JUMP JUMPDEST PUSH0 PUSH1 0xA0 DUP3 ADD SWAP1 POP PUSH2 0x430D PUSH0 DUP4 ADD DUP9 PUSH2 0x4185 JUMP JUMPDEST PUSH2 0x431A PUSH1 0x20 DUP4 ADD DUP8 PUSH2 0x3EE5 JUMP JUMPDEST DUP2 DUP2 SUB PUSH1 0x40 DUP4 ADD MSTORE PUSH2 0x432C DUP2 DUP7 PUSH2 0x3E1E JUMP JUMPDEST SWAP1 POP PUSH2 0x433B PUSH1 0x60 DUP4 ADD DUP6 PUSH2 0x42EB JUMP JUMPDEST PUSH2 0x4348 PUSH1 0x80 DUP4 ADD DUP5 PUSH2 0x4185 JUMP JUMPDEST SWAP7 SWAP6 POP POP POP POP POP POP JUMP JUMPDEST PUSH0 PUSH2 0x435C DUP3 PUSH2 0x3CD8 JUMP JUMPDEST SWAP1 POP SWAP2 SWAP1 POP JUMP JUMPDEST PUSH2 0x436C DUP2 PUSH2 0x4352 JUMP JUMPDEST DUP3 MSTORE POP POP JUMP JUMPDEST PUSH0 PUSH1 0x20 DUP3 ADD SWAP1 POP PUSH2 0x4385 PUSH0 DUP4 ADD DUP5 PUSH2 0x4363 JUMP JUMPDEST SWAP3 SWAP2 POP POP JUMP JUMPDEST PUSH0 DUP1 REVERT JUMPDEST PUSH32 0x4E487B7100000000000000000000000000000000000000000000000000000000 PUSH0 MSTORE PUSH1 0x41 PUSH1 0x4 MSTORE PUSH1 0x24 PUSH0 REVERT JUMPDEST PUSH2 0x43C5 DUP3 PUSH2 0x3E0E JUMP JUMPDEST DUP2 ADD DUP2 DUP2 LT PUSH8 0xFFFFFFFFFFFFFFFF DUP3 GT OR ISZERO PUSH2 0x43E4 JUMPI PUSH2 0x43E3 PUSH2 0x438F JUMP JUMPDEST JUMPDEST DUP1 PUSH1 0x40 MSTORE POP POP POP JUMP JUMPDEST PUSH0 PUSH2 0x43F6 PUSH2 0x3D22 JUMP JUMPDEST SWAP1 POP PUSH2 0x4402 DUP3 DUP3 PUSH2 0x43BC JUMP JUMPDEST SWAP2 SWAP1 POP JUMP JUMPDEST PUSH0 PUSH8 0xFFFFFFFFFFFFFFFF DUP3 GT ISZERO PUSH2 0x4421 JUMPI PUSH2 0x4420 PUSH2 0x438F JUMP JUMPDEST JUMPDEST PUSH2 0x442A DUP3 PUSH2 0x3E0E JUMP JUMPDEST SWAP1 POP PUSH1 0x20 DUP2 ADD SWAP1 POP SWAP2 SWAP1 POP JUMP JUMPDEST DUP3 DUP2 DUP4 CALLDATACOPY PUSH0 DUP4 DUP4 ADD MSTORE POP POP POP JUMP JUMPDEST PUSH0 PUSH2 0x4457 PUSH2 0x4452 DUP5 PUSH2 0x4407 JUMP JUMPDEST PUSH2 0x43ED JUMP JUMPDEST SWAP1 POP DUP3 DUP2 MSTORE PUSH1 0x20 DUP2 ADD DUP5 DUP5 DUP5 ADD GT ISZERO PUSH2 0x4473 JUMPI PUSH2 0x4472 PUSH2 0x438B JUMP JUMPDEST JUMPDEST PUSH2 0x447E DUP5 DUP3 DUP6 PUSH2 0x4437 JUMP JUMPDEST POP SWAP4 SWAP3 POP POP POP JUMP JUMPDEST PUSH0 DUP3 PUSH1 0x1F DUP4 ADD SLT PUSH2 0x449A JUMPI PUSH2 0x4499 PUSH2 0x40C7 JUMP JUMPDEST JUMPDEST DUP2 CALLDATALOAD PUSH2 0x44AA DUP5 DUP3 PUSH1 0x20 DUP7 ADD PUSH2 0x4445 JUMP JUMPDEST SWAP2 POP POP SWAP3 SWAP2 POP POP JUMP JUMPDEST PUSH0 DUP1 PUSH0 DUP1 PUSH1 0x80 DUP6 DUP8 SUB SLT ISZERO PUSH2 0x44CB JUMPI PUSH2 0x44CA PUSH2 0x3D2B JUMP JUMPDEST JUMPDEST PUSH0 PUSH2 0x44D8 DUP8 DUP3 DUP9 ADD PUSH2 0x3F23 JUMP JUMPDEST SWAP5 POP POP PUSH1 0x20 PUSH2 0x44E9 DUP8 DUP3 DUP9 ADD PUSH2 0x3F23 JUMP JUMPDEST SWAP4 POP POP PUSH1 0x40 PUSH2 0x44FA DUP8 DUP3 DUP9 ADD PUSH2 0x3E95 JUMP JUMPDEST SWAP3 POP POP PUSH1 0x60 DUP6 ADD CALLDATALOAD PUSH8 0xFFFFFFFFFFFFFFFF DUP2 GT ISZERO PUSH2 0x451B JUMPI PUSH2 0x451A PUSH2 0x3D2F JUMP JUMPDEST JUMPDEST PUSH2 0x4527 DUP8 DUP3 DUP9 ADD PUSH2 0x4486 JUMP JUMPDEST SWAP2 POP POP SWAP3 SWAP6 SWAP2 SWAP5 POP SWAP3 POP JUMP JUMPDEST PUSH0 PUSH1 0xC0 DUP3 ADD SWAP1 POP PUSH2 0x4546 PUSH0 DUP4 ADD DUP10 PUSH2 0x4185 JUMP JUMPDEST PUSH2 0x4553 PUSH1 0x20 DUP4 ADD DUP9 PUSH2 0x4185 JUMP JUMPDEST PUSH2 0x4560 PUSH1 0x40 DUP4 ADD DUP8 PUSH2 0x3EE5 JUMP JUMPDEST DUP2 DUP2 SUB PUSH1 0x60 DUP4 ADD MSTORE PUSH2 0x4572 DUP2 DUP7 PUSH2 0x3E1E JUMP JUMPDEST SWAP1 POP PUSH2 0x4581 PUSH1 0x80 DUP4 ADD DUP6 PUSH2 0x3DBE JUMP JUMPDEST PUSH2 0x458E PUSH1 0xA0 DUP4 ADD DUP5 PUSH2 0x4185 JUMP JUMPDEST SWAP8 SWAP7 POP POP POP POP POP POP POP JUMP JUMPDEST PUSH0 DUP1 PUSH1 0x40 DUP4 DUP6 SUB SLT ISZERO PUSH2 0x45AF JUMPI PUSH2 0x45AE PUSH2 0x3D2B JUMP JUMPDEST JUMPDEST PUSH0 PUSH2 0x45BC DUP6 DUP3 DUP7 ADD PUSH2 0x3F23 JUMP JUMPDEST SWAP3 POP POP PUSH1 0x20 PUSH2 0x45CD DUP6 DUP3 DUP7 ADD PUSH2 0x3F23 JUMP JUMPDEST SWAP2 POP POP SWAP3 POP SWAP3 SWAP1 POP JUMP JUMPDEST PUSH32 0x4E487B7100000000000000000000000000000000000000000000000000000000 PUSH0 MSTORE PUSH1 0x22 PUSH1 0x4 MSTORE PUSH1 0x24 PUSH0 REVERT JUMPDEST PUSH0 PUSH1 0x2 DUP3 DIV SWAP1 POP PUSH1 0x1 DUP3 AND DUP1 PUSH2 0x461B JUMPI PUSH1 0x7F DUP3 AND SWAP2 POP JUMPDEST PUSH1 0x20 DUP3 LT DUP2 SUB PUSH2 0x462E JUMPI PUSH2 0x462D PUSH2 0x45D7 JUMP JUMPDEST JUMPDEST POP SWAP2 SWAP1 POP JUMP JUMPDEST PUSH0 DUP2 SWAP1 POP SWAP2 SWAP1 POP JUMP JUMPDEST PUSH2 0x4646 DUP2 PUSH2 0x4634 JUMP JUMPDEST DUP2 EQ PUSH2 0x4650 JUMPI PUSH0 DUP1 REVERT JUMPDEST POP JUMP JUMPDEST PUSH0 DUP2 MLOAD SWAP1 POP PUSH2 0x4661 DUP2 PUSH2 0x463D JUMP JUMPDEST SWAP3 SWAP2 POP POP JUMP JUMPDEST PUSH0 PUSH1 0x20 DUP3 DUP5 SUB SLT ISZERO PUSH2 0x467C JUMPI PUSH2 0x467B PUSH2 0x3D2B JUMP JUMPDEST JUMPDEST PUSH0 PUSH2 0x4689 DUP5 DUP3 DUP6 ADD PUSH2 0x4653 JUMP JUMPDEST SWAP2 POP POP SWAP3 SWAP2 POP POP JUMP JUMPDEST PUSH2 0x469B DUP2 PUSH2 0x4634 JUMP JUMPDEST DUP3 MSTORE POP POP JUMP JUMPDEST PUSH0 PUSH1 0x40 DUP3 ADD SWAP1 POP PUSH2 0x46B4 PUSH0 DUP4 ADD DUP6 PUSH2 0x4692 JUMP JUMPDEST PUSH2 0x46C1 PUSH1 0x20 DUP4 ADD DUP5 PUSH2 0x3EE5 JUMP JUMPDEST SWAP4 SWAP3 POP POP POP JUMP JUMPDEST PUSH0 DUP2 MLOAD SWAP1 POP PUSH2 0x46D6 DUP2 PUSH2 0x421F JUMP JUMPDEST SWAP3 SWAP2 POP POP JUMP JUMPDEST PUSH0 PUSH1 0x20 DUP3 DUP5 SUB SLT ISZERO PUSH2 0x46F1 JUMPI PUSH2 0x46F0 PUSH2 0x3D2B JUMP JUMPDEST JUMPDEST PUSH0 PUSH2 0x46FE DUP5 DUP3 DUP6 ADD PUSH2 0x46C8 JUMP JUMPDEST SWAP2 POP POP SWAP3 SWAP2 POP POP JUMP JUMPDEST PUSH32 0x4D7573742068617665205041494E5445525F524F4C4500000000000000000000 PUSH0 DUP3 ADD MSTORE POP JUMP JUMPDEST PUSH0 PUSH2 0x473B PUSH1 0x16 DUP4 PUSH2 0x3DF0 JUMP JUMPDEST SWAP2 POP PUSH2 0x4746 DUP3 PUSH2 0x4707 JUMP JUMPDEST PUSH1 0x20 DUP3 ADD SWAP1 POP SWAP2 SWAP1 POP JUMP JUMPDEST PUSH0 PUSH1 0x20 DUP3 ADD SWAP1 POP DUP2 DUP2 SUB PUSH0 DUP4 ADD MSTORE PUSH2 0x4768 DUP2 PUSH2 0x472F JUMP JUMPDEST SWAP1 POP SWAP2 SWAP1 POP JUMP JUMPDEST PUSH32 0x4E6F742061737369676E6564207061696E746572000000000000000000000000 PUSH0 DUP3 ADD MSTORE POP JUMP JUMPDEST PUSH0 PUSH2 0x47A3 PUSH1 0x14 DUP4 PUSH2 0x3DF0 JUMP JUMPDEST SWAP2 POP PUSH2 0x47AE DUP3 PUSH2 0x476F JUMP JUMPDEST PUSH1 0x20 DUP3 ADD SWAP1 POP SWAP2 SWAP1 POP JUMP JUMPDEST PUSH0 PUSH1 0x20 DUP3 ADD SWAP1 POP DUP2 DUP2 SUB PUSH0 DUP4 ADD MSTORE PUSH2 0x47D0 DUP2 PUSH2 0x4797 JUMP JUMPDEST SWAP1 POP SWAP2 SWAP1 POP JUMP JUMPDEST PUSH32 0x4E6F7420696E2070726F63657373000000000000000000000000000000000000 PUSH0 DUP3 ADD MSTORE POP JUMP JUMPDEST PUSH0 PUSH2 0x480B PUSH1 0xE DUP4 PUSH2 0x3DF0 JUMP JUMPDEST SWAP2 POP PUSH2 0x4816 DUP3 PUSH2 0x47D7 JUMP JUMPDEST PUSH1 0x20 DUP3 ADD SWAP1 POP SWAP2 SWAP1 POP JUMP JUMPDEST PUSH0 PUSH1 0x20 DUP3 ADD SWAP1 POP DUP2 DUP2 SUB PUSH0 DUP4 ADD MSTORE PUSH2 0x4838 DUP2 PUSH2 0x47FF JUMP JUMPDEST SWAP1 POP SWAP2 SWAP1 POP JUMP JUMPDEST PUSH0 PUSH1 0x60 DUP3 ADD SWAP1 POP PUSH2 0x4852 PUSH0 DUP4 ADD DUP7 PUSH2 0x3EE5 JUMP JUMPDEST PUSH2 0x485F PUSH1 0x20 DUP4 ADD DUP6 PUSH2 0x4185 JUMP JUMPDEST PUSH2 0x486C PUSH1 0x40 DUP4 ADD DUP5 PUSH2 0x3EE5 JUMP JUMPDEST SWAP5 SWAP4 POP POP POP POP JUMP JUMPDEST PUSH32 0x4D75737420686176652041444D494E5F524F4C45000000000000000000000000 PUSH0 DUP3 ADD MSTORE POP JUMP JUMPDEST PUSH0 PUSH2 0x48A8 PUSH1 0x14 DUP4 PUSH2 0x3DF0 JUMP JUMPDEST SWAP2 POP PUSH2 0x48B3 DUP3 PUSH2 0x4874 JUMP JUMPDEST PUSH1 0x20 DUP3 ADD SWAP1 POP SWAP2 SWAP1 POP JUMP JUMPDEST PUSH0 PUSH1 0x20 DUP3 ADD SWAP1 POP DUP2 DUP2 SUB PUSH0 DUP4 ADD MSTORE PUSH2 0x48D5 DUP2 PUSH2 0x489C JUMP JUMPDEST SWAP1 POP SWAP2 SWAP1 POP JUMP JUMPDEST PUSH32 0x4465736372697074696F6E2063616E6E6F7420626520656D7074790000000000 PUSH0 DUP3 ADD MSTORE POP JUMP JUMPDEST PUSH0 PUSH2 0x4910 PUSH1 0x1B DUP4 PUSH2 0x3DF0 JUMP JUMPDEST SWAP2 POP PUSH2 0x491B DUP3 PUSH2 0x48DC JUMP JUMPDEST PUSH1 0x20 DUP3 ADD SWAP1 POP SWAP2 SWAP1 POP JUMP JUMPDEST PUSH0 PUSH1 0x20 DUP3 ADD SWAP1 POP DUP2 DUP2 SUB PUSH0 DUP4 ADD MSTORE PUSH2 0x493D DUP2 PUSH2 0x4904 JUMP JUMPDEST SWAP1 POP SWAP2 SWAP1 POP JUMP JUMPDEST PUSH32 0x57616C6C20616C7265616479207061696E746564000000000000000000000000 PUSH0 DUP3 ADD MSTORE POP JUMP JUMPDEST PUSH0 PUSH2 0x4978 PUSH1 0x14 DUP4 PUSH2 0x3DF0 JUMP JUMPDEST SWAP2 POP PUSH2 0x4983 DUP3 PUSH2 0x4944 JUMP JUMPDEST PUSH1 0x20 DUP3 ADD SWAP1 POP SWAP2 SWAP1 POP JUMP JUMPDEST PUSH0 PUSH1 0x20 DUP3 ADD SWAP1 POP DUP2 DUP2 SUB PUSH0 DUP4 ADD MSTORE PUSH2 0x49A5 DUP2 PUSH2 0x496C JUMP JUMPDEST SWAP1 POP SWAP2 SWAP1 POP JUMP JUMPDEST PUSH32 0x5265717565737420657869737473000000000000000000000000000000000000 PUSH0 DUP3 ADD MSTORE POP JUMP JUMPDEST PUSH0 PUSH2 0x49E0 PUSH1 0xE DUP4 PUSH2 0x3DF0 JUMP JUMPDEST SWAP2 POP PUSH2 0x49EB DUP3 PUSH2 0x49AC JUMP JUMPDEST PUSH1 0x20 DUP3 ADD SWAP1 POP SWAP2 SWAP1 POP JUMP JUMPDEST PUSH0 PUSH1 0x20 DUP3 ADD SWAP1 POP DUP2 DUP2 SUB PUSH0 DUP4 ADD MSTORE PUSH2 0x4A0D DUP2 PUSH2 0x49D4 JUMP JUMPDEST SWAP1 POP SWAP2 SWAP1 POP JUMP JUMPDEST PUSH0 DUP1 REVERT JUMPDEST PUSH0 DUP1 REVERT JUMPDEST PUSH0 DUP2 MLOAD SWAP1 POP PUSH2 0x4A2A DUP2 PUSH2 0x3E7F JUMP JUMPDEST SWAP3 SWAP2 POP POP JUMP JUMPDEST PUSH0 DUP2 MLOAD SWAP1 POP PUSH2 0x4A3E DUP2 PUSH2 0x3F0D JUMP JUMPDEST SWAP3 SWAP2 POP POP JUMP JUMPDEST PUSH0 PUSH8 0xFFFFFFFFFFFFFFFF DUP3 GT ISZERO PUSH2 0x4A5E JUMPI PUSH2 0x4A5D PUSH2 0x438F JUMP JUMPDEST JUMPDEST PUSH2 0x4A67 DUP3 PUSH2 0x3E0E JUMP JUMPDEST SWAP1 POP PUSH1 0x20 DUP2 ADD SWAP1 POP SWAP2 SWAP1 POP JUMP JUMPDEST PUSH0 PUSH2 0x4A86 PUSH2 0x4A81 DUP5 PUSH2 0x4A44 JUMP JUMPDEST PUSH2 0x43ED JUMP JUMPDEST SWAP1 POP DUP3 DUP2 MSTORE PUSH1 0x20 DUP2 ADD DUP5 DUP5 DUP5 ADD GT ISZERO PUSH2 0x4AA2 JUMPI PUSH2 0x4AA1 PUSH2 0x438B JUMP JUMPDEST JUMPDEST PUSH2 0x4AAD DUP5 DUP3 DUP6 PUSH2 0x3E00 JUMP JUMPDEST POP SWAP4 SWAP3 POP POP POP JUMP JUMPDEST PUSH0 DUP3 PUSH1 0x1F DUP4 ADD SLT PUSH2 0x4AC9 JUMPI PUSH2 0x4AC8 PUSH2 0x40C7 JUMP JUMPDEST JUMPDEST DUP2 MLOAD PUSH2 0x4AD9 DUP5 DUP3 PUSH1 0x20 DUP7 ADD PUSH2 0x4A74 JUMP JUMPDEST SWAP2 POP POP SWAP3 SWAP2 POP POP JUMP JUMPDEST PUSH0 DUP2 SWAP1 POP SWAP2 SWAP1 POP JUMP JUMPDEST PUSH2 0x4AF4 DUP2 PUSH2 0x4AE2 JUMP JUMPDEST DUP2 EQ PUSH2 0x4AFE JUMPI PUSH0 DUP1 REVERT JUMPDEST POP JUMP JUMPDEST PUSH0 DUP2 MLOAD SWAP1 POP PUSH2 0x4B0F DUP2 PUSH2 0x4AEB JUMP JUMPDEST SWAP3 SWAP2 POP POP JUMP JUMPDEST PUSH0 PUSH1 0xA0 DUP3 DUP5 SUB SLT ISZERO PUSH2 0x4B2A JUMPI PUSH2 0x4B29 PUSH2 0x4A14 JUMP JUMPDEST JUMPDEST PUSH2 0x4B34 PUSH1 0xA0 PUSH2 0x43ED JUMP JUMPDEST SWAP1 POP PUSH0 DUP3 ADD MLOAD PUSH8 0xFFFFFFFFFFFFFFFF DUP2 GT ISZERO PUSH2 0x4B53 JUMPI PUSH2 0x4B52 PUSH2 0x4A18 JUMP JUMPDEST JUMPDEST PUSH2 0x4B5F DUP5 DUP3 DUP6 ADD PUSH2 0x4AB5 JUMP JUMPDEST PUSH0 DUP4 ADD MSTORE POP PUSH1 0x20 DUP3 ADD MLOAD PUSH8 0xFFFFFFFFFFFFFFFF DUP2 GT ISZERO PUSH2 0x4B82 JUMPI PUSH2 0x4B81 PUSH2 0x4A18 JUMP JUMPDEST JUMPDEST PUSH2 0x4B8E DUP5 DUP3 DUP6 ADD PUSH2 0x4AB5 JUMP JUMPDEST PUSH1 0x20 DUP4 ADD MSTORE POP PUSH1 0x40 DUP3 ADD MLOAD PUSH8 0xFFFFFFFFFFFFFFFF DUP2 GT ISZERO PUSH2 0x4BB2 JUMPI PUSH2 0x4BB1 PUSH2 0x4A18 JUMP JUMPDEST JUMPDEST PUSH2 0x4BBE DUP5 DUP3 DUP6 ADD PUSH2 0x4AB5 JUMP JUMPDEST PUSH1 0x40 DUP4 ADD MSTORE POP PUSH1 0x60 PUSH2 0x4BD2 DUP5 DUP3 DUP6 ADD PUSH2 0x4B01 JUMP JUMPDEST PUSH1 0x60 DUP4 ADD MSTORE POP PUSH1 0x80 PUSH2 0x4BE6 DUP5 DUP3 DUP6 ADD PUSH2 0x4B01 JUMP JUMPDEST PUSH1 0x80 DUP4 ADD MSTORE POP SWAP3 SWAP2 POP POP JUMP JUMPDEST PUSH0 PUSH2 0x120 DUP3 DUP5 SUB SLT ISZERO PUSH2 0x4C08 JUMPI PUSH2 0x4C07 PUSH2 0x4A14 JUMP JUMPDEST JUMPDEST PUSH2 0x4C13 PUSH2 0x120 PUSH2 0x43ED JUMP JUMPDEST SWAP1 POP PUSH0 PUSH2 0x4C22 DUP5 DUP3 DUP6 ADD PUSH2 0x4A1C JUMP JUMPDEST PUSH0 DUP4 ADD MSTORE POP PUSH1 0x20 PUSH2 0x4C35 DUP5 DUP3 DUP6 ADD PUSH2 0x4A30 JUMP JUMPDEST PUSH1 0x20 DUP4 ADD MSTORE POP PUSH1 0x40 DUP3 ADD MLOAD PUSH8 0xFFFFFFFFFFFFFFFF DUP2 GT ISZERO PUSH2 0x4C59 JUMPI PUSH2 0x4C58 PUSH2 0x4A18 JUMP JUMPDEST JUMPDEST PUSH2 0x4C65 DUP5 DUP3 DUP6 ADD PUSH2 0x4B15 JUMP JUMPDEST PUSH1 0x40 DUP4 ADD MSTORE POP PUSH1 0x60 PUSH2 0x4C79 DUP5 DUP3 DUP6 ADD PUSH2 0x4A1C JUMP JUMPDEST PUSH1 0x60 DUP4 ADD MSTORE POP PUSH1 0x80 PUSH2 0x4C8D DUP5 DUP3 DUP6 ADD PUSH2 0x4A1C JUMP JUMPDEST PUSH1 0x80 DUP4 ADD MSTORE POP PUSH1 0xA0 PUSH2 0x4CA1 DUP5 DUP3 DUP6 ADD PUSH2 0x46C8 JUMP JUMPDEST PUSH1 0xA0 DUP4 ADD MSTORE POP PUSH1 0xC0 PUSH2 0x4CB5 DUP5 DUP3 DUP6 ADD PUSH2 0x4A1C JUMP JUMPDEST PUSH1 0xC0 DUP4 ADD MSTORE POP PUSH1 0xE0 PUSH2 0x4CC9 DUP5 DUP3 DUP6 ADD PUSH2 0x4A1C JUMP JUMPDEST PUSH1 0xE0 DUP4 ADD MSTORE POP PUSH2 0x100 PUSH2 0x4CDE DUP5 DUP3 DUP6 ADD PUSH2 0x4A1C JUMP JUMPDEST PUSH2 0x100 DUP4 ADD MSTORE POP SWAP3 SWAP2 POP POP JUMP JUMPDEST PUSH0 PUSH1 0x20 DUP3 DUP5 SUB SLT ISZERO PUSH2 0x4D00 JUMPI PUSH2 0x4CFF PUSH2 0x3D2B JUMP JUMPDEST JUMPDEST PUSH0 DUP3 ADD MLOAD PUSH8 0xFFFFFFFFFFFFFFFF DUP2 GT ISZERO PUSH2 0x4D1D JUMPI PUSH2 0x4D1C PUSH2 0x3D2F JUMP JUMPDEST JUMPDEST PUSH2 0x4D29 DUP5 DUP3 DUP6 ADD PUSH2 0x4BF2 JUMP JUMPDEST SWAP2 POP POP SWAP3 SWAP2 POP POP JUMP JUMPDEST PUSH32 0x57616C6C206E6F7420696E2067616C6C65727900000000000000000000000000 PUSH0 DUP3 ADD MSTORE POP JUMP JUMPDEST PUSH0 PUSH2 0x4D66 PUSH1 0x13 DUP4 PUSH2 0x3DF0 JUMP JUMPDEST SWAP2 POP PUSH2 0x4D71 DUP3 PUSH2 0x4D32 JUMP JUMPDEST PUSH1 0x20 DUP3 ADD SWAP1 POP SWAP2 SWAP1 POP JUMP JUMPDEST PUSH0 PUSH1 0x20 DUP3 ADD SWAP1 POP DUP2 DUP2 SUB PUSH0 DUP4 ADD MSTORE PUSH2 0x4D93 DUP2 PUSH2 0x4D5A JUMP JUMPDEST SWAP1 POP SWAP2 SWAP1 POP JUMP JUMPDEST PUSH0 DUP2 SWAP1 POP DUP2 PUSH0 MSTORE PUSH1 0x20 PUSH0 KECCAK256 SWAP1 POP SWAP2 SWAP1 POP JUMP JUMPDEST PUSH0 PUSH1 0x20 PUSH1 0x1F DUP4 ADD DIV SWAP1 POP SWAP2 SWAP1 POP JUMP JUMPDEST PUSH0 DUP3 DUP3 SHL SWAP1 POP SWAP3 SWAP2 POP POP JUMP JUMPDEST PUSH0 PUSH1 0x8 DUP4 MUL PUSH2 0x4DF6 PUSH32 0xFFFFFFFFFFFFFFFFFFFFFFFFFFFFFFFFFFFFFFFFFFFFFFFFFFFFFFFFFFFFFFFF DUP3 PUSH2 0x4DBB JUMP JUMPDEST PUSH2 0x4E00 DUP7 DUP4 PUSH2 0x4DBB JUMP JUMPDEST SWAP6 POP DUP1 NOT DUP5 AND SWAP4 POP DUP1 DUP7 AND DUP5 OR SWAP3 POP POP POP SWAP4 SWAP3 POP POP POP JUMP JUMPDEST PUSH0 PUSH2 0x4E32 PUSH2 0x4E2D PUSH2 0x4E28 DUP5 PUSH2 0x3E76 JUMP JUMPDEST PUSH2 0x3CAE JUMP JUMPDEST PUSH2 0x3E76 JUMP JUMPDEST SWAP1 POP SWAP2 SWAP1 POP JUMP JUMPDEST PUSH0 DUP2 SWAP1 POP SWAP2 SWAP1 POP JUMP JUMPDEST PUSH2 0x4E4B DUP4 PUSH2 0x4E18 JUMP JUMPDEST PUSH2 0x4E5F PUSH2 0x4E57 DUP3 PUSH2 0x4E39 JUMP JUMPDEST DUP5 DUP5 SLOAD PUSH2 0x4DC7 JUMP JUMPDEST DUP3 SSTORE POP POP POP POP JUMP JUMPDEST PUSH0 SWAP1 JUMP JUMPDEST PUSH2 0x4E73 PUSH2 0x4E67 JUMP JUMPDEST PUSH2 0x4E7E DUP2 DUP5 DUP5 PUSH2 0x4E42 JUMP JUMPDEST POP POP POP JUMP JUMPDEST JUMPDEST DUP2 DUP2 LT ISZERO PUSH2 0x4EA1 JUMPI PUSH2 0x4E96 PUSH0 DUP3 PUSH2 0x4E6B JUMP JUMPDEST PUSH1 0x1 DUP2 ADD SWAP1 POP PUSH2 0x4E84 JUMP JUMPDEST POP POP JUMP JUMPDEST PUSH1 0x1F DUP3 GT ISZERO PUSH2 0x4EE6 JUMPI PUSH2 0x4EB7 DUP2 PUSH2 0x4D9A JUMP JUMPDEST PUSH2 0x4EC0 DUP5 PUSH2 0x4DAC JUMP JUMPDEST DUP2 ADD PUSH1 0x20 DUP6 LT ISZERO PUSH2 0x4ECF JUMPI DUP2 SWAP1 POP JUMPDEST PUSH2 0x4EE3 PUSH2 0x4EDB DUP6 PUSH2 0x4DAC JUMP JUMPDEST DUP4 ADD DUP3 PUSH2 0x4E83 JUMP JUMPDEST POP POP JUMPDEST POP POP POP JUMP JUMPDEST PUSH0 DUP3 DUP3 SHR SWAP1 POP SWAP3 SWAP2 POP POP JUMP JUMPDEST PUSH0 PUSH2 0x4F06 PUSH0 NOT DUP5 PUSH1 0x8 MUL PUSH2 0x4EEB JUMP JUMPDEST NOT DUP1 DUP4 AND SWAP2 POP POP SWAP3 SWAP2 POP POP JUMP JUMPDEST PUSH0 PUSH2 0x4F1E DUP4 DUP4 PUSH2 0x4EF7 JUMP JUMPDEST SWAP2 POP DUP3 PUSH1 0x2 MUL DUP3 OR SWAP1 POP SWAP3 SWAP2 POP POP JUMP JUMPDEST PUSH2 0x4F37 DUP3 PUSH2 0x3DE6 JUMP JUMPDEST PUSH8 0xFFFFFFFFFFFFFFFF DUP2 GT ISZERO PUSH2 0x4F50 JUMPI PUSH2 0x4F4F PUSH2 0x438F JUMP JUMPDEST JUMPDEST PUSH2 0x4F5A DUP3 SLOAD PUSH2 0x4604 JUMP JUMPDEST PUSH2 0x4F65 DUP3 DUP3 DUP6 PUSH2 0x4EA5 JUMP JUMPDEST PUSH0 PUSH1 0x20 SWAP1 POP PUSH1 0x1F DUP4 GT PUSH1 0x1 DUP2 EQ PUSH2 0x4F96 JUMPI PUSH0 DUP5 ISZERO PUSH2 0x4F84 JUMPI DUP3 DUP8 ADD MLOAD SWAP1 POP JUMPDEST PUSH2 0x4F8E DUP6 DUP3 PUSH2 0x4F13 JUMP JUMPDEST DUP7 SSTORE POP PUSH2 0x4FF5 JUMP JUMPDEST PUSH1 0x1F NOT DUP5 AND PUSH2 0x4FA4 DUP7 PUSH2 0x4D9A JUMP JUMPDEST PUSH0 JUMPDEST DUP3 DUP2 LT ISZERO PUSH2 0x4FCB JUMPI DUP5 DUP10 ADD MLOAD DUP3 SSTORE PUSH1 0x1 DUP3 ADD SWAP2 POP PUSH1 0x20 DUP6 ADD SWAP5 POP PUSH1 0x20 DUP2 ADD SWAP1 POP PUSH2 0x4FA6 JUMP JUMPDEST DUP7 DUP4 LT ISZERO PUSH2 0x4FE8 JUMPI DUP5 DUP10 ADD MLOAD PUSH2 0x4FE4 PUSH1 0x1F DUP10 AND DUP3 PUSH2 0x4EF7 JUMP JUMPDEST DUP4 SSTORE POP JUMPDEST PUSH1 0x1 PUSH1 0x2 DUP9 MUL ADD DUP9 SSTORE POP POP POP JUMPDEST POP POP POP POP POP POP JUMP JUMPDEST PUSH0 PUSH2 0x100 DUP3 DUP5 SUB SLT ISZERO PUSH2 0x5013 JUMPI PUSH2 0x5012 PUSH2 0x4A14 JUMP JUMPDEST JUMPDEST PUSH2 0x501E PUSH2 0x100 PUSH2 0x43ED JUMP JUMPDEST SWAP1 POP PUSH0 PUSH2 0x502D DUP5 DUP3 DUP6 ADD PUSH2 0x4A1C JUMP JUMPDEST PUSH0 DUP4 ADD MSTORE POP PUSH1 0x20 DUP3 ADD MLOAD PUSH8 0xFFFFFFFFFFFFFFFF DUP2 GT ISZERO PUSH2 0x5050 JUMPI PUSH2 0x504F PUSH2 0x4A18 JUMP JUMPDEST JUMPDEST PUSH2 0x505C DUP5 DUP3 DUP6 ADD PUSH2 0x4AB5 JUMP JUMPDEST PUSH1 0x20 DUP4 ADD MSTORE POP PUSH1 0x40 DUP3 ADD MLOAD PUSH8 0xFFFFFFFFFFFFFFFF DUP2 GT ISZERO PUSH2 0x5080 JUMPI PUSH2 0x507F PUSH2 0x4A18 JUMP JUMPDEST JUMPDEST PUSH2 0x508C DUP5 DUP3 DUP6 ADD PUSH2 0x4AB5 JUMP JUMPDEST PUSH1 0x40 DUP4 ADD MSTORE POP PUSH1 0x60 PUSH2 0x50A0 DUP5 DUP3 DUP6 ADD PUSH2 0x4A30 JUMP JUMPDEST PUSH1 0x60 DUP4 ADD MSTORE POP PUSH1 0x80 PUSH2 0x50B4 DUP5 DUP3 DUP6 ADD PUSH2 0x4A1C JUMP JUMPDEST PUSH1 0x80 DUP4 ADD MSTORE POP PUSH1 0xA0 PUSH2 0x50C8 DUP5 DUP3 DUP6 ADD PUSH2 0x46C8 JUMP JUMPDEST PUSH1 0xA0 DUP4 ADD MSTORE POP PUSH1 0xC0 PUSH2 0x50DC DUP5 DUP3 DUP6 ADD PUSH2 0x4A1C JUMP JUMPDEST PUSH1 0xC0 DUP4 ADD MSTORE POP PUSH1 0xE0 PUSH2 0x50F0 DUP5 DUP3 DUP6 ADD PUSH2 0x4A1C JUMP JUMPDEST PUSH1 0xE0 DUP4 ADD MSTORE POP SWAP3 SWAP2 POP POP JUMP JUMPDEST PUSH0 PUSH1 0x20 DUP3 DUP5 SUB SLT ISZERO PUSH2 0x5111 JUMPI PUSH2 0x5110 PUSH2 0x3D2B JUMP JUMPDEST JUMPDEST PUSH0 DUP3 ADD MLOAD PUSH8 0xFFFFFFFFFFFFFFFF DUP2 GT ISZERO PUSH2 0x512E JUMPI PUSH2 0x512D PUSH2 0x3D2F JUMP JUMPDEST JUMPDEST PUSH2 0x513A DUP5 DUP3 DUP6 ADD PUSH2 0x4FFD JUMP JUMPDEST SWAP2 POP POP SWAP3 SWAP2 POP POP JUMP JUMPDEST PUSH32 0x47616C6C657279206E6F74206163746976650000000000000000000000000000 PUSH0 DUP3 ADD MSTORE POP JUMP JUMPDEST PUSH0 PUSH2 0x5177 PUSH1 0x12 DUP4 PUSH2 0x3DF0 JUMP JUMPDEST SWAP2 POP PUSH2 0x5182 DUP3 PUSH2 0x5143 JUMP JUMPDEST PUSH1 0x20 DUP3 ADD SWAP1 POP SWAP2 SWAP1 POP JUMP JUMPDEST PUSH0 PUSH1 0x20 DUP3 ADD SWAP1 POP DUP2 DUP2 SUB PUSH0 DUP4 ADD MSTORE PUSH2 0x51A4 DUP2 PUSH2 0x516B JUMP JUMPDEST SWAP1 POP SWAP2 SWAP1 POP JUMP JUMPDEST PUSH32 0x4E6F742067616C6C657279206F776E6572000000000000000000000000000000 PUSH0 DUP3 ADD MSTORE POP JUMP JUMPDEST PUSH0 PUSH2 0x51DF PUSH1 0x11 DUP4 PUSH2 0x3DF0 JUMP JUMPDEST SWAP2 POP PUSH2 0x51EA DUP3 PUSH2 0x51AB JUMP JUMPDEST PUSH1 0x20 DUP3 ADD SWAP1 POP SWAP2 SWAP1 POP JUMP JUMPDEST PUSH0 PUSH1 0x20 DUP3 ADD SWAP1 POP DUP2 DUP2 SUB PUSH0 DUP4 ADD MSTORE PUSH2 0x520C DUP2 PUSH2 0x51D3 JUMP JUMPDEST SWAP1 POP SWAP2 SWAP1 POP JUMP JUMPDEST PUSH32 0x496E76616C696420737461747573000000000000000000000000000000000000 PUSH0 DUP3 ADD MSTORE POP JUMP JUMPDEST PUSH0 PUSH2 0x5247 PUSH1 0xE DUP4 PUSH2 0x3DF0 JUMP JUMPDEST SWAP2 POP PUSH2 0x5252 DUP3 PUSH2 0x5213 JUMP JUMPDEST PUSH1 0x20 DUP3 ADD SWAP1 POP SWAP2 SWAP1 POP JUMP JUMPDEST PUSH0 PUSH1 0x20 DUP3 ADD SWAP1 POP DUP2 DUP2 SUB PUSH0 DUP4 ADD MSTORE PUSH2 0x5274 DUP2 PUSH2 0x523B JUMP JUMPDEST SWAP1 POP SWAP2 SWAP1 POP JUMP JUMPDEST PUSH0 DUP2 SWAP1 POP SWAP3 SWAP2 POP POP JUMP JUMPDEST PUSH0 PUSH2 0x528F DUP3 PUSH2 0x3DE6 JUMP JUMPDEST PUSH2 0x5299 DUP2 DUP6 PUSH2 0x527B JUMP JUMPDEST SWAP4 POP PUSH2 0x52A9 DUP2 DUP6 PUSH1 0x20 DUP7 ADD PUSH2 0x3E00 JUMP JUMPDEST DUP1 DUP5 ADD SWAP2 POP POP SWAP3 SWAP2 POP POP JUMP JUMPDEST PUSH0 PUSH2 0x52C0 DUP3 DUP6 PUSH2 0x5285 JUMP JUMPDEST SWAP2 POP PUSH2 0x52CC DUP3 DUP5 PUSH2 0x5285 JUMP JUMPDEST SWAP2 POP DUP2 SWAP1 POP SWAP4 SWAP3 POP POP POP JUMP JUMPDEST PUSH32 0x4E6F7420636F6D706C6574656400000000000000000000000000000000000000 PUSH0 DUP3 ADD MSTORE POP JUMP JUMPDEST PUSH0 PUSH2 0x530C PUSH1 0xD DUP4 PUSH2 0x3DF0 JUMP JUMPDEST SWAP2 POP PUSH2 0x5317 DUP3 PUSH2 0x52D8 JUMP JUMPDEST PUSH1 0x20 DUP3 ADD SWAP1 POP SWAP2 SWAP1 POP JUMP JUMPDEST PUSH0 PUSH1 0x20 DUP3 ADD SWAP1 POP DUP2 DUP2 SUB PUSH0 DUP4 ADD MSTORE PUSH2 0x5339 DUP2 PUSH2 0x5300 JUMP JUMPDEST SWAP1 POP SWAP2 SWAP1 POP JUMP JUMPDEST PUSH32 0x5061757361626C653A2070617573656400000000000000000000000000000000 PUSH0 DUP3 ADD MSTORE POP JUMP JUMPDEST PUSH0 PUSH2 0x5374 PUSH1 0x10 DUP4 PUSH2 0x3DF0 JUMP JUMPDEST SWAP2 POP PUSH2 0x537F DUP3 PUSH2 0x5340 JUMP JUMPDEST PUSH1 0x20 DUP3 ADD SWAP1 POP SWAP2 SWAP1 POP JUMP JUMPDEST PUSH0 PUSH1 0x20 DUP3 ADD SWAP1 POP DUP2 DUP2 SUB PUSH0 DUP4 ADD MSTORE PUSH2 0x53A1 DUP2 PUSH2 0x5368 JUMP JUMPDEST SWAP1 POP SWAP2 SWAP1 POP JUMP JUMPDEST PUSH32 0x4E487B7100000000000000000000000000000000000000000000000000000000 PUSH0 MSTORE PUSH1 0x32 PUSH1 0x4 MSTORE PUSH1 0x24 PUSH0 REVERT JUMPDEST PUSH32 0x4E487B7100000000000000000000000000000000000000000000000000000000 PUSH0 MSTORE PUSH1 0x11 PUSH1 0x4 MSTORE PUSH1 0x24 PUSH0 REVERT JUMPDEST PUSH0 PUSH2 0x540C DUP3 PUSH2 0x3E76 JUMP JUMPDEST SWAP2 POP PUSH2 0x5417 DUP4 PUSH2 0x3E76 JUMP JUMPDEST SWAP3 POP DUP3 DUP3 SUB SWAP1 POP DUP2 DUP2 GT ISZERO PUSH2 0x542F JUMPI PUSH2 0x542E PUSH2 0x53D5 JUMP JUMPDEST JUMPDEST SWAP3 SWAP2 POP POP JUMP JUMPDEST PUSH32 0x4E487B7100000000000000000000000000000000000000000000000000000000 PUSH0 MSTORE PUSH1 0x31 PUSH1 0x4 MSTORE PUSH1 0x24 PUSH0 REVERT JUMPDEST PUSH0 DUP2 MLOAD SWAP1 POP SWAP2 SWAP1 POP JUMP JUMPDEST PUSH0 DUP3 DUP3 MSTORE PUSH1 0x20 DUP3 ADD SWAP1 POP SWAP3 SWAP2 POP POP JUMP JUMPDEST PUSH0 PUSH2 0x5486 DUP3 PUSH2 0x5462 JUMP JUMPDEST PUSH2 0x5490 DUP2 DUP6 PUSH2 0x546C JUMP JUMPDEST SWAP4 POP PUSH2 0x54A0 DUP2 DUP6 PUSH1 0x20 DUP7 ADD PUSH2 0x3E00 JUMP JUMPDEST PUSH2 0x54A9 DUP2 PUSH2 0x3E0E JUMP JUMPDEST DUP5 ADD SWAP2 POP POP SWAP3 SWAP2 POP POP JUMP JUMPDEST PUSH0 PUSH1 0x80 DUP3 ADD SWAP1 POP PUSH2 0x54C7 PUSH0 DUP4 ADD DUP8 PUSH2 0x3EE5 JUMP JUMPDEST PUSH2 0x54D4 PUSH1 0x20 DUP4 ADD DUP7 PUSH2 0x3EE5 JUMP JUMPDEST PUSH2 0x54E1 PUSH1 0x40 DUP4 ADD DUP6 PUSH2 0x4185 JUMP JUMPDEST DUP2 DUP2 SUB PUSH1 0x60 DUP4 ADD MSTORE PUSH2 0x54F3 DUP2 DUP5 PUSH2 0x547C JUMP JUMPDEST SWAP1 POP SWAP6 SWAP5 POP POP POP POP POP JUMP JUMPDEST PUSH0 DUP2 MLOAD SWAP1 POP PUSH2 0x550C DUP2 PUSH2 0x3D5E JUMP JUMPDEST SWAP3 SWAP2 POP POP JUMP JUMPDEST PUSH0 PUSH1 0x20 DUP3 DUP5 SUB SLT ISZERO PUSH2 0x5527 JUMPI PUSH2 0x5526 PUSH2 0x3D2B JUMP JUMPDEST JUMPDEST PUSH0 PUSH2 0x5534 DUP5 DUP3 DUP6 ADD PUSH2 0x54FE JUMP JUMPDEST SWAP2 POP POP SWAP3 SWAP2 POP POP JUMP JUMPDEST PUSH32 0x4E487B7100000000000000000000000000000000000000000000000000000000 PUSH0 MSTORE PUSH1 0x12 PUSH1 0x4 MSTORE PUSH1 0x24 PUSH0 REVERT JUMPDEST PUSH32 0x536861726573206D696E74656400000000000000000000000000000000000000 PUSH0 DUP3 ADD MSTORE POP JUMP JUMPDEST PUSH0 PUSH2 0x559E PUSH1 0xD DUP4 PUSH2 0x3DF0 JUMP JUMPDEST SWAP2 POP PUSH2 0x55A9 DUP3 PUSH2 0x556A JUMP JUMPDEST PUSH1 0x20 DUP3 ADD SWAP1 POP SWAP2 SWAP1 POP JUMP JUMPDEST PUSH0 PUSH1 0x20 DUP3 ADD SWAP1 POP DUP2 DUP2 SUB PUSH0 DUP4 ADD MSTORE PUSH2 0x55CB DUP2 PUSH2 0x5592 JUMP JUMPDEST SWAP1 POP SWAP2 SWAP1 POP JUMP JUMPDEST PUSH0 PUSH1 0x20 DUP3 DUP5 SUB SLT ISZERO PUSH2 0x55E7 JUMPI PUSH2 0x55E6 PUSH2 0x3D2B JUMP JUMPDEST JUMPDEST PUSH0 PUSH2 0x55F4 DUP5 DUP3 DUP6 ADD PUSH2 0x4A1C JUMP JUMPDEST SWAP2 POP POP SWAP3 SWAP2 POP POP JUMP JUMPDEST PUSH0 PUSH2 0x5607 DUP3 PUSH2 0x3E76 JUMP JUMPDEST SWAP2 POP PUSH2 0x5612 DUP4 PUSH2 0x3E76 JUMP JUMPDEST SWAP3 POP DUP3 DUP3 ADD SWAP1 POP DUP1 DUP3 GT ISZERO PUSH2 0x562A JUMPI PUSH2 0x5629 PUSH2 0x53D5 JUMP JUMPDEST JUMPDEST SWAP3 SWAP2 POP POP JUMP JUMPDEST PUSH32 0x4578636565647320313030250000000000000000000000000000000000000000 PUSH0 DUP3 ADD MSTORE POP JUMP JUMPDEST PUSH0 PUSH2 0x5664 PUSH1 0xC DUP4 PUSH2 0x3DF0 JUMP JUMPDEST SWAP2 POP PUSH2 0x566F DUP3 PUSH2 0x5630 JUMP JUMPDEST PUSH1 0x20 DUP3 ADD SWAP1 POP SWAP2 SWAP1 POP JUMP JUMPDEST PUSH0 PUSH1 0x20 DUP3 ADD SWAP1 POP DUP2 DUP2 SUB PUSH0 DUP4 ADD MSTORE PUSH2 0x5691 DUP2 PUSH2 0x5658 JUMP JUMPDEST SWAP1 POP SWAP2 SWAP1 POP JUMP JUMPDEST PUSH0 PUSH2 0x100 DUP3 ADD SWAP1 POP PUSH2 0x56AC PUSH0 DUP4 ADD DUP12 PUSH2 0x4185 JUMP JUMPDEST PUSH2 0x56B9 PUSH1 0x20 DUP4 ADD DUP11 PUSH2 0x3EE5 JUMP JUMPDEST PUSH2 0x56C6 PUSH1 0x40 DUP4 ADD DUP10 PUSH2 0x3EE5 JUMP JUMPDEST PUSH2 0x56D3 PUSH1 0x60 DUP4 ADD DUP9 PUSH2 0x3EE5 JUMP JUMPDEST PUSH2 0x56E0 PUSH1 0x80 DUP4 ADD DUP8 PUSH2 0x3EE5 JUMP JUMPDEST PUSH2 0x56ED PUSH1 0xA0 DUP4 ADD DUP7 PUSH2 0x4185 JUMP JUMPDEST PUSH2 0x56FA PUSH1 0xC0 DUP4 ADD DUP6 PUSH2 0x4185 JUMP JUMPDEST PUSH2 0x5707 PUSH1 0xE0 DUP4 ADD DUP5 PUSH2 0x4185 JUMP JUMPDEST SWAP10 SWAP9 POP POP POP POP POP POP POP POP POP JUMP JUMPDEST PUSH0 PUSH1 0x40 DUP3 ADD SWAP1 POP PUSH2 0x5727 PUSH0 DUP4 ADD DUP6 PUSH2 0x3EE5 JUMP JUMPDEST PUSH2 0x5734 PUSH1 0x20 DUP4 ADD DUP5 PUSH2 0x4185 JUMP JUMPDEST SWAP4 SWAP3 POP POP POP JUMP JUMPDEST PUSH32 0x5061757361626C653A206E6F7420706175736564000000000000000000000000 PUSH0 DUP3 ADD MSTORE POP JUMP JUMPDEST PUSH0 PUSH2 0x576F PUSH1 0x14 DUP4 PUSH2 0x3DF0 JUMP JUMPDEST SWAP2 POP PUSH2 0x577A DUP3 PUSH2 0x573B JUMP JUMPDEST PUSH1 0x20 DUP3 ADD SWAP1 POP SWAP2 SWAP1 POP JUMP JUMPDEST PUSH0 PUSH1 0x20 DUP3 ADD SWAP1 POP DUP2 DUP2 SUB PUSH0 DUP4 ADD MSTORE PUSH2 0x579C DUP2 PUSH2 0x5763 JUMP JUMPDEST SWAP1 POP SWAP2 SWAP1 POP JUMP INVALID LOG2 PUSH5 0x6970667358 0x22 SLT KECCAK256 0x29 0xCB SWAP8 DUP3 0xDC CODECOPY SWAP13 0x2F CODESIZE CALLDATALOAD 0xC1 0xB3 STOP 0xC7 SWAP11 0xF9 PUSH19 0x27C9C49CBF833A296344E42D91891C64736F6C PUSH4 0x4300081A STOP CALLER "
		},
		"gasEstimates": {
			"creation": {
				"codeDepositCost": "4497800",
				"executionCost": "infinite",
				"totalCost": "infinite"
			},
			"external": {
				"approve(address,uint256)": "infinite",
				"approvePaintingRequest(uint256)": "infinite",
				"balanceOf(address)": "infinite",
				"finalizePainting(uint256)": "infinite",
				"galleryContract()": "infinite",
				"getApproved(uint256)": "infinite",
				"isApprovedForAll(address,address)": "infinite",
				"name()": "infinite",
				"ownerOf(uint256)": "infinite",
				"painterAcceptedRequests(address)": "infinite",
				"painterPendingRequests(address)": "infinite",
				"paintingRequests(uint256)": "infinite",
				"paintingShares()": "infinite",
				"paintings(uint256)": "infinite",
				"pause()": "infinite",
				"paused()": "2518",
				"rejectPaintingRequest(uint256)": "infinite",
				"requestPainting(uint256,string)": "infinite",
				"roleManager()": "infinite",
				"safeTransferFrom(address,address,uint256)": "infinite",
				"safeTransferFrom(address,address,uint256,bytes)": "infinite",
				"setApprovalForAll(address,bool)": "infinite",
				"submitPaintingCompletion(uint256)": "infinite",
				"supportsInterface(bytes4)": "832",
				"symbol()": "infinite",
				"tokenURI(uint256)": "infinite",
				"transferFrom(address,address,uint256)": "infinite",
				"unpause()": "infinite",
				"wallContract()": "infinite",
				"wallPainted(uint256)": "2829",
				"wallPaintingPendingRequests(uint256)": "infinite",
				"wallPaintingPendingSubmits(uint256)": "infinite"
			},
			"internal": {
				"_createShares(uint256,uint256,address)": "infinite",
				"_removeFromArray(uint256[] storage pointer,uint256)": "infinite"
			}
		},
		"methodIdentifiers": {
			"approve(address,uint256)": "095ea7b3",
			"approvePaintingRequest(uint256)": "8085be02",
			"balanceOf(address)": "70a08231",
			"finalizePainting(uint256)": "eb1b1e71",
			"galleryContract()": "71d24b70",
			"getApproved(uint256)": "081812fc",
			"isApprovedForAll(address,address)": "e985e9c5",
			"name()": "06fdde03",
			"ownerOf(uint256)": "6352211e",
			"painterAcceptedRequests(address)": "08e9c7d7",
			"painterPendingRequests(address)": "89814b9c",
			"paintingRequests(uint256)": "a245e7ff",
			"paintingShares()": "7eb4ecb4",
			"paintings(uint256)": "c7ca6daa",
			"pause()": "8456cb59",
			"paused()": "5c975abb",
			"rejectPaintingRequest(uint256)": "e38da54b",
			"requestPainting(uint256,string)": "41bc8b64",
			"roleManager()": "00435da5",
			"safeTransferFrom(address,address,uint256)": "42842e0e",
			"safeTransferFrom(address,address,uint256,bytes)": "b88d4fde",
			"setApprovalForAll(address,bool)": "a22cb465",
			"submitPaintingCompletion(uint256)": "072e91d9",
			"supportsInterface(bytes4)": "01ffc9a7",
			"symbol()": "95d89b41",
			"tokenURI(uint256)": "c87b56dd",
			"transferFrom(address,address,uint256)": "23b872dd",
			"unpause()": "3f4ba83a",
			"wallContract()": "aad53a84",
			"wallPainted(uint256)": "e1f4ab5f",
			"wallPaintingPendingRequests(uint256)": "5398cb14",
			"wallPaintingPendingSubmits(uint256)": "df0b2dc8"
		}
	},
	"abi": [
		{
			"inputs": [
				{
					"internalType": "address",
					"name": "_roleManager",
					"type": "address"
				},
				{
					"internalType": "address",
					"name": "_wallContract",
					"type": "address"
				},
				{
					"internalType": "address",
					"name": "_galleryContract",
					"type": "address"
				},
				{
					"internalType": "address",
					"name": "_paintingShares",
					"type": "address"
				}
			],
			"stateMutability": "nonpayable",
			"type": "constructor"
		},
		{
			"inputs": [
				{
					"internalType": "address",
					"name": "sender",
					"type": "address"
				},
				{
					"internalType": "uint256",
					"name": "tokenId",
					"type": "uint256"
				},
				{
					"internalType": "address",
					"name": "owner",
					"type": "address"
				}
			],
			"name": "ERC721IncorrectOwner",
			"type": "error"
		},
		{
			"inputs": [
				{
					"internalType": "address",
					"name": "operator",
					"type": "address"
				},
				{
					"internalType": "uint256",
					"name": "tokenId",
					"type": "uint256"
				}
			],
			"name": "ERC721InsufficientApproval",
			"type": "error"
		},
		{
			"inputs": [
				{
					"internalType": "address",
					"name": "approver",
					"type": "address"
				}
			],
			"name": "ERC721InvalidApprover",
			"type": "error"
		},
		{
			"inputs": [
				{
					"internalType": "address",
					"name": "operator",
					"type": "address"
				}
			],
			"name": "ERC721InvalidOperator",
			"type": "error"
		},
		{
			"inputs": [
				{
					"internalType": "address",
					"name": "owner",
					"type": "address"
				}
			],
			"name": "ERC721InvalidOwner",
			"type": "error"
		},
		{
			"inputs": [
				{
					"internalType": "address",
					"name": "receiver",
					"type": "address"
				}
			],
			"name": "ERC721InvalidReceiver",
			"type": "error"
		},
		{
			"inputs": [
				{
					"internalType": "address",
					"name": "sender",
					"type": "address"
				}
			],
			"name": "ERC721InvalidSender",
			"type": "error"
		},
		{
			"inputs": [
				{
					"internalType": "uint256",
					"name": "tokenId",
					"type": "uint256"
				}
			],
			"name": "ERC721NonexistentToken",
			"type": "error"
		},
		{
			"anonymous": false,
			"inputs": [
				{
					"indexed": true,
					"internalType": "address",
					"name": "owner",
					"type": "address"
				},
				{
					"indexed": true,
					"internalType": "address",
					"name": "approved",
					"type": "address"
				},
				{
					"indexed": true,
					"internalType": "uint256",
					"name": "tokenId",
					"type": "uint256"
				}
			],
			"name": "Approval",
			"type": "event"
		},
		{
			"anonymous": false,
			"inputs": [
				{
					"indexed": true,
					"internalType": "address",
					"name": "owner",
					"type": "address"
				},
				{
					"indexed": true,
					"internalType": "address",
					"name": "operator",
					"type": "address"
				},
				{
					"indexed": false,
					"internalType": "bool",
					"name": "approved",
					"type": "bool"
				}
			],
			"name": "ApprovalForAll",
			"type": "event"
		},
		{
			"anonymous": false,
			"inputs": [
				{
					"indexed": true,
					"internalType": "uint256",
					"name": "paintingId",
					"type": "uint256"
				},
				{
					"indexed": true,
					"internalType": "uint256",
					"name": "wallId",
					"type": "uint256"
				}
			],
			"name": "PaintingCompleted",
			"type": "event"
		},
		{
			"anonymous": false,
			"inputs": [
				{
					"indexed": true,
					"internalType": "uint256",
					"name": "wallId",
					"type": "uint256"
				},
				{
					"indexed": true,
					"internalType": "address",
					"name": "painter",
					"type": "address"
				}
			],
			"name": "PaintingRequestApproved",
			"type": "event"
		},
		{
			"anonymous": false,
			"inputs": [
				{
					"indexed": true,
					"internalType": "uint256",
					"name": "wallId",
					"type": "uint256"
				},
				{
					"indexed": true,
					"internalType": "address",
					"name": "painter",
					"type": "address"
				}
			],
			"name": "PaintingRequestRejected",
			"type": "event"
		},
		{
			"anonymous": false,
			"inputs": [
				{
					"indexed": true,
					"internalType": "uint256",
					"name": "wallId",
					"type": "uint256"
				},
				{
					"indexed": true,
					"internalType": "address",
					"name": "painter",
					"type": "address"
				}
			],
			"name": "PaintingRequested",
			"type": "event"
		},
		{
			"anonymous": false,
			"inputs": [
				{
					"indexed": false,
					"internalType": "address",
					"name": "account",
					"type": "address"
				}
			],
			"name": "Paused",
			"type": "event"
		},
		{
			"anonymous": false,
			"inputs": [
				{
					"indexed": true,
					"internalType": "uint256",
					"name": "paintingId",
					"type": "uint256"
				}
			],
			"name": "SharesCreated",
			"type": "event"
		},
		{
			"anonymous": false,
			"inputs": [
				{
					"indexed": true,
					"internalType": "address",
					"name": "from",
					"type": "address"
				},
				{
					"indexed": true,
					"internalType": "address",
					"name": "to",
					"type": "address"
				},
				{
					"indexed": true,
					"internalType": "uint256",
					"name": "tokenId",
					"type": "uint256"
				}
			],
			"name": "Transfer",
			"type": "event"
		},
		{
			"anonymous": false,
			"inputs": [
				{
					"indexed": false,
					"internalType": "address",
					"name": "account",
					"type": "address"
				}
			],
			"name": "Unpaused",
			"type": "event"
		},
		{
			"inputs": [
				{
					"internalType": "address",
					"name": "to",
					"type": "address"
				},
				{
					"internalType": "uint256",
					"name": "tokenId",
					"type": "uint256"
				}
			],
			"name": "approve",
			"outputs": [],
			"stateMutability": "nonpayable",
			"type": "function"
		},
		{
			"inputs": [
				{
					"internalType": "uint256",
					"name": "wallId",
					"type": "uint256"
				}
			],
			"name": "approvePaintingRequest",
			"outputs": [],
			"stateMutability": "nonpayable",
			"type": "function"
		},
		{
			"inputs": [
				{
					"internalType": "address",
					"name": "owner",
					"type": "address"
				}
			],
			"name": "balanceOf",
			"outputs": [
				{
					"internalType": "uint256",
					"name": "",
					"type": "uint256"
				}
			],
			"stateMutability": "view",
			"type": "function"
		},
		{
			"inputs": [
				{
					"internalType": "uint256",
					"name": "wallId",
					"type": "uint256"
				}
			],
			"name": "finalizePainting",
			"outputs": [],
			"stateMutability": "nonpayable",
			"type": "function"
		},
		{
			"inputs": [],
			"name": "galleryContract",
			"outputs": [
				{
					"internalType": "contract IGallery",
					"name": "",
					"type": "address"
				}
			],
			"stateMutability": "view",
			"type": "function"
		},
		{
			"inputs": [
				{
					"internalType": "uint256",
					"name": "tokenId",
					"type": "uint256"
				}
			],
			"name": "getApproved",
			"outputs": [
				{
					"internalType": "address",
					"name": "",
					"type": "address"
				}
			],
			"stateMutability": "view",
			"type": "function"
		},
		{
			"inputs": [
				{
					"internalType": "address",
					"name": "owner",
					"type": "address"
				},
				{
					"internalType": "address",
					"name": "operator",
					"type": "address"
				}
			],
			"name": "isApprovedForAll",
			"outputs": [
				{
					"internalType": "bool",
					"name": "",
					"type": "bool"
				}
			],
			"stateMutability": "view",
			"type": "function"
		},
		{
			"inputs": [],
			"name": "name",
			"outputs": [
				{
					"internalType": "string",
					"name": "",
					"type": "string"
				}
			],
			"stateMutability": "view",
			"type": "function"
		},
		{
			"inputs": [
				{
					"internalType": "uint256",
					"name": "tokenId",
					"type": "uint256"
				}
			],
			"name": "ownerOf",
			"outputs": [
				{
					"internalType": "address",
					"name": "",
					"type": "address"
				}
			],
			"stateMutability": "view",
			"type": "function"
		},
		{
			"inputs": [
				{
					"internalType": "address",
					"name": "painter",
					"type": "address"
				}
			],
			"name": "painterAcceptedRequests",
			"outputs": [
				{
					"internalType": "uint256[]",
					"name": "",
					"type": "uint256[]"
				}
			],
			"stateMutability": "view",
			"type": "function"
		},
		{
			"inputs": [
				{
					"internalType": "address",
					"name": "painter",
					"type": "address"
				}
			],
			"name": "painterPendingRequests",
			"outputs": [
				{
					"internalType": "uint256[]",
					"name": "",
					"type": "uint256[]"
				}
			],
			"stateMutability": "view",
			"type": "function"
		},
		{
			"inputs": [
				{
					"internalType": "uint256",
					"name": "",
					"type": "uint256"
				}
			],
			"name": "paintingRequests",
			"outputs": [
				{
					"internalType": "uint256",
					"name": "wallId",
					"type": "uint256"
				},
				{
					"internalType": "address",
					"name": "painter",
					"type": "address"
				},
				{
					"internalType": "string",
					"name": "description",
					"type": "string"
				},
				{
					"internalType": "enum PaintingNFT.PaintingStatus",
					"name": "status",
					"type": "uint8"
				},
				{
					"internalType": "uint256",
					"name": "timestamp",
					"type": "uint256"
				}
			],
			"stateMutability": "view",
			"type": "function"
		},
		{
			"inputs": [],
			"name": "paintingShares",
			"outputs": [
				{
					"internalType": "contract IPaintingShares",
					"name": "",
					"type": "address"
				}
			],
			"stateMutability": "view",
			"type": "function"
		},
		{
			"inputs": [
				{
					"internalType": "uint256",
					"name": "",
					"type": "uint256"
				}
			],
			"name": "paintings",
			"outputs": [
				{
					"internalType": "uint256",
					"name": "id",
					"type": "uint256"
				},
				{
					"internalType": "uint256",
					"name": "wallId",
					"type": "uint256"
				},
				{
					"internalType": "address",
					"name": "painter",
					"type": "address"
				},
				{
					"internalType": "string",
					"name": "description",
					"type": "string"
				},
				{
					"internalType": "bool",
					"name": "sharesMinted",
					"type": "bool"
				},
				{
					"internalType": "uint256",
					"name": "createdAt",
					"type": "uint256"
				}
			],
			"stateMutability": "view",
			"type": "function"
		},
		{
			"inputs": [],
			"name": "pause",
			"outputs": [],
			"stateMutability": "nonpayable",
			"type": "function"
		},
		{
			"inputs": [],
			"name": "paused",
			"outputs": [
				{
					"internalType": "bool",
					"name": "",
					"type": "bool"
				}
			],
			"stateMutability": "view",
			"type": "function"
		},
		{
			"inputs": [
				{
					"internalType": "uint256",
					"name": "wallId",
					"type": "uint256"
				}
			],
			"name": "rejectPaintingRequest",
			"outputs": [],
			"stateMutability": "nonpayable",
			"type": "function"
		},
		{
			"inputs": [
				{
					"internalType": "uint256",
					"name": "wallId",
					"type": "uint256"
				},
				{
					"internalType": "string",
					"name": "description",
					"type": "string"
				}
			],
			"name": "requestPainting",
			"outputs": [],
			"stateMutability": "nonpayable",
			"type": "function"
		},
		{
			"inputs": [],
			"name": "roleManager",
			"outputs": [
				{
					"internalType": "contract IRoleManager",
					"name": "",
					"type": "address"
				}
			],
			"stateMutability": "view",
			"type": "function"
		},
		{
			"inputs": [
				{
					"internalType": "address",
					"name": "from",
					"type": "address"
				},
				{
					"internalType": "address",
					"name": "to",
					"type": "address"
				},
				{
					"internalType": "uint256",
					"name": "tokenId",
					"type": "uint256"
				}
			],
			"name": "safeTransferFrom",
			"outputs": [],
			"stateMutability": "nonpayable",
			"type": "function"
		},
		{
			"inputs": [
				{
					"internalType": "address",
					"name": "from",
					"type": "address"
				},
				{
					"internalType": "address",
					"name": "to",
					"type": "address"
				},
				{
					"internalType": "uint256",
					"name": "tokenId",
					"type": "uint256"
				},
				{
					"internalType": "bytes",
					"name": "data",
					"type": "bytes"
				}
			],
			"name": "safeTransferFrom",
			"outputs": [],
			"stateMutability": "nonpayable",
			"type": "function"
		},
		{
			"inputs": [
				{
					"internalType": "address",
					"name": "operator",
					"type": "address"
				},
				{
					"internalType": "bool",
					"name": "approved",
					"type": "bool"
				}
			],
			"name": "setApprovalForAll",
			"outputs": [],
			"stateMutability": "nonpayable",
			"type": "function"
		},
		{
			"inputs": [
				{
					"internalType": "uint256",
					"name": "wallId",
					"type": "uint256"
				}
			],
			"name": "submitPaintingCompletion",
			"outputs": [],
			"stateMutability": "nonpayable",
			"type": "function"
		},
		{
			"inputs": [
				{
					"internalType": "bytes4",
					"name": "interfaceId",
					"type": "bytes4"
				}
			],
			"name": "supportsInterface",
			"outputs": [
				{
					"internalType": "bool",
					"name": "",
					"type": "bool"
				}
			],
			"stateMutability": "view",
			"type": "function"
		},
		{
			"inputs": [],
			"name": "symbol",
			"outputs": [
				{
					"internalType": "string",
					"name": "",
					"type": "string"
				}
			],
			"stateMutability": "view",
			"type": "function"
		},
		{
			"inputs": [
				{
					"internalType": "uint256",
					"name": "tokenId",
					"type": "uint256"
				}
			],
			"name": "tokenURI",
			"outputs": [
				{
					"internalType": "string",
					"name": "",
					"type": "string"
				}
			],
			"stateMutability": "view",
			"type": "function"
		},
		{
			"inputs": [
				{
					"internalType": "address",
					"name": "from",
					"type": "address"
				},
				{
					"internalType": "address",
					"name": "to",
					"type": "address"
				},
				{
					"internalType": "uint256",
					"name": "tokenId",
					"type": "uint256"
				}
			],
			"name": "transferFrom",
			"outputs": [],
			"stateMutability": "nonpayable",
			"type": "function"
		},
		{
			"inputs": [],
			"name": "unpause",
			"outputs": [],
			"stateMutability": "nonpayable",
			"type": "function"
		},
		{
			"inputs": [],
			"name": "wallContract",
			"outputs": [
				{
					"internalType": "contract IWall",
					"name": "",
					"type": "address"
				}
			],
			"stateMutability": "view",
			"type": "function"
		},
		{
			"inputs": [
				{
					"internalType": "uint256",
					"name": "",
					"type": "uint256"
				}
			],
			"name": "wallPainted",
			"outputs": [
				{
					"internalType": "bool",
					"name": "",
					"type": "bool"
				}
			],
			"stateMutability": "view",
			"type": "function"
		},
		{
			"inputs": [
				{
					"internalType": "uint256",
					"name": "wallId",
					"type": "uint256"
				}
			],
			"name": "wallPaintingPendingRequests",
			"outputs": [
				{
					"internalType": "uint256[]",
					"name": "",
					"type": "uint256[]"
				}
			],
			"stateMutability": "view",
			"type": "function"
		},
		{
			"inputs": [
				{
					"internalType": "uint256",
					"name": "wallId",
					"type": "uint256"
				}
			],
			"name": "wallPaintingPendingSubmits",
			"outputs": [
				{
					"internalType": "uint256[]",
					"name": "",
					"type": "uint256[]"
				}
			],
			"stateMutability": "view",
			"type": "function"
		}
	]
}