{
	"data": {
		"bytecode": {
			"linkReferences": {},
			"object": "610100604052348015610010575f80fd5b5060405161636b38038061636b833981810160405281019061003291906103c7565b6040518060400160405280600d81526020017f57616c6c205061696e74696e67000000000000000000000000000000000000008152506040518060400160405280600681526020017f575041494e540000000000000000000000000000000000000000000000000000815250815f90816100ac9190610665565b5080600190816100bc9190610665565b5050505f60065f6101000a81548160ff0219169083151502179055505f73ffffffffffffffffffffffffffffffffffffffff168473ffffffffffffffffffffffffffffffffffffffff1603610146576040517f08c379a000000000000000000000000000000000000000000000000000000000815260040161013d9061078e565b60405180910390fd5b5f73ffffffffffffffffffffffffffffffffffffffff168373ffffffffffffffffffffffffffffffffffffffff16036101b4576040517f08c379a00000000000000000000000000000000000000000000000000000000081526004016101ab906107f6565b60405180910390fd5b5f73ffffffffffffffffffffffffffffffffffffffff168273ffffffffffffffffffffffffffffffffffffffff1603610222576040517f08c379a00000000000000000000000000000000000000000000000000000000081526004016102199061085e565b60405180910390fd5b5f73ffffffffffffffffffffffffffffffffffffffff168173ffffffffffffffffffffffffffffffffffffffff1603610290576040517f08c379a0000000000000000000000000000000000000000000000000000000008152600401610287906108c6565b60405180910390fd5b8373ffffffffffffffffffffffffffffffffffffffff1660808173ffffffffffffffffffffffffffffffffffffffff16815250508273ffffffffffffffffffffffffffffffffffffffff1660a08173ffffffffffffffffffffffffffffffffffffffff16815250508173ffffffffffffffffffffffffffffffffffffffff1660c08173ffffffffffffffffffffffffffffffffffffffff16815250508073ffffffffffffffffffffffffffffffffffffffff1660e08173ffffffffffffffffffffffffffffffffffffffff1681525050505050506108e4565b5f80fd5b5f73ffffffffffffffffffffffffffffffffffffffff82169050919050565b5f6103968261036d565b9050919050565b6103a68161038c565b81146103b0575f80fd5b50565b5f815190506103c18161039d565b92915050565b5f805f80608085870312156103df576103de610369565b5b5f6103ec878288016103b3565b94505060206103fd878288016103b3565b935050604061040e878288016103b3565b925050606061041f878288016103b3565b91505092959194509250565b5f81519050919050565b7f4e487b71000000000000000000000000000000000000000000000000000000005f52604160045260245ffd5b7f4e487b71000000000000000000000000000000000000000000000000000000005f52602260045260245ffd5b5f60028204905060018216806104a657607f821691505b6020821081036104b9576104b8610462565b5b50919050565b5f819050815f5260205f209050919050565b5f6020601f8301049050919050565b5f82821b905092915050565b5f6008830261051b7fffffffffffffffffffffffffffffffffffffffffffffffffffffffffffffffff826104e0565b61052586836104e0565b95508019841693508086168417925050509392505050565b5f819050919050565b5f819050919050565b5f61056961056461055f8461053d565b610546565b61053d565b9050919050565b5f819050919050565b6105828361054f565b61059661058e82610570565b8484546104ec565b825550505050565b5f90565b6105aa61059e565b6105b5818484610579565b505050565b5b818110156105d8576105cd5f826105a2565b6001810190506105bb565b5050565b601f82111561061d576105ee816104bf565b6105f7846104d1565b81016020851015610606578190505b61061a610612856104d1565b8301826105ba565b50505b505050565b5f82821c905092915050565b5f61063d5f1984600802610622565b1980831691505092915050565b5f610655838361062e565b9150826002028217905092915050565b61066e8261042b565b67ffffffffffffffff81111561068757610686610435565b5b610691825461048f565b61069c8282856105dc565b5f60209050601f8311600181146106cd575f84156106bb578287015190505b6106c5858261064a565b86555061072c565b601f1984166106db866104bf565b5f5b82811015610702578489015182556001820191506020850194506020810190506106dd565b8683101561071f578489015161071b601f89168261062e565b8355505b6001600288020188555050505b505050505050565b5f82825260208201905092915050565b7f496e76616c696420526f6c654d616e61676572206164647265737300000000005f82015250565b5f610778601b83610734565b915061078382610744565b602082019050919050565b5f6020820190508181035f8301526107a58161076c565b9050919050565b7f496e76616c69642057616c6c20636f6e747261637420616464726573730000005f82015250565b5f6107e0601d83610734565b91506107eb826107ac565b602082019050919050565b5f6020820190508181035f83015261080d816107d4565b9050919050565b7f496e76616c69642047616c6c65727920636f6e747261637420616464726573735f82015250565b5f610848602083610734565b915061085382610814565b602082019050919050565b5f6020820190508181035f8301526108758161083c565b9050919050565b7f496e76616c69642053686172657320636f6e74726163742061646472657373005f82015250565b5f6108b0601f83610734565b91506108bb8261087c565b602082019050919050565b5f6020820190508181035f8301526108dd816108a4565b9050919050565b60805160a05160c05160e0516159cf61099c5f395f81816116bd015261371001525f8181611699015281816117c50152818161226d015281816126e50152818161357d015261361f01525f8181611232015281816116e301528181611e570152818161218b0152818161260301526134df01525f8181610658015281816107ec0152818161082801528181610e2c01528181610e6801528181610f9b01528181610fd701528181611acc0152611b0801526159cf5ff3fe608060405234801561000f575f80fd5b50600436106101ed575f3560e01c80637eb4ecb41161010d578063b88d4fde116100a0578063e1f4ab5f1161006f578063e1f4ab5f146105be578063e38da54b146105ee578063e985e9c51461060a578063eb1b1e711461063a576101ed565b8063b88d4fde1461051f578063c7ca6daa1461053b578063c87b56dd14610570578063d815e65f146105a0576101ed565b806395d89b41116100dc57806395d89b4114610493578063a22cb465146104b1578063a245e7ff146104cd578063aad53a8414610501576101ed565b80637eb4ecb41461041f5780638085be021461043d5780638456cb591461045957806389814b9c14610463576101ed565b80633f4ba83a116101855780635c975abb116101545780635c975abb146103835780636352211e146103a157806370a08231146103d157806371d24b7014610401576101ed565b80633f4ba83a1461031157806341bc8b641461031b57806342842e0e146103375780635398cb1414610353576101ed565b8063081812fc116101c1578063081812fc1461027957806308e9c7d7146102a9578063095ea7b3146102d957806323b872dd146102f5576101ed565b8062435da5146101f157806301ffc9a71461020f57806306fdde031461023f578063072e91d91461025d575b5f80fd5b6101f9610656565b6040516102069190613eb8565b60405180910390f35b61022960048036038101906102249190613f37565b61067a565b6040516102369190613f7c565b60405180910390f35b61024761075b565b6040516102549190614005565b60405180910390f35b61027760048036038101906102729190614058565b6107ea565b005b610293600480360381019061028e9190614058565b610aa3565b6040516102a091906140a3565b60405180910390f35b6102c360048036038101906102be91906140e6565b610abe565b6040516102d091906141c8565b60405180910390f35b6102f360048036038101906102ee91906141e8565b610d15565b005b61030f600480360381019061030a9190614226565b610d2b565b005b610319610e2a565b005b610335600480360381019061033091906142d7565b610f99565b005b610351600480360381019061034c9190614226565b611535565b005b61036d60048036038101906103689190614058565b611554565b60405161037a91906141c8565b60405180910390f35b61038b6115bb565b6040516103989190613f7c565b60405180910390f35b6103bb60048036038101906103b69190614058565b6115d0565b6040516103c891906140a3565b60405180910390f35b6103eb60048036038101906103e691906140e6565b6115e1565b6040516103f89190614343565b60405180910390f35b610409611697565b604051610416919061437c565b60405180910390f35b6104276116bb565b60405161043491906143b5565b60405180910390f35b61045760048036038101906104529190614058565b6116df565b005b610461611aca565b005b61047d600480360381019061047891906140e6565b611c39565b60405161048a91906141c8565b60405180910390f35b61049b611ccc565b6040516104a89190614005565b60405180910390f35b6104cb60048036038101906104c691906143f8565b611d5c565b005b6104e760048036038101906104e29190614058565b611d72565b6040516104f89594939291906144a9565b60405180910390f35b610509611e55565b6040516105169190614521565b60405180910390f35b61053960048036038101906105349190614662565b611e79565b005b61055560048036038101906105509190614058565b611e9e565b604051610567969594939291906146e2565b60405180910390f35b61058a60048036038101906105859190614058565b611f87565b6040516105979190614005565b60405180910390f35b6105a8611fed565b6040516105b591906141c8565b60405180910390f35b6105d860048036038101906105d39190614058565b61216a565b6040516105e59190613f7c565b60405180910390f35b61060860048036038101906106039190614058565b612187565b005b610624600480360381019061061f9190614748565b612571565b6040516106319190613f7c565b60405180910390f35b610654600480360381019061064f9190614058565b6125ff565b005b7f000000000000000000000000000000000000000000000000000000000000000081565b5f7f80ac58cd000000000000000000000000000000000000000000000000000000007bffffffffffffffffffffffffffffffffffffffffffffffffffffffff1916827bffffffffffffffffffffffffffffffffffffffffffffffffffffffff1916148061074457507f5b5e139f000000000000000000000000000000000000000000000000000000007bffffffffffffffffffffffffffffffffffffffffffffffffffffffff1916827bffffffffffffffffffffffffffffffffffffffffffffffffffffffff1916145b80610754575061075382612b3a565b5b9050919050565b60605f8054610769906147b3565b80601f0160208091040260200160405190810160405280929190818152602001828054610795906147b3565b80156107e05780601f106107b7576101008083540402835291602001916107e0565b820191905f5260205f20905b8154815290600101906020018083116107c357829003601f168201915b5050505050905090565b7f000000000000000000000000000000000000000000000000000000000000000073ffffffffffffffffffffffffffffffffffffffff166391d148547f000000000000000000000000000000000000000000000000000000000000000073ffffffffffffffffffffffffffffffffffffffff1663303e38406040518163ffffffff1660e01b8152600401602060405180830381865afa15801561088f573d5f803e3d5ffd5b505050506040513d601f19601f820116820180604052508101906108b39190614816565b336040518363ffffffff1660e01b81526004016108d1929190614850565b602060405180830381865afa1580156108ec573d5f803e3d5ffd5b505050506040513d601f19601f82011682018060405250810190610910919061488b565b61094f576040517f08c379a000000000000000000000000000000000000000000000000000000000815260040161094690614900565b60405180910390fd5b610957612ba3565b5f60095f8381526020019081526020015f2090503373ffffffffffffffffffffffffffffffffffffffff16816001015f9054906101000a900473ffffffffffffffffffffffffffffffffffffffff1673ffffffffffffffffffffffffffffffffffffffff16146109fc576040517f08c379a00000000000000000000000000000000000000000000000000000000081526004016109f390614968565b60405180910390fd5b60026003811115610a1057610a0f614436565b5b816003015f9054906101000a900460ff166003811115610a3357610a32614436565b5b14610a73576040517f08c379a0000000000000000000000000000000000000000000000000000000008152600401610a6a906149d0565b60405180910390fd5b6003816003015f6101000a81548160ff02191690836003811115610a9a57610a99614436565b5b02179055505050565b5f610aad82612bed565b50610ab782612c73565b9050919050565b60605f80610acc6007612cac565b90505f600190505b818111610bb4578473ffffffffffffffffffffffffffffffffffffffff1660095f8381526020019081526020015f206001015f9054906101000a900473ffffffffffffffffffffffffffffffffffffffff1673ffffffffffffffffffffffffffffffffffffffff16148015610b8d575060026003811115610b5857610b57614436565b5b60095f8381526020019081526020015f206003015f9054906101000a900460ff166003811115610b8b57610b8a614436565b5b145b15610ba1578280610b9d90614a1b565b9350505b8080610bac90614a1b565b915050610ad4565b505f8267ffffffffffffffff811115610bd057610bcf61453e565b5b604051908082528060200260200182016040528015610bfe5781602001602082028036833780820191505090505b5090505f80600190505b838111610d08578673ffffffffffffffffffffffffffffffffffffffff1660095f8381526020019081526020015f206001015f9054906101000a900473ffffffffffffffffffffffffffffffffffffffff1673ffffffffffffffffffffffffffffffffffffffff16148015610cc1575060026003811115610c8c57610c8b614436565b5b60095f8381526020019081526020015f206003015f9054906101000a900460ff166003811115610cbf57610cbe614436565b5b145b15610cf55780838381518110610cda57610cd9614a62565b5b6020026020010181815250508180610cf190614a1b565b9250505b8080610d0090614a1b565b915050610c08565b5081945050505050919050565b610d278282610d22612cb8565b612cbf565b5050565b5f73ffffffffffffffffffffffffffffffffffffffff168273ffffffffffffffffffffffffffffffffffffffff1603610d9b575f6040517f64a0ae92000000000000000000000000000000000000000000000000000000008152600401610d9291906140a3565b60405180910390fd5b5f610dae8383610da9612cb8565b612cd1565b90508373ffffffffffffffffffffffffffffffffffffffff168173ffffffffffffffffffffffffffffffffffffffff1614610e24578382826040517f64283d7b000000000000000000000000000000000000000000000000000000008152600401610e1b93929190614a8f565b60405180910390fd5b50505050565b7f000000000000000000000000000000000000000000000000000000000000000073ffffffffffffffffffffffffffffffffffffffff166391d148547f000000000000000000000000000000000000000000000000000000000000000073ffffffffffffffffffffffffffffffffffffffff166375b238fc6040518163ffffffff1660e01b8152600401602060405180830381865afa158015610ecf573d5f803e3d5ffd5b505050506040513d601f19601f82011682018060405250810190610ef39190614816565b336040518363ffffffff1660e01b8152600401610f11929190614850565b602060405180830381865afa158015610f2c573d5f803e3d5ffd5b505050506040513d601f19601f82011682018060405250810190610f50919061488b565b610f8f576040517f08c379a0000000000000000000000000000000000000000000000000000000008152600401610f8690614b0e565b60405180910390fd5b610f97612edc565b565b7f000000000000000000000000000000000000000000000000000000000000000073ffffffffffffffffffffffffffffffffffffffff166391d148547f000000000000000000000000000000000000000000000000000000000000000073ffffffffffffffffffffffffffffffffffffffff1663303e38406040518163ffffffff1660e01b8152600401602060405180830381865afa15801561103e573d5f803e3d5ffd5b505050506040513d601f19601f820116820180604052508101906110629190614816565b336040518363ffffffff1660e01b8152600401611080929190614850565b602060405180830381865afa15801561109b573d5f803e3d5ffd5b505050506040513d601f19601f820116820180604052508101906110bf919061488b565b6110fe576040517f08c379a00000000000000000000000000000000000000000000000000000000081526004016110f590614900565b60405180910390fd5b611106612ba3565b5f828290501161114b576040517f08c379a000000000000000000000000000000000000000000000000000000000815260040161114290614b76565b60405180910390fd5b600a5f8481526020019081526020015f205f9054906101000a900460ff16156111a9576040517f08c379a00000000000000000000000000000000000000000000000000000000081526004016111a090614bde565b60405180910390fd5b5f60038111156111bc576111bb614436565b5b60095f8581526020019081526020015f206003015f9054906101000a900460ff1660038111156111ef576111ee614436565b5b1461122f576040517f08c379a000000000000000000000000000000000000000000000000000000000815260040161122690614c46565b60405180910390fd5b5f7f000000000000000000000000000000000000000000000000000000000000000073ffffffffffffffffffffffffffffffffffffffff1663ff91e489856040518263ffffffff1660e01b81526004016112899190614343565b5f60405180830381865afa1580156112a3573d5f803e3d5ffd5b505050506040513d5f823e3d601f19601f820116820180604052508101906112cb9190614f3b565b90508060a00151611311576040517f08c379a000000000000000000000000000000000000000000000000000000000815260040161130890614fcc565b60405180910390fd5b6040518060a001604052808581526020013373ffffffffffffffffffffffffffffffffffffffff16815260200184848080601f0160208091040260200160405190810160405280939291908181526020018383808284375f81840152601f19601f8201169050808301925050505050505081526020016001600381111561139b5761139a614436565b5b81526020014281525060095f8681526020019081526020015f205f820151815f01556020820151816001015f6101000a81548173ffffffffffffffffffffffffffffffffffffffff021916908373ffffffffffffffffffffffffffffffffffffffff1602179055506040820151816002019081611418919061517e565b506060820151816003015f6101000a81548160ff0219169083600381111561144357611442614436565b5b021790555060808201518160040155905050600b5f3373ffffffffffffffffffffffffffffffffffffffff1673ffffffffffffffffffffffffffffffffffffffff1681526020019081526020015f2084908060018154018082558091505060019003905f5260205f20015f9091909190915055600c5f8581526020019081526020015f2084908060018154018082558091505060019003905f5260205f20015f90919091909150553373ffffffffffffffffffffffffffffffffffffffff16847f2c01190deb24fe5101a0373e8ee0ed3438853aaffeaf7fa5ca1c8db13d9e32b960405160405180910390a350505050565b61154f83838360405180602001604052805f815250611e79565b505050565b6060600c5f8381526020019081526020015f208054806020026020016040519081016040528092919081815260200182805480156115af57602002820191905f5260205f20905b81548152602001906001019080831161159b575b50505050509050919050565b5f60065f9054906101000a900460ff16905090565b5f6115da82612bed565b9050919050565b5f8073ffffffffffffffffffffffffffffffffffffffff168273ffffffffffffffffffffffffffffffffffffffff1603611652575f6040517f89c62b6400000000000000000000000000000000000000000000000000000000815260040161164991906140a3565b60405180910390fd5b60035f8373ffffffffffffffffffffffffffffffffffffffff1673ffffffffffffffffffffffffffffffffffffffff1681526020019081526020015f20549050919050565b7f000000000000000000000000000000000000000000000000000000000000000081565b7f000000000000000000000000000000000000000000000000000000000000000081565b805f7f000000000000000000000000000000000000000000000000000000000000000073ffffffffffffffffffffffffffffffffffffffff1663ff91e489836040518263ffffffff1660e01b815260040161173a9190614343565b5f60405180830381865afa158015611754573d5f803e3d5ffd5b505050506040513d5f823e3d601f19601f8201168201806040525081019061177c9190614f3b565b90508060a001516117c2576040517f08c379a00000000000000000000000000000000000000000000000000000000081526004016117b990614fcc565b60405180910390fd5b5f7f000000000000000000000000000000000000000000000000000000000000000073ffffffffffffffffffffffffffffffffffffffff1663e3fbf3148360c001516040518263ffffffff1660e01b81526004016118209190614343565b5f60405180830381865afa15801561183a573d5f803e3d5ffd5b505050506040513d5f823e3d601f19601f82011682018060405250810190611862919061534c565b90508060a001516118a8576040517f08c379a000000000000000000000000000000000000000000000000000000000815260040161189f906153dd565b60405180910390fd5b806060015173ffffffffffffffffffffffffffffffffffffffff163373ffffffffffffffffffffffffffffffffffffffff161461191a576040517f08c379a000000000000000000000000000000000000000000000000000000000815260040161191190615445565b60405180910390fd5b611922612ba3565b5f60095f8681526020019081526020015f2090506001600381111561194a57611949614436565b5b816003015f9054906101000a900460ff16600381111561196d5761196c614436565b5b146119ad576040517f08c379a00000000000000000000000000000000000000000000000000000000081526004016119a4906154ad565b60405180910390fd5b6002816003015f6101000a81548160ff021916908360038111156119d4576119d3614436565b5b0217905550611a42600b5f836001015f9054906101000a900473ffffffffffffffffffffffffffffffffffffffff1673ffffffffffffffffffffffffffffffffffffffff1673ffffffffffffffffffffffffffffffffffffffff1681526020019081526020015f2086612f3d565b611a5c600c5f8781526020019081526020015f2086612f3d565b806001015f9054906101000a900473ffffffffffffffffffffffffffffffffffffffff1673ffffffffffffffffffffffffffffffffffffffff16857fe90f4a07e9a9af1dd1030380992296ac79b9aea4f6705f8365f9df1bcbf3ad4c60405160405180910390a35050505050565b7f000000000000000000000000000000000000000000000000000000000000000073ffffffffffffffffffffffffffffffffffffffff166391d148547f000000000000000000000000000000000000000000000000000000000000000073ffffffffffffffffffffffffffffffffffffffff166375b238fc6040518163ffffffff1660e01b8152600401602060405180830381865afa158015611b6f573d5f803e3d5ffd5b505050506040513d601f19601f82011682018060405250810190611b939190614816565b336040518363ffffffff1660e01b8152600401611bb1929190614850565b602060405180830381865afa158015611bcc573d5f803e3d5ffd5b505050506040513d601f19601f82011682018060405250810190611bf0919061488b565b611c2f576040517f08c379a0000000000000000000000000000000000000000000000000000000008152600401611c2690614b0e565b60405180910390fd5b611c37612ff3565b565b6060600b5f8373ffffffffffffffffffffffffffffffffffffffff1673ffffffffffffffffffffffffffffffffffffffff1681526020019081526020015f20805480602002602001604051908101604052809291908181526020018280548015611cc057602002820191905f5260205f20905b815481526020019060010190808311611cac575b50505050509050919050565b606060018054611cdb906147b3565b80601f0160208091040260200160405190810160405280929190818152602001828054611d07906147b3565b8015611d525780601f10611d2957610100808354040283529160200191611d52565b820191905f5260205f20905b815481529060010190602001808311611d3557829003601f168201915b5050505050905090565b611d6e611d67612cb8565b8383613055565b5050565b6009602052805f5260405f205f91509050805f015490806001015f9054906101000a900473ffffffffffffffffffffffffffffffffffffffff1690806002018054611dbc906147b3565b80601f0160208091040260200160405190810160405280929190818152602001828054611de8906147b3565b8015611e335780601f10611e0a57610100808354040283529160200191611e33565b820191905f5260205f20905b815481529060010190602001808311611e1657829003601f168201915b505050505090806003015f9054906101000a900460ff16908060040154905085565b7f000000000000000000000000000000000000000000000000000000000000000081565b611e84848484610d2b565b611e98611e8f612cb8565b858585856131be565b50505050565b6008602052805f5260405f205f91509050805f015490806001015490806002015f9054906101000a900473ffffffffffffffffffffffffffffffffffffffff1690806003018054611eee906147b3565b80601f0160208091040260200160405190810160405280929190818152602001828054611f1a906147b3565b8015611f655780601f10611f3c57610100808354040283529160200191611f65565b820191905f5260205f20905b815481529060010190602001808311611f4857829003601f168201915b505050505090806004015f9054906101000a900460ff16908060050154905086565b6060611f9282612bed565b505f611f9c61336a565b90505f815111611fba5760405180602001604052805f815250611fe5565b80611fc484613380565b604051602001611fd5929190615505565b6040516020818303038152906040525b915050919050565b60605f80611ffb6007612cac565b90505f600190505b8181116120775760038081111561201d5761201c614436565b5b60095f8381526020019081526020015f206003015f9054906101000a900460ff1660038111156120505761204f614436565b5b0361206457828061206090614a1b565b9350505b808061206f90614a1b565b915050612003565b505f8267ffffffffffffffff8111156120935761209261453e565b5b6040519080825280602002602001820160405280156120c15781602001602082028036833780820191505090505b5090505f80600190505b83811161215f576003808111156120e5576120e4614436565b5b60095f8381526020019081526020015f206003015f9054906101000a900460ff16600381111561211857612117614436565b5b0361214c578083838151811061213157612130614a62565b5b602002602001018181525050818061214890614a1b565b9250505b808061215790614a1b565b9150506120cb565b508194505050505090565b600a602052805f5260405f205f915054906101000a900460ff1681565b805f7f000000000000000000000000000000000000000000000000000000000000000073ffffffffffffffffffffffffffffffffffffffff1663ff91e489836040518263ffffffff1660e01b81526004016121e29190614343565b5f60405180830381865afa1580156121fc573d5f803e3d5ffd5b505050506040513d5f823e3d601f19601f820116820180604052508101906122249190614f3b565b90508060a0015161226a576040517f08c379a000000000000000000000000000000000000000000000000000000000815260040161226190614fcc565b60405180910390fd5b5f7f000000000000000000000000000000000000000000000000000000000000000073ffffffffffffffffffffffffffffffffffffffff1663e3fbf3148360c001516040518263ffffffff1660e01b81526004016122c89190614343565b5f60405180830381865afa1580156122e2573d5f803e3d5ffd5b505050506040513d5f823e3d601f19601f8201168201806040525081019061230a919061534c565b90508060a00151612350576040517f08c379a0000000000000000000000000000000000000000000000000000000008152600401612347906153dd565b60405180910390fd5b806060015173ffffffffffffffffffffffffffffffffffffffff163373ffffffffffffffffffffffffffffffffffffffff16146123c2576040517f08c379a00000000000000000000000000000000000000000000000000000000081526004016123b990615445565b60405180910390fd5b6123ca612ba3565b5f60095f8681526020019081526020015f209050600160038111156123f2576123f1614436565b5b816003015f9054906101000a900460ff16600381111561241557612414614436565b5b14612455576040517f08c379a000000000000000000000000000000000000000000000000000000000815260040161244c906154ad565b60405180910390fd5b5f816003015f6101000a81548160ff0219169083600381111561247b5761247a614436565b5b02179055506124e9600b5f836001015f9054906101000a900473ffffffffffffffffffffffffffffffffffffffff1673ffffffffffffffffffffffffffffffffffffffff1673ffffffffffffffffffffffffffffffffffffffff1681526020019081526020015f2086612f3d565b612503600c5f8781526020019081526020015f2086612f3d565b806001015f9054906101000a900473ffffffffffffffffffffffffffffffffffffffff1673ffffffffffffffffffffffffffffffffffffffff16857f8ab069580156e517907e83c0c2a44bbad72364aa9544e12aa96ba9ec2b091a8c60405160405180910390a35050505050565b5f60055f8473ffffffffffffffffffffffffffffffffffffffff1673ffffffffffffffffffffffffffffffffffffffff1681526020019081526020015f205f8373ffffffffffffffffffffffffffffffffffffffff1673ffffffffffffffffffffffffffffffffffffffff1681526020019081526020015f205f9054906101000a900460ff16905092915050565b805f7f000000000000000000000000000000000000000000000000000000000000000073ffffffffffffffffffffffffffffffffffffffff1663ff91e489836040518263ffffffff1660e01b815260040161265a9190614343565b5f60405180830381865afa158015612674573d5f803e3d5ffd5b505050506040513d5f823e3d601f19601f8201168201806040525081019061269c9190614f3b565b90508060a001516126e2576040517f08c379a00000000000000000000000000000000000000000000000000000000081526004016126d990614fcc565b60405180910390fd5b5f7f000000000000000000000000000000000000000000000000000000000000000073ffffffffffffffffffffffffffffffffffffffff1663e3fbf3148360c001516040518263ffffffff1660e01b81526004016127409190614343565b5f60405180830381865afa15801561275a573d5f803e3d5ffd5b505050506040513d5f823e3d601f19601f82011682018060405250810190612782919061534c565b90508060a001516127c8576040517f08c379a00000000000000000000000000000000000000000000000000000000081526004016127bf906153dd565b60405180910390fd5b806060015173ffffffffffffffffffffffffffffffffffffffff163373ffffffffffffffffffffffffffffffffffffffff161461283a576040517f08c379a000000000000000000000000000000000000000000000000000000000815260040161283190615445565b60405180910390fd5b612842612ba3565b5f60095f8681526020019081526020015f20905060038081111561286957612868614436565b5b816003015f9054906101000a900460ff16600381111561288c5761288b614436565b5b146128cc576040517f08c379a00000000000000000000000000000000000000000000000000000000081526004016128c390615572565b60405180910390fd5b6128d6600761344a565b5f6128e16007612cac565b9050612910826001015f9054906101000a900473ffffffffffffffffffffffffffffffffffffffff168261345e565b6040518060c00160405280828152602001878152602001836001015f9054906101000a900473ffffffffffffffffffffffffffffffffffffffff1673ffffffffffffffffffffffffffffffffffffffff168152602001836002018054612975906147b3565b80601f01602080910402602001604051908101604052809291908181526020018280546129a1906147b3565b80156129ec5780601f106129c3576101008083540402835291602001916129ec565b820191905f5260205f20905b8154815290600101906020018083116129cf57829003601f168201915b505050505081526020015f151581526020014281525060085f8381526020019081526020015f205f820151815f0155602082015181600101556040820151816002015f6101000a81548173ffffffffffffffffffffffffffffffffffffffff021916908373ffffffffffffffffffffffffffffffffffffffff1602179055506060820151816003019081612a80919061517e565b506080820151816004015f6101000a81548160ff02191690831515021790555060a082015181600501559050506001600a5f8881526020019081526020015f205f6101000a81548160ff021916908315150217905550612b048187846001015f9054906101000a900473ffffffffffffffffffffffffffffffffffffffff1661347b565b85817f5a49448ef5c36af17b1aeb44ac91d414aa5cc30977940fa1a5b216f936a804d260405160405180910390a3505050505050565b5f7f01ffc9a7000000000000000000000000000000000000000000000000000000007bffffffffffffffffffffffffffffffffffffffffffffffffffffffff1916827bffffffffffffffffffffffffffffffffffffffffffffffffffffffff1916149050919050565b612bab6115bb565b15612beb576040517f08c379a0000000000000000000000000000000000000000000000000000000008152600401612be2906155da565b60405180910390fd5b565b5f80612bf883613813565b90505f73ffffffffffffffffffffffffffffffffffffffff168173ffffffffffffffffffffffffffffffffffffffff1603612c6a57826040517f7e273289000000000000000000000000000000000000000000000000000000008152600401612c619190614343565b60405180910390fd5b80915050919050565b5f60045f8381526020019081526020015f205f9054906101000a900473ffffffffffffffffffffffffffffffffffffffff169050919050565b5f815f01549050919050565b5f33905090565b612ccc838383600161384c565b505050565b5f80612cdc84613813565b90505f73ffffffffffffffffffffffffffffffffffffffff168373ffffffffffffffffffffffffffffffffffffffff1614612d1d57612d1c818486613a0b565b5b5f73ffffffffffffffffffffffffffffffffffffffff168173ffffffffffffffffffffffffffffffffffffffff1614612da857612d5c5f855f8061384c565b600160035f8373ffffffffffffffffffffffffffffffffffffffff1673ffffffffffffffffffffffffffffffffffffffff1681526020019081526020015f205f82825403925050819055505b5f73ffffffffffffffffffffffffffffffffffffffff168573ffffffffffffffffffffffffffffffffffffffff1614612e2757600160035f8773ffffffffffffffffffffffffffffffffffffffff1673ffffffffffffffffffffffffffffffffffffffff1681526020019081526020015f205f82825401925050819055505b8460025f8681526020019081526020015f205f6101000a81548173ffffffffffffffffffffffffffffffffffffffff021916908373ffffffffffffffffffffffffffffffffffffffff160217905550838573ffffffffffffffffffffffffffffffffffffffff168273ffffffffffffffffffffffffffffffffffffffff167fddf252ad1be2c89b69c2b068fc378daa952ba7f163c4a11628f55a4df523b3ef60405160405180910390a4809150509392505050565b612ee4613ace565b5f60065f6101000a81548160ff0219169083151502179055507f5db9ee0a495bf2e6ff9c91a7834c1ba4fdd244a5e8aa4e537bd38aeae4b073aa612f26612cb8565b604051612f3391906140a3565b60405180910390a1565b5f5b8280549050811015612fee5781838281548110612f5f57612f5e614a62565b5b905f5260205f20015403612fe1578260018480549050612f7f91906155f8565b81548110612f9057612f8f614a62565b5b905f5260205f200154838281548110612fac57612fab614a62565b5b905f5260205f20018190555082805480612fc957612fc861562b565b5b600190038181905f5260205f20015f90559055612fee565b8080600101915050612f3f565b505050565b612ffb612ba3565b600160065f6101000a81548160ff0219169083151502179055507f62e78cea01bee320cd4e420270b5ea74000d11b0c9f74754ebdbfc544b05a25861303e612cb8565b60405161304b91906140a3565b60405180910390a1565b5f73ffffffffffffffffffffffffffffffffffffffff168273ffffffffffffffffffffffffffffffffffffffff16036130c557816040517f5b08ba180000000000000000000000000000000000000000000000000000000081526004016130bc91906140a3565b60405180910390fd5b8060055f8573ffffffffffffffffffffffffffffffffffffffff1673ffffffffffffffffffffffffffffffffffffffff1681526020019081526020015f205f8473ffffffffffffffffffffffffffffffffffffffff1673ffffffffffffffffffffffffffffffffffffffff1681526020019081526020015f205f6101000a81548160ff0219169083151502179055508173ffffffffffffffffffffffffffffffffffffffff168373ffffffffffffffffffffffffffffffffffffffff167f17307eab39ab6107e8899845ad3d59bd9653f200f220920489ca2b5937696c31836040516131b19190613f7c565b60405180910390a3505050565b5f8373ffffffffffffffffffffffffffffffffffffffff163b1115613363578273ffffffffffffffffffffffffffffffffffffffff1663150b7a02868685856040518563ffffffff1660e01b815260040161321c94939291906156aa565b6020604051808303815f875af192505050801561325757506040513d601f19601f820116820180604052508101906132549190615708565b60015b6132d8573d805f8114613285576040519150601f19603f3d011682016040523d82523d5f602084013e61328a565b606091505b505f8151036132d057836040517f64a0ae920000000000000000000000000000000000000000000000000000000081526004016132c791906140a3565b60405180910390fd5b805181602001fd5b63150b7a0260e01b7bffffffffffffffffffffffffffffffffffffffffffffffffffffffff1916817bffffffffffffffffffffffffffffffffffffffffffffffffffffffff19161461336157836040517f64a0ae9200000000000000000000000000000000000000000000000000000000815260040161335891906140a3565b60405180910390fd5b505b5050505050565b606060405180602001604052805f815250905090565b60605f600161338e84613b17565b0190505f8167ffffffffffffffff8111156133ac576133ab61453e565b5b6040519080825280601f01601f1916602001820160405280156133de5781602001600182028036833780820191505090505b5090505f82602001820190505b60011561343f578080600190039150507f3031323334353637383961626364656600000000000000000000000000000000600a86061a8153600a858161343457613433615733565b5b0494505f85036133eb575b819350505050919050565b6001815f015f828254019250508190555050565b613477828260405180602001604052805f815250613c68565b5050565b60085f8481526020019081526020015f206004015f9054906101000a900460ff16156134dc576040517f08c379a00000000000000000000000000000000000000000000000000000000081526004016134d3906157aa565b60405180910390fd5b5f7f000000000000000000000000000000000000000000000000000000000000000073ffffffffffffffffffffffffffffffffffffffff1663ff91e489846040518263ffffffff1660e01b81526004016135369190614343565b5f60405180830381865afa158015613550573d5f803e3d5ffd5b505050506040513d5f823e3d601f19601f820116820180604052508101906135789190614f3b565b90505f7f000000000000000000000000000000000000000000000000000000000000000073ffffffffffffffffffffffffffffffffffffffff1663e3fbf3148360c001516040518263ffffffff1660e01b81526004016135d89190614343565b5f60405180830381865afa1580156135f2573d5f803e3d5ffd5b505050506040513d5f823e3d601f19601f8201168201806040525081019061361a919061534c565b90505f7f000000000000000000000000000000000000000000000000000000000000000073ffffffffffffffffffffffffffffffffffffffff16631f7418976040518163ffffffff1660e01b8152600401602060405180830381865afa158015613686573d5f803e3d5ffd5b505050506040513d601f19601f820116820180604052508101906136aa91906157c8565b9050606482608001518460800151836136c391906157f3565b6136cd91906157f3565b111561370e576040517f08c379a000000000000000000000000000000000000000000000000000000000815260040161370590615870565b60405180910390fd5b7f000000000000000000000000000000000000000000000000000000000000000073ffffffffffffffffffffffffffffffffffffffff166317ba1245875f8660200151866060015189878a608001518a608001516040518963ffffffff1660e01b815260040161378598979695949392919061588e565b5f604051808303815f87803b15801561379c575f80fd5b505af11580156137ae573d5f803e3d5ffd5b50505050600160085f8881526020019081526020015f206004015f6101000a81548160ff021916908315150217905550857f02deede74b5d808c4427b3b6f5c19347053842f97802787be8edf94f1c9714e860405160405180910390a2505050505050565b5f60025f8381526020019081526020015f205f9054906101000a900473ffffffffffffffffffffffffffffffffffffffff169050919050565b808061388457505f73ffffffffffffffffffffffffffffffffffffffff168273ffffffffffffffffffffffffffffffffffffffff1614155b156139b6575f61389384612bed565b90505f73ffffffffffffffffffffffffffffffffffffffff168373ffffffffffffffffffffffffffffffffffffffff16141580156138fd57508273ffffffffffffffffffffffffffffffffffffffff168173ffffffffffffffffffffffffffffffffffffffff1614155b8015613910575061390e8184612571565b155b1561395257826040517fa9fbf51f00000000000000000000000000000000000000000000000000000000815260040161394991906140a3565b60405180910390fd5b81156139b457838573ffffffffffffffffffffffffffffffffffffffff168273ffffffffffffffffffffffffffffffffffffffff167f8c5be1e5ebec7d5bd14f71427d1e84f3dd0314c0f7b2291e5b200ac8c7c3b92560405160405180910390a45b505b8360045f8581526020019081526020015f205f6101000a81548173ffffffffffffffffffffffffffffffffffffffff021916908373ffffffffffffffffffffffffffffffffffffffff16021790555050505050565b613a16838383613c8b565b613ac9575f73ffffffffffffffffffffffffffffffffffffffff168373ffffffffffffffffffffffffffffffffffffffff1603613a8a57806040517f7e273289000000000000000000000000000000000000000000000000000000008152600401613a819190614343565b60405180910390fd5b81816040517f177e802f000000000000000000000000000000000000000000000000000000008152600401613ac092919061590a565b60405180910390fd5b505050565b613ad66115bb565b613b15576040517f08c379a0000000000000000000000000000000000000000000000000000000008152600401613b0c9061597b565b60405180910390fd5b565b5f805f90507a184f03e93ff9f4daa797ed6e38ed64bf6a1f0100000000000000008310613b73577a184f03e93ff9f4daa797ed6e38ed64bf6a1f0100000000000000008381613b6957613b68615733565b5b0492506040810190505b6d04ee2d6d415b85acef81000000008310613bb0576d04ee2d6d415b85acef81000000008381613ba657613ba5615733565b5b0492506020810190505b662386f26fc100008310613bdf57662386f26fc100008381613bd557613bd4615733565b5b0492506010810190505b6305f5e1008310613c08576305f5e1008381613bfe57613bfd615733565b5b0492506008810190505b6127108310613c2d576127108381613c2357613c22615733565b5b0492506004810190505b60648310613c505760648381613c4657613c45615733565b5b0492506002810190505b600a8310613c5f576001810190505b80915050919050565b613c728383613d4b565b613c86613c7d612cb8565b5f8585856131be565b505050565b5f8073ffffffffffffffffffffffffffffffffffffffff168373ffffffffffffffffffffffffffffffffffffffff1614158015613d4257508273ffffffffffffffffffffffffffffffffffffffff168473ffffffffffffffffffffffffffffffffffffffff161480613d035750613d028484612571565b5b80613d4157508273ffffffffffffffffffffffffffffffffffffffff16613d2983612c73565b73ffffffffffffffffffffffffffffffffffffffff16145b5b90509392505050565b5f73ffffffffffffffffffffffffffffffffffffffff168273ffffffffffffffffffffffffffffffffffffffff1603613dbb575f6040517f64a0ae92000000000000000000000000000000000000000000000000000000008152600401613db291906140a3565b60405180910390fd5b5f613dc783835f612cd1565b90505f73ffffffffffffffffffffffffffffffffffffffff168173ffffffffffffffffffffffffffffffffffffffff1614613e39575f6040517f73c6ac6e000000000000000000000000000000000000000000000000000000008152600401613e3091906140a3565b60405180910390fd5b505050565b5f73ffffffffffffffffffffffffffffffffffffffff82169050919050565b5f819050919050565b5f613e80613e7b613e7684613e3e565b613e5d565b613e3e565b9050919050565b5f613e9182613e66565b9050919050565b5f613ea282613e87565b9050919050565b613eb281613e98565b82525050565b5f602082019050613ecb5f830184613ea9565b92915050565b5f604051905090565b5f80fd5b5f80fd5b5f7fffffffff0000000000000000000000000000000000000000000000000000000082169050919050565b613f1681613ee2565b8114613f20575f80fd5b50565b5f81359050613f3181613f0d565b92915050565b5f60208284031215613f4c57613f4b613eda565b5b5f613f5984828501613f23565b91505092915050565b5f8115159050919050565b613f7681613f62565b82525050565b5f602082019050613f8f5f830184613f6d565b92915050565b5f81519050919050565b5f82825260208201905092915050565b8281835e5f83830152505050565b5f601f19601f8301169050919050565b5f613fd782613f95565b613fe18185613f9f565b9350613ff1818560208601613faf565b613ffa81613fbd565b840191505092915050565b5f6020820190508181035f83015261401d8184613fcd565b905092915050565b5f819050919050565b61403781614025565b8114614041575f80fd5b50565b5f813590506140528161402e565b92915050565b5f6020828403121561406d5761406c613eda565b5b5f61407a84828501614044565b91505092915050565b5f61408d82613e3e565b9050919050565b61409d81614083565b82525050565b5f6020820190506140b65f830184614094565b92915050565b6140c581614083565b81146140cf575f80fd5b50565b5f813590506140e0816140bc565b92915050565b5f602082840312156140fb576140fa613eda565b5b5f614108848285016140d2565b91505092915050565b5f81519050919050565b5f82825260208201905092915050565b5f819050602082019050919050565b61414381614025565b82525050565b5f614154838361413a565b60208301905092915050565b5f602082019050919050565b5f61417682614111565b614180818561411b565b935061418b8361412b565b805f5b838110156141bb5781516141a28882614149565b97506141ad83614160565b92505060018101905061418e565b5085935050505092915050565b5f6020820190508181035f8301526141e0818461416c565b905092915050565b5f80604083850312156141fe576141fd613eda565b5b5f61420b858286016140d2565b925050602061421c85828601614044565b9150509250929050565b5f805f6060848603121561423d5761423c613eda565b5b5f61424a868287016140d2565b935050602061425b868287016140d2565b925050604061426c86828701614044565b9150509250925092565b5f80fd5b5f80fd5b5f80fd5b5f8083601f84011261429757614296614276565b5b8235905067ffffffffffffffff8111156142b4576142b361427a565b5b6020830191508360018202830111156142d0576142cf61427e565b5b9250929050565b5f805f604084860312156142ee576142ed613eda565b5b5f6142fb86828701614044565b935050602084013567ffffffffffffffff81111561431c5761431b613ede565b5b61432886828701614282565b92509250509250925092565b61433d81614025565b82525050565b5f6020820190506143565f830184614334565b92915050565b5f61436682613e87565b9050919050565b6143768161435c565b82525050565b5f60208201905061438f5f83018461436d565b92915050565b5f61439f82613e87565b9050919050565b6143af81614395565b82525050565b5f6020820190506143c85f8301846143a6565b92915050565b6143d781613f62565b81146143e1575f80fd5b50565b5f813590506143f2816143ce565b92915050565b5f806040838503121561440e5761440d613eda565b5b5f61441b858286016140d2565b925050602061442c858286016143e4565b9150509250929050565b7f4e487b71000000000000000000000000000000000000000000000000000000005f52602160045260245ffd5b6004811061447457614473614436565b5b50565b5f81905061448482614463565b919050565b5f61449382614477565b9050919050565b6144a381614489565b82525050565b5f60a0820190506144bc5f830188614334565b6144c96020830187614094565b81810360408301526144db8186613fcd565b90506144ea606083018561449a565b6144f76080830184614334565b9695505050505050565b5f61450b82613e87565b9050919050565b61451b81614501565b82525050565b5f6020820190506145345f830184614512565b92915050565b5f80fd5b7f4e487b71000000000000000000000000000000000000000000000000000000005f52604160045260245ffd5b61457482613fbd565b810181811067ffffffffffffffff821117156145935761459261453e565b5b80604052505050565b5f6145a5613ed1565b90506145b1828261456b565b919050565b5f67ffffffffffffffff8211156145d0576145cf61453e565b5b6145d982613fbd565b9050602081019050919050565b828183375f83830152505050565b5f614606614601846145b6565b61459c565b9050828152602081018484840111156146225761462161453a565b5b61462d8482856145e6565b509392505050565b5f82601f83011261464957614648614276565b5b81356146598482602086016145f4565b91505092915050565b5f805f806080858703121561467a57614679613eda565b5b5f614687878288016140d2565b9450506020614698878288016140d2565b93505060406146a987828801614044565b925050606085013567ffffffffffffffff8111156146ca576146c9613ede565b5b6146d687828801614635565b91505092959194509250565b5f60c0820190506146f55f830189614334565b6147026020830188614334565b61470f6040830187614094565b81810360608301526147218186613fcd565b90506147306080830185613f6d565b61473d60a0830184614334565b979650505050505050565b5f806040838503121561475e5761475d613eda565b5b5f61476b858286016140d2565b925050602061477c858286016140d2565b9150509250929050565b7f4e487b71000000000000000000000000000000000000000000000000000000005f52602260045260245ffd5b5f60028204905060018216806147ca57607f821691505b6020821081036147dd576147dc614786565b5b50919050565b5f819050919050565b6147f5816147e3565b81146147ff575f80fd5b50565b5f81519050614810816147ec565b92915050565b5f6020828403121561482b5761482a613eda565b5b5f61483884828501614802565b91505092915050565b61484a816147e3565b82525050565b5f6040820190506148635f830185614841565b6148706020830184614094565b9392505050565b5f81519050614885816143ce565b92915050565b5f602082840312156148a05761489f613eda565b5b5f6148ad84828501614877565b91505092915050565b7f4d7573742068617665205041494e5445525f524f4c45000000000000000000005f82015250565b5f6148ea601683613f9f565b91506148f5826148b6565b602082019050919050565b5f6020820190508181035f830152614917816148de565b9050919050565b7f4e6f742061737369676e6564207061696e7465720000000000000000000000005f82015250565b5f614952601483613f9f565b915061495d8261491e565b602082019050919050565b5f6020820190508181035f83015261497f81614946565b9050919050565b7f4e6f7420696e2070726f636573730000000000000000000000000000000000005f82015250565b5f6149ba600e83613f9f565b91506149c582614986565b602082019050919050565b5f6020820190508181035f8301526149e7816149ae565b9050919050565b7f4e487b71000000000000000000000000000000000000000000000000000000005f52601160045260245ffd5b5f614a2582614025565b91507fffffffffffffffffffffffffffffffffffffffffffffffffffffffffffffffff8203614a5757614a566149ee565b5b600182019050919050565b7f4e487b71000000000000000000000000000000000000000000000000000000005f52603260045260245ffd5b5f606082019050614aa25f830186614094565b614aaf6020830185614334565b614abc6040830184614094565b949350505050565b7f4d75737420686176652041444d494e5f524f4c450000000000000000000000005f82015250565b5f614af8601483613f9f565b9150614b0382614ac4565b602082019050919050565b5f6020820190508181035f830152614b2581614aec565b9050919050565b7f4465736372697074696f6e2063616e6e6f7420626520656d70747900000000005f82015250565b5f614b60601b83613f9f565b9150614b6b82614b2c565b602082019050919050565b5f6020820190508181035f830152614b8d81614b54565b9050919050565b7f57616c6c20616c7265616479207061696e7465640000000000000000000000005f82015250565b5f614bc8601483613f9f565b9150614bd382614b94565b602082019050919050565b5f6020820190508181035f830152614bf581614bbc565b9050919050565b7f52657175657374206578697374730000000000000000000000000000000000005f82015250565b5f614c30600e83613f9f565b9150614c3b82614bfc565b602082019050919050565b5f6020820190508181035f830152614c5d81614c24565b9050919050565b5f80fd5b5f80fd5b5f81519050614c7a8161402e565b92915050565b5f81519050614c8e816140bc565b92915050565b5f67ffffffffffffffff821115614cae57614cad61453e565b5b614cb782613fbd565b9050602081019050919050565b5f614cd6614cd184614c94565b61459c565b905082815260208101848484011115614cf257614cf161453a565b5b614cfd848285613faf565b509392505050565b5f82601f830112614d1957614d18614276565b5b8151614d29848260208601614cc4565b91505092915050565b5f819050919050565b614d4481614d32565b8114614d4e575f80fd5b50565b5f81519050614d5f81614d3b565b92915050565b5f60a08284031215614d7a57614d79614c64565b5b614d8460a061459c565b90505f82015167ffffffffffffffff811115614da357614da2614c68565b5b614daf84828501614d05565b5f83015250602082015167ffffffffffffffff811115614dd257614dd1614c68565b5b614dde84828501614d05565b602083015250604082015167ffffffffffffffff811115614e0257614e01614c68565b5b614e0e84828501614d05565b6040830152506060614e2284828501614d51565b6060830152506080614e3684828501614d51565b60808301525092915050565b5f6101208284031215614e5857614e57614c64565b5b614e6361012061459c565b90505f614e7284828501614c6c565b5f830152506020614e8584828501614c80565b602083015250604082015167ffffffffffffffff811115614ea957614ea8614c68565b5b614eb584828501614d65565b6040830152506060614ec984828501614c6c565b6060830152506080614edd84828501614c6c565b60808301525060a0614ef184828501614877565b60a08301525060c0614f0584828501614c6c565b60c08301525060e0614f1984828501614c6c565b60e083015250610100614f2e84828501614c6c565b6101008301525092915050565b5f60208284031215614f5057614f4f613eda565b5b5f82015167ffffffffffffffff811115614f6d57614f6c613ede565b5b614f7984828501614e42565b91505092915050565b7f57616c6c206e6f7420696e2067616c6c657279000000000000000000000000005f82015250565b5f614fb6601383613f9f565b9150614fc182614f82565b602082019050919050565b5f6020820190508181035f830152614fe381614faa565b9050919050565b5f819050815f5260205f209050919050565b5f6020601f8301049050919050565b5f82821b905092915050565b5f600883026150467fffffffffffffffffffffffffffffffffffffffffffffffffffffffffffffffff8261500b565b615050868361500b565b95508019841693508086168417925050509392505050565b5f61508261507d61507884614025565b613e5d565b614025565b9050919050565b5f819050919050565b61509b83615068565b6150af6150a782615089565b848454615017565b825550505050565b5f90565b6150c36150b7565b6150ce818484615092565b505050565b5b818110156150f1576150e65f826150bb565b6001810190506150d4565b5050565b601f8211156151365761510781614fea565b61511084614ffc565b8101602085101561511f578190505b61513361512b85614ffc565b8301826150d3565b50505b505050565b5f82821c905092915050565b5f6151565f198460080261513b565b1980831691505092915050565b5f61516e8383615147565b9150826002028217905092915050565b61518782613f95565b67ffffffffffffffff8111156151a05761519f61453e565b5b6151aa82546147b3565b6151b58282856150f5565b5f60209050601f8311600181146151e6575f84156151d4578287015190505b6151de8582615163565b865550615245565b601f1984166151f486614fea565b5f5b8281101561521b578489015182556001820191506020850194506020810190506151f6565b868310156152385784890151615234601f891682615147565b8355505b6001600288020188555050505b505050505050565b5f610100828403121561526357615262614c64565b5b61526e61010061459c565b90505f61527d84828501614c6c565b5f83015250602082015167ffffffffffffffff8111156152a05761529f614c68565b5b6152ac84828501614d05565b602083015250604082015167ffffffffffffffff8111156152d0576152cf614c68565b5b6152dc84828501614d05565b60408301525060606152f084828501614c80565b606083015250608061530484828501614c6c565b60808301525060a061531884828501614877565b60a08301525060c061532c84828501614c6c565b60c08301525060e061534084828501614c6c565b60e08301525092915050565b5f6020828403121561536157615360613eda565b5b5f82015167ffffffffffffffff81111561537e5761537d613ede565b5b61538a8482850161524d565b91505092915050565b7f47616c6c657279206e6f742061637469766500000000000000000000000000005f82015250565b5f6153c7601283613f9f565b91506153d282615393565b602082019050919050565b5f6020820190508181035f8301526153f4816153bb565b9050919050565b7f4e6f742067616c6c657279206f776e65720000000000000000000000000000005f82015250565b5f61542f601183613f9f565b915061543a826153fb565b602082019050919050565b5f6020820190508181035f83015261545c81615423565b9050919050565b7f496e76616c6964207374617475730000000000000000000000000000000000005f82015250565b5f615497600e83613f9f565b91506154a282615463565b602082019050919050565b5f6020820190508181035f8301526154c48161548b565b9050919050565b5f81905092915050565b5f6154df82613f95565b6154e981856154cb565b93506154f9818560208601613faf565b80840191505092915050565b5f61551082856154d5565b915061551c82846154d5565b91508190509392505050565b7f4e6f7420636f6d706c65746564000000000000000000000000000000000000005f82015250565b5f61555c600d83613f9f565b915061556782615528565b602082019050919050565b5f6020820190508181035f83015261558981615550565b9050919050565b7f5061757361626c653a20706175736564000000000000000000000000000000005f82015250565b5f6155c4601083613f9f565b91506155cf82615590565b602082019050919050565b5f6020820190508181035f8301526155f1816155b8565b9050919050565b5f61560282614025565b915061560d83614025565b9250828203905081811115615625576156246149ee565b5b92915050565b7f4e487b71000000000000000000000000000000000000000000000000000000005f52603160045260245ffd5b5f81519050919050565b5f82825260208201905092915050565b5f61567c82615658565b6156868185615662565b9350615696818560208601613faf565b61569f81613fbd565b840191505092915050565b5f6080820190506156bd5f830187614094565b6156ca6020830186614094565b6156d76040830185614334565b81810360608301526156e98184615672565b905095945050505050565b5f8151905061570281613f0d565b92915050565b5f6020828403121561571d5761571c613eda565b5b5f61572a848285016156f4565b91505092915050565b7f4e487b71000000000000000000000000000000000000000000000000000000005f52601260045260245ffd5b7f536861726573206d696e746564000000000000000000000000000000000000005f82015250565b5f615794600d83613f9f565b915061579f82615760565b602082019050919050565b5f6020820190508181035f8301526157c181615788565b9050919050565b5f602082840312156157dd576157dc613eda565b5b5f6157ea84828501614c6c565b91505092915050565b5f6157fd82614025565b915061580883614025565b92508282019050808211156158205761581f6149ee565b5b92915050565b7f45786365656473203130302500000000000000000000000000000000000000005f82015250565b5f61585a600c83613f9f565b915061586582615826565b602082019050919050565b5f6020820190508181035f8301526158878161584e565b9050919050565b5f610100820190506158a25f83018b614334565b6158af602083018a614094565b6158bc6040830189614094565b6158c96060830188614094565b6158d66080830187614094565b6158e360a0830186614334565b6158f060c0830185614334565b6158fd60e0830184614334565b9998505050505050505050565b5f60408201905061591d5f830185614094565b61592a6020830184614334565b9392505050565b7f5061757361626c653a206e6f74207061757365640000000000000000000000005f82015250565b5f615965601483613f9f565b915061597082615931565b602082019050919050565b5f6020820190508181035f83015261599281615959565b905091905056fea264697066735822122000876a897427b56423ff441bb3d1147f843efbac90490caa91e61aa653540cd264736f6c634300081a0033",
			"opcodes": "PUSH2 0x100 PUSH1 0x40 MSTORE CALLVALUE DUP1 ISZERO PUSH2 0x10 JUMPI PUSH0 DUP1 REVERT JUMPDEST POP PUSH1 0x40 MLOAD PUSH2 0x636B CODESIZE SUB DUP1 PUSH2 0x636B DUP4 CODECOPY DUP2 DUP2 ADD PUSH1 0x40 MSTORE DUP2 ADD SWAP1 PUSH2 0x32 SWAP2 SWAP1 PUSH2 0x3C7 JUMP JUMPDEST PUSH1 0x40 MLOAD DUP1 PUSH1 0x40 ADD PUSH1 0x40 MSTORE DUP1 PUSH1 0xD DUP2 MSTORE PUSH1 0x20 ADD PUSH32 0x57616C6C205061696E74696E6700000000000000000000000000000000000000 DUP2 MSTORE POP PUSH1 0x40 MLOAD DUP1 PUSH1 0x40 ADD PUSH1 0x40 MSTORE DUP1 PUSH1 0x6 DUP2 MSTORE PUSH1 0x20 ADD PUSH32 0x575041494E540000000000000000000000000000000000000000000000000000 DUP2 MSTORE POP DUP2 PUSH0 SWAP1 DUP2 PUSH2 0xAC SWAP2 SWAP1 PUSH2 0x665 JUMP JUMPDEST POP DUP1 PUSH1 0x1 SWAP1 DUP2 PUSH2 0xBC SWAP2 SWAP1 PUSH2 0x665 JUMP JUMPDEST POP POP POP PUSH0 PUSH1 0x6 PUSH0 PUSH2 0x100 EXP DUP2 SLOAD DUP2 PUSH1 0xFF MUL NOT AND SWAP1 DUP4 ISZERO ISZERO MUL OR SWAP1 SSTORE POP PUSH0 PUSH20 0xFFFFFFFFFFFFFFFFFFFFFFFFFFFFFFFFFFFFFFFF AND DUP5 PUSH20 0xFFFFFFFFFFFFFFFFFFFFFFFFFFFFFFFFFFFFFFFF AND SUB PUSH2 0x146 JUMPI PUSH1 0x40 MLOAD PUSH32 0x8C379A000000000000000000000000000000000000000000000000000000000 DUP2 MSTORE PUSH1 0x4 ADD PUSH2 0x13D SWAP1 PUSH2 0x78E JUMP JUMPDEST PUSH1 0x40 MLOAD DUP1 SWAP2 SUB SWAP1 REVERT JUMPDEST PUSH0 PUSH20 0xFFFFFFFFFFFFFFFFFFFFFFFFFFFFFFFFFFFFFFFF AND DUP4 PUSH20 0xFFFFFFFFFFFFFFFFFFFFFFFFFFFFFFFFFFFFFFFF AND SUB PUSH2 0x1B4 JUMPI PUSH1 0x40 MLOAD PUSH32 0x8C379A000000000000000000000000000000000000000000000000000000000 DUP2 MSTORE PUSH1 0x4 ADD PUSH2 0x1AB SWAP1 PUSH2 0x7F6 JUMP JUMPDEST PUSH1 0x40 MLOAD DUP1 SWAP2 SUB SWAP1 REVERT JUMPDEST PUSH0 PUSH20 0xFFFFFFFFFFFFFFFFFFFFFFFFFFFFFFFFFFFFFFFF AND DUP3 PUSH20 0xFFFFFFFFFFFFFFFFFFFFFFFFFFFFFFFFFFFFFFFF AND SUB PUSH2 0x222 JUMPI PUSH1 0x40 MLOAD PUSH32 0x8C379A000000000000000000000000000000000000000000000000000000000 DUP2 MSTORE PUSH1 0x4 ADD PUSH2 0x219 SWAP1 PUSH2 0x85E JUMP JUMPDEST PUSH1 0x40 MLOAD DUP1 SWAP2 SUB SWAP1 REVERT JUMPDEST PUSH0 PUSH20 0xFFFFFFFFFFFFFFFFFFFFFFFFFFFFFFFFFFFFFFFF AND DUP2 PUSH20 0xFFFFFFFFFFFFFFFFFFFFFFFFFFFFFFFFFFFFFFFF AND SUB PUSH2 0x290 JUMPI PUSH1 0x40 MLOAD PUSH32 0x8C379A000000000000000000000000000000000000000000000000000000000 DUP2 MSTORE PUSH1 0x4 ADD PUSH2 0x287 SWAP1 PUSH2 0x8C6 JUMP JUMPDEST PUSH1 0x40 MLOAD DUP1 SWAP2 SUB SWAP1 REVERT JUMPDEST DUP4 PUSH20 0xFFFFFFFFFFFFFFFFFFFFFFFFFFFFFFFFFFFFFFFF AND PUSH1 0x80 DUP2 PUSH20 0xFFFFFFFFFFFFFFFFFFFFFFFFFFFFFFFFFFFFFFFF AND DUP2 MSTORE POP POP DUP3 PUSH20 0xFFFFFFFFFFFFFFFFFFFFFFFFFFFFFFFFFFFFFFFF AND PUSH1 0xA0 DUP2 PUSH20 0xFFFFFFFFFFFFFFFFFFFFFFFFFFFFFFFFFFFFFFFF AND DUP2 MSTORE POP POP DUP2 PUSH20 0xFFFFFFFFFFFFFFFFFFFFFFFFFFFFFFFFFFFFFFFF AND PUSH1 0xC0 DUP2 PUSH20 0xFFFFFFFFFFFFFFFFFFFFFFFFFFFFFFFFFFFFFFFF AND DUP2 MSTORE POP POP DUP1 PUSH20 0xFFFFFFFFFFFFFFFFFFFFFFFFFFFFFFFFFFFFFFFF AND PUSH1 0xE0 DUP2 PUSH20 0xFFFFFFFFFFFFFFFFFFFFFFFFFFFFFFFFFFFFFFFF AND DUP2 MSTORE POP POP POP POP POP POP PUSH2 0x8E4 JUMP JUMPDEST PUSH0 DUP1 REVERT JUMPDEST PUSH0 PUSH20 0xFFFFFFFFFFFFFFFFFFFFFFFFFFFFFFFFFFFFFFFF DUP3 AND SWAP1 POP SWAP2 SWAP1 POP JUMP JUMPDEST PUSH0 PUSH2 0x396 DUP3 PUSH2 0x36D JUMP JUMPDEST SWAP1 POP SWAP2 SWAP1 POP JUMP JUMPDEST PUSH2 0x3A6 DUP2 PUSH2 0x38C JUMP JUMPDEST DUP2 EQ PUSH2 0x3B0 JUMPI PUSH0 DUP1 REVERT JUMPDEST POP JUMP JUMPDEST PUSH0 DUP2 MLOAD SWAP1 POP PUSH2 0x3C1 DUP2 PUSH2 0x39D JUMP JUMPDEST SWAP3 SWAP2 POP POP JUMP JUMPDEST PUSH0 DUP1 PUSH0 DUP1 PUSH1 0x80 DUP6 DUP8 SUB SLT ISZERO PUSH2 0x3DF JUMPI PUSH2 0x3DE PUSH2 0x369 JUMP JUMPDEST JUMPDEST PUSH0 PUSH2 0x3EC DUP8 DUP3 DUP9 ADD PUSH2 0x3B3 JUMP JUMPDEST SWAP5 POP POP PUSH1 0x20 PUSH2 0x3FD DUP8 DUP3 DUP9 ADD PUSH2 0x3B3 JUMP JUMPDEST SWAP4 POP POP PUSH1 0x40 PUSH2 0x40E DUP8 DUP3 DUP9 ADD PUSH2 0x3B3 JUMP JUMPDEST SWAP3 POP POP PUSH1 0x60 PUSH2 0x41F DUP8 DUP3 DUP9 ADD PUSH2 0x3B3 JUMP JUMPDEST SWAP2 POP POP SWAP3 SWAP6 SWAP2 SWAP5 POP SWAP3 POP JUMP JUMPDEST PUSH0 DUP2 MLOAD SWAP1 POP SWAP2 SWAP1 POP JUMP JUMPDEST PUSH32 0x4E487B7100000000000000000000000000000000000000000000000000000000 PUSH0 MSTORE PUSH1 0x41 PUSH1 0x4 MSTORE PUSH1 0x24 PUSH0 REVERT JUMPDEST PUSH32 0x4E487B7100000000000000000000000000000000000000000000000000000000 PUSH0 MSTORE PUSH1 0x22 PUSH1 0x4 MSTORE PUSH1 0x24 PUSH0 REVERT JUMPDEST PUSH0 PUSH1 0x2 DUP3 DIV SWAP1 POP PUSH1 0x1 DUP3 AND DUP1 PUSH2 0x4A6 JUMPI PUSH1 0x7F DUP3 AND SWAP2 POP JUMPDEST PUSH1 0x20 DUP3 LT DUP2 SUB PUSH2 0x4B9 JUMPI PUSH2 0x4B8 PUSH2 0x462 JUMP JUMPDEST JUMPDEST POP SWAP2 SWAP1 POP JUMP JUMPDEST PUSH0 DUP2 SWAP1 POP DUP2 PUSH0 MSTORE PUSH1 0x20 PUSH0 KECCAK256 SWAP1 POP SWAP2 SWAP1 POP JUMP JUMPDEST PUSH0 PUSH1 0x20 PUSH1 0x1F DUP4 ADD DIV SWAP1 POP SWAP2 SWAP1 POP JUMP JUMPDEST PUSH0 DUP3 DUP3 SHL SWAP1 POP SWAP3 SWAP2 POP POP JUMP JUMPDEST PUSH0 PUSH1 0x8 DUP4 MUL PUSH2 0x51B PUSH32 0xFFFFFFFFFFFFFFFFFFFFFFFFFFFFFFFFFFFFFFFFFFFFFFFFFFFFFFFFFFFFFFFF DUP3 PUSH2 0x4E0 JUMP JUMPDEST PUSH2 0x525 DUP7 DUP4 PUSH2 0x4E0 JUMP JUMPDEST SWAP6 POP DUP1 NOT DUP5 AND SWAP4 POP DUP1 DUP7 AND DUP5 OR SWAP3 POP POP POP SWAP4 SWAP3 POP POP POP JUMP JUMPDEST PUSH0 DUP2 SWAP1 POP SWAP2 SWAP1 POP JUMP JUMPDEST PUSH0 DUP2 SWAP1 POP SWAP2 SWAP1 POP JUMP JUMPDEST PUSH0 PUSH2 0x569 PUSH2 0x564 PUSH2 0x55F DUP5 PUSH2 0x53D JUMP JUMPDEST PUSH2 0x546 JUMP JUMPDEST PUSH2 0x53D JUMP JUMPDEST SWAP1 POP SWAP2 SWAP1 POP JUMP JUMPDEST PUSH0 DUP2 SWAP1 POP SWAP2 SWAP1 POP JUMP JUMPDEST PUSH2 0x582 DUP4 PUSH2 0x54F JUMP JUMPDEST PUSH2 0x596 PUSH2 0x58E DUP3 PUSH2 0x570 JUMP JUMPDEST DUP5 DUP5 SLOAD PUSH2 0x4EC JUMP JUMPDEST DUP3 SSTORE POP POP POP POP JUMP JUMPDEST PUSH0 SWAP1 JUMP JUMPDEST PUSH2 0x5AA PUSH2 0x59E JUMP JUMPDEST PUSH2 0x5B5 DUP2 DUP5 DUP5 PUSH2 0x579 JUMP JUMPDEST POP POP POP JUMP JUMPDEST JUMPDEST DUP2 DUP2 LT ISZERO PUSH2 0x5D8 JUMPI PUSH2 0x5CD PUSH0 DUP3 PUSH2 0x5A2 JUMP JUMPDEST PUSH1 0x1 DUP2 ADD SWAP1 POP PUSH2 0x5BB JUMP JUMPDEST POP POP JUMP JUMPDEST PUSH1 0x1F DUP3 GT ISZERO PUSH2 0x61D JUMPI PUSH2 0x5EE DUP2 PUSH2 0x4BF JUMP JUMPDEST PUSH2 0x5F7 DUP5 PUSH2 0x4D1 JUMP JUMPDEST DUP2 ADD PUSH1 0x20 DUP6 LT ISZERO PUSH2 0x606 JUMPI DUP2 SWAP1 POP JUMPDEST PUSH2 0x61A PUSH2 0x612 DUP6 PUSH2 0x4D1 JUMP JUMPDEST DUP4 ADD DUP3 PUSH2 0x5BA JUMP JUMPDEST POP POP JUMPDEST POP POP POP JUMP JUMPDEST PUSH0 DUP3 DUP3 SHR SWAP1 POP SWAP3 SWAP2 POP POP JUMP JUMPDEST PUSH0 PUSH2 0x63D PUSH0 NOT DUP5 PUSH1 0x8 MUL PUSH2 0x622 JUMP JUMPDEST NOT DUP1 DUP4 AND SWAP2 POP POP SWAP3 SWAP2 POP POP JUMP JUMPDEST PUSH0 PUSH2 0x655 DUP4 DUP4 PUSH2 0x62E JUMP JUMPDEST SWAP2 POP DUP3 PUSH1 0x2 MUL DUP3 OR SWAP1 POP SWAP3 SWAP2 POP POP JUMP JUMPDEST PUSH2 0x66E DUP3 PUSH2 0x42B JUMP JUMPDEST PUSH8 0xFFFFFFFFFFFFFFFF DUP2 GT ISZERO PUSH2 0x687 JUMPI PUSH2 0x686 PUSH2 0x435 JUMP JUMPDEST JUMPDEST PUSH2 0x691 DUP3 SLOAD PUSH2 0x48F JUMP JUMPDEST PUSH2 0x69C DUP3 DUP3 DUP6 PUSH2 0x5DC JUMP JUMPDEST PUSH0 PUSH1 0x20 SWAP1 POP PUSH1 0x1F DUP4 GT PUSH1 0x1 DUP2 EQ PUSH2 0x6CD JUMPI PUSH0 DUP5 ISZERO PUSH2 0x6BB JUMPI DUP3 DUP8 ADD MLOAD SWAP1 POP JUMPDEST PUSH2 0x6C5 DUP6 DUP3 PUSH2 0x64A JUMP JUMPDEST DUP7 SSTORE POP PUSH2 0x72C JUMP JUMPDEST PUSH1 0x1F NOT DUP5 AND PUSH2 0x6DB DUP7 PUSH2 0x4BF JUMP JUMPDEST PUSH0 JUMPDEST DUP3 DUP2 LT ISZERO PUSH2 0x702 JUMPI DUP5 DUP10 ADD MLOAD DUP3 SSTORE PUSH1 0x1 DUP3 ADD SWAP2 POP PUSH1 0x20 DUP6 ADD SWAP5 POP PUSH1 0x20 DUP2 ADD SWAP1 POP PUSH2 0x6DD JUMP JUMPDEST DUP7 DUP4 LT ISZERO PUSH2 0x71F JUMPI DUP5 DUP10 ADD MLOAD PUSH2 0x71B PUSH1 0x1F DUP10 AND DUP3 PUSH2 0x62E JUMP JUMPDEST DUP4 SSTORE POP JUMPDEST PUSH1 0x1 PUSH1 0x2 DUP9 MUL ADD DUP9 SSTORE POP POP POP JUMPDEST POP POP POP POP POP POP JUMP JUMPDEST PUSH0 DUP3 DUP3 MSTORE PUSH1 0x20 DUP3 ADD SWAP1 POP SWAP3 SWAP2 POP POP JUMP JUMPDEST PUSH32 0x496E76616C696420526F6C654D616E6167657220616464726573730000000000 PUSH0 DUP3 ADD MSTORE POP JUMP JUMPDEST PUSH0 PUSH2 0x778 PUSH1 0x1B DUP4 PUSH2 0x734 JUMP JUMPDEST SWAP2 POP PUSH2 0x783 DUP3 PUSH2 0x744 JUMP JUMPDEST PUSH1 0x20 DUP3 ADD SWAP1 POP SWAP2 SWAP1 POP JUMP JUMPDEST PUSH0 PUSH1 0x20 DUP3 ADD SWAP1 POP DUP2 DUP2 SUB PUSH0 DUP4 ADD MSTORE PUSH2 0x7A5 DUP2 PUSH2 0x76C JUMP JUMPDEST SWAP1 POP SWAP2 SWAP1 POP JUMP JUMPDEST PUSH32 0x496E76616C69642057616C6C20636F6E74726163742061646472657373000000 PUSH0 DUP3 ADD MSTORE POP JUMP JUMPDEST PUSH0 PUSH2 0x7E0 PUSH1 0x1D DUP4 PUSH2 0x734 JUMP JUMPDEST SWAP2 POP PUSH2 0x7EB DUP3 PUSH2 0x7AC JUMP JUMPDEST PUSH1 0x20 DUP3 ADD SWAP1 POP SWAP2 SWAP1 POP JUMP JUMPDEST PUSH0 PUSH1 0x20 DUP3 ADD SWAP1 POP DUP2 DUP2 SUB PUSH0 DUP4 ADD MSTORE PUSH2 0x80D DUP2 PUSH2 0x7D4 JUMP JUMPDEST SWAP1 POP SWAP2 SWAP1 POP JUMP JUMPDEST PUSH32 0x496E76616C69642047616C6C65727920636F6E74726163742061646472657373 PUSH0 DUP3 ADD MSTORE POP JUMP JUMPDEST PUSH0 PUSH2 0x848 PUSH1 0x20 DUP4 PUSH2 0x734 JUMP JUMPDEST SWAP2 POP PUSH2 0x853 DUP3 PUSH2 0x814 JUMP JUMPDEST PUSH1 0x20 DUP3 ADD SWAP1 POP SWAP2 SWAP1 POP JUMP JUMPDEST PUSH0 PUSH1 0x20 DUP3 ADD SWAP1 POP DUP2 DUP2 SUB PUSH0 DUP4 ADD MSTORE PUSH2 0x875 DUP2 PUSH2 0x83C JUMP JUMPDEST SWAP1 POP SWAP2 SWAP1 POP JUMP JUMPDEST PUSH32 0x496E76616C69642053686172657320636F6E7472616374206164647265737300 PUSH0 DUP3 ADD MSTORE POP JUMP JUMPDEST PUSH0 PUSH2 0x8B0 PUSH1 0x1F DUP4 PUSH2 0x734 JUMP JUMPDEST SWAP2 POP PUSH2 0x8BB DUP3 PUSH2 0x87C JUMP JUMPDEST PUSH1 0x20 DUP3 ADD SWAP1 POP SWAP2 SWAP1 POP JUMP JUMPDEST PUSH0 PUSH1 0x20 DUP3 ADD SWAP1 POP DUP2 DUP2 SUB PUSH0 DUP4 ADD MSTORE PUSH2 0x8DD DUP2 PUSH2 0x8A4 JUMP JUMPDEST SWAP1 POP SWAP2 SWAP1 POP JUMP JUMPDEST PUSH1 0x80 MLOAD PUSH1 0xA0 MLOAD PUSH1 0xC0 MLOAD PUSH1 0xE0 MLOAD PUSH2 0x59CF PUSH2 0x99C PUSH0 CODECOPY PUSH0 DUP2 DUP2 PUSH2 0x16BD ADD MSTORE PUSH2 0x3710 ADD MSTORE PUSH0 DUP2 DUP2 PUSH2 0x1699 ADD MSTORE DUP2 DUP2 PUSH2 0x17C5 ADD MSTORE DUP2 DUP2 PUSH2 0x226D ADD MSTORE DUP2 DUP2 PUSH2 0x26E5 ADD MSTORE DUP2 DUP2 PUSH2 0x357D ADD MSTORE PUSH2 0x361F ADD MSTORE PUSH0 DUP2 DUP2 PUSH2 0x1232 ADD MSTORE DUP2 DUP2 PUSH2 0x16E3 ADD MSTORE DUP2 DUP2 PUSH2 0x1E57 ADD MSTORE DUP2 DUP2 PUSH2 0x218B ADD MSTORE DUP2 DUP2 PUSH2 0x2603 ADD MSTORE PUSH2 0x34DF ADD MSTORE PUSH0 DUP2 DUP2 PUSH2 0x658 ADD MSTORE DUP2 DUP2 PUSH2 0x7EC ADD MSTORE DUP2 DUP2 PUSH2 0x828 ADD MSTORE DUP2 DUP2 PUSH2 0xE2C ADD MSTORE DUP2 DUP2 PUSH2 0xE68 ADD MSTORE DUP2 DUP2 PUSH2 0xF9B ADD MSTORE DUP2 DUP2 PUSH2 0xFD7 ADD MSTORE DUP2 DUP2 PUSH2 0x1ACC ADD MSTORE PUSH2 0x1B08 ADD MSTORE PUSH2 0x59CF PUSH0 RETURN INVALID PUSH1 0x80 PUSH1 0x40 MSTORE CALLVALUE DUP1 ISZERO PUSH2 0xF JUMPI PUSH0 DUP1 REVERT JUMPDEST POP PUSH1 0x4 CALLDATASIZE LT PUSH2 0x1ED JUMPI PUSH0 CALLDATALOAD PUSH1 0xE0 SHR DUP1 PUSH4 0x7EB4ECB4 GT PUSH2 0x10D JUMPI DUP1 PUSH4 0xB88D4FDE GT PUSH2 0xA0 JUMPI DUP1 PUSH4 0xE1F4AB5F GT PUSH2 0x6F JUMPI DUP1 PUSH4 0xE1F4AB5F EQ PUSH2 0x5BE JUMPI DUP1 PUSH4 0xE38DA54B EQ PUSH2 0x5EE JUMPI DUP1 PUSH4 0xE985E9C5 EQ PUSH2 0x60A JUMPI DUP1 PUSH4 0xEB1B1E71 EQ PUSH2 0x63A JUMPI PUSH2 0x1ED JUMP JUMPDEST DUP1 PUSH4 0xB88D4FDE EQ PUSH2 0x51F JUMPI DUP1 PUSH4 0xC7CA6DAA EQ PUSH2 0x53B JUMPI DUP1 PUSH4 0xC87B56DD EQ PUSH2 0x570 JUMPI DUP1 PUSH4 0xD815E65F EQ PUSH2 0x5A0 JUMPI PUSH2 0x1ED JUMP JUMPDEST DUP1 PUSH4 0x95D89B41 GT PUSH2 0xDC JUMPI DUP1 PUSH4 0x95D89B41 EQ PUSH2 0x493 JUMPI DUP1 PUSH4 0xA22CB465 EQ PUSH2 0x4B1 JUMPI DUP1 PUSH4 0xA245E7FF EQ PUSH2 0x4CD JUMPI DUP1 PUSH4 0xAAD53A84 EQ PUSH2 0x501 JUMPI PUSH2 0x1ED JUMP JUMPDEST DUP1 PUSH4 0x7EB4ECB4 EQ PUSH2 0x41F JUMPI DUP1 PUSH4 0x8085BE02 EQ PUSH2 0x43D JUMPI DUP1 PUSH4 0x8456CB59 EQ PUSH2 0x459 JUMPI DUP1 PUSH4 0x89814B9C EQ PUSH2 0x463 JUMPI PUSH2 0x1ED JUMP JUMPDEST DUP1 PUSH4 0x3F4BA83A GT PUSH2 0x185 JUMPI DUP1 PUSH4 0x5C975ABB GT PUSH2 0x154 JUMPI DUP1 PUSH4 0x5C975ABB EQ PUSH2 0x383 JUMPI DUP1 PUSH4 0x6352211E EQ PUSH2 0x3A1 JUMPI DUP1 PUSH4 0x70A08231 EQ PUSH2 0x3D1 JUMPI DUP1 PUSH4 0x71D24B70 EQ PUSH2 0x401 JUMPI PUSH2 0x1ED JUMP JUMPDEST DUP1 PUSH4 0x3F4BA83A EQ PUSH2 0x311 JUMPI DUP1 PUSH4 0x41BC8B64 EQ PUSH2 0x31B JUMPI DUP1 PUSH4 0x42842E0E EQ PUSH2 0x337 JUMPI DUP1 PUSH4 0x5398CB14 EQ PUSH2 0x353 JUMPI PUSH2 0x1ED JUMP JUMPDEST DUP1 PUSH4 0x81812FC GT PUSH2 0x1C1 JUMPI DUP1 PUSH4 0x81812FC EQ PUSH2 0x279 JUMPI DUP1 PUSH4 0x8E9C7D7 EQ PUSH2 0x2A9 JUMPI DUP1 PUSH4 0x95EA7B3 EQ PUSH2 0x2D9 JUMPI DUP1 PUSH4 0x23B872DD EQ PUSH2 0x2F5 JUMPI PUSH2 0x1ED JUMP JUMPDEST DUP1 PUSH3 0x435DA5 EQ PUSH2 0x1F1 JUMPI DUP1 PUSH4 0x1FFC9A7 EQ PUSH2 0x20F JUMPI DUP1 PUSH4 0x6FDDE03 EQ PUSH2 0x23F JUMPI DUP1 PUSH4 0x72E91D9 EQ PUSH2 0x25D JUMPI JUMPDEST PUSH0 DUP1 REVERT JUMPDEST PUSH2 0x1F9 PUSH2 0x656 JUMP JUMPDEST PUSH1 0x40 MLOAD PUSH2 0x206 SWAP2 SWAP1 PUSH2 0x3EB8 JUMP JUMPDEST PUSH1 0x40 MLOAD DUP1 SWAP2 SUB SWAP1 RETURN JUMPDEST PUSH2 0x229 PUSH1 0x4 DUP1 CALLDATASIZE SUB DUP2 ADD SWAP1 PUSH2 0x224 SWAP2 SWAP1 PUSH2 0x3F37 JUMP JUMPDEST PUSH2 0x67A JUMP JUMPDEST PUSH1 0x40 MLOAD PUSH2 0x236 SWAP2 SWAP1 PUSH2 0x3F7C JUMP JUMPDEST PUSH1 0x40 MLOAD DUP1 SWAP2 SUB SWAP1 RETURN JUMPDEST PUSH2 0x247 PUSH2 0x75B JUMP JUMPDEST PUSH1 0x40 MLOAD PUSH2 0x254 SWAP2 SWAP1 PUSH2 0x4005 JUMP JUMPDEST PUSH1 0x40 MLOAD DUP1 SWAP2 SUB SWAP1 RETURN JUMPDEST PUSH2 0x277 PUSH1 0x4 DUP1 CALLDATASIZE SUB DUP2 ADD SWAP1 PUSH2 0x272 SWAP2 SWAP1 PUSH2 0x4058 JUMP JUMPDEST PUSH2 0x7EA JUMP JUMPDEST STOP JUMPDEST PUSH2 0x293 PUSH1 0x4 DUP1 CALLDATASIZE SUB DUP2 ADD SWAP1 PUSH2 0x28E SWAP2 SWAP1 PUSH2 0x4058 JUMP JUMPDEST PUSH2 0xAA3 JUMP JUMPDEST PUSH1 0x40 MLOAD PUSH2 0x2A0 SWAP2 SWAP1 PUSH2 0x40A3 JUMP JUMPDEST PUSH1 0x40 MLOAD DUP1 SWAP2 SUB SWAP1 RETURN JUMPDEST PUSH2 0x2C3 PUSH1 0x4 DUP1 CALLDATASIZE SUB DUP2 ADD SWAP1 PUSH2 0x2BE SWAP2 SWAP1 PUSH2 0x40E6 JUMP JUMPDEST PUSH2 0xABE JUMP JUMPDEST PUSH1 0x40 MLOAD PUSH2 0x2D0 SWAP2 SWAP1 PUSH2 0x41C8 JUMP JUMPDEST PUSH1 0x40 MLOAD DUP1 SWAP2 SUB SWAP1 RETURN JUMPDEST PUSH2 0x2F3 PUSH1 0x4 DUP1 CALLDATASIZE SUB DUP2 ADD SWAP1 PUSH2 0x2EE SWAP2 SWAP1 PUSH2 0x41E8 JUMP JUMPDEST PUSH2 0xD15 JUMP JUMPDEST STOP JUMPDEST PUSH2 0x30F PUSH1 0x4 DUP1 CALLDATASIZE SUB DUP2 ADD SWAP1 PUSH2 0x30A SWAP2 SWAP1 PUSH2 0x4226 JUMP JUMPDEST PUSH2 0xD2B JUMP JUMPDEST STOP JUMPDEST PUSH2 0x319 PUSH2 0xE2A JUMP JUMPDEST STOP JUMPDEST PUSH2 0x335 PUSH1 0x4 DUP1 CALLDATASIZE SUB DUP2 ADD SWAP1 PUSH2 0x330 SWAP2 SWAP1 PUSH2 0x42D7 JUMP JUMPDEST PUSH2 0xF99 JUMP JUMPDEST STOP JUMPDEST PUSH2 0x351 PUSH1 0x4 DUP1 CALLDATASIZE SUB DUP2 ADD SWAP1 PUSH2 0x34C SWAP2 SWAP1 PUSH2 0x4226 JUMP JUMPDEST PUSH2 0x1535 JUMP JUMPDEST STOP JUMPDEST PUSH2 0x36D PUSH1 0x4 DUP1 CALLDATASIZE SUB DUP2 ADD SWAP1 PUSH2 0x368 SWAP2 SWAP1 PUSH2 0x4058 JUMP JUMPDEST PUSH2 0x1554 JUMP JUMPDEST PUSH1 0x40 MLOAD PUSH2 0x37A SWAP2 SWAP1 PUSH2 0x41C8 JUMP JUMPDEST PUSH1 0x40 MLOAD DUP1 SWAP2 SUB SWAP1 RETURN JUMPDEST PUSH2 0x38B PUSH2 0x15BB JUMP JUMPDEST PUSH1 0x40 MLOAD PUSH2 0x398 SWAP2 SWAP1 PUSH2 0x3F7C JUMP JUMPDEST PUSH1 0x40 MLOAD DUP1 SWAP2 SUB SWAP1 RETURN JUMPDEST PUSH2 0x3BB PUSH1 0x4 DUP1 CALLDATASIZE SUB DUP2 ADD SWAP1 PUSH2 0x3B6 SWAP2 SWAP1 PUSH2 0x4058 JUMP JUMPDEST PUSH2 0x15D0 JUMP JUMPDEST PUSH1 0x40 MLOAD PUSH2 0x3C8 SWAP2 SWAP1 PUSH2 0x40A3 JUMP JUMPDEST PUSH1 0x40 MLOAD DUP1 SWAP2 SUB SWAP1 RETURN JUMPDEST PUSH2 0x3EB PUSH1 0x4 DUP1 CALLDATASIZE SUB DUP2 ADD SWAP1 PUSH2 0x3E6 SWAP2 SWAP1 PUSH2 0x40E6 JUMP JUMPDEST PUSH2 0x15E1 JUMP JUMPDEST PUSH1 0x40 MLOAD PUSH2 0x3F8 SWAP2 SWAP1 PUSH2 0x4343 JUMP JUMPDEST PUSH1 0x40 MLOAD DUP1 SWAP2 SUB SWAP1 RETURN JUMPDEST PUSH2 0x409 PUSH2 0x1697 JUMP JUMPDEST PUSH1 0x40 MLOAD PUSH2 0x416 SWAP2 SWAP1 PUSH2 0x437C JUMP JUMPDEST PUSH1 0x40 MLOAD DUP1 SWAP2 SUB SWAP1 RETURN JUMPDEST PUSH2 0x427 PUSH2 0x16BB JUMP JUMPDEST PUSH1 0x40 MLOAD PUSH2 0x434 SWAP2 SWAP1 PUSH2 0x43B5 JUMP JUMPDEST PUSH1 0x40 MLOAD DUP1 SWAP2 SUB SWAP1 RETURN JUMPDEST PUSH2 0x457 PUSH1 0x4 DUP1 CALLDATASIZE SUB DUP2 ADD SWAP1 PUSH2 0x452 SWAP2 SWAP1 PUSH2 0x4058 JUMP JUMPDEST PUSH2 0x16DF JUMP JUMPDEST STOP JUMPDEST PUSH2 0x461 PUSH2 0x1ACA JUMP JUMPDEST STOP JUMPDEST PUSH2 0x47D PUSH1 0x4 DUP1 CALLDATASIZE SUB DUP2 ADD SWAP1 PUSH2 0x478 SWAP2 SWAP1 PUSH2 0x40E6 JUMP JUMPDEST PUSH2 0x1C39 JUMP JUMPDEST PUSH1 0x40 MLOAD PUSH2 0x48A SWAP2 SWAP1 PUSH2 0x41C8 JUMP JUMPDEST PUSH1 0x40 MLOAD DUP1 SWAP2 SUB SWAP1 RETURN JUMPDEST PUSH2 0x49B PUSH2 0x1CCC JUMP JUMPDEST PUSH1 0x40 MLOAD PUSH2 0x4A8 SWAP2 SWAP1 PUSH2 0x4005 JUMP JUMPDEST PUSH1 0x40 MLOAD DUP1 SWAP2 SUB SWAP1 RETURN JUMPDEST PUSH2 0x4CB PUSH1 0x4 DUP1 CALLDATASIZE SUB DUP2 ADD SWAP1 PUSH2 0x4C6 SWAP2 SWAP1 PUSH2 0x43F8 JUMP JUMPDEST PUSH2 0x1D5C JUMP JUMPDEST STOP JUMPDEST PUSH2 0x4E7 PUSH1 0x4 DUP1 CALLDATASIZE SUB DUP2 ADD SWAP1 PUSH2 0x4E2 SWAP2 SWAP1 PUSH2 0x4058 JUMP JUMPDEST PUSH2 0x1D72 JUMP JUMPDEST PUSH1 0x40 MLOAD PUSH2 0x4F8 SWAP6 SWAP5 SWAP4 SWAP3 SWAP2 SWAP1 PUSH2 0x44A9 JUMP JUMPDEST PUSH1 0x40 MLOAD DUP1 SWAP2 SUB SWAP1 RETURN JUMPDEST PUSH2 0x509 PUSH2 0x1E55 JUMP JUMPDEST PUSH1 0x40 MLOAD PUSH2 0x516 SWAP2 SWAP1 PUSH2 0x4521 JUMP JUMPDEST PUSH1 0x40 MLOAD DUP1 SWAP2 SUB SWAP1 RETURN JUMPDEST PUSH2 0x539 PUSH1 0x4 DUP1 CALLDATASIZE SUB DUP2 ADD SWAP1 PUSH2 0x534 SWAP2 SWAP1 PUSH2 0x4662 JUMP JUMPDEST PUSH2 0x1E79 JUMP JUMPDEST STOP JUMPDEST PUSH2 0x555 PUSH1 0x4 DUP1 CALLDATASIZE SUB DUP2 ADD SWAP1 PUSH2 0x550 SWAP2 SWAP1 PUSH2 0x4058 JUMP JUMPDEST PUSH2 0x1E9E JUMP JUMPDEST PUSH1 0x40 MLOAD PUSH2 0x567 SWAP7 SWAP6 SWAP5 SWAP4 SWAP3 SWAP2 SWAP1 PUSH2 0x46E2 JUMP JUMPDEST PUSH1 0x40 MLOAD DUP1 SWAP2 SUB SWAP1 RETURN JUMPDEST PUSH2 0x58A PUSH1 0x4 DUP1 CALLDATASIZE SUB DUP2 ADD SWAP1 PUSH2 0x585 SWAP2 SWAP1 PUSH2 0x4058 JUMP JUMPDEST PUSH2 0x1F87 JUMP JUMPDEST PUSH1 0x40 MLOAD PUSH2 0x597 SWAP2 SWAP1 PUSH2 0x4005 JUMP JUMPDEST PUSH1 0x40 MLOAD DUP1 SWAP2 SUB SWAP1 RETURN JUMPDEST PUSH2 0x5A8 PUSH2 0x1FED JUMP JUMPDEST PUSH1 0x40 MLOAD PUSH2 0x5B5 SWAP2 SWAP1 PUSH2 0x41C8 JUMP JUMPDEST PUSH1 0x40 MLOAD DUP1 SWAP2 SUB SWAP1 RETURN JUMPDEST PUSH2 0x5D8 PUSH1 0x4 DUP1 CALLDATASIZE SUB DUP2 ADD SWAP1 PUSH2 0x5D3 SWAP2 SWAP1 PUSH2 0x4058 JUMP JUMPDEST PUSH2 0x216A JUMP JUMPDEST PUSH1 0x40 MLOAD PUSH2 0x5E5 SWAP2 SWAP1 PUSH2 0x3F7C JUMP JUMPDEST PUSH1 0x40 MLOAD DUP1 SWAP2 SUB SWAP1 RETURN JUMPDEST PUSH2 0x608 PUSH1 0x4 DUP1 CALLDATASIZE SUB DUP2 ADD SWAP1 PUSH2 0x603 SWAP2 SWAP1 PUSH2 0x4058 JUMP JUMPDEST PUSH2 0x2187 JUMP JUMPDEST STOP JUMPDEST PUSH2 0x624 PUSH1 0x4 DUP1 CALLDATASIZE SUB DUP2 ADD SWAP1 PUSH2 0x61F SWAP2 SWAP1 PUSH2 0x4748 JUMP JUMPDEST PUSH2 0x2571 JUMP JUMPDEST PUSH1 0x40 MLOAD PUSH2 0x631 SWAP2 SWAP1 PUSH2 0x3F7C JUMP JUMPDEST PUSH1 0x40 MLOAD DUP1 SWAP2 SUB SWAP1 RETURN JUMPDEST PUSH2 0x654 PUSH1 0x4 DUP1 CALLDATASIZE SUB DUP2 ADD SWAP1 PUSH2 0x64F SWAP2 SWAP1 PUSH2 0x4058 JUMP JUMPDEST PUSH2 0x25FF JUMP JUMPDEST STOP JUMPDEST PUSH32 0x0 DUP2 JUMP JUMPDEST PUSH0 PUSH32 0x80AC58CD00000000000000000000000000000000000000000000000000000000 PUSH28 0xFFFFFFFFFFFFFFFFFFFFFFFFFFFFFFFFFFFFFFFFFFFFFFFFFFFFFFFF NOT AND DUP3 PUSH28 0xFFFFFFFFFFFFFFFFFFFFFFFFFFFFFFFFFFFFFFFFFFFFFFFFFFFFFFFF NOT AND EQ DUP1 PUSH2 0x744 JUMPI POP PUSH32 0x5B5E139F00000000000000000000000000000000000000000000000000000000 PUSH28 0xFFFFFFFFFFFFFFFFFFFFFFFFFFFFFFFFFFFFFFFFFFFFFFFFFFFFFFFF NOT AND DUP3 PUSH28 0xFFFFFFFFFFFFFFFFFFFFFFFFFFFFFFFFFFFFFFFFFFFFFFFFFFFFFFFF NOT AND EQ JUMPDEST DUP1 PUSH2 0x754 JUMPI POP PUSH2 0x753 DUP3 PUSH2 0x2B3A JUMP JUMPDEST JUMPDEST SWAP1 POP SWAP2 SWAP1 POP JUMP JUMPDEST PUSH1 0x60 PUSH0 DUP1 SLOAD PUSH2 0x769 SWAP1 PUSH2 0x47B3 JUMP JUMPDEST DUP1 PUSH1 0x1F ADD PUSH1 0x20 DUP1 SWAP2 DIV MUL PUSH1 0x20 ADD PUSH1 0x40 MLOAD SWAP1 DUP2 ADD PUSH1 0x40 MSTORE DUP1 SWAP3 SWAP2 SWAP1 DUP2 DUP2 MSTORE PUSH1 0x20 ADD DUP3 DUP1 SLOAD PUSH2 0x795 SWAP1 PUSH2 0x47B3 JUMP JUMPDEST DUP1 ISZERO PUSH2 0x7E0 JUMPI DUP1 PUSH1 0x1F LT PUSH2 0x7B7 JUMPI PUSH2 0x100 DUP1 DUP4 SLOAD DIV MUL DUP4 MSTORE SWAP2 PUSH1 0x20 ADD SWAP2 PUSH2 0x7E0 JUMP JUMPDEST DUP3 ADD SWAP2 SWAP1 PUSH0 MSTORE PUSH1 0x20 PUSH0 KECCAK256 SWAP1 JUMPDEST DUP2 SLOAD DUP2 MSTORE SWAP1 PUSH1 0x1 ADD SWAP1 PUSH1 0x20 ADD DUP1 DUP4 GT PUSH2 0x7C3 JUMPI DUP3 SWAP1 SUB PUSH1 0x1F AND DUP3 ADD SWAP2 JUMPDEST POP POP POP POP POP SWAP1 POP SWAP1 JUMP JUMPDEST PUSH32 0x0 PUSH20 0xFFFFFFFFFFFFFFFFFFFFFFFFFFFFFFFFFFFFFFFF AND PUSH4 0x91D14854 PUSH32 0x0 PUSH20 0xFFFFFFFFFFFFFFFFFFFFFFFFFFFFFFFFFFFFFFFF AND PUSH4 0x303E3840 PUSH1 0x40 MLOAD DUP2 PUSH4 0xFFFFFFFF AND PUSH1 0xE0 SHL DUP2 MSTORE PUSH1 0x4 ADD PUSH1 0x20 PUSH1 0x40 MLOAD DUP1 DUP4 SUB DUP2 DUP7 GAS STATICCALL ISZERO DUP1 ISZERO PUSH2 0x88F JUMPI RETURNDATASIZE PUSH0 DUP1 RETURNDATACOPY RETURNDATASIZE PUSH0 REVERT JUMPDEST POP POP POP POP PUSH1 0x40 MLOAD RETURNDATASIZE PUSH1 0x1F NOT PUSH1 0x1F DUP3 ADD AND DUP3 ADD DUP1 PUSH1 0x40 MSTORE POP DUP2 ADD SWAP1 PUSH2 0x8B3 SWAP2 SWAP1 PUSH2 0x4816 JUMP JUMPDEST CALLER PUSH1 0x40 MLOAD DUP4 PUSH4 0xFFFFFFFF AND PUSH1 0xE0 SHL DUP2 MSTORE PUSH1 0x4 ADD PUSH2 0x8D1 SWAP3 SWAP2 SWAP1 PUSH2 0x4850 JUMP JUMPDEST PUSH1 0x20 PUSH1 0x40 MLOAD DUP1 DUP4 SUB DUP2 DUP7 GAS STATICCALL ISZERO DUP1 ISZERO PUSH2 0x8EC JUMPI RETURNDATASIZE PUSH0 DUP1 RETURNDATACOPY RETURNDATASIZE PUSH0 REVERT JUMPDEST POP POP POP POP PUSH1 0x40 MLOAD RETURNDATASIZE PUSH1 0x1F NOT PUSH1 0x1F DUP3 ADD AND DUP3 ADD DUP1 PUSH1 0x40 MSTORE POP DUP2 ADD SWAP1 PUSH2 0x910 SWAP2 SWAP1 PUSH2 0x488B JUMP JUMPDEST PUSH2 0x94F JUMPI PUSH1 0x40 MLOAD PUSH32 0x8C379A000000000000000000000000000000000000000000000000000000000 DUP2 MSTORE PUSH1 0x4 ADD PUSH2 0x946 SWAP1 PUSH2 0x4900 JUMP JUMPDEST PUSH1 0x40 MLOAD DUP1 SWAP2 SUB SWAP1 REVERT JUMPDEST PUSH2 0x957 PUSH2 0x2BA3 JUMP JUMPDEST PUSH0 PUSH1 0x9 PUSH0 DUP4 DUP2 MSTORE PUSH1 0x20 ADD SWAP1 DUP2 MSTORE PUSH1 0x20 ADD PUSH0 KECCAK256 SWAP1 POP CALLER PUSH20 0xFFFFFFFFFFFFFFFFFFFFFFFFFFFFFFFFFFFFFFFF AND DUP2 PUSH1 0x1 ADD PUSH0 SWAP1 SLOAD SWAP1 PUSH2 0x100 EXP SWAP1 DIV PUSH20 0xFFFFFFFFFFFFFFFFFFFFFFFFFFFFFFFFFFFFFFFF AND PUSH20 0xFFFFFFFFFFFFFFFFFFFFFFFFFFFFFFFFFFFFFFFF AND EQ PUSH2 0x9FC JUMPI PUSH1 0x40 MLOAD PUSH32 0x8C379A000000000000000000000000000000000000000000000000000000000 DUP2 MSTORE PUSH1 0x4 ADD PUSH2 0x9F3 SWAP1 PUSH2 0x4968 JUMP JUMPDEST PUSH1 0x40 MLOAD DUP1 SWAP2 SUB SWAP1 REVERT JUMPDEST PUSH1 0x2 PUSH1 0x3 DUP2 GT ISZERO PUSH2 0xA10 JUMPI PUSH2 0xA0F PUSH2 0x4436 JUMP JUMPDEST JUMPDEST DUP2 PUSH1 0x3 ADD PUSH0 SWAP1 SLOAD SWAP1 PUSH2 0x100 EXP SWAP1 DIV PUSH1 0xFF AND PUSH1 0x3 DUP2 GT ISZERO PUSH2 0xA33 JUMPI PUSH2 0xA32 PUSH2 0x4436 JUMP JUMPDEST JUMPDEST EQ PUSH2 0xA73 JUMPI PUSH1 0x40 MLOAD PUSH32 0x8C379A000000000000000000000000000000000000000000000000000000000 DUP2 MSTORE PUSH1 0x4 ADD PUSH2 0xA6A SWAP1 PUSH2 0x49D0 JUMP JUMPDEST PUSH1 0x40 MLOAD DUP1 SWAP2 SUB SWAP1 REVERT JUMPDEST PUSH1 0x3 DUP2 PUSH1 0x3 ADD PUSH0 PUSH2 0x100 EXP DUP2 SLOAD DUP2 PUSH1 0xFF MUL NOT AND SWAP1 DUP4 PUSH1 0x3 DUP2 GT ISZERO PUSH2 0xA9A JUMPI PUSH2 0xA99 PUSH2 0x4436 JUMP JUMPDEST JUMPDEST MUL OR SWAP1 SSTORE POP POP POP JUMP JUMPDEST PUSH0 PUSH2 0xAAD DUP3 PUSH2 0x2BED JUMP JUMPDEST POP PUSH2 0xAB7 DUP3 PUSH2 0x2C73 JUMP JUMPDEST SWAP1 POP SWAP2 SWAP1 POP JUMP JUMPDEST PUSH1 0x60 PUSH0 DUP1 PUSH2 0xACC PUSH1 0x7 PUSH2 0x2CAC JUMP JUMPDEST SWAP1 POP PUSH0 PUSH1 0x1 SWAP1 POP JUMPDEST DUP2 DUP2 GT PUSH2 0xBB4 JUMPI DUP5 PUSH20 0xFFFFFFFFFFFFFFFFFFFFFFFFFFFFFFFFFFFFFFFF AND PUSH1 0x9 PUSH0 DUP4 DUP2 MSTORE PUSH1 0x20 ADD SWAP1 DUP2 MSTORE PUSH1 0x20 ADD PUSH0 KECCAK256 PUSH1 0x1 ADD PUSH0 SWAP1 SLOAD SWAP1 PUSH2 0x100 EXP SWAP1 DIV PUSH20 0xFFFFFFFFFFFFFFFFFFFFFFFFFFFFFFFFFFFFFFFF AND PUSH20 0xFFFFFFFFFFFFFFFFFFFFFFFFFFFFFFFFFFFFFFFF AND EQ DUP1 ISZERO PUSH2 0xB8D JUMPI POP PUSH1 0x2 PUSH1 0x3 DUP2 GT ISZERO PUSH2 0xB58 JUMPI PUSH2 0xB57 PUSH2 0x4436 JUMP JUMPDEST JUMPDEST PUSH1 0x9 PUSH0 DUP4 DUP2 MSTORE PUSH1 0x20 ADD SWAP1 DUP2 MSTORE PUSH1 0x20 ADD PUSH0 KECCAK256 PUSH1 0x3 ADD PUSH0 SWAP1 SLOAD SWAP1 PUSH2 0x100 EXP SWAP1 DIV PUSH1 0xFF AND PUSH1 0x3 DUP2 GT ISZERO PUSH2 0xB8B JUMPI PUSH2 0xB8A PUSH2 0x4436 JUMP JUMPDEST JUMPDEST EQ JUMPDEST ISZERO PUSH2 0xBA1 JUMPI DUP3 DUP1 PUSH2 0xB9D SWAP1 PUSH2 0x4A1B JUMP JUMPDEST SWAP4 POP POP JUMPDEST DUP1 DUP1 PUSH2 0xBAC SWAP1 PUSH2 0x4A1B JUMP JUMPDEST SWAP2 POP POP PUSH2 0xAD4 JUMP JUMPDEST POP PUSH0 DUP3 PUSH8 0xFFFFFFFFFFFFFFFF DUP2 GT ISZERO PUSH2 0xBD0 JUMPI PUSH2 0xBCF PUSH2 0x453E JUMP JUMPDEST JUMPDEST PUSH1 0x40 MLOAD SWAP1 DUP1 DUP3 MSTORE DUP1 PUSH1 0x20 MUL PUSH1 0x20 ADD DUP3 ADD PUSH1 0x40 MSTORE DUP1 ISZERO PUSH2 0xBFE JUMPI DUP2 PUSH1 0x20 ADD PUSH1 0x20 DUP3 MUL DUP1 CALLDATASIZE DUP4 CALLDATACOPY DUP1 DUP3 ADD SWAP2 POP POP SWAP1 POP JUMPDEST POP SWAP1 POP PUSH0 DUP1 PUSH1 0x1 SWAP1 POP JUMPDEST DUP4 DUP2 GT PUSH2 0xD08 JUMPI DUP7 PUSH20 0xFFFFFFFFFFFFFFFFFFFFFFFFFFFFFFFFFFFFFFFF AND PUSH1 0x9 PUSH0 DUP4 DUP2 MSTORE PUSH1 0x20 ADD SWAP1 DUP2 MSTORE PUSH1 0x20 ADD PUSH0 KECCAK256 PUSH1 0x1 ADD PUSH0 SWAP1 SLOAD SWAP1 PUSH2 0x100 EXP SWAP1 DIV PUSH20 0xFFFFFFFFFFFFFFFFFFFFFFFFFFFFFFFFFFFFFFFF AND PUSH20 0xFFFFFFFFFFFFFFFFFFFFFFFFFFFFFFFFFFFFFFFF AND EQ DUP1 ISZERO PUSH2 0xCC1 JUMPI POP PUSH1 0x2 PUSH1 0x3 DUP2 GT ISZERO PUSH2 0xC8C JUMPI PUSH2 0xC8B PUSH2 0x4436 JUMP JUMPDEST JUMPDEST PUSH1 0x9 PUSH0 DUP4 DUP2 MSTORE PUSH1 0x20 ADD SWAP1 DUP2 MSTORE PUSH1 0x20 ADD PUSH0 KECCAK256 PUSH1 0x3 ADD PUSH0 SWAP1 SLOAD SWAP1 PUSH2 0x100 EXP SWAP1 DIV PUSH1 0xFF AND PUSH1 0x3 DUP2 GT ISZERO PUSH2 0xCBF JUMPI PUSH2 0xCBE PUSH2 0x4436 JUMP JUMPDEST JUMPDEST EQ JUMPDEST ISZERO PUSH2 0xCF5 JUMPI DUP1 DUP4 DUP4 DUP2 MLOAD DUP2 LT PUSH2 0xCDA JUMPI PUSH2 0xCD9 PUSH2 0x4A62 JUMP JUMPDEST JUMPDEST PUSH1 0x20 MUL PUSH1 0x20 ADD ADD DUP2 DUP2 MSTORE POP POP DUP2 DUP1 PUSH2 0xCF1 SWAP1 PUSH2 0x4A1B JUMP JUMPDEST SWAP3 POP POP JUMPDEST DUP1 DUP1 PUSH2 0xD00 SWAP1 PUSH2 0x4A1B JUMP JUMPDEST SWAP2 POP POP PUSH2 0xC08 JUMP JUMPDEST POP DUP2 SWAP5 POP POP POP POP POP SWAP2 SWAP1 POP JUMP JUMPDEST PUSH2 0xD27 DUP3 DUP3 PUSH2 0xD22 PUSH2 0x2CB8 JUMP JUMPDEST PUSH2 0x2CBF JUMP JUMPDEST POP POP JUMP JUMPDEST PUSH0 PUSH20 0xFFFFFFFFFFFFFFFFFFFFFFFFFFFFFFFFFFFFFFFF AND DUP3 PUSH20 0xFFFFFFFFFFFFFFFFFFFFFFFFFFFFFFFFFFFFFFFF AND SUB PUSH2 0xD9B JUMPI PUSH0 PUSH1 0x40 MLOAD PUSH32 0x64A0AE9200000000000000000000000000000000000000000000000000000000 DUP2 MSTORE PUSH1 0x4 ADD PUSH2 0xD92 SWAP2 SWAP1 PUSH2 0x40A3 JUMP JUMPDEST PUSH1 0x40 MLOAD DUP1 SWAP2 SUB SWAP1 REVERT JUMPDEST PUSH0 PUSH2 0xDAE DUP4 DUP4 PUSH2 0xDA9 PUSH2 0x2CB8 JUMP JUMPDEST PUSH2 0x2CD1 JUMP JUMPDEST SWAP1 POP DUP4 PUSH20 0xFFFFFFFFFFFFFFFFFFFFFFFFFFFFFFFFFFFFFFFF AND DUP2 PUSH20 0xFFFFFFFFFFFFFFFFFFFFFFFFFFFFFFFFFFFFFFFF AND EQ PUSH2 0xE24 JUMPI DUP4 DUP3 DUP3 PUSH1 0x40 MLOAD PUSH32 0x64283D7B00000000000000000000000000000000000000000000000000000000 DUP2 MSTORE PUSH1 0x4 ADD PUSH2 0xE1B SWAP4 SWAP3 SWAP2 SWAP1 PUSH2 0x4A8F JUMP JUMPDEST PUSH1 0x40 MLOAD DUP1 SWAP2 SUB SWAP1 REVERT JUMPDEST POP POP POP POP JUMP JUMPDEST PUSH32 0x0 PUSH20 0xFFFFFFFFFFFFFFFFFFFFFFFFFFFFFFFFFFFFFFFF AND PUSH4 0x91D14854 PUSH32 0x0 PUSH20 0xFFFFFFFFFFFFFFFFFFFFFFFFFFFFFFFFFFFFFFFF AND PUSH4 0x75B238FC PUSH1 0x40 MLOAD DUP2 PUSH4 0xFFFFFFFF AND PUSH1 0xE0 SHL DUP2 MSTORE PUSH1 0x4 ADD PUSH1 0x20 PUSH1 0x40 MLOAD DUP1 DUP4 SUB DUP2 DUP7 GAS STATICCALL ISZERO DUP1 ISZERO PUSH2 0xECF JUMPI RETURNDATASIZE PUSH0 DUP1 RETURNDATACOPY RETURNDATASIZE PUSH0 REVERT JUMPDEST POP POP POP POP PUSH1 0x40 MLOAD RETURNDATASIZE PUSH1 0x1F NOT PUSH1 0x1F DUP3 ADD AND DUP3 ADD DUP1 PUSH1 0x40 MSTORE POP DUP2 ADD SWAP1 PUSH2 0xEF3 SWAP2 SWAP1 PUSH2 0x4816 JUMP JUMPDEST CALLER PUSH1 0x40 MLOAD DUP4 PUSH4 0xFFFFFFFF AND PUSH1 0xE0 SHL DUP2 MSTORE PUSH1 0x4 ADD PUSH2 0xF11 SWAP3 SWAP2 SWAP1 PUSH2 0x4850 JUMP JUMPDEST PUSH1 0x20 PUSH1 0x40 MLOAD DUP1 DUP4 SUB DUP2 DUP7 GAS STATICCALL ISZERO DUP1 ISZERO PUSH2 0xF2C JUMPI RETURNDATASIZE PUSH0 DUP1 RETURNDATACOPY RETURNDATASIZE PUSH0 REVERT JUMPDEST POP POP POP POP PUSH1 0x40 MLOAD RETURNDATASIZE PUSH1 0x1F NOT PUSH1 0x1F DUP3 ADD AND DUP3 ADD DUP1 PUSH1 0x40 MSTORE POP DUP2 ADD SWAP1 PUSH2 0xF50 SWAP2 SWAP1 PUSH2 0x488B JUMP JUMPDEST PUSH2 0xF8F JUMPI PUSH1 0x40 MLOAD PUSH32 0x8C379A000000000000000000000000000000000000000000000000000000000 DUP2 MSTORE PUSH1 0x4 ADD PUSH2 0xF86 SWAP1 PUSH2 0x4B0E JUMP JUMPDEST PUSH1 0x40 MLOAD DUP1 SWAP2 SUB SWAP1 REVERT JUMPDEST PUSH2 0xF97 PUSH2 0x2EDC JUMP JUMPDEST JUMP JUMPDEST PUSH32 0x0 PUSH20 0xFFFFFFFFFFFFFFFFFFFFFFFFFFFFFFFFFFFFFFFF AND PUSH4 0x91D14854 PUSH32 0x0 PUSH20 0xFFFFFFFFFFFFFFFFFFFFFFFFFFFFFFFFFFFFFFFF AND PUSH4 0x303E3840 PUSH1 0x40 MLOAD DUP2 PUSH4 0xFFFFFFFF AND PUSH1 0xE0 SHL DUP2 MSTORE PUSH1 0x4 ADD PUSH1 0x20 PUSH1 0x40 MLOAD DUP1 DUP4 SUB DUP2 DUP7 GAS STATICCALL ISZERO DUP1 ISZERO PUSH2 0x103E JUMPI RETURNDATASIZE PUSH0 DUP1 RETURNDATACOPY RETURNDATASIZE PUSH0 REVERT JUMPDEST POP POP POP POP PUSH1 0x40 MLOAD RETURNDATASIZE PUSH1 0x1F NOT PUSH1 0x1F DUP3 ADD AND DUP3 ADD DUP1 PUSH1 0x40 MSTORE POP DUP2 ADD SWAP1 PUSH2 0x1062 SWAP2 SWAP1 PUSH2 0x4816 JUMP JUMPDEST CALLER PUSH1 0x40 MLOAD DUP4 PUSH4 0xFFFFFFFF AND PUSH1 0xE0 SHL DUP2 MSTORE PUSH1 0x4 ADD PUSH2 0x1080 SWAP3 SWAP2 SWAP1 PUSH2 0x4850 JUMP JUMPDEST PUSH1 0x20 PUSH1 0x40 MLOAD DUP1 DUP4 SUB DUP2 DUP7 GAS STATICCALL ISZERO DUP1 ISZERO PUSH2 0x109B JUMPI RETURNDATASIZE PUSH0 DUP1 RETURNDATACOPY RETURNDATASIZE PUSH0 REVERT JUMPDEST POP POP POP POP PUSH1 0x40 MLOAD RETURNDATASIZE PUSH1 0x1F NOT PUSH1 0x1F DUP3 ADD AND DUP3 ADD DUP1 PUSH1 0x40 MSTORE POP DUP2 ADD SWAP1 PUSH2 0x10BF SWAP2 SWAP1 PUSH2 0x488B JUMP JUMPDEST PUSH2 0x10FE JUMPI PUSH1 0x40 MLOAD PUSH32 0x8C379A000000000000000000000000000000000000000000000000000000000 DUP2 MSTORE PUSH1 0x4 ADD PUSH2 0x10F5 SWAP1 PUSH2 0x4900 JUMP JUMPDEST PUSH1 0x40 MLOAD DUP1 SWAP2 SUB SWAP1 REVERT JUMPDEST PUSH2 0x1106 PUSH2 0x2BA3 JUMP JUMPDEST PUSH0 DUP3 DUP3 SWAP1 POP GT PUSH2 0x114B JUMPI PUSH1 0x40 MLOAD PUSH32 0x8C379A000000000000000000000000000000000000000000000000000000000 DUP2 MSTORE PUSH1 0x4 ADD PUSH2 0x1142 SWAP1 PUSH2 0x4B76 JUMP JUMPDEST PUSH1 0x40 MLOAD DUP1 SWAP2 SUB SWAP1 REVERT JUMPDEST PUSH1 0xA PUSH0 DUP5 DUP2 MSTORE PUSH1 0x20 ADD SWAP1 DUP2 MSTORE PUSH1 0x20 ADD PUSH0 KECCAK256 PUSH0 SWAP1 SLOAD SWAP1 PUSH2 0x100 EXP SWAP1 DIV PUSH1 0xFF AND ISZERO PUSH2 0x11A9 JUMPI PUSH1 0x40 MLOAD PUSH32 0x8C379A000000000000000000000000000000000000000000000000000000000 DUP2 MSTORE PUSH1 0x4 ADD PUSH2 0x11A0 SWAP1 PUSH2 0x4BDE JUMP JUMPDEST PUSH1 0x40 MLOAD DUP1 SWAP2 SUB SWAP1 REVERT JUMPDEST PUSH0 PUSH1 0x3 DUP2 GT ISZERO PUSH2 0x11BC JUMPI PUSH2 0x11BB PUSH2 0x4436 JUMP JUMPDEST JUMPDEST PUSH1 0x9 PUSH0 DUP6 DUP2 MSTORE PUSH1 0x20 ADD SWAP1 DUP2 MSTORE PUSH1 0x20 ADD PUSH0 KECCAK256 PUSH1 0x3 ADD PUSH0 SWAP1 SLOAD SWAP1 PUSH2 0x100 EXP SWAP1 DIV PUSH1 0xFF AND PUSH1 0x3 DUP2 GT ISZERO PUSH2 0x11EF JUMPI PUSH2 0x11EE PUSH2 0x4436 JUMP JUMPDEST JUMPDEST EQ PUSH2 0x122F JUMPI PUSH1 0x40 MLOAD PUSH32 0x8C379A000000000000000000000000000000000000000000000000000000000 DUP2 MSTORE PUSH1 0x4 ADD PUSH2 0x1226 SWAP1 PUSH2 0x4C46 JUMP JUMPDEST PUSH1 0x40 MLOAD DUP1 SWAP2 SUB SWAP1 REVERT JUMPDEST PUSH0 PUSH32 0x0 PUSH20 0xFFFFFFFFFFFFFFFFFFFFFFFFFFFFFFFFFFFFFFFF AND PUSH4 0xFF91E489 DUP6 PUSH1 0x40 MLOAD DUP3 PUSH4 0xFFFFFFFF AND PUSH1 0xE0 SHL DUP2 MSTORE PUSH1 0x4 ADD PUSH2 0x1289 SWAP2 SWAP1 PUSH2 0x4343 JUMP JUMPDEST PUSH0 PUSH1 0x40 MLOAD DUP1 DUP4 SUB DUP2 DUP7 GAS STATICCALL ISZERO DUP1 ISZERO PUSH2 0x12A3 JUMPI RETURNDATASIZE PUSH0 DUP1 RETURNDATACOPY RETURNDATASIZE PUSH0 REVERT JUMPDEST POP POP POP POP PUSH1 0x40 MLOAD RETURNDATASIZE PUSH0 DUP3 RETURNDATACOPY RETURNDATASIZE PUSH1 0x1F NOT PUSH1 0x1F DUP3 ADD AND DUP3 ADD DUP1 PUSH1 0x40 MSTORE POP DUP2 ADD SWAP1 PUSH2 0x12CB SWAP2 SWAP1 PUSH2 0x4F3B JUMP JUMPDEST SWAP1 POP DUP1 PUSH1 0xA0 ADD MLOAD PUSH2 0x1311 JUMPI PUSH1 0x40 MLOAD PUSH32 0x8C379A000000000000000000000000000000000000000000000000000000000 DUP2 MSTORE PUSH1 0x4 ADD PUSH2 0x1308 SWAP1 PUSH2 0x4FCC JUMP JUMPDEST PUSH1 0x40 MLOAD DUP1 SWAP2 SUB SWAP1 REVERT JUMPDEST PUSH1 0x40 MLOAD DUP1 PUSH1 0xA0 ADD PUSH1 0x40 MSTORE DUP1 DUP6 DUP2 MSTORE PUSH1 0x20 ADD CALLER PUSH20 0xFFFFFFFFFFFFFFFFFFFFFFFFFFFFFFFFFFFFFFFF AND DUP2 MSTORE PUSH1 0x20 ADD DUP5 DUP5 DUP1 DUP1 PUSH1 0x1F ADD PUSH1 0x20 DUP1 SWAP2 DIV MUL PUSH1 0x20 ADD PUSH1 0x40 MLOAD SWAP1 DUP2 ADD PUSH1 0x40 MSTORE DUP1 SWAP4 SWAP3 SWAP2 SWAP1 DUP2 DUP2 MSTORE PUSH1 0x20 ADD DUP4 DUP4 DUP1 DUP3 DUP5 CALLDATACOPY PUSH0 DUP2 DUP5 ADD MSTORE PUSH1 0x1F NOT PUSH1 0x1F DUP3 ADD AND SWAP1 POP DUP1 DUP4 ADD SWAP3 POP POP POP POP POP POP POP DUP2 MSTORE PUSH1 0x20 ADD PUSH1 0x1 PUSH1 0x3 DUP2 GT ISZERO PUSH2 0x139B JUMPI PUSH2 0x139A PUSH2 0x4436 JUMP JUMPDEST JUMPDEST DUP2 MSTORE PUSH1 0x20 ADD TIMESTAMP DUP2 MSTORE POP PUSH1 0x9 PUSH0 DUP7 DUP2 MSTORE PUSH1 0x20 ADD SWAP1 DUP2 MSTORE PUSH1 0x20 ADD PUSH0 KECCAK256 PUSH0 DUP3 ADD MLOAD DUP2 PUSH0 ADD SSTORE PUSH1 0x20 DUP3 ADD MLOAD DUP2 PUSH1 0x1 ADD PUSH0 PUSH2 0x100 EXP DUP2 SLOAD DUP2 PUSH20 0xFFFFFFFFFFFFFFFFFFFFFFFFFFFFFFFFFFFFFFFF MUL NOT AND SWAP1 DUP4 PUSH20 0xFFFFFFFFFFFFFFFFFFFFFFFFFFFFFFFFFFFFFFFF AND MUL OR SWAP1 SSTORE POP PUSH1 0x40 DUP3 ADD MLOAD DUP2 PUSH1 0x2 ADD SWAP1 DUP2 PUSH2 0x1418 SWAP2 SWAP1 PUSH2 0x517E JUMP JUMPDEST POP PUSH1 0x60 DUP3 ADD MLOAD DUP2 PUSH1 0x3 ADD PUSH0 PUSH2 0x100 EXP DUP2 SLOAD DUP2 PUSH1 0xFF MUL NOT AND SWAP1 DUP4 PUSH1 0x3 DUP2 GT ISZERO PUSH2 0x1443 JUMPI PUSH2 0x1442 PUSH2 0x4436 JUMP JUMPDEST JUMPDEST MUL OR SWAP1 SSTORE POP PUSH1 0x80 DUP3 ADD MLOAD DUP2 PUSH1 0x4 ADD SSTORE SWAP1 POP POP PUSH1 0xB PUSH0 CALLER PUSH20 0xFFFFFFFFFFFFFFFFFFFFFFFFFFFFFFFFFFFFFFFF AND PUSH20 0xFFFFFFFFFFFFFFFFFFFFFFFFFFFFFFFFFFFFFFFF AND DUP2 MSTORE PUSH1 0x20 ADD SWAP1 DUP2 MSTORE PUSH1 0x20 ADD PUSH0 KECCAK256 DUP5 SWAP1 DUP1 PUSH1 0x1 DUP2 SLOAD ADD DUP1 DUP3 SSTORE DUP1 SWAP2 POP POP PUSH1 0x1 SWAP1 SUB SWAP1 PUSH0 MSTORE PUSH1 0x20 PUSH0 KECCAK256 ADD PUSH0 SWAP1 SWAP2 SWAP1 SWAP2 SWAP1 SWAP2 POP SSTORE PUSH1 0xC PUSH0 DUP6 DUP2 MSTORE PUSH1 0x20 ADD SWAP1 DUP2 MSTORE PUSH1 0x20 ADD PUSH0 KECCAK256 DUP5 SWAP1 DUP1 PUSH1 0x1 DUP2 SLOAD ADD DUP1 DUP3 SSTORE DUP1 SWAP2 POP POP PUSH1 0x1 SWAP1 SUB SWAP1 PUSH0 MSTORE PUSH1 0x20 PUSH0 KECCAK256 ADD PUSH0 SWAP1 SWAP2 SWAP1 SWAP2 SWAP1 SWAP2 POP SSTORE CALLER PUSH20 0xFFFFFFFFFFFFFFFFFFFFFFFFFFFFFFFFFFFFFFFF AND DUP5 PUSH32 0x2C01190DEB24FE5101A0373E8EE0ED3438853AAFFEAF7FA5CA1C8DB13D9E32B9 PUSH1 0x40 MLOAD PUSH1 0x40 MLOAD DUP1 SWAP2 SUB SWAP1 LOG3 POP POP POP POP JUMP JUMPDEST PUSH2 0x154F DUP4 DUP4 DUP4 PUSH1 0x40 MLOAD DUP1 PUSH1 0x20 ADD PUSH1 0x40 MSTORE DUP1 PUSH0 DUP2 MSTORE POP PUSH2 0x1E79 JUMP JUMPDEST POP POP POP JUMP JUMPDEST PUSH1 0x60 PUSH1 0xC PUSH0 DUP4 DUP2 MSTORE PUSH1 0x20 ADD SWAP1 DUP2 MSTORE PUSH1 0x20 ADD PUSH0 KECCAK256 DUP1 SLOAD DUP1 PUSH1 0x20 MUL PUSH1 0x20 ADD PUSH1 0x40 MLOAD SWAP1 DUP2 ADD PUSH1 0x40 MSTORE DUP1 SWAP3 SWAP2 SWAP1 DUP2 DUP2 MSTORE PUSH1 0x20 ADD DUP3 DUP1 SLOAD DUP1 ISZERO PUSH2 0x15AF JUMPI PUSH1 0x20 MUL DUP3 ADD SWAP2 SWAP1 PUSH0 MSTORE PUSH1 0x20 PUSH0 KECCAK256 SWAP1 JUMPDEST DUP2 SLOAD DUP2 MSTORE PUSH1 0x20 ADD SWAP1 PUSH1 0x1 ADD SWAP1 DUP1 DUP4 GT PUSH2 0x159B JUMPI JUMPDEST POP POP POP POP POP SWAP1 POP SWAP2 SWAP1 POP JUMP JUMPDEST PUSH0 PUSH1 0x6 PUSH0 SWAP1 SLOAD SWAP1 PUSH2 0x100 EXP SWAP1 DIV PUSH1 0xFF AND SWAP1 POP SWAP1 JUMP JUMPDEST PUSH0 PUSH2 0x15DA DUP3 PUSH2 0x2BED JUMP JUMPDEST SWAP1 POP SWAP2 SWAP1 POP JUMP JUMPDEST PUSH0 DUP1 PUSH20 0xFFFFFFFFFFFFFFFFFFFFFFFFFFFFFFFFFFFFFFFF AND DUP3 PUSH20 0xFFFFFFFFFFFFFFFFFFFFFFFFFFFFFFFFFFFFFFFF AND SUB PUSH2 0x1652 JUMPI PUSH0 PUSH1 0x40 MLOAD PUSH32 0x89C62B6400000000000000000000000000000000000000000000000000000000 DUP2 MSTORE PUSH1 0x4 ADD PUSH2 0x1649 SWAP2 SWAP1 PUSH2 0x40A3 JUMP JUMPDEST PUSH1 0x40 MLOAD DUP1 SWAP2 SUB SWAP1 REVERT JUMPDEST PUSH1 0x3 PUSH0 DUP4 PUSH20 0xFFFFFFFFFFFFFFFFFFFFFFFFFFFFFFFFFFFFFFFF AND PUSH20 0xFFFFFFFFFFFFFFFFFFFFFFFFFFFFFFFFFFFFFFFF AND DUP2 MSTORE PUSH1 0x20 ADD SWAP1 DUP2 MSTORE PUSH1 0x20 ADD PUSH0 KECCAK256 SLOAD SWAP1 POP SWAP2 SWAP1 POP JUMP JUMPDEST PUSH32 0x0 DUP2 JUMP JUMPDEST PUSH32 0x0 DUP2 JUMP JUMPDEST DUP1 PUSH0 PUSH32 0x0 PUSH20 0xFFFFFFFFFFFFFFFFFFFFFFFFFFFFFFFFFFFFFFFF AND PUSH4 0xFF91E489 DUP4 PUSH1 0x40 MLOAD DUP3 PUSH4 0xFFFFFFFF AND PUSH1 0xE0 SHL DUP2 MSTORE PUSH1 0x4 ADD PUSH2 0x173A SWAP2 SWAP1 PUSH2 0x4343 JUMP JUMPDEST PUSH0 PUSH1 0x40 MLOAD DUP1 DUP4 SUB DUP2 DUP7 GAS STATICCALL ISZERO DUP1 ISZERO PUSH2 0x1754 JUMPI RETURNDATASIZE PUSH0 DUP1 RETURNDATACOPY RETURNDATASIZE PUSH0 REVERT JUMPDEST POP POP POP POP PUSH1 0x40 MLOAD RETURNDATASIZE PUSH0 DUP3 RETURNDATACOPY RETURNDATASIZE PUSH1 0x1F NOT PUSH1 0x1F DUP3 ADD AND DUP3 ADD DUP1 PUSH1 0x40 MSTORE POP DUP2 ADD SWAP1 PUSH2 0x177C SWAP2 SWAP1 PUSH2 0x4F3B JUMP JUMPDEST SWAP1 POP DUP1 PUSH1 0xA0 ADD MLOAD PUSH2 0x17C2 JUMPI PUSH1 0x40 MLOAD PUSH32 0x8C379A000000000000000000000000000000000000000000000000000000000 DUP2 MSTORE PUSH1 0x4 ADD PUSH2 0x17B9 SWAP1 PUSH2 0x4FCC JUMP JUMPDEST PUSH1 0x40 MLOAD DUP1 SWAP2 SUB SWAP1 REVERT JUMPDEST PUSH0 PUSH32 0x0 PUSH20 0xFFFFFFFFFFFFFFFFFFFFFFFFFFFFFFFFFFFFFFFF AND PUSH4 0xE3FBF314 DUP4 PUSH1 0xC0 ADD MLOAD PUSH1 0x40 MLOAD DUP3 PUSH4 0xFFFFFFFF AND PUSH1 0xE0 SHL DUP2 MSTORE PUSH1 0x4 ADD PUSH2 0x1820 SWAP2 SWAP1 PUSH2 0x4343 JUMP JUMPDEST PUSH0 PUSH1 0x40 MLOAD DUP1 DUP4 SUB DUP2 DUP7 GAS STATICCALL ISZERO DUP1 ISZERO PUSH2 0x183A JUMPI RETURNDATASIZE PUSH0 DUP1 RETURNDATACOPY RETURNDATASIZE PUSH0 REVERT JUMPDEST POP POP POP POP PUSH1 0x40 MLOAD RETURNDATASIZE PUSH0 DUP3 RETURNDATACOPY RETURNDATASIZE PUSH1 0x1F NOT PUSH1 0x1F DUP3 ADD AND DUP3 ADD DUP1 PUSH1 0x40 MSTORE POP DUP2 ADD SWAP1 PUSH2 0x1862 SWAP2 SWAP1 PUSH2 0x534C JUMP JUMPDEST SWAP1 POP DUP1 PUSH1 0xA0 ADD MLOAD PUSH2 0x18A8 JUMPI PUSH1 0x40 MLOAD PUSH32 0x8C379A000000000000000000000000000000000000000000000000000000000 DUP2 MSTORE PUSH1 0x4 ADD PUSH2 0x189F SWAP1 PUSH2 0x53DD JUMP JUMPDEST PUSH1 0x40 MLOAD DUP1 SWAP2 SUB SWAP1 REVERT JUMPDEST DUP1 PUSH1 0x60 ADD MLOAD PUSH20 0xFFFFFFFFFFFFFFFFFFFFFFFFFFFFFFFFFFFFFFFF AND CALLER PUSH20 0xFFFFFFFFFFFFFFFFFFFFFFFFFFFFFFFFFFFFFFFF AND EQ PUSH2 0x191A JUMPI PUSH1 0x40 MLOAD PUSH32 0x8C379A000000000000000000000000000000000000000000000000000000000 DUP2 MSTORE PUSH1 0x4 ADD PUSH2 0x1911 SWAP1 PUSH2 0x5445 JUMP JUMPDEST PUSH1 0x40 MLOAD DUP1 SWAP2 SUB SWAP1 REVERT JUMPDEST PUSH2 0x1922 PUSH2 0x2BA3 JUMP JUMPDEST PUSH0 PUSH1 0x9 PUSH0 DUP7 DUP2 MSTORE PUSH1 0x20 ADD SWAP1 DUP2 MSTORE PUSH1 0x20 ADD PUSH0 KECCAK256 SWAP1 POP PUSH1 0x1 PUSH1 0x3 DUP2 GT ISZERO PUSH2 0x194A JUMPI PUSH2 0x1949 PUSH2 0x4436 JUMP JUMPDEST JUMPDEST DUP2 PUSH1 0x3 ADD PUSH0 SWAP1 SLOAD SWAP1 PUSH2 0x100 EXP SWAP1 DIV PUSH1 0xFF AND PUSH1 0x3 DUP2 GT ISZERO PUSH2 0x196D JUMPI PUSH2 0x196C PUSH2 0x4436 JUMP JUMPDEST JUMPDEST EQ PUSH2 0x19AD JUMPI PUSH1 0x40 MLOAD PUSH32 0x8C379A000000000000000000000000000000000000000000000000000000000 DUP2 MSTORE PUSH1 0x4 ADD PUSH2 0x19A4 SWAP1 PUSH2 0x54AD JUMP JUMPDEST PUSH1 0x40 MLOAD DUP1 SWAP2 SUB SWAP1 REVERT JUMPDEST PUSH1 0x2 DUP2 PUSH1 0x3 ADD PUSH0 PUSH2 0x100 EXP DUP2 SLOAD DUP2 PUSH1 0xFF MUL NOT AND SWAP1 DUP4 PUSH1 0x3 DUP2 GT ISZERO PUSH2 0x19D4 JUMPI PUSH2 0x19D3 PUSH2 0x4436 JUMP JUMPDEST JUMPDEST MUL OR SWAP1 SSTORE POP PUSH2 0x1A42 PUSH1 0xB PUSH0 DUP4 PUSH1 0x1 ADD PUSH0 SWAP1 SLOAD SWAP1 PUSH2 0x100 EXP SWAP1 DIV PUSH20 0xFFFFFFFFFFFFFFFFFFFFFFFFFFFFFFFFFFFFFFFF AND PUSH20 0xFFFFFFFFFFFFFFFFFFFFFFFFFFFFFFFFFFFFFFFF AND PUSH20 0xFFFFFFFFFFFFFFFFFFFFFFFFFFFFFFFFFFFFFFFF AND DUP2 MSTORE PUSH1 0x20 ADD SWAP1 DUP2 MSTORE PUSH1 0x20 ADD PUSH0 KECCAK256 DUP7 PUSH2 0x2F3D JUMP JUMPDEST PUSH2 0x1A5C PUSH1 0xC PUSH0 DUP8 DUP2 MSTORE PUSH1 0x20 ADD SWAP1 DUP2 MSTORE PUSH1 0x20 ADD PUSH0 KECCAK256 DUP7 PUSH2 0x2F3D JUMP JUMPDEST DUP1 PUSH1 0x1 ADD PUSH0 SWAP1 SLOAD SWAP1 PUSH2 0x100 EXP SWAP1 DIV PUSH20 0xFFFFFFFFFFFFFFFFFFFFFFFFFFFFFFFFFFFFFFFF AND PUSH20 0xFFFFFFFFFFFFFFFFFFFFFFFFFFFFFFFFFFFFFFFF AND DUP6 PUSH32 0xE90F4A07E9A9AF1DD1030380992296AC79B9AEA4F6705F8365F9DF1BCBF3AD4C PUSH1 0x40 MLOAD PUSH1 0x40 MLOAD DUP1 SWAP2 SUB SWAP1 LOG3 POP POP POP POP POP JUMP JUMPDEST PUSH32 0x0 PUSH20 0xFFFFFFFFFFFFFFFFFFFFFFFFFFFFFFFFFFFFFFFF AND PUSH4 0x91D14854 PUSH32 0x0 PUSH20 0xFFFFFFFFFFFFFFFFFFFFFFFFFFFFFFFFFFFFFFFF AND PUSH4 0x75B238FC PUSH1 0x40 MLOAD DUP2 PUSH4 0xFFFFFFFF AND PUSH1 0xE0 SHL DUP2 MSTORE PUSH1 0x4 ADD PUSH1 0x20 PUSH1 0x40 MLOAD DUP1 DUP4 SUB DUP2 DUP7 GAS STATICCALL ISZERO DUP1 ISZERO PUSH2 0x1B6F JUMPI RETURNDATASIZE PUSH0 DUP1 RETURNDATACOPY RETURNDATASIZE PUSH0 REVERT JUMPDEST POP POP POP POP PUSH1 0x40 MLOAD RETURNDATASIZE PUSH1 0x1F NOT PUSH1 0x1F DUP3 ADD AND DUP3 ADD DUP1 PUSH1 0x40 MSTORE POP DUP2 ADD SWAP1 PUSH2 0x1B93 SWAP2 SWAP1 PUSH2 0x4816 JUMP JUMPDEST CALLER PUSH1 0x40 MLOAD DUP4 PUSH4 0xFFFFFFFF AND PUSH1 0xE0 SHL DUP2 MSTORE PUSH1 0x4 ADD PUSH2 0x1BB1 SWAP3 SWAP2 SWAP1 PUSH2 0x4850 JUMP JUMPDEST PUSH1 0x20 PUSH1 0x40 MLOAD DUP1 DUP4 SUB DUP2 DUP7 GAS STATICCALL ISZERO DUP1 ISZERO PUSH2 0x1BCC JUMPI RETURNDATASIZE PUSH0 DUP1 RETURNDATACOPY RETURNDATASIZE PUSH0 REVERT JUMPDEST POP POP POP POP PUSH1 0x40 MLOAD RETURNDATASIZE PUSH1 0x1F NOT PUSH1 0x1F DUP3 ADD AND DUP3 ADD DUP1 PUSH1 0x40 MSTORE POP DUP2 ADD SWAP1 PUSH2 0x1BF0 SWAP2 SWAP1 PUSH2 0x488B JUMP JUMPDEST PUSH2 0x1C2F JUMPI PUSH1 0x40 MLOAD PUSH32 0x8C379A000000000000000000000000000000000000000000000000000000000 DUP2 MSTORE PUSH1 0x4 ADD PUSH2 0x1C26 SWAP1 PUSH2 0x4B0E JUMP JUMPDEST PUSH1 0x40 MLOAD DUP1 SWAP2 SUB SWAP1 REVERT JUMPDEST PUSH2 0x1C37 PUSH2 0x2FF3 JUMP JUMPDEST JUMP JUMPDEST PUSH1 0x60 PUSH1 0xB PUSH0 DUP4 PUSH20 0xFFFFFFFFFFFFFFFFFFFFFFFFFFFFFFFFFFFFFFFF AND PUSH20 0xFFFFFFFFFFFFFFFFFFFFFFFFFFFFFFFFFFFFFFFF AND DUP2 MSTORE PUSH1 0x20 ADD SWAP1 DUP2 MSTORE PUSH1 0x20 ADD PUSH0 KECCAK256 DUP1 SLOAD DUP1 PUSH1 0x20 MUL PUSH1 0x20 ADD PUSH1 0x40 MLOAD SWAP1 DUP2 ADD PUSH1 0x40 MSTORE DUP1 SWAP3 SWAP2 SWAP1 DUP2 DUP2 MSTORE PUSH1 0x20 ADD DUP3 DUP1 SLOAD DUP1 ISZERO PUSH2 0x1CC0 JUMPI PUSH1 0x20 MUL DUP3 ADD SWAP2 SWAP1 PUSH0 MSTORE PUSH1 0x20 PUSH0 KECCAK256 SWAP1 JUMPDEST DUP2 SLOAD DUP2 MSTORE PUSH1 0x20 ADD SWAP1 PUSH1 0x1 ADD SWAP1 DUP1 DUP4 GT PUSH2 0x1CAC JUMPI JUMPDEST POP POP POP POP POP SWAP1 POP SWAP2 SWAP1 POP JUMP JUMPDEST PUSH1 0x60 PUSH1 0x1 DUP1 SLOAD PUSH2 0x1CDB SWAP1 PUSH2 0x47B3 JUMP JUMPDEST DUP1 PUSH1 0x1F ADD PUSH1 0x20 DUP1 SWAP2 DIV MUL PUSH1 0x20 ADD PUSH1 0x40 MLOAD SWAP1 DUP2 ADD PUSH1 0x40 MSTORE DUP1 SWAP3 SWAP2 SWAP1 DUP2 DUP2 MSTORE PUSH1 0x20 ADD DUP3 DUP1 SLOAD PUSH2 0x1D07 SWAP1 PUSH2 0x47B3 JUMP JUMPDEST DUP1 ISZERO PUSH2 0x1D52 JUMPI DUP1 PUSH1 0x1F LT PUSH2 0x1D29 JUMPI PUSH2 0x100 DUP1 DUP4 SLOAD DIV MUL DUP4 MSTORE SWAP2 PUSH1 0x20 ADD SWAP2 PUSH2 0x1D52 JUMP JUMPDEST DUP3 ADD SWAP2 SWAP1 PUSH0 MSTORE PUSH1 0x20 PUSH0 KECCAK256 SWAP1 JUMPDEST DUP2 SLOAD DUP2 MSTORE SWAP1 PUSH1 0x1 ADD SWAP1 PUSH1 0x20 ADD DUP1 DUP4 GT PUSH2 0x1D35 JUMPI DUP3 SWAP1 SUB PUSH1 0x1F AND DUP3 ADD SWAP2 JUMPDEST POP POP POP POP POP SWAP1 POP SWAP1 JUMP JUMPDEST PUSH2 0x1D6E PUSH2 0x1D67 PUSH2 0x2CB8 JUMP JUMPDEST DUP4 DUP4 PUSH2 0x3055 JUMP JUMPDEST POP POP JUMP JUMPDEST PUSH1 0x9 PUSH1 0x20 MSTORE DUP1 PUSH0 MSTORE PUSH1 0x40 PUSH0 KECCAK256 PUSH0 SWAP2 POP SWAP1 POP DUP1 PUSH0 ADD SLOAD SWAP1 DUP1 PUSH1 0x1 ADD PUSH0 SWAP1 SLOAD SWAP1 PUSH2 0x100 EXP SWAP1 DIV PUSH20 0xFFFFFFFFFFFFFFFFFFFFFFFFFFFFFFFFFFFFFFFF AND SWAP1 DUP1 PUSH1 0x2 ADD DUP1 SLOAD PUSH2 0x1DBC SWAP1 PUSH2 0x47B3 JUMP JUMPDEST DUP1 PUSH1 0x1F ADD PUSH1 0x20 DUP1 SWAP2 DIV MUL PUSH1 0x20 ADD PUSH1 0x40 MLOAD SWAP1 DUP2 ADD PUSH1 0x40 MSTORE DUP1 SWAP3 SWAP2 SWAP1 DUP2 DUP2 MSTORE PUSH1 0x20 ADD DUP3 DUP1 SLOAD PUSH2 0x1DE8 SWAP1 PUSH2 0x47B3 JUMP JUMPDEST DUP1 ISZERO PUSH2 0x1E33 JUMPI DUP1 PUSH1 0x1F LT PUSH2 0x1E0A JUMPI PUSH2 0x100 DUP1 DUP4 SLOAD DIV MUL DUP4 MSTORE SWAP2 PUSH1 0x20 ADD SWAP2 PUSH2 0x1E33 JUMP JUMPDEST DUP3 ADD SWAP2 SWAP1 PUSH0 MSTORE PUSH1 0x20 PUSH0 KECCAK256 SWAP1 JUMPDEST DUP2 SLOAD DUP2 MSTORE SWAP1 PUSH1 0x1 ADD SWAP1 PUSH1 0x20 ADD DUP1 DUP4 GT PUSH2 0x1E16 JUMPI DUP3 SWAP1 SUB PUSH1 0x1F AND DUP3 ADD SWAP2 JUMPDEST POP POP POP POP POP SWAP1 DUP1 PUSH1 0x3 ADD PUSH0 SWAP1 SLOAD SWAP1 PUSH2 0x100 EXP SWAP1 DIV PUSH1 0xFF AND SWAP1 DUP1 PUSH1 0x4 ADD SLOAD SWAP1 POP DUP6 JUMP JUMPDEST PUSH32 0x0 DUP2 JUMP JUMPDEST PUSH2 0x1E84 DUP5 DUP5 DUP5 PUSH2 0xD2B JUMP JUMPDEST PUSH2 0x1E98 PUSH2 0x1E8F PUSH2 0x2CB8 JUMP JUMPDEST DUP6 DUP6 DUP6 DUP6 PUSH2 0x31BE JUMP JUMPDEST POP POP POP POP JUMP JUMPDEST PUSH1 0x8 PUSH1 0x20 MSTORE DUP1 PUSH0 MSTORE PUSH1 0x40 PUSH0 KECCAK256 PUSH0 SWAP2 POP SWAP1 POP DUP1 PUSH0 ADD SLOAD SWAP1 DUP1 PUSH1 0x1 ADD SLOAD SWAP1 DUP1 PUSH1 0x2 ADD PUSH0 SWAP1 SLOAD SWAP1 PUSH2 0x100 EXP SWAP1 DIV PUSH20 0xFFFFFFFFFFFFFFFFFFFFFFFFFFFFFFFFFFFFFFFF AND SWAP1 DUP1 PUSH1 0x3 ADD DUP1 SLOAD PUSH2 0x1EEE SWAP1 PUSH2 0x47B3 JUMP JUMPDEST DUP1 PUSH1 0x1F ADD PUSH1 0x20 DUP1 SWAP2 DIV MUL PUSH1 0x20 ADD PUSH1 0x40 MLOAD SWAP1 DUP2 ADD PUSH1 0x40 MSTORE DUP1 SWAP3 SWAP2 SWAP1 DUP2 DUP2 MSTORE PUSH1 0x20 ADD DUP3 DUP1 SLOAD PUSH2 0x1F1A SWAP1 PUSH2 0x47B3 JUMP JUMPDEST DUP1 ISZERO PUSH2 0x1F65 JUMPI DUP1 PUSH1 0x1F LT PUSH2 0x1F3C JUMPI PUSH2 0x100 DUP1 DUP4 SLOAD DIV MUL DUP4 MSTORE SWAP2 PUSH1 0x20 ADD SWAP2 PUSH2 0x1F65 JUMP JUMPDEST DUP3 ADD SWAP2 SWAP1 PUSH0 MSTORE PUSH1 0x20 PUSH0 KECCAK256 SWAP1 JUMPDEST DUP2 SLOAD DUP2 MSTORE SWAP1 PUSH1 0x1 ADD SWAP1 PUSH1 0x20 ADD DUP1 DUP4 GT PUSH2 0x1F48 JUMPI DUP3 SWAP1 SUB PUSH1 0x1F AND DUP3 ADD SWAP2 JUMPDEST POP POP POP POP POP SWAP1 DUP1 PUSH1 0x4 ADD PUSH0 SWAP1 SLOAD SWAP1 PUSH2 0x100 EXP SWAP1 DIV PUSH1 0xFF AND SWAP1 DUP1 PUSH1 0x5 ADD SLOAD SWAP1 POP DUP7 JUMP JUMPDEST PUSH1 0x60 PUSH2 0x1F92 DUP3 PUSH2 0x2BED JUMP JUMPDEST POP PUSH0 PUSH2 0x1F9C PUSH2 0x336A JUMP JUMPDEST SWAP1 POP PUSH0 DUP2 MLOAD GT PUSH2 0x1FBA JUMPI PUSH1 0x40 MLOAD DUP1 PUSH1 0x20 ADD PUSH1 0x40 MSTORE DUP1 PUSH0 DUP2 MSTORE POP PUSH2 0x1FE5 JUMP JUMPDEST DUP1 PUSH2 0x1FC4 DUP5 PUSH2 0x3380 JUMP JUMPDEST PUSH1 0x40 MLOAD PUSH1 0x20 ADD PUSH2 0x1FD5 SWAP3 SWAP2 SWAP1 PUSH2 0x5505 JUMP JUMPDEST PUSH1 0x40 MLOAD PUSH1 0x20 DUP2 DUP4 SUB SUB DUP2 MSTORE SWAP1 PUSH1 0x40 MSTORE JUMPDEST SWAP2 POP POP SWAP2 SWAP1 POP JUMP JUMPDEST PUSH1 0x60 PUSH0 DUP1 PUSH2 0x1FFB PUSH1 0x7 PUSH2 0x2CAC JUMP JUMPDEST SWAP1 POP PUSH0 PUSH1 0x1 SWAP1 POP JUMPDEST DUP2 DUP2 GT PUSH2 0x2077 JUMPI PUSH1 0x3 DUP1 DUP2 GT ISZERO PUSH2 0x201D JUMPI PUSH2 0x201C PUSH2 0x4436 JUMP JUMPDEST JUMPDEST PUSH1 0x9 PUSH0 DUP4 DUP2 MSTORE PUSH1 0x20 ADD SWAP1 DUP2 MSTORE PUSH1 0x20 ADD PUSH0 KECCAK256 PUSH1 0x3 ADD PUSH0 SWAP1 SLOAD SWAP1 PUSH2 0x100 EXP SWAP1 DIV PUSH1 0xFF AND PUSH1 0x3 DUP2 GT ISZERO PUSH2 0x2050 JUMPI PUSH2 0x204F PUSH2 0x4436 JUMP JUMPDEST JUMPDEST SUB PUSH2 0x2064 JUMPI DUP3 DUP1 PUSH2 0x2060 SWAP1 PUSH2 0x4A1B JUMP JUMPDEST SWAP4 POP POP JUMPDEST DUP1 DUP1 PUSH2 0x206F SWAP1 PUSH2 0x4A1B JUMP JUMPDEST SWAP2 POP POP PUSH2 0x2003 JUMP JUMPDEST POP PUSH0 DUP3 PUSH8 0xFFFFFFFFFFFFFFFF DUP2 GT ISZERO PUSH2 0x2093 JUMPI PUSH2 0x2092 PUSH2 0x453E JUMP JUMPDEST JUMPDEST PUSH1 0x40 MLOAD SWAP1 DUP1 DUP3 MSTORE DUP1 PUSH1 0x20 MUL PUSH1 0x20 ADD DUP3 ADD PUSH1 0x40 MSTORE DUP1 ISZERO PUSH2 0x20C1 JUMPI DUP2 PUSH1 0x20 ADD PUSH1 0x20 DUP3 MUL DUP1 CALLDATASIZE DUP4 CALLDATACOPY DUP1 DUP3 ADD SWAP2 POP POP SWAP1 POP JUMPDEST POP SWAP1 POP PUSH0 DUP1 PUSH1 0x1 SWAP1 POP JUMPDEST DUP4 DUP2 GT PUSH2 0x215F JUMPI PUSH1 0x3 DUP1 DUP2 GT ISZERO PUSH2 0x20E5 JUMPI PUSH2 0x20E4 PUSH2 0x4436 JUMP JUMPDEST JUMPDEST PUSH1 0x9 PUSH0 DUP4 DUP2 MSTORE PUSH1 0x20 ADD SWAP1 DUP2 MSTORE PUSH1 0x20 ADD PUSH0 KECCAK256 PUSH1 0x3 ADD PUSH0 SWAP1 SLOAD SWAP1 PUSH2 0x100 EXP SWAP1 DIV PUSH1 0xFF AND PUSH1 0x3 DUP2 GT ISZERO PUSH2 0x2118 JUMPI PUSH2 0x2117 PUSH2 0x4436 JUMP JUMPDEST JUMPDEST SUB PUSH2 0x214C JUMPI DUP1 DUP4 DUP4 DUP2 MLOAD DUP2 LT PUSH2 0x2131 JUMPI PUSH2 0x2130 PUSH2 0x4A62 JUMP JUMPDEST JUMPDEST PUSH1 0x20 MUL PUSH1 0x20 ADD ADD DUP2 DUP2 MSTORE POP POP DUP2 DUP1 PUSH2 0x2148 SWAP1 PUSH2 0x4A1B JUMP JUMPDEST SWAP3 POP POP JUMPDEST DUP1 DUP1 PUSH2 0x2157 SWAP1 PUSH2 0x4A1B JUMP JUMPDEST SWAP2 POP POP PUSH2 0x20CB JUMP JUMPDEST POP DUP2 SWAP5 POP POP POP POP POP SWAP1 JUMP JUMPDEST PUSH1 0xA PUSH1 0x20 MSTORE DUP1 PUSH0 MSTORE PUSH1 0x40 PUSH0 KECCAK256 PUSH0 SWAP2 POP SLOAD SWAP1 PUSH2 0x100 EXP SWAP1 DIV PUSH1 0xFF AND DUP2 JUMP JUMPDEST DUP1 PUSH0 PUSH32 0x0 PUSH20 0xFFFFFFFFFFFFFFFFFFFFFFFFFFFFFFFFFFFFFFFF AND PUSH4 0xFF91E489 DUP4 PUSH1 0x40 MLOAD DUP3 PUSH4 0xFFFFFFFF AND PUSH1 0xE0 SHL DUP2 MSTORE PUSH1 0x4 ADD PUSH2 0x21E2 SWAP2 SWAP1 PUSH2 0x4343 JUMP JUMPDEST PUSH0 PUSH1 0x40 MLOAD DUP1 DUP4 SUB DUP2 DUP7 GAS STATICCALL ISZERO DUP1 ISZERO PUSH2 0x21FC JUMPI RETURNDATASIZE PUSH0 DUP1 RETURNDATACOPY RETURNDATASIZE PUSH0 REVERT JUMPDEST POP POP POP POP PUSH1 0x40 MLOAD RETURNDATASIZE PUSH0 DUP3 RETURNDATACOPY RETURNDATASIZE PUSH1 0x1F NOT PUSH1 0x1F DUP3 ADD AND DUP3 ADD DUP1 PUSH1 0x40 MSTORE POP DUP2 ADD SWAP1 PUSH2 0x2224 SWAP2 SWAP1 PUSH2 0x4F3B JUMP JUMPDEST SWAP1 POP DUP1 PUSH1 0xA0 ADD MLOAD PUSH2 0x226A JUMPI PUSH1 0x40 MLOAD PUSH32 0x8C379A000000000000000000000000000000000000000000000000000000000 DUP2 MSTORE PUSH1 0x4 ADD PUSH2 0x2261 SWAP1 PUSH2 0x4FCC JUMP JUMPDEST PUSH1 0x40 MLOAD DUP1 SWAP2 SUB SWAP1 REVERT JUMPDEST PUSH0 PUSH32 0x0 PUSH20 0xFFFFFFFFFFFFFFFFFFFFFFFFFFFFFFFFFFFFFFFF AND PUSH4 0xE3FBF314 DUP4 PUSH1 0xC0 ADD MLOAD PUSH1 0x40 MLOAD DUP3 PUSH4 0xFFFFFFFF AND PUSH1 0xE0 SHL DUP2 MSTORE PUSH1 0x4 ADD PUSH2 0x22C8 SWAP2 SWAP1 PUSH2 0x4343 JUMP JUMPDEST PUSH0 PUSH1 0x40 MLOAD DUP1 DUP4 SUB DUP2 DUP7 GAS STATICCALL ISZERO DUP1 ISZERO PUSH2 0x22E2 JUMPI RETURNDATASIZE PUSH0 DUP1 RETURNDATACOPY RETURNDATASIZE PUSH0 REVERT JUMPDEST POP POP POP POP PUSH1 0x40 MLOAD RETURNDATASIZE PUSH0 DUP3 RETURNDATACOPY RETURNDATASIZE PUSH1 0x1F NOT PUSH1 0x1F DUP3 ADD AND DUP3 ADD DUP1 PUSH1 0x40 MSTORE POP DUP2 ADD SWAP1 PUSH2 0x230A SWAP2 SWAP1 PUSH2 0x534C JUMP JUMPDEST SWAP1 POP DUP1 PUSH1 0xA0 ADD MLOAD PUSH2 0x2350 JUMPI PUSH1 0x40 MLOAD PUSH32 0x8C379A000000000000000000000000000000000000000000000000000000000 DUP2 MSTORE PUSH1 0x4 ADD PUSH2 0x2347 SWAP1 PUSH2 0x53DD JUMP JUMPDEST PUSH1 0x40 MLOAD DUP1 SWAP2 SUB SWAP1 REVERT JUMPDEST DUP1 PUSH1 0x60 ADD MLOAD PUSH20 0xFFFFFFFFFFFFFFFFFFFFFFFFFFFFFFFFFFFFFFFF AND CALLER PUSH20 0xFFFFFFFFFFFFFFFFFFFFFFFFFFFFFFFFFFFFFFFF AND EQ PUSH2 0x23C2 JUMPI PUSH1 0x40 MLOAD PUSH32 0x8C379A000000000000000000000000000000000000000000000000000000000 DUP2 MSTORE PUSH1 0x4 ADD PUSH2 0x23B9 SWAP1 PUSH2 0x5445 JUMP JUMPDEST PUSH1 0x40 MLOAD DUP1 SWAP2 SUB SWAP1 REVERT JUMPDEST PUSH2 0x23CA PUSH2 0x2BA3 JUMP JUMPDEST PUSH0 PUSH1 0x9 PUSH0 DUP7 DUP2 MSTORE PUSH1 0x20 ADD SWAP1 DUP2 MSTORE PUSH1 0x20 ADD PUSH0 KECCAK256 SWAP1 POP PUSH1 0x1 PUSH1 0x3 DUP2 GT ISZERO PUSH2 0x23F2 JUMPI PUSH2 0x23F1 PUSH2 0x4436 JUMP JUMPDEST JUMPDEST DUP2 PUSH1 0x3 ADD PUSH0 SWAP1 SLOAD SWAP1 PUSH2 0x100 EXP SWAP1 DIV PUSH1 0xFF AND PUSH1 0x3 DUP2 GT ISZERO PUSH2 0x2415 JUMPI PUSH2 0x2414 PUSH2 0x4436 JUMP JUMPDEST JUMPDEST EQ PUSH2 0x2455 JUMPI PUSH1 0x40 MLOAD PUSH32 0x8C379A000000000000000000000000000000000000000000000000000000000 DUP2 MSTORE PUSH1 0x4 ADD PUSH2 0x244C SWAP1 PUSH2 0x54AD JUMP JUMPDEST PUSH1 0x40 MLOAD DUP1 SWAP2 SUB SWAP1 REVERT JUMPDEST PUSH0 DUP2 PUSH1 0x3 ADD PUSH0 PUSH2 0x100 EXP DUP2 SLOAD DUP2 PUSH1 0xFF MUL NOT AND SWAP1 DUP4 PUSH1 0x3 DUP2 GT ISZERO PUSH2 0x247B JUMPI PUSH2 0x247A PUSH2 0x4436 JUMP JUMPDEST JUMPDEST MUL OR SWAP1 SSTORE POP PUSH2 0x24E9 PUSH1 0xB PUSH0 DUP4 PUSH1 0x1 ADD PUSH0 SWAP1 SLOAD SWAP1 PUSH2 0x100 EXP SWAP1 DIV PUSH20 0xFFFFFFFFFFFFFFFFFFFFFFFFFFFFFFFFFFFFFFFF AND PUSH20 0xFFFFFFFFFFFFFFFFFFFFFFFFFFFFFFFFFFFFFFFF AND PUSH20 0xFFFFFFFFFFFFFFFFFFFFFFFFFFFFFFFFFFFFFFFF AND DUP2 MSTORE PUSH1 0x20 ADD SWAP1 DUP2 MSTORE PUSH1 0x20 ADD PUSH0 KECCAK256 DUP7 PUSH2 0x2F3D JUMP JUMPDEST PUSH2 0x2503 PUSH1 0xC PUSH0 DUP8 DUP2 MSTORE PUSH1 0x20 ADD SWAP1 DUP2 MSTORE PUSH1 0x20 ADD PUSH0 KECCAK256 DUP7 PUSH2 0x2F3D JUMP JUMPDEST DUP1 PUSH1 0x1 ADD PUSH0 SWAP1 SLOAD SWAP1 PUSH2 0x100 EXP SWAP1 DIV PUSH20 0xFFFFFFFFFFFFFFFFFFFFFFFFFFFFFFFFFFFFFFFF AND PUSH20 0xFFFFFFFFFFFFFFFFFFFFFFFFFFFFFFFFFFFFFFFF AND DUP6 PUSH32 0x8AB069580156E517907E83C0C2A44BBAD72364AA9544E12AA96BA9EC2B091A8C PUSH1 0x40 MLOAD PUSH1 0x40 MLOAD DUP1 SWAP2 SUB SWAP1 LOG3 POP POP POP POP POP JUMP JUMPDEST PUSH0 PUSH1 0x5 PUSH0 DUP5 PUSH20 0xFFFFFFFFFFFFFFFFFFFFFFFFFFFFFFFFFFFFFFFF AND PUSH20 0xFFFFFFFFFFFFFFFFFFFFFFFFFFFFFFFFFFFFFFFF AND DUP2 MSTORE PUSH1 0x20 ADD SWAP1 DUP2 MSTORE PUSH1 0x20 ADD PUSH0 KECCAK256 PUSH0 DUP4 PUSH20 0xFFFFFFFFFFFFFFFFFFFFFFFFFFFFFFFFFFFFFFFF AND PUSH20 0xFFFFFFFFFFFFFFFFFFFFFFFFFFFFFFFFFFFFFFFF AND DUP2 MSTORE PUSH1 0x20 ADD SWAP1 DUP2 MSTORE PUSH1 0x20 ADD PUSH0 KECCAK256 PUSH0 SWAP1 SLOAD SWAP1 PUSH2 0x100 EXP SWAP1 DIV PUSH1 0xFF AND SWAP1 POP SWAP3 SWAP2 POP POP JUMP JUMPDEST DUP1 PUSH0 PUSH32 0x0 PUSH20 0xFFFFFFFFFFFFFFFFFFFFFFFFFFFFFFFFFFFFFFFF AND PUSH4 0xFF91E489 DUP4 PUSH1 0x40 MLOAD DUP3 PUSH4 0xFFFFFFFF AND PUSH1 0xE0 SHL DUP2 MSTORE PUSH1 0x4 ADD PUSH2 0x265A SWAP2 SWAP1 PUSH2 0x4343 JUMP JUMPDEST PUSH0 PUSH1 0x40 MLOAD DUP1 DUP4 SUB DUP2 DUP7 GAS STATICCALL ISZERO DUP1 ISZERO PUSH2 0x2674 JUMPI RETURNDATASIZE PUSH0 DUP1 RETURNDATACOPY RETURNDATASIZE PUSH0 REVERT JUMPDEST POP POP POP POP PUSH1 0x40 MLOAD RETURNDATASIZE PUSH0 DUP3 RETURNDATACOPY RETURNDATASIZE PUSH1 0x1F NOT PUSH1 0x1F DUP3 ADD AND DUP3 ADD DUP1 PUSH1 0x40 MSTORE POP DUP2 ADD SWAP1 PUSH2 0x269C SWAP2 SWAP1 PUSH2 0x4F3B JUMP JUMPDEST SWAP1 POP DUP1 PUSH1 0xA0 ADD MLOAD PUSH2 0x26E2 JUMPI PUSH1 0x40 MLOAD PUSH32 0x8C379A000000000000000000000000000000000000000000000000000000000 DUP2 MSTORE PUSH1 0x4 ADD PUSH2 0x26D9 SWAP1 PUSH2 0x4FCC JUMP JUMPDEST PUSH1 0x40 MLOAD DUP1 SWAP2 SUB SWAP1 REVERT JUMPDEST PUSH0 PUSH32 0x0 PUSH20 0xFFFFFFFFFFFFFFFFFFFFFFFFFFFFFFFFFFFFFFFF AND PUSH4 0xE3FBF314 DUP4 PUSH1 0xC0 ADD MLOAD PUSH1 0x40 MLOAD DUP3 PUSH4 0xFFFFFFFF AND PUSH1 0xE0 SHL DUP2 MSTORE PUSH1 0x4 ADD PUSH2 0x2740 SWAP2 SWAP1 PUSH2 0x4343 JUMP JUMPDEST PUSH0 PUSH1 0x40 MLOAD DUP1 DUP4 SUB DUP2 DUP7 GAS STATICCALL ISZERO DUP1 ISZERO PUSH2 0x275A JUMPI RETURNDATASIZE PUSH0 DUP1 RETURNDATACOPY RETURNDATASIZE PUSH0 REVERT JUMPDEST POP POP POP POP PUSH1 0x40 MLOAD RETURNDATASIZE PUSH0 DUP3 RETURNDATACOPY RETURNDATASIZE PUSH1 0x1F NOT PUSH1 0x1F DUP3 ADD AND DUP3 ADD DUP1 PUSH1 0x40 MSTORE POP DUP2 ADD SWAP1 PUSH2 0x2782 SWAP2 SWAP1 PUSH2 0x534C JUMP JUMPDEST SWAP1 POP DUP1 PUSH1 0xA0 ADD MLOAD PUSH2 0x27C8 JUMPI PUSH1 0x40 MLOAD PUSH32 0x8C379A000000000000000000000000000000000000000000000000000000000 DUP2 MSTORE PUSH1 0x4 ADD PUSH2 0x27BF SWAP1 PUSH2 0x53DD JUMP JUMPDEST PUSH1 0x40 MLOAD DUP1 SWAP2 SUB SWAP1 REVERT JUMPDEST DUP1 PUSH1 0x60 ADD MLOAD PUSH20 0xFFFFFFFFFFFFFFFFFFFFFFFFFFFFFFFFFFFFFFFF AND CALLER PUSH20 0xFFFFFFFFFFFFFFFFFFFFFFFFFFFFFFFFFFFFFFFF AND EQ PUSH2 0x283A JUMPI PUSH1 0x40 MLOAD PUSH32 0x8C379A000000000000000000000000000000000000000000000000000000000 DUP2 MSTORE PUSH1 0x4 ADD PUSH2 0x2831 SWAP1 PUSH2 0x5445 JUMP JUMPDEST PUSH1 0x40 MLOAD DUP1 SWAP2 SUB SWAP1 REVERT JUMPDEST PUSH2 0x2842 PUSH2 0x2BA3 JUMP JUMPDEST PUSH0 PUSH1 0x9 PUSH0 DUP7 DUP2 MSTORE PUSH1 0x20 ADD SWAP1 DUP2 MSTORE PUSH1 0x20 ADD PUSH0 KECCAK256 SWAP1 POP PUSH1 0x3 DUP1 DUP2 GT ISZERO PUSH2 0x2869 JUMPI PUSH2 0x2868 PUSH2 0x4436 JUMP JUMPDEST JUMPDEST DUP2 PUSH1 0x3 ADD PUSH0 SWAP1 SLOAD SWAP1 PUSH2 0x100 EXP SWAP1 DIV PUSH1 0xFF AND PUSH1 0x3 DUP2 GT ISZERO PUSH2 0x288C JUMPI PUSH2 0x288B PUSH2 0x4436 JUMP JUMPDEST JUMPDEST EQ PUSH2 0x28CC JUMPI PUSH1 0x40 MLOAD PUSH32 0x8C379A000000000000000000000000000000000000000000000000000000000 DUP2 MSTORE PUSH1 0x4 ADD PUSH2 0x28C3 SWAP1 PUSH2 0x5572 JUMP JUMPDEST PUSH1 0x40 MLOAD DUP1 SWAP2 SUB SWAP1 REVERT JUMPDEST PUSH2 0x28D6 PUSH1 0x7 PUSH2 0x344A JUMP JUMPDEST PUSH0 PUSH2 0x28E1 PUSH1 0x7 PUSH2 0x2CAC JUMP JUMPDEST SWAP1 POP PUSH2 0x2910 DUP3 PUSH1 0x1 ADD PUSH0 SWAP1 SLOAD SWAP1 PUSH2 0x100 EXP SWAP1 DIV PUSH20 0xFFFFFFFFFFFFFFFFFFFFFFFFFFFFFFFFFFFFFFFF AND DUP3 PUSH2 0x345E JUMP JUMPDEST PUSH1 0x40 MLOAD DUP1 PUSH1 0xC0 ADD PUSH1 0x40 MSTORE DUP1 DUP3 DUP2 MSTORE PUSH1 0x20 ADD DUP8 DUP2 MSTORE PUSH1 0x20 ADD DUP4 PUSH1 0x1 ADD PUSH0 SWAP1 SLOAD SWAP1 PUSH2 0x100 EXP SWAP1 DIV PUSH20 0xFFFFFFFFFFFFFFFFFFFFFFFFFFFFFFFFFFFFFFFF AND PUSH20 0xFFFFFFFFFFFFFFFFFFFFFFFFFFFFFFFFFFFFFFFF AND DUP2 MSTORE PUSH1 0x20 ADD DUP4 PUSH1 0x2 ADD DUP1 SLOAD PUSH2 0x2975 SWAP1 PUSH2 0x47B3 JUMP JUMPDEST DUP1 PUSH1 0x1F ADD PUSH1 0x20 DUP1 SWAP2 DIV MUL PUSH1 0x20 ADD PUSH1 0x40 MLOAD SWAP1 DUP2 ADD PUSH1 0x40 MSTORE DUP1 SWAP3 SWAP2 SWAP1 DUP2 DUP2 MSTORE PUSH1 0x20 ADD DUP3 DUP1 SLOAD PUSH2 0x29A1 SWAP1 PUSH2 0x47B3 JUMP JUMPDEST DUP1 ISZERO PUSH2 0x29EC JUMPI DUP1 PUSH1 0x1F LT PUSH2 0x29C3 JUMPI PUSH2 0x100 DUP1 DUP4 SLOAD DIV MUL DUP4 MSTORE SWAP2 PUSH1 0x20 ADD SWAP2 PUSH2 0x29EC JUMP JUMPDEST DUP3 ADD SWAP2 SWAP1 PUSH0 MSTORE PUSH1 0x20 PUSH0 KECCAK256 SWAP1 JUMPDEST DUP2 SLOAD DUP2 MSTORE SWAP1 PUSH1 0x1 ADD SWAP1 PUSH1 0x20 ADD DUP1 DUP4 GT PUSH2 0x29CF JUMPI DUP3 SWAP1 SUB PUSH1 0x1F AND DUP3 ADD SWAP2 JUMPDEST POP POP POP POP POP DUP2 MSTORE PUSH1 0x20 ADD PUSH0 ISZERO ISZERO DUP2 MSTORE PUSH1 0x20 ADD TIMESTAMP DUP2 MSTORE POP PUSH1 0x8 PUSH0 DUP4 DUP2 MSTORE PUSH1 0x20 ADD SWAP1 DUP2 MSTORE PUSH1 0x20 ADD PUSH0 KECCAK256 PUSH0 DUP3 ADD MLOAD DUP2 PUSH0 ADD SSTORE PUSH1 0x20 DUP3 ADD MLOAD DUP2 PUSH1 0x1 ADD SSTORE PUSH1 0x40 DUP3 ADD MLOAD DUP2 PUSH1 0x2 ADD PUSH0 PUSH2 0x100 EXP DUP2 SLOAD DUP2 PUSH20 0xFFFFFFFFFFFFFFFFFFFFFFFFFFFFFFFFFFFFFFFF MUL NOT AND SWAP1 DUP4 PUSH20 0xFFFFFFFFFFFFFFFFFFFFFFFFFFFFFFFFFFFFFFFF AND MUL OR SWAP1 SSTORE POP PUSH1 0x60 DUP3 ADD MLOAD DUP2 PUSH1 0x3 ADD SWAP1 DUP2 PUSH2 0x2A80 SWAP2 SWAP1 PUSH2 0x517E JUMP JUMPDEST POP PUSH1 0x80 DUP3 ADD MLOAD DUP2 PUSH1 0x4 ADD PUSH0 PUSH2 0x100 EXP DUP2 SLOAD DUP2 PUSH1 0xFF MUL NOT AND SWAP1 DUP4 ISZERO ISZERO MUL OR SWAP1 SSTORE POP PUSH1 0xA0 DUP3 ADD MLOAD DUP2 PUSH1 0x5 ADD SSTORE SWAP1 POP POP PUSH1 0x1 PUSH1 0xA PUSH0 DUP9 DUP2 MSTORE PUSH1 0x20 ADD SWAP1 DUP2 MSTORE PUSH1 0x20 ADD PUSH0 KECCAK256 PUSH0 PUSH2 0x100 EXP DUP2 SLOAD DUP2 PUSH1 0xFF MUL NOT AND SWAP1 DUP4 ISZERO ISZERO MUL OR SWAP1 SSTORE POP PUSH2 0x2B04 DUP2 DUP8 DUP5 PUSH1 0x1 ADD PUSH0 SWAP1 SLOAD SWAP1 PUSH2 0x100 EXP SWAP1 DIV PUSH20 0xFFFFFFFFFFFFFFFFFFFFFFFFFFFFFFFFFFFFFFFF AND PUSH2 0x347B JUMP JUMPDEST DUP6 DUP2 PUSH32 0x5A49448EF5C36AF17B1AEB44AC91D414AA5CC30977940FA1A5B216F936A804D2 PUSH1 0x40 MLOAD PUSH1 0x40 MLOAD DUP1 SWAP2 SUB SWAP1 LOG3 POP POP POP POP POP POP JUMP JUMPDEST PUSH0 PUSH32 0x1FFC9A700000000000000000000000000000000000000000000000000000000 PUSH28 0xFFFFFFFFFFFFFFFFFFFFFFFFFFFFFFFFFFFFFFFFFFFFFFFFFFFFFFFF NOT AND DUP3 PUSH28 0xFFFFFFFFFFFFFFFFFFFFFFFFFFFFFFFFFFFFFFFFFFFFFFFFFFFFFFFF NOT AND EQ SWAP1 POP SWAP2 SWAP1 POP JUMP JUMPDEST PUSH2 0x2BAB PUSH2 0x15BB JUMP JUMPDEST ISZERO PUSH2 0x2BEB JUMPI PUSH1 0x40 MLOAD PUSH32 0x8C379A000000000000000000000000000000000000000000000000000000000 DUP2 MSTORE PUSH1 0x4 ADD PUSH2 0x2BE2 SWAP1 PUSH2 0x55DA JUMP JUMPDEST PUSH1 0x40 MLOAD DUP1 SWAP2 SUB SWAP1 REVERT JUMPDEST JUMP JUMPDEST PUSH0 DUP1 PUSH2 0x2BF8 DUP4 PUSH2 0x3813 JUMP JUMPDEST SWAP1 POP PUSH0 PUSH20 0xFFFFFFFFFFFFFFFFFFFFFFFFFFFFFFFFFFFFFFFF AND DUP2 PUSH20 0xFFFFFFFFFFFFFFFFFFFFFFFFFFFFFFFFFFFFFFFF AND SUB PUSH2 0x2C6A JUMPI DUP3 PUSH1 0x40 MLOAD PUSH32 0x7E27328900000000000000000000000000000000000000000000000000000000 DUP2 MSTORE PUSH1 0x4 ADD PUSH2 0x2C61 SWAP2 SWAP1 PUSH2 0x4343 JUMP JUMPDEST PUSH1 0x40 MLOAD DUP1 SWAP2 SUB SWAP1 REVERT JUMPDEST DUP1 SWAP2 POP POP SWAP2 SWAP1 POP JUMP JUMPDEST PUSH0 PUSH1 0x4 PUSH0 DUP4 DUP2 MSTORE PUSH1 0x20 ADD SWAP1 DUP2 MSTORE PUSH1 0x20 ADD PUSH0 KECCAK256 PUSH0 SWAP1 SLOAD SWAP1 PUSH2 0x100 EXP SWAP1 DIV PUSH20 0xFFFFFFFFFFFFFFFFFFFFFFFFFFFFFFFFFFFFFFFF AND SWAP1 POP SWAP2 SWAP1 POP JUMP JUMPDEST PUSH0 DUP2 PUSH0 ADD SLOAD SWAP1 POP SWAP2 SWAP1 POP JUMP JUMPDEST PUSH0 CALLER SWAP1 POP SWAP1 JUMP JUMPDEST PUSH2 0x2CCC DUP4 DUP4 DUP4 PUSH1 0x1 PUSH2 0x384C JUMP JUMPDEST POP POP POP JUMP JUMPDEST PUSH0 DUP1 PUSH2 0x2CDC DUP5 PUSH2 0x3813 JUMP JUMPDEST SWAP1 POP PUSH0 PUSH20 0xFFFFFFFFFFFFFFFFFFFFFFFFFFFFFFFFFFFFFFFF AND DUP4 PUSH20 0xFFFFFFFFFFFFFFFFFFFFFFFFFFFFFFFFFFFFFFFF AND EQ PUSH2 0x2D1D JUMPI PUSH2 0x2D1C DUP2 DUP5 DUP7 PUSH2 0x3A0B JUMP JUMPDEST JUMPDEST PUSH0 PUSH20 0xFFFFFFFFFFFFFFFFFFFFFFFFFFFFFFFFFFFFFFFF AND DUP2 PUSH20 0xFFFFFFFFFFFFFFFFFFFFFFFFFFFFFFFFFFFFFFFF AND EQ PUSH2 0x2DA8 JUMPI PUSH2 0x2D5C PUSH0 DUP6 PUSH0 DUP1 PUSH2 0x384C JUMP JUMPDEST PUSH1 0x1 PUSH1 0x3 PUSH0 DUP4 PUSH20 0xFFFFFFFFFFFFFFFFFFFFFFFFFFFFFFFFFFFFFFFF AND PUSH20 0xFFFFFFFFFFFFFFFFFFFFFFFFFFFFFFFFFFFFFFFF AND DUP2 MSTORE PUSH1 0x20 ADD SWAP1 DUP2 MSTORE PUSH1 0x20 ADD PUSH0 KECCAK256 PUSH0 DUP3 DUP3 SLOAD SUB SWAP3 POP POP DUP2 SWAP1 SSTORE POP JUMPDEST PUSH0 PUSH20 0xFFFFFFFFFFFFFFFFFFFFFFFFFFFFFFFFFFFFFFFF AND DUP6 PUSH20 0xFFFFFFFFFFFFFFFFFFFFFFFFFFFFFFFFFFFFFFFF AND EQ PUSH2 0x2E27 JUMPI PUSH1 0x1 PUSH1 0x3 PUSH0 DUP8 PUSH20 0xFFFFFFFFFFFFFFFFFFFFFFFFFFFFFFFFFFFFFFFF AND PUSH20 0xFFFFFFFFFFFFFFFFFFFFFFFFFFFFFFFFFFFFFFFF AND DUP2 MSTORE PUSH1 0x20 ADD SWAP1 DUP2 MSTORE PUSH1 0x20 ADD PUSH0 KECCAK256 PUSH0 DUP3 DUP3 SLOAD ADD SWAP3 POP POP DUP2 SWAP1 SSTORE POP JUMPDEST DUP5 PUSH1 0x2 PUSH0 DUP7 DUP2 MSTORE PUSH1 0x20 ADD SWAP1 DUP2 MSTORE PUSH1 0x20 ADD PUSH0 KECCAK256 PUSH0 PUSH2 0x100 EXP DUP2 SLOAD DUP2 PUSH20 0xFFFFFFFFFFFFFFFFFFFFFFFFFFFFFFFFFFFFFFFF MUL NOT AND SWAP1 DUP4 PUSH20 0xFFFFFFFFFFFFFFFFFFFFFFFFFFFFFFFFFFFFFFFF AND MUL OR SWAP1 SSTORE POP DUP4 DUP6 PUSH20 0xFFFFFFFFFFFFFFFFFFFFFFFFFFFFFFFFFFFFFFFF AND DUP3 PUSH20 0xFFFFFFFFFFFFFFFFFFFFFFFFFFFFFFFFFFFFFFFF AND PUSH32 0xDDF252AD1BE2C89B69C2B068FC378DAA952BA7F163C4A11628F55A4DF523B3EF PUSH1 0x40 MLOAD PUSH1 0x40 MLOAD DUP1 SWAP2 SUB SWAP1 LOG4 DUP1 SWAP2 POP POP SWAP4 SWAP3 POP POP POP JUMP JUMPDEST PUSH2 0x2EE4 PUSH2 0x3ACE JUMP JUMPDEST PUSH0 PUSH1 0x6 PUSH0 PUSH2 0x100 EXP DUP2 SLOAD DUP2 PUSH1 0xFF MUL NOT AND SWAP1 DUP4 ISZERO ISZERO MUL OR SWAP1 SSTORE POP PUSH32 0x5DB9EE0A495BF2E6FF9C91A7834C1BA4FDD244A5E8AA4E537BD38AEAE4B073AA PUSH2 0x2F26 PUSH2 0x2CB8 JUMP JUMPDEST PUSH1 0x40 MLOAD PUSH2 0x2F33 SWAP2 SWAP1 PUSH2 0x40A3 JUMP JUMPDEST PUSH1 0x40 MLOAD DUP1 SWAP2 SUB SWAP1 LOG1 JUMP JUMPDEST PUSH0 JUMPDEST DUP3 DUP1 SLOAD SWAP1 POP DUP2 LT ISZERO PUSH2 0x2FEE JUMPI DUP2 DUP4 DUP3 DUP2 SLOAD DUP2 LT PUSH2 0x2F5F JUMPI PUSH2 0x2F5E PUSH2 0x4A62 JUMP JUMPDEST JUMPDEST SWAP1 PUSH0 MSTORE PUSH1 0x20 PUSH0 KECCAK256 ADD SLOAD SUB PUSH2 0x2FE1 JUMPI DUP3 PUSH1 0x1 DUP5 DUP1 SLOAD SWAP1 POP PUSH2 0x2F7F SWAP2 SWAP1 PUSH2 0x55F8 JUMP JUMPDEST DUP2 SLOAD DUP2 LT PUSH2 0x2F90 JUMPI PUSH2 0x2F8F PUSH2 0x4A62 JUMP JUMPDEST JUMPDEST SWAP1 PUSH0 MSTORE PUSH1 0x20 PUSH0 KECCAK256 ADD SLOAD DUP4 DUP3 DUP2 SLOAD DUP2 LT PUSH2 0x2FAC JUMPI PUSH2 0x2FAB PUSH2 0x4A62 JUMP JUMPDEST JUMPDEST SWAP1 PUSH0 MSTORE PUSH1 0x20 PUSH0 KECCAK256 ADD DUP2 SWAP1 SSTORE POP DUP3 DUP1 SLOAD DUP1 PUSH2 0x2FC9 JUMPI PUSH2 0x2FC8 PUSH2 0x562B JUMP JUMPDEST JUMPDEST PUSH1 0x1 SWAP1 SUB DUP2 DUP2 SWAP1 PUSH0 MSTORE PUSH1 0x20 PUSH0 KECCAK256 ADD PUSH0 SWAP1 SSTORE SWAP1 SSTORE PUSH2 0x2FEE JUMP JUMPDEST DUP1 DUP1 PUSH1 0x1 ADD SWAP2 POP POP PUSH2 0x2F3F JUMP JUMPDEST POP POP POP JUMP JUMPDEST PUSH2 0x2FFB PUSH2 0x2BA3 JUMP JUMPDEST PUSH1 0x1 PUSH1 0x6 PUSH0 PUSH2 0x100 EXP DUP2 SLOAD DUP2 PUSH1 0xFF MUL NOT AND SWAP1 DUP4 ISZERO ISZERO MUL OR SWAP1 SSTORE POP PUSH32 0x62E78CEA01BEE320CD4E420270B5EA74000D11B0C9F74754EBDBFC544B05A258 PUSH2 0x303E PUSH2 0x2CB8 JUMP JUMPDEST PUSH1 0x40 MLOAD PUSH2 0x304B SWAP2 SWAP1 PUSH2 0x40A3 JUMP JUMPDEST PUSH1 0x40 MLOAD DUP1 SWAP2 SUB SWAP1 LOG1 JUMP JUMPDEST PUSH0 PUSH20 0xFFFFFFFFFFFFFFFFFFFFFFFFFFFFFFFFFFFFFFFF AND DUP3 PUSH20 0xFFFFFFFFFFFFFFFFFFFFFFFFFFFFFFFFFFFFFFFF AND SUB PUSH2 0x30C5 JUMPI DUP2 PUSH1 0x40 MLOAD PUSH32 0x5B08BA1800000000000000000000000000000000000000000000000000000000 DUP2 MSTORE PUSH1 0x4 ADD PUSH2 0x30BC SWAP2 SWAP1 PUSH2 0x40A3 JUMP JUMPDEST PUSH1 0x40 MLOAD DUP1 SWAP2 SUB SWAP1 REVERT JUMPDEST DUP1 PUSH1 0x5 PUSH0 DUP6 PUSH20 0xFFFFFFFFFFFFFFFFFFFFFFFFFFFFFFFFFFFFFFFF AND PUSH20 0xFFFFFFFFFFFFFFFFFFFFFFFFFFFFFFFFFFFFFFFF AND DUP2 MSTORE PUSH1 0x20 ADD SWAP1 DUP2 MSTORE PUSH1 0x20 ADD PUSH0 KECCAK256 PUSH0 DUP5 PUSH20 0xFFFFFFFFFFFFFFFFFFFFFFFFFFFFFFFFFFFFFFFF AND PUSH20 0xFFFFFFFFFFFFFFFFFFFFFFFFFFFFFFFFFFFFFFFF AND DUP2 MSTORE PUSH1 0x20 ADD SWAP1 DUP2 MSTORE PUSH1 0x20 ADD PUSH0 KECCAK256 PUSH0 PUSH2 0x100 EXP DUP2 SLOAD DUP2 PUSH1 0xFF MUL NOT AND SWAP1 DUP4 ISZERO ISZERO MUL OR SWAP1 SSTORE POP DUP2 PUSH20 0xFFFFFFFFFFFFFFFFFFFFFFFFFFFFFFFFFFFFFFFF AND DUP4 PUSH20 0xFFFFFFFFFFFFFFFFFFFFFFFFFFFFFFFFFFFFFFFF AND PUSH32 0x17307EAB39AB6107E8899845AD3D59BD9653F200F220920489CA2B5937696C31 DUP4 PUSH1 0x40 MLOAD PUSH2 0x31B1 SWAP2 SWAP1 PUSH2 0x3F7C JUMP JUMPDEST PUSH1 0x40 MLOAD DUP1 SWAP2 SUB SWAP1 LOG3 POP POP POP JUMP JUMPDEST PUSH0 DUP4 PUSH20 0xFFFFFFFFFFFFFFFFFFFFFFFFFFFFFFFFFFFFFFFF AND EXTCODESIZE GT ISZERO PUSH2 0x3363 JUMPI DUP3 PUSH20 0xFFFFFFFFFFFFFFFFFFFFFFFFFFFFFFFFFFFFFFFF AND PUSH4 0x150B7A02 DUP7 DUP7 DUP6 DUP6 PUSH1 0x40 MLOAD DUP6 PUSH4 0xFFFFFFFF AND PUSH1 0xE0 SHL DUP2 MSTORE PUSH1 0x4 ADD PUSH2 0x321C SWAP5 SWAP4 SWAP3 SWAP2 SWAP1 PUSH2 0x56AA JUMP JUMPDEST PUSH1 0x20 PUSH1 0x40 MLOAD DUP1 DUP4 SUB DUP2 PUSH0 DUP8 GAS CALL SWAP3 POP POP POP DUP1 ISZERO PUSH2 0x3257 JUMPI POP PUSH1 0x40 MLOAD RETURNDATASIZE PUSH1 0x1F NOT PUSH1 0x1F DUP3 ADD AND DUP3 ADD DUP1 PUSH1 0x40 MSTORE POP DUP2 ADD SWAP1 PUSH2 0x3254 SWAP2 SWAP1 PUSH2 0x5708 JUMP JUMPDEST PUSH1 0x1 JUMPDEST PUSH2 0x32D8 JUMPI RETURNDATASIZE DUP1 PUSH0 DUP2 EQ PUSH2 0x3285 JUMPI PUSH1 0x40 MLOAD SWAP2 POP PUSH1 0x1F NOT PUSH1 0x3F RETURNDATASIZE ADD AND DUP3 ADD PUSH1 0x40 MSTORE RETURNDATASIZE DUP3 MSTORE RETURNDATASIZE PUSH0 PUSH1 0x20 DUP5 ADD RETURNDATACOPY PUSH2 0x328A JUMP JUMPDEST PUSH1 0x60 SWAP2 POP JUMPDEST POP PUSH0 DUP2 MLOAD SUB PUSH2 0x32D0 JUMPI DUP4 PUSH1 0x40 MLOAD PUSH32 0x64A0AE9200000000000000000000000000000000000000000000000000000000 DUP2 MSTORE PUSH1 0x4 ADD PUSH2 0x32C7 SWAP2 SWAP1 PUSH2 0x40A3 JUMP JUMPDEST PUSH1 0x40 MLOAD DUP1 SWAP2 SUB SWAP1 REVERT JUMPDEST DUP1 MLOAD DUP2 PUSH1 0x20 ADD REVERT JUMPDEST PUSH4 0x150B7A02 PUSH1 0xE0 SHL PUSH28 0xFFFFFFFFFFFFFFFFFFFFFFFFFFFFFFFFFFFFFFFFFFFFFFFFFFFFFFFF NOT AND DUP2 PUSH28 0xFFFFFFFFFFFFFFFFFFFFFFFFFFFFFFFFFFFFFFFFFFFFFFFFFFFFFFFF NOT AND EQ PUSH2 0x3361 JUMPI DUP4 PUSH1 0x40 MLOAD PUSH32 0x64A0AE9200000000000000000000000000000000000000000000000000000000 DUP2 MSTORE PUSH1 0x4 ADD PUSH2 0x3358 SWAP2 SWAP1 PUSH2 0x40A3 JUMP JUMPDEST PUSH1 0x40 MLOAD DUP1 SWAP2 SUB SWAP1 REVERT JUMPDEST POP JUMPDEST POP POP POP POP POP JUMP JUMPDEST PUSH1 0x60 PUSH1 0x40 MLOAD DUP1 PUSH1 0x20 ADD PUSH1 0x40 MSTORE DUP1 PUSH0 DUP2 MSTORE POP SWAP1 POP SWAP1 JUMP JUMPDEST PUSH1 0x60 PUSH0 PUSH1 0x1 PUSH2 0x338E DUP5 PUSH2 0x3B17 JUMP JUMPDEST ADD SWAP1 POP PUSH0 DUP2 PUSH8 0xFFFFFFFFFFFFFFFF DUP2 GT ISZERO PUSH2 0x33AC JUMPI PUSH2 0x33AB PUSH2 0x453E JUMP JUMPDEST JUMPDEST PUSH1 0x40 MLOAD SWAP1 DUP1 DUP3 MSTORE DUP1 PUSH1 0x1F ADD PUSH1 0x1F NOT AND PUSH1 0x20 ADD DUP3 ADD PUSH1 0x40 MSTORE DUP1 ISZERO PUSH2 0x33DE JUMPI DUP2 PUSH1 0x20 ADD PUSH1 0x1 DUP3 MUL DUP1 CALLDATASIZE DUP4 CALLDATACOPY DUP1 DUP3 ADD SWAP2 POP POP SWAP1 POP JUMPDEST POP SWAP1 POP PUSH0 DUP3 PUSH1 0x20 ADD DUP3 ADD SWAP1 POP JUMPDEST PUSH1 0x1 ISZERO PUSH2 0x343F JUMPI DUP1 DUP1 PUSH1 0x1 SWAP1 SUB SWAP2 POP POP PUSH32 0x3031323334353637383961626364656600000000000000000000000000000000 PUSH1 0xA DUP7 MOD BYTE DUP2 MSTORE8 PUSH1 0xA DUP6 DUP2 PUSH2 0x3434 JUMPI PUSH2 0x3433 PUSH2 0x5733 JUMP JUMPDEST JUMPDEST DIV SWAP5 POP PUSH0 DUP6 SUB PUSH2 0x33EB JUMPI JUMPDEST DUP2 SWAP4 POP POP POP POP SWAP2 SWAP1 POP JUMP JUMPDEST PUSH1 0x1 DUP2 PUSH0 ADD PUSH0 DUP3 DUP3 SLOAD ADD SWAP3 POP POP DUP2 SWAP1 SSTORE POP POP JUMP JUMPDEST PUSH2 0x3477 DUP3 DUP3 PUSH1 0x40 MLOAD DUP1 PUSH1 0x20 ADD PUSH1 0x40 MSTORE DUP1 PUSH0 DUP2 MSTORE POP PUSH2 0x3C68 JUMP JUMPDEST POP POP JUMP JUMPDEST PUSH1 0x8 PUSH0 DUP5 DUP2 MSTORE PUSH1 0x20 ADD SWAP1 DUP2 MSTORE PUSH1 0x20 ADD PUSH0 KECCAK256 PUSH1 0x4 ADD PUSH0 SWAP1 SLOAD SWAP1 PUSH2 0x100 EXP SWAP1 DIV PUSH1 0xFF AND ISZERO PUSH2 0x34DC JUMPI PUSH1 0x40 MLOAD PUSH32 0x8C379A000000000000000000000000000000000000000000000000000000000 DUP2 MSTORE PUSH1 0x4 ADD PUSH2 0x34D3 SWAP1 PUSH2 0x57AA JUMP JUMPDEST PUSH1 0x40 MLOAD DUP1 SWAP2 SUB SWAP1 REVERT JUMPDEST PUSH0 PUSH32 0x0 PUSH20 0xFFFFFFFFFFFFFFFFFFFFFFFFFFFFFFFFFFFFFFFF AND PUSH4 0xFF91E489 DUP5 PUSH1 0x40 MLOAD DUP3 PUSH4 0xFFFFFFFF AND PUSH1 0xE0 SHL DUP2 MSTORE PUSH1 0x4 ADD PUSH2 0x3536 SWAP2 SWAP1 PUSH2 0x4343 JUMP JUMPDEST PUSH0 PUSH1 0x40 MLOAD DUP1 DUP4 SUB DUP2 DUP7 GAS STATICCALL ISZERO DUP1 ISZERO PUSH2 0x3550 JUMPI RETURNDATASIZE PUSH0 DUP1 RETURNDATACOPY RETURNDATASIZE PUSH0 REVERT JUMPDEST POP POP POP POP PUSH1 0x40 MLOAD RETURNDATASIZE PUSH0 DUP3 RETURNDATACOPY RETURNDATASIZE PUSH1 0x1F NOT PUSH1 0x1F DUP3 ADD AND DUP3 ADD DUP1 PUSH1 0x40 MSTORE POP DUP2 ADD SWAP1 PUSH2 0x3578 SWAP2 SWAP1 PUSH2 0x4F3B JUMP JUMPDEST SWAP1 POP PUSH0 PUSH32 0x0 PUSH20 0xFFFFFFFFFFFFFFFFFFFFFFFFFFFFFFFFFFFFFFFF AND PUSH4 0xE3FBF314 DUP4 PUSH1 0xC0 ADD MLOAD PUSH1 0x40 MLOAD DUP3 PUSH4 0xFFFFFFFF AND PUSH1 0xE0 SHL DUP2 MSTORE PUSH1 0x4 ADD PUSH2 0x35D8 SWAP2 SWAP1 PUSH2 0x4343 JUMP JUMPDEST PUSH0 PUSH1 0x40 MLOAD DUP1 DUP4 SUB DUP2 DUP7 GAS STATICCALL ISZERO DUP1 ISZERO PUSH2 0x35F2 JUMPI RETURNDATASIZE PUSH0 DUP1 RETURNDATACOPY RETURNDATASIZE PUSH0 REVERT JUMPDEST POP POP POP POP PUSH1 0x40 MLOAD RETURNDATASIZE PUSH0 DUP3 RETURNDATACOPY RETURNDATASIZE PUSH1 0x1F NOT PUSH1 0x1F DUP3 ADD AND DUP3 ADD DUP1 PUSH1 0x40 MSTORE POP DUP2 ADD SWAP1 PUSH2 0x361A SWAP2 SWAP1 PUSH2 0x534C JUMP JUMPDEST SWAP1 POP PUSH0 PUSH32 0x0 PUSH20 0xFFFFFFFFFFFFFFFFFFFFFFFFFFFFFFFFFFFFFFFF AND PUSH4 0x1F741897 PUSH1 0x40 MLOAD DUP2 PUSH4 0xFFFFFFFF AND PUSH1 0xE0 SHL DUP2 MSTORE PUSH1 0x4 ADD PUSH1 0x20 PUSH1 0x40 MLOAD DUP1 DUP4 SUB DUP2 DUP7 GAS STATICCALL ISZERO DUP1 ISZERO PUSH2 0x3686 JUMPI RETURNDATASIZE PUSH0 DUP1 RETURNDATACOPY RETURNDATASIZE PUSH0 REVERT JUMPDEST POP POP POP POP PUSH1 0x40 MLOAD RETURNDATASIZE PUSH1 0x1F NOT PUSH1 0x1F DUP3 ADD AND DUP3 ADD DUP1 PUSH1 0x40 MSTORE POP DUP2 ADD SWAP1 PUSH2 0x36AA SWAP2 SWAP1 PUSH2 0x57C8 JUMP JUMPDEST SWAP1 POP PUSH1 0x64 DUP3 PUSH1 0x80 ADD MLOAD DUP5 PUSH1 0x80 ADD MLOAD DUP4 PUSH2 0x36C3 SWAP2 SWAP1 PUSH2 0x57F3 JUMP JUMPDEST PUSH2 0x36CD SWAP2 SWAP1 PUSH2 0x57F3 JUMP JUMPDEST GT ISZERO PUSH2 0x370E JUMPI PUSH1 0x40 MLOAD PUSH32 0x8C379A000000000000000000000000000000000000000000000000000000000 DUP2 MSTORE PUSH1 0x4 ADD PUSH2 0x3705 SWAP1 PUSH2 0x5870 JUMP JUMPDEST PUSH1 0x40 MLOAD DUP1 SWAP2 SUB SWAP1 REVERT JUMPDEST PUSH32 0x0 PUSH20 0xFFFFFFFFFFFFFFFFFFFFFFFFFFFFFFFFFFFFFFFF AND PUSH4 0x17BA1245 DUP8 PUSH0 DUP7 PUSH1 0x20 ADD MLOAD DUP7 PUSH1 0x60 ADD MLOAD DUP10 DUP8 DUP11 PUSH1 0x80 ADD MLOAD DUP11 PUSH1 0x80 ADD MLOAD PUSH1 0x40 MLOAD DUP10 PUSH4 0xFFFFFFFF AND PUSH1 0xE0 SHL DUP2 MSTORE PUSH1 0x4 ADD PUSH2 0x3785 SWAP9 SWAP8 SWAP7 SWAP6 SWAP5 SWAP4 SWAP3 SWAP2 SWAP1 PUSH2 0x588E JUMP JUMPDEST PUSH0 PUSH1 0x40 MLOAD DUP1 DUP4 SUB DUP2 PUSH0 DUP8 DUP1 EXTCODESIZE ISZERO DUP1 ISZERO PUSH2 0x379C JUMPI PUSH0 DUP1 REVERT JUMPDEST POP GAS CALL ISZERO DUP1 ISZERO PUSH2 0x37AE JUMPI RETURNDATASIZE PUSH0 DUP1 RETURNDATACOPY RETURNDATASIZE PUSH0 REVERT JUMPDEST POP POP POP POP PUSH1 0x1 PUSH1 0x8 PUSH0 DUP9 DUP2 MSTORE PUSH1 0x20 ADD SWAP1 DUP2 MSTORE PUSH1 0x20 ADD PUSH0 KECCAK256 PUSH1 0x4 ADD PUSH0 PUSH2 0x100 EXP DUP2 SLOAD DUP2 PUSH1 0xFF MUL NOT AND SWAP1 DUP4 ISZERO ISZERO MUL OR SWAP1 SSTORE POP DUP6 PUSH32 0x2DEEDE74B5D808C4427B3B6F5C19347053842F97802787BE8EDF94F1C9714E8 PUSH1 0x40 MLOAD PUSH1 0x40 MLOAD DUP1 SWAP2 SUB SWAP1 LOG2 POP POP POP POP POP POP JUMP JUMPDEST PUSH0 PUSH1 0x2 PUSH0 DUP4 DUP2 MSTORE PUSH1 0x20 ADD SWAP1 DUP2 MSTORE PUSH1 0x20 ADD PUSH0 KECCAK256 PUSH0 SWAP1 SLOAD SWAP1 PUSH2 0x100 EXP SWAP1 DIV PUSH20 0xFFFFFFFFFFFFFFFFFFFFFFFFFFFFFFFFFFFFFFFF AND SWAP1 POP SWAP2 SWAP1 POP JUMP JUMPDEST DUP1 DUP1 PUSH2 0x3884 JUMPI POP PUSH0 PUSH20 0xFFFFFFFFFFFFFFFFFFFFFFFFFFFFFFFFFFFFFFFF AND DUP3 PUSH20 0xFFFFFFFFFFFFFFFFFFFFFFFFFFFFFFFFFFFFFFFF AND EQ ISZERO JUMPDEST ISZERO PUSH2 0x39B6 JUMPI PUSH0 PUSH2 0x3893 DUP5 PUSH2 0x2BED JUMP JUMPDEST SWAP1 POP PUSH0 PUSH20 0xFFFFFFFFFFFFFFFFFFFFFFFFFFFFFFFFFFFFFFFF AND DUP4 PUSH20 0xFFFFFFFFFFFFFFFFFFFFFFFFFFFFFFFFFFFFFFFF AND EQ ISZERO DUP1 ISZERO PUSH2 0x38FD JUMPI POP DUP3 PUSH20 0xFFFFFFFFFFFFFFFFFFFFFFFFFFFFFFFFFFFFFFFF AND DUP2 PUSH20 0xFFFFFFFFFFFFFFFFFFFFFFFFFFFFFFFFFFFFFFFF AND EQ ISZERO JUMPDEST DUP1 ISZERO PUSH2 0x3910 JUMPI POP PUSH2 0x390E DUP2 DUP5 PUSH2 0x2571 JUMP JUMPDEST ISZERO JUMPDEST ISZERO PUSH2 0x3952 JUMPI DUP3 PUSH1 0x40 MLOAD PUSH32 0xA9FBF51F00000000000000000000000000000000000000000000000000000000 DUP2 MSTORE PUSH1 0x4 ADD PUSH2 0x3949 SWAP2 SWAP1 PUSH2 0x40A3 JUMP JUMPDEST PUSH1 0x40 MLOAD DUP1 SWAP2 SUB SWAP1 REVERT JUMPDEST DUP2 ISZERO PUSH2 0x39B4 JUMPI DUP4 DUP6 PUSH20 0xFFFFFFFFFFFFFFFFFFFFFFFFFFFFFFFFFFFFFFFF AND DUP3 PUSH20 0xFFFFFFFFFFFFFFFFFFFFFFFFFFFFFFFFFFFFFFFF AND PUSH32 0x8C5BE1E5EBEC7D5BD14F71427D1E84F3DD0314C0F7B2291E5B200AC8C7C3B925 PUSH1 0x40 MLOAD PUSH1 0x40 MLOAD DUP1 SWAP2 SUB SWAP1 LOG4 JUMPDEST POP JUMPDEST DUP4 PUSH1 0x4 PUSH0 DUP6 DUP2 MSTORE PUSH1 0x20 ADD SWAP1 DUP2 MSTORE PUSH1 0x20 ADD PUSH0 KECCAK256 PUSH0 PUSH2 0x100 EXP DUP2 SLOAD DUP2 PUSH20 0xFFFFFFFFFFFFFFFFFFFFFFFFFFFFFFFFFFFFFFFF MUL NOT AND SWAP1 DUP4 PUSH20 0xFFFFFFFFFFFFFFFFFFFFFFFFFFFFFFFFFFFFFFFF AND MUL OR SWAP1 SSTORE POP POP POP POP POP JUMP JUMPDEST PUSH2 0x3A16 DUP4 DUP4 DUP4 PUSH2 0x3C8B JUMP JUMPDEST PUSH2 0x3AC9 JUMPI PUSH0 PUSH20 0xFFFFFFFFFFFFFFFFFFFFFFFFFFFFFFFFFFFFFFFF AND DUP4 PUSH20 0xFFFFFFFFFFFFFFFFFFFFFFFFFFFFFFFFFFFFFFFF AND SUB PUSH2 0x3A8A JUMPI DUP1 PUSH1 0x40 MLOAD PUSH32 0x7E27328900000000000000000000000000000000000000000000000000000000 DUP2 MSTORE PUSH1 0x4 ADD PUSH2 0x3A81 SWAP2 SWAP1 PUSH2 0x4343 JUMP JUMPDEST PUSH1 0x40 MLOAD DUP1 SWAP2 SUB SWAP1 REVERT JUMPDEST DUP2 DUP2 PUSH1 0x40 MLOAD PUSH32 0x177E802F00000000000000000000000000000000000000000000000000000000 DUP2 MSTORE PUSH1 0x4 ADD PUSH2 0x3AC0 SWAP3 SWAP2 SWAP1 PUSH2 0x590A JUMP JUMPDEST PUSH1 0x40 MLOAD DUP1 SWAP2 SUB SWAP1 REVERT JUMPDEST POP POP POP JUMP JUMPDEST PUSH2 0x3AD6 PUSH2 0x15BB JUMP JUMPDEST PUSH2 0x3B15 JUMPI PUSH1 0x40 MLOAD PUSH32 0x8C379A000000000000000000000000000000000000000000000000000000000 DUP2 MSTORE PUSH1 0x4 ADD PUSH2 0x3B0C SWAP1 PUSH2 0x597B JUMP JUMPDEST PUSH1 0x40 MLOAD DUP1 SWAP2 SUB SWAP1 REVERT JUMPDEST JUMP JUMPDEST PUSH0 DUP1 PUSH0 SWAP1 POP PUSH27 0x184F03E93FF9F4DAA797ED6E38ED64BF6A1F010000000000000000 DUP4 LT PUSH2 0x3B73 JUMPI PUSH27 0x184F03E93FF9F4DAA797ED6E38ED64BF6A1F010000000000000000 DUP4 DUP2 PUSH2 0x3B69 JUMPI PUSH2 0x3B68 PUSH2 0x5733 JUMP JUMPDEST JUMPDEST DIV SWAP3 POP PUSH1 0x40 DUP2 ADD SWAP1 POP JUMPDEST PUSH14 0x4EE2D6D415B85ACEF8100000000 DUP4 LT PUSH2 0x3BB0 JUMPI PUSH14 0x4EE2D6D415B85ACEF8100000000 DUP4 DUP2 PUSH2 0x3BA6 JUMPI PUSH2 0x3BA5 PUSH2 0x5733 JUMP JUMPDEST JUMPDEST DIV SWAP3 POP PUSH1 0x20 DUP2 ADD SWAP1 POP JUMPDEST PUSH7 0x2386F26FC10000 DUP4 LT PUSH2 0x3BDF JUMPI PUSH7 0x2386F26FC10000 DUP4 DUP2 PUSH2 0x3BD5 JUMPI PUSH2 0x3BD4 PUSH2 0x5733 JUMP JUMPDEST JUMPDEST DIV SWAP3 POP PUSH1 0x10 DUP2 ADD SWAP1 POP JUMPDEST PUSH4 0x5F5E100 DUP4 LT PUSH2 0x3C08 JUMPI PUSH4 0x5F5E100 DUP4 DUP2 PUSH2 0x3BFE JUMPI PUSH2 0x3BFD PUSH2 0x5733 JUMP JUMPDEST JUMPDEST DIV SWAP3 POP PUSH1 0x8 DUP2 ADD SWAP1 POP JUMPDEST PUSH2 0x2710 DUP4 LT PUSH2 0x3C2D JUMPI PUSH2 0x2710 DUP4 DUP2 PUSH2 0x3C23 JUMPI PUSH2 0x3C22 PUSH2 0x5733 JUMP JUMPDEST JUMPDEST DIV SWAP3 POP PUSH1 0x4 DUP2 ADD SWAP1 POP JUMPDEST PUSH1 0x64 DUP4 LT PUSH2 0x3C50 JUMPI PUSH1 0x64 DUP4 DUP2 PUSH2 0x3C46 JUMPI PUSH2 0x3C45 PUSH2 0x5733 JUMP JUMPDEST JUMPDEST DIV SWAP3 POP PUSH1 0x2 DUP2 ADD SWAP1 POP JUMPDEST PUSH1 0xA DUP4 LT PUSH2 0x3C5F JUMPI PUSH1 0x1 DUP2 ADD SWAP1 POP JUMPDEST DUP1 SWAP2 POP POP SWAP2 SWAP1 POP JUMP JUMPDEST PUSH2 0x3C72 DUP4 DUP4 PUSH2 0x3D4B JUMP JUMPDEST PUSH2 0x3C86 PUSH2 0x3C7D PUSH2 0x2CB8 JUMP JUMPDEST PUSH0 DUP6 DUP6 DUP6 PUSH2 0x31BE JUMP JUMPDEST POP POP POP JUMP JUMPDEST PUSH0 DUP1 PUSH20 0xFFFFFFFFFFFFFFFFFFFFFFFFFFFFFFFFFFFFFFFF AND DUP4 PUSH20 0xFFFFFFFFFFFFFFFFFFFFFFFFFFFFFFFFFFFFFFFF AND EQ ISZERO DUP1 ISZERO PUSH2 0x3D42 JUMPI POP DUP3 PUSH20 0xFFFFFFFFFFFFFFFFFFFFFFFFFFFFFFFFFFFFFFFF AND DUP5 PUSH20 0xFFFFFFFFFFFFFFFFFFFFFFFFFFFFFFFFFFFFFFFF AND EQ DUP1 PUSH2 0x3D03 JUMPI POP PUSH2 0x3D02 DUP5 DUP5 PUSH2 0x2571 JUMP JUMPDEST JUMPDEST DUP1 PUSH2 0x3D41 JUMPI POP DUP3 PUSH20 0xFFFFFFFFFFFFFFFFFFFFFFFFFFFFFFFFFFFFFFFF AND PUSH2 0x3D29 DUP4 PUSH2 0x2C73 JUMP JUMPDEST PUSH20 0xFFFFFFFFFFFFFFFFFFFFFFFFFFFFFFFFFFFFFFFF AND EQ JUMPDEST JUMPDEST SWAP1 POP SWAP4 SWAP3 POP POP POP JUMP JUMPDEST PUSH0 PUSH20 0xFFFFFFFFFFFFFFFFFFFFFFFFFFFFFFFFFFFFFFFF AND DUP3 PUSH20 0xFFFFFFFFFFFFFFFFFFFFFFFFFFFFFFFFFFFFFFFF AND SUB PUSH2 0x3DBB JUMPI PUSH0 PUSH1 0x40 MLOAD PUSH32 0x64A0AE9200000000000000000000000000000000000000000000000000000000 DUP2 MSTORE PUSH1 0x4 ADD PUSH2 0x3DB2 SWAP2 SWAP1 PUSH2 0x40A3 JUMP JUMPDEST PUSH1 0x40 MLOAD DUP1 SWAP2 SUB SWAP1 REVERT JUMPDEST PUSH0 PUSH2 0x3DC7 DUP4 DUP4 PUSH0 PUSH2 0x2CD1 JUMP JUMPDEST SWAP1 POP PUSH0 PUSH20 0xFFFFFFFFFFFFFFFFFFFFFFFFFFFFFFFFFFFFFFFF AND DUP2 PUSH20 0xFFFFFFFFFFFFFFFFFFFFFFFFFFFFFFFFFFFFFFFF AND EQ PUSH2 0x3E39 JUMPI PUSH0 PUSH1 0x40 MLOAD PUSH32 0x73C6AC6E00000000000000000000000000000000000000000000000000000000 DUP2 MSTORE PUSH1 0x4 ADD PUSH2 0x3E30 SWAP2 SWAP1 PUSH2 0x40A3 JUMP JUMPDEST PUSH1 0x40 MLOAD DUP1 SWAP2 SUB SWAP1 REVERT JUMPDEST POP POP POP JUMP JUMPDEST PUSH0 PUSH20 0xFFFFFFFFFFFFFFFFFFFFFFFFFFFFFFFFFFFFFFFF DUP3 AND SWAP1 POP SWAP2 SWAP1 POP JUMP JUMPDEST PUSH0 DUP2 SWAP1 POP SWAP2 SWAP1 POP JUMP JUMPDEST PUSH0 PUSH2 0x3E80 PUSH2 0x3E7B PUSH2 0x3E76 DUP5 PUSH2 0x3E3E JUMP JUMPDEST PUSH2 0x3E5D JUMP JUMPDEST PUSH2 0x3E3E JUMP JUMPDEST SWAP1 POP SWAP2 SWAP1 POP JUMP JUMPDEST PUSH0 PUSH2 0x3E91 DUP3 PUSH2 0x3E66 JUMP JUMPDEST SWAP1 POP SWAP2 SWAP1 POP JUMP JUMPDEST PUSH0 PUSH2 0x3EA2 DUP3 PUSH2 0x3E87 JUMP JUMPDEST SWAP1 POP SWAP2 SWAP1 POP JUMP JUMPDEST PUSH2 0x3EB2 DUP2 PUSH2 0x3E98 JUMP JUMPDEST DUP3 MSTORE POP POP JUMP JUMPDEST PUSH0 PUSH1 0x20 DUP3 ADD SWAP1 POP PUSH2 0x3ECB PUSH0 DUP4 ADD DUP5 PUSH2 0x3EA9 JUMP JUMPDEST SWAP3 SWAP2 POP POP JUMP JUMPDEST PUSH0 PUSH1 0x40 MLOAD SWAP1 POP SWAP1 JUMP JUMPDEST PUSH0 DUP1 REVERT JUMPDEST PUSH0 DUP1 REVERT JUMPDEST PUSH0 PUSH32 0xFFFFFFFF00000000000000000000000000000000000000000000000000000000 DUP3 AND SWAP1 POP SWAP2 SWAP1 POP JUMP JUMPDEST PUSH2 0x3F16 DUP2 PUSH2 0x3EE2 JUMP JUMPDEST DUP2 EQ PUSH2 0x3F20 JUMPI PUSH0 DUP1 REVERT JUMPDEST POP JUMP JUMPDEST PUSH0 DUP2 CALLDATALOAD SWAP1 POP PUSH2 0x3F31 DUP2 PUSH2 0x3F0D JUMP JUMPDEST SWAP3 SWAP2 POP POP JUMP JUMPDEST PUSH0 PUSH1 0x20 DUP3 DUP5 SUB SLT ISZERO PUSH2 0x3F4C JUMPI PUSH2 0x3F4B PUSH2 0x3EDA JUMP JUMPDEST JUMPDEST PUSH0 PUSH2 0x3F59 DUP5 DUP3 DUP6 ADD PUSH2 0x3F23 JUMP JUMPDEST SWAP2 POP POP SWAP3 SWAP2 POP POP JUMP JUMPDEST PUSH0 DUP2 ISZERO ISZERO SWAP1 POP SWAP2 SWAP1 POP JUMP JUMPDEST PUSH2 0x3F76 DUP2 PUSH2 0x3F62 JUMP JUMPDEST DUP3 MSTORE POP POP JUMP JUMPDEST PUSH0 PUSH1 0x20 DUP3 ADD SWAP1 POP PUSH2 0x3F8F PUSH0 DUP4 ADD DUP5 PUSH2 0x3F6D JUMP JUMPDEST SWAP3 SWAP2 POP POP JUMP JUMPDEST PUSH0 DUP2 MLOAD SWAP1 POP SWAP2 SWAP1 POP JUMP JUMPDEST PUSH0 DUP3 DUP3 MSTORE PUSH1 0x20 DUP3 ADD SWAP1 POP SWAP3 SWAP2 POP POP JUMP JUMPDEST DUP3 DUP2 DUP4 MCOPY PUSH0 DUP4 DUP4 ADD MSTORE POP POP POP JUMP JUMPDEST PUSH0 PUSH1 0x1F NOT PUSH1 0x1F DUP4 ADD AND SWAP1 POP SWAP2 SWAP1 POP JUMP JUMPDEST PUSH0 PUSH2 0x3FD7 DUP3 PUSH2 0x3F95 JUMP JUMPDEST PUSH2 0x3FE1 DUP2 DUP6 PUSH2 0x3F9F JUMP JUMPDEST SWAP4 POP PUSH2 0x3FF1 DUP2 DUP6 PUSH1 0x20 DUP7 ADD PUSH2 0x3FAF JUMP JUMPDEST PUSH2 0x3FFA DUP2 PUSH2 0x3FBD JUMP JUMPDEST DUP5 ADD SWAP2 POP POP SWAP3 SWAP2 POP POP JUMP JUMPDEST PUSH0 PUSH1 0x20 DUP3 ADD SWAP1 POP DUP2 DUP2 SUB PUSH0 DUP4 ADD MSTORE PUSH2 0x401D DUP2 DUP5 PUSH2 0x3FCD JUMP JUMPDEST SWAP1 POP SWAP3 SWAP2 POP POP JUMP JUMPDEST PUSH0 DUP2 SWAP1 POP SWAP2 SWAP1 POP JUMP JUMPDEST PUSH2 0x4037 DUP2 PUSH2 0x4025 JUMP JUMPDEST DUP2 EQ PUSH2 0x4041 JUMPI PUSH0 DUP1 REVERT JUMPDEST POP JUMP JUMPDEST PUSH0 DUP2 CALLDATALOAD SWAP1 POP PUSH2 0x4052 DUP2 PUSH2 0x402E JUMP JUMPDEST SWAP3 SWAP2 POP POP JUMP JUMPDEST PUSH0 PUSH1 0x20 DUP3 DUP5 SUB SLT ISZERO PUSH2 0x406D JUMPI PUSH2 0x406C PUSH2 0x3EDA JUMP JUMPDEST JUMPDEST PUSH0 PUSH2 0x407A DUP5 DUP3 DUP6 ADD PUSH2 0x4044 JUMP JUMPDEST SWAP2 POP POP SWAP3 SWAP2 POP POP JUMP JUMPDEST PUSH0 PUSH2 0x408D DUP3 PUSH2 0x3E3E JUMP JUMPDEST SWAP1 POP SWAP2 SWAP1 POP JUMP JUMPDEST PUSH2 0x409D DUP2 PUSH2 0x4083 JUMP JUMPDEST DUP3 MSTORE POP POP JUMP JUMPDEST PUSH0 PUSH1 0x20 DUP3 ADD SWAP1 POP PUSH2 0x40B6 PUSH0 DUP4 ADD DUP5 PUSH2 0x4094 JUMP JUMPDEST SWAP3 SWAP2 POP POP JUMP JUMPDEST PUSH2 0x40C5 DUP2 PUSH2 0x4083 JUMP JUMPDEST DUP2 EQ PUSH2 0x40CF JUMPI PUSH0 DUP1 REVERT JUMPDEST POP JUMP JUMPDEST PUSH0 DUP2 CALLDATALOAD SWAP1 POP PUSH2 0x40E0 DUP2 PUSH2 0x40BC JUMP JUMPDEST SWAP3 SWAP2 POP POP JUMP JUMPDEST PUSH0 PUSH1 0x20 DUP3 DUP5 SUB SLT ISZERO PUSH2 0x40FB JUMPI PUSH2 0x40FA PUSH2 0x3EDA JUMP JUMPDEST JUMPDEST PUSH0 PUSH2 0x4108 DUP5 DUP3 DUP6 ADD PUSH2 0x40D2 JUMP JUMPDEST SWAP2 POP POP SWAP3 SWAP2 POP POP JUMP JUMPDEST PUSH0 DUP2 MLOAD SWAP1 POP SWAP2 SWAP1 POP JUMP JUMPDEST PUSH0 DUP3 DUP3 MSTORE PUSH1 0x20 DUP3 ADD SWAP1 POP SWAP3 SWAP2 POP POP JUMP JUMPDEST PUSH0 DUP2 SWAP1 POP PUSH1 0x20 DUP3 ADD SWAP1 POP SWAP2 SWAP1 POP JUMP JUMPDEST PUSH2 0x4143 DUP2 PUSH2 0x4025 JUMP JUMPDEST DUP3 MSTORE POP POP JUMP JUMPDEST PUSH0 PUSH2 0x4154 DUP4 DUP4 PUSH2 0x413A JUMP JUMPDEST PUSH1 0x20 DUP4 ADD SWAP1 POP SWAP3 SWAP2 POP POP JUMP JUMPDEST PUSH0 PUSH1 0x20 DUP3 ADD SWAP1 POP SWAP2 SWAP1 POP JUMP JUMPDEST PUSH0 PUSH2 0x4176 DUP3 PUSH2 0x4111 JUMP JUMPDEST PUSH2 0x4180 DUP2 DUP6 PUSH2 0x411B JUMP JUMPDEST SWAP4 POP PUSH2 0x418B DUP4 PUSH2 0x412B JUMP JUMPDEST DUP1 PUSH0 JUMPDEST DUP4 DUP2 LT ISZERO PUSH2 0x41BB JUMPI DUP2 MLOAD PUSH2 0x41A2 DUP9 DUP3 PUSH2 0x4149 JUMP JUMPDEST SWAP8 POP PUSH2 0x41AD DUP4 PUSH2 0x4160 JUMP JUMPDEST SWAP3 POP POP PUSH1 0x1 DUP2 ADD SWAP1 POP PUSH2 0x418E JUMP JUMPDEST POP DUP6 SWAP4 POP POP POP POP SWAP3 SWAP2 POP POP JUMP JUMPDEST PUSH0 PUSH1 0x20 DUP3 ADD SWAP1 POP DUP2 DUP2 SUB PUSH0 DUP4 ADD MSTORE PUSH2 0x41E0 DUP2 DUP5 PUSH2 0x416C JUMP JUMPDEST SWAP1 POP SWAP3 SWAP2 POP POP JUMP JUMPDEST PUSH0 DUP1 PUSH1 0x40 DUP4 DUP6 SUB SLT ISZERO PUSH2 0x41FE JUMPI PUSH2 0x41FD PUSH2 0x3EDA JUMP JUMPDEST JUMPDEST PUSH0 PUSH2 0x420B DUP6 DUP3 DUP7 ADD PUSH2 0x40D2 JUMP JUMPDEST SWAP3 POP POP PUSH1 0x20 PUSH2 0x421C DUP6 DUP3 DUP7 ADD PUSH2 0x4044 JUMP JUMPDEST SWAP2 POP POP SWAP3 POP SWAP3 SWAP1 POP JUMP JUMPDEST PUSH0 DUP1 PUSH0 PUSH1 0x60 DUP5 DUP7 SUB SLT ISZERO PUSH2 0x423D JUMPI PUSH2 0x423C PUSH2 0x3EDA JUMP JUMPDEST JUMPDEST PUSH0 PUSH2 0x424A DUP7 DUP3 DUP8 ADD PUSH2 0x40D2 JUMP JUMPDEST SWAP4 POP POP PUSH1 0x20 PUSH2 0x425B DUP7 DUP3 DUP8 ADD PUSH2 0x40D2 JUMP JUMPDEST SWAP3 POP POP PUSH1 0x40 PUSH2 0x426C DUP7 DUP3 DUP8 ADD PUSH2 0x4044 JUMP JUMPDEST SWAP2 POP POP SWAP3 POP SWAP3 POP SWAP3 JUMP JUMPDEST PUSH0 DUP1 REVERT JUMPDEST PUSH0 DUP1 REVERT JUMPDEST PUSH0 DUP1 REVERT JUMPDEST PUSH0 DUP1 DUP4 PUSH1 0x1F DUP5 ADD SLT PUSH2 0x4297 JUMPI PUSH2 0x4296 PUSH2 0x4276 JUMP JUMPDEST JUMPDEST DUP3 CALLDATALOAD SWAP1 POP PUSH8 0xFFFFFFFFFFFFFFFF DUP2 GT ISZERO PUSH2 0x42B4 JUMPI PUSH2 0x42B3 PUSH2 0x427A JUMP JUMPDEST JUMPDEST PUSH1 0x20 DUP4 ADD SWAP2 POP DUP4 PUSH1 0x1 DUP3 MUL DUP4 ADD GT ISZERO PUSH2 0x42D0 JUMPI PUSH2 0x42CF PUSH2 0x427E JUMP JUMPDEST JUMPDEST SWAP3 POP SWAP3 SWAP1 POP JUMP JUMPDEST PUSH0 DUP1 PUSH0 PUSH1 0x40 DUP5 DUP7 SUB SLT ISZERO PUSH2 0x42EE JUMPI PUSH2 0x42ED PUSH2 0x3EDA JUMP JUMPDEST JUMPDEST PUSH0 PUSH2 0x42FB DUP7 DUP3 DUP8 ADD PUSH2 0x4044 JUMP JUMPDEST SWAP4 POP POP PUSH1 0x20 DUP5 ADD CALLDATALOAD PUSH8 0xFFFFFFFFFFFFFFFF DUP2 GT ISZERO PUSH2 0x431C JUMPI PUSH2 0x431B PUSH2 0x3EDE JUMP JUMPDEST JUMPDEST PUSH2 0x4328 DUP7 DUP3 DUP8 ADD PUSH2 0x4282 JUMP JUMPDEST SWAP3 POP SWAP3 POP POP SWAP3 POP SWAP3 POP SWAP3 JUMP JUMPDEST PUSH2 0x433D DUP2 PUSH2 0x4025 JUMP JUMPDEST DUP3 MSTORE POP POP JUMP JUMPDEST PUSH0 PUSH1 0x20 DUP3 ADD SWAP1 POP PUSH2 0x4356 PUSH0 DUP4 ADD DUP5 PUSH2 0x4334 JUMP JUMPDEST SWAP3 SWAP2 POP POP JUMP JUMPDEST PUSH0 PUSH2 0x4366 DUP3 PUSH2 0x3E87 JUMP JUMPDEST SWAP1 POP SWAP2 SWAP1 POP JUMP JUMPDEST PUSH2 0x4376 DUP2 PUSH2 0x435C JUMP JUMPDEST DUP3 MSTORE POP POP JUMP JUMPDEST PUSH0 PUSH1 0x20 DUP3 ADD SWAP1 POP PUSH2 0x438F PUSH0 DUP4 ADD DUP5 PUSH2 0x436D JUMP JUMPDEST SWAP3 SWAP2 POP POP JUMP JUMPDEST PUSH0 PUSH2 0x439F DUP3 PUSH2 0x3E87 JUMP JUMPDEST SWAP1 POP SWAP2 SWAP1 POP JUMP JUMPDEST PUSH2 0x43AF DUP2 PUSH2 0x4395 JUMP JUMPDEST DUP3 MSTORE POP POP JUMP JUMPDEST PUSH0 PUSH1 0x20 DUP3 ADD SWAP1 POP PUSH2 0x43C8 PUSH0 DUP4 ADD DUP5 PUSH2 0x43A6 JUMP JUMPDEST SWAP3 SWAP2 POP POP JUMP JUMPDEST PUSH2 0x43D7 DUP2 PUSH2 0x3F62 JUMP JUMPDEST DUP2 EQ PUSH2 0x43E1 JUMPI PUSH0 DUP1 REVERT JUMPDEST POP JUMP JUMPDEST PUSH0 DUP2 CALLDATALOAD SWAP1 POP PUSH2 0x43F2 DUP2 PUSH2 0x43CE JUMP JUMPDEST SWAP3 SWAP2 POP POP JUMP JUMPDEST PUSH0 DUP1 PUSH1 0x40 DUP4 DUP6 SUB SLT ISZERO PUSH2 0x440E JUMPI PUSH2 0x440D PUSH2 0x3EDA JUMP JUMPDEST JUMPDEST PUSH0 PUSH2 0x441B DUP6 DUP3 DUP7 ADD PUSH2 0x40D2 JUMP JUMPDEST SWAP3 POP POP PUSH1 0x20 PUSH2 0x442C DUP6 DUP3 DUP7 ADD PUSH2 0x43E4 JUMP JUMPDEST SWAP2 POP POP SWAP3 POP SWAP3 SWAP1 POP JUMP JUMPDEST PUSH32 0x4E487B7100000000000000000000000000000000000000000000000000000000 PUSH0 MSTORE PUSH1 0x21 PUSH1 0x4 MSTORE PUSH1 0x24 PUSH0 REVERT JUMPDEST PUSH1 0x4 DUP2 LT PUSH2 0x4474 JUMPI PUSH2 0x4473 PUSH2 0x4436 JUMP JUMPDEST JUMPDEST POP JUMP JUMPDEST PUSH0 DUP2 SWAP1 POP PUSH2 0x4484 DUP3 PUSH2 0x4463 JUMP JUMPDEST SWAP2 SWAP1 POP JUMP JUMPDEST PUSH0 PUSH2 0x4493 DUP3 PUSH2 0x4477 JUMP JUMPDEST SWAP1 POP SWAP2 SWAP1 POP JUMP JUMPDEST PUSH2 0x44A3 DUP2 PUSH2 0x4489 JUMP JUMPDEST DUP3 MSTORE POP POP JUMP JUMPDEST PUSH0 PUSH1 0xA0 DUP3 ADD SWAP1 POP PUSH2 0x44BC PUSH0 DUP4 ADD DUP9 PUSH2 0x4334 JUMP JUMPDEST PUSH2 0x44C9 PUSH1 0x20 DUP4 ADD DUP8 PUSH2 0x4094 JUMP JUMPDEST DUP2 DUP2 SUB PUSH1 0x40 DUP4 ADD MSTORE PUSH2 0x44DB DUP2 DUP7 PUSH2 0x3FCD JUMP JUMPDEST SWAP1 POP PUSH2 0x44EA PUSH1 0x60 DUP4 ADD DUP6 PUSH2 0x449A JUMP JUMPDEST PUSH2 0x44F7 PUSH1 0x80 DUP4 ADD DUP5 PUSH2 0x4334 JUMP JUMPDEST SWAP7 SWAP6 POP POP POP POP POP POP JUMP JUMPDEST PUSH0 PUSH2 0x450B DUP3 PUSH2 0x3E87 JUMP JUMPDEST SWAP1 POP SWAP2 SWAP1 POP JUMP JUMPDEST PUSH2 0x451B DUP2 PUSH2 0x4501 JUMP JUMPDEST DUP3 MSTORE POP POP JUMP JUMPDEST PUSH0 PUSH1 0x20 DUP3 ADD SWAP1 POP PUSH2 0x4534 PUSH0 DUP4 ADD DUP5 PUSH2 0x4512 JUMP JUMPDEST SWAP3 SWAP2 POP POP JUMP JUMPDEST PUSH0 DUP1 REVERT JUMPDEST PUSH32 0x4E487B7100000000000000000000000000000000000000000000000000000000 PUSH0 MSTORE PUSH1 0x41 PUSH1 0x4 MSTORE PUSH1 0x24 PUSH0 REVERT JUMPDEST PUSH2 0x4574 DUP3 PUSH2 0x3FBD JUMP JUMPDEST DUP2 ADD DUP2 DUP2 LT PUSH8 0xFFFFFFFFFFFFFFFF DUP3 GT OR ISZERO PUSH2 0x4593 JUMPI PUSH2 0x4592 PUSH2 0x453E JUMP JUMPDEST JUMPDEST DUP1 PUSH1 0x40 MSTORE POP POP POP JUMP JUMPDEST PUSH0 PUSH2 0x45A5 PUSH2 0x3ED1 JUMP JUMPDEST SWAP1 POP PUSH2 0x45B1 DUP3 DUP3 PUSH2 0x456B JUMP JUMPDEST SWAP2 SWAP1 POP JUMP JUMPDEST PUSH0 PUSH8 0xFFFFFFFFFFFFFFFF DUP3 GT ISZERO PUSH2 0x45D0 JUMPI PUSH2 0x45CF PUSH2 0x453E JUMP JUMPDEST JUMPDEST PUSH2 0x45D9 DUP3 PUSH2 0x3FBD JUMP JUMPDEST SWAP1 POP PUSH1 0x20 DUP2 ADD SWAP1 POP SWAP2 SWAP1 POP JUMP JUMPDEST DUP3 DUP2 DUP4 CALLDATACOPY PUSH0 DUP4 DUP4 ADD MSTORE POP POP POP JUMP JUMPDEST PUSH0 PUSH2 0x4606 PUSH2 0x4601 DUP5 PUSH2 0x45B6 JUMP JUMPDEST PUSH2 0x459C JUMP JUMPDEST SWAP1 POP DUP3 DUP2 MSTORE PUSH1 0x20 DUP2 ADD DUP5 DUP5 DUP5 ADD GT ISZERO PUSH2 0x4622 JUMPI PUSH2 0x4621 PUSH2 0x453A JUMP JUMPDEST JUMPDEST PUSH2 0x462D DUP5 DUP3 DUP6 PUSH2 0x45E6 JUMP JUMPDEST POP SWAP4 SWAP3 POP POP POP JUMP JUMPDEST PUSH0 DUP3 PUSH1 0x1F DUP4 ADD SLT PUSH2 0x4649 JUMPI PUSH2 0x4648 PUSH2 0x4276 JUMP JUMPDEST JUMPDEST DUP2 CALLDATALOAD PUSH2 0x4659 DUP5 DUP3 PUSH1 0x20 DUP7 ADD PUSH2 0x45F4 JUMP JUMPDEST SWAP2 POP POP SWAP3 SWAP2 POP POP JUMP JUMPDEST PUSH0 DUP1 PUSH0 DUP1 PUSH1 0x80 DUP6 DUP8 SUB SLT ISZERO PUSH2 0x467A JUMPI PUSH2 0x4679 PUSH2 0x3EDA JUMP JUMPDEST JUMPDEST PUSH0 PUSH2 0x4687 DUP8 DUP3 DUP9 ADD PUSH2 0x40D2 JUMP JUMPDEST SWAP5 POP POP PUSH1 0x20 PUSH2 0x4698 DUP8 DUP3 DUP9 ADD PUSH2 0x40D2 JUMP JUMPDEST SWAP4 POP POP PUSH1 0x40 PUSH2 0x46A9 DUP8 DUP3 DUP9 ADD PUSH2 0x4044 JUMP JUMPDEST SWAP3 POP POP PUSH1 0x60 DUP6 ADD CALLDATALOAD PUSH8 0xFFFFFFFFFFFFFFFF DUP2 GT ISZERO PUSH2 0x46CA JUMPI PUSH2 0x46C9 PUSH2 0x3EDE JUMP JUMPDEST JUMPDEST PUSH2 0x46D6 DUP8 DUP3 DUP9 ADD PUSH2 0x4635 JUMP JUMPDEST SWAP2 POP POP SWAP3 SWAP6 SWAP2 SWAP5 POP SWAP3 POP JUMP JUMPDEST PUSH0 PUSH1 0xC0 DUP3 ADD SWAP1 POP PUSH2 0x46F5 PUSH0 DUP4 ADD DUP10 PUSH2 0x4334 JUMP JUMPDEST PUSH2 0x4702 PUSH1 0x20 DUP4 ADD DUP9 PUSH2 0x4334 JUMP JUMPDEST PUSH2 0x470F PUSH1 0x40 DUP4 ADD DUP8 PUSH2 0x4094 JUMP JUMPDEST DUP2 DUP2 SUB PUSH1 0x60 DUP4 ADD MSTORE PUSH2 0x4721 DUP2 DUP7 PUSH2 0x3FCD JUMP JUMPDEST SWAP1 POP PUSH2 0x4730 PUSH1 0x80 DUP4 ADD DUP6 PUSH2 0x3F6D JUMP JUMPDEST PUSH2 0x473D PUSH1 0xA0 DUP4 ADD DUP5 PUSH2 0x4334 JUMP JUMPDEST SWAP8 SWAP7 POP POP POP POP POP POP POP JUMP JUMPDEST PUSH0 DUP1 PUSH1 0x40 DUP4 DUP6 SUB SLT ISZERO PUSH2 0x475E JUMPI PUSH2 0x475D PUSH2 0x3EDA JUMP JUMPDEST JUMPDEST PUSH0 PUSH2 0x476B DUP6 DUP3 DUP7 ADD PUSH2 0x40D2 JUMP JUMPDEST SWAP3 POP POP PUSH1 0x20 PUSH2 0x477C DUP6 DUP3 DUP7 ADD PUSH2 0x40D2 JUMP JUMPDEST SWAP2 POP POP SWAP3 POP SWAP3 SWAP1 POP JUMP JUMPDEST PUSH32 0x4E487B7100000000000000000000000000000000000000000000000000000000 PUSH0 MSTORE PUSH1 0x22 PUSH1 0x4 MSTORE PUSH1 0x24 PUSH0 REVERT JUMPDEST PUSH0 PUSH1 0x2 DUP3 DIV SWAP1 POP PUSH1 0x1 DUP3 AND DUP1 PUSH2 0x47CA JUMPI PUSH1 0x7F DUP3 AND SWAP2 POP JUMPDEST PUSH1 0x20 DUP3 LT DUP2 SUB PUSH2 0x47DD JUMPI PUSH2 0x47DC PUSH2 0x4786 JUMP JUMPDEST JUMPDEST POP SWAP2 SWAP1 POP JUMP JUMPDEST PUSH0 DUP2 SWAP1 POP SWAP2 SWAP1 POP JUMP JUMPDEST PUSH2 0x47F5 DUP2 PUSH2 0x47E3 JUMP JUMPDEST DUP2 EQ PUSH2 0x47FF JUMPI PUSH0 DUP1 REVERT JUMPDEST POP JUMP JUMPDEST PUSH0 DUP2 MLOAD SWAP1 POP PUSH2 0x4810 DUP2 PUSH2 0x47EC JUMP JUMPDEST SWAP3 SWAP2 POP POP JUMP JUMPDEST PUSH0 PUSH1 0x20 DUP3 DUP5 SUB SLT ISZERO PUSH2 0x482B JUMPI PUSH2 0x482A PUSH2 0x3EDA JUMP JUMPDEST JUMPDEST PUSH0 PUSH2 0x4838 DUP5 DUP3 DUP6 ADD PUSH2 0x4802 JUMP JUMPDEST SWAP2 POP POP SWAP3 SWAP2 POP POP JUMP JUMPDEST PUSH2 0x484A DUP2 PUSH2 0x47E3 JUMP JUMPDEST DUP3 MSTORE POP POP JUMP JUMPDEST PUSH0 PUSH1 0x40 DUP3 ADD SWAP1 POP PUSH2 0x4863 PUSH0 DUP4 ADD DUP6 PUSH2 0x4841 JUMP JUMPDEST PUSH2 0x4870 PUSH1 0x20 DUP4 ADD DUP5 PUSH2 0x4094 JUMP JUMPDEST SWAP4 SWAP3 POP POP POP JUMP JUMPDEST PUSH0 DUP2 MLOAD SWAP1 POP PUSH2 0x4885 DUP2 PUSH2 0x43CE JUMP JUMPDEST SWAP3 SWAP2 POP POP JUMP JUMPDEST PUSH0 PUSH1 0x20 DUP3 DUP5 SUB SLT ISZERO PUSH2 0x48A0 JUMPI PUSH2 0x489F PUSH2 0x3EDA JUMP JUMPDEST JUMPDEST PUSH0 PUSH2 0x48AD DUP5 DUP3 DUP6 ADD PUSH2 0x4877 JUMP JUMPDEST SWAP2 POP POP SWAP3 SWAP2 POP POP JUMP JUMPDEST PUSH32 0x4D7573742068617665205041494E5445525F524F4C4500000000000000000000 PUSH0 DUP3 ADD MSTORE POP JUMP JUMPDEST PUSH0 PUSH2 0x48EA PUSH1 0x16 DUP4 PUSH2 0x3F9F JUMP JUMPDEST SWAP2 POP PUSH2 0x48F5 DUP3 PUSH2 0x48B6 JUMP JUMPDEST PUSH1 0x20 DUP3 ADD SWAP1 POP SWAP2 SWAP1 POP JUMP JUMPDEST PUSH0 PUSH1 0x20 DUP3 ADD SWAP1 POP DUP2 DUP2 SUB PUSH0 DUP4 ADD MSTORE PUSH2 0x4917 DUP2 PUSH2 0x48DE JUMP JUMPDEST SWAP1 POP SWAP2 SWAP1 POP JUMP JUMPDEST PUSH32 0x4E6F742061737369676E6564207061696E746572000000000000000000000000 PUSH0 DUP3 ADD MSTORE POP JUMP JUMPDEST PUSH0 PUSH2 0x4952 PUSH1 0x14 DUP4 PUSH2 0x3F9F JUMP JUMPDEST SWAP2 POP PUSH2 0x495D DUP3 PUSH2 0x491E JUMP JUMPDEST PUSH1 0x20 DUP3 ADD SWAP1 POP SWAP2 SWAP1 POP JUMP JUMPDEST PUSH0 PUSH1 0x20 DUP3 ADD SWAP1 POP DUP2 DUP2 SUB PUSH0 DUP4 ADD MSTORE PUSH2 0x497F DUP2 PUSH2 0x4946 JUMP JUMPDEST SWAP1 POP SWAP2 SWAP1 POP JUMP JUMPDEST PUSH32 0x4E6F7420696E2070726F63657373000000000000000000000000000000000000 PUSH0 DUP3 ADD MSTORE POP JUMP JUMPDEST PUSH0 PUSH2 0x49BA PUSH1 0xE DUP4 PUSH2 0x3F9F JUMP JUMPDEST SWAP2 POP PUSH2 0x49C5 DUP3 PUSH2 0x4986 JUMP JUMPDEST PUSH1 0x20 DUP3 ADD SWAP1 POP SWAP2 SWAP1 POP JUMP JUMPDEST PUSH0 PUSH1 0x20 DUP3 ADD SWAP1 POP DUP2 DUP2 SUB PUSH0 DUP4 ADD MSTORE PUSH2 0x49E7 DUP2 PUSH2 0x49AE JUMP JUMPDEST SWAP1 POP SWAP2 SWAP1 POP JUMP JUMPDEST PUSH32 0x4E487B7100000000000000000000000000000000000000000000000000000000 PUSH0 MSTORE PUSH1 0x11 PUSH1 0x4 MSTORE PUSH1 0x24 PUSH0 REVERT JUMPDEST PUSH0 PUSH2 0x4A25 DUP3 PUSH2 0x4025 JUMP JUMPDEST SWAP2 POP PUSH32 0xFFFFFFFFFFFFFFFFFFFFFFFFFFFFFFFFFFFFFFFFFFFFFFFFFFFFFFFFFFFFFFFF DUP3 SUB PUSH2 0x4A57 JUMPI PUSH2 0x4A56 PUSH2 0x49EE JUMP JUMPDEST JUMPDEST PUSH1 0x1 DUP3 ADD SWAP1 POP SWAP2 SWAP1 POP JUMP JUMPDEST PUSH32 0x4E487B7100000000000000000000000000000000000000000000000000000000 PUSH0 MSTORE PUSH1 0x32 PUSH1 0x4 MSTORE PUSH1 0x24 PUSH0 REVERT JUMPDEST PUSH0 PUSH1 0x60 DUP3 ADD SWAP1 POP PUSH2 0x4AA2 PUSH0 DUP4 ADD DUP7 PUSH2 0x4094 JUMP JUMPDEST PUSH2 0x4AAF PUSH1 0x20 DUP4 ADD DUP6 PUSH2 0x4334 JUMP JUMPDEST PUSH2 0x4ABC PUSH1 0x40 DUP4 ADD DUP5 PUSH2 0x4094 JUMP JUMPDEST SWAP5 SWAP4 POP POP POP POP JUMP JUMPDEST PUSH32 0x4D75737420686176652041444D494E5F524F4C45000000000000000000000000 PUSH0 DUP3 ADD MSTORE POP JUMP JUMPDEST PUSH0 PUSH2 0x4AF8 PUSH1 0x14 DUP4 PUSH2 0x3F9F JUMP JUMPDEST SWAP2 POP PUSH2 0x4B03 DUP3 PUSH2 0x4AC4 JUMP JUMPDEST PUSH1 0x20 DUP3 ADD SWAP1 POP SWAP2 SWAP1 POP JUMP JUMPDEST PUSH0 PUSH1 0x20 DUP3 ADD SWAP1 POP DUP2 DUP2 SUB PUSH0 DUP4 ADD MSTORE PUSH2 0x4B25 DUP2 PUSH2 0x4AEC JUMP JUMPDEST SWAP1 POP SWAP2 SWAP1 POP JUMP JUMPDEST PUSH32 0x4465736372697074696F6E2063616E6E6F7420626520656D7074790000000000 PUSH0 DUP3 ADD MSTORE POP JUMP JUMPDEST PUSH0 PUSH2 0x4B60 PUSH1 0x1B DUP4 PUSH2 0x3F9F JUMP JUMPDEST SWAP2 POP PUSH2 0x4B6B DUP3 PUSH2 0x4B2C JUMP JUMPDEST PUSH1 0x20 DUP3 ADD SWAP1 POP SWAP2 SWAP1 POP JUMP JUMPDEST PUSH0 PUSH1 0x20 DUP3 ADD SWAP1 POP DUP2 DUP2 SUB PUSH0 DUP4 ADD MSTORE PUSH2 0x4B8D DUP2 PUSH2 0x4B54 JUMP JUMPDEST SWAP1 POP SWAP2 SWAP1 POP JUMP JUMPDEST PUSH32 0x57616C6C20616C7265616479207061696E746564000000000000000000000000 PUSH0 DUP3 ADD MSTORE POP JUMP JUMPDEST PUSH0 PUSH2 0x4BC8 PUSH1 0x14 DUP4 PUSH2 0x3F9F JUMP JUMPDEST SWAP2 POP PUSH2 0x4BD3 DUP3 PUSH2 0x4B94 JUMP JUMPDEST PUSH1 0x20 DUP3 ADD SWAP1 POP SWAP2 SWAP1 POP JUMP JUMPDEST PUSH0 PUSH1 0x20 DUP3 ADD SWAP1 POP DUP2 DUP2 SUB PUSH0 DUP4 ADD MSTORE PUSH2 0x4BF5 DUP2 PUSH2 0x4BBC JUMP JUMPDEST SWAP1 POP SWAP2 SWAP1 POP JUMP JUMPDEST PUSH32 0x5265717565737420657869737473000000000000000000000000000000000000 PUSH0 DUP3 ADD MSTORE POP JUMP JUMPDEST PUSH0 PUSH2 0x4C30 PUSH1 0xE DUP4 PUSH2 0x3F9F JUMP JUMPDEST SWAP2 POP PUSH2 0x4C3B DUP3 PUSH2 0x4BFC JUMP JUMPDEST PUSH1 0x20 DUP3 ADD SWAP1 POP SWAP2 SWAP1 POP JUMP JUMPDEST PUSH0 PUSH1 0x20 DUP3 ADD SWAP1 POP DUP2 DUP2 SUB PUSH0 DUP4 ADD MSTORE PUSH2 0x4C5D DUP2 PUSH2 0x4C24 JUMP JUMPDEST SWAP1 POP SWAP2 SWAP1 POP JUMP JUMPDEST PUSH0 DUP1 REVERT JUMPDEST PUSH0 DUP1 REVERT JUMPDEST PUSH0 DUP2 MLOAD SWAP1 POP PUSH2 0x4C7A DUP2 PUSH2 0x402E JUMP JUMPDEST SWAP3 SWAP2 POP POP JUMP JUMPDEST PUSH0 DUP2 MLOAD SWAP1 POP PUSH2 0x4C8E DUP2 PUSH2 0x40BC JUMP JUMPDEST SWAP3 SWAP2 POP POP JUMP JUMPDEST PUSH0 PUSH8 0xFFFFFFFFFFFFFFFF DUP3 GT ISZERO PUSH2 0x4CAE JUMPI PUSH2 0x4CAD PUSH2 0x453E JUMP JUMPDEST JUMPDEST PUSH2 0x4CB7 DUP3 PUSH2 0x3FBD JUMP JUMPDEST SWAP1 POP PUSH1 0x20 DUP2 ADD SWAP1 POP SWAP2 SWAP1 POP JUMP JUMPDEST PUSH0 PUSH2 0x4CD6 PUSH2 0x4CD1 DUP5 PUSH2 0x4C94 JUMP JUMPDEST PUSH2 0x459C JUMP JUMPDEST SWAP1 POP DUP3 DUP2 MSTORE PUSH1 0x20 DUP2 ADD DUP5 DUP5 DUP5 ADD GT ISZERO PUSH2 0x4CF2 JUMPI PUSH2 0x4CF1 PUSH2 0x453A JUMP JUMPDEST JUMPDEST PUSH2 0x4CFD DUP5 DUP3 DUP6 PUSH2 0x3FAF JUMP JUMPDEST POP SWAP4 SWAP3 POP POP POP JUMP JUMPDEST PUSH0 DUP3 PUSH1 0x1F DUP4 ADD SLT PUSH2 0x4D19 JUMPI PUSH2 0x4D18 PUSH2 0x4276 JUMP JUMPDEST JUMPDEST DUP2 MLOAD PUSH2 0x4D29 DUP5 DUP3 PUSH1 0x20 DUP7 ADD PUSH2 0x4CC4 JUMP JUMPDEST SWAP2 POP POP SWAP3 SWAP2 POP POP JUMP JUMPDEST PUSH0 DUP2 SWAP1 POP SWAP2 SWAP1 POP JUMP JUMPDEST PUSH2 0x4D44 DUP2 PUSH2 0x4D32 JUMP JUMPDEST DUP2 EQ PUSH2 0x4D4E JUMPI PUSH0 DUP1 REVERT JUMPDEST POP JUMP JUMPDEST PUSH0 DUP2 MLOAD SWAP1 POP PUSH2 0x4D5F DUP2 PUSH2 0x4D3B JUMP JUMPDEST SWAP3 SWAP2 POP POP JUMP JUMPDEST PUSH0 PUSH1 0xA0 DUP3 DUP5 SUB SLT ISZERO PUSH2 0x4D7A JUMPI PUSH2 0x4D79 PUSH2 0x4C64 JUMP JUMPDEST JUMPDEST PUSH2 0x4D84 PUSH1 0xA0 PUSH2 0x459C JUMP JUMPDEST SWAP1 POP PUSH0 DUP3 ADD MLOAD PUSH8 0xFFFFFFFFFFFFFFFF DUP2 GT ISZERO PUSH2 0x4DA3 JUMPI PUSH2 0x4DA2 PUSH2 0x4C68 JUMP JUMPDEST JUMPDEST PUSH2 0x4DAF DUP5 DUP3 DUP6 ADD PUSH2 0x4D05 JUMP JUMPDEST PUSH0 DUP4 ADD MSTORE POP PUSH1 0x20 DUP3 ADD MLOAD PUSH8 0xFFFFFFFFFFFFFFFF DUP2 GT ISZERO PUSH2 0x4DD2 JUMPI PUSH2 0x4DD1 PUSH2 0x4C68 JUMP JUMPDEST JUMPDEST PUSH2 0x4DDE DUP5 DUP3 DUP6 ADD PUSH2 0x4D05 JUMP JUMPDEST PUSH1 0x20 DUP4 ADD MSTORE POP PUSH1 0x40 DUP3 ADD MLOAD PUSH8 0xFFFFFFFFFFFFFFFF DUP2 GT ISZERO PUSH2 0x4E02 JUMPI PUSH2 0x4E01 PUSH2 0x4C68 JUMP JUMPDEST JUMPDEST PUSH2 0x4E0E DUP5 DUP3 DUP6 ADD PUSH2 0x4D05 JUMP JUMPDEST PUSH1 0x40 DUP4 ADD MSTORE POP PUSH1 0x60 PUSH2 0x4E22 DUP5 DUP3 DUP6 ADD PUSH2 0x4D51 JUMP JUMPDEST PUSH1 0x60 DUP4 ADD MSTORE POP PUSH1 0x80 PUSH2 0x4E36 DUP5 DUP3 DUP6 ADD PUSH2 0x4D51 JUMP JUMPDEST PUSH1 0x80 DUP4 ADD MSTORE POP SWAP3 SWAP2 POP POP JUMP JUMPDEST PUSH0 PUSH2 0x120 DUP3 DUP5 SUB SLT ISZERO PUSH2 0x4E58 JUMPI PUSH2 0x4E57 PUSH2 0x4C64 JUMP JUMPDEST JUMPDEST PUSH2 0x4E63 PUSH2 0x120 PUSH2 0x459C JUMP JUMPDEST SWAP1 POP PUSH0 PUSH2 0x4E72 DUP5 DUP3 DUP6 ADD PUSH2 0x4C6C JUMP JUMPDEST PUSH0 DUP4 ADD MSTORE POP PUSH1 0x20 PUSH2 0x4E85 DUP5 DUP3 DUP6 ADD PUSH2 0x4C80 JUMP JUMPDEST PUSH1 0x20 DUP4 ADD MSTORE POP PUSH1 0x40 DUP3 ADD MLOAD PUSH8 0xFFFFFFFFFFFFFFFF DUP2 GT ISZERO PUSH2 0x4EA9 JUMPI PUSH2 0x4EA8 PUSH2 0x4C68 JUMP JUMPDEST JUMPDEST PUSH2 0x4EB5 DUP5 DUP3 DUP6 ADD PUSH2 0x4D65 JUMP JUMPDEST PUSH1 0x40 DUP4 ADD MSTORE POP PUSH1 0x60 PUSH2 0x4EC9 DUP5 DUP3 DUP6 ADD PUSH2 0x4C6C JUMP JUMPDEST PUSH1 0x60 DUP4 ADD MSTORE POP PUSH1 0x80 PUSH2 0x4EDD DUP5 DUP3 DUP6 ADD PUSH2 0x4C6C JUMP JUMPDEST PUSH1 0x80 DUP4 ADD MSTORE POP PUSH1 0xA0 PUSH2 0x4EF1 DUP5 DUP3 DUP6 ADD PUSH2 0x4877 JUMP JUMPDEST PUSH1 0xA0 DUP4 ADD MSTORE POP PUSH1 0xC0 PUSH2 0x4F05 DUP5 DUP3 DUP6 ADD PUSH2 0x4C6C JUMP JUMPDEST PUSH1 0xC0 DUP4 ADD MSTORE POP PUSH1 0xE0 PUSH2 0x4F19 DUP5 DUP3 DUP6 ADD PUSH2 0x4C6C JUMP JUMPDEST PUSH1 0xE0 DUP4 ADD MSTORE POP PUSH2 0x100 PUSH2 0x4F2E DUP5 DUP3 DUP6 ADD PUSH2 0x4C6C JUMP JUMPDEST PUSH2 0x100 DUP4 ADD MSTORE POP SWAP3 SWAP2 POP POP JUMP JUMPDEST PUSH0 PUSH1 0x20 DUP3 DUP5 SUB SLT ISZERO PUSH2 0x4F50 JUMPI PUSH2 0x4F4F PUSH2 0x3EDA JUMP JUMPDEST JUMPDEST PUSH0 DUP3 ADD MLOAD PUSH8 0xFFFFFFFFFFFFFFFF DUP2 GT ISZERO PUSH2 0x4F6D JUMPI PUSH2 0x4F6C PUSH2 0x3EDE JUMP JUMPDEST JUMPDEST PUSH2 0x4F79 DUP5 DUP3 DUP6 ADD PUSH2 0x4E42 JUMP JUMPDEST SWAP2 POP POP SWAP3 SWAP2 POP POP JUMP JUMPDEST PUSH32 0x57616C6C206E6F7420696E2067616C6C65727900000000000000000000000000 PUSH0 DUP3 ADD MSTORE POP JUMP JUMPDEST PUSH0 PUSH2 0x4FB6 PUSH1 0x13 DUP4 PUSH2 0x3F9F JUMP JUMPDEST SWAP2 POP PUSH2 0x4FC1 DUP3 PUSH2 0x4F82 JUMP JUMPDEST PUSH1 0x20 DUP3 ADD SWAP1 POP SWAP2 SWAP1 POP JUMP JUMPDEST PUSH0 PUSH1 0x20 DUP3 ADD SWAP1 POP DUP2 DUP2 SUB PUSH0 DUP4 ADD MSTORE PUSH2 0x4FE3 DUP2 PUSH2 0x4FAA JUMP JUMPDEST SWAP1 POP SWAP2 SWAP1 POP JUMP JUMPDEST PUSH0 DUP2 SWAP1 POP DUP2 PUSH0 MSTORE PUSH1 0x20 PUSH0 KECCAK256 SWAP1 POP SWAP2 SWAP1 POP JUMP JUMPDEST PUSH0 PUSH1 0x20 PUSH1 0x1F DUP4 ADD DIV SWAP1 POP SWAP2 SWAP1 POP JUMP JUMPDEST PUSH0 DUP3 DUP3 SHL SWAP1 POP SWAP3 SWAP2 POP POP JUMP JUMPDEST PUSH0 PUSH1 0x8 DUP4 MUL PUSH2 0x5046 PUSH32 0xFFFFFFFFFFFFFFFFFFFFFFFFFFFFFFFFFFFFFFFFFFFFFFFFFFFFFFFFFFFFFFFF DUP3 PUSH2 0x500B JUMP JUMPDEST PUSH2 0x5050 DUP7 DUP4 PUSH2 0x500B JUMP JUMPDEST SWAP6 POP DUP1 NOT DUP5 AND SWAP4 POP DUP1 DUP7 AND DUP5 OR SWAP3 POP POP POP SWAP4 SWAP3 POP POP POP JUMP JUMPDEST PUSH0 PUSH2 0x5082 PUSH2 0x507D PUSH2 0x5078 DUP5 PUSH2 0x4025 JUMP JUMPDEST PUSH2 0x3E5D JUMP JUMPDEST PUSH2 0x4025 JUMP JUMPDEST SWAP1 POP SWAP2 SWAP1 POP JUMP JUMPDEST PUSH0 DUP2 SWAP1 POP SWAP2 SWAP1 POP JUMP JUMPDEST PUSH2 0x509B DUP4 PUSH2 0x5068 JUMP JUMPDEST PUSH2 0x50AF PUSH2 0x50A7 DUP3 PUSH2 0x5089 JUMP JUMPDEST DUP5 DUP5 SLOAD PUSH2 0x5017 JUMP JUMPDEST DUP3 SSTORE POP POP POP POP JUMP JUMPDEST PUSH0 SWAP1 JUMP JUMPDEST PUSH2 0x50C3 PUSH2 0x50B7 JUMP JUMPDEST PUSH2 0x50CE DUP2 DUP5 DUP5 PUSH2 0x5092 JUMP JUMPDEST POP POP POP JUMP JUMPDEST JUMPDEST DUP2 DUP2 LT ISZERO PUSH2 0x50F1 JUMPI PUSH2 0x50E6 PUSH0 DUP3 PUSH2 0x50BB JUMP JUMPDEST PUSH1 0x1 DUP2 ADD SWAP1 POP PUSH2 0x50D4 JUMP JUMPDEST POP POP JUMP JUMPDEST PUSH1 0x1F DUP3 GT ISZERO PUSH2 0x5136 JUMPI PUSH2 0x5107 DUP2 PUSH2 0x4FEA JUMP JUMPDEST PUSH2 0x5110 DUP5 PUSH2 0x4FFC JUMP JUMPDEST DUP2 ADD PUSH1 0x20 DUP6 LT ISZERO PUSH2 0x511F JUMPI DUP2 SWAP1 POP JUMPDEST PUSH2 0x5133 PUSH2 0x512B DUP6 PUSH2 0x4FFC JUMP JUMPDEST DUP4 ADD DUP3 PUSH2 0x50D3 JUMP JUMPDEST POP POP JUMPDEST POP POP POP JUMP JUMPDEST PUSH0 DUP3 DUP3 SHR SWAP1 POP SWAP3 SWAP2 POP POP JUMP JUMPDEST PUSH0 PUSH2 0x5156 PUSH0 NOT DUP5 PUSH1 0x8 MUL PUSH2 0x513B JUMP JUMPDEST NOT DUP1 DUP4 AND SWAP2 POP POP SWAP3 SWAP2 POP POP JUMP JUMPDEST PUSH0 PUSH2 0x516E DUP4 DUP4 PUSH2 0x5147 JUMP JUMPDEST SWAP2 POP DUP3 PUSH1 0x2 MUL DUP3 OR SWAP1 POP SWAP3 SWAP2 POP POP JUMP JUMPDEST PUSH2 0x5187 DUP3 PUSH2 0x3F95 JUMP JUMPDEST PUSH8 0xFFFFFFFFFFFFFFFF DUP2 GT ISZERO PUSH2 0x51A0 JUMPI PUSH2 0x519F PUSH2 0x453E JUMP JUMPDEST JUMPDEST PUSH2 0x51AA DUP3 SLOAD PUSH2 0x47B3 JUMP JUMPDEST PUSH2 0x51B5 DUP3 DUP3 DUP6 PUSH2 0x50F5 JUMP JUMPDEST PUSH0 PUSH1 0x20 SWAP1 POP PUSH1 0x1F DUP4 GT PUSH1 0x1 DUP2 EQ PUSH2 0x51E6 JUMPI PUSH0 DUP5 ISZERO PUSH2 0x51D4 JUMPI DUP3 DUP8 ADD MLOAD SWAP1 POP JUMPDEST PUSH2 0x51DE DUP6 DUP3 PUSH2 0x5163 JUMP JUMPDEST DUP7 SSTORE POP PUSH2 0x5245 JUMP JUMPDEST PUSH1 0x1F NOT DUP5 AND PUSH2 0x51F4 DUP7 PUSH2 0x4FEA JUMP JUMPDEST PUSH0 JUMPDEST DUP3 DUP2 LT ISZERO PUSH2 0x521B JUMPI DUP5 DUP10 ADD MLOAD DUP3 SSTORE PUSH1 0x1 DUP3 ADD SWAP2 POP PUSH1 0x20 DUP6 ADD SWAP5 POP PUSH1 0x20 DUP2 ADD SWAP1 POP PUSH2 0x51F6 JUMP JUMPDEST DUP7 DUP4 LT ISZERO PUSH2 0x5238 JUMPI DUP5 DUP10 ADD MLOAD PUSH2 0x5234 PUSH1 0x1F DUP10 AND DUP3 PUSH2 0x5147 JUMP JUMPDEST DUP4 SSTORE POP JUMPDEST PUSH1 0x1 PUSH1 0x2 DUP9 MUL ADD DUP9 SSTORE POP POP POP JUMPDEST POP POP POP POP POP POP JUMP JUMPDEST PUSH0 PUSH2 0x100 DUP3 DUP5 SUB SLT ISZERO PUSH2 0x5263 JUMPI PUSH2 0x5262 PUSH2 0x4C64 JUMP JUMPDEST JUMPDEST PUSH2 0x526E PUSH2 0x100 PUSH2 0x459C JUMP JUMPDEST SWAP1 POP PUSH0 PUSH2 0x527D DUP5 DUP3 DUP6 ADD PUSH2 0x4C6C JUMP JUMPDEST PUSH0 DUP4 ADD MSTORE POP PUSH1 0x20 DUP3 ADD MLOAD PUSH8 0xFFFFFFFFFFFFFFFF DUP2 GT ISZERO PUSH2 0x52A0 JUMPI PUSH2 0x529F PUSH2 0x4C68 JUMP JUMPDEST JUMPDEST PUSH2 0x52AC DUP5 DUP3 DUP6 ADD PUSH2 0x4D05 JUMP JUMPDEST PUSH1 0x20 DUP4 ADD MSTORE POP PUSH1 0x40 DUP3 ADD MLOAD PUSH8 0xFFFFFFFFFFFFFFFF DUP2 GT ISZERO PUSH2 0x52D0 JUMPI PUSH2 0x52CF PUSH2 0x4C68 JUMP JUMPDEST JUMPDEST PUSH2 0x52DC DUP5 DUP3 DUP6 ADD PUSH2 0x4D05 JUMP JUMPDEST PUSH1 0x40 DUP4 ADD MSTORE POP PUSH1 0x60 PUSH2 0x52F0 DUP5 DUP3 DUP6 ADD PUSH2 0x4C80 JUMP JUMPDEST PUSH1 0x60 DUP4 ADD MSTORE POP PUSH1 0x80 PUSH2 0x5304 DUP5 DUP3 DUP6 ADD PUSH2 0x4C6C JUMP JUMPDEST PUSH1 0x80 DUP4 ADD MSTORE POP PUSH1 0xA0 PUSH2 0x5318 DUP5 DUP3 DUP6 ADD PUSH2 0x4877 JUMP JUMPDEST PUSH1 0xA0 DUP4 ADD MSTORE POP PUSH1 0xC0 PUSH2 0x532C DUP5 DUP3 DUP6 ADD PUSH2 0x4C6C JUMP JUMPDEST PUSH1 0xC0 DUP4 ADD MSTORE POP PUSH1 0xE0 PUSH2 0x5340 DUP5 DUP3 DUP6 ADD PUSH2 0x4C6C JUMP JUMPDEST PUSH1 0xE0 DUP4 ADD MSTORE POP SWAP3 SWAP2 POP POP JUMP JUMPDEST PUSH0 PUSH1 0x20 DUP3 DUP5 SUB SLT ISZERO PUSH2 0x5361 JUMPI PUSH2 0x5360 PUSH2 0x3EDA JUMP JUMPDEST JUMPDEST PUSH0 DUP3 ADD MLOAD PUSH8 0xFFFFFFFFFFFFFFFF DUP2 GT ISZERO PUSH2 0x537E JUMPI PUSH2 0x537D PUSH2 0x3EDE JUMP JUMPDEST JUMPDEST PUSH2 0x538A DUP5 DUP3 DUP6 ADD PUSH2 0x524D JUMP JUMPDEST SWAP2 POP POP SWAP3 SWAP2 POP POP JUMP JUMPDEST PUSH32 0x47616C6C657279206E6F74206163746976650000000000000000000000000000 PUSH0 DUP3 ADD MSTORE POP JUMP JUMPDEST PUSH0 PUSH2 0x53C7 PUSH1 0x12 DUP4 PUSH2 0x3F9F JUMP JUMPDEST SWAP2 POP PUSH2 0x53D2 DUP3 PUSH2 0x5393 JUMP JUMPDEST PUSH1 0x20 DUP3 ADD SWAP1 POP SWAP2 SWAP1 POP JUMP JUMPDEST PUSH0 PUSH1 0x20 DUP3 ADD SWAP1 POP DUP2 DUP2 SUB PUSH0 DUP4 ADD MSTORE PUSH2 0x53F4 DUP2 PUSH2 0x53BB JUMP JUMPDEST SWAP1 POP SWAP2 SWAP1 POP JUMP JUMPDEST PUSH32 0x4E6F742067616C6C657279206F776E6572000000000000000000000000000000 PUSH0 DUP3 ADD MSTORE POP JUMP JUMPDEST PUSH0 PUSH2 0x542F PUSH1 0x11 DUP4 PUSH2 0x3F9F JUMP JUMPDEST SWAP2 POP PUSH2 0x543A DUP3 PUSH2 0x53FB JUMP JUMPDEST PUSH1 0x20 DUP3 ADD SWAP1 POP SWAP2 SWAP1 POP JUMP JUMPDEST PUSH0 PUSH1 0x20 DUP3 ADD SWAP1 POP DUP2 DUP2 SUB PUSH0 DUP4 ADD MSTORE PUSH2 0x545C DUP2 PUSH2 0x5423 JUMP JUMPDEST SWAP1 POP SWAP2 SWAP1 POP JUMP JUMPDEST PUSH32 0x496E76616C696420737461747573000000000000000000000000000000000000 PUSH0 DUP3 ADD MSTORE POP JUMP JUMPDEST PUSH0 PUSH2 0x5497 PUSH1 0xE DUP4 PUSH2 0x3F9F JUMP JUMPDEST SWAP2 POP PUSH2 0x54A2 DUP3 PUSH2 0x5463 JUMP JUMPDEST PUSH1 0x20 DUP3 ADD SWAP1 POP SWAP2 SWAP1 POP JUMP JUMPDEST PUSH0 PUSH1 0x20 DUP3 ADD SWAP1 POP DUP2 DUP2 SUB PUSH0 DUP4 ADD MSTORE PUSH2 0x54C4 DUP2 PUSH2 0x548B JUMP JUMPDEST SWAP1 POP SWAP2 SWAP1 POP JUMP JUMPDEST PUSH0 DUP2 SWAP1 POP SWAP3 SWAP2 POP POP JUMP JUMPDEST PUSH0 PUSH2 0x54DF DUP3 PUSH2 0x3F95 JUMP JUMPDEST PUSH2 0x54E9 DUP2 DUP6 PUSH2 0x54CB JUMP JUMPDEST SWAP4 POP PUSH2 0x54F9 DUP2 DUP6 PUSH1 0x20 DUP7 ADD PUSH2 0x3FAF JUMP JUMPDEST DUP1 DUP5 ADD SWAP2 POP POP SWAP3 SWAP2 POP POP JUMP JUMPDEST PUSH0 PUSH2 0x5510 DUP3 DUP6 PUSH2 0x54D5 JUMP JUMPDEST SWAP2 POP PUSH2 0x551C DUP3 DUP5 PUSH2 0x54D5 JUMP JUMPDEST SWAP2 POP DUP2 SWAP1 POP SWAP4 SWAP3 POP POP POP JUMP JUMPDEST PUSH32 0x4E6F7420636F6D706C6574656400000000000000000000000000000000000000 PUSH0 DUP3 ADD MSTORE POP JUMP JUMPDEST PUSH0 PUSH2 0x555C PUSH1 0xD DUP4 PUSH2 0x3F9F JUMP JUMPDEST SWAP2 POP PUSH2 0x5567 DUP3 PUSH2 0x5528 JUMP JUMPDEST PUSH1 0x20 DUP3 ADD SWAP1 POP SWAP2 SWAP1 POP JUMP JUMPDEST PUSH0 PUSH1 0x20 DUP3 ADD SWAP1 POP DUP2 DUP2 SUB PUSH0 DUP4 ADD MSTORE PUSH2 0x5589 DUP2 PUSH2 0x5550 JUMP JUMPDEST SWAP1 POP SWAP2 SWAP1 POP JUMP JUMPDEST PUSH32 0x5061757361626C653A2070617573656400000000000000000000000000000000 PUSH0 DUP3 ADD MSTORE POP JUMP JUMPDEST PUSH0 PUSH2 0x55C4 PUSH1 0x10 DUP4 PUSH2 0x3F9F JUMP JUMPDEST SWAP2 POP PUSH2 0x55CF DUP3 PUSH2 0x5590 JUMP JUMPDEST PUSH1 0x20 DUP3 ADD SWAP1 POP SWAP2 SWAP1 POP JUMP JUMPDEST PUSH0 PUSH1 0x20 DUP3 ADD SWAP1 POP DUP2 DUP2 SUB PUSH0 DUP4 ADD MSTORE PUSH2 0x55F1 DUP2 PUSH2 0x55B8 JUMP JUMPDEST SWAP1 POP SWAP2 SWAP1 POP JUMP JUMPDEST PUSH0 PUSH2 0x5602 DUP3 PUSH2 0x4025 JUMP JUMPDEST SWAP2 POP PUSH2 0x560D DUP4 PUSH2 0x4025 JUMP JUMPDEST SWAP3 POP DUP3 DUP3 SUB SWAP1 POP DUP2 DUP2 GT ISZERO PUSH2 0x5625 JUMPI PUSH2 0x5624 PUSH2 0x49EE JUMP JUMPDEST JUMPDEST SWAP3 SWAP2 POP POP JUMP JUMPDEST PUSH32 0x4E487B7100000000000000000000000000000000000000000000000000000000 PUSH0 MSTORE PUSH1 0x31 PUSH1 0x4 MSTORE PUSH1 0x24 PUSH0 REVERT JUMPDEST PUSH0 DUP2 MLOAD SWAP1 POP SWAP2 SWAP1 POP JUMP JUMPDEST PUSH0 DUP3 DUP3 MSTORE PUSH1 0x20 DUP3 ADD SWAP1 POP SWAP3 SWAP2 POP POP JUMP JUMPDEST PUSH0 PUSH2 0x567C DUP3 PUSH2 0x5658 JUMP JUMPDEST PUSH2 0x5686 DUP2 DUP6 PUSH2 0x5662 JUMP JUMPDEST SWAP4 POP PUSH2 0x5696 DUP2 DUP6 PUSH1 0x20 DUP7 ADD PUSH2 0x3FAF JUMP JUMPDEST PUSH2 0x569F DUP2 PUSH2 0x3FBD JUMP JUMPDEST DUP5 ADD SWAP2 POP POP SWAP3 SWAP2 POP POP JUMP JUMPDEST PUSH0 PUSH1 0x80 DUP3 ADD SWAP1 POP PUSH2 0x56BD PUSH0 DUP4 ADD DUP8 PUSH2 0x4094 JUMP JUMPDEST PUSH2 0x56CA PUSH1 0x20 DUP4 ADD DUP7 PUSH2 0x4094 JUMP JUMPDEST PUSH2 0x56D7 PUSH1 0x40 DUP4 ADD DUP6 PUSH2 0x4334 JUMP JUMPDEST DUP2 DUP2 SUB PUSH1 0x60 DUP4 ADD MSTORE PUSH2 0x56E9 DUP2 DUP5 PUSH2 0x5672 JUMP JUMPDEST SWAP1 POP SWAP6 SWAP5 POP POP POP POP POP JUMP JUMPDEST PUSH0 DUP2 MLOAD SWAP1 POP PUSH2 0x5702 DUP2 PUSH2 0x3F0D JUMP JUMPDEST SWAP3 SWAP2 POP POP JUMP JUMPDEST PUSH0 PUSH1 0x20 DUP3 DUP5 SUB SLT ISZERO PUSH2 0x571D JUMPI PUSH2 0x571C PUSH2 0x3EDA JUMP JUMPDEST JUMPDEST PUSH0 PUSH2 0x572A DUP5 DUP3 DUP6 ADD PUSH2 0x56F4 JUMP JUMPDEST SWAP2 POP POP SWAP3 SWAP2 POP POP JUMP JUMPDEST PUSH32 0x4E487B7100000000000000000000000000000000000000000000000000000000 PUSH0 MSTORE PUSH1 0x12 PUSH1 0x4 MSTORE PUSH1 0x24 PUSH0 REVERT JUMPDEST PUSH32 0x536861726573206D696E74656400000000000000000000000000000000000000 PUSH0 DUP3 ADD MSTORE POP JUMP JUMPDEST PUSH0 PUSH2 0x5794 PUSH1 0xD DUP4 PUSH2 0x3F9F JUMP JUMPDEST SWAP2 POP PUSH2 0x579F DUP3 PUSH2 0x5760 JUMP JUMPDEST PUSH1 0x20 DUP3 ADD SWAP1 POP SWAP2 SWAP1 POP JUMP JUMPDEST PUSH0 PUSH1 0x20 DUP3 ADD SWAP1 POP DUP2 DUP2 SUB PUSH0 DUP4 ADD MSTORE PUSH2 0x57C1 DUP2 PUSH2 0x5788 JUMP JUMPDEST SWAP1 POP SWAP2 SWAP1 POP JUMP JUMPDEST PUSH0 PUSH1 0x20 DUP3 DUP5 SUB SLT ISZERO PUSH2 0x57DD JUMPI PUSH2 0x57DC PUSH2 0x3EDA JUMP JUMPDEST JUMPDEST PUSH0 PUSH2 0x57EA DUP5 DUP3 DUP6 ADD PUSH2 0x4C6C JUMP JUMPDEST SWAP2 POP POP SWAP3 SWAP2 POP POP JUMP JUMPDEST PUSH0 PUSH2 0x57FD DUP3 PUSH2 0x4025 JUMP JUMPDEST SWAP2 POP PUSH2 0x5808 DUP4 PUSH2 0x4025 JUMP JUMPDEST SWAP3 POP DUP3 DUP3 ADD SWAP1 POP DUP1 DUP3 GT ISZERO PUSH2 0x5820 JUMPI PUSH2 0x581F PUSH2 0x49EE JUMP JUMPDEST JUMPDEST SWAP3 SWAP2 POP POP JUMP JUMPDEST PUSH32 0x4578636565647320313030250000000000000000000000000000000000000000 PUSH0 DUP3 ADD MSTORE POP JUMP JUMPDEST PUSH0 PUSH2 0x585A PUSH1 0xC DUP4 PUSH2 0x3F9F JUMP JUMPDEST SWAP2 POP PUSH2 0x5865 DUP3 PUSH2 0x5826 JUMP JUMPDEST PUSH1 0x20 DUP3 ADD SWAP1 POP SWAP2 SWAP1 POP JUMP JUMPDEST PUSH0 PUSH1 0x20 DUP3 ADD SWAP1 POP DUP2 DUP2 SUB PUSH0 DUP4 ADD MSTORE PUSH2 0x5887 DUP2 PUSH2 0x584E JUMP JUMPDEST SWAP1 POP SWAP2 SWAP1 POP JUMP JUMPDEST PUSH0 PUSH2 0x100 DUP3 ADD SWAP1 POP PUSH2 0x58A2 PUSH0 DUP4 ADD DUP12 PUSH2 0x4334 JUMP JUMPDEST PUSH2 0x58AF PUSH1 0x20 DUP4 ADD DUP11 PUSH2 0x4094 JUMP JUMPDEST PUSH2 0x58BC PUSH1 0x40 DUP4 ADD DUP10 PUSH2 0x4094 JUMP JUMPDEST PUSH2 0x58C9 PUSH1 0x60 DUP4 ADD DUP9 PUSH2 0x4094 JUMP JUMPDEST PUSH2 0x58D6 PUSH1 0x80 DUP4 ADD DUP8 PUSH2 0x4094 JUMP JUMPDEST PUSH2 0x58E3 PUSH1 0xA0 DUP4 ADD DUP7 PUSH2 0x4334 JUMP JUMPDEST PUSH2 0x58F0 PUSH1 0xC0 DUP4 ADD DUP6 PUSH2 0x4334 JUMP JUMPDEST PUSH2 0x58FD PUSH1 0xE0 DUP4 ADD DUP5 PUSH2 0x4334 JUMP JUMPDEST SWAP10 SWAP9 POP POP POP POP POP POP POP POP POP JUMP JUMPDEST PUSH0 PUSH1 0x40 DUP3 ADD SWAP1 POP PUSH2 0x591D PUSH0 DUP4 ADD DUP6 PUSH2 0x4094 JUMP JUMPDEST PUSH2 0x592A PUSH1 0x20 DUP4 ADD DUP5 PUSH2 0x4334 JUMP JUMPDEST SWAP4 SWAP3 POP POP POP JUMP JUMPDEST PUSH32 0x5061757361626C653A206E6F7420706175736564000000000000000000000000 PUSH0 DUP3 ADD MSTORE POP JUMP JUMPDEST PUSH0 PUSH2 0x5965 PUSH1 0x14 DUP4 PUSH2 0x3F9F JUMP JUMPDEST SWAP2 POP PUSH2 0x5970 DUP3 PUSH2 0x5931 JUMP JUMPDEST PUSH1 0x20 DUP3 ADD SWAP1 POP SWAP2 SWAP1 POP JUMP JUMPDEST PUSH0 PUSH1 0x20 DUP3 ADD SWAP1 POP DUP2 DUP2 SUB PUSH0 DUP4 ADD MSTORE PUSH2 0x5992 DUP2 PUSH2 0x5959 JUMP JUMPDEST SWAP1 POP SWAP2 SWAP1 POP JUMP INVALID LOG2 PUSH5 0x6970667358 0x22 SLT KECCAK256 STOP DUP8 PUSH11 0x897427B56423FF441BB3D1 EQ PUSH32 0x843EFBAC90490CAA91E61AA653540CD264736F6C634300081A00330000000000 "
		},
		"gasEstimates": {
			"creation": {
				"codeDepositCost": "4598200",
				"executionCost": "infinite",
				"totalCost": "infinite"
			},
			"external": {
				"approve(address,uint256)": "infinite",
				"approvePaintingRequest(uint256)": "infinite",
				"balanceOf(address)": "infinite",
				"finalizePainting(uint256)": "infinite",
				"galleryContract()": "infinite",
				"getApproved(uint256)": "infinite",
				"isApprovedForAll(address,address)": "infinite",
				"name()": "infinite",
				"ownerOf(uint256)": "infinite",
				"painterAcceptedRequests(address)": "infinite",
				"painterPendingRequests(address)": "infinite",
				"paintingRequests(uint256)": "infinite",
				"paintingShares()": "infinite",
				"paintings(uint256)": "infinite",
				"pause()": "infinite",
				"paused()": "2518",
				"rejectPaintingRequest(uint256)": "infinite",
				"requestPainting(uint256,string)": "infinite",
				"roleManager()": "infinite",
				"safeTransferFrom(address,address,uint256)": "infinite",
				"safeTransferFrom(address,address,uint256,bytes)": "infinite",
				"setApprovalForAll(address,bool)": "infinite",
				"submitPaintingCompletion(uint256)": "infinite",
				"supportsInterface(bytes4)": "832",
				"symbol()": "infinite",
				"tokenURI(uint256)": "infinite",
				"transferFrom(address,address,uint256)": "infinite",
				"unpause()": "infinite",
				"wallContract()": "infinite",
				"wallPainted(uint256)": "2829",
				"wallPaintingPendingRequests(uint256)": "infinite",
				"wallPaintingPendingSubmits()": "infinite"
			},
			"internal": {
				"_createShares(uint256,uint256,address)": "infinite",
				"_removeFromArray(uint256[] storage pointer,uint256)": "infinite"
			}
		},
		"methodIdentifiers": {
			"approve(address,uint256)": "095ea7b3",
			"approvePaintingRequest(uint256)": "8085be02",
			"balanceOf(address)": "70a08231",
			"finalizePainting(uint256)": "eb1b1e71",
			"galleryContract()": "71d24b70",
			"getApproved(uint256)": "081812fc",
			"isApprovedForAll(address,address)": "e985e9c5",
			"name()": "06fdde03",
			"ownerOf(uint256)": "6352211e",
			"painterAcceptedRequests(address)": "08e9c7d7",
			"painterPendingRequests(address)": "89814b9c",
			"paintingRequests(uint256)": "a245e7ff",
			"paintingShares()": "7eb4ecb4",
			"paintings(uint256)": "c7ca6daa",
			"pause()": "8456cb59",
			"paused()": "5c975abb",
			"rejectPaintingRequest(uint256)": "e38da54b",
			"requestPainting(uint256,string)": "41bc8b64",
			"roleManager()": "00435da5",
			"safeTransferFrom(address,address,uint256)": "42842e0e",
			"safeTransferFrom(address,address,uint256,bytes)": "b88d4fde",
			"setApprovalForAll(address,bool)": "a22cb465",
			"submitPaintingCompletion(uint256)": "072e91d9",
			"supportsInterface(bytes4)": "01ffc9a7",
			"symbol()": "95d89b41",
			"tokenURI(uint256)": "c87b56dd",
			"transferFrom(address,address,uint256)": "23b872dd",
			"unpause()": "3f4ba83a",
			"wallContract()": "aad53a84",
			"wallPainted(uint256)": "e1f4ab5f",
			"wallPaintingPendingRequests(uint256)": "5398cb14",
			"wallPaintingPendingSubmits()": "d815e65f"
		}
	},
	"abi": [
		{
			"inputs": [
				{
					"internalType": "address",
					"name": "_roleManager",
					"type": "address"
				},
				{
					"internalType": "address",
					"name": "_wallContract",
					"type": "address"
				},
				{
					"internalType": "address",
					"name": "_galleryContract",
					"type": "address"
				},
				{
					"internalType": "address",
					"name": "_paintingShares",
					"type": "address"
				}
			],
			"stateMutability": "nonpayable",
			"type": "constructor"
		},
		{
			"inputs": [
				{
					"internalType": "address",
					"name": "sender",
					"type": "address"
				},
				{
					"internalType": "uint256",
					"name": "tokenId",
					"type": "uint256"
				},
				{
					"internalType": "address",
					"name": "owner",
					"type": "address"
				}
			],
			"name": "ERC721IncorrectOwner",
			"type": "error"
		},
		{
			"inputs": [
				{
					"internalType": "address",
					"name": "operator",
					"type": "address"
				},
				{
					"internalType": "uint256",
					"name": "tokenId",
					"type": "uint256"
				}
			],
			"name": "ERC721InsufficientApproval",
			"type": "error"
		},
		{
			"inputs": [
				{
					"internalType": "address",
					"name": "approver",
					"type": "address"
				}
			],
			"name": "ERC721InvalidApprover",
			"type": "error"
		},
		{
			"inputs": [
				{
					"internalType": "address",
					"name": "operator",
					"type": "address"
				}
			],
			"name": "ERC721InvalidOperator",
			"type": "error"
		},
		{
			"inputs": [
				{
					"internalType": "address",
					"name": "owner",
					"type": "address"
				}
			],
			"name": "ERC721InvalidOwner",
			"type": "error"
		},
		{
			"inputs": [
				{
					"internalType": "address",
					"name": "receiver",
					"type": "address"
				}
			],
			"name": "ERC721InvalidReceiver",
			"type": "error"
		},
		{
			"inputs": [
				{
					"internalType": "address",
					"name": "sender",
					"type": "address"
				}
			],
			"name": "ERC721InvalidSender",
			"type": "error"
		},
		{
			"inputs": [
				{
					"internalType": "uint256",
					"name": "tokenId",
					"type": "uint256"
				}
			],
			"name": "ERC721NonexistentToken",
			"type": "error"
		},
		{
			"anonymous": false,
			"inputs": [
				{
					"indexed": true,
					"internalType": "address",
					"name": "owner",
					"type": "address"
				},
				{
					"indexed": true,
					"internalType": "address",
					"name": "approved",
					"type": "address"
				},
				{
					"indexed": true,
					"internalType": "uint256",
					"name": "tokenId",
					"type": "uint256"
				}
			],
			"name": "Approval",
			"type": "event"
		},
		{
			"anonymous": false,
			"inputs": [
				{
					"indexed": true,
					"internalType": "address",
					"name": "owner",
					"type": "address"
				},
				{
					"indexed": true,
					"internalType": "address",
					"name": "operator",
					"type": "address"
				},
				{
					"indexed": false,
					"internalType": "bool",
					"name": "approved",
					"type": "bool"
				}
			],
			"name": "ApprovalForAll",
			"type": "event"
		},
		{
			"anonymous": false,
			"inputs": [
				{
					"indexed": true,
					"internalType": "uint256",
					"name": "paintingId",
					"type": "uint256"
				},
				{
					"indexed": true,
					"internalType": "uint256",
					"name": "wallId",
					"type": "uint256"
				}
			],
			"name": "PaintingCompleted",
			"type": "event"
		},
		{
			"anonymous": false,
			"inputs": [
				{
					"indexed": true,
					"internalType": "uint256",
					"name": "wallId",
					"type": "uint256"
				},
				{
					"indexed": true,
					"internalType": "address",
					"name": "painter",
					"type": "address"
				}
			],
			"name": "PaintingRequestApproved",
			"type": "event"
		},
		{
			"anonymous": false,
			"inputs": [
				{
					"indexed": true,
					"internalType": "uint256",
					"name": "wallId",
					"type": "uint256"
				},
				{
					"indexed": true,
					"internalType": "address",
					"name": "painter",
					"type": "address"
				}
			],
			"name": "PaintingRequestRejected",
			"type": "event"
		},
		{
			"anonymous": false,
			"inputs": [
				{
					"indexed": true,
					"internalType": "uint256",
					"name": "wallId",
					"type": "uint256"
				},
				{
					"indexed": true,
					"internalType": "address",
					"name": "painter",
					"type": "address"
				}
			],
			"name": "PaintingRequested",
			"type": "event"
		},
		{
			"anonymous": false,
			"inputs": [
				{
					"indexed": false,
					"internalType": "address",
					"name": "account",
					"type": "address"
				}
			],
			"name": "Paused",
			"type": "event"
		},
		{
			"anonymous": false,
			"inputs": [
				{
					"indexed": true,
					"internalType": "uint256",
					"name": "paintingId",
					"type": "uint256"
				}
			],
			"name": "SharesCreated",
			"type": "event"
		},
		{
			"anonymous": false,
			"inputs": [
				{
					"indexed": true,
					"internalType": "address",
					"name": "from",
					"type": "address"
				},
				{
					"indexed": true,
					"internalType": "address",
					"name": "to",
					"type": "address"
				},
				{
					"indexed": true,
					"internalType": "uint256",
					"name": "tokenId",
					"type": "uint256"
				}
			],
			"name": "Transfer",
			"type": "event"
		},
		{
			"anonymous": false,
			"inputs": [
				{
					"indexed": false,
					"internalType": "address",
					"name": "account",
					"type": "address"
				}
			],
			"name": "Unpaused",
			"type": "event"
		},
		{
			"inputs": [
				{
					"internalType": "address",
					"name": "to",
					"type": "address"
				},
				{
					"internalType": "uint256",
					"name": "tokenId",
					"type": "uint256"
				}
			],
			"name": "approve",
			"outputs": [],
			"stateMutability": "nonpayable",
			"type": "function"
		},
		{
			"inputs": [
				{
					"internalType": "uint256",
					"name": "wallId",
					"type": "uint256"
				}
			],
			"name": "approvePaintingRequest",
			"outputs": [],
			"stateMutability": "nonpayable",
			"type": "function"
		},
		{
			"inputs": [
				{
					"internalType": "address",
					"name": "owner",
					"type": "address"
				}
			],
			"name": "balanceOf",
			"outputs": [
				{
					"internalType": "uint256",
					"name": "",
					"type": "uint256"
				}
			],
			"stateMutability": "view",
			"type": "function"
		},
		{
			"inputs": [
				{
					"internalType": "uint256",
					"name": "wallId",
					"type": "uint256"
				}
			],
			"name": "finalizePainting",
			"outputs": [],
			"stateMutability": "nonpayable",
			"type": "function"
		},
		{
			"inputs": [],
			"name": "galleryContract",
			"outputs": [
				{
					"internalType": "contract IGallery",
					"name": "",
					"type": "address"
				}
			],
			"stateMutability": "view",
			"type": "function"
		},
		{
			"inputs": [
				{
					"internalType": "uint256",
					"name": "tokenId",
					"type": "uint256"
				}
			],
			"name": "getApproved",
			"outputs": [
				{
					"internalType": "address",
					"name": "",
					"type": "address"
				}
			],
			"stateMutability": "view",
			"type": "function"
		},
		{
			"inputs": [
				{
					"internalType": "address",
					"name": "owner",
					"type": "address"
				},
				{
					"internalType": "address",
					"name": "operator",
					"type": "address"
				}
			],
			"name": "isApprovedForAll",
			"outputs": [
				{
					"internalType": "bool",
					"name": "",
					"type": "bool"
				}
			],
			"stateMutability": "view",
			"type": "function"
		},
		{
			"inputs": [],
			"name": "name",
			"outputs": [
				{
					"internalType": "string",
					"name": "",
					"type": "string"
				}
			],
			"stateMutability": "view",
			"type": "function"
		},
		{
			"inputs": [
				{
					"internalType": "uint256",
					"name": "tokenId",
					"type": "uint256"
				}
			],
			"name": "ownerOf",
			"outputs": [
				{
					"internalType": "address",
					"name": "",
					"type": "address"
				}
			],
			"stateMutability": "view",
			"type": "function"
		},
		{
			"inputs": [
				{
					"internalType": "address",
					"name": "painter",
					"type": "address"
				}
			],
			"name": "painterAcceptedRequests",
			"outputs": [
				{
					"internalType": "uint256[]",
					"name": "",
					"type": "uint256[]"
				}
			],
			"stateMutability": "view",
			"type": "function"
		},
		{
			"inputs": [
				{
					"internalType": "address",
					"name": "painter",
					"type": "address"
				}
			],
			"name": "painterPendingRequests",
			"outputs": [
				{
					"internalType": "uint256[]",
					"name": "wallIds",
					"type": "uint256[]"
				}
			],
			"stateMutability": "view",
			"type": "function"
		},
		{
			"inputs": [
				{
					"internalType": "uint256",
					"name": "",
					"type": "uint256"
				}
			],
			"name": "paintingRequests",
			"outputs": [
				{
					"internalType": "uint256",
					"name": "wallId",
					"type": "uint256"
				},
				{
					"internalType": "address",
					"name": "painter",
					"type": "address"
				},
				{
					"internalType": "string",
					"name": "description",
					"type": "string"
				},
				{
					"internalType": "enum PaintingNFT.PaintingStatus",
					"name": "status",
					"type": "uint8"
				},
				{
					"internalType": "uint256",
					"name": "timestamp",
					"type": "uint256"
				}
			],
			"stateMutability": "view",
			"type": "function"
		},
		{
			"inputs": [],
			"name": "paintingShares",
			"outputs": [
				{
					"internalType": "contract IPaintingShares",
					"name": "",
					"type": "address"
				}
			],
			"stateMutability": "view",
			"type": "function"
		},
		{
			"inputs": [
				{
					"internalType": "uint256",
					"name": "",
					"type": "uint256"
				}
			],
			"name": "paintings",
			"outputs": [
				{
					"internalType": "uint256",
					"name": "id",
					"type": "uint256"
				},
				{
					"internalType": "uint256",
					"name": "wallId",
					"type": "uint256"
				},
				{
					"internalType": "address",
					"name": "painter",
					"type": "address"
				},
				{
					"internalType": "string",
					"name": "description",
					"type": "string"
				},
				{
					"internalType": "bool",
					"name": "sharesMinted",
					"type": "bool"
				},
				{
					"internalType": "uint256",
					"name": "createdAt",
					"type": "uint256"
				}
			],
			"stateMutability": "view",
			"type": "function"
		},
		{
			"inputs": [],
			"name": "pause",
			"outputs": [],
			"stateMutability": "nonpayable",
			"type": "function"
		},
		{
			"inputs": [],
			"name": "paused",
			"outputs": [
				{
					"internalType": "bool",
					"name": "",
					"type": "bool"
				}
			],
			"stateMutability": "view",
			"type": "function"
		},
		{
			"inputs": [
				{
					"internalType": "uint256",
					"name": "wallId",
					"type": "uint256"
				}
			],
			"name": "rejectPaintingRequest",
			"outputs": [],
			"stateMutability": "nonpayable",
			"type": "function"
		},
		{
			"inputs": [
				{
					"internalType": "uint256",
					"name": "wallId",
					"type": "uint256"
				},
				{
					"internalType": "string",
					"name": "description",
					"type": "string"
				}
			],
			"name": "requestPainting",
			"outputs": [],
			"stateMutability": "nonpayable",
			"type": "function"
		},
		{
			"inputs": [],
			"name": "roleManager",
			"outputs": [
				{
					"internalType": "contract IRoleManager",
					"name": "",
					"type": "address"
				}
			],
			"stateMutability": "view",
			"type": "function"
		},
		{
			"inputs": [
				{
					"internalType": "address",
					"name": "from",
					"type": "address"
				},
				{
					"internalType": "address",
					"name": "to",
					"type": "address"
				},
				{
					"internalType": "uint256",
					"name": "tokenId",
					"type": "uint256"
				}
			],
			"name": "safeTransferFrom",
			"outputs": [],
			"stateMutability": "nonpayable",
			"type": "function"
		},
		{
			"inputs": [
				{
					"internalType": "address",
					"name": "from",
					"type": "address"
				},
				{
					"internalType": "address",
					"name": "to",
					"type": "address"
				},
				{
					"internalType": "uint256",
					"name": "tokenId",
					"type": "uint256"
				},
				{
					"internalType": "bytes",
					"name": "data",
					"type": "bytes"
				}
			],
			"name": "safeTransferFrom",
			"outputs": [],
			"stateMutability": "nonpayable",
			"type": "function"
		},
		{
			"inputs": [
				{
					"internalType": "address",
					"name": "operator",
					"type": "address"
				},
				{
					"internalType": "bool",
					"name": "approved",
					"type": "bool"
				}
			],
			"name": "setApprovalForAll",
			"outputs": [],
			"stateMutability": "nonpayable",
			"type": "function"
		},
		{
			"inputs": [
				{
					"internalType": "uint256",
					"name": "wallId",
					"type": "uint256"
				}
			],
			"name": "submitPaintingCompletion",
			"outputs": [],
			"stateMutability": "nonpayable",
			"type": "function"
		},
		{
			"inputs": [
				{
					"internalType": "bytes4",
					"name": "interfaceId",
					"type": "bytes4"
				}
			],
			"name": "supportsInterface",
			"outputs": [
				{
					"internalType": "bool",
					"name": "",
					"type": "bool"
				}
			],
			"stateMutability": "view",
			"type": "function"
		},
		{
			"inputs": [],
			"name": "symbol",
			"outputs": [
				{
					"internalType": "string",
					"name": "",
					"type": "string"
				}
			],
			"stateMutability": "view",
			"type": "function"
		},
		{
			"inputs": [
				{
					"internalType": "uint256",
					"name": "tokenId",
					"type": "uint256"
				}
			],
			"name": "tokenURI",
			"outputs": [
				{
					"internalType": "string",
					"name": "",
					"type": "string"
				}
			],
			"stateMutability": "view",
			"type": "function"
		},
		{
			"inputs": [
				{
					"internalType": "address",
					"name": "from",
					"type": "address"
				},
				{
					"internalType": "address",
					"name": "to",
					"type": "address"
				},
				{
					"internalType": "uint256",
					"name": "tokenId",
					"type": "uint256"
				}
			],
			"name": "transferFrom",
			"outputs": [],
			"stateMutability": "nonpayable",
			"type": "function"
		},
		{
			"inputs": [],
			"name": "unpause",
			"outputs": [],
			"stateMutability": "nonpayable",
			"type": "function"
		},
		{
			"inputs": [],
			"name": "wallContract",
			"outputs": [
				{
					"internalType": "contract IWall",
					"name": "",
					"type": "address"
				}
			],
			"stateMutability": "view",
			"type": "function"
		},
		{
			"inputs": [
				{
					"internalType": "uint256",
					"name": "",
					"type": "uint256"
				}
			],
			"name": "wallPainted",
			"outputs": [
				{
					"internalType": "bool",
					"name": "",
					"type": "bool"
				}
			],
			"stateMutability": "view",
			"type": "function"
		},
		{
			"inputs": [
				{
					"internalType": "uint256",
					"name": "wallId",
					"type": "uint256"
				}
			],
			"name": "wallPaintingPendingRequests",
			"outputs": [
				{
					"internalType": "uint256[]",
					"name": "requestIds",
					"type": "uint256[]"
				}
			],
			"stateMutability": "view",
			"type": "function"
		},
		{
			"inputs": [],
			"name": "wallPaintingPendingSubmits",
			"outputs": [
				{
					"internalType": "uint256[]",
					"name": "",
					"type": "uint256[]"
				}
			],
			"stateMutability": "view",
			"type": "function"
		}
	]
}