{
	"data": {
		"bytecode": {
			"linkReferences": {},
			"object": "610100604052348015610010575f80fd5b50604051616060380380616060833981810160405281019061003291906103c7565b6040518060400160405280600d81526020017f57616c6c205061696e74696e67000000000000000000000000000000000000008152506040518060400160405280600681526020017f575041494e540000000000000000000000000000000000000000000000000000815250815f90816100ac9190610665565b5080600190816100bc9190610665565b5050505f60065f6101000a81548160ff0219169083151502179055505f73ffffffffffffffffffffffffffffffffffffffff168473ffffffffffffffffffffffffffffffffffffffff1603610146576040517f08c379a000000000000000000000000000000000000000000000000000000000815260040161013d9061078e565b60405180910390fd5b5f73ffffffffffffffffffffffffffffffffffffffff168373ffffffffffffffffffffffffffffffffffffffff16036101b4576040517f08c379a00000000000000000000000000000000000000000000000000000000081526004016101ab906107f6565b60405180910390fd5b5f73ffffffffffffffffffffffffffffffffffffffff168273ffffffffffffffffffffffffffffffffffffffff1603610222576040517f08c379a00000000000000000000000000000000000000000000000000000000081526004016102199061085e565b60405180910390fd5b5f73ffffffffffffffffffffffffffffffffffffffff168173ffffffffffffffffffffffffffffffffffffffff1603610290576040517f08c379a0000000000000000000000000000000000000000000000000000000008152600401610287906108c6565b60405180910390fd5b8373ffffffffffffffffffffffffffffffffffffffff1660808173ffffffffffffffffffffffffffffffffffffffff16815250508273ffffffffffffffffffffffffffffffffffffffff1660a08173ffffffffffffffffffffffffffffffffffffffff16815250508173ffffffffffffffffffffffffffffffffffffffff1660c08173ffffffffffffffffffffffffffffffffffffffff16815250508073ffffffffffffffffffffffffffffffffffffffff1660e08173ffffffffffffffffffffffffffffffffffffffff1681525050505050506108e4565b5f80fd5b5f73ffffffffffffffffffffffffffffffffffffffff82169050919050565b5f6103968261036d565b9050919050565b6103a68161038c565b81146103b0575f80fd5b50565b5f815190506103c18161039d565b92915050565b5f805f80608085870312156103df576103de610369565b5b5f6103ec878288016103b3565b94505060206103fd878288016103b3565b935050604061040e878288016103b3565b925050606061041f878288016103b3565b91505092959194509250565b5f81519050919050565b7f4e487b71000000000000000000000000000000000000000000000000000000005f52604160045260245ffd5b7f4e487b71000000000000000000000000000000000000000000000000000000005f52602260045260245ffd5b5f60028204905060018216806104a657607f821691505b6020821081036104b9576104b8610462565b5b50919050565b5f819050815f5260205f209050919050565b5f6020601f8301049050919050565b5f82821b905092915050565b5f6008830261051b7fffffffffffffffffffffffffffffffffffffffffffffffffffffffffffffffff826104e0565b61052586836104e0565b95508019841693508086168417925050509392505050565b5f819050919050565b5f819050919050565b5f61056961056461055f8461053d565b610546565b61053d565b9050919050565b5f819050919050565b6105828361054f565b61059661058e82610570565b8484546104ec565b825550505050565b5f90565b6105aa61059e565b6105b5818484610579565b505050565b5b818110156105d8576105cd5f826105a2565b6001810190506105bb565b5050565b601f82111561061d576105ee816104bf565b6105f7846104d1565b81016020851015610606578190505b61061a610612856104d1565b8301826105ba565b50505b505050565b5f82821c905092915050565b5f61063d5f1984600802610622565b1980831691505092915050565b5f610655838361062e565b9150826002028217905092915050565b61066e8261042b565b67ffffffffffffffff81111561068757610686610435565b5b610691825461048f565b61069c8282856105dc565b5f60209050601f8311600181146106cd575f84156106bb578287015190505b6106c5858261064a565b86555061072c565b601f1984166106db866104bf565b5f5b82811015610702578489015182556001820191506020850194506020810190506106dd565b8683101561071f578489015161071b601f89168261062e565b8355505b6001600288020188555050505b505050505050565b5f82825260208201905092915050565b7f496e76616c696420526f6c654d616e61676572206164647265737300000000005f82015250565b5f610778601b83610734565b915061078382610744565b602082019050919050565b5f6020820190508181035f8301526107a58161076c565b9050919050565b7f496e76616c69642057616c6c20636f6e747261637420616464726573730000005f82015250565b5f6107e0601d83610734565b91506107eb826107ac565b602082019050919050565b5f6020820190508181035f83015261080d816107d4565b9050919050565b7f496e76616c69642047616c6c65727920636f6e747261637420616464726573735f82015250565b5f610848602083610734565b915061085382610814565b602082019050919050565b5f6020820190508181035f8301526108758161083c565b9050919050565b7f496e76616c69642053686172657320636f6e74726163742061646472657373005f82015250565b5f6108b0601f83610734565b91506108bb8261087c565b602082019050919050565b5f6020820190508181035f8301526108dd816108a4565b9050919050565b60805160a05160c05160e0516156a16109bf5f395f8181611705015261338c01525f8181610d1b015281816116e10152818161180d0152818161202201528181612417015281816131f9015261329b01525f818161070601528181610c73015281816113320152818161172b01528181611d8901528181611f4001528181612335015261315b01525f81816105fb015281816107ec01528181610828015281816109b5015281816109f101528181610f2c01528181610f680152818161109b015281816110d701528181611a910152611acd01526156a15ff3fe608060405234801561000f575f80fd5b50600436106101d7575f3560e01c806371d24b7011610102578063aad53a84116100a0578063e1f4ab5f1161006f578063e1f4ab5f14610561578063e38da54b14610591578063e985e9c5146105ad578063eb1b1e71146105dd576101d7565b8063aad53a84146104c2578063b88d4fde146104e0578063c7ca6daa146104fc578063c87b56dd14610531576101d7565b80638456cb59116100dc5780638456cb591461044a57806395d89b4114610454578063a22cb46514610472578063a245e7ff1461048e576101d7565b806371d24b70146103f25780637eb4ecb4146104105780638085be021461042e576101d7565b8063095ea7b31161017a57806342842e0e1161014957806342842e0e146103585780635c975abb146103745780636352211e1461039257806370a08231146103c2576101d7565b8063095ea7b3146102fa57806323b872dd146103165780633f4ba83a1461033257806341bc8b641461033c576101d7565b806306fdde03116101b657806306fdde031461025d578063072e91d91461027b57806307f2b4be14610297578063081812fc146102ca576101d7565b8062435da5146101db57806301ffc9a7146101f9578063044fdf8e14610229575b5f80fd5b6101e36105f9565b6040516101f09190613b34565b60405180910390f35b610213600480360381019061020e9190613bb3565b61061d565b6040516102209190613bf8565b60405180910390f35b610243600480360381019061023e9190613c44565b6106fe565b604051610254959493929190613cf1565b60405180910390f35b610265610924565b6040516102729190613db2565b60405180910390f35b61029560048036038101906102909190613c44565b6109b3565b005b6102b160048036038101906102ac9190613c44565b610c6c565b6040516102c19493929190613df2565b60405180910390f35b6102e460048036038101906102df9190613c44565b610dfa565b6040516102f19190613e35565b60405180910390f35b610314600480360381019061030f9190613e78565b610e15565b005b610330600480360381019061032b9190613eb6565b610e2b565b005b61033a610f2a565b005b61035660048036038101906103519190613f67565b611099565b005b610372600480360381019061036d9190613eb6565b6115e4565b005b61037c611603565b6040516103899190613bf8565b60405180910390f35b6103ac60048036038101906103a79190613c44565b611618565b6040516103b99190613e35565b60405180910390f35b6103dc60048036038101906103d79190613fc4565b611629565b6040516103e99190613fef565b60405180910390f35b6103fa6116df565b6040516104079190614028565b60405180910390f35b610418611703565b6040516104259190614061565b60405180910390f35b61044860048036038101906104439190613c44565b611727565b005b610452611a8f565b005b61045c611bfe565b6040516104699190613db2565b60405180910390f35b61048c600480360381019061048791906140a4565b611c8e565b005b6104a860048036038101906104a39190613c44565b611ca4565b6040516104b99594939291906140e2565b60405180910390f35b6104ca611d87565b6040516104d7919061415a565b60405180910390f35b6104fa60048036038101906104f5919061429b565b611dab565b005b61051660048036038101906105119190613c44565b611dd0565b6040516105289695949392919061431b565b60405180910390f35b61054b60048036038101906105469190613c44565b611eb9565b6040516105589190613db2565b60405180910390f35b61057b60048036038101906105769190613c44565b611f1f565b6040516105889190613bf8565b60405180910390f35b6105ab60048036038101906105a69190613c44565b611f3c565b005b6105c760048036038101906105c29190614381565b6122a3565b6040516105d49190613bf8565b60405180910390f35b6105f760048036038101906105f29190613c44565b612331565b005b7f000000000000000000000000000000000000000000000000000000000000000081565b5f7f80ac58cd000000000000000000000000000000000000000000000000000000007bffffffffffffffffffffffffffffffffffffffffffffffffffffffff1916827bffffffffffffffffffffffffffffffffffffffffffffffffffffffff191614806106e757507f5b5e139f000000000000000000000000000000000000000000000000000000007bffffffffffffffffffffffffffffffffffffffffffffffffffffffff1916827bffffffffffffffffffffffffffffffffffffffffffffffffffffffff1916145b806106f757506106f68261286c565b5b9050919050565b5f805f805f807f000000000000000000000000000000000000000000000000000000000000000073ffffffffffffffffffffffffffffffffffffffff1663ff91e489886040518263ffffffff1660e01b815260040161075d9190613fef565b5f60405180830381865afa158015610777573d5f803e3d5ffd5b505050506040513d5f823e3d601f19601f8201168201806040525081019061079f91906146aa565b9050600a5f8881526020019081526020015f205f9054906101000a900460ff1660095f8981526020019081526020015f206003015f9054906101000a900460ff168260a001518360c001517f000000000000000000000000000000000000000000000000000000000000000073ffffffffffffffffffffffffffffffffffffffff166391d148547f000000000000000000000000000000000000000000000000000000000000000073ffffffffffffffffffffffffffffffffffffffff1663303e38406040518163ffffffff1660e01b8152600401602060405180830381865afa15801561088f573d5f803e3d5ffd5b505050506040513d601f19601f820116820180604052508101906108b39190614724565b336040518363ffffffff1660e01b81526004016108d192919061475e565b602060405180830381865afa1580156108ec573d5f803e3d5ffd5b505050506040513d601f19601f820116820180604052508101906109109190614785565b955095509550955095505091939590929450565b60605f8054610932906147dd565b80601f016020809104026020016040519081016040528092919081815260200182805461095e906147dd565b80156109a95780601f10610980576101008083540402835291602001916109a9565b820191905f5260205f20905b81548152906001019060200180831161098c57829003601f168201915b5050505050905090565b7f000000000000000000000000000000000000000000000000000000000000000073ffffffffffffffffffffffffffffffffffffffff166391d148547f000000000000000000000000000000000000000000000000000000000000000073ffffffffffffffffffffffffffffffffffffffff1663303e38406040518163ffffffff1660e01b8152600401602060405180830381865afa158015610a58573d5f803e3d5ffd5b505050506040513d601f19601f82011682018060405250810190610a7c9190614724565b336040518363ffffffff1660e01b8152600401610a9a92919061475e565b602060405180830381865afa158015610ab5573d5f803e3d5ffd5b505050506040513d601f19601f82011682018060405250810190610ad99190614785565b610b18576040517f08c379a0000000000000000000000000000000000000000000000000000000008152600401610b0f90614857565b60405180910390fd5b610b206128d5565b5f60095f8381526020019081526020015f2090503373ffffffffffffffffffffffffffffffffffffffff16816001015f9054906101000a900473ffffffffffffffffffffffffffffffffffffffff1673ffffffffffffffffffffffffffffffffffffffff1614610bc5576040517f08c379a0000000000000000000000000000000000000000000000000000000008152600401610bbc906148bf565b60405180910390fd5b60026003811115610bd957610bd8613c6f565b5b816003015f9054906101000a900460ff166003811115610bfc57610bfb613c6f565b5b14610c3c576040517f08c379a0000000000000000000000000000000000000000000000000000000008152600401610c3390614927565b60405180910390fd5b6003816003015f6101000a81548160ff02191690836003811115610c6357610c62613c6f565b5b02179055505050565b5f805f805f7f000000000000000000000000000000000000000000000000000000000000000073ffffffffffffffffffffffffffffffffffffffff1663ff91e489876040518263ffffffff1660e01b8152600401610cca9190613fef565b5f60405180830381865afa158015610ce4573d5f803e3d5ffd5b505050506040513d5f823e3d601f19601f82011682018060405250810190610d0c91906146aa565b90508060a0015115610ddd575f7f000000000000000000000000000000000000000000000000000000000000000073ffffffffffffffffffffffffffffffffffffffff1663e3fbf3148360c001516040518263ffffffff1660e01b8152600401610d769190613fef565b5f60405180830381865afa158015610d90573d5f803e3d5ffd5b505050506040513d5f823e3d601f19601f82011682018060405250810190610db89190614b23565b90508160a001518260c0015182608001518360c0015195509550955095505050610df3565b8060a001518160c001515f809450945094509450505b9193509193565b5f610e048261291f565b50610e0e826129a5565b9050919050565b610e278282610e226129de565b6129e5565b5050565b5f73ffffffffffffffffffffffffffffffffffffffff168273ffffffffffffffffffffffffffffffffffffffff1603610e9b575f6040517f64a0ae92000000000000000000000000000000000000000000000000000000008152600401610e929190613e35565b60405180910390fd5b5f610eae8383610ea96129de565b6129f7565b90508373ffffffffffffffffffffffffffffffffffffffff168173ffffffffffffffffffffffffffffffffffffffff1614610f24578382826040517f64283d7b000000000000000000000000000000000000000000000000000000008152600401610f1b93929190614b6a565b60405180910390fd5b50505050565b7f000000000000000000000000000000000000000000000000000000000000000073ffffffffffffffffffffffffffffffffffffffff166391d148547f000000000000000000000000000000000000000000000000000000000000000073ffffffffffffffffffffffffffffffffffffffff166375b238fc6040518163ffffffff1660e01b8152600401602060405180830381865afa158015610fcf573d5f803e3d5ffd5b505050506040513d601f19601f82011682018060405250810190610ff39190614724565b336040518363ffffffff1660e01b815260040161101192919061475e565b602060405180830381865afa15801561102c573d5f803e3d5ffd5b505050506040513d601f19601f820116820180604052508101906110509190614785565b61108f576040517f08c379a000000000000000000000000000000000000000000000000000000000815260040161108690614be9565b60405180910390fd5b611097612c02565b565b7f000000000000000000000000000000000000000000000000000000000000000073ffffffffffffffffffffffffffffffffffffffff166391d148547f000000000000000000000000000000000000000000000000000000000000000073ffffffffffffffffffffffffffffffffffffffff1663303e38406040518163ffffffff1660e01b8152600401602060405180830381865afa15801561113e573d5f803e3d5ffd5b505050506040513d601f19601f820116820180604052508101906111629190614724565b336040518363ffffffff1660e01b815260040161118092919061475e565b602060405180830381865afa15801561119b573d5f803e3d5ffd5b505050506040513d601f19601f820116820180604052508101906111bf9190614785565b6111fe576040517f08c379a00000000000000000000000000000000000000000000000000000000081526004016111f590614857565b60405180910390fd5b6112066128d5565b5f828290501161124b576040517f08c379a000000000000000000000000000000000000000000000000000000000815260040161124290614c51565b60405180910390fd5b600a5f8481526020019081526020015f205f9054906101000a900460ff16156112a9576040517f08c379a00000000000000000000000000000000000000000000000000000000081526004016112a090614cb9565b60405180910390fd5b5f60038111156112bc576112bb613c6f565b5b60095f8581526020019081526020015f206003015f9054906101000a900460ff1660038111156112ef576112ee613c6f565b5b1461132f576040517f08c379a000000000000000000000000000000000000000000000000000000000815260040161132690614d47565b60405180910390fd5b5f7f000000000000000000000000000000000000000000000000000000000000000073ffffffffffffffffffffffffffffffffffffffff1663ff91e489856040518263ffffffff1660e01b81526004016113899190613fef565b5f60405180830381865afa1580156113a3573d5f803e3d5ffd5b505050506040513d5f823e3d601f19601f820116820180604052508101906113cb91906146aa565b905083815f015114611412576040517f08c379a000000000000000000000000000000000000000000000000000000000815260040161140990614daf565b60405180910390fd5b8060a00151611456576040517f08c379a000000000000000000000000000000000000000000000000000000000815260040161144d90614e17565b60405180910390fd5b6040518060a001604052808581526020013373ffffffffffffffffffffffffffffffffffffffff16815260200184848080601f0160208091040260200160405190810160405280939291908181526020018383808284375f81840152601f19601f820116905080830192505050505050508152602001600160038111156114e0576114df613c6f565b5b81526020014281525060095f8681526020019081526020015f205f820151815f01556020820151816001015f6101000a81548173ffffffffffffffffffffffffffffffffffffffff021916908373ffffffffffffffffffffffffffffffffffffffff160217905550604082015181600201908161155d9190614fc9565b506060820151816003015f6101000a81548160ff0219169083600381111561158857611587613c6f565b5b0217905550608082015181600401559050503373ffffffffffffffffffffffffffffffffffffffff16847f2c01190deb24fe5101a0373e8ee0ed3438853aaffeaf7fa5ca1c8db13d9e32b960405160405180910390a350505050565b6115fe83838360405180602001604052805f815250611dab565b505050565b5f60065f9054906101000a900460ff16905090565b5f6116228261291f565b9050919050565b5f8073ffffffffffffffffffffffffffffffffffffffff168273ffffffffffffffffffffffffffffffffffffffff160361169a575f6040517f89c62b640000000000000000000000000000000000000000000000000000000081526004016116919190613e35565b60405180910390fd5b60035f8373ffffffffffffffffffffffffffffffffffffffff1673ffffffffffffffffffffffffffffffffffffffff1681526020019081526020015f20549050919050565b7f000000000000000000000000000000000000000000000000000000000000000081565b7f000000000000000000000000000000000000000000000000000000000000000081565b805f7f000000000000000000000000000000000000000000000000000000000000000073ffffffffffffffffffffffffffffffffffffffff1663ff91e489836040518263ffffffff1660e01b81526004016117829190613fef565b5f60405180830381865afa15801561179c573d5f803e3d5ffd5b505050506040513d5f823e3d601f19601f820116820180604052508101906117c491906146aa565b90508060a0015161180a576040517f08c379a000000000000000000000000000000000000000000000000000000000815260040161180190614e17565b60405180910390fd5b5f7f000000000000000000000000000000000000000000000000000000000000000073ffffffffffffffffffffffffffffffffffffffff1663e3fbf3148360c001516040518263ffffffff1660e01b81526004016118689190613fef565b5f60405180830381865afa158015611882573d5f803e3d5ffd5b505050506040513d5f823e3d601f19601f820116820180604052508101906118aa9190614b23565b90508060c001516118f0576040517f08c379a00000000000000000000000000000000000000000000000000000000081526004016118e7906150e2565b60405180910390fd5b806080015173ffffffffffffffffffffffffffffffffffffffff163373ffffffffffffffffffffffffffffffffffffffff1614611962576040517f08c379a00000000000000000000000000000000000000000000000000000000081526004016119599061514a565b60405180910390fd5b61196a6128d5565b5f60095f8681526020019081526020015f2090506001600381111561199257611991613c6f565b5b816003015f9054906101000a900460ff1660038111156119b5576119b4613c6f565b5b146119f5576040517f08c379a00000000000000000000000000000000000000000000000000000000081526004016119ec906151b2565b60405180910390fd5b6002816003015f6101000a81548160ff02191690836003811115611a1c57611a1b613c6f565b5b0217905550806001015f9054906101000a900473ffffffffffffffffffffffffffffffffffffffff1673ffffffffffffffffffffffffffffffffffffffff16857fe90f4a07e9a9af1dd1030380992296ac79b9aea4f6705f8365f9df1bcbf3ad4c60405160405180910390a35050505050565b7f000000000000000000000000000000000000000000000000000000000000000073ffffffffffffffffffffffffffffffffffffffff166391d148547f000000000000000000000000000000000000000000000000000000000000000073ffffffffffffffffffffffffffffffffffffffff166375b238fc6040518163ffffffff1660e01b8152600401602060405180830381865afa158015611b34573d5f803e3d5ffd5b505050506040513d601f19601f82011682018060405250810190611b589190614724565b336040518363ffffffff1660e01b8152600401611b7692919061475e565b602060405180830381865afa158015611b91573d5f803e3d5ffd5b505050506040513d601f19601f82011682018060405250810190611bb59190614785565b611bf4576040517f08c379a0000000000000000000000000000000000000000000000000000000008152600401611beb90614be9565b60405180910390fd5b611bfc612c63565b565b606060018054611c0d906147dd565b80601f0160208091040260200160405190810160405280929190818152602001828054611c39906147dd565b8015611c845780601f10611c5b57610100808354040283529160200191611c84565b820191905f5260205f20905b815481529060010190602001808311611c6757829003601f168201915b5050505050905090565b611ca0611c996129de565b8383612cc5565b5050565b6009602052805f5260405f205f91509050805f015490806001015f9054906101000a900473ffffffffffffffffffffffffffffffffffffffff1690806002018054611cee906147dd565b80601f0160208091040260200160405190810160405280929190818152602001828054611d1a906147dd565b8015611d655780601f10611d3c57610100808354040283529160200191611d65565b820191905f5260205f20905b815481529060010190602001808311611d4857829003601f168201915b505050505090806003015f9054906101000a900460ff16908060040154905085565b7f000000000000000000000000000000000000000000000000000000000000000081565b611db6848484610e2b565b611dca611dc16129de565b85858585612e2e565b50505050565b6008602052805f5260405f205f91509050805f015490806001015490806002015f9054906101000a900473ffffffffffffffffffffffffffffffffffffffff1690806003018054611e20906147dd565b80601f0160208091040260200160405190810160405280929190818152602001828054611e4c906147dd565b8015611e975780601f10611e6e57610100808354040283529160200191611e97565b820191905f5260205f20905b815481529060010190602001808311611e7a57829003601f168201915b505050505090806004015f9054906101000a900460ff16908060050154905086565b6060611ec48261291f565b505f611ece612fda565b90505f815111611eec5760405180602001604052805f815250611f17565b80611ef684612ff0565b604051602001611f0792919061520a565b6040516020818303038152906040525b915050919050565b600a602052805f5260405f205f915054906101000a900460ff1681565b805f7f000000000000000000000000000000000000000000000000000000000000000073ffffffffffffffffffffffffffffffffffffffff1663ff91e489836040518263ffffffff1660e01b8152600401611f979190613fef565b5f60405180830381865afa158015611fb1573d5f803e3d5ffd5b505050506040513d5f823e3d601f19601f82011682018060405250810190611fd991906146aa565b90508060a0015161201f576040517f08c379a000000000000000000000000000000000000000000000000000000000815260040161201690614e17565b60405180910390fd5b5f7f000000000000000000000000000000000000000000000000000000000000000073ffffffffffffffffffffffffffffffffffffffff1663e3fbf3148360c001516040518263ffffffff1660e01b815260040161207d9190613fef565b5f60405180830381865afa158015612097573d5f803e3d5ffd5b505050506040513d5f823e3d601f19601f820116820180604052508101906120bf9190614b23565b90508060c00151612105576040517f08c379a00000000000000000000000000000000000000000000000000000000081526004016120fc906150e2565b60405180910390fd5b806080015173ffffffffffffffffffffffffffffffffffffffff163373ffffffffffffffffffffffffffffffffffffffff1614612177576040517f08c379a000000000000000000000000000000000000000000000000000000000815260040161216e9061514a565b60405180910390fd5b61217f6128d5565b5f60095f8681526020019081526020015f209050600160038111156121a7576121a6613c6f565b5b816003015f9054906101000a900460ff1660038111156121ca576121c9613c6f565b5b1461220a576040517f08c379a0000000000000000000000000000000000000000000000000000000008152600401612201906151b2565b60405180910390fd5b5f816003015f6101000a81548160ff021916908360038111156122305761222f613c6f565b5b0217905550806001015f9054906101000a900473ffffffffffffffffffffffffffffffffffffffff1673ffffffffffffffffffffffffffffffffffffffff16857f8ab069580156e517907e83c0c2a44bbad72364aa9544e12aa96ba9ec2b091a8c60405160405180910390a35050505050565b5f60055f8473ffffffffffffffffffffffffffffffffffffffff1673ffffffffffffffffffffffffffffffffffffffff1681526020019081526020015f205f8373ffffffffffffffffffffffffffffffffffffffff1673ffffffffffffffffffffffffffffffffffffffff1681526020019081526020015f205f9054906101000a900460ff16905092915050565b805f7f000000000000000000000000000000000000000000000000000000000000000073ffffffffffffffffffffffffffffffffffffffff1663ff91e489836040518263ffffffff1660e01b815260040161238c9190613fef565b5f60405180830381865afa1580156123a6573d5f803e3d5ffd5b505050506040513d5f823e3d601f19601f820116820180604052508101906123ce91906146aa565b90508060a00151612414576040517f08c379a000000000000000000000000000000000000000000000000000000000815260040161240b90614e17565b60405180910390fd5b5f7f000000000000000000000000000000000000000000000000000000000000000073ffffffffffffffffffffffffffffffffffffffff1663e3fbf3148360c001516040518263ffffffff1660e01b81526004016124729190613fef565b5f60405180830381865afa15801561248c573d5f803e3d5ffd5b505050506040513d5f823e3d601f19601f820116820180604052508101906124b49190614b23565b90508060c001516124fa576040517f08c379a00000000000000000000000000000000000000000000000000000000081526004016124f1906150e2565b60405180910390fd5b806080015173ffffffffffffffffffffffffffffffffffffffff163373ffffffffffffffffffffffffffffffffffffffff161461256c576040517f08c379a00000000000000000000000000000000000000000000000000000000081526004016125639061514a565b60405180910390fd5b6125746128d5565b5f60095f8681526020019081526020015f20905060038081111561259b5761259a613c6f565b5b816003015f9054906101000a900460ff1660038111156125be576125bd613c6f565b5b146125fe576040517f08c379a00000000000000000000000000000000000000000000000000000000081526004016125f590615277565b60405180910390fd5b61260860076130ba565b5f61261360076130ce565b9050612642826001015f9054906101000a900473ffffffffffffffffffffffffffffffffffffffff16826130da565b6040518060c00160405280828152602001878152602001836001015f9054906101000a900473ffffffffffffffffffffffffffffffffffffffff1673ffffffffffffffffffffffffffffffffffffffff1681526020018360020180546126a7906147dd565b80601f01602080910402602001604051908101604052809291908181526020018280546126d3906147dd565b801561271e5780601f106126f55761010080835404028352916020019161271e565b820191905f5260205f20905b81548152906001019060200180831161270157829003601f168201915b505050505081526020015f151581526020014281525060085f8381526020019081526020015f205f820151815f0155602082015181600101556040820151816002015f6101000a81548173ffffffffffffffffffffffffffffffffffffffff021916908373ffffffffffffffffffffffffffffffffffffffff16021790555060608201518160030190816127b29190614fc9565b506080820151816004015f6101000a81548160ff02191690831515021790555060a082015181600501559050506001600a5f8881526020019081526020015f205f6101000a81548160ff0219169083151502179055506128368187846001015f9054906101000a900473ffffffffffffffffffffffffffffffffffffffff166130f7565b85817f5a49448ef5c36af17b1aeb44ac91d414aa5cc30977940fa1a5b216f936a804d260405160405180910390a3505050505050565b5f7f01ffc9a7000000000000000000000000000000000000000000000000000000007bffffffffffffffffffffffffffffffffffffffffffffffffffffffff1916827bffffffffffffffffffffffffffffffffffffffffffffffffffffffff1916149050919050565b6128dd611603565b1561291d576040517f08c379a0000000000000000000000000000000000000000000000000000000008152600401612914906152df565b60405180910390fd5b565b5f8061292a8361348f565b90505f73ffffffffffffffffffffffffffffffffffffffff168173ffffffffffffffffffffffffffffffffffffffff160361299c57826040517f7e2732890000000000000000000000000000000000000000000000000000000081526004016129939190613fef565b60405180910390fd5b80915050919050565b5f60045f8381526020019081526020015f205f9054906101000a900473ffffffffffffffffffffffffffffffffffffffff169050919050565b5f33905090565b6129f283838360016134c8565b505050565b5f80612a028461348f565b90505f73ffffffffffffffffffffffffffffffffffffffff168373ffffffffffffffffffffffffffffffffffffffff1614612a4357612a42818486613687565b5b5f73ffffffffffffffffffffffffffffffffffffffff168173ffffffffffffffffffffffffffffffffffffffff1614612ace57612a825f855f806134c8565b600160035f8373ffffffffffffffffffffffffffffffffffffffff1673ffffffffffffffffffffffffffffffffffffffff1681526020019081526020015f205f82825403925050819055505b5f73ffffffffffffffffffffffffffffffffffffffff168573ffffffffffffffffffffffffffffffffffffffff1614612b4d57600160035f8773ffffffffffffffffffffffffffffffffffffffff1673ffffffffffffffffffffffffffffffffffffffff1681526020019081526020015f205f82825401925050819055505b8460025f8681526020019081526020015f205f6101000a81548173ffffffffffffffffffffffffffffffffffffffff021916908373ffffffffffffffffffffffffffffffffffffffff160217905550838573ffffffffffffffffffffffffffffffffffffffff168273ffffffffffffffffffffffffffffffffffffffff167fddf252ad1be2c89b69c2b068fc378daa952ba7f163c4a11628f55a4df523b3ef60405160405180910390a4809150509392505050565b612c0a61374a565b5f60065f6101000a81548160ff0219169083151502179055507f5db9ee0a495bf2e6ff9c91a7834c1ba4fdd244a5e8aa4e537bd38aeae4b073aa612c4c6129de565b604051612c599190613e35565b60405180910390a1565b612c6b6128d5565b600160065f6101000a81548160ff0219169083151502179055507f62e78cea01bee320cd4e420270b5ea74000d11b0c9f74754ebdbfc544b05a258612cae6129de565b604051612cbb9190613e35565b60405180910390a1565b5f73ffffffffffffffffffffffffffffffffffffffff168273ffffffffffffffffffffffffffffffffffffffff1603612d3557816040517f5b08ba18000000000000000000000000000000000000000000000000000000008152600401612d2c9190613e35565b60405180910390fd5b8060055f8573ffffffffffffffffffffffffffffffffffffffff1673ffffffffffffffffffffffffffffffffffffffff1681526020019081526020015f205f8473ffffffffffffffffffffffffffffffffffffffff1673ffffffffffffffffffffffffffffffffffffffff1681526020019081526020015f205f6101000a81548160ff0219169083151502179055508173ffffffffffffffffffffffffffffffffffffffff168373ffffffffffffffffffffffffffffffffffffffff167f17307eab39ab6107e8899845ad3d59bd9653f200f220920489ca2b5937696c3183604051612e219190613bf8565b60405180910390a3505050565b5f8373ffffffffffffffffffffffffffffffffffffffff163b1115612fd3578273ffffffffffffffffffffffffffffffffffffffff1663150b7a02868685856040518563ffffffff1660e01b8152600401612e8c949392919061534f565b6020604051808303815f875af1925050508015612ec757506040513d601f19601f82011682018060405250810190612ec491906153ad565b60015b612f48573d805f8114612ef5576040519150601f19603f3d011682016040523d82523d5f602084013e612efa565b606091505b505f815103612f4057836040517f64a0ae92000000000000000000000000000000000000000000000000000000008152600401612f379190613e35565b60405180910390fd5b805181602001fd5b63150b7a0260e01b7bffffffffffffffffffffffffffffffffffffffffffffffffffffffff1916817bffffffffffffffffffffffffffffffffffffffffffffffffffffffff191614612fd157836040517f64a0ae92000000000000000000000000000000000000000000000000000000008152600401612fc89190613e35565b60405180910390fd5b505b5050505050565b606060405180602001604052805f815250905090565b60605f6001612ffe84613793565b0190505f8167ffffffffffffffff81111561301c5761301b614177565b5b6040519080825280601f01601f19166020018201604052801561304e5781602001600182028036833780820191505090505b5090505f82602001820190505b6001156130af578080600190039150507f3031323334353637383961626364656600000000000000000000000000000000600a86061a8153600a85816130a4576130a36153d8565b5b0494505f850361305b575b819350505050919050565b6001815f015f828254019250508190555050565b5f815f01549050919050565b6130f3828260405180602001604052805f8152506138e4565b5050565b60085f8481526020019081526020015f206004015f9054906101000a900460ff1615613158576040517f08c379a000000000000000000000000000000000000000000000000000000000815260040161314f9061544f565b60405180910390fd5b5f7f000000000000000000000000000000000000000000000000000000000000000073ffffffffffffffffffffffffffffffffffffffff1663ff91e489846040518263ffffffff1660e01b81526004016131b29190613fef565b5f60405180830381865afa1580156131cc573d5f803e3d5ffd5b505050506040513d5f823e3d601f19601f820116820180604052508101906131f491906146aa565b90505f7f000000000000000000000000000000000000000000000000000000000000000073ffffffffffffffffffffffffffffffffffffffff1663e3fbf3148360c001516040518263ffffffff1660e01b81526004016132549190613fef565b5f60405180830381865afa15801561326e573d5f803e3d5ffd5b505050506040513d5f823e3d601f19601f820116820180604052508101906132969190614b23565b90505f7f000000000000000000000000000000000000000000000000000000000000000073ffffffffffffffffffffffffffffffffffffffff16631f7418976040518163ffffffff1660e01b8152600401602060405180830381865afa158015613302573d5f803e3d5ffd5b505050506040513d601f19601f82011682018060405250810190613326919061546d565b905060648260a0015184608001518361333f91906154c5565b61334991906154c5565b111561338a576040517f08c379a000000000000000000000000000000000000000000000000000000000815260040161338190615542565b60405180910390fd5b7f000000000000000000000000000000000000000000000000000000000000000073ffffffffffffffffffffffffffffffffffffffff166317ba1245875f8660200151866080015189878a608001518a60a001516040518963ffffffff1660e01b8152600401613401989796959493929190615560565b5f604051808303815f87803b158015613418575f80fd5b505af115801561342a573d5f803e3d5ffd5b50505050600160085f8881526020019081526020015f206004015f6101000a81548160ff021916908315150217905550857f02deede74b5d808c4427b3b6f5c19347053842f97802787be8edf94f1c9714e860405160405180910390a2505050505050565b5f60025f8381526020019081526020015f205f9054906101000a900473ffffffffffffffffffffffffffffffffffffffff169050919050565b808061350057505f73ffffffffffffffffffffffffffffffffffffffff168273ffffffffffffffffffffffffffffffffffffffff1614155b15613632575f61350f8461291f565b90505f73ffffffffffffffffffffffffffffffffffffffff168373ffffffffffffffffffffffffffffffffffffffff161415801561357957508273ffffffffffffffffffffffffffffffffffffffff168173ffffffffffffffffffffffffffffffffffffffff1614155b801561358c575061358a81846122a3565b155b156135ce57826040517fa9fbf51f0000000000000000000000000000000000000000000000000000000081526004016135c59190613e35565b60405180910390fd5b811561363057838573ffffffffffffffffffffffffffffffffffffffff168273ffffffffffffffffffffffffffffffffffffffff167f8c5be1e5ebec7d5bd14f71427d1e84f3dd0314c0f7b2291e5b200ac8c7c3b92560405160405180910390a45b505b8360045f8581526020019081526020015f205f6101000a81548173ffffffffffffffffffffffffffffffffffffffff021916908373ffffffffffffffffffffffffffffffffffffffff16021790555050505050565b613692838383613907565b613745575f73ffffffffffffffffffffffffffffffffffffffff168373ffffffffffffffffffffffffffffffffffffffff160361370657806040517f7e2732890000000000000000000000000000000000000000000000000000000081526004016136fd9190613fef565b60405180910390fd5b81816040517f177e802f00000000000000000000000000000000000000000000000000000000815260040161373c9291906155dc565b60405180910390fd5b505050565b613752611603565b613791576040517f08c379a00000000000000000000000000000000000000000000000000000000081526004016137889061564d565b60405180910390fd5b565b5f805f90507a184f03e93ff9f4daa797ed6e38ed64bf6a1f01000000000000000083106137ef577a184f03e93ff9f4daa797ed6e38ed64bf6a1f01000000000000000083816137e5576137e46153d8565b5b0492506040810190505b6d04ee2d6d415b85acef8100000000831061382c576d04ee2d6d415b85acef81000000008381613822576138216153d8565b5b0492506020810190505b662386f26fc10000831061385b57662386f26fc100008381613851576138506153d8565b5b0492506010810190505b6305f5e1008310613884576305f5e100838161387a576138796153d8565b5b0492506008810190505b61271083106138a957612710838161389f5761389e6153d8565b5b0492506004810190505b606483106138cc57606483816138c2576138c16153d8565b5b0492506002810190505b600a83106138db576001810190505b80915050919050565b6138ee83836139c7565b6139026138f96129de565b5f858585612e2e565b505050565b5f8073ffffffffffffffffffffffffffffffffffffffff168373ffffffffffffffffffffffffffffffffffffffff16141580156139be57508273ffffffffffffffffffffffffffffffffffffffff168473ffffffffffffffffffffffffffffffffffffffff16148061397f575061397e84846122a3565b5b806139bd57508273ffffffffffffffffffffffffffffffffffffffff166139a5836129a5565b73ffffffffffffffffffffffffffffffffffffffff16145b5b90509392505050565b5f73ffffffffffffffffffffffffffffffffffffffff168273ffffffffffffffffffffffffffffffffffffffff1603613a37575f6040517f64a0ae92000000000000000000000000000000000000000000000000000000008152600401613a2e9190613e35565b60405180910390fd5b5f613a4383835f6129f7565b90505f73ffffffffffffffffffffffffffffffffffffffff168173ffffffffffffffffffffffffffffffffffffffff1614613ab5575f6040517f73c6ac6e000000000000000000000000000000000000000000000000000000008152600401613aac9190613e35565b60405180910390fd5b505050565b5f73ffffffffffffffffffffffffffffffffffffffff82169050919050565b5f819050919050565b5f613afc613af7613af284613aba565b613ad9565b613aba565b9050919050565b5f613b0d82613ae2565b9050919050565b5f613b1e82613b03565b9050919050565b613b2e81613b14565b82525050565b5f602082019050613b475f830184613b25565b92915050565b5f604051905090565b5f80fd5b5f80fd5b5f7fffffffff0000000000000000000000000000000000000000000000000000000082169050919050565b613b9281613b5e565b8114613b9c575f80fd5b50565b5f81359050613bad81613b89565b92915050565b5f60208284031215613bc857613bc7613b56565b5b5f613bd584828501613b9f565b91505092915050565b5f8115159050919050565b613bf281613bde565b82525050565b5f602082019050613c0b5f830184613be9565b92915050565b5f819050919050565b613c2381613c11565b8114613c2d575f80fd5b50565b5f81359050613c3e81613c1a565b92915050565b5f60208284031215613c5957613c58613b56565b5b5f613c6684828501613c30565b91505092915050565b7f4e487b71000000000000000000000000000000000000000000000000000000005f52602160045260245ffd5b60048110613cad57613cac613c6f565b5b50565b5f819050613cbd82613c9c565b919050565b5f613ccc82613cb0565b9050919050565b613cdc81613cc2565b82525050565b613ceb81613c11565b82525050565b5f60a082019050613d045f830188613be9565b613d116020830187613cd3565b613d1e6040830186613be9565b613d2b6060830185613ce2565b613d386080830184613be9565b9695505050505050565b5f81519050919050565b5f82825260208201905092915050565b8281835e5f83830152505050565b5f601f19601f8301169050919050565b5f613d8482613d42565b613d8e8185613d4c565b9350613d9e818560208601613d5c565b613da781613d6a565b840191505092915050565b5f6020820190508181035f830152613dca8184613d7a565b905092915050565b5f613ddc82613aba565b9050919050565b613dec81613dd2565b82525050565b5f608082019050613e055f830187613be9565b613e126020830186613ce2565b613e1f6040830185613de3565b613e2c6060830184613be9565b95945050505050565b5f602082019050613e485f830184613de3565b92915050565b613e5781613dd2565b8114613e61575f80fd5b50565b5f81359050613e7281613e4e565b92915050565b5f8060408385031215613e8e57613e8d613b56565b5b5f613e9b85828601613e64565b9250506020613eac85828601613c30565b9150509250929050565b5f805f60608486031215613ecd57613ecc613b56565b5b5f613eda86828701613e64565b9350506020613eeb86828701613e64565b9250506040613efc86828701613c30565b9150509250925092565b5f80fd5b5f80fd5b5f80fd5b5f8083601f840112613f2757613f26613f06565b5b8235905067ffffffffffffffff811115613f4457613f43613f0a565b5b602083019150836001820283011115613f6057613f5f613f0e565b5b9250929050565b5f805f60408486031215613f7e57613f7d613b56565b5b5f613f8b86828701613c30565b935050602084013567ffffffffffffffff811115613fac57613fab613b5a565b5b613fb886828701613f12565b92509250509250925092565b5f60208284031215613fd957613fd8613b56565b5b5f613fe684828501613e64565b91505092915050565b5f6020820190506140025f830184613ce2565b92915050565b5f61401282613b03565b9050919050565b61402281614008565b82525050565b5f60208201905061403b5f830184614019565b92915050565b5f61404b82613b03565b9050919050565b61405b81614041565b82525050565b5f6020820190506140745f830184614052565b92915050565b61408381613bde565b811461408d575f80fd5b50565b5f8135905061409e8161407a565b92915050565b5f80604083850312156140ba576140b9613b56565b5b5f6140c785828601613e64565b92505060206140d885828601614090565b9150509250929050565b5f60a0820190506140f55f830188613ce2565b6141026020830187613de3565b81810360408301526141148186613d7a565b90506141236060830185613cd3565b6141306080830184613ce2565b9695505050505050565b5f61414482613b03565b9050919050565b6141548161413a565b82525050565b5f60208201905061416d5f83018461414b565b92915050565b5f80fd5b7f4e487b71000000000000000000000000000000000000000000000000000000005f52604160045260245ffd5b6141ad82613d6a565b810181811067ffffffffffffffff821117156141cc576141cb614177565b5b80604052505050565b5f6141de613b4d565b90506141ea82826141a4565b919050565b5f67ffffffffffffffff82111561420957614208614177565b5b61421282613d6a565b9050602081019050919050565b828183375f83830152505050565b5f61423f61423a846141ef565b6141d5565b90508281526020810184848401111561425b5761425a614173565b5b61426684828561421f565b509392505050565b5f82601f83011261428257614281613f06565b5b813561429284826020860161422d565b91505092915050565b5f805f80608085870312156142b3576142b2613b56565b5b5f6142c087828801613e64565b94505060206142d187828801613e64565b93505060406142e287828801613c30565b925050606085013567ffffffffffffffff81111561430357614302613b5a565b5b61430f8782880161426e565b91505092959194509250565b5f60c08201905061432e5f830189613ce2565b61433b6020830188613ce2565b6143486040830187613de3565b818103606083015261435a8186613d7a565b90506143696080830185613be9565b61437660a0830184613ce2565b979650505050505050565b5f806040838503121561439757614396613b56565b5b5f6143a485828601613e64565b92505060206143b585828601613e64565b9150509250929050565b5f80fd5b5f80fd5b5f815190506143d581613c1a565b92915050565b5f815190506143e981613e4e565b92915050565b5f67ffffffffffffffff82111561440957614408614177565b5b61441282613d6a565b9050602081019050919050565b5f61443161442c846143ef565b6141d5565b90508281526020810184848401111561444d5761444c614173565b5b614458848285613d5c565b509392505050565b5f82601f83011261447457614473613f06565b5b815161448484826020860161441f565b91505092915050565b5f819050919050565b61449f8161448d565b81146144a9575f80fd5b50565b5f815190506144ba81614496565b92915050565b5f60a082840312156144d5576144d46143bf565b5b6144df60a06141d5565b90505f82015167ffffffffffffffff8111156144fe576144fd6143c3565b5b61450a84828501614460565b5f83015250602082015167ffffffffffffffff81111561452d5761452c6143c3565b5b61453984828501614460565b602083015250604082015167ffffffffffffffff81111561455d5761455c6143c3565b5b61456984828501614460565b604083015250606061457d848285016144ac565b6060830152506080614591848285016144ac565b60808301525092915050565b5f815190506145ab8161407a565b92915050565b5f61012082840312156145c7576145c66143bf565b5b6145d26101206141d5565b90505f6145e1848285016143c7565b5f8301525060206145f4848285016143db565b602083015250604082015167ffffffffffffffff811115614618576146176143c3565b5b614624848285016144c0565b6040830152506060614638848285016143c7565b606083015250608061464c848285016143c7565b60808301525060a06146608482850161459d565b60a08301525060c0614674848285016143c7565b60c08301525060e0614688848285016143c7565b60e08301525061010061469d848285016143c7565b6101008301525092915050565b5f602082840312156146bf576146be613b56565b5b5f82015167ffffffffffffffff8111156146dc576146db613b5a565b5b6146e8848285016145b1565b91505092915050565b5f819050919050565b614703816146f1565b811461470d575f80fd5b50565b5f8151905061471e816146fa565b92915050565b5f6020828403121561473957614738613b56565b5b5f61474684828501614710565b91505092915050565b614758816146f1565b82525050565b5f6040820190506147715f83018561474f565b61477e6020830184613de3565b9392505050565b5f6020828403121561479a57614799613b56565b5b5f6147a78482850161459d565b91505092915050565b7f4e487b71000000000000000000000000000000000000000000000000000000005f52602260045260245ffd5b5f60028204905060018216806147f457607f821691505b602082108103614807576148066147b0565b5b50919050565b7f4d7573742068617665205041494e5445525f524f4c45000000000000000000005f82015250565b5f614841601683613d4c565b915061484c8261480d565b602082019050919050565b5f6020820190508181035f83015261486e81614835565b9050919050565b7f4e6f74207468652061737369676e6564207061696e74657200000000000000005f82015250565b5f6148a9601883613d4c565b91506148b482614875565b602082019050919050565b5f6020820190508181035f8301526148d68161489d565b9050919050565b7f4e6f7420696e2070726f636573730000000000000000000000000000000000005f82015250565b5f614911600e83613d4c565b915061491c826148dd565b602082019050919050565b5f6020820190508181035f83015261493e81614905565b9050919050565b5f6080828403121561495a576149596143bf565b5b61496460806141d5565b90505f82015167ffffffffffffffff811115614983576149826143c3565b5b61498f84828501614460565b5f83015250602082015167ffffffffffffffff8111156149b2576149b16143c3565b5b6149be84828501614460565b60208301525060406149d2848285016144ac565b60408301525060606149e6848285016144ac565b60608301525092915050565b5f6101208284031215614a0857614a076143bf565b5b614a136101206141d5565b90505f614a22848285016143c7565b5f83015250602082015167ffffffffffffffff811115614a4557614a446143c3565b5b614a5184828501614460565b602083015250604082015167ffffffffffffffff811115614a7557614a746143c3565b5b614a8184828501614460565b604083015250606082015167ffffffffffffffff811115614aa557614aa46143c3565b5b614ab184828501614945565b6060830152506080614ac5848285016143db565b60808301525060a0614ad9848285016143c7565b60a08301525060c0614aed8482850161459d565b60c08301525060e0614b01848285016143c7565b60e083015250610100614b16848285016143c7565b6101008301525092915050565b5f60208284031215614b3857614b37613b56565b5b5f82015167ffffffffffffffff811115614b5557614b54613b5a565b5b614b61848285016149f2565b91505092915050565b5f606082019050614b7d5f830186613de3565b614b8a6020830185613ce2565b614b976040830184613de3565b949350505050565b7f4d75737420686176652041444d494e5f524f4c450000000000000000000000005f82015250565b5f614bd3601483613d4c565b9150614bde82614b9f565b602082019050919050565b5f6020820190508181035f830152614c0081614bc7565b9050919050565b7f4465736372697074696f6e2063616e6e6f7420626520656d70747900000000005f82015250565b5f614c3b601b83613d4c565b9150614c4682614c07565b602082019050919050565b5f6020820190508181035f830152614c6881614c2f565b9050919050565b7f57616c6c20616c7265616479207061696e7465640000000000000000000000005f82015250565b5f614ca3601483613d4c565b9150614cae82614c6f565b602082019050919050565b5f6020820190508181035f830152614cd081614c97565b9050919050565b7f5265717565737420616c72656164792065786973747320666f722074686973205f8201527f77616c6c00000000000000000000000000000000000000000000000000000000602082015250565b5f614d31602483613d4c565b9150614d3c82614cd7565b604082019050919050565b5f6020820190508181035f830152614d5e81614d25565b9050919050565b7f57616c6c20646f6573206e6f74206578697374000000000000000000000000005f82015250565b5f614d99601383613d4c565b9150614da482614d65565b602082019050919050565b5f6020820190508181035f830152614dc681614d8d565b9050919050565b7f57616c6c206e6f7420696e2067616c6c657279000000000000000000000000005f82015250565b5f614e01601383613d4c565b9150614e0c82614dcd565b602082019050919050565b5f6020820190508181035f830152614e2e81614df5565b9050919050565b5f819050815f5260205f209050919050565b5f6020601f8301049050919050565b5f82821b905092915050565b5f60088302614e917fffffffffffffffffffffffffffffffffffffffffffffffffffffffffffffffff82614e56565b614e9b8683614e56565b95508019841693508086168417925050509392505050565b5f614ecd614ec8614ec384613c11565b613ad9565b613c11565b9050919050565b5f819050919050565b614ee683614eb3565b614efa614ef282614ed4565b848454614e62565b825550505050565b5f90565b614f0e614f02565b614f19818484614edd565b505050565b5b81811015614f3c57614f315f82614f06565b600181019050614f1f565b5050565b601f821115614f8157614f5281614e35565b614f5b84614e47565b81016020851015614f6a578190505b614f7e614f7685614e47565b830182614f1e565b50505b505050565b5f82821c905092915050565b5f614fa15f1984600802614f86565b1980831691505092915050565b5f614fb98383614f92565b9150826002028217905092915050565b614fd282613d42565b67ffffffffffffffff811115614feb57614fea614177565b5b614ff582546147dd565b615000828285614f40565b5f60209050601f831160018114615031575f841561501f578287015190505b6150298582614fae565b865550615090565b601f19841661503f86614e35565b5f5b8281101561506657848901518255600182019150602085019450602081019050615041565b86831015615083578489015161507f601f891682614f92565b8355505b6001600288020188555050505b505050505050565b7f47616c6c657279206e6f742061637469766500000000000000000000000000005f82015250565b5f6150cc601283613d4c565b91506150d782615098565b602082019050919050565b5f6020820190508181035f8301526150f9816150c0565b9050919050565b7f4e6f742067616c6c657279206f776e65720000000000000000000000000000005f82015250565b5f615134601183613d4c565b915061513f82615100565b602082019050919050565b5f6020820190508181035f83015261516181615128565b9050919050565b7f496e76616c6964207265717565737420737461747573000000000000000000005f82015250565b5f61519c601683613d4c565b91506151a782615168565b602082019050919050565b5f6020820190508181035f8301526151c981615190565b9050919050565b5f81905092915050565b5f6151e482613d42565b6151ee81856151d0565b93506151fe818560208601613d5c565b80840191505092915050565b5f61521582856151da565b915061522182846151da565b91508190509392505050565b7f5061696e74696e67206e6f7420636f6d706c65746564000000000000000000005f82015250565b5f615261601683613d4c565b915061526c8261522d565b602082019050919050565b5f6020820190508181035f83015261528e81615255565b9050919050565b7f5061757361626c653a20706175736564000000000000000000000000000000005f82015250565b5f6152c9601083613d4c565b91506152d482615295565b602082019050919050565b5f6020820190508181035f8301526152f6816152bd565b9050919050565b5f81519050919050565b5f82825260208201905092915050565b5f615321826152fd565b61532b8185615307565b935061533b818560208601613d5c565b61534481613d6a565b840191505092915050565b5f6080820190506153625f830187613de3565b61536f6020830186613de3565b61537c6040830185613ce2565b818103606083015261538e8184615317565b905095945050505050565b5f815190506153a781613b89565b92915050565b5f602082840312156153c2576153c1613b56565b5b5f6153cf84828501615399565b91505092915050565b7f4e487b71000000000000000000000000000000000000000000000000000000005f52601260045260245ffd5b7f53686172657320616c7265616479206d696e74656400000000000000000000005f82015250565b5f615439601583613d4c565b915061544482615405565b602082019050919050565b5f6020820190508181035f8301526154668161542d565b9050919050565b5f6020828403121561548257615481613b56565b5b5f61548f848285016143c7565b91505092915050565b7f4e487b71000000000000000000000000000000000000000000000000000000005f52601160045260245ffd5b5f6154cf82613c11565b91506154da83613c11565b92508282019050808211156154f2576154f1615498565b5b92915050565b7f546f74616c2070657263656e74616765206578636565647320313030250000005f82015250565b5f61552c601d83613d4c565b9150615537826154f8565b602082019050919050565b5f6020820190508181035f83015261555981615520565b9050919050565b5f610100820190506155745f83018b613ce2565b615581602083018a613de3565b61558e6040830189613de3565b61559b6060830188613de3565b6155a86080830187613de3565b6155b560a0830186613ce2565b6155c260c0830185613ce2565b6155cf60e0830184613ce2565b9998505050505050505050565b5f6040820190506155ef5f830185613de3565b6155fc6020830184613ce2565b9392505050565b7f5061757361626c653a206e6f74207061757365640000000000000000000000005f82015250565b5f615637601483613d4c565b915061564282615603565b602082019050919050565b5f6020820190508181035f8301526156648161562b565b905091905056fea2646970667358221220d03d38d1069ebc98e883fc7f17471cadc9149cea09d11451a43d956c34a306f564736f6c634300081a0033",
			"opcodes": "PUSH2 0x100 PUSH1 0x40 MSTORE CALLVALUE DUP1 ISZERO PUSH2 0x10 JUMPI PUSH0 DUP1 REVERT JUMPDEST POP PUSH1 0x40 MLOAD PUSH2 0x6060 CODESIZE SUB DUP1 PUSH2 0x6060 DUP4 CODECOPY DUP2 DUP2 ADD PUSH1 0x40 MSTORE DUP2 ADD SWAP1 PUSH2 0x32 SWAP2 SWAP1 PUSH2 0x3C7 JUMP JUMPDEST PUSH1 0x40 MLOAD DUP1 PUSH1 0x40 ADD PUSH1 0x40 MSTORE DUP1 PUSH1 0xD DUP2 MSTORE PUSH1 0x20 ADD PUSH32 0x57616C6C205061696E74696E6700000000000000000000000000000000000000 DUP2 MSTORE POP PUSH1 0x40 MLOAD DUP1 PUSH1 0x40 ADD PUSH1 0x40 MSTORE DUP1 PUSH1 0x6 DUP2 MSTORE PUSH1 0x20 ADD PUSH32 0x575041494E540000000000000000000000000000000000000000000000000000 DUP2 MSTORE POP DUP2 PUSH0 SWAP1 DUP2 PUSH2 0xAC SWAP2 SWAP1 PUSH2 0x665 JUMP JUMPDEST POP DUP1 PUSH1 0x1 SWAP1 DUP2 PUSH2 0xBC SWAP2 SWAP1 PUSH2 0x665 JUMP JUMPDEST POP POP POP PUSH0 PUSH1 0x6 PUSH0 PUSH2 0x100 EXP DUP2 SLOAD DUP2 PUSH1 0xFF MUL NOT AND SWAP1 DUP4 ISZERO ISZERO MUL OR SWAP1 SSTORE POP PUSH0 PUSH20 0xFFFFFFFFFFFFFFFFFFFFFFFFFFFFFFFFFFFFFFFF AND DUP5 PUSH20 0xFFFFFFFFFFFFFFFFFFFFFFFFFFFFFFFFFFFFFFFF AND SUB PUSH2 0x146 JUMPI PUSH1 0x40 MLOAD PUSH32 0x8C379A000000000000000000000000000000000000000000000000000000000 DUP2 MSTORE PUSH1 0x4 ADD PUSH2 0x13D SWAP1 PUSH2 0x78E JUMP JUMPDEST PUSH1 0x40 MLOAD DUP1 SWAP2 SUB SWAP1 REVERT JUMPDEST PUSH0 PUSH20 0xFFFFFFFFFFFFFFFFFFFFFFFFFFFFFFFFFFFFFFFF AND DUP4 PUSH20 0xFFFFFFFFFFFFFFFFFFFFFFFFFFFFFFFFFFFFFFFF AND SUB PUSH2 0x1B4 JUMPI PUSH1 0x40 MLOAD PUSH32 0x8C379A000000000000000000000000000000000000000000000000000000000 DUP2 MSTORE PUSH1 0x4 ADD PUSH2 0x1AB SWAP1 PUSH2 0x7F6 JUMP JUMPDEST PUSH1 0x40 MLOAD DUP1 SWAP2 SUB SWAP1 REVERT JUMPDEST PUSH0 PUSH20 0xFFFFFFFFFFFFFFFFFFFFFFFFFFFFFFFFFFFFFFFF AND DUP3 PUSH20 0xFFFFFFFFFFFFFFFFFFFFFFFFFFFFFFFFFFFFFFFF AND SUB PUSH2 0x222 JUMPI PUSH1 0x40 MLOAD PUSH32 0x8C379A000000000000000000000000000000000000000000000000000000000 DUP2 MSTORE PUSH1 0x4 ADD PUSH2 0x219 SWAP1 PUSH2 0x85E JUMP JUMPDEST PUSH1 0x40 MLOAD DUP1 SWAP2 SUB SWAP1 REVERT JUMPDEST PUSH0 PUSH20 0xFFFFFFFFFFFFFFFFFFFFFFFFFFFFFFFFFFFFFFFF AND DUP2 PUSH20 0xFFFFFFFFFFFFFFFFFFFFFFFFFFFFFFFFFFFFFFFF AND SUB PUSH2 0x290 JUMPI PUSH1 0x40 MLOAD PUSH32 0x8C379A000000000000000000000000000000000000000000000000000000000 DUP2 MSTORE PUSH1 0x4 ADD PUSH2 0x287 SWAP1 PUSH2 0x8C6 JUMP JUMPDEST PUSH1 0x40 MLOAD DUP1 SWAP2 SUB SWAP1 REVERT JUMPDEST DUP4 PUSH20 0xFFFFFFFFFFFFFFFFFFFFFFFFFFFFFFFFFFFFFFFF AND PUSH1 0x80 DUP2 PUSH20 0xFFFFFFFFFFFFFFFFFFFFFFFFFFFFFFFFFFFFFFFF AND DUP2 MSTORE POP POP DUP3 PUSH20 0xFFFFFFFFFFFFFFFFFFFFFFFFFFFFFFFFFFFFFFFF AND PUSH1 0xA0 DUP2 PUSH20 0xFFFFFFFFFFFFFFFFFFFFFFFFFFFFFFFFFFFFFFFF AND DUP2 MSTORE POP POP DUP2 PUSH20 0xFFFFFFFFFFFFFFFFFFFFFFFFFFFFFFFFFFFFFFFF AND PUSH1 0xC0 DUP2 PUSH20 0xFFFFFFFFFFFFFFFFFFFFFFFFFFFFFFFFFFFFFFFF AND DUP2 MSTORE POP POP DUP1 PUSH20 0xFFFFFFFFFFFFFFFFFFFFFFFFFFFFFFFFFFFFFFFF AND PUSH1 0xE0 DUP2 PUSH20 0xFFFFFFFFFFFFFFFFFFFFFFFFFFFFFFFFFFFFFFFF AND DUP2 MSTORE POP POP POP POP POP POP PUSH2 0x8E4 JUMP JUMPDEST PUSH0 DUP1 REVERT JUMPDEST PUSH0 PUSH20 0xFFFFFFFFFFFFFFFFFFFFFFFFFFFFFFFFFFFFFFFF DUP3 AND SWAP1 POP SWAP2 SWAP1 POP JUMP JUMPDEST PUSH0 PUSH2 0x396 DUP3 PUSH2 0x36D JUMP JUMPDEST SWAP1 POP SWAP2 SWAP1 POP JUMP JUMPDEST PUSH2 0x3A6 DUP2 PUSH2 0x38C JUMP JUMPDEST DUP2 EQ PUSH2 0x3B0 JUMPI PUSH0 DUP1 REVERT JUMPDEST POP JUMP JUMPDEST PUSH0 DUP2 MLOAD SWAP1 POP PUSH2 0x3C1 DUP2 PUSH2 0x39D JUMP JUMPDEST SWAP3 SWAP2 POP POP JUMP JUMPDEST PUSH0 DUP1 PUSH0 DUP1 PUSH1 0x80 DUP6 DUP8 SUB SLT ISZERO PUSH2 0x3DF JUMPI PUSH2 0x3DE PUSH2 0x369 JUMP JUMPDEST JUMPDEST PUSH0 PUSH2 0x3EC DUP8 DUP3 DUP9 ADD PUSH2 0x3B3 JUMP JUMPDEST SWAP5 POP POP PUSH1 0x20 PUSH2 0x3FD DUP8 DUP3 DUP9 ADD PUSH2 0x3B3 JUMP JUMPDEST SWAP4 POP POP PUSH1 0x40 PUSH2 0x40E DUP8 DUP3 DUP9 ADD PUSH2 0x3B3 JUMP JUMPDEST SWAP3 POP POP PUSH1 0x60 PUSH2 0x41F DUP8 DUP3 DUP9 ADD PUSH2 0x3B3 JUMP JUMPDEST SWAP2 POP POP SWAP3 SWAP6 SWAP2 SWAP5 POP SWAP3 POP JUMP JUMPDEST PUSH0 DUP2 MLOAD SWAP1 POP SWAP2 SWAP1 POP JUMP JUMPDEST PUSH32 0x4E487B7100000000000000000000000000000000000000000000000000000000 PUSH0 MSTORE PUSH1 0x41 PUSH1 0x4 MSTORE PUSH1 0x24 PUSH0 REVERT JUMPDEST PUSH32 0x4E487B7100000000000000000000000000000000000000000000000000000000 PUSH0 MSTORE PUSH1 0x22 PUSH1 0x4 MSTORE PUSH1 0x24 PUSH0 REVERT JUMPDEST PUSH0 PUSH1 0x2 DUP3 DIV SWAP1 POP PUSH1 0x1 DUP3 AND DUP1 PUSH2 0x4A6 JUMPI PUSH1 0x7F DUP3 AND SWAP2 POP JUMPDEST PUSH1 0x20 DUP3 LT DUP2 SUB PUSH2 0x4B9 JUMPI PUSH2 0x4B8 PUSH2 0x462 JUMP JUMPDEST JUMPDEST POP SWAP2 SWAP1 POP JUMP JUMPDEST PUSH0 DUP2 SWAP1 POP DUP2 PUSH0 MSTORE PUSH1 0x20 PUSH0 KECCAK256 SWAP1 POP SWAP2 SWAP1 POP JUMP JUMPDEST PUSH0 PUSH1 0x20 PUSH1 0x1F DUP4 ADD DIV SWAP1 POP SWAP2 SWAP1 POP JUMP JUMPDEST PUSH0 DUP3 DUP3 SHL SWAP1 POP SWAP3 SWAP2 POP POP JUMP JUMPDEST PUSH0 PUSH1 0x8 DUP4 MUL PUSH2 0x51B PUSH32 0xFFFFFFFFFFFFFFFFFFFFFFFFFFFFFFFFFFFFFFFFFFFFFFFFFFFFFFFFFFFFFFFF DUP3 PUSH2 0x4E0 JUMP JUMPDEST PUSH2 0x525 DUP7 DUP4 PUSH2 0x4E0 JUMP JUMPDEST SWAP6 POP DUP1 NOT DUP5 AND SWAP4 POP DUP1 DUP7 AND DUP5 OR SWAP3 POP POP POP SWAP4 SWAP3 POP POP POP JUMP JUMPDEST PUSH0 DUP2 SWAP1 POP SWAP2 SWAP1 POP JUMP JUMPDEST PUSH0 DUP2 SWAP1 POP SWAP2 SWAP1 POP JUMP JUMPDEST PUSH0 PUSH2 0x569 PUSH2 0x564 PUSH2 0x55F DUP5 PUSH2 0x53D JUMP JUMPDEST PUSH2 0x546 JUMP JUMPDEST PUSH2 0x53D JUMP JUMPDEST SWAP1 POP SWAP2 SWAP1 POP JUMP JUMPDEST PUSH0 DUP2 SWAP1 POP SWAP2 SWAP1 POP JUMP JUMPDEST PUSH2 0x582 DUP4 PUSH2 0x54F JUMP JUMPDEST PUSH2 0x596 PUSH2 0x58E DUP3 PUSH2 0x570 JUMP JUMPDEST DUP5 DUP5 SLOAD PUSH2 0x4EC JUMP JUMPDEST DUP3 SSTORE POP POP POP POP JUMP JUMPDEST PUSH0 SWAP1 JUMP JUMPDEST PUSH2 0x5AA PUSH2 0x59E JUMP JUMPDEST PUSH2 0x5B5 DUP2 DUP5 DUP5 PUSH2 0x579 JUMP JUMPDEST POP POP POP JUMP JUMPDEST JUMPDEST DUP2 DUP2 LT ISZERO PUSH2 0x5D8 JUMPI PUSH2 0x5CD PUSH0 DUP3 PUSH2 0x5A2 JUMP JUMPDEST PUSH1 0x1 DUP2 ADD SWAP1 POP PUSH2 0x5BB JUMP JUMPDEST POP POP JUMP JUMPDEST PUSH1 0x1F DUP3 GT ISZERO PUSH2 0x61D JUMPI PUSH2 0x5EE DUP2 PUSH2 0x4BF JUMP JUMPDEST PUSH2 0x5F7 DUP5 PUSH2 0x4D1 JUMP JUMPDEST DUP2 ADD PUSH1 0x20 DUP6 LT ISZERO PUSH2 0x606 JUMPI DUP2 SWAP1 POP JUMPDEST PUSH2 0x61A PUSH2 0x612 DUP6 PUSH2 0x4D1 JUMP JUMPDEST DUP4 ADD DUP3 PUSH2 0x5BA JUMP JUMPDEST POP POP JUMPDEST POP POP POP JUMP JUMPDEST PUSH0 DUP3 DUP3 SHR SWAP1 POP SWAP3 SWAP2 POP POP JUMP JUMPDEST PUSH0 PUSH2 0x63D PUSH0 NOT DUP5 PUSH1 0x8 MUL PUSH2 0x622 JUMP JUMPDEST NOT DUP1 DUP4 AND SWAP2 POP POP SWAP3 SWAP2 POP POP JUMP JUMPDEST PUSH0 PUSH2 0x655 DUP4 DUP4 PUSH2 0x62E JUMP JUMPDEST SWAP2 POP DUP3 PUSH1 0x2 MUL DUP3 OR SWAP1 POP SWAP3 SWAP2 POP POP JUMP JUMPDEST PUSH2 0x66E DUP3 PUSH2 0x42B JUMP JUMPDEST PUSH8 0xFFFFFFFFFFFFFFFF DUP2 GT ISZERO PUSH2 0x687 JUMPI PUSH2 0x686 PUSH2 0x435 JUMP JUMPDEST JUMPDEST PUSH2 0x691 DUP3 SLOAD PUSH2 0x48F JUMP JUMPDEST PUSH2 0x69C DUP3 DUP3 DUP6 PUSH2 0x5DC JUMP JUMPDEST PUSH0 PUSH1 0x20 SWAP1 POP PUSH1 0x1F DUP4 GT PUSH1 0x1 DUP2 EQ PUSH2 0x6CD JUMPI PUSH0 DUP5 ISZERO PUSH2 0x6BB JUMPI DUP3 DUP8 ADD MLOAD SWAP1 POP JUMPDEST PUSH2 0x6C5 DUP6 DUP3 PUSH2 0x64A JUMP JUMPDEST DUP7 SSTORE POP PUSH2 0x72C JUMP JUMPDEST PUSH1 0x1F NOT DUP5 AND PUSH2 0x6DB DUP7 PUSH2 0x4BF JUMP JUMPDEST PUSH0 JUMPDEST DUP3 DUP2 LT ISZERO PUSH2 0x702 JUMPI DUP5 DUP10 ADD MLOAD DUP3 SSTORE PUSH1 0x1 DUP3 ADD SWAP2 POP PUSH1 0x20 DUP6 ADD SWAP5 POP PUSH1 0x20 DUP2 ADD SWAP1 POP PUSH2 0x6DD JUMP JUMPDEST DUP7 DUP4 LT ISZERO PUSH2 0x71F JUMPI DUP5 DUP10 ADD MLOAD PUSH2 0x71B PUSH1 0x1F DUP10 AND DUP3 PUSH2 0x62E JUMP JUMPDEST DUP4 SSTORE POP JUMPDEST PUSH1 0x1 PUSH1 0x2 DUP9 MUL ADD DUP9 SSTORE POP POP POP JUMPDEST POP POP POP POP POP POP JUMP JUMPDEST PUSH0 DUP3 DUP3 MSTORE PUSH1 0x20 DUP3 ADD SWAP1 POP SWAP3 SWAP2 POP POP JUMP JUMPDEST PUSH32 0x496E76616C696420526F6C654D616E6167657220616464726573730000000000 PUSH0 DUP3 ADD MSTORE POP JUMP JUMPDEST PUSH0 PUSH2 0x778 PUSH1 0x1B DUP4 PUSH2 0x734 JUMP JUMPDEST SWAP2 POP PUSH2 0x783 DUP3 PUSH2 0x744 JUMP JUMPDEST PUSH1 0x20 DUP3 ADD SWAP1 POP SWAP2 SWAP1 POP JUMP JUMPDEST PUSH0 PUSH1 0x20 DUP3 ADD SWAP1 POP DUP2 DUP2 SUB PUSH0 DUP4 ADD MSTORE PUSH2 0x7A5 DUP2 PUSH2 0x76C JUMP JUMPDEST SWAP1 POP SWAP2 SWAP1 POP JUMP JUMPDEST PUSH32 0x496E76616C69642057616C6C20636F6E74726163742061646472657373000000 PUSH0 DUP3 ADD MSTORE POP JUMP JUMPDEST PUSH0 PUSH2 0x7E0 PUSH1 0x1D DUP4 PUSH2 0x734 JUMP JUMPDEST SWAP2 POP PUSH2 0x7EB DUP3 PUSH2 0x7AC JUMP JUMPDEST PUSH1 0x20 DUP3 ADD SWAP1 POP SWAP2 SWAP1 POP JUMP JUMPDEST PUSH0 PUSH1 0x20 DUP3 ADD SWAP1 POP DUP2 DUP2 SUB PUSH0 DUP4 ADD MSTORE PUSH2 0x80D DUP2 PUSH2 0x7D4 JUMP JUMPDEST SWAP1 POP SWAP2 SWAP1 POP JUMP JUMPDEST PUSH32 0x496E76616C69642047616C6C65727920636F6E74726163742061646472657373 PUSH0 DUP3 ADD MSTORE POP JUMP JUMPDEST PUSH0 PUSH2 0x848 PUSH1 0x20 DUP4 PUSH2 0x734 JUMP JUMPDEST SWAP2 POP PUSH2 0x853 DUP3 PUSH2 0x814 JUMP JUMPDEST PUSH1 0x20 DUP3 ADD SWAP1 POP SWAP2 SWAP1 POP JUMP JUMPDEST PUSH0 PUSH1 0x20 DUP3 ADD SWAP1 POP DUP2 DUP2 SUB PUSH0 DUP4 ADD MSTORE PUSH2 0x875 DUP2 PUSH2 0x83C JUMP JUMPDEST SWAP1 POP SWAP2 SWAP1 POP JUMP JUMPDEST PUSH32 0x496E76616C69642053686172657320636F6E7472616374206164647265737300 PUSH0 DUP3 ADD MSTORE POP JUMP JUMPDEST PUSH0 PUSH2 0x8B0 PUSH1 0x1F DUP4 PUSH2 0x734 JUMP JUMPDEST SWAP2 POP PUSH2 0x8BB DUP3 PUSH2 0x87C JUMP JUMPDEST PUSH1 0x20 DUP3 ADD SWAP1 POP SWAP2 SWAP1 POP JUMP JUMPDEST PUSH0 PUSH1 0x20 DUP3 ADD SWAP1 POP DUP2 DUP2 SUB PUSH0 DUP4 ADD MSTORE PUSH2 0x8DD DUP2 PUSH2 0x8A4 JUMP JUMPDEST SWAP1 POP SWAP2 SWAP1 POP JUMP JUMPDEST PUSH1 0x80 MLOAD PUSH1 0xA0 MLOAD PUSH1 0xC0 MLOAD PUSH1 0xE0 MLOAD PUSH2 0x56A1 PUSH2 0x9BF PUSH0 CODECOPY PUSH0 DUP2 DUP2 PUSH2 0x1705 ADD MSTORE PUSH2 0x338C ADD MSTORE PUSH0 DUP2 DUP2 PUSH2 0xD1B ADD MSTORE DUP2 DUP2 PUSH2 0x16E1 ADD MSTORE DUP2 DUP2 PUSH2 0x180D ADD MSTORE DUP2 DUP2 PUSH2 0x2022 ADD MSTORE DUP2 DUP2 PUSH2 0x2417 ADD MSTORE DUP2 DUP2 PUSH2 0x31F9 ADD MSTORE PUSH2 0x329B ADD MSTORE PUSH0 DUP2 DUP2 PUSH2 0x706 ADD MSTORE DUP2 DUP2 PUSH2 0xC73 ADD MSTORE DUP2 DUP2 PUSH2 0x1332 ADD MSTORE DUP2 DUP2 PUSH2 0x172B ADD MSTORE DUP2 DUP2 PUSH2 0x1D89 ADD MSTORE DUP2 DUP2 PUSH2 0x1F40 ADD MSTORE DUP2 DUP2 PUSH2 0x2335 ADD MSTORE PUSH2 0x315B ADD MSTORE PUSH0 DUP2 DUP2 PUSH2 0x5FB ADD MSTORE DUP2 DUP2 PUSH2 0x7EC ADD MSTORE DUP2 DUP2 PUSH2 0x828 ADD MSTORE DUP2 DUP2 PUSH2 0x9B5 ADD MSTORE DUP2 DUP2 PUSH2 0x9F1 ADD MSTORE DUP2 DUP2 PUSH2 0xF2C ADD MSTORE DUP2 DUP2 PUSH2 0xF68 ADD MSTORE DUP2 DUP2 PUSH2 0x109B ADD MSTORE DUP2 DUP2 PUSH2 0x10D7 ADD MSTORE DUP2 DUP2 PUSH2 0x1A91 ADD MSTORE PUSH2 0x1ACD ADD MSTORE PUSH2 0x56A1 PUSH0 RETURN INVALID PUSH1 0x80 PUSH1 0x40 MSTORE CALLVALUE DUP1 ISZERO PUSH2 0xF JUMPI PUSH0 DUP1 REVERT JUMPDEST POP PUSH1 0x4 CALLDATASIZE LT PUSH2 0x1D7 JUMPI PUSH0 CALLDATALOAD PUSH1 0xE0 SHR DUP1 PUSH4 0x71D24B70 GT PUSH2 0x102 JUMPI DUP1 PUSH4 0xAAD53A84 GT PUSH2 0xA0 JUMPI DUP1 PUSH4 0xE1F4AB5F GT PUSH2 0x6F JUMPI DUP1 PUSH4 0xE1F4AB5F EQ PUSH2 0x561 JUMPI DUP1 PUSH4 0xE38DA54B EQ PUSH2 0x591 JUMPI DUP1 PUSH4 0xE985E9C5 EQ PUSH2 0x5AD JUMPI DUP1 PUSH4 0xEB1B1E71 EQ PUSH2 0x5DD JUMPI PUSH2 0x1D7 JUMP JUMPDEST DUP1 PUSH4 0xAAD53A84 EQ PUSH2 0x4C2 JUMPI DUP1 PUSH4 0xB88D4FDE EQ PUSH2 0x4E0 JUMPI DUP1 PUSH4 0xC7CA6DAA EQ PUSH2 0x4FC JUMPI DUP1 PUSH4 0xC87B56DD EQ PUSH2 0x531 JUMPI PUSH2 0x1D7 JUMP JUMPDEST DUP1 PUSH4 0x8456CB59 GT PUSH2 0xDC JUMPI DUP1 PUSH4 0x8456CB59 EQ PUSH2 0x44A JUMPI DUP1 PUSH4 0x95D89B41 EQ PUSH2 0x454 JUMPI DUP1 PUSH4 0xA22CB465 EQ PUSH2 0x472 JUMPI DUP1 PUSH4 0xA245E7FF EQ PUSH2 0x48E JUMPI PUSH2 0x1D7 JUMP JUMPDEST DUP1 PUSH4 0x71D24B70 EQ PUSH2 0x3F2 JUMPI DUP1 PUSH4 0x7EB4ECB4 EQ PUSH2 0x410 JUMPI DUP1 PUSH4 0x8085BE02 EQ PUSH2 0x42E JUMPI PUSH2 0x1D7 JUMP JUMPDEST DUP1 PUSH4 0x95EA7B3 GT PUSH2 0x17A JUMPI DUP1 PUSH4 0x42842E0E GT PUSH2 0x149 JUMPI DUP1 PUSH4 0x42842E0E EQ PUSH2 0x358 JUMPI DUP1 PUSH4 0x5C975ABB EQ PUSH2 0x374 JUMPI DUP1 PUSH4 0x6352211E EQ PUSH2 0x392 JUMPI DUP1 PUSH4 0x70A08231 EQ PUSH2 0x3C2 JUMPI PUSH2 0x1D7 JUMP JUMPDEST DUP1 PUSH4 0x95EA7B3 EQ PUSH2 0x2FA JUMPI DUP1 PUSH4 0x23B872DD EQ PUSH2 0x316 JUMPI DUP1 PUSH4 0x3F4BA83A EQ PUSH2 0x332 JUMPI DUP1 PUSH4 0x41BC8B64 EQ PUSH2 0x33C JUMPI PUSH2 0x1D7 JUMP JUMPDEST DUP1 PUSH4 0x6FDDE03 GT PUSH2 0x1B6 JUMPI DUP1 PUSH4 0x6FDDE03 EQ PUSH2 0x25D JUMPI DUP1 PUSH4 0x72E91D9 EQ PUSH2 0x27B JUMPI DUP1 PUSH4 0x7F2B4BE EQ PUSH2 0x297 JUMPI DUP1 PUSH4 0x81812FC EQ PUSH2 0x2CA JUMPI PUSH2 0x1D7 JUMP JUMPDEST DUP1 PUSH3 0x435DA5 EQ PUSH2 0x1DB JUMPI DUP1 PUSH4 0x1FFC9A7 EQ PUSH2 0x1F9 JUMPI DUP1 PUSH4 0x44FDF8E EQ PUSH2 0x229 JUMPI JUMPDEST PUSH0 DUP1 REVERT JUMPDEST PUSH2 0x1E3 PUSH2 0x5F9 JUMP JUMPDEST PUSH1 0x40 MLOAD PUSH2 0x1F0 SWAP2 SWAP1 PUSH2 0x3B34 JUMP JUMPDEST PUSH1 0x40 MLOAD DUP1 SWAP2 SUB SWAP1 RETURN JUMPDEST PUSH2 0x213 PUSH1 0x4 DUP1 CALLDATASIZE SUB DUP2 ADD SWAP1 PUSH2 0x20E SWAP2 SWAP1 PUSH2 0x3BB3 JUMP JUMPDEST PUSH2 0x61D JUMP JUMPDEST PUSH1 0x40 MLOAD PUSH2 0x220 SWAP2 SWAP1 PUSH2 0x3BF8 JUMP JUMPDEST PUSH1 0x40 MLOAD DUP1 SWAP2 SUB SWAP1 RETURN JUMPDEST PUSH2 0x243 PUSH1 0x4 DUP1 CALLDATASIZE SUB DUP2 ADD SWAP1 PUSH2 0x23E SWAP2 SWAP1 PUSH2 0x3C44 JUMP JUMPDEST PUSH2 0x6FE JUMP JUMPDEST PUSH1 0x40 MLOAD PUSH2 0x254 SWAP6 SWAP5 SWAP4 SWAP3 SWAP2 SWAP1 PUSH2 0x3CF1 JUMP JUMPDEST PUSH1 0x40 MLOAD DUP1 SWAP2 SUB SWAP1 RETURN JUMPDEST PUSH2 0x265 PUSH2 0x924 JUMP JUMPDEST PUSH1 0x40 MLOAD PUSH2 0x272 SWAP2 SWAP1 PUSH2 0x3DB2 JUMP JUMPDEST PUSH1 0x40 MLOAD DUP1 SWAP2 SUB SWAP1 RETURN JUMPDEST PUSH2 0x295 PUSH1 0x4 DUP1 CALLDATASIZE SUB DUP2 ADD SWAP1 PUSH2 0x290 SWAP2 SWAP1 PUSH2 0x3C44 JUMP JUMPDEST PUSH2 0x9B3 JUMP JUMPDEST STOP JUMPDEST PUSH2 0x2B1 PUSH1 0x4 DUP1 CALLDATASIZE SUB DUP2 ADD SWAP1 PUSH2 0x2AC SWAP2 SWAP1 PUSH2 0x3C44 JUMP JUMPDEST PUSH2 0xC6C JUMP JUMPDEST PUSH1 0x40 MLOAD PUSH2 0x2C1 SWAP5 SWAP4 SWAP3 SWAP2 SWAP1 PUSH2 0x3DF2 JUMP JUMPDEST PUSH1 0x40 MLOAD DUP1 SWAP2 SUB SWAP1 RETURN JUMPDEST PUSH2 0x2E4 PUSH1 0x4 DUP1 CALLDATASIZE SUB DUP2 ADD SWAP1 PUSH2 0x2DF SWAP2 SWAP1 PUSH2 0x3C44 JUMP JUMPDEST PUSH2 0xDFA JUMP JUMPDEST PUSH1 0x40 MLOAD PUSH2 0x2F1 SWAP2 SWAP1 PUSH2 0x3E35 JUMP JUMPDEST PUSH1 0x40 MLOAD DUP1 SWAP2 SUB SWAP1 RETURN JUMPDEST PUSH2 0x314 PUSH1 0x4 DUP1 CALLDATASIZE SUB DUP2 ADD SWAP1 PUSH2 0x30F SWAP2 SWAP1 PUSH2 0x3E78 JUMP JUMPDEST PUSH2 0xE15 JUMP JUMPDEST STOP JUMPDEST PUSH2 0x330 PUSH1 0x4 DUP1 CALLDATASIZE SUB DUP2 ADD SWAP1 PUSH2 0x32B SWAP2 SWAP1 PUSH2 0x3EB6 JUMP JUMPDEST PUSH2 0xE2B JUMP JUMPDEST STOP JUMPDEST PUSH2 0x33A PUSH2 0xF2A JUMP JUMPDEST STOP JUMPDEST PUSH2 0x356 PUSH1 0x4 DUP1 CALLDATASIZE SUB DUP2 ADD SWAP1 PUSH2 0x351 SWAP2 SWAP1 PUSH2 0x3F67 JUMP JUMPDEST PUSH2 0x1099 JUMP JUMPDEST STOP JUMPDEST PUSH2 0x372 PUSH1 0x4 DUP1 CALLDATASIZE SUB DUP2 ADD SWAP1 PUSH2 0x36D SWAP2 SWAP1 PUSH2 0x3EB6 JUMP JUMPDEST PUSH2 0x15E4 JUMP JUMPDEST STOP JUMPDEST PUSH2 0x37C PUSH2 0x1603 JUMP JUMPDEST PUSH1 0x40 MLOAD PUSH2 0x389 SWAP2 SWAP1 PUSH2 0x3BF8 JUMP JUMPDEST PUSH1 0x40 MLOAD DUP1 SWAP2 SUB SWAP1 RETURN JUMPDEST PUSH2 0x3AC PUSH1 0x4 DUP1 CALLDATASIZE SUB DUP2 ADD SWAP1 PUSH2 0x3A7 SWAP2 SWAP1 PUSH2 0x3C44 JUMP JUMPDEST PUSH2 0x1618 JUMP JUMPDEST PUSH1 0x40 MLOAD PUSH2 0x3B9 SWAP2 SWAP1 PUSH2 0x3E35 JUMP JUMPDEST PUSH1 0x40 MLOAD DUP1 SWAP2 SUB SWAP1 RETURN JUMPDEST PUSH2 0x3DC PUSH1 0x4 DUP1 CALLDATASIZE SUB DUP2 ADD SWAP1 PUSH2 0x3D7 SWAP2 SWAP1 PUSH2 0x3FC4 JUMP JUMPDEST PUSH2 0x1629 JUMP JUMPDEST PUSH1 0x40 MLOAD PUSH2 0x3E9 SWAP2 SWAP1 PUSH2 0x3FEF JUMP JUMPDEST PUSH1 0x40 MLOAD DUP1 SWAP2 SUB SWAP1 RETURN JUMPDEST PUSH2 0x3FA PUSH2 0x16DF JUMP JUMPDEST PUSH1 0x40 MLOAD PUSH2 0x407 SWAP2 SWAP1 PUSH2 0x4028 JUMP JUMPDEST PUSH1 0x40 MLOAD DUP1 SWAP2 SUB SWAP1 RETURN JUMPDEST PUSH2 0x418 PUSH2 0x1703 JUMP JUMPDEST PUSH1 0x40 MLOAD PUSH2 0x425 SWAP2 SWAP1 PUSH2 0x4061 JUMP JUMPDEST PUSH1 0x40 MLOAD DUP1 SWAP2 SUB SWAP1 RETURN JUMPDEST PUSH2 0x448 PUSH1 0x4 DUP1 CALLDATASIZE SUB DUP2 ADD SWAP1 PUSH2 0x443 SWAP2 SWAP1 PUSH2 0x3C44 JUMP JUMPDEST PUSH2 0x1727 JUMP JUMPDEST STOP JUMPDEST PUSH2 0x452 PUSH2 0x1A8F JUMP JUMPDEST STOP JUMPDEST PUSH2 0x45C PUSH2 0x1BFE JUMP JUMPDEST PUSH1 0x40 MLOAD PUSH2 0x469 SWAP2 SWAP1 PUSH2 0x3DB2 JUMP JUMPDEST PUSH1 0x40 MLOAD DUP1 SWAP2 SUB SWAP1 RETURN JUMPDEST PUSH2 0x48C PUSH1 0x4 DUP1 CALLDATASIZE SUB DUP2 ADD SWAP1 PUSH2 0x487 SWAP2 SWAP1 PUSH2 0x40A4 JUMP JUMPDEST PUSH2 0x1C8E JUMP JUMPDEST STOP JUMPDEST PUSH2 0x4A8 PUSH1 0x4 DUP1 CALLDATASIZE SUB DUP2 ADD SWAP1 PUSH2 0x4A3 SWAP2 SWAP1 PUSH2 0x3C44 JUMP JUMPDEST PUSH2 0x1CA4 JUMP JUMPDEST PUSH1 0x40 MLOAD PUSH2 0x4B9 SWAP6 SWAP5 SWAP4 SWAP3 SWAP2 SWAP1 PUSH2 0x40E2 JUMP JUMPDEST PUSH1 0x40 MLOAD DUP1 SWAP2 SUB SWAP1 RETURN JUMPDEST PUSH2 0x4CA PUSH2 0x1D87 JUMP JUMPDEST PUSH1 0x40 MLOAD PUSH2 0x4D7 SWAP2 SWAP1 PUSH2 0x415A JUMP JUMPDEST PUSH1 0x40 MLOAD DUP1 SWAP2 SUB SWAP1 RETURN JUMPDEST PUSH2 0x4FA PUSH1 0x4 DUP1 CALLDATASIZE SUB DUP2 ADD SWAP1 PUSH2 0x4F5 SWAP2 SWAP1 PUSH2 0x429B JUMP JUMPDEST PUSH2 0x1DAB JUMP JUMPDEST STOP JUMPDEST PUSH2 0x516 PUSH1 0x4 DUP1 CALLDATASIZE SUB DUP2 ADD SWAP1 PUSH2 0x511 SWAP2 SWAP1 PUSH2 0x3C44 JUMP JUMPDEST PUSH2 0x1DD0 JUMP JUMPDEST PUSH1 0x40 MLOAD PUSH2 0x528 SWAP7 SWAP6 SWAP5 SWAP4 SWAP3 SWAP2 SWAP1 PUSH2 0x431B JUMP JUMPDEST PUSH1 0x40 MLOAD DUP1 SWAP2 SUB SWAP1 RETURN JUMPDEST PUSH2 0x54B PUSH1 0x4 DUP1 CALLDATASIZE SUB DUP2 ADD SWAP1 PUSH2 0x546 SWAP2 SWAP1 PUSH2 0x3C44 JUMP JUMPDEST PUSH2 0x1EB9 JUMP JUMPDEST PUSH1 0x40 MLOAD PUSH2 0x558 SWAP2 SWAP1 PUSH2 0x3DB2 JUMP JUMPDEST PUSH1 0x40 MLOAD DUP1 SWAP2 SUB SWAP1 RETURN JUMPDEST PUSH2 0x57B PUSH1 0x4 DUP1 CALLDATASIZE SUB DUP2 ADD SWAP1 PUSH2 0x576 SWAP2 SWAP1 PUSH2 0x3C44 JUMP JUMPDEST PUSH2 0x1F1F JUMP JUMPDEST PUSH1 0x40 MLOAD PUSH2 0x588 SWAP2 SWAP1 PUSH2 0x3BF8 JUMP JUMPDEST PUSH1 0x40 MLOAD DUP1 SWAP2 SUB SWAP1 RETURN JUMPDEST PUSH2 0x5AB PUSH1 0x4 DUP1 CALLDATASIZE SUB DUP2 ADD SWAP1 PUSH2 0x5A6 SWAP2 SWAP1 PUSH2 0x3C44 JUMP JUMPDEST PUSH2 0x1F3C JUMP JUMPDEST STOP JUMPDEST PUSH2 0x5C7 PUSH1 0x4 DUP1 CALLDATASIZE SUB DUP2 ADD SWAP1 PUSH2 0x5C2 SWAP2 SWAP1 PUSH2 0x4381 JUMP JUMPDEST PUSH2 0x22A3 JUMP JUMPDEST PUSH1 0x40 MLOAD PUSH2 0x5D4 SWAP2 SWAP1 PUSH2 0x3BF8 JUMP JUMPDEST PUSH1 0x40 MLOAD DUP1 SWAP2 SUB SWAP1 RETURN JUMPDEST PUSH2 0x5F7 PUSH1 0x4 DUP1 CALLDATASIZE SUB DUP2 ADD SWAP1 PUSH2 0x5F2 SWAP2 SWAP1 PUSH2 0x3C44 JUMP JUMPDEST PUSH2 0x2331 JUMP JUMPDEST STOP JUMPDEST PUSH32 0x0 DUP2 JUMP JUMPDEST PUSH0 PUSH32 0x80AC58CD00000000000000000000000000000000000000000000000000000000 PUSH28 0xFFFFFFFFFFFFFFFFFFFFFFFFFFFFFFFFFFFFFFFFFFFFFFFFFFFFFFFF NOT AND DUP3 PUSH28 0xFFFFFFFFFFFFFFFFFFFFFFFFFFFFFFFFFFFFFFFFFFFFFFFFFFFFFFFF NOT AND EQ DUP1 PUSH2 0x6E7 JUMPI POP PUSH32 0x5B5E139F00000000000000000000000000000000000000000000000000000000 PUSH28 0xFFFFFFFFFFFFFFFFFFFFFFFFFFFFFFFFFFFFFFFFFFFFFFFFFFFFFFFF NOT AND DUP3 PUSH28 0xFFFFFFFFFFFFFFFFFFFFFFFFFFFFFFFFFFFFFFFFFFFFFFFFFFFFFFFF NOT AND EQ JUMPDEST DUP1 PUSH2 0x6F7 JUMPI POP PUSH2 0x6F6 DUP3 PUSH2 0x286C JUMP JUMPDEST JUMPDEST SWAP1 POP SWAP2 SWAP1 POP JUMP JUMPDEST PUSH0 DUP1 PUSH0 DUP1 PUSH0 DUP1 PUSH32 0x0 PUSH20 0xFFFFFFFFFFFFFFFFFFFFFFFFFFFFFFFFFFFFFFFF AND PUSH4 0xFF91E489 DUP9 PUSH1 0x40 MLOAD DUP3 PUSH4 0xFFFFFFFF AND PUSH1 0xE0 SHL DUP2 MSTORE PUSH1 0x4 ADD PUSH2 0x75D SWAP2 SWAP1 PUSH2 0x3FEF JUMP JUMPDEST PUSH0 PUSH1 0x40 MLOAD DUP1 DUP4 SUB DUP2 DUP7 GAS STATICCALL ISZERO DUP1 ISZERO PUSH2 0x777 JUMPI RETURNDATASIZE PUSH0 DUP1 RETURNDATACOPY RETURNDATASIZE PUSH0 REVERT JUMPDEST POP POP POP POP PUSH1 0x40 MLOAD RETURNDATASIZE PUSH0 DUP3 RETURNDATACOPY RETURNDATASIZE PUSH1 0x1F NOT PUSH1 0x1F DUP3 ADD AND DUP3 ADD DUP1 PUSH1 0x40 MSTORE POP DUP2 ADD SWAP1 PUSH2 0x79F SWAP2 SWAP1 PUSH2 0x46AA JUMP JUMPDEST SWAP1 POP PUSH1 0xA PUSH0 DUP9 DUP2 MSTORE PUSH1 0x20 ADD SWAP1 DUP2 MSTORE PUSH1 0x20 ADD PUSH0 KECCAK256 PUSH0 SWAP1 SLOAD SWAP1 PUSH2 0x100 EXP SWAP1 DIV PUSH1 0xFF AND PUSH1 0x9 PUSH0 DUP10 DUP2 MSTORE PUSH1 0x20 ADD SWAP1 DUP2 MSTORE PUSH1 0x20 ADD PUSH0 KECCAK256 PUSH1 0x3 ADD PUSH0 SWAP1 SLOAD SWAP1 PUSH2 0x100 EXP SWAP1 DIV PUSH1 0xFF AND DUP3 PUSH1 0xA0 ADD MLOAD DUP4 PUSH1 0xC0 ADD MLOAD PUSH32 0x0 PUSH20 0xFFFFFFFFFFFFFFFFFFFFFFFFFFFFFFFFFFFFFFFF AND PUSH4 0x91D14854 PUSH32 0x0 PUSH20 0xFFFFFFFFFFFFFFFFFFFFFFFFFFFFFFFFFFFFFFFF AND PUSH4 0x303E3840 PUSH1 0x40 MLOAD DUP2 PUSH4 0xFFFFFFFF AND PUSH1 0xE0 SHL DUP2 MSTORE PUSH1 0x4 ADD PUSH1 0x20 PUSH1 0x40 MLOAD DUP1 DUP4 SUB DUP2 DUP7 GAS STATICCALL ISZERO DUP1 ISZERO PUSH2 0x88F JUMPI RETURNDATASIZE PUSH0 DUP1 RETURNDATACOPY RETURNDATASIZE PUSH0 REVERT JUMPDEST POP POP POP POP PUSH1 0x40 MLOAD RETURNDATASIZE PUSH1 0x1F NOT PUSH1 0x1F DUP3 ADD AND DUP3 ADD DUP1 PUSH1 0x40 MSTORE POP DUP2 ADD SWAP1 PUSH2 0x8B3 SWAP2 SWAP1 PUSH2 0x4724 JUMP JUMPDEST CALLER PUSH1 0x40 MLOAD DUP4 PUSH4 0xFFFFFFFF AND PUSH1 0xE0 SHL DUP2 MSTORE PUSH1 0x4 ADD PUSH2 0x8D1 SWAP3 SWAP2 SWAP1 PUSH2 0x475E JUMP JUMPDEST PUSH1 0x20 PUSH1 0x40 MLOAD DUP1 DUP4 SUB DUP2 DUP7 GAS STATICCALL ISZERO DUP1 ISZERO PUSH2 0x8EC JUMPI RETURNDATASIZE PUSH0 DUP1 RETURNDATACOPY RETURNDATASIZE PUSH0 REVERT JUMPDEST POP POP POP POP PUSH1 0x40 MLOAD RETURNDATASIZE PUSH1 0x1F NOT PUSH1 0x1F DUP3 ADD AND DUP3 ADD DUP1 PUSH1 0x40 MSTORE POP DUP2 ADD SWAP1 PUSH2 0x910 SWAP2 SWAP1 PUSH2 0x4785 JUMP JUMPDEST SWAP6 POP SWAP6 POP SWAP6 POP SWAP6 POP SWAP6 POP POP SWAP2 SWAP4 SWAP6 SWAP1 SWAP3 SWAP5 POP JUMP JUMPDEST PUSH1 0x60 PUSH0 DUP1 SLOAD PUSH2 0x932 SWAP1 PUSH2 0x47DD JUMP JUMPDEST DUP1 PUSH1 0x1F ADD PUSH1 0x20 DUP1 SWAP2 DIV MUL PUSH1 0x20 ADD PUSH1 0x40 MLOAD SWAP1 DUP2 ADD PUSH1 0x40 MSTORE DUP1 SWAP3 SWAP2 SWAP1 DUP2 DUP2 MSTORE PUSH1 0x20 ADD DUP3 DUP1 SLOAD PUSH2 0x95E SWAP1 PUSH2 0x47DD JUMP JUMPDEST DUP1 ISZERO PUSH2 0x9A9 JUMPI DUP1 PUSH1 0x1F LT PUSH2 0x980 JUMPI PUSH2 0x100 DUP1 DUP4 SLOAD DIV MUL DUP4 MSTORE SWAP2 PUSH1 0x20 ADD SWAP2 PUSH2 0x9A9 JUMP JUMPDEST DUP3 ADD SWAP2 SWAP1 PUSH0 MSTORE PUSH1 0x20 PUSH0 KECCAK256 SWAP1 JUMPDEST DUP2 SLOAD DUP2 MSTORE SWAP1 PUSH1 0x1 ADD SWAP1 PUSH1 0x20 ADD DUP1 DUP4 GT PUSH2 0x98C JUMPI DUP3 SWAP1 SUB PUSH1 0x1F AND DUP3 ADD SWAP2 JUMPDEST POP POP POP POP POP SWAP1 POP SWAP1 JUMP JUMPDEST PUSH32 0x0 PUSH20 0xFFFFFFFFFFFFFFFFFFFFFFFFFFFFFFFFFFFFFFFF AND PUSH4 0x91D14854 PUSH32 0x0 PUSH20 0xFFFFFFFFFFFFFFFFFFFFFFFFFFFFFFFFFFFFFFFF AND PUSH4 0x303E3840 PUSH1 0x40 MLOAD DUP2 PUSH4 0xFFFFFFFF AND PUSH1 0xE0 SHL DUP2 MSTORE PUSH1 0x4 ADD PUSH1 0x20 PUSH1 0x40 MLOAD DUP1 DUP4 SUB DUP2 DUP7 GAS STATICCALL ISZERO DUP1 ISZERO PUSH2 0xA58 JUMPI RETURNDATASIZE PUSH0 DUP1 RETURNDATACOPY RETURNDATASIZE PUSH0 REVERT JUMPDEST POP POP POP POP PUSH1 0x40 MLOAD RETURNDATASIZE PUSH1 0x1F NOT PUSH1 0x1F DUP3 ADD AND DUP3 ADD DUP1 PUSH1 0x40 MSTORE POP DUP2 ADD SWAP1 PUSH2 0xA7C SWAP2 SWAP1 PUSH2 0x4724 JUMP JUMPDEST CALLER PUSH1 0x40 MLOAD DUP4 PUSH4 0xFFFFFFFF AND PUSH1 0xE0 SHL DUP2 MSTORE PUSH1 0x4 ADD PUSH2 0xA9A SWAP3 SWAP2 SWAP1 PUSH2 0x475E JUMP JUMPDEST PUSH1 0x20 PUSH1 0x40 MLOAD DUP1 DUP4 SUB DUP2 DUP7 GAS STATICCALL ISZERO DUP1 ISZERO PUSH2 0xAB5 JUMPI RETURNDATASIZE PUSH0 DUP1 RETURNDATACOPY RETURNDATASIZE PUSH0 REVERT JUMPDEST POP POP POP POP PUSH1 0x40 MLOAD RETURNDATASIZE PUSH1 0x1F NOT PUSH1 0x1F DUP3 ADD AND DUP3 ADD DUP1 PUSH1 0x40 MSTORE POP DUP2 ADD SWAP1 PUSH2 0xAD9 SWAP2 SWAP1 PUSH2 0x4785 JUMP JUMPDEST PUSH2 0xB18 JUMPI PUSH1 0x40 MLOAD PUSH32 0x8C379A000000000000000000000000000000000000000000000000000000000 DUP2 MSTORE PUSH1 0x4 ADD PUSH2 0xB0F SWAP1 PUSH2 0x4857 JUMP JUMPDEST PUSH1 0x40 MLOAD DUP1 SWAP2 SUB SWAP1 REVERT JUMPDEST PUSH2 0xB20 PUSH2 0x28D5 JUMP JUMPDEST PUSH0 PUSH1 0x9 PUSH0 DUP4 DUP2 MSTORE PUSH1 0x20 ADD SWAP1 DUP2 MSTORE PUSH1 0x20 ADD PUSH0 KECCAK256 SWAP1 POP CALLER PUSH20 0xFFFFFFFFFFFFFFFFFFFFFFFFFFFFFFFFFFFFFFFF AND DUP2 PUSH1 0x1 ADD PUSH0 SWAP1 SLOAD SWAP1 PUSH2 0x100 EXP SWAP1 DIV PUSH20 0xFFFFFFFFFFFFFFFFFFFFFFFFFFFFFFFFFFFFFFFF AND PUSH20 0xFFFFFFFFFFFFFFFFFFFFFFFFFFFFFFFFFFFFFFFF AND EQ PUSH2 0xBC5 JUMPI PUSH1 0x40 MLOAD PUSH32 0x8C379A000000000000000000000000000000000000000000000000000000000 DUP2 MSTORE PUSH1 0x4 ADD PUSH2 0xBBC SWAP1 PUSH2 0x48BF JUMP JUMPDEST PUSH1 0x40 MLOAD DUP1 SWAP2 SUB SWAP1 REVERT JUMPDEST PUSH1 0x2 PUSH1 0x3 DUP2 GT ISZERO PUSH2 0xBD9 JUMPI PUSH2 0xBD8 PUSH2 0x3C6F JUMP JUMPDEST JUMPDEST DUP2 PUSH1 0x3 ADD PUSH0 SWAP1 SLOAD SWAP1 PUSH2 0x100 EXP SWAP1 DIV PUSH1 0xFF AND PUSH1 0x3 DUP2 GT ISZERO PUSH2 0xBFC JUMPI PUSH2 0xBFB PUSH2 0x3C6F JUMP JUMPDEST JUMPDEST EQ PUSH2 0xC3C JUMPI PUSH1 0x40 MLOAD PUSH32 0x8C379A000000000000000000000000000000000000000000000000000000000 DUP2 MSTORE PUSH1 0x4 ADD PUSH2 0xC33 SWAP1 PUSH2 0x4927 JUMP JUMPDEST PUSH1 0x40 MLOAD DUP1 SWAP2 SUB SWAP1 REVERT JUMPDEST PUSH1 0x3 DUP2 PUSH1 0x3 ADD PUSH0 PUSH2 0x100 EXP DUP2 SLOAD DUP2 PUSH1 0xFF MUL NOT AND SWAP1 DUP4 PUSH1 0x3 DUP2 GT ISZERO PUSH2 0xC63 JUMPI PUSH2 0xC62 PUSH2 0x3C6F JUMP JUMPDEST JUMPDEST MUL OR SWAP1 SSTORE POP POP POP JUMP JUMPDEST PUSH0 DUP1 PUSH0 DUP1 PUSH0 PUSH32 0x0 PUSH20 0xFFFFFFFFFFFFFFFFFFFFFFFFFFFFFFFFFFFFFFFF AND PUSH4 0xFF91E489 DUP8 PUSH1 0x40 MLOAD DUP3 PUSH4 0xFFFFFFFF AND PUSH1 0xE0 SHL DUP2 MSTORE PUSH1 0x4 ADD PUSH2 0xCCA SWAP2 SWAP1 PUSH2 0x3FEF JUMP JUMPDEST PUSH0 PUSH1 0x40 MLOAD DUP1 DUP4 SUB DUP2 DUP7 GAS STATICCALL ISZERO DUP1 ISZERO PUSH2 0xCE4 JUMPI RETURNDATASIZE PUSH0 DUP1 RETURNDATACOPY RETURNDATASIZE PUSH0 REVERT JUMPDEST POP POP POP POP PUSH1 0x40 MLOAD RETURNDATASIZE PUSH0 DUP3 RETURNDATACOPY RETURNDATASIZE PUSH1 0x1F NOT PUSH1 0x1F DUP3 ADD AND DUP3 ADD DUP1 PUSH1 0x40 MSTORE POP DUP2 ADD SWAP1 PUSH2 0xD0C SWAP2 SWAP1 PUSH2 0x46AA JUMP JUMPDEST SWAP1 POP DUP1 PUSH1 0xA0 ADD MLOAD ISZERO PUSH2 0xDDD JUMPI PUSH0 PUSH32 0x0 PUSH20 0xFFFFFFFFFFFFFFFFFFFFFFFFFFFFFFFFFFFFFFFF AND PUSH4 0xE3FBF314 DUP4 PUSH1 0xC0 ADD MLOAD PUSH1 0x40 MLOAD DUP3 PUSH4 0xFFFFFFFF AND PUSH1 0xE0 SHL DUP2 MSTORE PUSH1 0x4 ADD PUSH2 0xD76 SWAP2 SWAP1 PUSH2 0x3FEF JUMP JUMPDEST PUSH0 PUSH1 0x40 MLOAD DUP1 DUP4 SUB DUP2 DUP7 GAS STATICCALL ISZERO DUP1 ISZERO PUSH2 0xD90 JUMPI RETURNDATASIZE PUSH0 DUP1 RETURNDATACOPY RETURNDATASIZE PUSH0 REVERT JUMPDEST POP POP POP POP PUSH1 0x40 MLOAD RETURNDATASIZE PUSH0 DUP3 RETURNDATACOPY RETURNDATASIZE PUSH1 0x1F NOT PUSH1 0x1F DUP3 ADD AND DUP3 ADD DUP1 PUSH1 0x40 MSTORE POP DUP2 ADD SWAP1 PUSH2 0xDB8 SWAP2 SWAP1 PUSH2 0x4B23 JUMP JUMPDEST SWAP1 POP DUP2 PUSH1 0xA0 ADD MLOAD DUP3 PUSH1 0xC0 ADD MLOAD DUP3 PUSH1 0x80 ADD MLOAD DUP4 PUSH1 0xC0 ADD MLOAD SWAP6 POP SWAP6 POP SWAP6 POP SWAP6 POP POP POP PUSH2 0xDF3 JUMP JUMPDEST DUP1 PUSH1 0xA0 ADD MLOAD DUP2 PUSH1 0xC0 ADD MLOAD PUSH0 DUP1 SWAP5 POP SWAP5 POP SWAP5 POP SWAP5 POP POP JUMPDEST SWAP2 SWAP4 POP SWAP2 SWAP4 JUMP JUMPDEST PUSH0 PUSH2 0xE04 DUP3 PUSH2 0x291F JUMP JUMPDEST POP PUSH2 0xE0E DUP3 PUSH2 0x29A5 JUMP JUMPDEST SWAP1 POP SWAP2 SWAP1 POP JUMP JUMPDEST PUSH2 0xE27 DUP3 DUP3 PUSH2 0xE22 PUSH2 0x29DE JUMP JUMPDEST PUSH2 0x29E5 JUMP JUMPDEST POP POP JUMP JUMPDEST PUSH0 PUSH20 0xFFFFFFFFFFFFFFFFFFFFFFFFFFFFFFFFFFFFFFFF AND DUP3 PUSH20 0xFFFFFFFFFFFFFFFFFFFFFFFFFFFFFFFFFFFFFFFF AND SUB PUSH2 0xE9B JUMPI PUSH0 PUSH1 0x40 MLOAD PUSH32 0x64A0AE9200000000000000000000000000000000000000000000000000000000 DUP2 MSTORE PUSH1 0x4 ADD PUSH2 0xE92 SWAP2 SWAP1 PUSH2 0x3E35 JUMP JUMPDEST PUSH1 0x40 MLOAD DUP1 SWAP2 SUB SWAP1 REVERT JUMPDEST PUSH0 PUSH2 0xEAE DUP4 DUP4 PUSH2 0xEA9 PUSH2 0x29DE JUMP JUMPDEST PUSH2 0x29F7 JUMP JUMPDEST SWAP1 POP DUP4 PUSH20 0xFFFFFFFFFFFFFFFFFFFFFFFFFFFFFFFFFFFFFFFF AND DUP2 PUSH20 0xFFFFFFFFFFFFFFFFFFFFFFFFFFFFFFFFFFFFFFFF AND EQ PUSH2 0xF24 JUMPI DUP4 DUP3 DUP3 PUSH1 0x40 MLOAD PUSH32 0x64283D7B00000000000000000000000000000000000000000000000000000000 DUP2 MSTORE PUSH1 0x4 ADD PUSH2 0xF1B SWAP4 SWAP3 SWAP2 SWAP1 PUSH2 0x4B6A JUMP JUMPDEST PUSH1 0x40 MLOAD DUP1 SWAP2 SUB SWAP1 REVERT JUMPDEST POP POP POP POP JUMP JUMPDEST PUSH32 0x0 PUSH20 0xFFFFFFFFFFFFFFFFFFFFFFFFFFFFFFFFFFFFFFFF AND PUSH4 0x91D14854 PUSH32 0x0 PUSH20 0xFFFFFFFFFFFFFFFFFFFFFFFFFFFFFFFFFFFFFFFF AND PUSH4 0x75B238FC PUSH1 0x40 MLOAD DUP2 PUSH4 0xFFFFFFFF AND PUSH1 0xE0 SHL DUP2 MSTORE PUSH1 0x4 ADD PUSH1 0x20 PUSH1 0x40 MLOAD DUP1 DUP4 SUB DUP2 DUP7 GAS STATICCALL ISZERO DUP1 ISZERO PUSH2 0xFCF JUMPI RETURNDATASIZE PUSH0 DUP1 RETURNDATACOPY RETURNDATASIZE PUSH0 REVERT JUMPDEST POP POP POP POP PUSH1 0x40 MLOAD RETURNDATASIZE PUSH1 0x1F NOT PUSH1 0x1F DUP3 ADD AND DUP3 ADD DUP1 PUSH1 0x40 MSTORE POP DUP2 ADD SWAP1 PUSH2 0xFF3 SWAP2 SWAP1 PUSH2 0x4724 JUMP JUMPDEST CALLER PUSH1 0x40 MLOAD DUP4 PUSH4 0xFFFFFFFF AND PUSH1 0xE0 SHL DUP2 MSTORE PUSH1 0x4 ADD PUSH2 0x1011 SWAP3 SWAP2 SWAP1 PUSH2 0x475E JUMP JUMPDEST PUSH1 0x20 PUSH1 0x40 MLOAD DUP1 DUP4 SUB DUP2 DUP7 GAS STATICCALL ISZERO DUP1 ISZERO PUSH2 0x102C JUMPI RETURNDATASIZE PUSH0 DUP1 RETURNDATACOPY RETURNDATASIZE PUSH0 REVERT JUMPDEST POP POP POP POP PUSH1 0x40 MLOAD RETURNDATASIZE PUSH1 0x1F NOT PUSH1 0x1F DUP3 ADD AND DUP3 ADD DUP1 PUSH1 0x40 MSTORE POP DUP2 ADD SWAP1 PUSH2 0x1050 SWAP2 SWAP1 PUSH2 0x4785 JUMP JUMPDEST PUSH2 0x108F JUMPI PUSH1 0x40 MLOAD PUSH32 0x8C379A000000000000000000000000000000000000000000000000000000000 DUP2 MSTORE PUSH1 0x4 ADD PUSH2 0x1086 SWAP1 PUSH2 0x4BE9 JUMP JUMPDEST PUSH1 0x40 MLOAD DUP1 SWAP2 SUB SWAP1 REVERT JUMPDEST PUSH2 0x1097 PUSH2 0x2C02 JUMP JUMPDEST JUMP JUMPDEST PUSH32 0x0 PUSH20 0xFFFFFFFFFFFFFFFFFFFFFFFFFFFFFFFFFFFFFFFF AND PUSH4 0x91D14854 PUSH32 0x0 PUSH20 0xFFFFFFFFFFFFFFFFFFFFFFFFFFFFFFFFFFFFFFFF AND PUSH4 0x303E3840 PUSH1 0x40 MLOAD DUP2 PUSH4 0xFFFFFFFF AND PUSH1 0xE0 SHL DUP2 MSTORE PUSH1 0x4 ADD PUSH1 0x20 PUSH1 0x40 MLOAD DUP1 DUP4 SUB DUP2 DUP7 GAS STATICCALL ISZERO DUP1 ISZERO PUSH2 0x113E JUMPI RETURNDATASIZE PUSH0 DUP1 RETURNDATACOPY RETURNDATASIZE PUSH0 REVERT JUMPDEST POP POP POP POP PUSH1 0x40 MLOAD RETURNDATASIZE PUSH1 0x1F NOT PUSH1 0x1F DUP3 ADD AND DUP3 ADD DUP1 PUSH1 0x40 MSTORE POP DUP2 ADD SWAP1 PUSH2 0x1162 SWAP2 SWAP1 PUSH2 0x4724 JUMP JUMPDEST CALLER PUSH1 0x40 MLOAD DUP4 PUSH4 0xFFFFFFFF AND PUSH1 0xE0 SHL DUP2 MSTORE PUSH1 0x4 ADD PUSH2 0x1180 SWAP3 SWAP2 SWAP1 PUSH2 0x475E JUMP JUMPDEST PUSH1 0x20 PUSH1 0x40 MLOAD DUP1 DUP4 SUB DUP2 DUP7 GAS STATICCALL ISZERO DUP1 ISZERO PUSH2 0x119B JUMPI RETURNDATASIZE PUSH0 DUP1 RETURNDATACOPY RETURNDATASIZE PUSH0 REVERT JUMPDEST POP POP POP POP PUSH1 0x40 MLOAD RETURNDATASIZE PUSH1 0x1F NOT PUSH1 0x1F DUP3 ADD AND DUP3 ADD DUP1 PUSH1 0x40 MSTORE POP DUP2 ADD SWAP1 PUSH2 0x11BF SWAP2 SWAP1 PUSH2 0x4785 JUMP JUMPDEST PUSH2 0x11FE JUMPI PUSH1 0x40 MLOAD PUSH32 0x8C379A000000000000000000000000000000000000000000000000000000000 DUP2 MSTORE PUSH1 0x4 ADD PUSH2 0x11F5 SWAP1 PUSH2 0x4857 JUMP JUMPDEST PUSH1 0x40 MLOAD DUP1 SWAP2 SUB SWAP1 REVERT JUMPDEST PUSH2 0x1206 PUSH2 0x28D5 JUMP JUMPDEST PUSH0 DUP3 DUP3 SWAP1 POP GT PUSH2 0x124B JUMPI PUSH1 0x40 MLOAD PUSH32 0x8C379A000000000000000000000000000000000000000000000000000000000 DUP2 MSTORE PUSH1 0x4 ADD PUSH2 0x1242 SWAP1 PUSH2 0x4C51 JUMP JUMPDEST PUSH1 0x40 MLOAD DUP1 SWAP2 SUB SWAP1 REVERT JUMPDEST PUSH1 0xA PUSH0 DUP5 DUP2 MSTORE PUSH1 0x20 ADD SWAP1 DUP2 MSTORE PUSH1 0x20 ADD PUSH0 KECCAK256 PUSH0 SWAP1 SLOAD SWAP1 PUSH2 0x100 EXP SWAP1 DIV PUSH1 0xFF AND ISZERO PUSH2 0x12A9 JUMPI PUSH1 0x40 MLOAD PUSH32 0x8C379A000000000000000000000000000000000000000000000000000000000 DUP2 MSTORE PUSH1 0x4 ADD PUSH2 0x12A0 SWAP1 PUSH2 0x4CB9 JUMP JUMPDEST PUSH1 0x40 MLOAD DUP1 SWAP2 SUB SWAP1 REVERT JUMPDEST PUSH0 PUSH1 0x3 DUP2 GT ISZERO PUSH2 0x12BC JUMPI PUSH2 0x12BB PUSH2 0x3C6F JUMP JUMPDEST JUMPDEST PUSH1 0x9 PUSH0 DUP6 DUP2 MSTORE PUSH1 0x20 ADD SWAP1 DUP2 MSTORE PUSH1 0x20 ADD PUSH0 KECCAK256 PUSH1 0x3 ADD PUSH0 SWAP1 SLOAD SWAP1 PUSH2 0x100 EXP SWAP1 DIV PUSH1 0xFF AND PUSH1 0x3 DUP2 GT ISZERO PUSH2 0x12EF JUMPI PUSH2 0x12EE PUSH2 0x3C6F JUMP JUMPDEST JUMPDEST EQ PUSH2 0x132F JUMPI PUSH1 0x40 MLOAD PUSH32 0x8C379A000000000000000000000000000000000000000000000000000000000 DUP2 MSTORE PUSH1 0x4 ADD PUSH2 0x1326 SWAP1 PUSH2 0x4D47 JUMP JUMPDEST PUSH1 0x40 MLOAD DUP1 SWAP2 SUB SWAP1 REVERT JUMPDEST PUSH0 PUSH32 0x0 PUSH20 0xFFFFFFFFFFFFFFFFFFFFFFFFFFFFFFFFFFFFFFFF AND PUSH4 0xFF91E489 DUP6 PUSH1 0x40 MLOAD DUP3 PUSH4 0xFFFFFFFF AND PUSH1 0xE0 SHL DUP2 MSTORE PUSH1 0x4 ADD PUSH2 0x1389 SWAP2 SWAP1 PUSH2 0x3FEF JUMP JUMPDEST PUSH0 PUSH1 0x40 MLOAD DUP1 DUP4 SUB DUP2 DUP7 GAS STATICCALL ISZERO DUP1 ISZERO PUSH2 0x13A3 JUMPI RETURNDATASIZE PUSH0 DUP1 RETURNDATACOPY RETURNDATASIZE PUSH0 REVERT JUMPDEST POP POP POP POP PUSH1 0x40 MLOAD RETURNDATASIZE PUSH0 DUP3 RETURNDATACOPY RETURNDATASIZE PUSH1 0x1F NOT PUSH1 0x1F DUP3 ADD AND DUP3 ADD DUP1 PUSH1 0x40 MSTORE POP DUP2 ADD SWAP1 PUSH2 0x13CB SWAP2 SWAP1 PUSH2 0x46AA JUMP JUMPDEST SWAP1 POP DUP4 DUP2 PUSH0 ADD MLOAD EQ PUSH2 0x1412 JUMPI PUSH1 0x40 MLOAD PUSH32 0x8C379A000000000000000000000000000000000000000000000000000000000 DUP2 MSTORE PUSH1 0x4 ADD PUSH2 0x1409 SWAP1 PUSH2 0x4DAF JUMP JUMPDEST PUSH1 0x40 MLOAD DUP1 SWAP2 SUB SWAP1 REVERT JUMPDEST DUP1 PUSH1 0xA0 ADD MLOAD PUSH2 0x1456 JUMPI PUSH1 0x40 MLOAD PUSH32 0x8C379A000000000000000000000000000000000000000000000000000000000 DUP2 MSTORE PUSH1 0x4 ADD PUSH2 0x144D SWAP1 PUSH2 0x4E17 JUMP JUMPDEST PUSH1 0x40 MLOAD DUP1 SWAP2 SUB SWAP1 REVERT JUMPDEST PUSH1 0x40 MLOAD DUP1 PUSH1 0xA0 ADD PUSH1 0x40 MSTORE DUP1 DUP6 DUP2 MSTORE PUSH1 0x20 ADD CALLER PUSH20 0xFFFFFFFFFFFFFFFFFFFFFFFFFFFFFFFFFFFFFFFF AND DUP2 MSTORE PUSH1 0x20 ADD DUP5 DUP5 DUP1 DUP1 PUSH1 0x1F ADD PUSH1 0x20 DUP1 SWAP2 DIV MUL PUSH1 0x20 ADD PUSH1 0x40 MLOAD SWAP1 DUP2 ADD PUSH1 0x40 MSTORE DUP1 SWAP4 SWAP3 SWAP2 SWAP1 DUP2 DUP2 MSTORE PUSH1 0x20 ADD DUP4 DUP4 DUP1 DUP3 DUP5 CALLDATACOPY PUSH0 DUP2 DUP5 ADD MSTORE PUSH1 0x1F NOT PUSH1 0x1F DUP3 ADD AND SWAP1 POP DUP1 DUP4 ADD SWAP3 POP POP POP POP POP POP POP DUP2 MSTORE PUSH1 0x20 ADD PUSH1 0x1 PUSH1 0x3 DUP2 GT ISZERO PUSH2 0x14E0 JUMPI PUSH2 0x14DF PUSH2 0x3C6F JUMP JUMPDEST JUMPDEST DUP2 MSTORE PUSH1 0x20 ADD TIMESTAMP DUP2 MSTORE POP PUSH1 0x9 PUSH0 DUP7 DUP2 MSTORE PUSH1 0x20 ADD SWAP1 DUP2 MSTORE PUSH1 0x20 ADD PUSH0 KECCAK256 PUSH0 DUP3 ADD MLOAD DUP2 PUSH0 ADD SSTORE PUSH1 0x20 DUP3 ADD MLOAD DUP2 PUSH1 0x1 ADD PUSH0 PUSH2 0x100 EXP DUP2 SLOAD DUP2 PUSH20 0xFFFFFFFFFFFFFFFFFFFFFFFFFFFFFFFFFFFFFFFF MUL NOT AND SWAP1 DUP4 PUSH20 0xFFFFFFFFFFFFFFFFFFFFFFFFFFFFFFFFFFFFFFFF AND MUL OR SWAP1 SSTORE POP PUSH1 0x40 DUP3 ADD MLOAD DUP2 PUSH1 0x2 ADD SWAP1 DUP2 PUSH2 0x155D SWAP2 SWAP1 PUSH2 0x4FC9 JUMP JUMPDEST POP PUSH1 0x60 DUP3 ADD MLOAD DUP2 PUSH1 0x3 ADD PUSH0 PUSH2 0x100 EXP DUP2 SLOAD DUP2 PUSH1 0xFF MUL NOT AND SWAP1 DUP4 PUSH1 0x3 DUP2 GT ISZERO PUSH2 0x1588 JUMPI PUSH2 0x1587 PUSH2 0x3C6F JUMP JUMPDEST JUMPDEST MUL OR SWAP1 SSTORE POP PUSH1 0x80 DUP3 ADD MLOAD DUP2 PUSH1 0x4 ADD SSTORE SWAP1 POP POP CALLER PUSH20 0xFFFFFFFFFFFFFFFFFFFFFFFFFFFFFFFFFFFFFFFF AND DUP5 PUSH32 0x2C01190DEB24FE5101A0373E8EE0ED3438853AAFFEAF7FA5CA1C8DB13D9E32B9 PUSH1 0x40 MLOAD PUSH1 0x40 MLOAD DUP1 SWAP2 SUB SWAP1 LOG3 POP POP POP POP JUMP JUMPDEST PUSH2 0x15FE DUP4 DUP4 DUP4 PUSH1 0x40 MLOAD DUP1 PUSH1 0x20 ADD PUSH1 0x40 MSTORE DUP1 PUSH0 DUP2 MSTORE POP PUSH2 0x1DAB JUMP JUMPDEST POP POP POP JUMP JUMPDEST PUSH0 PUSH1 0x6 PUSH0 SWAP1 SLOAD SWAP1 PUSH2 0x100 EXP SWAP1 DIV PUSH1 0xFF AND SWAP1 POP SWAP1 JUMP JUMPDEST PUSH0 PUSH2 0x1622 DUP3 PUSH2 0x291F JUMP JUMPDEST SWAP1 POP SWAP2 SWAP1 POP JUMP JUMPDEST PUSH0 DUP1 PUSH20 0xFFFFFFFFFFFFFFFFFFFFFFFFFFFFFFFFFFFFFFFF AND DUP3 PUSH20 0xFFFFFFFFFFFFFFFFFFFFFFFFFFFFFFFFFFFFFFFF AND SUB PUSH2 0x169A JUMPI PUSH0 PUSH1 0x40 MLOAD PUSH32 0x89C62B6400000000000000000000000000000000000000000000000000000000 DUP2 MSTORE PUSH1 0x4 ADD PUSH2 0x1691 SWAP2 SWAP1 PUSH2 0x3E35 JUMP JUMPDEST PUSH1 0x40 MLOAD DUP1 SWAP2 SUB SWAP1 REVERT JUMPDEST PUSH1 0x3 PUSH0 DUP4 PUSH20 0xFFFFFFFFFFFFFFFFFFFFFFFFFFFFFFFFFFFFFFFF AND PUSH20 0xFFFFFFFFFFFFFFFFFFFFFFFFFFFFFFFFFFFFFFFF AND DUP2 MSTORE PUSH1 0x20 ADD SWAP1 DUP2 MSTORE PUSH1 0x20 ADD PUSH0 KECCAK256 SLOAD SWAP1 POP SWAP2 SWAP1 POP JUMP JUMPDEST PUSH32 0x0 DUP2 JUMP JUMPDEST PUSH32 0x0 DUP2 JUMP JUMPDEST DUP1 PUSH0 PUSH32 0x0 PUSH20 0xFFFFFFFFFFFFFFFFFFFFFFFFFFFFFFFFFFFFFFFF AND PUSH4 0xFF91E489 DUP4 PUSH1 0x40 MLOAD DUP3 PUSH4 0xFFFFFFFF AND PUSH1 0xE0 SHL DUP2 MSTORE PUSH1 0x4 ADD PUSH2 0x1782 SWAP2 SWAP1 PUSH2 0x3FEF JUMP JUMPDEST PUSH0 PUSH1 0x40 MLOAD DUP1 DUP4 SUB DUP2 DUP7 GAS STATICCALL ISZERO DUP1 ISZERO PUSH2 0x179C JUMPI RETURNDATASIZE PUSH0 DUP1 RETURNDATACOPY RETURNDATASIZE PUSH0 REVERT JUMPDEST POP POP POP POP PUSH1 0x40 MLOAD RETURNDATASIZE PUSH0 DUP3 RETURNDATACOPY RETURNDATASIZE PUSH1 0x1F NOT PUSH1 0x1F DUP3 ADD AND DUP3 ADD DUP1 PUSH1 0x40 MSTORE POP DUP2 ADD SWAP1 PUSH2 0x17C4 SWAP2 SWAP1 PUSH2 0x46AA JUMP JUMPDEST SWAP1 POP DUP1 PUSH1 0xA0 ADD MLOAD PUSH2 0x180A JUMPI PUSH1 0x40 MLOAD PUSH32 0x8C379A000000000000000000000000000000000000000000000000000000000 DUP2 MSTORE PUSH1 0x4 ADD PUSH2 0x1801 SWAP1 PUSH2 0x4E17 JUMP JUMPDEST PUSH1 0x40 MLOAD DUP1 SWAP2 SUB SWAP1 REVERT JUMPDEST PUSH0 PUSH32 0x0 PUSH20 0xFFFFFFFFFFFFFFFFFFFFFFFFFFFFFFFFFFFFFFFF AND PUSH4 0xE3FBF314 DUP4 PUSH1 0xC0 ADD MLOAD PUSH1 0x40 MLOAD DUP3 PUSH4 0xFFFFFFFF AND PUSH1 0xE0 SHL DUP2 MSTORE PUSH1 0x4 ADD PUSH2 0x1868 SWAP2 SWAP1 PUSH2 0x3FEF JUMP JUMPDEST PUSH0 PUSH1 0x40 MLOAD DUP1 DUP4 SUB DUP2 DUP7 GAS STATICCALL ISZERO DUP1 ISZERO PUSH2 0x1882 JUMPI RETURNDATASIZE PUSH0 DUP1 RETURNDATACOPY RETURNDATASIZE PUSH0 REVERT JUMPDEST POP POP POP POP PUSH1 0x40 MLOAD RETURNDATASIZE PUSH0 DUP3 RETURNDATACOPY RETURNDATASIZE PUSH1 0x1F NOT PUSH1 0x1F DUP3 ADD AND DUP3 ADD DUP1 PUSH1 0x40 MSTORE POP DUP2 ADD SWAP1 PUSH2 0x18AA SWAP2 SWAP1 PUSH2 0x4B23 JUMP JUMPDEST SWAP1 POP DUP1 PUSH1 0xC0 ADD MLOAD PUSH2 0x18F0 JUMPI PUSH1 0x40 MLOAD PUSH32 0x8C379A000000000000000000000000000000000000000000000000000000000 DUP2 MSTORE PUSH1 0x4 ADD PUSH2 0x18E7 SWAP1 PUSH2 0x50E2 JUMP JUMPDEST PUSH1 0x40 MLOAD DUP1 SWAP2 SUB SWAP1 REVERT JUMPDEST DUP1 PUSH1 0x80 ADD MLOAD PUSH20 0xFFFFFFFFFFFFFFFFFFFFFFFFFFFFFFFFFFFFFFFF AND CALLER PUSH20 0xFFFFFFFFFFFFFFFFFFFFFFFFFFFFFFFFFFFFFFFF AND EQ PUSH2 0x1962 JUMPI PUSH1 0x40 MLOAD PUSH32 0x8C379A000000000000000000000000000000000000000000000000000000000 DUP2 MSTORE PUSH1 0x4 ADD PUSH2 0x1959 SWAP1 PUSH2 0x514A JUMP JUMPDEST PUSH1 0x40 MLOAD DUP1 SWAP2 SUB SWAP1 REVERT JUMPDEST PUSH2 0x196A PUSH2 0x28D5 JUMP JUMPDEST PUSH0 PUSH1 0x9 PUSH0 DUP7 DUP2 MSTORE PUSH1 0x20 ADD SWAP1 DUP2 MSTORE PUSH1 0x20 ADD PUSH0 KECCAK256 SWAP1 POP PUSH1 0x1 PUSH1 0x3 DUP2 GT ISZERO PUSH2 0x1992 JUMPI PUSH2 0x1991 PUSH2 0x3C6F JUMP JUMPDEST JUMPDEST DUP2 PUSH1 0x3 ADD PUSH0 SWAP1 SLOAD SWAP1 PUSH2 0x100 EXP SWAP1 DIV PUSH1 0xFF AND PUSH1 0x3 DUP2 GT ISZERO PUSH2 0x19B5 JUMPI PUSH2 0x19B4 PUSH2 0x3C6F JUMP JUMPDEST JUMPDEST EQ PUSH2 0x19F5 JUMPI PUSH1 0x40 MLOAD PUSH32 0x8C379A000000000000000000000000000000000000000000000000000000000 DUP2 MSTORE PUSH1 0x4 ADD PUSH2 0x19EC SWAP1 PUSH2 0x51B2 JUMP JUMPDEST PUSH1 0x40 MLOAD DUP1 SWAP2 SUB SWAP1 REVERT JUMPDEST PUSH1 0x2 DUP2 PUSH1 0x3 ADD PUSH0 PUSH2 0x100 EXP DUP2 SLOAD DUP2 PUSH1 0xFF MUL NOT AND SWAP1 DUP4 PUSH1 0x3 DUP2 GT ISZERO PUSH2 0x1A1C JUMPI PUSH2 0x1A1B PUSH2 0x3C6F JUMP JUMPDEST JUMPDEST MUL OR SWAP1 SSTORE POP DUP1 PUSH1 0x1 ADD PUSH0 SWAP1 SLOAD SWAP1 PUSH2 0x100 EXP SWAP1 DIV PUSH20 0xFFFFFFFFFFFFFFFFFFFFFFFFFFFFFFFFFFFFFFFF AND PUSH20 0xFFFFFFFFFFFFFFFFFFFFFFFFFFFFFFFFFFFFFFFF AND DUP6 PUSH32 0xE90F4A07E9A9AF1DD1030380992296AC79B9AEA4F6705F8365F9DF1BCBF3AD4C PUSH1 0x40 MLOAD PUSH1 0x40 MLOAD DUP1 SWAP2 SUB SWAP1 LOG3 POP POP POP POP POP JUMP JUMPDEST PUSH32 0x0 PUSH20 0xFFFFFFFFFFFFFFFFFFFFFFFFFFFFFFFFFFFFFFFF AND PUSH4 0x91D14854 PUSH32 0x0 PUSH20 0xFFFFFFFFFFFFFFFFFFFFFFFFFFFFFFFFFFFFFFFF AND PUSH4 0x75B238FC PUSH1 0x40 MLOAD DUP2 PUSH4 0xFFFFFFFF AND PUSH1 0xE0 SHL DUP2 MSTORE PUSH1 0x4 ADD PUSH1 0x20 PUSH1 0x40 MLOAD DUP1 DUP4 SUB DUP2 DUP7 GAS STATICCALL ISZERO DUP1 ISZERO PUSH2 0x1B34 JUMPI RETURNDATASIZE PUSH0 DUP1 RETURNDATACOPY RETURNDATASIZE PUSH0 REVERT JUMPDEST POP POP POP POP PUSH1 0x40 MLOAD RETURNDATASIZE PUSH1 0x1F NOT PUSH1 0x1F DUP3 ADD AND DUP3 ADD DUP1 PUSH1 0x40 MSTORE POP DUP2 ADD SWAP1 PUSH2 0x1B58 SWAP2 SWAP1 PUSH2 0x4724 JUMP JUMPDEST CALLER PUSH1 0x40 MLOAD DUP4 PUSH4 0xFFFFFFFF AND PUSH1 0xE0 SHL DUP2 MSTORE PUSH1 0x4 ADD PUSH2 0x1B76 SWAP3 SWAP2 SWAP1 PUSH2 0x475E JUMP JUMPDEST PUSH1 0x20 PUSH1 0x40 MLOAD DUP1 DUP4 SUB DUP2 DUP7 GAS STATICCALL ISZERO DUP1 ISZERO PUSH2 0x1B91 JUMPI RETURNDATASIZE PUSH0 DUP1 RETURNDATACOPY RETURNDATASIZE PUSH0 REVERT JUMPDEST POP POP POP POP PUSH1 0x40 MLOAD RETURNDATASIZE PUSH1 0x1F NOT PUSH1 0x1F DUP3 ADD AND DUP3 ADD DUP1 PUSH1 0x40 MSTORE POP DUP2 ADD SWAP1 PUSH2 0x1BB5 SWAP2 SWAP1 PUSH2 0x4785 JUMP JUMPDEST PUSH2 0x1BF4 JUMPI PUSH1 0x40 MLOAD PUSH32 0x8C379A000000000000000000000000000000000000000000000000000000000 DUP2 MSTORE PUSH1 0x4 ADD PUSH2 0x1BEB SWAP1 PUSH2 0x4BE9 JUMP JUMPDEST PUSH1 0x40 MLOAD DUP1 SWAP2 SUB SWAP1 REVERT JUMPDEST PUSH2 0x1BFC PUSH2 0x2C63 JUMP JUMPDEST JUMP JUMPDEST PUSH1 0x60 PUSH1 0x1 DUP1 SLOAD PUSH2 0x1C0D SWAP1 PUSH2 0x47DD JUMP JUMPDEST DUP1 PUSH1 0x1F ADD PUSH1 0x20 DUP1 SWAP2 DIV MUL PUSH1 0x20 ADD PUSH1 0x40 MLOAD SWAP1 DUP2 ADD PUSH1 0x40 MSTORE DUP1 SWAP3 SWAP2 SWAP1 DUP2 DUP2 MSTORE PUSH1 0x20 ADD DUP3 DUP1 SLOAD PUSH2 0x1C39 SWAP1 PUSH2 0x47DD JUMP JUMPDEST DUP1 ISZERO PUSH2 0x1C84 JUMPI DUP1 PUSH1 0x1F LT PUSH2 0x1C5B JUMPI PUSH2 0x100 DUP1 DUP4 SLOAD DIV MUL DUP4 MSTORE SWAP2 PUSH1 0x20 ADD SWAP2 PUSH2 0x1C84 JUMP JUMPDEST DUP3 ADD SWAP2 SWAP1 PUSH0 MSTORE PUSH1 0x20 PUSH0 KECCAK256 SWAP1 JUMPDEST DUP2 SLOAD DUP2 MSTORE SWAP1 PUSH1 0x1 ADD SWAP1 PUSH1 0x20 ADD DUP1 DUP4 GT PUSH2 0x1C67 JUMPI DUP3 SWAP1 SUB PUSH1 0x1F AND DUP3 ADD SWAP2 JUMPDEST POP POP POP POP POP SWAP1 POP SWAP1 JUMP JUMPDEST PUSH2 0x1CA0 PUSH2 0x1C99 PUSH2 0x29DE JUMP JUMPDEST DUP4 DUP4 PUSH2 0x2CC5 JUMP JUMPDEST POP POP JUMP JUMPDEST PUSH1 0x9 PUSH1 0x20 MSTORE DUP1 PUSH0 MSTORE PUSH1 0x40 PUSH0 KECCAK256 PUSH0 SWAP2 POP SWAP1 POP DUP1 PUSH0 ADD SLOAD SWAP1 DUP1 PUSH1 0x1 ADD PUSH0 SWAP1 SLOAD SWAP1 PUSH2 0x100 EXP SWAP1 DIV PUSH20 0xFFFFFFFFFFFFFFFFFFFFFFFFFFFFFFFFFFFFFFFF AND SWAP1 DUP1 PUSH1 0x2 ADD DUP1 SLOAD PUSH2 0x1CEE SWAP1 PUSH2 0x47DD JUMP JUMPDEST DUP1 PUSH1 0x1F ADD PUSH1 0x20 DUP1 SWAP2 DIV MUL PUSH1 0x20 ADD PUSH1 0x40 MLOAD SWAP1 DUP2 ADD PUSH1 0x40 MSTORE DUP1 SWAP3 SWAP2 SWAP1 DUP2 DUP2 MSTORE PUSH1 0x20 ADD DUP3 DUP1 SLOAD PUSH2 0x1D1A SWAP1 PUSH2 0x47DD JUMP JUMPDEST DUP1 ISZERO PUSH2 0x1D65 JUMPI DUP1 PUSH1 0x1F LT PUSH2 0x1D3C JUMPI PUSH2 0x100 DUP1 DUP4 SLOAD DIV MUL DUP4 MSTORE SWAP2 PUSH1 0x20 ADD SWAP2 PUSH2 0x1D65 JUMP JUMPDEST DUP3 ADD SWAP2 SWAP1 PUSH0 MSTORE PUSH1 0x20 PUSH0 KECCAK256 SWAP1 JUMPDEST DUP2 SLOAD DUP2 MSTORE SWAP1 PUSH1 0x1 ADD SWAP1 PUSH1 0x20 ADD DUP1 DUP4 GT PUSH2 0x1D48 JUMPI DUP3 SWAP1 SUB PUSH1 0x1F AND DUP3 ADD SWAP2 JUMPDEST POP POP POP POP POP SWAP1 DUP1 PUSH1 0x3 ADD PUSH0 SWAP1 SLOAD SWAP1 PUSH2 0x100 EXP SWAP1 DIV PUSH1 0xFF AND SWAP1 DUP1 PUSH1 0x4 ADD SLOAD SWAP1 POP DUP6 JUMP JUMPDEST PUSH32 0x0 DUP2 JUMP JUMPDEST PUSH2 0x1DB6 DUP5 DUP5 DUP5 PUSH2 0xE2B JUMP JUMPDEST PUSH2 0x1DCA PUSH2 0x1DC1 PUSH2 0x29DE JUMP JUMPDEST DUP6 DUP6 DUP6 DUP6 PUSH2 0x2E2E JUMP JUMPDEST POP POP POP POP JUMP JUMPDEST PUSH1 0x8 PUSH1 0x20 MSTORE DUP1 PUSH0 MSTORE PUSH1 0x40 PUSH0 KECCAK256 PUSH0 SWAP2 POP SWAP1 POP DUP1 PUSH0 ADD SLOAD SWAP1 DUP1 PUSH1 0x1 ADD SLOAD SWAP1 DUP1 PUSH1 0x2 ADD PUSH0 SWAP1 SLOAD SWAP1 PUSH2 0x100 EXP SWAP1 DIV PUSH20 0xFFFFFFFFFFFFFFFFFFFFFFFFFFFFFFFFFFFFFFFF AND SWAP1 DUP1 PUSH1 0x3 ADD DUP1 SLOAD PUSH2 0x1E20 SWAP1 PUSH2 0x47DD JUMP JUMPDEST DUP1 PUSH1 0x1F ADD PUSH1 0x20 DUP1 SWAP2 DIV MUL PUSH1 0x20 ADD PUSH1 0x40 MLOAD SWAP1 DUP2 ADD PUSH1 0x40 MSTORE DUP1 SWAP3 SWAP2 SWAP1 DUP2 DUP2 MSTORE PUSH1 0x20 ADD DUP3 DUP1 SLOAD PUSH2 0x1E4C SWAP1 PUSH2 0x47DD JUMP JUMPDEST DUP1 ISZERO PUSH2 0x1E97 JUMPI DUP1 PUSH1 0x1F LT PUSH2 0x1E6E JUMPI PUSH2 0x100 DUP1 DUP4 SLOAD DIV MUL DUP4 MSTORE SWAP2 PUSH1 0x20 ADD SWAP2 PUSH2 0x1E97 JUMP JUMPDEST DUP3 ADD SWAP2 SWAP1 PUSH0 MSTORE PUSH1 0x20 PUSH0 KECCAK256 SWAP1 JUMPDEST DUP2 SLOAD DUP2 MSTORE SWAP1 PUSH1 0x1 ADD SWAP1 PUSH1 0x20 ADD DUP1 DUP4 GT PUSH2 0x1E7A JUMPI DUP3 SWAP1 SUB PUSH1 0x1F AND DUP3 ADD SWAP2 JUMPDEST POP POP POP POP POP SWAP1 DUP1 PUSH1 0x4 ADD PUSH0 SWAP1 SLOAD SWAP1 PUSH2 0x100 EXP SWAP1 DIV PUSH1 0xFF AND SWAP1 DUP1 PUSH1 0x5 ADD SLOAD SWAP1 POP DUP7 JUMP JUMPDEST PUSH1 0x60 PUSH2 0x1EC4 DUP3 PUSH2 0x291F JUMP JUMPDEST POP PUSH0 PUSH2 0x1ECE PUSH2 0x2FDA JUMP JUMPDEST SWAP1 POP PUSH0 DUP2 MLOAD GT PUSH2 0x1EEC JUMPI PUSH1 0x40 MLOAD DUP1 PUSH1 0x20 ADD PUSH1 0x40 MSTORE DUP1 PUSH0 DUP2 MSTORE POP PUSH2 0x1F17 JUMP JUMPDEST DUP1 PUSH2 0x1EF6 DUP5 PUSH2 0x2FF0 JUMP JUMPDEST PUSH1 0x40 MLOAD PUSH1 0x20 ADD PUSH2 0x1F07 SWAP3 SWAP2 SWAP1 PUSH2 0x520A JUMP JUMPDEST PUSH1 0x40 MLOAD PUSH1 0x20 DUP2 DUP4 SUB SUB DUP2 MSTORE SWAP1 PUSH1 0x40 MSTORE JUMPDEST SWAP2 POP POP SWAP2 SWAP1 POP JUMP JUMPDEST PUSH1 0xA PUSH1 0x20 MSTORE DUP1 PUSH0 MSTORE PUSH1 0x40 PUSH0 KECCAK256 PUSH0 SWAP2 POP SLOAD SWAP1 PUSH2 0x100 EXP SWAP1 DIV PUSH1 0xFF AND DUP2 JUMP JUMPDEST DUP1 PUSH0 PUSH32 0x0 PUSH20 0xFFFFFFFFFFFFFFFFFFFFFFFFFFFFFFFFFFFFFFFF AND PUSH4 0xFF91E489 DUP4 PUSH1 0x40 MLOAD DUP3 PUSH4 0xFFFFFFFF AND PUSH1 0xE0 SHL DUP2 MSTORE PUSH1 0x4 ADD PUSH2 0x1F97 SWAP2 SWAP1 PUSH2 0x3FEF JUMP JUMPDEST PUSH0 PUSH1 0x40 MLOAD DUP1 DUP4 SUB DUP2 DUP7 GAS STATICCALL ISZERO DUP1 ISZERO PUSH2 0x1FB1 JUMPI RETURNDATASIZE PUSH0 DUP1 RETURNDATACOPY RETURNDATASIZE PUSH0 REVERT JUMPDEST POP POP POP POP PUSH1 0x40 MLOAD RETURNDATASIZE PUSH0 DUP3 RETURNDATACOPY RETURNDATASIZE PUSH1 0x1F NOT PUSH1 0x1F DUP3 ADD AND DUP3 ADD DUP1 PUSH1 0x40 MSTORE POP DUP2 ADD SWAP1 PUSH2 0x1FD9 SWAP2 SWAP1 PUSH2 0x46AA JUMP JUMPDEST SWAP1 POP DUP1 PUSH1 0xA0 ADD MLOAD PUSH2 0x201F JUMPI PUSH1 0x40 MLOAD PUSH32 0x8C379A000000000000000000000000000000000000000000000000000000000 DUP2 MSTORE PUSH1 0x4 ADD PUSH2 0x2016 SWAP1 PUSH2 0x4E17 JUMP JUMPDEST PUSH1 0x40 MLOAD DUP1 SWAP2 SUB SWAP1 REVERT JUMPDEST PUSH0 PUSH32 0x0 PUSH20 0xFFFFFFFFFFFFFFFFFFFFFFFFFFFFFFFFFFFFFFFF AND PUSH4 0xE3FBF314 DUP4 PUSH1 0xC0 ADD MLOAD PUSH1 0x40 MLOAD DUP3 PUSH4 0xFFFFFFFF AND PUSH1 0xE0 SHL DUP2 MSTORE PUSH1 0x4 ADD PUSH2 0x207D SWAP2 SWAP1 PUSH2 0x3FEF JUMP JUMPDEST PUSH0 PUSH1 0x40 MLOAD DUP1 DUP4 SUB DUP2 DUP7 GAS STATICCALL ISZERO DUP1 ISZERO PUSH2 0x2097 JUMPI RETURNDATASIZE PUSH0 DUP1 RETURNDATACOPY RETURNDATASIZE PUSH0 REVERT JUMPDEST POP POP POP POP PUSH1 0x40 MLOAD RETURNDATASIZE PUSH0 DUP3 RETURNDATACOPY RETURNDATASIZE PUSH1 0x1F NOT PUSH1 0x1F DUP3 ADD AND DUP3 ADD DUP1 PUSH1 0x40 MSTORE POP DUP2 ADD SWAP1 PUSH2 0x20BF SWAP2 SWAP1 PUSH2 0x4B23 JUMP JUMPDEST SWAP1 POP DUP1 PUSH1 0xC0 ADD MLOAD PUSH2 0x2105 JUMPI PUSH1 0x40 MLOAD PUSH32 0x8C379A000000000000000000000000000000000000000000000000000000000 DUP2 MSTORE PUSH1 0x4 ADD PUSH2 0x20FC SWAP1 PUSH2 0x50E2 JUMP JUMPDEST PUSH1 0x40 MLOAD DUP1 SWAP2 SUB SWAP1 REVERT JUMPDEST DUP1 PUSH1 0x80 ADD MLOAD PUSH20 0xFFFFFFFFFFFFFFFFFFFFFFFFFFFFFFFFFFFFFFFF AND CALLER PUSH20 0xFFFFFFFFFFFFFFFFFFFFFFFFFFFFFFFFFFFFFFFF AND EQ PUSH2 0x2177 JUMPI PUSH1 0x40 MLOAD PUSH32 0x8C379A000000000000000000000000000000000000000000000000000000000 DUP2 MSTORE PUSH1 0x4 ADD PUSH2 0x216E SWAP1 PUSH2 0x514A JUMP JUMPDEST PUSH1 0x40 MLOAD DUP1 SWAP2 SUB SWAP1 REVERT JUMPDEST PUSH2 0x217F PUSH2 0x28D5 JUMP JUMPDEST PUSH0 PUSH1 0x9 PUSH0 DUP7 DUP2 MSTORE PUSH1 0x20 ADD SWAP1 DUP2 MSTORE PUSH1 0x20 ADD PUSH0 KECCAK256 SWAP1 POP PUSH1 0x1 PUSH1 0x3 DUP2 GT ISZERO PUSH2 0x21A7 JUMPI PUSH2 0x21A6 PUSH2 0x3C6F JUMP JUMPDEST JUMPDEST DUP2 PUSH1 0x3 ADD PUSH0 SWAP1 SLOAD SWAP1 PUSH2 0x100 EXP SWAP1 DIV PUSH1 0xFF AND PUSH1 0x3 DUP2 GT ISZERO PUSH2 0x21CA JUMPI PUSH2 0x21C9 PUSH2 0x3C6F JUMP JUMPDEST JUMPDEST EQ PUSH2 0x220A JUMPI PUSH1 0x40 MLOAD PUSH32 0x8C379A000000000000000000000000000000000000000000000000000000000 DUP2 MSTORE PUSH1 0x4 ADD PUSH2 0x2201 SWAP1 PUSH2 0x51B2 JUMP JUMPDEST PUSH1 0x40 MLOAD DUP1 SWAP2 SUB SWAP1 REVERT JUMPDEST PUSH0 DUP2 PUSH1 0x3 ADD PUSH0 PUSH2 0x100 EXP DUP2 SLOAD DUP2 PUSH1 0xFF MUL NOT AND SWAP1 DUP4 PUSH1 0x3 DUP2 GT ISZERO PUSH2 0x2230 JUMPI PUSH2 0x222F PUSH2 0x3C6F JUMP JUMPDEST JUMPDEST MUL OR SWAP1 SSTORE POP DUP1 PUSH1 0x1 ADD PUSH0 SWAP1 SLOAD SWAP1 PUSH2 0x100 EXP SWAP1 DIV PUSH20 0xFFFFFFFFFFFFFFFFFFFFFFFFFFFFFFFFFFFFFFFF AND PUSH20 0xFFFFFFFFFFFFFFFFFFFFFFFFFFFFFFFFFFFFFFFF AND DUP6 PUSH32 0x8AB069580156E517907E83C0C2A44BBAD72364AA9544E12AA96BA9EC2B091A8C PUSH1 0x40 MLOAD PUSH1 0x40 MLOAD DUP1 SWAP2 SUB SWAP1 LOG3 POP POP POP POP POP JUMP JUMPDEST PUSH0 PUSH1 0x5 PUSH0 DUP5 PUSH20 0xFFFFFFFFFFFFFFFFFFFFFFFFFFFFFFFFFFFFFFFF AND PUSH20 0xFFFFFFFFFFFFFFFFFFFFFFFFFFFFFFFFFFFFFFFF AND DUP2 MSTORE PUSH1 0x20 ADD SWAP1 DUP2 MSTORE PUSH1 0x20 ADD PUSH0 KECCAK256 PUSH0 DUP4 PUSH20 0xFFFFFFFFFFFFFFFFFFFFFFFFFFFFFFFFFFFFFFFF AND PUSH20 0xFFFFFFFFFFFFFFFFFFFFFFFFFFFFFFFFFFFFFFFF AND DUP2 MSTORE PUSH1 0x20 ADD SWAP1 DUP2 MSTORE PUSH1 0x20 ADD PUSH0 KECCAK256 PUSH0 SWAP1 SLOAD SWAP1 PUSH2 0x100 EXP SWAP1 DIV PUSH1 0xFF AND SWAP1 POP SWAP3 SWAP2 POP POP JUMP JUMPDEST DUP1 PUSH0 PUSH32 0x0 PUSH20 0xFFFFFFFFFFFFFFFFFFFFFFFFFFFFFFFFFFFFFFFF AND PUSH4 0xFF91E489 DUP4 PUSH1 0x40 MLOAD DUP3 PUSH4 0xFFFFFFFF AND PUSH1 0xE0 SHL DUP2 MSTORE PUSH1 0x4 ADD PUSH2 0x238C SWAP2 SWAP1 PUSH2 0x3FEF JUMP JUMPDEST PUSH0 PUSH1 0x40 MLOAD DUP1 DUP4 SUB DUP2 DUP7 GAS STATICCALL ISZERO DUP1 ISZERO PUSH2 0x23A6 JUMPI RETURNDATASIZE PUSH0 DUP1 RETURNDATACOPY RETURNDATASIZE PUSH0 REVERT JUMPDEST POP POP POP POP PUSH1 0x40 MLOAD RETURNDATASIZE PUSH0 DUP3 RETURNDATACOPY RETURNDATASIZE PUSH1 0x1F NOT PUSH1 0x1F DUP3 ADD AND DUP3 ADD DUP1 PUSH1 0x40 MSTORE POP DUP2 ADD SWAP1 PUSH2 0x23CE SWAP2 SWAP1 PUSH2 0x46AA JUMP JUMPDEST SWAP1 POP DUP1 PUSH1 0xA0 ADD MLOAD PUSH2 0x2414 JUMPI PUSH1 0x40 MLOAD PUSH32 0x8C379A000000000000000000000000000000000000000000000000000000000 DUP2 MSTORE PUSH1 0x4 ADD PUSH2 0x240B SWAP1 PUSH2 0x4E17 JUMP JUMPDEST PUSH1 0x40 MLOAD DUP1 SWAP2 SUB SWAP1 REVERT JUMPDEST PUSH0 PUSH32 0x0 PUSH20 0xFFFFFFFFFFFFFFFFFFFFFFFFFFFFFFFFFFFFFFFF AND PUSH4 0xE3FBF314 DUP4 PUSH1 0xC0 ADD MLOAD PUSH1 0x40 MLOAD DUP3 PUSH4 0xFFFFFFFF AND PUSH1 0xE0 SHL DUP2 MSTORE PUSH1 0x4 ADD PUSH2 0x2472 SWAP2 SWAP1 PUSH2 0x3FEF JUMP JUMPDEST PUSH0 PUSH1 0x40 MLOAD DUP1 DUP4 SUB DUP2 DUP7 GAS STATICCALL ISZERO DUP1 ISZERO PUSH2 0x248C JUMPI RETURNDATASIZE PUSH0 DUP1 RETURNDATACOPY RETURNDATASIZE PUSH0 REVERT JUMPDEST POP POP POP POP PUSH1 0x40 MLOAD RETURNDATASIZE PUSH0 DUP3 RETURNDATACOPY RETURNDATASIZE PUSH1 0x1F NOT PUSH1 0x1F DUP3 ADD AND DUP3 ADD DUP1 PUSH1 0x40 MSTORE POP DUP2 ADD SWAP1 PUSH2 0x24B4 SWAP2 SWAP1 PUSH2 0x4B23 JUMP JUMPDEST SWAP1 POP DUP1 PUSH1 0xC0 ADD MLOAD PUSH2 0x24FA JUMPI PUSH1 0x40 MLOAD PUSH32 0x8C379A000000000000000000000000000000000000000000000000000000000 DUP2 MSTORE PUSH1 0x4 ADD PUSH2 0x24F1 SWAP1 PUSH2 0x50E2 JUMP JUMPDEST PUSH1 0x40 MLOAD DUP1 SWAP2 SUB SWAP1 REVERT JUMPDEST DUP1 PUSH1 0x80 ADD MLOAD PUSH20 0xFFFFFFFFFFFFFFFFFFFFFFFFFFFFFFFFFFFFFFFF AND CALLER PUSH20 0xFFFFFFFFFFFFFFFFFFFFFFFFFFFFFFFFFFFFFFFF AND EQ PUSH2 0x256C JUMPI PUSH1 0x40 MLOAD PUSH32 0x8C379A000000000000000000000000000000000000000000000000000000000 DUP2 MSTORE PUSH1 0x4 ADD PUSH2 0x2563 SWAP1 PUSH2 0x514A JUMP JUMPDEST PUSH1 0x40 MLOAD DUP1 SWAP2 SUB SWAP1 REVERT JUMPDEST PUSH2 0x2574 PUSH2 0x28D5 JUMP JUMPDEST PUSH0 PUSH1 0x9 PUSH0 DUP7 DUP2 MSTORE PUSH1 0x20 ADD SWAP1 DUP2 MSTORE PUSH1 0x20 ADD PUSH0 KECCAK256 SWAP1 POP PUSH1 0x3 DUP1 DUP2 GT ISZERO PUSH2 0x259B JUMPI PUSH2 0x259A PUSH2 0x3C6F JUMP JUMPDEST JUMPDEST DUP2 PUSH1 0x3 ADD PUSH0 SWAP1 SLOAD SWAP1 PUSH2 0x100 EXP SWAP1 DIV PUSH1 0xFF AND PUSH1 0x3 DUP2 GT ISZERO PUSH2 0x25BE JUMPI PUSH2 0x25BD PUSH2 0x3C6F JUMP JUMPDEST JUMPDEST EQ PUSH2 0x25FE JUMPI PUSH1 0x40 MLOAD PUSH32 0x8C379A000000000000000000000000000000000000000000000000000000000 DUP2 MSTORE PUSH1 0x4 ADD PUSH2 0x25F5 SWAP1 PUSH2 0x5277 JUMP JUMPDEST PUSH1 0x40 MLOAD DUP1 SWAP2 SUB SWAP1 REVERT JUMPDEST PUSH2 0x2608 PUSH1 0x7 PUSH2 0x30BA JUMP JUMPDEST PUSH0 PUSH2 0x2613 PUSH1 0x7 PUSH2 0x30CE JUMP JUMPDEST SWAP1 POP PUSH2 0x2642 DUP3 PUSH1 0x1 ADD PUSH0 SWAP1 SLOAD SWAP1 PUSH2 0x100 EXP SWAP1 DIV PUSH20 0xFFFFFFFFFFFFFFFFFFFFFFFFFFFFFFFFFFFFFFFF AND DUP3 PUSH2 0x30DA JUMP JUMPDEST PUSH1 0x40 MLOAD DUP1 PUSH1 0xC0 ADD PUSH1 0x40 MSTORE DUP1 DUP3 DUP2 MSTORE PUSH1 0x20 ADD DUP8 DUP2 MSTORE PUSH1 0x20 ADD DUP4 PUSH1 0x1 ADD PUSH0 SWAP1 SLOAD SWAP1 PUSH2 0x100 EXP SWAP1 DIV PUSH20 0xFFFFFFFFFFFFFFFFFFFFFFFFFFFFFFFFFFFFFFFF AND PUSH20 0xFFFFFFFFFFFFFFFFFFFFFFFFFFFFFFFFFFFFFFFF AND DUP2 MSTORE PUSH1 0x20 ADD DUP4 PUSH1 0x2 ADD DUP1 SLOAD PUSH2 0x26A7 SWAP1 PUSH2 0x47DD JUMP JUMPDEST DUP1 PUSH1 0x1F ADD PUSH1 0x20 DUP1 SWAP2 DIV MUL PUSH1 0x20 ADD PUSH1 0x40 MLOAD SWAP1 DUP2 ADD PUSH1 0x40 MSTORE DUP1 SWAP3 SWAP2 SWAP1 DUP2 DUP2 MSTORE PUSH1 0x20 ADD DUP3 DUP1 SLOAD PUSH2 0x26D3 SWAP1 PUSH2 0x47DD JUMP JUMPDEST DUP1 ISZERO PUSH2 0x271E JUMPI DUP1 PUSH1 0x1F LT PUSH2 0x26F5 JUMPI PUSH2 0x100 DUP1 DUP4 SLOAD DIV MUL DUP4 MSTORE SWAP2 PUSH1 0x20 ADD SWAP2 PUSH2 0x271E JUMP JUMPDEST DUP3 ADD SWAP2 SWAP1 PUSH0 MSTORE PUSH1 0x20 PUSH0 KECCAK256 SWAP1 JUMPDEST DUP2 SLOAD DUP2 MSTORE SWAP1 PUSH1 0x1 ADD SWAP1 PUSH1 0x20 ADD DUP1 DUP4 GT PUSH2 0x2701 JUMPI DUP3 SWAP1 SUB PUSH1 0x1F AND DUP3 ADD SWAP2 JUMPDEST POP POP POP POP POP DUP2 MSTORE PUSH1 0x20 ADD PUSH0 ISZERO ISZERO DUP2 MSTORE PUSH1 0x20 ADD TIMESTAMP DUP2 MSTORE POP PUSH1 0x8 PUSH0 DUP4 DUP2 MSTORE PUSH1 0x20 ADD SWAP1 DUP2 MSTORE PUSH1 0x20 ADD PUSH0 KECCAK256 PUSH0 DUP3 ADD MLOAD DUP2 PUSH0 ADD SSTORE PUSH1 0x20 DUP3 ADD MLOAD DUP2 PUSH1 0x1 ADD SSTORE PUSH1 0x40 DUP3 ADD MLOAD DUP2 PUSH1 0x2 ADD PUSH0 PUSH2 0x100 EXP DUP2 SLOAD DUP2 PUSH20 0xFFFFFFFFFFFFFFFFFFFFFFFFFFFFFFFFFFFFFFFF MUL NOT AND SWAP1 DUP4 PUSH20 0xFFFFFFFFFFFFFFFFFFFFFFFFFFFFFFFFFFFFFFFF AND MUL OR SWAP1 SSTORE POP PUSH1 0x60 DUP3 ADD MLOAD DUP2 PUSH1 0x3 ADD SWAP1 DUP2 PUSH2 0x27B2 SWAP2 SWAP1 PUSH2 0x4FC9 JUMP JUMPDEST POP PUSH1 0x80 DUP3 ADD MLOAD DUP2 PUSH1 0x4 ADD PUSH0 PUSH2 0x100 EXP DUP2 SLOAD DUP2 PUSH1 0xFF MUL NOT AND SWAP1 DUP4 ISZERO ISZERO MUL OR SWAP1 SSTORE POP PUSH1 0xA0 DUP3 ADD MLOAD DUP2 PUSH1 0x5 ADD SSTORE SWAP1 POP POP PUSH1 0x1 PUSH1 0xA PUSH0 DUP9 DUP2 MSTORE PUSH1 0x20 ADD SWAP1 DUP2 MSTORE PUSH1 0x20 ADD PUSH0 KECCAK256 PUSH0 PUSH2 0x100 EXP DUP2 SLOAD DUP2 PUSH1 0xFF MUL NOT AND SWAP1 DUP4 ISZERO ISZERO MUL OR SWAP1 SSTORE POP PUSH2 0x2836 DUP2 DUP8 DUP5 PUSH1 0x1 ADD PUSH0 SWAP1 SLOAD SWAP1 PUSH2 0x100 EXP SWAP1 DIV PUSH20 0xFFFFFFFFFFFFFFFFFFFFFFFFFFFFFFFFFFFFFFFF AND PUSH2 0x30F7 JUMP JUMPDEST DUP6 DUP2 PUSH32 0x5A49448EF5C36AF17B1AEB44AC91D414AA5CC30977940FA1A5B216F936A804D2 PUSH1 0x40 MLOAD PUSH1 0x40 MLOAD DUP1 SWAP2 SUB SWAP1 LOG3 POP POP POP POP POP POP JUMP JUMPDEST PUSH0 PUSH32 0x1FFC9A700000000000000000000000000000000000000000000000000000000 PUSH28 0xFFFFFFFFFFFFFFFFFFFFFFFFFFFFFFFFFFFFFFFFFFFFFFFFFFFFFFFF NOT AND DUP3 PUSH28 0xFFFFFFFFFFFFFFFFFFFFFFFFFFFFFFFFFFFFFFFFFFFFFFFFFFFFFFFF NOT AND EQ SWAP1 POP SWAP2 SWAP1 POP JUMP JUMPDEST PUSH2 0x28DD PUSH2 0x1603 JUMP JUMPDEST ISZERO PUSH2 0x291D JUMPI PUSH1 0x40 MLOAD PUSH32 0x8C379A000000000000000000000000000000000000000000000000000000000 DUP2 MSTORE PUSH1 0x4 ADD PUSH2 0x2914 SWAP1 PUSH2 0x52DF JUMP JUMPDEST PUSH1 0x40 MLOAD DUP1 SWAP2 SUB SWAP1 REVERT JUMPDEST JUMP JUMPDEST PUSH0 DUP1 PUSH2 0x292A DUP4 PUSH2 0x348F JUMP JUMPDEST SWAP1 POP PUSH0 PUSH20 0xFFFFFFFFFFFFFFFFFFFFFFFFFFFFFFFFFFFFFFFF AND DUP2 PUSH20 0xFFFFFFFFFFFFFFFFFFFFFFFFFFFFFFFFFFFFFFFF AND SUB PUSH2 0x299C JUMPI DUP3 PUSH1 0x40 MLOAD PUSH32 0x7E27328900000000000000000000000000000000000000000000000000000000 DUP2 MSTORE PUSH1 0x4 ADD PUSH2 0x2993 SWAP2 SWAP1 PUSH2 0x3FEF JUMP JUMPDEST PUSH1 0x40 MLOAD DUP1 SWAP2 SUB SWAP1 REVERT JUMPDEST DUP1 SWAP2 POP POP SWAP2 SWAP1 POP JUMP JUMPDEST PUSH0 PUSH1 0x4 PUSH0 DUP4 DUP2 MSTORE PUSH1 0x20 ADD SWAP1 DUP2 MSTORE PUSH1 0x20 ADD PUSH0 KECCAK256 PUSH0 SWAP1 SLOAD SWAP1 PUSH2 0x100 EXP SWAP1 DIV PUSH20 0xFFFFFFFFFFFFFFFFFFFFFFFFFFFFFFFFFFFFFFFF AND SWAP1 POP SWAP2 SWAP1 POP JUMP JUMPDEST PUSH0 CALLER SWAP1 POP SWAP1 JUMP JUMPDEST PUSH2 0x29F2 DUP4 DUP4 DUP4 PUSH1 0x1 PUSH2 0x34C8 JUMP JUMPDEST POP POP POP JUMP JUMPDEST PUSH0 DUP1 PUSH2 0x2A02 DUP5 PUSH2 0x348F JUMP JUMPDEST SWAP1 POP PUSH0 PUSH20 0xFFFFFFFFFFFFFFFFFFFFFFFFFFFFFFFFFFFFFFFF AND DUP4 PUSH20 0xFFFFFFFFFFFFFFFFFFFFFFFFFFFFFFFFFFFFFFFF AND EQ PUSH2 0x2A43 JUMPI PUSH2 0x2A42 DUP2 DUP5 DUP7 PUSH2 0x3687 JUMP JUMPDEST JUMPDEST PUSH0 PUSH20 0xFFFFFFFFFFFFFFFFFFFFFFFFFFFFFFFFFFFFFFFF AND DUP2 PUSH20 0xFFFFFFFFFFFFFFFFFFFFFFFFFFFFFFFFFFFFFFFF AND EQ PUSH2 0x2ACE JUMPI PUSH2 0x2A82 PUSH0 DUP6 PUSH0 DUP1 PUSH2 0x34C8 JUMP JUMPDEST PUSH1 0x1 PUSH1 0x3 PUSH0 DUP4 PUSH20 0xFFFFFFFFFFFFFFFFFFFFFFFFFFFFFFFFFFFFFFFF AND PUSH20 0xFFFFFFFFFFFFFFFFFFFFFFFFFFFFFFFFFFFFFFFF AND DUP2 MSTORE PUSH1 0x20 ADD SWAP1 DUP2 MSTORE PUSH1 0x20 ADD PUSH0 KECCAK256 PUSH0 DUP3 DUP3 SLOAD SUB SWAP3 POP POP DUP2 SWAP1 SSTORE POP JUMPDEST PUSH0 PUSH20 0xFFFFFFFFFFFFFFFFFFFFFFFFFFFFFFFFFFFFFFFF AND DUP6 PUSH20 0xFFFFFFFFFFFFFFFFFFFFFFFFFFFFFFFFFFFFFFFF AND EQ PUSH2 0x2B4D JUMPI PUSH1 0x1 PUSH1 0x3 PUSH0 DUP8 PUSH20 0xFFFFFFFFFFFFFFFFFFFFFFFFFFFFFFFFFFFFFFFF AND PUSH20 0xFFFFFFFFFFFFFFFFFFFFFFFFFFFFFFFFFFFFFFFF AND DUP2 MSTORE PUSH1 0x20 ADD SWAP1 DUP2 MSTORE PUSH1 0x20 ADD PUSH0 KECCAK256 PUSH0 DUP3 DUP3 SLOAD ADD SWAP3 POP POP DUP2 SWAP1 SSTORE POP JUMPDEST DUP5 PUSH1 0x2 PUSH0 DUP7 DUP2 MSTORE PUSH1 0x20 ADD SWAP1 DUP2 MSTORE PUSH1 0x20 ADD PUSH0 KECCAK256 PUSH0 PUSH2 0x100 EXP DUP2 SLOAD DUP2 PUSH20 0xFFFFFFFFFFFFFFFFFFFFFFFFFFFFFFFFFFFFFFFF MUL NOT AND SWAP1 DUP4 PUSH20 0xFFFFFFFFFFFFFFFFFFFFFFFFFFFFFFFFFFFFFFFF AND MUL OR SWAP1 SSTORE POP DUP4 DUP6 PUSH20 0xFFFFFFFFFFFFFFFFFFFFFFFFFFFFFFFFFFFFFFFF AND DUP3 PUSH20 0xFFFFFFFFFFFFFFFFFFFFFFFFFFFFFFFFFFFFFFFF AND PUSH32 0xDDF252AD1BE2C89B69C2B068FC378DAA952BA7F163C4A11628F55A4DF523B3EF PUSH1 0x40 MLOAD PUSH1 0x40 MLOAD DUP1 SWAP2 SUB SWAP1 LOG4 DUP1 SWAP2 POP POP SWAP4 SWAP3 POP POP POP JUMP JUMPDEST PUSH2 0x2C0A PUSH2 0x374A JUMP JUMPDEST PUSH0 PUSH1 0x6 PUSH0 PUSH2 0x100 EXP DUP2 SLOAD DUP2 PUSH1 0xFF MUL NOT AND SWAP1 DUP4 ISZERO ISZERO MUL OR SWAP1 SSTORE POP PUSH32 0x5DB9EE0A495BF2E6FF9C91A7834C1BA4FDD244A5E8AA4E537BD38AEAE4B073AA PUSH2 0x2C4C PUSH2 0x29DE JUMP JUMPDEST PUSH1 0x40 MLOAD PUSH2 0x2C59 SWAP2 SWAP1 PUSH2 0x3E35 JUMP JUMPDEST PUSH1 0x40 MLOAD DUP1 SWAP2 SUB SWAP1 LOG1 JUMP JUMPDEST PUSH2 0x2C6B PUSH2 0x28D5 JUMP JUMPDEST PUSH1 0x1 PUSH1 0x6 PUSH0 PUSH2 0x100 EXP DUP2 SLOAD DUP2 PUSH1 0xFF MUL NOT AND SWAP1 DUP4 ISZERO ISZERO MUL OR SWAP1 SSTORE POP PUSH32 0x62E78CEA01BEE320CD4E420270B5EA74000D11B0C9F74754EBDBFC544B05A258 PUSH2 0x2CAE PUSH2 0x29DE JUMP JUMPDEST PUSH1 0x40 MLOAD PUSH2 0x2CBB SWAP2 SWAP1 PUSH2 0x3E35 JUMP JUMPDEST PUSH1 0x40 MLOAD DUP1 SWAP2 SUB SWAP1 LOG1 JUMP JUMPDEST PUSH0 PUSH20 0xFFFFFFFFFFFFFFFFFFFFFFFFFFFFFFFFFFFFFFFF AND DUP3 PUSH20 0xFFFFFFFFFFFFFFFFFFFFFFFFFFFFFFFFFFFFFFFF AND SUB PUSH2 0x2D35 JUMPI DUP2 PUSH1 0x40 MLOAD PUSH32 0x5B08BA1800000000000000000000000000000000000000000000000000000000 DUP2 MSTORE PUSH1 0x4 ADD PUSH2 0x2D2C SWAP2 SWAP1 PUSH2 0x3E35 JUMP JUMPDEST PUSH1 0x40 MLOAD DUP1 SWAP2 SUB SWAP1 REVERT JUMPDEST DUP1 PUSH1 0x5 PUSH0 DUP6 PUSH20 0xFFFFFFFFFFFFFFFFFFFFFFFFFFFFFFFFFFFFFFFF AND PUSH20 0xFFFFFFFFFFFFFFFFFFFFFFFFFFFFFFFFFFFFFFFF AND DUP2 MSTORE PUSH1 0x20 ADD SWAP1 DUP2 MSTORE PUSH1 0x20 ADD PUSH0 KECCAK256 PUSH0 DUP5 PUSH20 0xFFFFFFFFFFFFFFFFFFFFFFFFFFFFFFFFFFFFFFFF AND PUSH20 0xFFFFFFFFFFFFFFFFFFFFFFFFFFFFFFFFFFFFFFFF AND DUP2 MSTORE PUSH1 0x20 ADD SWAP1 DUP2 MSTORE PUSH1 0x20 ADD PUSH0 KECCAK256 PUSH0 PUSH2 0x100 EXP DUP2 SLOAD DUP2 PUSH1 0xFF MUL NOT AND SWAP1 DUP4 ISZERO ISZERO MUL OR SWAP1 SSTORE POP DUP2 PUSH20 0xFFFFFFFFFFFFFFFFFFFFFFFFFFFFFFFFFFFFFFFF AND DUP4 PUSH20 0xFFFFFFFFFFFFFFFFFFFFFFFFFFFFFFFFFFFFFFFF AND PUSH32 0x17307EAB39AB6107E8899845AD3D59BD9653F200F220920489CA2B5937696C31 DUP4 PUSH1 0x40 MLOAD PUSH2 0x2E21 SWAP2 SWAP1 PUSH2 0x3BF8 JUMP JUMPDEST PUSH1 0x40 MLOAD DUP1 SWAP2 SUB SWAP1 LOG3 POP POP POP JUMP JUMPDEST PUSH0 DUP4 PUSH20 0xFFFFFFFFFFFFFFFFFFFFFFFFFFFFFFFFFFFFFFFF AND EXTCODESIZE GT ISZERO PUSH2 0x2FD3 JUMPI DUP3 PUSH20 0xFFFFFFFFFFFFFFFFFFFFFFFFFFFFFFFFFFFFFFFF AND PUSH4 0x150B7A02 DUP7 DUP7 DUP6 DUP6 PUSH1 0x40 MLOAD DUP6 PUSH4 0xFFFFFFFF AND PUSH1 0xE0 SHL DUP2 MSTORE PUSH1 0x4 ADD PUSH2 0x2E8C SWAP5 SWAP4 SWAP3 SWAP2 SWAP1 PUSH2 0x534F JUMP JUMPDEST PUSH1 0x20 PUSH1 0x40 MLOAD DUP1 DUP4 SUB DUP2 PUSH0 DUP8 GAS CALL SWAP3 POP POP POP DUP1 ISZERO PUSH2 0x2EC7 JUMPI POP PUSH1 0x40 MLOAD RETURNDATASIZE PUSH1 0x1F NOT PUSH1 0x1F DUP3 ADD AND DUP3 ADD DUP1 PUSH1 0x40 MSTORE POP DUP2 ADD SWAP1 PUSH2 0x2EC4 SWAP2 SWAP1 PUSH2 0x53AD JUMP JUMPDEST PUSH1 0x1 JUMPDEST PUSH2 0x2F48 JUMPI RETURNDATASIZE DUP1 PUSH0 DUP2 EQ PUSH2 0x2EF5 JUMPI PUSH1 0x40 MLOAD SWAP2 POP PUSH1 0x1F NOT PUSH1 0x3F RETURNDATASIZE ADD AND DUP3 ADD PUSH1 0x40 MSTORE RETURNDATASIZE DUP3 MSTORE RETURNDATASIZE PUSH0 PUSH1 0x20 DUP5 ADD RETURNDATACOPY PUSH2 0x2EFA JUMP JUMPDEST PUSH1 0x60 SWAP2 POP JUMPDEST POP PUSH0 DUP2 MLOAD SUB PUSH2 0x2F40 JUMPI DUP4 PUSH1 0x40 MLOAD PUSH32 0x64A0AE9200000000000000000000000000000000000000000000000000000000 DUP2 MSTORE PUSH1 0x4 ADD PUSH2 0x2F37 SWAP2 SWAP1 PUSH2 0x3E35 JUMP JUMPDEST PUSH1 0x40 MLOAD DUP1 SWAP2 SUB SWAP1 REVERT JUMPDEST DUP1 MLOAD DUP2 PUSH1 0x20 ADD REVERT JUMPDEST PUSH4 0x150B7A02 PUSH1 0xE0 SHL PUSH28 0xFFFFFFFFFFFFFFFFFFFFFFFFFFFFFFFFFFFFFFFFFFFFFFFFFFFFFFFF NOT AND DUP2 PUSH28 0xFFFFFFFFFFFFFFFFFFFFFFFFFFFFFFFFFFFFFFFFFFFFFFFFFFFFFFFF NOT AND EQ PUSH2 0x2FD1 JUMPI DUP4 PUSH1 0x40 MLOAD PUSH32 0x64A0AE9200000000000000000000000000000000000000000000000000000000 DUP2 MSTORE PUSH1 0x4 ADD PUSH2 0x2FC8 SWAP2 SWAP1 PUSH2 0x3E35 JUMP JUMPDEST PUSH1 0x40 MLOAD DUP1 SWAP2 SUB SWAP1 REVERT JUMPDEST POP JUMPDEST POP POP POP POP POP JUMP JUMPDEST PUSH1 0x60 PUSH1 0x40 MLOAD DUP1 PUSH1 0x20 ADD PUSH1 0x40 MSTORE DUP1 PUSH0 DUP2 MSTORE POP SWAP1 POP SWAP1 JUMP JUMPDEST PUSH1 0x60 PUSH0 PUSH1 0x1 PUSH2 0x2FFE DUP5 PUSH2 0x3793 JUMP JUMPDEST ADD SWAP1 POP PUSH0 DUP2 PUSH8 0xFFFFFFFFFFFFFFFF DUP2 GT ISZERO PUSH2 0x301C JUMPI PUSH2 0x301B PUSH2 0x4177 JUMP JUMPDEST JUMPDEST PUSH1 0x40 MLOAD SWAP1 DUP1 DUP3 MSTORE DUP1 PUSH1 0x1F ADD PUSH1 0x1F NOT AND PUSH1 0x20 ADD DUP3 ADD PUSH1 0x40 MSTORE DUP1 ISZERO PUSH2 0x304E JUMPI DUP2 PUSH1 0x20 ADD PUSH1 0x1 DUP3 MUL DUP1 CALLDATASIZE DUP4 CALLDATACOPY DUP1 DUP3 ADD SWAP2 POP POP SWAP1 POP JUMPDEST POP SWAP1 POP PUSH0 DUP3 PUSH1 0x20 ADD DUP3 ADD SWAP1 POP JUMPDEST PUSH1 0x1 ISZERO PUSH2 0x30AF JUMPI DUP1 DUP1 PUSH1 0x1 SWAP1 SUB SWAP2 POP POP PUSH32 0x3031323334353637383961626364656600000000000000000000000000000000 PUSH1 0xA DUP7 MOD BYTE DUP2 MSTORE8 PUSH1 0xA DUP6 DUP2 PUSH2 0x30A4 JUMPI PUSH2 0x30A3 PUSH2 0x53D8 JUMP JUMPDEST JUMPDEST DIV SWAP5 POP PUSH0 DUP6 SUB PUSH2 0x305B JUMPI JUMPDEST DUP2 SWAP4 POP POP POP POP SWAP2 SWAP1 POP JUMP JUMPDEST PUSH1 0x1 DUP2 PUSH0 ADD PUSH0 DUP3 DUP3 SLOAD ADD SWAP3 POP POP DUP2 SWAP1 SSTORE POP POP JUMP JUMPDEST PUSH0 DUP2 PUSH0 ADD SLOAD SWAP1 POP SWAP2 SWAP1 POP JUMP JUMPDEST PUSH2 0x30F3 DUP3 DUP3 PUSH1 0x40 MLOAD DUP1 PUSH1 0x20 ADD PUSH1 0x40 MSTORE DUP1 PUSH0 DUP2 MSTORE POP PUSH2 0x38E4 JUMP JUMPDEST POP POP JUMP JUMPDEST PUSH1 0x8 PUSH0 DUP5 DUP2 MSTORE PUSH1 0x20 ADD SWAP1 DUP2 MSTORE PUSH1 0x20 ADD PUSH0 KECCAK256 PUSH1 0x4 ADD PUSH0 SWAP1 SLOAD SWAP1 PUSH2 0x100 EXP SWAP1 DIV PUSH1 0xFF AND ISZERO PUSH2 0x3158 JUMPI PUSH1 0x40 MLOAD PUSH32 0x8C379A000000000000000000000000000000000000000000000000000000000 DUP2 MSTORE PUSH1 0x4 ADD PUSH2 0x314F SWAP1 PUSH2 0x544F JUMP JUMPDEST PUSH1 0x40 MLOAD DUP1 SWAP2 SUB SWAP1 REVERT JUMPDEST PUSH0 PUSH32 0x0 PUSH20 0xFFFFFFFFFFFFFFFFFFFFFFFFFFFFFFFFFFFFFFFF AND PUSH4 0xFF91E489 DUP5 PUSH1 0x40 MLOAD DUP3 PUSH4 0xFFFFFFFF AND PUSH1 0xE0 SHL DUP2 MSTORE PUSH1 0x4 ADD PUSH2 0x31B2 SWAP2 SWAP1 PUSH2 0x3FEF JUMP JUMPDEST PUSH0 PUSH1 0x40 MLOAD DUP1 DUP4 SUB DUP2 DUP7 GAS STATICCALL ISZERO DUP1 ISZERO PUSH2 0x31CC JUMPI RETURNDATASIZE PUSH0 DUP1 RETURNDATACOPY RETURNDATASIZE PUSH0 REVERT JUMPDEST POP POP POP POP PUSH1 0x40 MLOAD RETURNDATASIZE PUSH0 DUP3 RETURNDATACOPY RETURNDATASIZE PUSH1 0x1F NOT PUSH1 0x1F DUP3 ADD AND DUP3 ADD DUP1 PUSH1 0x40 MSTORE POP DUP2 ADD SWAP1 PUSH2 0x31F4 SWAP2 SWAP1 PUSH2 0x46AA JUMP JUMPDEST SWAP1 POP PUSH0 PUSH32 0x0 PUSH20 0xFFFFFFFFFFFFFFFFFFFFFFFFFFFFFFFFFFFFFFFF AND PUSH4 0xE3FBF314 DUP4 PUSH1 0xC0 ADD MLOAD PUSH1 0x40 MLOAD DUP3 PUSH4 0xFFFFFFFF AND PUSH1 0xE0 SHL DUP2 MSTORE PUSH1 0x4 ADD PUSH2 0x3254 SWAP2 SWAP1 PUSH2 0x3FEF JUMP JUMPDEST PUSH0 PUSH1 0x40 MLOAD DUP1 DUP4 SUB DUP2 DUP7 GAS STATICCALL ISZERO DUP1 ISZERO PUSH2 0x326E JUMPI RETURNDATASIZE PUSH0 DUP1 RETURNDATACOPY RETURNDATASIZE PUSH0 REVERT JUMPDEST POP POP POP POP PUSH1 0x40 MLOAD RETURNDATASIZE PUSH0 DUP3 RETURNDATACOPY RETURNDATASIZE PUSH1 0x1F NOT PUSH1 0x1F DUP3 ADD AND DUP3 ADD DUP1 PUSH1 0x40 MSTORE POP DUP2 ADD SWAP1 PUSH2 0x3296 SWAP2 SWAP1 PUSH2 0x4B23 JUMP JUMPDEST SWAP1 POP PUSH0 PUSH32 0x0 PUSH20 0xFFFFFFFFFFFFFFFFFFFFFFFFFFFFFFFFFFFFFFFF AND PUSH4 0x1F741897 PUSH1 0x40 MLOAD DUP2 PUSH4 0xFFFFFFFF AND PUSH1 0xE0 SHL DUP2 MSTORE PUSH1 0x4 ADD PUSH1 0x20 PUSH1 0x40 MLOAD DUP1 DUP4 SUB DUP2 DUP7 GAS STATICCALL ISZERO DUP1 ISZERO PUSH2 0x3302 JUMPI RETURNDATASIZE PUSH0 DUP1 RETURNDATACOPY RETURNDATASIZE PUSH0 REVERT JUMPDEST POP POP POP POP PUSH1 0x40 MLOAD RETURNDATASIZE PUSH1 0x1F NOT PUSH1 0x1F DUP3 ADD AND DUP3 ADD DUP1 PUSH1 0x40 MSTORE POP DUP2 ADD SWAP1 PUSH2 0x3326 SWAP2 SWAP1 PUSH2 0x546D JUMP JUMPDEST SWAP1 POP PUSH1 0x64 DUP3 PUSH1 0xA0 ADD MLOAD DUP5 PUSH1 0x80 ADD MLOAD DUP4 PUSH2 0x333F SWAP2 SWAP1 PUSH2 0x54C5 JUMP JUMPDEST PUSH2 0x3349 SWAP2 SWAP1 PUSH2 0x54C5 JUMP JUMPDEST GT ISZERO PUSH2 0x338A JUMPI PUSH1 0x40 MLOAD PUSH32 0x8C379A000000000000000000000000000000000000000000000000000000000 DUP2 MSTORE PUSH1 0x4 ADD PUSH2 0x3381 SWAP1 PUSH2 0x5542 JUMP JUMPDEST PUSH1 0x40 MLOAD DUP1 SWAP2 SUB SWAP1 REVERT JUMPDEST PUSH32 0x0 PUSH20 0xFFFFFFFFFFFFFFFFFFFFFFFFFFFFFFFFFFFFFFFF AND PUSH4 0x17BA1245 DUP8 PUSH0 DUP7 PUSH1 0x20 ADD MLOAD DUP7 PUSH1 0x80 ADD MLOAD DUP10 DUP8 DUP11 PUSH1 0x80 ADD MLOAD DUP11 PUSH1 0xA0 ADD MLOAD PUSH1 0x40 MLOAD DUP10 PUSH4 0xFFFFFFFF AND PUSH1 0xE0 SHL DUP2 MSTORE PUSH1 0x4 ADD PUSH2 0x3401 SWAP9 SWAP8 SWAP7 SWAP6 SWAP5 SWAP4 SWAP3 SWAP2 SWAP1 PUSH2 0x5560 JUMP JUMPDEST PUSH0 PUSH1 0x40 MLOAD DUP1 DUP4 SUB DUP2 PUSH0 DUP8 DUP1 EXTCODESIZE ISZERO DUP1 ISZERO PUSH2 0x3418 JUMPI PUSH0 DUP1 REVERT JUMPDEST POP GAS CALL ISZERO DUP1 ISZERO PUSH2 0x342A JUMPI RETURNDATASIZE PUSH0 DUP1 RETURNDATACOPY RETURNDATASIZE PUSH0 REVERT JUMPDEST POP POP POP POP PUSH1 0x1 PUSH1 0x8 PUSH0 DUP9 DUP2 MSTORE PUSH1 0x20 ADD SWAP1 DUP2 MSTORE PUSH1 0x20 ADD PUSH0 KECCAK256 PUSH1 0x4 ADD PUSH0 PUSH2 0x100 EXP DUP2 SLOAD DUP2 PUSH1 0xFF MUL NOT AND SWAP1 DUP4 ISZERO ISZERO MUL OR SWAP1 SSTORE POP DUP6 PUSH32 0x2DEEDE74B5D808C4427B3B6F5C19347053842F97802787BE8EDF94F1C9714E8 PUSH1 0x40 MLOAD PUSH1 0x40 MLOAD DUP1 SWAP2 SUB SWAP1 LOG2 POP POP POP POP POP POP JUMP JUMPDEST PUSH0 PUSH1 0x2 PUSH0 DUP4 DUP2 MSTORE PUSH1 0x20 ADD SWAP1 DUP2 MSTORE PUSH1 0x20 ADD PUSH0 KECCAK256 PUSH0 SWAP1 SLOAD SWAP1 PUSH2 0x100 EXP SWAP1 DIV PUSH20 0xFFFFFFFFFFFFFFFFFFFFFFFFFFFFFFFFFFFFFFFF AND SWAP1 POP SWAP2 SWAP1 POP JUMP JUMPDEST DUP1 DUP1 PUSH2 0x3500 JUMPI POP PUSH0 PUSH20 0xFFFFFFFFFFFFFFFFFFFFFFFFFFFFFFFFFFFFFFFF AND DUP3 PUSH20 0xFFFFFFFFFFFFFFFFFFFFFFFFFFFFFFFFFFFFFFFF AND EQ ISZERO JUMPDEST ISZERO PUSH2 0x3632 JUMPI PUSH0 PUSH2 0x350F DUP5 PUSH2 0x291F JUMP JUMPDEST SWAP1 POP PUSH0 PUSH20 0xFFFFFFFFFFFFFFFFFFFFFFFFFFFFFFFFFFFFFFFF AND DUP4 PUSH20 0xFFFFFFFFFFFFFFFFFFFFFFFFFFFFFFFFFFFFFFFF AND EQ ISZERO DUP1 ISZERO PUSH2 0x3579 JUMPI POP DUP3 PUSH20 0xFFFFFFFFFFFFFFFFFFFFFFFFFFFFFFFFFFFFFFFF AND DUP2 PUSH20 0xFFFFFFFFFFFFFFFFFFFFFFFFFFFFFFFFFFFFFFFF AND EQ ISZERO JUMPDEST DUP1 ISZERO PUSH2 0x358C JUMPI POP PUSH2 0x358A DUP2 DUP5 PUSH2 0x22A3 JUMP JUMPDEST ISZERO JUMPDEST ISZERO PUSH2 0x35CE JUMPI DUP3 PUSH1 0x40 MLOAD PUSH32 0xA9FBF51F00000000000000000000000000000000000000000000000000000000 DUP2 MSTORE PUSH1 0x4 ADD PUSH2 0x35C5 SWAP2 SWAP1 PUSH2 0x3E35 JUMP JUMPDEST PUSH1 0x40 MLOAD DUP1 SWAP2 SUB SWAP1 REVERT JUMPDEST DUP2 ISZERO PUSH2 0x3630 JUMPI DUP4 DUP6 PUSH20 0xFFFFFFFFFFFFFFFFFFFFFFFFFFFFFFFFFFFFFFFF AND DUP3 PUSH20 0xFFFFFFFFFFFFFFFFFFFFFFFFFFFFFFFFFFFFFFFF AND PUSH32 0x8C5BE1E5EBEC7D5BD14F71427D1E84F3DD0314C0F7B2291E5B200AC8C7C3B925 PUSH1 0x40 MLOAD PUSH1 0x40 MLOAD DUP1 SWAP2 SUB SWAP1 LOG4 JUMPDEST POP JUMPDEST DUP4 PUSH1 0x4 PUSH0 DUP6 DUP2 MSTORE PUSH1 0x20 ADD SWAP1 DUP2 MSTORE PUSH1 0x20 ADD PUSH0 KECCAK256 PUSH0 PUSH2 0x100 EXP DUP2 SLOAD DUP2 PUSH20 0xFFFFFFFFFFFFFFFFFFFFFFFFFFFFFFFFFFFFFFFF MUL NOT AND SWAP1 DUP4 PUSH20 0xFFFFFFFFFFFFFFFFFFFFFFFFFFFFFFFFFFFFFFFF AND MUL OR SWAP1 SSTORE POP POP POP POP POP JUMP JUMPDEST PUSH2 0x3692 DUP4 DUP4 DUP4 PUSH2 0x3907 JUMP JUMPDEST PUSH2 0x3745 JUMPI PUSH0 PUSH20 0xFFFFFFFFFFFFFFFFFFFFFFFFFFFFFFFFFFFFFFFF AND DUP4 PUSH20 0xFFFFFFFFFFFFFFFFFFFFFFFFFFFFFFFFFFFFFFFF AND SUB PUSH2 0x3706 JUMPI DUP1 PUSH1 0x40 MLOAD PUSH32 0x7E27328900000000000000000000000000000000000000000000000000000000 DUP2 MSTORE PUSH1 0x4 ADD PUSH2 0x36FD SWAP2 SWAP1 PUSH2 0x3FEF JUMP JUMPDEST PUSH1 0x40 MLOAD DUP1 SWAP2 SUB SWAP1 REVERT JUMPDEST DUP2 DUP2 PUSH1 0x40 MLOAD PUSH32 0x177E802F00000000000000000000000000000000000000000000000000000000 DUP2 MSTORE PUSH1 0x4 ADD PUSH2 0x373C SWAP3 SWAP2 SWAP1 PUSH2 0x55DC JUMP JUMPDEST PUSH1 0x40 MLOAD DUP1 SWAP2 SUB SWAP1 REVERT JUMPDEST POP POP POP JUMP JUMPDEST PUSH2 0x3752 PUSH2 0x1603 JUMP JUMPDEST PUSH2 0x3791 JUMPI PUSH1 0x40 MLOAD PUSH32 0x8C379A000000000000000000000000000000000000000000000000000000000 DUP2 MSTORE PUSH1 0x4 ADD PUSH2 0x3788 SWAP1 PUSH2 0x564D JUMP JUMPDEST PUSH1 0x40 MLOAD DUP1 SWAP2 SUB SWAP1 REVERT JUMPDEST JUMP JUMPDEST PUSH0 DUP1 PUSH0 SWAP1 POP PUSH27 0x184F03E93FF9F4DAA797ED6E38ED64BF6A1F010000000000000000 DUP4 LT PUSH2 0x37EF JUMPI PUSH27 0x184F03E93FF9F4DAA797ED6E38ED64BF6A1F010000000000000000 DUP4 DUP2 PUSH2 0x37E5 JUMPI PUSH2 0x37E4 PUSH2 0x53D8 JUMP JUMPDEST JUMPDEST DIV SWAP3 POP PUSH1 0x40 DUP2 ADD SWAP1 POP JUMPDEST PUSH14 0x4EE2D6D415B85ACEF8100000000 DUP4 LT PUSH2 0x382C JUMPI PUSH14 0x4EE2D6D415B85ACEF8100000000 DUP4 DUP2 PUSH2 0x3822 JUMPI PUSH2 0x3821 PUSH2 0x53D8 JUMP JUMPDEST JUMPDEST DIV SWAP3 POP PUSH1 0x20 DUP2 ADD SWAP1 POP JUMPDEST PUSH7 0x2386F26FC10000 DUP4 LT PUSH2 0x385B JUMPI PUSH7 0x2386F26FC10000 DUP4 DUP2 PUSH2 0x3851 JUMPI PUSH2 0x3850 PUSH2 0x53D8 JUMP JUMPDEST JUMPDEST DIV SWAP3 POP PUSH1 0x10 DUP2 ADD SWAP1 POP JUMPDEST PUSH4 0x5F5E100 DUP4 LT PUSH2 0x3884 JUMPI PUSH4 0x5F5E100 DUP4 DUP2 PUSH2 0x387A JUMPI PUSH2 0x3879 PUSH2 0x53D8 JUMP JUMPDEST JUMPDEST DIV SWAP3 POP PUSH1 0x8 DUP2 ADD SWAP1 POP JUMPDEST PUSH2 0x2710 DUP4 LT PUSH2 0x38A9 JUMPI PUSH2 0x2710 DUP4 DUP2 PUSH2 0x389F JUMPI PUSH2 0x389E PUSH2 0x53D8 JUMP JUMPDEST JUMPDEST DIV SWAP3 POP PUSH1 0x4 DUP2 ADD SWAP1 POP JUMPDEST PUSH1 0x64 DUP4 LT PUSH2 0x38CC JUMPI PUSH1 0x64 DUP4 DUP2 PUSH2 0x38C2 JUMPI PUSH2 0x38C1 PUSH2 0x53D8 JUMP JUMPDEST JUMPDEST DIV SWAP3 POP PUSH1 0x2 DUP2 ADD SWAP1 POP JUMPDEST PUSH1 0xA DUP4 LT PUSH2 0x38DB JUMPI PUSH1 0x1 DUP2 ADD SWAP1 POP JUMPDEST DUP1 SWAP2 POP POP SWAP2 SWAP1 POP JUMP JUMPDEST PUSH2 0x38EE DUP4 DUP4 PUSH2 0x39C7 JUMP JUMPDEST PUSH2 0x3902 PUSH2 0x38F9 PUSH2 0x29DE JUMP JUMPDEST PUSH0 DUP6 DUP6 DUP6 PUSH2 0x2E2E JUMP JUMPDEST POP POP POP JUMP JUMPDEST PUSH0 DUP1 PUSH20 0xFFFFFFFFFFFFFFFFFFFFFFFFFFFFFFFFFFFFFFFF AND DUP4 PUSH20 0xFFFFFFFFFFFFFFFFFFFFFFFFFFFFFFFFFFFFFFFF AND EQ ISZERO DUP1 ISZERO PUSH2 0x39BE JUMPI POP DUP3 PUSH20 0xFFFFFFFFFFFFFFFFFFFFFFFFFFFFFFFFFFFFFFFF AND DUP5 PUSH20 0xFFFFFFFFFFFFFFFFFFFFFFFFFFFFFFFFFFFFFFFF AND EQ DUP1 PUSH2 0x397F JUMPI POP PUSH2 0x397E DUP5 DUP5 PUSH2 0x22A3 JUMP JUMPDEST JUMPDEST DUP1 PUSH2 0x39BD JUMPI POP DUP3 PUSH20 0xFFFFFFFFFFFFFFFFFFFFFFFFFFFFFFFFFFFFFFFF AND PUSH2 0x39A5 DUP4 PUSH2 0x29A5 JUMP JUMPDEST PUSH20 0xFFFFFFFFFFFFFFFFFFFFFFFFFFFFFFFFFFFFFFFF AND EQ JUMPDEST JUMPDEST SWAP1 POP SWAP4 SWAP3 POP POP POP JUMP JUMPDEST PUSH0 PUSH20 0xFFFFFFFFFFFFFFFFFFFFFFFFFFFFFFFFFFFFFFFF AND DUP3 PUSH20 0xFFFFFFFFFFFFFFFFFFFFFFFFFFFFFFFFFFFFFFFF AND SUB PUSH2 0x3A37 JUMPI PUSH0 PUSH1 0x40 MLOAD PUSH32 0x64A0AE9200000000000000000000000000000000000000000000000000000000 DUP2 MSTORE PUSH1 0x4 ADD PUSH2 0x3A2E SWAP2 SWAP1 PUSH2 0x3E35 JUMP JUMPDEST PUSH1 0x40 MLOAD DUP1 SWAP2 SUB SWAP1 REVERT JUMPDEST PUSH0 PUSH2 0x3A43 DUP4 DUP4 PUSH0 PUSH2 0x29F7 JUMP JUMPDEST SWAP1 POP PUSH0 PUSH20 0xFFFFFFFFFFFFFFFFFFFFFFFFFFFFFFFFFFFFFFFF AND DUP2 PUSH20 0xFFFFFFFFFFFFFFFFFFFFFFFFFFFFFFFFFFFFFFFF AND EQ PUSH2 0x3AB5 JUMPI PUSH0 PUSH1 0x40 MLOAD PUSH32 0x73C6AC6E00000000000000000000000000000000000000000000000000000000 DUP2 MSTORE PUSH1 0x4 ADD PUSH2 0x3AAC SWAP2 SWAP1 PUSH2 0x3E35 JUMP JUMPDEST PUSH1 0x40 MLOAD DUP1 SWAP2 SUB SWAP1 REVERT JUMPDEST POP POP POP JUMP JUMPDEST PUSH0 PUSH20 0xFFFFFFFFFFFFFFFFFFFFFFFFFFFFFFFFFFFFFFFF DUP3 AND SWAP1 POP SWAP2 SWAP1 POP JUMP JUMPDEST PUSH0 DUP2 SWAP1 POP SWAP2 SWAP1 POP JUMP JUMPDEST PUSH0 PUSH2 0x3AFC PUSH2 0x3AF7 PUSH2 0x3AF2 DUP5 PUSH2 0x3ABA JUMP JUMPDEST PUSH2 0x3AD9 JUMP JUMPDEST PUSH2 0x3ABA JUMP JUMPDEST SWAP1 POP SWAP2 SWAP1 POP JUMP JUMPDEST PUSH0 PUSH2 0x3B0D DUP3 PUSH2 0x3AE2 JUMP JUMPDEST SWAP1 POP SWAP2 SWAP1 POP JUMP JUMPDEST PUSH0 PUSH2 0x3B1E DUP3 PUSH2 0x3B03 JUMP JUMPDEST SWAP1 POP SWAP2 SWAP1 POP JUMP JUMPDEST PUSH2 0x3B2E DUP2 PUSH2 0x3B14 JUMP JUMPDEST DUP3 MSTORE POP POP JUMP JUMPDEST PUSH0 PUSH1 0x20 DUP3 ADD SWAP1 POP PUSH2 0x3B47 PUSH0 DUP4 ADD DUP5 PUSH2 0x3B25 JUMP JUMPDEST SWAP3 SWAP2 POP POP JUMP JUMPDEST PUSH0 PUSH1 0x40 MLOAD SWAP1 POP SWAP1 JUMP JUMPDEST PUSH0 DUP1 REVERT JUMPDEST PUSH0 DUP1 REVERT JUMPDEST PUSH0 PUSH32 0xFFFFFFFF00000000000000000000000000000000000000000000000000000000 DUP3 AND SWAP1 POP SWAP2 SWAP1 POP JUMP JUMPDEST PUSH2 0x3B92 DUP2 PUSH2 0x3B5E JUMP JUMPDEST DUP2 EQ PUSH2 0x3B9C JUMPI PUSH0 DUP1 REVERT JUMPDEST POP JUMP JUMPDEST PUSH0 DUP2 CALLDATALOAD SWAP1 POP PUSH2 0x3BAD DUP2 PUSH2 0x3B89 JUMP JUMPDEST SWAP3 SWAP2 POP POP JUMP JUMPDEST PUSH0 PUSH1 0x20 DUP3 DUP5 SUB SLT ISZERO PUSH2 0x3BC8 JUMPI PUSH2 0x3BC7 PUSH2 0x3B56 JUMP JUMPDEST JUMPDEST PUSH0 PUSH2 0x3BD5 DUP5 DUP3 DUP6 ADD PUSH2 0x3B9F JUMP JUMPDEST SWAP2 POP POP SWAP3 SWAP2 POP POP JUMP JUMPDEST PUSH0 DUP2 ISZERO ISZERO SWAP1 POP SWAP2 SWAP1 POP JUMP JUMPDEST PUSH2 0x3BF2 DUP2 PUSH2 0x3BDE JUMP JUMPDEST DUP3 MSTORE POP POP JUMP JUMPDEST PUSH0 PUSH1 0x20 DUP3 ADD SWAP1 POP PUSH2 0x3C0B PUSH0 DUP4 ADD DUP5 PUSH2 0x3BE9 JUMP JUMPDEST SWAP3 SWAP2 POP POP JUMP JUMPDEST PUSH0 DUP2 SWAP1 POP SWAP2 SWAP1 POP JUMP JUMPDEST PUSH2 0x3C23 DUP2 PUSH2 0x3C11 JUMP JUMPDEST DUP2 EQ PUSH2 0x3C2D JUMPI PUSH0 DUP1 REVERT JUMPDEST POP JUMP JUMPDEST PUSH0 DUP2 CALLDATALOAD SWAP1 POP PUSH2 0x3C3E DUP2 PUSH2 0x3C1A JUMP JUMPDEST SWAP3 SWAP2 POP POP JUMP JUMPDEST PUSH0 PUSH1 0x20 DUP3 DUP5 SUB SLT ISZERO PUSH2 0x3C59 JUMPI PUSH2 0x3C58 PUSH2 0x3B56 JUMP JUMPDEST JUMPDEST PUSH0 PUSH2 0x3C66 DUP5 DUP3 DUP6 ADD PUSH2 0x3C30 JUMP JUMPDEST SWAP2 POP POP SWAP3 SWAP2 POP POP JUMP JUMPDEST PUSH32 0x4E487B7100000000000000000000000000000000000000000000000000000000 PUSH0 MSTORE PUSH1 0x21 PUSH1 0x4 MSTORE PUSH1 0x24 PUSH0 REVERT JUMPDEST PUSH1 0x4 DUP2 LT PUSH2 0x3CAD JUMPI PUSH2 0x3CAC PUSH2 0x3C6F JUMP JUMPDEST JUMPDEST POP JUMP JUMPDEST PUSH0 DUP2 SWAP1 POP PUSH2 0x3CBD DUP3 PUSH2 0x3C9C JUMP JUMPDEST SWAP2 SWAP1 POP JUMP JUMPDEST PUSH0 PUSH2 0x3CCC DUP3 PUSH2 0x3CB0 JUMP JUMPDEST SWAP1 POP SWAP2 SWAP1 POP JUMP JUMPDEST PUSH2 0x3CDC DUP2 PUSH2 0x3CC2 JUMP JUMPDEST DUP3 MSTORE POP POP JUMP JUMPDEST PUSH2 0x3CEB DUP2 PUSH2 0x3C11 JUMP JUMPDEST DUP3 MSTORE POP POP JUMP JUMPDEST PUSH0 PUSH1 0xA0 DUP3 ADD SWAP1 POP PUSH2 0x3D04 PUSH0 DUP4 ADD DUP9 PUSH2 0x3BE9 JUMP JUMPDEST PUSH2 0x3D11 PUSH1 0x20 DUP4 ADD DUP8 PUSH2 0x3CD3 JUMP JUMPDEST PUSH2 0x3D1E PUSH1 0x40 DUP4 ADD DUP7 PUSH2 0x3BE9 JUMP JUMPDEST PUSH2 0x3D2B PUSH1 0x60 DUP4 ADD DUP6 PUSH2 0x3CE2 JUMP JUMPDEST PUSH2 0x3D38 PUSH1 0x80 DUP4 ADD DUP5 PUSH2 0x3BE9 JUMP JUMPDEST SWAP7 SWAP6 POP POP POP POP POP POP JUMP JUMPDEST PUSH0 DUP2 MLOAD SWAP1 POP SWAP2 SWAP1 POP JUMP JUMPDEST PUSH0 DUP3 DUP3 MSTORE PUSH1 0x20 DUP3 ADD SWAP1 POP SWAP3 SWAP2 POP POP JUMP JUMPDEST DUP3 DUP2 DUP4 MCOPY PUSH0 DUP4 DUP4 ADD MSTORE POP POP POP JUMP JUMPDEST PUSH0 PUSH1 0x1F NOT PUSH1 0x1F DUP4 ADD AND SWAP1 POP SWAP2 SWAP1 POP JUMP JUMPDEST PUSH0 PUSH2 0x3D84 DUP3 PUSH2 0x3D42 JUMP JUMPDEST PUSH2 0x3D8E DUP2 DUP6 PUSH2 0x3D4C JUMP JUMPDEST SWAP4 POP PUSH2 0x3D9E DUP2 DUP6 PUSH1 0x20 DUP7 ADD PUSH2 0x3D5C JUMP JUMPDEST PUSH2 0x3DA7 DUP2 PUSH2 0x3D6A JUMP JUMPDEST DUP5 ADD SWAP2 POP POP SWAP3 SWAP2 POP POP JUMP JUMPDEST PUSH0 PUSH1 0x20 DUP3 ADD SWAP1 POP DUP2 DUP2 SUB PUSH0 DUP4 ADD MSTORE PUSH2 0x3DCA DUP2 DUP5 PUSH2 0x3D7A JUMP JUMPDEST SWAP1 POP SWAP3 SWAP2 POP POP JUMP JUMPDEST PUSH0 PUSH2 0x3DDC DUP3 PUSH2 0x3ABA JUMP JUMPDEST SWAP1 POP SWAP2 SWAP1 POP JUMP JUMPDEST PUSH2 0x3DEC DUP2 PUSH2 0x3DD2 JUMP JUMPDEST DUP3 MSTORE POP POP JUMP JUMPDEST PUSH0 PUSH1 0x80 DUP3 ADD SWAP1 POP PUSH2 0x3E05 PUSH0 DUP4 ADD DUP8 PUSH2 0x3BE9 JUMP JUMPDEST PUSH2 0x3E12 PUSH1 0x20 DUP4 ADD DUP7 PUSH2 0x3CE2 JUMP JUMPDEST PUSH2 0x3E1F PUSH1 0x40 DUP4 ADD DUP6 PUSH2 0x3DE3 JUMP JUMPDEST PUSH2 0x3E2C PUSH1 0x60 DUP4 ADD DUP5 PUSH2 0x3BE9 JUMP JUMPDEST SWAP6 SWAP5 POP POP POP POP POP JUMP JUMPDEST PUSH0 PUSH1 0x20 DUP3 ADD SWAP1 POP PUSH2 0x3E48 PUSH0 DUP4 ADD DUP5 PUSH2 0x3DE3 JUMP JUMPDEST SWAP3 SWAP2 POP POP JUMP JUMPDEST PUSH2 0x3E57 DUP2 PUSH2 0x3DD2 JUMP JUMPDEST DUP2 EQ PUSH2 0x3E61 JUMPI PUSH0 DUP1 REVERT JUMPDEST POP JUMP JUMPDEST PUSH0 DUP2 CALLDATALOAD SWAP1 POP PUSH2 0x3E72 DUP2 PUSH2 0x3E4E JUMP JUMPDEST SWAP3 SWAP2 POP POP JUMP JUMPDEST PUSH0 DUP1 PUSH1 0x40 DUP4 DUP6 SUB SLT ISZERO PUSH2 0x3E8E JUMPI PUSH2 0x3E8D PUSH2 0x3B56 JUMP JUMPDEST JUMPDEST PUSH0 PUSH2 0x3E9B DUP6 DUP3 DUP7 ADD PUSH2 0x3E64 JUMP JUMPDEST SWAP3 POP POP PUSH1 0x20 PUSH2 0x3EAC DUP6 DUP3 DUP7 ADD PUSH2 0x3C30 JUMP JUMPDEST SWAP2 POP POP SWAP3 POP SWAP3 SWAP1 POP JUMP JUMPDEST PUSH0 DUP1 PUSH0 PUSH1 0x60 DUP5 DUP7 SUB SLT ISZERO PUSH2 0x3ECD JUMPI PUSH2 0x3ECC PUSH2 0x3B56 JUMP JUMPDEST JUMPDEST PUSH0 PUSH2 0x3EDA DUP7 DUP3 DUP8 ADD PUSH2 0x3E64 JUMP JUMPDEST SWAP4 POP POP PUSH1 0x20 PUSH2 0x3EEB DUP7 DUP3 DUP8 ADD PUSH2 0x3E64 JUMP JUMPDEST SWAP3 POP POP PUSH1 0x40 PUSH2 0x3EFC DUP7 DUP3 DUP8 ADD PUSH2 0x3C30 JUMP JUMPDEST SWAP2 POP POP SWAP3 POP SWAP3 POP SWAP3 JUMP JUMPDEST PUSH0 DUP1 REVERT JUMPDEST PUSH0 DUP1 REVERT JUMPDEST PUSH0 DUP1 REVERT JUMPDEST PUSH0 DUP1 DUP4 PUSH1 0x1F DUP5 ADD SLT PUSH2 0x3F27 JUMPI PUSH2 0x3F26 PUSH2 0x3F06 JUMP JUMPDEST JUMPDEST DUP3 CALLDATALOAD SWAP1 POP PUSH8 0xFFFFFFFFFFFFFFFF DUP2 GT ISZERO PUSH2 0x3F44 JUMPI PUSH2 0x3F43 PUSH2 0x3F0A JUMP JUMPDEST JUMPDEST PUSH1 0x20 DUP4 ADD SWAP2 POP DUP4 PUSH1 0x1 DUP3 MUL DUP4 ADD GT ISZERO PUSH2 0x3F60 JUMPI PUSH2 0x3F5F PUSH2 0x3F0E JUMP JUMPDEST JUMPDEST SWAP3 POP SWAP3 SWAP1 POP JUMP JUMPDEST PUSH0 DUP1 PUSH0 PUSH1 0x40 DUP5 DUP7 SUB SLT ISZERO PUSH2 0x3F7E JUMPI PUSH2 0x3F7D PUSH2 0x3B56 JUMP JUMPDEST JUMPDEST PUSH0 PUSH2 0x3F8B DUP7 DUP3 DUP8 ADD PUSH2 0x3C30 JUMP JUMPDEST SWAP4 POP POP PUSH1 0x20 DUP5 ADD CALLDATALOAD PUSH8 0xFFFFFFFFFFFFFFFF DUP2 GT ISZERO PUSH2 0x3FAC JUMPI PUSH2 0x3FAB PUSH2 0x3B5A JUMP JUMPDEST JUMPDEST PUSH2 0x3FB8 DUP7 DUP3 DUP8 ADD PUSH2 0x3F12 JUMP JUMPDEST SWAP3 POP SWAP3 POP POP SWAP3 POP SWAP3 POP SWAP3 JUMP JUMPDEST PUSH0 PUSH1 0x20 DUP3 DUP5 SUB SLT ISZERO PUSH2 0x3FD9 JUMPI PUSH2 0x3FD8 PUSH2 0x3B56 JUMP JUMPDEST JUMPDEST PUSH0 PUSH2 0x3FE6 DUP5 DUP3 DUP6 ADD PUSH2 0x3E64 JUMP JUMPDEST SWAP2 POP POP SWAP3 SWAP2 POP POP JUMP JUMPDEST PUSH0 PUSH1 0x20 DUP3 ADD SWAP1 POP PUSH2 0x4002 PUSH0 DUP4 ADD DUP5 PUSH2 0x3CE2 JUMP JUMPDEST SWAP3 SWAP2 POP POP JUMP JUMPDEST PUSH0 PUSH2 0x4012 DUP3 PUSH2 0x3B03 JUMP JUMPDEST SWAP1 POP SWAP2 SWAP1 POP JUMP JUMPDEST PUSH2 0x4022 DUP2 PUSH2 0x4008 JUMP JUMPDEST DUP3 MSTORE POP POP JUMP JUMPDEST PUSH0 PUSH1 0x20 DUP3 ADD SWAP1 POP PUSH2 0x403B PUSH0 DUP4 ADD DUP5 PUSH2 0x4019 JUMP JUMPDEST SWAP3 SWAP2 POP POP JUMP JUMPDEST PUSH0 PUSH2 0x404B DUP3 PUSH2 0x3B03 JUMP JUMPDEST SWAP1 POP SWAP2 SWAP1 POP JUMP JUMPDEST PUSH2 0x405B DUP2 PUSH2 0x4041 JUMP JUMPDEST DUP3 MSTORE POP POP JUMP JUMPDEST PUSH0 PUSH1 0x20 DUP3 ADD SWAP1 POP PUSH2 0x4074 PUSH0 DUP4 ADD DUP5 PUSH2 0x4052 JUMP JUMPDEST SWAP3 SWAP2 POP POP JUMP JUMPDEST PUSH2 0x4083 DUP2 PUSH2 0x3BDE JUMP JUMPDEST DUP2 EQ PUSH2 0x408D JUMPI PUSH0 DUP1 REVERT JUMPDEST POP JUMP JUMPDEST PUSH0 DUP2 CALLDATALOAD SWAP1 POP PUSH2 0x409E DUP2 PUSH2 0x407A JUMP JUMPDEST SWAP3 SWAP2 POP POP JUMP JUMPDEST PUSH0 DUP1 PUSH1 0x40 DUP4 DUP6 SUB SLT ISZERO PUSH2 0x40BA JUMPI PUSH2 0x40B9 PUSH2 0x3B56 JUMP JUMPDEST JUMPDEST PUSH0 PUSH2 0x40C7 DUP6 DUP3 DUP7 ADD PUSH2 0x3E64 JUMP JUMPDEST SWAP3 POP POP PUSH1 0x20 PUSH2 0x40D8 DUP6 DUP3 DUP7 ADD PUSH2 0x4090 JUMP JUMPDEST SWAP2 POP POP SWAP3 POP SWAP3 SWAP1 POP JUMP JUMPDEST PUSH0 PUSH1 0xA0 DUP3 ADD SWAP1 POP PUSH2 0x40F5 PUSH0 DUP4 ADD DUP9 PUSH2 0x3CE2 JUMP JUMPDEST PUSH2 0x4102 PUSH1 0x20 DUP4 ADD DUP8 PUSH2 0x3DE3 JUMP JUMPDEST DUP2 DUP2 SUB PUSH1 0x40 DUP4 ADD MSTORE PUSH2 0x4114 DUP2 DUP7 PUSH2 0x3D7A JUMP JUMPDEST SWAP1 POP PUSH2 0x4123 PUSH1 0x60 DUP4 ADD DUP6 PUSH2 0x3CD3 JUMP JUMPDEST PUSH2 0x4130 PUSH1 0x80 DUP4 ADD DUP5 PUSH2 0x3CE2 JUMP JUMPDEST SWAP7 SWAP6 POP POP POP POP POP POP JUMP JUMPDEST PUSH0 PUSH2 0x4144 DUP3 PUSH2 0x3B03 JUMP JUMPDEST SWAP1 POP SWAP2 SWAP1 POP JUMP JUMPDEST PUSH2 0x4154 DUP2 PUSH2 0x413A JUMP JUMPDEST DUP3 MSTORE POP POP JUMP JUMPDEST PUSH0 PUSH1 0x20 DUP3 ADD SWAP1 POP PUSH2 0x416D PUSH0 DUP4 ADD DUP5 PUSH2 0x414B JUMP JUMPDEST SWAP3 SWAP2 POP POP JUMP JUMPDEST PUSH0 DUP1 REVERT JUMPDEST PUSH32 0x4E487B7100000000000000000000000000000000000000000000000000000000 PUSH0 MSTORE PUSH1 0x41 PUSH1 0x4 MSTORE PUSH1 0x24 PUSH0 REVERT JUMPDEST PUSH2 0x41AD DUP3 PUSH2 0x3D6A JUMP JUMPDEST DUP2 ADD DUP2 DUP2 LT PUSH8 0xFFFFFFFFFFFFFFFF DUP3 GT OR ISZERO PUSH2 0x41CC JUMPI PUSH2 0x41CB PUSH2 0x4177 JUMP JUMPDEST JUMPDEST DUP1 PUSH1 0x40 MSTORE POP POP POP JUMP JUMPDEST PUSH0 PUSH2 0x41DE PUSH2 0x3B4D JUMP JUMPDEST SWAP1 POP PUSH2 0x41EA DUP3 DUP3 PUSH2 0x41A4 JUMP JUMPDEST SWAP2 SWAP1 POP JUMP JUMPDEST PUSH0 PUSH8 0xFFFFFFFFFFFFFFFF DUP3 GT ISZERO PUSH2 0x4209 JUMPI PUSH2 0x4208 PUSH2 0x4177 JUMP JUMPDEST JUMPDEST PUSH2 0x4212 DUP3 PUSH2 0x3D6A JUMP JUMPDEST SWAP1 POP PUSH1 0x20 DUP2 ADD SWAP1 POP SWAP2 SWAP1 POP JUMP JUMPDEST DUP3 DUP2 DUP4 CALLDATACOPY PUSH0 DUP4 DUP4 ADD MSTORE POP POP POP JUMP JUMPDEST PUSH0 PUSH2 0x423F PUSH2 0x423A DUP5 PUSH2 0x41EF JUMP JUMPDEST PUSH2 0x41D5 JUMP JUMPDEST SWAP1 POP DUP3 DUP2 MSTORE PUSH1 0x20 DUP2 ADD DUP5 DUP5 DUP5 ADD GT ISZERO PUSH2 0x425B JUMPI PUSH2 0x425A PUSH2 0x4173 JUMP JUMPDEST JUMPDEST PUSH2 0x4266 DUP5 DUP3 DUP6 PUSH2 0x421F JUMP JUMPDEST POP SWAP4 SWAP3 POP POP POP JUMP JUMPDEST PUSH0 DUP3 PUSH1 0x1F DUP4 ADD SLT PUSH2 0x4282 JUMPI PUSH2 0x4281 PUSH2 0x3F06 JUMP JUMPDEST JUMPDEST DUP2 CALLDATALOAD PUSH2 0x4292 DUP5 DUP3 PUSH1 0x20 DUP7 ADD PUSH2 0x422D JUMP JUMPDEST SWAP2 POP POP SWAP3 SWAP2 POP POP JUMP JUMPDEST PUSH0 DUP1 PUSH0 DUP1 PUSH1 0x80 DUP6 DUP8 SUB SLT ISZERO PUSH2 0x42B3 JUMPI PUSH2 0x42B2 PUSH2 0x3B56 JUMP JUMPDEST JUMPDEST PUSH0 PUSH2 0x42C0 DUP8 DUP3 DUP9 ADD PUSH2 0x3E64 JUMP JUMPDEST SWAP5 POP POP PUSH1 0x20 PUSH2 0x42D1 DUP8 DUP3 DUP9 ADD PUSH2 0x3E64 JUMP JUMPDEST SWAP4 POP POP PUSH1 0x40 PUSH2 0x42E2 DUP8 DUP3 DUP9 ADD PUSH2 0x3C30 JUMP JUMPDEST SWAP3 POP POP PUSH1 0x60 DUP6 ADD CALLDATALOAD PUSH8 0xFFFFFFFFFFFFFFFF DUP2 GT ISZERO PUSH2 0x4303 JUMPI PUSH2 0x4302 PUSH2 0x3B5A JUMP JUMPDEST JUMPDEST PUSH2 0x430F DUP8 DUP3 DUP9 ADD PUSH2 0x426E JUMP JUMPDEST SWAP2 POP POP SWAP3 SWAP6 SWAP2 SWAP5 POP SWAP3 POP JUMP JUMPDEST PUSH0 PUSH1 0xC0 DUP3 ADD SWAP1 POP PUSH2 0x432E PUSH0 DUP4 ADD DUP10 PUSH2 0x3CE2 JUMP JUMPDEST PUSH2 0x433B PUSH1 0x20 DUP4 ADD DUP9 PUSH2 0x3CE2 JUMP JUMPDEST PUSH2 0x4348 PUSH1 0x40 DUP4 ADD DUP8 PUSH2 0x3DE3 JUMP JUMPDEST DUP2 DUP2 SUB PUSH1 0x60 DUP4 ADD MSTORE PUSH2 0x435A DUP2 DUP7 PUSH2 0x3D7A JUMP JUMPDEST SWAP1 POP PUSH2 0x4369 PUSH1 0x80 DUP4 ADD DUP6 PUSH2 0x3BE9 JUMP JUMPDEST PUSH2 0x4376 PUSH1 0xA0 DUP4 ADD DUP5 PUSH2 0x3CE2 JUMP JUMPDEST SWAP8 SWAP7 POP POP POP POP POP POP POP JUMP JUMPDEST PUSH0 DUP1 PUSH1 0x40 DUP4 DUP6 SUB SLT ISZERO PUSH2 0x4397 JUMPI PUSH2 0x4396 PUSH2 0x3B56 JUMP JUMPDEST JUMPDEST PUSH0 PUSH2 0x43A4 DUP6 DUP3 DUP7 ADD PUSH2 0x3E64 JUMP JUMPDEST SWAP3 POP POP PUSH1 0x20 PUSH2 0x43B5 DUP6 DUP3 DUP7 ADD PUSH2 0x3E64 JUMP JUMPDEST SWAP2 POP POP SWAP3 POP SWAP3 SWAP1 POP JUMP JUMPDEST PUSH0 DUP1 REVERT JUMPDEST PUSH0 DUP1 REVERT JUMPDEST PUSH0 DUP2 MLOAD SWAP1 POP PUSH2 0x43D5 DUP2 PUSH2 0x3C1A JUMP JUMPDEST SWAP3 SWAP2 POP POP JUMP JUMPDEST PUSH0 DUP2 MLOAD SWAP1 POP PUSH2 0x43E9 DUP2 PUSH2 0x3E4E JUMP JUMPDEST SWAP3 SWAP2 POP POP JUMP JUMPDEST PUSH0 PUSH8 0xFFFFFFFFFFFFFFFF DUP3 GT ISZERO PUSH2 0x4409 JUMPI PUSH2 0x4408 PUSH2 0x4177 JUMP JUMPDEST JUMPDEST PUSH2 0x4412 DUP3 PUSH2 0x3D6A JUMP JUMPDEST SWAP1 POP PUSH1 0x20 DUP2 ADD SWAP1 POP SWAP2 SWAP1 POP JUMP JUMPDEST PUSH0 PUSH2 0x4431 PUSH2 0x442C DUP5 PUSH2 0x43EF JUMP JUMPDEST PUSH2 0x41D5 JUMP JUMPDEST SWAP1 POP DUP3 DUP2 MSTORE PUSH1 0x20 DUP2 ADD DUP5 DUP5 DUP5 ADD GT ISZERO PUSH2 0x444D JUMPI PUSH2 0x444C PUSH2 0x4173 JUMP JUMPDEST JUMPDEST PUSH2 0x4458 DUP5 DUP3 DUP6 PUSH2 0x3D5C JUMP JUMPDEST POP SWAP4 SWAP3 POP POP POP JUMP JUMPDEST PUSH0 DUP3 PUSH1 0x1F DUP4 ADD SLT PUSH2 0x4474 JUMPI PUSH2 0x4473 PUSH2 0x3F06 JUMP JUMPDEST JUMPDEST DUP2 MLOAD PUSH2 0x4484 DUP5 DUP3 PUSH1 0x20 DUP7 ADD PUSH2 0x441F JUMP JUMPDEST SWAP2 POP POP SWAP3 SWAP2 POP POP JUMP JUMPDEST PUSH0 DUP2 SWAP1 POP SWAP2 SWAP1 POP JUMP JUMPDEST PUSH2 0x449F DUP2 PUSH2 0x448D JUMP JUMPDEST DUP2 EQ PUSH2 0x44A9 JUMPI PUSH0 DUP1 REVERT JUMPDEST POP JUMP JUMPDEST PUSH0 DUP2 MLOAD SWAP1 POP PUSH2 0x44BA DUP2 PUSH2 0x4496 JUMP JUMPDEST SWAP3 SWAP2 POP POP JUMP JUMPDEST PUSH0 PUSH1 0xA0 DUP3 DUP5 SUB SLT ISZERO PUSH2 0x44D5 JUMPI PUSH2 0x44D4 PUSH2 0x43BF JUMP JUMPDEST JUMPDEST PUSH2 0x44DF PUSH1 0xA0 PUSH2 0x41D5 JUMP JUMPDEST SWAP1 POP PUSH0 DUP3 ADD MLOAD PUSH8 0xFFFFFFFFFFFFFFFF DUP2 GT ISZERO PUSH2 0x44FE JUMPI PUSH2 0x44FD PUSH2 0x43C3 JUMP JUMPDEST JUMPDEST PUSH2 0x450A DUP5 DUP3 DUP6 ADD PUSH2 0x4460 JUMP JUMPDEST PUSH0 DUP4 ADD MSTORE POP PUSH1 0x20 DUP3 ADD MLOAD PUSH8 0xFFFFFFFFFFFFFFFF DUP2 GT ISZERO PUSH2 0x452D JUMPI PUSH2 0x452C PUSH2 0x43C3 JUMP JUMPDEST JUMPDEST PUSH2 0x4539 DUP5 DUP3 DUP6 ADD PUSH2 0x4460 JUMP JUMPDEST PUSH1 0x20 DUP4 ADD MSTORE POP PUSH1 0x40 DUP3 ADD MLOAD PUSH8 0xFFFFFFFFFFFFFFFF DUP2 GT ISZERO PUSH2 0x455D JUMPI PUSH2 0x455C PUSH2 0x43C3 JUMP JUMPDEST JUMPDEST PUSH2 0x4569 DUP5 DUP3 DUP6 ADD PUSH2 0x4460 JUMP JUMPDEST PUSH1 0x40 DUP4 ADD MSTORE POP PUSH1 0x60 PUSH2 0x457D DUP5 DUP3 DUP6 ADD PUSH2 0x44AC JUMP JUMPDEST PUSH1 0x60 DUP4 ADD MSTORE POP PUSH1 0x80 PUSH2 0x4591 DUP5 DUP3 DUP6 ADD PUSH2 0x44AC JUMP JUMPDEST PUSH1 0x80 DUP4 ADD MSTORE POP SWAP3 SWAP2 POP POP JUMP JUMPDEST PUSH0 DUP2 MLOAD SWAP1 POP PUSH2 0x45AB DUP2 PUSH2 0x407A JUMP JUMPDEST SWAP3 SWAP2 POP POP JUMP JUMPDEST PUSH0 PUSH2 0x120 DUP3 DUP5 SUB SLT ISZERO PUSH2 0x45C7 JUMPI PUSH2 0x45C6 PUSH2 0x43BF JUMP JUMPDEST JUMPDEST PUSH2 0x45D2 PUSH2 0x120 PUSH2 0x41D5 JUMP JUMPDEST SWAP1 POP PUSH0 PUSH2 0x45E1 DUP5 DUP3 DUP6 ADD PUSH2 0x43C7 JUMP JUMPDEST PUSH0 DUP4 ADD MSTORE POP PUSH1 0x20 PUSH2 0x45F4 DUP5 DUP3 DUP6 ADD PUSH2 0x43DB JUMP JUMPDEST PUSH1 0x20 DUP4 ADD MSTORE POP PUSH1 0x40 DUP3 ADD MLOAD PUSH8 0xFFFFFFFFFFFFFFFF DUP2 GT ISZERO PUSH2 0x4618 JUMPI PUSH2 0x4617 PUSH2 0x43C3 JUMP JUMPDEST JUMPDEST PUSH2 0x4624 DUP5 DUP3 DUP6 ADD PUSH2 0x44C0 JUMP JUMPDEST PUSH1 0x40 DUP4 ADD MSTORE POP PUSH1 0x60 PUSH2 0x4638 DUP5 DUP3 DUP6 ADD PUSH2 0x43C7 JUMP JUMPDEST PUSH1 0x60 DUP4 ADD MSTORE POP PUSH1 0x80 PUSH2 0x464C DUP5 DUP3 DUP6 ADD PUSH2 0x43C7 JUMP JUMPDEST PUSH1 0x80 DUP4 ADD MSTORE POP PUSH1 0xA0 PUSH2 0x4660 DUP5 DUP3 DUP6 ADD PUSH2 0x459D JUMP JUMPDEST PUSH1 0xA0 DUP4 ADD MSTORE POP PUSH1 0xC0 PUSH2 0x4674 DUP5 DUP3 DUP6 ADD PUSH2 0x43C7 JUMP JUMPDEST PUSH1 0xC0 DUP4 ADD MSTORE POP PUSH1 0xE0 PUSH2 0x4688 DUP5 DUP3 DUP6 ADD PUSH2 0x43C7 JUMP JUMPDEST PUSH1 0xE0 DUP4 ADD MSTORE POP PUSH2 0x100 PUSH2 0x469D DUP5 DUP3 DUP6 ADD PUSH2 0x43C7 JUMP JUMPDEST PUSH2 0x100 DUP4 ADD MSTORE POP SWAP3 SWAP2 POP POP JUMP JUMPDEST PUSH0 PUSH1 0x20 DUP3 DUP5 SUB SLT ISZERO PUSH2 0x46BF JUMPI PUSH2 0x46BE PUSH2 0x3B56 JUMP JUMPDEST JUMPDEST PUSH0 DUP3 ADD MLOAD PUSH8 0xFFFFFFFFFFFFFFFF DUP2 GT ISZERO PUSH2 0x46DC JUMPI PUSH2 0x46DB PUSH2 0x3B5A JUMP JUMPDEST JUMPDEST PUSH2 0x46E8 DUP5 DUP3 DUP6 ADD PUSH2 0x45B1 JUMP JUMPDEST SWAP2 POP POP SWAP3 SWAP2 POP POP JUMP JUMPDEST PUSH0 DUP2 SWAP1 POP SWAP2 SWAP1 POP JUMP JUMPDEST PUSH2 0x4703 DUP2 PUSH2 0x46F1 JUMP JUMPDEST DUP2 EQ PUSH2 0x470D JUMPI PUSH0 DUP1 REVERT JUMPDEST POP JUMP JUMPDEST PUSH0 DUP2 MLOAD SWAP1 POP PUSH2 0x471E DUP2 PUSH2 0x46FA JUMP JUMPDEST SWAP3 SWAP2 POP POP JUMP JUMPDEST PUSH0 PUSH1 0x20 DUP3 DUP5 SUB SLT ISZERO PUSH2 0x4739 JUMPI PUSH2 0x4738 PUSH2 0x3B56 JUMP JUMPDEST JUMPDEST PUSH0 PUSH2 0x4746 DUP5 DUP3 DUP6 ADD PUSH2 0x4710 JUMP JUMPDEST SWAP2 POP POP SWAP3 SWAP2 POP POP JUMP JUMPDEST PUSH2 0x4758 DUP2 PUSH2 0x46F1 JUMP JUMPDEST DUP3 MSTORE POP POP JUMP JUMPDEST PUSH0 PUSH1 0x40 DUP3 ADD SWAP1 POP PUSH2 0x4771 PUSH0 DUP4 ADD DUP6 PUSH2 0x474F JUMP JUMPDEST PUSH2 0x477E PUSH1 0x20 DUP4 ADD DUP5 PUSH2 0x3DE3 JUMP JUMPDEST SWAP4 SWAP3 POP POP POP JUMP JUMPDEST PUSH0 PUSH1 0x20 DUP3 DUP5 SUB SLT ISZERO PUSH2 0x479A JUMPI PUSH2 0x4799 PUSH2 0x3B56 JUMP JUMPDEST JUMPDEST PUSH0 PUSH2 0x47A7 DUP5 DUP3 DUP6 ADD PUSH2 0x459D JUMP JUMPDEST SWAP2 POP POP SWAP3 SWAP2 POP POP JUMP JUMPDEST PUSH32 0x4E487B7100000000000000000000000000000000000000000000000000000000 PUSH0 MSTORE PUSH1 0x22 PUSH1 0x4 MSTORE PUSH1 0x24 PUSH0 REVERT JUMPDEST PUSH0 PUSH1 0x2 DUP3 DIV SWAP1 POP PUSH1 0x1 DUP3 AND DUP1 PUSH2 0x47F4 JUMPI PUSH1 0x7F DUP3 AND SWAP2 POP JUMPDEST PUSH1 0x20 DUP3 LT DUP2 SUB PUSH2 0x4807 JUMPI PUSH2 0x4806 PUSH2 0x47B0 JUMP JUMPDEST JUMPDEST POP SWAP2 SWAP1 POP JUMP JUMPDEST PUSH32 0x4D7573742068617665205041494E5445525F524F4C4500000000000000000000 PUSH0 DUP3 ADD MSTORE POP JUMP JUMPDEST PUSH0 PUSH2 0x4841 PUSH1 0x16 DUP4 PUSH2 0x3D4C JUMP JUMPDEST SWAP2 POP PUSH2 0x484C DUP3 PUSH2 0x480D JUMP JUMPDEST PUSH1 0x20 DUP3 ADD SWAP1 POP SWAP2 SWAP1 POP JUMP JUMPDEST PUSH0 PUSH1 0x20 DUP3 ADD SWAP1 POP DUP2 DUP2 SUB PUSH0 DUP4 ADD MSTORE PUSH2 0x486E DUP2 PUSH2 0x4835 JUMP JUMPDEST SWAP1 POP SWAP2 SWAP1 POP JUMP JUMPDEST PUSH32 0x4E6F74207468652061737369676E6564207061696E7465720000000000000000 PUSH0 DUP3 ADD MSTORE POP JUMP JUMPDEST PUSH0 PUSH2 0x48A9 PUSH1 0x18 DUP4 PUSH2 0x3D4C JUMP JUMPDEST SWAP2 POP PUSH2 0x48B4 DUP3 PUSH2 0x4875 JUMP JUMPDEST PUSH1 0x20 DUP3 ADD SWAP1 POP SWAP2 SWAP1 POP JUMP JUMPDEST PUSH0 PUSH1 0x20 DUP3 ADD SWAP1 POP DUP2 DUP2 SUB PUSH0 DUP4 ADD MSTORE PUSH2 0x48D6 DUP2 PUSH2 0x489D JUMP JUMPDEST SWAP1 POP SWAP2 SWAP1 POP JUMP JUMPDEST PUSH32 0x4E6F7420696E2070726F63657373000000000000000000000000000000000000 PUSH0 DUP3 ADD MSTORE POP JUMP JUMPDEST PUSH0 PUSH2 0x4911 PUSH1 0xE DUP4 PUSH2 0x3D4C JUMP JUMPDEST SWAP2 POP PUSH2 0x491C DUP3 PUSH2 0x48DD JUMP JUMPDEST PUSH1 0x20 DUP3 ADD SWAP1 POP SWAP2 SWAP1 POP JUMP JUMPDEST PUSH0 PUSH1 0x20 DUP3 ADD SWAP1 POP DUP2 DUP2 SUB PUSH0 DUP4 ADD MSTORE PUSH2 0x493E DUP2 PUSH2 0x4905 JUMP JUMPDEST SWAP1 POP SWAP2 SWAP1 POP JUMP JUMPDEST PUSH0 PUSH1 0x80 DUP3 DUP5 SUB SLT ISZERO PUSH2 0x495A JUMPI PUSH2 0x4959 PUSH2 0x43BF JUMP JUMPDEST JUMPDEST PUSH2 0x4964 PUSH1 0x80 PUSH2 0x41D5 JUMP JUMPDEST SWAP1 POP PUSH0 DUP3 ADD MLOAD PUSH8 0xFFFFFFFFFFFFFFFF DUP2 GT ISZERO PUSH2 0x4983 JUMPI PUSH2 0x4982 PUSH2 0x43C3 JUMP JUMPDEST JUMPDEST PUSH2 0x498F DUP5 DUP3 DUP6 ADD PUSH2 0x4460 JUMP JUMPDEST PUSH0 DUP4 ADD MSTORE POP PUSH1 0x20 DUP3 ADD MLOAD PUSH8 0xFFFFFFFFFFFFFFFF DUP2 GT ISZERO PUSH2 0x49B2 JUMPI PUSH2 0x49B1 PUSH2 0x43C3 JUMP JUMPDEST JUMPDEST PUSH2 0x49BE DUP5 DUP3 DUP6 ADD PUSH2 0x4460 JUMP JUMPDEST PUSH1 0x20 DUP4 ADD MSTORE POP PUSH1 0x40 PUSH2 0x49D2 DUP5 DUP3 DUP6 ADD PUSH2 0x44AC JUMP JUMPDEST PUSH1 0x40 DUP4 ADD MSTORE POP PUSH1 0x60 PUSH2 0x49E6 DUP5 DUP3 DUP6 ADD PUSH2 0x44AC JUMP JUMPDEST PUSH1 0x60 DUP4 ADD MSTORE POP SWAP3 SWAP2 POP POP JUMP JUMPDEST PUSH0 PUSH2 0x120 DUP3 DUP5 SUB SLT ISZERO PUSH2 0x4A08 JUMPI PUSH2 0x4A07 PUSH2 0x43BF JUMP JUMPDEST JUMPDEST PUSH2 0x4A13 PUSH2 0x120 PUSH2 0x41D5 JUMP JUMPDEST SWAP1 POP PUSH0 PUSH2 0x4A22 DUP5 DUP3 DUP6 ADD PUSH2 0x43C7 JUMP JUMPDEST PUSH0 DUP4 ADD MSTORE POP PUSH1 0x20 DUP3 ADD MLOAD PUSH8 0xFFFFFFFFFFFFFFFF DUP2 GT ISZERO PUSH2 0x4A45 JUMPI PUSH2 0x4A44 PUSH2 0x43C3 JUMP JUMPDEST JUMPDEST PUSH2 0x4A51 DUP5 DUP3 DUP6 ADD PUSH2 0x4460 JUMP JUMPDEST PUSH1 0x20 DUP4 ADD MSTORE POP PUSH1 0x40 DUP3 ADD MLOAD PUSH8 0xFFFFFFFFFFFFFFFF DUP2 GT ISZERO PUSH2 0x4A75 JUMPI PUSH2 0x4A74 PUSH2 0x43C3 JUMP JUMPDEST JUMPDEST PUSH2 0x4A81 DUP5 DUP3 DUP6 ADD PUSH2 0x4460 JUMP JUMPDEST PUSH1 0x40 DUP4 ADD MSTORE POP PUSH1 0x60 DUP3 ADD MLOAD PUSH8 0xFFFFFFFFFFFFFFFF DUP2 GT ISZERO PUSH2 0x4AA5 JUMPI PUSH2 0x4AA4 PUSH2 0x43C3 JUMP JUMPDEST JUMPDEST PUSH2 0x4AB1 DUP5 DUP3 DUP6 ADD PUSH2 0x4945 JUMP JUMPDEST PUSH1 0x60 DUP4 ADD MSTORE POP PUSH1 0x80 PUSH2 0x4AC5 DUP5 DUP3 DUP6 ADD PUSH2 0x43DB JUMP JUMPDEST PUSH1 0x80 DUP4 ADD MSTORE POP PUSH1 0xA0 PUSH2 0x4AD9 DUP5 DUP3 DUP6 ADD PUSH2 0x43C7 JUMP JUMPDEST PUSH1 0xA0 DUP4 ADD MSTORE POP PUSH1 0xC0 PUSH2 0x4AED DUP5 DUP3 DUP6 ADD PUSH2 0x459D JUMP JUMPDEST PUSH1 0xC0 DUP4 ADD MSTORE POP PUSH1 0xE0 PUSH2 0x4B01 DUP5 DUP3 DUP6 ADD PUSH2 0x43C7 JUMP JUMPDEST PUSH1 0xE0 DUP4 ADD MSTORE POP PUSH2 0x100 PUSH2 0x4B16 DUP5 DUP3 DUP6 ADD PUSH2 0x43C7 JUMP JUMPDEST PUSH2 0x100 DUP4 ADD MSTORE POP SWAP3 SWAP2 POP POP JUMP JUMPDEST PUSH0 PUSH1 0x20 DUP3 DUP5 SUB SLT ISZERO PUSH2 0x4B38 JUMPI PUSH2 0x4B37 PUSH2 0x3B56 JUMP JUMPDEST JUMPDEST PUSH0 DUP3 ADD MLOAD PUSH8 0xFFFFFFFFFFFFFFFF DUP2 GT ISZERO PUSH2 0x4B55 JUMPI PUSH2 0x4B54 PUSH2 0x3B5A JUMP JUMPDEST JUMPDEST PUSH2 0x4B61 DUP5 DUP3 DUP6 ADD PUSH2 0x49F2 JUMP JUMPDEST SWAP2 POP POP SWAP3 SWAP2 POP POP JUMP JUMPDEST PUSH0 PUSH1 0x60 DUP3 ADD SWAP1 POP PUSH2 0x4B7D PUSH0 DUP4 ADD DUP7 PUSH2 0x3DE3 JUMP JUMPDEST PUSH2 0x4B8A PUSH1 0x20 DUP4 ADD DUP6 PUSH2 0x3CE2 JUMP JUMPDEST PUSH2 0x4B97 PUSH1 0x40 DUP4 ADD DUP5 PUSH2 0x3DE3 JUMP JUMPDEST SWAP5 SWAP4 POP POP POP POP JUMP JUMPDEST PUSH32 0x4D75737420686176652041444D494E5F524F4C45000000000000000000000000 PUSH0 DUP3 ADD MSTORE POP JUMP JUMPDEST PUSH0 PUSH2 0x4BD3 PUSH1 0x14 DUP4 PUSH2 0x3D4C JUMP JUMPDEST SWAP2 POP PUSH2 0x4BDE DUP3 PUSH2 0x4B9F JUMP JUMPDEST PUSH1 0x20 DUP3 ADD SWAP1 POP SWAP2 SWAP1 POP JUMP JUMPDEST PUSH0 PUSH1 0x20 DUP3 ADD SWAP1 POP DUP2 DUP2 SUB PUSH0 DUP4 ADD MSTORE PUSH2 0x4C00 DUP2 PUSH2 0x4BC7 JUMP JUMPDEST SWAP1 POP SWAP2 SWAP1 POP JUMP JUMPDEST PUSH32 0x4465736372697074696F6E2063616E6E6F7420626520656D7074790000000000 PUSH0 DUP3 ADD MSTORE POP JUMP JUMPDEST PUSH0 PUSH2 0x4C3B PUSH1 0x1B DUP4 PUSH2 0x3D4C JUMP JUMPDEST SWAP2 POP PUSH2 0x4C46 DUP3 PUSH2 0x4C07 JUMP JUMPDEST PUSH1 0x20 DUP3 ADD SWAP1 POP SWAP2 SWAP1 POP JUMP JUMPDEST PUSH0 PUSH1 0x20 DUP3 ADD SWAP1 POP DUP2 DUP2 SUB PUSH0 DUP4 ADD MSTORE PUSH2 0x4C68 DUP2 PUSH2 0x4C2F JUMP JUMPDEST SWAP1 POP SWAP2 SWAP1 POP JUMP JUMPDEST PUSH32 0x57616C6C20616C7265616479207061696E746564000000000000000000000000 PUSH0 DUP3 ADD MSTORE POP JUMP JUMPDEST PUSH0 PUSH2 0x4CA3 PUSH1 0x14 DUP4 PUSH2 0x3D4C JUMP JUMPDEST SWAP2 POP PUSH2 0x4CAE DUP3 PUSH2 0x4C6F JUMP JUMPDEST PUSH1 0x20 DUP3 ADD SWAP1 POP SWAP2 SWAP1 POP JUMP JUMPDEST PUSH0 PUSH1 0x20 DUP3 ADD SWAP1 POP DUP2 DUP2 SUB PUSH0 DUP4 ADD MSTORE PUSH2 0x4CD0 DUP2 PUSH2 0x4C97 JUMP JUMPDEST SWAP1 POP SWAP2 SWAP1 POP JUMP JUMPDEST PUSH32 0x5265717565737420616C72656164792065786973747320666F72207468697320 PUSH0 DUP3 ADD MSTORE PUSH32 0x77616C6C00000000000000000000000000000000000000000000000000000000 PUSH1 0x20 DUP3 ADD MSTORE POP JUMP JUMPDEST PUSH0 PUSH2 0x4D31 PUSH1 0x24 DUP4 PUSH2 0x3D4C JUMP JUMPDEST SWAP2 POP PUSH2 0x4D3C DUP3 PUSH2 0x4CD7 JUMP JUMPDEST PUSH1 0x40 DUP3 ADD SWAP1 POP SWAP2 SWAP1 POP JUMP JUMPDEST PUSH0 PUSH1 0x20 DUP3 ADD SWAP1 POP DUP2 DUP2 SUB PUSH0 DUP4 ADD MSTORE PUSH2 0x4D5E DUP2 PUSH2 0x4D25 JUMP JUMPDEST SWAP1 POP SWAP2 SWAP1 POP JUMP JUMPDEST PUSH32 0x57616C6C20646F6573206E6F7420657869737400000000000000000000000000 PUSH0 DUP3 ADD MSTORE POP JUMP JUMPDEST PUSH0 PUSH2 0x4D99 PUSH1 0x13 DUP4 PUSH2 0x3D4C JUMP JUMPDEST SWAP2 POP PUSH2 0x4DA4 DUP3 PUSH2 0x4D65 JUMP JUMPDEST PUSH1 0x20 DUP3 ADD SWAP1 POP SWAP2 SWAP1 POP JUMP JUMPDEST PUSH0 PUSH1 0x20 DUP3 ADD SWAP1 POP DUP2 DUP2 SUB PUSH0 DUP4 ADD MSTORE PUSH2 0x4DC6 DUP2 PUSH2 0x4D8D JUMP JUMPDEST SWAP1 POP SWAP2 SWAP1 POP JUMP JUMPDEST PUSH32 0x57616C6C206E6F7420696E2067616C6C65727900000000000000000000000000 PUSH0 DUP3 ADD MSTORE POP JUMP JUMPDEST PUSH0 PUSH2 0x4E01 PUSH1 0x13 DUP4 PUSH2 0x3D4C JUMP JUMPDEST SWAP2 POP PUSH2 0x4E0C DUP3 PUSH2 0x4DCD JUMP JUMPDEST PUSH1 0x20 DUP3 ADD SWAP1 POP SWAP2 SWAP1 POP JUMP JUMPDEST PUSH0 PUSH1 0x20 DUP3 ADD SWAP1 POP DUP2 DUP2 SUB PUSH0 DUP4 ADD MSTORE PUSH2 0x4E2E DUP2 PUSH2 0x4DF5 JUMP JUMPDEST SWAP1 POP SWAP2 SWAP1 POP JUMP JUMPDEST PUSH0 DUP2 SWAP1 POP DUP2 PUSH0 MSTORE PUSH1 0x20 PUSH0 KECCAK256 SWAP1 POP SWAP2 SWAP1 POP JUMP JUMPDEST PUSH0 PUSH1 0x20 PUSH1 0x1F DUP4 ADD DIV SWAP1 POP SWAP2 SWAP1 POP JUMP JUMPDEST PUSH0 DUP3 DUP3 SHL SWAP1 POP SWAP3 SWAP2 POP POP JUMP JUMPDEST PUSH0 PUSH1 0x8 DUP4 MUL PUSH2 0x4E91 PUSH32 0xFFFFFFFFFFFFFFFFFFFFFFFFFFFFFFFFFFFFFFFFFFFFFFFFFFFFFFFFFFFFFFFF DUP3 PUSH2 0x4E56 JUMP JUMPDEST PUSH2 0x4E9B DUP7 DUP4 PUSH2 0x4E56 JUMP JUMPDEST SWAP6 POP DUP1 NOT DUP5 AND SWAP4 POP DUP1 DUP7 AND DUP5 OR SWAP3 POP POP POP SWAP4 SWAP3 POP POP POP JUMP JUMPDEST PUSH0 PUSH2 0x4ECD PUSH2 0x4EC8 PUSH2 0x4EC3 DUP5 PUSH2 0x3C11 JUMP JUMPDEST PUSH2 0x3AD9 JUMP JUMPDEST PUSH2 0x3C11 JUMP JUMPDEST SWAP1 POP SWAP2 SWAP1 POP JUMP JUMPDEST PUSH0 DUP2 SWAP1 POP SWAP2 SWAP1 POP JUMP JUMPDEST PUSH2 0x4EE6 DUP4 PUSH2 0x4EB3 JUMP JUMPDEST PUSH2 0x4EFA PUSH2 0x4EF2 DUP3 PUSH2 0x4ED4 JUMP JUMPDEST DUP5 DUP5 SLOAD PUSH2 0x4E62 JUMP JUMPDEST DUP3 SSTORE POP POP POP POP JUMP JUMPDEST PUSH0 SWAP1 JUMP JUMPDEST PUSH2 0x4F0E PUSH2 0x4F02 JUMP JUMPDEST PUSH2 0x4F19 DUP2 DUP5 DUP5 PUSH2 0x4EDD JUMP JUMPDEST POP POP POP JUMP JUMPDEST JUMPDEST DUP2 DUP2 LT ISZERO PUSH2 0x4F3C JUMPI PUSH2 0x4F31 PUSH0 DUP3 PUSH2 0x4F06 JUMP JUMPDEST PUSH1 0x1 DUP2 ADD SWAP1 POP PUSH2 0x4F1F JUMP JUMPDEST POP POP JUMP JUMPDEST PUSH1 0x1F DUP3 GT ISZERO PUSH2 0x4F81 JUMPI PUSH2 0x4F52 DUP2 PUSH2 0x4E35 JUMP JUMPDEST PUSH2 0x4F5B DUP5 PUSH2 0x4E47 JUMP JUMPDEST DUP2 ADD PUSH1 0x20 DUP6 LT ISZERO PUSH2 0x4F6A JUMPI DUP2 SWAP1 POP JUMPDEST PUSH2 0x4F7E PUSH2 0x4F76 DUP6 PUSH2 0x4E47 JUMP JUMPDEST DUP4 ADD DUP3 PUSH2 0x4F1E JUMP JUMPDEST POP POP JUMPDEST POP POP POP JUMP JUMPDEST PUSH0 DUP3 DUP3 SHR SWAP1 POP SWAP3 SWAP2 POP POP JUMP JUMPDEST PUSH0 PUSH2 0x4FA1 PUSH0 NOT DUP5 PUSH1 0x8 MUL PUSH2 0x4F86 JUMP JUMPDEST NOT DUP1 DUP4 AND SWAP2 POP POP SWAP3 SWAP2 POP POP JUMP JUMPDEST PUSH0 PUSH2 0x4FB9 DUP4 DUP4 PUSH2 0x4F92 JUMP JUMPDEST SWAP2 POP DUP3 PUSH1 0x2 MUL DUP3 OR SWAP1 POP SWAP3 SWAP2 POP POP JUMP JUMPDEST PUSH2 0x4FD2 DUP3 PUSH2 0x3D42 JUMP JUMPDEST PUSH8 0xFFFFFFFFFFFFFFFF DUP2 GT ISZERO PUSH2 0x4FEB JUMPI PUSH2 0x4FEA PUSH2 0x4177 JUMP JUMPDEST JUMPDEST PUSH2 0x4FF5 DUP3 SLOAD PUSH2 0x47DD JUMP JUMPDEST PUSH2 0x5000 DUP3 DUP3 DUP6 PUSH2 0x4F40 JUMP JUMPDEST PUSH0 PUSH1 0x20 SWAP1 POP PUSH1 0x1F DUP4 GT PUSH1 0x1 DUP2 EQ PUSH2 0x5031 JUMPI PUSH0 DUP5 ISZERO PUSH2 0x501F JUMPI DUP3 DUP8 ADD MLOAD SWAP1 POP JUMPDEST PUSH2 0x5029 DUP6 DUP3 PUSH2 0x4FAE JUMP JUMPDEST DUP7 SSTORE POP PUSH2 0x5090 JUMP JUMPDEST PUSH1 0x1F NOT DUP5 AND PUSH2 0x503F DUP7 PUSH2 0x4E35 JUMP JUMPDEST PUSH0 JUMPDEST DUP3 DUP2 LT ISZERO PUSH2 0x5066 JUMPI DUP5 DUP10 ADD MLOAD DUP3 SSTORE PUSH1 0x1 DUP3 ADD SWAP2 POP PUSH1 0x20 DUP6 ADD SWAP5 POP PUSH1 0x20 DUP2 ADD SWAP1 POP PUSH2 0x5041 JUMP JUMPDEST DUP7 DUP4 LT ISZERO PUSH2 0x5083 JUMPI DUP5 DUP10 ADD MLOAD PUSH2 0x507F PUSH1 0x1F DUP10 AND DUP3 PUSH2 0x4F92 JUMP JUMPDEST DUP4 SSTORE POP JUMPDEST PUSH1 0x1 PUSH1 0x2 DUP9 MUL ADD DUP9 SSTORE POP POP POP JUMPDEST POP POP POP POP POP POP JUMP JUMPDEST PUSH32 0x47616C6C657279206E6F74206163746976650000000000000000000000000000 PUSH0 DUP3 ADD MSTORE POP JUMP JUMPDEST PUSH0 PUSH2 0x50CC PUSH1 0x12 DUP4 PUSH2 0x3D4C JUMP JUMPDEST SWAP2 POP PUSH2 0x50D7 DUP3 PUSH2 0x5098 JUMP JUMPDEST PUSH1 0x20 DUP3 ADD SWAP1 POP SWAP2 SWAP1 POP JUMP JUMPDEST PUSH0 PUSH1 0x20 DUP3 ADD SWAP1 POP DUP2 DUP2 SUB PUSH0 DUP4 ADD MSTORE PUSH2 0x50F9 DUP2 PUSH2 0x50C0 JUMP JUMPDEST SWAP1 POP SWAP2 SWAP1 POP JUMP JUMPDEST PUSH32 0x4E6F742067616C6C657279206F776E6572000000000000000000000000000000 PUSH0 DUP3 ADD MSTORE POP JUMP JUMPDEST PUSH0 PUSH2 0x5134 PUSH1 0x11 DUP4 PUSH2 0x3D4C JUMP JUMPDEST SWAP2 POP PUSH2 0x513F DUP3 PUSH2 0x5100 JUMP JUMPDEST PUSH1 0x20 DUP3 ADD SWAP1 POP SWAP2 SWAP1 POP JUMP JUMPDEST PUSH0 PUSH1 0x20 DUP3 ADD SWAP1 POP DUP2 DUP2 SUB PUSH0 DUP4 ADD MSTORE PUSH2 0x5161 DUP2 PUSH2 0x5128 JUMP JUMPDEST SWAP1 POP SWAP2 SWAP1 POP JUMP JUMPDEST PUSH32 0x496E76616C696420726571756573742073746174757300000000000000000000 PUSH0 DUP3 ADD MSTORE POP JUMP JUMPDEST PUSH0 PUSH2 0x519C PUSH1 0x16 DUP4 PUSH2 0x3D4C JUMP JUMPDEST SWAP2 POP PUSH2 0x51A7 DUP3 PUSH2 0x5168 JUMP JUMPDEST PUSH1 0x20 DUP3 ADD SWAP1 POP SWAP2 SWAP1 POP JUMP JUMPDEST PUSH0 PUSH1 0x20 DUP3 ADD SWAP1 POP DUP2 DUP2 SUB PUSH0 DUP4 ADD MSTORE PUSH2 0x51C9 DUP2 PUSH2 0x5190 JUMP JUMPDEST SWAP1 POP SWAP2 SWAP1 POP JUMP JUMPDEST PUSH0 DUP2 SWAP1 POP SWAP3 SWAP2 POP POP JUMP JUMPDEST PUSH0 PUSH2 0x51E4 DUP3 PUSH2 0x3D42 JUMP JUMPDEST PUSH2 0x51EE DUP2 DUP6 PUSH2 0x51D0 JUMP JUMPDEST SWAP4 POP PUSH2 0x51FE DUP2 DUP6 PUSH1 0x20 DUP7 ADD PUSH2 0x3D5C JUMP JUMPDEST DUP1 DUP5 ADD SWAP2 POP POP SWAP3 SWAP2 POP POP JUMP JUMPDEST PUSH0 PUSH2 0x5215 DUP3 DUP6 PUSH2 0x51DA JUMP JUMPDEST SWAP2 POP PUSH2 0x5221 DUP3 DUP5 PUSH2 0x51DA JUMP JUMPDEST SWAP2 POP DUP2 SWAP1 POP SWAP4 SWAP3 POP POP POP JUMP JUMPDEST PUSH32 0x5061696E74696E67206E6F7420636F6D706C6574656400000000000000000000 PUSH0 DUP3 ADD MSTORE POP JUMP JUMPDEST PUSH0 PUSH2 0x5261 PUSH1 0x16 DUP4 PUSH2 0x3D4C JUMP JUMPDEST SWAP2 POP PUSH2 0x526C DUP3 PUSH2 0x522D JUMP JUMPDEST PUSH1 0x20 DUP3 ADD SWAP1 POP SWAP2 SWAP1 POP JUMP JUMPDEST PUSH0 PUSH1 0x20 DUP3 ADD SWAP1 POP DUP2 DUP2 SUB PUSH0 DUP4 ADD MSTORE PUSH2 0x528E DUP2 PUSH2 0x5255 JUMP JUMPDEST SWAP1 POP SWAP2 SWAP1 POP JUMP JUMPDEST PUSH32 0x5061757361626C653A2070617573656400000000000000000000000000000000 PUSH0 DUP3 ADD MSTORE POP JUMP JUMPDEST PUSH0 PUSH2 0x52C9 PUSH1 0x10 DUP4 PUSH2 0x3D4C JUMP JUMPDEST SWAP2 POP PUSH2 0x52D4 DUP3 PUSH2 0x5295 JUMP JUMPDEST PUSH1 0x20 DUP3 ADD SWAP1 POP SWAP2 SWAP1 POP JUMP JUMPDEST PUSH0 PUSH1 0x20 DUP3 ADD SWAP1 POP DUP2 DUP2 SUB PUSH0 DUP4 ADD MSTORE PUSH2 0x52F6 DUP2 PUSH2 0x52BD JUMP JUMPDEST SWAP1 POP SWAP2 SWAP1 POP JUMP JUMPDEST PUSH0 DUP2 MLOAD SWAP1 POP SWAP2 SWAP1 POP JUMP JUMPDEST PUSH0 DUP3 DUP3 MSTORE PUSH1 0x20 DUP3 ADD SWAP1 POP SWAP3 SWAP2 POP POP JUMP JUMPDEST PUSH0 PUSH2 0x5321 DUP3 PUSH2 0x52FD JUMP JUMPDEST PUSH2 0x532B DUP2 DUP6 PUSH2 0x5307 JUMP JUMPDEST SWAP4 POP PUSH2 0x533B DUP2 DUP6 PUSH1 0x20 DUP7 ADD PUSH2 0x3D5C JUMP JUMPDEST PUSH2 0x5344 DUP2 PUSH2 0x3D6A JUMP JUMPDEST DUP5 ADD SWAP2 POP POP SWAP3 SWAP2 POP POP JUMP JUMPDEST PUSH0 PUSH1 0x80 DUP3 ADD SWAP1 POP PUSH2 0x5362 PUSH0 DUP4 ADD DUP8 PUSH2 0x3DE3 JUMP JUMPDEST PUSH2 0x536F PUSH1 0x20 DUP4 ADD DUP7 PUSH2 0x3DE3 JUMP JUMPDEST PUSH2 0x537C PUSH1 0x40 DUP4 ADD DUP6 PUSH2 0x3CE2 JUMP JUMPDEST DUP2 DUP2 SUB PUSH1 0x60 DUP4 ADD MSTORE PUSH2 0x538E DUP2 DUP5 PUSH2 0x5317 JUMP JUMPDEST SWAP1 POP SWAP6 SWAP5 POP POP POP POP POP JUMP JUMPDEST PUSH0 DUP2 MLOAD SWAP1 POP PUSH2 0x53A7 DUP2 PUSH2 0x3B89 JUMP JUMPDEST SWAP3 SWAP2 POP POP JUMP JUMPDEST PUSH0 PUSH1 0x20 DUP3 DUP5 SUB SLT ISZERO PUSH2 0x53C2 JUMPI PUSH2 0x53C1 PUSH2 0x3B56 JUMP JUMPDEST JUMPDEST PUSH0 PUSH2 0x53CF DUP5 DUP3 DUP6 ADD PUSH2 0x5399 JUMP JUMPDEST SWAP2 POP POP SWAP3 SWAP2 POP POP JUMP JUMPDEST PUSH32 0x4E487B7100000000000000000000000000000000000000000000000000000000 PUSH0 MSTORE PUSH1 0x12 PUSH1 0x4 MSTORE PUSH1 0x24 PUSH0 REVERT JUMPDEST PUSH32 0x53686172657320616C7265616479206D696E7465640000000000000000000000 PUSH0 DUP3 ADD MSTORE POP JUMP JUMPDEST PUSH0 PUSH2 0x5439 PUSH1 0x15 DUP4 PUSH2 0x3D4C JUMP JUMPDEST SWAP2 POP PUSH2 0x5444 DUP3 PUSH2 0x5405 JUMP JUMPDEST PUSH1 0x20 DUP3 ADD SWAP1 POP SWAP2 SWAP1 POP JUMP JUMPDEST PUSH0 PUSH1 0x20 DUP3 ADD SWAP1 POP DUP2 DUP2 SUB PUSH0 DUP4 ADD MSTORE PUSH2 0x5466 DUP2 PUSH2 0x542D JUMP JUMPDEST SWAP1 POP SWAP2 SWAP1 POP JUMP JUMPDEST PUSH0 PUSH1 0x20 DUP3 DUP5 SUB SLT ISZERO PUSH2 0x5482 JUMPI PUSH2 0x5481 PUSH2 0x3B56 JUMP JUMPDEST JUMPDEST PUSH0 PUSH2 0x548F DUP5 DUP3 DUP6 ADD PUSH2 0x43C7 JUMP JUMPDEST SWAP2 POP POP SWAP3 SWAP2 POP POP JUMP JUMPDEST PUSH32 0x4E487B7100000000000000000000000000000000000000000000000000000000 PUSH0 MSTORE PUSH1 0x11 PUSH1 0x4 MSTORE PUSH1 0x24 PUSH0 REVERT JUMPDEST PUSH0 PUSH2 0x54CF DUP3 PUSH2 0x3C11 JUMP JUMPDEST SWAP2 POP PUSH2 0x54DA DUP4 PUSH2 0x3C11 JUMP JUMPDEST SWAP3 POP DUP3 DUP3 ADD SWAP1 POP DUP1 DUP3 GT ISZERO PUSH2 0x54F2 JUMPI PUSH2 0x54F1 PUSH2 0x5498 JUMP JUMPDEST JUMPDEST SWAP3 SWAP2 POP POP JUMP JUMPDEST PUSH32 0x546F74616C2070657263656E7461676520657863656564732031303025000000 PUSH0 DUP3 ADD MSTORE POP JUMP JUMPDEST PUSH0 PUSH2 0x552C PUSH1 0x1D DUP4 PUSH2 0x3D4C JUMP JUMPDEST SWAP2 POP PUSH2 0x5537 DUP3 PUSH2 0x54F8 JUMP JUMPDEST PUSH1 0x20 DUP3 ADD SWAP1 POP SWAP2 SWAP1 POP JUMP JUMPDEST PUSH0 PUSH1 0x20 DUP3 ADD SWAP1 POP DUP2 DUP2 SUB PUSH0 DUP4 ADD MSTORE PUSH2 0x5559 DUP2 PUSH2 0x5520 JUMP JUMPDEST SWAP1 POP SWAP2 SWAP1 POP JUMP JUMPDEST PUSH0 PUSH2 0x100 DUP3 ADD SWAP1 POP PUSH2 0x5574 PUSH0 DUP4 ADD DUP12 PUSH2 0x3CE2 JUMP JUMPDEST PUSH2 0x5581 PUSH1 0x20 DUP4 ADD DUP11 PUSH2 0x3DE3 JUMP JUMPDEST PUSH2 0x558E PUSH1 0x40 DUP4 ADD DUP10 PUSH2 0x3DE3 JUMP JUMPDEST PUSH2 0x559B PUSH1 0x60 DUP4 ADD DUP9 PUSH2 0x3DE3 JUMP JUMPDEST PUSH2 0x55A8 PUSH1 0x80 DUP4 ADD DUP8 PUSH2 0x3DE3 JUMP JUMPDEST PUSH2 0x55B5 PUSH1 0xA0 DUP4 ADD DUP7 PUSH2 0x3CE2 JUMP JUMPDEST PUSH2 0x55C2 PUSH1 0xC0 DUP4 ADD DUP6 PUSH2 0x3CE2 JUMP JUMPDEST PUSH2 0x55CF PUSH1 0xE0 DUP4 ADD DUP5 PUSH2 0x3CE2 JUMP JUMPDEST SWAP10 SWAP9 POP POP POP POP POP POP POP POP POP JUMP JUMPDEST PUSH0 PUSH1 0x40 DUP3 ADD SWAP1 POP PUSH2 0x55EF PUSH0 DUP4 ADD DUP6 PUSH2 0x3DE3 JUMP JUMPDEST PUSH2 0x55FC PUSH1 0x20 DUP4 ADD DUP5 PUSH2 0x3CE2 JUMP JUMPDEST SWAP4 SWAP3 POP POP POP JUMP JUMPDEST PUSH32 0x5061757361626C653A206E6F7420706175736564000000000000000000000000 PUSH0 DUP3 ADD MSTORE POP JUMP JUMPDEST PUSH0 PUSH2 0x5637 PUSH1 0x14 DUP4 PUSH2 0x3D4C JUMP JUMPDEST SWAP2 POP PUSH2 0x5642 DUP3 PUSH2 0x5603 JUMP JUMPDEST PUSH1 0x20 DUP3 ADD SWAP1 POP SWAP2 SWAP1 POP JUMP JUMPDEST PUSH0 PUSH1 0x20 DUP3 ADD SWAP1 POP DUP2 DUP2 SUB PUSH0 DUP4 ADD MSTORE PUSH2 0x5664 DUP2 PUSH2 0x562B JUMP JUMPDEST SWAP1 POP SWAP2 SWAP1 POP JUMP INVALID LOG2 PUSH5 0x6970667358 0x22 SLT KECCAK256 0xD0 RETURNDATASIZE CODESIZE 0xD1 MOD SWAP15 0xBC SWAP9 0xE8 DUP4 0xFC PUSH32 0x17471CADC9149CEA09D11451A43D956C34A306F564736F6C634300081A003300 "
		},
		"gasEstimates": {
			"creation": {
				"codeDepositCost": "4435400",
				"executionCost": "infinite",
				"totalCost": "infinite"
			},
			"external": {
				"approve(address,uint256)": "infinite",
				"approvePaintingRequest(uint256)": "infinite",
				"balanceOf(address)": "infinite",
				"debugPaintingRequest(uint256)": "infinite",
				"finalizePainting(uint256)": "infinite",
				"galleryContract()": "infinite",
				"getApproved(uint256)": "infinite",
				"getGalleryDebugInfo(uint256)": "infinite",
				"isApprovedForAll(address,address)": "infinite",
				"name()": "infinite",
				"ownerOf(uint256)": "infinite",
				"paintingRequests(uint256)": "infinite",
				"paintingShares()": "infinite",
				"paintings(uint256)": "infinite",
				"pause()": "infinite",
				"paused()": "2540",
				"rejectPaintingRequest(uint256)": "infinite",
				"requestPainting(uint256,string)": "infinite",
				"roleManager()": "infinite",
				"safeTransferFrom(address,address,uint256)": "infinite",
				"safeTransferFrom(address,address,uint256,bytes)": "infinite",
				"setApprovalForAll(address,bool)": "infinite",
				"submitPaintingCompletion(uint256)": "infinite",
				"supportsInterface(bytes4)": "832",
				"symbol()": "infinite",
				"tokenURI(uint256)": "infinite",
				"transferFrom(address,address,uint256)": "infinite",
				"unpause()": "infinite",
				"wallContract()": "infinite",
				"wallPainted(uint256)": "2829"
			},
			"internal": {
				"_createShares(uint256,uint256,address)": "infinite"
			}
		},
		"methodIdentifiers": {
			"approve(address,uint256)": "095ea7b3",
			"approvePaintingRequest(uint256)": "8085be02",
			"balanceOf(address)": "70a08231",
			"debugPaintingRequest(uint256)": "044fdf8e",
			"finalizePainting(uint256)": "eb1b1e71",
			"galleryContract()": "71d24b70",
			"getApproved(uint256)": "081812fc",
			"getGalleryDebugInfo(uint256)": "07f2b4be",
			"isApprovedForAll(address,address)": "e985e9c5",
			"name()": "06fdde03",
			"ownerOf(uint256)": "6352211e",
			"paintingRequests(uint256)": "a245e7ff",
			"paintingShares()": "7eb4ecb4",
			"paintings(uint256)": "c7ca6daa",
			"pause()": "8456cb59",
			"paused()": "5c975abb",
			"rejectPaintingRequest(uint256)": "e38da54b",
			"requestPainting(uint256,string)": "41bc8b64",
			"roleManager()": "00435da5",
			"safeTransferFrom(address,address,uint256)": "42842e0e",
			"safeTransferFrom(address,address,uint256,bytes)": "b88d4fde",
			"setApprovalForAll(address,bool)": "a22cb465",
			"submitPaintingCompletion(uint256)": "072e91d9",
			"supportsInterface(bytes4)": "01ffc9a7",
			"symbol()": "95d89b41",
			"tokenURI(uint256)": "c87b56dd",
			"transferFrom(address,address,uint256)": "23b872dd",
			"unpause()": "3f4ba83a",
			"wallContract()": "aad53a84",
			"wallPainted(uint256)": "e1f4ab5f"
		}
	},
	"abi": [
		{
			"inputs": [
				{
					"internalType": "address",
					"name": "_roleManager",
					"type": "address"
				},
				{
					"internalType": "address",
					"name": "_wallContract",
					"type": "address"
				},
				{
					"internalType": "address",
					"name": "_galleryContract",
					"type": "address"
				},
				{
					"internalType": "address",
					"name": "_paintingShares",
					"type": "address"
				}
			],
			"stateMutability": "nonpayable",
			"type": "constructor"
		},
		{
			"inputs": [
				{
					"internalType": "address",
					"name": "sender",
					"type": "address"
				},
				{
					"internalType": "uint256",
					"name": "tokenId",
					"type": "uint256"
				},
				{
					"internalType": "address",
					"name": "owner",
					"type": "address"
				}
			],
			"name": "ERC721IncorrectOwner",
			"type": "error"
		},
		{
			"inputs": [
				{
					"internalType": "address",
					"name": "operator",
					"type": "address"
				},
				{
					"internalType": "uint256",
					"name": "tokenId",
					"type": "uint256"
				}
			],
			"name": "ERC721InsufficientApproval",
			"type": "error"
		},
		{
			"inputs": [
				{
					"internalType": "address",
					"name": "approver",
					"type": "address"
				}
			],
			"name": "ERC721InvalidApprover",
			"type": "error"
		},
		{
			"inputs": [
				{
					"internalType": "address",
					"name": "operator",
					"type": "address"
				}
			],
			"name": "ERC721InvalidOperator",
			"type": "error"
		},
		{
			"inputs": [
				{
					"internalType": "address",
					"name": "owner",
					"type": "address"
				}
			],
			"name": "ERC721InvalidOwner",
			"type": "error"
		},
		{
			"inputs": [
				{
					"internalType": "address",
					"name": "receiver",
					"type": "address"
				}
			],
			"name": "ERC721InvalidReceiver",
			"type": "error"
		},
		{
			"inputs": [
				{
					"internalType": "address",
					"name": "sender",
					"type": "address"
				}
			],
			"name": "ERC721InvalidSender",
			"type": "error"
		},
		{
			"inputs": [
				{
					"internalType": "uint256",
					"name": "tokenId",
					"type": "uint256"
				}
			],
			"name": "ERC721NonexistentToken",
			"type": "error"
		},
		{
			"anonymous": false,
			"inputs": [
				{
					"indexed": true,
					"internalType": "address",
					"name": "owner",
					"type": "address"
				},
				{
					"indexed": true,
					"internalType": "address",
					"name": "approved",
					"type": "address"
				},
				{
					"indexed": true,
					"internalType": "uint256",
					"name": "tokenId",
					"type": "uint256"
				}
			],
			"name": "Approval",
			"type": "event"
		},
		{
			"anonymous": false,
			"inputs": [
				{
					"indexed": true,
					"internalType": "address",
					"name": "owner",
					"type": "address"
				},
				{
					"indexed": true,
					"internalType": "address",
					"name": "operator",
					"type": "address"
				},
				{
					"indexed": false,
					"internalType": "bool",
					"name": "approved",
					"type": "bool"
				}
			],
			"name": "ApprovalForAll",
			"type": "event"
		},
		{
			"anonymous": false,
			"inputs": [
				{
					"indexed": true,
					"internalType": "uint256",
					"name": "paintingId",
					"type": "uint256"
				},
				{
					"indexed": true,
					"internalType": "uint256",
					"name": "wallId",
					"type": "uint256"
				}
			],
			"name": "PaintingCompleted",
			"type": "event"
		},
		{
			"anonymous": false,
			"inputs": [
				{
					"indexed": true,
					"internalType": "uint256",
					"name": "wallId",
					"type": "uint256"
				},
				{
					"indexed": true,
					"internalType": "address",
					"name": "painter",
					"type": "address"
				}
			],
			"name": "PaintingRequestApproved",
			"type": "event"
		},
		{
			"anonymous": false,
			"inputs": [
				{
					"indexed": true,
					"internalType": "uint256",
					"name": "wallId",
					"type": "uint256"
				},
				{
					"indexed": true,
					"internalType": "address",
					"name": "painter",
					"type": "address"
				}
			],
			"name": "PaintingRequestRejected",
			"type": "event"
		},
		{
			"anonymous": false,
			"inputs": [
				{
					"indexed": true,
					"internalType": "uint256",
					"name": "wallId",
					"type": "uint256"
				},
				{
					"indexed": true,
					"internalType": "address",
					"name": "painter",
					"type": "address"
				}
			],
			"name": "PaintingRequested",
			"type": "event"
		},
		{
			"anonymous": false,
			"inputs": [
				{
					"indexed": false,
					"internalType": "address",
					"name": "account",
					"type": "address"
				}
			],
			"name": "Paused",
			"type": "event"
		},
		{
			"anonymous": false,
			"inputs": [
				{
					"indexed": true,
					"internalType": "uint256",
					"name": "paintingId",
					"type": "uint256"
				}
			],
			"name": "SharesCreated",
			"type": "event"
		},
		{
			"anonymous": false,
			"inputs": [
				{
					"indexed": true,
					"internalType": "address",
					"name": "from",
					"type": "address"
				},
				{
					"indexed": true,
					"internalType": "address",
					"name": "to",
					"type": "address"
				},
				{
					"indexed": true,
					"internalType": "uint256",
					"name": "tokenId",
					"type": "uint256"
				}
			],
			"name": "Transfer",
			"type": "event"
		},
		{
			"anonymous": false,
			"inputs": [
				{
					"indexed": false,
					"internalType": "address",
					"name": "account",
					"type": "address"
				}
			],
			"name": "Unpaused",
			"type": "event"
		},
		{
			"inputs": [
				{
					"internalType": "address",
					"name": "to",
					"type": "address"
				},
				{
					"internalType": "uint256",
					"name": "tokenId",
					"type": "uint256"
				}
			],
			"name": "approve",
			"outputs": [],
			"stateMutability": "nonpayable",
			"type": "function"
		},
		{
			"inputs": [
				{
					"internalType": "uint256",
					"name": "wallId",
					"type": "uint256"
				}
			],
			"name": "approvePaintingRequest",
			"outputs": [],
			"stateMutability": "nonpayable",
			"type": "function"
		},
		{
			"inputs": [
				{
					"internalType": "address",
					"name": "owner",
					"type": "address"
				}
			],
			"name": "balanceOf",
			"outputs": [
				{
					"internalType": "uint256",
					"name": "",
					"type": "uint256"
				}
			],
			"stateMutability": "view",
			"type": "function"
		},
		{
			"inputs": [
				{
					"internalType": "uint256",
					"name": "wallId",
					"type": "uint256"
				}
			],
			"name": "debugPaintingRequest",
			"outputs": [
				{
					"internalType": "bool",
					"name": "isWallPainted",
					"type": "bool"
				},
				{
					"internalType": "enum PaintingNFT.PaintingStatus",
					"name": "currentStatus",
					"type": "uint8"
				},
				{
					"internalType": "bool",
					"name": "isInGallery",
					"type": "bool"
				},
				{
					"internalType": "uint256",
					"name": "galleryId",
					"type": "uint256"
				},
				{
					"internalType": "bool",
					"name": "hasPainterRole",
					"type": "bool"
				}
			],
			"stateMutability": "view",
			"type": "function"
		},
		{
			"inputs": [
				{
					"internalType": "uint256",
					"name": "wallId",
					"type": "uint256"
				}
			],
			"name": "finalizePainting",
			"outputs": [],
			"stateMutability": "nonpayable",
			"type": "function"
		},
		{
			"inputs": [],
			"name": "galleryContract",
			"outputs": [
				{
					"internalType": "contract IGallery",
					"name": "",
					"type": "address"
				}
			],
			"stateMutability": "view",
			"type": "function"
		},
		{
			"inputs": [
				{
					"internalType": "uint256",
					"name": "tokenId",
					"type": "uint256"
				}
			],
			"name": "getApproved",
			"outputs": [
				{
					"internalType": "address",
					"name": "",
					"type": "address"
				}
			],
			"stateMutability": "view",
			"type": "function"
		},
		{
			"inputs": [
				{
					"internalType": "uint256",
					"name": "wallId",
					"type": "uint256"
				}
			],
			"name": "getGalleryDebugInfo",
			"outputs": [
				{
					"internalType": "bool",
					"name": "isInGallery",
					"type": "bool"
				},
				{
					"internalType": "uint256",
					"name": "galleryId",
					"type": "uint256"
				},
				{
					"internalType": "address",
					"name": "galleryOwner",
					"type": "address"
				},
				{
					"internalType": "bool",
					"name": "isActive",
					"type": "bool"
				}
			],
			"stateMutability": "view",
			"type": "function"
		},
		{
			"inputs": [
				{
					"internalType": "address",
					"name": "owner",
					"type": "address"
				},
				{
					"internalType": "address",
					"name": "operator",
					"type": "address"
				}
			],
			"name": "isApprovedForAll",
			"outputs": [
				{
					"internalType": "bool",
					"name": "",
					"type": "bool"
				}
			],
			"stateMutability": "view",
			"type": "function"
		},
		{
			"inputs": [],
			"name": "name",
			"outputs": [
				{
					"internalType": "string",
					"name": "",
					"type": "string"
				}
			],
			"stateMutability": "view",
			"type": "function"
		},
		{
			"inputs": [
				{
					"internalType": "uint256",
					"name": "tokenId",
					"type": "uint256"
				}
			],
			"name": "ownerOf",
			"outputs": [
				{
					"internalType": "address",
					"name": "",
					"type": "address"
				}
			],
			"stateMutability": "view",
			"type": "function"
		},
		{
			"inputs": [
				{
					"internalType": "uint256",
					"name": "",
					"type": "uint256"
				}
			],
			"name": "paintingRequests",
			"outputs": [
				{
					"internalType": "uint256",
					"name": "wallId",
					"type": "uint256"
				},
				{
					"internalType": "address",
					"name": "painter",
					"type": "address"
				},
				{
					"internalType": "string",
					"name": "description",
					"type": "string"
				},
				{
					"internalType": "enum PaintingNFT.PaintingStatus",
					"name": "status",
					"type": "uint8"
				},
				{
					"internalType": "uint256",
					"name": "timestamp",
					"type": "uint256"
				}
			],
			"stateMutability": "view",
			"type": "function"
		},
		{
			"inputs": [],
			"name": "paintingShares",
			"outputs": [
				{
					"internalType": "contract IPaintingShares",
					"name": "",
					"type": "address"
				}
			],
			"stateMutability": "view",
			"type": "function"
		},
		{
			"inputs": [
				{
					"internalType": "uint256",
					"name": "",
					"type": "uint256"
				}
			],
			"name": "paintings",
			"outputs": [
				{
					"internalType": "uint256",
					"name": "id",
					"type": "uint256"
				},
				{
					"internalType": "uint256",
					"name": "wallId",
					"type": "uint256"
				},
				{
					"internalType": "address",
					"name": "painter",
					"type": "address"
				},
				{
					"internalType": "string",
					"name": "description",
					"type": "string"
				},
				{
					"internalType": "bool",
					"name": "sharesMinted",
					"type": "bool"
				},
				{
					"internalType": "uint256",
					"name": "createdAt",
					"type": "uint256"
				}
			],
			"stateMutability": "view",
			"type": "function"
		},
		{
			"inputs": [],
			"name": "pause",
			"outputs": [],
			"stateMutability": "nonpayable",
			"type": "function"
		},
		{
			"inputs": [],
			"name": "paused",
			"outputs": [
				{
					"internalType": "bool",
					"name": "",
					"type": "bool"
				}
			],
			"stateMutability": "view",
			"type": "function"
		},
		{
			"inputs": [
				{
					"internalType": "uint256",
					"name": "wallId",
					"type": "uint256"
				}
			],
			"name": "rejectPaintingRequest",
			"outputs": [],
			"stateMutability": "nonpayable",
			"type": "function"
		},
		{
			"inputs": [
				{
					"internalType": "uint256",
					"name": "wallId",
					"type": "uint256"
				},
				{
					"internalType": "string",
					"name": "description",
					"type": "string"
				}
			],
			"name": "requestPainting",
			"outputs": [],
			"stateMutability": "nonpayable",
			"type": "function"
		},
		{
			"inputs": [],
			"name": "roleManager",
			"outputs": [
				{
					"internalType": "contract IRoleManager",
					"name": "",
					"type": "address"
				}
			],
			"stateMutability": "view",
			"type": "function"
		},
		{
			"inputs": [
				{
					"internalType": "address",
					"name": "from",
					"type": "address"
				},
				{
					"internalType": "address",
					"name": "to",
					"type": "address"
				},
				{
					"internalType": "uint256",
					"name": "tokenId",
					"type": "uint256"
				}
			],
			"name": "safeTransferFrom",
			"outputs": [],
			"stateMutability": "nonpayable",
			"type": "function"
		},
		{
			"inputs": [
				{
					"internalType": "address",
					"name": "from",
					"type": "address"
				},
				{
					"internalType": "address",
					"name": "to",
					"type": "address"
				},
				{
					"internalType": "uint256",
					"name": "tokenId",
					"type": "uint256"
				},
				{
					"internalType": "bytes",
					"name": "data",
					"type": "bytes"
				}
			],
			"name": "safeTransferFrom",
			"outputs": [],
			"stateMutability": "nonpayable",
			"type": "function"
		},
		{
			"inputs": [
				{
					"internalType": "address",
					"name": "operator",
					"type": "address"
				},
				{
					"internalType": "bool",
					"name": "approved",
					"type": "bool"
				}
			],
			"name": "setApprovalForAll",
			"outputs": [],
			"stateMutability": "nonpayable",
			"type": "function"
		},
		{
			"inputs": [
				{
					"internalType": "uint256",
					"name": "wallId",
					"type": "uint256"
				}
			],
			"name": "submitPaintingCompletion",
			"outputs": [],
			"stateMutability": "nonpayable",
			"type": "function"
		},
		{
			"inputs": [
				{
					"internalType": "bytes4",
					"name": "interfaceId",
					"type": "bytes4"
				}
			],
			"name": "supportsInterface",
			"outputs": [
				{
					"internalType": "bool",
					"name": "",
					"type": "bool"
				}
			],
			"stateMutability": "view",
			"type": "function"
		},
		{
			"inputs": [],
			"name": "symbol",
			"outputs": [
				{
					"internalType": "string",
					"name": "",
					"type": "string"
				}
			],
			"stateMutability": "view",
			"type": "function"
		},
		{
			"inputs": [
				{
					"internalType": "uint256",
					"name": "tokenId",
					"type": "uint256"
				}
			],
			"name": "tokenURI",
			"outputs": [
				{
					"internalType": "string",
					"name": "",
					"type": "string"
				}
			],
			"stateMutability": "view",
			"type": "function"
		},
		{
			"inputs": [
				{
					"internalType": "address",
					"name": "from",
					"type": "address"
				},
				{
					"internalType": "address",
					"name": "to",
					"type": "address"
				},
				{
					"internalType": "uint256",
					"name": "tokenId",
					"type": "uint256"
				}
			],
			"name": "transferFrom",
			"outputs": [],
			"stateMutability": "nonpayable",
			"type": "function"
		},
		{
			"inputs": [],
			"name": "unpause",
			"outputs": [],
			"stateMutability": "nonpayable",
			"type": "function"
		},
		{
			"inputs": [],
			"name": "wallContract",
			"outputs": [
				{
					"internalType": "contract IWall",
					"name": "",
					"type": "address"
				}
			],
			"stateMutability": "view",
			"type": "function"
		},
		{
			"inputs": [
				{
					"internalType": "uint256",
					"name": "",
					"type": "uint256"
				}
			],
			"name": "wallPainted",
			"outputs": [
				{
					"internalType": "bool",
					"name": "",
					"type": "bool"
				}
			],
			"stateMutability": "view",
			"type": "function"
		}
	]
}