{
	"data": {
		"bytecode": {
			"linkReferences": {},
			"object": "608060405234801561000f575f80fd5b505f60015f6101000a81548160ff02191690831515021790555061003b5f801b3361007260201b60201c565b5061006c7fa49807205ce4d355092ef5a8a18f56e8913cf4a201fbe287825b095693c217753361007260201b60201c565b506101d1565b5f610083838361016760201b60201c565b61015d5760015f808581526020019081526020015f205f015f8473ffffffffffffffffffffffffffffffffffffffff1673ffffffffffffffffffffffffffffffffffffffff1681526020019081526020015f205f6101000a81548160ff0219169083151502179055506100fa6101ca60201b60201c565b73ffffffffffffffffffffffffffffffffffffffff168273ffffffffffffffffffffffffffffffffffffffff16847f2f8788117e7eff1d82e926ec794901d17c78024a50270940304540a733656f0d60405160405180910390a460019050610161565b5f90505b92915050565b5f805f8481526020019081526020015f205f015f8373ffffffffffffffffffffffffffffffffffffffff1673ffffffffffffffffffffffffffffffffffffffff1681526020019081526020015f205f9054906101000a900460ff16905092915050565b5f33905090565b61404b806101de5f395ff3fe608060405234801561000f575f80fd5b50600436106101d8575f3560e01c806375b238fc1161010257806391d14854116100a0578063bd6051211161006f578063bd6051211461056a578063c2d7944414610586578063d547741f146105a4578063fa90ace3146105c0576101d8565b806391d14854146104ca5780639411ca46146104fa57806398e4abb51461052e578063a217fddf1461054c576101d8565b806378988ebd116100dc57806378988ebd146104685780637e75d9561461048657806380a1f712146104a25780638456cb59146104c0576101d8565b806375b238fc14610412578063768b01aa14610430578063784268481461044c576101d8565b806325df448c1161017a5780633c652a9a116101495780633c652a9a146103825780633f4ba83a146103b65780635c975abb146103c05780636386c1c7146103de576101d8565b806325df448c146103105780632f2ff15d1461032c578063303e38401461034857806336568abe14610366576101d8565b80631959a002116101b65780631959a002146102745780631d9486de146102a8578063208dd1ff146102c4578063248a9ca3146102e0576101d8565b806301ffc9a7146101dc578063095c6e021461020c57806318097b6914610240575b5f80fd5b6101f660048036038101906101f19190612ea4565b6105dc565b6040516102039190612ee9565b60405180910390f35b61022660048036038101906102219190612f5c565b610655565b60405161023795949392919061309d565b60405180910390f35b61025a60048036038101906102559190613128565b61096a565b60405161026b9594939291906131bd565b60405180910390f35b61028e60048036038101906102899190612f5c565b610b1a565b60405161029f959493929190613215565b60405180910390f35b6102c260048036038101906102bd9190613128565b610d83565b005b6102de60048036038101906102d99190613128565b610e77565b005b6102fa60048036038101906102f59190613282565b610f6b565b60405161030791906132ad565b60405180910390f35b61032a60048036038101906103259190613128565b610f87565b005b610346600480360381019061034191906132c6565b6111a1565b005b6103506111c3565b60405161035d91906132ad565b60405180910390f35b610380600480360381019061037b91906132c6565b6111e7565b005b61039c60048036038101906103979190613337565b611262565b6040516103ad9594939291906131bd565b60405180910390f35b6103be611361565b005b6103c8611396565b6040516103d59190612ee9565b60405180910390f35b6103f860048036038101906103f39190612f5c565b6113ab565b604051610409959493929190613215565b60405180910390f35b61041a6116bd565b60405161042791906132ad565b60405180910390f35b61044a6004803603810190610445919061348e565b6116e1565b005b610466600480360381019061046191906134e8565b611a6c565b005b610470611e33565b60405161047d91906132ad565b60405180910390f35b6104a0600480360381019061049b9190612f5c565b611e57565b005b6104aa611f9a565b6040516104b79190613708565b60405180910390f35b6104c8612119565b005b6104e460048036038101906104df91906132c6565b61214e565b6040516104f19190612ee9565b60405180910390f35b610514600480360381019061050f9190613128565b6121b1565b6040516105259594939291906131bd565b60405180910390f35b6105366122ac565b60405161054391906132ad565b60405180910390f35b6105546122d0565b60405161056191906132ad565b60405180910390f35b610584600480360381019061057f9190613128565b6122d6565b005b61058e6124a0565b60405161059b91906132ad565b60405180910390f35b6105be60048036038101906105b991906132c6565b6124c4565b005b6105da60048036038101906105d59190612f5c565b6124e6565b005b5f7f7965db0b000000000000000000000000000000000000000000000000000000007bffffffffffffffffffffffffffffffffffffffffffffffffffffffff1916827bffffffffffffffffffffffffffffffffffffffffffffffffffffffff1916148061064e575061064d82612768565b5b9050919050565b6003602052805f5260405f205f91509050805f015f9054906101000a900473ffffffffffffffffffffffffffffffffffffffff1690806001016040518060a00160405290815f820180546106a890613755565b80601f01602080910402602001604051908101604052809291908181526020018280546106d490613755565b801561071f5780601f106106f65761010080835404028352916020019161071f565b820191905f5260205f20905b81548152906001019060200180831161070257829003601f168201915b5050505050815260200160018201805461073890613755565b80601f016020809104026020016040519081016040528092919081815260200182805461076490613755565b80156107af5780601f10610786576101008083540402835291602001916107af565b820191905f5260205f20905b81548152906001019060200180831161079257829003601f168201915b505050505081526020016002820180546107c890613755565b80601f01602080910402602001604051908101604052809291908181526020018280546107f490613755565b801561083f5780601f106108165761010080835404028352916020019161083f565b820191905f5260205f20905b81548152906001019060200180831161082257829003601f168201915b5050505050815260200160038201805461085890613755565b80601f016020809104026020016040519081016040528092919081815260200182805461088490613755565b80156108cf5780601f106108a6576101008083540402835291602001916108cf565b820191905f5260205f20905b8154815290600101906020018083116108b257829003601f168201915b50505050508152602001600482015f9054906101000a900473ffffffffffffffffffffffffffffffffffffffff1673ffffffffffffffffffffffffffffffffffffffff1673ffffffffffffffffffffffffffffffffffffffff168152505090806006015f9054906101000a900460ff16908060060160019054906101000a900460ff16908060060160029054906101000a900460ff16905085565b5f8060605f805f60045f8973ffffffffffffffffffffffffffffffffffffffff1673ffffffffffffffffffffffffffffffffffffffff1681526020019081526020015f205f8881526020019081526020015f206040518060a00160405290815f82015f9054906101000a900473ffffffffffffffffffffffffffffffffffffffff1673ffffffffffffffffffffffffffffffffffffffff1673ffffffffffffffffffffffffffffffffffffffff16815260200160018201548152602001600282018054610a3690613755565b80601f0160208091040260200160405190810160405280929190818152602001828054610a6290613755565b8015610aad5780601f10610a8457610100808354040283529160200191610aad565b820191905f5260205f20905b815481529060010190602001808311610a9057829003601f168201915b50505050508152602001600382015f9054906101000a900460ff161515151581526020016003820160019054906101000a900460ff1615151515815250509050805f0151816020015182604001518360600151846080015195509550955095509550509295509295909350565b6002602052805f5260405f205f91509050805f018054610b3990613755565b80601f0160208091040260200160405190810160405280929190818152602001828054610b6590613755565b8015610bb05780601f10610b8757610100808354040283529160200191610bb0565b820191905f5260205f20905b815481529060010190602001808311610b9357829003601f168201915b505050505090806001018054610bc590613755565b80601f0160208091040260200160405190810160405280929190818152602001828054610bf190613755565b8015610c3c5780601f10610c1357610100808354040283529160200191610c3c565b820191905f5260205f20905b815481529060010190602001808311610c1f57829003601f168201915b505050505090806002018054610c5190613755565b80601f0160208091040260200160405190810160405280929190818152602001828054610c7d90613755565b8015610cc85780601f10610c9f57610100808354040283529160200191610cc8565b820191905f5260205f20905b815481529060010190602001808311610cab57829003601f168201915b505050505090806003018054610cdd90613755565b80601f0160208091040260200160405190810160405280929190818152602001828054610d0990613755565b8015610d545780601f10610d2b57610100808354040283529160200191610d54565b820191905f5260205f20905b815481529060010190602001808311610d3757829003601f168201915b505050505090806004015f9054906101000a900473ffffffffffffffffffffffffffffffffffffffff16905085565b7fa49807205ce4d355092ef5a8a18f56e8913cf4a201fbe287825b095693c21775610dad816127d1565b610db56127e5565b5f73ffffffffffffffffffffffffffffffffffffffff168373ffffffffffffffffffffffffffffffffffffffff1603610e23576040517f08c379a0000000000000000000000000000000000000000000000000000000008152600401610e1a906137cf565b60405180910390fd5b610e2d828461282f565b50818373ffffffffffffffffffffffffffffffffffffffff167f0666448aae9b9c8249fd8213a35a9c10218a0eac2fb39b96ed90c67214c7e76160405160405180910390a3505050565b7fa49807205ce4d355092ef5a8a18f56e8913cf4a201fbe287825b095693c21775610ea1816127d1565b610ea96127e5565b5f73ffffffffffffffffffffffffffffffffffffffff168373ffffffffffffffffffffffffffffffffffffffff1603610f17576040517f08c379a0000000000000000000000000000000000000000000000000000000008152600401610f0e906137cf565b60405180910390fd5b610f218284612918565b50818373ffffffffffffffffffffffffffffffffffffffff167fea83a7caef01824e96446a8c4bc8ff4669edd99e129b53e32c077f85d216808160405160405180910390a3505050565b5f805f8381526020019081526020015f20600101549050919050565b7fa49807205ce4d355092ef5a8a18f56e8913cf4a201fbe287825b095693c21775610fb1816127d1565b610fb96127e5565b5f73ffffffffffffffffffffffffffffffffffffffff168373ffffffffffffffffffffffffffffffffffffffff1603611027576040517f08c379a000000000000000000000000000000000000000000000000000000000815260040161101e906137cf565b60405180910390fd5b5f60045f8573ffffffffffffffffffffffffffffffffffffffff1673ffffffffffffffffffffffffffffffffffffffff1681526020019081526020015f205f8481526020019081526020015f209050806003015f9054906101000a900460ff166110c6576040517f08c379a00000000000000000000000000000000000000000000000000000000081526004016110bd90613837565b60405180910390fd5b5f816003015f6101000a81548160ff02191690831515021790555060018160030160016101000a81548160ff0219169083151502179055506111088484612a01565b611112838561282f565b50828473ffffffffffffffffffffffffffffffffffffffff167f7eb8b9d1e030c150ef76a2962c9e6f78af369eb66f093314f8b59040fc5992da60405160405180910390a3828473ffffffffffffffffffffffffffffffffffffffff167f0666448aae9b9c8249fd8213a35a9c10218a0eac2fb39b96ed90c67214c7e76160405160405180910390a350505050565b6111aa82610f6b565b6111b3816127d1565b6111bd838361282f565b50505050565b7f709f71abb733aa2493d642ec84d615695650e6806fd401c97e1fecbd9c84c1d681565b6111ef612c83565b73ffffffffffffffffffffffffffffffffffffffff168173ffffffffffffffffffffffffffffffffffffffff1614611253576040517f6697b23200000000000000000000000000000000000000000000000000000000815260040160405180910390fd5b61125d8282612918565b505050565b60058181548110611271575f80fd5b905f5260205f2090600402015f91509050805f015f9054906101000a900473ffffffffffffffffffffffffffffffffffffffff16908060010154908060020180546112bb90613755565b80601f01602080910402602001604051908101604052809291908181526020018280546112e790613755565b80156113325780601f1061130957610100808354040283529160200191611332565b820191905f5260205f20905b81548152906001019060200180831161131557829003601f168201915b505050505090806003015f9054906101000a900460ff16908060030160019054906101000a900460ff16905085565b7fa49807205ce4d355092ef5a8a18f56e8913cf4a201fbe287825b095693c2177561138b816127d1565b611393612c8a565b50565b5f60015f9054906101000a900460ff16905090565b6060806060805f8060025f8873ffffffffffffffffffffffffffffffffffffffff1673ffffffffffffffffffffffffffffffffffffffff1681526020019081526020015f206040518060a00160405290815f8201805461140a90613755565b80601f016020809104026020016040519081016040528092919081815260200182805461143690613755565b80156114815780601f1061145857610100808354040283529160200191611481565b820191905f5260205f20905b81548152906001019060200180831161146457829003601f168201915b5050505050815260200160018201805461149a90613755565b80601f01602080910402602001604051908101604052809291908181526020018280546114c690613755565b80156115115780601f106114e857610100808354040283529160200191611511565b820191905f5260205f20905b8154815290600101906020018083116114f457829003601f168201915b5050505050815260200160028201805461152a90613755565b80601f016020809104026020016040519081016040528092919081815260200182805461155690613755565b80156115a15780601f10611578576101008083540402835291602001916115a1565b820191905f5260205f20905b81548152906001019060200180831161158457829003601f168201915b505050505081526020016003820180546115ba90613755565b80601f01602080910402602001604051908101604052809291908181526020018280546115e690613755565b80156116315780601f1061160857610100808354040283529160200191611631565b820191905f5260205f20905b81548152906001019060200180831161161457829003601f168201915b50505050508152602001600482015f9054906101000a900473ffffffffffffffffffffffffffffffffffffffff1673ffffffffffffffffffffffffffffffffffffffff1673ffffffffffffffffffffffffffffffffffffffff16815250509050805f01518160200151826040015183606001518460800151955095509550955095505091939590929450565b7fa49807205ce4d355092ef5a8a18f56e8913cf4a201fbe287825b095693c2177581565b6116e96127e5565b6116f3823361214e565b15611733576040517f08c379a000000000000000000000000000000000000000000000000000000000815260040161172a9061389f565b60405180910390fd5b5f815111611776576040517f08c379a000000000000000000000000000000000000000000000000000000000815260040161176d90613907565b60405180910390fd5b60045f3373ffffffffffffffffffffffffffffffffffffffff1673ffffffffffffffffffffffffffffffffffffffff1681526020019081526020015f205f8381526020019081526020015f206003015f9054906101000a900460ff1615611812576040517f08c379a00000000000000000000000000000000000000000000000000000000081526004016118099061396f565b60405180910390fd5b5f6040518060a001604052803373ffffffffffffffffffffffffffffffffffffffff1681526020018481526020018381526020016001151581526020015f151581525090508060045f3373ffffffffffffffffffffffffffffffffffffffff1673ffffffffffffffffffffffffffffffffffffffff1681526020019081526020015f205f8581526020019081526020015f205f820151815f015f6101000a81548173ffffffffffffffffffffffffffffffffffffffff021916908373ffffffffffffffffffffffffffffffffffffffff1602179055506020820151816001015560408201518160020190816119079190613b2a565b506060820151816003015f6101000a81548160ff02191690831515021790555060808201518160030160016101000a81548160ff021916908315150217905550905050600581908060018154018082558091505060019003905f5260205f2090600402015f909190919091505f820151815f015f6101000a81548173ffffffffffffffffffffffffffffffffffffffff021916908373ffffffffffffffffffffffffffffffffffffffff1602179055506020820151816001015560408201518160020190816119d69190613b2a565b506060820151816003015f6101000a81548160ff02191690831515021790555060808201518160030160016101000a81548160ff0219169083151502179055505050823373ffffffffffffffffffffffffffffffffffffffff167f98f6f2d133c420a141a671ce9479e3956417c7f04bd370de1cd64ce10d385d9484604051611a5f9190613bf9565b60405180910390a3505050565b611a746127e5565b5f845111611ab7576040517f08c379a0000000000000000000000000000000000000000000000000000000008152600401611aae90613c63565b60405180910390fd5b5f835111611afa576040517f08c379a0000000000000000000000000000000000000000000000000000000008152600401611af190613ccb565b60405180910390fd5b5f825111611b3d576040517f08c379a0000000000000000000000000000000000000000000000000000000008152600401611b3490613d33565b60405180910390fd5b5f6040518060a001604052808681526020018581526020018481526020018381526020013373ffffffffffffffffffffffffffffffffffffffff1681525090505f8073ffffffffffffffffffffffffffffffffffffffff1660025f3373ffffffffffffffffffffffffffffffffffffffff1673ffffffffffffffffffffffffffffffffffffffff1681526020019081526020015f206004015f9054906101000a900473ffffffffffffffffffffffffffffffffffffffff1673ffffffffffffffffffffffffffffffffffffffff16141590506040518060a001604052803373ffffffffffffffffffffffffffffffffffffffff16815260200183815260200182151581526020016001151581526020015f151581525060035f3373ffffffffffffffffffffffffffffffffffffffff1673ffffffffffffffffffffffffffffffffffffffff1681526020019081526020015f205f820151815f015f6101000a81548173ffffffffffffffffffffffffffffffffffffffff021916908373ffffffffffffffffffffffffffffffffffffffff1602179055506020820151816001015f820151815f019081611cf09190613b2a565b506020820151816001019081611d069190613b2a565b506040820151816002019081611d1c9190613b2a565b506060820151816003019081611d329190613b2a565b506080820151816004015f6101000a81548173ffffffffffffffffffffffffffffffffffffffff021916908373ffffffffffffffffffffffffffffffffffffffff16021790555050506040820151816006015f6101000a81548160ff02191690831515021790555060608201518160060160016101000a81548160ff02191690831515021790555060808201518160060160026101000a81548160ff0219169083151502179055509050503373ffffffffffffffffffffffffffffffffffffffff167f1f10437cb6d722f3e8a9e771fcde4fbf82d9fda13bb2666ea9e9eaa0310dadd382604051611e239190612ee9565b60405180910390a2505050505050565b7f876bbbf5907d194533faadcead8cfa42ad0f2b1653cc89d94228f5c04f389a1581565b7fa49807205ce4d355092ef5a8a18f56e8913cf4a201fbe287825b095693c21775611e81816127d1565b611e896127e5565b5f60035f8473ffffffffffffffffffffffffffffffffffffffff1673ffffffffffffffffffffffffffffffffffffffff1681526020019081526020015f2090508060060160019054906101000a900460ff16611f1a576040517f08c379a0000000000000000000000000000000000000000000000000000000008152600401611f1190613837565b60405180910390fd5b5f8160060160016101000a81548160ff0219169083151502179055505f8160060160026101000a81548160ff0219169083151502179055508273ffffffffffffffffffffffffffffffffffffffff167fcd974fc27e84980d07e91443e7189af0cd0dc142c2ab04f1d8af6352de3b625b60405160405180910390a2505050565b60606005805480602002602001604051908101604052809291908181526020015f905b82821015612110578382905f5260205f2090600402016040518060a00160405290815f82015f9054906101000a900473ffffffffffffffffffffffffffffffffffffffff1673ffffffffffffffffffffffffffffffffffffffff1673ffffffffffffffffffffffffffffffffffffffff1681526020016001820154815260200160028201805461204c90613755565b80601f016020809104026020016040519081016040528092919081815260200182805461207890613755565b80156120c35780601f1061209a576101008083540402835291602001916120c3565b820191905f5260205f20905b8154815290600101906020018083116120a657829003601f168201915b50505050508152602001600382015f9054906101000a900460ff161515151581526020016003820160019054906101000a900460ff16151515158152505081526020019060010190611fbd565b50505050905090565b7fa49807205ce4d355092ef5a8a18f56e8913cf4a201fbe287825b095693c21775612143816127d1565b61214b612ceb565b50565b5f805f8481526020019081526020015f205f015f8373ffffffffffffffffffffffffffffffffffffffff1673ffffffffffffffffffffffffffffffffffffffff1681526020019081526020015f205f9054906101000a900460ff16905092915050565b6004602052815f5260405f20602052805f5260405f205f9150915050805f015f9054906101000a900473ffffffffffffffffffffffffffffffffffffffff169080600101549080600201805461220690613755565b80601f016020809104026020016040519081016040528092919081815260200182805461223290613755565b801561227d5780601f106122545761010080835404028352916020019161227d565b820191905f5260205f20905b81548152906001019060200180831161226057829003601f168201915b505050505090806003015f9054906101000a900460ff16908060030160019054906101000a900460ff16905085565b7f329c74013ba5a00a181f8b3dc9d0ae428c8a88ad0625246c0382e31759b580db81565b5f801b81565b7fa49807205ce4d355092ef5a8a18f56e8913cf4a201fbe287825b095693c21775612300816127d1565b6123086127e5565b5f73ffffffffffffffffffffffffffffffffffffffff168373ffffffffffffffffffffffffffffffffffffffff1603612376576040517f08c379a000000000000000000000000000000000000000000000000000000000815260040161236d906137cf565b60405180910390fd5b5f60045f8573ffffffffffffffffffffffffffffffffffffffff1673ffffffffffffffffffffffffffffffffffffffff1681526020019081526020015f205f8481526020019081526020015f209050806003015f9054906101000a900460ff16612415576040517f08c379a000000000000000000000000000000000000000000000000000000000815260040161240c90613837565b60405180910390fd5b5f816003015f6101000a81548160ff0219169083151502179055505f8160030160016101000a81548160ff0219169083151502179055506124568484612a01565b828473ffffffffffffffffffffffffffffffffffffffff167f4b685ab8ace04ef41f36cfa424816013417e507b3c57629fdd55778c2958752760405160405180910390a350505050565b7f1597bc5e34ff090612f53164e4e642d2ab4fc78bffe19ed1b602a0d12559561a81565b6124cd82610f6b565b6124d6816127d1565b6124e08383612918565b50505050565b7fa49807205ce4d355092ef5a8a18f56e8913cf4a201fbe287825b095693c21775612510816127d1565b6125186127e5565b5f60035f8473ffffffffffffffffffffffffffffffffffffffff1673ffffffffffffffffffffffffffffffffffffffff1681526020019081526020015f2090508060060160019054906101000a900460ff166125a9576040517f08c379a00000000000000000000000000000000000000000000000000000000081526004016125a090613837565b60405180910390fd5b5f8160060160016101000a81548160ff02191690831515021790555060018160060160026101000a81548160ff0219169083151502179055508060010160025f8573ffffffffffffffffffffffffffffffffffffffff1673ffffffffffffffffffffffffffffffffffffffff1681526020019081526020015f205f8201815f0190816126359190613d66565b506001820181600101908161264a9190613d66565b506002820181600201908161265f9190613d66565b50600382018160030190816126749190613d66565b50600482015f9054906101000a900473ffffffffffffffffffffffffffffffffffffffff16816004015f6101000a81548173ffffffffffffffffffffffffffffffffffffffff021916908373ffffffffffffffffffffffffffffffffffffffff1602179055509050508273ffffffffffffffffffffffffffffffffffffffff167fb6336ad1e7f2606f8f101b70bcebbb79f8f2d57a54af67e13f196fd0cb5f861e60405160405180910390a28273ffffffffffffffffffffffffffffffffffffffff167fa267530518909239d6d9966f12bf391177dde455b3233f6166ab8cd424f17fd560405160405180910390a2505050565b5f7f01ffc9a7000000000000000000000000000000000000000000000000000000007bffffffffffffffffffffffffffffffffffffffffffffffffffffffff1916827bffffffffffffffffffffffffffffffffffffffffffffffffffffffff1916149050919050565b6127e2816127dd612c83565b612d4c565b50565b6127ed611396565b1561282d576040517f08c379a000000000000000000000000000000000000000000000000000000000815260040161282490613e95565b60405180910390fd5b565b5f61283a838361214e565b61290e5760015f808581526020019081526020015f205f015f8473ffffffffffffffffffffffffffffffffffffffff1673ffffffffffffffffffffffffffffffffffffffff1681526020019081526020015f205f6101000a81548160ff0219169083151502179055506128ab612c83565b73ffffffffffffffffffffffffffffffffffffffff168273ffffffffffffffffffffffffffffffffffffffff16847f2f8788117e7eff1d82e926ec794901d17c78024a50270940304540a733656f0d60405160405180910390a460019050612912565b5f90505b92915050565b5f612923838361214e565b156129f7575f805f8581526020019081526020015f205f015f8473ffffffffffffffffffffffffffffffffffffffff1673ffffffffffffffffffffffffffffffffffffffff1681526020019081526020015f205f6101000a81548160ff021916908315150217905550612994612c83565b73ffffffffffffffffffffffffffffffffffffffff168273ffffffffffffffffffffffffffffffffffffffff16847ff6391f5c32d9c69d2a47ea670b442974b53935d1edc7fd64eb21e047a839171b60405160405180910390a4600190506129fb565b5f90505b92915050565b5f5b600580549050811015612c7e578273ffffffffffffffffffffffffffffffffffffffff1660058281548110612a3b57612a3a613eb3565b5b905f5260205f2090600402015f015f9054906101000a900473ffffffffffffffffffffffffffffffffffffffff1673ffffffffffffffffffffffffffffffffffffffff16148015612aae57508160058281548110612a9c57612a9b613eb3565b5b905f5260205f20906004020160010154145b15612c715760056001600580549050612ac79190613f0d565b81548110612ad857612ad7613eb3565b5b905f5260205f20906004020160058281548110612af857612af7613eb3565b5b905f5260205f2090600402015f82015f9054906101000a900473ffffffffffffffffffffffffffffffffffffffff16815f015f6101000a81548173ffffffffffffffffffffffffffffffffffffffff021916908373ffffffffffffffffffffffffffffffffffffffff1602179055506001820154816001015560028201816002019081612b859190613d66565b50600382015f9054906101000a900460ff16816003015f6101000a81548160ff0219169083151502179055506003820160019054906101000a900460ff168160030160016101000a81548160ff0219169083151502179055509050506005805480612bf357612bf2613f40565b5b600190038181905f5260205f2090600402015f8082015f6101000a81549073ffffffffffffffffffffffffffffffffffffffff0219169055600182015f9055600282015f612c419190612de6565b600382015f6101000a81549060ff02191690556003820160016101000a81549060ff021916905550509055612c7e565b8080600101915050612a03565b505050565b5f33905090565b612c92612d9d565b5f60015f6101000a81548160ff0219169083151502179055507f5db9ee0a495bf2e6ff9c91a7834c1ba4fdd244a5e8aa4e537bd38aeae4b073aa612cd4612c83565b604051612ce19190613f6d565b60405180910390a1565b612cf36127e5565b6001805f6101000a81548160ff0219169083151502179055507f62e78cea01bee320cd4e420270b5ea74000d11b0c9f74754ebdbfc544b05a258612d35612c83565b604051612d429190613f6d565b60405180910390a1565b612d56828261214e565b612d995780826040517fe2517d3f000000000000000000000000000000000000000000000000000000008152600401612d90929190613f86565b60405180910390fd5b5050565b612da5611396565b612de4576040517f08c379a0000000000000000000000000000000000000000000000000000000008152600401612ddb90613ff7565b60405180910390fd5b565b508054612df290613755565b5f825580601f10612e035750612e20565b601f0160209004905f5260205f2090810190612e1f9190612e23565b5b50565b5b80821115612e3a575f815f905550600101612e24565b5090565b5f604051905090565b5f80fd5b5f80fd5b5f7fffffffff0000000000000000000000000000000000000000000000000000000082169050919050565b612e8381612e4f565b8114612e8d575f80fd5b50565b5f81359050612e9e81612e7a565b92915050565b5f60208284031215612eb957612eb8612e47565b5b5f612ec684828501612e90565b91505092915050565b5f8115159050919050565b612ee381612ecf565b82525050565b5f602082019050612efc5f830184612eda565b92915050565b5f73ffffffffffffffffffffffffffffffffffffffff82169050919050565b5f612f2b82612f02565b9050919050565b612f3b81612f21565b8114612f45575f80fd5b50565b5f81359050612f5681612f32565b92915050565b5f60208284031215612f7157612f70612e47565b5b5f612f7e84828501612f48565b91505092915050565b612f9081612f21565b82525050565b5f81519050919050565b5f82825260208201905092915050565b8281835e5f83830152505050565b5f601f19601f8301169050919050565b5f612fd882612f96565b612fe28185612fa0565b9350612ff2818560208601612fb0565b612ffb81612fbe565b840191505092915050565b61300f81612f21565b82525050565b5f60a083015f8301518482035f86015261302f8282612fce565b915050602083015184820360208601526130498282612fce565b915050604083015184820360408601526130638282612fce565b9150506060830151848203606086015261307d8282612fce565b91505060808301516130926080860182613006565b508091505092915050565b5f60a0820190506130b05f830188612f87565b81810360208301526130c28187613015565b90506130d16040830186612eda565b6130de6060830185612eda565b6130eb6080830184612eda565b9695505050505050565b5f819050919050565b613107816130f5565b8114613111575f80fd5b50565b5f81359050613122816130fe565b92915050565b5f806040838503121561313e5761313d612e47565b5b5f61314b85828601612f48565b925050602061315c85828601613114565b9150509250929050565b61316f816130f5565b82525050565b5f82825260208201905092915050565b5f61318f82612f96565b6131998185613175565b93506131a9818560208601612fb0565b6131b281612fbe565b840191505092915050565b5f60a0820190506131d05f830188612f87565b6131dd6020830187613166565b81810360408301526131ef8186613185565b90506131fe6060830185612eda565b61320b6080830184612eda565b9695505050505050565b5f60a0820190508181035f83015261322d8188613185565b905081810360208301526132418187613185565b905081810360408301526132558186613185565b905081810360608301526132698185613185565b90506132786080830184612f87565b9695505050505050565b5f6020828403121561329757613296612e47565b5b5f6132a484828501613114565b91505092915050565b5f6020820190506132c05f830184613166565b92915050565b5f80604083850312156132dc576132db612e47565b5b5f6132e985828601613114565b92505060206132fa85828601612f48565b9150509250929050565b5f819050919050565b61331681613304565b8114613320575f80fd5b50565b5f813590506133318161330d565b92915050565b5f6020828403121561334c5761334b612e47565b5b5f61335984828501613323565b91505092915050565b5f80fd5b5f80fd5b7f4e487b71000000000000000000000000000000000000000000000000000000005f52604160045260245ffd5b6133a082612fbe565b810181811067ffffffffffffffff821117156133bf576133be61336a565b5b80604052505050565b5f6133d1612e3e565b90506133dd8282613397565b919050565b5f67ffffffffffffffff8211156133fc576133fb61336a565b5b61340582612fbe565b9050602081019050919050565b828183375f83830152505050565b5f61343261342d846133e2565b6133c8565b90508281526020810184848401111561344e5761344d613366565b5b613459848285613412565b509392505050565b5f82601f83011261347557613474613362565b5b8135613485848260208601613420565b91505092915050565b5f80604083850312156134a4576134a3612e47565b5b5f6134b185828601613114565b925050602083013567ffffffffffffffff8111156134d2576134d1612e4b565b5b6134de85828601613461565b9150509250929050565b5f805f8060808587031215613500576134ff612e47565b5b5f85013567ffffffffffffffff81111561351d5761351c612e4b565b5b61352987828801613461565b945050602085013567ffffffffffffffff81111561354a57613549612e4b565b5b61355687828801613461565b935050604085013567ffffffffffffffff81111561357757613576612e4b565b5b61358387828801613461565b925050606085013567ffffffffffffffff8111156135a4576135a3612e4b565b5b6135b087828801613461565b91505092959194509250565b5f81519050919050565b5f82825260208201905092915050565b5f819050602082019050919050565b6135ee816130f5565b82525050565b6135fd81612ecf565b82525050565b5f60a083015f8301516136185f860182613006565b50602083015161362b60208601826135e5565b50604083015184820360408601526136438282612fce565b915050606083015161365860608601826135f4565b50608083015161366b60808601826135f4565b508091505092915050565b5f6136818383613603565b905092915050565b5f602082019050919050565b5f61369f826135bc565b6136a981856135c6565b9350836020820285016136bb856135d6565b805f5b858110156136f657848403895281516136d78582613676565b94506136e283613689565b925060208a019950506001810190506136be565b50829750879550505050505092915050565b5f6020820190508181035f8301526137208184613695565b905092915050565b7f4e487b71000000000000000000000000000000000000000000000000000000005f52602260045260245ffd5b5f600282049050600182168061376c57607f821691505b60208210810361377f5761377e613728565b5b50919050565b7f496e76616c6964206164647265737300000000000000000000000000000000005f82015250565b5f6137b9600f83613175565b91506137c482613785565b602082019050919050565b5f6020820190508181035f8301526137e6816137ad565b9050919050565b7f4e6f2070656e64696e67207265717565737400000000000000000000000000005f82015250565b5f613821601283613175565b915061382c826137ed565b602082019050919050565b5f6020820190508181035f83015261384e81613815565b9050919050565b7f416c72656164792068617320726f6c65000000000000000000000000000000005f82015250565b5f613889601083613175565b915061389482613855565b602082019050919050565b5f6020820190508181035f8301526138b68161387d565b9050919050565b7f526561736f6e20726571756972656400000000000000000000000000000000005f82015250565b5f6138f1600f83613175565b91506138fc826138bd565b602082019050919050565b5f6020820190508181035f83015261391e816138e5565b9050919050565b7f5265717565737420616c72656164792070656e64696e670000000000000000005f82015250565b5f613959601783613175565b915061396482613925565b602082019050919050565b5f6020820190508181035f8301526139868161394d565b9050919050565b5f819050815f5260205f209050919050565b5f6020601f8301049050919050565b5f82821b905092915050565b5f600883026139e97fffffffffffffffffffffffffffffffffffffffffffffffffffffffffffffffff826139ae565b6139f386836139ae565b95508019841693508086168417925050509392505050565b5f819050919050565b5f613a2e613a29613a2484613304565b613a0b565b613304565b9050919050565b5f819050919050565b613a4783613a14565b613a5b613a5382613a35565b8484546139ba565b825550505050565b5f90565b613a6f613a63565b613a7a818484613a3e565b505050565b5b81811015613a9d57613a925f82613a67565b600181019050613a80565b5050565b601f821115613ae257613ab38161398d565b613abc8461399f565b81016020851015613acb578190505b613adf613ad78561399f565b830182613a7f565b50505b505050565b5f82821c905092915050565b5f613b025f1984600802613ae7565b1980831691505092915050565b5f613b1a8383613af3565b9150826002028217905092915050565b613b3382612f96565b67ffffffffffffffff811115613b4c57613b4b61336a565b5b613b568254613755565b613b61828285613aa1565b5f60209050601f831160018114613b92575f8415613b80578287015190505b613b8a8582613b0f565b865550613bf1565b601f198416613ba08661398d565b5f5b82811015613bc757848901518255600182019150602085019450602081019050613ba2565b86831015613be45784890151613be0601f891682613af3565b8355505b6001600288020188555050505b505050505050565b5f6020820190508181035f830152613c118184613185565b905092915050565b7f4669727374206e616d65207265717569726564000000000000000000000000005f82015250565b5f613c4d601383613175565b9150613c5882613c19565b602082019050919050565b5f6020820190508181035f830152613c7a81613c41565b9050919050565b7f4c617374206e616d6520726571756972656400000000000000000000000000005f82015250565b5f613cb5601283613175565b9150613cc082613c81565b602082019050919050565b5f6020820190508181035f830152613ce281613ca9565b9050919050565b7f456d61696c2072657175697265640000000000000000000000000000000000005f82015250565b5f613d1d600e83613175565b9150613d2882613ce9565b602082019050919050565b5f6020820190508181035f830152613d4a81613d11565b9050919050565b5f81549050613d5f81613755565b9050919050565b818103613d74575050613e49565b613d7d82613d51565b67ffffffffffffffff811115613d9657613d9561336a565b5b613da08254613755565b613dab828285613aa1565b5f601f831160018114613dd8575f8415613dc6578287015490505b613dd08582613b0f565b865550613e42565b601f198416613de68761398d565b9650613df18661398d565b5f5b82811015613e1857848901548255600182019150600185019450602081019050613df3565b86831015613e355784890154613e31601f891682613af3565b8355505b6001600288020188555050505b5050505050505b565b7f5061757361626c653a20706175736564000000000000000000000000000000005f82015250565b5f613e7f601083613175565b9150613e8a82613e4b565b602082019050919050565b5f6020820190508181035f830152613eac81613e73565b9050919050565b7f4e487b71000000000000000000000000000000000000000000000000000000005f52603260045260245ffd5b7f4e487b71000000000000000000000000000000000000000000000000000000005f52601160045260245ffd5b5f613f1782613304565b9150613f2283613304565b9250828203905081811115613f3a57613f39613ee0565b5b92915050565b7f4e487b71000000000000000000000000000000000000000000000000000000005f52603160045260245ffd5b5f602082019050613f805f830184612f87565b92915050565b5f604082019050613f995f830185612f87565b613fa66020830184613166565b9392505050565b7f5061757361626c653a206e6f74207061757365640000000000000000000000005f82015250565b5f613fe1601483613175565b9150613fec82613fad565b602082019050919050565b5f6020820190508181035f83015261400e81613fd5565b905091905056fea2646970667358221220063b1be84c8a0356404257a42222a6480403926ffb9c7d33b755da72a54dd7aa64736f6c634300081a0033",
			"opcodes": "PUSH1 0x80 PUSH1 0x40 MSTORE CALLVALUE DUP1 ISZERO PUSH2 0xF JUMPI PUSH0 DUP1 REVERT JUMPDEST POP PUSH0 PUSH1 0x1 PUSH0 PUSH2 0x100 EXP DUP2 SLOAD DUP2 PUSH1 0xFF MUL NOT AND SWAP1 DUP4 ISZERO ISZERO MUL OR SWAP1 SSTORE POP PUSH2 0x3B PUSH0 DUP1 SHL CALLER PUSH2 0x72 PUSH1 0x20 SHL PUSH1 0x20 SHR JUMP JUMPDEST POP PUSH2 0x6C PUSH32 0xA49807205CE4D355092EF5A8A18F56E8913CF4A201FBE287825B095693C21775 CALLER PUSH2 0x72 PUSH1 0x20 SHL PUSH1 0x20 SHR JUMP JUMPDEST POP PUSH2 0x1D1 JUMP JUMPDEST PUSH0 PUSH2 0x83 DUP4 DUP4 PUSH2 0x167 PUSH1 0x20 SHL PUSH1 0x20 SHR JUMP JUMPDEST PUSH2 0x15D JUMPI PUSH1 0x1 PUSH0 DUP1 DUP6 DUP2 MSTORE PUSH1 0x20 ADD SWAP1 DUP2 MSTORE PUSH1 0x20 ADD PUSH0 KECCAK256 PUSH0 ADD PUSH0 DUP5 PUSH20 0xFFFFFFFFFFFFFFFFFFFFFFFFFFFFFFFFFFFFFFFF AND PUSH20 0xFFFFFFFFFFFFFFFFFFFFFFFFFFFFFFFFFFFFFFFF AND DUP2 MSTORE PUSH1 0x20 ADD SWAP1 DUP2 MSTORE PUSH1 0x20 ADD PUSH0 KECCAK256 PUSH0 PUSH2 0x100 EXP DUP2 SLOAD DUP2 PUSH1 0xFF MUL NOT AND SWAP1 DUP4 ISZERO ISZERO MUL OR SWAP1 SSTORE POP PUSH2 0xFA PUSH2 0x1CA PUSH1 0x20 SHL PUSH1 0x20 SHR JUMP JUMPDEST PUSH20 0xFFFFFFFFFFFFFFFFFFFFFFFFFFFFFFFFFFFFFFFF AND DUP3 PUSH20 0xFFFFFFFFFFFFFFFFFFFFFFFFFFFFFFFFFFFFFFFF AND DUP5 PUSH32 0x2F8788117E7EFF1D82E926EC794901D17C78024A50270940304540A733656F0D PUSH1 0x40 MLOAD PUSH1 0x40 MLOAD DUP1 SWAP2 SUB SWAP1 LOG4 PUSH1 0x1 SWAP1 POP PUSH2 0x161 JUMP JUMPDEST PUSH0 SWAP1 POP JUMPDEST SWAP3 SWAP2 POP POP JUMP JUMPDEST PUSH0 DUP1 PUSH0 DUP5 DUP2 MSTORE PUSH1 0x20 ADD SWAP1 DUP2 MSTORE PUSH1 0x20 ADD PUSH0 KECCAK256 PUSH0 ADD PUSH0 DUP4 PUSH20 0xFFFFFFFFFFFFFFFFFFFFFFFFFFFFFFFFFFFFFFFF AND PUSH20 0xFFFFFFFFFFFFFFFFFFFFFFFFFFFFFFFFFFFFFFFF AND DUP2 MSTORE PUSH1 0x20 ADD SWAP1 DUP2 MSTORE PUSH1 0x20 ADD PUSH0 KECCAK256 PUSH0 SWAP1 SLOAD SWAP1 PUSH2 0x100 EXP SWAP1 DIV PUSH1 0xFF AND SWAP1 POP SWAP3 SWAP2 POP POP JUMP JUMPDEST PUSH0 CALLER SWAP1 POP SWAP1 JUMP JUMPDEST PUSH2 0x404B DUP1 PUSH2 0x1DE PUSH0 CODECOPY PUSH0 RETURN INVALID PUSH1 0x80 PUSH1 0x40 MSTORE CALLVALUE DUP1 ISZERO PUSH2 0xF JUMPI PUSH0 DUP1 REVERT JUMPDEST POP PUSH1 0x4 CALLDATASIZE LT PUSH2 0x1D8 JUMPI PUSH0 CALLDATALOAD PUSH1 0xE0 SHR DUP1 PUSH4 0x75B238FC GT PUSH2 0x102 JUMPI DUP1 PUSH4 0x91D14854 GT PUSH2 0xA0 JUMPI DUP1 PUSH4 0xBD605121 GT PUSH2 0x6F JUMPI DUP1 PUSH4 0xBD605121 EQ PUSH2 0x56A JUMPI DUP1 PUSH4 0xC2D79444 EQ PUSH2 0x586 JUMPI DUP1 PUSH4 0xD547741F EQ PUSH2 0x5A4 JUMPI DUP1 PUSH4 0xFA90ACE3 EQ PUSH2 0x5C0 JUMPI PUSH2 0x1D8 JUMP JUMPDEST DUP1 PUSH4 0x91D14854 EQ PUSH2 0x4CA JUMPI DUP1 PUSH4 0x9411CA46 EQ PUSH2 0x4FA JUMPI DUP1 PUSH4 0x98E4ABB5 EQ PUSH2 0x52E JUMPI DUP1 PUSH4 0xA217FDDF EQ PUSH2 0x54C JUMPI PUSH2 0x1D8 JUMP JUMPDEST DUP1 PUSH4 0x78988EBD GT PUSH2 0xDC JUMPI DUP1 PUSH4 0x78988EBD EQ PUSH2 0x468 JUMPI DUP1 PUSH4 0x7E75D956 EQ PUSH2 0x486 JUMPI DUP1 PUSH4 0x80A1F712 EQ PUSH2 0x4A2 JUMPI DUP1 PUSH4 0x8456CB59 EQ PUSH2 0x4C0 JUMPI PUSH2 0x1D8 JUMP JUMPDEST DUP1 PUSH4 0x75B238FC EQ PUSH2 0x412 JUMPI DUP1 PUSH4 0x768B01AA EQ PUSH2 0x430 JUMPI DUP1 PUSH4 0x78426848 EQ PUSH2 0x44C JUMPI PUSH2 0x1D8 JUMP JUMPDEST DUP1 PUSH4 0x25DF448C GT PUSH2 0x17A JUMPI DUP1 PUSH4 0x3C652A9A GT PUSH2 0x149 JUMPI DUP1 PUSH4 0x3C652A9A EQ PUSH2 0x382 JUMPI DUP1 PUSH4 0x3F4BA83A EQ PUSH2 0x3B6 JUMPI DUP1 PUSH4 0x5C975ABB EQ PUSH2 0x3C0 JUMPI DUP1 PUSH4 0x6386C1C7 EQ PUSH2 0x3DE JUMPI PUSH2 0x1D8 JUMP JUMPDEST DUP1 PUSH4 0x25DF448C EQ PUSH2 0x310 JUMPI DUP1 PUSH4 0x2F2FF15D EQ PUSH2 0x32C JUMPI DUP1 PUSH4 0x303E3840 EQ PUSH2 0x348 JUMPI DUP1 PUSH4 0x36568ABE EQ PUSH2 0x366 JUMPI PUSH2 0x1D8 JUMP JUMPDEST DUP1 PUSH4 0x1959A002 GT PUSH2 0x1B6 JUMPI DUP1 PUSH4 0x1959A002 EQ PUSH2 0x274 JUMPI DUP1 PUSH4 0x1D9486DE EQ PUSH2 0x2A8 JUMPI DUP1 PUSH4 0x208DD1FF EQ PUSH2 0x2C4 JUMPI DUP1 PUSH4 0x248A9CA3 EQ PUSH2 0x2E0 JUMPI PUSH2 0x1D8 JUMP JUMPDEST DUP1 PUSH4 0x1FFC9A7 EQ PUSH2 0x1DC JUMPI DUP1 PUSH4 0x95C6E02 EQ PUSH2 0x20C JUMPI DUP1 PUSH4 0x18097B69 EQ PUSH2 0x240 JUMPI JUMPDEST PUSH0 DUP1 REVERT JUMPDEST PUSH2 0x1F6 PUSH1 0x4 DUP1 CALLDATASIZE SUB DUP2 ADD SWAP1 PUSH2 0x1F1 SWAP2 SWAP1 PUSH2 0x2EA4 JUMP JUMPDEST PUSH2 0x5DC JUMP JUMPDEST PUSH1 0x40 MLOAD PUSH2 0x203 SWAP2 SWAP1 PUSH2 0x2EE9 JUMP JUMPDEST PUSH1 0x40 MLOAD DUP1 SWAP2 SUB SWAP1 RETURN JUMPDEST PUSH2 0x226 PUSH1 0x4 DUP1 CALLDATASIZE SUB DUP2 ADD SWAP1 PUSH2 0x221 SWAP2 SWAP1 PUSH2 0x2F5C JUMP JUMPDEST PUSH2 0x655 JUMP JUMPDEST PUSH1 0x40 MLOAD PUSH2 0x237 SWAP6 SWAP5 SWAP4 SWAP3 SWAP2 SWAP1 PUSH2 0x309D JUMP JUMPDEST PUSH1 0x40 MLOAD DUP1 SWAP2 SUB SWAP1 RETURN JUMPDEST PUSH2 0x25A PUSH1 0x4 DUP1 CALLDATASIZE SUB DUP2 ADD SWAP1 PUSH2 0x255 SWAP2 SWAP1 PUSH2 0x3128 JUMP JUMPDEST PUSH2 0x96A JUMP JUMPDEST PUSH1 0x40 MLOAD PUSH2 0x26B SWAP6 SWAP5 SWAP4 SWAP3 SWAP2 SWAP1 PUSH2 0x31BD JUMP JUMPDEST PUSH1 0x40 MLOAD DUP1 SWAP2 SUB SWAP1 RETURN JUMPDEST PUSH2 0x28E PUSH1 0x4 DUP1 CALLDATASIZE SUB DUP2 ADD SWAP1 PUSH2 0x289 SWAP2 SWAP1 PUSH2 0x2F5C JUMP JUMPDEST PUSH2 0xB1A JUMP JUMPDEST PUSH1 0x40 MLOAD PUSH2 0x29F SWAP6 SWAP5 SWAP4 SWAP3 SWAP2 SWAP1 PUSH2 0x3215 JUMP JUMPDEST PUSH1 0x40 MLOAD DUP1 SWAP2 SUB SWAP1 RETURN JUMPDEST PUSH2 0x2C2 PUSH1 0x4 DUP1 CALLDATASIZE SUB DUP2 ADD SWAP1 PUSH2 0x2BD SWAP2 SWAP1 PUSH2 0x3128 JUMP JUMPDEST PUSH2 0xD83 JUMP JUMPDEST STOP JUMPDEST PUSH2 0x2DE PUSH1 0x4 DUP1 CALLDATASIZE SUB DUP2 ADD SWAP1 PUSH2 0x2D9 SWAP2 SWAP1 PUSH2 0x3128 JUMP JUMPDEST PUSH2 0xE77 JUMP JUMPDEST STOP JUMPDEST PUSH2 0x2FA PUSH1 0x4 DUP1 CALLDATASIZE SUB DUP2 ADD SWAP1 PUSH2 0x2F5 SWAP2 SWAP1 PUSH2 0x3282 JUMP JUMPDEST PUSH2 0xF6B JUMP JUMPDEST PUSH1 0x40 MLOAD PUSH2 0x307 SWAP2 SWAP1 PUSH2 0x32AD JUMP JUMPDEST PUSH1 0x40 MLOAD DUP1 SWAP2 SUB SWAP1 RETURN JUMPDEST PUSH2 0x32A PUSH1 0x4 DUP1 CALLDATASIZE SUB DUP2 ADD SWAP1 PUSH2 0x325 SWAP2 SWAP1 PUSH2 0x3128 JUMP JUMPDEST PUSH2 0xF87 JUMP JUMPDEST STOP JUMPDEST PUSH2 0x346 PUSH1 0x4 DUP1 CALLDATASIZE SUB DUP2 ADD SWAP1 PUSH2 0x341 SWAP2 SWAP1 PUSH2 0x32C6 JUMP JUMPDEST PUSH2 0x11A1 JUMP JUMPDEST STOP JUMPDEST PUSH2 0x350 PUSH2 0x11C3 JUMP JUMPDEST PUSH1 0x40 MLOAD PUSH2 0x35D SWAP2 SWAP1 PUSH2 0x32AD JUMP JUMPDEST PUSH1 0x40 MLOAD DUP1 SWAP2 SUB SWAP1 RETURN JUMPDEST PUSH2 0x380 PUSH1 0x4 DUP1 CALLDATASIZE SUB DUP2 ADD SWAP1 PUSH2 0x37B SWAP2 SWAP1 PUSH2 0x32C6 JUMP JUMPDEST PUSH2 0x11E7 JUMP JUMPDEST STOP JUMPDEST PUSH2 0x39C PUSH1 0x4 DUP1 CALLDATASIZE SUB DUP2 ADD SWAP1 PUSH2 0x397 SWAP2 SWAP1 PUSH2 0x3337 JUMP JUMPDEST PUSH2 0x1262 JUMP JUMPDEST PUSH1 0x40 MLOAD PUSH2 0x3AD SWAP6 SWAP5 SWAP4 SWAP3 SWAP2 SWAP1 PUSH2 0x31BD JUMP JUMPDEST PUSH1 0x40 MLOAD DUP1 SWAP2 SUB SWAP1 RETURN JUMPDEST PUSH2 0x3BE PUSH2 0x1361 JUMP JUMPDEST STOP JUMPDEST PUSH2 0x3C8 PUSH2 0x1396 JUMP JUMPDEST PUSH1 0x40 MLOAD PUSH2 0x3D5 SWAP2 SWAP1 PUSH2 0x2EE9 JUMP JUMPDEST PUSH1 0x40 MLOAD DUP1 SWAP2 SUB SWAP1 RETURN JUMPDEST PUSH2 0x3F8 PUSH1 0x4 DUP1 CALLDATASIZE SUB DUP2 ADD SWAP1 PUSH2 0x3F3 SWAP2 SWAP1 PUSH2 0x2F5C JUMP JUMPDEST PUSH2 0x13AB JUMP JUMPDEST PUSH1 0x40 MLOAD PUSH2 0x409 SWAP6 SWAP5 SWAP4 SWAP3 SWAP2 SWAP1 PUSH2 0x3215 JUMP JUMPDEST PUSH1 0x40 MLOAD DUP1 SWAP2 SUB SWAP1 RETURN JUMPDEST PUSH2 0x41A PUSH2 0x16BD JUMP JUMPDEST PUSH1 0x40 MLOAD PUSH2 0x427 SWAP2 SWAP1 PUSH2 0x32AD JUMP JUMPDEST PUSH1 0x40 MLOAD DUP1 SWAP2 SUB SWAP1 RETURN JUMPDEST PUSH2 0x44A PUSH1 0x4 DUP1 CALLDATASIZE SUB DUP2 ADD SWAP1 PUSH2 0x445 SWAP2 SWAP1 PUSH2 0x348E JUMP JUMPDEST PUSH2 0x16E1 JUMP JUMPDEST STOP JUMPDEST PUSH2 0x466 PUSH1 0x4 DUP1 CALLDATASIZE SUB DUP2 ADD SWAP1 PUSH2 0x461 SWAP2 SWAP1 PUSH2 0x34E8 JUMP JUMPDEST PUSH2 0x1A6C JUMP JUMPDEST STOP JUMPDEST PUSH2 0x470 PUSH2 0x1E33 JUMP JUMPDEST PUSH1 0x40 MLOAD PUSH2 0x47D SWAP2 SWAP1 PUSH2 0x32AD JUMP JUMPDEST PUSH1 0x40 MLOAD DUP1 SWAP2 SUB SWAP1 RETURN JUMPDEST PUSH2 0x4A0 PUSH1 0x4 DUP1 CALLDATASIZE SUB DUP2 ADD SWAP1 PUSH2 0x49B SWAP2 SWAP1 PUSH2 0x2F5C JUMP JUMPDEST PUSH2 0x1E57 JUMP JUMPDEST STOP JUMPDEST PUSH2 0x4AA PUSH2 0x1F9A JUMP JUMPDEST PUSH1 0x40 MLOAD PUSH2 0x4B7 SWAP2 SWAP1 PUSH2 0x3708 JUMP JUMPDEST PUSH1 0x40 MLOAD DUP1 SWAP2 SUB SWAP1 RETURN JUMPDEST PUSH2 0x4C8 PUSH2 0x2119 JUMP JUMPDEST STOP JUMPDEST PUSH2 0x4E4 PUSH1 0x4 DUP1 CALLDATASIZE SUB DUP2 ADD SWAP1 PUSH2 0x4DF SWAP2 SWAP1 PUSH2 0x32C6 JUMP JUMPDEST PUSH2 0x214E JUMP JUMPDEST PUSH1 0x40 MLOAD PUSH2 0x4F1 SWAP2 SWAP1 PUSH2 0x2EE9 JUMP JUMPDEST PUSH1 0x40 MLOAD DUP1 SWAP2 SUB SWAP1 RETURN JUMPDEST PUSH2 0x514 PUSH1 0x4 DUP1 CALLDATASIZE SUB DUP2 ADD SWAP1 PUSH2 0x50F SWAP2 SWAP1 PUSH2 0x3128 JUMP JUMPDEST PUSH2 0x21B1 JUMP JUMPDEST PUSH1 0x40 MLOAD PUSH2 0x525 SWAP6 SWAP5 SWAP4 SWAP3 SWAP2 SWAP1 PUSH2 0x31BD JUMP JUMPDEST PUSH1 0x40 MLOAD DUP1 SWAP2 SUB SWAP1 RETURN JUMPDEST PUSH2 0x536 PUSH2 0x22AC JUMP JUMPDEST PUSH1 0x40 MLOAD PUSH2 0x543 SWAP2 SWAP1 PUSH2 0x32AD JUMP JUMPDEST PUSH1 0x40 MLOAD DUP1 SWAP2 SUB SWAP1 RETURN JUMPDEST PUSH2 0x554 PUSH2 0x22D0 JUMP JUMPDEST PUSH1 0x40 MLOAD PUSH2 0x561 SWAP2 SWAP1 PUSH2 0x32AD JUMP JUMPDEST PUSH1 0x40 MLOAD DUP1 SWAP2 SUB SWAP1 RETURN JUMPDEST PUSH2 0x584 PUSH1 0x4 DUP1 CALLDATASIZE SUB DUP2 ADD SWAP1 PUSH2 0x57F SWAP2 SWAP1 PUSH2 0x3128 JUMP JUMPDEST PUSH2 0x22D6 JUMP JUMPDEST STOP JUMPDEST PUSH2 0x58E PUSH2 0x24A0 JUMP JUMPDEST PUSH1 0x40 MLOAD PUSH2 0x59B SWAP2 SWAP1 PUSH2 0x32AD JUMP JUMPDEST PUSH1 0x40 MLOAD DUP1 SWAP2 SUB SWAP1 RETURN JUMPDEST PUSH2 0x5BE PUSH1 0x4 DUP1 CALLDATASIZE SUB DUP2 ADD SWAP1 PUSH2 0x5B9 SWAP2 SWAP1 PUSH2 0x32C6 JUMP JUMPDEST PUSH2 0x24C4 JUMP JUMPDEST STOP JUMPDEST PUSH2 0x5DA PUSH1 0x4 DUP1 CALLDATASIZE SUB DUP2 ADD SWAP1 PUSH2 0x5D5 SWAP2 SWAP1 PUSH2 0x2F5C JUMP JUMPDEST PUSH2 0x24E6 JUMP JUMPDEST STOP JUMPDEST PUSH0 PUSH32 0x7965DB0B00000000000000000000000000000000000000000000000000000000 PUSH28 0xFFFFFFFFFFFFFFFFFFFFFFFFFFFFFFFFFFFFFFFFFFFFFFFFFFFFFFFF NOT AND DUP3 PUSH28 0xFFFFFFFFFFFFFFFFFFFFFFFFFFFFFFFFFFFFFFFFFFFFFFFFFFFFFFFF NOT AND EQ DUP1 PUSH2 0x64E JUMPI POP PUSH2 0x64D DUP3 PUSH2 0x2768 JUMP JUMPDEST JUMPDEST SWAP1 POP SWAP2 SWAP1 POP JUMP JUMPDEST PUSH1 0x3 PUSH1 0x20 MSTORE DUP1 PUSH0 MSTORE PUSH1 0x40 PUSH0 KECCAK256 PUSH0 SWAP2 POP SWAP1 POP DUP1 PUSH0 ADD PUSH0 SWAP1 SLOAD SWAP1 PUSH2 0x100 EXP SWAP1 DIV PUSH20 0xFFFFFFFFFFFFFFFFFFFFFFFFFFFFFFFFFFFFFFFF AND SWAP1 DUP1 PUSH1 0x1 ADD PUSH1 0x40 MLOAD DUP1 PUSH1 0xA0 ADD PUSH1 0x40 MSTORE SWAP1 DUP2 PUSH0 DUP3 ADD DUP1 SLOAD PUSH2 0x6A8 SWAP1 PUSH2 0x3755 JUMP JUMPDEST DUP1 PUSH1 0x1F ADD PUSH1 0x20 DUP1 SWAP2 DIV MUL PUSH1 0x20 ADD PUSH1 0x40 MLOAD SWAP1 DUP2 ADD PUSH1 0x40 MSTORE DUP1 SWAP3 SWAP2 SWAP1 DUP2 DUP2 MSTORE PUSH1 0x20 ADD DUP3 DUP1 SLOAD PUSH2 0x6D4 SWAP1 PUSH2 0x3755 JUMP JUMPDEST DUP1 ISZERO PUSH2 0x71F JUMPI DUP1 PUSH1 0x1F LT PUSH2 0x6F6 JUMPI PUSH2 0x100 DUP1 DUP4 SLOAD DIV MUL DUP4 MSTORE SWAP2 PUSH1 0x20 ADD SWAP2 PUSH2 0x71F JUMP JUMPDEST DUP3 ADD SWAP2 SWAP1 PUSH0 MSTORE PUSH1 0x20 PUSH0 KECCAK256 SWAP1 JUMPDEST DUP2 SLOAD DUP2 MSTORE SWAP1 PUSH1 0x1 ADD SWAP1 PUSH1 0x20 ADD DUP1 DUP4 GT PUSH2 0x702 JUMPI DUP3 SWAP1 SUB PUSH1 0x1F AND DUP3 ADD SWAP2 JUMPDEST POP POP POP POP POP DUP2 MSTORE PUSH1 0x20 ADD PUSH1 0x1 DUP3 ADD DUP1 SLOAD PUSH2 0x738 SWAP1 PUSH2 0x3755 JUMP JUMPDEST DUP1 PUSH1 0x1F ADD PUSH1 0x20 DUP1 SWAP2 DIV MUL PUSH1 0x20 ADD PUSH1 0x40 MLOAD SWAP1 DUP2 ADD PUSH1 0x40 MSTORE DUP1 SWAP3 SWAP2 SWAP1 DUP2 DUP2 MSTORE PUSH1 0x20 ADD DUP3 DUP1 SLOAD PUSH2 0x764 SWAP1 PUSH2 0x3755 JUMP JUMPDEST DUP1 ISZERO PUSH2 0x7AF JUMPI DUP1 PUSH1 0x1F LT PUSH2 0x786 JUMPI PUSH2 0x100 DUP1 DUP4 SLOAD DIV MUL DUP4 MSTORE SWAP2 PUSH1 0x20 ADD SWAP2 PUSH2 0x7AF JUMP JUMPDEST DUP3 ADD SWAP2 SWAP1 PUSH0 MSTORE PUSH1 0x20 PUSH0 KECCAK256 SWAP1 JUMPDEST DUP2 SLOAD DUP2 MSTORE SWAP1 PUSH1 0x1 ADD SWAP1 PUSH1 0x20 ADD DUP1 DUP4 GT PUSH2 0x792 JUMPI DUP3 SWAP1 SUB PUSH1 0x1F AND DUP3 ADD SWAP2 JUMPDEST POP POP POP POP POP DUP2 MSTORE PUSH1 0x20 ADD PUSH1 0x2 DUP3 ADD DUP1 SLOAD PUSH2 0x7C8 SWAP1 PUSH2 0x3755 JUMP JUMPDEST DUP1 PUSH1 0x1F ADD PUSH1 0x20 DUP1 SWAP2 DIV MUL PUSH1 0x20 ADD PUSH1 0x40 MLOAD SWAP1 DUP2 ADD PUSH1 0x40 MSTORE DUP1 SWAP3 SWAP2 SWAP1 DUP2 DUP2 MSTORE PUSH1 0x20 ADD DUP3 DUP1 SLOAD PUSH2 0x7F4 SWAP1 PUSH2 0x3755 JUMP JUMPDEST DUP1 ISZERO PUSH2 0x83F JUMPI DUP1 PUSH1 0x1F LT PUSH2 0x816 JUMPI PUSH2 0x100 DUP1 DUP4 SLOAD DIV MUL DUP4 MSTORE SWAP2 PUSH1 0x20 ADD SWAP2 PUSH2 0x83F JUMP JUMPDEST DUP3 ADD SWAP2 SWAP1 PUSH0 MSTORE PUSH1 0x20 PUSH0 KECCAK256 SWAP1 JUMPDEST DUP2 SLOAD DUP2 MSTORE SWAP1 PUSH1 0x1 ADD SWAP1 PUSH1 0x20 ADD DUP1 DUP4 GT PUSH2 0x822 JUMPI DUP3 SWAP1 SUB PUSH1 0x1F AND DUP3 ADD SWAP2 JUMPDEST POP POP POP POP POP DUP2 MSTORE PUSH1 0x20 ADD PUSH1 0x3 DUP3 ADD DUP1 SLOAD PUSH2 0x858 SWAP1 PUSH2 0x3755 JUMP JUMPDEST DUP1 PUSH1 0x1F ADD PUSH1 0x20 DUP1 SWAP2 DIV MUL PUSH1 0x20 ADD PUSH1 0x40 MLOAD SWAP1 DUP2 ADD PUSH1 0x40 MSTORE DUP1 SWAP3 SWAP2 SWAP1 DUP2 DUP2 MSTORE PUSH1 0x20 ADD DUP3 DUP1 SLOAD PUSH2 0x884 SWAP1 PUSH2 0x3755 JUMP JUMPDEST DUP1 ISZERO PUSH2 0x8CF JUMPI DUP1 PUSH1 0x1F LT PUSH2 0x8A6 JUMPI PUSH2 0x100 DUP1 DUP4 SLOAD DIV MUL DUP4 MSTORE SWAP2 PUSH1 0x20 ADD SWAP2 PUSH2 0x8CF JUMP JUMPDEST DUP3 ADD SWAP2 SWAP1 PUSH0 MSTORE PUSH1 0x20 PUSH0 KECCAK256 SWAP1 JUMPDEST DUP2 SLOAD DUP2 MSTORE SWAP1 PUSH1 0x1 ADD SWAP1 PUSH1 0x20 ADD DUP1 DUP4 GT PUSH2 0x8B2 JUMPI DUP3 SWAP1 SUB PUSH1 0x1F AND DUP3 ADD SWAP2 JUMPDEST POP POP POP POP POP DUP2 MSTORE PUSH1 0x20 ADD PUSH1 0x4 DUP3 ADD PUSH0 SWAP1 SLOAD SWAP1 PUSH2 0x100 EXP SWAP1 DIV PUSH20 0xFFFFFFFFFFFFFFFFFFFFFFFFFFFFFFFFFFFFFFFF AND PUSH20 0xFFFFFFFFFFFFFFFFFFFFFFFFFFFFFFFFFFFFFFFF AND PUSH20 0xFFFFFFFFFFFFFFFFFFFFFFFFFFFFFFFFFFFFFFFF AND DUP2 MSTORE POP POP SWAP1 DUP1 PUSH1 0x6 ADD PUSH0 SWAP1 SLOAD SWAP1 PUSH2 0x100 EXP SWAP1 DIV PUSH1 0xFF AND SWAP1 DUP1 PUSH1 0x6 ADD PUSH1 0x1 SWAP1 SLOAD SWAP1 PUSH2 0x100 EXP SWAP1 DIV PUSH1 0xFF AND SWAP1 DUP1 PUSH1 0x6 ADD PUSH1 0x2 SWAP1 SLOAD SWAP1 PUSH2 0x100 EXP SWAP1 DIV PUSH1 0xFF AND SWAP1 POP DUP6 JUMP JUMPDEST PUSH0 DUP1 PUSH1 0x60 PUSH0 DUP1 PUSH0 PUSH1 0x4 PUSH0 DUP10 PUSH20 0xFFFFFFFFFFFFFFFFFFFFFFFFFFFFFFFFFFFFFFFF AND PUSH20 0xFFFFFFFFFFFFFFFFFFFFFFFFFFFFFFFFFFFFFFFF AND DUP2 MSTORE PUSH1 0x20 ADD SWAP1 DUP2 MSTORE PUSH1 0x20 ADD PUSH0 KECCAK256 PUSH0 DUP9 DUP2 MSTORE PUSH1 0x20 ADD SWAP1 DUP2 MSTORE PUSH1 0x20 ADD PUSH0 KECCAK256 PUSH1 0x40 MLOAD DUP1 PUSH1 0xA0 ADD PUSH1 0x40 MSTORE SWAP1 DUP2 PUSH0 DUP3 ADD PUSH0 SWAP1 SLOAD SWAP1 PUSH2 0x100 EXP SWAP1 DIV PUSH20 0xFFFFFFFFFFFFFFFFFFFFFFFFFFFFFFFFFFFFFFFF AND PUSH20 0xFFFFFFFFFFFFFFFFFFFFFFFFFFFFFFFFFFFFFFFF AND PUSH20 0xFFFFFFFFFFFFFFFFFFFFFFFFFFFFFFFFFFFFFFFF AND DUP2 MSTORE PUSH1 0x20 ADD PUSH1 0x1 DUP3 ADD SLOAD DUP2 MSTORE PUSH1 0x20 ADD PUSH1 0x2 DUP3 ADD DUP1 SLOAD PUSH2 0xA36 SWAP1 PUSH2 0x3755 JUMP JUMPDEST DUP1 PUSH1 0x1F ADD PUSH1 0x20 DUP1 SWAP2 DIV MUL PUSH1 0x20 ADD PUSH1 0x40 MLOAD SWAP1 DUP2 ADD PUSH1 0x40 MSTORE DUP1 SWAP3 SWAP2 SWAP1 DUP2 DUP2 MSTORE PUSH1 0x20 ADD DUP3 DUP1 SLOAD PUSH2 0xA62 SWAP1 PUSH2 0x3755 JUMP JUMPDEST DUP1 ISZERO PUSH2 0xAAD JUMPI DUP1 PUSH1 0x1F LT PUSH2 0xA84 JUMPI PUSH2 0x100 DUP1 DUP4 SLOAD DIV MUL DUP4 MSTORE SWAP2 PUSH1 0x20 ADD SWAP2 PUSH2 0xAAD JUMP JUMPDEST DUP3 ADD SWAP2 SWAP1 PUSH0 MSTORE PUSH1 0x20 PUSH0 KECCAK256 SWAP1 JUMPDEST DUP2 SLOAD DUP2 MSTORE SWAP1 PUSH1 0x1 ADD SWAP1 PUSH1 0x20 ADD DUP1 DUP4 GT PUSH2 0xA90 JUMPI DUP3 SWAP1 SUB PUSH1 0x1F AND DUP3 ADD SWAP2 JUMPDEST POP POP POP POP POP DUP2 MSTORE PUSH1 0x20 ADD PUSH1 0x3 DUP3 ADD PUSH0 SWAP1 SLOAD SWAP1 PUSH2 0x100 EXP SWAP1 DIV PUSH1 0xFF AND ISZERO ISZERO ISZERO ISZERO DUP2 MSTORE PUSH1 0x20 ADD PUSH1 0x3 DUP3 ADD PUSH1 0x1 SWAP1 SLOAD SWAP1 PUSH2 0x100 EXP SWAP1 DIV PUSH1 0xFF AND ISZERO ISZERO ISZERO ISZERO DUP2 MSTORE POP POP SWAP1 POP DUP1 PUSH0 ADD MLOAD DUP2 PUSH1 0x20 ADD MLOAD DUP3 PUSH1 0x40 ADD MLOAD DUP4 PUSH1 0x60 ADD MLOAD DUP5 PUSH1 0x80 ADD MLOAD SWAP6 POP SWAP6 POP SWAP6 POP SWAP6 POP SWAP6 POP POP SWAP3 SWAP6 POP SWAP3 SWAP6 SWAP1 SWAP4 POP JUMP JUMPDEST PUSH1 0x2 PUSH1 0x20 MSTORE DUP1 PUSH0 MSTORE PUSH1 0x40 PUSH0 KECCAK256 PUSH0 SWAP2 POP SWAP1 POP DUP1 PUSH0 ADD DUP1 SLOAD PUSH2 0xB39 SWAP1 PUSH2 0x3755 JUMP JUMPDEST DUP1 PUSH1 0x1F ADD PUSH1 0x20 DUP1 SWAP2 DIV MUL PUSH1 0x20 ADD PUSH1 0x40 MLOAD SWAP1 DUP2 ADD PUSH1 0x40 MSTORE DUP1 SWAP3 SWAP2 SWAP1 DUP2 DUP2 MSTORE PUSH1 0x20 ADD DUP3 DUP1 SLOAD PUSH2 0xB65 SWAP1 PUSH2 0x3755 JUMP JUMPDEST DUP1 ISZERO PUSH2 0xBB0 JUMPI DUP1 PUSH1 0x1F LT PUSH2 0xB87 JUMPI PUSH2 0x100 DUP1 DUP4 SLOAD DIV MUL DUP4 MSTORE SWAP2 PUSH1 0x20 ADD SWAP2 PUSH2 0xBB0 JUMP JUMPDEST DUP3 ADD SWAP2 SWAP1 PUSH0 MSTORE PUSH1 0x20 PUSH0 KECCAK256 SWAP1 JUMPDEST DUP2 SLOAD DUP2 MSTORE SWAP1 PUSH1 0x1 ADD SWAP1 PUSH1 0x20 ADD DUP1 DUP4 GT PUSH2 0xB93 JUMPI DUP3 SWAP1 SUB PUSH1 0x1F AND DUP3 ADD SWAP2 JUMPDEST POP POP POP POP POP SWAP1 DUP1 PUSH1 0x1 ADD DUP1 SLOAD PUSH2 0xBC5 SWAP1 PUSH2 0x3755 JUMP JUMPDEST DUP1 PUSH1 0x1F ADD PUSH1 0x20 DUP1 SWAP2 DIV MUL PUSH1 0x20 ADD PUSH1 0x40 MLOAD SWAP1 DUP2 ADD PUSH1 0x40 MSTORE DUP1 SWAP3 SWAP2 SWAP1 DUP2 DUP2 MSTORE PUSH1 0x20 ADD DUP3 DUP1 SLOAD PUSH2 0xBF1 SWAP1 PUSH2 0x3755 JUMP JUMPDEST DUP1 ISZERO PUSH2 0xC3C JUMPI DUP1 PUSH1 0x1F LT PUSH2 0xC13 JUMPI PUSH2 0x100 DUP1 DUP4 SLOAD DIV MUL DUP4 MSTORE SWAP2 PUSH1 0x20 ADD SWAP2 PUSH2 0xC3C JUMP JUMPDEST DUP3 ADD SWAP2 SWAP1 PUSH0 MSTORE PUSH1 0x20 PUSH0 KECCAK256 SWAP1 JUMPDEST DUP2 SLOAD DUP2 MSTORE SWAP1 PUSH1 0x1 ADD SWAP1 PUSH1 0x20 ADD DUP1 DUP4 GT PUSH2 0xC1F JUMPI DUP3 SWAP1 SUB PUSH1 0x1F AND DUP3 ADD SWAP2 JUMPDEST POP POP POP POP POP SWAP1 DUP1 PUSH1 0x2 ADD DUP1 SLOAD PUSH2 0xC51 SWAP1 PUSH2 0x3755 JUMP JUMPDEST DUP1 PUSH1 0x1F ADD PUSH1 0x20 DUP1 SWAP2 DIV MUL PUSH1 0x20 ADD PUSH1 0x40 MLOAD SWAP1 DUP2 ADD PUSH1 0x40 MSTORE DUP1 SWAP3 SWAP2 SWAP1 DUP2 DUP2 MSTORE PUSH1 0x20 ADD DUP3 DUP1 SLOAD PUSH2 0xC7D SWAP1 PUSH2 0x3755 JUMP JUMPDEST DUP1 ISZERO PUSH2 0xCC8 JUMPI DUP1 PUSH1 0x1F LT PUSH2 0xC9F JUMPI PUSH2 0x100 DUP1 DUP4 SLOAD DIV MUL DUP4 MSTORE SWAP2 PUSH1 0x20 ADD SWAP2 PUSH2 0xCC8 JUMP JUMPDEST DUP3 ADD SWAP2 SWAP1 PUSH0 MSTORE PUSH1 0x20 PUSH0 KECCAK256 SWAP1 JUMPDEST DUP2 SLOAD DUP2 MSTORE SWAP1 PUSH1 0x1 ADD SWAP1 PUSH1 0x20 ADD DUP1 DUP4 GT PUSH2 0xCAB JUMPI DUP3 SWAP1 SUB PUSH1 0x1F AND DUP3 ADD SWAP2 JUMPDEST POP POP POP POP POP SWAP1 DUP1 PUSH1 0x3 ADD DUP1 SLOAD PUSH2 0xCDD SWAP1 PUSH2 0x3755 JUMP JUMPDEST DUP1 PUSH1 0x1F ADD PUSH1 0x20 DUP1 SWAP2 DIV MUL PUSH1 0x20 ADD PUSH1 0x40 MLOAD SWAP1 DUP2 ADD PUSH1 0x40 MSTORE DUP1 SWAP3 SWAP2 SWAP1 DUP2 DUP2 MSTORE PUSH1 0x20 ADD DUP3 DUP1 SLOAD PUSH2 0xD09 SWAP1 PUSH2 0x3755 JUMP JUMPDEST DUP1 ISZERO PUSH2 0xD54 JUMPI DUP1 PUSH1 0x1F LT PUSH2 0xD2B JUMPI PUSH2 0x100 DUP1 DUP4 SLOAD DIV MUL DUP4 MSTORE SWAP2 PUSH1 0x20 ADD SWAP2 PUSH2 0xD54 JUMP JUMPDEST DUP3 ADD SWAP2 SWAP1 PUSH0 MSTORE PUSH1 0x20 PUSH0 KECCAK256 SWAP1 JUMPDEST DUP2 SLOAD DUP2 MSTORE SWAP1 PUSH1 0x1 ADD SWAP1 PUSH1 0x20 ADD DUP1 DUP4 GT PUSH2 0xD37 JUMPI DUP3 SWAP1 SUB PUSH1 0x1F AND DUP3 ADD SWAP2 JUMPDEST POP POP POP POP POP SWAP1 DUP1 PUSH1 0x4 ADD PUSH0 SWAP1 SLOAD SWAP1 PUSH2 0x100 EXP SWAP1 DIV PUSH20 0xFFFFFFFFFFFFFFFFFFFFFFFFFFFFFFFFFFFFFFFF AND SWAP1 POP DUP6 JUMP JUMPDEST PUSH32 0xA49807205CE4D355092EF5A8A18F56E8913CF4A201FBE287825B095693C21775 PUSH2 0xDAD DUP2 PUSH2 0x27D1 JUMP JUMPDEST PUSH2 0xDB5 PUSH2 0x27E5 JUMP JUMPDEST PUSH0 PUSH20 0xFFFFFFFFFFFFFFFFFFFFFFFFFFFFFFFFFFFFFFFF AND DUP4 PUSH20 0xFFFFFFFFFFFFFFFFFFFFFFFFFFFFFFFFFFFFFFFF AND SUB PUSH2 0xE23 JUMPI PUSH1 0x40 MLOAD PUSH32 0x8C379A000000000000000000000000000000000000000000000000000000000 DUP2 MSTORE PUSH1 0x4 ADD PUSH2 0xE1A SWAP1 PUSH2 0x37CF JUMP JUMPDEST PUSH1 0x40 MLOAD DUP1 SWAP2 SUB SWAP1 REVERT JUMPDEST PUSH2 0xE2D DUP3 DUP5 PUSH2 0x282F JUMP JUMPDEST POP DUP2 DUP4 PUSH20 0xFFFFFFFFFFFFFFFFFFFFFFFFFFFFFFFFFFFFFFFF AND PUSH32 0x666448AAE9B9C8249FD8213A35A9C10218A0EAC2FB39B96ED90C67214C7E761 PUSH1 0x40 MLOAD PUSH1 0x40 MLOAD DUP1 SWAP2 SUB SWAP1 LOG3 POP POP POP JUMP JUMPDEST PUSH32 0xA49807205CE4D355092EF5A8A18F56E8913CF4A201FBE287825B095693C21775 PUSH2 0xEA1 DUP2 PUSH2 0x27D1 JUMP JUMPDEST PUSH2 0xEA9 PUSH2 0x27E5 JUMP JUMPDEST PUSH0 PUSH20 0xFFFFFFFFFFFFFFFFFFFFFFFFFFFFFFFFFFFFFFFF AND DUP4 PUSH20 0xFFFFFFFFFFFFFFFFFFFFFFFFFFFFFFFFFFFFFFFF AND SUB PUSH2 0xF17 JUMPI PUSH1 0x40 MLOAD PUSH32 0x8C379A000000000000000000000000000000000000000000000000000000000 DUP2 MSTORE PUSH1 0x4 ADD PUSH2 0xF0E SWAP1 PUSH2 0x37CF JUMP JUMPDEST PUSH1 0x40 MLOAD DUP1 SWAP2 SUB SWAP1 REVERT JUMPDEST PUSH2 0xF21 DUP3 DUP5 PUSH2 0x2918 JUMP JUMPDEST POP DUP2 DUP4 PUSH20 0xFFFFFFFFFFFFFFFFFFFFFFFFFFFFFFFFFFFFFFFF AND PUSH32 0xEA83A7CAEF01824E96446A8C4BC8FF4669EDD99E129B53E32C077F85D2168081 PUSH1 0x40 MLOAD PUSH1 0x40 MLOAD DUP1 SWAP2 SUB SWAP1 LOG3 POP POP POP JUMP JUMPDEST PUSH0 DUP1 PUSH0 DUP4 DUP2 MSTORE PUSH1 0x20 ADD SWAP1 DUP2 MSTORE PUSH1 0x20 ADD PUSH0 KECCAK256 PUSH1 0x1 ADD SLOAD SWAP1 POP SWAP2 SWAP1 POP JUMP JUMPDEST PUSH32 0xA49807205CE4D355092EF5A8A18F56E8913CF4A201FBE287825B095693C21775 PUSH2 0xFB1 DUP2 PUSH2 0x27D1 JUMP JUMPDEST PUSH2 0xFB9 PUSH2 0x27E5 JUMP JUMPDEST PUSH0 PUSH20 0xFFFFFFFFFFFFFFFFFFFFFFFFFFFFFFFFFFFFFFFF AND DUP4 PUSH20 0xFFFFFFFFFFFFFFFFFFFFFFFFFFFFFFFFFFFFFFFF AND SUB PUSH2 0x1027 JUMPI PUSH1 0x40 MLOAD PUSH32 0x8C379A000000000000000000000000000000000000000000000000000000000 DUP2 MSTORE PUSH1 0x4 ADD PUSH2 0x101E SWAP1 PUSH2 0x37CF JUMP JUMPDEST PUSH1 0x40 MLOAD DUP1 SWAP2 SUB SWAP1 REVERT JUMPDEST PUSH0 PUSH1 0x4 PUSH0 DUP6 PUSH20 0xFFFFFFFFFFFFFFFFFFFFFFFFFFFFFFFFFFFFFFFF AND PUSH20 0xFFFFFFFFFFFFFFFFFFFFFFFFFFFFFFFFFFFFFFFF AND DUP2 MSTORE PUSH1 0x20 ADD SWAP1 DUP2 MSTORE PUSH1 0x20 ADD PUSH0 KECCAK256 PUSH0 DUP5 DUP2 MSTORE PUSH1 0x20 ADD SWAP1 DUP2 MSTORE PUSH1 0x20 ADD PUSH0 KECCAK256 SWAP1 POP DUP1 PUSH1 0x3 ADD PUSH0 SWAP1 SLOAD SWAP1 PUSH2 0x100 EXP SWAP1 DIV PUSH1 0xFF AND PUSH2 0x10C6 JUMPI PUSH1 0x40 MLOAD PUSH32 0x8C379A000000000000000000000000000000000000000000000000000000000 DUP2 MSTORE PUSH1 0x4 ADD PUSH2 0x10BD SWAP1 PUSH2 0x3837 JUMP JUMPDEST PUSH1 0x40 MLOAD DUP1 SWAP2 SUB SWAP1 REVERT JUMPDEST PUSH0 DUP2 PUSH1 0x3 ADD PUSH0 PUSH2 0x100 EXP DUP2 SLOAD DUP2 PUSH1 0xFF MUL NOT AND SWAP1 DUP4 ISZERO ISZERO MUL OR SWAP1 SSTORE POP PUSH1 0x1 DUP2 PUSH1 0x3 ADD PUSH1 0x1 PUSH2 0x100 EXP DUP2 SLOAD DUP2 PUSH1 0xFF MUL NOT AND SWAP1 DUP4 ISZERO ISZERO MUL OR SWAP1 SSTORE POP PUSH2 0x1108 DUP5 DUP5 PUSH2 0x2A01 JUMP JUMPDEST PUSH2 0x1112 DUP4 DUP6 PUSH2 0x282F JUMP JUMPDEST POP DUP3 DUP5 PUSH20 0xFFFFFFFFFFFFFFFFFFFFFFFFFFFFFFFFFFFFFFFF AND PUSH32 0x7EB8B9D1E030C150EF76A2962C9E6F78AF369EB66F093314F8B59040FC5992DA PUSH1 0x40 MLOAD PUSH1 0x40 MLOAD DUP1 SWAP2 SUB SWAP1 LOG3 DUP3 DUP5 PUSH20 0xFFFFFFFFFFFFFFFFFFFFFFFFFFFFFFFFFFFFFFFF AND PUSH32 0x666448AAE9B9C8249FD8213A35A9C10218A0EAC2FB39B96ED90C67214C7E761 PUSH1 0x40 MLOAD PUSH1 0x40 MLOAD DUP1 SWAP2 SUB SWAP1 LOG3 POP POP POP POP JUMP JUMPDEST PUSH2 0x11AA DUP3 PUSH2 0xF6B JUMP JUMPDEST PUSH2 0x11B3 DUP2 PUSH2 0x27D1 JUMP JUMPDEST PUSH2 0x11BD DUP4 DUP4 PUSH2 0x282F JUMP JUMPDEST POP POP POP POP JUMP JUMPDEST PUSH32 0x709F71ABB733AA2493D642EC84D615695650E6806FD401C97E1FECBD9C84C1D6 DUP2 JUMP JUMPDEST PUSH2 0x11EF PUSH2 0x2C83 JUMP JUMPDEST PUSH20 0xFFFFFFFFFFFFFFFFFFFFFFFFFFFFFFFFFFFFFFFF AND DUP2 PUSH20 0xFFFFFFFFFFFFFFFFFFFFFFFFFFFFFFFFFFFFFFFF AND EQ PUSH2 0x1253 JUMPI PUSH1 0x40 MLOAD PUSH32 0x6697B23200000000000000000000000000000000000000000000000000000000 DUP2 MSTORE PUSH1 0x4 ADD PUSH1 0x40 MLOAD DUP1 SWAP2 SUB SWAP1 REVERT JUMPDEST PUSH2 0x125D DUP3 DUP3 PUSH2 0x2918 JUMP JUMPDEST POP POP POP JUMP JUMPDEST PUSH1 0x5 DUP2 DUP2 SLOAD DUP2 LT PUSH2 0x1271 JUMPI PUSH0 DUP1 REVERT JUMPDEST SWAP1 PUSH0 MSTORE PUSH1 0x20 PUSH0 KECCAK256 SWAP1 PUSH1 0x4 MUL ADD PUSH0 SWAP2 POP SWAP1 POP DUP1 PUSH0 ADD PUSH0 SWAP1 SLOAD SWAP1 PUSH2 0x100 EXP SWAP1 DIV PUSH20 0xFFFFFFFFFFFFFFFFFFFFFFFFFFFFFFFFFFFFFFFF AND SWAP1 DUP1 PUSH1 0x1 ADD SLOAD SWAP1 DUP1 PUSH1 0x2 ADD DUP1 SLOAD PUSH2 0x12BB SWAP1 PUSH2 0x3755 JUMP JUMPDEST DUP1 PUSH1 0x1F ADD PUSH1 0x20 DUP1 SWAP2 DIV MUL PUSH1 0x20 ADD PUSH1 0x40 MLOAD SWAP1 DUP2 ADD PUSH1 0x40 MSTORE DUP1 SWAP3 SWAP2 SWAP1 DUP2 DUP2 MSTORE PUSH1 0x20 ADD DUP3 DUP1 SLOAD PUSH2 0x12E7 SWAP1 PUSH2 0x3755 JUMP JUMPDEST DUP1 ISZERO PUSH2 0x1332 JUMPI DUP1 PUSH1 0x1F LT PUSH2 0x1309 JUMPI PUSH2 0x100 DUP1 DUP4 SLOAD DIV MUL DUP4 MSTORE SWAP2 PUSH1 0x20 ADD SWAP2 PUSH2 0x1332 JUMP JUMPDEST DUP3 ADD SWAP2 SWAP1 PUSH0 MSTORE PUSH1 0x20 PUSH0 KECCAK256 SWAP1 JUMPDEST DUP2 SLOAD DUP2 MSTORE SWAP1 PUSH1 0x1 ADD SWAP1 PUSH1 0x20 ADD DUP1 DUP4 GT PUSH2 0x1315 JUMPI DUP3 SWAP1 SUB PUSH1 0x1F AND DUP3 ADD SWAP2 JUMPDEST POP POP POP POP POP SWAP1 DUP1 PUSH1 0x3 ADD PUSH0 SWAP1 SLOAD SWAP1 PUSH2 0x100 EXP SWAP1 DIV PUSH1 0xFF AND SWAP1 DUP1 PUSH1 0x3 ADD PUSH1 0x1 SWAP1 SLOAD SWAP1 PUSH2 0x100 EXP SWAP1 DIV PUSH1 0xFF AND SWAP1 POP DUP6 JUMP JUMPDEST PUSH32 0xA49807205CE4D355092EF5A8A18F56E8913CF4A201FBE287825B095693C21775 PUSH2 0x138B DUP2 PUSH2 0x27D1 JUMP JUMPDEST PUSH2 0x1393 PUSH2 0x2C8A JUMP JUMPDEST POP JUMP JUMPDEST PUSH0 PUSH1 0x1 PUSH0 SWAP1 SLOAD SWAP1 PUSH2 0x100 EXP SWAP1 DIV PUSH1 0xFF AND SWAP1 POP SWAP1 JUMP JUMPDEST PUSH1 0x60 DUP1 PUSH1 0x60 DUP1 PUSH0 DUP1 PUSH1 0x2 PUSH0 DUP9 PUSH20 0xFFFFFFFFFFFFFFFFFFFFFFFFFFFFFFFFFFFFFFFF AND PUSH20 0xFFFFFFFFFFFFFFFFFFFFFFFFFFFFFFFFFFFFFFFF AND DUP2 MSTORE PUSH1 0x20 ADD SWAP1 DUP2 MSTORE PUSH1 0x20 ADD PUSH0 KECCAK256 PUSH1 0x40 MLOAD DUP1 PUSH1 0xA0 ADD PUSH1 0x40 MSTORE SWAP1 DUP2 PUSH0 DUP3 ADD DUP1 SLOAD PUSH2 0x140A SWAP1 PUSH2 0x3755 JUMP JUMPDEST DUP1 PUSH1 0x1F ADD PUSH1 0x20 DUP1 SWAP2 DIV MUL PUSH1 0x20 ADD PUSH1 0x40 MLOAD SWAP1 DUP2 ADD PUSH1 0x40 MSTORE DUP1 SWAP3 SWAP2 SWAP1 DUP2 DUP2 MSTORE PUSH1 0x20 ADD DUP3 DUP1 SLOAD PUSH2 0x1436 SWAP1 PUSH2 0x3755 JUMP JUMPDEST DUP1 ISZERO PUSH2 0x1481 JUMPI DUP1 PUSH1 0x1F LT PUSH2 0x1458 JUMPI PUSH2 0x100 DUP1 DUP4 SLOAD DIV MUL DUP4 MSTORE SWAP2 PUSH1 0x20 ADD SWAP2 PUSH2 0x1481 JUMP JUMPDEST DUP3 ADD SWAP2 SWAP1 PUSH0 MSTORE PUSH1 0x20 PUSH0 KECCAK256 SWAP1 JUMPDEST DUP2 SLOAD DUP2 MSTORE SWAP1 PUSH1 0x1 ADD SWAP1 PUSH1 0x20 ADD DUP1 DUP4 GT PUSH2 0x1464 JUMPI DUP3 SWAP1 SUB PUSH1 0x1F AND DUP3 ADD SWAP2 JUMPDEST POP POP POP POP POP DUP2 MSTORE PUSH1 0x20 ADD PUSH1 0x1 DUP3 ADD DUP1 SLOAD PUSH2 0x149A SWAP1 PUSH2 0x3755 JUMP JUMPDEST DUP1 PUSH1 0x1F ADD PUSH1 0x20 DUP1 SWAP2 DIV MUL PUSH1 0x20 ADD PUSH1 0x40 MLOAD SWAP1 DUP2 ADD PUSH1 0x40 MSTORE DUP1 SWAP3 SWAP2 SWAP1 DUP2 DUP2 MSTORE PUSH1 0x20 ADD DUP3 DUP1 SLOAD PUSH2 0x14C6 SWAP1 PUSH2 0x3755 JUMP JUMPDEST DUP1 ISZERO PUSH2 0x1511 JUMPI DUP1 PUSH1 0x1F LT PUSH2 0x14E8 JUMPI PUSH2 0x100 DUP1 DUP4 SLOAD DIV MUL DUP4 MSTORE SWAP2 PUSH1 0x20 ADD SWAP2 PUSH2 0x1511 JUMP JUMPDEST DUP3 ADD SWAP2 SWAP1 PUSH0 MSTORE PUSH1 0x20 PUSH0 KECCAK256 SWAP1 JUMPDEST DUP2 SLOAD DUP2 MSTORE SWAP1 PUSH1 0x1 ADD SWAP1 PUSH1 0x20 ADD DUP1 DUP4 GT PUSH2 0x14F4 JUMPI DUP3 SWAP1 SUB PUSH1 0x1F AND DUP3 ADD SWAP2 JUMPDEST POP POP POP POP POP DUP2 MSTORE PUSH1 0x20 ADD PUSH1 0x2 DUP3 ADD DUP1 SLOAD PUSH2 0x152A SWAP1 PUSH2 0x3755 JUMP JUMPDEST DUP1 PUSH1 0x1F ADD PUSH1 0x20 DUP1 SWAP2 DIV MUL PUSH1 0x20 ADD PUSH1 0x40 MLOAD SWAP1 DUP2 ADD PUSH1 0x40 MSTORE DUP1 SWAP3 SWAP2 SWAP1 DUP2 DUP2 MSTORE PUSH1 0x20 ADD DUP3 DUP1 SLOAD PUSH2 0x1556 SWAP1 PUSH2 0x3755 JUMP JUMPDEST DUP1 ISZERO PUSH2 0x15A1 JUMPI DUP1 PUSH1 0x1F LT PUSH2 0x1578 JUMPI PUSH2 0x100 DUP1 DUP4 SLOAD DIV MUL DUP4 MSTORE SWAP2 PUSH1 0x20 ADD SWAP2 PUSH2 0x15A1 JUMP JUMPDEST DUP3 ADD SWAP2 SWAP1 PUSH0 MSTORE PUSH1 0x20 PUSH0 KECCAK256 SWAP1 JUMPDEST DUP2 SLOAD DUP2 MSTORE SWAP1 PUSH1 0x1 ADD SWAP1 PUSH1 0x20 ADD DUP1 DUP4 GT PUSH2 0x1584 JUMPI DUP3 SWAP1 SUB PUSH1 0x1F AND DUP3 ADD SWAP2 JUMPDEST POP POP POP POP POP DUP2 MSTORE PUSH1 0x20 ADD PUSH1 0x3 DUP3 ADD DUP1 SLOAD PUSH2 0x15BA SWAP1 PUSH2 0x3755 JUMP JUMPDEST DUP1 PUSH1 0x1F ADD PUSH1 0x20 DUP1 SWAP2 DIV MUL PUSH1 0x20 ADD PUSH1 0x40 MLOAD SWAP1 DUP2 ADD PUSH1 0x40 MSTORE DUP1 SWAP3 SWAP2 SWAP1 DUP2 DUP2 MSTORE PUSH1 0x20 ADD DUP3 DUP1 SLOAD PUSH2 0x15E6 SWAP1 PUSH2 0x3755 JUMP JUMPDEST DUP1 ISZERO PUSH2 0x1631 JUMPI DUP1 PUSH1 0x1F LT PUSH2 0x1608 JUMPI PUSH2 0x100 DUP1 DUP4 SLOAD DIV MUL DUP4 MSTORE SWAP2 PUSH1 0x20 ADD SWAP2 PUSH2 0x1631 JUMP JUMPDEST DUP3 ADD SWAP2 SWAP1 PUSH0 MSTORE PUSH1 0x20 PUSH0 KECCAK256 SWAP1 JUMPDEST DUP2 SLOAD DUP2 MSTORE SWAP1 PUSH1 0x1 ADD SWAP1 PUSH1 0x20 ADD DUP1 DUP4 GT PUSH2 0x1614 JUMPI DUP3 SWAP1 SUB PUSH1 0x1F AND DUP3 ADD SWAP2 JUMPDEST POP POP POP POP POP DUP2 MSTORE PUSH1 0x20 ADD PUSH1 0x4 DUP3 ADD PUSH0 SWAP1 SLOAD SWAP1 PUSH2 0x100 EXP SWAP1 DIV PUSH20 0xFFFFFFFFFFFFFFFFFFFFFFFFFFFFFFFFFFFFFFFF AND PUSH20 0xFFFFFFFFFFFFFFFFFFFFFFFFFFFFFFFFFFFFFFFF AND PUSH20 0xFFFFFFFFFFFFFFFFFFFFFFFFFFFFFFFFFFFFFFFF AND DUP2 MSTORE POP POP SWAP1 POP DUP1 PUSH0 ADD MLOAD DUP2 PUSH1 0x20 ADD MLOAD DUP3 PUSH1 0x40 ADD MLOAD DUP4 PUSH1 0x60 ADD MLOAD DUP5 PUSH1 0x80 ADD MLOAD SWAP6 POP SWAP6 POP SWAP6 POP SWAP6 POP SWAP6 POP POP SWAP2 SWAP4 SWAP6 SWAP1 SWAP3 SWAP5 POP JUMP JUMPDEST PUSH32 0xA49807205CE4D355092EF5A8A18F56E8913CF4A201FBE287825B095693C21775 DUP2 JUMP JUMPDEST PUSH2 0x16E9 PUSH2 0x27E5 JUMP JUMPDEST PUSH2 0x16F3 DUP3 CALLER PUSH2 0x214E JUMP JUMPDEST ISZERO PUSH2 0x1733 JUMPI PUSH1 0x40 MLOAD PUSH32 0x8C379A000000000000000000000000000000000000000000000000000000000 DUP2 MSTORE PUSH1 0x4 ADD PUSH2 0x172A SWAP1 PUSH2 0x389F JUMP JUMPDEST PUSH1 0x40 MLOAD DUP1 SWAP2 SUB SWAP1 REVERT JUMPDEST PUSH0 DUP2 MLOAD GT PUSH2 0x1776 JUMPI PUSH1 0x40 MLOAD PUSH32 0x8C379A000000000000000000000000000000000000000000000000000000000 DUP2 MSTORE PUSH1 0x4 ADD PUSH2 0x176D SWAP1 PUSH2 0x3907 JUMP JUMPDEST PUSH1 0x40 MLOAD DUP1 SWAP2 SUB SWAP1 REVERT JUMPDEST PUSH1 0x4 PUSH0 CALLER PUSH20 0xFFFFFFFFFFFFFFFFFFFFFFFFFFFFFFFFFFFFFFFF AND PUSH20 0xFFFFFFFFFFFFFFFFFFFFFFFFFFFFFFFFFFFFFFFF AND DUP2 MSTORE PUSH1 0x20 ADD SWAP1 DUP2 MSTORE PUSH1 0x20 ADD PUSH0 KECCAK256 PUSH0 DUP4 DUP2 MSTORE PUSH1 0x20 ADD SWAP1 DUP2 MSTORE PUSH1 0x20 ADD PUSH0 KECCAK256 PUSH1 0x3 ADD PUSH0 SWAP1 SLOAD SWAP1 PUSH2 0x100 EXP SWAP1 DIV PUSH1 0xFF AND ISZERO PUSH2 0x1812 JUMPI PUSH1 0x40 MLOAD PUSH32 0x8C379A000000000000000000000000000000000000000000000000000000000 DUP2 MSTORE PUSH1 0x4 ADD PUSH2 0x1809 SWAP1 PUSH2 0x396F JUMP JUMPDEST PUSH1 0x40 MLOAD DUP1 SWAP2 SUB SWAP1 REVERT JUMPDEST PUSH0 PUSH1 0x40 MLOAD DUP1 PUSH1 0xA0 ADD PUSH1 0x40 MSTORE DUP1 CALLER PUSH20 0xFFFFFFFFFFFFFFFFFFFFFFFFFFFFFFFFFFFFFFFF AND DUP2 MSTORE PUSH1 0x20 ADD DUP5 DUP2 MSTORE PUSH1 0x20 ADD DUP4 DUP2 MSTORE PUSH1 0x20 ADD PUSH1 0x1 ISZERO ISZERO DUP2 MSTORE PUSH1 0x20 ADD PUSH0 ISZERO ISZERO DUP2 MSTORE POP SWAP1 POP DUP1 PUSH1 0x4 PUSH0 CALLER PUSH20 0xFFFFFFFFFFFFFFFFFFFFFFFFFFFFFFFFFFFFFFFF AND PUSH20 0xFFFFFFFFFFFFFFFFFFFFFFFFFFFFFFFFFFFFFFFF AND DUP2 MSTORE PUSH1 0x20 ADD SWAP1 DUP2 MSTORE PUSH1 0x20 ADD PUSH0 KECCAK256 PUSH0 DUP6 DUP2 MSTORE PUSH1 0x20 ADD SWAP1 DUP2 MSTORE PUSH1 0x20 ADD PUSH0 KECCAK256 PUSH0 DUP3 ADD MLOAD DUP2 PUSH0 ADD PUSH0 PUSH2 0x100 EXP DUP2 SLOAD DUP2 PUSH20 0xFFFFFFFFFFFFFFFFFFFFFFFFFFFFFFFFFFFFFFFF MUL NOT AND SWAP1 DUP4 PUSH20 0xFFFFFFFFFFFFFFFFFFFFFFFFFFFFFFFFFFFFFFFF AND MUL OR SWAP1 SSTORE POP PUSH1 0x20 DUP3 ADD MLOAD DUP2 PUSH1 0x1 ADD SSTORE PUSH1 0x40 DUP3 ADD MLOAD DUP2 PUSH1 0x2 ADD SWAP1 DUP2 PUSH2 0x1907 SWAP2 SWAP1 PUSH2 0x3B2A JUMP JUMPDEST POP PUSH1 0x60 DUP3 ADD MLOAD DUP2 PUSH1 0x3 ADD PUSH0 PUSH2 0x100 EXP DUP2 SLOAD DUP2 PUSH1 0xFF MUL NOT AND SWAP1 DUP4 ISZERO ISZERO MUL OR SWAP1 SSTORE POP PUSH1 0x80 DUP3 ADD MLOAD DUP2 PUSH1 0x3 ADD PUSH1 0x1 PUSH2 0x100 EXP DUP2 SLOAD DUP2 PUSH1 0xFF MUL NOT AND SWAP1 DUP4 ISZERO ISZERO MUL OR SWAP1 SSTORE POP SWAP1 POP POP PUSH1 0x5 DUP2 SWAP1 DUP1 PUSH1 0x1 DUP2 SLOAD ADD DUP1 DUP3 SSTORE DUP1 SWAP2 POP POP PUSH1 0x1 SWAP1 SUB SWAP1 PUSH0 MSTORE PUSH1 0x20 PUSH0 KECCAK256 SWAP1 PUSH1 0x4 MUL ADD PUSH0 SWAP1 SWAP2 SWAP1 SWAP2 SWAP1 SWAP2 POP PUSH0 DUP3 ADD MLOAD DUP2 PUSH0 ADD PUSH0 PUSH2 0x100 EXP DUP2 SLOAD DUP2 PUSH20 0xFFFFFFFFFFFFFFFFFFFFFFFFFFFFFFFFFFFFFFFF MUL NOT AND SWAP1 DUP4 PUSH20 0xFFFFFFFFFFFFFFFFFFFFFFFFFFFFFFFFFFFFFFFF AND MUL OR SWAP1 SSTORE POP PUSH1 0x20 DUP3 ADD MLOAD DUP2 PUSH1 0x1 ADD SSTORE PUSH1 0x40 DUP3 ADD MLOAD DUP2 PUSH1 0x2 ADD SWAP1 DUP2 PUSH2 0x19D6 SWAP2 SWAP1 PUSH2 0x3B2A JUMP JUMPDEST POP PUSH1 0x60 DUP3 ADD MLOAD DUP2 PUSH1 0x3 ADD PUSH0 PUSH2 0x100 EXP DUP2 SLOAD DUP2 PUSH1 0xFF MUL NOT AND SWAP1 DUP4 ISZERO ISZERO MUL OR SWAP1 SSTORE POP PUSH1 0x80 DUP3 ADD MLOAD DUP2 PUSH1 0x3 ADD PUSH1 0x1 PUSH2 0x100 EXP DUP2 SLOAD DUP2 PUSH1 0xFF MUL NOT AND SWAP1 DUP4 ISZERO ISZERO MUL OR SWAP1 SSTORE POP POP POP DUP3 CALLER PUSH20 0xFFFFFFFFFFFFFFFFFFFFFFFFFFFFFFFFFFFFFFFF AND PUSH32 0x98F6F2D133C420A141A671CE9479E3956417C7F04BD370DE1CD64CE10D385D94 DUP5 PUSH1 0x40 MLOAD PUSH2 0x1A5F SWAP2 SWAP1 PUSH2 0x3BF9 JUMP JUMPDEST PUSH1 0x40 MLOAD DUP1 SWAP2 SUB SWAP1 LOG3 POP POP POP JUMP JUMPDEST PUSH2 0x1A74 PUSH2 0x27E5 JUMP JUMPDEST PUSH0 DUP5 MLOAD GT PUSH2 0x1AB7 JUMPI PUSH1 0x40 MLOAD PUSH32 0x8C379A000000000000000000000000000000000000000000000000000000000 DUP2 MSTORE PUSH1 0x4 ADD PUSH2 0x1AAE SWAP1 PUSH2 0x3C63 JUMP JUMPDEST PUSH1 0x40 MLOAD DUP1 SWAP2 SUB SWAP1 REVERT JUMPDEST PUSH0 DUP4 MLOAD GT PUSH2 0x1AFA JUMPI PUSH1 0x40 MLOAD PUSH32 0x8C379A000000000000000000000000000000000000000000000000000000000 DUP2 MSTORE PUSH1 0x4 ADD PUSH2 0x1AF1 SWAP1 PUSH2 0x3CCB JUMP JUMPDEST PUSH1 0x40 MLOAD DUP1 SWAP2 SUB SWAP1 REVERT JUMPDEST PUSH0 DUP3 MLOAD GT PUSH2 0x1B3D JUMPI PUSH1 0x40 MLOAD PUSH32 0x8C379A000000000000000000000000000000000000000000000000000000000 DUP2 MSTORE PUSH1 0x4 ADD PUSH2 0x1B34 SWAP1 PUSH2 0x3D33 JUMP JUMPDEST PUSH1 0x40 MLOAD DUP1 SWAP2 SUB SWAP1 REVERT JUMPDEST PUSH0 PUSH1 0x40 MLOAD DUP1 PUSH1 0xA0 ADD PUSH1 0x40 MSTORE DUP1 DUP7 DUP2 MSTORE PUSH1 0x20 ADD DUP6 DUP2 MSTORE PUSH1 0x20 ADD DUP5 DUP2 MSTORE PUSH1 0x20 ADD DUP4 DUP2 MSTORE PUSH1 0x20 ADD CALLER PUSH20 0xFFFFFFFFFFFFFFFFFFFFFFFFFFFFFFFFFFFFFFFF AND DUP2 MSTORE POP SWAP1 POP PUSH0 DUP1 PUSH20 0xFFFFFFFFFFFFFFFFFFFFFFFFFFFFFFFFFFFFFFFF AND PUSH1 0x2 PUSH0 CALLER PUSH20 0xFFFFFFFFFFFFFFFFFFFFFFFFFFFFFFFFFFFFFFFF AND PUSH20 0xFFFFFFFFFFFFFFFFFFFFFFFFFFFFFFFFFFFFFFFF AND DUP2 MSTORE PUSH1 0x20 ADD SWAP1 DUP2 MSTORE PUSH1 0x20 ADD PUSH0 KECCAK256 PUSH1 0x4 ADD PUSH0 SWAP1 SLOAD SWAP1 PUSH2 0x100 EXP SWAP1 DIV PUSH20 0xFFFFFFFFFFFFFFFFFFFFFFFFFFFFFFFFFFFFFFFF AND PUSH20 0xFFFFFFFFFFFFFFFFFFFFFFFFFFFFFFFFFFFFFFFF AND EQ ISZERO SWAP1 POP PUSH1 0x40 MLOAD DUP1 PUSH1 0xA0 ADD PUSH1 0x40 MSTORE DUP1 CALLER PUSH20 0xFFFFFFFFFFFFFFFFFFFFFFFFFFFFFFFFFFFFFFFF AND DUP2 MSTORE PUSH1 0x20 ADD DUP4 DUP2 MSTORE PUSH1 0x20 ADD DUP3 ISZERO ISZERO DUP2 MSTORE PUSH1 0x20 ADD PUSH1 0x1 ISZERO ISZERO DUP2 MSTORE PUSH1 0x20 ADD PUSH0 ISZERO ISZERO DUP2 MSTORE POP PUSH1 0x3 PUSH0 CALLER PUSH20 0xFFFFFFFFFFFFFFFFFFFFFFFFFFFFFFFFFFFFFFFF AND PUSH20 0xFFFFFFFFFFFFFFFFFFFFFFFFFFFFFFFFFFFFFFFF AND DUP2 MSTORE PUSH1 0x20 ADD SWAP1 DUP2 MSTORE PUSH1 0x20 ADD PUSH0 KECCAK256 PUSH0 DUP3 ADD MLOAD DUP2 PUSH0 ADD PUSH0 PUSH2 0x100 EXP DUP2 SLOAD DUP2 PUSH20 0xFFFFFFFFFFFFFFFFFFFFFFFFFFFFFFFFFFFFFFFF MUL NOT AND SWAP1 DUP4 PUSH20 0xFFFFFFFFFFFFFFFFFFFFFFFFFFFFFFFFFFFFFFFF AND MUL OR SWAP1 SSTORE POP PUSH1 0x20 DUP3 ADD MLOAD DUP2 PUSH1 0x1 ADD PUSH0 DUP3 ADD MLOAD DUP2 PUSH0 ADD SWAP1 DUP2 PUSH2 0x1CF0 SWAP2 SWAP1 PUSH2 0x3B2A JUMP JUMPDEST POP PUSH1 0x20 DUP3 ADD MLOAD DUP2 PUSH1 0x1 ADD SWAP1 DUP2 PUSH2 0x1D06 SWAP2 SWAP1 PUSH2 0x3B2A JUMP JUMPDEST POP PUSH1 0x40 DUP3 ADD MLOAD DUP2 PUSH1 0x2 ADD SWAP1 DUP2 PUSH2 0x1D1C SWAP2 SWAP1 PUSH2 0x3B2A JUMP JUMPDEST POP PUSH1 0x60 DUP3 ADD MLOAD DUP2 PUSH1 0x3 ADD SWAP1 DUP2 PUSH2 0x1D32 SWAP2 SWAP1 PUSH2 0x3B2A JUMP JUMPDEST POP PUSH1 0x80 DUP3 ADD MLOAD DUP2 PUSH1 0x4 ADD PUSH0 PUSH2 0x100 EXP DUP2 SLOAD DUP2 PUSH20 0xFFFFFFFFFFFFFFFFFFFFFFFFFFFFFFFFFFFFFFFF MUL NOT AND SWAP1 DUP4 PUSH20 0xFFFFFFFFFFFFFFFFFFFFFFFFFFFFFFFFFFFFFFFF AND MUL OR SWAP1 SSTORE POP POP POP PUSH1 0x40 DUP3 ADD MLOAD DUP2 PUSH1 0x6 ADD PUSH0 PUSH2 0x100 EXP DUP2 SLOAD DUP2 PUSH1 0xFF MUL NOT AND SWAP1 DUP4 ISZERO ISZERO MUL OR SWAP1 SSTORE POP PUSH1 0x60 DUP3 ADD MLOAD DUP2 PUSH1 0x6 ADD PUSH1 0x1 PUSH2 0x100 EXP DUP2 SLOAD DUP2 PUSH1 0xFF MUL NOT AND SWAP1 DUP4 ISZERO ISZERO MUL OR SWAP1 SSTORE POP PUSH1 0x80 DUP3 ADD MLOAD DUP2 PUSH1 0x6 ADD PUSH1 0x2 PUSH2 0x100 EXP DUP2 SLOAD DUP2 PUSH1 0xFF MUL NOT AND SWAP1 DUP4 ISZERO ISZERO MUL OR SWAP1 SSTORE POP SWAP1 POP POP CALLER PUSH20 0xFFFFFFFFFFFFFFFFFFFFFFFFFFFFFFFFFFFFFFFF AND PUSH32 0x1F10437CB6D722F3E8A9E771FCDE4FBF82D9FDA13BB2666EA9E9EAA0310DADD3 DUP3 PUSH1 0x40 MLOAD PUSH2 0x1E23 SWAP2 SWAP1 PUSH2 0x2EE9 JUMP JUMPDEST PUSH1 0x40 MLOAD DUP1 SWAP2 SUB SWAP1 LOG2 POP POP POP POP POP POP JUMP JUMPDEST PUSH32 0x876BBBF5907D194533FAADCEAD8CFA42AD0F2B1653CC89D94228F5C04F389A15 DUP2 JUMP JUMPDEST PUSH32 0xA49807205CE4D355092EF5A8A18F56E8913CF4A201FBE287825B095693C21775 PUSH2 0x1E81 DUP2 PUSH2 0x27D1 JUMP JUMPDEST PUSH2 0x1E89 PUSH2 0x27E5 JUMP JUMPDEST PUSH0 PUSH1 0x3 PUSH0 DUP5 PUSH20 0xFFFFFFFFFFFFFFFFFFFFFFFFFFFFFFFFFFFFFFFF AND PUSH20 0xFFFFFFFFFFFFFFFFFFFFFFFFFFFFFFFFFFFFFFFF AND DUP2 MSTORE PUSH1 0x20 ADD SWAP1 DUP2 MSTORE PUSH1 0x20 ADD PUSH0 KECCAK256 SWAP1 POP DUP1 PUSH1 0x6 ADD PUSH1 0x1 SWAP1 SLOAD SWAP1 PUSH2 0x100 EXP SWAP1 DIV PUSH1 0xFF AND PUSH2 0x1F1A JUMPI PUSH1 0x40 MLOAD PUSH32 0x8C379A000000000000000000000000000000000000000000000000000000000 DUP2 MSTORE PUSH1 0x4 ADD PUSH2 0x1F11 SWAP1 PUSH2 0x3837 JUMP JUMPDEST PUSH1 0x40 MLOAD DUP1 SWAP2 SUB SWAP1 REVERT JUMPDEST PUSH0 DUP2 PUSH1 0x6 ADD PUSH1 0x1 PUSH2 0x100 EXP DUP2 SLOAD DUP2 PUSH1 0xFF MUL NOT AND SWAP1 DUP4 ISZERO ISZERO MUL OR SWAP1 SSTORE POP PUSH0 DUP2 PUSH1 0x6 ADD PUSH1 0x2 PUSH2 0x100 EXP DUP2 SLOAD DUP2 PUSH1 0xFF MUL NOT AND SWAP1 DUP4 ISZERO ISZERO MUL OR SWAP1 SSTORE POP DUP3 PUSH20 0xFFFFFFFFFFFFFFFFFFFFFFFFFFFFFFFFFFFFFFFF AND PUSH32 0xCD974FC27E84980D07E91443E7189AF0CD0DC142C2AB04F1D8AF6352DE3B625B PUSH1 0x40 MLOAD PUSH1 0x40 MLOAD DUP1 SWAP2 SUB SWAP1 LOG2 POP POP POP JUMP JUMPDEST PUSH1 0x60 PUSH1 0x5 DUP1 SLOAD DUP1 PUSH1 0x20 MUL PUSH1 0x20 ADD PUSH1 0x40 MLOAD SWAP1 DUP2 ADD PUSH1 0x40 MSTORE DUP1 SWAP3 SWAP2 SWAP1 DUP2 DUP2 MSTORE PUSH1 0x20 ADD PUSH0 SWAP1 JUMPDEST DUP3 DUP3 LT ISZERO PUSH2 0x2110 JUMPI DUP4 DUP3 SWAP1 PUSH0 MSTORE PUSH1 0x20 PUSH0 KECCAK256 SWAP1 PUSH1 0x4 MUL ADD PUSH1 0x40 MLOAD DUP1 PUSH1 0xA0 ADD PUSH1 0x40 MSTORE SWAP1 DUP2 PUSH0 DUP3 ADD PUSH0 SWAP1 SLOAD SWAP1 PUSH2 0x100 EXP SWAP1 DIV PUSH20 0xFFFFFFFFFFFFFFFFFFFFFFFFFFFFFFFFFFFFFFFF AND PUSH20 0xFFFFFFFFFFFFFFFFFFFFFFFFFFFFFFFFFFFFFFFF AND PUSH20 0xFFFFFFFFFFFFFFFFFFFFFFFFFFFFFFFFFFFFFFFF AND DUP2 MSTORE PUSH1 0x20 ADD PUSH1 0x1 DUP3 ADD SLOAD DUP2 MSTORE PUSH1 0x20 ADD PUSH1 0x2 DUP3 ADD DUP1 SLOAD PUSH2 0x204C SWAP1 PUSH2 0x3755 JUMP JUMPDEST DUP1 PUSH1 0x1F ADD PUSH1 0x20 DUP1 SWAP2 DIV MUL PUSH1 0x20 ADD PUSH1 0x40 MLOAD SWAP1 DUP2 ADD PUSH1 0x40 MSTORE DUP1 SWAP3 SWAP2 SWAP1 DUP2 DUP2 MSTORE PUSH1 0x20 ADD DUP3 DUP1 SLOAD PUSH2 0x2078 SWAP1 PUSH2 0x3755 JUMP JUMPDEST DUP1 ISZERO PUSH2 0x20C3 JUMPI DUP1 PUSH1 0x1F LT PUSH2 0x209A JUMPI PUSH2 0x100 DUP1 DUP4 SLOAD DIV MUL DUP4 MSTORE SWAP2 PUSH1 0x20 ADD SWAP2 PUSH2 0x20C3 JUMP JUMPDEST DUP3 ADD SWAP2 SWAP1 PUSH0 MSTORE PUSH1 0x20 PUSH0 KECCAK256 SWAP1 JUMPDEST DUP2 SLOAD DUP2 MSTORE SWAP1 PUSH1 0x1 ADD SWAP1 PUSH1 0x20 ADD DUP1 DUP4 GT PUSH2 0x20A6 JUMPI DUP3 SWAP1 SUB PUSH1 0x1F AND DUP3 ADD SWAP2 JUMPDEST POP POP POP POP POP DUP2 MSTORE PUSH1 0x20 ADD PUSH1 0x3 DUP3 ADD PUSH0 SWAP1 SLOAD SWAP1 PUSH2 0x100 EXP SWAP1 DIV PUSH1 0xFF AND ISZERO ISZERO ISZERO ISZERO DUP2 MSTORE PUSH1 0x20 ADD PUSH1 0x3 DUP3 ADD PUSH1 0x1 SWAP1 SLOAD SWAP1 PUSH2 0x100 EXP SWAP1 DIV PUSH1 0xFF AND ISZERO ISZERO ISZERO ISZERO DUP2 MSTORE POP POP DUP2 MSTORE PUSH1 0x20 ADD SWAP1 PUSH1 0x1 ADD SWAP1 PUSH2 0x1FBD JUMP JUMPDEST POP POP POP POP SWAP1 POP SWAP1 JUMP JUMPDEST PUSH32 0xA49807205CE4D355092EF5A8A18F56E8913CF4A201FBE287825B095693C21775 PUSH2 0x2143 DUP2 PUSH2 0x27D1 JUMP JUMPDEST PUSH2 0x214B PUSH2 0x2CEB JUMP JUMPDEST POP JUMP JUMPDEST PUSH0 DUP1 PUSH0 DUP5 DUP2 MSTORE PUSH1 0x20 ADD SWAP1 DUP2 MSTORE PUSH1 0x20 ADD PUSH0 KECCAK256 PUSH0 ADD PUSH0 DUP4 PUSH20 0xFFFFFFFFFFFFFFFFFFFFFFFFFFFFFFFFFFFFFFFF AND PUSH20 0xFFFFFFFFFFFFFFFFFFFFFFFFFFFFFFFFFFFFFFFF AND DUP2 MSTORE PUSH1 0x20 ADD SWAP1 DUP2 MSTORE PUSH1 0x20 ADD PUSH0 KECCAK256 PUSH0 SWAP1 SLOAD SWAP1 PUSH2 0x100 EXP SWAP1 DIV PUSH1 0xFF AND SWAP1 POP SWAP3 SWAP2 POP POP JUMP JUMPDEST PUSH1 0x4 PUSH1 0x20 MSTORE DUP2 PUSH0 MSTORE PUSH1 0x40 PUSH0 KECCAK256 PUSH1 0x20 MSTORE DUP1 PUSH0 MSTORE PUSH1 0x40 PUSH0 KECCAK256 PUSH0 SWAP2 POP SWAP2 POP POP DUP1 PUSH0 ADD PUSH0 SWAP1 SLOAD SWAP1 PUSH2 0x100 EXP SWAP1 DIV PUSH20 0xFFFFFFFFFFFFFFFFFFFFFFFFFFFFFFFFFFFFFFFF AND SWAP1 DUP1 PUSH1 0x1 ADD SLOAD SWAP1 DUP1 PUSH1 0x2 ADD DUP1 SLOAD PUSH2 0x2206 SWAP1 PUSH2 0x3755 JUMP JUMPDEST DUP1 PUSH1 0x1F ADD PUSH1 0x20 DUP1 SWAP2 DIV MUL PUSH1 0x20 ADD PUSH1 0x40 MLOAD SWAP1 DUP2 ADD PUSH1 0x40 MSTORE DUP1 SWAP3 SWAP2 SWAP1 DUP2 DUP2 MSTORE PUSH1 0x20 ADD DUP3 DUP1 SLOAD PUSH2 0x2232 SWAP1 PUSH2 0x3755 JUMP JUMPDEST DUP1 ISZERO PUSH2 0x227D JUMPI DUP1 PUSH1 0x1F LT PUSH2 0x2254 JUMPI PUSH2 0x100 DUP1 DUP4 SLOAD DIV MUL DUP4 MSTORE SWAP2 PUSH1 0x20 ADD SWAP2 PUSH2 0x227D JUMP JUMPDEST DUP3 ADD SWAP2 SWAP1 PUSH0 MSTORE PUSH1 0x20 PUSH0 KECCAK256 SWAP1 JUMPDEST DUP2 SLOAD DUP2 MSTORE SWAP1 PUSH1 0x1 ADD SWAP1 PUSH1 0x20 ADD DUP1 DUP4 GT PUSH2 0x2260 JUMPI DUP3 SWAP1 SUB PUSH1 0x1F AND DUP3 ADD SWAP2 JUMPDEST POP POP POP POP POP SWAP1 DUP1 PUSH1 0x3 ADD PUSH0 SWAP1 SLOAD SWAP1 PUSH2 0x100 EXP SWAP1 DIV PUSH1 0xFF AND SWAP1 DUP1 PUSH1 0x3 ADD PUSH1 0x1 SWAP1 SLOAD SWAP1 PUSH2 0x100 EXP SWAP1 DIV PUSH1 0xFF AND SWAP1 POP DUP6 JUMP JUMPDEST PUSH32 0x329C74013BA5A00A181F8B3DC9D0AE428C8A88AD0625246C0382E31759B580DB DUP2 JUMP JUMPDEST PUSH0 DUP1 SHL DUP2 JUMP JUMPDEST PUSH32 0xA49807205CE4D355092EF5A8A18F56E8913CF4A201FBE287825B095693C21775 PUSH2 0x2300 DUP2 PUSH2 0x27D1 JUMP JUMPDEST PUSH2 0x2308 PUSH2 0x27E5 JUMP JUMPDEST PUSH0 PUSH20 0xFFFFFFFFFFFFFFFFFFFFFFFFFFFFFFFFFFFFFFFF AND DUP4 PUSH20 0xFFFFFFFFFFFFFFFFFFFFFFFFFFFFFFFFFFFFFFFF AND SUB PUSH2 0x2376 JUMPI PUSH1 0x40 MLOAD PUSH32 0x8C379A000000000000000000000000000000000000000000000000000000000 DUP2 MSTORE PUSH1 0x4 ADD PUSH2 0x236D SWAP1 PUSH2 0x37CF JUMP JUMPDEST PUSH1 0x40 MLOAD DUP1 SWAP2 SUB SWAP1 REVERT JUMPDEST PUSH0 PUSH1 0x4 PUSH0 DUP6 PUSH20 0xFFFFFFFFFFFFFFFFFFFFFFFFFFFFFFFFFFFFFFFF AND PUSH20 0xFFFFFFFFFFFFFFFFFFFFFFFFFFFFFFFFFFFFFFFF AND DUP2 MSTORE PUSH1 0x20 ADD SWAP1 DUP2 MSTORE PUSH1 0x20 ADD PUSH0 KECCAK256 PUSH0 DUP5 DUP2 MSTORE PUSH1 0x20 ADD SWAP1 DUP2 MSTORE PUSH1 0x20 ADD PUSH0 KECCAK256 SWAP1 POP DUP1 PUSH1 0x3 ADD PUSH0 SWAP1 SLOAD SWAP1 PUSH2 0x100 EXP SWAP1 DIV PUSH1 0xFF AND PUSH2 0x2415 JUMPI PUSH1 0x40 MLOAD PUSH32 0x8C379A000000000000000000000000000000000000000000000000000000000 DUP2 MSTORE PUSH1 0x4 ADD PUSH2 0x240C SWAP1 PUSH2 0x3837 JUMP JUMPDEST PUSH1 0x40 MLOAD DUP1 SWAP2 SUB SWAP1 REVERT JUMPDEST PUSH0 DUP2 PUSH1 0x3 ADD PUSH0 PUSH2 0x100 EXP DUP2 SLOAD DUP2 PUSH1 0xFF MUL NOT AND SWAP1 DUP4 ISZERO ISZERO MUL OR SWAP1 SSTORE POP PUSH0 DUP2 PUSH1 0x3 ADD PUSH1 0x1 PUSH2 0x100 EXP DUP2 SLOAD DUP2 PUSH1 0xFF MUL NOT AND SWAP1 DUP4 ISZERO ISZERO MUL OR SWAP1 SSTORE POP PUSH2 0x2456 DUP5 DUP5 PUSH2 0x2A01 JUMP JUMPDEST DUP3 DUP5 PUSH20 0xFFFFFFFFFFFFFFFFFFFFFFFFFFFFFFFFFFFFFFFF AND PUSH32 0x4B685AB8ACE04EF41F36CFA424816013417E507B3C57629FDD55778C29587527 PUSH1 0x40 MLOAD PUSH1 0x40 MLOAD DUP1 SWAP2 SUB SWAP1 LOG3 POP POP POP POP JUMP JUMPDEST PUSH32 0x1597BC5E34FF090612F53164E4E642D2AB4FC78BFFE19ED1B602A0D12559561A DUP2 JUMP JUMPDEST PUSH2 0x24CD DUP3 PUSH2 0xF6B JUMP JUMPDEST PUSH2 0x24D6 DUP2 PUSH2 0x27D1 JUMP JUMPDEST PUSH2 0x24E0 DUP4 DUP4 PUSH2 0x2918 JUMP JUMPDEST POP POP POP POP JUMP JUMPDEST PUSH32 0xA49807205CE4D355092EF5A8A18F56E8913CF4A201FBE287825B095693C21775 PUSH2 0x2510 DUP2 PUSH2 0x27D1 JUMP JUMPDEST PUSH2 0x2518 PUSH2 0x27E5 JUMP JUMPDEST PUSH0 PUSH1 0x3 PUSH0 DUP5 PUSH20 0xFFFFFFFFFFFFFFFFFFFFFFFFFFFFFFFFFFFFFFFF AND PUSH20 0xFFFFFFFFFFFFFFFFFFFFFFFFFFFFFFFFFFFFFFFF AND DUP2 MSTORE PUSH1 0x20 ADD SWAP1 DUP2 MSTORE PUSH1 0x20 ADD PUSH0 KECCAK256 SWAP1 POP DUP1 PUSH1 0x6 ADD PUSH1 0x1 SWAP1 SLOAD SWAP1 PUSH2 0x100 EXP SWAP1 DIV PUSH1 0xFF AND PUSH2 0x25A9 JUMPI PUSH1 0x40 MLOAD PUSH32 0x8C379A000000000000000000000000000000000000000000000000000000000 DUP2 MSTORE PUSH1 0x4 ADD PUSH2 0x25A0 SWAP1 PUSH2 0x3837 JUMP JUMPDEST PUSH1 0x40 MLOAD DUP1 SWAP2 SUB SWAP1 REVERT JUMPDEST PUSH0 DUP2 PUSH1 0x6 ADD PUSH1 0x1 PUSH2 0x100 EXP DUP2 SLOAD DUP2 PUSH1 0xFF MUL NOT AND SWAP1 DUP4 ISZERO ISZERO MUL OR SWAP1 SSTORE POP PUSH1 0x1 DUP2 PUSH1 0x6 ADD PUSH1 0x2 PUSH2 0x100 EXP DUP2 SLOAD DUP2 PUSH1 0xFF MUL NOT AND SWAP1 DUP4 ISZERO ISZERO MUL OR SWAP1 SSTORE POP DUP1 PUSH1 0x1 ADD PUSH1 0x2 PUSH0 DUP6 PUSH20 0xFFFFFFFFFFFFFFFFFFFFFFFFFFFFFFFFFFFFFFFF AND PUSH20 0xFFFFFFFFFFFFFFFFFFFFFFFFFFFFFFFFFFFFFFFF AND DUP2 MSTORE PUSH1 0x20 ADD SWAP1 DUP2 MSTORE PUSH1 0x20 ADD PUSH0 KECCAK256 PUSH0 DUP3 ADD DUP2 PUSH0 ADD SWAP1 DUP2 PUSH2 0x2635 SWAP2 SWAP1 PUSH2 0x3D66 JUMP JUMPDEST POP PUSH1 0x1 DUP3 ADD DUP2 PUSH1 0x1 ADD SWAP1 DUP2 PUSH2 0x264A SWAP2 SWAP1 PUSH2 0x3D66 JUMP JUMPDEST POP PUSH1 0x2 DUP3 ADD DUP2 PUSH1 0x2 ADD SWAP1 DUP2 PUSH2 0x265F SWAP2 SWAP1 PUSH2 0x3D66 JUMP JUMPDEST POP PUSH1 0x3 DUP3 ADD DUP2 PUSH1 0x3 ADD SWAP1 DUP2 PUSH2 0x2674 SWAP2 SWAP1 PUSH2 0x3D66 JUMP JUMPDEST POP PUSH1 0x4 DUP3 ADD PUSH0 SWAP1 SLOAD SWAP1 PUSH2 0x100 EXP SWAP1 DIV PUSH20 0xFFFFFFFFFFFFFFFFFFFFFFFFFFFFFFFFFFFFFFFF AND DUP2 PUSH1 0x4 ADD PUSH0 PUSH2 0x100 EXP DUP2 SLOAD DUP2 PUSH20 0xFFFFFFFFFFFFFFFFFFFFFFFFFFFFFFFFFFFFFFFF MUL NOT AND SWAP1 DUP4 PUSH20 0xFFFFFFFFFFFFFFFFFFFFFFFFFFFFFFFFFFFFFFFF AND MUL OR SWAP1 SSTORE POP SWAP1 POP POP DUP3 PUSH20 0xFFFFFFFFFFFFFFFFFFFFFFFFFFFFFFFFFFFFFFFF AND PUSH32 0xB6336AD1E7F2606F8F101B70BCEBBB79F8F2D57A54AF67E13F196FD0CB5F861E PUSH1 0x40 MLOAD PUSH1 0x40 MLOAD DUP1 SWAP2 SUB SWAP1 LOG2 DUP3 PUSH20 0xFFFFFFFFFFFFFFFFFFFFFFFFFFFFFFFFFFFFFFFF AND PUSH32 0xA267530518909239D6D9966F12BF391177DDE455B3233F6166AB8CD424F17FD5 PUSH1 0x40 MLOAD PUSH1 0x40 MLOAD DUP1 SWAP2 SUB SWAP1 LOG2 POP POP POP JUMP JUMPDEST PUSH0 PUSH32 0x1FFC9A700000000000000000000000000000000000000000000000000000000 PUSH28 0xFFFFFFFFFFFFFFFFFFFFFFFFFFFFFFFFFFFFFFFFFFFFFFFFFFFFFFFF NOT AND DUP3 PUSH28 0xFFFFFFFFFFFFFFFFFFFFFFFFFFFFFFFFFFFFFFFFFFFFFFFFFFFFFFFF NOT AND EQ SWAP1 POP SWAP2 SWAP1 POP JUMP JUMPDEST PUSH2 0x27E2 DUP2 PUSH2 0x27DD PUSH2 0x2C83 JUMP JUMPDEST PUSH2 0x2D4C JUMP JUMPDEST POP JUMP JUMPDEST PUSH2 0x27ED PUSH2 0x1396 JUMP JUMPDEST ISZERO PUSH2 0x282D JUMPI PUSH1 0x40 MLOAD PUSH32 0x8C379A000000000000000000000000000000000000000000000000000000000 DUP2 MSTORE PUSH1 0x4 ADD PUSH2 0x2824 SWAP1 PUSH2 0x3E95 JUMP JUMPDEST PUSH1 0x40 MLOAD DUP1 SWAP2 SUB SWAP1 REVERT JUMPDEST JUMP JUMPDEST PUSH0 PUSH2 0x283A DUP4 DUP4 PUSH2 0x214E JUMP JUMPDEST PUSH2 0x290E JUMPI PUSH1 0x1 PUSH0 DUP1 DUP6 DUP2 MSTORE PUSH1 0x20 ADD SWAP1 DUP2 MSTORE PUSH1 0x20 ADD PUSH0 KECCAK256 PUSH0 ADD PUSH0 DUP5 PUSH20 0xFFFFFFFFFFFFFFFFFFFFFFFFFFFFFFFFFFFFFFFF AND PUSH20 0xFFFFFFFFFFFFFFFFFFFFFFFFFFFFFFFFFFFFFFFF AND DUP2 MSTORE PUSH1 0x20 ADD SWAP1 DUP2 MSTORE PUSH1 0x20 ADD PUSH0 KECCAK256 PUSH0 PUSH2 0x100 EXP DUP2 SLOAD DUP2 PUSH1 0xFF MUL NOT AND SWAP1 DUP4 ISZERO ISZERO MUL OR SWAP1 SSTORE POP PUSH2 0x28AB PUSH2 0x2C83 JUMP JUMPDEST PUSH20 0xFFFFFFFFFFFFFFFFFFFFFFFFFFFFFFFFFFFFFFFF AND DUP3 PUSH20 0xFFFFFFFFFFFFFFFFFFFFFFFFFFFFFFFFFFFFFFFF AND DUP5 PUSH32 0x2F8788117E7EFF1D82E926EC794901D17C78024A50270940304540A733656F0D PUSH1 0x40 MLOAD PUSH1 0x40 MLOAD DUP1 SWAP2 SUB SWAP1 LOG4 PUSH1 0x1 SWAP1 POP PUSH2 0x2912 JUMP JUMPDEST PUSH0 SWAP1 POP JUMPDEST SWAP3 SWAP2 POP POP JUMP JUMPDEST PUSH0 PUSH2 0x2923 DUP4 DUP4 PUSH2 0x214E JUMP JUMPDEST ISZERO PUSH2 0x29F7 JUMPI PUSH0 DUP1 PUSH0 DUP6 DUP2 MSTORE PUSH1 0x20 ADD SWAP1 DUP2 MSTORE PUSH1 0x20 ADD PUSH0 KECCAK256 PUSH0 ADD PUSH0 DUP5 PUSH20 0xFFFFFFFFFFFFFFFFFFFFFFFFFFFFFFFFFFFFFFFF AND PUSH20 0xFFFFFFFFFFFFFFFFFFFFFFFFFFFFFFFFFFFFFFFF AND DUP2 MSTORE PUSH1 0x20 ADD SWAP1 DUP2 MSTORE PUSH1 0x20 ADD PUSH0 KECCAK256 PUSH0 PUSH2 0x100 EXP DUP2 SLOAD DUP2 PUSH1 0xFF MUL NOT AND SWAP1 DUP4 ISZERO ISZERO MUL OR SWAP1 SSTORE POP PUSH2 0x2994 PUSH2 0x2C83 JUMP JUMPDEST PUSH20 0xFFFFFFFFFFFFFFFFFFFFFFFFFFFFFFFFFFFFFFFF AND DUP3 PUSH20 0xFFFFFFFFFFFFFFFFFFFFFFFFFFFFFFFFFFFFFFFF AND DUP5 PUSH32 0xF6391F5C32D9C69D2A47EA670B442974B53935D1EDC7FD64EB21E047A839171B PUSH1 0x40 MLOAD PUSH1 0x40 MLOAD DUP1 SWAP2 SUB SWAP1 LOG4 PUSH1 0x1 SWAP1 POP PUSH2 0x29FB JUMP JUMPDEST PUSH0 SWAP1 POP JUMPDEST SWAP3 SWAP2 POP POP JUMP JUMPDEST PUSH0 JUMPDEST PUSH1 0x5 DUP1 SLOAD SWAP1 POP DUP2 LT ISZERO PUSH2 0x2C7E JUMPI DUP3 PUSH20 0xFFFFFFFFFFFFFFFFFFFFFFFFFFFFFFFFFFFFFFFF AND PUSH1 0x5 DUP3 DUP2 SLOAD DUP2 LT PUSH2 0x2A3B JUMPI PUSH2 0x2A3A PUSH2 0x3EB3 JUMP JUMPDEST JUMPDEST SWAP1 PUSH0 MSTORE PUSH1 0x20 PUSH0 KECCAK256 SWAP1 PUSH1 0x4 MUL ADD PUSH0 ADD PUSH0 SWAP1 SLOAD SWAP1 PUSH2 0x100 EXP SWAP1 DIV PUSH20 0xFFFFFFFFFFFFFFFFFFFFFFFFFFFFFFFFFFFFFFFF AND PUSH20 0xFFFFFFFFFFFFFFFFFFFFFFFFFFFFFFFFFFFFFFFF AND EQ DUP1 ISZERO PUSH2 0x2AAE JUMPI POP DUP2 PUSH1 0x5 DUP3 DUP2 SLOAD DUP2 LT PUSH2 0x2A9C JUMPI PUSH2 0x2A9B PUSH2 0x3EB3 JUMP JUMPDEST JUMPDEST SWAP1 PUSH0 MSTORE PUSH1 0x20 PUSH0 KECCAK256 SWAP1 PUSH1 0x4 MUL ADD PUSH1 0x1 ADD SLOAD EQ JUMPDEST ISZERO PUSH2 0x2C71 JUMPI PUSH1 0x5 PUSH1 0x1 PUSH1 0x5 DUP1 SLOAD SWAP1 POP PUSH2 0x2AC7 SWAP2 SWAP1 PUSH2 0x3F0D JUMP JUMPDEST DUP2 SLOAD DUP2 LT PUSH2 0x2AD8 JUMPI PUSH2 0x2AD7 PUSH2 0x3EB3 JUMP JUMPDEST JUMPDEST SWAP1 PUSH0 MSTORE PUSH1 0x20 PUSH0 KECCAK256 SWAP1 PUSH1 0x4 MUL ADD PUSH1 0x5 DUP3 DUP2 SLOAD DUP2 LT PUSH2 0x2AF8 JUMPI PUSH2 0x2AF7 PUSH2 0x3EB3 JUMP JUMPDEST JUMPDEST SWAP1 PUSH0 MSTORE PUSH1 0x20 PUSH0 KECCAK256 SWAP1 PUSH1 0x4 MUL ADD PUSH0 DUP3 ADD PUSH0 SWAP1 SLOAD SWAP1 PUSH2 0x100 EXP SWAP1 DIV PUSH20 0xFFFFFFFFFFFFFFFFFFFFFFFFFFFFFFFFFFFFFFFF AND DUP2 PUSH0 ADD PUSH0 PUSH2 0x100 EXP DUP2 SLOAD DUP2 PUSH20 0xFFFFFFFFFFFFFFFFFFFFFFFFFFFFFFFFFFFFFFFF MUL NOT AND SWAP1 DUP4 PUSH20 0xFFFFFFFFFFFFFFFFFFFFFFFFFFFFFFFFFFFFFFFF AND MUL OR SWAP1 SSTORE POP PUSH1 0x1 DUP3 ADD SLOAD DUP2 PUSH1 0x1 ADD SSTORE PUSH1 0x2 DUP3 ADD DUP2 PUSH1 0x2 ADD SWAP1 DUP2 PUSH2 0x2B85 SWAP2 SWAP1 PUSH2 0x3D66 JUMP JUMPDEST POP PUSH1 0x3 DUP3 ADD PUSH0 SWAP1 SLOAD SWAP1 PUSH2 0x100 EXP SWAP1 DIV PUSH1 0xFF AND DUP2 PUSH1 0x3 ADD PUSH0 PUSH2 0x100 EXP DUP2 SLOAD DUP2 PUSH1 0xFF MUL NOT AND SWAP1 DUP4 ISZERO ISZERO MUL OR SWAP1 SSTORE POP PUSH1 0x3 DUP3 ADD PUSH1 0x1 SWAP1 SLOAD SWAP1 PUSH2 0x100 EXP SWAP1 DIV PUSH1 0xFF AND DUP2 PUSH1 0x3 ADD PUSH1 0x1 PUSH2 0x100 EXP DUP2 SLOAD DUP2 PUSH1 0xFF MUL NOT AND SWAP1 DUP4 ISZERO ISZERO MUL OR SWAP1 SSTORE POP SWAP1 POP POP PUSH1 0x5 DUP1 SLOAD DUP1 PUSH2 0x2BF3 JUMPI PUSH2 0x2BF2 PUSH2 0x3F40 JUMP JUMPDEST JUMPDEST PUSH1 0x1 SWAP1 SUB DUP2 DUP2 SWAP1 PUSH0 MSTORE PUSH1 0x20 PUSH0 KECCAK256 SWAP1 PUSH1 0x4 MUL ADD PUSH0 DUP1 DUP3 ADD PUSH0 PUSH2 0x100 EXP DUP2 SLOAD SWAP1 PUSH20 0xFFFFFFFFFFFFFFFFFFFFFFFFFFFFFFFFFFFFFFFF MUL NOT AND SWAP1 SSTORE PUSH1 0x1 DUP3 ADD PUSH0 SWAP1 SSTORE PUSH1 0x2 DUP3 ADD PUSH0 PUSH2 0x2C41 SWAP2 SWAP1 PUSH2 0x2DE6 JUMP JUMPDEST PUSH1 0x3 DUP3 ADD PUSH0 PUSH2 0x100 EXP DUP2 SLOAD SWAP1 PUSH1 0xFF MUL NOT AND SWAP1 SSTORE PUSH1 0x3 DUP3 ADD PUSH1 0x1 PUSH2 0x100 EXP DUP2 SLOAD SWAP1 PUSH1 0xFF MUL NOT AND SWAP1 SSTORE POP POP SWAP1 SSTORE PUSH2 0x2C7E JUMP JUMPDEST DUP1 DUP1 PUSH1 0x1 ADD SWAP2 POP POP PUSH2 0x2A03 JUMP JUMPDEST POP POP POP JUMP JUMPDEST PUSH0 CALLER SWAP1 POP SWAP1 JUMP JUMPDEST PUSH2 0x2C92 PUSH2 0x2D9D JUMP JUMPDEST PUSH0 PUSH1 0x1 PUSH0 PUSH2 0x100 EXP DUP2 SLOAD DUP2 PUSH1 0xFF MUL NOT AND SWAP1 DUP4 ISZERO ISZERO MUL OR SWAP1 SSTORE POP PUSH32 0x5DB9EE0A495BF2E6FF9C91A7834C1BA4FDD244A5E8AA4E537BD38AEAE4B073AA PUSH2 0x2CD4 PUSH2 0x2C83 JUMP JUMPDEST PUSH1 0x40 MLOAD PUSH2 0x2CE1 SWAP2 SWAP1 PUSH2 0x3F6D JUMP JUMPDEST PUSH1 0x40 MLOAD DUP1 SWAP2 SUB SWAP1 LOG1 JUMP JUMPDEST PUSH2 0x2CF3 PUSH2 0x27E5 JUMP JUMPDEST PUSH1 0x1 DUP1 PUSH0 PUSH2 0x100 EXP DUP2 SLOAD DUP2 PUSH1 0xFF MUL NOT AND SWAP1 DUP4 ISZERO ISZERO MUL OR SWAP1 SSTORE POP PUSH32 0x62E78CEA01BEE320CD4E420270B5EA74000D11B0C9F74754EBDBFC544B05A258 PUSH2 0x2D35 PUSH2 0x2C83 JUMP JUMPDEST PUSH1 0x40 MLOAD PUSH2 0x2D42 SWAP2 SWAP1 PUSH2 0x3F6D JUMP JUMPDEST PUSH1 0x40 MLOAD DUP1 SWAP2 SUB SWAP1 LOG1 JUMP JUMPDEST PUSH2 0x2D56 DUP3 DUP3 PUSH2 0x214E JUMP JUMPDEST PUSH2 0x2D99 JUMPI DUP1 DUP3 PUSH1 0x40 MLOAD PUSH32 0xE2517D3F00000000000000000000000000000000000000000000000000000000 DUP2 MSTORE PUSH1 0x4 ADD PUSH2 0x2D90 SWAP3 SWAP2 SWAP1 PUSH2 0x3F86 JUMP JUMPDEST PUSH1 0x40 MLOAD DUP1 SWAP2 SUB SWAP1 REVERT JUMPDEST POP POP JUMP JUMPDEST PUSH2 0x2DA5 PUSH2 0x1396 JUMP JUMPDEST PUSH2 0x2DE4 JUMPI PUSH1 0x40 MLOAD PUSH32 0x8C379A000000000000000000000000000000000000000000000000000000000 DUP2 MSTORE PUSH1 0x4 ADD PUSH2 0x2DDB SWAP1 PUSH2 0x3FF7 JUMP JUMPDEST PUSH1 0x40 MLOAD DUP1 SWAP2 SUB SWAP1 REVERT JUMPDEST JUMP JUMPDEST POP DUP1 SLOAD PUSH2 0x2DF2 SWAP1 PUSH2 0x3755 JUMP JUMPDEST PUSH0 DUP3 SSTORE DUP1 PUSH1 0x1F LT PUSH2 0x2E03 JUMPI POP PUSH2 0x2E20 JUMP JUMPDEST PUSH1 0x1F ADD PUSH1 0x20 SWAP1 DIV SWAP1 PUSH0 MSTORE PUSH1 0x20 PUSH0 KECCAK256 SWAP1 DUP2 ADD SWAP1 PUSH2 0x2E1F SWAP2 SWAP1 PUSH2 0x2E23 JUMP JUMPDEST JUMPDEST POP JUMP JUMPDEST JUMPDEST DUP1 DUP3 GT ISZERO PUSH2 0x2E3A JUMPI PUSH0 DUP2 PUSH0 SWAP1 SSTORE POP PUSH1 0x1 ADD PUSH2 0x2E24 JUMP JUMPDEST POP SWAP1 JUMP JUMPDEST PUSH0 PUSH1 0x40 MLOAD SWAP1 POP SWAP1 JUMP JUMPDEST PUSH0 DUP1 REVERT JUMPDEST PUSH0 DUP1 REVERT JUMPDEST PUSH0 PUSH32 0xFFFFFFFF00000000000000000000000000000000000000000000000000000000 DUP3 AND SWAP1 POP SWAP2 SWAP1 POP JUMP JUMPDEST PUSH2 0x2E83 DUP2 PUSH2 0x2E4F JUMP JUMPDEST DUP2 EQ PUSH2 0x2E8D JUMPI PUSH0 DUP1 REVERT JUMPDEST POP JUMP JUMPDEST PUSH0 DUP2 CALLDATALOAD SWAP1 POP PUSH2 0x2E9E DUP2 PUSH2 0x2E7A JUMP JUMPDEST SWAP3 SWAP2 POP POP JUMP JUMPDEST PUSH0 PUSH1 0x20 DUP3 DUP5 SUB SLT ISZERO PUSH2 0x2EB9 JUMPI PUSH2 0x2EB8 PUSH2 0x2E47 JUMP JUMPDEST JUMPDEST PUSH0 PUSH2 0x2EC6 DUP5 DUP3 DUP6 ADD PUSH2 0x2E90 JUMP JUMPDEST SWAP2 POP POP SWAP3 SWAP2 POP POP JUMP JUMPDEST PUSH0 DUP2 ISZERO ISZERO SWAP1 POP SWAP2 SWAP1 POP JUMP JUMPDEST PUSH2 0x2EE3 DUP2 PUSH2 0x2ECF JUMP JUMPDEST DUP3 MSTORE POP POP JUMP JUMPDEST PUSH0 PUSH1 0x20 DUP3 ADD SWAP1 POP PUSH2 0x2EFC PUSH0 DUP4 ADD DUP5 PUSH2 0x2EDA JUMP JUMPDEST SWAP3 SWAP2 POP POP JUMP JUMPDEST PUSH0 PUSH20 0xFFFFFFFFFFFFFFFFFFFFFFFFFFFFFFFFFFFFFFFF DUP3 AND SWAP1 POP SWAP2 SWAP1 POP JUMP JUMPDEST PUSH0 PUSH2 0x2F2B DUP3 PUSH2 0x2F02 JUMP JUMPDEST SWAP1 POP SWAP2 SWAP1 POP JUMP JUMPDEST PUSH2 0x2F3B DUP2 PUSH2 0x2F21 JUMP JUMPDEST DUP2 EQ PUSH2 0x2F45 JUMPI PUSH0 DUP1 REVERT JUMPDEST POP JUMP JUMPDEST PUSH0 DUP2 CALLDATALOAD SWAP1 POP PUSH2 0x2F56 DUP2 PUSH2 0x2F32 JUMP JUMPDEST SWAP3 SWAP2 POP POP JUMP JUMPDEST PUSH0 PUSH1 0x20 DUP3 DUP5 SUB SLT ISZERO PUSH2 0x2F71 JUMPI PUSH2 0x2F70 PUSH2 0x2E47 JUMP JUMPDEST JUMPDEST PUSH0 PUSH2 0x2F7E DUP5 DUP3 DUP6 ADD PUSH2 0x2F48 JUMP JUMPDEST SWAP2 POP POP SWAP3 SWAP2 POP POP JUMP JUMPDEST PUSH2 0x2F90 DUP2 PUSH2 0x2F21 JUMP JUMPDEST DUP3 MSTORE POP POP JUMP JUMPDEST PUSH0 DUP2 MLOAD SWAP1 POP SWAP2 SWAP1 POP JUMP JUMPDEST PUSH0 DUP3 DUP3 MSTORE PUSH1 0x20 DUP3 ADD SWAP1 POP SWAP3 SWAP2 POP POP JUMP JUMPDEST DUP3 DUP2 DUP4 MCOPY PUSH0 DUP4 DUP4 ADD MSTORE POP POP POP JUMP JUMPDEST PUSH0 PUSH1 0x1F NOT PUSH1 0x1F DUP4 ADD AND SWAP1 POP SWAP2 SWAP1 POP JUMP JUMPDEST PUSH0 PUSH2 0x2FD8 DUP3 PUSH2 0x2F96 JUMP JUMPDEST PUSH2 0x2FE2 DUP2 DUP6 PUSH2 0x2FA0 JUMP JUMPDEST SWAP4 POP PUSH2 0x2FF2 DUP2 DUP6 PUSH1 0x20 DUP7 ADD PUSH2 0x2FB0 JUMP JUMPDEST PUSH2 0x2FFB DUP2 PUSH2 0x2FBE JUMP JUMPDEST DUP5 ADD SWAP2 POP POP SWAP3 SWAP2 POP POP JUMP JUMPDEST PUSH2 0x300F DUP2 PUSH2 0x2F21 JUMP JUMPDEST DUP3 MSTORE POP POP JUMP JUMPDEST PUSH0 PUSH1 0xA0 DUP4 ADD PUSH0 DUP4 ADD MLOAD DUP5 DUP3 SUB PUSH0 DUP7 ADD MSTORE PUSH2 0x302F DUP3 DUP3 PUSH2 0x2FCE JUMP JUMPDEST SWAP2 POP POP PUSH1 0x20 DUP4 ADD MLOAD DUP5 DUP3 SUB PUSH1 0x20 DUP7 ADD MSTORE PUSH2 0x3049 DUP3 DUP3 PUSH2 0x2FCE JUMP JUMPDEST SWAP2 POP POP PUSH1 0x40 DUP4 ADD MLOAD DUP5 DUP3 SUB PUSH1 0x40 DUP7 ADD MSTORE PUSH2 0x3063 DUP3 DUP3 PUSH2 0x2FCE JUMP JUMPDEST SWAP2 POP POP PUSH1 0x60 DUP4 ADD MLOAD DUP5 DUP3 SUB PUSH1 0x60 DUP7 ADD MSTORE PUSH2 0x307D DUP3 DUP3 PUSH2 0x2FCE JUMP JUMPDEST SWAP2 POP POP PUSH1 0x80 DUP4 ADD MLOAD PUSH2 0x3092 PUSH1 0x80 DUP7 ADD DUP3 PUSH2 0x3006 JUMP JUMPDEST POP DUP1 SWAP2 POP POP SWAP3 SWAP2 POP POP JUMP JUMPDEST PUSH0 PUSH1 0xA0 DUP3 ADD SWAP1 POP PUSH2 0x30B0 PUSH0 DUP4 ADD DUP9 PUSH2 0x2F87 JUMP JUMPDEST DUP2 DUP2 SUB PUSH1 0x20 DUP4 ADD MSTORE PUSH2 0x30C2 DUP2 DUP8 PUSH2 0x3015 JUMP JUMPDEST SWAP1 POP PUSH2 0x30D1 PUSH1 0x40 DUP4 ADD DUP7 PUSH2 0x2EDA JUMP JUMPDEST PUSH2 0x30DE PUSH1 0x60 DUP4 ADD DUP6 PUSH2 0x2EDA JUMP JUMPDEST PUSH2 0x30EB PUSH1 0x80 DUP4 ADD DUP5 PUSH2 0x2EDA JUMP JUMPDEST SWAP7 SWAP6 POP POP POP POP POP POP JUMP JUMPDEST PUSH0 DUP2 SWAP1 POP SWAP2 SWAP1 POP JUMP JUMPDEST PUSH2 0x3107 DUP2 PUSH2 0x30F5 JUMP JUMPDEST DUP2 EQ PUSH2 0x3111 JUMPI PUSH0 DUP1 REVERT JUMPDEST POP JUMP JUMPDEST PUSH0 DUP2 CALLDATALOAD SWAP1 POP PUSH2 0x3122 DUP2 PUSH2 0x30FE JUMP JUMPDEST SWAP3 SWAP2 POP POP JUMP JUMPDEST PUSH0 DUP1 PUSH1 0x40 DUP4 DUP6 SUB SLT ISZERO PUSH2 0x313E JUMPI PUSH2 0x313D PUSH2 0x2E47 JUMP JUMPDEST JUMPDEST PUSH0 PUSH2 0x314B DUP6 DUP3 DUP7 ADD PUSH2 0x2F48 JUMP JUMPDEST SWAP3 POP POP PUSH1 0x20 PUSH2 0x315C DUP6 DUP3 DUP7 ADD PUSH2 0x3114 JUMP JUMPDEST SWAP2 POP POP SWAP3 POP SWAP3 SWAP1 POP JUMP JUMPDEST PUSH2 0x316F DUP2 PUSH2 0x30F5 JUMP JUMPDEST DUP3 MSTORE POP POP JUMP JUMPDEST PUSH0 DUP3 DUP3 MSTORE PUSH1 0x20 DUP3 ADD SWAP1 POP SWAP3 SWAP2 POP POP JUMP JUMPDEST PUSH0 PUSH2 0x318F DUP3 PUSH2 0x2F96 JUMP JUMPDEST PUSH2 0x3199 DUP2 DUP6 PUSH2 0x3175 JUMP JUMPDEST SWAP4 POP PUSH2 0x31A9 DUP2 DUP6 PUSH1 0x20 DUP7 ADD PUSH2 0x2FB0 JUMP JUMPDEST PUSH2 0x31B2 DUP2 PUSH2 0x2FBE JUMP JUMPDEST DUP5 ADD SWAP2 POP POP SWAP3 SWAP2 POP POP JUMP JUMPDEST PUSH0 PUSH1 0xA0 DUP3 ADD SWAP1 POP PUSH2 0x31D0 PUSH0 DUP4 ADD DUP9 PUSH2 0x2F87 JUMP JUMPDEST PUSH2 0x31DD PUSH1 0x20 DUP4 ADD DUP8 PUSH2 0x3166 JUMP JUMPDEST DUP2 DUP2 SUB PUSH1 0x40 DUP4 ADD MSTORE PUSH2 0x31EF DUP2 DUP7 PUSH2 0x3185 JUMP JUMPDEST SWAP1 POP PUSH2 0x31FE PUSH1 0x60 DUP4 ADD DUP6 PUSH2 0x2EDA JUMP JUMPDEST PUSH2 0x320B PUSH1 0x80 DUP4 ADD DUP5 PUSH2 0x2EDA JUMP JUMPDEST SWAP7 SWAP6 POP POP POP POP POP POP JUMP JUMPDEST PUSH0 PUSH1 0xA0 DUP3 ADD SWAP1 POP DUP2 DUP2 SUB PUSH0 DUP4 ADD MSTORE PUSH2 0x322D DUP2 DUP9 PUSH2 0x3185 JUMP JUMPDEST SWAP1 POP DUP2 DUP2 SUB PUSH1 0x20 DUP4 ADD MSTORE PUSH2 0x3241 DUP2 DUP8 PUSH2 0x3185 JUMP JUMPDEST SWAP1 POP DUP2 DUP2 SUB PUSH1 0x40 DUP4 ADD MSTORE PUSH2 0x3255 DUP2 DUP7 PUSH2 0x3185 JUMP JUMPDEST SWAP1 POP DUP2 DUP2 SUB PUSH1 0x60 DUP4 ADD MSTORE PUSH2 0x3269 DUP2 DUP6 PUSH2 0x3185 JUMP JUMPDEST SWAP1 POP PUSH2 0x3278 PUSH1 0x80 DUP4 ADD DUP5 PUSH2 0x2F87 JUMP JUMPDEST SWAP7 SWAP6 POP POP POP POP POP POP JUMP JUMPDEST PUSH0 PUSH1 0x20 DUP3 DUP5 SUB SLT ISZERO PUSH2 0x3297 JUMPI PUSH2 0x3296 PUSH2 0x2E47 JUMP JUMPDEST JUMPDEST PUSH0 PUSH2 0x32A4 DUP5 DUP3 DUP6 ADD PUSH2 0x3114 JUMP JUMPDEST SWAP2 POP POP SWAP3 SWAP2 POP POP JUMP JUMPDEST PUSH0 PUSH1 0x20 DUP3 ADD SWAP1 POP PUSH2 0x32C0 PUSH0 DUP4 ADD DUP5 PUSH2 0x3166 JUMP JUMPDEST SWAP3 SWAP2 POP POP JUMP JUMPDEST PUSH0 DUP1 PUSH1 0x40 DUP4 DUP6 SUB SLT ISZERO PUSH2 0x32DC JUMPI PUSH2 0x32DB PUSH2 0x2E47 JUMP JUMPDEST JUMPDEST PUSH0 PUSH2 0x32E9 DUP6 DUP3 DUP7 ADD PUSH2 0x3114 JUMP JUMPDEST SWAP3 POP POP PUSH1 0x20 PUSH2 0x32FA DUP6 DUP3 DUP7 ADD PUSH2 0x2F48 JUMP JUMPDEST SWAP2 POP POP SWAP3 POP SWAP3 SWAP1 POP JUMP JUMPDEST PUSH0 DUP2 SWAP1 POP SWAP2 SWAP1 POP JUMP JUMPDEST PUSH2 0x3316 DUP2 PUSH2 0x3304 JUMP JUMPDEST DUP2 EQ PUSH2 0x3320 JUMPI PUSH0 DUP1 REVERT JUMPDEST POP JUMP JUMPDEST PUSH0 DUP2 CALLDATALOAD SWAP1 POP PUSH2 0x3331 DUP2 PUSH2 0x330D JUMP JUMPDEST SWAP3 SWAP2 POP POP JUMP JUMPDEST PUSH0 PUSH1 0x20 DUP3 DUP5 SUB SLT ISZERO PUSH2 0x334C JUMPI PUSH2 0x334B PUSH2 0x2E47 JUMP JUMPDEST JUMPDEST PUSH0 PUSH2 0x3359 DUP5 DUP3 DUP6 ADD PUSH2 0x3323 JUMP JUMPDEST SWAP2 POP POP SWAP3 SWAP2 POP POP JUMP JUMPDEST PUSH0 DUP1 REVERT JUMPDEST PUSH0 DUP1 REVERT JUMPDEST PUSH32 0x4E487B7100000000000000000000000000000000000000000000000000000000 PUSH0 MSTORE PUSH1 0x41 PUSH1 0x4 MSTORE PUSH1 0x24 PUSH0 REVERT JUMPDEST PUSH2 0x33A0 DUP3 PUSH2 0x2FBE JUMP JUMPDEST DUP2 ADD DUP2 DUP2 LT PUSH8 0xFFFFFFFFFFFFFFFF DUP3 GT OR ISZERO PUSH2 0x33BF JUMPI PUSH2 0x33BE PUSH2 0x336A JUMP JUMPDEST JUMPDEST DUP1 PUSH1 0x40 MSTORE POP POP POP JUMP JUMPDEST PUSH0 PUSH2 0x33D1 PUSH2 0x2E3E JUMP JUMPDEST SWAP1 POP PUSH2 0x33DD DUP3 DUP3 PUSH2 0x3397 JUMP JUMPDEST SWAP2 SWAP1 POP JUMP JUMPDEST PUSH0 PUSH8 0xFFFFFFFFFFFFFFFF DUP3 GT ISZERO PUSH2 0x33FC JUMPI PUSH2 0x33FB PUSH2 0x336A JUMP JUMPDEST JUMPDEST PUSH2 0x3405 DUP3 PUSH2 0x2FBE JUMP JUMPDEST SWAP1 POP PUSH1 0x20 DUP2 ADD SWAP1 POP SWAP2 SWAP1 POP JUMP JUMPDEST DUP3 DUP2 DUP4 CALLDATACOPY PUSH0 DUP4 DUP4 ADD MSTORE POP POP POP JUMP JUMPDEST PUSH0 PUSH2 0x3432 PUSH2 0x342D DUP5 PUSH2 0x33E2 JUMP JUMPDEST PUSH2 0x33C8 JUMP JUMPDEST SWAP1 POP DUP3 DUP2 MSTORE PUSH1 0x20 DUP2 ADD DUP5 DUP5 DUP5 ADD GT ISZERO PUSH2 0x344E JUMPI PUSH2 0x344D PUSH2 0x3366 JUMP JUMPDEST JUMPDEST PUSH2 0x3459 DUP5 DUP3 DUP6 PUSH2 0x3412 JUMP JUMPDEST POP SWAP4 SWAP3 POP POP POP JUMP JUMPDEST PUSH0 DUP3 PUSH1 0x1F DUP4 ADD SLT PUSH2 0x3475 JUMPI PUSH2 0x3474 PUSH2 0x3362 JUMP JUMPDEST JUMPDEST DUP2 CALLDATALOAD PUSH2 0x3485 DUP5 DUP3 PUSH1 0x20 DUP7 ADD PUSH2 0x3420 JUMP JUMPDEST SWAP2 POP POP SWAP3 SWAP2 POP POP JUMP JUMPDEST PUSH0 DUP1 PUSH1 0x40 DUP4 DUP6 SUB SLT ISZERO PUSH2 0x34A4 JUMPI PUSH2 0x34A3 PUSH2 0x2E47 JUMP JUMPDEST JUMPDEST PUSH0 PUSH2 0x34B1 DUP6 DUP3 DUP7 ADD PUSH2 0x3114 JUMP JUMPDEST SWAP3 POP POP PUSH1 0x20 DUP4 ADD CALLDATALOAD PUSH8 0xFFFFFFFFFFFFFFFF DUP2 GT ISZERO PUSH2 0x34D2 JUMPI PUSH2 0x34D1 PUSH2 0x2E4B JUMP JUMPDEST JUMPDEST PUSH2 0x34DE DUP6 DUP3 DUP7 ADD PUSH2 0x3461 JUMP JUMPDEST SWAP2 POP POP SWAP3 POP SWAP3 SWAP1 POP JUMP JUMPDEST PUSH0 DUP1 PUSH0 DUP1 PUSH1 0x80 DUP6 DUP8 SUB SLT ISZERO PUSH2 0x3500 JUMPI PUSH2 0x34FF PUSH2 0x2E47 JUMP JUMPDEST JUMPDEST PUSH0 DUP6 ADD CALLDATALOAD PUSH8 0xFFFFFFFFFFFFFFFF DUP2 GT ISZERO PUSH2 0x351D JUMPI PUSH2 0x351C PUSH2 0x2E4B JUMP JUMPDEST JUMPDEST PUSH2 0x3529 DUP8 DUP3 DUP9 ADD PUSH2 0x3461 JUMP JUMPDEST SWAP5 POP POP PUSH1 0x20 DUP6 ADD CALLDATALOAD PUSH8 0xFFFFFFFFFFFFFFFF DUP2 GT ISZERO PUSH2 0x354A JUMPI PUSH2 0x3549 PUSH2 0x2E4B JUMP JUMPDEST JUMPDEST PUSH2 0x3556 DUP8 DUP3 DUP9 ADD PUSH2 0x3461 JUMP JUMPDEST SWAP4 POP POP PUSH1 0x40 DUP6 ADD CALLDATALOAD PUSH8 0xFFFFFFFFFFFFFFFF DUP2 GT ISZERO PUSH2 0x3577 JUMPI PUSH2 0x3576 PUSH2 0x2E4B JUMP JUMPDEST JUMPDEST PUSH2 0x3583 DUP8 DUP3 DUP9 ADD PUSH2 0x3461 JUMP JUMPDEST SWAP3 POP POP PUSH1 0x60 DUP6 ADD CALLDATALOAD PUSH8 0xFFFFFFFFFFFFFFFF DUP2 GT ISZERO PUSH2 0x35A4 JUMPI PUSH2 0x35A3 PUSH2 0x2E4B JUMP JUMPDEST JUMPDEST PUSH2 0x35B0 DUP8 DUP3 DUP9 ADD PUSH2 0x3461 JUMP JUMPDEST SWAP2 POP POP SWAP3 SWAP6 SWAP2 SWAP5 POP SWAP3 POP JUMP JUMPDEST PUSH0 DUP2 MLOAD SWAP1 POP SWAP2 SWAP1 POP JUMP JUMPDEST PUSH0 DUP3 DUP3 MSTORE PUSH1 0x20 DUP3 ADD SWAP1 POP SWAP3 SWAP2 POP POP JUMP JUMPDEST PUSH0 DUP2 SWAP1 POP PUSH1 0x20 DUP3 ADD SWAP1 POP SWAP2 SWAP1 POP JUMP JUMPDEST PUSH2 0x35EE DUP2 PUSH2 0x30F5 JUMP JUMPDEST DUP3 MSTORE POP POP JUMP JUMPDEST PUSH2 0x35FD DUP2 PUSH2 0x2ECF JUMP JUMPDEST DUP3 MSTORE POP POP JUMP JUMPDEST PUSH0 PUSH1 0xA0 DUP4 ADD PUSH0 DUP4 ADD MLOAD PUSH2 0x3618 PUSH0 DUP7 ADD DUP3 PUSH2 0x3006 JUMP JUMPDEST POP PUSH1 0x20 DUP4 ADD MLOAD PUSH2 0x362B PUSH1 0x20 DUP7 ADD DUP3 PUSH2 0x35E5 JUMP JUMPDEST POP PUSH1 0x40 DUP4 ADD MLOAD DUP5 DUP3 SUB PUSH1 0x40 DUP7 ADD MSTORE PUSH2 0x3643 DUP3 DUP3 PUSH2 0x2FCE JUMP JUMPDEST SWAP2 POP POP PUSH1 0x60 DUP4 ADD MLOAD PUSH2 0x3658 PUSH1 0x60 DUP7 ADD DUP3 PUSH2 0x35F4 JUMP JUMPDEST POP PUSH1 0x80 DUP4 ADD MLOAD PUSH2 0x366B PUSH1 0x80 DUP7 ADD DUP3 PUSH2 0x35F4 JUMP JUMPDEST POP DUP1 SWAP2 POP POP SWAP3 SWAP2 POP POP JUMP JUMPDEST PUSH0 PUSH2 0x3681 DUP4 DUP4 PUSH2 0x3603 JUMP JUMPDEST SWAP1 POP SWAP3 SWAP2 POP POP JUMP JUMPDEST PUSH0 PUSH1 0x20 DUP3 ADD SWAP1 POP SWAP2 SWAP1 POP JUMP JUMPDEST PUSH0 PUSH2 0x369F DUP3 PUSH2 0x35BC JUMP JUMPDEST PUSH2 0x36A9 DUP2 DUP6 PUSH2 0x35C6 JUMP JUMPDEST SWAP4 POP DUP4 PUSH1 0x20 DUP3 MUL DUP6 ADD PUSH2 0x36BB DUP6 PUSH2 0x35D6 JUMP JUMPDEST DUP1 PUSH0 JUMPDEST DUP6 DUP2 LT ISZERO PUSH2 0x36F6 JUMPI DUP5 DUP5 SUB DUP10 MSTORE DUP2 MLOAD PUSH2 0x36D7 DUP6 DUP3 PUSH2 0x3676 JUMP JUMPDEST SWAP5 POP PUSH2 0x36E2 DUP4 PUSH2 0x3689 JUMP JUMPDEST SWAP3 POP PUSH1 0x20 DUP11 ADD SWAP10 POP POP PUSH1 0x1 DUP2 ADD SWAP1 POP PUSH2 0x36BE JUMP JUMPDEST POP DUP3 SWAP8 POP DUP8 SWAP6 POP POP POP POP POP POP SWAP3 SWAP2 POP POP JUMP JUMPDEST PUSH0 PUSH1 0x20 DUP3 ADD SWAP1 POP DUP2 DUP2 SUB PUSH0 DUP4 ADD MSTORE PUSH2 0x3720 DUP2 DUP5 PUSH2 0x3695 JUMP JUMPDEST SWAP1 POP SWAP3 SWAP2 POP POP JUMP JUMPDEST PUSH32 0x4E487B7100000000000000000000000000000000000000000000000000000000 PUSH0 MSTORE PUSH1 0x22 PUSH1 0x4 MSTORE PUSH1 0x24 PUSH0 REVERT JUMPDEST PUSH0 PUSH1 0x2 DUP3 DIV SWAP1 POP PUSH1 0x1 DUP3 AND DUP1 PUSH2 0x376C JUMPI PUSH1 0x7F DUP3 AND SWAP2 POP JUMPDEST PUSH1 0x20 DUP3 LT DUP2 SUB PUSH2 0x377F JUMPI PUSH2 0x377E PUSH2 0x3728 JUMP JUMPDEST JUMPDEST POP SWAP2 SWAP1 POP JUMP JUMPDEST PUSH32 0x496E76616C696420616464726573730000000000000000000000000000000000 PUSH0 DUP3 ADD MSTORE POP JUMP JUMPDEST PUSH0 PUSH2 0x37B9 PUSH1 0xF DUP4 PUSH2 0x3175 JUMP JUMPDEST SWAP2 POP PUSH2 0x37C4 DUP3 PUSH2 0x3785 JUMP JUMPDEST PUSH1 0x20 DUP3 ADD SWAP1 POP SWAP2 SWAP1 POP JUMP JUMPDEST PUSH0 PUSH1 0x20 DUP3 ADD SWAP1 POP DUP2 DUP2 SUB PUSH0 DUP4 ADD MSTORE PUSH2 0x37E6 DUP2 PUSH2 0x37AD JUMP JUMPDEST SWAP1 POP SWAP2 SWAP1 POP JUMP JUMPDEST PUSH32 0x4E6F2070656E64696E6720726571756573740000000000000000000000000000 PUSH0 DUP3 ADD MSTORE POP JUMP JUMPDEST PUSH0 PUSH2 0x3821 PUSH1 0x12 DUP4 PUSH2 0x3175 JUMP JUMPDEST SWAP2 POP PUSH2 0x382C DUP3 PUSH2 0x37ED JUMP JUMPDEST PUSH1 0x20 DUP3 ADD SWAP1 POP SWAP2 SWAP1 POP JUMP JUMPDEST PUSH0 PUSH1 0x20 DUP3 ADD SWAP1 POP DUP2 DUP2 SUB PUSH0 DUP4 ADD MSTORE PUSH2 0x384E DUP2 PUSH2 0x3815 JUMP JUMPDEST SWAP1 POP SWAP2 SWAP1 POP JUMP JUMPDEST PUSH32 0x416C72656164792068617320726F6C6500000000000000000000000000000000 PUSH0 DUP3 ADD MSTORE POP JUMP JUMPDEST PUSH0 PUSH2 0x3889 PUSH1 0x10 DUP4 PUSH2 0x3175 JUMP JUMPDEST SWAP2 POP PUSH2 0x3894 DUP3 PUSH2 0x3855 JUMP JUMPDEST PUSH1 0x20 DUP3 ADD SWAP1 POP SWAP2 SWAP1 POP JUMP JUMPDEST PUSH0 PUSH1 0x20 DUP3 ADD SWAP1 POP DUP2 DUP2 SUB PUSH0 DUP4 ADD MSTORE PUSH2 0x38B6 DUP2 PUSH2 0x387D JUMP JUMPDEST SWAP1 POP SWAP2 SWAP1 POP JUMP JUMPDEST PUSH32 0x526561736F6E2072657175697265640000000000000000000000000000000000 PUSH0 DUP3 ADD MSTORE POP JUMP JUMPDEST PUSH0 PUSH2 0x38F1 PUSH1 0xF DUP4 PUSH2 0x3175 JUMP JUMPDEST SWAP2 POP PUSH2 0x38FC DUP3 PUSH2 0x38BD JUMP JUMPDEST PUSH1 0x20 DUP3 ADD SWAP1 POP SWAP2 SWAP1 POP JUMP JUMPDEST PUSH0 PUSH1 0x20 DUP3 ADD SWAP1 POP DUP2 DUP2 SUB PUSH0 DUP4 ADD MSTORE PUSH2 0x391E DUP2 PUSH2 0x38E5 JUMP JUMPDEST SWAP1 POP SWAP2 SWAP1 POP JUMP JUMPDEST PUSH32 0x5265717565737420616C72656164792070656E64696E67000000000000000000 PUSH0 DUP3 ADD MSTORE POP JUMP JUMPDEST PUSH0 PUSH2 0x3959 PUSH1 0x17 DUP4 PUSH2 0x3175 JUMP JUMPDEST SWAP2 POP PUSH2 0x3964 DUP3 PUSH2 0x3925 JUMP JUMPDEST PUSH1 0x20 DUP3 ADD SWAP1 POP SWAP2 SWAP1 POP JUMP JUMPDEST PUSH0 PUSH1 0x20 DUP3 ADD SWAP1 POP DUP2 DUP2 SUB PUSH0 DUP4 ADD MSTORE PUSH2 0x3986 DUP2 PUSH2 0x394D JUMP JUMPDEST SWAP1 POP SWAP2 SWAP1 POP JUMP JUMPDEST PUSH0 DUP2 SWAP1 POP DUP2 PUSH0 MSTORE PUSH1 0x20 PUSH0 KECCAK256 SWAP1 POP SWAP2 SWAP1 POP JUMP JUMPDEST PUSH0 PUSH1 0x20 PUSH1 0x1F DUP4 ADD DIV SWAP1 POP SWAP2 SWAP1 POP JUMP JUMPDEST PUSH0 DUP3 DUP3 SHL SWAP1 POP SWAP3 SWAP2 POP POP JUMP JUMPDEST PUSH0 PUSH1 0x8 DUP4 MUL PUSH2 0x39E9 PUSH32 0xFFFFFFFFFFFFFFFFFFFFFFFFFFFFFFFFFFFFFFFFFFFFFFFFFFFFFFFFFFFFFFFF DUP3 PUSH2 0x39AE JUMP JUMPDEST PUSH2 0x39F3 DUP7 DUP4 PUSH2 0x39AE JUMP JUMPDEST SWAP6 POP DUP1 NOT DUP5 AND SWAP4 POP DUP1 DUP7 AND DUP5 OR SWAP3 POP POP POP SWAP4 SWAP3 POP POP POP JUMP JUMPDEST PUSH0 DUP2 SWAP1 POP SWAP2 SWAP1 POP JUMP JUMPDEST PUSH0 PUSH2 0x3A2E PUSH2 0x3A29 PUSH2 0x3A24 DUP5 PUSH2 0x3304 JUMP JUMPDEST PUSH2 0x3A0B JUMP JUMPDEST PUSH2 0x3304 JUMP JUMPDEST SWAP1 POP SWAP2 SWAP1 POP JUMP JUMPDEST PUSH0 DUP2 SWAP1 POP SWAP2 SWAP1 POP JUMP JUMPDEST PUSH2 0x3A47 DUP4 PUSH2 0x3A14 JUMP JUMPDEST PUSH2 0x3A5B PUSH2 0x3A53 DUP3 PUSH2 0x3A35 JUMP JUMPDEST DUP5 DUP5 SLOAD PUSH2 0x39BA JUMP JUMPDEST DUP3 SSTORE POP POP POP POP JUMP JUMPDEST PUSH0 SWAP1 JUMP JUMPDEST PUSH2 0x3A6F PUSH2 0x3A63 JUMP JUMPDEST PUSH2 0x3A7A DUP2 DUP5 DUP5 PUSH2 0x3A3E JUMP JUMPDEST POP POP POP JUMP JUMPDEST JUMPDEST DUP2 DUP2 LT ISZERO PUSH2 0x3A9D JUMPI PUSH2 0x3A92 PUSH0 DUP3 PUSH2 0x3A67 JUMP JUMPDEST PUSH1 0x1 DUP2 ADD SWAP1 POP PUSH2 0x3A80 JUMP JUMPDEST POP POP JUMP JUMPDEST PUSH1 0x1F DUP3 GT ISZERO PUSH2 0x3AE2 JUMPI PUSH2 0x3AB3 DUP2 PUSH2 0x398D JUMP JUMPDEST PUSH2 0x3ABC DUP5 PUSH2 0x399F JUMP JUMPDEST DUP2 ADD PUSH1 0x20 DUP6 LT ISZERO PUSH2 0x3ACB JUMPI DUP2 SWAP1 POP JUMPDEST PUSH2 0x3ADF PUSH2 0x3AD7 DUP6 PUSH2 0x399F JUMP JUMPDEST DUP4 ADD DUP3 PUSH2 0x3A7F JUMP JUMPDEST POP POP JUMPDEST POP POP POP JUMP JUMPDEST PUSH0 DUP3 DUP3 SHR SWAP1 POP SWAP3 SWAP2 POP POP JUMP JUMPDEST PUSH0 PUSH2 0x3B02 PUSH0 NOT DUP5 PUSH1 0x8 MUL PUSH2 0x3AE7 JUMP JUMPDEST NOT DUP1 DUP4 AND SWAP2 POP POP SWAP3 SWAP2 POP POP JUMP JUMPDEST PUSH0 PUSH2 0x3B1A DUP4 DUP4 PUSH2 0x3AF3 JUMP JUMPDEST SWAP2 POP DUP3 PUSH1 0x2 MUL DUP3 OR SWAP1 POP SWAP3 SWAP2 POP POP JUMP JUMPDEST PUSH2 0x3B33 DUP3 PUSH2 0x2F96 JUMP JUMPDEST PUSH8 0xFFFFFFFFFFFFFFFF DUP2 GT ISZERO PUSH2 0x3B4C JUMPI PUSH2 0x3B4B PUSH2 0x336A JUMP JUMPDEST JUMPDEST PUSH2 0x3B56 DUP3 SLOAD PUSH2 0x3755 JUMP JUMPDEST PUSH2 0x3B61 DUP3 DUP3 DUP6 PUSH2 0x3AA1 JUMP JUMPDEST PUSH0 PUSH1 0x20 SWAP1 POP PUSH1 0x1F DUP4 GT PUSH1 0x1 DUP2 EQ PUSH2 0x3B92 JUMPI PUSH0 DUP5 ISZERO PUSH2 0x3B80 JUMPI DUP3 DUP8 ADD MLOAD SWAP1 POP JUMPDEST PUSH2 0x3B8A DUP6 DUP3 PUSH2 0x3B0F JUMP JUMPDEST DUP7 SSTORE POP PUSH2 0x3BF1 JUMP JUMPDEST PUSH1 0x1F NOT DUP5 AND PUSH2 0x3BA0 DUP7 PUSH2 0x398D JUMP JUMPDEST PUSH0 JUMPDEST DUP3 DUP2 LT ISZERO PUSH2 0x3BC7 JUMPI DUP5 DUP10 ADD MLOAD DUP3 SSTORE PUSH1 0x1 DUP3 ADD SWAP2 POP PUSH1 0x20 DUP6 ADD SWAP5 POP PUSH1 0x20 DUP2 ADD SWAP1 POP PUSH2 0x3BA2 JUMP JUMPDEST DUP7 DUP4 LT ISZERO PUSH2 0x3BE4 JUMPI DUP5 DUP10 ADD MLOAD PUSH2 0x3BE0 PUSH1 0x1F DUP10 AND DUP3 PUSH2 0x3AF3 JUMP JUMPDEST DUP4 SSTORE POP JUMPDEST PUSH1 0x1 PUSH1 0x2 DUP9 MUL ADD DUP9 SSTORE POP POP POP JUMPDEST POP POP POP POP POP POP JUMP JUMPDEST PUSH0 PUSH1 0x20 DUP3 ADD SWAP1 POP DUP2 DUP2 SUB PUSH0 DUP4 ADD MSTORE PUSH2 0x3C11 DUP2 DUP5 PUSH2 0x3185 JUMP JUMPDEST SWAP1 POP SWAP3 SWAP2 POP POP JUMP JUMPDEST PUSH32 0x4669727374206E616D6520726571756972656400000000000000000000000000 PUSH0 DUP3 ADD MSTORE POP JUMP JUMPDEST PUSH0 PUSH2 0x3C4D PUSH1 0x13 DUP4 PUSH2 0x3175 JUMP JUMPDEST SWAP2 POP PUSH2 0x3C58 DUP3 PUSH2 0x3C19 JUMP JUMPDEST PUSH1 0x20 DUP3 ADD SWAP1 POP SWAP2 SWAP1 POP JUMP JUMPDEST PUSH0 PUSH1 0x20 DUP3 ADD SWAP1 POP DUP2 DUP2 SUB PUSH0 DUP4 ADD MSTORE PUSH2 0x3C7A DUP2 PUSH2 0x3C41 JUMP JUMPDEST SWAP1 POP SWAP2 SWAP1 POP JUMP JUMPDEST PUSH32 0x4C617374206E616D652072657175697265640000000000000000000000000000 PUSH0 DUP3 ADD MSTORE POP JUMP JUMPDEST PUSH0 PUSH2 0x3CB5 PUSH1 0x12 DUP4 PUSH2 0x3175 JUMP JUMPDEST SWAP2 POP PUSH2 0x3CC0 DUP3 PUSH2 0x3C81 JUMP JUMPDEST PUSH1 0x20 DUP3 ADD SWAP1 POP SWAP2 SWAP1 POP JUMP JUMPDEST PUSH0 PUSH1 0x20 DUP3 ADD SWAP1 POP DUP2 DUP2 SUB PUSH0 DUP4 ADD MSTORE PUSH2 0x3CE2 DUP2 PUSH2 0x3CA9 JUMP JUMPDEST SWAP1 POP SWAP2 SWAP1 POP JUMP JUMPDEST PUSH32 0x456D61696C207265717569726564000000000000000000000000000000000000 PUSH0 DUP3 ADD MSTORE POP JUMP JUMPDEST PUSH0 PUSH2 0x3D1D PUSH1 0xE DUP4 PUSH2 0x3175 JUMP JUMPDEST SWAP2 POP PUSH2 0x3D28 DUP3 PUSH2 0x3CE9 JUMP JUMPDEST PUSH1 0x20 DUP3 ADD SWAP1 POP SWAP2 SWAP1 POP JUMP JUMPDEST PUSH0 PUSH1 0x20 DUP3 ADD SWAP1 POP DUP2 DUP2 SUB PUSH0 DUP4 ADD MSTORE PUSH2 0x3D4A DUP2 PUSH2 0x3D11 JUMP JUMPDEST SWAP1 POP SWAP2 SWAP1 POP JUMP JUMPDEST PUSH0 DUP2 SLOAD SWAP1 POP PUSH2 0x3D5F DUP2 PUSH2 0x3755 JUMP JUMPDEST SWAP1 POP SWAP2 SWAP1 POP JUMP JUMPDEST DUP2 DUP2 SUB PUSH2 0x3D74 JUMPI POP POP PUSH2 0x3E49 JUMP JUMPDEST PUSH2 0x3D7D DUP3 PUSH2 0x3D51 JUMP JUMPDEST PUSH8 0xFFFFFFFFFFFFFFFF DUP2 GT ISZERO PUSH2 0x3D96 JUMPI PUSH2 0x3D95 PUSH2 0x336A JUMP JUMPDEST JUMPDEST PUSH2 0x3DA0 DUP3 SLOAD PUSH2 0x3755 JUMP JUMPDEST PUSH2 0x3DAB DUP3 DUP3 DUP6 PUSH2 0x3AA1 JUMP JUMPDEST PUSH0 PUSH1 0x1F DUP4 GT PUSH1 0x1 DUP2 EQ PUSH2 0x3DD8 JUMPI PUSH0 DUP5 ISZERO PUSH2 0x3DC6 JUMPI DUP3 DUP8 ADD SLOAD SWAP1 POP JUMPDEST PUSH2 0x3DD0 DUP6 DUP3 PUSH2 0x3B0F JUMP JUMPDEST DUP7 SSTORE POP PUSH2 0x3E42 JUMP JUMPDEST PUSH1 0x1F NOT DUP5 AND PUSH2 0x3DE6 DUP8 PUSH2 0x398D JUMP JUMPDEST SWAP7 POP PUSH2 0x3DF1 DUP7 PUSH2 0x398D JUMP JUMPDEST PUSH0 JUMPDEST DUP3 DUP2 LT ISZERO PUSH2 0x3E18 JUMPI DUP5 DUP10 ADD SLOAD DUP3 SSTORE PUSH1 0x1 DUP3 ADD SWAP2 POP PUSH1 0x1 DUP6 ADD SWAP5 POP PUSH1 0x20 DUP2 ADD SWAP1 POP PUSH2 0x3DF3 JUMP JUMPDEST DUP7 DUP4 LT ISZERO PUSH2 0x3E35 JUMPI DUP5 DUP10 ADD SLOAD PUSH2 0x3E31 PUSH1 0x1F DUP10 AND DUP3 PUSH2 0x3AF3 JUMP JUMPDEST DUP4 SSTORE POP JUMPDEST PUSH1 0x1 PUSH1 0x2 DUP9 MUL ADD DUP9 SSTORE POP POP POP JUMPDEST POP POP POP POP POP POP JUMPDEST JUMP JUMPDEST PUSH32 0x5061757361626C653A2070617573656400000000000000000000000000000000 PUSH0 DUP3 ADD MSTORE POP JUMP JUMPDEST PUSH0 PUSH2 0x3E7F PUSH1 0x10 DUP4 PUSH2 0x3175 JUMP JUMPDEST SWAP2 POP PUSH2 0x3E8A DUP3 PUSH2 0x3E4B JUMP JUMPDEST PUSH1 0x20 DUP3 ADD SWAP1 POP SWAP2 SWAP1 POP JUMP JUMPDEST PUSH0 PUSH1 0x20 DUP3 ADD SWAP1 POP DUP2 DUP2 SUB PUSH0 DUP4 ADD MSTORE PUSH2 0x3EAC DUP2 PUSH2 0x3E73 JUMP JUMPDEST SWAP1 POP SWAP2 SWAP1 POP JUMP JUMPDEST PUSH32 0x4E487B7100000000000000000000000000000000000000000000000000000000 PUSH0 MSTORE PUSH1 0x32 PUSH1 0x4 MSTORE PUSH1 0x24 PUSH0 REVERT JUMPDEST PUSH32 0x4E487B7100000000000000000000000000000000000000000000000000000000 PUSH0 MSTORE PUSH1 0x11 PUSH1 0x4 MSTORE PUSH1 0x24 PUSH0 REVERT JUMPDEST PUSH0 PUSH2 0x3F17 DUP3 PUSH2 0x3304 JUMP JUMPDEST SWAP2 POP PUSH2 0x3F22 DUP4 PUSH2 0x3304 JUMP JUMPDEST SWAP3 POP DUP3 DUP3 SUB SWAP1 POP DUP2 DUP2 GT ISZERO PUSH2 0x3F3A JUMPI PUSH2 0x3F39 PUSH2 0x3EE0 JUMP JUMPDEST JUMPDEST SWAP3 SWAP2 POP POP JUMP JUMPDEST PUSH32 0x4E487B7100000000000000000000000000000000000000000000000000000000 PUSH0 MSTORE PUSH1 0x31 PUSH1 0x4 MSTORE PUSH1 0x24 PUSH0 REVERT JUMPDEST PUSH0 PUSH1 0x20 DUP3 ADD SWAP1 POP PUSH2 0x3F80 PUSH0 DUP4 ADD DUP5 PUSH2 0x2F87 JUMP JUMPDEST SWAP3 SWAP2 POP POP JUMP JUMPDEST PUSH0 PUSH1 0x40 DUP3 ADD SWAP1 POP PUSH2 0x3F99 PUSH0 DUP4 ADD DUP6 PUSH2 0x2F87 JUMP JUMPDEST PUSH2 0x3FA6 PUSH1 0x20 DUP4 ADD DUP5 PUSH2 0x3166 JUMP JUMPDEST SWAP4 SWAP3 POP POP POP JUMP JUMPDEST PUSH32 0x5061757361626C653A206E6F7420706175736564000000000000000000000000 PUSH0 DUP3 ADD MSTORE POP JUMP JUMPDEST PUSH0 PUSH2 0x3FE1 PUSH1 0x14 DUP4 PUSH2 0x3175 JUMP JUMPDEST SWAP2 POP PUSH2 0x3FEC DUP3 PUSH2 0x3FAD JUMP JUMPDEST PUSH1 0x20 DUP3 ADD SWAP1 POP SWAP2 SWAP1 POP JUMP JUMPDEST PUSH0 PUSH1 0x20 DUP3 ADD SWAP1 POP DUP2 DUP2 SUB PUSH0 DUP4 ADD MSTORE PUSH2 0x400E DUP2 PUSH2 0x3FD5 JUMP JUMPDEST SWAP1 POP SWAP2 SWAP1 POP JUMP INVALID LOG2 PUSH5 0x6970667358 0x22 SLT KECCAK256 MOD EXTCODESIZE SHL 0xE8 0x4C DUP11 SUB JUMP BLOCKHASH TIMESTAMP JUMPI LOG4 0x22 0x22 0xA6 BASEFEE DIV SUB SWAP3 PUSH16 0xFB9C7D33B755DA72A54DD7AA64736F6C PUSH4 0x4300081A STOP CALLER "
		},
		"gasEstimates": {
			"creation": {
				"codeDepositCost": "3291800",
				"executionCost": "infinite",
				"totalCost": "infinite"
			},
			"external": {
				"ADMIN_ROLE()": "371",
				"DEFAULT_ADMIN_ROLE()": "441",
				"GALLERY_OWNER_ROLE()": "370",
				"PAINTER_ROLE()": "415",
				"SPONSOR_ROLE()": "391",
				"WALL_OWNER_ROLE()": "414",
				"approveRoleRequest(address,bytes32)": "infinite",
				"approveUserInfoRequest(address)": "infinite",
				"assignRole(address,bytes32)": "infinite",
				"getPendingRequests()": "infinite",
				"getRoleAdmin(bytes32)": "infinite",
				"getRoleRequest(address,bytes32)": "infinite",
				"getUserInfo(address)": "infinite",
				"grantRole(bytes32,address)": "infinite",
				"hasRole(bytes32,address)": "3167",
				"pause()": "infinite",
				"paused()": "2562",
				"pendingRequests(uint256)": "infinite",
				"rejectRoleRequest(address,bytes32)": "infinite",
				"rejectUserInfoRequest(address)": "infinite",
				"renounceRole(bytes32,address)": "infinite",
				"requestRole(bytes32,string)": "infinite",
				"requestUserInfo(string,string,string,string)": "infinite",
				"revokeRole(address,bytes32)": "infinite",
				"revokeRole(bytes32,address)": "infinite",
				"roleRequests(address,bytes32)": "infinite",
				"supportsInterface(bytes4)": "764",
				"unpause()": "infinite",
				"userInfo(address)": "infinite",
				"userInfoRequests(address)": "infinite"
			},
			"internal": {
				"_removeFromPendingRequests(address,bytes32)": "infinite"
			}
		},
		"methodIdentifiers": {
			"ADMIN_ROLE()": "75b238fc",
			"DEFAULT_ADMIN_ROLE()": "a217fddf",
			"GALLERY_OWNER_ROLE()": "78988ebd",
			"PAINTER_ROLE()": "303e3840",
			"SPONSOR_ROLE()": "c2d79444",
			"WALL_OWNER_ROLE()": "98e4abb5",
			"approveRoleRequest(address,bytes32)": "25df448c",
			"approveUserInfoRequest(address)": "fa90ace3",
			"assignRole(address,bytes32)": "1d9486de",
			"getPendingRequests()": "80a1f712",
			"getRoleAdmin(bytes32)": "248a9ca3",
			"getRoleRequest(address,bytes32)": "18097b69",
			"getUserInfo(address)": "6386c1c7",
			"grantRole(bytes32,address)": "2f2ff15d",
			"hasRole(bytes32,address)": "91d14854",
			"pause()": "8456cb59",
			"paused()": "5c975abb",
			"pendingRequests(uint256)": "3c652a9a",
			"rejectRoleRequest(address,bytes32)": "bd605121",
			"rejectUserInfoRequest(address)": "7e75d956",
			"renounceRole(bytes32,address)": "36568abe",
			"requestRole(bytes32,string)": "768b01aa",
			"requestUserInfo(string,string,string,string)": "78426848",
			"revokeRole(address,bytes32)": "208dd1ff",
			"revokeRole(bytes32,address)": "d547741f",
			"roleRequests(address,bytes32)": "9411ca46",
			"supportsInterface(bytes4)": "01ffc9a7",
			"unpause()": "3f4ba83a",
			"userInfo(address)": "1959a002",
			"userInfoRequests(address)": "095c6e02"
		}
	},
	"abi": [
		{
			"inputs": [],
			"stateMutability": "nonpayable",
			"type": "constructor"
		},
		{
			"inputs": [],
			"name": "AccessControlBadConfirmation",
			"type": "error"
		},
		{
			"inputs": [
				{
					"internalType": "address",
					"name": "account",
					"type": "address"
				},
				{
					"internalType": "bytes32",
					"name": "neededRole",
					"type": "bytes32"
				}
			],
			"name": "AccessControlUnauthorizedAccount",
			"type": "error"
		},
		{
			"anonymous": false,
			"inputs": [
				{
					"indexed": false,
					"internalType": "address",
					"name": "account",
					"type": "address"
				}
			],
			"name": "Paused",
			"type": "event"
		},
		{
			"anonymous": false,
			"inputs": [
				{
					"indexed": true,
					"internalType": "bytes32",
					"name": "role",
					"type": "bytes32"
				},
				{
					"indexed": true,
					"internalType": "bytes32",
					"name": "previousAdminRole",
					"type": "bytes32"
				},
				{
					"indexed": true,
					"internalType": "bytes32",
					"name": "newAdminRole",
					"type": "bytes32"
				}
			],
			"name": "RoleAdminChanged",
			"type": "event"
		},
		{
			"anonymous": false,
			"inputs": [
				{
					"indexed": true,
					"internalType": "address",
					"name": "user",
					"type": "address"
				},
				{
					"indexed": true,
					"internalType": "bytes32",
					"name": "role",
					"type": "bytes32"
				}
			],
			"name": "RoleAssigned",
			"type": "event"
		},
		{
			"anonymous": false,
			"inputs": [
				{
					"indexed": true,
					"internalType": "bytes32",
					"name": "role",
					"type": "bytes32"
				},
				{
					"indexed": true,
					"internalType": "address",
					"name": "account",
					"type": "address"
				},
				{
					"indexed": true,
					"internalType": "address",
					"name": "sender",
					"type": "address"
				}
			],
			"name": "RoleGranted",
			"type": "event"
		},
		{
			"anonymous": false,
			"inputs": [
				{
					"indexed": true,
					"internalType": "address",
					"name": "requester",
					"type": "address"
				},
				{
					"indexed": true,
					"internalType": "bytes32",
					"name": "role",
					"type": "bytes32"
				}
			],
			"name": "RoleRequestApproved",
			"type": "event"
		},
		{
			"anonymous": false,
			"inputs": [
				{
					"indexed": true,
					"internalType": "address",
					"name": "requester",
					"type": "address"
				},
				{
					"indexed": true,
					"internalType": "bytes32",
					"name": "role",
					"type": "bytes32"
				}
			],
			"name": "RoleRequestRejected",
			"type": "event"
		},
		{
			"anonymous": false,
			"inputs": [
				{
					"indexed": true,
					"internalType": "address",
					"name": "requester",
					"type": "address"
				},
				{
					"indexed": true,
					"internalType": "bytes32",
					"name": "role",
					"type": "bytes32"
				},
				{
					"indexed": false,
					"internalType": "string",
					"name": "reason",
					"type": "string"
				}
			],
			"name": "RoleRequested",
			"type": "event"
		},
		{
			"anonymous": false,
			"inputs": [
				{
					"indexed": true,
					"internalType": "bytes32",
					"name": "role",
					"type": "bytes32"
				},
				{
					"indexed": true,
					"internalType": "address",
					"name": "account",
					"type": "address"
				},
				{
					"indexed": true,
					"internalType": "address",
					"name": "sender",
					"type": "address"
				}
			],
			"name": "RoleRevoked",
			"type": "event"
		},
		{
			"anonymous": false,
			"inputs": [
				{
					"indexed": true,
					"internalType": "address",
					"name": "user",
					"type": "address"
				},
				{
					"indexed": true,
					"internalType": "bytes32",
					"name": "role",
					"type": "bytes32"
				}
			],
			"name": "RoleRevoked",
			"type": "event"
		},
		{
			"anonymous": false,
			"inputs": [
				{
					"indexed": false,
					"internalType": "address",
					"name": "account",
					"type": "address"
				}
			],
			"name": "Unpaused",
			"type": "event"
		},
		{
			"anonymous": false,
			"inputs": [
				{
					"indexed": true,
					"internalType": "address",
					"name": "requester",
					"type": "address"
				}
			],
			"name": "UserInfoRequestApproved",
			"type": "event"
		},
		{
			"anonymous": false,
			"inputs": [
				{
					"indexed": true,
					"internalType": "address",
					"name": "requester",
					"type": "address"
				}
			],
			"name": "UserInfoRequestRejected",
			"type": "event"
		},
		{
			"anonymous": false,
			"inputs": [
				{
					"indexed": true,
					"internalType": "address",
					"name": "requester",
					"type": "address"
				},
				{
					"indexed": false,
					"internalType": "bool",
					"name": "isUpdate",
					"type": "bool"
				}
			],
			"name": "UserInfoRequested",
			"type": "event"
		},
		{
			"anonymous": false,
			"inputs": [
				{
					"indexed": true,
					"internalType": "address",
					"name": "user",
					"type": "address"
				}
			],
			"name": "UserInfoUpdated",
			"type": "event"
		},
		{
			"inputs": [],
			"name": "ADMIN_ROLE",
			"outputs": [
				{
					"internalType": "bytes32",
					"name": "",
					"type": "bytes32"
				}
			],
			"stateMutability": "view",
			"type": "function"
		},
		{
			"inputs": [],
			"name": "DEFAULT_ADMIN_ROLE",
			"outputs": [
				{
					"internalType": "bytes32",
					"name": "",
					"type": "bytes32"
				}
			],
			"stateMutability": "view",
			"type": "function"
		},
		{
			"inputs": [],
			"name": "GALLERY_OWNER_ROLE",
			"outputs": [
				{
					"internalType": "bytes32",
					"name": "",
					"type": "bytes32"
				}
			],
			"stateMutability": "view",
			"type": "function"
		},
		{
			"inputs": [],
			"name": "PAINTER_ROLE",
			"outputs": [
				{
					"internalType": "bytes32",
					"name": "",
					"type": "bytes32"
				}
			],
			"stateMutability": "view",
			"type": "function"
		},
		{
			"inputs": [],
			"name": "SPONSOR_ROLE",
			"outputs": [
				{
					"internalType": "bytes32",
					"name": "",
					"type": "bytes32"
				}
			],
			"stateMutability": "view",
			"type": "function"
		},
		{
			"inputs": [],
			"name": "WALL_OWNER_ROLE",
			"outputs": [
				{
					"internalType": "bytes32",
					"name": "",
					"type": "bytes32"
				}
			],
			"stateMutability": "view",
			"type": "function"
		},
		{
			"inputs": [
				{
					"internalType": "address",
					"name": "_requester",
					"type": "address"
				},
				{
					"internalType": "bytes32",
					"name": "_role",
					"type": "bytes32"
				}
			],
			"name": "approveRoleRequest",
			"outputs": [],
			"stateMutability": "nonpayable",
			"type": "function"
		},
		{
			"inputs": [
				{
					"internalType": "address",
					"name": "requester",
					"type": "address"
				}
			],
			"name": "approveUserInfoRequest",
			"outputs": [],
			"stateMutability": "nonpayable",
			"type": "function"
		},
		{
			"inputs": [
				{
					"internalType": "address",
					"name": "_user",
					"type": "address"
				},
				{
					"internalType": "bytes32",
					"name": "_role",
					"type": "bytes32"
				}
			],
			"name": "assignRole",
			"outputs": [],
			"stateMutability": "nonpayable",
			"type": "function"
		},
		{
			"inputs": [],
			"name": "getPendingRequests",
			"outputs": [
				{
					"components": [
						{
							"internalType": "address",
							"name": "requester",
							"type": "address"
						},
						{
							"internalType": "bytes32",
							"name": "role",
							"type": "bytes32"
						},
						{
							"internalType": "string",
							"name": "reason",
							"type": "string"
						},
						{
							"internalType": "bool",
							"name": "pending",
							"type": "bool"
						},
						{
							"internalType": "bool",
							"name": "approved",
							"type": "bool"
						}
					],
					"internalType": "struct RoleManager.RoleRequest[]",
					"name": "",
					"type": "tuple[]"
				}
			],
			"stateMutability": "view",
			"type": "function"
		},
		{
			"inputs": [
				{
					"internalType": "bytes32",
					"name": "role",
					"type": "bytes32"
				}
			],
			"name": "getRoleAdmin",
			"outputs": [
				{
					"internalType": "bytes32",
					"name": "",
					"type": "bytes32"
				}
			],
			"stateMutability": "view",
			"type": "function"
		},
		{
			"inputs": [
				{
					"internalType": "address",
					"name": "_requester",
					"type": "address"
				},
				{
					"internalType": "bytes32",
					"name": "_role",
					"type": "bytes32"
				}
			],
			"name": "getRoleRequest",
			"outputs": [
				{
					"internalType": "address",
					"name": "requester",
					"type": "address"
				},
				{
					"internalType": "bytes32",
					"name": "role",
					"type": "bytes32"
				},
				{
					"internalType": "string",
					"name": "reason",
					"type": "string"
				},
				{
					"internalType": "bool",
					"name": "pending",
					"type": "bool"
				},
				{
					"internalType": "bool",
					"name": "approved",
					"type": "bool"
				}
			],
			"stateMutability": "view",
			"type": "function"
		},
		{
			"inputs": [
				{
					"internalType": "address",
					"name": "user",
					"type": "address"
				}
			],
			"name": "getUserInfo",
			"outputs": [
				{
					"internalType": "string",
					"name": "firstName",
					"type": "string"
				},
				{
					"internalType": "string",
					"name": "lastName",
					"type": "string"
				},
				{
					"internalType": "string",
					"name": "email",
					"type": "string"
				},
				{
					"internalType": "string",
					"name": "organization",
					"type": "string"
				},
				{
					"internalType": "address",
					"name": "walletAddress",
					"type": "address"
				}
			],
			"stateMutability": "view",
			"type": "function"
		},
		{
			"inputs": [
				{
					"internalType": "bytes32",
					"name": "role",
					"type": "bytes32"
				},
				{
					"internalType": "address",
					"name": "account",
					"type": "address"
				}
			],
			"name": "grantRole",
			"outputs": [],
			"stateMutability": "nonpayable",
			"type": "function"
		},
		{
			"inputs": [
				{
					"internalType": "bytes32",
					"name": "role",
					"type": "bytes32"
				},
				{
					"internalType": "address",
					"name": "account",
					"type": "address"
				}
			],
			"name": "hasRole",
			"outputs": [
				{
					"internalType": "bool",
					"name": "",
					"type": "bool"
				}
			],
			"stateMutability": "view",
			"type": "function"
		},
		{
			"inputs": [],
			"name": "pause",
			"outputs": [],
			"stateMutability": "nonpayable",
			"type": "function"
		},
		{
			"inputs": [],
			"name": "paused",
			"outputs": [
				{
					"internalType": "bool",
					"name": "",
					"type": "bool"
				}
			],
			"stateMutability": "view",
			"type": "function"
		},
		{
			"inputs": [
				{
					"internalType": "uint256",
					"name": "",
					"type": "uint256"
				}
			],
			"name": "pendingRequests",
			"outputs": [
				{
					"internalType": "address",
					"name": "requester",
					"type": "address"
				},
				{
					"internalType": "bytes32",
					"name": "role",
					"type": "bytes32"
				},
				{
					"internalType": "string",
					"name": "reason",
					"type": "string"
				},
				{
					"internalType": "bool",
					"name": "pending",
					"type": "bool"
				},
				{
					"internalType": "bool",
					"name": "approved",
					"type": "bool"
				}
			],
			"stateMutability": "view",
			"type": "function"
		},
		{
			"inputs": [
				{
					"internalType": "address",
					"name": "_requester",
					"type": "address"
				},
				{
					"internalType": "bytes32",
					"name": "_role",
					"type": "bytes32"
				}
			],
			"name": "rejectRoleRequest",
			"outputs": [],
			"stateMutability": "nonpayable",
			"type": "function"
		},
		{
			"inputs": [
				{
					"internalType": "address",
					"name": "requester",
					"type": "address"
				}
			],
			"name": "rejectUserInfoRequest",
			"outputs": [],
			"stateMutability": "nonpayable",
			"type": "function"
		},
		{
			"inputs": [
				{
					"internalType": "bytes32",
					"name": "role",
					"type": "bytes32"
				},
				{
					"internalType": "address",
					"name": "callerConfirmation",
					"type": "address"
				}
			],
			"name": "renounceRole",
			"outputs": [],
			"stateMutability": "nonpayable",
			"type": "function"
		},
		{
			"inputs": [
				{
					"internalType": "bytes32",
					"name": "_role",
					"type": "bytes32"
				},
				{
					"internalType": "string",
					"name": "_reason",
					"type": "string"
				}
			],
			"name": "requestRole",
			"outputs": [],
			"stateMutability": "nonpayable",
			"type": "function"
		},
		{
			"inputs": [
				{
					"internalType": "string",
					"name": "firstName",
					"type": "string"
				},
				{
					"internalType": "string",
					"name": "lastName",
					"type": "string"
				},
				{
					"internalType": "string",
					"name": "email",
					"type": "string"
				},
				{
					"internalType": "string",
					"name": "organization",
					"type": "string"
				}
			],
			"name": "requestUserInfo",
			"outputs": [],
			"stateMutability": "nonpayable",
			"type": "function"
		},
		{
			"inputs": [
				{
					"internalType": "address",
					"name": "_user",
					"type": "address"
				},
				{
					"internalType": "bytes32",
					"name": "_role",
					"type": "bytes32"
				}
			],
			"name": "revokeRole",
			"outputs": [],
			"stateMutability": "nonpayable",
			"type": "function"
		},
		{
			"inputs": [
				{
					"internalType": "bytes32",
					"name": "role",
					"type": "bytes32"
				},
				{
					"internalType": "address",
					"name": "account",
					"type": "address"
				}
			],
			"name": "revokeRole",
			"outputs": [],
			"stateMutability": "nonpayable",
			"type": "function"
		},
		{
			"inputs": [
				{
					"internalType": "address",
					"name": "",
					"type": "address"
				},
				{
					"internalType": "bytes32",
					"name": "",
					"type": "bytes32"
				}
			],
			"name": "roleRequests",
			"outputs": [
				{
					"internalType": "address",
					"name": "requester",
					"type": "address"
				},
				{
					"internalType": "bytes32",
					"name": "role",
					"type": "bytes32"
				},
				{
					"internalType": "string",
					"name": "reason",
					"type": "string"
				},
				{
					"internalType": "bool",
					"name": "pending",
					"type": "bool"
				},
				{
					"internalType": "bool",
					"name": "approved",
					"type": "bool"
				}
			],
			"stateMutability": "view",
			"type": "function"
		},
		{
			"inputs": [
				{
					"internalType": "bytes4",
					"name": "interfaceId",
					"type": "bytes4"
				}
			],
			"name": "supportsInterface",
			"outputs": [
				{
					"internalType": "bool",
					"name": "",
					"type": "bool"
				}
			],
			"stateMutability": "view",
			"type": "function"
		},
		{
			"inputs": [],
			"name": "unpause",
			"outputs": [],
			"stateMutability": "nonpayable",
			"type": "function"
		},
		{
			"inputs": [
				{
					"internalType": "address",
					"name": "",
					"type": "address"
				}
			],
			"name": "userInfo",
			"outputs": [
				{
					"internalType": "string",
					"name": "firstName",
					"type": "string"
				},
				{
					"internalType": "string",
					"name": "lastName",
					"type": "string"
				},
				{
					"internalType": "string",
					"name": "email",
					"type": "string"
				},
				{
					"internalType": "string",
					"name": "organization",
					"type": "string"
				},
				{
					"internalType": "address",
					"name": "walletAddress",
					"type": "address"
				}
			],
			"stateMutability": "view",
			"type": "function"
		},
		{
			"inputs": [
				{
					"internalType": "address",
					"name": "",
					"type": "address"
				}
			],
			"name": "userInfoRequests",
			"outputs": [
				{
					"internalType": "address",
					"name": "requester",
					"type": "address"
				},
				{
					"components": [
						{
							"internalType": "string",
							"name": "firstName",
							"type": "string"
						},
						{
							"internalType": "string",
							"name": "lastName",
							"type": "string"
						},
						{
							"internalType": "string",
							"name": "email",
							"type": "string"
						},
						{
							"internalType": "string",
							"name": "organization",
							"type": "string"
						},
						{
							"internalType": "address",
							"name": "walletAddress",
							"type": "address"
						}
					],
					"internalType": "struct RoleManager.UserInfo",
					"name": "info",
					"type": "tuple"
				},
				{
					"internalType": "bool",
					"name": "isUpdate",
					"type": "bool"
				},
				{
					"internalType": "bool",
					"name": "pending",
					"type": "bool"
				},
				{
					"internalType": "bool",
					"name": "approved",
					"type": "bool"
				}
			],
			"stateMutability": "view",
			"type": "function"
		}
	]
}