{
	"Signs 2/SignsToken.sol": {
		"SignsToken": {
			"abi": [
				{
					"inputs": [
						{
							"internalType": "string",
							"name": "name",
							"type": "string"
						},
						{
							"internalType": "string",
							"name": "symbol",
							"type": "string"
						},
						{
							"internalType": "uint256",
							"name": "initialSupply",
							"type": "uint256"
						},
						{
							"internalType": "address",
							"name": "_signsNFTContract",
							"type": "address"
						},
						{
							"internalType": "address",
							"name": "_signsHistoryContract",
							"type": "address"
						}
					],
					"stateMutability": "nonpayable",
					"type": "constructor"
				},
				{
					"inputs": [],
					"name": "DailyEarningsLimitExceeded",
					"type": "error"
				},
				{
					"inputs": [
						{
							"internalType": "address",
							"name": "spender",
							"type": "address"
						},
						{
							"internalType": "uint256",
							"name": "allowance",
							"type": "uint256"
						},
						{
							"internalType": "uint256",
							"name": "needed",
							"type": "uint256"
						}
					],
					"name": "ERC20InsufficientAllowance",
					"type": "error"
				},
				{
					"inputs": [
						{
							"internalType": "address",
							"name": "sender",
							"type": "address"
						},
						{
							"internalType": "uint256",
							"name": "balance",
							"type": "uint256"
						},
						{
							"internalType": "uint256",
							"name": "needed",
							"type": "uint256"
						}
					],
					"name": "ERC20InsufficientBalance",
					"type": "error"
				},
				{
					"inputs": [
						{
							"internalType": "address",
							"name": "approver",
							"type": "address"
						}
					],
					"name": "ERC20InvalidApprover",
					"type": "error"
				},
				{
					"inputs": [
						{
							"internalType": "address",
							"name": "receiver",
							"type": "address"
						}
					],
					"name": "ERC20InvalidReceiver",
					"type": "error"
				},
				{
					"inputs": [
						{
							"internalType": "address",
							"name": "sender",
							"type": "address"
						}
					],
					"name": "ERC20InvalidSender",
					"type": "error"
				},
				{
					"inputs": [
						{
							"internalType": "address",
							"name": "spender",
							"type": "address"
						}
					],
					"name": "ERC20InvalidSpender",
					"type": "error"
				},
				{
					"inputs": [],
					"name": "InsufficientBalance",
					"type": "error"
				},
				{
					"inputs": [],
					"name": "InvalidAddress",
					"type": "error"
				},
				{
					"inputs": [],
					"name": "InvalidAmount",
					"type": "error"
				},
				{
					"inputs": [],
					"name": "InvalidRate",
					"type": "error"
				},
				{
					"inputs": [
						{
							"internalType": "address",
							"name": "owner",
							"type": "address"
						}
					],
					"name": "OwnableInvalidOwner",
					"type": "error"
				},
				{
					"inputs": [
						{
							"internalType": "address",
							"name": "account",
							"type": "address"
						}
					],
					"name": "OwnableUnauthorizedAccount",
					"type": "error"
				},
				{
					"inputs": [],
					"name": "UnauthorizedCaller",
					"type": "error"
				},
				{
					"anonymous": false,
					"inputs": [
						{
							"indexed": true,
							"internalType": "address",
							"name": "owner",
							"type": "address"
						},
						{
							"indexed": true,
							"internalType": "address",
							"name": "spender",
							"type": "address"
						},
						{
							"indexed": false,
							"internalType": "uint256",
							"name": "value",
							"type": "uint256"
						}
					],
					"name": "Approval",
					"type": "event"
				},
				{
					"anonymous": false,
					"inputs": [
						{
							"indexed": false,
							"internalType": "string",
							"name": "contractType",
							"type": "string"
						},
						{
							"indexed": false,
							"internalType": "address",
							"name": "newAddress",
							"type": "address"
						}
					],
					"name": "ContractUpdated",
					"type": "event"
				},
				{
					"anonymous": false,
					"inputs": [
						{
							"indexed": false,
							"internalType": "uint256",
							"name": "newCap",
							"type": "uint256"
						}
					],
					"name": "DailyEarningsCapUpdated",
					"type": "event"
				},
				{
					"anonymous": false,
					"inputs": [
						{
							"indexed": true,
							"internalType": "address",
							"name": "previousOwner",
							"type": "address"
						},
						{
							"indexed": true,
							"internalType": "address",
							"name": "newOwner",
							"type": "address"
						}
					],
					"name": "OwnershipTransferred",
					"type": "event"
				},
				{
					"anonymous": false,
					"inputs": [
						{
							"indexed": false,
							"internalType": "address",
							"name": "account",
							"type": "address"
						}
					],
					"name": "Paused",
					"type": "event"
				},
				{
					"anonymous": false,
					"inputs": [
						{
							"indexed": false,
							"internalType": "uint256",
							"name": "movementBaseRate",
							"type": "uint256"
						},
						{
							"indexed": false,
							"internalType": "uint256",
							"name": "diaryEntryRate",
							"type": "uint256"
						},
						{
							"indexed": false,
							"internalType": "uint256",
							"name": "photoUploadRate",
							"type": "uint256"
						}
					],
					"name": "RatesUpdated",
					"type": "event"
				},
				{
					"anonymous": false,
					"inputs": [
						{
							"indexed": true,
							"internalType": "address",
							"name": "user",
							"type": "address"
						},
						{
							"indexed": false,
							"internalType": "uint256",
							"name": "amount",
							"type": "uint256"
						},
						{
							"indexed": false,
							"internalType": "string",
							"name": "rewardType",
							"type": "string"
						}
					],
					"name": "RewardPaid",
					"type": "event"
				},
				{
					"anonymous": false,
					"inputs": [
						{
							"indexed": true,
							"internalType": "address",
							"name": "from",
							"type": "address"
						},
						{
							"indexed": true,
							"internalType": "address",
							"name": "to",
							"type": "address"
						},
						{
							"indexed": false,
							"internalType": "uint256",
							"name": "value",
							"type": "uint256"
						}
					],
					"name": "Transfer",
					"type": "event"
				},
				{
					"anonymous": false,
					"inputs": [
						{
							"indexed": false,
							"internalType": "address",
							"name": "account",
							"type": "address"
						}
					],
					"name": "Unpaused",
					"type": "event"
				},
				{
					"anonymous": false,
					"inputs": [
						{
							"indexed": true,
							"internalType": "address",
							"name": "from",
							"type": "address"
						},
						{
							"indexed": true,
							"internalType": "address",
							"name": "to",
							"type": "address"
						},
						{
							"indexed": false,
							"internalType": "uint256",
							"name": "amount",
							"type": "uint256"
						}
					],
					"name": "WagePaid",
					"type": "event"
				},
				{
					"inputs": [],
					"name": "DAILY_RESET",
					"outputs": [
						{
							"internalType": "uint256",
							"name": "",
							"type": "uint256"
						}
					],
					"stateMutability": "view",
					"type": "function"
				},
				{
					"inputs": [
						{
							"internalType": "address",
							"name": "owner",
							"type": "address"
						},
						{
							"internalType": "address",
							"name": "spender",
							"type": "address"
						}
					],
					"name": "allowance",
					"outputs": [
						{
							"internalType": "uint256",
							"name": "",
							"type": "uint256"
						}
					],
					"stateMutability": "view",
					"type": "function"
				},
				{
					"inputs": [
						{
							"internalType": "address",
							"name": "spender",
							"type": "address"
						},
						{
							"internalType": "uint256",
							"name": "value",
							"type": "uint256"
						}
					],
					"name": "approve",
					"outputs": [
						{
							"internalType": "bool",
							"name": "",
							"type": "bool"
						}
					],
					"stateMutability": "nonpayable",
					"type": "function"
				},
				{
					"inputs": [
						{
							"internalType": "address",
							"name": "account",
							"type": "address"
						}
					],
					"name": "balanceOf",
					"outputs": [
						{
							"internalType": "uint256",
							"name": "",
							"type": "uint256"
						}
					],
					"stateMutability": "view",
					"type": "function"
				},
				{
					"inputs": [],
					"name": "claimWages",
					"outputs": [],
					"stateMutability": "nonpayable",
					"type": "function"
				},
				{
					"inputs": [],
					"name": "dailyEarningsCap",
					"outputs": [
						{
							"internalType": "uint256",
							"name": "",
							"type": "uint256"
						}
					],
					"stateMutability": "view",
					"type": "function"
				},
				{
					"inputs": [],
					"name": "decimals",
					"outputs": [
						{
							"internalType": "uint8",
							"name": "",
							"type": "uint8"
						}
					],
					"stateMutability": "view",
					"type": "function"
				},
				{
					"inputs": [
						{
							"internalType": "address",
							"name": "",
							"type": "address"
						}
					],
					"name": "earningsToday",
					"outputs": [
						{
							"internalType": "uint256",
							"name": "",
							"type": "uint256"
						}
					],
					"stateMutability": "view",
					"type": "function"
				},
				{
					"inputs": [
						{
							"internalType": "address",
							"name": "",
							"type": "address"
						}
					],
					"name": "lastEarningsReset",
					"outputs": [
						{
							"internalType": "uint256",
							"name": "",
							"type": "uint256"
						}
					],
					"stateMutability": "view",
					"type": "function"
				},
				{
					"inputs": [],
					"name": "name",
					"outputs": [
						{
							"internalType": "string",
							"name": "",
							"type": "string"
						}
					],
					"stateMutability": "view",
					"type": "function"
				},
				{
					"inputs": [],
					"name": "owner",
					"outputs": [
						{
							"internalType": "address",
							"name": "",
							"type": "address"
						}
					],
					"stateMutability": "view",
					"type": "function"
				},
				{
					"inputs": [],
					"name": "pause",
					"outputs": [],
					"stateMutability": "nonpayable",
					"type": "function"
				},
				{
					"inputs": [],
					"name": "paused",
					"outputs": [
						{
							"internalType": "bool",
							"name": "",
							"type": "bool"
						}
					],
					"stateMutability": "view",
					"type": "function"
				},
				{
					"inputs": [
						{
							"internalType": "address",
							"name": "user",
							"type": "address"
						},
						{
							"internalType": "string",
							"name": "rewardType",
							"type": "string"
						}
					],
					"name": "payReward",
					"outputs": [],
					"stateMutability": "nonpayable",
					"type": "function"
				},
				{
					"inputs": [],
					"name": "rates",
					"outputs": [
						{
							"internalType": "uint256",
							"name": "movementBaseRate",
							"type": "uint256"
						},
						{
							"internalType": "uint256",
							"name": "diaryEntryRate",
							"type": "uint256"
						},
						{
							"internalType": "uint256",
							"name": "photoUploadRate",
							"type": "uint256"
						}
					],
					"stateMutability": "view",
					"type": "function"
				},
				{
					"inputs": [
						{
							"internalType": "address",
							"name": "carrier",
							"type": "address"
						},
						{
							"internalType": "uint256",
							"name": "amount",
							"type": "uint256"
						}
					],
					"name": "recordWage",
					"outputs": [],
					"stateMutability": "nonpayable",
					"type": "function"
				},
				{
					"inputs": [],
					"name": "renounceOwnership",
					"outputs": [],
					"stateMutability": "nonpayable",
					"type": "function"
				},
				{
					"inputs": [],
					"name": "signsHistoryContract",
					"outputs": [
						{
							"internalType": "address",
							"name": "",
							"type": "address"
						}
					],
					"stateMutability": "view",
					"type": "function"
				},
				{
					"inputs": [],
					"name": "signsNFTContract",
					"outputs": [
						{
							"internalType": "address",
							"name": "",
							"type": "address"
						}
					],
					"stateMutability": "view",
					"type": "function"
				},
				{
					"inputs": [],
					"name": "symbol",
					"outputs": [
						{
							"internalType": "string",
							"name": "",
							"type": "string"
						}
					],
					"stateMutability": "view",
					"type": "function"
				},
				{
					"inputs": [],
					"name": "totalSupply",
					"outputs": [
						{
							"internalType": "uint256",
							"name": "",
							"type": "uint256"
						}
					],
					"stateMutability": "view",
					"type": "function"
				},
				{
					"inputs": [
						{
							"internalType": "address",
							"name": "to",
							"type": "address"
						},
						{
							"internalType": "uint256",
							"name": "amount",
							"type": "uint256"
						}
					],
					"name": "transfer",
					"outputs": [
						{
							"internalType": "bool",
							"name": "",
							"type": "bool"
						}
					],
					"stateMutability": "nonpayable",
					"type": "function"
				},
				{
					"inputs": [
						{
							"internalType": "address",
							"name": "from",
							"type": "address"
						},
						{
							"internalType": "address",
							"name": "to",
							"type": "address"
						},
						{
							"internalType": "uint256",
							"name": "amount",
							"type": "uint256"
						}
					],
					"name": "transferFrom",
					"outputs": [
						{
							"internalType": "bool",
							"name": "",
							"type": "bool"
						}
					],
					"stateMutability": "nonpayable",
					"type": "function"
				},
				{
					"inputs": [
						{
							"internalType": "address",
							"name": "newOwner",
							"type": "address"
						}
					],
					"name": "transferOwnership",
					"outputs": [],
					"stateMutability": "nonpayable",
					"type": "function"
				},
				{
					"inputs": [],
					"name": "unpause",
					"outputs": [],
					"stateMutability": "nonpayable",
					"type": "function"
				},
				{
					"inputs": [
						{
							"internalType": "uint256",
							"name": "newCap",
							"type": "uint256"
						}
					],
					"name": "updateDailyEarningsCap",
					"outputs": [],
					"stateMutability": "nonpayable",
					"type": "function"
				},
				{
					"inputs": [
						{
							"internalType": "string",
							"name": "contractType",
							"type": "string"
						},
						{
							"internalType": "address",
							"name": "newAddress",
							"type": "address"
						}
					],
					"name": "updateGameContract",
					"outputs": [],
					"stateMutability": "nonpayable",
					"type": "function"
				},
				{
					"inputs": [
						{
							"components": [
								{
									"internalType": "uint256",
									"name": "movementBaseRate",
									"type": "uint256"
								},
								{
									"internalType": "uint256",
									"name": "diaryEntryRate",
									"type": "uint256"
								},
								{
									"internalType": "uint256",
									"name": "photoUploadRate",
									"type": "uint256"
								}
							],
							"internalType": "struct SignsToken.RewardRates",
							"name": "newRates",
							"type": "tuple"
						}
					],
					"name": "updateRates",
					"outputs": [],
					"stateMutability": "nonpayable",
					"type": "function"
				},
				{
					"inputs": [
						{
							"internalType": "address",
							"name": "",
							"type": "address"
						}
					],
					"name": "wageBalance",
					"outputs": [
						{
							"internalType": "uint256",
							"name": "",
							"type": "uint256"
						}
					],
					"stateMutability": "view",
					"type": "function"
				}
			],
			"devdoc": {
				"details": "ERC20 token for the Signs game economy, managing rewards and wages",
				"errors": {
					"ERC20InsufficientAllowance(address,uint256,uint256)": [
						{
							"details": "Indicates a failure with the `spender`’s `allowance`. Used in transfers.",
							"params": {
								"allowance": "Amount of tokens a `spender` is allowed to operate with.",
								"needed": "Minimum amount required to perform a transfer.",
								"spender": "Address that may be allowed to operate on tokens without being their owner."
							}
						}
					],
					"ERC20InsufficientBalance(address,uint256,uint256)": [
						{
							"details": "Indicates an error related to the current `balance` of a `sender`. Used in transfers.",
							"params": {
								"balance": "Current balance for the interacting account.",
								"needed": "Minimum amount required to perform a transfer.",
								"sender": "Address whose tokens are being transferred."
							}
						}
					],
					"ERC20InvalidApprover(address)": [
						{
							"details": "Indicates a failure with the `approver` of a token to be approved. Used in approvals.",
							"params": {
								"approver": "Address initiating an approval operation."
							}
						}
					],
					"ERC20InvalidReceiver(address)": [
						{
							"details": "Indicates a failure with the token `receiver`. Used in transfers.",
							"params": {
								"receiver": "Address to which tokens are being transferred."
							}
						}
					],
					"ERC20InvalidSender(address)": [
						{
							"details": "Indicates a failure with the token `sender`. Used in transfers.",
							"params": {
								"sender": "Address whose tokens are being transferred."
							}
						}
					],
					"ERC20InvalidSpender(address)": [
						{
							"details": "Indicates a failure with the `spender` to be approved. Used in approvals.",
							"params": {
								"spender": "Address that may be allowed to operate on tokens without being their owner."
							}
						}
					],
					"OwnableInvalidOwner(address)": [
						{
							"details": "The owner is not a valid owner account. (eg. `address(0)`)"
						}
					],
					"OwnableUnauthorizedAccount(address)": [
						{
							"details": "The caller account is not authorized to perform an operation."
						}
					]
				},
				"events": {
					"Approval(address,address,uint256)": {
						"details": "Emitted when the allowance of a `spender` for an `owner` is set by a call to {approve}. `value` is the new allowance."
					},
					"Paused(address)": {
						"details": "Emitted when the pause is triggered by `account`."
					},
					"Transfer(address,address,uint256)": {
						"details": "Emitted when `value` tokens are moved from one account (`from`) to another (`to`). Note that `value` may be zero."
					},
					"Unpaused(address)": {
						"details": "Emitted when the pause is lifted by `account`."
					}
				},
				"kind": "dev",
				"methods": {
					"allowance(address,address)": {
						"details": "See {IERC20-allowance}."
					},
					"approve(address,uint256)": {
						"details": "See {IERC20-approve}. NOTE: If `value` is the maximum `uint256`, the allowance is not updated on `transferFrom`. This is semantically equivalent to an infinite approval. Requirements: - `spender` cannot be the zero address."
					},
					"balanceOf(address)": {
						"details": "See {IERC20-balanceOf}."
					},
					"claimWages()": {
						"details": "Allows users to claim their accumulated wages"
					},
					"decimals()": {
						"details": "Returns the number of decimals used to get its user representation. For example, if `decimals` equals `2`, a balance of `505` tokens should be displayed to a user as `5.05` (`505 / 10 ** 2`). Tokens usually opt for a value of 18, imitating the relationship between Ether and Wei. This is the default value returned by this function, unless it's overridden. NOTE: This information is only used for _display_ purposes: it in no way affects any of the arithmetic of the contract, including {IERC20-balanceOf} and {IERC20-transfer}."
					},
					"name()": {
						"details": "Returns the name of the token."
					},
					"owner()": {
						"details": "Returns the address of the current owner."
					},
					"paused()": {
						"details": "Returns true if the contract is paused, and false otherwise."
					},
					"payReward(address,string)": {
						"details": "Pays reward for social activities (diary entries, photos)",
						"params": {
							"rewardType": "Type of reward (\"diary\" or \"photo\")",
							"user": "Address of the user to reward"
						}
					},
					"recordWage(address,uint256)": {
						"details": "Records wage owed to a carrier for moving a sign",
						"params": {
							"amount": "Amount of tokens to be paid",
							"carrier": "Address of the sign carrier"
						}
					},
					"renounceOwnership()": {
						"details": "Leaves the contract without owner. It will not be possible to call `onlyOwner` functions. Can only be called by the current owner. NOTE: Renouncing ownership will leave the contract without an owner, thereby disabling any functionality that is only available to the owner."
					},
					"symbol()": {
						"details": "Returns the symbol of the token, usually a shorter version of the name."
					},
					"totalSupply()": {
						"details": "See {IERC20-totalSupply}."
					},
					"transferOwnership(address)": {
						"details": "Transfers ownership of the contract to a new account (`newOwner`). Can only be called by the current owner."
					},
					"updateDailyEarningsCap(uint256)": {
						"details": "Updates daily earnings cap",
						"params": {
							"newCap": "New daily earnings cap"
						}
					},
					"updateGameContract(string,address)": {
						"details": "Updates game contract addresses",
						"params": {
							"contractType": "Type of contract to update (\"nft\" or \"history\")",
							"newAddress": "New contract address"
						}
					},
					"updateRates((uint256,uint256,uint256))": {
						"details": "Updates reward rates",
						"params": {
							"newRates": "New reward rates structure"
						}
					}
				},
				"title": "SignsToken",
				"version": 1
			},
			"evm": {
				"assembly": "    /* \"Signs 2/SignsToken.sol\":403:8143  contract SignsToken is ERC20, Pausable, Ownable, ReentrancyGuard {... */\n  mstore(0x40, 0x80)\n    /* \"Signs 2/SignsToken.sol\":2010:2961  constructor(... */\n  callvalue\n  dup1\n  iszero\n  tag_1\n  jumpi\n  0x00\n  dup1\n  revert\ntag_1:\n  pop\n  mload(0x40)\n  sub(codesize, bytecodeSize)\n  dup1\n  bytecodeSize\n  dup4\n  codecopy\n  dup2\n  dup2\n  add\n  0x40\n  mstore\n  dup2\n  add\n  swap1\n  tag_2\n  swap2\n  swap1\n  tag_3\n  jump\t// in\ntag_2:\n    /* \"Signs 2/SignsToken.sol\":2225:2235  msg.sender */\n  caller\n    /* \"Signs 2/SignsToken.sol\":2203:2207  name */\n  dup6\n    /* \"Signs 2/SignsToken.sol\":2209:2215  symbol */\n  dup6\n    /* \"@openzeppelin/contracts/token/ERC20/ERC20.sol\":1675:1680  name_ */\n  dup2\n    /* \"@openzeppelin/contracts/token/ERC20/ERC20.sol\":1667:1672  _name */\n  0x03\n    /* \"@openzeppelin/contracts/token/ERC20/ERC20.sol\":1667:1680  _name = name_ */\n  swap1\n  dup2\n  tag_10\n  swap2\n  swap1\n  tag_11\n  jump\t// in\ntag_10:\n  pop\n    /* \"@openzeppelin/contracts/token/ERC20/ERC20.sol\":1700:1707  symbol_ */\n  dup1\n    /* \"@openzeppelin/contracts/token/ERC20/ERC20.sol\":1690:1697  _symbol */\n  0x04\n    /* \"@openzeppelin/contracts/token/ERC20/ERC20.sol\":1690:1707  _symbol = symbol_ */\n  swap1\n  dup2\n  tag_12\n  swap2\n  swap1\n  tag_11\n  jump\t// in\ntag_12:\n  pop\n    /* \"@openzeppelin/contracts/token/ERC20/ERC20.sol\":1601:1714  constructor(string memory name_, string memory symbol_) {... */\n  pop\n  pop\n    /* \"@openzeppelin/contracts/security/Pausable.sol\":1006:1011  false */\n  0x00\n    /* \"@openzeppelin/contracts/security/Pausable.sol\":996:1003  _paused */\n  0x05\n  0x00\n    /* \"@openzeppelin/contracts/security/Pausable.sol\":996:1011  _paused = false */\n  0x0100\n  exp\n  dup2\n  sload\n  dup2\n  0xff\n  mul\n  not\n  and\n  swap1\n  dup4\n  iszero\n  iszero\n  mul\n  or\n  swap1\n  sstore\n  pop\n    /* \"@openzeppelin/contracts/access/Ownable.sol\":1297:1298  0 */\n  0x00\n    /* \"@openzeppelin/contracts/access/Ownable.sol\":1273:1299  initialOwner == address(0) */\n  0xffffffffffffffffffffffffffffffffffffffff\n  and\n    /* \"@openzeppelin/contracts/access/Ownable.sol\":1273:1285  initialOwner */\n  dup2\n    /* \"@openzeppelin/contracts/access/Ownable.sol\":1273:1299  initialOwner == address(0) */\n  0xffffffffffffffffffffffffffffffffffffffff\n  and\n  sub\n    /* \"@openzeppelin/contracts/access/Ownable.sol\":1269:1364  if (initialOwner == address(0)) {... */\n  tag_15\n  jumpi\n    /* \"@openzeppelin/contracts/access/Ownable.sol\":1350:1351  0 */\n  0x00\n    /* \"@openzeppelin/contracts/access/Ownable.sol\":1322:1353  OwnableInvalidOwner(address(0)) */\n  mload(0x40)\n  0x1e4fbdf700000000000000000000000000000000000000000000000000000000\n  dup2\n  mstore\n  0x04\n  add\n  tag_16\n  swap2\n  swap1\n  tag_17\n  jump\t// in\ntag_16:\n  mload(0x40)\n  dup1\n  swap2\n  sub\n  swap1\n  revert\n    /* \"@openzeppelin/contracts/access/Ownable.sol\":1269:1364  if (initialOwner == address(0)) {... */\ntag_15:\n    /* \"@openzeppelin/contracts/access/Ownable.sol\":1373:1405  _transferOwnership(initialOwner) */\n  tag_18\n    /* \"@openzeppelin/contracts/access/Ownable.sol\":1392:1404  initialOwner */\n  dup2\n    /* \"@openzeppelin/contracts/access/Ownable.sol\":1373:1391  _transferOwnership */\n  shl(0x20, tag_19)\n    /* \"@openzeppelin/contracts/access/Ownable.sol\":1373:1405  _transferOwnership(initialOwner) */\n  0x20\n  shr\n  jump\t// in\ntag_18:\n    /* \"@openzeppelin/contracts/access/Ownable.sol\":1225:1412  constructor(address initialOwner) {... */\n  pop\n    /* \"@openzeppelin/contracts/security/ReentrancyGuard.sol\":1716:1717  1 */\n  0x01\n    /* \"@openzeppelin/contracts/security/ReentrancyGuard.sol\":1821:1828  _status */\n  0x06\n    /* \"@openzeppelin/contracts/security/ReentrancyGuard.sol\":1821:1843  _status = _NOT_ENTERED */\n  dup2\n  swap1\n  sstore\n  pop\n    /* \"Signs 2/SignsToken.sol\":2281:2282  0 */\n  0x00\n    /* \"Signs 2/SignsToken.sol\":2252:2283  _signsNFTContract == address(0) */\n  0xffffffffffffffffffffffffffffffffffffffff\n  and\n    /* \"Signs 2/SignsToken.sol\":2252:2269  _signsNFTContract */\n  dup3\n    /* \"Signs 2/SignsToken.sol\":2252:2283  _signsNFTContract == address(0) */\n  0xffffffffffffffffffffffffffffffffffffffff\n  and\n  eq\n    /* \"Signs 2/SignsToken.sol\":2252:2322  _signsNFTContract == address(0) || _signsHistoryContract == address(0) */\n  dup1\n  tag_22\n  jumpi\n  pop\n    /* \"Signs 2/SignsToken.sol\":2320:2321  0 */\n  0x00\n    /* \"Signs 2/SignsToken.sol\":2287:2322  _signsHistoryContract == address(0) */\n  0xffffffffffffffffffffffffffffffffffffffff\n  and\n    /* \"Signs 2/SignsToken.sol\":2287:2308  _signsHistoryContract */\n  dup2\n    /* \"Signs 2/SignsToken.sol\":2287:2322  _signsHistoryContract == address(0) */\n  0xffffffffffffffffffffffffffffffffffffffff\n  and\n  eq\n    /* \"Signs 2/SignsToken.sol\":2252:2322  _signsNFTContract == address(0) || _signsHistoryContract == address(0) */\ntag_22:\n    /* \"Signs 2/SignsToken.sol\":2248:2361  if (_signsNFTContract == address(0) || _signsHistoryContract == address(0)) ... */\n  iszero\n  tag_23\n  jumpi\n    /* \"Signs 2/SignsToken.sol\":2345:2361  InvalidAddress() */\n  mload(0x40)\n  0xe6c4247b00000000000000000000000000000000000000000000000000000000\n  dup2\n  mstore\n  0x04\n  add\n  mload(0x40)\n  dup1\n  swap2\n  sub\n  swap1\n  revert\n    /* \"Signs 2/SignsToken.sol\":2248:2361  if (_signsNFTContract == address(0) || _signsHistoryContract == address(0)) ... */\ntag_23:\n    /* \"Signs 2/SignsToken.sol\":2405:2422  _signsNFTContract */\n  dup2\n    /* \"Signs 2/SignsToken.sol\":2386:2402  signsNFTContract */\n  0x0b\n  0x00\n    /* \"Signs 2/SignsToken.sol\":2386:2422  signsNFTContract = _signsNFTContract */\n  0x0100\n  exp\n  dup2\n  sload\n  dup2\n  0xffffffffffffffffffffffffffffffffffffffff\n  mul\n  not\n  and\n  swap1\n  dup4\n  0xffffffffffffffffffffffffffffffffffffffff\n  and\n  mul\n  or\n  swap1\n  sstore\n  pop\n    /* \"Signs 2/SignsToken.sol\":2456:2477  _signsHistoryContract */\n  dup1\n    /* \"Signs 2/SignsToken.sol\":2433:2453  signsHistoryContract */\n  0x0c\n  0x00\n    /* \"Signs 2/SignsToken.sol\":2433:2477  signsHistoryContract = _signsHistoryContract */\n  0x0100\n  exp\n  dup2\n  sload\n  dup2\n  0xffffffffffffffffffffffffffffffffffffffff\n  mul\n  not\n  and\n  swap1\n  dup4\n  0xffffffffffffffffffffffffffffffffffffffff\n  and\n  mul\n  or\n  swap1\n  sstore\n  pop\n    /* \"Signs 2/SignsToken.sol\":2558:2778  RewardRates({... */\n  mload(0x40)\n  dup1\n  0x60\n  add\n  0x40\n  mstore\n  dup1\n    /* \"Signs 2/SignsToken.sol\":2603:2607  1e15 */\n  0x038d7ea4c68000\n    /* \"Signs 2/SignsToken.sol\":2558:2778  RewardRates({... */\n  dup2\n  mstore\n  0x20\n  add\n    /* \"Signs 2/SignsToken.sol\":2667:2671  1e18 */\n  0x0de0b6b3a7640000\n    /* \"Signs 2/SignsToken.sol\":2558:2778  RewardRates({... */\n  dup2\n  mstore\n  0x20\n  add\n    /* \"Signs 2/SignsToken.sol\":2735:2739  2e18 */\n  0x1bc16d674ec80000\n    /* \"Signs 2/SignsToken.sol\":2558:2778  RewardRates({... */\n  dup2\n  mstore\n  pop\n    /* \"Signs 2/SignsToken.sol\":2550:2555  rates */\n  0x07\n    /* \"Signs 2/SignsToken.sol\":2550:2778  rates = RewardRates({... */\n  0x00\n  dup3\n  add\n  mload\n  dup2\n  0x00\n  add\n  sstore\n  0x20\n  dup3\n  add\n  mload\n  dup2\n  0x01\n  add\n  sstore\n  0x40\n  dup3\n  add\n  mload\n  dup2\n  0x02\n  add\n  sstore\n  swap1\n  pop\n  pop\n    /* \"Signs 2/SignsToken.sol\":2818:2824  100e18 */\n  0x056bc75e2d63100000\n    /* \"Signs 2/SignsToken.sol\":2799:2815  dailyEarningsCap */\n  0x0a\n    /* \"Signs 2/SignsToken.sol\":2799:2824  dailyEarningsCap = 100e18 */\n  dup2\n  swap1\n  sstore\n  pop\n    /* \"Signs 2/SignsToken.sol\":2921:2953  _mint(msg.sender, initialSupply) */\n  tag_24\n    /* \"Signs 2/SignsToken.sol\":2927:2937  msg.sender */\n  caller\n    /* \"Signs 2/SignsToken.sol\":2939:2952  initialSupply */\n  dup5\n    /* \"Signs 2/SignsToken.sol\":2921:2926  _mint */\n  shl(0x20, tag_25)\n    /* \"Signs 2/SignsToken.sol\":2921:2953  _mint(msg.sender, initialSupply) */\n  0x20\n  shr\n  jump\t// in\ntag_24:\n    /* \"Signs 2/SignsToken.sol\":2010:2961  constructor(... */\n  pop\n  pop\n  pop\n  pop\n  pop\n    /* \"Signs 2/SignsToken.sol\":403:8143  contract SignsToken is ERC20, Pausable, Ownable, ReentrancyGuard {... */\n  jump(tag_26)\n    /* \"@openzeppelin/contracts/access/Ownable.sol\":2912:3099  function _transferOwnership(address newOwner) internal virtual {... */\ntag_19:\n    /* \"@openzeppelin/contracts/access/Ownable.sol\":2985:3001  address oldOwner */\n  0x00\n    /* \"@openzeppelin/contracts/access/Ownable.sol\":3004:3010  _owner */\n  0x05\n  0x01\n  swap1\n  sload\n  swap1\n  0x0100\n  exp\n  swap1\n  div\n  0xffffffffffffffffffffffffffffffffffffffff\n  and\n    /* \"@openzeppelin/contracts/access/Ownable.sol\":2985:3010  address oldOwner = _owner */\n  swap1\n  pop\n    /* \"@openzeppelin/contracts/access/Ownable.sol\":3029:3037  newOwner */\n  dup2\n    /* \"@openzeppelin/contracts/access/Ownable.sol\":3020:3026  _owner */\n  0x05\n  0x01\n    /* \"@openzeppelin/contracts/access/Ownable.sol\":3020:3037  _owner = newOwner */\n  0x0100\n  exp\n  dup2\n  sload\n  dup2\n  0xffffffffffffffffffffffffffffffffffffffff\n  mul\n  not\n  and\n  swap1\n  dup4\n  0xffffffffffffffffffffffffffffffffffffffff\n  and\n  mul\n  or\n  swap1\n  sstore\n  pop\n    /* \"@openzeppelin/contracts/access/Ownable.sol\":3083:3091  newOwner */\n  dup2\n    /* \"@openzeppelin/contracts/access/Ownable.sol\":3052:3092  OwnershipTransferred(oldOwner, newOwner) */\n  0xffffffffffffffffffffffffffffffffffffffff\n  and\n    /* \"@openzeppelin/contracts/access/Ownable.sol\":3073:3081  oldOwner */\n  dup2\n    /* \"@openzeppelin/contracts/access/Ownable.sol\":3052:3092  OwnershipTransferred(oldOwner, newOwner) */\n  0xffffffffffffffffffffffffffffffffffffffff\n  and\n  0x8be0079c531659141344cd1fd0a4f28419497f9722a3daafe3b4186f6b6457e0\n  mload(0x40)\n  mload(0x40)\n  dup1\n  swap2\n  sub\n  swap1\n  log3\n    /* \"@openzeppelin/contracts/access/Ownable.sol\":2975:3099  {... */\n  pop\n    /* \"@openzeppelin/contracts/access/Ownable.sol\":2912:3099  function _transferOwnership(address newOwner) internal virtual {... */\n  pop\n  jump\t// out\n    /* \"@openzeppelin/contracts/token/ERC20/ERC20.sol\":7458:7666  function _mint(address account, uint256 value) internal {... */\ntag_25:\n    /* \"@openzeppelin/contracts/token/ERC20/ERC20.sol\":7547:7548  0 */\n  0x00\n    /* \"@openzeppelin/contracts/token/ERC20/ERC20.sol\":7528:7549  account == address(0) */\n  0xffffffffffffffffffffffffffffffffffffffff\n  and\n    /* \"@openzeppelin/contracts/token/ERC20/ERC20.sol\":7528:7535  account */\n  dup3\n    /* \"@openzeppelin/contracts/token/ERC20/ERC20.sol\":7528:7549  account == address(0) */\n  0xffffffffffffffffffffffffffffffffffffffff\n  and\n  sub\n    /* \"@openzeppelin/contracts/token/ERC20/ERC20.sol\":7524:7615  if (account == address(0)) {... */\n  tag_29\n  jumpi\n    /* \"@openzeppelin/contracts/token/ERC20/ERC20.sol\":7601:7602  0 */\n  0x00\n    /* \"@openzeppelin/contracts/token/ERC20/ERC20.sol\":7572:7604  ERC20InvalidReceiver(address(0)) */\n  mload(0x40)\n  0xec442f0500000000000000000000000000000000000000000000000000000000\n  dup2\n  mstore\n  0x04\n  add\n  tag_30\n  swap2\n  swap1\n  tag_17\n  jump\t// in\ntag_30:\n  mload(0x40)\n  dup1\n  swap2\n  sub\n  swap1\n  revert\n    /* \"@openzeppelin/contracts/token/ERC20/ERC20.sol\":7524:7615  if (account == address(0)) {... */\ntag_29:\n    /* \"@openzeppelin/contracts/token/ERC20/ERC20.sol\":7624:7659  _update(address(0), account, value) */\n  tag_31\n    /* \"@openzeppelin/contracts/token/ERC20/ERC20.sol\":7640:7641  0 */\n  0x00\n    /* \"@openzeppelin/contracts/token/ERC20/ERC20.sol\":7644:7651  account */\n  dup4\n    /* \"@openzeppelin/contracts/token/ERC20/ERC20.sol\":7653:7658  value */\n  dup4\n    /* \"@openzeppelin/contracts/token/ERC20/ERC20.sol\":7624:7631  _update */\n  shl(0x20, tag_32)\n    /* \"@openzeppelin/contracts/token/ERC20/ERC20.sol\":7624:7659  _update(address(0), account, value) */\n  0x20\n  shr\n  jump\t// in\ntag_31:\n    /* \"@openzeppelin/contracts/token/ERC20/ERC20.sol\":7458:7666  function _mint(address account, uint256 value) internal {... */\n  pop\n  pop\n  jump\t// out\n    /* \"@openzeppelin/contracts/token/ERC20/ERC20.sol\":6008:7115  function _update(address from, address to, uint256 value) internal virtual {... */\ntag_32:\n    /* \"@openzeppelin/contracts/token/ERC20/ERC20.sol\":6113:6114  0 */\n  0x00\n    /* \"@openzeppelin/contracts/token/ERC20/ERC20.sol\":6097:6115  from == address(0) */\n  0xffffffffffffffffffffffffffffffffffffffff\n  and\n    /* \"@openzeppelin/contracts/token/ERC20/ERC20.sol\":6097:6101  from */\n  dup4\n    /* \"@openzeppelin/contracts/token/ERC20/ERC20.sol\":6097:6115  from == address(0) */\n  0xffffffffffffffffffffffffffffffffffffffff\n  and\n  sub\n    /* \"@openzeppelin/contracts/token/ERC20/ERC20.sol\":6093:6633  if (from == address(0)) {... */\n  tag_34\n  jumpi\n    /* \"@openzeppelin/contracts/token/ERC20/ERC20.sol\":6249:6254  value */\n  dup1\n    /* \"@openzeppelin/contracts/token/ERC20/ERC20.sol\":6233:6245  _totalSupply */\n  0x02\n  0x00\n    /* \"@openzeppelin/contracts/token/ERC20/ERC20.sol\":6233:6254  _totalSupply += value */\n  dup3\n  dup3\n  sload\n  tag_35\n  swap2\n  swap1\n  tag_36\n  jump\t// in\ntag_35:\n  swap3\n  pop\n  pop\n  dup2\n  swap1\n  sstore\n  pop\n    /* \"@openzeppelin/contracts/token/ERC20/ERC20.sol\":6093:6633  if (from == address(0)) {... */\n  jump(tag_37)\ntag_34:\n    /* \"@openzeppelin/contracts/token/ERC20/ERC20.sol\":6285:6304  uint256 fromBalance */\n  0x00\n    /* \"@openzeppelin/contracts/token/ERC20/ERC20.sol\":6307:6316  _balances */\n  dup1\n    /* \"@openzeppelin/contracts/token/ERC20/ERC20.sol\":6307:6322  _balances[from] */\n  0x00\n    /* \"@openzeppelin/contracts/token/ERC20/ERC20.sol\":6317:6321  from */\n  dup6\n    /* \"@openzeppelin/contracts/token/ERC20/ERC20.sol\":6307:6322  _balances[from] */\n  0xffffffffffffffffffffffffffffffffffffffff\n  and\n  0xffffffffffffffffffffffffffffffffffffffff\n  and\n  dup2\n  mstore\n  0x20\n  add\n  swap1\n  dup2\n  mstore\n  0x20\n  add\n  0x00\n  keccak256\n  sload\n    /* \"@openzeppelin/contracts/token/ERC20/ERC20.sol\":6285:6322  uint256 fromBalance = _balances[from] */\n  swap1\n  pop\n    /* \"@openzeppelin/contracts/token/ERC20/ERC20.sol\":6354:6359  value */\n  dup2\n    /* \"@openzeppelin/contracts/token/ERC20/ERC20.sol\":6340:6351  fromBalance */\n  dup2\n    /* \"@openzeppelin/contracts/token/ERC20/ERC20.sol\":6340:6359  fromBalance < value */\n  lt\n    /* \"@openzeppelin/contracts/token/ERC20/ERC20.sol\":6336:6451  if (fromBalance < value) {... */\n  iszero\n  tag_38\n  jumpi\n    /* \"@openzeppelin/contracts/token/ERC20/ERC20.sol\":6411:6415  from */\n  dup4\n    /* \"@openzeppelin/contracts/token/ERC20/ERC20.sol\":6417:6428  fromBalance */\n  dup2\n    /* \"@openzeppelin/contracts/token/ERC20/ERC20.sol\":6430:6435  value */\n  dup4\n    /* \"@openzeppelin/contracts/token/ERC20/ERC20.sol\":6386:6436  ERC20InsufficientBalance(from, fromBalance, value) */\n  mload(0x40)\n  0xe450d38c00000000000000000000000000000000000000000000000000000000\n  dup2\n  mstore\n  0x04\n  add\n  tag_39\n  swap4\n  swap3\n  swap2\n  swap1\n  tag_40\n  jump\t// in\ntag_39:\n  mload(0x40)\n  dup1\n  swap2\n  sub\n  swap1\n  revert\n    /* \"@openzeppelin/contracts/token/ERC20/ERC20.sol\":6336:6451  if (fromBalance < value) {... */\ntag_38:\n    /* \"@openzeppelin/contracts/token/ERC20/ERC20.sol\":6603:6608  value */\n  dup2\n    /* \"@openzeppelin/contracts/token/ERC20/ERC20.sol\":6589:6600  fromBalance */\n  dup2\n    /* \"@openzeppelin/contracts/token/ERC20/ERC20.sol\":6589:6608  fromBalance - value */\n  sub\n    /* \"@openzeppelin/contracts/token/ERC20/ERC20.sol\":6571:6580  _balances */\n  0x00\n    /* \"@openzeppelin/contracts/token/ERC20/ERC20.sol\":6571:6586  _balances[from] */\n  dup1\n    /* \"@openzeppelin/contracts/token/ERC20/ERC20.sol\":6581:6585  from */\n  dup7\n    /* \"@openzeppelin/contracts/token/ERC20/ERC20.sol\":6571:6586  _balances[from] */\n  0xffffffffffffffffffffffffffffffffffffffff\n  and\n  0xffffffffffffffffffffffffffffffffffffffff\n  and\n  dup2\n  mstore\n  0x20\n  add\n  swap1\n  dup2\n  mstore\n  0x20\n  add\n  0x00\n  keccak256\n    /* \"@openzeppelin/contracts/token/ERC20/ERC20.sol\":6571:6608  _balances[from] = fromBalance - value */\n  dup2\n  swap1\n  sstore\n  pop\n    /* \"@openzeppelin/contracts/token/ERC20/ERC20.sol\":6271:6633  {... */\n  pop\n    /* \"@openzeppelin/contracts/token/ERC20/ERC20.sol\":6093:6633  if (from == address(0)) {... */\ntag_37:\n    /* \"@openzeppelin/contracts/token/ERC20/ERC20.sol\":6661:6662  0 */\n  0x00\n    /* \"@openzeppelin/contracts/token/ERC20/ERC20.sol\":6647:6663  to == address(0) */\n  0xffffffffffffffffffffffffffffffffffffffff\n  and\n    /* \"@openzeppelin/contracts/token/ERC20/ERC20.sol\":6647:6649  to */\n  dup3\n    /* \"@openzeppelin/contracts/token/ERC20/ERC20.sol\":6647:6663  to == address(0) */\n  0xffffffffffffffffffffffffffffffffffffffff\n  and\n  sub\n    /* \"@openzeppelin/contracts/token/ERC20/ERC20.sol\":6643:7068  if (to == address(0)) {... */\n  tag_41\n  jumpi\n    /* \"@openzeppelin/contracts/token/ERC20/ERC20.sol\":6826:6831  value */\n  dup1\n    /* \"@openzeppelin/contracts/token/ERC20/ERC20.sol\":6810:6822  _totalSupply */\n  0x02\n  0x00\n    /* \"@openzeppelin/contracts/token/ERC20/ERC20.sol\":6810:6831  _totalSupply -= value */\n  dup3\n  dup3\n  sload\n  sub\n  swap3\n  pop\n  pop\n  dup2\n  swap1\n  sstore\n  pop\n    /* \"@openzeppelin/contracts/token/ERC20/ERC20.sol\":6643:7068  if (to == address(0)) {... */\n  jump(tag_42)\ntag_41:\n    /* \"@openzeppelin/contracts/token/ERC20/ERC20.sol\":7038:7043  value */\n  dup1\n    /* \"@openzeppelin/contracts/token/ERC20/ERC20.sol\":7021:7030  _balances */\n  0x00\n    /* \"@openzeppelin/contracts/token/ERC20/ERC20.sol\":7021:7034  _balances[to] */\n  dup1\n    /* \"@openzeppelin/contracts/token/ERC20/ERC20.sol\":7031:7033  to */\n  dup5\n    /* \"@openzeppelin/contracts/token/ERC20/ERC20.sol\":7021:7034  _balances[to] */\n  0xffffffffffffffffffffffffffffffffffffffff\n  and\n  0xffffffffffffffffffffffffffffffffffffffff\n  and\n  dup2\n  mstore\n  0x20\n  add\n  swap1\n  dup2\n  mstore\n  0x20\n  add\n  0x00\n  keccak256\n  0x00\n    /* \"@openzeppelin/contracts/token/ERC20/ERC20.sol\":7021:7043  _balances[to] += value */\n  dup3\n  dup3\n  sload\n  add\n  swap3\n  pop\n  pop\n  dup2\n  swap1\n  sstore\n  pop\n    /* \"@openzeppelin/contracts/token/ERC20/ERC20.sol\":6643:7068  if (to == address(0)) {... */\ntag_42:\n    /* \"@openzeppelin/contracts/token/ERC20/ERC20.sol\":7098:7100  to */\n  dup2\n    /* \"@openzeppelin/contracts/token/ERC20/ERC20.sol\":7083:7108  Transfer(from, to, value) */\n  0xffffffffffffffffffffffffffffffffffffffff\n  and\n    /* \"@openzeppelin/contracts/token/ERC20/ERC20.sol\":7092:7096  from */\n  dup4\n    /* \"@openzeppelin/contracts/token/ERC20/ERC20.sol\":7083:7108  Transfer(from, to, value) */\n  0xffffffffffffffffffffffffffffffffffffffff\n  and\n  0xddf252ad1be2c89b69c2b068fc378daa952ba7f163c4a11628f55a4df523b3ef\n    /* \"@openzeppelin/contracts/token/ERC20/ERC20.sol\":7102:7107  value */\n  dup4\n    /* \"@openzeppelin/contracts/token/ERC20/ERC20.sol\":7083:7108  Transfer(from, to, value) */\n  mload(0x40)\n  tag_43\n  swap2\n  swap1\n  tag_44\n  jump\t// in\ntag_43:\n  mload(0x40)\n  dup1\n  swap2\n  sub\n  swap1\n  log3\n    /* \"@openzeppelin/contracts/token/ERC20/ERC20.sol\":6008:7115  function _update(address from, address to, uint256 value) internal virtual {... */\n  pop\n  pop\n  pop\n  jump\t// out\n    /* \"#utility.yul\":7:82   */\ntag_45:\n    /* \"#utility.yul\":40:46   */\n  0x00\n    /* \"#utility.yul\":73:75   */\n  0x40\n    /* \"#utility.yul\":67:76   */\n  mload\n    /* \"#utility.yul\":57:76   */\n  swap1\n  pop\n    /* \"#utility.yul\":7:82   */\n  swap1\n  jump\t// out\n    /* \"#utility.yul\":88:205   */\ntag_46:\n    /* \"#utility.yul\":197:198   */\n  0x00\n    /* \"#utility.yul\":194:195   */\n  dup1\n    /* \"#utility.yul\":187:199   */\n  revert\n    /* \"#utility.yul\":211:328   */\ntag_47:\n    /* \"#utility.yul\":320:321   */\n  0x00\n    /* \"#utility.yul\":317:318   */\n  dup1\n    /* \"#utility.yul\":310:322   */\n  revert\n    /* \"#utility.yul\":334:451   */\ntag_48:\n    /* \"#utility.yul\":443:444   */\n  0x00\n    /* \"#utility.yul\":440:441   */\n  dup1\n    /* \"#utility.yul\":433:445   */\n  revert\n    /* \"#utility.yul\":457:574   */\ntag_49:\n    /* \"#utility.yul\":566:567   */\n  0x00\n    /* \"#utility.yul\":563:564   */\n  dup1\n    /* \"#utility.yul\":556:568   */\n  revert\n    /* \"#utility.yul\":580:682   */\ntag_50:\n    /* \"#utility.yul\":621:627   */\n  0x00\n    /* \"#utility.yul\":672:674   */\n  0x1f\n    /* \"#utility.yul\":668:675   */\n  not\n    /* \"#utility.yul\":663:665   */\n  0x1f\n    /* \"#utility.yul\":656:661   */\n  dup4\n    /* \"#utility.yul\":652:666   */\n  add\n    /* \"#utility.yul\":648:676   */\n  and\n    /* \"#utility.yul\":638:676   */\n  swap1\n  pop\n    /* \"#utility.yul\":580:682   */\n  swap2\n  swap1\n  pop\n  jump\t// out\n    /* \"#utility.yul\":688:868   */\ntag_51:\n    /* \"#utility.yul\":736:813   */\n  0x4e487b7100000000000000000000000000000000000000000000000000000000\n    /* \"#utility.yul\":733:734   */\n  0x00\n    /* \"#utility.yul\":726:814   */\n  mstore\n    /* \"#utility.yul\":833:837   */\n  0x41\n    /* \"#utility.yul\":830:831   */\n  0x04\n    /* \"#utility.yul\":823:838   */\n  mstore\n    /* \"#utility.yul\":857:861   */\n  0x24\n    /* \"#utility.yul\":854:855   */\n  0x00\n    /* \"#utility.yul\":847:862   */\n  revert\n    /* \"#utility.yul\":874:1155   */\ntag_52:\n    /* \"#utility.yul\":957:984   */\n  tag_95\n    /* \"#utility.yul\":979:983   */\n  dup3\n    /* \"#utility.yul\":957:984   */\n  tag_50\n  jump\t// in\ntag_95:\n    /* \"#utility.yul\":949:955   */\n  dup2\n    /* \"#utility.yul\":945:985   */\n  add\n    /* \"#utility.yul\":1087:1093   */\n  dup2\n    /* \"#utility.yul\":1075:1085   */\n  dup2\n    /* \"#utility.yul\":1072:1094   */\n  lt\n    /* \"#utility.yul\":1051:1069   */\n  0xffffffffffffffff\n    /* \"#utility.yul\":1039:1049   */\n  dup3\n    /* \"#utility.yul\":1036:1070   */\n  gt\n    /* \"#utility.yul\":1033:1095   */\n  or\n    /* \"#utility.yul\":1030:1118   */\n  iszero\n  tag_96\n  jumpi\n    /* \"#utility.yul\":1098:1116   */\n  tag_97\n  tag_51\n  jump\t// in\ntag_97:\n    /* \"#utility.yul\":1030:1118   */\ntag_96:\n    /* \"#utility.yul\":1138:1148   */\n  dup1\n    /* \"#utility.yul\":1134:1136   */\n  0x40\n    /* \"#utility.yul\":1127:1149   */\n  mstore\n    /* \"#utility.yul\":917:1155   */\n  pop\n    /* \"#utility.yul\":874:1155   */\n  pop\n  pop\n  jump\t// out\n    /* \"#utility.yul\":1161:1290   */\ntag_53:\n    /* \"#utility.yul\":1195:1201   */\n  0x00\n    /* \"#utility.yul\":1222:1242   */\n  tag_99\n  tag_45\n  jump\t// in\ntag_99:\n    /* \"#utility.yul\":1212:1242   */\n  swap1\n  pop\n    /* \"#utility.yul\":1251:1284   */\n  tag_100\n    /* \"#utility.yul\":1279:1283   */\n  dup3\n    /* \"#utility.yul\":1271:1277   */\n  dup3\n    /* \"#utility.yul\":1251:1284   */\n  tag_52\n  jump\t// in\ntag_100:\n    /* \"#utility.yul\":1161:1290   */\n  swap2\n  swap1\n  pop\n  jump\t// out\n    /* \"#utility.yul\":1296:1604   */\ntag_54:\n    /* \"#utility.yul\":1358:1362   */\n  0x00\n    /* \"#utility.yul\":1448:1466   */\n  0xffffffffffffffff\n    /* \"#utility.yul\":1440:1446   */\n  dup3\n    /* \"#utility.yul\":1437:1467   */\n  gt\n    /* \"#utility.yul\":1434:1490   */\n  iszero\n  tag_102\n  jumpi\n    /* \"#utility.yul\":1470:1488   */\n  tag_103\n  tag_51\n  jump\t// in\ntag_103:\n    /* \"#utility.yul\":1434:1490   */\ntag_102:\n    /* \"#utility.yul\":1508:1537   */\n  tag_104\n    /* \"#utility.yul\":1530:1536   */\n  dup3\n    /* \"#utility.yul\":1508:1537   */\n  tag_50\n  jump\t// in\ntag_104:\n    /* \"#utility.yul\":1500:1537   */\n  swap1\n  pop\n    /* \"#utility.yul\":1592:1596   */\n  0x20\n    /* \"#utility.yul\":1586:1590   */\n  dup2\n    /* \"#utility.yul\":1582:1597   */\n  add\n    /* \"#utility.yul\":1574:1597   */\n  swap1\n  pop\n    /* \"#utility.yul\":1296:1604   */\n  swap2\n  swap1\n  pop\n  jump\t// out\n    /* \"#utility.yul\":1610:1749   */\ntag_55:\n    /* \"#utility.yul\":1699:1705   */\n  dup3\n    /* \"#utility.yul\":1694:1697   */\n  dup2\n    /* \"#utility.yul\":1689:1692   */\n  dup4\n    /* \"#utility.yul\":1683:1706   */\n  mcopy\n    /* \"#utility.yul\":1740:1741   */\n  0x00\n    /* \"#utility.yul\":1731:1737   */\n  dup4\n    /* \"#utility.yul\":1726:1729   */\n  dup4\n    /* \"#utility.yul\":1722:1738   */\n  add\n    /* \"#utility.yul\":1715:1742   */\n  mstore\n    /* \"#utility.yul\":1610:1749   */\n  pop\n  pop\n  pop\n  jump\t// out\n    /* \"#utility.yul\":1755:2189   */\ntag_56:\n    /* \"#utility.yul\":1844:1849   */\n  0x00\n    /* \"#utility.yul\":1869:1935   */\n  tag_107\n    /* \"#utility.yul\":1885:1934   */\n  tag_108\n    /* \"#utility.yul\":1927:1933   */\n  dup5\n    /* \"#utility.yul\":1885:1934   */\n  tag_54\n  jump\t// in\ntag_108:\n    /* \"#utility.yul\":1869:1935   */\n  tag_53\n  jump\t// in\ntag_107:\n    /* \"#utility.yul\":1860:1935   */\n  swap1\n  pop\n    /* \"#utility.yul\":1958:1964   */\n  dup3\n    /* \"#utility.yul\":1951:1956   */\n  dup2\n    /* \"#utility.yul\":1944:1965   */\n  mstore\n    /* \"#utility.yul\":1996:2000   */\n  0x20\n    /* \"#utility.yul\":1989:1994   */\n  dup2\n    /* \"#utility.yul\":1985:2001   */\n  add\n    /* \"#utility.yul\":2034:2037   */\n  dup5\n    /* \"#utility.yul\":2025:2031   */\n  dup5\n    /* \"#utility.yul\":2020:2023   */\n  dup5\n    /* \"#utility.yul\":2016:2032   */\n  add\n    /* \"#utility.yul\":2013:2038   */\n  gt\n    /* \"#utility.yul\":2010:2122   */\n  iszero\n  tag_109\n  jumpi\n    /* \"#utility.yul\":2041:2120   */\n  tag_110\n  tag_49\n  jump\t// in\ntag_110:\n    /* \"#utility.yul\":2010:2122   */\ntag_109:\n    /* \"#utility.yul\":2131:2183   */\n  tag_111\n    /* \"#utility.yul\":2176:2182   */\n  dup5\n    /* \"#utility.yul\":2171:2174   */\n  dup3\n    /* \"#utility.yul\":2166:2169   */\n  dup6\n    /* \"#utility.yul\":2131:2183   */\n  tag_55\n  jump\t// in\ntag_111:\n    /* \"#utility.yul\":1850:2189   */\n  pop\n    /* \"#utility.yul\":1755:2189   */\n  swap4\n  swap3\n  pop\n  pop\n  pop\n  jump\t// out\n    /* \"#utility.yul\":2209:2564   */\ntag_57:\n    /* \"#utility.yul\":2276:2281   */\n  0x00\n    /* \"#utility.yul\":2325:2328   */\n  dup3\n    /* \"#utility.yul\":2318:2322   */\n  0x1f\n    /* \"#utility.yul\":2310:2316   */\n  dup4\n    /* \"#utility.yul\":2306:2323   */\n  add\n    /* \"#utility.yul\":2302:2329   */\n  slt\n    /* \"#utility.yul\":2292:2414   */\n  tag_113\n  jumpi\n    /* \"#utility.yul\":2333:2412   */\n  tag_114\n  tag_48\n  jump\t// in\ntag_114:\n    /* \"#utility.yul\":2292:2414   */\ntag_113:\n    /* \"#utility.yul\":2443:2449   */\n  dup2\n    /* \"#utility.yul\":2437:2450   */\n  mload\n    /* \"#utility.yul\":2468:2558   */\n  tag_115\n    /* \"#utility.yul\":2554:2557   */\n  dup5\n    /* \"#utility.yul\":2546:2552   */\n  dup3\n    /* \"#utility.yul\":2539:2543   */\n  0x20\n    /* \"#utility.yul\":2531:2537   */\n  dup7\n    /* \"#utility.yul\":2527:2544   */\n  add\n    /* \"#utility.yul\":2468:2558   */\n  tag_56\n  jump\t// in\ntag_115:\n    /* \"#utility.yul\":2459:2558   */\n  swap2\n  pop\n    /* \"#utility.yul\":2282:2564   */\n  pop\n    /* \"#utility.yul\":2209:2564   */\n  swap3\n  swap2\n  pop\n  pop\n  jump\t// out\n    /* \"#utility.yul\":2570:2647   */\ntag_58:\n    /* \"#utility.yul\":2607:2614   */\n  0x00\n    /* \"#utility.yul\":2636:2641   */\n  dup2\n    /* \"#utility.yul\":2625:2641   */\n  swap1\n  pop\n    /* \"#utility.yul\":2570:2647   */\n  swap2\n  swap1\n  pop\n  jump\t// out\n    /* \"#utility.yul\":2653:2775   */\ntag_59:\n    /* \"#utility.yul\":2726:2750   */\n  tag_118\n    /* \"#utility.yul\":2744:2749   */\n  dup2\n    /* \"#utility.yul\":2726:2750   */\n  tag_58\n  jump\t// in\ntag_118:\n    /* \"#utility.yul\":2719:2724   */\n  dup2\n    /* \"#utility.yul\":2716:2751   */\n  eq\n    /* \"#utility.yul\":2706:2769   */\n  tag_119\n  jumpi\n    /* \"#utility.yul\":2765:2766   */\n  0x00\n    /* \"#utility.yul\":2762:2763   */\n  dup1\n    /* \"#utility.yul\":2755:2767   */\n  revert\n    /* \"#utility.yul\":2706:2769   */\ntag_119:\n    /* \"#utility.yul\":2653:2775   */\n  pop\n  jump\t// out\n    /* \"#utility.yul\":2781:2924   */\ntag_60:\n    /* \"#utility.yul\":2838:2843   */\n  0x00\n    /* \"#utility.yul\":2869:2875   */\n  dup2\n    /* \"#utility.yul\":2863:2876   */\n  mload\n    /* \"#utility.yul\":2854:2876   */\n  swap1\n  pop\n    /* \"#utility.yul\":2885:2918   */\n  tag_121\n    /* \"#utility.yul\":2912:2917   */\n  dup2\n    /* \"#utility.yul\":2885:2918   */\n  tag_59\n  jump\t// in\ntag_121:\n    /* \"#utility.yul\":2781:2924   */\n  swap3\n  swap2\n  pop\n  pop\n  jump\t// out\n    /* \"#utility.yul\":2930:3056   */\ntag_61:\n    /* \"#utility.yul\":2967:2974   */\n  0x00\n    /* \"#utility.yul\":3007:3049   */\n  0xffffffffffffffffffffffffffffffffffffffff\n    /* \"#utility.yul\":3000:3005   */\n  dup3\n    /* \"#utility.yul\":2996:3050   */\n  and\n    /* \"#utility.yul\":2985:3050   */\n  swap1\n  pop\n    /* \"#utility.yul\":2930:3056   */\n  swap2\n  swap1\n  pop\n  jump\t// out\n    /* \"#utility.yul\":3062:3158   */\ntag_62:\n    /* \"#utility.yul\":3099:3106   */\n  0x00\n    /* \"#utility.yul\":3128:3152   */\n  tag_124\n    /* \"#utility.yul\":3146:3151   */\n  dup3\n    /* \"#utility.yul\":3128:3152   */\n  tag_61\n  jump\t// in\ntag_124:\n    /* \"#utility.yul\":3117:3152   */\n  swap1\n  pop\n    /* \"#utility.yul\":3062:3158   */\n  swap2\n  swap1\n  pop\n  jump\t// out\n    /* \"#utility.yul\":3164:3286   */\ntag_63:\n    /* \"#utility.yul\":3237:3261   */\n  tag_126\n    /* \"#utility.yul\":3255:3260   */\n  dup2\n    /* \"#utility.yul\":3237:3261   */\n  tag_62\n  jump\t// in\ntag_126:\n    /* \"#utility.yul\":3230:3235   */\n  dup2\n    /* \"#utility.yul\":3227:3262   */\n  eq\n    /* \"#utility.yul\":3217:3280   */\n  tag_127\n  jumpi\n    /* \"#utility.yul\":3276:3277   */\n  0x00\n    /* \"#utility.yul\":3273:3274   */\n  dup1\n    /* \"#utility.yul\":3266:3278   */\n  revert\n    /* \"#utility.yul\":3217:3280   */\ntag_127:\n    /* \"#utility.yul\":3164:3286   */\n  pop\n  jump\t// out\n    /* \"#utility.yul\":3292:3435   */\ntag_64:\n    /* \"#utility.yul\":3349:3354   */\n  0x00\n    /* \"#utility.yul\":3380:3386   */\n  dup2\n    /* \"#utility.yul\":3374:3387   */\n  mload\n    /* \"#utility.yul\":3365:3387   */\n  swap1\n  pop\n    /* \"#utility.yul\":3396:3429   */\n  tag_129\n    /* \"#utility.yul\":3423:3428   */\n  dup2\n    /* \"#utility.yul\":3396:3429   */\n  tag_63\n  jump\t// in\ntag_129:\n    /* \"#utility.yul\":3292:3435   */\n  swap3\n  swap2\n  pop\n  pop\n  jump\t// out\n    /* \"#utility.yul\":3441:4764   */\ntag_3:\n    /* \"#utility.yul\":3567:3573   */\n  0x00\n    /* \"#utility.yul\":3575:3581   */\n  dup1\n    /* \"#utility.yul\":3583:3589   */\n  0x00\n    /* \"#utility.yul\":3591:3597   */\n  dup1\n    /* \"#utility.yul\":3599:3605   */\n  0x00\n    /* \"#utility.yul\":3648:3651   */\n  0xa0\n    /* \"#utility.yul\":3636:3645   */\n  dup7\n    /* \"#utility.yul\":3627:3634   */\n  dup9\n    /* \"#utility.yul\":3623:3646   */\n  sub\n    /* \"#utility.yul\":3619:3652   */\n  slt\n    /* \"#utility.yul\":3616:3736   */\n  iszero\n  tag_131\n  jumpi\n    /* \"#utility.yul\":3655:3734   */\n  tag_132\n  tag_46\n  jump\t// in\ntag_132:\n    /* \"#utility.yul\":3616:3736   */\ntag_131:\n    /* \"#utility.yul\":3796:3797   */\n  0x00\n    /* \"#utility.yul\":3785:3794   */\n  dup7\n    /* \"#utility.yul\":3781:3798   */\n  add\n    /* \"#utility.yul\":3775:3799   */\n  mload\n    /* \"#utility.yul\":3826:3844   */\n  0xffffffffffffffff\n    /* \"#utility.yul\":3818:3824   */\n  dup2\n    /* \"#utility.yul\":3815:3845   */\n  gt\n    /* \"#utility.yul\":3812:3929   */\n  iszero\n  tag_133\n  jumpi\n    /* \"#utility.yul\":3848:3927   */\n  tag_134\n  tag_47\n  jump\t// in\ntag_134:\n    /* \"#utility.yul\":3812:3929   */\ntag_133:\n    /* \"#utility.yul\":3953:4027   */\n  tag_135\n    /* \"#utility.yul\":4019:4026   */\n  dup9\n    /* \"#utility.yul\":4010:4016   */\n  dup3\n    /* \"#utility.yul\":3999:4008   */\n  dup10\n    /* \"#utility.yul\":3995:4017   */\n  add\n    /* \"#utility.yul\":3953:4027   */\n  tag_57\n  jump\t// in\ntag_135:\n    /* \"#utility.yul\":3943:4027   */\n  swap6\n  pop\n    /* \"#utility.yul\":3746:4037   */\n  pop\n    /* \"#utility.yul\":4097:4099   */\n  0x20\n    /* \"#utility.yul\":4086:4095   */\n  dup7\n    /* \"#utility.yul\":4082:4100   */\n  add\n    /* \"#utility.yul\":4076:4101   */\n  mload\n    /* \"#utility.yul\":4128:4146   */\n  0xffffffffffffffff\n    /* \"#utility.yul\":4120:4126   */\n  dup2\n    /* \"#utility.yul\":4117:4147   */\n  gt\n    /* \"#utility.yul\":4114:4231   */\n  iszero\n  tag_136\n  jumpi\n    /* \"#utility.yul\":4150:4229   */\n  tag_137\n  tag_47\n  jump\t// in\ntag_137:\n    /* \"#utility.yul\":4114:4231   */\ntag_136:\n    /* \"#utility.yul\":4255:4329   */\n  tag_138\n    /* \"#utility.yul\":4321:4328   */\n  dup9\n    /* \"#utility.yul\":4312:4318   */\n  dup3\n    /* \"#utility.yul\":4301:4310   */\n  dup10\n    /* \"#utility.yul\":4297:4319   */\n  add\n    /* \"#utility.yul\":4255:4329   */\n  tag_57\n  jump\t// in\ntag_138:\n    /* \"#utility.yul\":4245:4329   */\n  swap5\n  pop\n    /* \"#utility.yul\":4047:4339   */\n  pop\n    /* \"#utility.yul\":4378:4380   */\n  0x40\n    /* \"#utility.yul\":4404:4468   */\n  tag_139\n    /* \"#utility.yul\":4460:4467   */\n  dup9\n    /* \"#utility.yul\":4451:4457   */\n  dup3\n    /* \"#utility.yul\":4440:4449   */\n  dup10\n    /* \"#utility.yul\":4436:4458   */\n  add\n    /* \"#utility.yul\":4404:4468   */\n  tag_60\n  jump\t// in\ntag_139:\n    /* \"#utility.yul\":4394:4468   */\n  swap4\n  pop\n    /* \"#utility.yul\":4349:4478   */\n  pop\n    /* \"#utility.yul\":4517:4519   */\n  0x60\n    /* \"#utility.yul\":4543:4607   */\n  tag_140\n    /* \"#utility.yul\":4599:4606   */\n  dup9\n    /* \"#utility.yul\":4590:4596   */\n  dup3\n    /* \"#utility.yul\":4579:4588   */\n  dup10\n    /* \"#utility.yul\":4575:4597   */\n  add\n    /* \"#utility.yul\":4543:4607   */\n  tag_64\n  jump\t// in\ntag_140:\n    /* \"#utility.yul\":4533:4607   */\n  swap3\n  pop\n    /* \"#utility.yul\":4488:4617   */\n  pop\n    /* \"#utility.yul\":4656:4659   */\n  0x80\n    /* \"#utility.yul\":4683:4747   */\n  tag_141\n    /* \"#utility.yul\":4739:4746   */\n  dup9\n    /* \"#utility.yul\":4730:4736   */\n  dup3\n    /* \"#utility.yul\":4719:4728   */\n  dup10\n    /* \"#utility.yul\":4715:4737   */\n  add\n    /* \"#utility.yul\":4683:4747   */\n  tag_64\n  jump\t// in\ntag_141:\n    /* \"#utility.yul\":4673:4747   */\n  swap2\n  pop\n    /* \"#utility.yul\":4627:4757   */\n  pop\n    /* \"#utility.yul\":3441:4764   */\n  swap3\n  swap6\n  pop\n  swap3\n  swap6\n  swap1\n  swap4\n  pop\n  jump\t// out\n    /* \"#utility.yul\":4770:4869   */\ntag_65:\n    /* \"#utility.yul\":4822:4828   */\n  0x00\n    /* \"#utility.yul\":4856:4861   */\n  dup2\n    /* \"#utility.yul\":4850:4862   */\n  mload\n    /* \"#utility.yul\":4840:4862   */\n  swap1\n  pop\n    /* \"#utility.yul\":4770:4869   */\n  swap2\n  swap1\n  pop\n  jump\t// out\n    /* \"#utility.yul\":4875:5055   */\ntag_66:\n    /* \"#utility.yul\":4923:5000   */\n  0x4e487b7100000000000000000000000000000000000000000000000000000000\n    /* \"#utility.yul\":4920:4921   */\n  0x00\n    /* \"#utility.yul\":4913:5001   */\n  mstore\n    /* \"#utility.yul\":5020:5024   */\n  0x22\n    /* \"#utility.yul\":5017:5018   */\n  0x04\n    /* \"#utility.yul\":5010:5025   */\n  mstore\n    /* \"#utility.yul\":5044:5048   */\n  0x24\n    /* \"#utility.yul\":5041:5042   */\n  0x00\n    /* \"#utility.yul\":5034:5049   */\n  revert\n    /* \"#utility.yul\":5061:5381   */\ntag_67:\n    /* \"#utility.yul\":5105:5111   */\n  0x00\n    /* \"#utility.yul\":5142:5143   */\n  0x02\n    /* \"#utility.yul\":5136:5140   */\n  dup3\n    /* \"#utility.yul\":5132:5144   */\n  div\n    /* \"#utility.yul\":5122:5144   */\n  swap1\n  pop\n    /* \"#utility.yul\":5189:5190   */\n  0x01\n    /* \"#utility.yul\":5183:5187   */\n  dup3\n    /* \"#utility.yul\":5179:5191   */\n  and\n    /* \"#utility.yul\":5210:5228   */\n  dup1\n    /* \"#utility.yul\":5200:5281   */\n  tag_145\n  jumpi\n    /* \"#utility.yul\":5266:5270   */\n  0x7f\n    /* \"#utility.yul\":5258:5264   */\n  dup3\n    /* \"#utility.yul\":5254:5271   */\n  and\n    /* \"#utility.yul\":5244:5271   */\n  swap2\n  pop\n    /* \"#utility.yul\":5200:5281   */\ntag_145:\n    /* \"#utility.yul\":5328:5330   */\n  0x20\n    /* \"#utility.yul\":5320:5326   */\n  dup3\n    /* \"#utility.yul\":5317:5331   */\n  lt\n    /* \"#utility.yul\":5297:5315   */\n  dup2\n    /* \"#utility.yul\":5294:5332   */\n  sub\n    /* \"#utility.yul\":5291:5375   */\n  tag_146\n  jumpi\n    /* \"#utility.yul\":5347:5365   */\n  tag_147\n  tag_66\n  jump\t// in\ntag_147:\n    /* \"#utility.yul\":5291:5375   */\ntag_146:\n    /* \"#utility.yul\":5112:5381   */\n  pop\n    /* \"#utility.yul\":5061:5381   */\n  swap2\n  swap1\n  pop\n  jump\t// out\n    /* \"#utility.yul\":5387:5528   */\ntag_68:\n    /* \"#utility.yul\":5436:5440   */\n  0x00\n    /* \"#utility.yul\":5459:5462   */\n  dup2\n    /* \"#utility.yul\":5451:5462   */\n  swap1\n  pop\n    /* \"#utility.yul\":5482:5485   */\n  dup2\n    /* \"#utility.yul\":5479:5480   */\n  0x00\n    /* \"#utility.yul\":5472:5486   */\n  mstore\n    /* \"#utility.yul\":5516:5520   */\n  0x20\n    /* \"#utility.yul\":5513:5514   */\n  0x00\n    /* \"#utility.yul\":5503:5521   */\n  keccak256\n    /* \"#utility.yul\":5495:5521   */\n  swap1\n  pop\n    /* \"#utility.yul\":5387:5528   */\n  swap2\n  swap1\n  pop\n  jump\t// out\n    /* \"#utility.yul\":5534:5627   */\ntag_69:\n    /* \"#utility.yul\":5571:5577   */\n  0x00\n    /* \"#utility.yul\":5618:5620   */\n  0x20\n    /* \"#utility.yul\":5613:5615   */\n  0x1f\n    /* \"#utility.yul\":5606:5611   */\n  dup4\n    /* \"#utility.yul\":5602:5616   */\n  add\n    /* \"#utility.yul\":5598:5621   */\n  div\n    /* \"#utility.yul\":5588:5621   */\n  swap1\n  pop\n    /* \"#utility.yul\":5534:5627   */\n  swap2\n  swap1\n  pop\n  jump\t// out\n    /* \"#utility.yul\":5633:5740   */\ntag_70:\n    /* \"#utility.yul\":5677:5685   */\n  0x00\n    /* \"#utility.yul\":5727:5732   */\n  dup3\n    /* \"#utility.yul\":5721:5725   */\n  dup3\n    /* \"#utility.yul\":5717:5733   */\n  shl\n    /* \"#utility.yul\":5696:5733   */\n  swap1\n  pop\n    /* \"#utility.yul\":5633:5740   */\n  swap3\n  swap2\n  pop\n  pop\n  jump\t// out\n    /* \"#utility.yul\":5746:6139   */\ntag_71:\n    /* \"#utility.yul\":5815:5821   */\n  0x00\n    /* \"#utility.yul\":5865:5866   */\n  0x08\n    /* \"#utility.yul\":5853:5863   */\n  dup4\n    /* \"#utility.yul\":5849:5867   */\n  mul\n    /* \"#utility.yul\":5888:5985   */\n  tag_152\n    /* \"#utility.yul\":5918:5984   */\n  0xffffffffffffffffffffffffffffffffffffffffffffffffffffffffffffffff\n    /* \"#utility.yul\":5907:5916   */\n  dup3\n    /* \"#utility.yul\":5888:5985   */\n  tag_70\n  jump\t// in\ntag_152:\n    /* \"#utility.yul\":6006:6045   */\n  tag_153\n    /* \"#utility.yul\":6036:6044   */\n  dup7\n    /* \"#utility.yul\":6025:6034   */\n  dup4\n    /* \"#utility.yul\":6006:6045   */\n  tag_70\n  jump\t// in\ntag_153:\n    /* \"#utility.yul\":5994:6045   */\n  swap6\n  pop\n    /* \"#utility.yul\":6078:6082   */\n  dup1\n    /* \"#utility.yul\":6074:6083   */\n  not\n    /* \"#utility.yul\":6067:6072   */\n  dup5\n    /* \"#utility.yul\":6063:6084   */\n  and\n    /* \"#utility.yul\":6054:6084   */\n  swap4\n  pop\n    /* \"#utility.yul\":6127:6131   */\n  dup1\n    /* \"#utility.yul\":6117:6125   */\n  dup7\n    /* \"#utility.yul\":6113:6132   */\n  and\n    /* \"#utility.yul\":6106:6111   */\n  dup5\n    /* \"#utility.yul\":6103:6133   */\n  or\n    /* \"#utility.yul\":6093:6133   */\n  swap3\n  pop\n    /* \"#utility.yul\":5822:6139   */\n  pop\n  pop\n    /* \"#utility.yul\":5746:6139   */\n  swap4\n  swap3\n  pop\n  pop\n  pop\n  jump\t// out\n    /* \"#utility.yul\":6145:6205   */\ntag_72:\n    /* \"#utility.yul\":6173:6176   */\n  0x00\n    /* \"#utility.yul\":6194:6199   */\n  dup2\n    /* \"#utility.yul\":6187:6199   */\n  swap1\n  pop\n    /* \"#utility.yul\":6145:6205   */\n  swap2\n  swap1\n  pop\n  jump\t// out\n    /* \"#utility.yul\":6211:6353   */\ntag_73:\n    /* \"#utility.yul\":6261:6270   */\n  0x00\n    /* \"#utility.yul\":6294:6347   */\n  tag_156\n    /* \"#utility.yul\":6312:6346   */\n  tag_157\n    /* \"#utility.yul\":6321:6345   */\n  tag_158\n    /* \"#utility.yul\":6339:6344   */\n  dup5\n    /* \"#utility.yul\":6321:6345   */\n  tag_58\n  jump\t// in\ntag_158:\n    /* \"#utility.yul\":6312:6346   */\n  tag_72\n  jump\t// in\ntag_157:\n    /* \"#utility.yul\":6294:6347   */\n  tag_58\n  jump\t// in\ntag_156:\n    /* \"#utility.yul\":6281:6347   */\n  swap1\n  pop\n    /* \"#utility.yul\":6211:6353   */\n  swap2\n  swap1\n  pop\n  jump\t// out\n    /* \"#utility.yul\":6359:6434   */\ntag_74:\n    /* \"#utility.yul\":6402:6405   */\n  0x00\n    /* \"#utility.yul\":6423:6428   */\n  dup2\n    /* \"#utility.yul\":6416:6428   */\n  swap1\n  pop\n    /* \"#utility.yul\":6359:6434   */\n  swap2\n  swap1\n  pop\n  jump\t// out\n    /* \"#utility.yul\":6440:6709   */\ntag_75:\n    /* \"#utility.yul\":6550:6589   */\n  tag_161\n    /* \"#utility.yul\":6581:6588   */\n  dup4\n    /* \"#utility.yul\":6550:6589   */\n  tag_73\n  jump\t// in\ntag_161:\n    /* \"#utility.yul\":6611:6702   */\n  tag_162\n    /* \"#utility.yul\":6660:6701   */\n  tag_163\n    /* \"#utility.yul\":6684:6700   */\n  dup3\n    /* \"#utility.yul\":6660:6701   */\n  tag_74\n  jump\t// in\ntag_163:\n    /* \"#utility.yul\":6652:6658   */\n  dup5\n    /* \"#utility.yul\":6645:6649   */\n  dup5\n    /* \"#utility.yul\":6639:6650   */\n  sload\n    /* \"#utility.yul\":6611:6702   */\n  tag_71\n  jump\t// in\ntag_162:\n    /* \"#utility.yul\":6605:6609   */\n  dup3\n    /* \"#utility.yul\":6598:6703   */\n  sstore\n    /* \"#utility.yul\":6516:6709   */\n  pop\n    /* \"#utility.yul\":6440:6709   */\n  pop\n  pop\n  pop\n  jump\t// out\n    /* \"#utility.yul\":6715:6788   */\ntag_76:\n    /* \"#utility.yul\":6760:6763   */\n  0x00\n    /* \"#utility.yul\":6715:6788   */\n  swap1\n  jump\t// out\n    /* \"#utility.yul\":6794:6983   */\ntag_77:\n    /* \"#utility.yul\":6871:6903   */\n  tag_166\n  tag_76\n  jump\t// in\ntag_166:\n    /* \"#utility.yul\":6912:6977   */\n  tag_167\n    /* \"#utility.yul\":6970:6976   */\n  dup2\n    /* \"#utility.yul\":6962:6968   */\n  dup5\n    /* \"#utility.yul\":6956:6960   */\n  dup5\n    /* \"#utility.yul\":6912:6977   */\n  tag_75\n  jump\t// in\ntag_167:\n    /* \"#utility.yul\":6847:6983   */\n  pop\n    /* \"#utility.yul\":6794:6983   */\n  pop\n  pop\n  jump\t// out\n    /* \"#utility.yul\":6989:7175   */\ntag_78:\n    /* \"#utility.yul\":7049:7169   */\ntag_169:\n    /* \"#utility.yul\":7066:7069   */\n  dup2\n    /* \"#utility.yul\":7059:7064   */\n  dup2\n    /* \"#utility.yul\":7056:7070   */\n  lt\n    /* \"#utility.yul\":7049:7169   */\n  iszero\n  tag_171\n  jumpi\n    /* \"#utility.yul\":7120:7159   */\n  tag_172\n    /* \"#utility.yul\":7157:7158   */\n  0x00\n    /* \"#utility.yul\":7150:7155   */\n  dup3\n    /* \"#utility.yul\":7120:7159   */\n  tag_77\n  jump\t// in\ntag_172:\n    /* \"#utility.yul\":7093:7094   */\n  0x01\n    /* \"#utility.yul\":7086:7091   */\n  dup2\n    /* \"#utility.yul\":7082:7095   */\n  add\n    /* \"#utility.yul\":7073:7095   */\n  swap1\n  pop\n    /* \"#utility.yul\":7049:7169   */\n  jump(tag_169)\ntag_171:\n    /* \"#utility.yul\":6989:7175   */\n  pop\n  pop\n  jump\t// out\n    /* \"#utility.yul\":7181:7724   */\ntag_79:\n    /* \"#utility.yul\":7282:7284   */\n  0x1f\n    /* \"#utility.yul\":7277:7280   */\n  dup3\n    /* \"#utility.yul\":7274:7285   */\n  gt\n    /* \"#utility.yul\":7271:7717   */\n  iszero\n  tag_174\n  jumpi\n    /* \"#utility.yul\":7316:7354   */\n  tag_175\n    /* \"#utility.yul\":7348:7353   */\n  dup2\n    /* \"#utility.yul\":7316:7354   */\n  tag_68\n  jump\t// in\ntag_175:\n    /* \"#utility.yul\":7400:7429   */\n  tag_176\n    /* \"#utility.yul\":7418:7428   */\n  dup5\n    /* \"#utility.yul\":7400:7429   */\n  tag_69\n  jump\t// in\ntag_176:\n    /* \"#utility.yul\":7390:7398   */\n  dup2\n    /* \"#utility.yul\":7386:7430   */\n  add\n    /* \"#utility.yul\":7583:7585   */\n  0x20\n    /* \"#utility.yul\":7571:7581   */\n  dup6\n    /* \"#utility.yul\":7568:7586   */\n  lt\n    /* \"#utility.yul\":7565:7614   */\n  iszero\n  tag_177\n  jumpi\n    /* \"#utility.yul\":7604:7612   */\n  dup2\n    /* \"#utility.yul\":7589:7612   */\n  swap1\n  pop\n    /* \"#utility.yul\":7565:7614   */\ntag_177:\n    /* \"#utility.yul\":7627:7707   */\n  tag_178\n    /* \"#utility.yul\":7683:7705   */\n  tag_179\n    /* \"#utility.yul\":7701:7704   */\n  dup6\n    /* \"#utility.yul\":7683:7705   */\n  tag_69\n  jump\t// in\ntag_179:\n    /* \"#utility.yul\":7673:7681   */\n  dup4\n    /* \"#utility.yul\":7669:7706   */\n  add\n    /* \"#utility.yul\":7656:7667   */\n  dup3\n    /* \"#utility.yul\":7627:7707   */\n  tag_78\n  jump\t// in\ntag_178:\n    /* \"#utility.yul\":7286:7717   */\n  pop\n  pop\n    /* \"#utility.yul\":7271:7717   */\ntag_174:\n    /* \"#utility.yul\":7181:7724   */\n  pop\n  pop\n  pop\n  jump\t// out\n    /* \"#utility.yul\":7730:7847   */\ntag_80:\n    /* \"#utility.yul\":7784:7792   */\n  0x00\n    /* \"#utility.yul\":7834:7839   */\n  dup3\n    /* \"#utility.yul\":7828:7832   */\n  dup3\n    /* \"#utility.yul\":7824:7840   */\n  shr\n    /* \"#utility.yul\":7803:7840   */\n  swap1\n  pop\n    /* \"#utility.yul\":7730:7847   */\n  swap3\n  swap2\n  pop\n  pop\n  jump\t// out\n    /* \"#utility.yul\":7853:8022   */\ntag_81:\n    /* \"#utility.yul\":7897:7903   */\n  0x00\n    /* \"#utility.yul\":7930:7981   */\n  tag_182\n    /* \"#utility.yul\":7978:7979   */\n  0x00\n    /* \"#utility.yul\":7974:7980   */\n  not\n    /* \"#utility.yul\":7966:7971   */\n  dup5\n    /* \"#utility.yul\":7963:7964   */\n  0x08\n    /* \"#utility.yul\":7959:7972   */\n  mul\n    /* \"#utility.yul\":7930:7981   */\n  tag_80\n  jump\t// in\ntag_182:\n    /* \"#utility.yul\":7926:7982   */\n  not\n    /* \"#utility.yul\":8011:8015   */\n  dup1\n    /* \"#utility.yul\":8005:8009   */\n  dup4\n    /* \"#utility.yul\":8001:8016   */\n  and\n    /* \"#utility.yul\":7991:8016   */\n  swap2\n  pop\n    /* \"#utility.yul\":7904:8022   */\n  pop\n    /* \"#utility.yul\":7853:8022   */\n  swap3\n  swap2\n  pop\n  pop\n  jump\t// out\n    /* \"#utility.yul\":8027:8322   */\ntag_82:\n    /* \"#utility.yul\":8103:8107   */\n  0x00\n    /* \"#utility.yul\":8249:8278   */\n  tag_184\n    /* \"#utility.yul\":8274:8277   */\n  dup4\n    /* \"#utility.yul\":8268:8272   */\n  dup4\n    /* \"#utility.yul\":8249:8278   */\n  tag_81\n  jump\t// in\ntag_184:\n    /* \"#utility.yul\":8241:8278   */\n  swap2\n  pop\n    /* \"#utility.yul\":8311:8314   */\n  dup3\n    /* \"#utility.yul\":8308:8309   */\n  0x02\n    /* \"#utility.yul\":8304:8315   */\n  mul\n    /* \"#utility.yul\":8298:8302   */\n  dup3\n    /* \"#utility.yul\":8295:8316   */\n  or\n    /* \"#utility.yul\":8287:8316   */\n  swap1\n  pop\n    /* \"#utility.yul\":8027:8322   */\n  swap3\n  swap2\n  pop\n  pop\n  jump\t// out\n    /* \"#utility.yul\":8327:9722   */\ntag_11:\n    /* \"#utility.yul\":8444:8481   */\n  tag_186\n    /* \"#utility.yul\":8477:8480   */\n  dup3\n    /* \"#utility.yul\":8444:8481   */\n  tag_65\n  jump\t// in\ntag_186:\n    /* \"#utility.yul\":8546:8564   */\n  0xffffffffffffffff\n    /* \"#utility.yul\":8538:8544   */\n  dup2\n    /* \"#utility.yul\":8535:8565   */\n  gt\n    /* \"#utility.yul\":8532:8588   */\n  iszero\n  tag_187\n  jumpi\n    /* \"#utility.yul\":8568:8586   */\n  tag_188\n  tag_51\n  jump\t// in\ntag_188:\n    /* \"#utility.yul\":8532:8588   */\ntag_187:\n    /* \"#utility.yul\":8612:8650   */\n  tag_189\n    /* \"#utility.yul\":8644:8648   */\n  dup3\n    /* \"#utility.yul\":8638:8649   */\n  sload\n    /* \"#utility.yul\":8612:8650   */\n  tag_67\n  jump\t// in\ntag_189:\n    /* \"#utility.yul\":8697:8764   */\n  tag_190\n    /* \"#utility.yul\":8757:8763   */\n  dup3\n    /* \"#utility.yul\":8749:8755   */\n  dup3\n    /* \"#utility.yul\":8743:8747   */\n  dup6\n    /* \"#utility.yul\":8697:8764   */\n  tag_79\n  jump\t// in\ntag_190:\n    /* \"#utility.yul\":8791:8792   */\n  0x00\n    /* \"#utility.yul\":8815:8819   */\n  0x20\n    /* \"#utility.yul\":8802:8819   */\n  swap1\n  pop\n    /* \"#utility.yul\":8847:8849   */\n  0x1f\n    /* \"#utility.yul\":8839:8845   */\n  dup4\n    /* \"#utility.yul\":8836:8850   */\n  gt\n    /* \"#utility.yul\":8864:8865   */\n  0x01\n    /* \"#utility.yul\":8859:9477   */\n  dup2\n  eq\n  tag_192\n  jumpi\n    /* \"#utility.yul\":9521:9522   */\n  0x00\n    /* \"#utility.yul\":9538:9544   */\n  dup5\n    /* \"#utility.yul\":9535:9612   */\n  iszero\n  tag_193\n  jumpi\n    /* \"#utility.yul\":9587:9596   */\n  dup3\n    /* \"#utility.yul\":9582:9585   */\n  dup8\n    /* \"#utility.yul\":9578:9597   */\n  add\n    /* \"#utility.yul\":9572:9598   */\n  mload\n    /* \"#utility.yul\":9563:9598   */\n  swap1\n  pop\n    /* \"#utility.yul\":9535:9612   */\ntag_193:\n    /* \"#utility.yul\":9638:9705   */\n  tag_194\n    /* \"#utility.yul\":9698:9704   */\n  dup6\n    /* \"#utility.yul\":9691:9696   */\n  dup3\n    /* \"#utility.yul\":9638:9705   */\n  tag_82\n  jump\t// in\ntag_194:\n    /* \"#utility.yul\":9632:9636   */\n  dup7\n    /* \"#utility.yul\":9625:9706   */\n  sstore\n    /* \"#utility.yul\":9494:9716   */\n  pop\n    /* \"#utility.yul\":8829:9716   */\n  jump(tag_191)\n    /* \"#utility.yul\":8859:9477   */\ntag_192:\n    /* \"#utility.yul\":8911:8915   */\n  0x1f\n    /* \"#utility.yul\":8907:8916   */\n  not\n    /* \"#utility.yul\":8899:8905   */\n  dup5\n    /* \"#utility.yul\":8895:8917   */\n  and\n    /* \"#utility.yul\":8945:8982   */\n  tag_195\n    /* \"#utility.yul\":8977:8981   */\n  dup7\n    /* \"#utility.yul\":8945:8982   */\n  tag_68\n  jump\t// in\ntag_195:\n    /* \"#utility.yul\":9004:9005   */\n  0x00\n    /* \"#utility.yul\":9018:9226   */\ntag_196:\n    /* \"#utility.yul\":9032:9039   */\n  dup3\n    /* \"#utility.yul\":9029:9030   */\n  dup2\n    /* \"#utility.yul\":9026:9040   */\n  lt\n    /* \"#utility.yul\":9018:9226   */\n  iszero\n  tag_198\n  jumpi\n    /* \"#utility.yul\":9111:9120   */\n  dup5\n    /* \"#utility.yul\":9106:9109   */\n  dup10\n    /* \"#utility.yul\":9102:9121   */\n  add\n    /* \"#utility.yul\":9096:9122   */\n  mload\n    /* \"#utility.yul\":9088:9094   */\n  dup3\n    /* \"#utility.yul\":9081:9123   */\n  sstore\n    /* \"#utility.yul\":9162:9163   */\n  0x01\n    /* \"#utility.yul\":9154:9160   */\n  dup3\n    /* \"#utility.yul\":9150:9164   */\n  add\n    /* \"#utility.yul\":9140:9164   */\n  swap2\n  pop\n    /* \"#utility.yul\":9209:9211   */\n  0x20\n    /* \"#utility.yul\":9198:9207   */\n  dup6\n    /* \"#utility.yul\":9194:9212   */\n  add\n    /* \"#utility.yul\":9181:9212   */\n  swap5\n  pop\n    /* \"#utility.yul\":9055:9059   */\n  0x20\n    /* \"#utility.yul\":9052:9053   */\n  dup2\n    /* \"#utility.yul\":9048:9060   */\n  add\n    /* \"#utility.yul\":9043:9060   */\n  swap1\n  pop\n    /* \"#utility.yul\":9018:9226   */\n  jump(tag_196)\ntag_198:\n    /* \"#utility.yul\":9254:9260   */\n  dup7\n    /* \"#utility.yul\":9245:9252   */\n  dup4\n    /* \"#utility.yul\":9242:9261   */\n  lt\n    /* \"#utility.yul\":9239:9418   */\n  iszero\n  tag_199\n  jumpi\n    /* \"#utility.yul\":9312:9321   */\n  dup5\n    /* \"#utility.yul\":9307:9310   */\n  dup10\n    /* \"#utility.yul\":9303:9322   */\n  add\n    /* \"#utility.yul\":9297:9323   */\n  mload\n    /* \"#utility.yul\":9355:9403   */\n  tag_200\n    /* \"#utility.yul\":9397:9401   */\n  0x1f\n    /* \"#utility.yul\":9389:9395   */\n  dup10\n    /* \"#utility.yul\":9385:9402   */\n  and\n    /* \"#utility.yul\":9374:9383   */\n  dup3\n    /* \"#utility.yul\":9355:9403   */\n  tag_81\n  jump\t// in\ntag_200:\n    /* \"#utility.yul\":9347:9353   */\n  dup4\n    /* \"#utility.yul\":9340:9404   */\n  sstore\n    /* \"#utility.yul\":9262:9418   */\n  pop\n    /* \"#utility.yul\":9239:9418   */\ntag_199:\n    /* \"#utility.yul\":9464:9465   */\n  0x01\n    /* \"#utility.yul\":9460:9461   */\n  0x02\n    /* \"#utility.yul\":9452:9458   */\n  dup9\n    /* \"#utility.yul\":9448:9462   */\n  mul\n    /* \"#utility.yul\":9444:9466   */\n  add\n    /* \"#utility.yul\":9438:9442   */\n  dup9\n    /* \"#utility.yul\":9431:9467   */\n  sstore\n    /* \"#utility.yul\":8866:9477   */\n  pop\n  pop\n  pop\n    /* \"#utility.yul\":8829:9716   */\ntag_191:\n  pop\n    /* \"#utility.yul\":8419:9722   */\n  pop\n  pop\n  pop\n    /* \"#utility.yul\":8327:9722   */\n  pop\n  pop\n  jump\t// out\n    /* \"#utility.yul\":9728:9846   */\ntag_83:\n    /* \"#utility.yul\":9815:9839   */\n  tag_202\n    /* \"#utility.yul\":9833:9838   */\n  dup2\n    /* \"#utility.yul\":9815:9839   */\n  tag_62\n  jump\t// in\ntag_202:\n    /* \"#utility.yul\":9810:9813   */\n  dup3\n    /* \"#utility.yul\":9803:9840   */\n  mstore\n    /* \"#utility.yul\":9728:9846   */\n  pop\n  pop\n  jump\t// out\n    /* \"#utility.yul\":9852:10074   */\ntag_17:\n    /* \"#utility.yul\":9945:9949   */\n  0x00\n    /* \"#utility.yul\":9983:9985   */\n  0x20\n    /* \"#utility.yul\":9972:9981   */\n  dup3\n    /* \"#utility.yul\":9968:9986   */\n  add\n    /* \"#utility.yul\":9960:9986   */\n  swap1\n  pop\n    /* \"#utility.yul\":9996:10067   */\n  tag_204\n    /* \"#utility.yul\":10064:10065   */\n  0x00\n    /* \"#utility.yul\":10053:10062   */\n  dup4\n    /* \"#utility.yul\":10049:10066   */\n  add\n    /* \"#utility.yul\":10040:10046   */\n  dup5\n    /* \"#utility.yul\":9996:10067   */\n  tag_83\n  jump\t// in\ntag_204:\n    /* \"#utility.yul\":9852:10074   */\n  swap3\n  swap2\n  pop\n  pop\n  jump\t// out\n    /* \"#utility.yul\":10080:10260   */\ntag_84:\n    /* \"#utility.yul\":10128:10205   */\n  0x4e487b7100000000000000000000000000000000000000000000000000000000\n    /* \"#utility.yul\":10125:10126   */\n  0x00\n    /* \"#utility.yul\":10118:10206   */\n  mstore\n    /* \"#utility.yul\":10225:10229   */\n  0x11\n    /* \"#utility.yul\":10222:10223   */\n  0x04\n    /* \"#utility.yul\":10215:10230   */\n  mstore\n    /* \"#utility.yul\":10249:10253   */\n  0x24\n    /* \"#utility.yul\":10246:10247   */\n  0x00\n    /* \"#utility.yul\":10239:10254   */\n  revert\n    /* \"#utility.yul\":10266:10457   */\ntag_36:\n    /* \"#utility.yul\":10306:10309   */\n  0x00\n    /* \"#utility.yul\":10325:10345   */\n  tag_207\n    /* \"#utility.yul\":10343:10344   */\n  dup3\n    /* \"#utility.yul\":10325:10345   */\n  tag_58\n  jump\t// in\ntag_207:\n    /* \"#utility.yul\":10320:10345   */\n  swap2\n  pop\n    /* \"#utility.yul\":10359:10379   */\n  tag_208\n    /* \"#utility.yul\":10377:10378   */\n  dup4\n    /* \"#utility.yul\":10359:10379   */\n  tag_58\n  jump\t// in\ntag_208:\n    /* \"#utility.yul\":10354:10379   */\n  swap3\n  pop\n    /* \"#utility.yul\":10402:10403   */\n  dup3\n    /* \"#utility.yul\":10399:10400   */\n  dup3\n    /* \"#utility.yul\":10395:10404   */\n  add\n    /* \"#utility.yul\":10388:10404   */\n  swap1\n  pop\n    /* \"#utility.yul\":10423:10426   */\n  dup1\n    /* \"#utility.yul\":10420:10421   */\n  dup3\n    /* \"#utility.yul\":10417:10427   */\n  gt\n    /* \"#utility.yul\":10414:10450   */\n  iszero\n  tag_209\n  jumpi\n    /* \"#utility.yul\":10430:10448   */\n  tag_210\n  tag_84\n  jump\t// in\ntag_210:\n    /* \"#utility.yul\":10414:10450   */\ntag_209:\n    /* \"#utility.yul\":10266:10457   */\n  swap3\n  swap2\n  pop\n  pop\n  jump\t// out\n    /* \"#utility.yul\":10463:10581   */\ntag_85:\n    /* \"#utility.yul\":10550:10574   */\n  tag_212\n    /* \"#utility.yul\":10568:10573   */\n  dup2\n    /* \"#utility.yul\":10550:10574   */\n  tag_58\n  jump\t// in\ntag_212:\n    /* \"#utility.yul\":10545:10548   */\n  dup3\n    /* \"#utility.yul\":10538:10575   */\n  mstore\n    /* \"#utility.yul\":10463:10581   */\n  pop\n  pop\n  jump\t// out\n    /* \"#utility.yul\":10587:11029   */\ntag_40:\n    /* \"#utility.yul\":10736:10740   */\n  0x00\n    /* \"#utility.yul\":10774:10776   */\n  0x60\n    /* \"#utility.yul\":10763:10772   */\n  dup3\n    /* \"#utility.yul\":10759:10777   */\n  add\n    /* \"#utility.yul\":10751:10777   */\n  swap1\n  pop\n    /* \"#utility.yul\":10787:10858   */\n  tag_214\n    /* \"#utility.yul\":10855:10856   */\n  0x00\n    /* \"#utility.yul\":10844:10853   */\n  dup4\n    /* \"#utility.yul\":10840:10857   */\n  add\n    /* \"#utility.yul\":10831:10837   */\n  dup7\n    /* \"#utility.yul\":10787:10858   */\n  tag_83\n  jump\t// in\ntag_214:\n    /* \"#utility.yul\":10868:10940   */\n  tag_215\n    /* \"#utility.yul\":10936:10938   */\n  0x20\n    /* \"#utility.yul\":10925:10934   */\n  dup4\n    /* \"#utility.yul\":10921:10939   */\n  add\n    /* \"#utility.yul\":10912:10918   */\n  dup6\n    /* \"#utility.yul\":10868:10940   */\n  tag_85\n  jump\t// in\ntag_215:\n    /* \"#utility.yul\":10950:11022   */\n  tag_216\n    /* \"#utility.yul\":11018:11020   */\n  0x40\n    /* \"#utility.yul\":11007:11016   */\n  dup4\n    /* \"#utility.yul\":11003:11021   */\n  add\n    /* \"#utility.yul\":10994:11000   */\n  dup5\n    /* \"#utility.yul\":10950:11022   */\n  tag_85\n  jump\t// in\ntag_216:\n    /* \"#utility.yul\":10587:11029   */\n  swap5\n  swap4\n  pop\n  pop\n  pop\n  pop\n  jump\t// out\n    /* \"#utility.yul\":11035:11257   */\ntag_44:\n    /* \"#utility.yul\":11128:11132   */\n  0x00\n    /* \"#utility.yul\":11166:11168   */\n  0x20\n    /* \"#utility.yul\":11155:11164   */\n  dup3\n    /* \"#utility.yul\":11151:11169   */\n  add\n    /* \"#utility.yul\":11143:11169   */\n  swap1\n  pop\n    /* \"#utility.yul\":11179:11250   */\n  tag_218\n    /* \"#utility.yul\":11247:11248   */\n  0x00\n    /* \"#utility.yul\":11236:11245   */\n  dup4\n    /* \"#utility.yul\":11232:11249   */\n  add\n    /* \"#utility.yul\":11223:11229   */\n  dup5\n    /* \"#utility.yul\":11179:11250   */\n  tag_85\n  jump\t// in\ntag_218:\n    /* \"#utility.yul\":11035:11257   */\n  swap3\n  swap2\n  pop\n  pop\n  jump\t// out\n    /* \"Signs 2/SignsToken.sol\":403:8143  contract SignsToken is ERC20, Pausable, Ownable, ReentrancyGuard {... */\ntag_26:\n  dataSize(sub_0)\n  dup1\n  dataOffset(sub_0)\n  0x00\n  codecopy\n  0x00\n  return\nstop\n\nsub_0: assembly {\n        /* \"Signs 2/SignsToken.sol\":403:8143  contract SignsToken is ERC20, Pausable, Ownable, ReentrancyGuard {... */\n      mstore(0x40, 0x80)\n      callvalue\n      dup1\n      iszero\n      tag_1\n      jumpi\n      0x00\n      dup1\n      revert\n    tag_1:\n      pop\n      jumpi(tag_2, lt(calldatasize, 0x04))\n      shr(0xe0, calldataload(0x00))\n      dup1\n      0x8da5cb5b\n      gt\n      tag_32\n      jumpi\n      dup1\n      0xc0008d0c\n      gt\n      tag_33\n      jumpi\n      dup1\n      0xd06a2e0e\n      gt\n      tag_34\n      jumpi\n      dup1\n      0xd06a2e0e\n      eq\n      tag_28\n      jumpi\n      dup1\n      0xdd62ed3e\n      eq\n      tag_29\n      jumpi\n      dup1\n      0xf2fde38b\n      eq\n      tag_30\n      jumpi\n      dup1\n      0xf4f831a0\n      eq\n      tag_31\n      jumpi\n      jump(tag_2)\n    tag_34:\n      dup1\n      0xc0008d0c\n      eq\n      tag_24\n      jumpi\n      dup1\n      0xc1f3bdde\n      eq\n      tag_25\n      jumpi\n      dup1\n      0xca1c7238\n      eq\n      tag_26\n      jumpi\n      dup1\n      0xce55b584\n      eq\n      tag_27\n      jumpi\n      jump(tag_2)\n    tag_33:\n      dup1\n      0xa3262ea2\n      gt\n      tag_35\n      jumpi\n      dup1\n      0xa3262ea2\n      eq\n      tag_20\n      jumpi\n      dup1\n      0xa6ec1c6d\n      eq\n      tag_21\n      jumpi\n      dup1\n      0xa775ced3\n      eq\n      tag_22\n      jumpi\n      dup1\n      0xa9059cbb\n      eq\n      tag_23\n      jumpi\n      jump(tag_2)\n    tag_35:\n      dup1\n      0x8da5cb5b\n      eq\n      tag_17\n      jumpi\n      dup1\n      0x95d89b41\n      eq\n      tag_18\n      jumpi\n      dup1\n      0x9778d0cd\n      eq\n      tag_19\n      jumpi\n      jump(tag_2)\n    tag_32:\n      dup1\n      0x43f48fbd\n      gt\n      tag_36\n      jumpi\n      dup1\n      0x715018a6\n      gt\n      tag_37\n      jumpi\n      dup1\n      0x715018a6\n      eq\n      tag_13\n      jumpi\n      dup1\n      0x8456cb59\n      eq\n      tag_14\n      jumpi\n      dup1\n      0x849d13a3\n      eq\n      tag_15\n      jumpi\n      dup1\n      0x8d9d7307\n      eq\n      tag_16\n      jumpi\n      jump(tag_2)\n    tag_37:\n      dup1\n      0x43f48fbd\n      eq\n      tag_10\n      jumpi\n      dup1\n      0x5c975abb\n      eq\n      tag_11\n      jumpi\n      dup1\n      0x70a08231\n      eq\n      tag_12\n      jumpi\n      jump(tag_2)\n    tag_36:\n      dup1\n      0x23b872dd\n      gt\n      tag_38\n      jumpi\n      dup1\n      0x23b872dd\n      eq\n      tag_6\n      jumpi\n      dup1\n      0x2a504a97\n      eq\n      tag_7\n      jumpi\n      dup1\n      0x313ce567\n      eq\n      tag_8\n      jumpi\n      dup1\n      0x3f4ba83a\n      eq\n      tag_9\n      jumpi\n      jump(tag_2)\n    tag_38:\n      dup1\n      0x06fdde03\n      eq\n      tag_3\n      jumpi\n      dup1\n      0x095ea7b3\n      eq\n      tag_4\n      jumpi\n      dup1\n      0x18160ddd\n      eq\n      tag_5\n      jumpi\n    tag_2:\n      0x00\n      dup1\n      revert\n        /* \"@openzeppelin/contracts/token/ERC20/ERC20.sol\":1779:1868  function name() public view virtual returns (string memory) {... */\n    tag_3:\n      tag_39\n      tag_40\n      jump\t// in\n    tag_39:\n      mload(0x40)\n      tag_41\n      swap2\n      swap1\n      tag_42\n      jump\t// in\n    tag_41:\n      mload(0x40)\n      dup1\n      swap2\n      sub\n      swap1\n      return\n        /* \"@openzeppelin/contracts/token/ERC20/ERC20.sol\":3998:4184  function approve(address spender, uint256 value) public virtual returns (bool) {... */\n    tag_4:\n      tag_43\n      0x04\n      dup1\n      calldatasize\n      sub\n      dup2\n      add\n      swap1\n      tag_44\n      swap2\n      swap1\n      tag_45\n      jump\t// in\n    tag_44:\n      tag_46\n      jump\t// in\n    tag_43:\n      mload(0x40)\n      tag_47\n      swap2\n      swap1\n      tag_48\n      jump\t// in\n    tag_47:\n      mload(0x40)\n      dup1\n      swap2\n      sub\n      swap1\n      return\n        /* \"@openzeppelin/contracts/token/ERC20/ERC20.sol\":2849:2946  function totalSupply() public view virtual returns (uint256) {... */\n    tag_5:\n      tag_49\n      tag_50\n      jump\t// in\n    tag_49:\n      mload(0x40)\n      tag_51\n      swap2\n      swap1\n      tag_52\n      jump\t// in\n    tag_51:\n      mload(0x40)\n      dup1\n      swap2\n      sub\n      swap1\n      return\n        /* \"Signs 2/SignsToken.sol\":7911:8140  function transferFrom(address from, address to, uint256 amount)... */\n    tag_6:\n      tag_53\n      0x04\n      dup1\n      calldatasize\n      sub\n      dup2\n      add\n      swap1\n      tag_54\n      swap2\n      swap1\n      tag_55\n      jump\t// in\n    tag_54:\n      tag_56\n      jump\t// in\n    tag_53:\n      mload(0x40)\n      tag_57\n      swap2\n      swap1\n      tag_48\n      jump\t// in\n    tag_57:\n      mload(0x40)\n      dup1\n      swap2\n      sub\n      swap1\n      return\n        /* \"Signs 2/SignsToken.sol\":1111:1157  mapping(address => uint256) public wageBalance */\n    tag_7:\n      tag_58\n      0x04\n      dup1\n      calldatasize\n      sub\n      dup2\n      add\n      swap1\n      tag_59\n      swap2\n      swap1\n      tag_60\n      jump\t// in\n    tag_59:\n      tag_61\n      jump\t// in\n    tag_58:\n      mload(0x40)\n      tag_62\n      swap2\n      swap1\n      tag_52\n      jump\t// in\n    tag_62:\n      mload(0x40)\n      dup1\n      swap2\n      sub\n      swap1\n      return\n        /* \"@openzeppelin/contracts/token/ERC20/ERC20.sol\":2707:2789  function decimals() public view virtual returns (uint8) {... */\n    tag_8:\n      tag_63\n      tag_64\n      jump\t// in\n    tag_63:\n      mload(0x40)\n      tag_65\n      swap2\n      swap1\n      tag_66\n      jump\t// in\n    tag_65:\n      mload(0x40)\n      dup1\n      swap2\n      sub\n      swap1\n      return\n        /* \"Signs 2/SignsToken.sol\":7560:7627  function unpause() external onlyOwner {... */\n    tag_9:\n      tag_67\n      tag_68\n      jump\t// in\n    tag_67:\n      stop\n        /* \"Signs 2/SignsToken.sol\":754:778  RewardRates public rates */\n    tag_10:\n      tag_69\n      tag_70\n      jump\t// in\n    tag_69:\n      mload(0x40)\n      tag_71\n      swap4\n      swap3\n      swap2\n      swap1\n      tag_72\n      jump\t// in\n    tag_71:\n      mload(0x40)\n      dup1\n      swap2\n      sub\n      swap1\n      return\n        /* \"@openzeppelin/contracts/security/Pausable.sol\":1615:1699  function paused() public view virtual returns (bool) {... */\n    tag_11:\n      tag_73\n      tag_74\n      jump\t// in\n    tag_73:\n      mload(0x40)\n      tag_75\n      swap2\n      swap1\n      tag_48\n      jump\t// in\n    tag_75:\n      mload(0x40)\n      dup1\n      swap2\n      sub\n      swap1\n      return\n        /* \"@openzeppelin/contracts/token/ERC20/ERC20.sol\":3004:3120  function balanceOf(address account) public view virtual returns (uint256) {... */\n    tag_12:\n      tag_76\n      0x04\n      dup1\n      calldatasize\n      sub\n      dup2\n      add\n      swap1\n      tag_77\n      swap2\n      swap1\n      tag_60\n      jump\t// in\n    tag_77:\n      tag_78\n      jump\t// in\n    tag_76:\n      mload(0x40)\n      tag_79\n      swap2\n      swap1\n      tag_52\n      jump\t// in\n    tag_79:\n      mload(0x40)\n      dup1\n      swap2\n      sub\n      swap1\n      return\n        /* \"@openzeppelin/contracts/access/Ownable.sol\":2293:2394  function renounceOwnership() public virtual onlyOwner {... */\n    tag_13:\n      tag_80\n      tag_81\n      jump\t// in\n    tag_80:\n      stop\n        /* \"Signs 2/SignsToken.sol\":7489:7552  function pause() external onlyOwner {... */\n    tag_14:\n      tag_82\n      tag_83\n      jump\t// in\n    tag_82:\n      stop\n        /* \"Signs 2/SignsToken.sol\":5682:5970  function updateRates(RewardRates calldata newRates) ... */\n    tag_15:\n      tag_84\n      0x04\n      dup1\n      calldatasize\n      sub\n      dup2\n      add\n      swap1\n      tag_85\n      swap2\n      swap1\n      tag_86\n      jump\t// in\n    tag_85:\n      tag_87\n      jump\t// in\n    tag_84:\n      stop\n        /* \"Signs 2/SignsToken.sol\":6459:7046  function updateGameContract(string calldata contractType, address newAddress) ... */\n    tag_16:\n      tag_88\n      0x04\n      dup1\n      calldatasize\n      sub\n      dup2\n      add\n      swap1\n      tag_89\n      swap2\n      swap1\n      tag_90\n      jump\t// in\n    tag_89:\n      tag_91\n      jump\t// in\n    tag_88:\n      stop\n        /* \"@openzeppelin/contracts/access/Ownable.sol\":1638:1723  function owner() public view virtual returns (address) {... */\n    tag_17:\n      tag_92\n      tag_93\n      jump\t// in\n    tag_92:\n      mload(0x40)\n      tag_94\n      swap2\n      swap1\n      tag_95\n      jump\t// in\n    tag_94:\n      mload(0x40)\n      dup1\n      swap2\n      sub\n      swap1\n      return\n        /* \"@openzeppelin/contracts/token/ERC20/ERC20.sol\":1981:2074  function symbol() public view virtual returns (string memory) {... */\n    tag_18:\n      tag_96\n      tag_97\n      jump\t// in\n    tag_96:\n      mload(0x40)\n      tag_98\n      swap2\n      swap1\n      tag_42\n      jump\t// in\n    tag_98:\n      mload(0x40)\n      dup1\n      swap2\n      sub\n      swap1\n      return\n        /* \"Signs 2/SignsToken.sol\":1203:1255  mapping(address => uint256) public lastEarningsReset */\n    tag_19:\n      tag_99\n      0x04\n      dup1\n      calldatasize\n      sub\n      dup2\n      add\n      swap1\n      tag_100\n      swap2\n      swap1\n      tag_60\n      jump\t// in\n    tag_100:\n      tag_101\n      jump\t// in\n    tag_99:\n      mload(0x40)\n      tag_102\n      swap2\n      swap1\n      tag_52\n      jump\t// in\n    tag_102:\n      mload(0x40)\n      dup1\n      swap2\n      sub\n      swap1\n      return\n        /* \"Signs 2/SignsToken.sol\":992:1023  address public signsNFTContract */\n    tag_20:\n      tag_103\n      tag_104\n      jump\t// in\n    tag_103:\n      mload(0x40)\n      tag_105\n      swap2\n      swap1\n      tag_95\n      jump\t// in\n    tag_105:\n      mload(0x40)\n      dup1\n      swap2\n      sub\n      swap1\n      return\n        /* \"Signs 2/SignsToken.sol\":1310:1358  mapping(address => uint256) public earningsToday */\n    tag_21:\n      tag_106\n      0x04\n      dup1\n      calldatasize\n      sub\n      dup2\n      add\n      swap1\n      tag_107\n      swap2\n      swap1\n      tag_60\n      jump\t// in\n    tag_107:\n      tag_108\n      jump\t// in\n    tag_106:\n      mload(0x40)\n      tag_109\n      swap2\n      swap1\n      tag_52\n      jump\t// in\n    tag_109:\n      mload(0x40)\n      dup1\n      swap2\n      sub\n      swap1\n      return\n        /* \"Signs 2/SignsToken.sol\":1030:1065  address public signsHistoryContract */\n    tag_22:\n      tag_110\n      tag_111\n      jump\t// in\n    tag_110:\n      mload(0x40)\n      tag_112\n      swap2\n      swap1\n      tag_95\n      jump\t// in\n    tag_112:\n      mload(0x40)\n      dup1\n      swap2\n      sub\n      swap1\n      return\n        /* \"Signs 2/SignsToken.sol\":7696:7903  function transfer(address to, uint256 amount) ... */\n    tag_23:\n      tag_113\n      0x04\n      dup1\n      calldatasize\n      sub\n      dup2\n      add\n      swap1\n      tag_114\n      swap2\n      swap1\n      tag_45\n      jump\t// in\n    tag_114:\n      tag_115\n      jump\t// in\n    tag_113:\n      mload(0x40)\n      tag_116\n      swap2\n      swap1\n      tag_48\n      jump\t// in\n    tag_116:\n      mload(0x40)\n      dup1\n      swap2\n      sub\n      swap1\n      return\n        /* \"Signs 2/SignsToken.sol\":4173:5104  function payReward(address user, string calldata rewardType) ... */\n    tag_24:\n      tag_117\n      0x04\n      dup1\n      calldatasize\n      sub\n      dup2\n      add\n      swap1\n      tag_118\n      swap2\n      swap1\n      tag_119\n      jump\t// in\n    tag_118:\n      tag_120\n      jump\t// in\n    tag_117:\n      stop\n        /* \"Signs 2/SignsToken.sol\":872:916  uint256 public constant DAILY_RESET = 1 days */\n    tag_25:\n      tag_121\n      tag_122\n      jump\t// in\n    tag_121:\n      mload(0x40)\n      tag_123\n      swap2\n      swap1\n      tag_52\n      jump\t// in\n    tag_123:\n      mload(0x40)\n      dup1\n      swap2\n      sub\n      swap1\n      return\n        /* \"Signs 2/SignsToken.sol\":5189:5571  function claimWages() ... */\n    tag_26:\n      tag_124\n      tag_125\n      jump\t// in\n    tag_124:\n      stop\n        /* \"Signs 2/SignsToken.sol\":6081:6265  function updateDailyEarningsCap(uint256 newCap) ... */\n    tag_27:\n      tag_126\n      0x04\n      dup1\n      calldatasize\n      sub\n      dup2\n      add\n      swap1\n      tag_127\n      swap2\n      swap1\n      tag_128\n      jump\t// in\n    tag_127:\n      tag_129\n      jump\t// in\n    tag_126:\n      stop\n        /* \"Signs 2/SignsToken.sol\":3350:3964  function recordWage(address carrier, uint256 amount) ... */\n    tag_28:\n      tag_130\n      0x04\n      dup1\n      calldatasize\n      sub\n      dup2\n      add\n      swap1\n      tag_131\n      swap2\n      swap1\n      tag_45\n      jump\t// in\n    tag_131:\n      tag_132\n      jump\t// in\n    tag_130:\n      stop\n        /* \"@openzeppelin/contracts/token/ERC20/ERC20.sol\":3551:3691  function allowance(address owner, address spender) public view virtual returns (uint256) {... */\n    tag_29:\n      tag_133\n      0x04\n      dup1\n      calldatasize\n      sub\n      dup2\n      add\n      swap1\n      tag_134\n      swap2\n      swap1\n      tag_135\n      jump\t// in\n    tag_134:\n      tag_136\n      jump\t// in\n    tag_133:\n      mload(0x40)\n      tag_137\n      swap2\n      swap1\n      tag_52\n      jump\t// in\n    tag_137:\n      mload(0x40)\n      dup1\n      swap2\n      sub\n      swap1\n      return\n        /* \"@openzeppelin/contracts/access/Ownable.sol\":2543:2758  function transferOwnership(address newOwner) public virtual onlyOwner {... */\n    tag_30:\n      tag_138\n      0x04\n      dup1\n      calldatasize\n      sub\n      dup2\n      add\n      swap1\n      tag_139\n      swap2\n      swap1\n      tag_60\n      jump\t// in\n    tag_139:\n      tag_140\n      jump\t// in\n    tag_138:\n      stop\n        /* \"Signs 2/SignsToken.sol\":785:816  uint256 public dailyEarningsCap */\n    tag_31:\n      tag_141\n      tag_142\n      jump\t// in\n    tag_141:\n      mload(0x40)\n      tag_143\n      swap2\n      swap1\n      tag_52\n      jump\t// in\n    tag_143:\n      mload(0x40)\n      dup1\n      swap2\n      sub\n      swap1\n      return\n        /* \"@openzeppelin/contracts/token/ERC20/ERC20.sol\":1779:1868  function name() public view virtual returns (string memory) {... */\n    tag_40:\n        /* \"@openzeppelin/contracts/token/ERC20/ERC20.sol\":1824:1837  string memory */\n      0x60\n        /* \"@openzeppelin/contracts/token/ERC20/ERC20.sol\":1856:1861  _name */\n      0x03\n        /* \"@openzeppelin/contracts/token/ERC20/ERC20.sol\":1849:1861  return _name */\n      dup1\n      sload\n      tag_145\n      swap1\n      tag_146\n      jump\t// in\n    tag_145:\n      dup1\n      0x1f\n      add\n      0x20\n      dup1\n      swap2\n      div\n      mul\n      0x20\n      add\n      mload(0x40)\n      swap1\n      dup2\n      add\n      0x40\n      mstore\n      dup1\n      swap3\n      swap2\n      swap1\n      dup2\n      dup2\n      mstore\n      0x20\n      add\n      dup3\n      dup1\n      sload\n      tag_147\n      swap1\n      tag_146\n      jump\t// in\n    tag_147:\n      dup1\n      iszero\n      tag_148\n      jumpi\n      dup1\n      0x1f\n      lt\n      tag_149\n      jumpi\n      0x0100\n      dup1\n      dup4\n      sload\n      div\n      mul\n      dup4\n      mstore\n      swap2\n      0x20\n      add\n      swap2\n      jump(tag_148)\n    tag_149:\n      dup3\n      add\n      swap2\n      swap1\n      0x00\n      mstore\n      keccak256(0x00, 0x20)\n      swap1\n    tag_150:\n      dup2\n      sload\n      dup2\n      mstore\n      swap1\n      0x01\n      add\n      swap1\n      0x20\n      add\n      dup1\n      dup4\n      gt\n      tag_150\n      jumpi\n      dup3\n      swap1\n      sub\n      0x1f\n      and\n      dup3\n      add\n      swap2\n    tag_148:\n      pop\n      pop\n      pop\n      pop\n      pop\n      swap1\n      pop\n        /* \"@openzeppelin/contracts/token/ERC20/ERC20.sol\":1779:1868  function name() public view virtual returns (string memory) {... */\n      swap1\n      jump\t// out\n        /* \"@openzeppelin/contracts/token/ERC20/ERC20.sol\":3998:4184  function approve(address spender, uint256 value) public virtual returns (bool) {... */\n    tag_46:\n        /* \"@openzeppelin/contracts/token/ERC20/ERC20.sol\":4071:4075  bool */\n      0x00\n        /* \"@openzeppelin/contracts/token/ERC20/ERC20.sol\":4087:4100  address owner */\n      dup1\n        /* \"@openzeppelin/contracts/token/ERC20/ERC20.sol\":4103:4115  _msgSender() */\n      tag_152\n        /* \"@openzeppelin/contracts/token/ERC20/ERC20.sol\":4103:4113  _msgSender */\n      tag_153\n        /* \"@openzeppelin/contracts/token/ERC20/ERC20.sol\":4103:4115  _msgSender() */\n      jump\t// in\n    tag_152:\n        /* \"@openzeppelin/contracts/token/ERC20/ERC20.sol\":4087:4115  address owner = _msgSender() */\n      swap1\n      pop\n        /* \"@openzeppelin/contracts/token/ERC20/ERC20.sol\":4125:4156  _approve(owner, spender, value) */\n      tag_154\n        /* \"@openzeppelin/contracts/token/ERC20/ERC20.sol\":4134:4139  owner */\n      dup2\n        /* \"@openzeppelin/contracts/token/ERC20/ERC20.sol\":4141:4148  spender */\n      dup6\n        /* \"@openzeppelin/contracts/token/ERC20/ERC20.sol\":4150:4155  value */\n      dup6\n        /* \"@openzeppelin/contracts/token/ERC20/ERC20.sol\":4125:4133  _approve */\n      tag_155\n        /* \"@openzeppelin/contracts/token/ERC20/ERC20.sol\":4125:4156  _approve(owner, spender, value) */\n      jump\t// in\n    tag_154:\n        /* \"@openzeppelin/contracts/token/ERC20/ERC20.sol\":4173:4177  true */\n      0x01\n        /* \"@openzeppelin/contracts/token/ERC20/ERC20.sol\":4166:4177  return true */\n      swap2\n      pop\n      pop\n        /* \"@openzeppelin/contracts/token/ERC20/ERC20.sol\":3998:4184  function approve(address spender, uint256 value) public virtual returns (bool) {... */\n      swap3\n      swap2\n      pop\n      pop\n      jump\t// out\n        /* \"@openzeppelin/contracts/token/ERC20/ERC20.sol\":2849:2946  function totalSupply() public view virtual returns (uint256) {... */\n    tag_50:\n        /* \"@openzeppelin/contracts/token/ERC20/ERC20.sol\":2901:2908  uint256 */\n      0x00\n        /* \"@openzeppelin/contracts/token/ERC20/ERC20.sol\":2927:2939  _totalSupply */\n      sload(0x02)\n        /* \"@openzeppelin/contracts/token/ERC20/ERC20.sol\":2920:2939  return _totalSupply */\n      swap1\n      pop\n        /* \"@openzeppelin/contracts/token/ERC20/ERC20.sol\":2849:2946  function totalSupply() public view virtual returns (uint256) {... */\n      swap1\n      jump\t// out\n        /* \"Signs 2/SignsToken.sol\":7911:8140  function transferFrom(address from, address to, uint256 amount)... */\n    tag_56:\n        /* \"Signs 2/SignsToken.sol\":8067:8071  bool */\n      0x00\n        /* \"@openzeppelin/contracts/security/Pausable.sol\":1239:1258  _requireNotPaused() */\n      tag_158\n        /* \"@openzeppelin/contracts/security/Pausable.sol\":1239:1256  _requireNotPaused */\n      tag_159\n        /* \"@openzeppelin/contracts/security/Pausable.sol\":1239:1258  _requireNotPaused() */\n      jump\t// in\n    tag_158:\n        /* \"Signs 2/SignsToken.sol\":8096:8132  super.transferFrom(from, to, amount) */\n      tag_161\n        /* \"Signs 2/SignsToken.sol\":8115:8119  from */\n      dup5\n        /* \"Signs 2/SignsToken.sol\":8121:8123  to */\n      dup5\n        /* \"Signs 2/SignsToken.sol\":8125:8131  amount */\n      dup5\n        /* \"Signs 2/SignsToken.sol\":8096:8114  super.transferFrom */\n      tag_162\n        /* \"Signs 2/SignsToken.sol\":8096:8132  super.transferFrom(from, to, amount) */\n      jump\t// in\n    tag_161:\n        /* \"Signs 2/SignsToken.sol\":8089:8132  return super.transferFrom(from, to, amount) */\n      swap1\n      pop\n        /* \"Signs 2/SignsToken.sol\":7911:8140  function transferFrom(address from, address to, uint256 amount)... */\n      swap4\n      swap3\n      pop\n      pop\n      pop\n      jump\t// out\n        /* \"Signs 2/SignsToken.sol\":1111:1157  mapping(address => uint256) public wageBalance */\n    tag_61:\n      mstore(0x20, 0x0d)\n      dup1\n      0x00\n      mstore\n      keccak256(0x00, 0x40)\n      0x00\n      swap2\n      pop\n      swap1\n      pop\n      sload\n      dup2\n      jump\t// out\n        /* \"@openzeppelin/contracts/token/ERC20/ERC20.sol\":2707:2789  function decimals() public view virtual returns (uint8) {... */\n    tag_64:\n        /* \"@openzeppelin/contracts/token/ERC20/ERC20.sol\":2756:2761  uint8 */\n      0x00\n        /* \"@openzeppelin/contracts/token/ERC20/ERC20.sol\":2780:2782  18 */\n      0x12\n        /* \"@openzeppelin/contracts/token/ERC20/ERC20.sol\":2773:2782  return 18 */\n      swap1\n      pop\n        /* \"@openzeppelin/contracts/token/ERC20/ERC20.sol\":2707:2789  function decimals() public view virtual returns (uint8) {... */\n      swap1\n      jump\t// out\n        /* \"Signs 2/SignsToken.sol\":7560:7627  function unpause() external onlyOwner {... */\n    tag_68:\n        /* \"@openzeppelin/contracts/access/Ownable.sol\":1531:1544  _checkOwner() */\n      tag_165\n        /* \"@openzeppelin/contracts/access/Ownable.sol\":1531:1542  _checkOwner */\n      tag_166\n        /* \"@openzeppelin/contracts/access/Ownable.sol\":1531:1544  _checkOwner() */\n      jump\t// in\n    tag_165:\n        /* \"Signs 2/SignsToken.sol\":7609:7619  _unpause() */\n      tag_168\n        /* \"Signs 2/SignsToken.sol\":7609:7617  _unpause */\n      tag_169\n        /* \"Signs 2/SignsToken.sol\":7609:7619  _unpause() */\n      jump\t// in\n    tag_168:\n        /* \"Signs 2/SignsToken.sol\":7560:7627  function unpause() external onlyOwner {... */\n      jump\t// out\n        /* \"Signs 2/SignsToken.sol\":754:778  RewardRates public rates */\n    tag_70:\n      0x07\n      dup1\n      0x00\n      add\n      sload\n      swap1\n      dup1\n      0x01\n      add\n      sload\n      swap1\n      dup1\n      0x02\n      add\n      sload\n      swap1\n      pop\n      dup4\n      jump\t// out\n        /* \"@openzeppelin/contracts/security/Pausable.sol\":1615:1699  function paused() public view virtual returns (bool) {... */\n    tag_74:\n        /* \"@openzeppelin/contracts/security/Pausable.sol\":1662:1666  bool */\n      0x00\n        /* \"@openzeppelin/contracts/security/Pausable.sol\":1685:1692  _paused */\n      0x05\n      0x00\n      swap1\n      sload\n      swap1\n      0x0100\n      exp\n      swap1\n      div\n      0xff\n      and\n        /* \"@openzeppelin/contracts/security/Pausable.sol\":1678:1692  return _paused */\n      swap1\n      pop\n        /* \"@openzeppelin/contracts/security/Pausable.sol\":1615:1699  function paused() public view virtual returns (bool) {... */\n      swap1\n      jump\t// out\n        /* \"@openzeppelin/contracts/token/ERC20/ERC20.sol\":3004:3120  function balanceOf(address account) public view virtual returns (uint256) {... */\n    tag_78:\n        /* \"@openzeppelin/contracts/token/ERC20/ERC20.sol\":3069:3076  uint256 */\n      0x00\n        /* \"@openzeppelin/contracts/token/ERC20/ERC20.sol\":3095:3104  _balances */\n      dup1\n        /* \"@openzeppelin/contracts/token/ERC20/ERC20.sol\":3095:3113  _balances[account] */\n      0x00\n        /* \"@openzeppelin/contracts/token/ERC20/ERC20.sol\":3105:3112  account */\n      dup4\n        /* \"@openzeppelin/contracts/token/ERC20/ERC20.sol\":3095:3113  _balances[account] */\n      0xffffffffffffffffffffffffffffffffffffffff\n      and\n      0xffffffffffffffffffffffffffffffffffffffff\n      and\n      dup2\n      mstore\n      0x20\n      add\n      swap1\n      dup2\n      mstore\n      0x20\n      add\n      0x00\n      keccak256\n      sload\n        /* \"@openzeppelin/contracts/token/ERC20/ERC20.sol\":3088:3113  return _balances[account] */\n      swap1\n      pop\n        /* \"@openzeppelin/contracts/token/ERC20/ERC20.sol\":3004:3120  function balanceOf(address account) public view virtual returns (uint256) {... */\n      swap2\n      swap1\n      pop\n      jump\t// out\n        /* \"@openzeppelin/contracts/access/Ownable.sol\":2293:2394  function renounceOwnership() public virtual onlyOwner {... */\n    tag_81:\n        /* \"@openzeppelin/contracts/access/Ownable.sol\":1531:1544  _checkOwner() */\n      tag_173\n        /* \"@openzeppelin/contracts/access/Ownable.sol\":1531:1542  _checkOwner */\n      tag_166\n        /* \"@openzeppelin/contracts/access/Ownable.sol\":1531:1544  _checkOwner() */\n      jump\t// in\n    tag_173:\n        /* \"@openzeppelin/contracts/access/Ownable.sol\":2357:2387  _transferOwnership(address(0)) */\n      tag_175\n        /* \"@openzeppelin/contracts/access/Ownable.sol\":2384:2385  0 */\n      0x00\n        /* \"@openzeppelin/contracts/access/Ownable.sol\":2357:2375  _transferOwnership */\n      tag_176\n        /* \"@openzeppelin/contracts/access/Ownable.sol\":2357:2387  _transferOwnership(address(0)) */\n      jump\t// in\n    tag_175:\n        /* \"@openzeppelin/contracts/access/Ownable.sol\":2293:2394  function renounceOwnership() public virtual onlyOwner {... */\n      jump\t// out\n        /* \"Signs 2/SignsToken.sol\":7489:7552  function pause() external onlyOwner {... */\n    tag_83:\n        /* \"@openzeppelin/contracts/access/Ownable.sol\":1531:1544  _checkOwner() */\n      tag_178\n        /* \"@openzeppelin/contracts/access/Ownable.sol\":1531:1542  _checkOwner */\n      tag_166\n        /* \"@openzeppelin/contracts/access/Ownable.sol\":1531:1544  _checkOwner() */\n      jump\t// in\n    tag_178:\n        /* \"Signs 2/SignsToken.sol\":7536:7544  _pause() */\n      tag_180\n        /* \"Signs 2/SignsToken.sol\":7536:7542  _pause */\n      tag_181\n        /* \"Signs 2/SignsToken.sol\":7536:7544  _pause() */\n      jump\t// in\n    tag_180:\n        /* \"Signs 2/SignsToken.sol\":7489:7552  function pause() external onlyOwner {... */\n      jump\t// out\n        /* \"Signs 2/SignsToken.sol\":5682:5970  function updateRates(RewardRates calldata newRates) ... */\n    tag_87:\n        /* \"@openzeppelin/contracts/access/Ownable.sol\":1531:1544  _checkOwner() */\n      tag_183\n        /* \"@openzeppelin/contracts/access/Ownable.sol\":1531:1542  _checkOwner */\n      tag_166\n        /* \"@openzeppelin/contracts/access/Ownable.sol\":1531:1544  _checkOwner() */\n      jump\t// in\n    tag_183:\n        /* \"Signs 2/SignsToken.sol\":5798:5806  newRates */\n      dup1\n        /* \"Signs 2/SignsToken.sol\":5790:5795  rates */\n      0x07\n        /* \"Signs 2/SignsToken.sol\":5790:5806  rates = newRates */\n      dup2\n      dup2\n      tag_185\n      swap2\n      swap1\n      tag_186\n      jump\t// in\n    tag_185:\n      swap1\n      pop\n      pop\n        /* \"Signs 2/SignsToken.sol\":5822:5962  RatesUpdated(... */\n      0x023010bc68e7f4c0be9887f513c570c7a0f5f511b9716abccd42bf3b8943532b\n        /* \"Signs 2/SignsToken.sol\":5849:5857  newRates */\n      dup2\n        /* \"Signs 2/SignsToken.sol\":5849:5874  newRates.movementBaseRate */\n      0x00\n      add\n      calldataload\n        /* \"Signs 2/SignsToken.sol\":5889:5897  newRates */\n      dup3\n        /* \"Signs 2/SignsToken.sol\":5889:5912  newRates.diaryEntryRate */\n      0x20\n      add\n      calldataload\n        /* \"Signs 2/SignsToken.sol\":5927:5935  newRates */\n      dup4\n        /* \"Signs 2/SignsToken.sol\":5927:5951  newRates.photoUploadRate */\n      0x40\n      add\n      calldataload\n        /* \"Signs 2/SignsToken.sol\":5822:5962  RatesUpdated(... */\n      mload(0x40)\n      tag_187\n      swap4\n      swap3\n      swap2\n      swap1\n      tag_72\n      jump\t// in\n    tag_187:\n      mload(0x40)\n      dup1\n      swap2\n      sub\n      swap1\n      log1\n        /* \"Signs 2/SignsToken.sol\":5682:5970  function updateRates(RewardRates calldata newRates) ... */\n      pop\n      jump\t// out\n        /* \"Signs 2/SignsToken.sol\":6459:7046  function updateGameContract(string calldata contractType, address newAddress) ... */\n    tag_91:\n        /* \"@openzeppelin/contracts/access/Ownable.sol\":1531:1544  _checkOwner() */\n      tag_189\n        /* \"@openzeppelin/contracts/access/Ownable.sol\":1531:1542  _checkOwner */\n      tag_166\n        /* \"@openzeppelin/contracts/access/Ownable.sol\":1531:1544  _checkOwner() */\n      jump\t// in\n    tag_189:\n        /* \"Signs 2/SignsToken.sol\":6619:6620  0 */\n      0x00\n        /* \"Signs 2/SignsToken.sol\":6597:6621  newAddress == address(0) */\n      0xffffffffffffffffffffffffffffffffffffffff\n      and\n        /* \"Signs 2/SignsToken.sol\":6597:6607  newAddress */\n      dup2\n        /* \"Signs 2/SignsToken.sol\":6597:6621  newAddress == address(0) */\n      0xffffffffffffffffffffffffffffffffffffffff\n      and\n      sub\n        /* \"Signs 2/SignsToken.sol\":6593:6646  if (newAddress == address(0)) revert InvalidAddress() */\n      tag_191\n      jumpi\n        /* \"Signs 2/SignsToken.sol\":6630:6646  InvalidAddress() */\n      mload(0x40)\n      0xe6c4247b00000000000000000000000000000000000000000000000000000000\n      dup2\n      mstore\n      0x04\n      add\n      mload(0x40)\n      dup1\n      swap2\n      sub\n      swap1\n      revert\n        /* \"Signs 2/SignsToken.sol\":6593:6646  if (newAddress == address(0)) revert InvalidAddress() */\n    tag_191:\n        /* \"Signs 2/SignsToken.sol\":6715:6727  bytes(\"nft\") */\n      mload(0x40)\n      dup1\n      0x40\n      add\n      0x40\n      mstore\n      dup1\n      0x03\n      dup2\n      mstore\n      0x20\n      add\n      0x6e66740000000000000000000000000000000000000000000000000000000000\n      dup2\n      mstore\n      pop\n        /* \"Signs 2/SignsToken.sol\":6705:6728  keccak256(bytes(\"nft\")) */\n      dup1\n      mload\n      swap1\n      0x20\n      add\n      keccak256\n        /* \"Signs 2/SignsToken.sol\":6687:6699  contractType */\n      dup4\n      dup4\n        /* \"Signs 2/SignsToken.sol\":6671:6701  keccak256(bytes(contractType)) */\n      mload(0x40)\n      tag_192\n      swap3\n      swap2\n      swap1\n      tag_193\n      jump\t// in\n    tag_192:\n      mload(0x40)\n      dup1\n      swap2\n      sub\n      swap1\n      keccak256\n        /* \"Signs 2/SignsToken.sol\":6671:6728  keccak256(bytes(contractType)) == keccak256(bytes(\"nft\")) */\n      sub\n        /* \"Signs 2/SignsToken.sol\":6667:6972  if (keccak256(bytes(contractType)) == keccak256(bytes(\"nft\"))) {... */\n      tag_194\n      jumpi\n        /* \"Signs 2/SignsToken.sol\":6764:6774  newAddress */\n      dup1\n        /* \"Signs 2/SignsToken.sol\":6745:6761  signsNFTContract */\n      0x0b\n      0x00\n        /* \"Signs 2/SignsToken.sol\":6745:6774  signsNFTContract = newAddress */\n      0x0100\n      exp\n      dup2\n      sload\n      dup2\n      0xffffffffffffffffffffffffffffffffffffffff\n      mul\n      not\n      and\n      swap1\n      dup4\n      0xffffffffffffffffffffffffffffffffffffffff\n      and\n      mul\n      or\n      swap1\n      sstore\n      pop\n        /* \"Signs 2/SignsToken.sol\":6667:6972  if (keccak256(bytes(contractType)) == keccak256(bytes(\"nft\"))) {... */\n      jump(tag_195)\n    tag_194:\n        /* \"Signs 2/SignsToken.sol\":6840:6856  bytes(\"history\") */\n      mload(0x40)\n      dup1\n      0x40\n      add\n      0x40\n      mstore\n      dup1\n      0x07\n      dup2\n      mstore\n      0x20\n      add\n      0x686973746f727900000000000000000000000000000000000000000000000000\n      dup2\n      mstore\n      pop\n        /* \"Signs 2/SignsToken.sol\":6830:6857  keccak256(bytes(\"history\")) */\n      dup1\n      mload\n      swap1\n      0x20\n      add\n      keccak256\n        /* \"Signs 2/SignsToken.sol\":6812:6824  contractType */\n      dup4\n      dup4\n        /* \"Signs 2/SignsToken.sol\":6796:6826  keccak256(bytes(contractType)) */\n      mload(0x40)\n      tag_196\n      swap3\n      swap2\n      swap1\n      tag_193\n      jump\t// in\n    tag_196:\n      mload(0x40)\n      dup1\n      swap2\n      sub\n      swap1\n      keccak256\n        /* \"Signs 2/SignsToken.sol\":6796:6857  keccak256(bytes(contractType)) == keccak256(bytes(\"history\")) */\n      sub\n        /* \"Signs 2/SignsToken.sol\":6792:6972  if (keccak256(bytes(contractType)) == keccak256(bytes(\"history\"))) {... */\n      tag_197\n      jumpi\n        /* \"Signs 2/SignsToken.sol\":6897:6907  newAddress */\n      dup1\n        /* \"Signs 2/SignsToken.sol\":6874:6894  signsHistoryContract */\n      0x0c\n      0x00\n        /* \"Signs 2/SignsToken.sol\":6874:6907  signsHistoryContract = newAddress */\n      0x0100\n      exp\n      dup2\n      sload\n      dup2\n      0xffffffffffffffffffffffffffffffffffffffff\n      mul\n      not\n      and\n      swap1\n      dup4\n      0xffffffffffffffffffffffffffffffffffffffff\n      and\n      mul\n      or\n      swap1\n      sstore\n      pop\n        /* \"Signs 2/SignsToken.sol\":6792:6972  if (keccak256(bytes(contractType)) == keccak256(bytes(\"history\"))) {... */\n      jump(tag_198)\n    tag_197:\n        /* \"Signs 2/SignsToken.sol\":6947:6960  InvalidRate() */\n      mload(0x40)\n      0x6a43f8d100000000000000000000000000000000000000000000000000000000\n      dup2\n      mstore\n      0x04\n      add\n      mload(0x40)\n      dup1\n      swap2\n      sub\n      swap1\n      revert\n        /* \"Signs 2/SignsToken.sol\":6792:6972  if (keccak256(bytes(contractType)) == keccak256(bytes(\"history\"))) {... */\n    tag_198:\n        /* \"Signs 2/SignsToken.sol\":6667:6972  if (keccak256(bytes(contractType)) == keccak256(bytes(\"nft\"))) {... */\n    tag_195:\n        /* \"Signs 2/SignsToken.sol\":6997:7038  ContractUpdated(contractType, newAddress) */\n      0xf611fec7babefd259c57ea5b6006acff8140ab17bb816c65ba0aa7e36c09caa8\n        /* \"Signs 2/SignsToken.sol\":7013:7025  contractType */\n      dup4\n      dup4\n        /* \"Signs 2/SignsToken.sol\":7027:7037  newAddress */\n      dup4\n        /* \"Signs 2/SignsToken.sol\":6997:7038  ContractUpdated(contractType, newAddress) */\n      mload(0x40)\n      tag_199\n      swap4\n      swap3\n      swap2\n      swap1\n      tag_200\n      jump\t// in\n    tag_199:\n      mload(0x40)\n      dup1\n      swap2\n      sub\n      swap1\n      log1\n        /* \"Signs 2/SignsToken.sol\":6459:7046  function updateGameContract(string calldata contractType, address newAddress) ... */\n      pop\n      pop\n      pop\n      jump\t// out\n        /* \"@openzeppelin/contracts/access/Ownable.sol\":1638:1723  function owner() public view virtual returns (address) {... */\n    tag_93:\n        /* \"@openzeppelin/contracts/access/Ownable.sol\":1684:1691  address */\n      0x00\n        /* \"@openzeppelin/contracts/access/Ownable.sol\":1710:1716  _owner */\n      0x05\n      0x01\n      swap1\n      sload\n      swap1\n      0x0100\n      exp\n      swap1\n      div\n      0xffffffffffffffffffffffffffffffffffffffff\n      and\n        /* \"@openzeppelin/contracts/access/Ownable.sol\":1703:1716  return _owner */\n      swap1\n      pop\n        /* \"@openzeppelin/contracts/access/Ownable.sol\":1638:1723  function owner() public view virtual returns (address) {... */\n      swap1\n      jump\t// out\n        /* \"@openzeppelin/contracts/token/ERC20/ERC20.sol\":1981:2074  function symbol() public view virtual returns (string memory) {... */\n    tag_97:\n        /* \"@openzeppelin/contracts/token/ERC20/ERC20.sol\":2028:2041  string memory */\n      0x60\n        /* \"@openzeppelin/contracts/token/ERC20/ERC20.sol\":2060:2067  _symbol */\n      0x04\n        /* \"@openzeppelin/contracts/token/ERC20/ERC20.sol\":2053:2067  return _symbol */\n      dup1\n      sload\n      tag_203\n      swap1\n      tag_146\n      jump\t// in\n    tag_203:\n      dup1\n      0x1f\n      add\n      0x20\n      dup1\n      swap2\n      div\n      mul\n      0x20\n      add\n      mload(0x40)\n      swap1\n      dup2\n      add\n      0x40\n      mstore\n      dup1\n      swap3\n      swap2\n      swap1\n      dup2\n      dup2\n      mstore\n      0x20\n      add\n      dup3\n      dup1\n      sload\n      tag_204\n      swap1\n      tag_146\n      jump\t// in\n    tag_204:\n      dup1\n      iszero\n      tag_205\n      jumpi\n      dup1\n      0x1f\n      lt\n      tag_206\n      jumpi\n      0x0100\n      dup1\n      dup4\n      sload\n      div\n      mul\n      dup4\n      mstore\n      swap2\n      0x20\n      add\n      swap2\n      jump(tag_205)\n    tag_206:\n      dup3\n      add\n      swap2\n      swap1\n      0x00\n      mstore\n      keccak256(0x00, 0x20)\n      swap1\n    tag_207:\n      dup2\n      sload\n      dup2\n      mstore\n      swap1\n      0x01\n      add\n      swap1\n      0x20\n      add\n      dup1\n      dup4\n      gt\n      tag_207\n      jumpi\n      dup3\n      swap1\n      sub\n      0x1f\n      and\n      dup3\n      add\n      swap2\n    tag_205:\n      pop\n      pop\n      pop\n      pop\n      pop\n      swap1\n      pop\n        /* \"@openzeppelin/contracts/token/ERC20/ERC20.sol\":1981:2074  function symbol() public view virtual returns (string memory) {... */\n      swap1\n      jump\t// out\n        /* \"Signs 2/SignsToken.sol\":1203:1255  mapping(address => uint256) public lastEarningsReset */\n    tag_101:\n      mstore(0x20, 0x0e)\n      dup1\n      0x00\n      mstore\n      keccak256(0x00, 0x40)\n      0x00\n      swap2\n      pop\n      swap1\n      pop\n      sload\n      dup2\n      jump\t// out\n        /* \"Signs 2/SignsToken.sol\":992:1023  address public signsNFTContract */\n    tag_104:\n      0x0b\n      0x00\n      swap1\n      sload\n      swap1\n      0x0100\n      exp\n      swap1\n      div\n      0xffffffffffffffffffffffffffffffffffffffff\n      and\n      dup2\n      jump\t// out\n        /* \"Signs 2/SignsToken.sol\":1310:1358  mapping(address => uint256) public earningsToday */\n    tag_108:\n      mstore(0x20, 0x0f)\n      dup1\n      0x00\n      mstore\n      keccak256(0x00, 0x40)\n      0x00\n      swap2\n      pop\n      swap1\n      pop\n      sload\n      dup2\n      jump\t// out\n        /* \"Signs 2/SignsToken.sol\":1030:1065  address public signsHistoryContract */\n    tag_111:\n      0x0c\n      0x00\n      swap1\n      sload\n      swap1\n      0x0100\n      exp\n      swap1\n      div\n      0xffffffffffffffffffffffffffffffffffffffff\n      and\n      dup2\n      jump\t// out\n        /* \"Signs 2/SignsToken.sol\":7696:7903  function transfer(address to, uint256 amount) ... */\n    tag_115:\n        /* \"Signs 2/SignsToken.sol\":7839:7843  bool */\n      0x00\n        /* \"@openzeppelin/contracts/security/Pausable.sol\":1239:1258  _requireNotPaused() */\n      tag_209\n        /* \"@openzeppelin/contracts/security/Pausable.sol\":1239:1256  _requireNotPaused */\n      tag_159\n        /* \"@openzeppelin/contracts/security/Pausable.sol\":1239:1258  _requireNotPaused() */\n      jump\t// in\n    tag_209:\n        /* \"Signs 2/SignsToken.sol\":7869:7895  super.transfer(to, amount) */\n      tag_211\n        /* \"Signs 2/SignsToken.sol\":7884:7886  to */\n      dup4\n        /* \"Signs 2/SignsToken.sol\":7888:7894  amount */\n      dup4\n        /* \"Signs 2/SignsToken.sol\":7869:7883  super.transfer */\n      tag_212\n        /* \"Signs 2/SignsToken.sol\":7869:7895  super.transfer(to, amount) */\n      jump\t// in\n    tag_211:\n        /* \"Signs 2/SignsToken.sol\":7862:7895  return super.transfer(to, amount) */\n      swap1\n      pop\n        /* \"Signs 2/SignsToken.sol\":7696:7903  function transfer(address to, uint256 amount) ... */\n      swap3\n      swap2\n      pop\n      pop\n      jump\t// out\n        /* \"Signs 2/SignsToken.sol\":4173:5104  function payReward(address user, string calldata rewardType) ... */\n    tag_120:\n        /* \"Signs 2/SignsToken.sol\":3045:3061  signsNFTContract */\n      0x0b\n      0x00\n      swap1\n      sload\n      swap1\n      0x0100\n      exp\n      swap1\n      div\n      0xffffffffffffffffffffffffffffffffffffffff\n      and\n        /* \"Signs 2/SignsToken.sol\":3031:3061  msg.sender != signsNFTContract */\n      0xffffffffffffffffffffffffffffffffffffffff\n      and\n        /* \"Signs 2/SignsToken.sol\":3031:3041  msg.sender */\n      caller\n        /* \"Signs 2/SignsToken.sol\":3031:3061  msg.sender != signsNFTContract */\n      0xffffffffffffffffffffffffffffffffffffffff\n      and\n      eq\n      iszero\n        /* \"Signs 2/SignsToken.sol\":3031:3099  msg.sender != signsNFTContract && msg.sender != signsHistoryContract */\n      dup1\n      iszero\n      tag_214\n      jumpi\n      pop\n        /* \"Signs 2/SignsToken.sol\":3079:3099  signsHistoryContract */\n      0x0c\n      0x00\n      swap1\n      sload\n      swap1\n      0x0100\n      exp\n      swap1\n      div\n      0xffffffffffffffffffffffffffffffffffffffff\n      and\n        /* \"Signs 2/SignsToken.sol\":3065:3099  msg.sender != signsHistoryContract */\n      0xffffffffffffffffffffffffffffffffffffffff\n      and\n        /* \"Signs 2/SignsToken.sol\":3065:3075  msg.sender */\n      caller\n        /* \"Signs 2/SignsToken.sol\":3065:3099  msg.sender != signsHistoryContract */\n      0xffffffffffffffffffffffffffffffffffffffff\n      and\n      eq\n      iszero\n        /* \"Signs 2/SignsToken.sol\":3031:3099  msg.sender != signsNFTContract && msg.sender != signsHistoryContract */\n    tag_214:\n        /* \"Signs 2/SignsToken.sol\":3027:3141  if (msg.sender != signsNFTContract && msg.sender != signsHistoryContract)... */\n      iszero\n      tag_215\n      jumpi\n        /* \"Signs 2/SignsToken.sol\":3121:3141  UnauthorizedCaller() */\n      mload(0x40)\n      0x5c427cd900000000000000000000000000000000000000000000000000000000\n      dup2\n      mstore\n      0x04\n      add\n      mload(0x40)\n      dup1\n      swap2\n      sub\n      swap1\n      revert\n        /* \"Signs 2/SignsToken.sol\":3027:3141  if (msg.sender != signsNFTContract && msg.sender != signsHistoryContract)... */\n    tag_215:\n        /* \"@openzeppelin/contracts/security/Pausable.sol\":1239:1258  _requireNotPaused() */\n      tag_217\n        /* \"@openzeppelin/contracts/security/Pausable.sol\":1239:1256  _requireNotPaused */\n      tag_159\n        /* \"@openzeppelin/contracts/security/Pausable.sol\":1239:1258  _requireNotPaused() */\n      jump\t// in\n    tag_217:\n        /* \"Signs 2/SignsToken.sol\":4322:4336  uint256 amount */\n      0x00\n        /* \"Signs 2/SignsToken.sol\":4393:4407  bytes(\"diary\") */\n      mload(0x40)\n      dup1\n      0x40\n      add\n      0x40\n      mstore\n      dup1\n      0x05\n      dup2\n      mstore\n      0x20\n      add\n      0x6469617279000000000000000000000000000000000000000000000000000000\n      dup2\n      mstore\n      pop\n        /* \"Signs 2/SignsToken.sol\":4383:4408  keccak256(bytes(\"diary\")) */\n      dup1\n      mload\n      swap1\n      0x20\n      add\n      keccak256\n        /* \"Signs 2/SignsToken.sol\":4367:4377  rewardType */\n      dup4\n      dup4\n        /* \"Signs 2/SignsToken.sol\":4351:4379  keccak256(bytes(rewardType)) */\n      mload(0x40)\n      tag_219\n      swap3\n      swap2\n      swap1\n      tag_193\n      jump\t// in\n    tag_219:\n      mload(0x40)\n      dup1\n      swap2\n      sub\n      swap1\n      keccak256\n        /* \"Signs 2/SignsToken.sol\":4351:4408  keccak256(bytes(rewardType)) == keccak256(bytes(\"diary\")) */\n      sub\n        /* \"Signs 2/SignsToken.sol\":4347:4645  if (keccak256(bytes(rewardType)) == keccak256(bytes(\"diary\"))) {... */\n      tag_220\n      jumpi\n        /* \"Signs 2/SignsToken.sol\":4434:4439  rates */\n      0x07\n        /* \"Signs 2/SignsToken.sol\":4434:4454  rates.diaryEntryRate */\n      0x01\n      add\n      sload\n        /* \"Signs 2/SignsToken.sol\":4425:4454  amount = rates.diaryEntryRate */\n      swap1\n      pop\n        /* \"Signs 2/SignsToken.sol\":4347:4645  if (keccak256(bytes(rewardType)) == keccak256(bytes(\"diary\"))) {... */\n      jump(tag_221)\n    tag_220:\n        /* \"Signs 2/SignsToken.sol\":4518:4532  bytes(\"photo\") */\n      mload(0x40)\n      dup1\n      0x40\n      add\n      0x40\n      mstore\n      dup1\n      0x05\n      dup2\n      mstore\n      0x20\n      add\n      0x70686f746f000000000000000000000000000000000000000000000000000000\n      dup2\n      mstore\n      pop\n        /* \"Signs 2/SignsToken.sol\":4508:4533  keccak256(bytes(\"photo\")) */\n      dup1\n      mload\n      swap1\n      0x20\n      add\n      keccak256\n        /* \"Signs 2/SignsToken.sol\":4492:4502  rewardType */\n      dup4\n      dup4\n        /* \"Signs 2/SignsToken.sol\":4476:4504  keccak256(bytes(rewardType)) */\n      mload(0x40)\n      tag_222\n      swap3\n      swap2\n      swap1\n      tag_193\n      jump\t// in\n    tag_222:\n      mload(0x40)\n      dup1\n      swap2\n      sub\n      swap1\n      keccak256\n        /* \"Signs 2/SignsToken.sol\":4476:4533  keccak256(bytes(rewardType)) == keccak256(bytes(\"photo\")) */\n      sub\n        /* \"Signs 2/SignsToken.sol\":4472:4645  if (keccak256(bytes(rewardType)) == keccak256(bytes(\"photo\"))) {... */\n      tag_223\n      jumpi\n        /* \"Signs 2/SignsToken.sol\":4559:4564  rates */\n      0x07\n        /* \"Signs 2/SignsToken.sol\":4559:4580  rates.photoUploadRate */\n      0x02\n      add\n      sload\n        /* \"Signs 2/SignsToken.sol\":4550:4580  amount = rates.photoUploadRate */\n      swap1\n      pop\n        /* \"Signs 2/SignsToken.sol\":4472:4645  if (keccak256(bytes(rewardType)) == keccak256(bytes(\"photo\"))) {... */\n      jump(tag_224)\n    tag_223:\n        /* \"Signs 2/SignsToken.sol\":4620:4633  InvalidRate() */\n      mload(0x40)\n      0x6a43f8d100000000000000000000000000000000000000000000000000000000\n      dup2\n      mstore\n      0x04\n      add\n      mload(0x40)\n      dup1\n      swap2\n      sub\n      swap1\n      revert\n        /* \"Signs 2/SignsToken.sol\":4472:4645  if (keccak256(bytes(rewardType)) == keccak256(bytes(\"photo\"))) {... */\n    tag_224:\n        /* \"Signs 2/SignsToken.sol\":4347:4645  if (keccak256(bytes(rewardType)) == keccak256(bytes(\"diary\"))) {... */\n    tag_221:\n        /* \"Signs 2/SignsToken.sol\":4711:4744  _checkAndResetDailyEarnings(user) */\n      tag_225\n        /* \"Signs 2/SignsToken.sol\":4739:4743  user */\n      dup5\n        /* \"Signs 2/SignsToken.sol\":4711:4738  _checkAndResetDailyEarnings */\n      tag_226\n        /* \"Signs 2/SignsToken.sol\":4711:4744  _checkAndResetDailyEarnings(user) */\n      jump\t// in\n    tag_225:\n        /* \"Signs 2/SignsToken.sol\":4837:4853  dailyEarningsCap */\n      sload(0x0a)\n        /* \"Signs 2/SignsToken.sol\":4828:4834  amount */\n      dup2\n        /* \"Signs 2/SignsToken.sol\":4806:4819  earningsToday */\n      0x0f\n        /* \"Signs 2/SignsToken.sol\":4806:4825  earningsToday[user] */\n      0x00\n        /* \"Signs 2/SignsToken.sol\":4820:4824  user */\n      dup8\n        /* \"Signs 2/SignsToken.sol\":4806:4825  earningsToday[user] */\n      0xffffffffffffffffffffffffffffffffffffffff\n      and\n      0xffffffffffffffffffffffffffffffffffffffff\n      and\n      dup2\n      mstore\n      0x20\n      add\n      swap1\n      dup2\n      mstore\n      0x20\n      add\n      0x00\n      keccak256\n      sload\n        /* \"Signs 2/SignsToken.sol\":4806:4834  earningsToday[user] + amount */\n      tag_227\n      swap2\n      swap1\n      tag_228\n      jump\t// in\n    tag_227:\n        /* \"Signs 2/SignsToken.sol\":4806:4853  earningsToday[user] + amount > dailyEarningsCap */\n      gt\n        /* \"Signs 2/SignsToken.sol\":4802:4903  if (earningsToday[user] + amount > dailyEarningsCap)... */\n      iszero\n      tag_229\n      jumpi\n        /* \"Signs 2/SignsToken.sol\":4875:4903  DailyEarningsLimitExceeded() */\n      mload(0x40)\n      0xd75747f600000000000000000000000000000000000000000000000000000000\n      dup2\n      mstore\n      0x04\n      add\n      mload(0x40)\n      dup1\n      swap2\n      sub\n      swap1\n      revert\n        /* \"Signs 2/SignsToken.sol\":4802:4903  if (earningsToday[user] + amount > dailyEarningsCap)... */\n    tag_229:\n        /* \"Signs 2/SignsToken.sol\":4951:4957  amount */\n      dup1\n        /* \"Signs 2/SignsToken.sol\":4928:4941  earningsToday */\n      0x0f\n        /* \"Signs 2/SignsToken.sol\":4928:4947  earningsToday[user] */\n      0x00\n        /* \"Signs 2/SignsToken.sol\":4942:4946  user */\n      dup7\n        /* \"Signs 2/SignsToken.sol\":4928:4947  earningsToday[user] */\n      0xffffffffffffffffffffffffffffffffffffffff\n      and\n      0xffffffffffffffffffffffffffffffffffffffff\n      and\n      dup2\n      mstore\n      0x20\n      add\n      swap1\n      dup2\n      mstore\n      0x20\n      add\n      0x00\n      keccak256\n      0x00\n        /* \"Signs 2/SignsToken.sol\":4928:4957  earningsToday[user] += amount */\n      dup3\n      dup3\n      sload\n      tag_230\n      swap2\n      swap1\n      tag_228\n      jump\t// in\n    tag_230:\n      swap3\n      pop\n      pop\n      dup2\n      swap1\n      sstore\n      pop\n        /* \"Signs 2/SignsToken.sol\":5015:5034  _mint(user, amount) */\n      tag_231\n        /* \"Signs 2/SignsToken.sol\":5021:5025  user */\n      dup5\n        /* \"Signs 2/SignsToken.sol\":5027:5033  amount */\n      dup3\n        /* \"Signs 2/SignsToken.sol\":5015:5020  _mint */\n      tag_232\n        /* \"Signs 2/SignsToken.sol\":5015:5034  _mint(user, amount) */\n      jump\t// in\n    tag_231:\n        /* \"Signs 2/SignsToken.sol\":5071:5075  user */\n      dup4\n        /* \"Signs 2/SignsToken.sol\":5060:5096  RewardPaid(user, amount, rewardType) */\n      0xffffffffffffffffffffffffffffffffffffffff\n      and\n      0x21a82678daa5235b7b5de669fdf9599453d3d885cee0826e92636d747419689c\n        /* \"Signs 2/SignsToken.sol\":5077:5083  amount */\n      dup3\n        /* \"Signs 2/SignsToken.sol\":5085:5095  rewardType */\n      dup6\n      dup6\n        /* \"Signs 2/SignsToken.sol\":5060:5096  RewardPaid(user, amount, rewardType) */\n      mload(0x40)\n      tag_233\n      swap4\n      swap3\n      swap2\n      swap1\n      tag_234\n      jump\t// in\n    tag_233:\n      mload(0x40)\n      dup1\n      swap2\n      sub\n      swap1\n      log2\n        /* \"Signs 2/SignsToken.sol\":4311:5104  {... */\n      pop\n        /* \"Signs 2/SignsToken.sol\":4173:5104  function payReward(address user, string calldata rewardType) ... */\n      pop\n      pop\n      pop\n      jump\t// out\n        /* \"Signs 2/SignsToken.sol\":872:916  uint256 public constant DAILY_RESET = 1 days */\n    tag_122:\n        /* \"Signs 2/SignsToken.sol\":910:916  1 days */\n      0x015180\n        /* \"Signs 2/SignsToken.sol\":872:916  uint256 public constant DAILY_RESET = 1 days */\n      dup2\n      jump\t// out\n        /* \"Signs 2/SignsToken.sol\":5189:5571  function claimWages() ... */\n    tag_125:\n        /* \"@openzeppelin/contracts/security/ReentrancyGuard.sol\":2261:2282  _nonReentrantBefore() */\n      tag_236\n        /* \"@openzeppelin/contracts/security/ReentrancyGuard.sol\":2261:2280  _nonReentrantBefore */\n      tag_237\n        /* \"@openzeppelin/contracts/security/ReentrancyGuard.sol\":2261:2282  _nonReentrantBefore() */\n      jump\t// in\n    tag_236:\n        /* \"@openzeppelin/contracts/security/Pausable.sol\":1239:1258  _requireNotPaused() */\n      tag_239\n        /* \"@openzeppelin/contracts/security/Pausable.sol\":1239:1256  _requireNotPaused */\n      tag_159\n        /* \"@openzeppelin/contracts/security/Pausable.sol\":1239:1258  _requireNotPaused() */\n      jump\t// in\n    tag_239:\n        /* \"Signs 2/SignsToken.sol\":5294:5308  uint256 amount */\n      0x00\n        /* \"Signs 2/SignsToken.sol\":5311:5322  wageBalance */\n      0x0d\n        /* \"Signs 2/SignsToken.sol\":5311:5334  wageBalance[msg.sender] */\n      0x00\n        /* \"Signs 2/SignsToken.sol\":5323:5333  msg.sender */\n      caller\n        /* \"Signs 2/SignsToken.sol\":5311:5334  wageBalance[msg.sender] */\n      0xffffffffffffffffffffffffffffffffffffffff\n      and\n      0xffffffffffffffffffffffffffffffffffffffff\n      and\n      dup2\n      mstore\n      0x20\n      add\n      swap1\n      dup2\n      mstore\n      0x20\n      add\n      0x00\n      keccak256\n      sload\n        /* \"Signs 2/SignsToken.sol\":5294:5334  uint256 amount = wageBalance[msg.sender] */\n      swap1\n      pop\n        /* \"Signs 2/SignsToken.sol\":5359:5360  0 */\n      0x00\n        /* \"Signs 2/SignsToken.sol\":5349:5355  amount */\n      dup2\n        /* \"Signs 2/SignsToken.sol\":5349:5360  amount == 0 */\n      sub\n        /* \"Signs 2/SignsToken.sol\":5345:5390  if (amount == 0) revert InsufficientBalance() */\n      tag_241\n      jumpi\n        /* \"Signs 2/SignsToken.sol\":5369:5390  InsufficientBalance() */\n      mload(0x40)\n      0xf4d678b800000000000000000000000000000000000000000000000000000000\n      dup2\n      mstore\n      0x04\n      add\n      mload(0x40)\n      dup1\n      swap2\n      sub\n      swap1\n      revert\n        /* \"Signs 2/SignsToken.sol\":5345:5390  if (amount == 0) revert InsufficientBalance() */\n    tag_241:\n        /* \"Signs 2/SignsToken.sol\":5484:5485  0 */\n      0x00\n        /* \"Signs 2/SignsToken.sol\":5458:5469  wageBalance */\n      0x0d\n        /* \"Signs 2/SignsToken.sol\":5458:5481  wageBalance[msg.sender] */\n      0x00\n        /* \"Signs 2/SignsToken.sol\":5470:5480  msg.sender */\n      caller\n        /* \"Signs 2/SignsToken.sol\":5458:5481  wageBalance[msg.sender] */\n      0xffffffffffffffffffffffffffffffffffffffff\n      and\n      0xffffffffffffffffffffffffffffffffffffffff\n      and\n      dup2\n      mstore\n      0x20\n      add\n      swap1\n      dup2\n      mstore\n      0x20\n      add\n      0x00\n      keccak256\n        /* \"Signs 2/SignsToken.sol\":5458:5485  wageBalance[msg.sender] = 0 */\n      dup2\n      swap1\n      sstore\n      pop\n        /* \"Signs 2/SignsToken.sol\":5538:5563  _mint(msg.sender, amount) */\n      tag_242\n        /* \"Signs 2/SignsToken.sol\":5544:5554  msg.sender */\n      caller\n        /* \"Signs 2/SignsToken.sol\":5556:5562  amount */\n      dup3\n        /* \"Signs 2/SignsToken.sol\":5538:5543  _mint */\n      tag_232\n        /* \"Signs 2/SignsToken.sol\":5538:5563  _mint(msg.sender, amount) */\n      jump\t// in\n    tag_242:\n        /* \"Signs 2/SignsToken.sol\":5283:5571  {... */\n      pop\n        /* \"@openzeppelin/contracts/security/ReentrancyGuard.sol\":2303:2323  _nonReentrantAfter() */\n      tag_243\n        /* \"@openzeppelin/contracts/security/ReentrancyGuard.sol\":2303:2321  _nonReentrantAfter */\n      tag_244\n        /* \"@openzeppelin/contracts/security/ReentrancyGuard.sol\":2303:2323  _nonReentrantAfter() */\n      jump\t// in\n    tag_243:\n        /* \"Signs 2/SignsToken.sol\":5189:5571  function claimWages() ... */\n      jump\t// out\n        /* \"Signs 2/SignsToken.sol\":6081:6265  function updateDailyEarningsCap(uint256 newCap) ... */\n    tag_129:\n        /* \"@openzeppelin/contracts/access/Ownable.sol\":1531:1544  _checkOwner() */\n      tag_246\n        /* \"@openzeppelin/contracts/access/Ownable.sol\":1531:1542  _checkOwner */\n      tag_166\n        /* \"@openzeppelin/contracts/access/Ownable.sol\":1531:1544  _checkOwner() */\n      jump\t// in\n    tag_246:\n        /* \"Signs 2/SignsToken.sol\":6204:6210  newCap */\n      dup1\n        /* \"Signs 2/SignsToken.sol\":6185:6201  dailyEarningsCap */\n      0x0a\n        /* \"Signs 2/SignsToken.sol\":6185:6210  dailyEarningsCap = newCap */\n      dup2\n      swap1\n      sstore\n      pop\n        /* \"Signs 2/SignsToken.sol\":6226:6257  DailyEarningsCapUpdated(newCap) */\n      0xb1cc6c859f8e547a95cbbe7dcece9e0fd5a931c906bd08dcf8413a2c83539713\n        /* \"Signs 2/SignsToken.sol\":6250:6256  newCap */\n      dup2\n        /* \"Signs 2/SignsToken.sol\":6226:6257  DailyEarningsCapUpdated(newCap) */\n      mload(0x40)\n      tag_248\n      swap2\n      swap1\n      tag_52\n      jump\t// in\n    tag_248:\n      mload(0x40)\n      dup1\n      swap2\n      sub\n      swap1\n      log1\n        /* \"Signs 2/SignsToken.sol\":6081:6265  function updateDailyEarningsCap(uint256 newCap) ... */\n      pop\n      jump\t// out\n        /* \"Signs 2/SignsToken.sol\":3350:3964  function recordWage(address carrier, uint256 amount) ... */\n    tag_132:\n        /* \"Signs 2/SignsToken.sol\":3045:3061  signsNFTContract */\n      0x0b\n      0x00\n      swap1\n      sload\n      swap1\n      0x0100\n      exp\n      swap1\n      div\n      0xffffffffffffffffffffffffffffffffffffffff\n      and\n        /* \"Signs 2/SignsToken.sol\":3031:3061  msg.sender != signsNFTContract */\n      0xffffffffffffffffffffffffffffffffffffffff\n      and\n        /* \"Signs 2/SignsToken.sol\":3031:3041  msg.sender */\n      caller\n        /* \"Signs 2/SignsToken.sol\":3031:3061  msg.sender != signsNFTContract */\n      0xffffffffffffffffffffffffffffffffffffffff\n      and\n      eq\n      iszero\n        /* \"Signs 2/SignsToken.sol\":3031:3099  msg.sender != signsNFTContract && msg.sender != signsHistoryContract */\n      dup1\n      iszero\n      tag_250\n      jumpi\n      pop\n        /* \"Signs 2/SignsToken.sol\":3079:3099  signsHistoryContract */\n      0x0c\n      0x00\n      swap1\n      sload\n      swap1\n      0x0100\n      exp\n      swap1\n      div\n      0xffffffffffffffffffffffffffffffffffffffff\n      and\n        /* \"Signs 2/SignsToken.sol\":3065:3099  msg.sender != signsHistoryContract */\n      0xffffffffffffffffffffffffffffffffffffffff\n      and\n        /* \"Signs 2/SignsToken.sol\":3065:3075  msg.sender */\n      caller\n        /* \"Signs 2/SignsToken.sol\":3065:3099  msg.sender != signsHistoryContract */\n      0xffffffffffffffffffffffffffffffffffffffff\n      and\n      eq\n      iszero\n        /* \"Signs 2/SignsToken.sol\":3031:3099  msg.sender != signsNFTContract && msg.sender != signsHistoryContract */\n    tag_250:\n        /* \"Signs 2/SignsToken.sol\":3027:3141  if (msg.sender != signsNFTContract && msg.sender != signsHistoryContract)... */\n      iszero\n      tag_251\n      jumpi\n        /* \"Signs 2/SignsToken.sol\":3121:3141  UnauthorizedCaller() */\n      mload(0x40)\n      0x5c427cd900000000000000000000000000000000000000000000000000000000\n      dup2\n      mstore\n      0x04\n      add\n      mload(0x40)\n      dup1\n      swap2\n      sub\n      swap1\n      revert\n        /* \"Signs 2/SignsToken.sol\":3027:3141  if (msg.sender != signsNFTContract && msg.sender != signsHistoryContract)... */\n    tag_251:\n        /* \"@openzeppelin/contracts/security/Pausable.sol\":1239:1258  _requireNotPaused() */\n      tag_253\n        /* \"@openzeppelin/contracts/security/Pausable.sol\":1239:1256  _requireNotPaused */\n      tag_159\n        /* \"@openzeppelin/contracts/security/Pausable.sol\":1239:1258  _requireNotPaused() */\n      jump\t// in\n    tag_253:\n        /* \"Signs 2/SignsToken.sol\":3505:3506  0 */\n      0x00\n        /* \"Signs 2/SignsToken.sol\":3495:3501  amount */\n      dup2\n        /* \"Signs 2/SignsToken.sol\":3495:3506  amount == 0 */\n      sub\n        /* \"Signs 2/SignsToken.sol\":3491:3530  if (amount == 0) revert InvalidAmount() */\n      tag_255\n      jumpi\n        /* \"Signs 2/SignsToken.sol\":3515:3530  InvalidAmount() */\n      mload(0x40)\n      0x2c5211c600000000000000000000000000000000000000000000000000000000\n      dup2\n      mstore\n      0x04\n      add\n      mload(0x40)\n      dup1\n      swap2\n      sub\n      swap1\n      revert\n        /* \"Signs 2/SignsToken.sol\":3491:3530  if (amount == 0) revert InvalidAmount() */\n    tag_255:\n        /* \"Signs 2/SignsToken.sol\":3597:3633  _checkAndResetDailyEarnings(carrier) */\n      tag_256\n        /* \"Signs 2/SignsToken.sol\":3625:3632  carrier */\n      dup3\n        /* \"Signs 2/SignsToken.sol\":3597:3624  _checkAndResetDailyEarnings */\n      tag_226\n        /* \"Signs 2/SignsToken.sol\":3597:3633  _checkAndResetDailyEarnings(carrier) */\n      jump\t// in\n    tag_256:\n        /* \"Signs 2/SignsToken.sol\":3729:3745  dailyEarningsCap */\n      sload(0x0a)\n        /* \"Signs 2/SignsToken.sol\":3720:3726  amount */\n      dup2\n        /* \"Signs 2/SignsToken.sol\":3695:3708  earningsToday */\n      0x0f\n        /* \"Signs 2/SignsToken.sol\":3695:3717  earningsToday[carrier] */\n      0x00\n        /* \"Signs 2/SignsToken.sol\":3709:3716  carrier */\n      dup6\n        /* \"Signs 2/SignsToken.sol\":3695:3717  earningsToday[carrier] */\n      0xffffffffffffffffffffffffffffffffffffffff\n      and\n      0xffffffffffffffffffffffffffffffffffffffff\n      and\n      dup2\n      mstore\n      0x20\n      add\n      swap1\n      dup2\n      mstore\n      0x20\n      add\n      0x00\n      keccak256\n      sload\n        /* \"Signs 2/SignsToken.sol\":3695:3726  earningsToday[carrier] + amount */\n      tag_257\n      swap2\n      swap1\n      tag_228\n      jump\t// in\n    tag_257:\n        /* \"Signs 2/SignsToken.sol\":3695:3745  earningsToday[carrier] + amount > dailyEarningsCap */\n      gt\n        /* \"Signs 2/SignsToken.sol\":3691:3795  if (earningsToday[carrier] + amount > dailyEarningsCap)... */\n      iszero\n      tag_258\n      jumpi\n        /* \"Signs 2/SignsToken.sol\":3767:3795  DailyEarningsLimitExceeded() */\n      mload(0x40)\n      0xd75747f600000000000000000000000000000000000000000000000000000000\n      dup2\n      mstore\n      0x04\n      add\n      mload(0x40)\n      dup1\n      swap2\n      sub\n      swap1\n      revert\n        /* \"Signs 2/SignsToken.sol\":3691:3795  if (earningsToday[carrier] + amount > dailyEarningsCap)... */\n    tag_258:\n        /* \"Signs 2/SignsToken.sol\":3844:3850  amount */\n      dup1\n        /* \"Signs 2/SignsToken.sol\":3820:3831  wageBalance */\n      0x0d\n        /* \"Signs 2/SignsToken.sol\":3820:3840  wageBalance[carrier] */\n      0x00\n        /* \"Signs 2/SignsToken.sol\":3832:3839  carrier */\n      dup5\n        /* \"Signs 2/SignsToken.sol\":3820:3840  wageBalance[carrier] */\n      0xffffffffffffffffffffffffffffffffffffffff\n      and\n      0xffffffffffffffffffffffffffffffffffffffff\n      and\n      dup2\n      mstore\n      0x20\n      add\n      swap1\n      dup2\n      mstore\n      0x20\n      add\n      0x00\n      keccak256\n      0x00\n        /* \"Signs 2/SignsToken.sol\":3820:3850  wageBalance[carrier] += amount */\n      dup3\n      dup3\n      sload\n      tag_259\n      swap2\n      swap1\n      tag_228\n      jump\t// in\n    tag_259:\n      swap3\n      pop\n      pop\n      dup2\n      swap1\n      sstore\n      pop\n        /* \"Signs 2/SignsToken.sol\":3887:3893  amount */\n      dup1\n        /* \"Signs 2/SignsToken.sol\":3861:3874  earningsToday */\n      0x0f\n        /* \"Signs 2/SignsToken.sol\":3861:3883  earningsToday[carrier] */\n      0x00\n        /* \"Signs 2/SignsToken.sol\":3875:3882  carrier */\n      dup5\n        /* \"Signs 2/SignsToken.sol\":3861:3883  earningsToday[carrier] */\n      0xffffffffffffffffffffffffffffffffffffffff\n      and\n      0xffffffffffffffffffffffffffffffffffffffff\n      and\n      dup2\n      mstore\n      0x20\n      add\n      swap1\n      dup2\n      mstore\n      0x20\n      add\n      0x00\n      keccak256\n      0x00\n        /* \"Signs 2/SignsToken.sol\":3861:3893  earningsToday[carrier] += amount */\n      dup3\n      dup3\n      sload\n      tag_260\n      swap2\n      swap1\n      tag_228\n      jump\t// in\n    tag_260:\n      swap3\n      pop\n      pop\n      dup2\n      swap1\n      sstore\n      pop\n        /* \"Signs 2/SignsToken.sol\":3940:3947  carrier */\n      dup2\n        /* \"Signs 2/SignsToken.sol\":3919:3956  WagePaid(msg.sender, carrier, amount) */\n      0xffffffffffffffffffffffffffffffffffffffff\n      and\n        /* \"Signs 2/SignsToken.sol\":3928:3938  msg.sender */\n      caller\n        /* \"Signs 2/SignsToken.sol\":3919:3956  WagePaid(msg.sender, carrier, amount) */\n      0xffffffffffffffffffffffffffffffffffffffff\n      and\n      0xbf26400ffec32b7f7fa346df27788423de869f04ad96fd322dafc7af85002636\n        /* \"Signs 2/SignsToken.sol\":3949:3955  amount */\n      dup4\n        /* \"Signs 2/SignsToken.sol\":3919:3956  WagePaid(msg.sender, carrier, amount) */\n      mload(0x40)\n      tag_261\n      swap2\n      swap1\n      tag_52\n      jump\t// in\n    tag_261:\n      mload(0x40)\n      dup1\n      swap2\n      sub\n      swap1\n      log3\n        /* \"Signs 2/SignsToken.sol\":3350:3964  function recordWage(address carrier, uint256 amount) ... */\n      pop\n      pop\n      jump\t// out\n        /* \"@openzeppelin/contracts/token/ERC20/ERC20.sol\":3551:3691  function allowance(address owner, address spender) public view virtual returns (uint256) {... */\n    tag_136:\n        /* \"@openzeppelin/contracts/token/ERC20/ERC20.sol\":3631:3638  uint256 */\n      0x00\n        /* \"@openzeppelin/contracts/token/ERC20/ERC20.sol\":3657:3668  _allowances */\n      0x01\n        /* \"@openzeppelin/contracts/token/ERC20/ERC20.sol\":3657:3675  _allowances[owner] */\n      0x00\n        /* \"@openzeppelin/contracts/token/ERC20/ERC20.sol\":3669:3674  owner */\n      dup5\n        /* \"@openzeppelin/contracts/token/ERC20/ERC20.sol\":3657:3675  _allowances[owner] */\n      0xffffffffffffffffffffffffffffffffffffffff\n      and\n      0xffffffffffffffffffffffffffffffffffffffff\n      and\n      dup2\n      mstore\n      0x20\n      add\n      swap1\n      dup2\n      mstore\n      0x20\n      add\n      0x00\n      keccak256\n        /* \"@openzeppelin/contracts/token/ERC20/ERC20.sol\":3657:3684  _allowances[owner][spender] */\n      0x00\n        /* \"@openzeppelin/contracts/token/ERC20/ERC20.sol\":3676:3683  spender */\n      dup4\n        /* \"@openzeppelin/contracts/token/ERC20/ERC20.sol\":3657:3684  _allowances[owner][spender] */\n      0xffffffffffffffffffffffffffffffffffffffff\n      and\n      0xffffffffffffffffffffffffffffffffffffffff\n      and\n      dup2\n      mstore\n      0x20\n      add\n      swap1\n      dup2\n      mstore\n      0x20\n      add\n      0x00\n      keccak256\n      sload\n        /* \"@openzeppelin/contracts/token/ERC20/ERC20.sol\":3650:3684  return _allowances[owner][spender] */\n      swap1\n      pop\n        /* \"@openzeppelin/contracts/token/ERC20/ERC20.sol\":3551:3691  function allowance(address owner, address spender) public view virtual returns (uint256) {... */\n      swap3\n      swap2\n      pop\n      pop\n      jump\t// out\n        /* \"@openzeppelin/contracts/access/Ownable.sol\":2543:2758  function transferOwnership(address newOwner) public virtual onlyOwner {... */\n    tag_140:\n        /* \"@openzeppelin/contracts/access/Ownable.sol\":1531:1544  _checkOwner() */\n      tag_264\n        /* \"@openzeppelin/contracts/access/Ownable.sol\":1531:1542  _checkOwner */\n      tag_166\n        /* \"@openzeppelin/contracts/access/Ownable.sol\":1531:1544  _checkOwner() */\n      jump\t// in\n    tag_264:\n        /* \"@openzeppelin/contracts/access/Ownable.sol\":2647:2648  0 */\n      0x00\n        /* \"@openzeppelin/contracts/access/Ownable.sol\":2627:2649  newOwner == address(0) */\n      0xffffffffffffffffffffffffffffffffffffffff\n      and\n        /* \"@openzeppelin/contracts/access/Ownable.sol\":2627:2635  newOwner */\n      dup2\n        /* \"@openzeppelin/contracts/access/Ownable.sol\":2627:2649  newOwner == address(0) */\n      0xffffffffffffffffffffffffffffffffffffffff\n      and\n      sub\n        /* \"@openzeppelin/contracts/access/Ownable.sol\":2623:2714  if (newOwner == address(0)) {... */\n      tag_266\n      jumpi\n        /* \"@openzeppelin/contracts/access/Ownable.sol\":2700:2701  0 */\n      0x00\n        /* \"@openzeppelin/contracts/access/Ownable.sol\":2672:2703  OwnableInvalidOwner(address(0)) */\n      mload(0x40)\n      0x1e4fbdf700000000000000000000000000000000000000000000000000000000\n      dup2\n      mstore\n      0x04\n      add\n      tag_267\n      swap2\n      swap1\n      tag_95\n      jump\t// in\n    tag_267:\n      mload(0x40)\n      dup1\n      swap2\n      sub\n      swap1\n      revert\n        /* \"@openzeppelin/contracts/access/Ownable.sol\":2623:2714  if (newOwner == address(0)) {... */\n    tag_266:\n        /* \"@openzeppelin/contracts/access/Ownable.sol\":2723:2751  _transferOwnership(newOwner) */\n      tag_268\n        /* \"@openzeppelin/contracts/access/Ownable.sol\":2742:2750  newOwner */\n      dup2\n        /* \"@openzeppelin/contracts/access/Ownable.sol\":2723:2741  _transferOwnership */\n      tag_176\n        /* \"@openzeppelin/contracts/access/Ownable.sol\":2723:2751  _transferOwnership(newOwner) */\n      jump\t// in\n    tag_268:\n        /* \"@openzeppelin/contracts/access/Ownable.sol\":2543:2758  function transferOwnership(address newOwner) public virtual onlyOwner {... */\n      pop\n      jump\t// out\n        /* \"Signs 2/SignsToken.sol\":785:816  uint256 public dailyEarningsCap */\n    tag_142:\n      sload(0x0a)\n      dup2\n      jump\t// out\n        /* \"@openzeppelin/contracts/utils/Context.sol\":656:752  function _msgSender() internal view virtual returns (address) {... */\n    tag_153:\n        /* \"@openzeppelin/contracts/utils/Context.sol\":709:716  address */\n      0x00\n        /* \"@openzeppelin/contracts/utils/Context.sol\":735:745  msg.sender */\n      caller\n        /* \"@openzeppelin/contracts/utils/Context.sol\":728:745  return msg.sender */\n      swap1\n      pop\n        /* \"@openzeppelin/contracts/utils/Context.sol\":656:752  function _msgSender() internal view virtual returns (address) {... */\n      swap1\n      jump\t// out\n        /* \"@openzeppelin/contracts/token/ERC20/ERC20.sol\":8726:8854  function _approve(address owner, address spender, uint256 value) internal {... */\n    tag_155:\n        /* \"@openzeppelin/contracts/token/ERC20/ERC20.sol\":8810:8847  _approve(owner, spender, value, true) */\n      tag_271\n        /* \"@openzeppelin/contracts/token/ERC20/ERC20.sol\":8819:8824  owner */\n      dup4\n        /* \"@openzeppelin/contracts/token/ERC20/ERC20.sol\":8826:8833  spender */\n      dup4\n        /* \"@openzeppelin/contracts/token/ERC20/ERC20.sol\":8835:8840  value */\n      dup4\n        /* \"@openzeppelin/contracts/token/ERC20/ERC20.sol\":8842:8846  true */\n      0x01\n        /* \"@openzeppelin/contracts/token/ERC20/ERC20.sol\":8810:8818  _approve */\n      tag_272\n        /* \"@openzeppelin/contracts/token/ERC20/ERC20.sol\":8810:8847  _approve(owner, spender, value, true) */\n      jump\t// in\n    tag_271:\n        /* \"@openzeppelin/contracts/token/ERC20/ERC20.sol\":8726:8854  function _approve(address owner, address spender, uint256 value) internal {... */\n      pop\n      pop\n      pop\n      jump\t// out\n        /* \"@openzeppelin/contracts/security/Pausable.sol\":1767:1873  function _requireNotPaused() internal view virtual {... */\n    tag_159:\n        /* \"@openzeppelin/contracts/security/Pausable.sol\":1837:1845  paused() */\n      tag_274\n        /* \"@openzeppelin/contracts/security/Pausable.sol\":1837:1843  paused */\n      tag_74\n        /* \"@openzeppelin/contracts/security/Pausable.sol\":1837:1845  paused() */\n      jump\t// in\n    tag_274:\n        /* \"@openzeppelin/contracts/security/Pausable.sol\":1836:1845  !paused() */\n      iszero\n        /* \"@openzeppelin/contracts/security/Pausable.sol\":1828:1866  require(!paused(), \"Pausable: paused\") */\n      tag_275\n      jumpi\n      mload(0x40)\n      0x08c379a000000000000000000000000000000000000000000000000000000000\n      dup2\n      mstore\n      0x04\n      add\n      tag_276\n      swap1\n      tag_277\n      jump\t// in\n    tag_276:\n      mload(0x40)\n      dup1\n      swap2\n      sub\n      swap1\n      revert\n    tag_275:\n        /* \"@openzeppelin/contracts/security/Pausable.sol\":1767:1873  function _requireNotPaused() internal view virtual {... */\n      jump\t// out\n        /* \"@openzeppelin/contracts/token/ERC20/ERC20.sol\":4776:5020  function transferFrom(address from, address to, uint256 value) public virtual returns (bool) {... */\n    tag_162:\n        /* \"@openzeppelin/contracts/token/ERC20/ERC20.sol\":4863:4867  bool */\n      0x00\n        /* \"@openzeppelin/contracts/token/ERC20/ERC20.sol\":4879:4894  address spender */\n      dup1\n        /* \"@openzeppelin/contracts/token/ERC20/ERC20.sol\":4897:4909  _msgSender() */\n      tag_279\n        /* \"@openzeppelin/contracts/token/ERC20/ERC20.sol\":4897:4907  _msgSender */\n      tag_153\n        /* \"@openzeppelin/contracts/token/ERC20/ERC20.sol\":4897:4909  _msgSender() */\n      jump\t// in\n    tag_279:\n        /* \"@openzeppelin/contracts/token/ERC20/ERC20.sol\":4879:4909  address spender = _msgSender() */\n      swap1\n      pop\n        /* \"@openzeppelin/contracts/token/ERC20/ERC20.sol\":4919:4956  _spendAllowance(from, spender, value) */\n      tag_280\n        /* \"@openzeppelin/contracts/token/ERC20/ERC20.sol\":4935:4939  from */\n      dup6\n        /* \"@openzeppelin/contracts/token/ERC20/ERC20.sol\":4941:4948  spender */\n      dup3\n        /* \"@openzeppelin/contracts/token/ERC20/ERC20.sol\":4950:4955  value */\n      dup6\n        /* \"@openzeppelin/contracts/token/ERC20/ERC20.sol\":4919:4934  _spendAllowance */\n      tag_281\n        /* \"@openzeppelin/contracts/token/ERC20/ERC20.sol\":4919:4956  _spendAllowance(from, spender, value) */\n      jump\t// in\n    tag_280:\n        /* \"@openzeppelin/contracts/token/ERC20/ERC20.sol\":4966:4992  _transfer(from, to, value) */\n      tag_282\n        /* \"@openzeppelin/contracts/token/ERC20/ERC20.sol\":4976:4980  from */\n      dup6\n        /* \"@openzeppelin/contracts/token/ERC20/ERC20.sol\":4982:4984  to */\n      dup6\n        /* \"@openzeppelin/contracts/token/ERC20/ERC20.sol\":4986:4991  value */\n      dup6\n        /* \"@openzeppelin/contracts/token/ERC20/ERC20.sol\":4966:4975  _transfer */\n      tag_283\n        /* \"@openzeppelin/contracts/token/ERC20/ERC20.sol\":4966:4992  _transfer(from, to, value) */\n      jump\t// in\n    tag_282:\n        /* \"@openzeppelin/contracts/token/ERC20/ERC20.sol\":5009:5013  true */\n      0x01\n        /* \"@openzeppelin/contracts/token/ERC20/ERC20.sol\":5002:5013  return true */\n      swap2\n      pop\n      pop\n        /* \"@openzeppelin/contracts/token/ERC20/ERC20.sol\":4776:5020  function transferFrom(address from, address to, uint256 value) public virtual returns (bool) {... */\n      swap4\n      swap3\n      pop\n      pop\n      pop\n      jump\t// out\n        /* \"@openzeppelin/contracts/access/Ownable.sol\":1796:1958  function _checkOwner() internal view virtual {... */\n    tag_166:\n        /* \"@openzeppelin/contracts/access/Ownable.sol\":1866:1878  _msgSender() */\n      tag_285\n        /* \"@openzeppelin/contracts/access/Ownable.sol\":1866:1876  _msgSender */\n      tag_153\n        /* \"@openzeppelin/contracts/access/Ownable.sol\":1866:1878  _msgSender() */\n      jump\t// in\n    tag_285:\n        /* \"@openzeppelin/contracts/access/Ownable.sol\":1855:1878  owner() != _msgSender() */\n      0xffffffffffffffffffffffffffffffffffffffff\n      and\n        /* \"@openzeppelin/contracts/access/Ownable.sol\":1855:1862  owner() */\n      tag_286\n        /* \"@openzeppelin/contracts/access/Ownable.sol\":1855:1860  owner */\n      tag_93\n        /* \"@openzeppelin/contracts/access/Ownable.sol\":1855:1862  owner() */\n      jump\t// in\n    tag_286:\n        /* \"@openzeppelin/contracts/access/Ownable.sol\":1855:1878  owner() != _msgSender() */\n      0xffffffffffffffffffffffffffffffffffffffff\n      and\n      eq\n        /* \"@openzeppelin/contracts/access/Ownable.sol\":1851:1952  if (owner() != _msgSender()) {... */\n      tag_287\n      jumpi\n        /* \"@openzeppelin/contracts/access/Ownable.sol\":1928:1940  _msgSender() */\n      tag_288\n        /* \"@openzeppelin/contracts/access/Ownable.sol\":1928:1938  _msgSender */\n      tag_153\n        /* \"@openzeppelin/contracts/access/Ownable.sol\":1928:1940  _msgSender() */\n      jump\t// in\n    tag_288:\n        /* \"@openzeppelin/contracts/access/Ownable.sol\":1901:1941  OwnableUnauthorizedAccount(_msgSender()) */\n      mload(0x40)\n      0x118cdaa700000000000000000000000000000000000000000000000000000000\n      dup2\n      mstore\n      0x04\n      add\n      tag_289\n      swap2\n      swap1\n      tag_95\n      jump\t// in\n    tag_289:\n      mload(0x40)\n      dup1\n      swap2\n      sub\n      swap1\n      revert\n        /* \"@openzeppelin/contracts/access/Ownable.sol\":1851:1952  if (owner() != _msgSender()) {... */\n    tag_287:\n        /* \"@openzeppelin/contracts/access/Ownable.sol\":1796:1958  function _checkOwner() internal view virtual {... */\n      jump\t// out\n        /* \"@openzeppelin/contracts/security/Pausable.sol\":2433:2550  function _unpause() internal virtual whenPaused {... */\n    tag_169:\n        /* \"@openzeppelin/contracts/security/Pausable.sol\":1486:1502  _requirePaused() */\n      tag_291\n        /* \"@openzeppelin/contracts/security/Pausable.sol\":1486:1500  _requirePaused */\n      tag_292\n        /* \"@openzeppelin/contracts/security/Pausable.sol\":1486:1502  _requirePaused() */\n      jump\t// in\n    tag_291:\n        /* \"@openzeppelin/contracts/security/Pausable.sol\":2501:2506  false */\n      0x00\n        /* \"@openzeppelin/contracts/security/Pausable.sol\":2491:2498  _paused */\n      0x05\n      0x00\n        /* \"@openzeppelin/contracts/security/Pausable.sol\":2491:2506  _paused = false */\n      0x0100\n      exp\n      dup2\n      sload\n      dup2\n      0xff\n      mul\n      not\n      and\n      swap1\n      dup4\n      iszero\n      iszero\n      mul\n      or\n      swap1\n      sstore\n      pop\n        /* \"@openzeppelin/contracts/security/Pausable.sol\":2521:2543  Unpaused(_msgSender()) */\n      0x5db9ee0a495bf2e6ff9c91a7834c1ba4fdd244a5e8aa4e537bd38aeae4b073aa\n        /* \"@openzeppelin/contracts/security/Pausable.sol\":2530:2542  _msgSender() */\n      tag_294\n        /* \"@openzeppelin/contracts/security/Pausable.sol\":2530:2540  _msgSender */\n      tag_153\n        /* \"@openzeppelin/contracts/security/Pausable.sol\":2530:2542  _msgSender() */\n      jump\t// in\n    tag_294:\n        /* \"@openzeppelin/contracts/security/Pausable.sol\":2521:2543  Unpaused(_msgSender()) */\n      mload(0x40)\n      tag_295\n      swap2\n      swap1\n      tag_95\n      jump\t// in\n    tag_295:\n      mload(0x40)\n      dup1\n      swap2\n      sub\n      swap1\n      log1\n        /* \"@openzeppelin/contracts/security/Pausable.sol\":2433:2550  function _unpause() internal virtual whenPaused {... */\n      jump\t// out\n        /* \"@openzeppelin/contracts/access/Ownable.sol\":2912:3099  function _transferOwnership(address newOwner) internal virtual {... */\n    tag_176:\n        /* \"@openzeppelin/contracts/access/Ownable.sol\":2985:3001  address oldOwner */\n      0x00\n        /* \"@openzeppelin/contracts/access/Ownable.sol\":3004:3010  _owner */\n      0x05\n      0x01\n      swap1\n      sload\n      swap1\n      0x0100\n      exp\n      swap1\n      div\n      0xffffffffffffffffffffffffffffffffffffffff\n      and\n        /* \"@openzeppelin/contracts/access/Ownable.sol\":2985:3010  address oldOwner = _owner */\n      swap1\n      pop\n        /* \"@openzeppelin/contracts/access/Ownable.sol\":3029:3037  newOwner */\n      dup2\n        /* \"@openzeppelin/contracts/access/Ownable.sol\":3020:3026  _owner */\n      0x05\n      0x01\n        /* \"@openzeppelin/contracts/access/Ownable.sol\":3020:3037  _owner = newOwner */\n      0x0100\n      exp\n      dup2\n      sload\n      dup2\n      0xffffffffffffffffffffffffffffffffffffffff\n      mul\n      not\n      and\n      swap1\n      dup4\n      0xffffffffffffffffffffffffffffffffffffffff\n      and\n      mul\n      or\n      swap1\n      sstore\n      pop\n        /* \"@openzeppelin/contracts/access/Ownable.sol\":3083:3091  newOwner */\n      dup2\n        /* \"@openzeppelin/contracts/access/Ownable.sol\":3052:3092  OwnershipTransferred(oldOwner, newOwner) */\n      0xffffffffffffffffffffffffffffffffffffffff\n      and\n        /* \"@openzeppelin/contracts/access/Ownable.sol\":3073:3081  oldOwner */\n      dup2\n        /* \"@openzeppelin/contracts/access/Ownable.sol\":3052:3092  OwnershipTransferred(oldOwner, newOwner) */\n      0xffffffffffffffffffffffffffffffffffffffff\n      and\n      0x8be0079c531659141344cd1fd0a4f28419497f9722a3daafe3b4186f6b6457e0\n      mload(0x40)\n      mload(0x40)\n      dup1\n      swap2\n      sub\n      swap1\n      log3\n        /* \"@openzeppelin/contracts/access/Ownable.sol\":2975:3099  {... */\n      pop\n        /* \"@openzeppelin/contracts/access/Ownable.sol\":2912:3099  function _transferOwnership(address newOwner) internal virtual {... */\n      pop\n      jump\t// out\n        /* \"@openzeppelin/contracts/security/Pausable.sol\":2186:2301  function _pause() internal virtual whenNotPaused {... */\n    tag_181:\n        /* \"@openzeppelin/contracts/security/Pausable.sol\":1239:1258  _requireNotPaused() */\n      tag_298\n        /* \"@openzeppelin/contracts/security/Pausable.sol\":1239:1256  _requireNotPaused */\n      tag_159\n        /* \"@openzeppelin/contracts/security/Pausable.sol\":1239:1258  _requireNotPaused() */\n      jump\t// in\n    tag_298:\n        /* \"@openzeppelin/contracts/security/Pausable.sol\":2255:2259  true */\n      0x01\n        /* \"@openzeppelin/contracts/security/Pausable.sol\":2245:2252  _paused */\n      0x05\n      0x00\n        /* \"@openzeppelin/contracts/security/Pausable.sol\":2245:2259  _paused = true */\n      0x0100\n      exp\n      dup2\n      sload\n      dup2\n      0xff\n      mul\n      not\n      and\n      swap1\n      dup4\n      iszero\n      iszero\n      mul\n      or\n      swap1\n      sstore\n      pop\n        /* \"@openzeppelin/contracts/security/Pausable.sol\":2274:2294  Paused(_msgSender()) */\n      0x62e78cea01bee320cd4e420270b5ea74000d11b0c9f74754ebdbfc544b05a258\n        /* \"@openzeppelin/contracts/security/Pausable.sol\":2281:2293  _msgSender() */\n      tag_300\n        /* \"@openzeppelin/contracts/security/Pausable.sol\":2281:2291  _msgSender */\n      tag_153\n        /* \"@openzeppelin/contracts/security/Pausable.sol\":2281:2293  _msgSender() */\n      jump\t// in\n    tag_300:\n        /* \"@openzeppelin/contracts/security/Pausable.sol\":2274:2294  Paused(_msgSender()) */\n      mload(0x40)\n      tag_301\n      swap2\n      swap1\n      tag_95\n      jump\t// in\n    tag_301:\n      mload(0x40)\n      dup1\n      swap2\n      sub\n      swap1\n      log1\n        /* \"@openzeppelin/contracts/security/Pausable.sol\":2186:2301  function _pause() internal virtual whenNotPaused {... */\n      jump\t// out\n        /* \"@openzeppelin/contracts/token/ERC20/ERC20.sol\":3315:3493  function transfer(address to, uint256 value) public virtual returns (bool) {... */\n    tag_212:\n        /* \"@openzeppelin/contracts/token/ERC20/ERC20.sol\":3384:3388  bool */\n      0x00\n        /* \"@openzeppelin/contracts/token/ERC20/ERC20.sol\":3400:3413  address owner */\n      dup1\n        /* \"@openzeppelin/contracts/token/ERC20/ERC20.sol\":3416:3428  _msgSender() */\n      tag_303\n        /* \"@openzeppelin/contracts/token/ERC20/ERC20.sol\":3416:3426  _msgSender */\n      tag_153\n        /* \"@openzeppelin/contracts/token/ERC20/ERC20.sol\":3416:3428  _msgSender() */\n      jump\t// in\n    tag_303:\n        /* \"@openzeppelin/contracts/token/ERC20/ERC20.sol\":3400:3428  address owner = _msgSender() */\n      swap1\n      pop\n        /* \"@openzeppelin/contracts/token/ERC20/ERC20.sol\":3438:3465  _transfer(owner, to, value) */\n      tag_304\n        /* \"@openzeppelin/contracts/token/ERC20/ERC20.sol\":3448:3453  owner */\n      dup2\n        /* \"@openzeppelin/contracts/token/ERC20/ERC20.sol\":3455:3457  to */\n      dup6\n        /* \"@openzeppelin/contracts/token/ERC20/ERC20.sol\":3459:3464  value */\n      dup6\n        /* \"@openzeppelin/contracts/token/ERC20/ERC20.sol\":3438:3447  _transfer */\n      tag_283\n        /* \"@openzeppelin/contracts/token/ERC20/ERC20.sol\":3438:3465  _transfer(owner, to, value) */\n      jump\t// in\n    tag_304:\n        /* \"@openzeppelin/contracts/token/ERC20/ERC20.sol\":3482:3486  true */\n      0x01\n        /* \"@openzeppelin/contracts/token/ERC20/ERC20.sol\":3475:3486  return true */\n      swap2\n      pop\n      pop\n        /* \"@openzeppelin/contracts/token/ERC20/ERC20.sol\":3315:3493  function transfer(address to, uint256 value) public virtual returns (bool) {... */\n      swap3\n      swap2\n      pop\n      pop\n      jump\t// out\n        /* \"Signs 2/SignsToken.sol\":7199:7445  function _checkAndResetDailyEarnings(address user) internal {... */\n    tag_226:\n        /* \"Signs 2/SignsToken.sol\":910:916  1 days */\n      0x015180\n        /* \"Signs 2/SignsToken.sol\":7293:7310  lastEarningsReset */\n      0x0e\n        /* \"Signs 2/SignsToken.sol\":7293:7316  lastEarningsReset[user] */\n      0x00\n        /* \"Signs 2/SignsToken.sol\":7311:7315  user */\n      dup4\n        /* \"Signs 2/SignsToken.sol\":7293:7316  lastEarningsReset[user] */\n      0xffffffffffffffffffffffffffffffffffffffff\n      and\n      0xffffffffffffffffffffffffffffffffffffffff\n      and\n      dup2\n      mstore\n      0x20\n      add\n      swap1\n      dup2\n      mstore\n      0x20\n      add\n      0x00\n      keccak256\n      sload\n        /* \"Signs 2/SignsToken.sol\":7293:7330  lastEarningsReset[user] + DAILY_RESET */\n      tag_306\n      swap2\n      swap1\n      tag_228\n      jump\t// in\n    tag_306:\n        /* \"Signs 2/SignsToken.sol\":7274:7289  block.timestamp */\n      timestamp\n        /* \"Signs 2/SignsToken.sol\":7274:7330  block.timestamp >= lastEarningsReset[user] + DAILY_RESET */\n      lt\n        /* \"Signs 2/SignsToken.sol\":7270:7438  if (block.timestamp >= lastEarningsReset[user] + DAILY_RESET) {... */\n      tag_307\n      jumpi\n        /* \"Signs 2/SignsToken.sol\":7369:7370  0 */\n      0x00\n        /* \"Signs 2/SignsToken.sol\":7347:7360  earningsToday */\n      0x0f\n        /* \"Signs 2/SignsToken.sol\":7347:7366  earningsToday[user] */\n      0x00\n        /* \"Signs 2/SignsToken.sol\":7361:7365  user */\n      dup4\n        /* \"Signs 2/SignsToken.sol\":7347:7366  earningsToday[user] */\n      0xffffffffffffffffffffffffffffffffffffffff\n      and\n      0xffffffffffffffffffffffffffffffffffffffff\n      and\n      dup2\n      mstore\n      0x20\n      add\n      swap1\n      dup2\n      mstore\n      0x20\n      add\n      0x00\n      keccak256\n        /* \"Signs 2/SignsToken.sol\":7347:7370  earningsToday[user] = 0 */\n      dup2\n      swap1\n      sstore\n      pop\n        /* \"Signs 2/SignsToken.sol\":7411:7426  block.timestamp */\n      timestamp\n        /* \"Signs 2/SignsToken.sol\":7385:7402  lastEarningsReset */\n      0x0e\n        /* \"Signs 2/SignsToken.sol\":7385:7408  lastEarningsReset[user] */\n      0x00\n        /* \"Signs 2/SignsToken.sol\":7403:7407  user */\n      dup4\n        /* \"Signs 2/SignsToken.sol\":7385:7408  lastEarningsReset[user] */\n      0xffffffffffffffffffffffffffffffffffffffff\n      and\n      0xffffffffffffffffffffffffffffffffffffffff\n      and\n      dup2\n      mstore\n      0x20\n      add\n      swap1\n      dup2\n      mstore\n      0x20\n      add\n      0x00\n      keccak256\n        /* \"Signs 2/SignsToken.sol\":7385:7426  lastEarningsReset[user] = block.timestamp */\n      dup2\n      swap1\n      sstore\n      pop\n        /* \"Signs 2/SignsToken.sol\":7270:7438  if (block.timestamp >= lastEarningsReset[user] + DAILY_RESET) {... */\n    tag_307:\n        /* \"Signs 2/SignsToken.sol\":7199:7445  function _checkAndResetDailyEarnings(address user) internal {... */\n      pop\n      jump\t// out\n        /* \"@openzeppelin/contracts/token/ERC20/ERC20.sol\":7458:7666  function _mint(address account, uint256 value) internal {... */\n    tag_232:\n        /* \"@openzeppelin/contracts/token/ERC20/ERC20.sol\":7547:7548  0 */\n      0x00\n        /* \"@openzeppelin/contracts/token/ERC20/ERC20.sol\":7528:7549  account == address(0) */\n      0xffffffffffffffffffffffffffffffffffffffff\n      and\n        /* \"@openzeppelin/contracts/token/ERC20/ERC20.sol\":7528:7535  account */\n      dup3\n        /* \"@openzeppelin/contracts/token/ERC20/ERC20.sol\":7528:7549  account == address(0) */\n      0xffffffffffffffffffffffffffffffffffffffff\n      and\n      sub\n        /* \"@openzeppelin/contracts/token/ERC20/ERC20.sol\":7524:7615  if (account == address(0)) {... */\n      tag_309\n      jumpi\n        /* \"@openzeppelin/contracts/token/ERC20/ERC20.sol\":7601:7602  0 */\n      0x00\n        /* \"@openzeppelin/contracts/token/ERC20/ERC20.sol\":7572:7604  ERC20InvalidReceiver(address(0)) */\n      mload(0x40)\n      0xec442f0500000000000000000000000000000000000000000000000000000000\n      dup2\n      mstore\n      0x04\n      add\n      tag_310\n      swap2\n      swap1\n      tag_95\n      jump\t// in\n    tag_310:\n      mload(0x40)\n      dup1\n      swap2\n      sub\n      swap1\n      revert\n        /* \"@openzeppelin/contracts/token/ERC20/ERC20.sol\":7524:7615  if (account == address(0)) {... */\n    tag_309:\n        /* \"@openzeppelin/contracts/token/ERC20/ERC20.sol\":7624:7659  _update(address(0), account, value) */\n      tag_311\n        /* \"@openzeppelin/contracts/token/ERC20/ERC20.sol\":7640:7641  0 */\n      0x00\n        /* \"@openzeppelin/contracts/token/ERC20/ERC20.sol\":7644:7651  account */\n      dup4\n        /* \"@openzeppelin/contracts/token/ERC20/ERC20.sol\":7653:7658  value */\n      dup4\n        /* \"@openzeppelin/contracts/token/ERC20/ERC20.sol\":7624:7631  _update */\n      tag_312\n        /* \"@openzeppelin/contracts/token/ERC20/ERC20.sol\":7624:7659  _update(address(0), account, value) */\n      jump\t// in\n    tag_311:\n        /* \"@openzeppelin/contracts/token/ERC20/ERC20.sol\":7458:7666  function _mint(address account, uint256 value) internal {... */\n      pop\n      pop\n      jump\t// out\n        /* \"@openzeppelin/contracts/security/ReentrancyGuard.sol\":2336:2623  function _nonReentrantBefore() private {... */\n    tag_237:\n        /* \"@openzeppelin/contracts/security/ReentrancyGuard.sol\":1759:1760  2 */\n      0x02\n        /* \"@openzeppelin/contracts/security/ReentrancyGuard.sol\":2468:2475  _status */\n      sload(0x06)\n        /* \"@openzeppelin/contracts/security/ReentrancyGuard.sol\":2468:2487  _status != _ENTERED */\n      sub\n        /* \"@openzeppelin/contracts/security/ReentrancyGuard.sol\":2460:2523  require(_status != _ENTERED, \"ReentrancyGuard: reentrant call\") */\n      tag_314\n      jumpi\n      mload(0x40)\n      0x08c379a000000000000000000000000000000000000000000000000000000000\n      dup2\n      mstore\n      0x04\n      add\n      tag_315\n      swap1\n      tag_316\n      jump\t// in\n    tag_315:\n      mload(0x40)\n      dup1\n      swap2\n      sub\n      swap1\n      revert\n    tag_314:\n        /* \"@openzeppelin/contracts/security/ReentrancyGuard.sol\":1759:1760  2 */\n      0x02\n        /* \"@openzeppelin/contracts/security/ReentrancyGuard.sol\":2598:2605  _status */\n      0x06\n        /* \"@openzeppelin/contracts/security/ReentrancyGuard.sol\":2598:2616  _status = _ENTERED */\n      dup2\n      swap1\n      sstore\n      pop\n        /* \"@openzeppelin/contracts/security/ReentrancyGuard.sol\":2336:2623  function _nonReentrantBefore() private {... */\n      jump\t// out\n        /* \"@openzeppelin/contracts/security/ReentrancyGuard.sol\":2629:2838  function _nonReentrantAfter() private {... */\n    tag_244:\n        /* \"@openzeppelin/contracts/security/ReentrancyGuard.sol\":1716:1717  1 */\n      0x01\n        /* \"@openzeppelin/contracts/security/ReentrancyGuard.sol\":2809:2816  _status */\n      0x06\n        /* \"@openzeppelin/contracts/security/ReentrancyGuard.sol\":2809:2831  _status = _NOT_ENTERED */\n      dup2\n      swap1\n      sstore\n      pop\n        /* \"@openzeppelin/contracts/security/ReentrancyGuard.sol\":2629:2838  function _nonReentrantAfter() private {... */\n      jump\t// out\n        /* \"@openzeppelin/contracts/token/ERC20/ERC20.sol\":9701:10133  function _approve(address owner, address spender, uint256 value, bool emitEvent) internal virtual {... */\n    tag_272:\n        /* \"@openzeppelin/contracts/token/ERC20/ERC20.sol\":9830:9831  0 */\n      0x00\n        /* \"@openzeppelin/contracts/token/ERC20/ERC20.sol\":9813:9832  owner == address(0) */\n      0xffffffffffffffffffffffffffffffffffffffff\n      and\n        /* \"@openzeppelin/contracts/token/ERC20/ERC20.sol\":9813:9818  owner */\n      dup5\n        /* \"@openzeppelin/contracts/token/ERC20/ERC20.sol\":9813:9832  owner == address(0) */\n      0xffffffffffffffffffffffffffffffffffffffff\n      and\n      sub\n        /* \"@openzeppelin/contracts/token/ERC20/ERC20.sol\":9809:9898  if (owner == address(0)) {... */\n      tag_319\n      jumpi\n        /* \"@openzeppelin/contracts/token/ERC20/ERC20.sol\":9884:9885  0 */\n      0x00\n        /* \"@openzeppelin/contracts/token/ERC20/ERC20.sol\":9855:9887  ERC20InvalidApprover(address(0)) */\n      mload(0x40)\n      0xe602df0500000000000000000000000000000000000000000000000000000000\n      dup2\n      mstore\n      0x04\n      add\n      tag_320\n      swap2\n      swap1\n      tag_95\n      jump\t// in\n    tag_320:\n      mload(0x40)\n      dup1\n      swap2\n      sub\n      swap1\n      revert\n        /* \"@openzeppelin/contracts/token/ERC20/ERC20.sol\":9809:9898  if (owner == address(0)) {... */\n    tag_319:\n        /* \"@openzeppelin/contracts/token/ERC20/ERC20.sol\":9930:9931  0 */\n      0x00\n        /* \"@openzeppelin/contracts/token/ERC20/ERC20.sol\":9911:9932  spender == address(0) */\n      0xffffffffffffffffffffffffffffffffffffffff\n      and\n        /* \"@openzeppelin/contracts/token/ERC20/ERC20.sol\":9911:9918  spender */\n      dup4\n        /* \"@openzeppelin/contracts/token/ERC20/ERC20.sol\":9911:9932  spender == address(0) */\n      0xffffffffffffffffffffffffffffffffffffffff\n      and\n      sub\n        /* \"@openzeppelin/contracts/token/ERC20/ERC20.sol\":9907:9997  if (spender == address(0)) {... */\n      tag_321\n      jumpi\n        /* \"@openzeppelin/contracts/token/ERC20/ERC20.sol\":9983:9984  0 */\n      0x00\n        /* \"@openzeppelin/contracts/token/ERC20/ERC20.sol\":9955:9986  ERC20InvalidSpender(address(0)) */\n      mload(0x40)\n      0x94280d6200000000000000000000000000000000000000000000000000000000\n      dup2\n      mstore\n      0x04\n      add\n      tag_322\n      swap2\n      swap1\n      tag_95\n      jump\t// in\n    tag_322:\n      mload(0x40)\n      dup1\n      swap2\n      sub\n      swap1\n      revert\n        /* \"@openzeppelin/contracts/token/ERC20/ERC20.sol\":9907:9997  if (spender == address(0)) {... */\n    tag_321:\n        /* \"@openzeppelin/contracts/token/ERC20/ERC20.sol\":10036:10041  value */\n      dup2\n        /* \"@openzeppelin/contracts/token/ERC20/ERC20.sol\":10006:10017  _allowances */\n      0x01\n        /* \"@openzeppelin/contracts/token/ERC20/ERC20.sol\":10006:10024  _allowances[owner] */\n      0x00\n        /* \"@openzeppelin/contracts/token/ERC20/ERC20.sol\":10018:10023  owner */\n      dup7\n        /* \"@openzeppelin/contracts/token/ERC20/ERC20.sol\":10006:10024  _allowances[owner] */\n      0xffffffffffffffffffffffffffffffffffffffff\n      and\n      0xffffffffffffffffffffffffffffffffffffffff\n      and\n      dup2\n      mstore\n      0x20\n      add\n      swap1\n      dup2\n      mstore\n      0x20\n      add\n      0x00\n      keccak256\n        /* \"@openzeppelin/contracts/token/ERC20/ERC20.sol\":10006:10033  _allowances[owner][spender] */\n      0x00\n        /* \"@openzeppelin/contracts/token/ERC20/ERC20.sol\":10025:10032  spender */\n      dup6\n        /* \"@openzeppelin/contracts/token/ERC20/ERC20.sol\":10006:10033  _allowances[owner][spender] */\n      0xffffffffffffffffffffffffffffffffffffffff\n      and\n      0xffffffffffffffffffffffffffffffffffffffff\n      and\n      dup2\n      mstore\n      0x20\n      add\n      swap1\n      dup2\n      mstore\n      0x20\n      add\n      0x00\n      keccak256\n        /* \"@openzeppelin/contracts/token/ERC20/ERC20.sol\":10006:10041  _allowances[owner][spender] = value */\n      dup2\n      swap1\n      sstore\n      pop\n        /* \"@openzeppelin/contracts/token/ERC20/ERC20.sol\":10055:10064  emitEvent */\n      dup1\n        /* \"@openzeppelin/contracts/token/ERC20/ERC20.sol\":10051:10127  if (emitEvent) {... */\n      iszero\n      tag_323\n      jumpi\n        /* \"@openzeppelin/contracts/token/ERC20/ERC20.sol\":10101:10108  spender */\n      dup3\n        /* \"@openzeppelin/contracts/token/ERC20/ERC20.sol\":10085:10116  Approval(owner, spender, value) */\n      0xffffffffffffffffffffffffffffffffffffffff\n      and\n        /* \"@openzeppelin/contracts/token/ERC20/ERC20.sol\":10094:10099  owner */\n      dup5\n        /* \"@openzeppelin/contracts/token/ERC20/ERC20.sol\":10085:10116  Approval(owner, spender, value) */\n      0xffffffffffffffffffffffffffffffffffffffff\n      and\n      0x8c5be1e5ebec7d5bd14f71427d1e84f3dd0314c0f7b2291e5b200ac8c7c3b925\n        /* \"@openzeppelin/contracts/token/ERC20/ERC20.sol\":10110:10115  value */\n      dup5\n        /* \"@openzeppelin/contracts/token/ERC20/ERC20.sol\":10085:10116  Approval(owner, spender, value) */\n      mload(0x40)\n      tag_324\n      swap2\n      swap1\n      tag_52\n      jump\t// in\n    tag_324:\n      mload(0x40)\n      dup1\n      swap2\n      sub\n      swap1\n      log3\n        /* \"@openzeppelin/contracts/token/ERC20/ERC20.sol\":10051:10127  if (emitEvent) {... */\n    tag_323:\n        /* \"@openzeppelin/contracts/token/ERC20/ERC20.sol\":9701:10133  function _approve(address owner, address spender, uint256 value, bool emitEvent) internal virtual {... */\n      pop\n      pop\n      pop\n      pop\n      jump\t// out\n        /* \"@openzeppelin/contracts/token/ERC20/ERC20.sol\":10415:10892  function _spendAllowance(address owner, address spender, uint256 value) internal virtual {... */\n    tag_281:\n        /* \"@openzeppelin/contracts/token/ERC20/ERC20.sol\":10514:10538  uint256 currentAllowance */\n      0x00\n        /* \"@openzeppelin/contracts/token/ERC20/ERC20.sol\":10541:10566  allowance(owner, spender) */\n      tag_326\n        /* \"@openzeppelin/contracts/token/ERC20/ERC20.sol\":10551:10556  owner */\n      dup5\n        /* \"@openzeppelin/contracts/token/ERC20/ERC20.sol\":10558:10565  spender */\n      dup5\n        /* \"@openzeppelin/contracts/token/ERC20/ERC20.sol\":10541:10550  allowance */\n      tag_136\n        /* \"@openzeppelin/contracts/token/ERC20/ERC20.sol\":10541:10566  allowance(owner, spender) */\n      jump\t// in\n    tag_326:\n        /* \"@openzeppelin/contracts/token/ERC20/ERC20.sol\":10514:10566  uint256 currentAllowance = allowance(owner, spender) */\n      swap1\n      pop\n        /* \"@openzeppelin/contracts/token/ERC20/ERC20.sol\":10600:10617  type(uint256).max */\n      0xffffffffffffffffffffffffffffffffffffffffffffffffffffffffffffffff\n        /* \"@openzeppelin/contracts/token/ERC20/ERC20.sol\":10580:10596  currentAllowance */\n      dup2\n        /* \"@openzeppelin/contracts/token/ERC20/ERC20.sol\":10580:10617  currentAllowance != type(uint256).max */\n      eq\n        /* \"@openzeppelin/contracts/token/ERC20/ERC20.sol\":10576:10886  if (currentAllowance != type(uint256).max) {... */\n      tag_327\n      jumpi\n        /* \"@openzeppelin/contracts/token/ERC20/ERC20.sol\":10656:10661  value */\n      dup2\n        /* \"@openzeppelin/contracts/token/ERC20/ERC20.sol\":10637:10653  currentAllowance */\n      dup2\n        /* \"@openzeppelin/contracts/token/ERC20/ERC20.sol\":10637:10661  currentAllowance < value */\n      lt\n        /* \"@openzeppelin/contracts/token/ERC20/ERC20.sol\":10633:10763  if (currentAllowance < value) {... */\n      iszero\n      tag_328\n      jumpi\n        /* \"@openzeppelin/contracts/token/ERC20/ERC20.sol\":10715:10722  spender */\n      dup3\n        /* \"@openzeppelin/contracts/token/ERC20/ERC20.sol\":10724:10740  currentAllowance */\n      dup2\n        /* \"@openzeppelin/contracts/token/ERC20/ERC20.sol\":10742:10747  value */\n      dup4\n        /* \"@openzeppelin/contracts/token/ERC20/ERC20.sol\":10688:10748  ERC20InsufficientAllowance(spender, currentAllowance, value) */\n      mload(0x40)\n      0xfb8f41b200000000000000000000000000000000000000000000000000000000\n      dup2\n      mstore\n      0x04\n      add\n      tag_329\n      swap4\n      swap3\n      swap2\n      swap1\n      tag_330\n      jump\t// in\n    tag_329:\n      mload(0x40)\n      dup1\n      swap2\n      sub\n      swap1\n      revert\n        /* \"@openzeppelin/contracts/token/ERC20/ERC20.sol\":10633:10763  if (currentAllowance < value) {... */\n    tag_328:\n        /* \"@openzeppelin/contracts/token/ERC20/ERC20.sol\":10804:10861  _approve(owner, spender, currentAllowance - value, false) */\n      tag_331\n        /* \"@openzeppelin/contracts/token/ERC20/ERC20.sol\":10813:10818  owner */\n      dup5\n        /* \"@openzeppelin/contracts/token/ERC20/ERC20.sol\":10820:10827  spender */\n      dup5\n        /* \"@openzeppelin/contracts/token/ERC20/ERC20.sol\":10848:10853  value */\n      dup5\n        /* \"@openzeppelin/contracts/token/ERC20/ERC20.sol\":10829:10845  currentAllowance */\n      dup5\n        /* \"@openzeppelin/contracts/token/ERC20/ERC20.sol\":10829:10853  currentAllowance - value */\n      sub\n        /* \"@openzeppelin/contracts/token/ERC20/ERC20.sol\":10855:10860  false */\n      0x00\n        /* \"@openzeppelin/contracts/token/ERC20/ERC20.sol\":10804:10812  _approve */\n      tag_272\n        /* \"@openzeppelin/contracts/token/ERC20/ERC20.sol\":10804:10861  _approve(owner, spender, currentAllowance - value, false) */\n      jump\t// in\n    tag_331:\n        /* \"@openzeppelin/contracts/token/ERC20/ERC20.sol\":10576:10886  if (currentAllowance != type(uint256).max) {... */\n    tag_327:\n        /* \"@openzeppelin/contracts/token/ERC20/ERC20.sol\":10504:10892  {... */\n      pop\n        /* \"@openzeppelin/contracts/token/ERC20/ERC20.sol\":10415:10892  function _spendAllowance(address owner, address spender, uint256 value) internal virtual {... */\n      pop\n      pop\n      pop\n      jump\t// out\n        /* \"@openzeppelin/contracts/token/ERC20/ERC20.sol\":5393:5693  function _transfer(address from, address to, uint256 value) internal {... */\n    tag_283:\n        /* \"@openzeppelin/contracts/token/ERC20/ERC20.sol\":5492:5493  0 */\n      0x00\n        /* \"@openzeppelin/contracts/token/ERC20/ERC20.sol\":5476:5494  from == address(0) */\n      0xffffffffffffffffffffffffffffffffffffffff\n      and\n        /* \"@openzeppelin/contracts/token/ERC20/ERC20.sol\":5476:5480  from */\n      dup4\n        /* \"@openzeppelin/contracts/token/ERC20/ERC20.sol\":5476:5494  from == address(0) */\n      0xffffffffffffffffffffffffffffffffffffffff\n      and\n      sub\n        /* \"@openzeppelin/contracts/token/ERC20/ERC20.sol\":5472:5558  if (from == address(0)) {... */\n      tag_333\n      jumpi\n        /* \"@openzeppelin/contracts/token/ERC20/ERC20.sol\":5544:5545  0 */\n      0x00\n        /* \"@openzeppelin/contracts/token/ERC20/ERC20.sol\":5517:5547  ERC20InvalidSender(address(0)) */\n      mload(0x40)\n      0x96c6fd1e00000000000000000000000000000000000000000000000000000000\n      dup2\n      mstore\n      0x04\n      add\n      tag_334\n      swap2\n      swap1\n      tag_95\n      jump\t// in\n    tag_334:\n      mload(0x40)\n      dup1\n      swap2\n      sub\n      swap1\n      revert\n        /* \"@openzeppelin/contracts/token/ERC20/ERC20.sol\":5472:5558  if (from == address(0)) {... */\n    tag_333:\n        /* \"@openzeppelin/contracts/token/ERC20/ERC20.sol\":5585:5586  0 */\n      0x00\n        /* \"@openzeppelin/contracts/token/ERC20/ERC20.sol\":5571:5587  to == address(0) */\n      0xffffffffffffffffffffffffffffffffffffffff\n      and\n        /* \"@openzeppelin/contracts/token/ERC20/ERC20.sol\":5571:5573  to */\n      dup3\n        /* \"@openzeppelin/contracts/token/ERC20/ERC20.sol\":5571:5587  to == address(0) */\n      0xffffffffffffffffffffffffffffffffffffffff\n      and\n      sub\n        /* \"@openzeppelin/contracts/token/ERC20/ERC20.sol\":5567:5653  if (to == address(0)) {... */\n      tag_335\n      jumpi\n        /* \"@openzeppelin/contracts/token/ERC20/ERC20.sol\":5639:5640  0 */\n      0x00\n        /* \"@openzeppelin/contracts/token/ERC20/ERC20.sol\":5610:5642  ERC20InvalidReceiver(address(0)) */\n      mload(0x40)\n      0xec442f0500000000000000000000000000000000000000000000000000000000\n      dup2\n      mstore\n      0x04\n      add\n      tag_336\n      swap2\n      swap1\n      tag_95\n      jump\t// in\n    tag_336:\n      mload(0x40)\n      dup1\n      swap2\n      sub\n      swap1\n      revert\n        /* \"@openzeppelin/contracts/token/ERC20/ERC20.sol\":5567:5653  if (to == address(0)) {... */\n    tag_335:\n        /* \"@openzeppelin/contracts/token/ERC20/ERC20.sol\":5662:5686  _update(from, to, value) */\n      tag_337\n        /* \"@openzeppelin/contracts/token/ERC20/ERC20.sol\":5670:5674  from */\n      dup4\n        /* \"@openzeppelin/contracts/token/ERC20/ERC20.sol\":5676:5678  to */\n      dup4\n        /* \"@openzeppelin/contracts/token/ERC20/ERC20.sol\":5680:5685  value */\n      dup4\n        /* \"@openzeppelin/contracts/token/ERC20/ERC20.sol\":5662:5669  _update */\n      tag_312\n        /* \"@openzeppelin/contracts/token/ERC20/ERC20.sol\":5662:5686  _update(from, to, value) */\n      jump\t// in\n    tag_337:\n        /* \"@openzeppelin/contracts/token/ERC20/ERC20.sol\":5393:5693  function _transfer(address from, address to, uint256 value) internal {... */\n      pop\n      pop\n      pop\n      jump\t// out\n        /* \"@openzeppelin/contracts/security/Pausable.sol\":1945:2051  function _requirePaused() internal view virtual {... */\n    tag_292:\n        /* \"@openzeppelin/contracts/security/Pausable.sol\":2011:2019  paused() */\n      tag_339\n        /* \"@openzeppelin/contracts/security/Pausable.sol\":2011:2017  paused */\n      tag_74\n        /* \"@openzeppelin/contracts/security/Pausable.sol\":2011:2019  paused() */\n      jump\t// in\n    tag_339:\n        /* \"@openzeppelin/contracts/security/Pausable.sol\":2003:2044  require(paused(), \"Pausable: not paused\") */\n      tag_340\n      jumpi\n      mload(0x40)\n      0x08c379a000000000000000000000000000000000000000000000000000000000\n      dup2\n      mstore\n      0x04\n      add\n      tag_341\n      swap1\n      tag_342\n      jump\t// in\n    tag_341:\n      mload(0x40)\n      dup1\n      swap2\n      sub\n      swap1\n      revert\n    tag_340:\n        /* \"@openzeppelin/contracts/security/Pausable.sol\":1945:2051  function _requirePaused() internal view virtual {... */\n      jump\t// out\n        /* \"@openzeppelin/contracts/token/ERC20/ERC20.sol\":6008:7115  function _update(address from, address to, uint256 value) internal virtual {... */\n    tag_312:\n        /* \"@openzeppelin/contracts/token/ERC20/ERC20.sol\":6113:6114  0 */\n      0x00\n        /* \"@openzeppelin/contracts/token/ERC20/ERC20.sol\":6097:6115  from == address(0) */\n      0xffffffffffffffffffffffffffffffffffffffff\n      and\n        /* \"@openzeppelin/contracts/token/ERC20/ERC20.sol\":6097:6101  from */\n      dup4\n        /* \"@openzeppelin/contracts/token/ERC20/ERC20.sol\":6097:6115  from == address(0) */\n      0xffffffffffffffffffffffffffffffffffffffff\n      and\n      sub\n        /* \"@openzeppelin/contracts/token/ERC20/ERC20.sol\":6093:6633  if (from == address(0)) {... */\n      tag_344\n      jumpi\n        /* \"@openzeppelin/contracts/token/ERC20/ERC20.sol\":6249:6254  value */\n      dup1\n        /* \"@openzeppelin/contracts/token/ERC20/ERC20.sol\":6233:6245  _totalSupply */\n      0x02\n      0x00\n        /* \"@openzeppelin/contracts/token/ERC20/ERC20.sol\":6233:6254  _totalSupply += value */\n      dup3\n      dup3\n      sload\n      tag_345\n      swap2\n      swap1\n      tag_228\n      jump\t// in\n    tag_345:\n      swap3\n      pop\n      pop\n      dup2\n      swap1\n      sstore\n      pop\n        /* \"@openzeppelin/contracts/token/ERC20/ERC20.sol\":6093:6633  if (from == address(0)) {... */\n      jump(tag_346)\n    tag_344:\n        /* \"@openzeppelin/contracts/token/ERC20/ERC20.sol\":6285:6304  uint256 fromBalance */\n      0x00\n        /* \"@openzeppelin/contracts/token/ERC20/ERC20.sol\":6307:6316  _balances */\n      dup1\n        /* \"@openzeppelin/contracts/token/ERC20/ERC20.sol\":6307:6322  _balances[from] */\n      0x00\n        /* \"@openzeppelin/contracts/token/ERC20/ERC20.sol\":6317:6321  from */\n      dup6\n        /* \"@openzeppelin/contracts/token/ERC20/ERC20.sol\":6307:6322  _balances[from] */\n      0xffffffffffffffffffffffffffffffffffffffff\n      and\n      0xffffffffffffffffffffffffffffffffffffffff\n      and\n      dup2\n      mstore\n      0x20\n      add\n      swap1\n      dup2\n      mstore\n      0x20\n      add\n      0x00\n      keccak256\n      sload\n        /* \"@openzeppelin/contracts/token/ERC20/ERC20.sol\":6285:6322  uint256 fromBalance = _balances[from] */\n      swap1\n      pop\n        /* \"@openzeppelin/contracts/token/ERC20/ERC20.sol\":6354:6359  value */\n      dup2\n        /* \"@openzeppelin/contracts/token/ERC20/ERC20.sol\":6340:6351  fromBalance */\n      dup2\n        /* \"@openzeppelin/contracts/token/ERC20/ERC20.sol\":6340:6359  fromBalance < value */\n      lt\n        /* \"@openzeppelin/contracts/token/ERC20/ERC20.sol\":6336:6451  if (fromBalance < value) {... */\n      iszero\n      tag_347\n      jumpi\n        /* \"@openzeppelin/contracts/token/ERC20/ERC20.sol\":6411:6415  from */\n      dup4\n        /* \"@openzeppelin/contracts/token/ERC20/ERC20.sol\":6417:6428  fromBalance */\n      dup2\n        /* \"@openzeppelin/contracts/token/ERC20/ERC20.sol\":6430:6435  value */\n      dup4\n        /* \"@openzeppelin/contracts/token/ERC20/ERC20.sol\":6386:6436  ERC20InsufficientBalance(from, fromBalance, value) */\n      mload(0x40)\n      0xe450d38c00000000000000000000000000000000000000000000000000000000\n      dup2\n      mstore\n      0x04\n      add\n      tag_348\n      swap4\n      swap3\n      swap2\n      swap1\n      tag_330\n      jump\t// in\n    tag_348:\n      mload(0x40)\n      dup1\n      swap2\n      sub\n      swap1\n      revert\n        /* \"@openzeppelin/contracts/token/ERC20/ERC20.sol\":6336:6451  if (fromBalance < value) {... */\n    tag_347:\n        /* \"@openzeppelin/contracts/token/ERC20/ERC20.sol\":6603:6608  value */\n      dup2\n        /* \"@openzeppelin/contracts/token/ERC20/ERC20.sol\":6589:6600  fromBalance */\n      dup2\n        /* \"@openzeppelin/contracts/token/ERC20/ERC20.sol\":6589:6608  fromBalance - value */\n      sub\n        /* \"@openzeppelin/contracts/token/ERC20/ERC20.sol\":6571:6580  _balances */\n      0x00\n        /* \"@openzeppelin/contracts/token/ERC20/ERC20.sol\":6571:6586  _balances[from] */\n      dup1\n        /* \"@openzeppelin/contracts/token/ERC20/ERC20.sol\":6581:6585  from */\n      dup7\n        /* \"@openzeppelin/contracts/token/ERC20/ERC20.sol\":6571:6586  _balances[from] */\n      0xffffffffffffffffffffffffffffffffffffffff\n      and\n      0xffffffffffffffffffffffffffffffffffffffff\n      and\n      dup2\n      mstore\n      0x20\n      add\n      swap1\n      dup2\n      mstore\n      0x20\n      add\n      0x00\n      keccak256\n        /* \"@openzeppelin/contracts/token/ERC20/ERC20.sol\":6571:6608  _balances[from] = fromBalance - value */\n      dup2\n      swap1\n      sstore\n      pop\n        /* \"@openzeppelin/contracts/token/ERC20/ERC20.sol\":6271:6633  {... */\n      pop\n        /* \"@openzeppelin/contracts/token/ERC20/ERC20.sol\":6093:6633  if (from == address(0)) {... */\n    tag_346:\n        /* \"@openzeppelin/contracts/token/ERC20/ERC20.sol\":6661:6662  0 */\n      0x00\n        /* \"@openzeppelin/contracts/token/ERC20/ERC20.sol\":6647:6663  to == address(0) */\n      0xffffffffffffffffffffffffffffffffffffffff\n      and\n        /* \"@openzeppelin/contracts/token/ERC20/ERC20.sol\":6647:6649  to */\n      dup3\n        /* \"@openzeppelin/contracts/token/ERC20/ERC20.sol\":6647:6663  to == address(0) */\n      0xffffffffffffffffffffffffffffffffffffffff\n      and\n      sub\n        /* \"@openzeppelin/contracts/token/ERC20/ERC20.sol\":6643:7068  if (to == address(0)) {... */\n      tag_349\n      jumpi\n        /* \"@openzeppelin/contracts/token/ERC20/ERC20.sol\":6826:6831  value */\n      dup1\n        /* \"@openzeppelin/contracts/token/ERC20/ERC20.sol\":6810:6822  _totalSupply */\n      0x02\n      0x00\n        /* \"@openzeppelin/contracts/token/ERC20/ERC20.sol\":6810:6831  _totalSupply -= value */\n      dup3\n      dup3\n      sload\n      sub\n      swap3\n      pop\n      pop\n      dup2\n      swap1\n      sstore\n      pop\n        /* \"@openzeppelin/contracts/token/ERC20/ERC20.sol\":6643:7068  if (to == address(0)) {... */\n      jump(tag_350)\n    tag_349:\n        /* \"@openzeppelin/contracts/token/ERC20/ERC20.sol\":7038:7043  value */\n      dup1\n        /* \"@openzeppelin/contracts/token/ERC20/ERC20.sol\":7021:7030  _balances */\n      0x00\n        /* \"@openzeppelin/contracts/token/ERC20/ERC20.sol\":7021:7034  _balances[to] */\n      dup1\n        /* \"@openzeppelin/contracts/token/ERC20/ERC20.sol\":7031:7033  to */\n      dup5\n        /* \"@openzeppelin/contracts/token/ERC20/ERC20.sol\":7021:7034  _balances[to] */\n      0xffffffffffffffffffffffffffffffffffffffff\n      and\n      0xffffffffffffffffffffffffffffffffffffffff\n      and\n      dup2\n      mstore\n      0x20\n      add\n      swap1\n      dup2\n      mstore\n      0x20\n      add\n      0x00\n      keccak256\n      0x00\n        /* \"@openzeppelin/contracts/token/ERC20/ERC20.sol\":7021:7043  _balances[to] += value */\n      dup3\n      dup3\n      sload\n      add\n      swap3\n      pop\n      pop\n      dup2\n      swap1\n      sstore\n      pop\n        /* \"@openzeppelin/contracts/token/ERC20/ERC20.sol\":6643:7068  if (to == address(0)) {... */\n    tag_350:\n        /* \"@openzeppelin/contracts/token/ERC20/ERC20.sol\":7098:7100  to */\n      dup2\n        /* \"@openzeppelin/contracts/token/ERC20/ERC20.sol\":7083:7108  Transfer(from, to, value) */\n      0xffffffffffffffffffffffffffffffffffffffff\n      and\n        /* \"@openzeppelin/contracts/token/ERC20/ERC20.sol\":7092:7096  from */\n      dup4\n        /* \"@openzeppelin/contracts/token/ERC20/ERC20.sol\":7083:7108  Transfer(from, to, value) */\n      0xffffffffffffffffffffffffffffffffffffffff\n      and\n      0xddf252ad1be2c89b69c2b068fc378daa952ba7f163c4a11628f55a4df523b3ef\n        /* \"@openzeppelin/contracts/token/ERC20/ERC20.sol\":7102:7107  value */\n      dup4\n        /* \"@openzeppelin/contracts/token/ERC20/ERC20.sol\":7083:7108  Transfer(from, to, value) */\n      mload(0x40)\n      tag_351\n      swap2\n      swap1\n      tag_52\n      jump\t// in\n    tag_351:\n      mload(0x40)\n      dup1\n      swap2\n      sub\n      swap1\n      log3\n        /* \"@openzeppelin/contracts/token/ERC20/ERC20.sol\":6008:7115  function _update(address from, address to, uint256 value) internal virtual {... */\n      pop\n      pop\n      pop\n      jump\t// out\n        /* \"#utility.yul\":7:106   */\n    tag_352:\n        /* \"#utility.yul\":59:65   */\n      0x00\n        /* \"#utility.yul\":93:98   */\n      dup2\n        /* \"#utility.yul\":87:99   */\n      mload\n        /* \"#utility.yul\":77:99   */\n      swap1\n      pop\n        /* \"#utility.yul\":7:106   */\n      swap2\n      swap1\n      pop\n      jump\t// out\n        /* \"#utility.yul\":112:281   */\n    tag_353:\n        /* \"#utility.yul\":196:207   */\n      0x00\n        /* \"#utility.yul\":230:236   */\n      dup3\n        /* \"#utility.yul\":225:228   */\n      dup3\n        /* \"#utility.yul\":218:237   */\n      mstore\n        /* \"#utility.yul\":270:274   */\n      0x20\n        /* \"#utility.yul\":265:268   */\n      dup3\n        /* \"#utility.yul\":261:275   */\n      add\n        /* \"#utility.yul\":246:275   */\n      swap1\n      pop\n        /* \"#utility.yul\":112:281   */\n      swap3\n      swap2\n      pop\n      pop\n      jump\t// out\n        /* \"#utility.yul\":287:426   */\n    tag_354:\n        /* \"#utility.yul\":376:382   */\n      dup3\n        /* \"#utility.yul\":371:374   */\n      dup2\n        /* \"#utility.yul\":366:369   */\n      dup4\n        /* \"#utility.yul\":360:383   */\n      mcopy\n        /* \"#utility.yul\":417:418   */\n      0x00\n        /* \"#utility.yul\":408:414   */\n      dup4\n        /* \"#utility.yul\":403:406   */\n      dup4\n        /* \"#utility.yul\":399:415   */\n      add\n        /* \"#utility.yul\":392:419   */\n      mstore\n        /* \"#utility.yul\":287:426   */\n      pop\n      pop\n      pop\n      jump\t// out\n        /* \"#utility.yul\":432:534   */\n    tag_355:\n        /* \"#utility.yul\":473:479   */\n      0x00\n        /* \"#utility.yul\":524:526   */\n      0x1f\n        /* \"#utility.yul\":520:527   */\n      not\n        /* \"#utility.yul\":515:517   */\n      0x1f\n        /* \"#utility.yul\":508:513   */\n      dup4\n        /* \"#utility.yul\":504:518   */\n      add\n        /* \"#utility.yul\":500:528   */\n      and\n        /* \"#utility.yul\":490:528   */\n      swap1\n      pop\n        /* \"#utility.yul\":432:534   */\n      swap2\n      swap1\n      pop\n      jump\t// out\n        /* \"#utility.yul\":540:917   */\n    tag_356:\n        /* \"#utility.yul\":628:631   */\n      0x00\n        /* \"#utility.yul\":656:695   */\n      tag_406\n        /* \"#utility.yul\":689:694   */\n      dup3\n        /* \"#utility.yul\":656:695   */\n      tag_352\n      jump\t// in\n    tag_406:\n        /* \"#utility.yul\":711:782   */\n      tag_407\n        /* \"#utility.yul\":775:781   */\n      dup2\n        /* \"#utility.yul\":770:773   */\n      dup6\n        /* \"#utility.yul\":711:782   */\n      tag_353\n      jump\t// in\n    tag_407:\n        /* \"#utility.yul\":704:782   */\n      swap4\n      pop\n        /* \"#utility.yul\":791:856   */\n      tag_408\n        /* \"#utility.yul\":849:855   */\n      dup2\n        /* \"#utility.yul\":844:847   */\n      dup6\n        /* \"#utility.yul\":837:841   */\n      0x20\n        /* \"#utility.yul\":830:835   */\n      dup7\n        /* \"#utility.yul\":826:842   */\n      add\n        /* \"#utility.yul\":791:856   */\n      tag_354\n      jump\t// in\n    tag_408:\n        /* \"#utility.yul\":881:910   */\n      tag_409\n        /* \"#utility.yul\":903:909   */\n      dup2\n        /* \"#utility.yul\":881:910   */\n      tag_355\n      jump\t// in\n    tag_409:\n        /* \"#utility.yul\":876:879   */\n      dup5\n        /* \"#utility.yul\":872:911   */\n      add\n        /* \"#utility.yul\":865:911   */\n      swap2\n      pop\n        /* \"#utility.yul\":632:917   */\n      pop\n        /* \"#utility.yul\":540:917   */\n      swap3\n      swap2\n      pop\n      pop\n      jump\t// out\n        /* \"#utility.yul\":923:1236   */\n    tag_42:\n        /* \"#utility.yul\":1036:1040   */\n      0x00\n        /* \"#utility.yul\":1074:1076   */\n      0x20\n        /* \"#utility.yul\":1063:1072   */\n      dup3\n        /* \"#utility.yul\":1059:1077   */\n      add\n        /* \"#utility.yul\":1051:1077   */\n      swap1\n      pop\n        /* \"#utility.yul\":1123:1132   */\n      dup2\n        /* \"#utility.yul\":1117:1121   */\n      dup2\n        /* \"#utility.yul\":1113:1133   */\n      sub\n        /* \"#utility.yul\":1109:1110   */\n      0x00\n        /* \"#utility.yul\":1098:1107   */\n      dup4\n        /* \"#utility.yul\":1094:1111   */\n      add\n        /* \"#utility.yul\":1087:1134   */\n      mstore\n        /* \"#utility.yul\":1151:1229   */\n      tag_411\n        /* \"#utility.yul\":1224:1228   */\n      dup2\n        /* \"#utility.yul\":1215:1221   */\n      dup5\n        /* \"#utility.yul\":1151:1229   */\n      tag_356\n      jump\t// in\n    tag_411:\n        /* \"#utility.yul\":1143:1229   */\n      swap1\n      pop\n        /* \"#utility.yul\":923:1236   */\n      swap3\n      swap2\n      pop\n      pop\n      jump\t// out\n        /* \"#utility.yul\":1323:1440   */\n    tag_358:\n        /* \"#utility.yul\":1432:1433   */\n      0x00\n        /* \"#utility.yul\":1429:1430   */\n      dup1\n        /* \"#utility.yul\":1422:1434   */\n      revert\n        /* \"#utility.yul\":1446:1563   */\n    tag_359:\n        /* \"#utility.yul\":1555:1556   */\n      0x00\n        /* \"#utility.yul\":1552:1553   */\n      dup1\n        /* \"#utility.yul\":1545:1557   */\n      revert\n        /* \"#utility.yul\":1569:1695   */\n    tag_360:\n        /* \"#utility.yul\":1606:1613   */\n      0x00\n        /* \"#utility.yul\":1646:1688   */\n      0xffffffffffffffffffffffffffffffffffffffff\n        /* \"#utility.yul\":1639:1644   */\n      dup3\n        /* \"#utility.yul\":1635:1689   */\n      and\n        /* \"#utility.yul\":1624:1689   */\n      swap1\n      pop\n        /* \"#utility.yul\":1569:1695   */\n      swap2\n      swap1\n      pop\n      jump\t// out\n        /* \"#utility.yul\":1701:1797   */\n    tag_361:\n        /* \"#utility.yul\":1738:1745   */\n      0x00\n        /* \"#utility.yul\":1767:1791   */\n      tag_417\n        /* \"#utility.yul\":1785:1790   */\n      dup3\n        /* \"#utility.yul\":1767:1791   */\n      tag_360\n      jump\t// in\n    tag_417:\n        /* \"#utility.yul\":1756:1791   */\n      swap1\n      pop\n        /* \"#utility.yul\":1701:1797   */\n      swap2\n      swap1\n      pop\n      jump\t// out\n        /* \"#utility.yul\":1803:1925   */\n    tag_362:\n        /* \"#utility.yul\":1876:1900   */\n      tag_419\n        /* \"#utility.yul\":1894:1899   */\n      dup2\n        /* \"#utility.yul\":1876:1900   */\n      tag_361\n      jump\t// in\n    tag_419:\n        /* \"#utility.yul\":1869:1874   */\n      dup2\n        /* \"#utility.yul\":1866:1901   */\n      eq\n        /* \"#utility.yul\":1856:1919   */\n      tag_420\n      jumpi\n        /* \"#utility.yul\":1915:1916   */\n      0x00\n        /* \"#utility.yul\":1912:1913   */\n      dup1\n        /* \"#utility.yul\":1905:1917   */\n      revert\n        /* \"#utility.yul\":1856:1919   */\n    tag_420:\n        /* \"#utility.yul\":1803:1925   */\n      pop\n      jump\t// out\n        /* \"#utility.yul\":1931:2070   */\n    tag_363:\n        /* \"#utility.yul\":1977:1982   */\n      0x00\n        /* \"#utility.yul\":2015:2021   */\n      dup2\n        /* \"#utility.yul\":2002:2022   */\n      calldataload\n        /* \"#utility.yul\":1993:2022   */\n      swap1\n      pop\n        /* \"#utility.yul\":2031:2064   */\n      tag_422\n        /* \"#utility.yul\":2058:2063   */\n      dup2\n        /* \"#utility.yul\":2031:2064   */\n      tag_362\n      jump\t// in\n    tag_422:\n        /* \"#utility.yul\":1931:2070   */\n      swap3\n      swap2\n      pop\n      pop\n      jump\t// out\n        /* \"#utility.yul\":2076:2153   */\n    tag_364:\n        /* \"#utility.yul\":2113:2120   */\n      0x00\n        /* \"#utility.yul\":2142:2147   */\n      dup2\n        /* \"#utility.yul\":2131:2147   */\n      swap1\n      pop\n        /* \"#utility.yul\":2076:2153   */\n      swap2\n      swap1\n      pop\n      jump\t// out\n        /* \"#utility.yul\":2159:2281   */\n    tag_365:\n        /* \"#utility.yul\":2232:2256   */\n      tag_425\n        /* \"#utility.yul\":2250:2255   */\n      dup2\n        /* \"#utility.yul\":2232:2256   */\n      tag_364\n      jump\t// in\n    tag_425:\n        /* \"#utility.yul\":2225:2230   */\n      dup2\n        /* \"#utility.yul\":2222:2257   */\n      eq\n        /* \"#utility.yul\":2212:2275   */\n      tag_426\n      jumpi\n        /* \"#utility.yul\":2271:2272   */\n      0x00\n        /* \"#utility.yul\":2268:2269   */\n      dup1\n        /* \"#utility.yul\":2261:2273   */\n      revert\n        /* \"#utility.yul\":2212:2275   */\n    tag_426:\n        /* \"#utility.yul\":2159:2281   */\n      pop\n      jump\t// out\n        /* \"#utility.yul\":2287:2426   */\n    tag_366:\n        /* \"#utility.yul\":2333:2338   */\n      0x00\n        /* \"#utility.yul\":2371:2377   */\n      dup2\n        /* \"#utility.yul\":2358:2378   */\n      calldataload\n        /* \"#utility.yul\":2349:2378   */\n      swap1\n      pop\n        /* \"#utility.yul\":2387:2420   */\n      tag_428\n        /* \"#utility.yul\":2414:2419   */\n      dup2\n        /* \"#utility.yul\":2387:2420   */\n      tag_365\n      jump\t// in\n    tag_428:\n        /* \"#utility.yul\":2287:2426   */\n      swap3\n      swap2\n      pop\n      pop\n      jump\t// out\n        /* \"#utility.yul\":2432:2906   */\n    tag_45:\n        /* \"#utility.yul\":2500:2506   */\n      0x00\n        /* \"#utility.yul\":2508:2514   */\n      dup1\n        /* \"#utility.yul\":2557:2559   */\n      0x40\n        /* \"#utility.yul\":2545:2554   */\n      dup4\n        /* \"#utility.yul\":2536:2543   */\n      dup6\n        /* \"#utility.yul\":2532:2555   */\n      sub\n        /* \"#utility.yul\":2528:2560   */\n      slt\n        /* \"#utility.yul\":2525:2644   */\n      iszero\n      tag_430\n      jumpi\n        /* \"#utility.yul\":2563:2642   */\n      tag_431\n      tag_358\n      jump\t// in\n    tag_431:\n        /* \"#utility.yul\":2525:2644   */\n    tag_430:\n        /* \"#utility.yul\":2683:2684   */\n      0x00\n        /* \"#utility.yul\":2708:2761   */\n      tag_432\n        /* \"#utility.yul\":2753:2760   */\n      dup6\n        /* \"#utility.yul\":2744:2750   */\n      dup3\n        /* \"#utility.yul\":2733:2742   */\n      dup7\n        /* \"#utility.yul\":2729:2751   */\n      add\n        /* \"#utility.yul\":2708:2761   */\n      tag_363\n      jump\t// in\n    tag_432:\n        /* \"#utility.yul\":2698:2761   */\n      swap3\n      pop\n        /* \"#utility.yul\":2654:2771   */\n      pop\n        /* \"#utility.yul\":2810:2812   */\n      0x20\n        /* \"#utility.yul\":2836:2889   */\n      tag_433\n        /* \"#utility.yul\":2881:2888   */\n      dup6\n        /* \"#utility.yul\":2872:2878   */\n      dup3\n        /* \"#utility.yul\":2861:2870   */\n      dup7\n        /* \"#utility.yul\":2857:2879   */\n      add\n        /* \"#utility.yul\":2836:2889   */\n      tag_366\n      jump\t// in\n    tag_433:\n        /* \"#utility.yul\":2826:2889   */\n      swap2\n      pop\n        /* \"#utility.yul\":2781:2899   */\n      pop\n        /* \"#utility.yul\":2432:2906   */\n      swap3\n      pop\n      swap3\n      swap1\n      pop\n      jump\t// out\n        /* \"#utility.yul\":2912:3002   */\n    tag_367:\n        /* \"#utility.yul\":2946:2953   */\n      0x00\n        /* \"#utility.yul\":2989:2994   */\n      dup2\n        /* \"#utility.yul\":2982:2995   */\n      iszero\n        /* \"#utility.yul\":2975:2996   */\n      iszero\n        /* \"#utility.yul\":2964:2996   */\n      swap1\n      pop\n        /* \"#utility.yul\":2912:3002   */\n      swap2\n      swap1\n      pop\n      jump\t// out\n        /* \"#utility.yul\":3008:3117   */\n    tag_368:\n        /* \"#utility.yul\":3089:3110   */\n      tag_436\n        /* \"#utility.yul\":3104:3109   */\n      dup2\n        /* \"#utility.yul\":3089:3110   */\n      tag_367\n      jump\t// in\n    tag_436:\n        /* \"#utility.yul\":3084:3087   */\n      dup3\n        /* \"#utility.yul\":3077:3111   */\n      mstore\n        /* \"#utility.yul\":3008:3117   */\n      pop\n      pop\n      jump\t// out\n        /* \"#utility.yul\":3123:3333   */\n    tag_48:\n        /* \"#utility.yul\":3210:3214   */\n      0x00\n        /* \"#utility.yul\":3248:3250   */\n      0x20\n        /* \"#utility.yul\":3237:3246   */\n      dup3\n        /* \"#utility.yul\":3233:3251   */\n      add\n        /* \"#utility.yul\":3225:3251   */\n      swap1\n      pop\n        /* \"#utility.yul\":3261:3326   */\n      tag_438\n        /* \"#utility.yul\":3323:3324   */\n      0x00\n        /* \"#utility.yul\":3312:3321   */\n      dup4\n        /* \"#utility.yul\":3308:3325   */\n      add\n        /* \"#utility.yul\":3299:3305   */\n      dup5\n        /* \"#utility.yul\":3261:3326   */\n      tag_368\n      jump\t// in\n    tag_438:\n        /* \"#utility.yul\":3123:3333   */\n      swap3\n      swap2\n      pop\n      pop\n      jump\t// out\n        /* \"#utility.yul\":3339:3457   */\n    tag_369:\n        /* \"#utility.yul\":3426:3450   */\n      tag_440\n        /* \"#utility.yul\":3444:3449   */\n      dup2\n        /* \"#utility.yul\":3426:3450   */\n      tag_364\n      jump\t// in\n    tag_440:\n        /* \"#utility.yul\":3421:3424   */\n      dup3\n        /* \"#utility.yul\":3414:3451   */\n      mstore\n        /* \"#utility.yul\":3339:3457   */\n      pop\n      pop\n      jump\t// out\n        /* \"#utility.yul\":3463:3685   */\n    tag_52:\n        /* \"#utility.yul\":3556:3560   */\n      0x00\n        /* \"#utility.yul\":3594:3596   */\n      0x20\n        /* \"#utility.yul\":3583:3592   */\n      dup3\n        /* \"#utility.yul\":3579:3597   */\n      add\n        /* \"#utility.yul\":3571:3597   */\n      swap1\n      pop\n        /* \"#utility.yul\":3607:3678   */\n      tag_442\n        /* \"#utility.yul\":3675:3676   */\n      0x00\n        /* \"#utility.yul\":3664:3673   */\n      dup4\n        /* \"#utility.yul\":3660:3677   */\n      add\n        /* \"#utility.yul\":3651:3657   */\n      dup5\n        /* \"#utility.yul\":3607:3678   */\n      tag_369\n      jump\t// in\n    tag_442:\n        /* \"#utility.yul\":3463:3685   */\n      swap3\n      swap2\n      pop\n      pop\n      jump\t// out\n        /* \"#utility.yul\":3691:4310   */\n    tag_55:\n        /* \"#utility.yul\":3768:3774   */\n      0x00\n        /* \"#utility.yul\":3776:3782   */\n      dup1\n        /* \"#utility.yul\":3784:3790   */\n      0x00\n        /* \"#utility.yul\":3833:3835   */\n      0x60\n        /* \"#utility.yul\":3821:3830   */\n      dup5\n        /* \"#utility.yul\":3812:3819   */\n      dup7\n        /* \"#utility.yul\":3808:3831   */\n      sub\n        /* \"#utility.yul\":3804:3836   */\n      slt\n        /* \"#utility.yul\":3801:3920   */\n      iszero\n      tag_444\n      jumpi\n        /* \"#utility.yul\":3839:3918   */\n      tag_445\n      tag_358\n      jump\t// in\n    tag_445:\n        /* \"#utility.yul\":3801:3920   */\n    tag_444:\n        /* \"#utility.yul\":3959:3960   */\n      0x00\n        /* \"#utility.yul\":3984:4037   */\n      tag_446\n        /* \"#utility.yul\":4029:4036   */\n      dup7\n        /* \"#utility.yul\":4020:4026   */\n      dup3\n        /* \"#utility.yul\":4009:4018   */\n      dup8\n        /* \"#utility.yul\":4005:4027   */\n      add\n        /* \"#utility.yul\":3984:4037   */\n      tag_363\n      jump\t// in\n    tag_446:\n        /* \"#utility.yul\":3974:4037   */\n      swap4\n      pop\n        /* \"#utility.yul\":3930:4047   */\n      pop\n        /* \"#utility.yul\":4086:4088   */\n      0x20\n        /* \"#utility.yul\":4112:4165   */\n      tag_447\n        /* \"#utility.yul\":4157:4164   */\n      dup7\n        /* \"#utility.yul\":4148:4154   */\n      dup3\n        /* \"#utility.yul\":4137:4146   */\n      dup8\n        /* \"#utility.yul\":4133:4155   */\n      add\n        /* \"#utility.yul\":4112:4165   */\n      tag_363\n      jump\t// in\n    tag_447:\n        /* \"#utility.yul\":4102:4165   */\n      swap3\n      pop\n        /* \"#utility.yul\":4057:4175   */\n      pop\n        /* \"#utility.yul\":4214:4216   */\n      0x40\n        /* \"#utility.yul\":4240:4293   */\n      tag_448\n        /* \"#utility.yul\":4285:4292   */\n      dup7\n        /* \"#utility.yul\":4276:4282   */\n      dup3\n        /* \"#utility.yul\":4265:4274   */\n      dup8\n        /* \"#utility.yul\":4261:4283   */\n      add\n        /* \"#utility.yul\":4240:4293   */\n      tag_366\n      jump\t// in\n    tag_448:\n        /* \"#utility.yul\":4230:4293   */\n      swap2\n      pop\n        /* \"#utility.yul\":4185:4303   */\n      pop\n        /* \"#utility.yul\":3691:4310   */\n      swap3\n      pop\n      swap3\n      pop\n      swap3\n      jump\t// out\n        /* \"#utility.yul\":4316:4645   */\n    tag_60:\n        /* \"#utility.yul\":4375:4381   */\n      0x00\n        /* \"#utility.yul\":4424:4426   */\n      0x20\n        /* \"#utility.yul\":4412:4421   */\n      dup3\n        /* \"#utility.yul\":4403:4410   */\n      dup5\n        /* \"#utility.yul\":4399:4422   */\n      sub\n        /* \"#utility.yul\":4395:4427   */\n      slt\n        /* \"#utility.yul\":4392:4511   */\n      iszero\n      tag_450\n      jumpi\n        /* \"#utility.yul\":4430:4509   */\n      tag_451\n      tag_358\n      jump\t// in\n    tag_451:\n        /* \"#utility.yul\":4392:4511   */\n    tag_450:\n        /* \"#utility.yul\":4550:4551   */\n      0x00\n        /* \"#utility.yul\":4575:4628   */\n      tag_452\n        /* \"#utility.yul\":4620:4627   */\n      dup5\n        /* \"#utility.yul\":4611:4617   */\n      dup3\n        /* \"#utility.yul\":4600:4609   */\n      dup6\n        /* \"#utility.yul\":4596:4618   */\n      add\n        /* \"#utility.yul\":4575:4628   */\n      tag_363\n      jump\t// in\n    tag_452:\n        /* \"#utility.yul\":4565:4628   */\n      swap2\n      pop\n        /* \"#utility.yul\":4521:4638   */\n      pop\n        /* \"#utility.yul\":4316:4645   */\n      swap3\n      swap2\n      pop\n      pop\n      jump\t// out\n        /* \"#utility.yul\":4651:4737   */\n    tag_370:\n        /* \"#utility.yul\":4686:4693   */\n      0x00\n        /* \"#utility.yul\":4726:4730   */\n      0xff\n        /* \"#utility.yul\":4719:4724   */\n      dup3\n        /* \"#utility.yul\":4715:4731   */\n      and\n        /* \"#utility.yul\":4704:4731   */\n      swap1\n      pop\n        /* \"#utility.yul\":4651:4737   */\n      swap2\n      swap1\n      pop\n      jump\t// out\n        /* \"#utility.yul\":4743:4855   */\n    tag_371:\n        /* \"#utility.yul\":4826:4848   */\n      tag_455\n        /* \"#utility.yul\":4842:4847   */\n      dup2\n        /* \"#utility.yul\":4826:4848   */\n      tag_370\n      jump\t// in\n    tag_455:\n        /* \"#utility.yul\":4821:4824   */\n      dup3\n        /* \"#utility.yul\":4814:4849   */\n      mstore\n        /* \"#utility.yul\":4743:4855   */\n      pop\n      pop\n      jump\t// out\n        /* \"#utility.yul\":4861:5075   */\n    tag_66:\n        /* \"#utility.yul\":4950:4954   */\n      0x00\n        /* \"#utility.yul\":4988:4990   */\n      0x20\n        /* \"#utility.yul\":4977:4986   */\n      dup3\n        /* \"#utility.yul\":4973:4991   */\n      add\n        /* \"#utility.yul\":4965:4991   */\n      swap1\n      pop\n        /* \"#utility.yul\":5001:5068   */\n      tag_457\n        /* \"#utility.yul\":5065:5066   */\n      0x00\n        /* \"#utility.yul\":5054:5063   */\n      dup4\n        /* \"#utility.yul\":5050:5067   */\n      add\n        /* \"#utility.yul\":5041:5047   */\n      dup5\n        /* \"#utility.yul\":5001:5068   */\n      tag_371\n      jump\t// in\n    tag_457:\n        /* \"#utility.yul\":4861:5075   */\n      swap3\n      swap2\n      pop\n      pop\n      jump\t// out\n        /* \"#utility.yul\":5081:5523   */\n    tag_72:\n        /* \"#utility.yul\":5230:5234   */\n      0x00\n        /* \"#utility.yul\":5268:5270   */\n      0x60\n        /* \"#utility.yul\":5257:5266   */\n      dup3\n        /* \"#utility.yul\":5253:5271   */\n      add\n        /* \"#utility.yul\":5245:5271   */\n      swap1\n      pop\n        /* \"#utility.yul\":5281:5352   */\n      tag_459\n        /* \"#utility.yul\":5349:5350   */\n      0x00\n        /* \"#utility.yul\":5338:5347   */\n      dup4\n        /* \"#utility.yul\":5334:5351   */\n      add\n        /* \"#utility.yul\":5325:5331   */\n      dup7\n        /* \"#utility.yul\":5281:5352   */\n      tag_369\n      jump\t// in\n    tag_459:\n        /* \"#utility.yul\":5362:5434   */\n      tag_460\n        /* \"#utility.yul\":5430:5432   */\n      0x20\n        /* \"#utility.yul\":5419:5428   */\n      dup4\n        /* \"#utility.yul\":5415:5433   */\n      add\n        /* \"#utility.yul\":5406:5412   */\n      dup6\n        /* \"#utility.yul\":5362:5434   */\n      tag_369\n      jump\t// in\n    tag_460:\n        /* \"#utility.yul\":5444:5516   */\n      tag_461\n        /* \"#utility.yul\":5512:5514   */\n      0x40\n        /* \"#utility.yul\":5501:5510   */\n      dup4\n        /* \"#utility.yul\":5497:5515   */\n      add\n        /* \"#utility.yul\":5488:5494   */\n      dup5\n        /* \"#utility.yul\":5444:5516   */\n      tag_369\n      jump\t// in\n    tag_461:\n        /* \"#utility.yul\":5081:5523   */\n      swap5\n      swap4\n      pop\n      pop\n      pop\n      pop\n      jump\t// out\n        /* \"#utility.yul\":5529:5646   */\n    tag_372:\n        /* \"#utility.yul\":5638:5639   */\n      0x00\n        /* \"#utility.yul\":5635:5636   */\n      dup1\n        /* \"#utility.yul\":5628:5640   */\n      revert\n        /* \"#utility.yul\":5689:5924   */\n    tag_373:\n        /* \"#utility.yul\":5766:5771   */\n      0x00\n        /* \"#utility.yul\":5807:5809   */\n      0x60\n        /* \"#utility.yul\":5798:5804   */\n      dup3\n        /* \"#utility.yul\":5793:5796   */\n      dup5\n        /* \"#utility.yul\":5789:5805   */\n      sub\n        /* \"#utility.yul\":5785:5810   */\n      slt\n        /* \"#utility.yul\":5782:5894   */\n      iszero\n      tag_464\n      jumpi\n        /* \"#utility.yul\":5813:5892   */\n      tag_465\n      tag_372\n      jump\t// in\n    tag_465:\n        /* \"#utility.yul\":5782:5894   */\n    tag_464:\n        /* \"#utility.yul\":5912:5918   */\n      dup2\n        /* \"#utility.yul\":5903:5918   */\n      swap1\n      pop\n        /* \"#utility.yul\":5689:5924   */\n      swap3\n      swap2\n      pop\n      pop\n      jump\t// out\n        /* \"#utility.yul\":5930:6321   */\n    tag_86:\n        /* \"#utility.yul\":6020:6026   */\n      0x00\n        /* \"#utility.yul\":6069:6071   */\n      0x60\n        /* \"#utility.yul\":6057:6066   */\n      dup3\n        /* \"#utility.yul\":6048:6055   */\n      dup5\n        /* \"#utility.yul\":6044:6067   */\n      sub\n        /* \"#utility.yul\":6040:6072   */\n      slt\n        /* \"#utility.yul\":6037:6156   */\n      iszero\n      tag_467\n      jumpi\n        /* \"#utility.yul\":6075:6154   */\n      tag_468\n      tag_358\n      jump\t// in\n    tag_468:\n        /* \"#utility.yul\":6037:6156   */\n    tag_467:\n        /* \"#utility.yul\":6195:6196   */\n      0x00\n        /* \"#utility.yul\":6220:6304   */\n      tag_469\n        /* \"#utility.yul\":6296:6303   */\n      dup5\n        /* \"#utility.yul\":6287:6293   */\n      dup3\n        /* \"#utility.yul\":6276:6285   */\n      dup6\n        /* \"#utility.yul\":6272:6294   */\n      add\n        /* \"#utility.yul\":6220:6304   */\n      tag_373\n      jump\t// in\n    tag_469:\n        /* \"#utility.yul\":6210:6304   */\n      swap2\n      pop\n        /* \"#utility.yul\":6166:6314   */\n      pop\n        /* \"#utility.yul\":5930:6321   */\n      swap3\n      swap2\n      pop\n      pop\n      jump\t// out\n        /* \"#utility.yul\":6327:6444   */\n    tag_374:\n        /* \"#utility.yul\":6436:6437   */\n      0x00\n        /* \"#utility.yul\":6433:6434   */\n      dup1\n        /* \"#utility.yul\":6426:6438   */\n      revert\n        /* \"#utility.yul\":6450:6567   */\n    tag_375:\n        /* \"#utility.yul\":6559:6560   */\n      0x00\n        /* \"#utility.yul\":6556:6557   */\n      dup1\n        /* \"#utility.yul\":6549:6561   */\n      revert\n        /* \"#utility.yul\":6573:6690   */\n    tag_376:\n        /* \"#utility.yul\":6682:6683   */\n      0x00\n        /* \"#utility.yul\":6679:6680   */\n      dup1\n        /* \"#utility.yul\":6672:6684   */\n      revert\n        /* \"#utility.yul\":6710:7263   */\n    tag_377:\n        /* \"#utility.yul\":6768:6776   */\n      0x00\n        /* \"#utility.yul\":6778:6784   */\n      dup1\n        /* \"#utility.yul\":6828:6831   */\n      dup4\n        /* \"#utility.yul\":6821:6825   */\n      0x1f\n        /* \"#utility.yul\":6813:6819   */\n      dup5\n        /* \"#utility.yul\":6809:6826   */\n      add\n        /* \"#utility.yul\":6805:6832   */\n      slt\n        /* \"#utility.yul\":6795:6917   */\n      tag_474\n      jumpi\n        /* \"#utility.yul\":6836:6915   */\n      tag_475\n      tag_374\n      jump\t// in\n    tag_475:\n        /* \"#utility.yul\":6795:6917   */\n    tag_474:\n        /* \"#utility.yul\":6949:6955   */\n      dup3\n        /* \"#utility.yul\":6936:6956   */\n      calldataload\n        /* \"#utility.yul\":6926:6956   */\n      swap1\n      pop\n        /* \"#utility.yul\":6979:6997   */\n      0xffffffffffffffff\n        /* \"#utility.yul\":6971:6977   */\n      dup2\n        /* \"#utility.yul\":6968:6998   */\n      gt\n        /* \"#utility.yul\":6965:7082   */\n      iszero\n      tag_476\n      jumpi\n        /* \"#utility.yul\":7001:7080   */\n      tag_477\n      tag_375\n      jump\t// in\n    tag_477:\n        /* \"#utility.yul\":6965:7082   */\n    tag_476:\n        /* \"#utility.yul\":7115:7119   */\n      0x20\n        /* \"#utility.yul\":7107:7113   */\n      dup4\n        /* \"#utility.yul\":7103:7120   */\n      add\n        /* \"#utility.yul\":7091:7120   */\n      swap2\n      pop\n        /* \"#utility.yul\":7169:7172   */\n      dup4\n        /* \"#utility.yul\":7161:7165   */\n      0x01\n        /* \"#utility.yul\":7153:7159   */\n      dup3\n        /* \"#utility.yul\":7149:7166   */\n      mul\n        /* \"#utility.yul\":7139:7147   */\n      dup4\n        /* \"#utility.yul\":7135:7167   */\n      add\n        /* \"#utility.yul\":7132:7173   */\n      gt\n        /* \"#utility.yul\":7129:7257   */\n      iszero\n      tag_478\n      jumpi\n        /* \"#utility.yul\":7176:7255   */\n      tag_479\n      tag_376\n      jump\t// in\n    tag_479:\n        /* \"#utility.yul\":7129:7257   */\n    tag_478:\n        /* \"#utility.yul\":6710:7263   */\n      swap3\n      pop\n      swap3\n      swap1\n      pop\n      jump\t// out\n        /* \"#utility.yul\":7269:7943   */\n    tag_90:\n        /* \"#utility.yul\":7349:7355   */\n      0x00\n        /* \"#utility.yul\":7357:7363   */\n      dup1\n        /* \"#utility.yul\":7365:7371   */\n      0x00\n        /* \"#utility.yul\":7414:7416   */\n      0x40\n        /* \"#utility.yul\":7402:7411   */\n      dup5\n        /* \"#utility.yul\":7393:7400   */\n      dup7\n        /* \"#utility.yul\":7389:7412   */\n      sub\n        /* \"#utility.yul\":7385:7417   */\n      slt\n        /* \"#utility.yul\":7382:7501   */\n      iszero\n      tag_481\n      jumpi\n        /* \"#utility.yul\":7420:7499   */\n      tag_482\n      tag_358\n      jump\t// in\n    tag_482:\n        /* \"#utility.yul\":7382:7501   */\n    tag_481:\n        /* \"#utility.yul\":7568:7569   */\n      0x00\n        /* \"#utility.yul\":7557:7566   */\n      dup5\n        /* \"#utility.yul\":7553:7570   */\n      add\n        /* \"#utility.yul\":7540:7571   */\n      calldataload\n        /* \"#utility.yul\":7598:7616   */\n      0xffffffffffffffff\n        /* \"#utility.yul\":7590:7596   */\n      dup2\n        /* \"#utility.yul\":7587:7617   */\n      gt\n        /* \"#utility.yul\":7584:7701   */\n      iszero\n      tag_483\n      jumpi\n        /* \"#utility.yul\":7620:7699   */\n      tag_484\n      tag_359\n      jump\t// in\n    tag_484:\n        /* \"#utility.yul\":7584:7701   */\n    tag_483:\n        /* \"#utility.yul\":7733:7798   */\n      tag_485\n        /* \"#utility.yul\":7790:7797   */\n      dup7\n        /* \"#utility.yul\":7781:7787   */\n      dup3\n        /* \"#utility.yul\":7770:7779   */\n      dup8\n        /* \"#utility.yul\":7766:7788   */\n      add\n        /* \"#utility.yul\":7733:7798   */\n      tag_377\n      jump\t// in\n    tag_485:\n        /* \"#utility.yul\":7715:7798   */\n      swap4\n      pop\n      swap4\n      pop\n        /* \"#utility.yul\":7511:7808   */\n      pop\n        /* \"#utility.yul\":7847:7849   */\n      0x20\n        /* \"#utility.yul\":7873:7926   */\n      tag_486\n        /* \"#utility.yul\":7918:7925   */\n      dup7\n        /* \"#utility.yul\":7909:7915   */\n      dup3\n        /* \"#utility.yul\":7898:7907   */\n      dup8\n        /* \"#utility.yul\":7894:7916   */\n      add\n        /* \"#utility.yul\":7873:7926   */\n      tag_363\n      jump\t// in\n    tag_486:\n        /* \"#utility.yul\":7863:7926   */\n      swap2\n      pop\n        /* \"#utility.yul\":7818:7936   */\n      pop\n        /* \"#utility.yul\":7269:7943   */\n      swap3\n      pop\n      swap3\n      pop\n      swap3\n      jump\t// out\n        /* \"#utility.yul\":7949:8067   */\n    tag_378:\n        /* \"#utility.yul\":8036:8060   */\n      tag_488\n        /* \"#utility.yul\":8054:8059   */\n      dup2\n        /* \"#utility.yul\":8036:8060   */\n      tag_361\n      jump\t// in\n    tag_488:\n        /* \"#utility.yul\":8031:8034   */\n      dup3\n        /* \"#utility.yul\":8024:8061   */\n      mstore\n        /* \"#utility.yul\":7949:8067   */\n      pop\n      pop\n      jump\t// out\n        /* \"#utility.yul\":8073:8295   */\n    tag_95:\n        /* \"#utility.yul\":8166:8170   */\n      0x00\n        /* \"#utility.yul\":8204:8206   */\n      0x20\n        /* \"#utility.yul\":8193:8202   */\n      dup3\n        /* \"#utility.yul\":8189:8207   */\n      add\n        /* \"#utility.yul\":8181:8207   */\n      swap1\n      pop\n        /* \"#utility.yul\":8217:8288   */\n      tag_490\n        /* \"#utility.yul\":8285:8286   */\n      0x00\n        /* \"#utility.yul\":8274:8283   */\n      dup4\n        /* \"#utility.yul\":8270:8287   */\n      add\n        /* \"#utility.yul\":8261:8267   */\n      dup5\n        /* \"#utility.yul\":8217:8288   */\n      tag_378\n      jump\t// in\n    tag_490:\n        /* \"#utility.yul\":8073:8295   */\n      swap3\n      swap2\n      pop\n      pop\n      jump\t// out\n        /* \"#utility.yul\":8301:8975   */\n    tag_119:\n        /* \"#utility.yul\":8381:8387   */\n      0x00\n        /* \"#utility.yul\":8389:8395   */\n      dup1\n        /* \"#utility.yul\":8397:8403   */\n      0x00\n        /* \"#utility.yul\":8446:8448   */\n      0x40\n        /* \"#utility.yul\":8434:8443   */\n      dup5\n        /* \"#utility.yul\":8425:8432   */\n      dup7\n        /* \"#utility.yul\":8421:8444   */\n      sub\n        /* \"#utility.yul\":8417:8449   */\n      slt\n        /* \"#utility.yul\":8414:8533   */\n      iszero\n      tag_492\n      jumpi\n        /* \"#utility.yul\":8452:8531   */\n      tag_493\n      tag_358\n      jump\t// in\n    tag_493:\n        /* \"#utility.yul\":8414:8533   */\n    tag_492:\n        /* \"#utility.yul\":8572:8573   */\n      0x00\n        /* \"#utility.yul\":8597:8650   */\n      tag_494\n        /* \"#utility.yul\":8642:8649   */\n      dup7\n        /* \"#utility.yul\":8633:8639   */\n      dup3\n        /* \"#utility.yul\":8622:8631   */\n      dup8\n        /* \"#utility.yul\":8618:8640   */\n      add\n        /* \"#utility.yul\":8597:8650   */\n      tag_363\n      jump\t// in\n    tag_494:\n        /* \"#utility.yul\":8587:8650   */\n      swap4\n      pop\n        /* \"#utility.yul\":8543:8660   */\n      pop\n        /* \"#utility.yul\":8727:8729   */\n      0x20\n        /* \"#utility.yul\":8716:8725   */\n      dup5\n        /* \"#utility.yul\":8712:8730   */\n      add\n        /* \"#utility.yul\":8699:8731   */\n      calldataload\n        /* \"#utility.yul\":8758:8776   */\n      0xffffffffffffffff\n        /* \"#utility.yul\":8750:8756   */\n      dup2\n        /* \"#utility.yul\":8747:8777   */\n      gt\n        /* \"#utility.yul\":8744:8861   */\n      iszero\n      tag_495\n      jumpi\n        /* \"#utility.yul\":8780:8859   */\n      tag_496\n      tag_359\n      jump\t// in\n    tag_496:\n        /* \"#utility.yul\":8744:8861   */\n    tag_495:\n        /* \"#utility.yul\":8893:8958   */\n      tag_497\n        /* \"#utility.yul\":8950:8957   */\n      dup7\n        /* \"#utility.yul\":8941:8947   */\n      dup3\n        /* \"#utility.yul\":8930:8939   */\n      dup8\n        /* \"#utility.yul\":8926:8948   */\n      add\n        /* \"#utility.yul\":8893:8958   */\n      tag_377\n      jump\t// in\n    tag_497:\n        /* \"#utility.yul\":8875:8958   */\n      swap3\n      pop\n      swap3\n      pop\n        /* \"#utility.yul\":8670:8968   */\n      pop\n        /* \"#utility.yul\":8301:8975   */\n      swap3\n      pop\n      swap3\n      pop\n      swap3\n      jump\t// out\n        /* \"#utility.yul\":8981:9310   */\n    tag_128:\n        /* \"#utility.yul\":9040:9046   */\n      0x00\n        /* \"#utility.yul\":9089:9091   */\n      0x20\n        /* \"#utility.yul\":9077:9086   */\n      dup3\n        /* \"#utility.yul\":9068:9075   */\n      dup5\n        /* \"#utility.yul\":9064:9087   */\n      sub\n        /* \"#utility.yul\":9060:9092   */\n      slt\n        /* \"#utility.yul\":9057:9176   */\n      iszero\n      tag_499\n      jumpi\n        /* \"#utility.yul\":9095:9174   */\n      tag_500\n      tag_358\n      jump\t// in\n    tag_500:\n        /* \"#utility.yul\":9057:9176   */\n    tag_499:\n        /* \"#utility.yul\":9215:9216   */\n      0x00\n        /* \"#utility.yul\":9240:9293   */\n      tag_501\n        /* \"#utility.yul\":9285:9292   */\n      dup5\n        /* \"#utility.yul\":9276:9282   */\n      dup3\n        /* \"#utility.yul\":9265:9274   */\n      dup6\n        /* \"#utility.yul\":9261:9283   */\n      add\n        /* \"#utility.yul\":9240:9293   */\n      tag_366\n      jump\t// in\n    tag_501:\n        /* \"#utility.yul\":9230:9293   */\n      swap2\n      pop\n        /* \"#utility.yul\":9186:9303   */\n      pop\n        /* \"#utility.yul\":8981:9310   */\n      swap3\n      swap2\n      pop\n      pop\n      jump\t// out\n        /* \"#utility.yul\":9316:9790   */\n    tag_135:\n        /* \"#utility.yul\":9384:9390   */\n      0x00\n        /* \"#utility.yul\":9392:9398   */\n      dup1\n        /* \"#utility.yul\":9441:9443   */\n      0x40\n        /* \"#utility.yul\":9429:9438   */\n      dup4\n        /* \"#utility.yul\":9420:9427   */\n      dup6\n        /* \"#utility.yul\":9416:9439   */\n      sub\n        /* \"#utility.yul\":9412:9444   */\n      slt\n        /* \"#utility.yul\":9409:9528   */\n      iszero\n      tag_503\n      jumpi\n        /* \"#utility.yul\":9447:9526   */\n      tag_504\n      tag_358\n      jump\t// in\n    tag_504:\n        /* \"#utility.yul\":9409:9528   */\n    tag_503:\n        /* \"#utility.yul\":9567:9568   */\n      0x00\n        /* \"#utility.yul\":9592:9645   */\n      tag_505\n        /* \"#utility.yul\":9637:9644   */\n      dup6\n        /* \"#utility.yul\":9628:9634   */\n      dup3\n        /* \"#utility.yul\":9617:9626   */\n      dup7\n        /* \"#utility.yul\":9613:9635   */\n      add\n        /* \"#utility.yul\":9592:9645   */\n      tag_363\n      jump\t// in\n    tag_505:\n        /* \"#utility.yul\":9582:9645   */\n      swap3\n      pop\n        /* \"#utility.yul\":9538:9655   */\n      pop\n        /* \"#utility.yul\":9694:9696   */\n      0x20\n        /* \"#utility.yul\":9720:9773   */\n      tag_506\n        /* \"#utility.yul\":9765:9772   */\n      dup6\n        /* \"#utility.yul\":9756:9762   */\n      dup3\n        /* \"#utility.yul\":9745:9754   */\n      dup7\n        /* \"#utility.yul\":9741:9763   */\n      add\n        /* \"#utility.yul\":9720:9773   */\n      tag_363\n      jump\t// in\n    tag_506:\n        /* \"#utility.yul\":9710:9773   */\n      swap2\n      pop\n        /* \"#utility.yul\":9665:9783   */\n      pop\n        /* \"#utility.yul\":9316:9790   */\n      swap3\n      pop\n      swap3\n      swap1\n      pop\n      jump\t// out\n        /* \"#utility.yul\":9796:9976   */\n    tag_379:\n        /* \"#utility.yul\":9844:9921   */\n      0x4e487b7100000000000000000000000000000000000000000000000000000000\n        /* \"#utility.yul\":9841:9842   */\n      0x00\n        /* \"#utility.yul\":9834:9922   */\n      mstore\n        /* \"#utility.yul\":9941:9945   */\n      0x22\n        /* \"#utility.yul\":9938:9939   */\n      0x04\n        /* \"#utility.yul\":9931:9946   */\n      mstore\n        /* \"#utility.yul\":9965:9969   */\n      0x24\n        /* \"#utility.yul\":9962:9963   */\n      0x00\n        /* \"#utility.yul\":9955:9970   */\n      revert\n        /* \"#utility.yul\":9982:10302   */\n    tag_146:\n        /* \"#utility.yul\":10026:10032   */\n      0x00\n        /* \"#utility.yul\":10063:10064   */\n      0x02\n        /* \"#utility.yul\":10057:10061   */\n      dup3\n        /* \"#utility.yul\":10053:10065   */\n      div\n        /* \"#utility.yul\":10043:10065   */\n      swap1\n      pop\n        /* \"#utility.yul\":10110:10111   */\n      0x01\n        /* \"#utility.yul\":10104:10108   */\n      dup3\n        /* \"#utility.yul\":10100:10112   */\n      and\n        /* \"#utility.yul\":10131:10149   */\n      dup1\n        /* \"#utility.yul\":10121:10202   */\n      tag_509\n      jumpi\n        /* \"#utility.yul\":10187:10191   */\n      0x7f\n        /* \"#utility.yul\":10179:10185   */\n      dup3\n        /* \"#utility.yul\":10175:10192   */\n      and\n        /* \"#utility.yul\":10165:10192   */\n      swap2\n      pop\n        /* \"#utility.yul\":10121:10202   */\n    tag_509:\n        /* \"#utility.yul\":10249:10251   */\n      0x20\n        /* \"#utility.yul\":10241:10247   */\n      dup3\n        /* \"#utility.yul\":10238:10252   */\n      lt\n        /* \"#utility.yul\":10218:10236   */\n      dup2\n        /* \"#utility.yul\":10215:10253   */\n      sub\n        /* \"#utility.yul\":10212:10296   */\n      tag_510\n      jumpi\n        /* \"#utility.yul\":10268:10286   */\n      tag_511\n      tag_379\n      jump\t// in\n    tag_511:\n        /* \"#utility.yul\":10212:10296   */\n    tag_510:\n        /* \"#utility.yul\":10033:10302   */\n      pop\n        /* \"#utility.yul\":9982:10302   */\n      swap2\n      swap1\n      pop\n      jump\t// out\n        /* \"#utility.yul\":10494:10680   */\n    tag_381:\n        /* \"#utility.yul\":10539:10550   */\n      0x00\n        /* \"#utility.yul\":10588:10591   */\n      dup2\n        /* \"#utility.yul\":10575:10592   */\n      calldataload\n        /* \"#utility.yul\":10601:10634   */\n      tag_514\n        /* \"#utility.yul\":10628:10633   */\n      dup2\n        /* \"#utility.yul\":10601:10634   */\n      tag_365\n      jump\t// in\n    tag_514:\n        /* \"#utility.yul\":10668:10673   */\n      dup1\n        /* \"#utility.yul\":10644:10673   */\n      swap2\n      pop\n        /* \"#utility.yul\":10551:10680   */\n      pop\n        /* \"#utility.yul\":10494:10680   */\n      swap2\n      swap1\n      pop\n      jump\t// out\n        /* \"#utility.yul\":10686:10778   */\n    tag_382:\n        /* \"#utility.yul\":10718:10726   */\n      0x00\n        /* \"#utility.yul\":10765:10770   */\n      dup2\n        /* \"#utility.yul\":10762:10763   */\n      0x00\n        /* \"#utility.yul\":10758:10771   */\n      shl\n        /* \"#utility.yul\":10737:10771   */\n      swap1\n      pop\n        /* \"#utility.yul\":10686:10778   */\n      swap2\n      swap1\n      pop\n      jump\t// out\n        /* \"#utility.yul\":10784:11074   */\n    tag_383:\n        /* \"#utility.yul\":10842:10848   */\n      0x00\n        /* \"#utility.yul\":10871:10937   */\n      0xffffffffffffffffffffffffffffffffffffffffffffffffffffffffffffffff\n        /* \"#utility.yul\":10958:10980   */\n      tag_517\n        /* \"#utility.yul\":10971:10979   */\n      dup5\n        /* \"#utility.yul\":10958:10980   */\n      tag_382\n      jump\t// in\n    tag_517:\n        /* \"#utility.yul\":10946:10980   */\n      swap4\n      pop\n        /* \"#utility.yul\":11013:11017   */\n      dup1\n        /* \"#utility.yul\":11009:11018   */\n      not\n        /* \"#utility.yul\":11002:11007   */\n      dup4\n        /* \"#utility.yul\":10998:11019   */\n      and\n        /* \"#utility.yul\":10989:11019   */\n      swap3\n      pop\n        /* \"#utility.yul\":11062:11066   */\n      dup1\n        /* \"#utility.yul\":11052:11060   */\n      dup5\n        /* \"#utility.yul\":11048:11067   */\n      and\n        /* \"#utility.yul\":11041:11046   */\n      dup4\n        /* \"#utility.yul\":11038:11068   */\n      or\n        /* \"#utility.yul\":11028:11068   */\n      swap2\n      pop\n        /* \"#utility.yul\":10849:11074   */\n      pop\n        /* \"#utility.yul\":10784:11074   */\n      swap3\n      swap2\n      pop\n      pop\n      jump\t// out\n        /* \"#utility.yul\":11080:11140   */\n    tag_384:\n        /* \"#utility.yul\":11108:11111   */\n      0x00\n        /* \"#utility.yul\":11129:11134   */\n      dup2\n        /* \"#utility.yul\":11122:11134   */\n      swap1\n      pop\n        /* \"#utility.yul\":11080:11140   */\n      swap2\n      swap1\n      pop\n      jump\t// out\n        /* \"#utility.yul\":11146:11288   */\n    tag_385:\n        /* \"#utility.yul\":11196:11205   */\n      0x00\n        /* \"#utility.yul\":11229:11282   */\n      tag_520\n        /* \"#utility.yul\":11247:11281   */\n      tag_521\n        /* \"#utility.yul\":11256:11280   */\n      tag_522\n        /* \"#utility.yul\":11274:11279   */\n      dup5\n        /* \"#utility.yul\":11256:11280   */\n      tag_364\n      jump\t// in\n    tag_522:\n        /* \"#utility.yul\":11247:11281   */\n      tag_384\n      jump\t// in\n    tag_521:\n        /* \"#utility.yul\":11229:11282   */\n      tag_364\n      jump\t// in\n    tag_520:\n        /* \"#utility.yul\":11216:11282   */\n      swap1\n      pop\n        /* \"#utility.yul\":11146:11288   */\n      swap2\n      swap1\n      pop\n      jump\t// out\n        /* \"#utility.yul\":11294:11369   */\n    tag_386:\n        /* \"#utility.yul\":11337:11340   */\n      0x00\n        /* \"#utility.yul\":11358:11363   */\n      dup2\n        /* \"#utility.yul\":11351:11363   */\n      swap1\n      pop\n        /* \"#utility.yul\":11294:11369   */\n      swap2\n      swap1\n      pop\n      jump\t// out\n        /* \"#utility.yul\":11375:11637   */\n    tag_387:\n        /* \"#utility.yul\":11485:11524   */\n      tag_525\n        /* \"#utility.yul\":11516:11523   */\n      dup3\n        /* \"#utility.yul\":11485:11524   */\n      tag_385\n      jump\t// in\n    tag_525:\n        /* \"#utility.yul\":11546:11630   */\n      tag_526\n        /* \"#utility.yul\":11588:11629   */\n      tag_527\n        /* \"#utility.yul\":11612:11628   */\n      dup3\n        /* \"#utility.yul\":11588:11629   */\n      tag_386\n      jump\t// in\n    tag_527:\n        /* \"#utility.yul\":11581:11585   */\n      dup4\n        /* \"#utility.yul\":11575:11586   */\n      sload\n        /* \"#utility.yul\":11546:11630   */\n      tag_383\n      jump\t// in\n    tag_526:\n        /* \"#utility.yul\":11540:11544   */\n      dup3\n        /* \"#utility.yul\":11533:11631   */\n      sstore\n        /* \"#utility.yul\":11451:11637   */\n      pop\n        /* \"#utility.yul\":11375:11637   */\n      pop\n      pop\n      jump\t// out\n        /* \"#utility.yul\":11643:12794   */\n    tag_388:\n        /* \"#utility.yul\":11827:11828   */\n      0x00\n        /* \"#utility.yul\":11821:11825   */\n      dup2\n        /* \"#utility.yul\":11817:11829   */\n      add\n        /* \"#utility.yul\":11873:11874   */\n      0x00\n        /* \"#utility.yul\":11866:11871   */\n      dup4\n        /* \"#utility.yul\":11862:11875   */\n      add\n        /* \"#utility.yul\":11923:11935   */\n      dup1\n        /* \"#utility.yul\":11966:12008   */\n      tag_529\n        /* \"#utility.yul\":11994:12007   */\n      dup2\n        /* \"#utility.yul\":11966:12008   */\n      tag_381\n      jump\t// in\n    tag_529:\n        /* \"#utility.yul\":11949:12008   */\n      swap1\n      pop\n        /* \"#utility.yul\":12022:12100   */\n      tag_530\n        /* \"#utility.yul\":12086:12099   */\n      dup2\n        /* \"#utility.yul\":12074:12084   */\n      dup5\n        /* \"#utility.yul\":12022:12100   */\n      tag_387\n      jump\t// in\n    tag_530:\n        /* \"#utility.yul\":11784:12111   */\n      pop\n      pop\n      pop\n        /* \"#utility.yul\":12164:12165   */\n      0x01\n        /* \"#utility.yul\":12158:12162   */\n      dup2\n        /* \"#utility.yul\":12154:12166   */\n      add\n        /* \"#utility.yul\":12210:12212   */\n      0x20\n        /* \"#utility.yul\":12203:12208   */\n      dup4\n        /* \"#utility.yul\":12199:12213   */\n      add\n        /* \"#utility.yul\":12261:12273   */\n      dup1\n        /* \"#utility.yul\":12304:12346   */\n      tag_531\n        /* \"#utility.yul\":12332:12345   */\n      dup2\n        /* \"#utility.yul\":12304:12346   */\n      tag_381\n      jump\t// in\n    tag_531:\n        /* \"#utility.yul\":12287:12346   */\n      swap1\n      pop\n        /* \"#utility.yul\":12360:12438   */\n      tag_532\n        /* \"#utility.yul\":12424:12437   */\n      dup2\n        /* \"#utility.yul\":12412:12422   */\n      dup5\n        /* \"#utility.yul\":12360:12438   */\n      tag_387\n      jump\t// in\n    tag_532:\n        /* \"#utility.yul\":12121:12449   */\n      pop\n      pop\n      pop\n        /* \"#utility.yul\":12502:12503   */\n      0x02\n        /* \"#utility.yul\":12496:12500   */\n      dup2\n        /* \"#utility.yul\":12492:12504   */\n      add\n        /* \"#utility.yul\":12548:12550   */\n      0x40\n        /* \"#utility.yul\":12541:12546   */\n      dup4\n        /* \"#utility.yul\":12537:12551   */\n      add\n        /* \"#utility.yul\":12599:12611   */\n      dup1\n        /* \"#utility.yul\":12642:12684   */\n      tag_533\n        /* \"#utility.yul\":12670:12683   */\n      dup2\n        /* \"#utility.yul\":12642:12684   */\n      tag_381\n      jump\t// in\n    tag_533:\n        /* \"#utility.yul\":12625:12684   */\n      swap1\n      pop\n        /* \"#utility.yul\":12698:12776   */\n      tag_534\n        /* \"#utility.yul\":12762:12775   */\n      dup2\n        /* \"#utility.yul\":12750:12760   */\n      dup5\n        /* \"#utility.yul\":12698:12776   */\n      tag_387\n      jump\t// in\n    tag_534:\n        /* \"#utility.yul\":12459:12787   */\n      pop\n      pop\n      pop\n        /* \"#utility.yul\":11643:12794   */\n      pop\n      pop\n      jump\t// out\n        /* \"#utility.yul\":12800:13072   */\n    tag_186:\n        /* \"#utility.yul\":12944:13066   */\n      tag_536\n        /* \"#utility.yul\":13058:13065   */\n      dup3\n        /* \"#utility.yul\":13052:13056   */\n      dup3\n        /* \"#utility.yul\":12944:13066   */\n      tag_388\n      jump\t// in\n    tag_536:\n        /* \"#utility.yul\":12800:13072   */\n      pop\n      pop\n      jump\t// out\n        /* \"#utility.yul\":13078:13225   */\n    tag_389:\n        /* \"#utility.yul\":13179:13190   */\n      0x00\n        /* \"#utility.yul\":13216:13219   */\n      dup2\n        /* \"#utility.yul\":13201:13219   */\n      swap1\n      pop\n        /* \"#utility.yul\":13078:13225   */\n      swap3\n      swap2\n      pop\n      pop\n      jump\t// out\n        /* \"#utility.yul\":13231:13379   */\n    tag_390:\n        /* \"#utility.yul\":13329:13335   */\n      dup3\n        /* \"#utility.yul\":13324:13327   */\n      dup2\n        /* \"#utility.yul\":13319:13322   */\n      dup4\n        /* \"#utility.yul\":13306:13336   */\n      calldatacopy\n        /* \"#utility.yul\":13370:13371   */\n      0x00\n        /* \"#utility.yul\":13361:13367   */\n      dup4\n        /* \"#utility.yul\":13356:13359   */\n      dup4\n        /* \"#utility.yul\":13352:13368   */\n      add\n        /* \"#utility.yul\":13345:13372   */\n      mstore\n        /* \"#utility.yul\":13231:13379   */\n      pop\n      pop\n      pop\n      jump\t// out\n        /* \"#utility.yul\":13407:13734   */\n    tag_391:\n        /* \"#utility.yul\":13521:13524   */\n      0x00\n        /* \"#utility.yul\":13542:13630   */\n      tag_540\n        /* \"#utility.yul\":13623:13629   */\n      dup4\n        /* \"#utility.yul\":13618:13621   */\n      dup6\n        /* \"#utility.yul\":13542:13630   */\n      tag_389\n      jump\t// in\n    tag_540:\n        /* \"#utility.yul\":13535:13630   */\n      swap4\n      pop\n        /* \"#utility.yul\":13640:13696   */\n      tag_541\n        /* \"#utility.yul\":13689:13695   */\n      dup4\n        /* \"#utility.yul\":13684:13687   */\n      dup6\n        /* \"#utility.yul\":13677:13682   */\n      dup5\n        /* \"#utility.yul\":13640:13696   */\n      tag_390\n      jump\t// in\n    tag_541:\n        /* \"#utility.yul\":13721:13727   */\n      dup3\n        /* \"#utility.yul\":13716:13719   */\n      dup5\n        /* \"#utility.yul\":13712:13728   */\n      add\n        /* \"#utility.yul\":13705:13728   */\n      swap1\n      pop\n        /* \"#utility.yul\":13407:13734   */\n      swap4\n      swap3\n      pop\n      pop\n      pop\n      jump\t// out\n        /* \"#utility.yul\":13740:14031   */\n    tag_193:\n        /* \"#utility.yul\":13880:13883   */\n      0x00\n        /* \"#utility.yul\":13902:14005   */\n      tag_543\n        /* \"#utility.yul\":14001:14004   */\n      dup3\n        /* \"#utility.yul\":13992:13998   */\n      dup5\n        /* \"#utility.yul\":13984:13990   */\n      dup7\n        /* \"#utility.yul\":13902:14005   */\n      tag_391\n      jump\t// in\n    tag_543:\n        /* \"#utility.yul\":13895:14005   */\n      swap2\n      pop\n        /* \"#utility.yul\":14022:14025   */\n      dup2\n        /* \"#utility.yul\":14015:14025   */\n      swap1\n      pop\n        /* \"#utility.yul\":13740:14031   */\n      swap4\n      swap3\n      pop\n      pop\n      pop\n      jump\t// out\n        /* \"#utility.yul\":14061:14378   */\n    tag_392:\n        /* \"#utility.yul\":14159:14162   */\n      0x00\n        /* \"#utility.yul\":14180:14251   */\n      tag_545\n        /* \"#utility.yul\":14244:14250   */\n      dup4\n        /* \"#utility.yul\":14239:14242   */\n      dup6\n        /* \"#utility.yul\":14180:14251   */\n      tag_353\n      jump\t// in\n    tag_545:\n        /* \"#utility.yul\":14173:14251   */\n      swap4\n      pop\n        /* \"#utility.yul\":14261:14317   */\n      tag_546\n        /* \"#utility.yul\":14310:14316   */\n      dup4\n        /* \"#utility.yul\":14305:14308   */\n      dup6\n        /* \"#utility.yul\":14298:14303   */\n      dup5\n        /* \"#utility.yul\":14261:14317   */\n      tag_390\n      jump\t// in\n    tag_546:\n        /* \"#utility.yul\":14342:14371   */\n      tag_547\n        /* \"#utility.yul\":14364:14370   */\n      dup4\n        /* \"#utility.yul\":14342:14371   */\n      tag_355\n      jump\t// in\n    tag_547:\n        /* \"#utility.yul\":14337:14340   */\n      dup5\n        /* \"#utility.yul\":14333:14372   */\n      add\n        /* \"#utility.yul\":14326:14372   */\n      swap1\n      pop\n        /* \"#utility.yul\":14061:14378   */\n      swap4\n      swap3\n      pop\n      pop\n      pop\n      jump\t// out\n        /* \"#utility.yul\":14384:14827   */\n    tag_200:\n        /* \"#utility.yul\":14535:14539   */\n      0x00\n        /* \"#utility.yul\":14573:14575   */\n      0x40\n        /* \"#utility.yul\":14562:14571   */\n      dup3\n        /* \"#utility.yul\":14558:14576   */\n      add\n        /* \"#utility.yul\":14550:14576   */\n      swap1\n      pop\n        /* \"#utility.yul\":14622:14631   */\n      dup2\n        /* \"#utility.yul\":14616:14620   */\n      dup2\n        /* \"#utility.yul\":14612:14632   */\n      sub\n        /* \"#utility.yul\":14608:14609   */\n      0x00\n        /* \"#utility.yul\":14597:14606   */\n      dup4\n        /* \"#utility.yul\":14593:14610   */\n      add\n        /* \"#utility.yul\":14586:14633   */\n      mstore\n        /* \"#utility.yul\":14650:14738   */\n      tag_549\n        /* \"#utility.yul\":14733:14737   */\n      dup2\n        /* \"#utility.yul\":14724:14730   */\n      dup6\n        /* \"#utility.yul\":14716:14722   */\n      dup8\n        /* \"#utility.yul\":14650:14738   */\n      tag_392\n      jump\t// in\n    tag_549:\n        /* \"#utility.yul\":14642:14738   */\n      swap1\n      pop\n        /* \"#utility.yul\":14748:14820   */\n      tag_550\n        /* \"#utility.yul\":14816:14818   */\n      0x20\n        /* \"#utility.yul\":14805:14814   */\n      dup4\n        /* \"#utility.yul\":14801:14819   */\n      add\n        /* \"#utility.yul\":14792:14798   */\n      dup5\n        /* \"#utility.yul\":14748:14820   */\n      tag_378\n      jump\t// in\n    tag_550:\n        /* \"#utility.yul\":14384:14827   */\n      swap5\n      swap4\n      pop\n      pop\n      pop\n      pop\n      jump\t// out\n        /* \"#utility.yul\":14833:15013   */\n    tag_393:\n        /* \"#utility.yul\":14881:14958   */\n      0x4e487b7100000000000000000000000000000000000000000000000000000000\n        /* \"#utility.yul\":14878:14879   */\n      0x00\n        /* \"#utility.yul\":14871:14959   */\n      mstore\n        /* \"#utility.yul\":14978:14982   */\n      0x11\n        /* \"#utility.yul\":14975:14976   */\n      0x04\n        /* \"#utility.yul\":14968:14983   */\n      mstore\n        /* \"#utility.yul\":15002:15006   */\n      0x24\n        /* \"#utility.yul\":14999:15000   */\n      0x00\n        /* \"#utility.yul\":14992:15007   */\n      revert\n        /* \"#utility.yul\":15019:15210   */\n    tag_228:\n        /* \"#utility.yul\":15059:15062   */\n      0x00\n        /* \"#utility.yul\":15078:15098   */\n      tag_553\n        /* \"#utility.yul\":15096:15097   */\n      dup3\n        /* \"#utility.yul\":15078:15098   */\n      tag_364\n      jump\t// in\n    tag_553:\n        /* \"#utility.yul\":15073:15098   */\n      swap2\n      pop\n        /* \"#utility.yul\":15112:15132   */\n      tag_554\n        /* \"#utility.yul\":15130:15131   */\n      dup4\n        /* \"#utility.yul\":15112:15132   */\n      tag_364\n      jump\t// in\n    tag_554:\n        /* \"#utility.yul\":15107:15132   */\n      swap3\n      pop\n        /* \"#utility.yul\":15155:15156   */\n      dup3\n        /* \"#utility.yul\":15152:15153   */\n      dup3\n        /* \"#utility.yul\":15148:15157   */\n      add\n        /* \"#utility.yul\":15141:15157   */\n      swap1\n      pop\n        /* \"#utility.yul\":15176:15179   */\n      dup1\n        /* \"#utility.yul\":15173:15174   */\n      dup3\n        /* \"#utility.yul\":15170:15180   */\n      gt\n        /* \"#utility.yul\":15167:15203   */\n      iszero\n      tag_555\n      jumpi\n        /* \"#utility.yul\":15183:15201   */\n      tag_556\n      tag_393\n      jump\t// in\n    tag_556:\n        /* \"#utility.yul\":15167:15203   */\n    tag_555:\n        /* \"#utility.yul\":15019:15210   */\n      swap3\n      swap2\n      pop\n      pop\n      jump\t// out\n        /* \"#utility.yul\":15216:15659   */\n    tag_234:\n        /* \"#utility.yul\":15367:15371   */\n      0x00\n        /* \"#utility.yul\":15405:15407   */\n      0x40\n        /* \"#utility.yul\":15394:15403   */\n      dup3\n        /* \"#utility.yul\":15390:15408   */\n      add\n        /* \"#utility.yul\":15382:15408   */\n      swap1\n      pop\n        /* \"#utility.yul\":15418:15489   */\n      tag_558\n        /* \"#utility.yul\":15486:15487   */\n      0x00\n        /* \"#utility.yul\":15475:15484   */\n      dup4\n        /* \"#utility.yul\":15471:15488   */\n      add\n        /* \"#utility.yul\":15462:15468   */\n      dup7\n        /* \"#utility.yul\":15418:15489   */\n      tag_369\n      jump\t// in\n    tag_558:\n        /* \"#utility.yul\":15536:15545   */\n      dup2\n        /* \"#utility.yul\":15530:15534   */\n      dup2\n        /* \"#utility.yul\":15526:15546   */\n      sub\n        /* \"#utility.yul\":15521:15523   */\n      0x20\n        /* \"#utility.yul\":15510:15519   */\n      dup4\n        /* \"#utility.yul\":15506:15524   */\n      add\n        /* \"#utility.yul\":15499:15547   */\n      mstore\n        /* \"#utility.yul\":15564:15652   */\n      tag_559\n        /* \"#utility.yul\":15647:15651   */\n      dup2\n        /* \"#utility.yul\":15638:15644   */\n      dup5\n        /* \"#utility.yul\":15630:15636   */\n      dup7\n        /* \"#utility.yul\":15564:15652   */\n      tag_392\n      jump\t// in\n    tag_559:\n        /* \"#utility.yul\":15556:15652   */\n      swap1\n      pop\n        /* \"#utility.yul\":15216:15659   */\n      swap5\n      swap4\n      pop\n      pop\n      pop\n      pop\n      jump\t// out\n        /* \"#utility.yul\":15665:15831   */\n    tag_394:\n        /* \"#utility.yul\":15805:15823   */\n      0x5061757361626c653a2070617573656400000000000000000000000000000000\n        /* \"#utility.yul\":15801:15802   */\n      0x00\n        /* \"#utility.yul\":15793:15799   */\n      dup3\n        /* \"#utility.yul\":15789:15803   */\n      add\n        /* \"#utility.yul\":15782:15824   */\n      mstore\n        /* \"#utility.yul\":15665:15831   */\n      pop\n      jump\t// out\n        /* \"#utility.yul\":15837:16203   */\n    tag_395:\n        /* \"#utility.yul\":15979:15982   */\n      0x00\n        /* \"#utility.yul\":16000:16067   */\n      tag_562\n        /* \"#utility.yul\":16064:16066   */\n      0x10\n        /* \"#utility.yul\":16059:16062   */\n      dup4\n        /* \"#utility.yul\":16000:16067   */\n      tag_353\n      jump\t// in\n    tag_562:\n        /* \"#utility.yul\":15993:16067   */\n      swap2\n      pop\n        /* \"#utility.yul\":16076:16169   */\n      tag_563\n        /* \"#utility.yul\":16165:16168   */\n      dup3\n        /* \"#utility.yul\":16076:16169   */\n      tag_394\n      jump\t// in\n    tag_563:\n        /* \"#utility.yul\":16194:16196   */\n      0x20\n        /* \"#utility.yul\":16189:16192   */\n      dup3\n        /* \"#utility.yul\":16185:16197   */\n      add\n        /* \"#utility.yul\":16178:16197   */\n      swap1\n      pop\n        /* \"#utility.yul\":15837:16203   */\n      swap2\n      swap1\n      pop\n      jump\t// out\n        /* \"#utility.yul\":16209:16628   */\n    tag_277:\n        /* \"#utility.yul\":16375:16379   */\n      0x00\n        /* \"#utility.yul\":16413:16415   */\n      0x20\n        /* \"#utility.yul\":16402:16411   */\n      dup3\n        /* \"#utility.yul\":16398:16416   */\n      add\n        /* \"#utility.yul\":16390:16416   */\n      swap1\n      pop\n        /* \"#utility.yul\":16462:16471   */\n      dup2\n        /* \"#utility.yul\":16456:16460   */\n      dup2\n        /* \"#utility.yul\":16452:16472   */\n      sub\n        /* \"#utility.yul\":16448:16449   */\n      0x00\n        /* \"#utility.yul\":16437:16446   */\n      dup4\n        /* \"#utility.yul\":16433:16450   */\n      add\n        /* \"#utility.yul\":16426:16473   */\n      mstore\n        /* \"#utility.yul\":16490:16621   */\n      tag_565\n        /* \"#utility.yul\":16616:16620   */\n      dup2\n        /* \"#utility.yul\":16490:16621   */\n      tag_395\n      jump\t// in\n    tag_565:\n        /* \"#utility.yul\":16482:16621   */\n      swap1\n      pop\n        /* \"#utility.yul\":16209:16628   */\n      swap2\n      swap1\n      pop\n      jump\t// out\n        /* \"#utility.yul\":16634:16815   */\n    tag_396:\n        /* \"#utility.yul\":16774:16807   */\n      0x5265656e7472616e637947756172643a207265656e7472616e742063616c6c00\n        /* \"#utility.yul\":16770:16771   */\n      0x00\n        /* \"#utility.yul\":16762:16768   */\n      dup3\n        /* \"#utility.yul\":16758:16772   */\n      add\n        /* \"#utility.yul\":16751:16808   */\n      mstore\n        /* \"#utility.yul\":16634:16815   */\n      pop\n      jump\t// out\n        /* \"#utility.yul\":16821:17187   */\n    tag_397:\n        /* \"#utility.yul\":16963:16966   */\n      0x00\n        /* \"#utility.yul\":16984:17051   */\n      tag_568\n        /* \"#utility.yul\":17048:17050   */\n      0x1f\n        /* \"#utility.yul\":17043:17046   */\n      dup4\n        /* \"#utility.yul\":16984:17051   */\n      tag_353\n      jump\t// in\n    tag_568:\n        /* \"#utility.yul\":16977:17051   */\n      swap2\n      pop\n        /* \"#utility.yul\":17060:17153   */\n      tag_569\n        /* \"#utility.yul\":17149:17152   */\n      dup3\n        /* \"#utility.yul\":17060:17153   */\n      tag_396\n      jump\t// in\n    tag_569:\n        /* \"#utility.yul\":17178:17180   */\n      0x20\n        /* \"#utility.yul\":17173:17176   */\n      dup3\n        /* \"#utility.yul\":17169:17181   */\n      add\n        /* \"#utility.yul\":17162:17181   */\n      swap1\n      pop\n        /* \"#utility.yul\":16821:17187   */\n      swap2\n      swap1\n      pop\n      jump\t// out\n        /* \"#utility.yul\":17193:17612   */\n    tag_316:\n        /* \"#utility.yul\":17359:17363   */\n      0x00\n        /* \"#utility.yul\":17397:17399   */\n      0x20\n        /* \"#utility.yul\":17386:17395   */\n      dup3\n        /* \"#utility.yul\":17382:17400   */\n      add\n        /* \"#utility.yul\":17374:17400   */\n      swap1\n      pop\n        /* \"#utility.yul\":17446:17455   */\n      dup2\n        /* \"#utility.yul\":17440:17444   */\n      dup2\n        /* \"#utility.yul\":17436:17456   */\n      sub\n        /* \"#utility.yul\":17432:17433   */\n      0x00\n        /* \"#utility.yul\":17421:17430   */\n      dup4\n        /* \"#utility.yul\":17417:17434   */\n      add\n        /* \"#utility.yul\":17410:17457   */\n      mstore\n        /* \"#utility.yul\":17474:17605   */\n      tag_571\n        /* \"#utility.yul\":17600:17604   */\n      dup2\n        /* \"#utility.yul\":17474:17605   */\n      tag_397\n      jump\t// in\n    tag_571:\n        /* \"#utility.yul\":17466:17605   */\n      swap1\n      pop\n        /* \"#utility.yul\":17193:17612   */\n      swap2\n      swap1\n      pop\n      jump\t// out\n        /* \"#utility.yul\":17618:18060   */\n    tag_330:\n        /* \"#utility.yul\":17767:17771   */\n      0x00\n        /* \"#utility.yul\":17805:17807   */\n      0x60\n        /* \"#utility.yul\":17794:17803   */\n      dup3\n        /* \"#utility.yul\":17790:17808   */\n      add\n        /* \"#utility.yul\":17782:17808   */\n      swap1\n      pop\n        /* \"#utility.yul\":17818:17889   */\n      tag_573\n        /* \"#utility.yul\":17886:17887   */\n      0x00\n        /* \"#utility.yul\":17875:17884   */\n      dup4\n        /* \"#utility.yul\":17871:17888   */\n      add\n        /* \"#utility.yul\":17862:17868   */\n      dup7\n        /* \"#utility.yul\":17818:17889   */\n      tag_378\n      jump\t// in\n    tag_573:\n        /* \"#utility.yul\":17899:17971   */\n      tag_574\n        /* \"#utility.yul\":17967:17969   */\n      0x20\n        /* \"#utility.yul\":17956:17965   */\n      dup4\n        /* \"#utility.yul\":17952:17970   */\n      add\n        /* \"#utility.yul\":17943:17949   */\n      dup6\n        /* \"#utility.yul\":17899:17971   */\n      tag_369\n      jump\t// in\n    tag_574:\n        /* \"#utility.yul\":17981:18053   */\n      tag_575\n        /* \"#utility.yul\":18049:18051   */\n      0x40\n        /* \"#utility.yul\":18038:18047   */\n      dup4\n        /* \"#utility.yul\":18034:18052   */\n      add\n        /* \"#utility.yul\":18025:18031   */\n      dup5\n        /* \"#utility.yul\":17981:18053   */\n      tag_369\n      jump\t// in\n    tag_575:\n        /* \"#utility.yul\":17618:18060   */\n      swap5\n      swap4\n      pop\n      pop\n      pop\n      pop\n      jump\t// out\n        /* \"#utility.yul\":18066:18236   */\n    tag_398:\n        /* \"#utility.yul\":18206:18228   */\n      0x5061757361626c653a206e6f7420706175736564000000000000000000000000\n        /* \"#utility.yul\":18202:18203   */\n      0x00\n        /* \"#utility.yul\":18194:18200   */\n      dup3\n        /* \"#utility.yul\":18190:18204   */\n      add\n        /* \"#utility.yul\":18183:18229   */\n      mstore\n        /* \"#utility.yul\":18066:18236   */\n      pop\n      jump\t// out\n        /* \"#utility.yul\":18242:18608   */\n    tag_399:\n        /* \"#utility.yul\":18384:18387   */\n      0x00\n        /* \"#utility.yul\":18405:18472   */\n      tag_578\n        /* \"#utility.yul\":18469:18471   */\n      0x14\n        /* \"#utility.yul\":18464:18467   */\n      dup4\n        /* \"#utility.yul\":18405:18472   */\n      tag_353\n      jump\t// in\n    tag_578:\n        /* \"#utility.yul\":18398:18472   */\n      swap2\n      pop\n        /* \"#utility.yul\":18481:18574   */\n      tag_579\n        /* \"#utility.yul\":18570:18573   */\n      dup3\n        /* \"#utility.yul\":18481:18574   */\n      tag_398\n      jump\t// in\n    tag_579:\n        /* \"#utility.yul\":18599:18601   */\n      0x20\n        /* \"#utility.yul\":18594:18597   */\n      dup3\n        /* \"#utility.yul\":18590:18602   */\n      add\n        /* \"#utility.yul\":18583:18602   */\n      swap1\n      pop\n        /* \"#utility.yul\":18242:18608   */\n      swap2\n      swap1\n      pop\n      jump\t// out\n        /* \"#utility.yul\":18614:19033   */\n    tag_342:\n        /* \"#utility.yul\":18780:18784   */\n      0x00\n        /* \"#utility.yul\":18818:18820   */\n      0x20\n        /* \"#utility.yul\":18807:18816   */\n      dup3\n        /* \"#utility.yul\":18803:18821   */\n      add\n        /* \"#utility.yul\":18795:18821   */\n      swap1\n      pop\n        /* \"#utility.yul\":18867:18876   */\n      dup2\n        /* \"#utility.yul\":18861:18865   */\n      dup2\n        /* \"#utility.yul\":18857:18877   */\n      sub\n        /* \"#utility.yul\":18853:18854   */\n      0x00\n        /* \"#utility.yul\":18842:18851   */\n      dup4\n        /* \"#utility.yul\":18838:18855   */\n      add\n        /* \"#utility.yul\":18831:18878   */\n      mstore\n        /* \"#utility.yul\":18895:19026   */\n      tag_581\n        /* \"#utility.yul\":19021:19025   */\n      dup2\n        /* \"#utility.yul\":18895:19026   */\n      tag_399\n      jump\t// in\n    tag_581:\n        /* \"#utility.yul\":18887:19026   */\n      swap1\n      pop\n        /* \"#utility.yul\":18614:19033   */\n      swap2\n      swap1\n      pop\n      jump\t// out\n\n    auxdata: 0xa2646970667358221220e93a3dda12e59d805089ced78b15a294e153ce06bc445c77987a3646d52885a264736f6c634300081a0033\n}\n",
				"bytecode": {
					"linkReferences": {},
					"object": "608060405234801561000f575f80fd5b50604051613268380380613268833981810160405281019061003191906107cd565b33858581600390816100439190610a80565b5080600490816100539190610a80565b5050505f60055f6101000a81548160ff0219169083151502179055505f73ffffffffffffffffffffffffffffffffffffffff168173ffffffffffffffffffffffffffffffffffffffff16036100df575f6040517f1e4fbdf70000000000000000000000000000000000000000000000000000000081526004016100d69190610b5e565b60405180910390fd5b6100ee8161029060201b60201c565b5060016006819055505f73ffffffffffffffffffffffffffffffffffffffff168273ffffffffffffffffffffffffffffffffffffffff16148061015c57505f73ffffffffffffffffffffffffffffffffffffffff168173ffffffffffffffffffffffffffffffffffffffff16145b15610193576040517fe6c4247b00000000000000000000000000000000000000000000000000000000815260040160405180910390fd5b81600b5f6101000a81548173ffffffffffffffffffffffffffffffffffffffff021916908373ffffffffffffffffffffffffffffffffffffffff16021790555080600c5f6101000a81548173ffffffffffffffffffffffffffffffffffffffff021916908373ffffffffffffffffffffffffffffffffffffffff160217905550604051806060016040528066038d7ea4c680008152602001670de0b6b3a76400008152602001671bc16d674ec8000081525060075f820151815f0155602082015181600101556040820151816002015590505068056bc75e2d63100000600a81905550610286338461035560201b60201c565b5050505050610c34565b5f600560019054906101000a900473ffffffffffffffffffffffffffffffffffffffff16905081600560016101000a81548173ffffffffffffffffffffffffffffffffffffffff021916908373ffffffffffffffffffffffffffffffffffffffff1602179055508173ffffffffffffffffffffffffffffffffffffffff168173ffffffffffffffffffffffffffffffffffffffff167f8be0079c531659141344cd1fd0a4f28419497f9722a3daafe3b4186f6b6457e060405160405180910390a35050565b5f73ffffffffffffffffffffffffffffffffffffffff168273ffffffffffffffffffffffffffffffffffffffff16036103c5575f6040517fec442f050000000000000000000000000000000000000000000000000000000081526004016103bc9190610b5e565b60405180910390fd5b6103d65f83836103da60201b60201c565b5050565b5f73ffffffffffffffffffffffffffffffffffffffff168373ffffffffffffffffffffffffffffffffffffffff160361042a578060025f82825461041e9190610ba4565b925050819055506104f8565b5f805f8573ffffffffffffffffffffffffffffffffffffffff1673ffffffffffffffffffffffffffffffffffffffff1681526020019081526020015f20549050818110156104b3578381836040517fe450d38c0000000000000000000000000000000000000000000000000000000081526004016104aa93929190610be6565b60405180910390fd5b8181035f808673ffffffffffffffffffffffffffffffffffffffff1673ffffffffffffffffffffffffffffffffffffffff1681526020019081526020015f2081905550505b5f73ffffffffffffffffffffffffffffffffffffffff168273ffffffffffffffffffffffffffffffffffffffff160361053f578060025f8282540392505081905550610589565b805f808473ffffffffffffffffffffffffffffffffffffffff1673ffffffffffffffffffffffffffffffffffffffff1681526020019081526020015f205f82825401925050819055505b8173ffffffffffffffffffffffffffffffffffffffff168373ffffffffffffffffffffffffffffffffffffffff167fddf252ad1be2c89b69c2b068fc378daa952ba7f163c4a11628f55a4df523b3ef836040516105e69190610c1b565b60405180910390a3505050565b5f604051905090565b5f80fd5b5f80fd5b5f80fd5b5f80fd5b5f601f19601f8301169050919050565b7f4e487b71000000000000000000000000000000000000000000000000000000005f52604160045260245ffd5b6106528261060c565b810181811067ffffffffffffffff821117156106715761067061061c565b5b80604052505050565b5f6106836105f3565b905061068f8282610649565b919050565b5f67ffffffffffffffff8211156106ae576106ad61061c565b5b6106b78261060c565b9050602081019050919050565b8281835e5f83830152505050565b5f6106e46106df84610694565b61067a565b905082815260208101848484011115610700576106ff610608565b5b61070b8482856106c4565b509392505050565b5f82601f83011261072757610726610604565b5b81516107378482602086016106d2565b91505092915050565b5f819050919050565b61075281610740565b811461075c575f80fd5b50565b5f8151905061076d81610749565b92915050565b5f73ffffffffffffffffffffffffffffffffffffffff82169050919050565b5f61079c82610773565b9050919050565b6107ac81610792565b81146107b6575f80fd5b50565b5f815190506107c7816107a3565b92915050565b5f805f805f60a086880312156107e6576107e56105fc565b5b5f86015167ffffffffffffffff81111561080357610802610600565b5b61080f88828901610713565b955050602086015167ffffffffffffffff8111156108305761082f610600565b5b61083c88828901610713565b945050604061084d8882890161075f565b935050606061085e888289016107b9565b925050608061086f888289016107b9565b9150509295509295909350565b5f81519050919050565b7f4e487b71000000000000000000000000000000000000000000000000000000005f52602260045260245ffd5b5f60028204905060018216806108ca57607f821691505b6020821081036108dd576108dc610886565b5b50919050565b5f819050815f5260205f209050919050565b5f6020601f8301049050919050565b5f82821b905092915050565b5f6008830261093f7fffffffffffffffffffffffffffffffffffffffffffffffffffffffffffffffff82610904565b6109498683610904565b95508019841693508086168417925050509392505050565b5f819050919050565b5f61098461097f61097a84610740565b610961565b610740565b9050919050565b5f819050919050565b61099d8361096a565b6109b16109a98261098b565b848454610910565b825550505050565b5f90565b6109c56109b9565b6109d0818484610994565b505050565b5b818110156109f3576109e85f826109bd565b6001810190506109d6565b5050565b601f821115610a3857610a09816108e3565b610a12846108f5565b81016020851015610a21578190505b610a35610a2d856108f5565b8301826109d5565b50505b505050565b5f82821c905092915050565b5f610a585f1984600802610a3d565b1980831691505092915050565b5f610a708383610a49565b9150826002028217905092915050565b610a898261087c565b67ffffffffffffffff811115610aa257610aa161061c565b5b610aac82546108b3565b610ab78282856109f7565b5f60209050601f831160018114610ae8575f8415610ad6578287015190505b610ae08582610a65565b865550610b47565b601f198416610af6866108e3565b5f5b82811015610b1d57848901518255600182019150602085019450602081019050610af8565b86831015610b3a5784890151610b36601f891682610a49565b8355505b6001600288020188555050505b505050505050565b610b5881610792565b82525050565b5f602082019050610b715f830184610b4f565b92915050565b7f4e487b71000000000000000000000000000000000000000000000000000000005f52601160045260245ffd5b5f610bae82610740565b9150610bb983610740565b9250828201905080821115610bd157610bd0610b77565b5b92915050565b610be081610740565b82525050565b5f606082019050610bf95f830186610b4f565b610c066020830185610bd7565b610c136040830184610bd7565b949350505050565b5f602082019050610c2e5f830184610bd7565b92915050565b61262780610c415f395ff3fe608060405234801561000f575f80fd5b50600436106101cd575f3560e01c80638da5cb5b11610102578063c0008d0c116100a0578063d06a2e0e1161006f578063d06a2e0e146104e7578063dd62ed3e14610503578063f2fde38b14610533578063f4f831a01461054f576101cd565b8063c0008d0c14610487578063c1f3bdde146104a3578063ca1c7238146104c1578063ce55b584146104cb576101cd565b8063a3262ea2116100dc578063a3262ea2146103eb578063a6ec1c6d14610409578063a775ced314610439578063a9059cbb14610457576101cd565b80638da5cb5b1461037f57806395d89b411461039d5780639778d0cd146103bb576101cd565b806343f48fbd1161016f578063715018a611610149578063715018a6146103335780638456cb591461033d578063849d13a3146103475780638d9d730714610363576101cd565b806343f48fbd146102c55780635c975abb146102e557806370a0823114610303576101cd565b806323b872dd116101ab57806323b872dd1461023d5780632a504a971461026d578063313ce5671461029d5780633f4ba83a146102bb576101cd565b806306fdde03146101d1578063095ea7b3146101ef57806318160ddd1461021f575b5f80fd5b6101d961056d565b6040516101e69190611d92565b60405180910390f35b61020960048036038101906102049190611e47565b6105fd565b6040516102169190611e9f565b60405180910390f35b61022761061f565b6040516102349190611ec7565b60405180910390f35b61025760048036038101906102529190611ee0565b610628565b6040516102649190611e9f565b60405180910390f35b61028760048036038101906102829190611f30565b610645565b6040516102949190611ec7565b60405180910390f35b6102a561065a565b6040516102b29190611f76565b60405180910390f35b6102c3610662565b005b6102cd610674565b6040516102dc93929190611f8f565b60405180910390f35b6102ed61068b565b6040516102fa9190611e9f565b60405180910390f35b61031d60048036038101906103189190611f30565b6106a0565b60405161032a9190611ec7565b60405180910390f35b61033b6106e5565b005b6103456106f8565b005b610361600480360381019061035c9190611fe6565b61070a565b005b61037d60048036038101906103789190612072565b61076d565b005b61038761098b565b60405161039491906120de565b60405180910390f35b6103a56109b4565b6040516103b29190611d92565b60405180910390f35b6103d560048036038101906103d09190611f30565b610a44565b6040516103e29190611ec7565b60405180910390f35b6103f3610a59565b60405161040091906120de565b60405180910390f35b610423600480360381019061041e9190611f30565b610a7e565b6040516104309190611ec7565b60405180910390f35b610441610a93565b60405161044e91906120de565b60405180910390f35b610471600480360381019061046c9190611e47565b610ab8565b60405161047e9190611e9f565b60405180910390f35b6104a1600480360381019061049c91906120f7565b610ad3565b005b6104ab610e00565b6040516104b89190611ec7565b60405180910390f35b6104c9610e07565b005b6104e560048036038101906104e09190612154565b610ee8565b005b61050160048036038101906104fc9190611e47565b610f31565b005b61051d6004803603810190610518919061217f565b6111ef565b60405161052a9190611ec7565b60405180910390f35b61054d60048036038101906105489190611f30565b611271565b005b6105576112f5565b6040516105649190611ec7565b60405180910390f35b60606003805461057c906121ea565b80601f01602080910402602001604051908101604052809291908181526020018280546105a8906121ea565b80156105f35780601f106105ca576101008083540402835291602001916105f3565b820191905f5260205f20905b8154815290600101906020018083116105d657829003601f168201915b5050505050905090565b5f806106076112fb565b9050610614818585611302565b600191505092915050565b5f600254905090565b5f610631611314565b61063c84848461135e565b90509392505050565b600d602052805f5260405f205f915090505481565b5f6012905090565b61066a61138c565b610672611413565b565b6007805f0154908060010154908060020154905083565b5f60055f9054906101000a900460ff16905090565b5f805f8373ffffffffffffffffffffffffffffffffffffffff1673ffffffffffffffffffffffffffffffffffffffff1681526020019081526020015f20549050919050565b6106ed61138c565b6106f65f611474565b565b61070061138c565b610708611539565b565b61071261138c565b80600781816107219190612336565b9050507f023010bc68e7f4c0be9887f513c570c7a0f5f511b9716abccd42bf3b8943532b815f01358260200135836040013560405161076293929190611f8f565b60405180910390a150565b61077561138c565b5f73ffffffffffffffffffffffffffffffffffffffff168173ffffffffffffffffffffffffffffffffffffffff16036107da576040517fe6c4247b00000000000000000000000000000000000000000000000000000000815260040160405180910390fd5b6040518060400160405280600381526020017f6e66740000000000000000000000000000000000000000000000000000000000815250805190602001208383604051610827929190612380565b6040518091039020036108795780600b5f6101000a81548173ffffffffffffffffffffffffffffffffffffffff021916908373ffffffffffffffffffffffffffffffffffffffff16021790555061094b565b6040518060400160405280600781526020017f686973746f7279000000000000000000000000000000000000000000000000008152508051906020012083836040516108c6929190612380565b6040518091039020036109185780600c5f6101000a81548173ffffffffffffffffffffffffffffffffffffffff021916908373ffffffffffffffffffffffffffffffffffffffff16021790555061094a565b6040517f6a43f8d100000000000000000000000000000000000000000000000000000000815260040160405180910390fd5b5b7ff611fec7babefd259c57ea5b6006acff8140ab17bb816c65ba0aa7e36c09caa883838360405161097e939291906123c4565b60405180910390a1505050565b5f600560019054906101000a900473ffffffffffffffffffffffffffffffffffffffff16905090565b6060600480546109c3906121ea565b80601f01602080910402602001604051908101604052809291908181526020018280546109ef906121ea565b8015610a3a5780601f10610a1157610100808354040283529160200191610a3a565b820191905f5260205f20905b815481529060010190602001808311610a1d57829003601f168201915b5050505050905090565b600e602052805f5260405f205f915090505481565b600b5f9054906101000a900473ffffffffffffffffffffffffffffffffffffffff1681565b600f602052805f5260405f205f915090505481565b600c5f9054906101000a900473ffffffffffffffffffffffffffffffffffffffff1681565b5f610ac1611314565b610acb838361159b565b905092915050565b600b5f9054906101000a900473ffffffffffffffffffffffffffffffffffffffff1673ffffffffffffffffffffffffffffffffffffffff163373ffffffffffffffffffffffffffffffffffffffff1614158015610b7d5750600c5f9054906101000a900473ffffffffffffffffffffffffffffffffffffffff1673ffffffffffffffffffffffffffffffffffffffff163373ffffffffffffffffffffffffffffffffffffffff1614155b15610bb4576040517f5c427cd900000000000000000000000000000000000000000000000000000000815260040160405180910390fd5b610bbc611314565b5f6040518060400160405280600581526020017f6469617279000000000000000000000000000000000000000000000000000000815250805190602001208383604051610c0a929190612380565b604051809103902003610c24576007600101549050610cbe565b6040518060400160405280600581526020017f70686f746f000000000000000000000000000000000000000000000000000000815250805190602001208383604051610c71929190612380565b604051809103902003610c8b576007600201549050610cbd565b6040517f6a43f8d100000000000000000000000000000000000000000000000000000000815260040160405180910390fd5b5b610cc7846115bd565b600a5481600f5f8773ffffffffffffffffffffffffffffffffffffffff1673ffffffffffffffffffffffffffffffffffffffff1681526020019081526020015f2054610d139190612421565b1115610d4b576040517fd75747f600000000000000000000000000000000000000000000000000000000815260040160405180910390fd5b80600f5f8673ffffffffffffffffffffffffffffffffffffffff1673ffffffffffffffffffffffffffffffffffffffff1681526020019081526020015f205f828254610d979190612421565b92505081905550610da88482611697565b8373ffffffffffffffffffffffffffffffffffffffff167f21a82678daa5235b7b5de669fdf9599453d3d885cee0826e92636d747419689c828585604051610df293929190612454565b60405180910390a250505050565b6201518081565b610e0f611716565b610e17611314565b5f600d5f3373ffffffffffffffffffffffffffffffffffffffff1673ffffffffffffffffffffffffffffffffffffffff1681526020019081526020015f205490505f8103610e91576040517ff4d678b800000000000000000000000000000000000000000000000000000000815260040160405180910390fd5b5f600d5f3373ffffffffffffffffffffffffffffffffffffffff1673ffffffffffffffffffffffffffffffffffffffff1681526020019081526020015f2081905550610edd3382611697565b50610ee6611765565b565b610ef061138c565b80600a819055507fb1cc6c859f8e547a95cbbe7dcece9e0fd5a931c906bd08dcf8413a2c8353971381604051610f269190611ec7565b60405180910390a150565b600b5f9054906101000a900473ffffffffffffffffffffffffffffffffffffffff1673ffffffffffffffffffffffffffffffffffffffff163373ffffffffffffffffffffffffffffffffffffffff1614158015610fdb5750600c5f9054906101000a900473ffffffffffffffffffffffffffffffffffffffff1673ffffffffffffffffffffffffffffffffffffffff163373ffffffffffffffffffffffffffffffffffffffff1614155b15611012576040517f5c427cd900000000000000000000000000000000000000000000000000000000815260040160405180910390fd5b61101a611314565b5f8103611053576040517f2c5211c600000000000000000000000000000000000000000000000000000000815260040160405180910390fd5b61105c826115bd565b600a5481600f5f8573ffffffffffffffffffffffffffffffffffffffff1673ffffffffffffffffffffffffffffffffffffffff1681526020019081526020015f20546110a89190612421565b11156110e0576040517fd75747f600000000000000000000000000000000000000000000000000000000815260040160405180910390fd5b80600d5f8473ffffffffffffffffffffffffffffffffffffffff1673ffffffffffffffffffffffffffffffffffffffff1681526020019081526020015f205f82825461112c9190612421565b9250508190555080600f5f8473ffffffffffffffffffffffffffffffffffffffff1673ffffffffffffffffffffffffffffffffffffffff1681526020019081526020015f205f82825461117f9190612421565b925050819055508173ffffffffffffffffffffffffffffffffffffffff163373ffffffffffffffffffffffffffffffffffffffff167fbf26400ffec32b7f7fa346df27788423de869f04ad96fd322dafc7af85002636836040516111e39190611ec7565b60405180910390a35050565b5f60015f8473ffffffffffffffffffffffffffffffffffffffff1673ffffffffffffffffffffffffffffffffffffffff1681526020019081526020015f205f8373ffffffffffffffffffffffffffffffffffffffff1673ffffffffffffffffffffffffffffffffffffffff1681526020019081526020015f2054905092915050565b61127961138c565b5f73ffffffffffffffffffffffffffffffffffffffff168173ffffffffffffffffffffffffffffffffffffffff16036112e9575f6040517f1e4fbdf70000000000000000000000000000000000000000000000000000000081526004016112e091906120de565b60405180910390fd5b6112f281611474565b50565b600a5481565b5f33905090565b61130f838383600161176f565b505050565b61131c61068b565b1561135c576040517f08c379a0000000000000000000000000000000000000000000000000000000008152600401611353906124ce565b60405180910390fd5b565b5f806113686112fb565b905061137585828561193e565b6113808585856119d0565b60019150509392505050565b6113946112fb565b73ffffffffffffffffffffffffffffffffffffffff166113b261098b565b73ffffffffffffffffffffffffffffffffffffffff1614611411576113d56112fb565b6040517f118cdaa700000000000000000000000000000000000000000000000000000000815260040161140891906120de565b60405180910390fd5b565b61141b611ac0565b5f60055f6101000a81548160ff0219169083151502179055507f5db9ee0a495bf2e6ff9c91a7834c1ba4fdd244a5e8aa4e537bd38aeae4b073aa61145d6112fb565b60405161146a91906120de565b60405180910390a1565b5f600560019054906101000a900473ffffffffffffffffffffffffffffffffffffffff16905081600560016101000a81548173ffffffffffffffffffffffffffffffffffffffff021916908373ffffffffffffffffffffffffffffffffffffffff1602179055508173ffffffffffffffffffffffffffffffffffffffff168173ffffffffffffffffffffffffffffffffffffffff167f8be0079c531659141344cd1fd0a4f28419497f9722a3daafe3b4186f6b6457e060405160405180910390a35050565b611541611314565b600160055f6101000a81548160ff0219169083151502179055507f62e78cea01bee320cd4e420270b5ea74000d11b0c9f74754ebdbfc544b05a2586115846112fb565b60405161159191906120de565b60405180910390a1565b5f806115a56112fb565b90506115b28185856119d0565b600191505092915050565b62015180600e5f8373ffffffffffffffffffffffffffffffffffffffff1673ffffffffffffffffffffffffffffffffffffffff1681526020019081526020015f20546116099190612421565b4210611694575f600f5f8373ffffffffffffffffffffffffffffffffffffffff1673ffffffffffffffffffffffffffffffffffffffff1681526020019081526020015f208190555042600e5f8373ffffffffffffffffffffffffffffffffffffffff1673ffffffffffffffffffffffffffffffffffffffff1681526020019081526020015f20819055505b50565b5f73ffffffffffffffffffffffffffffffffffffffff168273ffffffffffffffffffffffffffffffffffffffff1603611707575f6040517fec442f050000000000000000000000000000000000000000000000000000000081526004016116fe91906120de565b60405180910390fd5b6117125f8383611b09565b5050565b60026006540361175b576040517f08c379a000000000000000000000000000000000000000000000000000000000815260040161175290612536565b60405180910390fd5b6002600681905550565b6001600681905550565b5f73ffffffffffffffffffffffffffffffffffffffff168473ffffffffffffffffffffffffffffffffffffffff16036117df575f6040517fe602df050000000000000000000000000000000000000000000000000000000081526004016117d691906120de565b60405180910390fd5b5f73ffffffffffffffffffffffffffffffffffffffff168373ffffffffffffffffffffffffffffffffffffffff160361184f575f6040517f94280d6200000000000000000000000000000000000000000000000000000000815260040161184691906120de565b60405180910390fd5b8160015f8673ffffffffffffffffffffffffffffffffffffffff1673ffffffffffffffffffffffffffffffffffffffff1681526020019081526020015f205f8573ffffffffffffffffffffffffffffffffffffffff1673ffffffffffffffffffffffffffffffffffffffff1681526020019081526020015f20819055508015611938578273ffffffffffffffffffffffffffffffffffffffff168473ffffffffffffffffffffffffffffffffffffffff167f8c5be1e5ebec7d5bd14f71427d1e84f3dd0314c0f7b2291e5b200ac8c7c3b9258460405161192f9190611ec7565b60405180910390a35b50505050565b5f61194984846111ef565b90507fffffffffffffffffffffffffffffffffffffffffffffffffffffffffffffffff81146119ca57818110156119bb578281836040517ffb8f41b20000000000000000000000000000000000000000000000000000000081526004016119b293929190612554565b60405180910390fd5b6119c984848484035f61176f565b5b50505050565b5f73ffffffffffffffffffffffffffffffffffffffff168373ffffffffffffffffffffffffffffffffffffffff1603611a40575f6040517f96c6fd1e000000000000000000000000000000000000000000000000000000008152600401611a3791906120de565b60405180910390fd5b5f73ffffffffffffffffffffffffffffffffffffffff168273ffffffffffffffffffffffffffffffffffffffff1603611ab0575f6040517fec442f05000000000000000000000000000000000000000000000000000000008152600401611aa791906120de565b60405180910390fd5b611abb838383611b09565b505050565b611ac861068b565b611b07576040517f08c379a0000000000000000000000000000000000000000000000000000000008152600401611afe906125d3565b60405180910390fd5b565b5f73ffffffffffffffffffffffffffffffffffffffff168373ffffffffffffffffffffffffffffffffffffffff1603611b59578060025f828254611b4d9190612421565b92505081905550611c27565b5f805f8573ffffffffffffffffffffffffffffffffffffffff1673ffffffffffffffffffffffffffffffffffffffff1681526020019081526020015f2054905081811015611be2578381836040517fe450d38c000000000000000000000000000000000000000000000000000000008152600401611bd993929190612554565b60405180910390fd5b8181035f808673ffffffffffffffffffffffffffffffffffffffff1673ffffffffffffffffffffffffffffffffffffffff1681526020019081526020015f2081905550505b5f73ffffffffffffffffffffffffffffffffffffffff168273ffffffffffffffffffffffffffffffffffffffff1603611c6e578060025f8282540392505081905550611cb8565b805f808473ffffffffffffffffffffffffffffffffffffffff1673ffffffffffffffffffffffffffffffffffffffff1681526020019081526020015f205f82825401925050819055505b8173ffffffffffffffffffffffffffffffffffffffff168373ffffffffffffffffffffffffffffffffffffffff167fddf252ad1be2c89b69c2b068fc378daa952ba7f163c4a11628f55a4df523b3ef83604051611d159190611ec7565b60405180910390a3505050565b5f81519050919050565b5f82825260208201905092915050565b8281835e5f83830152505050565b5f601f19601f8301169050919050565b5f611d6482611d22565b611d6e8185611d2c565b9350611d7e818560208601611d3c565b611d8781611d4a565b840191505092915050565b5f6020820190508181035f830152611daa8184611d5a565b905092915050565b5f80fd5b5f80fd5b5f73ffffffffffffffffffffffffffffffffffffffff82169050919050565b5f611de382611dba565b9050919050565b611df381611dd9565b8114611dfd575f80fd5b50565b5f81359050611e0e81611dea565b92915050565b5f819050919050565b611e2681611e14565b8114611e30575f80fd5b50565b5f81359050611e4181611e1d565b92915050565b5f8060408385031215611e5d57611e5c611db2565b5b5f611e6a85828601611e00565b9250506020611e7b85828601611e33565b9150509250929050565b5f8115159050919050565b611e9981611e85565b82525050565b5f602082019050611eb25f830184611e90565b92915050565b611ec181611e14565b82525050565b5f602082019050611eda5f830184611eb8565b92915050565b5f805f60608486031215611ef757611ef6611db2565b5b5f611f0486828701611e00565b9350506020611f1586828701611e00565b9250506040611f2686828701611e33565b9150509250925092565b5f60208284031215611f4557611f44611db2565b5b5f611f5284828501611e00565b91505092915050565b5f60ff82169050919050565b611f7081611f5b565b82525050565b5f602082019050611f895f830184611f67565b92915050565b5f606082019050611fa25f830186611eb8565b611faf6020830185611eb8565b611fbc6040830184611eb8565b949350505050565b5f80fd5b5f60608284031215611fdd57611fdc611fc4565b5b81905092915050565b5f60608284031215611ffb57611ffa611db2565b5b5f61200884828501611fc8565b91505092915050565b5f80fd5b5f80fd5b5f80fd5b5f8083601f84011261203257612031612011565b5b8235905067ffffffffffffffff81111561204f5761204e612015565b5b60208301915083600182028301111561206b5761206a612019565b5b9250929050565b5f805f6040848603121561208957612088611db2565b5b5f84013567ffffffffffffffff8111156120a6576120a5611db6565b5b6120b28682870161201d565b935093505060206120c586828701611e00565b9150509250925092565b6120d881611dd9565b82525050565b5f6020820190506120f15f8301846120cf565b92915050565b5f805f6040848603121561210e5761210d611db2565b5b5f61211b86828701611e00565b935050602084013567ffffffffffffffff81111561213c5761213b611db6565b5b6121488682870161201d565b92509250509250925092565b5f6020828403121561216957612168611db2565b5b5f61217684828501611e33565b91505092915050565b5f806040838503121561219557612194611db2565b5b5f6121a285828601611e00565b92505060206121b385828601611e00565b9150509250929050565b7f4e487b71000000000000000000000000000000000000000000000000000000005f52602260045260245ffd5b5f600282049050600182168061220157607f821691505b602082108103612214576122136121bd565b5b50919050565b5f813561222681611e1d565b80915050919050565b5f815f1b9050919050565b5f7fffffffffffffffffffffffffffffffffffffffffffffffffffffffffffffffff6122658461222f565b9350801983169250808416831791505092915050565b5f819050919050565b5f61229e61229961229484611e14565b61227b565b611e14565b9050919050565b5f819050919050565b6122b782612284565b6122ca6122c3826122a5565b835461223a565b8255505050565b5f81015f8301806122e18161221a565b90506122ed81846122ae565b5050506001810160208301806123028161221a565b905061230e81846122ae565b5050506002810160408301806123238161221a565b905061232f81846122ae565b5050505050565b61234082826122d1565b5050565b5f81905092915050565b828183375f83830152505050565b5f6123678385612344565b935061237483858461234e565b82840190509392505050565b5f61238c82848661235c565b91508190509392505050565b5f6123a38385611d2c565b93506123b083858461234e565b6123b983611d4a565b840190509392505050565b5f6040820190508181035f8301526123dd818587612398565b90506123ec60208301846120cf565b949350505050565b7f4e487b71000000000000000000000000000000000000000000000000000000005f52601160045260245ffd5b5f61242b82611e14565b915061243683611e14565b925082820190508082111561244e5761244d6123f4565b5b92915050565b5f6040820190506124675f830186611eb8565b818103602083015261247a818486612398565b9050949350505050565b7f5061757361626c653a20706175736564000000000000000000000000000000005f82015250565b5f6124b8601083611d2c565b91506124c382612484565b602082019050919050565b5f6020820190508181035f8301526124e5816124ac565b9050919050565b7f5265656e7472616e637947756172643a207265656e7472616e742063616c6c005f82015250565b5f612520601f83611d2c565b915061252b826124ec565b602082019050919050565b5f6020820190508181035f83015261254d81612514565b9050919050565b5f6060820190506125675f8301866120cf565b6125746020830185611eb8565b6125816040830184611eb8565b949350505050565b7f5061757361626c653a206e6f74207061757365640000000000000000000000005f82015250565b5f6125bd601483611d2c565b91506125c882612589565b602082019050919050565b5f6020820190508181035f8301526125ea816125b1565b905091905056fea2646970667358221220e93a3dda12e59d805089ced78b15a294e153ce06bc445c77987a3646d52885a264736f6c634300081a0033",
					"opcodes": "PUSH1 0x80 PUSH1 0x40 MSTORE CALLVALUE DUP1 ISZERO PUSH2 0xF JUMPI PUSH0 DUP1 REVERT JUMPDEST POP PUSH1 0x40 MLOAD PUSH2 0x3268 CODESIZE SUB DUP1 PUSH2 0x3268 DUP4 CODECOPY DUP2 DUP2 ADD PUSH1 0x40 MSTORE DUP2 ADD SWAP1 PUSH2 0x31 SWAP2 SWAP1 PUSH2 0x7CD JUMP JUMPDEST CALLER DUP6 DUP6 DUP2 PUSH1 0x3 SWAP1 DUP2 PUSH2 0x43 SWAP2 SWAP1 PUSH2 0xA80 JUMP JUMPDEST POP DUP1 PUSH1 0x4 SWAP1 DUP2 PUSH2 0x53 SWAP2 SWAP1 PUSH2 0xA80 JUMP JUMPDEST POP POP POP PUSH0 PUSH1 0x5 PUSH0 PUSH2 0x100 EXP DUP2 SLOAD DUP2 PUSH1 0xFF MUL NOT AND SWAP1 DUP4 ISZERO ISZERO MUL OR SWAP1 SSTORE POP PUSH0 PUSH20 0xFFFFFFFFFFFFFFFFFFFFFFFFFFFFFFFFFFFFFFFF AND DUP2 PUSH20 0xFFFFFFFFFFFFFFFFFFFFFFFFFFFFFFFFFFFFFFFF AND SUB PUSH2 0xDF JUMPI PUSH0 PUSH1 0x40 MLOAD PUSH32 0x1E4FBDF700000000000000000000000000000000000000000000000000000000 DUP2 MSTORE PUSH1 0x4 ADD PUSH2 0xD6 SWAP2 SWAP1 PUSH2 0xB5E JUMP JUMPDEST PUSH1 0x40 MLOAD DUP1 SWAP2 SUB SWAP1 REVERT JUMPDEST PUSH2 0xEE DUP2 PUSH2 0x290 PUSH1 0x20 SHL PUSH1 0x20 SHR JUMP JUMPDEST POP PUSH1 0x1 PUSH1 0x6 DUP2 SWAP1 SSTORE POP PUSH0 PUSH20 0xFFFFFFFFFFFFFFFFFFFFFFFFFFFFFFFFFFFFFFFF AND DUP3 PUSH20 0xFFFFFFFFFFFFFFFFFFFFFFFFFFFFFFFFFFFFFFFF AND EQ DUP1 PUSH2 0x15C JUMPI POP PUSH0 PUSH20 0xFFFFFFFFFFFFFFFFFFFFFFFFFFFFFFFFFFFFFFFF AND DUP2 PUSH20 0xFFFFFFFFFFFFFFFFFFFFFFFFFFFFFFFFFFFFFFFF AND EQ JUMPDEST ISZERO PUSH2 0x193 JUMPI PUSH1 0x40 MLOAD PUSH32 0xE6C4247B00000000000000000000000000000000000000000000000000000000 DUP2 MSTORE PUSH1 0x4 ADD PUSH1 0x40 MLOAD DUP1 SWAP2 SUB SWAP1 REVERT JUMPDEST DUP2 PUSH1 0xB PUSH0 PUSH2 0x100 EXP DUP2 SLOAD DUP2 PUSH20 0xFFFFFFFFFFFFFFFFFFFFFFFFFFFFFFFFFFFFFFFF MUL NOT AND SWAP1 DUP4 PUSH20 0xFFFFFFFFFFFFFFFFFFFFFFFFFFFFFFFFFFFFFFFF AND MUL OR SWAP1 SSTORE POP DUP1 PUSH1 0xC PUSH0 PUSH2 0x100 EXP DUP2 SLOAD DUP2 PUSH20 0xFFFFFFFFFFFFFFFFFFFFFFFFFFFFFFFFFFFFFFFF MUL NOT AND SWAP1 DUP4 PUSH20 0xFFFFFFFFFFFFFFFFFFFFFFFFFFFFFFFFFFFFFFFF AND MUL OR SWAP1 SSTORE POP PUSH1 0x40 MLOAD DUP1 PUSH1 0x60 ADD PUSH1 0x40 MSTORE DUP1 PUSH7 0x38D7EA4C68000 DUP2 MSTORE PUSH1 0x20 ADD PUSH8 0xDE0B6B3A7640000 DUP2 MSTORE PUSH1 0x20 ADD PUSH8 0x1BC16D674EC80000 DUP2 MSTORE POP PUSH1 0x7 PUSH0 DUP3 ADD MLOAD DUP2 PUSH0 ADD SSTORE PUSH1 0x20 DUP3 ADD MLOAD DUP2 PUSH1 0x1 ADD SSTORE PUSH1 0x40 DUP3 ADD MLOAD DUP2 PUSH1 0x2 ADD SSTORE SWAP1 POP POP PUSH9 0x56BC75E2D63100000 PUSH1 0xA DUP2 SWAP1 SSTORE POP PUSH2 0x286 CALLER DUP5 PUSH2 0x355 PUSH1 0x20 SHL PUSH1 0x20 SHR JUMP JUMPDEST POP POP POP POP POP PUSH2 0xC34 JUMP JUMPDEST PUSH0 PUSH1 0x5 PUSH1 0x1 SWAP1 SLOAD SWAP1 PUSH2 0x100 EXP SWAP1 DIV PUSH20 0xFFFFFFFFFFFFFFFFFFFFFFFFFFFFFFFFFFFFFFFF AND SWAP1 POP DUP2 PUSH1 0x5 PUSH1 0x1 PUSH2 0x100 EXP DUP2 SLOAD DUP2 PUSH20 0xFFFFFFFFFFFFFFFFFFFFFFFFFFFFFFFFFFFFFFFF MUL NOT AND SWAP1 DUP4 PUSH20 0xFFFFFFFFFFFFFFFFFFFFFFFFFFFFFFFFFFFFFFFF AND MUL OR SWAP1 SSTORE POP DUP2 PUSH20 0xFFFFFFFFFFFFFFFFFFFFFFFFFFFFFFFFFFFFFFFF AND DUP2 PUSH20 0xFFFFFFFFFFFFFFFFFFFFFFFFFFFFFFFFFFFFFFFF AND PUSH32 0x8BE0079C531659141344CD1FD0A4F28419497F9722A3DAAFE3B4186F6B6457E0 PUSH1 0x40 MLOAD PUSH1 0x40 MLOAD DUP1 SWAP2 SUB SWAP1 LOG3 POP POP JUMP JUMPDEST PUSH0 PUSH20 0xFFFFFFFFFFFFFFFFFFFFFFFFFFFFFFFFFFFFFFFF AND DUP3 PUSH20 0xFFFFFFFFFFFFFFFFFFFFFFFFFFFFFFFFFFFFFFFF AND SUB PUSH2 0x3C5 JUMPI PUSH0 PUSH1 0x40 MLOAD PUSH32 0xEC442F0500000000000000000000000000000000000000000000000000000000 DUP2 MSTORE PUSH1 0x4 ADD PUSH2 0x3BC SWAP2 SWAP1 PUSH2 0xB5E JUMP JUMPDEST PUSH1 0x40 MLOAD DUP1 SWAP2 SUB SWAP1 REVERT JUMPDEST PUSH2 0x3D6 PUSH0 DUP4 DUP4 PUSH2 0x3DA PUSH1 0x20 SHL PUSH1 0x20 SHR JUMP JUMPDEST POP POP JUMP JUMPDEST PUSH0 PUSH20 0xFFFFFFFFFFFFFFFFFFFFFFFFFFFFFFFFFFFFFFFF AND DUP4 PUSH20 0xFFFFFFFFFFFFFFFFFFFFFFFFFFFFFFFFFFFFFFFF AND SUB PUSH2 0x42A JUMPI DUP1 PUSH1 0x2 PUSH0 DUP3 DUP3 SLOAD PUSH2 0x41E SWAP2 SWAP1 PUSH2 0xBA4 JUMP JUMPDEST SWAP3 POP POP DUP2 SWAP1 SSTORE POP PUSH2 0x4F8 JUMP JUMPDEST PUSH0 DUP1 PUSH0 DUP6 PUSH20 0xFFFFFFFFFFFFFFFFFFFFFFFFFFFFFFFFFFFFFFFF AND PUSH20 0xFFFFFFFFFFFFFFFFFFFFFFFFFFFFFFFFFFFFFFFF AND DUP2 MSTORE PUSH1 0x20 ADD SWAP1 DUP2 MSTORE PUSH1 0x20 ADD PUSH0 KECCAK256 SLOAD SWAP1 POP DUP2 DUP2 LT ISZERO PUSH2 0x4B3 JUMPI DUP4 DUP2 DUP4 PUSH1 0x40 MLOAD PUSH32 0xE450D38C00000000000000000000000000000000000000000000000000000000 DUP2 MSTORE PUSH1 0x4 ADD PUSH2 0x4AA SWAP4 SWAP3 SWAP2 SWAP1 PUSH2 0xBE6 JUMP JUMPDEST PUSH1 0x40 MLOAD DUP1 SWAP2 SUB SWAP1 REVERT JUMPDEST DUP2 DUP2 SUB PUSH0 DUP1 DUP7 PUSH20 0xFFFFFFFFFFFFFFFFFFFFFFFFFFFFFFFFFFFFFFFF AND PUSH20 0xFFFFFFFFFFFFFFFFFFFFFFFFFFFFFFFFFFFFFFFF AND DUP2 MSTORE PUSH1 0x20 ADD SWAP1 DUP2 MSTORE PUSH1 0x20 ADD PUSH0 KECCAK256 DUP2 SWAP1 SSTORE POP POP JUMPDEST PUSH0 PUSH20 0xFFFFFFFFFFFFFFFFFFFFFFFFFFFFFFFFFFFFFFFF AND DUP3 PUSH20 0xFFFFFFFFFFFFFFFFFFFFFFFFFFFFFFFFFFFFFFFF AND SUB PUSH2 0x53F JUMPI DUP1 PUSH1 0x2 PUSH0 DUP3 DUP3 SLOAD SUB SWAP3 POP POP DUP2 SWAP1 SSTORE POP PUSH2 0x589 JUMP JUMPDEST DUP1 PUSH0 DUP1 DUP5 PUSH20 0xFFFFFFFFFFFFFFFFFFFFFFFFFFFFFFFFFFFFFFFF AND PUSH20 0xFFFFFFFFFFFFFFFFFFFFFFFFFFFFFFFFFFFFFFFF AND DUP2 MSTORE PUSH1 0x20 ADD SWAP1 DUP2 MSTORE PUSH1 0x20 ADD PUSH0 KECCAK256 PUSH0 DUP3 DUP3 SLOAD ADD SWAP3 POP POP DUP2 SWAP1 SSTORE POP JUMPDEST DUP2 PUSH20 0xFFFFFFFFFFFFFFFFFFFFFFFFFFFFFFFFFFFFFFFF AND DUP4 PUSH20 0xFFFFFFFFFFFFFFFFFFFFFFFFFFFFFFFFFFFFFFFF AND PUSH32 0xDDF252AD1BE2C89B69C2B068FC378DAA952BA7F163C4A11628F55A4DF523B3EF DUP4 PUSH1 0x40 MLOAD PUSH2 0x5E6 SWAP2 SWAP1 PUSH2 0xC1B JUMP JUMPDEST PUSH1 0x40 MLOAD DUP1 SWAP2 SUB SWAP1 LOG3 POP POP POP JUMP JUMPDEST PUSH0 PUSH1 0x40 MLOAD SWAP1 POP SWAP1 JUMP JUMPDEST PUSH0 DUP1 REVERT JUMPDEST PUSH0 DUP1 REVERT JUMPDEST PUSH0 DUP1 REVERT JUMPDEST PUSH0 DUP1 REVERT JUMPDEST PUSH0 PUSH1 0x1F NOT PUSH1 0x1F DUP4 ADD AND SWAP1 POP SWAP2 SWAP1 POP JUMP JUMPDEST PUSH32 0x4E487B7100000000000000000000000000000000000000000000000000000000 PUSH0 MSTORE PUSH1 0x41 PUSH1 0x4 MSTORE PUSH1 0x24 PUSH0 REVERT JUMPDEST PUSH2 0x652 DUP3 PUSH2 0x60C JUMP JUMPDEST DUP2 ADD DUP2 DUP2 LT PUSH8 0xFFFFFFFFFFFFFFFF DUP3 GT OR ISZERO PUSH2 0x671 JUMPI PUSH2 0x670 PUSH2 0x61C JUMP JUMPDEST JUMPDEST DUP1 PUSH1 0x40 MSTORE POP POP POP JUMP JUMPDEST PUSH0 PUSH2 0x683 PUSH2 0x5F3 JUMP JUMPDEST SWAP1 POP PUSH2 0x68F DUP3 DUP3 PUSH2 0x649 JUMP JUMPDEST SWAP2 SWAP1 POP JUMP JUMPDEST PUSH0 PUSH8 0xFFFFFFFFFFFFFFFF DUP3 GT ISZERO PUSH2 0x6AE JUMPI PUSH2 0x6AD PUSH2 0x61C JUMP JUMPDEST JUMPDEST PUSH2 0x6B7 DUP3 PUSH2 0x60C JUMP JUMPDEST SWAP1 POP PUSH1 0x20 DUP2 ADD SWAP1 POP SWAP2 SWAP1 POP JUMP JUMPDEST DUP3 DUP2 DUP4 MCOPY PUSH0 DUP4 DUP4 ADD MSTORE POP POP POP JUMP JUMPDEST PUSH0 PUSH2 0x6E4 PUSH2 0x6DF DUP5 PUSH2 0x694 JUMP JUMPDEST PUSH2 0x67A JUMP JUMPDEST SWAP1 POP DUP3 DUP2 MSTORE PUSH1 0x20 DUP2 ADD DUP5 DUP5 DUP5 ADD GT ISZERO PUSH2 0x700 JUMPI PUSH2 0x6FF PUSH2 0x608 JUMP JUMPDEST JUMPDEST PUSH2 0x70B DUP5 DUP3 DUP6 PUSH2 0x6C4 JUMP JUMPDEST POP SWAP4 SWAP3 POP POP POP JUMP JUMPDEST PUSH0 DUP3 PUSH1 0x1F DUP4 ADD SLT PUSH2 0x727 JUMPI PUSH2 0x726 PUSH2 0x604 JUMP JUMPDEST JUMPDEST DUP2 MLOAD PUSH2 0x737 DUP5 DUP3 PUSH1 0x20 DUP7 ADD PUSH2 0x6D2 JUMP JUMPDEST SWAP2 POP POP SWAP3 SWAP2 POP POP JUMP JUMPDEST PUSH0 DUP2 SWAP1 POP SWAP2 SWAP1 POP JUMP JUMPDEST PUSH2 0x752 DUP2 PUSH2 0x740 JUMP JUMPDEST DUP2 EQ PUSH2 0x75C JUMPI PUSH0 DUP1 REVERT JUMPDEST POP JUMP JUMPDEST PUSH0 DUP2 MLOAD SWAP1 POP PUSH2 0x76D DUP2 PUSH2 0x749 JUMP JUMPDEST SWAP3 SWAP2 POP POP JUMP JUMPDEST PUSH0 PUSH20 0xFFFFFFFFFFFFFFFFFFFFFFFFFFFFFFFFFFFFFFFF DUP3 AND SWAP1 POP SWAP2 SWAP1 POP JUMP JUMPDEST PUSH0 PUSH2 0x79C DUP3 PUSH2 0x773 JUMP JUMPDEST SWAP1 POP SWAP2 SWAP1 POP JUMP JUMPDEST PUSH2 0x7AC DUP2 PUSH2 0x792 JUMP JUMPDEST DUP2 EQ PUSH2 0x7B6 JUMPI PUSH0 DUP1 REVERT JUMPDEST POP JUMP JUMPDEST PUSH0 DUP2 MLOAD SWAP1 POP PUSH2 0x7C7 DUP2 PUSH2 0x7A3 JUMP JUMPDEST SWAP3 SWAP2 POP POP JUMP JUMPDEST PUSH0 DUP1 PUSH0 DUP1 PUSH0 PUSH1 0xA0 DUP7 DUP9 SUB SLT ISZERO PUSH2 0x7E6 JUMPI PUSH2 0x7E5 PUSH2 0x5FC JUMP JUMPDEST JUMPDEST PUSH0 DUP7 ADD MLOAD PUSH8 0xFFFFFFFFFFFFFFFF DUP2 GT ISZERO PUSH2 0x803 JUMPI PUSH2 0x802 PUSH2 0x600 JUMP JUMPDEST JUMPDEST PUSH2 0x80F DUP9 DUP3 DUP10 ADD PUSH2 0x713 JUMP JUMPDEST SWAP6 POP POP PUSH1 0x20 DUP7 ADD MLOAD PUSH8 0xFFFFFFFFFFFFFFFF DUP2 GT ISZERO PUSH2 0x830 JUMPI PUSH2 0x82F PUSH2 0x600 JUMP JUMPDEST JUMPDEST PUSH2 0x83C DUP9 DUP3 DUP10 ADD PUSH2 0x713 JUMP JUMPDEST SWAP5 POP POP PUSH1 0x40 PUSH2 0x84D DUP9 DUP3 DUP10 ADD PUSH2 0x75F JUMP JUMPDEST SWAP4 POP POP PUSH1 0x60 PUSH2 0x85E DUP9 DUP3 DUP10 ADD PUSH2 0x7B9 JUMP JUMPDEST SWAP3 POP POP PUSH1 0x80 PUSH2 0x86F DUP9 DUP3 DUP10 ADD PUSH2 0x7B9 JUMP JUMPDEST SWAP2 POP POP SWAP3 SWAP6 POP SWAP3 SWAP6 SWAP1 SWAP4 POP JUMP JUMPDEST PUSH0 DUP2 MLOAD SWAP1 POP SWAP2 SWAP1 POP JUMP JUMPDEST PUSH32 0x4E487B7100000000000000000000000000000000000000000000000000000000 PUSH0 MSTORE PUSH1 0x22 PUSH1 0x4 MSTORE PUSH1 0x24 PUSH0 REVERT JUMPDEST PUSH0 PUSH1 0x2 DUP3 DIV SWAP1 POP PUSH1 0x1 DUP3 AND DUP1 PUSH2 0x8CA JUMPI PUSH1 0x7F DUP3 AND SWAP2 POP JUMPDEST PUSH1 0x20 DUP3 LT DUP2 SUB PUSH2 0x8DD JUMPI PUSH2 0x8DC PUSH2 0x886 JUMP JUMPDEST JUMPDEST POP SWAP2 SWAP1 POP JUMP JUMPDEST PUSH0 DUP2 SWAP1 POP DUP2 PUSH0 MSTORE PUSH1 0x20 PUSH0 KECCAK256 SWAP1 POP SWAP2 SWAP1 POP JUMP JUMPDEST PUSH0 PUSH1 0x20 PUSH1 0x1F DUP4 ADD DIV SWAP1 POP SWAP2 SWAP1 POP JUMP JUMPDEST PUSH0 DUP3 DUP3 SHL SWAP1 POP SWAP3 SWAP2 POP POP JUMP JUMPDEST PUSH0 PUSH1 0x8 DUP4 MUL PUSH2 0x93F PUSH32 0xFFFFFFFFFFFFFFFFFFFFFFFFFFFFFFFFFFFFFFFFFFFFFFFFFFFFFFFFFFFFFFFF DUP3 PUSH2 0x904 JUMP JUMPDEST PUSH2 0x949 DUP7 DUP4 PUSH2 0x904 JUMP JUMPDEST SWAP6 POP DUP1 NOT DUP5 AND SWAP4 POP DUP1 DUP7 AND DUP5 OR SWAP3 POP POP POP SWAP4 SWAP3 POP POP POP JUMP JUMPDEST PUSH0 DUP2 SWAP1 POP SWAP2 SWAP1 POP JUMP JUMPDEST PUSH0 PUSH2 0x984 PUSH2 0x97F PUSH2 0x97A DUP5 PUSH2 0x740 JUMP JUMPDEST PUSH2 0x961 JUMP JUMPDEST PUSH2 0x740 JUMP JUMPDEST SWAP1 POP SWAP2 SWAP1 POP JUMP JUMPDEST PUSH0 DUP2 SWAP1 POP SWAP2 SWAP1 POP JUMP JUMPDEST PUSH2 0x99D DUP4 PUSH2 0x96A JUMP JUMPDEST PUSH2 0x9B1 PUSH2 0x9A9 DUP3 PUSH2 0x98B JUMP JUMPDEST DUP5 DUP5 SLOAD PUSH2 0x910 JUMP JUMPDEST DUP3 SSTORE POP POP POP POP JUMP JUMPDEST PUSH0 SWAP1 JUMP JUMPDEST PUSH2 0x9C5 PUSH2 0x9B9 JUMP JUMPDEST PUSH2 0x9D0 DUP2 DUP5 DUP5 PUSH2 0x994 JUMP JUMPDEST POP POP POP JUMP JUMPDEST JUMPDEST DUP2 DUP2 LT ISZERO PUSH2 0x9F3 JUMPI PUSH2 0x9E8 PUSH0 DUP3 PUSH2 0x9BD JUMP JUMPDEST PUSH1 0x1 DUP2 ADD SWAP1 POP PUSH2 0x9D6 JUMP JUMPDEST POP POP JUMP JUMPDEST PUSH1 0x1F DUP3 GT ISZERO PUSH2 0xA38 JUMPI PUSH2 0xA09 DUP2 PUSH2 0x8E3 JUMP JUMPDEST PUSH2 0xA12 DUP5 PUSH2 0x8F5 JUMP JUMPDEST DUP2 ADD PUSH1 0x20 DUP6 LT ISZERO PUSH2 0xA21 JUMPI DUP2 SWAP1 POP JUMPDEST PUSH2 0xA35 PUSH2 0xA2D DUP6 PUSH2 0x8F5 JUMP JUMPDEST DUP4 ADD DUP3 PUSH2 0x9D5 JUMP JUMPDEST POP POP JUMPDEST POP POP POP JUMP JUMPDEST PUSH0 DUP3 DUP3 SHR SWAP1 POP SWAP3 SWAP2 POP POP JUMP JUMPDEST PUSH0 PUSH2 0xA58 PUSH0 NOT DUP5 PUSH1 0x8 MUL PUSH2 0xA3D JUMP JUMPDEST NOT DUP1 DUP4 AND SWAP2 POP POP SWAP3 SWAP2 POP POP JUMP JUMPDEST PUSH0 PUSH2 0xA70 DUP4 DUP4 PUSH2 0xA49 JUMP JUMPDEST SWAP2 POP DUP3 PUSH1 0x2 MUL DUP3 OR SWAP1 POP SWAP3 SWAP2 POP POP JUMP JUMPDEST PUSH2 0xA89 DUP3 PUSH2 0x87C JUMP JUMPDEST PUSH8 0xFFFFFFFFFFFFFFFF DUP2 GT ISZERO PUSH2 0xAA2 JUMPI PUSH2 0xAA1 PUSH2 0x61C JUMP JUMPDEST JUMPDEST PUSH2 0xAAC DUP3 SLOAD PUSH2 0x8B3 JUMP JUMPDEST PUSH2 0xAB7 DUP3 DUP3 DUP6 PUSH2 0x9F7 JUMP JUMPDEST PUSH0 PUSH1 0x20 SWAP1 POP PUSH1 0x1F DUP4 GT PUSH1 0x1 DUP2 EQ PUSH2 0xAE8 JUMPI PUSH0 DUP5 ISZERO PUSH2 0xAD6 JUMPI DUP3 DUP8 ADD MLOAD SWAP1 POP JUMPDEST PUSH2 0xAE0 DUP6 DUP3 PUSH2 0xA65 JUMP JUMPDEST DUP7 SSTORE POP PUSH2 0xB47 JUMP JUMPDEST PUSH1 0x1F NOT DUP5 AND PUSH2 0xAF6 DUP7 PUSH2 0x8E3 JUMP JUMPDEST PUSH0 JUMPDEST DUP3 DUP2 LT ISZERO PUSH2 0xB1D JUMPI DUP5 DUP10 ADD MLOAD DUP3 SSTORE PUSH1 0x1 DUP3 ADD SWAP2 POP PUSH1 0x20 DUP6 ADD SWAP5 POP PUSH1 0x20 DUP2 ADD SWAP1 POP PUSH2 0xAF8 JUMP JUMPDEST DUP7 DUP4 LT ISZERO PUSH2 0xB3A JUMPI DUP5 DUP10 ADD MLOAD PUSH2 0xB36 PUSH1 0x1F DUP10 AND DUP3 PUSH2 0xA49 JUMP JUMPDEST DUP4 SSTORE POP JUMPDEST PUSH1 0x1 PUSH1 0x2 DUP9 MUL ADD DUP9 SSTORE POP POP POP JUMPDEST POP POP POP POP POP POP JUMP JUMPDEST PUSH2 0xB58 DUP2 PUSH2 0x792 JUMP JUMPDEST DUP3 MSTORE POP POP JUMP JUMPDEST PUSH0 PUSH1 0x20 DUP3 ADD SWAP1 POP PUSH2 0xB71 PUSH0 DUP4 ADD DUP5 PUSH2 0xB4F JUMP JUMPDEST SWAP3 SWAP2 POP POP JUMP JUMPDEST PUSH32 0x4E487B7100000000000000000000000000000000000000000000000000000000 PUSH0 MSTORE PUSH1 0x11 PUSH1 0x4 MSTORE PUSH1 0x24 PUSH0 REVERT JUMPDEST PUSH0 PUSH2 0xBAE DUP3 PUSH2 0x740 JUMP JUMPDEST SWAP2 POP PUSH2 0xBB9 DUP4 PUSH2 0x740 JUMP JUMPDEST SWAP3 POP DUP3 DUP3 ADD SWAP1 POP DUP1 DUP3 GT ISZERO PUSH2 0xBD1 JUMPI PUSH2 0xBD0 PUSH2 0xB77 JUMP JUMPDEST JUMPDEST SWAP3 SWAP2 POP POP JUMP JUMPDEST PUSH2 0xBE0 DUP2 PUSH2 0x740 JUMP JUMPDEST DUP3 MSTORE POP POP JUMP JUMPDEST PUSH0 PUSH1 0x60 DUP3 ADD SWAP1 POP PUSH2 0xBF9 PUSH0 DUP4 ADD DUP7 PUSH2 0xB4F JUMP JUMPDEST PUSH2 0xC06 PUSH1 0x20 DUP4 ADD DUP6 PUSH2 0xBD7 JUMP JUMPDEST PUSH2 0xC13 PUSH1 0x40 DUP4 ADD DUP5 PUSH2 0xBD7 JUMP JUMPDEST SWAP5 SWAP4 POP POP POP POP JUMP JUMPDEST PUSH0 PUSH1 0x20 DUP3 ADD SWAP1 POP PUSH2 0xC2E PUSH0 DUP4 ADD DUP5 PUSH2 0xBD7 JUMP JUMPDEST SWAP3 SWAP2 POP POP JUMP JUMPDEST PUSH2 0x2627 DUP1 PUSH2 0xC41 PUSH0 CODECOPY PUSH0 RETURN INVALID PUSH1 0x80 PUSH1 0x40 MSTORE CALLVALUE DUP1 ISZERO PUSH2 0xF JUMPI PUSH0 DUP1 REVERT JUMPDEST POP PUSH1 0x4 CALLDATASIZE LT PUSH2 0x1CD JUMPI PUSH0 CALLDATALOAD PUSH1 0xE0 SHR DUP1 PUSH4 0x8DA5CB5B GT PUSH2 0x102 JUMPI DUP1 PUSH4 0xC0008D0C GT PUSH2 0xA0 JUMPI DUP1 PUSH4 0xD06A2E0E GT PUSH2 0x6F JUMPI DUP1 PUSH4 0xD06A2E0E EQ PUSH2 0x4E7 JUMPI DUP1 PUSH4 0xDD62ED3E EQ PUSH2 0x503 JUMPI DUP1 PUSH4 0xF2FDE38B EQ PUSH2 0x533 JUMPI DUP1 PUSH4 0xF4F831A0 EQ PUSH2 0x54F JUMPI PUSH2 0x1CD JUMP JUMPDEST DUP1 PUSH4 0xC0008D0C EQ PUSH2 0x487 JUMPI DUP1 PUSH4 0xC1F3BDDE EQ PUSH2 0x4A3 JUMPI DUP1 PUSH4 0xCA1C7238 EQ PUSH2 0x4C1 JUMPI DUP1 PUSH4 0xCE55B584 EQ PUSH2 0x4CB JUMPI PUSH2 0x1CD JUMP JUMPDEST DUP1 PUSH4 0xA3262EA2 GT PUSH2 0xDC JUMPI DUP1 PUSH4 0xA3262EA2 EQ PUSH2 0x3EB JUMPI DUP1 PUSH4 0xA6EC1C6D EQ PUSH2 0x409 JUMPI DUP1 PUSH4 0xA775CED3 EQ PUSH2 0x439 JUMPI DUP1 PUSH4 0xA9059CBB EQ PUSH2 0x457 JUMPI PUSH2 0x1CD JUMP JUMPDEST DUP1 PUSH4 0x8DA5CB5B EQ PUSH2 0x37F JUMPI DUP1 PUSH4 0x95D89B41 EQ PUSH2 0x39D JUMPI DUP1 PUSH4 0x9778D0CD EQ PUSH2 0x3BB JUMPI PUSH2 0x1CD JUMP JUMPDEST DUP1 PUSH4 0x43F48FBD GT PUSH2 0x16F JUMPI DUP1 PUSH4 0x715018A6 GT PUSH2 0x149 JUMPI DUP1 PUSH4 0x715018A6 EQ PUSH2 0x333 JUMPI DUP1 PUSH4 0x8456CB59 EQ PUSH2 0x33D JUMPI DUP1 PUSH4 0x849D13A3 EQ PUSH2 0x347 JUMPI DUP1 PUSH4 0x8D9D7307 EQ PUSH2 0x363 JUMPI PUSH2 0x1CD JUMP JUMPDEST DUP1 PUSH4 0x43F48FBD EQ PUSH2 0x2C5 JUMPI DUP1 PUSH4 0x5C975ABB EQ PUSH2 0x2E5 JUMPI DUP1 PUSH4 0x70A08231 EQ PUSH2 0x303 JUMPI PUSH2 0x1CD JUMP JUMPDEST DUP1 PUSH4 0x23B872DD GT PUSH2 0x1AB JUMPI DUP1 PUSH4 0x23B872DD EQ PUSH2 0x23D JUMPI DUP1 PUSH4 0x2A504A97 EQ PUSH2 0x26D JUMPI DUP1 PUSH4 0x313CE567 EQ PUSH2 0x29D JUMPI DUP1 PUSH4 0x3F4BA83A EQ PUSH2 0x2BB JUMPI PUSH2 0x1CD JUMP JUMPDEST DUP1 PUSH4 0x6FDDE03 EQ PUSH2 0x1D1 JUMPI DUP1 PUSH4 0x95EA7B3 EQ PUSH2 0x1EF JUMPI DUP1 PUSH4 0x18160DDD EQ PUSH2 0x21F JUMPI JUMPDEST PUSH0 DUP1 REVERT JUMPDEST PUSH2 0x1D9 PUSH2 0x56D JUMP JUMPDEST PUSH1 0x40 MLOAD PUSH2 0x1E6 SWAP2 SWAP1 PUSH2 0x1D92 JUMP JUMPDEST PUSH1 0x40 MLOAD DUP1 SWAP2 SUB SWAP1 RETURN JUMPDEST PUSH2 0x209 PUSH1 0x4 DUP1 CALLDATASIZE SUB DUP2 ADD SWAP1 PUSH2 0x204 SWAP2 SWAP1 PUSH2 0x1E47 JUMP JUMPDEST PUSH2 0x5FD JUMP JUMPDEST PUSH1 0x40 MLOAD PUSH2 0x216 SWAP2 SWAP1 PUSH2 0x1E9F JUMP JUMPDEST PUSH1 0x40 MLOAD DUP1 SWAP2 SUB SWAP1 RETURN JUMPDEST PUSH2 0x227 PUSH2 0x61F JUMP JUMPDEST PUSH1 0x40 MLOAD PUSH2 0x234 SWAP2 SWAP1 PUSH2 0x1EC7 JUMP JUMPDEST PUSH1 0x40 MLOAD DUP1 SWAP2 SUB SWAP1 RETURN JUMPDEST PUSH2 0x257 PUSH1 0x4 DUP1 CALLDATASIZE SUB DUP2 ADD SWAP1 PUSH2 0x252 SWAP2 SWAP1 PUSH2 0x1EE0 JUMP JUMPDEST PUSH2 0x628 JUMP JUMPDEST PUSH1 0x40 MLOAD PUSH2 0x264 SWAP2 SWAP1 PUSH2 0x1E9F JUMP JUMPDEST PUSH1 0x40 MLOAD DUP1 SWAP2 SUB SWAP1 RETURN JUMPDEST PUSH2 0x287 PUSH1 0x4 DUP1 CALLDATASIZE SUB DUP2 ADD SWAP1 PUSH2 0x282 SWAP2 SWAP1 PUSH2 0x1F30 JUMP JUMPDEST PUSH2 0x645 JUMP JUMPDEST PUSH1 0x40 MLOAD PUSH2 0x294 SWAP2 SWAP1 PUSH2 0x1EC7 JUMP JUMPDEST PUSH1 0x40 MLOAD DUP1 SWAP2 SUB SWAP1 RETURN JUMPDEST PUSH2 0x2A5 PUSH2 0x65A JUMP JUMPDEST PUSH1 0x40 MLOAD PUSH2 0x2B2 SWAP2 SWAP1 PUSH2 0x1F76 JUMP JUMPDEST PUSH1 0x40 MLOAD DUP1 SWAP2 SUB SWAP1 RETURN JUMPDEST PUSH2 0x2C3 PUSH2 0x662 JUMP JUMPDEST STOP JUMPDEST PUSH2 0x2CD PUSH2 0x674 JUMP JUMPDEST PUSH1 0x40 MLOAD PUSH2 0x2DC SWAP4 SWAP3 SWAP2 SWAP1 PUSH2 0x1F8F JUMP JUMPDEST PUSH1 0x40 MLOAD DUP1 SWAP2 SUB SWAP1 RETURN JUMPDEST PUSH2 0x2ED PUSH2 0x68B JUMP JUMPDEST PUSH1 0x40 MLOAD PUSH2 0x2FA SWAP2 SWAP1 PUSH2 0x1E9F JUMP JUMPDEST PUSH1 0x40 MLOAD DUP1 SWAP2 SUB SWAP1 RETURN JUMPDEST PUSH2 0x31D PUSH1 0x4 DUP1 CALLDATASIZE SUB DUP2 ADD SWAP1 PUSH2 0x318 SWAP2 SWAP1 PUSH2 0x1F30 JUMP JUMPDEST PUSH2 0x6A0 JUMP JUMPDEST PUSH1 0x40 MLOAD PUSH2 0x32A SWAP2 SWAP1 PUSH2 0x1EC7 JUMP JUMPDEST PUSH1 0x40 MLOAD DUP1 SWAP2 SUB SWAP1 RETURN JUMPDEST PUSH2 0x33B PUSH2 0x6E5 JUMP JUMPDEST STOP JUMPDEST PUSH2 0x345 PUSH2 0x6F8 JUMP JUMPDEST STOP JUMPDEST PUSH2 0x361 PUSH1 0x4 DUP1 CALLDATASIZE SUB DUP2 ADD SWAP1 PUSH2 0x35C SWAP2 SWAP1 PUSH2 0x1FE6 JUMP JUMPDEST PUSH2 0x70A JUMP JUMPDEST STOP JUMPDEST PUSH2 0x37D PUSH1 0x4 DUP1 CALLDATASIZE SUB DUP2 ADD SWAP1 PUSH2 0x378 SWAP2 SWAP1 PUSH2 0x2072 JUMP JUMPDEST PUSH2 0x76D JUMP JUMPDEST STOP JUMPDEST PUSH2 0x387 PUSH2 0x98B JUMP JUMPDEST PUSH1 0x40 MLOAD PUSH2 0x394 SWAP2 SWAP1 PUSH2 0x20DE JUMP JUMPDEST PUSH1 0x40 MLOAD DUP1 SWAP2 SUB SWAP1 RETURN JUMPDEST PUSH2 0x3A5 PUSH2 0x9B4 JUMP JUMPDEST PUSH1 0x40 MLOAD PUSH2 0x3B2 SWAP2 SWAP1 PUSH2 0x1D92 JUMP JUMPDEST PUSH1 0x40 MLOAD DUP1 SWAP2 SUB SWAP1 RETURN JUMPDEST PUSH2 0x3D5 PUSH1 0x4 DUP1 CALLDATASIZE SUB DUP2 ADD SWAP1 PUSH2 0x3D0 SWAP2 SWAP1 PUSH2 0x1F30 JUMP JUMPDEST PUSH2 0xA44 JUMP JUMPDEST PUSH1 0x40 MLOAD PUSH2 0x3E2 SWAP2 SWAP1 PUSH2 0x1EC7 JUMP JUMPDEST PUSH1 0x40 MLOAD DUP1 SWAP2 SUB SWAP1 RETURN JUMPDEST PUSH2 0x3F3 PUSH2 0xA59 JUMP JUMPDEST PUSH1 0x40 MLOAD PUSH2 0x400 SWAP2 SWAP1 PUSH2 0x20DE JUMP JUMPDEST PUSH1 0x40 MLOAD DUP1 SWAP2 SUB SWAP1 RETURN JUMPDEST PUSH2 0x423 PUSH1 0x4 DUP1 CALLDATASIZE SUB DUP2 ADD SWAP1 PUSH2 0x41E SWAP2 SWAP1 PUSH2 0x1F30 JUMP JUMPDEST PUSH2 0xA7E JUMP JUMPDEST PUSH1 0x40 MLOAD PUSH2 0x430 SWAP2 SWAP1 PUSH2 0x1EC7 JUMP JUMPDEST PUSH1 0x40 MLOAD DUP1 SWAP2 SUB SWAP1 RETURN JUMPDEST PUSH2 0x441 PUSH2 0xA93 JUMP JUMPDEST PUSH1 0x40 MLOAD PUSH2 0x44E SWAP2 SWAP1 PUSH2 0x20DE JUMP JUMPDEST PUSH1 0x40 MLOAD DUP1 SWAP2 SUB SWAP1 RETURN JUMPDEST PUSH2 0x471 PUSH1 0x4 DUP1 CALLDATASIZE SUB DUP2 ADD SWAP1 PUSH2 0x46C SWAP2 SWAP1 PUSH2 0x1E47 JUMP JUMPDEST PUSH2 0xAB8 JUMP JUMPDEST PUSH1 0x40 MLOAD PUSH2 0x47E SWAP2 SWAP1 PUSH2 0x1E9F JUMP JUMPDEST PUSH1 0x40 MLOAD DUP1 SWAP2 SUB SWAP1 RETURN JUMPDEST PUSH2 0x4A1 PUSH1 0x4 DUP1 CALLDATASIZE SUB DUP2 ADD SWAP1 PUSH2 0x49C SWAP2 SWAP1 PUSH2 0x20F7 JUMP JUMPDEST PUSH2 0xAD3 JUMP JUMPDEST STOP JUMPDEST PUSH2 0x4AB PUSH2 0xE00 JUMP JUMPDEST PUSH1 0x40 MLOAD PUSH2 0x4B8 SWAP2 SWAP1 PUSH2 0x1EC7 JUMP JUMPDEST PUSH1 0x40 MLOAD DUP1 SWAP2 SUB SWAP1 RETURN JUMPDEST PUSH2 0x4C9 PUSH2 0xE07 JUMP JUMPDEST STOP JUMPDEST PUSH2 0x4E5 PUSH1 0x4 DUP1 CALLDATASIZE SUB DUP2 ADD SWAP1 PUSH2 0x4E0 SWAP2 SWAP1 PUSH2 0x2154 JUMP JUMPDEST PUSH2 0xEE8 JUMP JUMPDEST STOP JUMPDEST PUSH2 0x501 PUSH1 0x4 DUP1 CALLDATASIZE SUB DUP2 ADD SWAP1 PUSH2 0x4FC SWAP2 SWAP1 PUSH2 0x1E47 JUMP JUMPDEST PUSH2 0xF31 JUMP JUMPDEST STOP JUMPDEST PUSH2 0x51D PUSH1 0x4 DUP1 CALLDATASIZE SUB DUP2 ADD SWAP1 PUSH2 0x518 SWAP2 SWAP1 PUSH2 0x217F JUMP JUMPDEST PUSH2 0x11EF JUMP JUMPDEST PUSH1 0x40 MLOAD PUSH2 0x52A SWAP2 SWAP1 PUSH2 0x1EC7 JUMP JUMPDEST PUSH1 0x40 MLOAD DUP1 SWAP2 SUB SWAP1 RETURN JUMPDEST PUSH2 0x54D PUSH1 0x4 DUP1 CALLDATASIZE SUB DUP2 ADD SWAP1 PUSH2 0x548 SWAP2 SWAP1 PUSH2 0x1F30 JUMP JUMPDEST PUSH2 0x1271 JUMP JUMPDEST STOP JUMPDEST PUSH2 0x557 PUSH2 0x12F5 JUMP JUMPDEST PUSH1 0x40 MLOAD PUSH2 0x564 SWAP2 SWAP1 PUSH2 0x1EC7 JUMP JUMPDEST PUSH1 0x40 MLOAD DUP1 SWAP2 SUB SWAP1 RETURN JUMPDEST PUSH1 0x60 PUSH1 0x3 DUP1 SLOAD PUSH2 0x57C SWAP1 PUSH2 0x21EA JUMP JUMPDEST DUP1 PUSH1 0x1F ADD PUSH1 0x20 DUP1 SWAP2 DIV MUL PUSH1 0x20 ADD PUSH1 0x40 MLOAD SWAP1 DUP2 ADD PUSH1 0x40 MSTORE DUP1 SWAP3 SWAP2 SWAP1 DUP2 DUP2 MSTORE PUSH1 0x20 ADD DUP3 DUP1 SLOAD PUSH2 0x5A8 SWAP1 PUSH2 0x21EA JUMP JUMPDEST DUP1 ISZERO PUSH2 0x5F3 JUMPI DUP1 PUSH1 0x1F LT PUSH2 0x5CA JUMPI PUSH2 0x100 DUP1 DUP4 SLOAD DIV MUL DUP4 MSTORE SWAP2 PUSH1 0x20 ADD SWAP2 PUSH2 0x5F3 JUMP JUMPDEST DUP3 ADD SWAP2 SWAP1 PUSH0 MSTORE PUSH1 0x20 PUSH0 KECCAK256 SWAP1 JUMPDEST DUP2 SLOAD DUP2 MSTORE SWAP1 PUSH1 0x1 ADD SWAP1 PUSH1 0x20 ADD DUP1 DUP4 GT PUSH2 0x5D6 JUMPI DUP3 SWAP1 SUB PUSH1 0x1F AND DUP3 ADD SWAP2 JUMPDEST POP POP POP POP POP SWAP1 POP SWAP1 JUMP JUMPDEST PUSH0 DUP1 PUSH2 0x607 PUSH2 0x12FB JUMP JUMPDEST SWAP1 POP PUSH2 0x614 DUP2 DUP6 DUP6 PUSH2 0x1302 JUMP JUMPDEST PUSH1 0x1 SWAP2 POP POP SWAP3 SWAP2 POP POP JUMP JUMPDEST PUSH0 PUSH1 0x2 SLOAD SWAP1 POP SWAP1 JUMP JUMPDEST PUSH0 PUSH2 0x631 PUSH2 0x1314 JUMP JUMPDEST PUSH2 0x63C DUP5 DUP5 DUP5 PUSH2 0x135E JUMP JUMPDEST SWAP1 POP SWAP4 SWAP3 POP POP POP JUMP JUMPDEST PUSH1 0xD PUSH1 0x20 MSTORE DUP1 PUSH0 MSTORE PUSH1 0x40 PUSH0 KECCAK256 PUSH0 SWAP2 POP SWAP1 POP SLOAD DUP2 JUMP JUMPDEST PUSH0 PUSH1 0x12 SWAP1 POP SWAP1 JUMP JUMPDEST PUSH2 0x66A PUSH2 0x138C JUMP JUMPDEST PUSH2 0x672 PUSH2 0x1413 JUMP JUMPDEST JUMP JUMPDEST PUSH1 0x7 DUP1 PUSH0 ADD SLOAD SWAP1 DUP1 PUSH1 0x1 ADD SLOAD SWAP1 DUP1 PUSH1 0x2 ADD SLOAD SWAP1 POP DUP4 JUMP JUMPDEST PUSH0 PUSH1 0x5 PUSH0 SWAP1 SLOAD SWAP1 PUSH2 0x100 EXP SWAP1 DIV PUSH1 0xFF AND SWAP1 POP SWAP1 JUMP JUMPDEST PUSH0 DUP1 PUSH0 DUP4 PUSH20 0xFFFFFFFFFFFFFFFFFFFFFFFFFFFFFFFFFFFFFFFF AND PUSH20 0xFFFFFFFFFFFFFFFFFFFFFFFFFFFFFFFFFFFFFFFF AND DUP2 MSTORE PUSH1 0x20 ADD SWAP1 DUP2 MSTORE PUSH1 0x20 ADD PUSH0 KECCAK256 SLOAD SWAP1 POP SWAP2 SWAP1 POP JUMP JUMPDEST PUSH2 0x6ED PUSH2 0x138C JUMP JUMPDEST PUSH2 0x6F6 PUSH0 PUSH2 0x1474 JUMP JUMPDEST JUMP JUMPDEST PUSH2 0x700 PUSH2 0x138C JUMP JUMPDEST PUSH2 0x708 PUSH2 0x1539 JUMP JUMPDEST JUMP JUMPDEST PUSH2 0x712 PUSH2 0x138C JUMP JUMPDEST DUP1 PUSH1 0x7 DUP2 DUP2 PUSH2 0x721 SWAP2 SWAP1 PUSH2 0x2336 JUMP JUMPDEST SWAP1 POP POP PUSH32 0x23010BC68E7F4C0BE9887F513C570C7A0F5F511B9716ABCCD42BF3B8943532B DUP2 PUSH0 ADD CALLDATALOAD DUP3 PUSH1 0x20 ADD CALLDATALOAD DUP4 PUSH1 0x40 ADD CALLDATALOAD PUSH1 0x40 MLOAD PUSH2 0x762 SWAP4 SWAP3 SWAP2 SWAP1 PUSH2 0x1F8F JUMP JUMPDEST PUSH1 0x40 MLOAD DUP1 SWAP2 SUB SWAP1 LOG1 POP JUMP JUMPDEST PUSH2 0x775 PUSH2 0x138C JUMP JUMPDEST PUSH0 PUSH20 0xFFFFFFFFFFFFFFFFFFFFFFFFFFFFFFFFFFFFFFFF AND DUP2 PUSH20 0xFFFFFFFFFFFFFFFFFFFFFFFFFFFFFFFFFFFFFFFF AND SUB PUSH2 0x7DA JUMPI PUSH1 0x40 MLOAD PUSH32 0xE6C4247B00000000000000000000000000000000000000000000000000000000 DUP2 MSTORE PUSH1 0x4 ADD PUSH1 0x40 MLOAD DUP1 SWAP2 SUB SWAP1 REVERT JUMPDEST PUSH1 0x40 MLOAD DUP1 PUSH1 0x40 ADD PUSH1 0x40 MSTORE DUP1 PUSH1 0x3 DUP2 MSTORE PUSH1 0x20 ADD PUSH32 0x6E66740000000000000000000000000000000000000000000000000000000000 DUP2 MSTORE POP DUP1 MLOAD SWAP1 PUSH1 0x20 ADD KECCAK256 DUP4 DUP4 PUSH1 0x40 MLOAD PUSH2 0x827 SWAP3 SWAP2 SWAP1 PUSH2 0x2380 JUMP JUMPDEST PUSH1 0x40 MLOAD DUP1 SWAP2 SUB SWAP1 KECCAK256 SUB PUSH2 0x879 JUMPI DUP1 PUSH1 0xB PUSH0 PUSH2 0x100 EXP DUP2 SLOAD DUP2 PUSH20 0xFFFFFFFFFFFFFFFFFFFFFFFFFFFFFFFFFFFFFFFF MUL NOT AND SWAP1 DUP4 PUSH20 0xFFFFFFFFFFFFFFFFFFFFFFFFFFFFFFFFFFFFFFFF AND MUL OR SWAP1 SSTORE POP PUSH2 0x94B JUMP JUMPDEST PUSH1 0x40 MLOAD DUP1 PUSH1 0x40 ADD PUSH1 0x40 MSTORE DUP1 PUSH1 0x7 DUP2 MSTORE PUSH1 0x20 ADD PUSH32 0x686973746F727900000000000000000000000000000000000000000000000000 DUP2 MSTORE POP DUP1 MLOAD SWAP1 PUSH1 0x20 ADD KECCAK256 DUP4 DUP4 PUSH1 0x40 MLOAD PUSH2 0x8C6 SWAP3 SWAP2 SWAP1 PUSH2 0x2380 JUMP JUMPDEST PUSH1 0x40 MLOAD DUP1 SWAP2 SUB SWAP1 KECCAK256 SUB PUSH2 0x918 JUMPI DUP1 PUSH1 0xC PUSH0 PUSH2 0x100 EXP DUP2 SLOAD DUP2 PUSH20 0xFFFFFFFFFFFFFFFFFFFFFFFFFFFFFFFFFFFFFFFF MUL NOT AND SWAP1 DUP4 PUSH20 0xFFFFFFFFFFFFFFFFFFFFFFFFFFFFFFFFFFFFFFFF AND MUL OR SWAP1 SSTORE POP PUSH2 0x94A JUMP JUMPDEST PUSH1 0x40 MLOAD PUSH32 0x6A43F8D100000000000000000000000000000000000000000000000000000000 DUP2 MSTORE PUSH1 0x4 ADD PUSH1 0x40 MLOAD DUP1 SWAP2 SUB SWAP1 REVERT JUMPDEST JUMPDEST PUSH32 0xF611FEC7BABEFD259C57EA5B6006ACFF8140AB17BB816C65BA0AA7E36C09CAA8 DUP4 DUP4 DUP4 PUSH1 0x40 MLOAD PUSH2 0x97E SWAP4 SWAP3 SWAP2 SWAP1 PUSH2 0x23C4 JUMP JUMPDEST PUSH1 0x40 MLOAD DUP1 SWAP2 SUB SWAP1 LOG1 POP POP POP JUMP JUMPDEST PUSH0 PUSH1 0x5 PUSH1 0x1 SWAP1 SLOAD SWAP1 PUSH2 0x100 EXP SWAP1 DIV PUSH20 0xFFFFFFFFFFFFFFFFFFFFFFFFFFFFFFFFFFFFFFFF AND SWAP1 POP SWAP1 JUMP JUMPDEST PUSH1 0x60 PUSH1 0x4 DUP1 SLOAD PUSH2 0x9C3 SWAP1 PUSH2 0x21EA JUMP JUMPDEST DUP1 PUSH1 0x1F ADD PUSH1 0x20 DUP1 SWAP2 DIV MUL PUSH1 0x20 ADD PUSH1 0x40 MLOAD SWAP1 DUP2 ADD PUSH1 0x40 MSTORE DUP1 SWAP3 SWAP2 SWAP1 DUP2 DUP2 MSTORE PUSH1 0x20 ADD DUP3 DUP1 SLOAD PUSH2 0x9EF SWAP1 PUSH2 0x21EA JUMP JUMPDEST DUP1 ISZERO PUSH2 0xA3A JUMPI DUP1 PUSH1 0x1F LT PUSH2 0xA11 JUMPI PUSH2 0x100 DUP1 DUP4 SLOAD DIV MUL DUP4 MSTORE SWAP2 PUSH1 0x20 ADD SWAP2 PUSH2 0xA3A JUMP JUMPDEST DUP3 ADD SWAP2 SWAP1 PUSH0 MSTORE PUSH1 0x20 PUSH0 KECCAK256 SWAP1 JUMPDEST DUP2 SLOAD DUP2 MSTORE SWAP1 PUSH1 0x1 ADD SWAP1 PUSH1 0x20 ADD DUP1 DUP4 GT PUSH2 0xA1D JUMPI DUP3 SWAP1 SUB PUSH1 0x1F AND DUP3 ADD SWAP2 JUMPDEST POP POP POP POP POP SWAP1 POP SWAP1 JUMP JUMPDEST PUSH1 0xE PUSH1 0x20 MSTORE DUP1 PUSH0 MSTORE PUSH1 0x40 PUSH0 KECCAK256 PUSH0 SWAP2 POP SWAP1 POP SLOAD DUP2 JUMP JUMPDEST PUSH1 0xB PUSH0 SWAP1 SLOAD SWAP1 PUSH2 0x100 EXP SWAP1 DIV PUSH20 0xFFFFFFFFFFFFFFFFFFFFFFFFFFFFFFFFFFFFFFFF AND DUP2 JUMP JUMPDEST PUSH1 0xF PUSH1 0x20 MSTORE DUP1 PUSH0 MSTORE PUSH1 0x40 PUSH0 KECCAK256 PUSH0 SWAP2 POP SWAP1 POP SLOAD DUP2 JUMP JUMPDEST PUSH1 0xC PUSH0 SWAP1 SLOAD SWAP1 PUSH2 0x100 EXP SWAP1 DIV PUSH20 0xFFFFFFFFFFFFFFFFFFFFFFFFFFFFFFFFFFFFFFFF AND DUP2 JUMP JUMPDEST PUSH0 PUSH2 0xAC1 PUSH2 0x1314 JUMP JUMPDEST PUSH2 0xACB DUP4 DUP4 PUSH2 0x159B JUMP JUMPDEST SWAP1 POP SWAP3 SWAP2 POP POP JUMP JUMPDEST PUSH1 0xB PUSH0 SWAP1 SLOAD SWAP1 PUSH2 0x100 EXP SWAP1 DIV PUSH20 0xFFFFFFFFFFFFFFFFFFFFFFFFFFFFFFFFFFFFFFFF AND PUSH20 0xFFFFFFFFFFFFFFFFFFFFFFFFFFFFFFFFFFFFFFFF AND CALLER PUSH20 0xFFFFFFFFFFFFFFFFFFFFFFFFFFFFFFFFFFFFFFFF AND EQ ISZERO DUP1 ISZERO PUSH2 0xB7D JUMPI POP PUSH1 0xC PUSH0 SWAP1 SLOAD SWAP1 PUSH2 0x100 EXP SWAP1 DIV PUSH20 0xFFFFFFFFFFFFFFFFFFFFFFFFFFFFFFFFFFFFFFFF AND PUSH20 0xFFFFFFFFFFFFFFFFFFFFFFFFFFFFFFFFFFFFFFFF AND CALLER PUSH20 0xFFFFFFFFFFFFFFFFFFFFFFFFFFFFFFFFFFFFFFFF AND EQ ISZERO JUMPDEST ISZERO PUSH2 0xBB4 JUMPI PUSH1 0x40 MLOAD PUSH32 0x5C427CD900000000000000000000000000000000000000000000000000000000 DUP2 MSTORE PUSH1 0x4 ADD PUSH1 0x40 MLOAD DUP1 SWAP2 SUB SWAP1 REVERT JUMPDEST PUSH2 0xBBC PUSH2 0x1314 JUMP JUMPDEST PUSH0 PUSH1 0x40 MLOAD DUP1 PUSH1 0x40 ADD PUSH1 0x40 MSTORE DUP1 PUSH1 0x5 DUP2 MSTORE PUSH1 0x20 ADD PUSH32 0x6469617279000000000000000000000000000000000000000000000000000000 DUP2 MSTORE POP DUP1 MLOAD SWAP1 PUSH1 0x20 ADD KECCAK256 DUP4 DUP4 PUSH1 0x40 MLOAD PUSH2 0xC0A SWAP3 SWAP2 SWAP1 PUSH2 0x2380 JUMP JUMPDEST PUSH1 0x40 MLOAD DUP1 SWAP2 SUB SWAP1 KECCAK256 SUB PUSH2 0xC24 JUMPI PUSH1 0x7 PUSH1 0x1 ADD SLOAD SWAP1 POP PUSH2 0xCBE JUMP JUMPDEST PUSH1 0x40 MLOAD DUP1 PUSH1 0x40 ADD PUSH1 0x40 MSTORE DUP1 PUSH1 0x5 DUP2 MSTORE PUSH1 0x20 ADD PUSH32 0x70686F746F000000000000000000000000000000000000000000000000000000 DUP2 MSTORE POP DUP1 MLOAD SWAP1 PUSH1 0x20 ADD KECCAK256 DUP4 DUP4 PUSH1 0x40 MLOAD PUSH2 0xC71 SWAP3 SWAP2 SWAP1 PUSH2 0x2380 JUMP JUMPDEST PUSH1 0x40 MLOAD DUP1 SWAP2 SUB SWAP1 KECCAK256 SUB PUSH2 0xC8B JUMPI PUSH1 0x7 PUSH1 0x2 ADD SLOAD SWAP1 POP PUSH2 0xCBD JUMP JUMPDEST PUSH1 0x40 MLOAD PUSH32 0x6A43F8D100000000000000000000000000000000000000000000000000000000 DUP2 MSTORE PUSH1 0x4 ADD PUSH1 0x40 MLOAD DUP1 SWAP2 SUB SWAP1 REVERT JUMPDEST JUMPDEST PUSH2 0xCC7 DUP5 PUSH2 0x15BD JUMP JUMPDEST PUSH1 0xA SLOAD DUP2 PUSH1 0xF PUSH0 DUP8 PUSH20 0xFFFFFFFFFFFFFFFFFFFFFFFFFFFFFFFFFFFFFFFF AND PUSH20 0xFFFFFFFFFFFFFFFFFFFFFFFFFFFFFFFFFFFFFFFF AND DUP2 MSTORE PUSH1 0x20 ADD SWAP1 DUP2 MSTORE PUSH1 0x20 ADD PUSH0 KECCAK256 SLOAD PUSH2 0xD13 SWAP2 SWAP1 PUSH2 0x2421 JUMP JUMPDEST GT ISZERO PUSH2 0xD4B JUMPI PUSH1 0x40 MLOAD PUSH32 0xD75747F600000000000000000000000000000000000000000000000000000000 DUP2 MSTORE PUSH1 0x4 ADD PUSH1 0x40 MLOAD DUP1 SWAP2 SUB SWAP1 REVERT JUMPDEST DUP1 PUSH1 0xF PUSH0 DUP7 PUSH20 0xFFFFFFFFFFFFFFFFFFFFFFFFFFFFFFFFFFFFFFFF AND PUSH20 0xFFFFFFFFFFFFFFFFFFFFFFFFFFFFFFFFFFFFFFFF AND DUP2 MSTORE PUSH1 0x20 ADD SWAP1 DUP2 MSTORE PUSH1 0x20 ADD PUSH0 KECCAK256 PUSH0 DUP3 DUP3 SLOAD PUSH2 0xD97 SWAP2 SWAP1 PUSH2 0x2421 JUMP JUMPDEST SWAP3 POP POP DUP2 SWAP1 SSTORE POP PUSH2 0xDA8 DUP5 DUP3 PUSH2 0x1697 JUMP JUMPDEST DUP4 PUSH20 0xFFFFFFFFFFFFFFFFFFFFFFFFFFFFFFFFFFFFFFFF AND PUSH32 0x21A82678DAA5235B7B5DE669FDF9599453D3D885CEE0826E92636D747419689C DUP3 DUP6 DUP6 PUSH1 0x40 MLOAD PUSH2 0xDF2 SWAP4 SWAP3 SWAP2 SWAP1 PUSH2 0x2454 JUMP JUMPDEST PUSH1 0x40 MLOAD DUP1 SWAP2 SUB SWAP1 LOG2 POP POP POP POP JUMP JUMPDEST PUSH3 0x15180 DUP2 JUMP JUMPDEST PUSH2 0xE0F PUSH2 0x1716 JUMP JUMPDEST PUSH2 0xE17 PUSH2 0x1314 JUMP JUMPDEST PUSH0 PUSH1 0xD PUSH0 CALLER PUSH20 0xFFFFFFFFFFFFFFFFFFFFFFFFFFFFFFFFFFFFFFFF AND PUSH20 0xFFFFFFFFFFFFFFFFFFFFFFFFFFFFFFFFFFFFFFFF AND DUP2 MSTORE PUSH1 0x20 ADD SWAP1 DUP2 MSTORE PUSH1 0x20 ADD PUSH0 KECCAK256 SLOAD SWAP1 POP PUSH0 DUP2 SUB PUSH2 0xE91 JUMPI PUSH1 0x40 MLOAD PUSH32 0xF4D678B800000000000000000000000000000000000000000000000000000000 DUP2 MSTORE PUSH1 0x4 ADD PUSH1 0x40 MLOAD DUP1 SWAP2 SUB SWAP1 REVERT JUMPDEST PUSH0 PUSH1 0xD PUSH0 CALLER PUSH20 0xFFFFFFFFFFFFFFFFFFFFFFFFFFFFFFFFFFFFFFFF AND PUSH20 0xFFFFFFFFFFFFFFFFFFFFFFFFFFFFFFFFFFFFFFFF AND DUP2 MSTORE PUSH1 0x20 ADD SWAP1 DUP2 MSTORE PUSH1 0x20 ADD PUSH0 KECCAK256 DUP2 SWAP1 SSTORE POP PUSH2 0xEDD CALLER DUP3 PUSH2 0x1697 JUMP JUMPDEST POP PUSH2 0xEE6 PUSH2 0x1765 JUMP JUMPDEST JUMP JUMPDEST PUSH2 0xEF0 PUSH2 0x138C JUMP JUMPDEST DUP1 PUSH1 0xA DUP2 SWAP1 SSTORE POP PUSH32 0xB1CC6C859F8E547A95CBBE7DCECE9E0FD5A931C906BD08DCF8413A2C83539713 DUP2 PUSH1 0x40 MLOAD PUSH2 0xF26 SWAP2 SWAP1 PUSH2 0x1EC7 JUMP JUMPDEST PUSH1 0x40 MLOAD DUP1 SWAP2 SUB SWAP1 LOG1 POP JUMP JUMPDEST PUSH1 0xB PUSH0 SWAP1 SLOAD SWAP1 PUSH2 0x100 EXP SWAP1 DIV PUSH20 0xFFFFFFFFFFFFFFFFFFFFFFFFFFFFFFFFFFFFFFFF AND PUSH20 0xFFFFFFFFFFFFFFFFFFFFFFFFFFFFFFFFFFFFFFFF AND CALLER PUSH20 0xFFFFFFFFFFFFFFFFFFFFFFFFFFFFFFFFFFFFFFFF AND EQ ISZERO DUP1 ISZERO PUSH2 0xFDB JUMPI POP PUSH1 0xC PUSH0 SWAP1 SLOAD SWAP1 PUSH2 0x100 EXP SWAP1 DIV PUSH20 0xFFFFFFFFFFFFFFFFFFFFFFFFFFFFFFFFFFFFFFFF AND PUSH20 0xFFFFFFFFFFFFFFFFFFFFFFFFFFFFFFFFFFFFFFFF AND CALLER PUSH20 0xFFFFFFFFFFFFFFFFFFFFFFFFFFFFFFFFFFFFFFFF AND EQ ISZERO JUMPDEST ISZERO PUSH2 0x1012 JUMPI PUSH1 0x40 MLOAD PUSH32 0x5C427CD900000000000000000000000000000000000000000000000000000000 DUP2 MSTORE PUSH1 0x4 ADD PUSH1 0x40 MLOAD DUP1 SWAP2 SUB SWAP1 REVERT JUMPDEST PUSH2 0x101A PUSH2 0x1314 JUMP JUMPDEST PUSH0 DUP2 SUB PUSH2 0x1053 JUMPI PUSH1 0x40 MLOAD PUSH32 0x2C5211C600000000000000000000000000000000000000000000000000000000 DUP2 MSTORE PUSH1 0x4 ADD PUSH1 0x40 MLOAD DUP1 SWAP2 SUB SWAP1 REVERT JUMPDEST PUSH2 0x105C DUP3 PUSH2 0x15BD JUMP JUMPDEST PUSH1 0xA SLOAD DUP2 PUSH1 0xF PUSH0 DUP6 PUSH20 0xFFFFFFFFFFFFFFFFFFFFFFFFFFFFFFFFFFFFFFFF AND PUSH20 0xFFFFFFFFFFFFFFFFFFFFFFFFFFFFFFFFFFFFFFFF AND DUP2 MSTORE PUSH1 0x20 ADD SWAP1 DUP2 MSTORE PUSH1 0x20 ADD PUSH0 KECCAK256 SLOAD PUSH2 0x10A8 SWAP2 SWAP1 PUSH2 0x2421 JUMP JUMPDEST GT ISZERO PUSH2 0x10E0 JUMPI PUSH1 0x40 MLOAD PUSH32 0xD75747F600000000000000000000000000000000000000000000000000000000 DUP2 MSTORE PUSH1 0x4 ADD PUSH1 0x40 MLOAD DUP1 SWAP2 SUB SWAP1 REVERT JUMPDEST DUP1 PUSH1 0xD PUSH0 DUP5 PUSH20 0xFFFFFFFFFFFFFFFFFFFFFFFFFFFFFFFFFFFFFFFF AND PUSH20 0xFFFFFFFFFFFFFFFFFFFFFFFFFFFFFFFFFFFFFFFF AND DUP2 MSTORE PUSH1 0x20 ADD SWAP1 DUP2 MSTORE PUSH1 0x20 ADD PUSH0 KECCAK256 PUSH0 DUP3 DUP3 SLOAD PUSH2 0x112C SWAP2 SWAP1 PUSH2 0x2421 JUMP JUMPDEST SWAP3 POP POP DUP2 SWAP1 SSTORE POP DUP1 PUSH1 0xF PUSH0 DUP5 PUSH20 0xFFFFFFFFFFFFFFFFFFFFFFFFFFFFFFFFFFFFFFFF AND PUSH20 0xFFFFFFFFFFFFFFFFFFFFFFFFFFFFFFFFFFFFFFFF AND DUP2 MSTORE PUSH1 0x20 ADD SWAP1 DUP2 MSTORE PUSH1 0x20 ADD PUSH0 KECCAK256 PUSH0 DUP3 DUP3 SLOAD PUSH2 0x117F SWAP2 SWAP1 PUSH2 0x2421 JUMP JUMPDEST SWAP3 POP POP DUP2 SWAP1 SSTORE POP DUP2 PUSH20 0xFFFFFFFFFFFFFFFFFFFFFFFFFFFFFFFFFFFFFFFF AND CALLER PUSH20 0xFFFFFFFFFFFFFFFFFFFFFFFFFFFFFFFFFFFFFFFF AND PUSH32 0xBF26400FFEC32B7F7FA346DF27788423DE869F04AD96FD322DAFC7AF85002636 DUP4 PUSH1 0x40 MLOAD PUSH2 0x11E3 SWAP2 SWAP1 PUSH2 0x1EC7 JUMP JUMPDEST PUSH1 0x40 MLOAD DUP1 SWAP2 SUB SWAP1 LOG3 POP POP JUMP JUMPDEST PUSH0 PUSH1 0x1 PUSH0 DUP5 PUSH20 0xFFFFFFFFFFFFFFFFFFFFFFFFFFFFFFFFFFFFFFFF AND PUSH20 0xFFFFFFFFFFFFFFFFFFFFFFFFFFFFFFFFFFFFFFFF AND DUP2 MSTORE PUSH1 0x20 ADD SWAP1 DUP2 MSTORE PUSH1 0x20 ADD PUSH0 KECCAK256 PUSH0 DUP4 PUSH20 0xFFFFFFFFFFFFFFFFFFFFFFFFFFFFFFFFFFFFFFFF AND PUSH20 0xFFFFFFFFFFFFFFFFFFFFFFFFFFFFFFFFFFFFFFFF AND DUP2 MSTORE PUSH1 0x20 ADD SWAP1 DUP2 MSTORE PUSH1 0x20 ADD PUSH0 KECCAK256 SLOAD SWAP1 POP SWAP3 SWAP2 POP POP JUMP JUMPDEST PUSH2 0x1279 PUSH2 0x138C JUMP JUMPDEST PUSH0 PUSH20 0xFFFFFFFFFFFFFFFFFFFFFFFFFFFFFFFFFFFFFFFF AND DUP2 PUSH20 0xFFFFFFFFFFFFFFFFFFFFFFFFFFFFFFFFFFFFFFFF AND SUB PUSH2 0x12E9 JUMPI PUSH0 PUSH1 0x40 MLOAD PUSH32 0x1E4FBDF700000000000000000000000000000000000000000000000000000000 DUP2 MSTORE PUSH1 0x4 ADD PUSH2 0x12E0 SWAP2 SWAP1 PUSH2 0x20DE JUMP JUMPDEST PUSH1 0x40 MLOAD DUP1 SWAP2 SUB SWAP1 REVERT JUMPDEST PUSH2 0x12F2 DUP2 PUSH2 0x1474 JUMP JUMPDEST POP JUMP JUMPDEST PUSH1 0xA SLOAD DUP2 JUMP JUMPDEST PUSH0 CALLER SWAP1 POP SWAP1 JUMP JUMPDEST PUSH2 0x130F DUP4 DUP4 DUP4 PUSH1 0x1 PUSH2 0x176F JUMP JUMPDEST POP POP POP JUMP JUMPDEST PUSH2 0x131C PUSH2 0x68B JUMP JUMPDEST ISZERO PUSH2 0x135C JUMPI PUSH1 0x40 MLOAD PUSH32 0x8C379A000000000000000000000000000000000000000000000000000000000 DUP2 MSTORE PUSH1 0x4 ADD PUSH2 0x1353 SWAP1 PUSH2 0x24CE JUMP JUMPDEST PUSH1 0x40 MLOAD DUP1 SWAP2 SUB SWAP1 REVERT JUMPDEST JUMP JUMPDEST PUSH0 DUP1 PUSH2 0x1368 PUSH2 0x12FB JUMP JUMPDEST SWAP1 POP PUSH2 0x1375 DUP6 DUP3 DUP6 PUSH2 0x193E JUMP JUMPDEST PUSH2 0x1380 DUP6 DUP6 DUP6 PUSH2 0x19D0 JUMP JUMPDEST PUSH1 0x1 SWAP2 POP POP SWAP4 SWAP3 POP POP POP JUMP JUMPDEST PUSH2 0x1394 PUSH2 0x12FB JUMP JUMPDEST PUSH20 0xFFFFFFFFFFFFFFFFFFFFFFFFFFFFFFFFFFFFFFFF AND PUSH2 0x13B2 PUSH2 0x98B JUMP JUMPDEST PUSH20 0xFFFFFFFFFFFFFFFFFFFFFFFFFFFFFFFFFFFFFFFF AND EQ PUSH2 0x1411 JUMPI PUSH2 0x13D5 PUSH2 0x12FB JUMP JUMPDEST PUSH1 0x40 MLOAD PUSH32 0x118CDAA700000000000000000000000000000000000000000000000000000000 DUP2 MSTORE PUSH1 0x4 ADD PUSH2 0x1408 SWAP2 SWAP1 PUSH2 0x20DE JUMP JUMPDEST PUSH1 0x40 MLOAD DUP1 SWAP2 SUB SWAP1 REVERT JUMPDEST JUMP JUMPDEST PUSH2 0x141B PUSH2 0x1AC0 JUMP JUMPDEST PUSH0 PUSH1 0x5 PUSH0 PUSH2 0x100 EXP DUP2 SLOAD DUP2 PUSH1 0xFF MUL NOT AND SWAP1 DUP4 ISZERO ISZERO MUL OR SWAP1 SSTORE POP PUSH32 0x5DB9EE0A495BF2E6FF9C91A7834C1BA4FDD244A5E8AA4E537BD38AEAE4B073AA PUSH2 0x145D PUSH2 0x12FB JUMP JUMPDEST PUSH1 0x40 MLOAD PUSH2 0x146A SWAP2 SWAP1 PUSH2 0x20DE JUMP JUMPDEST PUSH1 0x40 MLOAD DUP1 SWAP2 SUB SWAP1 LOG1 JUMP JUMPDEST PUSH0 PUSH1 0x5 PUSH1 0x1 SWAP1 SLOAD SWAP1 PUSH2 0x100 EXP SWAP1 DIV PUSH20 0xFFFFFFFFFFFFFFFFFFFFFFFFFFFFFFFFFFFFFFFF AND SWAP1 POP DUP2 PUSH1 0x5 PUSH1 0x1 PUSH2 0x100 EXP DUP2 SLOAD DUP2 PUSH20 0xFFFFFFFFFFFFFFFFFFFFFFFFFFFFFFFFFFFFFFFF MUL NOT AND SWAP1 DUP4 PUSH20 0xFFFFFFFFFFFFFFFFFFFFFFFFFFFFFFFFFFFFFFFF AND MUL OR SWAP1 SSTORE POP DUP2 PUSH20 0xFFFFFFFFFFFFFFFFFFFFFFFFFFFFFFFFFFFFFFFF AND DUP2 PUSH20 0xFFFFFFFFFFFFFFFFFFFFFFFFFFFFFFFFFFFFFFFF AND PUSH32 0x8BE0079C531659141344CD1FD0A4F28419497F9722A3DAAFE3B4186F6B6457E0 PUSH1 0x40 MLOAD PUSH1 0x40 MLOAD DUP1 SWAP2 SUB SWAP1 LOG3 POP POP JUMP JUMPDEST PUSH2 0x1541 PUSH2 0x1314 JUMP JUMPDEST PUSH1 0x1 PUSH1 0x5 PUSH0 PUSH2 0x100 EXP DUP2 SLOAD DUP2 PUSH1 0xFF MUL NOT AND SWAP1 DUP4 ISZERO ISZERO MUL OR SWAP1 SSTORE POP PUSH32 0x62E78CEA01BEE320CD4E420270B5EA74000D11B0C9F74754EBDBFC544B05A258 PUSH2 0x1584 PUSH2 0x12FB JUMP JUMPDEST PUSH1 0x40 MLOAD PUSH2 0x1591 SWAP2 SWAP1 PUSH2 0x20DE JUMP JUMPDEST PUSH1 0x40 MLOAD DUP1 SWAP2 SUB SWAP1 LOG1 JUMP JUMPDEST PUSH0 DUP1 PUSH2 0x15A5 PUSH2 0x12FB JUMP JUMPDEST SWAP1 POP PUSH2 0x15B2 DUP2 DUP6 DUP6 PUSH2 0x19D0 JUMP JUMPDEST PUSH1 0x1 SWAP2 POP POP SWAP3 SWAP2 POP POP JUMP JUMPDEST PUSH3 0x15180 PUSH1 0xE PUSH0 DUP4 PUSH20 0xFFFFFFFFFFFFFFFFFFFFFFFFFFFFFFFFFFFFFFFF AND PUSH20 0xFFFFFFFFFFFFFFFFFFFFFFFFFFFFFFFFFFFFFFFF AND DUP2 MSTORE PUSH1 0x20 ADD SWAP1 DUP2 MSTORE PUSH1 0x20 ADD PUSH0 KECCAK256 SLOAD PUSH2 0x1609 SWAP2 SWAP1 PUSH2 0x2421 JUMP JUMPDEST TIMESTAMP LT PUSH2 0x1694 JUMPI PUSH0 PUSH1 0xF PUSH0 DUP4 PUSH20 0xFFFFFFFFFFFFFFFFFFFFFFFFFFFFFFFFFFFFFFFF AND PUSH20 0xFFFFFFFFFFFFFFFFFFFFFFFFFFFFFFFFFFFFFFFF AND DUP2 MSTORE PUSH1 0x20 ADD SWAP1 DUP2 MSTORE PUSH1 0x20 ADD PUSH0 KECCAK256 DUP2 SWAP1 SSTORE POP TIMESTAMP PUSH1 0xE PUSH0 DUP4 PUSH20 0xFFFFFFFFFFFFFFFFFFFFFFFFFFFFFFFFFFFFFFFF AND PUSH20 0xFFFFFFFFFFFFFFFFFFFFFFFFFFFFFFFFFFFFFFFF AND DUP2 MSTORE PUSH1 0x20 ADD SWAP1 DUP2 MSTORE PUSH1 0x20 ADD PUSH0 KECCAK256 DUP2 SWAP1 SSTORE POP JUMPDEST POP JUMP JUMPDEST PUSH0 PUSH20 0xFFFFFFFFFFFFFFFFFFFFFFFFFFFFFFFFFFFFFFFF AND DUP3 PUSH20 0xFFFFFFFFFFFFFFFFFFFFFFFFFFFFFFFFFFFFFFFF AND SUB PUSH2 0x1707 JUMPI PUSH0 PUSH1 0x40 MLOAD PUSH32 0xEC442F0500000000000000000000000000000000000000000000000000000000 DUP2 MSTORE PUSH1 0x4 ADD PUSH2 0x16FE SWAP2 SWAP1 PUSH2 0x20DE JUMP JUMPDEST PUSH1 0x40 MLOAD DUP1 SWAP2 SUB SWAP1 REVERT JUMPDEST PUSH2 0x1712 PUSH0 DUP4 DUP4 PUSH2 0x1B09 JUMP JUMPDEST POP POP JUMP JUMPDEST PUSH1 0x2 PUSH1 0x6 SLOAD SUB PUSH2 0x175B JUMPI PUSH1 0x40 MLOAD PUSH32 0x8C379A000000000000000000000000000000000000000000000000000000000 DUP2 MSTORE PUSH1 0x4 ADD PUSH2 0x1752 SWAP1 PUSH2 0x2536 JUMP JUMPDEST PUSH1 0x40 MLOAD DUP1 SWAP2 SUB SWAP1 REVERT JUMPDEST PUSH1 0x2 PUSH1 0x6 DUP2 SWAP1 SSTORE POP JUMP JUMPDEST PUSH1 0x1 PUSH1 0x6 DUP2 SWAP1 SSTORE POP JUMP JUMPDEST PUSH0 PUSH20 0xFFFFFFFFFFFFFFFFFFFFFFFFFFFFFFFFFFFFFFFF AND DUP5 PUSH20 0xFFFFFFFFFFFFFFFFFFFFFFFFFFFFFFFFFFFFFFFF AND SUB PUSH2 0x17DF JUMPI PUSH0 PUSH1 0x40 MLOAD PUSH32 0xE602DF0500000000000000000000000000000000000000000000000000000000 DUP2 MSTORE PUSH1 0x4 ADD PUSH2 0x17D6 SWAP2 SWAP1 PUSH2 0x20DE JUMP JUMPDEST PUSH1 0x40 MLOAD DUP1 SWAP2 SUB SWAP1 REVERT JUMPDEST PUSH0 PUSH20 0xFFFFFFFFFFFFFFFFFFFFFFFFFFFFFFFFFFFFFFFF AND DUP4 PUSH20 0xFFFFFFFFFFFFFFFFFFFFFFFFFFFFFFFFFFFFFFFF AND SUB PUSH2 0x184F JUMPI PUSH0 PUSH1 0x40 MLOAD PUSH32 0x94280D6200000000000000000000000000000000000000000000000000000000 DUP2 MSTORE PUSH1 0x4 ADD PUSH2 0x1846 SWAP2 SWAP1 PUSH2 0x20DE JUMP JUMPDEST PUSH1 0x40 MLOAD DUP1 SWAP2 SUB SWAP1 REVERT JUMPDEST DUP2 PUSH1 0x1 PUSH0 DUP7 PUSH20 0xFFFFFFFFFFFFFFFFFFFFFFFFFFFFFFFFFFFFFFFF AND PUSH20 0xFFFFFFFFFFFFFFFFFFFFFFFFFFFFFFFFFFFFFFFF AND DUP2 MSTORE PUSH1 0x20 ADD SWAP1 DUP2 MSTORE PUSH1 0x20 ADD PUSH0 KECCAK256 PUSH0 DUP6 PUSH20 0xFFFFFFFFFFFFFFFFFFFFFFFFFFFFFFFFFFFFFFFF AND PUSH20 0xFFFFFFFFFFFFFFFFFFFFFFFFFFFFFFFFFFFFFFFF AND DUP2 MSTORE PUSH1 0x20 ADD SWAP1 DUP2 MSTORE PUSH1 0x20 ADD PUSH0 KECCAK256 DUP2 SWAP1 SSTORE POP DUP1 ISZERO PUSH2 0x1938 JUMPI DUP3 PUSH20 0xFFFFFFFFFFFFFFFFFFFFFFFFFFFFFFFFFFFFFFFF AND DUP5 PUSH20 0xFFFFFFFFFFFFFFFFFFFFFFFFFFFFFFFFFFFFFFFF AND PUSH32 0x8C5BE1E5EBEC7D5BD14F71427D1E84F3DD0314C0F7B2291E5B200AC8C7C3B925 DUP5 PUSH1 0x40 MLOAD PUSH2 0x192F SWAP2 SWAP1 PUSH2 0x1EC7 JUMP JUMPDEST PUSH1 0x40 MLOAD DUP1 SWAP2 SUB SWAP1 LOG3 JUMPDEST POP POP POP POP JUMP JUMPDEST PUSH0 PUSH2 0x1949 DUP5 DUP5 PUSH2 0x11EF JUMP JUMPDEST SWAP1 POP PUSH32 0xFFFFFFFFFFFFFFFFFFFFFFFFFFFFFFFFFFFFFFFFFFFFFFFFFFFFFFFFFFFFFFFF DUP2 EQ PUSH2 0x19CA JUMPI DUP2 DUP2 LT ISZERO PUSH2 0x19BB JUMPI DUP3 DUP2 DUP4 PUSH1 0x40 MLOAD PUSH32 0xFB8F41B200000000000000000000000000000000000000000000000000000000 DUP2 MSTORE PUSH1 0x4 ADD PUSH2 0x19B2 SWAP4 SWAP3 SWAP2 SWAP1 PUSH2 0x2554 JUMP JUMPDEST PUSH1 0x40 MLOAD DUP1 SWAP2 SUB SWAP1 REVERT JUMPDEST PUSH2 0x19C9 DUP5 DUP5 DUP5 DUP5 SUB PUSH0 PUSH2 0x176F JUMP JUMPDEST JUMPDEST POP POP POP POP JUMP JUMPDEST PUSH0 PUSH20 0xFFFFFFFFFFFFFFFFFFFFFFFFFFFFFFFFFFFFFFFF AND DUP4 PUSH20 0xFFFFFFFFFFFFFFFFFFFFFFFFFFFFFFFFFFFFFFFF AND SUB PUSH2 0x1A40 JUMPI PUSH0 PUSH1 0x40 MLOAD PUSH32 0x96C6FD1E00000000000000000000000000000000000000000000000000000000 DUP2 MSTORE PUSH1 0x4 ADD PUSH2 0x1A37 SWAP2 SWAP1 PUSH2 0x20DE JUMP JUMPDEST PUSH1 0x40 MLOAD DUP1 SWAP2 SUB SWAP1 REVERT JUMPDEST PUSH0 PUSH20 0xFFFFFFFFFFFFFFFFFFFFFFFFFFFFFFFFFFFFFFFF AND DUP3 PUSH20 0xFFFFFFFFFFFFFFFFFFFFFFFFFFFFFFFFFFFFFFFF AND SUB PUSH2 0x1AB0 JUMPI PUSH0 PUSH1 0x40 MLOAD PUSH32 0xEC442F0500000000000000000000000000000000000000000000000000000000 DUP2 MSTORE PUSH1 0x4 ADD PUSH2 0x1AA7 SWAP2 SWAP1 PUSH2 0x20DE JUMP JUMPDEST PUSH1 0x40 MLOAD DUP1 SWAP2 SUB SWAP1 REVERT JUMPDEST PUSH2 0x1ABB DUP4 DUP4 DUP4 PUSH2 0x1B09 JUMP JUMPDEST POP POP POP JUMP JUMPDEST PUSH2 0x1AC8 PUSH2 0x68B JUMP JUMPDEST PUSH2 0x1B07 JUMPI PUSH1 0x40 MLOAD PUSH32 0x8C379A000000000000000000000000000000000000000000000000000000000 DUP2 MSTORE PUSH1 0x4 ADD PUSH2 0x1AFE SWAP1 PUSH2 0x25D3 JUMP JUMPDEST PUSH1 0x40 MLOAD DUP1 SWAP2 SUB SWAP1 REVERT JUMPDEST JUMP JUMPDEST PUSH0 PUSH20 0xFFFFFFFFFFFFFFFFFFFFFFFFFFFFFFFFFFFFFFFF AND DUP4 PUSH20 0xFFFFFFFFFFFFFFFFFFFFFFFFFFFFFFFFFFFFFFFF AND SUB PUSH2 0x1B59 JUMPI DUP1 PUSH1 0x2 PUSH0 DUP3 DUP3 SLOAD PUSH2 0x1B4D SWAP2 SWAP1 PUSH2 0x2421 JUMP JUMPDEST SWAP3 POP POP DUP2 SWAP1 SSTORE POP PUSH2 0x1C27 JUMP JUMPDEST PUSH0 DUP1 PUSH0 DUP6 PUSH20 0xFFFFFFFFFFFFFFFFFFFFFFFFFFFFFFFFFFFFFFFF AND PUSH20 0xFFFFFFFFFFFFFFFFFFFFFFFFFFFFFFFFFFFFFFFF AND DUP2 MSTORE PUSH1 0x20 ADD SWAP1 DUP2 MSTORE PUSH1 0x20 ADD PUSH0 KECCAK256 SLOAD SWAP1 POP DUP2 DUP2 LT ISZERO PUSH2 0x1BE2 JUMPI DUP4 DUP2 DUP4 PUSH1 0x40 MLOAD PUSH32 0xE450D38C00000000000000000000000000000000000000000000000000000000 DUP2 MSTORE PUSH1 0x4 ADD PUSH2 0x1BD9 SWAP4 SWAP3 SWAP2 SWAP1 PUSH2 0x2554 JUMP JUMPDEST PUSH1 0x40 MLOAD DUP1 SWAP2 SUB SWAP1 REVERT JUMPDEST DUP2 DUP2 SUB PUSH0 DUP1 DUP7 PUSH20 0xFFFFFFFFFFFFFFFFFFFFFFFFFFFFFFFFFFFFFFFF AND PUSH20 0xFFFFFFFFFFFFFFFFFFFFFFFFFFFFFFFFFFFFFFFF AND DUP2 MSTORE PUSH1 0x20 ADD SWAP1 DUP2 MSTORE PUSH1 0x20 ADD PUSH0 KECCAK256 DUP2 SWAP1 SSTORE POP POP JUMPDEST PUSH0 PUSH20 0xFFFFFFFFFFFFFFFFFFFFFFFFFFFFFFFFFFFFFFFF AND DUP3 PUSH20 0xFFFFFFFFFFFFFFFFFFFFFFFFFFFFFFFFFFFFFFFF AND SUB PUSH2 0x1C6E JUMPI DUP1 PUSH1 0x2 PUSH0 DUP3 DUP3 SLOAD SUB SWAP3 POP POP DUP2 SWAP1 SSTORE POP PUSH2 0x1CB8 JUMP JUMPDEST DUP1 PUSH0 DUP1 DUP5 PUSH20 0xFFFFFFFFFFFFFFFFFFFFFFFFFFFFFFFFFFFFFFFF AND PUSH20 0xFFFFFFFFFFFFFFFFFFFFFFFFFFFFFFFFFFFFFFFF AND DUP2 MSTORE PUSH1 0x20 ADD SWAP1 DUP2 MSTORE PUSH1 0x20 ADD PUSH0 KECCAK256 PUSH0 DUP3 DUP3 SLOAD ADD SWAP3 POP POP DUP2 SWAP1 SSTORE POP JUMPDEST DUP2 PUSH20 0xFFFFFFFFFFFFFFFFFFFFFFFFFFFFFFFFFFFFFFFF AND DUP4 PUSH20 0xFFFFFFFFFFFFFFFFFFFFFFFFFFFFFFFFFFFFFFFF AND PUSH32 0xDDF252AD1BE2C89B69C2B068FC378DAA952BA7F163C4A11628F55A4DF523B3EF DUP4 PUSH1 0x40 MLOAD PUSH2 0x1D15 SWAP2 SWAP1 PUSH2 0x1EC7 JUMP JUMPDEST PUSH1 0x40 MLOAD DUP1 SWAP2 SUB SWAP1 LOG3 POP POP POP JUMP JUMPDEST PUSH0 DUP2 MLOAD SWAP1 POP SWAP2 SWAP1 POP JUMP JUMPDEST PUSH0 DUP3 DUP3 MSTORE PUSH1 0x20 DUP3 ADD SWAP1 POP SWAP3 SWAP2 POP POP JUMP JUMPDEST DUP3 DUP2 DUP4 MCOPY PUSH0 DUP4 DUP4 ADD MSTORE POP POP POP JUMP JUMPDEST PUSH0 PUSH1 0x1F NOT PUSH1 0x1F DUP4 ADD AND SWAP1 POP SWAP2 SWAP1 POP JUMP JUMPDEST PUSH0 PUSH2 0x1D64 DUP3 PUSH2 0x1D22 JUMP JUMPDEST PUSH2 0x1D6E DUP2 DUP6 PUSH2 0x1D2C JUMP JUMPDEST SWAP4 POP PUSH2 0x1D7E DUP2 DUP6 PUSH1 0x20 DUP7 ADD PUSH2 0x1D3C JUMP JUMPDEST PUSH2 0x1D87 DUP2 PUSH2 0x1D4A JUMP JUMPDEST DUP5 ADD SWAP2 POP POP SWAP3 SWAP2 POP POP JUMP JUMPDEST PUSH0 PUSH1 0x20 DUP3 ADD SWAP1 POP DUP2 DUP2 SUB PUSH0 DUP4 ADD MSTORE PUSH2 0x1DAA DUP2 DUP5 PUSH2 0x1D5A JUMP JUMPDEST SWAP1 POP SWAP3 SWAP2 POP POP JUMP JUMPDEST PUSH0 DUP1 REVERT JUMPDEST PUSH0 DUP1 REVERT JUMPDEST PUSH0 PUSH20 0xFFFFFFFFFFFFFFFFFFFFFFFFFFFFFFFFFFFFFFFF DUP3 AND SWAP1 POP SWAP2 SWAP1 POP JUMP JUMPDEST PUSH0 PUSH2 0x1DE3 DUP3 PUSH2 0x1DBA JUMP JUMPDEST SWAP1 POP SWAP2 SWAP1 POP JUMP JUMPDEST PUSH2 0x1DF3 DUP2 PUSH2 0x1DD9 JUMP JUMPDEST DUP2 EQ PUSH2 0x1DFD JUMPI PUSH0 DUP1 REVERT JUMPDEST POP JUMP JUMPDEST PUSH0 DUP2 CALLDATALOAD SWAP1 POP PUSH2 0x1E0E DUP2 PUSH2 0x1DEA JUMP JUMPDEST SWAP3 SWAP2 POP POP JUMP JUMPDEST PUSH0 DUP2 SWAP1 POP SWAP2 SWAP1 POP JUMP JUMPDEST PUSH2 0x1E26 DUP2 PUSH2 0x1E14 JUMP JUMPDEST DUP2 EQ PUSH2 0x1E30 JUMPI PUSH0 DUP1 REVERT JUMPDEST POP JUMP JUMPDEST PUSH0 DUP2 CALLDATALOAD SWAP1 POP PUSH2 0x1E41 DUP2 PUSH2 0x1E1D JUMP JUMPDEST SWAP3 SWAP2 POP POP JUMP JUMPDEST PUSH0 DUP1 PUSH1 0x40 DUP4 DUP6 SUB SLT ISZERO PUSH2 0x1E5D JUMPI PUSH2 0x1E5C PUSH2 0x1DB2 JUMP JUMPDEST JUMPDEST PUSH0 PUSH2 0x1E6A DUP6 DUP3 DUP7 ADD PUSH2 0x1E00 JUMP JUMPDEST SWAP3 POP POP PUSH1 0x20 PUSH2 0x1E7B DUP6 DUP3 DUP7 ADD PUSH2 0x1E33 JUMP JUMPDEST SWAP2 POP POP SWAP3 POP SWAP3 SWAP1 POP JUMP JUMPDEST PUSH0 DUP2 ISZERO ISZERO SWAP1 POP SWAP2 SWAP1 POP JUMP JUMPDEST PUSH2 0x1E99 DUP2 PUSH2 0x1E85 JUMP JUMPDEST DUP3 MSTORE POP POP JUMP JUMPDEST PUSH0 PUSH1 0x20 DUP3 ADD SWAP1 POP PUSH2 0x1EB2 PUSH0 DUP4 ADD DUP5 PUSH2 0x1E90 JUMP JUMPDEST SWAP3 SWAP2 POP POP JUMP JUMPDEST PUSH2 0x1EC1 DUP2 PUSH2 0x1E14 JUMP JUMPDEST DUP3 MSTORE POP POP JUMP JUMPDEST PUSH0 PUSH1 0x20 DUP3 ADD SWAP1 POP PUSH2 0x1EDA PUSH0 DUP4 ADD DUP5 PUSH2 0x1EB8 JUMP JUMPDEST SWAP3 SWAP2 POP POP JUMP JUMPDEST PUSH0 DUP1 PUSH0 PUSH1 0x60 DUP5 DUP7 SUB SLT ISZERO PUSH2 0x1EF7 JUMPI PUSH2 0x1EF6 PUSH2 0x1DB2 JUMP JUMPDEST JUMPDEST PUSH0 PUSH2 0x1F04 DUP7 DUP3 DUP8 ADD PUSH2 0x1E00 JUMP JUMPDEST SWAP4 POP POP PUSH1 0x20 PUSH2 0x1F15 DUP7 DUP3 DUP8 ADD PUSH2 0x1E00 JUMP JUMPDEST SWAP3 POP POP PUSH1 0x40 PUSH2 0x1F26 DUP7 DUP3 DUP8 ADD PUSH2 0x1E33 JUMP JUMPDEST SWAP2 POP POP SWAP3 POP SWAP3 POP SWAP3 JUMP JUMPDEST PUSH0 PUSH1 0x20 DUP3 DUP5 SUB SLT ISZERO PUSH2 0x1F45 JUMPI PUSH2 0x1F44 PUSH2 0x1DB2 JUMP JUMPDEST JUMPDEST PUSH0 PUSH2 0x1F52 DUP5 DUP3 DUP6 ADD PUSH2 0x1E00 JUMP JUMPDEST SWAP2 POP POP SWAP3 SWAP2 POP POP JUMP JUMPDEST PUSH0 PUSH1 0xFF DUP3 AND SWAP1 POP SWAP2 SWAP1 POP JUMP JUMPDEST PUSH2 0x1F70 DUP2 PUSH2 0x1F5B JUMP JUMPDEST DUP3 MSTORE POP POP JUMP JUMPDEST PUSH0 PUSH1 0x20 DUP3 ADD SWAP1 POP PUSH2 0x1F89 PUSH0 DUP4 ADD DUP5 PUSH2 0x1F67 JUMP JUMPDEST SWAP3 SWAP2 POP POP JUMP JUMPDEST PUSH0 PUSH1 0x60 DUP3 ADD SWAP1 POP PUSH2 0x1FA2 PUSH0 DUP4 ADD DUP7 PUSH2 0x1EB8 JUMP JUMPDEST PUSH2 0x1FAF PUSH1 0x20 DUP4 ADD DUP6 PUSH2 0x1EB8 JUMP JUMPDEST PUSH2 0x1FBC PUSH1 0x40 DUP4 ADD DUP5 PUSH2 0x1EB8 JUMP JUMPDEST SWAP5 SWAP4 POP POP POP POP JUMP JUMPDEST PUSH0 DUP1 REVERT JUMPDEST PUSH0 PUSH1 0x60 DUP3 DUP5 SUB SLT ISZERO PUSH2 0x1FDD JUMPI PUSH2 0x1FDC PUSH2 0x1FC4 JUMP JUMPDEST JUMPDEST DUP2 SWAP1 POP SWAP3 SWAP2 POP POP JUMP JUMPDEST PUSH0 PUSH1 0x60 DUP3 DUP5 SUB SLT ISZERO PUSH2 0x1FFB JUMPI PUSH2 0x1FFA PUSH2 0x1DB2 JUMP JUMPDEST JUMPDEST PUSH0 PUSH2 0x2008 DUP5 DUP3 DUP6 ADD PUSH2 0x1FC8 JUMP JUMPDEST SWAP2 POP POP SWAP3 SWAP2 POP POP JUMP JUMPDEST PUSH0 DUP1 REVERT JUMPDEST PUSH0 DUP1 REVERT JUMPDEST PUSH0 DUP1 REVERT JUMPDEST PUSH0 DUP1 DUP4 PUSH1 0x1F DUP5 ADD SLT PUSH2 0x2032 JUMPI PUSH2 0x2031 PUSH2 0x2011 JUMP JUMPDEST JUMPDEST DUP3 CALLDATALOAD SWAP1 POP PUSH8 0xFFFFFFFFFFFFFFFF DUP2 GT ISZERO PUSH2 0x204F JUMPI PUSH2 0x204E PUSH2 0x2015 JUMP JUMPDEST JUMPDEST PUSH1 0x20 DUP4 ADD SWAP2 POP DUP4 PUSH1 0x1 DUP3 MUL DUP4 ADD GT ISZERO PUSH2 0x206B JUMPI PUSH2 0x206A PUSH2 0x2019 JUMP JUMPDEST JUMPDEST SWAP3 POP SWAP3 SWAP1 POP JUMP JUMPDEST PUSH0 DUP1 PUSH0 PUSH1 0x40 DUP5 DUP7 SUB SLT ISZERO PUSH2 0x2089 JUMPI PUSH2 0x2088 PUSH2 0x1DB2 JUMP JUMPDEST JUMPDEST PUSH0 DUP5 ADD CALLDATALOAD PUSH8 0xFFFFFFFFFFFFFFFF DUP2 GT ISZERO PUSH2 0x20A6 JUMPI PUSH2 0x20A5 PUSH2 0x1DB6 JUMP JUMPDEST JUMPDEST PUSH2 0x20B2 DUP7 DUP3 DUP8 ADD PUSH2 0x201D JUMP JUMPDEST SWAP4 POP SWAP4 POP POP PUSH1 0x20 PUSH2 0x20C5 DUP7 DUP3 DUP8 ADD PUSH2 0x1E00 JUMP JUMPDEST SWAP2 POP POP SWAP3 POP SWAP3 POP SWAP3 JUMP JUMPDEST PUSH2 0x20D8 DUP2 PUSH2 0x1DD9 JUMP JUMPDEST DUP3 MSTORE POP POP JUMP JUMPDEST PUSH0 PUSH1 0x20 DUP3 ADD SWAP1 POP PUSH2 0x20F1 PUSH0 DUP4 ADD DUP5 PUSH2 0x20CF JUMP JUMPDEST SWAP3 SWAP2 POP POP JUMP JUMPDEST PUSH0 DUP1 PUSH0 PUSH1 0x40 DUP5 DUP7 SUB SLT ISZERO PUSH2 0x210E JUMPI PUSH2 0x210D PUSH2 0x1DB2 JUMP JUMPDEST JUMPDEST PUSH0 PUSH2 0x211B DUP7 DUP3 DUP8 ADD PUSH2 0x1E00 JUMP JUMPDEST SWAP4 POP POP PUSH1 0x20 DUP5 ADD CALLDATALOAD PUSH8 0xFFFFFFFFFFFFFFFF DUP2 GT ISZERO PUSH2 0x213C JUMPI PUSH2 0x213B PUSH2 0x1DB6 JUMP JUMPDEST JUMPDEST PUSH2 0x2148 DUP7 DUP3 DUP8 ADD PUSH2 0x201D JUMP JUMPDEST SWAP3 POP SWAP3 POP POP SWAP3 POP SWAP3 POP SWAP3 JUMP JUMPDEST PUSH0 PUSH1 0x20 DUP3 DUP5 SUB SLT ISZERO PUSH2 0x2169 JUMPI PUSH2 0x2168 PUSH2 0x1DB2 JUMP JUMPDEST JUMPDEST PUSH0 PUSH2 0x2176 DUP5 DUP3 DUP6 ADD PUSH2 0x1E33 JUMP JUMPDEST SWAP2 POP POP SWAP3 SWAP2 POP POP JUMP JUMPDEST PUSH0 DUP1 PUSH1 0x40 DUP4 DUP6 SUB SLT ISZERO PUSH2 0x2195 JUMPI PUSH2 0x2194 PUSH2 0x1DB2 JUMP JUMPDEST JUMPDEST PUSH0 PUSH2 0x21A2 DUP6 DUP3 DUP7 ADD PUSH2 0x1E00 JUMP JUMPDEST SWAP3 POP POP PUSH1 0x20 PUSH2 0x21B3 DUP6 DUP3 DUP7 ADD PUSH2 0x1E00 JUMP JUMPDEST SWAP2 POP POP SWAP3 POP SWAP3 SWAP1 POP JUMP JUMPDEST PUSH32 0x4E487B7100000000000000000000000000000000000000000000000000000000 PUSH0 MSTORE PUSH1 0x22 PUSH1 0x4 MSTORE PUSH1 0x24 PUSH0 REVERT JUMPDEST PUSH0 PUSH1 0x2 DUP3 DIV SWAP1 POP PUSH1 0x1 DUP3 AND DUP1 PUSH2 0x2201 JUMPI PUSH1 0x7F DUP3 AND SWAP2 POP JUMPDEST PUSH1 0x20 DUP3 LT DUP2 SUB PUSH2 0x2214 JUMPI PUSH2 0x2213 PUSH2 0x21BD JUMP JUMPDEST JUMPDEST POP SWAP2 SWAP1 POP JUMP JUMPDEST PUSH0 DUP2 CALLDATALOAD PUSH2 0x2226 DUP2 PUSH2 0x1E1D JUMP JUMPDEST DUP1 SWAP2 POP POP SWAP2 SWAP1 POP JUMP JUMPDEST PUSH0 DUP2 PUSH0 SHL SWAP1 POP SWAP2 SWAP1 POP JUMP JUMPDEST PUSH0 PUSH32 0xFFFFFFFFFFFFFFFFFFFFFFFFFFFFFFFFFFFFFFFFFFFFFFFFFFFFFFFFFFFFFFFF PUSH2 0x2265 DUP5 PUSH2 0x222F JUMP JUMPDEST SWAP4 POP DUP1 NOT DUP4 AND SWAP3 POP DUP1 DUP5 AND DUP4 OR SWAP2 POP POP SWAP3 SWAP2 POP POP JUMP JUMPDEST PUSH0 DUP2 SWAP1 POP SWAP2 SWAP1 POP JUMP JUMPDEST PUSH0 PUSH2 0x229E PUSH2 0x2299 PUSH2 0x2294 DUP5 PUSH2 0x1E14 JUMP JUMPDEST PUSH2 0x227B JUMP JUMPDEST PUSH2 0x1E14 JUMP JUMPDEST SWAP1 POP SWAP2 SWAP1 POP JUMP JUMPDEST PUSH0 DUP2 SWAP1 POP SWAP2 SWAP1 POP JUMP JUMPDEST PUSH2 0x22B7 DUP3 PUSH2 0x2284 JUMP JUMPDEST PUSH2 0x22CA PUSH2 0x22C3 DUP3 PUSH2 0x22A5 JUMP JUMPDEST DUP4 SLOAD PUSH2 0x223A JUMP JUMPDEST DUP3 SSTORE POP POP POP JUMP JUMPDEST PUSH0 DUP2 ADD PUSH0 DUP4 ADD DUP1 PUSH2 0x22E1 DUP2 PUSH2 0x221A JUMP JUMPDEST SWAP1 POP PUSH2 0x22ED DUP2 DUP5 PUSH2 0x22AE JUMP JUMPDEST POP POP POP PUSH1 0x1 DUP2 ADD PUSH1 0x20 DUP4 ADD DUP1 PUSH2 0x2302 DUP2 PUSH2 0x221A JUMP JUMPDEST SWAP1 POP PUSH2 0x230E DUP2 DUP5 PUSH2 0x22AE JUMP JUMPDEST POP POP POP PUSH1 0x2 DUP2 ADD PUSH1 0x40 DUP4 ADD DUP1 PUSH2 0x2323 DUP2 PUSH2 0x221A JUMP JUMPDEST SWAP1 POP PUSH2 0x232F DUP2 DUP5 PUSH2 0x22AE JUMP JUMPDEST POP POP POP POP POP JUMP JUMPDEST PUSH2 0x2340 DUP3 DUP3 PUSH2 0x22D1 JUMP JUMPDEST POP POP JUMP JUMPDEST PUSH0 DUP2 SWAP1 POP SWAP3 SWAP2 POP POP JUMP JUMPDEST DUP3 DUP2 DUP4 CALLDATACOPY PUSH0 DUP4 DUP4 ADD MSTORE POP POP POP JUMP JUMPDEST PUSH0 PUSH2 0x2367 DUP4 DUP6 PUSH2 0x2344 JUMP JUMPDEST SWAP4 POP PUSH2 0x2374 DUP4 DUP6 DUP5 PUSH2 0x234E JUMP JUMPDEST DUP3 DUP5 ADD SWAP1 POP SWAP4 SWAP3 POP POP POP JUMP JUMPDEST PUSH0 PUSH2 0x238C DUP3 DUP5 DUP7 PUSH2 0x235C JUMP JUMPDEST SWAP2 POP DUP2 SWAP1 POP SWAP4 SWAP3 POP POP POP JUMP JUMPDEST PUSH0 PUSH2 0x23A3 DUP4 DUP6 PUSH2 0x1D2C JUMP JUMPDEST SWAP4 POP PUSH2 0x23B0 DUP4 DUP6 DUP5 PUSH2 0x234E JUMP JUMPDEST PUSH2 0x23B9 DUP4 PUSH2 0x1D4A JUMP JUMPDEST DUP5 ADD SWAP1 POP SWAP4 SWAP3 POP POP POP JUMP JUMPDEST PUSH0 PUSH1 0x40 DUP3 ADD SWAP1 POP DUP2 DUP2 SUB PUSH0 DUP4 ADD MSTORE PUSH2 0x23DD DUP2 DUP6 DUP8 PUSH2 0x2398 JUMP JUMPDEST SWAP1 POP PUSH2 0x23EC PUSH1 0x20 DUP4 ADD DUP5 PUSH2 0x20CF JUMP JUMPDEST SWAP5 SWAP4 POP POP POP POP JUMP JUMPDEST PUSH32 0x4E487B7100000000000000000000000000000000000000000000000000000000 PUSH0 MSTORE PUSH1 0x11 PUSH1 0x4 MSTORE PUSH1 0x24 PUSH0 REVERT JUMPDEST PUSH0 PUSH2 0x242B DUP3 PUSH2 0x1E14 JUMP JUMPDEST SWAP2 POP PUSH2 0x2436 DUP4 PUSH2 0x1E14 JUMP JUMPDEST SWAP3 POP DUP3 DUP3 ADD SWAP1 POP DUP1 DUP3 GT ISZERO PUSH2 0x244E JUMPI PUSH2 0x244D PUSH2 0x23F4 JUMP JUMPDEST JUMPDEST SWAP3 SWAP2 POP POP JUMP JUMPDEST PUSH0 PUSH1 0x40 DUP3 ADD SWAP1 POP PUSH2 0x2467 PUSH0 DUP4 ADD DUP7 PUSH2 0x1EB8 JUMP JUMPDEST DUP2 DUP2 SUB PUSH1 0x20 DUP4 ADD MSTORE PUSH2 0x247A DUP2 DUP5 DUP7 PUSH2 0x2398 JUMP JUMPDEST SWAP1 POP SWAP5 SWAP4 POP POP POP POP JUMP JUMPDEST PUSH32 0x5061757361626C653A2070617573656400000000000000000000000000000000 PUSH0 DUP3 ADD MSTORE POP JUMP JUMPDEST PUSH0 PUSH2 0x24B8 PUSH1 0x10 DUP4 PUSH2 0x1D2C JUMP JUMPDEST SWAP2 POP PUSH2 0x24C3 DUP3 PUSH2 0x2484 JUMP JUMPDEST PUSH1 0x20 DUP3 ADD SWAP1 POP SWAP2 SWAP1 POP JUMP JUMPDEST PUSH0 PUSH1 0x20 DUP3 ADD SWAP1 POP DUP2 DUP2 SUB PUSH0 DUP4 ADD MSTORE PUSH2 0x24E5 DUP2 PUSH2 0x24AC JUMP JUMPDEST SWAP1 POP SWAP2 SWAP1 POP JUMP JUMPDEST PUSH32 0x5265656E7472616E637947756172643A207265656E7472616E742063616C6C00 PUSH0 DUP3 ADD MSTORE POP JUMP JUMPDEST PUSH0 PUSH2 0x2520 PUSH1 0x1F DUP4 PUSH2 0x1D2C JUMP JUMPDEST SWAP2 POP PUSH2 0x252B DUP3 PUSH2 0x24EC JUMP JUMPDEST PUSH1 0x20 DUP3 ADD SWAP1 POP SWAP2 SWAP1 POP JUMP JUMPDEST PUSH0 PUSH1 0x20 DUP3 ADD SWAP1 POP DUP2 DUP2 SUB PUSH0 DUP4 ADD MSTORE PUSH2 0x254D DUP2 PUSH2 0x2514 JUMP JUMPDEST SWAP1 POP SWAP2 SWAP1 POP JUMP JUMPDEST PUSH0 PUSH1 0x60 DUP3 ADD SWAP1 POP PUSH2 0x2567 PUSH0 DUP4 ADD DUP7 PUSH2 0x20CF JUMP JUMPDEST PUSH2 0x2574 PUSH1 0x20 DUP4 ADD DUP6 PUSH2 0x1EB8 JUMP JUMPDEST PUSH2 0x2581 PUSH1 0x40 DUP4 ADD DUP5 PUSH2 0x1EB8 JUMP JUMPDEST SWAP5 SWAP4 POP POP POP POP JUMP JUMPDEST PUSH32 0x5061757361626C653A206E6F7420706175736564000000000000000000000000 PUSH0 DUP3 ADD MSTORE POP JUMP JUMPDEST PUSH0 PUSH2 0x25BD PUSH1 0x14 DUP4 PUSH2 0x1D2C JUMP JUMPDEST SWAP2 POP PUSH2 0x25C8 DUP3 PUSH2 0x2589 JUMP JUMPDEST PUSH1 0x20 DUP3 ADD SWAP1 POP SWAP2 SWAP1 POP JUMP JUMPDEST PUSH0 PUSH1 0x20 DUP3 ADD SWAP1 POP DUP2 DUP2 SUB PUSH0 DUP4 ADD MSTORE PUSH2 0x25EA DUP2 PUSH2 0x25B1 JUMP JUMPDEST SWAP1 POP SWAP2 SWAP1 POP JUMP INVALID LOG2 PUSH5 0x6970667358 0x22 SLT KECCAK256 0xE9 GASPRICE RETURNDATASIZE 0xDA SLT 0xE5 SWAP14 DUP1 POP DUP10 0xCE 0xD7 DUP12 ISZERO LOG2 SWAP5 0xE1 MSTORE8 0xCE MOD 0xBC PREVRANDAO TLOAD PUSH24 0x987A3646D52885A264736F6C634300081A00330000000000 "
				},
				"gasEstimates": {
					"creation": {
						"codeDepositCost": "1953400",
						"executionCost": "infinite",
						"totalCost": "infinite"
					},
					"external": {
						"DAILY_RESET()": "392",
						"allowance(address,address)": "infinite",
						"approve(address,uint256)": "infinite",
						"balanceOf(address)": "2919",
						"claimWages()": "infinite",
						"dailyEarningsCap()": "2535",
						"decimals()": "428",
						"earningsToday(address)": "2869",
						"lastEarningsReset(address)": "2892",
						"name()": "infinite",
						"owner()": "2612",
						"pause()": "infinite",
						"paused()": "2541",
						"payReward(address,string)": "infinite",
						"rates()": "infinite",
						"recordWage(address,uint256)": "infinite",
						"renounceOwnership()": "infinite",
						"signsHistoryContract()": "2597",
						"signsNFTContract()": "2553",
						"symbol()": "infinite",
						"totalSupply()": "2523",
						"transfer(address,uint256)": "infinite",
						"transferFrom(address,address,uint256)": "infinite",
						"transferOwnership(address)": "infinite",
						"unpause()": "infinite",
						"updateDailyEarningsCap(uint256)": "infinite",
						"updateGameContract(string,address)": "infinite",
						"updateRates((uint256,uint256,uint256))": "infinite",
						"wageBalance(address)": "2870"
					},
					"internal": {
						"_checkAndResetDailyEarnings(address)": "infinite"
					}
				},
				"methodIdentifiers": {
					"DAILY_RESET()": "c1f3bdde",
					"allowance(address,address)": "dd62ed3e",
					"approve(address,uint256)": "095ea7b3",
					"balanceOf(address)": "70a08231",
					"claimWages()": "ca1c7238",
					"dailyEarningsCap()": "f4f831a0",
					"decimals()": "313ce567",
					"earningsToday(address)": "a6ec1c6d",
					"lastEarningsReset(address)": "9778d0cd",
					"name()": "06fdde03",
					"owner()": "8da5cb5b",
					"pause()": "8456cb59",
					"paused()": "5c975abb",
					"payReward(address,string)": "c0008d0c",
					"rates()": "43f48fbd",
					"recordWage(address,uint256)": "d06a2e0e",
					"renounceOwnership()": "715018a6",
					"signsHistoryContract()": "a775ced3",
					"signsNFTContract()": "a3262ea2",
					"symbol()": "95d89b41",
					"totalSupply()": "18160ddd",
					"transfer(address,uint256)": "a9059cbb",
					"transferFrom(address,address,uint256)": "23b872dd",
					"transferOwnership(address)": "f2fde38b",
					"unpause()": "3f4ba83a",
					"updateDailyEarningsCap(uint256)": "ce55b584",
					"updateGameContract(string,address)": "8d9d7307",
					"updateRates((uint256,uint256,uint256))": "849d13a3",
					"wageBalance(address)": "2a504a97"
				}
			},
			"storageLayout": {
				"storage": [
					{
						"astId": 480,
						"contract": "Signs 2/SignsToken.sol:SignsToken",
						"label": "_balances",
						"offset": 0,
						"slot": "0",
						"type": "t_mapping(t_address,t_uint256)"
					},
					{
						"astId": 486,
						"contract": "Signs 2/SignsToken.sol:SignsToken",
						"label": "_allowances",
						"offset": 0,
						"slot": "1",
						"type": "t_mapping(t_address,t_mapping(t_address,t_uint256))"
					},
					{
						"astId": 488,
						"contract": "Signs 2/SignsToken.sol:SignsToken",
						"label": "_totalSupply",
						"offset": 0,
						"slot": "2",
						"type": "t_uint256"
					},
					{
						"astId": 490,
						"contract": "Signs 2/SignsToken.sol:SignsToken",
						"label": "_name",
						"offset": 0,
						"slot": "3",
						"type": "t_string_storage"
					},
					{
						"astId": 492,
						"contract": "Signs 2/SignsToken.sol:SignsToken",
						"label": "_symbol",
						"offset": 0,
						"slot": "4",
						"type": "t_string_storage"
					},
					{
						"astId": 302,
						"contract": "Signs 2/SignsToken.sol:SignsToken",
						"label": "_paused",
						"offset": 0,
						"slot": "5",
						"type": "t_bool"
					},
					{
						"astId": 8,
						"contract": "Signs 2/SignsToken.sol:SignsToken",
						"label": "_owner",
						"offset": 1,
						"slot": "5",
						"type": "t_address"
					},
					{
						"astId": 403,
						"contract": "Signs 2/SignsToken.sol:SignsToken",
						"label": "_status",
						"offset": 0,
						"slot": "6",
						"type": "t_uint256"
					},
					{
						"astId": 1131,
						"contract": "Signs 2/SignsToken.sol:SignsToken",
						"label": "rates",
						"offset": 0,
						"slot": "7",
						"type": "t_struct(RewardRates)1128_storage"
					},
					{
						"astId": 1133,
						"contract": "Signs 2/SignsToken.sol:SignsToken",
						"label": "dailyEarningsCap",
						"offset": 0,
						"slot": "10",
						"type": "t_uint256"
					},
					{
						"astId": 1138,
						"contract": "Signs 2/SignsToken.sol:SignsToken",
						"label": "signsNFTContract",
						"offset": 0,
						"slot": "11",
						"type": "t_address"
					},
					{
						"astId": 1140,
						"contract": "Signs 2/SignsToken.sol:SignsToken",
						"label": "signsHistoryContract",
						"offset": 0,
						"slot": "12",
						"type": "t_address"
					},
					{
						"astId": 1144,
						"contract": "Signs 2/SignsToken.sol:SignsToken",
						"label": "wageBalance",
						"offset": 0,
						"slot": "13",
						"type": "t_mapping(t_address,t_uint256)"
					},
					{
						"astId": 1148,
						"contract": "Signs 2/SignsToken.sol:SignsToken",
						"label": "lastEarningsReset",
						"offset": 0,
						"slot": "14",
						"type": "t_mapping(t_address,t_uint256)"
					},
					{
						"astId": 1152,
						"contract": "Signs 2/SignsToken.sol:SignsToken",
						"label": "earningsToday",
						"offset": 0,
						"slot": "15",
						"type": "t_mapping(t_address,t_uint256)"
					}
				],
				"types": {
					"t_address": {
						"encoding": "inplace",
						"label": "address",
						"numberOfBytes": "20"
					},
					"t_bool": {
						"encoding": "inplace",
						"label": "bool",
						"numberOfBytes": "1"
					},
					"t_mapping(t_address,t_mapping(t_address,t_uint256))": {
						"encoding": "mapping",
						"key": "t_address",
						"label": "mapping(address => mapping(address => uint256))",
						"numberOfBytes": "32",
						"value": "t_mapping(t_address,t_uint256)"
					},
					"t_mapping(t_address,t_uint256)": {
						"encoding": "mapping",
						"key": "t_address",
						"label": "mapping(address => uint256)",
						"numberOfBytes": "32",
						"value": "t_uint256"
					},
					"t_string_storage": {
						"encoding": "bytes",
						"label": "string",
						"numberOfBytes": "32"
					},
					"t_struct(RewardRates)1128_storage": {
						"encoding": "inplace",
						"label": "struct SignsToken.RewardRates",
						"members": [
							{
								"astId": 1123,
								"contract": "Signs 2/SignsToken.sol:SignsToken",
								"label": "movementBaseRate",
								"offset": 0,
								"slot": "0",
								"type": "t_uint256"
							},
							{
								"astId": 1125,
								"contract": "Signs 2/SignsToken.sol:SignsToken",
								"label": "diaryEntryRate",
								"offset": 0,
								"slot": "1",
								"type": "t_uint256"
							},
							{
								"astId": 1127,
								"contract": "Signs 2/SignsToken.sol:SignsToken",
								"label": "photoUploadRate",
								"offset": 0,
								"slot": "2",
								"type": "t_uint256"
							}
						],
						"numberOfBytes": "96"
					},
					"t_uint256": {
						"encoding": "inplace",
						"label": "uint256",
						"numberOfBytes": "32"
					}
				}
			},
			"userdoc": {
				"kind": "user",
				"methods": {},
				"version": 1
			}
		}
	}
}