{
	"Signs 2/SignsToken.sol": {
		"SignToken": {
			"abi": [
				{
					"inputs": [
						{
							"internalType": "string",
							"name": "name",
							"type": "string"
						},
						{
							"internalType": "string",
							"name": "symbol",
							"type": "string"
						},
						{
							"internalType": "address",
							"name": "_signsNFTContract",
							"type": "address"
						},
						{
							"internalType": "address",
							"name": "_commissionTreasury",
							"type": "address"
						}
					],
					"stateMutability": "nonpayable",
					"type": "constructor"
				},
				{
					"inputs": [
						{
							"internalType": "address",
							"name": "spender",
							"type": "address"
						},
						{
							"internalType": "uint256",
							"name": "allowance",
							"type": "uint256"
						},
						{
							"internalType": "uint256",
							"name": "needed",
							"type": "uint256"
						}
					],
					"name": "ERC20InsufficientAllowance",
					"type": "error"
				},
				{
					"inputs": [
						{
							"internalType": "address",
							"name": "sender",
							"type": "address"
						},
						{
							"internalType": "uint256",
							"name": "balance",
							"type": "uint256"
						},
						{
							"internalType": "uint256",
							"name": "needed",
							"type": "uint256"
						}
					],
					"name": "ERC20InsufficientBalance",
					"type": "error"
				},
				{
					"inputs": [
						{
							"internalType": "address",
							"name": "approver",
							"type": "address"
						}
					],
					"name": "ERC20InvalidApprover",
					"type": "error"
				},
				{
					"inputs": [
						{
							"internalType": "address",
							"name": "receiver",
							"type": "address"
						}
					],
					"name": "ERC20InvalidReceiver",
					"type": "error"
				},
				{
					"inputs": [
						{
							"internalType": "address",
							"name": "sender",
							"type": "address"
						}
					],
					"name": "ERC20InvalidSender",
					"type": "error"
				},
				{
					"inputs": [
						{
							"internalType": "address",
							"name": "spender",
							"type": "address"
						}
					],
					"name": "ERC20InvalidSpender",
					"type": "error"
				},
				{
					"inputs": [],
					"name": "InsufficientBalance",
					"type": "error"
				},
				{
					"inputs": [],
					"name": "InsufficientSignBalance",
					"type": "error"
				},
				{
					"inputs": [],
					"name": "InvalidAmount",
					"type": "error"
				},
				{
					"inputs": [],
					"name": "InvalidCommission",
					"type": "error"
				},
				{
					"inputs": [],
					"name": "InvalidNFTContract",
					"type": "error"
				},
				{
					"inputs": [],
					"name": "InvalidTreasuryAddress",
					"type": "error"
				},
				{
					"inputs": [
						{
							"internalType": "address",
							"name": "owner",
							"type": "address"
						}
					],
					"name": "OwnableInvalidOwner",
					"type": "error"
				},
				{
					"inputs": [
						{
							"internalType": "address",
							"name": "account",
							"type": "address"
						}
					],
					"name": "OwnableUnauthorizedAccount",
					"type": "error"
				},
				{
					"inputs": [],
					"name": "UnauthorizedCaller",
					"type": "error"
				},
				{
					"inputs": [],
					"name": "UnauthorizedOwner",
					"type": "error"
				},
				{
					"anonymous": false,
					"inputs": [
						{
							"indexed": true,
							"internalType": "address",
							"name": "owner",
							"type": "address"
						},
						{
							"indexed": true,
							"internalType": "address",
							"name": "spender",
							"type": "address"
						},
						{
							"indexed": false,
							"internalType": "uint256",
							"name": "value",
							"type": "uint256"
						}
					],
					"name": "Approval",
					"type": "event"
				},
				{
					"anonymous": false,
					"inputs": [
						{
							"indexed": true,
							"internalType": "uint256",
							"name": "tokenId",
							"type": "uint256"
						},
						{
							"indexed": false,
							"internalType": "uint256",
							"name": "amount",
							"type": "uint256"
						}
					],
					"name": "CommissionPaid",
					"type": "event"
				},
				{
					"anonymous": false,
					"inputs": [
						{
							"indexed": false,
							"internalType": "address",
							"name": "newTreasury",
							"type": "address"
						}
					],
					"name": "CommissionTreasuryUpdated",
					"type": "event"
				},
				{
					"anonymous": false,
					"inputs": [
						{
							"indexed": false,
							"internalType": "uint256",
							"name": "newCommissionPercent",
							"type": "uint256"
						}
					],
					"name": "CommissionUpdated",
					"type": "event"
				},
				{
					"anonymous": false,
					"inputs": [
						{
							"indexed": true,
							"internalType": "uint256",
							"name": "tokenId",
							"type": "uint256"
						},
						{
							"indexed": false,
							"internalType": "uint256",
							"name": "currentBalance",
							"type": "uint256"
						},
						{
							"indexed": false,
							"internalType": "uint256",
							"name": "requiredAmount",
							"type": "uint256"
						}
					],
					"name": "LowSignBalance",
					"type": "event"
				},
				{
					"anonymous": false,
					"inputs": [
						{
							"indexed": false,
							"internalType": "address",
							"name": "newAddress",
							"type": "address"
						}
					],
					"name": "NFTContractUpdated",
					"type": "event"
				},
				{
					"anonymous": false,
					"inputs": [
						{
							"indexed": true,
							"internalType": "address",
							"name": "previousOwner",
							"type": "address"
						},
						{
							"indexed": true,
							"internalType": "address",
							"name": "newOwner",
							"type": "address"
						}
					],
					"name": "OwnershipTransferred",
					"type": "event"
				},
				{
					"anonymous": false,
					"inputs": [
						{
							"indexed": true,
							"internalType": "uint256",
							"name": "tokenId",
							"type": "uint256"
						},
						{
							"indexed": true,
							"internalType": "address",
							"name": "carrier",
							"type": "address"
						},
						{
							"indexed": false,
							"internalType": "uint256",
							"name": "paidAmount",
							"type": "uint256"
						},
						{
							"indexed": false,
							"internalType": "uint256",
							"name": "remainingUnpaid",
							"type": "uint256"
						}
					],
					"name": "PartialWagePaid",
					"type": "event"
				},
				{
					"anonymous": false,
					"inputs": [
						{
							"indexed": false,
							"internalType": "address",
							"name": "account",
							"type": "address"
						}
					],
					"name": "Paused",
					"type": "event"
				},
				{
					"anonymous": false,
					"inputs": [
						{
							"indexed": true,
							"internalType": "uint256",
							"name": "tokenId",
							"type": "uint256"
						},
						{
							"indexed": false,
							"internalType": "uint256",
							"name": "amount",
							"type": "uint256"
						}
					],
					"name": "SignBalanceCharged",
					"type": "event"
				},
				{
					"anonymous": false,
					"inputs": [
						{
							"indexed": true,
							"internalType": "uint256",
							"name": "tokenId",
							"type": "uint256"
						},
						{
							"indexed": true,
							"internalType": "address",
							"name": "owner",
							"type": "address"
						},
						{
							"indexed": false,
							"internalType": "uint256",
							"name": "amount",
							"type": "uint256"
						}
					],
					"name": "SignBalanceWithdrawn",
					"type": "event"
				},
				{
					"anonymous": false,
					"inputs": [
						{
							"indexed": true,
							"internalType": "address",
							"name": "from",
							"type": "address"
						},
						{
							"indexed": true,
							"internalType": "address",
							"name": "to",
							"type": "address"
						},
						{
							"indexed": false,
							"internalType": "uint256",
							"name": "value",
							"type": "uint256"
						}
					],
					"name": "Transfer",
					"type": "event"
				},
				{
					"anonymous": false,
					"inputs": [
						{
							"indexed": false,
							"internalType": "address",
							"name": "account",
							"type": "address"
						}
					],
					"name": "Unpaused",
					"type": "event"
				},
				{
					"anonymous": false,
					"inputs": [
						{
							"indexed": true,
							"internalType": "uint256",
							"name": "tokenId",
							"type": "uint256"
						},
						{
							"indexed": true,
							"internalType": "address",
							"name": "carrier",
							"type": "address"
						},
						{
							"indexed": false,
							"internalType": "uint256",
							"name": "amount",
							"type": "uint256"
						}
					],
					"name": "WagePaid",
					"type": "event"
				},
				{
					"inputs": [
						{
							"internalType": "address",
							"name": "owner",
							"type": "address"
						},
						{
							"internalType": "address",
							"name": "spender",
							"type": "address"
						}
					],
					"name": "allowance",
					"outputs": [
						{
							"internalType": "uint256",
							"name": "",
							"type": "uint256"
						}
					],
					"stateMutability": "view",
					"type": "function"
				},
				{
					"inputs": [
						{
							"internalType": "address",
							"name": "spender",
							"type": "address"
						},
						{
							"internalType": "uint256",
							"name": "value",
							"type": "uint256"
						}
					],
					"name": "approve",
					"outputs": [
						{
							"internalType": "bool",
							"name": "",
							"type": "bool"
						}
					],
					"stateMutability": "nonpayable",
					"type": "function"
				},
				{
					"inputs": [
						{
							"internalType": "address",
							"name": "account",
							"type": "address"
						}
					],
					"name": "balanceOf",
					"outputs": [
						{
							"internalType": "uint256",
							"name": "",
							"type": "uint256"
						}
					],
					"stateMutability": "view",
					"type": "function"
				},
				{
					"inputs": [
						{
							"internalType": "uint256",
							"name": "tokenId",
							"type": "uint256"
						},
						{
							"internalType": "uint256",
							"name": "amount",
							"type": "uint256"
						}
					],
					"name": "chargeSignBalance",
					"outputs": [],
					"stateMutability": "nonpayable",
					"type": "function"
				},
				{
					"inputs": [],
					"name": "commissionPercent",
					"outputs": [
						{
							"internalType": "uint256",
							"name": "",
							"type": "uint256"
						}
					],
					"stateMutability": "view",
					"type": "function"
				},
				{
					"inputs": [],
					"name": "commissionTreasury",
					"outputs": [
						{
							"internalType": "address",
							"name": "",
							"type": "address"
						}
					],
					"stateMutability": "view",
					"type": "function"
				},
				{
					"inputs": [],
					"name": "decimals",
					"outputs": [
						{
							"internalType": "uint8",
							"name": "",
							"type": "uint8"
						}
					],
					"stateMutability": "view",
					"type": "function"
				},
				{
					"inputs": [
						{
							"internalType": "address",
							"name": "owner",
							"type": "address"
						}
					],
					"name": "getApprovalInfo",
					"outputs": [
						{
							"internalType": "uint256",
							"name": "balance",
							"type": "uint256"
						},
						{
							"internalType": "uint256",
							"name": "contractAllowance",
							"type": "uint256"
						}
					],
					"stateMutability": "view",
					"type": "function"
				},
				{
					"inputs": [],
					"name": "name",
					"outputs": [
						{
							"internalType": "string",
							"name": "",
							"type": "string"
						}
					],
					"stateMutability": "view",
					"type": "function"
				},
				{
					"inputs": [],
					"name": "owner",
					"outputs": [
						{
							"internalType": "address",
							"name": "",
							"type": "address"
						}
					],
					"stateMutability": "view",
					"type": "function"
				},
				{
					"inputs": [],
					"name": "pause",
					"outputs": [],
					"stateMutability": "nonpayable",
					"type": "function"
				},
				{
					"inputs": [],
					"name": "paused",
					"outputs": [
						{
							"internalType": "bool",
							"name": "",
							"type": "bool"
						}
					],
					"stateMutability": "view",
					"type": "function"
				},
				{
					"inputs": [
						{
							"internalType": "uint256",
							"name": "tokenId",
							"type": "uint256"
						},
						{
							"internalType": "address",
							"name": "carrier",
							"type": "address"
						},
						{
							"internalType": "uint256",
							"name": "amount",
							"type": "uint256"
						}
					],
					"name": "payWage",
					"outputs": [
						{
							"components": [
								{
									"internalType": "uint256",
									"name": "paidAmount",
									"type": "uint256"
								},
								{
									"internalType": "uint256",
									"name": "remainingWage",
									"type": "uint256"
								},
								{
									"internalType": "bool",
									"name": "isPartialPayment",
									"type": "bool"
								}
							],
							"internalType": "struct SignToken.WagePaymentResult",
							"name": "",
							"type": "tuple"
						}
					],
					"stateMutability": "nonpayable",
					"type": "function"
				},
				{
					"inputs": [],
					"name": "renounceOwnership",
					"outputs": [],
					"stateMutability": "nonpayable",
					"type": "function"
				},
				{
					"inputs": [
						{
							"internalType": "uint256",
							"name": "",
							"type": "uint256"
						}
					],
					"name": "signBalances",
					"outputs": [
						{
							"internalType": "uint256",
							"name": "",
							"type": "uint256"
						}
					],
					"stateMutability": "view",
					"type": "function"
				},
				{
					"inputs": [],
					"name": "signsNFT",
					"outputs": [
						{
							"internalType": "contract ISignsNFT",
							"name": "",
							"type": "address"
						}
					],
					"stateMutability": "view",
					"type": "function"
				},
				{
					"inputs": [],
					"name": "signsNFTContract",
					"outputs": [
						{
							"internalType": "address",
							"name": "",
							"type": "address"
						}
					],
					"stateMutability": "view",
					"type": "function"
				},
				{
					"inputs": [],
					"name": "symbol",
					"outputs": [
						{
							"internalType": "string",
							"name": "",
							"type": "string"
						}
					],
					"stateMutability": "view",
					"type": "function"
				},
				{
					"inputs": [],
					"name": "totalSupply",
					"outputs": [
						{
							"internalType": "uint256",
							"name": "",
							"type": "uint256"
						}
					],
					"stateMutability": "view",
					"type": "function"
				},
				{
					"inputs": [
						{
							"internalType": "address",
							"name": "to",
							"type": "address"
						},
						{
							"internalType": "uint256",
							"name": "amount",
							"type": "uint256"
						}
					],
					"name": "transfer",
					"outputs": [
						{
							"internalType": "bool",
							"name": "",
							"type": "bool"
						}
					],
					"stateMutability": "nonpayable",
					"type": "function"
				},
				{
					"inputs": [
						{
							"internalType": "address",
							"name": "from",
							"type": "address"
						},
						{
							"internalType": "address",
							"name": "to",
							"type": "address"
						},
						{
							"internalType": "uint256",
							"name": "amount",
							"type": "uint256"
						}
					],
					"name": "transferFrom",
					"outputs": [
						{
							"internalType": "bool",
							"name": "",
							"type": "bool"
						}
					],
					"stateMutability": "nonpayable",
					"type": "function"
				},
				{
					"inputs": [
						{
							"internalType": "address",
							"name": "newOwner",
							"type": "address"
						}
					],
					"name": "transferOwnership",
					"outputs": [],
					"stateMutability": "nonpayable",
					"type": "function"
				},
				{
					"inputs": [],
					"name": "unpause",
					"outputs": [],
					"stateMutability": "nonpayable",
					"type": "function"
				},
				{
					"inputs": [
						{
							"internalType": "uint256",
							"name": "newCommissionPercent",
							"type": "uint256"
						}
					],
					"name": "updateCommission",
					"outputs": [],
					"stateMutability": "nonpayable",
					"type": "function"
				},
				{
					"inputs": [
						{
							"internalType": "address",
							"name": "newTreasury",
							"type": "address"
						}
					],
					"name": "updateCommissionTreasury",
					"outputs": [],
					"stateMutability": "nonpayable",
					"type": "function"
				},
				{
					"inputs": [
						{
							"internalType": "address",
							"name": "_newAddress",
							"type": "address"
						}
					],
					"name": "updateSignsNFTContract",
					"outputs": [],
					"stateMutability": "nonpayable",
					"type": "function"
				},
				{
					"inputs": [
						{
							"internalType": "uint256",
							"name": "tokenId",
							"type": "uint256"
						},
						{
							"internalType": "uint256",
							"name": "amount",
							"type": "uint256"
						}
					],
					"name": "withdrawSignBalance",
					"outputs": [],
					"stateMutability": "nonpayable",
					"type": "function"
				}
			],
			"devdoc": {
				"details": "ERC20 token for the Signs game economy, managing sign balances and wage payments",
				"errors": {
					"ERC20InsufficientAllowance(address,uint256,uint256)": [
						{
							"details": "Indicates a failure with the `spender`’s `allowance`. Used in transfers.",
							"params": {
								"allowance": "Amount of tokens a `spender` is allowed to operate with.",
								"needed": "Minimum amount required to perform a transfer.",
								"spender": "Address that may be allowed to operate on tokens without being their owner."
							}
						}
					],
					"ERC20InsufficientBalance(address,uint256,uint256)": [
						{
							"details": "Indicates an error related to the current `balance` of a `sender`. Used in transfers.",
							"params": {
								"balance": "Current balance for the interacting account.",
								"needed": "Minimum amount required to perform a transfer.",
								"sender": "Address whose tokens are being transferred."
							}
						}
					],
					"ERC20InvalidApprover(address)": [
						{
							"details": "Indicates a failure with the `approver` of a token to be approved. Used in approvals.",
							"params": {
								"approver": "Address initiating an approval operation."
							}
						}
					],
					"ERC20InvalidReceiver(address)": [
						{
							"details": "Indicates a failure with the token `receiver`. Used in transfers.",
							"params": {
								"receiver": "Address to which tokens are being transferred."
							}
						}
					],
					"ERC20InvalidSender(address)": [
						{
							"details": "Indicates a failure with the token `sender`. Used in transfers.",
							"params": {
								"sender": "Address whose tokens are being transferred."
							}
						}
					],
					"ERC20InvalidSpender(address)": [
						{
							"details": "Indicates a failure with the `spender` to be approved. Used in approvals.",
							"params": {
								"spender": "Address that may be allowed to operate on tokens without being their owner."
							}
						}
					],
					"OwnableInvalidOwner(address)": [
						{
							"details": "The owner is not a valid owner account. (eg. `address(0)`)"
						}
					],
					"OwnableUnauthorizedAccount(address)": [
						{
							"details": "The caller account is not authorized to perform an operation."
						}
					]
				},
				"events": {
					"Approval(address,address,uint256)": {
						"details": "Emitted when the allowance of a `spender` for an `owner` is set by a call to {approve}. `value` is the new allowance."
					},
					"Paused(address)": {
						"details": "Emitted when the pause is triggered by `account`."
					},
					"Transfer(address,address,uint256)": {
						"details": "Emitted when `value` tokens are moved from one account (`from`) to another (`to`). Note that `value` may be zero."
					},
					"Unpaused(address)": {
						"details": "Emitted when the pause is lifted by `account`."
					}
				},
				"kind": "dev",
				"methods": {
					"allowance(address,address)": {
						"details": "See {IERC20-allowance}."
					},
					"approve(address,uint256)": {
						"details": "See {IERC20-approve}. NOTE: If `value` is the maximum `uint256`, the allowance is not updated on `transferFrom`. This is semantically equivalent to an infinite approval. Requirements: - `spender` cannot be the zero address."
					},
					"balanceOf(address)": {
						"details": "See {IERC20-balanceOf}."
					},
					"chargeSignBalance(uint256,uint256)": {
						"details": "Charges a sign's balance with tokens",
						"params": {
							"amount": "Amount of tokens to charge",
							"tokenId": "The ID of the sign to charge"
						}
					},
					"decimals()": {
						"details": "Returns the number of decimals used to get its user representation. For example, if `decimals` equals `2`, a balance of `505` tokens should be displayed to a user as `5.05` (`505 / 10 ** 2`). Tokens usually opt for a value of 18, imitating the relationship between Ether and Wei. This is the default value returned by this function, unless it's overridden. NOTE: This information is only used for _display_ purposes: it in no way affects any of the arithmetic of the contract, including {IERC20-balanceOf} and {IERC20-transfer}."
					},
					"name()": {
						"details": "Returns the name of the token."
					},
					"owner()": {
						"details": "Returns the address of the current owner."
					},
					"paused()": {
						"details": "Returns true if the contract is paused, and false otherwise."
					},
					"payWage(uint256,address,uint256)": {
						"details": "Pays wage to carrier from sign's balance, handles partial payments",
						"params": {
							"amount": "Amount of wage to pay",
							"carrier": "Address of the carrier to pay",
							"tokenId": "The ID of the sign"
						},
						"returns": {
							"_0": "result WagePaymentResult struct with payment details"
						}
					},
					"renounceOwnership()": {
						"details": "Leaves the contract without owner. It will not be possible to call `onlyOwner` functions. Can only be called by the current owner. NOTE: Renouncing ownership will leave the contract without an owner, thereby disabling any functionality that is only available to the owner."
					},
					"symbol()": {
						"details": "Returns the symbol of the token, usually a shorter version of the name."
					},
					"totalSupply()": {
						"details": "See {IERC20-totalSupply}."
					},
					"transferOwnership(address)": {
						"details": "Transfers ownership of the contract to a new account (`newOwner`). Can only be called by the current owner."
					},
					"updateCommission(uint256)": {
						"details": "Updates the commission percentage",
						"params": {
							"newCommissionPercent": "New commission in basis points (1% = 100)"
						}
					},
					"updateCommissionTreasury(address)": {
						"details": "Updates the commission treasury address",
						"params": {
							"newTreasury": "New treasury address"
						}
					},
					"updateSignsNFTContract(address)": {
						"details": "Updates the SignsNFT contract address",
						"params": {
							"_newAddress": "New contract address"
						}
					},
					"withdrawSignBalance(uint256,uint256)": {
						"details": "Withdraws tokens from a sign's balance back to the owner",
						"params": {
							"amount": "Amount to withdraw",
							"tokenId": "The ID of the sign"
						}
					}
				},
				"title": "SignToken",
				"version": 1
			},
			"evm": {
				"assembly": "    /* \"Signs 2/SignsToken.sol\":467:10594  contract SignToken is ERC20, Pausable, Ownable, ReentrancyGuard {... */\n  mstore(0x40, 0x80)\n    /* \"Signs 2/SignsToken.sol\":1792:2374  constructor(... */\n  callvalue\n  dup1\n  iszero\n  tag_1\n  jumpi\n  0x00\n  dup1\n  revert\ntag_1:\n  pop\n  mload(0x40)\n  sub(codesize, bytecodeSize)\n  dup1\n  bytecodeSize\n  dup4\n  codecopy\n  dup2\n  dup2\n  add\n  0x40\n  mstore\n  dup2\n  add\n  swap1\n  tag_2\n  swap2\n  swap1\n  tag_3\n  jump\t// in\ntag_2:\n    /* \"Signs 2/SignsToken.sol\":1973:1983  msg.sender */\n  caller\n    /* \"Signs 2/SignsToken.sol\":1951:1955  name */\n  dup5\n    /* \"Signs 2/SignsToken.sol\":1957:1963  symbol */\n  dup5\n    /* \"@openzeppelin/contracts/token/ERC20/ERC20.sol\":1675:1680  name_ */\n  dup2\n    /* \"@openzeppelin/contracts/token/ERC20/ERC20.sol\":1667:1672  _name */\n  0x03\n    /* \"@openzeppelin/contracts/token/ERC20/ERC20.sol\":1667:1680  _name = name_ */\n  swap1\n  dup2\n  tag_10\n  swap2\n  swap1\n  tag_11\n  jump\t// in\ntag_10:\n  pop\n    /* \"@openzeppelin/contracts/token/ERC20/ERC20.sol\":1700:1707  symbol_ */\n  dup1\n    /* \"@openzeppelin/contracts/token/ERC20/ERC20.sol\":1690:1697  _symbol */\n  0x04\n    /* \"@openzeppelin/contracts/token/ERC20/ERC20.sol\":1690:1707  _symbol = symbol_ */\n  swap1\n  dup2\n  tag_12\n  swap2\n  swap1\n  tag_11\n  jump\t// in\ntag_12:\n  pop\n    /* \"@openzeppelin/contracts/token/ERC20/ERC20.sol\":1601:1714  constructor(string memory name_, string memory symbol_) {... */\n  pop\n  pop\n    /* \"@openzeppelin/contracts/security/Pausable.sol\":1006:1011  false */\n  0x00\n    /* \"@openzeppelin/contracts/security/Pausable.sol\":996:1003  _paused */\n  0x05\n  0x00\n    /* \"@openzeppelin/contracts/security/Pausable.sol\":996:1011  _paused = false */\n  0x0100\n  exp\n  dup2\n  sload\n  dup2\n  0xff\n  mul\n  not\n  and\n  swap1\n  dup4\n  iszero\n  iszero\n  mul\n  or\n  swap1\n  sstore\n  pop\n    /* \"@openzeppelin/contracts/access/Ownable.sol\":1297:1298  0 */\n  0x00\n    /* \"@openzeppelin/contracts/access/Ownable.sol\":1273:1299  initialOwner == address(0) */\n  0xffffffffffffffffffffffffffffffffffffffff\n  and\n    /* \"@openzeppelin/contracts/access/Ownable.sol\":1273:1285  initialOwner */\n  dup2\n    /* \"@openzeppelin/contracts/access/Ownable.sol\":1273:1299  initialOwner == address(0) */\n  0xffffffffffffffffffffffffffffffffffffffff\n  and\n  sub\n    /* \"@openzeppelin/contracts/access/Ownable.sol\":1269:1364  if (initialOwner == address(0)) {... */\n  tag_15\n  jumpi\n    /* \"@openzeppelin/contracts/access/Ownable.sol\":1350:1351  0 */\n  0x00\n    /* \"@openzeppelin/contracts/access/Ownable.sol\":1322:1353  OwnableInvalidOwner(address(0)) */\n  mload(0x40)\n  0x1e4fbdf700000000000000000000000000000000000000000000000000000000\n  dup2\n  mstore\n  0x04\n  add\n  tag_16\n  swap2\n  swap1\n  tag_17\n  jump\t// in\ntag_16:\n  mload(0x40)\n  dup1\n  swap2\n  sub\n  swap1\n  revert\n    /* \"@openzeppelin/contracts/access/Ownable.sol\":1269:1364  if (initialOwner == address(0)) {... */\ntag_15:\n    /* \"@openzeppelin/contracts/access/Ownable.sol\":1373:1405  _transferOwnership(initialOwner) */\n  tag_18\n    /* \"@openzeppelin/contracts/access/Ownable.sol\":1392:1404  initialOwner */\n  dup2\n    /* \"@openzeppelin/contracts/access/Ownable.sol\":1373:1391  _transferOwnership */\n  shl(0x20, tag_19)\n    /* \"@openzeppelin/contracts/access/Ownable.sol\":1373:1405  _transferOwnership(initialOwner) */\n  0x20\n  shr\n  jump\t// in\ntag_18:\n    /* \"@openzeppelin/contracts/access/Ownable.sol\":1225:1412  constructor(address initialOwner) {... */\n  pop\n    /* \"@openzeppelin/contracts/security/ReentrancyGuard.sol\":1716:1717  1 */\n  0x01\n    /* \"@openzeppelin/contracts/security/ReentrancyGuard.sol\":1821:1828  _status */\n  0x06\n    /* \"@openzeppelin/contracts/security/ReentrancyGuard.sol\":1821:1843  _status = _NOT_ENTERED */\n  dup2\n  swap1\n  sstore\n  pop\n    /* \"Signs 2/SignsToken.sol\":2029:2030  0 */\n  0x00\n    /* \"Signs 2/SignsToken.sol\":2000:2031  _signsNFTContract == address(0) */\n  0xffffffffffffffffffffffffffffffffffffffff\n  and\n    /* \"Signs 2/SignsToken.sol\":2000:2017  _signsNFTContract */\n  dup3\n    /* \"Signs 2/SignsToken.sol\":2000:2031  _signsNFTContract == address(0) */\n  0xffffffffffffffffffffffffffffffffffffffff\n  and\n  sub\n    /* \"Signs 2/SignsToken.sol\":1996:2060  if (_signsNFTContract == address(0)) revert InvalidNFTContract() */\n  tag_22\n  jumpi\n    /* \"Signs 2/SignsToken.sol\":2040:2060  InvalidNFTContract() */\n  mload(0x40)\n  0xf8af67e500000000000000000000000000000000000000000000000000000000\n  dup2\n  mstore\n  0x04\n  add\n  mload(0x40)\n  dup1\n  swap2\n  sub\n  swap1\n  revert\n    /* \"Signs 2/SignsToken.sol\":1996:2060  if (_signsNFTContract == address(0)) revert InvalidNFTContract() */\ntag_22:\n    /* \"Signs 2/SignsToken.sol\":2106:2107  0 */\n  0x00\n    /* \"Signs 2/SignsToken.sol\":2075:2108  _commissionTreasury == address(0) */\n  0xffffffffffffffffffffffffffffffffffffffff\n  and\n    /* \"Signs 2/SignsToken.sol\":2075:2094  _commissionTreasury */\n  dup2\n    /* \"Signs 2/SignsToken.sol\":2075:2108  _commissionTreasury == address(0) */\n  0xffffffffffffffffffffffffffffffffffffffff\n  and\n  sub\n    /* \"Signs 2/SignsToken.sol\":2071:2141  if (_commissionTreasury == address(0)) revert InvalidTreasuryAddress() */\n  tag_23\n  jumpi\n    /* \"Signs 2/SignsToken.sol\":2117:2141  InvalidTreasuryAddress() */\n  mload(0x40)\n  0xcfe2ea6300000000000000000000000000000000000000000000000000000000\n  dup2\n  mstore\n  0x04\n  add\n  mload(0x40)\n  dup1\n  swap2\n  sub\n  swap1\n  revert\n    /* \"Signs 2/SignsToken.sol\":2071:2141  if (_commissionTreasury == address(0)) revert InvalidTreasuryAddress() */\ntag_23:\n    /* \"Signs 2/SignsToken.sol\":2181:2198  _signsNFTContract */\n  dup2\n    /* \"Signs 2/SignsToken.sol\":2162:2178  signsNFTContract */\n  0x08\n  0x00\n    /* \"Signs 2/SignsToken.sol\":2162:2198  signsNFTContract = _signsNFTContract */\n  0x0100\n  exp\n  dup2\n  sload\n  dup2\n  0xffffffffffffffffffffffffffffffffffffffff\n  mul\n  not\n  and\n  swap1\n  dup4\n  0xffffffffffffffffffffffffffffffffffffffff\n  and\n  mul\n  or\n  swap1\n  sstore\n  pop\n    /* \"Signs 2/SignsToken.sol\":2230:2249  _commissionTreasury */\n  dup1\n    /* \"Signs 2/SignsToken.sol\":2209:2227  commissionTreasury */\n  0x0a\n  0x00\n    /* \"Signs 2/SignsToken.sol\":2209:2249  commissionTreasury = _commissionTreasury */\n  0x0100\n  exp\n  dup2\n  sload\n  dup2\n  0xffffffffffffffffffffffffffffffffffffffff\n  mul\n  not\n  and\n  swap1\n  dup4\n  0xffffffffffffffffffffffffffffffffffffffff\n  and\n  mul\n  or\n  swap1\n  sstore\n  pop\n    /* \"Signs 2/SignsToken.sol\":2280:2283  500 */\n  0x01f4\n    /* \"Signs 2/SignsToken.sol\":2260:2277  commissionPercent */\n  0x09\n    /* \"Signs 2/SignsToken.sol\":2260:2283  commissionPercent = 500 */\n  dup2\n  swap1\n  sstore\n  pop\n    /* \"Signs 2/SignsToken.sol\":2321:2366  _mint(msg.sender, 1_000_000 * 10**decimals()) */\n  tag_24\n    /* \"Signs 2/SignsToken.sol\":2327:2337  msg.sender */\n  caller\n    /* \"Signs 2/SignsToken.sol\":2355:2365  decimals() */\n  tag_25\n    /* \"Signs 2/SignsToken.sol\":2355:2363  decimals */\n  shl(0x20, tag_26)\n    /* \"Signs 2/SignsToken.sol\":2355:2365  decimals() */\n  0x20\n  shr\n  jump\t// in\ntag_25:\n    /* \"Signs 2/SignsToken.sol\":2351:2353  10 */\n  0x0a\n    /* \"Signs 2/SignsToken.sol\":2351:2365  10**decimals() */\n  tag_27\n  swap2\n  swap1\n  tag_28\n  jump\t// in\ntag_27:\n    /* \"Signs 2/SignsToken.sol\":2339:2348  1_000_000 */\n  0x0f4240\n    /* \"Signs 2/SignsToken.sol\":2339:2365  1_000_000 * 10**decimals() */\n  tag_29\n  swap2\n  swap1\n  tag_30\n  jump\t// in\ntag_29:\n    /* \"Signs 2/SignsToken.sol\":2321:2326  _mint */\n  shl(0x20, tag_31)\n    /* \"Signs 2/SignsToken.sol\":2321:2366  _mint(msg.sender, 1_000_000 * 10**decimals()) */\n  0x20\n  shr\n  jump\t// in\ntag_24:\n    /* \"Signs 2/SignsToken.sol\":1792:2374  constructor(... */\n  pop\n  pop\n  pop\n  pop\n    /* \"Signs 2/SignsToken.sol\":467:10594  contract SignToken is ERC20, Pausable, Ownable, ReentrancyGuard {... */\n  jump(tag_32)\n    /* \"@openzeppelin/contracts/access/Ownable.sol\":2912:3099  function _transferOwnership(address newOwner) internal virtual {... */\ntag_19:\n    /* \"@openzeppelin/contracts/access/Ownable.sol\":2985:3001  address oldOwner */\n  0x00\n    /* \"@openzeppelin/contracts/access/Ownable.sol\":3004:3010  _owner */\n  0x05\n  0x01\n  swap1\n  sload\n  swap1\n  0x0100\n  exp\n  swap1\n  div\n  0xffffffffffffffffffffffffffffffffffffffff\n  and\n    /* \"@openzeppelin/contracts/access/Ownable.sol\":2985:3010  address oldOwner = _owner */\n  swap1\n  pop\n    /* \"@openzeppelin/contracts/access/Ownable.sol\":3029:3037  newOwner */\n  dup2\n    /* \"@openzeppelin/contracts/access/Ownable.sol\":3020:3026  _owner */\n  0x05\n  0x01\n    /* \"@openzeppelin/contracts/access/Ownable.sol\":3020:3037  _owner = newOwner */\n  0x0100\n  exp\n  dup2\n  sload\n  dup2\n  0xffffffffffffffffffffffffffffffffffffffff\n  mul\n  not\n  and\n  swap1\n  dup4\n  0xffffffffffffffffffffffffffffffffffffffff\n  and\n  mul\n  or\n  swap1\n  sstore\n  pop\n    /* \"@openzeppelin/contracts/access/Ownable.sol\":3083:3091  newOwner */\n  dup2\n    /* \"@openzeppelin/contracts/access/Ownable.sol\":3052:3092  OwnershipTransferred(oldOwner, newOwner) */\n  0xffffffffffffffffffffffffffffffffffffffff\n  and\n    /* \"@openzeppelin/contracts/access/Ownable.sol\":3073:3081  oldOwner */\n  dup2\n    /* \"@openzeppelin/contracts/access/Ownable.sol\":3052:3092  OwnershipTransferred(oldOwner, newOwner) */\n  0xffffffffffffffffffffffffffffffffffffffff\n  and\n  0x8be0079c531659141344cd1fd0a4f28419497f9722a3daafe3b4186f6b6457e0\n  mload(0x40)\n  mload(0x40)\n  dup1\n  swap2\n  sub\n  swap1\n  log3\n    /* \"@openzeppelin/contracts/access/Ownable.sol\":2975:3099  {... */\n  pop\n    /* \"@openzeppelin/contracts/access/Ownable.sol\":2912:3099  function _transferOwnership(address newOwner) internal virtual {... */\n  pop\n  jump\t// out\n    /* \"@openzeppelin/contracts/token/ERC20/ERC20.sol\":2707:2789  function decimals() public view virtual returns (uint8) {... */\ntag_26:\n    /* \"@openzeppelin/contracts/token/ERC20/ERC20.sol\":2756:2761  uint8 */\n  0x00\n    /* \"@openzeppelin/contracts/token/ERC20/ERC20.sol\":2780:2782  18 */\n  0x12\n    /* \"@openzeppelin/contracts/token/ERC20/ERC20.sol\":2773:2782  return 18 */\n  swap1\n  pop\n    /* \"@openzeppelin/contracts/token/ERC20/ERC20.sol\":2707:2789  function decimals() public view virtual returns (uint8) {... */\n  swap1\n  jump\t// out\n    /* \"@openzeppelin/contracts/token/ERC20/ERC20.sol\":7458:7666  function _mint(address account, uint256 value) internal {... */\ntag_31:\n    /* \"@openzeppelin/contracts/token/ERC20/ERC20.sol\":7547:7548  0 */\n  0x00\n    /* \"@openzeppelin/contracts/token/ERC20/ERC20.sol\":7528:7549  account == address(0) */\n  0xffffffffffffffffffffffffffffffffffffffff\n  and\n    /* \"@openzeppelin/contracts/token/ERC20/ERC20.sol\":7528:7535  account */\n  dup3\n    /* \"@openzeppelin/contracts/token/ERC20/ERC20.sol\":7528:7549  account == address(0) */\n  0xffffffffffffffffffffffffffffffffffffffff\n  and\n  sub\n    /* \"@openzeppelin/contracts/token/ERC20/ERC20.sol\":7524:7615  if (account == address(0)) {... */\n  tag_36\n  jumpi\n    /* \"@openzeppelin/contracts/token/ERC20/ERC20.sol\":7601:7602  0 */\n  0x00\n    /* \"@openzeppelin/contracts/token/ERC20/ERC20.sol\":7572:7604  ERC20InvalidReceiver(address(0)) */\n  mload(0x40)\n  0xec442f0500000000000000000000000000000000000000000000000000000000\n  dup2\n  mstore\n  0x04\n  add\n  tag_37\n  swap2\n  swap1\n  tag_17\n  jump\t// in\ntag_37:\n  mload(0x40)\n  dup1\n  swap2\n  sub\n  swap1\n  revert\n    /* \"@openzeppelin/contracts/token/ERC20/ERC20.sol\":7524:7615  if (account == address(0)) {... */\ntag_36:\n    /* \"@openzeppelin/contracts/token/ERC20/ERC20.sol\":7624:7659  _update(address(0), account, value) */\n  tag_38\n    /* \"@openzeppelin/contracts/token/ERC20/ERC20.sol\":7640:7641  0 */\n  0x00\n    /* \"@openzeppelin/contracts/token/ERC20/ERC20.sol\":7644:7651  account */\n  dup4\n    /* \"@openzeppelin/contracts/token/ERC20/ERC20.sol\":7653:7658  value */\n  dup4\n    /* \"@openzeppelin/contracts/token/ERC20/ERC20.sol\":7624:7631  _update */\n  shl(0x20, tag_39)\n    /* \"@openzeppelin/contracts/token/ERC20/ERC20.sol\":7624:7659  _update(address(0), account, value) */\n  0x20\n  shr\n  jump\t// in\ntag_38:\n    /* \"@openzeppelin/contracts/token/ERC20/ERC20.sol\":7458:7666  function _mint(address account, uint256 value) internal {... */\n  pop\n  pop\n  jump\t// out\n    /* \"@openzeppelin/contracts/token/ERC20/ERC20.sol\":6008:7115  function _update(address from, address to, uint256 value) internal virtual {... */\ntag_39:\n    /* \"@openzeppelin/contracts/token/ERC20/ERC20.sol\":6113:6114  0 */\n  0x00\n    /* \"@openzeppelin/contracts/token/ERC20/ERC20.sol\":6097:6115  from == address(0) */\n  0xffffffffffffffffffffffffffffffffffffffff\n  and\n    /* \"@openzeppelin/contracts/token/ERC20/ERC20.sol\":6097:6101  from */\n  dup4\n    /* \"@openzeppelin/contracts/token/ERC20/ERC20.sol\":6097:6115  from == address(0) */\n  0xffffffffffffffffffffffffffffffffffffffff\n  and\n  sub\n    /* \"@openzeppelin/contracts/token/ERC20/ERC20.sol\":6093:6633  if (from == address(0)) {... */\n  tag_41\n  jumpi\n    /* \"@openzeppelin/contracts/token/ERC20/ERC20.sol\":6249:6254  value */\n  dup1\n    /* \"@openzeppelin/contracts/token/ERC20/ERC20.sol\":6233:6245  _totalSupply */\n  0x02\n  0x00\n    /* \"@openzeppelin/contracts/token/ERC20/ERC20.sol\":6233:6254  _totalSupply += value */\n  dup3\n  dup3\n  sload\n  tag_42\n  swap2\n  swap1\n  tag_43\n  jump\t// in\ntag_42:\n  swap3\n  pop\n  pop\n  dup2\n  swap1\n  sstore\n  pop\n    /* \"@openzeppelin/contracts/token/ERC20/ERC20.sol\":6093:6633  if (from == address(0)) {... */\n  jump(tag_44)\ntag_41:\n    /* \"@openzeppelin/contracts/token/ERC20/ERC20.sol\":6285:6304  uint256 fromBalance */\n  0x00\n    /* \"@openzeppelin/contracts/token/ERC20/ERC20.sol\":6307:6316  _balances */\n  dup1\n    /* \"@openzeppelin/contracts/token/ERC20/ERC20.sol\":6307:6322  _balances[from] */\n  0x00\n    /* \"@openzeppelin/contracts/token/ERC20/ERC20.sol\":6317:6321  from */\n  dup6\n    /* \"@openzeppelin/contracts/token/ERC20/ERC20.sol\":6307:6322  _balances[from] */\n  0xffffffffffffffffffffffffffffffffffffffff\n  and\n  0xffffffffffffffffffffffffffffffffffffffff\n  and\n  dup2\n  mstore\n  0x20\n  add\n  swap1\n  dup2\n  mstore\n  0x20\n  add\n  0x00\n  keccak256\n  sload\n    /* \"@openzeppelin/contracts/token/ERC20/ERC20.sol\":6285:6322  uint256 fromBalance = _balances[from] */\n  swap1\n  pop\n    /* \"@openzeppelin/contracts/token/ERC20/ERC20.sol\":6354:6359  value */\n  dup2\n    /* \"@openzeppelin/contracts/token/ERC20/ERC20.sol\":6340:6351  fromBalance */\n  dup2\n    /* \"@openzeppelin/contracts/token/ERC20/ERC20.sol\":6340:6359  fromBalance < value */\n  lt\n    /* \"@openzeppelin/contracts/token/ERC20/ERC20.sol\":6336:6451  if (fromBalance < value) {... */\n  iszero\n  tag_45\n  jumpi\n    /* \"@openzeppelin/contracts/token/ERC20/ERC20.sol\":6411:6415  from */\n  dup4\n    /* \"@openzeppelin/contracts/token/ERC20/ERC20.sol\":6417:6428  fromBalance */\n  dup2\n    /* \"@openzeppelin/contracts/token/ERC20/ERC20.sol\":6430:6435  value */\n  dup4\n    /* \"@openzeppelin/contracts/token/ERC20/ERC20.sol\":6386:6436  ERC20InsufficientBalance(from, fromBalance, value) */\n  mload(0x40)\n  0xe450d38c00000000000000000000000000000000000000000000000000000000\n  dup2\n  mstore\n  0x04\n  add\n  tag_46\n  swap4\n  swap3\n  swap2\n  swap1\n  tag_47\n  jump\t// in\ntag_46:\n  mload(0x40)\n  dup1\n  swap2\n  sub\n  swap1\n  revert\n    /* \"@openzeppelin/contracts/token/ERC20/ERC20.sol\":6336:6451  if (fromBalance < value) {... */\ntag_45:\n    /* \"@openzeppelin/contracts/token/ERC20/ERC20.sol\":6603:6608  value */\n  dup2\n    /* \"@openzeppelin/contracts/token/ERC20/ERC20.sol\":6589:6600  fromBalance */\n  dup2\n    /* \"@openzeppelin/contracts/token/ERC20/ERC20.sol\":6589:6608  fromBalance - value */\n  sub\n    /* \"@openzeppelin/contracts/token/ERC20/ERC20.sol\":6571:6580  _balances */\n  0x00\n    /* \"@openzeppelin/contracts/token/ERC20/ERC20.sol\":6571:6586  _balances[from] */\n  dup1\n    /* \"@openzeppelin/contracts/token/ERC20/ERC20.sol\":6581:6585  from */\n  dup7\n    /* \"@openzeppelin/contracts/token/ERC20/ERC20.sol\":6571:6586  _balances[from] */\n  0xffffffffffffffffffffffffffffffffffffffff\n  and\n  0xffffffffffffffffffffffffffffffffffffffff\n  and\n  dup2\n  mstore\n  0x20\n  add\n  swap1\n  dup2\n  mstore\n  0x20\n  add\n  0x00\n  keccak256\n    /* \"@openzeppelin/contracts/token/ERC20/ERC20.sol\":6571:6608  _balances[from] = fromBalance - value */\n  dup2\n  swap1\n  sstore\n  pop\n    /* \"@openzeppelin/contracts/token/ERC20/ERC20.sol\":6271:6633  {... */\n  pop\n    /* \"@openzeppelin/contracts/token/ERC20/ERC20.sol\":6093:6633  if (from == address(0)) {... */\ntag_44:\n    /* \"@openzeppelin/contracts/token/ERC20/ERC20.sol\":6661:6662  0 */\n  0x00\n    /* \"@openzeppelin/contracts/token/ERC20/ERC20.sol\":6647:6663  to == address(0) */\n  0xffffffffffffffffffffffffffffffffffffffff\n  and\n    /* \"@openzeppelin/contracts/token/ERC20/ERC20.sol\":6647:6649  to */\n  dup3\n    /* \"@openzeppelin/contracts/token/ERC20/ERC20.sol\":6647:6663  to == address(0) */\n  0xffffffffffffffffffffffffffffffffffffffff\n  and\n  sub\n    /* \"@openzeppelin/contracts/token/ERC20/ERC20.sol\":6643:7068  if (to == address(0)) {... */\n  tag_48\n  jumpi\n    /* \"@openzeppelin/contracts/token/ERC20/ERC20.sol\":6826:6831  value */\n  dup1\n    /* \"@openzeppelin/contracts/token/ERC20/ERC20.sol\":6810:6822  _totalSupply */\n  0x02\n  0x00\n    /* \"@openzeppelin/contracts/token/ERC20/ERC20.sol\":6810:6831  _totalSupply -= value */\n  dup3\n  dup3\n  sload\n  sub\n  swap3\n  pop\n  pop\n  dup2\n  swap1\n  sstore\n  pop\n    /* \"@openzeppelin/contracts/token/ERC20/ERC20.sol\":6643:7068  if (to == address(0)) {... */\n  jump(tag_49)\ntag_48:\n    /* \"@openzeppelin/contracts/token/ERC20/ERC20.sol\":7038:7043  value */\n  dup1\n    /* \"@openzeppelin/contracts/token/ERC20/ERC20.sol\":7021:7030  _balances */\n  0x00\n    /* \"@openzeppelin/contracts/token/ERC20/ERC20.sol\":7021:7034  _balances[to] */\n  dup1\n    /* \"@openzeppelin/contracts/token/ERC20/ERC20.sol\":7031:7033  to */\n  dup5\n    /* \"@openzeppelin/contracts/token/ERC20/ERC20.sol\":7021:7034  _balances[to] */\n  0xffffffffffffffffffffffffffffffffffffffff\n  and\n  0xffffffffffffffffffffffffffffffffffffffff\n  and\n  dup2\n  mstore\n  0x20\n  add\n  swap1\n  dup2\n  mstore\n  0x20\n  add\n  0x00\n  keccak256\n  0x00\n    /* \"@openzeppelin/contracts/token/ERC20/ERC20.sol\":7021:7043  _balances[to] += value */\n  dup3\n  dup3\n  sload\n  add\n  swap3\n  pop\n  pop\n  dup2\n  swap1\n  sstore\n  pop\n    /* \"@openzeppelin/contracts/token/ERC20/ERC20.sol\":6643:7068  if (to == address(0)) {... */\ntag_49:\n    /* \"@openzeppelin/contracts/token/ERC20/ERC20.sol\":7098:7100  to */\n  dup2\n    /* \"@openzeppelin/contracts/token/ERC20/ERC20.sol\":7083:7108  Transfer(from, to, value) */\n  0xffffffffffffffffffffffffffffffffffffffff\n  and\n    /* \"@openzeppelin/contracts/token/ERC20/ERC20.sol\":7092:7096  from */\n  dup4\n    /* \"@openzeppelin/contracts/token/ERC20/ERC20.sol\":7083:7108  Transfer(from, to, value) */\n  0xffffffffffffffffffffffffffffffffffffffff\n  and\n  0xddf252ad1be2c89b69c2b068fc378daa952ba7f163c4a11628f55a4df523b3ef\n    /* \"@openzeppelin/contracts/token/ERC20/ERC20.sol\":7102:7107  value */\n  dup4\n    /* \"@openzeppelin/contracts/token/ERC20/ERC20.sol\":7083:7108  Transfer(from, to, value) */\n  mload(0x40)\n  tag_50\n  swap2\n  swap1\n  tag_51\n  jump\t// in\ntag_50:\n  mload(0x40)\n  dup1\n  swap2\n  sub\n  swap1\n  log3\n    /* \"@openzeppelin/contracts/token/ERC20/ERC20.sol\":6008:7115  function _update(address from, address to, uint256 value) internal virtual {... */\n  pop\n  pop\n  pop\n  jump\t// out\n    /* \"#utility.yul\":7:82   */\ntag_52:\n    /* \"#utility.yul\":40:46   */\n  0x00\n    /* \"#utility.yul\":73:75   */\n  0x40\n    /* \"#utility.yul\":67:76   */\n  mload\n    /* \"#utility.yul\":57:76   */\n  swap1\n  pop\n    /* \"#utility.yul\":7:82   */\n  swap1\n  jump\t// out\n    /* \"#utility.yul\":88:205   */\ntag_53:\n    /* \"#utility.yul\":197:198   */\n  0x00\n    /* \"#utility.yul\":194:195   */\n  dup1\n    /* \"#utility.yul\":187:199   */\n  revert\n    /* \"#utility.yul\":211:328   */\ntag_54:\n    /* \"#utility.yul\":320:321   */\n  0x00\n    /* \"#utility.yul\":317:318   */\n  dup1\n    /* \"#utility.yul\":310:322   */\n  revert\n    /* \"#utility.yul\":334:451   */\ntag_55:\n    /* \"#utility.yul\":443:444   */\n  0x00\n    /* \"#utility.yul\":440:441   */\n  dup1\n    /* \"#utility.yul\":433:445   */\n  revert\n    /* \"#utility.yul\":457:574   */\ntag_56:\n    /* \"#utility.yul\":566:567   */\n  0x00\n    /* \"#utility.yul\":563:564   */\n  dup1\n    /* \"#utility.yul\":556:568   */\n  revert\n    /* \"#utility.yul\":580:682   */\ntag_57:\n    /* \"#utility.yul\":621:627   */\n  0x00\n    /* \"#utility.yul\":672:674   */\n  0x1f\n    /* \"#utility.yul\":668:675   */\n  not\n    /* \"#utility.yul\":663:665   */\n  0x1f\n    /* \"#utility.yul\":656:661   */\n  dup4\n    /* \"#utility.yul\":652:666   */\n  add\n    /* \"#utility.yul\":648:676   */\n  and\n    /* \"#utility.yul\":638:676   */\n  swap1\n  pop\n    /* \"#utility.yul\":580:682   */\n  swap2\n  swap1\n  pop\n  jump\t// out\n    /* \"#utility.yul\":688:868   */\ntag_58:\n    /* \"#utility.yul\":736:813   */\n  0x4e487b7100000000000000000000000000000000000000000000000000000000\n    /* \"#utility.yul\":733:734   */\n  0x00\n    /* \"#utility.yul\":726:814   */\n  mstore\n    /* \"#utility.yul\":833:837   */\n  0x41\n    /* \"#utility.yul\":830:831   */\n  0x04\n    /* \"#utility.yul\":823:838   */\n  mstore\n    /* \"#utility.yul\":857:861   */\n  0x24\n    /* \"#utility.yul\":854:855   */\n  0x00\n    /* \"#utility.yul\":847:862   */\n  revert\n    /* \"#utility.yul\":874:1155   */\ntag_59:\n    /* \"#utility.yul\":957:984   */\n  tag_104\n    /* \"#utility.yul\":979:983   */\n  dup3\n    /* \"#utility.yul\":957:984   */\n  tag_57\n  jump\t// in\ntag_104:\n    /* \"#utility.yul\":949:955   */\n  dup2\n    /* \"#utility.yul\":945:985   */\n  add\n    /* \"#utility.yul\":1087:1093   */\n  dup2\n    /* \"#utility.yul\":1075:1085   */\n  dup2\n    /* \"#utility.yul\":1072:1094   */\n  lt\n    /* \"#utility.yul\":1051:1069   */\n  0xffffffffffffffff\n    /* \"#utility.yul\":1039:1049   */\n  dup3\n    /* \"#utility.yul\":1036:1070   */\n  gt\n    /* \"#utility.yul\":1033:1095   */\n  or\n    /* \"#utility.yul\":1030:1118   */\n  iszero\n  tag_105\n  jumpi\n    /* \"#utility.yul\":1098:1116   */\n  tag_106\n  tag_58\n  jump\t// in\ntag_106:\n    /* \"#utility.yul\":1030:1118   */\ntag_105:\n    /* \"#utility.yul\":1138:1148   */\n  dup1\n    /* \"#utility.yul\":1134:1136   */\n  0x40\n    /* \"#utility.yul\":1127:1149   */\n  mstore\n    /* \"#utility.yul\":917:1155   */\n  pop\n    /* \"#utility.yul\":874:1155   */\n  pop\n  pop\n  jump\t// out\n    /* \"#utility.yul\":1161:1290   */\ntag_60:\n    /* \"#utility.yul\":1195:1201   */\n  0x00\n    /* \"#utility.yul\":1222:1242   */\n  tag_108\n  tag_52\n  jump\t// in\ntag_108:\n    /* \"#utility.yul\":1212:1242   */\n  swap1\n  pop\n    /* \"#utility.yul\":1251:1284   */\n  tag_109\n    /* \"#utility.yul\":1279:1283   */\n  dup3\n    /* \"#utility.yul\":1271:1277   */\n  dup3\n    /* \"#utility.yul\":1251:1284   */\n  tag_59\n  jump\t// in\ntag_109:\n    /* \"#utility.yul\":1161:1290   */\n  swap2\n  swap1\n  pop\n  jump\t// out\n    /* \"#utility.yul\":1296:1604   */\ntag_61:\n    /* \"#utility.yul\":1358:1362   */\n  0x00\n    /* \"#utility.yul\":1448:1466   */\n  0xffffffffffffffff\n    /* \"#utility.yul\":1440:1446   */\n  dup3\n    /* \"#utility.yul\":1437:1467   */\n  gt\n    /* \"#utility.yul\":1434:1490   */\n  iszero\n  tag_111\n  jumpi\n    /* \"#utility.yul\":1470:1488   */\n  tag_112\n  tag_58\n  jump\t// in\ntag_112:\n    /* \"#utility.yul\":1434:1490   */\ntag_111:\n    /* \"#utility.yul\":1508:1537   */\n  tag_113\n    /* \"#utility.yul\":1530:1536   */\n  dup3\n    /* \"#utility.yul\":1508:1537   */\n  tag_57\n  jump\t// in\ntag_113:\n    /* \"#utility.yul\":1500:1537   */\n  swap1\n  pop\n    /* \"#utility.yul\":1592:1596   */\n  0x20\n    /* \"#utility.yul\":1586:1590   */\n  dup2\n    /* \"#utility.yul\":1582:1597   */\n  add\n    /* \"#utility.yul\":1574:1597   */\n  swap1\n  pop\n    /* \"#utility.yul\":1296:1604   */\n  swap2\n  swap1\n  pop\n  jump\t// out\n    /* \"#utility.yul\":1610:1749   */\ntag_62:\n    /* \"#utility.yul\":1699:1705   */\n  dup3\n    /* \"#utility.yul\":1694:1697   */\n  dup2\n    /* \"#utility.yul\":1689:1692   */\n  dup4\n    /* \"#utility.yul\":1683:1706   */\n  mcopy\n    /* \"#utility.yul\":1740:1741   */\n  0x00\n    /* \"#utility.yul\":1731:1737   */\n  dup4\n    /* \"#utility.yul\":1726:1729   */\n  dup4\n    /* \"#utility.yul\":1722:1738   */\n  add\n    /* \"#utility.yul\":1715:1742   */\n  mstore\n    /* \"#utility.yul\":1610:1749   */\n  pop\n  pop\n  pop\n  jump\t// out\n    /* \"#utility.yul\":1755:2189   */\ntag_63:\n    /* \"#utility.yul\":1844:1849   */\n  0x00\n    /* \"#utility.yul\":1869:1935   */\n  tag_116\n    /* \"#utility.yul\":1885:1934   */\n  tag_117\n    /* \"#utility.yul\":1927:1933   */\n  dup5\n    /* \"#utility.yul\":1885:1934   */\n  tag_61\n  jump\t// in\ntag_117:\n    /* \"#utility.yul\":1869:1935   */\n  tag_60\n  jump\t// in\ntag_116:\n    /* \"#utility.yul\":1860:1935   */\n  swap1\n  pop\n    /* \"#utility.yul\":1958:1964   */\n  dup3\n    /* \"#utility.yul\":1951:1956   */\n  dup2\n    /* \"#utility.yul\":1944:1965   */\n  mstore\n    /* \"#utility.yul\":1996:2000   */\n  0x20\n    /* \"#utility.yul\":1989:1994   */\n  dup2\n    /* \"#utility.yul\":1985:2001   */\n  add\n    /* \"#utility.yul\":2034:2037   */\n  dup5\n    /* \"#utility.yul\":2025:2031   */\n  dup5\n    /* \"#utility.yul\":2020:2023   */\n  dup5\n    /* \"#utility.yul\":2016:2032   */\n  add\n    /* \"#utility.yul\":2013:2038   */\n  gt\n    /* \"#utility.yul\":2010:2122   */\n  iszero\n  tag_118\n  jumpi\n    /* \"#utility.yul\":2041:2120   */\n  tag_119\n  tag_56\n  jump\t// in\ntag_119:\n    /* \"#utility.yul\":2010:2122   */\ntag_118:\n    /* \"#utility.yul\":2131:2183   */\n  tag_120\n    /* \"#utility.yul\":2176:2182   */\n  dup5\n    /* \"#utility.yul\":2171:2174   */\n  dup3\n    /* \"#utility.yul\":2166:2169   */\n  dup6\n    /* \"#utility.yul\":2131:2183   */\n  tag_62\n  jump\t// in\ntag_120:\n    /* \"#utility.yul\":1850:2189   */\n  pop\n    /* \"#utility.yul\":1755:2189   */\n  swap4\n  swap3\n  pop\n  pop\n  pop\n  jump\t// out\n    /* \"#utility.yul\":2209:2564   */\ntag_64:\n    /* \"#utility.yul\":2276:2281   */\n  0x00\n    /* \"#utility.yul\":2325:2328   */\n  dup3\n    /* \"#utility.yul\":2318:2322   */\n  0x1f\n    /* \"#utility.yul\":2310:2316   */\n  dup4\n    /* \"#utility.yul\":2306:2323   */\n  add\n    /* \"#utility.yul\":2302:2329   */\n  slt\n    /* \"#utility.yul\":2292:2414   */\n  tag_122\n  jumpi\n    /* \"#utility.yul\":2333:2412   */\n  tag_123\n  tag_55\n  jump\t// in\ntag_123:\n    /* \"#utility.yul\":2292:2414   */\ntag_122:\n    /* \"#utility.yul\":2443:2449   */\n  dup2\n    /* \"#utility.yul\":2437:2450   */\n  mload\n    /* \"#utility.yul\":2468:2558   */\n  tag_124\n    /* \"#utility.yul\":2554:2557   */\n  dup5\n    /* \"#utility.yul\":2546:2552   */\n  dup3\n    /* \"#utility.yul\":2539:2543   */\n  0x20\n    /* \"#utility.yul\":2531:2537   */\n  dup7\n    /* \"#utility.yul\":2527:2544   */\n  add\n    /* \"#utility.yul\":2468:2558   */\n  tag_63\n  jump\t// in\ntag_124:\n    /* \"#utility.yul\":2459:2558   */\n  swap2\n  pop\n    /* \"#utility.yul\":2282:2564   */\n  pop\n    /* \"#utility.yul\":2209:2564   */\n  swap3\n  swap2\n  pop\n  pop\n  jump\t// out\n    /* \"#utility.yul\":2570:2696   */\ntag_65:\n    /* \"#utility.yul\":2607:2614   */\n  0x00\n    /* \"#utility.yul\":2647:2689   */\n  0xffffffffffffffffffffffffffffffffffffffff\n    /* \"#utility.yul\":2640:2645   */\n  dup3\n    /* \"#utility.yul\":2636:2690   */\n  and\n    /* \"#utility.yul\":2625:2690   */\n  swap1\n  pop\n    /* \"#utility.yul\":2570:2696   */\n  swap2\n  swap1\n  pop\n  jump\t// out\n    /* \"#utility.yul\":2702:2798   */\ntag_66:\n    /* \"#utility.yul\":2739:2746   */\n  0x00\n    /* \"#utility.yul\":2768:2792   */\n  tag_127\n    /* \"#utility.yul\":2786:2791   */\n  dup3\n    /* \"#utility.yul\":2768:2792   */\n  tag_65\n  jump\t// in\ntag_127:\n    /* \"#utility.yul\":2757:2792   */\n  swap1\n  pop\n    /* \"#utility.yul\":2702:2798   */\n  swap2\n  swap1\n  pop\n  jump\t// out\n    /* \"#utility.yul\":2804:2926   */\ntag_67:\n    /* \"#utility.yul\":2877:2901   */\n  tag_129\n    /* \"#utility.yul\":2895:2900   */\n  dup2\n    /* \"#utility.yul\":2877:2901   */\n  tag_66\n  jump\t// in\ntag_129:\n    /* \"#utility.yul\":2870:2875   */\n  dup2\n    /* \"#utility.yul\":2867:2902   */\n  eq\n    /* \"#utility.yul\":2857:2920   */\n  tag_130\n  jumpi\n    /* \"#utility.yul\":2916:2917   */\n  0x00\n    /* \"#utility.yul\":2913:2914   */\n  dup1\n    /* \"#utility.yul\":2906:2918   */\n  revert\n    /* \"#utility.yul\":2857:2920   */\ntag_130:\n    /* \"#utility.yul\":2804:2926   */\n  pop\n  jump\t// out\n    /* \"#utility.yul\":2932:3075   */\ntag_68:\n    /* \"#utility.yul\":2989:2994   */\n  0x00\n    /* \"#utility.yul\":3020:3026   */\n  dup2\n    /* \"#utility.yul\":3014:3027   */\n  mload\n    /* \"#utility.yul\":3005:3027   */\n  swap1\n  pop\n    /* \"#utility.yul\":3036:3069   */\n  tag_132\n    /* \"#utility.yul\":3063:3068   */\n  dup2\n    /* \"#utility.yul\":3036:3069   */\n  tag_67\n  jump\t// in\ntag_132:\n    /* \"#utility.yul\":2932:3075   */\n  swap3\n  swap2\n  pop\n  pop\n  jump\t// out\n    /* \"#utility.yul\":3081:4247   */\ntag_3:\n    /* \"#utility.yul\":3198:3204   */\n  0x00\n    /* \"#utility.yul\":3206:3212   */\n  dup1\n    /* \"#utility.yul\":3214:3220   */\n  0x00\n    /* \"#utility.yul\":3222:3228   */\n  dup1\n    /* \"#utility.yul\":3271:3274   */\n  0x80\n    /* \"#utility.yul\":3259:3268   */\n  dup6\n    /* \"#utility.yul\":3250:3257   */\n  dup8\n    /* \"#utility.yul\":3246:3269   */\n  sub\n    /* \"#utility.yul\":3242:3275   */\n  slt\n    /* \"#utility.yul\":3239:3359   */\n  iszero\n  tag_134\n  jumpi\n    /* \"#utility.yul\":3278:3357   */\n  tag_135\n  tag_53\n  jump\t// in\ntag_135:\n    /* \"#utility.yul\":3239:3359   */\ntag_134:\n    /* \"#utility.yul\":3419:3420   */\n  0x00\n    /* \"#utility.yul\":3408:3417   */\n  dup6\n    /* \"#utility.yul\":3404:3421   */\n  add\n    /* \"#utility.yul\":3398:3422   */\n  mload\n    /* \"#utility.yul\":3449:3467   */\n  0xffffffffffffffff\n    /* \"#utility.yul\":3441:3447   */\n  dup2\n    /* \"#utility.yul\":3438:3468   */\n  gt\n    /* \"#utility.yul\":3435:3552   */\n  iszero\n  tag_136\n  jumpi\n    /* \"#utility.yul\":3471:3550   */\n  tag_137\n  tag_54\n  jump\t// in\ntag_137:\n    /* \"#utility.yul\":3435:3552   */\ntag_136:\n    /* \"#utility.yul\":3576:3650   */\n  tag_138\n    /* \"#utility.yul\":3642:3649   */\n  dup8\n    /* \"#utility.yul\":3633:3639   */\n  dup3\n    /* \"#utility.yul\":3622:3631   */\n  dup9\n    /* \"#utility.yul\":3618:3640   */\n  add\n    /* \"#utility.yul\":3576:3650   */\n  tag_64\n  jump\t// in\ntag_138:\n    /* \"#utility.yul\":3566:3650   */\n  swap5\n  pop\n    /* \"#utility.yul\":3369:3660   */\n  pop\n    /* \"#utility.yul\":3720:3722   */\n  0x20\n    /* \"#utility.yul\":3709:3718   */\n  dup6\n    /* \"#utility.yul\":3705:3723   */\n  add\n    /* \"#utility.yul\":3699:3724   */\n  mload\n    /* \"#utility.yul\":3751:3769   */\n  0xffffffffffffffff\n    /* \"#utility.yul\":3743:3749   */\n  dup2\n    /* \"#utility.yul\":3740:3770   */\n  gt\n    /* \"#utility.yul\":3737:3854   */\n  iszero\n  tag_139\n  jumpi\n    /* \"#utility.yul\":3773:3852   */\n  tag_140\n  tag_54\n  jump\t// in\ntag_140:\n    /* \"#utility.yul\":3737:3854   */\ntag_139:\n    /* \"#utility.yul\":3878:3952   */\n  tag_141\n    /* \"#utility.yul\":3944:3951   */\n  dup8\n    /* \"#utility.yul\":3935:3941   */\n  dup3\n    /* \"#utility.yul\":3924:3933   */\n  dup9\n    /* \"#utility.yul\":3920:3942   */\n  add\n    /* \"#utility.yul\":3878:3952   */\n  tag_64\n  jump\t// in\ntag_141:\n    /* \"#utility.yul\":3868:3952   */\n  swap4\n  pop\n    /* \"#utility.yul\":3670:3962   */\n  pop\n    /* \"#utility.yul\":4001:4003   */\n  0x40\n    /* \"#utility.yul\":4027:4091   */\n  tag_142\n    /* \"#utility.yul\":4083:4090   */\n  dup8\n    /* \"#utility.yul\":4074:4080   */\n  dup3\n    /* \"#utility.yul\":4063:4072   */\n  dup9\n    /* \"#utility.yul\":4059:4081   */\n  add\n    /* \"#utility.yul\":4027:4091   */\n  tag_68\n  jump\t// in\ntag_142:\n    /* \"#utility.yul\":4017:4091   */\n  swap3\n  pop\n    /* \"#utility.yul\":3972:4101   */\n  pop\n    /* \"#utility.yul\":4140:4142   */\n  0x60\n    /* \"#utility.yul\":4166:4230   */\n  tag_143\n    /* \"#utility.yul\":4222:4229   */\n  dup8\n    /* \"#utility.yul\":4213:4219   */\n  dup3\n    /* \"#utility.yul\":4202:4211   */\n  dup9\n    /* \"#utility.yul\":4198:4220   */\n  add\n    /* \"#utility.yul\":4166:4230   */\n  tag_68\n  jump\t// in\ntag_143:\n    /* \"#utility.yul\":4156:4230   */\n  swap2\n  pop\n    /* \"#utility.yul\":4111:4240   */\n  pop\n    /* \"#utility.yul\":3081:4247   */\n  swap3\n  swap6\n  swap2\n  swap5\n  pop\n  swap3\n  pop\n  jump\t// out\n    /* \"#utility.yul\":4253:4352   */\ntag_69:\n    /* \"#utility.yul\":4305:4311   */\n  0x00\n    /* \"#utility.yul\":4339:4344   */\n  dup2\n    /* \"#utility.yul\":4333:4345   */\n  mload\n    /* \"#utility.yul\":4323:4345   */\n  swap1\n  pop\n    /* \"#utility.yul\":4253:4352   */\n  swap2\n  swap1\n  pop\n  jump\t// out\n    /* \"#utility.yul\":4358:4538   */\ntag_70:\n    /* \"#utility.yul\":4406:4483   */\n  0x4e487b7100000000000000000000000000000000000000000000000000000000\n    /* \"#utility.yul\":4403:4404   */\n  0x00\n    /* \"#utility.yul\":4396:4484   */\n  mstore\n    /* \"#utility.yul\":4503:4507   */\n  0x22\n    /* \"#utility.yul\":4500:4501   */\n  0x04\n    /* \"#utility.yul\":4493:4508   */\n  mstore\n    /* \"#utility.yul\":4527:4531   */\n  0x24\n    /* \"#utility.yul\":4524:4525   */\n  0x00\n    /* \"#utility.yul\":4517:4532   */\n  revert\n    /* \"#utility.yul\":4544:4864   */\ntag_71:\n    /* \"#utility.yul\":4588:4594   */\n  0x00\n    /* \"#utility.yul\":4625:4626   */\n  0x02\n    /* \"#utility.yul\":4619:4623   */\n  dup3\n    /* \"#utility.yul\":4615:4627   */\n  div\n    /* \"#utility.yul\":4605:4627   */\n  swap1\n  pop\n    /* \"#utility.yul\":4672:4673   */\n  0x01\n    /* \"#utility.yul\":4666:4670   */\n  dup3\n    /* \"#utility.yul\":4662:4674   */\n  and\n    /* \"#utility.yul\":4693:4711   */\n  dup1\n    /* \"#utility.yul\":4683:4764   */\n  tag_147\n  jumpi\n    /* \"#utility.yul\":4749:4753   */\n  0x7f\n    /* \"#utility.yul\":4741:4747   */\n  dup3\n    /* \"#utility.yul\":4737:4754   */\n  and\n    /* \"#utility.yul\":4727:4754   */\n  swap2\n  pop\n    /* \"#utility.yul\":4683:4764   */\ntag_147:\n    /* \"#utility.yul\":4811:4813   */\n  0x20\n    /* \"#utility.yul\":4803:4809   */\n  dup3\n    /* \"#utility.yul\":4800:4814   */\n  lt\n    /* \"#utility.yul\":4780:4798   */\n  dup2\n    /* \"#utility.yul\":4777:4815   */\n  sub\n    /* \"#utility.yul\":4774:4858   */\n  tag_148\n  jumpi\n    /* \"#utility.yul\":4830:4848   */\n  tag_149\n  tag_70\n  jump\t// in\ntag_149:\n    /* \"#utility.yul\":4774:4858   */\ntag_148:\n    /* \"#utility.yul\":4595:4864   */\n  pop\n    /* \"#utility.yul\":4544:4864   */\n  swap2\n  swap1\n  pop\n  jump\t// out\n    /* \"#utility.yul\":4870:5011   */\ntag_72:\n    /* \"#utility.yul\":4919:4923   */\n  0x00\n    /* \"#utility.yul\":4942:4945   */\n  dup2\n    /* \"#utility.yul\":4934:4945   */\n  swap1\n  pop\n    /* \"#utility.yul\":4965:4968   */\n  dup2\n    /* \"#utility.yul\":4962:4963   */\n  0x00\n    /* \"#utility.yul\":4955:4969   */\n  mstore\n    /* \"#utility.yul\":4999:5003   */\n  0x20\n    /* \"#utility.yul\":4996:4997   */\n  0x00\n    /* \"#utility.yul\":4986:5004   */\n  keccak256\n    /* \"#utility.yul\":4978:5004   */\n  swap1\n  pop\n    /* \"#utility.yul\":4870:5011   */\n  swap2\n  swap1\n  pop\n  jump\t// out\n    /* \"#utility.yul\":5017:5110   */\ntag_73:\n    /* \"#utility.yul\":5054:5060   */\n  0x00\n    /* \"#utility.yul\":5101:5103   */\n  0x20\n    /* \"#utility.yul\":5096:5098   */\n  0x1f\n    /* \"#utility.yul\":5089:5094   */\n  dup4\n    /* \"#utility.yul\":5085:5099   */\n  add\n    /* \"#utility.yul\":5081:5104   */\n  div\n    /* \"#utility.yul\":5071:5104   */\n  swap1\n  pop\n    /* \"#utility.yul\":5017:5110   */\n  swap2\n  swap1\n  pop\n  jump\t// out\n    /* \"#utility.yul\":5116:5223   */\ntag_74:\n    /* \"#utility.yul\":5160:5168   */\n  0x00\n    /* \"#utility.yul\":5210:5215   */\n  dup3\n    /* \"#utility.yul\":5204:5208   */\n  dup3\n    /* \"#utility.yul\":5200:5216   */\n  shl\n    /* \"#utility.yul\":5179:5216   */\n  swap1\n  pop\n    /* \"#utility.yul\":5116:5223   */\n  swap3\n  swap2\n  pop\n  pop\n  jump\t// out\n    /* \"#utility.yul\":5229:5622   */\ntag_75:\n    /* \"#utility.yul\":5298:5304   */\n  0x00\n    /* \"#utility.yul\":5348:5349   */\n  0x08\n    /* \"#utility.yul\":5336:5346   */\n  dup4\n    /* \"#utility.yul\":5332:5350   */\n  mul\n    /* \"#utility.yul\":5371:5468   */\n  tag_154\n    /* \"#utility.yul\":5401:5467   */\n  0xffffffffffffffffffffffffffffffffffffffffffffffffffffffffffffffff\n    /* \"#utility.yul\":5390:5399   */\n  dup3\n    /* \"#utility.yul\":5371:5468   */\n  tag_74\n  jump\t// in\ntag_154:\n    /* \"#utility.yul\":5489:5528   */\n  tag_155\n    /* \"#utility.yul\":5519:5527   */\n  dup7\n    /* \"#utility.yul\":5508:5517   */\n  dup4\n    /* \"#utility.yul\":5489:5528   */\n  tag_74\n  jump\t// in\ntag_155:\n    /* \"#utility.yul\":5477:5528   */\n  swap6\n  pop\n    /* \"#utility.yul\":5561:5565   */\n  dup1\n    /* \"#utility.yul\":5557:5566   */\n  not\n    /* \"#utility.yul\":5550:5555   */\n  dup5\n    /* \"#utility.yul\":5546:5567   */\n  and\n    /* \"#utility.yul\":5537:5567   */\n  swap4\n  pop\n    /* \"#utility.yul\":5610:5614   */\n  dup1\n    /* \"#utility.yul\":5600:5608   */\n  dup7\n    /* \"#utility.yul\":5596:5615   */\n  and\n    /* \"#utility.yul\":5589:5594   */\n  dup5\n    /* \"#utility.yul\":5586:5616   */\n  or\n    /* \"#utility.yul\":5576:5616   */\n  swap3\n  pop\n    /* \"#utility.yul\":5305:5622   */\n  pop\n  pop\n    /* \"#utility.yul\":5229:5622   */\n  swap4\n  swap3\n  pop\n  pop\n  pop\n  jump\t// out\n    /* \"#utility.yul\":5628:5705   */\ntag_76:\n    /* \"#utility.yul\":5665:5672   */\n  0x00\n    /* \"#utility.yul\":5694:5699   */\n  dup2\n    /* \"#utility.yul\":5683:5699   */\n  swap1\n  pop\n    /* \"#utility.yul\":5628:5705   */\n  swap2\n  swap1\n  pop\n  jump\t// out\n    /* \"#utility.yul\":5711:5771   */\ntag_77:\n    /* \"#utility.yul\":5739:5742   */\n  0x00\n    /* \"#utility.yul\":5760:5765   */\n  dup2\n    /* \"#utility.yul\":5753:5765   */\n  swap1\n  pop\n    /* \"#utility.yul\":5711:5771   */\n  swap2\n  swap1\n  pop\n  jump\t// out\n    /* \"#utility.yul\":5777:5919   */\ntag_78:\n    /* \"#utility.yul\":5827:5836   */\n  0x00\n    /* \"#utility.yul\":5860:5913   */\n  tag_159\n    /* \"#utility.yul\":5878:5912   */\n  tag_160\n    /* \"#utility.yul\":5887:5911   */\n  tag_161\n    /* \"#utility.yul\":5905:5910   */\n  dup5\n    /* \"#utility.yul\":5887:5911   */\n  tag_76\n  jump\t// in\ntag_161:\n    /* \"#utility.yul\":5878:5912   */\n  tag_77\n  jump\t// in\ntag_160:\n    /* \"#utility.yul\":5860:5913   */\n  tag_76\n  jump\t// in\ntag_159:\n    /* \"#utility.yul\":5847:5913   */\n  swap1\n  pop\n    /* \"#utility.yul\":5777:5919   */\n  swap2\n  swap1\n  pop\n  jump\t// out\n    /* \"#utility.yul\":5925:6000   */\ntag_79:\n    /* \"#utility.yul\":5968:5971   */\n  0x00\n    /* \"#utility.yul\":5989:5994   */\n  dup2\n    /* \"#utility.yul\":5982:5994   */\n  swap1\n  pop\n    /* \"#utility.yul\":5925:6000   */\n  swap2\n  swap1\n  pop\n  jump\t// out\n    /* \"#utility.yul\":6006:6275   */\ntag_80:\n    /* \"#utility.yul\":6116:6155   */\n  tag_164\n    /* \"#utility.yul\":6147:6154   */\n  dup4\n    /* \"#utility.yul\":6116:6155   */\n  tag_78\n  jump\t// in\ntag_164:\n    /* \"#utility.yul\":6177:6268   */\n  tag_165\n    /* \"#utility.yul\":6226:6267   */\n  tag_166\n    /* \"#utility.yul\":6250:6266   */\n  dup3\n    /* \"#utility.yul\":6226:6267   */\n  tag_79\n  jump\t// in\ntag_166:\n    /* \"#utility.yul\":6218:6224   */\n  dup5\n    /* \"#utility.yul\":6211:6215   */\n  dup5\n    /* \"#utility.yul\":6205:6216   */\n  sload\n    /* \"#utility.yul\":6177:6268   */\n  tag_75\n  jump\t// in\ntag_165:\n    /* \"#utility.yul\":6171:6175   */\n  dup3\n    /* \"#utility.yul\":6164:6269   */\n  sstore\n    /* \"#utility.yul\":6082:6275   */\n  pop\n    /* \"#utility.yul\":6006:6275   */\n  pop\n  pop\n  pop\n  jump\t// out\n    /* \"#utility.yul\":6281:6354   */\ntag_81:\n    /* \"#utility.yul\":6326:6329   */\n  0x00\n    /* \"#utility.yul\":6281:6354   */\n  swap1\n  jump\t// out\n    /* \"#utility.yul\":6360:6549   */\ntag_82:\n    /* \"#utility.yul\":6437:6469   */\n  tag_169\n  tag_81\n  jump\t// in\ntag_169:\n    /* \"#utility.yul\":6478:6543   */\n  tag_170\n    /* \"#utility.yul\":6536:6542   */\n  dup2\n    /* \"#utility.yul\":6528:6534   */\n  dup5\n    /* \"#utility.yul\":6522:6526   */\n  dup5\n    /* \"#utility.yul\":6478:6543   */\n  tag_80\n  jump\t// in\ntag_170:\n    /* \"#utility.yul\":6413:6549   */\n  pop\n    /* \"#utility.yul\":6360:6549   */\n  pop\n  pop\n  jump\t// out\n    /* \"#utility.yul\":6555:6741   */\ntag_83:\n    /* \"#utility.yul\":6615:6735   */\ntag_172:\n    /* \"#utility.yul\":6632:6635   */\n  dup2\n    /* \"#utility.yul\":6625:6630   */\n  dup2\n    /* \"#utility.yul\":6622:6636   */\n  lt\n    /* \"#utility.yul\":6615:6735   */\n  iszero\n  tag_174\n  jumpi\n    /* \"#utility.yul\":6686:6725   */\n  tag_175\n    /* \"#utility.yul\":6723:6724   */\n  0x00\n    /* \"#utility.yul\":6716:6721   */\n  dup3\n    /* \"#utility.yul\":6686:6725   */\n  tag_82\n  jump\t// in\ntag_175:\n    /* \"#utility.yul\":6659:6660   */\n  0x01\n    /* \"#utility.yul\":6652:6657   */\n  dup2\n    /* \"#utility.yul\":6648:6661   */\n  add\n    /* \"#utility.yul\":6639:6661   */\n  swap1\n  pop\n    /* \"#utility.yul\":6615:6735   */\n  jump(tag_172)\ntag_174:\n    /* \"#utility.yul\":6555:6741   */\n  pop\n  pop\n  jump\t// out\n    /* \"#utility.yul\":6747:7290   */\ntag_84:\n    /* \"#utility.yul\":6848:6850   */\n  0x1f\n    /* \"#utility.yul\":6843:6846   */\n  dup3\n    /* \"#utility.yul\":6840:6851   */\n  gt\n    /* \"#utility.yul\":6837:7283   */\n  iszero\n  tag_177\n  jumpi\n    /* \"#utility.yul\":6882:6920   */\n  tag_178\n    /* \"#utility.yul\":6914:6919   */\n  dup2\n    /* \"#utility.yul\":6882:6920   */\n  tag_72\n  jump\t// in\ntag_178:\n    /* \"#utility.yul\":6966:6995   */\n  tag_179\n    /* \"#utility.yul\":6984:6994   */\n  dup5\n    /* \"#utility.yul\":6966:6995   */\n  tag_73\n  jump\t// in\ntag_179:\n    /* \"#utility.yul\":6956:6964   */\n  dup2\n    /* \"#utility.yul\":6952:6996   */\n  add\n    /* \"#utility.yul\":7149:7151   */\n  0x20\n    /* \"#utility.yul\":7137:7147   */\n  dup6\n    /* \"#utility.yul\":7134:7152   */\n  lt\n    /* \"#utility.yul\":7131:7180   */\n  iszero\n  tag_180\n  jumpi\n    /* \"#utility.yul\":7170:7178   */\n  dup2\n    /* \"#utility.yul\":7155:7178   */\n  swap1\n  pop\n    /* \"#utility.yul\":7131:7180   */\ntag_180:\n    /* \"#utility.yul\":7193:7273   */\n  tag_181\n    /* \"#utility.yul\":7249:7271   */\n  tag_182\n    /* \"#utility.yul\":7267:7270   */\n  dup6\n    /* \"#utility.yul\":7249:7271   */\n  tag_73\n  jump\t// in\ntag_182:\n    /* \"#utility.yul\":7239:7247   */\n  dup4\n    /* \"#utility.yul\":7235:7272   */\n  add\n    /* \"#utility.yul\":7222:7233   */\n  dup3\n    /* \"#utility.yul\":7193:7273   */\n  tag_83\n  jump\t// in\ntag_181:\n    /* \"#utility.yul\":6852:7283   */\n  pop\n  pop\n    /* \"#utility.yul\":6837:7283   */\ntag_177:\n    /* \"#utility.yul\":6747:7290   */\n  pop\n  pop\n  pop\n  jump\t// out\n    /* \"#utility.yul\":7296:7413   */\ntag_85:\n    /* \"#utility.yul\":7350:7358   */\n  0x00\n    /* \"#utility.yul\":7400:7405   */\n  dup3\n    /* \"#utility.yul\":7394:7398   */\n  dup3\n    /* \"#utility.yul\":7390:7406   */\n  shr\n    /* \"#utility.yul\":7369:7406   */\n  swap1\n  pop\n    /* \"#utility.yul\":7296:7413   */\n  swap3\n  swap2\n  pop\n  pop\n  jump\t// out\n    /* \"#utility.yul\":7419:7588   */\ntag_86:\n    /* \"#utility.yul\":7463:7469   */\n  0x00\n    /* \"#utility.yul\":7496:7547   */\n  tag_185\n    /* \"#utility.yul\":7544:7545   */\n  0x00\n    /* \"#utility.yul\":7540:7546   */\n  not\n    /* \"#utility.yul\":7532:7537   */\n  dup5\n    /* \"#utility.yul\":7529:7530   */\n  0x08\n    /* \"#utility.yul\":7525:7538   */\n  mul\n    /* \"#utility.yul\":7496:7547   */\n  tag_85\n  jump\t// in\ntag_185:\n    /* \"#utility.yul\":7492:7548   */\n  not\n    /* \"#utility.yul\":7577:7581   */\n  dup1\n    /* \"#utility.yul\":7571:7575   */\n  dup4\n    /* \"#utility.yul\":7567:7582   */\n  and\n    /* \"#utility.yul\":7557:7582   */\n  swap2\n  pop\n    /* \"#utility.yul\":7470:7588   */\n  pop\n    /* \"#utility.yul\":7419:7588   */\n  swap3\n  swap2\n  pop\n  pop\n  jump\t// out\n    /* \"#utility.yul\":7593:7888   */\ntag_87:\n    /* \"#utility.yul\":7669:7673   */\n  0x00\n    /* \"#utility.yul\":7815:7844   */\n  tag_187\n    /* \"#utility.yul\":7840:7843   */\n  dup4\n    /* \"#utility.yul\":7834:7838   */\n  dup4\n    /* \"#utility.yul\":7815:7844   */\n  tag_86\n  jump\t// in\ntag_187:\n    /* \"#utility.yul\":7807:7844   */\n  swap2\n  pop\n    /* \"#utility.yul\":7877:7880   */\n  dup3\n    /* \"#utility.yul\":7874:7875   */\n  0x02\n    /* \"#utility.yul\":7870:7881   */\n  mul\n    /* \"#utility.yul\":7864:7868   */\n  dup3\n    /* \"#utility.yul\":7861:7882   */\n  or\n    /* \"#utility.yul\":7853:7882   */\n  swap1\n  pop\n    /* \"#utility.yul\":7593:7888   */\n  swap3\n  swap2\n  pop\n  pop\n  jump\t// out\n    /* \"#utility.yul\":7893:9288   */\ntag_11:\n    /* \"#utility.yul\":8010:8047   */\n  tag_189\n    /* \"#utility.yul\":8043:8046   */\n  dup3\n    /* \"#utility.yul\":8010:8047   */\n  tag_69\n  jump\t// in\ntag_189:\n    /* \"#utility.yul\":8112:8130   */\n  0xffffffffffffffff\n    /* \"#utility.yul\":8104:8110   */\n  dup2\n    /* \"#utility.yul\":8101:8131   */\n  gt\n    /* \"#utility.yul\":8098:8154   */\n  iszero\n  tag_190\n  jumpi\n    /* \"#utility.yul\":8134:8152   */\n  tag_191\n  tag_58\n  jump\t// in\ntag_191:\n    /* \"#utility.yul\":8098:8154   */\ntag_190:\n    /* \"#utility.yul\":8178:8216   */\n  tag_192\n    /* \"#utility.yul\":8210:8214   */\n  dup3\n    /* \"#utility.yul\":8204:8215   */\n  sload\n    /* \"#utility.yul\":8178:8216   */\n  tag_71\n  jump\t// in\ntag_192:\n    /* \"#utility.yul\":8263:8330   */\n  tag_193\n    /* \"#utility.yul\":8323:8329   */\n  dup3\n    /* \"#utility.yul\":8315:8321   */\n  dup3\n    /* \"#utility.yul\":8309:8313   */\n  dup6\n    /* \"#utility.yul\":8263:8330   */\n  tag_84\n  jump\t// in\ntag_193:\n    /* \"#utility.yul\":8357:8358   */\n  0x00\n    /* \"#utility.yul\":8381:8385   */\n  0x20\n    /* \"#utility.yul\":8368:8385   */\n  swap1\n  pop\n    /* \"#utility.yul\":8413:8415   */\n  0x1f\n    /* \"#utility.yul\":8405:8411   */\n  dup4\n    /* \"#utility.yul\":8402:8416   */\n  gt\n    /* \"#utility.yul\":8430:8431   */\n  0x01\n    /* \"#utility.yul\":8425:9043   */\n  dup2\n  eq\n  tag_195\n  jumpi\n    /* \"#utility.yul\":9087:9088   */\n  0x00\n    /* \"#utility.yul\":9104:9110   */\n  dup5\n    /* \"#utility.yul\":9101:9178   */\n  iszero\n  tag_196\n  jumpi\n    /* \"#utility.yul\":9153:9162   */\n  dup3\n    /* \"#utility.yul\":9148:9151   */\n  dup8\n    /* \"#utility.yul\":9144:9163   */\n  add\n    /* \"#utility.yul\":9138:9164   */\n  mload\n    /* \"#utility.yul\":9129:9164   */\n  swap1\n  pop\n    /* \"#utility.yul\":9101:9178   */\ntag_196:\n    /* \"#utility.yul\":9204:9271   */\n  tag_197\n    /* \"#utility.yul\":9264:9270   */\n  dup6\n    /* \"#utility.yul\":9257:9262   */\n  dup3\n    /* \"#utility.yul\":9204:9271   */\n  tag_87\n  jump\t// in\ntag_197:\n    /* \"#utility.yul\":9198:9202   */\n  dup7\n    /* \"#utility.yul\":9191:9272   */\n  sstore\n    /* \"#utility.yul\":9060:9282   */\n  pop\n    /* \"#utility.yul\":8395:9282   */\n  jump(tag_194)\n    /* \"#utility.yul\":8425:9043   */\ntag_195:\n    /* \"#utility.yul\":8477:8481   */\n  0x1f\n    /* \"#utility.yul\":8473:8482   */\n  not\n    /* \"#utility.yul\":8465:8471   */\n  dup5\n    /* \"#utility.yul\":8461:8483   */\n  and\n    /* \"#utility.yul\":8511:8548   */\n  tag_198\n    /* \"#utility.yul\":8543:8547   */\n  dup7\n    /* \"#utility.yul\":8511:8548   */\n  tag_72\n  jump\t// in\ntag_198:\n    /* \"#utility.yul\":8570:8571   */\n  0x00\n    /* \"#utility.yul\":8584:8792   */\ntag_199:\n    /* \"#utility.yul\":8598:8605   */\n  dup3\n    /* \"#utility.yul\":8595:8596   */\n  dup2\n    /* \"#utility.yul\":8592:8606   */\n  lt\n    /* \"#utility.yul\":8584:8792   */\n  iszero\n  tag_201\n  jumpi\n    /* \"#utility.yul\":8677:8686   */\n  dup5\n    /* \"#utility.yul\":8672:8675   */\n  dup10\n    /* \"#utility.yul\":8668:8687   */\n  add\n    /* \"#utility.yul\":8662:8688   */\n  mload\n    /* \"#utility.yul\":8654:8660   */\n  dup3\n    /* \"#utility.yul\":8647:8689   */\n  sstore\n    /* \"#utility.yul\":8728:8729   */\n  0x01\n    /* \"#utility.yul\":8720:8726   */\n  dup3\n    /* \"#utility.yul\":8716:8730   */\n  add\n    /* \"#utility.yul\":8706:8730   */\n  swap2\n  pop\n    /* \"#utility.yul\":8775:8777   */\n  0x20\n    /* \"#utility.yul\":8764:8773   */\n  dup6\n    /* \"#utility.yul\":8760:8778   */\n  add\n    /* \"#utility.yul\":8747:8778   */\n  swap5\n  pop\n    /* \"#utility.yul\":8621:8625   */\n  0x20\n    /* \"#utility.yul\":8618:8619   */\n  dup2\n    /* \"#utility.yul\":8614:8626   */\n  add\n    /* \"#utility.yul\":8609:8626   */\n  swap1\n  pop\n    /* \"#utility.yul\":8584:8792   */\n  jump(tag_199)\ntag_201:\n    /* \"#utility.yul\":8820:8826   */\n  dup7\n    /* \"#utility.yul\":8811:8818   */\n  dup4\n    /* \"#utility.yul\":8808:8827   */\n  lt\n    /* \"#utility.yul\":8805:8984   */\n  iszero\n  tag_202\n  jumpi\n    /* \"#utility.yul\":8878:8887   */\n  dup5\n    /* \"#utility.yul\":8873:8876   */\n  dup10\n    /* \"#utility.yul\":8869:8888   */\n  add\n    /* \"#utility.yul\":8863:8889   */\n  mload\n    /* \"#utility.yul\":8921:8969   */\n  tag_203\n    /* \"#utility.yul\":8963:8967   */\n  0x1f\n    /* \"#utility.yul\":8955:8961   */\n  dup10\n    /* \"#utility.yul\":8951:8968   */\n  and\n    /* \"#utility.yul\":8940:8949   */\n  dup3\n    /* \"#utility.yul\":8921:8969   */\n  tag_86\n  jump\t// in\ntag_203:\n    /* \"#utility.yul\":8913:8919   */\n  dup4\n    /* \"#utility.yul\":8906:8970   */\n  sstore\n    /* \"#utility.yul\":8828:8984   */\n  pop\n    /* \"#utility.yul\":8805:8984   */\ntag_202:\n    /* \"#utility.yul\":9030:9031   */\n  0x01\n    /* \"#utility.yul\":9026:9027   */\n  0x02\n    /* \"#utility.yul\":9018:9024   */\n  dup9\n    /* \"#utility.yul\":9014:9028   */\n  mul\n    /* \"#utility.yul\":9010:9032   */\n  add\n    /* \"#utility.yul\":9004:9008   */\n  dup9\n    /* \"#utility.yul\":8997:9033   */\n  sstore\n    /* \"#utility.yul\":8432:9043   */\n  pop\n  pop\n  pop\n    /* \"#utility.yul\":8395:9282   */\ntag_194:\n  pop\n    /* \"#utility.yul\":7985:9288   */\n  pop\n  pop\n  pop\n    /* \"#utility.yul\":7893:9288   */\n  pop\n  pop\n  jump\t// out\n    /* \"#utility.yul\":9294:9412   */\ntag_88:\n    /* \"#utility.yul\":9381:9405   */\n  tag_205\n    /* \"#utility.yul\":9399:9404   */\n  dup2\n    /* \"#utility.yul\":9381:9405   */\n  tag_66\n  jump\t// in\ntag_205:\n    /* \"#utility.yul\":9376:9379   */\n  dup3\n    /* \"#utility.yul\":9369:9406   */\n  mstore\n    /* \"#utility.yul\":9294:9412   */\n  pop\n  pop\n  jump\t// out\n    /* \"#utility.yul\":9418:9640   */\ntag_17:\n    /* \"#utility.yul\":9511:9515   */\n  0x00\n    /* \"#utility.yul\":9549:9551   */\n  0x20\n    /* \"#utility.yul\":9538:9547   */\n  dup3\n    /* \"#utility.yul\":9534:9552   */\n  add\n    /* \"#utility.yul\":9526:9552   */\n  swap1\n  pop\n    /* \"#utility.yul\":9562:9633   */\n  tag_207\n    /* \"#utility.yul\":9630:9631   */\n  0x00\n    /* \"#utility.yul\":9619:9628   */\n  dup4\n    /* \"#utility.yul\":9615:9632   */\n  add\n    /* \"#utility.yul\":9606:9612   */\n  dup5\n    /* \"#utility.yul\":9562:9633   */\n  tag_88\n  jump\t// in\ntag_207:\n    /* \"#utility.yul\":9418:9640   */\n  swap3\n  swap2\n  pop\n  pop\n  jump\t// out\n    /* \"#utility.yul\":9646:9826   */\ntag_89:\n    /* \"#utility.yul\":9694:9771   */\n  0x4e487b7100000000000000000000000000000000000000000000000000000000\n    /* \"#utility.yul\":9691:9692   */\n  0x00\n    /* \"#utility.yul\":9684:9772   */\n  mstore\n    /* \"#utility.yul\":9791:9795   */\n  0x11\n    /* \"#utility.yul\":9788:9789   */\n  0x04\n    /* \"#utility.yul\":9781:9796   */\n  mstore\n    /* \"#utility.yul\":9815:9819   */\n  0x24\n    /* \"#utility.yul\":9812:9813   */\n  0x00\n    /* \"#utility.yul\":9805:9820   */\n  revert\n    /* \"#utility.yul\":9832:9934   */\ntag_90:\n    /* \"#utility.yul\":9874:9882   */\n  0x00\n    /* \"#utility.yul\":9921:9926   */\n  dup2\n    /* \"#utility.yul\":9918:9919   */\n  0x01\n    /* \"#utility.yul\":9914:9927   */\n  shr\n    /* \"#utility.yul\":9893:9927   */\n  swap1\n  pop\n    /* \"#utility.yul\":9832:9934   */\n  swap2\n  swap1\n  pop\n  jump\t// out\n    /* \"#utility.yul\":9940:10788   */\ntag_91:\n    /* \"#utility.yul\":10001:10006   */\n  0x00\n    /* \"#utility.yul\":10008:10012   */\n  dup1\n    /* \"#utility.yul\":10032:10038   */\n  dup3\n    /* \"#utility.yul\":10023:10038   */\n  swap2\n  pop\n    /* \"#utility.yul\":10056:10061   */\n  dup4\n    /* \"#utility.yul\":10047:10061   */\n  swap1\n  pop\n    /* \"#utility.yul\":10070:10782   */\ntag_211:\n    /* \"#utility.yul\":10091:10092   */\n  0x01\n    /* \"#utility.yul\":10081:10089   */\n  dup6\n    /* \"#utility.yul\":10078:10093   */\n  gt\n    /* \"#utility.yul\":10070:10782   */\n  iszero\n  tag_213\n  jumpi\n    /* \"#utility.yul\":10186:10190   */\n  dup1\n    /* \"#utility.yul\":10181:10184   */\n  dup7\n    /* \"#utility.yul\":10177:10191   */\n  div\n    /* \"#utility.yul\":10171:10175   */\n  dup2\n    /* \"#utility.yul\":10168:10192   */\n  gt\n    /* \"#utility.yul\":10165:10215   */\n  iszero\n  tag_214\n  jumpi\n    /* \"#utility.yul\":10195:10213   */\n  tag_215\n  tag_89\n  jump\t// in\ntag_215:\n    /* \"#utility.yul\":10165:10215   */\ntag_214:\n    /* \"#utility.yul\":10245:10246   */\n  0x01\n    /* \"#utility.yul\":10235:10243   */\n  dup6\n    /* \"#utility.yul\":10231:10247   */\n  and\n    /* \"#utility.yul\":10228:10679   */\n  iszero\n  tag_216\n  jumpi\n    /* \"#utility.yul\":10660:10664   */\n  dup1\n    /* \"#utility.yul\":10653:10658   */\n  dup3\n    /* \"#utility.yul\":10649:10665   */\n  mul\n    /* \"#utility.yul\":10640:10665   */\n  swap2\n  pop\n    /* \"#utility.yul\":10228:10679   */\ntag_216:\n    /* \"#utility.yul\":10710:10714   */\n  dup1\n    /* \"#utility.yul\":10704:10708   */\n  dup2\n    /* \"#utility.yul\":10700:10715   */\n  mul\n    /* \"#utility.yul\":10692:10715   */\n  swap1\n  pop\n    /* \"#utility.yul\":10740:10772   */\n  tag_217\n    /* \"#utility.yul\":10763:10771   */\n  dup6\n    /* \"#utility.yul\":10740:10772   */\n  tag_90\n  jump\t// in\ntag_217:\n    /* \"#utility.yul\":10728:10772   */\n  swap5\n  pop\n    /* \"#utility.yul\":10070:10782   */\n  jump(tag_211)\ntag_213:\n    /* \"#utility.yul\":9940:10788   */\n  swap5\n  pop\n  swap5\n  swap3\n  pop\n  pop\n  pop\n  jump\t// out\n    /* \"#utility.yul\":10794:11867   */\ntag_92:\n    /* \"#utility.yul\":10848:10853   */\n  0x00\n    /* \"#utility.yul\":11039:11047   */\n  dup3\n    /* \"#utility.yul\":11029:11069   */\n  tag_219\n  jumpi\n    /* \"#utility.yul\":11060:11061   */\n  0x01\n    /* \"#utility.yul\":11051:11061   */\n  swap1\n  pop\n    /* \"#utility.yul\":11062:11067   */\n  jump(tag_218)\n    /* \"#utility.yul\":11029:11069   */\ntag_219:\n    /* \"#utility.yul\":11088:11092   */\n  dup2\n    /* \"#utility.yul\":11078:11114   */\n  tag_220\n  jumpi\n    /* \"#utility.yul\":11105:11106   */\n  0x00\n    /* \"#utility.yul\":11096:11106   */\n  swap1\n  pop\n    /* \"#utility.yul\":11107:11112   */\n  jump(tag_218)\n    /* \"#utility.yul\":11078:11114   */\ntag_220:\n    /* \"#utility.yul\":11174:11178   */\n  dup2\n    /* \"#utility.yul\":11222:11223   */\n  0x01\n    /* \"#utility.yul\":11217:11244   */\n  dup2\n  eq\n  tag_222\n  jumpi\n    /* \"#utility.yul\":11258:11259   */\n  0x02\n    /* \"#utility.yul\":11253:11444   */\n  dup2\n  eq\n  tag_223\n  jumpi\n    /* \"#utility.yul\":11167:11444   */\n  jump(tag_221)\n    /* \"#utility.yul\":11217:11244   */\ntag_222:\n    /* \"#utility.yul\":11235:11236   */\n  0x01\n    /* \"#utility.yul\":11226:11236   */\n  swap2\n  pop\n    /* \"#utility.yul\":11237:11242   */\n  pop\n  jump(tag_218)\n    /* \"#utility.yul\":11253:11444   */\ntag_223:\n    /* \"#utility.yul\":11298:11301   */\n  0xff\n    /* \"#utility.yul\":11288:11296   */\n  dup5\n    /* \"#utility.yul\":11285:11302   */\n  gt\n    /* \"#utility.yul\":11282:11325   */\n  iszero\n  tag_224\n  jumpi\n    /* \"#utility.yul\":11305:11323   */\n  tag_225\n  tag_89\n  jump\t// in\ntag_225:\n    /* \"#utility.yul\":11282:11325   */\ntag_224:\n    /* \"#utility.yul\":11354:11362   */\n  dup4\n    /* \"#utility.yul\":11351:11352   */\n  0x02\n    /* \"#utility.yul\":11347:11363   */\n  exp\n    /* \"#utility.yul\":11338:11363   */\n  swap2\n  pop\n    /* \"#utility.yul\":11389:11392   */\n  dup5\n    /* \"#utility.yul\":11382:11387   */\n  dup3\n    /* \"#utility.yul\":11379:11393   */\n  gt\n    /* \"#utility.yul\":11376:11416   */\n  iszero\n  tag_226\n  jumpi\n    /* \"#utility.yul\":11396:11414   */\n  tag_227\n  tag_89\n  jump\t// in\ntag_227:\n    /* \"#utility.yul\":11376:11416   */\ntag_226:\n    /* \"#utility.yul\":11429:11434   */\n  pop\n  jump(tag_218)\n    /* \"#utility.yul\":11167:11444   */\ntag_221:\n  pop\n    /* \"#utility.yul\":11553:11555   */\n  0x20\n    /* \"#utility.yul\":11543:11551   */\n  dup4\n    /* \"#utility.yul\":11540:11556   */\n  lt\n    /* \"#utility.yul\":11534:11537   */\n  0x0133\n    /* \"#utility.yul\":11528:11532   */\n  dup4\n    /* \"#utility.yul\":11525:11538   */\n  lt\n    /* \"#utility.yul\":11521:11557   */\n  and\n    /* \"#utility.yul\":11503:11505   */\n  0x4e\n    /* \"#utility.yul\":11493:11501   */\n  dup5\n    /* \"#utility.yul\":11490:11506   */\n  lt\n    /* \"#utility.yul\":11485:11487   */\n  0x0b\n    /* \"#utility.yul\":11479:11483   */\n  dup5\n    /* \"#utility.yul\":11476:11488   */\n  lt\n    /* \"#utility.yul\":11472:11507   */\n  and\n    /* \"#utility.yul\":11456:11567   */\n  or\n    /* \"#utility.yul\":11453:11699   */\n  iszero\n  tag_228\n  jumpi\n    /* \"#utility.yul\":11609:11617   */\n  dup3\n    /* \"#utility.yul\":11603:11607   */\n  dup3\n    /* \"#utility.yul\":11599:11618   */\n  exp\n    /* \"#utility.yul\":11590:11618   */\n  swap1\n  pop\n    /* \"#utility.yul\":11644:11647   */\n  dup4\n    /* \"#utility.yul\":11637:11642   */\n  dup2\n    /* \"#utility.yul\":11634:11648   */\n  gt\n    /* \"#utility.yul\":11631:11671   */\n  iszero\n  tag_229\n  jumpi\n    /* \"#utility.yul\":11651:11669   */\n  tag_230\n  tag_89\n  jump\t// in\ntag_230:\n    /* \"#utility.yul\":11631:11671   */\ntag_229:\n    /* \"#utility.yul\":11684:11689   */\n  jump(tag_218)\n    /* \"#utility.yul\":11453:11699   */\ntag_228:\n    /* \"#utility.yul\":11724:11766   */\n  tag_231\n    /* \"#utility.yul\":11762:11765   */\n  dup5\n    /* \"#utility.yul\":11752:11760   */\n  dup5\n    /* \"#utility.yul\":11746:11750   */\n  dup5\n    /* \"#utility.yul\":11743:11744   */\n  0x01\n    /* \"#utility.yul\":11724:11766   */\n  tag_91\n  jump\t// in\ntag_231:\n    /* \"#utility.yul\":11709:11766   */\n  swap3\n  pop\n  swap1\n  pop\n    /* \"#utility.yul\":11798:11802   */\n  dup2\n    /* \"#utility.yul\":11793:11796   */\n  dup5\n    /* \"#utility.yul\":11789:11803   */\n  div\n    /* \"#utility.yul\":11782:11787   */\n  dup2\n    /* \"#utility.yul\":11779:11804   */\n  gt\n    /* \"#utility.yul\":11776:11827   */\n  iszero\n  tag_232\n  jumpi\n    /* \"#utility.yul\":11807:11825   */\n  tag_233\n  tag_89\n  jump\t// in\ntag_233:\n    /* \"#utility.yul\":11776:11827   */\ntag_232:\n    /* \"#utility.yul\":11856:11860   */\n  dup2\n    /* \"#utility.yul\":11849:11854   */\n  dup2\n    /* \"#utility.yul\":11845:11861   */\n  mul\n    /* \"#utility.yul\":11836:11861   */\n  swap1\n  pop\n    /* \"#utility.yul\":10794:11867   */\ntag_218:\n  swap4\n  swap3\n  pop\n  pop\n  pop\n  jump\t// out\n    /* \"#utility.yul\":11873:11959   */\ntag_93:\n    /* \"#utility.yul\":11908:11915   */\n  0x00\n    /* \"#utility.yul\":11948:11952   */\n  0xff\n    /* \"#utility.yul\":11941:11946   */\n  dup3\n    /* \"#utility.yul\":11937:11953   */\n  and\n    /* \"#utility.yul\":11926:11953   */\n  swap1\n  pop\n    /* \"#utility.yul\":11873:11959   */\n  swap2\n  swap1\n  pop\n  jump\t// out\n    /* \"#utility.yul\":11965:12246   */\ntag_28:\n    /* \"#utility.yul\":12023:12028   */\n  0x00\n    /* \"#utility.yul\":12047:12070   */\n  tag_236\n    /* \"#utility.yul\":12065:12069   */\n  dup3\n    /* \"#utility.yul\":12047:12070   */\n  tag_76\n  jump\t// in\ntag_236:\n    /* \"#utility.yul\":12039:12070   */\n  swap2\n  pop\n    /* \"#utility.yul\":12091:12116   */\n  tag_237\n    /* \"#utility.yul\":12107:12115   */\n  dup4\n    /* \"#utility.yul\":12091:12116   */\n  tag_93\n  jump\t// in\ntag_237:\n    /* \"#utility.yul\":12079:12116   */\n  swap3\n  pop\n    /* \"#utility.yul\":12135:12239   */\n  tag_238\n    /* \"#utility.yul\":12172:12238   */\n  0xffffffffffffffffffffffffffffffffffffffffffffffffffffffffffffffff\n    /* \"#utility.yul\":12162:12170   */\n  dup5\n    /* \"#utility.yul\":12156:12160   */\n  dup5\n    /* \"#utility.yul\":12135:12239   */\n  tag_92\n  jump\t// in\ntag_238:\n    /* \"#utility.yul\":12126:12239   */\n  swap1\n  pop\n    /* \"#utility.yul\":11965:12246   */\n  swap3\n  swap2\n  pop\n  pop\n  jump\t// out\n    /* \"#utility.yul\":12252:12662   */\ntag_30:\n    /* \"#utility.yul\":12292:12299   */\n  0x00\n    /* \"#utility.yul\":12315:12335   */\n  tag_240\n    /* \"#utility.yul\":12333:12334   */\n  dup3\n    /* \"#utility.yul\":12315:12335   */\n  tag_76\n  jump\t// in\ntag_240:\n    /* \"#utility.yul\":12310:12335   */\n  swap2\n  pop\n    /* \"#utility.yul\":12349:12369   */\n  tag_241\n    /* \"#utility.yul\":12367:12368   */\n  dup4\n    /* \"#utility.yul\":12349:12369   */\n  tag_76\n  jump\t// in\ntag_241:\n    /* \"#utility.yul\":12344:12369   */\n  swap3\n  pop\n    /* \"#utility.yul\":12404:12405   */\n  dup3\n    /* \"#utility.yul\":12401:12402   */\n  dup3\n    /* \"#utility.yul\":12397:12406   */\n  mul\n    /* \"#utility.yul\":12426:12456   */\n  tag_242\n    /* \"#utility.yul\":12444:12455   */\n  dup2\n    /* \"#utility.yul\":12426:12456   */\n  tag_76\n  jump\t// in\ntag_242:\n    /* \"#utility.yul\":12415:12456   */\n  swap2\n  pop\n    /* \"#utility.yul\":12605:12606   */\n  dup3\n    /* \"#utility.yul\":12596:12603   */\n  dup3\n    /* \"#utility.yul\":12592:12607   */\n  div\n    /* \"#utility.yul\":12589:12590   */\n  dup5\n    /* \"#utility.yul\":12586:12608   */\n  eq\n    /* \"#utility.yul\":12566:12567   */\n  dup4\n    /* \"#utility.yul\":12559:12568   */\n  iszero\n    /* \"#utility.yul\":12539:12622   */\n  or\n    /* \"#utility.yul\":12516:12655   */\n  tag_243\n  jumpi\n    /* \"#utility.yul\":12635:12653   */\n  tag_244\n  tag_89\n  jump\t// in\ntag_244:\n    /* \"#utility.yul\":12516:12655   */\ntag_243:\n    /* \"#utility.yul\":12300:12662   */\n  pop\n    /* \"#utility.yul\":12252:12662   */\n  swap3\n  swap2\n  pop\n  pop\n  jump\t// out\n    /* \"#utility.yul\":12668:12859   */\ntag_43:\n    /* \"#utility.yul\":12708:12711   */\n  0x00\n    /* \"#utility.yul\":12727:12747   */\n  tag_246\n    /* \"#utility.yul\":12745:12746   */\n  dup3\n    /* \"#utility.yul\":12727:12747   */\n  tag_76\n  jump\t// in\ntag_246:\n    /* \"#utility.yul\":12722:12747   */\n  swap2\n  pop\n    /* \"#utility.yul\":12761:12781   */\n  tag_247\n    /* \"#utility.yul\":12779:12780   */\n  dup4\n    /* \"#utility.yul\":12761:12781   */\n  tag_76\n  jump\t// in\ntag_247:\n    /* \"#utility.yul\":12756:12781   */\n  swap3\n  pop\n    /* \"#utility.yul\":12804:12805   */\n  dup3\n    /* \"#utility.yul\":12801:12802   */\n  dup3\n    /* \"#utility.yul\":12797:12806   */\n  add\n    /* \"#utility.yul\":12790:12806   */\n  swap1\n  pop\n    /* \"#utility.yul\":12825:12828   */\n  dup1\n    /* \"#utility.yul\":12822:12823   */\n  dup3\n    /* \"#utility.yul\":12819:12829   */\n  gt\n    /* \"#utility.yul\":12816:12852   */\n  iszero\n  tag_248\n  jumpi\n    /* \"#utility.yul\":12832:12850   */\n  tag_249\n  tag_89\n  jump\t// in\ntag_249:\n    /* \"#utility.yul\":12816:12852   */\ntag_248:\n    /* \"#utility.yul\":12668:12859   */\n  swap3\n  swap2\n  pop\n  pop\n  jump\t// out\n    /* \"#utility.yul\":12865:12983   */\ntag_94:\n    /* \"#utility.yul\":12952:12976   */\n  tag_251\n    /* \"#utility.yul\":12970:12975   */\n  dup2\n    /* \"#utility.yul\":12952:12976   */\n  tag_76\n  jump\t// in\ntag_251:\n    /* \"#utility.yul\":12947:12950   */\n  dup3\n    /* \"#utility.yul\":12940:12977   */\n  mstore\n    /* \"#utility.yul\":12865:12983   */\n  pop\n  pop\n  jump\t// out\n    /* \"#utility.yul\":12989:13431   */\ntag_47:\n    /* \"#utility.yul\":13138:13142   */\n  0x00\n    /* \"#utility.yul\":13176:13178   */\n  0x60\n    /* \"#utility.yul\":13165:13174   */\n  dup3\n    /* \"#utility.yul\":13161:13179   */\n  add\n    /* \"#utility.yul\":13153:13179   */\n  swap1\n  pop\n    /* \"#utility.yul\":13189:13260   */\n  tag_253\n    /* \"#utility.yul\":13257:13258   */\n  0x00\n    /* \"#utility.yul\":13246:13255   */\n  dup4\n    /* \"#utility.yul\":13242:13259   */\n  add\n    /* \"#utility.yul\":13233:13239   */\n  dup7\n    /* \"#utility.yul\":13189:13260   */\n  tag_88\n  jump\t// in\ntag_253:\n    /* \"#utility.yul\":13270:13342   */\n  tag_254\n    /* \"#utility.yul\":13338:13340   */\n  0x20\n    /* \"#utility.yul\":13327:13336   */\n  dup4\n    /* \"#utility.yul\":13323:13341   */\n  add\n    /* \"#utility.yul\":13314:13320   */\n  dup6\n    /* \"#utility.yul\":13270:13342   */\n  tag_94\n  jump\t// in\ntag_254:\n    /* \"#utility.yul\":13352:13424   */\n  tag_255\n    /* \"#utility.yul\":13420:13422   */\n  0x40\n    /* \"#utility.yul\":13409:13418   */\n  dup4\n    /* \"#utility.yul\":13405:13423   */\n  add\n    /* \"#utility.yul\":13396:13402   */\n  dup5\n    /* \"#utility.yul\":13352:13424   */\n  tag_94\n  jump\t// in\ntag_255:\n    /* \"#utility.yul\":12989:13431   */\n  swap5\n  swap4\n  pop\n  pop\n  pop\n  pop\n  jump\t// out\n    /* \"#utility.yul\":13437:13659   */\ntag_51:\n    /* \"#utility.yul\":13530:13534   */\n  0x00\n    /* \"#utility.yul\":13568:13570   */\n  0x20\n    /* \"#utility.yul\":13557:13566   */\n  dup3\n    /* \"#utility.yul\":13553:13571   */\n  add\n    /* \"#utility.yul\":13545:13571   */\n  swap1\n  pop\n    /* \"#utility.yul\":13581:13652   */\n  tag_257\n    /* \"#utility.yul\":13649:13650   */\n  0x00\n    /* \"#utility.yul\":13638:13647   */\n  dup4\n    /* \"#utility.yul\":13634:13651   */\n  add\n    /* \"#utility.yul\":13625:13631   */\n  dup5\n    /* \"#utility.yul\":13581:13652   */\n  tag_94\n  jump\t// in\ntag_257:\n    /* \"#utility.yul\":13437:13659   */\n  swap3\n  swap2\n  pop\n  pop\n  jump\t// out\n    /* \"Signs 2/SignsToken.sol\":467:10594  contract SignToken is ERC20, Pausable, Ownable, ReentrancyGuard {... */\ntag_32:\n  dataSize(sub_0)\n  dup1\n  dataOffset(sub_0)\n  0x00\n  codecopy\n  0x00\n  return\nstop\n\nsub_0: assembly {\n        /* \"Signs 2/SignsToken.sol\":467:10594  contract SignToken is ERC20, Pausable, Ownable, ReentrancyGuard {... */\n      mstore(0x40, 0x80)\n      callvalue\n      dup1\n      iszero\n      tag_1\n      jumpi\n      0x00\n      dup1\n      revert\n    tag_1:\n      pop\n      jumpi(tag_2, lt(calldatasize, 0x04))\n      shr(0xe0, calldataload(0x00))\n      dup1\n      0x74612f19\n      gt\n      tag_30\n      jumpi\n      dup1\n      0xa9059cbb\n      gt\n      tag_31\n      jumpi\n      dup1\n      0xdd62ed3e\n      gt\n      tag_32\n      jumpi\n      dup1\n      0xdd62ed3e\n      eq\n      tag_26\n      jumpi\n      dup1\n      0xe95850df\n      eq\n      tag_27\n      jumpi\n      dup1\n      0xef9ecc1d\n      eq\n      tag_28\n      jumpi\n      dup1\n      0xf2fde38b\n      eq\n      tag_29\n      jumpi\n      jump(tag_2)\n    tag_32:\n      dup1\n      0xa9059cbb\n      eq\n      tag_23\n      jumpi\n      dup1\n      0xa9b493e0\n      eq\n      tag_24\n      jumpi\n      dup1\n      0xca525485\n      eq\n      tag_25\n      jumpi\n      jump(tag_2)\n    tag_31:\n      dup1\n      0x8da5cb5b\n      gt\n      tag_33\n      jumpi\n      dup1\n      0x8da5cb5b\n      eq\n      tag_19\n      jumpi\n      dup1\n      0x95d89b41\n      eq\n      tag_20\n      jumpi\n      dup1\n      0x9d55fba7\n      eq\n      tag_21\n      jumpi\n      dup1\n      0xa3262ea2\n      eq\n      tag_22\n      jumpi\n      jump(tag_2)\n    tag_33:\n      dup1\n      0x74612f19\n      eq\n      tag_16\n      jumpi\n      dup1\n      0x77d3550b\n      eq\n      tag_17\n      jumpi\n      dup1\n      0x8456cb59\n      eq\n      tag_18\n      jumpi\n      jump(tag_2)\n    tag_30:\n      dup1\n      0x2fcdc5fd\n      gt\n      tag_34\n      jumpi\n      dup1\n      0x5c975abb\n      gt\n      tag_35\n      jumpi\n      dup1\n      0x5c975abb\n      eq\n      tag_12\n      jumpi\n      dup1\n      0x5e182096\n      eq\n      tag_13\n      jumpi\n      dup1\n      0x70a08231\n      eq\n      tag_14\n      jumpi\n      dup1\n      0x715018a6\n      eq\n      tag_15\n      jumpi\n      jump(tag_2)\n    tag_35:\n      dup1\n      0x2fcdc5fd\n      eq\n      tag_9\n      jumpi\n      dup1\n      0x313ce567\n      eq\n      tag_10\n      jumpi\n      dup1\n      0x3f4ba83a\n      eq\n      tag_11\n      jumpi\n      jump(tag_2)\n    tag_34:\n      dup1\n      0x06fdde03\n      eq\n      tag_3\n      jumpi\n      dup1\n      0x095ea7b3\n      eq\n      tag_4\n      jumpi\n      dup1\n      0x18160ddd\n      eq\n      tag_5\n      jumpi\n      dup1\n      0x1ec48cf7\n      eq\n      tag_6\n      jumpi\n      dup1\n      0x23b872dd\n      eq\n      tag_7\n      jumpi\n      dup1\n      0x2a26c9cd\n      eq\n      tag_8\n      jumpi\n    tag_2:\n      0x00\n      dup1\n      revert\n        /* \"@openzeppelin/contracts/token/ERC20/ERC20.sol\":1779:1868  function name() public view virtual returns (string memory) {... */\n    tag_3:\n      tag_36\n      tag_37\n      jump\t// in\n    tag_36:\n      mload(0x40)\n      tag_38\n      swap2\n      swap1\n      tag_39\n      jump\t// in\n    tag_38:\n      mload(0x40)\n      dup1\n      swap2\n      sub\n      swap1\n      return\n        /* \"@openzeppelin/contracts/token/ERC20/ERC20.sol\":3998:4184  function approve(address spender, uint256 value) public virtual returns (bool) {... */\n    tag_4:\n      tag_40\n      0x04\n      dup1\n      calldatasize\n      sub\n      dup2\n      add\n      swap1\n      tag_41\n      swap2\n      swap1\n      tag_42\n      jump\t// in\n    tag_41:\n      tag_43\n      jump\t// in\n    tag_40:\n      mload(0x40)\n      tag_44\n      swap2\n      swap1\n      tag_45\n      jump\t// in\n    tag_44:\n      mload(0x40)\n      dup1\n      swap2\n      sub\n      swap1\n      return\n        /* \"@openzeppelin/contracts/token/ERC20/ERC20.sol\":2849:2946  function totalSupply() public view virtual returns (uint256) {... */\n    tag_5:\n      tag_46\n      tag_47\n      jump\t// in\n    tag_46:\n      mload(0x40)\n      tag_48\n      swap2\n      swap1\n      tag_49\n      jump\t// in\n    tag_48:\n      mload(0x40)\n      dup1\n      swap2\n      sub\n      swap1\n      return\n        /* \"Signs 2/SignsToken.sol\":10345:10591  function getApprovalInfo(address owner) external view returns (... */\n    tag_6:\n      tag_50\n      0x04\n      dup1\n      calldatasize\n      sub\n      dup2\n      add\n      swap1\n      tag_51\n      swap2\n      swap1\n      tag_52\n      jump\t// in\n    tag_51:\n      tag_53\n      jump\t// in\n    tag_50:\n      mload(0x40)\n      tag_54\n      swap3\n      swap2\n      swap1\n      tag_55\n      jump\t// in\n    tag_54:\n      mload(0x40)\n      dup1\n      swap2\n      sub\n      swap1\n      return\n        /* \"Signs 2/SignsToken.sol\":10104:10333  function transferFrom(address from, address to, uint256 amount)... */\n    tag_7:\n      tag_56\n      0x04\n      dup1\n      calldatasize\n      sub\n      dup2\n      add\n      swap1\n      tag_57\n      swap2\n      swap1\n      tag_58\n      jump\t// in\n    tag_57:\n      tag_59\n      jump\t// in\n    tag_56:\n      mload(0x40)\n      tag_60\n      swap2\n      swap1\n      tag_45\n      jump\t// in\n    tag_60:\n      mload(0x40)\n      dup1\n      swap2\n      sub\n      swap1\n      return\n        /* \"Signs 2/SignsToken.sol\":566:591  ISignsNFT public signsNFT */\n    tag_8:\n      tag_61\n      tag_62\n      jump\t// in\n    tag_61:\n      mload(0x40)\n      tag_63\n      swap2\n      swap1\n      tag_64\n      jump\t// in\n    tag_63:\n      mload(0x40)\n      dup1\n      swap2\n      sub\n      swap1\n      return\n        /* \"Signs 2/SignsToken.sol\":8120:8401  function updateSignsNFTContract(address _newAddress) external onlyOwner {... */\n    tag_9:\n      tag_65\n      0x04\n      dup1\n      calldatasize\n      sub\n      dup2\n      add\n      swap1\n      tag_66\n      swap2\n      swap1\n      tag_52\n      jump\t// in\n    tag_66:\n      tag_67\n      jump\t// in\n    tag_65:\n      stop\n        /* \"@openzeppelin/contracts/token/ERC20/ERC20.sol\":2707:2789  function decimals() public view virtual returns (uint8) {... */\n    tag_10:\n      tag_68\n      tag_69\n      jump\t// in\n    tag_68:\n      mload(0x40)\n      tag_70\n      swap2\n      swap1\n      tag_71\n      jump\t// in\n    tag_70:\n      mload(0x40)\n      dup1\n      swap2\n      sub\n      swap1\n      return\n        /* \"Signs 2/SignsToken.sol\":8956:9023  function unpause() external onlyOwner {... */\n    tag_11:\n      tag_72\n      tag_73\n      jump\t// in\n    tag_72:\n      stop\n        /* \"@openzeppelin/contracts/security/Pausable.sol\":1615:1699  function paused() public view virtual returns (bool) {... */\n    tag_12:\n      tag_74\n      tag_75\n      jump\t// in\n    tag_74:\n      mload(0x40)\n      tag_76\n      swap2\n      swap1\n      tag_45\n      jump\t// in\n    tag_76:\n      mload(0x40)\n      dup1\n      swap2\n      sub\n      swap1\n      return\n        /* \"Signs 2/SignsToken.sol\":2695:3297  function chargeSignBalance(uint256 tokenId, uint256 amount) external nonReentrant whenNotPaused {... */\n    tag_13:\n      tag_77\n      0x04\n      dup1\n      calldatasize\n      sub\n      dup2\n      add\n      swap1\n      tag_78\n      swap2\n      swap1\n      tag_79\n      jump\t// in\n    tag_78:\n      tag_80\n      jump\t// in\n    tag_77:\n      stop\n        /* \"@openzeppelin/contracts/token/ERC20/ERC20.sol\":3004:3120  function balanceOf(address account) public view virtual returns (uint256) {... */\n    tag_14:\n      tag_81\n      0x04\n      dup1\n      calldatasize\n      sub\n      dup2\n      add\n      swap1\n      tag_82\n      swap2\n      swap1\n      tag_52\n      jump\t// in\n    tag_82:\n      tag_83\n      jump\t// in\n    tag_81:\n      mload(0x40)\n      tag_84\n      swap2\n      swap1\n      tag_49\n      jump\t// in\n    tag_84:\n      mload(0x40)\n      dup1\n      swap2\n      sub\n      swap1\n      return\n        /* \"@openzeppelin/contracts/access/Ownable.sol\":2293:2394  function renounceOwnership() public virtual onlyOwner {... */\n    tag_15:\n      tag_85\n      tag_86\n      jump\t// in\n    tag_85:\n      stop\n        /* \"Signs 2/SignsToken.sol\":9568:9820  function updateCommissionTreasury(address newTreasury) external onlyOwner {... */\n    tag_16:\n      tag_87\n      0x04\n      dup1\n      calldatasize\n      sub\n      dup2\n      add\n      swap1\n      tag_88\n      swap2\n      swap1\n      tag_52\n      jump\t// in\n    tag_88:\n      tag_89\n      jump\t// in\n    tag_87:\n      stop\n        /* \"Signs 2/SignsToken.sol\":670:702  uint256 public commissionPercent */\n    tag_17:\n      tag_90\n      tag_91\n      jump\t// in\n    tag_90:\n      mload(0x40)\n      tag_92\n      swap2\n      swap1\n      tag_49\n      jump\t// in\n    tag_92:\n      mload(0x40)\n      dup1\n      swap2\n      sub\n      swap1\n      return\n        /* \"Signs 2/SignsToken.sol\":8885:8948  function pause() external onlyOwner {... */\n    tag_18:\n      tag_93\n      tag_94\n      jump\t// in\n    tag_93:\n      stop\n        /* \"@openzeppelin/contracts/access/Ownable.sol\":1638:1723  function owner() public view virtual returns (address) {... */\n    tag_19:\n      tag_95\n      tag_96\n      jump\t// in\n    tag_95:\n      mload(0x40)\n      tag_97\n      swap2\n      swap1\n      tag_98\n      jump\t// in\n    tag_97:\n      mload(0x40)\n      dup1\n      swap2\n      sub\n      swap1\n      return\n        /* \"@openzeppelin/contracts/token/ERC20/ERC20.sol\":1981:2074  function symbol() public view virtual returns (string memory) {... */\n    tag_20:\n      tag_99\n      tag_100\n      jump\t// in\n    tag_99:\n      mload(0x40)\n      tag_101\n      swap2\n      swap1\n      tag_39\n      jump\t// in\n    tag_101:\n      mload(0x40)\n      dup1\n      swap2\n      sub\n      swap1\n      return\n        /* \"Signs 2/SignsToken.sol\":9174:9441  function updateCommission(uint256 newCommissionPercent) external onlyOwner {... */\n    tag_21:\n      tag_102\n      0x04\n      dup1\n      calldatasize\n      sub\n      dup2\n      add\n      swap1\n      tag_103\n      swap2\n      swap1\n      tag_104\n      jump\t// in\n    tag_103:\n      tag_105\n      jump\t// in\n    tag_102:\n      stop\n        /* \"Signs 2/SignsToken.sol\":598:629  address public signsNFTContract */\n    tag_22:\n      tag_106\n      tag_107\n      jump\t// in\n    tag_106:\n      mload(0x40)\n      tag_108\n      swap2\n      swap1\n      tag_98\n      jump\t// in\n    tag_108:\n      mload(0x40)\n      dup1\n      swap2\n      sub\n      swap1\n      return\n        /* \"Signs 2/SignsToken.sol\":9889:10096  function transfer(address to, uint256 amount) ... */\n    tag_23:\n      tag_109\n      0x04\n      dup1\n      calldatasize\n      sub\n      dup2\n      add\n      swap1\n      tag_110\n      swap2\n      swap1\n      tag_42\n      jump\t// in\n    tag_110:\n      tag_111\n      jump\t// in\n    tag_109:\n      mload(0x40)\n      tag_112\n      swap2\n      swap1\n      tag_45\n      jump\t// in\n    tag_112:\n      mload(0x40)\n      dup1\n      swap2\n      sub\n      swap1\n      return\n        /* \"Signs 2/SignsToken.sol\":3476:4226  function withdrawSignBalance(uint256 tokenId, uint256 amount) external nonReentrant whenNotPaused {... */\n    tag_24:\n      tag_113\n      0x04\n      dup1\n      calldatasize\n      sub\n      dup2\n      add\n      swap1\n      tag_114\n      swap2\n      swap1\n      tag_79\n      jump\t// in\n    tag_114:\n      tag_115\n      jump\t// in\n    tag_113:\n      stop\n        /* \"Signs 2/SignsToken.sol\":910:957  mapping(uint256 => uint256) public signBalances */\n    tag_25:\n      tag_116\n      0x04\n      dup1\n      calldatasize\n      sub\n      dup2\n      add\n      swap1\n      tag_117\n      swap2\n      swap1\n      tag_104\n      jump\t// in\n    tag_117:\n      tag_118\n      jump\t// in\n    tag_116:\n      mload(0x40)\n      tag_119\n      swap2\n      swap1\n      tag_49\n      jump\t// in\n    tag_119:\n      mload(0x40)\n      dup1\n      swap2\n      sub\n      swap1\n      return\n        /* \"@openzeppelin/contracts/token/ERC20/ERC20.sol\":3551:3691  function allowance(address owner, address spender) public view virtual returns (uint256) {... */\n    tag_26:\n      tag_120\n      0x04\n      dup1\n      calldatasize\n      sub\n      dup2\n      add\n      swap1\n      tag_121\n      swap2\n      swap1\n      tag_122\n      jump\t// in\n    tag_121:\n      tag_123\n      jump\t// in\n    tag_120:\n      mload(0x40)\n      tag_124\n      swap2\n      swap1\n      tag_49\n      jump\t// in\n    tag_124:\n      mload(0x40)\n      dup1\n      swap2\n      sub\n      swap1\n      return\n        /* \"Signs 2/SignsToken.sol\":750:783  address public commissionTreasury */\n    tag_27:\n      tag_125\n      tag_126\n      jump\t// in\n    tag_125:\n      mload(0x40)\n      tag_127\n      swap2\n      swap1\n      tag_98\n      jump\t// in\n    tag_127:\n      mload(0x40)\n      dup1\n      swap2\n      sub\n      swap1\n      return\n        /* \"Signs 2/SignsToken.sol\":5242:7995  function payWage(... */\n    tag_28:\n      tag_128\n      0x04\n      dup1\n      calldatasize\n      sub\n      dup2\n      add\n      swap1\n      tag_129\n      swap2\n      swap1\n      tag_130\n      jump\t// in\n    tag_129:\n      tag_131\n      jump\t// in\n    tag_128:\n      mload(0x40)\n      tag_132\n      swap2\n      swap1\n      tag_133\n      jump\t// in\n    tag_132:\n      mload(0x40)\n      dup1\n      swap2\n      sub\n      swap1\n      return\n        /* \"@openzeppelin/contracts/access/Ownable.sol\":2543:2758  function transferOwnership(address newOwner) public virtual onlyOwner {... */\n    tag_29:\n      tag_134\n      0x04\n      dup1\n      calldatasize\n      sub\n      dup2\n      add\n      swap1\n      tag_135\n      swap2\n      swap1\n      tag_52\n      jump\t// in\n    tag_135:\n      tag_136\n      jump\t// in\n    tag_134:\n      stop\n        /* \"@openzeppelin/contracts/token/ERC20/ERC20.sol\":1779:1868  function name() public view virtual returns (string memory) {... */\n    tag_37:\n        /* \"@openzeppelin/contracts/token/ERC20/ERC20.sol\":1824:1837  string memory */\n      0x60\n        /* \"@openzeppelin/contracts/token/ERC20/ERC20.sol\":1856:1861  _name */\n      0x03\n        /* \"@openzeppelin/contracts/token/ERC20/ERC20.sol\":1849:1861  return _name */\n      dup1\n      sload\n      tag_138\n      swap1\n      tag_139\n      jump\t// in\n    tag_138:\n      dup1\n      0x1f\n      add\n      0x20\n      dup1\n      swap2\n      div\n      mul\n      0x20\n      add\n      mload(0x40)\n      swap1\n      dup2\n      add\n      0x40\n      mstore\n      dup1\n      swap3\n      swap2\n      swap1\n      dup2\n      dup2\n      mstore\n      0x20\n      add\n      dup3\n      dup1\n      sload\n      tag_140\n      swap1\n      tag_139\n      jump\t// in\n    tag_140:\n      dup1\n      iszero\n      tag_141\n      jumpi\n      dup1\n      0x1f\n      lt\n      tag_142\n      jumpi\n      0x0100\n      dup1\n      dup4\n      sload\n      div\n      mul\n      dup4\n      mstore\n      swap2\n      0x20\n      add\n      swap2\n      jump(tag_141)\n    tag_142:\n      dup3\n      add\n      swap2\n      swap1\n      0x00\n      mstore\n      keccak256(0x00, 0x20)\n      swap1\n    tag_143:\n      dup2\n      sload\n      dup2\n      mstore\n      swap1\n      0x01\n      add\n      swap1\n      0x20\n      add\n      dup1\n      dup4\n      gt\n      tag_143\n      jumpi\n      dup3\n      swap1\n      sub\n      0x1f\n      and\n      dup3\n      add\n      swap2\n    tag_141:\n      pop\n      pop\n      pop\n      pop\n      pop\n      swap1\n      pop\n        /* \"@openzeppelin/contracts/token/ERC20/ERC20.sol\":1779:1868  function name() public view virtual returns (string memory) {... */\n      swap1\n      jump\t// out\n        /* \"@openzeppelin/contracts/token/ERC20/ERC20.sol\":3998:4184  function approve(address spender, uint256 value) public virtual returns (bool) {... */\n    tag_43:\n        /* \"@openzeppelin/contracts/token/ERC20/ERC20.sol\":4071:4075  bool */\n      0x00\n        /* \"@openzeppelin/contracts/token/ERC20/ERC20.sol\":4087:4100  address owner */\n      dup1\n        /* \"@openzeppelin/contracts/token/ERC20/ERC20.sol\":4103:4115  _msgSender() */\n      tag_145\n        /* \"@openzeppelin/contracts/token/ERC20/ERC20.sol\":4103:4113  _msgSender */\n      tag_146\n        /* \"@openzeppelin/contracts/token/ERC20/ERC20.sol\":4103:4115  _msgSender() */\n      jump\t// in\n    tag_145:\n        /* \"@openzeppelin/contracts/token/ERC20/ERC20.sol\":4087:4115  address owner = _msgSender() */\n      swap1\n      pop\n        /* \"@openzeppelin/contracts/token/ERC20/ERC20.sol\":4125:4156  _approve(owner, spender, value) */\n      tag_147\n        /* \"@openzeppelin/contracts/token/ERC20/ERC20.sol\":4134:4139  owner */\n      dup2\n        /* \"@openzeppelin/contracts/token/ERC20/ERC20.sol\":4141:4148  spender */\n      dup6\n        /* \"@openzeppelin/contracts/token/ERC20/ERC20.sol\":4150:4155  value */\n      dup6\n        /* \"@openzeppelin/contracts/token/ERC20/ERC20.sol\":4125:4133  _approve */\n      tag_148\n        /* \"@openzeppelin/contracts/token/ERC20/ERC20.sol\":4125:4156  _approve(owner, spender, value) */\n      jump\t// in\n    tag_147:\n        /* \"@openzeppelin/contracts/token/ERC20/ERC20.sol\":4173:4177  true */\n      0x01\n        /* \"@openzeppelin/contracts/token/ERC20/ERC20.sol\":4166:4177  return true */\n      swap2\n      pop\n      pop\n        /* \"@openzeppelin/contracts/token/ERC20/ERC20.sol\":3998:4184  function approve(address spender, uint256 value) public virtual returns (bool) {... */\n      swap3\n      swap2\n      pop\n      pop\n      jump\t// out\n        /* \"@openzeppelin/contracts/token/ERC20/ERC20.sol\":2849:2946  function totalSupply() public view virtual returns (uint256) {... */\n    tag_47:\n        /* \"@openzeppelin/contracts/token/ERC20/ERC20.sol\":2901:2908  uint256 */\n      0x00\n        /* \"@openzeppelin/contracts/token/ERC20/ERC20.sol\":2927:2939  _totalSupply */\n      sload(0x02)\n        /* \"@openzeppelin/contracts/token/ERC20/ERC20.sol\":2920:2939  return _totalSupply */\n      swap1\n      pop\n        /* \"@openzeppelin/contracts/token/ERC20/ERC20.sol\":2849:2946  function totalSupply() public view virtual returns (uint256) {... */\n      swap1\n      jump\t// out\n        /* \"Signs 2/SignsToken.sol\":10345:10591  function getApprovalInfo(address owner) external view returns (... */\n    tag_53:\n        /* \"Signs 2/SignsToken.sol\":10418:10433  uint256 balance */\n      0x00\n        /* \"Signs 2/SignsToken.sol\":10444:10469  uint256 contractAllowance */\n      dup1\n        /* \"Signs 2/SignsToken.sol\":10510:10526  balanceOf(owner) */\n      tag_151\n        /* \"Signs 2/SignsToken.sol\":10520:10525  owner */\n      dup4\n        /* \"Signs 2/SignsToken.sol\":10510:10519  balanceOf */\n      tag_83\n        /* \"Signs 2/SignsToken.sol\":10510:10526  balanceOf(owner) */\n      jump\t// in\n    tag_151:\n        /* \"Signs 2/SignsToken.sol\":10541:10572  allowance(owner, address(this)) */\n      tag_152\n        /* \"Signs 2/SignsToken.sol\":10551:10556  owner */\n      dup5\n        /* \"Signs 2/SignsToken.sol\":10566:10570  this */\n      address\n        /* \"Signs 2/SignsToken.sol\":10541:10550  allowance */\n      tag_123\n        /* \"Signs 2/SignsToken.sol\":10541:10572  allowance(owner, address(this)) */\n      jump\t// in\n    tag_152:\n        /* \"Signs 2/SignsToken.sol\":10488:10583  return (... */\n      swap2\n      pop\n      swap2\n      pop\n        /* \"Signs 2/SignsToken.sol\":10345:10591  function getApprovalInfo(address owner) external view returns (... */\n      swap2\n      pop\n      swap2\n      jump\t// out\n        /* \"Signs 2/SignsToken.sol\":10104:10333  function transferFrom(address from, address to, uint256 amount)... */\n    tag_59:\n        /* \"Signs 2/SignsToken.sol\":10260:10264  bool */\n      0x00\n        /* \"@openzeppelin/contracts/security/Pausable.sol\":1239:1258  _requireNotPaused() */\n      tag_154\n        /* \"@openzeppelin/contracts/security/Pausable.sol\":1239:1256  _requireNotPaused */\n      tag_155\n        /* \"@openzeppelin/contracts/security/Pausable.sol\":1239:1258  _requireNotPaused() */\n      jump\t// in\n    tag_154:\n        /* \"Signs 2/SignsToken.sol\":10289:10325  super.transferFrom(from, to, amount) */\n      tag_157\n        /* \"Signs 2/SignsToken.sol\":10308:10312  from */\n      dup5\n        /* \"Signs 2/SignsToken.sol\":10314:10316  to */\n      dup5\n        /* \"Signs 2/SignsToken.sol\":10318:10324  amount */\n      dup5\n        /* \"Signs 2/SignsToken.sol\":10289:10307  super.transferFrom */\n      tag_158\n        /* \"Signs 2/SignsToken.sol\":10289:10325  super.transferFrom(from, to, amount) */\n      jump\t// in\n    tag_157:\n        /* \"Signs 2/SignsToken.sol\":10282:10325  return super.transferFrom(from, to, amount) */\n      swap1\n      pop\n        /* \"Signs 2/SignsToken.sol\":10104:10333  function transferFrom(address from, address to, uint256 amount)... */\n      swap4\n      swap3\n      pop\n      pop\n      pop\n      jump\t// out\n        /* \"Signs 2/SignsToken.sol\":566:591  ISignsNFT public signsNFT */\n    tag_62:\n      0x07\n      0x00\n      swap1\n      sload\n      swap1\n      0x0100\n      exp\n      swap1\n      div\n      0xffffffffffffffffffffffffffffffffffffffff\n      and\n      dup2\n      jump\t// out\n        /* \"Signs 2/SignsToken.sol\":8120:8401  function updateSignsNFTContract(address _newAddress) external onlyOwner {... */\n    tag_67:\n        /* \"@openzeppelin/contracts/access/Ownable.sol\":1531:1544  _checkOwner() */\n      tag_160\n        /* \"@openzeppelin/contracts/access/Ownable.sol\":1531:1542  _checkOwner */\n      tag_161\n        /* \"@openzeppelin/contracts/access/Ownable.sol\":1531:1544  _checkOwner() */\n      jump\t// in\n    tag_160:\n        /* \"Signs 2/SignsToken.sol\":8230:8231  0 */\n      0x00\n        /* \"Signs 2/SignsToken.sol\":8207:8232  _newAddress == address(0) */\n      0xffffffffffffffffffffffffffffffffffffffff\n      and\n        /* \"Signs 2/SignsToken.sol\":8207:8218  _newAddress */\n      dup2\n        /* \"Signs 2/SignsToken.sol\":8207:8232  _newAddress == address(0) */\n      0xffffffffffffffffffffffffffffffffffffffff\n      and\n      sub\n        /* \"Signs 2/SignsToken.sol\":8203:8261  if (_newAddress == address(0)) revert InvalidNFTContract() */\n      tag_163\n      jumpi\n        /* \"Signs 2/SignsToken.sol\":8241:8261  InvalidNFTContract() */\n      mload(0x40)\n      0xf8af67e500000000000000000000000000000000000000000000000000000000\n      dup2\n      mstore\n      0x04\n      add\n      mload(0x40)\n      dup1\n      swap2\n      sub\n      swap1\n      revert\n        /* \"Signs 2/SignsToken.sol\":8203:8261  if (_newAddress == address(0)) revert InvalidNFTContract() */\n    tag_163:\n        /* \"Signs 2/SignsToken.sol\":8291:8302  _newAddress */\n      dup1\n        /* \"Signs 2/SignsToken.sol\":8272:8288  signsNFTContract */\n      0x08\n      0x00\n        /* \"Signs 2/SignsToken.sol\":8272:8302  signsNFTContract = _newAddress */\n      0x0100\n      exp\n      dup2\n      sload\n      dup2\n      0xffffffffffffffffffffffffffffffffffffffff\n      mul\n      not\n      and\n      swap1\n      dup4\n      0xffffffffffffffffffffffffffffffffffffffff\n      and\n      mul\n      or\n      swap1\n      sstore\n      pop\n        /* \"Signs 2/SignsToken.sol\":8334:8345  _newAddress */\n      dup1\n        /* \"Signs 2/SignsToken.sol\":8313:8321  signsNFT */\n      0x07\n      0x00\n        /* \"Signs 2/SignsToken.sol\":8313:8346  signsNFT = ISignsNFT(_newAddress) */\n      0x0100\n      exp\n      dup2\n      sload\n      dup2\n      0xffffffffffffffffffffffffffffffffffffffff\n      mul\n      not\n      and\n      swap1\n      dup4\n      0xffffffffffffffffffffffffffffffffffffffff\n      and\n      mul\n      or\n      swap1\n      sstore\n      pop\n        /* \"Signs 2/SignsToken.sol\":8362:8393  NFTContractUpdated(_newAddress) */\n      0xf2610996d245d9b77e4ff84c2174eea0b76fb44c422218404f66e28816d78fb9\n        /* \"Signs 2/SignsToken.sol\":8381:8392  _newAddress */\n      dup2\n        /* \"Signs 2/SignsToken.sol\":8362:8393  NFTContractUpdated(_newAddress) */\n      mload(0x40)\n      tag_164\n      swap2\n      swap1\n      tag_98\n      jump\t// in\n    tag_164:\n      mload(0x40)\n      dup1\n      swap2\n      sub\n      swap1\n      log1\n        /* \"Signs 2/SignsToken.sol\":8120:8401  function updateSignsNFTContract(address _newAddress) external onlyOwner {... */\n      pop\n      jump\t// out\n        /* \"@openzeppelin/contracts/token/ERC20/ERC20.sol\":2707:2789  function decimals() public view virtual returns (uint8) {... */\n    tag_69:\n        /* \"@openzeppelin/contracts/token/ERC20/ERC20.sol\":2756:2761  uint8 */\n      0x00\n        /* \"@openzeppelin/contracts/token/ERC20/ERC20.sol\":2780:2782  18 */\n      0x12\n        /* \"@openzeppelin/contracts/token/ERC20/ERC20.sol\":2773:2782  return 18 */\n      swap1\n      pop\n        /* \"@openzeppelin/contracts/token/ERC20/ERC20.sol\":2707:2789  function decimals() public view virtual returns (uint8) {... */\n      swap1\n      jump\t// out\n        /* \"Signs 2/SignsToken.sol\":8956:9023  function unpause() external onlyOwner {... */\n    tag_73:\n        /* \"@openzeppelin/contracts/access/Ownable.sol\":1531:1544  _checkOwner() */\n      tag_167\n        /* \"@openzeppelin/contracts/access/Ownable.sol\":1531:1542  _checkOwner */\n      tag_161\n        /* \"@openzeppelin/contracts/access/Ownable.sol\":1531:1544  _checkOwner() */\n      jump\t// in\n    tag_167:\n        /* \"Signs 2/SignsToken.sol\":9005:9015  _unpause() */\n      tag_169\n        /* \"Signs 2/SignsToken.sol\":9005:9013  _unpause */\n      tag_170\n        /* \"Signs 2/SignsToken.sol\":9005:9015  _unpause() */\n      jump\t// in\n    tag_169:\n        /* \"Signs 2/SignsToken.sol\":8956:9023  function unpause() external onlyOwner {... */\n      jump\t// out\n        /* \"@openzeppelin/contracts/security/Pausable.sol\":1615:1699  function paused() public view virtual returns (bool) {... */\n    tag_75:\n        /* \"@openzeppelin/contracts/security/Pausable.sol\":1662:1666  bool */\n      0x00\n        /* \"@openzeppelin/contracts/security/Pausable.sol\":1685:1692  _paused */\n      0x05\n      0x00\n      swap1\n      sload\n      swap1\n      0x0100\n      exp\n      swap1\n      div\n      0xff\n      and\n        /* \"@openzeppelin/contracts/security/Pausable.sol\":1678:1692  return _paused */\n      swap1\n      pop\n        /* \"@openzeppelin/contracts/security/Pausable.sol\":1615:1699  function paused() public view virtual returns (bool) {... */\n      swap1\n      jump\t// out\n        /* \"Signs 2/SignsToken.sol\":2695:3297  function chargeSignBalance(uint256 tokenId, uint256 amount) external nonReentrant whenNotPaused {... */\n    tag_80:\n        /* \"@openzeppelin/contracts/security/ReentrancyGuard.sol\":2261:2282  _nonReentrantBefore() */\n      tag_173\n        /* \"@openzeppelin/contracts/security/ReentrancyGuard.sol\":2261:2280  _nonReentrantBefore */\n      tag_174\n        /* \"@openzeppelin/contracts/security/ReentrancyGuard.sol\":2261:2282  _nonReentrantBefore() */\n      jump\t// in\n    tag_173:\n        /* \"@openzeppelin/contracts/security/Pausable.sol\":1239:1258  _requireNotPaused() */\n      tag_176\n        /* \"@openzeppelin/contracts/security/Pausable.sol\":1239:1256  _requireNotPaused */\n      tag_155\n        /* \"@openzeppelin/contracts/security/Pausable.sol\":1239:1258  _requireNotPaused() */\n      jump\t// in\n    tag_176:\n        /* \"Signs 2/SignsToken.sol\":2816:2817  0 */\n      0x00\n        /* \"Signs 2/SignsToken.sol\":2806:2812  amount */\n      dup2\n        /* \"Signs 2/SignsToken.sol\":2806:2817  amount == 0 */\n      sub\n        /* \"Signs 2/SignsToken.sol\":2802:2841  if (amount == 0) revert InvalidAmount() */\n      tag_178\n      jumpi\n        /* \"Signs 2/SignsToken.sol\":2826:2841  InvalidAmount() */\n      mload(0x40)\n      0x2c5211c600000000000000000000000000000000000000000000000000000000\n      dup2\n      mstore\n      0x04\n      add\n      mload(0x40)\n      dup1\n      swap2\n      sub\n      swap1\n      revert\n        /* \"Signs 2/SignsToken.sol\":2802:2841  if (amount == 0) revert InvalidAmount() */\n    tag_178:\n        /* \"Signs 2/SignsToken.sol\":2862:2876  address sender */\n      0x00\n        /* \"Signs 2/SignsToken.sol\":2879:2889  msg.sender */\n      caller\n        /* \"Signs 2/SignsToken.sol\":2862:2889  address sender = msg.sender */\n      swap1\n      pop\n        /* \"Signs 2/SignsToken.sol\":3043:3055  bool success */\n      0x00\n        /* \"Signs 2/SignsToken.sol\":3058:3092  transfer(signsNFTContract, amount) */\n      tag_179\n        /* \"Signs 2/SignsToken.sol\":3067:3083  signsNFTContract */\n      0x08\n      0x00\n      swap1\n      sload\n      swap1\n      0x0100\n      exp\n      swap1\n      div\n      0xffffffffffffffffffffffffffffffffffffffff\n      and\n        /* \"Signs 2/SignsToken.sol\":3085:3091  amount */\n      dup5\n        /* \"Signs 2/SignsToken.sol\":3058:3066  transfer */\n      tag_111\n        /* \"Signs 2/SignsToken.sol\":3058:3092  transfer(signsNFTContract, amount) */\n      jump\t// in\n    tag_179:\n        /* \"Signs 2/SignsToken.sol\":3043:3092  bool success = transfer(signsNFTContract, amount) */\n      swap1\n      pop\n        /* \"Signs 2/SignsToken.sol\":3111:3118  success */\n      dup1\n        /* \"Signs 2/SignsToken.sol\":3103:3144  require(success, \"Token transfer failed\") */\n      tag_180\n      jumpi\n      mload(0x40)\n      0x08c379a000000000000000000000000000000000000000000000000000000000\n      dup2\n      mstore\n      0x04\n      add\n      tag_181\n      swap1\n      tag_182\n      jump\t// in\n    tag_181:\n      mload(0x40)\n      dup1\n      swap2\n      sub\n      swap1\n      revert\n    tag_180:\n        /* \"Signs 2/SignsToken.sol\":3222:3228  amount */\n      dup3\n        /* \"Signs 2/SignsToken.sol\":3197:3209  signBalances */\n      0x0b\n        /* \"Signs 2/SignsToken.sol\":3197:3218  signBalances[tokenId] */\n      0x00\n        /* \"Signs 2/SignsToken.sol\":3210:3217  tokenId */\n      dup7\n        /* \"Signs 2/SignsToken.sol\":3197:3218  signBalances[tokenId] */\n      dup2\n      mstore\n      0x20\n      add\n      swap1\n      dup2\n      mstore\n      0x20\n      add\n      0x00\n      keccak256\n      0x00\n        /* \"Signs 2/SignsToken.sol\":3197:3228  signBalances[tokenId] += amount */\n      dup3\n      dup3\n      sload\n      tag_183\n      swap2\n      swap1\n      tag_184\n      jump\t// in\n    tag_183:\n      swap3\n      pop\n      pop\n      dup2\n      swap1\n      sstore\n      pop\n        /* \"Signs 2/SignsToken.sol\":3273:3280  tokenId */\n      dup4\n        /* \"Signs 2/SignsToken.sol\":3254:3289  SignBalanceCharged(tokenId, amount) */\n      0x577dfadb80ab9a5336c633f3fa5f59c296d18a29aa6ae9e4598762748e1f4afd\n        /* \"Signs 2/SignsToken.sol\":3282:3288  amount */\n      dup5\n        /* \"Signs 2/SignsToken.sol\":3254:3289  SignBalanceCharged(tokenId, amount) */\n      mload(0x40)\n      tag_185\n      swap2\n      swap1\n      tag_49\n      jump\t// in\n    tag_185:\n      mload(0x40)\n      dup1\n      swap2\n      sub\n      swap1\n      log2\n        /* \"Signs 2/SignsToken.sol\":2791:3297  {... */\n      pop\n      pop\n        /* \"@openzeppelin/contracts/security/ReentrancyGuard.sol\":2303:2323  _nonReentrantAfter() */\n      tag_186\n        /* \"@openzeppelin/contracts/security/ReentrancyGuard.sol\":2303:2321  _nonReentrantAfter */\n      tag_187\n        /* \"@openzeppelin/contracts/security/ReentrancyGuard.sol\":2303:2323  _nonReentrantAfter() */\n      jump\t// in\n    tag_186:\n        /* \"Signs 2/SignsToken.sol\":2695:3297  function chargeSignBalance(uint256 tokenId, uint256 amount) external nonReentrant whenNotPaused {... */\n      pop\n      pop\n      jump\t// out\n        /* \"@openzeppelin/contracts/token/ERC20/ERC20.sol\":3004:3120  function balanceOf(address account) public view virtual returns (uint256) {... */\n    tag_83:\n        /* \"@openzeppelin/contracts/token/ERC20/ERC20.sol\":3069:3076  uint256 */\n      0x00\n        /* \"@openzeppelin/contracts/token/ERC20/ERC20.sol\":3095:3104  _balances */\n      dup1\n        /* \"@openzeppelin/contracts/token/ERC20/ERC20.sol\":3095:3113  _balances[account] */\n      0x00\n        /* \"@openzeppelin/contracts/token/ERC20/ERC20.sol\":3105:3112  account */\n      dup4\n        /* \"@openzeppelin/contracts/token/ERC20/ERC20.sol\":3095:3113  _balances[account] */\n      0xffffffffffffffffffffffffffffffffffffffff\n      and\n      0xffffffffffffffffffffffffffffffffffffffff\n      and\n      dup2\n      mstore\n      0x20\n      add\n      swap1\n      dup2\n      mstore\n      0x20\n      add\n      0x00\n      keccak256\n      sload\n        /* \"@openzeppelin/contracts/token/ERC20/ERC20.sol\":3088:3113  return _balances[account] */\n      swap1\n      pop\n        /* \"@openzeppelin/contracts/token/ERC20/ERC20.sol\":3004:3120  function balanceOf(address account) public view virtual returns (uint256) {... */\n      swap2\n      swap1\n      pop\n      jump\t// out\n        /* \"@openzeppelin/contracts/access/Ownable.sol\":2293:2394  function renounceOwnership() public virtual onlyOwner {... */\n    tag_86:\n        /* \"@openzeppelin/contracts/access/Ownable.sol\":1531:1544  _checkOwner() */\n      tag_190\n        /* \"@openzeppelin/contracts/access/Ownable.sol\":1531:1542  _checkOwner */\n      tag_161\n        /* \"@openzeppelin/contracts/access/Ownable.sol\":1531:1544  _checkOwner() */\n      jump\t// in\n    tag_190:\n        /* \"@openzeppelin/contracts/access/Ownable.sol\":2357:2387  _transferOwnership(address(0)) */\n      tag_192\n        /* \"@openzeppelin/contracts/access/Ownable.sol\":2384:2385  0 */\n      0x00\n        /* \"@openzeppelin/contracts/access/Ownable.sol\":2357:2375  _transferOwnership */\n      tag_193\n        /* \"@openzeppelin/contracts/access/Ownable.sol\":2357:2387  _transferOwnership(address(0)) */\n      jump\t// in\n    tag_192:\n        /* \"@openzeppelin/contracts/access/Ownable.sol\":2293:2394  function renounceOwnership() public virtual onlyOwner {... */\n      jump\t// out\n        /* \"Signs 2/SignsToken.sol\":9568:9820  function updateCommissionTreasury(address newTreasury) external onlyOwner {... */\n    tag_89:\n        /* \"@openzeppelin/contracts/access/Ownable.sol\":1531:1544  _checkOwner() */\n      tag_195\n        /* \"@openzeppelin/contracts/access/Ownable.sol\":1531:1542  _checkOwner */\n      tag_161\n        /* \"@openzeppelin/contracts/access/Ownable.sol\":1531:1544  _checkOwner() */\n      jump\t// in\n    tag_195:\n        /* \"Signs 2/SignsToken.sol\":9680:9681  0 */\n      0x00\n        /* \"Signs 2/SignsToken.sol\":9657:9682  newTreasury == address(0) */\n      0xffffffffffffffffffffffffffffffffffffffff\n      and\n        /* \"Signs 2/SignsToken.sol\":9657:9668  newTreasury */\n      dup2\n        /* \"Signs 2/SignsToken.sol\":9657:9682  newTreasury == address(0) */\n      0xffffffffffffffffffffffffffffffffffffffff\n      and\n      sub\n        /* \"Signs 2/SignsToken.sol\":9653:9715  if (newTreasury == address(0)) revert InvalidTreasuryAddress() */\n      tag_197\n      jumpi\n        /* \"Signs 2/SignsToken.sol\":9691:9715  InvalidTreasuryAddress() */\n      mload(0x40)\n      0xcfe2ea6300000000000000000000000000000000000000000000000000000000\n      dup2\n      mstore\n      0x04\n      add\n      mload(0x40)\n      dup1\n      swap2\n      sub\n      swap1\n      revert\n        /* \"Signs 2/SignsToken.sol\":9653:9715  if (newTreasury == address(0)) revert InvalidTreasuryAddress() */\n    tag_197:\n        /* \"Signs 2/SignsToken.sol\":9747:9758  newTreasury */\n      dup1\n        /* \"Signs 2/SignsToken.sol\":9726:9744  commissionTreasury */\n      0x0a\n      0x00\n        /* \"Signs 2/SignsToken.sol\":9726:9758  commissionTreasury = newTreasury */\n      0x0100\n      exp\n      dup2\n      sload\n      dup2\n      0xffffffffffffffffffffffffffffffffffffffff\n      mul\n      not\n      and\n      swap1\n      dup4\n      0xffffffffffffffffffffffffffffffffffffffff\n      and\n      mul\n      or\n      swap1\n      sstore\n      pop\n        /* \"Signs 2/SignsToken.sol\":9774:9812  CommissionTreasuryUpdated(newTreasury) */\n      0x4422c0c4b301436298cce7de4b586b1e044e671d0efbfeb88689161ebd95dd4f\n        /* \"Signs 2/SignsToken.sol\":9800:9811  newTreasury */\n      dup2\n        /* \"Signs 2/SignsToken.sol\":9774:9812  CommissionTreasuryUpdated(newTreasury) */\n      mload(0x40)\n      tag_198\n      swap2\n      swap1\n      tag_98\n      jump\t// in\n    tag_198:\n      mload(0x40)\n      dup1\n      swap2\n      sub\n      swap1\n      log1\n        /* \"Signs 2/SignsToken.sol\":9568:9820  function updateCommissionTreasury(address newTreasury) external onlyOwner {... */\n      pop\n      jump\t// out\n        /* \"Signs 2/SignsToken.sol\":670:702  uint256 public commissionPercent */\n    tag_91:\n      sload(0x09)\n      dup2\n      jump\t// out\n        /* \"Signs 2/SignsToken.sol\":8885:8948  function pause() external onlyOwner {... */\n    tag_94:\n        /* \"@openzeppelin/contracts/access/Ownable.sol\":1531:1544  _checkOwner() */\n      tag_200\n        /* \"@openzeppelin/contracts/access/Ownable.sol\":1531:1542  _checkOwner */\n      tag_161\n        /* \"@openzeppelin/contracts/access/Ownable.sol\":1531:1544  _checkOwner() */\n      jump\t// in\n    tag_200:\n        /* \"Signs 2/SignsToken.sol\":8932:8940  _pause() */\n      tag_202\n        /* \"Signs 2/SignsToken.sol\":8932:8938  _pause */\n      tag_203\n        /* \"Signs 2/SignsToken.sol\":8932:8940  _pause() */\n      jump\t// in\n    tag_202:\n        /* \"Signs 2/SignsToken.sol\":8885:8948  function pause() external onlyOwner {... */\n      jump\t// out\n        /* \"@openzeppelin/contracts/access/Ownable.sol\":1638:1723  function owner() public view virtual returns (address) {... */\n    tag_96:\n        /* \"@openzeppelin/contracts/access/Ownable.sol\":1684:1691  address */\n      0x00\n        /* \"@openzeppelin/contracts/access/Ownable.sol\":1710:1716  _owner */\n      0x05\n      0x01\n      swap1\n      sload\n      swap1\n      0x0100\n      exp\n      swap1\n      div\n      0xffffffffffffffffffffffffffffffffffffffff\n      and\n        /* \"@openzeppelin/contracts/access/Ownable.sol\":1703:1716  return _owner */\n      swap1\n      pop\n        /* \"@openzeppelin/contracts/access/Ownable.sol\":1638:1723  function owner() public view virtual returns (address) {... */\n      swap1\n      jump\t// out\n        /* \"@openzeppelin/contracts/token/ERC20/ERC20.sol\":1981:2074  function symbol() public view virtual returns (string memory) {... */\n    tag_100:\n        /* \"@openzeppelin/contracts/token/ERC20/ERC20.sol\":2028:2041  string memory */\n      0x60\n        /* \"@openzeppelin/contracts/token/ERC20/ERC20.sol\":2060:2067  _symbol */\n      0x04\n        /* \"@openzeppelin/contracts/token/ERC20/ERC20.sol\":2053:2067  return _symbol */\n      dup1\n      sload\n      tag_206\n      swap1\n      tag_139\n      jump\t// in\n    tag_206:\n      dup1\n      0x1f\n      add\n      0x20\n      dup1\n      swap2\n      div\n      mul\n      0x20\n      add\n      mload(0x40)\n      swap1\n      dup2\n      add\n      0x40\n      mstore\n      dup1\n      swap3\n      swap2\n      swap1\n      dup2\n      dup2\n      mstore\n      0x20\n      add\n      dup3\n      dup1\n      sload\n      tag_207\n      swap1\n      tag_139\n      jump\t// in\n    tag_207:\n      dup1\n      iszero\n      tag_208\n      jumpi\n      dup1\n      0x1f\n      lt\n      tag_209\n      jumpi\n      0x0100\n      dup1\n      dup4\n      sload\n      div\n      mul\n      dup4\n      mstore\n      swap2\n      0x20\n      add\n      swap2\n      jump(tag_208)\n    tag_209:\n      dup3\n      add\n      swap2\n      swap1\n      0x00\n      mstore\n      keccak256(0x00, 0x20)\n      swap1\n    tag_210:\n      dup2\n      sload\n      dup2\n      mstore\n      swap1\n      0x01\n      add\n      swap1\n      0x20\n      add\n      dup1\n      dup4\n      gt\n      tag_210\n      jumpi\n      dup3\n      swap1\n      sub\n      0x1f\n      and\n      dup3\n      add\n      swap2\n    tag_208:\n      pop\n      pop\n      pop\n      pop\n      pop\n      swap1\n      pop\n        /* \"@openzeppelin/contracts/token/ERC20/ERC20.sol\":1981:2074  function symbol() public view virtual returns (string memory) {... */\n      swap1\n      jump\t// out\n        /* \"Signs 2/SignsToken.sol\":9174:9441  function updateCommission(uint256 newCommissionPercent) external onlyOwner {... */\n    tag_105:\n        /* \"@openzeppelin/contracts/access/Ownable.sol\":1531:1544  _checkOwner() */\n      tag_212\n        /* \"@openzeppelin/contracts/access/Ownable.sol\":1531:1542  _checkOwner */\n      tag_161\n        /* \"@openzeppelin/contracts/access/Ownable.sol\":1531:1544  _checkOwner() */\n      jump\t// in\n    tag_212:\n        /* \"Signs 2/SignsToken.sol\":854:859  10000 */\n      0x2710\n        /* \"Signs 2/SignsToken.sol\":9264:9284  newCommissionPercent */\n      dup2\n        /* \"Signs 2/SignsToken.sol\":9264:9299  newCommissionPercent > BASIS_POINTS */\n      gt\n        /* \"Signs 2/SignsToken.sol\":9260:9327  if (newCommissionPercent > BASIS_POINTS) revert InvalidCommission() */\n      iszero\n      tag_214\n      jumpi\n        /* \"Signs 2/SignsToken.sol\":9308:9327  InvalidCommission() */\n      mload(0x40)\n      0xdc81db8500000000000000000000000000000000000000000000000000000000\n      dup2\n      mstore\n      0x04\n      add\n      mload(0x40)\n      dup1\n      swap2\n      sub\n      swap1\n      revert\n        /* \"Signs 2/SignsToken.sol\":9260:9327  if (newCommissionPercent > BASIS_POINTS) revert InvalidCommission() */\n    tag_214:\n        /* \"Signs 2/SignsToken.sol\":9358:9378  newCommissionPercent */\n      dup1\n        /* \"Signs 2/SignsToken.sol\":9338:9355  commissionPercent */\n      0x09\n        /* \"Signs 2/SignsToken.sol\":9338:9378  commissionPercent = newCommissionPercent */\n      dup2\n      swap1\n      sstore\n      pop\n        /* \"Signs 2/SignsToken.sol\":9394:9433  CommissionUpdated(newCommissionPercent) */\n      0x13f60dd2b588490608c3ff1932a3daeb4087f3d5af04b97e5c2a16b5b4c0302e\n        /* \"Signs 2/SignsToken.sol\":9412:9432  newCommissionPercent */\n      dup2\n        /* \"Signs 2/SignsToken.sol\":9394:9433  CommissionUpdated(newCommissionPercent) */\n      mload(0x40)\n      tag_215\n      swap2\n      swap1\n      tag_49\n      jump\t// in\n    tag_215:\n      mload(0x40)\n      dup1\n      swap2\n      sub\n      swap1\n      log1\n        /* \"Signs 2/SignsToken.sol\":9174:9441  function updateCommission(uint256 newCommissionPercent) external onlyOwner {... */\n      pop\n      jump\t// out\n        /* \"Signs 2/SignsToken.sol\":598:629  address public signsNFTContract */\n    tag_107:\n      0x08\n      0x00\n      swap1\n      sload\n      swap1\n      0x0100\n      exp\n      swap1\n      div\n      0xffffffffffffffffffffffffffffffffffffffff\n      and\n      dup2\n      jump\t// out\n        /* \"Signs 2/SignsToken.sol\":9889:10096  function transfer(address to, uint256 amount) ... */\n    tag_111:\n        /* \"Signs 2/SignsToken.sol\":10032:10036  bool */\n      0x00\n        /* \"@openzeppelin/contracts/security/Pausable.sol\":1239:1258  _requireNotPaused() */\n      tag_217\n        /* \"@openzeppelin/contracts/security/Pausable.sol\":1239:1256  _requireNotPaused */\n      tag_155\n        /* \"@openzeppelin/contracts/security/Pausable.sol\":1239:1258  _requireNotPaused() */\n      jump\t// in\n    tag_217:\n        /* \"Signs 2/SignsToken.sol\":10062:10088  super.transfer(to, amount) */\n      tag_219\n        /* \"Signs 2/SignsToken.sol\":10077:10079  to */\n      dup4\n        /* \"Signs 2/SignsToken.sol\":10081:10087  amount */\n      dup4\n        /* \"Signs 2/SignsToken.sol\":10062:10076  super.transfer */\n      tag_220\n        /* \"Signs 2/SignsToken.sol\":10062:10088  super.transfer(to, amount) */\n      jump\t// in\n    tag_219:\n        /* \"Signs 2/SignsToken.sol\":10055:10088  return super.transfer(to, amount) */\n      swap1\n      pop\n        /* \"Signs 2/SignsToken.sol\":9889:10096  function transfer(address to, uint256 amount) ... */\n      swap3\n      swap2\n      pop\n      pop\n      jump\t// out\n        /* \"Signs 2/SignsToken.sol\":3476:4226  function withdrawSignBalance(uint256 tokenId, uint256 amount) external nonReentrant whenNotPaused {... */\n    tag_115:\n        /* \"@openzeppelin/contracts/security/ReentrancyGuard.sol\":2261:2282  _nonReentrantBefore() */\n      tag_222\n        /* \"@openzeppelin/contracts/security/ReentrancyGuard.sol\":2261:2280  _nonReentrantBefore */\n      tag_174\n        /* \"@openzeppelin/contracts/security/ReentrancyGuard.sol\":2261:2282  _nonReentrantBefore() */\n      jump\t// in\n    tag_222:\n        /* \"@openzeppelin/contracts/security/Pausable.sol\":1239:1258  _requireNotPaused() */\n      tag_224\n        /* \"@openzeppelin/contracts/security/Pausable.sol\":1239:1256  _requireNotPaused */\n      tag_155\n        /* \"@openzeppelin/contracts/security/Pausable.sol\":1239:1258  _requireNotPaused() */\n      jump\t// in\n    tag_224:\n        /* \"Signs 2/SignsToken.sol\":3656:3689  _isSignOwner(msg.sender, tokenId) */\n      tag_226\n        /* \"Signs 2/SignsToken.sol\":3669:3679  msg.sender */\n      caller\n        /* \"Signs 2/SignsToken.sol\":3681:3688  tokenId */\n      dup4\n        /* \"Signs 2/SignsToken.sol\":3656:3668  _isSignOwner */\n      tag_227\n        /* \"Signs 2/SignsToken.sol\":3656:3689  _isSignOwner(msg.sender, tokenId) */\n      jump\t// in\n    tag_226:\n        /* \"Signs 2/SignsToken.sol\":3651:3717  if (!_isSignOwner(msg.sender, tokenId)) revert UnauthorizedOwner() */\n      tag_228\n      jumpi\n        /* \"Signs 2/SignsToken.sol\":3698:3717  UnauthorizedOwner() */\n      mload(0x40)\n      0xde271cf500000000000000000000000000000000000000000000000000000000\n      dup2\n      mstore\n      0x04\n      add\n      mload(0x40)\n      dup1\n      swap2\n      sub\n      swap1\n      revert\n        /* \"Signs 2/SignsToken.sol\":3651:3717  if (!_isSignOwner(msg.sender, tokenId)) revert UnauthorizedOwner() */\n    tag_228:\n        /* \"Signs 2/SignsToken.sol\":3752:3753  0 */\n      0x00\n        /* \"Signs 2/SignsToken.sol\":3742:3748  amount */\n      dup2\n        /* \"Signs 2/SignsToken.sol\":3742:3753  amount == 0 */\n      sub\n        /* \"Signs 2/SignsToken.sol\":3738:3777  if (amount == 0) revert InvalidAmount() */\n      tag_229\n      jumpi\n        /* \"Signs 2/SignsToken.sol\":3762:3777  InvalidAmount() */\n      mload(0x40)\n      0x2c5211c600000000000000000000000000000000000000000000000000000000\n      dup2\n      mstore\n      0x04\n      add\n      mload(0x40)\n      dup1\n      swap2\n      sub\n      swap1\n      revert\n        /* \"Signs 2/SignsToken.sol\":3738:3777  if (amount == 0) revert InvalidAmount() */\n    tag_229:\n        /* \"Signs 2/SignsToken.sol\":3816:3822  amount */\n      dup1\n        /* \"Signs 2/SignsToken.sol\":3792:3804  signBalances */\n      0x0b\n        /* \"Signs 2/SignsToken.sol\":3792:3813  signBalances[tokenId] */\n      0x00\n        /* \"Signs 2/SignsToken.sol\":3805:3812  tokenId */\n      dup5\n        /* \"Signs 2/SignsToken.sol\":3792:3813  signBalances[tokenId] */\n      dup2\n      mstore\n      0x20\n      add\n      swap1\n      dup2\n      mstore\n      0x20\n      add\n      0x00\n      keccak256\n      sload\n        /* \"Signs 2/SignsToken.sol\":3792:3822  signBalances[tokenId] < amount */\n      lt\n        /* \"Signs 2/SignsToken.sol\":3788:3856  if (signBalances[tokenId] < amount) revert InsufficientSignBalance() */\n      iszero\n      tag_230\n      jumpi\n        /* \"Signs 2/SignsToken.sol\":3831:3856  InsufficientSignBalance() */\n      mload(0x40)\n      0xa77130ef00000000000000000000000000000000000000000000000000000000\n      dup2\n      mstore\n      0x04\n      add\n      mload(0x40)\n      dup1\n      swap2\n      sub\n      swap1\n      revert\n        /* \"Signs 2/SignsToken.sol\":3788:3856  if (signBalances[tokenId] < amount) revert InsufficientSignBalance() */\n    tag_230:\n        /* \"Signs 2/SignsToken.sol\":3945:3951  amount */\n      dup1\n        /* \"Signs 2/SignsToken.sol\":3920:3932  signBalances */\n      0x0b\n        /* \"Signs 2/SignsToken.sol\":3920:3941  signBalances[tokenId] */\n      0x00\n        /* \"Signs 2/SignsToken.sol\":3933:3940  tokenId */\n      dup5\n        /* \"Signs 2/SignsToken.sol\":3920:3941  signBalances[tokenId] */\n      dup2\n      mstore\n      0x20\n      add\n      swap1\n      dup2\n      mstore\n      0x20\n      add\n      0x00\n      keccak256\n      0x00\n        /* \"Signs 2/SignsToken.sol\":3920:3951  signBalances[tokenId] -= amount */\n      dup3\n      dup3\n      sload\n      tag_231\n      swap2\n      swap1\n      tag_232\n      jump\t// in\n    tag_231:\n      swap3\n      pop\n      pop\n      dup2\n      swap1\n      sstore\n      pop\n        /* \"Signs 2/SignsToken.sol\":4032:4044  bool success */\n      0x00\n        /* \"Signs 2/SignsToken.sol\":4047:4097  transferFrom(signsNFTContract, msg.sender, amount) */\n      tag_233\n        /* \"Signs 2/SignsToken.sol\":4060:4076  signsNFTContract */\n      0x08\n      0x00\n      swap1\n      sload\n      swap1\n      0x0100\n      exp\n      swap1\n      div\n      0xffffffffffffffffffffffffffffffffffffffff\n      and\n        /* \"Signs 2/SignsToken.sol\":4078:4088  msg.sender */\n      caller\n        /* \"Signs 2/SignsToken.sol\":4090:4096  amount */\n      dup5\n        /* \"Signs 2/SignsToken.sol\":4047:4059  transferFrom */\n      tag_59\n        /* \"Signs 2/SignsToken.sol\":4047:4097  transferFrom(signsNFTContract, msg.sender, amount) */\n      jump\t// in\n    tag_233:\n        /* \"Signs 2/SignsToken.sol\":4032:4097  bool success = transferFrom(signsNFTContract, msg.sender, amount) */\n      swap1\n      pop\n        /* \"Signs 2/SignsToken.sol\":4116:4123  success */\n      dup1\n        /* \"Signs 2/SignsToken.sol\":4108:4143  require(success, \"Transfer failed\") */\n      tag_234\n      jumpi\n      mload(0x40)\n      0x08c379a000000000000000000000000000000000000000000000000000000000\n      dup2\n      mstore\n      0x04\n      add\n      tag_235\n      swap1\n      tag_236\n      jump\t// in\n    tag_235:\n      mload(0x40)\n      dup1\n      swap2\n      sub\n      swap1\n      revert\n    tag_234:\n        /* \"Signs 2/SignsToken.sol\":4199:4209  msg.sender */\n      caller\n        /* \"Signs 2/SignsToken.sol\":4169:4218  SignBalanceWithdrawn(tokenId, msg.sender, amount) */\n      0xffffffffffffffffffffffffffffffffffffffff\n      and\n        /* \"Signs 2/SignsToken.sol\":4190:4197  tokenId */\n      dup4\n        /* \"Signs 2/SignsToken.sol\":4169:4218  SignBalanceWithdrawn(tokenId, msg.sender, amount) */\n      0x4e073dd16eec477fbb059bda1f0796f0d06eebc4c53568e3e77a4084228fd4eb\n        /* \"Signs 2/SignsToken.sol\":4211:4217  amount */\n      dup5\n        /* \"Signs 2/SignsToken.sol\":4169:4218  SignBalanceWithdrawn(tokenId, msg.sender, amount) */\n      mload(0x40)\n      tag_237\n      swap2\n      swap1\n      tag_49\n      jump\t// in\n    tag_237:\n      mload(0x40)\n      dup1\n      swap2\n      sub\n      swap1\n      log3\n        /* \"Signs 2/SignsToken.sol\":3574:4226  {... */\n      pop\n        /* \"@openzeppelin/contracts/security/ReentrancyGuard.sol\":2303:2323  _nonReentrantAfter() */\n      tag_238\n        /* \"@openzeppelin/contracts/security/ReentrancyGuard.sol\":2303:2321  _nonReentrantAfter */\n      tag_187\n        /* \"@openzeppelin/contracts/security/ReentrancyGuard.sol\":2303:2323  _nonReentrantAfter() */\n      jump\t// in\n    tag_238:\n        /* \"Signs 2/SignsToken.sol\":3476:4226  function withdrawSignBalance(uint256 tokenId, uint256 amount) external nonReentrant whenNotPaused {... */\n      pop\n      pop\n      jump\t// out\n        /* \"Signs 2/SignsToken.sol\":910:957  mapping(uint256 => uint256) public signBalances */\n    tag_118:\n      mstore(0x20, 0x0b)\n      dup1\n      0x00\n      mstore\n      keccak256(0x00, 0x40)\n      0x00\n      swap2\n      pop\n      swap1\n      pop\n      sload\n      dup2\n      jump\t// out\n        /* \"@openzeppelin/contracts/token/ERC20/ERC20.sol\":3551:3691  function allowance(address owner, address spender) public view virtual returns (uint256) {... */\n    tag_123:\n        /* \"@openzeppelin/contracts/token/ERC20/ERC20.sol\":3631:3638  uint256 */\n      0x00\n        /* \"@openzeppelin/contracts/token/ERC20/ERC20.sol\":3657:3668  _allowances */\n      0x01\n        /* \"@openzeppelin/contracts/token/ERC20/ERC20.sol\":3657:3675  _allowances[owner] */\n      0x00\n        /* \"@openzeppelin/contracts/token/ERC20/ERC20.sol\":3669:3674  owner */\n      dup5\n        /* \"@openzeppelin/contracts/token/ERC20/ERC20.sol\":3657:3675  _allowances[owner] */\n      0xffffffffffffffffffffffffffffffffffffffff\n      and\n      0xffffffffffffffffffffffffffffffffffffffff\n      and\n      dup2\n      mstore\n      0x20\n      add\n      swap1\n      dup2\n      mstore\n      0x20\n      add\n      0x00\n      keccak256\n        /* \"@openzeppelin/contracts/token/ERC20/ERC20.sol\":3657:3684  _allowances[owner][spender] */\n      0x00\n        /* \"@openzeppelin/contracts/token/ERC20/ERC20.sol\":3676:3683  spender */\n      dup4\n        /* \"@openzeppelin/contracts/token/ERC20/ERC20.sol\":3657:3684  _allowances[owner][spender] */\n      0xffffffffffffffffffffffffffffffffffffffff\n      and\n      0xffffffffffffffffffffffffffffffffffffffff\n      and\n      dup2\n      mstore\n      0x20\n      add\n      swap1\n      dup2\n      mstore\n      0x20\n      add\n      0x00\n      keccak256\n      sload\n        /* \"@openzeppelin/contracts/token/ERC20/ERC20.sol\":3650:3684  return _allowances[owner][spender] */\n      swap1\n      pop\n        /* \"@openzeppelin/contracts/token/ERC20/ERC20.sol\":3551:3691  function allowance(address owner, address spender) public view virtual returns (uint256) {... */\n      swap3\n      swap2\n      pop\n      pop\n      jump\t// out\n        /* \"Signs 2/SignsToken.sol\":750:783  address public commissionTreasury */\n    tag_126:\n      0x0a\n      0x00\n      swap1\n      sload\n      swap1\n      0x0100\n      exp\n      swap1\n      div\n      0xffffffffffffffffffffffffffffffffffffffff\n      and\n      dup2\n      jump\t// out\n        /* \"Signs 2/SignsToken.sol\":5242:7995  function payWage(... */\n    tag_131:\n        /* \"Signs 2/SignsToken.sol\":5401:5425  WagePaymentResult memory */\n      tag_240\n      tag_241\n      jump\t// in\n    tag_240:\n        /* \"Signs 2/SignsToken.sol\":2453:2469  signsNFTContract */\n      0x08\n      0x00\n      swap1\n      sload\n      swap1\n      0x0100\n      exp\n      swap1\n      div\n      0xffffffffffffffffffffffffffffffffffffffff\n      and\n        /* \"Signs 2/SignsToken.sol\":2439:2469  msg.sender != signsNFTContract */\n      0xffffffffffffffffffffffffffffffffffffffff\n      and\n        /* \"Signs 2/SignsToken.sol\":2439:2449  msg.sender */\n      caller\n        /* \"Signs 2/SignsToken.sol\":2439:2469  msg.sender != signsNFTContract */\n      0xffffffffffffffffffffffffffffffffffffffff\n      and\n      eq\n        /* \"Signs 2/SignsToken.sol\":2435:2498  if (msg.sender != signsNFTContract) revert UnauthorizedCaller() */\n      tag_243\n      jumpi\n        /* \"Signs 2/SignsToken.sol\":2478:2498  UnauthorizedCaller() */\n      mload(0x40)\n      0x5c427cd900000000000000000000000000000000000000000000000000000000\n      dup2\n      mstore\n      0x04\n      add\n      mload(0x40)\n      dup1\n      swap2\n      sub\n      swap1\n      revert\n        /* \"Signs 2/SignsToken.sol\":2435:2498  if (msg.sender != signsNFTContract) revert UnauthorizedCaller() */\n    tag_243:\n        /* \"@openzeppelin/contracts/security/ReentrancyGuard.sol\":2261:2282  _nonReentrantBefore() */\n      tag_245\n        /* \"@openzeppelin/contracts/security/ReentrancyGuard.sol\":2261:2280  _nonReentrantBefore */\n      tag_174\n        /* \"@openzeppelin/contracts/security/ReentrancyGuard.sol\":2261:2282  _nonReentrantBefore() */\n      jump\t// in\n    tag_245:\n        /* \"@openzeppelin/contracts/security/Pausable.sol\":1239:1258  _requireNotPaused() */\n      tag_247\n        /* \"@openzeppelin/contracts/security/Pausable.sol\":1239:1256  _requireNotPaused */\n      tag_155\n        /* \"@openzeppelin/contracts/security/Pausable.sol\":1239:1258  _requireNotPaused() */\n      jump\t// in\n    tag_247:\n        /* \"Signs 2/SignsToken.sol\":5452:5453  0 */\n      0x00\n        /* \"Signs 2/SignsToken.sol\":5442:5448  amount */\n      dup3\n        /* \"Signs 2/SignsToken.sol\":5442:5453  amount == 0 */\n      sub\n        /* \"Signs 2/SignsToken.sol\":5438:5477  if (amount == 0) revert InvalidAmount() */\n      tag_249\n      jumpi\n        /* \"Signs 2/SignsToken.sol\":5462:5477  InvalidAmount() */\n      mload(0x40)\n      0x2c5211c600000000000000000000000000000000000000000000000000000000\n      dup2\n      mstore\n      0x04\n      add\n      mload(0x40)\n      dup1\n      swap2\n      sub\n      swap1\n      revert\n        /* \"Signs 2/SignsToken.sol\":5438:5477  if (amount == 0) revert InvalidAmount() */\n    tag_249:\n        /* \"Signs 2/SignsToken.sol\":5498:5520  uint256 currentBalance */\n      0x00\n        /* \"Signs 2/SignsToken.sol\":5523:5535  signBalances */\n      0x0b\n        /* \"Signs 2/SignsToken.sol\":5523:5544  signBalances[tokenId] */\n      0x00\n        /* \"Signs 2/SignsToken.sol\":5536:5543  tokenId */\n      dup7\n        /* \"Signs 2/SignsToken.sol\":5523:5544  signBalances[tokenId] */\n      dup2\n      mstore\n      0x20\n      add\n      swap1\n      dup2\n      mstore\n      0x20\n      add\n      0x00\n      keccak256\n      sload\n        /* \"Signs 2/SignsToken.sol\":5498:5544  uint256 currentBalance = signBalances[tokenId] */\n      swap1\n      pop\n        /* \"Signs 2/SignsToken.sol\":5555:5573  bool isFullPayment */\n      0x00\n        /* \"Signs 2/SignsToken.sol\":5594:5600  amount */\n      dup4\n        /* \"Signs 2/SignsToken.sol\":5576:5590  currentBalance */\n      dup3\n        /* \"Signs 2/SignsToken.sol\":5576:5600  currentBalance >= amount */\n      lt\n      iszero\n        /* \"Signs 2/SignsToken.sol\":5555:5600  bool isFullPayment = currentBalance >= amount */\n      swap1\n      pop\n        /* \"Signs 2/SignsToken.sol\":5611:5632  uint256 paymentAmount */\n      0x00\n        /* \"Signs 2/SignsToken.sol\":5643:5667  uint256 commissionAmount */\n      dup1\n        /* \"Signs 2/SignsToken.sol\":5820:5833  isFullPayment */\n      dup3\n        /* \"Signs 2/SignsToken.sol\":5816:7791  if (isFullPayment) {... */\n      iszero\n      tag_250\n      jumpi\n        /* \"Signs 2/SignsToken.sol\":854:859  10000 */\n      0x2710\n        /* \"Signs 2/SignsToken.sol\":5916:5933  commissionPercent */\n      sload(0x09)\n        /* \"Signs 2/SignsToken.sol\":5907:5913  amount */\n      dup8\n        /* \"Signs 2/SignsToken.sol\":5907:5933  amount * commissionPercent */\n      tag_251\n      swap2\n      swap1\n      tag_252\n      jump\t// in\n    tag_251:\n        /* \"Signs 2/SignsToken.sol\":5906:5949  (amount * commissionPercent) / BASIS_POINTS */\n      tag_253\n      swap2\n      swap1\n      tag_254\n      jump\t// in\n    tag_253:\n        /* \"Signs 2/SignsToken.sol\":5887:5949  commissionAmount = (amount * commissionPercent) / BASIS_POINTS */\n      swap1\n      pop\n        /* \"Signs 2/SignsToken.sol\":5989:6005  commissionAmount */\n      dup1\n        /* \"Signs 2/SignsToken.sol\":5980:5986  amount */\n      dup7\n        /* \"Signs 2/SignsToken.sol\":5980:6005  amount - commissionAmount */\n      tag_255\n      swap2\n      swap1\n      tag_232\n      jump\t// in\n    tag_255:\n        /* \"Signs 2/SignsToken.sol\":5964:6005  paymentAmount = amount - commissionAmount */\n      swap2\n      pop\n        /* \"Signs 2/SignsToken.sol\":6123:6129  amount */\n      dup6\n        /* \"Signs 2/SignsToken.sol\":6106:6120  currentBalance */\n      dup5\n        /* \"Signs 2/SignsToken.sol\":6106:6129  currentBalance - amount */\n      tag_256\n      swap2\n      swap1\n      tag_232\n      jump\t// in\n    tag_256:\n        /* \"Signs 2/SignsToken.sol\":6082:6094  signBalances */\n      0x0b\n        /* \"Signs 2/SignsToken.sol\":6082:6103  signBalances[tokenId] */\n      0x00\n        /* \"Signs 2/SignsToken.sol\":6095:6102  tokenId */\n      dup11\n        /* \"Signs 2/SignsToken.sol\":6082:6103  signBalances[tokenId] */\n      dup2\n      mstore\n      0x20\n      add\n      swap1\n      dup2\n      mstore\n      0x20\n      add\n      0x00\n      keccak256\n        /* \"Signs 2/SignsToken.sol\":6082:6129  signBalances[tokenId] = currentBalance - amount */\n      dup2\n      swap1\n      sstore\n      pop\n        /* \"Signs 2/SignsToken.sol\":6240:6241  0 */\n      0x00\n        /* \"Signs 2/SignsToken.sol\":6221:6237  commissionAmount */\n      dup2\n        /* \"Signs 2/SignsToken.sol\":6221:6241  commissionAmount > 0 */\n      gt\n        /* \"Signs 2/SignsToken.sol\":6217:6603  if (commissionAmount > 0) {... */\n      iszero\n      tag_257\n      jumpi\n        /* \"Signs 2/SignsToken.sol\":6376:6398  bool commissionSuccess */\n      0x00\n        /* \"Signs 2/SignsToken.sol\":6401:6447  transfer(commissionTreasury, commissionAmount) */\n      tag_258\n        /* \"Signs 2/SignsToken.sol\":6410:6428  commissionTreasury */\n      0x0a\n      0x00\n      swap1\n      sload\n      swap1\n      0x0100\n      exp\n      swap1\n      div\n      0xffffffffffffffffffffffffffffffffffffffff\n      and\n        /* \"Signs 2/SignsToken.sol\":6430:6446  commissionAmount */\n      dup4\n        /* \"Signs 2/SignsToken.sol\":6401:6409  transfer */\n      tag_111\n        /* \"Signs 2/SignsToken.sol\":6401:6447  transfer(commissionTreasury, commissionAmount) */\n      jump\t// in\n    tag_258:\n        /* \"Signs 2/SignsToken.sol\":6376:6447  bool commissionSuccess = transfer(commissionTreasury, commissionAmount) */\n      swap1\n      pop\n        /* \"Signs 2/SignsToken.sol\":6474:6491  commissionSuccess */\n      dup1\n        /* \"Signs 2/SignsToken.sol\":6466:6522  require(commissionSuccess, \"Commission transfer failed\") */\n      tag_259\n      jumpi\n      mload(0x40)\n      0x08c379a000000000000000000000000000000000000000000000000000000000\n      dup2\n      mstore\n      0x04\n      add\n      tag_260\n      swap1\n      tag_261\n      jump\t// in\n    tag_260:\n      mload(0x40)\n      dup1\n      swap2\n      sub\n      swap1\n      revert\n    tag_259:\n        /* \"Signs 2/SignsToken.sol\":6561:6568  tokenId */\n      dup9\n        /* \"Signs 2/SignsToken.sol\":6546:6587  CommissionPaid(tokenId, commissionAmount) */\n      0xacfa15ebe340982fef95d43aafc25d741382d7928a00055a209274fa615d5277\n        /* \"Signs 2/SignsToken.sol\":6570:6586  commissionAmount */\n      dup4\n        /* \"Signs 2/SignsToken.sol\":6546:6587  CommissionPaid(tokenId, commissionAmount) */\n      mload(0x40)\n      tag_262\n      swap2\n      swap1\n      tag_49\n      jump\t// in\n    tag_262:\n      mload(0x40)\n      dup1\n      swap2\n      sub\n      swap1\n      log2\n        /* \"Signs 2/SignsToken.sol\":6243:6603  {... */\n      pop\n        /* \"Signs 2/SignsToken.sol\":6217:6603  if (commissionAmount > 0) {... */\n    tag_257:\n        /* \"Signs 2/SignsToken.sol\":6781:6793  bool success */\n      0x00\n        /* \"Signs 2/SignsToken.sol\":6796:6828  transfer(carrier, paymentAmount) */\n      tag_263\n        /* \"Signs 2/SignsToken.sol\":6805:6812  carrier */\n      dup9\n        /* \"Signs 2/SignsToken.sol\":6814:6827  paymentAmount */\n      dup5\n        /* \"Signs 2/SignsToken.sol\":6796:6804  transfer */\n      tag_111\n        /* \"Signs 2/SignsToken.sol\":6796:6828  transfer(carrier, paymentAmount) */\n      jump\t// in\n    tag_263:\n        /* \"Signs 2/SignsToken.sol\":6781:6828  bool success = transfer(carrier, paymentAmount) */\n      swap1\n      pop\n        /* \"Signs 2/SignsToken.sol\":6851:6858  success */\n      dup1\n        /* \"Signs 2/SignsToken.sol\":6843:6883  require(success, \"Wage transfer failed\") */\n      tag_264\n      jumpi\n      mload(0x40)\n      0x08c379a000000000000000000000000000000000000000000000000000000000\n      dup2\n      mstore\n      0x04\n      add\n      tag_265\n      swap1\n      tag_266\n      jump\t// in\n    tag_265:\n      mload(0x40)\n      dup1\n      swap2\n      sub\n      swap1\n      revert\n    tag_264:\n        /* \"Signs 2/SignsToken.sol\":6935:6942  carrier */\n      dup8\n        /* \"Signs 2/SignsToken.sol\":6917:6958  WagePaid(tokenId, carrier, paymentAmount) */\n      0xffffffffffffffffffffffffffffffffffffffff\n      and\n        /* \"Signs 2/SignsToken.sol\":6926:6933  tokenId */\n      dup10\n        /* \"Signs 2/SignsToken.sol\":6917:6958  WagePaid(tokenId, carrier, paymentAmount) */\n      0x4c3044279daea82275bc16a26600fe0c196cb65422b138c02dc86fb861b174ca\n        /* \"Signs 2/SignsToken.sol\":6944:6957  paymentAmount */\n      dup6\n        /* \"Signs 2/SignsToken.sol\":6917:6958  WagePaid(tokenId, carrier, paymentAmount) */\n      mload(0x40)\n      tag_267\n      swap2\n      swap1\n      tag_49\n      jump\t// in\n    tag_267:\n      mload(0x40)\n      dup1\n      swap2\n      sub\n      swap1\n      log3\n        /* \"Signs 2/SignsToken.sol\":5835:6970  {... */\n      pop\n        /* \"Signs 2/SignsToken.sol\":5816:7791  if (isFullPayment) {... */\n      jump(tag_268)\n    tag_250:\n        /* \"Signs 2/SignsToken.sol\":7059:7073  currentBalance */\n      dup4\n        /* \"Signs 2/SignsToken.sol\":7043:7073  paymentAmount = currentBalance */\n      swap2\n      pop\n        /* \"Signs 2/SignsToken.sol\":7107:7108  0 */\n      0x00\n        /* \"Signs 2/SignsToken.sol\":7088:7108  commissionAmount = 0 */\n      swap1\n      pop\n        /* \"Signs 2/SignsToken.sol\":7208:7209  0 */\n      0x00\n        /* \"Signs 2/SignsToken.sol\":7184:7196  signBalances */\n      0x0b\n        /* \"Signs 2/SignsToken.sol\":7184:7205  signBalances[tokenId] */\n      0x00\n        /* \"Signs 2/SignsToken.sol\":7197:7204  tokenId */\n      dup11\n        /* \"Signs 2/SignsToken.sol\":7184:7205  signBalances[tokenId] */\n      dup2\n      mstore\n      0x20\n      add\n      swap1\n      dup2\n      mstore\n      0x20\n      add\n      0x00\n      keccak256\n        /* \"Signs 2/SignsToken.sol\":7184:7209  signBalances[tokenId] = 0 */\n      dup2\n      swap1\n      sstore\n      pop\n        /* \"Signs 2/SignsToken.sol\":7258:7259  0 */\n      0x00\n        /* \"Signs 2/SignsToken.sol\":7242:7255  paymentAmount */\n      dup3\n        /* \"Signs 2/SignsToken.sol\":7242:7259  paymentAmount > 0 */\n      gt\n        /* \"Signs 2/SignsToken.sol\":7238:7699  if (paymentAmount > 0) {... */\n      iszero\n      tag_269\n      jumpi\n        /* \"Signs 2/SignsToken.sol\":7455:7467  bool success */\n      0x00\n        /* \"Signs 2/SignsToken.sol\":7470:7502  transfer(carrier, paymentAmount) */\n      tag_270\n        /* \"Signs 2/SignsToken.sol\":7479:7486  carrier */\n      dup9\n        /* \"Signs 2/SignsToken.sol\":7488:7501  paymentAmount */\n      dup5\n        /* \"Signs 2/SignsToken.sol\":7470:7478  transfer */\n      tag_111\n        /* \"Signs 2/SignsToken.sol\":7470:7502  transfer(carrier, paymentAmount) */\n      jump\t// in\n    tag_270:\n        /* \"Signs 2/SignsToken.sol\":7455:7502  bool success = transfer(carrier, paymentAmount) */\n      swap1\n      pop\n        /* \"Signs 2/SignsToken.sol\":7529:7536  success */\n      dup1\n        /* \"Signs 2/SignsToken.sol\":7521:7569  require(success, \"Partial wage transfer failed\") */\n      tag_271\n      jumpi\n      mload(0x40)\n      0x08c379a000000000000000000000000000000000000000000000000000000000\n      dup2\n      mstore\n      0x04\n      add\n      tag_272\n      swap1\n      tag_273\n      jump\t// in\n    tag_272:\n      mload(0x40)\n      dup1\n      swap2\n      sub\n      swap1\n      revert\n    tag_271:\n        /* \"Signs 2/SignsToken.sol\":7636:7643  carrier */\n      dup8\n        /* \"Signs 2/SignsToken.sol\":7611:7683  PartialWagePaid(tokenId, carrier, paymentAmount, amount - paymentAmount) */\n      0xffffffffffffffffffffffffffffffffffffffff\n      and\n        /* \"Signs 2/SignsToken.sol\":7627:7634  tokenId */\n      dup10\n        /* \"Signs 2/SignsToken.sol\":7611:7683  PartialWagePaid(tokenId, carrier, paymentAmount, amount - paymentAmount) */\n      0x5d16c483bee69284681447fe545192acc0f537a2cd7c2cd35593a1edb5243290\n        /* \"Signs 2/SignsToken.sol\":7645:7658  paymentAmount */\n      dup6\n        /* \"Signs 2/SignsToken.sol\":7669:7682  paymentAmount */\n      dup7\n        /* \"Signs 2/SignsToken.sol\":7660:7666  amount */\n      dup12\n        /* \"Signs 2/SignsToken.sol\":7660:7682  amount - paymentAmount */\n      tag_274\n      swap2\n      swap1\n      tag_232\n      jump\t// in\n    tag_274:\n        /* \"Signs 2/SignsToken.sol\":7611:7683  PartialWagePaid(tokenId, carrier, paymentAmount, amount - paymentAmount) */\n      mload(0x40)\n      tag_275\n      swap3\n      swap2\n      swap1\n      tag_55\n      jump\t// in\n    tag_275:\n      mload(0x40)\n      dup1\n      swap2\n      sub\n      swap1\n      log3\n        /* \"Signs 2/SignsToken.sol\":7261:7699  {... */\n      pop\n        /* \"Signs 2/SignsToken.sol\":7238:7699  if (paymentAmount > 0) {... */\n    tag_269:\n        /* \"Signs 2/SignsToken.sol\":7747:7754  tokenId */\n      dup8\n        /* \"Signs 2/SignsToken.sol\":7732:7779  LowSignBalance(tokenId, currentBalance, amount) */\n      0x574264649c9d702f91c09e683982319da6546e5cfee0a4898a3bd6bf1c63042f\n        /* \"Signs 2/SignsToken.sol\":7756:7770  currentBalance */\n      dup6\n        /* \"Signs 2/SignsToken.sol\":7772:7778  amount */\n      dup9\n        /* \"Signs 2/SignsToken.sol\":7732:7779  LowSignBalance(tokenId, currentBalance, amount) */\n      mload(0x40)\n      tag_276\n      swap3\n      swap2\n      swap1\n      tag_55\n      jump\t// in\n    tag_276:\n      mload(0x40)\n      dup1\n      swap2\n      sub\n      swap1\n      log2\n        /* \"Signs 2/SignsToken.sol\":5816:7791  if (isFullPayment) {... */\n    tag_268:\n        /* \"Signs 2/SignsToken.sol\":7818:7987  WagePaymentResult({... */\n      mload(0x40)\n      dup1\n      0x60\n      add\n      0x40\n      mstore\n      dup1\n        /* \"Signs 2/SignsToken.sol\":7863:7876  paymentAmount */\n      dup4\n        /* \"Signs 2/SignsToken.sol\":7818:7987  WagePaymentResult({... */\n      dup2\n      mstore\n      0x20\n      add\n        /* \"Signs 2/SignsToken.sol\":7915:7928  paymentAmount */\n      dup4\n        /* \"Signs 2/SignsToken.sol\":7906:7912  amount */\n      dup9\n        /* \"Signs 2/SignsToken.sol\":7906:7928  amount - paymentAmount */\n      tag_277\n      swap2\n      swap1\n      tag_232\n      jump\t// in\n    tag_277:\n        /* \"Signs 2/SignsToken.sol\":7818:7987  WagePaymentResult({... */\n      dup2\n      mstore\n      0x20\n      add\n        /* \"Signs 2/SignsToken.sol\":7962:7975  isFullPayment */\n      dup5\n        /* \"Signs 2/SignsToken.sol\":7961:7975  !isFullPayment */\n      iszero\n        /* \"Signs 2/SignsToken.sol\":7818:7987  WagePaymentResult({... */\n      iszero\n      iszero\n      dup2\n      mstore\n      pop\n        /* \"Signs 2/SignsToken.sol\":7811:7987  return WagePaymentResult({... */\n      swap5\n      pop\n      pop\n      pop\n      pop\n      pop\n        /* \"@openzeppelin/contracts/security/ReentrancyGuard.sol\":2303:2323  _nonReentrantAfter() */\n      tag_278\n        /* \"@openzeppelin/contracts/security/ReentrancyGuard.sol\":2303:2321  _nonReentrantAfter */\n      tag_187\n        /* \"@openzeppelin/contracts/security/ReentrancyGuard.sol\":2303:2323  _nonReentrantAfter() */\n      jump\t// in\n    tag_278:\n        /* \"Signs 2/SignsToken.sol\":5242:7995  function payWage(... */\n      swap4\n      swap3\n      pop\n      pop\n      pop\n      jump\t// out\n        /* \"@openzeppelin/contracts/access/Ownable.sol\":2543:2758  function transferOwnership(address newOwner) public virtual onlyOwner {... */\n    tag_136:\n        /* \"@openzeppelin/contracts/access/Ownable.sol\":1531:1544  _checkOwner() */\n      tag_280\n        /* \"@openzeppelin/contracts/access/Ownable.sol\":1531:1542  _checkOwner */\n      tag_161\n        /* \"@openzeppelin/contracts/access/Ownable.sol\":1531:1544  _checkOwner() */\n      jump\t// in\n    tag_280:\n        /* \"@openzeppelin/contracts/access/Ownable.sol\":2647:2648  0 */\n      0x00\n        /* \"@openzeppelin/contracts/access/Ownable.sol\":2627:2649  newOwner == address(0) */\n      0xffffffffffffffffffffffffffffffffffffffff\n      and\n        /* \"@openzeppelin/contracts/access/Ownable.sol\":2627:2635  newOwner */\n      dup2\n        /* \"@openzeppelin/contracts/access/Ownable.sol\":2627:2649  newOwner == address(0) */\n      0xffffffffffffffffffffffffffffffffffffffff\n      and\n      sub\n        /* \"@openzeppelin/contracts/access/Ownable.sol\":2623:2714  if (newOwner == address(0)) {... */\n      tag_282\n      jumpi\n        /* \"@openzeppelin/contracts/access/Ownable.sol\":2700:2701  0 */\n      0x00\n        /* \"@openzeppelin/contracts/access/Ownable.sol\":2672:2703  OwnableInvalidOwner(address(0)) */\n      mload(0x40)\n      0x1e4fbdf700000000000000000000000000000000000000000000000000000000\n      dup2\n      mstore\n      0x04\n      add\n      tag_283\n      swap2\n      swap1\n      tag_98\n      jump\t// in\n    tag_283:\n      mload(0x40)\n      dup1\n      swap2\n      sub\n      swap1\n      revert\n        /* \"@openzeppelin/contracts/access/Ownable.sol\":2623:2714  if (newOwner == address(0)) {... */\n    tag_282:\n        /* \"@openzeppelin/contracts/access/Ownable.sol\":2723:2751  _transferOwnership(newOwner) */\n      tag_284\n        /* \"@openzeppelin/contracts/access/Ownable.sol\":2742:2750  newOwner */\n      dup2\n        /* \"@openzeppelin/contracts/access/Ownable.sol\":2723:2741  _transferOwnership */\n      tag_193\n        /* \"@openzeppelin/contracts/access/Ownable.sol\":2723:2751  _transferOwnership(newOwner) */\n      jump\t// in\n    tag_284:\n        /* \"@openzeppelin/contracts/access/Ownable.sol\":2543:2758  function transferOwnership(address newOwner) public virtual onlyOwner {... */\n      pop\n      jump\t// out\n        /* \"@openzeppelin/contracts/utils/Context.sol\":656:752  function _msgSender() internal view virtual returns (address) {... */\n    tag_146:\n        /* \"@openzeppelin/contracts/utils/Context.sol\":709:716  address */\n      0x00\n        /* \"@openzeppelin/contracts/utils/Context.sol\":735:745  msg.sender */\n      caller\n        /* \"@openzeppelin/contracts/utils/Context.sol\":728:745  return msg.sender */\n      swap1\n      pop\n        /* \"@openzeppelin/contracts/utils/Context.sol\":656:752  function _msgSender() internal view virtual returns (address) {... */\n      swap1\n      jump\t// out\n        /* \"@openzeppelin/contracts/token/ERC20/ERC20.sol\":8726:8854  function _approve(address owner, address spender, uint256 value) internal {... */\n    tag_148:\n        /* \"@openzeppelin/contracts/token/ERC20/ERC20.sol\":8810:8847  _approve(owner, spender, value, true) */\n      tag_287\n        /* \"@openzeppelin/contracts/token/ERC20/ERC20.sol\":8819:8824  owner */\n      dup4\n        /* \"@openzeppelin/contracts/token/ERC20/ERC20.sol\":8826:8833  spender */\n      dup4\n        /* \"@openzeppelin/contracts/token/ERC20/ERC20.sol\":8835:8840  value */\n      dup4\n        /* \"@openzeppelin/contracts/token/ERC20/ERC20.sol\":8842:8846  true */\n      0x01\n        /* \"@openzeppelin/contracts/token/ERC20/ERC20.sol\":8810:8818  _approve */\n      tag_288\n        /* \"@openzeppelin/contracts/token/ERC20/ERC20.sol\":8810:8847  _approve(owner, spender, value, true) */\n      jump\t// in\n    tag_287:\n        /* \"@openzeppelin/contracts/token/ERC20/ERC20.sol\":8726:8854  function _approve(address owner, address spender, uint256 value) internal {... */\n      pop\n      pop\n      pop\n      jump\t// out\n        /* \"@openzeppelin/contracts/security/Pausable.sol\":1767:1873  function _requireNotPaused() internal view virtual {... */\n    tag_155:\n        /* \"@openzeppelin/contracts/security/Pausable.sol\":1837:1845  paused() */\n      tag_290\n        /* \"@openzeppelin/contracts/security/Pausable.sol\":1837:1843  paused */\n      tag_75\n        /* \"@openzeppelin/contracts/security/Pausable.sol\":1837:1845  paused() */\n      jump\t// in\n    tag_290:\n        /* \"@openzeppelin/contracts/security/Pausable.sol\":1836:1845  !paused() */\n      iszero\n        /* \"@openzeppelin/contracts/security/Pausable.sol\":1828:1866  require(!paused(), \"Pausable: paused\") */\n      tag_291\n      jumpi\n      mload(0x40)\n      0x08c379a000000000000000000000000000000000000000000000000000000000\n      dup2\n      mstore\n      0x04\n      add\n      tag_292\n      swap1\n      tag_293\n      jump\t// in\n    tag_292:\n      mload(0x40)\n      dup1\n      swap2\n      sub\n      swap1\n      revert\n    tag_291:\n        /* \"@openzeppelin/contracts/security/Pausable.sol\":1767:1873  function _requireNotPaused() internal view virtual {... */\n      jump\t// out\n        /* \"@openzeppelin/contracts/token/ERC20/ERC20.sol\":4776:5020  function transferFrom(address from, address to, uint256 value) public virtual returns (bool) {... */\n    tag_158:\n        /* \"@openzeppelin/contracts/token/ERC20/ERC20.sol\":4863:4867  bool */\n      0x00\n        /* \"@openzeppelin/contracts/token/ERC20/ERC20.sol\":4879:4894  address spender */\n      dup1\n        /* \"@openzeppelin/contracts/token/ERC20/ERC20.sol\":4897:4909  _msgSender() */\n      tag_295\n        /* \"@openzeppelin/contracts/token/ERC20/ERC20.sol\":4897:4907  _msgSender */\n      tag_146\n        /* \"@openzeppelin/contracts/token/ERC20/ERC20.sol\":4897:4909  _msgSender() */\n      jump\t// in\n    tag_295:\n        /* \"@openzeppelin/contracts/token/ERC20/ERC20.sol\":4879:4909  address spender = _msgSender() */\n      swap1\n      pop\n        /* \"@openzeppelin/contracts/token/ERC20/ERC20.sol\":4919:4956  _spendAllowance(from, spender, value) */\n      tag_296\n        /* \"@openzeppelin/contracts/token/ERC20/ERC20.sol\":4935:4939  from */\n      dup6\n        /* \"@openzeppelin/contracts/token/ERC20/ERC20.sol\":4941:4948  spender */\n      dup3\n        /* \"@openzeppelin/contracts/token/ERC20/ERC20.sol\":4950:4955  value */\n      dup6\n        /* \"@openzeppelin/contracts/token/ERC20/ERC20.sol\":4919:4934  _spendAllowance */\n      tag_297\n        /* \"@openzeppelin/contracts/token/ERC20/ERC20.sol\":4919:4956  _spendAllowance(from, spender, value) */\n      jump\t// in\n    tag_296:\n        /* \"@openzeppelin/contracts/token/ERC20/ERC20.sol\":4966:4992  _transfer(from, to, value) */\n      tag_298\n        /* \"@openzeppelin/contracts/token/ERC20/ERC20.sol\":4976:4980  from */\n      dup6\n        /* \"@openzeppelin/contracts/token/ERC20/ERC20.sol\":4982:4984  to */\n      dup6\n        /* \"@openzeppelin/contracts/token/ERC20/ERC20.sol\":4986:4991  value */\n      dup6\n        /* \"@openzeppelin/contracts/token/ERC20/ERC20.sol\":4966:4975  _transfer */\n      tag_299\n        /* \"@openzeppelin/contracts/token/ERC20/ERC20.sol\":4966:4992  _transfer(from, to, value) */\n      jump\t// in\n    tag_298:\n        /* \"@openzeppelin/contracts/token/ERC20/ERC20.sol\":5009:5013  true */\n      0x01\n        /* \"@openzeppelin/contracts/token/ERC20/ERC20.sol\":5002:5013  return true */\n      swap2\n      pop\n      pop\n        /* \"@openzeppelin/contracts/token/ERC20/ERC20.sol\":4776:5020  function transferFrom(address from, address to, uint256 value) public virtual returns (bool) {... */\n      swap4\n      swap3\n      pop\n      pop\n      pop\n      jump\t// out\n        /* \"@openzeppelin/contracts/access/Ownable.sol\":1796:1958  function _checkOwner() internal view virtual {... */\n    tag_161:\n        /* \"@openzeppelin/contracts/access/Ownable.sol\":1866:1878  _msgSender() */\n      tag_301\n        /* \"@openzeppelin/contracts/access/Ownable.sol\":1866:1876  _msgSender */\n      tag_146\n        /* \"@openzeppelin/contracts/access/Ownable.sol\":1866:1878  _msgSender() */\n      jump\t// in\n    tag_301:\n        /* \"@openzeppelin/contracts/access/Ownable.sol\":1855:1878  owner() != _msgSender() */\n      0xffffffffffffffffffffffffffffffffffffffff\n      and\n        /* \"@openzeppelin/contracts/access/Ownable.sol\":1855:1862  owner() */\n      tag_302\n        /* \"@openzeppelin/contracts/access/Ownable.sol\":1855:1860  owner */\n      tag_96\n        /* \"@openzeppelin/contracts/access/Ownable.sol\":1855:1862  owner() */\n      jump\t// in\n    tag_302:\n        /* \"@openzeppelin/contracts/access/Ownable.sol\":1855:1878  owner() != _msgSender() */\n      0xffffffffffffffffffffffffffffffffffffffff\n      and\n      eq\n        /* \"@openzeppelin/contracts/access/Ownable.sol\":1851:1952  if (owner() != _msgSender()) {... */\n      tag_303\n      jumpi\n        /* \"@openzeppelin/contracts/access/Ownable.sol\":1928:1940  _msgSender() */\n      tag_304\n        /* \"@openzeppelin/contracts/access/Ownable.sol\":1928:1938  _msgSender */\n      tag_146\n        /* \"@openzeppelin/contracts/access/Ownable.sol\":1928:1940  _msgSender() */\n      jump\t// in\n    tag_304:\n        /* \"@openzeppelin/contracts/access/Ownable.sol\":1901:1941  OwnableUnauthorizedAccount(_msgSender()) */\n      mload(0x40)\n      0x118cdaa700000000000000000000000000000000000000000000000000000000\n      dup2\n      mstore\n      0x04\n      add\n      tag_305\n      swap2\n      swap1\n      tag_98\n      jump\t// in\n    tag_305:\n      mload(0x40)\n      dup1\n      swap2\n      sub\n      swap1\n      revert\n        /* \"@openzeppelin/contracts/access/Ownable.sol\":1851:1952  if (owner() != _msgSender()) {... */\n    tag_303:\n        /* \"@openzeppelin/contracts/access/Ownable.sol\":1796:1958  function _checkOwner() internal view virtual {... */\n      jump\t// out\n        /* \"@openzeppelin/contracts/security/Pausable.sol\":2433:2550  function _unpause() internal virtual whenPaused {... */\n    tag_170:\n        /* \"@openzeppelin/contracts/security/Pausable.sol\":1486:1502  _requirePaused() */\n      tag_307\n        /* \"@openzeppelin/contracts/security/Pausable.sol\":1486:1500  _requirePaused */\n      tag_308\n        /* \"@openzeppelin/contracts/security/Pausable.sol\":1486:1502  _requirePaused() */\n      jump\t// in\n    tag_307:\n        /* \"@openzeppelin/contracts/security/Pausable.sol\":2501:2506  false */\n      0x00\n        /* \"@openzeppelin/contracts/security/Pausable.sol\":2491:2498  _paused */\n      0x05\n      0x00\n        /* \"@openzeppelin/contracts/security/Pausable.sol\":2491:2506  _paused = false */\n      0x0100\n      exp\n      dup2\n      sload\n      dup2\n      0xff\n      mul\n      not\n      and\n      swap1\n      dup4\n      iszero\n      iszero\n      mul\n      or\n      swap1\n      sstore\n      pop\n        /* \"@openzeppelin/contracts/security/Pausable.sol\":2521:2543  Unpaused(_msgSender()) */\n      0x5db9ee0a495bf2e6ff9c91a7834c1ba4fdd244a5e8aa4e537bd38aeae4b073aa\n        /* \"@openzeppelin/contracts/security/Pausable.sol\":2530:2542  _msgSender() */\n      tag_310\n        /* \"@openzeppelin/contracts/security/Pausable.sol\":2530:2540  _msgSender */\n      tag_146\n        /* \"@openzeppelin/contracts/security/Pausable.sol\":2530:2542  _msgSender() */\n      jump\t// in\n    tag_310:\n        /* \"@openzeppelin/contracts/security/Pausable.sol\":2521:2543  Unpaused(_msgSender()) */\n      mload(0x40)\n      tag_311\n      swap2\n      swap1\n      tag_98\n      jump\t// in\n    tag_311:\n      mload(0x40)\n      dup1\n      swap2\n      sub\n      swap1\n      log1\n        /* \"@openzeppelin/contracts/security/Pausable.sol\":2433:2550  function _unpause() internal virtual whenPaused {... */\n      jump\t// out\n        /* \"@openzeppelin/contracts/security/ReentrancyGuard.sol\":2336:2623  function _nonReentrantBefore() private {... */\n    tag_174:\n        /* \"@openzeppelin/contracts/security/ReentrancyGuard.sol\":1759:1760  2 */\n      0x02\n        /* \"@openzeppelin/contracts/security/ReentrancyGuard.sol\":2468:2475  _status */\n      sload(0x06)\n        /* \"@openzeppelin/contracts/security/ReentrancyGuard.sol\":2468:2487  _status != _ENTERED */\n      sub\n        /* \"@openzeppelin/contracts/security/ReentrancyGuard.sol\":2460:2523  require(_status != _ENTERED, \"ReentrancyGuard: reentrant call\") */\n      tag_313\n      jumpi\n      mload(0x40)\n      0x08c379a000000000000000000000000000000000000000000000000000000000\n      dup2\n      mstore\n      0x04\n      add\n      tag_314\n      swap1\n      tag_315\n      jump\t// in\n    tag_314:\n      mload(0x40)\n      dup1\n      swap2\n      sub\n      swap1\n      revert\n    tag_313:\n        /* \"@openzeppelin/contracts/security/ReentrancyGuard.sol\":1759:1760  2 */\n      0x02\n        /* \"@openzeppelin/contracts/security/ReentrancyGuard.sol\":2598:2605  _status */\n      0x06\n        /* \"@openzeppelin/contracts/security/ReentrancyGuard.sol\":2598:2616  _status = _ENTERED */\n      dup2\n      swap1\n      sstore\n      pop\n        /* \"@openzeppelin/contracts/security/ReentrancyGuard.sol\":2336:2623  function _nonReentrantBefore() private {... */\n      jump\t// out\n        /* \"@openzeppelin/contracts/security/ReentrancyGuard.sol\":2629:2838  function _nonReentrantAfter() private {... */\n    tag_187:\n        /* \"@openzeppelin/contracts/security/ReentrancyGuard.sol\":1716:1717  1 */\n      0x01\n        /* \"@openzeppelin/contracts/security/ReentrancyGuard.sol\":2809:2816  _status */\n      0x06\n        /* \"@openzeppelin/contracts/security/ReentrancyGuard.sol\":2809:2831  _status = _NOT_ENTERED */\n      dup2\n      swap1\n      sstore\n      pop\n        /* \"@openzeppelin/contracts/security/ReentrancyGuard.sol\":2629:2838  function _nonReentrantAfter() private {... */\n      jump\t// out\n        /* \"@openzeppelin/contracts/access/Ownable.sol\":2912:3099  function _transferOwnership(address newOwner) internal virtual {... */\n    tag_193:\n        /* \"@openzeppelin/contracts/access/Ownable.sol\":2985:3001  address oldOwner */\n      0x00\n        /* \"@openzeppelin/contracts/access/Ownable.sol\":3004:3010  _owner */\n      0x05\n      0x01\n      swap1\n      sload\n      swap1\n      0x0100\n      exp\n      swap1\n      div\n      0xffffffffffffffffffffffffffffffffffffffff\n      and\n        /* \"@openzeppelin/contracts/access/Ownable.sol\":2985:3010  address oldOwner = _owner */\n      swap1\n      pop\n        /* \"@openzeppelin/contracts/access/Ownable.sol\":3029:3037  newOwner */\n      dup2\n        /* \"@openzeppelin/contracts/access/Ownable.sol\":3020:3026  _owner */\n      0x05\n      0x01\n        /* \"@openzeppelin/contracts/access/Ownable.sol\":3020:3037  _owner = newOwner */\n      0x0100\n      exp\n      dup2\n      sload\n      dup2\n      0xffffffffffffffffffffffffffffffffffffffff\n      mul\n      not\n      and\n      swap1\n      dup4\n      0xffffffffffffffffffffffffffffffffffffffff\n      and\n      mul\n      or\n      swap1\n      sstore\n      pop\n        /* \"@openzeppelin/contracts/access/Ownable.sol\":3083:3091  newOwner */\n      dup2\n        /* \"@openzeppelin/contracts/access/Ownable.sol\":3052:3092  OwnershipTransferred(oldOwner, newOwner) */\n      0xffffffffffffffffffffffffffffffffffffffff\n      and\n        /* \"@openzeppelin/contracts/access/Ownable.sol\":3073:3081  oldOwner */\n      dup2\n        /* \"@openzeppelin/contracts/access/Ownable.sol\":3052:3092  OwnershipTransferred(oldOwner, newOwner) */\n      0xffffffffffffffffffffffffffffffffffffffff\n      and\n      0x8be0079c531659141344cd1fd0a4f28419497f9722a3daafe3b4186f6b6457e0\n      mload(0x40)\n      mload(0x40)\n      dup1\n      swap2\n      sub\n      swap1\n      log3\n        /* \"@openzeppelin/contracts/access/Ownable.sol\":2975:3099  {... */\n      pop\n        /* \"@openzeppelin/contracts/access/Ownable.sol\":2912:3099  function _transferOwnership(address newOwner) internal virtual {... */\n      pop\n      jump\t// out\n        /* \"@openzeppelin/contracts/security/Pausable.sol\":2186:2301  function _pause() internal virtual whenNotPaused {... */\n    tag_203:\n        /* \"@openzeppelin/contracts/security/Pausable.sol\":1239:1258  _requireNotPaused() */\n      tag_319\n        /* \"@openzeppelin/contracts/security/Pausable.sol\":1239:1256  _requireNotPaused */\n      tag_155\n        /* \"@openzeppelin/contracts/security/Pausable.sol\":1239:1258  _requireNotPaused() */\n      jump\t// in\n    tag_319:\n        /* \"@openzeppelin/contracts/security/Pausable.sol\":2255:2259  true */\n      0x01\n        /* \"@openzeppelin/contracts/security/Pausable.sol\":2245:2252  _paused */\n      0x05\n      0x00\n        /* \"@openzeppelin/contracts/security/Pausable.sol\":2245:2259  _paused = true */\n      0x0100\n      exp\n      dup2\n      sload\n      dup2\n      0xff\n      mul\n      not\n      and\n      swap1\n      dup4\n      iszero\n      iszero\n      mul\n      or\n      swap1\n      sstore\n      pop\n        /* \"@openzeppelin/contracts/security/Pausable.sol\":2274:2294  Paused(_msgSender()) */\n      0x62e78cea01bee320cd4e420270b5ea74000d11b0c9f74754ebdbfc544b05a258\n        /* \"@openzeppelin/contracts/security/Pausable.sol\":2281:2293  _msgSender() */\n      tag_321\n        /* \"@openzeppelin/contracts/security/Pausable.sol\":2281:2291  _msgSender */\n      tag_146\n        /* \"@openzeppelin/contracts/security/Pausable.sol\":2281:2293  _msgSender() */\n      jump\t// in\n    tag_321:\n        /* \"@openzeppelin/contracts/security/Pausable.sol\":2274:2294  Paused(_msgSender()) */\n      mload(0x40)\n      tag_322\n      swap2\n      swap1\n      tag_98\n      jump\t// in\n    tag_322:\n      mload(0x40)\n      dup1\n      swap2\n      sub\n      swap1\n      log1\n        /* \"@openzeppelin/contracts/security/Pausable.sol\":2186:2301  function _pause() internal virtual whenNotPaused {... */\n      jump\t// out\n        /* \"@openzeppelin/contracts/token/ERC20/ERC20.sol\":3315:3493  function transfer(address to, uint256 value) public virtual returns (bool) {... */\n    tag_220:\n        /* \"@openzeppelin/contracts/token/ERC20/ERC20.sol\":3384:3388  bool */\n      0x00\n        /* \"@openzeppelin/contracts/token/ERC20/ERC20.sol\":3400:3413  address owner */\n      dup1\n        /* \"@openzeppelin/contracts/token/ERC20/ERC20.sol\":3416:3428  _msgSender() */\n      tag_324\n        /* \"@openzeppelin/contracts/token/ERC20/ERC20.sol\":3416:3426  _msgSender */\n      tag_146\n        /* \"@openzeppelin/contracts/token/ERC20/ERC20.sol\":3416:3428  _msgSender() */\n      jump\t// in\n    tag_324:\n        /* \"@openzeppelin/contracts/token/ERC20/ERC20.sol\":3400:3428  address owner = _msgSender() */\n      swap1\n      pop\n        /* \"@openzeppelin/contracts/token/ERC20/ERC20.sol\":3438:3465  _transfer(owner, to, value) */\n      tag_325\n        /* \"@openzeppelin/contracts/token/ERC20/ERC20.sol\":3448:3453  owner */\n      dup2\n        /* \"@openzeppelin/contracts/token/ERC20/ERC20.sol\":3455:3457  to */\n      dup6\n        /* \"@openzeppelin/contracts/token/ERC20/ERC20.sol\":3459:3464  value */\n      dup6\n        /* \"@openzeppelin/contracts/token/ERC20/ERC20.sol\":3438:3447  _transfer */\n      tag_299\n        /* \"@openzeppelin/contracts/token/ERC20/ERC20.sol\":3438:3465  _transfer(owner, to, value) */\n      jump\t// in\n    tag_325:\n        /* \"@openzeppelin/contracts/token/ERC20/ERC20.sol\":3482:3486  true */\n      0x01\n        /* \"@openzeppelin/contracts/token/ERC20/ERC20.sol\":3475:3486  return true */\n      swap2\n      pop\n      pop\n        /* \"@openzeppelin/contracts/token/ERC20/ERC20.sol\":3315:3493  function transfer(address to, uint256 value) public virtual returns (bool) {... */\n      swap3\n      swap2\n      pop\n      pop\n      jump\t// out\n        /* \"Signs 2/SignsToken.sol\":8560:8841  function _isSignOwner(address owner, uint256 tokenId) internal view returns (bool) {... */\n    tag_227:\n        /* \"Signs 2/SignsToken.sol\":8637:8641  bool */\n      0x00\n        /* \"Signs 2/SignsToken.sol\":8789:8793  true */\n      0x01\n        /* \"Signs 2/SignsToken.sol\":8782:8793  return true */\n      swap1\n      pop\n        /* \"Signs 2/SignsToken.sol\":8560:8841  function _isSignOwner(address owner, uint256 tokenId) internal view returns (bool) {... */\n      swap3\n      swap2\n      pop\n      pop\n      jump\t// out\n        /* \"@openzeppelin/contracts/token/ERC20/ERC20.sol\":9701:10133  function _approve(address owner, address spender, uint256 value, bool emitEvent) internal virtual {... */\n    tag_288:\n        /* \"@openzeppelin/contracts/token/ERC20/ERC20.sol\":9830:9831  0 */\n      0x00\n        /* \"@openzeppelin/contracts/token/ERC20/ERC20.sol\":9813:9832  owner == address(0) */\n      0xffffffffffffffffffffffffffffffffffffffff\n      and\n        /* \"@openzeppelin/contracts/token/ERC20/ERC20.sol\":9813:9818  owner */\n      dup5\n        /* \"@openzeppelin/contracts/token/ERC20/ERC20.sol\":9813:9832  owner == address(0) */\n      0xffffffffffffffffffffffffffffffffffffffff\n      and\n      sub\n        /* \"@openzeppelin/contracts/token/ERC20/ERC20.sol\":9809:9898  if (owner == address(0)) {... */\n      tag_328\n      jumpi\n        /* \"@openzeppelin/contracts/token/ERC20/ERC20.sol\":9884:9885  0 */\n      0x00\n        /* \"@openzeppelin/contracts/token/ERC20/ERC20.sol\":9855:9887  ERC20InvalidApprover(address(0)) */\n      mload(0x40)\n      0xe602df0500000000000000000000000000000000000000000000000000000000\n      dup2\n      mstore\n      0x04\n      add\n      tag_329\n      swap2\n      swap1\n      tag_98\n      jump\t// in\n    tag_329:\n      mload(0x40)\n      dup1\n      swap2\n      sub\n      swap1\n      revert\n        /* \"@openzeppelin/contracts/token/ERC20/ERC20.sol\":9809:9898  if (owner == address(0)) {... */\n    tag_328:\n        /* \"@openzeppelin/contracts/token/ERC20/ERC20.sol\":9930:9931  0 */\n      0x00\n        /* \"@openzeppelin/contracts/token/ERC20/ERC20.sol\":9911:9932  spender == address(0) */\n      0xffffffffffffffffffffffffffffffffffffffff\n      and\n        /* \"@openzeppelin/contracts/token/ERC20/ERC20.sol\":9911:9918  spender */\n      dup4\n        /* \"@openzeppelin/contracts/token/ERC20/ERC20.sol\":9911:9932  spender == address(0) */\n      0xffffffffffffffffffffffffffffffffffffffff\n      and\n      sub\n        /* \"@openzeppelin/contracts/token/ERC20/ERC20.sol\":9907:9997  if (spender == address(0)) {... */\n      tag_330\n      jumpi\n        /* \"@openzeppelin/contracts/token/ERC20/ERC20.sol\":9983:9984  0 */\n      0x00\n        /* \"@openzeppelin/contracts/token/ERC20/ERC20.sol\":9955:9986  ERC20InvalidSpender(address(0)) */\n      mload(0x40)\n      0x94280d6200000000000000000000000000000000000000000000000000000000\n      dup2\n      mstore\n      0x04\n      add\n      tag_331\n      swap2\n      swap1\n      tag_98\n      jump\t// in\n    tag_331:\n      mload(0x40)\n      dup1\n      swap2\n      sub\n      swap1\n      revert\n        /* \"@openzeppelin/contracts/token/ERC20/ERC20.sol\":9907:9997  if (spender == address(0)) {... */\n    tag_330:\n        /* \"@openzeppelin/contracts/token/ERC20/ERC20.sol\":10036:10041  value */\n      dup2\n        /* \"@openzeppelin/contracts/token/ERC20/ERC20.sol\":10006:10017  _allowances */\n      0x01\n        /* \"@openzeppelin/contracts/token/ERC20/ERC20.sol\":10006:10024  _allowances[owner] */\n      0x00\n        /* \"@openzeppelin/contracts/token/ERC20/ERC20.sol\":10018:10023  owner */\n      dup7\n        /* \"@openzeppelin/contracts/token/ERC20/ERC20.sol\":10006:10024  _allowances[owner] */\n      0xffffffffffffffffffffffffffffffffffffffff\n      and\n      0xffffffffffffffffffffffffffffffffffffffff\n      and\n      dup2\n      mstore\n      0x20\n      add\n      swap1\n      dup2\n      mstore\n      0x20\n      add\n      0x00\n      keccak256\n        /* \"@openzeppelin/contracts/token/ERC20/ERC20.sol\":10006:10033  _allowances[owner][spender] */\n      0x00\n        /* \"@openzeppelin/contracts/token/ERC20/ERC20.sol\":10025:10032  spender */\n      dup6\n        /* \"@openzeppelin/contracts/token/ERC20/ERC20.sol\":10006:10033  _allowances[owner][spender] */\n      0xffffffffffffffffffffffffffffffffffffffff\n      and\n      0xffffffffffffffffffffffffffffffffffffffff\n      and\n      dup2\n      mstore\n      0x20\n      add\n      swap1\n      dup2\n      mstore\n      0x20\n      add\n      0x00\n      keccak256\n        /* \"@openzeppelin/contracts/token/ERC20/ERC20.sol\":10006:10041  _allowances[owner][spender] = value */\n      dup2\n      swap1\n      sstore\n      pop\n        /* \"@openzeppelin/contracts/token/ERC20/ERC20.sol\":10055:10064  emitEvent */\n      dup1\n        /* \"@openzeppelin/contracts/token/ERC20/ERC20.sol\":10051:10127  if (emitEvent) {... */\n      iszero\n      tag_332\n      jumpi\n        /* \"@openzeppelin/contracts/token/ERC20/ERC20.sol\":10101:10108  spender */\n      dup3\n        /* \"@openzeppelin/contracts/token/ERC20/ERC20.sol\":10085:10116  Approval(owner, spender, value) */\n      0xffffffffffffffffffffffffffffffffffffffff\n      and\n        /* \"@openzeppelin/contracts/token/ERC20/ERC20.sol\":10094:10099  owner */\n      dup5\n        /* \"@openzeppelin/contracts/token/ERC20/ERC20.sol\":10085:10116  Approval(owner, spender, value) */\n      0xffffffffffffffffffffffffffffffffffffffff\n      and\n      0x8c5be1e5ebec7d5bd14f71427d1e84f3dd0314c0f7b2291e5b200ac8c7c3b925\n        /* \"@openzeppelin/contracts/token/ERC20/ERC20.sol\":10110:10115  value */\n      dup5\n        /* \"@openzeppelin/contracts/token/ERC20/ERC20.sol\":10085:10116  Approval(owner, spender, value) */\n      mload(0x40)\n      tag_333\n      swap2\n      swap1\n      tag_49\n      jump\t// in\n    tag_333:\n      mload(0x40)\n      dup1\n      swap2\n      sub\n      swap1\n      log3\n        /* \"@openzeppelin/contracts/token/ERC20/ERC20.sol\":10051:10127  if (emitEvent) {... */\n    tag_332:\n        /* \"@openzeppelin/contracts/token/ERC20/ERC20.sol\":9701:10133  function _approve(address owner, address spender, uint256 value, bool emitEvent) internal virtual {... */\n      pop\n      pop\n      pop\n      pop\n      jump\t// out\n        /* \"@openzeppelin/contracts/token/ERC20/ERC20.sol\":10415:10892  function _spendAllowance(address owner, address spender, uint256 value) internal virtual {... */\n    tag_297:\n        /* \"@openzeppelin/contracts/token/ERC20/ERC20.sol\":10514:10538  uint256 currentAllowance */\n      0x00\n        /* \"@openzeppelin/contracts/token/ERC20/ERC20.sol\":10541:10566  allowance(owner, spender) */\n      tag_335\n        /* \"@openzeppelin/contracts/token/ERC20/ERC20.sol\":10551:10556  owner */\n      dup5\n        /* \"@openzeppelin/contracts/token/ERC20/ERC20.sol\":10558:10565  spender */\n      dup5\n        /* \"@openzeppelin/contracts/token/ERC20/ERC20.sol\":10541:10550  allowance */\n      tag_123\n        /* \"@openzeppelin/contracts/token/ERC20/ERC20.sol\":10541:10566  allowance(owner, spender) */\n      jump\t// in\n    tag_335:\n        /* \"@openzeppelin/contracts/token/ERC20/ERC20.sol\":10514:10566  uint256 currentAllowance = allowance(owner, spender) */\n      swap1\n      pop\n        /* \"@openzeppelin/contracts/token/ERC20/ERC20.sol\":10600:10617  type(uint256).max */\n      0xffffffffffffffffffffffffffffffffffffffffffffffffffffffffffffffff\n        /* \"@openzeppelin/contracts/token/ERC20/ERC20.sol\":10580:10596  currentAllowance */\n      dup2\n        /* \"@openzeppelin/contracts/token/ERC20/ERC20.sol\":10580:10617  currentAllowance != type(uint256).max */\n      eq\n        /* \"@openzeppelin/contracts/token/ERC20/ERC20.sol\":10576:10886  if (currentAllowance != type(uint256).max) {... */\n      tag_336\n      jumpi\n        /* \"@openzeppelin/contracts/token/ERC20/ERC20.sol\":10656:10661  value */\n      dup2\n        /* \"@openzeppelin/contracts/token/ERC20/ERC20.sol\":10637:10653  currentAllowance */\n      dup2\n        /* \"@openzeppelin/contracts/token/ERC20/ERC20.sol\":10637:10661  currentAllowance < value */\n      lt\n        /* \"@openzeppelin/contracts/token/ERC20/ERC20.sol\":10633:10763  if (currentAllowance < value) {... */\n      iszero\n      tag_337\n      jumpi\n        /* \"@openzeppelin/contracts/token/ERC20/ERC20.sol\":10715:10722  spender */\n      dup3\n        /* \"@openzeppelin/contracts/token/ERC20/ERC20.sol\":10724:10740  currentAllowance */\n      dup2\n        /* \"@openzeppelin/contracts/token/ERC20/ERC20.sol\":10742:10747  value */\n      dup4\n        /* \"@openzeppelin/contracts/token/ERC20/ERC20.sol\":10688:10748  ERC20InsufficientAllowance(spender, currentAllowance, value) */\n      mload(0x40)\n      0xfb8f41b200000000000000000000000000000000000000000000000000000000\n      dup2\n      mstore\n      0x04\n      add\n      tag_338\n      swap4\n      swap3\n      swap2\n      swap1\n      tag_339\n      jump\t// in\n    tag_338:\n      mload(0x40)\n      dup1\n      swap2\n      sub\n      swap1\n      revert\n        /* \"@openzeppelin/contracts/token/ERC20/ERC20.sol\":10633:10763  if (currentAllowance < value) {... */\n    tag_337:\n        /* \"@openzeppelin/contracts/token/ERC20/ERC20.sol\":10804:10861  _approve(owner, spender, currentAllowance - value, false) */\n      tag_340\n        /* \"@openzeppelin/contracts/token/ERC20/ERC20.sol\":10813:10818  owner */\n      dup5\n        /* \"@openzeppelin/contracts/token/ERC20/ERC20.sol\":10820:10827  spender */\n      dup5\n        /* \"@openzeppelin/contracts/token/ERC20/ERC20.sol\":10848:10853  value */\n      dup5\n        /* \"@openzeppelin/contracts/token/ERC20/ERC20.sol\":10829:10845  currentAllowance */\n      dup5\n        /* \"@openzeppelin/contracts/token/ERC20/ERC20.sol\":10829:10853  currentAllowance - value */\n      sub\n        /* \"@openzeppelin/contracts/token/ERC20/ERC20.sol\":10855:10860  false */\n      0x00\n        /* \"@openzeppelin/contracts/token/ERC20/ERC20.sol\":10804:10812  _approve */\n      tag_288\n        /* \"@openzeppelin/contracts/token/ERC20/ERC20.sol\":10804:10861  _approve(owner, spender, currentAllowance - value, false) */\n      jump\t// in\n    tag_340:\n        /* \"@openzeppelin/contracts/token/ERC20/ERC20.sol\":10576:10886  if (currentAllowance != type(uint256).max) {... */\n    tag_336:\n        /* \"@openzeppelin/contracts/token/ERC20/ERC20.sol\":10504:10892  {... */\n      pop\n        /* \"@openzeppelin/contracts/token/ERC20/ERC20.sol\":10415:10892  function _spendAllowance(address owner, address spender, uint256 value) internal virtual {... */\n      pop\n      pop\n      pop\n      jump\t// out\n        /* \"@openzeppelin/contracts/token/ERC20/ERC20.sol\":5393:5693  function _transfer(address from, address to, uint256 value) internal {... */\n    tag_299:\n        /* \"@openzeppelin/contracts/token/ERC20/ERC20.sol\":5492:5493  0 */\n      0x00\n        /* \"@openzeppelin/contracts/token/ERC20/ERC20.sol\":5476:5494  from == address(0) */\n      0xffffffffffffffffffffffffffffffffffffffff\n      and\n        /* \"@openzeppelin/contracts/token/ERC20/ERC20.sol\":5476:5480  from */\n      dup4\n        /* \"@openzeppelin/contracts/token/ERC20/ERC20.sol\":5476:5494  from == address(0) */\n      0xffffffffffffffffffffffffffffffffffffffff\n      and\n      sub\n        /* \"@openzeppelin/contracts/token/ERC20/ERC20.sol\":5472:5558  if (from == address(0)) {... */\n      tag_342\n      jumpi\n        /* \"@openzeppelin/contracts/token/ERC20/ERC20.sol\":5544:5545  0 */\n      0x00\n        /* \"@openzeppelin/contracts/token/ERC20/ERC20.sol\":5517:5547  ERC20InvalidSender(address(0)) */\n      mload(0x40)\n      0x96c6fd1e00000000000000000000000000000000000000000000000000000000\n      dup2\n      mstore\n      0x04\n      add\n      tag_343\n      swap2\n      swap1\n      tag_98\n      jump\t// in\n    tag_343:\n      mload(0x40)\n      dup1\n      swap2\n      sub\n      swap1\n      revert\n        /* \"@openzeppelin/contracts/token/ERC20/ERC20.sol\":5472:5558  if (from == address(0)) {... */\n    tag_342:\n        /* \"@openzeppelin/contracts/token/ERC20/ERC20.sol\":5585:5586  0 */\n      0x00\n        /* \"@openzeppelin/contracts/token/ERC20/ERC20.sol\":5571:5587  to == address(0) */\n      0xffffffffffffffffffffffffffffffffffffffff\n      and\n        /* \"@openzeppelin/contracts/token/ERC20/ERC20.sol\":5571:5573  to */\n      dup3\n        /* \"@openzeppelin/contracts/token/ERC20/ERC20.sol\":5571:5587  to == address(0) */\n      0xffffffffffffffffffffffffffffffffffffffff\n      and\n      sub\n        /* \"@openzeppelin/contracts/token/ERC20/ERC20.sol\":5567:5653  if (to == address(0)) {... */\n      tag_344\n      jumpi\n        /* \"@openzeppelin/contracts/token/ERC20/ERC20.sol\":5639:5640  0 */\n      0x00\n        /* \"@openzeppelin/contracts/token/ERC20/ERC20.sol\":5610:5642  ERC20InvalidReceiver(address(0)) */\n      mload(0x40)\n      0xec442f0500000000000000000000000000000000000000000000000000000000\n      dup2\n      mstore\n      0x04\n      add\n      tag_345\n      swap2\n      swap1\n      tag_98\n      jump\t// in\n    tag_345:\n      mload(0x40)\n      dup1\n      swap2\n      sub\n      swap1\n      revert\n        /* \"@openzeppelin/contracts/token/ERC20/ERC20.sol\":5567:5653  if (to == address(0)) {... */\n    tag_344:\n        /* \"@openzeppelin/contracts/token/ERC20/ERC20.sol\":5662:5686  _update(from, to, value) */\n      tag_346\n        /* \"@openzeppelin/contracts/token/ERC20/ERC20.sol\":5670:5674  from */\n      dup4\n        /* \"@openzeppelin/contracts/token/ERC20/ERC20.sol\":5676:5678  to */\n      dup4\n        /* \"@openzeppelin/contracts/token/ERC20/ERC20.sol\":5680:5685  value */\n      dup4\n        /* \"@openzeppelin/contracts/token/ERC20/ERC20.sol\":5662:5669  _update */\n      tag_347\n        /* \"@openzeppelin/contracts/token/ERC20/ERC20.sol\":5662:5686  _update(from, to, value) */\n      jump\t// in\n    tag_346:\n        /* \"@openzeppelin/contracts/token/ERC20/ERC20.sol\":5393:5693  function _transfer(address from, address to, uint256 value) internal {... */\n      pop\n      pop\n      pop\n      jump\t// out\n        /* \"@openzeppelin/contracts/security/Pausable.sol\":1945:2051  function _requirePaused() internal view virtual {... */\n    tag_308:\n        /* \"@openzeppelin/contracts/security/Pausable.sol\":2011:2019  paused() */\n      tag_349\n        /* \"@openzeppelin/contracts/security/Pausable.sol\":2011:2017  paused */\n      tag_75\n        /* \"@openzeppelin/contracts/security/Pausable.sol\":2011:2019  paused() */\n      jump\t// in\n    tag_349:\n        /* \"@openzeppelin/contracts/security/Pausable.sol\":2003:2044  require(paused(), \"Pausable: not paused\") */\n      tag_350\n      jumpi\n      mload(0x40)\n      0x08c379a000000000000000000000000000000000000000000000000000000000\n      dup2\n      mstore\n      0x04\n      add\n      tag_351\n      swap1\n      tag_352\n      jump\t// in\n    tag_351:\n      mload(0x40)\n      dup1\n      swap2\n      sub\n      swap1\n      revert\n    tag_350:\n        /* \"@openzeppelin/contracts/security/Pausable.sol\":1945:2051  function _requirePaused() internal view virtual {... */\n      jump\t// out\n        /* \"@openzeppelin/contracts/token/ERC20/ERC20.sol\":6008:7115  function _update(address from, address to, uint256 value) internal virtual {... */\n    tag_347:\n        /* \"@openzeppelin/contracts/token/ERC20/ERC20.sol\":6113:6114  0 */\n      0x00\n        /* \"@openzeppelin/contracts/token/ERC20/ERC20.sol\":6097:6115  from == address(0) */\n      0xffffffffffffffffffffffffffffffffffffffff\n      and\n        /* \"@openzeppelin/contracts/token/ERC20/ERC20.sol\":6097:6101  from */\n      dup4\n        /* \"@openzeppelin/contracts/token/ERC20/ERC20.sol\":6097:6115  from == address(0) */\n      0xffffffffffffffffffffffffffffffffffffffff\n      and\n      sub\n        /* \"@openzeppelin/contracts/token/ERC20/ERC20.sol\":6093:6633  if (from == address(0)) {... */\n      tag_354\n      jumpi\n        /* \"@openzeppelin/contracts/token/ERC20/ERC20.sol\":6249:6254  value */\n      dup1\n        /* \"@openzeppelin/contracts/token/ERC20/ERC20.sol\":6233:6245  _totalSupply */\n      0x02\n      0x00\n        /* \"@openzeppelin/contracts/token/ERC20/ERC20.sol\":6233:6254  _totalSupply += value */\n      dup3\n      dup3\n      sload\n      tag_355\n      swap2\n      swap1\n      tag_184\n      jump\t// in\n    tag_355:\n      swap3\n      pop\n      pop\n      dup2\n      swap1\n      sstore\n      pop\n        /* \"@openzeppelin/contracts/token/ERC20/ERC20.sol\":6093:6633  if (from == address(0)) {... */\n      jump(tag_356)\n    tag_354:\n        /* \"@openzeppelin/contracts/token/ERC20/ERC20.sol\":6285:6304  uint256 fromBalance */\n      0x00\n        /* \"@openzeppelin/contracts/token/ERC20/ERC20.sol\":6307:6316  _balances */\n      dup1\n        /* \"@openzeppelin/contracts/token/ERC20/ERC20.sol\":6307:6322  _balances[from] */\n      0x00\n        /* \"@openzeppelin/contracts/token/ERC20/ERC20.sol\":6317:6321  from */\n      dup6\n        /* \"@openzeppelin/contracts/token/ERC20/ERC20.sol\":6307:6322  _balances[from] */\n      0xffffffffffffffffffffffffffffffffffffffff\n      and\n      0xffffffffffffffffffffffffffffffffffffffff\n      and\n      dup2\n      mstore\n      0x20\n      add\n      swap1\n      dup2\n      mstore\n      0x20\n      add\n      0x00\n      keccak256\n      sload\n        /* \"@openzeppelin/contracts/token/ERC20/ERC20.sol\":6285:6322  uint256 fromBalance = _balances[from] */\n      swap1\n      pop\n        /* \"@openzeppelin/contracts/token/ERC20/ERC20.sol\":6354:6359  value */\n      dup2\n        /* \"@openzeppelin/contracts/token/ERC20/ERC20.sol\":6340:6351  fromBalance */\n      dup2\n        /* \"@openzeppelin/contracts/token/ERC20/ERC20.sol\":6340:6359  fromBalance < value */\n      lt\n        /* \"@openzeppelin/contracts/token/ERC20/ERC20.sol\":6336:6451  if (fromBalance < value) {... */\n      iszero\n      tag_357\n      jumpi\n        /* \"@openzeppelin/contracts/token/ERC20/ERC20.sol\":6411:6415  from */\n      dup4\n        /* \"@openzeppelin/contracts/token/ERC20/ERC20.sol\":6417:6428  fromBalance */\n      dup2\n        /* \"@openzeppelin/contracts/token/ERC20/ERC20.sol\":6430:6435  value */\n      dup4\n        /* \"@openzeppelin/contracts/token/ERC20/ERC20.sol\":6386:6436  ERC20InsufficientBalance(from, fromBalance, value) */\n      mload(0x40)\n      0xe450d38c00000000000000000000000000000000000000000000000000000000\n      dup2\n      mstore\n      0x04\n      add\n      tag_358\n      swap4\n      swap3\n      swap2\n      swap1\n      tag_339\n      jump\t// in\n    tag_358:\n      mload(0x40)\n      dup1\n      swap2\n      sub\n      swap1\n      revert\n        /* \"@openzeppelin/contracts/token/ERC20/ERC20.sol\":6336:6451  if (fromBalance < value) {... */\n    tag_357:\n        /* \"@openzeppelin/contracts/token/ERC20/ERC20.sol\":6603:6608  value */\n      dup2\n        /* \"@openzeppelin/contracts/token/ERC20/ERC20.sol\":6589:6600  fromBalance */\n      dup2\n        /* \"@openzeppelin/contracts/token/ERC20/ERC20.sol\":6589:6608  fromBalance - value */\n      sub\n        /* \"@openzeppelin/contracts/token/ERC20/ERC20.sol\":6571:6580  _balances */\n      0x00\n        /* \"@openzeppelin/contracts/token/ERC20/ERC20.sol\":6571:6586  _balances[from] */\n      dup1\n        /* \"@openzeppelin/contracts/token/ERC20/ERC20.sol\":6581:6585  from */\n      dup7\n        /* \"@openzeppelin/contracts/token/ERC20/ERC20.sol\":6571:6586  _balances[from] */\n      0xffffffffffffffffffffffffffffffffffffffff\n      and\n      0xffffffffffffffffffffffffffffffffffffffff\n      and\n      dup2\n      mstore\n      0x20\n      add\n      swap1\n      dup2\n      mstore\n      0x20\n      add\n      0x00\n      keccak256\n        /* \"@openzeppelin/contracts/token/ERC20/ERC20.sol\":6571:6608  _balances[from] = fromBalance - value */\n      dup2\n      swap1\n      sstore\n      pop\n        /* \"@openzeppelin/contracts/token/ERC20/ERC20.sol\":6271:6633  {... */\n      pop\n        /* \"@openzeppelin/contracts/token/ERC20/ERC20.sol\":6093:6633  if (from == address(0)) {... */\n    tag_356:\n        /* \"@openzeppelin/contracts/token/ERC20/ERC20.sol\":6661:6662  0 */\n      0x00\n        /* \"@openzeppelin/contracts/token/ERC20/ERC20.sol\":6647:6663  to == address(0) */\n      0xffffffffffffffffffffffffffffffffffffffff\n      and\n        /* \"@openzeppelin/contracts/token/ERC20/ERC20.sol\":6647:6649  to */\n      dup3\n        /* \"@openzeppelin/contracts/token/ERC20/ERC20.sol\":6647:6663  to == address(0) */\n      0xffffffffffffffffffffffffffffffffffffffff\n      and\n      sub\n        /* \"@openzeppelin/contracts/token/ERC20/ERC20.sol\":6643:7068  if (to == address(0)) {... */\n      tag_359\n      jumpi\n        /* \"@openzeppelin/contracts/token/ERC20/ERC20.sol\":6826:6831  value */\n      dup1\n        /* \"@openzeppelin/contracts/token/ERC20/ERC20.sol\":6810:6822  _totalSupply */\n      0x02\n      0x00\n        /* \"@openzeppelin/contracts/token/ERC20/ERC20.sol\":6810:6831  _totalSupply -= value */\n      dup3\n      dup3\n      sload\n      sub\n      swap3\n      pop\n      pop\n      dup2\n      swap1\n      sstore\n      pop\n        /* \"@openzeppelin/contracts/token/ERC20/ERC20.sol\":6643:7068  if (to == address(0)) {... */\n      jump(tag_360)\n    tag_359:\n        /* \"@openzeppelin/contracts/token/ERC20/ERC20.sol\":7038:7043  value */\n      dup1\n        /* \"@openzeppelin/contracts/token/ERC20/ERC20.sol\":7021:7030  _balances */\n      0x00\n        /* \"@openzeppelin/contracts/token/ERC20/ERC20.sol\":7021:7034  _balances[to] */\n      dup1\n        /* \"@openzeppelin/contracts/token/ERC20/ERC20.sol\":7031:7033  to */\n      dup5\n        /* \"@openzeppelin/contracts/token/ERC20/ERC20.sol\":7021:7034  _balances[to] */\n      0xffffffffffffffffffffffffffffffffffffffff\n      and\n      0xffffffffffffffffffffffffffffffffffffffff\n      and\n      dup2\n      mstore\n      0x20\n      add\n      swap1\n      dup2\n      mstore\n      0x20\n      add\n      0x00\n      keccak256\n      0x00\n        /* \"@openzeppelin/contracts/token/ERC20/ERC20.sol\":7021:7043  _balances[to] += value */\n      dup3\n      dup3\n      sload\n      add\n      swap3\n      pop\n      pop\n      dup2\n      swap1\n      sstore\n      pop\n        /* \"@openzeppelin/contracts/token/ERC20/ERC20.sol\":6643:7068  if (to == address(0)) {... */\n    tag_360:\n        /* \"@openzeppelin/contracts/token/ERC20/ERC20.sol\":7098:7100  to */\n      dup2\n        /* \"@openzeppelin/contracts/token/ERC20/ERC20.sol\":7083:7108  Transfer(from, to, value) */\n      0xffffffffffffffffffffffffffffffffffffffff\n      and\n        /* \"@openzeppelin/contracts/token/ERC20/ERC20.sol\":7092:7096  from */\n      dup4\n        /* \"@openzeppelin/contracts/token/ERC20/ERC20.sol\":7083:7108  Transfer(from, to, value) */\n      0xffffffffffffffffffffffffffffffffffffffff\n      and\n      0xddf252ad1be2c89b69c2b068fc378daa952ba7f163c4a11628f55a4df523b3ef\n        /* \"@openzeppelin/contracts/token/ERC20/ERC20.sol\":7102:7107  value */\n      dup4\n        /* \"@openzeppelin/contracts/token/ERC20/ERC20.sol\":7083:7108  Transfer(from, to, value) */\n      mload(0x40)\n      tag_361\n      swap2\n      swap1\n      tag_49\n      jump\t// in\n    tag_361:\n      mload(0x40)\n      dup1\n      swap2\n      sub\n      swap1\n      log3\n        /* \"@openzeppelin/contracts/token/ERC20/ERC20.sol\":6008:7115  function _update(address from, address to, uint256 value) internal virtual {... */\n      pop\n      pop\n      pop\n      jump\t// out\n    tag_241:\n      mload(0x40)\n      dup1\n      0x60\n      add\n      0x40\n      mstore\n      dup1\n      0x00\n      dup2\n      mstore\n      0x20\n      add\n      0x00\n      dup2\n      mstore\n      0x20\n      add\n      iszero(iszero(0x00))\n      dup2\n      mstore\n      pop\n      swap1\n      jump\t// out\n        /* \"#utility.yul\":7:106   */\n    tag_362:\n        /* \"#utility.yul\":59:65   */\n      0x00\n        /* \"#utility.yul\":93:98   */\n      dup2\n        /* \"#utility.yul\":87:99   */\n      mload\n        /* \"#utility.yul\":77:99   */\n      swap1\n      pop\n        /* \"#utility.yul\":7:106   */\n      swap2\n      swap1\n      pop\n      jump\t// out\n        /* \"#utility.yul\":112:281   */\n    tag_363:\n        /* \"#utility.yul\":196:207   */\n      0x00\n        /* \"#utility.yul\":230:236   */\n      dup3\n        /* \"#utility.yul\":225:228   */\n      dup3\n        /* \"#utility.yul\":218:237   */\n      mstore\n        /* \"#utility.yul\":270:274   */\n      0x20\n        /* \"#utility.yul\":265:268   */\n      dup3\n        /* \"#utility.yul\":261:275   */\n      add\n        /* \"#utility.yul\":246:275   */\n      swap1\n      pop\n        /* \"#utility.yul\":112:281   */\n      swap3\n      swap2\n      pop\n      pop\n      jump\t// out\n        /* \"#utility.yul\":287:426   */\n    tag_364:\n        /* \"#utility.yul\":376:382   */\n      dup3\n        /* \"#utility.yul\":371:374   */\n      dup2\n        /* \"#utility.yul\":366:369   */\n      dup4\n        /* \"#utility.yul\":360:383   */\n      mcopy\n        /* \"#utility.yul\":417:418   */\n      0x00\n        /* \"#utility.yul\":408:414   */\n      dup4\n        /* \"#utility.yul\":403:406   */\n      dup4\n        /* \"#utility.yul\":399:415   */\n      add\n        /* \"#utility.yul\":392:419   */\n      mstore\n        /* \"#utility.yul\":287:426   */\n      pop\n      pop\n      pop\n      jump\t// out\n        /* \"#utility.yul\":432:534   */\n    tag_365:\n        /* \"#utility.yul\":473:479   */\n      0x00\n        /* \"#utility.yul\":524:526   */\n      0x1f\n        /* \"#utility.yul\":520:527   */\n      not\n        /* \"#utility.yul\":515:517   */\n      0x1f\n        /* \"#utility.yul\":508:513   */\n      dup4\n        /* \"#utility.yul\":504:518   */\n      add\n        /* \"#utility.yul\":500:528   */\n      and\n        /* \"#utility.yul\":490:528   */\n      swap1\n      pop\n        /* \"#utility.yul\":432:534   */\n      swap2\n      swap1\n      pop\n      jump\t// out\n        /* \"#utility.yul\":540:917   */\n    tag_366:\n        /* \"#utility.yul\":628:631   */\n      0x00\n        /* \"#utility.yul\":656:695   */\n      tag_416\n        /* \"#utility.yul\":689:694   */\n      dup3\n        /* \"#utility.yul\":656:695   */\n      tag_362\n      jump\t// in\n    tag_416:\n        /* \"#utility.yul\":711:782   */\n      tag_417\n        /* \"#utility.yul\":775:781   */\n      dup2\n        /* \"#utility.yul\":770:773   */\n      dup6\n        /* \"#utility.yul\":711:782   */\n      tag_363\n      jump\t// in\n    tag_417:\n        /* \"#utility.yul\":704:782   */\n      swap4\n      pop\n        /* \"#utility.yul\":791:856   */\n      tag_418\n        /* \"#utility.yul\":849:855   */\n      dup2\n        /* \"#utility.yul\":844:847   */\n      dup6\n        /* \"#utility.yul\":837:841   */\n      0x20\n        /* \"#utility.yul\":830:835   */\n      dup7\n        /* \"#utility.yul\":826:842   */\n      add\n        /* \"#utility.yul\":791:856   */\n      tag_364\n      jump\t// in\n    tag_418:\n        /* \"#utility.yul\":881:910   */\n      tag_419\n        /* \"#utility.yul\":903:909   */\n      dup2\n        /* \"#utility.yul\":881:910   */\n      tag_365\n      jump\t// in\n    tag_419:\n        /* \"#utility.yul\":876:879   */\n      dup5\n        /* \"#utility.yul\":872:911   */\n      add\n        /* \"#utility.yul\":865:911   */\n      swap2\n      pop\n        /* \"#utility.yul\":632:917   */\n      pop\n        /* \"#utility.yul\":540:917   */\n      swap3\n      swap2\n      pop\n      pop\n      jump\t// out\n        /* \"#utility.yul\":923:1236   */\n    tag_39:\n        /* \"#utility.yul\":1036:1040   */\n      0x00\n        /* \"#utility.yul\":1074:1076   */\n      0x20\n        /* \"#utility.yul\":1063:1072   */\n      dup3\n        /* \"#utility.yul\":1059:1077   */\n      add\n        /* \"#utility.yul\":1051:1077   */\n      swap1\n      pop\n        /* \"#utility.yul\":1123:1132   */\n      dup2\n        /* \"#utility.yul\":1117:1121   */\n      dup2\n        /* \"#utility.yul\":1113:1133   */\n      sub\n        /* \"#utility.yul\":1109:1110   */\n      0x00\n        /* \"#utility.yul\":1098:1107   */\n      dup4\n        /* \"#utility.yul\":1094:1111   */\n      add\n        /* \"#utility.yul\":1087:1134   */\n      mstore\n        /* \"#utility.yul\":1151:1229   */\n      tag_421\n        /* \"#utility.yul\":1224:1228   */\n      dup2\n        /* \"#utility.yul\":1215:1221   */\n      dup5\n        /* \"#utility.yul\":1151:1229   */\n      tag_366\n      jump\t// in\n    tag_421:\n        /* \"#utility.yul\":1143:1229   */\n      swap1\n      pop\n        /* \"#utility.yul\":923:1236   */\n      swap3\n      swap2\n      pop\n      pop\n      jump\t// out\n        /* \"#utility.yul\":1323:1440   */\n    tag_368:\n        /* \"#utility.yul\":1432:1433   */\n      0x00\n        /* \"#utility.yul\":1429:1430   */\n      dup1\n        /* \"#utility.yul\":1422:1434   */\n      revert\n        /* \"#utility.yul\":1569:1695   */\n    tag_370:\n        /* \"#utility.yul\":1606:1613   */\n      0x00\n        /* \"#utility.yul\":1646:1688   */\n      0xffffffffffffffffffffffffffffffffffffffff\n        /* \"#utility.yul\":1639:1644   */\n      dup3\n        /* \"#utility.yul\":1635:1689   */\n      and\n        /* \"#utility.yul\":1624:1689   */\n      swap1\n      pop\n        /* \"#utility.yul\":1569:1695   */\n      swap2\n      swap1\n      pop\n      jump\t// out\n        /* \"#utility.yul\":1701:1797   */\n    tag_371:\n        /* \"#utility.yul\":1738:1745   */\n      0x00\n        /* \"#utility.yul\":1767:1791   */\n      tag_427\n        /* \"#utility.yul\":1785:1790   */\n      dup3\n        /* \"#utility.yul\":1767:1791   */\n      tag_370\n      jump\t// in\n    tag_427:\n        /* \"#utility.yul\":1756:1791   */\n      swap1\n      pop\n        /* \"#utility.yul\":1701:1797   */\n      swap2\n      swap1\n      pop\n      jump\t// out\n        /* \"#utility.yul\":1803:1925   */\n    tag_372:\n        /* \"#utility.yul\":1876:1900   */\n      tag_429\n        /* \"#utility.yul\":1894:1899   */\n      dup2\n        /* \"#utility.yul\":1876:1900   */\n      tag_371\n      jump\t// in\n    tag_429:\n        /* \"#utility.yul\":1869:1874   */\n      dup2\n        /* \"#utility.yul\":1866:1901   */\n      eq\n        /* \"#utility.yul\":1856:1919   */\n      tag_430\n      jumpi\n        /* \"#utility.yul\":1915:1916   */\n      0x00\n        /* \"#utility.yul\":1912:1913   */\n      dup1\n        /* \"#utility.yul\":1905:1917   */\n      revert\n        /* \"#utility.yul\":1856:1919   */\n    tag_430:\n        /* \"#utility.yul\":1803:1925   */\n      pop\n      jump\t// out\n        /* \"#utility.yul\":1931:2070   */\n    tag_373:\n        /* \"#utility.yul\":1977:1982   */\n      0x00\n        /* \"#utility.yul\":2015:2021   */\n      dup2\n        /* \"#utility.yul\":2002:2022   */\n      calldataload\n        /* \"#utility.yul\":1993:2022   */\n      swap1\n      pop\n        /* \"#utility.yul\":2031:2064   */\n      tag_432\n        /* \"#utility.yul\":2058:2063   */\n      dup2\n        /* \"#utility.yul\":2031:2064   */\n      tag_372\n      jump\t// in\n    tag_432:\n        /* \"#utility.yul\":1931:2070   */\n      swap3\n      swap2\n      pop\n      pop\n      jump\t// out\n        /* \"#utility.yul\":2076:2153   */\n    tag_374:\n        /* \"#utility.yul\":2113:2120   */\n      0x00\n        /* \"#utility.yul\":2142:2147   */\n      dup2\n        /* \"#utility.yul\":2131:2147   */\n      swap1\n      pop\n        /* \"#utility.yul\":2076:2153   */\n      swap2\n      swap1\n      pop\n      jump\t// out\n        /* \"#utility.yul\":2159:2281   */\n    tag_375:\n        /* \"#utility.yul\":2232:2256   */\n      tag_435\n        /* \"#utility.yul\":2250:2255   */\n      dup2\n        /* \"#utility.yul\":2232:2256   */\n      tag_374\n      jump\t// in\n    tag_435:\n        /* \"#utility.yul\":2225:2230   */\n      dup2\n        /* \"#utility.yul\":2222:2257   */\n      eq\n        /* \"#utility.yul\":2212:2275   */\n      tag_436\n      jumpi\n        /* \"#utility.yul\":2271:2272   */\n      0x00\n        /* \"#utility.yul\":2268:2269   */\n      dup1\n        /* \"#utility.yul\":2261:2273   */\n      revert\n        /* \"#utility.yul\":2212:2275   */\n    tag_436:\n        /* \"#utility.yul\":2159:2281   */\n      pop\n      jump\t// out\n        /* \"#utility.yul\":2287:2426   */\n    tag_376:\n        /* \"#utility.yul\":2333:2338   */\n      0x00\n        /* \"#utility.yul\":2371:2377   */\n      dup2\n        /* \"#utility.yul\":2358:2378   */\n      calldataload\n        /* \"#utility.yul\":2349:2378   */\n      swap1\n      pop\n        /* \"#utility.yul\":2387:2420   */\n      tag_438\n        /* \"#utility.yul\":2414:2419   */\n      dup2\n        /* \"#utility.yul\":2387:2420   */\n      tag_375\n      jump\t// in\n    tag_438:\n        /* \"#utility.yul\":2287:2426   */\n      swap3\n      swap2\n      pop\n      pop\n      jump\t// out\n        /* \"#utility.yul\":2432:2906   */\n    tag_42:\n        /* \"#utility.yul\":2500:2506   */\n      0x00\n        /* \"#utility.yul\":2508:2514   */\n      dup1\n        /* \"#utility.yul\":2557:2559   */\n      0x40\n        /* \"#utility.yul\":2545:2554   */\n      dup4\n        /* \"#utility.yul\":2536:2543   */\n      dup6\n        /* \"#utility.yul\":2532:2555   */\n      sub\n        /* \"#utility.yul\":2528:2560   */\n      slt\n        /* \"#utility.yul\":2525:2644   */\n      iszero\n      tag_440\n      jumpi\n        /* \"#utility.yul\":2563:2642   */\n      tag_441\n      tag_368\n      jump\t// in\n    tag_441:\n        /* \"#utility.yul\":2525:2644   */\n    tag_440:\n        /* \"#utility.yul\":2683:2684   */\n      0x00\n        /* \"#utility.yul\":2708:2761   */\n      tag_442\n        /* \"#utility.yul\":2753:2760   */\n      dup6\n        /* \"#utility.yul\":2744:2750   */\n      dup3\n        /* \"#utility.yul\":2733:2742   */\n      dup7\n        /* \"#utility.yul\":2729:2751   */\n      add\n        /* \"#utility.yul\":2708:2761   */\n      tag_373\n      jump\t// in\n    tag_442:\n        /* \"#utility.yul\":2698:2761   */\n      swap3\n      pop\n        /* \"#utility.yul\":2654:2771   */\n      pop\n        /* \"#utility.yul\":2810:2812   */\n      0x20\n        /* \"#utility.yul\":2836:2889   */\n      tag_443\n        /* \"#utility.yul\":2881:2888   */\n      dup6\n        /* \"#utility.yul\":2872:2878   */\n      dup3\n        /* \"#utility.yul\":2861:2870   */\n      dup7\n        /* \"#utility.yul\":2857:2879   */\n      add\n        /* \"#utility.yul\":2836:2889   */\n      tag_376\n      jump\t// in\n    tag_443:\n        /* \"#utility.yul\":2826:2889   */\n      swap2\n      pop\n        /* \"#utility.yul\":2781:2899   */\n      pop\n        /* \"#utility.yul\":2432:2906   */\n      swap3\n      pop\n      swap3\n      swap1\n      pop\n      jump\t// out\n        /* \"#utility.yul\":2912:3002   */\n    tag_377:\n        /* \"#utility.yul\":2946:2953   */\n      0x00\n        /* \"#utility.yul\":2989:2994   */\n      dup2\n        /* \"#utility.yul\":2982:2995   */\n      iszero\n        /* \"#utility.yul\":2975:2996   */\n      iszero\n        /* \"#utility.yul\":2964:2996   */\n      swap1\n      pop\n        /* \"#utility.yul\":2912:3002   */\n      swap2\n      swap1\n      pop\n      jump\t// out\n        /* \"#utility.yul\":3008:3117   */\n    tag_378:\n        /* \"#utility.yul\":3089:3110   */\n      tag_446\n        /* \"#utility.yul\":3104:3109   */\n      dup2\n        /* \"#utility.yul\":3089:3110   */\n      tag_377\n      jump\t// in\n    tag_446:\n        /* \"#utility.yul\":3084:3087   */\n      dup3\n        /* \"#utility.yul\":3077:3111   */\n      mstore\n        /* \"#utility.yul\":3008:3117   */\n      pop\n      pop\n      jump\t// out\n        /* \"#utility.yul\":3123:3333   */\n    tag_45:\n        /* \"#utility.yul\":3210:3214   */\n      0x00\n        /* \"#utility.yul\":3248:3250   */\n      0x20\n        /* \"#utility.yul\":3237:3246   */\n      dup3\n        /* \"#utility.yul\":3233:3251   */\n      add\n        /* \"#utility.yul\":3225:3251   */\n      swap1\n      pop\n        /* \"#utility.yul\":3261:3326   */\n      tag_448\n        /* \"#utility.yul\":3323:3324   */\n      0x00\n        /* \"#utility.yul\":3312:3321   */\n      dup4\n        /* \"#utility.yul\":3308:3325   */\n      add\n        /* \"#utility.yul\":3299:3305   */\n      dup5\n        /* \"#utility.yul\":3261:3326   */\n      tag_378\n      jump\t// in\n    tag_448:\n        /* \"#utility.yul\":3123:3333   */\n      swap3\n      swap2\n      pop\n      pop\n      jump\t// out\n        /* \"#utility.yul\":3339:3457   */\n    tag_379:\n        /* \"#utility.yul\":3426:3450   */\n      tag_450\n        /* \"#utility.yul\":3444:3449   */\n      dup2\n        /* \"#utility.yul\":3426:3450   */\n      tag_374\n      jump\t// in\n    tag_450:\n        /* \"#utility.yul\":3421:3424   */\n      dup3\n        /* \"#utility.yul\":3414:3451   */\n      mstore\n        /* \"#utility.yul\":3339:3457   */\n      pop\n      pop\n      jump\t// out\n        /* \"#utility.yul\":3463:3685   */\n    tag_49:\n        /* \"#utility.yul\":3556:3560   */\n      0x00\n        /* \"#utility.yul\":3594:3596   */\n      0x20\n        /* \"#utility.yul\":3583:3592   */\n      dup3\n        /* \"#utility.yul\":3579:3597   */\n      add\n        /* \"#utility.yul\":3571:3597   */\n      swap1\n      pop\n        /* \"#utility.yul\":3607:3678   */\n      tag_452\n        /* \"#utility.yul\":3675:3676   */\n      0x00\n        /* \"#utility.yul\":3664:3673   */\n      dup4\n        /* \"#utility.yul\":3660:3677   */\n      add\n        /* \"#utility.yul\":3651:3657   */\n      dup5\n        /* \"#utility.yul\":3607:3678   */\n      tag_379\n      jump\t// in\n    tag_452:\n        /* \"#utility.yul\":3463:3685   */\n      swap3\n      swap2\n      pop\n      pop\n      jump\t// out\n        /* \"#utility.yul\":3691:4020   */\n    tag_52:\n        /* \"#utility.yul\":3750:3756   */\n      0x00\n        /* \"#utility.yul\":3799:3801   */\n      0x20\n        /* \"#utility.yul\":3787:3796   */\n      dup3\n        /* \"#utility.yul\":3778:3785   */\n      dup5\n        /* \"#utility.yul\":3774:3797   */\n      sub\n        /* \"#utility.yul\":3770:3802   */\n      slt\n        /* \"#utility.yul\":3767:3886   */\n      iszero\n      tag_454\n      jumpi\n        /* \"#utility.yul\":3805:3884   */\n      tag_455\n      tag_368\n      jump\t// in\n    tag_455:\n        /* \"#utility.yul\":3767:3886   */\n    tag_454:\n        /* \"#utility.yul\":3925:3926   */\n      0x00\n        /* \"#utility.yul\":3950:4003   */\n      tag_456\n        /* \"#utility.yul\":3995:4002   */\n      dup5\n        /* \"#utility.yul\":3986:3992   */\n      dup3\n        /* \"#utility.yul\":3975:3984   */\n      dup6\n        /* \"#utility.yul\":3971:3993   */\n      add\n        /* \"#utility.yul\":3950:4003   */\n      tag_373\n      jump\t// in\n    tag_456:\n        /* \"#utility.yul\":3940:4003   */\n      swap2\n      pop\n        /* \"#utility.yul\":3896:4013   */\n      pop\n        /* \"#utility.yul\":3691:4020   */\n      swap3\n      swap2\n      pop\n      pop\n      jump\t// out\n        /* \"#utility.yul\":4026:4358   */\n    tag_55:\n        /* \"#utility.yul\":4147:4151   */\n      0x00\n        /* \"#utility.yul\":4185:4187   */\n      0x40\n        /* \"#utility.yul\":4174:4183   */\n      dup3\n        /* \"#utility.yul\":4170:4188   */\n      add\n        /* \"#utility.yul\":4162:4188   */\n      swap1\n      pop\n        /* \"#utility.yul\":4198:4269   */\n      tag_458\n        /* \"#utility.yul\":4266:4267   */\n      0x00\n        /* \"#utility.yul\":4255:4264   */\n      dup4\n        /* \"#utility.yul\":4251:4268   */\n      add\n        /* \"#utility.yul\":4242:4248   */\n      dup6\n        /* \"#utility.yul\":4198:4269   */\n      tag_379\n      jump\t// in\n    tag_458:\n        /* \"#utility.yul\":4279:4351   */\n      tag_459\n        /* \"#utility.yul\":4347:4349   */\n      0x20\n        /* \"#utility.yul\":4336:4345   */\n      dup4\n        /* \"#utility.yul\":4332:4350   */\n      add\n        /* \"#utility.yul\":4323:4329   */\n      dup5\n        /* \"#utility.yul\":4279:4351   */\n      tag_379\n      jump\t// in\n    tag_459:\n        /* \"#utility.yul\":4026:4358   */\n      swap4\n      swap3\n      pop\n      pop\n      pop\n      jump\t// out\n        /* \"#utility.yul\":4364:4983   */\n    tag_58:\n        /* \"#utility.yul\":4441:4447   */\n      0x00\n        /* \"#utility.yul\":4449:4455   */\n      dup1\n        /* \"#utility.yul\":4457:4463   */\n      0x00\n        /* \"#utility.yul\":4506:4508   */\n      0x60\n        /* \"#utility.yul\":4494:4503   */\n      dup5\n        /* \"#utility.yul\":4485:4492   */\n      dup7\n        /* \"#utility.yul\":4481:4504   */\n      sub\n        /* \"#utility.yul\":4477:4509   */\n      slt\n        /* \"#utility.yul\":4474:4593   */\n      iszero\n      tag_461\n      jumpi\n        /* \"#utility.yul\":4512:4591   */\n      tag_462\n      tag_368\n      jump\t// in\n    tag_462:\n        /* \"#utility.yul\":4474:4593   */\n    tag_461:\n        /* \"#utility.yul\":4632:4633   */\n      0x00\n        /* \"#utility.yul\":4657:4710   */\n      tag_463\n        /* \"#utility.yul\":4702:4709   */\n      dup7\n        /* \"#utility.yul\":4693:4699   */\n      dup3\n        /* \"#utility.yul\":4682:4691   */\n      dup8\n        /* \"#utility.yul\":4678:4700   */\n      add\n        /* \"#utility.yul\":4657:4710   */\n      tag_373\n      jump\t// in\n    tag_463:\n        /* \"#utility.yul\":4647:4710   */\n      swap4\n      pop\n        /* \"#utility.yul\":4603:4720   */\n      pop\n        /* \"#utility.yul\":4759:4761   */\n      0x20\n        /* \"#utility.yul\":4785:4838   */\n      tag_464\n        /* \"#utility.yul\":4830:4837   */\n      dup7\n        /* \"#utility.yul\":4821:4827   */\n      dup3\n        /* \"#utility.yul\":4810:4819   */\n      dup8\n        /* \"#utility.yul\":4806:4828   */\n      add\n        /* \"#utility.yul\":4785:4838   */\n      tag_373\n      jump\t// in\n    tag_464:\n        /* \"#utility.yul\":4775:4838   */\n      swap3\n      pop\n        /* \"#utility.yul\":4730:4848   */\n      pop\n        /* \"#utility.yul\":4887:4889   */\n      0x40\n        /* \"#utility.yul\":4913:4966   */\n      tag_465\n        /* \"#utility.yul\":4958:4965   */\n      dup7\n        /* \"#utility.yul\":4949:4955   */\n      dup3\n        /* \"#utility.yul\":4938:4947   */\n      dup8\n        /* \"#utility.yul\":4934:4956   */\n      add\n        /* \"#utility.yul\":4913:4966   */\n      tag_376\n      jump\t// in\n    tag_465:\n        /* \"#utility.yul\":4903:4966   */\n      swap2\n      pop\n        /* \"#utility.yul\":4858:4976   */\n      pop\n        /* \"#utility.yul\":4364:4983   */\n      swap3\n      pop\n      swap3\n      pop\n      swap3\n      jump\t// out\n        /* \"#utility.yul\":4989:5049   */\n    tag_380:\n        /* \"#utility.yul\":5017:5020   */\n      0x00\n        /* \"#utility.yul\":5038:5043   */\n      dup2\n        /* \"#utility.yul\":5031:5043   */\n      swap1\n      pop\n        /* \"#utility.yul\":4989:5049   */\n      swap2\n      swap1\n      pop\n      jump\t// out\n        /* \"#utility.yul\":5055:5197   */\n    tag_381:\n        /* \"#utility.yul\":5105:5114   */\n      0x00\n        /* \"#utility.yul\":5138:5191   */\n      tag_468\n        /* \"#utility.yul\":5156:5190   */\n      tag_469\n        /* \"#utility.yul\":5165:5189   */\n      tag_470\n        /* \"#utility.yul\":5183:5188   */\n      dup5\n        /* \"#utility.yul\":5165:5189   */\n      tag_370\n      jump\t// in\n    tag_470:\n        /* \"#utility.yul\":5156:5190   */\n      tag_380\n      jump\t// in\n    tag_469:\n        /* \"#utility.yul\":5138:5191   */\n      tag_370\n      jump\t// in\n    tag_468:\n        /* \"#utility.yul\":5125:5191   */\n      swap1\n      pop\n        /* \"#utility.yul\":5055:5197   */\n      swap2\n      swap1\n      pop\n      jump\t// out\n        /* \"#utility.yul\":5203:5329   */\n    tag_382:\n        /* \"#utility.yul\":5253:5262   */\n      0x00\n        /* \"#utility.yul\":5286:5323   */\n      tag_472\n        /* \"#utility.yul\":5317:5322   */\n      dup3\n        /* \"#utility.yul\":5286:5323   */\n      tag_381\n      jump\t// in\n    tag_472:\n        /* \"#utility.yul\":5273:5323   */\n      swap1\n      pop\n        /* \"#utility.yul\":5203:5329   */\n      swap2\n      swap1\n      pop\n      jump\t// out\n        /* \"#utility.yul\":5335:5479   */\n    tag_383:\n        /* \"#utility.yul\":5403:5412   */\n      0x00\n        /* \"#utility.yul\":5436:5473   */\n      tag_474\n        /* \"#utility.yul\":5467:5472   */\n      dup3\n        /* \"#utility.yul\":5436:5473   */\n      tag_382\n      jump\t// in\n    tag_474:\n        /* \"#utility.yul\":5423:5473   */\n      swap1\n      pop\n        /* \"#utility.yul\":5335:5479   */\n      swap2\n      swap1\n      pop\n      jump\t// out\n        /* \"#utility.yul\":5485:5652   */\n    tag_384:\n        /* \"#utility.yul\":5590:5645   */\n      tag_476\n        /* \"#utility.yul\":5639:5644   */\n      dup2\n        /* \"#utility.yul\":5590:5645   */\n      tag_383\n      jump\t// in\n    tag_476:\n        /* \"#utility.yul\":5585:5588   */\n      dup3\n        /* \"#utility.yul\":5578:5646   */\n      mstore\n        /* \"#utility.yul\":5485:5652   */\n      pop\n      pop\n      jump\t// out\n        /* \"#utility.yul\":5658:5916   */\n    tag_64:\n        /* \"#utility.yul\":5769:5773   */\n      0x00\n        /* \"#utility.yul\":5807:5809   */\n      0x20\n        /* \"#utility.yul\":5796:5805   */\n      dup3\n        /* \"#utility.yul\":5792:5810   */\n      add\n        /* \"#utility.yul\":5784:5810   */\n      swap1\n      pop\n        /* \"#utility.yul\":5820:5909   */\n      tag_478\n        /* \"#utility.yul\":5906:5907   */\n      0x00\n        /* \"#utility.yul\":5895:5904   */\n      dup4\n        /* \"#utility.yul\":5891:5908   */\n      add\n        /* \"#utility.yul\":5882:5888   */\n      dup5\n        /* \"#utility.yul\":5820:5909   */\n      tag_384\n      jump\t// in\n    tag_478:\n        /* \"#utility.yul\":5658:5916   */\n      swap3\n      swap2\n      pop\n      pop\n      jump\t// out\n        /* \"#utility.yul\":5922:6008   */\n    tag_385:\n        /* \"#utility.yul\":5957:5964   */\n      0x00\n        /* \"#utility.yul\":5997:6001   */\n      0xff\n        /* \"#utility.yul\":5990:5995   */\n      dup3\n        /* \"#utility.yul\":5986:6002   */\n      and\n        /* \"#utility.yul\":5975:6002   */\n      swap1\n      pop\n        /* \"#utility.yul\":5922:6008   */\n      swap2\n      swap1\n      pop\n      jump\t// out\n        /* \"#utility.yul\":6014:6126   */\n    tag_386:\n        /* \"#utility.yul\":6097:6119   */\n      tag_481\n        /* \"#utility.yul\":6113:6118   */\n      dup2\n        /* \"#utility.yul\":6097:6119   */\n      tag_385\n      jump\t// in\n    tag_481:\n        /* \"#utility.yul\":6092:6095   */\n      dup3\n        /* \"#utility.yul\":6085:6120   */\n      mstore\n        /* \"#utility.yul\":6014:6126   */\n      pop\n      pop\n      jump\t// out\n        /* \"#utility.yul\":6132:6346   */\n    tag_71:\n        /* \"#utility.yul\":6221:6225   */\n      0x00\n        /* \"#utility.yul\":6259:6261   */\n      0x20\n        /* \"#utility.yul\":6248:6257   */\n      dup3\n        /* \"#utility.yul\":6244:6262   */\n      add\n        /* \"#utility.yul\":6236:6262   */\n      swap1\n      pop\n        /* \"#utility.yul\":6272:6339   */\n      tag_483\n        /* \"#utility.yul\":6336:6337   */\n      0x00\n        /* \"#utility.yul\":6325:6334   */\n      dup4\n        /* \"#utility.yul\":6321:6338   */\n      add\n        /* \"#utility.yul\":6312:6318   */\n      dup5\n        /* \"#utility.yul\":6272:6339   */\n      tag_386\n      jump\t// in\n    tag_483:\n        /* \"#utility.yul\":6132:6346   */\n      swap3\n      swap2\n      pop\n      pop\n      jump\t// out\n        /* \"#utility.yul\":6352:6826   */\n    tag_79:\n        /* \"#utility.yul\":6420:6426   */\n      0x00\n        /* \"#utility.yul\":6428:6434   */\n      dup1\n        /* \"#utility.yul\":6477:6479   */\n      0x40\n        /* \"#utility.yul\":6465:6474   */\n      dup4\n        /* \"#utility.yul\":6456:6463   */\n      dup6\n        /* \"#utility.yul\":6452:6475   */\n      sub\n        /* \"#utility.yul\":6448:6480   */\n      slt\n        /* \"#utility.yul\":6445:6564   */\n      iszero\n      tag_485\n      jumpi\n        /* \"#utility.yul\":6483:6562   */\n      tag_486\n      tag_368\n      jump\t// in\n    tag_486:\n        /* \"#utility.yul\":6445:6564   */\n    tag_485:\n        /* \"#utility.yul\":6603:6604   */\n      0x00\n        /* \"#utility.yul\":6628:6681   */\n      tag_487\n        /* \"#utility.yul\":6673:6680   */\n      dup6\n        /* \"#utility.yul\":6664:6670   */\n      dup3\n        /* \"#utility.yul\":6653:6662   */\n      dup7\n        /* \"#utility.yul\":6649:6671   */\n      add\n        /* \"#utility.yul\":6628:6681   */\n      tag_376\n      jump\t// in\n    tag_487:\n        /* \"#utility.yul\":6618:6681   */\n      swap3\n      pop\n        /* \"#utility.yul\":6574:6691   */\n      pop\n        /* \"#utility.yul\":6730:6732   */\n      0x20\n        /* \"#utility.yul\":6756:6809   */\n      tag_488\n        /* \"#utility.yul\":6801:6808   */\n      dup6\n        /* \"#utility.yul\":6792:6798   */\n      dup3\n        /* \"#utility.yul\":6781:6790   */\n      dup7\n        /* \"#utility.yul\":6777:6799   */\n      add\n        /* \"#utility.yul\":6756:6809   */\n      tag_376\n      jump\t// in\n    tag_488:\n        /* \"#utility.yul\":6746:6809   */\n      swap2\n      pop\n        /* \"#utility.yul\":6701:6819   */\n      pop\n        /* \"#utility.yul\":6352:6826   */\n      swap3\n      pop\n      swap3\n      swap1\n      pop\n      jump\t// out\n        /* \"#utility.yul\":6832:6950   */\n    tag_387:\n        /* \"#utility.yul\":6919:6943   */\n      tag_490\n        /* \"#utility.yul\":6937:6942   */\n      dup2\n        /* \"#utility.yul\":6919:6943   */\n      tag_371\n      jump\t// in\n    tag_490:\n        /* \"#utility.yul\":6914:6917   */\n      dup3\n        /* \"#utility.yul\":6907:6944   */\n      mstore\n        /* \"#utility.yul\":6832:6950   */\n      pop\n      pop\n      jump\t// out\n        /* \"#utility.yul\":6956:7178   */\n    tag_98:\n        /* \"#utility.yul\":7049:7053   */\n      0x00\n        /* \"#utility.yul\":7087:7089   */\n      0x20\n        /* \"#utility.yul\":7076:7085   */\n      dup3\n        /* \"#utility.yul\":7072:7090   */\n      add\n        /* \"#utility.yul\":7064:7090   */\n      swap1\n      pop\n        /* \"#utility.yul\":7100:7171   */\n      tag_492\n        /* \"#utility.yul\":7168:7169   */\n      0x00\n        /* \"#utility.yul\":7157:7166   */\n      dup4\n        /* \"#utility.yul\":7153:7170   */\n      add\n        /* \"#utility.yul\":7144:7150   */\n      dup5\n        /* \"#utility.yul\":7100:7171   */\n      tag_387\n      jump\t// in\n    tag_492:\n        /* \"#utility.yul\":6956:7178   */\n      swap3\n      swap2\n      pop\n      pop\n      jump\t// out\n        /* \"#utility.yul\":7184:7513   */\n    tag_104:\n        /* \"#utility.yul\":7243:7249   */\n      0x00\n        /* \"#utility.yul\":7292:7294   */\n      0x20\n        /* \"#utility.yul\":7280:7289   */\n      dup3\n        /* \"#utility.yul\":7271:7278   */\n      dup5\n        /* \"#utility.yul\":7267:7290   */\n      sub\n        /* \"#utility.yul\":7263:7295   */\n      slt\n        /* \"#utility.yul\":7260:7379   */\n      iszero\n      tag_494\n      jumpi\n        /* \"#utility.yul\":7298:7377   */\n      tag_495\n      tag_368\n      jump\t// in\n    tag_495:\n        /* \"#utility.yul\":7260:7379   */\n    tag_494:\n        /* \"#utility.yul\":7418:7419   */\n      0x00\n        /* \"#utility.yul\":7443:7496   */\n      tag_496\n        /* \"#utility.yul\":7488:7495   */\n      dup5\n        /* \"#utility.yul\":7479:7485   */\n      dup3\n        /* \"#utility.yul\":7468:7477   */\n      dup6\n        /* \"#utility.yul\":7464:7486   */\n      add\n        /* \"#utility.yul\":7443:7496   */\n      tag_376\n      jump\t// in\n    tag_496:\n        /* \"#utility.yul\":7433:7496   */\n      swap2\n      pop\n        /* \"#utility.yul\":7389:7506   */\n      pop\n        /* \"#utility.yul\":7184:7513   */\n      swap3\n      swap2\n      pop\n      pop\n      jump\t// out\n        /* \"#utility.yul\":7519:7993   */\n    tag_122:\n        /* \"#utility.yul\":7587:7593   */\n      0x00\n        /* \"#utility.yul\":7595:7601   */\n      dup1\n        /* \"#utility.yul\":7644:7646   */\n      0x40\n        /* \"#utility.yul\":7632:7641   */\n      dup4\n        /* \"#utility.yul\":7623:7630   */\n      dup6\n        /* \"#utility.yul\":7619:7642   */\n      sub\n        /* \"#utility.yul\":7615:7647   */\n      slt\n        /* \"#utility.yul\":7612:7731   */\n      iszero\n      tag_498\n      jumpi\n        /* \"#utility.yul\":7650:7729   */\n      tag_499\n      tag_368\n      jump\t// in\n    tag_499:\n        /* \"#utility.yul\":7612:7731   */\n    tag_498:\n        /* \"#utility.yul\":7770:7771   */\n      0x00\n        /* \"#utility.yul\":7795:7848   */\n      tag_500\n        /* \"#utility.yul\":7840:7847   */\n      dup6\n        /* \"#utility.yul\":7831:7837   */\n      dup3\n        /* \"#utility.yul\":7820:7829   */\n      dup7\n        /* \"#utility.yul\":7816:7838   */\n      add\n        /* \"#utility.yul\":7795:7848   */\n      tag_373\n      jump\t// in\n    tag_500:\n        /* \"#utility.yul\":7785:7848   */\n      swap3\n      pop\n        /* \"#utility.yul\":7741:7858   */\n      pop\n        /* \"#utility.yul\":7897:7899   */\n      0x20\n        /* \"#utility.yul\":7923:7976   */\n      tag_501\n        /* \"#utility.yul\":7968:7975   */\n      dup6\n        /* \"#utility.yul\":7959:7965   */\n      dup3\n        /* \"#utility.yul\":7948:7957   */\n      dup7\n        /* \"#utility.yul\":7944:7966   */\n      add\n        /* \"#utility.yul\":7923:7976   */\n      tag_373\n      jump\t// in\n    tag_501:\n        /* \"#utility.yul\":7913:7976   */\n      swap2\n      pop\n        /* \"#utility.yul\":7868:7986   */\n      pop\n        /* \"#utility.yul\":7519:7993   */\n      swap3\n      pop\n      swap3\n      swap1\n      pop\n      jump\t// out\n        /* \"#utility.yul\":7999:8618   */\n    tag_130:\n        /* \"#utility.yul\":8076:8082   */\n      0x00\n        /* \"#utility.yul\":8084:8090   */\n      dup1\n        /* \"#utility.yul\":8092:8098   */\n      0x00\n        /* \"#utility.yul\":8141:8143   */\n      0x60\n        /* \"#utility.yul\":8129:8138   */\n      dup5\n        /* \"#utility.yul\":8120:8127   */\n      dup7\n        /* \"#utility.yul\":8116:8139   */\n      sub\n        /* \"#utility.yul\":8112:8144   */\n      slt\n        /* \"#utility.yul\":8109:8228   */\n      iszero\n      tag_503\n      jumpi\n        /* \"#utility.yul\":8147:8226   */\n      tag_504\n      tag_368\n      jump\t// in\n    tag_504:\n        /* \"#utility.yul\":8109:8228   */\n    tag_503:\n        /* \"#utility.yul\":8267:8268   */\n      0x00\n        /* \"#utility.yul\":8292:8345   */\n      tag_505\n        /* \"#utility.yul\":8337:8344   */\n      dup7\n        /* \"#utility.yul\":8328:8334   */\n      dup3\n        /* \"#utility.yul\":8317:8326   */\n      dup8\n        /* \"#utility.yul\":8313:8335   */\n      add\n        /* \"#utility.yul\":8292:8345   */\n      tag_376\n      jump\t// in\n    tag_505:\n        /* \"#utility.yul\":8282:8345   */\n      swap4\n      pop\n        /* \"#utility.yul\":8238:8355   */\n      pop\n        /* \"#utility.yul\":8394:8396   */\n      0x20\n        /* \"#utility.yul\":8420:8473   */\n      tag_506\n        /* \"#utility.yul\":8465:8472   */\n      dup7\n        /* \"#utility.yul\":8456:8462   */\n      dup3\n        /* \"#utility.yul\":8445:8454   */\n      dup8\n        /* \"#utility.yul\":8441:8463   */\n      add\n        /* \"#utility.yul\":8420:8473   */\n      tag_373\n      jump\t// in\n    tag_506:\n        /* \"#utility.yul\":8410:8473   */\n      swap3\n      pop\n        /* \"#utility.yul\":8365:8483   */\n      pop\n        /* \"#utility.yul\":8522:8524   */\n      0x40\n        /* \"#utility.yul\":8548:8601   */\n      tag_507\n        /* \"#utility.yul\":8593:8600   */\n      dup7\n        /* \"#utility.yul\":8584:8590   */\n      dup3\n        /* \"#utility.yul\":8573:8582   */\n      dup8\n        /* \"#utility.yul\":8569:8591   */\n      add\n        /* \"#utility.yul\":8548:8601   */\n      tag_376\n      jump\t// in\n    tag_507:\n        /* \"#utility.yul\":8538:8601   */\n      swap2\n      pop\n        /* \"#utility.yul\":8493:8611   */\n      pop\n        /* \"#utility.yul\":7999:8618   */\n      swap3\n      pop\n      swap3\n      pop\n      swap3\n      jump\t// out\n        /* \"#utility.yul\":8624:8732   */\n    tag_388:\n        /* \"#utility.yul\":8701:8725   */\n      tag_509\n        /* \"#utility.yul\":8719:8724   */\n      dup2\n        /* \"#utility.yul\":8701:8725   */\n      tag_374\n      jump\t// in\n    tag_509:\n        /* \"#utility.yul\":8696:8699   */\n      dup3\n        /* \"#utility.yul\":8689:8726   */\n      mstore\n        /* \"#utility.yul\":8624:8732   */\n      pop\n      pop\n      jump\t// out\n        /* \"#utility.yul\":8738:8837   */\n    tag_389:\n        /* \"#utility.yul\":8809:8830   */\n      tag_511\n        /* \"#utility.yul\":8824:8829   */\n      dup2\n        /* \"#utility.yul\":8809:8830   */\n      tag_377\n      jump\t// in\n    tag_511:\n        /* \"#utility.yul\":8804:8807   */\n      dup3\n        /* \"#utility.yul\":8797:8831   */\n      mstore\n        /* \"#utility.yul\":8738:8837   */\n      pop\n      pop\n      jump\t// out\n        /* \"#utility.yul\":8923:9645   */\n    tag_390:\n        /* \"#utility.yul\":9090:9094   */\n      0x60\n        /* \"#utility.yul\":9085:9088   */\n      dup3\n        /* \"#utility.yul\":9081:9095   */\n      add\n        /* \"#utility.yul\":9183:9187   */\n      0x00\n        /* \"#utility.yul\":9176:9181   */\n      dup3\n        /* \"#utility.yul\":9172:9188   */\n      add\n        /* \"#utility.yul\":9166:9189   */\n      mload\n        /* \"#utility.yul\":9202:9265   */\n      tag_513\n        /* \"#utility.yul\":9259:9263   */\n      0x00\n        /* \"#utility.yul\":9254:9257   */\n      dup6\n        /* \"#utility.yul\":9250:9264   */\n      add\n        /* \"#utility.yul\":9236:9248   */\n      dup3\n        /* \"#utility.yul\":9202:9265   */\n      tag_388\n      jump\t// in\n    tag_513:\n        /* \"#utility.yul\":9105:9275   */\n      pop\n        /* \"#utility.yul\":9366:9370   */\n      0x20\n        /* \"#utility.yul\":9359:9364   */\n      dup3\n        /* \"#utility.yul\":9355:9371   */\n      add\n        /* \"#utility.yul\":9349:9372   */\n      mload\n        /* \"#utility.yul\":9385:9448   */\n      tag_514\n        /* \"#utility.yul\":9442:9446   */\n      0x20\n        /* \"#utility.yul\":9437:9440   */\n      dup6\n        /* \"#utility.yul\":9433:9447   */\n      add\n        /* \"#utility.yul\":9419:9431   */\n      dup3\n        /* \"#utility.yul\":9385:9448   */\n      tag_388\n      jump\t// in\n    tag_514:\n        /* \"#utility.yul\":9285:9458   */\n      pop\n        /* \"#utility.yul\":9552:9556   */\n      0x40\n        /* \"#utility.yul\":9545:9550   */\n      dup3\n        /* \"#utility.yul\":9541:9557   */\n      add\n        /* \"#utility.yul\":9535:9558   */\n      mload\n        /* \"#utility.yul\":9571:9628   */\n      tag_515\n        /* \"#utility.yul\":9622:9626   */\n      0x40\n        /* \"#utility.yul\":9617:9620   */\n      dup6\n        /* \"#utility.yul\":9613:9627   */\n      add\n        /* \"#utility.yul\":9599:9611   */\n      dup3\n        /* \"#utility.yul\":9571:9628   */\n      tag_389\n      jump\t// in\n    tag_515:\n        /* \"#utility.yul\":9468:9638   */\n      pop\n        /* \"#utility.yul\":9059:9645   */\n      pop\n        /* \"#utility.yul\":8923:9645   */\n      pop\n      pop\n      jump\t// out\n        /* \"#utility.yul\":9651:10013   */\n    tag_133:\n        /* \"#utility.yul\":9814:9818   */\n      0x00\n        /* \"#utility.yul\":9852:9854   */\n      0x60\n        /* \"#utility.yul\":9841:9850   */\n      dup3\n        /* \"#utility.yul\":9837:9855   */\n      add\n        /* \"#utility.yul\":9829:9855   */\n      swap1\n      pop\n        /* \"#utility.yul\":9865:10006   */\n      tag_517\n        /* \"#utility.yul\":10003:10004   */\n      0x00\n        /* \"#utility.yul\":9992:10001   */\n      dup4\n        /* \"#utility.yul\":9988:10005   */\n      add\n        /* \"#utility.yul\":9979:9985   */\n      dup5\n        /* \"#utility.yul\":9865:10006   */\n      tag_390\n      jump\t// in\n    tag_517:\n        /* \"#utility.yul\":9651:10013   */\n      swap3\n      swap2\n      pop\n      pop\n      jump\t// out\n        /* \"#utility.yul\":10019:10199   */\n    tag_391:\n        /* \"#utility.yul\":10067:10144   */\n      0x4e487b7100000000000000000000000000000000000000000000000000000000\n        /* \"#utility.yul\":10064:10065   */\n      0x00\n        /* \"#utility.yul\":10057:10145   */\n      mstore\n        /* \"#utility.yul\":10164:10168   */\n      0x22\n        /* \"#utility.yul\":10161:10162   */\n      0x04\n        /* \"#utility.yul\":10154:10169   */\n      mstore\n        /* \"#utility.yul\":10188:10192   */\n      0x24\n        /* \"#utility.yul\":10185:10186   */\n      0x00\n        /* \"#utility.yul\":10178:10193   */\n      revert\n        /* \"#utility.yul\":10205:10525   */\n    tag_139:\n        /* \"#utility.yul\":10249:10255   */\n      0x00\n        /* \"#utility.yul\":10286:10287   */\n      0x02\n        /* \"#utility.yul\":10280:10284   */\n      dup3\n        /* \"#utility.yul\":10276:10288   */\n      div\n        /* \"#utility.yul\":10266:10288   */\n      swap1\n      pop\n        /* \"#utility.yul\":10333:10334   */\n      0x01\n        /* \"#utility.yul\":10327:10331   */\n      dup3\n        /* \"#utility.yul\":10323:10335   */\n      and\n        /* \"#utility.yul\":10354:10372   */\n      dup1\n        /* \"#utility.yul\":10344:10425   */\n      tag_520\n      jumpi\n        /* \"#utility.yul\":10410:10414   */\n      0x7f\n        /* \"#utility.yul\":10402:10408   */\n      dup3\n        /* \"#utility.yul\":10398:10415   */\n      and\n        /* \"#utility.yul\":10388:10415   */\n      swap2\n      pop\n        /* \"#utility.yul\":10344:10425   */\n    tag_520:\n        /* \"#utility.yul\":10472:10474   */\n      0x20\n        /* \"#utility.yul\":10464:10470   */\n      dup3\n        /* \"#utility.yul\":10461:10475   */\n      lt\n        /* \"#utility.yul\":10441:10459   */\n      dup2\n        /* \"#utility.yul\":10438:10476   */\n      sub\n        /* \"#utility.yul\":10435:10519   */\n      tag_521\n      jumpi\n        /* \"#utility.yul\":10491:10509   */\n      tag_522\n      tag_391\n      jump\t// in\n    tag_522:\n        /* \"#utility.yul\":10435:10519   */\n    tag_521:\n        /* \"#utility.yul\":10256:10525   */\n      pop\n        /* \"#utility.yul\":10205:10525   */\n      swap2\n      swap1\n      pop\n      jump\t// out\n        /* \"#utility.yul\":10531:10702   */\n    tag_392:\n        /* \"#utility.yul\":10671:10694   */\n      0x546f6b656e207472616e73666572206661696c65640000000000000000000000\n        /* \"#utility.yul\":10667:10668   */\n      0x00\n        /* \"#utility.yul\":10659:10665   */\n      dup3\n        /* \"#utility.yul\":10655:10669   */\n      add\n        /* \"#utility.yul\":10648:10695   */\n      mstore\n        /* \"#utility.yul\":10531:10702   */\n      pop\n      jump\t// out\n        /* \"#utility.yul\":10708:11074   */\n    tag_393:\n        /* \"#utility.yul\":10850:10853   */\n      0x00\n        /* \"#utility.yul\":10871:10938   */\n      tag_525\n        /* \"#utility.yul\":10935:10937   */\n      0x15\n        /* \"#utility.yul\":10930:10933   */\n      dup4\n        /* \"#utility.yul\":10871:10938   */\n      tag_363\n      jump\t// in\n    tag_525:\n        /* \"#utility.yul\":10864:10938   */\n      swap2\n      pop\n        /* \"#utility.yul\":10947:11040   */\n      tag_526\n        /* \"#utility.yul\":11036:11039   */\n      dup3\n        /* \"#utility.yul\":10947:11040   */\n      tag_392\n      jump\t// in\n    tag_526:\n        /* \"#utility.yul\":11065:11067   */\n      0x20\n        /* \"#utility.yul\":11060:11063   */\n      dup3\n        /* \"#utility.yul\":11056:11068   */\n      add\n        /* \"#utility.yul\":11049:11068   */\n      swap1\n      pop\n        /* \"#utility.yul\":10708:11074   */\n      swap2\n      swap1\n      pop\n      jump\t// out\n        /* \"#utility.yul\":11080:11499   */\n    tag_182:\n        /* \"#utility.yul\":11246:11250   */\n      0x00\n        /* \"#utility.yul\":11284:11286   */\n      0x20\n        /* \"#utility.yul\":11273:11282   */\n      dup3\n        /* \"#utility.yul\":11269:11287   */\n      add\n        /* \"#utility.yul\":11261:11287   */\n      swap1\n      pop\n        /* \"#utility.yul\":11333:11342   */\n      dup2\n        /* \"#utility.yul\":11327:11331   */\n      dup2\n        /* \"#utility.yul\":11323:11343   */\n      sub\n        /* \"#utility.yul\":11319:11320   */\n      0x00\n        /* \"#utility.yul\":11308:11317   */\n      dup4\n        /* \"#utility.yul\":11304:11321   */\n      add\n        /* \"#utility.yul\":11297:11344   */\n      mstore\n        /* \"#utility.yul\":11361:11492   */\n      tag_528\n        /* \"#utility.yul\":11487:11491   */\n      dup2\n        /* \"#utility.yul\":11361:11492   */\n      tag_393\n      jump\t// in\n    tag_528:\n        /* \"#utility.yul\":11353:11492   */\n      swap1\n      pop\n        /* \"#utility.yul\":11080:11499   */\n      swap2\n      swap1\n      pop\n      jump\t// out\n        /* \"#utility.yul\":11505:11685   */\n    tag_394:\n        /* \"#utility.yul\":11553:11630   */\n      0x4e487b7100000000000000000000000000000000000000000000000000000000\n        /* \"#utility.yul\":11550:11551   */\n      0x00\n        /* \"#utility.yul\":11543:11631   */\n      mstore\n        /* \"#utility.yul\":11650:11654   */\n      0x11\n        /* \"#utility.yul\":11647:11648   */\n      0x04\n        /* \"#utility.yul\":11640:11655   */\n      mstore\n        /* \"#utility.yul\":11674:11678   */\n      0x24\n        /* \"#utility.yul\":11671:11672   */\n      0x00\n        /* \"#utility.yul\":11664:11679   */\n      revert\n        /* \"#utility.yul\":11691:11882   */\n    tag_184:\n        /* \"#utility.yul\":11731:11734   */\n      0x00\n        /* \"#utility.yul\":11750:11770   */\n      tag_531\n        /* \"#utility.yul\":11768:11769   */\n      dup3\n        /* \"#utility.yul\":11750:11770   */\n      tag_374\n      jump\t// in\n    tag_531:\n        /* \"#utility.yul\":11745:11770   */\n      swap2\n      pop\n        /* \"#utility.yul\":11784:11804   */\n      tag_532\n        /* \"#utility.yul\":11802:11803   */\n      dup4\n        /* \"#utility.yul\":11784:11804   */\n      tag_374\n      jump\t// in\n    tag_532:\n        /* \"#utility.yul\":11779:11804   */\n      swap3\n      pop\n        /* \"#utility.yul\":11827:11828   */\n      dup3\n        /* \"#utility.yul\":11824:11825   */\n      dup3\n        /* \"#utility.yul\":11820:11829   */\n      add\n        /* \"#utility.yul\":11813:11829   */\n      swap1\n      pop\n        /* \"#utility.yul\":11848:11851   */\n      dup1\n        /* \"#utility.yul\":11845:11846   */\n      dup3\n        /* \"#utility.yul\":11842:11852   */\n      gt\n        /* \"#utility.yul\":11839:11875   */\n      iszero\n      tag_533\n      jumpi\n        /* \"#utility.yul\":11855:11873   */\n      tag_534\n      tag_394\n      jump\t// in\n    tag_534:\n        /* \"#utility.yul\":11839:11875   */\n    tag_533:\n        /* \"#utility.yul\":11691:11882   */\n      swap3\n      swap2\n      pop\n      pop\n      jump\t// out\n        /* \"#utility.yul\":11888:12082   */\n    tag_232:\n        /* \"#utility.yul\":11928:11932   */\n      0x00\n        /* \"#utility.yul\":11948:11968   */\n      tag_536\n        /* \"#utility.yul\":11966:11967   */\n      dup3\n        /* \"#utility.yul\":11948:11968   */\n      tag_374\n      jump\t// in\n    tag_536:\n        /* \"#utility.yul\":11943:11968   */\n      swap2\n      pop\n        /* \"#utility.yul\":11982:12002   */\n      tag_537\n        /* \"#utility.yul\":12000:12001   */\n      dup4\n        /* \"#utility.yul\":11982:12002   */\n      tag_374\n      jump\t// in\n    tag_537:\n        /* \"#utility.yul\":11977:12002   */\n      swap3\n      pop\n        /* \"#utility.yul\":12026:12027   */\n      dup3\n        /* \"#utility.yul\":12023:12024   */\n      dup3\n        /* \"#utility.yul\":12019:12028   */\n      sub\n        /* \"#utility.yul\":12011:12028   */\n      swap1\n      pop\n        /* \"#utility.yul\":12050:12051   */\n      dup2\n        /* \"#utility.yul\":12044:12048   */\n      dup2\n        /* \"#utility.yul\":12041:12052   */\n      gt\n        /* \"#utility.yul\":12038:12075   */\n      iszero\n      tag_538\n      jumpi\n        /* \"#utility.yul\":12055:12073   */\n      tag_539\n      tag_394\n      jump\t// in\n    tag_539:\n        /* \"#utility.yul\":12038:12075   */\n    tag_538:\n        /* \"#utility.yul\":11888:12082   */\n      swap3\n      swap2\n      pop\n      pop\n      jump\t// out\n        /* \"#utility.yul\":12088:12253   */\n    tag_395:\n        /* \"#utility.yul\":12228:12245   */\n      0x5472616e73666572206661696c65640000000000000000000000000000000000\n        /* \"#utility.yul\":12224:12225   */\n      0x00\n        /* \"#utility.yul\":12216:12222   */\n      dup3\n        /* \"#utility.yul\":12212:12226   */\n      add\n        /* \"#utility.yul\":12205:12246   */\n      mstore\n        /* \"#utility.yul\":12088:12253   */\n      pop\n      jump\t// out\n        /* \"#utility.yul\":12259:12625   */\n    tag_396:\n        /* \"#utility.yul\":12401:12404   */\n      0x00\n        /* \"#utility.yul\":12422:12489   */\n      tag_542\n        /* \"#utility.yul\":12486:12488   */\n      0x0f\n        /* \"#utility.yul\":12481:12484   */\n      dup4\n        /* \"#utility.yul\":12422:12489   */\n      tag_363\n      jump\t// in\n    tag_542:\n        /* \"#utility.yul\":12415:12489   */\n      swap2\n      pop\n        /* \"#utility.yul\":12498:12591   */\n      tag_543\n        /* \"#utility.yul\":12587:12590   */\n      dup3\n        /* \"#utility.yul\":12498:12591   */\n      tag_395\n      jump\t// in\n    tag_543:\n        /* \"#utility.yul\":12616:12618   */\n      0x20\n        /* \"#utility.yul\":12611:12614   */\n      dup3\n        /* \"#utility.yul\":12607:12619   */\n      add\n        /* \"#utility.yul\":12600:12619   */\n      swap1\n      pop\n        /* \"#utility.yul\":12259:12625   */\n      swap2\n      swap1\n      pop\n      jump\t// out\n        /* \"#utility.yul\":12631:13050   */\n    tag_236:\n        /* \"#utility.yul\":12797:12801   */\n      0x00\n        /* \"#utility.yul\":12835:12837   */\n      0x20\n        /* \"#utility.yul\":12824:12833   */\n      dup3\n        /* \"#utility.yul\":12820:12838   */\n      add\n        /* \"#utility.yul\":12812:12838   */\n      swap1\n      pop\n        /* \"#utility.yul\":12884:12893   */\n      dup2\n        /* \"#utility.yul\":12878:12882   */\n      dup2\n        /* \"#utility.yul\":12874:12894   */\n      sub\n        /* \"#utility.yul\":12870:12871   */\n      0x00\n        /* \"#utility.yul\":12859:12868   */\n      dup4\n        /* \"#utility.yul\":12855:12872   */\n      add\n        /* \"#utility.yul\":12848:12895   */\n      mstore\n        /* \"#utility.yul\":12912:13043   */\n      tag_545\n        /* \"#utility.yul\":13038:13042   */\n      dup2\n        /* \"#utility.yul\":12912:13043   */\n      tag_396\n      jump\t// in\n    tag_545:\n        /* \"#utility.yul\":12904:13043   */\n      swap1\n      pop\n        /* \"#utility.yul\":12631:13050   */\n      swap2\n      swap1\n      pop\n      jump\t// out\n        /* \"#utility.yul\":13056:13466   */\n    tag_252:\n        /* \"#utility.yul\":13096:13103   */\n      0x00\n        /* \"#utility.yul\":13119:13139   */\n      tag_547\n        /* \"#utility.yul\":13137:13138   */\n      dup3\n        /* \"#utility.yul\":13119:13139   */\n      tag_374\n      jump\t// in\n    tag_547:\n        /* \"#utility.yul\":13114:13139   */\n      swap2\n      pop\n        /* \"#utility.yul\":13153:13173   */\n      tag_548\n        /* \"#utility.yul\":13171:13172   */\n      dup4\n        /* \"#utility.yul\":13153:13173   */\n      tag_374\n      jump\t// in\n    tag_548:\n        /* \"#utility.yul\":13148:13173   */\n      swap3\n      pop\n        /* \"#utility.yul\":13208:13209   */\n      dup3\n        /* \"#utility.yul\":13205:13206   */\n      dup3\n        /* \"#utility.yul\":13201:13210   */\n      mul\n        /* \"#utility.yul\":13230:13260   */\n      tag_549\n        /* \"#utility.yul\":13248:13259   */\n      dup2\n        /* \"#utility.yul\":13230:13260   */\n      tag_374\n      jump\t// in\n    tag_549:\n        /* \"#utility.yul\":13219:13260   */\n      swap2\n      pop\n        /* \"#utility.yul\":13409:13410   */\n      dup3\n        /* \"#utility.yul\":13400:13407   */\n      dup3\n        /* \"#utility.yul\":13396:13411   */\n      div\n        /* \"#utility.yul\":13393:13394   */\n      dup5\n        /* \"#utility.yul\":13390:13412   */\n      eq\n        /* \"#utility.yul\":13370:13371   */\n      dup4\n        /* \"#utility.yul\":13363:13372   */\n      iszero\n        /* \"#utility.yul\":13343:13426   */\n      or\n        /* \"#utility.yul\":13320:13459   */\n      tag_550\n      jumpi\n        /* \"#utility.yul\":13439:13457   */\n      tag_551\n      tag_394\n      jump\t// in\n    tag_551:\n        /* \"#utility.yul\":13320:13459   */\n    tag_550:\n        /* \"#utility.yul\":13104:13466   */\n      pop\n        /* \"#utility.yul\":13056:13466   */\n      swap3\n      swap2\n      pop\n      pop\n      jump\t// out\n        /* \"#utility.yul\":13472:13652   */\n    tag_397:\n        /* \"#utility.yul\":13520:13597   */\n      0x4e487b7100000000000000000000000000000000000000000000000000000000\n        /* \"#utility.yul\":13517:13518   */\n      0x00\n        /* \"#utility.yul\":13510:13598   */\n      mstore\n        /* \"#utility.yul\":13617:13621   */\n      0x12\n        /* \"#utility.yul\":13614:13615   */\n      0x04\n        /* \"#utility.yul\":13607:13622   */\n      mstore\n        /* \"#utility.yul\":13641:13645   */\n      0x24\n        /* \"#utility.yul\":13638:13639   */\n      0x00\n        /* \"#utility.yul\":13631:13646   */\n      revert\n        /* \"#utility.yul\":13658:13843   */\n    tag_254:\n        /* \"#utility.yul\":13698:13699   */\n      0x00\n        /* \"#utility.yul\":13715:13735   */\n      tag_554\n        /* \"#utility.yul\":13733:13734   */\n      dup3\n        /* \"#utility.yul\":13715:13735   */\n      tag_374\n      jump\t// in\n    tag_554:\n        /* \"#utility.yul\":13710:13735   */\n      swap2\n      pop\n        /* \"#utility.yul\":13749:13769   */\n      tag_555\n        /* \"#utility.yul\":13767:13768   */\n      dup4\n        /* \"#utility.yul\":13749:13769   */\n      tag_374\n      jump\t// in\n    tag_555:\n        /* \"#utility.yul\":13744:13769   */\n      swap3\n      pop\n        /* \"#utility.yul\":13788:13789   */\n      dup3\n        /* \"#utility.yul\":13778:13813   */\n      tag_556\n      jumpi\n        /* \"#utility.yul\":13793:13811   */\n      tag_557\n      tag_397\n      jump\t// in\n    tag_557:\n        /* \"#utility.yul\":13778:13813   */\n    tag_556:\n        /* \"#utility.yul\":13835:13836   */\n      dup3\n        /* \"#utility.yul\":13832:13833   */\n      dup3\n        /* \"#utility.yul\":13828:13837   */\n      div\n        /* \"#utility.yul\":13823:13837   */\n      swap1\n      pop\n        /* \"#utility.yul\":13658:13843   */\n      swap3\n      swap2\n      pop\n      pop\n      jump\t// out\n        /* \"#utility.yul\":13849:14025   */\n    tag_398:\n        /* \"#utility.yul\":13989:14017   */\n      0x436f6d6d697373696f6e207472616e73666572206661696c6564000000000000\n        /* \"#utility.yul\":13985:13986   */\n      0x00\n        /* \"#utility.yul\":13977:13983   */\n      dup3\n        /* \"#utility.yul\":13973:13987   */\n      add\n        /* \"#utility.yul\":13966:14018   */\n      mstore\n        /* \"#utility.yul\":13849:14025   */\n      pop\n      jump\t// out\n        /* \"#utility.yul\":14031:14397   */\n    tag_399:\n        /* \"#utility.yul\":14173:14176   */\n      0x00\n        /* \"#utility.yul\":14194:14261   */\n      tag_560\n        /* \"#utility.yul\":14258:14260   */\n      0x1a\n        /* \"#utility.yul\":14253:14256   */\n      dup4\n        /* \"#utility.yul\":14194:14261   */\n      tag_363\n      jump\t// in\n    tag_560:\n        /* \"#utility.yul\":14187:14261   */\n      swap2\n      pop\n        /* \"#utility.yul\":14270:14363   */\n      tag_561\n        /* \"#utility.yul\":14359:14362   */\n      dup3\n        /* \"#utility.yul\":14270:14363   */\n      tag_398\n      jump\t// in\n    tag_561:\n        /* \"#utility.yul\":14388:14390   */\n      0x20\n        /* \"#utility.yul\":14383:14386   */\n      dup3\n        /* \"#utility.yul\":14379:14391   */\n      add\n        /* \"#utility.yul\":14372:14391   */\n      swap1\n      pop\n        /* \"#utility.yul\":14031:14397   */\n      swap2\n      swap1\n      pop\n      jump\t// out\n        /* \"#utility.yul\":14403:14822   */\n    tag_261:\n        /* \"#utility.yul\":14569:14573   */\n      0x00\n        /* \"#utility.yul\":14607:14609   */\n      0x20\n        /* \"#utility.yul\":14596:14605   */\n      dup3\n        /* \"#utility.yul\":14592:14610   */\n      add\n        /* \"#utility.yul\":14584:14610   */\n      swap1\n      pop\n        /* \"#utility.yul\":14656:14665   */\n      dup2\n        /* \"#utility.yul\":14650:14654   */\n      dup2\n        /* \"#utility.yul\":14646:14666   */\n      sub\n        /* \"#utility.yul\":14642:14643   */\n      0x00\n        /* \"#utility.yul\":14631:14640   */\n      dup4\n        /* \"#utility.yul\":14627:14644   */\n      add\n        /* \"#utility.yul\":14620:14667   */\n      mstore\n        /* \"#utility.yul\":14684:14815   */\n      tag_563\n        /* \"#utility.yul\":14810:14814   */\n      dup2\n        /* \"#utility.yul\":14684:14815   */\n      tag_399\n      jump\t// in\n    tag_563:\n        /* \"#utility.yul\":14676:14815   */\n      swap1\n      pop\n        /* \"#utility.yul\":14403:14822   */\n      swap2\n      swap1\n      pop\n      jump\t// out\n        /* \"#utility.yul\":14828:14998   */\n    tag_400:\n        /* \"#utility.yul\":14968:14990   */\n      0x57616765207472616e73666572206661696c6564000000000000000000000000\n        /* \"#utility.yul\":14964:14965   */\n      0x00\n        /* \"#utility.yul\":14956:14962   */\n      dup3\n        /* \"#utility.yul\":14952:14966   */\n      add\n        /* \"#utility.yul\":14945:14991   */\n      mstore\n        /* \"#utility.yul\":14828:14998   */\n      pop\n      jump\t// out\n        /* \"#utility.yul\":15004:15370   */\n    tag_401:\n        /* \"#utility.yul\":15146:15149   */\n      0x00\n        /* \"#utility.yul\":15167:15234   */\n      tag_566\n        /* \"#utility.yul\":15231:15233   */\n      0x14\n        /* \"#utility.yul\":15226:15229   */\n      dup4\n        /* \"#utility.yul\":15167:15234   */\n      tag_363\n      jump\t// in\n    tag_566:\n        /* \"#utility.yul\":15160:15234   */\n      swap2\n      pop\n        /* \"#utility.yul\":15243:15336   */\n      tag_567\n        /* \"#utility.yul\":15332:15335   */\n      dup3\n        /* \"#utility.yul\":15243:15336   */\n      tag_400\n      jump\t// in\n    tag_567:\n        /* \"#utility.yul\":15361:15363   */\n      0x20\n        /* \"#utility.yul\":15356:15359   */\n      dup3\n        /* \"#utility.yul\":15352:15364   */\n      add\n        /* \"#utility.yul\":15345:15364   */\n      swap1\n      pop\n        /* \"#utility.yul\":15004:15370   */\n      swap2\n      swap1\n      pop\n      jump\t// out\n        /* \"#utility.yul\":15376:15795   */\n    tag_266:\n        /* \"#utility.yul\":15542:15546   */\n      0x00\n        /* \"#utility.yul\":15580:15582   */\n      0x20\n        /* \"#utility.yul\":15569:15578   */\n      dup3\n        /* \"#utility.yul\":15565:15583   */\n      add\n        /* \"#utility.yul\":15557:15583   */\n      swap1\n      pop\n        /* \"#utility.yul\":15629:15638   */\n      dup2\n        /* \"#utility.yul\":15623:15627   */\n      dup2\n        /* \"#utility.yul\":15619:15639   */\n      sub\n        /* \"#utility.yul\":15615:15616   */\n      0x00\n        /* \"#utility.yul\":15604:15613   */\n      dup4\n        /* \"#utility.yul\":15600:15617   */\n      add\n        /* \"#utility.yul\":15593:15640   */\n      mstore\n        /* \"#utility.yul\":15657:15788   */\n      tag_569\n        /* \"#utility.yul\":15783:15787   */\n      dup2\n        /* \"#utility.yul\":15657:15788   */\n      tag_401\n      jump\t// in\n    tag_569:\n        /* \"#utility.yul\":15649:15788   */\n      swap1\n      pop\n        /* \"#utility.yul\":15376:15795   */\n      swap2\n      swap1\n      pop\n      jump\t// out\n        /* \"#utility.yul\":15801:15979   */\n    tag_402:\n        /* \"#utility.yul\":15941:15971   */\n      0x5061727469616c2077616765207472616e73666572206661696c656400000000\n        /* \"#utility.yul\":15937:15938   */\n      0x00\n        /* \"#utility.yul\":15929:15935   */\n      dup3\n        /* \"#utility.yul\":15925:15939   */\n      add\n        /* \"#utility.yul\":15918:15972   */\n      mstore\n        /* \"#utility.yul\":15801:15979   */\n      pop\n      jump\t// out\n        /* \"#utility.yul\":15985:16351   */\n    tag_403:\n        /* \"#utility.yul\":16127:16130   */\n      0x00\n        /* \"#utility.yul\":16148:16215   */\n      tag_572\n        /* \"#utility.yul\":16212:16214   */\n      0x1c\n        /* \"#utility.yul\":16207:16210   */\n      dup4\n        /* \"#utility.yul\":16148:16215   */\n      tag_363\n      jump\t// in\n    tag_572:\n        /* \"#utility.yul\":16141:16215   */\n      swap2\n      pop\n        /* \"#utility.yul\":16224:16317   */\n      tag_573\n        /* \"#utility.yul\":16313:16316   */\n      dup3\n        /* \"#utility.yul\":16224:16317   */\n      tag_402\n      jump\t// in\n    tag_573:\n        /* \"#utility.yul\":16342:16344   */\n      0x20\n        /* \"#utility.yul\":16337:16340   */\n      dup3\n        /* \"#utility.yul\":16333:16345   */\n      add\n        /* \"#utility.yul\":16326:16345   */\n      swap1\n      pop\n        /* \"#utility.yul\":15985:16351   */\n      swap2\n      swap1\n      pop\n      jump\t// out\n        /* \"#utility.yul\":16357:16776   */\n    tag_273:\n        /* \"#utility.yul\":16523:16527   */\n      0x00\n        /* \"#utility.yul\":16561:16563   */\n      0x20\n        /* \"#utility.yul\":16550:16559   */\n      dup3\n        /* \"#utility.yul\":16546:16564   */\n      add\n        /* \"#utility.yul\":16538:16564   */\n      swap1\n      pop\n        /* \"#utility.yul\":16610:16619   */\n      dup2\n        /* \"#utility.yul\":16604:16608   */\n      dup2\n        /* \"#utility.yul\":16600:16620   */\n      sub\n        /* \"#utility.yul\":16596:16597   */\n      0x00\n        /* \"#utility.yul\":16585:16594   */\n      dup4\n        /* \"#utility.yul\":16581:16598   */\n      add\n        /* \"#utility.yul\":16574:16621   */\n      mstore\n        /* \"#utility.yul\":16638:16769   */\n      tag_575\n        /* \"#utility.yul\":16764:16768   */\n      dup2\n        /* \"#utility.yul\":16638:16769   */\n      tag_403\n      jump\t// in\n    tag_575:\n        /* \"#utility.yul\":16630:16769   */\n      swap1\n      pop\n        /* \"#utility.yul\":16357:16776   */\n      swap2\n      swap1\n      pop\n      jump\t// out\n        /* \"#utility.yul\":16782:16948   */\n    tag_404:\n        /* \"#utility.yul\":16922:16940   */\n      0x5061757361626c653a2070617573656400000000000000000000000000000000\n        /* \"#utility.yul\":16918:16919   */\n      0x00\n        /* \"#utility.yul\":16910:16916   */\n      dup3\n        /* \"#utility.yul\":16906:16920   */\n      add\n        /* \"#utility.yul\":16899:16941   */\n      mstore\n        /* \"#utility.yul\":16782:16948   */\n      pop\n      jump\t// out\n        /* \"#utility.yul\":16954:17320   */\n    tag_405:\n        /* \"#utility.yul\":17096:17099   */\n      0x00\n        /* \"#utility.yul\":17117:17184   */\n      tag_578\n        /* \"#utility.yul\":17181:17183   */\n      0x10\n        /* \"#utility.yul\":17176:17179   */\n      dup4\n        /* \"#utility.yul\":17117:17184   */\n      tag_363\n      jump\t// in\n    tag_578:\n        /* \"#utility.yul\":17110:17184   */\n      swap2\n      pop\n        /* \"#utility.yul\":17193:17286   */\n      tag_579\n        /* \"#utility.yul\":17282:17285   */\n      dup3\n        /* \"#utility.yul\":17193:17286   */\n      tag_404\n      jump\t// in\n    tag_579:\n        /* \"#utility.yul\":17311:17313   */\n      0x20\n        /* \"#utility.yul\":17306:17309   */\n      dup3\n        /* \"#utility.yul\":17302:17314   */\n      add\n        /* \"#utility.yul\":17295:17314   */\n      swap1\n      pop\n        /* \"#utility.yul\":16954:17320   */\n      swap2\n      swap1\n      pop\n      jump\t// out\n        /* \"#utility.yul\":17326:17745   */\n    tag_293:\n        /* \"#utility.yul\":17492:17496   */\n      0x00\n        /* \"#utility.yul\":17530:17532   */\n      0x20\n        /* \"#utility.yul\":17519:17528   */\n      dup3\n        /* \"#utility.yul\":17515:17533   */\n      add\n        /* \"#utility.yul\":17507:17533   */\n      swap1\n      pop\n        /* \"#utility.yul\":17579:17588   */\n      dup2\n        /* \"#utility.yul\":17573:17577   */\n      dup2\n        /* \"#utility.yul\":17569:17589   */\n      sub\n        /* \"#utility.yul\":17565:17566   */\n      0x00\n        /* \"#utility.yul\":17554:17563   */\n      dup4\n        /* \"#utility.yul\":17550:17567   */\n      add\n        /* \"#utility.yul\":17543:17590   */\n      mstore\n        /* \"#utility.yul\":17607:17738   */\n      tag_581\n        /* \"#utility.yul\":17733:17737   */\n      dup2\n        /* \"#utility.yul\":17607:17738   */\n      tag_405\n      jump\t// in\n    tag_581:\n        /* \"#utility.yul\":17599:17738   */\n      swap1\n      pop\n        /* \"#utility.yul\":17326:17745   */\n      swap2\n      swap1\n      pop\n      jump\t// out\n        /* \"#utility.yul\":17751:17932   */\n    tag_406:\n        /* \"#utility.yul\":17891:17924   */\n      0x5265656e7472616e637947756172643a207265656e7472616e742063616c6c00\n        /* \"#utility.yul\":17887:17888   */\n      0x00\n        /* \"#utility.yul\":17879:17885   */\n      dup3\n        /* \"#utility.yul\":17875:17889   */\n      add\n        /* \"#utility.yul\":17868:17925   */\n      mstore\n        /* \"#utility.yul\":17751:17932   */\n      pop\n      jump\t// out\n        /* \"#utility.yul\":17938:18304   */\n    tag_407:\n        /* \"#utility.yul\":18080:18083   */\n      0x00\n        /* \"#utility.yul\":18101:18168   */\n      tag_584\n        /* \"#utility.yul\":18165:18167   */\n      0x1f\n        /* \"#utility.yul\":18160:18163   */\n      dup4\n        /* \"#utility.yul\":18101:18168   */\n      tag_363\n      jump\t// in\n    tag_584:\n        /* \"#utility.yul\":18094:18168   */\n      swap2\n      pop\n        /* \"#utility.yul\":18177:18270   */\n      tag_585\n        /* \"#utility.yul\":18266:18269   */\n      dup3\n        /* \"#utility.yul\":18177:18270   */\n      tag_406\n      jump\t// in\n    tag_585:\n        /* \"#utility.yul\":18295:18297   */\n      0x20\n        /* \"#utility.yul\":18290:18293   */\n      dup3\n        /* \"#utility.yul\":18286:18298   */\n      add\n        /* \"#utility.yul\":18279:18298   */\n      swap1\n      pop\n        /* \"#utility.yul\":17938:18304   */\n      swap2\n      swap1\n      pop\n      jump\t// out\n        /* \"#utility.yul\":18310:18729   */\n    tag_315:\n        /* \"#utility.yul\":18476:18480   */\n      0x00\n        /* \"#utility.yul\":18514:18516   */\n      0x20\n        /* \"#utility.yul\":18503:18512   */\n      dup3\n        /* \"#utility.yul\":18499:18517   */\n      add\n        /* \"#utility.yul\":18491:18517   */\n      swap1\n      pop\n        /* \"#utility.yul\":18563:18572   */\n      dup2\n        /* \"#utility.yul\":18557:18561   */\n      dup2\n        /* \"#utility.yul\":18553:18573   */\n      sub\n        /* \"#utility.yul\":18549:18550   */\n      0x00\n        /* \"#utility.yul\":18538:18547   */\n      dup4\n        /* \"#utility.yul\":18534:18551   */\n      add\n        /* \"#utility.yul\":18527:18574   */\n      mstore\n        /* \"#utility.yul\":18591:18722   */\n      tag_587\n        /* \"#utility.yul\":18717:18721   */\n      dup2\n        /* \"#utility.yul\":18591:18722   */\n      tag_407\n      jump\t// in\n    tag_587:\n        /* \"#utility.yul\":18583:18722   */\n      swap1\n      pop\n        /* \"#utility.yul\":18310:18729   */\n      swap2\n      swap1\n      pop\n      jump\t// out\n        /* \"#utility.yul\":18735:19177   */\n    tag_339:\n        /* \"#utility.yul\":18884:18888   */\n      0x00\n        /* \"#utility.yul\":18922:18924   */\n      0x60\n        /* \"#utility.yul\":18911:18920   */\n      dup3\n        /* \"#utility.yul\":18907:18925   */\n      add\n        /* \"#utility.yul\":18899:18925   */\n      swap1\n      pop\n        /* \"#utility.yul\":18935:19006   */\n      tag_589\n        /* \"#utility.yul\":19003:19004   */\n      0x00\n        /* \"#utility.yul\":18992:19001   */\n      dup4\n        /* \"#utility.yul\":18988:19005   */\n      add\n        /* \"#utility.yul\":18979:18985   */\n      dup7\n        /* \"#utility.yul\":18935:19006   */\n      tag_387\n      jump\t// in\n    tag_589:\n        /* \"#utility.yul\":19016:19088   */\n      tag_590\n        /* \"#utility.yul\":19084:19086   */\n      0x20\n        /* \"#utility.yul\":19073:19082   */\n      dup4\n        /* \"#utility.yul\":19069:19087   */\n      add\n        /* \"#utility.yul\":19060:19066   */\n      dup6\n        /* \"#utility.yul\":19016:19088   */\n      tag_379\n      jump\t// in\n    tag_590:\n        /* \"#utility.yul\":19098:19170   */\n      tag_591\n        /* \"#utility.yul\":19166:19168   */\n      0x40\n        /* \"#utility.yul\":19155:19164   */\n      dup4\n        /* \"#utility.yul\":19151:19169   */\n      add\n        /* \"#utility.yul\":19142:19148   */\n      dup5\n        /* \"#utility.yul\":19098:19170   */\n      tag_379\n      jump\t// in\n    tag_591:\n        /* \"#utility.yul\":18735:19177   */\n      swap5\n      swap4\n      pop\n      pop\n      pop\n      pop\n      jump\t// out\n        /* \"#utility.yul\":19183:19353   */\n    tag_408:\n        /* \"#utility.yul\":19323:19345   */\n      0x5061757361626c653a206e6f7420706175736564000000000000000000000000\n        /* \"#utility.yul\":19319:19320   */\n      0x00\n        /* \"#utility.yul\":19311:19317   */\n      dup3\n        /* \"#utility.yul\":19307:19321   */\n      add\n        /* \"#utility.yul\":19300:19346   */\n      mstore\n        /* \"#utility.yul\":19183:19353   */\n      pop\n      jump\t// out\n        /* \"#utility.yul\":19359:19725   */\n    tag_409:\n        /* \"#utility.yul\":19501:19504   */\n      0x00\n        /* \"#utility.yul\":19522:19589   */\n      tag_594\n        /* \"#utility.yul\":19586:19588   */\n      0x14\n        /* \"#utility.yul\":19581:19584   */\n      dup4\n        /* \"#utility.yul\":19522:19589   */\n      tag_363\n      jump\t// in\n    tag_594:\n        /* \"#utility.yul\":19515:19589   */\n      swap2\n      pop\n        /* \"#utility.yul\":19598:19691   */\n      tag_595\n        /* \"#utility.yul\":19687:19690   */\n      dup3\n        /* \"#utility.yul\":19598:19691   */\n      tag_408\n      jump\t// in\n    tag_595:\n        /* \"#utility.yul\":19716:19718   */\n      0x20\n        /* \"#utility.yul\":19711:19714   */\n      dup3\n        /* \"#utility.yul\":19707:19719   */\n      add\n        /* \"#utility.yul\":19700:19719   */\n      swap1\n      pop\n        /* \"#utility.yul\":19359:19725   */\n      swap2\n      swap1\n      pop\n      jump\t// out\n        /* \"#utility.yul\":19731:20150   */\n    tag_352:\n        /* \"#utility.yul\":19897:19901   */\n      0x00\n        /* \"#utility.yul\":19935:19937   */\n      0x20\n        /* \"#utility.yul\":19924:19933   */\n      dup3\n        /* \"#utility.yul\":19920:19938   */\n      add\n        /* \"#utility.yul\":19912:19938   */\n      swap1\n      pop\n        /* \"#utility.yul\":19984:19993   */\n      dup2\n        /* \"#utility.yul\":19978:19982   */\n      dup2\n        /* \"#utility.yul\":19974:19994   */\n      sub\n        /* \"#utility.yul\":19970:19971   */\n      0x00\n        /* \"#utility.yul\":19959:19968   */\n      dup4\n        /* \"#utility.yul\":19955:19972   */\n      add\n        /* \"#utility.yul\":19948:19995   */\n      mstore\n        /* \"#utility.yul\":20012:20143   */\n      tag_597\n        /* \"#utility.yul\":20138:20142   */\n      dup2\n        /* \"#utility.yul\":20012:20143   */\n      tag_409\n      jump\t// in\n    tag_597:\n        /* \"#utility.yul\":20004:20143   */\n      swap1\n      pop\n        /* \"#utility.yul\":19731:20150   */\n      swap2\n      swap1\n      pop\n      jump\t// out\n\n    auxdata: 0xa2646970667358221220df2eff5a9840d82dd398b182210a5bd3c4a6f4dfd04e5663678be715631bb64764736f6c634300081a0033\n}\n",
				"bytecode": {
					"linkReferences": {},
					"object": "608060405234801561000f575f80fd5b5060405161330b38038061330b8339818101604052810190610031919061079c565b33848481600390816100439190610a45565b5080600490816100539190610a45565b5050505f60055f6101000a81548160ff0219169083151502179055505f73ffffffffffffffffffffffffffffffffffffffff168173ffffffffffffffffffffffffffffffffffffffff16036100df575f6040517f1e4fbdf70000000000000000000000000000000000000000000000000000000081526004016100d69190610b23565b60405180910390fd5b6100ee8161028a60201b60201c565b5060016006819055505f73ffffffffffffffffffffffffffffffffffffffff168273ffffffffffffffffffffffffffffffffffffffff160361015c576040517ff8af67e500000000000000000000000000000000000000000000000000000000815260040160405180910390fd5b5f73ffffffffffffffffffffffffffffffffffffffff168173ffffffffffffffffffffffffffffffffffffffff16036101c1576040517fcfe2ea6300000000000000000000000000000000000000000000000000000000815260040160405180910390fd5b8160085f6101000a81548173ffffffffffffffffffffffffffffffffffffffff021916908373ffffffffffffffffffffffffffffffffffffffff16021790555080600a5f6101000a81548173ffffffffffffffffffffffffffffffffffffffff021916908373ffffffffffffffffffffffffffffffffffffffff1602179055506101f46009819055506102813361025c61034f60201b60201c565b600a6102689190610ca4565b620f42406102769190610cee565b61035760201b60201c565b50505050610dbf565b5f600560019054906101000a900473ffffffffffffffffffffffffffffffffffffffff16905081600560016101000a81548173ffffffffffffffffffffffffffffffffffffffff021916908373ffffffffffffffffffffffffffffffffffffffff1602179055508173ffffffffffffffffffffffffffffffffffffffff168173ffffffffffffffffffffffffffffffffffffffff167f8be0079c531659141344cd1fd0a4f28419497f9722a3daafe3b4186f6b6457e060405160405180910390a35050565b5f6012905090565b5f73ffffffffffffffffffffffffffffffffffffffff168273ffffffffffffffffffffffffffffffffffffffff16036103c7575f6040517fec442f050000000000000000000000000000000000000000000000000000000081526004016103be9190610b23565b60405180910390fd5b6103d85f83836103dc60201b60201c565b5050565b5f73ffffffffffffffffffffffffffffffffffffffff168373ffffffffffffffffffffffffffffffffffffffff160361042c578060025f8282546104209190610d2f565b925050819055506104fa565b5f805f8573ffffffffffffffffffffffffffffffffffffffff1673ffffffffffffffffffffffffffffffffffffffff1681526020019081526020015f20549050818110156104b5578381836040517fe450d38c0000000000000000000000000000000000000000000000000000000081526004016104ac93929190610d71565b60405180910390fd5b8181035f808673ffffffffffffffffffffffffffffffffffffffff1673ffffffffffffffffffffffffffffffffffffffff1681526020019081526020015f2081905550505b5f73ffffffffffffffffffffffffffffffffffffffff168273ffffffffffffffffffffffffffffffffffffffff1603610541578060025f828254039250508190555061058b565b805f808473ffffffffffffffffffffffffffffffffffffffff1673ffffffffffffffffffffffffffffffffffffffff1681526020019081526020015f205f82825401925050819055505b8173ffffffffffffffffffffffffffffffffffffffff168373ffffffffffffffffffffffffffffffffffffffff167fddf252ad1be2c89b69c2b068fc378daa952ba7f163c4a11628f55a4df523b3ef836040516105e89190610da6565b60405180910390a3505050565b5f604051905090565b5f80fd5b5f80fd5b5f80fd5b5f80fd5b5f601f19601f8301169050919050565b7f4e487b71000000000000000000000000000000000000000000000000000000005f52604160045260245ffd5b6106548261060e565b810181811067ffffffffffffffff821117156106735761067261061e565b5b80604052505050565b5f6106856105f5565b9050610691828261064b565b919050565b5f67ffffffffffffffff8211156106b0576106af61061e565b5b6106b98261060e565b9050602081019050919050565b8281835e5f83830152505050565b5f6106e66106e184610696565b61067c565b9050828152602081018484840111156107025761070161060a565b5b61070d8482856106c6565b509392505050565b5f82601f83011261072957610728610606565b5b81516107398482602086016106d4565b91505092915050565b5f73ffffffffffffffffffffffffffffffffffffffff82169050919050565b5f61076b82610742565b9050919050565b61077b81610761565b8114610785575f80fd5b50565b5f8151905061079681610772565b92915050565b5f805f80608085870312156107b4576107b36105fe565b5b5f85015167ffffffffffffffff8111156107d1576107d0610602565b5b6107dd87828801610715565b945050602085015167ffffffffffffffff8111156107fe576107fd610602565b5b61080a87828801610715565b935050604061081b87828801610788565b925050606061082c87828801610788565b91505092959194509250565b5f81519050919050565b7f4e487b71000000000000000000000000000000000000000000000000000000005f52602260045260245ffd5b5f600282049050600182168061088657607f821691505b60208210810361089957610898610842565b5b50919050565b5f819050815f5260205f209050919050565b5f6020601f8301049050919050565b5f82821b905092915050565b5f600883026108fb7fffffffffffffffffffffffffffffffffffffffffffffffffffffffffffffffff826108c0565b61090586836108c0565b95508019841693508086168417925050509392505050565b5f819050919050565b5f819050919050565b5f61094961094461093f8461091d565b610926565b61091d565b9050919050565b5f819050919050565b6109628361092f565b61097661096e82610950565b8484546108cc565b825550505050565b5f90565b61098a61097e565b610995818484610959565b505050565b5b818110156109b8576109ad5f82610982565b60018101905061099b565b5050565b601f8211156109fd576109ce8161089f565b6109d7846108b1565b810160208510156109e6578190505b6109fa6109f2856108b1565b83018261099a565b50505b505050565b5f82821c905092915050565b5f610a1d5f1984600802610a02565b1980831691505092915050565b5f610a358383610a0e565b9150826002028217905092915050565b610a4e82610838565b67ffffffffffffffff811115610a6757610a6661061e565b5b610a71825461086f565b610a7c8282856109bc565b5f60209050601f831160018114610aad575f8415610a9b578287015190505b610aa58582610a2a565b865550610b0c565b601f198416610abb8661089f565b5f5b82811015610ae257848901518255600182019150602085019450602081019050610abd565b86831015610aff5784890151610afb601f891682610a0e565b8355505b6001600288020188555050505b505050505050565b610b1d81610761565b82525050565b5f602082019050610b365f830184610b14565b92915050565b7f4e487b71000000000000000000000000000000000000000000000000000000005f52601160045260245ffd5b5f8160011c9050919050565b5f808291508390505b6001851115610bbe57808604811115610b9a57610b99610b3c565b5b6001851615610ba95780820291505b8081029050610bb785610b69565b9450610b7e565b94509492505050565b5f82610bd65760019050610c91565b81610be3575f9050610c91565b8160018114610bf95760028114610c0357610c32565b6001915050610c91565b60ff841115610c1557610c14610b3c565b5b8360020a915084821115610c2c57610c2b610b3c565b5b50610c91565b5060208310610133831016604e8410600b8410161715610c675782820a905083811115610c6257610c61610b3c565b5b610c91565b610c748484846001610b75565b92509050818404811115610c8b57610c8a610b3c565b5b81810290505b9392505050565b5f60ff82169050919050565b5f610cae8261091d565b9150610cb983610c98565b9250610ce67fffffffffffffffffffffffffffffffffffffffffffffffffffffffffffffffff8484610bc7565b905092915050565b5f610cf88261091d565b9150610d038361091d565b9250828202610d118161091d565b91508282048414831517610d2857610d27610b3c565b5b5092915050565b5f610d398261091d565b9150610d448361091d565b9250828201905080821115610d5c57610d5b610b3c565b5b92915050565b610d6b8161091d565b82525050565b5f606082019050610d845f830186610b14565b610d916020830185610d62565b610d9e6040830184610d62565b949350505050565b5f602082019050610db95f830184610d62565b92915050565b61253f80610dcc5f395ff3fe608060405234801561000f575f80fd5b50600436106101a7575f3560e01c806374612f19116100f7578063a9059cbb11610095578063dd62ed3e1161006f578063dd62ed3e14610484578063e95850df146104b4578063ef9ecc1d146104d2578063f2fde38b14610502576101a7565b8063a9059cbb14610408578063a9b493e014610438578063ca52548514610454576101a7565b80638da5cb5b116100d15780638da5cb5b1461039257806395d89b41146103b05780639d55fba7146103ce578063a3262ea2146103ea576101a7565b806374612f191461034e57806377d3550b1461036a5780638456cb5914610388576101a7565b80632fcdc5fd116101645780635c975abb1161013e5780635c975abb146102da5780635e182096146102f857806370a0823114610314578063715018a614610344576101a7565b80632fcdc5fd14610296578063313ce567146102b25780633f4ba83a146102d0576101a7565b806306fdde03146101ab578063095ea7b3146101c957806318160ddd146101f95780631ec48cf71461021757806323b872dd146102485780632a26c9cd14610278575b5f80fd5b6101b361051e565b6040516101c09190611bdc565b60405180910390f35b6101e360048036038101906101de9190611c8d565b6105ae565b6040516101f09190611ce5565b60405180910390f35b6102016105d0565b60405161020e9190611d0d565b60405180910390f35b610231600480360381019061022c9190611d26565b6105d9565b60405161023f929190611d51565b60405180910390f35b610262600480360381019061025d9190611d78565b6105f7565b60405161026f9190611ce5565b60405180910390f35b610280610614565b60405161028d9190611e23565b60405180910390f35b6102b060048036038101906102ab9190611d26565b610639565b005b6102ba610760565b6040516102c79190611e57565b60405180910390f35b6102d8610768565b005b6102e261077a565b6040516102ef9190611ce5565b60405180910390f35b610312600480360381019061030d9190611e70565b61078f565b005b61032e60048036038101906103299190611d26565b6108b7565b60405161033b9190611d0d565b60405180910390f35b61034c6108fc565b005b61036860048036038101906103639190611d26565b61090f565b005b6103726109f6565b60405161037f9190611d0d565b60405180910390f35b6103906109fc565b005b61039a610a0e565b6040516103a79190611ebd565b60405180910390f35b6103b8610a37565b6040516103c59190611bdc565b60405180910390f35b6103e860048036038101906103e39190611ed6565b610ac7565b005b6103f2610b4c565b6040516103ff9190611ebd565b60405180910390f35b610422600480360381019061041d9190611c8d565b610b71565b60405161042f9190611ce5565b60405180910390f35b610452600480360381019061044d9190611e70565b610b8c565b005b61046e60048036038101906104699190611ed6565b610d52565b60405161047b9190611d0d565b60405180910390f35b61049e60048036038101906104999190611f01565b610d67565b6040516104ab9190611d0d565b60405180910390f35b6104bc610de9565b6040516104c99190611ebd565b60405180910390f35b6104ec60048036038101906104e79190611f3f565b610e0e565b6040516104f99190611fed565b60405180910390f35b61051c60048036038101906105179190611d26565b6111ef565b005b60606003805461052d90612033565b80601f016020809104026020016040519081016040528092919081815260200182805461055990612033565b80156105a45780601f1061057b576101008083540402835291602001916105a4565b820191905f5260205f20905b81548152906001019060200180831161058757829003601f168201915b5050505050905090565b5f806105b8611273565b90506105c581858561127a565b600191505092915050565b5f600254905090565b5f806105e4836108b7565b6105ee8430610d67565b91509150915091565b5f61060061128c565b61060b8484846112d6565b90509392505050565b60075f9054906101000a900473ffffffffffffffffffffffffffffffffffffffff1681565b610641611304565b5f73ffffffffffffffffffffffffffffffffffffffff168173ffffffffffffffffffffffffffffffffffffffff16036106a6576040517ff8af67e500000000000000000000000000000000000000000000000000000000815260040160405180910390fd5b8060085f6101000a81548173ffffffffffffffffffffffffffffffffffffffff021916908373ffffffffffffffffffffffffffffffffffffffff1602179055508060075f6101000a81548173ffffffffffffffffffffffffffffffffffffffff021916908373ffffffffffffffffffffffffffffffffffffffff1602179055507ff2610996d245d9b77e4ff84c2174eea0b76fb44c422218404f66e28816d78fb9816040516107559190611ebd565b60405180910390a150565b5f6012905090565b610770611304565b61077861138b565b565b5f60055f9054906101000a900460ff16905090565b6107976113ec565b61079f61128c565b5f81036107d8576040517f2c5211c600000000000000000000000000000000000000000000000000000000815260040160405180910390fd5b5f3390505f61080860085f9054906101000a900473ffffffffffffffffffffffffffffffffffffffff1684610b71565b90508061084a576040517f08c379a0000000000000000000000000000000000000000000000000000000008152600401610841906120ad565b60405180910390fd5b82600b5f8681526020019081526020015f205f82825461086a91906120f8565b92505081905550837f577dfadb80ab9a5336c633f3fa5f59c296d18a29aa6ae9e4598762748e1f4afd846040516108a19190611d0d565b60405180910390a250506108b361143b565b5050565b5f805f8373ffffffffffffffffffffffffffffffffffffffff1673ffffffffffffffffffffffffffffffffffffffff1681526020019081526020015f20549050919050565b610904611304565b61090d5f611445565b565b610917611304565b5f73ffffffffffffffffffffffffffffffffffffffff168173ffffffffffffffffffffffffffffffffffffffff160361097c576040517fcfe2ea6300000000000000000000000000000000000000000000000000000000815260040160405180910390fd5b80600a5f6101000a81548173ffffffffffffffffffffffffffffffffffffffff021916908373ffffffffffffffffffffffffffffffffffffffff1602179055507f4422c0c4b301436298cce7de4b586b1e044e671d0efbfeb88689161ebd95dd4f816040516109eb9190611ebd565b60405180910390a150565b60095481565b610a04611304565b610a0c61150a565b565b5f600560019054906101000a900473ffffffffffffffffffffffffffffffffffffffff16905090565b606060048054610a4690612033565b80601f0160208091040260200160405190810160405280929190818152602001828054610a7290612033565b8015610abd5780601f10610a9457610100808354040283529160200191610abd565b820191905f5260205f20905b815481529060010190602001808311610aa057829003601f168201915b5050505050905090565b610acf611304565b612710811115610b0b576040517fdc81db8500000000000000000000000000000000000000000000000000000000815260040160405180910390fd5b806009819055507f13f60dd2b588490608c3ff1932a3daeb4087f3d5af04b97e5c2a16b5b4c0302e81604051610b419190611d0d565b60405180910390a150565b60085f9054906101000a900473ffffffffffffffffffffffffffffffffffffffff1681565b5f610b7a61128c565b610b84838361156c565b905092915050565b610b946113ec565b610b9c61128c565b610ba6338361158e565b610bdc576040517fde271cf500000000000000000000000000000000000000000000000000000000815260040160405180910390fd5b5f8103610c15576040517f2c5211c600000000000000000000000000000000000000000000000000000000815260040160405180910390fd5b80600b5f8481526020019081526020015f20541015610c60576040517fa77130ef00000000000000000000000000000000000000000000000000000000815260040160405180910390fd5b80600b5f8481526020019081526020015f205f828254610c80919061212b565b925050819055505f610cb460085f9054906101000a900473ffffffffffffffffffffffffffffffffffffffff1633846105f7565b905080610cf6576040517f08c379a0000000000000000000000000000000000000000000000000000000008152600401610ced906121a8565b60405180910390fd5b3373ffffffffffffffffffffffffffffffffffffffff16837f4e073dd16eec477fbb059bda1f0796f0d06eebc4c53568e3e77a4084228fd4eb84604051610d3d9190611d0d565b60405180910390a350610d4e61143b565b5050565b600b602052805f5260405f205f915090505481565b5f60015f8473ffffffffffffffffffffffffffffffffffffffff1673ffffffffffffffffffffffffffffffffffffffff1681526020019081526020015f205f8373ffffffffffffffffffffffffffffffffffffffff1673ffffffffffffffffffffffffffffffffffffffff1681526020019081526020015f2054905092915050565b600a5f9054906101000a900473ffffffffffffffffffffffffffffffffffffffff1681565b610e16611b4c565b60085f9054906101000a900473ffffffffffffffffffffffffffffffffffffffff1673ffffffffffffffffffffffffffffffffffffffff163373ffffffffffffffffffffffffffffffffffffffff1614610e9c576040517f5c427cd900000000000000000000000000000000000000000000000000000000815260040160405180910390fd5b610ea46113ec565b610eac61128c565b5f8203610ee5576040517f2c5211c600000000000000000000000000000000000000000000000000000000815260040160405180910390fd5b5f600b5f8681526020019081526020015f205490505f8382101590505f8082156110a75761271060095487610f1a91906121c6565b610f249190612234565b90508086610f32919061212b565b91508584610f40919061212b565b600b5f8a81526020019081526020015f20819055505f811115611005575f610f89600a5f9054906101000a900473ffffffffffffffffffffffffffffffffffffffff1683610b71565b905080610fcb576040517f08c379a0000000000000000000000000000000000000000000000000000000008152600401610fc2906122ae565b60405180910390fd5b887facfa15ebe340982fef95d43aafc25d741382d7928a00055a209274fa615d527783604051610ffb9190611d0d565b60405180910390a2505b5f6110108884610b71565b905080611052576040517f08c379a000000000000000000000000000000000000000000000000000000000815260040161104990612316565b60405180910390fd5b8773ffffffffffffffffffffffffffffffffffffffff16897f4c3044279daea82275bc16a26600fe0c196cb65422b138c02dc86fb861b174ca856040516110999190611d0d565b60405180910390a3506111b1565b8391505f90505f600b5f8a81526020019081526020015f20819055505f821115611176575f6110d68884610b71565b905080611118576040517f08c379a000000000000000000000000000000000000000000000000000000000815260040161110f9061237e565b60405180910390fd5b8773ffffffffffffffffffffffffffffffffffffffff16897f5d16c483bee69284681447fe545192acc0f537a2cd7c2cd35593a1edb524329085868b61115e919061212b565b60405161116c929190611d51565b60405180910390a3505b877f574264649c9d702f91c09e683982319da6546e5cfee0a4898a3bd6bf1c63042f85886040516111a8929190611d51565b60405180910390a25b604051806060016040528083815260200183886111ce919061212b565b8152602001841515158152509450505050506111e861143b565b9392505050565b6111f7611304565b5f73ffffffffffffffffffffffffffffffffffffffff168173ffffffffffffffffffffffffffffffffffffffff1603611267575f6040517f1e4fbdf700000000000000000000000000000000000000000000000000000000815260040161125e9190611ebd565b60405180910390fd5b61127081611445565b50565b5f33905090565b6112878383836001611599565b505050565b61129461077a565b156112d4576040517f08c379a00000000000000000000000000000000000000000000000000000000081526004016112cb906123e6565b60405180910390fd5b565b5f806112e0611273565b90506112ed858285611768565b6112f88585856117fa565b60019150509392505050565b61130c611273565b73ffffffffffffffffffffffffffffffffffffffff1661132a610a0e565b73ffffffffffffffffffffffffffffffffffffffff16146113895761134d611273565b6040517f118cdaa70000000000000000000000000000000000000000000000000000000081526004016113809190611ebd565b60405180910390fd5b565b6113936118ea565b5f60055f6101000a81548160ff0219169083151502179055507f5db9ee0a495bf2e6ff9c91a7834c1ba4fdd244a5e8aa4e537bd38aeae4b073aa6113d5611273565b6040516113e29190611ebd565b60405180910390a1565b600260065403611431576040517f08c379a00000000000000000000000000000000000000000000000000000000081526004016114289061244e565b60405180910390fd5b6002600681905550565b6001600681905550565b5f600560019054906101000a900473ffffffffffffffffffffffffffffffffffffffff16905081600560016101000a81548173ffffffffffffffffffffffffffffffffffffffff021916908373ffffffffffffffffffffffffffffffffffffffff1602179055508173ffffffffffffffffffffffffffffffffffffffff168173ffffffffffffffffffffffffffffffffffffffff167f8be0079c531659141344cd1fd0a4f28419497f9722a3daafe3b4186f6b6457e060405160405180910390a35050565b61151261128c565b600160055f6101000a81548160ff0219169083151502179055507f62e78cea01bee320cd4e420270b5ea74000d11b0c9f74754ebdbfc544b05a258611555611273565b6040516115629190611ebd565b60405180910390a1565b5f80611576611273565b90506115838185856117fa565b600191505092915050565b5f6001905092915050565b5f73ffffffffffffffffffffffffffffffffffffffff168473ffffffffffffffffffffffffffffffffffffffff1603611609575f6040517fe602df050000000000000000000000000000000000000000000000000000000081526004016116009190611ebd565b60405180910390fd5b5f73ffffffffffffffffffffffffffffffffffffffff168373ffffffffffffffffffffffffffffffffffffffff1603611679575f6040517f94280d620000000000000000000000000000000000000000000000000000000081526004016116709190611ebd565b60405180910390fd5b8160015f8673ffffffffffffffffffffffffffffffffffffffff1673ffffffffffffffffffffffffffffffffffffffff1681526020019081526020015f205f8573ffffffffffffffffffffffffffffffffffffffff1673ffffffffffffffffffffffffffffffffffffffff1681526020019081526020015f20819055508015611762578273ffffffffffffffffffffffffffffffffffffffff168473ffffffffffffffffffffffffffffffffffffffff167f8c5be1e5ebec7d5bd14f71427d1e84f3dd0314c0f7b2291e5b200ac8c7c3b925846040516117599190611d0d565b60405180910390a35b50505050565b5f6117738484610d67565b90507fffffffffffffffffffffffffffffffffffffffffffffffffffffffffffffffff81146117f457818110156117e5578281836040517ffb8f41b20000000000000000000000000000000000000000000000000000000081526004016117dc9392919061246c565b60405180910390fd5b6117f384848484035f611599565b5b50505050565b5f73ffffffffffffffffffffffffffffffffffffffff168373ffffffffffffffffffffffffffffffffffffffff160361186a575f6040517f96c6fd1e0000000000000000000000000000000000000000000000000000000081526004016118619190611ebd565b60405180910390fd5b5f73ffffffffffffffffffffffffffffffffffffffff168273ffffffffffffffffffffffffffffffffffffffff16036118da575f6040517fec442f050000000000000000000000000000000000000000000000000000000081526004016118d19190611ebd565b60405180910390fd5b6118e5838383611933565b505050565b6118f261077a565b611931576040517f08c379a0000000000000000000000000000000000000000000000000000000008152600401611928906124eb565b60405180910390fd5b565b5f73ffffffffffffffffffffffffffffffffffffffff168373ffffffffffffffffffffffffffffffffffffffff1603611983578060025f82825461197791906120f8565b92505081905550611a51565b5f805f8573ffffffffffffffffffffffffffffffffffffffff1673ffffffffffffffffffffffffffffffffffffffff1681526020019081526020015f2054905081811015611a0c578381836040517fe450d38c000000000000000000000000000000000000000000000000000000008152600401611a039392919061246c565b60405180910390fd5b8181035f808673ffffffffffffffffffffffffffffffffffffffff1673ffffffffffffffffffffffffffffffffffffffff1681526020019081526020015f2081905550505b5f73ffffffffffffffffffffffffffffffffffffffff168273ffffffffffffffffffffffffffffffffffffffff1603611a98578060025f8282540392505081905550611ae2565b805f808473ffffffffffffffffffffffffffffffffffffffff1673ffffffffffffffffffffffffffffffffffffffff1681526020019081526020015f205f82825401925050819055505b8173ffffffffffffffffffffffffffffffffffffffff168373ffffffffffffffffffffffffffffffffffffffff167fddf252ad1be2c89b69c2b068fc378daa952ba7f163c4a11628f55a4df523b3ef83604051611b3f9190611d0d565b60405180910390a3505050565b60405180606001604052805f81526020015f81526020015f151581525090565b5f81519050919050565b5f82825260208201905092915050565b8281835e5f83830152505050565b5f601f19601f8301169050919050565b5f611bae82611b6c565b611bb88185611b76565b9350611bc8818560208601611b86565b611bd181611b94565b840191505092915050565b5f6020820190508181035f830152611bf48184611ba4565b905092915050565b5f80fd5b5f73ffffffffffffffffffffffffffffffffffffffff82169050919050565b5f611c2982611c00565b9050919050565b611c3981611c1f565b8114611c43575f80fd5b50565b5f81359050611c5481611c30565b92915050565b5f819050919050565b611c6c81611c5a565b8114611c76575f80fd5b50565b5f81359050611c8781611c63565b92915050565b5f8060408385031215611ca357611ca2611bfc565b5b5f611cb085828601611c46565b9250506020611cc185828601611c79565b9150509250929050565b5f8115159050919050565b611cdf81611ccb565b82525050565b5f602082019050611cf85f830184611cd6565b92915050565b611d0781611c5a565b82525050565b5f602082019050611d205f830184611cfe565b92915050565b5f60208284031215611d3b57611d3a611bfc565b5b5f611d4884828501611c46565b91505092915050565b5f604082019050611d645f830185611cfe565b611d716020830184611cfe565b9392505050565b5f805f60608486031215611d8f57611d8e611bfc565b5b5f611d9c86828701611c46565b9350506020611dad86828701611c46565b9250506040611dbe86828701611c79565b9150509250925092565b5f819050919050565b5f611deb611de6611de184611c00565b611dc8565b611c00565b9050919050565b5f611dfc82611dd1565b9050919050565b5f611e0d82611df2565b9050919050565b611e1d81611e03565b82525050565b5f602082019050611e365f830184611e14565b92915050565b5f60ff82169050919050565b611e5181611e3c565b82525050565b5f602082019050611e6a5f830184611e48565b92915050565b5f8060408385031215611e8657611e85611bfc565b5b5f611e9385828601611c79565b9250506020611ea485828601611c79565b9150509250929050565b611eb781611c1f565b82525050565b5f602082019050611ed05f830184611eae565b92915050565b5f60208284031215611eeb57611eea611bfc565b5b5f611ef884828501611c79565b91505092915050565b5f8060408385031215611f1757611f16611bfc565b5b5f611f2485828601611c46565b9250506020611f3585828601611c46565b9150509250929050565b5f805f60608486031215611f5657611f55611bfc565b5b5f611f6386828701611c79565b9350506020611f7486828701611c46565b9250506040611f8586828701611c79565b9150509250925092565b611f9881611c5a565b82525050565b611fa781611ccb565b82525050565b606082015f820151611fc15f850182611f8f565b506020820151611fd46020850182611f8f565b506040820151611fe76040850182611f9e565b50505050565b5f6060820190506120005f830184611fad565b92915050565b7f4e487b71000000000000000000000000000000000000000000000000000000005f52602260045260245ffd5b5f600282049050600182168061204a57607f821691505b60208210810361205d5761205c612006565b5b50919050565b7f546f6b656e207472616e73666572206661696c656400000000000000000000005f82015250565b5f612097601583611b76565b91506120a282612063565b602082019050919050565b5f6020820190508181035f8301526120c48161208b565b9050919050565b7f4e487b71000000000000000000000000000000000000000000000000000000005f52601160045260245ffd5b5f61210282611c5a565b915061210d83611c5a565b9250828201905080821115612125576121246120cb565b5b92915050565b5f61213582611c5a565b915061214083611c5a565b9250828203905081811115612158576121576120cb565b5b92915050565b7f5472616e73666572206661696c656400000000000000000000000000000000005f82015250565b5f612192600f83611b76565b915061219d8261215e565b602082019050919050565b5f6020820190508181035f8301526121bf81612186565b9050919050565b5f6121d082611c5a565b91506121db83611c5a565b92508282026121e981611c5a565b91508282048414831517612200576121ff6120cb565b5b5092915050565b7f4e487b71000000000000000000000000000000000000000000000000000000005f52601260045260245ffd5b5f61223e82611c5a565b915061224983611c5a565b92508261225957612258612207565b5b828204905092915050565b7f436f6d6d697373696f6e207472616e73666572206661696c65640000000000005f82015250565b5f612298601a83611b76565b91506122a382612264565b602082019050919050565b5f6020820190508181035f8301526122c58161228c565b9050919050565b7f57616765207472616e73666572206661696c65640000000000000000000000005f82015250565b5f612300601483611b76565b915061230b826122cc565b602082019050919050565b5f6020820190508181035f83015261232d816122f4565b9050919050565b7f5061727469616c2077616765207472616e73666572206661696c6564000000005f82015250565b5f612368601c83611b76565b915061237382612334565b602082019050919050565b5f6020820190508181035f8301526123958161235c565b9050919050565b7f5061757361626c653a20706175736564000000000000000000000000000000005f82015250565b5f6123d0601083611b76565b91506123db8261239c565b602082019050919050565b5f6020820190508181035f8301526123fd816123c4565b9050919050565b7f5265656e7472616e637947756172643a207265656e7472616e742063616c6c005f82015250565b5f612438601f83611b76565b915061244382612404565b602082019050919050565b5f6020820190508181035f8301526124658161242c565b9050919050565b5f60608201905061247f5f830186611eae565b61248c6020830185611cfe565b6124996040830184611cfe565b949350505050565b7f5061757361626c653a206e6f74207061757365640000000000000000000000005f82015250565b5f6124d5601483611b76565b91506124e0826124a1565b602082019050919050565b5f6020820190508181035f830152612502816124c9565b905091905056fea2646970667358221220df2eff5a9840d82dd398b182210a5bd3c4a6f4dfd04e5663678be715631bb64764736f6c634300081a0033",
					"opcodes": "PUSH1 0x80 PUSH1 0x40 MSTORE CALLVALUE DUP1 ISZERO PUSH2 0xF JUMPI PUSH0 DUP1 REVERT JUMPDEST POP PUSH1 0x40 MLOAD PUSH2 0x330B CODESIZE SUB DUP1 PUSH2 0x330B DUP4 CODECOPY DUP2 DUP2 ADD PUSH1 0x40 MSTORE DUP2 ADD SWAP1 PUSH2 0x31 SWAP2 SWAP1 PUSH2 0x79C JUMP JUMPDEST CALLER DUP5 DUP5 DUP2 PUSH1 0x3 SWAP1 DUP2 PUSH2 0x43 SWAP2 SWAP1 PUSH2 0xA45 JUMP JUMPDEST POP DUP1 PUSH1 0x4 SWAP1 DUP2 PUSH2 0x53 SWAP2 SWAP1 PUSH2 0xA45 JUMP JUMPDEST POP POP POP PUSH0 PUSH1 0x5 PUSH0 PUSH2 0x100 EXP DUP2 SLOAD DUP2 PUSH1 0xFF MUL NOT AND SWAP1 DUP4 ISZERO ISZERO MUL OR SWAP1 SSTORE POP PUSH0 PUSH20 0xFFFFFFFFFFFFFFFFFFFFFFFFFFFFFFFFFFFFFFFF AND DUP2 PUSH20 0xFFFFFFFFFFFFFFFFFFFFFFFFFFFFFFFFFFFFFFFF AND SUB PUSH2 0xDF JUMPI PUSH0 PUSH1 0x40 MLOAD PUSH32 0x1E4FBDF700000000000000000000000000000000000000000000000000000000 DUP2 MSTORE PUSH1 0x4 ADD PUSH2 0xD6 SWAP2 SWAP1 PUSH2 0xB23 JUMP JUMPDEST PUSH1 0x40 MLOAD DUP1 SWAP2 SUB SWAP1 REVERT JUMPDEST PUSH2 0xEE DUP2 PUSH2 0x28A PUSH1 0x20 SHL PUSH1 0x20 SHR JUMP JUMPDEST POP PUSH1 0x1 PUSH1 0x6 DUP2 SWAP1 SSTORE POP PUSH0 PUSH20 0xFFFFFFFFFFFFFFFFFFFFFFFFFFFFFFFFFFFFFFFF AND DUP3 PUSH20 0xFFFFFFFFFFFFFFFFFFFFFFFFFFFFFFFFFFFFFFFF AND SUB PUSH2 0x15C JUMPI PUSH1 0x40 MLOAD PUSH32 0xF8AF67E500000000000000000000000000000000000000000000000000000000 DUP2 MSTORE PUSH1 0x4 ADD PUSH1 0x40 MLOAD DUP1 SWAP2 SUB SWAP1 REVERT JUMPDEST PUSH0 PUSH20 0xFFFFFFFFFFFFFFFFFFFFFFFFFFFFFFFFFFFFFFFF AND DUP2 PUSH20 0xFFFFFFFFFFFFFFFFFFFFFFFFFFFFFFFFFFFFFFFF AND SUB PUSH2 0x1C1 JUMPI PUSH1 0x40 MLOAD PUSH32 0xCFE2EA6300000000000000000000000000000000000000000000000000000000 DUP2 MSTORE PUSH1 0x4 ADD PUSH1 0x40 MLOAD DUP1 SWAP2 SUB SWAP1 REVERT JUMPDEST DUP2 PUSH1 0x8 PUSH0 PUSH2 0x100 EXP DUP2 SLOAD DUP2 PUSH20 0xFFFFFFFFFFFFFFFFFFFFFFFFFFFFFFFFFFFFFFFF MUL NOT AND SWAP1 DUP4 PUSH20 0xFFFFFFFFFFFFFFFFFFFFFFFFFFFFFFFFFFFFFFFF AND MUL OR SWAP1 SSTORE POP DUP1 PUSH1 0xA PUSH0 PUSH2 0x100 EXP DUP2 SLOAD DUP2 PUSH20 0xFFFFFFFFFFFFFFFFFFFFFFFFFFFFFFFFFFFFFFFF MUL NOT AND SWAP1 DUP4 PUSH20 0xFFFFFFFFFFFFFFFFFFFFFFFFFFFFFFFFFFFFFFFF AND MUL OR SWAP1 SSTORE POP PUSH2 0x1F4 PUSH1 0x9 DUP2 SWAP1 SSTORE POP PUSH2 0x281 CALLER PUSH2 0x25C PUSH2 0x34F PUSH1 0x20 SHL PUSH1 0x20 SHR JUMP JUMPDEST PUSH1 0xA PUSH2 0x268 SWAP2 SWAP1 PUSH2 0xCA4 JUMP JUMPDEST PUSH3 0xF4240 PUSH2 0x276 SWAP2 SWAP1 PUSH2 0xCEE JUMP JUMPDEST PUSH2 0x357 PUSH1 0x20 SHL PUSH1 0x20 SHR JUMP JUMPDEST POP POP POP POP PUSH2 0xDBF JUMP JUMPDEST PUSH0 PUSH1 0x5 PUSH1 0x1 SWAP1 SLOAD SWAP1 PUSH2 0x100 EXP SWAP1 DIV PUSH20 0xFFFFFFFFFFFFFFFFFFFFFFFFFFFFFFFFFFFFFFFF AND SWAP1 POP DUP2 PUSH1 0x5 PUSH1 0x1 PUSH2 0x100 EXP DUP2 SLOAD DUP2 PUSH20 0xFFFFFFFFFFFFFFFFFFFFFFFFFFFFFFFFFFFFFFFF MUL NOT AND SWAP1 DUP4 PUSH20 0xFFFFFFFFFFFFFFFFFFFFFFFFFFFFFFFFFFFFFFFF AND MUL OR SWAP1 SSTORE POP DUP2 PUSH20 0xFFFFFFFFFFFFFFFFFFFFFFFFFFFFFFFFFFFFFFFF AND DUP2 PUSH20 0xFFFFFFFFFFFFFFFFFFFFFFFFFFFFFFFFFFFFFFFF AND PUSH32 0x8BE0079C531659141344CD1FD0A4F28419497F9722A3DAAFE3B4186F6B6457E0 PUSH1 0x40 MLOAD PUSH1 0x40 MLOAD DUP1 SWAP2 SUB SWAP1 LOG3 POP POP JUMP JUMPDEST PUSH0 PUSH1 0x12 SWAP1 POP SWAP1 JUMP JUMPDEST PUSH0 PUSH20 0xFFFFFFFFFFFFFFFFFFFFFFFFFFFFFFFFFFFFFFFF AND DUP3 PUSH20 0xFFFFFFFFFFFFFFFFFFFFFFFFFFFFFFFFFFFFFFFF AND SUB PUSH2 0x3C7 JUMPI PUSH0 PUSH1 0x40 MLOAD PUSH32 0xEC442F0500000000000000000000000000000000000000000000000000000000 DUP2 MSTORE PUSH1 0x4 ADD PUSH2 0x3BE SWAP2 SWAP1 PUSH2 0xB23 JUMP JUMPDEST PUSH1 0x40 MLOAD DUP1 SWAP2 SUB SWAP1 REVERT JUMPDEST PUSH2 0x3D8 PUSH0 DUP4 DUP4 PUSH2 0x3DC PUSH1 0x20 SHL PUSH1 0x20 SHR JUMP JUMPDEST POP POP JUMP JUMPDEST PUSH0 PUSH20 0xFFFFFFFFFFFFFFFFFFFFFFFFFFFFFFFFFFFFFFFF AND DUP4 PUSH20 0xFFFFFFFFFFFFFFFFFFFFFFFFFFFFFFFFFFFFFFFF AND SUB PUSH2 0x42C JUMPI DUP1 PUSH1 0x2 PUSH0 DUP3 DUP3 SLOAD PUSH2 0x420 SWAP2 SWAP1 PUSH2 0xD2F JUMP JUMPDEST SWAP3 POP POP DUP2 SWAP1 SSTORE POP PUSH2 0x4FA JUMP JUMPDEST PUSH0 DUP1 PUSH0 DUP6 PUSH20 0xFFFFFFFFFFFFFFFFFFFFFFFFFFFFFFFFFFFFFFFF AND PUSH20 0xFFFFFFFFFFFFFFFFFFFFFFFFFFFFFFFFFFFFFFFF AND DUP2 MSTORE PUSH1 0x20 ADD SWAP1 DUP2 MSTORE PUSH1 0x20 ADD PUSH0 KECCAK256 SLOAD SWAP1 POP DUP2 DUP2 LT ISZERO PUSH2 0x4B5 JUMPI DUP4 DUP2 DUP4 PUSH1 0x40 MLOAD PUSH32 0xE450D38C00000000000000000000000000000000000000000000000000000000 DUP2 MSTORE PUSH1 0x4 ADD PUSH2 0x4AC SWAP4 SWAP3 SWAP2 SWAP1 PUSH2 0xD71 JUMP JUMPDEST PUSH1 0x40 MLOAD DUP1 SWAP2 SUB SWAP1 REVERT JUMPDEST DUP2 DUP2 SUB PUSH0 DUP1 DUP7 PUSH20 0xFFFFFFFFFFFFFFFFFFFFFFFFFFFFFFFFFFFFFFFF AND PUSH20 0xFFFFFFFFFFFFFFFFFFFFFFFFFFFFFFFFFFFFFFFF AND DUP2 MSTORE PUSH1 0x20 ADD SWAP1 DUP2 MSTORE PUSH1 0x20 ADD PUSH0 KECCAK256 DUP2 SWAP1 SSTORE POP POP JUMPDEST PUSH0 PUSH20 0xFFFFFFFFFFFFFFFFFFFFFFFFFFFFFFFFFFFFFFFF AND DUP3 PUSH20 0xFFFFFFFFFFFFFFFFFFFFFFFFFFFFFFFFFFFFFFFF AND SUB PUSH2 0x541 JUMPI DUP1 PUSH1 0x2 PUSH0 DUP3 DUP3 SLOAD SUB SWAP3 POP POP DUP2 SWAP1 SSTORE POP PUSH2 0x58B JUMP JUMPDEST DUP1 PUSH0 DUP1 DUP5 PUSH20 0xFFFFFFFFFFFFFFFFFFFFFFFFFFFFFFFFFFFFFFFF AND PUSH20 0xFFFFFFFFFFFFFFFFFFFFFFFFFFFFFFFFFFFFFFFF AND DUP2 MSTORE PUSH1 0x20 ADD SWAP1 DUP2 MSTORE PUSH1 0x20 ADD PUSH0 KECCAK256 PUSH0 DUP3 DUP3 SLOAD ADD SWAP3 POP POP DUP2 SWAP1 SSTORE POP JUMPDEST DUP2 PUSH20 0xFFFFFFFFFFFFFFFFFFFFFFFFFFFFFFFFFFFFFFFF AND DUP4 PUSH20 0xFFFFFFFFFFFFFFFFFFFFFFFFFFFFFFFFFFFFFFFF AND PUSH32 0xDDF252AD1BE2C89B69C2B068FC378DAA952BA7F163C4A11628F55A4DF523B3EF DUP4 PUSH1 0x40 MLOAD PUSH2 0x5E8 SWAP2 SWAP1 PUSH2 0xDA6 JUMP JUMPDEST PUSH1 0x40 MLOAD DUP1 SWAP2 SUB SWAP1 LOG3 POP POP POP JUMP JUMPDEST PUSH0 PUSH1 0x40 MLOAD SWAP1 POP SWAP1 JUMP JUMPDEST PUSH0 DUP1 REVERT JUMPDEST PUSH0 DUP1 REVERT JUMPDEST PUSH0 DUP1 REVERT JUMPDEST PUSH0 DUP1 REVERT JUMPDEST PUSH0 PUSH1 0x1F NOT PUSH1 0x1F DUP4 ADD AND SWAP1 POP SWAP2 SWAP1 POP JUMP JUMPDEST PUSH32 0x4E487B7100000000000000000000000000000000000000000000000000000000 PUSH0 MSTORE PUSH1 0x41 PUSH1 0x4 MSTORE PUSH1 0x24 PUSH0 REVERT JUMPDEST PUSH2 0x654 DUP3 PUSH2 0x60E JUMP JUMPDEST DUP2 ADD DUP2 DUP2 LT PUSH8 0xFFFFFFFFFFFFFFFF DUP3 GT OR ISZERO PUSH2 0x673 JUMPI PUSH2 0x672 PUSH2 0x61E JUMP JUMPDEST JUMPDEST DUP1 PUSH1 0x40 MSTORE POP POP POP JUMP JUMPDEST PUSH0 PUSH2 0x685 PUSH2 0x5F5 JUMP JUMPDEST SWAP1 POP PUSH2 0x691 DUP3 DUP3 PUSH2 0x64B JUMP JUMPDEST SWAP2 SWAP1 POP JUMP JUMPDEST PUSH0 PUSH8 0xFFFFFFFFFFFFFFFF DUP3 GT ISZERO PUSH2 0x6B0 JUMPI PUSH2 0x6AF PUSH2 0x61E JUMP JUMPDEST JUMPDEST PUSH2 0x6B9 DUP3 PUSH2 0x60E JUMP JUMPDEST SWAP1 POP PUSH1 0x20 DUP2 ADD SWAP1 POP SWAP2 SWAP1 POP JUMP JUMPDEST DUP3 DUP2 DUP4 MCOPY PUSH0 DUP4 DUP4 ADD MSTORE POP POP POP JUMP JUMPDEST PUSH0 PUSH2 0x6E6 PUSH2 0x6E1 DUP5 PUSH2 0x696 JUMP JUMPDEST PUSH2 0x67C JUMP JUMPDEST SWAP1 POP DUP3 DUP2 MSTORE PUSH1 0x20 DUP2 ADD DUP5 DUP5 DUP5 ADD GT ISZERO PUSH2 0x702 JUMPI PUSH2 0x701 PUSH2 0x60A JUMP JUMPDEST JUMPDEST PUSH2 0x70D DUP5 DUP3 DUP6 PUSH2 0x6C6 JUMP JUMPDEST POP SWAP4 SWAP3 POP POP POP JUMP JUMPDEST PUSH0 DUP3 PUSH1 0x1F DUP4 ADD SLT PUSH2 0x729 JUMPI PUSH2 0x728 PUSH2 0x606 JUMP JUMPDEST JUMPDEST DUP2 MLOAD PUSH2 0x739 DUP5 DUP3 PUSH1 0x20 DUP7 ADD PUSH2 0x6D4 JUMP JUMPDEST SWAP2 POP POP SWAP3 SWAP2 POP POP JUMP JUMPDEST PUSH0 PUSH20 0xFFFFFFFFFFFFFFFFFFFFFFFFFFFFFFFFFFFFFFFF DUP3 AND SWAP1 POP SWAP2 SWAP1 POP JUMP JUMPDEST PUSH0 PUSH2 0x76B DUP3 PUSH2 0x742 JUMP JUMPDEST SWAP1 POP SWAP2 SWAP1 POP JUMP JUMPDEST PUSH2 0x77B DUP2 PUSH2 0x761 JUMP JUMPDEST DUP2 EQ PUSH2 0x785 JUMPI PUSH0 DUP1 REVERT JUMPDEST POP JUMP JUMPDEST PUSH0 DUP2 MLOAD SWAP1 POP PUSH2 0x796 DUP2 PUSH2 0x772 JUMP JUMPDEST SWAP3 SWAP2 POP POP JUMP JUMPDEST PUSH0 DUP1 PUSH0 DUP1 PUSH1 0x80 DUP6 DUP8 SUB SLT ISZERO PUSH2 0x7B4 JUMPI PUSH2 0x7B3 PUSH2 0x5FE JUMP JUMPDEST JUMPDEST PUSH0 DUP6 ADD MLOAD PUSH8 0xFFFFFFFFFFFFFFFF DUP2 GT ISZERO PUSH2 0x7D1 JUMPI PUSH2 0x7D0 PUSH2 0x602 JUMP JUMPDEST JUMPDEST PUSH2 0x7DD DUP8 DUP3 DUP9 ADD PUSH2 0x715 JUMP JUMPDEST SWAP5 POP POP PUSH1 0x20 DUP6 ADD MLOAD PUSH8 0xFFFFFFFFFFFFFFFF DUP2 GT ISZERO PUSH2 0x7FE JUMPI PUSH2 0x7FD PUSH2 0x602 JUMP JUMPDEST JUMPDEST PUSH2 0x80A DUP8 DUP3 DUP9 ADD PUSH2 0x715 JUMP JUMPDEST SWAP4 POP POP PUSH1 0x40 PUSH2 0x81B DUP8 DUP3 DUP9 ADD PUSH2 0x788 JUMP JUMPDEST SWAP3 POP POP PUSH1 0x60 PUSH2 0x82C DUP8 DUP3 DUP9 ADD PUSH2 0x788 JUMP JUMPDEST SWAP2 POP POP SWAP3 SWAP6 SWAP2 SWAP5 POP SWAP3 POP JUMP JUMPDEST PUSH0 DUP2 MLOAD SWAP1 POP SWAP2 SWAP1 POP JUMP JUMPDEST PUSH32 0x4E487B7100000000000000000000000000000000000000000000000000000000 PUSH0 MSTORE PUSH1 0x22 PUSH1 0x4 MSTORE PUSH1 0x24 PUSH0 REVERT JUMPDEST PUSH0 PUSH1 0x2 DUP3 DIV SWAP1 POP PUSH1 0x1 DUP3 AND DUP1 PUSH2 0x886 JUMPI PUSH1 0x7F DUP3 AND SWAP2 POP JUMPDEST PUSH1 0x20 DUP3 LT DUP2 SUB PUSH2 0x899 JUMPI PUSH2 0x898 PUSH2 0x842 JUMP JUMPDEST JUMPDEST POP SWAP2 SWAP1 POP JUMP JUMPDEST PUSH0 DUP2 SWAP1 POP DUP2 PUSH0 MSTORE PUSH1 0x20 PUSH0 KECCAK256 SWAP1 POP SWAP2 SWAP1 POP JUMP JUMPDEST PUSH0 PUSH1 0x20 PUSH1 0x1F DUP4 ADD DIV SWAP1 POP SWAP2 SWAP1 POP JUMP JUMPDEST PUSH0 DUP3 DUP3 SHL SWAP1 POP SWAP3 SWAP2 POP POP JUMP JUMPDEST PUSH0 PUSH1 0x8 DUP4 MUL PUSH2 0x8FB PUSH32 0xFFFFFFFFFFFFFFFFFFFFFFFFFFFFFFFFFFFFFFFFFFFFFFFFFFFFFFFFFFFFFFFF DUP3 PUSH2 0x8C0 JUMP JUMPDEST PUSH2 0x905 DUP7 DUP4 PUSH2 0x8C0 JUMP JUMPDEST SWAP6 POP DUP1 NOT DUP5 AND SWAP4 POP DUP1 DUP7 AND DUP5 OR SWAP3 POP POP POP SWAP4 SWAP3 POP POP POP JUMP JUMPDEST PUSH0 DUP2 SWAP1 POP SWAP2 SWAP1 POP JUMP JUMPDEST PUSH0 DUP2 SWAP1 POP SWAP2 SWAP1 POP JUMP JUMPDEST PUSH0 PUSH2 0x949 PUSH2 0x944 PUSH2 0x93F DUP5 PUSH2 0x91D JUMP JUMPDEST PUSH2 0x926 JUMP JUMPDEST PUSH2 0x91D JUMP JUMPDEST SWAP1 POP SWAP2 SWAP1 POP JUMP JUMPDEST PUSH0 DUP2 SWAP1 POP SWAP2 SWAP1 POP JUMP JUMPDEST PUSH2 0x962 DUP4 PUSH2 0x92F JUMP JUMPDEST PUSH2 0x976 PUSH2 0x96E DUP3 PUSH2 0x950 JUMP JUMPDEST DUP5 DUP5 SLOAD PUSH2 0x8CC JUMP JUMPDEST DUP3 SSTORE POP POP POP POP JUMP JUMPDEST PUSH0 SWAP1 JUMP JUMPDEST PUSH2 0x98A PUSH2 0x97E JUMP JUMPDEST PUSH2 0x995 DUP2 DUP5 DUP5 PUSH2 0x959 JUMP JUMPDEST POP POP POP JUMP JUMPDEST JUMPDEST DUP2 DUP2 LT ISZERO PUSH2 0x9B8 JUMPI PUSH2 0x9AD PUSH0 DUP3 PUSH2 0x982 JUMP JUMPDEST PUSH1 0x1 DUP2 ADD SWAP1 POP PUSH2 0x99B JUMP JUMPDEST POP POP JUMP JUMPDEST PUSH1 0x1F DUP3 GT ISZERO PUSH2 0x9FD JUMPI PUSH2 0x9CE DUP2 PUSH2 0x89F JUMP JUMPDEST PUSH2 0x9D7 DUP5 PUSH2 0x8B1 JUMP JUMPDEST DUP2 ADD PUSH1 0x20 DUP6 LT ISZERO PUSH2 0x9E6 JUMPI DUP2 SWAP1 POP JUMPDEST PUSH2 0x9FA PUSH2 0x9F2 DUP6 PUSH2 0x8B1 JUMP JUMPDEST DUP4 ADD DUP3 PUSH2 0x99A JUMP JUMPDEST POP POP JUMPDEST POP POP POP JUMP JUMPDEST PUSH0 DUP3 DUP3 SHR SWAP1 POP SWAP3 SWAP2 POP POP JUMP JUMPDEST PUSH0 PUSH2 0xA1D PUSH0 NOT DUP5 PUSH1 0x8 MUL PUSH2 0xA02 JUMP JUMPDEST NOT DUP1 DUP4 AND SWAP2 POP POP SWAP3 SWAP2 POP POP JUMP JUMPDEST PUSH0 PUSH2 0xA35 DUP4 DUP4 PUSH2 0xA0E JUMP JUMPDEST SWAP2 POP DUP3 PUSH1 0x2 MUL DUP3 OR SWAP1 POP SWAP3 SWAP2 POP POP JUMP JUMPDEST PUSH2 0xA4E DUP3 PUSH2 0x838 JUMP JUMPDEST PUSH8 0xFFFFFFFFFFFFFFFF DUP2 GT ISZERO PUSH2 0xA67 JUMPI PUSH2 0xA66 PUSH2 0x61E JUMP JUMPDEST JUMPDEST PUSH2 0xA71 DUP3 SLOAD PUSH2 0x86F JUMP JUMPDEST PUSH2 0xA7C DUP3 DUP3 DUP6 PUSH2 0x9BC JUMP JUMPDEST PUSH0 PUSH1 0x20 SWAP1 POP PUSH1 0x1F DUP4 GT PUSH1 0x1 DUP2 EQ PUSH2 0xAAD JUMPI PUSH0 DUP5 ISZERO PUSH2 0xA9B JUMPI DUP3 DUP8 ADD MLOAD SWAP1 POP JUMPDEST PUSH2 0xAA5 DUP6 DUP3 PUSH2 0xA2A JUMP JUMPDEST DUP7 SSTORE POP PUSH2 0xB0C JUMP JUMPDEST PUSH1 0x1F NOT DUP5 AND PUSH2 0xABB DUP7 PUSH2 0x89F JUMP JUMPDEST PUSH0 JUMPDEST DUP3 DUP2 LT ISZERO PUSH2 0xAE2 JUMPI DUP5 DUP10 ADD MLOAD DUP3 SSTORE PUSH1 0x1 DUP3 ADD SWAP2 POP PUSH1 0x20 DUP6 ADD SWAP5 POP PUSH1 0x20 DUP2 ADD SWAP1 POP PUSH2 0xABD JUMP JUMPDEST DUP7 DUP4 LT ISZERO PUSH2 0xAFF JUMPI DUP5 DUP10 ADD MLOAD PUSH2 0xAFB PUSH1 0x1F DUP10 AND DUP3 PUSH2 0xA0E JUMP JUMPDEST DUP4 SSTORE POP JUMPDEST PUSH1 0x1 PUSH1 0x2 DUP9 MUL ADD DUP9 SSTORE POP POP POP JUMPDEST POP POP POP POP POP POP JUMP JUMPDEST PUSH2 0xB1D DUP2 PUSH2 0x761 JUMP JUMPDEST DUP3 MSTORE POP POP JUMP JUMPDEST PUSH0 PUSH1 0x20 DUP3 ADD SWAP1 POP PUSH2 0xB36 PUSH0 DUP4 ADD DUP5 PUSH2 0xB14 JUMP JUMPDEST SWAP3 SWAP2 POP POP JUMP JUMPDEST PUSH32 0x4E487B7100000000000000000000000000000000000000000000000000000000 PUSH0 MSTORE PUSH1 0x11 PUSH1 0x4 MSTORE PUSH1 0x24 PUSH0 REVERT JUMPDEST PUSH0 DUP2 PUSH1 0x1 SHR SWAP1 POP SWAP2 SWAP1 POP JUMP JUMPDEST PUSH0 DUP1 DUP3 SWAP2 POP DUP4 SWAP1 POP JUMPDEST PUSH1 0x1 DUP6 GT ISZERO PUSH2 0xBBE JUMPI DUP1 DUP7 DIV DUP2 GT ISZERO PUSH2 0xB9A JUMPI PUSH2 0xB99 PUSH2 0xB3C JUMP JUMPDEST JUMPDEST PUSH1 0x1 DUP6 AND ISZERO PUSH2 0xBA9 JUMPI DUP1 DUP3 MUL SWAP2 POP JUMPDEST DUP1 DUP2 MUL SWAP1 POP PUSH2 0xBB7 DUP6 PUSH2 0xB69 JUMP JUMPDEST SWAP5 POP PUSH2 0xB7E JUMP JUMPDEST SWAP5 POP SWAP5 SWAP3 POP POP POP JUMP JUMPDEST PUSH0 DUP3 PUSH2 0xBD6 JUMPI PUSH1 0x1 SWAP1 POP PUSH2 0xC91 JUMP JUMPDEST DUP2 PUSH2 0xBE3 JUMPI PUSH0 SWAP1 POP PUSH2 0xC91 JUMP JUMPDEST DUP2 PUSH1 0x1 DUP2 EQ PUSH2 0xBF9 JUMPI PUSH1 0x2 DUP2 EQ PUSH2 0xC03 JUMPI PUSH2 0xC32 JUMP JUMPDEST PUSH1 0x1 SWAP2 POP POP PUSH2 0xC91 JUMP JUMPDEST PUSH1 0xFF DUP5 GT ISZERO PUSH2 0xC15 JUMPI PUSH2 0xC14 PUSH2 0xB3C JUMP JUMPDEST JUMPDEST DUP4 PUSH1 0x2 EXP SWAP2 POP DUP5 DUP3 GT ISZERO PUSH2 0xC2C JUMPI PUSH2 0xC2B PUSH2 0xB3C JUMP JUMPDEST JUMPDEST POP PUSH2 0xC91 JUMP JUMPDEST POP PUSH1 0x20 DUP4 LT PUSH2 0x133 DUP4 LT AND PUSH1 0x4E DUP5 LT PUSH1 0xB DUP5 LT AND OR ISZERO PUSH2 0xC67 JUMPI DUP3 DUP3 EXP SWAP1 POP DUP4 DUP2 GT ISZERO PUSH2 0xC62 JUMPI PUSH2 0xC61 PUSH2 0xB3C JUMP JUMPDEST JUMPDEST PUSH2 0xC91 JUMP JUMPDEST PUSH2 0xC74 DUP5 DUP5 DUP5 PUSH1 0x1 PUSH2 0xB75 JUMP JUMPDEST SWAP3 POP SWAP1 POP DUP2 DUP5 DIV DUP2 GT ISZERO PUSH2 0xC8B JUMPI PUSH2 0xC8A PUSH2 0xB3C JUMP JUMPDEST JUMPDEST DUP2 DUP2 MUL SWAP1 POP JUMPDEST SWAP4 SWAP3 POP POP POP JUMP JUMPDEST PUSH0 PUSH1 0xFF DUP3 AND SWAP1 POP SWAP2 SWAP1 POP JUMP JUMPDEST PUSH0 PUSH2 0xCAE DUP3 PUSH2 0x91D JUMP JUMPDEST SWAP2 POP PUSH2 0xCB9 DUP4 PUSH2 0xC98 JUMP JUMPDEST SWAP3 POP PUSH2 0xCE6 PUSH32 0xFFFFFFFFFFFFFFFFFFFFFFFFFFFFFFFFFFFFFFFFFFFFFFFFFFFFFFFFFFFFFFFF DUP5 DUP5 PUSH2 0xBC7 JUMP JUMPDEST SWAP1 POP SWAP3 SWAP2 POP POP JUMP JUMPDEST PUSH0 PUSH2 0xCF8 DUP3 PUSH2 0x91D JUMP JUMPDEST SWAP2 POP PUSH2 0xD03 DUP4 PUSH2 0x91D JUMP JUMPDEST SWAP3 POP DUP3 DUP3 MUL PUSH2 0xD11 DUP2 PUSH2 0x91D JUMP JUMPDEST SWAP2 POP DUP3 DUP3 DIV DUP5 EQ DUP4 ISZERO OR PUSH2 0xD28 JUMPI PUSH2 0xD27 PUSH2 0xB3C JUMP JUMPDEST JUMPDEST POP SWAP3 SWAP2 POP POP JUMP JUMPDEST PUSH0 PUSH2 0xD39 DUP3 PUSH2 0x91D JUMP JUMPDEST SWAP2 POP PUSH2 0xD44 DUP4 PUSH2 0x91D JUMP JUMPDEST SWAP3 POP DUP3 DUP3 ADD SWAP1 POP DUP1 DUP3 GT ISZERO PUSH2 0xD5C JUMPI PUSH2 0xD5B PUSH2 0xB3C JUMP JUMPDEST JUMPDEST SWAP3 SWAP2 POP POP JUMP JUMPDEST PUSH2 0xD6B DUP2 PUSH2 0x91D JUMP JUMPDEST DUP3 MSTORE POP POP JUMP JUMPDEST PUSH0 PUSH1 0x60 DUP3 ADD SWAP1 POP PUSH2 0xD84 PUSH0 DUP4 ADD DUP7 PUSH2 0xB14 JUMP JUMPDEST PUSH2 0xD91 PUSH1 0x20 DUP4 ADD DUP6 PUSH2 0xD62 JUMP JUMPDEST PUSH2 0xD9E PUSH1 0x40 DUP4 ADD DUP5 PUSH2 0xD62 JUMP JUMPDEST SWAP5 SWAP4 POP POP POP POP JUMP JUMPDEST PUSH0 PUSH1 0x20 DUP3 ADD SWAP1 POP PUSH2 0xDB9 PUSH0 DUP4 ADD DUP5 PUSH2 0xD62 JUMP JUMPDEST SWAP3 SWAP2 POP POP JUMP JUMPDEST PUSH2 0x253F DUP1 PUSH2 0xDCC PUSH0 CODECOPY PUSH0 RETURN INVALID PUSH1 0x80 PUSH1 0x40 MSTORE CALLVALUE DUP1 ISZERO PUSH2 0xF JUMPI PUSH0 DUP1 REVERT JUMPDEST POP PUSH1 0x4 CALLDATASIZE LT PUSH2 0x1A7 JUMPI PUSH0 CALLDATALOAD PUSH1 0xE0 SHR DUP1 PUSH4 0x74612F19 GT PUSH2 0xF7 JUMPI DUP1 PUSH4 0xA9059CBB GT PUSH2 0x95 JUMPI DUP1 PUSH4 0xDD62ED3E GT PUSH2 0x6F JUMPI DUP1 PUSH4 0xDD62ED3E EQ PUSH2 0x484 JUMPI DUP1 PUSH4 0xE95850DF EQ PUSH2 0x4B4 JUMPI DUP1 PUSH4 0xEF9ECC1D EQ PUSH2 0x4D2 JUMPI DUP1 PUSH4 0xF2FDE38B EQ PUSH2 0x502 JUMPI PUSH2 0x1A7 JUMP JUMPDEST DUP1 PUSH4 0xA9059CBB EQ PUSH2 0x408 JUMPI DUP1 PUSH4 0xA9B493E0 EQ PUSH2 0x438 JUMPI DUP1 PUSH4 0xCA525485 EQ PUSH2 0x454 JUMPI PUSH2 0x1A7 JUMP JUMPDEST DUP1 PUSH4 0x8DA5CB5B GT PUSH2 0xD1 JUMPI DUP1 PUSH4 0x8DA5CB5B EQ PUSH2 0x392 JUMPI DUP1 PUSH4 0x95D89B41 EQ PUSH2 0x3B0 JUMPI DUP1 PUSH4 0x9D55FBA7 EQ PUSH2 0x3CE JUMPI DUP1 PUSH4 0xA3262EA2 EQ PUSH2 0x3EA JUMPI PUSH2 0x1A7 JUMP JUMPDEST DUP1 PUSH4 0x74612F19 EQ PUSH2 0x34E JUMPI DUP1 PUSH4 0x77D3550B EQ PUSH2 0x36A JUMPI DUP1 PUSH4 0x8456CB59 EQ PUSH2 0x388 JUMPI PUSH2 0x1A7 JUMP JUMPDEST DUP1 PUSH4 0x2FCDC5FD GT PUSH2 0x164 JUMPI DUP1 PUSH4 0x5C975ABB GT PUSH2 0x13E JUMPI DUP1 PUSH4 0x5C975ABB EQ PUSH2 0x2DA JUMPI DUP1 PUSH4 0x5E182096 EQ PUSH2 0x2F8 JUMPI DUP1 PUSH4 0x70A08231 EQ PUSH2 0x314 JUMPI DUP1 PUSH4 0x715018A6 EQ PUSH2 0x344 JUMPI PUSH2 0x1A7 JUMP JUMPDEST DUP1 PUSH4 0x2FCDC5FD EQ PUSH2 0x296 JUMPI DUP1 PUSH4 0x313CE567 EQ PUSH2 0x2B2 JUMPI DUP1 PUSH4 0x3F4BA83A EQ PUSH2 0x2D0 JUMPI PUSH2 0x1A7 JUMP JUMPDEST DUP1 PUSH4 0x6FDDE03 EQ PUSH2 0x1AB JUMPI DUP1 PUSH4 0x95EA7B3 EQ PUSH2 0x1C9 JUMPI DUP1 PUSH4 0x18160DDD EQ PUSH2 0x1F9 JUMPI DUP1 PUSH4 0x1EC48CF7 EQ PUSH2 0x217 JUMPI DUP1 PUSH4 0x23B872DD EQ PUSH2 0x248 JUMPI DUP1 PUSH4 0x2A26C9CD EQ PUSH2 0x278 JUMPI JUMPDEST PUSH0 DUP1 REVERT JUMPDEST PUSH2 0x1B3 PUSH2 0x51E JUMP JUMPDEST PUSH1 0x40 MLOAD PUSH2 0x1C0 SWAP2 SWAP1 PUSH2 0x1BDC JUMP JUMPDEST PUSH1 0x40 MLOAD DUP1 SWAP2 SUB SWAP1 RETURN JUMPDEST PUSH2 0x1E3 PUSH1 0x4 DUP1 CALLDATASIZE SUB DUP2 ADD SWAP1 PUSH2 0x1DE SWAP2 SWAP1 PUSH2 0x1C8D JUMP JUMPDEST PUSH2 0x5AE JUMP JUMPDEST PUSH1 0x40 MLOAD PUSH2 0x1F0 SWAP2 SWAP1 PUSH2 0x1CE5 JUMP JUMPDEST PUSH1 0x40 MLOAD DUP1 SWAP2 SUB SWAP1 RETURN JUMPDEST PUSH2 0x201 PUSH2 0x5D0 JUMP JUMPDEST PUSH1 0x40 MLOAD PUSH2 0x20E SWAP2 SWAP1 PUSH2 0x1D0D JUMP JUMPDEST PUSH1 0x40 MLOAD DUP1 SWAP2 SUB SWAP1 RETURN JUMPDEST PUSH2 0x231 PUSH1 0x4 DUP1 CALLDATASIZE SUB DUP2 ADD SWAP1 PUSH2 0x22C SWAP2 SWAP1 PUSH2 0x1D26 JUMP JUMPDEST PUSH2 0x5D9 JUMP JUMPDEST PUSH1 0x40 MLOAD PUSH2 0x23F SWAP3 SWAP2 SWAP1 PUSH2 0x1D51 JUMP JUMPDEST PUSH1 0x40 MLOAD DUP1 SWAP2 SUB SWAP1 RETURN JUMPDEST PUSH2 0x262 PUSH1 0x4 DUP1 CALLDATASIZE SUB DUP2 ADD SWAP1 PUSH2 0x25D SWAP2 SWAP1 PUSH2 0x1D78 JUMP JUMPDEST PUSH2 0x5F7 JUMP JUMPDEST PUSH1 0x40 MLOAD PUSH2 0x26F SWAP2 SWAP1 PUSH2 0x1CE5 JUMP JUMPDEST PUSH1 0x40 MLOAD DUP1 SWAP2 SUB SWAP1 RETURN JUMPDEST PUSH2 0x280 PUSH2 0x614 JUMP JUMPDEST PUSH1 0x40 MLOAD PUSH2 0x28D SWAP2 SWAP1 PUSH2 0x1E23 JUMP JUMPDEST PUSH1 0x40 MLOAD DUP1 SWAP2 SUB SWAP1 RETURN JUMPDEST PUSH2 0x2B0 PUSH1 0x4 DUP1 CALLDATASIZE SUB DUP2 ADD SWAP1 PUSH2 0x2AB SWAP2 SWAP1 PUSH2 0x1D26 JUMP JUMPDEST PUSH2 0x639 JUMP JUMPDEST STOP JUMPDEST PUSH2 0x2BA PUSH2 0x760 JUMP JUMPDEST PUSH1 0x40 MLOAD PUSH2 0x2C7 SWAP2 SWAP1 PUSH2 0x1E57 JUMP JUMPDEST PUSH1 0x40 MLOAD DUP1 SWAP2 SUB SWAP1 RETURN JUMPDEST PUSH2 0x2D8 PUSH2 0x768 JUMP JUMPDEST STOP JUMPDEST PUSH2 0x2E2 PUSH2 0x77A JUMP JUMPDEST PUSH1 0x40 MLOAD PUSH2 0x2EF SWAP2 SWAP1 PUSH2 0x1CE5 JUMP JUMPDEST PUSH1 0x40 MLOAD DUP1 SWAP2 SUB SWAP1 RETURN JUMPDEST PUSH2 0x312 PUSH1 0x4 DUP1 CALLDATASIZE SUB DUP2 ADD SWAP1 PUSH2 0x30D SWAP2 SWAP1 PUSH2 0x1E70 JUMP JUMPDEST PUSH2 0x78F JUMP JUMPDEST STOP JUMPDEST PUSH2 0x32E PUSH1 0x4 DUP1 CALLDATASIZE SUB DUP2 ADD SWAP1 PUSH2 0x329 SWAP2 SWAP1 PUSH2 0x1D26 JUMP JUMPDEST PUSH2 0x8B7 JUMP JUMPDEST PUSH1 0x40 MLOAD PUSH2 0x33B SWAP2 SWAP1 PUSH2 0x1D0D JUMP JUMPDEST PUSH1 0x40 MLOAD DUP1 SWAP2 SUB SWAP1 RETURN JUMPDEST PUSH2 0x34C PUSH2 0x8FC JUMP JUMPDEST STOP JUMPDEST PUSH2 0x368 PUSH1 0x4 DUP1 CALLDATASIZE SUB DUP2 ADD SWAP1 PUSH2 0x363 SWAP2 SWAP1 PUSH2 0x1D26 JUMP JUMPDEST PUSH2 0x90F JUMP JUMPDEST STOP JUMPDEST PUSH2 0x372 PUSH2 0x9F6 JUMP JUMPDEST PUSH1 0x40 MLOAD PUSH2 0x37F SWAP2 SWAP1 PUSH2 0x1D0D JUMP JUMPDEST PUSH1 0x40 MLOAD DUP1 SWAP2 SUB SWAP1 RETURN JUMPDEST PUSH2 0x390 PUSH2 0x9FC JUMP JUMPDEST STOP JUMPDEST PUSH2 0x39A PUSH2 0xA0E JUMP JUMPDEST PUSH1 0x40 MLOAD PUSH2 0x3A7 SWAP2 SWAP1 PUSH2 0x1EBD JUMP JUMPDEST PUSH1 0x40 MLOAD DUP1 SWAP2 SUB SWAP1 RETURN JUMPDEST PUSH2 0x3B8 PUSH2 0xA37 JUMP JUMPDEST PUSH1 0x40 MLOAD PUSH2 0x3C5 SWAP2 SWAP1 PUSH2 0x1BDC JUMP JUMPDEST PUSH1 0x40 MLOAD DUP1 SWAP2 SUB SWAP1 RETURN JUMPDEST PUSH2 0x3E8 PUSH1 0x4 DUP1 CALLDATASIZE SUB DUP2 ADD SWAP1 PUSH2 0x3E3 SWAP2 SWAP1 PUSH2 0x1ED6 JUMP JUMPDEST PUSH2 0xAC7 JUMP JUMPDEST STOP JUMPDEST PUSH2 0x3F2 PUSH2 0xB4C JUMP JUMPDEST PUSH1 0x40 MLOAD PUSH2 0x3FF SWAP2 SWAP1 PUSH2 0x1EBD JUMP JUMPDEST PUSH1 0x40 MLOAD DUP1 SWAP2 SUB SWAP1 RETURN JUMPDEST PUSH2 0x422 PUSH1 0x4 DUP1 CALLDATASIZE SUB DUP2 ADD SWAP1 PUSH2 0x41D SWAP2 SWAP1 PUSH2 0x1C8D JUMP JUMPDEST PUSH2 0xB71 JUMP JUMPDEST PUSH1 0x40 MLOAD PUSH2 0x42F SWAP2 SWAP1 PUSH2 0x1CE5 JUMP JUMPDEST PUSH1 0x40 MLOAD DUP1 SWAP2 SUB SWAP1 RETURN JUMPDEST PUSH2 0x452 PUSH1 0x4 DUP1 CALLDATASIZE SUB DUP2 ADD SWAP1 PUSH2 0x44D SWAP2 SWAP1 PUSH2 0x1E70 JUMP JUMPDEST PUSH2 0xB8C JUMP JUMPDEST STOP JUMPDEST PUSH2 0x46E PUSH1 0x4 DUP1 CALLDATASIZE SUB DUP2 ADD SWAP1 PUSH2 0x469 SWAP2 SWAP1 PUSH2 0x1ED6 JUMP JUMPDEST PUSH2 0xD52 JUMP JUMPDEST PUSH1 0x40 MLOAD PUSH2 0x47B SWAP2 SWAP1 PUSH2 0x1D0D JUMP JUMPDEST PUSH1 0x40 MLOAD DUP1 SWAP2 SUB SWAP1 RETURN JUMPDEST PUSH2 0x49E PUSH1 0x4 DUP1 CALLDATASIZE SUB DUP2 ADD SWAP1 PUSH2 0x499 SWAP2 SWAP1 PUSH2 0x1F01 JUMP JUMPDEST PUSH2 0xD67 JUMP JUMPDEST PUSH1 0x40 MLOAD PUSH2 0x4AB SWAP2 SWAP1 PUSH2 0x1D0D JUMP JUMPDEST PUSH1 0x40 MLOAD DUP1 SWAP2 SUB SWAP1 RETURN JUMPDEST PUSH2 0x4BC PUSH2 0xDE9 JUMP JUMPDEST PUSH1 0x40 MLOAD PUSH2 0x4C9 SWAP2 SWAP1 PUSH2 0x1EBD JUMP JUMPDEST PUSH1 0x40 MLOAD DUP1 SWAP2 SUB SWAP1 RETURN JUMPDEST PUSH2 0x4EC PUSH1 0x4 DUP1 CALLDATASIZE SUB DUP2 ADD SWAP1 PUSH2 0x4E7 SWAP2 SWAP1 PUSH2 0x1F3F JUMP JUMPDEST PUSH2 0xE0E JUMP JUMPDEST PUSH1 0x40 MLOAD PUSH2 0x4F9 SWAP2 SWAP1 PUSH2 0x1FED JUMP JUMPDEST PUSH1 0x40 MLOAD DUP1 SWAP2 SUB SWAP1 RETURN JUMPDEST PUSH2 0x51C PUSH1 0x4 DUP1 CALLDATASIZE SUB DUP2 ADD SWAP1 PUSH2 0x517 SWAP2 SWAP1 PUSH2 0x1D26 JUMP JUMPDEST PUSH2 0x11EF JUMP JUMPDEST STOP JUMPDEST PUSH1 0x60 PUSH1 0x3 DUP1 SLOAD PUSH2 0x52D SWAP1 PUSH2 0x2033 JUMP JUMPDEST DUP1 PUSH1 0x1F ADD PUSH1 0x20 DUP1 SWAP2 DIV MUL PUSH1 0x20 ADD PUSH1 0x40 MLOAD SWAP1 DUP2 ADD PUSH1 0x40 MSTORE DUP1 SWAP3 SWAP2 SWAP1 DUP2 DUP2 MSTORE PUSH1 0x20 ADD DUP3 DUP1 SLOAD PUSH2 0x559 SWAP1 PUSH2 0x2033 JUMP JUMPDEST DUP1 ISZERO PUSH2 0x5A4 JUMPI DUP1 PUSH1 0x1F LT PUSH2 0x57B JUMPI PUSH2 0x100 DUP1 DUP4 SLOAD DIV MUL DUP4 MSTORE SWAP2 PUSH1 0x20 ADD SWAP2 PUSH2 0x5A4 JUMP JUMPDEST DUP3 ADD SWAP2 SWAP1 PUSH0 MSTORE PUSH1 0x20 PUSH0 KECCAK256 SWAP1 JUMPDEST DUP2 SLOAD DUP2 MSTORE SWAP1 PUSH1 0x1 ADD SWAP1 PUSH1 0x20 ADD DUP1 DUP4 GT PUSH2 0x587 JUMPI DUP3 SWAP1 SUB PUSH1 0x1F AND DUP3 ADD SWAP2 JUMPDEST POP POP POP POP POP SWAP1 POP SWAP1 JUMP JUMPDEST PUSH0 DUP1 PUSH2 0x5B8 PUSH2 0x1273 JUMP JUMPDEST SWAP1 POP PUSH2 0x5C5 DUP2 DUP6 DUP6 PUSH2 0x127A JUMP JUMPDEST PUSH1 0x1 SWAP2 POP POP SWAP3 SWAP2 POP POP JUMP JUMPDEST PUSH0 PUSH1 0x2 SLOAD SWAP1 POP SWAP1 JUMP JUMPDEST PUSH0 DUP1 PUSH2 0x5E4 DUP4 PUSH2 0x8B7 JUMP JUMPDEST PUSH2 0x5EE DUP5 ADDRESS PUSH2 0xD67 JUMP JUMPDEST SWAP2 POP SWAP2 POP SWAP2 POP SWAP2 JUMP JUMPDEST PUSH0 PUSH2 0x600 PUSH2 0x128C JUMP JUMPDEST PUSH2 0x60B DUP5 DUP5 DUP5 PUSH2 0x12D6 JUMP JUMPDEST SWAP1 POP SWAP4 SWAP3 POP POP POP JUMP JUMPDEST PUSH1 0x7 PUSH0 SWAP1 SLOAD SWAP1 PUSH2 0x100 EXP SWAP1 DIV PUSH20 0xFFFFFFFFFFFFFFFFFFFFFFFFFFFFFFFFFFFFFFFF AND DUP2 JUMP JUMPDEST PUSH2 0x641 PUSH2 0x1304 JUMP JUMPDEST PUSH0 PUSH20 0xFFFFFFFFFFFFFFFFFFFFFFFFFFFFFFFFFFFFFFFF AND DUP2 PUSH20 0xFFFFFFFFFFFFFFFFFFFFFFFFFFFFFFFFFFFFFFFF AND SUB PUSH2 0x6A6 JUMPI PUSH1 0x40 MLOAD PUSH32 0xF8AF67E500000000000000000000000000000000000000000000000000000000 DUP2 MSTORE PUSH1 0x4 ADD PUSH1 0x40 MLOAD DUP1 SWAP2 SUB SWAP1 REVERT JUMPDEST DUP1 PUSH1 0x8 PUSH0 PUSH2 0x100 EXP DUP2 SLOAD DUP2 PUSH20 0xFFFFFFFFFFFFFFFFFFFFFFFFFFFFFFFFFFFFFFFF MUL NOT AND SWAP1 DUP4 PUSH20 0xFFFFFFFFFFFFFFFFFFFFFFFFFFFFFFFFFFFFFFFF AND MUL OR SWAP1 SSTORE POP DUP1 PUSH1 0x7 PUSH0 PUSH2 0x100 EXP DUP2 SLOAD DUP2 PUSH20 0xFFFFFFFFFFFFFFFFFFFFFFFFFFFFFFFFFFFFFFFF MUL NOT AND SWAP1 DUP4 PUSH20 0xFFFFFFFFFFFFFFFFFFFFFFFFFFFFFFFFFFFFFFFF AND MUL OR SWAP1 SSTORE POP PUSH32 0xF2610996D245D9B77E4FF84C2174EEA0B76FB44C422218404F66E28816D78FB9 DUP2 PUSH1 0x40 MLOAD PUSH2 0x755 SWAP2 SWAP1 PUSH2 0x1EBD JUMP JUMPDEST PUSH1 0x40 MLOAD DUP1 SWAP2 SUB SWAP1 LOG1 POP JUMP JUMPDEST PUSH0 PUSH1 0x12 SWAP1 POP SWAP1 JUMP JUMPDEST PUSH2 0x770 PUSH2 0x1304 JUMP JUMPDEST PUSH2 0x778 PUSH2 0x138B JUMP JUMPDEST JUMP JUMPDEST PUSH0 PUSH1 0x5 PUSH0 SWAP1 SLOAD SWAP1 PUSH2 0x100 EXP SWAP1 DIV PUSH1 0xFF AND SWAP1 POP SWAP1 JUMP JUMPDEST PUSH2 0x797 PUSH2 0x13EC JUMP JUMPDEST PUSH2 0x79F PUSH2 0x128C JUMP JUMPDEST PUSH0 DUP2 SUB PUSH2 0x7D8 JUMPI PUSH1 0x40 MLOAD PUSH32 0x2C5211C600000000000000000000000000000000000000000000000000000000 DUP2 MSTORE PUSH1 0x4 ADD PUSH1 0x40 MLOAD DUP1 SWAP2 SUB SWAP1 REVERT JUMPDEST PUSH0 CALLER SWAP1 POP PUSH0 PUSH2 0x808 PUSH1 0x8 PUSH0 SWAP1 SLOAD SWAP1 PUSH2 0x100 EXP SWAP1 DIV PUSH20 0xFFFFFFFFFFFFFFFFFFFFFFFFFFFFFFFFFFFFFFFF AND DUP5 PUSH2 0xB71 JUMP JUMPDEST SWAP1 POP DUP1 PUSH2 0x84A JUMPI PUSH1 0x40 MLOAD PUSH32 0x8C379A000000000000000000000000000000000000000000000000000000000 DUP2 MSTORE PUSH1 0x4 ADD PUSH2 0x841 SWAP1 PUSH2 0x20AD JUMP JUMPDEST PUSH1 0x40 MLOAD DUP1 SWAP2 SUB SWAP1 REVERT JUMPDEST DUP3 PUSH1 0xB PUSH0 DUP7 DUP2 MSTORE PUSH1 0x20 ADD SWAP1 DUP2 MSTORE PUSH1 0x20 ADD PUSH0 KECCAK256 PUSH0 DUP3 DUP3 SLOAD PUSH2 0x86A SWAP2 SWAP1 PUSH2 0x20F8 JUMP JUMPDEST SWAP3 POP POP DUP2 SWAP1 SSTORE POP DUP4 PUSH32 0x577DFADB80AB9A5336C633F3FA5F59C296D18A29AA6AE9E4598762748E1F4AFD DUP5 PUSH1 0x40 MLOAD PUSH2 0x8A1 SWAP2 SWAP1 PUSH2 0x1D0D JUMP JUMPDEST PUSH1 0x40 MLOAD DUP1 SWAP2 SUB SWAP1 LOG2 POP POP PUSH2 0x8B3 PUSH2 0x143B JUMP JUMPDEST POP POP JUMP JUMPDEST PUSH0 DUP1 PUSH0 DUP4 PUSH20 0xFFFFFFFFFFFFFFFFFFFFFFFFFFFFFFFFFFFFFFFF AND PUSH20 0xFFFFFFFFFFFFFFFFFFFFFFFFFFFFFFFFFFFFFFFF AND DUP2 MSTORE PUSH1 0x20 ADD SWAP1 DUP2 MSTORE PUSH1 0x20 ADD PUSH0 KECCAK256 SLOAD SWAP1 POP SWAP2 SWAP1 POP JUMP JUMPDEST PUSH2 0x904 PUSH2 0x1304 JUMP JUMPDEST PUSH2 0x90D PUSH0 PUSH2 0x1445 JUMP JUMPDEST JUMP JUMPDEST PUSH2 0x917 PUSH2 0x1304 JUMP JUMPDEST PUSH0 PUSH20 0xFFFFFFFFFFFFFFFFFFFFFFFFFFFFFFFFFFFFFFFF AND DUP2 PUSH20 0xFFFFFFFFFFFFFFFFFFFFFFFFFFFFFFFFFFFFFFFF AND SUB PUSH2 0x97C JUMPI PUSH1 0x40 MLOAD PUSH32 0xCFE2EA6300000000000000000000000000000000000000000000000000000000 DUP2 MSTORE PUSH1 0x4 ADD PUSH1 0x40 MLOAD DUP1 SWAP2 SUB SWAP1 REVERT JUMPDEST DUP1 PUSH1 0xA PUSH0 PUSH2 0x100 EXP DUP2 SLOAD DUP2 PUSH20 0xFFFFFFFFFFFFFFFFFFFFFFFFFFFFFFFFFFFFFFFF MUL NOT AND SWAP1 DUP4 PUSH20 0xFFFFFFFFFFFFFFFFFFFFFFFFFFFFFFFFFFFFFFFF AND MUL OR SWAP1 SSTORE POP PUSH32 0x4422C0C4B301436298CCE7DE4B586B1E044E671D0EFBFEB88689161EBD95DD4F DUP2 PUSH1 0x40 MLOAD PUSH2 0x9EB SWAP2 SWAP1 PUSH2 0x1EBD JUMP JUMPDEST PUSH1 0x40 MLOAD DUP1 SWAP2 SUB SWAP1 LOG1 POP JUMP JUMPDEST PUSH1 0x9 SLOAD DUP2 JUMP JUMPDEST PUSH2 0xA04 PUSH2 0x1304 JUMP JUMPDEST PUSH2 0xA0C PUSH2 0x150A JUMP JUMPDEST JUMP JUMPDEST PUSH0 PUSH1 0x5 PUSH1 0x1 SWAP1 SLOAD SWAP1 PUSH2 0x100 EXP SWAP1 DIV PUSH20 0xFFFFFFFFFFFFFFFFFFFFFFFFFFFFFFFFFFFFFFFF AND SWAP1 POP SWAP1 JUMP JUMPDEST PUSH1 0x60 PUSH1 0x4 DUP1 SLOAD PUSH2 0xA46 SWAP1 PUSH2 0x2033 JUMP JUMPDEST DUP1 PUSH1 0x1F ADD PUSH1 0x20 DUP1 SWAP2 DIV MUL PUSH1 0x20 ADD PUSH1 0x40 MLOAD SWAP1 DUP2 ADD PUSH1 0x40 MSTORE DUP1 SWAP3 SWAP2 SWAP1 DUP2 DUP2 MSTORE PUSH1 0x20 ADD DUP3 DUP1 SLOAD PUSH2 0xA72 SWAP1 PUSH2 0x2033 JUMP JUMPDEST DUP1 ISZERO PUSH2 0xABD JUMPI DUP1 PUSH1 0x1F LT PUSH2 0xA94 JUMPI PUSH2 0x100 DUP1 DUP4 SLOAD DIV MUL DUP4 MSTORE SWAP2 PUSH1 0x20 ADD SWAP2 PUSH2 0xABD JUMP JUMPDEST DUP3 ADD SWAP2 SWAP1 PUSH0 MSTORE PUSH1 0x20 PUSH0 KECCAK256 SWAP1 JUMPDEST DUP2 SLOAD DUP2 MSTORE SWAP1 PUSH1 0x1 ADD SWAP1 PUSH1 0x20 ADD DUP1 DUP4 GT PUSH2 0xAA0 JUMPI DUP3 SWAP1 SUB PUSH1 0x1F AND DUP3 ADD SWAP2 JUMPDEST POP POP POP POP POP SWAP1 POP SWAP1 JUMP JUMPDEST PUSH2 0xACF PUSH2 0x1304 JUMP JUMPDEST PUSH2 0x2710 DUP2 GT ISZERO PUSH2 0xB0B JUMPI PUSH1 0x40 MLOAD PUSH32 0xDC81DB8500000000000000000000000000000000000000000000000000000000 DUP2 MSTORE PUSH1 0x4 ADD PUSH1 0x40 MLOAD DUP1 SWAP2 SUB SWAP1 REVERT JUMPDEST DUP1 PUSH1 0x9 DUP2 SWAP1 SSTORE POP PUSH32 0x13F60DD2B588490608C3FF1932A3DAEB4087F3D5AF04B97E5C2A16B5B4C0302E DUP2 PUSH1 0x40 MLOAD PUSH2 0xB41 SWAP2 SWAP1 PUSH2 0x1D0D JUMP JUMPDEST PUSH1 0x40 MLOAD DUP1 SWAP2 SUB SWAP1 LOG1 POP JUMP JUMPDEST PUSH1 0x8 PUSH0 SWAP1 SLOAD SWAP1 PUSH2 0x100 EXP SWAP1 DIV PUSH20 0xFFFFFFFFFFFFFFFFFFFFFFFFFFFFFFFFFFFFFFFF AND DUP2 JUMP JUMPDEST PUSH0 PUSH2 0xB7A PUSH2 0x128C JUMP JUMPDEST PUSH2 0xB84 DUP4 DUP4 PUSH2 0x156C JUMP JUMPDEST SWAP1 POP SWAP3 SWAP2 POP POP JUMP JUMPDEST PUSH2 0xB94 PUSH2 0x13EC JUMP JUMPDEST PUSH2 0xB9C PUSH2 0x128C JUMP JUMPDEST PUSH2 0xBA6 CALLER DUP4 PUSH2 0x158E JUMP JUMPDEST PUSH2 0xBDC JUMPI PUSH1 0x40 MLOAD PUSH32 0xDE271CF500000000000000000000000000000000000000000000000000000000 DUP2 MSTORE PUSH1 0x4 ADD PUSH1 0x40 MLOAD DUP1 SWAP2 SUB SWAP1 REVERT JUMPDEST PUSH0 DUP2 SUB PUSH2 0xC15 JUMPI PUSH1 0x40 MLOAD PUSH32 0x2C5211C600000000000000000000000000000000000000000000000000000000 DUP2 MSTORE PUSH1 0x4 ADD PUSH1 0x40 MLOAD DUP1 SWAP2 SUB SWAP1 REVERT JUMPDEST DUP1 PUSH1 0xB PUSH0 DUP5 DUP2 MSTORE PUSH1 0x20 ADD SWAP1 DUP2 MSTORE PUSH1 0x20 ADD PUSH0 KECCAK256 SLOAD LT ISZERO PUSH2 0xC60 JUMPI PUSH1 0x40 MLOAD PUSH32 0xA77130EF00000000000000000000000000000000000000000000000000000000 DUP2 MSTORE PUSH1 0x4 ADD PUSH1 0x40 MLOAD DUP1 SWAP2 SUB SWAP1 REVERT JUMPDEST DUP1 PUSH1 0xB PUSH0 DUP5 DUP2 MSTORE PUSH1 0x20 ADD SWAP1 DUP2 MSTORE PUSH1 0x20 ADD PUSH0 KECCAK256 PUSH0 DUP3 DUP3 SLOAD PUSH2 0xC80 SWAP2 SWAP1 PUSH2 0x212B JUMP JUMPDEST SWAP3 POP POP DUP2 SWAP1 SSTORE POP PUSH0 PUSH2 0xCB4 PUSH1 0x8 PUSH0 SWAP1 SLOAD SWAP1 PUSH2 0x100 EXP SWAP1 DIV PUSH20 0xFFFFFFFFFFFFFFFFFFFFFFFFFFFFFFFFFFFFFFFF AND CALLER DUP5 PUSH2 0x5F7 JUMP JUMPDEST SWAP1 POP DUP1 PUSH2 0xCF6 JUMPI PUSH1 0x40 MLOAD PUSH32 0x8C379A000000000000000000000000000000000000000000000000000000000 DUP2 MSTORE PUSH1 0x4 ADD PUSH2 0xCED SWAP1 PUSH2 0x21A8 JUMP JUMPDEST PUSH1 0x40 MLOAD DUP1 SWAP2 SUB SWAP1 REVERT JUMPDEST CALLER PUSH20 0xFFFFFFFFFFFFFFFFFFFFFFFFFFFFFFFFFFFFFFFF AND DUP4 PUSH32 0x4E073DD16EEC477FBB059BDA1F0796F0D06EEBC4C53568E3E77A4084228FD4EB DUP5 PUSH1 0x40 MLOAD PUSH2 0xD3D SWAP2 SWAP1 PUSH2 0x1D0D JUMP JUMPDEST PUSH1 0x40 MLOAD DUP1 SWAP2 SUB SWAP1 LOG3 POP PUSH2 0xD4E PUSH2 0x143B JUMP JUMPDEST POP POP JUMP JUMPDEST PUSH1 0xB PUSH1 0x20 MSTORE DUP1 PUSH0 MSTORE PUSH1 0x40 PUSH0 KECCAK256 PUSH0 SWAP2 POP SWAP1 POP SLOAD DUP2 JUMP JUMPDEST PUSH0 PUSH1 0x1 PUSH0 DUP5 PUSH20 0xFFFFFFFFFFFFFFFFFFFFFFFFFFFFFFFFFFFFFFFF AND PUSH20 0xFFFFFFFFFFFFFFFFFFFFFFFFFFFFFFFFFFFFFFFF AND DUP2 MSTORE PUSH1 0x20 ADD SWAP1 DUP2 MSTORE PUSH1 0x20 ADD PUSH0 KECCAK256 PUSH0 DUP4 PUSH20 0xFFFFFFFFFFFFFFFFFFFFFFFFFFFFFFFFFFFFFFFF AND PUSH20 0xFFFFFFFFFFFFFFFFFFFFFFFFFFFFFFFFFFFFFFFF AND DUP2 MSTORE PUSH1 0x20 ADD SWAP1 DUP2 MSTORE PUSH1 0x20 ADD PUSH0 KECCAK256 SLOAD SWAP1 POP SWAP3 SWAP2 POP POP JUMP JUMPDEST PUSH1 0xA PUSH0 SWAP1 SLOAD SWAP1 PUSH2 0x100 EXP SWAP1 DIV PUSH20 0xFFFFFFFFFFFFFFFFFFFFFFFFFFFFFFFFFFFFFFFF AND DUP2 JUMP JUMPDEST PUSH2 0xE16 PUSH2 0x1B4C JUMP JUMPDEST PUSH1 0x8 PUSH0 SWAP1 SLOAD SWAP1 PUSH2 0x100 EXP SWAP1 DIV PUSH20 0xFFFFFFFFFFFFFFFFFFFFFFFFFFFFFFFFFFFFFFFF AND PUSH20 0xFFFFFFFFFFFFFFFFFFFFFFFFFFFFFFFFFFFFFFFF AND CALLER PUSH20 0xFFFFFFFFFFFFFFFFFFFFFFFFFFFFFFFFFFFFFFFF AND EQ PUSH2 0xE9C JUMPI PUSH1 0x40 MLOAD PUSH32 0x5C427CD900000000000000000000000000000000000000000000000000000000 DUP2 MSTORE PUSH1 0x4 ADD PUSH1 0x40 MLOAD DUP1 SWAP2 SUB SWAP1 REVERT JUMPDEST PUSH2 0xEA4 PUSH2 0x13EC JUMP JUMPDEST PUSH2 0xEAC PUSH2 0x128C JUMP JUMPDEST PUSH0 DUP3 SUB PUSH2 0xEE5 JUMPI PUSH1 0x40 MLOAD PUSH32 0x2C5211C600000000000000000000000000000000000000000000000000000000 DUP2 MSTORE PUSH1 0x4 ADD PUSH1 0x40 MLOAD DUP1 SWAP2 SUB SWAP1 REVERT JUMPDEST PUSH0 PUSH1 0xB PUSH0 DUP7 DUP2 MSTORE PUSH1 0x20 ADD SWAP1 DUP2 MSTORE PUSH1 0x20 ADD PUSH0 KECCAK256 SLOAD SWAP1 POP PUSH0 DUP4 DUP3 LT ISZERO SWAP1 POP PUSH0 DUP1 DUP3 ISZERO PUSH2 0x10A7 JUMPI PUSH2 0x2710 PUSH1 0x9 SLOAD DUP8 PUSH2 0xF1A SWAP2 SWAP1 PUSH2 0x21C6 JUMP JUMPDEST PUSH2 0xF24 SWAP2 SWAP1 PUSH2 0x2234 JUMP JUMPDEST SWAP1 POP DUP1 DUP7 PUSH2 0xF32 SWAP2 SWAP1 PUSH2 0x212B JUMP JUMPDEST SWAP2 POP DUP6 DUP5 PUSH2 0xF40 SWAP2 SWAP1 PUSH2 0x212B JUMP JUMPDEST PUSH1 0xB PUSH0 DUP11 DUP2 MSTORE PUSH1 0x20 ADD SWAP1 DUP2 MSTORE PUSH1 0x20 ADD PUSH0 KECCAK256 DUP2 SWAP1 SSTORE POP PUSH0 DUP2 GT ISZERO PUSH2 0x1005 JUMPI PUSH0 PUSH2 0xF89 PUSH1 0xA PUSH0 SWAP1 SLOAD SWAP1 PUSH2 0x100 EXP SWAP1 DIV PUSH20 0xFFFFFFFFFFFFFFFFFFFFFFFFFFFFFFFFFFFFFFFF AND DUP4 PUSH2 0xB71 JUMP JUMPDEST SWAP1 POP DUP1 PUSH2 0xFCB JUMPI PUSH1 0x40 MLOAD PUSH32 0x8C379A000000000000000000000000000000000000000000000000000000000 DUP2 MSTORE PUSH1 0x4 ADD PUSH2 0xFC2 SWAP1 PUSH2 0x22AE JUMP JUMPDEST PUSH1 0x40 MLOAD DUP1 SWAP2 SUB SWAP1 REVERT JUMPDEST DUP9 PUSH32 0xACFA15EBE340982FEF95D43AAFC25D741382D7928A00055A209274FA615D5277 DUP4 PUSH1 0x40 MLOAD PUSH2 0xFFB SWAP2 SWAP1 PUSH2 0x1D0D JUMP JUMPDEST PUSH1 0x40 MLOAD DUP1 SWAP2 SUB SWAP1 LOG2 POP JUMPDEST PUSH0 PUSH2 0x1010 DUP9 DUP5 PUSH2 0xB71 JUMP JUMPDEST SWAP1 POP DUP1 PUSH2 0x1052 JUMPI PUSH1 0x40 MLOAD PUSH32 0x8C379A000000000000000000000000000000000000000000000000000000000 DUP2 MSTORE PUSH1 0x4 ADD PUSH2 0x1049 SWAP1 PUSH2 0x2316 JUMP JUMPDEST PUSH1 0x40 MLOAD DUP1 SWAP2 SUB SWAP1 REVERT JUMPDEST DUP8 PUSH20 0xFFFFFFFFFFFFFFFFFFFFFFFFFFFFFFFFFFFFFFFF AND DUP10 PUSH32 0x4C3044279DAEA82275BC16A26600FE0C196CB65422B138C02DC86FB861B174CA DUP6 PUSH1 0x40 MLOAD PUSH2 0x1099 SWAP2 SWAP1 PUSH2 0x1D0D JUMP JUMPDEST PUSH1 0x40 MLOAD DUP1 SWAP2 SUB SWAP1 LOG3 POP PUSH2 0x11B1 JUMP JUMPDEST DUP4 SWAP2 POP PUSH0 SWAP1 POP PUSH0 PUSH1 0xB PUSH0 DUP11 DUP2 MSTORE PUSH1 0x20 ADD SWAP1 DUP2 MSTORE PUSH1 0x20 ADD PUSH0 KECCAK256 DUP2 SWAP1 SSTORE POP PUSH0 DUP3 GT ISZERO PUSH2 0x1176 JUMPI PUSH0 PUSH2 0x10D6 DUP9 DUP5 PUSH2 0xB71 JUMP JUMPDEST SWAP1 POP DUP1 PUSH2 0x1118 JUMPI PUSH1 0x40 MLOAD PUSH32 0x8C379A000000000000000000000000000000000000000000000000000000000 DUP2 MSTORE PUSH1 0x4 ADD PUSH2 0x110F SWAP1 PUSH2 0x237E JUMP JUMPDEST PUSH1 0x40 MLOAD DUP1 SWAP2 SUB SWAP1 REVERT JUMPDEST DUP8 PUSH20 0xFFFFFFFFFFFFFFFFFFFFFFFFFFFFFFFFFFFFFFFF AND DUP10 PUSH32 0x5D16C483BEE69284681447FE545192ACC0F537A2CD7C2CD35593A1EDB5243290 DUP6 DUP7 DUP12 PUSH2 0x115E SWAP2 SWAP1 PUSH2 0x212B JUMP JUMPDEST PUSH1 0x40 MLOAD PUSH2 0x116C SWAP3 SWAP2 SWAP1 PUSH2 0x1D51 JUMP JUMPDEST PUSH1 0x40 MLOAD DUP1 SWAP2 SUB SWAP1 LOG3 POP JUMPDEST DUP8 PUSH32 0x574264649C9D702F91C09E683982319DA6546E5CFEE0A4898A3BD6BF1C63042F DUP6 DUP9 PUSH1 0x40 MLOAD PUSH2 0x11A8 SWAP3 SWAP2 SWAP1 PUSH2 0x1D51 JUMP JUMPDEST PUSH1 0x40 MLOAD DUP1 SWAP2 SUB SWAP1 LOG2 JUMPDEST PUSH1 0x40 MLOAD DUP1 PUSH1 0x60 ADD PUSH1 0x40 MSTORE DUP1 DUP4 DUP2 MSTORE PUSH1 0x20 ADD DUP4 DUP9 PUSH2 0x11CE SWAP2 SWAP1 PUSH2 0x212B JUMP JUMPDEST DUP2 MSTORE PUSH1 0x20 ADD DUP5 ISZERO ISZERO ISZERO DUP2 MSTORE POP SWAP5 POP POP POP POP POP PUSH2 0x11E8 PUSH2 0x143B JUMP JUMPDEST SWAP4 SWAP3 POP POP POP JUMP JUMPDEST PUSH2 0x11F7 PUSH2 0x1304 JUMP JUMPDEST PUSH0 PUSH20 0xFFFFFFFFFFFFFFFFFFFFFFFFFFFFFFFFFFFFFFFF AND DUP2 PUSH20 0xFFFFFFFFFFFFFFFFFFFFFFFFFFFFFFFFFFFFFFFF AND SUB PUSH2 0x1267 JUMPI PUSH0 PUSH1 0x40 MLOAD PUSH32 0x1E4FBDF700000000000000000000000000000000000000000000000000000000 DUP2 MSTORE PUSH1 0x4 ADD PUSH2 0x125E SWAP2 SWAP1 PUSH2 0x1EBD JUMP JUMPDEST PUSH1 0x40 MLOAD DUP1 SWAP2 SUB SWAP1 REVERT JUMPDEST PUSH2 0x1270 DUP2 PUSH2 0x1445 JUMP JUMPDEST POP JUMP JUMPDEST PUSH0 CALLER SWAP1 POP SWAP1 JUMP JUMPDEST PUSH2 0x1287 DUP4 DUP4 DUP4 PUSH1 0x1 PUSH2 0x1599 JUMP JUMPDEST POP POP POP JUMP JUMPDEST PUSH2 0x1294 PUSH2 0x77A JUMP JUMPDEST ISZERO PUSH2 0x12D4 JUMPI PUSH1 0x40 MLOAD PUSH32 0x8C379A000000000000000000000000000000000000000000000000000000000 DUP2 MSTORE PUSH1 0x4 ADD PUSH2 0x12CB SWAP1 PUSH2 0x23E6 JUMP JUMPDEST PUSH1 0x40 MLOAD DUP1 SWAP2 SUB SWAP1 REVERT JUMPDEST JUMP JUMPDEST PUSH0 DUP1 PUSH2 0x12E0 PUSH2 0x1273 JUMP JUMPDEST SWAP1 POP PUSH2 0x12ED DUP6 DUP3 DUP6 PUSH2 0x1768 JUMP JUMPDEST PUSH2 0x12F8 DUP6 DUP6 DUP6 PUSH2 0x17FA JUMP JUMPDEST PUSH1 0x1 SWAP2 POP POP SWAP4 SWAP3 POP POP POP JUMP JUMPDEST PUSH2 0x130C PUSH2 0x1273 JUMP JUMPDEST PUSH20 0xFFFFFFFFFFFFFFFFFFFFFFFFFFFFFFFFFFFFFFFF AND PUSH2 0x132A PUSH2 0xA0E JUMP JUMPDEST PUSH20 0xFFFFFFFFFFFFFFFFFFFFFFFFFFFFFFFFFFFFFFFF AND EQ PUSH2 0x1389 JUMPI PUSH2 0x134D PUSH2 0x1273 JUMP JUMPDEST PUSH1 0x40 MLOAD PUSH32 0x118CDAA700000000000000000000000000000000000000000000000000000000 DUP2 MSTORE PUSH1 0x4 ADD PUSH2 0x1380 SWAP2 SWAP1 PUSH2 0x1EBD JUMP JUMPDEST PUSH1 0x40 MLOAD DUP1 SWAP2 SUB SWAP1 REVERT JUMPDEST JUMP JUMPDEST PUSH2 0x1393 PUSH2 0x18EA JUMP JUMPDEST PUSH0 PUSH1 0x5 PUSH0 PUSH2 0x100 EXP DUP2 SLOAD DUP2 PUSH1 0xFF MUL NOT AND SWAP1 DUP4 ISZERO ISZERO MUL OR SWAP1 SSTORE POP PUSH32 0x5DB9EE0A495BF2E6FF9C91A7834C1BA4FDD244A5E8AA4E537BD38AEAE4B073AA PUSH2 0x13D5 PUSH2 0x1273 JUMP JUMPDEST PUSH1 0x40 MLOAD PUSH2 0x13E2 SWAP2 SWAP1 PUSH2 0x1EBD JUMP JUMPDEST PUSH1 0x40 MLOAD DUP1 SWAP2 SUB SWAP1 LOG1 JUMP JUMPDEST PUSH1 0x2 PUSH1 0x6 SLOAD SUB PUSH2 0x1431 JUMPI PUSH1 0x40 MLOAD PUSH32 0x8C379A000000000000000000000000000000000000000000000000000000000 DUP2 MSTORE PUSH1 0x4 ADD PUSH2 0x1428 SWAP1 PUSH2 0x244E JUMP JUMPDEST PUSH1 0x40 MLOAD DUP1 SWAP2 SUB SWAP1 REVERT JUMPDEST PUSH1 0x2 PUSH1 0x6 DUP2 SWAP1 SSTORE POP JUMP JUMPDEST PUSH1 0x1 PUSH1 0x6 DUP2 SWAP1 SSTORE POP JUMP JUMPDEST PUSH0 PUSH1 0x5 PUSH1 0x1 SWAP1 SLOAD SWAP1 PUSH2 0x100 EXP SWAP1 DIV PUSH20 0xFFFFFFFFFFFFFFFFFFFFFFFFFFFFFFFFFFFFFFFF AND SWAP1 POP DUP2 PUSH1 0x5 PUSH1 0x1 PUSH2 0x100 EXP DUP2 SLOAD DUP2 PUSH20 0xFFFFFFFFFFFFFFFFFFFFFFFFFFFFFFFFFFFFFFFF MUL NOT AND SWAP1 DUP4 PUSH20 0xFFFFFFFFFFFFFFFFFFFFFFFFFFFFFFFFFFFFFFFF AND MUL OR SWAP1 SSTORE POP DUP2 PUSH20 0xFFFFFFFFFFFFFFFFFFFFFFFFFFFFFFFFFFFFFFFF AND DUP2 PUSH20 0xFFFFFFFFFFFFFFFFFFFFFFFFFFFFFFFFFFFFFFFF AND PUSH32 0x8BE0079C531659141344CD1FD0A4F28419497F9722A3DAAFE3B4186F6B6457E0 PUSH1 0x40 MLOAD PUSH1 0x40 MLOAD DUP1 SWAP2 SUB SWAP1 LOG3 POP POP JUMP JUMPDEST PUSH2 0x1512 PUSH2 0x128C JUMP JUMPDEST PUSH1 0x1 PUSH1 0x5 PUSH0 PUSH2 0x100 EXP DUP2 SLOAD DUP2 PUSH1 0xFF MUL NOT AND SWAP1 DUP4 ISZERO ISZERO MUL OR SWAP1 SSTORE POP PUSH32 0x62E78CEA01BEE320CD4E420270B5EA74000D11B0C9F74754EBDBFC544B05A258 PUSH2 0x1555 PUSH2 0x1273 JUMP JUMPDEST PUSH1 0x40 MLOAD PUSH2 0x1562 SWAP2 SWAP1 PUSH2 0x1EBD JUMP JUMPDEST PUSH1 0x40 MLOAD DUP1 SWAP2 SUB SWAP1 LOG1 JUMP JUMPDEST PUSH0 DUP1 PUSH2 0x1576 PUSH2 0x1273 JUMP JUMPDEST SWAP1 POP PUSH2 0x1583 DUP2 DUP6 DUP6 PUSH2 0x17FA JUMP JUMPDEST PUSH1 0x1 SWAP2 POP POP SWAP3 SWAP2 POP POP JUMP JUMPDEST PUSH0 PUSH1 0x1 SWAP1 POP SWAP3 SWAP2 POP POP JUMP JUMPDEST PUSH0 PUSH20 0xFFFFFFFFFFFFFFFFFFFFFFFFFFFFFFFFFFFFFFFF AND DUP5 PUSH20 0xFFFFFFFFFFFFFFFFFFFFFFFFFFFFFFFFFFFFFFFF AND SUB PUSH2 0x1609 JUMPI PUSH0 PUSH1 0x40 MLOAD PUSH32 0xE602DF0500000000000000000000000000000000000000000000000000000000 DUP2 MSTORE PUSH1 0x4 ADD PUSH2 0x1600 SWAP2 SWAP1 PUSH2 0x1EBD JUMP JUMPDEST PUSH1 0x40 MLOAD DUP1 SWAP2 SUB SWAP1 REVERT JUMPDEST PUSH0 PUSH20 0xFFFFFFFFFFFFFFFFFFFFFFFFFFFFFFFFFFFFFFFF AND DUP4 PUSH20 0xFFFFFFFFFFFFFFFFFFFFFFFFFFFFFFFFFFFFFFFF AND SUB PUSH2 0x1679 JUMPI PUSH0 PUSH1 0x40 MLOAD PUSH32 0x94280D6200000000000000000000000000000000000000000000000000000000 DUP2 MSTORE PUSH1 0x4 ADD PUSH2 0x1670 SWAP2 SWAP1 PUSH2 0x1EBD JUMP JUMPDEST PUSH1 0x40 MLOAD DUP1 SWAP2 SUB SWAP1 REVERT JUMPDEST DUP2 PUSH1 0x1 PUSH0 DUP7 PUSH20 0xFFFFFFFFFFFFFFFFFFFFFFFFFFFFFFFFFFFFFFFF AND PUSH20 0xFFFFFFFFFFFFFFFFFFFFFFFFFFFFFFFFFFFFFFFF AND DUP2 MSTORE PUSH1 0x20 ADD SWAP1 DUP2 MSTORE PUSH1 0x20 ADD PUSH0 KECCAK256 PUSH0 DUP6 PUSH20 0xFFFFFFFFFFFFFFFFFFFFFFFFFFFFFFFFFFFFFFFF AND PUSH20 0xFFFFFFFFFFFFFFFFFFFFFFFFFFFFFFFFFFFFFFFF AND DUP2 MSTORE PUSH1 0x20 ADD SWAP1 DUP2 MSTORE PUSH1 0x20 ADD PUSH0 KECCAK256 DUP2 SWAP1 SSTORE POP DUP1 ISZERO PUSH2 0x1762 JUMPI DUP3 PUSH20 0xFFFFFFFFFFFFFFFFFFFFFFFFFFFFFFFFFFFFFFFF AND DUP5 PUSH20 0xFFFFFFFFFFFFFFFFFFFFFFFFFFFFFFFFFFFFFFFF AND PUSH32 0x8C5BE1E5EBEC7D5BD14F71427D1E84F3DD0314C0F7B2291E5B200AC8C7C3B925 DUP5 PUSH1 0x40 MLOAD PUSH2 0x1759 SWAP2 SWAP1 PUSH2 0x1D0D JUMP JUMPDEST PUSH1 0x40 MLOAD DUP1 SWAP2 SUB SWAP1 LOG3 JUMPDEST POP POP POP POP JUMP JUMPDEST PUSH0 PUSH2 0x1773 DUP5 DUP5 PUSH2 0xD67 JUMP JUMPDEST SWAP1 POP PUSH32 0xFFFFFFFFFFFFFFFFFFFFFFFFFFFFFFFFFFFFFFFFFFFFFFFFFFFFFFFFFFFFFFFF DUP2 EQ PUSH2 0x17F4 JUMPI DUP2 DUP2 LT ISZERO PUSH2 0x17E5 JUMPI DUP3 DUP2 DUP4 PUSH1 0x40 MLOAD PUSH32 0xFB8F41B200000000000000000000000000000000000000000000000000000000 DUP2 MSTORE PUSH1 0x4 ADD PUSH2 0x17DC SWAP4 SWAP3 SWAP2 SWAP1 PUSH2 0x246C JUMP JUMPDEST PUSH1 0x40 MLOAD DUP1 SWAP2 SUB SWAP1 REVERT JUMPDEST PUSH2 0x17F3 DUP5 DUP5 DUP5 DUP5 SUB PUSH0 PUSH2 0x1599 JUMP JUMPDEST JUMPDEST POP POP POP POP JUMP JUMPDEST PUSH0 PUSH20 0xFFFFFFFFFFFFFFFFFFFFFFFFFFFFFFFFFFFFFFFF AND DUP4 PUSH20 0xFFFFFFFFFFFFFFFFFFFFFFFFFFFFFFFFFFFFFFFF AND SUB PUSH2 0x186A JUMPI PUSH0 PUSH1 0x40 MLOAD PUSH32 0x96C6FD1E00000000000000000000000000000000000000000000000000000000 DUP2 MSTORE PUSH1 0x4 ADD PUSH2 0x1861 SWAP2 SWAP1 PUSH2 0x1EBD JUMP JUMPDEST PUSH1 0x40 MLOAD DUP1 SWAP2 SUB SWAP1 REVERT JUMPDEST PUSH0 PUSH20 0xFFFFFFFFFFFFFFFFFFFFFFFFFFFFFFFFFFFFFFFF AND DUP3 PUSH20 0xFFFFFFFFFFFFFFFFFFFFFFFFFFFFFFFFFFFFFFFF AND SUB PUSH2 0x18DA JUMPI PUSH0 PUSH1 0x40 MLOAD PUSH32 0xEC442F0500000000000000000000000000000000000000000000000000000000 DUP2 MSTORE PUSH1 0x4 ADD PUSH2 0x18D1 SWAP2 SWAP1 PUSH2 0x1EBD JUMP JUMPDEST PUSH1 0x40 MLOAD DUP1 SWAP2 SUB SWAP1 REVERT JUMPDEST PUSH2 0x18E5 DUP4 DUP4 DUP4 PUSH2 0x1933 JUMP JUMPDEST POP POP POP JUMP JUMPDEST PUSH2 0x18F2 PUSH2 0x77A JUMP JUMPDEST PUSH2 0x1931 JUMPI PUSH1 0x40 MLOAD PUSH32 0x8C379A000000000000000000000000000000000000000000000000000000000 DUP2 MSTORE PUSH1 0x4 ADD PUSH2 0x1928 SWAP1 PUSH2 0x24EB JUMP JUMPDEST PUSH1 0x40 MLOAD DUP1 SWAP2 SUB SWAP1 REVERT JUMPDEST JUMP JUMPDEST PUSH0 PUSH20 0xFFFFFFFFFFFFFFFFFFFFFFFFFFFFFFFFFFFFFFFF AND DUP4 PUSH20 0xFFFFFFFFFFFFFFFFFFFFFFFFFFFFFFFFFFFFFFFF AND SUB PUSH2 0x1983 JUMPI DUP1 PUSH1 0x2 PUSH0 DUP3 DUP3 SLOAD PUSH2 0x1977 SWAP2 SWAP1 PUSH2 0x20F8 JUMP JUMPDEST SWAP3 POP POP DUP2 SWAP1 SSTORE POP PUSH2 0x1A51 JUMP JUMPDEST PUSH0 DUP1 PUSH0 DUP6 PUSH20 0xFFFFFFFFFFFFFFFFFFFFFFFFFFFFFFFFFFFFFFFF AND PUSH20 0xFFFFFFFFFFFFFFFFFFFFFFFFFFFFFFFFFFFFFFFF AND DUP2 MSTORE PUSH1 0x20 ADD SWAP1 DUP2 MSTORE PUSH1 0x20 ADD PUSH0 KECCAK256 SLOAD SWAP1 POP DUP2 DUP2 LT ISZERO PUSH2 0x1A0C JUMPI DUP4 DUP2 DUP4 PUSH1 0x40 MLOAD PUSH32 0xE450D38C00000000000000000000000000000000000000000000000000000000 DUP2 MSTORE PUSH1 0x4 ADD PUSH2 0x1A03 SWAP4 SWAP3 SWAP2 SWAP1 PUSH2 0x246C JUMP JUMPDEST PUSH1 0x40 MLOAD DUP1 SWAP2 SUB SWAP1 REVERT JUMPDEST DUP2 DUP2 SUB PUSH0 DUP1 DUP7 PUSH20 0xFFFFFFFFFFFFFFFFFFFFFFFFFFFFFFFFFFFFFFFF AND PUSH20 0xFFFFFFFFFFFFFFFFFFFFFFFFFFFFFFFFFFFFFFFF AND DUP2 MSTORE PUSH1 0x20 ADD SWAP1 DUP2 MSTORE PUSH1 0x20 ADD PUSH0 KECCAK256 DUP2 SWAP1 SSTORE POP POP JUMPDEST PUSH0 PUSH20 0xFFFFFFFFFFFFFFFFFFFFFFFFFFFFFFFFFFFFFFFF AND DUP3 PUSH20 0xFFFFFFFFFFFFFFFFFFFFFFFFFFFFFFFFFFFFFFFF AND SUB PUSH2 0x1A98 JUMPI DUP1 PUSH1 0x2 PUSH0 DUP3 DUP3 SLOAD SUB SWAP3 POP POP DUP2 SWAP1 SSTORE POP PUSH2 0x1AE2 JUMP JUMPDEST DUP1 PUSH0 DUP1 DUP5 PUSH20 0xFFFFFFFFFFFFFFFFFFFFFFFFFFFFFFFFFFFFFFFF AND PUSH20 0xFFFFFFFFFFFFFFFFFFFFFFFFFFFFFFFFFFFFFFFF AND DUP2 MSTORE PUSH1 0x20 ADD SWAP1 DUP2 MSTORE PUSH1 0x20 ADD PUSH0 KECCAK256 PUSH0 DUP3 DUP3 SLOAD ADD SWAP3 POP POP DUP2 SWAP1 SSTORE POP JUMPDEST DUP2 PUSH20 0xFFFFFFFFFFFFFFFFFFFFFFFFFFFFFFFFFFFFFFFF AND DUP4 PUSH20 0xFFFFFFFFFFFFFFFFFFFFFFFFFFFFFFFFFFFFFFFF AND PUSH32 0xDDF252AD1BE2C89B69C2B068FC378DAA952BA7F163C4A11628F55A4DF523B3EF DUP4 PUSH1 0x40 MLOAD PUSH2 0x1B3F SWAP2 SWAP1 PUSH2 0x1D0D JUMP JUMPDEST PUSH1 0x40 MLOAD DUP1 SWAP2 SUB SWAP1 LOG3 POP POP POP JUMP JUMPDEST PUSH1 0x40 MLOAD DUP1 PUSH1 0x60 ADD PUSH1 0x40 MSTORE DUP1 PUSH0 DUP2 MSTORE PUSH1 0x20 ADD PUSH0 DUP2 MSTORE PUSH1 0x20 ADD PUSH0 ISZERO ISZERO DUP2 MSTORE POP SWAP1 JUMP JUMPDEST PUSH0 DUP2 MLOAD SWAP1 POP SWAP2 SWAP1 POP JUMP JUMPDEST PUSH0 DUP3 DUP3 MSTORE PUSH1 0x20 DUP3 ADD SWAP1 POP SWAP3 SWAP2 POP POP JUMP JUMPDEST DUP3 DUP2 DUP4 MCOPY PUSH0 DUP4 DUP4 ADD MSTORE POP POP POP JUMP JUMPDEST PUSH0 PUSH1 0x1F NOT PUSH1 0x1F DUP4 ADD AND SWAP1 POP SWAP2 SWAP1 POP JUMP JUMPDEST PUSH0 PUSH2 0x1BAE DUP3 PUSH2 0x1B6C JUMP JUMPDEST PUSH2 0x1BB8 DUP2 DUP6 PUSH2 0x1B76 JUMP JUMPDEST SWAP4 POP PUSH2 0x1BC8 DUP2 DUP6 PUSH1 0x20 DUP7 ADD PUSH2 0x1B86 JUMP JUMPDEST PUSH2 0x1BD1 DUP2 PUSH2 0x1B94 JUMP JUMPDEST DUP5 ADD SWAP2 POP POP SWAP3 SWAP2 POP POP JUMP JUMPDEST PUSH0 PUSH1 0x20 DUP3 ADD SWAP1 POP DUP2 DUP2 SUB PUSH0 DUP4 ADD MSTORE PUSH2 0x1BF4 DUP2 DUP5 PUSH2 0x1BA4 JUMP JUMPDEST SWAP1 POP SWAP3 SWAP2 POP POP JUMP JUMPDEST PUSH0 DUP1 REVERT JUMPDEST PUSH0 PUSH20 0xFFFFFFFFFFFFFFFFFFFFFFFFFFFFFFFFFFFFFFFF DUP3 AND SWAP1 POP SWAP2 SWAP1 POP JUMP JUMPDEST PUSH0 PUSH2 0x1C29 DUP3 PUSH2 0x1C00 JUMP JUMPDEST SWAP1 POP SWAP2 SWAP1 POP JUMP JUMPDEST PUSH2 0x1C39 DUP2 PUSH2 0x1C1F JUMP JUMPDEST DUP2 EQ PUSH2 0x1C43 JUMPI PUSH0 DUP1 REVERT JUMPDEST POP JUMP JUMPDEST PUSH0 DUP2 CALLDATALOAD SWAP1 POP PUSH2 0x1C54 DUP2 PUSH2 0x1C30 JUMP JUMPDEST SWAP3 SWAP2 POP POP JUMP JUMPDEST PUSH0 DUP2 SWAP1 POP SWAP2 SWAP1 POP JUMP JUMPDEST PUSH2 0x1C6C DUP2 PUSH2 0x1C5A JUMP JUMPDEST DUP2 EQ PUSH2 0x1C76 JUMPI PUSH0 DUP1 REVERT JUMPDEST POP JUMP JUMPDEST PUSH0 DUP2 CALLDATALOAD SWAP1 POP PUSH2 0x1C87 DUP2 PUSH2 0x1C63 JUMP JUMPDEST SWAP3 SWAP2 POP POP JUMP JUMPDEST PUSH0 DUP1 PUSH1 0x40 DUP4 DUP6 SUB SLT ISZERO PUSH2 0x1CA3 JUMPI PUSH2 0x1CA2 PUSH2 0x1BFC JUMP JUMPDEST JUMPDEST PUSH0 PUSH2 0x1CB0 DUP6 DUP3 DUP7 ADD PUSH2 0x1C46 JUMP JUMPDEST SWAP3 POP POP PUSH1 0x20 PUSH2 0x1CC1 DUP6 DUP3 DUP7 ADD PUSH2 0x1C79 JUMP JUMPDEST SWAP2 POP POP SWAP3 POP SWAP3 SWAP1 POP JUMP JUMPDEST PUSH0 DUP2 ISZERO ISZERO SWAP1 POP SWAP2 SWAP1 POP JUMP JUMPDEST PUSH2 0x1CDF DUP2 PUSH2 0x1CCB JUMP JUMPDEST DUP3 MSTORE POP POP JUMP JUMPDEST PUSH0 PUSH1 0x20 DUP3 ADD SWAP1 POP PUSH2 0x1CF8 PUSH0 DUP4 ADD DUP5 PUSH2 0x1CD6 JUMP JUMPDEST SWAP3 SWAP2 POP POP JUMP JUMPDEST PUSH2 0x1D07 DUP2 PUSH2 0x1C5A JUMP JUMPDEST DUP3 MSTORE POP POP JUMP JUMPDEST PUSH0 PUSH1 0x20 DUP3 ADD SWAP1 POP PUSH2 0x1D20 PUSH0 DUP4 ADD DUP5 PUSH2 0x1CFE JUMP JUMPDEST SWAP3 SWAP2 POP POP JUMP JUMPDEST PUSH0 PUSH1 0x20 DUP3 DUP5 SUB SLT ISZERO PUSH2 0x1D3B JUMPI PUSH2 0x1D3A PUSH2 0x1BFC JUMP JUMPDEST JUMPDEST PUSH0 PUSH2 0x1D48 DUP5 DUP3 DUP6 ADD PUSH2 0x1C46 JUMP JUMPDEST SWAP2 POP POP SWAP3 SWAP2 POP POP JUMP JUMPDEST PUSH0 PUSH1 0x40 DUP3 ADD SWAP1 POP PUSH2 0x1D64 PUSH0 DUP4 ADD DUP6 PUSH2 0x1CFE JUMP JUMPDEST PUSH2 0x1D71 PUSH1 0x20 DUP4 ADD DUP5 PUSH2 0x1CFE JUMP JUMPDEST SWAP4 SWAP3 POP POP POP JUMP JUMPDEST PUSH0 DUP1 PUSH0 PUSH1 0x60 DUP5 DUP7 SUB SLT ISZERO PUSH2 0x1D8F JUMPI PUSH2 0x1D8E PUSH2 0x1BFC JUMP JUMPDEST JUMPDEST PUSH0 PUSH2 0x1D9C DUP7 DUP3 DUP8 ADD PUSH2 0x1C46 JUMP JUMPDEST SWAP4 POP POP PUSH1 0x20 PUSH2 0x1DAD DUP7 DUP3 DUP8 ADD PUSH2 0x1C46 JUMP JUMPDEST SWAP3 POP POP PUSH1 0x40 PUSH2 0x1DBE DUP7 DUP3 DUP8 ADD PUSH2 0x1C79 JUMP JUMPDEST SWAP2 POP POP SWAP3 POP SWAP3 POP SWAP3 JUMP JUMPDEST PUSH0 DUP2 SWAP1 POP SWAP2 SWAP1 POP JUMP JUMPDEST PUSH0 PUSH2 0x1DEB PUSH2 0x1DE6 PUSH2 0x1DE1 DUP5 PUSH2 0x1C00 JUMP JUMPDEST PUSH2 0x1DC8 JUMP JUMPDEST PUSH2 0x1C00 JUMP JUMPDEST SWAP1 POP SWAP2 SWAP1 POP JUMP JUMPDEST PUSH0 PUSH2 0x1DFC DUP3 PUSH2 0x1DD1 JUMP JUMPDEST SWAP1 POP SWAP2 SWAP1 POP JUMP JUMPDEST PUSH0 PUSH2 0x1E0D DUP3 PUSH2 0x1DF2 JUMP JUMPDEST SWAP1 POP SWAP2 SWAP1 POP JUMP JUMPDEST PUSH2 0x1E1D DUP2 PUSH2 0x1E03 JUMP JUMPDEST DUP3 MSTORE POP POP JUMP JUMPDEST PUSH0 PUSH1 0x20 DUP3 ADD SWAP1 POP PUSH2 0x1E36 PUSH0 DUP4 ADD DUP5 PUSH2 0x1E14 JUMP JUMPDEST SWAP3 SWAP2 POP POP JUMP JUMPDEST PUSH0 PUSH1 0xFF DUP3 AND SWAP1 POP SWAP2 SWAP1 POP JUMP JUMPDEST PUSH2 0x1E51 DUP2 PUSH2 0x1E3C JUMP JUMPDEST DUP3 MSTORE POP POP JUMP JUMPDEST PUSH0 PUSH1 0x20 DUP3 ADD SWAP1 POP PUSH2 0x1E6A PUSH0 DUP4 ADD DUP5 PUSH2 0x1E48 JUMP JUMPDEST SWAP3 SWAP2 POP POP JUMP JUMPDEST PUSH0 DUP1 PUSH1 0x40 DUP4 DUP6 SUB SLT ISZERO PUSH2 0x1E86 JUMPI PUSH2 0x1E85 PUSH2 0x1BFC JUMP JUMPDEST JUMPDEST PUSH0 PUSH2 0x1E93 DUP6 DUP3 DUP7 ADD PUSH2 0x1C79 JUMP JUMPDEST SWAP3 POP POP PUSH1 0x20 PUSH2 0x1EA4 DUP6 DUP3 DUP7 ADD PUSH2 0x1C79 JUMP JUMPDEST SWAP2 POP POP SWAP3 POP SWAP3 SWAP1 POP JUMP JUMPDEST PUSH2 0x1EB7 DUP2 PUSH2 0x1C1F JUMP JUMPDEST DUP3 MSTORE POP POP JUMP JUMPDEST PUSH0 PUSH1 0x20 DUP3 ADD SWAP1 POP PUSH2 0x1ED0 PUSH0 DUP4 ADD DUP5 PUSH2 0x1EAE JUMP JUMPDEST SWAP3 SWAP2 POP POP JUMP JUMPDEST PUSH0 PUSH1 0x20 DUP3 DUP5 SUB SLT ISZERO PUSH2 0x1EEB JUMPI PUSH2 0x1EEA PUSH2 0x1BFC JUMP JUMPDEST JUMPDEST PUSH0 PUSH2 0x1EF8 DUP5 DUP3 DUP6 ADD PUSH2 0x1C79 JUMP JUMPDEST SWAP2 POP POP SWAP3 SWAP2 POP POP JUMP JUMPDEST PUSH0 DUP1 PUSH1 0x40 DUP4 DUP6 SUB SLT ISZERO PUSH2 0x1F17 JUMPI PUSH2 0x1F16 PUSH2 0x1BFC JUMP JUMPDEST JUMPDEST PUSH0 PUSH2 0x1F24 DUP6 DUP3 DUP7 ADD PUSH2 0x1C46 JUMP JUMPDEST SWAP3 POP POP PUSH1 0x20 PUSH2 0x1F35 DUP6 DUP3 DUP7 ADD PUSH2 0x1C46 JUMP JUMPDEST SWAP2 POP POP SWAP3 POP SWAP3 SWAP1 POP JUMP JUMPDEST PUSH0 DUP1 PUSH0 PUSH1 0x60 DUP5 DUP7 SUB SLT ISZERO PUSH2 0x1F56 JUMPI PUSH2 0x1F55 PUSH2 0x1BFC JUMP JUMPDEST JUMPDEST PUSH0 PUSH2 0x1F63 DUP7 DUP3 DUP8 ADD PUSH2 0x1C79 JUMP JUMPDEST SWAP4 POP POP PUSH1 0x20 PUSH2 0x1F74 DUP7 DUP3 DUP8 ADD PUSH2 0x1C46 JUMP JUMPDEST SWAP3 POP POP PUSH1 0x40 PUSH2 0x1F85 DUP7 DUP3 DUP8 ADD PUSH2 0x1C79 JUMP JUMPDEST SWAP2 POP POP SWAP3 POP SWAP3 POP SWAP3 JUMP JUMPDEST PUSH2 0x1F98 DUP2 PUSH2 0x1C5A JUMP JUMPDEST DUP3 MSTORE POP POP JUMP JUMPDEST PUSH2 0x1FA7 DUP2 PUSH2 0x1CCB JUMP JUMPDEST DUP3 MSTORE POP POP JUMP JUMPDEST PUSH1 0x60 DUP3 ADD PUSH0 DUP3 ADD MLOAD PUSH2 0x1FC1 PUSH0 DUP6 ADD DUP3 PUSH2 0x1F8F JUMP JUMPDEST POP PUSH1 0x20 DUP3 ADD MLOAD PUSH2 0x1FD4 PUSH1 0x20 DUP6 ADD DUP3 PUSH2 0x1F8F JUMP JUMPDEST POP PUSH1 0x40 DUP3 ADD MLOAD PUSH2 0x1FE7 PUSH1 0x40 DUP6 ADD DUP3 PUSH2 0x1F9E JUMP JUMPDEST POP POP POP POP JUMP JUMPDEST PUSH0 PUSH1 0x60 DUP3 ADD SWAP1 POP PUSH2 0x2000 PUSH0 DUP4 ADD DUP5 PUSH2 0x1FAD JUMP JUMPDEST SWAP3 SWAP2 POP POP JUMP JUMPDEST PUSH32 0x4E487B7100000000000000000000000000000000000000000000000000000000 PUSH0 MSTORE PUSH1 0x22 PUSH1 0x4 MSTORE PUSH1 0x24 PUSH0 REVERT JUMPDEST PUSH0 PUSH1 0x2 DUP3 DIV SWAP1 POP PUSH1 0x1 DUP3 AND DUP1 PUSH2 0x204A JUMPI PUSH1 0x7F DUP3 AND SWAP2 POP JUMPDEST PUSH1 0x20 DUP3 LT DUP2 SUB PUSH2 0x205D JUMPI PUSH2 0x205C PUSH2 0x2006 JUMP JUMPDEST JUMPDEST POP SWAP2 SWAP1 POP JUMP JUMPDEST PUSH32 0x546F6B656E207472616E73666572206661696C65640000000000000000000000 PUSH0 DUP3 ADD MSTORE POP JUMP JUMPDEST PUSH0 PUSH2 0x2097 PUSH1 0x15 DUP4 PUSH2 0x1B76 JUMP JUMPDEST SWAP2 POP PUSH2 0x20A2 DUP3 PUSH2 0x2063 JUMP JUMPDEST PUSH1 0x20 DUP3 ADD SWAP1 POP SWAP2 SWAP1 POP JUMP JUMPDEST PUSH0 PUSH1 0x20 DUP3 ADD SWAP1 POP DUP2 DUP2 SUB PUSH0 DUP4 ADD MSTORE PUSH2 0x20C4 DUP2 PUSH2 0x208B JUMP JUMPDEST SWAP1 POP SWAP2 SWAP1 POP JUMP JUMPDEST PUSH32 0x4E487B7100000000000000000000000000000000000000000000000000000000 PUSH0 MSTORE PUSH1 0x11 PUSH1 0x4 MSTORE PUSH1 0x24 PUSH0 REVERT JUMPDEST PUSH0 PUSH2 0x2102 DUP3 PUSH2 0x1C5A JUMP JUMPDEST SWAP2 POP PUSH2 0x210D DUP4 PUSH2 0x1C5A JUMP JUMPDEST SWAP3 POP DUP3 DUP3 ADD SWAP1 POP DUP1 DUP3 GT ISZERO PUSH2 0x2125 JUMPI PUSH2 0x2124 PUSH2 0x20CB JUMP JUMPDEST JUMPDEST SWAP3 SWAP2 POP POP JUMP JUMPDEST PUSH0 PUSH2 0x2135 DUP3 PUSH2 0x1C5A JUMP JUMPDEST SWAP2 POP PUSH2 0x2140 DUP4 PUSH2 0x1C5A JUMP JUMPDEST SWAP3 POP DUP3 DUP3 SUB SWAP1 POP DUP2 DUP2 GT ISZERO PUSH2 0x2158 JUMPI PUSH2 0x2157 PUSH2 0x20CB JUMP JUMPDEST JUMPDEST SWAP3 SWAP2 POP POP JUMP JUMPDEST PUSH32 0x5472616E73666572206661696C65640000000000000000000000000000000000 PUSH0 DUP3 ADD MSTORE POP JUMP JUMPDEST PUSH0 PUSH2 0x2192 PUSH1 0xF DUP4 PUSH2 0x1B76 JUMP JUMPDEST SWAP2 POP PUSH2 0x219D DUP3 PUSH2 0x215E JUMP JUMPDEST PUSH1 0x20 DUP3 ADD SWAP1 POP SWAP2 SWAP1 POP JUMP JUMPDEST PUSH0 PUSH1 0x20 DUP3 ADD SWAP1 POP DUP2 DUP2 SUB PUSH0 DUP4 ADD MSTORE PUSH2 0x21BF DUP2 PUSH2 0x2186 JUMP JUMPDEST SWAP1 POP SWAP2 SWAP1 POP JUMP JUMPDEST PUSH0 PUSH2 0x21D0 DUP3 PUSH2 0x1C5A JUMP JUMPDEST SWAP2 POP PUSH2 0x21DB DUP4 PUSH2 0x1C5A JUMP JUMPDEST SWAP3 POP DUP3 DUP3 MUL PUSH2 0x21E9 DUP2 PUSH2 0x1C5A JUMP JUMPDEST SWAP2 POP DUP3 DUP3 DIV DUP5 EQ DUP4 ISZERO OR PUSH2 0x2200 JUMPI PUSH2 0x21FF PUSH2 0x20CB JUMP JUMPDEST JUMPDEST POP SWAP3 SWAP2 POP POP JUMP JUMPDEST PUSH32 0x4E487B7100000000000000000000000000000000000000000000000000000000 PUSH0 MSTORE PUSH1 0x12 PUSH1 0x4 MSTORE PUSH1 0x24 PUSH0 REVERT JUMPDEST PUSH0 PUSH2 0x223E DUP3 PUSH2 0x1C5A JUMP JUMPDEST SWAP2 POP PUSH2 0x2249 DUP4 PUSH2 0x1C5A JUMP JUMPDEST SWAP3 POP DUP3 PUSH2 0x2259 JUMPI PUSH2 0x2258 PUSH2 0x2207 JUMP JUMPDEST JUMPDEST DUP3 DUP3 DIV SWAP1 POP SWAP3 SWAP2 POP POP JUMP JUMPDEST PUSH32 0x436F6D6D697373696F6E207472616E73666572206661696C6564000000000000 PUSH0 DUP3 ADD MSTORE POP JUMP JUMPDEST PUSH0 PUSH2 0x2298 PUSH1 0x1A DUP4 PUSH2 0x1B76 JUMP JUMPDEST SWAP2 POP PUSH2 0x22A3 DUP3 PUSH2 0x2264 JUMP JUMPDEST PUSH1 0x20 DUP3 ADD SWAP1 POP SWAP2 SWAP1 POP JUMP JUMPDEST PUSH0 PUSH1 0x20 DUP3 ADD SWAP1 POP DUP2 DUP2 SUB PUSH0 DUP4 ADD MSTORE PUSH2 0x22C5 DUP2 PUSH2 0x228C JUMP JUMPDEST SWAP1 POP SWAP2 SWAP1 POP JUMP JUMPDEST PUSH32 0x57616765207472616E73666572206661696C6564000000000000000000000000 PUSH0 DUP3 ADD MSTORE POP JUMP JUMPDEST PUSH0 PUSH2 0x2300 PUSH1 0x14 DUP4 PUSH2 0x1B76 JUMP JUMPDEST SWAP2 POP PUSH2 0x230B DUP3 PUSH2 0x22CC JUMP JUMPDEST PUSH1 0x20 DUP3 ADD SWAP1 POP SWAP2 SWAP1 POP JUMP JUMPDEST PUSH0 PUSH1 0x20 DUP3 ADD SWAP1 POP DUP2 DUP2 SUB PUSH0 DUP4 ADD MSTORE PUSH2 0x232D DUP2 PUSH2 0x22F4 JUMP JUMPDEST SWAP1 POP SWAP2 SWAP1 POP JUMP JUMPDEST PUSH32 0x5061727469616C2077616765207472616E73666572206661696C656400000000 PUSH0 DUP3 ADD MSTORE POP JUMP JUMPDEST PUSH0 PUSH2 0x2368 PUSH1 0x1C DUP4 PUSH2 0x1B76 JUMP JUMPDEST SWAP2 POP PUSH2 0x2373 DUP3 PUSH2 0x2334 JUMP JUMPDEST PUSH1 0x20 DUP3 ADD SWAP1 POP SWAP2 SWAP1 POP JUMP JUMPDEST PUSH0 PUSH1 0x20 DUP3 ADD SWAP1 POP DUP2 DUP2 SUB PUSH0 DUP4 ADD MSTORE PUSH2 0x2395 DUP2 PUSH2 0x235C JUMP JUMPDEST SWAP1 POP SWAP2 SWAP1 POP JUMP JUMPDEST PUSH32 0x5061757361626C653A2070617573656400000000000000000000000000000000 PUSH0 DUP3 ADD MSTORE POP JUMP JUMPDEST PUSH0 PUSH2 0x23D0 PUSH1 0x10 DUP4 PUSH2 0x1B76 JUMP JUMPDEST SWAP2 POP PUSH2 0x23DB DUP3 PUSH2 0x239C JUMP JUMPDEST PUSH1 0x20 DUP3 ADD SWAP1 POP SWAP2 SWAP1 POP JUMP JUMPDEST PUSH0 PUSH1 0x20 DUP3 ADD SWAP1 POP DUP2 DUP2 SUB PUSH0 DUP4 ADD MSTORE PUSH2 0x23FD DUP2 PUSH2 0x23C4 JUMP JUMPDEST SWAP1 POP SWAP2 SWAP1 POP JUMP JUMPDEST PUSH32 0x5265656E7472616E637947756172643A207265656E7472616E742063616C6C00 PUSH0 DUP3 ADD MSTORE POP JUMP JUMPDEST PUSH0 PUSH2 0x2438 PUSH1 0x1F DUP4 PUSH2 0x1B76 JUMP JUMPDEST SWAP2 POP PUSH2 0x2443 DUP3 PUSH2 0x2404 JUMP JUMPDEST PUSH1 0x20 DUP3 ADD SWAP1 POP SWAP2 SWAP1 POP JUMP JUMPDEST PUSH0 PUSH1 0x20 DUP3 ADD SWAP1 POP DUP2 DUP2 SUB PUSH0 DUP4 ADD MSTORE PUSH2 0x2465 DUP2 PUSH2 0x242C JUMP JUMPDEST SWAP1 POP SWAP2 SWAP1 POP JUMP JUMPDEST PUSH0 PUSH1 0x60 DUP3 ADD SWAP1 POP PUSH2 0x247F PUSH0 DUP4 ADD DUP7 PUSH2 0x1EAE JUMP JUMPDEST PUSH2 0x248C PUSH1 0x20 DUP4 ADD DUP6 PUSH2 0x1CFE JUMP JUMPDEST PUSH2 0x2499 PUSH1 0x40 DUP4 ADD DUP5 PUSH2 0x1CFE JUMP JUMPDEST SWAP5 SWAP4 POP POP POP POP JUMP JUMPDEST PUSH32 0x5061757361626C653A206E6F7420706175736564000000000000000000000000 PUSH0 DUP3 ADD MSTORE POP JUMP JUMPDEST PUSH0 PUSH2 0x24D5 PUSH1 0x14 DUP4 PUSH2 0x1B76 JUMP JUMPDEST SWAP2 POP PUSH2 0x24E0 DUP3 PUSH2 0x24A1 JUMP JUMPDEST PUSH1 0x20 DUP3 ADD SWAP1 POP SWAP2 SWAP1 POP JUMP JUMPDEST PUSH0 PUSH1 0x20 DUP3 ADD SWAP1 POP DUP2 DUP2 SUB PUSH0 DUP4 ADD MSTORE PUSH2 0x2502 DUP2 PUSH2 0x24C9 JUMP JUMPDEST SWAP1 POP SWAP2 SWAP1 POP JUMP INVALID LOG2 PUSH5 0x6970667358 0x22 SLT KECCAK256 0xDF 0x2E SELFDESTRUCT GAS SWAP9 BLOCKHASH 0xD8 0x2D 0xD3 SWAP9 0xB1 DUP3 0x21 EXP JUMPDEST 0xD3 0xC4 0xA6 DELEGATECALL 0xDF 0xD0 0x4E JUMP PUSH4 0x678BE715 PUSH4 0x1BB64764 PUSH20 0x6F6C634300081A00330000000000000000000000 "
				},
				"gasEstimates": {
					"creation": {
						"codeDepositCost": "1907000",
						"executionCost": "infinite",
						"totalCost": "infinite"
					},
					"external": {
						"allowance(address,address)": "infinite",
						"approve(address,uint256)": "infinite",
						"balanceOf(address)": "2918",
						"chargeSignBalance(uint256,uint256)": "infinite",
						"commissionPercent()": "2493",
						"commissionTreasury()": "2574",
						"decimals()": "406",
						"getApprovalInfo(address)": "infinite",
						"name()": "infinite",
						"owner()": "2611",
						"pause()": "infinite",
						"paused()": "2518",
						"payWage(uint256,address,uint256)": "infinite",
						"renounceOwnership()": "infinite",
						"signBalances(uint256)": "infinite",
						"signsNFT()": "infinite",
						"signsNFTContract()": "2619",
						"symbol()": "infinite",
						"totalSupply()": "2500",
						"transfer(address,uint256)": "infinite",
						"transferFrom(address,address,uint256)": "infinite",
						"transferOwnership(address)": "infinite",
						"unpause()": "infinite",
						"updateCommission(uint256)": "infinite",
						"updateCommissionTreasury(address)": "infinite",
						"updateSignsNFTContract(address)": "infinite",
						"withdrawSignBalance(uint256,uint256)": "infinite"
					},
					"internal": {
						"_isSignOwner(address,uint256)": "29"
					}
				},
				"methodIdentifiers": {
					"allowance(address,address)": "dd62ed3e",
					"approve(address,uint256)": "095ea7b3",
					"balanceOf(address)": "70a08231",
					"chargeSignBalance(uint256,uint256)": "5e182096",
					"commissionPercent()": "77d3550b",
					"commissionTreasury()": "e95850df",
					"decimals()": "313ce567",
					"getApprovalInfo(address)": "1ec48cf7",
					"name()": "06fdde03",
					"owner()": "8da5cb5b",
					"pause()": "8456cb59",
					"paused()": "5c975abb",
					"payWage(uint256,address,uint256)": "ef9ecc1d",
					"renounceOwnership()": "715018a6",
					"signBalances(uint256)": "ca525485",
					"signsNFT()": "2a26c9cd",
					"signsNFTContract()": "a3262ea2",
					"symbol()": "95d89b41",
					"totalSupply()": "18160ddd",
					"transfer(address,uint256)": "a9059cbb",
					"transferFrom(address,address,uint256)": "23b872dd",
					"transferOwnership(address)": "f2fde38b",
					"unpause()": "3f4ba83a",
					"updateCommission(uint256)": "9d55fba7",
					"updateCommissionTreasury(address)": "74612f19",
					"updateSignsNFTContract(address)": "2fcdc5fd",
					"withdrawSignBalance(uint256,uint256)": "a9b493e0"
				}
			},
			"storageLayout": {
				"storage": [
					{
						"astId": 480,
						"contract": "Signs 2/SignsToken.sol:SignToken",
						"label": "_balances",
						"offset": 0,
						"slot": "0",
						"type": "t_mapping(t_address,t_uint256)"
					},
					{
						"astId": 486,
						"contract": "Signs 2/SignsToken.sol:SignToken",
						"label": "_allowances",
						"offset": 0,
						"slot": "1",
						"type": "t_mapping(t_address,t_mapping(t_address,t_uint256))"
					},
					{
						"astId": 488,
						"contract": "Signs 2/SignsToken.sol:SignToken",
						"label": "_totalSupply",
						"offset": 0,
						"slot": "2",
						"type": "t_uint256"
					},
					{
						"astId": 490,
						"contract": "Signs 2/SignsToken.sol:SignToken",
						"label": "_name",
						"offset": 0,
						"slot": "3",
						"type": "t_string_storage"
					},
					{
						"astId": 492,
						"contract": "Signs 2/SignsToken.sol:SignToken",
						"label": "_symbol",
						"offset": 0,
						"slot": "4",
						"type": "t_string_storage"
					},
					{
						"astId": 302,
						"contract": "Signs 2/SignsToken.sol:SignToken",
						"label": "_paused",
						"offset": 0,
						"slot": "5",
						"type": "t_bool"
					},
					{
						"astId": 8,
						"contract": "Signs 2/SignsToken.sol:SignToken",
						"label": "_owner",
						"offset": 1,
						"slot": "5",
						"type": "t_address"
					},
					{
						"astId": 403,
						"contract": "Signs 2/SignsToken.sol:SignToken",
						"label": "_status",
						"offset": 0,
						"slot": "6",
						"type": "t_uint256"
					},
					{
						"astId": 1214,
						"contract": "Signs 2/SignsToken.sol:SignToken",
						"label": "signsNFT",
						"offset": 0,
						"slot": "7",
						"type": "t_contract(ISignsNFT)1194"
					},
					{
						"astId": 1216,
						"contract": "Signs 2/SignsToken.sol:SignToken",
						"label": "signsNFTContract",
						"offset": 0,
						"slot": "8",
						"type": "t_address"
					},
					{
						"astId": 1218,
						"contract": "Signs 2/SignsToken.sol:SignToken",
						"label": "commissionPercent",
						"offset": 0,
						"slot": "9",
						"type": "t_uint256"
					},
					{
						"astId": 1220,
						"contract": "Signs 2/SignsToken.sol:SignToken",
						"label": "commissionTreasury",
						"offset": 0,
						"slot": "10",
						"type": "t_address"
					},
					{
						"astId": 1227,
						"contract": "Signs 2/SignsToken.sol:SignToken",
						"label": "signBalances",
						"offset": 0,
						"slot": "11",
						"type": "t_mapping(t_uint256,t_uint256)"
					}
				],
				"types": {
					"t_address": {
						"encoding": "inplace",
						"label": "address",
						"numberOfBytes": "20"
					},
					"t_bool": {
						"encoding": "inplace",
						"label": "bool",
						"numberOfBytes": "1"
					},
					"t_contract(ISignsNFT)1194": {
						"encoding": "inplace",
						"label": "contract ISignsNFT",
						"numberOfBytes": "20"
					},
					"t_mapping(t_address,t_mapping(t_address,t_uint256))": {
						"encoding": "mapping",
						"key": "t_address",
						"label": "mapping(address => mapping(address => uint256))",
						"numberOfBytes": "32",
						"value": "t_mapping(t_address,t_uint256)"
					},
					"t_mapping(t_address,t_uint256)": {
						"encoding": "mapping",
						"key": "t_address",
						"label": "mapping(address => uint256)",
						"numberOfBytes": "32",
						"value": "t_uint256"
					},
					"t_mapping(t_uint256,t_uint256)": {
						"encoding": "mapping",
						"key": "t_uint256",
						"label": "mapping(uint256 => uint256)",
						"numberOfBytes": "32",
						"value": "t_uint256"
					},
					"t_string_storage": {
						"encoding": "bytes",
						"label": "string",
						"numberOfBytes": "32"
					},
					"t_uint256": {
						"encoding": "inplace",
						"label": "uint256",
						"numberOfBytes": "32"
					}
				}
			},
			"userdoc": {
				"kind": "user",
				"methods": {},
				"version": 1
			}
		}
	}
}