{
	"Signity/interfaces/ISignToken.sol": {
		"SignityToken": {
			"abi": [
				{
					"inputs": [],
					"stateMutability": "nonpayable",
					"type": "constructor"
				},
				{
					"anonymous": false,
					"inputs": [
						{
							"indexed": true,
							"internalType": "address",
							"name": "owner",
							"type": "address"
						},
						{
							"indexed": true,
							"internalType": "address",
							"name": "spender",
							"type": "address"
						},
						{
							"indexed": false,
							"internalType": "uint256",
							"name": "value",
							"type": "uint256"
						}
					],
					"name": "Approval",
					"type": "event"
				},
				{
					"anonymous": false,
					"inputs": [
						{
							"indexed": true,
							"internalType": "address",
							"name": "from",
							"type": "address"
						},
						{
							"indexed": true,
							"internalType": "address",
							"name": "to",
							"type": "address"
						},
						{
							"indexed": false,
							"internalType": "uint256",
							"name": "value",
							"type": "uint256"
						}
					],
					"name": "Transfer",
					"type": "event"
				},
				{
					"inputs": [
						{
							"internalType": "address",
							"name": "owner_",
							"type": "address"
						},
						{
							"internalType": "address",
							"name": "spender",
							"type": "address"
						}
					],
					"name": "allowance",
					"outputs": [
						{
							"internalType": "uint256",
							"name": "",
							"type": "uint256"
						}
					],
					"stateMutability": "view",
					"type": "function"
				},
				{
					"inputs": [
						{
							"internalType": "address",
							"name": "spender",
							"type": "address"
						},
						{
							"internalType": "uint256",
							"name": "amount",
							"type": "uint256"
						}
					],
					"name": "approve",
					"outputs": [
						{
							"internalType": "bool",
							"name": "",
							"type": "bool"
						}
					],
					"stateMutability": "nonpayable",
					"type": "function"
				},
				{
					"inputs": [
						{
							"internalType": "address",
							"name": "account",
							"type": "address"
						}
					],
					"name": "balanceOf",
					"outputs": [
						{
							"internalType": "uint256",
							"name": "",
							"type": "uint256"
						}
					],
					"stateMutability": "view",
					"type": "function"
				},
				{
					"inputs": [
						{
							"internalType": "address",
							"name": "from",
							"type": "address"
						},
						{
							"internalType": "uint256",
							"name": "amount",
							"type": "uint256"
						}
					],
					"name": "burn",
					"outputs": [],
					"stateMutability": "nonpayable",
					"type": "function"
				},
				{
					"inputs": [],
					"name": "decimals",
					"outputs": [
						{
							"internalType": "uint8",
							"name": "",
							"type": "uint8"
						}
					],
					"stateMutability": "view",
					"type": "function"
				},
				{
					"inputs": [
						{
							"internalType": "address",
							"name": "to",
							"type": "address"
						},
						{
							"internalType": "uint256",
							"name": "amount",
							"type": "uint256"
						}
					],
					"name": "mint",
					"outputs": [],
					"stateMutability": "nonpayable",
					"type": "function"
				},
				{
					"inputs": [],
					"name": "name",
					"outputs": [
						{
							"internalType": "string",
							"name": "",
							"type": "string"
						}
					],
					"stateMutability": "view",
					"type": "function"
				},
				{
					"inputs": [],
					"name": "owner",
					"outputs": [
						{
							"internalType": "address",
							"name": "",
							"type": "address"
						}
					],
					"stateMutability": "view",
					"type": "function"
				},
				{
					"inputs": [
						{
							"internalType": "address",
							"name": "_signityNFT",
							"type": "address"
						}
					],
					"name": "setSignityNFT",
					"outputs": [],
					"stateMutability": "nonpayable",
					"type": "function"
				},
				{
					"inputs": [],
					"name": "signityNFT",
					"outputs": [
						{
							"internalType": "address",
							"name": "",
							"type": "address"
						}
					],
					"stateMutability": "view",
					"type": "function"
				},
				{
					"inputs": [],
					"name": "symbol",
					"outputs": [
						{
							"internalType": "string",
							"name": "",
							"type": "string"
						}
					],
					"stateMutability": "view",
					"type": "function"
				},
				{
					"inputs": [],
					"name": "totalSupply",
					"outputs": [
						{
							"internalType": "uint256",
							"name": "",
							"type": "uint256"
						}
					],
					"stateMutability": "view",
					"type": "function"
				},
				{
					"inputs": [
						{
							"internalType": "address",
							"name": "to",
							"type": "address"
						},
						{
							"internalType": "uint256",
							"name": "amount",
							"type": "uint256"
						}
					],
					"name": "transfer",
					"outputs": [
						{
							"internalType": "bool",
							"name": "",
							"type": "bool"
						}
					],
					"stateMutability": "nonpayable",
					"type": "function"
				},
				{
					"inputs": [
						{
							"internalType": "address",
							"name": "from",
							"type": "address"
						},
						{
							"internalType": "address",
							"name": "to",
							"type": "address"
						},
						{
							"internalType": "uint256",
							"name": "amount",
							"type": "uint256"
						}
					],
					"name": "transferFrom",
					"outputs": [
						{
							"internalType": "bool",
							"name": "",
							"type": "bool"
						}
					],
					"stateMutability": "nonpayable",
					"type": "function"
				}
			],
			"devdoc": {
				"kind": "dev",
				"methods": {},
				"version": 1
			},
			"evm": {
				"assembly": "    /* \"Signity/interfaces/ISignToken.sol\":903:4673  contract SignityToken is ISignToken, ReentrancyGuard {... */\n  mstore(0x40, 0xa0)\n    /* \"Signity/interfaces/ISignToken.sol\":1344:1395  constructor() {... */\n  callvalue\n  dup1\n  iszero\n  tag_1\n  jumpi\n  0x00\n  dup1\n  revert\ntag_1:\n  pop\n    /* \"@openzeppelin/contracts/security/ReentrancyGuard.sol\":1716:1717  1 */\n  0x01\n    /* \"@openzeppelin/contracts/security/ReentrancyGuard.sol\":1821:1828  _status */\n  0x00\n    /* \"@openzeppelin/contracts/security/ReentrancyGuard.sol\":1821:1843  _status = _NOT_ENTERED */\n  dup2\n  swap1\n  sstore\n  pop\n    /* \"Signity/interfaces/ISignToken.sol\":1377:1387  msg.sender */\n  caller\n    /* \"Signity/interfaces/ISignToken.sol\":1369:1387  owner = msg.sender */\n  0xffffffffffffffffffffffffffffffffffffffff\n  and\n  0x80\n  dup2\n  0xffffffffffffffffffffffffffffffffffffffff\n  and\n  dup2\n  mstore\n  pop\n  pop\n    /* \"Signity/interfaces/ISignToken.sol\":903:4673  contract SignityToken is ISignToken, ReentrancyGuard {... */\n  mload(0x80)\n  codecopy(0x00, dataOffset(sub_0), dataSize(sub_0))\n  0x00\n  assignImmutable(\"0x8e10998fd91c70dc4a99901d823a85a712e31928b74aed89c0b37021d9258966\")\n  return(0x00, dataSize(sub_0))\nstop\n\nsub_0: assembly {\n        /* \"Signity/interfaces/ISignToken.sol\":903:4673  contract SignityToken is ISignToken, ReentrancyGuard {... */\n      mstore(0x40, 0x80)\n      callvalue\n      dup1\n      iszero\n      tag_1\n      jumpi\n      0x00\n      dup1\n      revert\n    tag_1:\n      pop\n      jumpi(tag_2, lt(calldatasize, 0x04))\n      shr(0xe0, calldataload(0x00))\n      dup1\n      0x8da5cb5b\n      gt\n      tag_17\n      jumpi\n      dup1\n      0xa196d01d\n      gt\n      tag_18\n      jumpi\n      dup1\n      0xa196d01d\n      eq\n      tag_13\n      jumpi\n      dup1\n      0xa9059cbb\n      eq\n      tag_14\n      jumpi\n      dup1\n      0xaeaa10d3\n      eq\n      tag_15\n      jumpi\n      dup1\n      0xdd62ed3e\n      eq\n      tag_16\n      jumpi\n      jump(tag_2)\n    tag_18:\n      dup1\n      0x8da5cb5b\n      eq\n      tag_10\n      jumpi\n      dup1\n      0x95d89b41\n      eq\n      tag_11\n      jumpi\n      dup1\n      0x9dc29fac\n      eq\n      tag_12\n      jumpi\n      jump(tag_2)\n    tag_17:\n      dup1\n      0x23b872dd\n      gt\n      tag_19\n      jumpi\n      dup1\n      0x23b872dd\n      eq\n      tag_6\n      jumpi\n      dup1\n      0x313ce567\n      eq\n      tag_7\n      jumpi\n      dup1\n      0x40c10f19\n      eq\n      tag_8\n      jumpi\n      dup1\n      0x70a08231\n      eq\n      tag_9\n      jumpi\n      jump(tag_2)\n    tag_19:\n      dup1\n      0x06fdde03\n      eq\n      tag_3\n      jumpi\n      dup1\n      0x095ea7b3\n      eq\n      tag_4\n      jumpi\n      dup1\n      0x18160ddd\n      eq\n      tag_5\n      jumpi\n    tag_2:\n      0x00\n      dup1\n      revert\n        /* \"Signity/interfaces/ISignToken.sol\":963:1002  string public constant name = \"Signity\" */\n    tag_3:\n      tag_20\n      tag_21\n      jump\t// in\n    tag_20:\n      mload(0x40)\n      tag_22\n      swap2\n      swap1\n      tag_23\n      jump\t// in\n    tag_22:\n      mload(0x40)\n      dup1\n      swap2\n      sub\n      swap1\n      return\n        /* \"Signity/interfaces/ISignToken.sol\":2836:2997  function approve(address spender, uint256 amount) external override returns (bool) {... */\n    tag_4:\n      tag_24\n      0x04\n      dup1\n      calldatasize\n      sub\n      dup2\n      add\n      swap1\n      tag_25\n      swap2\n      swap1\n      tag_26\n      jump\t// in\n    tag_25:\n      tag_27\n      jump\t// in\n    tag_24:\n      mload(0x40)\n      tag_28\n      swap2\n      swap1\n      tag_29\n      jump\t// in\n    tag_28:\n      mload(0x40)\n      dup1\n      swap2\n      sub\n      swap1\n      return\n        /* \"Signity/interfaces/ISignToken.sol\":3408:3501  function totalSupply() external view returns (uint256) {... */\n    tag_5:\n      tag_30\n      tag_31\n      jump\t// in\n    tag_30:\n      mload(0x40)\n      tag_32\n      swap2\n      swap1\n      tag_33\n      jump\t// in\n    tag_32:\n      mload(0x40)\n      dup1\n      swap2\n      sub\n      swap1\n      return\n        /* \"Signity/interfaces/ISignToken.sol\":3009:3373  function transferFrom(address from, address to, uint256 amount) external override nonReentrant returns (bool) {... */\n    tag_6:\n      tag_34\n      0x04\n      dup1\n      calldatasize\n      sub\n      dup2\n      add\n      swap1\n      tag_35\n      swap2\n      swap1\n      tag_36\n      jump\t// in\n    tag_35:\n      tag_37\n      jump\t// in\n    tag_34:\n      mload(0x40)\n      tag_38\n      swap2\n      swap1\n      tag_29\n      jump\t// in\n    tag_38:\n      mload(0x40)\n      dup1\n      swap2\n      sub\n      swap1\n      return\n        /* \"Signity/interfaces/ISignToken.sol\":1054:1089  uint8 public constant decimals = 18 */\n    tag_7:\n      tag_39\n      tag_40\n      jump\t// in\n    tag_39:\n      mload(0x40)\n      tag_41\n      swap2\n      swap1\n      tag_42\n      jump\t// in\n    tag_41:\n      mload(0x40)\n      dup1\n      swap2\n      sub\n      swap1\n      return\n        /* \"Signity/interfaces/ISignToken.sol\":1936:2235  function mint(address to, uint256 amount) external override onlySignityNFT nonReentrant {... */\n    tag_8:\n      tag_43\n      0x04\n      dup1\n      calldatasize\n      sub\n      dup2\n      add\n      swap1\n      tag_44\n      swap2\n      swap1\n      tag_26\n      jump\t// in\n    tag_44:\n      tag_45\n      jump\t// in\n    tag_43:\n      stop\n        /* \"Signity/interfaces/ISignToken.sol\":3513:3634  function balanceOf(address account) external view override returns (uint256) {... */\n    tag_9:\n      tag_46\n      0x04\n      dup1\n      calldatasize\n      sub\n      dup2\n      add\n      swap1\n      tag_47\n      swap2\n      swap1\n      tag_48\n      jump\t// in\n    tag_47:\n      tag_49\n      jump\t// in\n    tag_46:\n      mload(0x40)\n      tag_50\n      swap2\n      swap1\n      tag_33\n      jump\t// in\n    tag_50:\n      mload(0x40)\n      dup1\n      swap2\n      sub\n      swap1\n      return\n        /* \"Signity/interfaces/ISignToken.sol\":1269:1299  address public immutable owner */\n    tag_10:\n      tag_51\n      tag_52\n      jump\t// in\n    tag_51:\n      mload(0x40)\n      tag_53\n      swap2\n      swap1\n      tag_54\n      jump\t// in\n    tag_53:\n      mload(0x40)\n      dup1\n      swap2\n      sub\n      swap1\n      return\n        /* \"Signity/interfaces/ISignToken.sol\":1009:1047  string public constant symbol = \"SGNT\" */\n    tag_11:\n      tag_55\n      tag_56\n      jump\t// in\n    tag_55:\n      mload(0x40)\n      tag_57\n      swap2\n      swap1\n      tag_23\n      jump\t// in\n    tag_57:\n      mload(0x40)\n      dup1\n      swap2\n      sub\n      swap1\n      return\n        /* \"Signity/interfaces/ISignToken.sol\":2247:2646  function burn(address from, uint256 amount) external override onlySignityNFT nonReentrant {... */\n    tag_12:\n      tag_58\n      0x04\n      dup1\n      calldatasize\n      sub\n      dup2\n      add\n      swap1\n      tag_59\n      swap2\n      swap1\n      tag_26\n      jump\t// in\n    tag_59:\n      tag_60\n      jump\t// in\n    tag_58:\n      stop\n        /* \"Signity/interfaces/ISignToken.sol\":1306:1331  address public signityNFT */\n    tag_13:\n      tag_61\n      tag_62\n      jump\t// in\n    tag_61:\n      mload(0x40)\n      tag_63\n      swap2\n      swap1\n      tag_54\n      jump\t// in\n    tag_63:\n      mload(0x40)\n      dup1\n      swap2\n      sub\n      swap1\n      return\n        /* \"Signity/interfaces/ISignToken.sol\":2658:2824  function transfer(address to, uint256 amount) external override nonReentrant returns (bool) {... */\n    tag_14:\n      tag_64\n      0x04\n      dup1\n      calldatasize\n      sub\n      dup2\n      add\n      swap1\n      tag_65\n      swap2\n      swap1\n      tag_26\n      jump\t// in\n    tag_65:\n      tag_66\n      jump\t// in\n    tag_64:\n      mload(0x40)\n      tag_67\n      swap2\n      swap1\n      tag_29\n      jump\t// in\n    tag_67:\n      mload(0x40)\n      dup1\n      swap2\n      sub\n      swap1\n      return\n        /* \"Signity/interfaces/ISignToken.sol\":1704:1899  function setSignityNFT(address _signityNFT) external onlyOwner {... */\n    tag_15:\n      tag_68\n      0x04\n      dup1\n      calldatasize\n      sub\n      dup2\n      add\n      swap1\n      tag_69\n      swap2\n      swap1\n      tag_48\n      jump\t// in\n    tag_69:\n      tag_70\n      jump\t// in\n    tag_68:\n      stop\n        /* \"Signity/interfaces/ISignToken.sol\":3646:3793  function allowance(address owner_, address spender) external view override returns (uint256) {... */\n    tag_16:\n      tag_71\n      0x04\n      dup1\n      calldatasize\n      sub\n      dup2\n      add\n      swap1\n      tag_72\n      swap2\n      swap1\n      tag_73\n      jump\t// in\n    tag_72:\n      tag_74\n      jump\t// in\n    tag_71:\n      mload(0x40)\n      tag_75\n      swap2\n      swap1\n      tag_33\n      jump\t// in\n    tag_75:\n      mload(0x40)\n      dup1\n      swap2\n      sub\n      swap1\n      return\n        /* \"Signity/interfaces/ISignToken.sol\":963:1002  string public constant name = \"Signity\" */\n    tag_21:\n      mload(0x40)\n      dup1\n      0x40\n      add\n      0x40\n      mstore\n      dup1\n      0x07\n      dup2\n      mstore\n      0x20\n      add\n      0x5369676e69747900000000000000000000000000000000000000000000000000\n      dup2\n      mstore\n      pop\n      dup2\n      jump\t// out\n        /* \"Signity/interfaces/ISignToken.sol\":2836:2997  function approve(address spender, uint256 amount) external override returns (bool) {... */\n    tag_27:\n        /* \"Signity/interfaces/ISignToken.sol\":2913:2917  bool */\n      0x00\n        /* \"Signity/interfaces/ISignToken.sol\":2930:2967  _approve(msg.sender, spender, amount) */\n      tag_77\n        /* \"Signity/interfaces/ISignToken.sol\":2939:2949  msg.sender */\n      caller\n        /* \"Signity/interfaces/ISignToken.sol\":2951:2958  spender */\n      dup5\n        /* \"Signity/interfaces/ISignToken.sol\":2960:2966  amount */\n      dup5\n        /* \"Signity/interfaces/ISignToken.sol\":2930:2938  _approve */\n      tag_78\n        /* \"Signity/interfaces/ISignToken.sol\":2930:2967  _approve(msg.sender, spender, amount) */\n      jump\t// in\n    tag_77:\n        /* \"Signity/interfaces/ISignToken.sol\":2985:2989  true */\n      0x01\n        /* \"Signity/interfaces/ISignToken.sol\":2978:2989  return true */\n      swap1\n      pop\n        /* \"Signity/interfaces/ISignToken.sol\":2836:2997  function approve(address spender, uint256 amount) external override returns (bool) {... */\n      swap3\n      swap2\n      pop\n      pop\n      jump\t// out\n        /* \"Signity/interfaces/ISignToken.sol\":3408:3501  function totalSupply() external view returns (uint256) {... */\n    tag_31:\n        /* \"Signity/interfaces/ISignToken.sol\":3454:3461  uint256 */\n      0x00\n        /* \"Signity/interfaces/ISignToken.sol\":3481:3493  _totalSupply */\n      sload(0x01)\n        /* \"Signity/interfaces/ISignToken.sol\":3474:3493  return _totalSupply */\n      swap1\n      pop\n        /* \"Signity/interfaces/ISignToken.sol\":3408:3501  function totalSupply() external view returns (uint256) {... */\n      swap1\n      jump\t// out\n        /* \"Signity/interfaces/ISignToken.sol\":3009:3373  function transferFrom(address from, address to, uint256 amount) external override nonReentrant returns (bool) {... */\n    tag_37:\n        /* \"Signity/interfaces/ISignToken.sol\":3113:3117  bool */\n      0x00\n        /* \"@openzeppelin/contracts/security/ReentrancyGuard.sol\":2261:2282  _nonReentrantBefore() */\n      tag_81\n        /* \"@openzeppelin/contracts/security/ReentrancyGuard.sol\":2261:2280  _nonReentrantBefore */\n      tag_82\n        /* \"@openzeppelin/contracts/security/ReentrancyGuard.sol\":2261:2282  _nonReentrantBefore() */\n      jump\t// in\n    tag_81:\n        /* \"Signity/interfaces/ISignToken.sol\":3171:3177  amount */\n      dup2\n        /* \"Signity/interfaces/ISignToken.sol\":3138:3149  _allowances */\n      0x03\n        /* \"Signity/interfaces/ISignToken.sol\":3138:3155  _allowances[from] */\n      0x00\n        /* \"Signity/interfaces/ISignToken.sol\":3150:3154  from */\n      dup7\n        /* \"Signity/interfaces/ISignToken.sol\":3138:3155  _allowances[from] */\n      0xffffffffffffffffffffffffffffffffffffffff\n      and\n      0xffffffffffffffffffffffffffffffffffffffff\n      and\n      dup2\n      mstore\n      0x20\n      add\n      swap1\n      dup2\n      mstore\n      0x20\n      add\n      0x00\n      keccak256\n        /* \"Signity/interfaces/ISignToken.sol\":3138:3167  _allowances[from][msg.sender] */\n      0x00\n        /* \"Signity/interfaces/ISignToken.sol\":3156:3166  msg.sender */\n      caller\n        /* \"Signity/interfaces/ISignToken.sol\":3138:3167  _allowances[from][msg.sender] */\n      0xffffffffffffffffffffffffffffffffffffffff\n      and\n      0xffffffffffffffffffffffffffffffffffffffff\n      and\n      dup2\n      mstore\n      0x20\n      add\n      swap1\n      dup2\n      mstore\n      0x20\n      add\n      0x00\n      keccak256\n      sload\n        /* \"Signity/interfaces/ISignToken.sol\":3138:3177  _allowances[from][msg.sender] >= amount */\n      lt\n      iszero\n        /* \"Signity/interfaces/ISignToken.sol\":3130:3218  require(_allowances[from][msg.sender] >= amount, \"SignityToken: insufficient allowance\") */\n      tag_84\n      jumpi\n      mload(0x40)\n      0x08c379a000000000000000000000000000000000000000000000000000000000\n      dup2\n      mstore\n      0x04\n      add\n      tag_85\n      swap1\n      tag_86\n      jump\t// in\n    tag_85:\n      mload(0x40)\n      dup1\n      swap2\n      sub\n      swap1\n      revert\n    tag_84:\n        /* \"Signity/interfaces/ISignToken.sol\":3239:3266  _transfer(from, to, amount) */\n      tag_87\n        /* \"Signity/interfaces/ISignToken.sol\":3249:3253  from */\n      dup5\n        /* \"Signity/interfaces/ISignToken.sol\":3255:3257  to */\n      dup5\n        /* \"Signity/interfaces/ISignToken.sol\":3259:3265  amount */\n      dup5\n        /* \"Signity/interfaces/ISignToken.sol\":3239:3248  _transfer */\n      tag_88\n        /* \"Signity/interfaces/ISignToken.sol\":3239:3266  _transfer(from, to, amount) */\n      jump\t// in\n    tag_87:\n        /* \"Signity/interfaces/ISignToken.sol\":3277:3343  _approve(from, msg.sender, _allowances[from][msg.sender] - amount) */\n      tag_89\n        /* \"Signity/interfaces/ISignToken.sol\":3286:3290  from */\n      dup5\n        /* \"Signity/interfaces/ISignToken.sol\":3292:3302  msg.sender */\n      caller\n        /* \"Signity/interfaces/ISignToken.sol\":3336:3342  amount */\n      dup5\n        /* \"Signity/interfaces/ISignToken.sol\":3304:3315  _allowances */\n      0x03\n        /* \"Signity/interfaces/ISignToken.sol\":3304:3321  _allowances[from] */\n      0x00\n        /* \"Signity/interfaces/ISignToken.sol\":3316:3320  from */\n      dup10\n        /* \"Signity/interfaces/ISignToken.sol\":3304:3321  _allowances[from] */\n      0xffffffffffffffffffffffffffffffffffffffff\n      and\n      0xffffffffffffffffffffffffffffffffffffffff\n      and\n      dup2\n      mstore\n      0x20\n      add\n      swap1\n      dup2\n      mstore\n      0x20\n      add\n      0x00\n      keccak256\n        /* \"Signity/interfaces/ISignToken.sol\":3304:3333  _allowances[from][msg.sender] */\n      0x00\n        /* \"Signity/interfaces/ISignToken.sol\":3322:3332  msg.sender */\n      caller\n        /* \"Signity/interfaces/ISignToken.sol\":3304:3333  _allowances[from][msg.sender] */\n      0xffffffffffffffffffffffffffffffffffffffff\n      and\n      0xffffffffffffffffffffffffffffffffffffffff\n      and\n      dup2\n      mstore\n      0x20\n      add\n      swap1\n      dup2\n      mstore\n      0x20\n      add\n      0x00\n      keccak256\n      sload\n        /* \"Signity/interfaces/ISignToken.sol\":3304:3342  _allowances[from][msg.sender] - amount */\n      tag_90\n      swap2\n      swap1\n      tag_91\n      jump\t// in\n    tag_90:\n        /* \"Signity/interfaces/ISignToken.sol\":3277:3285  _approve */\n      tag_78\n        /* \"Signity/interfaces/ISignToken.sol\":3277:3343  _approve(from, msg.sender, _allowances[from][msg.sender] - amount) */\n      jump\t// in\n    tag_89:\n        /* \"Signity/interfaces/ISignToken.sol\":3361:3365  true */\n      0x01\n        /* \"Signity/interfaces/ISignToken.sol\":3354:3365  return true */\n      swap1\n      pop\n        /* \"@openzeppelin/contracts/security/ReentrancyGuard.sol\":2303:2323  _nonReentrantAfter() */\n      tag_92\n        /* \"@openzeppelin/contracts/security/ReentrancyGuard.sol\":2303:2321  _nonReentrantAfter */\n      tag_93\n        /* \"@openzeppelin/contracts/security/ReentrancyGuard.sol\":2303:2323  _nonReentrantAfter() */\n      jump\t// in\n    tag_92:\n        /* \"Signity/interfaces/ISignToken.sol\":3009:3373  function transferFrom(address from, address to, uint256 amount) external override nonReentrant returns (bool) {... */\n      swap4\n      swap3\n      pop\n      pop\n      pop\n      jump\t// out\n        /* \"Signity/interfaces/ISignToken.sol\":1054:1089  uint8 public constant decimals = 18 */\n    tag_40:\n        /* \"Signity/interfaces/ISignToken.sol\":1087:1089  18 */\n      0x12\n        /* \"Signity/interfaces/ISignToken.sol\":1054:1089  uint8 public constant decimals = 18 */\n      dup2\n      jump\t// out\n        /* \"Signity/interfaces/ISignToken.sol\":1936:2235  function mint(address to, uint256 amount) external override onlySignityNFT nonReentrant {... */\n    tag_45:\n        /* \"Signity/interfaces/ISignToken.sol\":1599:1609  signityNFT */\n      0x04\n      0x00\n      swap1\n      sload\n      swap1\n      0x0100\n      exp\n      swap1\n      div\n      0xffffffffffffffffffffffffffffffffffffffff\n      and\n        /* \"Signity/interfaces/ISignToken.sol\":1585:1609  msg.sender == signityNFT */\n      0xffffffffffffffffffffffffffffffffffffffff\n      and\n        /* \"Signity/interfaces/ISignToken.sol\":1585:1595  msg.sender */\n      caller\n        /* \"Signity/interfaces/ISignToken.sol\":1585:1609  msg.sender == signityNFT */\n      0xffffffffffffffffffffffffffffffffffffffff\n      and\n      eq\n        /* \"Signity/interfaces/ISignToken.sol\":1577:1652  require(msg.sender == signityNFT, \"SignityToken: caller is not SignityNFT\") */\n      tag_95\n      jumpi\n      mload(0x40)\n      0x08c379a000000000000000000000000000000000000000000000000000000000\n      dup2\n      mstore\n      0x04\n      add\n      tag_96\n      swap1\n      tag_97\n      jump\t// in\n    tag_96:\n      mload(0x40)\n      dup1\n      swap2\n      sub\n      swap1\n      revert\n    tag_95:\n        /* \"@openzeppelin/contracts/security/ReentrancyGuard.sol\":2261:2282  _nonReentrantBefore() */\n      tag_99\n        /* \"@openzeppelin/contracts/security/ReentrancyGuard.sol\":2261:2280  _nonReentrantBefore */\n      tag_82\n        /* \"@openzeppelin/contracts/security/ReentrancyGuard.sol\":2261:2282  _nonReentrantBefore() */\n      jump\t// in\n    tag_99:\n        /* \"Signity/interfaces/ISignToken.sol\":2057:2058  0 */\n      0x00\n        /* \"Signity/interfaces/ISignToken.sol\":2043:2059  to != address(0) */\n      0xffffffffffffffffffffffffffffffffffffffff\n      and\n        /* \"Signity/interfaces/ISignToken.sol\":2043:2045  to */\n      dup3\n        /* \"Signity/interfaces/ISignToken.sol\":2043:2059  to != address(0) */\n      0xffffffffffffffffffffffffffffffffffffffff\n      and\n      sub\n        /* \"Signity/interfaces/ISignToken.sol\":2035:2102  require(to != address(0), \"SignityToken: mint to the zero address\") */\n      tag_101\n      jumpi\n      mload(0x40)\n      0x08c379a000000000000000000000000000000000000000000000000000000000\n      dup2\n      mstore\n      0x04\n      add\n      tag_102\n      swap1\n      tag_103\n      jump\t// in\n    tag_102:\n      mload(0x40)\n      dup1\n      swap2\n      sub\n      swap1\n      revert\n    tag_101:\n        /* \"Signity/interfaces/ISignToken.sol\":2139:2145  amount */\n      dup1\n        /* \"Signity/interfaces/ISignToken.sol\":2123:2135  _totalSupply */\n      0x01\n      0x00\n        /* \"Signity/interfaces/ISignToken.sol\":2123:2145  _totalSupply += amount */\n      dup3\n      dup3\n      sload\n      tag_104\n      swap2\n      swap1\n      tag_105\n      jump\t// in\n    tag_104:\n      swap3\n      pop\n      pop\n      dup2\n      swap1\n      sstore\n      pop\n        /* \"Signity/interfaces/ISignToken.sol\":2173:2179  amount */\n      dup1\n        /* \"Signity/interfaces/ISignToken.sol\":2156:2165  _balances */\n      0x02\n        /* \"Signity/interfaces/ISignToken.sol\":2156:2169  _balances[to] */\n      0x00\n        /* \"Signity/interfaces/ISignToken.sol\":2166:2168  to */\n      dup5\n        /* \"Signity/interfaces/ISignToken.sol\":2156:2169  _balances[to] */\n      0xffffffffffffffffffffffffffffffffffffffff\n      and\n      0xffffffffffffffffffffffffffffffffffffffff\n      and\n      dup2\n      mstore\n      0x20\n      add\n      swap1\n      dup2\n      mstore\n      0x20\n      add\n      0x00\n      keccak256\n      0x00\n        /* \"Signity/interfaces/ISignToken.sol\":2156:2179  _balances[to] += amount */\n      dup3\n      dup3\n      sload\n      tag_106\n      swap2\n      swap1\n      tag_105\n      jump\t// in\n    tag_106:\n      swap3\n      pop\n      pop\n      dup2\n      swap1\n      sstore\n      pop\n        /* \"Signity/interfaces/ISignToken.sol\":2216:2218  to */\n      dup2\n        /* \"Signity/interfaces/ISignToken.sol\":2195:2227  Transfer(address(0), to, amount) */\n      0xffffffffffffffffffffffffffffffffffffffff\n      and\n        /* \"Signity/interfaces/ISignToken.sol\":2212:2213  0 */\n      0x00\n        /* \"Signity/interfaces/ISignToken.sol\":2195:2227  Transfer(address(0), to, amount) */\n      0xffffffffffffffffffffffffffffffffffffffff\n      and\n      0xddf252ad1be2c89b69c2b068fc378daa952ba7f163c4a11628f55a4df523b3ef\n        /* \"Signity/interfaces/ISignToken.sol\":2220:2226  amount */\n      dup4\n        /* \"Signity/interfaces/ISignToken.sol\":2195:2227  Transfer(address(0), to, amount) */\n      mload(0x40)\n      tag_107\n      swap2\n      swap1\n      tag_33\n      jump\t// in\n    tag_107:\n      mload(0x40)\n      dup1\n      swap2\n      sub\n      swap1\n      log3\n        /* \"@openzeppelin/contracts/security/ReentrancyGuard.sol\":2303:2323  _nonReentrantAfter() */\n      tag_108\n        /* \"@openzeppelin/contracts/security/ReentrancyGuard.sol\":2303:2321  _nonReentrantAfter */\n      tag_93\n        /* \"@openzeppelin/contracts/security/ReentrancyGuard.sol\":2303:2323  _nonReentrantAfter() */\n      jump\t// in\n    tag_108:\n        /* \"Signity/interfaces/ISignToken.sol\":1936:2235  function mint(address to, uint256 amount) external override onlySignityNFT nonReentrant {... */\n      pop\n      pop\n      jump\t// out\n        /* \"Signity/interfaces/ISignToken.sol\":3513:3634  function balanceOf(address account) external view override returns (uint256) {... */\n    tag_49:\n        /* \"Signity/interfaces/ISignToken.sol\":3581:3588  uint256 */\n      0x00\n        /* \"Signity/interfaces/ISignToken.sol\":3608:3617  _balances */\n      0x02\n        /* \"Signity/interfaces/ISignToken.sol\":3608:3626  _balances[account] */\n      0x00\n        /* \"Signity/interfaces/ISignToken.sol\":3618:3625  account */\n      dup4\n        /* \"Signity/interfaces/ISignToken.sol\":3608:3626  _balances[account] */\n      0xffffffffffffffffffffffffffffffffffffffff\n      and\n      0xffffffffffffffffffffffffffffffffffffffff\n      and\n      dup2\n      mstore\n      0x20\n      add\n      swap1\n      dup2\n      mstore\n      0x20\n      add\n      0x00\n      keccak256\n      sload\n        /* \"Signity/interfaces/ISignToken.sol\":3601:3626  return _balances[account] */\n      swap1\n      pop\n        /* \"Signity/interfaces/ISignToken.sol\":3513:3634  function balanceOf(address account) external view override returns (uint256) {... */\n      swap2\n      swap1\n      pop\n      jump\t// out\n        /* \"Signity/interfaces/ISignToken.sol\":1269:1299  address public immutable owner */\n    tag_52:\n      immutable(\"0x8e10998fd91c70dc4a99901d823a85a712e31928b74aed89c0b37021d9258966\")\n      dup2\n      jump\t// out\n        /* \"Signity/interfaces/ISignToken.sol\":1009:1047  string public constant symbol = \"SGNT\" */\n    tag_56:\n      mload(0x40)\n      dup1\n      0x40\n      add\n      0x40\n      mstore\n      dup1\n      0x04\n      dup2\n      mstore\n      0x20\n      add\n      0x53474e5400000000000000000000000000000000000000000000000000000000\n      dup2\n      mstore\n      pop\n      dup2\n      jump\t// out\n        /* \"Signity/interfaces/ISignToken.sol\":2247:2646  function burn(address from, uint256 amount) external override onlySignityNFT nonReentrant {... */\n    tag_60:\n        /* \"Signity/interfaces/ISignToken.sol\":1599:1609  signityNFT */\n      0x04\n      0x00\n      swap1\n      sload\n      swap1\n      0x0100\n      exp\n      swap1\n      div\n      0xffffffffffffffffffffffffffffffffffffffff\n      and\n        /* \"Signity/interfaces/ISignToken.sol\":1585:1609  msg.sender == signityNFT */\n      0xffffffffffffffffffffffffffffffffffffffff\n      and\n        /* \"Signity/interfaces/ISignToken.sol\":1585:1595  msg.sender */\n      caller\n        /* \"Signity/interfaces/ISignToken.sol\":1585:1609  msg.sender == signityNFT */\n      0xffffffffffffffffffffffffffffffffffffffff\n      and\n      eq\n        /* \"Signity/interfaces/ISignToken.sol\":1577:1652  require(msg.sender == signityNFT, \"SignityToken: caller is not SignityNFT\") */\n      tag_111\n      jumpi\n      mload(0x40)\n      0x08c379a000000000000000000000000000000000000000000000000000000000\n      dup2\n      mstore\n      0x04\n      add\n      tag_112\n      swap1\n      tag_97\n      jump\t// in\n    tag_112:\n      mload(0x40)\n      dup1\n      swap2\n      sub\n      swap1\n      revert\n    tag_111:\n        /* \"@openzeppelin/contracts/security/ReentrancyGuard.sol\":2261:2282  _nonReentrantBefore() */\n      tag_114\n        /* \"@openzeppelin/contracts/security/ReentrancyGuard.sol\":2261:2280  _nonReentrantBefore */\n      tag_82\n        /* \"@openzeppelin/contracts/security/ReentrancyGuard.sol\":2261:2282  _nonReentrantBefore() */\n      jump\t// in\n    tag_114:\n        /* \"Signity/interfaces/ISignToken.sol\":2372:2373  0 */\n      0x00\n        /* \"Signity/interfaces/ISignToken.sol\":2356:2374  from != address(0) */\n      0xffffffffffffffffffffffffffffffffffffffff\n      and\n        /* \"Signity/interfaces/ISignToken.sol\":2356:2360  from */\n      dup3\n        /* \"Signity/interfaces/ISignToken.sol\":2356:2374  from != address(0) */\n      0xffffffffffffffffffffffffffffffffffffffff\n      and\n      sub\n        /* \"Signity/interfaces/ISignToken.sol\":2348:2419  require(from != address(0), \"SignityToken: burn from the zero address\") */\n      tag_116\n      jumpi\n      mload(0x40)\n      0x08c379a000000000000000000000000000000000000000000000000000000000\n      dup2\n      mstore\n      0x04\n      add\n      tag_117\n      swap1\n      tag_118\n      jump\t// in\n    tag_117:\n      mload(0x40)\n      dup1\n      swap2\n      sub\n      swap1\n      revert\n    tag_116:\n        /* \"Signity/interfaces/ISignToken.sol\":2457:2463  amount */\n      dup1\n        /* \"Signity/interfaces/ISignToken.sol\":2438:2447  _balances */\n      0x02\n        /* \"Signity/interfaces/ISignToken.sol\":2438:2453  _balances[from] */\n      0x00\n        /* \"Signity/interfaces/ISignToken.sol\":2448:2452  from */\n      dup5\n        /* \"Signity/interfaces/ISignToken.sol\":2438:2453  _balances[from] */\n      0xffffffffffffffffffffffffffffffffffffffff\n      and\n      0xffffffffffffffffffffffffffffffffffffffff\n      and\n      dup2\n      mstore\n      0x20\n      add\n      swap1\n      dup2\n      mstore\n      0x20\n      add\n      0x00\n      keccak256\n      sload\n        /* \"Signity/interfaces/ISignToken.sol\":2438:2463  _balances[from] >= amount */\n      lt\n      iszero\n        /* \"Signity/interfaces/ISignToken.sol\":2430:2509  require(_balances[from] >= amount, \"SignityToken: burn amount exceeds balance\") */\n      tag_119\n      jumpi\n      mload(0x40)\n      0x08c379a000000000000000000000000000000000000000000000000000000000\n      dup2\n      mstore\n      0x04\n      add\n      tag_120\n      swap1\n      tag_121\n      jump\t// in\n    tag_120:\n      mload(0x40)\n      dup1\n      swap2\n      sub\n      swap1\n      revert\n    tag_119:\n        /* \"Signity/interfaces/ISignToken.sol\":2549:2555  amount */\n      dup1\n        /* \"Signity/interfaces/ISignToken.sol\":2530:2539  _balances */\n      0x02\n        /* \"Signity/interfaces/ISignToken.sol\":2530:2545  _balances[from] */\n      0x00\n        /* \"Signity/interfaces/ISignToken.sol\":2540:2544  from */\n      dup5\n        /* \"Signity/interfaces/ISignToken.sol\":2530:2545  _balances[from] */\n      0xffffffffffffffffffffffffffffffffffffffff\n      and\n      0xffffffffffffffffffffffffffffffffffffffff\n      and\n      dup2\n      mstore\n      0x20\n      add\n      swap1\n      dup2\n      mstore\n      0x20\n      add\n      0x00\n      keccak256\n      0x00\n        /* \"Signity/interfaces/ISignToken.sol\":2530:2555  _balances[from] -= amount */\n      dup3\n      dup3\n      sload\n      tag_122\n      swap2\n      swap1\n      tag_91\n      jump\t// in\n    tag_122:\n      swap3\n      pop\n      pop\n      dup2\n      swap1\n      sstore\n      pop\n        /* \"Signity/interfaces/ISignToken.sol\":2582:2588  amount */\n      dup1\n        /* \"Signity/interfaces/ISignToken.sol\":2566:2578  _totalSupply */\n      0x01\n      0x00\n        /* \"Signity/interfaces/ISignToken.sol\":2566:2588  _totalSupply -= amount */\n      dup3\n      dup3\n      sload\n      tag_123\n      swap2\n      swap1\n      tag_91\n      jump\t// in\n    tag_123:\n      swap3\n      pop\n      pop\n      dup2\n      swap1\n      sstore\n      pop\n        /* \"Signity/interfaces/ISignToken.sol\":2627:2628  0 */\n      0x00\n        /* \"Signity/interfaces/ISignToken.sol\":2604:2638  Transfer(from, address(0), amount) */\n      0xffffffffffffffffffffffffffffffffffffffff\n      and\n        /* \"Signity/interfaces/ISignToken.sol\":2613:2617  from */\n      dup3\n        /* \"Signity/interfaces/ISignToken.sol\":2604:2638  Transfer(from, address(0), amount) */\n      0xffffffffffffffffffffffffffffffffffffffff\n      and\n      0xddf252ad1be2c89b69c2b068fc378daa952ba7f163c4a11628f55a4df523b3ef\n        /* \"Signity/interfaces/ISignToken.sol\":2631:2637  amount */\n      dup4\n        /* \"Signity/interfaces/ISignToken.sol\":2604:2638  Transfer(from, address(0), amount) */\n      mload(0x40)\n      tag_124\n      swap2\n      swap1\n      tag_33\n      jump\t// in\n    tag_124:\n      mload(0x40)\n      dup1\n      swap2\n      sub\n      swap1\n      log3\n        /* \"@openzeppelin/contracts/security/ReentrancyGuard.sol\":2303:2323  _nonReentrantAfter() */\n      tag_125\n        /* \"@openzeppelin/contracts/security/ReentrancyGuard.sol\":2303:2321  _nonReentrantAfter */\n      tag_93\n        /* \"@openzeppelin/contracts/security/ReentrancyGuard.sol\":2303:2323  _nonReentrantAfter() */\n      jump\t// in\n    tag_125:\n        /* \"Signity/interfaces/ISignToken.sol\":2247:2646  function burn(address from, uint256 amount) external override onlySignityNFT nonReentrant {... */\n      pop\n      pop\n      jump\t// out\n        /* \"Signity/interfaces/ISignToken.sol\":1306:1331  address public signityNFT */\n    tag_62:\n      0x04\n      0x00\n      swap1\n      sload\n      swap1\n      0x0100\n      exp\n      swap1\n      div\n      0xffffffffffffffffffffffffffffffffffffffff\n      and\n      dup2\n      jump\t// out\n        /* \"Signity/interfaces/ISignToken.sol\":2658:2824  function transfer(address to, uint256 amount) external override nonReentrant returns (bool) {... */\n    tag_66:\n        /* \"Signity/interfaces/ISignToken.sol\":2744:2748  bool */\n      0x00\n        /* \"@openzeppelin/contracts/security/ReentrancyGuard.sol\":2261:2282  _nonReentrantBefore() */\n      tag_127\n        /* \"@openzeppelin/contracts/security/ReentrancyGuard.sol\":2261:2280  _nonReentrantBefore */\n      tag_82\n        /* \"@openzeppelin/contracts/security/ReentrancyGuard.sol\":2261:2282  _nonReentrantBefore() */\n      jump\t// in\n    tag_127:\n        /* \"Signity/interfaces/ISignToken.sol\":2761:2794  _transfer(msg.sender, to, amount) */\n      tag_129\n        /* \"Signity/interfaces/ISignToken.sol\":2771:2781  msg.sender */\n      caller\n        /* \"Signity/interfaces/ISignToken.sol\":2783:2785  to */\n      dup5\n        /* \"Signity/interfaces/ISignToken.sol\":2787:2793  amount */\n      dup5\n        /* \"Signity/interfaces/ISignToken.sol\":2761:2770  _transfer */\n      tag_88\n        /* \"Signity/interfaces/ISignToken.sol\":2761:2794  _transfer(msg.sender, to, amount) */\n      jump\t// in\n    tag_129:\n        /* \"Signity/interfaces/ISignToken.sol\":2812:2816  true */\n      0x01\n        /* \"Signity/interfaces/ISignToken.sol\":2805:2816  return true */\n      swap1\n      pop\n        /* \"@openzeppelin/contracts/security/ReentrancyGuard.sol\":2303:2323  _nonReentrantAfter() */\n      tag_130\n        /* \"@openzeppelin/contracts/security/ReentrancyGuard.sol\":2303:2321  _nonReentrantAfter */\n      tag_93\n        /* \"@openzeppelin/contracts/security/ReentrancyGuard.sol\":2303:2323  _nonReentrantAfter() */\n      jump\t// in\n    tag_130:\n        /* \"Signity/interfaces/ISignToken.sol\":2658:2824  function transfer(address to, uint256 amount) external override nonReentrant returns (bool) {... */\n      swap3\n      swap2\n      pop\n      pop\n      jump\t// out\n        /* \"Signity/interfaces/ISignToken.sol\":1704:1899  function setSignityNFT(address _signityNFT) external onlyOwner {... */\n    tag_70:\n        /* \"Signity/interfaces/ISignToken.sol\":1461:1466  owner */\n      immutable(\"0x8e10998fd91c70dc4a99901d823a85a712e31928b74aed89c0b37021d9258966\")\n        /* \"Signity/interfaces/ISignToken.sol\":1447:1466  msg.sender == owner */\n      0xffffffffffffffffffffffffffffffffffffffff\n      and\n        /* \"Signity/interfaces/ISignToken.sol\":1447:1457  msg.sender */\n      caller\n        /* \"Signity/interfaces/ISignToken.sol\":1447:1466  msg.sender == owner */\n      0xffffffffffffffffffffffffffffffffffffffff\n      and\n      eq\n        /* \"Signity/interfaces/ISignToken.sol\":1439:1508  require(msg.sender == owner, \"SignityToken: caller is not the owner\") */\n      tag_132\n      jumpi\n      mload(0x40)\n      0x08c379a000000000000000000000000000000000000000000000000000000000\n      dup2\n      mstore\n      0x04\n      add\n      tag_133\n      swap1\n      tag_134\n      jump\t// in\n    tag_133:\n      mload(0x40)\n      dup1\n      swap2\n      sub\n      swap1\n      revert\n    tag_132:\n        /* \"Signity/interfaces/ISignToken.sol\":1809:1810  0 */\n      0x00\n        /* \"Signity/interfaces/ISignToken.sol\":1786:1811  _signityNFT != address(0) */\n      0xffffffffffffffffffffffffffffffffffffffff\n      and\n        /* \"Signity/interfaces/ISignToken.sol\":1786:1797  _signityNFT */\n      dup2\n        /* \"Signity/interfaces/ISignToken.sol\":1786:1811  _signityNFT != address(0) */\n      0xffffffffffffffffffffffffffffffffffffffff\n      and\n      sub\n        /* \"Signity/interfaces/ISignToken.sol\":1778:1856  require(_signityNFT != address(0), \"SignityToken: invalid SignityNFT address\") */\n      tag_136\n      jumpi\n      mload(0x40)\n      0x08c379a000000000000000000000000000000000000000000000000000000000\n      dup2\n      mstore\n      0x04\n      add\n      tag_137\n      swap1\n      tag_138\n      jump\t// in\n    tag_137:\n      mload(0x40)\n      dup1\n      swap2\n      sub\n      swap1\n      revert\n    tag_136:\n        /* \"Signity/interfaces/ISignToken.sol\":1880:1891  _signityNFT */\n      dup1\n        /* \"Signity/interfaces/ISignToken.sol\":1867:1877  signityNFT */\n      0x04\n      0x00\n        /* \"Signity/interfaces/ISignToken.sol\":1867:1891  signityNFT = _signityNFT */\n      0x0100\n      exp\n      dup2\n      sload\n      dup2\n      0xffffffffffffffffffffffffffffffffffffffff\n      mul\n      not\n      and\n      swap1\n      dup4\n      0xffffffffffffffffffffffffffffffffffffffff\n      and\n      mul\n      or\n      swap1\n      sstore\n      pop\n        /* \"Signity/interfaces/ISignToken.sol\":1704:1899  function setSignityNFT(address _signityNFT) external onlyOwner {... */\n      pop\n      jump\t// out\n        /* \"Signity/interfaces/ISignToken.sol\":3646:3793  function allowance(address owner_, address spender) external view override returns (uint256) {... */\n    tag_74:\n        /* \"Signity/interfaces/ISignToken.sol\":3730:3737  uint256 */\n      0x00\n        /* \"Signity/interfaces/ISignToken.sol\":3757:3768  _allowances */\n      0x03\n        /* \"Signity/interfaces/ISignToken.sol\":3757:3776  _allowances[owner_] */\n      0x00\n        /* \"Signity/interfaces/ISignToken.sol\":3769:3775  owner_ */\n      dup5\n        /* \"Signity/interfaces/ISignToken.sol\":3757:3776  _allowances[owner_] */\n      0xffffffffffffffffffffffffffffffffffffffff\n      and\n      0xffffffffffffffffffffffffffffffffffffffff\n      and\n      dup2\n      mstore\n      0x20\n      add\n      swap1\n      dup2\n      mstore\n      0x20\n      add\n      0x00\n      keccak256\n        /* \"Signity/interfaces/ISignToken.sol\":3757:3785  _allowances[owner_][spender] */\n      0x00\n        /* \"Signity/interfaces/ISignToken.sol\":3777:3784  spender */\n      dup4\n        /* \"Signity/interfaces/ISignToken.sol\":3757:3785  _allowances[owner_][spender] */\n      0xffffffffffffffffffffffffffffffffffffffff\n      and\n      0xffffffffffffffffffffffffffffffffffffffff\n      and\n      dup2\n      mstore\n      0x20\n      add\n      swap1\n      dup2\n      mstore\n      0x20\n      add\n      0x00\n      keccak256\n      sload\n        /* \"Signity/interfaces/ISignToken.sol\":3750:3785  return _allowances[owner_][spender] */\n      swap1\n      pop\n        /* \"Signity/interfaces/ISignToken.sol\":3646:3793  function allowance(address owner_, address spender) external view override returns (uint256) {... */\n      swap3\n      swap2\n      pop\n      pop\n      jump\t// out\n        /* \"Signity/interfaces/ISignToken.sol\":4306:4670  function _approve(address owner_, address spender, uint256 amount) internal {... */\n    tag_78:\n        /* \"Signity/interfaces/ISignToken.sol\":4419:4420  0 */\n      0x00\n        /* \"Signity/interfaces/ISignToken.sol\":4401:4421  owner_ != address(0) */\n      0xffffffffffffffffffffffffffffffffffffffff\n      and\n        /* \"Signity/interfaces/ISignToken.sol\":4401:4407  owner_ */\n      dup4\n        /* \"Signity/interfaces/ISignToken.sol\":4401:4421  owner_ != address(0) */\n      0xffffffffffffffffffffffffffffffffffffffff\n      and\n      sub\n        /* \"Signity/interfaces/ISignToken.sol\":4393:4469  require(owner_ != address(0), \"SignityToken: approve from the zero address\") */\n      tag_141\n      jumpi\n      mload(0x40)\n      0x08c379a000000000000000000000000000000000000000000000000000000000\n      dup2\n      mstore\n      0x04\n      add\n      tag_142\n      swap1\n      tag_143\n      jump\t// in\n    tag_142:\n      mload(0x40)\n      dup1\n      swap2\n      sub\n      swap1\n      revert\n    tag_141:\n        /* \"Signity/interfaces/ISignToken.sol\":4507:4508  0 */\n      0x00\n        /* \"Signity/interfaces/ISignToken.sol\":4488:4509  spender != address(0) */\n      0xffffffffffffffffffffffffffffffffffffffff\n      and\n        /* \"Signity/interfaces/ISignToken.sol\":4488:4495  spender */\n      dup3\n        /* \"Signity/interfaces/ISignToken.sol\":4488:4509  spender != address(0) */\n      0xffffffffffffffffffffffffffffffffffffffff\n      and\n      sub\n        /* \"Signity/interfaces/ISignToken.sol\":4480:4555  require(spender != address(0), \"SignityToken: approve to the zero address\") */\n      tag_144\n      jumpi\n      mload(0x40)\n      0x08c379a000000000000000000000000000000000000000000000000000000000\n      dup2\n      mstore\n      0x04\n      add\n      tag_145\n      swap1\n      tag_146\n      jump\t// in\n    tag_145:\n      mload(0x40)\n      dup1\n      swap2\n      sub\n      swap1\n      revert\n    tag_144:\n        /* \"Signity/interfaces/ISignToken.sol\":4607:4613  amount */\n      dup1\n        /* \"Signity/interfaces/ISignToken.sol\":4576:4587  _allowances */\n      0x03\n        /* \"Signity/interfaces/ISignToken.sol\":4576:4595  _allowances[owner_] */\n      0x00\n        /* \"Signity/interfaces/ISignToken.sol\":4588:4594  owner_ */\n      dup6\n        /* \"Signity/interfaces/ISignToken.sol\":4576:4595  _allowances[owner_] */\n      0xffffffffffffffffffffffffffffffffffffffff\n      and\n      0xffffffffffffffffffffffffffffffffffffffff\n      and\n      dup2\n      mstore\n      0x20\n      add\n      swap1\n      dup2\n      mstore\n      0x20\n      add\n      0x00\n      keccak256\n        /* \"Signity/interfaces/ISignToken.sol\":4576:4604  _allowances[owner_][spender] */\n      0x00\n        /* \"Signity/interfaces/ISignToken.sol\":4596:4603  spender */\n      dup5\n        /* \"Signity/interfaces/ISignToken.sol\":4576:4604  _allowances[owner_][spender] */\n      0xffffffffffffffffffffffffffffffffffffffff\n      and\n      0xffffffffffffffffffffffffffffffffffffffff\n      and\n      dup2\n      mstore\n      0x20\n      add\n      swap1\n      dup2\n      mstore\n      0x20\n      add\n      0x00\n      keccak256\n        /* \"Signity/interfaces/ISignToken.sol\":4576:4613  _allowances[owner_][spender] = amount */\n      dup2\n      swap1\n      sstore\n      pop\n        /* \"Signity/interfaces/ISignToken.sol\":4646:4653  spender */\n      dup2\n        /* \"Signity/interfaces/ISignToken.sol\":4629:4662  Approval(owner_, spender, amount) */\n      0xffffffffffffffffffffffffffffffffffffffff\n      and\n        /* \"Signity/interfaces/ISignToken.sol\":4638:4644  owner_ */\n      dup4\n        /* \"Signity/interfaces/ISignToken.sol\":4629:4662  Approval(owner_, spender, amount) */\n      0xffffffffffffffffffffffffffffffffffffffff\n      and\n      0x8c5be1e5ebec7d5bd14f71427d1e84f3dd0314c0f7b2291e5b200ac8c7c3b925\n        /* \"Signity/interfaces/ISignToken.sol\":4655:4661  amount */\n      dup4\n        /* \"Signity/interfaces/ISignToken.sol\":4629:4662  Approval(owner_, spender, amount) */\n      mload(0x40)\n      tag_147\n      swap2\n      swap1\n      tag_33\n      jump\t// in\n    tag_147:\n      mload(0x40)\n      dup1\n      swap2\n      sub\n      swap1\n      log3\n        /* \"Signity/interfaces/ISignToken.sol\":4306:4670  function _approve(address owner_, address spender, uint256 amount) internal {... */\n      pop\n      pop\n      pop\n      jump\t// out\n        /* \"@openzeppelin/contracts/security/ReentrancyGuard.sol\":2336:2623  function _nonReentrantBefore() private {... */\n    tag_82:\n        /* \"@openzeppelin/contracts/security/ReentrancyGuard.sol\":1759:1760  2 */\n      0x02\n        /* \"@openzeppelin/contracts/security/ReentrancyGuard.sol\":2468:2475  _status */\n      sload(0x00)\n        /* \"@openzeppelin/contracts/security/ReentrancyGuard.sol\":2468:2487  _status != _ENTERED */\n      sub\n        /* \"@openzeppelin/contracts/security/ReentrancyGuard.sol\":2460:2523  require(_status != _ENTERED, \"ReentrancyGuard: reentrant call\") */\n      tag_149\n      jumpi\n      mload(0x40)\n      0x08c379a000000000000000000000000000000000000000000000000000000000\n      dup2\n      mstore\n      0x04\n      add\n      tag_150\n      swap1\n      tag_151\n      jump\t// in\n    tag_150:\n      mload(0x40)\n      dup1\n      swap2\n      sub\n      swap1\n      revert\n    tag_149:\n        /* \"@openzeppelin/contracts/security/ReentrancyGuard.sol\":1759:1760  2 */\n      0x02\n        /* \"@openzeppelin/contracts/security/ReentrancyGuard.sol\":2598:2605  _status */\n      0x00\n        /* \"@openzeppelin/contracts/security/ReentrancyGuard.sol\":2598:2616  _status = _ENTERED */\n      dup2\n      swap1\n      sstore\n      pop\n        /* \"@openzeppelin/contracts/security/ReentrancyGuard.sol\":2336:2623  function _nonReentrantBefore() private {... */\n      jump\t// out\n        /* \"Signity/interfaces/ISignToken.sol\":3832:4294  function _transfer(address from, address to, uint256 amount) internal {... */\n    tag_88:\n        /* \"Signity/interfaces/ISignToken.sol\":3937:3938  0 */\n      0x00\n        /* \"Signity/interfaces/ISignToken.sol\":3921:3939  from != address(0) */\n      0xffffffffffffffffffffffffffffffffffffffff\n      and\n        /* \"Signity/interfaces/ISignToken.sol\":3921:3925  from */\n      dup4\n        /* \"Signity/interfaces/ISignToken.sol\":3921:3939  from != address(0) */\n      0xffffffffffffffffffffffffffffffffffffffff\n      and\n      sub\n        /* \"Signity/interfaces/ISignToken.sol\":3913:3988  require(from != address(0), \"SignityToken: transfer from the zero address\") */\n      tag_153\n      jumpi\n      mload(0x40)\n      0x08c379a000000000000000000000000000000000000000000000000000000000\n      dup2\n      mstore\n      0x04\n      add\n      tag_154\n      swap1\n      tag_155\n      jump\t// in\n    tag_154:\n      mload(0x40)\n      dup1\n      swap2\n      sub\n      swap1\n      revert\n    tag_153:\n        /* \"Signity/interfaces/ISignToken.sol\":4021:4022  0 */\n      0x00\n        /* \"Signity/interfaces/ISignToken.sol\":4007:4023  to != address(0) */\n      0xffffffffffffffffffffffffffffffffffffffff\n      and\n        /* \"Signity/interfaces/ISignToken.sol\":4007:4009  to */\n      dup3\n        /* \"Signity/interfaces/ISignToken.sol\":4007:4023  to != address(0) */\n      0xffffffffffffffffffffffffffffffffffffffff\n      and\n      sub\n        /* \"Signity/interfaces/ISignToken.sol\":3999:4070  require(to != address(0), \"SignityToken: transfer to the zero address\") */\n      tag_156\n      jumpi\n      mload(0x40)\n      0x08c379a000000000000000000000000000000000000000000000000000000000\n      dup2\n      mstore\n      0x04\n      add\n      tag_157\n      swap1\n      tag_158\n      jump\t// in\n    tag_157:\n      mload(0x40)\n      dup1\n      swap2\n      sub\n      swap1\n      revert\n    tag_156:\n        /* \"Signity/interfaces/ISignToken.sol\":4108:4114  amount */\n      dup1\n        /* \"Signity/interfaces/ISignToken.sol\":4089:4098  _balances */\n      0x02\n        /* \"Signity/interfaces/ISignToken.sol\":4089:4104  _balances[from] */\n      0x00\n        /* \"Signity/interfaces/ISignToken.sol\":4099:4103  from */\n      dup6\n        /* \"Signity/interfaces/ISignToken.sol\":4089:4104  _balances[from] */\n      0xffffffffffffffffffffffffffffffffffffffff\n      and\n      0xffffffffffffffffffffffffffffffffffffffff\n      and\n      dup2\n      mstore\n      0x20\n      add\n      swap1\n      dup2\n      mstore\n      0x20\n      add\n      0x00\n      keccak256\n      sload\n        /* \"Signity/interfaces/ISignToken.sol\":4089:4114  _balances[from] >= amount */\n      lt\n      iszero\n        /* \"Signity/interfaces/ISignToken.sol\":4081:4164  require(_balances[from] >= amount, \"SignityToken: transfer amount exceeds balance\") */\n      tag_159\n      jumpi\n      mload(0x40)\n      0x08c379a000000000000000000000000000000000000000000000000000000000\n      dup2\n      mstore\n      0x04\n      add\n      tag_160\n      swap1\n      tag_161\n      jump\t// in\n    tag_160:\n      mload(0x40)\n      dup1\n      swap2\n      sub\n      swap1\n      revert\n    tag_159:\n        /* \"Signity/interfaces/ISignToken.sol\":4204:4210  amount */\n      dup1\n        /* \"Signity/interfaces/ISignToken.sol\":4185:4194  _balances */\n      0x02\n        /* \"Signity/interfaces/ISignToken.sol\":4185:4200  _balances[from] */\n      0x00\n        /* \"Signity/interfaces/ISignToken.sol\":4195:4199  from */\n      dup6\n        /* \"Signity/interfaces/ISignToken.sol\":4185:4200  _balances[from] */\n      0xffffffffffffffffffffffffffffffffffffffff\n      and\n      0xffffffffffffffffffffffffffffffffffffffff\n      and\n      dup2\n      mstore\n      0x20\n      add\n      swap1\n      dup2\n      mstore\n      0x20\n      add\n      0x00\n      keccak256\n      0x00\n        /* \"Signity/interfaces/ISignToken.sol\":4185:4210  _balances[from] -= amount */\n      dup3\n      dup3\n      sload\n      tag_162\n      swap2\n      swap1\n      tag_91\n      jump\t// in\n    tag_162:\n      swap3\n      pop\n      pop\n      dup2\n      swap1\n      sstore\n      pop\n        /* \"Signity/interfaces/ISignToken.sol\":4238:4244  amount */\n      dup1\n        /* \"Signity/interfaces/ISignToken.sol\":4221:4230  _balances */\n      0x02\n        /* \"Signity/interfaces/ISignToken.sol\":4221:4234  _balances[to] */\n      0x00\n        /* \"Signity/interfaces/ISignToken.sol\":4231:4233  to */\n      dup5\n        /* \"Signity/interfaces/ISignToken.sol\":4221:4234  _balances[to] */\n      0xffffffffffffffffffffffffffffffffffffffff\n      and\n      0xffffffffffffffffffffffffffffffffffffffff\n      and\n      dup2\n      mstore\n      0x20\n      add\n      swap1\n      dup2\n      mstore\n      0x20\n      add\n      0x00\n      keccak256\n      0x00\n        /* \"Signity/interfaces/ISignToken.sol\":4221:4244  _balances[to] += amount */\n      dup3\n      dup3\n      sload\n      tag_163\n      swap2\n      swap1\n      tag_105\n      jump\t// in\n    tag_163:\n      swap3\n      pop\n      pop\n      dup2\n      swap1\n      sstore\n      pop\n        /* \"Signity/interfaces/ISignToken.sol\":4275:4277  to */\n      dup2\n        /* \"Signity/interfaces/ISignToken.sol\":4260:4286  Transfer(from, to, amount) */\n      0xffffffffffffffffffffffffffffffffffffffff\n      and\n        /* \"Signity/interfaces/ISignToken.sol\":4269:4273  from */\n      dup4\n        /* \"Signity/interfaces/ISignToken.sol\":4260:4286  Transfer(from, to, amount) */\n      0xffffffffffffffffffffffffffffffffffffffff\n      and\n      0xddf252ad1be2c89b69c2b068fc378daa952ba7f163c4a11628f55a4df523b3ef\n        /* \"Signity/interfaces/ISignToken.sol\":4279:4285  amount */\n      dup4\n        /* \"Signity/interfaces/ISignToken.sol\":4260:4286  Transfer(from, to, amount) */\n      mload(0x40)\n      tag_164\n      swap2\n      swap1\n      tag_33\n      jump\t// in\n    tag_164:\n      mload(0x40)\n      dup1\n      swap2\n      sub\n      swap1\n      log3\n        /* \"Signity/interfaces/ISignToken.sol\":3832:4294  function _transfer(address from, address to, uint256 amount) internal {... */\n      pop\n      pop\n      pop\n      jump\t// out\n        /* \"@openzeppelin/contracts/security/ReentrancyGuard.sol\":2629:2838  function _nonReentrantAfter() private {... */\n    tag_93:\n        /* \"@openzeppelin/contracts/security/ReentrancyGuard.sol\":1716:1717  1 */\n      0x01\n        /* \"@openzeppelin/contracts/security/ReentrancyGuard.sol\":2809:2816  _status */\n      0x00\n        /* \"@openzeppelin/contracts/security/ReentrancyGuard.sol\":2809:2831  _status = _NOT_ENTERED */\n      dup2\n      swap1\n      sstore\n      pop\n        /* \"@openzeppelin/contracts/security/ReentrancyGuard.sol\":2629:2838  function _nonReentrantAfter() private {... */\n      jump\t// out\n        /* \"#utility.yul\":7:106   */\n    tag_166:\n        /* \"#utility.yul\":59:65   */\n      0x00\n        /* \"#utility.yul\":93:98   */\n      dup2\n        /* \"#utility.yul\":87:99   */\n      mload\n        /* \"#utility.yul\":77:99   */\n      swap1\n      pop\n        /* \"#utility.yul\":7:106   */\n      swap2\n      swap1\n      pop\n      jump\t// out\n        /* \"#utility.yul\":112:281   */\n    tag_167:\n        /* \"#utility.yul\":196:207   */\n      0x00\n        /* \"#utility.yul\":230:236   */\n      dup3\n        /* \"#utility.yul\":225:228   */\n      dup3\n        /* \"#utility.yul\":218:237   */\n      mstore\n        /* \"#utility.yul\":270:274   */\n      0x20\n        /* \"#utility.yul\":265:268   */\n      dup3\n        /* \"#utility.yul\":261:275   */\n      add\n        /* \"#utility.yul\":246:275   */\n      swap1\n      pop\n        /* \"#utility.yul\":112:281   */\n      swap3\n      swap2\n      pop\n      pop\n      jump\t// out\n        /* \"#utility.yul\":287:426   */\n    tag_168:\n        /* \"#utility.yul\":376:382   */\n      dup3\n        /* \"#utility.yul\":371:374   */\n      dup2\n        /* \"#utility.yul\":366:369   */\n      dup4\n        /* \"#utility.yul\":360:383   */\n      mcopy\n        /* \"#utility.yul\":417:418   */\n      0x00\n        /* \"#utility.yul\":408:414   */\n      dup4\n        /* \"#utility.yul\":403:406   */\n      dup4\n        /* \"#utility.yul\":399:415   */\n      add\n        /* \"#utility.yul\":392:419   */\n      mstore\n        /* \"#utility.yul\":287:426   */\n      pop\n      pop\n      pop\n      jump\t// out\n        /* \"#utility.yul\":432:534   */\n    tag_169:\n        /* \"#utility.yul\":473:479   */\n      0x00\n        /* \"#utility.yul\":524:526   */\n      0x1f\n        /* \"#utility.yul\":520:527   */\n      not\n        /* \"#utility.yul\":515:517   */\n      0x1f\n        /* \"#utility.yul\":508:513   */\n      dup4\n        /* \"#utility.yul\":504:518   */\n      add\n        /* \"#utility.yul\":500:528   */\n      and\n        /* \"#utility.yul\":490:528   */\n      swap1\n      pop\n        /* \"#utility.yul\":432:534   */\n      swap2\n      swap1\n      pop\n      jump\t// out\n        /* \"#utility.yul\":540:917   */\n    tag_170:\n        /* \"#utility.yul\":628:631   */\n      0x00\n        /* \"#utility.yul\":656:695   */\n      tag_220\n        /* \"#utility.yul\":689:694   */\n      dup3\n        /* \"#utility.yul\":656:695   */\n      tag_166\n      jump\t// in\n    tag_220:\n        /* \"#utility.yul\":711:782   */\n      tag_221\n        /* \"#utility.yul\":775:781   */\n      dup2\n        /* \"#utility.yul\":770:773   */\n      dup6\n        /* \"#utility.yul\":711:782   */\n      tag_167\n      jump\t// in\n    tag_221:\n        /* \"#utility.yul\":704:782   */\n      swap4\n      pop\n        /* \"#utility.yul\":791:856   */\n      tag_222\n        /* \"#utility.yul\":849:855   */\n      dup2\n        /* \"#utility.yul\":844:847   */\n      dup6\n        /* \"#utility.yul\":837:841   */\n      0x20\n        /* \"#utility.yul\":830:835   */\n      dup7\n        /* \"#utility.yul\":826:842   */\n      add\n        /* \"#utility.yul\":791:856   */\n      tag_168\n      jump\t// in\n    tag_222:\n        /* \"#utility.yul\":881:910   */\n      tag_223\n        /* \"#utility.yul\":903:909   */\n      dup2\n        /* \"#utility.yul\":881:910   */\n      tag_169\n      jump\t// in\n    tag_223:\n        /* \"#utility.yul\":876:879   */\n      dup5\n        /* \"#utility.yul\":872:911   */\n      add\n        /* \"#utility.yul\":865:911   */\n      swap2\n      pop\n        /* \"#utility.yul\":632:917   */\n      pop\n        /* \"#utility.yul\":540:917   */\n      swap3\n      swap2\n      pop\n      pop\n      jump\t// out\n        /* \"#utility.yul\":923:1236   */\n    tag_23:\n        /* \"#utility.yul\":1036:1040   */\n      0x00\n        /* \"#utility.yul\":1074:1076   */\n      0x20\n        /* \"#utility.yul\":1063:1072   */\n      dup3\n        /* \"#utility.yul\":1059:1077   */\n      add\n        /* \"#utility.yul\":1051:1077   */\n      swap1\n      pop\n        /* \"#utility.yul\":1123:1132   */\n      dup2\n        /* \"#utility.yul\":1117:1121   */\n      dup2\n        /* \"#utility.yul\":1113:1133   */\n      sub\n        /* \"#utility.yul\":1109:1110   */\n      0x00\n        /* \"#utility.yul\":1098:1107   */\n      dup4\n        /* \"#utility.yul\":1094:1111   */\n      add\n        /* \"#utility.yul\":1087:1134   */\n      mstore\n        /* \"#utility.yul\":1151:1229   */\n      tag_225\n        /* \"#utility.yul\":1224:1228   */\n      dup2\n        /* \"#utility.yul\":1215:1221   */\n      dup5\n        /* \"#utility.yul\":1151:1229   */\n      tag_170\n      jump\t// in\n    tag_225:\n        /* \"#utility.yul\":1143:1229   */\n      swap1\n      pop\n        /* \"#utility.yul\":923:1236   */\n      swap3\n      swap2\n      pop\n      pop\n      jump\t// out\n        /* \"#utility.yul\":1323:1440   */\n    tag_172:\n        /* \"#utility.yul\":1432:1433   */\n      0x00\n        /* \"#utility.yul\":1429:1430   */\n      dup1\n        /* \"#utility.yul\":1422:1434   */\n      revert\n        /* \"#utility.yul\":1569:1695   */\n    tag_174:\n        /* \"#utility.yul\":1606:1613   */\n      0x00\n        /* \"#utility.yul\":1646:1688   */\n      0xffffffffffffffffffffffffffffffffffffffff\n        /* \"#utility.yul\":1639:1644   */\n      dup3\n        /* \"#utility.yul\":1635:1689   */\n      and\n        /* \"#utility.yul\":1624:1689   */\n      swap1\n      pop\n        /* \"#utility.yul\":1569:1695   */\n      swap2\n      swap1\n      pop\n      jump\t// out\n        /* \"#utility.yul\":1701:1797   */\n    tag_175:\n        /* \"#utility.yul\":1738:1745   */\n      0x00\n        /* \"#utility.yul\":1767:1791   */\n      tag_231\n        /* \"#utility.yul\":1785:1790   */\n      dup3\n        /* \"#utility.yul\":1767:1791   */\n      tag_174\n      jump\t// in\n    tag_231:\n        /* \"#utility.yul\":1756:1791   */\n      swap1\n      pop\n        /* \"#utility.yul\":1701:1797   */\n      swap2\n      swap1\n      pop\n      jump\t// out\n        /* \"#utility.yul\":1803:1925   */\n    tag_176:\n        /* \"#utility.yul\":1876:1900   */\n      tag_233\n        /* \"#utility.yul\":1894:1899   */\n      dup2\n        /* \"#utility.yul\":1876:1900   */\n      tag_175\n      jump\t// in\n    tag_233:\n        /* \"#utility.yul\":1869:1874   */\n      dup2\n        /* \"#utility.yul\":1866:1901   */\n      eq\n        /* \"#utility.yul\":1856:1919   */\n      tag_234\n      jumpi\n        /* \"#utility.yul\":1915:1916   */\n      0x00\n        /* \"#utility.yul\":1912:1913   */\n      dup1\n        /* \"#utility.yul\":1905:1917   */\n      revert\n        /* \"#utility.yul\":1856:1919   */\n    tag_234:\n        /* \"#utility.yul\":1803:1925   */\n      pop\n      jump\t// out\n        /* \"#utility.yul\":1931:2070   */\n    tag_177:\n        /* \"#utility.yul\":1977:1982   */\n      0x00\n        /* \"#utility.yul\":2015:2021   */\n      dup2\n        /* \"#utility.yul\":2002:2022   */\n      calldataload\n        /* \"#utility.yul\":1993:2022   */\n      swap1\n      pop\n        /* \"#utility.yul\":2031:2064   */\n      tag_236\n        /* \"#utility.yul\":2058:2063   */\n      dup2\n        /* \"#utility.yul\":2031:2064   */\n      tag_176\n      jump\t// in\n    tag_236:\n        /* \"#utility.yul\":1931:2070   */\n      swap3\n      swap2\n      pop\n      pop\n      jump\t// out\n        /* \"#utility.yul\":2076:2153   */\n    tag_178:\n        /* \"#utility.yul\":2113:2120   */\n      0x00\n        /* \"#utility.yul\":2142:2147   */\n      dup2\n        /* \"#utility.yul\":2131:2147   */\n      swap1\n      pop\n        /* \"#utility.yul\":2076:2153   */\n      swap2\n      swap1\n      pop\n      jump\t// out\n        /* \"#utility.yul\":2159:2281   */\n    tag_179:\n        /* \"#utility.yul\":2232:2256   */\n      tag_239\n        /* \"#utility.yul\":2250:2255   */\n      dup2\n        /* \"#utility.yul\":2232:2256   */\n      tag_178\n      jump\t// in\n    tag_239:\n        /* \"#utility.yul\":2225:2230   */\n      dup2\n        /* \"#utility.yul\":2222:2257   */\n      eq\n        /* \"#utility.yul\":2212:2275   */\n      tag_240\n      jumpi\n        /* \"#utility.yul\":2271:2272   */\n      0x00\n        /* \"#utility.yul\":2268:2269   */\n      dup1\n        /* \"#utility.yul\":2261:2273   */\n      revert\n        /* \"#utility.yul\":2212:2275   */\n    tag_240:\n        /* \"#utility.yul\":2159:2281   */\n      pop\n      jump\t// out\n        /* \"#utility.yul\":2287:2426   */\n    tag_180:\n        /* \"#utility.yul\":2333:2338   */\n      0x00\n        /* \"#utility.yul\":2371:2377   */\n      dup2\n        /* \"#utility.yul\":2358:2378   */\n      calldataload\n        /* \"#utility.yul\":2349:2378   */\n      swap1\n      pop\n        /* \"#utility.yul\":2387:2420   */\n      tag_242\n        /* \"#utility.yul\":2414:2419   */\n      dup2\n        /* \"#utility.yul\":2387:2420   */\n      tag_179\n      jump\t// in\n    tag_242:\n        /* \"#utility.yul\":2287:2426   */\n      swap3\n      swap2\n      pop\n      pop\n      jump\t// out\n        /* \"#utility.yul\":2432:2906   */\n    tag_26:\n        /* \"#utility.yul\":2500:2506   */\n      0x00\n        /* \"#utility.yul\":2508:2514   */\n      dup1\n        /* \"#utility.yul\":2557:2559   */\n      0x40\n        /* \"#utility.yul\":2545:2554   */\n      dup4\n        /* \"#utility.yul\":2536:2543   */\n      dup6\n        /* \"#utility.yul\":2532:2555   */\n      sub\n        /* \"#utility.yul\":2528:2560   */\n      slt\n        /* \"#utility.yul\":2525:2644   */\n      iszero\n      tag_244\n      jumpi\n        /* \"#utility.yul\":2563:2642   */\n      tag_245\n      tag_172\n      jump\t// in\n    tag_245:\n        /* \"#utility.yul\":2525:2644   */\n    tag_244:\n        /* \"#utility.yul\":2683:2684   */\n      0x00\n        /* \"#utility.yul\":2708:2761   */\n      tag_246\n        /* \"#utility.yul\":2753:2760   */\n      dup6\n        /* \"#utility.yul\":2744:2750   */\n      dup3\n        /* \"#utility.yul\":2733:2742   */\n      dup7\n        /* \"#utility.yul\":2729:2751   */\n      add\n        /* \"#utility.yul\":2708:2761   */\n      tag_177\n      jump\t// in\n    tag_246:\n        /* \"#utility.yul\":2698:2761   */\n      swap3\n      pop\n        /* \"#utility.yul\":2654:2771   */\n      pop\n        /* \"#utility.yul\":2810:2812   */\n      0x20\n        /* \"#utility.yul\":2836:2889   */\n      tag_247\n        /* \"#utility.yul\":2881:2888   */\n      dup6\n        /* \"#utility.yul\":2872:2878   */\n      dup3\n        /* \"#utility.yul\":2861:2870   */\n      dup7\n        /* \"#utility.yul\":2857:2879   */\n      add\n        /* \"#utility.yul\":2836:2889   */\n      tag_180\n      jump\t// in\n    tag_247:\n        /* \"#utility.yul\":2826:2889   */\n      swap2\n      pop\n        /* \"#utility.yul\":2781:2899   */\n      pop\n        /* \"#utility.yul\":2432:2906   */\n      swap3\n      pop\n      swap3\n      swap1\n      pop\n      jump\t// out\n        /* \"#utility.yul\":2912:3002   */\n    tag_181:\n        /* \"#utility.yul\":2946:2953   */\n      0x00\n        /* \"#utility.yul\":2989:2994   */\n      dup2\n        /* \"#utility.yul\":2982:2995   */\n      iszero\n        /* \"#utility.yul\":2975:2996   */\n      iszero\n        /* \"#utility.yul\":2964:2996   */\n      swap1\n      pop\n        /* \"#utility.yul\":2912:3002   */\n      swap2\n      swap1\n      pop\n      jump\t// out\n        /* \"#utility.yul\":3008:3117   */\n    tag_182:\n        /* \"#utility.yul\":3089:3110   */\n      tag_250\n        /* \"#utility.yul\":3104:3109   */\n      dup2\n        /* \"#utility.yul\":3089:3110   */\n      tag_181\n      jump\t// in\n    tag_250:\n        /* \"#utility.yul\":3084:3087   */\n      dup3\n        /* \"#utility.yul\":3077:3111   */\n      mstore\n        /* \"#utility.yul\":3008:3117   */\n      pop\n      pop\n      jump\t// out\n        /* \"#utility.yul\":3123:3333   */\n    tag_29:\n        /* \"#utility.yul\":3210:3214   */\n      0x00\n        /* \"#utility.yul\":3248:3250   */\n      0x20\n        /* \"#utility.yul\":3237:3246   */\n      dup3\n        /* \"#utility.yul\":3233:3251   */\n      add\n        /* \"#utility.yul\":3225:3251   */\n      swap1\n      pop\n        /* \"#utility.yul\":3261:3326   */\n      tag_252\n        /* \"#utility.yul\":3323:3324   */\n      0x00\n        /* \"#utility.yul\":3312:3321   */\n      dup4\n        /* \"#utility.yul\":3308:3325   */\n      add\n        /* \"#utility.yul\":3299:3305   */\n      dup5\n        /* \"#utility.yul\":3261:3326   */\n      tag_182\n      jump\t// in\n    tag_252:\n        /* \"#utility.yul\":3123:3333   */\n      swap3\n      swap2\n      pop\n      pop\n      jump\t// out\n        /* \"#utility.yul\":3339:3457   */\n    tag_183:\n        /* \"#utility.yul\":3426:3450   */\n      tag_254\n        /* \"#utility.yul\":3444:3449   */\n      dup2\n        /* \"#utility.yul\":3426:3450   */\n      tag_178\n      jump\t// in\n    tag_254:\n        /* \"#utility.yul\":3421:3424   */\n      dup3\n        /* \"#utility.yul\":3414:3451   */\n      mstore\n        /* \"#utility.yul\":3339:3457   */\n      pop\n      pop\n      jump\t// out\n        /* \"#utility.yul\":3463:3685   */\n    tag_33:\n        /* \"#utility.yul\":3556:3560   */\n      0x00\n        /* \"#utility.yul\":3594:3596   */\n      0x20\n        /* \"#utility.yul\":3583:3592   */\n      dup3\n        /* \"#utility.yul\":3579:3597   */\n      add\n        /* \"#utility.yul\":3571:3597   */\n      swap1\n      pop\n        /* \"#utility.yul\":3607:3678   */\n      tag_256\n        /* \"#utility.yul\":3675:3676   */\n      0x00\n        /* \"#utility.yul\":3664:3673   */\n      dup4\n        /* \"#utility.yul\":3660:3677   */\n      add\n        /* \"#utility.yul\":3651:3657   */\n      dup5\n        /* \"#utility.yul\":3607:3678   */\n      tag_183\n      jump\t// in\n    tag_256:\n        /* \"#utility.yul\":3463:3685   */\n      swap3\n      swap2\n      pop\n      pop\n      jump\t// out\n        /* \"#utility.yul\":3691:4310   */\n    tag_36:\n        /* \"#utility.yul\":3768:3774   */\n      0x00\n        /* \"#utility.yul\":3776:3782   */\n      dup1\n        /* \"#utility.yul\":3784:3790   */\n      0x00\n        /* \"#utility.yul\":3833:3835   */\n      0x60\n        /* \"#utility.yul\":3821:3830   */\n      dup5\n        /* \"#utility.yul\":3812:3819   */\n      dup7\n        /* \"#utility.yul\":3808:3831   */\n      sub\n        /* \"#utility.yul\":3804:3836   */\n      slt\n        /* \"#utility.yul\":3801:3920   */\n      iszero\n      tag_258\n      jumpi\n        /* \"#utility.yul\":3839:3918   */\n      tag_259\n      tag_172\n      jump\t// in\n    tag_259:\n        /* \"#utility.yul\":3801:3920   */\n    tag_258:\n        /* \"#utility.yul\":3959:3960   */\n      0x00\n        /* \"#utility.yul\":3984:4037   */\n      tag_260\n        /* \"#utility.yul\":4029:4036   */\n      dup7\n        /* \"#utility.yul\":4020:4026   */\n      dup3\n        /* \"#utility.yul\":4009:4018   */\n      dup8\n        /* \"#utility.yul\":4005:4027   */\n      add\n        /* \"#utility.yul\":3984:4037   */\n      tag_177\n      jump\t// in\n    tag_260:\n        /* \"#utility.yul\":3974:4037   */\n      swap4\n      pop\n        /* \"#utility.yul\":3930:4047   */\n      pop\n        /* \"#utility.yul\":4086:4088   */\n      0x20\n        /* \"#utility.yul\":4112:4165   */\n      tag_261\n        /* \"#utility.yul\":4157:4164   */\n      dup7\n        /* \"#utility.yul\":4148:4154   */\n      dup3\n        /* \"#utility.yul\":4137:4146   */\n      dup8\n        /* \"#utility.yul\":4133:4155   */\n      add\n        /* \"#utility.yul\":4112:4165   */\n      tag_177\n      jump\t// in\n    tag_261:\n        /* \"#utility.yul\":4102:4165   */\n      swap3\n      pop\n        /* \"#utility.yul\":4057:4175   */\n      pop\n        /* \"#utility.yul\":4214:4216   */\n      0x40\n        /* \"#utility.yul\":4240:4293   */\n      tag_262\n        /* \"#utility.yul\":4285:4292   */\n      dup7\n        /* \"#utility.yul\":4276:4282   */\n      dup3\n        /* \"#utility.yul\":4265:4274   */\n      dup8\n        /* \"#utility.yul\":4261:4283   */\n      add\n        /* \"#utility.yul\":4240:4293   */\n      tag_180\n      jump\t// in\n    tag_262:\n        /* \"#utility.yul\":4230:4293   */\n      swap2\n      pop\n        /* \"#utility.yul\":4185:4303   */\n      pop\n        /* \"#utility.yul\":3691:4310   */\n      swap3\n      pop\n      swap3\n      pop\n      swap3\n      jump\t// out\n        /* \"#utility.yul\":4316:4402   */\n    tag_184:\n        /* \"#utility.yul\":4351:4358   */\n      0x00\n        /* \"#utility.yul\":4391:4395   */\n      0xff\n        /* \"#utility.yul\":4384:4389   */\n      dup3\n        /* \"#utility.yul\":4380:4396   */\n      and\n        /* \"#utility.yul\":4369:4396   */\n      swap1\n      pop\n        /* \"#utility.yul\":4316:4402   */\n      swap2\n      swap1\n      pop\n      jump\t// out\n        /* \"#utility.yul\":4408:4520   */\n    tag_185:\n        /* \"#utility.yul\":4491:4513   */\n      tag_265\n        /* \"#utility.yul\":4507:4512   */\n      dup2\n        /* \"#utility.yul\":4491:4513   */\n      tag_184\n      jump\t// in\n    tag_265:\n        /* \"#utility.yul\":4486:4489   */\n      dup3\n        /* \"#utility.yul\":4479:4514   */\n      mstore\n        /* \"#utility.yul\":4408:4520   */\n      pop\n      pop\n      jump\t// out\n        /* \"#utility.yul\":4526:4740   */\n    tag_42:\n        /* \"#utility.yul\":4615:4619   */\n      0x00\n        /* \"#utility.yul\":4653:4655   */\n      0x20\n        /* \"#utility.yul\":4642:4651   */\n      dup3\n        /* \"#utility.yul\":4638:4656   */\n      add\n        /* \"#utility.yul\":4630:4656   */\n      swap1\n      pop\n        /* \"#utility.yul\":4666:4733   */\n      tag_267\n        /* \"#utility.yul\":4730:4731   */\n      0x00\n        /* \"#utility.yul\":4719:4728   */\n      dup4\n        /* \"#utility.yul\":4715:4732   */\n      add\n        /* \"#utility.yul\":4706:4712   */\n      dup5\n        /* \"#utility.yul\":4666:4733   */\n      tag_185\n      jump\t// in\n    tag_267:\n        /* \"#utility.yul\":4526:4740   */\n      swap3\n      swap2\n      pop\n      pop\n      jump\t// out\n        /* \"#utility.yul\":4746:5075   */\n    tag_48:\n        /* \"#utility.yul\":4805:4811   */\n      0x00\n        /* \"#utility.yul\":4854:4856   */\n      0x20\n        /* \"#utility.yul\":4842:4851   */\n      dup3\n        /* \"#utility.yul\":4833:4840   */\n      dup5\n        /* \"#utility.yul\":4829:4852   */\n      sub\n        /* \"#utility.yul\":4825:4857   */\n      slt\n        /* \"#utility.yul\":4822:4941   */\n      iszero\n      tag_269\n      jumpi\n        /* \"#utility.yul\":4860:4939   */\n      tag_270\n      tag_172\n      jump\t// in\n    tag_270:\n        /* \"#utility.yul\":4822:4941   */\n    tag_269:\n        /* \"#utility.yul\":4980:4981   */\n      0x00\n        /* \"#utility.yul\":5005:5058   */\n      tag_271\n        /* \"#utility.yul\":5050:5057   */\n      dup5\n        /* \"#utility.yul\":5041:5047   */\n      dup3\n        /* \"#utility.yul\":5030:5039   */\n      dup6\n        /* \"#utility.yul\":5026:5048   */\n      add\n        /* \"#utility.yul\":5005:5058   */\n      tag_177\n      jump\t// in\n    tag_271:\n        /* \"#utility.yul\":4995:5058   */\n      swap2\n      pop\n        /* \"#utility.yul\":4951:5068   */\n      pop\n        /* \"#utility.yul\":4746:5075   */\n      swap3\n      swap2\n      pop\n      pop\n      jump\t// out\n        /* \"#utility.yul\":5081:5199   */\n    tag_186:\n        /* \"#utility.yul\":5168:5192   */\n      tag_273\n        /* \"#utility.yul\":5186:5191   */\n      dup2\n        /* \"#utility.yul\":5168:5192   */\n      tag_175\n      jump\t// in\n    tag_273:\n        /* \"#utility.yul\":5163:5166   */\n      dup3\n        /* \"#utility.yul\":5156:5193   */\n      mstore\n        /* \"#utility.yul\":5081:5199   */\n      pop\n      pop\n      jump\t// out\n        /* \"#utility.yul\":5205:5427   */\n    tag_54:\n        /* \"#utility.yul\":5298:5302   */\n      0x00\n        /* \"#utility.yul\":5336:5338   */\n      0x20\n        /* \"#utility.yul\":5325:5334   */\n      dup3\n        /* \"#utility.yul\":5321:5339   */\n      add\n        /* \"#utility.yul\":5313:5339   */\n      swap1\n      pop\n        /* \"#utility.yul\":5349:5420   */\n      tag_275\n        /* \"#utility.yul\":5417:5418   */\n      0x00\n        /* \"#utility.yul\":5406:5415   */\n      dup4\n        /* \"#utility.yul\":5402:5419   */\n      add\n        /* \"#utility.yul\":5393:5399   */\n      dup5\n        /* \"#utility.yul\":5349:5420   */\n      tag_186\n      jump\t// in\n    tag_275:\n        /* \"#utility.yul\":5205:5427   */\n      swap3\n      swap2\n      pop\n      pop\n      jump\t// out\n        /* \"#utility.yul\":5433:5907   */\n    tag_73:\n        /* \"#utility.yul\":5501:5507   */\n      0x00\n        /* \"#utility.yul\":5509:5515   */\n      dup1\n        /* \"#utility.yul\":5558:5560   */\n      0x40\n        /* \"#utility.yul\":5546:5555   */\n      dup4\n        /* \"#utility.yul\":5537:5544   */\n      dup6\n        /* \"#utility.yul\":5533:5556   */\n      sub\n        /* \"#utility.yul\":5529:5561   */\n      slt\n        /* \"#utility.yul\":5526:5645   */\n      iszero\n      tag_277\n      jumpi\n        /* \"#utility.yul\":5564:5643   */\n      tag_278\n      tag_172\n      jump\t// in\n    tag_278:\n        /* \"#utility.yul\":5526:5645   */\n    tag_277:\n        /* \"#utility.yul\":5684:5685   */\n      0x00\n        /* \"#utility.yul\":5709:5762   */\n      tag_279\n        /* \"#utility.yul\":5754:5761   */\n      dup6\n        /* \"#utility.yul\":5745:5751   */\n      dup3\n        /* \"#utility.yul\":5734:5743   */\n      dup7\n        /* \"#utility.yul\":5730:5752   */\n      add\n        /* \"#utility.yul\":5709:5762   */\n      tag_177\n      jump\t// in\n    tag_279:\n        /* \"#utility.yul\":5699:5762   */\n      swap3\n      pop\n        /* \"#utility.yul\":5655:5772   */\n      pop\n        /* \"#utility.yul\":5811:5813   */\n      0x20\n        /* \"#utility.yul\":5837:5890   */\n      tag_280\n        /* \"#utility.yul\":5882:5889   */\n      dup6\n        /* \"#utility.yul\":5873:5879   */\n      dup3\n        /* \"#utility.yul\":5862:5871   */\n      dup7\n        /* \"#utility.yul\":5858:5880   */\n      add\n        /* \"#utility.yul\":5837:5890   */\n      tag_177\n      jump\t// in\n    tag_280:\n        /* \"#utility.yul\":5827:5890   */\n      swap2\n      pop\n        /* \"#utility.yul\":5782:5900   */\n      pop\n        /* \"#utility.yul\":5433:5907   */\n      swap3\n      pop\n      swap3\n      swap1\n      pop\n      jump\t// out\n        /* \"#utility.yul\":5913:6136   */\n    tag_187:\n        /* \"#utility.yul\":6053:6087   */\n      0x5369676e697479546f6b656e3a20696e73756666696369656e7420616c6c6f77\n        /* \"#utility.yul\":6049:6050   */\n      0x00\n        /* \"#utility.yul\":6041:6047   */\n      dup3\n        /* \"#utility.yul\":6037:6051   */\n      add\n        /* \"#utility.yul\":6030:6088   */\n      mstore\n        /* \"#utility.yul\":6122:6128   */\n      0x616e636500000000000000000000000000000000000000000000000000000000\n        /* \"#utility.yul\":6117:6119   */\n      0x20\n        /* \"#utility.yul\":6109:6115   */\n      dup3\n        /* \"#utility.yul\":6105:6120   */\n      add\n        /* \"#utility.yul\":6098:6129   */\n      mstore\n        /* \"#utility.yul\":5913:6136   */\n      pop\n      jump\t// out\n        /* \"#utility.yul\":6142:6508   */\n    tag_188:\n        /* \"#utility.yul\":6284:6287   */\n      0x00\n        /* \"#utility.yul\":6305:6372   */\n      tag_283\n        /* \"#utility.yul\":6369:6371   */\n      0x24\n        /* \"#utility.yul\":6364:6367   */\n      dup4\n        /* \"#utility.yul\":6305:6372   */\n      tag_167\n      jump\t// in\n    tag_283:\n        /* \"#utility.yul\":6298:6372   */\n      swap2\n      pop\n        /* \"#utility.yul\":6381:6474   */\n      tag_284\n        /* \"#utility.yul\":6470:6473   */\n      dup3\n        /* \"#utility.yul\":6381:6474   */\n      tag_187\n      jump\t// in\n    tag_284:\n        /* \"#utility.yul\":6499:6501   */\n      0x40\n        /* \"#utility.yul\":6494:6497   */\n      dup3\n        /* \"#utility.yul\":6490:6502   */\n      add\n        /* \"#utility.yul\":6483:6502   */\n      swap1\n      pop\n        /* \"#utility.yul\":6142:6508   */\n      swap2\n      swap1\n      pop\n      jump\t// out\n        /* \"#utility.yul\":6514:6933   */\n    tag_86:\n        /* \"#utility.yul\":6680:6684   */\n      0x00\n        /* \"#utility.yul\":6718:6720   */\n      0x20\n        /* \"#utility.yul\":6707:6716   */\n      dup3\n        /* \"#utility.yul\":6703:6721   */\n      add\n        /* \"#utility.yul\":6695:6721   */\n      swap1\n      pop\n        /* \"#utility.yul\":6767:6776   */\n      dup2\n        /* \"#utility.yul\":6761:6765   */\n      dup2\n        /* \"#utility.yul\":6757:6777   */\n      sub\n        /* \"#utility.yul\":6753:6754   */\n      0x00\n        /* \"#utility.yul\":6742:6751   */\n      dup4\n        /* \"#utility.yul\":6738:6755   */\n      add\n        /* \"#utility.yul\":6731:6778   */\n      mstore\n        /* \"#utility.yul\":6795:6926   */\n      tag_286\n        /* \"#utility.yul\":6921:6925   */\n      dup2\n        /* \"#utility.yul\":6795:6926   */\n      tag_188\n      jump\t// in\n    tag_286:\n        /* \"#utility.yul\":6787:6926   */\n      swap1\n      pop\n        /* \"#utility.yul\":6514:6933   */\n      swap2\n      swap1\n      pop\n      jump\t// out\n        /* \"#utility.yul\":6939:7119   */\n    tag_189:\n        /* \"#utility.yul\":6987:7064   */\n      0x4e487b7100000000000000000000000000000000000000000000000000000000\n        /* \"#utility.yul\":6984:6985   */\n      0x00\n        /* \"#utility.yul\":6977:7065   */\n      mstore\n        /* \"#utility.yul\":7084:7088   */\n      0x11\n        /* \"#utility.yul\":7081:7082   */\n      0x04\n        /* \"#utility.yul\":7074:7089   */\n      mstore\n        /* \"#utility.yul\":7108:7112   */\n      0x24\n        /* \"#utility.yul\":7105:7106   */\n      0x00\n        /* \"#utility.yul\":7098:7113   */\n      revert\n        /* \"#utility.yul\":7125:7319   */\n    tag_91:\n        /* \"#utility.yul\":7165:7169   */\n      0x00\n        /* \"#utility.yul\":7185:7205   */\n      tag_289\n        /* \"#utility.yul\":7203:7204   */\n      dup3\n        /* \"#utility.yul\":7185:7205   */\n      tag_178\n      jump\t// in\n    tag_289:\n        /* \"#utility.yul\":7180:7205   */\n      swap2\n      pop\n        /* \"#utility.yul\":7219:7239   */\n      tag_290\n        /* \"#utility.yul\":7237:7238   */\n      dup4\n        /* \"#utility.yul\":7219:7239   */\n      tag_178\n      jump\t// in\n    tag_290:\n        /* \"#utility.yul\":7214:7239   */\n      swap3\n      pop\n        /* \"#utility.yul\":7263:7264   */\n      dup3\n        /* \"#utility.yul\":7260:7261   */\n      dup3\n        /* \"#utility.yul\":7256:7265   */\n      sub\n        /* \"#utility.yul\":7248:7265   */\n      swap1\n      pop\n        /* \"#utility.yul\":7287:7288   */\n      dup2\n        /* \"#utility.yul\":7281:7285   */\n      dup2\n        /* \"#utility.yul\":7278:7289   */\n      gt\n        /* \"#utility.yul\":7275:7312   */\n      iszero\n      tag_291\n      jumpi\n        /* \"#utility.yul\":7292:7310   */\n      tag_292\n      tag_189\n      jump\t// in\n    tag_292:\n        /* \"#utility.yul\":7275:7312   */\n    tag_291:\n        /* \"#utility.yul\":7125:7319   */\n      swap3\n      swap2\n      pop\n      pop\n      jump\t// out\n        /* \"#utility.yul\":7325:7550   */\n    tag_190:\n        /* \"#utility.yul\":7465:7499   */\n      0x5369676e697479546f6b656e3a2063616c6c6572206973206e6f74205369676e\n        /* \"#utility.yul\":7461:7462   */\n      0x00\n        /* \"#utility.yul\":7453:7459   */\n      dup3\n        /* \"#utility.yul\":7449:7463   */\n      add\n        /* \"#utility.yul\":7442:7500   */\n      mstore\n        /* \"#utility.yul\":7534:7542   */\n      0x6974794e46540000000000000000000000000000000000000000000000000000\n        /* \"#utility.yul\":7529:7531   */\n      0x20\n        /* \"#utility.yul\":7521:7527   */\n      dup3\n        /* \"#utility.yul\":7517:7532   */\n      add\n        /* \"#utility.yul\":7510:7543   */\n      mstore\n        /* \"#utility.yul\":7325:7550   */\n      pop\n      jump\t// out\n        /* \"#utility.yul\":7556:7922   */\n    tag_191:\n        /* \"#utility.yul\":7698:7701   */\n      0x00\n        /* \"#utility.yul\":7719:7786   */\n      tag_295\n        /* \"#utility.yul\":7783:7785   */\n      0x26\n        /* \"#utility.yul\":7778:7781   */\n      dup4\n        /* \"#utility.yul\":7719:7786   */\n      tag_167\n      jump\t// in\n    tag_295:\n        /* \"#utility.yul\":7712:7786   */\n      swap2\n      pop\n        /* \"#utility.yul\":7795:7888   */\n      tag_296\n        /* \"#utility.yul\":7884:7887   */\n      dup3\n        /* \"#utility.yul\":7795:7888   */\n      tag_190\n      jump\t// in\n    tag_296:\n        /* \"#utility.yul\":7913:7915   */\n      0x40\n        /* \"#utility.yul\":7908:7911   */\n      dup3\n        /* \"#utility.yul\":7904:7916   */\n      add\n        /* \"#utility.yul\":7897:7916   */\n      swap1\n      pop\n        /* \"#utility.yul\":7556:7922   */\n      swap2\n      swap1\n      pop\n      jump\t// out\n        /* \"#utility.yul\":7928:8347   */\n    tag_97:\n        /* \"#utility.yul\":8094:8098   */\n      0x00\n        /* \"#utility.yul\":8132:8134   */\n      0x20\n        /* \"#utility.yul\":8121:8130   */\n      dup3\n        /* \"#utility.yul\":8117:8135   */\n      add\n        /* \"#utility.yul\":8109:8135   */\n      swap1\n      pop\n        /* \"#utility.yul\":8181:8190   */\n      dup2\n        /* \"#utility.yul\":8175:8179   */\n      dup2\n        /* \"#utility.yul\":8171:8191   */\n      sub\n        /* \"#utility.yul\":8167:8168   */\n      0x00\n        /* \"#utility.yul\":8156:8165   */\n      dup4\n        /* \"#utility.yul\":8152:8169   */\n      add\n        /* \"#utility.yul\":8145:8192   */\n      mstore\n        /* \"#utility.yul\":8209:8340   */\n      tag_298\n        /* \"#utility.yul\":8335:8339   */\n      dup2\n        /* \"#utility.yul\":8209:8340   */\n      tag_191\n      jump\t// in\n    tag_298:\n        /* \"#utility.yul\":8201:8340   */\n      swap1\n      pop\n        /* \"#utility.yul\":7928:8347   */\n      swap2\n      swap1\n      pop\n      jump\t// out\n        /* \"#utility.yul\":8353:8578   */\n    tag_192:\n        /* \"#utility.yul\":8493:8527   */\n      0x5369676e697479546f6b656e3a206d696e7420746f20746865207a65726f2061\n        /* \"#utility.yul\":8489:8490   */\n      0x00\n        /* \"#utility.yul\":8481:8487   */\n      dup3\n        /* \"#utility.yul\":8477:8491   */\n      add\n        /* \"#utility.yul\":8470:8528   */\n      mstore\n        /* \"#utility.yul\":8562:8570   */\n      0x6464726573730000000000000000000000000000000000000000000000000000\n        /* \"#utility.yul\":8557:8559   */\n      0x20\n        /* \"#utility.yul\":8549:8555   */\n      dup3\n        /* \"#utility.yul\":8545:8560   */\n      add\n        /* \"#utility.yul\":8538:8571   */\n      mstore\n        /* \"#utility.yul\":8353:8578   */\n      pop\n      jump\t// out\n        /* \"#utility.yul\":8584:8950   */\n    tag_193:\n        /* \"#utility.yul\":8726:8729   */\n      0x00\n        /* \"#utility.yul\":8747:8814   */\n      tag_301\n        /* \"#utility.yul\":8811:8813   */\n      0x26\n        /* \"#utility.yul\":8806:8809   */\n      dup4\n        /* \"#utility.yul\":8747:8814   */\n      tag_167\n      jump\t// in\n    tag_301:\n        /* \"#utility.yul\":8740:8814   */\n      swap2\n      pop\n        /* \"#utility.yul\":8823:8916   */\n      tag_302\n        /* \"#utility.yul\":8912:8915   */\n      dup3\n        /* \"#utility.yul\":8823:8916   */\n      tag_192\n      jump\t// in\n    tag_302:\n        /* \"#utility.yul\":8941:8943   */\n      0x40\n        /* \"#utility.yul\":8936:8939   */\n      dup3\n        /* \"#utility.yul\":8932:8944   */\n      add\n        /* \"#utility.yul\":8925:8944   */\n      swap1\n      pop\n        /* \"#utility.yul\":8584:8950   */\n      swap2\n      swap1\n      pop\n      jump\t// out\n        /* \"#utility.yul\":8956:9375   */\n    tag_103:\n        /* \"#utility.yul\":9122:9126   */\n      0x00\n        /* \"#utility.yul\":9160:9162   */\n      0x20\n        /* \"#utility.yul\":9149:9158   */\n      dup3\n        /* \"#utility.yul\":9145:9163   */\n      add\n        /* \"#utility.yul\":9137:9163   */\n      swap1\n      pop\n        /* \"#utility.yul\":9209:9218   */\n      dup2\n        /* \"#utility.yul\":9203:9207   */\n      dup2\n        /* \"#utility.yul\":9199:9219   */\n      sub\n        /* \"#utility.yul\":9195:9196   */\n      0x00\n        /* \"#utility.yul\":9184:9193   */\n      dup4\n        /* \"#utility.yul\":9180:9197   */\n      add\n        /* \"#utility.yul\":9173:9220   */\n      mstore\n        /* \"#utility.yul\":9237:9368   */\n      tag_304\n        /* \"#utility.yul\":9363:9367   */\n      dup2\n        /* \"#utility.yul\":9237:9368   */\n      tag_193\n      jump\t// in\n    tag_304:\n        /* \"#utility.yul\":9229:9368   */\n      swap1\n      pop\n        /* \"#utility.yul\":8956:9375   */\n      swap2\n      swap1\n      pop\n      jump\t// out\n        /* \"#utility.yul\":9381:9572   */\n    tag_105:\n        /* \"#utility.yul\":9421:9424   */\n      0x00\n        /* \"#utility.yul\":9440:9460   */\n      tag_306\n        /* \"#utility.yul\":9458:9459   */\n      dup3\n        /* \"#utility.yul\":9440:9460   */\n      tag_178\n      jump\t// in\n    tag_306:\n        /* \"#utility.yul\":9435:9460   */\n      swap2\n      pop\n        /* \"#utility.yul\":9474:9494   */\n      tag_307\n        /* \"#utility.yul\":9492:9493   */\n      dup4\n        /* \"#utility.yul\":9474:9494   */\n      tag_178\n      jump\t// in\n    tag_307:\n        /* \"#utility.yul\":9469:9494   */\n      swap3\n      pop\n        /* \"#utility.yul\":9517:9518   */\n      dup3\n        /* \"#utility.yul\":9514:9515   */\n      dup3\n        /* \"#utility.yul\":9510:9519   */\n      add\n        /* \"#utility.yul\":9503:9519   */\n      swap1\n      pop\n        /* \"#utility.yul\":9538:9541   */\n      dup1\n        /* \"#utility.yul\":9535:9536   */\n      dup3\n        /* \"#utility.yul\":9532:9542   */\n      gt\n        /* \"#utility.yul\":9529:9565   */\n      iszero\n      tag_308\n      jumpi\n        /* \"#utility.yul\":9545:9563   */\n      tag_309\n      tag_189\n      jump\t// in\n    tag_309:\n        /* \"#utility.yul\":9529:9565   */\n    tag_308:\n        /* \"#utility.yul\":9381:9572   */\n      swap3\n      swap2\n      pop\n      pop\n      jump\t// out\n        /* \"#utility.yul\":9578:9805   */\n    tag_194:\n        /* \"#utility.yul\":9718:9752   */\n      0x5369676e697479546f6b656e3a206275726e2066726f6d20746865207a65726f\n        /* \"#utility.yul\":9714:9715   */\n      0x00\n        /* \"#utility.yul\":9706:9712   */\n      dup3\n        /* \"#utility.yul\":9702:9716   */\n      add\n        /* \"#utility.yul\":9695:9753   */\n      mstore\n        /* \"#utility.yul\":9787:9797   */\n      0x2061646472657373000000000000000000000000000000000000000000000000\n        /* \"#utility.yul\":9782:9784   */\n      0x20\n        /* \"#utility.yul\":9774:9780   */\n      dup3\n        /* \"#utility.yul\":9770:9785   */\n      add\n        /* \"#utility.yul\":9763:9798   */\n      mstore\n        /* \"#utility.yul\":9578:9805   */\n      pop\n      jump\t// out\n        /* \"#utility.yul\":9811:10177   */\n    tag_195:\n        /* \"#utility.yul\":9953:9956   */\n      0x00\n        /* \"#utility.yul\":9974:10041   */\n      tag_312\n        /* \"#utility.yul\":10038:10040   */\n      0x28\n        /* \"#utility.yul\":10033:10036   */\n      dup4\n        /* \"#utility.yul\":9974:10041   */\n      tag_167\n      jump\t// in\n    tag_312:\n        /* \"#utility.yul\":9967:10041   */\n      swap2\n      pop\n        /* \"#utility.yul\":10050:10143   */\n      tag_313\n        /* \"#utility.yul\":10139:10142   */\n      dup3\n        /* \"#utility.yul\":10050:10143   */\n      tag_194\n      jump\t// in\n    tag_313:\n        /* \"#utility.yul\":10168:10170   */\n      0x40\n        /* \"#utility.yul\":10163:10166   */\n      dup3\n        /* \"#utility.yul\":10159:10171   */\n      add\n        /* \"#utility.yul\":10152:10171   */\n      swap1\n      pop\n        /* \"#utility.yul\":9811:10177   */\n      swap2\n      swap1\n      pop\n      jump\t// out\n        /* \"#utility.yul\":10183:10602   */\n    tag_118:\n        /* \"#utility.yul\":10349:10353   */\n      0x00\n        /* \"#utility.yul\":10387:10389   */\n      0x20\n        /* \"#utility.yul\":10376:10385   */\n      dup3\n        /* \"#utility.yul\":10372:10390   */\n      add\n        /* \"#utility.yul\":10364:10390   */\n      swap1\n      pop\n        /* \"#utility.yul\":10436:10445   */\n      dup2\n        /* \"#utility.yul\":10430:10434   */\n      dup2\n        /* \"#utility.yul\":10426:10446   */\n      sub\n        /* \"#utility.yul\":10422:10423   */\n      0x00\n        /* \"#utility.yul\":10411:10420   */\n      dup4\n        /* \"#utility.yul\":10407:10424   */\n      add\n        /* \"#utility.yul\":10400:10447   */\n      mstore\n        /* \"#utility.yul\":10464:10595   */\n      tag_315\n        /* \"#utility.yul\":10590:10594   */\n      dup2\n        /* \"#utility.yul\":10464:10595   */\n      tag_195\n      jump\t// in\n    tag_315:\n        /* \"#utility.yul\":10456:10595   */\n      swap1\n      pop\n        /* \"#utility.yul\":10183:10602   */\n      swap2\n      swap1\n      pop\n      jump\t// out\n        /* \"#utility.yul\":10608:10836   */\n    tag_196:\n        /* \"#utility.yul\":10748:10782   */\n      0x5369676e697479546f6b656e3a206275726e20616d6f756e7420657863656564\n        /* \"#utility.yul\":10744:10745   */\n      0x00\n        /* \"#utility.yul\":10736:10742   */\n      dup3\n        /* \"#utility.yul\":10732:10746   */\n      add\n        /* \"#utility.yul\":10725:10783   */\n      mstore\n        /* \"#utility.yul\":10817:10828   */\n      0x732062616c616e63650000000000000000000000000000000000000000000000\n        /* \"#utility.yul\":10812:10814   */\n      0x20\n        /* \"#utility.yul\":10804:10810   */\n      dup3\n        /* \"#utility.yul\":10800:10815   */\n      add\n        /* \"#utility.yul\":10793:10829   */\n      mstore\n        /* \"#utility.yul\":10608:10836   */\n      pop\n      jump\t// out\n        /* \"#utility.yul\":10842:11208   */\n    tag_197:\n        /* \"#utility.yul\":10984:10987   */\n      0x00\n        /* \"#utility.yul\":11005:11072   */\n      tag_318\n        /* \"#utility.yul\":11069:11071   */\n      0x29\n        /* \"#utility.yul\":11064:11067   */\n      dup4\n        /* \"#utility.yul\":11005:11072   */\n      tag_167\n      jump\t// in\n    tag_318:\n        /* \"#utility.yul\":10998:11072   */\n      swap2\n      pop\n        /* \"#utility.yul\":11081:11174   */\n      tag_319\n        /* \"#utility.yul\":11170:11173   */\n      dup3\n        /* \"#utility.yul\":11081:11174   */\n      tag_196\n      jump\t// in\n    tag_319:\n        /* \"#utility.yul\":11199:11201   */\n      0x40\n        /* \"#utility.yul\":11194:11197   */\n      dup3\n        /* \"#utility.yul\":11190:11202   */\n      add\n        /* \"#utility.yul\":11183:11202   */\n      swap1\n      pop\n        /* \"#utility.yul\":10842:11208   */\n      swap2\n      swap1\n      pop\n      jump\t// out\n        /* \"#utility.yul\":11214:11633   */\n    tag_121:\n        /* \"#utility.yul\":11380:11384   */\n      0x00\n        /* \"#utility.yul\":11418:11420   */\n      0x20\n        /* \"#utility.yul\":11407:11416   */\n      dup3\n        /* \"#utility.yul\":11403:11421   */\n      add\n        /* \"#utility.yul\":11395:11421   */\n      swap1\n      pop\n        /* \"#utility.yul\":11467:11476   */\n      dup2\n        /* \"#utility.yul\":11461:11465   */\n      dup2\n        /* \"#utility.yul\":11457:11477   */\n      sub\n        /* \"#utility.yul\":11453:11454   */\n      0x00\n        /* \"#utility.yul\":11442:11451   */\n      dup4\n        /* \"#utility.yul\":11438:11455   */\n      add\n        /* \"#utility.yul\":11431:11478   */\n      mstore\n        /* \"#utility.yul\":11495:11626   */\n      tag_321\n        /* \"#utility.yul\":11621:11625   */\n      dup2\n        /* \"#utility.yul\":11495:11626   */\n      tag_197\n      jump\t// in\n    tag_321:\n        /* \"#utility.yul\":11487:11626   */\n      swap1\n      pop\n        /* \"#utility.yul\":11214:11633   */\n      swap2\n      swap1\n      pop\n      jump\t// out\n        /* \"#utility.yul\":11639:11863   */\n    tag_198:\n        /* \"#utility.yul\":11779:11813   */\n      0x5369676e697479546f6b656e3a2063616c6c6572206973206e6f742074686520\n        /* \"#utility.yul\":11775:11776   */\n      0x00\n        /* \"#utility.yul\":11767:11773   */\n      dup3\n        /* \"#utility.yul\":11763:11777   */\n      add\n        /* \"#utility.yul\":11756:11814   */\n      mstore\n        /* \"#utility.yul\":11848:11855   */\n      0x6f776e6572000000000000000000000000000000000000000000000000000000\n        /* \"#utility.yul\":11843:11845   */\n      0x20\n        /* \"#utility.yul\":11835:11841   */\n      dup3\n        /* \"#utility.yul\":11831:11846   */\n      add\n        /* \"#utility.yul\":11824:11856   */\n      mstore\n        /* \"#utility.yul\":11639:11863   */\n      pop\n      jump\t// out\n        /* \"#utility.yul\":11869:12235   */\n    tag_199:\n        /* \"#utility.yul\":12011:12014   */\n      0x00\n        /* \"#utility.yul\":12032:12099   */\n      tag_324\n        /* \"#utility.yul\":12096:12098   */\n      0x25\n        /* \"#utility.yul\":12091:12094   */\n      dup4\n        /* \"#utility.yul\":12032:12099   */\n      tag_167\n      jump\t// in\n    tag_324:\n        /* \"#utility.yul\":12025:12099   */\n      swap2\n      pop\n        /* \"#utility.yul\":12108:12201   */\n      tag_325\n        /* \"#utility.yul\":12197:12200   */\n      dup3\n        /* \"#utility.yul\":12108:12201   */\n      tag_198\n      jump\t// in\n    tag_325:\n        /* \"#utility.yul\":12226:12228   */\n      0x40\n        /* \"#utility.yul\":12221:12224   */\n      dup3\n        /* \"#utility.yul\":12217:12229   */\n      add\n        /* \"#utility.yul\":12210:12229   */\n      swap1\n      pop\n        /* \"#utility.yul\":11869:12235   */\n      swap2\n      swap1\n      pop\n      jump\t// out\n        /* \"#utility.yul\":12241:12660   */\n    tag_134:\n        /* \"#utility.yul\":12407:12411   */\n      0x00\n        /* \"#utility.yul\":12445:12447   */\n      0x20\n        /* \"#utility.yul\":12434:12443   */\n      dup3\n        /* \"#utility.yul\":12430:12448   */\n      add\n        /* \"#utility.yul\":12422:12448   */\n      swap1\n      pop\n        /* \"#utility.yul\":12494:12503   */\n      dup2\n        /* \"#utility.yul\":12488:12492   */\n      dup2\n        /* \"#utility.yul\":12484:12504   */\n      sub\n        /* \"#utility.yul\":12480:12481   */\n      0x00\n        /* \"#utility.yul\":12469:12478   */\n      dup4\n        /* \"#utility.yul\":12465:12482   */\n      add\n        /* \"#utility.yul\":12458:12505   */\n      mstore\n        /* \"#utility.yul\":12522:12653   */\n      tag_327\n        /* \"#utility.yul\":12648:12652   */\n      dup2\n        /* \"#utility.yul\":12522:12653   */\n      tag_199\n      jump\t// in\n    tag_327:\n        /* \"#utility.yul\":12514:12653   */\n      swap1\n      pop\n        /* \"#utility.yul\":12241:12660   */\n      swap2\n      swap1\n      pop\n      jump\t// out\n        /* \"#utility.yul\":12666:12893   */\n    tag_200:\n        /* \"#utility.yul\":12806:12840   */\n      0x5369676e697479546f6b656e3a20696e76616c6964205369676e6974794e4654\n        /* \"#utility.yul\":12802:12803   */\n      0x00\n        /* \"#utility.yul\":12794:12800   */\n      dup3\n        /* \"#utility.yul\":12790:12804   */\n      add\n        /* \"#utility.yul\":12783:12841   */\n      mstore\n        /* \"#utility.yul\":12875:12885   */\n      0x2061646472657373000000000000000000000000000000000000000000000000\n        /* \"#utility.yul\":12870:12872   */\n      0x20\n        /* \"#utility.yul\":12862:12868   */\n      dup3\n        /* \"#utility.yul\":12858:12873   */\n      add\n        /* \"#utility.yul\":12851:12886   */\n      mstore\n        /* \"#utility.yul\":12666:12893   */\n      pop\n      jump\t// out\n        /* \"#utility.yul\":12899:13265   */\n    tag_201:\n        /* \"#utility.yul\":13041:13044   */\n      0x00\n        /* \"#utility.yul\":13062:13129   */\n      tag_330\n        /* \"#utility.yul\":13126:13128   */\n      0x28\n        /* \"#utility.yul\":13121:13124   */\n      dup4\n        /* \"#utility.yul\":13062:13129   */\n      tag_167\n      jump\t// in\n    tag_330:\n        /* \"#utility.yul\":13055:13129   */\n      swap2\n      pop\n        /* \"#utility.yul\":13138:13231   */\n      tag_331\n        /* \"#utility.yul\":13227:13230   */\n      dup3\n        /* \"#utility.yul\":13138:13231   */\n      tag_200\n      jump\t// in\n    tag_331:\n        /* \"#utility.yul\":13256:13258   */\n      0x40\n        /* \"#utility.yul\":13251:13254   */\n      dup3\n        /* \"#utility.yul\":13247:13259   */\n      add\n        /* \"#utility.yul\":13240:13259   */\n      swap1\n      pop\n        /* \"#utility.yul\":12899:13265   */\n      swap2\n      swap1\n      pop\n      jump\t// out\n        /* \"#utility.yul\":13271:13690   */\n    tag_138:\n        /* \"#utility.yul\":13437:13441   */\n      0x00\n        /* \"#utility.yul\":13475:13477   */\n      0x20\n        /* \"#utility.yul\":13464:13473   */\n      dup3\n        /* \"#utility.yul\":13460:13478   */\n      add\n        /* \"#utility.yul\":13452:13478   */\n      swap1\n      pop\n        /* \"#utility.yul\":13524:13533   */\n      dup2\n        /* \"#utility.yul\":13518:13522   */\n      dup2\n        /* \"#utility.yul\":13514:13534   */\n      sub\n        /* \"#utility.yul\":13510:13511   */\n      0x00\n        /* \"#utility.yul\":13499:13508   */\n      dup4\n        /* \"#utility.yul\":13495:13512   */\n      add\n        /* \"#utility.yul\":13488:13535   */\n      mstore\n        /* \"#utility.yul\":13552:13683   */\n      tag_333\n        /* \"#utility.yul\":13678:13682   */\n      dup2\n        /* \"#utility.yul\":13552:13683   */\n      tag_201\n      jump\t// in\n    tag_333:\n        /* \"#utility.yul\":13544:13683   */\n      swap1\n      pop\n        /* \"#utility.yul\":13271:13690   */\n      swap2\n      swap1\n      pop\n      jump\t// out\n        /* \"#utility.yul\":13696:13926   */\n    tag_202:\n        /* \"#utility.yul\":13836:13870   */\n      0x5369676e697479546f6b656e3a20617070726f76652066726f6d20746865207a\n        /* \"#utility.yul\":13832:13833   */\n      0x00\n        /* \"#utility.yul\":13824:13830   */\n      dup3\n        /* \"#utility.yul\":13820:13834   */\n      add\n        /* \"#utility.yul\":13813:13871   */\n      mstore\n        /* \"#utility.yul\":13905:13918   */\n      0x65726f2061646472657373000000000000000000000000000000000000000000\n        /* \"#utility.yul\":13900:13902   */\n      0x20\n        /* \"#utility.yul\":13892:13898   */\n      dup3\n        /* \"#utility.yul\":13888:13903   */\n      add\n        /* \"#utility.yul\":13881:13919   */\n      mstore\n        /* \"#utility.yul\":13696:13926   */\n      pop\n      jump\t// out\n        /* \"#utility.yul\":13932:14298   */\n    tag_203:\n        /* \"#utility.yul\":14074:14077   */\n      0x00\n        /* \"#utility.yul\":14095:14162   */\n      tag_336\n        /* \"#utility.yul\":14159:14161   */\n      0x2b\n        /* \"#utility.yul\":14154:14157   */\n      dup4\n        /* \"#utility.yul\":14095:14162   */\n      tag_167\n      jump\t// in\n    tag_336:\n        /* \"#utility.yul\":14088:14162   */\n      swap2\n      pop\n        /* \"#utility.yul\":14171:14264   */\n      tag_337\n        /* \"#utility.yul\":14260:14263   */\n      dup3\n        /* \"#utility.yul\":14171:14264   */\n      tag_202\n      jump\t// in\n    tag_337:\n        /* \"#utility.yul\":14289:14291   */\n      0x40\n        /* \"#utility.yul\":14284:14287   */\n      dup3\n        /* \"#utility.yul\":14280:14292   */\n      add\n        /* \"#utility.yul\":14273:14292   */\n      swap1\n      pop\n        /* \"#utility.yul\":13932:14298   */\n      swap2\n      swap1\n      pop\n      jump\t// out\n        /* \"#utility.yul\":14304:14723   */\n    tag_143:\n        /* \"#utility.yul\":14470:14474   */\n      0x00\n        /* \"#utility.yul\":14508:14510   */\n      0x20\n        /* \"#utility.yul\":14497:14506   */\n      dup3\n        /* \"#utility.yul\":14493:14511   */\n      add\n        /* \"#utility.yul\":14485:14511   */\n      swap1\n      pop\n        /* \"#utility.yul\":14557:14566   */\n      dup2\n        /* \"#utility.yul\":14551:14555   */\n      dup2\n        /* \"#utility.yul\":14547:14567   */\n      sub\n        /* \"#utility.yul\":14543:14544   */\n      0x00\n        /* \"#utility.yul\":14532:14541   */\n      dup4\n        /* \"#utility.yul\":14528:14545   */\n      add\n        /* \"#utility.yul\":14521:14568   */\n      mstore\n        /* \"#utility.yul\":14585:14716   */\n      tag_339\n        /* \"#utility.yul\":14711:14715   */\n      dup2\n        /* \"#utility.yul\":14585:14716   */\n      tag_203\n      jump\t// in\n    tag_339:\n        /* \"#utility.yul\":14577:14716   */\n      swap1\n      pop\n        /* \"#utility.yul\":14304:14723   */\n      swap2\n      swap1\n      pop\n      jump\t// out\n        /* \"#utility.yul\":14729:14957   */\n    tag_204:\n        /* \"#utility.yul\":14869:14903   */\n      0x5369676e697479546f6b656e3a20617070726f766520746f20746865207a6572\n        /* \"#utility.yul\":14865:14866   */\n      0x00\n        /* \"#utility.yul\":14857:14863   */\n      dup3\n        /* \"#utility.yul\":14853:14867   */\n      add\n        /* \"#utility.yul\":14846:14904   */\n      mstore\n        /* \"#utility.yul\":14938:14949   */\n      0x6f20616464726573730000000000000000000000000000000000000000000000\n        /* \"#utility.yul\":14933:14935   */\n      0x20\n        /* \"#utility.yul\":14925:14931   */\n      dup3\n        /* \"#utility.yul\":14921:14936   */\n      add\n        /* \"#utility.yul\":14914:14950   */\n      mstore\n        /* \"#utility.yul\":14729:14957   */\n      pop\n      jump\t// out\n        /* \"#utility.yul\":14963:15329   */\n    tag_205:\n        /* \"#utility.yul\":15105:15108   */\n      0x00\n        /* \"#utility.yul\":15126:15193   */\n      tag_342\n        /* \"#utility.yul\":15190:15192   */\n      0x29\n        /* \"#utility.yul\":15185:15188   */\n      dup4\n        /* \"#utility.yul\":15126:15193   */\n      tag_167\n      jump\t// in\n    tag_342:\n        /* \"#utility.yul\":15119:15193   */\n      swap2\n      pop\n        /* \"#utility.yul\":15202:15295   */\n      tag_343\n        /* \"#utility.yul\":15291:15294   */\n      dup3\n        /* \"#utility.yul\":15202:15295   */\n      tag_204\n      jump\t// in\n    tag_343:\n        /* \"#utility.yul\":15320:15322   */\n      0x40\n        /* \"#utility.yul\":15315:15318   */\n      dup3\n        /* \"#utility.yul\":15311:15323   */\n      add\n        /* \"#utility.yul\":15304:15323   */\n      swap1\n      pop\n        /* \"#utility.yul\":14963:15329   */\n      swap2\n      swap1\n      pop\n      jump\t// out\n        /* \"#utility.yul\":15335:15754   */\n    tag_146:\n        /* \"#utility.yul\":15501:15505   */\n      0x00\n        /* \"#utility.yul\":15539:15541   */\n      0x20\n        /* \"#utility.yul\":15528:15537   */\n      dup3\n        /* \"#utility.yul\":15524:15542   */\n      add\n        /* \"#utility.yul\":15516:15542   */\n      swap1\n      pop\n        /* \"#utility.yul\":15588:15597   */\n      dup2\n        /* \"#utility.yul\":15582:15586   */\n      dup2\n        /* \"#utility.yul\":15578:15598   */\n      sub\n        /* \"#utility.yul\":15574:15575   */\n      0x00\n        /* \"#utility.yul\":15563:15572   */\n      dup4\n        /* \"#utility.yul\":15559:15576   */\n      add\n        /* \"#utility.yul\":15552:15599   */\n      mstore\n        /* \"#utility.yul\":15616:15747   */\n      tag_345\n        /* \"#utility.yul\":15742:15746   */\n      dup2\n        /* \"#utility.yul\":15616:15747   */\n      tag_205\n      jump\t// in\n    tag_345:\n        /* \"#utility.yul\":15608:15747   */\n      swap1\n      pop\n        /* \"#utility.yul\":15335:15754   */\n      swap2\n      swap1\n      pop\n      jump\t// out\n        /* \"#utility.yul\":15760:15941   */\n    tag_206:\n        /* \"#utility.yul\":15900:15933   */\n      0x5265656e7472616e637947756172643a207265656e7472616e742063616c6c00\n        /* \"#utility.yul\":15896:15897   */\n      0x00\n        /* \"#utility.yul\":15888:15894   */\n      dup3\n        /* \"#utility.yul\":15884:15898   */\n      add\n        /* \"#utility.yul\":15877:15934   */\n      mstore\n        /* \"#utility.yul\":15760:15941   */\n      pop\n      jump\t// out\n        /* \"#utility.yul\":15947:16313   */\n    tag_207:\n        /* \"#utility.yul\":16089:16092   */\n      0x00\n        /* \"#utility.yul\":16110:16177   */\n      tag_348\n        /* \"#utility.yul\":16174:16176   */\n      0x1f\n        /* \"#utility.yul\":16169:16172   */\n      dup4\n        /* \"#utility.yul\":16110:16177   */\n      tag_167\n      jump\t// in\n    tag_348:\n        /* \"#utility.yul\":16103:16177   */\n      swap2\n      pop\n        /* \"#utility.yul\":16186:16279   */\n      tag_349\n        /* \"#utility.yul\":16275:16278   */\n      dup3\n        /* \"#utility.yul\":16186:16279   */\n      tag_206\n      jump\t// in\n    tag_349:\n        /* \"#utility.yul\":16304:16306   */\n      0x20\n        /* \"#utility.yul\":16299:16302   */\n      dup3\n        /* \"#utility.yul\":16295:16307   */\n      add\n        /* \"#utility.yul\":16288:16307   */\n      swap1\n      pop\n        /* \"#utility.yul\":15947:16313   */\n      swap2\n      swap1\n      pop\n      jump\t// out\n        /* \"#utility.yul\":16319:16738   */\n    tag_151:\n        /* \"#utility.yul\":16485:16489   */\n      0x00\n        /* \"#utility.yul\":16523:16525   */\n      0x20\n        /* \"#utility.yul\":16512:16521   */\n      dup3\n        /* \"#utility.yul\":16508:16526   */\n      add\n        /* \"#utility.yul\":16500:16526   */\n      swap1\n      pop\n        /* \"#utility.yul\":16572:16581   */\n      dup2\n        /* \"#utility.yul\":16566:16570   */\n      dup2\n        /* \"#utility.yul\":16562:16582   */\n      sub\n        /* \"#utility.yul\":16558:16559   */\n      0x00\n        /* \"#utility.yul\":16547:16556   */\n      dup4\n        /* \"#utility.yul\":16543:16560   */\n      add\n        /* \"#utility.yul\":16536:16583   */\n      mstore\n        /* \"#utility.yul\":16600:16731   */\n      tag_351\n        /* \"#utility.yul\":16726:16730   */\n      dup2\n        /* \"#utility.yul\":16600:16731   */\n      tag_207\n      jump\t// in\n    tag_351:\n        /* \"#utility.yul\":16592:16731   */\n      swap1\n      pop\n        /* \"#utility.yul\":16319:16738   */\n      swap2\n      swap1\n      pop\n      jump\t// out\n        /* \"#utility.yul\":16744:16975   */\n    tag_208:\n        /* \"#utility.yul\":16884:16918   */\n      0x5369676e697479546f6b656e3a207472616e736665722066726f6d2074686520\n        /* \"#utility.yul\":16880:16881   */\n      0x00\n        /* \"#utility.yul\":16872:16878   */\n      dup3\n        /* \"#utility.yul\":16868:16882   */\n      add\n        /* \"#utility.yul\":16861:16919   */\n      mstore\n        /* \"#utility.yul\":16953:16967   */\n      0x7a65726f20616464726573730000000000000000000000000000000000000000\n        /* \"#utility.yul\":16948:16950   */\n      0x20\n        /* \"#utility.yul\":16940:16946   */\n      dup3\n        /* \"#utility.yul\":16936:16951   */\n      add\n        /* \"#utility.yul\":16929:16968   */\n      mstore\n        /* \"#utility.yul\":16744:16975   */\n      pop\n      jump\t// out\n        /* \"#utility.yul\":16981:17347   */\n    tag_209:\n        /* \"#utility.yul\":17123:17126   */\n      0x00\n        /* \"#utility.yul\":17144:17211   */\n      tag_354\n        /* \"#utility.yul\":17208:17210   */\n      0x2c\n        /* \"#utility.yul\":17203:17206   */\n      dup4\n        /* \"#utility.yul\":17144:17211   */\n      tag_167\n      jump\t// in\n    tag_354:\n        /* \"#utility.yul\":17137:17211   */\n      swap2\n      pop\n        /* \"#utility.yul\":17220:17313   */\n      tag_355\n        /* \"#utility.yul\":17309:17312   */\n      dup3\n        /* \"#utility.yul\":17220:17313   */\n      tag_208\n      jump\t// in\n    tag_355:\n        /* \"#utility.yul\":17338:17340   */\n      0x40\n        /* \"#utility.yul\":17333:17336   */\n      dup3\n        /* \"#utility.yul\":17329:17341   */\n      add\n        /* \"#utility.yul\":17322:17341   */\n      swap1\n      pop\n        /* \"#utility.yul\":16981:17347   */\n      swap2\n      swap1\n      pop\n      jump\t// out\n        /* \"#utility.yul\":17353:17772   */\n    tag_155:\n        /* \"#utility.yul\":17519:17523   */\n      0x00\n        /* \"#utility.yul\":17557:17559   */\n      0x20\n        /* \"#utility.yul\":17546:17555   */\n      dup3\n        /* \"#utility.yul\":17542:17560   */\n      add\n        /* \"#utility.yul\":17534:17560   */\n      swap1\n      pop\n        /* \"#utility.yul\":17606:17615   */\n      dup2\n        /* \"#utility.yul\":17600:17604   */\n      dup2\n        /* \"#utility.yul\":17596:17616   */\n      sub\n        /* \"#utility.yul\":17592:17593   */\n      0x00\n        /* \"#utility.yul\":17581:17590   */\n      dup4\n        /* \"#utility.yul\":17577:17594   */\n      add\n        /* \"#utility.yul\":17570:17617   */\n      mstore\n        /* \"#utility.yul\":17634:17765   */\n      tag_357\n        /* \"#utility.yul\":17760:17764   */\n      dup2\n        /* \"#utility.yul\":17634:17765   */\n      tag_209\n      jump\t// in\n    tag_357:\n        /* \"#utility.yul\":17626:17765   */\n      swap1\n      pop\n        /* \"#utility.yul\":17353:17772   */\n      swap2\n      swap1\n      pop\n      jump\t// out\n        /* \"#utility.yul\":17778:18007   */\n    tag_210:\n        /* \"#utility.yul\":17918:17952   */\n      0x5369676e697479546f6b656e3a207472616e7366657220746f20746865207a65\n        /* \"#utility.yul\":17914:17915   */\n      0x00\n        /* \"#utility.yul\":17906:17912   */\n      dup3\n        /* \"#utility.yul\":17902:17916   */\n      add\n        /* \"#utility.yul\":17895:17953   */\n      mstore\n        /* \"#utility.yul\":17987:17999   */\n      0x726f206164647265737300000000000000000000000000000000000000000000\n        /* \"#utility.yul\":17982:17984   */\n      0x20\n        /* \"#utility.yul\":17974:17980   */\n      dup3\n        /* \"#utility.yul\":17970:17985   */\n      add\n        /* \"#utility.yul\":17963:18000   */\n      mstore\n        /* \"#utility.yul\":17778:18007   */\n      pop\n      jump\t// out\n        /* \"#utility.yul\":18013:18379   */\n    tag_211:\n        /* \"#utility.yul\":18155:18158   */\n      0x00\n        /* \"#utility.yul\":18176:18243   */\n      tag_360\n        /* \"#utility.yul\":18240:18242   */\n      0x2a\n        /* \"#utility.yul\":18235:18238   */\n      dup4\n        /* \"#utility.yul\":18176:18243   */\n      tag_167\n      jump\t// in\n    tag_360:\n        /* \"#utility.yul\":18169:18243   */\n      swap2\n      pop\n        /* \"#utility.yul\":18252:18345   */\n      tag_361\n        /* \"#utility.yul\":18341:18344   */\n      dup3\n        /* \"#utility.yul\":18252:18345   */\n      tag_210\n      jump\t// in\n    tag_361:\n        /* \"#utility.yul\":18370:18372   */\n      0x40\n        /* \"#utility.yul\":18365:18368   */\n      dup3\n        /* \"#utility.yul\":18361:18373   */\n      add\n        /* \"#utility.yul\":18354:18373   */\n      swap1\n      pop\n        /* \"#utility.yul\":18013:18379   */\n      swap2\n      swap1\n      pop\n      jump\t// out\n        /* \"#utility.yul\":18385:18804   */\n    tag_158:\n        /* \"#utility.yul\":18551:18555   */\n      0x00\n        /* \"#utility.yul\":18589:18591   */\n      0x20\n        /* \"#utility.yul\":18578:18587   */\n      dup3\n        /* \"#utility.yul\":18574:18592   */\n      add\n        /* \"#utility.yul\":18566:18592   */\n      swap1\n      pop\n        /* \"#utility.yul\":18638:18647   */\n      dup2\n        /* \"#utility.yul\":18632:18636   */\n      dup2\n        /* \"#utility.yul\":18628:18648   */\n      sub\n        /* \"#utility.yul\":18624:18625   */\n      0x00\n        /* \"#utility.yul\":18613:18622   */\n      dup4\n        /* \"#utility.yul\":18609:18626   */\n      add\n        /* \"#utility.yul\":18602:18649   */\n      mstore\n        /* \"#utility.yul\":18666:18797   */\n      tag_363\n        /* \"#utility.yul\":18792:18796   */\n      dup2\n        /* \"#utility.yul\":18666:18797   */\n      tag_211\n      jump\t// in\n    tag_363:\n        /* \"#utility.yul\":18658:18797   */\n      swap1\n      pop\n        /* \"#utility.yul\":18385:18804   */\n      swap2\n      swap1\n      pop\n      jump\t// out\n        /* \"#utility.yul\":18810:19042   */\n    tag_212:\n        /* \"#utility.yul\":18950:18984   */\n      0x5369676e697479546f6b656e3a207472616e7366657220616d6f756e74206578\n        /* \"#utility.yul\":18946:18947   */\n      0x00\n        /* \"#utility.yul\":18938:18944   */\n      dup3\n        /* \"#utility.yul\":18934:18948   */\n      add\n        /* \"#utility.yul\":18927:18985   */\n      mstore\n        /* \"#utility.yul\":19019:19034   */\n      0x63656564732062616c616e636500000000000000000000000000000000000000\n        /* \"#utility.yul\":19014:19016   */\n      0x20\n        /* \"#utility.yul\":19006:19012   */\n      dup3\n        /* \"#utility.yul\":19002:19017   */\n      add\n        /* \"#utility.yul\":18995:19035   */\n      mstore\n        /* \"#utility.yul\":18810:19042   */\n      pop\n      jump\t// out\n        /* \"#utility.yul\":19048:19414   */\n    tag_213:\n        /* \"#utility.yul\":19190:19193   */\n      0x00\n        /* \"#utility.yul\":19211:19278   */\n      tag_366\n        /* \"#utility.yul\":19275:19277   */\n      0x2d\n        /* \"#utility.yul\":19270:19273   */\n      dup4\n        /* \"#utility.yul\":19211:19278   */\n      tag_167\n      jump\t// in\n    tag_366:\n        /* \"#utility.yul\":19204:19278   */\n      swap2\n      pop\n        /* \"#utility.yul\":19287:19380   */\n      tag_367\n        /* \"#utility.yul\":19376:19379   */\n      dup3\n        /* \"#utility.yul\":19287:19380   */\n      tag_212\n      jump\t// in\n    tag_367:\n        /* \"#utility.yul\":19405:19407   */\n      0x40\n        /* \"#utility.yul\":19400:19403   */\n      dup3\n        /* \"#utility.yul\":19396:19408   */\n      add\n        /* \"#utility.yul\":19389:19408   */\n      swap1\n      pop\n        /* \"#utility.yul\":19048:19414   */\n      swap2\n      swap1\n      pop\n      jump\t// out\n        /* \"#utility.yul\":19420:19839   */\n    tag_161:\n        /* \"#utility.yul\":19586:19590   */\n      0x00\n        /* \"#utility.yul\":19624:19626   */\n      0x20\n        /* \"#utility.yul\":19613:19622   */\n      dup3\n        /* \"#utility.yul\":19609:19627   */\n      add\n        /* \"#utility.yul\":19601:19627   */\n      swap1\n      pop\n        /* \"#utility.yul\":19673:19682   */\n      dup2\n        /* \"#utility.yul\":19667:19671   */\n      dup2\n        /* \"#utility.yul\":19663:19683   */\n      sub\n        /* \"#utility.yul\":19659:19660   */\n      0x00\n        /* \"#utility.yul\":19648:19657   */\n      dup4\n        /* \"#utility.yul\":19644:19661   */\n      add\n        /* \"#utility.yul\":19637:19684   */\n      mstore\n        /* \"#utility.yul\":19701:19832   */\n      tag_369\n        /* \"#utility.yul\":19827:19831   */\n      dup2\n        /* \"#utility.yul\":19701:19832   */\n      tag_213\n      jump\t// in\n    tag_369:\n        /* \"#utility.yul\":19693:19832   */\n      swap1\n      pop\n        /* \"#utility.yul\":19420:19839   */\n      swap2\n      swap1\n      pop\n      jump\t// out\n\n    auxdata: 0xa264697066735822122098fdbe8a17833804d6ca059bfad34ed9ae9031606d8fde5f585a9d6860c0fa0e64736f6c634300081a0033\n}\n",
				"bytecode": {
					"linkReferences": {},
					"object": "60a0604052348015600e575f80fd5b5060015f819055503373ffffffffffffffffffffffffffffffffffffffff1660808173ffffffffffffffffffffffffffffffffffffffff1681525050608051611acf6100695f395f81816106da01526109e30152611acf5ff3fe608060405234801561000f575f80fd5b50600436106100e8575f3560e01c80638da5cb5b1161008a578063a196d01d11610064578063a196d01d1461024a578063a9059cbb14610268578063aeaa10d314610298578063dd62ed3e146102b4576100e8565b80638da5cb5b146101f257806395d89b41146102105780639dc29fac1461022e576100e8565b806323b872dd116100c657806323b872dd14610158578063313ce5671461018857806340c10f19146101a657806370a08231146101c2576100e8565b806306fdde03146100ec578063095ea7b31461010a57806318160ddd1461013a575b5f80fd5b6100f46102e4565b6040516101019190611097565b60405180910390f35b610124600480360381019061011f9190611148565b61031d565b60405161013191906111a0565b60405180910390f35b610142610333565b60405161014f91906111c8565b60405180910390f35b610172600480360381019061016d91906111e1565b61033c565b60405161017f91906111a0565b60405180910390f35b6101906104ac565b60405161019d919061124c565b60405180910390f35b6101c060048036038101906101bb9190611148565b6104b1565b005b6101dc60048036038101906101d79190611265565b610692565b6040516101e991906111c8565b60405180910390f35b6101fa6106d8565b604051610207919061129f565b60405180910390f35b6102186106fc565b6040516102259190611097565b60405180910390f35b61024860048036038101906102439190611148565b610735565b005b610252610996565b60405161025f919061129f565b60405180910390f35b610282600480360381019061027d9190611148565b6109bb565b60405161028f91906111a0565b60405180910390f35b6102b260048036038101906102ad9190611265565b6109e1565b005b6102ce60048036038101906102c991906112b8565b610b20565b6040516102db91906111c8565b60405180910390f35b6040518060400160405280600781526020017f5369676e6974790000000000000000000000000000000000000000000000000081525081565b5f610329338484610ba2565b6001905092915050565b5f600154905090565b5f610345610d65565b8160035f8673ffffffffffffffffffffffffffffffffffffffff1673ffffffffffffffffffffffffffffffffffffffff1681526020019081526020015f205f3373ffffffffffffffffffffffffffffffffffffffff1673ffffffffffffffffffffffffffffffffffffffff1681526020019081526020015f20541015610400576040517f08c379a00000000000000000000000000000000000000000000000000000000081526004016103f790611366565b60405180910390fd5b61040b848484610db2565b61049984338460035f8973ffffffffffffffffffffffffffffffffffffffff1673ffffffffffffffffffffffffffffffffffffffff1681526020019081526020015f205f3373ffffffffffffffffffffffffffffffffffffffff1673ffffffffffffffffffffffffffffffffffffffff1681526020019081526020015f205461049491906113b1565b610ba2565b600190506104a561101e565b9392505050565b601281565b60045f9054906101000a900473ffffffffffffffffffffffffffffffffffffffff1673ffffffffffffffffffffffffffffffffffffffff163373ffffffffffffffffffffffffffffffffffffffff1614610540576040517f08c379a000000000000000000000000000000000000000000000000000000000815260040161053790611454565b60405180910390fd5b610548610d65565b5f73ffffffffffffffffffffffffffffffffffffffff168273ffffffffffffffffffffffffffffffffffffffff16036105b6576040517f08c379a00000000000000000000000000000000000000000000000000000000081526004016105ad906114e2565b60405180910390fd5b8060015f8282546105c79190611500565b925050819055508060025f8473ffffffffffffffffffffffffffffffffffffffff1673ffffffffffffffffffffffffffffffffffffffff1681526020019081526020015f205f82825461061a9190611500565b925050819055508173ffffffffffffffffffffffffffffffffffffffff165f73ffffffffffffffffffffffffffffffffffffffff167fddf252ad1be2c89b69c2b068fc378daa952ba7f163c4a11628f55a4df523b3ef8360405161067e91906111c8565b60405180910390a361068e61101e565b5050565b5f60025f8373ffffffffffffffffffffffffffffffffffffffff1673ffffffffffffffffffffffffffffffffffffffff1681526020019081526020015f20549050919050565b7f000000000000000000000000000000000000000000000000000000000000000081565b6040518060400160405280600481526020017f53474e540000000000000000000000000000000000000000000000000000000081525081565b60045f9054906101000a900473ffffffffffffffffffffffffffffffffffffffff1673ffffffffffffffffffffffffffffffffffffffff163373ffffffffffffffffffffffffffffffffffffffff16146107c4576040517f08c379a00000000000000000000000000000000000000000000000000000000081526004016107bb90611454565b60405180910390fd5b6107cc610d65565b5f73ffffffffffffffffffffffffffffffffffffffff168273ffffffffffffffffffffffffffffffffffffffff160361083a576040517f08c379a0000000000000000000000000000000000000000000000000000000008152600401610831906115a3565b60405180910390fd5b8060025f8473ffffffffffffffffffffffffffffffffffffffff1673ffffffffffffffffffffffffffffffffffffffff1681526020019081526020015f205410156108ba576040517f08c379a00000000000000000000000000000000000000000000000000000000081526004016108b190611631565b60405180910390fd5b8060025f8473ffffffffffffffffffffffffffffffffffffffff1673ffffffffffffffffffffffffffffffffffffffff1681526020019081526020015f205f82825461090691906113b1565b925050819055508060015f82825461091e91906113b1565b925050819055505f73ffffffffffffffffffffffffffffffffffffffff168273ffffffffffffffffffffffffffffffffffffffff167fddf252ad1be2c89b69c2b068fc378daa952ba7f163c4a11628f55a4df523b3ef8360405161098291906111c8565b60405180910390a361099261101e565b5050565b60045f9054906101000a900473ffffffffffffffffffffffffffffffffffffffff1681565b5f6109c4610d65565b6109cf338484610db2565b600190506109db61101e565b92915050565b7f000000000000000000000000000000000000000000000000000000000000000073ffffffffffffffffffffffffffffffffffffffff163373ffffffffffffffffffffffffffffffffffffffff1614610a6f576040517f08c379a0000000000000000000000000000000000000000000000000000000008152600401610a66906116bf565b60405180910390fd5b5f73ffffffffffffffffffffffffffffffffffffffff168173ffffffffffffffffffffffffffffffffffffffff1603610add576040517f08c379a0000000000000000000000000000000000000000000000000000000008152600401610ad49061174d565b60405180910390fd5b8060045f6101000a81548173ffffffffffffffffffffffffffffffffffffffff021916908373ffffffffffffffffffffffffffffffffffffffff16021790555050565b5f60035f8473ffffffffffffffffffffffffffffffffffffffff1673ffffffffffffffffffffffffffffffffffffffff1681526020019081526020015f205f8373ffffffffffffffffffffffffffffffffffffffff1673ffffffffffffffffffffffffffffffffffffffff1681526020019081526020015f2054905092915050565b5f73ffffffffffffffffffffffffffffffffffffffff168373ffffffffffffffffffffffffffffffffffffffff1603610c10576040517f08c379a0000000000000000000000000000000000000000000000000000000008152600401610c07906117db565b60405180910390fd5b5f73ffffffffffffffffffffffffffffffffffffffff168273ffffffffffffffffffffffffffffffffffffffff1603610c7e576040517f08c379a0000000000000000000000000000000000000000000000000000000008152600401610c7590611869565b60405180910390fd5b8060035f8573ffffffffffffffffffffffffffffffffffffffff1673ffffffffffffffffffffffffffffffffffffffff1681526020019081526020015f205f8473ffffffffffffffffffffffffffffffffffffffff1673ffffffffffffffffffffffffffffffffffffffff1681526020019081526020015f20819055508173ffffffffffffffffffffffffffffffffffffffff168373ffffffffffffffffffffffffffffffffffffffff167f8c5be1e5ebec7d5bd14f71427d1e84f3dd0314c0f7b2291e5b200ac8c7c3b92583604051610d5891906111c8565b60405180910390a3505050565b60025f5403610da9576040517f08c379a0000000000000000000000000000000000000000000000000000000008152600401610da0906118d1565b60405180910390fd5b60025f81905550565b5f73ffffffffffffffffffffffffffffffffffffffff168373ffffffffffffffffffffffffffffffffffffffff1603610e20576040517f08c379a0000000000000000000000000000000000000000000000000000000008152600401610e179061195f565b60405180910390fd5b5f73ffffffffffffffffffffffffffffffffffffffff168273ffffffffffffffffffffffffffffffffffffffff1603610e8e576040517f08c379a0000000000000000000000000000000000000000000000000000000008152600401610e85906119ed565b60405180910390fd5b8060025f8573ffffffffffffffffffffffffffffffffffffffff1673ffffffffffffffffffffffffffffffffffffffff1681526020019081526020015f20541015610f0e576040517f08c379a0000000000000000000000000000000000000000000000000000000008152600401610f0590611a7b565b60405180910390fd5b8060025f8573ffffffffffffffffffffffffffffffffffffffff1673ffffffffffffffffffffffffffffffffffffffff1681526020019081526020015f205f828254610f5a91906113b1565b925050819055508060025f8473ffffffffffffffffffffffffffffffffffffffff1673ffffffffffffffffffffffffffffffffffffffff1681526020019081526020015f205f828254610fad9190611500565b925050819055508173ffffffffffffffffffffffffffffffffffffffff168373ffffffffffffffffffffffffffffffffffffffff167fddf252ad1be2c89b69c2b068fc378daa952ba7f163c4a11628f55a4df523b3ef8360405161101191906111c8565b60405180910390a3505050565b60015f81905550565b5f81519050919050565b5f82825260208201905092915050565b8281835e5f83830152505050565b5f601f19601f8301169050919050565b5f61106982611027565b6110738185611031565b9350611083818560208601611041565b61108c8161104f565b840191505092915050565b5f6020820190508181035f8301526110af818461105f565b905092915050565b5f80fd5b5f73ffffffffffffffffffffffffffffffffffffffff82169050919050565b5f6110e4826110bb565b9050919050565b6110f4816110da565b81146110fe575f80fd5b50565b5f8135905061110f816110eb565b92915050565b5f819050919050565b61112781611115565b8114611131575f80fd5b50565b5f813590506111428161111e565b92915050565b5f806040838503121561115e5761115d6110b7565b5b5f61116b85828601611101565b925050602061117c85828601611134565b9150509250929050565b5f8115159050919050565b61119a81611186565b82525050565b5f6020820190506111b35f830184611191565b92915050565b6111c281611115565b82525050565b5f6020820190506111db5f8301846111b9565b92915050565b5f805f606084860312156111f8576111f76110b7565b5b5f61120586828701611101565b935050602061121686828701611101565b925050604061122786828701611134565b9150509250925092565b5f60ff82169050919050565b61124681611231565b82525050565b5f60208201905061125f5f83018461123d565b92915050565b5f6020828403121561127a576112796110b7565b5b5f61128784828501611101565b91505092915050565b611299816110da565b82525050565b5f6020820190506112b25f830184611290565b92915050565b5f80604083850312156112ce576112cd6110b7565b5b5f6112db85828601611101565b92505060206112ec85828601611101565b9150509250929050565b7f5369676e697479546f6b656e3a20696e73756666696369656e7420616c6c6f775f8201527f616e636500000000000000000000000000000000000000000000000000000000602082015250565b5f611350602483611031565b915061135b826112f6565b604082019050919050565b5f6020820190508181035f83015261137d81611344565b9050919050565b7f4e487b71000000000000000000000000000000000000000000000000000000005f52601160045260245ffd5b5f6113bb82611115565b91506113c683611115565b92508282039050818111156113de576113dd611384565b5b92915050565b7f5369676e697479546f6b656e3a2063616c6c6572206973206e6f74205369676e5f8201527f6974794e46540000000000000000000000000000000000000000000000000000602082015250565b5f61143e602683611031565b9150611449826113e4565b604082019050919050565b5f6020820190508181035f83015261146b81611432565b9050919050565b7f5369676e697479546f6b656e3a206d696e7420746f20746865207a65726f20615f8201527f6464726573730000000000000000000000000000000000000000000000000000602082015250565b5f6114cc602683611031565b91506114d782611472565b604082019050919050565b5f6020820190508181035f8301526114f9816114c0565b9050919050565b5f61150a82611115565b915061151583611115565b925082820190508082111561152d5761152c611384565b5b92915050565b7f5369676e697479546f6b656e3a206275726e2066726f6d20746865207a65726f5f8201527f2061646472657373000000000000000000000000000000000000000000000000602082015250565b5f61158d602883611031565b915061159882611533565b604082019050919050565b5f6020820190508181035f8301526115ba81611581565b9050919050565b7f5369676e697479546f6b656e3a206275726e20616d6f756e74206578636565645f8201527f732062616c616e63650000000000000000000000000000000000000000000000602082015250565b5f61161b602983611031565b9150611626826115c1565b604082019050919050565b5f6020820190508181035f8301526116488161160f565b9050919050565b7f5369676e697479546f6b656e3a2063616c6c6572206973206e6f7420746865205f8201527f6f776e6572000000000000000000000000000000000000000000000000000000602082015250565b5f6116a9602583611031565b91506116b48261164f565b604082019050919050565b5f6020820190508181035f8301526116d68161169d565b9050919050565b7f5369676e697479546f6b656e3a20696e76616c6964205369676e6974794e46545f8201527f2061646472657373000000000000000000000000000000000000000000000000602082015250565b5f611737602883611031565b9150611742826116dd565b604082019050919050565b5f6020820190508181035f8301526117648161172b565b9050919050565b7f5369676e697479546f6b656e3a20617070726f76652066726f6d20746865207a5f8201527f65726f2061646472657373000000000000000000000000000000000000000000602082015250565b5f6117c5602b83611031565b91506117d08261176b565b604082019050919050565b5f6020820190508181035f8301526117f2816117b9565b9050919050565b7f5369676e697479546f6b656e3a20617070726f766520746f20746865207a65725f8201527f6f20616464726573730000000000000000000000000000000000000000000000602082015250565b5f611853602983611031565b915061185e826117f9565b604082019050919050565b5f6020820190508181035f83015261188081611847565b9050919050565b7f5265656e7472616e637947756172643a207265656e7472616e742063616c6c005f82015250565b5f6118bb601f83611031565b91506118c682611887565b602082019050919050565b5f6020820190508181035f8301526118e8816118af565b9050919050565b7f5369676e697479546f6b656e3a207472616e736665722066726f6d20746865205f8201527f7a65726f20616464726573730000000000000000000000000000000000000000602082015250565b5f611949602c83611031565b9150611954826118ef565b604082019050919050565b5f6020820190508181035f8301526119768161193d565b9050919050565b7f5369676e697479546f6b656e3a207472616e7366657220746f20746865207a655f8201527f726f206164647265737300000000000000000000000000000000000000000000602082015250565b5f6119d7602a83611031565b91506119e28261197d565b604082019050919050565b5f6020820190508181035f830152611a04816119cb565b9050919050565b7f5369676e697479546f6b656e3a207472616e7366657220616d6f756e742065785f8201527f63656564732062616c616e636500000000000000000000000000000000000000602082015250565b5f611a65602d83611031565b9150611a7082611a0b565b604082019050919050565b5f6020820190508181035f830152611a9281611a59565b905091905056fea264697066735822122098fdbe8a17833804d6ca059bfad34ed9ae9031606d8fde5f585a9d6860c0fa0e64736f6c634300081a0033",
					"opcodes": "PUSH1 0xA0 PUSH1 0x40 MSTORE CALLVALUE DUP1 ISZERO PUSH1 0xE JUMPI PUSH0 DUP1 REVERT JUMPDEST POP PUSH1 0x1 PUSH0 DUP2 SWAP1 SSTORE POP CALLER PUSH20 0xFFFFFFFFFFFFFFFFFFFFFFFFFFFFFFFFFFFFFFFF AND PUSH1 0x80 DUP2 PUSH20 0xFFFFFFFFFFFFFFFFFFFFFFFFFFFFFFFFFFFFFFFF AND DUP2 MSTORE POP POP PUSH1 0x80 MLOAD PUSH2 0x1ACF PUSH2 0x69 PUSH0 CODECOPY PUSH0 DUP2 DUP2 PUSH2 0x6DA ADD MSTORE PUSH2 0x9E3 ADD MSTORE PUSH2 0x1ACF PUSH0 RETURN INVALID PUSH1 0x80 PUSH1 0x40 MSTORE CALLVALUE DUP1 ISZERO PUSH2 0xF JUMPI PUSH0 DUP1 REVERT JUMPDEST POP PUSH1 0x4 CALLDATASIZE LT PUSH2 0xE8 JUMPI PUSH0 CALLDATALOAD PUSH1 0xE0 SHR DUP1 PUSH4 0x8DA5CB5B GT PUSH2 0x8A JUMPI DUP1 PUSH4 0xA196D01D GT PUSH2 0x64 JUMPI DUP1 PUSH4 0xA196D01D EQ PUSH2 0x24A JUMPI DUP1 PUSH4 0xA9059CBB EQ PUSH2 0x268 JUMPI DUP1 PUSH4 0xAEAA10D3 EQ PUSH2 0x298 JUMPI DUP1 PUSH4 0xDD62ED3E EQ PUSH2 0x2B4 JUMPI PUSH2 0xE8 JUMP JUMPDEST DUP1 PUSH4 0x8DA5CB5B EQ PUSH2 0x1F2 JUMPI DUP1 PUSH4 0x95D89B41 EQ PUSH2 0x210 JUMPI DUP1 PUSH4 0x9DC29FAC EQ PUSH2 0x22E JUMPI PUSH2 0xE8 JUMP JUMPDEST DUP1 PUSH4 0x23B872DD GT PUSH2 0xC6 JUMPI DUP1 PUSH4 0x23B872DD EQ PUSH2 0x158 JUMPI DUP1 PUSH4 0x313CE567 EQ PUSH2 0x188 JUMPI DUP1 PUSH4 0x40C10F19 EQ PUSH2 0x1A6 JUMPI DUP1 PUSH4 0x70A08231 EQ PUSH2 0x1C2 JUMPI PUSH2 0xE8 JUMP JUMPDEST DUP1 PUSH4 0x6FDDE03 EQ PUSH2 0xEC JUMPI DUP1 PUSH4 0x95EA7B3 EQ PUSH2 0x10A JUMPI DUP1 PUSH4 0x18160DDD EQ PUSH2 0x13A JUMPI JUMPDEST PUSH0 DUP1 REVERT JUMPDEST PUSH2 0xF4 PUSH2 0x2E4 JUMP JUMPDEST PUSH1 0x40 MLOAD PUSH2 0x101 SWAP2 SWAP1 PUSH2 0x1097 JUMP JUMPDEST PUSH1 0x40 MLOAD DUP1 SWAP2 SUB SWAP1 RETURN JUMPDEST PUSH2 0x124 PUSH1 0x4 DUP1 CALLDATASIZE SUB DUP2 ADD SWAP1 PUSH2 0x11F SWAP2 SWAP1 PUSH2 0x1148 JUMP JUMPDEST PUSH2 0x31D JUMP JUMPDEST PUSH1 0x40 MLOAD PUSH2 0x131 SWAP2 SWAP1 PUSH2 0x11A0 JUMP JUMPDEST PUSH1 0x40 MLOAD DUP1 SWAP2 SUB SWAP1 RETURN JUMPDEST PUSH2 0x142 PUSH2 0x333 JUMP JUMPDEST PUSH1 0x40 MLOAD PUSH2 0x14F SWAP2 SWAP1 PUSH2 0x11C8 JUMP JUMPDEST PUSH1 0x40 MLOAD DUP1 SWAP2 SUB SWAP1 RETURN JUMPDEST PUSH2 0x172 PUSH1 0x4 DUP1 CALLDATASIZE SUB DUP2 ADD SWAP1 PUSH2 0x16D SWAP2 SWAP1 PUSH2 0x11E1 JUMP JUMPDEST PUSH2 0x33C JUMP JUMPDEST PUSH1 0x40 MLOAD PUSH2 0x17F SWAP2 SWAP1 PUSH2 0x11A0 JUMP JUMPDEST PUSH1 0x40 MLOAD DUP1 SWAP2 SUB SWAP1 RETURN JUMPDEST PUSH2 0x190 PUSH2 0x4AC JUMP JUMPDEST PUSH1 0x40 MLOAD PUSH2 0x19D SWAP2 SWAP1 PUSH2 0x124C JUMP JUMPDEST PUSH1 0x40 MLOAD DUP1 SWAP2 SUB SWAP1 RETURN JUMPDEST PUSH2 0x1C0 PUSH1 0x4 DUP1 CALLDATASIZE SUB DUP2 ADD SWAP1 PUSH2 0x1BB SWAP2 SWAP1 PUSH2 0x1148 JUMP JUMPDEST PUSH2 0x4B1 JUMP JUMPDEST STOP JUMPDEST PUSH2 0x1DC PUSH1 0x4 DUP1 CALLDATASIZE SUB DUP2 ADD SWAP1 PUSH2 0x1D7 SWAP2 SWAP1 PUSH2 0x1265 JUMP JUMPDEST PUSH2 0x692 JUMP JUMPDEST PUSH1 0x40 MLOAD PUSH2 0x1E9 SWAP2 SWAP1 PUSH2 0x11C8 JUMP JUMPDEST PUSH1 0x40 MLOAD DUP1 SWAP2 SUB SWAP1 RETURN JUMPDEST PUSH2 0x1FA PUSH2 0x6D8 JUMP JUMPDEST PUSH1 0x40 MLOAD PUSH2 0x207 SWAP2 SWAP1 PUSH2 0x129F JUMP JUMPDEST PUSH1 0x40 MLOAD DUP1 SWAP2 SUB SWAP1 RETURN JUMPDEST PUSH2 0x218 PUSH2 0x6FC JUMP JUMPDEST PUSH1 0x40 MLOAD PUSH2 0x225 SWAP2 SWAP1 PUSH2 0x1097 JUMP JUMPDEST PUSH1 0x40 MLOAD DUP1 SWAP2 SUB SWAP1 RETURN JUMPDEST PUSH2 0x248 PUSH1 0x4 DUP1 CALLDATASIZE SUB DUP2 ADD SWAP1 PUSH2 0x243 SWAP2 SWAP1 PUSH2 0x1148 JUMP JUMPDEST PUSH2 0x735 JUMP JUMPDEST STOP JUMPDEST PUSH2 0x252 PUSH2 0x996 JUMP JUMPDEST PUSH1 0x40 MLOAD PUSH2 0x25F SWAP2 SWAP1 PUSH2 0x129F JUMP JUMPDEST PUSH1 0x40 MLOAD DUP1 SWAP2 SUB SWAP1 RETURN JUMPDEST PUSH2 0x282 PUSH1 0x4 DUP1 CALLDATASIZE SUB DUP2 ADD SWAP1 PUSH2 0x27D SWAP2 SWAP1 PUSH2 0x1148 JUMP JUMPDEST PUSH2 0x9BB JUMP JUMPDEST PUSH1 0x40 MLOAD PUSH2 0x28F SWAP2 SWAP1 PUSH2 0x11A0 JUMP JUMPDEST PUSH1 0x40 MLOAD DUP1 SWAP2 SUB SWAP1 RETURN JUMPDEST PUSH2 0x2B2 PUSH1 0x4 DUP1 CALLDATASIZE SUB DUP2 ADD SWAP1 PUSH2 0x2AD SWAP2 SWAP1 PUSH2 0x1265 JUMP JUMPDEST PUSH2 0x9E1 JUMP JUMPDEST STOP JUMPDEST PUSH2 0x2CE PUSH1 0x4 DUP1 CALLDATASIZE SUB DUP2 ADD SWAP1 PUSH2 0x2C9 SWAP2 SWAP1 PUSH2 0x12B8 JUMP JUMPDEST PUSH2 0xB20 JUMP JUMPDEST PUSH1 0x40 MLOAD PUSH2 0x2DB SWAP2 SWAP1 PUSH2 0x11C8 JUMP JUMPDEST PUSH1 0x40 MLOAD DUP1 SWAP2 SUB SWAP1 RETURN JUMPDEST PUSH1 0x40 MLOAD DUP1 PUSH1 0x40 ADD PUSH1 0x40 MSTORE DUP1 PUSH1 0x7 DUP2 MSTORE PUSH1 0x20 ADD PUSH32 0x5369676E69747900000000000000000000000000000000000000000000000000 DUP2 MSTORE POP DUP2 JUMP JUMPDEST PUSH0 PUSH2 0x329 CALLER DUP5 DUP5 PUSH2 0xBA2 JUMP JUMPDEST PUSH1 0x1 SWAP1 POP SWAP3 SWAP2 POP POP JUMP JUMPDEST PUSH0 PUSH1 0x1 SLOAD SWAP1 POP SWAP1 JUMP JUMPDEST PUSH0 PUSH2 0x345 PUSH2 0xD65 JUMP JUMPDEST DUP2 PUSH1 0x3 PUSH0 DUP7 PUSH20 0xFFFFFFFFFFFFFFFFFFFFFFFFFFFFFFFFFFFFFFFF AND PUSH20 0xFFFFFFFFFFFFFFFFFFFFFFFFFFFFFFFFFFFFFFFF AND DUP2 MSTORE PUSH1 0x20 ADD SWAP1 DUP2 MSTORE PUSH1 0x20 ADD PUSH0 KECCAK256 PUSH0 CALLER PUSH20 0xFFFFFFFFFFFFFFFFFFFFFFFFFFFFFFFFFFFFFFFF AND PUSH20 0xFFFFFFFFFFFFFFFFFFFFFFFFFFFFFFFFFFFFFFFF AND DUP2 MSTORE PUSH1 0x20 ADD SWAP1 DUP2 MSTORE PUSH1 0x20 ADD PUSH0 KECCAK256 SLOAD LT ISZERO PUSH2 0x400 JUMPI PUSH1 0x40 MLOAD PUSH32 0x8C379A000000000000000000000000000000000000000000000000000000000 DUP2 MSTORE PUSH1 0x4 ADD PUSH2 0x3F7 SWAP1 PUSH2 0x1366 JUMP JUMPDEST PUSH1 0x40 MLOAD DUP1 SWAP2 SUB SWAP1 REVERT JUMPDEST PUSH2 0x40B DUP5 DUP5 DUP5 PUSH2 0xDB2 JUMP JUMPDEST PUSH2 0x499 DUP5 CALLER DUP5 PUSH1 0x3 PUSH0 DUP10 PUSH20 0xFFFFFFFFFFFFFFFFFFFFFFFFFFFFFFFFFFFFFFFF AND PUSH20 0xFFFFFFFFFFFFFFFFFFFFFFFFFFFFFFFFFFFFFFFF AND DUP2 MSTORE PUSH1 0x20 ADD SWAP1 DUP2 MSTORE PUSH1 0x20 ADD PUSH0 KECCAK256 PUSH0 CALLER PUSH20 0xFFFFFFFFFFFFFFFFFFFFFFFFFFFFFFFFFFFFFFFF AND PUSH20 0xFFFFFFFFFFFFFFFFFFFFFFFFFFFFFFFFFFFFFFFF AND DUP2 MSTORE PUSH1 0x20 ADD SWAP1 DUP2 MSTORE PUSH1 0x20 ADD PUSH0 KECCAK256 SLOAD PUSH2 0x494 SWAP2 SWAP1 PUSH2 0x13B1 JUMP JUMPDEST PUSH2 0xBA2 JUMP JUMPDEST PUSH1 0x1 SWAP1 POP PUSH2 0x4A5 PUSH2 0x101E JUMP JUMPDEST SWAP4 SWAP3 POP POP POP JUMP JUMPDEST PUSH1 0x12 DUP2 JUMP JUMPDEST PUSH1 0x4 PUSH0 SWAP1 SLOAD SWAP1 PUSH2 0x100 EXP SWAP1 DIV PUSH20 0xFFFFFFFFFFFFFFFFFFFFFFFFFFFFFFFFFFFFFFFF AND PUSH20 0xFFFFFFFFFFFFFFFFFFFFFFFFFFFFFFFFFFFFFFFF AND CALLER PUSH20 0xFFFFFFFFFFFFFFFFFFFFFFFFFFFFFFFFFFFFFFFF AND EQ PUSH2 0x540 JUMPI PUSH1 0x40 MLOAD PUSH32 0x8C379A000000000000000000000000000000000000000000000000000000000 DUP2 MSTORE PUSH1 0x4 ADD PUSH2 0x537 SWAP1 PUSH2 0x1454 JUMP JUMPDEST PUSH1 0x40 MLOAD DUP1 SWAP2 SUB SWAP1 REVERT JUMPDEST PUSH2 0x548 PUSH2 0xD65 JUMP JUMPDEST PUSH0 PUSH20 0xFFFFFFFFFFFFFFFFFFFFFFFFFFFFFFFFFFFFFFFF AND DUP3 PUSH20 0xFFFFFFFFFFFFFFFFFFFFFFFFFFFFFFFFFFFFFFFF AND SUB PUSH2 0x5B6 JUMPI PUSH1 0x40 MLOAD PUSH32 0x8C379A000000000000000000000000000000000000000000000000000000000 DUP2 MSTORE PUSH1 0x4 ADD PUSH2 0x5AD SWAP1 PUSH2 0x14E2 JUMP JUMPDEST PUSH1 0x40 MLOAD DUP1 SWAP2 SUB SWAP1 REVERT JUMPDEST DUP1 PUSH1 0x1 PUSH0 DUP3 DUP3 SLOAD PUSH2 0x5C7 SWAP2 SWAP1 PUSH2 0x1500 JUMP JUMPDEST SWAP3 POP POP DUP2 SWAP1 SSTORE POP DUP1 PUSH1 0x2 PUSH0 DUP5 PUSH20 0xFFFFFFFFFFFFFFFFFFFFFFFFFFFFFFFFFFFFFFFF AND PUSH20 0xFFFFFFFFFFFFFFFFFFFFFFFFFFFFFFFFFFFFFFFF AND DUP2 MSTORE PUSH1 0x20 ADD SWAP1 DUP2 MSTORE PUSH1 0x20 ADD PUSH0 KECCAK256 PUSH0 DUP3 DUP3 SLOAD PUSH2 0x61A SWAP2 SWAP1 PUSH2 0x1500 JUMP JUMPDEST SWAP3 POP POP DUP2 SWAP1 SSTORE POP DUP2 PUSH20 0xFFFFFFFFFFFFFFFFFFFFFFFFFFFFFFFFFFFFFFFF AND PUSH0 PUSH20 0xFFFFFFFFFFFFFFFFFFFFFFFFFFFFFFFFFFFFFFFF AND PUSH32 0xDDF252AD1BE2C89B69C2B068FC378DAA952BA7F163C4A11628F55A4DF523B3EF DUP4 PUSH1 0x40 MLOAD PUSH2 0x67E SWAP2 SWAP1 PUSH2 0x11C8 JUMP JUMPDEST PUSH1 0x40 MLOAD DUP1 SWAP2 SUB SWAP1 LOG3 PUSH2 0x68E PUSH2 0x101E JUMP JUMPDEST POP POP JUMP JUMPDEST PUSH0 PUSH1 0x2 PUSH0 DUP4 PUSH20 0xFFFFFFFFFFFFFFFFFFFFFFFFFFFFFFFFFFFFFFFF AND PUSH20 0xFFFFFFFFFFFFFFFFFFFFFFFFFFFFFFFFFFFFFFFF AND DUP2 MSTORE PUSH1 0x20 ADD SWAP1 DUP2 MSTORE PUSH1 0x20 ADD PUSH0 KECCAK256 SLOAD SWAP1 POP SWAP2 SWAP1 POP JUMP JUMPDEST PUSH32 0x0 DUP2 JUMP JUMPDEST PUSH1 0x40 MLOAD DUP1 PUSH1 0x40 ADD PUSH1 0x40 MSTORE DUP1 PUSH1 0x4 DUP2 MSTORE PUSH1 0x20 ADD PUSH32 0x53474E5400000000000000000000000000000000000000000000000000000000 DUP2 MSTORE POP DUP2 JUMP JUMPDEST PUSH1 0x4 PUSH0 SWAP1 SLOAD SWAP1 PUSH2 0x100 EXP SWAP1 DIV PUSH20 0xFFFFFFFFFFFFFFFFFFFFFFFFFFFFFFFFFFFFFFFF AND PUSH20 0xFFFFFFFFFFFFFFFFFFFFFFFFFFFFFFFFFFFFFFFF AND CALLER PUSH20 0xFFFFFFFFFFFFFFFFFFFFFFFFFFFFFFFFFFFFFFFF AND EQ PUSH2 0x7C4 JUMPI PUSH1 0x40 MLOAD PUSH32 0x8C379A000000000000000000000000000000000000000000000000000000000 DUP2 MSTORE PUSH1 0x4 ADD PUSH2 0x7BB SWAP1 PUSH2 0x1454 JUMP JUMPDEST PUSH1 0x40 MLOAD DUP1 SWAP2 SUB SWAP1 REVERT JUMPDEST PUSH2 0x7CC PUSH2 0xD65 JUMP JUMPDEST PUSH0 PUSH20 0xFFFFFFFFFFFFFFFFFFFFFFFFFFFFFFFFFFFFFFFF AND DUP3 PUSH20 0xFFFFFFFFFFFFFFFFFFFFFFFFFFFFFFFFFFFFFFFF AND SUB PUSH2 0x83A JUMPI PUSH1 0x40 MLOAD PUSH32 0x8C379A000000000000000000000000000000000000000000000000000000000 DUP2 MSTORE PUSH1 0x4 ADD PUSH2 0x831 SWAP1 PUSH2 0x15A3 JUMP JUMPDEST PUSH1 0x40 MLOAD DUP1 SWAP2 SUB SWAP1 REVERT JUMPDEST DUP1 PUSH1 0x2 PUSH0 DUP5 PUSH20 0xFFFFFFFFFFFFFFFFFFFFFFFFFFFFFFFFFFFFFFFF AND PUSH20 0xFFFFFFFFFFFFFFFFFFFFFFFFFFFFFFFFFFFFFFFF AND DUP2 MSTORE PUSH1 0x20 ADD SWAP1 DUP2 MSTORE PUSH1 0x20 ADD PUSH0 KECCAK256 SLOAD LT ISZERO PUSH2 0x8BA JUMPI PUSH1 0x40 MLOAD PUSH32 0x8C379A000000000000000000000000000000000000000000000000000000000 DUP2 MSTORE PUSH1 0x4 ADD PUSH2 0x8B1 SWAP1 PUSH2 0x1631 JUMP JUMPDEST PUSH1 0x40 MLOAD DUP1 SWAP2 SUB SWAP1 REVERT JUMPDEST DUP1 PUSH1 0x2 PUSH0 DUP5 PUSH20 0xFFFFFFFFFFFFFFFFFFFFFFFFFFFFFFFFFFFFFFFF AND PUSH20 0xFFFFFFFFFFFFFFFFFFFFFFFFFFFFFFFFFFFFFFFF AND DUP2 MSTORE PUSH1 0x20 ADD SWAP1 DUP2 MSTORE PUSH1 0x20 ADD PUSH0 KECCAK256 PUSH0 DUP3 DUP3 SLOAD PUSH2 0x906 SWAP2 SWAP1 PUSH2 0x13B1 JUMP JUMPDEST SWAP3 POP POP DUP2 SWAP1 SSTORE POP DUP1 PUSH1 0x1 PUSH0 DUP3 DUP3 SLOAD PUSH2 0x91E SWAP2 SWAP1 PUSH2 0x13B1 JUMP JUMPDEST SWAP3 POP POP DUP2 SWAP1 SSTORE POP PUSH0 PUSH20 0xFFFFFFFFFFFFFFFFFFFFFFFFFFFFFFFFFFFFFFFF AND DUP3 PUSH20 0xFFFFFFFFFFFFFFFFFFFFFFFFFFFFFFFFFFFFFFFF AND PUSH32 0xDDF252AD1BE2C89B69C2B068FC378DAA952BA7F163C4A11628F55A4DF523B3EF DUP4 PUSH1 0x40 MLOAD PUSH2 0x982 SWAP2 SWAP1 PUSH2 0x11C8 JUMP JUMPDEST PUSH1 0x40 MLOAD DUP1 SWAP2 SUB SWAP1 LOG3 PUSH2 0x992 PUSH2 0x101E JUMP JUMPDEST POP POP JUMP JUMPDEST PUSH1 0x4 PUSH0 SWAP1 SLOAD SWAP1 PUSH2 0x100 EXP SWAP1 DIV PUSH20 0xFFFFFFFFFFFFFFFFFFFFFFFFFFFFFFFFFFFFFFFF AND DUP2 JUMP JUMPDEST PUSH0 PUSH2 0x9C4 PUSH2 0xD65 JUMP JUMPDEST PUSH2 0x9CF CALLER DUP5 DUP5 PUSH2 0xDB2 JUMP JUMPDEST PUSH1 0x1 SWAP1 POP PUSH2 0x9DB PUSH2 0x101E JUMP JUMPDEST SWAP3 SWAP2 POP POP JUMP JUMPDEST PUSH32 0x0 PUSH20 0xFFFFFFFFFFFFFFFFFFFFFFFFFFFFFFFFFFFFFFFF AND CALLER PUSH20 0xFFFFFFFFFFFFFFFFFFFFFFFFFFFFFFFFFFFFFFFF AND EQ PUSH2 0xA6F JUMPI PUSH1 0x40 MLOAD PUSH32 0x8C379A000000000000000000000000000000000000000000000000000000000 DUP2 MSTORE PUSH1 0x4 ADD PUSH2 0xA66 SWAP1 PUSH2 0x16BF JUMP JUMPDEST PUSH1 0x40 MLOAD DUP1 SWAP2 SUB SWAP1 REVERT JUMPDEST PUSH0 PUSH20 0xFFFFFFFFFFFFFFFFFFFFFFFFFFFFFFFFFFFFFFFF AND DUP2 PUSH20 0xFFFFFFFFFFFFFFFFFFFFFFFFFFFFFFFFFFFFFFFF AND SUB PUSH2 0xADD JUMPI PUSH1 0x40 MLOAD PUSH32 0x8C379A000000000000000000000000000000000000000000000000000000000 DUP2 MSTORE PUSH1 0x4 ADD PUSH2 0xAD4 SWAP1 PUSH2 0x174D JUMP JUMPDEST PUSH1 0x40 MLOAD DUP1 SWAP2 SUB SWAP1 REVERT JUMPDEST DUP1 PUSH1 0x4 PUSH0 PUSH2 0x100 EXP DUP2 SLOAD DUP2 PUSH20 0xFFFFFFFFFFFFFFFFFFFFFFFFFFFFFFFFFFFFFFFF MUL NOT AND SWAP1 DUP4 PUSH20 0xFFFFFFFFFFFFFFFFFFFFFFFFFFFFFFFFFFFFFFFF AND MUL OR SWAP1 SSTORE POP POP JUMP JUMPDEST PUSH0 PUSH1 0x3 PUSH0 DUP5 PUSH20 0xFFFFFFFFFFFFFFFFFFFFFFFFFFFFFFFFFFFFFFFF AND PUSH20 0xFFFFFFFFFFFFFFFFFFFFFFFFFFFFFFFFFFFFFFFF AND DUP2 MSTORE PUSH1 0x20 ADD SWAP1 DUP2 MSTORE PUSH1 0x20 ADD PUSH0 KECCAK256 PUSH0 DUP4 PUSH20 0xFFFFFFFFFFFFFFFFFFFFFFFFFFFFFFFFFFFFFFFF AND PUSH20 0xFFFFFFFFFFFFFFFFFFFFFFFFFFFFFFFFFFFFFFFF AND DUP2 MSTORE PUSH1 0x20 ADD SWAP1 DUP2 MSTORE PUSH1 0x20 ADD PUSH0 KECCAK256 SLOAD SWAP1 POP SWAP3 SWAP2 POP POP JUMP JUMPDEST PUSH0 PUSH20 0xFFFFFFFFFFFFFFFFFFFFFFFFFFFFFFFFFFFFFFFF AND DUP4 PUSH20 0xFFFFFFFFFFFFFFFFFFFFFFFFFFFFFFFFFFFFFFFF AND SUB PUSH2 0xC10 JUMPI PUSH1 0x40 MLOAD PUSH32 0x8C379A000000000000000000000000000000000000000000000000000000000 DUP2 MSTORE PUSH1 0x4 ADD PUSH2 0xC07 SWAP1 PUSH2 0x17DB JUMP JUMPDEST PUSH1 0x40 MLOAD DUP1 SWAP2 SUB SWAP1 REVERT JUMPDEST PUSH0 PUSH20 0xFFFFFFFFFFFFFFFFFFFFFFFFFFFFFFFFFFFFFFFF AND DUP3 PUSH20 0xFFFFFFFFFFFFFFFFFFFFFFFFFFFFFFFFFFFFFFFF AND SUB PUSH2 0xC7E JUMPI PUSH1 0x40 MLOAD PUSH32 0x8C379A000000000000000000000000000000000000000000000000000000000 DUP2 MSTORE PUSH1 0x4 ADD PUSH2 0xC75 SWAP1 PUSH2 0x1869 JUMP JUMPDEST PUSH1 0x40 MLOAD DUP1 SWAP2 SUB SWAP1 REVERT JUMPDEST DUP1 PUSH1 0x3 PUSH0 DUP6 PUSH20 0xFFFFFFFFFFFFFFFFFFFFFFFFFFFFFFFFFFFFFFFF AND PUSH20 0xFFFFFFFFFFFFFFFFFFFFFFFFFFFFFFFFFFFFFFFF AND DUP2 MSTORE PUSH1 0x20 ADD SWAP1 DUP2 MSTORE PUSH1 0x20 ADD PUSH0 KECCAK256 PUSH0 DUP5 PUSH20 0xFFFFFFFFFFFFFFFFFFFFFFFFFFFFFFFFFFFFFFFF AND PUSH20 0xFFFFFFFFFFFFFFFFFFFFFFFFFFFFFFFFFFFFFFFF AND DUP2 MSTORE PUSH1 0x20 ADD SWAP1 DUP2 MSTORE PUSH1 0x20 ADD PUSH0 KECCAK256 DUP2 SWAP1 SSTORE POP DUP2 PUSH20 0xFFFFFFFFFFFFFFFFFFFFFFFFFFFFFFFFFFFFFFFF AND DUP4 PUSH20 0xFFFFFFFFFFFFFFFFFFFFFFFFFFFFFFFFFFFFFFFF AND PUSH32 0x8C5BE1E5EBEC7D5BD14F71427D1E84F3DD0314C0F7B2291E5B200AC8C7C3B925 DUP4 PUSH1 0x40 MLOAD PUSH2 0xD58 SWAP2 SWAP1 PUSH2 0x11C8 JUMP JUMPDEST PUSH1 0x40 MLOAD DUP1 SWAP2 SUB SWAP1 LOG3 POP POP POP JUMP JUMPDEST PUSH1 0x2 PUSH0 SLOAD SUB PUSH2 0xDA9 JUMPI PUSH1 0x40 MLOAD PUSH32 0x8C379A000000000000000000000000000000000000000000000000000000000 DUP2 MSTORE PUSH1 0x4 ADD PUSH2 0xDA0 SWAP1 PUSH2 0x18D1 JUMP JUMPDEST PUSH1 0x40 MLOAD DUP1 SWAP2 SUB SWAP1 REVERT JUMPDEST PUSH1 0x2 PUSH0 DUP2 SWAP1 SSTORE POP JUMP JUMPDEST PUSH0 PUSH20 0xFFFFFFFFFFFFFFFFFFFFFFFFFFFFFFFFFFFFFFFF AND DUP4 PUSH20 0xFFFFFFFFFFFFFFFFFFFFFFFFFFFFFFFFFFFFFFFF AND SUB PUSH2 0xE20 JUMPI PUSH1 0x40 MLOAD PUSH32 0x8C379A000000000000000000000000000000000000000000000000000000000 DUP2 MSTORE PUSH1 0x4 ADD PUSH2 0xE17 SWAP1 PUSH2 0x195F JUMP JUMPDEST PUSH1 0x40 MLOAD DUP1 SWAP2 SUB SWAP1 REVERT JUMPDEST PUSH0 PUSH20 0xFFFFFFFFFFFFFFFFFFFFFFFFFFFFFFFFFFFFFFFF AND DUP3 PUSH20 0xFFFFFFFFFFFFFFFFFFFFFFFFFFFFFFFFFFFFFFFF AND SUB PUSH2 0xE8E JUMPI PUSH1 0x40 MLOAD PUSH32 0x8C379A000000000000000000000000000000000000000000000000000000000 DUP2 MSTORE PUSH1 0x4 ADD PUSH2 0xE85 SWAP1 PUSH2 0x19ED JUMP JUMPDEST PUSH1 0x40 MLOAD DUP1 SWAP2 SUB SWAP1 REVERT JUMPDEST DUP1 PUSH1 0x2 PUSH0 DUP6 PUSH20 0xFFFFFFFFFFFFFFFFFFFFFFFFFFFFFFFFFFFFFFFF AND PUSH20 0xFFFFFFFFFFFFFFFFFFFFFFFFFFFFFFFFFFFFFFFF AND DUP2 MSTORE PUSH1 0x20 ADD SWAP1 DUP2 MSTORE PUSH1 0x20 ADD PUSH0 KECCAK256 SLOAD LT ISZERO PUSH2 0xF0E JUMPI PUSH1 0x40 MLOAD PUSH32 0x8C379A000000000000000000000000000000000000000000000000000000000 DUP2 MSTORE PUSH1 0x4 ADD PUSH2 0xF05 SWAP1 PUSH2 0x1A7B JUMP JUMPDEST PUSH1 0x40 MLOAD DUP1 SWAP2 SUB SWAP1 REVERT JUMPDEST DUP1 PUSH1 0x2 PUSH0 DUP6 PUSH20 0xFFFFFFFFFFFFFFFFFFFFFFFFFFFFFFFFFFFFFFFF AND PUSH20 0xFFFFFFFFFFFFFFFFFFFFFFFFFFFFFFFFFFFFFFFF AND DUP2 MSTORE PUSH1 0x20 ADD SWAP1 DUP2 MSTORE PUSH1 0x20 ADD PUSH0 KECCAK256 PUSH0 DUP3 DUP3 SLOAD PUSH2 0xF5A SWAP2 SWAP1 PUSH2 0x13B1 JUMP JUMPDEST SWAP3 POP POP DUP2 SWAP1 SSTORE POP DUP1 PUSH1 0x2 PUSH0 DUP5 PUSH20 0xFFFFFFFFFFFFFFFFFFFFFFFFFFFFFFFFFFFFFFFF AND PUSH20 0xFFFFFFFFFFFFFFFFFFFFFFFFFFFFFFFFFFFFFFFF AND DUP2 MSTORE PUSH1 0x20 ADD SWAP1 DUP2 MSTORE PUSH1 0x20 ADD PUSH0 KECCAK256 PUSH0 DUP3 DUP3 SLOAD PUSH2 0xFAD SWAP2 SWAP1 PUSH2 0x1500 JUMP JUMPDEST SWAP3 POP POP DUP2 SWAP1 SSTORE POP DUP2 PUSH20 0xFFFFFFFFFFFFFFFFFFFFFFFFFFFFFFFFFFFFFFFF AND DUP4 PUSH20 0xFFFFFFFFFFFFFFFFFFFFFFFFFFFFFFFFFFFFFFFF AND PUSH32 0xDDF252AD1BE2C89B69C2B068FC378DAA952BA7F163C4A11628F55A4DF523B3EF DUP4 PUSH1 0x40 MLOAD PUSH2 0x1011 SWAP2 SWAP1 PUSH2 0x11C8 JUMP JUMPDEST PUSH1 0x40 MLOAD DUP1 SWAP2 SUB SWAP1 LOG3 POP POP POP JUMP JUMPDEST PUSH1 0x1 PUSH0 DUP2 SWAP1 SSTORE POP JUMP JUMPDEST PUSH0 DUP2 MLOAD SWAP1 POP SWAP2 SWAP1 POP JUMP JUMPDEST PUSH0 DUP3 DUP3 MSTORE PUSH1 0x20 DUP3 ADD SWAP1 POP SWAP3 SWAP2 POP POP JUMP JUMPDEST DUP3 DUP2 DUP4 MCOPY PUSH0 DUP4 DUP4 ADD MSTORE POP POP POP JUMP JUMPDEST PUSH0 PUSH1 0x1F NOT PUSH1 0x1F DUP4 ADD AND SWAP1 POP SWAP2 SWAP1 POP JUMP JUMPDEST PUSH0 PUSH2 0x1069 DUP3 PUSH2 0x1027 JUMP JUMPDEST PUSH2 0x1073 DUP2 DUP6 PUSH2 0x1031 JUMP JUMPDEST SWAP4 POP PUSH2 0x1083 DUP2 DUP6 PUSH1 0x20 DUP7 ADD PUSH2 0x1041 JUMP JUMPDEST PUSH2 0x108C DUP2 PUSH2 0x104F JUMP JUMPDEST DUP5 ADD SWAP2 POP POP SWAP3 SWAP2 POP POP JUMP JUMPDEST PUSH0 PUSH1 0x20 DUP3 ADD SWAP1 POP DUP2 DUP2 SUB PUSH0 DUP4 ADD MSTORE PUSH2 0x10AF DUP2 DUP5 PUSH2 0x105F JUMP JUMPDEST SWAP1 POP SWAP3 SWAP2 POP POP JUMP JUMPDEST PUSH0 DUP1 REVERT JUMPDEST PUSH0 PUSH20 0xFFFFFFFFFFFFFFFFFFFFFFFFFFFFFFFFFFFFFFFF DUP3 AND SWAP1 POP SWAP2 SWAP1 POP JUMP JUMPDEST PUSH0 PUSH2 0x10E4 DUP3 PUSH2 0x10BB JUMP JUMPDEST SWAP1 POP SWAP2 SWAP1 POP JUMP JUMPDEST PUSH2 0x10F4 DUP2 PUSH2 0x10DA JUMP JUMPDEST DUP2 EQ PUSH2 0x10FE JUMPI PUSH0 DUP1 REVERT JUMPDEST POP JUMP JUMPDEST PUSH0 DUP2 CALLDATALOAD SWAP1 POP PUSH2 0x110F DUP2 PUSH2 0x10EB JUMP JUMPDEST SWAP3 SWAP2 POP POP JUMP JUMPDEST PUSH0 DUP2 SWAP1 POP SWAP2 SWAP1 POP JUMP JUMPDEST PUSH2 0x1127 DUP2 PUSH2 0x1115 JUMP JUMPDEST DUP2 EQ PUSH2 0x1131 JUMPI PUSH0 DUP1 REVERT JUMPDEST POP JUMP JUMPDEST PUSH0 DUP2 CALLDATALOAD SWAP1 POP PUSH2 0x1142 DUP2 PUSH2 0x111E JUMP JUMPDEST SWAP3 SWAP2 POP POP JUMP JUMPDEST PUSH0 DUP1 PUSH1 0x40 DUP4 DUP6 SUB SLT ISZERO PUSH2 0x115E JUMPI PUSH2 0x115D PUSH2 0x10B7 JUMP JUMPDEST JUMPDEST PUSH0 PUSH2 0x116B DUP6 DUP3 DUP7 ADD PUSH2 0x1101 JUMP JUMPDEST SWAP3 POP POP PUSH1 0x20 PUSH2 0x117C DUP6 DUP3 DUP7 ADD PUSH2 0x1134 JUMP JUMPDEST SWAP2 POP POP SWAP3 POP SWAP3 SWAP1 POP JUMP JUMPDEST PUSH0 DUP2 ISZERO ISZERO SWAP1 POP SWAP2 SWAP1 POP JUMP JUMPDEST PUSH2 0x119A DUP2 PUSH2 0x1186 JUMP JUMPDEST DUP3 MSTORE POP POP JUMP JUMPDEST PUSH0 PUSH1 0x20 DUP3 ADD SWAP1 POP PUSH2 0x11B3 PUSH0 DUP4 ADD DUP5 PUSH2 0x1191 JUMP JUMPDEST SWAP3 SWAP2 POP POP JUMP JUMPDEST PUSH2 0x11C2 DUP2 PUSH2 0x1115 JUMP JUMPDEST DUP3 MSTORE POP POP JUMP JUMPDEST PUSH0 PUSH1 0x20 DUP3 ADD SWAP1 POP PUSH2 0x11DB PUSH0 DUP4 ADD DUP5 PUSH2 0x11B9 JUMP JUMPDEST SWAP3 SWAP2 POP POP JUMP JUMPDEST PUSH0 DUP1 PUSH0 PUSH1 0x60 DUP5 DUP7 SUB SLT ISZERO PUSH2 0x11F8 JUMPI PUSH2 0x11F7 PUSH2 0x10B7 JUMP JUMPDEST JUMPDEST PUSH0 PUSH2 0x1205 DUP7 DUP3 DUP8 ADD PUSH2 0x1101 JUMP JUMPDEST SWAP4 POP POP PUSH1 0x20 PUSH2 0x1216 DUP7 DUP3 DUP8 ADD PUSH2 0x1101 JUMP JUMPDEST SWAP3 POP POP PUSH1 0x40 PUSH2 0x1227 DUP7 DUP3 DUP8 ADD PUSH2 0x1134 JUMP JUMPDEST SWAP2 POP POP SWAP3 POP SWAP3 POP SWAP3 JUMP JUMPDEST PUSH0 PUSH1 0xFF DUP3 AND SWAP1 POP SWAP2 SWAP1 POP JUMP JUMPDEST PUSH2 0x1246 DUP2 PUSH2 0x1231 JUMP JUMPDEST DUP3 MSTORE POP POP JUMP JUMPDEST PUSH0 PUSH1 0x20 DUP3 ADD SWAP1 POP PUSH2 0x125F PUSH0 DUP4 ADD DUP5 PUSH2 0x123D JUMP JUMPDEST SWAP3 SWAP2 POP POP JUMP JUMPDEST PUSH0 PUSH1 0x20 DUP3 DUP5 SUB SLT ISZERO PUSH2 0x127A JUMPI PUSH2 0x1279 PUSH2 0x10B7 JUMP JUMPDEST JUMPDEST PUSH0 PUSH2 0x1287 DUP5 DUP3 DUP6 ADD PUSH2 0x1101 JUMP JUMPDEST SWAP2 POP POP SWAP3 SWAP2 POP POP JUMP JUMPDEST PUSH2 0x1299 DUP2 PUSH2 0x10DA JUMP JUMPDEST DUP3 MSTORE POP POP JUMP JUMPDEST PUSH0 PUSH1 0x20 DUP3 ADD SWAP1 POP PUSH2 0x12B2 PUSH0 DUP4 ADD DUP5 PUSH2 0x1290 JUMP JUMPDEST SWAP3 SWAP2 POP POP JUMP JUMPDEST PUSH0 DUP1 PUSH1 0x40 DUP4 DUP6 SUB SLT ISZERO PUSH2 0x12CE JUMPI PUSH2 0x12CD PUSH2 0x10B7 JUMP JUMPDEST JUMPDEST PUSH0 PUSH2 0x12DB DUP6 DUP3 DUP7 ADD PUSH2 0x1101 JUMP JUMPDEST SWAP3 POP POP PUSH1 0x20 PUSH2 0x12EC DUP6 DUP3 DUP7 ADD PUSH2 0x1101 JUMP JUMPDEST SWAP2 POP POP SWAP3 POP SWAP3 SWAP1 POP JUMP JUMPDEST PUSH32 0x5369676E697479546F6B656E3A20696E73756666696369656E7420616C6C6F77 PUSH0 DUP3 ADD MSTORE PUSH32 0x616E636500000000000000000000000000000000000000000000000000000000 PUSH1 0x20 DUP3 ADD MSTORE POP JUMP JUMPDEST PUSH0 PUSH2 0x1350 PUSH1 0x24 DUP4 PUSH2 0x1031 JUMP JUMPDEST SWAP2 POP PUSH2 0x135B DUP3 PUSH2 0x12F6 JUMP JUMPDEST PUSH1 0x40 DUP3 ADD SWAP1 POP SWAP2 SWAP1 POP JUMP JUMPDEST PUSH0 PUSH1 0x20 DUP3 ADD SWAP1 POP DUP2 DUP2 SUB PUSH0 DUP4 ADD MSTORE PUSH2 0x137D DUP2 PUSH2 0x1344 JUMP JUMPDEST SWAP1 POP SWAP2 SWAP1 POP JUMP JUMPDEST PUSH32 0x4E487B7100000000000000000000000000000000000000000000000000000000 PUSH0 MSTORE PUSH1 0x11 PUSH1 0x4 MSTORE PUSH1 0x24 PUSH0 REVERT JUMPDEST PUSH0 PUSH2 0x13BB DUP3 PUSH2 0x1115 JUMP JUMPDEST SWAP2 POP PUSH2 0x13C6 DUP4 PUSH2 0x1115 JUMP JUMPDEST SWAP3 POP DUP3 DUP3 SUB SWAP1 POP DUP2 DUP2 GT ISZERO PUSH2 0x13DE JUMPI PUSH2 0x13DD PUSH2 0x1384 JUMP JUMPDEST JUMPDEST SWAP3 SWAP2 POP POP JUMP JUMPDEST PUSH32 0x5369676E697479546F6B656E3A2063616C6C6572206973206E6F74205369676E PUSH0 DUP3 ADD MSTORE PUSH32 0x6974794E46540000000000000000000000000000000000000000000000000000 PUSH1 0x20 DUP3 ADD MSTORE POP JUMP JUMPDEST PUSH0 PUSH2 0x143E PUSH1 0x26 DUP4 PUSH2 0x1031 JUMP JUMPDEST SWAP2 POP PUSH2 0x1449 DUP3 PUSH2 0x13E4 JUMP JUMPDEST PUSH1 0x40 DUP3 ADD SWAP1 POP SWAP2 SWAP1 POP JUMP JUMPDEST PUSH0 PUSH1 0x20 DUP3 ADD SWAP1 POP DUP2 DUP2 SUB PUSH0 DUP4 ADD MSTORE PUSH2 0x146B DUP2 PUSH2 0x1432 JUMP JUMPDEST SWAP1 POP SWAP2 SWAP1 POP JUMP JUMPDEST PUSH32 0x5369676E697479546F6B656E3A206D696E7420746F20746865207A65726F2061 PUSH0 DUP3 ADD MSTORE PUSH32 0x6464726573730000000000000000000000000000000000000000000000000000 PUSH1 0x20 DUP3 ADD MSTORE POP JUMP JUMPDEST PUSH0 PUSH2 0x14CC PUSH1 0x26 DUP4 PUSH2 0x1031 JUMP JUMPDEST SWAP2 POP PUSH2 0x14D7 DUP3 PUSH2 0x1472 JUMP JUMPDEST PUSH1 0x40 DUP3 ADD SWAP1 POP SWAP2 SWAP1 POP JUMP JUMPDEST PUSH0 PUSH1 0x20 DUP3 ADD SWAP1 POP DUP2 DUP2 SUB PUSH0 DUP4 ADD MSTORE PUSH2 0x14F9 DUP2 PUSH2 0x14C0 JUMP JUMPDEST SWAP1 POP SWAP2 SWAP1 POP JUMP JUMPDEST PUSH0 PUSH2 0x150A DUP3 PUSH2 0x1115 JUMP JUMPDEST SWAP2 POP PUSH2 0x1515 DUP4 PUSH2 0x1115 JUMP JUMPDEST SWAP3 POP DUP3 DUP3 ADD SWAP1 POP DUP1 DUP3 GT ISZERO PUSH2 0x152D JUMPI PUSH2 0x152C PUSH2 0x1384 JUMP JUMPDEST JUMPDEST SWAP3 SWAP2 POP POP JUMP JUMPDEST PUSH32 0x5369676E697479546F6B656E3A206275726E2066726F6D20746865207A65726F PUSH0 DUP3 ADD MSTORE PUSH32 0x2061646472657373000000000000000000000000000000000000000000000000 PUSH1 0x20 DUP3 ADD MSTORE POP JUMP JUMPDEST PUSH0 PUSH2 0x158D PUSH1 0x28 DUP4 PUSH2 0x1031 JUMP JUMPDEST SWAP2 POP PUSH2 0x1598 DUP3 PUSH2 0x1533 JUMP JUMPDEST PUSH1 0x40 DUP3 ADD SWAP1 POP SWAP2 SWAP1 POP JUMP JUMPDEST PUSH0 PUSH1 0x20 DUP3 ADD SWAP1 POP DUP2 DUP2 SUB PUSH0 DUP4 ADD MSTORE PUSH2 0x15BA DUP2 PUSH2 0x1581 JUMP JUMPDEST SWAP1 POP SWAP2 SWAP1 POP JUMP JUMPDEST PUSH32 0x5369676E697479546F6B656E3A206275726E20616D6F756E7420657863656564 PUSH0 DUP3 ADD MSTORE PUSH32 0x732062616C616E63650000000000000000000000000000000000000000000000 PUSH1 0x20 DUP3 ADD MSTORE POP JUMP JUMPDEST PUSH0 PUSH2 0x161B PUSH1 0x29 DUP4 PUSH2 0x1031 JUMP JUMPDEST SWAP2 POP PUSH2 0x1626 DUP3 PUSH2 0x15C1 JUMP JUMPDEST PUSH1 0x40 DUP3 ADD SWAP1 POP SWAP2 SWAP1 POP JUMP JUMPDEST PUSH0 PUSH1 0x20 DUP3 ADD SWAP1 POP DUP2 DUP2 SUB PUSH0 DUP4 ADD MSTORE PUSH2 0x1648 DUP2 PUSH2 0x160F JUMP JUMPDEST SWAP1 POP SWAP2 SWAP1 POP JUMP JUMPDEST PUSH32 0x5369676E697479546F6B656E3A2063616C6C6572206973206E6F742074686520 PUSH0 DUP3 ADD MSTORE PUSH32 0x6F776E6572000000000000000000000000000000000000000000000000000000 PUSH1 0x20 DUP3 ADD MSTORE POP JUMP JUMPDEST PUSH0 PUSH2 0x16A9 PUSH1 0x25 DUP4 PUSH2 0x1031 JUMP JUMPDEST SWAP2 POP PUSH2 0x16B4 DUP3 PUSH2 0x164F JUMP JUMPDEST PUSH1 0x40 DUP3 ADD SWAP1 POP SWAP2 SWAP1 POP JUMP JUMPDEST PUSH0 PUSH1 0x20 DUP3 ADD SWAP1 POP DUP2 DUP2 SUB PUSH0 DUP4 ADD MSTORE PUSH2 0x16D6 DUP2 PUSH2 0x169D JUMP JUMPDEST SWAP1 POP SWAP2 SWAP1 POP JUMP JUMPDEST PUSH32 0x5369676E697479546F6B656E3A20696E76616C6964205369676E6974794E4654 PUSH0 DUP3 ADD MSTORE PUSH32 0x2061646472657373000000000000000000000000000000000000000000000000 PUSH1 0x20 DUP3 ADD MSTORE POP JUMP JUMPDEST PUSH0 PUSH2 0x1737 PUSH1 0x28 DUP4 PUSH2 0x1031 JUMP JUMPDEST SWAP2 POP PUSH2 0x1742 DUP3 PUSH2 0x16DD JUMP JUMPDEST PUSH1 0x40 DUP3 ADD SWAP1 POP SWAP2 SWAP1 POP JUMP JUMPDEST PUSH0 PUSH1 0x20 DUP3 ADD SWAP1 POP DUP2 DUP2 SUB PUSH0 DUP4 ADD MSTORE PUSH2 0x1764 DUP2 PUSH2 0x172B JUMP JUMPDEST SWAP1 POP SWAP2 SWAP1 POP JUMP JUMPDEST PUSH32 0x5369676E697479546F6B656E3A20617070726F76652066726F6D20746865207A PUSH0 DUP3 ADD MSTORE PUSH32 0x65726F2061646472657373000000000000000000000000000000000000000000 PUSH1 0x20 DUP3 ADD MSTORE POP JUMP JUMPDEST PUSH0 PUSH2 0x17C5 PUSH1 0x2B DUP4 PUSH2 0x1031 JUMP JUMPDEST SWAP2 POP PUSH2 0x17D0 DUP3 PUSH2 0x176B JUMP JUMPDEST PUSH1 0x40 DUP3 ADD SWAP1 POP SWAP2 SWAP1 POP JUMP JUMPDEST PUSH0 PUSH1 0x20 DUP3 ADD SWAP1 POP DUP2 DUP2 SUB PUSH0 DUP4 ADD MSTORE PUSH2 0x17F2 DUP2 PUSH2 0x17B9 JUMP JUMPDEST SWAP1 POP SWAP2 SWAP1 POP JUMP JUMPDEST PUSH32 0x5369676E697479546F6B656E3A20617070726F766520746F20746865207A6572 PUSH0 DUP3 ADD MSTORE PUSH32 0x6F20616464726573730000000000000000000000000000000000000000000000 PUSH1 0x20 DUP3 ADD MSTORE POP JUMP JUMPDEST PUSH0 PUSH2 0x1853 PUSH1 0x29 DUP4 PUSH2 0x1031 JUMP JUMPDEST SWAP2 POP PUSH2 0x185E DUP3 PUSH2 0x17F9 JUMP JUMPDEST PUSH1 0x40 DUP3 ADD SWAP1 POP SWAP2 SWAP1 POP JUMP JUMPDEST PUSH0 PUSH1 0x20 DUP3 ADD SWAP1 POP DUP2 DUP2 SUB PUSH0 DUP4 ADD MSTORE PUSH2 0x1880 DUP2 PUSH2 0x1847 JUMP JUMPDEST SWAP1 POP SWAP2 SWAP1 POP JUMP JUMPDEST PUSH32 0x5265656E7472616E637947756172643A207265656E7472616E742063616C6C00 PUSH0 DUP3 ADD MSTORE POP JUMP JUMPDEST PUSH0 PUSH2 0x18BB PUSH1 0x1F DUP4 PUSH2 0x1031 JUMP JUMPDEST SWAP2 POP PUSH2 0x18C6 DUP3 PUSH2 0x1887 JUMP JUMPDEST PUSH1 0x20 DUP3 ADD SWAP1 POP SWAP2 SWAP1 POP JUMP JUMPDEST PUSH0 PUSH1 0x20 DUP3 ADD SWAP1 POP DUP2 DUP2 SUB PUSH0 DUP4 ADD MSTORE PUSH2 0x18E8 DUP2 PUSH2 0x18AF JUMP JUMPDEST SWAP1 POP SWAP2 SWAP1 POP JUMP JUMPDEST PUSH32 0x5369676E697479546F6B656E3A207472616E736665722066726F6D2074686520 PUSH0 DUP3 ADD MSTORE PUSH32 0x7A65726F20616464726573730000000000000000000000000000000000000000 PUSH1 0x20 DUP3 ADD MSTORE POP JUMP JUMPDEST PUSH0 PUSH2 0x1949 PUSH1 0x2C DUP4 PUSH2 0x1031 JUMP JUMPDEST SWAP2 POP PUSH2 0x1954 DUP3 PUSH2 0x18EF JUMP JUMPDEST PUSH1 0x40 DUP3 ADD SWAP1 POP SWAP2 SWAP1 POP JUMP JUMPDEST PUSH0 PUSH1 0x20 DUP3 ADD SWAP1 POP DUP2 DUP2 SUB PUSH0 DUP4 ADD MSTORE PUSH2 0x1976 DUP2 PUSH2 0x193D JUMP JUMPDEST SWAP1 POP SWAP2 SWAP1 POP JUMP JUMPDEST PUSH32 0x5369676E697479546F6B656E3A207472616E7366657220746F20746865207A65 PUSH0 DUP3 ADD MSTORE PUSH32 0x726F206164647265737300000000000000000000000000000000000000000000 PUSH1 0x20 DUP3 ADD MSTORE POP JUMP JUMPDEST PUSH0 PUSH2 0x19D7 PUSH1 0x2A DUP4 PUSH2 0x1031 JUMP JUMPDEST SWAP2 POP PUSH2 0x19E2 DUP3 PUSH2 0x197D JUMP JUMPDEST PUSH1 0x40 DUP3 ADD SWAP1 POP SWAP2 SWAP1 POP JUMP JUMPDEST PUSH0 PUSH1 0x20 DUP3 ADD SWAP1 POP DUP2 DUP2 SUB PUSH0 DUP4 ADD MSTORE PUSH2 0x1A04 DUP2 PUSH2 0x19CB JUMP JUMPDEST SWAP1 POP SWAP2 SWAP1 POP JUMP JUMPDEST PUSH32 0x5369676E697479546F6B656E3A207472616E7366657220616D6F756E74206578 PUSH0 DUP3 ADD MSTORE PUSH32 0x63656564732062616C616E636500000000000000000000000000000000000000 PUSH1 0x20 DUP3 ADD MSTORE POP JUMP JUMPDEST PUSH0 PUSH2 0x1A65 PUSH1 0x2D DUP4 PUSH2 0x1031 JUMP JUMPDEST SWAP2 POP PUSH2 0x1A70 DUP3 PUSH2 0x1A0B JUMP JUMPDEST PUSH1 0x40 DUP3 ADD SWAP1 POP SWAP2 SWAP1 POP JUMP JUMPDEST PUSH0 PUSH1 0x20 DUP3 ADD SWAP1 POP DUP2 DUP2 SUB PUSH0 DUP4 ADD MSTORE PUSH2 0x1A92 DUP2 PUSH2 0x1A59 JUMP JUMPDEST SWAP1 POP SWAP2 SWAP1 POP JUMP INVALID LOG2 PUSH5 0x6970667358 0x22 SLT KECCAK256 SWAP9 REVERT 0xBE DUP11 OR DUP4 CODESIZE DIV 0xD6 0xCA SDIV SWAP12 STATICCALL 0xD3 0x4E 0xD9 0xAE SWAP1 BALANCE PUSH1 0x6D DUP16 0xDE PUSH0 PC GAS SWAP14 PUSH9 0x60C0FA0E64736F6C63 NUMBER STOP ADDMOD BYTE STOP CALLER "
				},
				"gasEstimates": {
					"creation": {
						"codeDepositCost": "1372600",
						"executionCost": "infinite",
						"totalCost": "infinite"
					},
					"external": {
						"allowance(address,address)": "infinite",
						"approve(address,uint256)": "infinite",
						"balanceOf(address)": "2918",
						"burn(address,uint256)": "infinite",
						"decimals()": "376",
						"mint(address,uint256)": "infinite",
						"name()": "infinite",
						"owner()": "infinite",
						"setSignityNFT(address)": "infinite",
						"signityNFT()": "2530",
						"symbol()": "infinite",
						"totalSupply()": "2500",
						"transfer(address,uint256)": "infinite",
						"transferFrom(address,address,uint256)": "infinite"
					},
					"internal": {
						"_approve(address,address,uint256)": "infinite",
						"_transfer(address,address,uint256)": "infinite"
					}
				},
				"methodIdentifiers": {
					"allowance(address,address)": "dd62ed3e",
					"approve(address,uint256)": "095ea7b3",
					"balanceOf(address)": "70a08231",
					"burn(address,uint256)": "9dc29fac",
					"decimals()": "313ce567",
					"mint(address,uint256)": "40c10f19",
					"name()": "06fdde03",
					"owner()": "8da5cb5b",
					"setSignityNFT(address)": "aeaa10d3",
					"signityNFT()": "a196d01d",
					"symbol()": "95d89b41",
					"totalSupply()": "18160ddd",
					"transfer(address,uint256)": "a9059cbb",
					"transferFrom(address,address,uint256)": "23b872dd"
				}
			},
			"storageLayout": {
				"storage": [
					{
						"astId": 158,
						"contract": "Signity/interfaces/ISignToken.sol:SignityToken",
						"label": "_status",
						"offset": 0,
						"slot": "0",
						"type": "t_uint256"
					},
					{
						"astId": 337,
						"contract": "Signity/interfaces/ISignToken.sol:SignityToken",
						"label": "_totalSupply",
						"offset": 0,
						"slot": "1",
						"type": "t_uint256"
					},
					{
						"astId": 341,
						"contract": "Signity/interfaces/ISignToken.sol:SignityToken",
						"label": "_balances",
						"offset": 0,
						"slot": "2",
						"type": "t_mapping(t_address,t_uint256)"
					},
					{
						"astId": 347,
						"contract": "Signity/interfaces/ISignToken.sol:SignityToken",
						"label": "_allowances",
						"offset": 0,
						"slot": "3",
						"type": "t_mapping(t_address,t_mapping(t_address,t_uint256))"
					},
					{
						"astId": 351,
						"contract": "Signity/interfaces/ISignToken.sol:SignityToken",
						"label": "signityNFT",
						"offset": 0,
						"slot": "4",
						"type": "t_address"
					}
				],
				"types": {
					"t_address": {
						"encoding": "inplace",
						"label": "address",
						"numberOfBytes": "20"
					},
					"t_mapping(t_address,t_mapping(t_address,t_uint256))": {
						"encoding": "mapping",
						"key": "t_address",
						"label": "mapping(address => mapping(address => uint256))",
						"numberOfBytes": "32",
						"value": "t_mapping(t_address,t_uint256)"
					},
					"t_mapping(t_address,t_uint256)": {
						"encoding": "mapping",
						"key": "t_address",
						"label": "mapping(address => uint256)",
						"numberOfBytes": "32",
						"value": "t_uint256"
					},
					"t_uint256": {
						"encoding": "inplace",
						"label": "uint256",
						"numberOfBytes": "32"
					}
				}
			},
			"userdoc": {
				"kind": "user",
				"methods": {},
				"version": 1
			}
		}
	}
}