{
	"Wallery/PaintingShares.sol": {
		"PaintingShares": {
			"abi": [
				{
					"inputs": [
						{
							"internalType": "address",
							"name": "initialOwner",
							"type": "address"
						}
					],
					"stateMutability": "nonpayable",
					"type": "constructor"
				},
				{
					"inputs": [
						{
							"internalType": "address",
							"name": "owner",
							"type": "address"
						}
					],
					"name": "OwnableInvalidOwner",
					"type": "error"
				},
				{
					"inputs": [
						{
							"internalType": "address",
							"name": "account",
							"type": "address"
						}
					],
					"name": "OwnableUnauthorizedAccount",
					"type": "error"
				},
				{
					"anonymous": false,
					"inputs": [
						{
							"indexed": true,
							"internalType": "uint256",
							"name": "paintingId",
							"type": "uint256"
						},
						{
							"indexed": true,
							"internalType": "address",
							"name": "owner",
							"type": "address"
						},
						{
							"indexed": true,
							"internalType": "address",
							"name": "spender",
							"type": "address"
						},
						{
							"indexed": false,
							"internalType": "uint256",
							"name": "value",
							"type": "uint256"
						}
					],
					"name": "Approval",
					"type": "event"
				},
				{
					"anonymous": false,
					"inputs": [
						{
							"indexed": true,
							"internalType": "address",
							"name": "previousOwner",
							"type": "address"
						},
						{
							"indexed": true,
							"internalType": "address",
							"name": "newOwner",
							"type": "address"
						}
					],
					"name": "OwnershipTransferred",
					"type": "event"
				},
				{
					"anonymous": false,
					"inputs": [
						{
							"indexed": false,
							"internalType": "address",
							"name": "account",
							"type": "address"
						}
					],
					"name": "Paused",
					"type": "event"
				},
				{
					"anonymous": false,
					"inputs": [
						{
							"indexed": true,
							"internalType": "uint256",
							"name": "paintingId",
							"type": "uint256"
						},
						{
							"indexed": false,
							"internalType": "string",
							"name": "name",
							"type": "string"
						},
						{
							"indexed": false,
							"internalType": "string",
							"name": "symbol",
							"type": "string"
						},
						{
							"indexed": false,
							"internalType": "uint256",
							"name": "platformShares",
							"type": "uint256"
						},
						{
							"indexed": false,
							"internalType": "uint256",
							"name": "wallOwnerShares",
							"type": "uint256"
						},
						{
							"indexed": false,
							"internalType": "uint256",
							"name": "galleryOwnerShares",
							"type": "uint256"
						},
						{
							"indexed": false,
							"internalType": "uint256",
							"name": "painterShares",
							"type": "uint256"
						}
					],
					"name": "SharesCreated",
					"type": "event"
				},
				{
					"anonymous": false,
					"inputs": [
						{
							"indexed": true,
							"internalType": "uint256",
							"name": "paintingId",
							"type": "uint256"
						},
						{
							"indexed": true,
							"internalType": "address",
							"name": "from",
							"type": "address"
						},
						{
							"indexed": true,
							"internalType": "address",
							"name": "to",
							"type": "address"
						},
						{
							"indexed": false,
							"internalType": "uint256",
							"name": "value",
							"type": "uint256"
						}
					],
					"name": "Transfer",
					"type": "event"
				},
				{
					"anonymous": false,
					"inputs": [
						{
							"indexed": false,
							"internalType": "address",
							"name": "account",
							"type": "address"
						}
					],
					"name": "Unpaused",
					"type": "event"
				},
				{
					"inputs": [],
					"name": "TOTAL_SHARES",
					"outputs": [
						{
							"internalType": "uint256",
							"name": "",
							"type": "uint256"
						}
					],
					"stateMutability": "view",
					"type": "function"
				},
				{
					"inputs": [
						{
							"internalType": "address",
							"name": "",
							"type": "address"
						},
						{
							"internalType": "address",
							"name": "",
							"type": "address"
						},
						{
							"internalType": "uint256",
							"name": "",
							"type": "uint256"
						}
					],
					"name": "allowance",
					"outputs": [
						{
							"internalType": "uint256",
							"name": "",
							"type": "uint256"
						}
					],
					"stateMutability": "view",
					"type": "function"
				},
				{
					"inputs": [
						{
							"internalType": "uint256",
							"name": "paintingId",
							"type": "uint256"
						},
						{
							"internalType": "address",
							"name": "spender",
							"type": "address"
						},
						{
							"internalType": "uint256",
							"name": "amount",
							"type": "uint256"
						}
					],
					"name": "approve",
					"outputs": [
						{
							"internalType": "bool",
							"name": "",
							"type": "bool"
						}
					],
					"stateMutability": "nonpayable",
					"type": "function"
				},
				{
					"inputs": [
						{
							"internalType": "address",
							"name": "",
							"type": "address"
						},
						{
							"internalType": "uint256",
							"name": "",
							"type": "uint256"
						}
					],
					"name": "balanceOf",
					"outputs": [
						{
							"internalType": "uint256",
							"name": "",
							"type": "uint256"
						}
					],
					"stateMutability": "view",
					"type": "function"
				},
				{
					"inputs": [
						{
							"internalType": "uint256",
							"name": "paintingId",
							"type": "uint256"
						},
						{
							"internalType": "address",
							"name": "platformAdmin",
							"type": "address"
						},
						{
							"internalType": "address",
							"name": "wallOwner",
							"type": "address"
						},
						{
							"internalType": "address",
							"name": "galleryOwner",
							"type": "address"
						},
						{
							"internalType": "address",
							"name": "painter",
							"type": "address"
						},
						{
							"internalType": "uint256",
							"name": "platformPercentage",
							"type": "uint256"
						},
						{
							"internalType": "uint256",
							"name": "wallOwnerPercentage",
							"type": "uint256"
						},
						{
							"internalType": "uint256",
							"name": "galleryOwnerPercentage",
							"type": "uint256"
						}
					],
					"name": "createSharesForPainting",
					"outputs": [],
					"stateMutability": "nonpayable",
					"type": "function"
				},
				{
					"inputs": [
						{
							"internalType": "uint256",
							"name": "paintingId",
							"type": "uint256"
						}
					],
					"name": "getShareInfo",
					"outputs": [
						{
							"internalType": "string",
							"name": "name",
							"type": "string"
						},
						{
							"internalType": "string",
							"name": "symbol",
							"type": "string"
						},
						{
							"internalType": "uint256",
							"name": "totalSupply",
							"type": "uint256"
						},
						{
							"internalType": "bool",
							"name": "exists",
							"type": "bool"
						}
					],
					"stateMutability": "view",
					"type": "function"
				},
				{
					"inputs": [],
					"name": "owner",
					"outputs": [
						{
							"internalType": "address",
							"name": "",
							"type": "address"
						}
					],
					"stateMutability": "view",
					"type": "function"
				},
				{
					"inputs": [],
					"name": "paintingNFTContract",
					"outputs": [
						{
							"internalType": "address",
							"name": "",
							"type": "address"
						}
					],
					"stateMutability": "view",
					"type": "function"
				},
				{
					"inputs": [],
					"name": "pause",
					"outputs": [],
					"stateMutability": "nonpayable",
					"type": "function"
				},
				{
					"inputs": [],
					"name": "paused",
					"outputs": [
						{
							"internalType": "bool",
							"name": "",
							"type": "bool"
						}
					],
					"stateMutability": "view",
					"type": "function"
				},
				{
					"inputs": [],
					"name": "renounceOwnership",
					"outputs": [],
					"stateMutability": "nonpayable",
					"type": "function"
				},
				{
					"inputs": [
						{
							"internalType": "address",
							"name": "_paintingNFTContract",
							"type": "address"
						}
					],
					"name": "setPaintingNFTContract",
					"outputs": [],
					"stateMutability": "nonpayable",
					"type": "function"
				},
				{
					"inputs": [
						{
							"internalType": "uint256",
							"name": "",
							"type": "uint256"
						}
					],
					"name": "shares",
					"outputs": [
						{
							"internalType": "string",
							"name": "name",
							"type": "string"
						},
						{
							"internalType": "string",
							"name": "symbol",
							"type": "string"
						},
						{
							"internalType": "uint256",
							"name": "totalSupply",
							"type": "uint256"
						},
						{
							"internalType": "bool",
							"name": "exists",
							"type": "bool"
						}
					],
					"stateMutability": "view",
					"type": "function"
				},
				{
					"inputs": [
						{
							"internalType": "uint256",
							"name": "paintingId",
							"type": "uint256"
						},
						{
							"internalType": "address",
							"name": "to",
							"type": "address"
						},
						{
							"internalType": "uint256",
							"name": "amount",
							"type": "uint256"
						}
					],
					"name": "transfer",
					"outputs": [
						{
							"internalType": "bool",
							"name": "",
							"type": "bool"
						}
					],
					"stateMutability": "nonpayable",
					"type": "function"
				},
				{
					"inputs": [
						{
							"internalType": "uint256",
							"name": "paintingId",
							"type": "uint256"
						},
						{
							"internalType": "address",
							"name": "from",
							"type": "address"
						},
						{
							"internalType": "address",
							"name": "to",
							"type": "address"
						},
						{
							"internalType": "uint256",
							"name": "amount",
							"type": "uint256"
						}
					],
					"name": "transferFrom",
					"outputs": [
						{
							"internalType": "bool",
							"name": "",
							"type": "bool"
						}
					],
					"stateMutability": "nonpayable",
					"type": "function"
				},
				{
					"inputs": [
						{
							"internalType": "address",
							"name": "newOwner",
							"type": "address"
						}
					],
					"name": "transferOwnership",
					"outputs": [],
					"stateMutability": "nonpayable",
					"type": "function"
				},
				{
					"inputs": [],
					"name": "unpause",
					"outputs": [],
					"stateMutability": "nonpayable",
					"type": "function"
				}
			],
			"devdoc": {
				"errors": {
					"OwnableInvalidOwner(address)": [
						{
							"details": "The owner is not a valid owner account. (eg. `address(0)`)"
						}
					],
					"OwnableUnauthorizedAccount(address)": [
						{
							"details": "The caller account is not authorized to perform an operation."
						}
					]
				},
				"events": {
					"Paused(address)": {
						"details": "Emitted when the pause is triggered by `account`."
					},
					"Unpaused(address)": {
						"details": "Emitted when the pause is lifted by `account`."
					}
				},
				"kind": "dev",
				"methods": {
					"owner()": {
						"details": "Returns the address of the current owner."
					},
					"paused()": {
						"details": "Returns true if the contract is paused, and false otherwise."
					},
					"renounceOwnership()": {
						"details": "Leaves the contract without owner. It will not be possible to call `onlyOwner` functions. Can only be called by the current owner. NOTE: Renouncing ownership will leave the contract without an owner, thereby disabling any functionality that is only available to the owner."
					},
					"transferOwnership(address)": {
						"details": "Transfers ownership of the contract to a new account (`newOwner`). Can only be called by the current owner."
					}
				},
				"version": 1
			},
			"evm": {
				"assembly": "    /* \"Wallery/PaintingShares.sol\":237:7272  contract PaintingShares is Ownable, Pausable, ReentrancyGuard {... */\n  mstore(0x40, 0x80)\n    /* \"Wallery/PaintingShares.sol\":1507:1640  constructor(address initialOwner) Ownable(initialOwner) {... */\n  callvalue\n  dup1\n  iszero\n  tag_1\n  jumpi\n  0x00\n  dup1\n  revert\ntag_1:\n  pop\n  mload(0x40)\n  sub(codesize, bytecodeSize)\n  dup1\n  bytecodeSize\n  dup4\n  codecopy\n  dup2\n  dup2\n  add\n  0x40\n  mstore\n  dup2\n  add\n  swap1\n  tag_2\n  swap2\n  swap1\n  tag_3\n  jump\t// in\ntag_2:\n    /* \"Wallery/PaintingShares.sol\":1549:1561  initialOwner */\n  dup1\n    /* \"@openzeppelin/contracts/access/Ownable.sol\":1297:1298  0 */\n  0x00\n    /* \"@openzeppelin/contracts/access/Ownable.sol\":1273:1299  initialOwner == address(0) */\n  0xffffffffffffffffffffffffffffffffffffffff\n  and\n    /* \"@openzeppelin/contracts/access/Ownable.sol\":1273:1285  initialOwner */\n  dup2\n    /* \"@openzeppelin/contracts/access/Ownable.sol\":1273:1299  initialOwner == address(0) */\n  0xffffffffffffffffffffffffffffffffffffffff\n  and\n  sub\n    /* \"@openzeppelin/contracts/access/Ownable.sol\":1269:1364  if (initialOwner == address(0)) {... */\n  tag_9\n  jumpi\n    /* \"@openzeppelin/contracts/access/Ownable.sol\":1350:1351  0 */\n  0x00\n    /* \"@openzeppelin/contracts/access/Ownable.sol\":1322:1353  OwnableInvalidOwner(address(0)) */\n  mload(0x40)\n  0x1e4fbdf700000000000000000000000000000000000000000000000000000000\n  dup2\n  mstore\n  0x04\n  add\n  tag_10\n  swap2\n  swap1\n  tag_11\n  jump\t// in\ntag_10:\n  mload(0x40)\n  dup1\n  swap2\n  sub\n  swap1\n  revert\n    /* \"@openzeppelin/contracts/access/Ownable.sol\":1269:1364  if (initialOwner == address(0)) {... */\ntag_9:\n    /* \"@openzeppelin/contracts/access/Ownable.sol\":1373:1405  _transferOwnership(initialOwner) */\n  tag_12\n    /* \"@openzeppelin/contracts/access/Ownable.sol\":1392:1404  initialOwner */\n  dup2\n    /* \"@openzeppelin/contracts/access/Ownable.sol\":1373:1391  _transferOwnership */\n  shl(0x20, tag_13)\n    /* \"@openzeppelin/contracts/access/Ownable.sol\":1373:1405  _transferOwnership(initialOwner) */\n  0x20\n  shr\n  jump\t// in\ntag_12:\n    /* \"@openzeppelin/contracts/access/Ownable.sol\":1225:1412  constructor(address initialOwner) {... */\n  pop\n    /* \"@openzeppelin/contracts/security/Pausable.sol\":1006:1011  false */\n  0x00\n    /* \"@openzeppelin/contracts/security/Pausable.sol\":996:1003  _paused */\n  dup1\n  0x14\n    /* \"@openzeppelin/contracts/security/Pausable.sol\":996:1011  _paused = false */\n  0x0100\n  exp\n  dup2\n  sload\n  dup2\n  0xff\n  mul\n  not\n  and\n  swap1\n  dup4\n  iszero\n  iszero\n  mul\n  or\n  swap1\n  sstore\n  pop\n    /* \"@openzeppelin/contracts/security/ReentrancyGuard.sol\":1716:1717  1 */\n  0x01\n    /* \"@openzeppelin/contracts/security/ReentrancyGuard.sol\":1821:1828  _status */\n  dup1\n    /* \"@openzeppelin/contracts/security/ReentrancyGuard.sol\":1821:1843  _status = _NOT_ENTERED */\n  dup2\n  swap1\n  sstore\n  pop\n    /* \"Wallery/PaintingShares.sol\":1574:1582  _pause() */\n  tag_17\n    /* \"Wallery/PaintingShares.sol\":1574:1580  _pause */\n  shl(0x20, tag_18)\n    /* \"Wallery/PaintingShares.sol\":1574:1582  _pause() */\n  0x20\n  shr\n  jump\t// in\ntag_17:\n    /* \"Wallery/PaintingShares.sol\":1507:1640  constructor(address initialOwner) Ownable(initialOwner) {... */\n  pop\n    /* \"Wallery/PaintingShares.sol\":237:7272  contract PaintingShares is Ownable, Pausable, ReentrancyGuard {... */\n  jump(tag_19)\n    /* \"@openzeppelin/contracts/access/Ownable.sol\":2912:3099  function _transferOwnership(address newOwner) internal virtual {... */\ntag_13:\n    /* \"@openzeppelin/contracts/access/Ownable.sol\":2985:3001  address oldOwner */\n  0x00\n    /* \"@openzeppelin/contracts/access/Ownable.sol\":3004:3010  _owner */\n  dup1\n  0x00\n  swap1\n  sload\n  swap1\n  0x0100\n  exp\n  swap1\n  div\n  0xffffffffffffffffffffffffffffffffffffffff\n  and\n    /* \"@openzeppelin/contracts/access/Ownable.sol\":2985:3010  address oldOwner = _owner */\n  swap1\n  pop\n    /* \"@openzeppelin/contracts/access/Ownable.sol\":3029:3037  newOwner */\n  dup2\n    /* \"@openzeppelin/contracts/access/Ownable.sol\":3020:3026  _owner */\n  0x00\n  dup1\n    /* \"@openzeppelin/contracts/access/Ownable.sol\":3020:3037  _owner = newOwner */\n  0x0100\n  exp\n  dup2\n  sload\n  dup2\n  0xffffffffffffffffffffffffffffffffffffffff\n  mul\n  not\n  and\n  swap1\n  dup4\n  0xffffffffffffffffffffffffffffffffffffffff\n  and\n  mul\n  or\n  swap1\n  sstore\n  pop\n    /* \"@openzeppelin/contracts/access/Ownable.sol\":3083:3091  newOwner */\n  dup2\n    /* \"@openzeppelin/contracts/access/Ownable.sol\":3052:3092  OwnershipTransferred(oldOwner, newOwner) */\n  0xffffffffffffffffffffffffffffffffffffffff\n  and\n    /* \"@openzeppelin/contracts/access/Ownable.sol\":3073:3081  oldOwner */\n  dup2\n    /* \"@openzeppelin/contracts/access/Ownable.sol\":3052:3092  OwnershipTransferred(oldOwner, newOwner) */\n  0xffffffffffffffffffffffffffffffffffffffff\n  and\n  0x8be0079c531659141344cd1fd0a4f28419497f9722a3daafe3b4186f6b6457e0\n  mload(0x40)\n  mload(0x40)\n  dup1\n  swap2\n  sub\n  swap1\n  log3\n    /* \"@openzeppelin/contracts/access/Ownable.sol\":2975:3099  {... */\n  pop\n    /* \"@openzeppelin/contracts/access/Ownable.sol\":2912:3099  function _transferOwnership(address newOwner) internal virtual {... */\n  pop\n  jump\t// out\n    /* \"@openzeppelin/contracts/security/Pausable.sol\":2186:2301  function _pause() internal virtual whenNotPaused {... */\ntag_18:\n    /* \"@openzeppelin/contracts/security/Pausable.sol\":1239:1258  _requireNotPaused() */\n  tag_22\n    /* \"@openzeppelin/contracts/security/Pausable.sol\":1239:1256  _requireNotPaused */\n  shl(0x20, tag_23)\n    /* \"@openzeppelin/contracts/security/Pausable.sol\":1239:1258  _requireNotPaused() */\n  0x20\n  shr\n  jump\t// in\ntag_22:\n    /* \"@openzeppelin/contracts/security/Pausable.sol\":2255:2259  true */\n  0x01\n    /* \"@openzeppelin/contracts/security/Pausable.sol\":2245:2252  _paused */\n  0x00\n  0x14\n    /* \"@openzeppelin/contracts/security/Pausable.sol\":2245:2259  _paused = true */\n  0x0100\n  exp\n  dup2\n  sload\n  dup2\n  0xff\n  mul\n  not\n  and\n  swap1\n  dup4\n  iszero\n  iszero\n  mul\n  or\n  swap1\n  sstore\n  pop\n    /* \"@openzeppelin/contracts/security/Pausable.sol\":2274:2294  Paused(_msgSender()) */\n  0x62e78cea01bee320cd4e420270b5ea74000d11b0c9f74754ebdbfc544b05a258\n    /* \"@openzeppelin/contracts/security/Pausable.sol\":2281:2293  _msgSender() */\n  tag_25\n    /* \"@openzeppelin/contracts/security/Pausable.sol\":2281:2291  _msgSender */\n  shl(0x20, tag_26)\n    /* \"@openzeppelin/contracts/security/Pausable.sol\":2281:2293  _msgSender() */\n  0x20\n  shr\n  jump\t// in\ntag_25:\n    /* \"@openzeppelin/contracts/security/Pausable.sol\":2274:2294  Paused(_msgSender()) */\n  mload(0x40)\n  tag_27\n  swap2\n  swap1\n  tag_11\n  jump\t// in\ntag_27:\n  mload(0x40)\n  dup1\n  swap2\n  sub\n  swap1\n  log1\n    /* \"@openzeppelin/contracts/security/Pausable.sol\":2186:2301  function _pause() internal virtual whenNotPaused {... */\n  jump\t// out\n    /* \"@openzeppelin/contracts/security/Pausable.sol\":1767:1873  function _requireNotPaused() internal view virtual {... */\ntag_23:\n    /* \"@openzeppelin/contracts/security/Pausable.sol\":1837:1845  paused() */\n  tag_29\n    /* \"@openzeppelin/contracts/security/Pausable.sol\":1837:1843  paused */\n  shl(0x20, tag_30)\n    /* \"@openzeppelin/contracts/security/Pausable.sol\":1837:1845  paused() */\n  0x20\n  shr\n  jump\t// in\ntag_29:\n    /* \"@openzeppelin/contracts/security/Pausable.sol\":1836:1845  !paused() */\n  iszero\n    /* \"@openzeppelin/contracts/security/Pausable.sol\":1828:1866  require(!paused(), \"Pausable: paused\") */\n  tag_31\n  jumpi\n  mload(0x40)\n  0x08c379a000000000000000000000000000000000000000000000000000000000\n  dup2\n  mstore\n  0x04\n  add\n  tag_32\n  swap1\n  tag_33\n  jump\t// in\ntag_32:\n  mload(0x40)\n  dup1\n  swap2\n  sub\n  swap1\n  revert\ntag_31:\n    /* \"@openzeppelin/contracts/security/Pausable.sol\":1767:1873  function _requireNotPaused() internal view virtual {... */\n  jump\t// out\n    /* \"@openzeppelin/contracts/utils/Context.sol\":656:752  function _msgSender() internal view virtual returns (address) {... */\ntag_26:\n    /* \"@openzeppelin/contracts/utils/Context.sol\":709:716  address */\n  0x00\n    /* \"@openzeppelin/contracts/utils/Context.sol\":735:745  msg.sender */\n  caller\n    /* \"@openzeppelin/contracts/utils/Context.sol\":728:745  return msg.sender */\n  swap1\n  pop\n    /* \"@openzeppelin/contracts/utils/Context.sol\":656:752  function _msgSender() internal view virtual returns (address) {... */\n  swap1\n  jump\t// out\n    /* \"@openzeppelin/contracts/security/Pausable.sol\":1615:1699  function paused() public view virtual returns (bool) {... */\ntag_30:\n    /* \"@openzeppelin/contracts/security/Pausable.sol\":1662:1666  bool */\n  0x00\n    /* \"@openzeppelin/contracts/security/Pausable.sol\":1685:1692  _paused */\n  dup1\n  0x14\n  swap1\n  sload\n  swap1\n  0x0100\n  exp\n  swap1\n  div\n  0xff\n  and\n    /* \"@openzeppelin/contracts/security/Pausable.sol\":1678:1692  return _paused */\n  swap1\n  pop\n    /* \"@openzeppelin/contracts/security/Pausable.sol\":1615:1699  function paused() public view virtual returns (bool) {... */\n  swap1\n  jump\t// out\n    /* \"#utility.yul\":88:205   */\ntag_37:\n    /* \"#utility.yul\":197:198   */\n  0x00\n    /* \"#utility.yul\":194:195   */\n  dup1\n    /* \"#utility.yul\":187:199   */\n  revert\n    /* \"#utility.yul\":334:460   */\ntag_39:\n    /* \"#utility.yul\":371:378   */\n  0x00\n    /* \"#utility.yul\":411:453   */\n  0xffffffffffffffffffffffffffffffffffffffff\n    /* \"#utility.yul\":404:409   */\n  dup3\n    /* \"#utility.yul\":400:454   */\n  and\n    /* \"#utility.yul\":389:454   */\n  swap1\n  pop\n    /* \"#utility.yul\":334:460   */\n  swap2\n  swap1\n  pop\n  jump\t// out\n    /* \"#utility.yul\":466:562   */\ntag_40:\n    /* \"#utility.yul\":503:510   */\n  0x00\n    /* \"#utility.yul\":532:556   */\n  tag_53\n    /* \"#utility.yul\":550:555   */\n  dup3\n    /* \"#utility.yul\":532:556   */\n  tag_39\n  jump\t// in\ntag_53:\n    /* \"#utility.yul\":521:556   */\n  swap1\n  pop\n    /* \"#utility.yul\":466:562   */\n  swap2\n  swap1\n  pop\n  jump\t// out\n    /* \"#utility.yul\":568:690   */\ntag_41:\n    /* \"#utility.yul\":641:665   */\n  tag_55\n    /* \"#utility.yul\":659:664   */\n  dup2\n    /* \"#utility.yul\":641:665   */\n  tag_40\n  jump\t// in\ntag_55:\n    /* \"#utility.yul\":634:639   */\n  dup2\n    /* \"#utility.yul\":631:666   */\n  eq\n    /* \"#utility.yul\":621:684   */\n  tag_56\n  jumpi\n    /* \"#utility.yul\":680:681   */\n  0x00\n    /* \"#utility.yul\":677:678   */\n  dup1\n    /* \"#utility.yul\":670:682   */\n  revert\n    /* \"#utility.yul\":621:684   */\ntag_56:\n    /* \"#utility.yul\":568:690   */\n  pop\n  jump\t// out\n    /* \"#utility.yul\":696:839   */\ntag_42:\n    /* \"#utility.yul\":753:758   */\n  0x00\n    /* \"#utility.yul\":784:790   */\n  dup2\n    /* \"#utility.yul\":778:791   */\n  mload\n    /* \"#utility.yul\":769:791   */\n  swap1\n  pop\n    /* \"#utility.yul\":800:833   */\n  tag_58\n    /* \"#utility.yul\":827:832   */\n  dup2\n    /* \"#utility.yul\":800:833   */\n  tag_41\n  jump\t// in\ntag_58:\n    /* \"#utility.yul\":696:839   */\n  swap3\n  swap2\n  pop\n  pop\n  jump\t// out\n    /* \"#utility.yul\":845:1196   */\ntag_3:\n    /* \"#utility.yul\":915:921   */\n  0x00\n    /* \"#utility.yul\":964:966   */\n  0x20\n    /* \"#utility.yul\":952:961   */\n  dup3\n    /* \"#utility.yul\":943:950   */\n  dup5\n    /* \"#utility.yul\":939:962   */\n  sub\n    /* \"#utility.yul\":935:967   */\n  slt\n    /* \"#utility.yul\":932:1051   */\n  iszero\n  tag_60\n  jumpi\n    /* \"#utility.yul\":970:1049   */\n  tag_61\n  tag_37\n  jump\t// in\ntag_61:\n    /* \"#utility.yul\":932:1051   */\ntag_60:\n    /* \"#utility.yul\":1090:1091   */\n  0x00\n    /* \"#utility.yul\":1115:1179   */\n  tag_62\n    /* \"#utility.yul\":1171:1178   */\n  dup5\n    /* \"#utility.yul\":1162:1168   */\n  dup3\n    /* \"#utility.yul\":1151:1160   */\n  dup6\n    /* \"#utility.yul\":1147:1169   */\n  add\n    /* \"#utility.yul\":1115:1179   */\n  tag_42\n  jump\t// in\ntag_62:\n    /* \"#utility.yul\":1105:1179   */\n  swap2\n  pop\n    /* \"#utility.yul\":1061:1189   */\n  pop\n    /* \"#utility.yul\":845:1196   */\n  swap3\n  swap2\n  pop\n  pop\n  jump\t// out\n    /* \"#utility.yul\":1202:1320   */\ntag_43:\n    /* \"#utility.yul\":1289:1313   */\n  tag_64\n    /* \"#utility.yul\":1307:1312   */\n  dup2\n    /* \"#utility.yul\":1289:1313   */\n  tag_40\n  jump\t// in\ntag_64:\n    /* \"#utility.yul\":1284:1287   */\n  dup3\n    /* \"#utility.yul\":1277:1314   */\n  mstore\n    /* \"#utility.yul\":1202:1320   */\n  pop\n  pop\n  jump\t// out\n    /* \"#utility.yul\":1326:1548   */\ntag_11:\n    /* \"#utility.yul\":1419:1423   */\n  0x00\n    /* \"#utility.yul\":1457:1459   */\n  0x20\n    /* \"#utility.yul\":1446:1455   */\n  dup3\n    /* \"#utility.yul\":1442:1460   */\n  add\n    /* \"#utility.yul\":1434:1460   */\n  swap1\n  pop\n    /* \"#utility.yul\":1470:1541   */\n  tag_66\n    /* \"#utility.yul\":1538:1539   */\n  0x00\n    /* \"#utility.yul\":1527:1536   */\n  dup4\n    /* \"#utility.yul\":1523:1540   */\n  add\n    /* \"#utility.yul\":1514:1520   */\n  dup5\n    /* \"#utility.yul\":1470:1541   */\n  tag_43\n  jump\t// in\ntag_66:\n    /* \"#utility.yul\":1326:1548   */\n  swap3\n  swap2\n  pop\n  pop\n  jump\t// out\n    /* \"#utility.yul\":1554:1723   */\ntag_44:\n    /* \"#utility.yul\":1638:1649   */\n  0x00\n    /* \"#utility.yul\":1672:1678   */\n  dup3\n    /* \"#utility.yul\":1667:1670   */\n  dup3\n    /* \"#utility.yul\":1660:1679   */\n  mstore\n    /* \"#utility.yul\":1712:1716   */\n  0x20\n    /* \"#utility.yul\":1707:1710   */\n  dup3\n    /* \"#utility.yul\":1703:1717   */\n  add\n    /* \"#utility.yul\":1688:1717   */\n  swap1\n  pop\n    /* \"#utility.yul\":1554:1723   */\n  swap3\n  swap2\n  pop\n  pop\n  jump\t// out\n    /* \"#utility.yul\":1729:1895   */\ntag_45:\n    /* \"#utility.yul\":1869:1887   */\n  0x5061757361626c653a2070617573656400000000000000000000000000000000\n    /* \"#utility.yul\":1865:1866   */\n  0x00\n    /* \"#utility.yul\":1857:1863   */\n  dup3\n    /* \"#utility.yul\":1853:1867   */\n  add\n    /* \"#utility.yul\":1846:1888   */\n  mstore\n    /* \"#utility.yul\":1729:1895   */\n  pop\n  jump\t// out\n    /* \"#utility.yul\":1901:2267   */\ntag_46:\n    /* \"#utility.yul\":2043:2046   */\n  0x00\n    /* \"#utility.yul\":2064:2131   */\n  tag_70\n    /* \"#utility.yul\":2128:2130   */\n  0x10\n    /* \"#utility.yul\":2123:2126   */\n  dup4\n    /* \"#utility.yul\":2064:2131   */\n  tag_44\n  jump\t// in\ntag_70:\n    /* \"#utility.yul\":2057:2131   */\n  swap2\n  pop\n    /* \"#utility.yul\":2140:2233   */\n  tag_71\n    /* \"#utility.yul\":2229:2232   */\n  dup3\n    /* \"#utility.yul\":2140:2233   */\n  tag_45\n  jump\t// in\ntag_71:\n    /* \"#utility.yul\":2258:2260   */\n  0x20\n    /* \"#utility.yul\":2253:2256   */\n  dup3\n    /* \"#utility.yul\":2249:2261   */\n  add\n    /* \"#utility.yul\":2242:2261   */\n  swap1\n  pop\n    /* \"#utility.yul\":1901:2267   */\n  swap2\n  swap1\n  pop\n  jump\t// out\n    /* \"#utility.yul\":2273:2692   */\ntag_33:\n    /* \"#utility.yul\":2439:2443   */\n  0x00\n    /* \"#utility.yul\":2477:2479   */\n  0x20\n    /* \"#utility.yul\":2466:2475   */\n  dup3\n    /* \"#utility.yul\":2462:2480   */\n  add\n    /* \"#utility.yul\":2454:2480   */\n  swap1\n  pop\n    /* \"#utility.yul\":2526:2535   */\n  dup2\n    /* \"#utility.yul\":2520:2524   */\n  dup2\n    /* \"#utility.yul\":2516:2536   */\n  sub\n    /* \"#utility.yul\":2512:2513   */\n  0x00\n    /* \"#utility.yul\":2501:2510   */\n  dup4\n    /* \"#utility.yul\":2497:2514   */\n  add\n    /* \"#utility.yul\":2490:2537   */\n  mstore\n    /* \"#utility.yul\":2554:2685   */\n  tag_73\n    /* \"#utility.yul\":2680:2684   */\n  dup2\n    /* \"#utility.yul\":2554:2685   */\n  tag_46\n  jump\t// in\ntag_73:\n    /* \"#utility.yul\":2546:2685   */\n  swap1\n  pop\n    /* \"#utility.yul\":2273:2692   */\n  swap2\n  swap1\n  pop\n  jump\t// out\n    /* \"Wallery/PaintingShares.sol\":237:7272  contract PaintingShares is Ownable, Pausable, ReentrancyGuard {... */\ntag_19:\n  dataSize(sub_0)\n  dup1\n  dataOffset(sub_0)\n  0x00\n  codecopy\n  0x00\n  return\nstop\n\nsub_0: assembly {\n        /* \"Wallery/PaintingShares.sol\":237:7272  contract PaintingShares is Ownable, Pausable, ReentrancyGuard {... */\n      mstore(0x40, 0x80)\n      callvalue\n      dup1\n      iszero\n      tag_1\n      jumpi\n      0x00\n      dup1\n      revert\n    tag_1:\n      pop\n      jumpi(tag_2, lt(calldatasize, 0x04))\n      shr(0xe0, calldataload(0x00))\n      dup1\n      0x5c975abb\n      gt\n      tag_20\n      jumpi\n      dup1\n      0x8cb0a511\n      gt\n      tag_21\n      jumpi\n      dup1\n      0x8cb0a511\n      eq\n      tag_15\n      jumpi\n      dup1\n      0x8da5cb5b\n      eq\n      tag_16\n      jumpi\n      dup1\n      0xad324cce\n      eq\n      tag_17\n      jumpi\n      dup1\n      0xf2fde38b\n      eq\n      tag_18\n      jumpi\n      dup1\n      0xf8548e36\n      eq\n      tag_19\n      jumpi\n      jump(tag_2)\n    tag_21:\n      dup1\n      0x5c975abb\n      eq\n      tag_11\n      jumpi\n      dup1\n      0x715018a6\n      eq\n      tag_12\n      jumpi\n      dup1\n      0x8456cb59\n      eq\n      tag_13\n      jumpi\n      dup1\n      0x85e3f997\n      eq\n      tag_14\n      jumpi\n      jump(tag_2)\n    tag_20:\n      dup1\n      0x277b9efe\n      gt\n      tag_22\n      jumpi\n      dup1\n      0x277b9efe\n      eq\n      tag_7\n      jumpi\n      dup1\n      0x3f4ba83a\n      eq\n      tag_8\n      jumpi\n      dup1\n      0x57a858fc\n      eq\n      tag_9\n      jumpi\n      dup1\n      0x598af9e7\n      eq\n      tag_10\n      jumpi\n      jump(tag_2)\n    tag_22:\n      dup1\n      0xfdd58e\n      eq\n      tag_3\n      jumpi\n      dup1\n      0x17ba1245\n      eq\n      tag_4\n      jumpi\n      dup1\n      0x1c0f12b6\n      eq\n      tag_5\n      jumpi\n      dup1\n      0x1d92d3b9\n      eq\n      tag_6\n      jumpi\n    tag_2:\n      0x00\n      dup1\n      revert\n        /* \"Wallery/PaintingShares.sol\":665:729  mapping(address => mapping(uint256 => uint256)) public balanceOf */\n    tag_3:\n      tag_23\n      0x04\n      dup1\n      calldatasize\n      sub\n      dup2\n      add\n      swap1\n      tag_24\n      swap2\n      swap1\n      tag_25\n      jump\t// in\n    tag_24:\n      tag_26\n      jump\t// in\n    tag_23:\n      mload(0x40)\n      tag_27\n      swap2\n      swap1\n      tag_28\n      jump\t// in\n    tag_27:\n      mload(0x40)\n      dup1\n      swap2\n      sub\n      swap1\n      return\n        /* \"Wallery/PaintingShares.sol\":2187:4065  function createSharesForPainting(... */\n    tag_4:\n      tag_29\n      0x04\n      dup1\n      calldatasize\n      sub\n      dup2\n      add\n      swap1\n      tag_30\n      swap2\n      swap1\n      tag_31\n      jump\t// in\n    tag_30:\n      tag_32\n      jump\t// in\n    tag_29:\n      stop\n        /* \"Wallery/PaintingShares.sol\":4904:5492  function transferFrom(... */\n    tag_5:\n      tag_33\n      0x04\n      dup1\n      calldatasize\n      sub\n      dup2\n      add\n      swap1\n      tag_34\n      swap2\n      swap1\n      tag_35\n      jump\t// in\n    tag_34:\n      tag_36\n      jump\t// in\n    tag_33:\n      mload(0x40)\n      tag_37\n      swap2\n      swap1\n      tag_38\n      jump\t// in\n    tag_37:\n      mload(0x40)\n      dup1\n      swap2\n      sub\n      swap1\n      return\n        /* \"Wallery/PaintingShares.sol\":5500:5819  function getShareInfo(uint256 paintingId) external view returns (... */\n    tag_6:\n      tag_39\n      0x04\n      dup1\n      calldatasize\n      sub\n      dup2\n      add\n      swap1\n      tag_40\n      swap2\n      swap1\n      tag_41\n      jump\t// in\n    tag_40:\n      tag_42\n      jump\t// in\n    tag_39:\n      mload(0x40)\n      tag_43\n      swap5\n      swap4\n      swap3\n      swap2\n      swap1\n      tag_44\n      jump\t// in\n    tag_43:\n      mload(0x40)\n      dup1\n      swap2\n      sub\n      swap1\n      return\n        /* \"Wallery/PaintingShares.sol\":902:936  address public paintingNFTContract */\n    tag_7:\n      tag_45\n      tag_46\n      jump\t// in\n    tag_45:\n      mload(0x40)\n      tag_47\n      swap2\n      swap1\n      tag_48\n      jump\t// in\n    tag_47:\n      mload(0x40)\n      dup1\n      swap2\n      sub\n      swap1\n      return\n        /* \"Wallery/PaintingShares.sol\":7202:7269  function unpause() external onlyOwner {... */\n    tag_8:\n      tag_49\n      tag_50\n      jump\t// in\n    tag_49:\n      stop\n        /* \"Wallery/PaintingShares.sol\":570:613  mapping(uint256 => ShareInfo) public shares */\n    tag_9:\n      tag_51\n      0x04\n      dup1\n      calldatasize\n      sub\n      dup2\n      add\n      swap1\n      tag_52\n      swap2\n      swap1\n      tag_41\n      jump\t// in\n    tag_52:\n      tag_53\n      jump\t// in\n    tag_51:\n      mload(0x40)\n      tag_54\n      swap5\n      swap4\n      swap3\n      swap2\n      swap1\n      tag_44\n      jump\t// in\n    tag_54:\n      mload(0x40)\n      dup1\n      swap2\n      sub\n      swap1\n      return\n        /* \"Wallery/PaintingShares.sol\":809:893  mapping(address => mapping(address => mapping(uint256 => uint256))) public allowance */\n    tag_10:\n      tag_55\n      0x04\n      dup1\n      calldatasize\n      sub\n      dup2\n      add\n      swap1\n      tag_56\n      swap2\n      swap1\n      tag_57\n      jump\t// in\n    tag_56:\n      tag_58\n      jump\t// in\n    tag_55:\n      mload(0x40)\n      tag_59\n      swap2\n      swap1\n      tag_28\n      jump\t// in\n    tag_59:\n      mload(0x40)\n      dup1\n      swap2\n      sub\n      swap1\n      return\n        /* \"@openzeppelin/contracts/security/Pausable.sol\":1615:1699  function paused() public view virtual returns (bool) {... */\n    tag_11:\n      tag_60\n      tag_61\n      jump\t// in\n    tag_60:\n      mload(0x40)\n      tag_62\n      swap2\n      swap1\n      tag_38\n      jump\t// in\n    tag_62:\n      mload(0x40)\n      dup1\n      swap2\n      sub\n      swap1\n      return\n        /* \"@openzeppelin/contracts/access/Ownable.sol\":2293:2394  function renounceOwnership() public virtual onlyOwner {... */\n    tag_12:\n      tag_63\n      tag_64\n      jump\t// in\n    tag_63:\n      stop\n        /* \"Wallery/PaintingShares.sol\":7131:7194  function pause() external onlyOwner {... */\n    tag_13:\n      tag_65\n      tag_66\n      jump\t// in\n    tag_65:\n      stop\n        /* \"Wallery/PaintingShares.sol\":306:351  uint256 public constant TOTAL_SHARES = 100000 */\n    tag_14:\n      tag_67\n      tag_68\n      jump\t// in\n    tag_67:\n      mload(0x40)\n      tag_69\n      swap2\n      swap1\n      tag_28\n      jump\t// in\n    tag_69:\n      mload(0x40)\n      dup1\n      swap2\n      sub\n      swap1\n      return\n        /* \"Wallery/PaintingShares.sol\":4499:4896  function approve(... */\n    tag_15:\n      tag_70\n      0x04\n      dup1\n      calldatasize\n      sub\n      dup2\n      add\n      swap1\n      tag_71\n      swap2\n      swap1\n      tag_72\n      jump\t// in\n    tag_71:\n      tag_73\n      jump\t// in\n    tag_70:\n      mload(0x40)\n      tag_74\n      swap2\n      swap1\n      tag_38\n      jump\t// in\n    tag_74:\n      mload(0x40)\n      dup1\n      swap2\n      sub\n      swap1\n      return\n        /* \"@openzeppelin/contracts/access/Ownable.sol\":1638:1723  function owner() public view virtual returns (address) {... */\n    tag_16:\n      tag_75\n      tag_76\n      jump\t// in\n    tag_75:\n      mload(0x40)\n      tag_77\n      swap2\n      swap1\n      tag_48\n      jump\t// in\n    tag_77:\n      mload(0x40)\n      dup1\n      swap2\n      sub\n      swap1\n      return\n        /* \"Wallery/PaintingShares.sol\":1943:2179  function setPaintingNFTContract(address _paintingNFTContract) external onlyOwner {... */\n    tag_17:\n      tag_78\n      0x04\n      dup1\n      calldatasize\n      sub\n      dup2\n      add\n      swap1\n      tag_79\n      swap2\n      swap1\n      tag_80\n      jump\t// in\n    tag_79:\n      tag_81\n      jump\t// in\n    tag_78:\n      stop\n        /* \"@openzeppelin/contracts/access/Ownable.sol\":2543:2758  function transferOwnership(address newOwner) public virtual onlyOwner {... */\n    tag_18:\n      tag_82\n      0x04\n      dup1\n      calldatasize\n      sub\n      dup2\n      add\n      swap1\n      tag_83\n      swap2\n      swap1\n      tag_80\n      jump\t// in\n    tag_83:\n      tag_84\n      jump\t// in\n    tag_82:\n      stop\n        /* \"Wallery/PaintingShares.sol\":4073:4491  function transfer(... */\n    tag_19:\n      tag_85\n      0x04\n      dup1\n      calldatasize\n      sub\n      dup2\n      add\n      swap1\n      tag_86\n      swap2\n      swap1\n      tag_72\n      jump\t// in\n    tag_86:\n      tag_87\n      jump\t// in\n    tag_85:\n      mload(0x40)\n      tag_88\n      swap2\n      swap1\n      tag_38\n      jump\t// in\n    tag_88:\n      mload(0x40)\n      dup1\n      swap2\n      sub\n      swap1\n      return\n        /* \"Wallery/PaintingShares.sol\":665:729  mapping(address => mapping(uint256 => uint256)) public balanceOf */\n    tag_26:\n      mstore(0x20, 0x03)\n      dup2\n      0x00\n      mstore\n      mstore(0x20, keccak256(0x00, 0x40))\n      dup1\n      0x00\n      mstore\n      keccak256(0x00, 0x40)\n      0x00\n      swap2\n      pop\n      swap2\n      pop\n      pop\n      sload\n      dup2\n      jump\t// out\n        /* \"Wallery/PaintingShares.sol\":2187:4065  function createSharesForPainting(... */\n    tag_32:\n        /* \"Wallery/PaintingShares.sol\":1708:1727  paintingNFTContract */\n      0x05\n      0x00\n      swap1\n      sload\n      swap1\n      0x0100\n      exp\n      swap1\n      div\n      0xffffffffffffffffffffffffffffffffffffffff\n      and\n        /* \"Wallery/PaintingShares.sol\":1694:1727  msg.sender == paintingNFTContract */\n      0xffffffffffffffffffffffffffffffffffffffff\n      and\n        /* \"Wallery/PaintingShares.sol\":1694:1704  msg.sender */\n      caller\n        /* \"Wallery/PaintingShares.sol\":1694:1727  msg.sender == paintingNFTContract */\n      0xffffffffffffffffffffffffffffffffffffffff\n      and\n      eq\n        /* \"Wallery/PaintingShares.sol\":1686:1757  require(msg.sender == paintingNFTContract, \"Only PaintingNFT contract\") */\n      tag_90\n      jumpi\n      mload(0x40)\n      0x08c379a000000000000000000000000000000000000000000000000000000000\n      dup2\n      mstore\n      0x04\n      add\n      tag_91\n      swap1\n      tag_92\n      jump\t// in\n    tag_91:\n      mload(0x40)\n      dup1\n      swap2\n      sub\n      swap1\n      revert\n    tag_90:\n        /* \"@openzeppelin/contracts/security/Pausable.sol\":1239:1258  _requireNotPaused() */\n      tag_94\n        /* \"@openzeppelin/contracts/security/Pausable.sol\":1239:1256  _requireNotPaused */\n      tag_95\n        /* \"@openzeppelin/contracts/security/Pausable.sol\":1239:1258  _requireNotPaused() */\n      jump\t// in\n    tag_94:\n        /* \"Wallery/PaintingShares.sol\":2548:2554  shares */\n      0x02\n        /* \"Wallery/PaintingShares.sol\":2548:2566  shares[paintingId] */\n      0x00\n        /* \"Wallery/PaintingShares.sol\":2555:2565  paintingId */\n      dup10\n        /* \"Wallery/PaintingShares.sol\":2548:2566  shares[paintingId] */\n      dup2\n      mstore\n      0x20\n      add\n      swap1\n      dup2\n      mstore\n      0x20\n      add\n      0x00\n      keccak256\n        /* \"Wallery/PaintingShares.sol\":2548:2573  shares[paintingId].exists */\n      0x03\n      add\n      0x00\n      swap1\n      sload\n      swap1\n      0x0100\n      exp\n      swap1\n      div\n      0xff\n      and\n        /* \"Wallery/PaintingShares.sol\":2547:2573  !shares[paintingId].exists */\n      iszero\n        /* \"Wallery/PaintingShares.sol\":2539:2598  require(!shares[paintingId].exists, \"Shares already exist\") */\n      tag_97\n      jumpi\n      mload(0x40)\n      0x08c379a000000000000000000000000000000000000000000000000000000000\n      dup2\n      mstore\n      0x04\n      add\n      tag_98\n      swap1\n      tag_99\n      jump\t// in\n    tag_98:\n      mload(0x40)\n      dup1\n      swap2\n      sub\n      swap1\n      revert\n    tag_97:\n        /* \"Wallery/PaintingShares.sol\":2686:2689  100 */\n      0x64\n        /* \"Wallery/PaintingShares.sol\":2660:2682  galleryOwnerPercentage */\n      dup2\n        /* \"Wallery/PaintingShares.sol\":2638:2657  wallOwnerPercentage */\n      dup4\n        /* \"Wallery/PaintingShares.sol\":2617:2635  platformPercentage */\n      dup6\n        /* \"Wallery/PaintingShares.sol\":2617:2657  platformPercentage + wallOwnerPercentage */\n      tag_100\n      swap2\n      swap1\n      tag_101\n      jump\t// in\n    tag_100:\n        /* \"Wallery/PaintingShares.sol\":2617:2682  platformPercentage + wallOwnerPercentage + galleryOwnerPercentage */\n      tag_102\n      swap2\n      swap1\n      tag_101\n      jump\t// in\n    tag_102:\n        /* \"Wallery/PaintingShares.sol\":2617:2689  platformPercentage + wallOwnerPercentage + galleryOwnerPercentage <= 100 */\n      gt\n      iszero\n        /* \"Wallery/PaintingShares.sol\":2609:2731  require(platformPercentage + wallOwnerPercentage + galleryOwnerPercentage <= 100, ... */\n      tag_103\n      jumpi\n      mload(0x40)\n      0x08c379a000000000000000000000000000000000000000000000000000000000\n      dup2\n      mstore\n      0x04\n      add\n      tag_104\n      swap1\n      tag_105\n      jump\t// in\n    tag_104:\n      mload(0x40)\n      dup1\n      swap2\n      sub\n      swap1\n      revert\n    tag_103:\n        /* \"Wallery/PaintingShares.sol\":2744:2762  string memory name */\n      0x00\n        /* \"Wallery/PaintingShares.sol\":2802:2823  _toString(paintingId) */\n      tag_106\n        /* \"Wallery/PaintingShares.sol\":2812:2822  paintingId */\n      dup10\n        /* \"Wallery/PaintingShares.sol\":2802:2811  _toString */\n      tag_107\n        /* \"Wallery/PaintingShares.sol\":2802:2823  _toString(paintingId) */\n      jump\t// in\n    tag_106:\n        /* \"Wallery/PaintingShares.sol\":2772:2835  abi.encodePacked(\"Painting \", _toString(paintingId), \" Shares\") */\n      add(0x20, mload(0x40))\n      tag_108\n      swap2\n      swap1\n      tag_109\n      jump\t// in\n    tag_108:\n      mload(0x40)\n      0x20\n      dup2\n      dup4\n      sub\n      sub\n      dup2\n      mstore\n      swap1\n      0x40\n      mstore\n        /* \"Wallery/PaintingShares.sol\":2744:2836  string memory name = string(abi.encodePacked(\"Painting \", _toString(paintingId), \" Shares\")) */\n      swap1\n      pop\n        /* \"Wallery/PaintingShares.sol\":2847:2867  string memory symbol */\n      0x00\n        /* \"Wallery/PaintingShares.sol\":2903:2924  _toString(paintingId) */\n      tag_110\n        /* \"Wallery/PaintingShares.sol\":2913:2923  paintingId */\n      dup11\n        /* \"Wallery/PaintingShares.sol\":2903:2912  _toString */\n      tag_107\n        /* \"Wallery/PaintingShares.sol\":2903:2924  _toString(paintingId) */\n      jump\t// in\n    tag_110:\n        /* \"Wallery/PaintingShares.sol\":2877:2925  abi.encodePacked(\"PAINT\", _toString(paintingId)) */\n      add(0x20, mload(0x40))\n      tag_111\n      swap2\n      swap1\n      tag_112\n      jump\t// in\n    tag_111:\n      mload(0x40)\n      0x20\n      dup2\n      dup4\n      sub\n      sub\n      dup2\n      mstore\n      swap1\n      0x40\n      mstore\n        /* \"Wallery/PaintingShares.sol\":2847:2926  string memory symbol = string(abi.encodePacked(\"PAINT\", _toString(paintingId))) */\n      swap1\n      pop\n        /* \"Wallery/PaintingShares.sol\":2973:3000  ShareInfo storage newShares */\n      0x00\n        /* \"Wallery/PaintingShares.sol\":3003:3009  shares */\n      0x02\n        /* \"Wallery/PaintingShares.sol\":3003:3021  shares[paintingId] */\n      0x00\n        /* \"Wallery/PaintingShares.sol\":3010:3020  paintingId */\n      dup13\n        /* \"Wallery/PaintingShares.sol\":3003:3021  shares[paintingId] */\n      dup2\n      mstore\n      0x20\n      add\n      swap1\n      dup2\n      mstore\n      0x20\n      add\n      0x00\n      keccak256\n        /* \"Wallery/PaintingShares.sol\":2973:3021  ShareInfo storage newShares = shares[paintingId] */\n      swap1\n      pop\n        /* \"Wallery/PaintingShares.sol\":3049:3053  name */\n      dup3\n        /* \"Wallery/PaintingShares.sol\":3032:3041  newShares */\n      dup2\n        /* \"Wallery/PaintingShares.sol\":3032:3046  newShares.name */\n      0x00\n      add\n        /* \"Wallery/PaintingShares.sol\":3032:3053  newShares.name = name */\n      swap1\n      dup2\n      tag_113\n      swap2\n      swap1\n      tag_114\n      jump\t// in\n    tag_113:\n      pop\n        /* \"Wallery/PaintingShares.sol\":3083:3089  symbol */\n      dup2\n        /* \"Wallery/PaintingShares.sol\":3064:3073  newShares */\n      dup2\n        /* \"Wallery/PaintingShares.sol\":3064:3080  newShares.symbol */\n      0x01\n      add\n        /* \"Wallery/PaintingShares.sol\":3064:3089  newShares.symbol = symbol */\n      swap1\n      dup2\n      tag_115\n      swap2\n      swap1\n      tag_114\n      jump\t// in\n    tag_115:\n      pop\n        /* \"Wallery/PaintingShares.sol\":3119:3123  true */\n      0x01\n        /* \"Wallery/PaintingShares.sol\":3100:3109  newShares */\n      dup2\n        /* \"Wallery/PaintingShares.sol\":3100:3116  newShares.exists */\n      0x03\n      add\n      0x00\n        /* \"Wallery/PaintingShares.sol\":3100:3123  newShares.exists = true */\n      0x0100\n      exp\n      dup2\n      sload\n      dup2\n      0xff\n      mul\n      not\n      and\n      swap1\n      dup4\n      iszero\n      iszero\n      mul\n      or\n      swap1\n      sstore\n      pop\n        /* \"Wallery/PaintingShares.sol\":345:351  100000 */\n      0x0186a0\n        /* \"Wallery/PaintingShares.sol\":3134:3143  newShares */\n      dup2\n        /* \"Wallery/PaintingShares.sol\":3134:3155  newShares.totalSupply */\n      0x02\n      add\n        /* \"Wallery/PaintingShares.sol\":3134:3170  newShares.totalSupply = TOTAL_SHARES */\n      dup2\n      swap1\n      sstore\n      pop\n        /* \"Wallery/PaintingShares.sol\":3212:3234  uint256 platformShares */\n      0x00\n        /* \"Wallery/PaintingShares.sol\":3275:3278  100 */\n      0x64\n        /* \"Wallery/PaintingShares.sol\":3253:3271  platformPercentage */\n      dup8\n        /* \"Wallery/PaintingShares.sol\":345:351  100000 */\n      0x0186a0\n        /* \"Wallery/PaintingShares.sol\":3238:3271  TOTAL_SHARES * platformPercentage */\n      tag_116\n      swap2\n      swap1\n      tag_117\n      jump\t// in\n    tag_116:\n        /* \"Wallery/PaintingShares.sol\":3237:3278  (TOTAL_SHARES * platformPercentage) / 100 */\n      tag_118\n      swap2\n      swap1\n      tag_119\n      jump\t// in\n    tag_118:\n        /* \"Wallery/PaintingShares.sol\":3212:3278  uint256 platformShares = (TOTAL_SHARES * platformPercentage) / 100 */\n      swap1\n      pop\n        /* \"Wallery/PaintingShares.sol\":3289:3312  uint256 wallOwnerShares */\n      0x00\n        /* \"Wallery/PaintingShares.sol\":3354:3357  100 */\n      0x64\n        /* \"Wallery/PaintingShares.sol\":3331:3350  wallOwnerPercentage */\n      dup8\n        /* \"Wallery/PaintingShares.sol\":345:351  100000 */\n      0x0186a0\n        /* \"Wallery/PaintingShares.sol\":3316:3350  TOTAL_SHARES * wallOwnerPercentage */\n      tag_120\n      swap2\n      swap1\n      tag_117\n      jump\t// in\n    tag_120:\n        /* \"Wallery/PaintingShares.sol\":3315:3357  (TOTAL_SHARES * wallOwnerPercentage) / 100 */\n      tag_121\n      swap2\n      swap1\n      tag_119\n      jump\t// in\n    tag_121:\n        /* \"Wallery/PaintingShares.sol\":3289:3357  uint256 wallOwnerShares = (TOTAL_SHARES * wallOwnerPercentage) / 100 */\n      swap1\n      pop\n        /* \"Wallery/PaintingShares.sol\":3368:3394  uint256 galleryOwnerShares */\n      0x00\n        /* \"Wallery/PaintingShares.sol\":3439:3442  100 */\n      0x64\n        /* \"Wallery/PaintingShares.sol\":3413:3435  galleryOwnerPercentage */\n      dup8\n        /* \"Wallery/PaintingShares.sol\":345:351  100000 */\n      0x0186a0\n        /* \"Wallery/PaintingShares.sol\":3398:3435  TOTAL_SHARES * galleryOwnerPercentage */\n      tag_122\n      swap2\n      swap1\n      tag_117\n      jump\t// in\n    tag_122:\n        /* \"Wallery/PaintingShares.sol\":3397:3442  (TOTAL_SHARES * galleryOwnerPercentage) / 100 */\n      tag_123\n      swap2\n      swap1\n      tag_119\n      jump\t// in\n    tag_123:\n        /* \"Wallery/PaintingShares.sol\":3368:3442  uint256 galleryOwnerShares = (TOTAL_SHARES * galleryOwnerPercentage) / 100 */\n      swap1\n      pop\n        /* \"Wallery/PaintingShares.sol\":3453:3474  uint256 painterShares */\n      0x00\n        /* \"Wallery/PaintingShares.sol\":3527:3545  galleryOwnerShares */\n      dup2\n        /* \"Wallery/PaintingShares.sol\":3509:3524  wallOwnerShares */\n      dup4\n        /* \"Wallery/PaintingShares.sol\":3492:3506  platformShares */\n      dup6\n        /* \"Wallery/PaintingShares.sol\":345:351  100000 */\n      0x0186a0\n        /* \"Wallery/PaintingShares.sol\":3477:3506  TOTAL_SHARES - platformShares */\n      tag_124\n      swap2\n      swap1\n      tag_125\n      jump\t// in\n    tag_124:\n        /* \"Wallery/PaintingShares.sol\":3477:3524  TOTAL_SHARES - platformShares - wallOwnerShares */\n      tag_126\n      swap2\n      swap1\n      tag_125\n      jump\t// in\n    tag_126:\n        /* \"Wallery/PaintingShares.sol\":3477:3545  TOTAL_SHARES - platformShares - wallOwnerShares - galleryOwnerShares */\n      tag_127\n      swap2\n      swap1\n      tag_125\n      jump\t// in\n    tag_127:\n        /* \"Wallery/PaintingShares.sol\":3453:3545  uint256 painterShares = TOTAL_SHARES - platformShares - wallOwnerShares - galleryOwnerShares */\n      swap1\n      pop\n        /* \"Wallery/PaintingShares.sol\":3588:3642  _mintShares(paintingId, platformAdmin, platformShares) */\n      tag_128\n        /* \"Wallery/PaintingShares.sol\":3600:3610  paintingId */\n      dup16\n        /* \"Wallery/PaintingShares.sol\":3612:3625  platformAdmin */\n      dup16\n        /* \"Wallery/PaintingShares.sol\":3627:3641  platformShares */\n      dup7\n        /* \"Wallery/PaintingShares.sol\":3588:3599  _mintShares */\n      tag_129\n        /* \"Wallery/PaintingShares.sol\":3588:3642  _mintShares(paintingId, platformAdmin, platformShares) */\n      jump\t// in\n    tag_128:\n        /* \"Wallery/PaintingShares.sol\":3653:3704  _mintShares(paintingId, wallOwner, wallOwnerShares) */\n      tag_130\n        /* \"Wallery/PaintingShares.sol\":3665:3675  paintingId */\n      dup16\n        /* \"Wallery/PaintingShares.sol\":3677:3686  wallOwner */\n      dup15\n        /* \"Wallery/PaintingShares.sol\":3688:3703  wallOwnerShares */\n      dup6\n        /* \"Wallery/PaintingShares.sol\":3653:3664  _mintShares */\n      tag_129\n        /* \"Wallery/PaintingShares.sol\":3653:3704  _mintShares(paintingId, wallOwner, wallOwnerShares) */\n      jump\t// in\n    tag_130:\n        /* \"Wallery/PaintingShares.sol\":3715:3772  _mintShares(paintingId, galleryOwner, galleryOwnerShares) */\n      tag_131\n        /* \"Wallery/PaintingShares.sol\":3727:3737  paintingId */\n      dup16\n        /* \"Wallery/PaintingShares.sol\":3739:3751  galleryOwner */\n      dup14\n        /* \"Wallery/PaintingShares.sol\":3753:3771  galleryOwnerShares */\n      dup5\n        /* \"Wallery/PaintingShares.sol\":3715:3726  _mintShares */\n      tag_129\n        /* \"Wallery/PaintingShares.sol\":3715:3772  _mintShares(paintingId, galleryOwner, galleryOwnerShares) */\n      jump\t// in\n    tag_131:\n        /* \"Wallery/PaintingShares.sol\":3783:3830  _mintShares(paintingId, painter, painterShares) */\n      tag_132\n        /* \"Wallery/PaintingShares.sol\":3795:3805  paintingId */\n      dup16\n        /* \"Wallery/PaintingShares.sol\":3807:3814  painter */\n      dup13\n        /* \"Wallery/PaintingShares.sol\":3816:3829  painterShares */\n      dup4\n        /* \"Wallery/PaintingShares.sol\":3783:3794  _mintShares */\n      tag_129\n        /* \"Wallery/PaintingShares.sol\":3783:3830  _mintShares(paintingId, painter, painterShares) */\n      jump\t// in\n    tag_132:\n        /* \"Wallery/PaintingShares.sol\":3876:3886  paintingId */\n      dup15\n        /* \"Wallery/PaintingShares.sol\":3848:4057  SharesCreated(... */\n      0xd21d9e01a16a8c5d426f26258ec2882c31787698aba6246e133cc3692a370b0b\n        /* \"Wallery/PaintingShares.sol\":3901:3905  name */\n      dup9\n        /* \"Wallery/PaintingShares.sol\":3920:3926  symbol */\n      dup9\n        /* \"Wallery/PaintingShares.sol\":3941:3955  platformShares */\n      dup8\n        /* \"Wallery/PaintingShares.sol\":3970:3985  wallOwnerShares */\n      dup8\n        /* \"Wallery/PaintingShares.sol\":4000:4018  galleryOwnerShares */\n      dup8\n        /* \"Wallery/PaintingShares.sol\":4033:4046  painterShares */\n      dup8\n        /* \"Wallery/PaintingShares.sol\":3848:4057  SharesCreated(... */\n      mload(0x40)\n      tag_133\n      swap7\n      swap6\n      swap5\n      swap4\n      swap3\n      swap2\n      swap1\n      tag_134\n      jump\t// in\n    tag_133:\n      mload(0x40)\n      dup1\n      swap2\n      sub\n      swap1\n      log2\n        /* \"Wallery/PaintingShares.sol\":2528:4065  {... */\n      pop\n      pop\n      pop\n      pop\n      pop\n      pop\n      pop\n        /* \"Wallery/PaintingShares.sol\":2187:4065  function createSharesForPainting(... */\n      pop\n      pop\n      pop\n      pop\n      pop\n      pop\n      pop\n      pop\n      jump\t// out\n        /* \"Wallery/PaintingShares.sol\":4904:5492  function transferFrom(... */\n    tag_36:\n        /* \"Wallery/PaintingShares.sol\":5104:5108  bool */\n      0x00\n        /* \"Wallery/PaintingShares.sol\":5056:5066  paintingId */\n      dup5\n        /* \"Wallery/PaintingShares.sol\":1849:1855  shares */\n      0x02\n        /* \"Wallery/PaintingShares.sol\":1849:1867  shares[paintingId] */\n      0x00\n        /* \"Wallery/PaintingShares.sol\":1856:1866  paintingId */\n      dup3\n        /* \"Wallery/PaintingShares.sol\":1849:1867  shares[paintingId] */\n      dup2\n      mstore\n      0x20\n      add\n      swap1\n      dup2\n      mstore\n      0x20\n      add\n      0x00\n      keccak256\n        /* \"Wallery/PaintingShares.sol\":1849:1874  shares[paintingId].exists */\n      0x03\n      add\n      0x00\n      swap1\n      sload\n      swap1\n      0x0100\n      exp\n      swap1\n      div\n      0xff\n      and\n        /* \"Wallery/PaintingShares.sol\":1841:1915  require(shares[paintingId].exists, \"Shares don't exist for this painting\") */\n      tag_136\n      jumpi\n      mload(0x40)\n      0x08c379a000000000000000000000000000000000000000000000000000000000\n      dup2\n      mstore\n      0x04\n      add\n      tag_137\n      swap1\n      tag_138\n      jump\t// in\n    tag_137:\n      mload(0x40)\n      dup1\n      swap2\n      sub\n      swap1\n      revert\n    tag_136:\n        /* \"@openzeppelin/contracts/security/Pausable.sol\":1239:1258  _requireNotPaused() */\n      tag_140\n        /* \"@openzeppelin/contracts/security/Pausable.sol\":1239:1256  _requireNotPaused */\n      tag_95\n        /* \"@openzeppelin/contracts/security/Pausable.sol\":1239:1258  _requireNotPaused() */\n      jump\t// in\n    tag_140:\n        /* \"@openzeppelin/contracts/security/ReentrancyGuard.sol\":2261:2282  _nonReentrantBefore() */\n      tag_142\n        /* \"@openzeppelin/contracts/security/ReentrancyGuard.sol\":2261:2280  _nonReentrantBefore */\n      tag_143\n        /* \"@openzeppelin/contracts/security/ReentrancyGuard.sol\":2261:2282  _nonReentrantBefore() */\n      jump\t// in\n    tag_142:\n        /* \"Wallery/PaintingShares.sol\":5143:5144  0 */\n      0x00\n        /* \"Wallery/PaintingShares.sol\":5129:5145  to != address(0) */\n      0xffffffffffffffffffffffffffffffffffffffff\n      and\n        /* \"Wallery/PaintingShares.sol\":5129:5131  to */\n      dup5\n        /* \"Wallery/PaintingShares.sol\":5129:5145  to != address(0) */\n      0xffffffffffffffffffffffffffffffffffffffff\n      and\n      sub\n        /* \"Wallery/PaintingShares.sol\":5121:5174  require(to != address(0), \"Transfer to zero address\") */\n      tag_145\n      jumpi\n      mload(0x40)\n      0x08c379a000000000000000000000000000000000000000000000000000000000\n      dup2\n      mstore\n      0x04\n      add\n      tag_146\n      swap1\n      tag_147\n      jump\t// in\n    tag_146:\n      mload(0x40)\n      dup1\n      swap2\n      sub\n      swap1\n      revert\n    tag_145:\n        /* \"Wallery/PaintingShares.sol\":5224:5230  amount */\n      dup3\n        /* \"Wallery/PaintingShares.sol\":5193:5202  balanceOf */\n      0x03\n        /* \"Wallery/PaintingShares.sol\":5193:5208  balanceOf[from] */\n      0x00\n        /* \"Wallery/PaintingShares.sol\":5203:5207  from */\n      dup8\n        /* \"Wallery/PaintingShares.sol\":5193:5208  balanceOf[from] */\n      0xffffffffffffffffffffffffffffffffffffffff\n      and\n      0xffffffffffffffffffffffffffffffffffffffff\n      and\n      dup2\n      mstore\n      0x20\n      add\n      swap1\n      dup2\n      mstore\n      0x20\n      add\n      0x00\n      keccak256\n        /* \"Wallery/PaintingShares.sol\":5193:5220  balanceOf[from][paintingId] */\n      0x00\n        /* \"Wallery/PaintingShares.sol\":5209:5219  paintingId */\n      dup9\n        /* \"Wallery/PaintingShares.sol\":5193:5220  balanceOf[from][paintingId] */\n      dup2\n      mstore\n      0x20\n      add\n      swap1\n      dup2\n      mstore\n      0x20\n      add\n      0x00\n      keccak256\n      sload\n        /* \"Wallery/PaintingShares.sol\":5193:5230  balanceOf[from][paintingId] >= amount */\n      lt\n      iszero\n        /* \"Wallery/PaintingShares.sol\":5185:5255  require(balanceOf[from][paintingId] >= amount, \"Insufficient balance\") */\n      tag_148\n      jumpi\n      mload(0x40)\n      0x08c379a000000000000000000000000000000000000000000000000000000000\n      dup2\n      mstore\n      0x04\n      add\n      tag_149\n      swap1\n      tag_150\n      jump\t// in\n    tag_149:\n      mload(0x40)\n      dup1\n      swap2\n      sub\n      swap1\n      revert\n    tag_148:\n        /* \"Wallery/PaintingShares.sol\":5317:5323  amount */\n      dup3\n        /* \"Wallery/PaintingShares.sol\":5274:5283  allowance */\n      0x04\n        /* \"Wallery/PaintingShares.sol\":5274:5289  allowance[from] */\n      0x00\n        /* \"Wallery/PaintingShares.sol\":5284:5288  from */\n      dup8\n        /* \"Wallery/PaintingShares.sol\":5274:5289  allowance[from] */\n      0xffffffffffffffffffffffffffffffffffffffff\n      and\n      0xffffffffffffffffffffffffffffffffffffffff\n      and\n      dup2\n      mstore\n      0x20\n      add\n      swap1\n      dup2\n      mstore\n      0x20\n      add\n      0x00\n      keccak256\n        /* \"Wallery/PaintingShares.sol\":5274:5301  allowance[from][msg.sender] */\n      0x00\n        /* \"Wallery/PaintingShares.sol\":5290:5300  msg.sender */\n      caller\n        /* \"Wallery/PaintingShares.sol\":5274:5301  allowance[from][msg.sender] */\n      0xffffffffffffffffffffffffffffffffffffffff\n      and\n      0xffffffffffffffffffffffffffffffffffffffff\n      and\n      dup2\n      mstore\n      0x20\n      add\n      swap1\n      dup2\n      mstore\n      0x20\n      add\n      0x00\n      keccak256\n        /* \"Wallery/PaintingShares.sol\":5274:5313  allowance[from][msg.sender][paintingId] */\n      0x00\n        /* \"Wallery/PaintingShares.sol\":5302:5312  paintingId */\n      dup9\n        /* \"Wallery/PaintingShares.sol\":5274:5313  allowance[from][msg.sender][paintingId] */\n      dup2\n      mstore\n      0x20\n      add\n      swap1\n      dup2\n      mstore\n      0x20\n      add\n      0x00\n      keccak256\n      sload\n        /* \"Wallery/PaintingShares.sol\":5274:5323  allowance[from][msg.sender][paintingId] >= amount */\n      lt\n      iszero\n        /* \"Wallery/PaintingShares.sol\":5266:5350  require(allowance[from][msg.sender][paintingId] >= amount, \"Insufficient allowance\") */\n      tag_151\n      jumpi\n      mload(0x40)\n      0x08c379a000000000000000000000000000000000000000000000000000000000\n      dup2\n      mstore\n      0x04\n      add\n      tag_152\n      swap1\n      tag_153\n      jump\t// in\n    tag_152:\n      mload(0x40)\n      dup1\n      swap2\n      sub\n      swap1\n      revert\n    tag_151:\n        /* \"Wallery/PaintingShares.sol\":5406:5412  amount */\n      dup3\n        /* \"Wallery/PaintingShares.sol\":5363:5372  allowance */\n      0x04\n        /* \"Wallery/PaintingShares.sol\":5363:5378  allowance[from] */\n      0x00\n        /* \"Wallery/PaintingShares.sol\":5373:5377  from */\n      dup8\n        /* \"Wallery/PaintingShares.sol\":5363:5378  allowance[from] */\n      0xffffffffffffffffffffffffffffffffffffffff\n      and\n      0xffffffffffffffffffffffffffffffffffffffff\n      and\n      dup2\n      mstore\n      0x20\n      add\n      swap1\n      dup2\n      mstore\n      0x20\n      add\n      0x00\n      keccak256\n        /* \"Wallery/PaintingShares.sol\":5363:5390  allowance[from][msg.sender] */\n      0x00\n        /* \"Wallery/PaintingShares.sol\":5379:5389  msg.sender */\n      caller\n        /* \"Wallery/PaintingShares.sol\":5363:5390  allowance[from][msg.sender] */\n      0xffffffffffffffffffffffffffffffffffffffff\n      and\n      0xffffffffffffffffffffffffffffffffffffffff\n      and\n      dup2\n      mstore\n      0x20\n      add\n      swap1\n      dup2\n      mstore\n      0x20\n      add\n      0x00\n      keccak256\n        /* \"Wallery/PaintingShares.sol\":5363:5402  allowance[from][msg.sender][paintingId] */\n      0x00\n        /* \"Wallery/PaintingShares.sol\":5391:5401  paintingId */\n      dup9\n        /* \"Wallery/PaintingShares.sol\":5363:5402  allowance[from][msg.sender][paintingId] */\n      dup2\n      mstore\n      0x20\n      add\n      swap1\n      dup2\n      mstore\n      0x20\n      add\n      0x00\n      keccak256\n      0x00\n        /* \"Wallery/PaintingShares.sol\":5363:5412  allowance[from][msg.sender][paintingId] -= amount */\n      dup3\n      dup3\n      sload\n      tag_154\n      swap2\n      swap1\n      tag_125\n      jump\t// in\n    tag_154:\n      swap3\n      pop\n      pop\n      dup2\n      swap1\n      sstore\n      pop\n        /* \"Wallery/PaintingShares.sol\":5423:5462  _transfer(paintingId, from, to, amount) */\n      tag_155\n        /* \"Wallery/PaintingShares.sol\":5433:5443  paintingId */\n      dup7\n        /* \"Wallery/PaintingShares.sol\":5445:5449  from */\n      dup7\n        /* \"Wallery/PaintingShares.sol\":5451:5453  to */\n      dup7\n        /* \"Wallery/PaintingShares.sol\":5455:5461  amount */\n      dup7\n        /* \"Wallery/PaintingShares.sol\":5423:5432  _transfer */\n      tag_156\n        /* \"Wallery/PaintingShares.sol\":5423:5462  _transfer(paintingId, from, to, amount) */\n      jump\t// in\n    tag_155:\n        /* \"Wallery/PaintingShares.sol\":5480:5484  true */\n      0x01\n        /* \"Wallery/PaintingShares.sol\":5473:5484  return true */\n      swap2\n      pop\n        /* \"@openzeppelin/contracts/security/ReentrancyGuard.sol\":2303:2323  _nonReentrantAfter() */\n      tag_157\n        /* \"@openzeppelin/contracts/security/ReentrancyGuard.sol\":2303:2321  _nonReentrantAfter */\n      tag_158\n        /* \"@openzeppelin/contracts/security/ReentrancyGuard.sol\":2303:2323  _nonReentrantAfter() */\n      jump\t// in\n    tag_157:\n        /* \"Wallery/PaintingShares.sol\":4904:5492  function transferFrom(... */\n      pop\n      swap5\n      swap4\n      pop\n      pop\n      pop\n      pop\n      jump\t// out\n        /* \"Wallery/PaintingShares.sol\":5500:5819  function getShareInfo(uint256 paintingId) external view returns (... */\n    tag_42:\n        /* \"Wallery/PaintingShares.sol\":5575:5593  string memory name */\n      0x60\n        /* \"Wallery/PaintingShares.sol\":5604:5624  string memory symbol */\n      dup1\n        /* \"Wallery/PaintingShares.sol\":5635:5654  uint256 totalSupply */\n      0x00\n        /* \"Wallery/PaintingShares.sol\":5665:5676  bool exists */\n      dup1\n        /* \"Wallery/PaintingShares.sol\":5695:5717  ShareInfo storage info */\n      0x00\n        /* \"Wallery/PaintingShares.sol\":5720:5726  shares */\n      0x02\n        /* \"Wallery/PaintingShares.sol\":5720:5738  shares[paintingId] */\n      0x00\n        /* \"Wallery/PaintingShares.sol\":5727:5737  paintingId */\n      dup8\n        /* \"Wallery/PaintingShares.sol\":5720:5738  shares[paintingId] */\n      dup2\n      mstore\n      0x20\n      add\n      swap1\n      dup2\n      mstore\n      0x20\n      add\n      0x00\n      keccak256\n        /* \"Wallery/PaintingShares.sol\":5695:5738  ShareInfo storage info = shares[paintingId] */\n      swap1\n      pop\n        /* \"Wallery/PaintingShares.sol\":5757:5761  info */\n      dup1\n        /* \"Wallery/PaintingShares.sol\":5757:5766  info.name */\n      0x00\n      add\n        /* \"Wallery/PaintingShares.sol\":5768:5772  info */\n      dup2\n        /* \"Wallery/PaintingShares.sol\":5768:5779  info.symbol */\n      0x01\n      add\n        /* \"Wallery/PaintingShares.sol\":5781:5785  info */\n      dup3\n        /* \"Wallery/PaintingShares.sol\":5781:5797  info.totalSupply */\n      0x02\n      add\n      sload\n        /* \"Wallery/PaintingShares.sol\":5799:5803  info */\n      dup4\n        /* \"Wallery/PaintingShares.sol\":5799:5810  info.exists */\n      0x03\n      add\n      0x00\n      swap1\n      sload\n      swap1\n      0x0100\n      exp\n      swap1\n      div\n      0xff\n      and\n        /* \"Wallery/PaintingShares.sol\":5749:5811  return (info.name, info.symbol, info.totalSupply, info.exists) */\n      dup4\n      dup1\n      sload\n      tag_160\n      swap1\n      tag_161\n      jump\t// in\n    tag_160:\n      dup1\n      0x1f\n      add\n      0x20\n      dup1\n      swap2\n      div\n      mul\n      0x20\n      add\n      mload(0x40)\n      swap1\n      dup2\n      add\n      0x40\n      mstore\n      dup1\n      swap3\n      swap2\n      swap1\n      dup2\n      dup2\n      mstore\n      0x20\n      add\n      dup3\n      dup1\n      sload\n      tag_162\n      swap1\n      tag_161\n      jump\t// in\n    tag_162:\n      dup1\n      iszero\n      tag_163\n      jumpi\n      dup1\n      0x1f\n      lt\n      tag_164\n      jumpi\n      0x0100\n      dup1\n      dup4\n      sload\n      div\n      mul\n      dup4\n      mstore\n      swap2\n      0x20\n      add\n      swap2\n      jump(tag_163)\n    tag_164:\n      dup3\n      add\n      swap2\n      swap1\n      0x00\n      mstore\n      keccak256(0x00, 0x20)\n      swap1\n    tag_165:\n      dup2\n      sload\n      dup2\n      mstore\n      swap1\n      0x01\n      add\n      swap1\n      0x20\n      add\n      dup1\n      dup4\n      gt\n      tag_165\n      jumpi\n      dup3\n      swap1\n      sub\n      0x1f\n      and\n      dup3\n      add\n      swap2\n    tag_163:\n      pop\n      pop\n      pop\n      pop\n      pop\n      swap4\n      pop\n      dup3\n      dup1\n      sload\n      tag_166\n      swap1\n      tag_161\n      jump\t// in\n    tag_166:\n      dup1\n      0x1f\n      add\n      0x20\n      dup1\n      swap2\n      div\n      mul\n      0x20\n      add\n      mload(0x40)\n      swap1\n      dup2\n      add\n      0x40\n      mstore\n      dup1\n      swap3\n      swap2\n      swap1\n      dup2\n      dup2\n      mstore\n      0x20\n      add\n      dup3\n      dup1\n      sload\n      tag_167\n      swap1\n      tag_161\n      jump\t// in\n    tag_167:\n      dup1\n      iszero\n      tag_168\n      jumpi\n      dup1\n      0x1f\n      lt\n      tag_169\n      jumpi\n      0x0100\n      dup1\n      dup4\n      sload\n      div\n      mul\n      dup4\n      mstore\n      swap2\n      0x20\n      add\n      swap2\n      jump(tag_168)\n    tag_169:\n      dup3\n      add\n      swap2\n      swap1\n      0x00\n      mstore\n      keccak256(0x00, 0x20)\n      swap1\n    tag_170:\n      dup2\n      sload\n      dup2\n      mstore\n      swap1\n      0x01\n      add\n      swap1\n      0x20\n      add\n      dup1\n      dup4\n      gt\n      tag_170\n      jumpi\n      dup3\n      swap1\n      sub\n      0x1f\n      and\n      dup3\n      add\n      swap2\n    tag_168:\n      pop\n      pop\n      pop\n      pop\n      pop\n      swap3\n      pop\n      swap5\n      pop\n      swap5\n      pop\n      swap5\n      pop\n      swap5\n      pop\n      pop\n        /* \"Wallery/PaintingShares.sol\":5500:5819  function getShareInfo(uint256 paintingId) external view returns (... */\n      swap2\n      swap4\n      pop\n      swap2\n      swap4\n      jump\t// out\n        /* \"Wallery/PaintingShares.sol\":902:936  address public paintingNFTContract */\n    tag_46:\n      0x05\n      0x00\n      swap1\n      sload\n      swap1\n      0x0100\n      exp\n      swap1\n      div\n      0xffffffffffffffffffffffffffffffffffffffff\n      and\n      dup2\n      jump\t// out\n        /* \"Wallery/PaintingShares.sol\":7202:7269  function unpause() external onlyOwner {... */\n    tag_50:\n        /* \"@openzeppelin/contracts/access/Ownable.sol\":1531:1544  _checkOwner() */\n      tag_172\n        /* \"@openzeppelin/contracts/access/Ownable.sol\":1531:1542  _checkOwner */\n      tag_173\n        /* \"@openzeppelin/contracts/access/Ownable.sol\":1531:1544  _checkOwner() */\n      jump\t// in\n    tag_172:\n        /* \"Wallery/PaintingShares.sol\":7251:7261  _unpause() */\n      tag_175\n        /* \"Wallery/PaintingShares.sol\":7251:7259  _unpause */\n      tag_176\n        /* \"Wallery/PaintingShares.sol\":7251:7261  _unpause() */\n      jump\t// in\n    tag_175:\n        /* \"Wallery/PaintingShares.sol\":7202:7269  function unpause() external onlyOwner {... */\n      jump\t// out\n        /* \"Wallery/PaintingShares.sol\":570:613  mapping(uint256 => ShareInfo) public shares */\n    tag_53:\n      mstore(0x20, 0x02)\n      dup1\n      0x00\n      mstore\n      keccak256(0x00, 0x40)\n      0x00\n      swap2\n      pop\n      swap1\n      pop\n      dup1\n      0x00\n      add\n      dup1\n      sload\n      tag_177\n      swap1\n      tag_161\n      jump\t// in\n    tag_177:\n      dup1\n      0x1f\n      add\n      0x20\n      dup1\n      swap2\n      div\n      mul\n      0x20\n      add\n      mload(0x40)\n      swap1\n      dup2\n      add\n      0x40\n      mstore\n      dup1\n      swap3\n      swap2\n      swap1\n      dup2\n      dup2\n      mstore\n      0x20\n      add\n      dup3\n      dup1\n      sload\n      tag_178\n      swap1\n      tag_161\n      jump\t// in\n    tag_178:\n      dup1\n      iszero\n      tag_179\n      jumpi\n      dup1\n      0x1f\n      lt\n      tag_180\n      jumpi\n      0x0100\n      dup1\n      dup4\n      sload\n      div\n      mul\n      dup4\n      mstore\n      swap2\n      0x20\n      add\n      swap2\n      jump(tag_179)\n    tag_180:\n      dup3\n      add\n      swap2\n      swap1\n      0x00\n      mstore\n      keccak256(0x00, 0x20)\n      swap1\n    tag_181:\n      dup2\n      sload\n      dup2\n      mstore\n      swap1\n      0x01\n      add\n      swap1\n      0x20\n      add\n      dup1\n      dup4\n      gt\n      tag_181\n      jumpi\n      dup3\n      swap1\n      sub\n      0x1f\n      and\n      dup3\n      add\n      swap2\n    tag_179:\n      pop\n      pop\n      pop\n      pop\n      pop\n      swap1\n      dup1\n      0x01\n      add\n      dup1\n      sload\n      tag_182\n      swap1\n      tag_161\n      jump\t// in\n    tag_182:\n      dup1\n      0x1f\n      add\n      0x20\n      dup1\n      swap2\n      div\n      mul\n      0x20\n      add\n      mload(0x40)\n      swap1\n      dup2\n      add\n      0x40\n      mstore\n      dup1\n      swap3\n      swap2\n      swap1\n      dup2\n      dup2\n      mstore\n      0x20\n      add\n      dup3\n      dup1\n      sload\n      tag_183\n      swap1\n      tag_161\n      jump\t// in\n    tag_183:\n      dup1\n      iszero\n      tag_184\n      jumpi\n      dup1\n      0x1f\n      lt\n      tag_185\n      jumpi\n      0x0100\n      dup1\n      dup4\n      sload\n      div\n      mul\n      dup4\n      mstore\n      swap2\n      0x20\n      add\n      swap2\n      jump(tag_184)\n    tag_185:\n      dup3\n      add\n      swap2\n      swap1\n      0x00\n      mstore\n      keccak256(0x00, 0x20)\n      swap1\n    tag_186:\n      dup2\n      sload\n      dup2\n      mstore\n      swap1\n      0x01\n      add\n      swap1\n      0x20\n      add\n      dup1\n      dup4\n      gt\n      tag_186\n      jumpi\n      dup3\n      swap1\n      sub\n      0x1f\n      and\n      dup3\n      add\n      swap2\n    tag_184:\n      pop\n      pop\n      pop\n      pop\n      pop\n      swap1\n      dup1\n      0x02\n      add\n      sload\n      swap1\n      dup1\n      0x03\n      add\n      0x00\n      swap1\n      sload\n      swap1\n      0x0100\n      exp\n      swap1\n      div\n      0xff\n      and\n      swap1\n      pop\n      dup5\n      jump\t// out\n        /* \"Wallery/PaintingShares.sol\":809:893  mapping(address => mapping(address => mapping(uint256 => uint256))) public allowance */\n    tag_58:\n      mstore(0x20, 0x04)\n      dup3\n      0x00\n      mstore\n      mstore(0x20, keccak256(0x00, 0x40))\n      dup2\n      0x00\n      mstore\n      mstore(0x20, keccak256(0x00, 0x40))\n      dup1\n      0x00\n      mstore\n      keccak256(0x00, 0x40)\n      0x00\n      swap3\n      pop\n      swap3\n      pop\n      pop\n      pop\n      sload\n      dup2\n      jump\t// out\n        /* \"@openzeppelin/contracts/security/Pausable.sol\":1615:1699  function paused() public view virtual returns (bool) {... */\n    tag_61:\n        /* \"@openzeppelin/contracts/security/Pausable.sol\":1662:1666  bool */\n      0x00\n        /* \"@openzeppelin/contracts/security/Pausable.sol\":1685:1692  _paused */\n      dup1\n      0x14\n      swap1\n      sload\n      swap1\n      0x0100\n      exp\n      swap1\n      div\n      0xff\n      and\n        /* \"@openzeppelin/contracts/security/Pausable.sol\":1678:1692  return _paused */\n      swap1\n      pop\n        /* \"@openzeppelin/contracts/security/Pausable.sol\":1615:1699  function paused() public view virtual returns (bool) {... */\n      swap1\n      jump\t// out\n        /* \"@openzeppelin/contracts/access/Ownable.sol\":2293:2394  function renounceOwnership() public virtual onlyOwner {... */\n    tag_64:\n        /* \"@openzeppelin/contracts/access/Ownable.sol\":1531:1544  _checkOwner() */\n      tag_189\n        /* \"@openzeppelin/contracts/access/Ownable.sol\":1531:1542  _checkOwner */\n      tag_173\n        /* \"@openzeppelin/contracts/access/Ownable.sol\":1531:1544  _checkOwner() */\n      jump\t// in\n    tag_189:\n        /* \"@openzeppelin/contracts/access/Ownable.sol\":2357:2387  _transferOwnership(address(0)) */\n      tag_191\n        /* \"@openzeppelin/contracts/access/Ownable.sol\":2384:2385  0 */\n      0x00\n        /* \"@openzeppelin/contracts/access/Ownable.sol\":2357:2375  _transferOwnership */\n      tag_192\n        /* \"@openzeppelin/contracts/access/Ownable.sol\":2357:2387  _transferOwnership(address(0)) */\n      jump\t// in\n    tag_191:\n        /* \"@openzeppelin/contracts/access/Ownable.sol\":2293:2394  function renounceOwnership() public virtual onlyOwner {... */\n      jump\t// out\n        /* \"Wallery/PaintingShares.sol\":7131:7194  function pause() external onlyOwner {... */\n    tag_66:\n        /* \"@openzeppelin/contracts/access/Ownable.sol\":1531:1544  _checkOwner() */\n      tag_194\n        /* \"@openzeppelin/contracts/access/Ownable.sol\":1531:1542  _checkOwner */\n      tag_173\n        /* \"@openzeppelin/contracts/access/Ownable.sol\":1531:1544  _checkOwner() */\n      jump\t// in\n    tag_194:\n        /* \"Wallery/PaintingShares.sol\":7178:7186  _pause() */\n      tag_196\n        /* \"Wallery/PaintingShares.sol\":7178:7184  _pause */\n      tag_197\n        /* \"Wallery/PaintingShares.sol\":7178:7186  _pause() */\n      jump\t// in\n    tag_196:\n        /* \"Wallery/PaintingShares.sol\":7131:7194  function pause() external onlyOwner {... */\n      jump\t// out\n        /* \"Wallery/PaintingShares.sol\":306:351  uint256 public constant TOTAL_SHARES = 100000 */\n    tag_68:\n        /* \"Wallery/PaintingShares.sol\":345:351  100000 */\n      0x0186a0\n        /* \"Wallery/PaintingShares.sol\":306:351  uint256 public constant TOTAL_SHARES = 100000 */\n      dup2\n      jump\t// out\n        /* \"Wallery/PaintingShares.sol\":4499:4896  function approve(... */\n    tag_73:\n        /* \"Wallery/PaintingShares.sol\":4663:4667  bool */\n      0x00\n        /* \"Wallery/PaintingShares.sol\":4628:4638  paintingId */\n      dup4\n        /* \"Wallery/PaintingShares.sol\":1849:1855  shares */\n      0x02\n        /* \"Wallery/PaintingShares.sol\":1849:1867  shares[paintingId] */\n      0x00\n        /* \"Wallery/PaintingShares.sol\":1856:1866  paintingId */\n      dup3\n        /* \"Wallery/PaintingShares.sol\":1849:1867  shares[paintingId] */\n      dup2\n      mstore\n      0x20\n      add\n      swap1\n      dup2\n      mstore\n      0x20\n      add\n      0x00\n      keccak256\n        /* \"Wallery/PaintingShares.sol\":1849:1874  shares[paintingId].exists */\n      0x03\n      add\n      0x00\n      swap1\n      sload\n      swap1\n      0x0100\n      exp\n      swap1\n      div\n      0xff\n      and\n        /* \"Wallery/PaintingShares.sol\":1841:1915  require(shares[paintingId].exists, \"Shares don't exist for this painting\") */\n      tag_199\n      jumpi\n      mload(0x40)\n      0x08c379a000000000000000000000000000000000000000000000000000000000\n      dup2\n      mstore\n      0x04\n      add\n      tag_200\n      swap1\n      tag_138\n      jump\t// in\n    tag_200:\n      mload(0x40)\n      dup1\n      swap2\n      sub\n      swap1\n      revert\n    tag_199:\n        /* \"@openzeppelin/contracts/security/Pausable.sol\":1239:1258  _requireNotPaused() */\n      tag_202\n        /* \"@openzeppelin/contracts/security/Pausable.sol\":1239:1256  _requireNotPaused */\n      tag_95\n        /* \"@openzeppelin/contracts/security/Pausable.sol\":1239:1258  _requireNotPaused() */\n      jump\t// in\n    tag_202:\n        /* \"Wallery/PaintingShares.sol\":4707:4708  0 */\n      0x00\n        /* \"Wallery/PaintingShares.sol\":4688:4709  spender != address(0) */\n      0xffffffffffffffffffffffffffffffffffffffff\n      and\n        /* \"Wallery/PaintingShares.sol\":4688:4695  spender */\n      dup5\n        /* \"Wallery/PaintingShares.sol\":4688:4709  spender != address(0) */\n      0xffffffffffffffffffffffffffffffffffffffff\n      and\n      sub\n        /* \"Wallery/PaintingShares.sol\":4680:4737  require(spender != address(0), \"Approve to zero address\") */\n      tag_204\n      jumpi\n      mload(0x40)\n      0x08c379a000000000000000000000000000000000000000000000000000000000\n      dup2\n      mstore\n      0x04\n      add\n      tag_205\n      swap1\n      tag_206\n      jump\t// in\n    tag_205:\n      mload(0x40)\n      dup1\n      swap2\n      sub\n      swap1\n      revert\n    tag_204:\n        /* \"Wallery/PaintingShares.sol\":4795:4801  amount */\n      dup3\n        /* \"Wallery/PaintingShares.sol\":4750:4759  allowance */\n      0x04\n        /* \"Wallery/PaintingShares.sol\":4750:4771  allowance[msg.sender] */\n      0x00\n        /* \"Wallery/PaintingShares.sol\":4760:4770  msg.sender */\n      caller\n        /* \"Wallery/PaintingShares.sol\":4750:4771  allowance[msg.sender] */\n      0xffffffffffffffffffffffffffffffffffffffff\n      and\n      0xffffffffffffffffffffffffffffffffffffffff\n      and\n      dup2\n      mstore\n      0x20\n      add\n      swap1\n      dup2\n      mstore\n      0x20\n      add\n      0x00\n      keccak256\n        /* \"Wallery/PaintingShares.sol\":4750:4780  allowance[msg.sender][spender] */\n      0x00\n        /* \"Wallery/PaintingShares.sol\":4772:4779  spender */\n      dup7\n        /* \"Wallery/PaintingShares.sol\":4750:4780  allowance[msg.sender][spender] */\n      0xffffffffffffffffffffffffffffffffffffffff\n      and\n      0xffffffffffffffffffffffffffffffffffffffff\n      and\n      dup2\n      mstore\n      0x20\n      add\n      swap1\n      dup2\n      mstore\n      0x20\n      add\n      0x00\n      keccak256\n        /* \"Wallery/PaintingShares.sol\":4750:4792  allowance[msg.sender][spender][paintingId] */\n      0x00\n        /* \"Wallery/PaintingShares.sol\":4781:4791  paintingId */\n      dup8\n        /* \"Wallery/PaintingShares.sol\":4750:4792  allowance[msg.sender][spender][paintingId] */\n      dup2\n      mstore\n      0x20\n      add\n      swap1\n      dup2\n      mstore\n      0x20\n      add\n      0x00\n      keccak256\n        /* \"Wallery/PaintingShares.sol\":4750:4801  allowance[msg.sender][spender][paintingId] = amount */\n      dup2\n      swap1\n      sstore\n      pop\n        /* \"Wallery/PaintingShares.sol\":4850:4857  spender */\n      dup4\n        /* \"Wallery/PaintingShares.sol\":4817:4866  Approval(paintingId, msg.sender, spender, amount) */\n      0xffffffffffffffffffffffffffffffffffffffff\n      and\n        /* \"Wallery/PaintingShares.sol\":4838:4848  msg.sender */\n      caller\n        /* \"Wallery/PaintingShares.sol\":4817:4866  Approval(paintingId, msg.sender, spender, amount) */\n      0xffffffffffffffffffffffffffffffffffffffff\n      and\n        /* \"Wallery/PaintingShares.sol\":4826:4836  paintingId */\n      dup7\n        /* \"Wallery/PaintingShares.sol\":4817:4866  Approval(paintingId, msg.sender, spender, amount) */\n      0x69e4aaf23f9318cf40839ac20453d8fbedaac2955eb08a27ae5189cc71925716\n        /* \"Wallery/PaintingShares.sol\":4859:4865  amount */\n      dup7\n        /* \"Wallery/PaintingShares.sol\":4817:4866  Approval(paintingId, msg.sender, spender, amount) */\n      mload(0x40)\n      tag_207\n      swap2\n      swap1\n      tag_28\n      jump\t// in\n    tag_207:\n      mload(0x40)\n      dup1\n      swap2\n      sub\n      swap1\n      log4\n        /* \"Wallery/PaintingShares.sol\":4884:4888  true */\n      0x01\n        /* \"Wallery/PaintingShares.sol\":4877:4888  return true */\n      swap2\n      pop\n        /* \"Wallery/PaintingShares.sol\":4499:4896  function approve(... */\n      pop\n      swap4\n      swap3\n      pop\n      pop\n      pop\n      jump\t// out\n        /* \"@openzeppelin/contracts/access/Ownable.sol\":1638:1723  function owner() public view virtual returns (address) {... */\n    tag_76:\n        /* \"@openzeppelin/contracts/access/Ownable.sol\":1684:1691  address */\n      0x00\n        /* \"@openzeppelin/contracts/access/Ownable.sol\":1710:1716  _owner */\n      dup1\n      0x00\n      swap1\n      sload\n      swap1\n      0x0100\n      exp\n      swap1\n      div\n      0xffffffffffffffffffffffffffffffffffffffff\n      and\n        /* \"@openzeppelin/contracts/access/Ownable.sol\":1703:1716  return _owner */\n      swap1\n      pop\n        /* \"@openzeppelin/contracts/access/Ownable.sol\":1638:1723  function owner() public view virtual returns (address) {... */\n      swap1\n      jump\t// out\n        /* \"Wallery/PaintingShares.sol\":1943:2179  function setPaintingNFTContract(address _paintingNFTContract) external onlyOwner {... */\n    tag_81:\n        /* \"@openzeppelin/contracts/access/Ownable.sol\":1531:1544  _checkOwner() */\n      tag_210\n        /* \"@openzeppelin/contracts/access/Ownable.sol\":1531:1542  _checkOwner */\n      tag_173\n        /* \"@openzeppelin/contracts/access/Ownable.sol\":1531:1544  _checkOwner() */\n      jump\t// in\n    tag_210:\n        /* \"Wallery/PaintingShares.sol\":2075:2076  0 */\n      0x00\n        /* \"Wallery/PaintingShares.sol\":2043:2077  _paintingNFTContract != address(0) */\n      0xffffffffffffffffffffffffffffffffffffffff\n      and\n        /* \"Wallery/PaintingShares.sol\":2043:2063  _paintingNFTContract */\n      dup2\n        /* \"Wallery/PaintingShares.sol\":2043:2077  _paintingNFTContract != address(0) */\n      0xffffffffffffffffffffffffffffffffffffffff\n      and\n      sub\n        /* \"Wallery/PaintingShares.sol\":2035:2097  require(_paintingNFTContract != address(0), \"Invalid address\") */\n      tag_212\n      jumpi\n      mload(0x40)\n      0x08c379a000000000000000000000000000000000000000000000000000000000\n      dup2\n      mstore\n      0x04\n      add\n      tag_213\n      swap1\n      tag_214\n      jump\t// in\n    tag_213:\n      mload(0x40)\n      dup1\n      swap2\n      sub\n      swap1\n      revert\n    tag_212:\n        /* \"Wallery/PaintingShares.sol\":2130:2150  _paintingNFTContract */\n      dup1\n        /* \"Wallery/PaintingShares.sol\":2108:2127  paintingNFTContract */\n      0x05\n      0x00\n        /* \"Wallery/PaintingShares.sol\":2108:2150  paintingNFTContract = _paintingNFTContract */\n      0x0100\n      exp\n      dup2\n      sload\n      dup2\n      0xffffffffffffffffffffffffffffffffffffffff\n      mul\n      not\n      and\n      swap1\n      dup4\n      0xffffffffffffffffffffffffffffffffffffffff\n      and\n      mul\n      or\n      swap1\n      sstore\n      pop\n        /* \"Wallery/PaintingShares.sol\":2161:2171  _unpause() */\n      tag_215\n        /* \"Wallery/PaintingShares.sol\":2161:2169  _unpause */\n      tag_176\n        /* \"Wallery/PaintingShares.sol\":2161:2171  _unpause() */\n      jump\t// in\n    tag_215:\n        /* \"Wallery/PaintingShares.sol\":1943:2179  function setPaintingNFTContract(address _paintingNFTContract) external onlyOwner {... */\n      pop\n      jump\t// out\n        /* \"@openzeppelin/contracts/access/Ownable.sol\":2543:2758  function transferOwnership(address newOwner) public virtual onlyOwner {... */\n    tag_84:\n        /* \"@openzeppelin/contracts/access/Ownable.sol\":1531:1544  _checkOwner() */\n      tag_217\n        /* \"@openzeppelin/contracts/access/Ownable.sol\":1531:1542  _checkOwner */\n      tag_173\n        /* \"@openzeppelin/contracts/access/Ownable.sol\":1531:1544  _checkOwner() */\n      jump\t// in\n    tag_217:\n        /* \"@openzeppelin/contracts/access/Ownable.sol\":2647:2648  0 */\n      0x00\n        /* \"@openzeppelin/contracts/access/Ownable.sol\":2627:2649  newOwner == address(0) */\n      0xffffffffffffffffffffffffffffffffffffffff\n      and\n        /* \"@openzeppelin/contracts/access/Ownable.sol\":2627:2635  newOwner */\n      dup2\n        /* \"@openzeppelin/contracts/access/Ownable.sol\":2627:2649  newOwner == address(0) */\n      0xffffffffffffffffffffffffffffffffffffffff\n      and\n      sub\n        /* \"@openzeppelin/contracts/access/Ownable.sol\":2623:2714  if (newOwner == address(0)) {... */\n      tag_219\n      jumpi\n        /* \"@openzeppelin/contracts/access/Ownable.sol\":2700:2701  0 */\n      0x00\n        /* \"@openzeppelin/contracts/access/Ownable.sol\":2672:2703  OwnableInvalidOwner(address(0)) */\n      mload(0x40)\n      0x1e4fbdf700000000000000000000000000000000000000000000000000000000\n      dup2\n      mstore\n      0x04\n      add\n      tag_220\n      swap2\n      swap1\n      tag_48\n      jump\t// in\n    tag_220:\n      mload(0x40)\n      dup1\n      swap2\n      sub\n      swap1\n      revert\n        /* \"@openzeppelin/contracts/access/Ownable.sol\":2623:2714  if (newOwner == address(0)) {... */\n    tag_219:\n        /* \"@openzeppelin/contracts/access/Ownable.sol\":2723:2751  _transferOwnership(newOwner) */\n      tag_221\n        /* \"@openzeppelin/contracts/access/Ownable.sol\":2742:2750  newOwner */\n      dup2\n        /* \"@openzeppelin/contracts/access/Ownable.sol\":2723:2741  _transferOwnership */\n      tag_192\n        /* \"@openzeppelin/contracts/access/Ownable.sol\":2723:2751  _transferOwnership(newOwner) */\n      jump\t// in\n    tag_221:\n        /* \"@openzeppelin/contracts/access/Ownable.sol\":2543:2758  function transferOwnership(address newOwner) public virtual onlyOwner {... */\n      pop\n      jump\t// out\n        /* \"Wallery/PaintingShares.sol\":4073:4491  function transfer(... */\n    tag_87:\n        /* \"Wallery/PaintingShares.sol\":4246:4250  bool */\n      0x00\n        /* \"Wallery/PaintingShares.sol\":4198:4208  paintingId */\n      dup4\n        /* \"Wallery/PaintingShares.sol\":1849:1855  shares */\n      0x02\n        /* \"Wallery/PaintingShares.sol\":1849:1867  shares[paintingId] */\n      0x00\n        /* \"Wallery/PaintingShares.sol\":1856:1866  paintingId */\n      dup3\n        /* \"Wallery/PaintingShares.sol\":1849:1867  shares[paintingId] */\n      dup2\n      mstore\n      0x20\n      add\n      swap1\n      dup2\n      mstore\n      0x20\n      add\n      0x00\n      keccak256\n        /* \"Wallery/PaintingShares.sol\":1849:1874  shares[paintingId].exists */\n      0x03\n      add\n      0x00\n      swap1\n      sload\n      swap1\n      0x0100\n      exp\n      swap1\n      div\n      0xff\n      and\n        /* \"Wallery/PaintingShares.sol\":1841:1915  require(shares[paintingId].exists, \"Shares don't exist for this painting\") */\n      tag_223\n      jumpi\n      mload(0x40)\n      0x08c379a000000000000000000000000000000000000000000000000000000000\n      dup2\n      mstore\n      0x04\n      add\n      tag_224\n      swap1\n      tag_138\n      jump\t// in\n    tag_224:\n      mload(0x40)\n      dup1\n      swap2\n      sub\n      swap1\n      revert\n    tag_223:\n        /* \"@openzeppelin/contracts/security/Pausable.sol\":1239:1258  _requireNotPaused() */\n      tag_226\n        /* \"@openzeppelin/contracts/security/Pausable.sol\":1239:1256  _requireNotPaused */\n      tag_95\n        /* \"@openzeppelin/contracts/security/Pausable.sol\":1239:1258  _requireNotPaused() */\n      jump\t// in\n    tag_226:\n        /* \"@openzeppelin/contracts/security/ReentrancyGuard.sol\":2261:2282  _nonReentrantBefore() */\n      tag_228\n        /* \"@openzeppelin/contracts/security/ReentrancyGuard.sol\":2261:2280  _nonReentrantBefore */\n      tag_143\n        /* \"@openzeppelin/contracts/security/ReentrancyGuard.sol\":2261:2282  _nonReentrantBefore() */\n      jump\t// in\n    tag_228:\n        /* \"Wallery/PaintingShares.sol\":4285:4286  0 */\n      0x00\n        /* \"Wallery/PaintingShares.sol\":4271:4287  to != address(0) */\n      0xffffffffffffffffffffffffffffffffffffffff\n      and\n        /* \"Wallery/PaintingShares.sol\":4271:4273  to */\n      dup5\n        /* \"Wallery/PaintingShares.sol\":4271:4287  to != address(0) */\n      0xffffffffffffffffffffffffffffffffffffffff\n      and\n      sub\n        /* \"Wallery/PaintingShares.sol\":4263:4316  require(to != address(0), \"Transfer to zero address\") */\n      tag_230\n      jumpi\n      mload(0x40)\n      0x08c379a000000000000000000000000000000000000000000000000000000000\n      dup2\n      mstore\n      0x04\n      add\n      tag_231\n      swap1\n      tag_147\n      jump\t// in\n    tag_231:\n      mload(0x40)\n      dup1\n      swap2\n      sub\n      swap1\n      revert\n    tag_230:\n        /* \"Wallery/PaintingShares.sol\":4372:4378  amount */\n      dup3\n        /* \"Wallery/PaintingShares.sol\":4335:4344  balanceOf */\n      0x03\n        /* \"Wallery/PaintingShares.sol\":4335:4356  balanceOf[msg.sender] */\n      0x00\n        /* \"Wallery/PaintingShares.sol\":4345:4355  msg.sender */\n      caller\n        /* \"Wallery/PaintingShares.sol\":4335:4356  balanceOf[msg.sender] */\n      0xffffffffffffffffffffffffffffffffffffffff\n      and\n      0xffffffffffffffffffffffffffffffffffffffff\n      and\n      dup2\n      mstore\n      0x20\n      add\n      swap1\n      dup2\n      mstore\n      0x20\n      add\n      0x00\n      keccak256\n        /* \"Wallery/PaintingShares.sol\":4335:4368  balanceOf[msg.sender][paintingId] */\n      0x00\n        /* \"Wallery/PaintingShares.sol\":4357:4367  paintingId */\n      dup8\n        /* \"Wallery/PaintingShares.sol\":4335:4368  balanceOf[msg.sender][paintingId] */\n      dup2\n      mstore\n      0x20\n      add\n      swap1\n      dup2\n      mstore\n      0x20\n      add\n      0x00\n      keccak256\n      sload\n        /* \"Wallery/PaintingShares.sol\":4335:4378  balanceOf[msg.sender][paintingId] >= amount */\n      lt\n      iszero\n        /* \"Wallery/PaintingShares.sol\":4327:4403  require(balanceOf[msg.sender][paintingId] >= amount, \"Insufficient balance\") */\n      tag_232\n      jumpi\n      mload(0x40)\n      0x08c379a000000000000000000000000000000000000000000000000000000000\n      dup2\n      mstore\n      0x04\n      add\n      tag_233\n      swap1\n      tag_150\n      jump\t// in\n    tag_233:\n      mload(0x40)\n      dup1\n      swap2\n      sub\n      swap1\n      revert\n    tag_232:\n        /* \"Wallery/PaintingShares.sol\":4416:4461  _transfer(paintingId, msg.sender, to, amount) */\n      tag_234\n        /* \"Wallery/PaintingShares.sol\":4426:4436  paintingId */\n      dup6\n        /* \"Wallery/PaintingShares.sol\":4438:4448  msg.sender */\n      caller\n        /* \"Wallery/PaintingShares.sol\":4450:4452  to */\n      dup7\n        /* \"Wallery/PaintingShares.sol\":4454:4460  amount */\n      dup7\n        /* \"Wallery/PaintingShares.sol\":4416:4425  _transfer */\n      tag_156\n        /* \"Wallery/PaintingShares.sol\":4416:4461  _transfer(paintingId, msg.sender, to, amount) */\n      jump\t// in\n    tag_234:\n        /* \"Wallery/PaintingShares.sol\":4479:4483  true */\n      0x01\n        /* \"Wallery/PaintingShares.sol\":4472:4483  return true */\n      swap2\n      pop\n        /* \"@openzeppelin/contracts/security/ReentrancyGuard.sol\":2303:2323  _nonReentrantAfter() */\n      tag_235\n        /* \"@openzeppelin/contracts/security/ReentrancyGuard.sol\":2303:2321  _nonReentrantAfter */\n      tag_158\n        /* \"@openzeppelin/contracts/security/ReentrancyGuard.sol\":2303:2323  _nonReentrantAfter() */\n      jump\t// in\n    tag_235:\n        /* \"Wallery/PaintingShares.sol\":4073:4491  function transfer(... */\n      pop\n      swap4\n      swap3\n      pop\n      pop\n      pop\n      jump\t// out\n        /* \"@openzeppelin/contracts/security/Pausable.sol\":1767:1873  function _requireNotPaused() internal view virtual {... */\n    tag_95:\n        /* \"@openzeppelin/contracts/security/Pausable.sol\":1837:1845  paused() */\n      tag_237\n        /* \"@openzeppelin/contracts/security/Pausable.sol\":1837:1843  paused */\n      tag_61\n        /* \"@openzeppelin/contracts/security/Pausable.sol\":1837:1845  paused() */\n      jump\t// in\n    tag_237:\n        /* \"@openzeppelin/contracts/security/Pausable.sol\":1836:1845  !paused() */\n      iszero\n        /* \"@openzeppelin/contracts/security/Pausable.sol\":1828:1866  require(!paused(), \"Pausable: paused\") */\n      tag_238\n      jumpi\n      mload(0x40)\n      0x08c379a000000000000000000000000000000000000000000000000000000000\n      dup2\n      mstore\n      0x04\n      add\n      tag_239\n      swap1\n      tag_240\n      jump\t// in\n    tag_239:\n      mload(0x40)\n      dup1\n      swap2\n      sub\n      swap1\n      revert\n    tag_238:\n        /* \"@openzeppelin/contracts/security/Pausable.sol\":1767:1873  function _requireNotPaused() internal view virtual {... */\n      jump\t// out\n        /* \"Wallery/PaintingShares.sol\":6590:7123  function _toString(uint256 value) internal pure returns (string memory) {... */\n    tag_107:\n        /* \"Wallery/PaintingShares.sol\":6647:6660  string memory */\n      0x60\n        /* \"Wallery/PaintingShares.sol\":6686:6687  0 */\n      0x00\n        /* \"Wallery/PaintingShares.sol\":6677:6682  value */\n      dup3\n        /* \"Wallery/PaintingShares.sol\":6677:6687  value == 0 */\n      sub\n        /* \"Wallery/PaintingShares.sol\":6673:6726  if (value == 0) {... */\n      tag_242\n      jumpi\n        /* \"Wallery/PaintingShares.sol\":6704:6714  return \"0\" */\n      mload(0x40)\n      dup1\n      0x40\n      add\n      0x40\n      mstore\n      dup1\n      0x01\n      dup2\n      mstore\n      0x20\n      add\n      0x3000000000000000000000000000000000000000000000000000000000000000\n      dup2\n      mstore\n      pop\n      swap1\n      pop\n      jump(tag_241)\n        /* \"Wallery/PaintingShares.sol\":6673:6726  if (value == 0) {... */\n    tag_242:\n        /* \"Wallery/PaintingShares.sol\":6736:6748  uint256 temp */\n      0x00\n        /* \"Wallery/PaintingShares.sol\":6751:6756  value */\n      dup3\n        /* \"Wallery/PaintingShares.sol\":6736:6756  uint256 temp = value */\n      swap1\n      pop\n        /* \"Wallery/PaintingShares.sol\":6767:6781  uint256 digits */\n      0x00\n        /* \"Wallery/PaintingShares.sol\":6792:6870  while (temp != 0) {... */\n    tag_243:\n        /* \"Wallery/PaintingShares.sol\":6807:6808  0 */\n      0x00\n        /* \"Wallery/PaintingShares.sol\":6799:6803  temp */\n      dup3\n        /* \"Wallery/PaintingShares.sol\":6799:6808  temp != 0 */\n      eq\n        /* \"Wallery/PaintingShares.sol\":6792:6870  while (temp != 0) {... */\n      tag_244\n      jumpi\n        /* \"Wallery/PaintingShares.sol\":6825:6833  digits++ */\n      dup1\n      dup1\n      tag_245\n      swap1\n      tag_246\n      jump\t// in\n    tag_245:\n      swap2\n      pop\n      pop\n        /* \"Wallery/PaintingShares.sol\":6856:6858  10 */\n      0x0a\n        /* \"Wallery/PaintingShares.sol\":6848:6858  temp /= 10 */\n      dup3\n      tag_247\n      swap2\n      swap1\n      tag_119\n      jump\t// in\n    tag_247:\n      swap2\n      pop\n        /* \"Wallery/PaintingShares.sol\":6792:6870  while (temp != 0) {... */\n      jump(tag_243)\n    tag_244:\n        /* \"Wallery/PaintingShares.sol\":6880:6899  bytes memory buffer */\n      0x00\n        /* \"Wallery/PaintingShares.sol\":6912:6918  digits */\n      dup2\n        /* \"Wallery/PaintingShares.sol\":6902:6919  new bytes(digits) */\n      0xffffffffffffffff\n      dup2\n      gt\n      iszero\n      tag_248\n      jumpi\n      tag_249\n      tag_250\n      jump\t// in\n    tag_249:\n    tag_248:\n      mload(0x40)\n      swap1\n      dup1\n      dup3\n      mstore\n      dup1\n      0x1f\n      add\n      not(0x1f)\n      and\n      0x20\n      add\n      dup3\n      add\n      0x40\n      mstore\n      dup1\n      iszero\n      tag_251\n      jumpi\n      dup2\n      0x20\n      add\n      0x01\n      dup3\n      mul\n      dup1\n      calldatasize\n      dup4\n      calldatacopy\n      dup1\n      dup3\n      add\n      swap2\n      pop\n      pop\n      swap1\n      pop\n    tag_251:\n      pop\n        /* \"Wallery/PaintingShares.sol\":6880:6919  bytes memory buffer = new bytes(digits) */\n      swap1\n      pop\n        /* \"Wallery/PaintingShares.sol\":6930:7084  while (value != 0) {... */\n    tag_252:\n        /* \"Wallery/PaintingShares.sol\":6946:6947  0 */\n      0x00\n        /* \"Wallery/PaintingShares.sol\":6937:6942  value */\n      dup6\n        /* \"Wallery/PaintingShares.sol\":6937:6947  value != 0 */\n      eq\n        /* \"Wallery/PaintingShares.sol\":6930:7084  while (value != 0) {... */\n      tag_253\n      jumpi\n        /* \"Wallery/PaintingShares.sol\":6974:6975  1 */\n      0x01\n        /* \"Wallery/PaintingShares.sol\":6964:6975  digits -= 1 */\n      dup3\n      tag_254\n      swap2\n      swap1\n      tag_125\n      jump\t// in\n    tag_254:\n      swap2\n      pop\n        /* \"Wallery/PaintingShares.sol\":7041:7043  10 */\n      0x0a\n        /* \"Wallery/PaintingShares.sol\":7033:7038  value */\n      dup6\n        /* \"Wallery/PaintingShares.sol\":7033:7043  value % 10 */\n      tag_255\n      swap2\n      swap1\n      tag_256\n      jump\t// in\n    tag_255:\n        /* \"Wallery/PaintingShares.sol\":7020:7022  48 */\n      0x30\n        /* \"Wallery/PaintingShares.sol\":7020:7044  48 + uint256(value % 10) */\n      tag_257\n      swap2\n      swap1\n      tag_101\n      jump\t// in\n    tag_257:\n        /* \"Wallery/PaintingShares.sol\":7007:7046  bytes1(uint8(48 + uint256(value % 10))) */\n      0xf8\n      shl\n        /* \"Wallery/PaintingShares.sol\":6990:6996  buffer */\n      dup2\n        /* \"Wallery/PaintingShares.sol\":6997:7003  digits */\n      dup4\n        /* \"Wallery/PaintingShares.sol\":6990:7004  buffer[digits] */\n      dup2\n      mload\n      dup2\n      lt\n      tag_258\n      jumpi\n      tag_259\n      tag_260\n      jump\t// in\n    tag_259:\n    tag_258:\n      0x20\n      add\n      add\n        /* \"Wallery/PaintingShares.sol\":6990:7046  buffer[digits] = bytes1(uint8(48 + uint256(value % 10))) */\n      swap1\n      not(0xffffffffffffffffffffffffffffffffffffffffffffffffffffffffffffff)\n      and\n      swap1\n      dup2\n      0x00\n      byte\n      swap1\n      mstore8\n      pop\n        /* \"Wallery/PaintingShares.sol\":7070:7072  10 */\n      0x0a\n        /* \"Wallery/PaintingShares.sol\":7061:7072  value /= 10 */\n      dup6\n      tag_261\n      swap2\n      swap1\n      tag_119\n      jump\t// in\n    tag_261:\n      swap5\n      pop\n        /* \"Wallery/PaintingShares.sol\":6930:7084  while (value != 0) {... */\n      jump(tag_252)\n    tag_253:\n        /* \"Wallery/PaintingShares.sol\":7108:7114  buffer */\n      dup1\n        /* \"Wallery/PaintingShares.sol\":7094:7115  return string(buffer) */\n      swap4\n      pop\n      pop\n      pop\n      pop\n        /* \"Wallery/PaintingShares.sol\":6590:7123  function _toString(uint256 value) internal pure returns (string memory) {... */\n    tag_241:\n      swap2\n      swap1\n      pop\n      jump\t// out\n        /* \"Wallery/PaintingShares.sol\":6232:6582  function _mintShares(... */\n    tag_129:\n        /* \"Wallery/PaintingShares.sol\":6377:6378  0 */\n      0x00\n        /* \"Wallery/PaintingShares.sol\":6363:6379  to != address(0) */\n      0xffffffffffffffffffffffffffffffffffffffff\n      and\n        /* \"Wallery/PaintingShares.sol\":6363:6365  to */\n      dup3\n        /* \"Wallery/PaintingShares.sol\":6363:6379  to != address(0) */\n      0xffffffffffffffffffffffffffffffffffffffff\n      and\n      sub\n        /* \"Wallery/PaintingShares.sol\":6355:6404  require(to != address(0), \"Mint to zero address\") */\n      tag_263\n      jumpi\n      mload(0x40)\n      0x08c379a000000000000000000000000000000000000000000000000000000000\n      dup2\n      mstore\n      0x04\n      add\n      tag_264\n      swap1\n      tag_265\n      jump\t// in\n    tag_264:\n      mload(0x40)\n      dup1\n      swap2\n      sub\n      swap1\n      revert\n    tag_263:\n        /* \"Wallery/PaintingShares.sol\":6454:6460  amount */\n      dup1\n        /* \"Wallery/PaintingShares.sol\":6425:6434  balanceOf */\n      0x03\n        /* \"Wallery/PaintingShares.sol\":6425:6438  balanceOf[to] */\n      0x00\n        /* \"Wallery/PaintingShares.sol\":6435:6437  to */\n      dup5\n        /* \"Wallery/PaintingShares.sol\":6425:6438  balanceOf[to] */\n      0xffffffffffffffffffffffffffffffffffffffff\n      and\n      0xffffffffffffffffffffffffffffffffffffffff\n      and\n      dup2\n      mstore\n      0x20\n      add\n      swap1\n      dup2\n      mstore\n      0x20\n      add\n      0x00\n      keccak256\n        /* \"Wallery/PaintingShares.sol\":6425:6450  balanceOf[to][paintingId] */\n      0x00\n        /* \"Wallery/PaintingShares.sol\":6439:6449  paintingId */\n      dup6\n        /* \"Wallery/PaintingShares.sol\":6425:6450  balanceOf[to][paintingId] */\n      dup2\n      mstore\n      0x20\n      add\n      swap1\n      dup2\n      mstore\n      0x20\n      add\n      0x00\n      keccak256\n      0x00\n        /* \"Wallery/PaintingShares.sol\":6425:6460  balanceOf[to][paintingId] += amount */\n      dup3\n      dup3\n      sload\n      tag_266\n      swap2\n      swap1\n      tag_101\n      jump\t// in\n    tag_266:\n      swap3\n      pop\n      pop\n      dup2\n      swap1\n      sstore\n      pop\n        /* \"Wallery/PaintingShares.sol\":6506:6512  amount */\n      dup1\n        /* \"Wallery/PaintingShares.sol\":6471:6477  shares */\n      0x02\n        /* \"Wallery/PaintingShares.sol\":6471:6489  shares[paintingId] */\n      0x00\n        /* \"Wallery/PaintingShares.sol\":6478:6488  paintingId */\n      dup6\n        /* \"Wallery/PaintingShares.sol\":6471:6489  shares[paintingId] */\n      dup2\n      mstore\n      0x20\n      add\n      swap1\n      dup2\n      mstore\n      0x20\n      add\n      0x00\n      keccak256\n        /* \"Wallery/PaintingShares.sol\":6471:6498  shares[paintingId].balances */\n      0x04\n      add\n        /* \"Wallery/PaintingShares.sol\":6471:6502  shares[paintingId].balances[to] */\n      0x00\n        /* \"Wallery/PaintingShares.sol\":6499:6501  to */\n      dup5\n        /* \"Wallery/PaintingShares.sol\":6471:6502  shares[paintingId].balances[to] */\n      0xffffffffffffffffffffffffffffffffffffffff\n      and\n      0xffffffffffffffffffffffffffffffffffffffff\n      and\n      dup2\n      mstore\n      0x20\n      add\n      swap1\n      dup2\n      mstore\n      0x20\n      add\n      0x00\n      keccak256\n      0x00\n        /* \"Wallery/PaintingShares.sol\":6471:6512  shares[paintingId].balances[to] += amount */\n      dup3\n      dup3\n      sload\n      tag_267\n      swap2\n      swap1\n      tag_101\n      jump\t// in\n    tag_267:\n      swap3\n      pop\n      pop\n      dup2\n      swap1\n      sstore\n      pop\n        /* \"Wallery/PaintingShares.sol\":6563:6565  to */\n      dup2\n        /* \"Wallery/PaintingShares.sol\":6530:6574  Transfer(paintingId, address(0), to, amount) */\n      0xffffffffffffffffffffffffffffffffffffffff\n      and\n        /* \"Wallery/PaintingShares.sol\":6559:6560  0 */\n      0x00\n        /* \"Wallery/PaintingShares.sol\":6530:6574  Transfer(paintingId, address(0), to, amount) */\n      0xffffffffffffffffffffffffffffffffffffffff\n      and\n        /* \"Wallery/PaintingShares.sol\":6539:6549  paintingId */\n      dup5\n        /* \"Wallery/PaintingShares.sol\":6530:6574  Transfer(paintingId, address(0), to, amount) */\n      0xf2dbd98d79f00f7aff338b824931d607bfcc63d47307162470f25a055102d3b0\n        /* \"Wallery/PaintingShares.sol\":6567:6573  amount */\n      dup5\n        /* \"Wallery/PaintingShares.sol\":6530:6574  Transfer(paintingId, address(0), to, amount) */\n      mload(0x40)\n      tag_268\n      swap2\n      swap1\n      tag_28\n      jump\t// in\n    tag_268:\n      mload(0x40)\n      dup1\n      swap2\n      sub\n      swap1\n      log4\n        /* \"Wallery/PaintingShares.sol\":6232:6582  function _mintShares(... */\n      pop\n      pop\n      pop\n      jump\t// out\n        /* \"@openzeppelin/contracts/security/ReentrancyGuard.sol\":2336:2623  function _nonReentrantBefore() private {... */\n    tag_143:\n        /* \"@openzeppelin/contracts/security/ReentrancyGuard.sol\":1759:1760  2 */\n      0x02\n        /* \"@openzeppelin/contracts/security/ReentrancyGuard.sol\":2468:2475  _status */\n      sload(0x01)\n        /* \"@openzeppelin/contracts/security/ReentrancyGuard.sol\":2468:2487  _status != _ENTERED */\n      sub\n        /* \"@openzeppelin/contracts/security/ReentrancyGuard.sol\":2460:2523  require(_status != _ENTERED, \"ReentrancyGuard: reentrant call\") */\n      tag_270\n      jumpi\n      mload(0x40)\n      0x08c379a000000000000000000000000000000000000000000000000000000000\n      dup2\n      mstore\n      0x04\n      add\n      tag_271\n      swap1\n      tag_272\n      jump\t// in\n    tag_271:\n      mload(0x40)\n      dup1\n      swap2\n      sub\n      swap1\n      revert\n    tag_270:\n        /* \"@openzeppelin/contracts/security/ReentrancyGuard.sol\":1759:1760  2 */\n      0x02\n        /* \"@openzeppelin/contracts/security/ReentrancyGuard.sol\":2598:2605  _status */\n      0x01\n        /* \"@openzeppelin/contracts/security/ReentrancyGuard.sol\":2598:2616  _status = _ENTERED */\n      dup2\n      swap1\n      sstore\n      pop\n        /* \"@openzeppelin/contracts/security/ReentrancyGuard.sol\":2336:2623  function _nonReentrantBefore() private {... */\n      jump\t// out\n        /* \"Wallery/PaintingShares.sol\":5827:6224  function _transfer(... */\n    tag_156:\n        /* \"Wallery/PaintingShares.sol\":6002:6008  amount */\n      dup1\n        /* \"Wallery/PaintingShares.sol\":5971:5980  balanceOf */\n      0x03\n        /* \"Wallery/PaintingShares.sol\":5971:5986  balanceOf[from] */\n      0x00\n        /* \"Wallery/PaintingShares.sol\":5981:5985  from */\n      dup6\n        /* \"Wallery/PaintingShares.sol\":5971:5986  balanceOf[from] */\n      0xffffffffffffffffffffffffffffffffffffffff\n      and\n      0xffffffffffffffffffffffffffffffffffffffff\n      and\n      dup2\n      mstore\n      0x20\n      add\n      swap1\n      dup2\n      mstore\n      0x20\n      add\n      0x00\n      keccak256\n        /* \"Wallery/PaintingShares.sol\":5971:5998  balanceOf[from][paintingId] */\n      0x00\n        /* \"Wallery/PaintingShares.sol\":5987:5997  paintingId */\n      dup7\n        /* \"Wallery/PaintingShares.sol\":5971:5998  balanceOf[from][paintingId] */\n      dup2\n      mstore\n      0x20\n      add\n      swap1\n      dup2\n      mstore\n      0x20\n      add\n      0x00\n      keccak256\n      0x00\n        /* \"Wallery/PaintingShares.sol\":5971:6008  balanceOf[from][paintingId] -= amount */\n      dup3\n      dup3\n      sload\n      tag_274\n      swap2\n      swap1\n      tag_125\n      jump\t// in\n    tag_274:\n      swap3\n      pop\n      pop\n      dup2\n      swap1\n      sstore\n      pop\n        /* \"Wallery/PaintingShares.sol\":6048:6054  amount */\n      dup1\n        /* \"Wallery/PaintingShares.sol\":6019:6028  balanceOf */\n      0x03\n        /* \"Wallery/PaintingShares.sol\":6019:6032  balanceOf[to] */\n      0x00\n        /* \"Wallery/PaintingShares.sol\":6029:6031  to */\n      dup5\n        /* \"Wallery/PaintingShares.sol\":6019:6032  balanceOf[to] */\n      0xffffffffffffffffffffffffffffffffffffffff\n      and\n      0xffffffffffffffffffffffffffffffffffffffff\n      and\n      dup2\n      mstore\n      0x20\n      add\n      swap1\n      dup2\n      mstore\n      0x20\n      add\n      0x00\n      keccak256\n        /* \"Wallery/PaintingShares.sol\":6019:6044  balanceOf[to][paintingId] */\n      0x00\n        /* \"Wallery/PaintingShares.sol\":6033:6043  paintingId */\n      dup7\n        /* \"Wallery/PaintingShares.sol\":6019:6044  balanceOf[to][paintingId] */\n      dup2\n      mstore\n      0x20\n      add\n      swap1\n      dup2\n      mstore\n      0x20\n      add\n      0x00\n      keccak256\n      0x00\n        /* \"Wallery/PaintingShares.sol\":6019:6054  balanceOf[to][paintingId] += amount */\n      dup3\n      dup3\n      sload\n      tag_275\n      swap2\n      swap1\n      tag_101\n      jump\t// in\n    tag_275:\n      swap3\n      pop\n      pop\n      dup2\n      swap1\n      sstore\n      pop\n        /* \"Wallery/PaintingShares.sol\":6102:6108  amount */\n      dup1\n        /* \"Wallery/PaintingShares.sol\":6065:6071  shares */\n      0x02\n        /* \"Wallery/PaintingShares.sol\":6065:6083  shares[paintingId] */\n      0x00\n        /* \"Wallery/PaintingShares.sol\":6072:6082  paintingId */\n      dup7\n        /* \"Wallery/PaintingShares.sol\":6065:6083  shares[paintingId] */\n      dup2\n      mstore\n      0x20\n      add\n      swap1\n      dup2\n      mstore\n      0x20\n      add\n      0x00\n      keccak256\n        /* \"Wallery/PaintingShares.sol\":6065:6092  shares[paintingId].balances */\n      0x04\n      add\n        /* \"Wallery/PaintingShares.sol\":6065:6098  shares[paintingId].balances[from] */\n      0x00\n        /* \"Wallery/PaintingShares.sol\":6093:6097  from */\n      dup6\n        /* \"Wallery/PaintingShares.sol\":6065:6098  shares[paintingId].balances[from] */\n      0xffffffffffffffffffffffffffffffffffffffff\n      and\n      0xffffffffffffffffffffffffffffffffffffffff\n      and\n      dup2\n      mstore\n      0x20\n      add\n      swap1\n      dup2\n      mstore\n      0x20\n      add\n      0x00\n      keccak256\n      0x00\n        /* \"Wallery/PaintingShares.sol\":6065:6108  shares[paintingId].balances[from] -= amount */\n      dup3\n      dup3\n      sload\n      tag_276\n      swap2\n      swap1\n      tag_125\n      jump\t// in\n    tag_276:\n      swap3\n      pop\n      pop\n      dup2\n      swap1\n      sstore\n      pop\n        /* \"Wallery/PaintingShares.sol\":6154:6160  amount */\n      dup1\n        /* \"Wallery/PaintingShares.sol\":6119:6125  shares */\n      0x02\n        /* \"Wallery/PaintingShares.sol\":6119:6137  shares[paintingId] */\n      0x00\n        /* \"Wallery/PaintingShares.sol\":6126:6136  paintingId */\n      dup7\n        /* \"Wallery/PaintingShares.sol\":6119:6137  shares[paintingId] */\n      dup2\n      mstore\n      0x20\n      add\n      swap1\n      dup2\n      mstore\n      0x20\n      add\n      0x00\n      keccak256\n        /* \"Wallery/PaintingShares.sol\":6119:6146  shares[paintingId].balances */\n      0x04\n      add\n        /* \"Wallery/PaintingShares.sol\":6119:6150  shares[paintingId].balances[to] */\n      0x00\n        /* \"Wallery/PaintingShares.sol\":6147:6149  to */\n      dup5\n        /* \"Wallery/PaintingShares.sol\":6119:6150  shares[paintingId].balances[to] */\n      0xffffffffffffffffffffffffffffffffffffffff\n      and\n      0xffffffffffffffffffffffffffffffffffffffff\n      and\n      dup2\n      mstore\n      0x20\n      add\n      swap1\n      dup2\n      mstore\n      0x20\n      add\n      0x00\n      keccak256\n      0x00\n        /* \"Wallery/PaintingShares.sol\":6119:6160  shares[paintingId].balances[to] += amount */\n      dup3\n      dup3\n      sload\n      tag_277\n      swap2\n      swap1\n      tag_101\n      jump\t// in\n    tag_277:\n      swap3\n      pop\n      pop\n      dup2\n      swap1\n      sstore\n      pop\n        /* \"Wallery/PaintingShares.sol\":6205:6207  to */\n      dup2\n        /* \"Wallery/PaintingShares.sol\":6178:6216  Transfer(paintingId, from, to, amount) */\n      0xffffffffffffffffffffffffffffffffffffffff\n      and\n        /* \"Wallery/PaintingShares.sol\":6199:6203  from */\n      dup4\n        /* \"Wallery/PaintingShares.sol\":6178:6216  Transfer(paintingId, from, to, amount) */\n      0xffffffffffffffffffffffffffffffffffffffff\n      and\n        /* \"Wallery/PaintingShares.sol\":6187:6197  paintingId */\n      dup6\n        /* \"Wallery/PaintingShares.sol\":6178:6216  Transfer(paintingId, from, to, amount) */\n      0xf2dbd98d79f00f7aff338b824931d607bfcc63d47307162470f25a055102d3b0\n        /* \"Wallery/PaintingShares.sol\":6209:6215  amount */\n      dup5\n        /* \"Wallery/PaintingShares.sol\":6178:6216  Transfer(paintingId, from, to, amount) */\n      mload(0x40)\n      tag_278\n      swap2\n      swap1\n      tag_28\n      jump\t// in\n    tag_278:\n      mload(0x40)\n      dup1\n      swap2\n      sub\n      swap1\n      log4\n        /* \"Wallery/PaintingShares.sol\":5827:6224  function _transfer(... */\n      pop\n      pop\n      pop\n      pop\n      jump\t// out\n        /* \"@openzeppelin/contracts/security/ReentrancyGuard.sol\":2629:2838  function _nonReentrantAfter() private {... */\n    tag_158:\n        /* \"@openzeppelin/contracts/security/ReentrancyGuard.sol\":1716:1717  1 */\n      0x01\n        /* \"@openzeppelin/contracts/security/ReentrancyGuard.sol\":2809:2816  _status */\n      dup1\n        /* \"@openzeppelin/contracts/security/ReentrancyGuard.sol\":2809:2831  _status = _NOT_ENTERED */\n      dup2\n      swap1\n      sstore\n      pop\n        /* \"@openzeppelin/contracts/security/ReentrancyGuard.sol\":2629:2838  function _nonReentrantAfter() private {... */\n      jump\t// out\n        /* \"@openzeppelin/contracts/access/Ownable.sol\":1796:1958  function _checkOwner() internal view virtual {... */\n    tag_173:\n        /* \"@openzeppelin/contracts/access/Ownable.sol\":1866:1878  _msgSender() */\n      tag_281\n        /* \"@openzeppelin/contracts/access/Ownable.sol\":1866:1876  _msgSender */\n      tag_282\n        /* \"@openzeppelin/contracts/access/Ownable.sol\":1866:1878  _msgSender() */\n      jump\t// in\n    tag_281:\n        /* \"@openzeppelin/contracts/access/Ownable.sol\":1855:1878  owner() != _msgSender() */\n      0xffffffffffffffffffffffffffffffffffffffff\n      and\n        /* \"@openzeppelin/contracts/access/Ownable.sol\":1855:1862  owner() */\n      tag_283\n        /* \"@openzeppelin/contracts/access/Ownable.sol\":1855:1860  owner */\n      tag_76\n        /* \"@openzeppelin/contracts/access/Ownable.sol\":1855:1862  owner() */\n      jump\t// in\n    tag_283:\n        /* \"@openzeppelin/contracts/access/Ownable.sol\":1855:1878  owner() != _msgSender() */\n      0xffffffffffffffffffffffffffffffffffffffff\n      and\n      eq\n        /* \"@openzeppelin/contracts/access/Ownable.sol\":1851:1952  if (owner() != _msgSender()) {... */\n      tag_284\n      jumpi\n        /* \"@openzeppelin/contracts/access/Ownable.sol\":1928:1940  _msgSender() */\n      tag_285\n        /* \"@openzeppelin/contracts/access/Ownable.sol\":1928:1938  _msgSender */\n      tag_282\n        /* \"@openzeppelin/contracts/access/Ownable.sol\":1928:1940  _msgSender() */\n      jump\t// in\n    tag_285:\n        /* \"@openzeppelin/contracts/access/Ownable.sol\":1901:1941  OwnableUnauthorizedAccount(_msgSender()) */\n      mload(0x40)\n      0x118cdaa700000000000000000000000000000000000000000000000000000000\n      dup2\n      mstore\n      0x04\n      add\n      tag_286\n      swap2\n      swap1\n      tag_48\n      jump\t// in\n    tag_286:\n      mload(0x40)\n      dup1\n      swap2\n      sub\n      swap1\n      revert\n        /* \"@openzeppelin/contracts/access/Ownable.sol\":1851:1952  if (owner() != _msgSender()) {... */\n    tag_284:\n        /* \"@openzeppelin/contracts/access/Ownable.sol\":1796:1958  function _checkOwner() internal view virtual {... */\n      jump\t// out\n        /* \"@openzeppelin/contracts/security/Pausable.sol\":2433:2550  function _unpause() internal virtual whenPaused {... */\n    tag_176:\n        /* \"@openzeppelin/contracts/security/Pausable.sol\":1486:1502  _requirePaused() */\n      tag_288\n        /* \"@openzeppelin/contracts/security/Pausable.sol\":1486:1500  _requirePaused */\n      tag_289\n        /* \"@openzeppelin/contracts/security/Pausable.sol\":1486:1502  _requirePaused() */\n      jump\t// in\n    tag_288:\n        /* \"@openzeppelin/contracts/security/Pausable.sol\":2501:2506  false */\n      0x00\n        /* \"@openzeppelin/contracts/security/Pausable.sol\":2491:2498  _paused */\n      dup1\n      0x14\n        /* \"@openzeppelin/contracts/security/Pausable.sol\":2491:2506  _paused = false */\n      0x0100\n      exp\n      dup2\n      sload\n      dup2\n      0xff\n      mul\n      not\n      and\n      swap1\n      dup4\n      iszero\n      iszero\n      mul\n      or\n      swap1\n      sstore\n      pop\n        /* \"@openzeppelin/contracts/security/Pausable.sol\":2521:2543  Unpaused(_msgSender()) */\n      0x5db9ee0a495bf2e6ff9c91a7834c1ba4fdd244a5e8aa4e537bd38aeae4b073aa\n        /* \"@openzeppelin/contracts/security/Pausable.sol\":2530:2542  _msgSender() */\n      tag_291\n        /* \"@openzeppelin/contracts/security/Pausable.sol\":2530:2540  _msgSender */\n      tag_282\n        /* \"@openzeppelin/contracts/security/Pausable.sol\":2530:2542  _msgSender() */\n      jump\t// in\n    tag_291:\n        /* \"@openzeppelin/contracts/security/Pausable.sol\":2521:2543  Unpaused(_msgSender()) */\n      mload(0x40)\n      tag_292\n      swap2\n      swap1\n      tag_48\n      jump\t// in\n    tag_292:\n      mload(0x40)\n      dup1\n      swap2\n      sub\n      swap1\n      log1\n        /* \"@openzeppelin/contracts/security/Pausable.sol\":2433:2550  function _unpause() internal virtual whenPaused {... */\n      jump\t// out\n        /* \"@openzeppelin/contracts/access/Ownable.sol\":2912:3099  function _transferOwnership(address newOwner) internal virtual {... */\n    tag_192:\n        /* \"@openzeppelin/contracts/access/Ownable.sol\":2985:3001  address oldOwner */\n      0x00\n        /* \"@openzeppelin/contracts/access/Ownable.sol\":3004:3010  _owner */\n      dup1\n      0x00\n      swap1\n      sload\n      swap1\n      0x0100\n      exp\n      swap1\n      div\n      0xffffffffffffffffffffffffffffffffffffffff\n      and\n        /* \"@openzeppelin/contracts/access/Ownable.sol\":2985:3010  address oldOwner = _owner */\n      swap1\n      pop\n        /* \"@openzeppelin/contracts/access/Ownable.sol\":3029:3037  newOwner */\n      dup2\n        /* \"@openzeppelin/contracts/access/Ownable.sol\":3020:3026  _owner */\n      0x00\n      dup1\n        /* \"@openzeppelin/contracts/access/Ownable.sol\":3020:3037  _owner = newOwner */\n      0x0100\n      exp\n      dup2\n      sload\n      dup2\n      0xffffffffffffffffffffffffffffffffffffffff\n      mul\n      not\n      and\n      swap1\n      dup4\n      0xffffffffffffffffffffffffffffffffffffffff\n      and\n      mul\n      or\n      swap1\n      sstore\n      pop\n        /* \"@openzeppelin/contracts/access/Ownable.sol\":3083:3091  newOwner */\n      dup2\n        /* \"@openzeppelin/contracts/access/Ownable.sol\":3052:3092  OwnershipTransferred(oldOwner, newOwner) */\n      0xffffffffffffffffffffffffffffffffffffffff\n      and\n        /* \"@openzeppelin/contracts/access/Ownable.sol\":3073:3081  oldOwner */\n      dup2\n        /* \"@openzeppelin/contracts/access/Ownable.sol\":3052:3092  OwnershipTransferred(oldOwner, newOwner) */\n      0xffffffffffffffffffffffffffffffffffffffff\n      and\n      0x8be0079c531659141344cd1fd0a4f28419497f9722a3daafe3b4186f6b6457e0\n      mload(0x40)\n      mload(0x40)\n      dup1\n      swap2\n      sub\n      swap1\n      log3\n        /* \"@openzeppelin/contracts/access/Ownable.sol\":2975:3099  {... */\n      pop\n        /* \"@openzeppelin/contracts/access/Ownable.sol\":2912:3099  function _transferOwnership(address newOwner) internal virtual {... */\n      pop\n      jump\t// out\n        /* \"@openzeppelin/contracts/security/Pausable.sol\":2186:2301  function _pause() internal virtual whenNotPaused {... */\n    tag_197:\n        /* \"@openzeppelin/contracts/security/Pausable.sol\":1239:1258  _requireNotPaused() */\n      tag_295\n        /* \"@openzeppelin/contracts/security/Pausable.sol\":1239:1256  _requireNotPaused */\n      tag_95\n        /* \"@openzeppelin/contracts/security/Pausable.sol\":1239:1258  _requireNotPaused() */\n      jump\t// in\n    tag_295:\n        /* \"@openzeppelin/contracts/security/Pausable.sol\":2255:2259  true */\n      0x01\n        /* \"@openzeppelin/contracts/security/Pausable.sol\":2245:2252  _paused */\n      0x00\n      0x14\n        /* \"@openzeppelin/contracts/security/Pausable.sol\":2245:2259  _paused = true */\n      0x0100\n      exp\n      dup2\n      sload\n      dup2\n      0xff\n      mul\n      not\n      and\n      swap1\n      dup4\n      iszero\n      iszero\n      mul\n      or\n      swap1\n      sstore\n      pop\n        /* \"@openzeppelin/contracts/security/Pausable.sol\":2274:2294  Paused(_msgSender()) */\n      0x62e78cea01bee320cd4e420270b5ea74000d11b0c9f74754ebdbfc544b05a258\n        /* \"@openzeppelin/contracts/security/Pausable.sol\":2281:2293  _msgSender() */\n      tag_297\n        /* \"@openzeppelin/contracts/security/Pausable.sol\":2281:2291  _msgSender */\n      tag_282\n        /* \"@openzeppelin/contracts/security/Pausable.sol\":2281:2293  _msgSender() */\n      jump\t// in\n    tag_297:\n        /* \"@openzeppelin/contracts/security/Pausable.sol\":2274:2294  Paused(_msgSender()) */\n      mload(0x40)\n      tag_298\n      swap2\n      swap1\n      tag_48\n      jump\t// in\n    tag_298:\n      mload(0x40)\n      dup1\n      swap2\n      sub\n      swap1\n      log1\n        /* \"@openzeppelin/contracts/security/Pausable.sol\":2186:2301  function _pause() internal virtual whenNotPaused {... */\n      jump\t// out\n        /* \"@openzeppelin/contracts/utils/Context.sol\":656:752  function _msgSender() internal view virtual returns (address) {... */\n    tag_282:\n        /* \"@openzeppelin/contracts/utils/Context.sol\":709:716  address */\n      0x00\n        /* \"@openzeppelin/contracts/utils/Context.sol\":735:745  msg.sender */\n      caller\n        /* \"@openzeppelin/contracts/utils/Context.sol\":728:745  return msg.sender */\n      swap1\n      pop\n        /* \"@openzeppelin/contracts/utils/Context.sol\":656:752  function _msgSender() internal view virtual returns (address) {... */\n      swap1\n      jump\t// out\n        /* \"@openzeppelin/contracts/security/Pausable.sol\":1945:2051  function _requirePaused() internal view virtual {... */\n    tag_289:\n        /* \"@openzeppelin/contracts/security/Pausable.sol\":2011:2019  paused() */\n      tag_301\n        /* \"@openzeppelin/contracts/security/Pausable.sol\":2011:2017  paused */\n      tag_61\n        /* \"@openzeppelin/contracts/security/Pausable.sol\":2011:2019  paused() */\n      jump\t// in\n    tag_301:\n        /* \"@openzeppelin/contracts/security/Pausable.sol\":2003:2044  require(paused(), \"Pausable: not paused\") */\n      tag_302\n      jumpi\n      mload(0x40)\n      0x08c379a000000000000000000000000000000000000000000000000000000000\n      dup2\n      mstore\n      0x04\n      add\n      tag_303\n      swap1\n      tag_304\n      jump\t// in\n    tag_303:\n      mload(0x40)\n      dup1\n      swap2\n      sub\n      swap1\n      revert\n    tag_302:\n        /* \"@openzeppelin/contracts/security/Pausable.sol\":1945:2051  function _requirePaused() internal view virtual {... */\n      jump\t// out\n        /* \"#utility.yul\":88:205   */\n    tag_306:\n        /* \"#utility.yul\":197:198   */\n      0x00\n        /* \"#utility.yul\":194:195   */\n      dup1\n        /* \"#utility.yul\":187:199   */\n      revert\n        /* \"#utility.yul\":334:460   */\n    tag_308:\n        /* \"#utility.yul\":371:378   */\n      0x00\n        /* \"#utility.yul\":411:453   */\n      0xffffffffffffffffffffffffffffffffffffffff\n        /* \"#utility.yul\":404:409   */\n      dup3\n        /* \"#utility.yul\":400:454   */\n      and\n        /* \"#utility.yul\":389:454   */\n      swap1\n      pop\n        /* \"#utility.yul\":334:460   */\n      swap2\n      swap1\n      pop\n      jump\t// out\n        /* \"#utility.yul\":466:562   */\n    tag_309:\n        /* \"#utility.yul\":503:510   */\n      0x00\n        /* \"#utility.yul\":532:556   */\n      tag_382\n        /* \"#utility.yul\":550:555   */\n      dup3\n        /* \"#utility.yul\":532:556   */\n      tag_308\n      jump\t// in\n    tag_382:\n        /* \"#utility.yul\":521:556   */\n      swap1\n      pop\n        /* \"#utility.yul\":466:562   */\n      swap2\n      swap1\n      pop\n      jump\t// out\n        /* \"#utility.yul\":568:690   */\n    tag_310:\n        /* \"#utility.yul\":641:665   */\n      tag_384\n        /* \"#utility.yul\":659:664   */\n      dup2\n        /* \"#utility.yul\":641:665   */\n      tag_309\n      jump\t// in\n    tag_384:\n        /* \"#utility.yul\":634:639   */\n      dup2\n        /* \"#utility.yul\":631:666   */\n      eq\n        /* \"#utility.yul\":621:684   */\n      tag_385\n      jumpi\n        /* \"#utility.yul\":680:681   */\n      0x00\n        /* \"#utility.yul\":677:678   */\n      dup1\n        /* \"#utility.yul\":670:682   */\n      revert\n        /* \"#utility.yul\":621:684   */\n    tag_385:\n        /* \"#utility.yul\":568:690   */\n      pop\n      jump\t// out\n        /* \"#utility.yul\":696:835   */\n    tag_311:\n        /* \"#utility.yul\":742:747   */\n      0x00\n        /* \"#utility.yul\":780:786   */\n      dup2\n        /* \"#utility.yul\":767:787   */\n      calldataload\n        /* \"#utility.yul\":758:787   */\n      swap1\n      pop\n        /* \"#utility.yul\":796:829   */\n      tag_387\n        /* \"#utility.yul\":823:828   */\n      dup2\n        /* \"#utility.yul\":796:829   */\n      tag_310\n      jump\t// in\n    tag_387:\n        /* \"#utility.yul\":696:835   */\n      swap3\n      swap2\n      pop\n      pop\n      jump\t// out\n        /* \"#utility.yul\":841:918   */\n    tag_312:\n        /* \"#utility.yul\":878:885   */\n      0x00\n        /* \"#utility.yul\":907:912   */\n      dup2\n        /* \"#utility.yul\":896:912   */\n      swap1\n      pop\n        /* \"#utility.yul\":841:918   */\n      swap2\n      swap1\n      pop\n      jump\t// out\n        /* \"#utility.yul\":924:1046   */\n    tag_313:\n        /* \"#utility.yul\":997:1021   */\n      tag_390\n        /* \"#utility.yul\":1015:1020   */\n      dup2\n        /* \"#utility.yul\":997:1021   */\n      tag_312\n      jump\t// in\n    tag_390:\n        /* \"#utility.yul\":990:995   */\n      dup2\n        /* \"#utility.yul\":987:1022   */\n      eq\n        /* \"#utility.yul\":977:1040   */\n      tag_391\n      jumpi\n        /* \"#utility.yul\":1036:1037   */\n      0x00\n        /* \"#utility.yul\":1033:1034   */\n      dup1\n        /* \"#utility.yul\":1026:1038   */\n      revert\n        /* \"#utility.yul\":977:1040   */\n    tag_391:\n        /* \"#utility.yul\":924:1046   */\n      pop\n      jump\t// out\n        /* \"#utility.yul\":1052:1191   */\n    tag_314:\n        /* \"#utility.yul\":1098:1103   */\n      0x00\n        /* \"#utility.yul\":1136:1142   */\n      dup2\n        /* \"#utility.yul\":1123:1143   */\n      calldataload\n        /* \"#utility.yul\":1114:1143   */\n      swap1\n      pop\n        /* \"#utility.yul\":1152:1185   */\n      tag_393\n        /* \"#utility.yul\":1179:1184   */\n      dup2\n        /* \"#utility.yul\":1152:1185   */\n      tag_313\n      jump\t// in\n    tag_393:\n        /* \"#utility.yul\":1052:1191   */\n      swap3\n      swap2\n      pop\n      pop\n      jump\t// out\n        /* \"#utility.yul\":1197:1671   */\n    tag_25:\n        /* \"#utility.yul\":1265:1271   */\n      0x00\n        /* \"#utility.yul\":1273:1279   */\n      dup1\n        /* \"#utility.yul\":1322:1324   */\n      0x40\n        /* \"#utility.yul\":1310:1319   */\n      dup4\n        /* \"#utility.yul\":1301:1308   */\n      dup6\n        /* \"#utility.yul\":1297:1320   */\n      sub\n        /* \"#utility.yul\":1293:1325   */\n      slt\n        /* \"#utility.yul\":1290:1409   */\n      iszero\n      tag_395\n      jumpi\n        /* \"#utility.yul\":1328:1407   */\n      tag_396\n      tag_306\n      jump\t// in\n    tag_396:\n        /* \"#utility.yul\":1290:1409   */\n    tag_395:\n        /* \"#utility.yul\":1448:1449   */\n      0x00\n        /* \"#utility.yul\":1473:1526   */\n      tag_397\n        /* \"#utility.yul\":1518:1525   */\n      dup6\n        /* \"#utility.yul\":1509:1515   */\n      dup3\n        /* \"#utility.yul\":1498:1507   */\n      dup7\n        /* \"#utility.yul\":1494:1516   */\n      add\n        /* \"#utility.yul\":1473:1526   */\n      tag_311\n      jump\t// in\n    tag_397:\n        /* \"#utility.yul\":1463:1526   */\n      swap3\n      pop\n        /* \"#utility.yul\":1419:1536   */\n      pop\n        /* \"#utility.yul\":1575:1577   */\n      0x20\n        /* \"#utility.yul\":1601:1654   */\n      tag_398\n        /* \"#utility.yul\":1646:1653   */\n      dup6\n        /* \"#utility.yul\":1637:1643   */\n      dup3\n        /* \"#utility.yul\":1626:1635   */\n      dup7\n        /* \"#utility.yul\":1622:1644   */\n      add\n        /* \"#utility.yul\":1601:1654   */\n      tag_314\n      jump\t// in\n    tag_398:\n        /* \"#utility.yul\":1591:1654   */\n      swap2\n      pop\n        /* \"#utility.yul\":1546:1664   */\n      pop\n        /* \"#utility.yul\":1197:1671   */\n      swap3\n      pop\n      swap3\n      swap1\n      pop\n      jump\t// out\n        /* \"#utility.yul\":1677:1795   */\n    tag_315:\n        /* \"#utility.yul\":1764:1788   */\n      tag_400\n        /* \"#utility.yul\":1782:1787   */\n      dup2\n        /* \"#utility.yul\":1764:1788   */\n      tag_312\n      jump\t// in\n    tag_400:\n        /* \"#utility.yul\":1759:1762   */\n      dup3\n        /* \"#utility.yul\":1752:1789   */\n      mstore\n        /* \"#utility.yul\":1677:1795   */\n      pop\n      pop\n      jump\t// out\n        /* \"#utility.yul\":1801:2023   */\n    tag_28:\n        /* \"#utility.yul\":1894:1898   */\n      0x00\n        /* \"#utility.yul\":1932:1934   */\n      0x20\n        /* \"#utility.yul\":1921:1930   */\n      dup3\n        /* \"#utility.yul\":1917:1935   */\n      add\n        /* \"#utility.yul\":1909:1935   */\n      swap1\n      pop\n        /* \"#utility.yul\":1945:2016   */\n      tag_402\n        /* \"#utility.yul\":2013:2014   */\n      0x00\n        /* \"#utility.yul\":2002:2011   */\n      dup4\n        /* \"#utility.yul\":1998:2015   */\n      add\n        /* \"#utility.yul\":1989:1995   */\n      dup5\n        /* \"#utility.yul\":1945:2016   */\n      tag_315\n      jump\t// in\n    tag_402:\n        /* \"#utility.yul\":1801:2023   */\n      swap3\n      swap2\n      pop\n      pop\n      jump\t// out\n        /* \"#utility.yul\":2029:3378   */\n    tag_31:\n        /* \"#utility.yul\":2151:2157   */\n      0x00\n        /* \"#utility.yul\":2159:2165   */\n      dup1\n        /* \"#utility.yul\":2167:2173   */\n      0x00\n        /* \"#utility.yul\":2175:2181   */\n      dup1\n        /* \"#utility.yul\":2183:2189   */\n      0x00\n        /* \"#utility.yul\":2191:2197   */\n      dup1\n        /* \"#utility.yul\":2199:2205   */\n      0x00\n        /* \"#utility.yul\":2207:2213   */\n      dup1\n        /* \"#utility.yul\":2256:2259   */\n      0x0100\n        /* \"#utility.yul\":2244:2253   */\n      dup10\n        /* \"#utility.yul\":2235:2242   */\n      dup12\n        /* \"#utility.yul\":2231:2254   */\n      sub\n        /* \"#utility.yul\":2227:2260   */\n      slt\n        /* \"#utility.yul\":2224:2344   */\n      iszero\n      tag_404\n      jumpi\n        /* \"#utility.yul\":2263:2342   */\n      tag_405\n      tag_306\n      jump\t// in\n    tag_405:\n        /* \"#utility.yul\":2224:2344   */\n    tag_404:\n        /* \"#utility.yul\":2383:2384   */\n      0x00\n        /* \"#utility.yul\":2408:2461   */\n      tag_406\n        /* \"#utility.yul\":2453:2460   */\n      dup12\n        /* \"#utility.yul\":2444:2450   */\n      dup3\n        /* \"#utility.yul\":2433:2442   */\n      dup13\n        /* \"#utility.yul\":2429:2451   */\n      add\n        /* \"#utility.yul\":2408:2461   */\n      tag_314\n      jump\t// in\n    tag_406:\n        /* \"#utility.yul\":2398:2461   */\n      swap9\n      pop\n        /* \"#utility.yul\":2354:2471   */\n      pop\n        /* \"#utility.yul\":2510:2512   */\n      0x20\n        /* \"#utility.yul\":2536:2589   */\n      tag_407\n        /* \"#utility.yul\":2581:2588   */\n      dup12\n        /* \"#utility.yul\":2572:2578   */\n      dup3\n        /* \"#utility.yul\":2561:2570   */\n      dup13\n        /* \"#utility.yul\":2557:2579   */\n      add\n        /* \"#utility.yul\":2536:2589   */\n      tag_311\n      jump\t// in\n    tag_407:\n        /* \"#utility.yul\":2526:2589   */\n      swap8\n      pop\n        /* \"#utility.yul\":2481:2599   */\n      pop\n        /* \"#utility.yul\":2638:2640   */\n      0x40\n        /* \"#utility.yul\":2664:2717   */\n      tag_408\n        /* \"#utility.yul\":2709:2716   */\n      dup12\n        /* \"#utility.yul\":2700:2706   */\n      dup3\n        /* \"#utility.yul\":2689:2698   */\n      dup13\n        /* \"#utility.yul\":2685:2707   */\n      add\n        /* \"#utility.yul\":2664:2717   */\n      tag_311\n      jump\t// in\n    tag_408:\n        /* \"#utility.yul\":2654:2717   */\n      swap7\n      pop\n        /* \"#utility.yul\":2609:2727   */\n      pop\n        /* \"#utility.yul\":2766:2768   */\n      0x60\n        /* \"#utility.yul\":2792:2845   */\n      tag_409\n        /* \"#utility.yul\":2837:2844   */\n      dup12\n        /* \"#utility.yul\":2828:2834   */\n      dup3\n        /* \"#utility.yul\":2817:2826   */\n      dup13\n        /* \"#utility.yul\":2813:2835   */\n      add\n        /* \"#utility.yul\":2792:2845   */\n      tag_311\n      jump\t// in\n    tag_409:\n        /* \"#utility.yul\":2782:2845   */\n      swap6\n      pop\n        /* \"#utility.yul\":2737:2855   */\n      pop\n        /* \"#utility.yul\":2894:2897   */\n      0x80\n        /* \"#utility.yul\":2921:2974   */\n      tag_410\n        /* \"#utility.yul\":2966:2973   */\n      dup12\n        /* \"#utility.yul\":2957:2963   */\n      dup3\n        /* \"#utility.yul\":2946:2955   */\n      dup13\n        /* \"#utility.yul\":2942:2964   */\n      add\n        /* \"#utility.yul\":2921:2974   */\n      tag_311\n      jump\t// in\n    tag_410:\n        /* \"#utility.yul\":2911:2974   */\n      swap5\n      pop\n        /* \"#utility.yul\":2865:2984   */\n      pop\n        /* \"#utility.yul\":3023:3026   */\n      0xa0\n        /* \"#utility.yul\":3050:3103   */\n      tag_411\n        /* \"#utility.yul\":3095:3102   */\n      dup12\n        /* \"#utility.yul\":3086:3092   */\n      dup3\n        /* \"#utility.yul\":3075:3084   */\n      dup13\n        /* \"#utility.yul\":3071:3093   */\n      add\n        /* \"#utility.yul\":3050:3103   */\n      tag_314\n      jump\t// in\n    tag_411:\n        /* \"#utility.yul\":3040:3103   */\n      swap4\n      pop\n        /* \"#utility.yul\":2994:3113   */\n      pop\n        /* \"#utility.yul\":3152:3155   */\n      0xc0\n        /* \"#utility.yul\":3179:3232   */\n      tag_412\n        /* \"#utility.yul\":3224:3231   */\n      dup12\n        /* \"#utility.yul\":3215:3221   */\n      dup3\n        /* \"#utility.yul\":3204:3213   */\n      dup13\n        /* \"#utility.yul\":3200:3222   */\n      add\n        /* \"#utility.yul\":3179:3232   */\n      tag_314\n      jump\t// in\n    tag_412:\n        /* \"#utility.yul\":3169:3232   */\n      swap3\n      pop\n        /* \"#utility.yul\":3123:3242   */\n      pop\n        /* \"#utility.yul\":3281:3284   */\n      0xe0\n        /* \"#utility.yul\":3308:3361   */\n      tag_413\n        /* \"#utility.yul\":3353:3360   */\n      dup12\n        /* \"#utility.yul\":3344:3350   */\n      dup3\n        /* \"#utility.yul\":3333:3342   */\n      dup13\n        /* \"#utility.yul\":3329:3351   */\n      add\n        /* \"#utility.yul\":3308:3361   */\n      tag_314\n      jump\t// in\n    tag_413:\n        /* \"#utility.yul\":3298:3361   */\n      swap2\n      pop\n        /* \"#utility.yul\":3252:3371   */\n      pop\n        /* \"#utility.yul\":2029:3378   */\n      swap3\n      swap6\n      swap9\n      pop\n      swap3\n      swap6\n      swap9\n      swap1\n      swap4\n      swap7\n      pop\n      jump\t// out\n        /* \"#utility.yul\":3384:4149   */\n    tag_35:\n        /* \"#utility.yul\":3470:3476   */\n      0x00\n        /* \"#utility.yul\":3478:3484   */\n      dup1\n        /* \"#utility.yul\":3486:3492   */\n      0x00\n        /* \"#utility.yul\":3494:3500   */\n      dup1\n        /* \"#utility.yul\":3543:3546   */\n      0x80\n        /* \"#utility.yul\":3531:3540   */\n      dup6\n        /* \"#utility.yul\":3522:3529   */\n      dup8\n        /* \"#utility.yul\":3518:3541   */\n      sub\n        /* \"#utility.yul\":3514:3547   */\n      slt\n        /* \"#utility.yul\":3511:3631   */\n      iszero\n      tag_415\n      jumpi\n        /* \"#utility.yul\":3550:3629   */\n      tag_416\n      tag_306\n      jump\t// in\n    tag_416:\n        /* \"#utility.yul\":3511:3631   */\n    tag_415:\n        /* \"#utility.yul\":3670:3671   */\n      0x00\n        /* \"#utility.yul\":3695:3748   */\n      tag_417\n        /* \"#utility.yul\":3740:3747   */\n      dup8\n        /* \"#utility.yul\":3731:3737   */\n      dup3\n        /* \"#utility.yul\":3720:3729   */\n      dup9\n        /* \"#utility.yul\":3716:3738   */\n      add\n        /* \"#utility.yul\":3695:3748   */\n      tag_314\n      jump\t// in\n    tag_417:\n        /* \"#utility.yul\":3685:3748   */\n      swap5\n      pop\n        /* \"#utility.yul\":3641:3758   */\n      pop\n        /* \"#utility.yul\":3797:3799   */\n      0x20\n        /* \"#utility.yul\":3823:3876   */\n      tag_418\n        /* \"#utility.yul\":3868:3875   */\n      dup8\n        /* \"#utility.yul\":3859:3865   */\n      dup3\n        /* \"#utility.yul\":3848:3857   */\n      dup9\n        /* \"#utility.yul\":3844:3866   */\n      add\n        /* \"#utility.yul\":3823:3876   */\n      tag_311\n      jump\t// in\n    tag_418:\n        /* \"#utility.yul\":3813:3876   */\n      swap4\n      pop\n        /* \"#utility.yul\":3768:3886   */\n      pop\n        /* \"#utility.yul\":3925:3927   */\n      0x40\n        /* \"#utility.yul\":3951:4004   */\n      tag_419\n        /* \"#utility.yul\":3996:4003   */\n      dup8\n        /* \"#utility.yul\":3987:3993   */\n      dup3\n        /* \"#utility.yul\":3976:3985   */\n      dup9\n        /* \"#utility.yul\":3972:3994   */\n      add\n        /* \"#utility.yul\":3951:4004   */\n      tag_311\n      jump\t// in\n    tag_419:\n        /* \"#utility.yul\":3941:4004   */\n      swap3\n      pop\n        /* \"#utility.yul\":3896:4014   */\n      pop\n        /* \"#utility.yul\":4053:4055   */\n      0x60\n        /* \"#utility.yul\":4079:4132   */\n      tag_420\n        /* \"#utility.yul\":4124:4131   */\n      dup8\n        /* \"#utility.yul\":4115:4121   */\n      dup3\n        /* \"#utility.yul\":4104:4113   */\n      dup9\n        /* \"#utility.yul\":4100:4122   */\n      add\n        /* \"#utility.yul\":4079:4132   */\n      tag_314\n      jump\t// in\n    tag_420:\n        /* \"#utility.yul\":4069:4132   */\n      swap2\n      pop\n        /* \"#utility.yul\":4024:4142   */\n      pop\n        /* \"#utility.yul\":3384:4149   */\n      swap3\n      swap6\n      swap2\n      swap5\n      pop\n      swap3\n      pop\n      jump\t// out\n        /* \"#utility.yul\":4155:4245   */\n    tag_316:\n        /* \"#utility.yul\":4189:4196   */\n      0x00\n        /* \"#utility.yul\":4232:4237   */\n      dup2\n        /* \"#utility.yul\":4225:4238   */\n      iszero\n        /* \"#utility.yul\":4218:4239   */\n      iszero\n        /* \"#utility.yul\":4207:4239   */\n      swap1\n      pop\n        /* \"#utility.yul\":4155:4245   */\n      swap2\n      swap1\n      pop\n      jump\t// out\n        /* \"#utility.yul\":4251:4360   */\n    tag_317:\n        /* \"#utility.yul\":4332:4353   */\n      tag_423\n        /* \"#utility.yul\":4347:4352   */\n      dup2\n        /* \"#utility.yul\":4332:4353   */\n      tag_316\n      jump\t// in\n    tag_423:\n        /* \"#utility.yul\":4327:4330   */\n      dup3\n        /* \"#utility.yul\":4320:4354   */\n      mstore\n        /* \"#utility.yul\":4251:4360   */\n      pop\n      pop\n      jump\t// out\n        /* \"#utility.yul\":4366:4576   */\n    tag_38:\n        /* \"#utility.yul\":4453:4457   */\n      0x00\n        /* \"#utility.yul\":4491:4493   */\n      0x20\n        /* \"#utility.yul\":4480:4489   */\n      dup3\n        /* \"#utility.yul\":4476:4494   */\n      add\n        /* \"#utility.yul\":4468:4494   */\n      swap1\n      pop\n        /* \"#utility.yul\":4504:4569   */\n      tag_425\n        /* \"#utility.yul\":4566:4567   */\n      0x00\n        /* \"#utility.yul\":4555:4564   */\n      dup4\n        /* \"#utility.yul\":4551:4568   */\n      add\n        /* \"#utility.yul\":4542:4548   */\n      dup5\n        /* \"#utility.yul\":4504:4569   */\n      tag_317\n      jump\t// in\n    tag_425:\n        /* \"#utility.yul\":4366:4576   */\n      swap3\n      swap2\n      pop\n      pop\n      jump\t// out\n        /* \"#utility.yul\":4582:4911   */\n    tag_41:\n        /* \"#utility.yul\":4641:4647   */\n      0x00\n        /* \"#utility.yul\":4690:4692   */\n      0x20\n        /* \"#utility.yul\":4678:4687   */\n      dup3\n        /* \"#utility.yul\":4669:4676   */\n      dup5\n        /* \"#utility.yul\":4665:4688   */\n      sub\n        /* \"#utility.yul\":4661:4693   */\n      slt\n        /* \"#utility.yul\":4658:4777   */\n      iszero\n      tag_427\n      jumpi\n        /* \"#utility.yul\":4696:4775   */\n      tag_428\n      tag_306\n      jump\t// in\n    tag_428:\n        /* \"#utility.yul\":4658:4777   */\n    tag_427:\n        /* \"#utility.yul\":4816:4817   */\n      0x00\n        /* \"#utility.yul\":4841:4894   */\n      tag_429\n        /* \"#utility.yul\":4886:4893   */\n      dup5\n        /* \"#utility.yul\":4877:4883   */\n      dup3\n        /* \"#utility.yul\":4866:4875   */\n      dup6\n        /* \"#utility.yul\":4862:4884   */\n      add\n        /* \"#utility.yul\":4841:4894   */\n      tag_314\n      jump\t// in\n    tag_429:\n        /* \"#utility.yul\":4831:4894   */\n      swap2\n      pop\n        /* \"#utility.yul\":4787:4904   */\n      pop\n        /* \"#utility.yul\":4582:4911   */\n      swap3\n      swap2\n      pop\n      pop\n      jump\t// out\n        /* \"#utility.yul\":4917:5016   */\n    tag_318:\n        /* \"#utility.yul\":4969:4975   */\n      0x00\n        /* \"#utility.yul\":5003:5008   */\n      dup2\n        /* \"#utility.yul\":4997:5009   */\n      mload\n        /* \"#utility.yul\":4987:5009   */\n      swap1\n      pop\n        /* \"#utility.yul\":4917:5016   */\n      swap2\n      swap1\n      pop\n      jump\t// out\n        /* \"#utility.yul\":5022:5191   */\n    tag_319:\n        /* \"#utility.yul\":5106:5117   */\n      0x00\n        /* \"#utility.yul\":5140:5146   */\n      dup3\n        /* \"#utility.yul\":5135:5138   */\n      dup3\n        /* \"#utility.yul\":5128:5147   */\n      mstore\n        /* \"#utility.yul\":5180:5184   */\n      0x20\n        /* \"#utility.yul\":5175:5178   */\n      dup3\n        /* \"#utility.yul\":5171:5185   */\n      add\n        /* \"#utility.yul\":5156:5185   */\n      swap1\n      pop\n        /* \"#utility.yul\":5022:5191   */\n      swap3\n      swap2\n      pop\n      pop\n      jump\t// out\n        /* \"#utility.yul\":5197:5443   */\n    tag_320:\n        /* \"#utility.yul\":5278:5279   */\n      0x00\n        /* \"#utility.yul\":5288:5401   */\n    tag_433:\n        /* \"#utility.yul\":5302:5308   */\n      dup4\n        /* \"#utility.yul\":5299:5300   */\n      dup2\n        /* \"#utility.yul\":5296:5309   */\n      lt\n        /* \"#utility.yul\":5288:5401   */\n      iszero\n      tag_435\n      jumpi\n        /* \"#utility.yul\":5387:5388   */\n      dup1\n        /* \"#utility.yul\":5382:5385   */\n      dup3\n        /* \"#utility.yul\":5378:5389   */\n      add\n        /* \"#utility.yul\":5372:5390   */\n      mload\n        /* \"#utility.yul\":5368:5369   */\n      dup2\n        /* \"#utility.yul\":5363:5366   */\n      dup5\n        /* \"#utility.yul\":5359:5370   */\n      add\n        /* \"#utility.yul\":5352:5391   */\n      mstore\n        /* \"#utility.yul\":5324:5326   */\n      0x20\n        /* \"#utility.yul\":5321:5322   */\n      dup2\n        /* \"#utility.yul\":5317:5327   */\n      add\n        /* \"#utility.yul\":5312:5327   */\n      swap1\n      pop\n        /* \"#utility.yul\":5288:5401   */\n      jump(tag_433)\n    tag_435:\n        /* \"#utility.yul\":5435:5436   */\n      0x00\n        /* \"#utility.yul\":5426:5432   */\n      dup5\n        /* \"#utility.yul\":5421:5424   */\n      dup5\n        /* \"#utility.yul\":5417:5433   */\n      add\n        /* \"#utility.yul\":5410:5437   */\n      mstore\n        /* \"#utility.yul\":5259:5443   */\n      pop\n        /* \"#utility.yul\":5197:5443   */\n      pop\n      pop\n      pop\n      jump\t// out\n        /* \"#utility.yul\":5449:5551   */\n    tag_321:\n        /* \"#utility.yul\":5490:5496   */\n      0x00\n        /* \"#utility.yul\":5541:5543   */\n      0x1f\n        /* \"#utility.yul\":5537:5544   */\n      not\n        /* \"#utility.yul\":5532:5534   */\n      0x1f\n        /* \"#utility.yul\":5525:5530   */\n      dup4\n        /* \"#utility.yul\":5521:5535   */\n      add\n        /* \"#utility.yul\":5517:5545   */\n      and\n        /* \"#utility.yul\":5507:5545   */\n      swap1\n      pop\n        /* \"#utility.yul\":5449:5551   */\n      swap2\n      swap1\n      pop\n      jump\t// out\n        /* \"#utility.yul\":5557:5934   */\n    tag_322:\n        /* \"#utility.yul\":5645:5648   */\n      0x00\n        /* \"#utility.yul\":5673:5712   */\n      tag_438\n        /* \"#utility.yul\":5706:5711   */\n      dup3\n        /* \"#utility.yul\":5673:5712   */\n      tag_318\n      jump\t// in\n    tag_438:\n        /* \"#utility.yul\":5728:5799   */\n      tag_439\n        /* \"#utility.yul\":5792:5798   */\n      dup2\n        /* \"#utility.yul\":5787:5790   */\n      dup6\n        /* \"#utility.yul\":5728:5799   */\n      tag_319\n      jump\t// in\n    tag_439:\n        /* \"#utility.yul\":5721:5799   */\n      swap4\n      pop\n        /* \"#utility.yul\":5808:5873   */\n      tag_440\n        /* \"#utility.yul\":5866:5872   */\n      dup2\n        /* \"#utility.yul\":5861:5864   */\n      dup6\n        /* \"#utility.yul\":5854:5858   */\n      0x20\n        /* \"#utility.yul\":5847:5852   */\n      dup7\n        /* \"#utility.yul\":5843:5859   */\n      add\n        /* \"#utility.yul\":5808:5873   */\n      tag_320\n      jump\t// in\n    tag_440:\n        /* \"#utility.yul\":5898:5927   */\n      tag_441\n        /* \"#utility.yul\":5920:5926   */\n      dup2\n        /* \"#utility.yul\":5898:5927   */\n      tag_321\n      jump\t// in\n    tag_441:\n        /* \"#utility.yul\":5893:5896   */\n      dup5\n        /* \"#utility.yul\":5889:5928   */\n      add\n        /* \"#utility.yul\":5882:5928   */\n      swap2\n      pop\n        /* \"#utility.yul\":5649:5934   */\n      pop\n        /* \"#utility.yul\":5557:5934   */\n      swap3\n      swap2\n      pop\n      pop\n      jump\t// out\n        /* \"#utility.yul\":5940:6663   */\n    tag_44:\n        /* \"#utility.yul\":6151:6155   */\n      0x00\n        /* \"#utility.yul\":6189:6192   */\n      0x80\n        /* \"#utility.yul\":6178:6187   */\n      dup3\n        /* \"#utility.yul\":6174:6193   */\n      add\n        /* \"#utility.yul\":6166:6193   */\n      swap1\n      pop\n        /* \"#utility.yul\":6239:6248   */\n      dup2\n        /* \"#utility.yul\":6233:6237   */\n      dup2\n        /* \"#utility.yul\":6229:6249   */\n      sub\n        /* \"#utility.yul\":6225:6226   */\n      0x00\n        /* \"#utility.yul\":6214:6223   */\n      dup4\n        /* \"#utility.yul\":6210:6227   */\n      add\n        /* \"#utility.yul\":6203:6250   */\n      mstore\n        /* \"#utility.yul\":6267:6345   */\n      tag_443\n        /* \"#utility.yul\":6340:6344   */\n      dup2\n        /* \"#utility.yul\":6331:6337   */\n      dup8\n        /* \"#utility.yul\":6267:6345   */\n      tag_322\n      jump\t// in\n    tag_443:\n        /* \"#utility.yul\":6259:6345   */\n      swap1\n      pop\n        /* \"#utility.yul\":6392:6401   */\n      dup2\n        /* \"#utility.yul\":6386:6390   */\n      dup2\n        /* \"#utility.yul\":6382:6402   */\n      sub\n        /* \"#utility.yul\":6377:6379   */\n      0x20\n        /* \"#utility.yul\":6366:6375   */\n      dup4\n        /* \"#utility.yul\":6362:6380   */\n      add\n        /* \"#utility.yul\":6355:6403   */\n      mstore\n        /* \"#utility.yul\":6420:6498   */\n      tag_444\n        /* \"#utility.yul\":6493:6497   */\n      dup2\n        /* \"#utility.yul\":6484:6490   */\n      dup7\n        /* \"#utility.yul\":6420:6498   */\n      tag_322\n      jump\t// in\n    tag_444:\n        /* \"#utility.yul\":6412:6498   */\n      swap1\n      pop\n        /* \"#utility.yul\":6508:6580   */\n      tag_445\n        /* \"#utility.yul\":6576:6578   */\n      0x40\n        /* \"#utility.yul\":6565:6574   */\n      dup4\n        /* \"#utility.yul\":6561:6579   */\n      add\n        /* \"#utility.yul\":6552:6558   */\n      dup6\n        /* \"#utility.yul\":6508:6580   */\n      tag_315\n      jump\t// in\n    tag_445:\n        /* \"#utility.yul\":6590:6656   */\n      tag_446\n        /* \"#utility.yul\":6652:6654   */\n      0x60\n        /* \"#utility.yul\":6641:6650   */\n      dup4\n        /* \"#utility.yul\":6637:6655   */\n      add\n        /* \"#utility.yul\":6628:6634   */\n      dup5\n        /* \"#utility.yul\":6590:6656   */\n      tag_317\n      jump\t// in\n    tag_446:\n        /* \"#utility.yul\":5940:6663   */\n      swap6\n      swap5\n      pop\n      pop\n      pop\n      pop\n      pop\n      jump\t// out\n        /* \"#utility.yul\":6669:6787   */\n    tag_323:\n        /* \"#utility.yul\":6756:6780   */\n      tag_448\n        /* \"#utility.yul\":6774:6779   */\n      dup2\n        /* \"#utility.yul\":6756:6780   */\n      tag_309\n      jump\t// in\n    tag_448:\n        /* \"#utility.yul\":6751:6754   */\n      dup3\n        /* \"#utility.yul\":6744:6781   */\n      mstore\n        /* \"#utility.yul\":6669:6787   */\n      pop\n      pop\n      jump\t// out\n        /* \"#utility.yul\":6793:7015   */\n    tag_48:\n        /* \"#utility.yul\":6886:6890   */\n      0x00\n        /* \"#utility.yul\":6924:6926   */\n      0x20\n        /* \"#utility.yul\":6913:6922   */\n      dup3\n        /* \"#utility.yul\":6909:6927   */\n      add\n        /* \"#utility.yul\":6901:6927   */\n      swap1\n      pop\n        /* \"#utility.yul\":6937:7008   */\n      tag_450\n        /* \"#utility.yul\":7005:7006   */\n      0x00\n        /* \"#utility.yul\":6994:7003   */\n      dup4\n        /* \"#utility.yul\":6990:7007   */\n      add\n        /* \"#utility.yul\":6981:6987   */\n      dup5\n        /* \"#utility.yul\":6937:7008   */\n      tag_323\n      jump\t// in\n    tag_450:\n        /* \"#utility.yul\":6793:7015   */\n      swap3\n      swap2\n      pop\n      pop\n      jump\t// out\n        /* \"#utility.yul\":7021:7640   */\n    tag_57:\n        /* \"#utility.yul\":7098:7104   */\n      0x00\n        /* \"#utility.yul\":7106:7112   */\n      dup1\n        /* \"#utility.yul\":7114:7120   */\n      0x00\n        /* \"#utility.yul\":7163:7165   */\n      0x60\n        /* \"#utility.yul\":7151:7160   */\n      dup5\n        /* \"#utility.yul\":7142:7149   */\n      dup7\n        /* \"#utility.yul\":7138:7161   */\n      sub\n        /* \"#utility.yul\":7134:7166   */\n      slt\n        /* \"#utility.yul\":7131:7250   */\n      iszero\n      tag_452\n      jumpi\n        /* \"#utility.yul\":7169:7248   */\n      tag_453\n      tag_306\n      jump\t// in\n    tag_453:\n        /* \"#utility.yul\":7131:7250   */\n    tag_452:\n        /* \"#utility.yul\":7289:7290   */\n      0x00\n        /* \"#utility.yul\":7314:7367   */\n      tag_454\n        /* \"#utility.yul\":7359:7366   */\n      dup7\n        /* \"#utility.yul\":7350:7356   */\n      dup3\n        /* \"#utility.yul\":7339:7348   */\n      dup8\n        /* \"#utility.yul\":7335:7357   */\n      add\n        /* \"#utility.yul\":7314:7367   */\n      tag_311\n      jump\t// in\n    tag_454:\n        /* \"#utility.yul\":7304:7367   */\n      swap4\n      pop\n        /* \"#utility.yul\":7260:7377   */\n      pop\n        /* \"#utility.yul\":7416:7418   */\n      0x20\n        /* \"#utility.yul\":7442:7495   */\n      tag_455\n        /* \"#utility.yul\":7487:7494   */\n      dup7\n        /* \"#utility.yul\":7478:7484   */\n      dup3\n        /* \"#utility.yul\":7467:7476   */\n      dup8\n        /* \"#utility.yul\":7463:7485   */\n      add\n        /* \"#utility.yul\":7442:7495   */\n      tag_311\n      jump\t// in\n    tag_455:\n        /* \"#utility.yul\":7432:7495   */\n      swap3\n      pop\n        /* \"#utility.yul\":7387:7505   */\n      pop\n        /* \"#utility.yul\":7544:7546   */\n      0x40\n        /* \"#utility.yul\":7570:7623   */\n      tag_456\n        /* \"#utility.yul\":7615:7622   */\n      dup7\n        /* \"#utility.yul\":7606:7612   */\n      dup3\n        /* \"#utility.yul\":7595:7604   */\n      dup8\n        /* \"#utility.yul\":7591:7613   */\n      add\n        /* \"#utility.yul\":7570:7623   */\n      tag_314\n      jump\t// in\n    tag_456:\n        /* \"#utility.yul\":7560:7623   */\n      swap2\n      pop\n        /* \"#utility.yul\":7515:7633   */\n      pop\n        /* \"#utility.yul\":7021:7640   */\n      swap3\n      pop\n      swap3\n      pop\n      swap3\n      jump\t// out\n        /* \"#utility.yul\":7646:8265   */\n    tag_72:\n        /* \"#utility.yul\":7723:7729   */\n      0x00\n        /* \"#utility.yul\":7731:7737   */\n      dup1\n        /* \"#utility.yul\":7739:7745   */\n      0x00\n        /* \"#utility.yul\":7788:7790   */\n      0x60\n        /* \"#utility.yul\":7776:7785   */\n      dup5\n        /* \"#utility.yul\":7767:7774   */\n      dup7\n        /* \"#utility.yul\":7763:7786   */\n      sub\n        /* \"#utility.yul\":7759:7791   */\n      slt\n        /* \"#utility.yul\":7756:7875   */\n      iszero\n      tag_458\n      jumpi\n        /* \"#utility.yul\":7794:7873   */\n      tag_459\n      tag_306\n      jump\t// in\n    tag_459:\n        /* \"#utility.yul\":7756:7875   */\n    tag_458:\n        /* \"#utility.yul\":7914:7915   */\n      0x00\n        /* \"#utility.yul\":7939:7992   */\n      tag_460\n        /* \"#utility.yul\":7984:7991   */\n      dup7\n        /* \"#utility.yul\":7975:7981   */\n      dup3\n        /* \"#utility.yul\":7964:7973   */\n      dup8\n        /* \"#utility.yul\":7960:7982   */\n      add\n        /* \"#utility.yul\":7939:7992   */\n      tag_314\n      jump\t// in\n    tag_460:\n        /* \"#utility.yul\":7929:7992   */\n      swap4\n      pop\n        /* \"#utility.yul\":7885:8002   */\n      pop\n        /* \"#utility.yul\":8041:8043   */\n      0x20\n        /* \"#utility.yul\":8067:8120   */\n      tag_461\n        /* \"#utility.yul\":8112:8119   */\n      dup7\n        /* \"#utility.yul\":8103:8109   */\n      dup3\n        /* \"#utility.yul\":8092:8101   */\n      dup8\n        /* \"#utility.yul\":8088:8110   */\n      add\n        /* \"#utility.yul\":8067:8120   */\n      tag_311\n      jump\t// in\n    tag_461:\n        /* \"#utility.yul\":8057:8120   */\n      swap3\n      pop\n        /* \"#utility.yul\":8012:8130   */\n      pop\n        /* \"#utility.yul\":8169:8171   */\n      0x40\n        /* \"#utility.yul\":8195:8248   */\n      tag_462\n        /* \"#utility.yul\":8240:8247   */\n      dup7\n        /* \"#utility.yul\":8231:8237   */\n      dup3\n        /* \"#utility.yul\":8220:8229   */\n      dup8\n        /* \"#utility.yul\":8216:8238   */\n      add\n        /* \"#utility.yul\":8195:8248   */\n      tag_314\n      jump\t// in\n    tag_462:\n        /* \"#utility.yul\":8185:8248   */\n      swap2\n      pop\n        /* \"#utility.yul\":8140:8258   */\n      pop\n        /* \"#utility.yul\":7646:8265   */\n      swap3\n      pop\n      swap3\n      pop\n      swap3\n      jump\t// out\n        /* \"#utility.yul\":8271:8600   */\n    tag_80:\n        /* \"#utility.yul\":8330:8336   */\n      0x00\n        /* \"#utility.yul\":8379:8381   */\n      0x20\n        /* \"#utility.yul\":8367:8376   */\n      dup3\n        /* \"#utility.yul\":8358:8365   */\n      dup5\n        /* \"#utility.yul\":8354:8377   */\n      sub\n        /* \"#utility.yul\":8350:8382   */\n      slt\n        /* \"#utility.yul\":8347:8466   */\n      iszero\n      tag_464\n      jumpi\n        /* \"#utility.yul\":8385:8464   */\n      tag_465\n      tag_306\n      jump\t// in\n    tag_465:\n        /* \"#utility.yul\":8347:8466   */\n    tag_464:\n        /* \"#utility.yul\":8505:8506   */\n      0x00\n        /* \"#utility.yul\":8530:8583   */\n      tag_466\n        /* \"#utility.yul\":8575:8582   */\n      dup5\n        /* \"#utility.yul\":8566:8572   */\n      dup3\n        /* \"#utility.yul\":8555:8564   */\n      dup6\n        /* \"#utility.yul\":8551:8573   */\n      add\n        /* \"#utility.yul\":8530:8583   */\n      tag_311\n      jump\t// in\n    tag_466:\n        /* \"#utility.yul\":8520:8583   */\n      swap2\n      pop\n        /* \"#utility.yul\":8476:8593   */\n      pop\n        /* \"#utility.yul\":8271:8600   */\n      swap3\n      swap2\n      pop\n      pop\n      jump\t// out\n        /* \"#utility.yul\":8606:8781   */\n    tag_324:\n        /* \"#utility.yul\":8746:8773   */\n      0x4f6e6c79205061696e74696e674e465420636f6e747261637400000000000000\n        /* \"#utility.yul\":8742:8743   */\n      0x00\n        /* \"#utility.yul\":8734:8740   */\n      dup3\n        /* \"#utility.yul\":8730:8744   */\n      add\n        /* \"#utility.yul\":8723:8774   */\n      mstore\n        /* \"#utility.yul\":8606:8781   */\n      pop\n      jump\t// out\n        /* \"#utility.yul\":8787:9153   */\n    tag_325:\n        /* \"#utility.yul\":8929:8932   */\n      0x00\n        /* \"#utility.yul\":8950:9017   */\n      tag_469\n        /* \"#utility.yul\":9014:9016   */\n      0x19\n        /* \"#utility.yul\":9009:9012   */\n      dup4\n        /* \"#utility.yul\":8950:9017   */\n      tag_319\n      jump\t// in\n    tag_469:\n        /* \"#utility.yul\":8943:9017   */\n      swap2\n      pop\n        /* \"#utility.yul\":9026:9119   */\n      tag_470\n        /* \"#utility.yul\":9115:9118   */\n      dup3\n        /* \"#utility.yul\":9026:9119   */\n      tag_324\n      jump\t// in\n    tag_470:\n        /* \"#utility.yul\":9144:9146   */\n      0x20\n        /* \"#utility.yul\":9139:9142   */\n      dup3\n        /* \"#utility.yul\":9135:9147   */\n      add\n        /* \"#utility.yul\":9128:9147   */\n      swap1\n      pop\n        /* \"#utility.yul\":8787:9153   */\n      swap2\n      swap1\n      pop\n      jump\t// out\n        /* \"#utility.yul\":9159:9578   */\n    tag_92:\n        /* \"#utility.yul\":9325:9329   */\n      0x00\n        /* \"#utility.yul\":9363:9365   */\n      0x20\n        /* \"#utility.yul\":9352:9361   */\n      dup3\n        /* \"#utility.yul\":9348:9366   */\n      add\n        /* \"#utility.yul\":9340:9366   */\n      swap1\n      pop\n        /* \"#utility.yul\":9412:9421   */\n      dup2\n        /* \"#utility.yul\":9406:9410   */\n      dup2\n        /* \"#utility.yul\":9402:9422   */\n      sub\n        /* \"#utility.yul\":9398:9399   */\n      0x00\n        /* \"#utility.yul\":9387:9396   */\n      dup4\n        /* \"#utility.yul\":9383:9400   */\n      add\n        /* \"#utility.yul\":9376:9423   */\n      mstore\n        /* \"#utility.yul\":9440:9571   */\n      tag_472\n        /* \"#utility.yul\":9566:9570   */\n      dup2\n        /* \"#utility.yul\":9440:9571   */\n      tag_325\n      jump\t// in\n    tag_472:\n        /* \"#utility.yul\":9432:9571   */\n      swap1\n      pop\n        /* \"#utility.yul\":9159:9578   */\n      swap2\n      swap1\n      pop\n      jump\t// out\n        /* \"#utility.yul\":9584:9754   */\n    tag_326:\n        /* \"#utility.yul\":9724:9746   */\n      0x53686172657320616c7265616479206578697374000000000000000000000000\n        /* \"#utility.yul\":9720:9721   */\n      0x00\n        /* \"#utility.yul\":9712:9718   */\n      dup3\n        /* \"#utility.yul\":9708:9722   */\n      add\n        /* \"#utility.yul\":9701:9747   */\n      mstore\n        /* \"#utility.yul\":9584:9754   */\n      pop\n      jump\t// out\n        /* \"#utility.yul\":9760:10126   */\n    tag_327:\n        /* \"#utility.yul\":9902:9905   */\n      0x00\n        /* \"#utility.yul\":9923:9990   */\n      tag_475\n        /* \"#utility.yul\":9987:9989   */\n      0x14\n        /* \"#utility.yul\":9982:9985   */\n      dup4\n        /* \"#utility.yul\":9923:9990   */\n      tag_319\n      jump\t// in\n    tag_475:\n        /* \"#utility.yul\":9916:9990   */\n      swap2\n      pop\n        /* \"#utility.yul\":9999:10092   */\n      tag_476\n        /* \"#utility.yul\":10088:10091   */\n      dup3\n        /* \"#utility.yul\":9999:10092   */\n      tag_326\n      jump\t// in\n    tag_476:\n        /* \"#utility.yul\":10117:10119   */\n      0x20\n        /* \"#utility.yul\":10112:10115   */\n      dup3\n        /* \"#utility.yul\":10108:10120   */\n      add\n        /* \"#utility.yul\":10101:10120   */\n      swap1\n      pop\n        /* \"#utility.yul\":9760:10126   */\n      swap2\n      swap1\n      pop\n      jump\t// out\n        /* \"#utility.yul\":10132:10551   */\n    tag_99:\n        /* \"#utility.yul\":10298:10302   */\n      0x00\n        /* \"#utility.yul\":10336:10338   */\n      0x20\n        /* \"#utility.yul\":10325:10334   */\n      dup3\n        /* \"#utility.yul\":10321:10339   */\n      add\n        /* \"#utility.yul\":10313:10339   */\n      swap1\n      pop\n        /* \"#utility.yul\":10385:10394   */\n      dup2\n        /* \"#utility.yul\":10379:10383   */\n      dup2\n        /* \"#utility.yul\":10375:10395   */\n      sub\n        /* \"#utility.yul\":10371:10372   */\n      0x00\n        /* \"#utility.yul\":10360:10369   */\n      dup4\n        /* \"#utility.yul\":10356:10373   */\n      add\n        /* \"#utility.yul\":10349:10396   */\n      mstore\n        /* \"#utility.yul\":10413:10544   */\n      tag_478\n        /* \"#utility.yul\":10539:10543   */\n      dup2\n        /* \"#utility.yul\":10413:10544   */\n      tag_327\n      jump\t// in\n    tag_478:\n        /* \"#utility.yul\":10405:10544   */\n      swap1\n      pop\n        /* \"#utility.yul\":10132:10551   */\n      swap2\n      swap1\n      pop\n      jump\t// out\n        /* \"#utility.yul\":10557:10737   */\n    tag_328:\n        /* \"#utility.yul\":10605:10682   */\n      0x4e487b7100000000000000000000000000000000000000000000000000000000\n        /* \"#utility.yul\":10602:10603   */\n      0x00\n        /* \"#utility.yul\":10595:10683   */\n      mstore\n        /* \"#utility.yul\":10702:10706   */\n      0x11\n        /* \"#utility.yul\":10699:10700   */\n      0x04\n        /* \"#utility.yul\":10692:10707   */\n      mstore\n        /* \"#utility.yul\":10726:10730   */\n      0x24\n        /* \"#utility.yul\":10723:10724   */\n      0x00\n        /* \"#utility.yul\":10716:10731   */\n      revert\n        /* \"#utility.yul\":10743:10934   */\n    tag_101:\n        /* \"#utility.yul\":10783:10786   */\n      0x00\n        /* \"#utility.yul\":10802:10822   */\n      tag_481\n        /* \"#utility.yul\":10820:10821   */\n      dup3\n        /* \"#utility.yul\":10802:10822   */\n      tag_312\n      jump\t// in\n    tag_481:\n        /* \"#utility.yul\":10797:10822   */\n      swap2\n      pop\n        /* \"#utility.yul\":10836:10856   */\n      tag_482\n        /* \"#utility.yul\":10854:10855   */\n      dup4\n        /* \"#utility.yul\":10836:10856   */\n      tag_312\n      jump\t// in\n    tag_482:\n        /* \"#utility.yul\":10831:10856   */\n      swap3\n      pop\n        /* \"#utility.yul\":10879:10880   */\n      dup3\n        /* \"#utility.yul\":10876:10877   */\n      dup3\n        /* \"#utility.yul\":10872:10881   */\n      add\n        /* \"#utility.yul\":10865:10881   */\n      swap1\n      pop\n        /* \"#utility.yul\":10900:10903   */\n      dup1\n        /* \"#utility.yul\":10897:10898   */\n      dup3\n        /* \"#utility.yul\":10894:10904   */\n      gt\n        /* \"#utility.yul\":10891:10927   */\n      iszero\n      tag_483\n      jumpi\n        /* \"#utility.yul\":10907:10925   */\n      tag_484\n      tag_328\n      jump\t// in\n    tag_484:\n        /* \"#utility.yul\":10891:10927   */\n    tag_483:\n        /* \"#utility.yul\":10743:10934   */\n      swap3\n      swap2\n      pop\n      pop\n      jump\t// out\n        /* \"#utility.yul\":10940:11109   */\n    tag_329:\n        /* \"#utility.yul\":11080:11101   */\n      0x496e76616c69642070657263656e746167657300000000000000000000000000\n        /* \"#utility.yul\":11076:11077   */\n      0x00\n        /* \"#utility.yul\":11068:11074   */\n      dup3\n        /* \"#utility.yul\":11064:11078   */\n      add\n        /* \"#utility.yul\":11057:11102   */\n      mstore\n        /* \"#utility.yul\":10940:11109   */\n      pop\n      jump\t// out\n        /* \"#utility.yul\":11115:11481   */\n    tag_330:\n        /* \"#utility.yul\":11257:11260   */\n      0x00\n        /* \"#utility.yul\":11278:11345   */\n      tag_487\n        /* \"#utility.yul\":11342:11344   */\n      0x13\n        /* \"#utility.yul\":11337:11340   */\n      dup4\n        /* \"#utility.yul\":11278:11345   */\n      tag_319\n      jump\t// in\n    tag_487:\n        /* \"#utility.yul\":11271:11345   */\n      swap2\n      pop\n        /* \"#utility.yul\":11354:11447   */\n      tag_488\n        /* \"#utility.yul\":11443:11446   */\n      dup3\n        /* \"#utility.yul\":11354:11447   */\n      tag_329\n      jump\t// in\n    tag_488:\n        /* \"#utility.yul\":11472:11474   */\n      0x20\n        /* \"#utility.yul\":11467:11470   */\n      dup3\n        /* \"#utility.yul\":11463:11475   */\n      add\n        /* \"#utility.yul\":11456:11475   */\n      swap1\n      pop\n        /* \"#utility.yul\":11115:11481   */\n      swap2\n      swap1\n      pop\n      jump\t// out\n        /* \"#utility.yul\":11487:11906   */\n    tag_105:\n        /* \"#utility.yul\":11653:11657   */\n      0x00\n        /* \"#utility.yul\":11691:11693   */\n      0x20\n        /* \"#utility.yul\":11680:11689   */\n      dup3\n        /* \"#utility.yul\":11676:11694   */\n      add\n        /* \"#utility.yul\":11668:11694   */\n      swap1\n      pop\n        /* \"#utility.yul\":11740:11749   */\n      dup2\n        /* \"#utility.yul\":11734:11738   */\n      dup2\n        /* \"#utility.yul\":11730:11750   */\n      sub\n        /* \"#utility.yul\":11726:11727   */\n      0x00\n        /* \"#utility.yul\":11715:11724   */\n      dup4\n        /* \"#utility.yul\":11711:11728   */\n      add\n        /* \"#utility.yul\":11704:11751   */\n      mstore\n        /* \"#utility.yul\":11768:11899   */\n      tag_490\n        /* \"#utility.yul\":11894:11898   */\n      dup2\n        /* \"#utility.yul\":11768:11899   */\n      tag_330\n      jump\t// in\n    tag_490:\n        /* \"#utility.yul\":11760:11899   */\n      swap1\n      pop\n        /* \"#utility.yul\":11487:11906   */\n      swap2\n      swap1\n      pop\n      jump\t// out\n        /* \"#utility.yul\":11912:12060   */\n    tag_331:\n        /* \"#utility.yul\":12014:12025   */\n      0x00\n        /* \"#utility.yul\":12051:12054   */\n      dup2\n        /* \"#utility.yul\":12036:12054   */\n      swap1\n      pop\n        /* \"#utility.yul\":11912:12060   */\n      swap3\n      swap2\n      pop\n      pop\n      jump\t// out\n        /* \"#utility.yul\":12066:12225   */\n    tag_332:\n        /* \"#utility.yul\":12206:12217   */\n      0x5061696e74696e67200000000000000000000000000000000000000000000000\n        /* \"#utility.yul\":12202:12203   */\n      0x00\n        /* \"#utility.yul\":12194:12200   */\n      dup3\n        /* \"#utility.yul\":12190:12204   */\n      add\n        /* \"#utility.yul\":12183:12218   */\n      mstore\n        /* \"#utility.yul\":12066:12225   */\n      pop\n      jump\t// out\n        /* \"#utility.yul\":12231:12631   */\n    tag_333:\n        /* \"#utility.yul\":12391:12394   */\n      0x00\n        /* \"#utility.yul\":12412:12496   */\n      tag_494\n        /* \"#utility.yul\":12494:12495   */\n      0x09\n        /* \"#utility.yul\":12489:12492   */\n      dup4\n        /* \"#utility.yul\":12412:12496   */\n      tag_331\n      jump\t// in\n    tag_494:\n        /* \"#utility.yul\":12405:12496   */\n      swap2\n      pop\n        /* \"#utility.yul\":12505:12598   */\n      tag_495\n        /* \"#utility.yul\":12594:12597   */\n      dup3\n        /* \"#utility.yul\":12505:12598   */\n      tag_332\n      jump\t// in\n    tag_495:\n        /* \"#utility.yul\":12623:12624   */\n      0x09\n        /* \"#utility.yul\":12618:12621   */\n      dup3\n        /* \"#utility.yul\":12614:12625   */\n      add\n        /* \"#utility.yul\":12607:12625   */\n      swap1\n      pop\n        /* \"#utility.yul\":12231:12631   */\n      swap2\n      swap1\n      pop\n      jump\t// out\n        /* \"#utility.yul\":12637:13027   */\n    tag_334:\n        /* \"#utility.yul\":12743:12746   */\n      0x00\n        /* \"#utility.yul\":12771:12810   */\n      tag_497\n        /* \"#utility.yul\":12804:12809   */\n      dup3\n        /* \"#utility.yul\":12771:12810   */\n      tag_318\n      jump\t// in\n    tag_497:\n        /* \"#utility.yul\":12826:12915   */\n      tag_498\n        /* \"#utility.yul\":12908:12914   */\n      dup2\n        /* \"#utility.yul\":12903:12906   */\n      dup6\n        /* \"#utility.yul\":12826:12915   */\n      tag_331\n      jump\t// in\n    tag_498:\n        /* \"#utility.yul\":12819:12915   */\n      swap4\n      pop\n        /* \"#utility.yul\":12924:12989   */\n      tag_499\n        /* \"#utility.yul\":12982:12988   */\n      dup2\n        /* \"#utility.yul\":12977:12980   */\n      dup6\n        /* \"#utility.yul\":12970:12974   */\n      0x20\n        /* \"#utility.yul\":12963:12968   */\n      dup7\n        /* \"#utility.yul\":12959:12975   */\n      add\n        /* \"#utility.yul\":12924:12989   */\n      tag_320\n      jump\t// in\n    tag_499:\n        /* \"#utility.yul\":13014:13020   */\n      dup1\n        /* \"#utility.yul\":13009:13012   */\n      dup5\n        /* \"#utility.yul\":13005:13021   */\n      add\n        /* \"#utility.yul\":12998:13021   */\n      swap2\n      pop\n        /* \"#utility.yul\":12747:13027   */\n      pop\n        /* \"#utility.yul\":12637:13027   */\n      swap3\n      swap2\n      pop\n      pop\n      jump\t// out\n        /* \"#utility.yul\":13033:13190   */\n    tag_335:\n        /* \"#utility.yul\":13173:13182   */\n      0x2053686172657300000000000000000000000000000000000000000000000000\n        /* \"#utility.yul\":13169:13170   */\n      0x00\n        /* \"#utility.yul\":13161:13167   */\n      dup3\n        /* \"#utility.yul\":13157:13171   */\n      add\n        /* \"#utility.yul\":13150:13183   */\n      mstore\n        /* \"#utility.yul\":13033:13190   */\n      pop\n      jump\t// out\n        /* \"#utility.yul\":13196:13596   */\n    tag_336:\n        /* \"#utility.yul\":13356:13359   */\n      0x00\n        /* \"#utility.yul\":13377:13461   */\n      tag_502\n        /* \"#utility.yul\":13459:13460   */\n      0x07\n        /* \"#utility.yul\":13454:13457   */\n      dup4\n        /* \"#utility.yul\":13377:13461   */\n      tag_331\n      jump\t// in\n    tag_502:\n        /* \"#utility.yul\":13370:13461   */\n      swap2\n      pop\n        /* \"#utility.yul\":13470:13563   */\n      tag_503\n        /* \"#utility.yul\":13559:13562   */\n      dup3\n        /* \"#utility.yul\":13470:13563   */\n      tag_335\n      jump\t// in\n    tag_503:\n        /* \"#utility.yul\":13588:13589   */\n      0x07\n        /* \"#utility.yul\":13583:13586   */\n      dup3\n        /* \"#utility.yul\":13579:13590   */\n      add\n        /* \"#utility.yul\":13572:13590   */\n      swap1\n      pop\n        /* \"#utility.yul\":13196:13596   */\n      swap2\n      swap1\n      pop\n      jump\t// out\n        /* \"#utility.yul\":13602:14409   */\n    tag_109:\n        /* \"#utility.yul\":13936:13939   */\n      0x00\n        /* \"#utility.yul\":13958:14106   */\n      tag_505\n        /* \"#utility.yul\":14102:14105   */\n      dup3\n        /* \"#utility.yul\":13958:14106   */\n      tag_333\n      jump\t// in\n    tag_505:\n        /* \"#utility.yul\":13951:14106   */\n      swap2\n      pop\n        /* \"#utility.yul\":14123:14218   */\n      tag_506\n        /* \"#utility.yul\":14214:14217   */\n      dup3\n        /* \"#utility.yul\":14205:14211   */\n      dup5\n        /* \"#utility.yul\":14123:14218   */\n      tag_334\n      jump\t// in\n    tag_506:\n        /* \"#utility.yul\":14116:14218   */\n      swap2\n      pop\n        /* \"#utility.yul\":14235:14383   */\n      tag_507\n        /* \"#utility.yul\":14379:14382   */\n      dup3\n        /* \"#utility.yul\":14235:14383   */\n      tag_336\n      jump\t// in\n    tag_507:\n        /* \"#utility.yul\":14228:14383   */\n      swap2\n      pop\n        /* \"#utility.yul\":14400:14403   */\n      dup2\n        /* \"#utility.yul\":14393:14403   */\n      swap1\n      pop\n        /* \"#utility.yul\":13602:14409   */\n      swap3\n      swap2\n      pop\n      pop\n      jump\t// out\n        /* \"#utility.yul\":14415:14570   */\n    tag_337:\n        /* \"#utility.yul\":14555:14562   */\n      0x5041494e54000000000000000000000000000000000000000000000000000000\n        /* \"#utility.yul\":14551:14552   */\n      0x00\n        /* \"#utility.yul\":14543:14549   */\n      dup3\n        /* \"#utility.yul\":14539:14553   */\n      add\n        /* \"#utility.yul\":14532:14563   */\n      mstore\n        /* \"#utility.yul\":14415:14570   */\n      pop\n      jump\t// out\n        /* \"#utility.yul\":14576:14976   */\n    tag_338:\n        /* \"#utility.yul\":14736:14739   */\n      0x00\n        /* \"#utility.yul\":14757:14841   */\n      tag_510\n        /* \"#utility.yul\":14839:14840   */\n      0x05\n        /* \"#utility.yul\":14834:14837   */\n      dup4\n        /* \"#utility.yul\":14757:14841   */\n      tag_331\n      jump\t// in\n    tag_510:\n        /* \"#utility.yul\":14750:14841   */\n      swap2\n      pop\n        /* \"#utility.yul\":14850:14943   */\n      tag_511\n        /* \"#utility.yul\":14939:14942   */\n      dup3\n        /* \"#utility.yul\":14850:14943   */\n      tag_337\n      jump\t// in\n    tag_511:\n        /* \"#utility.yul\":14968:14969   */\n      0x05\n        /* \"#utility.yul\":14963:14966   */\n      dup3\n        /* \"#utility.yul\":14959:14970   */\n      add\n        /* \"#utility.yul\":14952:14970   */\n      swap1\n      pop\n        /* \"#utility.yul\":14576:14976   */\n      swap2\n      swap1\n      pop\n      jump\t// out\n        /* \"#utility.yul\":14982:15523   */\n    tag_112:\n        /* \"#utility.yul\":15215:15218   */\n      0x00\n        /* \"#utility.yul\":15237:15385   */\n      tag_513\n        /* \"#utility.yul\":15381:15384   */\n      dup3\n        /* \"#utility.yul\":15237:15385   */\n      tag_338\n      jump\t// in\n    tag_513:\n        /* \"#utility.yul\":15230:15385   */\n      swap2\n      pop\n        /* \"#utility.yul\":15402:15497   */\n      tag_514\n        /* \"#utility.yul\":15493:15496   */\n      dup3\n        /* \"#utility.yul\":15484:15490   */\n      dup5\n        /* \"#utility.yul\":15402:15497   */\n      tag_334\n      jump\t// in\n    tag_514:\n        /* \"#utility.yul\":15395:15497   */\n      swap2\n      pop\n        /* \"#utility.yul\":15514:15517   */\n      dup2\n        /* \"#utility.yul\":15507:15517   */\n      swap1\n      pop\n        /* \"#utility.yul\":14982:15523   */\n      swap3\n      swap2\n      pop\n      pop\n      jump\t// out\n        /* \"#utility.yul\":15529:15709   */\n    tag_250:\n        /* \"#utility.yul\":15577:15654   */\n      0x4e487b7100000000000000000000000000000000000000000000000000000000\n        /* \"#utility.yul\":15574:15575   */\n      0x00\n        /* \"#utility.yul\":15567:15655   */\n      mstore\n        /* \"#utility.yul\":15674:15678   */\n      0x41\n        /* \"#utility.yul\":15671:15672   */\n      0x04\n        /* \"#utility.yul\":15664:15679   */\n      mstore\n        /* \"#utility.yul\":15698:15702   */\n      0x24\n        /* \"#utility.yul\":15695:15696   */\n      0x00\n        /* \"#utility.yul\":15688:15703   */\n      revert\n        /* \"#utility.yul\":15715:15895   */\n    tag_339:\n        /* \"#utility.yul\":15763:15840   */\n      0x4e487b7100000000000000000000000000000000000000000000000000000000\n        /* \"#utility.yul\":15760:15761   */\n      0x00\n        /* \"#utility.yul\":15753:15841   */\n      mstore\n        /* \"#utility.yul\":15860:15864   */\n      0x22\n        /* \"#utility.yul\":15857:15858   */\n      0x04\n        /* \"#utility.yul\":15850:15865   */\n      mstore\n        /* \"#utility.yul\":15884:15888   */\n      0x24\n        /* \"#utility.yul\":15881:15882   */\n      0x00\n        /* \"#utility.yul\":15874:15889   */\n      revert\n        /* \"#utility.yul\":15901:16221   */\n    tag_161:\n        /* \"#utility.yul\":15945:15951   */\n      0x00\n        /* \"#utility.yul\":15982:15983   */\n      0x02\n        /* \"#utility.yul\":15976:15980   */\n      dup3\n        /* \"#utility.yul\":15972:15984   */\n      div\n        /* \"#utility.yul\":15962:15984   */\n      swap1\n      pop\n        /* \"#utility.yul\":16029:16030   */\n      0x01\n        /* \"#utility.yul\":16023:16027   */\n      dup3\n        /* \"#utility.yul\":16019:16031   */\n      and\n        /* \"#utility.yul\":16050:16068   */\n      dup1\n        /* \"#utility.yul\":16040:16121   */\n      tag_518\n      jumpi\n        /* \"#utility.yul\":16106:16110   */\n      0x7f\n        /* \"#utility.yul\":16098:16104   */\n      dup3\n        /* \"#utility.yul\":16094:16111   */\n      and\n        /* \"#utility.yul\":16084:16111   */\n      swap2\n      pop\n        /* \"#utility.yul\":16040:16121   */\n    tag_518:\n        /* \"#utility.yul\":16168:16170   */\n      0x20\n        /* \"#utility.yul\":16160:16166   */\n      dup3\n        /* \"#utility.yul\":16157:16171   */\n      lt\n        /* \"#utility.yul\":16137:16155   */\n      dup2\n        /* \"#utility.yul\":16134:16172   */\n      sub\n        /* \"#utility.yul\":16131:16215   */\n      tag_519\n      jumpi\n        /* \"#utility.yul\":16187:16205   */\n      tag_520\n      tag_339\n      jump\t// in\n    tag_520:\n        /* \"#utility.yul\":16131:16215   */\n    tag_519:\n        /* \"#utility.yul\":15952:16221   */\n      pop\n        /* \"#utility.yul\":15901:16221   */\n      swap2\n      swap1\n      pop\n      jump\t// out\n        /* \"#utility.yul\":16227:16368   */\n    tag_340:\n        /* \"#utility.yul\":16276:16280   */\n      0x00\n        /* \"#utility.yul\":16299:16302   */\n      dup2\n        /* \"#utility.yul\":16291:16302   */\n      swap1\n      pop\n        /* \"#utility.yul\":16322:16325   */\n      dup2\n        /* \"#utility.yul\":16319:16320   */\n      0x00\n        /* \"#utility.yul\":16312:16326   */\n      mstore\n        /* \"#utility.yul\":16356:16360   */\n      0x20\n        /* \"#utility.yul\":16353:16354   */\n      0x00\n        /* \"#utility.yul\":16343:16361   */\n      keccak256\n        /* \"#utility.yul\":16335:16361   */\n      swap1\n      pop\n        /* \"#utility.yul\":16227:16368   */\n      swap2\n      swap1\n      pop\n      jump\t// out\n        /* \"#utility.yul\":16374:16467   */\n    tag_341:\n        /* \"#utility.yul\":16411:16417   */\n      0x00\n        /* \"#utility.yul\":16458:16460   */\n      0x20\n        /* \"#utility.yul\":16453:16455   */\n      0x1f\n        /* \"#utility.yul\":16446:16451   */\n      dup4\n        /* \"#utility.yul\":16442:16456   */\n      add\n        /* \"#utility.yul\":16438:16461   */\n      div\n        /* \"#utility.yul\":16428:16461   */\n      swap1\n      pop\n        /* \"#utility.yul\":16374:16467   */\n      swap2\n      swap1\n      pop\n      jump\t// out\n        /* \"#utility.yul\":16473:16580   */\n    tag_342:\n        /* \"#utility.yul\":16517:16525   */\n      0x00\n        /* \"#utility.yul\":16567:16572   */\n      dup3\n        /* \"#utility.yul\":16561:16565   */\n      dup3\n        /* \"#utility.yul\":16557:16573   */\n      shl\n        /* \"#utility.yul\":16536:16573   */\n      swap1\n      pop\n        /* \"#utility.yul\":16473:16580   */\n      swap3\n      swap2\n      pop\n      pop\n      jump\t// out\n        /* \"#utility.yul\":16586:16979   */\n    tag_343:\n        /* \"#utility.yul\":16655:16661   */\n      0x00\n        /* \"#utility.yul\":16705:16706   */\n      0x08\n        /* \"#utility.yul\":16693:16703   */\n      dup4\n        /* \"#utility.yul\":16689:16707   */\n      mul\n        /* \"#utility.yul\":16728:16825   */\n      tag_525\n        /* \"#utility.yul\":16758:16824   */\n      0xffffffffffffffffffffffffffffffffffffffffffffffffffffffffffffffff\n        /* \"#utility.yul\":16747:16756   */\n      dup3\n        /* \"#utility.yul\":16728:16825   */\n      tag_342\n      jump\t// in\n    tag_525:\n        /* \"#utility.yul\":16846:16885   */\n      tag_526\n        /* \"#utility.yul\":16876:16884   */\n      dup7\n        /* \"#utility.yul\":16865:16874   */\n      dup4\n        /* \"#utility.yul\":16846:16885   */\n      tag_342\n      jump\t// in\n    tag_526:\n        /* \"#utility.yul\":16834:16885   */\n      swap6\n      pop\n        /* \"#utility.yul\":16918:16922   */\n      dup1\n        /* \"#utility.yul\":16914:16923   */\n      not\n        /* \"#utility.yul\":16907:16912   */\n      dup5\n        /* \"#utility.yul\":16903:16924   */\n      and\n        /* \"#utility.yul\":16894:16924   */\n      swap4\n      pop\n        /* \"#utility.yul\":16967:16971   */\n      dup1\n        /* \"#utility.yul\":16957:16965   */\n      dup7\n        /* \"#utility.yul\":16953:16972   */\n      and\n        /* \"#utility.yul\":16946:16951   */\n      dup5\n        /* \"#utility.yul\":16943:16973   */\n      or\n        /* \"#utility.yul\":16933:16973   */\n      swap3\n      pop\n        /* \"#utility.yul\":16662:16979   */\n      pop\n      pop\n        /* \"#utility.yul\":16586:16979   */\n      swap4\n      swap3\n      pop\n      pop\n      pop\n      jump\t// out\n        /* \"#utility.yul\":16985:17045   */\n    tag_344:\n        /* \"#utility.yul\":17013:17016   */\n      0x00\n        /* \"#utility.yul\":17034:17039   */\n      dup2\n        /* \"#utility.yul\":17027:17039   */\n      swap1\n      pop\n        /* \"#utility.yul\":16985:17045   */\n      swap2\n      swap1\n      pop\n      jump\t// out\n        /* \"#utility.yul\":17051:17193   */\n    tag_345:\n        /* \"#utility.yul\":17101:17110   */\n      0x00\n        /* \"#utility.yul\":17134:17187   */\n      tag_529\n        /* \"#utility.yul\":17152:17186   */\n      tag_530\n        /* \"#utility.yul\":17161:17185   */\n      tag_531\n        /* \"#utility.yul\":17179:17184   */\n      dup5\n        /* \"#utility.yul\":17161:17185   */\n      tag_312\n      jump\t// in\n    tag_531:\n        /* \"#utility.yul\":17152:17186   */\n      tag_344\n      jump\t// in\n    tag_530:\n        /* \"#utility.yul\":17134:17187   */\n      tag_312\n      jump\t// in\n    tag_529:\n        /* \"#utility.yul\":17121:17187   */\n      swap1\n      pop\n        /* \"#utility.yul\":17051:17193   */\n      swap2\n      swap1\n      pop\n      jump\t// out\n        /* \"#utility.yul\":17199:17274   */\n    tag_346:\n        /* \"#utility.yul\":17242:17245   */\n      0x00\n        /* \"#utility.yul\":17263:17268   */\n      dup2\n        /* \"#utility.yul\":17256:17268   */\n      swap1\n      pop\n        /* \"#utility.yul\":17199:17274   */\n      swap2\n      swap1\n      pop\n      jump\t// out\n        /* \"#utility.yul\":17280:17549   */\n    tag_347:\n        /* \"#utility.yul\":17390:17429   */\n      tag_534\n        /* \"#utility.yul\":17421:17428   */\n      dup4\n        /* \"#utility.yul\":17390:17429   */\n      tag_345\n      jump\t// in\n    tag_534:\n        /* \"#utility.yul\":17451:17542   */\n      tag_535\n        /* \"#utility.yul\":17500:17541   */\n      tag_536\n        /* \"#utility.yul\":17524:17540   */\n      dup3\n        /* \"#utility.yul\":17500:17541   */\n      tag_346\n      jump\t// in\n    tag_536:\n        /* \"#utility.yul\":17492:17498   */\n      dup5\n        /* \"#utility.yul\":17485:17489   */\n      dup5\n        /* \"#utility.yul\":17479:17490   */\n      sload\n        /* \"#utility.yul\":17451:17542   */\n      tag_343\n      jump\t// in\n    tag_535:\n        /* \"#utility.yul\":17445:17449   */\n      dup3\n        /* \"#utility.yul\":17438:17543   */\n      sstore\n        /* \"#utility.yul\":17356:17549   */\n      pop\n        /* \"#utility.yul\":17280:17549   */\n      pop\n      pop\n      pop\n      jump\t// out\n        /* \"#utility.yul\":17555:17628   */\n    tag_348:\n        /* \"#utility.yul\":17600:17603   */\n      0x00\n        /* \"#utility.yul\":17555:17628   */\n      swap1\n      jump\t// out\n        /* \"#utility.yul\":17634:17823   */\n    tag_349:\n        /* \"#utility.yul\":17711:17743   */\n      tag_539\n      tag_348\n      jump\t// in\n    tag_539:\n        /* \"#utility.yul\":17752:17817   */\n      tag_540\n        /* \"#utility.yul\":17810:17816   */\n      dup2\n        /* \"#utility.yul\":17802:17808   */\n      dup5\n        /* \"#utility.yul\":17796:17800   */\n      dup5\n        /* \"#utility.yul\":17752:17817   */\n      tag_347\n      jump\t// in\n    tag_540:\n        /* \"#utility.yul\":17687:17823   */\n      pop\n        /* \"#utility.yul\":17634:17823   */\n      pop\n      pop\n      jump\t// out\n        /* \"#utility.yul\":17829:18015   */\n    tag_350:\n        /* \"#utility.yul\":17889:18009   */\n    tag_542:\n        /* \"#utility.yul\":17906:17909   */\n      dup2\n        /* \"#utility.yul\":17899:17904   */\n      dup2\n        /* \"#utility.yul\":17896:17910   */\n      lt\n        /* \"#utility.yul\":17889:18009   */\n      iszero\n      tag_544\n      jumpi\n        /* \"#utility.yul\":17960:17999   */\n      tag_545\n        /* \"#utility.yul\":17997:17998   */\n      0x00\n        /* \"#utility.yul\":17990:17995   */\n      dup3\n        /* \"#utility.yul\":17960:17999   */\n      tag_349\n      jump\t// in\n    tag_545:\n        /* \"#utility.yul\":17933:17934   */\n      0x01\n        /* \"#utility.yul\":17926:17931   */\n      dup2\n        /* \"#utility.yul\":17922:17935   */\n      add\n        /* \"#utility.yul\":17913:17935   */\n      swap1\n      pop\n        /* \"#utility.yul\":17889:18009   */\n      jump(tag_542)\n    tag_544:\n        /* \"#utility.yul\":17829:18015   */\n      pop\n      pop\n      jump\t// out\n        /* \"#utility.yul\":18021:18564   */\n    tag_351:\n        /* \"#utility.yul\":18122:18124   */\n      0x1f\n        /* \"#utility.yul\":18117:18120   */\n      dup3\n        /* \"#utility.yul\":18114:18125   */\n      gt\n        /* \"#utility.yul\":18111:18557   */\n      iszero\n      tag_547\n      jumpi\n        /* \"#utility.yul\":18156:18194   */\n      tag_548\n        /* \"#utility.yul\":18188:18193   */\n      dup2\n        /* \"#utility.yul\":18156:18194   */\n      tag_340\n      jump\t// in\n    tag_548:\n        /* \"#utility.yul\":18240:18269   */\n      tag_549\n        /* \"#utility.yul\":18258:18268   */\n      dup5\n        /* \"#utility.yul\":18240:18269   */\n      tag_341\n      jump\t// in\n    tag_549:\n        /* \"#utility.yul\":18230:18238   */\n      dup2\n        /* \"#utility.yul\":18226:18270   */\n      add\n        /* \"#utility.yul\":18423:18425   */\n      0x20\n        /* \"#utility.yul\":18411:18421   */\n      dup6\n        /* \"#utility.yul\":18408:18426   */\n      lt\n        /* \"#utility.yul\":18405:18454   */\n      iszero\n      tag_550\n      jumpi\n        /* \"#utility.yul\":18444:18452   */\n      dup2\n        /* \"#utility.yul\":18429:18452   */\n      swap1\n      pop\n        /* \"#utility.yul\":18405:18454   */\n    tag_550:\n        /* \"#utility.yul\":18467:18547   */\n      tag_551\n        /* \"#utility.yul\":18523:18545   */\n      tag_552\n        /* \"#utility.yul\":18541:18544   */\n      dup6\n        /* \"#utility.yul\":18523:18545   */\n      tag_341\n      jump\t// in\n    tag_552:\n        /* \"#utility.yul\":18513:18521   */\n      dup4\n        /* \"#utility.yul\":18509:18546   */\n      add\n        /* \"#utility.yul\":18496:18507   */\n      dup3\n        /* \"#utility.yul\":18467:18547   */\n      tag_350\n      jump\t// in\n    tag_551:\n        /* \"#utility.yul\":18126:18557   */\n      pop\n      pop\n        /* \"#utility.yul\":18111:18557   */\n    tag_547:\n        /* \"#utility.yul\":18021:18564   */\n      pop\n      pop\n      pop\n      jump\t// out\n        /* \"#utility.yul\":18570:18687   */\n    tag_352:\n        /* \"#utility.yul\":18624:18632   */\n      0x00\n        /* \"#utility.yul\":18674:18679   */\n      dup3\n        /* \"#utility.yul\":18668:18672   */\n      dup3\n        /* \"#utility.yul\":18664:18680   */\n      shr\n        /* \"#utility.yul\":18643:18680   */\n      swap1\n      pop\n        /* \"#utility.yul\":18570:18687   */\n      swap3\n      swap2\n      pop\n      pop\n      jump\t// out\n        /* \"#utility.yul\":18693:18862   */\n    tag_353:\n        /* \"#utility.yul\":18737:18743   */\n      0x00\n        /* \"#utility.yul\":18770:18821   */\n      tag_555\n        /* \"#utility.yul\":18818:18819   */\n      0x00\n        /* \"#utility.yul\":18814:18820   */\n      not\n        /* \"#utility.yul\":18806:18811   */\n      dup5\n        /* \"#utility.yul\":18803:18804   */\n      0x08\n        /* \"#utility.yul\":18799:18812   */\n      mul\n        /* \"#utility.yul\":18770:18821   */\n      tag_352\n      jump\t// in\n    tag_555:\n        /* \"#utility.yul\":18766:18822   */\n      not\n        /* \"#utility.yul\":18851:18855   */\n      dup1\n        /* \"#utility.yul\":18845:18849   */\n      dup4\n        /* \"#utility.yul\":18841:18856   */\n      and\n        /* \"#utility.yul\":18831:18856   */\n      swap2\n      pop\n        /* \"#utility.yul\":18744:18862   */\n      pop\n        /* \"#utility.yul\":18693:18862   */\n      swap3\n      swap2\n      pop\n      pop\n      jump\t// out\n        /* \"#utility.yul\":18867:19162   */\n    tag_354:\n        /* \"#utility.yul\":18943:18947   */\n      0x00\n        /* \"#utility.yul\":19089:19118   */\n      tag_557\n        /* \"#utility.yul\":19114:19117   */\n      dup4\n        /* \"#utility.yul\":19108:19112   */\n      dup4\n        /* \"#utility.yul\":19089:19118   */\n      tag_353\n      jump\t// in\n    tag_557:\n        /* \"#utility.yul\":19081:19118   */\n      swap2\n      pop\n        /* \"#utility.yul\":19151:19154   */\n      dup3\n        /* \"#utility.yul\":19148:19149   */\n      0x02\n        /* \"#utility.yul\":19144:19155   */\n      mul\n        /* \"#utility.yul\":19138:19142   */\n      dup3\n        /* \"#utility.yul\":19135:19156   */\n      or\n        /* \"#utility.yul\":19127:19156   */\n      swap1\n      pop\n        /* \"#utility.yul\":18867:19162   */\n      swap3\n      swap2\n      pop\n      pop\n      jump\t// out\n        /* \"#utility.yul\":19167:20562   */\n    tag_114:\n        /* \"#utility.yul\":19284:19321   */\n      tag_559\n        /* \"#utility.yul\":19317:19320   */\n      dup3\n        /* \"#utility.yul\":19284:19321   */\n      tag_318\n      jump\t// in\n    tag_559:\n        /* \"#utility.yul\":19386:19404   */\n      0xffffffffffffffff\n        /* \"#utility.yul\":19378:19384   */\n      dup2\n        /* \"#utility.yul\":19375:19405   */\n      gt\n        /* \"#utility.yul\":19372:19428   */\n      iszero\n      tag_560\n      jumpi\n        /* \"#utility.yul\":19408:19426   */\n      tag_561\n      tag_250\n      jump\t// in\n    tag_561:\n        /* \"#utility.yul\":19372:19428   */\n    tag_560:\n        /* \"#utility.yul\":19452:19490   */\n      tag_562\n        /* \"#utility.yul\":19484:19488   */\n      dup3\n        /* \"#utility.yul\":19478:19489   */\n      sload\n        /* \"#utility.yul\":19452:19490   */\n      tag_161\n      jump\t// in\n    tag_562:\n        /* \"#utility.yul\":19537:19604   */\n      tag_563\n        /* \"#utility.yul\":19597:19603   */\n      dup3\n        /* \"#utility.yul\":19589:19595   */\n      dup3\n        /* \"#utility.yul\":19583:19587   */\n      dup6\n        /* \"#utility.yul\":19537:19604   */\n      tag_351\n      jump\t// in\n    tag_563:\n        /* \"#utility.yul\":19631:19632   */\n      0x00\n        /* \"#utility.yul\":19655:19659   */\n      0x20\n        /* \"#utility.yul\":19642:19659   */\n      swap1\n      pop\n        /* \"#utility.yul\":19687:19689   */\n      0x1f\n        /* \"#utility.yul\":19679:19685   */\n      dup4\n        /* \"#utility.yul\":19676:19690   */\n      gt\n        /* \"#utility.yul\":19704:19705   */\n      0x01\n        /* \"#utility.yul\":19699:20317   */\n      dup2\n      eq\n      tag_565\n      jumpi\n        /* \"#utility.yul\":20361:20362   */\n      0x00\n        /* \"#utility.yul\":20378:20384   */\n      dup5\n        /* \"#utility.yul\":20375:20452   */\n      iszero\n      tag_566\n      jumpi\n        /* \"#utility.yul\":20427:20436   */\n      dup3\n        /* \"#utility.yul\":20422:20425   */\n      dup8\n        /* \"#utility.yul\":20418:20437   */\n      add\n        /* \"#utility.yul\":20412:20438   */\n      mload\n        /* \"#utility.yul\":20403:20438   */\n      swap1\n      pop\n        /* \"#utility.yul\":20375:20452   */\n    tag_566:\n        /* \"#utility.yul\":20478:20545   */\n      tag_567\n        /* \"#utility.yul\":20538:20544   */\n      dup6\n        /* \"#utility.yul\":20531:20536   */\n      dup3\n        /* \"#utility.yul\":20478:20545   */\n      tag_354\n      jump\t// in\n    tag_567:\n        /* \"#utility.yul\":20472:20476   */\n      dup7\n        /* \"#utility.yul\":20465:20546   */\n      sstore\n        /* \"#utility.yul\":20334:20556   */\n      pop\n        /* \"#utility.yul\":19669:20556   */\n      jump(tag_564)\n        /* \"#utility.yul\":19699:20317   */\n    tag_565:\n        /* \"#utility.yul\":19751:19755   */\n      0x1f\n        /* \"#utility.yul\":19747:19756   */\n      not\n        /* \"#utility.yul\":19739:19745   */\n      dup5\n        /* \"#utility.yul\":19735:19757   */\n      and\n        /* \"#utility.yul\":19785:19822   */\n      tag_568\n        /* \"#utility.yul\":19817:19821   */\n      dup7\n        /* \"#utility.yul\":19785:19822   */\n      tag_340\n      jump\t// in\n    tag_568:\n        /* \"#utility.yul\":19844:19845   */\n      0x00\n        /* \"#utility.yul\":19858:20066   */\n    tag_569:\n        /* \"#utility.yul\":19872:19879   */\n      dup3\n        /* \"#utility.yul\":19869:19870   */\n      dup2\n        /* \"#utility.yul\":19866:19880   */\n      lt\n        /* \"#utility.yul\":19858:20066   */\n      iszero\n      tag_571\n      jumpi\n        /* \"#utility.yul\":19951:19960   */\n      dup5\n        /* \"#utility.yul\":19946:19949   */\n      dup10\n        /* \"#utility.yul\":19942:19961   */\n      add\n        /* \"#utility.yul\":19936:19962   */\n      mload\n        /* \"#utility.yul\":19928:19934   */\n      dup3\n        /* \"#utility.yul\":19921:19963   */\n      sstore\n        /* \"#utility.yul\":20002:20003   */\n      0x01\n        /* \"#utility.yul\":19994:20000   */\n      dup3\n        /* \"#utility.yul\":19990:20004   */\n      add\n        /* \"#utility.yul\":19980:20004   */\n      swap2\n      pop\n        /* \"#utility.yul\":20049:20051   */\n      0x20\n        /* \"#utility.yul\":20038:20047   */\n      dup6\n        /* \"#utility.yul\":20034:20052   */\n      add\n        /* \"#utility.yul\":20021:20052   */\n      swap5\n      pop\n        /* \"#utility.yul\":19895:19899   */\n      0x20\n        /* \"#utility.yul\":19892:19893   */\n      dup2\n        /* \"#utility.yul\":19888:19900   */\n      add\n        /* \"#utility.yul\":19883:19900   */\n      swap1\n      pop\n        /* \"#utility.yul\":19858:20066   */\n      jump(tag_569)\n    tag_571:\n        /* \"#utility.yul\":20094:20100   */\n      dup7\n        /* \"#utility.yul\":20085:20092   */\n      dup4\n        /* \"#utility.yul\":20082:20101   */\n      lt\n        /* \"#utility.yul\":20079:20258   */\n      iszero\n      tag_572\n      jumpi\n        /* \"#utility.yul\":20152:20161   */\n      dup5\n        /* \"#utility.yul\":20147:20150   */\n      dup10\n        /* \"#utility.yul\":20143:20162   */\n      add\n        /* \"#utility.yul\":20137:20163   */\n      mload\n        /* \"#utility.yul\":20195:20243   */\n      tag_573\n        /* \"#utility.yul\":20237:20241   */\n      0x1f\n        /* \"#utility.yul\":20229:20235   */\n      dup10\n        /* \"#utility.yul\":20225:20242   */\n      and\n        /* \"#utility.yul\":20214:20223   */\n      dup3\n        /* \"#utility.yul\":20195:20243   */\n      tag_353\n      jump\t// in\n    tag_573:\n        /* \"#utility.yul\":20187:20193   */\n      dup4\n        /* \"#utility.yul\":20180:20244   */\n      sstore\n        /* \"#utility.yul\":20102:20258   */\n      pop\n        /* \"#utility.yul\":20079:20258   */\n    tag_572:\n        /* \"#utility.yul\":20304:20305   */\n      0x01\n        /* \"#utility.yul\":20300:20301   */\n      0x02\n        /* \"#utility.yul\":20292:20298   */\n      dup9\n        /* \"#utility.yul\":20288:20302   */\n      mul\n        /* \"#utility.yul\":20284:20306   */\n      add\n        /* \"#utility.yul\":20278:20282   */\n      dup9\n        /* \"#utility.yul\":20271:20307   */\n      sstore\n        /* \"#utility.yul\":19706:20317   */\n      pop\n      pop\n      pop\n        /* \"#utility.yul\":19669:20556   */\n    tag_564:\n      pop\n        /* \"#utility.yul\":19259:20562   */\n      pop\n      pop\n      pop\n        /* \"#utility.yul\":19167:20562   */\n      pop\n      pop\n      jump\t// out\n        /* \"#utility.yul\":20568:20978   */\n    tag_117:\n        /* \"#utility.yul\":20608:20615   */\n      0x00\n        /* \"#utility.yul\":20631:20651   */\n      tag_575\n        /* \"#utility.yul\":20649:20650   */\n      dup3\n        /* \"#utility.yul\":20631:20651   */\n      tag_312\n      jump\t// in\n    tag_575:\n        /* \"#utility.yul\":20626:20651   */\n      swap2\n      pop\n        /* \"#utility.yul\":20665:20685   */\n      tag_576\n        /* \"#utility.yul\":20683:20684   */\n      dup4\n        /* \"#utility.yul\":20665:20685   */\n      tag_312\n      jump\t// in\n    tag_576:\n        /* \"#utility.yul\":20660:20685   */\n      swap3\n      pop\n        /* \"#utility.yul\":20720:20721   */\n      dup3\n        /* \"#utility.yul\":20717:20718   */\n      dup3\n        /* \"#utility.yul\":20713:20722   */\n      mul\n        /* \"#utility.yul\":20742:20772   */\n      tag_577\n        /* \"#utility.yul\":20760:20771   */\n      dup2\n        /* \"#utility.yul\":20742:20772   */\n      tag_312\n      jump\t// in\n    tag_577:\n        /* \"#utility.yul\":20731:20772   */\n      swap2\n      pop\n        /* \"#utility.yul\":20921:20922   */\n      dup3\n        /* \"#utility.yul\":20912:20919   */\n      dup3\n        /* \"#utility.yul\":20908:20923   */\n      div\n        /* \"#utility.yul\":20905:20906   */\n      dup5\n        /* \"#utility.yul\":20902:20924   */\n      eq\n        /* \"#utility.yul\":20882:20883   */\n      dup4\n        /* \"#utility.yul\":20875:20884   */\n      iszero\n        /* \"#utility.yul\":20855:20938   */\n      or\n        /* \"#utility.yul\":20832:20971   */\n      tag_578\n      jumpi\n        /* \"#utility.yul\":20951:20969   */\n      tag_579\n      tag_328\n      jump\t// in\n    tag_579:\n        /* \"#utility.yul\":20832:20971   */\n    tag_578:\n        /* \"#utility.yul\":20616:20978   */\n      pop\n        /* \"#utility.yul\":20568:20978   */\n      swap3\n      swap2\n      pop\n      pop\n      jump\t// out\n        /* \"#utility.yul\":20984:21164   */\n    tag_355:\n        /* \"#utility.yul\":21032:21109   */\n      0x4e487b7100000000000000000000000000000000000000000000000000000000\n        /* \"#utility.yul\":21029:21030   */\n      0x00\n        /* \"#utility.yul\":21022:21110   */\n      mstore\n        /* \"#utility.yul\":21129:21133   */\n      0x12\n        /* \"#utility.yul\":21126:21127   */\n      0x04\n        /* \"#utility.yul\":21119:21134   */\n      mstore\n        /* \"#utility.yul\":21153:21157   */\n      0x24\n        /* \"#utility.yul\":21150:21151   */\n      0x00\n        /* \"#utility.yul\":21143:21158   */\n      revert\n        /* \"#utility.yul\":21170:21355   */\n    tag_119:\n        /* \"#utility.yul\":21210:21211   */\n      0x00\n        /* \"#utility.yul\":21227:21247   */\n      tag_582\n        /* \"#utility.yul\":21245:21246   */\n      dup3\n        /* \"#utility.yul\":21227:21247   */\n      tag_312\n      jump\t// in\n    tag_582:\n        /* \"#utility.yul\":21222:21247   */\n      swap2\n      pop\n        /* \"#utility.yul\":21261:21281   */\n      tag_583\n        /* \"#utility.yul\":21279:21280   */\n      dup4\n        /* \"#utility.yul\":21261:21281   */\n      tag_312\n      jump\t// in\n    tag_583:\n        /* \"#utility.yul\":21256:21281   */\n      swap3\n      pop\n        /* \"#utility.yul\":21300:21301   */\n      dup3\n        /* \"#utility.yul\":21290:21325   */\n      tag_584\n      jumpi\n        /* \"#utility.yul\":21305:21323   */\n      tag_585\n      tag_355\n      jump\t// in\n    tag_585:\n        /* \"#utility.yul\":21290:21325   */\n    tag_584:\n        /* \"#utility.yul\":21347:21348   */\n      dup3\n        /* \"#utility.yul\":21344:21345   */\n      dup3\n        /* \"#utility.yul\":21340:21349   */\n      div\n        /* \"#utility.yul\":21335:21349   */\n      swap1\n      pop\n        /* \"#utility.yul\":21170:21355   */\n      swap3\n      swap2\n      pop\n      pop\n      jump\t// out\n        /* \"#utility.yul\":21361:21555   */\n    tag_125:\n        /* \"#utility.yul\":21401:21405   */\n      0x00\n        /* \"#utility.yul\":21421:21441   */\n      tag_587\n        /* \"#utility.yul\":21439:21440   */\n      dup3\n        /* \"#utility.yul\":21421:21441   */\n      tag_312\n      jump\t// in\n    tag_587:\n        /* \"#utility.yul\":21416:21441   */\n      swap2\n      pop\n        /* \"#utility.yul\":21455:21475   */\n      tag_588\n        /* \"#utility.yul\":21473:21474   */\n      dup4\n        /* \"#utility.yul\":21455:21475   */\n      tag_312\n      jump\t// in\n    tag_588:\n        /* \"#utility.yul\":21450:21475   */\n      swap3\n      pop\n        /* \"#utility.yul\":21499:21500   */\n      dup3\n        /* \"#utility.yul\":21496:21497   */\n      dup3\n        /* \"#utility.yul\":21492:21501   */\n      sub\n        /* \"#utility.yul\":21484:21501   */\n      swap1\n      pop\n        /* \"#utility.yul\":21523:21524   */\n      dup2\n        /* \"#utility.yul\":21517:21521   */\n      dup2\n        /* \"#utility.yul\":21514:21525   */\n      gt\n        /* \"#utility.yul\":21511:21548   */\n      iszero\n      tag_589\n      jumpi\n        /* \"#utility.yul\":21528:21546   */\n      tag_590\n      tag_328\n      jump\t// in\n    tag_590:\n        /* \"#utility.yul\":21511:21548   */\n    tag_589:\n        /* \"#utility.yul\":21361:21555   */\n      swap3\n      swap2\n      pop\n      pop\n      jump\t// out\n        /* \"#utility.yul\":21561:22518   */\n    tag_134:\n        /* \"#utility.yul\":21834:21838   */\n      0x00\n        /* \"#utility.yul\":21872:21875   */\n      0xc0\n        /* \"#utility.yul\":21861:21870   */\n      dup3\n        /* \"#utility.yul\":21857:21876   */\n      add\n        /* \"#utility.yul\":21849:21876   */\n      swap1\n      pop\n        /* \"#utility.yul\":21922:21931   */\n      dup2\n        /* \"#utility.yul\":21916:21920   */\n      dup2\n        /* \"#utility.yul\":21912:21932   */\n      sub\n        /* \"#utility.yul\":21908:21909   */\n      0x00\n        /* \"#utility.yul\":21897:21906   */\n      dup4\n        /* \"#utility.yul\":21893:21910   */\n      add\n        /* \"#utility.yul\":21886:21933   */\n      mstore\n        /* \"#utility.yul\":21950:22028   */\n      tag_592\n        /* \"#utility.yul\":22023:22027   */\n      dup2\n        /* \"#utility.yul\":22014:22020   */\n      dup10\n        /* \"#utility.yul\":21950:22028   */\n      tag_322\n      jump\t// in\n    tag_592:\n        /* \"#utility.yul\":21942:22028   */\n      swap1\n      pop\n        /* \"#utility.yul\":22075:22084   */\n      dup2\n        /* \"#utility.yul\":22069:22073   */\n      dup2\n        /* \"#utility.yul\":22065:22085   */\n      sub\n        /* \"#utility.yul\":22060:22062   */\n      0x20\n        /* \"#utility.yul\":22049:22058   */\n      dup4\n        /* \"#utility.yul\":22045:22063   */\n      add\n        /* \"#utility.yul\":22038:22086   */\n      mstore\n        /* \"#utility.yul\":22103:22181   */\n      tag_593\n        /* \"#utility.yul\":22176:22180   */\n      dup2\n        /* \"#utility.yul\":22167:22173   */\n      dup9\n        /* \"#utility.yul\":22103:22181   */\n      tag_322\n      jump\t// in\n    tag_593:\n        /* \"#utility.yul\":22095:22181   */\n      swap1\n      pop\n        /* \"#utility.yul\":22191:22263   */\n      tag_594\n        /* \"#utility.yul\":22259:22261   */\n      0x40\n        /* \"#utility.yul\":22248:22257   */\n      dup4\n        /* \"#utility.yul\":22244:22262   */\n      add\n        /* \"#utility.yul\":22235:22241   */\n      dup8\n        /* \"#utility.yul\":22191:22263   */\n      tag_315\n      jump\t// in\n    tag_594:\n        /* \"#utility.yul\":22273:22345   */\n      tag_595\n        /* \"#utility.yul\":22341:22343   */\n      0x60\n        /* \"#utility.yul\":22330:22339   */\n      dup4\n        /* \"#utility.yul\":22326:22344   */\n      add\n        /* \"#utility.yul\":22317:22323   */\n      dup7\n        /* \"#utility.yul\":22273:22345   */\n      tag_315\n      jump\t// in\n    tag_595:\n        /* \"#utility.yul\":22355:22428   */\n      tag_596\n        /* \"#utility.yul\":22423:22426   */\n      0x80\n        /* \"#utility.yul\":22412:22421   */\n      dup4\n        /* \"#utility.yul\":22408:22427   */\n      add\n        /* \"#utility.yul\":22399:22405   */\n      dup6\n        /* \"#utility.yul\":22355:22428   */\n      tag_315\n      jump\t// in\n    tag_596:\n        /* \"#utility.yul\":22438:22511   */\n      tag_597\n        /* \"#utility.yul\":22506:22509   */\n      0xa0\n        /* \"#utility.yul\":22495:22504   */\n      dup4\n        /* \"#utility.yul\":22491:22510   */\n      add\n        /* \"#utility.yul\":22482:22488   */\n      dup5\n        /* \"#utility.yul\":22438:22511   */\n      tag_315\n      jump\t// in\n    tag_597:\n        /* \"#utility.yul\":21561:22518   */\n      swap8\n      swap7\n      pop\n      pop\n      pop\n      pop\n      pop\n      pop\n      pop\n      jump\t// out\n        /* \"#utility.yul\":22524:22747   */\n    tag_356:\n        /* \"#utility.yul\":22664:22698   */\n      0x53686172657320646f6e277420657869737420666f722074686973207061696e\n        /* \"#utility.yul\":22660:22661   */\n      0x00\n        /* \"#utility.yul\":22652:22658   */\n      dup3\n        /* \"#utility.yul\":22648:22662   */\n      add\n        /* \"#utility.yul\":22641:22699   */\n      mstore\n        /* \"#utility.yul\":22733:22739   */\n      0x74696e6700000000000000000000000000000000000000000000000000000000\n        /* \"#utility.yul\":22728:22730   */\n      0x20\n        /* \"#utility.yul\":22720:22726   */\n      dup3\n        /* \"#utility.yul\":22716:22731   */\n      add\n        /* \"#utility.yul\":22709:22740   */\n      mstore\n        /* \"#utility.yul\":22524:22747   */\n      pop\n      jump\t// out\n        /* \"#utility.yul\":22753:23119   */\n    tag_357:\n        /* \"#utility.yul\":22895:22898   */\n      0x00\n        /* \"#utility.yul\":22916:22983   */\n      tag_600\n        /* \"#utility.yul\":22980:22982   */\n      0x24\n        /* \"#utility.yul\":22975:22978   */\n      dup4\n        /* \"#utility.yul\":22916:22983   */\n      tag_319\n      jump\t// in\n    tag_600:\n        /* \"#utility.yul\":22909:22983   */\n      swap2\n      pop\n        /* \"#utility.yul\":22992:23085   */\n      tag_601\n        /* \"#utility.yul\":23081:23084   */\n      dup3\n        /* \"#utility.yul\":22992:23085   */\n      tag_356\n      jump\t// in\n    tag_601:\n        /* \"#utility.yul\":23110:23112   */\n      0x40\n        /* \"#utility.yul\":23105:23108   */\n      dup3\n        /* \"#utility.yul\":23101:23113   */\n      add\n        /* \"#utility.yul\":23094:23113   */\n      swap1\n      pop\n        /* \"#utility.yul\":22753:23119   */\n      swap2\n      swap1\n      pop\n      jump\t// out\n        /* \"#utility.yul\":23125:23544   */\n    tag_138:\n        /* \"#utility.yul\":23291:23295   */\n      0x00\n        /* \"#utility.yul\":23329:23331   */\n      0x20\n        /* \"#utility.yul\":23318:23327   */\n      dup3\n        /* \"#utility.yul\":23314:23332   */\n      add\n        /* \"#utility.yul\":23306:23332   */\n      swap1\n      pop\n        /* \"#utility.yul\":23378:23387   */\n      dup2\n        /* \"#utility.yul\":23372:23376   */\n      dup2\n        /* \"#utility.yul\":23368:23388   */\n      sub\n        /* \"#utility.yul\":23364:23365   */\n      0x00\n        /* \"#utility.yul\":23353:23362   */\n      dup4\n        /* \"#utility.yul\":23349:23366   */\n      add\n        /* \"#utility.yul\":23342:23389   */\n      mstore\n        /* \"#utility.yul\":23406:23537   */\n      tag_603\n        /* \"#utility.yul\":23532:23536   */\n      dup2\n        /* \"#utility.yul\":23406:23537   */\n      tag_357\n      jump\t// in\n    tag_603:\n        /* \"#utility.yul\":23398:23537   */\n      swap1\n      pop\n        /* \"#utility.yul\":23125:23544   */\n      swap2\n      swap1\n      pop\n      jump\t// out\n        /* \"#utility.yul\":23550:23724   */\n    tag_358:\n        /* \"#utility.yul\":23690:23716   */\n      0x5472616e7366657220746f207a65726f20616464726573730000000000000000\n        /* \"#utility.yul\":23686:23687   */\n      0x00\n        /* \"#utility.yul\":23678:23684   */\n      dup3\n        /* \"#utility.yul\":23674:23688   */\n      add\n        /* \"#utility.yul\":23667:23717   */\n      mstore\n        /* \"#utility.yul\":23550:23724   */\n      pop\n      jump\t// out\n        /* \"#utility.yul\":23730:24096   */\n    tag_359:\n        /* \"#utility.yul\":23872:23875   */\n      0x00\n        /* \"#utility.yul\":23893:23960   */\n      tag_606\n        /* \"#utility.yul\":23957:23959   */\n      0x18\n        /* \"#utility.yul\":23952:23955   */\n      dup4\n        /* \"#utility.yul\":23893:23960   */\n      tag_319\n      jump\t// in\n    tag_606:\n        /* \"#utility.yul\":23886:23960   */\n      swap2\n      pop\n        /* \"#utility.yul\":23969:24062   */\n      tag_607\n        /* \"#utility.yul\":24058:24061   */\n      dup3\n        /* \"#utility.yul\":23969:24062   */\n      tag_358\n      jump\t// in\n    tag_607:\n        /* \"#utility.yul\":24087:24089   */\n      0x20\n        /* \"#utility.yul\":24082:24085   */\n      dup3\n        /* \"#utility.yul\":24078:24090   */\n      add\n        /* \"#utility.yul\":24071:24090   */\n      swap1\n      pop\n        /* \"#utility.yul\":23730:24096   */\n      swap2\n      swap1\n      pop\n      jump\t// out\n        /* \"#utility.yul\":24102:24521   */\n    tag_147:\n        /* \"#utility.yul\":24268:24272   */\n      0x00\n        /* \"#utility.yul\":24306:24308   */\n      0x20\n        /* \"#utility.yul\":24295:24304   */\n      dup3\n        /* \"#utility.yul\":24291:24309   */\n      add\n        /* \"#utility.yul\":24283:24309   */\n      swap1\n      pop\n        /* \"#utility.yul\":24355:24364   */\n      dup2\n        /* \"#utility.yul\":24349:24353   */\n      dup2\n        /* \"#utility.yul\":24345:24365   */\n      sub\n        /* \"#utility.yul\":24341:24342   */\n      0x00\n        /* \"#utility.yul\":24330:24339   */\n      dup4\n        /* \"#utility.yul\":24326:24343   */\n      add\n        /* \"#utility.yul\":24319:24366   */\n      mstore\n        /* \"#utility.yul\":24383:24514   */\n      tag_609\n        /* \"#utility.yul\":24509:24513   */\n      dup2\n        /* \"#utility.yul\":24383:24514   */\n      tag_359\n      jump\t// in\n    tag_609:\n        /* \"#utility.yul\":24375:24514   */\n      swap1\n      pop\n        /* \"#utility.yul\":24102:24521   */\n      swap2\n      swap1\n      pop\n      jump\t// out\n        /* \"#utility.yul\":24527:24697   */\n    tag_360:\n        /* \"#utility.yul\":24667:24689   */\n      0x496e73756666696369656e742062616c616e6365000000000000000000000000\n        /* \"#utility.yul\":24663:24664   */\n      0x00\n        /* \"#utility.yul\":24655:24661   */\n      dup3\n        /* \"#utility.yul\":24651:24665   */\n      add\n        /* \"#utility.yul\":24644:24690   */\n      mstore\n        /* \"#utility.yul\":24527:24697   */\n      pop\n      jump\t// out\n        /* \"#utility.yul\":24703:25069   */\n    tag_361:\n        /* \"#utility.yul\":24845:24848   */\n      0x00\n        /* \"#utility.yul\":24866:24933   */\n      tag_612\n        /* \"#utility.yul\":24930:24932   */\n      0x14\n        /* \"#utility.yul\":24925:24928   */\n      dup4\n        /* \"#utility.yul\":24866:24933   */\n      tag_319\n      jump\t// in\n    tag_612:\n        /* \"#utility.yul\":24859:24933   */\n      swap2\n      pop\n        /* \"#utility.yul\":24942:25035   */\n      tag_613\n        /* \"#utility.yul\":25031:25034   */\n      dup3\n        /* \"#utility.yul\":24942:25035   */\n      tag_360\n      jump\t// in\n    tag_613:\n        /* \"#utility.yul\":25060:25062   */\n      0x20\n        /* \"#utility.yul\":25055:25058   */\n      dup3\n        /* \"#utility.yul\":25051:25063   */\n      add\n        /* \"#utility.yul\":25044:25063   */\n      swap1\n      pop\n        /* \"#utility.yul\":24703:25069   */\n      swap2\n      swap1\n      pop\n      jump\t// out\n        /* \"#utility.yul\":25075:25494   */\n    tag_150:\n        /* \"#utility.yul\":25241:25245   */\n      0x00\n        /* \"#utility.yul\":25279:25281   */\n      0x20\n        /* \"#utility.yul\":25268:25277   */\n      dup3\n        /* \"#utility.yul\":25264:25282   */\n      add\n        /* \"#utility.yul\":25256:25282   */\n      swap1\n      pop\n        /* \"#utility.yul\":25328:25337   */\n      dup2\n        /* \"#utility.yul\":25322:25326   */\n      dup2\n        /* \"#utility.yul\":25318:25338   */\n      sub\n        /* \"#utility.yul\":25314:25315   */\n      0x00\n        /* \"#utility.yul\":25303:25312   */\n      dup4\n        /* \"#utility.yul\":25299:25316   */\n      add\n        /* \"#utility.yul\":25292:25339   */\n      mstore\n        /* \"#utility.yul\":25356:25487   */\n      tag_615\n        /* \"#utility.yul\":25482:25486   */\n      dup2\n        /* \"#utility.yul\":25356:25487   */\n      tag_361\n      jump\t// in\n    tag_615:\n        /* \"#utility.yul\":25348:25487   */\n      swap1\n      pop\n        /* \"#utility.yul\":25075:25494   */\n      swap2\n      swap1\n      pop\n      jump\t// out\n        /* \"#utility.yul\":25500:25672   */\n    tag_362:\n        /* \"#utility.yul\":25640:25664   */\n      0x496e73756666696369656e7420616c6c6f77616e636500000000000000000000\n        /* \"#utility.yul\":25636:25637   */\n      0x00\n        /* \"#utility.yul\":25628:25634   */\n      dup3\n        /* \"#utility.yul\":25624:25638   */\n      add\n        /* \"#utility.yul\":25617:25665   */\n      mstore\n        /* \"#utility.yul\":25500:25672   */\n      pop\n      jump\t// out\n        /* \"#utility.yul\":25678:26044   */\n    tag_363:\n        /* \"#utility.yul\":25820:25823   */\n      0x00\n        /* \"#utility.yul\":25841:25908   */\n      tag_618\n        /* \"#utility.yul\":25905:25907   */\n      0x16\n        /* \"#utility.yul\":25900:25903   */\n      dup4\n        /* \"#utility.yul\":25841:25908   */\n      tag_319\n      jump\t// in\n    tag_618:\n        /* \"#utility.yul\":25834:25908   */\n      swap2\n      pop\n        /* \"#utility.yul\":25917:26010   */\n      tag_619\n        /* \"#utility.yul\":26006:26009   */\n      dup3\n        /* \"#utility.yul\":25917:26010   */\n      tag_362\n      jump\t// in\n    tag_619:\n        /* \"#utility.yul\":26035:26037   */\n      0x20\n        /* \"#utility.yul\":26030:26033   */\n      dup3\n        /* \"#utility.yul\":26026:26038   */\n      add\n        /* \"#utility.yul\":26019:26038   */\n      swap1\n      pop\n        /* \"#utility.yul\":25678:26044   */\n      swap2\n      swap1\n      pop\n      jump\t// out\n        /* \"#utility.yul\":26050:26469   */\n    tag_153:\n        /* \"#utility.yul\":26216:26220   */\n      0x00\n        /* \"#utility.yul\":26254:26256   */\n      0x20\n        /* \"#utility.yul\":26243:26252   */\n      dup3\n        /* \"#utility.yul\":26239:26257   */\n      add\n        /* \"#utility.yul\":26231:26257   */\n      swap1\n      pop\n        /* \"#utility.yul\":26303:26312   */\n      dup2\n        /* \"#utility.yul\":26297:26301   */\n      dup2\n        /* \"#utility.yul\":26293:26313   */\n      sub\n        /* \"#utility.yul\":26289:26290   */\n      0x00\n        /* \"#utility.yul\":26278:26287   */\n      dup4\n        /* \"#utility.yul\":26274:26291   */\n      add\n        /* \"#utility.yul\":26267:26314   */\n      mstore\n        /* \"#utility.yul\":26331:26462   */\n      tag_621\n        /* \"#utility.yul\":26457:26461   */\n      dup2\n        /* \"#utility.yul\":26331:26462   */\n      tag_363\n      jump\t// in\n    tag_621:\n        /* \"#utility.yul\":26323:26462   */\n      swap1\n      pop\n        /* \"#utility.yul\":26050:26469   */\n      swap2\n      swap1\n      pop\n      jump\t// out\n        /* \"#utility.yul\":26475:26648   */\n    tag_364:\n        /* \"#utility.yul\":26615:26640   */\n      0x417070726f766520746f207a65726f2061646472657373000000000000000000\n        /* \"#utility.yul\":26611:26612   */\n      0x00\n        /* \"#utility.yul\":26603:26609   */\n      dup3\n        /* \"#utility.yul\":26599:26613   */\n      add\n        /* \"#utility.yul\":26592:26641   */\n      mstore\n        /* \"#utility.yul\":26475:26648   */\n      pop\n      jump\t// out\n        /* \"#utility.yul\":26654:27020   */\n    tag_365:\n        /* \"#utility.yul\":26796:26799   */\n      0x00\n        /* \"#utility.yul\":26817:26884   */\n      tag_624\n        /* \"#utility.yul\":26881:26883   */\n      0x17\n        /* \"#utility.yul\":26876:26879   */\n      dup4\n        /* \"#utility.yul\":26817:26884   */\n      tag_319\n      jump\t// in\n    tag_624:\n        /* \"#utility.yul\":26810:26884   */\n      swap2\n      pop\n        /* \"#utility.yul\":26893:26986   */\n      tag_625\n        /* \"#utility.yul\":26982:26985   */\n      dup3\n        /* \"#utility.yul\":26893:26986   */\n      tag_364\n      jump\t// in\n    tag_625:\n        /* \"#utility.yul\":27011:27013   */\n      0x20\n        /* \"#utility.yul\":27006:27009   */\n      dup3\n        /* \"#utility.yul\":27002:27014   */\n      add\n        /* \"#utility.yul\":26995:27014   */\n      swap1\n      pop\n        /* \"#utility.yul\":26654:27020   */\n      swap2\n      swap1\n      pop\n      jump\t// out\n        /* \"#utility.yul\":27026:27445   */\n    tag_206:\n        /* \"#utility.yul\":27192:27196   */\n      0x00\n        /* \"#utility.yul\":27230:27232   */\n      0x20\n        /* \"#utility.yul\":27219:27228   */\n      dup3\n        /* \"#utility.yul\":27215:27233   */\n      add\n        /* \"#utility.yul\":27207:27233   */\n      swap1\n      pop\n        /* \"#utility.yul\":27279:27288   */\n      dup2\n        /* \"#utility.yul\":27273:27277   */\n      dup2\n        /* \"#utility.yul\":27269:27289   */\n      sub\n        /* \"#utility.yul\":27265:27266   */\n      0x00\n        /* \"#utility.yul\":27254:27263   */\n      dup4\n        /* \"#utility.yul\":27250:27267   */\n      add\n        /* \"#utility.yul\":27243:27290   */\n      mstore\n        /* \"#utility.yul\":27307:27438   */\n      tag_627\n        /* \"#utility.yul\":27433:27437   */\n      dup2\n        /* \"#utility.yul\":27307:27438   */\n      tag_365\n      jump\t// in\n    tag_627:\n        /* \"#utility.yul\":27299:27438   */\n      swap1\n      pop\n        /* \"#utility.yul\":27026:27445   */\n      swap2\n      swap1\n      pop\n      jump\t// out\n        /* \"#utility.yul\":27451:27616   */\n    tag_366:\n        /* \"#utility.yul\":27591:27608   */\n      0x496e76616c696420616464726573730000000000000000000000000000000000\n        /* \"#utility.yul\":27587:27588   */\n      0x00\n        /* \"#utility.yul\":27579:27585   */\n      dup3\n        /* \"#utility.yul\":27575:27589   */\n      add\n        /* \"#utility.yul\":27568:27609   */\n      mstore\n        /* \"#utility.yul\":27451:27616   */\n      pop\n      jump\t// out\n        /* \"#utility.yul\":27622:27988   */\n    tag_367:\n        /* \"#utility.yul\":27764:27767   */\n      0x00\n        /* \"#utility.yul\":27785:27852   */\n      tag_630\n        /* \"#utility.yul\":27849:27851   */\n      0x0f\n        /* \"#utility.yul\":27844:27847   */\n      dup4\n        /* \"#utility.yul\":27785:27852   */\n      tag_319\n      jump\t// in\n    tag_630:\n        /* \"#utility.yul\":27778:27852   */\n      swap2\n      pop\n        /* \"#utility.yul\":27861:27954   */\n      tag_631\n        /* \"#utility.yul\":27950:27953   */\n      dup3\n        /* \"#utility.yul\":27861:27954   */\n      tag_366\n      jump\t// in\n    tag_631:\n        /* \"#utility.yul\":27979:27981   */\n      0x20\n        /* \"#utility.yul\":27974:27977   */\n      dup3\n        /* \"#utility.yul\":27970:27982   */\n      add\n        /* \"#utility.yul\":27963:27982   */\n      swap1\n      pop\n        /* \"#utility.yul\":27622:27988   */\n      swap2\n      swap1\n      pop\n      jump\t// out\n        /* \"#utility.yul\":27994:28413   */\n    tag_214:\n        /* \"#utility.yul\":28160:28164   */\n      0x00\n        /* \"#utility.yul\":28198:28200   */\n      0x20\n        /* \"#utility.yul\":28187:28196   */\n      dup3\n        /* \"#utility.yul\":28183:28201   */\n      add\n        /* \"#utility.yul\":28175:28201   */\n      swap1\n      pop\n        /* \"#utility.yul\":28247:28256   */\n      dup2\n        /* \"#utility.yul\":28241:28245   */\n      dup2\n        /* \"#utility.yul\":28237:28257   */\n      sub\n        /* \"#utility.yul\":28233:28234   */\n      0x00\n        /* \"#utility.yul\":28222:28231   */\n      dup4\n        /* \"#utility.yul\":28218:28235   */\n      add\n        /* \"#utility.yul\":28211:28258   */\n      mstore\n        /* \"#utility.yul\":28275:28406   */\n      tag_633\n        /* \"#utility.yul\":28401:28405   */\n      dup2\n        /* \"#utility.yul\":28275:28406   */\n      tag_367\n      jump\t// in\n    tag_633:\n        /* \"#utility.yul\":28267:28406   */\n      swap1\n      pop\n        /* \"#utility.yul\":27994:28413   */\n      swap2\n      swap1\n      pop\n      jump\t// out\n        /* \"#utility.yul\":28419:28585   */\n    tag_368:\n        /* \"#utility.yul\":28559:28577   */\n      0x5061757361626c653a2070617573656400000000000000000000000000000000\n        /* \"#utility.yul\":28555:28556   */\n      0x00\n        /* \"#utility.yul\":28547:28553   */\n      dup3\n        /* \"#utility.yul\":28543:28557   */\n      add\n        /* \"#utility.yul\":28536:28578   */\n      mstore\n        /* \"#utility.yul\":28419:28585   */\n      pop\n      jump\t// out\n        /* \"#utility.yul\":28591:28957   */\n    tag_369:\n        /* \"#utility.yul\":28733:28736   */\n      0x00\n        /* \"#utility.yul\":28754:28821   */\n      tag_636\n        /* \"#utility.yul\":28818:28820   */\n      0x10\n        /* \"#utility.yul\":28813:28816   */\n      dup4\n        /* \"#utility.yul\":28754:28821   */\n      tag_319\n      jump\t// in\n    tag_636:\n        /* \"#utility.yul\":28747:28821   */\n      swap2\n      pop\n        /* \"#utility.yul\":28830:28923   */\n      tag_637\n        /* \"#utility.yul\":28919:28922   */\n      dup3\n        /* \"#utility.yul\":28830:28923   */\n      tag_368\n      jump\t// in\n    tag_637:\n        /* \"#utility.yul\":28948:28950   */\n      0x20\n        /* \"#utility.yul\":28943:28946   */\n      dup3\n        /* \"#utility.yul\":28939:28951   */\n      add\n        /* \"#utility.yul\":28932:28951   */\n      swap1\n      pop\n        /* \"#utility.yul\":28591:28957   */\n      swap2\n      swap1\n      pop\n      jump\t// out\n        /* \"#utility.yul\":28963:29382   */\n    tag_240:\n        /* \"#utility.yul\":29129:29133   */\n      0x00\n        /* \"#utility.yul\":29167:29169   */\n      0x20\n        /* \"#utility.yul\":29156:29165   */\n      dup3\n        /* \"#utility.yul\":29152:29170   */\n      add\n        /* \"#utility.yul\":29144:29170   */\n      swap1\n      pop\n        /* \"#utility.yul\":29216:29225   */\n      dup2\n        /* \"#utility.yul\":29210:29214   */\n      dup2\n        /* \"#utility.yul\":29206:29226   */\n      sub\n        /* \"#utility.yul\":29202:29203   */\n      0x00\n        /* \"#utility.yul\":29191:29200   */\n      dup4\n        /* \"#utility.yul\":29187:29204   */\n      add\n        /* \"#utility.yul\":29180:29227   */\n      mstore\n        /* \"#utility.yul\":29244:29375   */\n      tag_639\n        /* \"#utility.yul\":29370:29374   */\n      dup2\n        /* \"#utility.yul\":29244:29375   */\n      tag_369\n      jump\t// in\n    tag_639:\n        /* \"#utility.yul\":29236:29375   */\n      swap1\n      pop\n        /* \"#utility.yul\":28963:29382   */\n      swap2\n      swap1\n      pop\n      jump\t// out\n        /* \"#utility.yul\":29388:29621   */\n    tag_246:\n        /* \"#utility.yul\":29427:29430   */\n      0x00\n        /* \"#utility.yul\":29450:29474   */\n      tag_641\n        /* \"#utility.yul\":29468:29473   */\n      dup3\n        /* \"#utility.yul\":29450:29474   */\n      tag_312\n      jump\t// in\n    tag_641:\n        /* \"#utility.yul\":29441:29474   */\n      swap2\n      pop\n        /* \"#utility.yul\":29496:29562   */\n      0xffffffffffffffffffffffffffffffffffffffffffffffffffffffffffffffff\n        /* \"#utility.yul\":29489:29494   */\n      dup3\n        /* \"#utility.yul\":29486:29563   */\n      sub\n        /* \"#utility.yul\":29483:29586   */\n      tag_642\n      jumpi\n        /* \"#utility.yul\":29566:29584   */\n      tag_643\n      tag_328\n      jump\t// in\n    tag_643:\n        /* \"#utility.yul\":29483:29586   */\n    tag_642:\n        /* \"#utility.yul\":29613:29614   */\n      0x01\n        /* \"#utility.yul\":29606:29611   */\n      dup3\n        /* \"#utility.yul\":29602:29615   */\n      add\n        /* \"#utility.yul\":29595:29615   */\n      swap1\n      pop\n        /* \"#utility.yul\":29388:29621   */\n      swap2\n      swap1\n      pop\n      jump\t// out\n        /* \"#utility.yul\":29627:29803   */\n    tag_256:\n        /* \"#utility.yul\":29659:29660   */\n      0x00\n        /* \"#utility.yul\":29676:29696   */\n      tag_645\n        /* \"#utility.yul\":29694:29695   */\n      dup3\n        /* \"#utility.yul\":29676:29696   */\n      tag_312\n      jump\t// in\n    tag_645:\n        /* \"#utility.yul\":29671:29696   */\n      swap2\n      pop\n        /* \"#utility.yul\":29710:29730   */\n      tag_646\n        /* \"#utility.yul\":29728:29729   */\n      dup4\n        /* \"#utility.yul\":29710:29730   */\n      tag_312\n      jump\t// in\n    tag_646:\n        /* \"#utility.yul\":29705:29730   */\n      swap3\n      pop\n        /* \"#utility.yul\":29749:29750   */\n      dup3\n        /* \"#utility.yul\":29739:29774   */\n      tag_647\n      jumpi\n        /* \"#utility.yul\":29754:29772   */\n      tag_648\n      tag_355\n      jump\t// in\n    tag_648:\n        /* \"#utility.yul\":29739:29774   */\n    tag_647:\n        /* \"#utility.yul\":29795:29796   */\n      dup3\n        /* \"#utility.yul\":29792:29793   */\n      dup3\n        /* \"#utility.yul\":29788:29797   */\n      mod\n        /* \"#utility.yul\":29783:29797   */\n      swap1\n      pop\n        /* \"#utility.yul\":29627:29803   */\n      swap3\n      swap2\n      pop\n      pop\n      jump\t// out\n        /* \"#utility.yul\":29809:29989   */\n    tag_260:\n        /* \"#utility.yul\":29857:29934   */\n      0x4e487b7100000000000000000000000000000000000000000000000000000000\n        /* \"#utility.yul\":29854:29855   */\n      0x00\n        /* \"#utility.yul\":29847:29935   */\n      mstore\n        /* \"#utility.yul\":29954:29958   */\n      0x32\n        /* \"#utility.yul\":29951:29952   */\n      0x04\n        /* \"#utility.yul\":29944:29959   */\n      mstore\n        /* \"#utility.yul\":29978:29982   */\n      0x24\n        /* \"#utility.yul\":29975:29976   */\n      0x00\n        /* \"#utility.yul\":29968:29983   */\n      revert\n        /* \"#utility.yul\":29995:30165   */\n    tag_370:\n        /* \"#utility.yul\":30135:30157   */\n      0x4d696e7420746f207a65726f2061646472657373000000000000000000000000\n        /* \"#utility.yul\":30131:30132   */\n      0x00\n        /* \"#utility.yul\":30123:30129   */\n      dup3\n        /* \"#utility.yul\":30119:30133   */\n      add\n        /* \"#utility.yul\":30112:30158   */\n      mstore\n        /* \"#utility.yul\":29995:30165   */\n      pop\n      jump\t// out\n        /* \"#utility.yul\":30171:30537   */\n    tag_371:\n        /* \"#utility.yul\":30313:30316   */\n      0x00\n        /* \"#utility.yul\":30334:30401   */\n      tag_652\n        /* \"#utility.yul\":30398:30400   */\n      0x14\n        /* \"#utility.yul\":30393:30396   */\n      dup4\n        /* \"#utility.yul\":30334:30401   */\n      tag_319\n      jump\t// in\n    tag_652:\n        /* \"#utility.yul\":30327:30401   */\n      swap2\n      pop\n        /* \"#utility.yul\":30410:30503   */\n      tag_653\n        /* \"#utility.yul\":30499:30502   */\n      dup3\n        /* \"#utility.yul\":30410:30503   */\n      tag_370\n      jump\t// in\n    tag_653:\n        /* \"#utility.yul\":30528:30530   */\n      0x20\n        /* \"#utility.yul\":30523:30526   */\n      dup3\n        /* \"#utility.yul\":30519:30531   */\n      add\n        /* \"#utility.yul\":30512:30531   */\n      swap1\n      pop\n        /* \"#utility.yul\":30171:30537   */\n      swap2\n      swap1\n      pop\n      jump\t// out\n        /* \"#utility.yul\":30543:30962   */\n    tag_265:\n        /* \"#utility.yul\":30709:30713   */\n      0x00\n        /* \"#utility.yul\":30747:30749   */\n      0x20\n        /* \"#utility.yul\":30736:30745   */\n      dup3\n        /* \"#utility.yul\":30732:30750   */\n      add\n        /* \"#utility.yul\":30724:30750   */\n      swap1\n      pop\n        /* \"#utility.yul\":30796:30805   */\n      dup2\n        /* \"#utility.yul\":30790:30794   */\n      dup2\n        /* \"#utility.yul\":30786:30806   */\n      sub\n        /* \"#utility.yul\":30782:30783   */\n      0x00\n        /* \"#utility.yul\":30771:30780   */\n      dup4\n        /* \"#utility.yul\":30767:30784   */\n      add\n        /* \"#utility.yul\":30760:30807   */\n      mstore\n        /* \"#utility.yul\":30824:30955   */\n      tag_655\n        /* \"#utility.yul\":30950:30954   */\n      dup2\n        /* \"#utility.yul\":30824:30955   */\n      tag_371\n      jump\t// in\n    tag_655:\n        /* \"#utility.yul\":30816:30955   */\n      swap1\n      pop\n        /* \"#utility.yul\":30543:30962   */\n      swap2\n      swap1\n      pop\n      jump\t// out\n        /* \"#utility.yul\":30968:31149   */\n    tag_372:\n        /* \"#utility.yul\":31108:31141   */\n      0x5265656e7472616e637947756172643a207265656e7472616e742063616c6c00\n        /* \"#utility.yul\":31104:31105   */\n      0x00\n        /* \"#utility.yul\":31096:31102   */\n      dup3\n        /* \"#utility.yul\":31092:31106   */\n      add\n        /* \"#utility.yul\":31085:31142   */\n      mstore\n        /* \"#utility.yul\":30968:31149   */\n      pop\n      jump\t// out\n        /* \"#utility.yul\":31155:31521   */\n    tag_373:\n        /* \"#utility.yul\":31297:31300   */\n      0x00\n        /* \"#utility.yul\":31318:31385   */\n      tag_658\n        /* \"#utility.yul\":31382:31384   */\n      0x1f\n        /* \"#utility.yul\":31377:31380   */\n      dup4\n        /* \"#utility.yul\":31318:31385   */\n      tag_319\n      jump\t// in\n    tag_658:\n        /* \"#utility.yul\":31311:31385   */\n      swap2\n      pop\n        /* \"#utility.yul\":31394:31487   */\n      tag_659\n        /* \"#utility.yul\":31483:31486   */\n      dup3\n        /* \"#utility.yul\":31394:31487   */\n      tag_372\n      jump\t// in\n    tag_659:\n        /* \"#utility.yul\":31512:31514   */\n      0x20\n        /* \"#utility.yul\":31507:31510   */\n      dup3\n        /* \"#utility.yul\":31503:31515   */\n      add\n        /* \"#utility.yul\":31496:31515   */\n      swap1\n      pop\n        /* \"#utility.yul\":31155:31521   */\n      swap2\n      swap1\n      pop\n      jump\t// out\n        /* \"#utility.yul\":31527:31946   */\n    tag_272:\n        /* \"#utility.yul\":31693:31697   */\n      0x00\n        /* \"#utility.yul\":31731:31733   */\n      0x20\n        /* \"#utility.yul\":31720:31729   */\n      dup3\n        /* \"#utility.yul\":31716:31734   */\n      add\n        /* \"#utility.yul\":31708:31734   */\n      swap1\n      pop\n        /* \"#utility.yul\":31780:31789   */\n      dup2\n        /* \"#utility.yul\":31774:31778   */\n      dup2\n        /* \"#utility.yul\":31770:31790   */\n      sub\n        /* \"#utility.yul\":31766:31767   */\n      0x00\n        /* \"#utility.yul\":31755:31764   */\n      dup4\n        /* \"#utility.yul\":31751:31768   */\n      add\n        /* \"#utility.yul\":31744:31791   */\n      mstore\n        /* \"#utility.yul\":31808:31939   */\n      tag_661\n        /* \"#utility.yul\":31934:31938   */\n      dup2\n        /* \"#utility.yul\":31808:31939   */\n      tag_373\n      jump\t// in\n    tag_661:\n        /* \"#utility.yul\":31800:31939   */\n      swap1\n      pop\n        /* \"#utility.yul\":31527:31946   */\n      swap2\n      swap1\n      pop\n      jump\t// out\n        /* \"#utility.yul\":31952:32122   */\n    tag_374:\n        /* \"#utility.yul\":32092:32114   */\n      0x5061757361626c653a206e6f7420706175736564000000000000000000000000\n        /* \"#utility.yul\":32088:32089   */\n      0x00\n        /* \"#utility.yul\":32080:32086   */\n      dup3\n        /* \"#utility.yul\":32076:32090   */\n      add\n        /* \"#utility.yul\":32069:32115   */\n      mstore\n        /* \"#utility.yul\":31952:32122   */\n      pop\n      jump\t// out\n        /* \"#utility.yul\":32128:32494   */\n    tag_375:\n        /* \"#utility.yul\":32270:32273   */\n      0x00\n        /* \"#utility.yul\":32291:32358   */\n      tag_664\n        /* \"#utility.yul\":32355:32357   */\n      0x14\n        /* \"#utility.yul\":32350:32353   */\n      dup4\n        /* \"#utility.yul\":32291:32358   */\n      tag_319\n      jump\t// in\n    tag_664:\n        /* \"#utility.yul\":32284:32358   */\n      swap2\n      pop\n        /* \"#utility.yul\":32367:32460   */\n      tag_665\n        /* \"#utility.yul\":32456:32459   */\n      dup3\n        /* \"#utility.yul\":32367:32460   */\n      tag_374\n      jump\t// in\n    tag_665:\n        /* \"#utility.yul\":32485:32487   */\n      0x20\n        /* \"#utility.yul\":32480:32483   */\n      dup3\n        /* \"#utility.yul\":32476:32488   */\n      add\n        /* \"#utility.yul\":32469:32488   */\n      swap1\n      pop\n        /* \"#utility.yul\":32128:32494   */\n      swap2\n      swap1\n      pop\n      jump\t// out\n        /* \"#utility.yul\":32500:32919   */\n    tag_304:\n        /* \"#utility.yul\":32666:32670   */\n      0x00\n        /* \"#utility.yul\":32704:32706   */\n      0x20\n        /* \"#utility.yul\":32693:32702   */\n      dup3\n        /* \"#utility.yul\":32689:32707   */\n      add\n        /* \"#utility.yul\":32681:32707   */\n      swap1\n      pop\n        /* \"#utility.yul\":32753:32762   */\n      dup2\n        /* \"#utility.yul\":32747:32751   */\n      dup2\n        /* \"#utility.yul\":32743:32763   */\n      sub\n        /* \"#utility.yul\":32739:32740   */\n      0x00\n        /* \"#utility.yul\":32728:32737   */\n      dup4\n        /* \"#utility.yul\":32724:32741   */\n      add\n        /* \"#utility.yul\":32717:32764   */\n      mstore\n        /* \"#utility.yul\":32781:32912   */\n      tag_667\n        /* \"#utility.yul\":32907:32911   */\n      dup2\n        /* \"#utility.yul\":32781:32912   */\n      tag_375\n      jump\t// in\n    tag_667:\n        /* \"#utility.yul\":32773:32912   */\n      swap1\n      pop\n        /* \"#utility.yul\":32500:32919   */\n      swap2\n      swap1\n      pop\n      jump\t// out\n\n    auxdata: 0xa2646970667358221220e95c4d0434714cb8e98cd6cdf5968a867215c2f8c7dc4b9d618c368b10d7009e64736f6c63430008140033\n}\n",
				"bytecode": {
					"linkReferences": {},
					"object": "608060405234801562000010575f80fd5b5060405162002dcc38038062002dcc8339818101604052810190620000369190620002fe565b805f73ffffffffffffffffffffffffffffffffffffffff168173ffffffffffffffffffffffffffffffffffffffff1603620000aa575f6040517f1e4fbdf7000000000000000000000000000000000000000000000000000000008152600401620000a191906200033f565b60405180910390fd5b620000bb81620000f360201b60201c565b505f8060146101000a81548160ff02191690831515021790555060018081905550620000ec620001b460201b60201c565b50620003d8565b5f805f9054906101000a900473ffffffffffffffffffffffffffffffffffffffff169050815f806101000a81548173ffffffffffffffffffffffffffffffffffffffff021916908373ffffffffffffffffffffffffffffffffffffffff1602179055508173ffffffffffffffffffffffffffffffffffffffff168173ffffffffffffffffffffffffffffffffffffffff167f8be0079c531659141344cd1fd0a4f28419497f9722a3daafe3b4186f6b6457e060405160405180910390a35050565b620001c46200022860201b60201c565b60015f60146101000a81548160ff0219169083151502179055507f62e78cea01bee320cd4e420270b5ea74000d11b0c9f74754ebdbfc544b05a2586200020f6200027d60201b60201c565b6040516200021e91906200033f565b60405180910390a1565b620002386200028460201b60201c565b156200027b576040517f08c379a00000000000000000000000000000000000000000000000000000000081526004016200027290620003b8565b60405180910390fd5b565b5f33905090565b5f8060149054906101000a900460ff16905090565b5f80fd5b5f73ffffffffffffffffffffffffffffffffffffffff82169050919050565b5f620002c8826200029d565b9050919050565b620002da81620002bc565b8114620002e5575f80fd5b50565b5f81519050620002f881620002cf565b92915050565b5f6020828403121562000316576200031562000299565b5b5f6200032584828501620002e8565b91505092915050565b6200033981620002bc565b82525050565b5f602082019050620003545f8301846200032e565b92915050565b5f82825260208201905092915050565b7f5061757361626c653a20706175736564000000000000000000000000000000005f82015250565b5f620003a06010836200035a565b9150620003ad826200036a565b602082019050919050565b5f6020820190508181035f830152620003d18162000392565b9050919050565b6129e680620003e65f395ff3fe608060405234801561000f575f80fd5b5060043610610108575f3560e01c80635c975abb116100a05780638cb0a5111161006f5780638cb0a511146102965780638da5cb5b146102c6578063ad324cce146102e4578063f2fde38b14610300578063f8548e361461031c57610108565b80635c975abb14610246578063715018a6146102645780638456cb591461026e57806385e3f9971461027857610108565b8063277b9efe116100dc578063277b9efe146101bb5780633f4ba83a146101d957806357a858fc146101e3578063598af9e71461021657610108565b8062fdd58e1461010c57806317ba12451461013c5780631c0f12b6146101585780631d92d3b914610188575b5f80fd5b610126600480360381019061012191906119fe565b61034c565b6040516101339190611a4b565b60405180910390f35b61015660048036038101906101519190611a64565b61036c565b005b610172600480360381019061016d9190611b15565b610674565b60405161017f9190611b93565b60405180910390f35b6101a2600480360381019061019d9190611bac565b61096b565b6040516101b29493929190611c61565b60405180910390f35b6101c3610ac5565b6040516101d09190611cc1565b60405180910390f35b6101e1610aea565b005b6101fd60048036038101906101f89190611bac565b610afc565b60405161020d9493929190611c61565b60405180910390f35b610230600480360381019061022b9190611cda565b610c40565b60405161023d9190611a4b565b60405180910390f35b61024e610c6b565b60405161025b9190611b93565b60405180910390f35b61026c610c80565b005b610276610c93565b005b610280610ca5565b60405161028d9190611a4b565b60405180910390f35b6102b060048036038101906102ab9190611d2a565b610cac565b6040516102bd9190611b93565b60405180910390f35b6102ce610e82565b6040516102db9190611cc1565b60405180910390f35b6102fe60048036038101906102f99190611d7a565b610ea9565b005b61031a60048036038101906103159190611d7a565b610f6a565b005b61033660048036038101906103319190611d2a565b610fee565b6040516103439190611b93565b60405180910390f35b6003602052815f5260405f20602052805f5260405f205f91509150505481565b60055f9054906101000a900473ffffffffffffffffffffffffffffffffffffffff1673ffffffffffffffffffffffffffffffffffffffff163373ffffffffffffffffffffffffffffffffffffffff16146103fb576040517f08c379a00000000000000000000000000000000000000000000000000000000081526004016103f290611def565b60405180910390fd5b61040361117d565b60025f8981526020019081526020015f206003015f9054906101000a900460ff1615610464576040517f08c379a000000000000000000000000000000000000000000000000000000000815260040161045b90611e57565b60405180910390fd5b60648183856104739190611ea2565b61047d9190611ea2565b11156104be576040517f08c379a00000000000000000000000000000000000000000000000000000000081526004016104b590611f1f565b60405180910390fd5b5f6104c8896111c7565b6040516020016104d8919061200b565b60405160208183030381529060405290505f6104f38a6111c7565b6040516020016105039190612081565b60405160208183030381529060405290505f60025f8c81526020019081526020015f20905082815f01908161053891906122c9565b508181600101908161054a91906122c9565b506001816003015f6101000a81548160ff021916908315150217905550620186a081600201819055505f606487620186a06105859190612398565b61058f9190612406565b90505f606487620186a06105a39190612398565b6105ad9190612406565b90505f606487620186a06105c19190612398565b6105cb9190612406565b90505f818385620186a06105df9190612436565b6105e99190612436565b6105f39190612436565b90506106008f8f86611320565b61060b8f8e85611320565b6106168f8d84611320565b6106218f8c83611320565b8e7fd21d9e01a16a8c5d426f26258ec2882c31787698aba6246e133cc3692a370b0b88888787878760405161065b96959493929190612469565b60405180910390a2505050505050505050505050505050565b5f8460025f8281526020019081526020015f206003015f9054906101000a900460ff166106d6576040517f08c379a00000000000000000000000000000000000000000000000000000000081526004016106cd90612546565b60405180910390fd5b6106de61117d565b6106e66114c0565b5f73ffffffffffffffffffffffffffffffffffffffff168473ffffffffffffffffffffffffffffffffffffffff1603610754576040517f08c379a000000000000000000000000000000000000000000000000000000000815260040161074b906125ae565b60405180910390fd5b8260035f8773ffffffffffffffffffffffffffffffffffffffff1673ffffffffffffffffffffffffffffffffffffffff1681526020019081526020015f205f8881526020019081526020015f205410156107e3576040517f08c379a00000000000000000000000000000000000000000000000000000000081526004016107da90612616565b60405180910390fd5b8260045f8773ffffffffffffffffffffffffffffffffffffffff1673ffffffffffffffffffffffffffffffffffffffff1681526020019081526020015f205f3373ffffffffffffffffffffffffffffffffffffffff1673ffffffffffffffffffffffffffffffffffffffff1681526020019081526020015f205f8881526020019081526020015f205410156108ad576040517f08c379a00000000000000000000000000000000000000000000000000000000081526004016108a49061267e565b60405180910390fd5b8260045f8773ffffffffffffffffffffffffffffffffffffffff1673ffffffffffffffffffffffffffffffffffffffff1681526020019081526020015f205f3373ffffffffffffffffffffffffffffffffffffffff1673ffffffffffffffffffffffffffffffffffffffff1681526020019081526020015f205f8881526020019081526020015f205f8282546109439190612436565b925050819055506109568686868661150f565b60019150610962611709565b50949350505050565b6060805f805f60025f8781526020019081526020015f209050805f01816001018260020154836003015f9054906101000a900460ff168380546109ad906120fc565b80601f01602080910402602001604051908101604052809291908181526020018280546109d9906120fc565b8015610a245780601f106109fb57610100808354040283529160200191610a24565b820191905f5260205f20905b815481529060010190602001808311610a0757829003601f168201915b50505050509350828054610a37906120fc565b80601f0160208091040260200160405190810160405280929190818152602001828054610a63906120fc565b8015610aae5780601f10610a8557610100808354040283529160200191610aae565b820191905f5260205f20905b815481529060010190602001808311610a9157829003601f168201915b505050505092509450945094509450509193509193565b60055f9054906101000a900473ffffffffffffffffffffffffffffffffffffffff1681565b610af2611712565b610afa611799565b565b6002602052805f5260405f205f91509050805f018054610b1b906120fc565b80601f0160208091040260200160405190810160405280929190818152602001828054610b47906120fc565b8015610b925780601f10610b6957610100808354040283529160200191610b92565b820191905f5260205f20905b815481529060010190602001808311610b7557829003601f168201915b505050505090806001018054610ba7906120fc565b80601f0160208091040260200160405190810160405280929190818152602001828054610bd3906120fc565b8015610c1e5780601f10610bf557610100808354040283529160200191610c1e565b820191905f5260205f20905b815481529060010190602001808311610c0157829003601f168201915b505050505090806002015490806003015f9054906101000a900460ff16905084565b6004602052825f5260405f20602052815f5260405f20602052805f5260405f205f9250925050505481565b5f8060149054906101000a900460ff16905090565b610c88611712565b610c915f6117fa565b565b610c9b611712565b610ca36118bb565b565b620186a081565b5f8360025f8281526020019081526020015f206003015f9054906101000a900460ff16610d0e576040517f08c379a0000000000000000000000000000000000000000000000000000000008152600401610d0590612546565b60405180910390fd5b610d1661117d565b5f73ffffffffffffffffffffffffffffffffffffffff168473ffffffffffffffffffffffffffffffffffffffff1603610d84576040517f08c379a0000000000000000000000000000000000000000000000000000000008152600401610d7b906126e6565b60405180910390fd5b8260045f3373ffffffffffffffffffffffffffffffffffffffff1673ffffffffffffffffffffffffffffffffffffffff1681526020019081526020015f205f8673ffffffffffffffffffffffffffffffffffffffff1673ffffffffffffffffffffffffffffffffffffffff1681526020019081526020015f205f8781526020019081526020015f20819055508373ffffffffffffffffffffffffffffffffffffffff163373ffffffffffffffffffffffffffffffffffffffff16867f69e4aaf23f9318cf40839ac20453d8fbedaac2955eb08a27ae5189cc7192571686604051610e6e9190611a4b565b60405180910390a460019150509392505050565b5f805f9054906101000a900473ffffffffffffffffffffffffffffffffffffffff16905090565b610eb1611712565b5f73ffffffffffffffffffffffffffffffffffffffff168173ffffffffffffffffffffffffffffffffffffffff1603610f1f576040517f08c379a0000000000000000000000000000000000000000000000000000000008152600401610f169061274e565b60405180910390fd5b8060055f6101000a81548173ffffffffffffffffffffffffffffffffffffffff021916908373ffffffffffffffffffffffffffffffffffffffff160217905550610f67611799565b50565b610f72611712565b5f73ffffffffffffffffffffffffffffffffffffffff168173ffffffffffffffffffffffffffffffffffffffff1603610fe2575f6040517f1e4fbdf7000000000000000000000000000000000000000000000000000000008152600401610fd99190611cc1565b60405180910390fd5b610feb816117fa565b50565b5f8360025f8281526020019081526020015f206003015f9054906101000a900460ff16611050576040517f08c379a000000000000000000000000000000000000000000000000000000000815260040161104790612546565b60405180910390fd5b61105861117d565b6110606114c0565b5f73ffffffffffffffffffffffffffffffffffffffff168473ffffffffffffffffffffffffffffffffffffffff16036110ce576040517f08c379a00000000000000000000000000000000000000000000000000000000081526004016110c5906125ae565b60405180910390fd5b8260035f3373ffffffffffffffffffffffffffffffffffffffff1673ffffffffffffffffffffffffffffffffffffffff1681526020019081526020015f205f8781526020019081526020015f2054101561115d576040517f08c379a000000000000000000000000000000000000000000000000000000000815260040161115490612616565b60405180910390fd5b6111698533868661150f565b60019150611175611709565b509392505050565b611185610c6b565b156111c5576040517f08c379a00000000000000000000000000000000000000000000000000000000081526004016111bc906127b6565b60405180910390fd5b565b60605f820361120d576040518060400160405280600181526020017f3000000000000000000000000000000000000000000000000000000000000000815250905061131b565b5f8290505f5b5f821461123c578080611225906127d4565b915050600a826112359190612406565b9150611213565b5f8167ffffffffffffffff811115611257576112566120a2565b5b6040519080825280601f01601f1916602001820160405280156112895781602001600182028036833780820191505090505b5090505b5f8514611314576001826112a19190612436565b9150600a856112b0919061281b565b60306112bc9190611ea2565b60f81b8183815181106112d2576112d161284b565b5b60200101907effffffffffffffffffffffffffffffffffffffffffffffffffffffffffffff191690815f1a905350600a8561130d9190612406565b945061128d565b8093505050505b919050565b5f73ffffffffffffffffffffffffffffffffffffffff168273ffffffffffffffffffffffffffffffffffffffff160361138e576040517f08c379a0000000000000000000000000000000000000000000000000000000008152600401611385906128c2565b60405180910390fd5b8060035f8473ffffffffffffffffffffffffffffffffffffffff1673ffffffffffffffffffffffffffffffffffffffff1681526020019081526020015f205f8581526020019081526020015f205f8282546113e99190611ea2565b925050819055508060025f8581526020019081526020015f206004015f8473ffffffffffffffffffffffffffffffffffffffff1673ffffffffffffffffffffffffffffffffffffffff1681526020019081526020015f205f82825461144e9190611ea2565b925050819055508173ffffffffffffffffffffffffffffffffffffffff165f73ffffffffffffffffffffffffffffffffffffffff16847ff2dbd98d79f00f7aff338b824931d607bfcc63d47307162470f25a055102d3b0846040516114b39190611a4b565b60405180910390a4505050565b600260015403611505576040517f08c379a00000000000000000000000000000000000000000000000000000000081526004016114fc9061292a565b60405180910390fd5b6002600181905550565b8060035f8573ffffffffffffffffffffffffffffffffffffffff1673ffffffffffffffffffffffffffffffffffffffff1681526020019081526020015f205f8681526020019081526020015f205f82825461156a9190612436565b925050819055508060035f8473ffffffffffffffffffffffffffffffffffffffff1673ffffffffffffffffffffffffffffffffffffffff1681526020019081526020015f205f8681526020019081526020015f205f8282546115cc9190611ea2565b925050819055508060025f8681526020019081526020015f206004015f8573ffffffffffffffffffffffffffffffffffffffff1673ffffffffffffffffffffffffffffffffffffffff1681526020019081526020015f205f8282546116319190612436565b925050819055508060025f8681526020019081526020015f206004015f8473ffffffffffffffffffffffffffffffffffffffff1673ffffffffffffffffffffffffffffffffffffffff1681526020019081526020015f205f8282546116969190611ea2565b925050819055508173ffffffffffffffffffffffffffffffffffffffff168373ffffffffffffffffffffffffffffffffffffffff16857ff2dbd98d79f00f7aff338b824931d607bfcc63d47307162470f25a055102d3b0846040516116fb9190611a4b565b60405180910390a450505050565b60018081905550565b61171a61191d565b73ffffffffffffffffffffffffffffffffffffffff16611738610e82565b73ffffffffffffffffffffffffffffffffffffffff16146117975761175b61191d565b6040517f118cdaa700000000000000000000000000000000000000000000000000000000815260040161178e9190611cc1565b60405180910390fd5b565b6117a1611924565b5f8060146101000a81548160ff0219169083151502179055507f5db9ee0a495bf2e6ff9c91a7834c1ba4fdd244a5e8aa4e537bd38aeae4b073aa6117e361191d565b6040516117f09190611cc1565b60405180910390a1565b5f805f9054906101000a900473ffffffffffffffffffffffffffffffffffffffff169050815f806101000a81548173ffffffffffffffffffffffffffffffffffffffff021916908373ffffffffffffffffffffffffffffffffffffffff1602179055508173ffffffffffffffffffffffffffffffffffffffff168173ffffffffffffffffffffffffffffffffffffffff167f8be0079c531659141344cd1fd0a4f28419497f9722a3daafe3b4186f6b6457e060405160405180910390a35050565b6118c361117d565b60015f60146101000a81548160ff0219169083151502179055507f62e78cea01bee320cd4e420270b5ea74000d11b0c9f74754ebdbfc544b05a25861190661191d565b6040516119139190611cc1565b60405180910390a1565b5f33905090565b61192c610c6b565b61196b576040517f08c379a000000000000000000000000000000000000000000000000000000000815260040161196290612992565b60405180910390fd5b565b5f80fd5b5f73ffffffffffffffffffffffffffffffffffffffff82169050919050565b5f61199a82611971565b9050919050565b6119aa81611990565b81146119b4575f80fd5b50565b5f813590506119c5816119a1565b92915050565b5f819050919050565b6119dd816119cb565b81146119e7575f80fd5b50565b5f813590506119f8816119d4565b92915050565b5f8060408385031215611a1457611a1361196d565b5b5f611a21858286016119b7565b9250506020611a32858286016119ea565b9150509250929050565b611a45816119cb565b82525050565b5f602082019050611a5e5f830184611a3c565b92915050565b5f805f805f805f80610100898b031215611a8157611a8061196d565b5b5f611a8e8b828c016119ea565b9850506020611a9f8b828c016119b7565b9750506040611ab08b828c016119b7565b9650506060611ac18b828c016119b7565b9550506080611ad28b828c016119b7565b94505060a0611ae38b828c016119ea565b93505060c0611af48b828c016119ea565b92505060e0611b058b828c016119ea565b9150509295985092959890939650565b5f805f8060808587031215611b2d57611b2c61196d565b5b5f611b3a878288016119ea565b9450506020611b4b878288016119b7565b9350506040611b5c878288016119b7565b9250506060611b6d878288016119ea565b91505092959194509250565b5f8115159050919050565b611b8d81611b79565b82525050565b5f602082019050611ba65f830184611b84565b92915050565b5f60208284031215611bc157611bc061196d565b5b5f611bce848285016119ea565b91505092915050565b5f81519050919050565b5f82825260208201905092915050565b5f5b83811015611c0e578082015181840152602081019050611bf3565b5f8484015250505050565b5f601f19601f8301169050919050565b5f611c3382611bd7565b611c3d8185611be1565b9350611c4d818560208601611bf1565b611c5681611c19565b840191505092915050565b5f6080820190508181035f830152611c798187611c29565b90508181036020830152611c8d8186611c29565b9050611c9c6040830185611a3c565b611ca96060830184611b84565b95945050505050565b611cbb81611990565b82525050565b5f602082019050611cd45f830184611cb2565b92915050565b5f805f60608486031215611cf157611cf061196d565b5b5f611cfe868287016119b7565b9350506020611d0f868287016119b7565b9250506040611d20868287016119ea565b9150509250925092565b5f805f60608486031215611d4157611d4061196d565b5b5f611d4e868287016119ea565b9350506020611d5f868287016119b7565b9250506040611d70868287016119ea565b9150509250925092565b5f60208284031215611d8f57611d8e61196d565b5b5f611d9c848285016119b7565b91505092915050565b7f4f6e6c79205061696e74696e674e465420636f6e7472616374000000000000005f82015250565b5f611dd9601983611be1565b9150611de482611da5565b602082019050919050565b5f6020820190508181035f830152611e0681611dcd565b9050919050565b7f53686172657320616c72656164792065786973740000000000000000000000005f82015250565b5f611e41601483611be1565b9150611e4c82611e0d565b602082019050919050565b5f6020820190508181035f830152611e6e81611e35565b9050919050565b7f4e487b71000000000000000000000000000000000000000000000000000000005f52601160045260245ffd5b5f611eac826119cb565b9150611eb7836119cb565b9250828201905080821115611ecf57611ece611e75565b5b92915050565b7f496e76616c69642070657263656e7461676573000000000000000000000000005f82015250565b5f611f09601383611be1565b9150611f1482611ed5565b602082019050919050565b5f6020820190508181035f830152611f3681611efd565b9050919050565b5f81905092915050565b7f5061696e74696e672000000000000000000000000000000000000000000000005f82015250565b5f611f7b600983611f3d565b9150611f8682611f47565b600982019050919050565b5f611f9b82611bd7565b611fa58185611f3d565b9350611fb5818560208601611bf1565b80840191505092915050565b7f20536861726573000000000000000000000000000000000000000000000000005f82015250565b5f611ff5600783611f3d565b915061200082611fc1565b600782019050919050565b5f61201582611f6f565b91506120218284611f91565b915061202c82611fe9565b915081905092915050565b7f5041494e540000000000000000000000000000000000000000000000000000005f82015250565b5f61206b600583611f3d565b915061207682612037565b600582019050919050565b5f61208b8261205f565b91506120978284611f91565b915081905092915050565b7f4e487b71000000000000000000000000000000000000000000000000000000005f52604160045260245ffd5b7f4e487b71000000000000000000000000000000000000000000000000000000005f52602260045260245ffd5b5f600282049050600182168061211357607f821691505b602082108103612126576121256120cf565b5b50919050565b5f819050815f5260205f209050919050565b5f6020601f8301049050919050565b5f82821b905092915050565b5f600883026121887fffffffffffffffffffffffffffffffffffffffffffffffffffffffffffffffff8261214d565b612192868361214d565b95508019841693508086168417925050509392505050565b5f819050919050565b5f6121cd6121c86121c3846119cb565b6121aa565b6119cb565b9050919050565b5f819050919050565b6121e6836121b3565b6121fa6121f2826121d4565b848454612159565b825550505050565b5f90565b61220e612202565b6122198184846121dd565b505050565b5b8181101561223c576122315f82612206565b60018101905061221f565b5050565b601f821115612281576122528161212c565b61225b8461213e565b8101602085101561226a578190505b61227e6122768561213e565b83018261221e565b50505b505050565b5f82821c905092915050565b5f6122a15f1984600802612286565b1980831691505092915050565b5f6122b98383612292565b9150826002028217905092915050565b6122d282611bd7565b67ffffffffffffffff8111156122eb576122ea6120a2565b5b6122f582546120fc565b612300828285612240565b5f60209050601f831160018114612331575f841561231f578287015190505b61232985826122ae565b865550612390565b601f19841661233f8661212c565b5f5b8281101561236657848901518255600182019150602085019450602081019050612341565b86831015612383578489015161237f601f891682612292565b8355505b6001600288020188555050505b505050505050565b5f6123a2826119cb565b91506123ad836119cb565b92508282026123bb816119cb565b915082820484148315176123d2576123d1611e75565b5b5092915050565b7f4e487b71000000000000000000000000000000000000000000000000000000005f52601260045260245ffd5b5f612410826119cb565b915061241b836119cb565b92508261242b5761242a6123d9565b5b828204905092915050565b5f612440826119cb565b915061244b836119cb565b925082820390508181111561246357612462611e75565b5b92915050565b5f60c0820190508181035f8301526124818189611c29565b905081810360208301526124958188611c29565b90506124a46040830187611a3c565b6124b16060830186611a3c565b6124be6080830185611a3c565b6124cb60a0830184611a3c565b979650505050505050565b7f53686172657320646f6e277420657869737420666f722074686973207061696e5f8201527f74696e6700000000000000000000000000000000000000000000000000000000602082015250565b5f612530602483611be1565b915061253b826124d6565b604082019050919050565b5f6020820190508181035f83015261255d81612524565b9050919050565b7f5472616e7366657220746f207a65726f206164647265737300000000000000005f82015250565b5f612598601883611be1565b91506125a382612564565b602082019050919050565b5f6020820190508181035f8301526125c58161258c565b9050919050565b7f496e73756666696369656e742062616c616e63650000000000000000000000005f82015250565b5f612600601483611be1565b915061260b826125cc565b602082019050919050565b5f6020820190508181035f83015261262d816125f4565b9050919050565b7f496e73756666696369656e7420616c6c6f77616e6365000000000000000000005f82015250565b5f612668601683611be1565b915061267382612634565b602082019050919050565b5f6020820190508181035f8301526126958161265c565b9050919050565b7f417070726f766520746f207a65726f20616464726573730000000000000000005f82015250565b5f6126d0601783611be1565b91506126db8261269c565b602082019050919050565b5f6020820190508181035f8301526126fd816126c4565b9050919050565b7f496e76616c6964206164647265737300000000000000000000000000000000005f82015250565b5f612738600f83611be1565b915061274382612704565b602082019050919050565b5f6020820190508181035f8301526127658161272c565b9050919050565b7f5061757361626c653a20706175736564000000000000000000000000000000005f82015250565b5f6127a0601083611be1565b91506127ab8261276c565b602082019050919050565b5f6020820190508181035f8301526127cd81612794565b9050919050565b5f6127de826119cb565b91507fffffffffffffffffffffffffffffffffffffffffffffffffffffffffffffffff82036128105761280f611e75565b5b600182019050919050565b5f612825826119cb565b9150612830836119cb565b9250826128405761283f6123d9565b5b828206905092915050565b7f4e487b71000000000000000000000000000000000000000000000000000000005f52603260045260245ffd5b7f4d696e7420746f207a65726f20616464726573730000000000000000000000005f82015250565b5f6128ac601483611be1565b91506128b782612878565b602082019050919050565b5f6020820190508181035f8301526128d9816128a0565b9050919050565b7f5265656e7472616e637947756172643a207265656e7472616e742063616c6c005f82015250565b5f612914601f83611be1565b915061291f826128e0565b602082019050919050565b5f6020820190508181035f83015261294181612908565b9050919050565b7f5061757361626c653a206e6f74207061757365640000000000000000000000005f82015250565b5f61297c601483611be1565b915061298782612948565b602082019050919050565b5f6020820190508181035f8301526129a981612970565b905091905056fea2646970667358221220e95c4d0434714cb8e98cd6cdf5968a867215c2f8c7dc4b9d618c368b10d7009e64736f6c63430008140033",
					"opcodes": "PUSH1 0x80 PUSH1 0x40 MSTORE CALLVALUE DUP1 ISZERO PUSH3 0x10 JUMPI PUSH0 DUP1 REVERT JUMPDEST POP PUSH1 0x40 MLOAD PUSH3 0x2DCC CODESIZE SUB DUP1 PUSH3 0x2DCC DUP4 CODECOPY DUP2 DUP2 ADD PUSH1 0x40 MSTORE DUP2 ADD SWAP1 PUSH3 0x36 SWAP2 SWAP1 PUSH3 0x2FE JUMP JUMPDEST DUP1 PUSH0 PUSH20 0xFFFFFFFFFFFFFFFFFFFFFFFFFFFFFFFFFFFFFFFF AND DUP2 PUSH20 0xFFFFFFFFFFFFFFFFFFFFFFFFFFFFFFFFFFFFFFFF AND SUB PUSH3 0xAA JUMPI PUSH0 PUSH1 0x40 MLOAD PUSH32 0x1E4FBDF700000000000000000000000000000000000000000000000000000000 DUP2 MSTORE PUSH1 0x4 ADD PUSH3 0xA1 SWAP2 SWAP1 PUSH3 0x33F JUMP JUMPDEST PUSH1 0x40 MLOAD DUP1 SWAP2 SUB SWAP1 REVERT JUMPDEST PUSH3 0xBB DUP2 PUSH3 0xF3 PUSH1 0x20 SHL PUSH1 0x20 SHR JUMP JUMPDEST POP PUSH0 DUP1 PUSH1 0x14 PUSH2 0x100 EXP DUP2 SLOAD DUP2 PUSH1 0xFF MUL NOT AND SWAP1 DUP4 ISZERO ISZERO MUL OR SWAP1 SSTORE POP PUSH1 0x1 DUP1 DUP2 SWAP1 SSTORE POP PUSH3 0xEC PUSH3 0x1B4 PUSH1 0x20 SHL PUSH1 0x20 SHR JUMP JUMPDEST POP PUSH3 0x3D8 JUMP JUMPDEST PUSH0 DUP1 PUSH0 SWAP1 SLOAD SWAP1 PUSH2 0x100 EXP SWAP1 DIV PUSH20 0xFFFFFFFFFFFFFFFFFFFFFFFFFFFFFFFFFFFFFFFF AND SWAP1 POP DUP2 PUSH0 DUP1 PUSH2 0x100 EXP DUP2 SLOAD DUP2 PUSH20 0xFFFFFFFFFFFFFFFFFFFFFFFFFFFFFFFFFFFFFFFF MUL NOT AND SWAP1 DUP4 PUSH20 0xFFFFFFFFFFFFFFFFFFFFFFFFFFFFFFFFFFFFFFFF AND MUL OR SWAP1 SSTORE POP DUP2 PUSH20 0xFFFFFFFFFFFFFFFFFFFFFFFFFFFFFFFFFFFFFFFF AND DUP2 PUSH20 0xFFFFFFFFFFFFFFFFFFFFFFFFFFFFFFFFFFFFFFFF AND PUSH32 0x8BE0079C531659141344CD1FD0A4F28419497F9722A3DAAFE3B4186F6B6457E0 PUSH1 0x40 MLOAD PUSH1 0x40 MLOAD DUP1 SWAP2 SUB SWAP1 LOG3 POP POP JUMP JUMPDEST PUSH3 0x1C4 PUSH3 0x228 PUSH1 0x20 SHL PUSH1 0x20 SHR JUMP JUMPDEST PUSH1 0x1 PUSH0 PUSH1 0x14 PUSH2 0x100 EXP DUP2 SLOAD DUP2 PUSH1 0xFF MUL NOT AND SWAP1 DUP4 ISZERO ISZERO MUL OR SWAP1 SSTORE POP PUSH32 0x62E78CEA01BEE320CD4E420270B5EA74000D11B0C9F74754EBDBFC544B05A258 PUSH3 0x20F PUSH3 0x27D PUSH1 0x20 SHL PUSH1 0x20 SHR JUMP JUMPDEST PUSH1 0x40 MLOAD PUSH3 0x21E SWAP2 SWAP1 PUSH3 0x33F JUMP JUMPDEST PUSH1 0x40 MLOAD DUP1 SWAP2 SUB SWAP1 LOG1 JUMP JUMPDEST PUSH3 0x238 PUSH3 0x284 PUSH1 0x20 SHL PUSH1 0x20 SHR JUMP JUMPDEST ISZERO PUSH3 0x27B JUMPI PUSH1 0x40 MLOAD PUSH32 0x8C379A000000000000000000000000000000000000000000000000000000000 DUP2 MSTORE PUSH1 0x4 ADD PUSH3 0x272 SWAP1 PUSH3 0x3B8 JUMP JUMPDEST PUSH1 0x40 MLOAD DUP1 SWAP2 SUB SWAP1 REVERT JUMPDEST JUMP JUMPDEST PUSH0 CALLER SWAP1 POP SWAP1 JUMP JUMPDEST PUSH0 DUP1 PUSH1 0x14 SWAP1 SLOAD SWAP1 PUSH2 0x100 EXP SWAP1 DIV PUSH1 0xFF AND SWAP1 POP SWAP1 JUMP JUMPDEST PUSH0 DUP1 REVERT JUMPDEST PUSH0 PUSH20 0xFFFFFFFFFFFFFFFFFFFFFFFFFFFFFFFFFFFFFFFF DUP3 AND SWAP1 POP SWAP2 SWAP1 POP JUMP JUMPDEST PUSH0 PUSH3 0x2C8 DUP3 PUSH3 0x29D JUMP JUMPDEST SWAP1 POP SWAP2 SWAP1 POP JUMP JUMPDEST PUSH3 0x2DA DUP2 PUSH3 0x2BC JUMP JUMPDEST DUP2 EQ PUSH3 0x2E5 JUMPI PUSH0 DUP1 REVERT JUMPDEST POP JUMP JUMPDEST PUSH0 DUP2 MLOAD SWAP1 POP PUSH3 0x2F8 DUP2 PUSH3 0x2CF JUMP JUMPDEST SWAP3 SWAP2 POP POP JUMP JUMPDEST PUSH0 PUSH1 0x20 DUP3 DUP5 SUB SLT ISZERO PUSH3 0x316 JUMPI PUSH3 0x315 PUSH3 0x299 JUMP JUMPDEST JUMPDEST PUSH0 PUSH3 0x325 DUP5 DUP3 DUP6 ADD PUSH3 0x2E8 JUMP JUMPDEST SWAP2 POP POP SWAP3 SWAP2 POP POP JUMP JUMPDEST PUSH3 0x339 DUP2 PUSH3 0x2BC JUMP JUMPDEST DUP3 MSTORE POP POP JUMP JUMPDEST PUSH0 PUSH1 0x20 DUP3 ADD SWAP1 POP PUSH3 0x354 PUSH0 DUP4 ADD DUP5 PUSH3 0x32E JUMP JUMPDEST SWAP3 SWAP2 POP POP JUMP JUMPDEST PUSH0 DUP3 DUP3 MSTORE PUSH1 0x20 DUP3 ADD SWAP1 POP SWAP3 SWAP2 POP POP JUMP JUMPDEST PUSH32 0x5061757361626C653A2070617573656400000000000000000000000000000000 PUSH0 DUP3 ADD MSTORE POP JUMP JUMPDEST PUSH0 PUSH3 0x3A0 PUSH1 0x10 DUP4 PUSH3 0x35A JUMP JUMPDEST SWAP2 POP PUSH3 0x3AD DUP3 PUSH3 0x36A JUMP JUMPDEST PUSH1 0x20 DUP3 ADD SWAP1 POP SWAP2 SWAP1 POP JUMP JUMPDEST PUSH0 PUSH1 0x20 DUP3 ADD SWAP1 POP DUP2 DUP2 SUB PUSH0 DUP4 ADD MSTORE PUSH3 0x3D1 DUP2 PUSH3 0x392 JUMP JUMPDEST SWAP1 POP SWAP2 SWAP1 POP JUMP JUMPDEST PUSH2 0x29E6 DUP1 PUSH3 0x3E6 PUSH0 CODECOPY PUSH0 RETURN INVALID PUSH1 0x80 PUSH1 0x40 MSTORE CALLVALUE DUP1 ISZERO PUSH2 0xF JUMPI PUSH0 DUP1 REVERT JUMPDEST POP PUSH1 0x4 CALLDATASIZE LT PUSH2 0x108 JUMPI PUSH0 CALLDATALOAD PUSH1 0xE0 SHR DUP1 PUSH4 0x5C975ABB GT PUSH2 0xA0 JUMPI DUP1 PUSH4 0x8CB0A511 GT PUSH2 0x6F JUMPI DUP1 PUSH4 0x8CB0A511 EQ PUSH2 0x296 JUMPI DUP1 PUSH4 0x8DA5CB5B EQ PUSH2 0x2C6 JUMPI DUP1 PUSH4 0xAD324CCE EQ PUSH2 0x2E4 JUMPI DUP1 PUSH4 0xF2FDE38B EQ PUSH2 0x300 JUMPI DUP1 PUSH4 0xF8548E36 EQ PUSH2 0x31C JUMPI PUSH2 0x108 JUMP JUMPDEST DUP1 PUSH4 0x5C975ABB EQ PUSH2 0x246 JUMPI DUP1 PUSH4 0x715018A6 EQ PUSH2 0x264 JUMPI DUP1 PUSH4 0x8456CB59 EQ PUSH2 0x26E JUMPI DUP1 PUSH4 0x85E3F997 EQ PUSH2 0x278 JUMPI PUSH2 0x108 JUMP JUMPDEST DUP1 PUSH4 0x277B9EFE GT PUSH2 0xDC JUMPI DUP1 PUSH4 0x277B9EFE EQ PUSH2 0x1BB JUMPI DUP1 PUSH4 0x3F4BA83A EQ PUSH2 0x1D9 JUMPI DUP1 PUSH4 0x57A858FC EQ PUSH2 0x1E3 JUMPI DUP1 PUSH4 0x598AF9E7 EQ PUSH2 0x216 JUMPI PUSH2 0x108 JUMP JUMPDEST DUP1 PUSH3 0xFDD58E EQ PUSH2 0x10C JUMPI DUP1 PUSH4 0x17BA1245 EQ PUSH2 0x13C JUMPI DUP1 PUSH4 0x1C0F12B6 EQ PUSH2 0x158 JUMPI DUP1 PUSH4 0x1D92D3B9 EQ PUSH2 0x188 JUMPI JUMPDEST PUSH0 DUP1 REVERT JUMPDEST PUSH2 0x126 PUSH1 0x4 DUP1 CALLDATASIZE SUB DUP2 ADD SWAP1 PUSH2 0x121 SWAP2 SWAP1 PUSH2 0x19FE JUMP JUMPDEST PUSH2 0x34C JUMP JUMPDEST PUSH1 0x40 MLOAD PUSH2 0x133 SWAP2 SWAP1 PUSH2 0x1A4B JUMP JUMPDEST PUSH1 0x40 MLOAD DUP1 SWAP2 SUB SWAP1 RETURN JUMPDEST PUSH2 0x156 PUSH1 0x4 DUP1 CALLDATASIZE SUB DUP2 ADD SWAP1 PUSH2 0x151 SWAP2 SWAP1 PUSH2 0x1A64 JUMP JUMPDEST PUSH2 0x36C JUMP JUMPDEST STOP JUMPDEST PUSH2 0x172 PUSH1 0x4 DUP1 CALLDATASIZE SUB DUP2 ADD SWAP1 PUSH2 0x16D SWAP2 SWAP1 PUSH2 0x1B15 JUMP JUMPDEST PUSH2 0x674 JUMP JUMPDEST PUSH1 0x40 MLOAD PUSH2 0x17F SWAP2 SWAP1 PUSH2 0x1B93 JUMP JUMPDEST PUSH1 0x40 MLOAD DUP1 SWAP2 SUB SWAP1 RETURN JUMPDEST PUSH2 0x1A2 PUSH1 0x4 DUP1 CALLDATASIZE SUB DUP2 ADD SWAP1 PUSH2 0x19D SWAP2 SWAP1 PUSH2 0x1BAC JUMP JUMPDEST PUSH2 0x96B JUMP JUMPDEST PUSH1 0x40 MLOAD PUSH2 0x1B2 SWAP5 SWAP4 SWAP3 SWAP2 SWAP1 PUSH2 0x1C61 JUMP JUMPDEST PUSH1 0x40 MLOAD DUP1 SWAP2 SUB SWAP1 RETURN JUMPDEST PUSH2 0x1C3 PUSH2 0xAC5 JUMP JUMPDEST PUSH1 0x40 MLOAD PUSH2 0x1D0 SWAP2 SWAP1 PUSH2 0x1CC1 JUMP JUMPDEST PUSH1 0x40 MLOAD DUP1 SWAP2 SUB SWAP1 RETURN JUMPDEST PUSH2 0x1E1 PUSH2 0xAEA JUMP JUMPDEST STOP JUMPDEST PUSH2 0x1FD PUSH1 0x4 DUP1 CALLDATASIZE SUB DUP2 ADD SWAP1 PUSH2 0x1F8 SWAP2 SWAP1 PUSH2 0x1BAC JUMP JUMPDEST PUSH2 0xAFC JUMP JUMPDEST PUSH1 0x40 MLOAD PUSH2 0x20D SWAP5 SWAP4 SWAP3 SWAP2 SWAP1 PUSH2 0x1C61 JUMP JUMPDEST PUSH1 0x40 MLOAD DUP1 SWAP2 SUB SWAP1 RETURN JUMPDEST PUSH2 0x230 PUSH1 0x4 DUP1 CALLDATASIZE SUB DUP2 ADD SWAP1 PUSH2 0x22B SWAP2 SWAP1 PUSH2 0x1CDA JUMP JUMPDEST PUSH2 0xC40 JUMP JUMPDEST PUSH1 0x40 MLOAD PUSH2 0x23D SWAP2 SWAP1 PUSH2 0x1A4B JUMP JUMPDEST PUSH1 0x40 MLOAD DUP1 SWAP2 SUB SWAP1 RETURN JUMPDEST PUSH2 0x24E PUSH2 0xC6B JUMP JUMPDEST PUSH1 0x40 MLOAD PUSH2 0x25B SWAP2 SWAP1 PUSH2 0x1B93 JUMP JUMPDEST PUSH1 0x40 MLOAD DUP1 SWAP2 SUB SWAP1 RETURN JUMPDEST PUSH2 0x26C PUSH2 0xC80 JUMP JUMPDEST STOP JUMPDEST PUSH2 0x276 PUSH2 0xC93 JUMP JUMPDEST STOP JUMPDEST PUSH2 0x280 PUSH2 0xCA5 JUMP JUMPDEST PUSH1 0x40 MLOAD PUSH2 0x28D SWAP2 SWAP1 PUSH2 0x1A4B JUMP JUMPDEST PUSH1 0x40 MLOAD DUP1 SWAP2 SUB SWAP1 RETURN JUMPDEST PUSH2 0x2B0 PUSH1 0x4 DUP1 CALLDATASIZE SUB DUP2 ADD SWAP1 PUSH2 0x2AB SWAP2 SWAP1 PUSH2 0x1D2A JUMP JUMPDEST PUSH2 0xCAC JUMP JUMPDEST PUSH1 0x40 MLOAD PUSH2 0x2BD SWAP2 SWAP1 PUSH2 0x1B93 JUMP JUMPDEST PUSH1 0x40 MLOAD DUP1 SWAP2 SUB SWAP1 RETURN JUMPDEST PUSH2 0x2CE PUSH2 0xE82 JUMP JUMPDEST PUSH1 0x40 MLOAD PUSH2 0x2DB SWAP2 SWAP1 PUSH2 0x1CC1 JUMP JUMPDEST PUSH1 0x40 MLOAD DUP1 SWAP2 SUB SWAP1 RETURN JUMPDEST PUSH2 0x2FE PUSH1 0x4 DUP1 CALLDATASIZE SUB DUP2 ADD SWAP1 PUSH2 0x2F9 SWAP2 SWAP1 PUSH2 0x1D7A JUMP JUMPDEST PUSH2 0xEA9 JUMP JUMPDEST STOP JUMPDEST PUSH2 0x31A PUSH1 0x4 DUP1 CALLDATASIZE SUB DUP2 ADD SWAP1 PUSH2 0x315 SWAP2 SWAP1 PUSH2 0x1D7A JUMP JUMPDEST PUSH2 0xF6A JUMP JUMPDEST STOP JUMPDEST PUSH2 0x336 PUSH1 0x4 DUP1 CALLDATASIZE SUB DUP2 ADD SWAP1 PUSH2 0x331 SWAP2 SWAP1 PUSH2 0x1D2A JUMP JUMPDEST PUSH2 0xFEE JUMP JUMPDEST PUSH1 0x40 MLOAD PUSH2 0x343 SWAP2 SWAP1 PUSH2 0x1B93 JUMP JUMPDEST PUSH1 0x40 MLOAD DUP1 SWAP2 SUB SWAP1 RETURN JUMPDEST PUSH1 0x3 PUSH1 0x20 MSTORE DUP2 PUSH0 MSTORE PUSH1 0x40 PUSH0 KECCAK256 PUSH1 0x20 MSTORE DUP1 PUSH0 MSTORE PUSH1 0x40 PUSH0 KECCAK256 PUSH0 SWAP2 POP SWAP2 POP POP SLOAD DUP2 JUMP JUMPDEST PUSH1 0x5 PUSH0 SWAP1 SLOAD SWAP1 PUSH2 0x100 EXP SWAP1 DIV PUSH20 0xFFFFFFFFFFFFFFFFFFFFFFFFFFFFFFFFFFFFFFFF AND PUSH20 0xFFFFFFFFFFFFFFFFFFFFFFFFFFFFFFFFFFFFFFFF AND CALLER PUSH20 0xFFFFFFFFFFFFFFFFFFFFFFFFFFFFFFFFFFFFFFFF AND EQ PUSH2 0x3FB JUMPI PUSH1 0x40 MLOAD PUSH32 0x8C379A000000000000000000000000000000000000000000000000000000000 DUP2 MSTORE PUSH1 0x4 ADD PUSH2 0x3F2 SWAP1 PUSH2 0x1DEF JUMP JUMPDEST PUSH1 0x40 MLOAD DUP1 SWAP2 SUB SWAP1 REVERT JUMPDEST PUSH2 0x403 PUSH2 0x117D JUMP JUMPDEST PUSH1 0x2 PUSH0 DUP10 DUP2 MSTORE PUSH1 0x20 ADD SWAP1 DUP2 MSTORE PUSH1 0x20 ADD PUSH0 KECCAK256 PUSH1 0x3 ADD PUSH0 SWAP1 SLOAD SWAP1 PUSH2 0x100 EXP SWAP1 DIV PUSH1 0xFF AND ISZERO PUSH2 0x464 JUMPI PUSH1 0x40 MLOAD PUSH32 0x8C379A000000000000000000000000000000000000000000000000000000000 DUP2 MSTORE PUSH1 0x4 ADD PUSH2 0x45B SWAP1 PUSH2 0x1E57 JUMP JUMPDEST PUSH1 0x40 MLOAD DUP1 SWAP2 SUB SWAP1 REVERT JUMPDEST PUSH1 0x64 DUP2 DUP4 DUP6 PUSH2 0x473 SWAP2 SWAP1 PUSH2 0x1EA2 JUMP JUMPDEST PUSH2 0x47D SWAP2 SWAP1 PUSH2 0x1EA2 JUMP JUMPDEST GT ISZERO PUSH2 0x4BE JUMPI PUSH1 0x40 MLOAD PUSH32 0x8C379A000000000000000000000000000000000000000000000000000000000 DUP2 MSTORE PUSH1 0x4 ADD PUSH2 0x4B5 SWAP1 PUSH2 0x1F1F JUMP JUMPDEST PUSH1 0x40 MLOAD DUP1 SWAP2 SUB SWAP1 REVERT JUMPDEST PUSH0 PUSH2 0x4C8 DUP10 PUSH2 0x11C7 JUMP JUMPDEST PUSH1 0x40 MLOAD PUSH1 0x20 ADD PUSH2 0x4D8 SWAP2 SWAP1 PUSH2 0x200B JUMP JUMPDEST PUSH1 0x40 MLOAD PUSH1 0x20 DUP2 DUP4 SUB SUB DUP2 MSTORE SWAP1 PUSH1 0x40 MSTORE SWAP1 POP PUSH0 PUSH2 0x4F3 DUP11 PUSH2 0x11C7 JUMP JUMPDEST PUSH1 0x40 MLOAD PUSH1 0x20 ADD PUSH2 0x503 SWAP2 SWAP1 PUSH2 0x2081 JUMP JUMPDEST PUSH1 0x40 MLOAD PUSH1 0x20 DUP2 DUP4 SUB SUB DUP2 MSTORE SWAP1 PUSH1 0x40 MSTORE SWAP1 POP PUSH0 PUSH1 0x2 PUSH0 DUP13 DUP2 MSTORE PUSH1 0x20 ADD SWAP1 DUP2 MSTORE PUSH1 0x20 ADD PUSH0 KECCAK256 SWAP1 POP DUP3 DUP2 PUSH0 ADD SWAP1 DUP2 PUSH2 0x538 SWAP2 SWAP1 PUSH2 0x22C9 JUMP JUMPDEST POP DUP2 DUP2 PUSH1 0x1 ADD SWAP1 DUP2 PUSH2 0x54A SWAP2 SWAP1 PUSH2 0x22C9 JUMP JUMPDEST POP PUSH1 0x1 DUP2 PUSH1 0x3 ADD PUSH0 PUSH2 0x100 EXP DUP2 SLOAD DUP2 PUSH1 0xFF MUL NOT AND SWAP1 DUP4 ISZERO ISZERO MUL OR SWAP1 SSTORE POP PUSH3 0x186A0 DUP2 PUSH1 0x2 ADD DUP2 SWAP1 SSTORE POP PUSH0 PUSH1 0x64 DUP8 PUSH3 0x186A0 PUSH2 0x585 SWAP2 SWAP1 PUSH2 0x2398 JUMP JUMPDEST PUSH2 0x58F SWAP2 SWAP1 PUSH2 0x2406 JUMP JUMPDEST SWAP1 POP PUSH0 PUSH1 0x64 DUP8 PUSH3 0x186A0 PUSH2 0x5A3 SWAP2 SWAP1 PUSH2 0x2398 JUMP JUMPDEST PUSH2 0x5AD SWAP2 SWAP1 PUSH2 0x2406 JUMP JUMPDEST SWAP1 POP PUSH0 PUSH1 0x64 DUP8 PUSH3 0x186A0 PUSH2 0x5C1 SWAP2 SWAP1 PUSH2 0x2398 JUMP JUMPDEST PUSH2 0x5CB SWAP2 SWAP1 PUSH2 0x2406 JUMP JUMPDEST SWAP1 POP PUSH0 DUP2 DUP4 DUP6 PUSH3 0x186A0 PUSH2 0x5DF SWAP2 SWAP1 PUSH2 0x2436 JUMP JUMPDEST PUSH2 0x5E9 SWAP2 SWAP1 PUSH2 0x2436 JUMP JUMPDEST PUSH2 0x5F3 SWAP2 SWAP1 PUSH2 0x2436 JUMP JUMPDEST SWAP1 POP PUSH2 0x600 DUP16 DUP16 DUP7 PUSH2 0x1320 JUMP JUMPDEST PUSH2 0x60B DUP16 DUP15 DUP6 PUSH2 0x1320 JUMP JUMPDEST PUSH2 0x616 DUP16 DUP14 DUP5 PUSH2 0x1320 JUMP JUMPDEST PUSH2 0x621 DUP16 DUP13 DUP4 PUSH2 0x1320 JUMP JUMPDEST DUP15 PUSH32 0xD21D9E01A16A8C5D426F26258EC2882C31787698ABA6246E133CC3692A370B0B DUP9 DUP9 DUP8 DUP8 DUP8 DUP8 PUSH1 0x40 MLOAD PUSH2 0x65B SWAP7 SWAP6 SWAP5 SWAP4 SWAP3 SWAP2 SWAP1 PUSH2 0x2469 JUMP JUMPDEST PUSH1 0x40 MLOAD DUP1 SWAP2 SUB SWAP1 LOG2 POP POP POP POP POP POP POP POP POP POP POP POP POP POP POP JUMP JUMPDEST PUSH0 DUP5 PUSH1 0x2 PUSH0 DUP3 DUP2 MSTORE PUSH1 0x20 ADD SWAP1 DUP2 MSTORE PUSH1 0x20 ADD PUSH0 KECCAK256 PUSH1 0x3 ADD PUSH0 SWAP1 SLOAD SWAP1 PUSH2 0x100 EXP SWAP1 DIV PUSH1 0xFF AND PUSH2 0x6D6 JUMPI PUSH1 0x40 MLOAD PUSH32 0x8C379A000000000000000000000000000000000000000000000000000000000 DUP2 MSTORE PUSH1 0x4 ADD PUSH2 0x6CD SWAP1 PUSH2 0x2546 JUMP JUMPDEST PUSH1 0x40 MLOAD DUP1 SWAP2 SUB SWAP1 REVERT JUMPDEST PUSH2 0x6DE PUSH2 0x117D JUMP JUMPDEST PUSH2 0x6E6 PUSH2 0x14C0 JUMP JUMPDEST PUSH0 PUSH20 0xFFFFFFFFFFFFFFFFFFFFFFFFFFFFFFFFFFFFFFFF AND DUP5 PUSH20 0xFFFFFFFFFFFFFFFFFFFFFFFFFFFFFFFFFFFFFFFF AND SUB PUSH2 0x754 JUMPI PUSH1 0x40 MLOAD PUSH32 0x8C379A000000000000000000000000000000000000000000000000000000000 DUP2 MSTORE PUSH1 0x4 ADD PUSH2 0x74B SWAP1 PUSH2 0x25AE JUMP JUMPDEST PUSH1 0x40 MLOAD DUP1 SWAP2 SUB SWAP1 REVERT JUMPDEST DUP3 PUSH1 0x3 PUSH0 DUP8 PUSH20 0xFFFFFFFFFFFFFFFFFFFFFFFFFFFFFFFFFFFFFFFF AND PUSH20 0xFFFFFFFFFFFFFFFFFFFFFFFFFFFFFFFFFFFFFFFF AND DUP2 MSTORE PUSH1 0x20 ADD SWAP1 DUP2 MSTORE PUSH1 0x20 ADD PUSH0 KECCAK256 PUSH0 DUP9 DUP2 MSTORE PUSH1 0x20 ADD SWAP1 DUP2 MSTORE PUSH1 0x20 ADD PUSH0 KECCAK256 SLOAD LT ISZERO PUSH2 0x7E3 JUMPI PUSH1 0x40 MLOAD PUSH32 0x8C379A000000000000000000000000000000000000000000000000000000000 DUP2 MSTORE PUSH1 0x4 ADD PUSH2 0x7DA SWAP1 PUSH2 0x2616 JUMP JUMPDEST PUSH1 0x40 MLOAD DUP1 SWAP2 SUB SWAP1 REVERT JUMPDEST DUP3 PUSH1 0x4 PUSH0 DUP8 PUSH20 0xFFFFFFFFFFFFFFFFFFFFFFFFFFFFFFFFFFFFFFFF AND PUSH20 0xFFFFFFFFFFFFFFFFFFFFFFFFFFFFFFFFFFFFFFFF AND DUP2 MSTORE PUSH1 0x20 ADD SWAP1 DUP2 MSTORE PUSH1 0x20 ADD PUSH0 KECCAK256 PUSH0 CALLER PUSH20 0xFFFFFFFFFFFFFFFFFFFFFFFFFFFFFFFFFFFFFFFF AND PUSH20 0xFFFFFFFFFFFFFFFFFFFFFFFFFFFFFFFFFFFFFFFF AND DUP2 MSTORE PUSH1 0x20 ADD SWAP1 DUP2 MSTORE PUSH1 0x20 ADD PUSH0 KECCAK256 PUSH0 DUP9 DUP2 MSTORE PUSH1 0x20 ADD SWAP1 DUP2 MSTORE PUSH1 0x20 ADD PUSH0 KECCAK256 SLOAD LT ISZERO PUSH2 0x8AD JUMPI PUSH1 0x40 MLOAD PUSH32 0x8C379A000000000000000000000000000000000000000000000000000000000 DUP2 MSTORE PUSH1 0x4 ADD PUSH2 0x8A4 SWAP1 PUSH2 0x267E JUMP JUMPDEST PUSH1 0x40 MLOAD DUP1 SWAP2 SUB SWAP1 REVERT JUMPDEST DUP3 PUSH1 0x4 PUSH0 DUP8 PUSH20 0xFFFFFFFFFFFFFFFFFFFFFFFFFFFFFFFFFFFFFFFF AND PUSH20 0xFFFFFFFFFFFFFFFFFFFFFFFFFFFFFFFFFFFFFFFF AND DUP2 MSTORE PUSH1 0x20 ADD SWAP1 DUP2 MSTORE PUSH1 0x20 ADD PUSH0 KECCAK256 PUSH0 CALLER PUSH20 0xFFFFFFFFFFFFFFFFFFFFFFFFFFFFFFFFFFFFFFFF AND PUSH20 0xFFFFFFFFFFFFFFFFFFFFFFFFFFFFFFFFFFFFFFFF AND DUP2 MSTORE PUSH1 0x20 ADD SWAP1 DUP2 MSTORE PUSH1 0x20 ADD PUSH0 KECCAK256 PUSH0 DUP9 DUP2 MSTORE PUSH1 0x20 ADD SWAP1 DUP2 MSTORE PUSH1 0x20 ADD PUSH0 KECCAK256 PUSH0 DUP3 DUP3 SLOAD PUSH2 0x943 SWAP2 SWAP1 PUSH2 0x2436 JUMP JUMPDEST SWAP3 POP POP DUP2 SWAP1 SSTORE POP PUSH2 0x956 DUP7 DUP7 DUP7 DUP7 PUSH2 0x150F JUMP JUMPDEST PUSH1 0x1 SWAP2 POP PUSH2 0x962 PUSH2 0x1709 JUMP JUMPDEST POP SWAP5 SWAP4 POP POP POP POP JUMP JUMPDEST PUSH1 0x60 DUP1 PUSH0 DUP1 PUSH0 PUSH1 0x2 PUSH0 DUP8 DUP2 MSTORE PUSH1 0x20 ADD SWAP1 DUP2 MSTORE PUSH1 0x20 ADD PUSH0 KECCAK256 SWAP1 POP DUP1 PUSH0 ADD DUP2 PUSH1 0x1 ADD DUP3 PUSH1 0x2 ADD SLOAD DUP4 PUSH1 0x3 ADD PUSH0 SWAP1 SLOAD SWAP1 PUSH2 0x100 EXP SWAP1 DIV PUSH1 0xFF AND DUP4 DUP1 SLOAD PUSH2 0x9AD SWAP1 PUSH2 0x20FC JUMP JUMPDEST DUP1 PUSH1 0x1F ADD PUSH1 0x20 DUP1 SWAP2 DIV MUL PUSH1 0x20 ADD PUSH1 0x40 MLOAD SWAP1 DUP2 ADD PUSH1 0x40 MSTORE DUP1 SWAP3 SWAP2 SWAP1 DUP2 DUP2 MSTORE PUSH1 0x20 ADD DUP3 DUP1 SLOAD PUSH2 0x9D9 SWAP1 PUSH2 0x20FC JUMP JUMPDEST DUP1 ISZERO PUSH2 0xA24 JUMPI DUP1 PUSH1 0x1F LT PUSH2 0x9FB JUMPI PUSH2 0x100 DUP1 DUP4 SLOAD DIV MUL DUP4 MSTORE SWAP2 PUSH1 0x20 ADD SWAP2 PUSH2 0xA24 JUMP JUMPDEST DUP3 ADD SWAP2 SWAP1 PUSH0 MSTORE PUSH1 0x20 PUSH0 KECCAK256 SWAP1 JUMPDEST DUP2 SLOAD DUP2 MSTORE SWAP1 PUSH1 0x1 ADD SWAP1 PUSH1 0x20 ADD DUP1 DUP4 GT PUSH2 0xA07 JUMPI DUP3 SWAP1 SUB PUSH1 0x1F AND DUP3 ADD SWAP2 JUMPDEST POP POP POP POP POP SWAP4 POP DUP3 DUP1 SLOAD PUSH2 0xA37 SWAP1 PUSH2 0x20FC JUMP JUMPDEST DUP1 PUSH1 0x1F ADD PUSH1 0x20 DUP1 SWAP2 DIV MUL PUSH1 0x20 ADD PUSH1 0x40 MLOAD SWAP1 DUP2 ADD PUSH1 0x40 MSTORE DUP1 SWAP3 SWAP2 SWAP1 DUP2 DUP2 MSTORE PUSH1 0x20 ADD DUP3 DUP1 SLOAD PUSH2 0xA63 SWAP1 PUSH2 0x20FC JUMP JUMPDEST DUP1 ISZERO PUSH2 0xAAE JUMPI DUP1 PUSH1 0x1F LT PUSH2 0xA85 JUMPI PUSH2 0x100 DUP1 DUP4 SLOAD DIV MUL DUP4 MSTORE SWAP2 PUSH1 0x20 ADD SWAP2 PUSH2 0xAAE JUMP JUMPDEST DUP3 ADD SWAP2 SWAP1 PUSH0 MSTORE PUSH1 0x20 PUSH0 KECCAK256 SWAP1 JUMPDEST DUP2 SLOAD DUP2 MSTORE SWAP1 PUSH1 0x1 ADD SWAP1 PUSH1 0x20 ADD DUP1 DUP4 GT PUSH2 0xA91 JUMPI DUP3 SWAP1 SUB PUSH1 0x1F AND DUP3 ADD SWAP2 JUMPDEST POP POP POP POP POP SWAP3 POP SWAP5 POP SWAP5 POP SWAP5 POP SWAP5 POP POP SWAP2 SWAP4 POP SWAP2 SWAP4 JUMP JUMPDEST PUSH1 0x5 PUSH0 SWAP1 SLOAD SWAP1 PUSH2 0x100 EXP SWAP1 DIV PUSH20 0xFFFFFFFFFFFFFFFFFFFFFFFFFFFFFFFFFFFFFFFF AND DUP2 JUMP JUMPDEST PUSH2 0xAF2 PUSH2 0x1712 JUMP JUMPDEST PUSH2 0xAFA PUSH2 0x1799 JUMP JUMPDEST JUMP JUMPDEST PUSH1 0x2 PUSH1 0x20 MSTORE DUP1 PUSH0 MSTORE PUSH1 0x40 PUSH0 KECCAK256 PUSH0 SWAP2 POP SWAP1 POP DUP1 PUSH0 ADD DUP1 SLOAD PUSH2 0xB1B SWAP1 PUSH2 0x20FC JUMP JUMPDEST DUP1 PUSH1 0x1F ADD PUSH1 0x20 DUP1 SWAP2 DIV MUL PUSH1 0x20 ADD PUSH1 0x40 MLOAD SWAP1 DUP2 ADD PUSH1 0x40 MSTORE DUP1 SWAP3 SWAP2 SWAP1 DUP2 DUP2 MSTORE PUSH1 0x20 ADD DUP3 DUP1 SLOAD PUSH2 0xB47 SWAP1 PUSH2 0x20FC JUMP JUMPDEST DUP1 ISZERO PUSH2 0xB92 JUMPI DUP1 PUSH1 0x1F LT PUSH2 0xB69 JUMPI PUSH2 0x100 DUP1 DUP4 SLOAD DIV MUL DUP4 MSTORE SWAP2 PUSH1 0x20 ADD SWAP2 PUSH2 0xB92 JUMP JUMPDEST DUP3 ADD SWAP2 SWAP1 PUSH0 MSTORE PUSH1 0x20 PUSH0 KECCAK256 SWAP1 JUMPDEST DUP2 SLOAD DUP2 MSTORE SWAP1 PUSH1 0x1 ADD SWAP1 PUSH1 0x20 ADD DUP1 DUP4 GT PUSH2 0xB75 JUMPI DUP3 SWAP1 SUB PUSH1 0x1F AND DUP3 ADD SWAP2 JUMPDEST POP POP POP POP POP SWAP1 DUP1 PUSH1 0x1 ADD DUP1 SLOAD PUSH2 0xBA7 SWAP1 PUSH2 0x20FC JUMP JUMPDEST DUP1 PUSH1 0x1F ADD PUSH1 0x20 DUP1 SWAP2 DIV MUL PUSH1 0x20 ADD PUSH1 0x40 MLOAD SWAP1 DUP2 ADD PUSH1 0x40 MSTORE DUP1 SWAP3 SWAP2 SWAP1 DUP2 DUP2 MSTORE PUSH1 0x20 ADD DUP3 DUP1 SLOAD PUSH2 0xBD3 SWAP1 PUSH2 0x20FC JUMP JUMPDEST DUP1 ISZERO PUSH2 0xC1E JUMPI DUP1 PUSH1 0x1F LT PUSH2 0xBF5 JUMPI PUSH2 0x100 DUP1 DUP4 SLOAD DIV MUL DUP4 MSTORE SWAP2 PUSH1 0x20 ADD SWAP2 PUSH2 0xC1E JUMP JUMPDEST DUP3 ADD SWAP2 SWAP1 PUSH0 MSTORE PUSH1 0x20 PUSH0 KECCAK256 SWAP1 JUMPDEST DUP2 SLOAD DUP2 MSTORE SWAP1 PUSH1 0x1 ADD SWAP1 PUSH1 0x20 ADD DUP1 DUP4 GT PUSH2 0xC01 JUMPI DUP3 SWAP1 SUB PUSH1 0x1F AND DUP3 ADD SWAP2 JUMPDEST POP POP POP POP POP SWAP1 DUP1 PUSH1 0x2 ADD SLOAD SWAP1 DUP1 PUSH1 0x3 ADD PUSH0 SWAP1 SLOAD SWAP1 PUSH2 0x100 EXP SWAP1 DIV PUSH1 0xFF AND SWAP1 POP DUP5 JUMP JUMPDEST PUSH1 0x4 PUSH1 0x20 MSTORE DUP3 PUSH0 MSTORE PUSH1 0x40 PUSH0 KECCAK256 PUSH1 0x20 MSTORE DUP2 PUSH0 MSTORE PUSH1 0x40 PUSH0 KECCAK256 PUSH1 0x20 MSTORE DUP1 PUSH0 MSTORE PUSH1 0x40 PUSH0 KECCAK256 PUSH0 SWAP3 POP SWAP3 POP POP POP SLOAD DUP2 JUMP JUMPDEST PUSH0 DUP1 PUSH1 0x14 SWAP1 SLOAD SWAP1 PUSH2 0x100 EXP SWAP1 DIV PUSH1 0xFF AND SWAP1 POP SWAP1 JUMP JUMPDEST PUSH2 0xC88 PUSH2 0x1712 JUMP JUMPDEST PUSH2 0xC91 PUSH0 PUSH2 0x17FA JUMP JUMPDEST JUMP JUMPDEST PUSH2 0xC9B PUSH2 0x1712 JUMP JUMPDEST PUSH2 0xCA3 PUSH2 0x18BB JUMP JUMPDEST JUMP JUMPDEST PUSH3 0x186A0 DUP2 JUMP JUMPDEST PUSH0 DUP4 PUSH1 0x2 PUSH0 DUP3 DUP2 MSTORE PUSH1 0x20 ADD SWAP1 DUP2 MSTORE PUSH1 0x20 ADD PUSH0 KECCAK256 PUSH1 0x3 ADD PUSH0 SWAP1 SLOAD SWAP1 PUSH2 0x100 EXP SWAP1 DIV PUSH1 0xFF AND PUSH2 0xD0E JUMPI PUSH1 0x40 MLOAD PUSH32 0x8C379A000000000000000000000000000000000000000000000000000000000 DUP2 MSTORE PUSH1 0x4 ADD PUSH2 0xD05 SWAP1 PUSH2 0x2546 JUMP JUMPDEST PUSH1 0x40 MLOAD DUP1 SWAP2 SUB SWAP1 REVERT JUMPDEST PUSH2 0xD16 PUSH2 0x117D JUMP JUMPDEST PUSH0 PUSH20 0xFFFFFFFFFFFFFFFFFFFFFFFFFFFFFFFFFFFFFFFF AND DUP5 PUSH20 0xFFFFFFFFFFFFFFFFFFFFFFFFFFFFFFFFFFFFFFFF AND SUB PUSH2 0xD84 JUMPI PUSH1 0x40 MLOAD PUSH32 0x8C379A000000000000000000000000000000000000000000000000000000000 DUP2 MSTORE PUSH1 0x4 ADD PUSH2 0xD7B SWAP1 PUSH2 0x26E6 JUMP JUMPDEST PUSH1 0x40 MLOAD DUP1 SWAP2 SUB SWAP1 REVERT JUMPDEST DUP3 PUSH1 0x4 PUSH0 CALLER PUSH20 0xFFFFFFFFFFFFFFFFFFFFFFFFFFFFFFFFFFFFFFFF AND PUSH20 0xFFFFFFFFFFFFFFFFFFFFFFFFFFFFFFFFFFFFFFFF AND DUP2 MSTORE PUSH1 0x20 ADD SWAP1 DUP2 MSTORE PUSH1 0x20 ADD PUSH0 KECCAK256 PUSH0 DUP7 PUSH20 0xFFFFFFFFFFFFFFFFFFFFFFFFFFFFFFFFFFFFFFFF AND PUSH20 0xFFFFFFFFFFFFFFFFFFFFFFFFFFFFFFFFFFFFFFFF AND DUP2 MSTORE PUSH1 0x20 ADD SWAP1 DUP2 MSTORE PUSH1 0x20 ADD PUSH0 KECCAK256 PUSH0 DUP8 DUP2 MSTORE PUSH1 0x20 ADD SWAP1 DUP2 MSTORE PUSH1 0x20 ADD PUSH0 KECCAK256 DUP2 SWAP1 SSTORE POP DUP4 PUSH20 0xFFFFFFFFFFFFFFFFFFFFFFFFFFFFFFFFFFFFFFFF AND CALLER PUSH20 0xFFFFFFFFFFFFFFFFFFFFFFFFFFFFFFFFFFFFFFFF AND DUP7 PUSH32 0x69E4AAF23F9318CF40839AC20453D8FBEDAAC2955EB08A27AE5189CC71925716 DUP7 PUSH1 0x40 MLOAD PUSH2 0xE6E SWAP2 SWAP1 PUSH2 0x1A4B JUMP JUMPDEST PUSH1 0x40 MLOAD DUP1 SWAP2 SUB SWAP1 LOG4 PUSH1 0x1 SWAP2 POP POP SWAP4 SWAP3 POP POP POP JUMP JUMPDEST PUSH0 DUP1 PUSH0 SWAP1 SLOAD SWAP1 PUSH2 0x100 EXP SWAP1 DIV PUSH20 0xFFFFFFFFFFFFFFFFFFFFFFFFFFFFFFFFFFFFFFFF AND SWAP1 POP SWAP1 JUMP JUMPDEST PUSH2 0xEB1 PUSH2 0x1712 JUMP JUMPDEST PUSH0 PUSH20 0xFFFFFFFFFFFFFFFFFFFFFFFFFFFFFFFFFFFFFFFF AND DUP2 PUSH20 0xFFFFFFFFFFFFFFFFFFFFFFFFFFFFFFFFFFFFFFFF AND SUB PUSH2 0xF1F JUMPI PUSH1 0x40 MLOAD PUSH32 0x8C379A000000000000000000000000000000000000000000000000000000000 DUP2 MSTORE PUSH1 0x4 ADD PUSH2 0xF16 SWAP1 PUSH2 0x274E JUMP JUMPDEST PUSH1 0x40 MLOAD DUP1 SWAP2 SUB SWAP1 REVERT JUMPDEST DUP1 PUSH1 0x5 PUSH0 PUSH2 0x100 EXP DUP2 SLOAD DUP2 PUSH20 0xFFFFFFFFFFFFFFFFFFFFFFFFFFFFFFFFFFFFFFFF MUL NOT AND SWAP1 DUP4 PUSH20 0xFFFFFFFFFFFFFFFFFFFFFFFFFFFFFFFFFFFFFFFF AND MUL OR SWAP1 SSTORE POP PUSH2 0xF67 PUSH2 0x1799 JUMP JUMPDEST POP JUMP JUMPDEST PUSH2 0xF72 PUSH2 0x1712 JUMP JUMPDEST PUSH0 PUSH20 0xFFFFFFFFFFFFFFFFFFFFFFFFFFFFFFFFFFFFFFFF AND DUP2 PUSH20 0xFFFFFFFFFFFFFFFFFFFFFFFFFFFFFFFFFFFFFFFF AND SUB PUSH2 0xFE2 JUMPI PUSH0 PUSH1 0x40 MLOAD PUSH32 0x1E4FBDF700000000000000000000000000000000000000000000000000000000 DUP2 MSTORE PUSH1 0x4 ADD PUSH2 0xFD9 SWAP2 SWAP1 PUSH2 0x1CC1 JUMP JUMPDEST PUSH1 0x40 MLOAD DUP1 SWAP2 SUB SWAP1 REVERT JUMPDEST PUSH2 0xFEB DUP2 PUSH2 0x17FA JUMP JUMPDEST POP JUMP JUMPDEST PUSH0 DUP4 PUSH1 0x2 PUSH0 DUP3 DUP2 MSTORE PUSH1 0x20 ADD SWAP1 DUP2 MSTORE PUSH1 0x20 ADD PUSH0 KECCAK256 PUSH1 0x3 ADD PUSH0 SWAP1 SLOAD SWAP1 PUSH2 0x100 EXP SWAP1 DIV PUSH1 0xFF AND PUSH2 0x1050 JUMPI PUSH1 0x40 MLOAD PUSH32 0x8C379A000000000000000000000000000000000000000000000000000000000 DUP2 MSTORE PUSH1 0x4 ADD PUSH2 0x1047 SWAP1 PUSH2 0x2546 JUMP JUMPDEST PUSH1 0x40 MLOAD DUP1 SWAP2 SUB SWAP1 REVERT JUMPDEST PUSH2 0x1058 PUSH2 0x117D JUMP JUMPDEST PUSH2 0x1060 PUSH2 0x14C0 JUMP JUMPDEST PUSH0 PUSH20 0xFFFFFFFFFFFFFFFFFFFFFFFFFFFFFFFFFFFFFFFF AND DUP5 PUSH20 0xFFFFFFFFFFFFFFFFFFFFFFFFFFFFFFFFFFFFFFFF AND SUB PUSH2 0x10CE JUMPI PUSH1 0x40 MLOAD PUSH32 0x8C379A000000000000000000000000000000000000000000000000000000000 DUP2 MSTORE PUSH1 0x4 ADD PUSH2 0x10C5 SWAP1 PUSH2 0x25AE JUMP JUMPDEST PUSH1 0x40 MLOAD DUP1 SWAP2 SUB SWAP1 REVERT JUMPDEST DUP3 PUSH1 0x3 PUSH0 CALLER PUSH20 0xFFFFFFFFFFFFFFFFFFFFFFFFFFFFFFFFFFFFFFFF AND PUSH20 0xFFFFFFFFFFFFFFFFFFFFFFFFFFFFFFFFFFFFFFFF AND DUP2 MSTORE PUSH1 0x20 ADD SWAP1 DUP2 MSTORE PUSH1 0x20 ADD PUSH0 KECCAK256 PUSH0 DUP8 DUP2 MSTORE PUSH1 0x20 ADD SWAP1 DUP2 MSTORE PUSH1 0x20 ADD PUSH0 KECCAK256 SLOAD LT ISZERO PUSH2 0x115D JUMPI PUSH1 0x40 MLOAD PUSH32 0x8C379A000000000000000000000000000000000000000000000000000000000 DUP2 MSTORE PUSH1 0x4 ADD PUSH2 0x1154 SWAP1 PUSH2 0x2616 JUMP JUMPDEST PUSH1 0x40 MLOAD DUP1 SWAP2 SUB SWAP1 REVERT JUMPDEST PUSH2 0x1169 DUP6 CALLER DUP7 DUP7 PUSH2 0x150F JUMP JUMPDEST PUSH1 0x1 SWAP2 POP PUSH2 0x1175 PUSH2 0x1709 JUMP JUMPDEST POP SWAP4 SWAP3 POP POP POP JUMP JUMPDEST PUSH2 0x1185 PUSH2 0xC6B JUMP JUMPDEST ISZERO PUSH2 0x11C5 JUMPI PUSH1 0x40 MLOAD PUSH32 0x8C379A000000000000000000000000000000000000000000000000000000000 DUP2 MSTORE PUSH1 0x4 ADD PUSH2 0x11BC SWAP1 PUSH2 0x27B6 JUMP JUMPDEST PUSH1 0x40 MLOAD DUP1 SWAP2 SUB SWAP1 REVERT JUMPDEST JUMP JUMPDEST PUSH1 0x60 PUSH0 DUP3 SUB PUSH2 0x120D JUMPI PUSH1 0x40 MLOAD DUP1 PUSH1 0x40 ADD PUSH1 0x40 MSTORE DUP1 PUSH1 0x1 DUP2 MSTORE PUSH1 0x20 ADD PUSH32 0x3000000000000000000000000000000000000000000000000000000000000000 DUP2 MSTORE POP SWAP1 POP PUSH2 0x131B JUMP JUMPDEST PUSH0 DUP3 SWAP1 POP PUSH0 JUMPDEST PUSH0 DUP3 EQ PUSH2 0x123C JUMPI DUP1 DUP1 PUSH2 0x1225 SWAP1 PUSH2 0x27D4 JUMP JUMPDEST SWAP2 POP POP PUSH1 0xA DUP3 PUSH2 0x1235 SWAP2 SWAP1 PUSH2 0x2406 JUMP JUMPDEST SWAP2 POP PUSH2 0x1213 JUMP JUMPDEST PUSH0 DUP2 PUSH8 0xFFFFFFFFFFFFFFFF DUP2 GT ISZERO PUSH2 0x1257 JUMPI PUSH2 0x1256 PUSH2 0x20A2 JUMP JUMPDEST JUMPDEST PUSH1 0x40 MLOAD SWAP1 DUP1 DUP3 MSTORE DUP1 PUSH1 0x1F ADD PUSH1 0x1F NOT AND PUSH1 0x20 ADD DUP3 ADD PUSH1 0x40 MSTORE DUP1 ISZERO PUSH2 0x1289 JUMPI DUP2 PUSH1 0x20 ADD PUSH1 0x1 DUP3 MUL DUP1 CALLDATASIZE DUP4 CALLDATACOPY DUP1 DUP3 ADD SWAP2 POP POP SWAP1 POP JUMPDEST POP SWAP1 POP JUMPDEST PUSH0 DUP6 EQ PUSH2 0x1314 JUMPI PUSH1 0x1 DUP3 PUSH2 0x12A1 SWAP2 SWAP1 PUSH2 0x2436 JUMP JUMPDEST SWAP2 POP PUSH1 0xA DUP6 PUSH2 0x12B0 SWAP2 SWAP1 PUSH2 0x281B JUMP JUMPDEST PUSH1 0x30 PUSH2 0x12BC SWAP2 SWAP1 PUSH2 0x1EA2 JUMP JUMPDEST PUSH1 0xF8 SHL DUP2 DUP4 DUP2 MLOAD DUP2 LT PUSH2 0x12D2 JUMPI PUSH2 0x12D1 PUSH2 0x284B JUMP JUMPDEST JUMPDEST PUSH1 0x20 ADD ADD SWAP1 PUSH31 0xFFFFFFFFFFFFFFFFFFFFFFFFFFFFFFFFFFFFFFFFFFFFFFFFFFFFFFFFFFFFFF NOT AND SWAP1 DUP2 PUSH0 BYTE SWAP1 MSTORE8 POP PUSH1 0xA DUP6 PUSH2 0x130D SWAP2 SWAP1 PUSH2 0x2406 JUMP JUMPDEST SWAP5 POP PUSH2 0x128D JUMP JUMPDEST DUP1 SWAP4 POP POP POP POP JUMPDEST SWAP2 SWAP1 POP JUMP JUMPDEST PUSH0 PUSH20 0xFFFFFFFFFFFFFFFFFFFFFFFFFFFFFFFFFFFFFFFF AND DUP3 PUSH20 0xFFFFFFFFFFFFFFFFFFFFFFFFFFFFFFFFFFFFFFFF AND SUB PUSH2 0x138E JUMPI PUSH1 0x40 MLOAD PUSH32 0x8C379A000000000000000000000000000000000000000000000000000000000 DUP2 MSTORE PUSH1 0x4 ADD PUSH2 0x1385 SWAP1 PUSH2 0x28C2 JUMP JUMPDEST PUSH1 0x40 MLOAD DUP1 SWAP2 SUB SWAP1 REVERT JUMPDEST DUP1 PUSH1 0x3 PUSH0 DUP5 PUSH20 0xFFFFFFFFFFFFFFFFFFFFFFFFFFFFFFFFFFFFFFFF AND PUSH20 0xFFFFFFFFFFFFFFFFFFFFFFFFFFFFFFFFFFFFFFFF AND DUP2 MSTORE PUSH1 0x20 ADD SWAP1 DUP2 MSTORE PUSH1 0x20 ADD PUSH0 KECCAK256 PUSH0 DUP6 DUP2 MSTORE PUSH1 0x20 ADD SWAP1 DUP2 MSTORE PUSH1 0x20 ADD PUSH0 KECCAK256 PUSH0 DUP3 DUP3 SLOAD PUSH2 0x13E9 SWAP2 SWAP1 PUSH2 0x1EA2 JUMP JUMPDEST SWAP3 POP POP DUP2 SWAP1 SSTORE POP DUP1 PUSH1 0x2 PUSH0 DUP6 DUP2 MSTORE PUSH1 0x20 ADD SWAP1 DUP2 MSTORE PUSH1 0x20 ADD PUSH0 KECCAK256 PUSH1 0x4 ADD PUSH0 DUP5 PUSH20 0xFFFFFFFFFFFFFFFFFFFFFFFFFFFFFFFFFFFFFFFF AND PUSH20 0xFFFFFFFFFFFFFFFFFFFFFFFFFFFFFFFFFFFFFFFF AND DUP2 MSTORE PUSH1 0x20 ADD SWAP1 DUP2 MSTORE PUSH1 0x20 ADD PUSH0 KECCAK256 PUSH0 DUP3 DUP3 SLOAD PUSH2 0x144E SWAP2 SWAP1 PUSH2 0x1EA2 JUMP JUMPDEST SWAP3 POP POP DUP2 SWAP1 SSTORE POP DUP2 PUSH20 0xFFFFFFFFFFFFFFFFFFFFFFFFFFFFFFFFFFFFFFFF AND PUSH0 PUSH20 0xFFFFFFFFFFFFFFFFFFFFFFFFFFFFFFFFFFFFFFFF AND DUP5 PUSH32 0xF2DBD98D79F00F7AFF338B824931D607BFCC63D47307162470F25A055102D3B0 DUP5 PUSH1 0x40 MLOAD PUSH2 0x14B3 SWAP2 SWAP1 PUSH2 0x1A4B JUMP JUMPDEST PUSH1 0x40 MLOAD DUP1 SWAP2 SUB SWAP1 LOG4 POP POP POP JUMP JUMPDEST PUSH1 0x2 PUSH1 0x1 SLOAD SUB PUSH2 0x1505 JUMPI PUSH1 0x40 MLOAD PUSH32 0x8C379A000000000000000000000000000000000000000000000000000000000 DUP2 MSTORE PUSH1 0x4 ADD PUSH2 0x14FC SWAP1 PUSH2 0x292A JUMP JUMPDEST PUSH1 0x40 MLOAD DUP1 SWAP2 SUB SWAP1 REVERT JUMPDEST PUSH1 0x2 PUSH1 0x1 DUP2 SWAP1 SSTORE POP JUMP JUMPDEST DUP1 PUSH1 0x3 PUSH0 DUP6 PUSH20 0xFFFFFFFFFFFFFFFFFFFFFFFFFFFFFFFFFFFFFFFF AND PUSH20 0xFFFFFFFFFFFFFFFFFFFFFFFFFFFFFFFFFFFFFFFF AND DUP2 MSTORE PUSH1 0x20 ADD SWAP1 DUP2 MSTORE PUSH1 0x20 ADD PUSH0 KECCAK256 PUSH0 DUP7 DUP2 MSTORE PUSH1 0x20 ADD SWAP1 DUP2 MSTORE PUSH1 0x20 ADD PUSH0 KECCAK256 PUSH0 DUP3 DUP3 SLOAD PUSH2 0x156A SWAP2 SWAP1 PUSH2 0x2436 JUMP JUMPDEST SWAP3 POP POP DUP2 SWAP1 SSTORE POP DUP1 PUSH1 0x3 PUSH0 DUP5 PUSH20 0xFFFFFFFFFFFFFFFFFFFFFFFFFFFFFFFFFFFFFFFF AND PUSH20 0xFFFFFFFFFFFFFFFFFFFFFFFFFFFFFFFFFFFFFFFF AND DUP2 MSTORE PUSH1 0x20 ADD SWAP1 DUP2 MSTORE PUSH1 0x20 ADD PUSH0 KECCAK256 PUSH0 DUP7 DUP2 MSTORE PUSH1 0x20 ADD SWAP1 DUP2 MSTORE PUSH1 0x20 ADD PUSH0 KECCAK256 PUSH0 DUP3 DUP3 SLOAD PUSH2 0x15CC SWAP2 SWAP1 PUSH2 0x1EA2 JUMP JUMPDEST SWAP3 POP POP DUP2 SWAP1 SSTORE POP DUP1 PUSH1 0x2 PUSH0 DUP7 DUP2 MSTORE PUSH1 0x20 ADD SWAP1 DUP2 MSTORE PUSH1 0x20 ADD PUSH0 KECCAK256 PUSH1 0x4 ADD PUSH0 DUP6 PUSH20 0xFFFFFFFFFFFFFFFFFFFFFFFFFFFFFFFFFFFFFFFF AND PUSH20 0xFFFFFFFFFFFFFFFFFFFFFFFFFFFFFFFFFFFFFFFF AND DUP2 MSTORE PUSH1 0x20 ADD SWAP1 DUP2 MSTORE PUSH1 0x20 ADD PUSH0 KECCAK256 PUSH0 DUP3 DUP3 SLOAD PUSH2 0x1631 SWAP2 SWAP1 PUSH2 0x2436 JUMP JUMPDEST SWAP3 POP POP DUP2 SWAP1 SSTORE POP DUP1 PUSH1 0x2 PUSH0 DUP7 DUP2 MSTORE PUSH1 0x20 ADD SWAP1 DUP2 MSTORE PUSH1 0x20 ADD PUSH0 KECCAK256 PUSH1 0x4 ADD PUSH0 DUP5 PUSH20 0xFFFFFFFFFFFFFFFFFFFFFFFFFFFFFFFFFFFFFFFF AND PUSH20 0xFFFFFFFFFFFFFFFFFFFFFFFFFFFFFFFFFFFFFFFF AND DUP2 MSTORE PUSH1 0x20 ADD SWAP1 DUP2 MSTORE PUSH1 0x20 ADD PUSH0 KECCAK256 PUSH0 DUP3 DUP3 SLOAD PUSH2 0x1696 SWAP2 SWAP1 PUSH2 0x1EA2 JUMP JUMPDEST SWAP3 POP POP DUP2 SWAP1 SSTORE POP DUP2 PUSH20 0xFFFFFFFFFFFFFFFFFFFFFFFFFFFFFFFFFFFFFFFF AND DUP4 PUSH20 0xFFFFFFFFFFFFFFFFFFFFFFFFFFFFFFFFFFFFFFFF AND DUP6 PUSH32 0xF2DBD98D79F00F7AFF338B824931D607BFCC63D47307162470F25A055102D3B0 DUP5 PUSH1 0x40 MLOAD PUSH2 0x16FB SWAP2 SWAP1 PUSH2 0x1A4B JUMP JUMPDEST PUSH1 0x40 MLOAD DUP1 SWAP2 SUB SWAP1 LOG4 POP POP POP POP JUMP JUMPDEST PUSH1 0x1 DUP1 DUP2 SWAP1 SSTORE POP JUMP JUMPDEST PUSH2 0x171A PUSH2 0x191D JUMP JUMPDEST PUSH20 0xFFFFFFFFFFFFFFFFFFFFFFFFFFFFFFFFFFFFFFFF AND PUSH2 0x1738 PUSH2 0xE82 JUMP JUMPDEST PUSH20 0xFFFFFFFFFFFFFFFFFFFFFFFFFFFFFFFFFFFFFFFF AND EQ PUSH2 0x1797 JUMPI PUSH2 0x175B PUSH2 0x191D JUMP JUMPDEST PUSH1 0x40 MLOAD PUSH32 0x118CDAA700000000000000000000000000000000000000000000000000000000 DUP2 MSTORE PUSH1 0x4 ADD PUSH2 0x178E SWAP2 SWAP1 PUSH2 0x1CC1 JUMP JUMPDEST PUSH1 0x40 MLOAD DUP1 SWAP2 SUB SWAP1 REVERT JUMPDEST JUMP JUMPDEST PUSH2 0x17A1 PUSH2 0x1924 JUMP JUMPDEST PUSH0 DUP1 PUSH1 0x14 PUSH2 0x100 EXP DUP2 SLOAD DUP2 PUSH1 0xFF MUL NOT AND SWAP1 DUP4 ISZERO ISZERO MUL OR SWAP1 SSTORE POP PUSH32 0x5DB9EE0A495BF2E6FF9C91A7834C1BA4FDD244A5E8AA4E537BD38AEAE4B073AA PUSH2 0x17E3 PUSH2 0x191D JUMP JUMPDEST PUSH1 0x40 MLOAD PUSH2 0x17F0 SWAP2 SWAP1 PUSH2 0x1CC1 JUMP JUMPDEST PUSH1 0x40 MLOAD DUP1 SWAP2 SUB SWAP1 LOG1 JUMP JUMPDEST PUSH0 DUP1 PUSH0 SWAP1 SLOAD SWAP1 PUSH2 0x100 EXP SWAP1 DIV PUSH20 0xFFFFFFFFFFFFFFFFFFFFFFFFFFFFFFFFFFFFFFFF AND SWAP1 POP DUP2 PUSH0 DUP1 PUSH2 0x100 EXP DUP2 SLOAD DUP2 PUSH20 0xFFFFFFFFFFFFFFFFFFFFFFFFFFFFFFFFFFFFFFFF MUL NOT AND SWAP1 DUP4 PUSH20 0xFFFFFFFFFFFFFFFFFFFFFFFFFFFFFFFFFFFFFFFF AND MUL OR SWAP1 SSTORE POP DUP2 PUSH20 0xFFFFFFFFFFFFFFFFFFFFFFFFFFFFFFFFFFFFFFFF AND DUP2 PUSH20 0xFFFFFFFFFFFFFFFFFFFFFFFFFFFFFFFFFFFFFFFF AND PUSH32 0x8BE0079C531659141344CD1FD0A4F28419497F9722A3DAAFE3B4186F6B6457E0 PUSH1 0x40 MLOAD PUSH1 0x40 MLOAD DUP1 SWAP2 SUB SWAP1 LOG3 POP POP JUMP JUMPDEST PUSH2 0x18C3 PUSH2 0x117D JUMP JUMPDEST PUSH1 0x1 PUSH0 PUSH1 0x14 PUSH2 0x100 EXP DUP2 SLOAD DUP2 PUSH1 0xFF MUL NOT AND SWAP1 DUP4 ISZERO ISZERO MUL OR SWAP1 SSTORE POP PUSH32 0x62E78CEA01BEE320CD4E420270B5EA74000D11B0C9F74754EBDBFC544B05A258 PUSH2 0x1906 PUSH2 0x191D JUMP JUMPDEST PUSH1 0x40 MLOAD PUSH2 0x1913 SWAP2 SWAP1 PUSH2 0x1CC1 JUMP JUMPDEST PUSH1 0x40 MLOAD DUP1 SWAP2 SUB SWAP1 LOG1 JUMP JUMPDEST PUSH0 CALLER SWAP1 POP SWAP1 JUMP JUMPDEST PUSH2 0x192C PUSH2 0xC6B JUMP JUMPDEST PUSH2 0x196B JUMPI PUSH1 0x40 MLOAD PUSH32 0x8C379A000000000000000000000000000000000000000000000000000000000 DUP2 MSTORE PUSH1 0x4 ADD PUSH2 0x1962 SWAP1 PUSH2 0x2992 JUMP JUMPDEST PUSH1 0x40 MLOAD DUP1 SWAP2 SUB SWAP1 REVERT JUMPDEST JUMP JUMPDEST PUSH0 DUP1 REVERT JUMPDEST PUSH0 PUSH20 0xFFFFFFFFFFFFFFFFFFFFFFFFFFFFFFFFFFFFFFFF DUP3 AND SWAP1 POP SWAP2 SWAP1 POP JUMP JUMPDEST PUSH0 PUSH2 0x199A DUP3 PUSH2 0x1971 JUMP JUMPDEST SWAP1 POP SWAP2 SWAP1 POP JUMP JUMPDEST PUSH2 0x19AA DUP2 PUSH2 0x1990 JUMP JUMPDEST DUP2 EQ PUSH2 0x19B4 JUMPI PUSH0 DUP1 REVERT JUMPDEST POP JUMP JUMPDEST PUSH0 DUP2 CALLDATALOAD SWAP1 POP PUSH2 0x19C5 DUP2 PUSH2 0x19A1 JUMP JUMPDEST SWAP3 SWAP2 POP POP JUMP JUMPDEST PUSH0 DUP2 SWAP1 POP SWAP2 SWAP1 POP JUMP JUMPDEST PUSH2 0x19DD DUP2 PUSH2 0x19CB JUMP JUMPDEST DUP2 EQ PUSH2 0x19E7 JUMPI PUSH0 DUP1 REVERT JUMPDEST POP JUMP JUMPDEST PUSH0 DUP2 CALLDATALOAD SWAP1 POP PUSH2 0x19F8 DUP2 PUSH2 0x19D4 JUMP JUMPDEST SWAP3 SWAP2 POP POP JUMP JUMPDEST PUSH0 DUP1 PUSH1 0x40 DUP4 DUP6 SUB SLT ISZERO PUSH2 0x1A14 JUMPI PUSH2 0x1A13 PUSH2 0x196D JUMP JUMPDEST JUMPDEST PUSH0 PUSH2 0x1A21 DUP6 DUP3 DUP7 ADD PUSH2 0x19B7 JUMP JUMPDEST SWAP3 POP POP PUSH1 0x20 PUSH2 0x1A32 DUP6 DUP3 DUP7 ADD PUSH2 0x19EA JUMP JUMPDEST SWAP2 POP POP SWAP3 POP SWAP3 SWAP1 POP JUMP JUMPDEST PUSH2 0x1A45 DUP2 PUSH2 0x19CB JUMP JUMPDEST DUP3 MSTORE POP POP JUMP JUMPDEST PUSH0 PUSH1 0x20 DUP3 ADD SWAP1 POP PUSH2 0x1A5E PUSH0 DUP4 ADD DUP5 PUSH2 0x1A3C JUMP JUMPDEST SWAP3 SWAP2 POP POP JUMP JUMPDEST PUSH0 DUP1 PUSH0 DUP1 PUSH0 DUP1 PUSH0 DUP1 PUSH2 0x100 DUP10 DUP12 SUB SLT ISZERO PUSH2 0x1A81 JUMPI PUSH2 0x1A80 PUSH2 0x196D JUMP JUMPDEST JUMPDEST PUSH0 PUSH2 0x1A8E DUP12 DUP3 DUP13 ADD PUSH2 0x19EA JUMP JUMPDEST SWAP9 POP POP PUSH1 0x20 PUSH2 0x1A9F DUP12 DUP3 DUP13 ADD PUSH2 0x19B7 JUMP JUMPDEST SWAP8 POP POP PUSH1 0x40 PUSH2 0x1AB0 DUP12 DUP3 DUP13 ADD PUSH2 0x19B7 JUMP JUMPDEST SWAP7 POP POP PUSH1 0x60 PUSH2 0x1AC1 DUP12 DUP3 DUP13 ADD PUSH2 0x19B7 JUMP JUMPDEST SWAP6 POP POP PUSH1 0x80 PUSH2 0x1AD2 DUP12 DUP3 DUP13 ADD PUSH2 0x19B7 JUMP JUMPDEST SWAP5 POP POP PUSH1 0xA0 PUSH2 0x1AE3 DUP12 DUP3 DUP13 ADD PUSH2 0x19EA JUMP JUMPDEST SWAP4 POP POP PUSH1 0xC0 PUSH2 0x1AF4 DUP12 DUP3 DUP13 ADD PUSH2 0x19EA JUMP JUMPDEST SWAP3 POP POP PUSH1 0xE0 PUSH2 0x1B05 DUP12 DUP3 DUP13 ADD PUSH2 0x19EA JUMP JUMPDEST SWAP2 POP POP SWAP3 SWAP6 SWAP9 POP SWAP3 SWAP6 SWAP9 SWAP1 SWAP4 SWAP7 POP JUMP JUMPDEST PUSH0 DUP1 PUSH0 DUP1 PUSH1 0x80 DUP6 DUP8 SUB SLT ISZERO PUSH2 0x1B2D JUMPI PUSH2 0x1B2C PUSH2 0x196D JUMP JUMPDEST JUMPDEST PUSH0 PUSH2 0x1B3A DUP8 DUP3 DUP9 ADD PUSH2 0x19EA JUMP JUMPDEST SWAP5 POP POP PUSH1 0x20 PUSH2 0x1B4B DUP8 DUP3 DUP9 ADD PUSH2 0x19B7 JUMP JUMPDEST SWAP4 POP POP PUSH1 0x40 PUSH2 0x1B5C DUP8 DUP3 DUP9 ADD PUSH2 0x19B7 JUMP JUMPDEST SWAP3 POP POP PUSH1 0x60 PUSH2 0x1B6D DUP8 DUP3 DUP9 ADD PUSH2 0x19EA JUMP JUMPDEST SWAP2 POP POP SWAP3 SWAP6 SWAP2 SWAP5 POP SWAP3 POP JUMP JUMPDEST PUSH0 DUP2 ISZERO ISZERO SWAP1 POP SWAP2 SWAP1 POP JUMP JUMPDEST PUSH2 0x1B8D DUP2 PUSH2 0x1B79 JUMP JUMPDEST DUP3 MSTORE POP POP JUMP JUMPDEST PUSH0 PUSH1 0x20 DUP3 ADD SWAP1 POP PUSH2 0x1BA6 PUSH0 DUP4 ADD DUP5 PUSH2 0x1B84 JUMP JUMPDEST SWAP3 SWAP2 POP POP JUMP JUMPDEST PUSH0 PUSH1 0x20 DUP3 DUP5 SUB SLT ISZERO PUSH2 0x1BC1 JUMPI PUSH2 0x1BC0 PUSH2 0x196D JUMP JUMPDEST JUMPDEST PUSH0 PUSH2 0x1BCE DUP5 DUP3 DUP6 ADD PUSH2 0x19EA JUMP JUMPDEST SWAP2 POP POP SWAP3 SWAP2 POP POP JUMP JUMPDEST PUSH0 DUP2 MLOAD SWAP1 POP SWAP2 SWAP1 POP JUMP JUMPDEST PUSH0 DUP3 DUP3 MSTORE PUSH1 0x20 DUP3 ADD SWAP1 POP SWAP3 SWAP2 POP POP JUMP JUMPDEST PUSH0 JUMPDEST DUP4 DUP2 LT ISZERO PUSH2 0x1C0E JUMPI DUP1 DUP3 ADD MLOAD DUP2 DUP5 ADD MSTORE PUSH1 0x20 DUP2 ADD SWAP1 POP PUSH2 0x1BF3 JUMP JUMPDEST PUSH0 DUP5 DUP5 ADD MSTORE POP POP POP POP JUMP JUMPDEST PUSH0 PUSH1 0x1F NOT PUSH1 0x1F DUP4 ADD AND SWAP1 POP SWAP2 SWAP1 POP JUMP JUMPDEST PUSH0 PUSH2 0x1C33 DUP3 PUSH2 0x1BD7 JUMP JUMPDEST PUSH2 0x1C3D DUP2 DUP6 PUSH2 0x1BE1 JUMP JUMPDEST SWAP4 POP PUSH2 0x1C4D DUP2 DUP6 PUSH1 0x20 DUP7 ADD PUSH2 0x1BF1 JUMP JUMPDEST PUSH2 0x1C56 DUP2 PUSH2 0x1C19 JUMP JUMPDEST DUP5 ADD SWAP2 POP POP SWAP3 SWAP2 POP POP JUMP JUMPDEST PUSH0 PUSH1 0x80 DUP3 ADD SWAP1 POP DUP2 DUP2 SUB PUSH0 DUP4 ADD MSTORE PUSH2 0x1C79 DUP2 DUP8 PUSH2 0x1C29 JUMP JUMPDEST SWAP1 POP DUP2 DUP2 SUB PUSH1 0x20 DUP4 ADD MSTORE PUSH2 0x1C8D DUP2 DUP7 PUSH2 0x1C29 JUMP JUMPDEST SWAP1 POP PUSH2 0x1C9C PUSH1 0x40 DUP4 ADD DUP6 PUSH2 0x1A3C JUMP JUMPDEST PUSH2 0x1CA9 PUSH1 0x60 DUP4 ADD DUP5 PUSH2 0x1B84 JUMP JUMPDEST SWAP6 SWAP5 POP POP POP POP POP JUMP JUMPDEST PUSH2 0x1CBB DUP2 PUSH2 0x1990 JUMP JUMPDEST DUP3 MSTORE POP POP JUMP JUMPDEST PUSH0 PUSH1 0x20 DUP3 ADD SWAP1 POP PUSH2 0x1CD4 PUSH0 DUP4 ADD DUP5 PUSH2 0x1CB2 JUMP JUMPDEST SWAP3 SWAP2 POP POP JUMP JUMPDEST PUSH0 DUP1 PUSH0 PUSH1 0x60 DUP5 DUP7 SUB SLT ISZERO PUSH2 0x1CF1 JUMPI PUSH2 0x1CF0 PUSH2 0x196D JUMP JUMPDEST JUMPDEST PUSH0 PUSH2 0x1CFE DUP7 DUP3 DUP8 ADD PUSH2 0x19B7 JUMP JUMPDEST SWAP4 POP POP PUSH1 0x20 PUSH2 0x1D0F DUP7 DUP3 DUP8 ADD PUSH2 0x19B7 JUMP JUMPDEST SWAP3 POP POP PUSH1 0x40 PUSH2 0x1D20 DUP7 DUP3 DUP8 ADD PUSH2 0x19EA JUMP JUMPDEST SWAP2 POP POP SWAP3 POP SWAP3 POP SWAP3 JUMP JUMPDEST PUSH0 DUP1 PUSH0 PUSH1 0x60 DUP5 DUP7 SUB SLT ISZERO PUSH2 0x1D41 JUMPI PUSH2 0x1D40 PUSH2 0x196D JUMP JUMPDEST JUMPDEST PUSH0 PUSH2 0x1D4E DUP7 DUP3 DUP8 ADD PUSH2 0x19EA JUMP JUMPDEST SWAP4 POP POP PUSH1 0x20 PUSH2 0x1D5F DUP7 DUP3 DUP8 ADD PUSH2 0x19B7 JUMP JUMPDEST SWAP3 POP POP PUSH1 0x40 PUSH2 0x1D70 DUP7 DUP3 DUP8 ADD PUSH2 0x19EA JUMP JUMPDEST SWAP2 POP POP SWAP3 POP SWAP3 POP SWAP3 JUMP JUMPDEST PUSH0 PUSH1 0x20 DUP3 DUP5 SUB SLT ISZERO PUSH2 0x1D8F JUMPI PUSH2 0x1D8E PUSH2 0x196D JUMP JUMPDEST JUMPDEST PUSH0 PUSH2 0x1D9C DUP5 DUP3 DUP6 ADD PUSH2 0x19B7 JUMP JUMPDEST SWAP2 POP POP SWAP3 SWAP2 POP POP JUMP JUMPDEST PUSH32 0x4F6E6C79205061696E74696E674E465420636F6E747261637400000000000000 PUSH0 DUP3 ADD MSTORE POP JUMP JUMPDEST PUSH0 PUSH2 0x1DD9 PUSH1 0x19 DUP4 PUSH2 0x1BE1 JUMP JUMPDEST SWAP2 POP PUSH2 0x1DE4 DUP3 PUSH2 0x1DA5 JUMP JUMPDEST PUSH1 0x20 DUP3 ADD SWAP1 POP SWAP2 SWAP1 POP JUMP JUMPDEST PUSH0 PUSH1 0x20 DUP3 ADD SWAP1 POP DUP2 DUP2 SUB PUSH0 DUP4 ADD MSTORE PUSH2 0x1E06 DUP2 PUSH2 0x1DCD JUMP JUMPDEST SWAP1 POP SWAP2 SWAP1 POP JUMP JUMPDEST PUSH32 0x53686172657320616C7265616479206578697374000000000000000000000000 PUSH0 DUP3 ADD MSTORE POP JUMP JUMPDEST PUSH0 PUSH2 0x1E41 PUSH1 0x14 DUP4 PUSH2 0x1BE1 JUMP JUMPDEST SWAP2 POP PUSH2 0x1E4C DUP3 PUSH2 0x1E0D JUMP JUMPDEST PUSH1 0x20 DUP3 ADD SWAP1 POP SWAP2 SWAP1 POP JUMP JUMPDEST PUSH0 PUSH1 0x20 DUP3 ADD SWAP1 POP DUP2 DUP2 SUB PUSH0 DUP4 ADD MSTORE PUSH2 0x1E6E DUP2 PUSH2 0x1E35 JUMP JUMPDEST SWAP1 POP SWAP2 SWAP1 POP JUMP JUMPDEST PUSH32 0x4E487B7100000000000000000000000000000000000000000000000000000000 PUSH0 MSTORE PUSH1 0x11 PUSH1 0x4 MSTORE PUSH1 0x24 PUSH0 REVERT JUMPDEST PUSH0 PUSH2 0x1EAC DUP3 PUSH2 0x19CB JUMP JUMPDEST SWAP2 POP PUSH2 0x1EB7 DUP4 PUSH2 0x19CB JUMP JUMPDEST SWAP3 POP DUP3 DUP3 ADD SWAP1 POP DUP1 DUP3 GT ISZERO PUSH2 0x1ECF JUMPI PUSH2 0x1ECE PUSH2 0x1E75 JUMP JUMPDEST JUMPDEST SWAP3 SWAP2 POP POP JUMP JUMPDEST PUSH32 0x496E76616C69642070657263656E746167657300000000000000000000000000 PUSH0 DUP3 ADD MSTORE POP JUMP JUMPDEST PUSH0 PUSH2 0x1F09 PUSH1 0x13 DUP4 PUSH2 0x1BE1 JUMP JUMPDEST SWAP2 POP PUSH2 0x1F14 DUP3 PUSH2 0x1ED5 JUMP JUMPDEST PUSH1 0x20 DUP3 ADD SWAP1 POP SWAP2 SWAP1 POP JUMP JUMPDEST PUSH0 PUSH1 0x20 DUP3 ADD SWAP1 POP DUP2 DUP2 SUB PUSH0 DUP4 ADD MSTORE PUSH2 0x1F36 DUP2 PUSH2 0x1EFD JUMP JUMPDEST SWAP1 POP SWAP2 SWAP1 POP JUMP JUMPDEST PUSH0 DUP2 SWAP1 POP SWAP3 SWAP2 POP POP JUMP JUMPDEST PUSH32 0x5061696E74696E67200000000000000000000000000000000000000000000000 PUSH0 DUP3 ADD MSTORE POP JUMP JUMPDEST PUSH0 PUSH2 0x1F7B PUSH1 0x9 DUP4 PUSH2 0x1F3D JUMP JUMPDEST SWAP2 POP PUSH2 0x1F86 DUP3 PUSH2 0x1F47 JUMP JUMPDEST PUSH1 0x9 DUP3 ADD SWAP1 POP SWAP2 SWAP1 POP JUMP JUMPDEST PUSH0 PUSH2 0x1F9B DUP3 PUSH2 0x1BD7 JUMP JUMPDEST PUSH2 0x1FA5 DUP2 DUP6 PUSH2 0x1F3D JUMP JUMPDEST SWAP4 POP PUSH2 0x1FB5 DUP2 DUP6 PUSH1 0x20 DUP7 ADD PUSH2 0x1BF1 JUMP JUMPDEST DUP1 DUP5 ADD SWAP2 POP POP SWAP3 SWAP2 POP POP JUMP JUMPDEST PUSH32 0x2053686172657300000000000000000000000000000000000000000000000000 PUSH0 DUP3 ADD MSTORE POP JUMP JUMPDEST PUSH0 PUSH2 0x1FF5 PUSH1 0x7 DUP4 PUSH2 0x1F3D JUMP JUMPDEST SWAP2 POP PUSH2 0x2000 DUP3 PUSH2 0x1FC1 JUMP JUMPDEST PUSH1 0x7 DUP3 ADD SWAP1 POP SWAP2 SWAP1 POP JUMP JUMPDEST PUSH0 PUSH2 0x2015 DUP3 PUSH2 0x1F6F JUMP JUMPDEST SWAP2 POP PUSH2 0x2021 DUP3 DUP5 PUSH2 0x1F91 JUMP JUMPDEST SWAP2 POP PUSH2 0x202C DUP3 PUSH2 0x1FE9 JUMP JUMPDEST SWAP2 POP DUP2 SWAP1 POP SWAP3 SWAP2 POP POP JUMP JUMPDEST PUSH32 0x5041494E54000000000000000000000000000000000000000000000000000000 PUSH0 DUP3 ADD MSTORE POP JUMP JUMPDEST PUSH0 PUSH2 0x206B PUSH1 0x5 DUP4 PUSH2 0x1F3D JUMP JUMPDEST SWAP2 POP PUSH2 0x2076 DUP3 PUSH2 0x2037 JUMP JUMPDEST PUSH1 0x5 DUP3 ADD SWAP1 POP SWAP2 SWAP1 POP JUMP JUMPDEST PUSH0 PUSH2 0x208B DUP3 PUSH2 0x205F JUMP JUMPDEST SWAP2 POP PUSH2 0x2097 DUP3 DUP5 PUSH2 0x1F91 JUMP JUMPDEST SWAP2 POP DUP2 SWAP1 POP SWAP3 SWAP2 POP POP JUMP JUMPDEST PUSH32 0x4E487B7100000000000000000000000000000000000000000000000000000000 PUSH0 MSTORE PUSH1 0x41 PUSH1 0x4 MSTORE PUSH1 0x24 PUSH0 REVERT JUMPDEST PUSH32 0x4E487B7100000000000000000000000000000000000000000000000000000000 PUSH0 MSTORE PUSH1 0x22 PUSH1 0x4 MSTORE PUSH1 0x24 PUSH0 REVERT JUMPDEST PUSH0 PUSH1 0x2 DUP3 DIV SWAP1 POP PUSH1 0x1 DUP3 AND DUP1 PUSH2 0x2113 JUMPI PUSH1 0x7F DUP3 AND SWAP2 POP JUMPDEST PUSH1 0x20 DUP3 LT DUP2 SUB PUSH2 0x2126 JUMPI PUSH2 0x2125 PUSH2 0x20CF JUMP JUMPDEST JUMPDEST POP SWAP2 SWAP1 POP JUMP JUMPDEST PUSH0 DUP2 SWAP1 POP DUP2 PUSH0 MSTORE PUSH1 0x20 PUSH0 KECCAK256 SWAP1 POP SWAP2 SWAP1 POP JUMP JUMPDEST PUSH0 PUSH1 0x20 PUSH1 0x1F DUP4 ADD DIV SWAP1 POP SWAP2 SWAP1 POP JUMP JUMPDEST PUSH0 DUP3 DUP3 SHL SWAP1 POP SWAP3 SWAP2 POP POP JUMP JUMPDEST PUSH0 PUSH1 0x8 DUP4 MUL PUSH2 0x2188 PUSH32 0xFFFFFFFFFFFFFFFFFFFFFFFFFFFFFFFFFFFFFFFFFFFFFFFFFFFFFFFFFFFFFFFF DUP3 PUSH2 0x214D JUMP JUMPDEST PUSH2 0x2192 DUP7 DUP4 PUSH2 0x214D JUMP JUMPDEST SWAP6 POP DUP1 NOT DUP5 AND SWAP4 POP DUP1 DUP7 AND DUP5 OR SWAP3 POP POP POP SWAP4 SWAP3 POP POP POP JUMP JUMPDEST PUSH0 DUP2 SWAP1 POP SWAP2 SWAP1 POP JUMP JUMPDEST PUSH0 PUSH2 0x21CD PUSH2 0x21C8 PUSH2 0x21C3 DUP5 PUSH2 0x19CB JUMP JUMPDEST PUSH2 0x21AA JUMP JUMPDEST PUSH2 0x19CB JUMP JUMPDEST SWAP1 POP SWAP2 SWAP1 POP JUMP JUMPDEST PUSH0 DUP2 SWAP1 POP SWAP2 SWAP1 POP JUMP JUMPDEST PUSH2 0x21E6 DUP4 PUSH2 0x21B3 JUMP JUMPDEST PUSH2 0x21FA PUSH2 0x21F2 DUP3 PUSH2 0x21D4 JUMP JUMPDEST DUP5 DUP5 SLOAD PUSH2 0x2159 JUMP JUMPDEST DUP3 SSTORE POP POP POP POP JUMP JUMPDEST PUSH0 SWAP1 JUMP JUMPDEST PUSH2 0x220E PUSH2 0x2202 JUMP JUMPDEST PUSH2 0x2219 DUP2 DUP5 DUP5 PUSH2 0x21DD JUMP JUMPDEST POP POP POP JUMP JUMPDEST JUMPDEST DUP2 DUP2 LT ISZERO PUSH2 0x223C JUMPI PUSH2 0x2231 PUSH0 DUP3 PUSH2 0x2206 JUMP JUMPDEST PUSH1 0x1 DUP2 ADD SWAP1 POP PUSH2 0x221F JUMP JUMPDEST POP POP JUMP JUMPDEST PUSH1 0x1F DUP3 GT ISZERO PUSH2 0x2281 JUMPI PUSH2 0x2252 DUP2 PUSH2 0x212C JUMP JUMPDEST PUSH2 0x225B DUP5 PUSH2 0x213E JUMP JUMPDEST DUP2 ADD PUSH1 0x20 DUP6 LT ISZERO PUSH2 0x226A JUMPI DUP2 SWAP1 POP JUMPDEST PUSH2 0x227E PUSH2 0x2276 DUP6 PUSH2 0x213E JUMP JUMPDEST DUP4 ADD DUP3 PUSH2 0x221E JUMP JUMPDEST POP POP JUMPDEST POP POP POP JUMP JUMPDEST PUSH0 DUP3 DUP3 SHR SWAP1 POP SWAP3 SWAP2 POP POP JUMP JUMPDEST PUSH0 PUSH2 0x22A1 PUSH0 NOT DUP5 PUSH1 0x8 MUL PUSH2 0x2286 JUMP JUMPDEST NOT DUP1 DUP4 AND SWAP2 POP POP SWAP3 SWAP2 POP POP JUMP JUMPDEST PUSH0 PUSH2 0x22B9 DUP4 DUP4 PUSH2 0x2292 JUMP JUMPDEST SWAP2 POP DUP3 PUSH1 0x2 MUL DUP3 OR SWAP1 POP SWAP3 SWAP2 POP POP JUMP JUMPDEST PUSH2 0x22D2 DUP3 PUSH2 0x1BD7 JUMP JUMPDEST PUSH8 0xFFFFFFFFFFFFFFFF DUP2 GT ISZERO PUSH2 0x22EB JUMPI PUSH2 0x22EA PUSH2 0x20A2 JUMP JUMPDEST JUMPDEST PUSH2 0x22F5 DUP3 SLOAD PUSH2 0x20FC JUMP JUMPDEST PUSH2 0x2300 DUP3 DUP3 DUP6 PUSH2 0x2240 JUMP JUMPDEST PUSH0 PUSH1 0x20 SWAP1 POP PUSH1 0x1F DUP4 GT PUSH1 0x1 DUP2 EQ PUSH2 0x2331 JUMPI PUSH0 DUP5 ISZERO PUSH2 0x231F JUMPI DUP3 DUP8 ADD MLOAD SWAP1 POP JUMPDEST PUSH2 0x2329 DUP6 DUP3 PUSH2 0x22AE JUMP JUMPDEST DUP7 SSTORE POP PUSH2 0x2390 JUMP JUMPDEST PUSH1 0x1F NOT DUP5 AND PUSH2 0x233F DUP7 PUSH2 0x212C JUMP JUMPDEST PUSH0 JUMPDEST DUP3 DUP2 LT ISZERO PUSH2 0x2366 JUMPI DUP5 DUP10 ADD MLOAD DUP3 SSTORE PUSH1 0x1 DUP3 ADD SWAP2 POP PUSH1 0x20 DUP6 ADD SWAP5 POP PUSH1 0x20 DUP2 ADD SWAP1 POP PUSH2 0x2341 JUMP JUMPDEST DUP7 DUP4 LT ISZERO PUSH2 0x2383 JUMPI DUP5 DUP10 ADD MLOAD PUSH2 0x237F PUSH1 0x1F DUP10 AND DUP3 PUSH2 0x2292 JUMP JUMPDEST DUP4 SSTORE POP JUMPDEST PUSH1 0x1 PUSH1 0x2 DUP9 MUL ADD DUP9 SSTORE POP POP POP JUMPDEST POP POP POP POP POP POP JUMP JUMPDEST PUSH0 PUSH2 0x23A2 DUP3 PUSH2 0x19CB JUMP JUMPDEST SWAP2 POP PUSH2 0x23AD DUP4 PUSH2 0x19CB JUMP JUMPDEST SWAP3 POP DUP3 DUP3 MUL PUSH2 0x23BB DUP2 PUSH2 0x19CB JUMP JUMPDEST SWAP2 POP DUP3 DUP3 DIV DUP5 EQ DUP4 ISZERO OR PUSH2 0x23D2 JUMPI PUSH2 0x23D1 PUSH2 0x1E75 JUMP JUMPDEST JUMPDEST POP SWAP3 SWAP2 POP POP JUMP JUMPDEST PUSH32 0x4E487B7100000000000000000000000000000000000000000000000000000000 PUSH0 MSTORE PUSH1 0x12 PUSH1 0x4 MSTORE PUSH1 0x24 PUSH0 REVERT JUMPDEST PUSH0 PUSH2 0x2410 DUP3 PUSH2 0x19CB JUMP JUMPDEST SWAP2 POP PUSH2 0x241B DUP4 PUSH2 0x19CB JUMP JUMPDEST SWAP3 POP DUP3 PUSH2 0x242B JUMPI PUSH2 0x242A PUSH2 0x23D9 JUMP JUMPDEST JUMPDEST DUP3 DUP3 DIV SWAP1 POP SWAP3 SWAP2 POP POP JUMP JUMPDEST PUSH0 PUSH2 0x2440 DUP3 PUSH2 0x19CB JUMP JUMPDEST SWAP2 POP PUSH2 0x244B DUP4 PUSH2 0x19CB JUMP JUMPDEST SWAP3 POP DUP3 DUP3 SUB SWAP1 POP DUP2 DUP2 GT ISZERO PUSH2 0x2463 JUMPI PUSH2 0x2462 PUSH2 0x1E75 JUMP JUMPDEST JUMPDEST SWAP3 SWAP2 POP POP JUMP JUMPDEST PUSH0 PUSH1 0xC0 DUP3 ADD SWAP1 POP DUP2 DUP2 SUB PUSH0 DUP4 ADD MSTORE PUSH2 0x2481 DUP2 DUP10 PUSH2 0x1C29 JUMP JUMPDEST SWAP1 POP DUP2 DUP2 SUB PUSH1 0x20 DUP4 ADD MSTORE PUSH2 0x2495 DUP2 DUP9 PUSH2 0x1C29 JUMP JUMPDEST SWAP1 POP PUSH2 0x24A4 PUSH1 0x40 DUP4 ADD DUP8 PUSH2 0x1A3C JUMP JUMPDEST PUSH2 0x24B1 PUSH1 0x60 DUP4 ADD DUP7 PUSH2 0x1A3C JUMP JUMPDEST PUSH2 0x24BE PUSH1 0x80 DUP4 ADD DUP6 PUSH2 0x1A3C JUMP JUMPDEST PUSH2 0x24CB PUSH1 0xA0 DUP4 ADD DUP5 PUSH2 0x1A3C JUMP JUMPDEST SWAP8 SWAP7 POP POP POP POP POP POP POP JUMP JUMPDEST PUSH32 0x53686172657320646F6E277420657869737420666F722074686973207061696E PUSH0 DUP3 ADD MSTORE PUSH32 0x74696E6700000000000000000000000000000000000000000000000000000000 PUSH1 0x20 DUP3 ADD MSTORE POP JUMP JUMPDEST PUSH0 PUSH2 0x2530 PUSH1 0x24 DUP4 PUSH2 0x1BE1 JUMP JUMPDEST SWAP2 POP PUSH2 0x253B DUP3 PUSH2 0x24D6 JUMP JUMPDEST PUSH1 0x40 DUP3 ADD SWAP1 POP SWAP2 SWAP1 POP JUMP JUMPDEST PUSH0 PUSH1 0x20 DUP3 ADD SWAP1 POP DUP2 DUP2 SUB PUSH0 DUP4 ADD MSTORE PUSH2 0x255D DUP2 PUSH2 0x2524 JUMP JUMPDEST SWAP1 POP SWAP2 SWAP1 POP JUMP JUMPDEST PUSH32 0x5472616E7366657220746F207A65726F20616464726573730000000000000000 PUSH0 DUP3 ADD MSTORE POP JUMP JUMPDEST PUSH0 PUSH2 0x2598 PUSH1 0x18 DUP4 PUSH2 0x1BE1 JUMP JUMPDEST SWAP2 POP PUSH2 0x25A3 DUP3 PUSH2 0x2564 JUMP JUMPDEST PUSH1 0x20 DUP3 ADD SWAP1 POP SWAP2 SWAP1 POP JUMP JUMPDEST PUSH0 PUSH1 0x20 DUP3 ADD SWAP1 POP DUP2 DUP2 SUB PUSH0 DUP4 ADD MSTORE PUSH2 0x25C5 DUP2 PUSH2 0x258C JUMP JUMPDEST SWAP1 POP SWAP2 SWAP1 POP JUMP JUMPDEST PUSH32 0x496E73756666696369656E742062616C616E6365000000000000000000000000 PUSH0 DUP3 ADD MSTORE POP JUMP JUMPDEST PUSH0 PUSH2 0x2600 PUSH1 0x14 DUP4 PUSH2 0x1BE1 JUMP JUMPDEST SWAP2 POP PUSH2 0x260B DUP3 PUSH2 0x25CC JUMP JUMPDEST PUSH1 0x20 DUP3 ADD SWAP1 POP SWAP2 SWAP1 POP JUMP JUMPDEST PUSH0 PUSH1 0x20 DUP3 ADD SWAP1 POP DUP2 DUP2 SUB PUSH0 DUP4 ADD MSTORE PUSH2 0x262D DUP2 PUSH2 0x25F4 JUMP JUMPDEST SWAP1 POP SWAP2 SWAP1 POP JUMP JUMPDEST PUSH32 0x496E73756666696369656E7420616C6C6F77616E636500000000000000000000 PUSH0 DUP3 ADD MSTORE POP JUMP JUMPDEST PUSH0 PUSH2 0x2668 PUSH1 0x16 DUP4 PUSH2 0x1BE1 JUMP JUMPDEST SWAP2 POP PUSH2 0x2673 DUP3 PUSH2 0x2634 JUMP JUMPDEST PUSH1 0x20 DUP3 ADD SWAP1 POP SWAP2 SWAP1 POP JUMP JUMPDEST PUSH0 PUSH1 0x20 DUP3 ADD SWAP1 POP DUP2 DUP2 SUB PUSH0 DUP4 ADD MSTORE PUSH2 0x2695 DUP2 PUSH2 0x265C JUMP JUMPDEST SWAP1 POP SWAP2 SWAP1 POP JUMP JUMPDEST PUSH32 0x417070726F766520746F207A65726F2061646472657373000000000000000000 PUSH0 DUP3 ADD MSTORE POP JUMP JUMPDEST PUSH0 PUSH2 0x26D0 PUSH1 0x17 DUP4 PUSH2 0x1BE1 JUMP JUMPDEST SWAP2 POP PUSH2 0x26DB DUP3 PUSH2 0x269C JUMP JUMPDEST PUSH1 0x20 DUP3 ADD SWAP1 POP SWAP2 SWAP1 POP JUMP JUMPDEST PUSH0 PUSH1 0x20 DUP3 ADD SWAP1 POP DUP2 DUP2 SUB PUSH0 DUP4 ADD MSTORE PUSH2 0x26FD DUP2 PUSH2 0x26C4 JUMP JUMPDEST SWAP1 POP SWAP2 SWAP1 POP JUMP JUMPDEST PUSH32 0x496E76616C696420616464726573730000000000000000000000000000000000 PUSH0 DUP3 ADD MSTORE POP JUMP JUMPDEST PUSH0 PUSH2 0x2738 PUSH1 0xF DUP4 PUSH2 0x1BE1 JUMP JUMPDEST SWAP2 POP PUSH2 0x2743 DUP3 PUSH2 0x2704 JUMP JUMPDEST PUSH1 0x20 DUP3 ADD SWAP1 POP SWAP2 SWAP1 POP JUMP JUMPDEST PUSH0 PUSH1 0x20 DUP3 ADD SWAP1 POP DUP2 DUP2 SUB PUSH0 DUP4 ADD MSTORE PUSH2 0x2765 DUP2 PUSH2 0x272C JUMP JUMPDEST SWAP1 POP SWAP2 SWAP1 POP JUMP JUMPDEST PUSH32 0x5061757361626C653A2070617573656400000000000000000000000000000000 PUSH0 DUP3 ADD MSTORE POP JUMP JUMPDEST PUSH0 PUSH2 0x27A0 PUSH1 0x10 DUP4 PUSH2 0x1BE1 JUMP JUMPDEST SWAP2 POP PUSH2 0x27AB DUP3 PUSH2 0x276C JUMP JUMPDEST PUSH1 0x20 DUP3 ADD SWAP1 POP SWAP2 SWAP1 POP JUMP JUMPDEST PUSH0 PUSH1 0x20 DUP3 ADD SWAP1 POP DUP2 DUP2 SUB PUSH0 DUP4 ADD MSTORE PUSH2 0x27CD DUP2 PUSH2 0x2794 JUMP JUMPDEST SWAP1 POP SWAP2 SWAP1 POP JUMP JUMPDEST PUSH0 PUSH2 0x27DE DUP3 PUSH2 0x19CB JUMP JUMPDEST SWAP2 POP PUSH32 0xFFFFFFFFFFFFFFFFFFFFFFFFFFFFFFFFFFFFFFFFFFFFFFFFFFFFFFFFFFFFFFFF DUP3 SUB PUSH2 0x2810 JUMPI PUSH2 0x280F PUSH2 0x1E75 JUMP JUMPDEST JUMPDEST PUSH1 0x1 DUP3 ADD SWAP1 POP SWAP2 SWAP1 POP JUMP JUMPDEST PUSH0 PUSH2 0x2825 DUP3 PUSH2 0x19CB JUMP JUMPDEST SWAP2 POP PUSH2 0x2830 DUP4 PUSH2 0x19CB JUMP JUMPDEST SWAP3 POP DUP3 PUSH2 0x2840 JUMPI PUSH2 0x283F PUSH2 0x23D9 JUMP JUMPDEST JUMPDEST DUP3 DUP3 MOD SWAP1 POP SWAP3 SWAP2 POP POP JUMP JUMPDEST PUSH32 0x4E487B7100000000000000000000000000000000000000000000000000000000 PUSH0 MSTORE PUSH1 0x32 PUSH1 0x4 MSTORE PUSH1 0x24 PUSH0 REVERT JUMPDEST PUSH32 0x4D696E7420746F207A65726F2061646472657373000000000000000000000000 PUSH0 DUP3 ADD MSTORE POP JUMP JUMPDEST PUSH0 PUSH2 0x28AC PUSH1 0x14 DUP4 PUSH2 0x1BE1 JUMP JUMPDEST SWAP2 POP PUSH2 0x28B7 DUP3 PUSH2 0x2878 JUMP JUMPDEST PUSH1 0x20 DUP3 ADD SWAP1 POP SWAP2 SWAP1 POP JUMP JUMPDEST PUSH0 PUSH1 0x20 DUP3 ADD SWAP1 POP DUP2 DUP2 SUB PUSH0 DUP4 ADD MSTORE PUSH2 0x28D9 DUP2 PUSH2 0x28A0 JUMP JUMPDEST SWAP1 POP SWAP2 SWAP1 POP JUMP JUMPDEST PUSH32 0x5265656E7472616E637947756172643A207265656E7472616E742063616C6C00 PUSH0 DUP3 ADD MSTORE POP JUMP JUMPDEST PUSH0 PUSH2 0x2914 PUSH1 0x1F DUP4 PUSH2 0x1BE1 JUMP JUMPDEST SWAP2 POP PUSH2 0x291F DUP3 PUSH2 0x28E0 JUMP JUMPDEST PUSH1 0x20 DUP3 ADD SWAP1 POP SWAP2 SWAP1 POP JUMP JUMPDEST PUSH0 PUSH1 0x20 DUP3 ADD SWAP1 POP DUP2 DUP2 SUB PUSH0 DUP4 ADD MSTORE PUSH2 0x2941 DUP2 PUSH2 0x2908 JUMP JUMPDEST SWAP1 POP SWAP2 SWAP1 POP JUMP JUMPDEST PUSH32 0x5061757361626C653A206E6F7420706175736564000000000000000000000000 PUSH0 DUP3 ADD MSTORE POP JUMP JUMPDEST PUSH0 PUSH2 0x297C PUSH1 0x14 DUP4 PUSH2 0x1BE1 JUMP JUMPDEST SWAP2 POP PUSH2 0x2987 DUP3 PUSH2 0x2948 JUMP JUMPDEST PUSH1 0x20 DUP3 ADD SWAP1 POP SWAP2 SWAP1 POP JUMP JUMPDEST PUSH0 PUSH1 0x20 DUP3 ADD SWAP1 POP DUP2 DUP2 SUB PUSH0 DUP4 ADD MSTORE PUSH2 0x29A9 DUP2 PUSH2 0x2970 JUMP JUMPDEST SWAP1 POP SWAP2 SWAP1 POP JUMP INVALID LOG2 PUSH5 0x6970667358 0x22 SLT KECCAK256 0xE9 0x5C 0x4D DIV CALLVALUE PUSH18 0x4CB8E98CD6CDF5968A867215C2F8C7DC4B9D PUSH2 0x8C36 DUP12 LT 0xD7 STOP SWAP15 PUSH5 0x736F6C6343 STOP ADDMOD EQ STOP CALLER "
				},
				"gasEstimates": {
					"creation": {
						"codeDepositCost": "2145200",
						"executionCost": "infinite",
						"totalCost": "infinite"
					},
					"external": {
						"TOTAL_SHARES()": "414",
						"allowance(address,address,uint256)": "infinite",
						"approve(uint256,address,uint256)": "infinite",
						"balanceOf(address,uint256)": "infinite",
						"createSharesForPainting(uint256,address,address,address,address,uint256,uint256,uint256)": "infinite",
						"getShareInfo(uint256)": "infinite",
						"owner()": "2559",
						"paintingNFTContract()": "2531",
						"pause()": "infinite",
						"paused()": "2547",
						"renounceOwnership()": "infinite",
						"setPaintingNFTContract(address)": "infinite",
						"shares(uint256)": "infinite",
						"transfer(uint256,address,uint256)": "infinite",
						"transferFrom(uint256,address,address,uint256)": "infinite",
						"transferOwnership(address)": "infinite",
						"unpause()": "infinite"
					},
					"internal": {
						"_mintShares(uint256,address,uint256)": "infinite",
						"_toString(uint256)": "infinite",
						"_transfer(uint256,address,address,uint256)": "infinite"
					}
				},
				"methodIdentifiers": {
					"TOTAL_SHARES()": "85e3f997",
					"allowance(address,address,uint256)": "598af9e7",
					"approve(uint256,address,uint256)": "8cb0a511",
					"balanceOf(address,uint256)": "00fdd58e",
					"createSharesForPainting(uint256,address,address,address,address,uint256,uint256,uint256)": "17ba1245",
					"getShareInfo(uint256)": "1d92d3b9",
					"owner()": "8da5cb5b",
					"paintingNFTContract()": "277b9efe",
					"pause()": "8456cb59",
					"paused()": "5c975abb",
					"renounceOwnership()": "715018a6",
					"setPaintingNFTContract(address)": "ad324cce",
					"shares(uint256)": "57a858fc",
					"transfer(uint256,address,uint256)": "f8548e36",
					"transferFrom(uint256,address,address,uint256)": "1c0f12b6",
					"transferOwnership(address)": "f2fde38b",
					"unpause()": "3f4ba83a"
				}
			},
			"storageLayout": {
				"storage": [
					{
						"astId": 8,
						"contract": "Wallery/PaintingShares.sol:PaintingShares",
						"label": "_owner",
						"offset": 0,
						"slot": "0",
						"type": "t_address"
					},
					{
						"astId": 165,
						"contract": "Wallery/PaintingShares.sol:PaintingShares",
						"label": "_paused",
						"offset": 20,
						"slot": "0",
						"type": "t_bool"
					},
					{
						"astId": 266,
						"contract": "Wallery/PaintingShares.sol:PaintingShares",
						"label": "_status",
						"offset": 0,
						"slot": "1",
						"type": "t_uint256"
					},
					{
						"astId": 382,
						"contract": "Wallery/PaintingShares.sol:PaintingShares",
						"label": "shares",
						"offset": 0,
						"slot": "2",
						"type": "t_mapping(t_uint256,t_struct(ShareInfo)377_storage)"
					},
					{
						"astId": 388,
						"contract": "Wallery/PaintingShares.sol:PaintingShares",
						"label": "balanceOf",
						"offset": 0,
						"slot": "3",
						"type": "t_mapping(t_address,t_mapping(t_uint256,t_uint256))"
					},
					{
						"astId": 396,
						"contract": "Wallery/PaintingShares.sol:PaintingShares",
						"label": "allowance",
						"offset": 0,
						"slot": "4",
						"type": "t_mapping(t_address,t_mapping(t_address,t_mapping(t_uint256,t_uint256)))"
					},
					{
						"astId": 398,
						"contract": "Wallery/PaintingShares.sol:PaintingShares",
						"label": "paintingNFTContract",
						"offset": 0,
						"slot": "5",
						"type": "t_address"
					}
				],
				"types": {
					"t_address": {
						"encoding": "inplace",
						"label": "address",
						"numberOfBytes": "20"
					},
					"t_bool": {
						"encoding": "inplace",
						"label": "bool",
						"numberOfBytes": "1"
					},
					"t_mapping(t_address,t_mapping(t_address,t_mapping(t_uint256,t_uint256)))": {
						"encoding": "mapping",
						"key": "t_address",
						"label": "mapping(address => mapping(address => mapping(uint256 => uint256)))",
						"numberOfBytes": "32",
						"value": "t_mapping(t_address,t_mapping(t_uint256,t_uint256))"
					},
					"t_mapping(t_address,t_mapping(t_uint256,t_uint256))": {
						"encoding": "mapping",
						"key": "t_address",
						"label": "mapping(address => mapping(uint256 => uint256))",
						"numberOfBytes": "32",
						"value": "t_mapping(t_uint256,t_uint256)"
					},
					"t_mapping(t_address,t_uint256)": {
						"encoding": "mapping",
						"key": "t_address",
						"label": "mapping(address => uint256)",
						"numberOfBytes": "32",
						"value": "t_uint256"
					},
					"t_mapping(t_uint256,t_struct(ShareInfo)377_storage)": {
						"encoding": "mapping",
						"key": "t_uint256",
						"label": "mapping(uint256 => struct PaintingShares.ShareInfo)",
						"numberOfBytes": "32",
						"value": "t_struct(ShareInfo)377_storage"
					},
					"t_mapping(t_uint256,t_uint256)": {
						"encoding": "mapping",
						"key": "t_uint256",
						"label": "mapping(uint256 => uint256)",
						"numberOfBytes": "32",
						"value": "t_uint256"
					},
					"t_string_storage": {
						"encoding": "bytes",
						"label": "string",
						"numberOfBytes": "32"
					},
					"t_struct(ShareInfo)377_storage": {
						"encoding": "inplace",
						"label": "struct PaintingShares.ShareInfo",
						"members": [
							{
								"astId": 366,
								"contract": "Wallery/PaintingShares.sol:PaintingShares",
								"label": "name",
								"offset": 0,
								"slot": "0",
								"type": "t_string_storage"
							},
							{
								"astId": 368,
								"contract": "Wallery/PaintingShares.sol:PaintingShares",
								"label": "symbol",
								"offset": 0,
								"slot": "1",
								"type": "t_string_storage"
							},
							{
								"astId": 370,
								"contract": "Wallery/PaintingShares.sol:PaintingShares",
								"label": "totalSupply",
								"offset": 0,
								"slot": "2",
								"type": "t_uint256"
							},
							{
								"astId": 372,
								"contract": "Wallery/PaintingShares.sol:PaintingShares",
								"label": "exists",
								"offset": 0,
								"slot": "3",
								"type": "t_bool"
							},
							{
								"astId": 376,
								"contract": "Wallery/PaintingShares.sol:PaintingShares",
								"label": "balances",
								"offset": 0,
								"slot": "4",
								"type": "t_mapping(t_address,t_uint256)"
							}
						],
						"numberOfBytes": "160"
					},
					"t_uint256": {
						"encoding": "inplace",
						"label": "uint256",
						"numberOfBytes": "32"
					}
				}
			},
			"userdoc": {
				"kind": "user",
				"methods": {},
				"version": 1
			}
		}
	}
}