{
	"Wallery/PaintingShares.sol": {
		"PaintingShares": {
			"abi": [
				{
					"inputs": [
						{
							"internalType": "address",
							"name": "initialOwner",
							"type": "address"
						}
					],
					"stateMutability": "nonpayable",
					"type": "constructor"
				},
				{
					"inputs": [
						{
							"internalType": "address",
							"name": "owner",
							"type": "address"
						}
					],
					"name": "OwnableInvalidOwner",
					"type": "error"
				},
				{
					"inputs": [
						{
							"internalType": "address",
							"name": "account",
							"type": "address"
						}
					],
					"name": "OwnableUnauthorizedAccount",
					"type": "error"
				},
				{
					"anonymous": false,
					"inputs": [
						{
							"indexed": true,
							"internalType": "uint256",
							"name": "paintingId",
							"type": "uint256"
						},
						{
							"indexed": true,
							"internalType": "address",
							"name": "owner",
							"type": "address"
						},
						{
							"indexed": true,
							"internalType": "address",
							"name": "spender",
							"type": "address"
						},
						{
							"indexed": false,
							"internalType": "uint256",
							"name": "value",
							"type": "uint256"
						}
					],
					"name": "Approval",
					"type": "event"
				},
				{
					"anonymous": false,
					"inputs": [
						{
							"indexed": true,
							"internalType": "address",
							"name": "previousOwner",
							"type": "address"
						},
						{
							"indexed": true,
							"internalType": "address",
							"name": "newOwner",
							"type": "address"
						}
					],
					"name": "OwnershipTransferred",
					"type": "event"
				},
				{
					"anonymous": false,
					"inputs": [
						{
							"indexed": false,
							"internalType": "address",
							"name": "account",
							"type": "address"
						}
					],
					"name": "Paused",
					"type": "event"
				},
				{
					"anonymous": false,
					"inputs": [
						{
							"indexed": true,
							"internalType": "uint256",
							"name": "paintingId",
							"type": "uint256"
						},
						{
							"indexed": false,
							"internalType": "string",
							"name": "name",
							"type": "string"
						},
						{
							"indexed": false,
							"internalType": "string",
							"name": "symbol",
							"type": "string"
						},
						{
							"indexed": false,
							"internalType": "uint256",
							"name": "platformShares",
							"type": "uint256"
						},
						{
							"indexed": false,
							"internalType": "uint256",
							"name": "wallOwnerShares",
							"type": "uint256"
						},
						{
							"indexed": false,
							"internalType": "uint256",
							"name": "galleryOwnerShares",
							"type": "uint256"
						},
						{
							"indexed": false,
							"internalType": "uint256",
							"name": "painterShares",
							"type": "uint256"
						}
					],
					"name": "SharesCreated",
					"type": "event"
				},
				{
					"anonymous": false,
					"inputs": [
						{
							"indexed": true,
							"internalType": "uint256",
							"name": "paintingId",
							"type": "uint256"
						},
						{
							"indexed": true,
							"internalType": "address",
							"name": "from",
							"type": "address"
						},
						{
							"indexed": true,
							"internalType": "address",
							"name": "to",
							"type": "address"
						},
						{
							"indexed": false,
							"internalType": "uint256",
							"name": "value",
							"type": "uint256"
						}
					],
					"name": "Transfer",
					"type": "event"
				},
				{
					"anonymous": false,
					"inputs": [
						{
							"indexed": false,
							"internalType": "address",
							"name": "account",
							"type": "address"
						}
					],
					"name": "Unpaused",
					"type": "event"
				},
				{
					"inputs": [],
					"name": "TOTAL_SHARES",
					"outputs": [
						{
							"internalType": "uint256",
							"name": "",
							"type": "uint256"
						}
					],
					"stateMutability": "view",
					"type": "function"
				},
				{
					"inputs": [
						{
							"internalType": "address",
							"name": "",
							"type": "address"
						},
						{
							"internalType": "address",
							"name": "",
							"type": "address"
						},
						{
							"internalType": "uint256",
							"name": "",
							"type": "uint256"
						}
					],
					"name": "allowance",
					"outputs": [
						{
							"internalType": "uint256",
							"name": "",
							"type": "uint256"
						}
					],
					"stateMutability": "view",
					"type": "function"
				},
				{
					"inputs": [
						{
							"internalType": "uint256",
							"name": "paintingId",
							"type": "uint256"
						},
						{
							"internalType": "address",
							"name": "spender",
							"type": "address"
						},
						{
							"internalType": "uint256",
							"name": "amount",
							"type": "uint256"
						}
					],
					"name": "approve",
					"outputs": [
						{
							"internalType": "bool",
							"name": "",
							"type": "bool"
						}
					],
					"stateMutability": "nonpayable",
					"type": "function"
				},
				{
					"inputs": [
						{
							"internalType": "address",
							"name": "",
							"type": "address"
						},
						{
							"internalType": "uint256",
							"name": "",
							"type": "uint256"
						}
					],
					"name": "balanceOf",
					"outputs": [
						{
							"internalType": "uint256",
							"name": "",
							"type": "uint256"
						}
					],
					"stateMutability": "view",
					"type": "function"
				},
				{
					"inputs": [
						{
							"internalType": "uint256",
							"name": "paintingId",
							"type": "uint256"
						},
						{
							"internalType": "address",
							"name": "platformAdmin",
							"type": "address"
						},
						{
							"internalType": "address",
							"name": "wallOwner",
							"type": "address"
						},
						{
							"internalType": "address",
							"name": "galleryOwner",
							"type": "address"
						},
						{
							"internalType": "address",
							"name": "painter",
							"type": "address"
						},
						{
							"internalType": "uint256",
							"name": "platformPercentage",
							"type": "uint256"
						},
						{
							"internalType": "uint256",
							"name": "wallOwnerPercentage",
							"type": "uint256"
						},
						{
							"internalType": "uint256",
							"name": "galleryOwnerPercentage",
							"type": "uint256"
						}
					],
					"name": "createSharesForPainting",
					"outputs": [],
					"stateMutability": "nonpayable",
					"type": "function"
				},
				{
					"inputs": [
						{
							"internalType": "uint256",
							"name": "platformPercentage",
							"type": "uint256"
						},
						{
							"internalType": "uint256",
							"name": "wallOwnerPercentage",
							"type": "uint256"
						},
						{
							"internalType": "uint256",
							"name": "galleryOwnerPercentage",
							"type": "uint256"
						}
					],
					"name": "debugShareCalculation",
					"outputs": [
						{
							"internalType": "uint256",
							"name": "platformShares",
							"type": "uint256"
						},
						{
							"internalType": "uint256",
							"name": "wallOwnerShares",
							"type": "uint256"
						},
						{
							"internalType": "uint256",
							"name": "galleryOwnerShares",
							"type": "uint256"
						},
						{
							"internalType": "uint256",
							"name": "remainingShares",
							"type": "uint256"
						}
					],
					"stateMutability": "pure",
					"type": "function"
				},
				{
					"inputs": [
						{
							"internalType": "uint256",
							"name": "paintingId",
							"type": "uint256"
						}
					],
					"name": "getShareInfo",
					"outputs": [
						{
							"internalType": "string",
							"name": "name",
							"type": "string"
						},
						{
							"internalType": "string",
							"name": "symbol",
							"type": "string"
						},
						{
							"internalType": "uint256",
							"name": "totalSupply",
							"type": "uint256"
						},
						{
							"internalType": "bool",
							"name": "exists",
							"type": "bool"
						}
					],
					"stateMutability": "view",
					"type": "function"
				},
				{
					"inputs": [],
					"name": "owner",
					"outputs": [
						{
							"internalType": "address",
							"name": "",
							"type": "address"
						}
					],
					"stateMutability": "view",
					"type": "function"
				},
				{
					"inputs": [],
					"name": "paintingNFTContract",
					"outputs": [
						{
							"internalType": "address",
							"name": "",
							"type": "address"
						}
					],
					"stateMutability": "view",
					"type": "function"
				},
				{
					"inputs": [],
					"name": "pause",
					"outputs": [],
					"stateMutability": "nonpayable",
					"type": "function"
				},
				{
					"inputs": [],
					"name": "paused",
					"outputs": [
						{
							"internalType": "bool",
							"name": "",
							"type": "bool"
						}
					],
					"stateMutability": "view",
					"type": "function"
				},
				{
					"inputs": [],
					"name": "renounceOwnership",
					"outputs": [],
					"stateMutability": "nonpayable",
					"type": "function"
				},
				{
					"inputs": [
						{
							"internalType": "address",
							"name": "_paintingNFTContract",
							"type": "address"
						}
					],
					"name": "setPaintingNFTContract",
					"outputs": [],
					"stateMutability": "nonpayable",
					"type": "function"
				},
				{
					"inputs": [
						{
							"internalType": "uint256",
							"name": "",
							"type": "uint256"
						}
					],
					"name": "shares",
					"outputs": [
						{
							"internalType": "string",
							"name": "name",
							"type": "string"
						},
						{
							"internalType": "string",
							"name": "symbol",
							"type": "string"
						},
						{
							"internalType": "uint256",
							"name": "totalSupply",
							"type": "uint256"
						},
						{
							"internalType": "bool",
							"name": "exists",
							"type": "bool"
						}
					],
					"stateMutability": "view",
					"type": "function"
				},
				{
					"inputs": [
						{
							"internalType": "uint256",
							"name": "paintingId",
							"type": "uint256"
						},
						{
							"internalType": "address",
							"name": "to",
							"type": "address"
						},
						{
							"internalType": "uint256",
							"name": "amount",
							"type": "uint256"
						}
					],
					"name": "transfer",
					"outputs": [
						{
							"internalType": "bool",
							"name": "",
							"type": "bool"
						}
					],
					"stateMutability": "nonpayable",
					"type": "function"
				},
				{
					"inputs": [
						{
							"internalType": "uint256",
							"name": "paintingId",
							"type": "uint256"
						},
						{
							"internalType": "address",
							"name": "from",
							"type": "address"
						},
						{
							"internalType": "address",
							"name": "to",
							"type": "address"
						},
						{
							"internalType": "uint256",
							"name": "amount",
							"type": "uint256"
						}
					],
					"name": "transferFrom",
					"outputs": [
						{
							"internalType": "bool",
							"name": "",
							"type": "bool"
						}
					],
					"stateMutability": "nonpayable",
					"type": "function"
				},
				{
					"inputs": [
						{
							"internalType": "address",
							"name": "newOwner",
							"type": "address"
						}
					],
					"name": "transferOwnership",
					"outputs": [],
					"stateMutability": "nonpayable",
					"type": "function"
				},
				{
					"inputs": [],
					"name": "unpause",
					"outputs": [],
					"stateMutability": "nonpayable",
					"type": "function"
				}
			],
			"devdoc": {
				"errors": {
					"OwnableInvalidOwner(address)": [
						{
							"details": "The owner is not a valid owner account. (eg. `address(0)`)"
						}
					],
					"OwnableUnauthorizedAccount(address)": [
						{
							"details": "The caller account is not authorized to perform an operation."
						}
					]
				},
				"events": {
					"Paused(address)": {
						"details": "Emitted when the pause is triggered by `account`."
					},
					"Unpaused(address)": {
						"details": "Emitted when the pause is lifted by `account`."
					}
				},
				"kind": "dev",
				"methods": {
					"owner()": {
						"details": "Returns the address of the current owner."
					},
					"paused()": {
						"details": "Returns true if the contract is paused, and false otherwise."
					},
					"renounceOwnership()": {
						"details": "Leaves the contract without owner. It will not be possible to call `onlyOwner` functions. Can only be called by the current owner. NOTE: Renouncing ownership will leave the contract without an owner, thereby disabling any functionality that is only available to the owner."
					},
					"transferOwnership(address)": {
						"details": "Transfers ownership of the contract to a new account (`newOwner`). Can only be called by the current owner."
					}
				},
				"version": 1
			},
			"evm": {
				"assembly": "    /* \"Wallery/PaintingShares.sol\":237:7935  contract PaintingShares is Ownable, Pausable, ReentrancyGuard {... */\n  mstore(0x40, 0x80)\n    /* \"Wallery/PaintingShares.sol\":1503:1628  constructor(address initialOwner) Ownable(initialOwner) {... */\n  callvalue\n  dup1\n  iszero\n  tag_1\n  jumpi\n  0x00\n  dup1\n  revert\ntag_1:\n  pop\n  mload(0x40)\n  sub(codesize, bytecodeSize)\n  dup1\n  bytecodeSize\n  dup4\n  codecopy\n  dup2\n  dup2\n  add\n  0x40\n  mstore\n  dup2\n  add\n  swap1\n  tag_2\n  swap2\n  swap1\n  tag_3\n  jump\t// in\ntag_2:\n    /* \"Wallery/PaintingShares.sol\":1545:1557  initialOwner */\n  dup1\n    /* \"@openzeppelin/contracts/access/Ownable.sol\":1297:1298  0 */\n  0x00\n    /* \"@openzeppelin/contracts/access/Ownable.sol\":1273:1299  initialOwner == address(0) */\n  0xffffffffffffffffffffffffffffffffffffffff\n  and\n    /* \"@openzeppelin/contracts/access/Ownable.sol\":1273:1285  initialOwner */\n  dup2\n    /* \"@openzeppelin/contracts/access/Ownable.sol\":1273:1299  initialOwner == address(0) */\n  0xffffffffffffffffffffffffffffffffffffffff\n  and\n  sub\n    /* \"@openzeppelin/contracts/access/Ownable.sol\":1269:1364  if (initialOwner == address(0)) {... */\n  tag_9\n  jumpi\n    /* \"@openzeppelin/contracts/access/Ownable.sol\":1350:1351  0 */\n  0x00\n    /* \"@openzeppelin/contracts/access/Ownable.sol\":1322:1353  OwnableInvalidOwner(address(0)) */\n  mload(0x40)\n  0x1e4fbdf700000000000000000000000000000000000000000000000000000000\n  dup2\n  mstore\n  0x04\n  add\n  tag_10\n  swap2\n  swap1\n  tag_11\n  jump\t// in\ntag_10:\n  mload(0x40)\n  dup1\n  swap2\n  sub\n  swap1\n  revert\n    /* \"@openzeppelin/contracts/access/Ownable.sol\":1269:1364  if (initialOwner == address(0)) {... */\ntag_9:\n    /* \"@openzeppelin/contracts/access/Ownable.sol\":1373:1405  _transferOwnership(initialOwner) */\n  tag_12\n    /* \"@openzeppelin/contracts/access/Ownable.sol\":1392:1404  initialOwner */\n  dup2\n    /* \"@openzeppelin/contracts/access/Ownable.sol\":1373:1391  _transferOwnership */\n  shl(0x20, tag_13)\n    /* \"@openzeppelin/contracts/access/Ownable.sol\":1373:1405  _transferOwnership(initialOwner) */\n  0x20\n  shr\n  jump\t// in\ntag_12:\n    /* \"@openzeppelin/contracts/access/Ownable.sol\":1225:1412  constructor(address initialOwner) {... */\n  pop\n    /* \"@openzeppelin/contracts/security/Pausable.sol\":1006:1011  false */\n  0x00\n    /* \"@openzeppelin/contracts/security/Pausable.sol\":996:1003  _paused */\n  dup1\n  0x14\n    /* \"@openzeppelin/contracts/security/Pausable.sol\":996:1011  _paused = false */\n  0x0100\n  exp\n  dup2\n  sload\n  dup2\n  0xff\n  mul\n  not\n  and\n  swap1\n  dup4\n  iszero\n  iszero\n  mul\n  or\n  swap1\n  sstore\n  pop\n    /* \"@openzeppelin/contracts/security/ReentrancyGuard.sol\":1716:1717  1 */\n  0x01\n    /* \"@openzeppelin/contracts/security/ReentrancyGuard.sol\":1821:1828  _status */\n  dup1\n    /* \"@openzeppelin/contracts/security/ReentrancyGuard.sol\":1821:1843  _status = _NOT_ENTERED */\n  dup2\n  swap1\n  sstore\n  pop\n    /* \"Wallery/PaintingShares.sol\":1566:1574  _pause() */\n  tag_17\n    /* \"Wallery/PaintingShares.sol\":1566:1572  _pause */\n  shl(0x20, tag_18)\n    /* \"Wallery/PaintingShares.sol\":1566:1574  _pause() */\n  0x20\n  shr\n  jump\t// in\ntag_17:\n    /* \"Wallery/PaintingShares.sol\":1503:1628  constructor(address initialOwner) Ownable(initialOwner) {... */\n  pop\n    /* \"Wallery/PaintingShares.sol\":237:7935  contract PaintingShares is Ownable, Pausable, ReentrancyGuard {... */\n  jump(tag_19)\n    /* \"@openzeppelin/contracts/access/Ownable.sol\":2912:3099  function _transferOwnership(address newOwner) internal virtual {... */\ntag_13:\n    /* \"@openzeppelin/contracts/access/Ownable.sol\":2985:3001  address oldOwner */\n  0x00\n    /* \"@openzeppelin/contracts/access/Ownable.sol\":3004:3010  _owner */\n  dup1\n  0x00\n  swap1\n  sload\n  swap1\n  0x0100\n  exp\n  swap1\n  div\n  0xffffffffffffffffffffffffffffffffffffffff\n  and\n    /* \"@openzeppelin/contracts/access/Ownable.sol\":2985:3010  address oldOwner = _owner */\n  swap1\n  pop\n    /* \"@openzeppelin/contracts/access/Ownable.sol\":3029:3037  newOwner */\n  dup2\n    /* \"@openzeppelin/contracts/access/Ownable.sol\":3020:3026  _owner */\n  0x00\n  dup1\n    /* \"@openzeppelin/contracts/access/Ownable.sol\":3020:3037  _owner = newOwner */\n  0x0100\n  exp\n  dup2\n  sload\n  dup2\n  0xffffffffffffffffffffffffffffffffffffffff\n  mul\n  not\n  and\n  swap1\n  dup4\n  0xffffffffffffffffffffffffffffffffffffffff\n  and\n  mul\n  or\n  swap1\n  sstore\n  pop\n    /* \"@openzeppelin/contracts/access/Ownable.sol\":3083:3091  newOwner */\n  dup2\n    /* \"@openzeppelin/contracts/access/Ownable.sol\":3052:3092  OwnershipTransferred(oldOwner, newOwner) */\n  0xffffffffffffffffffffffffffffffffffffffff\n  and\n    /* \"@openzeppelin/contracts/access/Ownable.sol\":3073:3081  oldOwner */\n  dup2\n    /* \"@openzeppelin/contracts/access/Ownable.sol\":3052:3092  OwnershipTransferred(oldOwner, newOwner) */\n  0xffffffffffffffffffffffffffffffffffffffff\n  and\n  0x8be0079c531659141344cd1fd0a4f28419497f9722a3daafe3b4186f6b6457e0\n  mload(0x40)\n  mload(0x40)\n  dup1\n  swap2\n  sub\n  swap1\n  log3\n    /* \"@openzeppelin/contracts/access/Ownable.sol\":2975:3099  {... */\n  pop\n    /* \"@openzeppelin/contracts/access/Ownable.sol\":2912:3099  function _transferOwnership(address newOwner) internal virtual {... */\n  pop\n  jump\t// out\n    /* \"@openzeppelin/contracts/security/Pausable.sol\":2186:2301  function _pause() internal virtual whenNotPaused {... */\ntag_18:\n    /* \"@openzeppelin/contracts/security/Pausable.sol\":1239:1258  _requireNotPaused() */\n  tag_22\n    /* \"@openzeppelin/contracts/security/Pausable.sol\":1239:1256  _requireNotPaused */\n  shl(0x20, tag_23)\n    /* \"@openzeppelin/contracts/security/Pausable.sol\":1239:1258  _requireNotPaused() */\n  0x20\n  shr\n  jump\t// in\ntag_22:\n    /* \"@openzeppelin/contracts/security/Pausable.sol\":2255:2259  true */\n  0x01\n    /* \"@openzeppelin/contracts/security/Pausable.sol\":2245:2252  _paused */\n  0x00\n  0x14\n    /* \"@openzeppelin/contracts/security/Pausable.sol\":2245:2259  _paused = true */\n  0x0100\n  exp\n  dup2\n  sload\n  dup2\n  0xff\n  mul\n  not\n  and\n  swap1\n  dup4\n  iszero\n  iszero\n  mul\n  or\n  swap1\n  sstore\n  pop\n    /* \"@openzeppelin/contracts/security/Pausable.sol\":2274:2294  Paused(_msgSender()) */\n  0x62e78cea01bee320cd4e420270b5ea74000d11b0c9f74754ebdbfc544b05a258\n    /* \"@openzeppelin/contracts/security/Pausable.sol\":2281:2293  _msgSender() */\n  tag_25\n    /* \"@openzeppelin/contracts/security/Pausable.sol\":2281:2291  _msgSender */\n  shl(0x20, tag_26)\n    /* \"@openzeppelin/contracts/security/Pausable.sol\":2281:2293  _msgSender() */\n  0x20\n  shr\n  jump\t// in\ntag_25:\n    /* \"@openzeppelin/contracts/security/Pausable.sol\":2274:2294  Paused(_msgSender()) */\n  mload(0x40)\n  tag_27\n  swap2\n  swap1\n  tag_11\n  jump\t// in\ntag_27:\n  mload(0x40)\n  dup1\n  swap2\n  sub\n  swap1\n  log1\n    /* \"@openzeppelin/contracts/security/Pausable.sol\":2186:2301  function _pause() internal virtual whenNotPaused {... */\n  jump\t// out\n    /* \"@openzeppelin/contracts/security/Pausable.sol\":1767:1873  function _requireNotPaused() internal view virtual {... */\ntag_23:\n    /* \"@openzeppelin/contracts/security/Pausable.sol\":1837:1845  paused() */\n  tag_29\n    /* \"@openzeppelin/contracts/security/Pausable.sol\":1837:1843  paused */\n  shl(0x20, tag_30)\n    /* \"@openzeppelin/contracts/security/Pausable.sol\":1837:1845  paused() */\n  0x20\n  shr\n  jump\t// in\ntag_29:\n    /* \"@openzeppelin/contracts/security/Pausable.sol\":1836:1845  !paused() */\n  iszero\n    /* \"@openzeppelin/contracts/security/Pausable.sol\":1828:1866  require(!paused(), \"Pausable: paused\") */\n  tag_31\n  jumpi\n  mload(0x40)\n  0x08c379a000000000000000000000000000000000000000000000000000000000\n  dup2\n  mstore\n  0x04\n  add\n  tag_32\n  swap1\n  tag_33\n  jump\t// in\ntag_32:\n  mload(0x40)\n  dup1\n  swap2\n  sub\n  swap1\n  revert\ntag_31:\n    /* \"@openzeppelin/contracts/security/Pausable.sol\":1767:1873  function _requireNotPaused() internal view virtual {... */\n  jump\t// out\n    /* \"@openzeppelin/contracts/utils/Context.sol\":656:752  function _msgSender() internal view virtual returns (address) {... */\ntag_26:\n    /* \"@openzeppelin/contracts/utils/Context.sol\":709:716  address */\n  0x00\n    /* \"@openzeppelin/contracts/utils/Context.sol\":735:745  msg.sender */\n  caller\n    /* \"@openzeppelin/contracts/utils/Context.sol\":728:745  return msg.sender */\n  swap1\n  pop\n    /* \"@openzeppelin/contracts/utils/Context.sol\":656:752  function _msgSender() internal view virtual returns (address) {... */\n  swap1\n  jump\t// out\n    /* \"@openzeppelin/contracts/security/Pausable.sol\":1615:1699  function paused() public view virtual returns (bool) {... */\ntag_30:\n    /* \"@openzeppelin/contracts/security/Pausable.sol\":1662:1666  bool */\n  0x00\n    /* \"@openzeppelin/contracts/security/Pausable.sol\":1685:1692  _paused */\n  dup1\n  0x14\n  swap1\n  sload\n  swap1\n  0x0100\n  exp\n  swap1\n  div\n  0xff\n  and\n    /* \"@openzeppelin/contracts/security/Pausable.sol\":1678:1692  return _paused */\n  swap1\n  pop\n    /* \"@openzeppelin/contracts/security/Pausable.sol\":1615:1699  function paused() public view virtual returns (bool) {... */\n  swap1\n  jump\t// out\n    /* \"#utility.yul\":88:205   */\ntag_37:\n    /* \"#utility.yul\":197:198   */\n  0x00\n    /* \"#utility.yul\":194:195   */\n  dup1\n    /* \"#utility.yul\":187:199   */\n  revert\n    /* \"#utility.yul\":334:460   */\ntag_39:\n    /* \"#utility.yul\":371:378   */\n  0x00\n    /* \"#utility.yul\":411:453   */\n  0xffffffffffffffffffffffffffffffffffffffff\n    /* \"#utility.yul\":404:409   */\n  dup3\n    /* \"#utility.yul\":400:454   */\n  and\n    /* \"#utility.yul\":389:454   */\n  swap1\n  pop\n    /* \"#utility.yul\":334:460   */\n  swap2\n  swap1\n  pop\n  jump\t// out\n    /* \"#utility.yul\":466:562   */\ntag_40:\n    /* \"#utility.yul\":503:510   */\n  0x00\n    /* \"#utility.yul\":532:556   */\n  tag_53\n    /* \"#utility.yul\":550:555   */\n  dup3\n    /* \"#utility.yul\":532:556   */\n  tag_39\n  jump\t// in\ntag_53:\n    /* \"#utility.yul\":521:556   */\n  swap1\n  pop\n    /* \"#utility.yul\":466:562   */\n  swap2\n  swap1\n  pop\n  jump\t// out\n    /* \"#utility.yul\":568:690   */\ntag_41:\n    /* \"#utility.yul\":641:665   */\n  tag_55\n    /* \"#utility.yul\":659:664   */\n  dup2\n    /* \"#utility.yul\":641:665   */\n  tag_40\n  jump\t// in\ntag_55:\n    /* \"#utility.yul\":634:639   */\n  dup2\n    /* \"#utility.yul\":631:666   */\n  eq\n    /* \"#utility.yul\":621:684   */\n  tag_56\n  jumpi\n    /* \"#utility.yul\":680:681   */\n  0x00\n    /* \"#utility.yul\":677:678   */\n  dup1\n    /* \"#utility.yul\":670:682   */\n  revert\n    /* \"#utility.yul\":621:684   */\ntag_56:\n    /* \"#utility.yul\":568:690   */\n  pop\n  jump\t// out\n    /* \"#utility.yul\":696:839   */\ntag_42:\n    /* \"#utility.yul\":753:758   */\n  0x00\n    /* \"#utility.yul\":784:790   */\n  dup2\n    /* \"#utility.yul\":778:791   */\n  mload\n    /* \"#utility.yul\":769:791   */\n  swap1\n  pop\n    /* \"#utility.yul\":800:833   */\n  tag_58\n    /* \"#utility.yul\":827:832   */\n  dup2\n    /* \"#utility.yul\":800:833   */\n  tag_41\n  jump\t// in\ntag_58:\n    /* \"#utility.yul\":696:839   */\n  swap3\n  swap2\n  pop\n  pop\n  jump\t// out\n    /* \"#utility.yul\":845:1196   */\ntag_3:\n    /* \"#utility.yul\":915:921   */\n  0x00\n    /* \"#utility.yul\":964:966   */\n  0x20\n    /* \"#utility.yul\":952:961   */\n  dup3\n    /* \"#utility.yul\":943:950   */\n  dup5\n    /* \"#utility.yul\":939:962   */\n  sub\n    /* \"#utility.yul\":935:967   */\n  slt\n    /* \"#utility.yul\":932:1051   */\n  iszero\n  tag_60\n  jumpi\n    /* \"#utility.yul\":970:1049   */\n  tag_61\n  tag_37\n  jump\t// in\ntag_61:\n    /* \"#utility.yul\":932:1051   */\ntag_60:\n    /* \"#utility.yul\":1090:1091   */\n  0x00\n    /* \"#utility.yul\":1115:1179   */\n  tag_62\n    /* \"#utility.yul\":1171:1178   */\n  dup5\n    /* \"#utility.yul\":1162:1168   */\n  dup3\n    /* \"#utility.yul\":1151:1160   */\n  dup6\n    /* \"#utility.yul\":1147:1169   */\n  add\n    /* \"#utility.yul\":1115:1179   */\n  tag_42\n  jump\t// in\ntag_62:\n    /* \"#utility.yul\":1105:1179   */\n  swap2\n  pop\n    /* \"#utility.yul\":1061:1189   */\n  pop\n    /* \"#utility.yul\":845:1196   */\n  swap3\n  swap2\n  pop\n  pop\n  jump\t// out\n    /* \"#utility.yul\":1202:1320   */\ntag_43:\n    /* \"#utility.yul\":1289:1313   */\n  tag_64\n    /* \"#utility.yul\":1307:1312   */\n  dup2\n    /* \"#utility.yul\":1289:1313   */\n  tag_40\n  jump\t// in\ntag_64:\n    /* \"#utility.yul\":1284:1287   */\n  dup3\n    /* \"#utility.yul\":1277:1314   */\n  mstore\n    /* \"#utility.yul\":1202:1320   */\n  pop\n  pop\n  jump\t// out\n    /* \"#utility.yul\":1326:1548   */\ntag_11:\n    /* \"#utility.yul\":1419:1423   */\n  0x00\n    /* \"#utility.yul\":1457:1459   */\n  0x20\n    /* \"#utility.yul\":1446:1455   */\n  dup3\n    /* \"#utility.yul\":1442:1460   */\n  add\n    /* \"#utility.yul\":1434:1460   */\n  swap1\n  pop\n    /* \"#utility.yul\":1470:1541   */\n  tag_66\n    /* \"#utility.yul\":1538:1539   */\n  0x00\n    /* \"#utility.yul\":1527:1536   */\n  dup4\n    /* \"#utility.yul\":1523:1540   */\n  add\n    /* \"#utility.yul\":1514:1520   */\n  dup5\n    /* \"#utility.yul\":1470:1541   */\n  tag_43\n  jump\t// in\ntag_66:\n    /* \"#utility.yul\":1326:1548   */\n  swap3\n  swap2\n  pop\n  pop\n  jump\t// out\n    /* \"#utility.yul\":1554:1723   */\ntag_44:\n    /* \"#utility.yul\":1638:1649   */\n  0x00\n    /* \"#utility.yul\":1672:1678   */\n  dup3\n    /* \"#utility.yul\":1667:1670   */\n  dup3\n    /* \"#utility.yul\":1660:1679   */\n  mstore\n    /* \"#utility.yul\":1712:1716   */\n  0x20\n    /* \"#utility.yul\":1707:1710   */\n  dup3\n    /* \"#utility.yul\":1703:1717   */\n  add\n    /* \"#utility.yul\":1688:1717   */\n  swap1\n  pop\n    /* \"#utility.yul\":1554:1723   */\n  swap3\n  swap2\n  pop\n  pop\n  jump\t// out\n    /* \"#utility.yul\":1729:1895   */\ntag_45:\n    /* \"#utility.yul\":1869:1887   */\n  0x5061757361626c653a2070617573656400000000000000000000000000000000\n    /* \"#utility.yul\":1865:1866   */\n  0x00\n    /* \"#utility.yul\":1857:1863   */\n  dup3\n    /* \"#utility.yul\":1853:1867   */\n  add\n    /* \"#utility.yul\":1846:1888   */\n  mstore\n    /* \"#utility.yul\":1729:1895   */\n  pop\n  jump\t// out\n    /* \"#utility.yul\":1901:2267   */\ntag_46:\n    /* \"#utility.yul\":2043:2046   */\n  0x00\n    /* \"#utility.yul\":2064:2131   */\n  tag_70\n    /* \"#utility.yul\":2128:2130   */\n  0x10\n    /* \"#utility.yul\":2123:2126   */\n  dup4\n    /* \"#utility.yul\":2064:2131   */\n  tag_44\n  jump\t// in\ntag_70:\n    /* \"#utility.yul\":2057:2131   */\n  swap2\n  pop\n    /* \"#utility.yul\":2140:2233   */\n  tag_71\n    /* \"#utility.yul\":2229:2232   */\n  dup3\n    /* \"#utility.yul\":2140:2233   */\n  tag_45\n  jump\t// in\ntag_71:\n    /* \"#utility.yul\":2258:2260   */\n  0x20\n    /* \"#utility.yul\":2253:2256   */\n  dup3\n    /* \"#utility.yul\":2249:2261   */\n  add\n    /* \"#utility.yul\":2242:2261   */\n  swap1\n  pop\n    /* \"#utility.yul\":1901:2267   */\n  swap2\n  swap1\n  pop\n  jump\t// out\n    /* \"#utility.yul\":2273:2692   */\ntag_33:\n    /* \"#utility.yul\":2439:2443   */\n  0x00\n    /* \"#utility.yul\":2477:2479   */\n  0x20\n    /* \"#utility.yul\":2466:2475   */\n  dup3\n    /* \"#utility.yul\":2462:2480   */\n  add\n    /* \"#utility.yul\":2454:2480   */\n  swap1\n  pop\n    /* \"#utility.yul\":2526:2535   */\n  dup2\n    /* \"#utility.yul\":2520:2524   */\n  dup2\n    /* \"#utility.yul\":2516:2536   */\n  sub\n    /* \"#utility.yul\":2512:2513   */\n  0x00\n    /* \"#utility.yul\":2501:2510   */\n  dup4\n    /* \"#utility.yul\":2497:2514   */\n  add\n    /* \"#utility.yul\":2490:2537   */\n  mstore\n    /* \"#utility.yul\":2554:2685   */\n  tag_73\n    /* \"#utility.yul\":2680:2684   */\n  dup2\n    /* \"#utility.yul\":2554:2685   */\n  tag_46\n  jump\t// in\ntag_73:\n    /* \"#utility.yul\":2546:2685   */\n  swap1\n  pop\n    /* \"#utility.yul\":2273:2692   */\n  swap2\n  swap1\n  pop\n  jump\t// out\n    /* \"Wallery/PaintingShares.sol\":237:7935  contract PaintingShares is Ownable, Pausable, ReentrancyGuard {... */\ntag_19:\n  dataSize(sub_0)\n  dup1\n  dataOffset(sub_0)\n  0x00\n  codecopy\n  0x00\n  return\nstop\n\nsub_0: assembly {\n        /* \"Wallery/PaintingShares.sol\":237:7935  contract PaintingShares is Ownable, Pausable, ReentrancyGuard {... */\n      mstore(0x40, 0x80)\n      callvalue\n      dup1\n      iszero\n      tag_1\n      jumpi\n      0x00\n      dup1\n      revert\n    tag_1:\n      pop\n      jumpi(tag_2, lt(calldatasize, 0x04))\n      shr(0xe0, calldataload(0x00))\n      dup1\n      0x5c975abb\n      gt\n      tag_21\n      jumpi\n      dup1\n      0x8cb0a511\n      gt\n      tag_22\n      jumpi\n      dup1\n      0x8cb0a511\n      eq\n      tag_16\n      jumpi\n      dup1\n      0x8da5cb5b\n      eq\n      tag_17\n      jumpi\n      dup1\n      0xad324cce\n      eq\n      tag_18\n      jumpi\n      dup1\n      0xf2fde38b\n      eq\n      tag_19\n      jumpi\n      dup1\n      0xf8548e36\n      eq\n      tag_20\n      jumpi\n      jump(tag_2)\n    tag_22:\n      dup1\n      0x5c975abb\n      eq\n      tag_12\n      jumpi\n      dup1\n      0x715018a6\n      eq\n      tag_13\n      jumpi\n      dup1\n      0x8456cb59\n      eq\n      tag_14\n      jumpi\n      dup1\n      0x85e3f997\n      eq\n      tag_15\n      jumpi\n      jump(tag_2)\n    tag_21:\n      dup1\n      0x277b9efe\n      gt\n      tag_23\n      jumpi\n      dup1\n      0x277b9efe\n      eq\n      tag_7\n      jumpi\n      dup1\n      0x3f4ba83a\n      eq\n      tag_8\n      jumpi\n      dup1\n      0x5258ff13\n      eq\n      tag_9\n      jumpi\n      dup1\n      0x57a858fc\n      eq\n      tag_10\n      jumpi\n      dup1\n      0x598af9e7\n      eq\n      tag_11\n      jumpi\n      jump(tag_2)\n    tag_23:\n      dup1\n      0xfdd58e\n      eq\n      tag_3\n      jumpi\n      dup1\n      0x17ba1245\n      eq\n      tag_4\n      jumpi\n      dup1\n      0x1c0f12b6\n      eq\n      tag_5\n      jumpi\n      dup1\n      0x1d92d3b9\n      eq\n      tag_6\n      jumpi\n    tag_2:\n      0x00\n      dup1\n      revert\n        /* \"Wallery/PaintingShares.sol\":665:729  mapping(address => mapping(uint256 => uint256)) public balanceOf */\n    tag_3:\n      tag_24\n      0x04\n      dup1\n      calldatasize\n      sub\n      dup2\n      add\n      swap1\n      tag_25\n      swap2\n      swap1\n      tag_26\n      jump\t// in\n    tag_25:\n      tag_27\n      jump\t// in\n    tag_24:\n      mload(0x40)\n      tag_28\n      swap2\n      swap1\n      tag_29\n      jump\t// in\n    tag_28:\n      mload(0x40)\n      dup1\n      swap2\n      sub\n      swap1\n      return\n        /* \"Wallery/PaintingShares.sol\":2155:3977  function createSharesForPainting(... */\n    tag_4:\n      tag_30\n      0x04\n      dup1\n      calldatasize\n      sub\n      dup2\n      add\n      swap1\n      tag_31\n      swap2\n      swap1\n      tag_32\n      jump\t// in\n    tag_31:\n      tag_33\n      jump\t// in\n    tag_30:\n      stop\n        /* \"Wallery/PaintingShares.sol\":4816:5404  function transferFrom(... */\n    tag_5:\n      tag_34\n      0x04\n      dup1\n      calldatasize\n      sub\n      dup2\n      add\n      swap1\n      tag_35\n      swap2\n      swap1\n      tag_36\n      jump\t// in\n    tag_35:\n      tag_37\n      jump\t// in\n    tag_34:\n      mload(0x40)\n      tag_38\n      swap2\n      swap1\n      tag_39\n      jump\t// in\n    tag_38:\n      mload(0x40)\n      dup1\n      swap2\n      sub\n      swap1\n      return\n        /* \"Wallery/PaintingShares.sol\":5412:5731  function getShareInfo(uint256 paintingId) external view returns (... */\n    tag_6:\n      tag_40\n      0x04\n      dup1\n      calldatasize\n      sub\n      dup2\n      add\n      swap1\n      tag_41\n      swap2\n      swap1\n      tag_42\n      jump\t// in\n    tag_41:\n      tag_43\n      jump\t// in\n    tag_40:\n      mload(0x40)\n      tag_44\n      swap5\n      swap4\n      swap3\n      swap2\n      swap1\n      tag_45\n      jump\t// in\n    tag_44:\n      mload(0x40)\n      dup1\n      swap2\n      sub\n      swap1\n      return\n        /* \"Wallery/PaintingShares.sol\":902:936  address public paintingNFTContract */\n    tag_7:\n      tag_46\n      tag_47\n      jump\t// in\n    tag_46:\n      mload(0x40)\n      tag_48\n      swap2\n      swap1\n      tag_49\n      jump\t// in\n    tag_48:\n      mload(0x40)\n      dup1\n      swap2\n      sub\n      swap1\n      return\n        /* \"Wallery/PaintingShares.sol\":7114:7181  function unpause() external onlyOwner {... */\n    tag_8:\n      tag_50\n      tag_51\n      jump\t// in\n    tag_50:\n      stop\n        /* \"Wallery/PaintingShares.sol\":7189:7930  function debugShareCalculation(... */\n    tag_9:\n      tag_52\n      0x04\n      dup1\n      calldatasize\n      sub\n      dup2\n      add\n      swap1\n      tag_53\n      swap2\n      swap1\n      tag_54\n      jump\t// in\n    tag_53:\n      tag_55\n      jump\t// in\n    tag_52:\n      mload(0x40)\n      tag_56\n      swap5\n      swap4\n      swap3\n      swap2\n      swap1\n      tag_57\n      jump\t// in\n    tag_56:\n      mload(0x40)\n      dup1\n      swap2\n      sub\n      swap1\n      return\n        /* \"Wallery/PaintingShares.sol\":570:613  mapping(uint256 => ShareInfo) public shares */\n    tag_10:\n      tag_58\n      0x04\n      dup1\n      calldatasize\n      sub\n      dup2\n      add\n      swap1\n      tag_59\n      swap2\n      swap1\n      tag_42\n      jump\t// in\n    tag_59:\n      tag_60\n      jump\t// in\n    tag_58:\n      mload(0x40)\n      tag_61\n      swap5\n      swap4\n      swap3\n      swap2\n      swap1\n      tag_45\n      jump\t// in\n    tag_61:\n      mload(0x40)\n      dup1\n      swap2\n      sub\n      swap1\n      return\n        /* \"Wallery/PaintingShares.sol\":809:893  mapping(address => mapping(address => mapping(uint256 => uint256))) public allowance */\n    tag_11:\n      tag_62\n      0x04\n      dup1\n      calldatasize\n      sub\n      dup2\n      add\n      swap1\n      tag_63\n      swap2\n      swap1\n      tag_64\n      jump\t// in\n    tag_63:\n      tag_65\n      jump\t// in\n    tag_62:\n      mload(0x40)\n      tag_66\n      swap2\n      swap1\n      tag_29\n      jump\t// in\n    tag_66:\n      mload(0x40)\n      dup1\n      swap2\n      sub\n      swap1\n      return\n        /* \"@openzeppelin/contracts/security/Pausable.sol\":1615:1699  function paused() public view virtual returns (bool) {... */\n    tag_12:\n      tag_67\n      tag_68\n      jump\t// in\n    tag_67:\n      mload(0x40)\n      tag_69\n      swap2\n      swap1\n      tag_39\n      jump\t// in\n    tag_69:\n      mload(0x40)\n      dup1\n      swap2\n      sub\n      swap1\n      return\n        /* \"@openzeppelin/contracts/access/Ownable.sol\":2293:2394  function renounceOwnership() public virtual onlyOwner {... */\n    tag_13:\n      tag_70\n      tag_71\n      jump\t// in\n    tag_70:\n      stop\n        /* \"Wallery/PaintingShares.sol\":7043:7106  function pause() external onlyOwner {... */\n    tag_14:\n      tag_72\n      tag_73\n      jump\t// in\n    tag_72:\n      stop\n        /* \"Wallery/PaintingShares.sol\":306:351  uint256 public constant TOTAL_SHARES = 100000 */\n    tag_15:\n      tag_74\n      tag_75\n      jump\t// in\n    tag_74:\n      mload(0x40)\n      tag_76\n      swap2\n      swap1\n      tag_29\n      jump\t// in\n    tag_76:\n      mload(0x40)\n      dup1\n      swap2\n      sub\n      swap1\n      return\n        /* \"Wallery/PaintingShares.sol\":4411:4808  function approve(... */\n    tag_16:\n      tag_77\n      0x04\n      dup1\n      calldatasize\n      sub\n      dup2\n      add\n      swap1\n      tag_78\n      swap2\n      swap1\n      tag_79\n      jump\t// in\n    tag_78:\n      tag_80\n      jump\t// in\n    tag_77:\n      mload(0x40)\n      tag_81\n      swap2\n      swap1\n      tag_39\n      jump\t// in\n    tag_81:\n      mload(0x40)\n      dup1\n      swap2\n      sub\n      swap1\n      return\n        /* \"@openzeppelin/contracts/access/Ownable.sol\":1638:1723  function owner() public view virtual returns (address) {... */\n    tag_17:\n      tag_82\n      tag_83\n      jump\t// in\n    tag_82:\n      mload(0x40)\n      tag_84\n      swap2\n      swap1\n      tag_49\n      jump\t// in\n    tag_84:\n      mload(0x40)\n      dup1\n      swap2\n      sub\n      swap1\n      return\n        /* \"Wallery/PaintingShares.sol\":1927:2147  function setPaintingNFTContract(address _paintingNFTContract) external onlyOwner {... */\n    tag_18:\n      tag_85\n      0x04\n      dup1\n      calldatasize\n      sub\n      dup2\n      add\n      swap1\n      tag_86\n      swap2\n      swap1\n      tag_87\n      jump\t// in\n    tag_86:\n      tag_88\n      jump\t// in\n    tag_85:\n      stop\n        /* \"@openzeppelin/contracts/access/Ownable.sol\":2543:2758  function transferOwnership(address newOwner) public virtual onlyOwner {... */\n    tag_19:\n      tag_89\n      0x04\n      dup1\n      calldatasize\n      sub\n      dup2\n      add\n      swap1\n      tag_90\n      swap2\n      swap1\n      tag_87\n      jump\t// in\n    tag_90:\n      tag_91\n      jump\t// in\n    tag_89:\n      stop\n        /* \"Wallery/PaintingShares.sol\":3985:4403  function transfer(... */\n    tag_20:\n      tag_92\n      0x04\n      dup1\n      calldatasize\n      sub\n      dup2\n      add\n      swap1\n      tag_93\n      swap2\n      swap1\n      tag_79\n      jump\t// in\n    tag_93:\n      tag_94\n      jump\t// in\n    tag_92:\n      mload(0x40)\n      tag_95\n      swap2\n      swap1\n      tag_39\n      jump\t// in\n    tag_95:\n      mload(0x40)\n      dup1\n      swap2\n      sub\n      swap1\n      return\n        /* \"Wallery/PaintingShares.sol\":665:729  mapping(address => mapping(uint256 => uint256)) public balanceOf */\n    tag_27:\n      mstore(0x20, 0x03)\n      dup2\n      0x00\n      mstore\n      mstore(0x20, keccak256(0x00, 0x40))\n      dup1\n      0x00\n      mstore\n      keccak256(0x00, 0x40)\n      0x00\n      swap2\n      pop\n      swap2\n      pop\n      pop\n      sload\n      dup2\n      jump\t// out\n        /* \"Wallery/PaintingShares.sol\":2155:3977  function createSharesForPainting(... */\n    tag_33:\n        /* \"Wallery/PaintingShares.sol\":1696:1715  paintingNFTContract */\n      0x05\n      0x00\n      swap1\n      sload\n      swap1\n      0x0100\n      exp\n      swap1\n      div\n      0xffffffffffffffffffffffffffffffffffffffff\n      and\n        /* \"Wallery/PaintingShares.sol\":1682:1715  msg.sender == paintingNFTContract */\n      0xffffffffffffffffffffffffffffffffffffffff\n      and\n        /* \"Wallery/PaintingShares.sol\":1682:1692  msg.sender */\n      caller\n        /* \"Wallery/PaintingShares.sol\":1682:1715  msg.sender == paintingNFTContract */\n      0xffffffffffffffffffffffffffffffffffffffff\n      and\n      eq\n        /* \"Wallery/PaintingShares.sol\":1674:1745  require(msg.sender == paintingNFTContract, \"Only PaintingNFT contract\") */\n      tag_97\n      jumpi\n      mload(0x40)\n      0x08c379a000000000000000000000000000000000000000000000000000000000\n      dup2\n      mstore\n      0x04\n      add\n      tag_98\n      swap1\n      tag_99\n      jump\t// in\n    tag_98:\n      mload(0x40)\n      dup1\n      swap2\n      sub\n      swap1\n      revert\n    tag_97:\n        /* \"@openzeppelin/contracts/security/Pausable.sol\":1239:1258  _requireNotPaused() */\n      tag_101\n        /* \"@openzeppelin/contracts/security/Pausable.sol\":1239:1256  _requireNotPaused */\n      tag_102\n        /* \"@openzeppelin/contracts/security/Pausable.sol\":1239:1258  _requireNotPaused() */\n      jump\t// in\n    tag_101:\n        /* \"Wallery/PaintingShares.sol\":2476:2482  shares */\n      0x02\n        /* \"Wallery/PaintingShares.sol\":2476:2494  shares[paintingId] */\n      0x00\n        /* \"Wallery/PaintingShares.sol\":2483:2493  paintingId */\n      dup10\n        /* \"Wallery/PaintingShares.sol\":2476:2494  shares[paintingId] */\n      dup2\n      mstore\n      0x20\n      add\n      swap1\n      dup2\n      mstore\n      0x20\n      add\n      0x00\n      keccak256\n        /* \"Wallery/PaintingShares.sol\":2476:2501  shares[paintingId].exists */\n      0x03\n      add\n      0x00\n      swap1\n      sload\n      swap1\n      0x0100\n      exp\n      swap1\n      div\n      0xff\n      and\n        /* \"Wallery/PaintingShares.sol\":2475:2501  !shares[paintingId].exists */\n      iszero\n        /* \"Wallery/PaintingShares.sol\":2467:2526  require(!shares[paintingId].exists, \"Shares already exist\") */\n      tag_104\n      jumpi\n      mload(0x40)\n      0x08c379a000000000000000000000000000000000000000000000000000000000\n      dup2\n      mstore\n      0x04\n      add\n      tag_105\n      swap1\n      tag_106\n      jump\t// in\n    tag_105:\n      mload(0x40)\n      dup1\n      swap2\n      sub\n      swap1\n      revert\n    tag_104:\n        /* \"Wallery/PaintingShares.sol\":2610:2613  100 */\n      0x64\n        /* \"Wallery/PaintingShares.sol\":2584:2606  galleryOwnerPercentage */\n      dup2\n        /* \"Wallery/PaintingShares.sol\":2562:2581  wallOwnerPercentage */\n      dup4\n        /* \"Wallery/PaintingShares.sol\":2541:2559  platformPercentage */\n      dup6\n        /* \"Wallery/PaintingShares.sol\":2541:2581  platformPercentage + wallOwnerPercentage */\n      tag_107\n      swap2\n      swap1\n      tag_108\n      jump\t// in\n    tag_107:\n        /* \"Wallery/PaintingShares.sol\":2541:2606  platformPercentage + wallOwnerPercentage + galleryOwnerPercentage */\n      tag_109\n      swap2\n      swap1\n      tag_108\n      jump\t// in\n    tag_109:\n        /* \"Wallery/PaintingShares.sol\":2541:2613  platformPercentage + wallOwnerPercentage + galleryOwnerPercentage <= 100 */\n      gt\n      iszero\n        /* \"Wallery/PaintingShares.sol\":2533:2651  require(platformPercentage + wallOwnerPercentage + galleryOwnerPercentage <= 100, ... */\n      tag_110\n      jumpi\n      mload(0x40)\n      0x08c379a000000000000000000000000000000000000000000000000000000000\n      dup2\n      mstore\n      0x04\n      add\n      tag_111\n      swap1\n      tag_112\n      jump\t// in\n    tag_111:\n      mload(0x40)\n      dup1\n      swap2\n      sub\n      swap1\n      revert\n    tag_110:\n        /* \"Wallery/PaintingShares.sol\":2660:2678  string memory name */\n      0x00\n        /* \"Wallery/PaintingShares.sol\":2718:2739  _toString(paintingId) */\n      tag_113\n        /* \"Wallery/PaintingShares.sol\":2728:2738  paintingId */\n      dup10\n        /* \"Wallery/PaintingShares.sol\":2718:2727  _toString */\n      tag_114\n        /* \"Wallery/PaintingShares.sol\":2718:2739  _toString(paintingId) */\n      jump\t// in\n    tag_113:\n        /* \"Wallery/PaintingShares.sol\":2688:2751  abi.encodePacked(\"Painting \", _toString(paintingId), \" Shares\") */\n      add(0x20, mload(0x40))\n      tag_115\n      swap2\n      swap1\n      tag_116\n      jump\t// in\n    tag_115:\n      mload(0x40)\n      0x20\n      dup2\n      dup4\n      sub\n      sub\n      dup2\n      mstore\n      swap1\n      0x40\n      mstore\n        /* \"Wallery/PaintingShares.sol\":2660:2752  string memory name = string(abi.encodePacked(\"Painting \", _toString(paintingId), \" Shares\")) */\n      swap1\n      pop\n        /* \"Wallery/PaintingShares.sol\":2759:2779  string memory symbol */\n      0x00\n        /* \"Wallery/PaintingShares.sol\":2815:2836  _toString(paintingId) */\n      tag_117\n        /* \"Wallery/PaintingShares.sol\":2825:2835  paintingId */\n      dup11\n        /* \"Wallery/PaintingShares.sol\":2815:2824  _toString */\n      tag_114\n        /* \"Wallery/PaintingShares.sol\":2815:2836  _toString(paintingId) */\n      jump\t// in\n    tag_117:\n        /* \"Wallery/PaintingShares.sol\":2789:2837  abi.encodePacked(\"PAINT\", _toString(paintingId)) */\n      add(0x20, mload(0x40))\n      tag_118\n      swap2\n      swap1\n      tag_119\n      jump\t// in\n    tag_118:\n      mload(0x40)\n      0x20\n      dup2\n      dup4\n      sub\n      sub\n      dup2\n      mstore\n      swap1\n      0x40\n      mstore\n        /* \"Wallery/PaintingShares.sol\":2759:2838  string memory symbol = string(abi.encodePacked(\"PAINT\", _toString(paintingId))) */\n      swap1\n      pop\n        /* \"Wallery/PaintingShares.sol\":2877:2904  ShareInfo storage newShares */\n      0x00\n        /* \"Wallery/PaintingShares.sol\":2907:2913  shares */\n      0x02\n        /* \"Wallery/PaintingShares.sol\":2907:2925  shares[paintingId] */\n      0x00\n        /* \"Wallery/PaintingShares.sol\":2914:2924  paintingId */\n      dup13\n        /* \"Wallery/PaintingShares.sol\":2907:2925  shares[paintingId] */\n      dup2\n      mstore\n      0x20\n      add\n      swap1\n      dup2\n      mstore\n      0x20\n      add\n      0x00\n      keccak256\n        /* \"Wallery/PaintingShares.sol\":2877:2925  ShareInfo storage newShares = shares[paintingId] */\n      swap1\n      pop\n        /* \"Wallery/PaintingShares.sol\":2949:2953  name */\n      dup3\n        /* \"Wallery/PaintingShares.sol\":2932:2941  newShares */\n      dup2\n        /* \"Wallery/PaintingShares.sol\":2932:2946  newShares.name */\n      0x00\n      add\n        /* \"Wallery/PaintingShares.sol\":2932:2953  newShares.name = name */\n      swap1\n      dup2\n      tag_120\n      swap2\n      swap1\n      tag_121\n      jump\t// in\n    tag_120:\n      pop\n        /* \"Wallery/PaintingShares.sol\":2979:2985  symbol */\n      dup2\n        /* \"Wallery/PaintingShares.sol\":2960:2969  newShares */\n      dup2\n        /* \"Wallery/PaintingShares.sol\":2960:2976  newShares.symbol */\n      0x01\n      add\n        /* \"Wallery/PaintingShares.sol\":2960:2985  newShares.symbol = symbol */\n      swap1\n      dup2\n      tag_122\n      swap2\n      swap1\n      tag_121\n      jump\t// in\n    tag_122:\n      pop\n        /* \"Wallery/PaintingShares.sol\":3011:3015  true */\n      0x01\n        /* \"Wallery/PaintingShares.sol\":2992:3001  newShares */\n      dup2\n        /* \"Wallery/PaintingShares.sol\":2992:3008  newShares.exists */\n      0x03\n      add\n      0x00\n        /* \"Wallery/PaintingShares.sol\":2992:3015  newShares.exists = true */\n      0x0100\n      exp\n      dup2\n      sload\n      dup2\n      0xff\n      mul\n      not\n      and\n      swap1\n      dup4\n      iszero\n      iszero\n      mul\n      or\n      swap1\n      sstore\n      pop\n        /* \"Wallery/PaintingShares.sol\":345:351  100000 */\n      0x0186a0\n        /* \"Wallery/PaintingShares.sol\":3022:3031  newShares */\n      dup2\n        /* \"Wallery/PaintingShares.sol\":3022:3043  newShares.totalSupply */\n      0x02\n      add\n        /* \"Wallery/PaintingShares.sol\":3022:3058  newShares.totalSupply = TOTAL_SHARES */\n      dup2\n      swap1\n      sstore\n      pop\n        /* \"Wallery/PaintingShares.sol\":3125:3147  uint256 platformShares */\n      0x00\n        /* \"Wallery/PaintingShares.sol\":3188:3191  100 */\n      0x64\n        /* \"Wallery/PaintingShares.sol\":3166:3184  platformPercentage */\n      dup8\n        /* \"Wallery/PaintingShares.sol\":345:351  100000 */\n      0x0186a0\n        /* \"Wallery/PaintingShares.sol\":3151:3184  TOTAL_SHARES * platformPercentage */\n      tag_123\n      swap2\n      swap1\n      tag_124\n      jump\t// in\n    tag_123:\n        /* \"Wallery/PaintingShares.sol\":3150:3191  (TOTAL_SHARES * platformPercentage) / 100 */\n      tag_125\n      swap2\n      swap1\n      tag_126\n      jump\t// in\n    tag_125:\n        /* \"Wallery/PaintingShares.sol\":3125:3191  uint256 platformShares = (TOTAL_SHARES * platformPercentage) / 100 */\n      swap1\n      pop\n        /* \"Wallery/PaintingShares.sol\":3223:3224  0 */\n      0x00\n        /* \"Wallery/PaintingShares.sol\":3206:3220  platformShares */\n      dup2\n        /* \"Wallery/PaintingShares.sol\":3206:3224  platformShares > 0 */\n      gt\n        /* \"Wallery/PaintingShares.sol\":3198:3256  require(platformShares > 0, \"Platform shares cannot be 0\") */\n      tag_127\n      jumpi\n      mload(0x40)\n      0x08c379a000000000000000000000000000000000000000000000000000000000\n      dup2\n      mstore\n      0x04\n      add\n      tag_128\n      swap1\n      tag_129\n      jump\t// in\n    tag_128:\n      mload(0x40)\n      dup1\n      swap2\n      sub\n      swap1\n      revert\n    tag_127:\n        /* \"Wallery/PaintingShares.sol\":3269:3292  uint256 wallOwnerShares */\n      0x00\n        /* \"Wallery/PaintingShares.sol\":3334:3337  100 */\n      0x64\n        /* \"Wallery/PaintingShares.sol\":3311:3330  wallOwnerPercentage */\n      dup8\n        /* \"Wallery/PaintingShares.sol\":345:351  100000 */\n      0x0186a0\n        /* \"Wallery/PaintingShares.sol\":3296:3330  TOTAL_SHARES * wallOwnerPercentage */\n      tag_130\n      swap2\n      swap1\n      tag_124\n      jump\t// in\n    tag_130:\n        /* \"Wallery/PaintingShares.sol\":3295:3337  (TOTAL_SHARES * wallOwnerPercentage) / 100 */\n      tag_131\n      swap2\n      swap1\n      tag_126\n      jump\t// in\n    tag_131:\n        /* \"Wallery/PaintingShares.sol\":3269:3337  uint256 wallOwnerShares = (TOTAL_SHARES * wallOwnerPercentage) / 100 */\n      swap1\n      pop\n        /* \"Wallery/PaintingShares.sol\":3344:3370  uint256 galleryOwnerShares */\n      0x00\n        /* \"Wallery/PaintingShares.sol\":3415:3418  100 */\n      0x64\n        /* \"Wallery/PaintingShares.sol\":3389:3411  galleryOwnerPercentage */\n      dup8\n        /* \"Wallery/PaintingShares.sol\":345:351  100000 */\n      0x0186a0\n        /* \"Wallery/PaintingShares.sol\":3374:3411  TOTAL_SHARES * galleryOwnerPercentage */\n      tag_132\n      swap2\n      swap1\n      tag_124\n      jump\t// in\n    tag_132:\n        /* \"Wallery/PaintingShares.sol\":3373:3418  (TOTAL_SHARES * galleryOwnerPercentage) / 100 */\n      tag_133\n      swap2\n      swap1\n      tag_126\n      jump\t// in\n    tag_133:\n        /* \"Wallery/PaintingShares.sol\":3344:3418  uint256 galleryOwnerShares = (TOTAL_SHARES * galleryOwnerPercentage) / 100 */\n      swap1\n      pop\n        /* \"Wallery/PaintingShares.sol\":3425:3446  uint256 painterShares */\n      0x00\n        /* \"Wallery/PaintingShares.sol\":3499:3517  galleryOwnerShares */\n      dup2\n        /* \"Wallery/PaintingShares.sol\":3481:3496  wallOwnerShares */\n      dup4\n        /* \"Wallery/PaintingShares.sol\":3464:3478  platformShares */\n      dup6\n        /* \"Wallery/PaintingShares.sol\":345:351  100000 */\n      0x0186a0\n        /* \"Wallery/PaintingShares.sol\":3449:3478  TOTAL_SHARES - platformShares */\n      tag_134\n      swap2\n      swap1\n      tag_135\n      jump\t// in\n    tag_134:\n        /* \"Wallery/PaintingShares.sol\":3449:3496  TOTAL_SHARES - platformShares - wallOwnerShares */\n      tag_136\n      swap2\n      swap1\n      tag_135\n      jump\t// in\n    tag_136:\n        /* \"Wallery/PaintingShares.sol\":3449:3517  TOTAL_SHARES - platformShares - wallOwnerShares - galleryOwnerShares */\n      tag_137\n      swap2\n      swap1\n      tag_135\n      jump\t// in\n    tag_137:\n        /* \"Wallery/PaintingShares.sol\":3425:3517  uint256 painterShares = TOTAL_SHARES - platformShares - wallOwnerShares - galleryOwnerShares */\n      swap1\n      pop\n        /* \"Wallery/PaintingShares.sol\":3552:3606  _mintShares(paintingId, platformAdmin, platformShares) */\n      tag_138\n        /* \"Wallery/PaintingShares.sol\":3564:3574  paintingId */\n      dup16\n        /* \"Wallery/PaintingShares.sol\":3576:3589  platformAdmin */\n      dup16\n        /* \"Wallery/PaintingShares.sol\":3591:3605  platformShares */\n      dup7\n        /* \"Wallery/PaintingShares.sol\":3552:3563  _mintShares */\n      tag_139\n        /* \"Wallery/PaintingShares.sol\":3552:3606  _mintShares(paintingId, platformAdmin, platformShares) */\n      jump\t// in\n    tag_138:\n        /* \"Wallery/PaintingShares.sol\":3613:3664  _mintShares(paintingId, wallOwner, wallOwnerShares) */\n      tag_140\n        /* \"Wallery/PaintingShares.sol\":3625:3635  paintingId */\n      dup16\n        /* \"Wallery/PaintingShares.sol\":3637:3646  wallOwner */\n      dup15\n        /* \"Wallery/PaintingShares.sol\":3648:3663  wallOwnerShares */\n      dup6\n        /* \"Wallery/PaintingShares.sol\":3613:3624  _mintShares */\n      tag_139\n        /* \"Wallery/PaintingShares.sol\":3613:3664  _mintShares(paintingId, wallOwner, wallOwnerShares) */\n      jump\t// in\n    tag_140:\n        /* \"Wallery/PaintingShares.sol\":3671:3728  _mintShares(paintingId, galleryOwner, galleryOwnerShares) */\n      tag_141\n        /* \"Wallery/PaintingShares.sol\":3683:3693  paintingId */\n      dup16\n        /* \"Wallery/PaintingShares.sol\":3695:3707  galleryOwner */\n      dup14\n        /* \"Wallery/PaintingShares.sol\":3709:3727  galleryOwnerShares */\n      dup5\n        /* \"Wallery/PaintingShares.sol\":3671:3682  _mintShares */\n      tag_139\n        /* \"Wallery/PaintingShares.sol\":3671:3728  _mintShares(paintingId, galleryOwner, galleryOwnerShares) */\n      jump\t// in\n    tag_141:\n        /* \"Wallery/PaintingShares.sol\":3735:3782  _mintShares(paintingId, painter, painterShares) */\n      tag_142\n        /* \"Wallery/PaintingShares.sol\":3747:3757  paintingId */\n      dup16\n        /* \"Wallery/PaintingShares.sol\":3759:3766  painter */\n      dup13\n        /* \"Wallery/PaintingShares.sol\":3768:3781  painterShares */\n      dup4\n        /* \"Wallery/PaintingShares.sol\":3735:3746  _mintShares */\n      tag_139\n        /* \"Wallery/PaintingShares.sol\":3735:3782  _mintShares(paintingId, painter, painterShares) */\n      jump\t// in\n    tag_142:\n        /* \"Wallery/PaintingShares.sol\":3820:3830  paintingId */\n      dup15\n        /* \"Wallery/PaintingShares.sol\":3796:3973  SharesCreated(... */\n      0xd21d9e01a16a8c5d426f26258ec2882c31787698aba6246e133cc3692a370b0b\n        /* \"Wallery/PaintingShares.sol\":3841:3845  name */\n      dup9\n        /* \"Wallery/PaintingShares.sol\":3856:3862  symbol */\n      dup9\n        /* \"Wallery/PaintingShares.sol\":3873:3887  platformShares */\n      dup8\n        /* \"Wallery/PaintingShares.sol\":3898:3913  wallOwnerShares */\n      dup8\n        /* \"Wallery/PaintingShares.sol\":3924:3942  galleryOwnerShares */\n      dup8\n        /* \"Wallery/PaintingShares.sol\":3953:3966  painterShares */\n      dup8\n        /* \"Wallery/PaintingShares.sol\":3796:3973  SharesCreated(... */\n      mload(0x40)\n      tag_143\n      swap7\n      swap6\n      swap5\n      swap4\n      swap3\n      swap2\n      swap1\n      tag_144\n      jump\t// in\n    tag_143:\n      mload(0x40)\n      dup1\n      swap2\n      sub\n      swap1\n      log2\n        /* \"Wallery/PaintingShares.sol\":2460:3977  {... */\n      pop\n      pop\n      pop\n      pop\n      pop\n      pop\n      pop\n        /* \"Wallery/PaintingShares.sol\":2155:3977  function createSharesForPainting(... */\n      pop\n      pop\n      pop\n      pop\n      pop\n      pop\n      pop\n      pop\n      jump\t// out\n        /* \"Wallery/PaintingShares.sol\":4816:5404  function transferFrom(... */\n    tag_37:\n        /* \"Wallery/PaintingShares.sol\":5016:5020  bool */\n      0x00\n        /* \"Wallery/PaintingShares.sol\":4968:4978  paintingId */\n      dup5\n        /* \"Wallery/PaintingShares.sol\":1837:1843  shares */\n      0x02\n        /* \"Wallery/PaintingShares.sol\":1837:1855  shares[paintingId] */\n      0x00\n        /* \"Wallery/PaintingShares.sol\":1844:1854  paintingId */\n      dup3\n        /* \"Wallery/PaintingShares.sol\":1837:1855  shares[paintingId] */\n      dup2\n      mstore\n      0x20\n      add\n      swap1\n      dup2\n      mstore\n      0x20\n      add\n      0x00\n      keccak256\n        /* \"Wallery/PaintingShares.sol\":1837:1862  shares[paintingId].exists */\n      0x03\n      add\n      0x00\n      swap1\n      sload\n      swap1\n      0x0100\n      exp\n      swap1\n      div\n      0xff\n      and\n        /* \"Wallery/PaintingShares.sol\":1829:1903  require(shares[paintingId].exists, \"Shares don't exist for this painting\") */\n      tag_146\n      jumpi\n      mload(0x40)\n      0x08c379a000000000000000000000000000000000000000000000000000000000\n      dup2\n      mstore\n      0x04\n      add\n      tag_147\n      swap1\n      tag_148\n      jump\t// in\n    tag_147:\n      mload(0x40)\n      dup1\n      swap2\n      sub\n      swap1\n      revert\n    tag_146:\n        /* \"@openzeppelin/contracts/security/Pausable.sol\":1239:1258  _requireNotPaused() */\n      tag_150\n        /* \"@openzeppelin/contracts/security/Pausable.sol\":1239:1256  _requireNotPaused */\n      tag_102\n        /* \"@openzeppelin/contracts/security/Pausable.sol\":1239:1258  _requireNotPaused() */\n      jump\t// in\n    tag_150:\n        /* \"@openzeppelin/contracts/security/ReentrancyGuard.sol\":2261:2282  _nonReentrantBefore() */\n      tag_152\n        /* \"@openzeppelin/contracts/security/ReentrancyGuard.sol\":2261:2280  _nonReentrantBefore */\n      tag_153\n        /* \"@openzeppelin/contracts/security/ReentrancyGuard.sol\":2261:2282  _nonReentrantBefore() */\n      jump\t// in\n    tag_152:\n        /* \"Wallery/PaintingShares.sol\":5055:5056  0 */\n      0x00\n        /* \"Wallery/PaintingShares.sol\":5041:5057  to != address(0) */\n      0xffffffffffffffffffffffffffffffffffffffff\n      and\n        /* \"Wallery/PaintingShares.sol\":5041:5043  to */\n      dup5\n        /* \"Wallery/PaintingShares.sol\":5041:5057  to != address(0) */\n      0xffffffffffffffffffffffffffffffffffffffff\n      and\n      sub\n        /* \"Wallery/PaintingShares.sol\":5033:5086  require(to != address(0), \"Transfer to zero address\") */\n      tag_155\n      jumpi\n      mload(0x40)\n      0x08c379a000000000000000000000000000000000000000000000000000000000\n      dup2\n      mstore\n      0x04\n      add\n      tag_156\n      swap1\n      tag_157\n      jump\t// in\n    tag_156:\n      mload(0x40)\n      dup1\n      swap2\n      sub\n      swap1\n      revert\n    tag_155:\n        /* \"Wallery/PaintingShares.sol\":5136:5142  amount */\n      dup3\n        /* \"Wallery/PaintingShares.sol\":5105:5114  balanceOf */\n      0x03\n        /* \"Wallery/PaintingShares.sol\":5105:5120  balanceOf[from] */\n      0x00\n        /* \"Wallery/PaintingShares.sol\":5115:5119  from */\n      dup8\n        /* \"Wallery/PaintingShares.sol\":5105:5120  balanceOf[from] */\n      0xffffffffffffffffffffffffffffffffffffffff\n      and\n      0xffffffffffffffffffffffffffffffffffffffff\n      and\n      dup2\n      mstore\n      0x20\n      add\n      swap1\n      dup2\n      mstore\n      0x20\n      add\n      0x00\n      keccak256\n        /* \"Wallery/PaintingShares.sol\":5105:5132  balanceOf[from][paintingId] */\n      0x00\n        /* \"Wallery/PaintingShares.sol\":5121:5131  paintingId */\n      dup9\n        /* \"Wallery/PaintingShares.sol\":5105:5132  balanceOf[from][paintingId] */\n      dup2\n      mstore\n      0x20\n      add\n      swap1\n      dup2\n      mstore\n      0x20\n      add\n      0x00\n      keccak256\n      sload\n        /* \"Wallery/PaintingShares.sol\":5105:5142  balanceOf[from][paintingId] >= amount */\n      lt\n      iszero\n        /* \"Wallery/PaintingShares.sol\":5097:5167  require(balanceOf[from][paintingId] >= amount, \"Insufficient balance\") */\n      tag_158\n      jumpi\n      mload(0x40)\n      0x08c379a000000000000000000000000000000000000000000000000000000000\n      dup2\n      mstore\n      0x04\n      add\n      tag_159\n      swap1\n      tag_160\n      jump\t// in\n    tag_159:\n      mload(0x40)\n      dup1\n      swap2\n      sub\n      swap1\n      revert\n    tag_158:\n        /* \"Wallery/PaintingShares.sol\":5229:5235  amount */\n      dup3\n        /* \"Wallery/PaintingShares.sol\":5186:5195  allowance */\n      0x04\n        /* \"Wallery/PaintingShares.sol\":5186:5201  allowance[from] */\n      0x00\n        /* \"Wallery/PaintingShares.sol\":5196:5200  from */\n      dup8\n        /* \"Wallery/PaintingShares.sol\":5186:5201  allowance[from] */\n      0xffffffffffffffffffffffffffffffffffffffff\n      and\n      0xffffffffffffffffffffffffffffffffffffffff\n      and\n      dup2\n      mstore\n      0x20\n      add\n      swap1\n      dup2\n      mstore\n      0x20\n      add\n      0x00\n      keccak256\n        /* \"Wallery/PaintingShares.sol\":5186:5213  allowance[from][msg.sender] */\n      0x00\n        /* \"Wallery/PaintingShares.sol\":5202:5212  msg.sender */\n      caller\n        /* \"Wallery/PaintingShares.sol\":5186:5213  allowance[from][msg.sender] */\n      0xffffffffffffffffffffffffffffffffffffffff\n      and\n      0xffffffffffffffffffffffffffffffffffffffff\n      and\n      dup2\n      mstore\n      0x20\n      add\n      swap1\n      dup2\n      mstore\n      0x20\n      add\n      0x00\n      keccak256\n        /* \"Wallery/PaintingShares.sol\":5186:5225  allowance[from][msg.sender][paintingId] */\n      0x00\n        /* \"Wallery/PaintingShares.sol\":5214:5224  paintingId */\n      dup9\n        /* \"Wallery/PaintingShares.sol\":5186:5225  allowance[from][msg.sender][paintingId] */\n      dup2\n      mstore\n      0x20\n      add\n      swap1\n      dup2\n      mstore\n      0x20\n      add\n      0x00\n      keccak256\n      sload\n        /* \"Wallery/PaintingShares.sol\":5186:5235  allowance[from][msg.sender][paintingId] >= amount */\n      lt\n      iszero\n        /* \"Wallery/PaintingShares.sol\":5178:5262  require(allowance[from][msg.sender][paintingId] >= amount, \"Insufficient allowance\") */\n      tag_161\n      jumpi\n      mload(0x40)\n      0x08c379a000000000000000000000000000000000000000000000000000000000\n      dup2\n      mstore\n      0x04\n      add\n      tag_162\n      swap1\n      tag_163\n      jump\t// in\n    tag_162:\n      mload(0x40)\n      dup1\n      swap2\n      sub\n      swap1\n      revert\n    tag_161:\n        /* \"Wallery/PaintingShares.sol\":5318:5324  amount */\n      dup3\n        /* \"Wallery/PaintingShares.sol\":5275:5284  allowance */\n      0x04\n        /* \"Wallery/PaintingShares.sol\":5275:5290  allowance[from] */\n      0x00\n        /* \"Wallery/PaintingShares.sol\":5285:5289  from */\n      dup8\n        /* \"Wallery/PaintingShares.sol\":5275:5290  allowance[from] */\n      0xffffffffffffffffffffffffffffffffffffffff\n      and\n      0xffffffffffffffffffffffffffffffffffffffff\n      and\n      dup2\n      mstore\n      0x20\n      add\n      swap1\n      dup2\n      mstore\n      0x20\n      add\n      0x00\n      keccak256\n        /* \"Wallery/PaintingShares.sol\":5275:5302  allowance[from][msg.sender] */\n      0x00\n        /* \"Wallery/PaintingShares.sol\":5291:5301  msg.sender */\n      caller\n        /* \"Wallery/PaintingShares.sol\":5275:5302  allowance[from][msg.sender] */\n      0xffffffffffffffffffffffffffffffffffffffff\n      and\n      0xffffffffffffffffffffffffffffffffffffffff\n      and\n      dup2\n      mstore\n      0x20\n      add\n      swap1\n      dup2\n      mstore\n      0x20\n      add\n      0x00\n      keccak256\n        /* \"Wallery/PaintingShares.sol\":5275:5314  allowance[from][msg.sender][paintingId] */\n      0x00\n        /* \"Wallery/PaintingShares.sol\":5303:5313  paintingId */\n      dup9\n        /* \"Wallery/PaintingShares.sol\":5275:5314  allowance[from][msg.sender][paintingId] */\n      dup2\n      mstore\n      0x20\n      add\n      swap1\n      dup2\n      mstore\n      0x20\n      add\n      0x00\n      keccak256\n      0x00\n        /* \"Wallery/PaintingShares.sol\":5275:5324  allowance[from][msg.sender][paintingId] -= amount */\n      dup3\n      dup3\n      sload\n      tag_164\n      swap2\n      swap1\n      tag_135\n      jump\t// in\n    tag_164:\n      swap3\n      pop\n      pop\n      dup2\n      swap1\n      sstore\n      pop\n        /* \"Wallery/PaintingShares.sol\":5335:5374  _transfer(paintingId, from, to, amount) */\n      tag_165\n        /* \"Wallery/PaintingShares.sol\":5345:5355  paintingId */\n      dup7\n        /* \"Wallery/PaintingShares.sol\":5357:5361  from */\n      dup7\n        /* \"Wallery/PaintingShares.sol\":5363:5365  to */\n      dup7\n        /* \"Wallery/PaintingShares.sol\":5367:5373  amount */\n      dup7\n        /* \"Wallery/PaintingShares.sol\":5335:5344  _transfer */\n      tag_166\n        /* \"Wallery/PaintingShares.sol\":5335:5374  _transfer(paintingId, from, to, amount) */\n      jump\t// in\n    tag_165:\n        /* \"Wallery/PaintingShares.sol\":5392:5396  true */\n      0x01\n        /* \"Wallery/PaintingShares.sol\":5385:5396  return true */\n      swap2\n      pop\n        /* \"@openzeppelin/contracts/security/ReentrancyGuard.sol\":2303:2323  _nonReentrantAfter() */\n      tag_167\n        /* \"@openzeppelin/contracts/security/ReentrancyGuard.sol\":2303:2321  _nonReentrantAfter */\n      tag_168\n        /* \"@openzeppelin/contracts/security/ReentrancyGuard.sol\":2303:2323  _nonReentrantAfter() */\n      jump\t// in\n    tag_167:\n        /* \"Wallery/PaintingShares.sol\":4816:5404  function transferFrom(... */\n      pop\n      swap5\n      swap4\n      pop\n      pop\n      pop\n      pop\n      jump\t// out\n        /* \"Wallery/PaintingShares.sol\":5412:5731  function getShareInfo(uint256 paintingId) external view returns (... */\n    tag_43:\n        /* \"Wallery/PaintingShares.sol\":5487:5505  string memory name */\n      0x60\n        /* \"Wallery/PaintingShares.sol\":5516:5536  string memory symbol */\n      dup1\n        /* \"Wallery/PaintingShares.sol\":5547:5566  uint256 totalSupply */\n      0x00\n        /* \"Wallery/PaintingShares.sol\":5577:5588  bool exists */\n      dup1\n        /* \"Wallery/PaintingShares.sol\":5607:5629  ShareInfo storage info */\n      0x00\n        /* \"Wallery/PaintingShares.sol\":5632:5638  shares */\n      0x02\n        /* \"Wallery/PaintingShares.sol\":5632:5650  shares[paintingId] */\n      0x00\n        /* \"Wallery/PaintingShares.sol\":5639:5649  paintingId */\n      dup8\n        /* \"Wallery/PaintingShares.sol\":5632:5650  shares[paintingId] */\n      dup2\n      mstore\n      0x20\n      add\n      swap1\n      dup2\n      mstore\n      0x20\n      add\n      0x00\n      keccak256\n        /* \"Wallery/PaintingShares.sol\":5607:5650  ShareInfo storage info = shares[paintingId] */\n      swap1\n      pop\n        /* \"Wallery/PaintingShares.sol\":5669:5673  info */\n      dup1\n        /* \"Wallery/PaintingShares.sol\":5669:5678  info.name */\n      0x00\n      add\n        /* \"Wallery/PaintingShares.sol\":5680:5684  info */\n      dup2\n        /* \"Wallery/PaintingShares.sol\":5680:5691  info.symbol */\n      0x01\n      add\n        /* \"Wallery/PaintingShares.sol\":5693:5697  info */\n      dup3\n        /* \"Wallery/PaintingShares.sol\":5693:5709  info.totalSupply */\n      0x02\n      add\n      sload\n        /* \"Wallery/PaintingShares.sol\":5711:5715  info */\n      dup4\n        /* \"Wallery/PaintingShares.sol\":5711:5722  info.exists */\n      0x03\n      add\n      0x00\n      swap1\n      sload\n      swap1\n      0x0100\n      exp\n      swap1\n      div\n      0xff\n      and\n        /* \"Wallery/PaintingShares.sol\":5661:5723  return (info.name, info.symbol, info.totalSupply, info.exists) */\n      dup4\n      dup1\n      sload\n      tag_170\n      swap1\n      tag_171\n      jump\t// in\n    tag_170:\n      dup1\n      0x1f\n      add\n      0x20\n      dup1\n      swap2\n      div\n      mul\n      0x20\n      add\n      mload(0x40)\n      swap1\n      dup2\n      add\n      0x40\n      mstore\n      dup1\n      swap3\n      swap2\n      swap1\n      dup2\n      dup2\n      mstore\n      0x20\n      add\n      dup3\n      dup1\n      sload\n      tag_172\n      swap1\n      tag_171\n      jump\t// in\n    tag_172:\n      dup1\n      iszero\n      tag_173\n      jumpi\n      dup1\n      0x1f\n      lt\n      tag_174\n      jumpi\n      0x0100\n      dup1\n      dup4\n      sload\n      div\n      mul\n      dup4\n      mstore\n      swap2\n      0x20\n      add\n      swap2\n      jump(tag_173)\n    tag_174:\n      dup3\n      add\n      swap2\n      swap1\n      0x00\n      mstore\n      keccak256(0x00, 0x20)\n      swap1\n    tag_175:\n      dup2\n      sload\n      dup2\n      mstore\n      swap1\n      0x01\n      add\n      swap1\n      0x20\n      add\n      dup1\n      dup4\n      gt\n      tag_175\n      jumpi\n      dup3\n      swap1\n      sub\n      0x1f\n      and\n      dup3\n      add\n      swap2\n    tag_173:\n      pop\n      pop\n      pop\n      pop\n      pop\n      swap4\n      pop\n      dup3\n      dup1\n      sload\n      tag_176\n      swap1\n      tag_171\n      jump\t// in\n    tag_176:\n      dup1\n      0x1f\n      add\n      0x20\n      dup1\n      swap2\n      div\n      mul\n      0x20\n      add\n      mload(0x40)\n      swap1\n      dup2\n      add\n      0x40\n      mstore\n      dup1\n      swap3\n      swap2\n      swap1\n      dup2\n      dup2\n      mstore\n      0x20\n      add\n      dup3\n      dup1\n      sload\n      tag_177\n      swap1\n      tag_171\n      jump\t// in\n    tag_177:\n      dup1\n      iszero\n      tag_178\n      jumpi\n      dup1\n      0x1f\n      lt\n      tag_179\n      jumpi\n      0x0100\n      dup1\n      dup4\n      sload\n      div\n      mul\n      dup4\n      mstore\n      swap2\n      0x20\n      add\n      swap2\n      jump(tag_178)\n    tag_179:\n      dup3\n      add\n      swap2\n      swap1\n      0x00\n      mstore\n      keccak256(0x00, 0x20)\n      swap1\n    tag_180:\n      dup2\n      sload\n      dup2\n      mstore\n      swap1\n      0x01\n      add\n      swap1\n      0x20\n      add\n      dup1\n      dup4\n      gt\n      tag_180\n      jumpi\n      dup3\n      swap1\n      sub\n      0x1f\n      and\n      dup3\n      add\n      swap2\n    tag_178:\n      pop\n      pop\n      pop\n      pop\n      pop\n      swap3\n      pop\n      swap5\n      pop\n      swap5\n      pop\n      swap5\n      pop\n      swap5\n      pop\n      pop\n        /* \"Wallery/PaintingShares.sol\":5412:5731  function getShareInfo(uint256 paintingId) external view returns (... */\n      swap2\n      swap4\n      pop\n      swap2\n      swap4\n      jump\t// out\n        /* \"Wallery/PaintingShares.sol\":902:936  address public paintingNFTContract */\n    tag_47:\n      0x05\n      0x00\n      swap1\n      sload\n      swap1\n      0x0100\n      exp\n      swap1\n      div\n      0xffffffffffffffffffffffffffffffffffffffff\n      and\n      dup2\n      jump\t// out\n        /* \"Wallery/PaintingShares.sol\":7114:7181  function unpause() external onlyOwner {... */\n    tag_51:\n        /* \"@openzeppelin/contracts/access/Ownable.sol\":1531:1544  _checkOwner() */\n      tag_182\n        /* \"@openzeppelin/contracts/access/Ownable.sol\":1531:1542  _checkOwner */\n      tag_183\n        /* \"@openzeppelin/contracts/access/Ownable.sol\":1531:1544  _checkOwner() */\n      jump\t// in\n    tag_182:\n        /* \"Wallery/PaintingShares.sol\":7163:7173  _unpause() */\n      tag_185\n        /* \"Wallery/PaintingShares.sol\":7163:7171  _unpause */\n      tag_186\n        /* \"Wallery/PaintingShares.sol\":7163:7173  _unpause() */\n      jump\t// in\n    tag_185:\n        /* \"Wallery/PaintingShares.sol\":7114:7181  function unpause() external onlyOwner {... */\n      jump\t// out\n        /* \"Wallery/PaintingShares.sol\":7189:7930  function debugShareCalculation(... */\n    tag_55:\n        /* \"Wallery/PaintingShares.sol\":7356:7378  uint256 platformShares */\n      0x00\n        /* \"Wallery/PaintingShares.sol\":7385:7408  uint256 wallOwnerShares */\n      dup1\n        /* \"Wallery/PaintingShares.sol\":7415:7441  uint256 galleryOwnerShares */\n      0x00\n        /* \"Wallery/PaintingShares.sol\":7448:7471  uint256 remainingShares */\n      dup1\n        /* \"Wallery/PaintingShares.sol\":7600:7603  100 */\n      0x64\n        /* \"Wallery/PaintingShares.sol\":7578:7596  platformPercentage */\n      dup8\n        /* \"Wallery/PaintingShares.sol\":345:351  100000 */\n      0x0186a0\n        /* \"Wallery/PaintingShares.sol\":7563:7596  TOTAL_SHARES * platformPercentage */\n      tag_188\n      swap2\n      swap1\n      tag_124\n      jump\t// in\n    tag_188:\n        /* \"Wallery/PaintingShares.sol\":7562:7603  (TOTAL_SHARES * platformPercentage) / 100 */\n      tag_189\n      swap2\n      swap1\n      tag_126\n      jump\t// in\n    tag_189:\n        /* \"Wallery/PaintingShares.sol\":7545:7603  platformShares = (TOTAL_SHARES * platformPercentage) / 100 */\n      swap4\n      pop\n        /* \"Wallery/PaintingShares.sol\":7667:7670  100 */\n      0x64\n        /* \"Wallery/PaintingShares.sol\":7644:7663  wallOwnerPercentage */\n      dup7\n        /* \"Wallery/PaintingShares.sol\":345:351  100000 */\n      0x0186a0\n        /* \"Wallery/PaintingShares.sol\":7629:7663  TOTAL_SHARES * wallOwnerPercentage */\n      tag_190\n      swap2\n      swap1\n      tag_124\n      jump\t// in\n    tag_190:\n        /* \"Wallery/PaintingShares.sol\":7628:7670  (TOTAL_SHARES * wallOwnerPercentage) / 100 */\n      tag_191\n      swap2\n      swap1\n      tag_126\n      jump\t// in\n    tag_191:\n        /* \"Wallery/PaintingShares.sol\":7610:7670  wallOwnerShares = (TOTAL_SHARES * wallOwnerPercentage) / 100 */\n      swap3\n      pop\n        /* \"Wallery/PaintingShares.sol\":7740:7743  100 */\n      0x64\n        /* \"Wallery/PaintingShares.sol\":7714:7736  galleryOwnerPercentage */\n      dup6\n        /* \"Wallery/PaintingShares.sol\":345:351  100000 */\n      0x0186a0\n        /* \"Wallery/PaintingShares.sol\":7699:7736  TOTAL_SHARES * galleryOwnerPercentage */\n      tag_192\n      swap2\n      swap1\n      tag_124\n      jump\t// in\n    tag_192:\n        /* \"Wallery/PaintingShares.sol\":7698:7743  (TOTAL_SHARES * galleryOwnerPercentage) / 100 */\n      tag_193\n      swap2\n      swap1\n      tag_126\n      jump\t// in\n    tag_193:\n        /* \"Wallery/PaintingShares.sol\":7677:7743  galleryOwnerShares = (TOTAL_SHARES * galleryOwnerPercentage) / 100 */\n      swap2\n      pop\n        /* \"Wallery/PaintingShares.sol\":7818:7836  galleryOwnerShares */\n      dup2\n        /* \"Wallery/PaintingShares.sol\":7800:7815  wallOwnerShares */\n      dup4\n        /* \"Wallery/PaintingShares.sol\":7783:7797  platformShares */\n      dup6\n        /* \"Wallery/PaintingShares.sol\":345:351  100000 */\n      0x0186a0\n        /* \"Wallery/PaintingShares.sol\":7768:7797  TOTAL_SHARES - platformShares */\n      tag_194\n      swap2\n      swap1\n      tag_135\n      jump\t// in\n    tag_194:\n        /* \"Wallery/PaintingShares.sol\":7768:7815  TOTAL_SHARES - platformShares - wallOwnerShares */\n      tag_195\n      swap2\n      swap1\n      tag_135\n      jump\t// in\n    tag_195:\n        /* \"Wallery/PaintingShares.sol\":7768:7836  TOTAL_SHARES - platformShares - wallOwnerShares - galleryOwnerShares */\n      tag_196\n      swap2\n      swap1\n      tag_135\n      jump\t// in\n    tag_196:\n        /* \"Wallery/PaintingShares.sol\":7750:7836  remainingShares = TOTAL_SHARES - platformShares - wallOwnerShares - galleryOwnerShares */\n      swap1\n      pop\n        /* \"Wallery/PaintingShares.sol\":7189:7930  function debugShareCalculation(... */\n      swap4\n      pop\n      swap4\n      pop\n      swap4\n      pop\n      swap4\n      jump\t// out\n        /* \"Wallery/PaintingShares.sol\":570:613  mapping(uint256 => ShareInfo) public shares */\n    tag_60:\n      mstore(0x20, 0x02)\n      dup1\n      0x00\n      mstore\n      keccak256(0x00, 0x40)\n      0x00\n      swap2\n      pop\n      swap1\n      pop\n      dup1\n      0x00\n      add\n      dup1\n      sload\n      tag_197\n      swap1\n      tag_171\n      jump\t// in\n    tag_197:\n      dup1\n      0x1f\n      add\n      0x20\n      dup1\n      swap2\n      div\n      mul\n      0x20\n      add\n      mload(0x40)\n      swap1\n      dup2\n      add\n      0x40\n      mstore\n      dup1\n      swap3\n      swap2\n      swap1\n      dup2\n      dup2\n      mstore\n      0x20\n      add\n      dup3\n      dup1\n      sload\n      tag_198\n      swap1\n      tag_171\n      jump\t// in\n    tag_198:\n      dup1\n      iszero\n      tag_199\n      jumpi\n      dup1\n      0x1f\n      lt\n      tag_200\n      jumpi\n      0x0100\n      dup1\n      dup4\n      sload\n      div\n      mul\n      dup4\n      mstore\n      swap2\n      0x20\n      add\n      swap2\n      jump(tag_199)\n    tag_200:\n      dup3\n      add\n      swap2\n      swap1\n      0x00\n      mstore\n      keccak256(0x00, 0x20)\n      swap1\n    tag_201:\n      dup2\n      sload\n      dup2\n      mstore\n      swap1\n      0x01\n      add\n      swap1\n      0x20\n      add\n      dup1\n      dup4\n      gt\n      tag_201\n      jumpi\n      dup3\n      swap1\n      sub\n      0x1f\n      and\n      dup3\n      add\n      swap2\n    tag_199:\n      pop\n      pop\n      pop\n      pop\n      pop\n      swap1\n      dup1\n      0x01\n      add\n      dup1\n      sload\n      tag_202\n      swap1\n      tag_171\n      jump\t// in\n    tag_202:\n      dup1\n      0x1f\n      add\n      0x20\n      dup1\n      swap2\n      div\n      mul\n      0x20\n      add\n      mload(0x40)\n      swap1\n      dup2\n      add\n      0x40\n      mstore\n      dup1\n      swap3\n      swap2\n      swap1\n      dup2\n      dup2\n      mstore\n      0x20\n      add\n      dup3\n      dup1\n      sload\n      tag_203\n      swap1\n      tag_171\n      jump\t// in\n    tag_203:\n      dup1\n      iszero\n      tag_204\n      jumpi\n      dup1\n      0x1f\n      lt\n      tag_205\n      jumpi\n      0x0100\n      dup1\n      dup4\n      sload\n      div\n      mul\n      dup4\n      mstore\n      swap2\n      0x20\n      add\n      swap2\n      jump(tag_204)\n    tag_205:\n      dup3\n      add\n      swap2\n      swap1\n      0x00\n      mstore\n      keccak256(0x00, 0x20)\n      swap1\n    tag_206:\n      dup2\n      sload\n      dup2\n      mstore\n      swap1\n      0x01\n      add\n      swap1\n      0x20\n      add\n      dup1\n      dup4\n      gt\n      tag_206\n      jumpi\n      dup3\n      swap1\n      sub\n      0x1f\n      and\n      dup3\n      add\n      swap2\n    tag_204:\n      pop\n      pop\n      pop\n      pop\n      pop\n      swap1\n      dup1\n      0x02\n      add\n      sload\n      swap1\n      dup1\n      0x03\n      add\n      0x00\n      swap1\n      sload\n      swap1\n      0x0100\n      exp\n      swap1\n      div\n      0xff\n      and\n      swap1\n      pop\n      dup5\n      jump\t// out\n        /* \"Wallery/PaintingShares.sol\":809:893  mapping(address => mapping(address => mapping(uint256 => uint256))) public allowance */\n    tag_65:\n      mstore(0x20, 0x04)\n      dup3\n      0x00\n      mstore\n      mstore(0x20, keccak256(0x00, 0x40))\n      dup2\n      0x00\n      mstore\n      mstore(0x20, keccak256(0x00, 0x40))\n      dup1\n      0x00\n      mstore\n      keccak256(0x00, 0x40)\n      0x00\n      swap3\n      pop\n      swap3\n      pop\n      pop\n      pop\n      sload\n      dup2\n      jump\t// out\n        /* \"@openzeppelin/contracts/security/Pausable.sol\":1615:1699  function paused() public view virtual returns (bool) {... */\n    tag_68:\n        /* \"@openzeppelin/contracts/security/Pausable.sol\":1662:1666  bool */\n      0x00\n        /* \"@openzeppelin/contracts/security/Pausable.sol\":1685:1692  _paused */\n      dup1\n      0x14\n      swap1\n      sload\n      swap1\n      0x0100\n      exp\n      swap1\n      div\n      0xff\n      and\n        /* \"@openzeppelin/contracts/security/Pausable.sol\":1678:1692  return _paused */\n      swap1\n      pop\n        /* \"@openzeppelin/contracts/security/Pausable.sol\":1615:1699  function paused() public view virtual returns (bool) {... */\n      swap1\n      jump\t// out\n        /* \"@openzeppelin/contracts/access/Ownable.sol\":2293:2394  function renounceOwnership() public virtual onlyOwner {... */\n    tag_71:\n        /* \"@openzeppelin/contracts/access/Ownable.sol\":1531:1544  _checkOwner() */\n      tag_209\n        /* \"@openzeppelin/contracts/access/Ownable.sol\":1531:1542  _checkOwner */\n      tag_183\n        /* \"@openzeppelin/contracts/access/Ownable.sol\":1531:1544  _checkOwner() */\n      jump\t// in\n    tag_209:\n        /* \"@openzeppelin/contracts/access/Ownable.sol\":2357:2387  _transferOwnership(address(0)) */\n      tag_211\n        /* \"@openzeppelin/contracts/access/Ownable.sol\":2384:2385  0 */\n      0x00\n        /* \"@openzeppelin/contracts/access/Ownable.sol\":2357:2375  _transferOwnership */\n      tag_212\n        /* \"@openzeppelin/contracts/access/Ownable.sol\":2357:2387  _transferOwnership(address(0)) */\n      jump\t// in\n    tag_211:\n        /* \"@openzeppelin/contracts/access/Ownable.sol\":2293:2394  function renounceOwnership() public virtual onlyOwner {... */\n      jump\t// out\n        /* \"Wallery/PaintingShares.sol\":7043:7106  function pause() external onlyOwner {... */\n    tag_73:\n        /* \"@openzeppelin/contracts/access/Ownable.sol\":1531:1544  _checkOwner() */\n      tag_214\n        /* \"@openzeppelin/contracts/access/Ownable.sol\":1531:1542  _checkOwner */\n      tag_183\n        /* \"@openzeppelin/contracts/access/Ownable.sol\":1531:1544  _checkOwner() */\n      jump\t// in\n    tag_214:\n        /* \"Wallery/PaintingShares.sol\":7090:7098  _pause() */\n      tag_216\n        /* \"Wallery/PaintingShares.sol\":7090:7096  _pause */\n      tag_217\n        /* \"Wallery/PaintingShares.sol\":7090:7098  _pause() */\n      jump\t// in\n    tag_216:\n        /* \"Wallery/PaintingShares.sol\":7043:7106  function pause() external onlyOwner {... */\n      jump\t// out\n        /* \"Wallery/PaintingShares.sol\":306:351  uint256 public constant TOTAL_SHARES = 100000 */\n    tag_75:\n        /* \"Wallery/PaintingShares.sol\":345:351  100000 */\n      0x0186a0\n        /* \"Wallery/PaintingShares.sol\":306:351  uint256 public constant TOTAL_SHARES = 100000 */\n      dup2\n      jump\t// out\n        /* \"Wallery/PaintingShares.sol\":4411:4808  function approve(... */\n    tag_80:\n        /* \"Wallery/PaintingShares.sol\":4575:4579  bool */\n      0x00\n        /* \"Wallery/PaintingShares.sol\":4540:4550  paintingId */\n      dup4\n        /* \"Wallery/PaintingShares.sol\":1837:1843  shares */\n      0x02\n        /* \"Wallery/PaintingShares.sol\":1837:1855  shares[paintingId] */\n      0x00\n        /* \"Wallery/PaintingShares.sol\":1844:1854  paintingId */\n      dup3\n        /* \"Wallery/PaintingShares.sol\":1837:1855  shares[paintingId] */\n      dup2\n      mstore\n      0x20\n      add\n      swap1\n      dup2\n      mstore\n      0x20\n      add\n      0x00\n      keccak256\n        /* \"Wallery/PaintingShares.sol\":1837:1862  shares[paintingId].exists */\n      0x03\n      add\n      0x00\n      swap1\n      sload\n      swap1\n      0x0100\n      exp\n      swap1\n      div\n      0xff\n      and\n        /* \"Wallery/PaintingShares.sol\":1829:1903  require(shares[paintingId].exists, \"Shares don't exist for this painting\") */\n      tag_219\n      jumpi\n      mload(0x40)\n      0x08c379a000000000000000000000000000000000000000000000000000000000\n      dup2\n      mstore\n      0x04\n      add\n      tag_220\n      swap1\n      tag_148\n      jump\t// in\n    tag_220:\n      mload(0x40)\n      dup1\n      swap2\n      sub\n      swap1\n      revert\n    tag_219:\n        /* \"@openzeppelin/contracts/security/Pausable.sol\":1239:1258  _requireNotPaused() */\n      tag_222\n        /* \"@openzeppelin/contracts/security/Pausable.sol\":1239:1256  _requireNotPaused */\n      tag_102\n        /* \"@openzeppelin/contracts/security/Pausable.sol\":1239:1258  _requireNotPaused() */\n      jump\t// in\n    tag_222:\n        /* \"Wallery/PaintingShares.sol\":4619:4620  0 */\n      0x00\n        /* \"Wallery/PaintingShares.sol\":4600:4621  spender != address(0) */\n      0xffffffffffffffffffffffffffffffffffffffff\n      and\n        /* \"Wallery/PaintingShares.sol\":4600:4607  spender */\n      dup5\n        /* \"Wallery/PaintingShares.sol\":4600:4621  spender != address(0) */\n      0xffffffffffffffffffffffffffffffffffffffff\n      and\n      sub\n        /* \"Wallery/PaintingShares.sol\":4592:4649  require(spender != address(0), \"Approve to zero address\") */\n      tag_224\n      jumpi\n      mload(0x40)\n      0x08c379a000000000000000000000000000000000000000000000000000000000\n      dup2\n      mstore\n      0x04\n      add\n      tag_225\n      swap1\n      tag_226\n      jump\t// in\n    tag_225:\n      mload(0x40)\n      dup1\n      swap2\n      sub\n      swap1\n      revert\n    tag_224:\n        /* \"Wallery/PaintingShares.sol\":4707:4713  amount */\n      dup3\n        /* \"Wallery/PaintingShares.sol\":4662:4671  allowance */\n      0x04\n        /* \"Wallery/PaintingShares.sol\":4662:4683  allowance[msg.sender] */\n      0x00\n        /* \"Wallery/PaintingShares.sol\":4672:4682  msg.sender */\n      caller\n        /* \"Wallery/PaintingShares.sol\":4662:4683  allowance[msg.sender] */\n      0xffffffffffffffffffffffffffffffffffffffff\n      and\n      0xffffffffffffffffffffffffffffffffffffffff\n      and\n      dup2\n      mstore\n      0x20\n      add\n      swap1\n      dup2\n      mstore\n      0x20\n      add\n      0x00\n      keccak256\n        /* \"Wallery/PaintingShares.sol\":4662:4692  allowance[msg.sender][spender] */\n      0x00\n        /* \"Wallery/PaintingShares.sol\":4684:4691  spender */\n      dup7\n        /* \"Wallery/PaintingShares.sol\":4662:4692  allowance[msg.sender][spender] */\n      0xffffffffffffffffffffffffffffffffffffffff\n      and\n      0xffffffffffffffffffffffffffffffffffffffff\n      and\n      dup2\n      mstore\n      0x20\n      add\n      swap1\n      dup2\n      mstore\n      0x20\n      add\n      0x00\n      keccak256\n        /* \"Wallery/PaintingShares.sol\":4662:4704  allowance[msg.sender][spender][paintingId] */\n      0x00\n        /* \"Wallery/PaintingShares.sol\":4693:4703  paintingId */\n      dup8\n        /* \"Wallery/PaintingShares.sol\":4662:4704  allowance[msg.sender][spender][paintingId] */\n      dup2\n      mstore\n      0x20\n      add\n      swap1\n      dup2\n      mstore\n      0x20\n      add\n      0x00\n      keccak256\n        /* \"Wallery/PaintingShares.sol\":4662:4713  allowance[msg.sender][spender][paintingId] = amount */\n      dup2\n      swap1\n      sstore\n      pop\n        /* \"Wallery/PaintingShares.sol\":4762:4769  spender */\n      dup4\n        /* \"Wallery/PaintingShares.sol\":4729:4778  Approval(paintingId, msg.sender, spender, amount) */\n      0xffffffffffffffffffffffffffffffffffffffff\n      and\n        /* \"Wallery/PaintingShares.sol\":4750:4760  msg.sender */\n      caller\n        /* \"Wallery/PaintingShares.sol\":4729:4778  Approval(paintingId, msg.sender, spender, amount) */\n      0xffffffffffffffffffffffffffffffffffffffff\n      and\n        /* \"Wallery/PaintingShares.sol\":4738:4748  paintingId */\n      dup7\n        /* \"Wallery/PaintingShares.sol\":4729:4778  Approval(paintingId, msg.sender, spender, amount) */\n      0x69e4aaf23f9318cf40839ac20453d8fbedaac2955eb08a27ae5189cc71925716\n        /* \"Wallery/PaintingShares.sol\":4771:4777  amount */\n      dup7\n        /* \"Wallery/PaintingShares.sol\":4729:4778  Approval(paintingId, msg.sender, spender, amount) */\n      mload(0x40)\n      tag_227\n      swap2\n      swap1\n      tag_29\n      jump\t// in\n    tag_227:\n      mload(0x40)\n      dup1\n      swap2\n      sub\n      swap1\n      log4\n        /* \"Wallery/PaintingShares.sol\":4796:4800  true */\n      0x01\n        /* \"Wallery/PaintingShares.sol\":4789:4800  return true */\n      swap2\n      pop\n        /* \"Wallery/PaintingShares.sol\":4411:4808  function approve(... */\n      pop\n      swap4\n      swap3\n      pop\n      pop\n      pop\n      jump\t// out\n        /* \"@openzeppelin/contracts/access/Ownable.sol\":1638:1723  function owner() public view virtual returns (address) {... */\n    tag_83:\n        /* \"@openzeppelin/contracts/access/Ownable.sol\":1684:1691  address */\n      0x00\n        /* \"@openzeppelin/contracts/access/Ownable.sol\":1710:1716  _owner */\n      dup1\n      0x00\n      swap1\n      sload\n      swap1\n      0x0100\n      exp\n      swap1\n      div\n      0xffffffffffffffffffffffffffffffffffffffff\n      and\n        /* \"@openzeppelin/contracts/access/Ownable.sol\":1703:1716  return _owner */\n      swap1\n      pop\n        /* \"@openzeppelin/contracts/access/Ownable.sol\":1638:1723  function owner() public view virtual returns (address) {... */\n      swap1\n      jump\t// out\n        /* \"Wallery/PaintingShares.sol\":1927:2147  function setPaintingNFTContract(address _paintingNFTContract) external onlyOwner {... */\n    tag_88:\n        /* \"@openzeppelin/contracts/access/Ownable.sol\":1531:1544  _checkOwner() */\n      tag_230\n        /* \"@openzeppelin/contracts/access/Ownable.sol\":1531:1542  _checkOwner */\n      tag_183\n        /* \"@openzeppelin/contracts/access/Ownable.sol\":1531:1544  _checkOwner() */\n      jump\t// in\n    tag_230:\n        /* \"Wallery/PaintingShares.sol\":2055:2056  0 */\n      0x00\n        /* \"Wallery/PaintingShares.sol\":2023:2057  _paintingNFTContract != address(0) */\n      0xffffffffffffffffffffffffffffffffffffffff\n      and\n        /* \"Wallery/PaintingShares.sol\":2023:2043  _paintingNFTContract */\n      dup2\n        /* \"Wallery/PaintingShares.sol\":2023:2057  _paintingNFTContract != address(0) */\n      0xffffffffffffffffffffffffffffffffffffffff\n      and\n      sub\n        /* \"Wallery/PaintingShares.sol\":2015:2077  require(_paintingNFTContract != address(0), \"Invalid address\") */\n      tag_232\n      jumpi\n      mload(0x40)\n      0x08c379a000000000000000000000000000000000000000000000000000000000\n      dup2\n      mstore\n      0x04\n      add\n      tag_233\n      swap1\n      tag_234\n      jump\t// in\n    tag_233:\n      mload(0x40)\n      dup1\n      swap2\n      sub\n      swap1\n      revert\n    tag_232:\n        /* \"Wallery/PaintingShares.sol\":2106:2126  _paintingNFTContract */\n      dup1\n        /* \"Wallery/PaintingShares.sol\":2084:2103  paintingNFTContract */\n      0x05\n      0x00\n        /* \"Wallery/PaintingShares.sol\":2084:2126  paintingNFTContract = _paintingNFTContract */\n      0x0100\n      exp\n      dup2\n      sload\n      dup2\n      0xffffffffffffffffffffffffffffffffffffffff\n      mul\n      not\n      and\n      swap1\n      dup4\n      0xffffffffffffffffffffffffffffffffffffffff\n      and\n      mul\n      or\n      swap1\n      sstore\n      pop\n        /* \"Wallery/PaintingShares.sol\":2133:2143  _unpause() */\n      tag_235\n        /* \"Wallery/PaintingShares.sol\":2133:2141  _unpause */\n      tag_186\n        /* \"Wallery/PaintingShares.sol\":2133:2143  _unpause() */\n      jump\t// in\n    tag_235:\n        /* \"Wallery/PaintingShares.sol\":1927:2147  function setPaintingNFTContract(address _paintingNFTContract) external onlyOwner {... */\n      pop\n      jump\t// out\n        /* \"@openzeppelin/contracts/access/Ownable.sol\":2543:2758  function transferOwnership(address newOwner) public virtual onlyOwner {... */\n    tag_91:\n        /* \"@openzeppelin/contracts/access/Ownable.sol\":1531:1544  _checkOwner() */\n      tag_237\n        /* \"@openzeppelin/contracts/access/Ownable.sol\":1531:1542  _checkOwner */\n      tag_183\n        /* \"@openzeppelin/contracts/access/Ownable.sol\":1531:1544  _checkOwner() */\n      jump\t// in\n    tag_237:\n        /* \"@openzeppelin/contracts/access/Ownable.sol\":2647:2648  0 */\n      0x00\n        /* \"@openzeppelin/contracts/access/Ownable.sol\":2627:2649  newOwner == address(0) */\n      0xffffffffffffffffffffffffffffffffffffffff\n      and\n        /* \"@openzeppelin/contracts/access/Ownable.sol\":2627:2635  newOwner */\n      dup2\n        /* \"@openzeppelin/contracts/access/Ownable.sol\":2627:2649  newOwner == address(0) */\n      0xffffffffffffffffffffffffffffffffffffffff\n      and\n      sub\n        /* \"@openzeppelin/contracts/access/Ownable.sol\":2623:2714  if (newOwner == address(0)) {... */\n      tag_239\n      jumpi\n        /* \"@openzeppelin/contracts/access/Ownable.sol\":2700:2701  0 */\n      0x00\n        /* \"@openzeppelin/contracts/access/Ownable.sol\":2672:2703  OwnableInvalidOwner(address(0)) */\n      mload(0x40)\n      0x1e4fbdf700000000000000000000000000000000000000000000000000000000\n      dup2\n      mstore\n      0x04\n      add\n      tag_240\n      swap2\n      swap1\n      tag_49\n      jump\t// in\n    tag_240:\n      mload(0x40)\n      dup1\n      swap2\n      sub\n      swap1\n      revert\n        /* \"@openzeppelin/contracts/access/Ownable.sol\":2623:2714  if (newOwner == address(0)) {... */\n    tag_239:\n        /* \"@openzeppelin/contracts/access/Ownable.sol\":2723:2751  _transferOwnership(newOwner) */\n      tag_241\n        /* \"@openzeppelin/contracts/access/Ownable.sol\":2742:2750  newOwner */\n      dup2\n        /* \"@openzeppelin/contracts/access/Ownable.sol\":2723:2741  _transferOwnership */\n      tag_212\n        /* \"@openzeppelin/contracts/access/Ownable.sol\":2723:2751  _transferOwnership(newOwner) */\n      jump\t// in\n    tag_241:\n        /* \"@openzeppelin/contracts/access/Ownable.sol\":2543:2758  function transferOwnership(address newOwner) public virtual onlyOwner {... */\n      pop\n      jump\t// out\n        /* \"Wallery/PaintingShares.sol\":3985:4403  function transfer(... */\n    tag_94:\n        /* \"Wallery/PaintingShares.sol\":4158:4162  bool */\n      0x00\n        /* \"Wallery/PaintingShares.sol\":4110:4120  paintingId */\n      dup4\n        /* \"Wallery/PaintingShares.sol\":1837:1843  shares */\n      0x02\n        /* \"Wallery/PaintingShares.sol\":1837:1855  shares[paintingId] */\n      0x00\n        /* \"Wallery/PaintingShares.sol\":1844:1854  paintingId */\n      dup3\n        /* \"Wallery/PaintingShares.sol\":1837:1855  shares[paintingId] */\n      dup2\n      mstore\n      0x20\n      add\n      swap1\n      dup2\n      mstore\n      0x20\n      add\n      0x00\n      keccak256\n        /* \"Wallery/PaintingShares.sol\":1837:1862  shares[paintingId].exists */\n      0x03\n      add\n      0x00\n      swap1\n      sload\n      swap1\n      0x0100\n      exp\n      swap1\n      div\n      0xff\n      and\n        /* \"Wallery/PaintingShares.sol\":1829:1903  require(shares[paintingId].exists, \"Shares don't exist for this painting\") */\n      tag_243\n      jumpi\n      mload(0x40)\n      0x08c379a000000000000000000000000000000000000000000000000000000000\n      dup2\n      mstore\n      0x04\n      add\n      tag_244\n      swap1\n      tag_148\n      jump\t// in\n    tag_244:\n      mload(0x40)\n      dup1\n      swap2\n      sub\n      swap1\n      revert\n    tag_243:\n        /* \"@openzeppelin/contracts/security/Pausable.sol\":1239:1258  _requireNotPaused() */\n      tag_246\n        /* \"@openzeppelin/contracts/security/Pausable.sol\":1239:1256  _requireNotPaused */\n      tag_102\n        /* \"@openzeppelin/contracts/security/Pausable.sol\":1239:1258  _requireNotPaused() */\n      jump\t// in\n    tag_246:\n        /* \"@openzeppelin/contracts/security/ReentrancyGuard.sol\":2261:2282  _nonReentrantBefore() */\n      tag_248\n        /* \"@openzeppelin/contracts/security/ReentrancyGuard.sol\":2261:2280  _nonReentrantBefore */\n      tag_153\n        /* \"@openzeppelin/contracts/security/ReentrancyGuard.sol\":2261:2282  _nonReentrantBefore() */\n      jump\t// in\n    tag_248:\n        /* \"Wallery/PaintingShares.sol\":4197:4198  0 */\n      0x00\n        /* \"Wallery/PaintingShares.sol\":4183:4199  to != address(0) */\n      0xffffffffffffffffffffffffffffffffffffffff\n      and\n        /* \"Wallery/PaintingShares.sol\":4183:4185  to */\n      dup5\n        /* \"Wallery/PaintingShares.sol\":4183:4199  to != address(0) */\n      0xffffffffffffffffffffffffffffffffffffffff\n      and\n      sub\n        /* \"Wallery/PaintingShares.sol\":4175:4228  require(to != address(0), \"Transfer to zero address\") */\n      tag_250\n      jumpi\n      mload(0x40)\n      0x08c379a000000000000000000000000000000000000000000000000000000000\n      dup2\n      mstore\n      0x04\n      add\n      tag_251\n      swap1\n      tag_157\n      jump\t// in\n    tag_251:\n      mload(0x40)\n      dup1\n      swap2\n      sub\n      swap1\n      revert\n    tag_250:\n        /* \"Wallery/PaintingShares.sol\":4284:4290  amount */\n      dup3\n        /* \"Wallery/PaintingShares.sol\":4247:4256  balanceOf */\n      0x03\n        /* \"Wallery/PaintingShares.sol\":4247:4268  balanceOf[msg.sender] */\n      0x00\n        /* \"Wallery/PaintingShares.sol\":4257:4267  msg.sender */\n      caller\n        /* \"Wallery/PaintingShares.sol\":4247:4268  balanceOf[msg.sender] */\n      0xffffffffffffffffffffffffffffffffffffffff\n      and\n      0xffffffffffffffffffffffffffffffffffffffff\n      and\n      dup2\n      mstore\n      0x20\n      add\n      swap1\n      dup2\n      mstore\n      0x20\n      add\n      0x00\n      keccak256\n        /* \"Wallery/PaintingShares.sol\":4247:4280  balanceOf[msg.sender][paintingId] */\n      0x00\n        /* \"Wallery/PaintingShares.sol\":4269:4279  paintingId */\n      dup8\n        /* \"Wallery/PaintingShares.sol\":4247:4280  balanceOf[msg.sender][paintingId] */\n      dup2\n      mstore\n      0x20\n      add\n      swap1\n      dup2\n      mstore\n      0x20\n      add\n      0x00\n      keccak256\n      sload\n        /* \"Wallery/PaintingShares.sol\":4247:4290  balanceOf[msg.sender][paintingId] >= amount */\n      lt\n      iszero\n        /* \"Wallery/PaintingShares.sol\":4239:4315  require(balanceOf[msg.sender][paintingId] >= amount, \"Insufficient balance\") */\n      tag_252\n      jumpi\n      mload(0x40)\n      0x08c379a000000000000000000000000000000000000000000000000000000000\n      dup2\n      mstore\n      0x04\n      add\n      tag_253\n      swap1\n      tag_160\n      jump\t// in\n    tag_253:\n      mload(0x40)\n      dup1\n      swap2\n      sub\n      swap1\n      revert\n    tag_252:\n        /* \"Wallery/PaintingShares.sol\":4328:4373  _transfer(paintingId, msg.sender, to, amount) */\n      tag_254\n        /* \"Wallery/PaintingShares.sol\":4338:4348  paintingId */\n      dup6\n        /* \"Wallery/PaintingShares.sol\":4350:4360  msg.sender */\n      caller\n        /* \"Wallery/PaintingShares.sol\":4362:4364  to */\n      dup7\n        /* \"Wallery/PaintingShares.sol\":4366:4372  amount */\n      dup7\n        /* \"Wallery/PaintingShares.sol\":4328:4337  _transfer */\n      tag_166\n        /* \"Wallery/PaintingShares.sol\":4328:4373  _transfer(paintingId, msg.sender, to, amount) */\n      jump\t// in\n    tag_254:\n        /* \"Wallery/PaintingShares.sol\":4391:4395  true */\n      0x01\n        /* \"Wallery/PaintingShares.sol\":4384:4395  return true */\n      swap2\n      pop\n        /* \"@openzeppelin/contracts/security/ReentrancyGuard.sol\":2303:2323  _nonReentrantAfter() */\n      tag_255\n        /* \"@openzeppelin/contracts/security/ReentrancyGuard.sol\":2303:2321  _nonReentrantAfter */\n      tag_168\n        /* \"@openzeppelin/contracts/security/ReentrancyGuard.sol\":2303:2323  _nonReentrantAfter() */\n      jump\t// in\n    tag_255:\n        /* \"Wallery/PaintingShares.sol\":3985:4403  function transfer(... */\n      pop\n      swap4\n      swap3\n      pop\n      pop\n      pop\n      jump\t// out\n        /* \"@openzeppelin/contracts/security/Pausable.sol\":1767:1873  function _requireNotPaused() internal view virtual {... */\n    tag_102:\n        /* \"@openzeppelin/contracts/security/Pausable.sol\":1837:1845  paused() */\n      tag_257\n        /* \"@openzeppelin/contracts/security/Pausable.sol\":1837:1843  paused */\n      tag_68\n        /* \"@openzeppelin/contracts/security/Pausable.sol\":1837:1845  paused() */\n      jump\t// in\n    tag_257:\n        /* \"@openzeppelin/contracts/security/Pausable.sol\":1836:1845  !paused() */\n      iszero\n        /* \"@openzeppelin/contracts/security/Pausable.sol\":1828:1866  require(!paused(), \"Pausable: paused\") */\n      tag_258\n      jumpi\n      mload(0x40)\n      0x08c379a000000000000000000000000000000000000000000000000000000000\n      dup2\n      mstore\n      0x04\n      add\n      tag_259\n      swap1\n      tag_260\n      jump\t// in\n    tag_259:\n      mload(0x40)\n      dup1\n      swap2\n      sub\n      swap1\n      revert\n    tag_258:\n        /* \"@openzeppelin/contracts/security/Pausable.sol\":1767:1873  function _requireNotPaused() internal view virtual {... */\n      jump\t// out\n        /* \"Wallery/PaintingShares.sol\":6502:7035  function _toString(uint256 value) internal pure returns (string memory) {... */\n    tag_114:\n        /* \"Wallery/PaintingShares.sol\":6559:6572  string memory */\n      0x60\n        /* \"Wallery/PaintingShares.sol\":6598:6599  0 */\n      0x00\n        /* \"Wallery/PaintingShares.sol\":6589:6594  value */\n      dup3\n        /* \"Wallery/PaintingShares.sol\":6589:6599  value == 0 */\n      sub\n        /* \"Wallery/PaintingShares.sol\":6585:6638  if (value == 0) {... */\n      tag_262\n      jumpi\n        /* \"Wallery/PaintingShares.sol\":6616:6626  return \"0\" */\n      mload(0x40)\n      dup1\n      0x40\n      add\n      0x40\n      mstore\n      dup1\n      0x01\n      dup2\n      mstore\n      0x20\n      add\n      0x3000000000000000000000000000000000000000000000000000000000000000\n      dup2\n      mstore\n      pop\n      swap1\n      pop\n      jump(tag_261)\n        /* \"Wallery/PaintingShares.sol\":6585:6638  if (value == 0) {... */\n    tag_262:\n        /* \"Wallery/PaintingShares.sol\":6648:6660  uint256 temp */\n      0x00\n        /* \"Wallery/PaintingShares.sol\":6663:6668  value */\n      dup3\n        /* \"Wallery/PaintingShares.sol\":6648:6668  uint256 temp = value */\n      swap1\n      pop\n        /* \"Wallery/PaintingShares.sol\":6679:6693  uint256 digits */\n      0x00\n        /* \"Wallery/PaintingShares.sol\":6704:6782  while (temp != 0) {... */\n    tag_263:\n        /* \"Wallery/PaintingShares.sol\":6719:6720  0 */\n      0x00\n        /* \"Wallery/PaintingShares.sol\":6711:6715  temp */\n      dup3\n        /* \"Wallery/PaintingShares.sol\":6711:6720  temp != 0 */\n      eq\n        /* \"Wallery/PaintingShares.sol\":6704:6782  while (temp != 0) {... */\n      tag_264\n      jumpi\n        /* \"Wallery/PaintingShares.sol\":6737:6745  digits++ */\n      dup1\n      dup1\n      tag_265\n      swap1\n      tag_266\n      jump\t// in\n    tag_265:\n      swap2\n      pop\n      pop\n        /* \"Wallery/PaintingShares.sol\":6768:6770  10 */\n      0x0a\n        /* \"Wallery/PaintingShares.sol\":6760:6770  temp /= 10 */\n      dup3\n      tag_267\n      swap2\n      swap1\n      tag_126\n      jump\t// in\n    tag_267:\n      swap2\n      pop\n        /* \"Wallery/PaintingShares.sol\":6704:6782  while (temp != 0) {... */\n      jump(tag_263)\n    tag_264:\n        /* \"Wallery/PaintingShares.sol\":6792:6811  bytes memory buffer */\n      0x00\n        /* \"Wallery/PaintingShares.sol\":6824:6830  digits */\n      dup2\n        /* \"Wallery/PaintingShares.sol\":6814:6831  new bytes(digits) */\n      0xffffffffffffffff\n      dup2\n      gt\n      iszero\n      tag_268\n      jumpi\n      tag_269\n      tag_270\n      jump\t// in\n    tag_269:\n    tag_268:\n      mload(0x40)\n      swap1\n      dup1\n      dup3\n      mstore\n      dup1\n      0x1f\n      add\n      not(0x1f)\n      and\n      0x20\n      add\n      dup3\n      add\n      0x40\n      mstore\n      dup1\n      iszero\n      tag_271\n      jumpi\n      dup2\n      0x20\n      add\n      0x01\n      dup3\n      mul\n      dup1\n      calldatasize\n      dup4\n      calldatacopy\n      dup1\n      dup3\n      add\n      swap2\n      pop\n      pop\n      swap1\n      pop\n    tag_271:\n      pop\n        /* \"Wallery/PaintingShares.sol\":6792:6831  bytes memory buffer = new bytes(digits) */\n      swap1\n      pop\n        /* \"Wallery/PaintingShares.sol\":6842:6996  while (value != 0) {... */\n    tag_272:\n        /* \"Wallery/PaintingShares.sol\":6858:6859  0 */\n      0x00\n        /* \"Wallery/PaintingShares.sol\":6849:6854  value */\n      dup6\n        /* \"Wallery/PaintingShares.sol\":6849:6859  value != 0 */\n      eq\n        /* \"Wallery/PaintingShares.sol\":6842:6996  while (value != 0) {... */\n      tag_273\n      jumpi\n        /* \"Wallery/PaintingShares.sol\":6886:6887  1 */\n      0x01\n        /* \"Wallery/PaintingShares.sol\":6876:6887  digits -= 1 */\n      dup3\n      tag_274\n      swap2\n      swap1\n      tag_135\n      jump\t// in\n    tag_274:\n      swap2\n      pop\n        /* \"Wallery/PaintingShares.sol\":6953:6955  10 */\n      0x0a\n        /* \"Wallery/PaintingShares.sol\":6945:6950  value */\n      dup6\n        /* \"Wallery/PaintingShares.sol\":6945:6955  value % 10 */\n      tag_275\n      swap2\n      swap1\n      tag_276\n      jump\t// in\n    tag_275:\n        /* \"Wallery/PaintingShares.sol\":6932:6934  48 */\n      0x30\n        /* \"Wallery/PaintingShares.sol\":6932:6956  48 + uint256(value % 10) */\n      tag_277\n      swap2\n      swap1\n      tag_108\n      jump\t// in\n    tag_277:\n        /* \"Wallery/PaintingShares.sol\":6919:6958  bytes1(uint8(48 + uint256(value % 10))) */\n      0xf8\n      shl\n        /* \"Wallery/PaintingShares.sol\":6902:6908  buffer */\n      dup2\n        /* \"Wallery/PaintingShares.sol\":6909:6915  digits */\n      dup4\n        /* \"Wallery/PaintingShares.sol\":6902:6916  buffer[digits] */\n      dup2\n      mload\n      dup2\n      lt\n      tag_278\n      jumpi\n      tag_279\n      tag_280\n      jump\t// in\n    tag_279:\n    tag_278:\n      0x20\n      add\n      add\n        /* \"Wallery/PaintingShares.sol\":6902:6958  buffer[digits] = bytes1(uint8(48 + uint256(value % 10))) */\n      swap1\n      not(0xffffffffffffffffffffffffffffffffffffffffffffffffffffffffffffff)\n      and\n      swap1\n      dup2\n      0x00\n      byte\n      swap1\n      mstore8\n      pop\n        /* \"Wallery/PaintingShares.sol\":6982:6984  10 */\n      0x0a\n        /* \"Wallery/PaintingShares.sol\":6973:6984  value /= 10 */\n      dup6\n      tag_281\n      swap2\n      swap1\n      tag_126\n      jump\t// in\n    tag_281:\n      swap5\n      pop\n        /* \"Wallery/PaintingShares.sol\":6842:6996  while (value != 0) {... */\n      jump(tag_272)\n    tag_273:\n        /* \"Wallery/PaintingShares.sol\":7020:7026  buffer */\n      dup1\n        /* \"Wallery/PaintingShares.sol\":7006:7027  return string(buffer) */\n      swap4\n      pop\n      pop\n      pop\n      pop\n        /* \"Wallery/PaintingShares.sol\":6502:7035  function _toString(uint256 value) internal pure returns (string memory) {... */\n    tag_261:\n      swap2\n      swap1\n      pop\n      jump\t// out\n        /* \"Wallery/PaintingShares.sol\":6144:6494  function _mintShares(... */\n    tag_139:\n        /* \"Wallery/PaintingShares.sol\":6289:6290  0 */\n      0x00\n        /* \"Wallery/PaintingShares.sol\":6275:6291  to != address(0) */\n      0xffffffffffffffffffffffffffffffffffffffff\n      and\n        /* \"Wallery/PaintingShares.sol\":6275:6277  to */\n      dup3\n        /* \"Wallery/PaintingShares.sol\":6275:6291  to != address(0) */\n      0xffffffffffffffffffffffffffffffffffffffff\n      and\n      sub\n        /* \"Wallery/PaintingShares.sol\":6267:6316  require(to != address(0), \"Mint to zero address\") */\n      tag_283\n      jumpi\n      mload(0x40)\n      0x08c379a000000000000000000000000000000000000000000000000000000000\n      dup2\n      mstore\n      0x04\n      add\n      tag_284\n      swap1\n      tag_285\n      jump\t// in\n    tag_284:\n      mload(0x40)\n      dup1\n      swap2\n      sub\n      swap1\n      revert\n    tag_283:\n        /* \"Wallery/PaintingShares.sol\":6366:6372  amount */\n      dup1\n        /* \"Wallery/PaintingShares.sol\":6337:6346  balanceOf */\n      0x03\n        /* \"Wallery/PaintingShares.sol\":6337:6350  balanceOf[to] */\n      0x00\n        /* \"Wallery/PaintingShares.sol\":6347:6349  to */\n      dup5\n        /* \"Wallery/PaintingShares.sol\":6337:6350  balanceOf[to] */\n      0xffffffffffffffffffffffffffffffffffffffff\n      and\n      0xffffffffffffffffffffffffffffffffffffffff\n      and\n      dup2\n      mstore\n      0x20\n      add\n      swap1\n      dup2\n      mstore\n      0x20\n      add\n      0x00\n      keccak256\n        /* \"Wallery/PaintingShares.sol\":6337:6362  balanceOf[to][paintingId] */\n      0x00\n        /* \"Wallery/PaintingShares.sol\":6351:6361  paintingId */\n      dup6\n        /* \"Wallery/PaintingShares.sol\":6337:6362  balanceOf[to][paintingId] */\n      dup2\n      mstore\n      0x20\n      add\n      swap1\n      dup2\n      mstore\n      0x20\n      add\n      0x00\n      keccak256\n      0x00\n        /* \"Wallery/PaintingShares.sol\":6337:6372  balanceOf[to][paintingId] += amount */\n      dup3\n      dup3\n      sload\n      tag_286\n      swap2\n      swap1\n      tag_108\n      jump\t// in\n    tag_286:\n      swap3\n      pop\n      pop\n      dup2\n      swap1\n      sstore\n      pop\n        /* \"Wallery/PaintingShares.sol\":6418:6424  amount */\n      dup1\n        /* \"Wallery/PaintingShares.sol\":6383:6389  shares */\n      0x02\n        /* \"Wallery/PaintingShares.sol\":6383:6401  shares[paintingId] */\n      0x00\n        /* \"Wallery/PaintingShares.sol\":6390:6400  paintingId */\n      dup6\n        /* \"Wallery/PaintingShares.sol\":6383:6401  shares[paintingId] */\n      dup2\n      mstore\n      0x20\n      add\n      swap1\n      dup2\n      mstore\n      0x20\n      add\n      0x00\n      keccak256\n        /* \"Wallery/PaintingShares.sol\":6383:6410  shares[paintingId].balances */\n      0x04\n      add\n        /* \"Wallery/PaintingShares.sol\":6383:6414  shares[paintingId].balances[to] */\n      0x00\n        /* \"Wallery/PaintingShares.sol\":6411:6413  to */\n      dup5\n        /* \"Wallery/PaintingShares.sol\":6383:6414  shares[paintingId].balances[to] */\n      0xffffffffffffffffffffffffffffffffffffffff\n      and\n      0xffffffffffffffffffffffffffffffffffffffff\n      and\n      dup2\n      mstore\n      0x20\n      add\n      swap1\n      dup2\n      mstore\n      0x20\n      add\n      0x00\n      keccak256\n      0x00\n        /* \"Wallery/PaintingShares.sol\":6383:6424  shares[paintingId].balances[to] += amount */\n      dup3\n      dup3\n      sload\n      tag_287\n      swap2\n      swap1\n      tag_108\n      jump\t// in\n    tag_287:\n      swap3\n      pop\n      pop\n      dup2\n      swap1\n      sstore\n      pop\n        /* \"Wallery/PaintingShares.sol\":6475:6477  to */\n      dup2\n        /* \"Wallery/PaintingShares.sol\":6442:6486  Transfer(paintingId, address(0), to, amount) */\n      0xffffffffffffffffffffffffffffffffffffffff\n      and\n        /* \"Wallery/PaintingShares.sol\":6471:6472  0 */\n      0x00\n        /* \"Wallery/PaintingShares.sol\":6442:6486  Transfer(paintingId, address(0), to, amount) */\n      0xffffffffffffffffffffffffffffffffffffffff\n      and\n        /* \"Wallery/PaintingShares.sol\":6451:6461  paintingId */\n      dup5\n        /* \"Wallery/PaintingShares.sol\":6442:6486  Transfer(paintingId, address(0), to, amount) */\n      0xf2dbd98d79f00f7aff338b824931d607bfcc63d47307162470f25a055102d3b0\n        /* \"Wallery/PaintingShares.sol\":6479:6485  amount */\n      dup5\n        /* \"Wallery/PaintingShares.sol\":6442:6486  Transfer(paintingId, address(0), to, amount) */\n      mload(0x40)\n      tag_288\n      swap2\n      swap1\n      tag_29\n      jump\t// in\n    tag_288:\n      mload(0x40)\n      dup1\n      swap2\n      sub\n      swap1\n      log4\n        /* \"Wallery/PaintingShares.sol\":6144:6494  function _mintShares(... */\n      pop\n      pop\n      pop\n      jump\t// out\n        /* \"@openzeppelin/contracts/security/ReentrancyGuard.sol\":2336:2623  function _nonReentrantBefore() private {... */\n    tag_153:\n        /* \"@openzeppelin/contracts/security/ReentrancyGuard.sol\":1759:1760  2 */\n      0x02\n        /* \"@openzeppelin/contracts/security/ReentrancyGuard.sol\":2468:2475  _status */\n      sload(0x01)\n        /* \"@openzeppelin/contracts/security/ReentrancyGuard.sol\":2468:2487  _status != _ENTERED */\n      sub\n        /* \"@openzeppelin/contracts/security/ReentrancyGuard.sol\":2460:2523  require(_status != _ENTERED, \"ReentrancyGuard: reentrant call\") */\n      tag_290\n      jumpi\n      mload(0x40)\n      0x08c379a000000000000000000000000000000000000000000000000000000000\n      dup2\n      mstore\n      0x04\n      add\n      tag_291\n      swap1\n      tag_292\n      jump\t// in\n    tag_291:\n      mload(0x40)\n      dup1\n      swap2\n      sub\n      swap1\n      revert\n    tag_290:\n        /* \"@openzeppelin/contracts/security/ReentrancyGuard.sol\":1759:1760  2 */\n      0x02\n        /* \"@openzeppelin/contracts/security/ReentrancyGuard.sol\":2598:2605  _status */\n      0x01\n        /* \"@openzeppelin/contracts/security/ReentrancyGuard.sol\":2598:2616  _status = _ENTERED */\n      dup2\n      swap1\n      sstore\n      pop\n        /* \"@openzeppelin/contracts/security/ReentrancyGuard.sol\":2336:2623  function _nonReentrantBefore() private {... */\n      jump\t// out\n        /* \"Wallery/PaintingShares.sol\":5739:6136  function _transfer(... */\n    tag_166:\n        /* \"Wallery/PaintingShares.sol\":5914:5920  amount */\n      dup1\n        /* \"Wallery/PaintingShares.sol\":5883:5892  balanceOf */\n      0x03\n        /* \"Wallery/PaintingShares.sol\":5883:5898  balanceOf[from] */\n      0x00\n        /* \"Wallery/PaintingShares.sol\":5893:5897  from */\n      dup6\n        /* \"Wallery/PaintingShares.sol\":5883:5898  balanceOf[from] */\n      0xffffffffffffffffffffffffffffffffffffffff\n      and\n      0xffffffffffffffffffffffffffffffffffffffff\n      and\n      dup2\n      mstore\n      0x20\n      add\n      swap1\n      dup2\n      mstore\n      0x20\n      add\n      0x00\n      keccak256\n        /* \"Wallery/PaintingShares.sol\":5883:5910  balanceOf[from][paintingId] */\n      0x00\n        /* \"Wallery/PaintingShares.sol\":5899:5909  paintingId */\n      dup7\n        /* \"Wallery/PaintingShares.sol\":5883:5910  balanceOf[from][paintingId] */\n      dup2\n      mstore\n      0x20\n      add\n      swap1\n      dup2\n      mstore\n      0x20\n      add\n      0x00\n      keccak256\n      0x00\n        /* \"Wallery/PaintingShares.sol\":5883:5920  balanceOf[from][paintingId] -= amount */\n      dup3\n      dup3\n      sload\n      tag_294\n      swap2\n      swap1\n      tag_135\n      jump\t// in\n    tag_294:\n      swap3\n      pop\n      pop\n      dup2\n      swap1\n      sstore\n      pop\n        /* \"Wallery/PaintingShares.sol\":5960:5966  amount */\n      dup1\n        /* \"Wallery/PaintingShares.sol\":5931:5940  balanceOf */\n      0x03\n        /* \"Wallery/PaintingShares.sol\":5931:5944  balanceOf[to] */\n      0x00\n        /* \"Wallery/PaintingShares.sol\":5941:5943  to */\n      dup5\n        /* \"Wallery/PaintingShares.sol\":5931:5944  balanceOf[to] */\n      0xffffffffffffffffffffffffffffffffffffffff\n      and\n      0xffffffffffffffffffffffffffffffffffffffff\n      and\n      dup2\n      mstore\n      0x20\n      add\n      swap1\n      dup2\n      mstore\n      0x20\n      add\n      0x00\n      keccak256\n        /* \"Wallery/PaintingShares.sol\":5931:5956  balanceOf[to][paintingId] */\n      0x00\n        /* \"Wallery/PaintingShares.sol\":5945:5955  paintingId */\n      dup7\n        /* \"Wallery/PaintingShares.sol\":5931:5956  balanceOf[to][paintingId] */\n      dup2\n      mstore\n      0x20\n      add\n      swap1\n      dup2\n      mstore\n      0x20\n      add\n      0x00\n      keccak256\n      0x00\n        /* \"Wallery/PaintingShares.sol\":5931:5966  balanceOf[to][paintingId] += amount */\n      dup3\n      dup3\n      sload\n      tag_295\n      swap2\n      swap1\n      tag_108\n      jump\t// in\n    tag_295:\n      swap3\n      pop\n      pop\n      dup2\n      swap1\n      sstore\n      pop\n        /* \"Wallery/PaintingShares.sol\":6014:6020  amount */\n      dup1\n        /* \"Wallery/PaintingShares.sol\":5977:5983  shares */\n      0x02\n        /* \"Wallery/PaintingShares.sol\":5977:5995  shares[paintingId] */\n      0x00\n        /* \"Wallery/PaintingShares.sol\":5984:5994  paintingId */\n      dup7\n        /* \"Wallery/PaintingShares.sol\":5977:5995  shares[paintingId] */\n      dup2\n      mstore\n      0x20\n      add\n      swap1\n      dup2\n      mstore\n      0x20\n      add\n      0x00\n      keccak256\n        /* \"Wallery/PaintingShares.sol\":5977:6004  shares[paintingId].balances */\n      0x04\n      add\n        /* \"Wallery/PaintingShares.sol\":5977:6010  shares[paintingId].balances[from] */\n      0x00\n        /* \"Wallery/PaintingShares.sol\":6005:6009  from */\n      dup6\n        /* \"Wallery/PaintingShares.sol\":5977:6010  shares[paintingId].balances[from] */\n      0xffffffffffffffffffffffffffffffffffffffff\n      and\n      0xffffffffffffffffffffffffffffffffffffffff\n      and\n      dup2\n      mstore\n      0x20\n      add\n      swap1\n      dup2\n      mstore\n      0x20\n      add\n      0x00\n      keccak256\n      0x00\n        /* \"Wallery/PaintingShares.sol\":5977:6020  shares[paintingId].balances[from] -= amount */\n      dup3\n      dup3\n      sload\n      tag_296\n      swap2\n      swap1\n      tag_135\n      jump\t// in\n    tag_296:\n      swap3\n      pop\n      pop\n      dup2\n      swap1\n      sstore\n      pop\n        /* \"Wallery/PaintingShares.sol\":6066:6072  amount */\n      dup1\n        /* \"Wallery/PaintingShares.sol\":6031:6037  shares */\n      0x02\n        /* \"Wallery/PaintingShares.sol\":6031:6049  shares[paintingId] */\n      0x00\n        /* \"Wallery/PaintingShares.sol\":6038:6048  paintingId */\n      dup7\n        /* \"Wallery/PaintingShares.sol\":6031:6049  shares[paintingId] */\n      dup2\n      mstore\n      0x20\n      add\n      swap1\n      dup2\n      mstore\n      0x20\n      add\n      0x00\n      keccak256\n        /* \"Wallery/PaintingShares.sol\":6031:6058  shares[paintingId].balances */\n      0x04\n      add\n        /* \"Wallery/PaintingShares.sol\":6031:6062  shares[paintingId].balances[to] */\n      0x00\n        /* \"Wallery/PaintingShares.sol\":6059:6061  to */\n      dup5\n        /* \"Wallery/PaintingShares.sol\":6031:6062  shares[paintingId].balances[to] */\n      0xffffffffffffffffffffffffffffffffffffffff\n      and\n      0xffffffffffffffffffffffffffffffffffffffff\n      and\n      dup2\n      mstore\n      0x20\n      add\n      swap1\n      dup2\n      mstore\n      0x20\n      add\n      0x00\n      keccak256\n      0x00\n        /* \"Wallery/PaintingShares.sol\":6031:6072  shares[paintingId].balances[to] += amount */\n      dup3\n      dup3\n      sload\n      tag_297\n      swap2\n      swap1\n      tag_108\n      jump\t// in\n    tag_297:\n      swap3\n      pop\n      pop\n      dup2\n      swap1\n      sstore\n      pop\n        /* \"Wallery/PaintingShares.sol\":6117:6119  to */\n      dup2\n        /* \"Wallery/PaintingShares.sol\":6090:6128  Transfer(paintingId, from, to, amount) */\n      0xffffffffffffffffffffffffffffffffffffffff\n      and\n        /* \"Wallery/PaintingShares.sol\":6111:6115  from */\n      dup4\n        /* \"Wallery/PaintingShares.sol\":6090:6128  Transfer(paintingId, from, to, amount) */\n      0xffffffffffffffffffffffffffffffffffffffff\n      and\n        /* \"Wallery/PaintingShares.sol\":6099:6109  paintingId */\n      dup6\n        /* \"Wallery/PaintingShares.sol\":6090:6128  Transfer(paintingId, from, to, amount) */\n      0xf2dbd98d79f00f7aff338b824931d607bfcc63d47307162470f25a055102d3b0\n        /* \"Wallery/PaintingShares.sol\":6121:6127  amount */\n      dup5\n        /* \"Wallery/PaintingShares.sol\":6090:6128  Transfer(paintingId, from, to, amount) */\n      mload(0x40)\n      tag_298\n      swap2\n      swap1\n      tag_29\n      jump\t// in\n    tag_298:\n      mload(0x40)\n      dup1\n      swap2\n      sub\n      swap1\n      log4\n        /* \"Wallery/PaintingShares.sol\":5739:6136  function _transfer(... */\n      pop\n      pop\n      pop\n      pop\n      jump\t// out\n        /* \"@openzeppelin/contracts/security/ReentrancyGuard.sol\":2629:2838  function _nonReentrantAfter() private {... */\n    tag_168:\n        /* \"@openzeppelin/contracts/security/ReentrancyGuard.sol\":1716:1717  1 */\n      0x01\n        /* \"@openzeppelin/contracts/security/ReentrancyGuard.sol\":2809:2816  _status */\n      dup1\n        /* \"@openzeppelin/contracts/security/ReentrancyGuard.sol\":2809:2831  _status = _NOT_ENTERED */\n      dup2\n      swap1\n      sstore\n      pop\n        /* \"@openzeppelin/contracts/security/ReentrancyGuard.sol\":2629:2838  function _nonReentrantAfter() private {... */\n      jump\t// out\n        /* \"@openzeppelin/contracts/access/Ownable.sol\":1796:1958  function _checkOwner() internal view virtual {... */\n    tag_183:\n        /* \"@openzeppelin/contracts/access/Ownable.sol\":1866:1878  _msgSender() */\n      tag_301\n        /* \"@openzeppelin/contracts/access/Ownable.sol\":1866:1876  _msgSender */\n      tag_302\n        /* \"@openzeppelin/contracts/access/Ownable.sol\":1866:1878  _msgSender() */\n      jump\t// in\n    tag_301:\n        /* \"@openzeppelin/contracts/access/Ownable.sol\":1855:1878  owner() != _msgSender() */\n      0xffffffffffffffffffffffffffffffffffffffff\n      and\n        /* \"@openzeppelin/contracts/access/Ownable.sol\":1855:1862  owner() */\n      tag_303\n        /* \"@openzeppelin/contracts/access/Ownable.sol\":1855:1860  owner */\n      tag_83\n        /* \"@openzeppelin/contracts/access/Ownable.sol\":1855:1862  owner() */\n      jump\t// in\n    tag_303:\n        /* \"@openzeppelin/contracts/access/Ownable.sol\":1855:1878  owner() != _msgSender() */\n      0xffffffffffffffffffffffffffffffffffffffff\n      and\n      eq\n        /* \"@openzeppelin/contracts/access/Ownable.sol\":1851:1952  if (owner() != _msgSender()) {... */\n      tag_304\n      jumpi\n        /* \"@openzeppelin/contracts/access/Ownable.sol\":1928:1940  _msgSender() */\n      tag_305\n        /* \"@openzeppelin/contracts/access/Ownable.sol\":1928:1938  _msgSender */\n      tag_302\n        /* \"@openzeppelin/contracts/access/Ownable.sol\":1928:1940  _msgSender() */\n      jump\t// in\n    tag_305:\n        /* \"@openzeppelin/contracts/access/Ownable.sol\":1901:1941  OwnableUnauthorizedAccount(_msgSender()) */\n      mload(0x40)\n      0x118cdaa700000000000000000000000000000000000000000000000000000000\n      dup2\n      mstore\n      0x04\n      add\n      tag_306\n      swap2\n      swap1\n      tag_49\n      jump\t// in\n    tag_306:\n      mload(0x40)\n      dup1\n      swap2\n      sub\n      swap1\n      revert\n        /* \"@openzeppelin/contracts/access/Ownable.sol\":1851:1952  if (owner() != _msgSender()) {... */\n    tag_304:\n        /* \"@openzeppelin/contracts/access/Ownable.sol\":1796:1958  function _checkOwner() internal view virtual {... */\n      jump\t// out\n        /* \"@openzeppelin/contracts/security/Pausable.sol\":2433:2550  function _unpause() internal virtual whenPaused {... */\n    tag_186:\n        /* \"@openzeppelin/contracts/security/Pausable.sol\":1486:1502  _requirePaused() */\n      tag_308\n        /* \"@openzeppelin/contracts/security/Pausable.sol\":1486:1500  _requirePaused */\n      tag_309\n        /* \"@openzeppelin/contracts/security/Pausable.sol\":1486:1502  _requirePaused() */\n      jump\t// in\n    tag_308:\n        /* \"@openzeppelin/contracts/security/Pausable.sol\":2501:2506  false */\n      0x00\n        /* \"@openzeppelin/contracts/security/Pausable.sol\":2491:2498  _paused */\n      dup1\n      0x14\n        /* \"@openzeppelin/contracts/security/Pausable.sol\":2491:2506  _paused = false */\n      0x0100\n      exp\n      dup2\n      sload\n      dup2\n      0xff\n      mul\n      not\n      and\n      swap1\n      dup4\n      iszero\n      iszero\n      mul\n      or\n      swap1\n      sstore\n      pop\n        /* \"@openzeppelin/contracts/security/Pausable.sol\":2521:2543  Unpaused(_msgSender()) */\n      0x5db9ee0a495bf2e6ff9c91a7834c1ba4fdd244a5e8aa4e537bd38aeae4b073aa\n        /* \"@openzeppelin/contracts/security/Pausable.sol\":2530:2542  _msgSender() */\n      tag_311\n        /* \"@openzeppelin/contracts/security/Pausable.sol\":2530:2540  _msgSender */\n      tag_302\n        /* \"@openzeppelin/contracts/security/Pausable.sol\":2530:2542  _msgSender() */\n      jump\t// in\n    tag_311:\n        /* \"@openzeppelin/contracts/security/Pausable.sol\":2521:2543  Unpaused(_msgSender()) */\n      mload(0x40)\n      tag_312\n      swap2\n      swap1\n      tag_49\n      jump\t// in\n    tag_312:\n      mload(0x40)\n      dup1\n      swap2\n      sub\n      swap1\n      log1\n        /* \"@openzeppelin/contracts/security/Pausable.sol\":2433:2550  function _unpause() internal virtual whenPaused {... */\n      jump\t// out\n        /* \"@openzeppelin/contracts/access/Ownable.sol\":2912:3099  function _transferOwnership(address newOwner) internal virtual {... */\n    tag_212:\n        /* \"@openzeppelin/contracts/access/Ownable.sol\":2985:3001  address oldOwner */\n      0x00\n        /* \"@openzeppelin/contracts/access/Ownable.sol\":3004:3010  _owner */\n      dup1\n      0x00\n      swap1\n      sload\n      swap1\n      0x0100\n      exp\n      swap1\n      div\n      0xffffffffffffffffffffffffffffffffffffffff\n      and\n        /* \"@openzeppelin/contracts/access/Ownable.sol\":2985:3010  address oldOwner = _owner */\n      swap1\n      pop\n        /* \"@openzeppelin/contracts/access/Ownable.sol\":3029:3037  newOwner */\n      dup2\n        /* \"@openzeppelin/contracts/access/Ownable.sol\":3020:3026  _owner */\n      0x00\n      dup1\n        /* \"@openzeppelin/contracts/access/Ownable.sol\":3020:3037  _owner = newOwner */\n      0x0100\n      exp\n      dup2\n      sload\n      dup2\n      0xffffffffffffffffffffffffffffffffffffffff\n      mul\n      not\n      and\n      swap1\n      dup4\n      0xffffffffffffffffffffffffffffffffffffffff\n      and\n      mul\n      or\n      swap1\n      sstore\n      pop\n        /* \"@openzeppelin/contracts/access/Ownable.sol\":3083:3091  newOwner */\n      dup2\n        /* \"@openzeppelin/contracts/access/Ownable.sol\":3052:3092  OwnershipTransferred(oldOwner, newOwner) */\n      0xffffffffffffffffffffffffffffffffffffffff\n      and\n        /* \"@openzeppelin/contracts/access/Ownable.sol\":3073:3081  oldOwner */\n      dup2\n        /* \"@openzeppelin/contracts/access/Ownable.sol\":3052:3092  OwnershipTransferred(oldOwner, newOwner) */\n      0xffffffffffffffffffffffffffffffffffffffff\n      and\n      0x8be0079c531659141344cd1fd0a4f28419497f9722a3daafe3b4186f6b6457e0\n      mload(0x40)\n      mload(0x40)\n      dup1\n      swap2\n      sub\n      swap1\n      log3\n        /* \"@openzeppelin/contracts/access/Ownable.sol\":2975:3099  {... */\n      pop\n        /* \"@openzeppelin/contracts/access/Ownable.sol\":2912:3099  function _transferOwnership(address newOwner) internal virtual {... */\n      pop\n      jump\t// out\n        /* \"@openzeppelin/contracts/security/Pausable.sol\":2186:2301  function _pause() internal virtual whenNotPaused {... */\n    tag_217:\n        /* \"@openzeppelin/contracts/security/Pausable.sol\":1239:1258  _requireNotPaused() */\n      tag_315\n        /* \"@openzeppelin/contracts/security/Pausable.sol\":1239:1256  _requireNotPaused */\n      tag_102\n        /* \"@openzeppelin/contracts/security/Pausable.sol\":1239:1258  _requireNotPaused() */\n      jump\t// in\n    tag_315:\n        /* \"@openzeppelin/contracts/security/Pausable.sol\":2255:2259  true */\n      0x01\n        /* \"@openzeppelin/contracts/security/Pausable.sol\":2245:2252  _paused */\n      0x00\n      0x14\n        /* \"@openzeppelin/contracts/security/Pausable.sol\":2245:2259  _paused = true */\n      0x0100\n      exp\n      dup2\n      sload\n      dup2\n      0xff\n      mul\n      not\n      and\n      swap1\n      dup4\n      iszero\n      iszero\n      mul\n      or\n      swap1\n      sstore\n      pop\n        /* \"@openzeppelin/contracts/security/Pausable.sol\":2274:2294  Paused(_msgSender()) */\n      0x62e78cea01bee320cd4e420270b5ea74000d11b0c9f74754ebdbfc544b05a258\n        /* \"@openzeppelin/contracts/security/Pausable.sol\":2281:2293  _msgSender() */\n      tag_317\n        /* \"@openzeppelin/contracts/security/Pausable.sol\":2281:2291  _msgSender */\n      tag_302\n        /* \"@openzeppelin/contracts/security/Pausable.sol\":2281:2293  _msgSender() */\n      jump\t// in\n    tag_317:\n        /* \"@openzeppelin/contracts/security/Pausable.sol\":2274:2294  Paused(_msgSender()) */\n      mload(0x40)\n      tag_318\n      swap2\n      swap1\n      tag_49\n      jump\t// in\n    tag_318:\n      mload(0x40)\n      dup1\n      swap2\n      sub\n      swap1\n      log1\n        /* \"@openzeppelin/contracts/security/Pausable.sol\":2186:2301  function _pause() internal virtual whenNotPaused {... */\n      jump\t// out\n        /* \"@openzeppelin/contracts/utils/Context.sol\":656:752  function _msgSender() internal view virtual returns (address) {... */\n    tag_302:\n        /* \"@openzeppelin/contracts/utils/Context.sol\":709:716  address */\n      0x00\n        /* \"@openzeppelin/contracts/utils/Context.sol\":735:745  msg.sender */\n      caller\n        /* \"@openzeppelin/contracts/utils/Context.sol\":728:745  return msg.sender */\n      swap1\n      pop\n        /* \"@openzeppelin/contracts/utils/Context.sol\":656:752  function _msgSender() internal view virtual returns (address) {... */\n      swap1\n      jump\t// out\n        /* \"@openzeppelin/contracts/security/Pausable.sol\":1945:2051  function _requirePaused() internal view virtual {... */\n    tag_309:\n        /* \"@openzeppelin/contracts/security/Pausable.sol\":2011:2019  paused() */\n      tag_321\n        /* \"@openzeppelin/contracts/security/Pausable.sol\":2011:2017  paused */\n      tag_68\n        /* \"@openzeppelin/contracts/security/Pausable.sol\":2011:2019  paused() */\n      jump\t// in\n    tag_321:\n        /* \"@openzeppelin/contracts/security/Pausable.sol\":2003:2044  require(paused(), \"Pausable: not paused\") */\n      tag_322\n      jumpi\n      mload(0x40)\n      0x08c379a000000000000000000000000000000000000000000000000000000000\n      dup2\n      mstore\n      0x04\n      add\n      tag_323\n      swap1\n      tag_324\n      jump\t// in\n    tag_323:\n      mload(0x40)\n      dup1\n      swap2\n      sub\n      swap1\n      revert\n    tag_322:\n        /* \"@openzeppelin/contracts/security/Pausable.sol\":1945:2051  function _requirePaused() internal view virtual {... */\n      jump\t// out\n        /* \"#utility.yul\":88:205   */\n    tag_326:\n        /* \"#utility.yul\":197:198   */\n      0x00\n        /* \"#utility.yul\":194:195   */\n      dup1\n        /* \"#utility.yul\":187:199   */\n      revert\n        /* \"#utility.yul\":334:460   */\n    tag_328:\n        /* \"#utility.yul\":371:378   */\n      0x00\n        /* \"#utility.yul\":411:453   */\n      0xffffffffffffffffffffffffffffffffffffffff\n        /* \"#utility.yul\":404:409   */\n      dup3\n        /* \"#utility.yul\":400:454   */\n      and\n        /* \"#utility.yul\":389:454   */\n      swap1\n      pop\n        /* \"#utility.yul\":334:460   */\n      swap2\n      swap1\n      pop\n      jump\t// out\n        /* \"#utility.yul\":466:562   */\n    tag_329:\n        /* \"#utility.yul\":503:510   */\n      0x00\n        /* \"#utility.yul\":532:556   */\n      tag_404\n        /* \"#utility.yul\":550:555   */\n      dup3\n        /* \"#utility.yul\":532:556   */\n      tag_328\n      jump\t// in\n    tag_404:\n        /* \"#utility.yul\":521:556   */\n      swap1\n      pop\n        /* \"#utility.yul\":466:562   */\n      swap2\n      swap1\n      pop\n      jump\t// out\n        /* \"#utility.yul\":568:690   */\n    tag_330:\n        /* \"#utility.yul\":641:665   */\n      tag_406\n        /* \"#utility.yul\":659:664   */\n      dup2\n        /* \"#utility.yul\":641:665   */\n      tag_329\n      jump\t// in\n    tag_406:\n        /* \"#utility.yul\":634:639   */\n      dup2\n        /* \"#utility.yul\":631:666   */\n      eq\n        /* \"#utility.yul\":621:684   */\n      tag_407\n      jumpi\n        /* \"#utility.yul\":680:681   */\n      0x00\n        /* \"#utility.yul\":677:678   */\n      dup1\n        /* \"#utility.yul\":670:682   */\n      revert\n        /* \"#utility.yul\":621:684   */\n    tag_407:\n        /* \"#utility.yul\":568:690   */\n      pop\n      jump\t// out\n        /* \"#utility.yul\":696:835   */\n    tag_331:\n        /* \"#utility.yul\":742:747   */\n      0x00\n        /* \"#utility.yul\":780:786   */\n      dup2\n        /* \"#utility.yul\":767:787   */\n      calldataload\n        /* \"#utility.yul\":758:787   */\n      swap1\n      pop\n        /* \"#utility.yul\":796:829   */\n      tag_409\n        /* \"#utility.yul\":823:828   */\n      dup2\n        /* \"#utility.yul\":796:829   */\n      tag_330\n      jump\t// in\n    tag_409:\n        /* \"#utility.yul\":696:835   */\n      swap3\n      swap2\n      pop\n      pop\n      jump\t// out\n        /* \"#utility.yul\":841:918   */\n    tag_332:\n        /* \"#utility.yul\":878:885   */\n      0x00\n        /* \"#utility.yul\":907:912   */\n      dup2\n        /* \"#utility.yul\":896:912   */\n      swap1\n      pop\n        /* \"#utility.yul\":841:918   */\n      swap2\n      swap1\n      pop\n      jump\t// out\n        /* \"#utility.yul\":924:1046   */\n    tag_333:\n        /* \"#utility.yul\":997:1021   */\n      tag_412\n        /* \"#utility.yul\":1015:1020   */\n      dup2\n        /* \"#utility.yul\":997:1021   */\n      tag_332\n      jump\t// in\n    tag_412:\n        /* \"#utility.yul\":990:995   */\n      dup2\n        /* \"#utility.yul\":987:1022   */\n      eq\n        /* \"#utility.yul\":977:1040   */\n      tag_413\n      jumpi\n        /* \"#utility.yul\":1036:1037   */\n      0x00\n        /* \"#utility.yul\":1033:1034   */\n      dup1\n        /* \"#utility.yul\":1026:1038   */\n      revert\n        /* \"#utility.yul\":977:1040   */\n    tag_413:\n        /* \"#utility.yul\":924:1046   */\n      pop\n      jump\t// out\n        /* \"#utility.yul\":1052:1191   */\n    tag_334:\n        /* \"#utility.yul\":1098:1103   */\n      0x00\n        /* \"#utility.yul\":1136:1142   */\n      dup2\n        /* \"#utility.yul\":1123:1143   */\n      calldataload\n        /* \"#utility.yul\":1114:1143   */\n      swap1\n      pop\n        /* \"#utility.yul\":1152:1185   */\n      tag_415\n        /* \"#utility.yul\":1179:1184   */\n      dup2\n        /* \"#utility.yul\":1152:1185   */\n      tag_333\n      jump\t// in\n    tag_415:\n        /* \"#utility.yul\":1052:1191   */\n      swap3\n      swap2\n      pop\n      pop\n      jump\t// out\n        /* \"#utility.yul\":1197:1671   */\n    tag_26:\n        /* \"#utility.yul\":1265:1271   */\n      0x00\n        /* \"#utility.yul\":1273:1279   */\n      dup1\n        /* \"#utility.yul\":1322:1324   */\n      0x40\n        /* \"#utility.yul\":1310:1319   */\n      dup4\n        /* \"#utility.yul\":1301:1308   */\n      dup6\n        /* \"#utility.yul\":1297:1320   */\n      sub\n        /* \"#utility.yul\":1293:1325   */\n      slt\n        /* \"#utility.yul\":1290:1409   */\n      iszero\n      tag_417\n      jumpi\n        /* \"#utility.yul\":1328:1407   */\n      tag_418\n      tag_326\n      jump\t// in\n    tag_418:\n        /* \"#utility.yul\":1290:1409   */\n    tag_417:\n        /* \"#utility.yul\":1448:1449   */\n      0x00\n        /* \"#utility.yul\":1473:1526   */\n      tag_419\n        /* \"#utility.yul\":1518:1525   */\n      dup6\n        /* \"#utility.yul\":1509:1515   */\n      dup3\n        /* \"#utility.yul\":1498:1507   */\n      dup7\n        /* \"#utility.yul\":1494:1516   */\n      add\n        /* \"#utility.yul\":1473:1526   */\n      tag_331\n      jump\t// in\n    tag_419:\n        /* \"#utility.yul\":1463:1526   */\n      swap3\n      pop\n        /* \"#utility.yul\":1419:1536   */\n      pop\n        /* \"#utility.yul\":1575:1577   */\n      0x20\n        /* \"#utility.yul\":1601:1654   */\n      tag_420\n        /* \"#utility.yul\":1646:1653   */\n      dup6\n        /* \"#utility.yul\":1637:1643   */\n      dup3\n        /* \"#utility.yul\":1626:1635   */\n      dup7\n        /* \"#utility.yul\":1622:1644   */\n      add\n        /* \"#utility.yul\":1601:1654   */\n      tag_334\n      jump\t// in\n    tag_420:\n        /* \"#utility.yul\":1591:1654   */\n      swap2\n      pop\n        /* \"#utility.yul\":1546:1664   */\n      pop\n        /* \"#utility.yul\":1197:1671   */\n      swap3\n      pop\n      swap3\n      swap1\n      pop\n      jump\t// out\n        /* \"#utility.yul\":1677:1795   */\n    tag_335:\n        /* \"#utility.yul\":1764:1788   */\n      tag_422\n        /* \"#utility.yul\":1782:1787   */\n      dup2\n        /* \"#utility.yul\":1764:1788   */\n      tag_332\n      jump\t// in\n    tag_422:\n        /* \"#utility.yul\":1759:1762   */\n      dup3\n        /* \"#utility.yul\":1752:1789   */\n      mstore\n        /* \"#utility.yul\":1677:1795   */\n      pop\n      pop\n      jump\t// out\n        /* \"#utility.yul\":1801:2023   */\n    tag_29:\n        /* \"#utility.yul\":1894:1898   */\n      0x00\n        /* \"#utility.yul\":1932:1934   */\n      0x20\n        /* \"#utility.yul\":1921:1930   */\n      dup3\n        /* \"#utility.yul\":1917:1935   */\n      add\n        /* \"#utility.yul\":1909:1935   */\n      swap1\n      pop\n        /* \"#utility.yul\":1945:2016   */\n      tag_424\n        /* \"#utility.yul\":2013:2014   */\n      0x00\n        /* \"#utility.yul\":2002:2011   */\n      dup4\n        /* \"#utility.yul\":1998:2015   */\n      add\n        /* \"#utility.yul\":1989:1995   */\n      dup5\n        /* \"#utility.yul\":1945:2016   */\n      tag_335\n      jump\t// in\n    tag_424:\n        /* \"#utility.yul\":1801:2023   */\n      swap3\n      swap2\n      pop\n      pop\n      jump\t// out\n        /* \"#utility.yul\":2029:3378   */\n    tag_32:\n        /* \"#utility.yul\":2151:2157   */\n      0x00\n        /* \"#utility.yul\":2159:2165   */\n      dup1\n        /* \"#utility.yul\":2167:2173   */\n      0x00\n        /* \"#utility.yul\":2175:2181   */\n      dup1\n        /* \"#utility.yul\":2183:2189   */\n      0x00\n        /* \"#utility.yul\":2191:2197   */\n      dup1\n        /* \"#utility.yul\":2199:2205   */\n      0x00\n        /* \"#utility.yul\":2207:2213   */\n      dup1\n        /* \"#utility.yul\":2256:2259   */\n      0x0100\n        /* \"#utility.yul\":2244:2253   */\n      dup10\n        /* \"#utility.yul\":2235:2242   */\n      dup12\n        /* \"#utility.yul\":2231:2254   */\n      sub\n        /* \"#utility.yul\":2227:2260   */\n      slt\n        /* \"#utility.yul\":2224:2344   */\n      iszero\n      tag_426\n      jumpi\n        /* \"#utility.yul\":2263:2342   */\n      tag_427\n      tag_326\n      jump\t// in\n    tag_427:\n        /* \"#utility.yul\":2224:2344   */\n    tag_426:\n        /* \"#utility.yul\":2383:2384   */\n      0x00\n        /* \"#utility.yul\":2408:2461   */\n      tag_428\n        /* \"#utility.yul\":2453:2460   */\n      dup12\n        /* \"#utility.yul\":2444:2450   */\n      dup3\n        /* \"#utility.yul\":2433:2442   */\n      dup13\n        /* \"#utility.yul\":2429:2451   */\n      add\n        /* \"#utility.yul\":2408:2461   */\n      tag_334\n      jump\t// in\n    tag_428:\n        /* \"#utility.yul\":2398:2461   */\n      swap9\n      pop\n        /* \"#utility.yul\":2354:2471   */\n      pop\n        /* \"#utility.yul\":2510:2512   */\n      0x20\n        /* \"#utility.yul\":2536:2589   */\n      tag_429\n        /* \"#utility.yul\":2581:2588   */\n      dup12\n        /* \"#utility.yul\":2572:2578   */\n      dup3\n        /* \"#utility.yul\":2561:2570   */\n      dup13\n        /* \"#utility.yul\":2557:2579   */\n      add\n        /* \"#utility.yul\":2536:2589   */\n      tag_331\n      jump\t// in\n    tag_429:\n        /* \"#utility.yul\":2526:2589   */\n      swap8\n      pop\n        /* \"#utility.yul\":2481:2599   */\n      pop\n        /* \"#utility.yul\":2638:2640   */\n      0x40\n        /* \"#utility.yul\":2664:2717   */\n      tag_430\n        /* \"#utility.yul\":2709:2716   */\n      dup12\n        /* \"#utility.yul\":2700:2706   */\n      dup3\n        /* \"#utility.yul\":2689:2698   */\n      dup13\n        /* \"#utility.yul\":2685:2707   */\n      add\n        /* \"#utility.yul\":2664:2717   */\n      tag_331\n      jump\t// in\n    tag_430:\n        /* \"#utility.yul\":2654:2717   */\n      swap7\n      pop\n        /* \"#utility.yul\":2609:2727   */\n      pop\n        /* \"#utility.yul\":2766:2768   */\n      0x60\n        /* \"#utility.yul\":2792:2845   */\n      tag_431\n        /* \"#utility.yul\":2837:2844   */\n      dup12\n        /* \"#utility.yul\":2828:2834   */\n      dup3\n        /* \"#utility.yul\":2817:2826   */\n      dup13\n        /* \"#utility.yul\":2813:2835   */\n      add\n        /* \"#utility.yul\":2792:2845   */\n      tag_331\n      jump\t// in\n    tag_431:\n        /* \"#utility.yul\":2782:2845   */\n      swap6\n      pop\n        /* \"#utility.yul\":2737:2855   */\n      pop\n        /* \"#utility.yul\":2894:2897   */\n      0x80\n        /* \"#utility.yul\":2921:2974   */\n      tag_432\n        /* \"#utility.yul\":2966:2973   */\n      dup12\n        /* \"#utility.yul\":2957:2963   */\n      dup3\n        /* \"#utility.yul\":2946:2955   */\n      dup13\n        /* \"#utility.yul\":2942:2964   */\n      add\n        /* \"#utility.yul\":2921:2974   */\n      tag_331\n      jump\t// in\n    tag_432:\n        /* \"#utility.yul\":2911:2974   */\n      swap5\n      pop\n        /* \"#utility.yul\":2865:2984   */\n      pop\n        /* \"#utility.yul\":3023:3026   */\n      0xa0\n        /* \"#utility.yul\":3050:3103   */\n      tag_433\n        /* \"#utility.yul\":3095:3102   */\n      dup12\n        /* \"#utility.yul\":3086:3092   */\n      dup3\n        /* \"#utility.yul\":3075:3084   */\n      dup13\n        /* \"#utility.yul\":3071:3093   */\n      add\n        /* \"#utility.yul\":3050:3103   */\n      tag_334\n      jump\t// in\n    tag_433:\n        /* \"#utility.yul\":3040:3103   */\n      swap4\n      pop\n        /* \"#utility.yul\":2994:3113   */\n      pop\n        /* \"#utility.yul\":3152:3155   */\n      0xc0\n        /* \"#utility.yul\":3179:3232   */\n      tag_434\n        /* \"#utility.yul\":3224:3231   */\n      dup12\n        /* \"#utility.yul\":3215:3221   */\n      dup3\n        /* \"#utility.yul\":3204:3213   */\n      dup13\n        /* \"#utility.yul\":3200:3222   */\n      add\n        /* \"#utility.yul\":3179:3232   */\n      tag_334\n      jump\t// in\n    tag_434:\n        /* \"#utility.yul\":3169:3232   */\n      swap3\n      pop\n        /* \"#utility.yul\":3123:3242   */\n      pop\n        /* \"#utility.yul\":3281:3284   */\n      0xe0\n        /* \"#utility.yul\":3308:3361   */\n      tag_435\n        /* \"#utility.yul\":3353:3360   */\n      dup12\n        /* \"#utility.yul\":3344:3350   */\n      dup3\n        /* \"#utility.yul\":3333:3342   */\n      dup13\n        /* \"#utility.yul\":3329:3351   */\n      add\n        /* \"#utility.yul\":3308:3361   */\n      tag_334\n      jump\t// in\n    tag_435:\n        /* \"#utility.yul\":3298:3361   */\n      swap2\n      pop\n        /* \"#utility.yul\":3252:3371   */\n      pop\n        /* \"#utility.yul\":2029:3378   */\n      swap3\n      swap6\n      swap9\n      pop\n      swap3\n      swap6\n      swap9\n      swap1\n      swap4\n      swap7\n      pop\n      jump\t// out\n        /* \"#utility.yul\":3384:4149   */\n    tag_36:\n        /* \"#utility.yul\":3470:3476   */\n      0x00\n        /* \"#utility.yul\":3478:3484   */\n      dup1\n        /* \"#utility.yul\":3486:3492   */\n      0x00\n        /* \"#utility.yul\":3494:3500   */\n      dup1\n        /* \"#utility.yul\":3543:3546   */\n      0x80\n        /* \"#utility.yul\":3531:3540   */\n      dup6\n        /* \"#utility.yul\":3522:3529   */\n      dup8\n        /* \"#utility.yul\":3518:3541   */\n      sub\n        /* \"#utility.yul\":3514:3547   */\n      slt\n        /* \"#utility.yul\":3511:3631   */\n      iszero\n      tag_437\n      jumpi\n        /* \"#utility.yul\":3550:3629   */\n      tag_438\n      tag_326\n      jump\t// in\n    tag_438:\n        /* \"#utility.yul\":3511:3631   */\n    tag_437:\n        /* \"#utility.yul\":3670:3671   */\n      0x00\n        /* \"#utility.yul\":3695:3748   */\n      tag_439\n        /* \"#utility.yul\":3740:3747   */\n      dup8\n        /* \"#utility.yul\":3731:3737   */\n      dup3\n        /* \"#utility.yul\":3720:3729   */\n      dup9\n        /* \"#utility.yul\":3716:3738   */\n      add\n        /* \"#utility.yul\":3695:3748   */\n      tag_334\n      jump\t// in\n    tag_439:\n        /* \"#utility.yul\":3685:3748   */\n      swap5\n      pop\n        /* \"#utility.yul\":3641:3758   */\n      pop\n        /* \"#utility.yul\":3797:3799   */\n      0x20\n        /* \"#utility.yul\":3823:3876   */\n      tag_440\n        /* \"#utility.yul\":3868:3875   */\n      dup8\n        /* \"#utility.yul\":3859:3865   */\n      dup3\n        /* \"#utility.yul\":3848:3857   */\n      dup9\n        /* \"#utility.yul\":3844:3866   */\n      add\n        /* \"#utility.yul\":3823:3876   */\n      tag_331\n      jump\t// in\n    tag_440:\n        /* \"#utility.yul\":3813:3876   */\n      swap4\n      pop\n        /* \"#utility.yul\":3768:3886   */\n      pop\n        /* \"#utility.yul\":3925:3927   */\n      0x40\n        /* \"#utility.yul\":3951:4004   */\n      tag_441\n        /* \"#utility.yul\":3996:4003   */\n      dup8\n        /* \"#utility.yul\":3987:3993   */\n      dup3\n        /* \"#utility.yul\":3976:3985   */\n      dup9\n        /* \"#utility.yul\":3972:3994   */\n      add\n        /* \"#utility.yul\":3951:4004   */\n      tag_331\n      jump\t// in\n    tag_441:\n        /* \"#utility.yul\":3941:4004   */\n      swap3\n      pop\n        /* \"#utility.yul\":3896:4014   */\n      pop\n        /* \"#utility.yul\":4053:4055   */\n      0x60\n        /* \"#utility.yul\":4079:4132   */\n      tag_442\n        /* \"#utility.yul\":4124:4131   */\n      dup8\n        /* \"#utility.yul\":4115:4121   */\n      dup3\n        /* \"#utility.yul\":4104:4113   */\n      dup9\n        /* \"#utility.yul\":4100:4122   */\n      add\n        /* \"#utility.yul\":4079:4132   */\n      tag_334\n      jump\t// in\n    tag_442:\n        /* \"#utility.yul\":4069:4132   */\n      swap2\n      pop\n        /* \"#utility.yul\":4024:4142   */\n      pop\n        /* \"#utility.yul\":3384:4149   */\n      swap3\n      swap6\n      swap2\n      swap5\n      pop\n      swap3\n      pop\n      jump\t// out\n        /* \"#utility.yul\":4155:4245   */\n    tag_336:\n        /* \"#utility.yul\":4189:4196   */\n      0x00\n        /* \"#utility.yul\":4232:4237   */\n      dup2\n        /* \"#utility.yul\":4225:4238   */\n      iszero\n        /* \"#utility.yul\":4218:4239   */\n      iszero\n        /* \"#utility.yul\":4207:4239   */\n      swap1\n      pop\n        /* \"#utility.yul\":4155:4245   */\n      swap2\n      swap1\n      pop\n      jump\t// out\n        /* \"#utility.yul\":4251:4360   */\n    tag_337:\n        /* \"#utility.yul\":4332:4353   */\n      tag_445\n        /* \"#utility.yul\":4347:4352   */\n      dup2\n        /* \"#utility.yul\":4332:4353   */\n      tag_336\n      jump\t// in\n    tag_445:\n        /* \"#utility.yul\":4327:4330   */\n      dup3\n        /* \"#utility.yul\":4320:4354   */\n      mstore\n        /* \"#utility.yul\":4251:4360   */\n      pop\n      pop\n      jump\t// out\n        /* \"#utility.yul\":4366:4576   */\n    tag_39:\n        /* \"#utility.yul\":4453:4457   */\n      0x00\n        /* \"#utility.yul\":4491:4493   */\n      0x20\n        /* \"#utility.yul\":4480:4489   */\n      dup3\n        /* \"#utility.yul\":4476:4494   */\n      add\n        /* \"#utility.yul\":4468:4494   */\n      swap1\n      pop\n        /* \"#utility.yul\":4504:4569   */\n      tag_447\n        /* \"#utility.yul\":4566:4567   */\n      0x00\n        /* \"#utility.yul\":4555:4564   */\n      dup4\n        /* \"#utility.yul\":4551:4568   */\n      add\n        /* \"#utility.yul\":4542:4548   */\n      dup5\n        /* \"#utility.yul\":4504:4569   */\n      tag_337\n      jump\t// in\n    tag_447:\n        /* \"#utility.yul\":4366:4576   */\n      swap3\n      swap2\n      pop\n      pop\n      jump\t// out\n        /* \"#utility.yul\":4582:4911   */\n    tag_42:\n        /* \"#utility.yul\":4641:4647   */\n      0x00\n        /* \"#utility.yul\":4690:4692   */\n      0x20\n        /* \"#utility.yul\":4678:4687   */\n      dup3\n        /* \"#utility.yul\":4669:4676   */\n      dup5\n        /* \"#utility.yul\":4665:4688   */\n      sub\n        /* \"#utility.yul\":4661:4693   */\n      slt\n        /* \"#utility.yul\":4658:4777   */\n      iszero\n      tag_449\n      jumpi\n        /* \"#utility.yul\":4696:4775   */\n      tag_450\n      tag_326\n      jump\t// in\n    tag_450:\n        /* \"#utility.yul\":4658:4777   */\n    tag_449:\n        /* \"#utility.yul\":4816:4817   */\n      0x00\n        /* \"#utility.yul\":4841:4894   */\n      tag_451\n        /* \"#utility.yul\":4886:4893   */\n      dup5\n        /* \"#utility.yul\":4877:4883   */\n      dup3\n        /* \"#utility.yul\":4866:4875   */\n      dup6\n        /* \"#utility.yul\":4862:4884   */\n      add\n        /* \"#utility.yul\":4841:4894   */\n      tag_334\n      jump\t// in\n    tag_451:\n        /* \"#utility.yul\":4831:4894   */\n      swap2\n      pop\n        /* \"#utility.yul\":4787:4904   */\n      pop\n        /* \"#utility.yul\":4582:4911   */\n      swap3\n      swap2\n      pop\n      pop\n      jump\t// out\n        /* \"#utility.yul\":4917:5016   */\n    tag_338:\n        /* \"#utility.yul\":4969:4975   */\n      0x00\n        /* \"#utility.yul\":5003:5008   */\n      dup2\n        /* \"#utility.yul\":4997:5009   */\n      mload\n        /* \"#utility.yul\":4987:5009   */\n      swap1\n      pop\n        /* \"#utility.yul\":4917:5016   */\n      swap2\n      swap1\n      pop\n      jump\t// out\n        /* \"#utility.yul\":5022:5191   */\n    tag_339:\n        /* \"#utility.yul\":5106:5117   */\n      0x00\n        /* \"#utility.yul\":5140:5146   */\n      dup3\n        /* \"#utility.yul\":5135:5138   */\n      dup3\n        /* \"#utility.yul\":5128:5147   */\n      mstore\n        /* \"#utility.yul\":5180:5184   */\n      0x20\n        /* \"#utility.yul\":5175:5178   */\n      dup3\n        /* \"#utility.yul\":5171:5185   */\n      add\n        /* \"#utility.yul\":5156:5185   */\n      swap1\n      pop\n        /* \"#utility.yul\":5022:5191   */\n      swap3\n      swap2\n      pop\n      pop\n      jump\t// out\n        /* \"#utility.yul\":5197:5443   */\n    tag_340:\n        /* \"#utility.yul\":5278:5279   */\n      0x00\n        /* \"#utility.yul\":5288:5401   */\n    tag_455:\n        /* \"#utility.yul\":5302:5308   */\n      dup4\n        /* \"#utility.yul\":5299:5300   */\n      dup2\n        /* \"#utility.yul\":5296:5309   */\n      lt\n        /* \"#utility.yul\":5288:5401   */\n      iszero\n      tag_457\n      jumpi\n        /* \"#utility.yul\":5387:5388   */\n      dup1\n        /* \"#utility.yul\":5382:5385   */\n      dup3\n        /* \"#utility.yul\":5378:5389   */\n      add\n        /* \"#utility.yul\":5372:5390   */\n      mload\n        /* \"#utility.yul\":5368:5369   */\n      dup2\n        /* \"#utility.yul\":5363:5366   */\n      dup5\n        /* \"#utility.yul\":5359:5370   */\n      add\n        /* \"#utility.yul\":5352:5391   */\n      mstore\n        /* \"#utility.yul\":5324:5326   */\n      0x20\n        /* \"#utility.yul\":5321:5322   */\n      dup2\n        /* \"#utility.yul\":5317:5327   */\n      add\n        /* \"#utility.yul\":5312:5327   */\n      swap1\n      pop\n        /* \"#utility.yul\":5288:5401   */\n      jump(tag_455)\n    tag_457:\n        /* \"#utility.yul\":5435:5436   */\n      0x00\n        /* \"#utility.yul\":5426:5432   */\n      dup5\n        /* \"#utility.yul\":5421:5424   */\n      dup5\n        /* \"#utility.yul\":5417:5433   */\n      add\n        /* \"#utility.yul\":5410:5437   */\n      mstore\n        /* \"#utility.yul\":5259:5443   */\n      pop\n        /* \"#utility.yul\":5197:5443   */\n      pop\n      pop\n      pop\n      jump\t// out\n        /* \"#utility.yul\":5449:5551   */\n    tag_341:\n        /* \"#utility.yul\":5490:5496   */\n      0x00\n        /* \"#utility.yul\":5541:5543   */\n      0x1f\n        /* \"#utility.yul\":5537:5544   */\n      not\n        /* \"#utility.yul\":5532:5534   */\n      0x1f\n        /* \"#utility.yul\":5525:5530   */\n      dup4\n        /* \"#utility.yul\":5521:5535   */\n      add\n        /* \"#utility.yul\":5517:5545   */\n      and\n        /* \"#utility.yul\":5507:5545   */\n      swap1\n      pop\n        /* \"#utility.yul\":5449:5551   */\n      swap2\n      swap1\n      pop\n      jump\t// out\n        /* \"#utility.yul\":5557:5934   */\n    tag_342:\n        /* \"#utility.yul\":5645:5648   */\n      0x00\n        /* \"#utility.yul\":5673:5712   */\n      tag_460\n        /* \"#utility.yul\":5706:5711   */\n      dup3\n        /* \"#utility.yul\":5673:5712   */\n      tag_338\n      jump\t// in\n    tag_460:\n        /* \"#utility.yul\":5728:5799   */\n      tag_461\n        /* \"#utility.yul\":5792:5798   */\n      dup2\n        /* \"#utility.yul\":5787:5790   */\n      dup6\n        /* \"#utility.yul\":5728:5799   */\n      tag_339\n      jump\t// in\n    tag_461:\n        /* \"#utility.yul\":5721:5799   */\n      swap4\n      pop\n        /* \"#utility.yul\":5808:5873   */\n      tag_462\n        /* \"#utility.yul\":5866:5872   */\n      dup2\n        /* \"#utility.yul\":5861:5864   */\n      dup6\n        /* \"#utility.yul\":5854:5858   */\n      0x20\n        /* \"#utility.yul\":5847:5852   */\n      dup7\n        /* \"#utility.yul\":5843:5859   */\n      add\n        /* \"#utility.yul\":5808:5873   */\n      tag_340\n      jump\t// in\n    tag_462:\n        /* \"#utility.yul\":5898:5927   */\n      tag_463\n        /* \"#utility.yul\":5920:5926   */\n      dup2\n        /* \"#utility.yul\":5898:5927   */\n      tag_341\n      jump\t// in\n    tag_463:\n        /* \"#utility.yul\":5893:5896   */\n      dup5\n        /* \"#utility.yul\":5889:5928   */\n      add\n        /* \"#utility.yul\":5882:5928   */\n      swap2\n      pop\n        /* \"#utility.yul\":5649:5934   */\n      pop\n        /* \"#utility.yul\":5557:5934   */\n      swap3\n      swap2\n      pop\n      pop\n      jump\t// out\n        /* \"#utility.yul\":5940:6663   */\n    tag_45:\n        /* \"#utility.yul\":6151:6155   */\n      0x00\n        /* \"#utility.yul\":6189:6192   */\n      0x80\n        /* \"#utility.yul\":6178:6187   */\n      dup3\n        /* \"#utility.yul\":6174:6193   */\n      add\n        /* \"#utility.yul\":6166:6193   */\n      swap1\n      pop\n        /* \"#utility.yul\":6239:6248   */\n      dup2\n        /* \"#utility.yul\":6233:6237   */\n      dup2\n        /* \"#utility.yul\":6229:6249   */\n      sub\n        /* \"#utility.yul\":6225:6226   */\n      0x00\n        /* \"#utility.yul\":6214:6223   */\n      dup4\n        /* \"#utility.yul\":6210:6227   */\n      add\n        /* \"#utility.yul\":6203:6250   */\n      mstore\n        /* \"#utility.yul\":6267:6345   */\n      tag_465\n        /* \"#utility.yul\":6340:6344   */\n      dup2\n        /* \"#utility.yul\":6331:6337   */\n      dup8\n        /* \"#utility.yul\":6267:6345   */\n      tag_342\n      jump\t// in\n    tag_465:\n        /* \"#utility.yul\":6259:6345   */\n      swap1\n      pop\n        /* \"#utility.yul\":6392:6401   */\n      dup2\n        /* \"#utility.yul\":6386:6390   */\n      dup2\n        /* \"#utility.yul\":6382:6402   */\n      sub\n        /* \"#utility.yul\":6377:6379   */\n      0x20\n        /* \"#utility.yul\":6366:6375   */\n      dup4\n        /* \"#utility.yul\":6362:6380   */\n      add\n        /* \"#utility.yul\":6355:6403   */\n      mstore\n        /* \"#utility.yul\":6420:6498   */\n      tag_466\n        /* \"#utility.yul\":6493:6497   */\n      dup2\n        /* \"#utility.yul\":6484:6490   */\n      dup7\n        /* \"#utility.yul\":6420:6498   */\n      tag_342\n      jump\t// in\n    tag_466:\n        /* \"#utility.yul\":6412:6498   */\n      swap1\n      pop\n        /* \"#utility.yul\":6508:6580   */\n      tag_467\n        /* \"#utility.yul\":6576:6578   */\n      0x40\n        /* \"#utility.yul\":6565:6574   */\n      dup4\n        /* \"#utility.yul\":6561:6579   */\n      add\n        /* \"#utility.yul\":6552:6558   */\n      dup6\n        /* \"#utility.yul\":6508:6580   */\n      tag_335\n      jump\t// in\n    tag_467:\n        /* \"#utility.yul\":6590:6656   */\n      tag_468\n        /* \"#utility.yul\":6652:6654   */\n      0x60\n        /* \"#utility.yul\":6641:6650   */\n      dup4\n        /* \"#utility.yul\":6637:6655   */\n      add\n        /* \"#utility.yul\":6628:6634   */\n      dup5\n        /* \"#utility.yul\":6590:6656   */\n      tag_337\n      jump\t// in\n    tag_468:\n        /* \"#utility.yul\":5940:6663   */\n      swap6\n      swap5\n      pop\n      pop\n      pop\n      pop\n      pop\n      jump\t// out\n        /* \"#utility.yul\":6669:6787   */\n    tag_343:\n        /* \"#utility.yul\":6756:6780   */\n      tag_470\n        /* \"#utility.yul\":6774:6779   */\n      dup2\n        /* \"#utility.yul\":6756:6780   */\n      tag_329\n      jump\t// in\n    tag_470:\n        /* \"#utility.yul\":6751:6754   */\n      dup3\n        /* \"#utility.yul\":6744:6781   */\n      mstore\n        /* \"#utility.yul\":6669:6787   */\n      pop\n      pop\n      jump\t// out\n        /* \"#utility.yul\":6793:7015   */\n    tag_49:\n        /* \"#utility.yul\":6886:6890   */\n      0x00\n        /* \"#utility.yul\":6924:6926   */\n      0x20\n        /* \"#utility.yul\":6913:6922   */\n      dup3\n        /* \"#utility.yul\":6909:6927   */\n      add\n        /* \"#utility.yul\":6901:6927   */\n      swap1\n      pop\n        /* \"#utility.yul\":6937:7008   */\n      tag_472\n        /* \"#utility.yul\":7005:7006   */\n      0x00\n        /* \"#utility.yul\":6994:7003   */\n      dup4\n        /* \"#utility.yul\":6990:7007   */\n      add\n        /* \"#utility.yul\":6981:6987   */\n      dup5\n        /* \"#utility.yul\":6937:7008   */\n      tag_343\n      jump\t// in\n    tag_472:\n        /* \"#utility.yul\":6793:7015   */\n      swap3\n      swap2\n      pop\n      pop\n      jump\t// out\n        /* \"#utility.yul\":7021:7640   */\n    tag_54:\n        /* \"#utility.yul\":7098:7104   */\n      0x00\n        /* \"#utility.yul\":7106:7112   */\n      dup1\n        /* \"#utility.yul\":7114:7120   */\n      0x00\n        /* \"#utility.yul\":7163:7165   */\n      0x60\n        /* \"#utility.yul\":7151:7160   */\n      dup5\n        /* \"#utility.yul\":7142:7149   */\n      dup7\n        /* \"#utility.yul\":7138:7161   */\n      sub\n        /* \"#utility.yul\":7134:7166   */\n      slt\n        /* \"#utility.yul\":7131:7250   */\n      iszero\n      tag_474\n      jumpi\n        /* \"#utility.yul\":7169:7248   */\n      tag_475\n      tag_326\n      jump\t// in\n    tag_475:\n        /* \"#utility.yul\":7131:7250   */\n    tag_474:\n        /* \"#utility.yul\":7289:7290   */\n      0x00\n        /* \"#utility.yul\":7314:7367   */\n      tag_476\n        /* \"#utility.yul\":7359:7366   */\n      dup7\n        /* \"#utility.yul\":7350:7356   */\n      dup3\n        /* \"#utility.yul\":7339:7348   */\n      dup8\n        /* \"#utility.yul\":7335:7357   */\n      add\n        /* \"#utility.yul\":7314:7367   */\n      tag_334\n      jump\t// in\n    tag_476:\n        /* \"#utility.yul\":7304:7367   */\n      swap4\n      pop\n        /* \"#utility.yul\":7260:7377   */\n      pop\n        /* \"#utility.yul\":7416:7418   */\n      0x20\n        /* \"#utility.yul\":7442:7495   */\n      tag_477\n        /* \"#utility.yul\":7487:7494   */\n      dup7\n        /* \"#utility.yul\":7478:7484   */\n      dup3\n        /* \"#utility.yul\":7467:7476   */\n      dup8\n        /* \"#utility.yul\":7463:7485   */\n      add\n        /* \"#utility.yul\":7442:7495   */\n      tag_334\n      jump\t// in\n    tag_477:\n        /* \"#utility.yul\":7432:7495   */\n      swap3\n      pop\n        /* \"#utility.yul\":7387:7505   */\n      pop\n        /* \"#utility.yul\":7544:7546   */\n      0x40\n        /* \"#utility.yul\":7570:7623   */\n      tag_478\n        /* \"#utility.yul\":7615:7622   */\n      dup7\n        /* \"#utility.yul\":7606:7612   */\n      dup3\n        /* \"#utility.yul\":7595:7604   */\n      dup8\n        /* \"#utility.yul\":7591:7613   */\n      add\n        /* \"#utility.yul\":7570:7623   */\n      tag_334\n      jump\t// in\n    tag_478:\n        /* \"#utility.yul\":7560:7623   */\n      swap2\n      pop\n        /* \"#utility.yul\":7515:7633   */\n      pop\n        /* \"#utility.yul\":7021:7640   */\n      swap3\n      pop\n      swap3\n      pop\n      swap3\n      jump\t// out\n        /* \"#utility.yul\":7646:8199   */\n    tag_57:\n        /* \"#utility.yul\":7823:7827   */\n      0x00\n        /* \"#utility.yul\":7861:7864   */\n      0x80\n        /* \"#utility.yul\":7850:7859   */\n      dup3\n        /* \"#utility.yul\":7846:7865   */\n      add\n        /* \"#utility.yul\":7838:7865   */\n      swap1\n      pop\n        /* \"#utility.yul\":7875:7946   */\n      tag_480\n        /* \"#utility.yul\":7943:7944   */\n      0x00\n        /* \"#utility.yul\":7932:7941   */\n      dup4\n        /* \"#utility.yul\":7928:7945   */\n      add\n        /* \"#utility.yul\":7919:7925   */\n      dup8\n        /* \"#utility.yul\":7875:7946   */\n      tag_335\n      jump\t// in\n    tag_480:\n        /* \"#utility.yul\":7956:8028   */\n      tag_481\n        /* \"#utility.yul\":8024:8026   */\n      0x20\n        /* \"#utility.yul\":8013:8022   */\n      dup4\n        /* \"#utility.yul\":8009:8027   */\n      add\n        /* \"#utility.yul\":8000:8006   */\n      dup7\n        /* \"#utility.yul\":7956:8028   */\n      tag_335\n      jump\t// in\n    tag_481:\n        /* \"#utility.yul\":8038:8110   */\n      tag_482\n        /* \"#utility.yul\":8106:8108   */\n      0x40\n        /* \"#utility.yul\":8095:8104   */\n      dup4\n        /* \"#utility.yul\":8091:8109   */\n      add\n        /* \"#utility.yul\":8082:8088   */\n      dup6\n        /* \"#utility.yul\":8038:8110   */\n      tag_335\n      jump\t// in\n    tag_482:\n        /* \"#utility.yul\":8120:8192   */\n      tag_483\n        /* \"#utility.yul\":8188:8190   */\n      0x60\n        /* \"#utility.yul\":8177:8186   */\n      dup4\n        /* \"#utility.yul\":8173:8191   */\n      add\n        /* \"#utility.yul\":8164:8170   */\n      dup5\n        /* \"#utility.yul\":8120:8192   */\n      tag_335\n      jump\t// in\n    tag_483:\n        /* \"#utility.yul\":7646:8199   */\n      swap6\n      swap5\n      pop\n      pop\n      pop\n      pop\n      pop\n      jump\t// out\n        /* \"#utility.yul\":8205:8824   */\n    tag_64:\n        /* \"#utility.yul\":8282:8288   */\n      0x00\n        /* \"#utility.yul\":8290:8296   */\n      dup1\n        /* \"#utility.yul\":8298:8304   */\n      0x00\n        /* \"#utility.yul\":8347:8349   */\n      0x60\n        /* \"#utility.yul\":8335:8344   */\n      dup5\n        /* \"#utility.yul\":8326:8333   */\n      dup7\n        /* \"#utility.yul\":8322:8345   */\n      sub\n        /* \"#utility.yul\":8318:8350   */\n      slt\n        /* \"#utility.yul\":8315:8434   */\n      iszero\n      tag_485\n      jumpi\n        /* \"#utility.yul\":8353:8432   */\n      tag_486\n      tag_326\n      jump\t// in\n    tag_486:\n        /* \"#utility.yul\":8315:8434   */\n    tag_485:\n        /* \"#utility.yul\":8473:8474   */\n      0x00\n        /* \"#utility.yul\":8498:8551   */\n      tag_487\n        /* \"#utility.yul\":8543:8550   */\n      dup7\n        /* \"#utility.yul\":8534:8540   */\n      dup3\n        /* \"#utility.yul\":8523:8532   */\n      dup8\n        /* \"#utility.yul\":8519:8541   */\n      add\n        /* \"#utility.yul\":8498:8551   */\n      tag_331\n      jump\t// in\n    tag_487:\n        /* \"#utility.yul\":8488:8551   */\n      swap4\n      pop\n        /* \"#utility.yul\":8444:8561   */\n      pop\n        /* \"#utility.yul\":8600:8602   */\n      0x20\n        /* \"#utility.yul\":8626:8679   */\n      tag_488\n        /* \"#utility.yul\":8671:8678   */\n      dup7\n        /* \"#utility.yul\":8662:8668   */\n      dup3\n        /* \"#utility.yul\":8651:8660   */\n      dup8\n        /* \"#utility.yul\":8647:8669   */\n      add\n        /* \"#utility.yul\":8626:8679   */\n      tag_331\n      jump\t// in\n    tag_488:\n        /* \"#utility.yul\":8616:8679   */\n      swap3\n      pop\n        /* \"#utility.yul\":8571:8689   */\n      pop\n        /* \"#utility.yul\":8728:8730   */\n      0x40\n        /* \"#utility.yul\":8754:8807   */\n      tag_489\n        /* \"#utility.yul\":8799:8806   */\n      dup7\n        /* \"#utility.yul\":8790:8796   */\n      dup3\n        /* \"#utility.yul\":8779:8788   */\n      dup8\n        /* \"#utility.yul\":8775:8797   */\n      add\n        /* \"#utility.yul\":8754:8807   */\n      tag_334\n      jump\t// in\n    tag_489:\n        /* \"#utility.yul\":8744:8807   */\n      swap2\n      pop\n        /* \"#utility.yul\":8699:8817   */\n      pop\n        /* \"#utility.yul\":8205:8824   */\n      swap3\n      pop\n      swap3\n      pop\n      swap3\n      jump\t// out\n        /* \"#utility.yul\":8830:9449   */\n    tag_79:\n        /* \"#utility.yul\":8907:8913   */\n      0x00\n        /* \"#utility.yul\":8915:8921   */\n      dup1\n        /* \"#utility.yul\":8923:8929   */\n      0x00\n        /* \"#utility.yul\":8972:8974   */\n      0x60\n        /* \"#utility.yul\":8960:8969   */\n      dup5\n        /* \"#utility.yul\":8951:8958   */\n      dup7\n        /* \"#utility.yul\":8947:8970   */\n      sub\n        /* \"#utility.yul\":8943:8975   */\n      slt\n        /* \"#utility.yul\":8940:9059   */\n      iszero\n      tag_491\n      jumpi\n        /* \"#utility.yul\":8978:9057   */\n      tag_492\n      tag_326\n      jump\t// in\n    tag_492:\n        /* \"#utility.yul\":8940:9059   */\n    tag_491:\n        /* \"#utility.yul\":9098:9099   */\n      0x00\n        /* \"#utility.yul\":9123:9176   */\n      tag_493\n        /* \"#utility.yul\":9168:9175   */\n      dup7\n        /* \"#utility.yul\":9159:9165   */\n      dup3\n        /* \"#utility.yul\":9148:9157   */\n      dup8\n        /* \"#utility.yul\":9144:9166   */\n      add\n        /* \"#utility.yul\":9123:9176   */\n      tag_334\n      jump\t// in\n    tag_493:\n        /* \"#utility.yul\":9113:9176   */\n      swap4\n      pop\n        /* \"#utility.yul\":9069:9186   */\n      pop\n        /* \"#utility.yul\":9225:9227   */\n      0x20\n        /* \"#utility.yul\":9251:9304   */\n      tag_494\n        /* \"#utility.yul\":9296:9303   */\n      dup7\n        /* \"#utility.yul\":9287:9293   */\n      dup3\n        /* \"#utility.yul\":9276:9285   */\n      dup8\n        /* \"#utility.yul\":9272:9294   */\n      add\n        /* \"#utility.yul\":9251:9304   */\n      tag_331\n      jump\t// in\n    tag_494:\n        /* \"#utility.yul\":9241:9304   */\n      swap3\n      pop\n        /* \"#utility.yul\":9196:9314   */\n      pop\n        /* \"#utility.yul\":9353:9355   */\n      0x40\n        /* \"#utility.yul\":9379:9432   */\n      tag_495\n        /* \"#utility.yul\":9424:9431   */\n      dup7\n        /* \"#utility.yul\":9415:9421   */\n      dup3\n        /* \"#utility.yul\":9404:9413   */\n      dup8\n        /* \"#utility.yul\":9400:9422   */\n      add\n        /* \"#utility.yul\":9379:9432   */\n      tag_334\n      jump\t// in\n    tag_495:\n        /* \"#utility.yul\":9369:9432   */\n      swap2\n      pop\n        /* \"#utility.yul\":9324:9442   */\n      pop\n        /* \"#utility.yul\":8830:9449   */\n      swap3\n      pop\n      swap3\n      pop\n      swap3\n      jump\t// out\n        /* \"#utility.yul\":9455:9784   */\n    tag_87:\n        /* \"#utility.yul\":9514:9520   */\n      0x00\n        /* \"#utility.yul\":9563:9565   */\n      0x20\n        /* \"#utility.yul\":9551:9560   */\n      dup3\n        /* \"#utility.yul\":9542:9549   */\n      dup5\n        /* \"#utility.yul\":9538:9561   */\n      sub\n        /* \"#utility.yul\":9534:9566   */\n      slt\n        /* \"#utility.yul\":9531:9650   */\n      iszero\n      tag_497\n      jumpi\n        /* \"#utility.yul\":9569:9648   */\n      tag_498\n      tag_326\n      jump\t// in\n    tag_498:\n        /* \"#utility.yul\":9531:9650   */\n    tag_497:\n        /* \"#utility.yul\":9689:9690   */\n      0x00\n        /* \"#utility.yul\":9714:9767   */\n      tag_499\n        /* \"#utility.yul\":9759:9766   */\n      dup5\n        /* \"#utility.yul\":9750:9756   */\n      dup3\n        /* \"#utility.yul\":9739:9748   */\n      dup6\n        /* \"#utility.yul\":9735:9757   */\n      add\n        /* \"#utility.yul\":9714:9767   */\n      tag_331\n      jump\t// in\n    tag_499:\n        /* \"#utility.yul\":9704:9767   */\n      swap2\n      pop\n        /* \"#utility.yul\":9660:9777   */\n      pop\n        /* \"#utility.yul\":9455:9784   */\n      swap3\n      swap2\n      pop\n      pop\n      jump\t// out\n        /* \"#utility.yul\":9790:9965   */\n    tag_344:\n        /* \"#utility.yul\":9930:9957   */\n      0x4f6e6c79205061696e74696e674e465420636f6e747261637400000000000000\n        /* \"#utility.yul\":9926:9927   */\n      0x00\n        /* \"#utility.yul\":9918:9924   */\n      dup3\n        /* \"#utility.yul\":9914:9928   */\n      add\n        /* \"#utility.yul\":9907:9958   */\n      mstore\n        /* \"#utility.yul\":9790:9965   */\n      pop\n      jump\t// out\n        /* \"#utility.yul\":9971:10337   */\n    tag_345:\n        /* \"#utility.yul\":10113:10116   */\n      0x00\n        /* \"#utility.yul\":10134:10201   */\n      tag_502\n        /* \"#utility.yul\":10198:10200   */\n      0x19\n        /* \"#utility.yul\":10193:10196   */\n      dup4\n        /* \"#utility.yul\":10134:10201   */\n      tag_339\n      jump\t// in\n    tag_502:\n        /* \"#utility.yul\":10127:10201   */\n      swap2\n      pop\n        /* \"#utility.yul\":10210:10303   */\n      tag_503\n        /* \"#utility.yul\":10299:10302   */\n      dup3\n        /* \"#utility.yul\":10210:10303   */\n      tag_344\n      jump\t// in\n    tag_503:\n        /* \"#utility.yul\":10328:10330   */\n      0x20\n        /* \"#utility.yul\":10323:10326   */\n      dup3\n        /* \"#utility.yul\":10319:10331   */\n      add\n        /* \"#utility.yul\":10312:10331   */\n      swap1\n      pop\n        /* \"#utility.yul\":9971:10337   */\n      swap2\n      swap1\n      pop\n      jump\t// out\n        /* \"#utility.yul\":10343:10762   */\n    tag_99:\n        /* \"#utility.yul\":10509:10513   */\n      0x00\n        /* \"#utility.yul\":10547:10549   */\n      0x20\n        /* \"#utility.yul\":10536:10545   */\n      dup3\n        /* \"#utility.yul\":10532:10550   */\n      add\n        /* \"#utility.yul\":10524:10550   */\n      swap1\n      pop\n        /* \"#utility.yul\":10596:10605   */\n      dup2\n        /* \"#utility.yul\":10590:10594   */\n      dup2\n        /* \"#utility.yul\":10586:10606   */\n      sub\n        /* \"#utility.yul\":10582:10583   */\n      0x00\n        /* \"#utility.yul\":10571:10580   */\n      dup4\n        /* \"#utility.yul\":10567:10584   */\n      add\n        /* \"#utility.yul\":10560:10607   */\n      mstore\n        /* \"#utility.yul\":10624:10755   */\n      tag_505\n        /* \"#utility.yul\":10750:10754   */\n      dup2\n        /* \"#utility.yul\":10624:10755   */\n      tag_345\n      jump\t// in\n    tag_505:\n        /* \"#utility.yul\":10616:10755   */\n      swap1\n      pop\n        /* \"#utility.yul\":10343:10762   */\n      swap2\n      swap1\n      pop\n      jump\t// out\n        /* \"#utility.yul\":10768:10938   */\n    tag_346:\n        /* \"#utility.yul\":10908:10930   */\n      0x53686172657320616c7265616479206578697374000000000000000000000000\n        /* \"#utility.yul\":10904:10905   */\n      0x00\n        /* \"#utility.yul\":10896:10902   */\n      dup3\n        /* \"#utility.yul\":10892:10906   */\n      add\n        /* \"#utility.yul\":10885:10931   */\n      mstore\n        /* \"#utility.yul\":10768:10938   */\n      pop\n      jump\t// out\n        /* \"#utility.yul\":10944:11310   */\n    tag_347:\n        /* \"#utility.yul\":11086:11089   */\n      0x00\n        /* \"#utility.yul\":11107:11174   */\n      tag_508\n        /* \"#utility.yul\":11171:11173   */\n      0x14\n        /* \"#utility.yul\":11166:11169   */\n      dup4\n        /* \"#utility.yul\":11107:11174   */\n      tag_339\n      jump\t// in\n    tag_508:\n        /* \"#utility.yul\":11100:11174   */\n      swap2\n      pop\n        /* \"#utility.yul\":11183:11276   */\n      tag_509\n        /* \"#utility.yul\":11272:11275   */\n      dup3\n        /* \"#utility.yul\":11183:11276   */\n      tag_346\n      jump\t// in\n    tag_509:\n        /* \"#utility.yul\":11301:11303   */\n      0x20\n        /* \"#utility.yul\":11296:11299   */\n      dup3\n        /* \"#utility.yul\":11292:11304   */\n      add\n        /* \"#utility.yul\":11285:11304   */\n      swap1\n      pop\n        /* \"#utility.yul\":10944:11310   */\n      swap2\n      swap1\n      pop\n      jump\t// out\n        /* \"#utility.yul\":11316:11735   */\n    tag_106:\n        /* \"#utility.yul\":11482:11486   */\n      0x00\n        /* \"#utility.yul\":11520:11522   */\n      0x20\n        /* \"#utility.yul\":11509:11518   */\n      dup3\n        /* \"#utility.yul\":11505:11523   */\n      add\n        /* \"#utility.yul\":11497:11523   */\n      swap1\n      pop\n        /* \"#utility.yul\":11569:11578   */\n      dup2\n        /* \"#utility.yul\":11563:11567   */\n      dup2\n        /* \"#utility.yul\":11559:11579   */\n      sub\n        /* \"#utility.yul\":11555:11556   */\n      0x00\n        /* \"#utility.yul\":11544:11553   */\n      dup4\n        /* \"#utility.yul\":11540:11557   */\n      add\n        /* \"#utility.yul\":11533:11580   */\n      mstore\n        /* \"#utility.yul\":11597:11728   */\n      tag_511\n        /* \"#utility.yul\":11723:11727   */\n      dup2\n        /* \"#utility.yul\":11597:11728   */\n      tag_347\n      jump\t// in\n    tag_511:\n        /* \"#utility.yul\":11589:11728   */\n      swap1\n      pop\n        /* \"#utility.yul\":11316:11735   */\n      swap2\n      swap1\n      pop\n      jump\t// out\n        /* \"#utility.yul\":11741:11921   */\n    tag_348:\n        /* \"#utility.yul\":11789:11866   */\n      0x4e487b7100000000000000000000000000000000000000000000000000000000\n        /* \"#utility.yul\":11786:11787   */\n      0x00\n        /* \"#utility.yul\":11779:11867   */\n      mstore\n        /* \"#utility.yul\":11886:11890   */\n      0x11\n        /* \"#utility.yul\":11883:11884   */\n      0x04\n        /* \"#utility.yul\":11876:11891   */\n      mstore\n        /* \"#utility.yul\":11910:11914   */\n      0x24\n        /* \"#utility.yul\":11907:11908   */\n      0x00\n        /* \"#utility.yul\":11900:11915   */\n      revert\n        /* \"#utility.yul\":11927:12118   */\n    tag_108:\n        /* \"#utility.yul\":11967:11970   */\n      0x00\n        /* \"#utility.yul\":11986:12006   */\n      tag_514\n        /* \"#utility.yul\":12004:12005   */\n      dup3\n        /* \"#utility.yul\":11986:12006   */\n      tag_332\n      jump\t// in\n    tag_514:\n        /* \"#utility.yul\":11981:12006   */\n      swap2\n      pop\n        /* \"#utility.yul\":12020:12040   */\n      tag_515\n        /* \"#utility.yul\":12038:12039   */\n      dup4\n        /* \"#utility.yul\":12020:12040   */\n      tag_332\n      jump\t// in\n    tag_515:\n        /* \"#utility.yul\":12015:12040   */\n      swap3\n      pop\n        /* \"#utility.yul\":12063:12064   */\n      dup3\n        /* \"#utility.yul\":12060:12061   */\n      dup3\n        /* \"#utility.yul\":12056:12065   */\n      add\n        /* \"#utility.yul\":12049:12065   */\n      swap1\n      pop\n        /* \"#utility.yul\":12084:12087   */\n      dup1\n        /* \"#utility.yul\":12081:12082   */\n      dup3\n        /* \"#utility.yul\":12078:12088   */\n      gt\n        /* \"#utility.yul\":12075:12111   */\n      iszero\n      tag_516\n      jumpi\n        /* \"#utility.yul\":12091:12109   */\n      tag_517\n      tag_348\n      jump\t// in\n    tag_517:\n        /* \"#utility.yul\":12075:12111   */\n    tag_516:\n        /* \"#utility.yul\":11927:12118   */\n      swap3\n      swap2\n      pop\n      pop\n      jump\t// out\n        /* \"#utility.yul\":12124:12293   */\n    tag_349:\n        /* \"#utility.yul\":12264:12285   */\n      0x496e76616c69642070657263656e746167657300000000000000000000000000\n        /* \"#utility.yul\":12260:12261   */\n      0x00\n        /* \"#utility.yul\":12252:12258   */\n      dup3\n        /* \"#utility.yul\":12248:12262   */\n      add\n        /* \"#utility.yul\":12241:12286   */\n      mstore\n        /* \"#utility.yul\":12124:12293   */\n      pop\n      jump\t// out\n        /* \"#utility.yul\":12299:12665   */\n    tag_350:\n        /* \"#utility.yul\":12441:12444   */\n      0x00\n        /* \"#utility.yul\":12462:12529   */\n      tag_520\n        /* \"#utility.yul\":12526:12528   */\n      0x13\n        /* \"#utility.yul\":12521:12524   */\n      dup4\n        /* \"#utility.yul\":12462:12529   */\n      tag_339\n      jump\t// in\n    tag_520:\n        /* \"#utility.yul\":12455:12529   */\n      swap2\n      pop\n        /* \"#utility.yul\":12538:12631   */\n      tag_521\n        /* \"#utility.yul\":12627:12630   */\n      dup3\n        /* \"#utility.yul\":12538:12631   */\n      tag_349\n      jump\t// in\n    tag_521:\n        /* \"#utility.yul\":12656:12658   */\n      0x20\n        /* \"#utility.yul\":12651:12654   */\n      dup3\n        /* \"#utility.yul\":12647:12659   */\n      add\n        /* \"#utility.yul\":12640:12659   */\n      swap1\n      pop\n        /* \"#utility.yul\":12299:12665   */\n      swap2\n      swap1\n      pop\n      jump\t// out\n        /* \"#utility.yul\":12671:13090   */\n    tag_112:\n        /* \"#utility.yul\":12837:12841   */\n      0x00\n        /* \"#utility.yul\":12875:12877   */\n      0x20\n        /* \"#utility.yul\":12864:12873   */\n      dup3\n        /* \"#utility.yul\":12860:12878   */\n      add\n        /* \"#utility.yul\":12852:12878   */\n      swap1\n      pop\n        /* \"#utility.yul\":12924:12933   */\n      dup2\n        /* \"#utility.yul\":12918:12922   */\n      dup2\n        /* \"#utility.yul\":12914:12934   */\n      sub\n        /* \"#utility.yul\":12910:12911   */\n      0x00\n        /* \"#utility.yul\":12899:12908   */\n      dup4\n        /* \"#utility.yul\":12895:12912   */\n      add\n        /* \"#utility.yul\":12888:12935   */\n      mstore\n        /* \"#utility.yul\":12952:13083   */\n      tag_523\n        /* \"#utility.yul\":13078:13082   */\n      dup2\n        /* \"#utility.yul\":12952:13083   */\n      tag_350\n      jump\t// in\n    tag_523:\n        /* \"#utility.yul\":12944:13083   */\n      swap1\n      pop\n        /* \"#utility.yul\":12671:13090   */\n      swap2\n      swap1\n      pop\n      jump\t// out\n        /* \"#utility.yul\":13096:13244   */\n    tag_351:\n        /* \"#utility.yul\":13198:13209   */\n      0x00\n        /* \"#utility.yul\":13235:13238   */\n      dup2\n        /* \"#utility.yul\":13220:13238   */\n      swap1\n      pop\n        /* \"#utility.yul\":13096:13244   */\n      swap3\n      swap2\n      pop\n      pop\n      jump\t// out\n        /* \"#utility.yul\":13250:13409   */\n    tag_352:\n        /* \"#utility.yul\":13390:13401   */\n      0x5061696e74696e67200000000000000000000000000000000000000000000000\n        /* \"#utility.yul\":13386:13387   */\n      0x00\n        /* \"#utility.yul\":13378:13384   */\n      dup3\n        /* \"#utility.yul\":13374:13388   */\n      add\n        /* \"#utility.yul\":13367:13402   */\n      mstore\n        /* \"#utility.yul\":13250:13409   */\n      pop\n      jump\t// out\n        /* \"#utility.yul\":13415:13815   */\n    tag_353:\n        /* \"#utility.yul\":13575:13578   */\n      0x00\n        /* \"#utility.yul\":13596:13680   */\n      tag_527\n        /* \"#utility.yul\":13678:13679   */\n      0x09\n        /* \"#utility.yul\":13673:13676   */\n      dup4\n        /* \"#utility.yul\":13596:13680   */\n      tag_351\n      jump\t// in\n    tag_527:\n        /* \"#utility.yul\":13589:13680   */\n      swap2\n      pop\n        /* \"#utility.yul\":13689:13782   */\n      tag_528\n        /* \"#utility.yul\":13778:13781   */\n      dup3\n        /* \"#utility.yul\":13689:13782   */\n      tag_352\n      jump\t// in\n    tag_528:\n        /* \"#utility.yul\":13807:13808   */\n      0x09\n        /* \"#utility.yul\":13802:13805   */\n      dup3\n        /* \"#utility.yul\":13798:13809   */\n      add\n        /* \"#utility.yul\":13791:13809   */\n      swap1\n      pop\n        /* \"#utility.yul\":13415:13815   */\n      swap2\n      swap1\n      pop\n      jump\t// out\n        /* \"#utility.yul\":13821:14211   */\n    tag_354:\n        /* \"#utility.yul\":13927:13930   */\n      0x00\n        /* \"#utility.yul\":13955:13994   */\n      tag_530\n        /* \"#utility.yul\":13988:13993   */\n      dup3\n        /* \"#utility.yul\":13955:13994   */\n      tag_338\n      jump\t// in\n    tag_530:\n        /* \"#utility.yul\":14010:14099   */\n      tag_531\n        /* \"#utility.yul\":14092:14098   */\n      dup2\n        /* \"#utility.yul\":14087:14090   */\n      dup6\n        /* \"#utility.yul\":14010:14099   */\n      tag_351\n      jump\t// in\n    tag_531:\n        /* \"#utility.yul\":14003:14099   */\n      swap4\n      pop\n        /* \"#utility.yul\":14108:14173   */\n      tag_532\n        /* \"#utility.yul\":14166:14172   */\n      dup2\n        /* \"#utility.yul\":14161:14164   */\n      dup6\n        /* \"#utility.yul\":14154:14158   */\n      0x20\n        /* \"#utility.yul\":14147:14152   */\n      dup7\n        /* \"#utility.yul\":14143:14159   */\n      add\n        /* \"#utility.yul\":14108:14173   */\n      tag_340\n      jump\t// in\n    tag_532:\n        /* \"#utility.yul\":14198:14204   */\n      dup1\n        /* \"#utility.yul\":14193:14196   */\n      dup5\n        /* \"#utility.yul\":14189:14205   */\n      add\n        /* \"#utility.yul\":14182:14205   */\n      swap2\n      pop\n        /* \"#utility.yul\":13931:14211   */\n      pop\n        /* \"#utility.yul\":13821:14211   */\n      swap3\n      swap2\n      pop\n      pop\n      jump\t// out\n        /* \"#utility.yul\":14217:14374   */\n    tag_355:\n        /* \"#utility.yul\":14357:14366   */\n      0x2053686172657300000000000000000000000000000000000000000000000000\n        /* \"#utility.yul\":14353:14354   */\n      0x00\n        /* \"#utility.yul\":14345:14351   */\n      dup3\n        /* \"#utility.yul\":14341:14355   */\n      add\n        /* \"#utility.yul\":14334:14367   */\n      mstore\n        /* \"#utility.yul\":14217:14374   */\n      pop\n      jump\t// out\n        /* \"#utility.yul\":14380:14780   */\n    tag_356:\n        /* \"#utility.yul\":14540:14543   */\n      0x00\n        /* \"#utility.yul\":14561:14645   */\n      tag_535\n        /* \"#utility.yul\":14643:14644   */\n      0x07\n        /* \"#utility.yul\":14638:14641   */\n      dup4\n        /* \"#utility.yul\":14561:14645   */\n      tag_351\n      jump\t// in\n    tag_535:\n        /* \"#utility.yul\":14554:14645   */\n      swap2\n      pop\n        /* \"#utility.yul\":14654:14747   */\n      tag_536\n        /* \"#utility.yul\":14743:14746   */\n      dup3\n        /* \"#utility.yul\":14654:14747   */\n      tag_355\n      jump\t// in\n    tag_536:\n        /* \"#utility.yul\":14772:14773   */\n      0x07\n        /* \"#utility.yul\":14767:14770   */\n      dup3\n        /* \"#utility.yul\":14763:14774   */\n      add\n        /* \"#utility.yul\":14756:14774   */\n      swap1\n      pop\n        /* \"#utility.yul\":14380:14780   */\n      swap2\n      swap1\n      pop\n      jump\t// out\n        /* \"#utility.yul\":14786:15593   */\n    tag_116:\n        /* \"#utility.yul\":15120:15123   */\n      0x00\n        /* \"#utility.yul\":15142:15290   */\n      tag_538\n        /* \"#utility.yul\":15286:15289   */\n      dup3\n        /* \"#utility.yul\":15142:15290   */\n      tag_353\n      jump\t// in\n    tag_538:\n        /* \"#utility.yul\":15135:15290   */\n      swap2\n      pop\n        /* \"#utility.yul\":15307:15402   */\n      tag_539\n        /* \"#utility.yul\":15398:15401   */\n      dup3\n        /* \"#utility.yul\":15389:15395   */\n      dup5\n        /* \"#utility.yul\":15307:15402   */\n      tag_354\n      jump\t// in\n    tag_539:\n        /* \"#utility.yul\":15300:15402   */\n      swap2\n      pop\n        /* \"#utility.yul\":15419:15567   */\n      tag_540\n        /* \"#utility.yul\":15563:15566   */\n      dup3\n        /* \"#utility.yul\":15419:15567   */\n      tag_356\n      jump\t// in\n    tag_540:\n        /* \"#utility.yul\":15412:15567   */\n      swap2\n      pop\n        /* \"#utility.yul\":15584:15587   */\n      dup2\n        /* \"#utility.yul\":15577:15587   */\n      swap1\n      pop\n        /* \"#utility.yul\":14786:15593   */\n      swap3\n      swap2\n      pop\n      pop\n      jump\t// out\n        /* \"#utility.yul\":15599:15754   */\n    tag_357:\n        /* \"#utility.yul\":15739:15746   */\n      0x5041494e54000000000000000000000000000000000000000000000000000000\n        /* \"#utility.yul\":15735:15736   */\n      0x00\n        /* \"#utility.yul\":15727:15733   */\n      dup3\n        /* \"#utility.yul\":15723:15737   */\n      add\n        /* \"#utility.yul\":15716:15747   */\n      mstore\n        /* \"#utility.yul\":15599:15754   */\n      pop\n      jump\t// out\n        /* \"#utility.yul\":15760:16160   */\n    tag_358:\n        /* \"#utility.yul\":15920:15923   */\n      0x00\n        /* \"#utility.yul\":15941:16025   */\n      tag_543\n        /* \"#utility.yul\":16023:16024   */\n      0x05\n        /* \"#utility.yul\":16018:16021   */\n      dup4\n        /* \"#utility.yul\":15941:16025   */\n      tag_351\n      jump\t// in\n    tag_543:\n        /* \"#utility.yul\":15934:16025   */\n      swap2\n      pop\n        /* \"#utility.yul\":16034:16127   */\n      tag_544\n        /* \"#utility.yul\":16123:16126   */\n      dup3\n        /* \"#utility.yul\":16034:16127   */\n      tag_357\n      jump\t// in\n    tag_544:\n        /* \"#utility.yul\":16152:16153   */\n      0x05\n        /* \"#utility.yul\":16147:16150   */\n      dup3\n        /* \"#utility.yul\":16143:16154   */\n      add\n        /* \"#utility.yul\":16136:16154   */\n      swap1\n      pop\n        /* \"#utility.yul\":15760:16160   */\n      swap2\n      swap1\n      pop\n      jump\t// out\n        /* \"#utility.yul\":16166:16707   */\n    tag_119:\n        /* \"#utility.yul\":16399:16402   */\n      0x00\n        /* \"#utility.yul\":16421:16569   */\n      tag_546\n        /* \"#utility.yul\":16565:16568   */\n      dup3\n        /* \"#utility.yul\":16421:16569   */\n      tag_358\n      jump\t// in\n    tag_546:\n        /* \"#utility.yul\":16414:16569   */\n      swap2\n      pop\n        /* \"#utility.yul\":16586:16681   */\n      tag_547\n        /* \"#utility.yul\":16677:16680   */\n      dup3\n        /* \"#utility.yul\":16668:16674   */\n      dup5\n        /* \"#utility.yul\":16586:16681   */\n      tag_354\n      jump\t// in\n    tag_547:\n        /* \"#utility.yul\":16579:16681   */\n      swap2\n      pop\n        /* \"#utility.yul\":16698:16701   */\n      dup2\n        /* \"#utility.yul\":16691:16701   */\n      swap1\n      pop\n        /* \"#utility.yul\":16166:16707   */\n      swap3\n      swap2\n      pop\n      pop\n      jump\t// out\n        /* \"#utility.yul\":16713:16893   */\n    tag_270:\n        /* \"#utility.yul\":16761:16838   */\n      0x4e487b7100000000000000000000000000000000000000000000000000000000\n        /* \"#utility.yul\":16758:16759   */\n      0x00\n        /* \"#utility.yul\":16751:16839   */\n      mstore\n        /* \"#utility.yul\":16858:16862   */\n      0x41\n        /* \"#utility.yul\":16855:16856   */\n      0x04\n        /* \"#utility.yul\":16848:16863   */\n      mstore\n        /* \"#utility.yul\":16882:16886   */\n      0x24\n        /* \"#utility.yul\":16879:16880   */\n      0x00\n        /* \"#utility.yul\":16872:16887   */\n      revert\n        /* \"#utility.yul\":16899:17079   */\n    tag_359:\n        /* \"#utility.yul\":16947:17024   */\n      0x4e487b7100000000000000000000000000000000000000000000000000000000\n        /* \"#utility.yul\":16944:16945   */\n      0x00\n        /* \"#utility.yul\":16937:17025   */\n      mstore\n        /* \"#utility.yul\":17044:17048   */\n      0x22\n        /* \"#utility.yul\":17041:17042   */\n      0x04\n        /* \"#utility.yul\":17034:17049   */\n      mstore\n        /* \"#utility.yul\":17068:17072   */\n      0x24\n        /* \"#utility.yul\":17065:17066   */\n      0x00\n        /* \"#utility.yul\":17058:17073   */\n      revert\n        /* \"#utility.yul\":17085:17405   */\n    tag_171:\n        /* \"#utility.yul\":17129:17135   */\n      0x00\n        /* \"#utility.yul\":17166:17167   */\n      0x02\n        /* \"#utility.yul\":17160:17164   */\n      dup3\n        /* \"#utility.yul\":17156:17168   */\n      div\n        /* \"#utility.yul\":17146:17168   */\n      swap1\n      pop\n        /* \"#utility.yul\":17213:17214   */\n      0x01\n        /* \"#utility.yul\":17207:17211   */\n      dup3\n        /* \"#utility.yul\":17203:17215   */\n      and\n        /* \"#utility.yul\":17234:17252   */\n      dup1\n        /* \"#utility.yul\":17224:17305   */\n      tag_551\n      jumpi\n        /* \"#utility.yul\":17290:17294   */\n      0x7f\n        /* \"#utility.yul\":17282:17288   */\n      dup3\n        /* \"#utility.yul\":17278:17295   */\n      and\n        /* \"#utility.yul\":17268:17295   */\n      swap2\n      pop\n        /* \"#utility.yul\":17224:17305   */\n    tag_551:\n        /* \"#utility.yul\":17352:17354   */\n      0x20\n        /* \"#utility.yul\":17344:17350   */\n      dup3\n        /* \"#utility.yul\":17341:17355   */\n      lt\n        /* \"#utility.yul\":17321:17339   */\n      dup2\n        /* \"#utility.yul\":17318:17356   */\n      sub\n        /* \"#utility.yul\":17315:17399   */\n      tag_552\n      jumpi\n        /* \"#utility.yul\":17371:17389   */\n      tag_553\n      tag_359\n      jump\t// in\n    tag_553:\n        /* \"#utility.yul\":17315:17399   */\n    tag_552:\n        /* \"#utility.yul\":17136:17405   */\n      pop\n        /* \"#utility.yul\":17085:17405   */\n      swap2\n      swap1\n      pop\n      jump\t// out\n        /* \"#utility.yul\":17411:17552   */\n    tag_360:\n        /* \"#utility.yul\":17460:17464   */\n      0x00\n        /* \"#utility.yul\":17483:17486   */\n      dup2\n        /* \"#utility.yul\":17475:17486   */\n      swap1\n      pop\n        /* \"#utility.yul\":17506:17509   */\n      dup2\n        /* \"#utility.yul\":17503:17504   */\n      0x00\n        /* \"#utility.yul\":17496:17510   */\n      mstore\n        /* \"#utility.yul\":17540:17544   */\n      0x20\n        /* \"#utility.yul\":17537:17538   */\n      0x00\n        /* \"#utility.yul\":17527:17545   */\n      keccak256\n        /* \"#utility.yul\":17519:17545   */\n      swap1\n      pop\n        /* \"#utility.yul\":17411:17552   */\n      swap2\n      swap1\n      pop\n      jump\t// out\n        /* \"#utility.yul\":17558:17651   */\n    tag_361:\n        /* \"#utility.yul\":17595:17601   */\n      0x00\n        /* \"#utility.yul\":17642:17644   */\n      0x20\n        /* \"#utility.yul\":17637:17639   */\n      0x1f\n        /* \"#utility.yul\":17630:17635   */\n      dup4\n        /* \"#utility.yul\":17626:17640   */\n      add\n        /* \"#utility.yul\":17622:17645   */\n      div\n        /* \"#utility.yul\":17612:17645   */\n      swap1\n      pop\n        /* \"#utility.yul\":17558:17651   */\n      swap2\n      swap1\n      pop\n      jump\t// out\n        /* \"#utility.yul\":17657:17764   */\n    tag_362:\n        /* \"#utility.yul\":17701:17709   */\n      0x00\n        /* \"#utility.yul\":17751:17756   */\n      dup3\n        /* \"#utility.yul\":17745:17749   */\n      dup3\n        /* \"#utility.yul\":17741:17757   */\n      shl\n        /* \"#utility.yul\":17720:17757   */\n      swap1\n      pop\n        /* \"#utility.yul\":17657:17764   */\n      swap3\n      swap2\n      pop\n      pop\n      jump\t// out\n        /* \"#utility.yul\":17770:18163   */\n    tag_363:\n        /* \"#utility.yul\":17839:17845   */\n      0x00\n        /* \"#utility.yul\":17889:17890   */\n      0x08\n        /* \"#utility.yul\":17877:17887   */\n      dup4\n        /* \"#utility.yul\":17873:17891   */\n      mul\n        /* \"#utility.yul\":17912:18009   */\n      tag_558\n        /* \"#utility.yul\":17942:18008   */\n      0xffffffffffffffffffffffffffffffffffffffffffffffffffffffffffffffff\n        /* \"#utility.yul\":17931:17940   */\n      dup3\n        /* \"#utility.yul\":17912:18009   */\n      tag_362\n      jump\t// in\n    tag_558:\n        /* \"#utility.yul\":18030:18069   */\n      tag_559\n        /* \"#utility.yul\":18060:18068   */\n      dup7\n        /* \"#utility.yul\":18049:18058   */\n      dup4\n        /* \"#utility.yul\":18030:18069   */\n      tag_362\n      jump\t// in\n    tag_559:\n        /* \"#utility.yul\":18018:18069   */\n      swap6\n      pop\n        /* \"#utility.yul\":18102:18106   */\n      dup1\n        /* \"#utility.yul\":18098:18107   */\n      not\n        /* \"#utility.yul\":18091:18096   */\n      dup5\n        /* \"#utility.yul\":18087:18108   */\n      and\n        /* \"#utility.yul\":18078:18108   */\n      swap4\n      pop\n        /* \"#utility.yul\":18151:18155   */\n      dup1\n        /* \"#utility.yul\":18141:18149   */\n      dup7\n        /* \"#utility.yul\":18137:18156   */\n      and\n        /* \"#utility.yul\":18130:18135   */\n      dup5\n        /* \"#utility.yul\":18127:18157   */\n      or\n        /* \"#utility.yul\":18117:18157   */\n      swap3\n      pop\n        /* \"#utility.yul\":17846:18163   */\n      pop\n      pop\n        /* \"#utility.yul\":17770:18163   */\n      swap4\n      swap3\n      pop\n      pop\n      pop\n      jump\t// out\n        /* \"#utility.yul\":18169:18229   */\n    tag_364:\n        /* \"#utility.yul\":18197:18200   */\n      0x00\n        /* \"#utility.yul\":18218:18223   */\n      dup2\n        /* \"#utility.yul\":18211:18223   */\n      swap1\n      pop\n        /* \"#utility.yul\":18169:18229   */\n      swap2\n      swap1\n      pop\n      jump\t// out\n        /* \"#utility.yul\":18235:18377   */\n    tag_365:\n        /* \"#utility.yul\":18285:18294   */\n      0x00\n        /* \"#utility.yul\":18318:18371   */\n      tag_562\n        /* \"#utility.yul\":18336:18370   */\n      tag_563\n        /* \"#utility.yul\":18345:18369   */\n      tag_564\n        /* \"#utility.yul\":18363:18368   */\n      dup5\n        /* \"#utility.yul\":18345:18369   */\n      tag_332\n      jump\t// in\n    tag_564:\n        /* \"#utility.yul\":18336:18370   */\n      tag_364\n      jump\t// in\n    tag_563:\n        /* \"#utility.yul\":18318:18371   */\n      tag_332\n      jump\t// in\n    tag_562:\n        /* \"#utility.yul\":18305:18371   */\n      swap1\n      pop\n        /* \"#utility.yul\":18235:18377   */\n      swap2\n      swap1\n      pop\n      jump\t// out\n        /* \"#utility.yul\":18383:18458   */\n    tag_366:\n        /* \"#utility.yul\":18426:18429   */\n      0x00\n        /* \"#utility.yul\":18447:18452   */\n      dup2\n        /* \"#utility.yul\":18440:18452   */\n      swap1\n      pop\n        /* \"#utility.yul\":18383:18458   */\n      swap2\n      swap1\n      pop\n      jump\t// out\n        /* \"#utility.yul\":18464:18733   */\n    tag_367:\n        /* \"#utility.yul\":18574:18613   */\n      tag_567\n        /* \"#utility.yul\":18605:18612   */\n      dup4\n        /* \"#utility.yul\":18574:18613   */\n      tag_365\n      jump\t// in\n    tag_567:\n        /* \"#utility.yul\":18635:18726   */\n      tag_568\n        /* \"#utility.yul\":18684:18725   */\n      tag_569\n        /* \"#utility.yul\":18708:18724   */\n      dup3\n        /* \"#utility.yul\":18684:18725   */\n      tag_366\n      jump\t// in\n    tag_569:\n        /* \"#utility.yul\":18676:18682   */\n      dup5\n        /* \"#utility.yul\":18669:18673   */\n      dup5\n        /* \"#utility.yul\":18663:18674   */\n      sload\n        /* \"#utility.yul\":18635:18726   */\n      tag_363\n      jump\t// in\n    tag_568:\n        /* \"#utility.yul\":18629:18633   */\n      dup3\n        /* \"#utility.yul\":18622:18727   */\n      sstore\n        /* \"#utility.yul\":18540:18733   */\n      pop\n        /* \"#utility.yul\":18464:18733   */\n      pop\n      pop\n      pop\n      jump\t// out\n        /* \"#utility.yul\":18739:18812   */\n    tag_368:\n        /* \"#utility.yul\":18784:18787   */\n      0x00\n        /* \"#utility.yul\":18739:18812   */\n      swap1\n      jump\t// out\n        /* \"#utility.yul\":18818:19007   */\n    tag_369:\n        /* \"#utility.yul\":18895:18927   */\n      tag_572\n      tag_368\n      jump\t// in\n    tag_572:\n        /* \"#utility.yul\":18936:19001   */\n      tag_573\n        /* \"#utility.yul\":18994:19000   */\n      dup2\n        /* \"#utility.yul\":18986:18992   */\n      dup5\n        /* \"#utility.yul\":18980:18984   */\n      dup5\n        /* \"#utility.yul\":18936:19001   */\n      tag_367\n      jump\t// in\n    tag_573:\n        /* \"#utility.yul\":18871:19007   */\n      pop\n        /* \"#utility.yul\":18818:19007   */\n      pop\n      pop\n      jump\t// out\n        /* \"#utility.yul\":19013:19199   */\n    tag_370:\n        /* \"#utility.yul\":19073:19193   */\n    tag_575:\n        /* \"#utility.yul\":19090:19093   */\n      dup2\n        /* \"#utility.yul\":19083:19088   */\n      dup2\n        /* \"#utility.yul\":19080:19094   */\n      lt\n        /* \"#utility.yul\":19073:19193   */\n      iszero\n      tag_577\n      jumpi\n        /* \"#utility.yul\":19144:19183   */\n      tag_578\n        /* \"#utility.yul\":19181:19182   */\n      0x00\n        /* \"#utility.yul\":19174:19179   */\n      dup3\n        /* \"#utility.yul\":19144:19183   */\n      tag_369\n      jump\t// in\n    tag_578:\n        /* \"#utility.yul\":19117:19118   */\n      0x01\n        /* \"#utility.yul\":19110:19115   */\n      dup2\n        /* \"#utility.yul\":19106:19119   */\n      add\n        /* \"#utility.yul\":19097:19119   */\n      swap1\n      pop\n        /* \"#utility.yul\":19073:19193   */\n      jump(tag_575)\n    tag_577:\n        /* \"#utility.yul\":19013:19199   */\n      pop\n      pop\n      jump\t// out\n        /* \"#utility.yul\":19205:19748   */\n    tag_371:\n        /* \"#utility.yul\":19306:19308   */\n      0x1f\n        /* \"#utility.yul\":19301:19304   */\n      dup3\n        /* \"#utility.yul\":19298:19309   */\n      gt\n        /* \"#utility.yul\":19295:19741   */\n      iszero\n      tag_580\n      jumpi\n        /* \"#utility.yul\":19340:19378   */\n      tag_581\n        /* \"#utility.yul\":19372:19377   */\n      dup2\n        /* \"#utility.yul\":19340:19378   */\n      tag_360\n      jump\t// in\n    tag_581:\n        /* \"#utility.yul\":19424:19453   */\n      tag_582\n        /* \"#utility.yul\":19442:19452   */\n      dup5\n        /* \"#utility.yul\":19424:19453   */\n      tag_361\n      jump\t// in\n    tag_582:\n        /* \"#utility.yul\":19414:19422   */\n      dup2\n        /* \"#utility.yul\":19410:19454   */\n      add\n        /* \"#utility.yul\":19607:19609   */\n      0x20\n        /* \"#utility.yul\":19595:19605   */\n      dup6\n        /* \"#utility.yul\":19592:19610   */\n      lt\n        /* \"#utility.yul\":19589:19638   */\n      iszero\n      tag_583\n      jumpi\n        /* \"#utility.yul\":19628:19636   */\n      dup2\n        /* \"#utility.yul\":19613:19636   */\n      swap1\n      pop\n        /* \"#utility.yul\":19589:19638   */\n    tag_583:\n        /* \"#utility.yul\":19651:19731   */\n      tag_584\n        /* \"#utility.yul\":19707:19729   */\n      tag_585\n        /* \"#utility.yul\":19725:19728   */\n      dup6\n        /* \"#utility.yul\":19707:19729   */\n      tag_361\n      jump\t// in\n    tag_585:\n        /* \"#utility.yul\":19697:19705   */\n      dup4\n        /* \"#utility.yul\":19693:19730   */\n      add\n        /* \"#utility.yul\":19680:19691   */\n      dup3\n        /* \"#utility.yul\":19651:19731   */\n      tag_370\n      jump\t// in\n    tag_584:\n        /* \"#utility.yul\":19310:19741   */\n      pop\n      pop\n        /* \"#utility.yul\":19295:19741   */\n    tag_580:\n        /* \"#utility.yul\":19205:19748   */\n      pop\n      pop\n      pop\n      jump\t// out\n        /* \"#utility.yul\":19754:19871   */\n    tag_372:\n        /* \"#utility.yul\":19808:19816   */\n      0x00\n        /* \"#utility.yul\":19858:19863   */\n      dup3\n        /* \"#utility.yul\":19852:19856   */\n      dup3\n        /* \"#utility.yul\":19848:19864   */\n      shr\n        /* \"#utility.yul\":19827:19864   */\n      swap1\n      pop\n        /* \"#utility.yul\":19754:19871   */\n      swap3\n      swap2\n      pop\n      pop\n      jump\t// out\n        /* \"#utility.yul\":19877:20046   */\n    tag_373:\n        /* \"#utility.yul\":19921:19927   */\n      0x00\n        /* \"#utility.yul\":19954:20005   */\n      tag_588\n        /* \"#utility.yul\":20002:20003   */\n      0x00\n        /* \"#utility.yul\":19998:20004   */\n      not\n        /* \"#utility.yul\":19990:19995   */\n      dup5\n        /* \"#utility.yul\":19987:19988   */\n      0x08\n        /* \"#utility.yul\":19983:19996   */\n      mul\n        /* \"#utility.yul\":19954:20005   */\n      tag_372\n      jump\t// in\n    tag_588:\n        /* \"#utility.yul\":19950:20006   */\n      not\n        /* \"#utility.yul\":20035:20039   */\n      dup1\n        /* \"#utility.yul\":20029:20033   */\n      dup4\n        /* \"#utility.yul\":20025:20040   */\n      and\n        /* \"#utility.yul\":20015:20040   */\n      swap2\n      pop\n        /* \"#utility.yul\":19928:20046   */\n      pop\n        /* \"#utility.yul\":19877:20046   */\n      swap3\n      swap2\n      pop\n      pop\n      jump\t// out\n        /* \"#utility.yul\":20051:20346   */\n    tag_374:\n        /* \"#utility.yul\":20127:20131   */\n      0x00\n        /* \"#utility.yul\":20273:20302   */\n      tag_590\n        /* \"#utility.yul\":20298:20301   */\n      dup4\n        /* \"#utility.yul\":20292:20296   */\n      dup4\n        /* \"#utility.yul\":20273:20302   */\n      tag_373\n      jump\t// in\n    tag_590:\n        /* \"#utility.yul\":20265:20302   */\n      swap2\n      pop\n        /* \"#utility.yul\":20335:20338   */\n      dup3\n        /* \"#utility.yul\":20332:20333   */\n      0x02\n        /* \"#utility.yul\":20328:20339   */\n      mul\n        /* \"#utility.yul\":20322:20326   */\n      dup3\n        /* \"#utility.yul\":20319:20340   */\n      or\n        /* \"#utility.yul\":20311:20340   */\n      swap1\n      pop\n        /* \"#utility.yul\":20051:20346   */\n      swap3\n      swap2\n      pop\n      pop\n      jump\t// out\n        /* \"#utility.yul\":20351:21746   */\n    tag_121:\n        /* \"#utility.yul\":20468:20505   */\n      tag_592\n        /* \"#utility.yul\":20501:20504   */\n      dup3\n        /* \"#utility.yul\":20468:20505   */\n      tag_338\n      jump\t// in\n    tag_592:\n        /* \"#utility.yul\":20570:20588   */\n      0xffffffffffffffff\n        /* \"#utility.yul\":20562:20568   */\n      dup2\n        /* \"#utility.yul\":20559:20589   */\n      gt\n        /* \"#utility.yul\":20556:20612   */\n      iszero\n      tag_593\n      jumpi\n        /* \"#utility.yul\":20592:20610   */\n      tag_594\n      tag_270\n      jump\t// in\n    tag_594:\n        /* \"#utility.yul\":20556:20612   */\n    tag_593:\n        /* \"#utility.yul\":20636:20674   */\n      tag_595\n        /* \"#utility.yul\":20668:20672   */\n      dup3\n        /* \"#utility.yul\":20662:20673   */\n      sload\n        /* \"#utility.yul\":20636:20674   */\n      tag_171\n      jump\t// in\n    tag_595:\n        /* \"#utility.yul\":20721:20788   */\n      tag_596\n        /* \"#utility.yul\":20781:20787   */\n      dup3\n        /* \"#utility.yul\":20773:20779   */\n      dup3\n        /* \"#utility.yul\":20767:20771   */\n      dup6\n        /* \"#utility.yul\":20721:20788   */\n      tag_371\n      jump\t// in\n    tag_596:\n        /* \"#utility.yul\":20815:20816   */\n      0x00\n        /* \"#utility.yul\":20839:20843   */\n      0x20\n        /* \"#utility.yul\":20826:20843   */\n      swap1\n      pop\n        /* \"#utility.yul\":20871:20873   */\n      0x1f\n        /* \"#utility.yul\":20863:20869   */\n      dup4\n        /* \"#utility.yul\":20860:20874   */\n      gt\n        /* \"#utility.yul\":20888:20889   */\n      0x01\n        /* \"#utility.yul\":20883:21501   */\n      dup2\n      eq\n      tag_598\n      jumpi\n        /* \"#utility.yul\":21545:21546   */\n      0x00\n        /* \"#utility.yul\":21562:21568   */\n      dup5\n        /* \"#utility.yul\":21559:21636   */\n      iszero\n      tag_599\n      jumpi\n        /* \"#utility.yul\":21611:21620   */\n      dup3\n        /* \"#utility.yul\":21606:21609   */\n      dup8\n        /* \"#utility.yul\":21602:21621   */\n      add\n        /* \"#utility.yul\":21596:21622   */\n      mload\n        /* \"#utility.yul\":21587:21622   */\n      swap1\n      pop\n        /* \"#utility.yul\":21559:21636   */\n    tag_599:\n        /* \"#utility.yul\":21662:21729   */\n      tag_600\n        /* \"#utility.yul\":21722:21728   */\n      dup6\n        /* \"#utility.yul\":21715:21720   */\n      dup3\n        /* \"#utility.yul\":21662:21729   */\n      tag_374\n      jump\t// in\n    tag_600:\n        /* \"#utility.yul\":21656:21660   */\n      dup7\n        /* \"#utility.yul\":21649:21730   */\n      sstore\n        /* \"#utility.yul\":21518:21740   */\n      pop\n        /* \"#utility.yul\":20853:21740   */\n      jump(tag_597)\n        /* \"#utility.yul\":20883:21501   */\n    tag_598:\n        /* \"#utility.yul\":20935:20939   */\n      0x1f\n        /* \"#utility.yul\":20931:20940   */\n      not\n        /* \"#utility.yul\":20923:20929   */\n      dup5\n        /* \"#utility.yul\":20919:20941   */\n      and\n        /* \"#utility.yul\":20969:21006   */\n      tag_601\n        /* \"#utility.yul\":21001:21005   */\n      dup7\n        /* \"#utility.yul\":20969:21006   */\n      tag_360\n      jump\t// in\n    tag_601:\n        /* \"#utility.yul\":21028:21029   */\n      0x00\n        /* \"#utility.yul\":21042:21250   */\n    tag_602:\n        /* \"#utility.yul\":21056:21063   */\n      dup3\n        /* \"#utility.yul\":21053:21054   */\n      dup2\n        /* \"#utility.yul\":21050:21064   */\n      lt\n        /* \"#utility.yul\":21042:21250   */\n      iszero\n      tag_604\n      jumpi\n        /* \"#utility.yul\":21135:21144   */\n      dup5\n        /* \"#utility.yul\":21130:21133   */\n      dup10\n        /* \"#utility.yul\":21126:21145   */\n      add\n        /* \"#utility.yul\":21120:21146   */\n      mload\n        /* \"#utility.yul\":21112:21118   */\n      dup3\n        /* \"#utility.yul\":21105:21147   */\n      sstore\n        /* \"#utility.yul\":21186:21187   */\n      0x01\n        /* \"#utility.yul\":21178:21184   */\n      dup3\n        /* \"#utility.yul\":21174:21188   */\n      add\n        /* \"#utility.yul\":21164:21188   */\n      swap2\n      pop\n        /* \"#utility.yul\":21233:21235   */\n      0x20\n        /* \"#utility.yul\":21222:21231   */\n      dup6\n        /* \"#utility.yul\":21218:21236   */\n      add\n        /* \"#utility.yul\":21205:21236   */\n      swap5\n      pop\n        /* \"#utility.yul\":21079:21083   */\n      0x20\n        /* \"#utility.yul\":21076:21077   */\n      dup2\n        /* \"#utility.yul\":21072:21084   */\n      add\n        /* \"#utility.yul\":21067:21084   */\n      swap1\n      pop\n        /* \"#utility.yul\":21042:21250   */\n      jump(tag_602)\n    tag_604:\n        /* \"#utility.yul\":21278:21284   */\n      dup7\n        /* \"#utility.yul\":21269:21276   */\n      dup4\n        /* \"#utility.yul\":21266:21285   */\n      lt\n        /* \"#utility.yul\":21263:21442   */\n      iszero\n      tag_605\n      jumpi\n        /* \"#utility.yul\":21336:21345   */\n      dup5\n        /* \"#utility.yul\":21331:21334   */\n      dup10\n        /* \"#utility.yul\":21327:21346   */\n      add\n        /* \"#utility.yul\":21321:21347   */\n      mload\n        /* \"#utility.yul\":21379:21427   */\n      tag_606\n        /* \"#utility.yul\":21421:21425   */\n      0x1f\n        /* \"#utility.yul\":21413:21419   */\n      dup10\n        /* \"#utility.yul\":21409:21426   */\n      and\n        /* \"#utility.yul\":21398:21407   */\n      dup3\n        /* \"#utility.yul\":21379:21427   */\n      tag_373\n      jump\t// in\n    tag_606:\n        /* \"#utility.yul\":21371:21377   */\n      dup4\n        /* \"#utility.yul\":21364:21428   */\n      sstore\n        /* \"#utility.yul\":21286:21442   */\n      pop\n        /* \"#utility.yul\":21263:21442   */\n    tag_605:\n        /* \"#utility.yul\":21488:21489   */\n      0x01\n        /* \"#utility.yul\":21484:21485   */\n      0x02\n        /* \"#utility.yul\":21476:21482   */\n      dup9\n        /* \"#utility.yul\":21472:21486   */\n      mul\n        /* \"#utility.yul\":21468:21490   */\n      add\n        /* \"#utility.yul\":21462:21466   */\n      dup9\n        /* \"#utility.yul\":21455:21491   */\n      sstore\n        /* \"#utility.yul\":20890:21501   */\n      pop\n      pop\n      pop\n        /* \"#utility.yul\":20853:21740   */\n    tag_597:\n      pop\n        /* \"#utility.yul\":20443:21746   */\n      pop\n      pop\n      pop\n        /* \"#utility.yul\":20351:21746   */\n      pop\n      pop\n      jump\t// out\n        /* \"#utility.yul\":21752:22162   */\n    tag_124:\n        /* \"#utility.yul\":21792:21799   */\n      0x00\n        /* \"#utility.yul\":21815:21835   */\n      tag_608\n        /* \"#utility.yul\":21833:21834   */\n      dup3\n        /* \"#utility.yul\":21815:21835   */\n      tag_332\n      jump\t// in\n    tag_608:\n        /* \"#utility.yul\":21810:21835   */\n      swap2\n      pop\n        /* \"#utility.yul\":21849:21869   */\n      tag_609\n        /* \"#utility.yul\":21867:21868   */\n      dup4\n        /* \"#utility.yul\":21849:21869   */\n      tag_332\n      jump\t// in\n    tag_609:\n        /* \"#utility.yul\":21844:21869   */\n      swap3\n      pop\n        /* \"#utility.yul\":21904:21905   */\n      dup3\n        /* \"#utility.yul\":21901:21902   */\n      dup3\n        /* \"#utility.yul\":21897:21906   */\n      mul\n        /* \"#utility.yul\":21926:21956   */\n      tag_610\n        /* \"#utility.yul\":21944:21955   */\n      dup2\n        /* \"#utility.yul\":21926:21956   */\n      tag_332\n      jump\t// in\n    tag_610:\n        /* \"#utility.yul\":21915:21956   */\n      swap2\n      pop\n        /* \"#utility.yul\":22105:22106   */\n      dup3\n        /* \"#utility.yul\":22096:22103   */\n      dup3\n        /* \"#utility.yul\":22092:22107   */\n      div\n        /* \"#utility.yul\":22089:22090   */\n      dup5\n        /* \"#utility.yul\":22086:22108   */\n      eq\n        /* \"#utility.yul\":22066:22067   */\n      dup4\n        /* \"#utility.yul\":22059:22068   */\n      iszero\n        /* \"#utility.yul\":22039:22122   */\n      or\n        /* \"#utility.yul\":22016:22155   */\n      tag_611\n      jumpi\n        /* \"#utility.yul\":22135:22153   */\n      tag_612\n      tag_348\n      jump\t// in\n    tag_612:\n        /* \"#utility.yul\":22016:22155   */\n    tag_611:\n        /* \"#utility.yul\":21800:22162   */\n      pop\n        /* \"#utility.yul\":21752:22162   */\n      swap3\n      swap2\n      pop\n      pop\n      jump\t// out\n        /* \"#utility.yul\":22168:22348   */\n    tag_375:\n        /* \"#utility.yul\":22216:22293   */\n      0x4e487b7100000000000000000000000000000000000000000000000000000000\n        /* \"#utility.yul\":22213:22214   */\n      0x00\n        /* \"#utility.yul\":22206:22294   */\n      mstore\n        /* \"#utility.yul\":22313:22317   */\n      0x12\n        /* \"#utility.yul\":22310:22311   */\n      0x04\n        /* \"#utility.yul\":22303:22318   */\n      mstore\n        /* \"#utility.yul\":22337:22341   */\n      0x24\n        /* \"#utility.yul\":22334:22335   */\n      0x00\n        /* \"#utility.yul\":22327:22342   */\n      revert\n        /* \"#utility.yul\":22354:22539   */\n    tag_126:\n        /* \"#utility.yul\":22394:22395   */\n      0x00\n        /* \"#utility.yul\":22411:22431   */\n      tag_615\n        /* \"#utility.yul\":22429:22430   */\n      dup3\n        /* \"#utility.yul\":22411:22431   */\n      tag_332\n      jump\t// in\n    tag_615:\n        /* \"#utility.yul\":22406:22431   */\n      swap2\n      pop\n        /* \"#utility.yul\":22445:22465   */\n      tag_616\n        /* \"#utility.yul\":22463:22464   */\n      dup4\n        /* \"#utility.yul\":22445:22465   */\n      tag_332\n      jump\t// in\n    tag_616:\n        /* \"#utility.yul\":22440:22465   */\n      swap3\n      pop\n        /* \"#utility.yul\":22484:22485   */\n      dup3\n        /* \"#utility.yul\":22474:22509   */\n      tag_617\n      jumpi\n        /* \"#utility.yul\":22489:22507   */\n      tag_618\n      tag_375\n      jump\t// in\n    tag_618:\n        /* \"#utility.yul\":22474:22509   */\n    tag_617:\n        /* \"#utility.yul\":22531:22532   */\n      dup3\n        /* \"#utility.yul\":22528:22529   */\n      dup3\n        /* \"#utility.yul\":22524:22533   */\n      div\n        /* \"#utility.yul\":22519:22533   */\n      swap1\n      pop\n        /* \"#utility.yul\":22354:22539   */\n      swap3\n      swap2\n      pop\n      pop\n      jump\t// out\n        /* \"#utility.yul\":22545:22722   */\n    tag_376:\n        /* \"#utility.yul\":22685:22714   */\n      0x506c6174666f726d207368617265732063616e6e6f7420626520300000000000\n        /* \"#utility.yul\":22681:22682   */\n      0x00\n        /* \"#utility.yul\":22673:22679   */\n      dup3\n        /* \"#utility.yul\":22669:22683   */\n      add\n        /* \"#utility.yul\":22662:22715   */\n      mstore\n        /* \"#utility.yul\":22545:22722   */\n      pop\n      jump\t// out\n        /* \"#utility.yul\":22728:23094   */\n    tag_377:\n        /* \"#utility.yul\":22870:22873   */\n      0x00\n        /* \"#utility.yul\":22891:22958   */\n      tag_621\n        /* \"#utility.yul\":22955:22957   */\n      0x1b\n        /* \"#utility.yul\":22950:22953   */\n      dup4\n        /* \"#utility.yul\":22891:22958   */\n      tag_339\n      jump\t// in\n    tag_621:\n        /* \"#utility.yul\":22884:22958   */\n      swap2\n      pop\n        /* \"#utility.yul\":22967:23060   */\n      tag_622\n        /* \"#utility.yul\":23056:23059   */\n      dup3\n        /* \"#utility.yul\":22967:23060   */\n      tag_376\n      jump\t// in\n    tag_622:\n        /* \"#utility.yul\":23085:23087   */\n      0x20\n        /* \"#utility.yul\":23080:23083   */\n      dup3\n        /* \"#utility.yul\":23076:23088   */\n      add\n        /* \"#utility.yul\":23069:23088   */\n      swap1\n      pop\n        /* \"#utility.yul\":22728:23094   */\n      swap2\n      swap1\n      pop\n      jump\t// out\n        /* \"#utility.yul\":23100:23519   */\n    tag_129:\n        /* \"#utility.yul\":23266:23270   */\n      0x00\n        /* \"#utility.yul\":23304:23306   */\n      0x20\n        /* \"#utility.yul\":23293:23302   */\n      dup3\n        /* \"#utility.yul\":23289:23307   */\n      add\n        /* \"#utility.yul\":23281:23307   */\n      swap1\n      pop\n        /* \"#utility.yul\":23353:23362   */\n      dup2\n        /* \"#utility.yul\":23347:23351   */\n      dup2\n        /* \"#utility.yul\":23343:23363   */\n      sub\n        /* \"#utility.yul\":23339:23340   */\n      0x00\n        /* \"#utility.yul\":23328:23337   */\n      dup4\n        /* \"#utility.yul\":23324:23341   */\n      add\n        /* \"#utility.yul\":23317:23364   */\n      mstore\n        /* \"#utility.yul\":23381:23512   */\n      tag_624\n        /* \"#utility.yul\":23507:23511   */\n      dup2\n        /* \"#utility.yul\":23381:23512   */\n      tag_377\n      jump\t// in\n    tag_624:\n        /* \"#utility.yul\":23373:23512   */\n      swap1\n      pop\n        /* \"#utility.yul\":23100:23519   */\n      swap2\n      swap1\n      pop\n      jump\t// out\n        /* \"#utility.yul\":23525:23719   */\n    tag_135:\n        /* \"#utility.yul\":23565:23569   */\n      0x00\n        /* \"#utility.yul\":23585:23605   */\n      tag_626\n        /* \"#utility.yul\":23603:23604   */\n      dup3\n        /* \"#utility.yul\":23585:23605   */\n      tag_332\n      jump\t// in\n    tag_626:\n        /* \"#utility.yul\":23580:23605   */\n      swap2\n      pop\n        /* \"#utility.yul\":23619:23639   */\n      tag_627\n        /* \"#utility.yul\":23637:23638   */\n      dup4\n        /* \"#utility.yul\":23619:23639   */\n      tag_332\n      jump\t// in\n    tag_627:\n        /* \"#utility.yul\":23614:23639   */\n      swap3\n      pop\n        /* \"#utility.yul\":23663:23664   */\n      dup3\n        /* \"#utility.yul\":23660:23661   */\n      dup3\n        /* \"#utility.yul\":23656:23665   */\n      sub\n        /* \"#utility.yul\":23648:23665   */\n      swap1\n      pop\n        /* \"#utility.yul\":23687:23688   */\n      dup2\n        /* \"#utility.yul\":23681:23685   */\n      dup2\n        /* \"#utility.yul\":23678:23689   */\n      gt\n        /* \"#utility.yul\":23675:23712   */\n      iszero\n      tag_628\n      jumpi\n        /* \"#utility.yul\":23692:23710   */\n      tag_629\n      tag_348\n      jump\t// in\n    tag_629:\n        /* \"#utility.yul\":23675:23712   */\n    tag_628:\n        /* \"#utility.yul\":23525:23719   */\n      swap3\n      swap2\n      pop\n      pop\n      jump\t// out\n        /* \"#utility.yul\":23725:24682   */\n    tag_144:\n        /* \"#utility.yul\":23998:24002   */\n      0x00\n        /* \"#utility.yul\":24036:24039   */\n      0xc0\n        /* \"#utility.yul\":24025:24034   */\n      dup3\n        /* \"#utility.yul\":24021:24040   */\n      add\n        /* \"#utility.yul\":24013:24040   */\n      swap1\n      pop\n        /* \"#utility.yul\":24086:24095   */\n      dup2\n        /* \"#utility.yul\":24080:24084   */\n      dup2\n        /* \"#utility.yul\":24076:24096   */\n      sub\n        /* \"#utility.yul\":24072:24073   */\n      0x00\n        /* \"#utility.yul\":24061:24070   */\n      dup4\n        /* \"#utility.yul\":24057:24074   */\n      add\n        /* \"#utility.yul\":24050:24097   */\n      mstore\n        /* \"#utility.yul\":24114:24192   */\n      tag_631\n        /* \"#utility.yul\":24187:24191   */\n      dup2\n        /* \"#utility.yul\":24178:24184   */\n      dup10\n        /* \"#utility.yul\":24114:24192   */\n      tag_342\n      jump\t// in\n    tag_631:\n        /* \"#utility.yul\":24106:24192   */\n      swap1\n      pop\n        /* \"#utility.yul\":24239:24248   */\n      dup2\n        /* \"#utility.yul\":24233:24237   */\n      dup2\n        /* \"#utility.yul\":24229:24249   */\n      sub\n        /* \"#utility.yul\":24224:24226   */\n      0x20\n        /* \"#utility.yul\":24213:24222   */\n      dup4\n        /* \"#utility.yul\":24209:24227   */\n      add\n        /* \"#utility.yul\":24202:24250   */\n      mstore\n        /* \"#utility.yul\":24267:24345   */\n      tag_632\n        /* \"#utility.yul\":24340:24344   */\n      dup2\n        /* \"#utility.yul\":24331:24337   */\n      dup9\n        /* \"#utility.yul\":24267:24345   */\n      tag_342\n      jump\t// in\n    tag_632:\n        /* \"#utility.yul\":24259:24345   */\n      swap1\n      pop\n        /* \"#utility.yul\":24355:24427   */\n      tag_633\n        /* \"#utility.yul\":24423:24425   */\n      0x40\n        /* \"#utility.yul\":24412:24421   */\n      dup4\n        /* \"#utility.yul\":24408:24426   */\n      add\n        /* \"#utility.yul\":24399:24405   */\n      dup8\n        /* \"#utility.yul\":24355:24427   */\n      tag_335\n      jump\t// in\n    tag_633:\n        /* \"#utility.yul\":24437:24509   */\n      tag_634\n        /* \"#utility.yul\":24505:24507   */\n      0x60\n        /* \"#utility.yul\":24494:24503   */\n      dup4\n        /* \"#utility.yul\":24490:24508   */\n      add\n        /* \"#utility.yul\":24481:24487   */\n      dup7\n        /* \"#utility.yul\":24437:24509   */\n      tag_335\n      jump\t// in\n    tag_634:\n        /* \"#utility.yul\":24519:24592   */\n      tag_635\n        /* \"#utility.yul\":24587:24590   */\n      0x80\n        /* \"#utility.yul\":24576:24585   */\n      dup4\n        /* \"#utility.yul\":24572:24591   */\n      add\n        /* \"#utility.yul\":24563:24569   */\n      dup6\n        /* \"#utility.yul\":24519:24592   */\n      tag_335\n      jump\t// in\n    tag_635:\n        /* \"#utility.yul\":24602:24675   */\n      tag_636\n        /* \"#utility.yul\":24670:24673   */\n      0xa0\n        /* \"#utility.yul\":24659:24668   */\n      dup4\n        /* \"#utility.yul\":24655:24674   */\n      add\n        /* \"#utility.yul\":24646:24652   */\n      dup5\n        /* \"#utility.yul\":24602:24675   */\n      tag_335\n      jump\t// in\n    tag_636:\n        /* \"#utility.yul\":23725:24682   */\n      swap8\n      swap7\n      pop\n      pop\n      pop\n      pop\n      pop\n      pop\n      pop\n      jump\t// out\n        /* \"#utility.yul\":24688:24911   */\n    tag_378:\n        /* \"#utility.yul\":24828:24862   */\n      0x53686172657320646f6e277420657869737420666f722074686973207061696e\n        /* \"#utility.yul\":24824:24825   */\n      0x00\n        /* \"#utility.yul\":24816:24822   */\n      dup3\n        /* \"#utility.yul\":24812:24826   */\n      add\n        /* \"#utility.yul\":24805:24863   */\n      mstore\n        /* \"#utility.yul\":24897:24903   */\n      0x74696e6700000000000000000000000000000000000000000000000000000000\n        /* \"#utility.yul\":24892:24894   */\n      0x20\n        /* \"#utility.yul\":24884:24890   */\n      dup3\n        /* \"#utility.yul\":24880:24895   */\n      add\n        /* \"#utility.yul\":24873:24904   */\n      mstore\n        /* \"#utility.yul\":24688:24911   */\n      pop\n      jump\t// out\n        /* \"#utility.yul\":24917:25283   */\n    tag_379:\n        /* \"#utility.yul\":25059:25062   */\n      0x00\n        /* \"#utility.yul\":25080:25147   */\n      tag_639\n        /* \"#utility.yul\":25144:25146   */\n      0x24\n        /* \"#utility.yul\":25139:25142   */\n      dup4\n        /* \"#utility.yul\":25080:25147   */\n      tag_339\n      jump\t// in\n    tag_639:\n        /* \"#utility.yul\":25073:25147   */\n      swap2\n      pop\n        /* \"#utility.yul\":25156:25249   */\n      tag_640\n        /* \"#utility.yul\":25245:25248   */\n      dup3\n        /* \"#utility.yul\":25156:25249   */\n      tag_378\n      jump\t// in\n    tag_640:\n        /* \"#utility.yul\":25274:25276   */\n      0x40\n        /* \"#utility.yul\":25269:25272   */\n      dup3\n        /* \"#utility.yul\":25265:25277   */\n      add\n        /* \"#utility.yul\":25258:25277   */\n      swap1\n      pop\n        /* \"#utility.yul\":24917:25283   */\n      swap2\n      swap1\n      pop\n      jump\t// out\n        /* \"#utility.yul\":25289:25708   */\n    tag_148:\n        /* \"#utility.yul\":25455:25459   */\n      0x00\n        /* \"#utility.yul\":25493:25495   */\n      0x20\n        /* \"#utility.yul\":25482:25491   */\n      dup3\n        /* \"#utility.yul\":25478:25496   */\n      add\n        /* \"#utility.yul\":25470:25496   */\n      swap1\n      pop\n        /* \"#utility.yul\":25542:25551   */\n      dup2\n        /* \"#utility.yul\":25536:25540   */\n      dup2\n        /* \"#utility.yul\":25532:25552   */\n      sub\n        /* \"#utility.yul\":25528:25529   */\n      0x00\n        /* \"#utility.yul\":25517:25526   */\n      dup4\n        /* \"#utility.yul\":25513:25530   */\n      add\n        /* \"#utility.yul\":25506:25553   */\n      mstore\n        /* \"#utility.yul\":25570:25701   */\n      tag_642\n        /* \"#utility.yul\":25696:25700   */\n      dup2\n        /* \"#utility.yul\":25570:25701   */\n      tag_379\n      jump\t// in\n    tag_642:\n        /* \"#utility.yul\":25562:25701   */\n      swap1\n      pop\n        /* \"#utility.yul\":25289:25708   */\n      swap2\n      swap1\n      pop\n      jump\t// out\n        /* \"#utility.yul\":25714:25888   */\n    tag_380:\n        /* \"#utility.yul\":25854:25880   */\n      0x5472616e7366657220746f207a65726f20616464726573730000000000000000\n        /* \"#utility.yul\":25850:25851   */\n      0x00\n        /* \"#utility.yul\":25842:25848   */\n      dup3\n        /* \"#utility.yul\":25838:25852   */\n      add\n        /* \"#utility.yul\":25831:25881   */\n      mstore\n        /* \"#utility.yul\":25714:25888   */\n      pop\n      jump\t// out\n        /* \"#utility.yul\":25894:26260   */\n    tag_381:\n        /* \"#utility.yul\":26036:26039   */\n      0x00\n        /* \"#utility.yul\":26057:26124   */\n      tag_645\n        /* \"#utility.yul\":26121:26123   */\n      0x18\n        /* \"#utility.yul\":26116:26119   */\n      dup4\n        /* \"#utility.yul\":26057:26124   */\n      tag_339\n      jump\t// in\n    tag_645:\n        /* \"#utility.yul\":26050:26124   */\n      swap2\n      pop\n        /* \"#utility.yul\":26133:26226   */\n      tag_646\n        /* \"#utility.yul\":26222:26225   */\n      dup3\n        /* \"#utility.yul\":26133:26226   */\n      tag_380\n      jump\t// in\n    tag_646:\n        /* \"#utility.yul\":26251:26253   */\n      0x20\n        /* \"#utility.yul\":26246:26249   */\n      dup3\n        /* \"#utility.yul\":26242:26254   */\n      add\n        /* \"#utility.yul\":26235:26254   */\n      swap1\n      pop\n        /* \"#utility.yul\":25894:26260   */\n      swap2\n      swap1\n      pop\n      jump\t// out\n        /* \"#utility.yul\":26266:26685   */\n    tag_157:\n        /* \"#utility.yul\":26432:26436   */\n      0x00\n        /* \"#utility.yul\":26470:26472   */\n      0x20\n        /* \"#utility.yul\":26459:26468   */\n      dup3\n        /* \"#utility.yul\":26455:26473   */\n      add\n        /* \"#utility.yul\":26447:26473   */\n      swap1\n      pop\n        /* \"#utility.yul\":26519:26528   */\n      dup2\n        /* \"#utility.yul\":26513:26517   */\n      dup2\n        /* \"#utility.yul\":26509:26529   */\n      sub\n        /* \"#utility.yul\":26505:26506   */\n      0x00\n        /* \"#utility.yul\":26494:26503   */\n      dup4\n        /* \"#utility.yul\":26490:26507   */\n      add\n        /* \"#utility.yul\":26483:26530   */\n      mstore\n        /* \"#utility.yul\":26547:26678   */\n      tag_648\n        /* \"#utility.yul\":26673:26677   */\n      dup2\n        /* \"#utility.yul\":26547:26678   */\n      tag_381\n      jump\t// in\n    tag_648:\n        /* \"#utility.yul\":26539:26678   */\n      swap1\n      pop\n        /* \"#utility.yul\":26266:26685   */\n      swap2\n      swap1\n      pop\n      jump\t// out\n        /* \"#utility.yul\":26691:26861   */\n    tag_382:\n        /* \"#utility.yul\":26831:26853   */\n      0x496e73756666696369656e742062616c616e6365000000000000000000000000\n        /* \"#utility.yul\":26827:26828   */\n      0x00\n        /* \"#utility.yul\":26819:26825   */\n      dup3\n        /* \"#utility.yul\":26815:26829   */\n      add\n        /* \"#utility.yul\":26808:26854   */\n      mstore\n        /* \"#utility.yul\":26691:26861   */\n      pop\n      jump\t// out\n        /* \"#utility.yul\":26867:27233   */\n    tag_383:\n        /* \"#utility.yul\":27009:27012   */\n      0x00\n        /* \"#utility.yul\":27030:27097   */\n      tag_651\n        /* \"#utility.yul\":27094:27096   */\n      0x14\n        /* \"#utility.yul\":27089:27092   */\n      dup4\n        /* \"#utility.yul\":27030:27097   */\n      tag_339\n      jump\t// in\n    tag_651:\n        /* \"#utility.yul\":27023:27097   */\n      swap2\n      pop\n        /* \"#utility.yul\":27106:27199   */\n      tag_652\n        /* \"#utility.yul\":27195:27198   */\n      dup3\n        /* \"#utility.yul\":27106:27199   */\n      tag_382\n      jump\t// in\n    tag_652:\n        /* \"#utility.yul\":27224:27226   */\n      0x20\n        /* \"#utility.yul\":27219:27222   */\n      dup3\n        /* \"#utility.yul\":27215:27227   */\n      add\n        /* \"#utility.yul\":27208:27227   */\n      swap1\n      pop\n        /* \"#utility.yul\":26867:27233   */\n      swap2\n      swap1\n      pop\n      jump\t// out\n        /* \"#utility.yul\":27239:27658   */\n    tag_160:\n        /* \"#utility.yul\":27405:27409   */\n      0x00\n        /* \"#utility.yul\":27443:27445   */\n      0x20\n        /* \"#utility.yul\":27432:27441   */\n      dup3\n        /* \"#utility.yul\":27428:27446   */\n      add\n        /* \"#utility.yul\":27420:27446   */\n      swap1\n      pop\n        /* \"#utility.yul\":27492:27501   */\n      dup2\n        /* \"#utility.yul\":27486:27490   */\n      dup2\n        /* \"#utility.yul\":27482:27502   */\n      sub\n        /* \"#utility.yul\":27478:27479   */\n      0x00\n        /* \"#utility.yul\":27467:27476   */\n      dup4\n        /* \"#utility.yul\":27463:27480   */\n      add\n        /* \"#utility.yul\":27456:27503   */\n      mstore\n        /* \"#utility.yul\":27520:27651   */\n      tag_654\n        /* \"#utility.yul\":27646:27650   */\n      dup2\n        /* \"#utility.yul\":27520:27651   */\n      tag_383\n      jump\t// in\n    tag_654:\n        /* \"#utility.yul\":27512:27651   */\n      swap1\n      pop\n        /* \"#utility.yul\":27239:27658   */\n      swap2\n      swap1\n      pop\n      jump\t// out\n        /* \"#utility.yul\":27664:27836   */\n    tag_384:\n        /* \"#utility.yul\":27804:27828   */\n      0x496e73756666696369656e7420616c6c6f77616e636500000000000000000000\n        /* \"#utility.yul\":27800:27801   */\n      0x00\n        /* \"#utility.yul\":27792:27798   */\n      dup3\n        /* \"#utility.yul\":27788:27802   */\n      add\n        /* \"#utility.yul\":27781:27829   */\n      mstore\n        /* \"#utility.yul\":27664:27836   */\n      pop\n      jump\t// out\n        /* \"#utility.yul\":27842:28208   */\n    tag_385:\n        /* \"#utility.yul\":27984:27987   */\n      0x00\n        /* \"#utility.yul\":28005:28072   */\n      tag_657\n        /* \"#utility.yul\":28069:28071   */\n      0x16\n        /* \"#utility.yul\":28064:28067   */\n      dup4\n        /* \"#utility.yul\":28005:28072   */\n      tag_339\n      jump\t// in\n    tag_657:\n        /* \"#utility.yul\":27998:28072   */\n      swap2\n      pop\n        /* \"#utility.yul\":28081:28174   */\n      tag_658\n        /* \"#utility.yul\":28170:28173   */\n      dup3\n        /* \"#utility.yul\":28081:28174   */\n      tag_384\n      jump\t// in\n    tag_658:\n        /* \"#utility.yul\":28199:28201   */\n      0x20\n        /* \"#utility.yul\":28194:28197   */\n      dup3\n        /* \"#utility.yul\":28190:28202   */\n      add\n        /* \"#utility.yul\":28183:28202   */\n      swap1\n      pop\n        /* \"#utility.yul\":27842:28208   */\n      swap2\n      swap1\n      pop\n      jump\t// out\n        /* \"#utility.yul\":28214:28633   */\n    tag_163:\n        /* \"#utility.yul\":28380:28384   */\n      0x00\n        /* \"#utility.yul\":28418:28420   */\n      0x20\n        /* \"#utility.yul\":28407:28416   */\n      dup3\n        /* \"#utility.yul\":28403:28421   */\n      add\n        /* \"#utility.yul\":28395:28421   */\n      swap1\n      pop\n        /* \"#utility.yul\":28467:28476   */\n      dup2\n        /* \"#utility.yul\":28461:28465   */\n      dup2\n        /* \"#utility.yul\":28457:28477   */\n      sub\n        /* \"#utility.yul\":28453:28454   */\n      0x00\n        /* \"#utility.yul\":28442:28451   */\n      dup4\n        /* \"#utility.yul\":28438:28455   */\n      add\n        /* \"#utility.yul\":28431:28478   */\n      mstore\n        /* \"#utility.yul\":28495:28626   */\n      tag_660\n        /* \"#utility.yul\":28621:28625   */\n      dup2\n        /* \"#utility.yul\":28495:28626   */\n      tag_385\n      jump\t// in\n    tag_660:\n        /* \"#utility.yul\":28487:28626   */\n      swap1\n      pop\n        /* \"#utility.yul\":28214:28633   */\n      swap2\n      swap1\n      pop\n      jump\t// out\n        /* \"#utility.yul\":28639:28812   */\n    tag_386:\n        /* \"#utility.yul\":28779:28804   */\n      0x417070726f766520746f207a65726f2061646472657373000000000000000000\n        /* \"#utility.yul\":28775:28776   */\n      0x00\n        /* \"#utility.yul\":28767:28773   */\n      dup3\n        /* \"#utility.yul\":28763:28777   */\n      add\n        /* \"#utility.yul\":28756:28805   */\n      mstore\n        /* \"#utility.yul\":28639:28812   */\n      pop\n      jump\t// out\n        /* \"#utility.yul\":28818:29184   */\n    tag_387:\n        /* \"#utility.yul\":28960:28963   */\n      0x00\n        /* \"#utility.yul\":28981:29048   */\n      tag_663\n        /* \"#utility.yul\":29045:29047   */\n      0x17\n        /* \"#utility.yul\":29040:29043   */\n      dup4\n        /* \"#utility.yul\":28981:29048   */\n      tag_339\n      jump\t// in\n    tag_663:\n        /* \"#utility.yul\":28974:29048   */\n      swap2\n      pop\n        /* \"#utility.yul\":29057:29150   */\n      tag_664\n        /* \"#utility.yul\":29146:29149   */\n      dup3\n        /* \"#utility.yul\":29057:29150   */\n      tag_386\n      jump\t// in\n    tag_664:\n        /* \"#utility.yul\":29175:29177   */\n      0x20\n        /* \"#utility.yul\":29170:29173   */\n      dup3\n        /* \"#utility.yul\":29166:29178   */\n      add\n        /* \"#utility.yul\":29159:29178   */\n      swap1\n      pop\n        /* \"#utility.yul\":28818:29184   */\n      swap2\n      swap1\n      pop\n      jump\t// out\n        /* \"#utility.yul\":29190:29609   */\n    tag_226:\n        /* \"#utility.yul\":29356:29360   */\n      0x00\n        /* \"#utility.yul\":29394:29396   */\n      0x20\n        /* \"#utility.yul\":29383:29392   */\n      dup3\n        /* \"#utility.yul\":29379:29397   */\n      add\n        /* \"#utility.yul\":29371:29397   */\n      swap1\n      pop\n        /* \"#utility.yul\":29443:29452   */\n      dup2\n        /* \"#utility.yul\":29437:29441   */\n      dup2\n        /* \"#utility.yul\":29433:29453   */\n      sub\n        /* \"#utility.yul\":29429:29430   */\n      0x00\n        /* \"#utility.yul\":29418:29427   */\n      dup4\n        /* \"#utility.yul\":29414:29431   */\n      add\n        /* \"#utility.yul\":29407:29454   */\n      mstore\n        /* \"#utility.yul\":29471:29602   */\n      tag_666\n        /* \"#utility.yul\":29597:29601   */\n      dup2\n        /* \"#utility.yul\":29471:29602   */\n      tag_387\n      jump\t// in\n    tag_666:\n        /* \"#utility.yul\":29463:29602   */\n      swap1\n      pop\n        /* \"#utility.yul\":29190:29609   */\n      swap2\n      swap1\n      pop\n      jump\t// out\n        /* \"#utility.yul\":29615:29780   */\n    tag_388:\n        /* \"#utility.yul\":29755:29772   */\n      0x496e76616c696420616464726573730000000000000000000000000000000000\n        /* \"#utility.yul\":29751:29752   */\n      0x00\n        /* \"#utility.yul\":29743:29749   */\n      dup3\n        /* \"#utility.yul\":29739:29753   */\n      add\n        /* \"#utility.yul\":29732:29773   */\n      mstore\n        /* \"#utility.yul\":29615:29780   */\n      pop\n      jump\t// out\n        /* \"#utility.yul\":29786:30152   */\n    tag_389:\n        /* \"#utility.yul\":29928:29931   */\n      0x00\n        /* \"#utility.yul\":29949:30016   */\n      tag_669\n        /* \"#utility.yul\":30013:30015   */\n      0x0f\n        /* \"#utility.yul\":30008:30011   */\n      dup4\n        /* \"#utility.yul\":29949:30016   */\n      tag_339\n      jump\t// in\n    tag_669:\n        /* \"#utility.yul\":29942:30016   */\n      swap2\n      pop\n        /* \"#utility.yul\":30025:30118   */\n      tag_670\n        /* \"#utility.yul\":30114:30117   */\n      dup3\n        /* \"#utility.yul\":30025:30118   */\n      tag_388\n      jump\t// in\n    tag_670:\n        /* \"#utility.yul\":30143:30145   */\n      0x20\n        /* \"#utility.yul\":30138:30141   */\n      dup3\n        /* \"#utility.yul\":30134:30146   */\n      add\n        /* \"#utility.yul\":30127:30146   */\n      swap1\n      pop\n        /* \"#utility.yul\":29786:30152   */\n      swap2\n      swap1\n      pop\n      jump\t// out\n        /* \"#utility.yul\":30158:30577   */\n    tag_234:\n        /* \"#utility.yul\":30324:30328   */\n      0x00\n        /* \"#utility.yul\":30362:30364   */\n      0x20\n        /* \"#utility.yul\":30351:30360   */\n      dup3\n        /* \"#utility.yul\":30347:30365   */\n      add\n        /* \"#utility.yul\":30339:30365   */\n      swap1\n      pop\n        /* \"#utility.yul\":30411:30420   */\n      dup2\n        /* \"#utility.yul\":30405:30409   */\n      dup2\n        /* \"#utility.yul\":30401:30421   */\n      sub\n        /* \"#utility.yul\":30397:30398   */\n      0x00\n        /* \"#utility.yul\":30386:30395   */\n      dup4\n        /* \"#utility.yul\":30382:30399   */\n      add\n        /* \"#utility.yul\":30375:30422   */\n      mstore\n        /* \"#utility.yul\":30439:30570   */\n      tag_672\n        /* \"#utility.yul\":30565:30569   */\n      dup2\n        /* \"#utility.yul\":30439:30570   */\n      tag_389\n      jump\t// in\n    tag_672:\n        /* \"#utility.yul\":30431:30570   */\n      swap1\n      pop\n        /* \"#utility.yul\":30158:30577   */\n      swap2\n      swap1\n      pop\n      jump\t// out\n        /* \"#utility.yul\":30583:30749   */\n    tag_390:\n        /* \"#utility.yul\":30723:30741   */\n      0x5061757361626c653a2070617573656400000000000000000000000000000000\n        /* \"#utility.yul\":30719:30720   */\n      0x00\n        /* \"#utility.yul\":30711:30717   */\n      dup3\n        /* \"#utility.yul\":30707:30721   */\n      add\n        /* \"#utility.yul\":30700:30742   */\n      mstore\n        /* \"#utility.yul\":30583:30749   */\n      pop\n      jump\t// out\n        /* \"#utility.yul\":30755:31121   */\n    tag_391:\n        /* \"#utility.yul\":30897:30900   */\n      0x00\n        /* \"#utility.yul\":30918:30985   */\n      tag_675\n        /* \"#utility.yul\":30982:30984   */\n      0x10\n        /* \"#utility.yul\":30977:30980   */\n      dup4\n        /* \"#utility.yul\":30918:30985   */\n      tag_339\n      jump\t// in\n    tag_675:\n        /* \"#utility.yul\":30911:30985   */\n      swap2\n      pop\n        /* \"#utility.yul\":30994:31087   */\n      tag_676\n        /* \"#utility.yul\":31083:31086   */\n      dup3\n        /* \"#utility.yul\":30994:31087   */\n      tag_390\n      jump\t// in\n    tag_676:\n        /* \"#utility.yul\":31112:31114   */\n      0x20\n        /* \"#utility.yul\":31107:31110   */\n      dup3\n        /* \"#utility.yul\":31103:31115   */\n      add\n        /* \"#utility.yul\":31096:31115   */\n      swap1\n      pop\n        /* \"#utility.yul\":30755:31121   */\n      swap2\n      swap1\n      pop\n      jump\t// out\n        /* \"#utility.yul\":31127:31546   */\n    tag_260:\n        /* \"#utility.yul\":31293:31297   */\n      0x00\n        /* \"#utility.yul\":31331:31333   */\n      0x20\n        /* \"#utility.yul\":31320:31329   */\n      dup3\n        /* \"#utility.yul\":31316:31334   */\n      add\n        /* \"#utility.yul\":31308:31334   */\n      swap1\n      pop\n        /* \"#utility.yul\":31380:31389   */\n      dup2\n        /* \"#utility.yul\":31374:31378   */\n      dup2\n        /* \"#utility.yul\":31370:31390   */\n      sub\n        /* \"#utility.yul\":31366:31367   */\n      0x00\n        /* \"#utility.yul\":31355:31364   */\n      dup4\n        /* \"#utility.yul\":31351:31368   */\n      add\n        /* \"#utility.yul\":31344:31391   */\n      mstore\n        /* \"#utility.yul\":31408:31539   */\n      tag_678\n        /* \"#utility.yul\":31534:31538   */\n      dup2\n        /* \"#utility.yul\":31408:31539   */\n      tag_391\n      jump\t// in\n    tag_678:\n        /* \"#utility.yul\":31400:31539   */\n      swap1\n      pop\n        /* \"#utility.yul\":31127:31546   */\n      swap2\n      swap1\n      pop\n      jump\t// out\n        /* \"#utility.yul\":31552:31785   */\n    tag_266:\n        /* \"#utility.yul\":31591:31594   */\n      0x00\n        /* \"#utility.yul\":31614:31638   */\n      tag_680\n        /* \"#utility.yul\":31632:31637   */\n      dup3\n        /* \"#utility.yul\":31614:31638   */\n      tag_332\n      jump\t// in\n    tag_680:\n        /* \"#utility.yul\":31605:31638   */\n      swap2\n      pop\n        /* \"#utility.yul\":31660:31726   */\n      0xffffffffffffffffffffffffffffffffffffffffffffffffffffffffffffffff\n        /* \"#utility.yul\":31653:31658   */\n      dup3\n        /* \"#utility.yul\":31650:31727   */\n      sub\n        /* \"#utility.yul\":31647:31750   */\n      tag_681\n      jumpi\n        /* \"#utility.yul\":31730:31748   */\n      tag_682\n      tag_348\n      jump\t// in\n    tag_682:\n        /* \"#utility.yul\":31647:31750   */\n    tag_681:\n        /* \"#utility.yul\":31777:31778   */\n      0x01\n        /* \"#utility.yul\":31770:31775   */\n      dup3\n        /* \"#utility.yul\":31766:31779   */\n      add\n        /* \"#utility.yul\":31759:31779   */\n      swap1\n      pop\n        /* \"#utility.yul\":31552:31785   */\n      swap2\n      swap1\n      pop\n      jump\t// out\n        /* \"#utility.yul\":31791:31967   */\n    tag_276:\n        /* \"#utility.yul\":31823:31824   */\n      0x00\n        /* \"#utility.yul\":31840:31860   */\n      tag_684\n        /* \"#utility.yul\":31858:31859   */\n      dup3\n        /* \"#utility.yul\":31840:31860   */\n      tag_332\n      jump\t// in\n    tag_684:\n        /* \"#utility.yul\":31835:31860   */\n      swap2\n      pop\n        /* \"#utility.yul\":31874:31894   */\n      tag_685\n        /* \"#utility.yul\":31892:31893   */\n      dup4\n        /* \"#utility.yul\":31874:31894   */\n      tag_332\n      jump\t// in\n    tag_685:\n        /* \"#utility.yul\":31869:31894   */\n      swap3\n      pop\n        /* \"#utility.yul\":31913:31914   */\n      dup3\n        /* \"#utility.yul\":31903:31938   */\n      tag_686\n      jumpi\n        /* \"#utility.yul\":31918:31936   */\n      tag_687\n      tag_375\n      jump\t// in\n    tag_687:\n        /* \"#utility.yul\":31903:31938   */\n    tag_686:\n        /* \"#utility.yul\":31959:31960   */\n      dup3\n        /* \"#utility.yul\":31956:31957   */\n      dup3\n        /* \"#utility.yul\":31952:31961   */\n      mod\n        /* \"#utility.yul\":31947:31961   */\n      swap1\n      pop\n        /* \"#utility.yul\":31791:31967   */\n      swap3\n      swap2\n      pop\n      pop\n      jump\t// out\n        /* \"#utility.yul\":31973:32153   */\n    tag_280:\n        /* \"#utility.yul\":32021:32098   */\n      0x4e487b7100000000000000000000000000000000000000000000000000000000\n        /* \"#utility.yul\":32018:32019   */\n      0x00\n        /* \"#utility.yul\":32011:32099   */\n      mstore\n        /* \"#utility.yul\":32118:32122   */\n      0x32\n        /* \"#utility.yul\":32115:32116   */\n      0x04\n        /* \"#utility.yul\":32108:32123   */\n      mstore\n        /* \"#utility.yul\":32142:32146   */\n      0x24\n        /* \"#utility.yul\":32139:32140   */\n      0x00\n        /* \"#utility.yul\":32132:32147   */\n      revert\n        /* \"#utility.yul\":32159:32329   */\n    tag_392:\n        /* \"#utility.yul\":32299:32321   */\n      0x4d696e7420746f207a65726f2061646472657373000000000000000000000000\n        /* \"#utility.yul\":32295:32296   */\n      0x00\n        /* \"#utility.yul\":32287:32293   */\n      dup3\n        /* \"#utility.yul\":32283:32297   */\n      add\n        /* \"#utility.yul\":32276:32322   */\n      mstore\n        /* \"#utility.yul\":32159:32329   */\n      pop\n      jump\t// out\n        /* \"#utility.yul\":32335:32701   */\n    tag_393:\n        /* \"#utility.yul\":32477:32480   */\n      0x00\n        /* \"#utility.yul\":32498:32565   */\n      tag_691\n        /* \"#utility.yul\":32562:32564   */\n      0x14\n        /* \"#utility.yul\":32557:32560   */\n      dup4\n        /* \"#utility.yul\":32498:32565   */\n      tag_339\n      jump\t// in\n    tag_691:\n        /* \"#utility.yul\":32491:32565   */\n      swap2\n      pop\n        /* \"#utility.yul\":32574:32667   */\n      tag_692\n        /* \"#utility.yul\":32663:32666   */\n      dup3\n        /* \"#utility.yul\":32574:32667   */\n      tag_392\n      jump\t// in\n    tag_692:\n        /* \"#utility.yul\":32692:32694   */\n      0x20\n        /* \"#utility.yul\":32687:32690   */\n      dup3\n        /* \"#utility.yul\":32683:32695   */\n      add\n        /* \"#utility.yul\":32676:32695   */\n      swap1\n      pop\n        /* \"#utility.yul\":32335:32701   */\n      swap2\n      swap1\n      pop\n      jump\t// out\n        /* \"#utility.yul\":32707:33126   */\n    tag_285:\n        /* \"#utility.yul\":32873:32877   */\n      0x00\n        /* \"#utility.yul\":32911:32913   */\n      0x20\n        /* \"#utility.yul\":32900:32909   */\n      dup3\n        /* \"#utility.yul\":32896:32914   */\n      add\n        /* \"#utility.yul\":32888:32914   */\n      swap1\n      pop\n        /* \"#utility.yul\":32960:32969   */\n      dup2\n        /* \"#utility.yul\":32954:32958   */\n      dup2\n        /* \"#utility.yul\":32950:32970   */\n      sub\n        /* \"#utility.yul\":32946:32947   */\n      0x00\n        /* \"#utility.yul\":32935:32944   */\n      dup4\n        /* \"#utility.yul\":32931:32948   */\n      add\n        /* \"#utility.yul\":32924:32971   */\n      mstore\n        /* \"#utility.yul\":32988:33119   */\n      tag_694\n        /* \"#utility.yul\":33114:33118   */\n      dup2\n        /* \"#utility.yul\":32988:33119   */\n      tag_393\n      jump\t// in\n    tag_694:\n        /* \"#utility.yul\":32980:33119   */\n      swap1\n      pop\n        /* \"#utility.yul\":32707:33126   */\n      swap2\n      swap1\n      pop\n      jump\t// out\n        /* \"#utility.yul\":33132:33313   */\n    tag_394:\n        /* \"#utility.yul\":33272:33305   */\n      0x5265656e7472616e637947756172643a207265656e7472616e742063616c6c00\n        /* \"#utility.yul\":33268:33269   */\n      0x00\n        /* \"#utility.yul\":33260:33266   */\n      dup3\n        /* \"#utility.yul\":33256:33270   */\n      add\n        /* \"#utility.yul\":33249:33306   */\n      mstore\n        /* \"#utility.yul\":33132:33313   */\n      pop\n      jump\t// out\n        /* \"#utility.yul\":33319:33685   */\n    tag_395:\n        /* \"#utility.yul\":33461:33464   */\n      0x00\n        /* \"#utility.yul\":33482:33549   */\n      tag_697\n        /* \"#utility.yul\":33546:33548   */\n      0x1f\n        /* \"#utility.yul\":33541:33544   */\n      dup4\n        /* \"#utility.yul\":33482:33549   */\n      tag_339\n      jump\t// in\n    tag_697:\n        /* \"#utility.yul\":33475:33549   */\n      swap2\n      pop\n        /* \"#utility.yul\":33558:33651   */\n      tag_698\n        /* \"#utility.yul\":33647:33650   */\n      dup3\n        /* \"#utility.yul\":33558:33651   */\n      tag_394\n      jump\t// in\n    tag_698:\n        /* \"#utility.yul\":33676:33678   */\n      0x20\n        /* \"#utility.yul\":33671:33674   */\n      dup3\n        /* \"#utility.yul\":33667:33679   */\n      add\n        /* \"#utility.yul\":33660:33679   */\n      swap1\n      pop\n        /* \"#utility.yul\":33319:33685   */\n      swap2\n      swap1\n      pop\n      jump\t// out\n        /* \"#utility.yul\":33691:34110   */\n    tag_292:\n        /* \"#utility.yul\":33857:33861   */\n      0x00\n        /* \"#utility.yul\":33895:33897   */\n      0x20\n        /* \"#utility.yul\":33884:33893   */\n      dup3\n        /* \"#utility.yul\":33880:33898   */\n      add\n        /* \"#utility.yul\":33872:33898   */\n      swap1\n      pop\n        /* \"#utility.yul\":33944:33953   */\n      dup2\n        /* \"#utility.yul\":33938:33942   */\n      dup2\n        /* \"#utility.yul\":33934:33954   */\n      sub\n        /* \"#utility.yul\":33930:33931   */\n      0x00\n        /* \"#utility.yul\":33919:33928   */\n      dup4\n        /* \"#utility.yul\":33915:33932   */\n      add\n        /* \"#utility.yul\":33908:33955   */\n      mstore\n        /* \"#utility.yul\":33972:34103   */\n      tag_700\n        /* \"#utility.yul\":34098:34102   */\n      dup2\n        /* \"#utility.yul\":33972:34103   */\n      tag_395\n      jump\t// in\n    tag_700:\n        /* \"#utility.yul\":33964:34103   */\n      swap1\n      pop\n        /* \"#utility.yul\":33691:34110   */\n      swap2\n      swap1\n      pop\n      jump\t// out\n        /* \"#utility.yul\":34116:34286   */\n    tag_396:\n        /* \"#utility.yul\":34256:34278   */\n      0x5061757361626c653a206e6f7420706175736564000000000000000000000000\n        /* \"#utility.yul\":34252:34253   */\n      0x00\n        /* \"#utility.yul\":34244:34250   */\n      dup3\n        /* \"#utility.yul\":34240:34254   */\n      add\n        /* \"#utility.yul\":34233:34279   */\n      mstore\n        /* \"#utility.yul\":34116:34286   */\n      pop\n      jump\t// out\n        /* \"#utility.yul\":34292:34658   */\n    tag_397:\n        /* \"#utility.yul\":34434:34437   */\n      0x00\n        /* \"#utility.yul\":34455:34522   */\n      tag_703\n        /* \"#utility.yul\":34519:34521   */\n      0x14\n        /* \"#utility.yul\":34514:34517   */\n      dup4\n        /* \"#utility.yul\":34455:34522   */\n      tag_339\n      jump\t// in\n    tag_703:\n        /* \"#utility.yul\":34448:34522   */\n      swap2\n      pop\n        /* \"#utility.yul\":34531:34624   */\n      tag_704\n        /* \"#utility.yul\":34620:34623   */\n      dup3\n        /* \"#utility.yul\":34531:34624   */\n      tag_396\n      jump\t// in\n    tag_704:\n        /* \"#utility.yul\":34649:34651   */\n      0x20\n        /* \"#utility.yul\":34644:34647   */\n      dup3\n        /* \"#utility.yul\":34640:34652   */\n      add\n        /* \"#utility.yul\":34633:34652   */\n      swap1\n      pop\n        /* \"#utility.yul\":34292:34658   */\n      swap2\n      swap1\n      pop\n      jump\t// out\n        /* \"#utility.yul\":34664:35083   */\n    tag_324:\n        /* \"#utility.yul\":34830:34834   */\n      0x00\n        /* \"#utility.yul\":34868:34870   */\n      0x20\n        /* \"#utility.yul\":34857:34866   */\n      dup3\n        /* \"#utility.yul\":34853:34871   */\n      add\n        /* \"#utility.yul\":34845:34871   */\n      swap1\n      pop\n        /* \"#utility.yul\":34917:34926   */\n      dup2\n        /* \"#utility.yul\":34911:34915   */\n      dup2\n        /* \"#utility.yul\":34907:34927   */\n      sub\n        /* \"#utility.yul\":34903:34904   */\n      0x00\n        /* \"#utility.yul\":34892:34901   */\n      dup4\n        /* \"#utility.yul\":34888:34905   */\n      add\n        /* \"#utility.yul\":34881:34928   */\n      mstore\n        /* \"#utility.yul\":34945:35076   */\n      tag_706\n        /* \"#utility.yul\":35071:35075   */\n      dup2\n        /* \"#utility.yul\":34945:35076   */\n      tag_397\n      jump\t// in\n    tag_706:\n        /* \"#utility.yul\":34937:35076   */\n      swap1\n      pop\n        /* \"#utility.yul\":34664:35083   */\n      swap2\n      swap1\n      pop\n      jump\t// out\n\n    auxdata: 0xa2646970667358221220e2bdc962aa6fe04e1ee0cfe65da528eb5bc3a5ae44e59749ad3caf96869e900764736f6c63430008140033\n}\n",
				"bytecode": {
					"linkReferences": {},
					"object": "608060405234801562000010575f80fd5b5060405162002fd238038062002fd28339818101604052810190620000369190620002fe565b805f73ffffffffffffffffffffffffffffffffffffffff168173ffffffffffffffffffffffffffffffffffffffff1603620000aa575f6040517f1e4fbdf7000000000000000000000000000000000000000000000000000000008152600401620000a191906200033f565b60405180910390fd5b620000bb81620000f360201b60201c565b505f8060146101000a81548160ff02191690831515021790555060018081905550620000ec620001b460201b60201c565b50620003d8565b5f805f9054906101000a900473ffffffffffffffffffffffffffffffffffffffff169050815f806101000a81548173ffffffffffffffffffffffffffffffffffffffff021916908373ffffffffffffffffffffffffffffffffffffffff1602179055508173ffffffffffffffffffffffffffffffffffffffff168173ffffffffffffffffffffffffffffffffffffffff167f8be0079c531659141344cd1fd0a4f28419497f9722a3daafe3b4186f6b6457e060405160405180910390a35050565b620001c46200022860201b60201c565b60015f60146101000a81548160ff0219169083151502179055507f62e78cea01bee320cd4e420270b5ea74000d11b0c9f74754ebdbfc544b05a2586200020f6200027d60201b60201c565b6040516200021e91906200033f565b60405180910390a1565b620002386200028460201b60201c565b156200027b576040517f08c379a00000000000000000000000000000000000000000000000000000000081526004016200027290620003b8565b60405180910390fd5b565b5f33905090565b5f8060149054906101000a900460ff16905090565b5f80fd5b5f73ffffffffffffffffffffffffffffffffffffffff82169050919050565b5f620002c8826200029d565b9050919050565b620002da81620002bc565b8114620002e5575f80fd5b50565b5f81519050620002f881620002cf565b92915050565b5f6020828403121562000316576200031562000299565b5b5f6200032584828501620002e8565b91505092915050565b6200033981620002bc565b82525050565b5f602082019050620003545f8301846200032e565b92915050565b5f82825260208201905092915050565b7f5061757361626c653a20706175736564000000000000000000000000000000005f82015250565b5f620003a06010836200035a565b9150620003ad826200036a565b602082019050919050565b5f6020820190508181035f830152620003d18162000392565b9050919050565b612bec80620003e65f395ff3fe608060405234801561000f575f80fd5b5060043610610113575f3560e01c80635c975abb116100a05780638cb0a5111161006f5780638cb0a511146102d45780638da5cb5b14610304578063ad324cce14610322578063f2fde38b1461033e578063f8548e361461035a57610113565b80635c975abb14610284578063715018a6146102a25780638456cb59146102ac57806385e3f997146102b657610113565b8063277b9efe116100e7578063277b9efe146101c65780633f4ba83a146101e45780635258ff13146101ee57806357a858fc14610221578063598af9e71461025457610113565b8062fdd58e1461011757806317ba1245146101475780631c0f12b6146101635780631d92d3b914610193575b5f80fd5b610131600480360381019061012c9190611b09565b61038a565b60405161013e9190611b56565b60405180910390f35b610161600480360381019061015c9190611b6f565b6103aa565b005b61017d60048036038101906101789190611c20565b6106f4565b60405161018a9190611c9e565b60405180910390f35b6101ad60048036038101906101a89190611cb7565b6109eb565b6040516101bd9493929190611d6c565b60405180910390f35b6101ce610b45565b6040516101db9190611dcc565b60405180910390f35b6101ec610b6a565b005b61020860048036038101906102039190611de5565b610b7c565b6040516102189493929190611e35565b60405180910390f35b61023b60048036038101906102369190611cb7565b610c07565b60405161024b9493929190611d6c565b60405180910390f35b61026e60048036038101906102699190611e78565b610d4b565b60405161027b9190611b56565b60405180910390f35b61028c610d76565b6040516102999190611c9e565b60405180910390f35b6102aa610d8b565b005b6102b4610d9e565b005b6102be610db0565b6040516102cb9190611b56565b60405180910390f35b6102ee60048036038101906102e99190611ec8565b610db7565b6040516102fb9190611c9e565b60405180910390f35b61030c610f8d565b6040516103199190611dcc565b60405180910390f35b61033c60048036038101906103379190611f18565b610fb4565b005b61035860048036038101906103539190611f18565b611075565b005b610374600480360381019061036f9190611ec8565b6110f9565b6040516103819190611c9e565b60405180910390f35b6003602052815f5260405f20602052805f5260405f205f91509150505481565b60055f9054906101000a900473ffffffffffffffffffffffffffffffffffffffff1673ffffffffffffffffffffffffffffffffffffffff163373ffffffffffffffffffffffffffffffffffffffff1614610439576040517f08c379a000000000000000000000000000000000000000000000000000000000815260040161043090611f8d565b60405180910390fd5b610441611288565b60025f8981526020019081526020015f206003015f9054906101000a900460ff16156104a2576040517f08c379a000000000000000000000000000000000000000000000000000000000815260040161049990611ff5565b60405180910390fd5b60648183856104b19190612040565b6104bb9190612040565b11156104fc576040517f08c379a00000000000000000000000000000000000000000000000000000000081526004016104f3906120bd565b60405180910390fd5b5f610506896112d2565b60405160200161051691906121a9565b60405160208183030381529060405290505f6105318a6112d2565b604051602001610541919061221f565b60405160208183030381529060405290505f60025f8c81526020019081526020015f20905082815f0190816105769190612467565b50818160010190816105889190612467565b506001816003015f6101000a81548160ff021916908315150217905550620186a081600201819055505f606487620186a06105c39190612536565b6105cd91906125a4565b90505f8111610611576040517f08c379a00000000000000000000000000000000000000000000000000000000081526004016106089061261e565b60405180910390fd5b5f606487620186a06106239190612536565b61062d91906125a4565b90505f606487620186a06106419190612536565b61064b91906125a4565b90505f818385620186a061065f919061263c565b610669919061263c565b610673919061263c565b90506106808f8f8661142b565b61068b8f8e8561142b565b6106968f8d8461142b565b6106a18f8c8361142b565b8e7fd21d9e01a16a8c5d426f26258ec2882c31787698aba6246e133cc3692a370b0b8888878787876040516106db9695949392919061266f565b60405180910390a2505050505050505050505050505050565b5f8460025f8281526020019081526020015f206003015f9054906101000a900460ff16610756576040517f08c379a000000000000000000000000000000000000000000000000000000000815260040161074d9061274c565b60405180910390fd5b61075e611288565b6107666115cb565b5f73ffffffffffffffffffffffffffffffffffffffff168473ffffffffffffffffffffffffffffffffffffffff16036107d4576040517f08c379a00000000000000000000000000000000000000000000000000000000081526004016107cb906127b4565b60405180910390fd5b8260035f8773ffffffffffffffffffffffffffffffffffffffff1673ffffffffffffffffffffffffffffffffffffffff1681526020019081526020015f205f8881526020019081526020015f20541015610863576040517f08c379a000000000000000000000000000000000000000000000000000000000815260040161085a9061281c565b60405180910390fd5b8260045f8773ffffffffffffffffffffffffffffffffffffffff1673ffffffffffffffffffffffffffffffffffffffff1681526020019081526020015f205f3373ffffffffffffffffffffffffffffffffffffffff1673ffffffffffffffffffffffffffffffffffffffff1681526020019081526020015f205f8881526020019081526020015f2054101561092d576040517f08c379a000000000000000000000000000000000000000000000000000000000815260040161092490612884565b60405180910390fd5b8260045f8773ffffffffffffffffffffffffffffffffffffffff1673ffffffffffffffffffffffffffffffffffffffff1681526020019081526020015f205f3373ffffffffffffffffffffffffffffffffffffffff1673ffffffffffffffffffffffffffffffffffffffff1681526020019081526020015f205f8881526020019081526020015f205f8282546109c3919061263c565b925050819055506109d68686868661161a565b600191506109e2611814565b50949350505050565b6060805f805f60025f8781526020019081526020015f209050805f01816001018260020154836003015f9054906101000a900460ff16838054610a2d9061229a565b80601f0160208091040260200160405190810160405280929190818152602001828054610a599061229a565b8015610aa45780601f10610a7b57610100808354040283529160200191610aa4565b820191905f5260205f20905b815481529060010190602001808311610a8757829003601f168201915b50505050509350828054610ab79061229a565b80601f0160208091040260200160405190810160405280929190818152602001828054610ae39061229a565b8015610b2e5780601f10610b0557610100808354040283529160200191610b2e565b820191905f5260205f20905b815481529060010190602001808311610b1157829003601f168201915b505050505092509450945094509450509193509193565b60055f9054906101000a900473ffffffffffffffffffffffffffffffffffffffff1681565b610b7261181d565b610b7a6118a4565b565b5f805f80606487620186a0610b919190612536565b610b9b91906125a4565b9350606486620186a0610bae9190612536565b610bb891906125a4565b9250606485620186a0610bcb9190612536565b610bd591906125a4565b9150818385620186a0610be8919061263c565b610bf2919061263c565b610bfc919061263c565b905093509350935093565b6002602052805f5260405f205f91509050805f018054610c269061229a565b80601f0160208091040260200160405190810160405280929190818152602001828054610c529061229a565b8015610c9d5780601f10610c7457610100808354040283529160200191610c9d565b820191905f5260205f20905b815481529060010190602001808311610c8057829003601f168201915b505050505090806001018054610cb29061229a565b80601f0160208091040260200160405190810160405280929190818152602001828054610cde9061229a565b8015610d295780601f10610d0057610100808354040283529160200191610d29565b820191905f5260205f20905b815481529060010190602001808311610d0c57829003601f168201915b505050505090806002015490806003015f9054906101000a900460ff16905084565b6004602052825f5260405f20602052815f5260405f20602052805f5260405f205f9250925050505481565b5f8060149054906101000a900460ff16905090565b610d9361181d565b610d9c5f611905565b565b610da661181d565b610dae6119c6565b565b620186a081565b5f8360025f8281526020019081526020015f206003015f9054906101000a900460ff16610e19576040517f08c379a0000000000000000000000000000000000000000000000000000000008152600401610e109061274c565b60405180910390fd5b610e21611288565b5f73ffffffffffffffffffffffffffffffffffffffff168473ffffffffffffffffffffffffffffffffffffffff1603610e8f576040517f08c379a0000000000000000000000000000000000000000000000000000000008152600401610e86906128ec565b60405180910390fd5b8260045f3373ffffffffffffffffffffffffffffffffffffffff1673ffffffffffffffffffffffffffffffffffffffff1681526020019081526020015f205f8673ffffffffffffffffffffffffffffffffffffffff1673ffffffffffffffffffffffffffffffffffffffff1681526020019081526020015f205f8781526020019081526020015f20819055508373ffffffffffffffffffffffffffffffffffffffff163373ffffffffffffffffffffffffffffffffffffffff16867f69e4aaf23f9318cf40839ac20453d8fbedaac2955eb08a27ae5189cc7192571686604051610f799190611b56565b60405180910390a460019150509392505050565b5f805f9054906101000a900473ffffffffffffffffffffffffffffffffffffffff16905090565b610fbc61181d565b5f73ffffffffffffffffffffffffffffffffffffffff168173ffffffffffffffffffffffffffffffffffffffff160361102a576040517f08c379a000000000000000000000000000000000000000000000000000000000815260040161102190612954565b60405180910390fd5b8060055f6101000a81548173ffffffffffffffffffffffffffffffffffffffff021916908373ffffffffffffffffffffffffffffffffffffffff1602179055506110726118a4565b50565b61107d61181d565b5f73ffffffffffffffffffffffffffffffffffffffff168173ffffffffffffffffffffffffffffffffffffffff16036110ed575f6040517f1e4fbdf70000000000000000000000000000000000000000000000000000000081526004016110e49190611dcc565b60405180910390fd5b6110f681611905565b50565b5f8360025f8281526020019081526020015f206003015f9054906101000a900460ff1661115b576040517f08c379a00000000000000000000000000000000000000000000000000000000081526004016111529061274c565b60405180910390fd5b611163611288565b61116b6115cb565b5f73ffffffffffffffffffffffffffffffffffffffff168473ffffffffffffffffffffffffffffffffffffffff16036111d9576040517f08c379a00000000000000000000000000000000000000000000000000000000081526004016111d0906127b4565b60405180910390fd5b8260035f3373ffffffffffffffffffffffffffffffffffffffff1673ffffffffffffffffffffffffffffffffffffffff1681526020019081526020015f205f8781526020019081526020015f20541015611268576040517f08c379a000000000000000000000000000000000000000000000000000000000815260040161125f9061281c565b60405180910390fd5b6112748533868661161a565b60019150611280611814565b509392505050565b611290610d76565b156112d0576040517f08c379a00000000000000000000000000000000000000000000000000000000081526004016112c7906129bc565b60405180910390fd5b565b60605f8203611318576040518060400160405280600181526020017f30000000000000000000000000000000000000000000000000000000000000008152509050611426565b5f8290505f5b5f8214611347578080611330906129da565b915050600a8261134091906125a4565b915061131e565b5f8167ffffffffffffffff81111561136257611361612240565b5b6040519080825280601f01601f1916602001820160405280156113945781602001600182028036833780820191505090505b5090505b5f851461141f576001826113ac919061263c565b9150600a856113bb9190612a21565b60306113c79190612040565b60f81b8183815181106113dd576113dc612a51565b5b60200101907effffffffffffffffffffffffffffffffffffffffffffffffffffffffffffff191690815f1a905350600a8561141891906125a4565b9450611398565b8093505050505b919050565b5f73ffffffffffffffffffffffffffffffffffffffff168273ffffffffffffffffffffffffffffffffffffffff1603611499576040517f08c379a000000000000000000000000000000000000000000000000000000000815260040161149090612ac8565b60405180910390fd5b8060035f8473ffffffffffffffffffffffffffffffffffffffff1673ffffffffffffffffffffffffffffffffffffffff1681526020019081526020015f205f8581526020019081526020015f205f8282546114f49190612040565b925050819055508060025f8581526020019081526020015f206004015f8473ffffffffffffffffffffffffffffffffffffffff1673ffffffffffffffffffffffffffffffffffffffff1681526020019081526020015f205f8282546115599190612040565b925050819055508173ffffffffffffffffffffffffffffffffffffffff165f73ffffffffffffffffffffffffffffffffffffffff16847ff2dbd98d79f00f7aff338b824931d607bfcc63d47307162470f25a055102d3b0846040516115be9190611b56565b60405180910390a4505050565b600260015403611610576040517f08c379a000000000000000000000000000000000000000000000000000000000815260040161160790612b30565b60405180910390fd5b6002600181905550565b8060035f8573ffffffffffffffffffffffffffffffffffffffff1673ffffffffffffffffffffffffffffffffffffffff1681526020019081526020015f205f8681526020019081526020015f205f828254611675919061263c565b925050819055508060035f8473ffffffffffffffffffffffffffffffffffffffff1673ffffffffffffffffffffffffffffffffffffffff1681526020019081526020015f205f8681526020019081526020015f205f8282546116d79190612040565b925050819055508060025f8681526020019081526020015f206004015f8573ffffffffffffffffffffffffffffffffffffffff1673ffffffffffffffffffffffffffffffffffffffff1681526020019081526020015f205f82825461173c919061263c565b925050819055508060025f8681526020019081526020015f206004015f8473ffffffffffffffffffffffffffffffffffffffff1673ffffffffffffffffffffffffffffffffffffffff1681526020019081526020015f205f8282546117a19190612040565b925050819055508173ffffffffffffffffffffffffffffffffffffffff168373ffffffffffffffffffffffffffffffffffffffff16857ff2dbd98d79f00f7aff338b824931d607bfcc63d47307162470f25a055102d3b0846040516118069190611b56565b60405180910390a450505050565b60018081905550565b611825611a28565b73ffffffffffffffffffffffffffffffffffffffff16611843610f8d565b73ffffffffffffffffffffffffffffffffffffffff16146118a257611866611a28565b6040517f118cdaa70000000000000000000000000000000000000000000000000000000081526004016118999190611dcc565b60405180910390fd5b565b6118ac611a2f565b5f8060146101000a81548160ff0219169083151502179055507f5db9ee0a495bf2e6ff9c91a7834c1ba4fdd244a5e8aa4e537bd38aeae4b073aa6118ee611a28565b6040516118fb9190611dcc565b60405180910390a1565b5f805f9054906101000a900473ffffffffffffffffffffffffffffffffffffffff169050815f806101000a81548173ffffffffffffffffffffffffffffffffffffffff021916908373ffffffffffffffffffffffffffffffffffffffff1602179055508173ffffffffffffffffffffffffffffffffffffffff168173ffffffffffffffffffffffffffffffffffffffff167f8be0079c531659141344cd1fd0a4f28419497f9722a3daafe3b4186f6b6457e060405160405180910390a35050565b6119ce611288565b60015f60146101000a81548160ff0219169083151502179055507f62e78cea01bee320cd4e420270b5ea74000d11b0c9f74754ebdbfc544b05a258611a11611a28565b604051611a1e9190611dcc565b60405180910390a1565b5f33905090565b611a37610d76565b611a76576040517f08c379a0000000000000000000000000000000000000000000000000000000008152600401611a6d90612b98565b60405180910390fd5b565b5f80fd5b5f73ffffffffffffffffffffffffffffffffffffffff82169050919050565b5f611aa582611a7c565b9050919050565b611ab581611a9b565b8114611abf575f80fd5b50565b5f81359050611ad081611aac565b92915050565b5f819050919050565b611ae881611ad6565b8114611af2575f80fd5b50565b5f81359050611b0381611adf565b92915050565b5f8060408385031215611b1f57611b1e611a78565b5b5f611b2c85828601611ac2565b9250506020611b3d85828601611af5565b9150509250929050565b611b5081611ad6565b82525050565b5f602082019050611b695f830184611b47565b92915050565b5f805f805f805f80610100898b031215611b8c57611b8b611a78565b5b5f611b998b828c01611af5565b9850506020611baa8b828c01611ac2565b9750506040611bbb8b828c01611ac2565b9650506060611bcc8b828c01611ac2565b9550506080611bdd8b828c01611ac2565b94505060a0611bee8b828c01611af5565b93505060c0611bff8b828c01611af5565b92505060e0611c108b828c01611af5565b9150509295985092959890939650565b5f805f8060808587031215611c3857611c37611a78565b5b5f611c4587828801611af5565b9450506020611c5687828801611ac2565b9350506040611c6787828801611ac2565b9250506060611c7887828801611af5565b91505092959194509250565b5f8115159050919050565b611c9881611c84565b82525050565b5f602082019050611cb15f830184611c8f565b92915050565b5f60208284031215611ccc57611ccb611a78565b5b5f611cd984828501611af5565b91505092915050565b5f81519050919050565b5f82825260208201905092915050565b5f5b83811015611d19578082015181840152602081019050611cfe565b5f8484015250505050565b5f601f19601f8301169050919050565b5f611d3e82611ce2565b611d488185611cec565b9350611d58818560208601611cfc565b611d6181611d24565b840191505092915050565b5f6080820190508181035f830152611d848187611d34565b90508181036020830152611d988186611d34565b9050611da76040830185611b47565b611db46060830184611c8f565b95945050505050565b611dc681611a9b565b82525050565b5f602082019050611ddf5f830184611dbd565b92915050565b5f805f60608486031215611dfc57611dfb611a78565b5b5f611e0986828701611af5565b9350506020611e1a86828701611af5565b9250506040611e2b86828701611af5565b9150509250925092565b5f608082019050611e485f830187611b47565b611e556020830186611b47565b611e626040830185611b47565b611e6f6060830184611b47565b95945050505050565b5f805f60608486031215611e8f57611e8e611a78565b5b5f611e9c86828701611ac2565b9350506020611ead86828701611ac2565b9250506040611ebe86828701611af5565b9150509250925092565b5f805f60608486031215611edf57611ede611a78565b5b5f611eec86828701611af5565b9350506020611efd86828701611ac2565b9250506040611f0e86828701611af5565b9150509250925092565b5f60208284031215611f2d57611f2c611a78565b5b5f611f3a84828501611ac2565b91505092915050565b7f4f6e6c79205061696e74696e674e465420636f6e7472616374000000000000005f82015250565b5f611f77601983611cec565b9150611f8282611f43565b602082019050919050565b5f6020820190508181035f830152611fa481611f6b565b9050919050565b7f53686172657320616c72656164792065786973740000000000000000000000005f82015250565b5f611fdf601483611cec565b9150611fea82611fab565b602082019050919050565b5f6020820190508181035f83015261200c81611fd3565b9050919050565b7f4e487b71000000000000000000000000000000000000000000000000000000005f52601160045260245ffd5b5f61204a82611ad6565b915061205583611ad6565b925082820190508082111561206d5761206c612013565b5b92915050565b7f496e76616c69642070657263656e7461676573000000000000000000000000005f82015250565b5f6120a7601383611cec565b91506120b282612073565b602082019050919050565b5f6020820190508181035f8301526120d48161209b565b9050919050565b5f81905092915050565b7f5061696e74696e672000000000000000000000000000000000000000000000005f82015250565b5f6121196009836120db565b9150612124826120e5565b600982019050919050565b5f61213982611ce2565b61214381856120db565b9350612153818560208601611cfc565b80840191505092915050565b7f20536861726573000000000000000000000000000000000000000000000000005f82015250565b5f6121936007836120db565b915061219e8261215f565b600782019050919050565b5f6121b38261210d565b91506121bf828461212f565b91506121ca82612187565b915081905092915050565b7f5041494e540000000000000000000000000000000000000000000000000000005f82015250565b5f6122096005836120db565b9150612214826121d5565b600582019050919050565b5f612229826121fd565b9150612235828461212f565b915081905092915050565b7f4e487b71000000000000000000000000000000000000000000000000000000005f52604160045260245ffd5b7f4e487b71000000000000000000000000000000000000000000000000000000005f52602260045260245ffd5b5f60028204905060018216806122b157607f821691505b6020821081036122c4576122c361226d565b5b50919050565b5f819050815f5260205f209050919050565b5f6020601f8301049050919050565b5f82821b905092915050565b5f600883026123267fffffffffffffffffffffffffffffffffffffffffffffffffffffffffffffffff826122eb565b61233086836122eb565b95508019841693508086168417925050509392505050565b5f819050919050565b5f61236b61236661236184611ad6565b612348565b611ad6565b9050919050565b5f819050919050565b61238483612351565b61239861239082612372565b8484546122f7565b825550505050565b5f90565b6123ac6123a0565b6123b781848461237b565b505050565b5b818110156123da576123cf5f826123a4565b6001810190506123bd565b5050565b601f82111561241f576123f0816122ca565b6123f9846122dc565b81016020851015612408578190505b61241c612414856122dc565b8301826123bc565b50505b505050565b5f82821c905092915050565b5f61243f5f1984600802612424565b1980831691505092915050565b5f6124578383612430565b9150826002028217905092915050565b61247082611ce2565b67ffffffffffffffff81111561248957612488612240565b5b612493825461229a565b61249e8282856123de565b5f60209050601f8311600181146124cf575f84156124bd578287015190505b6124c7858261244c565b86555061252e565b601f1984166124dd866122ca565b5f5b82811015612504578489015182556001820191506020850194506020810190506124df565b86831015612521578489015161251d601f891682612430565b8355505b6001600288020188555050505b505050505050565b5f61254082611ad6565b915061254b83611ad6565b925082820261255981611ad6565b915082820484148315176125705761256f612013565b5b5092915050565b7f4e487b71000000000000000000000000000000000000000000000000000000005f52601260045260245ffd5b5f6125ae82611ad6565b91506125b983611ad6565b9250826125c9576125c8612577565b5b828204905092915050565b7f506c6174666f726d207368617265732063616e6e6f74206265203000000000005f82015250565b5f612608601b83611cec565b9150612613826125d4565b602082019050919050565b5f6020820190508181035f830152612635816125fc565b9050919050565b5f61264682611ad6565b915061265183611ad6565b925082820390508181111561266957612668612013565b5b92915050565b5f60c0820190508181035f8301526126878189611d34565b9050818103602083015261269b8188611d34565b90506126aa6040830187611b47565b6126b76060830186611b47565b6126c46080830185611b47565b6126d160a0830184611b47565b979650505050505050565b7f53686172657320646f6e277420657869737420666f722074686973207061696e5f8201527f74696e6700000000000000000000000000000000000000000000000000000000602082015250565b5f612736602483611cec565b9150612741826126dc565b604082019050919050565b5f6020820190508181035f8301526127638161272a565b9050919050565b7f5472616e7366657220746f207a65726f206164647265737300000000000000005f82015250565b5f61279e601883611cec565b91506127a98261276a565b602082019050919050565b5f6020820190508181035f8301526127cb81612792565b9050919050565b7f496e73756666696369656e742062616c616e63650000000000000000000000005f82015250565b5f612806601483611cec565b9150612811826127d2565b602082019050919050565b5f6020820190508181035f830152612833816127fa565b9050919050565b7f496e73756666696369656e7420616c6c6f77616e6365000000000000000000005f82015250565b5f61286e601683611cec565b91506128798261283a565b602082019050919050565b5f6020820190508181035f83015261289b81612862565b9050919050565b7f417070726f766520746f207a65726f20616464726573730000000000000000005f82015250565b5f6128d6601783611cec565b91506128e1826128a2565b602082019050919050565b5f6020820190508181035f830152612903816128ca565b9050919050565b7f496e76616c6964206164647265737300000000000000000000000000000000005f82015250565b5f61293e600f83611cec565b91506129498261290a565b602082019050919050565b5f6020820190508181035f83015261296b81612932565b9050919050565b7f5061757361626c653a20706175736564000000000000000000000000000000005f82015250565b5f6129a6601083611cec565b91506129b182612972565b602082019050919050565b5f6020820190508181035f8301526129d38161299a565b9050919050565b5f6129e482611ad6565b91507fffffffffffffffffffffffffffffffffffffffffffffffffffffffffffffffff8203612a1657612a15612013565b5b600182019050919050565b5f612a2b82611ad6565b9150612a3683611ad6565b925082612a4657612a45612577565b5b828206905092915050565b7f4e487b71000000000000000000000000000000000000000000000000000000005f52603260045260245ffd5b7f4d696e7420746f207a65726f20616464726573730000000000000000000000005f82015250565b5f612ab2601483611cec565b9150612abd82612a7e565b602082019050919050565b5f6020820190508181035f830152612adf81612aa6565b9050919050565b7f5265656e7472616e637947756172643a207265656e7472616e742063616c6c005f82015250565b5f612b1a601f83611cec565b9150612b2582612ae6565b602082019050919050565b5f6020820190508181035f830152612b4781612b0e565b9050919050565b7f5061757361626c653a206e6f74207061757365640000000000000000000000005f82015250565b5f612b82601483611cec565b9150612b8d82612b4e565b602082019050919050565b5f6020820190508181035f830152612baf81612b76565b905091905056fea2646970667358221220e2bdc962aa6fe04e1ee0cfe65da528eb5bc3a5ae44e59749ad3caf96869e900764736f6c63430008140033",
					"opcodes": "PUSH1 0x80 PUSH1 0x40 MSTORE CALLVALUE DUP1 ISZERO PUSH3 0x10 JUMPI PUSH0 DUP1 REVERT JUMPDEST POP PUSH1 0x40 MLOAD PUSH3 0x2FD2 CODESIZE SUB DUP1 PUSH3 0x2FD2 DUP4 CODECOPY DUP2 DUP2 ADD PUSH1 0x40 MSTORE DUP2 ADD SWAP1 PUSH3 0x36 SWAP2 SWAP1 PUSH3 0x2FE JUMP JUMPDEST DUP1 PUSH0 PUSH20 0xFFFFFFFFFFFFFFFFFFFFFFFFFFFFFFFFFFFFFFFF AND DUP2 PUSH20 0xFFFFFFFFFFFFFFFFFFFFFFFFFFFFFFFFFFFFFFFF AND SUB PUSH3 0xAA JUMPI PUSH0 PUSH1 0x40 MLOAD PUSH32 0x1E4FBDF700000000000000000000000000000000000000000000000000000000 DUP2 MSTORE PUSH1 0x4 ADD PUSH3 0xA1 SWAP2 SWAP1 PUSH3 0x33F JUMP JUMPDEST PUSH1 0x40 MLOAD DUP1 SWAP2 SUB SWAP1 REVERT JUMPDEST PUSH3 0xBB DUP2 PUSH3 0xF3 PUSH1 0x20 SHL PUSH1 0x20 SHR JUMP JUMPDEST POP PUSH0 DUP1 PUSH1 0x14 PUSH2 0x100 EXP DUP2 SLOAD DUP2 PUSH1 0xFF MUL NOT AND SWAP1 DUP4 ISZERO ISZERO MUL OR SWAP1 SSTORE POP PUSH1 0x1 DUP1 DUP2 SWAP1 SSTORE POP PUSH3 0xEC PUSH3 0x1B4 PUSH1 0x20 SHL PUSH1 0x20 SHR JUMP JUMPDEST POP PUSH3 0x3D8 JUMP JUMPDEST PUSH0 DUP1 PUSH0 SWAP1 SLOAD SWAP1 PUSH2 0x100 EXP SWAP1 DIV PUSH20 0xFFFFFFFFFFFFFFFFFFFFFFFFFFFFFFFFFFFFFFFF AND SWAP1 POP DUP2 PUSH0 DUP1 PUSH2 0x100 EXP DUP2 SLOAD DUP2 PUSH20 0xFFFFFFFFFFFFFFFFFFFFFFFFFFFFFFFFFFFFFFFF MUL NOT AND SWAP1 DUP4 PUSH20 0xFFFFFFFFFFFFFFFFFFFFFFFFFFFFFFFFFFFFFFFF AND MUL OR SWAP1 SSTORE POP DUP2 PUSH20 0xFFFFFFFFFFFFFFFFFFFFFFFFFFFFFFFFFFFFFFFF AND DUP2 PUSH20 0xFFFFFFFFFFFFFFFFFFFFFFFFFFFFFFFFFFFFFFFF AND PUSH32 0x8BE0079C531659141344CD1FD0A4F28419497F9722A3DAAFE3B4186F6B6457E0 PUSH1 0x40 MLOAD PUSH1 0x40 MLOAD DUP1 SWAP2 SUB SWAP1 LOG3 POP POP JUMP JUMPDEST PUSH3 0x1C4 PUSH3 0x228 PUSH1 0x20 SHL PUSH1 0x20 SHR JUMP JUMPDEST PUSH1 0x1 PUSH0 PUSH1 0x14 PUSH2 0x100 EXP DUP2 SLOAD DUP2 PUSH1 0xFF MUL NOT AND SWAP1 DUP4 ISZERO ISZERO MUL OR SWAP1 SSTORE POP PUSH32 0x62E78CEA01BEE320CD4E420270B5EA74000D11B0C9F74754EBDBFC544B05A258 PUSH3 0x20F PUSH3 0x27D PUSH1 0x20 SHL PUSH1 0x20 SHR JUMP JUMPDEST PUSH1 0x40 MLOAD PUSH3 0x21E SWAP2 SWAP1 PUSH3 0x33F JUMP JUMPDEST PUSH1 0x40 MLOAD DUP1 SWAP2 SUB SWAP1 LOG1 JUMP JUMPDEST PUSH3 0x238 PUSH3 0x284 PUSH1 0x20 SHL PUSH1 0x20 SHR JUMP JUMPDEST ISZERO PUSH3 0x27B JUMPI PUSH1 0x40 MLOAD PUSH32 0x8C379A000000000000000000000000000000000000000000000000000000000 DUP2 MSTORE PUSH1 0x4 ADD PUSH3 0x272 SWAP1 PUSH3 0x3B8 JUMP JUMPDEST PUSH1 0x40 MLOAD DUP1 SWAP2 SUB SWAP1 REVERT JUMPDEST JUMP JUMPDEST PUSH0 CALLER SWAP1 POP SWAP1 JUMP JUMPDEST PUSH0 DUP1 PUSH1 0x14 SWAP1 SLOAD SWAP1 PUSH2 0x100 EXP SWAP1 DIV PUSH1 0xFF AND SWAP1 POP SWAP1 JUMP JUMPDEST PUSH0 DUP1 REVERT JUMPDEST PUSH0 PUSH20 0xFFFFFFFFFFFFFFFFFFFFFFFFFFFFFFFFFFFFFFFF DUP3 AND SWAP1 POP SWAP2 SWAP1 POP JUMP JUMPDEST PUSH0 PUSH3 0x2C8 DUP3 PUSH3 0x29D JUMP JUMPDEST SWAP1 POP SWAP2 SWAP1 POP JUMP JUMPDEST PUSH3 0x2DA DUP2 PUSH3 0x2BC JUMP JUMPDEST DUP2 EQ PUSH3 0x2E5 JUMPI PUSH0 DUP1 REVERT JUMPDEST POP JUMP JUMPDEST PUSH0 DUP2 MLOAD SWAP1 POP PUSH3 0x2F8 DUP2 PUSH3 0x2CF JUMP JUMPDEST SWAP3 SWAP2 POP POP JUMP JUMPDEST PUSH0 PUSH1 0x20 DUP3 DUP5 SUB SLT ISZERO PUSH3 0x316 JUMPI PUSH3 0x315 PUSH3 0x299 JUMP JUMPDEST JUMPDEST PUSH0 PUSH3 0x325 DUP5 DUP3 DUP6 ADD PUSH3 0x2E8 JUMP JUMPDEST SWAP2 POP POP SWAP3 SWAP2 POP POP JUMP JUMPDEST PUSH3 0x339 DUP2 PUSH3 0x2BC JUMP JUMPDEST DUP3 MSTORE POP POP JUMP JUMPDEST PUSH0 PUSH1 0x20 DUP3 ADD SWAP1 POP PUSH3 0x354 PUSH0 DUP4 ADD DUP5 PUSH3 0x32E JUMP JUMPDEST SWAP3 SWAP2 POP POP JUMP JUMPDEST PUSH0 DUP3 DUP3 MSTORE PUSH1 0x20 DUP3 ADD SWAP1 POP SWAP3 SWAP2 POP POP JUMP JUMPDEST PUSH32 0x5061757361626C653A2070617573656400000000000000000000000000000000 PUSH0 DUP3 ADD MSTORE POP JUMP JUMPDEST PUSH0 PUSH3 0x3A0 PUSH1 0x10 DUP4 PUSH3 0x35A JUMP JUMPDEST SWAP2 POP PUSH3 0x3AD DUP3 PUSH3 0x36A JUMP JUMPDEST PUSH1 0x20 DUP3 ADD SWAP1 POP SWAP2 SWAP1 POP JUMP JUMPDEST PUSH0 PUSH1 0x20 DUP3 ADD SWAP1 POP DUP2 DUP2 SUB PUSH0 DUP4 ADD MSTORE PUSH3 0x3D1 DUP2 PUSH3 0x392 JUMP JUMPDEST SWAP1 POP SWAP2 SWAP1 POP JUMP JUMPDEST PUSH2 0x2BEC DUP1 PUSH3 0x3E6 PUSH0 CODECOPY PUSH0 RETURN INVALID PUSH1 0x80 PUSH1 0x40 MSTORE CALLVALUE DUP1 ISZERO PUSH2 0xF JUMPI PUSH0 DUP1 REVERT JUMPDEST POP PUSH1 0x4 CALLDATASIZE LT PUSH2 0x113 JUMPI PUSH0 CALLDATALOAD PUSH1 0xE0 SHR DUP1 PUSH4 0x5C975ABB GT PUSH2 0xA0 JUMPI DUP1 PUSH4 0x8CB0A511 GT PUSH2 0x6F JUMPI DUP1 PUSH4 0x8CB0A511 EQ PUSH2 0x2D4 JUMPI DUP1 PUSH4 0x8DA5CB5B EQ PUSH2 0x304 JUMPI DUP1 PUSH4 0xAD324CCE EQ PUSH2 0x322 JUMPI DUP1 PUSH4 0xF2FDE38B EQ PUSH2 0x33E JUMPI DUP1 PUSH4 0xF8548E36 EQ PUSH2 0x35A JUMPI PUSH2 0x113 JUMP JUMPDEST DUP1 PUSH4 0x5C975ABB EQ PUSH2 0x284 JUMPI DUP1 PUSH4 0x715018A6 EQ PUSH2 0x2A2 JUMPI DUP1 PUSH4 0x8456CB59 EQ PUSH2 0x2AC JUMPI DUP1 PUSH4 0x85E3F997 EQ PUSH2 0x2B6 JUMPI PUSH2 0x113 JUMP JUMPDEST DUP1 PUSH4 0x277B9EFE GT PUSH2 0xE7 JUMPI DUP1 PUSH4 0x277B9EFE EQ PUSH2 0x1C6 JUMPI DUP1 PUSH4 0x3F4BA83A EQ PUSH2 0x1E4 JUMPI DUP1 PUSH4 0x5258FF13 EQ PUSH2 0x1EE JUMPI DUP1 PUSH4 0x57A858FC EQ PUSH2 0x221 JUMPI DUP1 PUSH4 0x598AF9E7 EQ PUSH2 0x254 JUMPI PUSH2 0x113 JUMP JUMPDEST DUP1 PUSH3 0xFDD58E EQ PUSH2 0x117 JUMPI DUP1 PUSH4 0x17BA1245 EQ PUSH2 0x147 JUMPI DUP1 PUSH4 0x1C0F12B6 EQ PUSH2 0x163 JUMPI DUP1 PUSH4 0x1D92D3B9 EQ PUSH2 0x193 JUMPI JUMPDEST PUSH0 DUP1 REVERT JUMPDEST PUSH2 0x131 PUSH1 0x4 DUP1 CALLDATASIZE SUB DUP2 ADD SWAP1 PUSH2 0x12C SWAP2 SWAP1 PUSH2 0x1B09 JUMP JUMPDEST PUSH2 0x38A JUMP JUMPDEST PUSH1 0x40 MLOAD PUSH2 0x13E SWAP2 SWAP1 PUSH2 0x1B56 JUMP JUMPDEST PUSH1 0x40 MLOAD DUP1 SWAP2 SUB SWAP1 RETURN JUMPDEST PUSH2 0x161 PUSH1 0x4 DUP1 CALLDATASIZE SUB DUP2 ADD SWAP1 PUSH2 0x15C SWAP2 SWAP1 PUSH2 0x1B6F JUMP JUMPDEST PUSH2 0x3AA JUMP JUMPDEST STOP JUMPDEST PUSH2 0x17D PUSH1 0x4 DUP1 CALLDATASIZE SUB DUP2 ADD SWAP1 PUSH2 0x178 SWAP2 SWAP1 PUSH2 0x1C20 JUMP JUMPDEST PUSH2 0x6F4 JUMP JUMPDEST PUSH1 0x40 MLOAD PUSH2 0x18A SWAP2 SWAP1 PUSH2 0x1C9E JUMP JUMPDEST PUSH1 0x40 MLOAD DUP1 SWAP2 SUB SWAP1 RETURN JUMPDEST PUSH2 0x1AD PUSH1 0x4 DUP1 CALLDATASIZE SUB DUP2 ADD SWAP1 PUSH2 0x1A8 SWAP2 SWAP1 PUSH2 0x1CB7 JUMP JUMPDEST PUSH2 0x9EB JUMP JUMPDEST PUSH1 0x40 MLOAD PUSH2 0x1BD SWAP5 SWAP4 SWAP3 SWAP2 SWAP1 PUSH2 0x1D6C JUMP JUMPDEST PUSH1 0x40 MLOAD DUP1 SWAP2 SUB SWAP1 RETURN JUMPDEST PUSH2 0x1CE PUSH2 0xB45 JUMP JUMPDEST PUSH1 0x40 MLOAD PUSH2 0x1DB SWAP2 SWAP1 PUSH2 0x1DCC JUMP JUMPDEST PUSH1 0x40 MLOAD DUP1 SWAP2 SUB SWAP1 RETURN JUMPDEST PUSH2 0x1EC PUSH2 0xB6A JUMP JUMPDEST STOP JUMPDEST PUSH2 0x208 PUSH1 0x4 DUP1 CALLDATASIZE SUB DUP2 ADD SWAP1 PUSH2 0x203 SWAP2 SWAP1 PUSH2 0x1DE5 JUMP JUMPDEST PUSH2 0xB7C JUMP JUMPDEST PUSH1 0x40 MLOAD PUSH2 0x218 SWAP5 SWAP4 SWAP3 SWAP2 SWAP1 PUSH2 0x1E35 JUMP JUMPDEST PUSH1 0x40 MLOAD DUP1 SWAP2 SUB SWAP1 RETURN JUMPDEST PUSH2 0x23B PUSH1 0x4 DUP1 CALLDATASIZE SUB DUP2 ADD SWAP1 PUSH2 0x236 SWAP2 SWAP1 PUSH2 0x1CB7 JUMP JUMPDEST PUSH2 0xC07 JUMP JUMPDEST PUSH1 0x40 MLOAD PUSH2 0x24B SWAP5 SWAP4 SWAP3 SWAP2 SWAP1 PUSH2 0x1D6C JUMP JUMPDEST PUSH1 0x40 MLOAD DUP1 SWAP2 SUB SWAP1 RETURN JUMPDEST PUSH2 0x26E PUSH1 0x4 DUP1 CALLDATASIZE SUB DUP2 ADD SWAP1 PUSH2 0x269 SWAP2 SWAP1 PUSH2 0x1E78 JUMP JUMPDEST PUSH2 0xD4B JUMP JUMPDEST PUSH1 0x40 MLOAD PUSH2 0x27B SWAP2 SWAP1 PUSH2 0x1B56 JUMP JUMPDEST PUSH1 0x40 MLOAD DUP1 SWAP2 SUB SWAP1 RETURN JUMPDEST PUSH2 0x28C PUSH2 0xD76 JUMP JUMPDEST PUSH1 0x40 MLOAD PUSH2 0x299 SWAP2 SWAP1 PUSH2 0x1C9E JUMP JUMPDEST PUSH1 0x40 MLOAD DUP1 SWAP2 SUB SWAP1 RETURN JUMPDEST PUSH2 0x2AA PUSH2 0xD8B JUMP JUMPDEST STOP JUMPDEST PUSH2 0x2B4 PUSH2 0xD9E JUMP JUMPDEST STOP JUMPDEST PUSH2 0x2BE PUSH2 0xDB0 JUMP JUMPDEST PUSH1 0x40 MLOAD PUSH2 0x2CB SWAP2 SWAP1 PUSH2 0x1B56 JUMP JUMPDEST PUSH1 0x40 MLOAD DUP1 SWAP2 SUB SWAP1 RETURN JUMPDEST PUSH2 0x2EE PUSH1 0x4 DUP1 CALLDATASIZE SUB DUP2 ADD SWAP1 PUSH2 0x2E9 SWAP2 SWAP1 PUSH2 0x1EC8 JUMP JUMPDEST PUSH2 0xDB7 JUMP JUMPDEST PUSH1 0x40 MLOAD PUSH2 0x2FB SWAP2 SWAP1 PUSH2 0x1C9E JUMP JUMPDEST PUSH1 0x40 MLOAD DUP1 SWAP2 SUB SWAP1 RETURN JUMPDEST PUSH2 0x30C PUSH2 0xF8D JUMP JUMPDEST PUSH1 0x40 MLOAD PUSH2 0x319 SWAP2 SWAP1 PUSH2 0x1DCC JUMP JUMPDEST PUSH1 0x40 MLOAD DUP1 SWAP2 SUB SWAP1 RETURN JUMPDEST PUSH2 0x33C PUSH1 0x4 DUP1 CALLDATASIZE SUB DUP2 ADD SWAP1 PUSH2 0x337 SWAP2 SWAP1 PUSH2 0x1F18 JUMP JUMPDEST PUSH2 0xFB4 JUMP JUMPDEST STOP JUMPDEST PUSH2 0x358 PUSH1 0x4 DUP1 CALLDATASIZE SUB DUP2 ADD SWAP1 PUSH2 0x353 SWAP2 SWAP1 PUSH2 0x1F18 JUMP JUMPDEST PUSH2 0x1075 JUMP JUMPDEST STOP JUMPDEST PUSH2 0x374 PUSH1 0x4 DUP1 CALLDATASIZE SUB DUP2 ADD SWAP1 PUSH2 0x36F SWAP2 SWAP1 PUSH2 0x1EC8 JUMP JUMPDEST PUSH2 0x10F9 JUMP JUMPDEST PUSH1 0x40 MLOAD PUSH2 0x381 SWAP2 SWAP1 PUSH2 0x1C9E JUMP JUMPDEST PUSH1 0x40 MLOAD DUP1 SWAP2 SUB SWAP1 RETURN JUMPDEST PUSH1 0x3 PUSH1 0x20 MSTORE DUP2 PUSH0 MSTORE PUSH1 0x40 PUSH0 KECCAK256 PUSH1 0x20 MSTORE DUP1 PUSH0 MSTORE PUSH1 0x40 PUSH0 KECCAK256 PUSH0 SWAP2 POP SWAP2 POP POP SLOAD DUP2 JUMP JUMPDEST PUSH1 0x5 PUSH0 SWAP1 SLOAD SWAP1 PUSH2 0x100 EXP SWAP1 DIV PUSH20 0xFFFFFFFFFFFFFFFFFFFFFFFFFFFFFFFFFFFFFFFF AND PUSH20 0xFFFFFFFFFFFFFFFFFFFFFFFFFFFFFFFFFFFFFFFF AND CALLER PUSH20 0xFFFFFFFFFFFFFFFFFFFFFFFFFFFFFFFFFFFFFFFF AND EQ PUSH2 0x439 JUMPI PUSH1 0x40 MLOAD PUSH32 0x8C379A000000000000000000000000000000000000000000000000000000000 DUP2 MSTORE PUSH1 0x4 ADD PUSH2 0x430 SWAP1 PUSH2 0x1F8D JUMP JUMPDEST PUSH1 0x40 MLOAD DUP1 SWAP2 SUB SWAP1 REVERT JUMPDEST PUSH2 0x441 PUSH2 0x1288 JUMP JUMPDEST PUSH1 0x2 PUSH0 DUP10 DUP2 MSTORE PUSH1 0x20 ADD SWAP1 DUP2 MSTORE PUSH1 0x20 ADD PUSH0 KECCAK256 PUSH1 0x3 ADD PUSH0 SWAP1 SLOAD SWAP1 PUSH2 0x100 EXP SWAP1 DIV PUSH1 0xFF AND ISZERO PUSH2 0x4A2 JUMPI PUSH1 0x40 MLOAD PUSH32 0x8C379A000000000000000000000000000000000000000000000000000000000 DUP2 MSTORE PUSH1 0x4 ADD PUSH2 0x499 SWAP1 PUSH2 0x1FF5 JUMP JUMPDEST PUSH1 0x40 MLOAD DUP1 SWAP2 SUB SWAP1 REVERT JUMPDEST PUSH1 0x64 DUP2 DUP4 DUP6 PUSH2 0x4B1 SWAP2 SWAP1 PUSH2 0x2040 JUMP JUMPDEST PUSH2 0x4BB SWAP2 SWAP1 PUSH2 0x2040 JUMP JUMPDEST GT ISZERO PUSH2 0x4FC JUMPI PUSH1 0x40 MLOAD PUSH32 0x8C379A000000000000000000000000000000000000000000000000000000000 DUP2 MSTORE PUSH1 0x4 ADD PUSH2 0x4F3 SWAP1 PUSH2 0x20BD JUMP JUMPDEST PUSH1 0x40 MLOAD DUP1 SWAP2 SUB SWAP1 REVERT JUMPDEST PUSH0 PUSH2 0x506 DUP10 PUSH2 0x12D2 JUMP JUMPDEST PUSH1 0x40 MLOAD PUSH1 0x20 ADD PUSH2 0x516 SWAP2 SWAP1 PUSH2 0x21A9 JUMP JUMPDEST PUSH1 0x40 MLOAD PUSH1 0x20 DUP2 DUP4 SUB SUB DUP2 MSTORE SWAP1 PUSH1 0x40 MSTORE SWAP1 POP PUSH0 PUSH2 0x531 DUP11 PUSH2 0x12D2 JUMP JUMPDEST PUSH1 0x40 MLOAD PUSH1 0x20 ADD PUSH2 0x541 SWAP2 SWAP1 PUSH2 0x221F JUMP JUMPDEST PUSH1 0x40 MLOAD PUSH1 0x20 DUP2 DUP4 SUB SUB DUP2 MSTORE SWAP1 PUSH1 0x40 MSTORE SWAP1 POP PUSH0 PUSH1 0x2 PUSH0 DUP13 DUP2 MSTORE PUSH1 0x20 ADD SWAP1 DUP2 MSTORE PUSH1 0x20 ADD PUSH0 KECCAK256 SWAP1 POP DUP3 DUP2 PUSH0 ADD SWAP1 DUP2 PUSH2 0x576 SWAP2 SWAP1 PUSH2 0x2467 JUMP JUMPDEST POP DUP2 DUP2 PUSH1 0x1 ADD SWAP1 DUP2 PUSH2 0x588 SWAP2 SWAP1 PUSH2 0x2467 JUMP JUMPDEST POP PUSH1 0x1 DUP2 PUSH1 0x3 ADD PUSH0 PUSH2 0x100 EXP DUP2 SLOAD DUP2 PUSH1 0xFF MUL NOT AND SWAP1 DUP4 ISZERO ISZERO MUL OR SWAP1 SSTORE POP PUSH3 0x186A0 DUP2 PUSH1 0x2 ADD DUP2 SWAP1 SSTORE POP PUSH0 PUSH1 0x64 DUP8 PUSH3 0x186A0 PUSH2 0x5C3 SWAP2 SWAP1 PUSH2 0x2536 JUMP JUMPDEST PUSH2 0x5CD SWAP2 SWAP1 PUSH2 0x25A4 JUMP JUMPDEST SWAP1 POP PUSH0 DUP2 GT PUSH2 0x611 JUMPI PUSH1 0x40 MLOAD PUSH32 0x8C379A000000000000000000000000000000000000000000000000000000000 DUP2 MSTORE PUSH1 0x4 ADD PUSH2 0x608 SWAP1 PUSH2 0x261E JUMP JUMPDEST PUSH1 0x40 MLOAD DUP1 SWAP2 SUB SWAP1 REVERT JUMPDEST PUSH0 PUSH1 0x64 DUP8 PUSH3 0x186A0 PUSH2 0x623 SWAP2 SWAP1 PUSH2 0x2536 JUMP JUMPDEST PUSH2 0x62D SWAP2 SWAP1 PUSH2 0x25A4 JUMP JUMPDEST SWAP1 POP PUSH0 PUSH1 0x64 DUP8 PUSH3 0x186A0 PUSH2 0x641 SWAP2 SWAP1 PUSH2 0x2536 JUMP JUMPDEST PUSH2 0x64B SWAP2 SWAP1 PUSH2 0x25A4 JUMP JUMPDEST SWAP1 POP PUSH0 DUP2 DUP4 DUP6 PUSH3 0x186A0 PUSH2 0x65F SWAP2 SWAP1 PUSH2 0x263C JUMP JUMPDEST PUSH2 0x669 SWAP2 SWAP1 PUSH2 0x263C JUMP JUMPDEST PUSH2 0x673 SWAP2 SWAP1 PUSH2 0x263C JUMP JUMPDEST SWAP1 POP PUSH2 0x680 DUP16 DUP16 DUP7 PUSH2 0x142B JUMP JUMPDEST PUSH2 0x68B DUP16 DUP15 DUP6 PUSH2 0x142B JUMP JUMPDEST PUSH2 0x696 DUP16 DUP14 DUP5 PUSH2 0x142B JUMP JUMPDEST PUSH2 0x6A1 DUP16 DUP13 DUP4 PUSH2 0x142B JUMP JUMPDEST DUP15 PUSH32 0xD21D9E01A16A8C5D426F26258EC2882C31787698ABA6246E133CC3692A370B0B DUP9 DUP9 DUP8 DUP8 DUP8 DUP8 PUSH1 0x40 MLOAD PUSH2 0x6DB SWAP7 SWAP6 SWAP5 SWAP4 SWAP3 SWAP2 SWAP1 PUSH2 0x266F JUMP JUMPDEST PUSH1 0x40 MLOAD DUP1 SWAP2 SUB SWAP1 LOG2 POP POP POP POP POP POP POP POP POP POP POP POP POP POP POP JUMP JUMPDEST PUSH0 DUP5 PUSH1 0x2 PUSH0 DUP3 DUP2 MSTORE PUSH1 0x20 ADD SWAP1 DUP2 MSTORE PUSH1 0x20 ADD PUSH0 KECCAK256 PUSH1 0x3 ADD PUSH0 SWAP1 SLOAD SWAP1 PUSH2 0x100 EXP SWAP1 DIV PUSH1 0xFF AND PUSH2 0x756 JUMPI PUSH1 0x40 MLOAD PUSH32 0x8C379A000000000000000000000000000000000000000000000000000000000 DUP2 MSTORE PUSH1 0x4 ADD PUSH2 0x74D SWAP1 PUSH2 0x274C JUMP JUMPDEST PUSH1 0x40 MLOAD DUP1 SWAP2 SUB SWAP1 REVERT JUMPDEST PUSH2 0x75E PUSH2 0x1288 JUMP JUMPDEST PUSH2 0x766 PUSH2 0x15CB JUMP JUMPDEST PUSH0 PUSH20 0xFFFFFFFFFFFFFFFFFFFFFFFFFFFFFFFFFFFFFFFF AND DUP5 PUSH20 0xFFFFFFFFFFFFFFFFFFFFFFFFFFFFFFFFFFFFFFFF AND SUB PUSH2 0x7D4 JUMPI PUSH1 0x40 MLOAD PUSH32 0x8C379A000000000000000000000000000000000000000000000000000000000 DUP2 MSTORE PUSH1 0x4 ADD PUSH2 0x7CB SWAP1 PUSH2 0x27B4 JUMP JUMPDEST PUSH1 0x40 MLOAD DUP1 SWAP2 SUB SWAP1 REVERT JUMPDEST DUP3 PUSH1 0x3 PUSH0 DUP8 PUSH20 0xFFFFFFFFFFFFFFFFFFFFFFFFFFFFFFFFFFFFFFFF AND PUSH20 0xFFFFFFFFFFFFFFFFFFFFFFFFFFFFFFFFFFFFFFFF AND DUP2 MSTORE PUSH1 0x20 ADD SWAP1 DUP2 MSTORE PUSH1 0x20 ADD PUSH0 KECCAK256 PUSH0 DUP9 DUP2 MSTORE PUSH1 0x20 ADD SWAP1 DUP2 MSTORE PUSH1 0x20 ADD PUSH0 KECCAK256 SLOAD LT ISZERO PUSH2 0x863 JUMPI PUSH1 0x40 MLOAD PUSH32 0x8C379A000000000000000000000000000000000000000000000000000000000 DUP2 MSTORE PUSH1 0x4 ADD PUSH2 0x85A SWAP1 PUSH2 0x281C JUMP JUMPDEST PUSH1 0x40 MLOAD DUP1 SWAP2 SUB SWAP1 REVERT JUMPDEST DUP3 PUSH1 0x4 PUSH0 DUP8 PUSH20 0xFFFFFFFFFFFFFFFFFFFFFFFFFFFFFFFFFFFFFFFF AND PUSH20 0xFFFFFFFFFFFFFFFFFFFFFFFFFFFFFFFFFFFFFFFF AND DUP2 MSTORE PUSH1 0x20 ADD SWAP1 DUP2 MSTORE PUSH1 0x20 ADD PUSH0 KECCAK256 PUSH0 CALLER PUSH20 0xFFFFFFFFFFFFFFFFFFFFFFFFFFFFFFFFFFFFFFFF AND PUSH20 0xFFFFFFFFFFFFFFFFFFFFFFFFFFFFFFFFFFFFFFFF AND DUP2 MSTORE PUSH1 0x20 ADD SWAP1 DUP2 MSTORE PUSH1 0x20 ADD PUSH0 KECCAK256 PUSH0 DUP9 DUP2 MSTORE PUSH1 0x20 ADD SWAP1 DUP2 MSTORE PUSH1 0x20 ADD PUSH0 KECCAK256 SLOAD LT ISZERO PUSH2 0x92D JUMPI PUSH1 0x40 MLOAD PUSH32 0x8C379A000000000000000000000000000000000000000000000000000000000 DUP2 MSTORE PUSH1 0x4 ADD PUSH2 0x924 SWAP1 PUSH2 0x2884 JUMP JUMPDEST PUSH1 0x40 MLOAD DUP1 SWAP2 SUB SWAP1 REVERT JUMPDEST DUP3 PUSH1 0x4 PUSH0 DUP8 PUSH20 0xFFFFFFFFFFFFFFFFFFFFFFFFFFFFFFFFFFFFFFFF AND PUSH20 0xFFFFFFFFFFFFFFFFFFFFFFFFFFFFFFFFFFFFFFFF AND DUP2 MSTORE PUSH1 0x20 ADD SWAP1 DUP2 MSTORE PUSH1 0x20 ADD PUSH0 KECCAK256 PUSH0 CALLER PUSH20 0xFFFFFFFFFFFFFFFFFFFFFFFFFFFFFFFFFFFFFFFF AND PUSH20 0xFFFFFFFFFFFFFFFFFFFFFFFFFFFFFFFFFFFFFFFF AND DUP2 MSTORE PUSH1 0x20 ADD SWAP1 DUP2 MSTORE PUSH1 0x20 ADD PUSH0 KECCAK256 PUSH0 DUP9 DUP2 MSTORE PUSH1 0x20 ADD SWAP1 DUP2 MSTORE PUSH1 0x20 ADD PUSH0 KECCAK256 PUSH0 DUP3 DUP3 SLOAD PUSH2 0x9C3 SWAP2 SWAP1 PUSH2 0x263C JUMP JUMPDEST SWAP3 POP POP DUP2 SWAP1 SSTORE POP PUSH2 0x9D6 DUP7 DUP7 DUP7 DUP7 PUSH2 0x161A JUMP JUMPDEST PUSH1 0x1 SWAP2 POP PUSH2 0x9E2 PUSH2 0x1814 JUMP JUMPDEST POP SWAP5 SWAP4 POP POP POP POP JUMP JUMPDEST PUSH1 0x60 DUP1 PUSH0 DUP1 PUSH0 PUSH1 0x2 PUSH0 DUP8 DUP2 MSTORE PUSH1 0x20 ADD SWAP1 DUP2 MSTORE PUSH1 0x20 ADD PUSH0 KECCAK256 SWAP1 POP DUP1 PUSH0 ADD DUP2 PUSH1 0x1 ADD DUP3 PUSH1 0x2 ADD SLOAD DUP4 PUSH1 0x3 ADD PUSH0 SWAP1 SLOAD SWAP1 PUSH2 0x100 EXP SWAP1 DIV PUSH1 0xFF AND DUP4 DUP1 SLOAD PUSH2 0xA2D SWAP1 PUSH2 0x229A JUMP JUMPDEST DUP1 PUSH1 0x1F ADD PUSH1 0x20 DUP1 SWAP2 DIV MUL PUSH1 0x20 ADD PUSH1 0x40 MLOAD SWAP1 DUP2 ADD PUSH1 0x40 MSTORE DUP1 SWAP3 SWAP2 SWAP1 DUP2 DUP2 MSTORE PUSH1 0x20 ADD DUP3 DUP1 SLOAD PUSH2 0xA59 SWAP1 PUSH2 0x229A JUMP JUMPDEST DUP1 ISZERO PUSH2 0xAA4 JUMPI DUP1 PUSH1 0x1F LT PUSH2 0xA7B JUMPI PUSH2 0x100 DUP1 DUP4 SLOAD DIV MUL DUP4 MSTORE SWAP2 PUSH1 0x20 ADD SWAP2 PUSH2 0xAA4 JUMP JUMPDEST DUP3 ADD SWAP2 SWAP1 PUSH0 MSTORE PUSH1 0x20 PUSH0 KECCAK256 SWAP1 JUMPDEST DUP2 SLOAD DUP2 MSTORE SWAP1 PUSH1 0x1 ADD SWAP1 PUSH1 0x20 ADD DUP1 DUP4 GT PUSH2 0xA87 JUMPI DUP3 SWAP1 SUB PUSH1 0x1F AND DUP3 ADD SWAP2 JUMPDEST POP POP POP POP POP SWAP4 POP DUP3 DUP1 SLOAD PUSH2 0xAB7 SWAP1 PUSH2 0x229A JUMP JUMPDEST DUP1 PUSH1 0x1F ADD PUSH1 0x20 DUP1 SWAP2 DIV MUL PUSH1 0x20 ADD PUSH1 0x40 MLOAD SWAP1 DUP2 ADD PUSH1 0x40 MSTORE DUP1 SWAP3 SWAP2 SWAP1 DUP2 DUP2 MSTORE PUSH1 0x20 ADD DUP3 DUP1 SLOAD PUSH2 0xAE3 SWAP1 PUSH2 0x229A JUMP JUMPDEST DUP1 ISZERO PUSH2 0xB2E JUMPI DUP1 PUSH1 0x1F LT PUSH2 0xB05 JUMPI PUSH2 0x100 DUP1 DUP4 SLOAD DIV MUL DUP4 MSTORE SWAP2 PUSH1 0x20 ADD SWAP2 PUSH2 0xB2E JUMP JUMPDEST DUP3 ADD SWAP2 SWAP1 PUSH0 MSTORE PUSH1 0x20 PUSH0 KECCAK256 SWAP1 JUMPDEST DUP2 SLOAD DUP2 MSTORE SWAP1 PUSH1 0x1 ADD SWAP1 PUSH1 0x20 ADD DUP1 DUP4 GT PUSH2 0xB11 JUMPI DUP3 SWAP1 SUB PUSH1 0x1F AND DUP3 ADD SWAP2 JUMPDEST POP POP POP POP POP SWAP3 POP SWAP5 POP SWAP5 POP SWAP5 POP SWAP5 POP POP SWAP2 SWAP4 POP SWAP2 SWAP4 JUMP JUMPDEST PUSH1 0x5 PUSH0 SWAP1 SLOAD SWAP1 PUSH2 0x100 EXP SWAP1 DIV PUSH20 0xFFFFFFFFFFFFFFFFFFFFFFFFFFFFFFFFFFFFFFFF AND DUP2 JUMP JUMPDEST PUSH2 0xB72 PUSH2 0x181D JUMP JUMPDEST PUSH2 0xB7A PUSH2 0x18A4 JUMP JUMPDEST JUMP JUMPDEST PUSH0 DUP1 PUSH0 DUP1 PUSH1 0x64 DUP8 PUSH3 0x186A0 PUSH2 0xB91 SWAP2 SWAP1 PUSH2 0x2536 JUMP JUMPDEST PUSH2 0xB9B SWAP2 SWAP1 PUSH2 0x25A4 JUMP JUMPDEST SWAP4 POP PUSH1 0x64 DUP7 PUSH3 0x186A0 PUSH2 0xBAE SWAP2 SWAP1 PUSH2 0x2536 JUMP JUMPDEST PUSH2 0xBB8 SWAP2 SWAP1 PUSH2 0x25A4 JUMP JUMPDEST SWAP3 POP PUSH1 0x64 DUP6 PUSH3 0x186A0 PUSH2 0xBCB SWAP2 SWAP1 PUSH2 0x2536 JUMP JUMPDEST PUSH2 0xBD5 SWAP2 SWAP1 PUSH2 0x25A4 JUMP JUMPDEST SWAP2 POP DUP2 DUP4 DUP6 PUSH3 0x186A0 PUSH2 0xBE8 SWAP2 SWAP1 PUSH2 0x263C JUMP JUMPDEST PUSH2 0xBF2 SWAP2 SWAP1 PUSH2 0x263C JUMP JUMPDEST PUSH2 0xBFC SWAP2 SWAP1 PUSH2 0x263C JUMP JUMPDEST SWAP1 POP SWAP4 POP SWAP4 POP SWAP4 POP SWAP4 JUMP JUMPDEST PUSH1 0x2 PUSH1 0x20 MSTORE DUP1 PUSH0 MSTORE PUSH1 0x40 PUSH0 KECCAK256 PUSH0 SWAP2 POP SWAP1 POP DUP1 PUSH0 ADD DUP1 SLOAD PUSH2 0xC26 SWAP1 PUSH2 0x229A JUMP JUMPDEST DUP1 PUSH1 0x1F ADD PUSH1 0x20 DUP1 SWAP2 DIV MUL PUSH1 0x20 ADD PUSH1 0x40 MLOAD SWAP1 DUP2 ADD PUSH1 0x40 MSTORE DUP1 SWAP3 SWAP2 SWAP1 DUP2 DUP2 MSTORE PUSH1 0x20 ADD DUP3 DUP1 SLOAD PUSH2 0xC52 SWAP1 PUSH2 0x229A JUMP JUMPDEST DUP1 ISZERO PUSH2 0xC9D JUMPI DUP1 PUSH1 0x1F LT PUSH2 0xC74 JUMPI PUSH2 0x100 DUP1 DUP4 SLOAD DIV MUL DUP4 MSTORE SWAP2 PUSH1 0x20 ADD SWAP2 PUSH2 0xC9D JUMP JUMPDEST DUP3 ADD SWAP2 SWAP1 PUSH0 MSTORE PUSH1 0x20 PUSH0 KECCAK256 SWAP1 JUMPDEST DUP2 SLOAD DUP2 MSTORE SWAP1 PUSH1 0x1 ADD SWAP1 PUSH1 0x20 ADD DUP1 DUP4 GT PUSH2 0xC80 JUMPI DUP3 SWAP1 SUB PUSH1 0x1F AND DUP3 ADD SWAP2 JUMPDEST POP POP POP POP POP SWAP1 DUP1 PUSH1 0x1 ADD DUP1 SLOAD PUSH2 0xCB2 SWAP1 PUSH2 0x229A JUMP JUMPDEST DUP1 PUSH1 0x1F ADD PUSH1 0x20 DUP1 SWAP2 DIV MUL PUSH1 0x20 ADD PUSH1 0x40 MLOAD SWAP1 DUP2 ADD PUSH1 0x40 MSTORE DUP1 SWAP3 SWAP2 SWAP1 DUP2 DUP2 MSTORE PUSH1 0x20 ADD DUP3 DUP1 SLOAD PUSH2 0xCDE SWAP1 PUSH2 0x229A JUMP JUMPDEST DUP1 ISZERO PUSH2 0xD29 JUMPI DUP1 PUSH1 0x1F LT PUSH2 0xD00 JUMPI PUSH2 0x100 DUP1 DUP4 SLOAD DIV MUL DUP4 MSTORE SWAP2 PUSH1 0x20 ADD SWAP2 PUSH2 0xD29 JUMP JUMPDEST DUP3 ADD SWAP2 SWAP1 PUSH0 MSTORE PUSH1 0x20 PUSH0 KECCAK256 SWAP1 JUMPDEST DUP2 SLOAD DUP2 MSTORE SWAP1 PUSH1 0x1 ADD SWAP1 PUSH1 0x20 ADD DUP1 DUP4 GT PUSH2 0xD0C JUMPI DUP3 SWAP1 SUB PUSH1 0x1F AND DUP3 ADD SWAP2 JUMPDEST POP POP POP POP POP SWAP1 DUP1 PUSH1 0x2 ADD SLOAD SWAP1 DUP1 PUSH1 0x3 ADD PUSH0 SWAP1 SLOAD SWAP1 PUSH2 0x100 EXP SWAP1 DIV PUSH1 0xFF AND SWAP1 POP DUP5 JUMP JUMPDEST PUSH1 0x4 PUSH1 0x20 MSTORE DUP3 PUSH0 MSTORE PUSH1 0x40 PUSH0 KECCAK256 PUSH1 0x20 MSTORE DUP2 PUSH0 MSTORE PUSH1 0x40 PUSH0 KECCAK256 PUSH1 0x20 MSTORE DUP1 PUSH0 MSTORE PUSH1 0x40 PUSH0 KECCAK256 PUSH0 SWAP3 POP SWAP3 POP POP POP SLOAD DUP2 JUMP JUMPDEST PUSH0 DUP1 PUSH1 0x14 SWAP1 SLOAD SWAP1 PUSH2 0x100 EXP SWAP1 DIV PUSH1 0xFF AND SWAP1 POP SWAP1 JUMP JUMPDEST PUSH2 0xD93 PUSH2 0x181D JUMP JUMPDEST PUSH2 0xD9C PUSH0 PUSH2 0x1905 JUMP JUMPDEST JUMP JUMPDEST PUSH2 0xDA6 PUSH2 0x181D JUMP JUMPDEST PUSH2 0xDAE PUSH2 0x19C6 JUMP JUMPDEST JUMP JUMPDEST PUSH3 0x186A0 DUP2 JUMP JUMPDEST PUSH0 DUP4 PUSH1 0x2 PUSH0 DUP3 DUP2 MSTORE PUSH1 0x20 ADD SWAP1 DUP2 MSTORE PUSH1 0x20 ADD PUSH0 KECCAK256 PUSH1 0x3 ADD PUSH0 SWAP1 SLOAD SWAP1 PUSH2 0x100 EXP SWAP1 DIV PUSH1 0xFF AND PUSH2 0xE19 JUMPI PUSH1 0x40 MLOAD PUSH32 0x8C379A000000000000000000000000000000000000000000000000000000000 DUP2 MSTORE PUSH1 0x4 ADD PUSH2 0xE10 SWAP1 PUSH2 0x274C JUMP JUMPDEST PUSH1 0x40 MLOAD DUP1 SWAP2 SUB SWAP1 REVERT JUMPDEST PUSH2 0xE21 PUSH2 0x1288 JUMP JUMPDEST PUSH0 PUSH20 0xFFFFFFFFFFFFFFFFFFFFFFFFFFFFFFFFFFFFFFFF AND DUP5 PUSH20 0xFFFFFFFFFFFFFFFFFFFFFFFFFFFFFFFFFFFFFFFF AND SUB PUSH2 0xE8F JUMPI PUSH1 0x40 MLOAD PUSH32 0x8C379A000000000000000000000000000000000000000000000000000000000 DUP2 MSTORE PUSH1 0x4 ADD PUSH2 0xE86 SWAP1 PUSH2 0x28EC JUMP JUMPDEST PUSH1 0x40 MLOAD DUP1 SWAP2 SUB SWAP1 REVERT JUMPDEST DUP3 PUSH1 0x4 PUSH0 CALLER PUSH20 0xFFFFFFFFFFFFFFFFFFFFFFFFFFFFFFFFFFFFFFFF AND PUSH20 0xFFFFFFFFFFFFFFFFFFFFFFFFFFFFFFFFFFFFFFFF AND DUP2 MSTORE PUSH1 0x20 ADD SWAP1 DUP2 MSTORE PUSH1 0x20 ADD PUSH0 KECCAK256 PUSH0 DUP7 PUSH20 0xFFFFFFFFFFFFFFFFFFFFFFFFFFFFFFFFFFFFFFFF AND PUSH20 0xFFFFFFFFFFFFFFFFFFFFFFFFFFFFFFFFFFFFFFFF AND DUP2 MSTORE PUSH1 0x20 ADD SWAP1 DUP2 MSTORE PUSH1 0x20 ADD PUSH0 KECCAK256 PUSH0 DUP8 DUP2 MSTORE PUSH1 0x20 ADD SWAP1 DUP2 MSTORE PUSH1 0x20 ADD PUSH0 KECCAK256 DUP2 SWAP1 SSTORE POP DUP4 PUSH20 0xFFFFFFFFFFFFFFFFFFFFFFFFFFFFFFFFFFFFFFFF AND CALLER PUSH20 0xFFFFFFFFFFFFFFFFFFFFFFFFFFFFFFFFFFFFFFFF AND DUP7 PUSH32 0x69E4AAF23F9318CF40839AC20453D8FBEDAAC2955EB08A27AE5189CC71925716 DUP7 PUSH1 0x40 MLOAD PUSH2 0xF79 SWAP2 SWAP1 PUSH2 0x1B56 JUMP JUMPDEST PUSH1 0x40 MLOAD DUP1 SWAP2 SUB SWAP1 LOG4 PUSH1 0x1 SWAP2 POP POP SWAP4 SWAP3 POP POP POP JUMP JUMPDEST PUSH0 DUP1 PUSH0 SWAP1 SLOAD SWAP1 PUSH2 0x100 EXP SWAP1 DIV PUSH20 0xFFFFFFFFFFFFFFFFFFFFFFFFFFFFFFFFFFFFFFFF AND SWAP1 POP SWAP1 JUMP JUMPDEST PUSH2 0xFBC PUSH2 0x181D JUMP JUMPDEST PUSH0 PUSH20 0xFFFFFFFFFFFFFFFFFFFFFFFFFFFFFFFFFFFFFFFF AND DUP2 PUSH20 0xFFFFFFFFFFFFFFFFFFFFFFFFFFFFFFFFFFFFFFFF AND SUB PUSH2 0x102A JUMPI PUSH1 0x40 MLOAD PUSH32 0x8C379A000000000000000000000000000000000000000000000000000000000 DUP2 MSTORE PUSH1 0x4 ADD PUSH2 0x1021 SWAP1 PUSH2 0x2954 JUMP JUMPDEST PUSH1 0x40 MLOAD DUP1 SWAP2 SUB SWAP1 REVERT JUMPDEST DUP1 PUSH1 0x5 PUSH0 PUSH2 0x100 EXP DUP2 SLOAD DUP2 PUSH20 0xFFFFFFFFFFFFFFFFFFFFFFFFFFFFFFFFFFFFFFFF MUL NOT AND SWAP1 DUP4 PUSH20 0xFFFFFFFFFFFFFFFFFFFFFFFFFFFFFFFFFFFFFFFF AND MUL OR SWAP1 SSTORE POP PUSH2 0x1072 PUSH2 0x18A4 JUMP JUMPDEST POP JUMP JUMPDEST PUSH2 0x107D PUSH2 0x181D JUMP JUMPDEST PUSH0 PUSH20 0xFFFFFFFFFFFFFFFFFFFFFFFFFFFFFFFFFFFFFFFF AND DUP2 PUSH20 0xFFFFFFFFFFFFFFFFFFFFFFFFFFFFFFFFFFFFFFFF AND SUB PUSH2 0x10ED JUMPI PUSH0 PUSH1 0x40 MLOAD PUSH32 0x1E4FBDF700000000000000000000000000000000000000000000000000000000 DUP2 MSTORE PUSH1 0x4 ADD PUSH2 0x10E4 SWAP2 SWAP1 PUSH2 0x1DCC JUMP JUMPDEST PUSH1 0x40 MLOAD DUP1 SWAP2 SUB SWAP1 REVERT JUMPDEST PUSH2 0x10F6 DUP2 PUSH2 0x1905 JUMP JUMPDEST POP JUMP JUMPDEST PUSH0 DUP4 PUSH1 0x2 PUSH0 DUP3 DUP2 MSTORE PUSH1 0x20 ADD SWAP1 DUP2 MSTORE PUSH1 0x20 ADD PUSH0 KECCAK256 PUSH1 0x3 ADD PUSH0 SWAP1 SLOAD SWAP1 PUSH2 0x100 EXP SWAP1 DIV PUSH1 0xFF AND PUSH2 0x115B JUMPI PUSH1 0x40 MLOAD PUSH32 0x8C379A000000000000000000000000000000000000000000000000000000000 DUP2 MSTORE PUSH1 0x4 ADD PUSH2 0x1152 SWAP1 PUSH2 0x274C JUMP JUMPDEST PUSH1 0x40 MLOAD DUP1 SWAP2 SUB SWAP1 REVERT JUMPDEST PUSH2 0x1163 PUSH2 0x1288 JUMP JUMPDEST PUSH2 0x116B PUSH2 0x15CB JUMP JUMPDEST PUSH0 PUSH20 0xFFFFFFFFFFFFFFFFFFFFFFFFFFFFFFFFFFFFFFFF AND DUP5 PUSH20 0xFFFFFFFFFFFFFFFFFFFFFFFFFFFFFFFFFFFFFFFF AND SUB PUSH2 0x11D9 JUMPI PUSH1 0x40 MLOAD PUSH32 0x8C379A000000000000000000000000000000000000000000000000000000000 DUP2 MSTORE PUSH1 0x4 ADD PUSH2 0x11D0 SWAP1 PUSH2 0x27B4 JUMP JUMPDEST PUSH1 0x40 MLOAD DUP1 SWAP2 SUB SWAP1 REVERT JUMPDEST DUP3 PUSH1 0x3 PUSH0 CALLER PUSH20 0xFFFFFFFFFFFFFFFFFFFFFFFFFFFFFFFFFFFFFFFF AND PUSH20 0xFFFFFFFFFFFFFFFFFFFFFFFFFFFFFFFFFFFFFFFF AND DUP2 MSTORE PUSH1 0x20 ADD SWAP1 DUP2 MSTORE PUSH1 0x20 ADD PUSH0 KECCAK256 PUSH0 DUP8 DUP2 MSTORE PUSH1 0x20 ADD SWAP1 DUP2 MSTORE PUSH1 0x20 ADD PUSH0 KECCAK256 SLOAD LT ISZERO PUSH2 0x1268 JUMPI PUSH1 0x40 MLOAD PUSH32 0x8C379A000000000000000000000000000000000000000000000000000000000 DUP2 MSTORE PUSH1 0x4 ADD PUSH2 0x125F SWAP1 PUSH2 0x281C JUMP JUMPDEST PUSH1 0x40 MLOAD DUP1 SWAP2 SUB SWAP1 REVERT JUMPDEST PUSH2 0x1274 DUP6 CALLER DUP7 DUP7 PUSH2 0x161A JUMP JUMPDEST PUSH1 0x1 SWAP2 POP PUSH2 0x1280 PUSH2 0x1814 JUMP JUMPDEST POP SWAP4 SWAP3 POP POP POP JUMP JUMPDEST PUSH2 0x1290 PUSH2 0xD76 JUMP JUMPDEST ISZERO PUSH2 0x12D0 JUMPI PUSH1 0x40 MLOAD PUSH32 0x8C379A000000000000000000000000000000000000000000000000000000000 DUP2 MSTORE PUSH1 0x4 ADD PUSH2 0x12C7 SWAP1 PUSH2 0x29BC JUMP JUMPDEST PUSH1 0x40 MLOAD DUP1 SWAP2 SUB SWAP1 REVERT JUMPDEST JUMP JUMPDEST PUSH1 0x60 PUSH0 DUP3 SUB PUSH2 0x1318 JUMPI PUSH1 0x40 MLOAD DUP1 PUSH1 0x40 ADD PUSH1 0x40 MSTORE DUP1 PUSH1 0x1 DUP2 MSTORE PUSH1 0x20 ADD PUSH32 0x3000000000000000000000000000000000000000000000000000000000000000 DUP2 MSTORE POP SWAP1 POP PUSH2 0x1426 JUMP JUMPDEST PUSH0 DUP3 SWAP1 POP PUSH0 JUMPDEST PUSH0 DUP3 EQ PUSH2 0x1347 JUMPI DUP1 DUP1 PUSH2 0x1330 SWAP1 PUSH2 0x29DA JUMP JUMPDEST SWAP2 POP POP PUSH1 0xA DUP3 PUSH2 0x1340 SWAP2 SWAP1 PUSH2 0x25A4 JUMP JUMPDEST SWAP2 POP PUSH2 0x131E JUMP JUMPDEST PUSH0 DUP2 PUSH8 0xFFFFFFFFFFFFFFFF DUP2 GT ISZERO PUSH2 0x1362 JUMPI PUSH2 0x1361 PUSH2 0x2240 JUMP JUMPDEST JUMPDEST PUSH1 0x40 MLOAD SWAP1 DUP1 DUP3 MSTORE DUP1 PUSH1 0x1F ADD PUSH1 0x1F NOT AND PUSH1 0x20 ADD DUP3 ADD PUSH1 0x40 MSTORE DUP1 ISZERO PUSH2 0x1394 JUMPI DUP2 PUSH1 0x20 ADD PUSH1 0x1 DUP3 MUL DUP1 CALLDATASIZE DUP4 CALLDATACOPY DUP1 DUP3 ADD SWAP2 POP POP SWAP1 POP JUMPDEST POP SWAP1 POP JUMPDEST PUSH0 DUP6 EQ PUSH2 0x141F JUMPI PUSH1 0x1 DUP3 PUSH2 0x13AC SWAP2 SWAP1 PUSH2 0x263C JUMP JUMPDEST SWAP2 POP PUSH1 0xA DUP6 PUSH2 0x13BB SWAP2 SWAP1 PUSH2 0x2A21 JUMP JUMPDEST PUSH1 0x30 PUSH2 0x13C7 SWAP2 SWAP1 PUSH2 0x2040 JUMP JUMPDEST PUSH1 0xF8 SHL DUP2 DUP4 DUP2 MLOAD DUP2 LT PUSH2 0x13DD JUMPI PUSH2 0x13DC PUSH2 0x2A51 JUMP JUMPDEST JUMPDEST PUSH1 0x20 ADD ADD SWAP1 PUSH31 0xFFFFFFFFFFFFFFFFFFFFFFFFFFFFFFFFFFFFFFFFFFFFFFFFFFFFFFFFFFFFFF NOT AND SWAP1 DUP2 PUSH0 BYTE SWAP1 MSTORE8 POP PUSH1 0xA DUP6 PUSH2 0x1418 SWAP2 SWAP1 PUSH2 0x25A4 JUMP JUMPDEST SWAP5 POP PUSH2 0x1398 JUMP JUMPDEST DUP1 SWAP4 POP POP POP POP JUMPDEST SWAP2 SWAP1 POP JUMP JUMPDEST PUSH0 PUSH20 0xFFFFFFFFFFFFFFFFFFFFFFFFFFFFFFFFFFFFFFFF AND DUP3 PUSH20 0xFFFFFFFFFFFFFFFFFFFFFFFFFFFFFFFFFFFFFFFF AND SUB PUSH2 0x1499 JUMPI PUSH1 0x40 MLOAD PUSH32 0x8C379A000000000000000000000000000000000000000000000000000000000 DUP2 MSTORE PUSH1 0x4 ADD PUSH2 0x1490 SWAP1 PUSH2 0x2AC8 JUMP JUMPDEST PUSH1 0x40 MLOAD DUP1 SWAP2 SUB SWAP1 REVERT JUMPDEST DUP1 PUSH1 0x3 PUSH0 DUP5 PUSH20 0xFFFFFFFFFFFFFFFFFFFFFFFFFFFFFFFFFFFFFFFF AND PUSH20 0xFFFFFFFFFFFFFFFFFFFFFFFFFFFFFFFFFFFFFFFF AND DUP2 MSTORE PUSH1 0x20 ADD SWAP1 DUP2 MSTORE PUSH1 0x20 ADD PUSH0 KECCAK256 PUSH0 DUP6 DUP2 MSTORE PUSH1 0x20 ADD SWAP1 DUP2 MSTORE PUSH1 0x20 ADD PUSH0 KECCAK256 PUSH0 DUP3 DUP3 SLOAD PUSH2 0x14F4 SWAP2 SWAP1 PUSH2 0x2040 JUMP JUMPDEST SWAP3 POP POP DUP2 SWAP1 SSTORE POP DUP1 PUSH1 0x2 PUSH0 DUP6 DUP2 MSTORE PUSH1 0x20 ADD SWAP1 DUP2 MSTORE PUSH1 0x20 ADD PUSH0 KECCAK256 PUSH1 0x4 ADD PUSH0 DUP5 PUSH20 0xFFFFFFFFFFFFFFFFFFFFFFFFFFFFFFFFFFFFFFFF AND PUSH20 0xFFFFFFFFFFFFFFFFFFFFFFFFFFFFFFFFFFFFFFFF AND DUP2 MSTORE PUSH1 0x20 ADD SWAP1 DUP2 MSTORE PUSH1 0x20 ADD PUSH0 KECCAK256 PUSH0 DUP3 DUP3 SLOAD PUSH2 0x1559 SWAP2 SWAP1 PUSH2 0x2040 JUMP JUMPDEST SWAP3 POP POP DUP2 SWAP1 SSTORE POP DUP2 PUSH20 0xFFFFFFFFFFFFFFFFFFFFFFFFFFFFFFFFFFFFFFFF AND PUSH0 PUSH20 0xFFFFFFFFFFFFFFFFFFFFFFFFFFFFFFFFFFFFFFFF AND DUP5 PUSH32 0xF2DBD98D79F00F7AFF338B824931D607BFCC63D47307162470F25A055102D3B0 DUP5 PUSH1 0x40 MLOAD PUSH2 0x15BE SWAP2 SWAP1 PUSH2 0x1B56 JUMP JUMPDEST PUSH1 0x40 MLOAD DUP1 SWAP2 SUB SWAP1 LOG4 POP POP POP JUMP JUMPDEST PUSH1 0x2 PUSH1 0x1 SLOAD SUB PUSH2 0x1610 JUMPI PUSH1 0x40 MLOAD PUSH32 0x8C379A000000000000000000000000000000000000000000000000000000000 DUP2 MSTORE PUSH1 0x4 ADD PUSH2 0x1607 SWAP1 PUSH2 0x2B30 JUMP JUMPDEST PUSH1 0x40 MLOAD DUP1 SWAP2 SUB SWAP1 REVERT JUMPDEST PUSH1 0x2 PUSH1 0x1 DUP2 SWAP1 SSTORE POP JUMP JUMPDEST DUP1 PUSH1 0x3 PUSH0 DUP6 PUSH20 0xFFFFFFFFFFFFFFFFFFFFFFFFFFFFFFFFFFFFFFFF AND PUSH20 0xFFFFFFFFFFFFFFFFFFFFFFFFFFFFFFFFFFFFFFFF AND DUP2 MSTORE PUSH1 0x20 ADD SWAP1 DUP2 MSTORE PUSH1 0x20 ADD PUSH0 KECCAK256 PUSH0 DUP7 DUP2 MSTORE PUSH1 0x20 ADD SWAP1 DUP2 MSTORE PUSH1 0x20 ADD PUSH0 KECCAK256 PUSH0 DUP3 DUP3 SLOAD PUSH2 0x1675 SWAP2 SWAP1 PUSH2 0x263C JUMP JUMPDEST SWAP3 POP POP DUP2 SWAP1 SSTORE POP DUP1 PUSH1 0x3 PUSH0 DUP5 PUSH20 0xFFFFFFFFFFFFFFFFFFFFFFFFFFFFFFFFFFFFFFFF AND PUSH20 0xFFFFFFFFFFFFFFFFFFFFFFFFFFFFFFFFFFFFFFFF AND DUP2 MSTORE PUSH1 0x20 ADD SWAP1 DUP2 MSTORE PUSH1 0x20 ADD PUSH0 KECCAK256 PUSH0 DUP7 DUP2 MSTORE PUSH1 0x20 ADD SWAP1 DUP2 MSTORE PUSH1 0x20 ADD PUSH0 KECCAK256 PUSH0 DUP3 DUP3 SLOAD PUSH2 0x16D7 SWAP2 SWAP1 PUSH2 0x2040 JUMP JUMPDEST SWAP3 POP POP DUP2 SWAP1 SSTORE POP DUP1 PUSH1 0x2 PUSH0 DUP7 DUP2 MSTORE PUSH1 0x20 ADD SWAP1 DUP2 MSTORE PUSH1 0x20 ADD PUSH0 KECCAK256 PUSH1 0x4 ADD PUSH0 DUP6 PUSH20 0xFFFFFFFFFFFFFFFFFFFFFFFFFFFFFFFFFFFFFFFF AND PUSH20 0xFFFFFFFFFFFFFFFFFFFFFFFFFFFFFFFFFFFFFFFF AND DUP2 MSTORE PUSH1 0x20 ADD SWAP1 DUP2 MSTORE PUSH1 0x20 ADD PUSH0 KECCAK256 PUSH0 DUP3 DUP3 SLOAD PUSH2 0x173C SWAP2 SWAP1 PUSH2 0x263C JUMP JUMPDEST SWAP3 POP POP DUP2 SWAP1 SSTORE POP DUP1 PUSH1 0x2 PUSH0 DUP7 DUP2 MSTORE PUSH1 0x20 ADD SWAP1 DUP2 MSTORE PUSH1 0x20 ADD PUSH0 KECCAK256 PUSH1 0x4 ADD PUSH0 DUP5 PUSH20 0xFFFFFFFFFFFFFFFFFFFFFFFFFFFFFFFFFFFFFFFF AND PUSH20 0xFFFFFFFFFFFFFFFFFFFFFFFFFFFFFFFFFFFFFFFF AND DUP2 MSTORE PUSH1 0x20 ADD SWAP1 DUP2 MSTORE PUSH1 0x20 ADD PUSH0 KECCAK256 PUSH0 DUP3 DUP3 SLOAD PUSH2 0x17A1 SWAP2 SWAP1 PUSH2 0x2040 JUMP JUMPDEST SWAP3 POP POP DUP2 SWAP1 SSTORE POP DUP2 PUSH20 0xFFFFFFFFFFFFFFFFFFFFFFFFFFFFFFFFFFFFFFFF AND DUP4 PUSH20 0xFFFFFFFFFFFFFFFFFFFFFFFFFFFFFFFFFFFFFFFF AND DUP6 PUSH32 0xF2DBD98D79F00F7AFF338B824931D607BFCC63D47307162470F25A055102D3B0 DUP5 PUSH1 0x40 MLOAD PUSH2 0x1806 SWAP2 SWAP1 PUSH2 0x1B56 JUMP JUMPDEST PUSH1 0x40 MLOAD DUP1 SWAP2 SUB SWAP1 LOG4 POP POP POP POP JUMP JUMPDEST PUSH1 0x1 DUP1 DUP2 SWAP1 SSTORE POP JUMP JUMPDEST PUSH2 0x1825 PUSH2 0x1A28 JUMP JUMPDEST PUSH20 0xFFFFFFFFFFFFFFFFFFFFFFFFFFFFFFFFFFFFFFFF AND PUSH2 0x1843 PUSH2 0xF8D JUMP JUMPDEST PUSH20 0xFFFFFFFFFFFFFFFFFFFFFFFFFFFFFFFFFFFFFFFF AND EQ PUSH2 0x18A2 JUMPI PUSH2 0x1866 PUSH2 0x1A28 JUMP JUMPDEST PUSH1 0x40 MLOAD PUSH32 0x118CDAA700000000000000000000000000000000000000000000000000000000 DUP2 MSTORE PUSH1 0x4 ADD PUSH2 0x1899 SWAP2 SWAP1 PUSH2 0x1DCC JUMP JUMPDEST PUSH1 0x40 MLOAD DUP1 SWAP2 SUB SWAP1 REVERT JUMPDEST JUMP JUMPDEST PUSH2 0x18AC PUSH2 0x1A2F JUMP JUMPDEST PUSH0 DUP1 PUSH1 0x14 PUSH2 0x100 EXP DUP2 SLOAD DUP2 PUSH1 0xFF MUL NOT AND SWAP1 DUP4 ISZERO ISZERO MUL OR SWAP1 SSTORE POP PUSH32 0x5DB9EE0A495BF2E6FF9C91A7834C1BA4FDD244A5E8AA4E537BD38AEAE4B073AA PUSH2 0x18EE PUSH2 0x1A28 JUMP JUMPDEST PUSH1 0x40 MLOAD PUSH2 0x18FB SWAP2 SWAP1 PUSH2 0x1DCC JUMP JUMPDEST PUSH1 0x40 MLOAD DUP1 SWAP2 SUB SWAP1 LOG1 JUMP JUMPDEST PUSH0 DUP1 PUSH0 SWAP1 SLOAD SWAP1 PUSH2 0x100 EXP SWAP1 DIV PUSH20 0xFFFFFFFFFFFFFFFFFFFFFFFFFFFFFFFFFFFFFFFF AND SWAP1 POP DUP2 PUSH0 DUP1 PUSH2 0x100 EXP DUP2 SLOAD DUP2 PUSH20 0xFFFFFFFFFFFFFFFFFFFFFFFFFFFFFFFFFFFFFFFF MUL NOT AND SWAP1 DUP4 PUSH20 0xFFFFFFFFFFFFFFFFFFFFFFFFFFFFFFFFFFFFFFFF AND MUL OR SWAP1 SSTORE POP DUP2 PUSH20 0xFFFFFFFFFFFFFFFFFFFFFFFFFFFFFFFFFFFFFFFF AND DUP2 PUSH20 0xFFFFFFFFFFFFFFFFFFFFFFFFFFFFFFFFFFFFFFFF AND PUSH32 0x8BE0079C531659141344CD1FD0A4F28419497F9722A3DAAFE3B4186F6B6457E0 PUSH1 0x40 MLOAD PUSH1 0x40 MLOAD DUP1 SWAP2 SUB SWAP1 LOG3 POP POP JUMP JUMPDEST PUSH2 0x19CE PUSH2 0x1288 JUMP JUMPDEST PUSH1 0x1 PUSH0 PUSH1 0x14 PUSH2 0x100 EXP DUP2 SLOAD DUP2 PUSH1 0xFF MUL NOT AND SWAP1 DUP4 ISZERO ISZERO MUL OR SWAP1 SSTORE POP PUSH32 0x62E78CEA01BEE320CD4E420270B5EA74000D11B0C9F74754EBDBFC544B05A258 PUSH2 0x1A11 PUSH2 0x1A28 JUMP JUMPDEST PUSH1 0x40 MLOAD PUSH2 0x1A1E SWAP2 SWAP1 PUSH2 0x1DCC JUMP JUMPDEST PUSH1 0x40 MLOAD DUP1 SWAP2 SUB SWAP1 LOG1 JUMP JUMPDEST PUSH0 CALLER SWAP1 POP SWAP1 JUMP JUMPDEST PUSH2 0x1A37 PUSH2 0xD76 JUMP JUMPDEST PUSH2 0x1A76 JUMPI PUSH1 0x40 MLOAD PUSH32 0x8C379A000000000000000000000000000000000000000000000000000000000 DUP2 MSTORE PUSH1 0x4 ADD PUSH2 0x1A6D SWAP1 PUSH2 0x2B98 JUMP JUMPDEST PUSH1 0x40 MLOAD DUP1 SWAP2 SUB SWAP1 REVERT JUMPDEST JUMP JUMPDEST PUSH0 DUP1 REVERT JUMPDEST PUSH0 PUSH20 0xFFFFFFFFFFFFFFFFFFFFFFFFFFFFFFFFFFFFFFFF DUP3 AND SWAP1 POP SWAP2 SWAP1 POP JUMP JUMPDEST PUSH0 PUSH2 0x1AA5 DUP3 PUSH2 0x1A7C JUMP JUMPDEST SWAP1 POP SWAP2 SWAP1 POP JUMP JUMPDEST PUSH2 0x1AB5 DUP2 PUSH2 0x1A9B JUMP JUMPDEST DUP2 EQ PUSH2 0x1ABF JUMPI PUSH0 DUP1 REVERT JUMPDEST POP JUMP JUMPDEST PUSH0 DUP2 CALLDATALOAD SWAP1 POP PUSH2 0x1AD0 DUP2 PUSH2 0x1AAC JUMP JUMPDEST SWAP3 SWAP2 POP POP JUMP JUMPDEST PUSH0 DUP2 SWAP1 POP SWAP2 SWAP1 POP JUMP JUMPDEST PUSH2 0x1AE8 DUP2 PUSH2 0x1AD6 JUMP JUMPDEST DUP2 EQ PUSH2 0x1AF2 JUMPI PUSH0 DUP1 REVERT JUMPDEST POP JUMP JUMPDEST PUSH0 DUP2 CALLDATALOAD SWAP1 POP PUSH2 0x1B03 DUP2 PUSH2 0x1ADF JUMP JUMPDEST SWAP3 SWAP2 POP POP JUMP JUMPDEST PUSH0 DUP1 PUSH1 0x40 DUP4 DUP6 SUB SLT ISZERO PUSH2 0x1B1F JUMPI PUSH2 0x1B1E PUSH2 0x1A78 JUMP JUMPDEST JUMPDEST PUSH0 PUSH2 0x1B2C DUP6 DUP3 DUP7 ADD PUSH2 0x1AC2 JUMP JUMPDEST SWAP3 POP POP PUSH1 0x20 PUSH2 0x1B3D DUP6 DUP3 DUP7 ADD PUSH2 0x1AF5 JUMP JUMPDEST SWAP2 POP POP SWAP3 POP SWAP3 SWAP1 POP JUMP JUMPDEST PUSH2 0x1B50 DUP2 PUSH2 0x1AD6 JUMP JUMPDEST DUP3 MSTORE POP POP JUMP JUMPDEST PUSH0 PUSH1 0x20 DUP3 ADD SWAP1 POP PUSH2 0x1B69 PUSH0 DUP4 ADD DUP5 PUSH2 0x1B47 JUMP JUMPDEST SWAP3 SWAP2 POP POP JUMP JUMPDEST PUSH0 DUP1 PUSH0 DUP1 PUSH0 DUP1 PUSH0 DUP1 PUSH2 0x100 DUP10 DUP12 SUB SLT ISZERO PUSH2 0x1B8C JUMPI PUSH2 0x1B8B PUSH2 0x1A78 JUMP JUMPDEST JUMPDEST PUSH0 PUSH2 0x1B99 DUP12 DUP3 DUP13 ADD PUSH2 0x1AF5 JUMP JUMPDEST SWAP9 POP POP PUSH1 0x20 PUSH2 0x1BAA DUP12 DUP3 DUP13 ADD PUSH2 0x1AC2 JUMP JUMPDEST SWAP8 POP POP PUSH1 0x40 PUSH2 0x1BBB DUP12 DUP3 DUP13 ADD PUSH2 0x1AC2 JUMP JUMPDEST SWAP7 POP POP PUSH1 0x60 PUSH2 0x1BCC DUP12 DUP3 DUP13 ADD PUSH2 0x1AC2 JUMP JUMPDEST SWAP6 POP POP PUSH1 0x80 PUSH2 0x1BDD DUP12 DUP3 DUP13 ADD PUSH2 0x1AC2 JUMP JUMPDEST SWAP5 POP POP PUSH1 0xA0 PUSH2 0x1BEE DUP12 DUP3 DUP13 ADD PUSH2 0x1AF5 JUMP JUMPDEST SWAP4 POP POP PUSH1 0xC0 PUSH2 0x1BFF DUP12 DUP3 DUP13 ADD PUSH2 0x1AF5 JUMP JUMPDEST SWAP3 POP POP PUSH1 0xE0 PUSH2 0x1C10 DUP12 DUP3 DUP13 ADD PUSH2 0x1AF5 JUMP JUMPDEST SWAP2 POP POP SWAP3 SWAP6 SWAP9 POP SWAP3 SWAP6 SWAP9 SWAP1 SWAP4 SWAP7 POP JUMP JUMPDEST PUSH0 DUP1 PUSH0 DUP1 PUSH1 0x80 DUP6 DUP8 SUB SLT ISZERO PUSH2 0x1C38 JUMPI PUSH2 0x1C37 PUSH2 0x1A78 JUMP JUMPDEST JUMPDEST PUSH0 PUSH2 0x1C45 DUP8 DUP3 DUP9 ADD PUSH2 0x1AF5 JUMP JUMPDEST SWAP5 POP POP PUSH1 0x20 PUSH2 0x1C56 DUP8 DUP3 DUP9 ADD PUSH2 0x1AC2 JUMP JUMPDEST SWAP4 POP POP PUSH1 0x40 PUSH2 0x1C67 DUP8 DUP3 DUP9 ADD PUSH2 0x1AC2 JUMP JUMPDEST SWAP3 POP POP PUSH1 0x60 PUSH2 0x1C78 DUP8 DUP3 DUP9 ADD PUSH2 0x1AF5 JUMP JUMPDEST SWAP2 POP POP SWAP3 SWAP6 SWAP2 SWAP5 POP SWAP3 POP JUMP JUMPDEST PUSH0 DUP2 ISZERO ISZERO SWAP1 POP SWAP2 SWAP1 POP JUMP JUMPDEST PUSH2 0x1C98 DUP2 PUSH2 0x1C84 JUMP JUMPDEST DUP3 MSTORE POP POP JUMP JUMPDEST PUSH0 PUSH1 0x20 DUP3 ADD SWAP1 POP PUSH2 0x1CB1 PUSH0 DUP4 ADD DUP5 PUSH2 0x1C8F JUMP JUMPDEST SWAP3 SWAP2 POP POP JUMP JUMPDEST PUSH0 PUSH1 0x20 DUP3 DUP5 SUB SLT ISZERO PUSH2 0x1CCC JUMPI PUSH2 0x1CCB PUSH2 0x1A78 JUMP JUMPDEST JUMPDEST PUSH0 PUSH2 0x1CD9 DUP5 DUP3 DUP6 ADD PUSH2 0x1AF5 JUMP JUMPDEST SWAP2 POP POP SWAP3 SWAP2 POP POP JUMP JUMPDEST PUSH0 DUP2 MLOAD SWAP1 POP SWAP2 SWAP1 POP JUMP JUMPDEST PUSH0 DUP3 DUP3 MSTORE PUSH1 0x20 DUP3 ADD SWAP1 POP SWAP3 SWAP2 POP POP JUMP JUMPDEST PUSH0 JUMPDEST DUP4 DUP2 LT ISZERO PUSH2 0x1D19 JUMPI DUP1 DUP3 ADD MLOAD DUP2 DUP5 ADD MSTORE PUSH1 0x20 DUP2 ADD SWAP1 POP PUSH2 0x1CFE JUMP JUMPDEST PUSH0 DUP5 DUP5 ADD MSTORE POP POP POP POP JUMP JUMPDEST PUSH0 PUSH1 0x1F NOT PUSH1 0x1F DUP4 ADD AND SWAP1 POP SWAP2 SWAP1 POP JUMP JUMPDEST PUSH0 PUSH2 0x1D3E DUP3 PUSH2 0x1CE2 JUMP JUMPDEST PUSH2 0x1D48 DUP2 DUP6 PUSH2 0x1CEC JUMP JUMPDEST SWAP4 POP PUSH2 0x1D58 DUP2 DUP6 PUSH1 0x20 DUP7 ADD PUSH2 0x1CFC JUMP JUMPDEST PUSH2 0x1D61 DUP2 PUSH2 0x1D24 JUMP JUMPDEST DUP5 ADD SWAP2 POP POP SWAP3 SWAP2 POP POP JUMP JUMPDEST PUSH0 PUSH1 0x80 DUP3 ADD SWAP1 POP DUP2 DUP2 SUB PUSH0 DUP4 ADD MSTORE PUSH2 0x1D84 DUP2 DUP8 PUSH2 0x1D34 JUMP JUMPDEST SWAP1 POP DUP2 DUP2 SUB PUSH1 0x20 DUP4 ADD MSTORE PUSH2 0x1D98 DUP2 DUP7 PUSH2 0x1D34 JUMP JUMPDEST SWAP1 POP PUSH2 0x1DA7 PUSH1 0x40 DUP4 ADD DUP6 PUSH2 0x1B47 JUMP JUMPDEST PUSH2 0x1DB4 PUSH1 0x60 DUP4 ADD DUP5 PUSH2 0x1C8F JUMP JUMPDEST SWAP6 SWAP5 POP POP POP POP POP JUMP JUMPDEST PUSH2 0x1DC6 DUP2 PUSH2 0x1A9B JUMP JUMPDEST DUP3 MSTORE POP POP JUMP JUMPDEST PUSH0 PUSH1 0x20 DUP3 ADD SWAP1 POP PUSH2 0x1DDF PUSH0 DUP4 ADD DUP5 PUSH2 0x1DBD JUMP JUMPDEST SWAP3 SWAP2 POP POP JUMP JUMPDEST PUSH0 DUP1 PUSH0 PUSH1 0x60 DUP5 DUP7 SUB SLT ISZERO PUSH2 0x1DFC JUMPI PUSH2 0x1DFB PUSH2 0x1A78 JUMP JUMPDEST JUMPDEST PUSH0 PUSH2 0x1E09 DUP7 DUP3 DUP8 ADD PUSH2 0x1AF5 JUMP JUMPDEST SWAP4 POP POP PUSH1 0x20 PUSH2 0x1E1A DUP7 DUP3 DUP8 ADD PUSH2 0x1AF5 JUMP JUMPDEST SWAP3 POP POP PUSH1 0x40 PUSH2 0x1E2B DUP7 DUP3 DUP8 ADD PUSH2 0x1AF5 JUMP JUMPDEST SWAP2 POP POP SWAP3 POP SWAP3 POP SWAP3 JUMP JUMPDEST PUSH0 PUSH1 0x80 DUP3 ADD SWAP1 POP PUSH2 0x1E48 PUSH0 DUP4 ADD DUP8 PUSH2 0x1B47 JUMP JUMPDEST PUSH2 0x1E55 PUSH1 0x20 DUP4 ADD DUP7 PUSH2 0x1B47 JUMP JUMPDEST PUSH2 0x1E62 PUSH1 0x40 DUP4 ADD DUP6 PUSH2 0x1B47 JUMP JUMPDEST PUSH2 0x1E6F PUSH1 0x60 DUP4 ADD DUP5 PUSH2 0x1B47 JUMP JUMPDEST SWAP6 SWAP5 POP POP POP POP POP JUMP JUMPDEST PUSH0 DUP1 PUSH0 PUSH1 0x60 DUP5 DUP7 SUB SLT ISZERO PUSH2 0x1E8F JUMPI PUSH2 0x1E8E PUSH2 0x1A78 JUMP JUMPDEST JUMPDEST PUSH0 PUSH2 0x1E9C DUP7 DUP3 DUP8 ADD PUSH2 0x1AC2 JUMP JUMPDEST SWAP4 POP POP PUSH1 0x20 PUSH2 0x1EAD DUP7 DUP3 DUP8 ADD PUSH2 0x1AC2 JUMP JUMPDEST SWAP3 POP POP PUSH1 0x40 PUSH2 0x1EBE DUP7 DUP3 DUP8 ADD PUSH2 0x1AF5 JUMP JUMPDEST SWAP2 POP POP SWAP3 POP SWAP3 POP SWAP3 JUMP JUMPDEST PUSH0 DUP1 PUSH0 PUSH1 0x60 DUP5 DUP7 SUB SLT ISZERO PUSH2 0x1EDF JUMPI PUSH2 0x1EDE PUSH2 0x1A78 JUMP JUMPDEST JUMPDEST PUSH0 PUSH2 0x1EEC DUP7 DUP3 DUP8 ADD PUSH2 0x1AF5 JUMP JUMPDEST SWAP4 POP POP PUSH1 0x20 PUSH2 0x1EFD DUP7 DUP3 DUP8 ADD PUSH2 0x1AC2 JUMP JUMPDEST SWAP3 POP POP PUSH1 0x40 PUSH2 0x1F0E DUP7 DUP3 DUP8 ADD PUSH2 0x1AF5 JUMP JUMPDEST SWAP2 POP POP SWAP3 POP SWAP3 POP SWAP3 JUMP JUMPDEST PUSH0 PUSH1 0x20 DUP3 DUP5 SUB SLT ISZERO PUSH2 0x1F2D JUMPI PUSH2 0x1F2C PUSH2 0x1A78 JUMP JUMPDEST JUMPDEST PUSH0 PUSH2 0x1F3A DUP5 DUP3 DUP6 ADD PUSH2 0x1AC2 JUMP JUMPDEST SWAP2 POP POP SWAP3 SWAP2 POP POP JUMP JUMPDEST PUSH32 0x4F6E6C79205061696E74696E674E465420636F6E747261637400000000000000 PUSH0 DUP3 ADD MSTORE POP JUMP JUMPDEST PUSH0 PUSH2 0x1F77 PUSH1 0x19 DUP4 PUSH2 0x1CEC JUMP JUMPDEST SWAP2 POP PUSH2 0x1F82 DUP3 PUSH2 0x1F43 JUMP JUMPDEST PUSH1 0x20 DUP3 ADD SWAP1 POP SWAP2 SWAP1 POP JUMP JUMPDEST PUSH0 PUSH1 0x20 DUP3 ADD SWAP1 POP DUP2 DUP2 SUB PUSH0 DUP4 ADD MSTORE PUSH2 0x1FA4 DUP2 PUSH2 0x1F6B JUMP JUMPDEST SWAP1 POP SWAP2 SWAP1 POP JUMP JUMPDEST PUSH32 0x53686172657320616C7265616479206578697374000000000000000000000000 PUSH0 DUP3 ADD MSTORE POP JUMP JUMPDEST PUSH0 PUSH2 0x1FDF PUSH1 0x14 DUP4 PUSH2 0x1CEC JUMP JUMPDEST SWAP2 POP PUSH2 0x1FEA DUP3 PUSH2 0x1FAB JUMP JUMPDEST PUSH1 0x20 DUP3 ADD SWAP1 POP SWAP2 SWAP1 POP JUMP JUMPDEST PUSH0 PUSH1 0x20 DUP3 ADD SWAP1 POP DUP2 DUP2 SUB PUSH0 DUP4 ADD MSTORE PUSH2 0x200C DUP2 PUSH2 0x1FD3 JUMP JUMPDEST SWAP1 POP SWAP2 SWAP1 POP JUMP JUMPDEST PUSH32 0x4E487B7100000000000000000000000000000000000000000000000000000000 PUSH0 MSTORE PUSH1 0x11 PUSH1 0x4 MSTORE PUSH1 0x24 PUSH0 REVERT JUMPDEST PUSH0 PUSH2 0x204A DUP3 PUSH2 0x1AD6 JUMP JUMPDEST SWAP2 POP PUSH2 0x2055 DUP4 PUSH2 0x1AD6 JUMP JUMPDEST SWAP3 POP DUP3 DUP3 ADD SWAP1 POP DUP1 DUP3 GT ISZERO PUSH2 0x206D JUMPI PUSH2 0x206C PUSH2 0x2013 JUMP JUMPDEST JUMPDEST SWAP3 SWAP2 POP POP JUMP JUMPDEST PUSH32 0x496E76616C69642070657263656E746167657300000000000000000000000000 PUSH0 DUP3 ADD MSTORE POP JUMP JUMPDEST PUSH0 PUSH2 0x20A7 PUSH1 0x13 DUP4 PUSH2 0x1CEC JUMP JUMPDEST SWAP2 POP PUSH2 0x20B2 DUP3 PUSH2 0x2073 JUMP JUMPDEST PUSH1 0x20 DUP3 ADD SWAP1 POP SWAP2 SWAP1 POP JUMP JUMPDEST PUSH0 PUSH1 0x20 DUP3 ADD SWAP1 POP DUP2 DUP2 SUB PUSH0 DUP4 ADD MSTORE PUSH2 0x20D4 DUP2 PUSH2 0x209B JUMP JUMPDEST SWAP1 POP SWAP2 SWAP1 POP JUMP JUMPDEST PUSH0 DUP2 SWAP1 POP SWAP3 SWAP2 POP POP JUMP JUMPDEST PUSH32 0x5061696E74696E67200000000000000000000000000000000000000000000000 PUSH0 DUP3 ADD MSTORE POP JUMP JUMPDEST PUSH0 PUSH2 0x2119 PUSH1 0x9 DUP4 PUSH2 0x20DB JUMP JUMPDEST SWAP2 POP PUSH2 0x2124 DUP3 PUSH2 0x20E5 JUMP JUMPDEST PUSH1 0x9 DUP3 ADD SWAP1 POP SWAP2 SWAP1 POP JUMP JUMPDEST PUSH0 PUSH2 0x2139 DUP3 PUSH2 0x1CE2 JUMP JUMPDEST PUSH2 0x2143 DUP2 DUP6 PUSH2 0x20DB JUMP JUMPDEST SWAP4 POP PUSH2 0x2153 DUP2 DUP6 PUSH1 0x20 DUP7 ADD PUSH2 0x1CFC JUMP JUMPDEST DUP1 DUP5 ADD SWAP2 POP POP SWAP3 SWAP2 POP POP JUMP JUMPDEST PUSH32 0x2053686172657300000000000000000000000000000000000000000000000000 PUSH0 DUP3 ADD MSTORE POP JUMP JUMPDEST PUSH0 PUSH2 0x2193 PUSH1 0x7 DUP4 PUSH2 0x20DB JUMP JUMPDEST SWAP2 POP PUSH2 0x219E DUP3 PUSH2 0x215F JUMP JUMPDEST PUSH1 0x7 DUP3 ADD SWAP1 POP SWAP2 SWAP1 POP JUMP JUMPDEST PUSH0 PUSH2 0x21B3 DUP3 PUSH2 0x210D JUMP JUMPDEST SWAP2 POP PUSH2 0x21BF DUP3 DUP5 PUSH2 0x212F JUMP JUMPDEST SWAP2 POP PUSH2 0x21CA DUP3 PUSH2 0x2187 JUMP JUMPDEST SWAP2 POP DUP2 SWAP1 POP SWAP3 SWAP2 POP POP JUMP JUMPDEST PUSH32 0x5041494E54000000000000000000000000000000000000000000000000000000 PUSH0 DUP3 ADD MSTORE POP JUMP JUMPDEST PUSH0 PUSH2 0x2209 PUSH1 0x5 DUP4 PUSH2 0x20DB JUMP JUMPDEST SWAP2 POP PUSH2 0x2214 DUP3 PUSH2 0x21D5 JUMP JUMPDEST PUSH1 0x5 DUP3 ADD SWAP1 POP SWAP2 SWAP1 POP JUMP JUMPDEST PUSH0 PUSH2 0x2229 DUP3 PUSH2 0x21FD JUMP JUMPDEST SWAP2 POP PUSH2 0x2235 DUP3 DUP5 PUSH2 0x212F JUMP JUMPDEST SWAP2 POP DUP2 SWAP1 POP SWAP3 SWAP2 POP POP JUMP JUMPDEST PUSH32 0x4E487B7100000000000000000000000000000000000000000000000000000000 PUSH0 MSTORE PUSH1 0x41 PUSH1 0x4 MSTORE PUSH1 0x24 PUSH0 REVERT JUMPDEST PUSH32 0x4E487B7100000000000000000000000000000000000000000000000000000000 PUSH0 MSTORE PUSH1 0x22 PUSH1 0x4 MSTORE PUSH1 0x24 PUSH0 REVERT JUMPDEST PUSH0 PUSH1 0x2 DUP3 DIV SWAP1 POP PUSH1 0x1 DUP3 AND DUP1 PUSH2 0x22B1 JUMPI PUSH1 0x7F DUP3 AND SWAP2 POP JUMPDEST PUSH1 0x20 DUP3 LT DUP2 SUB PUSH2 0x22C4 JUMPI PUSH2 0x22C3 PUSH2 0x226D JUMP JUMPDEST JUMPDEST POP SWAP2 SWAP1 POP JUMP JUMPDEST PUSH0 DUP2 SWAP1 POP DUP2 PUSH0 MSTORE PUSH1 0x20 PUSH0 KECCAK256 SWAP1 POP SWAP2 SWAP1 POP JUMP JUMPDEST PUSH0 PUSH1 0x20 PUSH1 0x1F DUP4 ADD DIV SWAP1 POP SWAP2 SWAP1 POP JUMP JUMPDEST PUSH0 DUP3 DUP3 SHL SWAP1 POP SWAP3 SWAP2 POP POP JUMP JUMPDEST PUSH0 PUSH1 0x8 DUP4 MUL PUSH2 0x2326 PUSH32 0xFFFFFFFFFFFFFFFFFFFFFFFFFFFFFFFFFFFFFFFFFFFFFFFFFFFFFFFFFFFFFFFF DUP3 PUSH2 0x22EB JUMP JUMPDEST PUSH2 0x2330 DUP7 DUP4 PUSH2 0x22EB JUMP JUMPDEST SWAP6 POP DUP1 NOT DUP5 AND SWAP4 POP DUP1 DUP7 AND DUP5 OR SWAP3 POP POP POP SWAP4 SWAP3 POP POP POP JUMP JUMPDEST PUSH0 DUP2 SWAP1 POP SWAP2 SWAP1 POP JUMP JUMPDEST PUSH0 PUSH2 0x236B PUSH2 0x2366 PUSH2 0x2361 DUP5 PUSH2 0x1AD6 JUMP JUMPDEST PUSH2 0x2348 JUMP JUMPDEST PUSH2 0x1AD6 JUMP JUMPDEST SWAP1 POP SWAP2 SWAP1 POP JUMP JUMPDEST PUSH0 DUP2 SWAP1 POP SWAP2 SWAP1 POP JUMP JUMPDEST PUSH2 0x2384 DUP4 PUSH2 0x2351 JUMP JUMPDEST PUSH2 0x2398 PUSH2 0x2390 DUP3 PUSH2 0x2372 JUMP JUMPDEST DUP5 DUP5 SLOAD PUSH2 0x22F7 JUMP JUMPDEST DUP3 SSTORE POP POP POP POP JUMP JUMPDEST PUSH0 SWAP1 JUMP JUMPDEST PUSH2 0x23AC PUSH2 0x23A0 JUMP JUMPDEST PUSH2 0x23B7 DUP2 DUP5 DUP5 PUSH2 0x237B JUMP JUMPDEST POP POP POP JUMP JUMPDEST JUMPDEST DUP2 DUP2 LT ISZERO PUSH2 0x23DA JUMPI PUSH2 0x23CF PUSH0 DUP3 PUSH2 0x23A4 JUMP JUMPDEST PUSH1 0x1 DUP2 ADD SWAP1 POP PUSH2 0x23BD JUMP JUMPDEST POP POP JUMP JUMPDEST PUSH1 0x1F DUP3 GT ISZERO PUSH2 0x241F JUMPI PUSH2 0x23F0 DUP2 PUSH2 0x22CA JUMP JUMPDEST PUSH2 0x23F9 DUP5 PUSH2 0x22DC JUMP JUMPDEST DUP2 ADD PUSH1 0x20 DUP6 LT ISZERO PUSH2 0x2408 JUMPI DUP2 SWAP1 POP JUMPDEST PUSH2 0x241C PUSH2 0x2414 DUP6 PUSH2 0x22DC JUMP JUMPDEST DUP4 ADD DUP3 PUSH2 0x23BC JUMP JUMPDEST POP POP JUMPDEST POP POP POP JUMP JUMPDEST PUSH0 DUP3 DUP3 SHR SWAP1 POP SWAP3 SWAP2 POP POP JUMP JUMPDEST PUSH0 PUSH2 0x243F PUSH0 NOT DUP5 PUSH1 0x8 MUL PUSH2 0x2424 JUMP JUMPDEST NOT DUP1 DUP4 AND SWAP2 POP POP SWAP3 SWAP2 POP POP JUMP JUMPDEST PUSH0 PUSH2 0x2457 DUP4 DUP4 PUSH2 0x2430 JUMP JUMPDEST SWAP2 POP DUP3 PUSH1 0x2 MUL DUP3 OR SWAP1 POP SWAP3 SWAP2 POP POP JUMP JUMPDEST PUSH2 0x2470 DUP3 PUSH2 0x1CE2 JUMP JUMPDEST PUSH8 0xFFFFFFFFFFFFFFFF DUP2 GT ISZERO PUSH2 0x2489 JUMPI PUSH2 0x2488 PUSH2 0x2240 JUMP JUMPDEST JUMPDEST PUSH2 0x2493 DUP3 SLOAD PUSH2 0x229A JUMP JUMPDEST PUSH2 0x249E DUP3 DUP3 DUP6 PUSH2 0x23DE JUMP JUMPDEST PUSH0 PUSH1 0x20 SWAP1 POP PUSH1 0x1F DUP4 GT PUSH1 0x1 DUP2 EQ PUSH2 0x24CF JUMPI PUSH0 DUP5 ISZERO PUSH2 0x24BD JUMPI DUP3 DUP8 ADD MLOAD SWAP1 POP JUMPDEST PUSH2 0x24C7 DUP6 DUP3 PUSH2 0x244C JUMP JUMPDEST DUP7 SSTORE POP PUSH2 0x252E JUMP JUMPDEST PUSH1 0x1F NOT DUP5 AND PUSH2 0x24DD DUP7 PUSH2 0x22CA JUMP JUMPDEST PUSH0 JUMPDEST DUP3 DUP2 LT ISZERO PUSH2 0x2504 JUMPI DUP5 DUP10 ADD MLOAD DUP3 SSTORE PUSH1 0x1 DUP3 ADD SWAP2 POP PUSH1 0x20 DUP6 ADD SWAP5 POP PUSH1 0x20 DUP2 ADD SWAP1 POP PUSH2 0x24DF JUMP JUMPDEST DUP7 DUP4 LT ISZERO PUSH2 0x2521 JUMPI DUP5 DUP10 ADD MLOAD PUSH2 0x251D PUSH1 0x1F DUP10 AND DUP3 PUSH2 0x2430 JUMP JUMPDEST DUP4 SSTORE POP JUMPDEST PUSH1 0x1 PUSH1 0x2 DUP9 MUL ADD DUP9 SSTORE POP POP POP JUMPDEST POP POP POP POP POP POP JUMP JUMPDEST PUSH0 PUSH2 0x2540 DUP3 PUSH2 0x1AD6 JUMP JUMPDEST SWAP2 POP PUSH2 0x254B DUP4 PUSH2 0x1AD6 JUMP JUMPDEST SWAP3 POP DUP3 DUP3 MUL PUSH2 0x2559 DUP2 PUSH2 0x1AD6 JUMP JUMPDEST SWAP2 POP DUP3 DUP3 DIV DUP5 EQ DUP4 ISZERO OR PUSH2 0x2570 JUMPI PUSH2 0x256F PUSH2 0x2013 JUMP JUMPDEST JUMPDEST POP SWAP3 SWAP2 POP POP JUMP JUMPDEST PUSH32 0x4E487B7100000000000000000000000000000000000000000000000000000000 PUSH0 MSTORE PUSH1 0x12 PUSH1 0x4 MSTORE PUSH1 0x24 PUSH0 REVERT JUMPDEST PUSH0 PUSH2 0x25AE DUP3 PUSH2 0x1AD6 JUMP JUMPDEST SWAP2 POP PUSH2 0x25B9 DUP4 PUSH2 0x1AD6 JUMP JUMPDEST SWAP3 POP DUP3 PUSH2 0x25C9 JUMPI PUSH2 0x25C8 PUSH2 0x2577 JUMP JUMPDEST JUMPDEST DUP3 DUP3 DIV SWAP1 POP SWAP3 SWAP2 POP POP JUMP JUMPDEST PUSH32 0x506C6174666F726D207368617265732063616E6E6F7420626520300000000000 PUSH0 DUP3 ADD MSTORE POP JUMP JUMPDEST PUSH0 PUSH2 0x2608 PUSH1 0x1B DUP4 PUSH2 0x1CEC JUMP JUMPDEST SWAP2 POP PUSH2 0x2613 DUP3 PUSH2 0x25D4 JUMP JUMPDEST PUSH1 0x20 DUP3 ADD SWAP1 POP SWAP2 SWAP1 POP JUMP JUMPDEST PUSH0 PUSH1 0x20 DUP3 ADD SWAP1 POP DUP2 DUP2 SUB PUSH0 DUP4 ADD MSTORE PUSH2 0x2635 DUP2 PUSH2 0x25FC JUMP JUMPDEST SWAP1 POP SWAP2 SWAP1 POP JUMP JUMPDEST PUSH0 PUSH2 0x2646 DUP3 PUSH2 0x1AD6 JUMP JUMPDEST SWAP2 POP PUSH2 0x2651 DUP4 PUSH2 0x1AD6 JUMP JUMPDEST SWAP3 POP DUP3 DUP3 SUB SWAP1 POP DUP2 DUP2 GT ISZERO PUSH2 0x2669 JUMPI PUSH2 0x2668 PUSH2 0x2013 JUMP JUMPDEST JUMPDEST SWAP3 SWAP2 POP POP JUMP JUMPDEST PUSH0 PUSH1 0xC0 DUP3 ADD SWAP1 POP DUP2 DUP2 SUB PUSH0 DUP4 ADD MSTORE PUSH2 0x2687 DUP2 DUP10 PUSH2 0x1D34 JUMP JUMPDEST SWAP1 POP DUP2 DUP2 SUB PUSH1 0x20 DUP4 ADD MSTORE PUSH2 0x269B DUP2 DUP9 PUSH2 0x1D34 JUMP JUMPDEST SWAP1 POP PUSH2 0x26AA PUSH1 0x40 DUP4 ADD DUP8 PUSH2 0x1B47 JUMP JUMPDEST PUSH2 0x26B7 PUSH1 0x60 DUP4 ADD DUP7 PUSH2 0x1B47 JUMP JUMPDEST PUSH2 0x26C4 PUSH1 0x80 DUP4 ADD DUP6 PUSH2 0x1B47 JUMP JUMPDEST PUSH2 0x26D1 PUSH1 0xA0 DUP4 ADD DUP5 PUSH2 0x1B47 JUMP JUMPDEST SWAP8 SWAP7 POP POP POP POP POP POP POP JUMP JUMPDEST PUSH32 0x53686172657320646F6E277420657869737420666F722074686973207061696E PUSH0 DUP3 ADD MSTORE PUSH32 0x74696E6700000000000000000000000000000000000000000000000000000000 PUSH1 0x20 DUP3 ADD MSTORE POP JUMP JUMPDEST PUSH0 PUSH2 0x2736 PUSH1 0x24 DUP4 PUSH2 0x1CEC JUMP JUMPDEST SWAP2 POP PUSH2 0x2741 DUP3 PUSH2 0x26DC JUMP JUMPDEST PUSH1 0x40 DUP3 ADD SWAP1 POP SWAP2 SWAP1 POP JUMP JUMPDEST PUSH0 PUSH1 0x20 DUP3 ADD SWAP1 POP DUP2 DUP2 SUB PUSH0 DUP4 ADD MSTORE PUSH2 0x2763 DUP2 PUSH2 0x272A JUMP JUMPDEST SWAP1 POP SWAP2 SWAP1 POP JUMP JUMPDEST PUSH32 0x5472616E7366657220746F207A65726F20616464726573730000000000000000 PUSH0 DUP3 ADD MSTORE POP JUMP JUMPDEST PUSH0 PUSH2 0x279E PUSH1 0x18 DUP4 PUSH2 0x1CEC JUMP JUMPDEST SWAP2 POP PUSH2 0x27A9 DUP3 PUSH2 0x276A JUMP JUMPDEST PUSH1 0x20 DUP3 ADD SWAP1 POP SWAP2 SWAP1 POP JUMP JUMPDEST PUSH0 PUSH1 0x20 DUP3 ADD SWAP1 POP DUP2 DUP2 SUB PUSH0 DUP4 ADD MSTORE PUSH2 0x27CB DUP2 PUSH2 0x2792 JUMP JUMPDEST SWAP1 POP SWAP2 SWAP1 POP JUMP JUMPDEST PUSH32 0x496E73756666696369656E742062616C616E6365000000000000000000000000 PUSH0 DUP3 ADD MSTORE POP JUMP JUMPDEST PUSH0 PUSH2 0x2806 PUSH1 0x14 DUP4 PUSH2 0x1CEC JUMP JUMPDEST SWAP2 POP PUSH2 0x2811 DUP3 PUSH2 0x27D2 JUMP JUMPDEST PUSH1 0x20 DUP3 ADD SWAP1 POP SWAP2 SWAP1 POP JUMP JUMPDEST PUSH0 PUSH1 0x20 DUP3 ADD SWAP1 POP DUP2 DUP2 SUB PUSH0 DUP4 ADD MSTORE PUSH2 0x2833 DUP2 PUSH2 0x27FA JUMP JUMPDEST SWAP1 POP SWAP2 SWAP1 POP JUMP JUMPDEST PUSH32 0x496E73756666696369656E7420616C6C6F77616E636500000000000000000000 PUSH0 DUP3 ADD MSTORE POP JUMP JUMPDEST PUSH0 PUSH2 0x286E PUSH1 0x16 DUP4 PUSH2 0x1CEC JUMP JUMPDEST SWAP2 POP PUSH2 0x2879 DUP3 PUSH2 0x283A JUMP JUMPDEST PUSH1 0x20 DUP3 ADD SWAP1 POP SWAP2 SWAP1 POP JUMP JUMPDEST PUSH0 PUSH1 0x20 DUP3 ADD SWAP1 POP DUP2 DUP2 SUB PUSH0 DUP4 ADD MSTORE PUSH2 0x289B DUP2 PUSH2 0x2862 JUMP JUMPDEST SWAP1 POP SWAP2 SWAP1 POP JUMP JUMPDEST PUSH32 0x417070726F766520746F207A65726F2061646472657373000000000000000000 PUSH0 DUP3 ADD MSTORE POP JUMP JUMPDEST PUSH0 PUSH2 0x28D6 PUSH1 0x17 DUP4 PUSH2 0x1CEC JUMP JUMPDEST SWAP2 POP PUSH2 0x28E1 DUP3 PUSH2 0x28A2 JUMP JUMPDEST PUSH1 0x20 DUP3 ADD SWAP1 POP SWAP2 SWAP1 POP JUMP JUMPDEST PUSH0 PUSH1 0x20 DUP3 ADD SWAP1 POP DUP2 DUP2 SUB PUSH0 DUP4 ADD MSTORE PUSH2 0x2903 DUP2 PUSH2 0x28CA JUMP JUMPDEST SWAP1 POP SWAP2 SWAP1 POP JUMP JUMPDEST PUSH32 0x496E76616C696420616464726573730000000000000000000000000000000000 PUSH0 DUP3 ADD MSTORE POP JUMP JUMPDEST PUSH0 PUSH2 0x293E PUSH1 0xF DUP4 PUSH2 0x1CEC JUMP JUMPDEST SWAP2 POP PUSH2 0x2949 DUP3 PUSH2 0x290A JUMP JUMPDEST PUSH1 0x20 DUP3 ADD SWAP1 POP SWAP2 SWAP1 POP JUMP JUMPDEST PUSH0 PUSH1 0x20 DUP3 ADD SWAP1 POP DUP2 DUP2 SUB PUSH0 DUP4 ADD MSTORE PUSH2 0x296B DUP2 PUSH2 0x2932 JUMP JUMPDEST SWAP1 POP SWAP2 SWAP1 POP JUMP JUMPDEST PUSH32 0x5061757361626C653A2070617573656400000000000000000000000000000000 PUSH0 DUP3 ADD MSTORE POP JUMP JUMPDEST PUSH0 PUSH2 0x29A6 PUSH1 0x10 DUP4 PUSH2 0x1CEC JUMP JUMPDEST SWAP2 POP PUSH2 0x29B1 DUP3 PUSH2 0x2972 JUMP JUMPDEST PUSH1 0x20 DUP3 ADD SWAP1 POP SWAP2 SWAP1 POP JUMP JUMPDEST PUSH0 PUSH1 0x20 DUP3 ADD SWAP1 POP DUP2 DUP2 SUB PUSH0 DUP4 ADD MSTORE PUSH2 0x29D3 DUP2 PUSH2 0x299A JUMP JUMPDEST SWAP1 POP SWAP2 SWAP1 POP JUMP JUMPDEST PUSH0 PUSH2 0x29E4 DUP3 PUSH2 0x1AD6 JUMP JUMPDEST SWAP2 POP PUSH32 0xFFFFFFFFFFFFFFFFFFFFFFFFFFFFFFFFFFFFFFFFFFFFFFFFFFFFFFFFFFFFFFFF DUP3 SUB PUSH2 0x2A16 JUMPI PUSH2 0x2A15 PUSH2 0x2013 JUMP JUMPDEST JUMPDEST PUSH1 0x1 DUP3 ADD SWAP1 POP SWAP2 SWAP1 POP JUMP JUMPDEST PUSH0 PUSH2 0x2A2B DUP3 PUSH2 0x1AD6 JUMP JUMPDEST SWAP2 POP PUSH2 0x2A36 DUP4 PUSH2 0x1AD6 JUMP JUMPDEST SWAP3 POP DUP3 PUSH2 0x2A46 JUMPI PUSH2 0x2A45 PUSH2 0x2577 JUMP JUMPDEST JUMPDEST DUP3 DUP3 MOD SWAP1 POP SWAP3 SWAP2 POP POP JUMP JUMPDEST PUSH32 0x4E487B7100000000000000000000000000000000000000000000000000000000 PUSH0 MSTORE PUSH1 0x32 PUSH1 0x4 MSTORE PUSH1 0x24 PUSH0 REVERT JUMPDEST PUSH32 0x4D696E7420746F207A65726F2061646472657373000000000000000000000000 PUSH0 DUP3 ADD MSTORE POP JUMP JUMPDEST PUSH0 PUSH2 0x2AB2 PUSH1 0x14 DUP4 PUSH2 0x1CEC JUMP JUMPDEST SWAP2 POP PUSH2 0x2ABD DUP3 PUSH2 0x2A7E JUMP JUMPDEST PUSH1 0x20 DUP3 ADD SWAP1 POP SWAP2 SWAP1 POP JUMP JUMPDEST PUSH0 PUSH1 0x20 DUP3 ADD SWAP1 POP DUP2 DUP2 SUB PUSH0 DUP4 ADD MSTORE PUSH2 0x2ADF DUP2 PUSH2 0x2AA6 JUMP JUMPDEST SWAP1 POP SWAP2 SWAP1 POP JUMP JUMPDEST PUSH32 0x5265656E7472616E637947756172643A207265656E7472616E742063616C6C00 PUSH0 DUP3 ADD MSTORE POP JUMP JUMPDEST PUSH0 PUSH2 0x2B1A PUSH1 0x1F DUP4 PUSH2 0x1CEC JUMP JUMPDEST SWAP2 POP PUSH2 0x2B25 DUP3 PUSH2 0x2AE6 JUMP JUMPDEST PUSH1 0x20 DUP3 ADD SWAP1 POP SWAP2 SWAP1 POP JUMP JUMPDEST PUSH0 PUSH1 0x20 DUP3 ADD SWAP1 POP DUP2 DUP2 SUB PUSH0 DUP4 ADD MSTORE PUSH2 0x2B47 DUP2 PUSH2 0x2B0E JUMP JUMPDEST SWAP1 POP SWAP2 SWAP1 POP JUMP JUMPDEST PUSH32 0x5061757361626C653A206E6F7420706175736564000000000000000000000000 PUSH0 DUP3 ADD MSTORE POP JUMP JUMPDEST PUSH0 PUSH2 0x2B82 PUSH1 0x14 DUP4 PUSH2 0x1CEC JUMP JUMPDEST SWAP2 POP PUSH2 0x2B8D DUP3 PUSH2 0x2B4E JUMP JUMPDEST PUSH1 0x20 DUP3 ADD SWAP1 POP SWAP2 SWAP1 POP JUMP JUMPDEST PUSH0 PUSH1 0x20 DUP3 ADD SWAP1 POP DUP2 DUP2 SUB PUSH0 DUP4 ADD MSTORE PUSH2 0x2BAF DUP2 PUSH2 0x2B76 JUMP JUMPDEST SWAP1 POP SWAP2 SWAP1 POP JUMP INVALID LOG2 PUSH5 0x6970667358 0x22 SLT KECCAK256 0xE2 0xBD 0xC9 PUSH3 0xAA6FE0 0x4E 0x1E 0xE0 0xCF 0xE6 0x5D 0xA5 0x28 0xEB JUMPDEST 0xC3 0xA5 0xAE PREVRANDAO 0xE5 SWAP8 0x49 0xAD EXTCODECOPY 0xAF SWAP7 DUP7 SWAP15 SWAP1 SMOD PUSH5 0x736F6C6343 STOP ADDMOD EQ STOP CALLER "
				},
				"gasEstimates": {
					"creation": {
						"codeDepositCost": "2248800",
						"executionCost": "infinite",
						"totalCost": "infinite"
					},
					"external": {
						"TOTAL_SHARES()": "414",
						"allowance(address,address,uint256)": "infinite",
						"approve(uint256,address,uint256)": "infinite",
						"balanceOf(address,uint256)": "infinite",
						"createSharesForPainting(uint256,address,address,address,address,uint256,uint256,uint256)": "infinite",
						"debugShareCalculation(uint256,uint256,uint256)": "infinite",
						"getShareInfo(uint256)": "infinite",
						"owner()": "2559",
						"paintingNFTContract()": "2531",
						"pause()": "infinite",
						"paused()": "2547",
						"renounceOwnership()": "infinite",
						"setPaintingNFTContract(address)": "infinite",
						"shares(uint256)": "infinite",
						"transfer(uint256,address,uint256)": "infinite",
						"transferFrom(uint256,address,address,uint256)": "infinite",
						"transferOwnership(address)": "infinite",
						"unpause()": "infinite"
					},
					"internal": {
						"_mintShares(uint256,address,uint256)": "infinite",
						"_toString(uint256)": "infinite",
						"_transfer(uint256,address,address,uint256)": "infinite"
					}
				},
				"methodIdentifiers": {
					"TOTAL_SHARES()": "85e3f997",
					"allowance(address,address,uint256)": "598af9e7",
					"approve(uint256,address,uint256)": "8cb0a511",
					"balanceOf(address,uint256)": "00fdd58e",
					"createSharesForPainting(uint256,address,address,address,address,uint256,uint256,uint256)": "17ba1245",
					"debugShareCalculation(uint256,uint256,uint256)": "5258ff13",
					"getShareInfo(uint256)": "1d92d3b9",
					"owner()": "8da5cb5b",
					"paintingNFTContract()": "277b9efe",
					"pause()": "8456cb59",
					"paused()": "5c975abb",
					"renounceOwnership()": "715018a6",
					"setPaintingNFTContract(address)": "ad324cce",
					"shares(uint256)": "57a858fc",
					"transfer(uint256,address,uint256)": "f8548e36",
					"transferFrom(uint256,address,address,uint256)": "1c0f12b6",
					"transferOwnership(address)": "f2fde38b",
					"unpause()": "3f4ba83a"
				}
			},
			"storageLayout": {
				"storage": [
					{
						"astId": 8,
						"contract": "Wallery/PaintingShares.sol:PaintingShares",
						"label": "_owner",
						"offset": 0,
						"slot": "0",
						"type": "t_address"
					},
					{
						"astId": 165,
						"contract": "Wallery/PaintingShares.sol:PaintingShares",
						"label": "_paused",
						"offset": 20,
						"slot": "0",
						"type": "t_bool"
					},
					{
						"astId": 266,
						"contract": "Wallery/PaintingShares.sol:PaintingShares",
						"label": "_status",
						"offset": 0,
						"slot": "1",
						"type": "t_uint256"
					},
					{
						"astId": 382,
						"contract": "Wallery/PaintingShares.sol:PaintingShares",
						"label": "shares",
						"offset": 0,
						"slot": "2",
						"type": "t_mapping(t_uint256,t_struct(ShareInfo)377_storage)"
					},
					{
						"astId": 388,
						"contract": "Wallery/PaintingShares.sol:PaintingShares",
						"label": "balanceOf",
						"offset": 0,
						"slot": "3",
						"type": "t_mapping(t_address,t_mapping(t_uint256,t_uint256))"
					},
					{
						"astId": 396,
						"contract": "Wallery/PaintingShares.sol:PaintingShares",
						"label": "allowance",
						"offset": 0,
						"slot": "4",
						"type": "t_mapping(t_address,t_mapping(t_address,t_mapping(t_uint256,t_uint256)))"
					},
					{
						"astId": 398,
						"contract": "Wallery/PaintingShares.sol:PaintingShares",
						"label": "paintingNFTContract",
						"offset": 0,
						"slot": "5",
						"type": "t_address"
					}
				],
				"types": {
					"t_address": {
						"encoding": "inplace",
						"label": "address",
						"numberOfBytes": "20"
					},
					"t_bool": {
						"encoding": "inplace",
						"label": "bool",
						"numberOfBytes": "1"
					},
					"t_mapping(t_address,t_mapping(t_address,t_mapping(t_uint256,t_uint256)))": {
						"encoding": "mapping",
						"key": "t_address",
						"label": "mapping(address => mapping(address => mapping(uint256 => uint256)))",
						"numberOfBytes": "32",
						"value": "t_mapping(t_address,t_mapping(t_uint256,t_uint256))"
					},
					"t_mapping(t_address,t_mapping(t_uint256,t_uint256))": {
						"encoding": "mapping",
						"key": "t_address",
						"label": "mapping(address => mapping(uint256 => uint256))",
						"numberOfBytes": "32",
						"value": "t_mapping(t_uint256,t_uint256)"
					},
					"t_mapping(t_address,t_uint256)": {
						"encoding": "mapping",
						"key": "t_address",
						"label": "mapping(address => uint256)",
						"numberOfBytes": "32",
						"value": "t_uint256"
					},
					"t_mapping(t_uint256,t_struct(ShareInfo)377_storage)": {
						"encoding": "mapping",
						"key": "t_uint256",
						"label": "mapping(uint256 => struct PaintingShares.ShareInfo)",
						"numberOfBytes": "32",
						"value": "t_struct(ShareInfo)377_storage"
					},
					"t_mapping(t_uint256,t_uint256)": {
						"encoding": "mapping",
						"key": "t_uint256",
						"label": "mapping(uint256 => uint256)",
						"numberOfBytes": "32",
						"value": "t_uint256"
					},
					"t_string_storage": {
						"encoding": "bytes",
						"label": "string",
						"numberOfBytes": "32"
					},
					"t_struct(ShareInfo)377_storage": {
						"encoding": "inplace",
						"label": "struct PaintingShares.ShareInfo",
						"members": [
							{
								"astId": 366,
								"contract": "Wallery/PaintingShares.sol:PaintingShares",
								"label": "name",
								"offset": 0,
								"slot": "0",
								"type": "t_string_storage"
							},
							{
								"astId": 368,
								"contract": "Wallery/PaintingShares.sol:PaintingShares",
								"label": "symbol",
								"offset": 0,
								"slot": "1",
								"type": "t_string_storage"
							},
							{
								"astId": 370,
								"contract": "Wallery/PaintingShares.sol:PaintingShares",
								"label": "totalSupply",
								"offset": 0,
								"slot": "2",
								"type": "t_uint256"
							},
							{
								"astId": 372,
								"contract": "Wallery/PaintingShares.sol:PaintingShares",
								"label": "exists",
								"offset": 0,
								"slot": "3",
								"type": "t_bool"
							},
							{
								"astId": 376,
								"contract": "Wallery/PaintingShares.sol:PaintingShares",
								"label": "balances",
								"offset": 0,
								"slot": "4",
								"type": "t_mapping(t_address,t_uint256)"
							}
						],
						"numberOfBytes": "160"
					},
					"t_uint256": {
						"encoding": "inplace",
						"label": "uint256",
						"numberOfBytes": "32"
					}
				}
			},
			"userdoc": {
				"kind": "user",
				"methods": {},
				"version": 1
			}
		}
	}
}