{
	"Wallery/Rolemanager.sol": {
		"RoleManager": {
			"abi": [
				{
					"inputs": [],
					"stateMutability": "nonpayable",
					"type": "constructor"
				},
				{
					"inputs": [],
					"name": "AccessControlBadConfirmation",
					"type": "error"
				},
				{
					"inputs": [
						{
							"internalType": "address",
							"name": "account",
							"type": "address"
						},
						{
							"internalType": "bytes32",
							"name": "neededRole",
							"type": "bytes32"
						}
					],
					"name": "AccessControlUnauthorizedAccount",
					"type": "error"
				},
				{
					"anonymous": false,
					"inputs": [
						{
							"indexed": false,
							"internalType": "address",
							"name": "account",
							"type": "address"
						}
					],
					"name": "Paused",
					"type": "event"
				},
				{
					"anonymous": false,
					"inputs": [
						{
							"indexed": true,
							"internalType": "bytes32",
							"name": "role",
							"type": "bytes32"
						},
						{
							"indexed": true,
							"internalType": "bytes32",
							"name": "previousAdminRole",
							"type": "bytes32"
						},
						{
							"indexed": true,
							"internalType": "bytes32",
							"name": "newAdminRole",
							"type": "bytes32"
						}
					],
					"name": "RoleAdminChanged",
					"type": "event"
				},
				{
					"anonymous": false,
					"inputs": [
						{
							"indexed": true,
							"internalType": "address",
							"name": "user",
							"type": "address"
						},
						{
							"indexed": true,
							"internalType": "bytes32",
							"name": "role",
							"type": "bytes32"
						}
					],
					"name": "RoleAssigned",
					"type": "event"
				},
				{
					"anonymous": false,
					"inputs": [
						{
							"indexed": true,
							"internalType": "bytes32",
							"name": "role",
							"type": "bytes32"
						},
						{
							"indexed": true,
							"internalType": "address",
							"name": "account",
							"type": "address"
						},
						{
							"indexed": true,
							"internalType": "address",
							"name": "sender",
							"type": "address"
						}
					],
					"name": "RoleGranted",
					"type": "event"
				},
				{
					"anonymous": false,
					"inputs": [
						{
							"indexed": true,
							"internalType": "address",
							"name": "requester",
							"type": "address"
						},
						{
							"indexed": true,
							"internalType": "bytes32",
							"name": "role",
							"type": "bytes32"
						}
					],
					"name": "RoleRequestApproved",
					"type": "event"
				},
				{
					"anonymous": false,
					"inputs": [
						{
							"indexed": true,
							"internalType": "address",
							"name": "requester",
							"type": "address"
						},
						{
							"indexed": true,
							"internalType": "bytes32",
							"name": "role",
							"type": "bytes32"
						}
					],
					"name": "RoleRequestRejected",
					"type": "event"
				},
				{
					"anonymous": false,
					"inputs": [
						{
							"indexed": true,
							"internalType": "address",
							"name": "requester",
							"type": "address"
						},
						{
							"indexed": true,
							"internalType": "bytes32",
							"name": "role",
							"type": "bytes32"
						},
						{
							"indexed": false,
							"internalType": "string",
							"name": "reason",
							"type": "string"
						}
					],
					"name": "RoleRequested",
					"type": "event"
				},
				{
					"anonymous": false,
					"inputs": [
						{
							"indexed": true,
							"internalType": "bytes32",
							"name": "role",
							"type": "bytes32"
						},
						{
							"indexed": true,
							"internalType": "address",
							"name": "account",
							"type": "address"
						},
						{
							"indexed": true,
							"internalType": "address",
							"name": "sender",
							"type": "address"
						}
					],
					"name": "RoleRevoked",
					"type": "event"
				},
				{
					"anonymous": false,
					"inputs": [
						{
							"indexed": true,
							"internalType": "address",
							"name": "user",
							"type": "address"
						},
						{
							"indexed": true,
							"internalType": "bytes32",
							"name": "role",
							"type": "bytes32"
						}
					],
					"name": "RoleRevoked",
					"type": "event"
				},
				{
					"anonymous": false,
					"inputs": [
						{
							"indexed": false,
							"internalType": "address",
							"name": "account",
							"type": "address"
						}
					],
					"name": "Unpaused",
					"type": "event"
				},
				{
					"anonymous": false,
					"inputs": [
						{
							"indexed": true,
							"internalType": "address",
							"name": "requester",
							"type": "address"
						}
					],
					"name": "UserInfoRequestApproved",
					"type": "event"
				},
				{
					"anonymous": false,
					"inputs": [
						{
							"indexed": true,
							"internalType": "address",
							"name": "requester",
							"type": "address"
						}
					],
					"name": "UserInfoRequestRejected",
					"type": "event"
				},
				{
					"anonymous": false,
					"inputs": [
						{
							"indexed": true,
							"internalType": "address",
							"name": "requester",
							"type": "address"
						},
						{
							"indexed": false,
							"internalType": "bool",
							"name": "isUpdate",
							"type": "bool"
						}
					],
					"name": "UserInfoRequested",
					"type": "event"
				},
				{
					"anonymous": false,
					"inputs": [
						{
							"indexed": true,
							"internalType": "address",
							"name": "user",
							"type": "address"
						}
					],
					"name": "UserInfoUpdated",
					"type": "event"
				},
				{
					"inputs": [],
					"name": "ADMIN_ROLE",
					"outputs": [
						{
							"internalType": "bytes32",
							"name": "",
							"type": "bytes32"
						}
					],
					"stateMutability": "view",
					"type": "function"
				},
				{
					"inputs": [],
					"name": "DEFAULT_ADMIN_ROLE",
					"outputs": [
						{
							"internalType": "bytes32",
							"name": "",
							"type": "bytes32"
						}
					],
					"stateMutability": "view",
					"type": "function"
				},
				{
					"inputs": [],
					"name": "GALLERY_OWNER_ROLE",
					"outputs": [
						{
							"internalType": "bytes32",
							"name": "",
							"type": "bytes32"
						}
					],
					"stateMutability": "view",
					"type": "function"
				},
				{
					"inputs": [],
					"name": "PAINTER_ROLE",
					"outputs": [
						{
							"internalType": "bytes32",
							"name": "",
							"type": "bytes32"
						}
					],
					"stateMutability": "view",
					"type": "function"
				},
				{
					"inputs": [],
					"name": "SPONSOR_ROLE",
					"outputs": [
						{
							"internalType": "bytes32",
							"name": "",
							"type": "bytes32"
						}
					],
					"stateMutability": "view",
					"type": "function"
				},
				{
					"inputs": [],
					"name": "WALL_OWNER_ROLE",
					"outputs": [
						{
							"internalType": "bytes32",
							"name": "",
							"type": "bytes32"
						}
					],
					"stateMutability": "view",
					"type": "function"
				},
				{
					"inputs": [
						{
							"internalType": "address",
							"name": "_requester",
							"type": "address"
						},
						{
							"internalType": "bytes32",
							"name": "_role",
							"type": "bytes32"
						}
					],
					"name": "approveRoleRequest",
					"outputs": [],
					"stateMutability": "nonpayable",
					"type": "function"
				},
				{
					"inputs": [
						{
							"internalType": "address",
							"name": "requester",
							"type": "address"
						}
					],
					"name": "approveUserInfoRequest",
					"outputs": [],
					"stateMutability": "nonpayable",
					"type": "function"
				},
				{
					"inputs": [
						{
							"internalType": "address",
							"name": "_user",
							"type": "address"
						},
						{
							"internalType": "bytes32",
							"name": "_role",
							"type": "bytes32"
						}
					],
					"name": "assignRole",
					"outputs": [],
					"stateMutability": "nonpayable",
					"type": "function"
				},
				{
					"inputs": [],
					"name": "getPendingRequests",
					"outputs": [
						{
							"components": [
								{
									"internalType": "address",
									"name": "requester",
									"type": "address"
								},
								{
									"internalType": "bytes32",
									"name": "role",
									"type": "bytes32"
								},
								{
									"internalType": "string",
									"name": "reason",
									"type": "string"
								},
								{
									"internalType": "bool",
									"name": "pending",
									"type": "bool"
								},
								{
									"internalType": "bool",
									"name": "approved",
									"type": "bool"
								}
							],
							"internalType": "struct RoleManager.RoleRequest[]",
							"name": "",
							"type": "tuple[]"
						}
					],
					"stateMutability": "view",
					"type": "function"
				},
				{
					"inputs": [
						{
							"internalType": "bytes32",
							"name": "role",
							"type": "bytes32"
						}
					],
					"name": "getRoleAdmin",
					"outputs": [
						{
							"internalType": "bytes32",
							"name": "",
							"type": "bytes32"
						}
					],
					"stateMutability": "view",
					"type": "function"
				},
				{
					"inputs": [
						{
							"internalType": "address",
							"name": "_requester",
							"type": "address"
						},
						{
							"internalType": "bytes32",
							"name": "_role",
							"type": "bytes32"
						}
					],
					"name": "getRoleRequest",
					"outputs": [
						{
							"internalType": "address",
							"name": "requester",
							"type": "address"
						},
						{
							"internalType": "bytes32",
							"name": "role",
							"type": "bytes32"
						},
						{
							"internalType": "string",
							"name": "reason",
							"type": "string"
						},
						{
							"internalType": "bool",
							"name": "pending",
							"type": "bool"
						},
						{
							"internalType": "bool",
							"name": "approved",
							"type": "bool"
						}
					],
					"stateMutability": "view",
					"type": "function"
				},
				{
					"inputs": [
						{
							"internalType": "address",
							"name": "user",
							"type": "address"
						}
					],
					"name": "getUserInfo",
					"outputs": [
						{
							"internalType": "string",
							"name": "firstName",
							"type": "string"
						},
						{
							"internalType": "string",
							"name": "lastName",
							"type": "string"
						},
						{
							"internalType": "string",
							"name": "email",
							"type": "string"
						},
						{
							"internalType": "string",
							"name": "organization",
							"type": "string"
						},
						{
							"internalType": "address",
							"name": "walletAddress",
							"type": "address"
						}
					],
					"stateMutability": "view",
					"type": "function"
				},
				{
					"inputs": [
						{
							"internalType": "bytes32",
							"name": "role",
							"type": "bytes32"
						},
						{
							"internalType": "address",
							"name": "account",
							"type": "address"
						}
					],
					"name": "grantRole",
					"outputs": [],
					"stateMutability": "nonpayable",
					"type": "function"
				},
				{
					"inputs": [
						{
							"internalType": "bytes32",
							"name": "role",
							"type": "bytes32"
						},
						{
							"internalType": "address",
							"name": "account",
							"type": "address"
						}
					],
					"name": "hasRole",
					"outputs": [
						{
							"internalType": "bool",
							"name": "",
							"type": "bool"
						}
					],
					"stateMutability": "view",
					"type": "function"
				},
				{
					"inputs": [],
					"name": "pause",
					"outputs": [],
					"stateMutability": "nonpayable",
					"type": "function"
				},
				{
					"inputs": [],
					"name": "paused",
					"outputs": [
						{
							"internalType": "bool",
							"name": "",
							"type": "bool"
						}
					],
					"stateMutability": "view",
					"type": "function"
				},
				{
					"inputs": [
						{
							"internalType": "uint256",
							"name": "",
							"type": "uint256"
						}
					],
					"name": "pendingRequests",
					"outputs": [
						{
							"internalType": "address",
							"name": "requester",
							"type": "address"
						},
						{
							"internalType": "bytes32",
							"name": "role",
							"type": "bytes32"
						},
						{
							"internalType": "string",
							"name": "reason",
							"type": "string"
						},
						{
							"internalType": "bool",
							"name": "pending",
							"type": "bool"
						},
						{
							"internalType": "bool",
							"name": "approved",
							"type": "bool"
						}
					],
					"stateMutability": "view",
					"type": "function"
				},
				{
					"inputs": [
						{
							"internalType": "address",
							"name": "_requester",
							"type": "address"
						},
						{
							"internalType": "bytes32",
							"name": "_role",
							"type": "bytes32"
						}
					],
					"name": "rejectRoleRequest",
					"outputs": [],
					"stateMutability": "nonpayable",
					"type": "function"
				},
				{
					"inputs": [
						{
							"internalType": "address",
							"name": "requester",
							"type": "address"
						}
					],
					"name": "rejectUserInfoRequest",
					"outputs": [],
					"stateMutability": "nonpayable",
					"type": "function"
				},
				{
					"inputs": [
						{
							"internalType": "bytes32",
							"name": "role",
							"type": "bytes32"
						},
						{
							"internalType": "address",
							"name": "callerConfirmation",
							"type": "address"
						}
					],
					"name": "renounceRole",
					"outputs": [],
					"stateMutability": "nonpayable",
					"type": "function"
				},
				{
					"inputs": [
						{
							"internalType": "bytes32",
							"name": "_role",
							"type": "bytes32"
						},
						{
							"internalType": "string",
							"name": "_reason",
							"type": "string"
						}
					],
					"name": "requestRole",
					"outputs": [],
					"stateMutability": "nonpayable",
					"type": "function"
				},
				{
					"inputs": [
						{
							"internalType": "string",
							"name": "firstName",
							"type": "string"
						},
						{
							"internalType": "string",
							"name": "lastName",
							"type": "string"
						},
						{
							"internalType": "string",
							"name": "email",
							"type": "string"
						},
						{
							"internalType": "string",
							"name": "organization",
							"type": "string"
						}
					],
					"name": "requestUserInfo",
					"outputs": [],
					"stateMutability": "nonpayable",
					"type": "function"
				},
				{
					"inputs": [
						{
							"internalType": "address",
							"name": "_user",
							"type": "address"
						},
						{
							"internalType": "bytes32",
							"name": "_role",
							"type": "bytes32"
						}
					],
					"name": "revokeRole",
					"outputs": [],
					"stateMutability": "nonpayable",
					"type": "function"
				},
				{
					"inputs": [
						{
							"internalType": "bytes32",
							"name": "role",
							"type": "bytes32"
						},
						{
							"internalType": "address",
							"name": "account",
							"type": "address"
						}
					],
					"name": "revokeRole",
					"outputs": [],
					"stateMutability": "nonpayable",
					"type": "function"
				},
				{
					"inputs": [
						{
							"internalType": "address",
							"name": "",
							"type": "address"
						},
						{
							"internalType": "bytes32",
							"name": "",
							"type": "bytes32"
						}
					],
					"name": "roleRequests",
					"outputs": [
						{
							"internalType": "address",
							"name": "requester",
							"type": "address"
						},
						{
							"internalType": "bytes32",
							"name": "role",
							"type": "bytes32"
						},
						{
							"internalType": "string",
							"name": "reason",
							"type": "string"
						},
						{
							"internalType": "bool",
							"name": "pending",
							"type": "bool"
						},
						{
							"internalType": "bool",
							"name": "approved",
							"type": "bool"
						}
					],
					"stateMutability": "view",
					"type": "function"
				},
				{
					"inputs": [
						{
							"internalType": "bytes4",
							"name": "interfaceId",
							"type": "bytes4"
						}
					],
					"name": "supportsInterface",
					"outputs": [
						{
							"internalType": "bool",
							"name": "",
							"type": "bool"
						}
					],
					"stateMutability": "view",
					"type": "function"
				},
				{
					"inputs": [],
					"name": "unpause",
					"outputs": [],
					"stateMutability": "nonpayable",
					"type": "function"
				},
				{
					"inputs": [
						{
							"internalType": "address",
							"name": "",
							"type": "address"
						}
					],
					"name": "userInfo",
					"outputs": [
						{
							"internalType": "string",
							"name": "firstName",
							"type": "string"
						},
						{
							"internalType": "string",
							"name": "lastName",
							"type": "string"
						},
						{
							"internalType": "string",
							"name": "email",
							"type": "string"
						},
						{
							"internalType": "string",
							"name": "organization",
							"type": "string"
						},
						{
							"internalType": "address",
							"name": "walletAddress",
							"type": "address"
						}
					],
					"stateMutability": "view",
					"type": "function"
				},
				{
					"inputs": [
						{
							"internalType": "address",
							"name": "",
							"type": "address"
						}
					],
					"name": "userInfoRequests",
					"outputs": [
						{
							"internalType": "address",
							"name": "requester",
							"type": "address"
						},
						{
							"components": [
								{
									"internalType": "string",
									"name": "firstName",
									"type": "string"
								},
								{
									"internalType": "string",
									"name": "lastName",
									"type": "string"
								},
								{
									"internalType": "string",
									"name": "email",
									"type": "string"
								},
								{
									"internalType": "string",
									"name": "organization",
									"type": "string"
								},
								{
									"internalType": "address",
									"name": "walletAddress",
									"type": "address"
								}
							],
							"internalType": "struct RoleManager.UserInfo",
							"name": "info",
							"type": "tuple"
						},
						{
							"internalType": "bool",
							"name": "isUpdate",
							"type": "bool"
						},
						{
							"internalType": "bool",
							"name": "pending",
							"type": "bool"
						},
						{
							"internalType": "bool",
							"name": "approved",
							"type": "bool"
						}
					],
					"stateMutability": "view",
					"type": "function"
				}
			],
			"devdoc": {
				"errors": {
					"AccessControlBadConfirmation()": [
						{
							"details": "The caller of a function is not the expected one. NOTE: Don't confuse with {AccessControlUnauthorizedAccount}."
						}
					],
					"AccessControlUnauthorizedAccount(address,bytes32)": [
						{
							"details": "The `account` is missing a role."
						}
					]
				},
				"events": {
					"Paused(address)": {
						"details": "Emitted when the pause is triggered by `account`."
					},
					"RoleAdminChanged(bytes32,bytes32,bytes32)": {
						"details": "Emitted when `newAdminRole` is set as ``role``'s admin role, replacing `previousAdminRole` `DEFAULT_ADMIN_ROLE` is the starting admin for all roles, despite {RoleAdminChanged} not being emitted signaling this."
					},
					"RoleGranted(bytes32,address,address)": {
						"details": "Emitted when `account` is granted `role`. `sender` is the account that originated the contract call. This account bears the admin role (for the granted role). Expected in cases where the role was granted using the internal {AccessControl-_grantRole}."
					},
					"RoleRevoked(bytes32,address,address)": {
						"details": "Emitted when `account` is revoked `role`. `sender` is the account that originated the contract call:   - if using `revokeRole`, it is the admin role bearer   - if using `renounceRole`, it is the role bearer (i.e. `account`)"
					},
					"Unpaused(address)": {
						"details": "Emitted when the pause is lifted by `account`."
					}
				},
				"kind": "dev",
				"methods": {
					"approveRoleRequest(address,bytes32)": {
						"details": "Approve a role request",
						"params": {
							"_requester": "Address of the user who requested the role",
							"_role": "The role that was requested"
						}
					},
					"assignRole(address,bytes32)": {
						"details": "Directly assign a role (admin bypass)",
						"params": {
							"_role": "Role to assign",
							"_user": "Address to assign the role to"
						}
					},
					"getPendingRequests()": {
						"details": "Get all pending role requests"
					},
					"getRoleAdmin(bytes32)": {
						"details": "Returns the admin role that controls `role`. See {grantRole} and {revokeRole}. To change a role's admin, use {_setRoleAdmin}."
					},
					"getRoleRequest(address,bytes32)": {
						"details": "Get specific role request details"
					},
					"grantRole(bytes32,address)": {
						"details": "Grants `role` to `account`. If `account` had not been already granted `role`, emits a {RoleGranted} event. Requirements: - the caller must have ``role``'s admin role. May emit a {RoleGranted} event."
					},
					"hasRole(bytes32,address)": {
						"details": "Returns `true` if `account` has been granted `role`."
					},
					"paused()": {
						"details": "Returns true if the contract is paused, and false otherwise."
					},
					"rejectRoleRequest(address,bytes32)": {
						"details": "Reject a role request",
						"params": {
							"_requester": "Address of the user who requested the role",
							"_role": "The role that was requested"
						}
					},
					"renounceRole(bytes32,address)": {
						"details": "Revokes `role` from the calling account. Roles are often managed via {grantRole} and {revokeRole}: this function's purpose is to provide a mechanism for accounts to lose their privileges if they are compromised (such as when a trusted device is misplaced). If the calling account had been revoked `role`, emits a {RoleRevoked} event. Requirements: - the caller must be `callerConfirmation`. May emit a {RoleRevoked} event."
					},
					"requestRole(bytes32,string)": {
						"details": "Request a role with a reason",
						"params": {
							"_reason": "The reason for requesting the role",
							"_role": "The role being requested"
						}
					},
					"revokeRole(address,bytes32)": {
						"details": "Revoke a role",
						"params": {
							"_role": "Role to revoke",
							"_user": "Address to revoke the role from"
						}
					},
					"revokeRole(bytes32,address)": {
						"details": "Revokes `role` from `account`. If `account` had been granted `role`, emits a {RoleRevoked} event. Requirements: - the caller must have ``role``'s admin role. May emit a {RoleRevoked} event."
					},
					"supportsInterface(bytes4)": {
						"details": "See {IERC165-supportsInterface}."
					}
				},
				"version": 1
			},
			"evm": {
				"assembly": "    /* \"Wallery/Rolemanager.sol\":146:8896  contract RoleManager is AccessControl, Pausable {... */\n  mstore(0x40, 0x80)\n    /* \"Wallery/Rolemanager.sol\":1940:2060  constructor() {... */\n  callvalue\n  dup1\n  iszero\n  tag_1\n  jumpi\n  0x00\n  dup1\n  revert\ntag_1:\n  pop\n    /* \"@openzeppelin/contracts/security/Pausable.sol\":1006:1011  false */\n  0x00\n    /* \"@openzeppelin/contracts/security/Pausable.sol\":996:1003  _paused */\n  0x01\n  0x00\n    /* \"@openzeppelin/contracts/security/Pausable.sol\":996:1011  _paused = false */\n  0x0100\n  exp\n  dup2\n  sload\n  dup2\n  0xff\n  mul\n  not\n  and\n  swap1\n  dup4\n  iszero\n  iszero\n  mul\n  or\n  swap1\n  sstore\n  pop\n    /* \"Wallery/Rolemanager.sol\":1965:2007  _grantRole(DEFAULT_ADMIN_ROLE, msg.sender) */\n  tag_6\n    /* \"@openzeppelin/contracts/access/AccessControl.sol\":2232:2236  0x00 */\n  0x00\n    /* \"Wallery/Rolemanager.sol\":1976:1994  DEFAULT_ADMIN_ROLE */\n  dup1\n  shl\n    /* \"Wallery/Rolemanager.sol\":1996:2006  msg.sender */\n  caller\n    /* \"Wallery/Rolemanager.sol\":1965:1975  _grantRole */\n  shl(0x20, tag_7)\n    /* \"Wallery/Rolemanager.sol\":1965:2007  _grantRole(DEFAULT_ADMIN_ROLE, msg.sender) */\n  0x20\n  shr\n  jump\t// in\ntag_6:\n  pop\n    /* \"Wallery/Rolemanager.sol\":2018:2052  _grantRole(ADMIN_ROLE, msg.sender) */\n  tag_8\n    /* \"Wallery/Rolemanager.sol\":238:261  keccak256(\"ADMIN_ROLE\") */\n  0xa49807205ce4d355092ef5a8a18f56e8913cf4a201fbe287825b095693c21775\n    /* \"Wallery/Rolemanager.sol\":2041:2051  msg.sender */\n  caller\n    /* \"Wallery/Rolemanager.sol\":2018:2028  _grantRole */\n  shl(0x20, tag_7)\n    /* \"Wallery/Rolemanager.sol\":2018:2052  _grantRole(ADMIN_ROLE, msg.sender) */\n  0x20\n  shr\n  jump\t// in\ntag_8:\n  pop\n    /* \"Wallery/Rolemanager.sol\":146:8896  contract RoleManager is AccessControl, Pausable {... */\n  jump(tag_9)\n    /* \"@openzeppelin/contracts/access/AccessControl.sol\":6179:6495  function _grantRole(bytes32 role, address account) internal virtual returns (bool) {... */\ntag_7:\n    /* \"@openzeppelin/contracts/access/AccessControl.sol\":6256:6260  bool */\n  0x00\n    /* \"@openzeppelin/contracts/access/AccessControl.sol\":6277:6299  hasRole(role, account) */\n  tag_11\n    /* \"@openzeppelin/contracts/access/AccessControl.sol\":6285:6289  role */\n  dup4\n    /* \"@openzeppelin/contracts/access/AccessControl.sol\":6291:6298  account */\n  dup4\n    /* \"@openzeppelin/contracts/access/AccessControl.sol\":6277:6284  hasRole */\n  shl(0x20, tag_12)\n    /* \"@openzeppelin/contracts/access/AccessControl.sol\":6277:6299  hasRole(role, account) */\n  0x20\n  shr\n  jump\t// in\ntag_11:\n    /* \"@openzeppelin/contracts/access/AccessControl.sol\":6272:6489  if (!hasRole(role, account)) {... */\n  tag_13\n  jumpi\n    /* \"@openzeppelin/contracts/access/AccessControl.sol\":6347:6351  true */\n  0x01\n    /* \"@openzeppelin/contracts/access/AccessControl.sol\":6315:6321  _roles */\n  0x00\n    /* \"@openzeppelin/contracts/access/AccessControl.sol\":6315:6327  _roles[role] */\n  dup1\n    /* \"@openzeppelin/contracts/access/AccessControl.sol\":6322:6326  role */\n  dup6\n    /* \"@openzeppelin/contracts/access/AccessControl.sol\":6315:6327  _roles[role] */\n  dup2\n  mstore\n  0x20\n  add\n  swap1\n  dup2\n  mstore\n  0x20\n  add\n  0x00\n  keccak256\n    /* \"@openzeppelin/contracts/access/AccessControl.sol\":6315:6335  _roles[role].hasRole */\n  0x00\n  add\n    /* \"@openzeppelin/contracts/access/AccessControl.sol\":6315:6344  _roles[role].hasRole[account] */\n  0x00\n    /* \"@openzeppelin/contracts/access/AccessControl.sol\":6336:6343  account */\n  dup5\n    /* \"@openzeppelin/contracts/access/AccessControl.sol\":6315:6344  _roles[role].hasRole[account] */\n  0xffffffffffffffffffffffffffffffffffffffff\n  and\n  0xffffffffffffffffffffffffffffffffffffffff\n  and\n  dup2\n  mstore\n  0x20\n  add\n  swap1\n  dup2\n  mstore\n  0x20\n  add\n  0x00\n  keccak256\n  0x00\n    /* \"@openzeppelin/contracts/access/AccessControl.sol\":6315:6351  _roles[role].hasRole[account] = true */\n  0x0100\n  exp\n  dup2\n  sload\n  dup2\n  0xff\n  mul\n  not\n  and\n  swap1\n  dup4\n  iszero\n  iszero\n  mul\n  or\n  swap1\n  sstore\n  pop\n    /* \"@openzeppelin/contracts/access/AccessControl.sol\":6397:6409  _msgSender() */\n  tag_14\n    /* \"@openzeppelin/contracts/access/AccessControl.sol\":6397:6407  _msgSender */\n  shl(0x20, tag_15)\n    /* \"@openzeppelin/contracts/access/AccessControl.sol\":6397:6409  _msgSender() */\n  0x20\n  shr\n  jump\t// in\ntag_14:\n    /* \"@openzeppelin/contracts/access/AccessControl.sol\":6370:6410  RoleGranted(role, account, _msgSender()) */\n  0xffffffffffffffffffffffffffffffffffffffff\n  and\n    /* \"@openzeppelin/contracts/access/AccessControl.sol\":6388:6395  account */\n  dup3\n    /* \"@openzeppelin/contracts/access/AccessControl.sol\":6370:6410  RoleGranted(role, account, _msgSender()) */\n  0xffffffffffffffffffffffffffffffffffffffff\n  and\n    /* \"@openzeppelin/contracts/access/AccessControl.sol\":6382:6386  role */\n  dup5\n    /* \"@openzeppelin/contracts/access/AccessControl.sol\":6370:6410  RoleGranted(role, account, _msgSender()) */\n  0x2f8788117e7eff1d82e926ec794901d17c78024a50270940304540a733656f0d\n  mload(0x40)\n  mload(0x40)\n  dup1\n  swap2\n  sub\n  swap1\n  log4\n    /* \"@openzeppelin/contracts/access/AccessControl.sol\":6431:6435  true */\n  0x01\n    /* \"@openzeppelin/contracts/access/AccessControl.sol\":6424:6435  return true */\n  swap1\n  pop\n  jump(tag_10)\n    /* \"@openzeppelin/contracts/access/AccessControl.sol\":6272:6489  if (!hasRole(role, account)) {... */\ntag_13:\n    /* \"@openzeppelin/contracts/access/AccessControl.sol\":6473:6478  false */\n  0x00\n    /* \"@openzeppelin/contracts/access/AccessControl.sol\":6466:6478  return false */\n  swap1\n  pop\n    /* \"@openzeppelin/contracts/access/AccessControl.sol\":6179:6495  function _grantRole(bytes32 role, address account) internal virtual returns (bool) {... */\ntag_10:\n  swap3\n  swap2\n  pop\n  pop\n  jump\t// out\n    /* \"@openzeppelin/contracts/access/AccessControl.sol\":2854:2990  function hasRole(bytes32 role, address account) public view virtual returns (bool) {... */\ntag_12:\n    /* \"@openzeppelin/contracts/access/AccessControl.sol\":2931:2935  bool */\n  0x00\n    /* \"@openzeppelin/contracts/access/AccessControl.sol\":2954:2960  _roles */\n  dup1\n    /* \"@openzeppelin/contracts/access/AccessControl.sol\":2954:2966  _roles[role] */\n  0x00\n    /* \"@openzeppelin/contracts/access/AccessControl.sol\":2961:2965  role */\n  dup5\n    /* \"@openzeppelin/contracts/access/AccessControl.sol\":2954:2966  _roles[role] */\n  dup2\n  mstore\n  0x20\n  add\n  swap1\n  dup2\n  mstore\n  0x20\n  add\n  0x00\n  keccak256\n    /* \"@openzeppelin/contracts/access/AccessControl.sol\":2954:2974  _roles[role].hasRole */\n  0x00\n  add\n    /* \"@openzeppelin/contracts/access/AccessControl.sol\":2954:2983  _roles[role].hasRole[account] */\n  0x00\n    /* \"@openzeppelin/contracts/access/AccessControl.sol\":2975:2982  account */\n  dup4\n    /* \"@openzeppelin/contracts/access/AccessControl.sol\":2954:2983  _roles[role].hasRole[account] */\n  0xffffffffffffffffffffffffffffffffffffffff\n  and\n  0xffffffffffffffffffffffffffffffffffffffff\n  and\n  dup2\n  mstore\n  0x20\n  add\n  swap1\n  dup2\n  mstore\n  0x20\n  add\n  0x00\n  keccak256\n  0x00\n  swap1\n  sload\n  swap1\n  0x0100\n  exp\n  swap1\n  div\n  0xff\n  and\n    /* \"@openzeppelin/contracts/access/AccessControl.sol\":2947:2983  return _roles[role].hasRole[account] */\n  swap1\n  pop\n    /* \"@openzeppelin/contracts/access/AccessControl.sol\":2854:2990  function hasRole(bytes32 role, address account) public view virtual returns (bool) {... */\n  swap3\n  swap2\n  pop\n  pop\n  jump\t// out\n    /* \"@openzeppelin/contracts/utils/Context.sol\":656:752  function _msgSender() internal view virtual returns (address) {... */\ntag_15:\n    /* \"@openzeppelin/contracts/utils/Context.sol\":709:716  address */\n  0x00\n    /* \"@openzeppelin/contracts/utils/Context.sol\":735:745  msg.sender */\n  caller\n    /* \"@openzeppelin/contracts/utils/Context.sol\":728:745  return msg.sender */\n  swap1\n  pop\n    /* \"@openzeppelin/contracts/utils/Context.sol\":656:752  function _msgSender() internal view virtual returns (address) {... */\n  swap1\n  jump\t// out\n    /* \"Wallery/Rolemanager.sol\":146:8896  contract RoleManager is AccessControl, Pausable {... */\ntag_9:\n  dataSize(sub_0)\n  dup1\n  dataOffset(sub_0)\n  0x00\n  codecopy\n  0x00\n  return\nstop\n\nsub_0: assembly {\n        /* \"Wallery/Rolemanager.sol\":146:8896  contract RoleManager is AccessControl, Pausable {... */\n      mstore(0x40, 0x80)\n      callvalue\n      dup1\n      iszero\n      tag_1\n      jumpi\n      0x00\n      dup1\n      revert\n    tag_1:\n      pop\n      jumpi(tag_2, lt(calldatasize, 0x04))\n      shr(0xe0, calldataload(0x00))\n      dup1\n      0x75b238fc\n      gt\n      tag_33\n      jumpi\n      dup1\n      0x91d14854\n      gt\n      tag_34\n      jumpi\n      dup1\n      0xbd605121\n      gt\n      tag_35\n      jumpi\n      dup1\n      0xbd605121\n      eq\n      tag_29\n      jumpi\n      dup1\n      0xc2d79444\n      eq\n      tag_30\n      jumpi\n      dup1\n      0xd547741f\n      eq\n      tag_31\n      jumpi\n      dup1\n      0xfa90ace3\n      eq\n      tag_32\n      jumpi\n      jump(tag_2)\n    tag_35:\n      dup1\n      0x91d14854\n      eq\n      tag_25\n      jumpi\n      dup1\n      0x9411ca46\n      eq\n      tag_26\n      jumpi\n      dup1\n      0x98e4abb5\n      eq\n      tag_27\n      jumpi\n      dup1\n      0xa217fddf\n      eq\n      tag_28\n      jumpi\n      jump(tag_2)\n    tag_34:\n      dup1\n      0x78988ebd\n      gt\n      tag_36\n      jumpi\n      dup1\n      0x78988ebd\n      eq\n      tag_21\n      jumpi\n      dup1\n      0x7e75d956\n      eq\n      tag_22\n      jumpi\n      dup1\n      0x80a1f712\n      eq\n      tag_23\n      jumpi\n      dup1\n      0x8456cb59\n      eq\n      tag_24\n      jumpi\n      jump(tag_2)\n    tag_36:\n      dup1\n      0x75b238fc\n      eq\n      tag_18\n      jumpi\n      dup1\n      0x768b01aa\n      eq\n      tag_19\n      jumpi\n      dup1\n      0x78426848\n      eq\n      tag_20\n      jumpi\n      jump(tag_2)\n    tag_33:\n      dup1\n      0x25df448c\n      gt\n      tag_37\n      jumpi\n      dup1\n      0x3c652a9a\n      gt\n      tag_38\n      jumpi\n      dup1\n      0x3c652a9a\n      eq\n      tag_14\n      jumpi\n      dup1\n      0x3f4ba83a\n      eq\n      tag_15\n      jumpi\n      dup1\n      0x5c975abb\n      eq\n      tag_16\n      jumpi\n      dup1\n      0x6386c1c7\n      eq\n      tag_17\n      jumpi\n      jump(tag_2)\n    tag_38:\n      dup1\n      0x25df448c\n      eq\n      tag_10\n      jumpi\n      dup1\n      0x2f2ff15d\n      eq\n      tag_11\n      jumpi\n      dup1\n      0x303e3840\n      eq\n      tag_12\n      jumpi\n      dup1\n      0x36568abe\n      eq\n      tag_13\n      jumpi\n      jump(tag_2)\n    tag_37:\n      dup1\n      0x1959a002\n      gt\n      tag_39\n      jumpi\n      dup1\n      0x1959a002\n      eq\n      tag_6\n      jumpi\n      dup1\n      0x1d9486de\n      eq\n      tag_7\n      jumpi\n      dup1\n      0x208dd1ff\n      eq\n      tag_8\n      jumpi\n      dup1\n      0x248a9ca3\n      eq\n      tag_9\n      jumpi\n      jump(tag_2)\n    tag_39:\n      dup1\n      0x01ffc9a7\n      eq\n      tag_3\n      jumpi\n      dup1\n      0x095c6e02\n      eq\n      tag_4\n      jumpi\n      dup1\n      0x18097b69\n      eq\n      tag_5\n      jumpi\n    tag_2:\n      0x00\n      dup1\n      revert\n        /* \"@openzeppelin/contracts/access/AccessControl.sol\":2565:2767  function supportsInterface(bytes4 interfaceId) public view virtual override returns (bool) {... */\n    tag_3:\n      tag_40\n      0x04\n      dup1\n      calldatasize\n      sub\n      dup2\n      add\n      swap1\n      tag_41\n      swap2\n      swap1\n      tag_42\n      jump\t// in\n    tag_41:\n      tag_43\n      jump\t// in\n    tag_40:\n      mload(0x40)\n      tag_44\n      swap2\n      swap1\n      tag_45\n      jump\t// in\n    tag_44:\n      mload(0x40)\n      dup1\n      swap2\n      sub\n      swap1\n      return\n        /* \"Wallery/Rolemanager.sol\":1112:1171  mapping(address => UserInfoRequest) public userInfoRequests */\n    tag_4:\n      tag_46\n      0x04\n      dup1\n      calldatasize\n      sub\n      dup2\n      add\n      swap1\n      tag_47\n      swap2\n      swap1\n      tag_48\n      jump\t// in\n    tag_47:\n      tag_49\n      jump\t// in\n    tag_46:\n      mload(0x40)\n      tag_50\n      swap6\n      swap5\n      swap4\n      swap3\n      swap2\n      swap1\n      tag_51\n      jump\t// in\n    tag_50:\n      mload(0x40)\n      dup1\n      swap2\n      sub\n      swap1\n      return\n        /* \"Wallery/Rolemanager.sol\":7644:8117  function getRoleRequest(address _requester, bytes32 _role) public view returns (... */\n    tag_5:\n      tag_52\n      0x04\n      dup1\n      calldatasize\n      sub\n      dup2\n      add\n      swap1\n      tag_53\n      swap2\n      swap1\n      tag_54\n      jump\t// in\n    tag_53:\n      tag_55\n      jump\t// in\n    tag_52:\n      mload(0x40)\n      tag_56\n      swap6\n      swap5\n      swap4\n      swap3\n      swap2\n      swap1\n      tag_57\n      jump\t// in\n    tag_56:\n      mload(0x40)\n      dup1\n      swap2\n      sub\n      swap1\n      return\n        /* \"Wallery/Rolemanager.sol\":1061:1105  mapping(address => UserInfo) public userInfo */\n    tag_6:\n      tag_58\n      0x04\n      dup1\n      calldatasize\n      sub\n      dup2\n      add\n      swap1\n      tag_59\n      swap2\n      swap1\n      tag_48\n      jump\t// in\n    tag_59:\n      tag_60\n      jump\t// in\n    tag_58:\n      mload(0x40)\n      tag_61\n      swap6\n      swap5\n      swap4\n      swap3\n      swap2\n      swap1\n      tag_62\n      jump\t// in\n    tag_61:\n      mload(0x40)\n      dup1\n      swap2\n      sub\n      swap1\n      return\n        /* \"Wallery/Rolemanager.sol\":6776:7011  function assignRole(address _user, bytes32 _role) public onlyRole(ADMIN_ROLE) whenNotPaused {... */\n    tag_7:\n      tag_63\n      0x04\n      dup1\n      calldatasize\n      sub\n      dup2\n      add\n      swap1\n      tag_64\n      swap2\n      swap1\n      tag_54\n      jump\t// in\n    tag_64:\n      tag_65\n      jump\t// in\n    tag_63:\n      stop\n        /* \"Wallery/Rolemanager.sol\":7153:7388  function revokeRole(address _user, bytes32 _role) public onlyRole(ADMIN_ROLE) whenNotPaused {... */\n    tag_8:\n      tag_66\n      0x04\n      dup1\n      calldatasize\n      sub\n      dup2\n      add\n      swap1\n      tag_67\n      swap2\n      swap1\n      tag_54\n      jump\t// in\n    tag_67:\n      tag_68\n      jump\t// in\n    tag_66:\n      stop\n        /* \"@openzeppelin/contracts/access/AccessControl.sol\":3810:3930  function getRoleAdmin(bytes32 role) public view virtual returns (bytes32) {... */\n    tag_9:\n      tag_69\n      0x04\n      dup1\n      calldatasize\n      sub\n      dup2\n      add\n      swap1\n      tag_70\n      swap2\n      swap1\n      tag_71\n      jump\t// in\n    tag_70:\n      tag_72\n      jump\t// in\n    tag_69:\n      mload(0x40)\n      tag_73\n      swap2\n      swap1\n      tag_74\n      jump\t// in\n    tag_73:\n      mload(0x40)\n      dup1\n      swap2\n      sub\n      swap1\n      return\n        /* \"Wallery/Rolemanager.sol\":5372:5946  function approveRoleRequest(address _requester, bytes32 _role) public onlyRole(ADMIN_ROLE) whenNotPaused {... */\n    tag_10:\n      tag_75\n      0x04\n      dup1\n      calldatasize\n      sub\n      dup2\n      add\n      swap1\n      tag_76\n      swap2\n      swap1\n      tag_54\n      jump\t// in\n    tag_76:\n      tag_77\n      jump\t// in\n    tag_75:\n      stop\n        /* \"@openzeppelin/contracts/access/AccessControl.sol\":4226:4362  function grantRole(bytes32 role, address account) public virtual onlyRole(getRoleAdmin(role)) {... */\n    tag_11:\n      tag_78\n      0x04\n      dup1\n      calldatasize\n      sub\n      dup2\n      add\n      swap1\n      tag_79\n      swap2\n      swap1\n      tag_80\n      jump\t// in\n    tag_79:\n      tag_81\n      jump\t// in\n    tag_78:\n      stop\n        /* \"Wallery/Rolemanager.sol\":345:409  bytes32 public constant PAINTER_ROLE = keccak256(\"PAINTER_ROLE\") */\n    tag_12:\n      tag_82\n      tag_83\n      jump\t// in\n    tag_82:\n      mload(0x40)\n      tag_84\n      swap2\n      swap1\n      tag_74\n      jump\t// in\n    tag_84:\n      mload(0x40)\n      dup1\n      swap2\n      sub\n      swap1\n      return\n        /* \"@openzeppelin/contracts/access/AccessControl.sol\":5328:5573  function renounceRole(bytes32 role, address callerConfirmation) public virtual {... */\n    tag_13:\n      tag_85\n      0x04\n      dup1\n      calldatasize\n      sub\n      dup2\n      add\n      swap1\n      tag_86\n      swap2\n      swap1\n      tag_80\n      jump\t// in\n    tag_86:\n      tag_87\n      jump\t// in\n    tag_85:\n      stop\n        /* \"Wallery/Rolemanager.sol\":1256:1292  RoleRequest[] public pendingRequests */\n    tag_14:\n      tag_88\n      0x04\n      dup1\n      calldatasize\n      sub\n      dup2\n      add\n      swap1\n      tag_89\n      swap2\n      swap1\n      tag_90\n      jump\t// in\n    tag_89:\n      tag_91\n      jump\t// in\n    tag_88:\n      mload(0x40)\n      tag_92\n      swap6\n      swap5\n      swap4\n      swap3\n      swap2\n      swap1\n      tag_57\n      jump\t// in\n    tag_92:\n      mload(0x40)\n      dup1\n      swap2\n      sub\n      swap1\n      return\n        /* \"Wallery/Rolemanager.sol\":8817:8893  function unpause() public onlyRole(ADMIN_ROLE) {... */\n    tag_15:\n      tag_93\n      tag_94\n      jump\t// in\n    tag_93:\n      stop\n        /* \"@openzeppelin/contracts/security/Pausable.sol\":1615:1699  function paused() public view virtual returns (bool) {... */\n    tag_16:\n      tag_95\n      tag_96\n      jump\t// in\n    tag_95:\n      mload(0x40)\n      tag_97\n      swap2\n      swap1\n      tag_45\n      jump\t// in\n    tag_97:\n      mload(0x40)\n      dup1\n      swap2\n      sub\n      swap1\n      return\n        /* \"Wallery/Rolemanager.sol\":3884:4345  function getUserInfo(address user) public view returns (... */\n    tag_17:\n      tag_98\n      0x04\n      dup1\n      calldatasize\n      sub\n      dup2\n      add\n      swap1\n      tag_99\n      swap2\n      swap1\n      tag_48\n      jump\t// in\n    tag_99:\n      tag_100\n      jump\t// in\n    tag_98:\n      mload(0x40)\n      tag_101\n      swap6\n      swap5\n      swap4\n      swap3\n      swap2\n      swap1\n      tag_62\n      jump\t// in\n    tag_101:\n      mload(0x40)\n      dup1\n      swap2\n      sub\n      swap1\n      return\n        /* \"Wallery/Rolemanager.sol\":201:261  bytes32 public constant ADMIN_ROLE = keccak256(\"ADMIN_ROLE\") */\n    tag_18:\n      tag_102\n      tag_103\n      jump\t// in\n    tag_102:\n      mload(0x40)\n      tag_104\n      swap2\n      swap1\n      tag_74\n      jump\t// in\n    tag_104:\n      mload(0x40)\n      dup1\n      swap2\n      sub\n      swap1\n      return\n        /* \"Wallery/Rolemanager.sol\":4517:5192  function requestRole(bytes32 _role, string memory _reason) public whenNotPaused {... */\n    tag_19:\n      tag_105\n      0x04\n      dup1\n      calldatasize\n      sub\n      dup2\n      add\n      swap1\n      tag_106\n      swap2\n      swap1\n      tag_107\n      jump\t// in\n    tag_106:\n      tag_108\n      jump\t// in\n    tag_105:\n      stop\n        /* \"Wallery/Rolemanager.sol\":2068:3069  function requestUserInfo(... */\n    tag_20:\n      tag_109\n      0x04\n      dup1\n      calldatasize\n      sub\n      dup2\n      add\n      swap1\n      tag_110\n      swap2\n      swap1\n      tag_111\n      jump\t// in\n    tag_110:\n      tag_112\n      jump\t// in\n    tag_109:\n      stop\n        /* \"Wallery/Rolemanager.sol\":416:492  bytes32 public constant GALLERY_OWNER_ROLE = keccak256(\"GALLERY_OWNER_ROLE\") */\n    tag_21:\n      tag_113\n      tag_114\n      jump\t// in\n    tag_113:\n      mload(0x40)\n      tag_115\n      swap2\n      swap1\n      tag_74\n      jump\t// in\n    tag_115:\n      mload(0x40)\n      dup1\n      swap2\n      sub\n      swap1\n      return\n        /* \"Wallery/Rolemanager.sol\":3524:3876  function rejectUserInfoRequest(address requester) public onlyRole(ADMIN_ROLE) whenNotPaused {... */\n    tag_22:\n      tag_116\n      0x04\n      dup1\n      calldatasize\n      sub\n      dup2\n      add\n      swap1\n      tag_117\n      swap2\n      swap1\n      tag_48\n      jump\t// in\n    tag_117:\n      tag_118\n      jump\t// in\n    tag_116:\n      stop\n        /* \"Wallery/Rolemanager.sol\":7457:7571  function getPendingRequests() public view returns (RoleRequest[] memory) {... */\n    tag_23:\n      tag_119\n      tag_120\n      jump\t// in\n    tag_119:\n      mload(0x40)\n      tag_121\n      swap2\n      swap1\n      tag_122\n      jump\t// in\n    tag_121:\n      mload(0x40)\n      dup1\n      swap2\n      sub\n      swap1\n      return\n        /* \"Wallery/Rolemanager.sol\":8737:8809  function pause() public onlyRole(ADMIN_ROLE) {... */\n    tag_24:\n      tag_123\n      tag_124\n      jump\t// in\n    tag_123:\n      stop\n        /* \"@openzeppelin/contracts/access/AccessControl.sol\":2854:2990  function hasRole(bytes32 role, address account) public view virtual returns (bool) {... */\n    tag_25:\n      tag_125\n      0x04\n      dup1\n      calldatasize\n      sub\n      dup2\n      add\n      swap1\n      tag_126\n      swap2\n      swap1\n      tag_80\n      jump\t// in\n    tag_126:\n      tag_127\n      jump\t// in\n    tag_125:\n      mload(0x40)\n      tag_128\n      swap2\n      swap1\n      tag_45\n      jump\t// in\n    tag_128:\n      mload(0x40)\n      dup1\n      swap2\n      sub\n      swap1\n      return\n        /* \"Wallery/Rolemanager.sol\":1178:1249  mapping(address => mapping(bytes32 => RoleRequest)) public roleRequests */\n    tag_26:\n      tag_129\n      0x04\n      dup1\n      calldatasize\n      sub\n      dup2\n      add\n      swap1\n      tag_130\n      swap2\n      swap1\n      tag_54\n      jump\t// in\n    tag_130:\n      tag_131\n      jump\t// in\n    tag_129:\n      mload(0x40)\n      tag_132\n      swap6\n      swap5\n      swap4\n      swap3\n      swap2\n      swap1\n      tag_57\n      jump\t// in\n    tag_132:\n      mload(0x40)\n      dup1\n      swap2\n      sub\n      swap1\n      return\n        /* \"Wallery/Rolemanager.sol\":268:338  bytes32 public constant WALL_OWNER_ROLE = keccak256(\"WALL_OWNER_ROLE\") */\n    tag_27:\n      tag_133\n      tag_134\n      jump\t// in\n    tag_133:\n      mload(0x40)\n      tag_135\n      swap2\n      swap1\n      tag_74\n      jump\t// in\n    tag_135:\n      mload(0x40)\n      dup1\n      swap2\n      sub\n      swap1\n      return\n        /* \"@openzeppelin/contracts/access/AccessControl.sol\":2187:2236  bytes32 public constant DEFAULT_ADMIN_ROLE = 0x00 */\n    tag_28:\n      tag_136\n      tag_137\n      jump\t// in\n    tag_136:\n      mload(0x40)\n      tag_138\n      swap2\n      swap1\n      tag_74\n      jump\t// in\n    tag_138:\n      mload(0x40)\n      dup1\n      swap2\n      sub\n      swap1\n      return\n        /* \"Wallery/Rolemanager.sol\":6125:6612  function rejectRoleRequest(address _requester, bytes32 _role) public onlyRole(ADMIN_ROLE) whenNotPaused {... */\n    tag_29:\n      tag_139\n      0x04\n      dup1\n      calldatasize\n      sub\n      dup2\n      add\n      swap1\n      tag_140\n      swap2\n      swap1\n      tag_54\n      jump\t// in\n    tag_140:\n      tag_141\n      jump\t// in\n    tag_139:\n      stop\n        /* \"Wallery/Rolemanager.sol\":499:563  bytes32 public constant SPONSOR_ROLE = keccak256(\"SPONSOR_ROLE\") */\n    tag_30:\n      tag_142\n      tag_143\n      jump\t// in\n    tag_142:\n      mload(0x40)\n      tag_144\n      swap2\n      swap1\n      tag_74\n      jump\t// in\n    tag_144:\n      mload(0x40)\n      dup1\n      swap2\n      sub\n      swap1\n      return\n        /* \"@openzeppelin/contracts/access/AccessControl.sol\":4642:4780  function revokeRole(bytes32 role, address account) public virtual onlyRole(getRoleAdmin(role)) {... */\n    tag_31:\n      tag_145\n      0x04\n      dup1\n      calldatasize\n      sub\n      dup2\n      add\n      swap1\n      tag_146\n      swap2\n      swap1\n      tag_80\n      jump\t// in\n    tag_146:\n      tag_147\n      jump\t// in\n    tag_145:\n      stop\n        /* \"Wallery/Rolemanager.sol\":3077:3516  function approveUserInfoRequest(address requester) public onlyRole(ADMIN_ROLE) whenNotPaused {... */\n    tag_32:\n      tag_148\n      0x04\n      dup1\n      calldatasize\n      sub\n      dup2\n      add\n      swap1\n      tag_149\n      swap2\n      swap1\n      tag_48\n      jump\t// in\n    tag_149:\n      tag_150\n      jump\t// in\n    tag_148:\n      stop\n        /* \"@openzeppelin/contracts/access/AccessControl.sol\":2565:2767  function supportsInterface(bytes4 interfaceId) public view virtual override returns (bool) {... */\n    tag_43:\n        /* \"@openzeppelin/contracts/access/AccessControl.sol\":2650:2654  bool */\n      0x00\n        /* \"@openzeppelin/contracts/access/AccessControl.sol\":2688:2720  type(IAccessControl).interfaceId */\n      0x7965db0b00000000000000000000000000000000000000000000000000000000\n        /* \"@openzeppelin/contracts/access/AccessControl.sol\":2673:2720  interfaceId == type(IAccessControl).interfaceId */\n      not(0xffffffffffffffffffffffffffffffffffffffffffffffffffffffff)\n      and\n        /* \"@openzeppelin/contracts/access/AccessControl.sol\":2673:2684  interfaceId */\n      dup3\n        /* \"@openzeppelin/contracts/access/AccessControl.sol\":2673:2720  interfaceId == type(IAccessControl).interfaceId */\n      not(0xffffffffffffffffffffffffffffffffffffffffffffffffffffffff)\n      and\n      eq\n        /* \"@openzeppelin/contracts/access/AccessControl.sol\":2673:2760  interfaceId == type(IAccessControl).interfaceId || super.supportsInterface(interfaceId) */\n      dup1\n      tag_152\n      jumpi\n      pop\n        /* \"@openzeppelin/contracts/access/AccessControl.sol\":2724:2760  super.supportsInterface(interfaceId) */\n      tag_153\n        /* \"@openzeppelin/contracts/access/AccessControl.sol\":2748:2759  interfaceId */\n      dup3\n        /* \"@openzeppelin/contracts/access/AccessControl.sol\":2724:2747  super.supportsInterface */\n      tag_154\n        /* \"@openzeppelin/contracts/access/AccessControl.sol\":2724:2760  super.supportsInterface(interfaceId) */\n      jump\t// in\n    tag_153:\n        /* \"@openzeppelin/contracts/access/AccessControl.sol\":2673:2760  interfaceId == type(IAccessControl).interfaceId || super.supportsInterface(interfaceId) */\n    tag_152:\n        /* \"@openzeppelin/contracts/access/AccessControl.sol\":2666:2760  return interfaceId == type(IAccessControl).interfaceId || super.supportsInterface(interfaceId) */\n      swap1\n      pop\n        /* \"@openzeppelin/contracts/access/AccessControl.sol\":2565:2767  function supportsInterface(bytes4 interfaceId) public view virtual override returns (bool) {... */\n      swap2\n      swap1\n      pop\n      jump\t// out\n        /* \"Wallery/Rolemanager.sol\":1112:1171  mapping(address => UserInfoRequest) public userInfoRequests */\n    tag_49:\n      mstore(0x20, 0x03)\n      dup1\n      0x00\n      mstore\n      keccak256(0x00, 0x40)\n      0x00\n      swap2\n      pop\n      swap1\n      pop\n      dup1\n      0x00\n      add\n      0x00\n      swap1\n      sload\n      swap1\n      0x0100\n      exp\n      swap1\n      div\n      0xffffffffffffffffffffffffffffffffffffffff\n      and\n      swap1\n      dup1\n      0x01\n      add\n      mload(0x40)\n      dup1\n      0xa0\n      add\n      0x40\n      mstore\n      swap1\n      dup2\n      0x00\n      dup3\n      add\n      dup1\n      sload\n      tag_155\n      swap1\n      tag_156\n      jump\t// in\n    tag_155:\n      dup1\n      0x1f\n      add\n      0x20\n      dup1\n      swap2\n      div\n      mul\n      0x20\n      add\n      mload(0x40)\n      swap1\n      dup2\n      add\n      0x40\n      mstore\n      dup1\n      swap3\n      swap2\n      swap1\n      dup2\n      dup2\n      mstore\n      0x20\n      add\n      dup3\n      dup1\n      sload\n      tag_157\n      swap1\n      tag_156\n      jump\t// in\n    tag_157:\n      dup1\n      iszero\n      tag_158\n      jumpi\n      dup1\n      0x1f\n      lt\n      tag_159\n      jumpi\n      0x0100\n      dup1\n      dup4\n      sload\n      div\n      mul\n      dup4\n      mstore\n      swap2\n      0x20\n      add\n      swap2\n      jump(tag_158)\n    tag_159:\n      dup3\n      add\n      swap2\n      swap1\n      0x00\n      mstore\n      keccak256(0x00, 0x20)\n      swap1\n    tag_160:\n      dup2\n      sload\n      dup2\n      mstore\n      swap1\n      0x01\n      add\n      swap1\n      0x20\n      add\n      dup1\n      dup4\n      gt\n      tag_160\n      jumpi\n      dup3\n      swap1\n      sub\n      0x1f\n      and\n      dup3\n      add\n      swap2\n    tag_158:\n      pop\n      pop\n      pop\n      pop\n      pop\n      dup2\n      mstore\n      0x20\n      add\n      0x01\n      dup3\n      add\n      dup1\n      sload\n      tag_161\n      swap1\n      tag_156\n      jump\t// in\n    tag_161:\n      dup1\n      0x1f\n      add\n      0x20\n      dup1\n      swap2\n      div\n      mul\n      0x20\n      add\n      mload(0x40)\n      swap1\n      dup2\n      add\n      0x40\n      mstore\n      dup1\n      swap3\n      swap2\n      swap1\n      dup2\n      dup2\n      mstore\n      0x20\n      add\n      dup3\n      dup1\n      sload\n      tag_162\n      swap1\n      tag_156\n      jump\t// in\n    tag_162:\n      dup1\n      iszero\n      tag_163\n      jumpi\n      dup1\n      0x1f\n      lt\n      tag_164\n      jumpi\n      0x0100\n      dup1\n      dup4\n      sload\n      div\n      mul\n      dup4\n      mstore\n      swap2\n      0x20\n      add\n      swap2\n      jump(tag_163)\n    tag_164:\n      dup3\n      add\n      swap2\n      swap1\n      0x00\n      mstore\n      keccak256(0x00, 0x20)\n      swap1\n    tag_165:\n      dup2\n      sload\n      dup2\n      mstore\n      swap1\n      0x01\n      add\n      swap1\n      0x20\n      add\n      dup1\n      dup4\n      gt\n      tag_165\n      jumpi\n      dup3\n      swap1\n      sub\n      0x1f\n      and\n      dup3\n      add\n      swap2\n    tag_163:\n      pop\n      pop\n      pop\n      pop\n      pop\n      dup2\n      mstore\n      0x20\n      add\n      0x02\n      dup3\n      add\n      dup1\n      sload\n      tag_166\n      swap1\n      tag_156\n      jump\t// in\n    tag_166:\n      dup1\n      0x1f\n      add\n      0x20\n      dup1\n      swap2\n      div\n      mul\n      0x20\n      add\n      mload(0x40)\n      swap1\n      dup2\n      add\n      0x40\n      mstore\n      dup1\n      swap3\n      swap2\n      swap1\n      dup2\n      dup2\n      mstore\n      0x20\n      add\n      dup3\n      dup1\n      sload\n      tag_167\n      swap1\n      tag_156\n      jump\t// in\n    tag_167:\n      dup1\n      iszero\n      tag_168\n      jumpi\n      dup1\n      0x1f\n      lt\n      tag_169\n      jumpi\n      0x0100\n      dup1\n      dup4\n      sload\n      div\n      mul\n      dup4\n      mstore\n      swap2\n      0x20\n      add\n      swap2\n      jump(tag_168)\n    tag_169:\n      dup3\n      add\n      swap2\n      swap1\n      0x00\n      mstore\n      keccak256(0x00, 0x20)\n      swap1\n    tag_170:\n      dup2\n      sload\n      dup2\n      mstore\n      swap1\n      0x01\n      add\n      swap1\n      0x20\n      add\n      dup1\n      dup4\n      gt\n      tag_170\n      jumpi\n      dup3\n      swap1\n      sub\n      0x1f\n      and\n      dup3\n      add\n      swap2\n    tag_168:\n      pop\n      pop\n      pop\n      pop\n      pop\n      dup2\n      mstore\n      0x20\n      add\n      0x03\n      dup3\n      add\n      dup1\n      sload\n      tag_171\n      swap1\n      tag_156\n      jump\t// in\n    tag_171:\n      dup1\n      0x1f\n      add\n      0x20\n      dup1\n      swap2\n      div\n      mul\n      0x20\n      add\n      mload(0x40)\n      swap1\n      dup2\n      add\n      0x40\n      mstore\n      dup1\n      swap3\n      swap2\n      swap1\n      dup2\n      dup2\n      mstore\n      0x20\n      add\n      dup3\n      dup1\n      sload\n      tag_172\n      swap1\n      tag_156\n      jump\t// in\n    tag_172:\n      dup1\n      iszero\n      tag_173\n      jumpi\n      dup1\n      0x1f\n      lt\n      tag_174\n      jumpi\n      0x0100\n      dup1\n      dup4\n      sload\n      div\n      mul\n      dup4\n      mstore\n      swap2\n      0x20\n      add\n      swap2\n      jump(tag_173)\n    tag_174:\n      dup3\n      add\n      swap2\n      swap1\n      0x00\n      mstore\n      keccak256(0x00, 0x20)\n      swap1\n    tag_175:\n      dup2\n      sload\n      dup2\n      mstore\n      swap1\n      0x01\n      add\n      swap1\n      0x20\n      add\n      dup1\n      dup4\n      gt\n      tag_175\n      jumpi\n      dup3\n      swap1\n      sub\n      0x1f\n      and\n      dup3\n      add\n      swap2\n    tag_173:\n      pop\n      pop\n      pop\n      pop\n      pop\n      dup2\n      mstore\n      0x20\n      add\n      0x04\n      dup3\n      add\n      0x00\n      swap1\n      sload\n      swap1\n      0x0100\n      exp\n      swap1\n      div\n      0xffffffffffffffffffffffffffffffffffffffff\n      and\n      0xffffffffffffffffffffffffffffffffffffffff\n      and\n      0xffffffffffffffffffffffffffffffffffffffff\n      and\n      dup2\n      mstore\n      pop\n      pop\n      swap1\n      dup1\n      0x06\n      add\n      0x00\n      swap1\n      sload\n      swap1\n      0x0100\n      exp\n      swap1\n      div\n      0xff\n      and\n      swap1\n      dup1\n      0x06\n      add\n      0x01\n      swap1\n      sload\n      swap1\n      0x0100\n      exp\n      swap1\n      div\n      0xff\n      and\n      swap1\n      dup1\n      0x06\n      add\n      0x02\n      swap1\n      sload\n      swap1\n      0x0100\n      exp\n      swap1\n      div\n      0xff\n      and\n      swap1\n      pop\n      dup6\n      jump\t// out\n        /* \"Wallery/Rolemanager.sol\":7644:8117  function getRoleRequest(address _requester, bytes32 _role) public view returns (... */\n    tag_55:\n        /* \"Wallery/Rolemanager.sol\":7734:7751  address requester */\n      0x00\n        /* \"Wallery/Rolemanager.sol\":7762:7774  bytes32 role */\n      dup1\n        /* \"Wallery/Rolemanager.sol\":7785:7805  string memory reason */\n      0x60\n        /* \"Wallery/Rolemanager.sol\":7816:7828  bool pending */\n      0x00\n        /* \"Wallery/Rolemanager.sol\":7839:7852  bool approved */\n      dup1\n        /* \"Wallery/Rolemanager.sol\":7871:7897  RoleRequest memory request */\n      0x00\n        /* \"Wallery/Rolemanager.sol\":7900:7912  roleRequests */\n      0x04\n        /* \"Wallery/Rolemanager.sol\":7900:7924  roleRequests[_requester] */\n      0x00\n        /* \"Wallery/Rolemanager.sol\":7913:7923  _requester */\n      dup10\n        /* \"Wallery/Rolemanager.sol\":7900:7924  roleRequests[_requester] */\n      0xffffffffffffffffffffffffffffffffffffffff\n      and\n      0xffffffffffffffffffffffffffffffffffffffff\n      and\n      dup2\n      mstore\n      0x20\n      add\n      swap1\n      dup2\n      mstore\n      0x20\n      add\n      0x00\n      keccak256\n        /* \"Wallery/Rolemanager.sol\":7900:7931  roleRequests[_requester][_role] */\n      0x00\n        /* \"Wallery/Rolemanager.sol\":7925:7930  _role */\n      dup9\n        /* \"Wallery/Rolemanager.sol\":7900:7931  roleRequests[_requester][_role] */\n      dup2\n      mstore\n      0x20\n      add\n      swap1\n      dup2\n      mstore\n      0x20\n      add\n      0x00\n      keccak256\n        /* \"Wallery/Rolemanager.sol\":7871:7931  RoleRequest memory request = roleRequests[_requester][_role] */\n      mload(0x40)\n      dup1\n      0xa0\n      add\n      0x40\n      mstore\n      swap1\n      dup2\n      0x00\n      dup3\n      add\n      0x00\n      swap1\n      sload\n      swap1\n      0x0100\n      exp\n      swap1\n      div\n      0xffffffffffffffffffffffffffffffffffffffff\n      and\n      0xffffffffffffffffffffffffffffffffffffffff\n      and\n      0xffffffffffffffffffffffffffffffffffffffff\n      and\n      dup2\n      mstore\n      0x20\n      add\n      0x01\n      dup3\n      add\n      sload\n      dup2\n      mstore\n      0x20\n      add\n      0x02\n      dup3\n      add\n      dup1\n      sload\n      tag_177\n      swap1\n      tag_156\n      jump\t// in\n    tag_177:\n      dup1\n      0x1f\n      add\n      0x20\n      dup1\n      swap2\n      div\n      mul\n      0x20\n      add\n      mload(0x40)\n      swap1\n      dup2\n      add\n      0x40\n      mstore\n      dup1\n      swap3\n      swap2\n      swap1\n      dup2\n      dup2\n      mstore\n      0x20\n      add\n      dup3\n      dup1\n      sload\n      tag_178\n      swap1\n      tag_156\n      jump\t// in\n    tag_178:\n      dup1\n      iszero\n      tag_179\n      jumpi\n      dup1\n      0x1f\n      lt\n      tag_180\n      jumpi\n      0x0100\n      dup1\n      dup4\n      sload\n      div\n      mul\n      dup4\n      mstore\n      swap2\n      0x20\n      add\n      swap2\n      jump(tag_179)\n    tag_180:\n      dup3\n      add\n      swap2\n      swap1\n      0x00\n      mstore\n      keccak256(0x00, 0x20)\n      swap1\n    tag_181:\n      dup2\n      sload\n      dup2\n      mstore\n      swap1\n      0x01\n      add\n      swap1\n      0x20\n      add\n      dup1\n      dup4\n      gt\n      tag_181\n      jumpi\n      dup3\n      swap1\n      sub\n      0x1f\n      and\n      dup3\n      add\n      swap2\n    tag_179:\n      pop\n      pop\n      pop\n      pop\n      pop\n      dup2\n      mstore\n      0x20\n      add\n      0x03\n      dup3\n      add\n      0x00\n      swap1\n      sload\n      swap1\n      0x0100\n      exp\n      swap1\n      div\n      0xff\n      and\n      iszero\n      iszero\n      iszero\n      iszero\n      dup2\n      mstore\n      0x20\n      add\n      0x03\n      dup3\n      add\n      0x01\n      swap1\n      sload\n      swap1\n      0x0100\n      exp\n      swap1\n      div\n      0xff\n      and\n      iszero\n      iszero\n      iszero\n      iszero\n      dup2\n      mstore\n      pop\n      pop\n      swap1\n      pop\n        /* \"Wallery/Rolemanager.sol\":7964:7971  request */\n      dup1\n        /* \"Wallery/Rolemanager.sol\":7964:7981  request.requester */\n      0x00\n      add\n      mload\n        /* \"Wallery/Rolemanager.sol\":7996:8003  request */\n      dup2\n        /* \"Wallery/Rolemanager.sol\":7996:8008  request.role */\n      0x20\n      add\n      mload\n        /* \"Wallery/Rolemanager.sol\":8023:8030  request */\n      dup3\n        /* \"Wallery/Rolemanager.sol\":8023:8037  request.reason */\n      0x40\n      add\n      mload\n        /* \"Wallery/Rolemanager.sol\":8052:8059  request */\n      dup4\n        /* \"Wallery/Rolemanager.sol\":8052:8067  request.pending */\n      0x60\n      add\n      mload\n        /* \"Wallery/Rolemanager.sol\":8082:8089  request */\n      dup5\n        /* \"Wallery/Rolemanager.sol\":8082:8098  request.approved */\n      0x80\n      add\n      mload\n        /* \"Wallery/Rolemanager.sol\":7942:8109  return (... */\n      swap6\n      pop\n      swap6\n      pop\n      swap6\n      pop\n      swap6\n      pop\n      swap6\n      pop\n      pop\n        /* \"Wallery/Rolemanager.sol\":7644:8117  function getRoleRequest(address _requester, bytes32 _role) public view returns (... */\n      swap3\n      swap6\n      pop\n      swap3\n      swap6\n      swap1\n      swap4\n      pop\n      jump\t// out\n        /* \"Wallery/Rolemanager.sol\":1061:1105  mapping(address => UserInfo) public userInfo */\n    tag_60:\n      mstore(0x20, 0x02)\n      dup1\n      0x00\n      mstore\n      keccak256(0x00, 0x40)\n      0x00\n      swap2\n      pop\n      swap1\n      pop\n      dup1\n      0x00\n      add\n      dup1\n      sload\n      tag_182\n      swap1\n      tag_156\n      jump\t// in\n    tag_182:\n      dup1\n      0x1f\n      add\n      0x20\n      dup1\n      swap2\n      div\n      mul\n      0x20\n      add\n      mload(0x40)\n      swap1\n      dup2\n      add\n      0x40\n      mstore\n      dup1\n      swap3\n      swap2\n      swap1\n      dup2\n      dup2\n      mstore\n      0x20\n      add\n      dup3\n      dup1\n      sload\n      tag_183\n      swap1\n      tag_156\n      jump\t// in\n    tag_183:\n      dup1\n      iszero\n      tag_184\n      jumpi\n      dup1\n      0x1f\n      lt\n      tag_185\n      jumpi\n      0x0100\n      dup1\n      dup4\n      sload\n      div\n      mul\n      dup4\n      mstore\n      swap2\n      0x20\n      add\n      swap2\n      jump(tag_184)\n    tag_185:\n      dup3\n      add\n      swap2\n      swap1\n      0x00\n      mstore\n      keccak256(0x00, 0x20)\n      swap1\n    tag_186:\n      dup2\n      sload\n      dup2\n      mstore\n      swap1\n      0x01\n      add\n      swap1\n      0x20\n      add\n      dup1\n      dup4\n      gt\n      tag_186\n      jumpi\n      dup3\n      swap1\n      sub\n      0x1f\n      and\n      dup3\n      add\n      swap2\n    tag_184:\n      pop\n      pop\n      pop\n      pop\n      pop\n      swap1\n      dup1\n      0x01\n      add\n      dup1\n      sload\n      tag_187\n      swap1\n      tag_156\n      jump\t// in\n    tag_187:\n      dup1\n      0x1f\n      add\n      0x20\n      dup1\n      swap2\n      div\n      mul\n      0x20\n      add\n      mload(0x40)\n      swap1\n      dup2\n      add\n      0x40\n      mstore\n      dup1\n      swap3\n      swap2\n      swap1\n      dup2\n      dup2\n      mstore\n      0x20\n      add\n      dup3\n      dup1\n      sload\n      tag_188\n      swap1\n      tag_156\n      jump\t// in\n    tag_188:\n      dup1\n      iszero\n      tag_189\n      jumpi\n      dup1\n      0x1f\n      lt\n      tag_190\n      jumpi\n      0x0100\n      dup1\n      dup4\n      sload\n      div\n      mul\n      dup4\n      mstore\n      swap2\n      0x20\n      add\n      swap2\n      jump(tag_189)\n    tag_190:\n      dup3\n      add\n      swap2\n      swap1\n      0x00\n      mstore\n      keccak256(0x00, 0x20)\n      swap1\n    tag_191:\n      dup2\n      sload\n      dup2\n      mstore\n      swap1\n      0x01\n      add\n      swap1\n      0x20\n      add\n      dup1\n      dup4\n      gt\n      tag_191\n      jumpi\n      dup3\n      swap1\n      sub\n      0x1f\n      and\n      dup3\n      add\n      swap2\n    tag_189:\n      pop\n      pop\n      pop\n      pop\n      pop\n      swap1\n      dup1\n      0x02\n      add\n      dup1\n      sload\n      tag_192\n      swap1\n      tag_156\n      jump\t// in\n    tag_192:\n      dup1\n      0x1f\n      add\n      0x20\n      dup1\n      swap2\n      div\n      mul\n      0x20\n      add\n      mload(0x40)\n      swap1\n      dup2\n      add\n      0x40\n      mstore\n      dup1\n      swap3\n      swap2\n      swap1\n      dup2\n      dup2\n      mstore\n      0x20\n      add\n      dup3\n      dup1\n      sload\n      tag_193\n      swap1\n      tag_156\n      jump\t// in\n    tag_193:\n      dup1\n      iszero\n      tag_194\n      jumpi\n      dup1\n      0x1f\n      lt\n      tag_195\n      jumpi\n      0x0100\n      dup1\n      dup4\n      sload\n      div\n      mul\n      dup4\n      mstore\n      swap2\n      0x20\n      add\n      swap2\n      jump(tag_194)\n    tag_195:\n      dup3\n      add\n      swap2\n      swap1\n      0x00\n      mstore\n      keccak256(0x00, 0x20)\n      swap1\n    tag_196:\n      dup2\n      sload\n      dup2\n      mstore\n      swap1\n      0x01\n      add\n      swap1\n      0x20\n      add\n      dup1\n      dup4\n      gt\n      tag_196\n      jumpi\n      dup3\n      swap1\n      sub\n      0x1f\n      and\n      dup3\n      add\n      swap2\n    tag_194:\n      pop\n      pop\n      pop\n      pop\n      pop\n      swap1\n      dup1\n      0x03\n      add\n      dup1\n      sload\n      tag_197\n      swap1\n      tag_156\n      jump\t// in\n    tag_197:\n      dup1\n      0x1f\n      add\n      0x20\n      dup1\n      swap2\n      div\n      mul\n      0x20\n      add\n      mload(0x40)\n      swap1\n      dup2\n      add\n      0x40\n      mstore\n      dup1\n      swap3\n      swap2\n      swap1\n      dup2\n      dup2\n      mstore\n      0x20\n      add\n      dup3\n      dup1\n      sload\n      tag_198\n      swap1\n      tag_156\n      jump\t// in\n    tag_198:\n      dup1\n      iszero\n      tag_199\n      jumpi\n      dup1\n      0x1f\n      lt\n      tag_200\n      jumpi\n      0x0100\n      dup1\n      dup4\n      sload\n      div\n      mul\n      dup4\n      mstore\n      swap2\n      0x20\n      add\n      swap2\n      jump(tag_199)\n    tag_200:\n      dup3\n      add\n      swap2\n      swap1\n      0x00\n      mstore\n      keccak256(0x00, 0x20)\n      swap1\n    tag_201:\n      dup2\n      sload\n      dup2\n      mstore\n      swap1\n      0x01\n      add\n      swap1\n      0x20\n      add\n      dup1\n      dup4\n      gt\n      tag_201\n      jumpi\n      dup3\n      swap1\n      sub\n      0x1f\n      and\n      dup3\n      add\n      swap2\n    tag_199:\n      pop\n      pop\n      pop\n      pop\n      pop\n      swap1\n      dup1\n      0x04\n      add\n      0x00\n      swap1\n      sload\n      swap1\n      0x0100\n      exp\n      swap1\n      div\n      0xffffffffffffffffffffffffffffffffffffffff\n      and\n      swap1\n      pop\n      dup6\n      jump\t// out\n        /* \"Wallery/Rolemanager.sol\":6776:7011  function assignRole(address _user, bytes32 _role) public onlyRole(ADMIN_ROLE) whenNotPaused {... */\n    tag_65:\n        /* \"Wallery/Rolemanager.sol\":238:261  keccak256(\"ADMIN_ROLE\") */\n      0xa49807205ce4d355092ef5a8a18f56e8913cf4a201fbe287825b095693c21775\n        /* \"@openzeppelin/contracts/access/AccessControl.sol\":2464:2480  _checkRole(role) */\n      tag_203\n        /* \"@openzeppelin/contracts/access/AccessControl.sol\":2475:2479  role */\n      dup2\n        /* \"@openzeppelin/contracts/access/AccessControl.sol\":2464:2474  _checkRole */\n      tag_204\n        /* \"@openzeppelin/contracts/access/AccessControl.sol\":2464:2480  _checkRole(role) */\n      jump\t// in\n    tag_203:\n        /* \"@openzeppelin/contracts/security/Pausable.sol\":1239:1258  _requireNotPaused() */\n      tag_206\n        /* \"@openzeppelin/contracts/security/Pausable.sol\":1239:1256  _requireNotPaused */\n      tag_207\n        /* \"@openzeppelin/contracts/security/Pausable.sol\":1239:1258  _requireNotPaused() */\n      jump\t// in\n    tag_206:\n        /* \"Wallery/Rolemanager.sol\":6904:6905  0 */\n      0x00\n        /* \"Wallery/Rolemanager.sol\":6887:6906  _user != address(0) */\n      0xffffffffffffffffffffffffffffffffffffffff\n      and\n        /* \"Wallery/Rolemanager.sol\":6887:6892  _user */\n      dup4\n        /* \"Wallery/Rolemanager.sol\":6887:6906  _user != address(0) */\n      0xffffffffffffffffffffffffffffffffffffffff\n      and\n      sub\n        /* \"Wallery/Rolemanager.sol\":6879:6926  require(_user != address(0), \"Invalid address\") */\n      tag_209\n      jumpi\n      mload(0x40)\n      0x08c379a000000000000000000000000000000000000000000000000000000000\n      dup2\n      mstore\n      0x04\n      add\n      tag_210\n      swap1\n      tag_211\n      jump\t// in\n    tag_210:\n      mload(0x40)\n      dup1\n      swap2\n      sub\n      swap1\n      revert\n    tag_209:\n        /* \"Wallery/Rolemanager.sol\":6937:6961  _grantRole(_role, _user) */\n      tag_212\n        /* \"Wallery/Rolemanager.sol\":6948:6953  _role */\n      dup3\n        /* \"Wallery/Rolemanager.sol\":6955:6960  _user */\n      dup5\n        /* \"Wallery/Rolemanager.sol\":6937:6947  _grantRole */\n      tag_213\n        /* \"Wallery/Rolemanager.sol\":6937:6961  _grantRole(_role, _user) */\n      jump\t// in\n    tag_212:\n      pop\n        /* \"Wallery/Rolemanager.sol\":6997:7002  _role */\n      dup2\n        /* \"Wallery/Rolemanager.sol\":6990:6995  _user */\n      dup4\n        /* \"Wallery/Rolemanager.sol\":6977:7003  RoleAssigned(_user, _role) */\n      0xffffffffffffffffffffffffffffffffffffffff\n      and\n      0x0666448aae9b9c8249fd8213a35a9c10218a0eac2fb39b96ed90c67214c7e761\n      mload(0x40)\n      mload(0x40)\n      dup1\n      swap2\n      sub\n      swap1\n      log3\n        /* \"Wallery/Rolemanager.sol\":6776:7011  function assignRole(address _user, bytes32 _role) public onlyRole(ADMIN_ROLE) whenNotPaused {... */\n      pop\n      pop\n      pop\n      jump\t// out\n        /* \"Wallery/Rolemanager.sol\":7153:7388  function revokeRole(address _user, bytes32 _role) public onlyRole(ADMIN_ROLE) whenNotPaused {... */\n    tag_68:\n        /* \"Wallery/Rolemanager.sol\":238:261  keccak256(\"ADMIN_ROLE\") */\n      0xa49807205ce4d355092ef5a8a18f56e8913cf4a201fbe287825b095693c21775\n        /* \"@openzeppelin/contracts/access/AccessControl.sol\":2464:2480  _checkRole(role) */\n      tag_215\n        /* \"@openzeppelin/contracts/access/AccessControl.sol\":2475:2479  role */\n      dup2\n        /* \"@openzeppelin/contracts/access/AccessControl.sol\":2464:2474  _checkRole */\n      tag_204\n        /* \"@openzeppelin/contracts/access/AccessControl.sol\":2464:2480  _checkRole(role) */\n      jump\t// in\n    tag_215:\n        /* \"@openzeppelin/contracts/security/Pausable.sol\":1239:1258  _requireNotPaused() */\n      tag_217\n        /* \"@openzeppelin/contracts/security/Pausable.sol\":1239:1256  _requireNotPaused */\n      tag_207\n        /* \"@openzeppelin/contracts/security/Pausable.sol\":1239:1258  _requireNotPaused() */\n      jump\t// in\n    tag_217:\n        /* \"Wallery/Rolemanager.sol\":7281:7282  0 */\n      0x00\n        /* \"Wallery/Rolemanager.sol\":7264:7283  _user != address(0) */\n      0xffffffffffffffffffffffffffffffffffffffff\n      and\n        /* \"Wallery/Rolemanager.sol\":7264:7269  _user */\n      dup4\n        /* \"Wallery/Rolemanager.sol\":7264:7283  _user != address(0) */\n      0xffffffffffffffffffffffffffffffffffffffff\n      and\n      sub\n        /* \"Wallery/Rolemanager.sol\":7256:7303  require(_user != address(0), \"Invalid address\") */\n      tag_219\n      jumpi\n      mload(0x40)\n      0x08c379a000000000000000000000000000000000000000000000000000000000\n      dup2\n      mstore\n      0x04\n      add\n      tag_220\n      swap1\n      tag_211\n      jump\t// in\n    tag_220:\n      mload(0x40)\n      dup1\n      swap2\n      sub\n      swap1\n      revert\n    tag_219:\n        /* \"Wallery/Rolemanager.sol\":7314:7339  _revokeRole(_role, _user) */\n      tag_221\n        /* \"Wallery/Rolemanager.sol\":7326:7331  _role */\n      dup3\n        /* \"Wallery/Rolemanager.sol\":7333:7338  _user */\n      dup5\n        /* \"Wallery/Rolemanager.sol\":7314:7325  _revokeRole */\n      tag_222\n        /* \"Wallery/Rolemanager.sol\":7314:7339  _revokeRole(_role, _user) */\n      jump\t// in\n    tag_221:\n      pop\n        /* \"Wallery/Rolemanager.sol\":7374:7379  _role */\n      dup2\n        /* \"Wallery/Rolemanager.sol\":7367:7372  _user */\n      dup4\n        /* \"Wallery/Rolemanager.sol\":7355:7380  RoleRevoked(_user, _role) */\n      0xffffffffffffffffffffffffffffffffffffffff\n      and\n      0xea83a7caef01824e96446a8c4bc8ff4669edd99e129b53e32c077f85d2168081\n      mload(0x40)\n      mload(0x40)\n      dup1\n      swap2\n      sub\n      swap1\n      log3\n        /* \"Wallery/Rolemanager.sol\":7153:7388  function revokeRole(address _user, bytes32 _role) public onlyRole(ADMIN_ROLE) whenNotPaused {... */\n      pop\n      pop\n      pop\n      jump\t// out\n        /* \"@openzeppelin/contracts/access/AccessControl.sol\":3810:3930  function getRoleAdmin(bytes32 role) public view virtual returns (bytes32) {... */\n    tag_72:\n        /* \"@openzeppelin/contracts/access/AccessControl.sol\":3875:3882  bytes32 */\n      0x00\n        /* \"@openzeppelin/contracts/access/AccessControl.sol\":3901:3907  _roles */\n      dup1\n        /* \"@openzeppelin/contracts/access/AccessControl.sol\":3901:3913  _roles[role] */\n      0x00\n        /* \"@openzeppelin/contracts/access/AccessControl.sol\":3908:3912  role */\n      dup4\n        /* \"@openzeppelin/contracts/access/AccessControl.sol\":3901:3913  _roles[role] */\n      dup2\n      mstore\n      0x20\n      add\n      swap1\n      dup2\n      mstore\n      0x20\n      add\n      0x00\n      keccak256\n        /* \"@openzeppelin/contracts/access/AccessControl.sol\":3901:3923  _roles[role].adminRole */\n      0x01\n      add\n      sload\n        /* \"@openzeppelin/contracts/access/AccessControl.sol\":3894:3923  return _roles[role].adminRole */\n      swap1\n      pop\n        /* \"@openzeppelin/contracts/access/AccessControl.sol\":3810:3930  function getRoleAdmin(bytes32 role) public view virtual returns (bytes32) {... */\n      swap2\n      swap1\n      pop\n      jump\t// out\n        /* \"Wallery/Rolemanager.sol\":5372:5946  function approveRoleRequest(address _requester, bytes32 _role) public onlyRole(ADMIN_ROLE) whenNotPaused {... */\n    tag_77:\n        /* \"Wallery/Rolemanager.sol\":238:261  keccak256(\"ADMIN_ROLE\") */\n      0xa49807205ce4d355092ef5a8a18f56e8913cf4a201fbe287825b095693c21775\n        /* \"@openzeppelin/contracts/access/AccessControl.sol\":2464:2480  _checkRole(role) */\n      tag_225\n        /* \"@openzeppelin/contracts/access/AccessControl.sol\":2475:2479  role */\n      dup2\n        /* \"@openzeppelin/contracts/access/AccessControl.sol\":2464:2474  _checkRole */\n      tag_204\n        /* \"@openzeppelin/contracts/access/AccessControl.sol\":2464:2480  _checkRole(role) */\n      jump\t// in\n    tag_225:\n        /* \"@openzeppelin/contracts/security/Pausable.sol\":1239:1258  _requireNotPaused() */\n      tag_227\n        /* \"@openzeppelin/contracts/security/Pausable.sol\":1239:1256  _requireNotPaused */\n      tag_207\n        /* \"@openzeppelin/contracts/security/Pausable.sol\":1239:1258  _requireNotPaused() */\n      jump\t// in\n    tag_227:\n        /* \"Wallery/Rolemanager.sol\":5518:5519  0 */\n      0x00\n        /* \"Wallery/Rolemanager.sol\":5496:5520  _requester != address(0) */\n      0xffffffffffffffffffffffffffffffffffffffff\n      and\n        /* \"Wallery/Rolemanager.sol\":5496:5506  _requester */\n      dup4\n        /* \"Wallery/Rolemanager.sol\":5496:5520  _requester != address(0) */\n      0xffffffffffffffffffffffffffffffffffffffff\n      and\n      sub\n        /* \"Wallery/Rolemanager.sol\":5488:5540  require(_requester != address(0), \"Invalid address\") */\n      tag_229\n      jumpi\n      mload(0x40)\n      0x08c379a000000000000000000000000000000000000000000000000000000000\n      dup2\n      mstore\n      0x04\n      add\n      tag_230\n      swap1\n      tag_211\n      jump\t// in\n    tag_230:\n      mload(0x40)\n      dup1\n      swap2\n      sub\n      swap1\n      revert\n    tag_229:\n        /* \"Wallery/Rolemanager.sol\":5551:5578  RoleRequest storage request */\n      0x00\n        /* \"Wallery/Rolemanager.sol\":5581:5593  roleRequests */\n      0x04\n        /* \"Wallery/Rolemanager.sol\":5581:5605  roleRequests[_requester] */\n      0x00\n        /* \"Wallery/Rolemanager.sol\":5594:5604  _requester */\n      dup6\n        /* \"Wallery/Rolemanager.sol\":5581:5605  roleRequests[_requester] */\n      0xffffffffffffffffffffffffffffffffffffffff\n      and\n      0xffffffffffffffffffffffffffffffffffffffff\n      and\n      dup2\n      mstore\n      0x20\n      add\n      swap1\n      dup2\n      mstore\n      0x20\n      add\n      0x00\n      keccak256\n        /* \"Wallery/Rolemanager.sol\":5581:5612  roleRequests[_requester][_role] */\n      0x00\n        /* \"Wallery/Rolemanager.sol\":5606:5611  _role */\n      dup5\n        /* \"Wallery/Rolemanager.sol\":5581:5612  roleRequests[_requester][_role] */\n      dup2\n      mstore\n      0x20\n      add\n      swap1\n      dup2\n      mstore\n      0x20\n      add\n      0x00\n      keccak256\n        /* \"Wallery/Rolemanager.sol\":5551:5612  RoleRequest storage request = roleRequests[_requester][_role] */\n      swap1\n      pop\n        /* \"Wallery/Rolemanager.sol\":5631:5638  request */\n      dup1\n        /* \"Wallery/Rolemanager.sol\":5631:5646  request.pending */\n      0x03\n      add\n      0x00\n      swap1\n      sload\n      swap1\n      0x0100\n      exp\n      swap1\n      div\n      0xff\n      and\n        /* \"Wallery/Rolemanager.sol\":5623:5669  require(request.pending, \"No pending request\") */\n      tag_231\n      jumpi\n      mload(0x40)\n      0x08c379a000000000000000000000000000000000000000000000000000000000\n      dup2\n      mstore\n      0x04\n      add\n      tag_232\n      swap1\n      tag_233\n      jump\t// in\n    tag_232:\n      mload(0x40)\n      dup1\n      swap2\n      sub\n      swap1\n      revert\n    tag_231:\n        /* \"Wallery/Rolemanager.sol\":5700:5705  false */\n      0x00\n        /* \"Wallery/Rolemanager.sol\":5682:5689  request */\n      dup2\n        /* \"Wallery/Rolemanager.sol\":5682:5697  request.pending */\n      0x03\n      add\n      0x00\n        /* \"Wallery/Rolemanager.sol\":5682:5705  request.pending = false */\n      0x0100\n      exp\n      dup2\n      sload\n      dup2\n      0xff\n      mul\n      not\n      and\n      swap1\n      dup4\n      iszero\n      iszero\n      mul\n      or\n      swap1\n      sstore\n      pop\n        /* \"Wallery/Rolemanager.sol\":5735:5739  true */\n      0x01\n        /* \"Wallery/Rolemanager.sol\":5716:5723  request */\n      dup2\n        /* \"Wallery/Rolemanager.sol\":5716:5732  request.approved */\n      0x03\n      add\n      0x01\n        /* \"Wallery/Rolemanager.sol\":5716:5739  request.approved = true */\n      0x0100\n      exp\n      dup2\n      sload\n      dup2\n      0xff\n      mul\n      not\n      and\n      swap1\n      dup4\n      iszero\n      iszero\n      mul\n      or\n      swap1\n      sstore\n      pop\n        /* \"Wallery/Rolemanager.sol\":5750:5795  _removeFromPendingRequests(_requester, _role) */\n      tag_234\n        /* \"Wallery/Rolemanager.sol\":5777:5787  _requester */\n      dup5\n        /* \"Wallery/Rolemanager.sol\":5789:5794  _role */\n      dup5\n        /* \"Wallery/Rolemanager.sol\":5750:5776  _removeFromPendingRequests */\n      tag_235\n        /* \"Wallery/Rolemanager.sol\":5750:5795  _removeFromPendingRequests(_requester, _role) */\n      jump\t// in\n    tag_234:\n        /* \"Wallery/Rolemanager.sol\":5806:5835  _grantRole(_role, _requester) */\n      tag_236\n        /* \"Wallery/Rolemanager.sol\":5817:5822  _role */\n      dup4\n        /* \"Wallery/Rolemanager.sol\":5824:5834  _requester */\n      dup6\n        /* \"Wallery/Rolemanager.sol\":5806:5816  _grantRole */\n      tag_213\n        /* \"Wallery/Rolemanager.sol\":5806:5835  _grantRole(_role, _requester) */\n      jump\t// in\n    tag_236:\n      pop\n        /* \"Wallery/Rolemanager.sol\":5885:5890  _role */\n      dup3\n        /* \"Wallery/Rolemanager.sol\":5873:5883  _requester */\n      dup5\n        /* \"Wallery/Rolemanager.sol\":5853:5891  RoleRequestApproved(_requester, _role) */\n      0xffffffffffffffffffffffffffffffffffffffff\n      and\n      0x7eb8b9d1e030c150ef76a2962c9e6f78af369eb66f093314f8b59040fc5992da\n      mload(0x40)\n      mload(0x40)\n      dup1\n      swap2\n      sub\n      swap1\n      log3\n        /* \"Wallery/Rolemanager.sol\":5932:5937  _role */\n      dup3\n        /* \"Wallery/Rolemanager.sol\":5920:5930  _requester */\n      dup5\n        /* \"Wallery/Rolemanager.sol\":5907:5938  RoleAssigned(_requester, _role) */\n      0xffffffffffffffffffffffffffffffffffffffff\n      and\n      0x0666448aae9b9c8249fd8213a35a9c10218a0eac2fb39b96ed90c67214c7e761\n      mload(0x40)\n      mload(0x40)\n      dup1\n      swap2\n      sub\n      swap1\n      log3\n        /* \"Wallery/Rolemanager.sol\":5477:5946  {... */\n      pop\n        /* \"Wallery/Rolemanager.sol\":5372:5946  function approveRoleRequest(address _requester, bytes32 _role) public onlyRole(ADMIN_ROLE) whenNotPaused {... */\n      pop\n      pop\n      pop\n      jump\t// out\n        /* \"@openzeppelin/contracts/access/AccessControl.sol\":4226:4362  function grantRole(bytes32 role, address account) public virtual onlyRole(getRoleAdmin(role)) {... */\n    tag_81:\n        /* \"@openzeppelin/contracts/access/AccessControl.sol\":4300:4318  getRoleAdmin(role) */\n      tag_237\n        /* \"@openzeppelin/contracts/access/AccessControl.sol\":4313:4317  role */\n      dup3\n        /* \"@openzeppelin/contracts/access/AccessControl.sol\":4300:4312  getRoleAdmin */\n      tag_72\n        /* \"@openzeppelin/contracts/access/AccessControl.sol\":4300:4318  getRoleAdmin(role) */\n      jump\t// in\n    tag_237:\n        /* \"@openzeppelin/contracts/access/AccessControl.sol\":2464:2480  _checkRole(role) */\n      tag_239\n        /* \"@openzeppelin/contracts/access/AccessControl.sol\":2475:2479  role */\n      dup2\n        /* \"@openzeppelin/contracts/access/AccessControl.sol\":2464:2474  _checkRole */\n      tag_204\n        /* \"@openzeppelin/contracts/access/AccessControl.sol\":2464:2480  _checkRole(role) */\n      jump\t// in\n    tag_239:\n        /* \"@openzeppelin/contracts/access/AccessControl.sol\":4330:4355  _grantRole(role, account) */\n      tag_241\n        /* \"@openzeppelin/contracts/access/AccessControl.sol\":4341:4345  role */\n      dup4\n        /* \"@openzeppelin/contracts/access/AccessControl.sol\":4347:4354  account */\n      dup4\n        /* \"@openzeppelin/contracts/access/AccessControl.sol\":4330:4340  _grantRole */\n      tag_213\n        /* \"@openzeppelin/contracts/access/AccessControl.sol\":4330:4355  _grantRole(role, account) */\n      jump\t// in\n    tag_241:\n      pop\n        /* \"@openzeppelin/contracts/access/AccessControl.sol\":4226:4362  function grantRole(bytes32 role, address account) public virtual onlyRole(getRoleAdmin(role)) {... */\n      pop\n      pop\n      pop\n      jump\t// out\n        /* \"Wallery/Rolemanager.sol\":345:409  bytes32 public constant PAINTER_ROLE = keccak256(\"PAINTER_ROLE\") */\n    tag_83:\n        /* \"Wallery/Rolemanager.sol\":384:409  keccak256(\"PAINTER_ROLE\") */\n      0x709f71abb733aa2493d642ec84d615695650e6806fd401c97e1fecbd9c84c1d6\n        /* \"Wallery/Rolemanager.sol\":345:409  bytes32 public constant PAINTER_ROLE = keccak256(\"PAINTER_ROLE\") */\n      dup2\n      jump\t// out\n        /* \"@openzeppelin/contracts/access/AccessControl.sol\":5328:5573  function renounceRole(bytes32 role, address callerConfirmation) public virtual {... */\n    tag_87:\n        /* \"@openzeppelin/contracts/access/AccessControl.sol\":5443:5455  _msgSender() */\n      tag_243\n        /* \"@openzeppelin/contracts/access/AccessControl.sol\":5443:5453  _msgSender */\n      tag_244\n        /* \"@openzeppelin/contracts/access/AccessControl.sol\":5443:5455  _msgSender() */\n      jump\t// in\n    tag_243:\n        /* \"@openzeppelin/contracts/access/AccessControl.sol\":5421:5455  callerConfirmation != _msgSender() */\n      0xffffffffffffffffffffffffffffffffffffffff\n      and\n        /* \"@openzeppelin/contracts/access/AccessControl.sol\":5421:5439  callerConfirmation */\n      dup2\n        /* \"@openzeppelin/contracts/access/AccessControl.sol\":5421:5455  callerConfirmation != _msgSender() */\n      0xffffffffffffffffffffffffffffffffffffffff\n      and\n      eq\n        /* \"@openzeppelin/contracts/access/AccessControl.sol\":5417:5519  if (callerConfirmation != _msgSender()) {... */\n      tag_245\n      jumpi\n        /* \"@openzeppelin/contracts/access/AccessControl.sol\":5478:5508  AccessControlBadConfirmation() */\n      mload(0x40)\n      0x6697b23200000000000000000000000000000000000000000000000000000000\n      dup2\n      mstore\n      0x04\n      add\n      mload(0x40)\n      dup1\n      swap2\n      sub\n      swap1\n      revert\n        /* \"@openzeppelin/contracts/access/AccessControl.sol\":5417:5519  if (callerConfirmation != _msgSender()) {... */\n    tag_245:\n        /* \"@openzeppelin/contracts/access/AccessControl.sol\":5529:5566  _revokeRole(role, callerConfirmation) */\n      tag_246\n        /* \"@openzeppelin/contracts/access/AccessControl.sol\":5541:5545  role */\n      dup3\n        /* \"@openzeppelin/contracts/access/AccessControl.sol\":5547:5565  callerConfirmation */\n      dup3\n        /* \"@openzeppelin/contracts/access/AccessControl.sol\":5529:5540  _revokeRole */\n      tag_222\n        /* \"@openzeppelin/contracts/access/AccessControl.sol\":5529:5566  _revokeRole(role, callerConfirmation) */\n      jump\t// in\n    tag_246:\n      pop\n        /* \"@openzeppelin/contracts/access/AccessControl.sol\":5328:5573  function renounceRole(bytes32 role, address callerConfirmation) public virtual {... */\n      pop\n      pop\n      jump\t// out\n        /* \"Wallery/Rolemanager.sol\":1256:1292  RoleRequest[] public pendingRequests */\n    tag_91:\n      0x05\n      dup2\n      dup2\n      sload\n      dup2\n      lt\n      tag_247\n      jumpi\n      0x00\n      dup1\n      revert\n    tag_247:\n      swap1\n      0x00\n      mstore\n      keccak256(0x00, 0x20)\n      swap1\n      0x04\n      mul\n      add\n      0x00\n      swap2\n      pop\n      swap1\n      pop\n      dup1\n      0x00\n      add\n      0x00\n      swap1\n      sload\n      swap1\n      0x0100\n      exp\n      swap1\n      div\n      0xffffffffffffffffffffffffffffffffffffffff\n      and\n      swap1\n      dup1\n      0x01\n      add\n      sload\n      swap1\n      dup1\n      0x02\n      add\n      dup1\n      sload\n      tag_249\n      swap1\n      tag_156\n      jump\t// in\n    tag_249:\n      dup1\n      0x1f\n      add\n      0x20\n      dup1\n      swap2\n      div\n      mul\n      0x20\n      add\n      mload(0x40)\n      swap1\n      dup2\n      add\n      0x40\n      mstore\n      dup1\n      swap3\n      swap2\n      swap1\n      dup2\n      dup2\n      mstore\n      0x20\n      add\n      dup3\n      dup1\n      sload\n      tag_250\n      swap1\n      tag_156\n      jump\t// in\n    tag_250:\n      dup1\n      iszero\n      tag_251\n      jumpi\n      dup1\n      0x1f\n      lt\n      tag_252\n      jumpi\n      0x0100\n      dup1\n      dup4\n      sload\n      div\n      mul\n      dup4\n      mstore\n      swap2\n      0x20\n      add\n      swap2\n      jump(tag_251)\n    tag_252:\n      dup3\n      add\n      swap2\n      swap1\n      0x00\n      mstore\n      keccak256(0x00, 0x20)\n      swap1\n    tag_253:\n      dup2\n      sload\n      dup2\n      mstore\n      swap1\n      0x01\n      add\n      swap1\n      0x20\n      add\n      dup1\n      dup4\n      gt\n      tag_253\n      jumpi\n      dup3\n      swap1\n      sub\n      0x1f\n      and\n      dup3\n      add\n      swap2\n    tag_251:\n      pop\n      pop\n      pop\n      pop\n      pop\n      swap1\n      dup1\n      0x03\n      add\n      0x00\n      swap1\n      sload\n      swap1\n      0x0100\n      exp\n      swap1\n      div\n      0xff\n      and\n      swap1\n      dup1\n      0x03\n      add\n      0x01\n      swap1\n      sload\n      swap1\n      0x0100\n      exp\n      swap1\n      div\n      0xff\n      and\n      swap1\n      pop\n      dup6\n      jump\t// out\n        /* \"Wallery/Rolemanager.sol\":8817:8893  function unpause() public onlyRole(ADMIN_ROLE) {... */\n    tag_94:\n        /* \"Wallery/Rolemanager.sol\":238:261  keccak256(\"ADMIN_ROLE\") */\n      0xa49807205ce4d355092ef5a8a18f56e8913cf4a201fbe287825b095693c21775\n        /* \"@openzeppelin/contracts/access/AccessControl.sol\":2464:2480  _checkRole(role) */\n      tag_255\n        /* \"@openzeppelin/contracts/access/AccessControl.sol\":2475:2479  role */\n      dup2\n        /* \"@openzeppelin/contracts/access/AccessControl.sol\":2464:2474  _checkRole */\n      tag_204\n        /* \"@openzeppelin/contracts/access/AccessControl.sol\":2464:2480  _checkRole(role) */\n      jump\t// in\n    tag_255:\n        /* \"Wallery/Rolemanager.sol\":8875:8885  _unpause() */\n      tag_257\n        /* \"Wallery/Rolemanager.sol\":8875:8883  _unpause */\n      tag_258\n        /* \"Wallery/Rolemanager.sol\":8875:8885  _unpause() */\n      jump\t// in\n    tag_257:\n        /* \"Wallery/Rolemanager.sol\":8817:8893  function unpause() public onlyRole(ADMIN_ROLE) {... */\n      pop\n      jump\t// out\n        /* \"@openzeppelin/contracts/security/Pausable.sol\":1615:1699  function paused() public view virtual returns (bool) {... */\n    tag_96:\n        /* \"@openzeppelin/contracts/security/Pausable.sol\":1662:1666  bool */\n      0x00\n        /* \"@openzeppelin/contracts/security/Pausable.sol\":1685:1692  _paused */\n      0x01\n      0x00\n      swap1\n      sload\n      swap1\n      0x0100\n      exp\n      swap1\n      div\n      0xff\n      and\n        /* \"@openzeppelin/contracts/security/Pausable.sol\":1678:1692  return _paused */\n      swap1\n      pop\n        /* \"@openzeppelin/contracts/security/Pausable.sol\":1615:1699  function paused() public view virtual returns (bool) {... */\n      swap1\n      jump\t// out\n        /* \"Wallery/Rolemanager.sol\":3884:4345  function getUserInfo(address user) public view returns (... */\n    tag_100:\n        /* \"Wallery/Rolemanager.sol\":3950:3973  string memory firstName */\n      0x60\n        /* \"Wallery/Rolemanager.sol\":3984:4006  string memory lastName */\n      dup1\n        /* \"Wallery/Rolemanager.sol\":4017:4036  string memory email */\n      0x60\n        /* \"Wallery/Rolemanager.sol\":4047:4073  string memory organization */\n      dup1\n        /* \"Wallery/Rolemanager.sol\":4084:4105  address walletAddress */\n      0x00\n        /* \"Wallery/Rolemanager.sol\":4124:4144  UserInfo memory info */\n      dup1\n        /* \"Wallery/Rolemanager.sol\":4147:4155  userInfo */\n      0x02\n        /* \"Wallery/Rolemanager.sol\":4147:4161  userInfo[user] */\n      0x00\n        /* \"Wallery/Rolemanager.sol\":4156:4160  user */\n      dup9\n        /* \"Wallery/Rolemanager.sol\":4147:4161  userInfo[user] */\n      0xffffffffffffffffffffffffffffffffffffffff\n      and\n      0xffffffffffffffffffffffffffffffffffffffff\n      and\n      dup2\n      mstore\n      0x20\n      add\n      swap1\n      dup2\n      mstore\n      0x20\n      add\n      0x00\n      keccak256\n        /* \"Wallery/Rolemanager.sol\":4124:4161  UserInfo memory info = userInfo[user] */\n      mload(0x40)\n      dup1\n      0xa0\n      add\n      0x40\n      mstore\n      swap1\n      dup2\n      0x00\n      dup3\n      add\n      dup1\n      sload\n      tag_261\n      swap1\n      tag_156\n      jump\t// in\n    tag_261:\n      dup1\n      0x1f\n      add\n      0x20\n      dup1\n      swap2\n      div\n      mul\n      0x20\n      add\n      mload(0x40)\n      swap1\n      dup2\n      add\n      0x40\n      mstore\n      dup1\n      swap3\n      swap2\n      swap1\n      dup2\n      dup2\n      mstore\n      0x20\n      add\n      dup3\n      dup1\n      sload\n      tag_262\n      swap1\n      tag_156\n      jump\t// in\n    tag_262:\n      dup1\n      iszero\n      tag_263\n      jumpi\n      dup1\n      0x1f\n      lt\n      tag_264\n      jumpi\n      0x0100\n      dup1\n      dup4\n      sload\n      div\n      mul\n      dup4\n      mstore\n      swap2\n      0x20\n      add\n      swap2\n      jump(tag_263)\n    tag_264:\n      dup3\n      add\n      swap2\n      swap1\n      0x00\n      mstore\n      keccak256(0x00, 0x20)\n      swap1\n    tag_265:\n      dup2\n      sload\n      dup2\n      mstore\n      swap1\n      0x01\n      add\n      swap1\n      0x20\n      add\n      dup1\n      dup4\n      gt\n      tag_265\n      jumpi\n      dup3\n      swap1\n      sub\n      0x1f\n      and\n      dup3\n      add\n      swap2\n    tag_263:\n      pop\n      pop\n      pop\n      pop\n      pop\n      dup2\n      mstore\n      0x20\n      add\n      0x01\n      dup3\n      add\n      dup1\n      sload\n      tag_266\n      swap1\n      tag_156\n      jump\t// in\n    tag_266:\n      dup1\n      0x1f\n      add\n      0x20\n      dup1\n      swap2\n      div\n      mul\n      0x20\n      add\n      mload(0x40)\n      swap1\n      dup2\n      add\n      0x40\n      mstore\n      dup1\n      swap3\n      swap2\n      swap1\n      dup2\n      dup2\n      mstore\n      0x20\n      add\n      dup3\n      dup1\n      sload\n      tag_267\n      swap1\n      tag_156\n      jump\t// in\n    tag_267:\n      dup1\n      iszero\n      tag_268\n      jumpi\n      dup1\n      0x1f\n      lt\n      tag_269\n      jumpi\n      0x0100\n      dup1\n      dup4\n      sload\n      div\n      mul\n      dup4\n      mstore\n      swap2\n      0x20\n      add\n      swap2\n      jump(tag_268)\n    tag_269:\n      dup3\n      add\n      swap2\n      swap1\n      0x00\n      mstore\n      keccak256(0x00, 0x20)\n      swap1\n    tag_270:\n      dup2\n      sload\n      dup2\n      mstore\n      swap1\n      0x01\n      add\n      swap1\n      0x20\n      add\n      dup1\n      dup4\n      gt\n      tag_270\n      jumpi\n      dup3\n      swap1\n      sub\n      0x1f\n      and\n      dup3\n      add\n      swap2\n    tag_268:\n      pop\n      pop\n      pop\n      pop\n      pop\n      dup2\n      mstore\n      0x20\n      add\n      0x02\n      dup3\n      add\n      dup1\n      sload\n      tag_271\n      swap1\n      tag_156\n      jump\t// in\n    tag_271:\n      dup1\n      0x1f\n      add\n      0x20\n      dup1\n      swap2\n      div\n      mul\n      0x20\n      add\n      mload(0x40)\n      swap1\n      dup2\n      add\n      0x40\n      mstore\n      dup1\n      swap3\n      swap2\n      swap1\n      dup2\n      dup2\n      mstore\n      0x20\n      add\n      dup3\n      dup1\n      sload\n      tag_272\n      swap1\n      tag_156\n      jump\t// in\n    tag_272:\n      dup1\n      iszero\n      tag_273\n      jumpi\n      dup1\n      0x1f\n      lt\n      tag_274\n      jumpi\n      0x0100\n      dup1\n      dup4\n      sload\n      div\n      mul\n      dup4\n      mstore\n      swap2\n      0x20\n      add\n      swap2\n      jump(tag_273)\n    tag_274:\n      dup3\n      add\n      swap2\n      swap1\n      0x00\n      mstore\n      keccak256(0x00, 0x20)\n      swap1\n    tag_275:\n      dup2\n      sload\n      dup2\n      mstore\n      swap1\n      0x01\n      add\n      swap1\n      0x20\n      add\n      dup1\n      dup4\n      gt\n      tag_275\n      jumpi\n      dup3\n      swap1\n      sub\n      0x1f\n      and\n      dup3\n      add\n      swap2\n    tag_273:\n      pop\n      pop\n      pop\n      pop\n      pop\n      dup2\n      mstore\n      0x20\n      add\n      0x03\n      dup3\n      add\n      dup1\n      sload\n      tag_276\n      swap1\n      tag_156\n      jump\t// in\n    tag_276:\n      dup1\n      0x1f\n      add\n      0x20\n      dup1\n      swap2\n      div\n      mul\n      0x20\n      add\n      mload(0x40)\n      swap1\n      dup2\n      add\n      0x40\n      mstore\n      dup1\n      swap3\n      swap2\n      swap1\n      dup2\n      dup2\n      mstore\n      0x20\n      add\n      dup3\n      dup1\n      sload\n      tag_277\n      swap1\n      tag_156\n      jump\t// in\n    tag_277:\n      dup1\n      iszero\n      tag_278\n      jumpi\n      dup1\n      0x1f\n      lt\n      tag_279\n      jumpi\n      0x0100\n      dup1\n      dup4\n      sload\n      div\n      mul\n      dup4\n      mstore\n      swap2\n      0x20\n      add\n      swap2\n      jump(tag_278)\n    tag_279:\n      dup3\n      add\n      swap2\n      swap1\n      0x00\n      mstore\n      keccak256(0x00, 0x20)\n      swap1\n    tag_280:\n      dup2\n      sload\n      dup2\n      mstore\n      swap1\n      0x01\n      add\n      swap1\n      0x20\n      add\n      dup1\n      dup4\n      gt\n      tag_280\n      jumpi\n      dup3\n      swap1\n      sub\n      0x1f\n      and\n      dup3\n      add\n      swap2\n    tag_278:\n      pop\n      pop\n      pop\n      pop\n      pop\n      dup2\n      mstore\n      0x20\n      add\n      0x04\n      dup3\n      add\n      0x00\n      swap1\n      sload\n      swap1\n      0x0100\n      exp\n      swap1\n      div\n      0xffffffffffffffffffffffffffffffffffffffff\n      and\n      0xffffffffffffffffffffffffffffffffffffffff\n      and\n      0xffffffffffffffffffffffffffffffffffffffff\n      and\n      dup2\n      mstore\n      pop\n      pop\n      swap1\n      pop\n        /* \"Wallery/Rolemanager.sol\":4194:4198  info */\n      dup1\n        /* \"Wallery/Rolemanager.sol\":4194:4208  info.firstName */\n      0x00\n      add\n      mload\n        /* \"Wallery/Rolemanager.sol\":4223:4227  info */\n      dup2\n        /* \"Wallery/Rolemanager.sol\":4223:4236  info.lastName */\n      0x20\n      add\n      mload\n        /* \"Wallery/Rolemanager.sol\":4251:4255  info */\n      dup3\n        /* \"Wallery/Rolemanager.sol\":4251:4261  info.email */\n      0x40\n      add\n      mload\n        /* \"Wallery/Rolemanager.sol\":4276:4280  info */\n      dup4\n        /* \"Wallery/Rolemanager.sol\":4276:4293  info.organization */\n      0x60\n      add\n      mload\n        /* \"Wallery/Rolemanager.sol\":4308:4312  info */\n      dup5\n        /* \"Wallery/Rolemanager.sol\":4308:4326  info.walletAddress */\n      0x80\n      add\n      mload\n        /* \"Wallery/Rolemanager.sol\":4172:4337  return (... */\n      swap6\n      pop\n      swap6\n      pop\n      swap6\n      pop\n      swap6\n      pop\n      swap6\n      pop\n      pop\n        /* \"Wallery/Rolemanager.sol\":3884:4345  function getUserInfo(address user) public view returns (... */\n      swap2\n      swap4\n      swap6\n      swap1\n      swap3\n      swap5\n      pop\n      jump\t// out\n        /* \"Wallery/Rolemanager.sol\":201:261  bytes32 public constant ADMIN_ROLE = keccak256(\"ADMIN_ROLE\") */\n    tag_103:\n        /* \"Wallery/Rolemanager.sol\":238:261  keccak256(\"ADMIN_ROLE\") */\n      0xa49807205ce4d355092ef5a8a18f56e8913cf4a201fbe287825b095693c21775\n        /* \"Wallery/Rolemanager.sol\":201:261  bytes32 public constant ADMIN_ROLE = keccak256(\"ADMIN_ROLE\") */\n      dup2\n      jump\t// out\n        /* \"Wallery/Rolemanager.sol\":4517:5192  function requestRole(bytes32 _role, string memory _reason) public whenNotPaused {... */\n    tag_108:\n        /* \"@openzeppelin/contracts/security/Pausable.sol\":1239:1258  _requireNotPaused() */\n      tag_282\n        /* \"@openzeppelin/contracts/security/Pausable.sol\":1239:1256  _requireNotPaused */\n      tag_207\n        /* \"@openzeppelin/contracts/security/Pausable.sol\":1239:1258  _requireNotPaused() */\n      jump\t// in\n    tag_282:\n        /* \"Wallery/Rolemanager.sol\":4617:4643  hasRole(_role, msg.sender) */\n      tag_284\n        /* \"Wallery/Rolemanager.sol\":4625:4630  _role */\n      dup3\n        /* \"Wallery/Rolemanager.sol\":4632:4642  msg.sender */\n      caller\n        /* \"Wallery/Rolemanager.sol\":4617:4624  hasRole */\n      tag_127\n        /* \"Wallery/Rolemanager.sol\":4617:4643  hasRole(_role, msg.sender) */\n      jump\t// in\n    tag_284:\n        /* \"Wallery/Rolemanager.sol\":4616:4643  !hasRole(_role, msg.sender) */\n      iszero\n        /* \"Wallery/Rolemanager.sol\":4608:4664  require(!hasRole(_role, msg.sender), \"Already has role\") */\n      tag_285\n      jumpi\n      mload(0x40)\n      0x08c379a000000000000000000000000000000000000000000000000000000000\n      dup2\n      mstore\n      0x04\n      add\n      tag_286\n      swap1\n      tag_287\n      jump\t// in\n    tag_286:\n      mload(0x40)\n      dup1\n      swap2\n      sub\n      swap1\n      revert\n    tag_285:\n        /* \"Wallery/Rolemanager.sol\":4707:4708  0 */\n      0x00\n        /* \"Wallery/Rolemanager.sol\":4689:4696  _reason */\n      dup2\n        /* \"Wallery/Rolemanager.sol\":4683:4704  bytes(_reason).length */\n      mload\n        /* \"Wallery/Rolemanager.sol\":4683:4708  bytes(_reason).length > 0 */\n      gt\n        /* \"Wallery/Rolemanager.sol\":4675:4728  require(bytes(_reason).length > 0, \"Reason required\") */\n      tag_288\n      jumpi\n      mload(0x40)\n      0x08c379a000000000000000000000000000000000000000000000000000000000\n      dup2\n      mstore\n      0x04\n      add\n      tag_289\n      swap1\n      tag_290\n      jump\t// in\n    tag_289:\n      mload(0x40)\n      dup1\n      swap2\n      sub\n      swap1\n      revert\n    tag_288:\n        /* \"Wallery/Rolemanager.sol\":4748:4760  roleRequests */\n      0x04\n        /* \"Wallery/Rolemanager.sol\":4748:4772  roleRequests[msg.sender] */\n      0x00\n        /* \"Wallery/Rolemanager.sol\":4761:4771  msg.sender */\n      caller\n        /* \"Wallery/Rolemanager.sol\":4748:4772  roleRequests[msg.sender] */\n      0xffffffffffffffffffffffffffffffffffffffff\n      and\n      0xffffffffffffffffffffffffffffffffffffffff\n      and\n      dup2\n      mstore\n      0x20\n      add\n      swap1\n      dup2\n      mstore\n      0x20\n      add\n      0x00\n      keccak256\n        /* \"Wallery/Rolemanager.sol\":4748:4779  roleRequests[msg.sender][_role] */\n      0x00\n        /* \"Wallery/Rolemanager.sol\":4773:4778  _role */\n      dup4\n        /* \"Wallery/Rolemanager.sol\":4748:4779  roleRequests[msg.sender][_role] */\n      dup2\n      mstore\n      0x20\n      add\n      swap1\n      dup2\n      mstore\n      0x20\n      add\n      0x00\n      keccak256\n        /* \"Wallery/Rolemanager.sol\":4748:4787  roleRequests[msg.sender][_role].pending */\n      0x03\n      add\n      0x00\n      swap1\n      sload\n      swap1\n      0x0100\n      exp\n      swap1\n      div\n      0xff\n      and\n        /* \"Wallery/Rolemanager.sol\":4747:4787  !roleRequests[msg.sender][_role].pending */\n      iszero\n        /* \"Wallery/Rolemanager.sol\":4739:4815  require(!roleRequests[msg.sender][_role].pending, \"Request already pending\") */\n      tag_291\n      jumpi\n      mload(0x40)\n      0x08c379a000000000000000000000000000000000000000000000000000000000\n      dup2\n      mstore\n      0x04\n      add\n      tag_292\n      swap1\n      tag_293\n      jump\t// in\n    tag_292:\n      mload(0x40)\n      dup1\n      swap2\n      sub\n      swap1\n      revert\n    tag_291:\n        /* \"Wallery/Rolemanager.sol\":4828:4854  RoleRequest memory request */\n      0x00\n        /* \"Wallery/Rolemanager.sol\":4857:5031  RoleRequest({... */\n      mload(0x40)\n      dup1\n      0xa0\n      add\n      0x40\n      mstore\n      dup1\n        /* \"Wallery/Rolemanager.sol\":4895:4905  msg.sender */\n      caller\n        /* \"Wallery/Rolemanager.sol\":4857:5031  RoleRequest({... */\n      0xffffffffffffffffffffffffffffffffffffffff\n      and\n      dup2\n      mstore\n      0x20\n      add\n        /* \"Wallery/Rolemanager.sol\":4926:4931  _role */\n      dup5\n        /* \"Wallery/Rolemanager.sol\":4857:5031  RoleRequest({... */\n      dup2\n      mstore\n      0x20\n      add\n        /* \"Wallery/Rolemanager.sol\":4954:4961  _reason */\n      dup4\n        /* \"Wallery/Rolemanager.sol\":4857:5031  RoleRequest({... */\n      dup2\n      mstore\n      0x20\n      add\n        /* \"Wallery/Rolemanager.sol\":4985:4989  true */\n      0x01\n        /* \"Wallery/Rolemanager.sol\":4857:5031  RoleRequest({... */\n      iszero\n      iszero\n      dup2\n      mstore\n      0x20\n      add\n        /* \"Wallery/Rolemanager.sol\":5014:5019  false */\n      0x00\n        /* \"Wallery/Rolemanager.sol\":4857:5031  RoleRequest({... */\n      iszero\n      iszero\n      dup2\n      mstore\n      pop\n        /* \"Wallery/Rolemanager.sol\":4828:5031  RoleRequest memory request = RoleRequest({... */\n      swap1\n      pop\n        /* \"Wallery/Rolemanager.sol\":5078:5085  request */\n      dup1\n        /* \"Wallery/Rolemanager.sol\":5044:5056  roleRequests */\n      0x04\n        /* \"Wallery/Rolemanager.sol\":5044:5068  roleRequests[msg.sender] */\n      0x00\n        /* \"Wallery/Rolemanager.sol\":5057:5067  msg.sender */\n      caller\n        /* \"Wallery/Rolemanager.sol\":5044:5068  roleRequests[msg.sender] */\n      0xffffffffffffffffffffffffffffffffffffffff\n      and\n      0xffffffffffffffffffffffffffffffffffffffff\n      and\n      dup2\n      mstore\n      0x20\n      add\n      swap1\n      dup2\n      mstore\n      0x20\n      add\n      0x00\n      keccak256\n        /* \"Wallery/Rolemanager.sol\":5044:5075  roleRequests[msg.sender][_role] */\n      0x00\n        /* \"Wallery/Rolemanager.sol\":5069:5074  _role */\n      dup6\n        /* \"Wallery/Rolemanager.sol\":5044:5075  roleRequests[msg.sender][_role] */\n      dup2\n      mstore\n      0x20\n      add\n      swap1\n      dup2\n      mstore\n      0x20\n      add\n      0x00\n      keccak256\n        /* \"Wallery/Rolemanager.sol\":5044:5085  roleRequests[msg.sender][_role] = request */\n      0x00\n      dup3\n      add\n      mload\n      dup2\n      0x00\n      add\n      exp(0x0100, 0x00)\n      dup2\n      sload\n      dup2\n      0xffffffffffffffffffffffffffffffffffffffff\n      mul\n      not\n      and\n      swap1\n      dup4\n      0xffffffffffffffffffffffffffffffffffffffff\n      and\n      mul\n      or\n      swap1\n      sstore\n      pop\n      0x20\n      dup3\n      add\n      mload\n      dup2\n      0x01\n      add\n      sstore\n      0x40\n      dup3\n      add\n      mload\n      dup2\n      0x02\n      add\n      swap1\n      dup2\n      tag_294\n      swap2\n      swap1\n      tag_295\n      jump\t// in\n    tag_294:\n      pop\n      0x60\n      dup3\n      add\n      mload\n      dup2\n      0x03\n      add\n      exp(0x0100, 0x00)\n      dup2\n      sload\n      dup2\n      0xff\n      mul\n      not\n      and\n      swap1\n      dup4\n      iszero\n      iszero\n      mul\n      or\n      swap1\n      sstore\n      pop\n      0x80\n      dup3\n      add\n      mload\n      dup2\n      0x03\n      add\n      exp(0x0100, 0x01)\n      dup2\n      sload\n      dup2\n      0xff\n      mul\n      not\n      and\n      swap1\n      dup4\n      iszero\n      iszero\n      mul\n      or\n      swap1\n      sstore\n      pop\n      swap1\n      pop\n      pop\n        /* \"Wallery/Rolemanager.sol\":5096:5111  pendingRequests */\n      0x05\n        /* \"Wallery/Rolemanager.sol\":5117:5124  request */\n      dup2\n        /* \"Wallery/Rolemanager.sol\":5096:5125  pendingRequests.push(request) */\n      swap1\n      dup1\n      0x01\n      dup2\n      sload\n      add\n      dup1\n      dup3\n      sstore\n      dup1\n      swap2\n      pop\n      pop\n      0x01\n      swap1\n      sub\n      swap1\n      0x00\n      mstore\n      keccak256(0x00, 0x20)\n      swap1\n      0x04\n      mul\n      add\n      0x00\n      swap1\n      swap2\n      swap1\n      swap2\n      swap1\n      swap2\n      pop\n      0x00\n      dup3\n      add\n      mload\n      dup2\n      0x00\n      add\n      exp(0x0100, 0x00)\n      dup2\n      sload\n      dup2\n      0xffffffffffffffffffffffffffffffffffffffff\n      mul\n      not\n      and\n      swap1\n      dup4\n      0xffffffffffffffffffffffffffffffffffffffff\n      and\n      mul\n      or\n      swap1\n      sstore\n      pop\n      0x20\n      dup3\n      add\n      mload\n      dup2\n      0x01\n      add\n      sstore\n      0x40\n      dup3\n      add\n      mload\n      dup2\n      0x02\n      add\n      swap1\n      dup2\n      tag_297\n      swap2\n      swap1\n      tag_295\n      jump\t// in\n    tag_297:\n      pop\n      0x60\n      dup3\n      add\n      mload\n      dup2\n      0x03\n      add\n      exp(0x0100, 0x00)\n      dup2\n      sload\n      dup2\n      0xff\n      mul\n      not\n      and\n      swap1\n      dup4\n      iszero\n      iszero\n      mul\n      or\n      swap1\n      sstore\n      pop\n      0x80\n      dup3\n      add\n      mload\n      dup2\n      0x03\n      add\n      exp(0x0100, 0x01)\n      dup2\n      sload\n      dup2\n      0xff\n      mul\n      not\n      and\n      swap1\n      dup4\n      iszero\n      iszero\n      mul\n      or\n      swap1\n      sstore\n      pop\n      pop\n      pop\n        /* \"Wallery/Rolemanager.sol\":5169:5174  _role */\n      dup3\n        /* \"Wallery/Rolemanager.sol\":5157:5167  msg.sender */\n      caller\n        /* \"Wallery/Rolemanager.sol\":5143:5184  RoleRequested(msg.sender, _role, _reason) */\n      0xffffffffffffffffffffffffffffffffffffffff\n      and\n      0x98f6f2d133c420a141a671ce9479e3956417c7f04bd370de1cd64ce10d385d94\n        /* \"Wallery/Rolemanager.sol\":5176:5183  _reason */\n      dup5\n        /* \"Wallery/Rolemanager.sol\":5143:5184  RoleRequested(msg.sender, _role, _reason) */\n      mload(0x40)\n      tag_298\n      swap2\n      swap1\n      tag_299\n      jump\t// in\n    tag_298:\n      mload(0x40)\n      dup1\n      swap2\n      sub\n      swap1\n      log3\n        /* \"Wallery/Rolemanager.sol\":4597:5192  {... */\n      pop\n        /* \"Wallery/Rolemanager.sol\":4517:5192  function requestRole(bytes32 _role, string memory _reason) public whenNotPaused {... */\n      pop\n      pop\n      jump\t// out\n        /* \"Wallery/Rolemanager.sol\":2068:3069  function requestUserInfo(... */\n    tag_112:\n        /* \"@openzeppelin/contracts/security/Pausable.sol\":1239:1258  _requireNotPaused() */\n      tag_301\n        /* \"@openzeppelin/contracts/security/Pausable.sol\":1239:1256  _requireNotPaused */\n      tag_207\n        /* \"@openzeppelin/contracts/security/Pausable.sol\":1239:1258  _requireNotPaused() */\n      jump\t// in\n    tag_301:\n        /* \"Wallery/Rolemanager.sol\":2300:2301  0 */\n      0x00\n        /* \"Wallery/Rolemanager.sol\":2280:2289  firstName */\n      dup5\n        /* \"Wallery/Rolemanager.sol\":2274:2297  bytes(firstName).length */\n      mload\n        /* \"Wallery/Rolemanager.sol\":2274:2301  bytes(firstName).length > 0 */\n      gt\n        /* \"Wallery/Rolemanager.sol\":2266:2325  require(bytes(firstName).length > 0, \"First name required\") */\n      tag_303\n      jumpi\n      mload(0x40)\n      0x08c379a000000000000000000000000000000000000000000000000000000000\n      dup2\n      mstore\n      0x04\n      add\n      tag_304\n      swap1\n      tag_305\n      jump\t// in\n    tag_304:\n      mload(0x40)\n      dup1\n      swap2\n      sub\n      swap1\n      revert\n    tag_303:\n        /* \"Wallery/Rolemanager.sol\":2369:2370  0 */\n      0x00\n        /* \"Wallery/Rolemanager.sol\":2350:2358  lastName */\n      dup4\n        /* \"Wallery/Rolemanager.sol\":2344:2366  bytes(lastName).length */\n      mload\n        /* \"Wallery/Rolemanager.sol\":2344:2370  bytes(lastName).length > 0 */\n      gt\n        /* \"Wallery/Rolemanager.sol\":2336:2393  require(bytes(lastName).length > 0, \"Last name required\") */\n      tag_306\n      jumpi\n      mload(0x40)\n      0x08c379a000000000000000000000000000000000000000000000000000000000\n      dup2\n      mstore\n      0x04\n      add\n      tag_307\n      swap1\n      tag_308\n      jump\t// in\n    tag_307:\n      mload(0x40)\n      dup1\n      swap2\n      sub\n      swap1\n      revert\n    tag_306:\n        /* \"Wallery/Rolemanager.sol\":2434:2435  0 */\n      0x00\n        /* \"Wallery/Rolemanager.sol\":2418:2423  email */\n      dup3\n        /* \"Wallery/Rolemanager.sol\":2412:2431  bytes(email).length */\n      mload\n        /* \"Wallery/Rolemanager.sol\":2412:2435  bytes(email).length > 0 */\n      gt\n        /* \"Wallery/Rolemanager.sol\":2404:2454  require(bytes(email).length > 0, \"Email required\") */\n      tag_309\n      jumpi\n      mload(0x40)\n      0x08c379a000000000000000000000000000000000000000000000000000000000\n      dup2\n      mstore\n      0x04\n      add\n      tag_310\n      swap1\n      tag_311\n      jump\t// in\n    tag_310:\n      mload(0x40)\n      dup1\n      swap2\n      sub\n      swap1\n      revert\n    tag_309:\n        /* \"Wallery/Rolemanager.sol\":2475:2495  UserInfo memory info */\n      0x00\n        /* \"Wallery/Rolemanager.sol\":2498:2695  UserInfo({... */\n      mload(0x40)\n      dup1\n      0xa0\n      add\n      0x40\n      mstore\n      dup1\n        /* \"Wallery/Rolemanager.sol\":2533:2542  firstName */\n      dup7\n        /* \"Wallery/Rolemanager.sol\":2498:2695  UserInfo({... */\n      dup2\n      mstore\n      0x20\n      add\n        /* \"Wallery/Rolemanager.sol\":2567:2575  lastName */\n      dup6\n        /* \"Wallery/Rolemanager.sol\":2498:2695  UserInfo({... */\n      dup2\n      mstore\n      0x20\n      add\n        /* \"Wallery/Rolemanager.sol\":2597:2602  email */\n      dup5\n        /* \"Wallery/Rolemanager.sol\":2498:2695  UserInfo({... */\n      dup2\n      mstore\n      0x20\n      add\n        /* \"Wallery/Rolemanager.sol\":2631:2643  organization */\n      dup4\n        /* \"Wallery/Rolemanager.sol\":2498:2695  UserInfo({... */\n      dup2\n      mstore\n      0x20\n      add\n        /* \"Wallery/Rolemanager.sol\":2673:2683  msg.sender */\n      caller\n        /* \"Wallery/Rolemanager.sol\":2498:2695  UserInfo({... */\n      0xffffffffffffffffffffffffffffffffffffffff\n      and\n      dup2\n      mstore\n      pop\n        /* \"Wallery/Rolemanager.sol\":2475:2695  UserInfo memory info = UserInfo({... */\n      swap1\n      pop\n        /* \"Wallery/Rolemanager.sol\":2708:2721  bool isUpdate */\n      0x00\n        /* \"Wallery/Rolemanager.sol\":2770:2771  0 */\n      dup1\n        /* \"Wallery/Rolemanager.sol\":2724:2772  userInfo[msg.sender].walletAddress != address(0) */\n      0xffffffffffffffffffffffffffffffffffffffff\n      and\n        /* \"Wallery/Rolemanager.sol\":2724:2732  userInfo */\n      0x02\n        /* \"Wallery/Rolemanager.sol\":2724:2744  userInfo[msg.sender] */\n      0x00\n        /* \"Wallery/Rolemanager.sol\":2733:2743  msg.sender */\n      caller\n        /* \"Wallery/Rolemanager.sol\":2724:2744  userInfo[msg.sender] */\n      0xffffffffffffffffffffffffffffffffffffffff\n      and\n      0xffffffffffffffffffffffffffffffffffffffff\n      and\n      dup2\n      mstore\n      0x20\n      add\n      swap1\n      dup2\n      mstore\n      0x20\n      add\n      0x00\n      keccak256\n        /* \"Wallery/Rolemanager.sol\":2724:2758  userInfo[msg.sender].walletAddress */\n      0x04\n      add\n      0x00\n      swap1\n      sload\n      swap1\n      0x0100\n      exp\n      swap1\n      div\n      0xffffffffffffffffffffffffffffffffffffffff\n      and\n        /* \"Wallery/Rolemanager.sol\":2724:2772  userInfo[msg.sender].walletAddress != address(0) */\n      0xffffffffffffffffffffffffffffffffffffffff\n      and\n      eq\n      iszero\n        /* \"Wallery/Rolemanager.sol\":2708:2772  bool isUpdate = userInfo[msg.sender].walletAddress != address(0) */\n      swap1\n      pop\n        /* \"Wallery/Rolemanager.sol\":2824:3004  UserInfoRequest({... */\n      mload(0x40)\n      dup1\n      0xa0\n      add\n      0x40\n      mstore\n      dup1\n        /* \"Wallery/Rolemanager.sol\":2866:2876  msg.sender */\n      caller\n        /* \"Wallery/Rolemanager.sol\":2824:3004  UserInfoRequest({... */\n      0xffffffffffffffffffffffffffffffffffffffff\n      and\n      dup2\n      mstore\n      0x20\n      add\n        /* \"Wallery/Rolemanager.sol\":2897:2901  info */\n      dup4\n        /* \"Wallery/Rolemanager.sol\":2824:3004  UserInfoRequest({... */\n      dup2\n      mstore\n      0x20\n      add\n        /* \"Wallery/Rolemanager.sol\":2926:2934  isUpdate */\n      dup3\n        /* \"Wallery/Rolemanager.sol\":2824:3004  UserInfoRequest({... */\n      iszero\n      iszero\n      dup2\n      mstore\n      0x20\n      add\n        /* \"Wallery/Rolemanager.sol\":2958:2962  true */\n      0x01\n        /* \"Wallery/Rolemanager.sol\":2824:3004  UserInfoRequest({... */\n      iszero\n      iszero\n      dup2\n      mstore\n      0x20\n      add\n        /* \"Wallery/Rolemanager.sol\":2987:2992  false */\n      0x00\n        /* \"Wallery/Rolemanager.sol\":2824:3004  UserInfoRequest({... */\n      iszero\n      iszero\n      dup2\n      mstore\n      pop\n        /* \"Wallery/Rolemanager.sol\":2793:2809  userInfoRequests */\n      0x03\n        /* \"Wallery/Rolemanager.sol\":2793:2821  userInfoRequests[msg.sender] */\n      0x00\n        /* \"Wallery/Rolemanager.sol\":2810:2820  msg.sender */\n      caller\n        /* \"Wallery/Rolemanager.sol\":2793:2821  userInfoRequests[msg.sender] */\n      0xffffffffffffffffffffffffffffffffffffffff\n      and\n      0xffffffffffffffffffffffffffffffffffffffff\n      and\n      dup2\n      mstore\n      0x20\n      add\n      swap1\n      dup2\n      mstore\n      0x20\n      add\n      0x00\n      keccak256\n        /* \"Wallery/Rolemanager.sol\":2793:3004  userInfoRequests[msg.sender] = UserInfoRequest({... */\n      0x00\n      dup3\n      add\n      mload\n      dup2\n      0x00\n      add\n      exp(0x0100, 0x00)\n      dup2\n      sload\n      dup2\n      0xffffffffffffffffffffffffffffffffffffffff\n      mul\n      not\n      and\n      swap1\n      dup4\n      0xffffffffffffffffffffffffffffffffffffffff\n      and\n      mul\n      or\n      swap1\n      sstore\n      pop\n      0x20\n      dup3\n      add\n      mload\n      dup2\n      0x01\n      add\n      0x00\n      dup3\n      add\n      mload\n      dup2\n      0x00\n      add\n      swap1\n      dup2\n      tag_312\n      swap2\n      swap1\n      tag_295\n      jump\t// in\n    tag_312:\n      pop\n      0x20\n      dup3\n      add\n      mload\n      dup2\n      0x01\n      add\n      swap1\n      dup2\n      tag_313\n      swap2\n      swap1\n      tag_295\n      jump\t// in\n    tag_313:\n      pop\n      0x40\n      dup3\n      add\n      mload\n      dup2\n      0x02\n      add\n      swap1\n      dup2\n      tag_314\n      swap2\n      swap1\n      tag_295\n      jump\t// in\n    tag_314:\n      pop\n      0x60\n      dup3\n      add\n      mload\n      dup2\n      0x03\n      add\n      swap1\n      dup2\n      tag_315\n      swap2\n      swap1\n      tag_295\n      jump\t// in\n    tag_315:\n      pop\n      0x80\n      dup3\n      add\n      mload\n      dup2\n      0x04\n      add\n      exp(0x0100, 0x00)\n      dup2\n      sload\n      dup2\n      0xffffffffffffffffffffffffffffffffffffffff\n      mul\n      not\n      and\n      swap1\n      dup4\n      0xffffffffffffffffffffffffffffffffffffffff\n      and\n      mul\n      or\n      swap1\n      sstore\n      pop\n      pop\n      pop\n      0x40\n      dup3\n      add\n      mload\n      dup2\n      0x06\n      add\n      exp(0x0100, 0x00)\n      dup2\n      sload\n      dup2\n      0xff\n      mul\n      not\n      and\n      swap1\n      dup4\n      iszero\n      iszero\n      mul\n      or\n      swap1\n      sstore\n      pop\n      0x60\n      dup3\n      add\n      mload\n      dup2\n      0x06\n      add\n      exp(0x0100, 0x01)\n      dup2\n      sload\n      dup2\n      0xff\n      mul\n      not\n      and\n      swap1\n      dup4\n      iszero\n      iszero\n      mul\n      or\n      swap1\n      sstore\n      pop\n      0x80\n      dup3\n      add\n      mload\n      dup2\n      0x06\n      add\n      exp(0x0100, 0x02)\n      dup2\n      sload\n      dup2\n      0xff\n      mul\n      not\n      and\n      swap1\n      dup4\n      iszero\n      iszero\n      mul\n      or\n      swap1\n      sstore\n      pop\n      swap1\n      pop\n      pop\n        /* \"Wallery/Rolemanager.sol\":3040:3050  msg.sender */\n      caller\n        /* \"Wallery/Rolemanager.sol\":3022:3061  UserInfoRequested(msg.sender, isUpdate) */\n      0xffffffffffffffffffffffffffffffffffffffff\n      and\n      0x1f10437cb6d722f3e8a9e771fcde4fbf82d9fda13bb2666ea9e9eaa0310dadd3\n        /* \"Wallery/Rolemanager.sol\":3052:3060  isUpdate */\n      dup3\n        /* \"Wallery/Rolemanager.sol\":3022:3061  UserInfoRequested(msg.sender, isUpdate) */\n      mload(0x40)\n      tag_316\n      swap2\n      swap1\n      tag_45\n      jump\t// in\n    tag_316:\n      mload(0x40)\n      dup1\n      swap2\n      sub\n      swap1\n      log2\n        /* \"Wallery/Rolemanager.sol\":2255:3069  {... */\n      pop\n      pop\n        /* \"Wallery/Rolemanager.sol\":2068:3069  function requestUserInfo(... */\n      pop\n      pop\n      pop\n      pop\n      jump\t// out\n        /* \"Wallery/Rolemanager.sol\":416:492  bytes32 public constant GALLERY_OWNER_ROLE = keccak256(\"GALLERY_OWNER_ROLE\") */\n    tag_114:\n        /* \"Wallery/Rolemanager.sol\":461:492  keccak256(\"GALLERY_OWNER_ROLE\") */\n      0x876bbbf5907d194533faadcead8cfa42ad0f2b1653cc89d94228f5c04f389a15\n        /* \"Wallery/Rolemanager.sol\":416:492  bytes32 public constant GALLERY_OWNER_ROLE = keccak256(\"GALLERY_OWNER_ROLE\") */\n      dup2\n      jump\t// out\n        /* \"Wallery/Rolemanager.sol\":3524:3876  function rejectUserInfoRequest(address requester) public onlyRole(ADMIN_ROLE) whenNotPaused {... */\n    tag_118:\n        /* \"Wallery/Rolemanager.sol\":238:261  keccak256(\"ADMIN_ROLE\") */\n      0xa49807205ce4d355092ef5a8a18f56e8913cf4a201fbe287825b095693c21775\n        /* \"@openzeppelin/contracts/access/AccessControl.sol\":2464:2480  _checkRole(role) */\n      tag_318\n        /* \"@openzeppelin/contracts/access/AccessControl.sol\":2475:2479  role */\n      dup2\n        /* \"@openzeppelin/contracts/access/AccessControl.sol\":2464:2474  _checkRole */\n      tag_204\n        /* \"@openzeppelin/contracts/access/AccessControl.sol\":2464:2480  _checkRole(role) */\n      jump\t// in\n    tag_318:\n        /* \"@openzeppelin/contracts/security/Pausable.sol\":1239:1258  _requireNotPaused() */\n      tag_320\n        /* \"@openzeppelin/contracts/security/Pausable.sol\":1239:1256  _requireNotPaused */\n      tag_207\n        /* \"@openzeppelin/contracts/security/Pausable.sol\":1239:1258  _requireNotPaused() */\n      jump\t// in\n    tag_320:\n        /* \"Wallery/Rolemanager.sol\":3627:3658  UserInfoRequest storage request */\n      0x00\n        /* \"Wallery/Rolemanager.sol\":3661:3677  userInfoRequests */\n      0x03\n        /* \"Wallery/Rolemanager.sol\":3661:3688  userInfoRequests[requester] */\n      0x00\n        /* \"Wallery/Rolemanager.sol\":3678:3687  requester */\n      dup5\n        /* \"Wallery/Rolemanager.sol\":3661:3688  userInfoRequests[requester] */\n      0xffffffffffffffffffffffffffffffffffffffff\n      and\n      0xffffffffffffffffffffffffffffffffffffffff\n      and\n      dup2\n      mstore\n      0x20\n      add\n      swap1\n      dup2\n      mstore\n      0x20\n      add\n      0x00\n      keccak256\n        /* \"Wallery/Rolemanager.sol\":3627:3688  UserInfoRequest storage request = userInfoRequests[requester] */\n      swap1\n      pop\n        /* \"Wallery/Rolemanager.sol\":3707:3714  request */\n      dup1\n        /* \"Wallery/Rolemanager.sol\":3707:3722  request.pending */\n      0x06\n      add\n      0x01\n      swap1\n      sload\n      swap1\n      0x0100\n      exp\n      swap1\n      div\n      0xff\n      and\n        /* \"Wallery/Rolemanager.sol\":3699:3745  require(request.pending, \"No pending request\") */\n      tag_322\n      jumpi\n      mload(0x40)\n      0x08c379a000000000000000000000000000000000000000000000000000000000\n      dup2\n      mstore\n      0x04\n      add\n      tag_323\n      swap1\n      tag_233\n      jump\t// in\n    tag_323:\n      mload(0x40)\n      dup1\n      swap2\n      sub\n      swap1\n      revert\n    tag_322:\n        /* \"Wallery/Rolemanager.sol\":3776:3781  false */\n      0x00\n        /* \"Wallery/Rolemanager.sol\":3758:3765  request */\n      dup2\n        /* \"Wallery/Rolemanager.sol\":3758:3773  request.pending */\n      0x06\n      add\n      0x01\n        /* \"Wallery/Rolemanager.sol\":3758:3781  request.pending = false */\n      0x0100\n      exp\n      dup2\n      sload\n      dup2\n      0xff\n      mul\n      not\n      and\n      swap1\n      dup4\n      iszero\n      iszero\n      mul\n      or\n      swap1\n      sstore\n      pop\n        /* \"Wallery/Rolemanager.sol\":3811:3816  false */\n      0x00\n        /* \"Wallery/Rolemanager.sol\":3792:3799  request */\n      dup2\n        /* \"Wallery/Rolemanager.sol\":3792:3808  request.approved */\n      0x06\n      add\n      0x02\n        /* \"Wallery/Rolemanager.sol\":3792:3816  request.approved = false */\n      0x0100\n      exp\n      dup2\n      sload\n      dup2\n      0xff\n      mul\n      not\n      and\n      swap1\n      dup4\n      iszero\n      iszero\n      mul\n      or\n      swap1\n      sstore\n      pop\n        /* \"Wallery/Rolemanager.sol\":3858:3867  requester */\n      dup3\n        /* \"Wallery/Rolemanager.sol\":3834:3868  UserInfoRequestRejected(requester) */\n      0xffffffffffffffffffffffffffffffffffffffff\n      and\n      0xcd974fc27e84980d07e91443e7189af0cd0dc142c2ab04f1d8af6352de3b625b\n      mload(0x40)\n      mload(0x40)\n      dup1\n      swap2\n      sub\n      swap1\n      log2\n        /* \"Wallery/Rolemanager.sol\":3616:3876  {... */\n      pop\n        /* \"Wallery/Rolemanager.sol\":3524:3876  function rejectUserInfoRequest(address requester) public onlyRole(ADMIN_ROLE) whenNotPaused {... */\n      pop\n      pop\n      jump\t// out\n        /* \"Wallery/Rolemanager.sol\":7457:7571  function getPendingRequests() public view returns (RoleRequest[] memory) {... */\n    tag_120:\n        /* \"Wallery/Rolemanager.sol\":7508:7528  RoleRequest[] memory */\n      0x60\n        /* \"Wallery/Rolemanager.sol\":7548:7563  pendingRequests */\n      0x05\n        /* \"Wallery/Rolemanager.sol\":7541:7563  return pendingRequests */\n      dup1\n      sload\n      dup1\n      0x20\n      mul\n      0x20\n      add\n      mload(0x40)\n      swap1\n      dup2\n      add\n      0x40\n      mstore\n      dup1\n      swap3\n      swap2\n      swap1\n      dup2\n      dup2\n      mstore\n      0x20\n      add\n      0x00\n      swap1\n    tag_325:\n      dup3\n      dup3\n      lt\n      iszero\n      tag_326\n      jumpi\n      dup4\n      dup3\n      swap1\n      0x00\n      mstore\n      keccak256(0x00, 0x20)\n      swap1\n      0x04\n      mul\n      add\n      mload(0x40)\n      dup1\n      0xa0\n      add\n      0x40\n      mstore\n      swap1\n      dup2\n      0x00\n      dup3\n      add\n      0x00\n      swap1\n      sload\n      swap1\n      0x0100\n      exp\n      swap1\n      div\n      0xffffffffffffffffffffffffffffffffffffffff\n      and\n      0xffffffffffffffffffffffffffffffffffffffff\n      and\n      0xffffffffffffffffffffffffffffffffffffffff\n      and\n      dup2\n      mstore\n      0x20\n      add\n      0x01\n      dup3\n      add\n      sload\n      dup2\n      mstore\n      0x20\n      add\n      0x02\n      dup3\n      add\n      dup1\n      sload\n      tag_328\n      swap1\n      tag_156\n      jump\t// in\n    tag_328:\n      dup1\n      0x1f\n      add\n      0x20\n      dup1\n      swap2\n      div\n      mul\n      0x20\n      add\n      mload(0x40)\n      swap1\n      dup2\n      add\n      0x40\n      mstore\n      dup1\n      swap3\n      swap2\n      swap1\n      dup2\n      dup2\n      mstore\n      0x20\n      add\n      dup3\n      dup1\n      sload\n      tag_329\n      swap1\n      tag_156\n      jump\t// in\n    tag_329:\n      dup1\n      iszero\n      tag_330\n      jumpi\n      dup1\n      0x1f\n      lt\n      tag_331\n      jumpi\n      0x0100\n      dup1\n      dup4\n      sload\n      div\n      mul\n      dup4\n      mstore\n      swap2\n      0x20\n      add\n      swap2\n      jump(tag_330)\n    tag_331:\n      dup3\n      add\n      swap2\n      swap1\n      0x00\n      mstore\n      keccak256(0x00, 0x20)\n      swap1\n    tag_332:\n      dup2\n      sload\n      dup2\n      mstore\n      swap1\n      0x01\n      add\n      swap1\n      0x20\n      add\n      dup1\n      dup4\n      gt\n      tag_332\n      jumpi\n      dup3\n      swap1\n      sub\n      0x1f\n      and\n      dup3\n      add\n      swap2\n    tag_330:\n      pop\n      pop\n      pop\n      pop\n      pop\n      dup2\n      mstore\n      0x20\n      add\n      0x03\n      dup3\n      add\n      0x00\n      swap1\n      sload\n      swap1\n      0x0100\n      exp\n      swap1\n      div\n      0xff\n      and\n      iszero\n      iszero\n      iszero\n      iszero\n      dup2\n      mstore\n      0x20\n      add\n      0x03\n      dup3\n      add\n      0x01\n      swap1\n      sload\n      swap1\n      0x0100\n      exp\n      swap1\n      div\n      0xff\n      and\n      iszero\n      iszero\n      iszero\n      iszero\n      dup2\n      mstore\n      pop\n      pop\n      dup2\n      mstore\n      0x20\n      add\n      swap1\n      0x01\n      add\n      swap1\n      jump(tag_325)\n    tag_326:\n      pop\n      pop\n      pop\n      pop\n      swap1\n      pop\n        /* \"Wallery/Rolemanager.sol\":7457:7571  function getPendingRequests() public view returns (RoleRequest[] memory) {... */\n      swap1\n      jump\t// out\n        /* \"Wallery/Rolemanager.sol\":8737:8809  function pause() public onlyRole(ADMIN_ROLE) {... */\n    tag_124:\n        /* \"Wallery/Rolemanager.sol\":238:261  keccak256(\"ADMIN_ROLE\") */\n      0xa49807205ce4d355092ef5a8a18f56e8913cf4a201fbe287825b095693c21775\n        /* \"@openzeppelin/contracts/access/AccessControl.sol\":2464:2480  _checkRole(role) */\n      tag_334\n        /* \"@openzeppelin/contracts/access/AccessControl.sol\":2475:2479  role */\n      dup2\n        /* \"@openzeppelin/contracts/access/AccessControl.sol\":2464:2474  _checkRole */\n      tag_204\n        /* \"@openzeppelin/contracts/access/AccessControl.sol\":2464:2480  _checkRole(role) */\n      jump\t// in\n    tag_334:\n        /* \"Wallery/Rolemanager.sol\":8793:8801  _pause() */\n      tag_336\n        /* \"Wallery/Rolemanager.sol\":8793:8799  _pause */\n      tag_337\n        /* \"Wallery/Rolemanager.sol\":8793:8801  _pause() */\n      jump\t// in\n    tag_336:\n        /* \"Wallery/Rolemanager.sol\":8737:8809  function pause() public onlyRole(ADMIN_ROLE) {... */\n      pop\n      jump\t// out\n        /* \"@openzeppelin/contracts/access/AccessControl.sol\":2854:2990  function hasRole(bytes32 role, address account) public view virtual returns (bool) {... */\n    tag_127:\n        /* \"@openzeppelin/contracts/access/AccessControl.sol\":2931:2935  bool */\n      0x00\n        /* \"@openzeppelin/contracts/access/AccessControl.sol\":2954:2960  _roles */\n      dup1\n        /* \"@openzeppelin/contracts/access/AccessControl.sol\":2954:2966  _roles[role] */\n      0x00\n        /* \"@openzeppelin/contracts/access/AccessControl.sol\":2961:2965  role */\n      dup5\n        /* \"@openzeppelin/contracts/access/AccessControl.sol\":2954:2966  _roles[role] */\n      dup2\n      mstore\n      0x20\n      add\n      swap1\n      dup2\n      mstore\n      0x20\n      add\n      0x00\n      keccak256\n        /* \"@openzeppelin/contracts/access/AccessControl.sol\":2954:2974  _roles[role].hasRole */\n      0x00\n      add\n        /* \"@openzeppelin/contracts/access/AccessControl.sol\":2954:2983  _roles[role].hasRole[account] */\n      0x00\n        /* \"@openzeppelin/contracts/access/AccessControl.sol\":2975:2982  account */\n      dup4\n        /* \"@openzeppelin/contracts/access/AccessControl.sol\":2954:2983  _roles[role].hasRole[account] */\n      0xffffffffffffffffffffffffffffffffffffffff\n      and\n      0xffffffffffffffffffffffffffffffffffffffff\n      and\n      dup2\n      mstore\n      0x20\n      add\n      swap1\n      dup2\n      mstore\n      0x20\n      add\n      0x00\n      keccak256\n      0x00\n      swap1\n      sload\n      swap1\n      0x0100\n      exp\n      swap1\n      div\n      0xff\n      and\n        /* \"@openzeppelin/contracts/access/AccessControl.sol\":2947:2983  return _roles[role].hasRole[account] */\n      swap1\n      pop\n        /* \"@openzeppelin/contracts/access/AccessControl.sol\":2854:2990  function hasRole(bytes32 role, address account) public view virtual returns (bool) {... */\n      swap3\n      swap2\n      pop\n      pop\n      jump\t// out\n        /* \"Wallery/Rolemanager.sol\":1178:1249  mapping(address => mapping(bytes32 => RoleRequest)) public roleRequests */\n    tag_131:\n      mstore(0x20, 0x04)\n      dup2\n      0x00\n      mstore\n      mstore(0x20, keccak256(0x00, 0x40))\n      dup1\n      0x00\n      mstore\n      keccak256(0x00, 0x40)\n      0x00\n      swap2\n      pop\n      swap2\n      pop\n      pop\n      dup1\n      0x00\n      add\n      0x00\n      swap1\n      sload\n      swap1\n      0x0100\n      exp\n      swap1\n      div\n      0xffffffffffffffffffffffffffffffffffffffff\n      and\n      swap1\n      dup1\n      0x01\n      add\n      sload\n      swap1\n      dup1\n      0x02\n      add\n      dup1\n      sload\n      tag_339\n      swap1\n      tag_156\n      jump\t// in\n    tag_339:\n      dup1\n      0x1f\n      add\n      0x20\n      dup1\n      swap2\n      div\n      mul\n      0x20\n      add\n      mload(0x40)\n      swap1\n      dup2\n      add\n      0x40\n      mstore\n      dup1\n      swap3\n      swap2\n      swap1\n      dup2\n      dup2\n      mstore\n      0x20\n      add\n      dup3\n      dup1\n      sload\n      tag_340\n      swap1\n      tag_156\n      jump\t// in\n    tag_340:\n      dup1\n      iszero\n      tag_341\n      jumpi\n      dup1\n      0x1f\n      lt\n      tag_342\n      jumpi\n      0x0100\n      dup1\n      dup4\n      sload\n      div\n      mul\n      dup4\n      mstore\n      swap2\n      0x20\n      add\n      swap2\n      jump(tag_341)\n    tag_342:\n      dup3\n      add\n      swap2\n      swap1\n      0x00\n      mstore\n      keccak256(0x00, 0x20)\n      swap1\n    tag_343:\n      dup2\n      sload\n      dup2\n      mstore\n      swap1\n      0x01\n      add\n      swap1\n      0x20\n      add\n      dup1\n      dup4\n      gt\n      tag_343\n      jumpi\n      dup3\n      swap1\n      sub\n      0x1f\n      and\n      dup3\n      add\n      swap2\n    tag_341:\n      pop\n      pop\n      pop\n      pop\n      pop\n      swap1\n      dup1\n      0x03\n      add\n      0x00\n      swap1\n      sload\n      swap1\n      0x0100\n      exp\n      swap1\n      div\n      0xff\n      and\n      swap1\n      dup1\n      0x03\n      add\n      0x01\n      swap1\n      sload\n      swap1\n      0x0100\n      exp\n      swap1\n      div\n      0xff\n      and\n      swap1\n      pop\n      dup6\n      jump\t// out\n        /* \"Wallery/Rolemanager.sol\":268:338  bytes32 public constant WALL_OWNER_ROLE = keccak256(\"WALL_OWNER_ROLE\") */\n    tag_134:\n        /* \"Wallery/Rolemanager.sol\":310:338  keccak256(\"WALL_OWNER_ROLE\") */\n      0x329c74013ba5a00a181f8b3dc9d0ae428c8a88ad0625246c0382e31759b580db\n        /* \"Wallery/Rolemanager.sol\":268:338  bytes32 public constant WALL_OWNER_ROLE = keccak256(\"WALL_OWNER_ROLE\") */\n      dup2\n      jump\t// out\n        /* \"@openzeppelin/contracts/access/AccessControl.sol\":2187:2236  bytes32 public constant DEFAULT_ADMIN_ROLE = 0x00 */\n    tag_137:\n        /* \"@openzeppelin/contracts/access/AccessControl.sol\":2232:2236  0x00 */\n      0x00\n        /* \"@openzeppelin/contracts/access/AccessControl.sol\":2187:2236  bytes32 public constant DEFAULT_ADMIN_ROLE = 0x00 */\n      dup1\n      shl\n      dup2\n      jump\t// out\n        /* \"Wallery/Rolemanager.sol\":6125:6612  function rejectRoleRequest(address _requester, bytes32 _role) public onlyRole(ADMIN_ROLE) whenNotPaused {... */\n    tag_141:\n        /* \"Wallery/Rolemanager.sol\":238:261  keccak256(\"ADMIN_ROLE\") */\n      0xa49807205ce4d355092ef5a8a18f56e8913cf4a201fbe287825b095693c21775\n        /* \"@openzeppelin/contracts/access/AccessControl.sol\":2464:2480  _checkRole(role) */\n      tag_345\n        /* \"@openzeppelin/contracts/access/AccessControl.sol\":2475:2479  role */\n      dup2\n        /* \"@openzeppelin/contracts/access/AccessControl.sol\":2464:2474  _checkRole */\n      tag_204\n        /* \"@openzeppelin/contracts/access/AccessControl.sol\":2464:2480  _checkRole(role) */\n      jump\t// in\n    tag_345:\n        /* \"@openzeppelin/contracts/security/Pausable.sol\":1239:1258  _requireNotPaused() */\n      tag_347\n        /* \"@openzeppelin/contracts/security/Pausable.sol\":1239:1256  _requireNotPaused */\n      tag_207\n        /* \"@openzeppelin/contracts/security/Pausable.sol\":1239:1258  _requireNotPaused() */\n      jump\t// in\n    tag_347:\n        /* \"Wallery/Rolemanager.sol\":6270:6271  0 */\n      0x00\n        /* \"Wallery/Rolemanager.sol\":6248:6272  _requester != address(0) */\n      0xffffffffffffffffffffffffffffffffffffffff\n      and\n        /* \"Wallery/Rolemanager.sol\":6248:6258  _requester */\n      dup4\n        /* \"Wallery/Rolemanager.sol\":6248:6272  _requester != address(0) */\n      0xffffffffffffffffffffffffffffffffffffffff\n      and\n      sub\n        /* \"Wallery/Rolemanager.sol\":6240:6292  require(_requester != address(0), \"Invalid address\") */\n      tag_349\n      jumpi\n      mload(0x40)\n      0x08c379a000000000000000000000000000000000000000000000000000000000\n      dup2\n      mstore\n      0x04\n      add\n      tag_350\n      swap1\n      tag_211\n      jump\t// in\n    tag_350:\n      mload(0x40)\n      dup1\n      swap2\n      sub\n      swap1\n      revert\n    tag_349:\n        /* \"Wallery/Rolemanager.sol\":6303:6330  RoleRequest storage request */\n      0x00\n        /* \"Wallery/Rolemanager.sol\":6333:6345  roleRequests */\n      0x04\n        /* \"Wallery/Rolemanager.sol\":6333:6357  roleRequests[_requester] */\n      0x00\n        /* \"Wallery/Rolemanager.sol\":6346:6356  _requester */\n      dup6\n        /* \"Wallery/Rolemanager.sol\":6333:6357  roleRequests[_requester] */\n      0xffffffffffffffffffffffffffffffffffffffff\n      and\n      0xffffffffffffffffffffffffffffffffffffffff\n      and\n      dup2\n      mstore\n      0x20\n      add\n      swap1\n      dup2\n      mstore\n      0x20\n      add\n      0x00\n      keccak256\n        /* \"Wallery/Rolemanager.sol\":6333:6364  roleRequests[_requester][_role] */\n      0x00\n        /* \"Wallery/Rolemanager.sol\":6358:6363  _role */\n      dup5\n        /* \"Wallery/Rolemanager.sol\":6333:6364  roleRequests[_requester][_role] */\n      dup2\n      mstore\n      0x20\n      add\n      swap1\n      dup2\n      mstore\n      0x20\n      add\n      0x00\n      keccak256\n        /* \"Wallery/Rolemanager.sol\":6303:6364  RoleRequest storage request = roleRequests[_requester][_role] */\n      swap1\n      pop\n        /* \"Wallery/Rolemanager.sol\":6383:6390  request */\n      dup1\n        /* \"Wallery/Rolemanager.sol\":6383:6398  request.pending */\n      0x03\n      add\n      0x00\n      swap1\n      sload\n      swap1\n      0x0100\n      exp\n      swap1\n      div\n      0xff\n      and\n        /* \"Wallery/Rolemanager.sol\":6375:6421  require(request.pending, \"No pending request\") */\n      tag_351\n      jumpi\n      mload(0x40)\n      0x08c379a000000000000000000000000000000000000000000000000000000000\n      dup2\n      mstore\n      0x04\n      add\n      tag_352\n      swap1\n      tag_233\n      jump\t// in\n    tag_352:\n      mload(0x40)\n      dup1\n      swap2\n      sub\n      swap1\n      revert\n    tag_351:\n        /* \"Wallery/Rolemanager.sol\":6452:6457  false */\n      0x00\n        /* \"Wallery/Rolemanager.sol\":6434:6441  request */\n      dup2\n        /* \"Wallery/Rolemanager.sol\":6434:6449  request.pending */\n      0x03\n      add\n      0x00\n        /* \"Wallery/Rolemanager.sol\":6434:6457  request.pending = false */\n      0x0100\n      exp\n      dup2\n      sload\n      dup2\n      0xff\n      mul\n      not\n      and\n      swap1\n      dup4\n      iszero\n      iszero\n      mul\n      or\n      swap1\n      sstore\n      pop\n        /* \"Wallery/Rolemanager.sol\":6487:6492  false */\n      0x00\n        /* \"Wallery/Rolemanager.sol\":6468:6475  request */\n      dup2\n        /* \"Wallery/Rolemanager.sol\":6468:6484  request.approved */\n      0x03\n      add\n      0x01\n        /* \"Wallery/Rolemanager.sol\":6468:6492  request.approved = false */\n      0x0100\n      exp\n      dup2\n      sload\n      dup2\n      0xff\n      mul\n      not\n      and\n      swap1\n      dup4\n      iszero\n      iszero\n      mul\n      or\n      swap1\n      sstore\n      pop\n        /* \"Wallery/Rolemanager.sol\":6503:6548  _removeFromPendingRequests(_requester, _role) */\n      tag_353\n        /* \"Wallery/Rolemanager.sol\":6530:6540  _requester */\n      dup5\n        /* \"Wallery/Rolemanager.sol\":6542:6547  _role */\n      dup5\n        /* \"Wallery/Rolemanager.sol\":6503:6529  _removeFromPendingRequests */\n      tag_235\n        /* \"Wallery/Rolemanager.sol\":6503:6548  _removeFromPendingRequests(_requester, _role) */\n      jump\t// in\n    tag_353:\n        /* \"Wallery/Rolemanager.sol\":6598:6603  _role */\n      dup3\n        /* \"Wallery/Rolemanager.sol\":6586:6596  _requester */\n      dup5\n        /* \"Wallery/Rolemanager.sol\":6566:6604  RoleRequestRejected(_requester, _role) */\n      0xffffffffffffffffffffffffffffffffffffffff\n      and\n      0x4b685ab8ace04ef41f36cfa424816013417e507b3c57629fdd55778c29587527\n      mload(0x40)\n      mload(0x40)\n      dup1\n      swap2\n      sub\n      swap1\n      log3\n        /* \"Wallery/Rolemanager.sol\":6229:6612  {... */\n      pop\n        /* \"Wallery/Rolemanager.sol\":6125:6612  function rejectRoleRequest(address _requester, bytes32 _role) public onlyRole(ADMIN_ROLE) whenNotPaused {... */\n      pop\n      pop\n      pop\n      jump\t// out\n        /* \"Wallery/Rolemanager.sol\":499:563  bytes32 public constant SPONSOR_ROLE = keccak256(\"SPONSOR_ROLE\") */\n    tag_143:\n        /* \"Wallery/Rolemanager.sol\":538:563  keccak256(\"SPONSOR_ROLE\") */\n      0x1597bc5e34ff090612f53164e4e642d2ab4fc78bffe19ed1b602a0d12559561a\n        /* \"Wallery/Rolemanager.sol\":499:563  bytes32 public constant SPONSOR_ROLE = keccak256(\"SPONSOR_ROLE\") */\n      dup2\n      jump\t// out\n        /* \"@openzeppelin/contracts/access/AccessControl.sol\":4642:4780  function revokeRole(bytes32 role, address account) public virtual onlyRole(getRoleAdmin(role)) {... */\n    tag_147:\n        /* \"@openzeppelin/contracts/access/AccessControl.sol\":4717:4735  getRoleAdmin(role) */\n      tag_354\n        /* \"@openzeppelin/contracts/access/AccessControl.sol\":4730:4734  role */\n      dup3\n        /* \"@openzeppelin/contracts/access/AccessControl.sol\":4717:4729  getRoleAdmin */\n      tag_72\n        /* \"@openzeppelin/contracts/access/AccessControl.sol\":4717:4735  getRoleAdmin(role) */\n      jump\t// in\n    tag_354:\n        /* \"@openzeppelin/contracts/access/AccessControl.sol\":2464:2480  _checkRole(role) */\n      tag_356\n        /* \"@openzeppelin/contracts/access/AccessControl.sol\":2475:2479  role */\n      dup2\n        /* \"@openzeppelin/contracts/access/AccessControl.sol\":2464:2474  _checkRole */\n      tag_204\n        /* \"@openzeppelin/contracts/access/AccessControl.sol\":2464:2480  _checkRole(role) */\n      jump\t// in\n    tag_356:\n        /* \"@openzeppelin/contracts/access/AccessControl.sol\":4747:4773  _revokeRole(role, account) */\n      tag_358\n        /* \"@openzeppelin/contracts/access/AccessControl.sol\":4759:4763  role */\n      dup4\n        /* \"@openzeppelin/contracts/access/AccessControl.sol\":4765:4772  account */\n      dup4\n        /* \"@openzeppelin/contracts/access/AccessControl.sol\":4747:4758  _revokeRole */\n      tag_222\n        /* \"@openzeppelin/contracts/access/AccessControl.sol\":4747:4773  _revokeRole(role, account) */\n      jump\t// in\n    tag_358:\n      pop\n        /* \"@openzeppelin/contracts/access/AccessControl.sol\":4642:4780  function revokeRole(bytes32 role, address account) public virtual onlyRole(getRoleAdmin(role)) {... */\n      pop\n      pop\n      pop\n      jump\t// out\n        /* \"Wallery/Rolemanager.sol\":3077:3516  function approveUserInfoRequest(address requester) public onlyRole(ADMIN_ROLE) whenNotPaused {... */\n    tag_150:\n        /* \"Wallery/Rolemanager.sol\":238:261  keccak256(\"ADMIN_ROLE\") */\n      0xa49807205ce4d355092ef5a8a18f56e8913cf4a201fbe287825b095693c21775\n        /* \"@openzeppelin/contracts/access/AccessControl.sol\":2464:2480  _checkRole(role) */\n      tag_360\n        /* \"@openzeppelin/contracts/access/AccessControl.sol\":2475:2479  role */\n      dup2\n        /* \"@openzeppelin/contracts/access/AccessControl.sol\":2464:2474  _checkRole */\n      tag_204\n        /* \"@openzeppelin/contracts/access/AccessControl.sol\":2464:2480  _checkRole(role) */\n      jump\t// in\n    tag_360:\n        /* \"@openzeppelin/contracts/security/Pausable.sol\":1239:1258  _requireNotPaused() */\n      tag_362\n        /* \"@openzeppelin/contracts/security/Pausable.sol\":1239:1256  _requireNotPaused */\n      tag_207\n        /* \"@openzeppelin/contracts/security/Pausable.sol\":1239:1258  _requireNotPaused() */\n      jump\t// in\n    tag_362:\n        /* \"Wallery/Rolemanager.sol\":3181:3212  UserInfoRequest storage request */\n      0x00\n        /* \"Wallery/Rolemanager.sol\":3215:3231  userInfoRequests */\n      0x03\n        /* \"Wallery/Rolemanager.sol\":3215:3242  userInfoRequests[requester] */\n      0x00\n        /* \"Wallery/Rolemanager.sol\":3232:3241  requester */\n      dup5\n        /* \"Wallery/Rolemanager.sol\":3215:3242  userInfoRequests[requester] */\n      0xffffffffffffffffffffffffffffffffffffffff\n      and\n      0xffffffffffffffffffffffffffffffffffffffff\n      and\n      dup2\n      mstore\n      0x20\n      add\n      swap1\n      dup2\n      mstore\n      0x20\n      add\n      0x00\n      keccak256\n        /* \"Wallery/Rolemanager.sol\":3181:3242  UserInfoRequest storage request = userInfoRequests[requester] */\n      swap1\n      pop\n        /* \"Wallery/Rolemanager.sol\":3261:3268  request */\n      dup1\n        /* \"Wallery/Rolemanager.sol\":3261:3276  request.pending */\n      0x06\n      add\n      0x01\n      swap1\n      sload\n      swap1\n      0x0100\n      exp\n      swap1\n      div\n      0xff\n      and\n        /* \"Wallery/Rolemanager.sol\":3253:3299  require(request.pending, \"No pending request\") */\n      tag_364\n      jumpi\n      mload(0x40)\n      0x08c379a000000000000000000000000000000000000000000000000000000000\n      dup2\n      mstore\n      0x04\n      add\n      tag_365\n      swap1\n      tag_233\n      jump\t// in\n    tag_365:\n      mload(0x40)\n      dup1\n      swap2\n      sub\n      swap1\n      revert\n    tag_364:\n        /* \"Wallery/Rolemanager.sol\":3330:3335  false */\n      0x00\n        /* \"Wallery/Rolemanager.sol\":3312:3319  request */\n      dup2\n        /* \"Wallery/Rolemanager.sol\":3312:3327  request.pending */\n      0x06\n      add\n      0x01\n        /* \"Wallery/Rolemanager.sol\":3312:3335  request.pending = false */\n      0x0100\n      exp\n      dup2\n      sload\n      dup2\n      0xff\n      mul\n      not\n      and\n      swap1\n      dup4\n      iszero\n      iszero\n      mul\n      or\n      swap1\n      sstore\n      pop\n        /* \"Wallery/Rolemanager.sol\":3365:3369  true */\n      0x01\n        /* \"Wallery/Rolemanager.sol\":3346:3353  request */\n      dup2\n        /* \"Wallery/Rolemanager.sol\":3346:3362  request.approved */\n      0x06\n      add\n      0x02\n        /* \"Wallery/Rolemanager.sol\":3346:3369  request.approved = true */\n      0x0100\n      exp\n      dup2\n      sload\n      dup2\n      0xff\n      mul\n      not\n      and\n      swap1\n      dup4\n      iszero\n      iszero\n      mul\n      or\n      swap1\n      sstore\n      pop\n        /* \"Wallery/Rolemanager.sol\":3402:3409  request */\n      dup1\n        /* \"Wallery/Rolemanager.sol\":3402:3414  request.info */\n      0x01\n      add\n        /* \"Wallery/Rolemanager.sol\":3380:3388  userInfo */\n      0x02\n        /* \"Wallery/Rolemanager.sol\":3380:3399  userInfo[requester] */\n      0x00\n        /* \"Wallery/Rolemanager.sol\":3389:3398  requester */\n      dup6\n        /* \"Wallery/Rolemanager.sol\":3380:3399  userInfo[requester] */\n      0xffffffffffffffffffffffffffffffffffffffff\n      and\n      0xffffffffffffffffffffffffffffffffffffffff\n      and\n      dup2\n      mstore\n      0x20\n      add\n      swap1\n      dup2\n      mstore\n      0x20\n      add\n      0x00\n      keccak256\n        /* \"Wallery/Rolemanager.sol\":3380:3414  userInfo[requester] = request.info */\n      0x00\n      dup3\n      add\n      dup2\n      0x00\n      add\n      swap1\n      dup2\n      tag_366\n      swap2\n      swap1\n      tag_367\n      jump\t// in\n    tag_366:\n      pop\n      0x01\n      dup3\n      add\n      dup2\n      0x01\n      add\n      swap1\n      dup2\n      tag_368\n      swap2\n      swap1\n      tag_367\n      jump\t// in\n    tag_368:\n      pop\n      0x02\n      dup3\n      add\n      dup2\n      0x02\n      add\n      swap1\n      dup2\n      tag_369\n      swap2\n      swap1\n      tag_367\n      jump\t// in\n    tag_369:\n      pop\n      0x03\n      dup3\n      add\n      dup2\n      0x03\n      add\n      swap1\n      dup2\n      tag_370\n      swap2\n      swap1\n      tag_367\n      jump\t// in\n    tag_370:\n      pop\n      0x04\n      dup3\n      add\n      0x00\n      swap1\n      sload\n      swap1\n      0x0100\n      exp\n      swap1\n      div\n      0xffffffffffffffffffffffffffffffffffffffff\n      and\n      dup2\n      0x04\n      add\n      exp(0x0100, 0x00)\n      dup2\n      sload\n      dup2\n      0xffffffffffffffffffffffffffffffffffffffff\n      mul\n      not\n      and\n      swap1\n      dup4\n      0xffffffffffffffffffffffffffffffffffffffff\n      and\n      mul\n      or\n      swap1\n      sstore\n      pop\n      swap1\n      pop\n      pop\n        /* \"Wallery/Rolemanager.sol\":3456:3465  requester */\n      dup3\n        /* \"Wallery/Rolemanager.sol\":3432:3466  UserInfoRequestApproved(requester) */\n      0xffffffffffffffffffffffffffffffffffffffff\n      and\n      0xb6336ad1e7f2606f8f101b70bcebbb79f8f2d57a54af67e13f196fd0cb5f861e\n      mload(0x40)\n      mload(0x40)\n      dup1\n      swap2\n      sub\n      swap1\n      log2\n        /* \"Wallery/Rolemanager.sol\":3498:3507  requester */\n      dup3\n        /* \"Wallery/Rolemanager.sol\":3482:3508  UserInfoUpdated(requester) */\n      0xffffffffffffffffffffffffffffffffffffffff\n      and\n      0xa267530518909239d6d9966f12bf391177dde455b3233f6166ab8cd424f17fd5\n      mload(0x40)\n      mload(0x40)\n      dup1\n      swap2\n      sub\n      swap1\n      log2\n        /* \"Wallery/Rolemanager.sol\":3170:3516  {... */\n      pop\n        /* \"Wallery/Rolemanager.sol\":3077:3516  function approveUserInfoRequest(address requester) public onlyRole(ADMIN_ROLE) whenNotPaused {... */\n      pop\n      pop\n      jump\t// out\n        /* \"@openzeppelin/contracts/utils/introspection/ERC165.sol\":763:909  function supportsInterface(bytes4 interfaceId) public view virtual returns (bool) {... */\n    tag_154:\n        /* \"@openzeppelin/contracts/utils/introspection/ERC165.sol\":839:843  bool */\n      0x00\n        /* \"@openzeppelin/contracts/utils/introspection/ERC165.sol\":877:902  type(IERC165).interfaceId */\n      0x01ffc9a700000000000000000000000000000000000000000000000000000000\n        /* \"@openzeppelin/contracts/utils/introspection/ERC165.sol\":862:902  interfaceId == type(IERC165).interfaceId */\n      not(0xffffffffffffffffffffffffffffffffffffffffffffffffffffffff)\n      and\n        /* \"@openzeppelin/contracts/utils/introspection/ERC165.sol\":862:873  interfaceId */\n      dup3\n        /* \"@openzeppelin/contracts/utils/introspection/ERC165.sol\":862:902  interfaceId == type(IERC165).interfaceId */\n      not(0xffffffffffffffffffffffffffffffffffffffffffffffffffffffff)\n      and\n      eq\n        /* \"@openzeppelin/contracts/utils/introspection/ERC165.sol\":855:902  return interfaceId == type(IERC165).interfaceId */\n      swap1\n      pop\n        /* \"@openzeppelin/contracts/utils/introspection/ERC165.sol\":763:909  function supportsInterface(bytes4 interfaceId) public view virtual returns (bool) {... */\n      swap2\n      swap1\n      pop\n      jump\t// out\n        /* \"@openzeppelin/contracts/access/AccessControl.sol\":3199:3302  function _checkRole(bytes32 role) internal view virtual {... */\n    tag_204:\n        /* \"@openzeppelin/contracts/access/AccessControl.sol\":3265:3295  _checkRole(role, _msgSender()) */\n      tag_373\n        /* \"@openzeppelin/contracts/access/AccessControl.sol\":3276:3280  role */\n      dup2\n        /* \"@openzeppelin/contracts/access/AccessControl.sol\":3282:3294  _msgSender() */\n      tag_374\n        /* \"@openzeppelin/contracts/access/AccessControl.sol\":3282:3292  _msgSender */\n      tag_244\n        /* \"@openzeppelin/contracts/access/AccessControl.sol\":3282:3294  _msgSender() */\n      jump\t// in\n    tag_374:\n        /* \"@openzeppelin/contracts/access/AccessControl.sol\":3265:3275  _checkRole */\n      tag_375\n        /* \"@openzeppelin/contracts/access/AccessControl.sol\":3265:3295  _checkRole(role, _msgSender()) */\n      jump\t// in\n    tag_373:\n        /* \"@openzeppelin/contracts/access/AccessControl.sol\":3199:3302  function _checkRole(bytes32 role) internal view virtual {... */\n      pop\n      jump\t// out\n        /* \"@openzeppelin/contracts/security/Pausable.sol\":1767:1873  function _requireNotPaused() internal view virtual {... */\n    tag_207:\n        /* \"@openzeppelin/contracts/security/Pausable.sol\":1837:1845  paused() */\n      tag_377\n        /* \"@openzeppelin/contracts/security/Pausable.sol\":1837:1843  paused */\n      tag_96\n        /* \"@openzeppelin/contracts/security/Pausable.sol\":1837:1845  paused() */\n      jump\t// in\n    tag_377:\n        /* \"@openzeppelin/contracts/security/Pausable.sol\":1836:1845  !paused() */\n      iszero\n        /* \"@openzeppelin/contracts/security/Pausable.sol\":1828:1866  require(!paused(), \"Pausable: paused\") */\n      tag_378\n      jumpi\n      mload(0x40)\n      0x08c379a000000000000000000000000000000000000000000000000000000000\n      dup2\n      mstore\n      0x04\n      add\n      tag_379\n      swap1\n      tag_380\n      jump\t// in\n    tag_379:\n      mload(0x40)\n      dup1\n      swap2\n      sub\n      swap1\n      revert\n    tag_378:\n        /* \"@openzeppelin/contracts/security/Pausable.sol\":1767:1873  function _requireNotPaused() internal view virtual {... */\n      jump\t// out\n        /* \"@openzeppelin/contracts/access/AccessControl.sol\":6179:6495  function _grantRole(bytes32 role, address account) internal virtual returns (bool) {... */\n    tag_213:\n        /* \"@openzeppelin/contracts/access/AccessControl.sol\":6256:6260  bool */\n      0x00\n        /* \"@openzeppelin/contracts/access/AccessControl.sol\":6277:6299  hasRole(role, account) */\n      tag_382\n        /* \"@openzeppelin/contracts/access/AccessControl.sol\":6285:6289  role */\n      dup4\n        /* \"@openzeppelin/contracts/access/AccessControl.sol\":6291:6298  account */\n      dup4\n        /* \"@openzeppelin/contracts/access/AccessControl.sol\":6277:6284  hasRole */\n      tag_127\n        /* \"@openzeppelin/contracts/access/AccessControl.sol\":6277:6299  hasRole(role, account) */\n      jump\t// in\n    tag_382:\n        /* \"@openzeppelin/contracts/access/AccessControl.sol\":6272:6489  if (!hasRole(role, account)) {... */\n      tag_383\n      jumpi\n        /* \"@openzeppelin/contracts/access/AccessControl.sol\":6347:6351  true */\n      0x01\n        /* \"@openzeppelin/contracts/access/AccessControl.sol\":6315:6321  _roles */\n      0x00\n        /* \"@openzeppelin/contracts/access/AccessControl.sol\":6315:6327  _roles[role] */\n      dup1\n        /* \"@openzeppelin/contracts/access/AccessControl.sol\":6322:6326  role */\n      dup6\n        /* \"@openzeppelin/contracts/access/AccessControl.sol\":6315:6327  _roles[role] */\n      dup2\n      mstore\n      0x20\n      add\n      swap1\n      dup2\n      mstore\n      0x20\n      add\n      0x00\n      keccak256\n        /* \"@openzeppelin/contracts/access/AccessControl.sol\":6315:6335  _roles[role].hasRole */\n      0x00\n      add\n        /* \"@openzeppelin/contracts/access/AccessControl.sol\":6315:6344  _roles[role].hasRole[account] */\n      0x00\n        /* \"@openzeppelin/contracts/access/AccessControl.sol\":6336:6343  account */\n      dup5\n        /* \"@openzeppelin/contracts/access/AccessControl.sol\":6315:6344  _roles[role].hasRole[account] */\n      0xffffffffffffffffffffffffffffffffffffffff\n      and\n      0xffffffffffffffffffffffffffffffffffffffff\n      and\n      dup2\n      mstore\n      0x20\n      add\n      swap1\n      dup2\n      mstore\n      0x20\n      add\n      0x00\n      keccak256\n      0x00\n        /* \"@openzeppelin/contracts/access/AccessControl.sol\":6315:6351  _roles[role].hasRole[account] = true */\n      0x0100\n      exp\n      dup2\n      sload\n      dup2\n      0xff\n      mul\n      not\n      and\n      swap1\n      dup4\n      iszero\n      iszero\n      mul\n      or\n      swap1\n      sstore\n      pop\n        /* \"@openzeppelin/contracts/access/AccessControl.sol\":6397:6409  _msgSender() */\n      tag_384\n        /* \"@openzeppelin/contracts/access/AccessControl.sol\":6397:6407  _msgSender */\n      tag_244\n        /* \"@openzeppelin/contracts/access/AccessControl.sol\":6397:6409  _msgSender() */\n      jump\t// in\n    tag_384:\n        /* \"@openzeppelin/contracts/access/AccessControl.sol\":6370:6410  RoleGranted(role, account, _msgSender()) */\n      0xffffffffffffffffffffffffffffffffffffffff\n      and\n        /* \"@openzeppelin/contracts/access/AccessControl.sol\":6388:6395  account */\n      dup3\n        /* \"@openzeppelin/contracts/access/AccessControl.sol\":6370:6410  RoleGranted(role, account, _msgSender()) */\n      0xffffffffffffffffffffffffffffffffffffffff\n      and\n        /* \"@openzeppelin/contracts/access/AccessControl.sol\":6382:6386  role */\n      dup5\n        /* \"@openzeppelin/contracts/access/AccessControl.sol\":6370:6410  RoleGranted(role, account, _msgSender()) */\n      0x2f8788117e7eff1d82e926ec794901d17c78024a50270940304540a733656f0d\n      mload(0x40)\n      mload(0x40)\n      dup1\n      swap2\n      sub\n      swap1\n      log4\n        /* \"@openzeppelin/contracts/access/AccessControl.sol\":6431:6435  true */\n      0x01\n        /* \"@openzeppelin/contracts/access/AccessControl.sol\":6424:6435  return true */\n      swap1\n      pop\n      jump(tag_381)\n        /* \"@openzeppelin/contracts/access/AccessControl.sol\":6272:6489  if (!hasRole(role, account)) {... */\n    tag_383:\n        /* \"@openzeppelin/contracts/access/AccessControl.sol\":6473:6478  false */\n      0x00\n        /* \"@openzeppelin/contracts/access/AccessControl.sol\":6466:6478  return false */\n      swap1\n      pop\n        /* \"@openzeppelin/contracts/access/AccessControl.sol\":6179:6495  function _grantRole(bytes32 role, address account) internal virtual returns (bool) {... */\n    tag_381:\n      swap3\n      swap2\n      pop\n      pop\n      jump\t// out\n        /* \"@openzeppelin/contracts/access/AccessControl.sol\":6730:7047  function _revokeRole(bytes32 role, address account) internal virtual returns (bool) {... */\n    tag_222:\n        /* \"@openzeppelin/contracts/access/AccessControl.sol\":6808:6812  bool */\n      0x00\n        /* \"@openzeppelin/contracts/access/AccessControl.sol\":6828:6850  hasRole(role, account) */\n      tag_387\n        /* \"@openzeppelin/contracts/access/AccessControl.sol\":6836:6840  role */\n      dup4\n        /* \"@openzeppelin/contracts/access/AccessControl.sol\":6842:6849  account */\n      dup4\n        /* \"@openzeppelin/contracts/access/AccessControl.sol\":6828:6835  hasRole */\n      tag_127\n        /* \"@openzeppelin/contracts/access/AccessControl.sol\":6828:6850  hasRole(role, account) */\n      jump\t// in\n    tag_387:\n        /* \"@openzeppelin/contracts/access/AccessControl.sol\":6824:7041  if (hasRole(role, account)) {... */\n      iszero\n      tag_388\n      jumpi\n        /* \"@openzeppelin/contracts/access/AccessControl.sol\":6898:6903  false */\n      0x00\n        /* \"@openzeppelin/contracts/access/AccessControl.sol\":6866:6872  _roles */\n      dup1\n        /* \"@openzeppelin/contracts/access/AccessControl.sol\":6866:6878  _roles[role] */\n      0x00\n        /* \"@openzeppelin/contracts/access/AccessControl.sol\":6873:6877  role */\n      dup6\n        /* \"@openzeppelin/contracts/access/AccessControl.sol\":6866:6878  _roles[role] */\n      dup2\n      mstore\n      0x20\n      add\n      swap1\n      dup2\n      mstore\n      0x20\n      add\n      0x00\n      keccak256\n        /* \"@openzeppelin/contracts/access/AccessControl.sol\":6866:6886  _roles[role].hasRole */\n      0x00\n      add\n        /* \"@openzeppelin/contracts/access/AccessControl.sol\":6866:6895  _roles[role].hasRole[account] */\n      0x00\n        /* \"@openzeppelin/contracts/access/AccessControl.sol\":6887:6894  account */\n      dup5\n        /* \"@openzeppelin/contracts/access/AccessControl.sol\":6866:6895  _roles[role].hasRole[account] */\n      0xffffffffffffffffffffffffffffffffffffffff\n      and\n      0xffffffffffffffffffffffffffffffffffffffff\n      and\n      dup2\n      mstore\n      0x20\n      add\n      swap1\n      dup2\n      mstore\n      0x20\n      add\n      0x00\n      keccak256\n      0x00\n        /* \"@openzeppelin/contracts/access/AccessControl.sol\":6866:6903  _roles[role].hasRole[account] = false */\n      0x0100\n      exp\n      dup2\n      sload\n      dup2\n      0xff\n      mul\n      not\n      and\n      swap1\n      dup4\n      iszero\n      iszero\n      mul\n      or\n      swap1\n      sstore\n      pop\n        /* \"@openzeppelin/contracts/access/AccessControl.sol\":6949:6961  _msgSender() */\n      tag_389\n        /* \"@openzeppelin/contracts/access/AccessControl.sol\":6949:6959  _msgSender */\n      tag_244\n        /* \"@openzeppelin/contracts/access/AccessControl.sol\":6949:6961  _msgSender() */\n      jump\t// in\n    tag_389:\n        /* \"@openzeppelin/contracts/access/AccessControl.sol\":6922:6962  RoleRevoked(role, account, _msgSender()) */\n      0xffffffffffffffffffffffffffffffffffffffff\n      and\n        /* \"@openzeppelin/contracts/access/AccessControl.sol\":6940:6947  account */\n      dup3\n        /* \"@openzeppelin/contracts/access/AccessControl.sol\":6922:6962  RoleRevoked(role, account, _msgSender()) */\n      0xffffffffffffffffffffffffffffffffffffffff\n      and\n        /* \"@openzeppelin/contracts/access/AccessControl.sol\":6934:6938  role */\n      dup5\n        /* \"@openzeppelin/contracts/access/AccessControl.sol\":6922:6962  RoleRevoked(role, account, _msgSender()) */\n      0xf6391f5c32d9c69d2a47ea670b442974b53935d1edc7fd64eb21e047a839171b\n      mload(0x40)\n      mload(0x40)\n      dup1\n      swap2\n      sub\n      swap1\n      log4\n        /* \"@openzeppelin/contracts/access/AccessControl.sol\":6983:6987  true */\n      0x01\n        /* \"@openzeppelin/contracts/access/AccessControl.sol\":6976:6987  return true */\n      swap1\n      pop\n      jump(tag_386)\n        /* \"@openzeppelin/contracts/access/AccessControl.sol\":6824:7041  if (hasRole(role, account)) {... */\n    tag_388:\n        /* \"@openzeppelin/contracts/access/AccessControl.sol\":7025:7030  false */\n      0x00\n        /* \"@openzeppelin/contracts/access/AccessControl.sol\":7018:7030  return false */\n      swap1\n      pop\n        /* \"@openzeppelin/contracts/access/AccessControl.sol\":6730:7047  function _revokeRole(bytes32 role, address account) internal virtual returns (bool) {... */\n    tag_386:\n      swap3\n      swap2\n      pop\n      pop\n      jump\t// out\n        /* \"Wallery/Rolemanager.sol\":8201:8693  function _removeFromPendingRequests(address _requester, bytes32 _role) private {... */\n    tag_235:\n        /* \"Wallery/Rolemanager.sol\":8296:8302  uint i */\n      0x00\n        /* \"Wallery/Rolemanager.sol\":8291:8686  for (uint i = 0; i < pendingRequests.length; i++) {... */\n    tag_392:\n        /* \"Wallery/Rolemanager.sol\":8312:8327  pendingRequests */\n      0x05\n        /* \"Wallery/Rolemanager.sol\":8312:8334  pendingRequests.length */\n      dup1\n      sload\n      swap1\n      pop\n        /* \"Wallery/Rolemanager.sol\":8308:8309  i */\n      dup2\n        /* \"Wallery/Rolemanager.sol\":8308:8334  i < pendingRequests.length */\n      lt\n        /* \"Wallery/Rolemanager.sol\":8291:8686  for (uint i = 0; i < pendingRequests.length; i++) {... */\n      iszero\n      tag_393\n      jumpi\n        /* \"Wallery/Rolemanager.sol\":8392:8402  _requester */\n      dup3\n        /* \"Wallery/Rolemanager.sol\":8360:8402  pendingRequests[i].requester == _requester */\n      0xffffffffffffffffffffffffffffffffffffffff\n      and\n        /* \"Wallery/Rolemanager.sol\":8360:8375  pendingRequests */\n      0x05\n        /* \"Wallery/Rolemanager.sol\":8376:8377  i */\n      dup3\n        /* \"Wallery/Rolemanager.sol\":8360:8378  pendingRequests[i] */\n      dup2\n      sload\n      dup2\n      lt\n      tag_395\n      jumpi\n      tag_396\n      tag_397\n      jump\t// in\n    tag_396:\n    tag_395:\n      swap1\n      0x00\n      mstore\n      keccak256(0x00, 0x20)\n      swap1\n      0x04\n      mul\n      add\n        /* \"Wallery/Rolemanager.sol\":8360:8388  pendingRequests[i].requester */\n      0x00\n      add\n      0x00\n      swap1\n      sload\n      swap1\n      0x0100\n      exp\n      swap1\n      div\n      0xffffffffffffffffffffffffffffffffffffffff\n      and\n        /* \"Wallery/Rolemanager.sol\":8360:8402  pendingRequests[i].requester == _requester */\n      0xffffffffffffffffffffffffffffffffffffffff\n      and\n      eq\n        /* \"Wallery/Rolemanager.sol\":8360:8438  pendingRequests[i].requester == _requester && pendingRequests[i].role == _role */\n      dup1\n      iszero\n      tag_399\n      jumpi\n      pop\n        /* \"Wallery/Rolemanager.sol\":8433:8438  _role */\n      dup2\n        /* \"Wallery/Rolemanager.sol\":8406:8421  pendingRequests */\n      0x05\n        /* \"Wallery/Rolemanager.sol\":8422:8423  i */\n      dup3\n        /* \"Wallery/Rolemanager.sol\":8406:8424  pendingRequests[i] */\n      dup2\n      sload\n      dup2\n      lt\n      tag_400\n      jumpi\n      tag_401\n      tag_397\n      jump\t// in\n    tag_401:\n    tag_400:\n      swap1\n      0x00\n      mstore\n      keccak256(0x00, 0x20)\n      swap1\n      0x04\n      mul\n      add\n        /* \"Wallery/Rolemanager.sol\":8406:8429  pendingRequests[i].role */\n      0x01\n      add\n      sload\n        /* \"Wallery/Rolemanager.sol\":8406:8438  pendingRequests[i].role == _role */\n      eq\n        /* \"Wallery/Rolemanager.sol\":8360:8438  pendingRequests[i].requester == _requester && pendingRequests[i].role == _role */\n    tag_399:\n        /* \"Wallery/Rolemanager.sol\":8356:8675  if (pendingRequests[i].requester == _requester && pendingRequests[i].role == _role) {... */\n      iszero\n      tag_403\n      jumpi\n        /* \"Wallery/Rolemanager.sol\":8552:8567  pendingRequests */\n      0x05\n        /* \"Wallery/Rolemanager.sol\":8593:8594  1 */\n      0x01\n        /* \"Wallery/Rolemanager.sol\":8568:8583  pendingRequests */\n      0x05\n        /* \"Wallery/Rolemanager.sol\":8568:8590  pendingRequests.length */\n      dup1\n      sload\n      swap1\n      pop\n        /* \"Wallery/Rolemanager.sol\":8568:8594  pendingRequests.length - 1 */\n      tag_404\n      swap2\n      swap1\n      tag_405\n      jump\t// in\n    tag_404:\n        /* \"Wallery/Rolemanager.sol\":8552:8595  pendingRequests[pendingRequests.length - 1] */\n      dup2\n      sload\n      dup2\n      lt\n      tag_406\n      jumpi\n      tag_407\n      tag_397\n      jump\t// in\n    tag_407:\n    tag_406:\n      swap1\n      0x00\n      mstore\n      keccak256(0x00, 0x20)\n      swap1\n      0x04\n      mul\n      add\n        /* \"Wallery/Rolemanager.sol\":8531:8546  pendingRequests */\n      0x05\n        /* \"Wallery/Rolemanager.sol\":8547:8548  i */\n      dup3\n        /* \"Wallery/Rolemanager.sol\":8531:8549  pendingRequests[i] */\n      dup2\n      sload\n      dup2\n      lt\n      tag_409\n      jumpi\n      tag_410\n      tag_397\n      jump\t// in\n    tag_410:\n    tag_409:\n      swap1\n      0x00\n      mstore\n      keccak256(0x00, 0x20)\n      swap1\n      0x04\n      mul\n      add\n        /* \"Wallery/Rolemanager.sol\":8531:8595  pendingRequests[i] = pendingRequests[pendingRequests.length - 1] */\n      0x00\n      dup3\n      add\n      0x00\n      swap1\n      sload\n      swap1\n      0x0100\n      exp\n      swap1\n      div\n      0xffffffffffffffffffffffffffffffffffffffff\n      and\n      dup2\n      0x00\n      add\n      exp(0x0100, 0x00)\n      dup2\n      sload\n      dup2\n      0xffffffffffffffffffffffffffffffffffffffff\n      mul\n      not\n      and\n      swap1\n      dup4\n      0xffffffffffffffffffffffffffffffffffffffff\n      and\n      mul\n      or\n      swap1\n      sstore\n      pop\n      0x01\n      dup3\n      add\n      sload\n      dup2\n      0x01\n      add\n      sstore\n      0x02\n      dup3\n      add\n      dup2\n      0x02\n      add\n      swap1\n      dup2\n      tag_412\n      swap2\n      swap1\n      tag_367\n      jump\t// in\n    tag_412:\n      pop\n      0x03\n      dup3\n      add\n      0x00\n      swap1\n      sload\n      swap1\n      0x0100\n      exp\n      swap1\n      div\n      0xff\n      and\n      dup2\n      0x03\n      add\n      exp(0x0100, 0x00)\n      dup2\n      sload\n      dup2\n      0xff\n      mul\n      not\n      and\n      swap1\n      dup4\n      iszero\n      iszero\n      mul\n      or\n      swap1\n      sstore\n      pop\n      0x03\n      dup3\n      add\n      0x01\n      swap1\n      sload\n      swap1\n      0x0100\n      exp\n      swap1\n      div\n      0xff\n      and\n      dup2\n      0x03\n      add\n      exp(0x0100, 0x01)\n      dup2\n      sload\n      dup2\n      0xff\n      mul\n      not\n      and\n      swap1\n      dup4\n      iszero\n      iszero\n      mul\n      or\n      swap1\n      sstore\n      pop\n      swap1\n      pop\n      pop\n        /* \"Wallery/Rolemanager.sol\":8614:8629  pendingRequests */\n      0x05\n        /* \"Wallery/Rolemanager.sol\":8614:8635  pendingRequests.pop() */\n      dup1\n      sload\n      dup1\n      tag_413\n      jumpi\n      tag_414\n      tag_415\n      jump\t// in\n    tag_414:\n    tag_413:\n      0x01\n      swap1\n      sub\n      dup2\n      dup2\n      swap1\n      0x00\n      mstore\n      keccak256(0x00, 0x20)\n      swap1\n      0x04\n      mul\n      add\n      0x00\n      dup1\n      dup3\n      add\n      exp(0x0100, 0x00)\n      dup2\n      sload\n      swap1\n      0xffffffffffffffffffffffffffffffffffffffff\n      mul\n      not\n      and\n      swap1\n      sstore\n      0x01\n      dup3\n      add\n      0x00\n      swap1\n      sstore\n      0x02\n      dup3\n      add\n      0x00\n      tag_417\n      swap2\n      swap1\n      tag_418\n      jump\t// in\n    tag_417:\n      0x03\n      dup3\n      add\n      exp(0x0100, 0x00)\n      dup2\n      sload\n      swap1\n      0xff\n      mul\n      not\n      and\n      swap1\n      sstore\n      0x03\n      dup3\n      add\n      exp(0x0100, 0x01)\n      dup2\n      sload\n      swap1\n      0xff\n      mul\n      not\n      and\n      swap1\n      sstore\n      pop\n      pop\n      swap1\n      sstore\n        /* \"Wallery/Rolemanager.sol\":8654:8659  break */\n      jump(tag_393)\n        /* \"Wallery/Rolemanager.sol\":8356:8675  if (pendingRequests[i].requester == _requester && pendingRequests[i].role == _role) {... */\n    tag_403:\n        /* \"Wallery/Rolemanager.sol\":8336:8339  i++ */\n      dup1\n      dup1\n      0x01\n      add\n      swap2\n      pop\n      pop\n        /* \"Wallery/Rolemanager.sol\":8291:8686  for (uint i = 0; i < pendingRequests.length; i++) {... */\n      jump(tag_392)\n    tag_393:\n      pop\n        /* \"Wallery/Rolemanager.sol\":8201:8693  function _removeFromPendingRequests(address _requester, bytes32 _role) private {... */\n      pop\n      pop\n      jump\t// out\n        /* \"@openzeppelin/contracts/utils/Context.sol\":656:752  function _msgSender() internal view virtual returns (address) {... */\n    tag_244:\n        /* \"@openzeppelin/contracts/utils/Context.sol\":709:716  address */\n      0x00\n        /* \"@openzeppelin/contracts/utils/Context.sol\":735:745  msg.sender */\n      caller\n        /* \"@openzeppelin/contracts/utils/Context.sol\":728:745  return msg.sender */\n      swap1\n      pop\n        /* \"@openzeppelin/contracts/utils/Context.sol\":656:752  function _msgSender() internal view virtual returns (address) {... */\n      swap1\n      jump\t// out\n        /* \"@openzeppelin/contracts/security/Pausable.sol\":2433:2550  function _unpause() internal virtual whenPaused {... */\n    tag_258:\n        /* \"@openzeppelin/contracts/security/Pausable.sol\":1486:1502  _requirePaused() */\n      tag_421\n        /* \"@openzeppelin/contracts/security/Pausable.sol\":1486:1500  _requirePaused */\n      tag_422\n        /* \"@openzeppelin/contracts/security/Pausable.sol\":1486:1502  _requirePaused() */\n      jump\t// in\n    tag_421:\n        /* \"@openzeppelin/contracts/security/Pausable.sol\":2501:2506  false */\n      0x00\n        /* \"@openzeppelin/contracts/security/Pausable.sol\":2491:2498  _paused */\n      0x01\n      0x00\n        /* \"@openzeppelin/contracts/security/Pausable.sol\":2491:2506  _paused = false */\n      0x0100\n      exp\n      dup2\n      sload\n      dup2\n      0xff\n      mul\n      not\n      and\n      swap1\n      dup4\n      iszero\n      iszero\n      mul\n      or\n      swap1\n      sstore\n      pop\n        /* \"@openzeppelin/contracts/security/Pausable.sol\":2521:2543  Unpaused(_msgSender()) */\n      0x5db9ee0a495bf2e6ff9c91a7834c1ba4fdd244a5e8aa4e537bd38aeae4b073aa\n        /* \"@openzeppelin/contracts/security/Pausable.sol\":2530:2542  _msgSender() */\n      tag_424\n        /* \"@openzeppelin/contracts/security/Pausable.sol\":2530:2540  _msgSender */\n      tag_244\n        /* \"@openzeppelin/contracts/security/Pausable.sol\":2530:2542  _msgSender() */\n      jump\t// in\n    tag_424:\n        /* \"@openzeppelin/contracts/security/Pausable.sol\":2521:2543  Unpaused(_msgSender()) */\n      mload(0x40)\n      tag_425\n      swap2\n      swap1\n      tag_426\n      jump\t// in\n    tag_425:\n      mload(0x40)\n      dup1\n      swap2\n      sub\n      swap1\n      log1\n        /* \"@openzeppelin/contracts/security/Pausable.sol\":2433:2550  function _unpause() internal virtual whenPaused {... */\n      jump\t// out\n        /* \"@openzeppelin/contracts/security/Pausable.sol\":2186:2301  function _pause() internal virtual whenNotPaused {... */\n    tag_337:\n        /* \"@openzeppelin/contracts/security/Pausable.sol\":1239:1258  _requireNotPaused() */\n      tag_428\n        /* \"@openzeppelin/contracts/security/Pausable.sol\":1239:1256  _requireNotPaused */\n      tag_207\n        /* \"@openzeppelin/contracts/security/Pausable.sol\":1239:1258  _requireNotPaused() */\n      jump\t// in\n    tag_428:\n        /* \"@openzeppelin/contracts/security/Pausable.sol\":2255:2259  true */\n      0x01\n        /* \"@openzeppelin/contracts/security/Pausable.sol\":2245:2252  _paused */\n      dup1\n      0x00\n        /* \"@openzeppelin/contracts/security/Pausable.sol\":2245:2259  _paused = true */\n      0x0100\n      exp\n      dup2\n      sload\n      dup2\n      0xff\n      mul\n      not\n      and\n      swap1\n      dup4\n      iszero\n      iszero\n      mul\n      or\n      swap1\n      sstore\n      pop\n        /* \"@openzeppelin/contracts/security/Pausable.sol\":2274:2294  Paused(_msgSender()) */\n      0x62e78cea01bee320cd4e420270b5ea74000d11b0c9f74754ebdbfc544b05a258\n        /* \"@openzeppelin/contracts/security/Pausable.sol\":2281:2293  _msgSender() */\n      tag_430\n        /* \"@openzeppelin/contracts/security/Pausable.sol\":2281:2291  _msgSender */\n      tag_244\n        /* \"@openzeppelin/contracts/security/Pausable.sol\":2281:2293  _msgSender() */\n      jump\t// in\n    tag_430:\n        /* \"@openzeppelin/contracts/security/Pausable.sol\":2274:2294  Paused(_msgSender()) */\n      mload(0x40)\n      tag_431\n      swap2\n      swap1\n      tag_426\n      jump\t// in\n    tag_431:\n      mload(0x40)\n      dup1\n      swap2\n      sub\n      swap1\n      log1\n        /* \"@openzeppelin/contracts/security/Pausable.sol\":2186:2301  function _pause() internal virtual whenNotPaused {... */\n      jump\t// out\n        /* \"@openzeppelin/contracts/access/AccessControl.sol\":3432:3629  function _checkRole(bytes32 role, address account) internal view virtual {... */\n    tag_375:\n        /* \"@openzeppelin/contracts/access/AccessControl.sol\":3520:3542  hasRole(role, account) */\n      tag_433\n        /* \"@openzeppelin/contracts/access/AccessControl.sol\":3528:3532  role */\n      dup3\n        /* \"@openzeppelin/contracts/access/AccessControl.sol\":3534:3541  account */\n      dup3\n        /* \"@openzeppelin/contracts/access/AccessControl.sol\":3520:3527  hasRole */\n      tag_127\n        /* \"@openzeppelin/contracts/access/AccessControl.sol\":3520:3542  hasRole(role, account) */\n      jump\t// in\n    tag_433:\n        /* \"@openzeppelin/contracts/access/AccessControl.sol\":3515:3623  if (!hasRole(role, account)) {... */\n      tag_434\n      jumpi\n        /* \"@openzeppelin/contracts/access/AccessControl.sol\":3598:3605  account */\n      dup1\n        /* \"@openzeppelin/contracts/access/AccessControl.sol\":3607:3611  role */\n      dup3\n        /* \"@openzeppelin/contracts/access/AccessControl.sol\":3565:3612  AccessControlUnauthorizedAccount(account, role) */\n      mload(0x40)\n      0xe2517d3f00000000000000000000000000000000000000000000000000000000\n      dup2\n      mstore\n      0x04\n      add\n      tag_435\n      swap3\n      swap2\n      swap1\n      tag_436\n      jump\t// in\n    tag_435:\n      mload(0x40)\n      dup1\n      swap2\n      sub\n      swap1\n      revert\n        /* \"@openzeppelin/contracts/access/AccessControl.sol\":3515:3623  if (!hasRole(role, account)) {... */\n    tag_434:\n        /* \"@openzeppelin/contracts/access/AccessControl.sol\":3432:3629  function _checkRole(bytes32 role, address account) internal view virtual {... */\n      pop\n      pop\n      jump\t// out\n        /* \"@openzeppelin/contracts/security/Pausable.sol\":1945:2051  function _requirePaused() internal view virtual {... */\n    tag_422:\n        /* \"@openzeppelin/contracts/security/Pausable.sol\":2011:2019  paused() */\n      tag_438\n        /* \"@openzeppelin/contracts/security/Pausable.sol\":2011:2017  paused */\n      tag_96\n        /* \"@openzeppelin/contracts/security/Pausable.sol\":2011:2019  paused() */\n      jump\t// in\n    tag_438:\n        /* \"@openzeppelin/contracts/security/Pausable.sol\":2003:2044  require(paused(), \"Pausable: not paused\") */\n      tag_439\n      jumpi\n      mload(0x40)\n      0x08c379a000000000000000000000000000000000000000000000000000000000\n      dup2\n      mstore\n      0x04\n      add\n      tag_440\n      swap1\n      tag_441\n      jump\t// in\n    tag_440:\n      mload(0x40)\n      dup1\n      swap2\n      sub\n      swap1\n      revert\n    tag_439:\n        /* \"@openzeppelin/contracts/security/Pausable.sol\":1945:2051  function _requirePaused() internal view virtual {... */\n      jump\t// out\n    tag_418:\n      pop\n      dup1\n      sload\n      tag_442\n      swap1\n      tag_156\n      jump\t// in\n    tag_442:\n      0x00\n      dup3\n      sstore\n      dup1\n      0x1f\n      lt\n      tag_444\n      jumpi\n      pop\n      jump(tag_443)\n    tag_444:\n      0x1f\n      add\n      0x20\n      swap1\n      div\n      swap1\n      0x00\n      mstore\n      keccak256(0x00, 0x20)\n      swap1\n      dup2\n      add\n      swap1\n      tag_445\n      swap2\n      swap1\n      tag_446\n      jump\t// in\n    tag_445:\n    tag_443:\n      pop\n      jump\t// out\n    tag_446:\n    tag_447:\n      dup1\n      dup3\n      gt\n      iszero\n      tag_448\n      jumpi\n      0x00\n      dup2\n      0x00\n      swap1\n      sstore\n      pop\n      0x01\n      add\n      jump(tag_447)\n    tag_448:\n      pop\n      swap1\n      jump\t// out\n        /* \"#utility.yul\":7:82   */\n    tag_449:\n        /* \"#utility.yul\":40:46   */\n      0x00\n        /* \"#utility.yul\":73:75   */\n      0x40\n        /* \"#utility.yul\":67:76   */\n      mload\n        /* \"#utility.yul\":57:76   */\n      swap1\n      pop\n        /* \"#utility.yul\":7:82   */\n      swap1\n      jump\t// out\n        /* \"#utility.yul\":88:205   */\n    tag_450:\n        /* \"#utility.yul\":197:198   */\n      0x00\n        /* \"#utility.yul\":194:195   */\n      dup1\n        /* \"#utility.yul\":187:199   */\n      revert\n        /* \"#utility.yul\":211:328   */\n    tag_451:\n        /* \"#utility.yul\":320:321   */\n      0x00\n        /* \"#utility.yul\":317:318   */\n      dup1\n        /* \"#utility.yul\":310:322   */\n      revert\n        /* \"#utility.yul\":334:483   */\n    tag_452:\n        /* \"#utility.yul\":370:377   */\n      0x00\n        /* \"#utility.yul\":410:476   */\n      0xffffffff00000000000000000000000000000000000000000000000000000000\n        /* \"#utility.yul\":403:408   */\n      dup3\n        /* \"#utility.yul\":399:477   */\n      and\n        /* \"#utility.yul\":388:477   */\n      swap1\n      pop\n        /* \"#utility.yul\":334:483   */\n      swap2\n      swap1\n      pop\n      jump\t// out\n        /* \"#utility.yul\":489:609   */\n    tag_453:\n        /* \"#utility.yul\":561:584   */\n      tag_540\n        /* \"#utility.yul\":578:583   */\n      dup2\n        /* \"#utility.yul\":561:584   */\n      tag_452\n      jump\t// in\n    tag_540:\n        /* \"#utility.yul\":554:559   */\n      dup2\n        /* \"#utility.yul\":551:585   */\n      eq\n        /* \"#utility.yul\":541:603   */\n      tag_541\n      jumpi\n        /* \"#utility.yul\":599:600   */\n      0x00\n        /* \"#utility.yul\":596:597   */\n      dup1\n        /* \"#utility.yul\":589:601   */\n      revert\n        /* \"#utility.yul\":541:603   */\n    tag_541:\n        /* \"#utility.yul\":489:609   */\n      pop\n      jump\t// out\n        /* \"#utility.yul\":615:752   */\n    tag_454:\n        /* \"#utility.yul\":660:665   */\n      0x00\n        /* \"#utility.yul\":698:704   */\n      dup2\n        /* \"#utility.yul\":685:705   */\n      calldataload\n        /* \"#utility.yul\":676:705   */\n      swap1\n      pop\n        /* \"#utility.yul\":714:746   */\n      tag_543\n        /* \"#utility.yul\":740:745   */\n      dup2\n        /* \"#utility.yul\":714:746   */\n      tag_453\n      jump\t// in\n    tag_543:\n        /* \"#utility.yul\":615:752   */\n      swap3\n      swap2\n      pop\n      pop\n      jump\t// out\n        /* \"#utility.yul\":758:1085   */\n    tag_42:\n        /* \"#utility.yul\":816:822   */\n      0x00\n        /* \"#utility.yul\":865:867   */\n      0x20\n        /* \"#utility.yul\":853:862   */\n      dup3\n        /* \"#utility.yul\":844:851   */\n      dup5\n        /* \"#utility.yul\":840:863   */\n      sub\n        /* \"#utility.yul\":836:868   */\n      slt\n        /* \"#utility.yul\":833:952   */\n      iszero\n      tag_545\n      jumpi\n        /* \"#utility.yul\":871:950   */\n      tag_546\n      tag_450\n      jump\t// in\n    tag_546:\n        /* \"#utility.yul\":833:952   */\n    tag_545:\n        /* \"#utility.yul\":991:992   */\n      0x00\n        /* \"#utility.yul\":1016:1068   */\n      tag_547\n        /* \"#utility.yul\":1060:1067   */\n      dup5\n        /* \"#utility.yul\":1051:1057   */\n      dup3\n        /* \"#utility.yul\":1040:1049   */\n      dup6\n        /* \"#utility.yul\":1036:1058   */\n      add\n        /* \"#utility.yul\":1016:1068   */\n      tag_454\n      jump\t// in\n    tag_547:\n        /* \"#utility.yul\":1006:1068   */\n      swap2\n      pop\n        /* \"#utility.yul\":962:1078   */\n      pop\n        /* \"#utility.yul\":758:1085   */\n      swap3\n      swap2\n      pop\n      pop\n      jump\t// out\n        /* \"#utility.yul\":1091:1181   */\n    tag_455:\n        /* \"#utility.yul\":1125:1132   */\n      0x00\n        /* \"#utility.yul\":1168:1173   */\n      dup2\n        /* \"#utility.yul\":1161:1174   */\n      iszero\n        /* \"#utility.yul\":1154:1175   */\n      iszero\n        /* \"#utility.yul\":1143:1175   */\n      swap1\n      pop\n        /* \"#utility.yul\":1091:1181   */\n      swap2\n      swap1\n      pop\n      jump\t// out\n        /* \"#utility.yul\":1187:1296   */\n    tag_456:\n        /* \"#utility.yul\":1268:1289   */\n      tag_550\n        /* \"#utility.yul\":1283:1288   */\n      dup2\n        /* \"#utility.yul\":1268:1289   */\n      tag_455\n      jump\t// in\n    tag_550:\n        /* \"#utility.yul\":1263:1266   */\n      dup3\n        /* \"#utility.yul\":1256:1290   */\n      mstore\n        /* \"#utility.yul\":1187:1296   */\n      pop\n      pop\n      jump\t// out\n        /* \"#utility.yul\":1302:1512   */\n    tag_45:\n        /* \"#utility.yul\":1389:1393   */\n      0x00\n        /* \"#utility.yul\":1427:1429   */\n      0x20\n        /* \"#utility.yul\":1416:1425   */\n      dup3\n        /* \"#utility.yul\":1412:1430   */\n      add\n        /* \"#utility.yul\":1404:1430   */\n      swap1\n      pop\n        /* \"#utility.yul\":1440:1505   */\n      tag_552\n        /* \"#utility.yul\":1502:1503   */\n      0x00\n        /* \"#utility.yul\":1491:1500   */\n      dup4\n        /* \"#utility.yul\":1487:1504   */\n      add\n        /* \"#utility.yul\":1478:1484   */\n      dup5\n        /* \"#utility.yul\":1440:1505   */\n      tag_456\n      jump\t// in\n    tag_552:\n        /* \"#utility.yul\":1302:1512   */\n      swap3\n      swap2\n      pop\n      pop\n      jump\t// out\n        /* \"#utility.yul\":1518:1644   */\n    tag_457:\n        /* \"#utility.yul\":1555:1562   */\n      0x00\n        /* \"#utility.yul\":1595:1637   */\n      0xffffffffffffffffffffffffffffffffffffffff\n        /* \"#utility.yul\":1588:1593   */\n      dup3\n        /* \"#utility.yul\":1584:1638   */\n      and\n        /* \"#utility.yul\":1573:1638   */\n      swap1\n      pop\n        /* \"#utility.yul\":1518:1644   */\n      swap2\n      swap1\n      pop\n      jump\t// out\n        /* \"#utility.yul\":1650:1746   */\n    tag_458:\n        /* \"#utility.yul\":1687:1694   */\n      0x00\n        /* \"#utility.yul\":1716:1740   */\n      tag_555\n        /* \"#utility.yul\":1734:1739   */\n      dup3\n        /* \"#utility.yul\":1716:1740   */\n      tag_457\n      jump\t// in\n    tag_555:\n        /* \"#utility.yul\":1705:1740   */\n      swap1\n      pop\n        /* \"#utility.yul\":1650:1746   */\n      swap2\n      swap1\n      pop\n      jump\t// out\n        /* \"#utility.yul\":1752:1874   */\n    tag_459:\n        /* \"#utility.yul\":1825:1849   */\n      tag_557\n        /* \"#utility.yul\":1843:1848   */\n      dup2\n        /* \"#utility.yul\":1825:1849   */\n      tag_458\n      jump\t// in\n    tag_557:\n        /* \"#utility.yul\":1818:1823   */\n      dup2\n        /* \"#utility.yul\":1815:1850   */\n      eq\n        /* \"#utility.yul\":1805:1868   */\n      tag_558\n      jumpi\n        /* \"#utility.yul\":1864:1865   */\n      0x00\n        /* \"#utility.yul\":1861:1862   */\n      dup1\n        /* \"#utility.yul\":1854:1866   */\n      revert\n        /* \"#utility.yul\":1805:1868   */\n    tag_558:\n        /* \"#utility.yul\":1752:1874   */\n      pop\n      jump\t// out\n        /* \"#utility.yul\":1880:2019   */\n    tag_460:\n        /* \"#utility.yul\":1926:1931   */\n      0x00\n        /* \"#utility.yul\":1964:1970   */\n      dup2\n        /* \"#utility.yul\":1951:1971   */\n      calldataload\n        /* \"#utility.yul\":1942:1971   */\n      swap1\n      pop\n        /* \"#utility.yul\":1980:2013   */\n      tag_560\n        /* \"#utility.yul\":2007:2012   */\n      dup2\n        /* \"#utility.yul\":1980:2013   */\n      tag_459\n      jump\t// in\n    tag_560:\n        /* \"#utility.yul\":1880:2019   */\n      swap3\n      swap2\n      pop\n      pop\n      jump\t// out\n        /* \"#utility.yul\":2025:2354   */\n    tag_48:\n        /* \"#utility.yul\":2084:2090   */\n      0x00\n        /* \"#utility.yul\":2133:2135   */\n      0x20\n        /* \"#utility.yul\":2121:2130   */\n      dup3\n        /* \"#utility.yul\":2112:2119   */\n      dup5\n        /* \"#utility.yul\":2108:2131   */\n      sub\n        /* \"#utility.yul\":2104:2136   */\n      slt\n        /* \"#utility.yul\":2101:2220   */\n      iszero\n      tag_562\n      jumpi\n        /* \"#utility.yul\":2139:2218   */\n      tag_563\n      tag_450\n      jump\t// in\n    tag_563:\n        /* \"#utility.yul\":2101:2220   */\n    tag_562:\n        /* \"#utility.yul\":2259:2260   */\n      0x00\n        /* \"#utility.yul\":2284:2337   */\n      tag_564\n        /* \"#utility.yul\":2329:2336   */\n      dup5\n        /* \"#utility.yul\":2320:2326   */\n      dup3\n        /* \"#utility.yul\":2309:2318   */\n      dup6\n        /* \"#utility.yul\":2305:2327   */\n      add\n        /* \"#utility.yul\":2284:2337   */\n      tag_460\n      jump\t// in\n    tag_564:\n        /* \"#utility.yul\":2274:2337   */\n      swap2\n      pop\n        /* \"#utility.yul\":2230:2347   */\n      pop\n        /* \"#utility.yul\":2025:2354   */\n      swap3\n      swap2\n      pop\n      pop\n      jump\t// out\n        /* \"#utility.yul\":2360:2478   */\n    tag_461:\n        /* \"#utility.yul\":2447:2471   */\n      tag_566\n        /* \"#utility.yul\":2465:2470   */\n      dup2\n        /* \"#utility.yul\":2447:2471   */\n      tag_458\n      jump\t// in\n    tag_566:\n        /* \"#utility.yul\":2442:2445   */\n      dup3\n        /* \"#utility.yul\":2435:2472   */\n      mstore\n        /* \"#utility.yul\":2360:2478   */\n      pop\n      pop\n      jump\t// out\n        /* \"#utility.yul\":2484:2583   */\n    tag_462:\n        /* \"#utility.yul\":2536:2542   */\n      0x00\n        /* \"#utility.yul\":2570:2575   */\n      dup2\n        /* \"#utility.yul\":2564:2576   */\n      mload\n        /* \"#utility.yul\":2554:2576   */\n      swap1\n      pop\n        /* \"#utility.yul\":2484:2583   */\n      swap2\n      swap1\n      pop\n      jump\t// out\n        /* \"#utility.yul\":2589:2748   */\n    tag_463:\n        /* \"#utility.yul\":2663:2674   */\n      0x00\n        /* \"#utility.yul\":2697:2703   */\n      dup3\n        /* \"#utility.yul\":2692:2695   */\n      dup3\n        /* \"#utility.yul\":2685:2704   */\n      mstore\n        /* \"#utility.yul\":2737:2741   */\n      0x20\n        /* \"#utility.yul\":2732:2735   */\n      dup3\n        /* \"#utility.yul\":2728:2742   */\n      add\n        /* \"#utility.yul\":2713:2742   */\n      swap1\n      pop\n        /* \"#utility.yul\":2589:2748   */\n      swap3\n      swap2\n      pop\n      pop\n      jump\t// out\n        /* \"#utility.yul\":2754:2893   */\n    tag_464:\n        /* \"#utility.yul\":2843:2849   */\n      dup3\n        /* \"#utility.yul\":2838:2841   */\n      dup2\n        /* \"#utility.yul\":2833:2836   */\n      dup4\n        /* \"#utility.yul\":2827:2850   */\n      mcopy\n        /* \"#utility.yul\":2884:2885   */\n      0x00\n        /* \"#utility.yul\":2875:2881   */\n      dup4\n        /* \"#utility.yul\":2870:2873   */\n      dup4\n        /* \"#utility.yul\":2866:2882   */\n      add\n        /* \"#utility.yul\":2859:2886   */\n      mstore\n        /* \"#utility.yul\":2754:2893   */\n      pop\n      pop\n      pop\n      jump\t// out\n        /* \"#utility.yul\":2899:3001   */\n    tag_465:\n        /* \"#utility.yul\":2940:2946   */\n      0x00\n        /* \"#utility.yul\":2991:2993   */\n      0x1f\n        /* \"#utility.yul\":2987:2994   */\n      not\n        /* \"#utility.yul\":2982:2984   */\n      0x1f\n        /* \"#utility.yul\":2975:2980   */\n      dup4\n        /* \"#utility.yul\":2971:2985   */\n      add\n        /* \"#utility.yul\":2967:2995   */\n      and\n        /* \"#utility.yul\":2957:2995   */\n      swap1\n      pop\n        /* \"#utility.yul\":2899:3001   */\n      swap2\n      swap1\n      pop\n      jump\t// out\n        /* \"#utility.yul\":3007:3364   */\n    tag_466:\n        /* \"#utility.yul\":3085:3088   */\n      0x00\n        /* \"#utility.yul\":3113:3152   */\n      tag_572\n        /* \"#utility.yul\":3146:3151   */\n      dup3\n        /* \"#utility.yul\":3113:3152   */\n      tag_462\n      jump\t// in\n    tag_572:\n        /* \"#utility.yul\":3168:3229   */\n      tag_573\n        /* \"#utility.yul\":3222:3228   */\n      dup2\n        /* \"#utility.yul\":3217:3220   */\n      dup6\n        /* \"#utility.yul\":3168:3229   */\n      tag_463\n      jump\t// in\n    tag_573:\n        /* \"#utility.yul\":3161:3229   */\n      swap4\n      pop\n        /* \"#utility.yul\":3238:3303   */\n      tag_574\n        /* \"#utility.yul\":3296:3302   */\n      dup2\n        /* \"#utility.yul\":3291:3294   */\n      dup6\n        /* \"#utility.yul\":3284:3288   */\n      0x20\n        /* \"#utility.yul\":3277:3282   */\n      dup7\n        /* \"#utility.yul\":3273:3289   */\n      add\n        /* \"#utility.yul\":3238:3303   */\n      tag_464\n      jump\t// in\n    tag_574:\n        /* \"#utility.yul\":3328:3357   */\n      tag_575\n        /* \"#utility.yul\":3350:3356   */\n      dup2\n        /* \"#utility.yul\":3328:3357   */\n      tag_465\n      jump\t// in\n    tag_575:\n        /* \"#utility.yul\":3323:3326   */\n      dup5\n        /* \"#utility.yul\":3319:3358   */\n      add\n        /* \"#utility.yul\":3312:3358   */\n      swap2\n      pop\n        /* \"#utility.yul\":3089:3364   */\n      pop\n        /* \"#utility.yul\":3007:3364   */\n      swap3\n      swap2\n      pop\n      pop\n      jump\t// out\n        /* \"#utility.yul\":3370:3478   */\n    tag_467:\n        /* \"#utility.yul\":3447:3471   */\n      tag_577\n        /* \"#utility.yul\":3465:3470   */\n      dup2\n        /* \"#utility.yul\":3447:3471   */\n      tag_458\n      jump\t// in\n    tag_577:\n        /* \"#utility.yul\":3442:3445   */\n      dup3\n        /* \"#utility.yul\":3435:3472   */\n      mstore\n        /* \"#utility.yul\":3370:3478   */\n      pop\n      pop\n      jump\t// out\n        /* \"#utility.yul\":3550:4918   */\n    tag_468:\n        /* \"#utility.yul\":3669:3672   */\n      0x00\n        /* \"#utility.yul\":3705:3709   */\n      0xa0\n        /* \"#utility.yul\":3700:3703   */\n      dup4\n        /* \"#utility.yul\":3696:3710   */\n      add\n        /* \"#utility.yul\":3797:3801   */\n      0x00\n        /* \"#utility.yul\":3790:3795   */\n      dup4\n        /* \"#utility.yul\":3786:3802   */\n      add\n        /* \"#utility.yul\":3780:3803   */\n      mload\n        /* \"#utility.yul\":3850:3853   */\n      dup5\n        /* \"#utility.yul\":3844:3848   */\n      dup3\n        /* \"#utility.yul\":3840:3854   */\n      sub\n        /* \"#utility.yul\":3833:3837   */\n      0x00\n        /* \"#utility.yul\":3828:3831   */\n      dup7\n        /* \"#utility.yul\":3824:3838   */\n      add\n        /* \"#utility.yul\":3817:3855   */\n      mstore\n        /* \"#utility.yul\":3876:3949   */\n      tag_579\n        /* \"#utility.yul\":3944:3948   */\n      dup3\n        /* \"#utility.yul\":3930:3942   */\n      dup3\n        /* \"#utility.yul\":3876:3949   */\n      tag_466\n      jump\t// in\n    tag_579:\n        /* \"#utility.yul\":3868:3949   */\n      swap2\n      pop\n        /* \"#utility.yul\":3720:3960   */\n      pop\n        /* \"#utility.yul\":4046:4050   */\n      0x20\n        /* \"#utility.yul\":4039:4044   */\n      dup4\n        /* \"#utility.yul\":4035:4051   */\n      add\n        /* \"#utility.yul\":4029:4052   */\n      mload\n        /* \"#utility.yul\":4099:4102   */\n      dup5\n        /* \"#utility.yul\":4093:4097   */\n      dup3\n        /* \"#utility.yul\":4089:4103   */\n      sub\n        /* \"#utility.yul\":4082:4086   */\n      0x20\n        /* \"#utility.yul\":4077:4080   */\n      dup7\n        /* \"#utility.yul\":4073:4087   */\n      add\n        /* \"#utility.yul\":4066:4104   */\n      mstore\n        /* \"#utility.yul\":4125:4198   */\n      tag_580\n        /* \"#utility.yul\":4193:4197   */\n      dup3\n        /* \"#utility.yul\":4179:4191   */\n      dup3\n        /* \"#utility.yul\":4125:4198   */\n      tag_466\n      jump\t// in\n    tag_580:\n        /* \"#utility.yul\":4117:4198   */\n      swap2\n      pop\n        /* \"#utility.yul\":3970:4209   */\n      pop\n        /* \"#utility.yul\":4292:4296   */\n      0x40\n        /* \"#utility.yul\":4285:4290   */\n      dup4\n        /* \"#utility.yul\":4281:4297   */\n      add\n        /* \"#utility.yul\":4275:4298   */\n      mload\n        /* \"#utility.yul\":4345:4348   */\n      dup5\n        /* \"#utility.yul\":4339:4343   */\n      dup3\n        /* \"#utility.yul\":4335:4349   */\n      sub\n        /* \"#utility.yul\":4328:4332   */\n      0x40\n        /* \"#utility.yul\":4323:4326   */\n      dup7\n        /* \"#utility.yul\":4319:4333   */\n      add\n        /* \"#utility.yul\":4312:4350   */\n      mstore\n        /* \"#utility.yul\":4371:4444   */\n      tag_581\n        /* \"#utility.yul\":4439:4443   */\n      dup3\n        /* \"#utility.yul\":4425:4437   */\n      dup3\n        /* \"#utility.yul\":4371:4444   */\n      tag_466\n      jump\t// in\n    tag_581:\n        /* \"#utility.yul\":4363:4444   */\n      swap2\n      pop\n        /* \"#utility.yul\":4219:4455   */\n      pop\n        /* \"#utility.yul\":4545:4549   */\n      0x60\n        /* \"#utility.yul\":4538:4543   */\n      dup4\n        /* \"#utility.yul\":4534:4550   */\n      add\n        /* \"#utility.yul\":4528:4551   */\n      mload\n        /* \"#utility.yul\":4598:4601   */\n      dup5\n        /* \"#utility.yul\":4592:4596   */\n      dup3\n        /* \"#utility.yul\":4588:4602   */\n      sub\n        /* \"#utility.yul\":4581:4585   */\n      0x60\n        /* \"#utility.yul\":4576:4579   */\n      dup7\n        /* \"#utility.yul\":4572:4586   */\n      add\n        /* \"#utility.yul\":4565:4603   */\n      mstore\n        /* \"#utility.yul\":4624:4697   */\n      tag_582\n        /* \"#utility.yul\":4692:4696   */\n      dup3\n        /* \"#utility.yul\":4678:4690   */\n      dup3\n        /* \"#utility.yul\":4624:4697   */\n      tag_466\n      jump\t// in\n    tag_582:\n        /* \"#utility.yul\":4616:4697   */\n      swap2\n      pop\n        /* \"#utility.yul\":4465:4708   */\n      pop\n        /* \"#utility.yul\":4799:4803   */\n      0x80\n        /* \"#utility.yul\":4792:4797   */\n      dup4\n        /* \"#utility.yul\":4788:4804   */\n      add\n        /* \"#utility.yul\":4782:4805   */\n      mload\n        /* \"#utility.yul\":4818:4881   */\n      tag_583\n        /* \"#utility.yul\":4875:4879   */\n      0x80\n        /* \"#utility.yul\":4870:4873   */\n      dup7\n        /* \"#utility.yul\":4866:4880   */\n      add\n        /* \"#utility.yul\":4852:4864   */\n      dup3\n        /* \"#utility.yul\":4818:4881   */\n      tag_467\n      jump\t// in\n    tag_583:\n        /* \"#utility.yul\":4718:4891   */\n      pop\n        /* \"#utility.yul\":4908:4912   */\n      dup1\n        /* \"#utility.yul\":4901:4912   */\n      swap2\n      pop\n        /* \"#utility.yul\":3674:4918   */\n      pop\n        /* \"#utility.yul\":3550:4918   */\n      swap3\n      swap2\n      pop\n      pop\n      jump\t// out\n        /* \"#utility.yul\":4924:5703   */\n    tag_51:\n        /* \"#utility.yul\":5161:5165   */\n      0x00\n        /* \"#utility.yul\":5199:5202   */\n      0xa0\n        /* \"#utility.yul\":5188:5197   */\n      dup3\n        /* \"#utility.yul\":5184:5203   */\n      add\n        /* \"#utility.yul\":5176:5203   */\n      swap1\n      pop\n        /* \"#utility.yul\":5213:5284   */\n      tag_585\n        /* \"#utility.yul\":5281:5282   */\n      0x00\n        /* \"#utility.yul\":5270:5279   */\n      dup4\n        /* \"#utility.yul\":5266:5283   */\n      add\n        /* \"#utility.yul\":5257:5263   */\n      dup9\n        /* \"#utility.yul\":5213:5284   */\n      tag_461\n      jump\t// in\n    tag_585:\n        /* \"#utility.yul\":5331:5340   */\n      dup2\n        /* \"#utility.yul\":5325:5329   */\n      dup2\n        /* \"#utility.yul\":5321:5341   */\n      sub\n        /* \"#utility.yul\":5316:5318   */\n      0x20\n        /* \"#utility.yul\":5305:5314   */\n      dup4\n        /* \"#utility.yul\":5301:5319   */\n      add\n        /* \"#utility.yul\":5294:5342   */\n      mstore\n        /* \"#utility.yul\":5359:5467   */\n      tag_586\n        /* \"#utility.yul\":5462:5466   */\n      dup2\n        /* \"#utility.yul\":5453:5459   */\n      dup8\n        /* \"#utility.yul\":5359:5467   */\n      tag_468\n      jump\t// in\n    tag_586:\n        /* \"#utility.yul\":5351:5467   */\n      swap1\n      pop\n        /* \"#utility.yul\":5477:5543   */\n      tag_587\n        /* \"#utility.yul\":5539:5541   */\n      0x40\n        /* \"#utility.yul\":5528:5537   */\n      dup4\n        /* \"#utility.yul\":5524:5542   */\n      add\n        /* \"#utility.yul\":5515:5521   */\n      dup7\n        /* \"#utility.yul\":5477:5543   */\n      tag_456\n      jump\t// in\n    tag_587:\n        /* \"#utility.yul\":5553:5619   */\n      tag_588\n        /* \"#utility.yul\":5615:5617   */\n      0x60\n        /* \"#utility.yul\":5604:5613   */\n      dup4\n        /* \"#utility.yul\":5600:5618   */\n      add\n        /* \"#utility.yul\":5591:5597   */\n      dup6\n        /* \"#utility.yul\":5553:5619   */\n      tag_456\n      jump\t// in\n    tag_588:\n        /* \"#utility.yul\":5629:5696   */\n      tag_589\n        /* \"#utility.yul\":5691:5694   */\n      0x80\n        /* \"#utility.yul\":5680:5689   */\n      dup4\n        /* \"#utility.yul\":5676:5695   */\n      add\n        /* \"#utility.yul\":5667:5673   */\n      dup5\n        /* \"#utility.yul\":5629:5696   */\n      tag_456\n      jump\t// in\n    tag_589:\n        /* \"#utility.yul\":4924:5703   */\n      swap7\n      swap6\n      pop\n      pop\n      pop\n      pop\n      pop\n      pop\n      jump\t// out\n        /* \"#utility.yul\":5709:5786   */\n    tag_469:\n        /* \"#utility.yul\":5746:5753   */\n      0x00\n        /* \"#utility.yul\":5775:5780   */\n      dup2\n        /* \"#utility.yul\":5764:5780   */\n      swap1\n      pop\n        /* \"#utility.yul\":5709:5786   */\n      swap2\n      swap1\n      pop\n      jump\t// out\n        /* \"#utility.yul\":5792:5914   */\n    tag_470:\n        /* \"#utility.yul\":5865:5889   */\n      tag_592\n        /* \"#utility.yul\":5883:5888   */\n      dup2\n        /* \"#utility.yul\":5865:5889   */\n      tag_469\n      jump\t// in\n    tag_592:\n        /* \"#utility.yul\":5858:5863   */\n      dup2\n        /* \"#utility.yul\":5855:5890   */\n      eq\n        /* \"#utility.yul\":5845:5908   */\n      tag_593\n      jumpi\n        /* \"#utility.yul\":5904:5905   */\n      0x00\n        /* \"#utility.yul\":5901:5902   */\n      dup1\n        /* \"#utility.yul\":5894:5906   */\n      revert\n        /* \"#utility.yul\":5845:5908   */\n    tag_593:\n        /* \"#utility.yul\":5792:5914   */\n      pop\n      jump\t// out\n        /* \"#utility.yul\":5920:6059   */\n    tag_471:\n        /* \"#utility.yul\":5966:5971   */\n      0x00\n        /* \"#utility.yul\":6004:6010   */\n      dup2\n        /* \"#utility.yul\":5991:6011   */\n      calldataload\n        /* \"#utility.yul\":5982:6011   */\n      swap1\n      pop\n        /* \"#utility.yul\":6020:6053   */\n      tag_595\n        /* \"#utility.yul\":6047:6052   */\n      dup2\n        /* \"#utility.yul\":6020:6053   */\n      tag_470\n      jump\t// in\n    tag_595:\n        /* \"#utility.yul\":5920:6059   */\n      swap3\n      swap2\n      pop\n      pop\n      jump\t// out\n        /* \"#utility.yul\":6065:6539   */\n    tag_54:\n        /* \"#utility.yul\":6133:6139   */\n      0x00\n        /* \"#utility.yul\":6141:6147   */\n      dup1\n        /* \"#utility.yul\":6190:6192   */\n      0x40\n        /* \"#utility.yul\":6178:6187   */\n      dup4\n        /* \"#utility.yul\":6169:6176   */\n      dup6\n        /* \"#utility.yul\":6165:6188   */\n      sub\n        /* \"#utility.yul\":6161:6193   */\n      slt\n        /* \"#utility.yul\":6158:6277   */\n      iszero\n      tag_597\n      jumpi\n        /* \"#utility.yul\":6196:6275   */\n      tag_598\n      tag_450\n      jump\t// in\n    tag_598:\n        /* \"#utility.yul\":6158:6277   */\n    tag_597:\n        /* \"#utility.yul\":6316:6317   */\n      0x00\n        /* \"#utility.yul\":6341:6394   */\n      tag_599\n        /* \"#utility.yul\":6386:6393   */\n      dup6\n        /* \"#utility.yul\":6377:6383   */\n      dup3\n        /* \"#utility.yul\":6366:6375   */\n      dup7\n        /* \"#utility.yul\":6362:6384   */\n      add\n        /* \"#utility.yul\":6341:6394   */\n      tag_460\n      jump\t// in\n    tag_599:\n        /* \"#utility.yul\":6331:6394   */\n      swap3\n      pop\n        /* \"#utility.yul\":6287:6404   */\n      pop\n        /* \"#utility.yul\":6443:6445   */\n      0x20\n        /* \"#utility.yul\":6469:6522   */\n      tag_600\n        /* \"#utility.yul\":6514:6521   */\n      dup6\n        /* \"#utility.yul\":6505:6511   */\n      dup3\n        /* \"#utility.yul\":6494:6503   */\n      dup7\n        /* \"#utility.yul\":6490:6512   */\n      add\n        /* \"#utility.yul\":6469:6522   */\n      tag_471\n      jump\t// in\n    tag_600:\n        /* \"#utility.yul\":6459:6522   */\n      swap2\n      pop\n        /* \"#utility.yul\":6414:6532   */\n      pop\n        /* \"#utility.yul\":6065:6539   */\n      swap3\n      pop\n      swap3\n      swap1\n      pop\n      jump\t// out\n        /* \"#utility.yul\":6545:6663   */\n    tag_472:\n        /* \"#utility.yul\":6632:6656   */\n      tag_602\n        /* \"#utility.yul\":6650:6655   */\n      dup2\n        /* \"#utility.yul\":6632:6656   */\n      tag_469\n      jump\t// in\n    tag_602:\n        /* \"#utility.yul\":6627:6630   */\n      dup3\n        /* \"#utility.yul\":6620:6657   */\n      mstore\n        /* \"#utility.yul\":6545:6663   */\n      pop\n      pop\n      jump\t// out\n        /* \"#utility.yul\":6669:6838   */\n    tag_473:\n        /* \"#utility.yul\":6753:6764   */\n      0x00\n        /* \"#utility.yul\":6787:6793   */\n      dup3\n        /* \"#utility.yul\":6782:6785   */\n      dup3\n        /* \"#utility.yul\":6775:6794   */\n      mstore\n        /* \"#utility.yul\":6827:6831   */\n      0x20\n        /* \"#utility.yul\":6822:6825   */\n      dup3\n        /* \"#utility.yul\":6818:6832   */\n      add\n        /* \"#utility.yul\":6803:6832   */\n      swap1\n      pop\n        /* \"#utility.yul\":6669:6838   */\n      swap3\n      swap2\n      pop\n      pop\n      jump\t// out\n        /* \"#utility.yul\":6844:7221   */\n    tag_474:\n        /* \"#utility.yul\":6932:6935   */\n      0x00\n        /* \"#utility.yul\":6960:6999   */\n      tag_605\n        /* \"#utility.yul\":6993:6998   */\n      dup3\n        /* \"#utility.yul\":6960:6999   */\n      tag_462\n      jump\t// in\n    tag_605:\n        /* \"#utility.yul\":7015:7086   */\n      tag_606\n        /* \"#utility.yul\":7079:7085   */\n      dup2\n        /* \"#utility.yul\":7074:7077   */\n      dup6\n        /* \"#utility.yul\":7015:7086   */\n      tag_473\n      jump\t// in\n    tag_606:\n        /* \"#utility.yul\":7008:7086   */\n      swap4\n      pop\n        /* \"#utility.yul\":7095:7160   */\n      tag_607\n        /* \"#utility.yul\":7153:7159   */\n      dup2\n        /* \"#utility.yul\":7148:7151   */\n      dup6\n        /* \"#utility.yul\":7141:7145   */\n      0x20\n        /* \"#utility.yul\":7134:7139   */\n      dup7\n        /* \"#utility.yul\":7130:7146   */\n      add\n        /* \"#utility.yul\":7095:7160   */\n      tag_464\n      jump\t// in\n    tag_607:\n        /* \"#utility.yul\":7185:7214   */\n      tag_608\n        /* \"#utility.yul\":7207:7213   */\n      dup2\n        /* \"#utility.yul\":7185:7214   */\n      tag_465\n      jump\t// in\n    tag_608:\n        /* \"#utility.yul\":7180:7183   */\n      dup5\n        /* \"#utility.yul\":7176:7215   */\n      add\n        /* \"#utility.yul\":7169:7215   */\n      swap2\n      pop\n        /* \"#utility.yul\":6936:7221   */\n      pop\n        /* \"#utility.yul\":6844:7221   */\n      swap3\n      swap2\n      pop\n      pop\n      jump\t// out\n        /* \"#utility.yul\":7227:7958   */\n    tag_57:\n        /* \"#utility.yul\":7440:7444   */\n      0x00\n        /* \"#utility.yul\":7478:7481   */\n      0xa0\n        /* \"#utility.yul\":7467:7476   */\n      dup3\n        /* \"#utility.yul\":7463:7482   */\n      add\n        /* \"#utility.yul\":7455:7482   */\n      swap1\n      pop\n        /* \"#utility.yul\":7492:7563   */\n      tag_610\n        /* \"#utility.yul\":7560:7561   */\n      0x00\n        /* \"#utility.yul\":7549:7558   */\n      dup4\n        /* \"#utility.yul\":7545:7562   */\n      add\n        /* \"#utility.yul\":7536:7542   */\n      dup9\n        /* \"#utility.yul\":7492:7563   */\n      tag_461\n      jump\t// in\n    tag_610:\n        /* \"#utility.yul\":7573:7645   */\n      tag_611\n        /* \"#utility.yul\":7641:7643   */\n      0x20\n        /* \"#utility.yul\":7630:7639   */\n      dup4\n        /* \"#utility.yul\":7626:7644   */\n      add\n        /* \"#utility.yul\":7617:7623   */\n      dup8\n        /* \"#utility.yul\":7573:7645   */\n      tag_472\n      jump\t// in\n    tag_611:\n        /* \"#utility.yul\":7692:7701   */\n      dup2\n        /* \"#utility.yul\":7686:7690   */\n      dup2\n        /* \"#utility.yul\":7682:7702   */\n      sub\n        /* \"#utility.yul\":7677:7679   */\n      0x40\n        /* \"#utility.yul\":7666:7675   */\n      dup4\n        /* \"#utility.yul\":7662:7680   */\n      add\n        /* \"#utility.yul\":7655:7703   */\n      mstore\n        /* \"#utility.yul\":7720:7798   */\n      tag_612\n        /* \"#utility.yul\":7793:7797   */\n      dup2\n        /* \"#utility.yul\":7784:7790   */\n      dup7\n        /* \"#utility.yul\":7720:7798   */\n      tag_474\n      jump\t// in\n    tag_612:\n        /* \"#utility.yul\":7712:7798   */\n      swap1\n      pop\n        /* \"#utility.yul\":7808:7874   */\n      tag_613\n        /* \"#utility.yul\":7870:7872   */\n      0x60\n        /* \"#utility.yul\":7859:7868   */\n      dup4\n        /* \"#utility.yul\":7855:7873   */\n      add\n        /* \"#utility.yul\":7846:7852   */\n      dup6\n        /* \"#utility.yul\":7808:7874   */\n      tag_456\n      jump\t// in\n    tag_613:\n        /* \"#utility.yul\":7884:7951   */\n      tag_614\n        /* \"#utility.yul\":7946:7949   */\n      0x80\n        /* \"#utility.yul\":7935:7944   */\n      dup4\n        /* \"#utility.yul\":7931:7950   */\n      add\n        /* \"#utility.yul\":7922:7928   */\n      dup5\n        /* \"#utility.yul\":7884:7951   */\n      tag_456\n      jump\t// in\n    tag_614:\n        /* \"#utility.yul\":7227:7958   */\n      swap7\n      swap6\n      pop\n      pop\n      pop\n      pop\n      pop\n      pop\n      jump\t// out\n        /* \"#utility.yul\":7964:8992   */\n    tag_62:\n        /* \"#utility.yul\":8249:8253   */\n      0x00\n        /* \"#utility.yul\":8287:8290   */\n      0xa0\n        /* \"#utility.yul\":8276:8285   */\n      dup3\n        /* \"#utility.yul\":8272:8291   */\n      add\n        /* \"#utility.yul\":8264:8291   */\n      swap1\n      pop\n        /* \"#utility.yul\":8337:8346   */\n      dup2\n        /* \"#utility.yul\":8331:8335   */\n      dup2\n        /* \"#utility.yul\":8327:8347   */\n      sub\n        /* \"#utility.yul\":8323:8324   */\n      0x00\n        /* \"#utility.yul\":8312:8321   */\n      dup4\n        /* \"#utility.yul\":8308:8325   */\n      add\n        /* \"#utility.yul\":8301:8348   */\n      mstore\n        /* \"#utility.yul\":8365:8443   */\n      tag_616\n        /* \"#utility.yul\":8438:8442   */\n      dup2\n        /* \"#utility.yul\":8429:8435   */\n      dup9\n        /* \"#utility.yul\":8365:8443   */\n      tag_474\n      jump\t// in\n    tag_616:\n        /* \"#utility.yul\":8357:8443   */\n      swap1\n      pop\n        /* \"#utility.yul\":8490:8499   */\n      dup2\n        /* \"#utility.yul\":8484:8488   */\n      dup2\n        /* \"#utility.yul\":8480:8500   */\n      sub\n        /* \"#utility.yul\":8475:8477   */\n      0x20\n        /* \"#utility.yul\":8464:8473   */\n      dup4\n        /* \"#utility.yul\":8460:8478   */\n      add\n        /* \"#utility.yul\":8453:8501   */\n      mstore\n        /* \"#utility.yul\":8518:8596   */\n      tag_617\n        /* \"#utility.yul\":8591:8595   */\n      dup2\n        /* \"#utility.yul\":8582:8588   */\n      dup8\n        /* \"#utility.yul\":8518:8596   */\n      tag_474\n      jump\t// in\n    tag_617:\n        /* \"#utility.yul\":8510:8596   */\n      swap1\n      pop\n        /* \"#utility.yul\":8643:8652   */\n      dup2\n        /* \"#utility.yul\":8637:8641   */\n      dup2\n        /* \"#utility.yul\":8633:8653   */\n      sub\n        /* \"#utility.yul\":8628:8630   */\n      0x40\n        /* \"#utility.yul\":8617:8626   */\n      dup4\n        /* \"#utility.yul\":8613:8631   */\n      add\n        /* \"#utility.yul\":8606:8654   */\n      mstore\n        /* \"#utility.yul\":8671:8749   */\n      tag_618\n        /* \"#utility.yul\":8744:8748   */\n      dup2\n        /* \"#utility.yul\":8735:8741   */\n      dup7\n        /* \"#utility.yul\":8671:8749   */\n      tag_474\n      jump\t// in\n    tag_618:\n        /* \"#utility.yul\":8663:8749   */\n      swap1\n      pop\n        /* \"#utility.yul\":8796:8805   */\n      dup2\n        /* \"#utility.yul\":8790:8794   */\n      dup2\n        /* \"#utility.yul\":8786:8806   */\n      sub\n        /* \"#utility.yul\":8781:8783   */\n      0x60\n        /* \"#utility.yul\":8770:8779   */\n      dup4\n        /* \"#utility.yul\":8766:8784   */\n      add\n        /* \"#utility.yul\":8759:8807   */\n      mstore\n        /* \"#utility.yul\":8824:8902   */\n      tag_619\n        /* \"#utility.yul\":8897:8901   */\n      dup2\n        /* \"#utility.yul\":8888:8894   */\n      dup6\n        /* \"#utility.yul\":8824:8902   */\n      tag_474\n      jump\t// in\n    tag_619:\n        /* \"#utility.yul\":8816:8902   */\n      swap1\n      pop\n        /* \"#utility.yul\":8912:8985   */\n      tag_620\n        /* \"#utility.yul\":8980:8983   */\n      0x80\n        /* \"#utility.yul\":8969:8978   */\n      dup4\n        /* \"#utility.yul\":8965:8984   */\n      add\n        /* \"#utility.yul\":8956:8962   */\n      dup5\n        /* \"#utility.yul\":8912:8985   */\n      tag_461\n      jump\t// in\n    tag_620:\n        /* \"#utility.yul\":7964:8992   */\n      swap7\n      swap6\n      pop\n      pop\n      pop\n      pop\n      pop\n      pop\n      jump\t// out\n        /* \"#utility.yul\":8998:9327   */\n    tag_71:\n        /* \"#utility.yul\":9057:9063   */\n      0x00\n        /* \"#utility.yul\":9106:9108   */\n      0x20\n        /* \"#utility.yul\":9094:9103   */\n      dup3\n        /* \"#utility.yul\":9085:9092   */\n      dup5\n        /* \"#utility.yul\":9081:9104   */\n      sub\n        /* \"#utility.yul\":9077:9109   */\n      slt\n        /* \"#utility.yul\":9074:9193   */\n      iszero\n      tag_622\n      jumpi\n        /* \"#utility.yul\":9112:9191   */\n      tag_623\n      tag_450\n      jump\t// in\n    tag_623:\n        /* \"#utility.yul\":9074:9193   */\n    tag_622:\n        /* \"#utility.yul\":9232:9233   */\n      0x00\n        /* \"#utility.yul\":9257:9310   */\n      tag_624\n        /* \"#utility.yul\":9302:9309   */\n      dup5\n        /* \"#utility.yul\":9293:9299   */\n      dup3\n        /* \"#utility.yul\":9282:9291   */\n      dup6\n        /* \"#utility.yul\":9278:9300   */\n      add\n        /* \"#utility.yul\":9257:9310   */\n      tag_471\n      jump\t// in\n    tag_624:\n        /* \"#utility.yul\":9247:9310   */\n      swap2\n      pop\n        /* \"#utility.yul\":9203:9320   */\n      pop\n        /* \"#utility.yul\":8998:9327   */\n      swap3\n      swap2\n      pop\n      pop\n      jump\t// out\n        /* \"#utility.yul\":9333:9555   */\n    tag_74:\n        /* \"#utility.yul\":9426:9430   */\n      0x00\n        /* \"#utility.yul\":9464:9466   */\n      0x20\n        /* \"#utility.yul\":9453:9462   */\n      dup3\n        /* \"#utility.yul\":9449:9467   */\n      add\n        /* \"#utility.yul\":9441:9467   */\n      swap1\n      pop\n        /* \"#utility.yul\":9477:9548   */\n      tag_626\n        /* \"#utility.yul\":9545:9546   */\n      0x00\n        /* \"#utility.yul\":9534:9543   */\n      dup4\n        /* \"#utility.yul\":9530:9547   */\n      add\n        /* \"#utility.yul\":9521:9527   */\n      dup5\n        /* \"#utility.yul\":9477:9548   */\n      tag_472\n      jump\t// in\n    tag_626:\n        /* \"#utility.yul\":9333:9555   */\n      swap3\n      swap2\n      pop\n      pop\n      jump\t// out\n        /* \"#utility.yul\":9561:10035   */\n    tag_80:\n        /* \"#utility.yul\":9629:9635   */\n      0x00\n        /* \"#utility.yul\":9637:9643   */\n      dup1\n        /* \"#utility.yul\":9686:9688   */\n      0x40\n        /* \"#utility.yul\":9674:9683   */\n      dup4\n        /* \"#utility.yul\":9665:9672   */\n      dup6\n        /* \"#utility.yul\":9661:9684   */\n      sub\n        /* \"#utility.yul\":9657:9689   */\n      slt\n        /* \"#utility.yul\":9654:9773   */\n      iszero\n      tag_628\n      jumpi\n        /* \"#utility.yul\":9692:9771   */\n      tag_629\n      tag_450\n      jump\t// in\n    tag_629:\n        /* \"#utility.yul\":9654:9773   */\n    tag_628:\n        /* \"#utility.yul\":9812:9813   */\n      0x00\n        /* \"#utility.yul\":9837:9890   */\n      tag_630\n        /* \"#utility.yul\":9882:9889   */\n      dup6\n        /* \"#utility.yul\":9873:9879   */\n      dup3\n        /* \"#utility.yul\":9862:9871   */\n      dup7\n        /* \"#utility.yul\":9858:9880   */\n      add\n        /* \"#utility.yul\":9837:9890   */\n      tag_471\n      jump\t// in\n    tag_630:\n        /* \"#utility.yul\":9827:9890   */\n      swap3\n      pop\n        /* \"#utility.yul\":9783:9900   */\n      pop\n        /* \"#utility.yul\":9939:9941   */\n      0x20\n        /* \"#utility.yul\":9965:10018   */\n      tag_631\n        /* \"#utility.yul\":10010:10017   */\n      dup6\n        /* \"#utility.yul\":10001:10007   */\n      dup3\n        /* \"#utility.yul\":9990:9999   */\n      dup7\n        /* \"#utility.yul\":9986:10008   */\n      add\n        /* \"#utility.yul\":9965:10018   */\n      tag_460\n      jump\t// in\n    tag_631:\n        /* \"#utility.yul\":9955:10018   */\n      swap2\n      pop\n        /* \"#utility.yul\":9910:10028   */\n      pop\n        /* \"#utility.yul\":9561:10035   */\n      swap3\n      pop\n      swap3\n      swap1\n      pop\n      jump\t// out\n        /* \"#utility.yul\":10041:10118   */\n    tag_475:\n        /* \"#utility.yul\":10078:10085   */\n      0x00\n        /* \"#utility.yul\":10107:10112   */\n      dup2\n        /* \"#utility.yul\":10096:10112   */\n      swap1\n      pop\n        /* \"#utility.yul\":10041:10118   */\n      swap2\n      swap1\n      pop\n      jump\t// out\n        /* \"#utility.yul\":10124:10246   */\n    tag_476:\n        /* \"#utility.yul\":10197:10221   */\n      tag_634\n        /* \"#utility.yul\":10215:10220   */\n      dup2\n        /* \"#utility.yul\":10197:10221   */\n      tag_475\n      jump\t// in\n    tag_634:\n        /* \"#utility.yul\":10190:10195   */\n      dup2\n        /* \"#utility.yul\":10187:10222   */\n      eq\n        /* \"#utility.yul\":10177:10240   */\n      tag_635\n      jumpi\n        /* \"#utility.yul\":10236:10237   */\n      0x00\n        /* \"#utility.yul\":10233:10234   */\n      dup1\n        /* \"#utility.yul\":10226:10238   */\n      revert\n        /* \"#utility.yul\":10177:10240   */\n    tag_635:\n        /* \"#utility.yul\":10124:10246   */\n      pop\n      jump\t// out\n        /* \"#utility.yul\":10252:10391   */\n    tag_477:\n        /* \"#utility.yul\":10298:10303   */\n      0x00\n        /* \"#utility.yul\":10336:10342   */\n      dup2\n        /* \"#utility.yul\":10323:10343   */\n      calldataload\n        /* \"#utility.yul\":10314:10343   */\n      swap1\n      pop\n        /* \"#utility.yul\":10352:10385   */\n      tag_637\n        /* \"#utility.yul\":10379:10384   */\n      dup2\n        /* \"#utility.yul\":10352:10385   */\n      tag_476\n      jump\t// in\n    tag_637:\n        /* \"#utility.yul\":10252:10391   */\n      swap3\n      swap2\n      pop\n      pop\n      jump\t// out\n        /* \"#utility.yul\":10397:10726   */\n    tag_90:\n        /* \"#utility.yul\":10456:10462   */\n      0x00\n        /* \"#utility.yul\":10505:10507   */\n      0x20\n        /* \"#utility.yul\":10493:10502   */\n      dup3\n        /* \"#utility.yul\":10484:10491   */\n      dup5\n        /* \"#utility.yul\":10480:10503   */\n      sub\n        /* \"#utility.yul\":10476:10508   */\n      slt\n        /* \"#utility.yul\":10473:10592   */\n      iszero\n      tag_639\n      jumpi\n        /* \"#utility.yul\":10511:10590   */\n      tag_640\n      tag_450\n      jump\t// in\n    tag_640:\n        /* \"#utility.yul\":10473:10592   */\n    tag_639:\n        /* \"#utility.yul\":10631:10632   */\n      0x00\n        /* \"#utility.yul\":10656:10709   */\n      tag_641\n        /* \"#utility.yul\":10701:10708   */\n      dup5\n        /* \"#utility.yul\":10692:10698   */\n      dup3\n        /* \"#utility.yul\":10681:10690   */\n      dup6\n        /* \"#utility.yul\":10677:10699   */\n      add\n        /* \"#utility.yul\":10656:10709   */\n      tag_477\n      jump\t// in\n    tag_641:\n        /* \"#utility.yul\":10646:10709   */\n      swap2\n      pop\n        /* \"#utility.yul\":10602:10719   */\n      pop\n        /* \"#utility.yul\":10397:10726   */\n      swap3\n      swap2\n      pop\n      pop\n      jump\t// out\n        /* \"#utility.yul\":10732:10849   */\n    tag_478:\n        /* \"#utility.yul\":10841:10842   */\n      0x00\n        /* \"#utility.yul\":10838:10839   */\n      dup1\n        /* \"#utility.yul\":10831:10843   */\n      revert\n        /* \"#utility.yul\":10855:10972   */\n    tag_479:\n        /* \"#utility.yul\":10964:10965   */\n      0x00\n        /* \"#utility.yul\":10961:10962   */\n      dup1\n        /* \"#utility.yul\":10954:10966   */\n      revert\n        /* \"#utility.yul\":10978:11158   */\n    tag_480:\n        /* \"#utility.yul\":11026:11103   */\n      0x4e487b7100000000000000000000000000000000000000000000000000000000\n        /* \"#utility.yul\":11023:11024   */\n      0x00\n        /* \"#utility.yul\":11016:11104   */\n      mstore\n        /* \"#utility.yul\":11123:11127   */\n      0x41\n        /* \"#utility.yul\":11120:11121   */\n      0x04\n        /* \"#utility.yul\":11113:11128   */\n      mstore\n        /* \"#utility.yul\":11147:11151   */\n      0x24\n        /* \"#utility.yul\":11144:11145   */\n      0x00\n        /* \"#utility.yul\":11137:11152   */\n      revert\n        /* \"#utility.yul\":11164:11445   */\n    tag_481:\n        /* \"#utility.yul\":11247:11274   */\n      tag_646\n        /* \"#utility.yul\":11269:11273   */\n      dup3\n        /* \"#utility.yul\":11247:11274   */\n      tag_465\n      jump\t// in\n    tag_646:\n        /* \"#utility.yul\":11239:11245   */\n      dup2\n        /* \"#utility.yul\":11235:11275   */\n      add\n        /* \"#utility.yul\":11377:11383   */\n      dup2\n        /* \"#utility.yul\":11365:11375   */\n      dup2\n        /* \"#utility.yul\":11362:11384   */\n      lt\n        /* \"#utility.yul\":11341:11359   */\n      0xffffffffffffffff\n        /* \"#utility.yul\":11329:11339   */\n      dup3\n        /* \"#utility.yul\":11326:11360   */\n      gt\n        /* \"#utility.yul\":11323:11385   */\n      or\n        /* \"#utility.yul\":11320:11408   */\n      iszero\n      tag_647\n      jumpi\n        /* \"#utility.yul\":11388:11406   */\n      tag_648\n      tag_480\n      jump\t// in\n    tag_648:\n        /* \"#utility.yul\":11320:11408   */\n    tag_647:\n        /* \"#utility.yul\":11428:11438   */\n      dup1\n        /* \"#utility.yul\":11424:11426   */\n      0x40\n        /* \"#utility.yul\":11417:11439   */\n      mstore\n        /* \"#utility.yul\":11207:11445   */\n      pop\n        /* \"#utility.yul\":11164:11445   */\n      pop\n      pop\n      jump\t// out\n        /* \"#utility.yul\":11451:11580   */\n    tag_482:\n        /* \"#utility.yul\":11485:11491   */\n      0x00\n        /* \"#utility.yul\":11512:11532   */\n      tag_650\n      tag_449\n      jump\t// in\n    tag_650:\n        /* \"#utility.yul\":11502:11532   */\n      swap1\n      pop\n        /* \"#utility.yul\":11541:11574   */\n      tag_651\n        /* \"#utility.yul\":11569:11573   */\n      dup3\n        /* \"#utility.yul\":11561:11567   */\n      dup3\n        /* \"#utility.yul\":11541:11574   */\n      tag_481\n      jump\t// in\n    tag_651:\n        /* \"#utility.yul\":11451:11580   */\n      swap2\n      swap1\n      pop\n      jump\t// out\n        /* \"#utility.yul\":11586:11894   */\n    tag_483:\n        /* \"#utility.yul\":11648:11652   */\n      0x00\n        /* \"#utility.yul\":11738:11756   */\n      0xffffffffffffffff\n        /* \"#utility.yul\":11730:11736   */\n      dup3\n        /* \"#utility.yul\":11727:11757   */\n      gt\n        /* \"#utility.yul\":11724:11780   */\n      iszero\n      tag_653\n      jumpi\n        /* \"#utility.yul\":11760:11778   */\n      tag_654\n      tag_480\n      jump\t// in\n    tag_654:\n        /* \"#utility.yul\":11724:11780   */\n    tag_653:\n        /* \"#utility.yul\":11798:11827   */\n      tag_655\n        /* \"#utility.yul\":11820:11826   */\n      dup3\n        /* \"#utility.yul\":11798:11827   */\n      tag_465\n      jump\t// in\n    tag_655:\n        /* \"#utility.yul\":11790:11827   */\n      swap1\n      pop\n        /* \"#utility.yul\":11882:11886   */\n      0x20\n        /* \"#utility.yul\":11876:11880   */\n      dup2\n        /* \"#utility.yul\":11872:11887   */\n      add\n        /* \"#utility.yul\":11864:11887   */\n      swap1\n      pop\n        /* \"#utility.yul\":11586:11894   */\n      swap2\n      swap1\n      pop\n      jump\t// out\n        /* \"#utility.yul\":11900:12048   */\n    tag_484:\n        /* \"#utility.yul\":11998:12004   */\n      dup3\n        /* \"#utility.yul\":11993:11996   */\n      dup2\n        /* \"#utility.yul\":11988:11991   */\n      dup4\n        /* \"#utility.yul\":11975:12005   */\n      calldatacopy\n        /* \"#utility.yul\":12039:12040   */\n      0x00\n        /* \"#utility.yul\":12030:12036   */\n      dup4\n        /* \"#utility.yul\":12025:12028   */\n      dup4\n        /* \"#utility.yul\":12021:12037   */\n      add\n        /* \"#utility.yul\":12014:12041   */\n      mstore\n        /* \"#utility.yul\":11900:12048   */\n      pop\n      pop\n      pop\n      jump\t// out\n        /* \"#utility.yul\":12054:12479   */\n    tag_485:\n        /* \"#utility.yul\":12132:12137   */\n      0x00\n        /* \"#utility.yul\":12157:12223   */\n      tag_658\n        /* \"#utility.yul\":12173:12222   */\n      tag_659\n        /* \"#utility.yul\":12215:12221   */\n      dup5\n        /* \"#utility.yul\":12173:12222   */\n      tag_483\n      jump\t// in\n    tag_659:\n        /* \"#utility.yul\":12157:12223   */\n      tag_482\n      jump\t// in\n    tag_658:\n        /* \"#utility.yul\":12148:12223   */\n      swap1\n      pop\n        /* \"#utility.yul\":12246:12252   */\n      dup3\n        /* \"#utility.yul\":12239:12244   */\n      dup2\n        /* \"#utility.yul\":12232:12253   */\n      mstore\n        /* \"#utility.yul\":12284:12288   */\n      0x20\n        /* \"#utility.yul\":12277:12282   */\n      dup2\n        /* \"#utility.yul\":12273:12289   */\n      add\n        /* \"#utility.yul\":12322:12325   */\n      dup5\n        /* \"#utility.yul\":12313:12319   */\n      dup5\n        /* \"#utility.yul\":12308:12311   */\n      dup5\n        /* \"#utility.yul\":12304:12320   */\n      add\n        /* \"#utility.yul\":12301:12326   */\n      gt\n        /* \"#utility.yul\":12298:12410   */\n      iszero\n      tag_660\n      jumpi\n        /* \"#utility.yul\":12329:12408   */\n      tag_661\n      tag_479\n      jump\t// in\n    tag_661:\n        /* \"#utility.yul\":12298:12410   */\n    tag_660:\n        /* \"#utility.yul\":12419:12473   */\n      tag_662\n        /* \"#utility.yul\":12466:12472   */\n      dup5\n        /* \"#utility.yul\":12461:12464   */\n      dup3\n        /* \"#utility.yul\":12456:12459   */\n      dup6\n        /* \"#utility.yul\":12419:12473   */\n      tag_484\n      jump\t// in\n    tag_662:\n        /* \"#utility.yul\":12138:12479   */\n      pop\n        /* \"#utility.yul\":12054:12479   */\n      swap4\n      swap3\n      pop\n      pop\n      pop\n      jump\t// out\n        /* \"#utility.yul\":12499:12839   */\n    tag_486:\n        /* \"#utility.yul\":12555:12560   */\n      0x00\n        /* \"#utility.yul\":12604:12607   */\n      dup3\n        /* \"#utility.yul\":12597:12601   */\n      0x1f\n        /* \"#utility.yul\":12589:12595   */\n      dup4\n        /* \"#utility.yul\":12585:12602   */\n      add\n        /* \"#utility.yul\":12581:12608   */\n      slt\n        /* \"#utility.yul\":12571:12693   */\n      tag_664\n      jumpi\n        /* \"#utility.yul\":12612:12691   */\n      tag_665\n      tag_478\n      jump\t// in\n    tag_665:\n        /* \"#utility.yul\":12571:12693   */\n    tag_664:\n        /* \"#utility.yul\":12729:12735   */\n      dup2\n        /* \"#utility.yul\":12716:12736   */\n      calldataload\n        /* \"#utility.yul\":12754:12833   */\n      tag_666\n        /* \"#utility.yul\":12829:12832   */\n      dup5\n        /* \"#utility.yul\":12821:12827   */\n      dup3\n        /* \"#utility.yul\":12814:12818   */\n      0x20\n        /* \"#utility.yul\":12806:12812   */\n      dup7\n        /* \"#utility.yul\":12802:12819   */\n      add\n        /* \"#utility.yul\":12754:12833   */\n      tag_485\n      jump\t// in\n    tag_666:\n        /* \"#utility.yul\":12745:12833   */\n      swap2\n      pop\n        /* \"#utility.yul\":12561:12839   */\n      pop\n        /* \"#utility.yul\":12499:12839   */\n      swap3\n      swap2\n      pop\n      pop\n      jump\t// out\n        /* \"#utility.yul\":12845:13499   */\n    tag_107:\n        /* \"#utility.yul\":12923:12929   */\n      0x00\n        /* \"#utility.yul\":12931:12937   */\n      dup1\n        /* \"#utility.yul\":12980:12982   */\n      0x40\n        /* \"#utility.yul\":12968:12977   */\n      dup4\n        /* \"#utility.yul\":12959:12966   */\n      dup6\n        /* \"#utility.yul\":12955:12978   */\n      sub\n        /* \"#utility.yul\":12951:12983   */\n      slt\n        /* \"#utility.yul\":12948:13067   */\n      iszero\n      tag_668\n      jumpi\n        /* \"#utility.yul\":12986:13065   */\n      tag_669\n      tag_450\n      jump\t// in\n    tag_669:\n        /* \"#utility.yul\":12948:13067   */\n    tag_668:\n        /* \"#utility.yul\":13106:13107   */\n      0x00\n        /* \"#utility.yul\":13131:13184   */\n      tag_670\n        /* \"#utility.yul\":13176:13183   */\n      dup6\n        /* \"#utility.yul\":13167:13173   */\n      dup3\n        /* \"#utility.yul\":13156:13165   */\n      dup7\n        /* \"#utility.yul\":13152:13174   */\n      add\n        /* \"#utility.yul\":13131:13184   */\n      tag_471\n      jump\t// in\n    tag_670:\n        /* \"#utility.yul\":13121:13184   */\n      swap3\n      pop\n        /* \"#utility.yul\":13077:13194   */\n      pop\n        /* \"#utility.yul\":13261:13263   */\n      0x20\n        /* \"#utility.yul\":13250:13259   */\n      dup4\n        /* \"#utility.yul\":13246:13264   */\n      add\n        /* \"#utility.yul\":13233:13265   */\n      calldataload\n        /* \"#utility.yul\":13292:13310   */\n      0xffffffffffffffff\n        /* \"#utility.yul\":13284:13290   */\n      dup2\n        /* \"#utility.yul\":13281:13311   */\n      gt\n        /* \"#utility.yul\":13278:13395   */\n      iszero\n      tag_671\n      jumpi\n        /* \"#utility.yul\":13314:13393   */\n      tag_672\n      tag_451\n      jump\t// in\n    tag_672:\n        /* \"#utility.yul\":13278:13395   */\n    tag_671:\n        /* \"#utility.yul\":13419:13482   */\n      tag_673\n        /* \"#utility.yul\":13474:13481   */\n      dup6\n        /* \"#utility.yul\":13465:13471   */\n      dup3\n        /* \"#utility.yul\":13454:13463   */\n      dup7\n        /* \"#utility.yul\":13450:13472   */\n      add\n        /* \"#utility.yul\":13419:13482   */\n      tag_486\n      jump\t// in\n    tag_673:\n        /* \"#utility.yul\":13409:13482   */\n      swap2\n      pop\n        /* \"#utility.yul\":13204:13492   */\n      pop\n        /* \"#utility.yul\":12845:13499   */\n      swap3\n      pop\n      swap3\n      swap1\n      pop\n      jump\t// out\n        /* \"#utility.yul\":13505:14990   */\n    tag_111:\n        /* \"#utility.yul\":13631:13637   */\n      0x00\n        /* \"#utility.yul\":13639:13645   */\n      dup1\n        /* \"#utility.yul\":13647:13653   */\n      0x00\n        /* \"#utility.yul\":13655:13661   */\n      dup1\n        /* \"#utility.yul\":13704:13707   */\n      0x80\n        /* \"#utility.yul\":13692:13701   */\n      dup6\n        /* \"#utility.yul\":13683:13690   */\n      dup8\n        /* \"#utility.yul\":13679:13702   */\n      sub\n        /* \"#utility.yul\":13675:13708   */\n      slt\n        /* \"#utility.yul\":13672:13792   */\n      iszero\n      tag_675\n      jumpi\n        /* \"#utility.yul\":13711:13790   */\n      tag_676\n      tag_450\n      jump\t// in\n    tag_676:\n        /* \"#utility.yul\":13672:13792   */\n    tag_675:\n        /* \"#utility.yul\":13859:13860   */\n      0x00\n        /* \"#utility.yul\":13848:13857   */\n      dup6\n        /* \"#utility.yul\":13844:13861   */\n      add\n        /* \"#utility.yul\":13831:13862   */\n      calldataload\n        /* \"#utility.yul\":13889:13907   */\n      0xffffffffffffffff\n        /* \"#utility.yul\":13881:13887   */\n      dup2\n        /* \"#utility.yul\":13878:13908   */\n      gt\n        /* \"#utility.yul\":13875:13992   */\n      iszero\n      tag_677\n      jumpi\n        /* \"#utility.yul\":13911:13990   */\n      tag_678\n      tag_451\n      jump\t// in\n    tag_678:\n        /* \"#utility.yul\":13875:13992   */\n    tag_677:\n        /* \"#utility.yul\":14016:14079   */\n      tag_679\n        /* \"#utility.yul\":14071:14078   */\n      dup8\n        /* \"#utility.yul\":14062:14068   */\n      dup3\n        /* \"#utility.yul\":14051:14060   */\n      dup9\n        /* \"#utility.yul\":14047:14069   */\n      add\n        /* \"#utility.yul\":14016:14079   */\n      tag_486\n      jump\t// in\n    tag_679:\n        /* \"#utility.yul\":14006:14079   */\n      swap5\n      pop\n        /* \"#utility.yul\":13802:14089   */\n      pop\n        /* \"#utility.yul\":14156:14158   */\n      0x20\n        /* \"#utility.yul\":14145:14154   */\n      dup6\n        /* \"#utility.yul\":14141:14159   */\n      add\n        /* \"#utility.yul\":14128:14160   */\n      calldataload\n        /* \"#utility.yul\":14187:14205   */\n      0xffffffffffffffff\n        /* \"#utility.yul\":14179:14185   */\n      dup2\n        /* \"#utility.yul\":14176:14206   */\n      gt\n        /* \"#utility.yul\":14173:14290   */\n      iszero\n      tag_680\n      jumpi\n        /* \"#utility.yul\":14209:14288   */\n      tag_681\n      tag_451\n      jump\t// in\n    tag_681:\n        /* \"#utility.yul\":14173:14290   */\n    tag_680:\n        /* \"#utility.yul\":14314:14377   */\n      tag_682\n        /* \"#utility.yul\":14369:14376   */\n      dup8\n        /* \"#utility.yul\":14360:14366   */\n      dup3\n        /* \"#utility.yul\":14349:14358   */\n      dup9\n        /* \"#utility.yul\":14345:14367   */\n      add\n        /* \"#utility.yul\":14314:14377   */\n      tag_486\n      jump\t// in\n    tag_682:\n        /* \"#utility.yul\":14304:14377   */\n      swap4\n      pop\n        /* \"#utility.yul\":14099:14387   */\n      pop\n        /* \"#utility.yul\":14454:14456   */\n      0x40\n        /* \"#utility.yul\":14443:14452   */\n      dup6\n        /* \"#utility.yul\":14439:14457   */\n      add\n        /* \"#utility.yul\":14426:14458   */\n      calldataload\n        /* \"#utility.yul\":14485:14503   */\n      0xffffffffffffffff\n        /* \"#utility.yul\":14477:14483   */\n      dup2\n        /* \"#utility.yul\":14474:14504   */\n      gt\n        /* \"#utility.yul\":14471:14588   */\n      iszero\n      tag_683\n      jumpi\n        /* \"#utility.yul\":14507:14586   */\n      tag_684\n      tag_451\n      jump\t// in\n    tag_684:\n        /* \"#utility.yul\":14471:14588   */\n    tag_683:\n        /* \"#utility.yul\":14612:14675   */\n      tag_685\n        /* \"#utility.yul\":14667:14674   */\n      dup8\n        /* \"#utility.yul\":14658:14664   */\n      dup3\n        /* \"#utility.yul\":14647:14656   */\n      dup9\n        /* \"#utility.yul\":14643:14665   */\n      add\n        /* \"#utility.yul\":14612:14675   */\n      tag_486\n      jump\t// in\n    tag_685:\n        /* \"#utility.yul\":14602:14675   */\n      swap3\n      pop\n        /* \"#utility.yul\":14397:14685   */\n      pop\n        /* \"#utility.yul\":14752:14754   */\n      0x60\n        /* \"#utility.yul\":14741:14750   */\n      dup6\n        /* \"#utility.yul\":14737:14755   */\n      add\n        /* \"#utility.yul\":14724:14756   */\n      calldataload\n        /* \"#utility.yul\":14783:14801   */\n      0xffffffffffffffff\n        /* \"#utility.yul\":14775:14781   */\n      dup2\n        /* \"#utility.yul\":14772:14802   */\n      gt\n        /* \"#utility.yul\":14769:14886   */\n      iszero\n      tag_686\n      jumpi\n        /* \"#utility.yul\":14805:14884   */\n      tag_687\n      tag_451\n      jump\t// in\n    tag_687:\n        /* \"#utility.yul\":14769:14886   */\n    tag_686:\n        /* \"#utility.yul\":14910:14973   */\n      tag_688\n        /* \"#utility.yul\":14965:14972   */\n      dup8\n        /* \"#utility.yul\":14956:14962   */\n      dup3\n        /* \"#utility.yul\":14945:14954   */\n      dup9\n        /* \"#utility.yul\":14941:14963   */\n      add\n        /* \"#utility.yul\":14910:14973   */\n      tag_486\n      jump\t// in\n    tag_688:\n        /* \"#utility.yul\":14900:14973   */\n      swap2\n      pop\n        /* \"#utility.yul\":14695:14983   */\n      pop\n        /* \"#utility.yul\":13505:14990   */\n      swap3\n      swap6\n      swap2\n      swap5\n      pop\n      swap3\n      pop\n      jump\t// out\n        /* \"#utility.yul\":14996:15138   */\n    tag_487:\n        /* \"#utility.yul\":15091:15097   */\n      0x00\n        /* \"#utility.yul\":15125:15130   */\n      dup2\n        /* \"#utility.yul\":15119:15131   */\n      mload\n        /* \"#utility.yul\":15109:15131   */\n      swap1\n      pop\n        /* \"#utility.yul\":14996:15138   */\n      swap2\n      swap1\n      pop\n      jump\t// out\n        /* \"#utility.yul\":15144:15356   */\n    tag_488:\n        /* \"#utility.yul\":15271:15282   */\n      0x00\n        /* \"#utility.yul\":15305:15311   */\n      dup3\n        /* \"#utility.yul\":15300:15303   */\n      dup3\n        /* \"#utility.yul\":15293:15312   */\n      mstore\n        /* \"#utility.yul\":15345:15349   */\n      0x20\n        /* \"#utility.yul\":15340:15343   */\n      dup3\n        /* \"#utility.yul\":15336:15350   */\n      add\n        /* \"#utility.yul\":15321:15350   */\n      swap1\n      pop\n        /* \"#utility.yul\":15144:15356   */\n      swap3\n      swap2\n      pop\n      pop\n      jump\t// out\n        /* \"#utility.yul\":15362:15522   */\n    tag_489:\n        /* \"#utility.yul\":15457:15461   */\n      0x00\n        /* \"#utility.yul\":15480:15483   */\n      dup2\n        /* \"#utility.yul\":15472:15483   */\n      swap1\n      pop\n        /* \"#utility.yul\":15510:15514   */\n      0x20\n        /* \"#utility.yul\":15505:15508   */\n      dup3\n        /* \"#utility.yul\":15501:15515   */\n      add\n        /* \"#utility.yul\":15493:15515   */\n      swap1\n      pop\n        /* \"#utility.yul\":15362:15522   */\n      swap2\n      swap1\n      pop\n      jump\t// out\n        /* \"#utility.yul\":15528:15636   */\n    tag_490:\n        /* \"#utility.yul\":15605:15629   */\n      tag_693\n        /* \"#utility.yul\":15623:15628   */\n      dup2\n        /* \"#utility.yul\":15605:15629   */\n      tag_469\n      jump\t// in\n    tag_693:\n        /* \"#utility.yul\":15600:15603   */\n      dup3\n        /* \"#utility.yul\":15593:15630   */\n      mstore\n        /* \"#utility.yul\":15528:15636   */\n      pop\n      pop\n      jump\t// out\n        /* \"#utility.yul\":15642:15741   */\n    tag_491:\n        /* \"#utility.yul\":15713:15734   */\n      tag_695\n        /* \"#utility.yul\":15728:15733   */\n      dup2\n        /* \"#utility.yul\":15713:15734   */\n      tag_455\n      jump\t// in\n    tag_695:\n        /* \"#utility.yul\":15708:15711   */\n      dup3\n        /* \"#utility.yul\":15701:15735   */\n      mstore\n        /* \"#utility.yul\":15642:15741   */\n      pop\n      pop\n      jump\t// out\n        /* \"#utility.yul\":15819:16945   */\n    tag_492:\n        /* \"#utility.yul\":15934:15937   */\n      0x00\n        /* \"#utility.yul\":15970:15974   */\n      0xa0\n        /* \"#utility.yul\":15965:15968   */\n      dup4\n        /* \"#utility.yul\":15961:15975   */\n      add\n        /* \"#utility.yul\":16062:16066   */\n      0x00\n        /* \"#utility.yul\":16055:16060   */\n      dup4\n        /* \"#utility.yul\":16051:16067   */\n      add\n        /* \"#utility.yul\":16045:16068   */\n      mload\n        /* \"#utility.yul\":16081:16144   */\n      tag_697\n        /* \"#utility.yul\":16138:16142   */\n      0x00\n        /* \"#utility.yul\":16133:16136   */\n      dup7\n        /* \"#utility.yul\":16129:16143   */\n      add\n        /* \"#utility.yul\":16115:16127   */\n      dup3\n        /* \"#utility.yul\":16081:16144   */\n      tag_467\n      jump\t// in\n    tag_697:\n        /* \"#utility.yul\":15985:16154   */\n      pop\n        /* \"#utility.yul\":16236:16240   */\n      0x20\n        /* \"#utility.yul\":16229:16234   */\n      dup4\n        /* \"#utility.yul\":16225:16241   */\n      add\n        /* \"#utility.yul\":16219:16242   */\n      mload\n        /* \"#utility.yul\":16255:16318   */\n      tag_698\n        /* \"#utility.yul\":16312:16316   */\n      0x20\n        /* \"#utility.yul\":16307:16310   */\n      dup7\n        /* \"#utility.yul\":16303:16317   */\n      add\n        /* \"#utility.yul\":16289:16301   */\n      dup3\n        /* \"#utility.yul\":16255:16318   */\n      tag_490\n      jump\t// in\n    tag_698:\n        /* \"#utility.yul\":16164:16328   */\n      pop\n        /* \"#utility.yul\":16412:16416   */\n      0x40\n        /* \"#utility.yul\":16405:16410   */\n      dup4\n        /* \"#utility.yul\":16401:16417   */\n      add\n        /* \"#utility.yul\":16395:16418   */\n      mload\n        /* \"#utility.yul\":16465:16468   */\n      dup5\n        /* \"#utility.yul\":16459:16463   */\n      dup3\n        /* \"#utility.yul\":16455:16469   */\n      sub\n        /* \"#utility.yul\":16448:16452   */\n      0x40\n        /* \"#utility.yul\":16443:16446   */\n      dup7\n        /* \"#utility.yul\":16439:16453   */\n      add\n        /* \"#utility.yul\":16432:16470   */\n      mstore\n        /* \"#utility.yul\":16491:16564   */\n      tag_699\n        /* \"#utility.yul\":16559:16563   */\n      dup3\n        /* \"#utility.yul\":16545:16557   */\n      dup3\n        /* \"#utility.yul\":16491:16564   */\n      tag_466\n      jump\t// in\n    tag_699:\n        /* \"#utility.yul\":16483:16564   */\n      swap2\n      pop\n        /* \"#utility.yul\":16338:16575   */\n      pop\n        /* \"#utility.yul\":16660:16664   */\n      0x60\n        /* \"#utility.yul\":16653:16658   */\n      dup4\n        /* \"#utility.yul\":16649:16665   */\n      add\n        /* \"#utility.yul\":16643:16666   */\n      mload\n        /* \"#utility.yul\":16679:16736   */\n      tag_700\n        /* \"#utility.yul\":16730:16734   */\n      0x60\n        /* \"#utility.yul\":16725:16728   */\n      dup7\n        /* \"#utility.yul\":16721:16735   */\n      add\n        /* \"#utility.yul\":16707:16719   */\n      dup3\n        /* \"#utility.yul\":16679:16736   */\n      tag_491\n      jump\t// in\n    tag_700:\n        /* \"#utility.yul\":16585:16746   */\n      pop\n        /* \"#utility.yul\":16832:16836   */\n      0x80\n        /* \"#utility.yul\":16825:16830   */\n      dup4\n        /* \"#utility.yul\":16821:16837   */\n      add\n        /* \"#utility.yul\":16815:16838   */\n      mload\n        /* \"#utility.yul\":16851:16908   */\n      tag_701\n        /* \"#utility.yul\":16902:16906   */\n      0x80\n        /* \"#utility.yul\":16897:16900   */\n      dup7\n        /* \"#utility.yul\":16893:16907   */\n      add\n        /* \"#utility.yul\":16879:16891   */\n      dup3\n        /* \"#utility.yul\":16851:16908   */\n      tag_491\n      jump\t// in\n    tag_701:\n        /* \"#utility.yul\":16756:16918   */\n      pop\n        /* \"#utility.yul\":16935:16939   */\n      dup1\n        /* \"#utility.yul\":16928:16939   */\n      swap2\n      pop\n        /* \"#utility.yul\":15939:16945   */\n      pop\n        /* \"#utility.yul\":15819:16945   */\n      swap3\n      swap2\n      pop\n      pop\n      jump\t// out\n        /* \"#utility.yul\":16951:17219   */\n    tag_493:\n        /* \"#utility.yul\":17076:17086   */\n      0x00\n        /* \"#utility.yul\":17111:17213   */\n      tag_703\n        /* \"#utility.yul\":17209:17212   */\n      dup4\n        /* \"#utility.yul\":17201:17207   */\n      dup4\n        /* \"#utility.yul\":17111:17213   */\n      tag_492\n      jump\t// in\n    tag_703:\n        /* \"#utility.yul\":17097:17213   */\n      swap1\n      pop\n        /* \"#utility.yul\":16951:17219   */\n      swap3\n      swap2\n      pop\n      pop\n      jump\t// out\n        /* \"#utility.yul\":17225:17366   */\n    tag_494:\n        /* \"#utility.yul\":17323:17327   */\n      0x00\n        /* \"#utility.yul\":17355:17359   */\n      0x20\n        /* \"#utility.yul\":17350:17353   */\n      dup3\n        /* \"#utility.yul\":17346:17360   */\n      add\n        /* \"#utility.yul\":17338:17360   */\n      swap1\n      pop\n        /* \"#utility.yul\":17225:17366   */\n      swap2\n      swap1\n      pop\n      jump\t// out\n        /* \"#utility.yul\":17448:18583   */\n    tag_495:\n        /* \"#utility.yul\":17623:17626   */\n      0x00\n        /* \"#utility.yul\":17652:17734   */\n      tag_706\n        /* \"#utility.yul\":17728:17733   */\n      dup3\n        /* \"#utility.yul\":17652:17734   */\n      tag_487\n      jump\t// in\n    tag_706:\n        /* \"#utility.yul\":17750:17864   */\n      tag_707\n        /* \"#utility.yul\":17857:17863   */\n      dup2\n        /* \"#utility.yul\":17852:17855   */\n      dup6\n        /* \"#utility.yul\":17750:17864   */\n      tag_488\n      jump\t// in\n    tag_707:\n        /* \"#utility.yul\":17743:17864   */\n      swap4\n      pop\n        /* \"#utility.yul\":17890:17893   */\n      dup4\n        /* \"#utility.yul\":17935:17939   */\n      0x20\n        /* \"#utility.yul\":17927:17933   */\n      dup3\n        /* \"#utility.yul\":17923:17940   */\n      mul\n        /* \"#utility.yul\":17918:17921   */\n      dup6\n        /* \"#utility.yul\":17914:17941   */\n      add\n        /* \"#utility.yul\":17965:18049   */\n      tag_708\n        /* \"#utility.yul\":18043:18048   */\n      dup6\n        /* \"#utility.yul\":17965:18049   */\n      tag_489\n      jump\t// in\n    tag_708:\n        /* \"#utility.yul\":18072:18079   */\n      dup1\n        /* \"#utility.yul\":18103:18104   */\n      0x00\n        /* \"#utility.yul\":18088:18538   */\n    tag_709:\n        /* \"#utility.yul\":18113:18119   */\n      dup6\n        /* \"#utility.yul\":18110:18111   */\n      dup2\n        /* \"#utility.yul\":18107:18120   */\n      lt\n        /* \"#utility.yul\":18088:18538   */\n      iszero\n      tag_711\n      jumpi\n        /* \"#utility.yul\":18184:18193   */\n      dup5\n        /* \"#utility.yul\":18178:18182   */\n      dup5\n        /* \"#utility.yul\":18174:18194   */\n      sub\n        /* \"#utility.yul\":18169:18172   */\n      dup10\n        /* \"#utility.yul\":18162:18195   */\n      mstore\n        /* \"#utility.yul\":18235:18241   */\n      dup2\n        /* \"#utility.yul\":18229:18242   */\n      mload\n        /* \"#utility.yul\":18263:18383   */\n      tag_712\n        /* \"#utility.yul\":18378:18382   */\n      dup6\n        /* \"#utility.yul\":18363:18376   */\n      dup3\n        /* \"#utility.yul\":18263:18383   */\n      tag_493\n      jump\t// in\n    tag_712:\n        /* \"#utility.yul\":18255:18383   */\n      swap5\n      pop\n        /* \"#utility.yul\":18406:18494   */\n      tag_713\n        /* \"#utility.yul\":18487:18493   */\n      dup4\n        /* \"#utility.yul\":18406:18494   */\n      tag_494\n      jump\t// in\n    tag_713:\n        /* \"#utility.yul\":18396:18494   */\n      swap3\n      pop\n        /* \"#utility.yul\":18523:18527   */\n      0x20\n        /* \"#utility.yul\":18518:18521   */\n      dup11\n        /* \"#utility.yul\":18514:18528   */\n      add\n        /* \"#utility.yul\":18507:18528   */\n      swap10\n      pop\n        /* \"#utility.yul\":18148:18538   */\n      pop\n        /* \"#utility.yul\":18135:18136   */\n      0x01\n        /* \"#utility.yul\":18132:18133   */\n      dup2\n        /* \"#utility.yul\":18128:18137   */\n      add\n        /* \"#utility.yul\":18123:18137   */\n      swap1\n      pop\n        /* \"#utility.yul\":18088:18538   */\n      jump(tag_709)\n    tag_711:\n        /* \"#utility.yul\":18092:18106   */\n      pop\n        /* \"#utility.yul\":18554:18558   */\n      dup3\n        /* \"#utility.yul\":18547:18558   */\n      swap8\n      pop\n        /* \"#utility.yul\":18574:18577   */\n      dup8\n        /* \"#utility.yul\":18567:18577   */\n      swap6\n      pop\n        /* \"#utility.yul\":17628:18583   */\n      pop\n      pop\n      pop\n      pop\n      pop\n        /* \"#utility.yul\":17448:18583   */\n      swap3\n      swap2\n      pop\n      pop\n      jump\t// out\n        /* \"#utility.yul\":18589:19074   */\n    tag_122:\n        /* \"#utility.yul\":18788:18792   */\n      0x00\n        /* \"#utility.yul\":18826:18828   */\n      0x20\n        /* \"#utility.yul\":18815:18824   */\n      dup3\n        /* \"#utility.yul\":18811:18829   */\n      add\n        /* \"#utility.yul\":18803:18829   */\n      swap1\n      pop\n        /* \"#utility.yul\":18875:18884   */\n      dup2\n        /* \"#utility.yul\":18869:18873   */\n      dup2\n        /* \"#utility.yul\":18865:18885   */\n      sub\n        /* \"#utility.yul\":18861:18862   */\n      0x00\n        /* \"#utility.yul\":18850:18859   */\n      dup4\n        /* \"#utility.yul\":18846:18863   */\n      add\n        /* \"#utility.yul\":18839:18886   */\n      mstore\n        /* \"#utility.yul\":18903:19067   */\n      tag_715\n        /* \"#utility.yul\":19062:19066   */\n      dup2\n        /* \"#utility.yul\":19053:19059   */\n      dup5\n        /* \"#utility.yul\":18903:19067   */\n      tag_495\n      jump\t// in\n    tag_715:\n        /* \"#utility.yul\":18895:19067   */\n      swap1\n      pop\n        /* \"#utility.yul\":18589:19074   */\n      swap3\n      swap2\n      pop\n      pop\n      jump\t// out\n        /* \"#utility.yul\":19080:19260   */\n    tag_496:\n        /* \"#utility.yul\":19128:19205   */\n      0x4e487b7100000000000000000000000000000000000000000000000000000000\n        /* \"#utility.yul\":19125:19126   */\n      0x00\n        /* \"#utility.yul\":19118:19206   */\n      mstore\n        /* \"#utility.yul\":19225:19229   */\n      0x22\n        /* \"#utility.yul\":19222:19223   */\n      0x04\n        /* \"#utility.yul\":19215:19230   */\n      mstore\n        /* \"#utility.yul\":19249:19253   */\n      0x24\n        /* \"#utility.yul\":19246:19247   */\n      0x00\n        /* \"#utility.yul\":19239:19254   */\n      revert\n        /* \"#utility.yul\":19266:19586   */\n    tag_156:\n        /* \"#utility.yul\":19310:19316   */\n      0x00\n        /* \"#utility.yul\":19347:19348   */\n      0x02\n        /* \"#utility.yul\":19341:19345   */\n      dup3\n        /* \"#utility.yul\":19337:19349   */\n      div\n        /* \"#utility.yul\":19327:19349   */\n      swap1\n      pop\n        /* \"#utility.yul\":19394:19395   */\n      0x01\n        /* \"#utility.yul\":19388:19392   */\n      dup3\n        /* \"#utility.yul\":19384:19396   */\n      and\n        /* \"#utility.yul\":19415:19433   */\n      dup1\n        /* \"#utility.yul\":19405:19486   */\n      tag_718\n      jumpi\n        /* \"#utility.yul\":19471:19475   */\n      0x7f\n        /* \"#utility.yul\":19463:19469   */\n      dup3\n        /* \"#utility.yul\":19459:19476   */\n      and\n        /* \"#utility.yul\":19449:19476   */\n      swap2\n      pop\n        /* \"#utility.yul\":19405:19486   */\n    tag_718:\n        /* \"#utility.yul\":19533:19535   */\n      0x20\n        /* \"#utility.yul\":19525:19531   */\n      dup3\n        /* \"#utility.yul\":19522:19536   */\n      lt\n        /* \"#utility.yul\":19502:19520   */\n      dup2\n        /* \"#utility.yul\":19499:19537   */\n      sub\n        /* \"#utility.yul\":19496:19580   */\n      tag_719\n      jumpi\n        /* \"#utility.yul\":19552:19570   */\n      tag_720\n      tag_496\n      jump\t// in\n    tag_720:\n        /* \"#utility.yul\":19496:19580   */\n    tag_719:\n        /* \"#utility.yul\":19317:19586   */\n      pop\n        /* \"#utility.yul\":19266:19586   */\n      swap2\n      swap1\n      pop\n      jump\t// out\n        /* \"#utility.yul\":19592:19757   */\n    tag_497:\n        /* \"#utility.yul\":19732:19749   */\n      0x496e76616c696420616464726573730000000000000000000000000000000000\n        /* \"#utility.yul\":19728:19729   */\n      0x00\n        /* \"#utility.yul\":19720:19726   */\n      dup3\n        /* \"#utility.yul\":19716:19730   */\n      add\n        /* \"#utility.yul\":19709:19750   */\n      mstore\n        /* \"#utility.yul\":19592:19757   */\n      pop\n      jump\t// out\n        /* \"#utility.yul\":19763:20129   */\n    tag_498:\n        /* \"#utility.yul\":19905:19908   */\n      0x00\n        /* \"#utility.yul\":19926:19993   */\n      tag_723\n        /* \"#utility.yul\":19990:19992   */\n      0x0f\n        /* \"#utility.yul\":19985:19988   */\n      dup4\n        /* \"#utility.yul\":19926:19993   */\n      tag_473\n      jump\t// in\n    tag_723:\n        /* \"#utility.yul\":19919:19993   */\n      swap2\n      pop\n        /* \"#utility.yul\":20002:20095   */\n      tag_724\n        /* \"#utility.yul\":20091:20094   */\n      dup3\n        /* \"#utility.yul\":20002:20095   */\n      tag_497\n      jump\t// in\n    tag_724:\n        /* \"#utility.yul\":20120:20122   */\n      0x20\n        /* \"#utility.yul\":20115:20118   */\n      dup3\n        /* \"#utility.yul\":20111:20123   */\n      add\n        /* \"#utility.yul\":20104:20123   */\n      swap1\n      pop\n        /* \"#utility.yul\":19763:20129   */\n      swap2\n      swap1\n      pop\n      jump\t// out\n        /* \"#utility.yul\":20135:20554   */\n    tag_211:\n        /* \"#utility.yul\":20301:20305   */\n      0x00\n        /* \"#utility.yul\":20339:20341   */\n      0x20\n        /* \"#utility.yul\":20328:20337   */\n      dup3\n        /* \"#utility.yul\":20324:20342   */\n      add\n        /* \"#utility.yul\":20316:20342   */\n      swap1\n      pop\n        /* \"#utility.yul\":20388:20397   */\n      dup2\n        /* \"#utility.yul\":20382:20386   */\n      dup2\n        /* \"#utility.yul\":20378:20398   */\n      sub\n        /* \"#utility.yul\":20374:20375   */\n      0x00\n        /* \"#utility.yul\":20363:20372   */\n      dup4\n        /* \"#utility.yul\":20359:20376   */\n      add\n        /* \"#utility.yul\":20352:20399   */\n      mstore\n        /* \"#utility.yul\":20416:20547   */\n      tag_726\n        /* \"#utility.yul\":20542:20546   */\n      dup2\n        /* \"#utility.yul\":20416:20547   */\n      tag_498\n      jump\t// in\n    tag_726:\n        /* \"#utility.yul\":20408:20547   */\n      swap1\n      pop\n        /* \"#utility.yul\":20135:20554   */\n      swap2\n      swap1\n      pop\n      jump\t// out\n        /* \"#utility.yul\":20560:20728   */\n    tag_499:\n        /* \"#utility.yul\":20700:20720   */\n      0x4e6f2070656e64696e6720726571756573740000000000000000000000000000\n        /* \"#utility.yul\":20696:20697   */\n      0x00\n        /* \"#utility.yul\":20688:20694   */\n      dup3\n        /* \"#utility.yul\":20684:20698   */\n      add\n        /* \"#utility.yul\":20677:20721   */\n      mstore\n        /* \"#utility.yul\":20560:20728   */\n      pop\n      jump\t// out\n        /* \"#utility.yul\":20734:21100   */\n    tag_500:\n        /* \"#utility.yul\":20876:20879   */\n      0x00\n        /* \"#utility.yul\":20897:20964   */\n      tag_729\n        /* \"#utility.yul\":20961:20963   */\n      0x12\n        /* \"#utility.yul\":20956:20959   */\n      dup4\n        /* \"#utility.yul\":20897:20964   */\n      tag_473\n      jump\t// in\n    tag_729:\n        /* \"#utility.yul\":20890:20964   */\n      swap2\n      pop\n        /* \"#utility.yul\":20973:21066   */\n      tag_730\n        /* \"#utility.yul\":21062:21065   */\n      dup3\n        /* \"#utility.yul\":20973:21066   */\n      tag_499\n      jump\t// in\n    tag_730:\n        /* \"#utility.yul\":21091:21093   */\n      0x20\n        /* \"#utility.yul\":21086:21089   */\n      dup3\n        /* \"#utility.yul\":21082:21094   */\n      add\n        /* \"#utility.yul\":21075:21094   */\n      swap1\n      pop\n        /* \"#utility.yul\":20734:21100   */\n      swap2\n      swap1\n      pop\n      jump\t// out\n        /* \"#utility.yul\":21106:21525   */\n    tag_233:\n        /* \"#utility.yul\":21272:21276   */\n      0x00\n        /* \"#utility.yul\":21310:21312   */\n      0x20\n        /* \"#utility.yul\":21299:21308   */\n      dup3\n        /* \"#utility.yul\":21295:21313   */\n      add\n        /* \"#utility.yul\":21287:21313   */\n      swap1\n      pop\n        /* \"#utility.yul\":21359:21368   */\n      dup2\n        /* \"#utility.yul\":21353:21357   */\n      dup2\n        /* \"#utility.yul\":21349:21369   */\n      sub\n        /* \"#utility.yul\":21345:21346   */\n      0x00\n        /* \"#utility.yul\":21334:21343   */\n      dup4\n        /* \"#utility.yul\":21330:21347   */\n      add\n        /* \"#utility.yul\":21323:21370   */\n      mstore\n        /* \"#utility.yul\":21387:21518   */\n      tag_732\n        /* \"#utility.yul\":21513:21517   */\n      dup2\n        /* \"#utility.yul\":21387:21518   */\n      tag_500\n      jump\t// in\n    tag_732:\n        /* \"#utility.yul\":21379:21518   */\n      swap1\n      pop\n        /* \"#utility.yul\":21106:21525   */\n      swap2\n      swap1\n      pop\n      jump\t// out\n        /* \"#utility.yul\":21531:21697   */\n    tag_501:\n        /* \"#utility.yul\":21671:21689   */\n      0x416c72656164792068617320726f6c6500000000000000000000000000000000\n        /* \"#utility.yul\":21667:21668   */\n      0x00\n        /* \"#utility.yul\":21659:21665   */\n      dup3\n        /* \"#utility.yul\":21655:21669   */\n      add\n        /* \"#utility.yul\":21648:21690   */\n      mstore\n        /* \"#utility.yul\":21531:21697   */\n      pop\n      jump\t// out\n        /* \"#utility.yul\":21703:22069   */\n    tag_502:\n        /* \"#utility.yul\":21845:21848   */\n      0x00\n        /* \"#utility.yul\":21866:21933   */\n      tag_735\n        /* \"#utility.yul\":21930:21932   */\n      0x10\n        /* \"#utility.yul\":21925:21928   */\n      dup4\n        /* \"#utility.yul\":21866:21933   */\n      tag_473\n      jump\t// in\n    tag_735:\n        /* \"#utility.yul\":21859:21933   */\n      swap2\n      pop\n        /* \"#utility.yul\":21942:22035   */\n      tag_736\n        /* \"#utility.yul\":22031:22034   */\n      dup3\n        /* \"#utility.yul\":21942:22035   */\n      tag_501\n      jump\t// in\n    tag_736:\n        /* \"#utility.yul\":22060:22062   */\n      0x20\n        /* \"#utility.yul\":22055:22058   */\n      dup3\n        /* \"#utility.yul\":22051:22063   */\n      add\n        /* \"#utility.yul\":22044:22063   */\n      swap1\n      pop\n        /* \"#utility.yul\":21703:22069   */\n      swap2\n      swap1\n      pop\n      jump\t// out\n        /* \"#utility.yul\":22075:22494   */\n    tag_287:\n        /* \"#utility.yul\":22241:22245   */\n      0x00\n        /* \"#utility.yul\":22279:22281   */\n      0x20\n        /* \"#utility.yul\":22268:22277   */\n      dup3\n        /* \"#utility.yul\":22264:22282   */\n      add\n        /* \"#utility.yul\":22256:22282   */\n      swap1\n      pop\n        /* \"#utility.yul\":22328:22337   */\n      dup2\n        /* \"#utility.yul\":22322:22326   */\n      dup2\n        /* \"#utility.yul\":22318:22338   */\n      sub\n        /* \"#utility.yul\":22314:22315   */\n      0x00\n        /* \"#utility.yul\":22303:22312   */\n      dup4\n        /* \"#utility.yul\":22299:22316   */\n      add\n        /* \"#utility.yul\":22292:22339   */\n      mstore\n        /* \"#utility.yul\":22356:22487   */\n      tag_738\n        /* \"#utility.yul\":22482:22486   */\n      dup2\n        /* \"#utility.yul\":22356:22487   */\n      tag_502\n      jump\t// in\n    tag_738:\n        /* \"#utility.yul\":22348:22487   */\n      swap1\n      pop\n        /* \"#utility.yul\":22075:22494   */\n      swap2\n      swap1\n      pop\n      jump\t// out\n        /* \"#utility.yul\":22500:22665   */\n    tag_503:\n        /* \"#utility.yul\":22640:22657   */\n      0x526561736f6e2072657175697265640000000000000000000000000000000000\n        /* \"#utility.yul\":22636:22637   */\n      0x00\n        /* \"#utility.yul\":22628:22634   */\n      dup3\n        /* \"#utility.yul\":22624:22638   */\n      add\n        /* \"#utility.yul\":22617:22658   */\n      mstore\n        /* \"#utility.yul\":22500:22665   */\n      pop\n      jump\t// out\n        /* \"#utility.yul\":22671:23037   */\n    tag_504:\n        /* \"#utility.yul\":22813:22816   */\n      0x00\n        /* \"#utility.yul\":22834:22901   */\n      tag_741\n        /* \"#utility.yul\":22898:22900   */\n      0x0f\n        /* \"#utility.yul\":22893:22896   */\n      dup4\n        /* \"#utility.yul\":22834:22901   */\n      tag_473\n      jump\t// in\n    tag_741:\n        /* \"#utility.yul\":22827:22901   */\n      swap2\n      pop\n        /* \"#utility.yul\":22910:23003   */\n      tag_742\n        /* \"#utility.yul\":22999:23002   */\n      dup3\n        /* \"#utility.yul\":22910:23003   */\n      tag_503\n      jump\t// in\n    tag_742:\n        /* \"#utility.yul\":23028:23030   */\n      0x20\n        /* \"#utility.yul\":23023:23026   */\n      dup3\n        /* \"#utility.yul\":23019:23031   */\n      add\n        /* \"#utility.yul\":23012:23031   */\n      swap1\n      pop\n        /* \"#utility.yul\":22671:23037   */\n      swap2\n      swap1\n      pop\n      jump\t// out\n        /* \"#utility.yul\":23043:23462   */\n    tag_290:\n        /* \"#utility.yul\":23209:23213   */\n      0x00\n        /* \"#utility.yul\":23247:23249   */\n      0x20\n        /* \"#utility.yul\":23236:23245   */\n      dup3\n        /* \"#utility.yul\":23232:23250   */\n      add\n        /* \"#utility.yul\":23224:23250   */\n      swap1\n      pop\n        /* \"#utility.yul\":23296:23305   */\n      dup2\n        /* \"#utility.yul\":23290:23294   */\n      dup2\n        /* \"#utility.yul\":23286:23306   */\n      sub\n        /* \"#utility.yul\":23282:23283   */\n      0x00\n        /* \"#utility.yul\":23271:23280   */\n      dup4\n        /* \"#utility.yul\":23267:23284   */\n      add\n        /* \"#utility.yul\":23260:23307   */\n      mstore\n        /* \"#utility.yul\":23324:23455   */\n      tag_744\n        /* \"#utility.yul\":23450:23454   */\n      dup2\n        /* \"#utility.yul\":23324:23455   */\n      tag_504\n      jump\t// in\n    tag_744:\n        /* \"#utility.yul\":23316:23455   */\n      swap1\n      pop\n        /* \"#utility.yul\":23043:23462   */\n      swap2\n      swap1\n      pop\n      jump\t// out\n        /* \"#utility.yul\":23468:23641   */\n    tag_505:\n        /* \"#utility.yul\":23608:23633   */\n      0x5265717565737420616c72656164792070656e64696e67000000000000000000\n        /* \"#utility.yul\":23604:23605   */\n      0x00\n        /* \"#utility.yul\":23596:23602   */\n      dup3\n        /* \"#utility.yul\":23592:23606   */\n      add\n        /* \"#utility.yul\":23585:23634   */\n      mstore\n        /* \"#utility.yul\":23468:23641   */\n      pop\n      jump\t// out\n        /* \"#utility.yul\":23647:24013   */\n    tag_506:\n        /* \"#utility.yul\":23789:23792   */\n      0x00\n        /* \"#utility.yul\":23810:23877   */\n      tag_747\n        /* \"#utility.yul\":23874:23876   */\n      0x17\n        /* \"#utility.yul\":23869:23872   */\n      dup4\n        /* \"#utility.yul\":23810:23877   */\n      tag_473\n      jump\t// in\n    tag_747:\n        /* \"#utility.yul\":23803:23877   */\n      swap2\n      pop\n        /* \"#utility.yul\":23886:23979   */\n      tag_748\n        /* \"#utility.yul\":23975:23978   */\n      dup3\n        /* \"#utility.yul\":23886:23979   */\n      tag_505\n      jump\t// in\n    tag_748:\n        /* \"#utility.yul\":24004:24006   */\n      0x20\n        /* \"#utility.yul\":23999:24002   */\n      dup3\n        /* \"#utility.yul\":23995:24007   */\n      add\n        /* \"#utility.yul\":23988:24007   */\n      swap1\n      pop\n        /* \"#utility.yul\":23647:24013   */\n      swap2\n      swap1\n      pop\n      jump\t// out\n        /* \"#utility.yul\":24019:24438   */\n    tag_293:\n        /* \"#utility.yul\":24185:24189   */\n      0x00\n        /* \"#utility.yul\":24223:24225   */\n      0x20\n        /* \"#utility.yul\":24212:24221   */\n      dup3\n        /* \"#utility.yul\":24208:24226   */\n      add\n        /* \"#utility.yul\":24200:24226   */\n      swap1\n      pop\n        /* \"#utility.yul\":24272:24281   */\n      dup2\n        /* \"#utility.yul\":24266:24270   */\n      dup2\n        /* \"#utility.yul\":24262:24282   */\n      sub\n        /* \"#utility.yul\":24258:24259   */\n      0x00\n        /* \"#utility.yul\":24247:24256   */\n      dup4\n        /* \"#utility.yul\":24243:24260   */\n      add\n        /* \"#utility.yul\":24236:24283   */\n      mstore\n        /* \"#utility.yul\":24300:24431   */\n      tag_750\n        /* \"#utility.yul\":24426:24430   */\n      dup2\n        /* \"#utility.yul\":24300:24431   */\n      tag_506\n      jump\t// in\n    tag_750:\n        /* \"#utility.yul\":24292:24431   */\n      swap1\n      pop\n        /* \"#utility.yul\":24019:24438   */\n      swap2\n      swap1\n      pop\n      jump\t// out\n        /* \"#utility.yul\":24444:24585   */\n    tag_507:\n        /* \"#utility.yul\":24493:24497   */\n      0x00\n        /* \"#utility.yul\":24516:24519   */\n      dup2\n        /* \"#utility.yul\":24508:24519   */\n      swap1\n      pop\n        /* \"#utility.yul\":24539:24542   */\n      dup2\n        /* \"#utility.yul\":24536:24537   */\n      0x00\n        /* \"#utility.yul\":24529:24543   */\n      mstore\n        /* \"#utility.yul\":24573:24577   */\n      0x20\n        /* \"#utility.yul\":24570:24571   */\n      0x00\n        /* \"#utility.yul\":24560:24578   */\n      keccak256\n        /* \"#utility.yul\":24552:24578   */\n      swap1\n      pop\n        /* \"#utility.yul\":24444:24585   */\n      swap2\n      swap1\n      pop\n      jump\t// out\n        /* \"#utility.yul\":24591:24684   */\n    tag_508:\n        /* \"#utility.yul\":24628:24634   */\n      0x00\n        /* \"#utility.yul\":24675:24677   */\n      0x20\n        /* \"#utility.yul\":24670:24672   */\n      0x1f\n        /* \"#utility.yul\":24663:24668   */\n      dup4\n        /* \"#utility.yul\":24659:24673   */\n      add\n        /* \"#utility.yul\":24655:24678   */\n      div\n        /* \"#utility.yul\":24645:24678   */\n      swap1\n      pop\n        /* \"#utility.yul\":24591:24684   */\n      swap2\n      swap1\n      pop\n      jump\t// out\n        /* \"#utility.yul\":24690:24797   */\n    tag_509:\n        /* \"#utility.yul\":24734:24742   */\n      0x00\n        /* \"#utility.yul\":24784:24789   */\n      dup3\n        /* \"#utility.yul\":24778:24782   */\n      dup3\n        /* \"#utility.yul\":24774:24790   */\n      shl\n        /* \"#utility.yul\":24753:24790   */\n      swap1\n      pop\n        /* \"#utility.yul\":24690:24797   */\n      swap3\n      swap2\n      pop\n      pop\n      jump\t// out\n        /* \"#utility.yul\":24803:25196   */\n    tag_510:\n        /* \"#utility.yul\":24872:24878   */\n      0x00\n        /* \"#utility.yul\":24922:24923   */\n      0x08\n        /* \"#utility.yul\":24910:24920   */\n      dup4\n        /* \"#utility.yul\":24906:24924   */\n      mul\n        /* \"#utility.yul\":24945:25042   */\n      tag_755\n        /* \"#utility.yul\":24975:25041   */\n      0xffffffffffffffffffffffffffffffffffffffffffffffffffffffffffffffff\n        /* \"#utility.yul\":24964:24973   */\n      dup3\n        /* \"#utility.yul\":24945:25042   */\n      tag_509\n      jump\t// in\n    tag_755:\n        /* \"#utility.yul\":25063:25102   */\n      tag_756\n        /* \"#utility.yul\":25093:25101   */\n      dup7\n        /* \"#utility.yul\":25082:25091   */\n      dup4\n        /* \"#utility.yul\":25063:25102   */\n      tag_509\n      jump\t// in\n    tag_756:\n        /* \"#utility.yul\":25051:25102   */\n      swap6\n      pop\n        /* \"#utility.yul\":25135:25139   */\n      dup1\n        /* \"#utility.yul\":25131:25140   */\n      not\n        /* \"#utility.yul\":25124:25129   */\n      dup5\n        /* \"#utility.yul\":25120:25141   */\n      and\n        /* \"#utility.yul\":25111:25141   */\n      swap4\n      pop\n        /* \"#utility.yul\":25184:25188   */\n      dup1\n        /* \"#utility.yul\":25174:25182   */\n      dup7\n        /* \"#utility.yul\":25170:25189   */\n      and\n        /* \"#utility.yul\":25163:25168   */\n      dup5\n        /* \"#utility.yul\":25160:25190   */\n      or\n        /* \"#utility.yul\":25150:25190   */\n      swap3\n      pop\n        /* \"#utility.yul\":24879:25196   */\n      pop\n      pop\n        /* \"#utility.yul\":24803:25196   */\n      swap4\n      swap3\n      pop\n      pop\n      pop\n      jump\t// out\n        /* \"#utility.yul\":25202:25262   */\n    tag_511:\n        /* \"#utility.yul\":25230:25233   */\n      0x00\n        /* \"#utility.yul\":25251:25256   */\n      dup2\n        /* \"#utility.yul\":25244:25256   */\n      swap1\n      pop\n        /* \"#utility.yul\":25202:25262   */\n      swap2\n      swap1\n      pop\n      jump\t// out\n        /* \"#utility.yul\":25268:25410   */\n    tag_512:\n        /* \"#utility.yul\":25318:25327   */\n      0x00\n        /* \"#utility.yul\":25351:25404   */\n      tag_759\n        /* \"#utility.yul\":25369:25403   */\n      tag_760\n        /* \"#utility.yul\":25378:25402   */\n      tag_761\n        /* \"#utility.yul\":25396:25401   */\n      dup5\n        /* \"#utility.yul\":25378:25402   */\n      tag_475\n      jump\t// in\n    tag_761:\n        /* \"#utility.yul\":25369:25403   */\n      tag_511\n      jump\t// in\n    tag_760:\n        /* \"#utility.yul\":25351:25404   */\n      tag_475\n      jump\t// in\n    tag_759:\n        /* \"#utility.yul\":25338:25404   */\n      swap1\n      pop\n        /* \"#utility.yul\":25268:25410   */\n      swap2\n      swap1\n      pop\n      jump\t// out\n        /* \"#utility.yul\":25416:25491   */\n    tag_513:\n        /* \"#utility.yul\":25459:25462   */\n      0x00\n        /* \"#utility.yul\":25480:25485   */\n      dup2\n        /* \"#utility.yul\":25473:25485   */\n      swap1\n      pop\n        /* \"#utility.yul\":25416:25491   */\n      swap2\n      swap1\n      pop\n      jump\t// out\n        /* \"#utility.yul\":25497:25766   */\n    tag_514:\n        /* \"#utility.yul\":25607:25646   */\n      tag_764\n        /* \"#utility.yul\":25638:25645   */\n      dup4\n        /* \"#utility.yul\":25607:25646   */\n      tag_512\n      jump\t// in\n    tag_764:\n        /* \"#utility.yul\":25668:25759   */\n      tag_765\n        /* \"#utility.yul\":25717:25758   */\n      tag_766\n        /* \"#utility.yul\":25741:25757   */\n      dup3\n        /* \"#utility.yul\":25717:25758   */\n      tag_513\n      jump\t// in\n    tag_766:\n        /* \"#utility.yul\":25709:25715   */\n      dup5\n        /* \"#utility.yul\":25702:25706   */\n      dup5\n        /* \"#utility.yul\":25696:25707   */\n      sload\n        /* \"#utility.yul\":25668:25759   */\n      tag_510\n      jump\t// in\n    tag_765:\n        /* \"#utility.yul\":25662:25666   */\n      dup3\n        /* \"#utility.yul\":25655:25760   */\n      sstore\n        /* \"#utility.yul\":25573:25766   */\n      pop\n        /* \"#utility.yul\":25497:25766   */\n      pop\n      pop\n      pop\n      jump\t// out\n        /* \"#utility.yul\":25772:25845   */\n    tag_515:\n        /* \"#utility.yul\":25817:25820   */\n      0x00\n        /* \"#utility.yul\":25772:25845   */\n      swap1\n      jump\t// out\n        /* \"#utility.yul\":25851:26040   */\n    tag_516:\n        /* \"#utility.yul\":25928:25960   */\n      tag_769\n      tag_515\n      jump\t// in\n    tag_769:\n        /* \"#utility.yul\":25969:26034   */\n      tag_770\n        /* \"#utility.yul\":26027:26033   */\n      dup2\n        /* \"#utility.yul\":26019:26025   */\n      dup5\n        /* \"#utility.yul\":26013:26017   */\n      dup5\n        /* \"#utility.yul\":25969:26034   */\n      tag_514\n      jump\t// in\n    tag_770:\n        /* \"#utility.yul\":25904:26040   */\n      pop\n        /* \"#utility.yul\":25851:26040   */\n      pop\n      pop\n      jump\t// out\n        /* \"#utility.yul\":26046:26232   */\n    tag_517:\n        /* \"#utility.yul\":26106:26226   */\n    tag_772:\n        /* \"#utility.yul\":26123:26126   */\n      dup2\n        /* \"#utility.yul\":26116:26121   */\n      dup2\n        /* \"#utility.yul\":26113:26127   */\n      lt\n        /* \"#utility.yul\":26106:26226   */\n      iszero\n      tag_774\n      jumpi\n        /* \"#utility.yul\":26177:26216   */\n      tag_775\n        /* \"#utility.yul\":26214:26215   */\n      0x00\n        /* \"#utility.yul\":26207:26212   */\n      dup3\n        /* \"#utility.yul\":26177:26216   */\n      tag_516\n      jump\t// in\n    tag_775:\n        /* \"#utility.yul\":26150:26151   */\n      0x01\n        /* \"#utility.yul\":26143:26148   */\n      dup2\n        /* \"#utility.yul\":26139:26152   */\n      add\n        /* \"#utility.yul\":26130:26152   */\n      swap1\n      pop\n        /* \"#utility.yul\":26106:26226   */\n      jump(tag_772)\n    tag_774:\n        /* \"#utility.yul\":26046:26232   */\n      pop\n      pop\n      jump\t// out\n        /* \"#utility.yul\":26238:26781   */\n    tag_518:\n        /* \"#utility.yul\":26339:26341   */\n      0x1f\n        /* \"#utility.yul\":26334:26337   */\n      dup3\n        /* \"#utility.yul\":26331:26342   */\n      gt\n        /* \"#utility.yul\":26328:26774   */\n      iszero\n      tag_777\n      jumpi\n        /* \"#utility.yul\":26373:26411   */\n      tag_778\n        /* \"#utility.yul\":26405:26410   */\n      dup2\n        /* \"#utility.yul\":26373:26411   */\n      tag_507\n      jump\t// in\n    tag_778:\n        /* \"#utility.yul\":26457:26486   */\n      tag_779\n        /* \"#utility.yul\":26475:26485   */\n      dup5\n        /* \"#utility.yul\":26457:26486   */\n      tag_508\n      jump\t// in\n    tag_779:\n        /* \"#utility.yul\":26447:26455   */\n      dup2\n        /* \"#utility.yul\":26443:26487   */\n      add\n        /* \"#utility.yul\":26640:26642   */\n      0x20\n        /* \"#utility.yul\":26628:26638   */\n      dup6\n        /* \"#utility.yul\":26625:26643   */\n      lt\n        /* \"#utility.yul\":26622:26671   */\n      iszero\n      tag_780\n      jumpi\n        /* \"#utility.yul\":26661:26669   */\n      dup2\n        /* \"#utility.yul\":26646:26669   */\n      swap1\n      pop\n        /* \"#utility.yul\":26622:26671   */\n    tag_780:\n        /* \"#utility.yul\":26684:26764   */\n      tag_781\n        /* \"#utility.yul\":26740:26762   */\n      tag_782\n        /* \"#utility.yul\":26758:26761   */\n      dup6\n        /* \"#utility.yul\":26740:26762   */\n      tag_508\n      jump\t// in\n    tag_782:\n        /* \"#utility.yul\":26730:26738   */\n      dup4\n        /* \"#utility.yul\":26726:26763   */\n      add\n        /* \"#utility.yul\":26713:26724   */\n      dup3\n        /* \"#utility.yul\":26684:26764   */\n      tag_517\n      jump\t// in\n    tag_781:\n        /* \"#utility.yul\":26343:26774   */\n      pop\n      pop\n        /* \"#utility.yul\":26328:26774   */\n    tag_777:\n        /* \"#utility.yul\":26238:26781   */\n      pop\n      pop\n      pop\n      jump\t// out\n        /* \"#utility.yul\":26787:26904   */\n    tag_519:\n        /* \"#utility.yul\":26841:26849   */\n      0x00\n        /* \"#utility.yul\":26891:26896   */\n      dup3\n        /* \"#utility.yul\":26885:26889   */\n      dup3\n        /* \"#utility.yul\":26881:26897   */\n      shr\n        /* \"#utility.yul\":26860:26897   */\n      swap1\n      pop\n        /* \"#utility.yul\":26787:26904   */\n      swap3\n      swap2\n      pop\n      pop\n      jump\t// out\n        /* \"#utility.yul\":26910:27079   */\n    tag_520:\n        /* \"#utility.yul\":26954:26960   */\n      0x00\n        /* \"#utility.yul\":26987:27038   */\n      tag_785\n        /* \"#utility.yul\":27035:27036   */\n      0x00\n        /* \"#utility.yul\":27031:27037   */\n      not\n        /* \"#utility.yul\":27023:27028   */\n      dup5\n        /* \"#utility.yul\":27020:27021   */\n      0x08\n        /* \"#utility.yul\":27016:27029   */\n      mul\n        /* \"#utility.yul\":26987:27038   */\n      tag_519\n      jump\t// in\n    tag_785:\n        /* \"#utility.yul\":26983:27039   */\n      not\n        /* \"#utility.yul\":27068:27072   */\n      dup1\n        /* \"#utility.yul\":27062:27066   */\n      dup4\n        /* \"#utility.yul\":27058:27073   */\n      and\n        /* \"#utility.yul\":27048:27073   */\n      swap2\n      pop\n        /* \"#utility.yul\":26961:27079   */\n      pop\n        /* \"#utility.yul\":26910:27079   */\n      swap3\n      swap2\n      pop\n      pop\n      jump\t// out\n        /* \"#utility.yul\":27084:27379   */\n    tag_521:\n        /* \"#utility.yul\":27160:27164   */\n      0x00\n        /* \"#utility.yul\":27306:27335   */\n      tag_787\n        /* \"#utility.yul\":27331:27334   */\n      dup4\n        /* \"#utility.yul\":27325:27329   */\n      dup4\n        /* \"#utility.yul\":27306:27335   */\n      tag_520\n      jump\t// in\n    tag_787:\n        /* \"#utility.yul\":27298:27335   */\n      swap2\n      pop\n        /* \"#utility.yul\":27368:27371   */\n      dup3\n        /* \"#utility.yul\":27365:27366   */\n      0x02\n        /* \"#utility.yul\":27361:27372   */\n      mul\n        /* \"#utility.yul\":27355:27359   */\n      dup3\n        /* \"#utility.yul\":27352:27373   */\n      or\n        /* \"#utility.yul\":27344:27373   */\n      swap1\n      pop\n        /* \"#utility.yul\":27084:27379   */\n      swap3\n      swap2\n      pop\n      pop\n      jump\t// out\n        /* \"#utility.yul\":27384:28779   */\n    tag_295:\n        /* \"#utility.yul\":27501:27538   */\n      tag_789\n        /* \"#utility.yul\":27534:27537   */\n      dup3\n        /* \"#utility.yul\":27501:27538   */\n      tag_462\n      jump\t// in\n    tag_789:\n        /* \"#utility.yul\":27603:27621   */\n      0xffffffffffffffff\n        /* \"#utility.yul\":27595:27601   */\n      dup2\n        /* \"#utility.yul\":27592:27622   */\n      gt\n        /* \"#utility.yul\":27589:27645   */\n      iszero\n      tag_790\n      jumpi\n        /* \"#utility.yul\":27625:27643   */\n      tag_791\n      tag_480\n      jump\t// in\n    tag_791:\n        /* \"#utility.yul\":27589:27645   */\n    tag_790:\n        /* \"#utility.yul\":27669:27707   */\n      tag_792\n        /* \"#utility.yul\":27701:27705   */\n      dup3\n        /* \"#utility.yul\":27695:27706   */\n      sload\n        /* \"#utility.yul\":27669:27707   */\n      tag_156\n      jump\t// in\n    tag_792:\n        /* \"#utility.yul\":27754:27821   */\n      tag_793\n        /* \"#utility.yul\":27814:27820   */\n      dup3\n        /* \"#utility.yul\":27806:27812   */\n      dup3\n        /* \"#utility.yul\":27800:27804   */\n      dup6\n        /* \"#utility.yul\":27754:27821   */\n      tag_518\n      jump\t// in\n    tag_793:\n        /* \"#utility.yul\":27848:27849   */\n      0x00\n        /* \"#utility.yul\":27872:27876   */\n      0x20\n        /* \"#utility.yul\":27859:27876   */\n      swap1\n      pop\n        /* \"#utility.yul\":27904:27906   */\n      0x1f\n        /* \"#utility.yul\":27896:27902   */\n      dup4\n        /* \"#utility.yul\":27893:27907   */\n      gt\n        /* \"#utility.yul\":27921:27922   */\n      0x01\n        /* \"#utility.yul\":27916:28534   */\n      dup2\n      eq\n      tag_795\n      jumpi\n        /* \"#utility.yul\":28578:28579   */\n      0x00\n        /* \"#utility.yul\":28595:28601   */\n      dup5\n        /* \"#utility.yul\":28592:28669   */\n      iszero\n      tag_796\n      jumpi\n        /* \"#utility.yul\":28644:28653   */\n      dup3\n        /* \"#utility.yul\":28639:28642   */\n      dup8\n        /* \"#utility.yul\":28635:28654   */\n      add\n        /* \"#utility.yul\":28629:28655   */\n      mload\n        /* \"#utility.yul\":28620:28655   */\n      swap1\n      pop\n        /* \"#utility.yul\":28592:28669   */\n    tag_796:\n        /* \"#utility.yul\":28695:28762   */\n      tag_797\n        /* \"#utility.yul\":28755:28761   */\n      dup6\n        /* \"#utility.yul\":28748:28753   */\n      dup3\n        /* \"#utility.yul\":28695:28762   */\n      tag_521\n      jump\t// in\n    tag_797:\n        /* \"#utility.yul\":28689:28693   */\n      dup7\n        /* \"#utility.yul\":28682:28763   */\n      sstore\n        /* \"#utility.yul\":28551:28773   */\n      pop\n        /* \"#utility.yul\":27886:28773   */\n      jump(tag_794)\n        /* \"#utility.yul\":27916:28534   */\n    tag_795:\n        /* \"#utility.yul\":27968:27972   */\n      0x1f\n        /* \"#utility.yul\":27964:27973   */\n      not\n        /* \"#utility.yul\":27956:27962   */\n      dup5\n        /* \"#utility.yul\":27952:27974   */\n      and\n        /* \"#utility.yul\":28002:28039   */\n      tag_798\n        /* \"#utility.yul\":28034:28038   */\n      dup7\n        /* \"#utility.yul\":28002:28039   */\n      tag_507\n      jump\t// in\n    tag_798:\n        /* \"#utility.yul\":28061:28062   */\n      0x00\n        /* \"#utility.yul\":28075:28283   */\n    tag_799:\n        /* \"#utility.yul\":28089:28096   */\n      dup3\n        /* \"#utility.yul\":28086:28087   */\n      dup2\n        /* \"#utility.yul\":28083:28097   */\n      lt\n        /* \"#utility.yul\":28075:28283   */\n      iszero\n      tag_801\n      jumpi\n        /* \"#utility.yul\":28168:28177   */\n      dup5\n        /* \"#utility.yul\":28163:28166   */\n      dup10\n        /* \"#utility.yul\":28159:28178   */\n      add\n        /* \"#utility.yul\":28153:28179   */\n      mload\n        /* \"#utility.yul\":28145:28151   */\n      dup3\n        /* \"#utility.yul\":28138:28180   */\n      sstore\n        /* \"#utility.yul\":28219:28220   */\n      0x01\n        /* \"#utility.yul\":28211:28217   */\n      dup3\n        /* \"#utility.yul\":28207:28221   */\n      add\n        /* \"#utility.yul\":28197:28221   */\n      swap2\n      pop\n        /* \"#utility.yul\":28266:28268   */\n      0x20\n        /* \"#utility.yul\":28255:28264   */\n      dup6\n        /* \"#utility.yul\":28251:28269   */\n      add\n        /* \"#utility.yul\":28238:28269   */\n      swap5\n      pop\n        /* \"#utility.yul\":28112:28116   */\n      0x20\n        /* \"#utility.yul\":28109:28110   */\n      dup2\n        /* \"#utility.yul\":28105:28117   */\n      add\n        /* \"#utility.yul\":28100:28117   */\n      swap1\n      pop\n        /* \"#utility.yul\":28075:28283   */\n      jump(tag_799)\n    tag_801:\n        /* \"#utility.yul\":28311:28317   */\n      dup7\n        /* \"#utility.yul\":28302:28309   */\n      dup4\n        /* \"#utility.yul\":28299:28318   */\n      lt\n        /* \"#utility.yul\":28296:28475   */\n      iszero\n      tag_802\n      jumpi\n        /* \"#utility.yul\":28369:28378   */\n      dup5\n        /* \"#utility.yul\":28364:28367   */\n      dup10\n        /* \"#utility.yul\":28360:28379   */\n      add\n        /* \"#utility.yul\":28354:28380   */\n      mload\n        /* \"#utility.yul\":28412:28460   */\n      tag_803\n        /* \"#utility.yul\":28454:28458   */\n      0x1f\n        /* \"#utility.yul\":28446:28452   */\n      dup10\n        /* \"#utility.yul\":28442:28459   */\n      and\n        /* \"#utility.yul\":28431:28440   */\n      dup3\n        /* \"#utility.yul\":28412:28460   */\n      tag_520\n      jump\t// in\n    tag_803:\n        /* \"#utility.yul\":28404:28410   */\n      dup4\n        /* \"#utility.yul\":28397:28461   */\n      sstore\n        /* \"#utility.yul\":28319:28475   */\n      pop\n        /* \"#utility.yul\":28296:28475   */\n    tag_802:\n        /* \"#utility.yul\":28521:28522   */\n      0x01\n        /* \"#utility.yul\":28517:28518   */\n      0x02\n        /* \"#utility.yul\":28509:28515   */\n      dup9\n        /* \"#utility.yul\":28505:28519   */\n      mul\n        /* \"#utility.yul\":28501:28523   */\n      add\n        /* \"#utility.yul\":28495:28499   */\n      dup9\n        /* \"#utility.yul\":28488:28524   */\n      sstore\n        /* \"#utility.yul\":27923:28534   */\n      pop\n      pop\n      pop\n        /* \"#utility.yul\":27886:28773   */\n    tag_794:\n      pop\n        /* \"#utility.yul\":27476:28779   */\n      pop\n      pop\n      pop\n        /* \"#utility.yul\":27384:28779   */\n      pop\n      pop\n      jump\t// out\n        /* \"#utility.yul\":28785:29098   */\n    tag_299:\n        /* \"#utility.yul\":28898:28902   */\n      0x00\n        /* \"#utility.yul\":28936:28938   */\n      0x20\n        /* \"#utility.yul\":28925:28934   */\n      dup3\n        /* \"#utility.yul\":28921:28939   */\n      add\n        /* \"#utility.yul\":28913:28939   */\n      swap1\n      pop\n        /* \"#utility.yul\":28985:28994   */\n      dup2\n        /* \"#utility.yul\":28979:28983   */\n      dup2\n        /* \"#utility.yul\":28975:28995   */\n      sub\n        /* \"#utility.yul\":28971:28972   */\n      0x00\n        /* \"#utility.yul\":28960:28969   */\n      dup4\n        /* \"#utility.yul\":28956:28973   */\n      add\n        /* \"#utility.yul\":28949:28996   */\n      mstore\n        /* \"#utility.yul\":29013:29091   */\n      tag_805\n        /* \"#utility.yul\":29086:29090   */\n      dup2\n        /* \"#utility.yul\":29077:29083   */\n      dup5\n        /* \"#utility.yul\":29013:29091   */\n      tag_474\n      jump\t// in\n    tag_805:\n        /* \"#utility.yul\":29005:29091   */\n      swap1\n      pop\n        /* \"#utility.yul\":28785:29098   */\n      swap3\n      swap2\n      pop\n      pop\n      jump\t// out\n        /* \"#utility.yul\":29104:29273   */\n    tag_522:\n        /* \"#utility.yul\":29244:29265   */\n      0x4669727374206e616d6520726571756972656400000000000000000000000000\n        /* \"#utility.yul\":29240:29241   */\n      0x00\n        /* \"#utility.yul\":29232:29238   */\n      dup3\n        /* \"#utility.yul\":29228:29242   */\n      add\n        /* \"#utility.yul\":29221:29266   */\n      mstore\n        /* \"#utility.yul\":29104:29273   */\n      pop\n      jump\t// out\n        /* \"#utility.yul\":29279:29645   */\n    tag_523:\n        /* \"#utility.yul\":29421:29424   */\n      0x00\n        /* \"#utility.yul\":29442:29509   */\n      tag_808\n        /* \"#utility.yul\":29506:29508   */\n      0x13\n        /* \"#utility.yul\":29501:29504   */\n      dup4\n        /* \"#utility.yul\":29442:29509   */\n      tag_473\n      jump\t// in\n    tag_808:\n        /* \"#utility.yul\":29435:29509   */\n      swap2\n      pop\n        /* \"#utility.yul\":29518:29611   */\n      tag_809\n        /* \"#utility.yul\":29607:29610   */\n      dup3\n        /* \"#utility.yul\":29518:29611   */\n      tag_522\n      jump\t// in\n    tag_809:\n        /* \"#utility.yul\":29636:29638   */\n      0x20\n        /* \"#utility.yul\":29631:29634   */\n      dup3\n        /* \"#utility.yul\":29627:29639   */\n      add\n        /* \"#utility.yul\":29620:29639   */\n      swap1\n      pop\n        /* \"#utility.yul\":29279:29645   */\n      swap2\n      swap1\n      pop\n      jump\t// out\n        /* \"#utility.yul\":29651:30070   */\n    tag_305:\n        /* \"#utility.yul\":29817:29821   */\n      0x00\n        /* \"#utility.yul\":29855:29857   */\n      0x20\n        /* \"#utility.yul\":29844:29853   */\n      dup3\n        /* \"#utility.yul\":29840:29858   */\n      add\n        /* \"#utility.yul\":29832:29858   */\n      swap1\n      pop\n        /* \"#utility.yul\":29904:29913   */\n      dup2\n        /* \"#utility.yul\":29898:29902   */\n      dup2\n        /* \"#utility.yul\":29894:29914   */\n      sub\n        /* \"#utility.yul\":29890:29891   */\n      0x00\n        /* \"#utility.yul\":29879:29888   */\n      dup4\n        /* \"#utility.yul\":29875:29892   */\n      add\n        /* \"#utility.yul\":29868:29915   */\n      mstore\n        /* \"#utility.yul\":29932:30063   */\n      tag_811\n        /* \"#utility.yul\":30058:30062   */\n      dup2\n        /* \"#utility.yul\":29932:30063   */\n      tag_523\n      jump\t// in\n    tag_811:\n        /* \"#utility.yul\":29924:30063   */\n      swap1\n      pop\n        /* \"#utility.yul\":29651:30070   */\n      swap2\n      swap1\n      pop\n      jump\t// out\n        /* \"#utility.yul\":30076:30244   */\n    tag_524:\n        /* \"#utility.yul\":30216:30236   */\n      0x4c617374206e616d652072657175697265640000000000000000000000000000\n        /* \"#utility.yul\":30212:30213   */\n      0x00\n        /* \"#utility.yul\":30204:30210   */\n      dup3\n        /* \"#utility.yul\":30200:30214   */\n      add\n        /* \"#utility.yul\":30193:30237   */\n      mstore\n        /* \"#utility.yul\":30076:30244   */\n      pop\n      jump\t// out\n        /* \"#utility.yul\":30250:30616   */\n    tag_525:\n        /* \"#utility.yul\":30392:30395   */\n      0x00\n        /* \"#utility.yul\":30413:30480   */\n      tag_814\n        /* \"#utility.yul\":30477:30479   */\n      0x12\n        /* \"#utility.yul\":30472:30475   */\n      dup4\n        /* \"#utility.yul\":30413:30480   */\n      tag_473\n      jump\t// in\n    tag_814:\n        /* \"#utility.yul\":30406:30480   */\n      swap2\n      pop\n        /* \"#utility.yul\":30489:30582   */\n      tag_815\n        /* \"#utility.yul\":30578:30581   */\n      dup3\n        /* \"#utility.yul\":30489:30582   */\n      tag_524\n      jump\t// in\n    tag_815:\n        /* \"#utility.yul\":30607:30609   */\n      0x20\n        /* \"#utility.yul\":30602:30605   */\n      dup3\n        /* \"#utility.yul\":30598:30610   */\n      add\n        /* \"#utility.yul\":30591:30610   */\n      swap1\n      pop\n        /* \"#utility.yul\":30250:30616   */\n      swap2\n      swap1\n      pop\n      jump\t// out\n        /* \"#utility.yul\":30622:31041   */\n    tag_308:\n        /* \"#utility.yul\":30788:30792   */\n      0x00\n        /* \"#utility.yul\":30826:30828   */\n      0x20\n        /* \"#utility.yul\":30815:30824   */\n      dup3\n        /* \"#utility.yul\":30811:30829   */\n      add\n        /* \"#utility.yul\":30803:30829   */\n      swap1\n      pop\n        /* \"#utility.yul\":30875:30884   */\n      dup2\n        /* \"#utility.yul\":30869:30873   */\n      dup2\n        /* \"#utility.yul\":30865:30885   */\n      sub\n        /* \"#utility.yul\":30861:30862   */\n      0x00\n        /* \"#utility.yul\":30850:30859   */\n      dup4\n        /* \"#utility.yul\":30846:30863   */\n      add\n        /* \"#utility.yul\":30839:30886   */\n      mstore\n        /* \"#utility.yul\":30903:31034   */\n      tag_817\n        /* \"#utility.yul\":31029:31033   */\n      dup2\n        /* \"#utility.yul\":30903:31034   */\n      tag_525\n      jump\t// in\n    tag_817:\n        /* \"#utility.yul\":30895:31034   */\n      swap1\n      pop\n        /* \"#utility.yul\":30622:31041   */\n      swap2\n      swap1\n      pop\n      jump\t// out\n        /* \"#utility.yul\":31047:31211   */\n    tag_526:\n        /* \"#utility.yul\":31187:31203   */\n      0x456d61696c207265717569726564000000000000000000000000000000000000\n        /* \"#utility.yul\":31183:31184   */\n      0x00\n        /* \"#utility.yul\":31175:31181   */\n      dup3\n        /* \"#utility.yul\":31171:31185   */\n      add\n        /* \"#utility.yul\":31164:31204   */\n      mstore\n        /* \"#utility.yul\":31047:31211   */\n      pop\n      jump\t// out\n        /* \"#utility.yul\":31217:31583   */\n    tag_527:\n        /* \"#utility.yul\":31359:31362   */\n      0x00\n        /* \"#utility.yul\":31380:31447   */\n      tag_820\n        /* \"#utility.yul\":31444:31446   */\n      0x0e\n        /* \"#utility.yul\":31439:31442   */\n      dup4\n        /* \"#utility.yul\":31380:31447   */\n      tag_473\n      jump\t// in\n    tag_820:\n        /* \"#utility.yul\":31373:31447   */\n      swap2\n      pop\n        /* \"#utility.yul\":31456:31549   */\n      tag_821\n        /* \"#utility.yul\":31545:31548   */\n      dup3\n        /* \"#utility.yul\":31456:31549   */\n      tag_526\n      jump\t// in\n    tag_821:\n        /* \"#utility.yul\":31574:31576   */\n      0x20\n        /* \"#utility.yul\":31569:31572   */\n      dup3\n        /* \"#utility.yul\":31565:31577   */\n      add\n        /* \"#utility.yul\":31558:31577   */\n      swap1\n      pop\n        /* \"#utility.yul\":31217:31583   */\n      swap2\n      swap1\n      pop\n      jump\t// out\n        /* \"#utility.yul\":31589:32008   */\n    tag_311:\n        /* \"#utility.yul\":31755:31759   */\n      0x00\n        /* \"#utility.yul\":31793:31795   */\n      0x20\n        /* \"#utility.yul\":31782:31791   */\n      dup3\n        /* \"#utility.yul\":31778:31796   */\n      add\n        /* \"#utility.yul\":31770:31796   */\n      swap1\n      pop\n        /* \"#utility.yul\":31842:31851   */\n      dup2\n        /* \"#utility.yul\":31836:31840   */\n      dup2\n        /* \"#utility.yul\":31832:31852   */\n      sub\n        /* \"#utility.yul\":31828:31829   */\n      0x00\n        /* \"#utility.yul\":31817:31826   */\n      dup4\n        /* \"#utility.yul\":31813:31830   */\n      add\n        /* \"#utility.yul\":31806:31853   */\n      mstore\n        /* \"#utility.yul\":31870:32001   */\n      tag_823\n        /* \"#utility.yul\":31996:32000   */\n      dup2\n        /* \"#utility.yul\":31870:32001   */\n      tag_527\n      jump\t// in\n    tag_823:\n        /* \"#utility.yul\":31862:32001   */\n      swap1\n      pop\n        /* \"#utility.yul\":31589:32008   */\n      swap2\n      swap1\n      pop\n      jump\t// out\n        /* \"#utility.yul\":32014:32163   */\n    tag_528:\n        /* \"#utility.yul\":32063:32069   */\n      0x00\n        /* \"#utility.yul\":32097:32102   */\n      dup2\n        /* \"#utility.yul\":32091:32103   */\n      sload\n        /* \"#utility.yul\":32081:32103   */\n      swap1\n      pop\n        /* \"#utility.yul\":32123:32156   */\n      tag_825\n        /* \"#utility.yul\":32149:32155   */\n      dup2\n        /* \"#utility.yul\":32123:32156   */\n      tag_156\n      jump\t// in\n    tag_825:\n        /* \"#utility.yul\":32113:32156   */\n      swap1\n      pop\n        /* \"#utility.yul\":32014:32163   */\n      swap2\n      swap1\n      pop\n      jump\t// out\n        /* \"#utility.yul\":32169:33620   */\n    tag_367:\n        /* \"#utility.yul\":32280:32283   */\n      dup2\n        /* \"#utility.yul\":32274:32278   */\n      dup2\n        /* \"#utility.yul\":32271:32284   */\n      sub\n        /* \"#utility.yul\":32268:32294   */\n      tag_827\n      jumpi\n        /* \"#utility.yul\":32287:32292   */\n      pop\n      pop\n      jump(tag_826)\n        /* \"#utility.yul\":32268:32294   */\n    tag_827:\n        /* \"#utility.yul\":32318:32352   */\n      tag_828\n        /* \"#utility.yul\":32348:32351   */\n      dup3\n        /* \"#utility.yul\":32318:32352   */\n      tag_528\n      jump\t// in\n    tag_828:\n        /* \"#utility.yul\":32417:32435   */\n      0xffffffffffffffff\n        /* \"#utility.yul\":32409:32415   */\n      dup2\n        /* \"#utility.yul\":32406:32436   */\n      gt\n        /* \"#utility.yul\":32403:32459   */\n      iszero\n      tag_829\n      jumpi\n        /* \"#utility.yul\":32439:32457   */\n      tag_830\n      tag_480\n      jump\t// in\n    tag_830:\n        /* \"#utility.yul\":32403:32459   */\n    tag_829:\n        /* \"#utility.yul\":32483:32521   */\n      tag_831\n        /* \"#utility.yul\":32515:32519   */\n      dup3\n        /* \"#utility.yul\":32509:32520   */\n      sload\n        /* \"#utility.yul\":32483:32521   */\n      tag_156\n      jump\t// in\n    tag_831:\n        /* \"#utility.yul\":32568:32635   */\n      tag_832\n        /* \"#utility.yul\":32628:32634   */\n      dup3\n        /* \"#utility.yul\":32620:32626   */\n      dup3\n        /* \"#utility.yul\":32614:32618   */\n      dup6\n        /* \"#utility.yul\":32568:32635   */\n      tag_518\n      jump\t// in\n    tag_832:\n        /* \"#utility.yul\":32662:32663   */\n      0x00\n        /* \"#utility.yul\":32691:32693   */\n      0x1f\n        /* \"#utility.yul\":32683:32689   */\n      dup4\n        /* \"#utility.yul\":32680:32694   */\n      gt\n        /* \"#utility.yul\":32708:32709   */\n      0x01\n        /* \"#utility.yul\":32703:33375   */\n      dup2\n      eq\n      tag_834\n      jumpi\n        /* \"#utility.yul\":33419:33420   */\n      0x00\n        /* \"#utility.yul\":33436:33442   */\n      dup5\n        /* \"#utility.yul\":33433:33510   */\n      iszero\n      tag_835\n      jumpi\n        /* \"#utility.yul\":33485:33494   */\n      dup3\n        /* \"#utility.yul\":33480:33483   */\n      dup8\n        /* \"#utility.yul\":33476:33495   */\n      add\n        /* \"#utility.yul\":33470:33496   */\n      sload\n        /* \"#utility.yul\":33461:33496   */\n      swap1\n      pop\n        /* \"#utility.yul\":33433:33510   */\n    tag_835:\n        /* \"#utility.yul\":33536:33603   */\n      tag_836\n        /* \"#utility.yul\":33596:33602   */\n      dup6\n        /* \"#utility.yul\":33589:33594   */\n      dup3\n        /* \"#utility.yul\":33536:33603   */\n      tag_521\n      jump\t// in\n    tag_836:\n        /* \"#utility.yul\":33530:33534   */\n      dup7\n        /* \"#utility.yul\":33523:33604   */\n      sstore\n        /* \"#utility.yul\":33392:33614   */\n      pop\n        /* \"#utility.yul\":32673:33614   */\n      jump(tag_833)\n        /* \"#utility.yul\":32703:33375   */\n    tag_834:\n        /* \"#utility.yul\":32755:32759   */\n      0x1f\n        /* \"#utility.yul\":32751:32760   */\n      not\n        /* \"#utility.yul\":32743:32749   */\n      dup5\n        /* \"#utility.yul\":32739:32761   */\n      and\n        /* \"#utility.yul\":32781:32817   */\n      tag_837\n        /* \"#utility.yul\":32813:32816   */\n      dup8\n        /* \"#utility.yul\":32781:32817   */\n      tag_507\n      jump\t// in\n    tag_837:\n        /* \"#utility.yul\":32774:32817   */\n      swap7\n      pop\n        /* \"#utility.yul\":32844:32881   */\n      tag_838\n        /* \"#utility.yul\":32876:32880   */\n      dup7\n        /* \"#utility.yul\":32844:32881   */\n      tag_507\n      jump\t// in\n    tag_838:\n        /* \"#utility.yul\":32903:32904   */\n      0x00\n        /* \"#utility.yul\":32917:33124   */\n    tag_839:\n        /* \"#utility.yul\":32931:32938   */\n      dup3\n        /* \"#utility.yul\":32928:32929   */\n      dup2\n        /* \"#utility.yul\":32925:32939   */\n      lt\n        /* \"#utility.yul\":32917:33124   */\n      iszero\n      tag_841\n      jumpi\n        /* \"#utility.yul\":33010:33019   */\n      dup5\n        /* \"#utility.yul\":33005:33008   */\n      dup10\n        /* \"#utility.yul\":33001:33020   */\n      add\n        /* \"#utility.yul\":32995:33021   */\n      sload\n        /* \"#utility.yul\":32987:32993   */\n      dup3\n        /* \"#utility.yul\":32980:33022   */\n      sstore\n        /* \"#utility.yul\":33061:33062   */\n      0x01\n        /* \"#utility.yul\":33053:33059   */\n      dup3\n        /* \"#utility.yul\":33049:33063   */\n      add\n        /* \"#utility.yul\":33039:33063   */\n      swap2\n      pop\n        /* \"#utility.yul\":33108:33109   */\n      0x01\n        /* \"#utility.yul\":33097:33106   */\n      dup6\n        /* \"#utility.yul\":33093:33110   */\n      add\n        /* \"#utility.yul\":33080:33110   */\n      swap5\n      pop\n        /* \"#utility.yul\":32954:32958   */\n      0x20\n        /* \"#utility.yul\":32951:32952   */\n      dup2\n        /* \"#utility.yul\":32947:32959   */\n      add\n        /* \"#utility.yul\":32942:32959   */\n      swap1\n      pop\n        /* \"#utility.yul\":32917:33124   */\n      jump(tag_839)\n    tag_841:\n        /* \"#utility.yul\":33152:33158   */\n      dup7\n        /* \"#utility.yul\":33143:33150   */\n      dup4\n        /* \"#utility.yul\":33140:33159   */\n      lt\n        /* \"#utility.yul\":33137:33316   */\n      iszero\n      tag_842\n      jumpi\n        /* \"#utility.yul\":33210:33219   */\n      dup5\n        /* \"#utility.yul\":33205:33208   */\n      dup10\n        /* \"#utility.yul\":33201:33220   */\n      add\n        /* \"#utility.yul\":33195:33221   */\n      sload\n        /* \"#utility.yul\":33253:33301   */\n      tag_843\n        /* \"#utility.yul\":33295:33299   */\n      0x1f\n        /* \"#utility.yul\":33287:33293   */\n      dup10\n        /* \"#utility.yul\":33283:33300   */\n      and\n        /* \"#utility.yul\":33272:33281   */\n      dup3\n        /* \"#utility.yul\":33253:33301   */\n      tag_520\n      jump\t// in\n    tag_843:\n        /* \"#utility.yul\":33245:33251   */\n      dup4\n        /* \"#utility.yul\":33238:33302   */\n      sstore\n        /* \"#utility.yul\":33160:33316   */\n      pop\n        /* \"#utility.yul\":33137:33316   */\n    tag_842:\n        /* \"#utility.yul\":33362:33363   */\n      0x01\n        /* \"#utility.yul\":33358:33359   */\n      0x02\n        /* \"#utility.yul\":33350:33356   */\n      dup9\n        /* \"#utility.yul\":33346:33360   */\n      mul\n        /* \"#utility.yul\":33342:33364   */\n      add\n        /* \"#utility.yul\":33336:33340   */\n      dup9\n        /* \"#utility.yul\":33329:33365   */\n      sstore\n        /* \"#utility.yul\":32710:33375   */\n      pop\n      pop\n      pop\n        /* \"#utility.yul\":32673:33614   */\n    tag_833:\n      pop\n        /* \"#utility.yul\":32258:33620   */\n      pop\n      pop\n      pop\n        /* \"#utility.yul\":32169:33620   */\n      pop\n      pop\n    tag_826:\n      jump\t// out\n        /* \"#utility.yul\":33626:33792   */\n    tag_529:\n        /* \"#utility.yul\":33766:33784   */\n      0x5061757361626c653a2070617573656400000000000000000000000000000000\n        /* \"#utility.yul\":33762:33763   */\n      0x00\n        /* \"#utility.yul\":33754:33760   */\n      dup3\n        /* \"#utility.yul\":33750:33764   */\n      add\n        /* \"#utility.yul\":33743:33785   */\n      mstore\n        /* \"#utility.yul\":33626:33792   */\n      pop\n      jump\t// out\n        /* \"#utility.yul\":33798:34164   */\n    tag_530:\n        /* \"#utility.yul\":33940:33943   */\n      0x00\n        /* \"#utility.yul\":33961:34028   */\n      tag_846\n        /* \"#utility.yul\":34025:34027   */\n      0x10\n        /* \"#utility.yul\":34020:34023   */\n      dup4\n        /* \"#utility.yul\":33961:34028   */\n      tag_473\n      jump\t// in\n    tag_846:\n        /* \"#utility.yul\":33954:34028   */\n      swap2\n      pop\n        /* \"#utility.yul\":34037:34130   */\n      tag_847\n        /* \"#utility.yul\":34126:34129   */\n      dup3\n        /* \"#utility.yul\":34037:34130   */\n      tag_529\n      jump\t// in\n    tag_847:\n        /* \"#utility.yul\":34155:34157   */\n      0x20\n        /* \"#utility.yul\":34150:34153   */\n      dup3\n        /* \"#utility.yul\":34146:34158   */\n      add\n        /* \"#utility.yul\":34139:34158   */\n      swap1\n      pop\n        /* \"#utility.yul\":33798:34164   */\n      swap2\n      swap1\n      pop\n      jump\t// out\n        /* \"#utility.yul\":34170:34589   */\n    tag_380:\n        /* \"#utility.yul\":34336:34340   */\n      0x00\n        /* \"#utility.yul\":34374:34376   */\n      0x20\n        /* \"#utility.yul\":34363:34372   */\n      dup3\n        /* \"#utility.yul\":34359:34377   */\n      add\n        /* \"#utility.yul\":34351:34377   */\n      swap1\n      pop\n        /* \"#utility.yul\":34423:34432   */\n      dup2\n        /* \"#utility.yul\":34417:34421   */\n      dup2\n        /* \"#utility.yul\":34413:34433   */\n      sub\n        /* \"#utility.yul\":34409:34410   */\n      0x00\n        /* \"#utility.yul\":34398:34407   */\n      dup4\n        /* \"#utility.yul\":34394:34411   */\n      add\n        /* \"#utility.yul\":34387:34434   */\n      mstore\n        /* \"#utility.yul\":34451:34582   */\n      tag_849\n        /* \"#utility.yul\":34577:34581   */\n      dup2\n        /* \"#utility.yul\":34451:34582   */\n      tag_530\n      jump\t// in\n    tag_849:\n        /* \"#utility.yul\":34443:34582   */\n      swap1\n      pop\n        /* \"#utility.yul\":34170:34589   */\n      swap2\n      swap1\n      pop\n      jump\t// out\n        /* \"#utility.yul\":34595:34775   */\n    tag_397:\n        /* \"#utility.yul\":34643:34720   */\n      0x4e487b7100000000000000000000000000000000000000000000000000000000\n        /* \"#utility.yul\":34640:34641   */\n      0x00\n        /* \"#utility.yul\":34633:34721   */\n      mstore\n        /* \"#utility.yul\":34740:34744   */\n      0x32\n        /* \"#utility.yul\":34737:34738   */\n      0x04\n        /* \"#utility.yul\":34730:34745   */\n      mstore\n        /* \"#utility.yul\":34764:34768   */\n      0x24\n        /* \"#utility.yul\":34761:34762   */\n      0x00\n        /* \"#utility.yul\":34754:34769   */\n      revert\n        /* \"#utility.yul\":34781:34961   */\n    tag_531:\n        /* \"#utility.yul\":34829:34906   */\n      0x4e487b7100000000000000000000000000000000000000000000000000000000\n        /* \"#utility.yul\":34826:34827   */\n      0x00\n        /* \"#utility.yul\":34819:34907   */\n      mstore\n        /* \"#utility.yul\":34926:34930   */\n      0x11\n        /* \"#utility.yul\":34923:34924   */\n      0x04\n        /* \"#utility.yul\":34916:34931   */\n      mstore\n        /* \"#utility.yul\":34950:34954   */\n      0x24\n        /* \"#utility.yul\":34947:34948   */\n      0x00\n        /* \"#utility.yul\":34940:34955   */\n      revert\n        /* \"#utility.yul\":34967:35161   */\n    tag_405:\n        /* \"#utility.yul\":35007:35011   */\n      0x00\n        /* \"#utility.yul\":35027:35047   */\n      tag_853\n        /* \"#utility.yul\":35045:35046   */\n      dup3\n        /* \"#utility.yul\":35027:35047   */\n      tag_475\n      jump\t// in\n    tag_853:\n        /* \"#utility.yul\":35022:35047   */\n      swap2\n      pop\n        /* \"#utility.yul\":35061:35081   */\n      tag_854\n        /* \"#utility.yul\":35079:35080   */\n      dup4\n        /* \"#utility.yul\":35061:35081   */\n      tag_475\n      jump\t// in\n    tag_854:\n        /* \"#utility.yul\":35056:35081   */\n      swap3\n      pop\n        /* \"#utility.yul\":35105:35106   */\n      dup3\n        /* \"#utility.yul\":35102:35103   */\n      dup3\n        /* \"#utility.yul\":35098:35107   */\n      sub\n        /* \"#utility.yul\":35090:35107   */\n      swap1\n      pop\n        /* \"#utility.yul\":35129:35130   */\n      dup2\n        /* \"#utility.yul\":35123:35127   */\n      dup2\n        /* \"#utility.yul\":35120:35131   */\n      gt\n        /* \"#utility.yul\":35117:35154   */\n      iszero\n      tag_855\n      jumpi\n        /* \"#utility.yul\":35134:35152   */\n      tag_856\n      tag_531\n      jump\t// in\n    tag_856:\n        /* \"#utility.yul\":35117:35154   */\n    tag_855:\n        /* \"#utility.yul\":34967:35161   */\n      swap3\n      swap2\n      pop\n      pop\n      jump\t// out\n        /* \"#utility.yul\":35167:35347   */\n    tag_415:\n        /* \"#utility.yul\":35215:35292   */\n      0x4e487b7100000000000000000000000000000000000000000000000000000000\n        /* \"#utility.yul\":35212:35213   */\n      0x00\n        /* \"#utility.yul\":35205:35293   */\n      mstore\n        /* \"#utility.yul\":35312:35316   */\n      0x31\n        /* \"#utility.yul\":35309:35310   */\n      0x04\n        /* \"#utility.yul\":35302:35317   */\n      mstore\n        /* \"#utility.yul\":35336:35340   */\n      0x24\n        /* \"#utility.yul\":35333:35334   */\n      0x00\n        /* \"#utility.yul\":35326:35341   */\n      revert\n        /* \"#utility.yul\":35353:35575   */\n    tag_426:\n        /* \"#utility.yul\":35446:35450   */\n      0x00\n        /* \"#utility.yul\":35484:35486   */\n      0x20\n        /* \"#utility.yul\":35473:35482   */\n      dup3\n        /* \"#utility.yul\":35469:35487   */\n      add\n        /* \"#utility.yul\":35461:35487   */\n      swap1\n      pop\n        /* \"#utility.yul\":35497:35568   */\n      tag_859\n        /* \"#utility.yul\":35565:35566   */\n      0x00\n        /* \"#utility.yul\":35554:35563   */\n      dup4\n        /* \"#utility.yul\":35550:35567   */\n      add\n        /* \"#utility.yul\":35541:35547   */\n      dup5\n        /* \"#utility.yul\":35497:35568   */\n      tag_461\n      jump\t// in\n    tag_859:\n        /* \"#utility.yul\":35353:35575   */\n      swap3\n      swap2\n      pop\n      pop\n      jump\t// out\n        /* \"#utility.yul\":35581:35913   */\n    tag_436:\n        /* \"#utility.yul\":35702:35706   */\n      0x00\n        /* \"#utility.yul\":35740:35742   */\n      0x40\n        /* \"#utility.yul\":35729:35738   */\n      dup3\n        /* \"#utility.yul\":35725:35743   */\n      add\n        /* \"#utility.yul\":35717:35743   */\n      swap1\n      pop\n        /* \"#utility.yul\":35753:35824   */\n      tag_861\n        /* \"#utility.yul\":35821:35822   */\n      0x00\n        /* \"#utility.yul\":35810:35819   */\n      dup4\n        /* \"#utility.yul\":35806:35823   */\n      add\n        /* \"#utility.yul\":35797:35803   */\n      dup6\n        /* \"#utility.yul\":35753:35824   */\n      tag_461\n      jump\t// in\n    tag_861:\n        /* \"#utility.yul\":35834:35906   */\n      tag_862\n        /* \"#utility.yul\":35902:35904   */\n      0x20\n        /* \"#utility.yul\":35891:35900   */\n      dup4\n        /* \"#utility.yul\":35887:35905   */\n      add\n        /* \"#utility.yul\":35878:35884   */\n      dup5\n        /* \"#utility.yul\":35834:35906   */\n      tag_472\n      jump\t// in\n    tag_862:\n        /* \"#utility.yul\":35581:35913   */\n      swap4\n      swap3\n      pop\n      pop\n      pop\n      jump\t// out\n        /* \"#utility.yul\":35919:36089   */\n    tag_532:\n        /* \"#utility.yul\":36059:36081   */\n      0x5061757361626c653a206e6f7420706175736564000000000000000000000000\n        /* \"#utility.yul\":36055:36056   */\n      0x00\n        /* \"#utility.yul\":36047:36053   */\n      dup3\n        /* \"#utility.yul\":36043:36057   */\n      add\n        /* \"#utility.yul\":36036:36082   */\n      mstore\n        /* \"#utility.yul\":35919:36089   */\n      pop\n      jump\t// out\n        /* \"#utility.yul\":36095:36461   */\n    tag_533:\n        /* \"#utility.yul\":36237:36240   */\n      0x00\n        /* \"#utility.yul\":36258:36325   */\n      tag_865\n        /* \"#utility.yul\":36322:36324   */\n      0x14\n        /* \"#utility.yul\":36317:36320   */\n      dup4\n        /* \"#utility.yul\":36258:36325   */\n      tag_473\n      jump\t// in\n    tag_865:\n        /* \"#utility.yul\":36251:36325   */\n      swap2\n      pop\n        /* \"#utility.yul\":36334:36427   */\n      tag_866\n        /* \"#utility.yul\":36423:36426   */\n      dup3\n        /* \"#utility.yul\":36334:36427   */\n      tag_532\n      jump\t// in\n    tag_866:\n        /* \"#utility.yul\":36452:36454   */\n      0x20\n        /* \"#utility.yul\":36447:36450   */\n      dup3\n        /* \"#utility.yul\":36443:36455   */\n      add\n        /* \"#utility.yul\":36436:36455   */\n      swap1\n      pop\n        /* \"#utility.yul\":36095:36461   */\n      swap2\n      swap1\n      pop\n      jump\t// out\n        /* \"#utility.yul\":36467:36886   */\n    tag_441:\n        /* \"#utility.yul\":36633:36637   */\n      0x00\n        /* \"#utility.yul\":36671:36673   */\n      0x20\n        /* \"#utility.yul\":36660:36669   */\n      dup3\n        /* \"#utility.yul\":36656:36674   */\n      add\n        /* \"#utility.yul\":36648:36674   */\n      swap1\n      pop\n        /* \"#utility.yul\":36720:36729   */\n      dup2\n        /* \"#utility.yul\":36714:36718   */\n      dup2\n        /* \"#utility.yul\":36710:36730   */\n      sub\n        /* \"#utility.yul\":36706:36707   */\n      0x00\n        /* \"#utility.yul\":36695:36704   */\n      dup4\n        /* \"#utility.yul\":36691:36708   */\n      add\n        /* \"#utility.yul\":36684:36731   */\n      mstore\n        /* \"#utility.yul\":36748:36879   */\n      tag_868\n        /* \"#utility.yul\":36874:36878   */\n      dup2\n        /* \"#utility.yul\":36748:36879   */\n      tag_533\n      jump\t// in\n    tag_868:\n        /* \"#utility.yul\":36740:36879   */\n      swap1\n      pop\n        /* \"#utility.yul\":36467:36886   */\n      swap2\n      swap1\n      pop\n      jump\t// out\n\n    auxdata: 0xa2646970667358221220063b1be84c8a0356404257a42222a6480403926ffb9c7d33b755da72a54dd7aa64736f6c634300081a0033\n}\n",
				"bytecode": {
					"linkReferences": {},
					"object": "608060405234801561000f575f80fd5b505f60015f6101000a81548160ff02191690831515021790555061003b5f801b3361007260201b60201c565b5061006c7fa49807205ce4d355092ef5a8a18f56e8913cf4a201fbe287825b095693c217753361007260201b60201c565b506101d1565b5f610083838361016760201b60201c565b61015d5760015f808581526020019081526020015f205f015f8473ffffffffffffffffffffffffffffffffffffffff1673ffffffffffffffffffffffffffffffffffffffff1681526020019081526020015f205f6101000a81548160ff0219169083151502179055506100fa6101ca60201b60201c565b73ffffffffffffffffffffffffffffffffffffffff168273ffffffffffffffffffffffffffffffffffffffff16847f2f8788117e7eff1d82e926ec794901d17c78024a50270940304540a733656f0d60405160405180910390a460019050610161565b5f90505b92915050565b5f805f8481526020019081526020015f205f015f8373ffffffffffffffffffffffffffffffffffffffff1673ffffffffffffffffffffffffffffffffffffffff1681526020019081526020015f205f9054906101000a900460ff16905092915050565b5f33905090565b61404b806101de5f395ff3fe608060405234801561000f575f80fd5b50600436106101d8575f3560e01c806375b238fc1161010257806391d14854116100a0578063bd6051211161006f578063bd6051211461056a578063c2d7944414610586578063d547741f146105a4578063fa90ace3146105c0576101d8565b806391d14854146104ca5780639411ca46146104fa57806398e4abb51461052e578063a217fddf1461054c576101d8565b806378988ebd116100dc57806378988ebd146104685780637e75d9561461048657806380a1f712146104a25780638456cb59146104c0576101d8565b806375b238fc14610412578063768b01aa14610430578063784268481461044c576101d8565b806325df448c1161017a5780633c652a9a116101495780633c652a9a146103825780633f4ba83a146103b65780635c975abb146103c05780636386c1c7146103de576101d8565b806325df448c146103105780632f2ff15d1461032c578063303e38401461034857806336568abe14610366576101d8565b80631959a002116101b65780631959a002146102745780631d9486de146102a8578063208dd1ff146102c4578063248a9ca3146102e0576101d8565b806301ffc9a7146101dc578063095c6e021461020c57806318097b6914610240575b5f80fd5b6101f660048036038101906101f19190612ea4565b6105dc565b6040516102039190612ee9565b60405180910390f35b61022660048036038101906102219190612f5c565b610655565b60405161023795949392919061309d565b60405180910390f35b61025a60048036038101906102559190613128565b61096a565b60405161026b9594939291906131bd565b60405180910390f35b61028e60048036038101906102899190612f5c565b610b1a565b60405161029f959493929190613215565b60405180910390f35b6102c260048036038101906102bd9190613128565b610d83565b005b6102de60048036038101906102d99190613128565b610e77565b005b6102fa60048036038101906102f59190613282565b610f6b565b60405161030791906132ad565b60405180910390f35b61032a60048036038101906103259190613128565b610f87565b005b610346600480360381019061034191906132c6565b6111a1565b005b6103506111c3565b60405161035d91906132ad565b60405180910390f35b610380600480360381019061037b91906132c6565b6111e7565b005b61039c60048036038101906103979190613337565b611262565b6040516103ad9594939291906131bd565b60405180910390f35b6103be611361565b005b6103c8611396565b6040516103d59190612ee9565b60405180910390f35b6103f860048036038101906103f39190612f5c565b6113ab565b604051610409959493929190613215565b60405180910390f35b61041a6116bd565b60405161042791906132ad565b60405180910390f35b61044a6004803603810190610445919061348e565b6116e1565b005b610466600480360381019061046191906134e8565b611a6c565b005b610470611e33565b60405161047d91906132ad565b60405180910390f35b6104a0600480360381019061049b9190612f5c565b611e57565b005b6104aa611f9a565b6040516104b79190613708565b60405180910390f35b6104c8612119565b005b6104e460048036038101906104df91906132c6565b61214e565b6040516104f19190612ee9565b60405180910390f35b610514600480360381019061050f9190613128565b6121b1565b6040516105259594939291906131bd565b60405180910390f35b6105366122ac565b60405161054391906132ad565b60405180910390f35b6105546122d0565b60405161056191906132ad565b60405180910390f35b610584600480360381019061057f9190613128565b6122d6565b005b61058e6124a0565b60405161059b91906132ad565b60405180910390f35b6105be60048036038101906105b991906132c6565b6124c4565b005b6105da60048036038101906105d59190612f5c565b6124e6565b005b5f7f7965db0b000000000000000000000000000000000000000000000000000000007bffffffffffffffffffffffffffffffffffffffffffffffffffffffff1916827bffffffffffffffffffffffffffffffffffffffffffffffffffffffff1916148061064e575061064d82612768565b5b9050919050565b6003602052805f5260405f205f91509050805f015f9054906101000a900473ffffffffffffffffffffffffffffffffffffffff1690806001016040518060a00160405290815f820180546106a890613755565b80601f01602080910402602001604051908101604052809291908181526020018280546106d490613755565b801561071f5780601f106106f65761010080835404028352916020019161071f565b820191905f5260205f20905b81548152906001019060200180831161070257829003601f168201915b5050505050815260200160018201805461073890613755565b80601f016020809104026020016040519081016040528092919081815260200182805461076490613755565b80156107af5780601f10610786576101008083540402835291602001916107af565b820191905f5260205f20905b81548152906001019060200180831161079257829003601f168201915b505050505081526020016002820180546107c890613755565b80601f01602080910402602001604051908101604052809291908181526020018280546107f490613755565b801561083f5780601f106108165761010080835404028352916020019161083f565b820191905f5260205f20905b81548152906001019060200180831161082257829003601f168201915b5050505050815260200160038201805461085890613755565b80601f016020809104026020016040519081016040528092919081815260200182805461088490613755565b80156108cf5780601f106108a6576101008083540402835291602001916108cf565b820191905f5260205f20905b8154815290600101906020018083116108b257829003601f168201915b50505050508152602001600482015f9054906101000a900473ffffffffffffffffffffffffffffffffffffffff1673ffffffffffffffffffffffffffffffffffffffff1673ffffffffffffffffffffffffffffffffffffffff168152505090806006015f9054906101000a900460ff16908060060160019054906101000a900460ff16908060060160029054906101000a900460ff16905085565b5f8060605f805f60045f8973ffffffffffffffffffffffffffffffffffffffff1673ffffffffffffffffffffffffffffffffffffffff1681526020019081526020015f205f8881526020019081526020015f206040518060a00160405290815f82015f9054906101000a900473ffffffffffffffffffffffffffffffffffffffff1673ffffffffffffffffffffffffffffffffffffffff1673ffffffffffffffffffffffffffffffffffffffff16815260200160018201548152602001600282018054610a3690613755565b80601f0160208091040260200160405190810160405280929190818152602001828054610a6290613755565b8015610aad5780601f10610a8457610100808354040283529160200191610aad565b820191905f5260205f20905b815481529060010190602001808311610a9057829003601f168201915b50505050508152602001600382015f9054906101000a900460ff161515151581526020016003820160019054906101000a900460ff1615151515815250509050805f0151816020015182604001518360600151846080015195509550955095509550509295509295909350565b6002602052805f5260405f205f91509050805f018054610b3990613755565b80601f0160208091040260200160405190810160405280929190818152602001828054610b6590613755565b8015610bb05780601f10610b8757610100808354040283529160200191610bb0565b820191905f5260205f20905b815481529060010190602001808311610b9357829003601f168201915b505050505090806001018054610bc590613755565b80601f0160208091040260200160405190810160405280929190818152602001828054610bf190613755565b8015610c3c5780601f10610c1357610100808354040283529160200191610c3c565b820191905f5260205f20905b815481529060010190602001808311610c1f57829003601f168201915b505050505090806002018054610c5190613755565b80601f0160208091040260200160405190810160405280929190818152602001828054610c7d90613755565b8015610cc85780601f10610c9f57610100808354040283529160200191610cc8565b820191905f5260205f20905b815481529060010190602001808311610cab57829003601f168201915b505050505090806003018054610cdd90613755565b80601f0160208091040260200160405190810160405280929190818152602001828054610d0990613755565b8015610d545780601f10610d2b57610100808354040283529160200191610d54565b820191905f5260205f20905b815481529060010190602001808311610d3757829003601f168201915b505050505090806004015f9054906101000a900473ffffffffffffffffffffffffffffffffffffffff16905085565b7fa49807205ce4d355092ef5a8a18f56e8913cf4a201fbe287825b095693c21775610dad816127d1565b610db56127e5565b5f73ffffffffffffffffffffffffffffffffffffffff168373ffffffffffffffffffffffffffffffffffffffff1603610e23576040517f08c379a0000000000000000000000000000000000000000000000000000000008152600401610e1a906137cf565b60405180910390fd5b610e2d828461282f565b50818373ffffffffffffffffffffffffffffffffffffffff167f0666448aae9b9c8249fd8213a35a9c10218a0eac2fb39b96ed90c67214c7e76160405160405180910390a3505050565b7fa49807205ce4d355092ef5a8a18f56e8913cf4a201fbe287825b095693c21775610ea1816127d1565b610ea96127e5565b5f73ffffffffffffffffffffffffffffffffffffffff168373ffffffffffffffffffffffffffffffffffffffff1603610f17576040517f08c379a0000000000000000000000000000000000000000000000000000000008152600401610f0e906137cf565b60405180910390fd5b610f218284612918565b50818373ffffffffffffffffffffffffffffffffffffffff167fea83a7caef01824e96446a8c4bc8ff4669edd99e129b53e32c077f85d216808160405160405180910390a3505050565b5f805f8381526020019081526020015f20600101549050919050565b7fa49807205ce4d355092ef5a8a18f56e8913cf4a201fbe287825b095693c21775610fb1816127d1565b610fb96127e5565b5f73ffffffffffffffffffffffffffffffffffffffff168373ffffffffffffffffffffffffffffffffffffffff1603611027576040517f08c379a000000000000000000000000000000000000000000000000000000000815260040161101e906137cf565b60405180910390fd5b5f60045f8573ffffffffffffffffffffffffffffffffffffffff1673ffffffffffffffffffffffffffffffffffffffff1681526020019081526020015f205f8481526020019081526020015f209050806003015f9054906101000a900460ff166110c6576040517f08c379a00000000000000000000000000000000000000000000000000000000081526004016110bd90613837565b60405180910390fd5b5f816003015f6101000a81548160ff02191690831515021790555060018160030160016101000a81548160ff0219169083151502179055506111088484612a01565b611112838561282f565b50828473ffffffffffffffffffffffffffffffffffffffff167f7eb8b9d1e030c150ef76a2962c9e6f78af369eb66f093314f8b59040fc5992da60405160405180910390a3828473ffffffffffffffffffffffffffffffffffffffff167f0666448aae9b9c8249fd8213a35a9c10218a0eac2fb39b96ed90c67214c7e76160405160405180910390a350505050565b6111aa82610f6b565b6111b3816127d1565b6111bd838361282f565b50505050565b7f709f71abb733aa2493d642ec84d615695650e6806fd401c97e1fecbd9c84c1d681565b6111ef612c83565b73ffffffffffffffffffffffffffffffffffffffff168173ffffffffffffffffffffffffffffffffffffffff1614611253576040517f6697b23200000000000000000000000000000000000000000000000000000000815260040160405180910390fd5b61125d8282612918565b505050565b60058181548110611271575f80fd5b905f5260205f2090600402015f91509050805f015f9054906101000a900473ffffffffffffffffffffffffffffffffffffffff16908060010154908060020180546112bb90613755565b80601f01602080910402602001604051908101604052809291908181526020018280546112e790613755565b80156113325780601f1061130957610100808354040283529160200191611332565b820191905f5260205f20905b81548152906001019060200180831161131557829003601f168201915b505050505090806003015f9054906101000a900460ff16908060030160019054906101000a900460ff16905085565b7fa49807205ce4d355092ef5a8a18f56e8913cf4a201fbe287825b095693c2177561138b816127d1565b611393612c8a565b50565b5f60015f9054906101000a900460ff16905090565b6060806060805f8060025f8873ffffffffffffffffffffffffffffffffffffffff1673ffffffffffffffffffffffffffffffffffffffff1681526020019081526020015f206040518060a00160405290815f8201805461140a90613755565b80601f016020809104026020016040519081016040528092919081815260200182805461143690613755565b80156114815780601f1061145857610100808354040283529160200191611481565b820191905f5260205f20905b81548152906001019060200180831161146457829003601f168201915b5050505050815260200160018201805461149a90613755565b80601f01602080910402602001604051908101604052809291908181526020018280546114c690613755565b80156115115780601f106114e857610100808354040283529160200191611511565b820191905f5260205f20905b8154815290600101906020018083116114f457829003601f168201915b5050505050815260200160028201805461152a90613755565b80601f016020809104026020016040519081016040528092919081815260200182805461155690613755565b80156115a15780601f10611578576101008083540402835291602001916115a1565b820191905f5260205f20905b81548152906001019060200180831161158457829003601f168201915b505050505081526020016003820180546115ba90613755565b80601f01602080910402602001604051908101604052809291908181526020018280546115e690613755565b80156116315780601f1061160857610100808354040283529160200191611631565b820191905f5260205f20905b81548152906001019060200180831161161457829003601f168201915b50505050508152602001600482015f9054906101000a900473ffffffffffffffffffffffffffffffffffffffff1673ffffffffffffffffffffffffffffffffffffffff1673ffffffffffffffffffffffffffffffffffffffff16815250509050805f01518160200151826040015183606001518460800151955095509550955095505091939590929450565b7fa49807205ce4d355092ef5a8a18f56e8913cf4a201fbe287825b095693c2177581565b6116e96127e5565b6116f3823361214e565b15611733576040517f08c379a000000000000000000000000000000000000000000000000000000000815260040161172a9061389f565b60405180910390fd5b5f815111611776576040517f08c379a000000000000000000000000000000000000000000000000000000000815260040161176d90613907565b60405180910390fd5b60045f3373ffffffffffffffffffffffffffffffffffffffff1673ffffffffffffffffffffffffffffffffffffffff1681526020019081526020015f205f8381526020019081526020015f206003015f9054906101000a900460ff1615611812576040517f08c379a00000000000000000000000000000000000000000000000000000000081526004016118099061396f565b60405180910390fd5b5f6040518060a001604052803373ffffffffffffffffffffffffffffffffffffffff1681526020018481526020018381526020016001151581526020015f151581525090508060045f3373ffffffffffffffffffffffffffffffffffffffff1673ffffffffffffffffffffffffffffffffffffffff1681526020019081526020015f205f8581526020019081526020015f205f820151815f015f6101000a81548173ffffffffffffffffffffffffffffffffffffffff021916908373ffffffffffffffffffffffffffffffffffffffff1602179055506020820151816001015560408201518160020190816119079190613b2a565b506060820151816003015f6101000a81548160ff02191690831515021790555060808201518160030160016101000a81548160ff021916908315150217905550905050600581908060018154018082558091505060019003905f5260205f2090600402015f909190919091505f820151815f015f6101000a81548173ffffffffffffffffffffffffffffffffffffffff021916908373ffffffffffffffffffffffffffffffffffffffff1602179055506020820151816001015560408201518160020190816119d69190613b2a565b506060820151816003015f6101000a81548160ff02191690831515021790555060808201518160030160016101000a81548160ff0219169083151502179055505050823373ffffffffffffffffffffffffffffffffffffffff167f98f6f2d133c420a141a671ce9479e3956417c7f04bd370de1cd64ce10d385d9484604051611a5f9190613bf9565b60405180910390a3505050565b611a746127e5565b5f845111611ab7576040517f08c379a0000000000000000000000000000000000000000000000000000000008152600401611aae90613c63565b60405180910390fd5b5f835111611afa576040517f08c379a0000000000000000000000000000000000000000000000000000000008152600401611af190613ccb565b60405180910390fd5b5f825111611b3d576040517f08c379a0000000000000000000000000000000000000000000000000000000008152600401611b3490613d33565b60405180910390fd5b5f6040518060a001604052808681526020018581526020018481526020018381526020013373ffffffffffffffffffffffffffffffffffffffff1681525090505f8073ffffffffffffffffffffffffffffffffffffffff1660025f3373ffffffffffffffffffffffffffffffffffffffff1673ffffffffffffffffffffffffffffffffffffffff1681526020019081526020015f206004015f9054906101000a900473ffffffffffffffffffffffffffffffffffffffff1673ffffffffffffffffffffffffffffffffffffffff16141590506040518060a001604052803373ffffffffffffffffffffffffffffffffffffffff16815260200183815260200182151581526020016001151581526020015f151581525060035f3373ffffffffffffffffffffffffffffffffffffffff1673ffffffffffffffffffffffffffffffffffffffff1681526020019081526020015f205f820151815f015f6101000a81548173ffffffffffffffffffffffffffffffffffffffff021916908373ffffffffffffffffffffffffffffffffffffffff1602179055506020820151816001015f820151815f019081611cf09190613b2a565b506020820151816001019081611d069190613b2a565b506040820151816002019081611d1c9190613b2a565b506060820151816003019081611d329190613b2a565b506080820151816004015f6101000a81548173ffffffffffffffffffffffffffffffffffffffff021916908373ffffffffffffffffffffffffffffffffffffffff16021790555050506040820151816006015f6101000a81548160ff02191690831515021790555060608201518160060160016101000a81548160ff02191690831515021790555060808201518160060160026101000a81548160ff0219169083151502179055509050503373ffffffffffffffffffffffffffffffffffffffff167f1f10437cb6d722f3e8a9e771fcde4fbf82d9fda13bb2666ea9e9eaa0310dadd382604051611e239190612ee9565b60405180910390a2505050505050565b7f876bbbf5907d194533faadcead8cfa42ad0f2b1653cc89d94228f5c04f389a1581565b7fa49807205ce4d355092ef5a8a18f56e8913cf4a201fbe287825b095693c21775611e81816127d1565b611e896127e5565b5f60035f8473ffffffffffffffffffffffffffffffffffffffff1673ffffffffffffffffffffffffffffffffffffffff1681526020019081526020015f2090508060060160019054906101000a900460ff16611f1a576040517f08c379a0000000000000000000000000000000000000000000000000000000008152600401611f1190613837565b60405180910390fd5b5f8160060160016101000a81548160ff0219169083151502179055505f8160060160026101000a81548160ff0219169083151502179055508273ffffffffffffffffffffffffffffffffffffffff167fcd974fc27e84980d07e91443e7189af0cd0dc142c2ab04f1d8af6352de3b625b60405160405180910390a2505050565b60606005805480602002602001604051908101604052809291908181526020015f905b82821015612110578382905f5260205f2090600402016040518060a00160405290815f82015f9054906101000a900473ffffffffffffffffffffffffffffffffffffffff1673ffffffffffffffffffffffffffffffffffffffff1673ffffffffffffffffffffffffffffffffffffffff1681526020016001820154815260200160028201805461204c90613755565b80601f016020809104026020016040519081016040528092919081815260200182805461207890613755565b80156120c35780601f1061209a576101008083540402835291602001916120c3565b820191905f5260205f20905b8154815290600101906020018083116120a657829003601f168201915b50505050508152602001600382015f9054906101000a900460ff161515151581526020016003820160019054906101000a900460ff16151515158152505081526020019060010190611fbd565b50505050905090565b7fa49807205ce4d355092ef5a8a18f56e8913cf4a201fbe287825b095693c21775612143816127d1565b61214b612ceb565b50565b5f805f8481526020019081526020015f205f015f8373ffffffffffffffffffffffffffffffffffffffff1673ffffffffffffffffffffffffffffffffffffffff1681526020019081526020015f205f9054906101000a900460ff16905092915050565b6004602052815f5260405f20602052805f5260405f205f9150915050805f015f9054906101000a900473ffffffffffffffffffffffffffffffffffffffff169080600101549080600201805461220690613755565b80601f016020809104026020016040519081016040528092919081815260200182805461223290613755565b801561227d5780601f106122545761010080835404028352916020019161227d565b820191905f5260205f20905b81548152906001019060200180831161226057829003601f168201915b505050505090806003015f9054906101000a900460ff16908060030160019054906101000a900460ff16905085565b7f329c74013ba5a00a181f8b3dc9d0ae428c8a88ad0625246c0382e31759b580db81565b5f801b81565b7fa49807205ce4d355092ef5a8a18f56e8913cf4a201fbe287825b095693c21775612300816127d1565b6123086127e5565b5f73ffffffffffffffffffffffffffffffffffffffff168373ffffffffffffffffffffffffffffffffffffffff1603612376576040517f08c379a000000000000000000000000000000000000000000000000000000000815260040161236d906137cf565b60405180910390fd5b5f60045f8573ffffffffffffffffffffffffffffffffffffffff1673ffffffffffffffffffffffffffffffffffffffff1681526020019081526020015f205f8481526020019081526020015f209050806003015f9054906101000a900460ff16612415576040517f08c379a000000000000000000000000000000000000000000000000000000000815260040161240c90613837565b60405180910390fd5b5f816003015f6101000a81548160ff0219169083151502179055505f8160030160016101000a81548160ff0219169083151502179055506124568484612a01565b828473ffffffffffffffffffffffffffffffffffffffff167f4b685ab8ace04ef41f36cfa424816013417e507b3c57629fdd55778c2958752760405160405180910390a350505050565b7f1597bc5e34ff090612f53164e4e642d2ab4fc78bffe19ed1b602a0d12559561a81565b6124cd82610f6b565b6124d6816127d1565b6124e08383612918565b50505050565b7fa49807205ce4d355092ef5a8a18f56e8913cf4a201fbe287825b095693c21775612510816127d1565b6125186127e5565b5f60035f8473ffffffffffffffffffffffffffffffffffffffff1673ffffffffffffffffffffffffffffffffffffffff1681526020019081526020015f2090508060060160019054906101000a900460ff166125a9576040517f08c379a00000000000000000000000000000000000000000000000000000000081526004016125a090613837565b60405180910390fd5b5f8160060160016101000a81548160ff02191690831515021790555060018160060160026101000a81548160ff0219169083151502179055508060010160025f8573ffffffffffffffffffffffffffffffffffffffff1673ffffffffffffffffffffffffffffffffffffffff1681526020019081526020015f205f8201815f0190816126359190613d66565b506001820181600101908161264a9190613d66565b506002820181600201908161265f9190613d66565b50600382018160030190816126749190613d66565b50600482015f9054906101000a900473ffffffffffffffffffffffffffffffffffffffff16816004015f6101000a81548173ffffffffffffffffffffffffffffffffffffffff021916908373ffffffffffffffffffffffffffffffffffffffff1602179055509050508273ffffffffffffffffffffffffffffffffffffffff167fb6336ad1e7f2606f8f101b70bcebbb79f8f2d57a54af67e13f196fd0cb5f861e60405160405180910390a28273ffffffffffffffffffffffffffffffffffffffff167fa267530518909239d6d9966f12bf391177dde455b3233f6166ab8cd424f17fd560405160405180910390a2505050565b5f7f01ffc9a7000000000000000000000000000000000000000000000000000000007bffffffffffffffffffffffffffffffffffffffffffffffffffffffff1916827bffffffffffffffffffffffffffffffffffffffffffffffffffffffff1916149050919050565b6127e2816127dd612c83565b612d4c565b50565b6127ed611396565b1561282d576040517f08c379a000000000000000000000000000000000000000000000000000000000815260040161282490613e95565b60405180910390fd5b565b5f61283a838361214e565b61290e5760015f808581526020019081526020015f205f015f8473ffffffffffffffffffffffffffffffffffffffff1673ffffffffffffffffffffffffffffffffffffffff1681526020019081526020015f205f6101000a81548160ff0219169083151502179055506128ab612c83565b73ffffffffffffffffffffffffffffffffffffffff168273ffffffffffffffffffffffffffffffffffffffff16847f2f8788117e7eff1d82e926ec794901d17c78024a50270940304540a733656f0d60405160405180910390a460019050612912565b5f90505b92915050565b5f612923838361214e565b156129f7575f805f8581526020019081526020015f205f015f8473ffffffffffffffffffffffffffffffffffffffff1673ffffffffffffffffffffffffffffffffffffffff1681526020019081526020015f205f6101000a81548160ff021916908315150217905550612994612c83565b73ffffffffffffffffffffffffffffffffffffffff168273ffffffffffffffffffffffffffffffffffffffff16847ff6391f5c32d9c69d2a47ea670b442974b53935d1edc7fd64eb21e047a839171b60405160405180910390a4600190506129fb565b5f90505b92915050565b5f5b600580549050811015612c7e578273ffffffffffffffffffffffffffffffffffffffff1660058281548110612a3b57612a3a613eb3565b5b905f5260205f2090600402015f015f9054906101000a900473ffffffffffffffffffffffffffffffffffffffff1673ffffffffffffffffffffffffffffffffffffffff16148015612aae57508160058281548110612a9c57612a9b613eb3565b5b905f5260205f20906004020160010154145b15612c715760056001600580549050612ac79190613f0d565b81548110612ad857612ad7613eb3565b5b905f5260205f20906004020160058281548110612af857612af7613eb3565b5b905f5260205f2090600402015f82015f9054906101000a900473ffffffffffffffffffffffffffffffffffffffff16815f015f6101000a81548173ffffffffffffffffffffffffffffffffffffffff021916908373ffffffffffffffffffffffffffffffffffffffff1602179055506001820154816001015560028201816002019081612b859190613d66565b50600382015f9054906101000a900460ff16816003015f6101000a81548160ff0219169083151502179055506003820160019054906101000a900460ff168160030160016101000a81548160ff0219169083151502179055509050506005805480612bf357612bf2613f40565b5b600190038181905f5260205f2090600402015f8082015f6101000a81549073ffffffffffffffffffffffffffffffffffffffff0219169055600182015f9055600282015f612c419190612de6565b600382015f6101000a81549060ff02191690556003820160016101000a81549060ff021916905550509055612c7e565b8080600101915050612a03565b505050565b5f33905090565b612c92612d9d565b5f60015f6101000a81548160ff0219169083151502179055507f5db9ee0a495bf2e6ff9c91a7834c1ba4fdd244a5e8aa4e537bd38aeae4b073aa612cd4612c83565b604051612ce19190613f6d565b60405180910390a1565b612cf36127e5565b6001805f6101000a81548160ff0219169083151502179055507f62e78cea01bee320cd4e420270b5ea74000d11b0c9f74754ebdbfc544b05a258612d35612c83565b604051612d429190613f6d565b60405180910390a1565b612d56828261214e565b612d995780826040517fe2517d3f000000000000000000000000000000000000000000000000000000008152600401612d90929190613f86565b60405180910390fd5b5050565b612da5611396565b612de4576040517f08c379a0000000000000000000000000000000000000000000000000000000008152600401612ddb90613ff7565b60405180910390fd5b565b508054612df290613755565b5f825580601f10612e035750612e20565b601f0160209004905f5260205f2090810190612e1f9190612e23565b5b50565b5b80821115612e3a575f815f905550600101612e24565b5090565b5f604051905090565b5f80fd5b5f80fd5b5f7fffffffff0000000000000000000000000000000000000000000000000000000082169050919050565b612e8381612e4f565b8114612e8d575f80fd5b50565b5f81359050612e9e81612e7a565b92915050565b5f60208284031215612eb957612eb8612e47565b5b5f612ec684828501612e90565b91505092915050565b5f8115159050919050565b612ee381612ecf565b82525050565b5f602082019050612efc5f830184612eda565b92915050565b5f73ffffffffffffffffffffffffffffffffffffffff82169050919050565b5f612f2b82612f02565b9050919050565b612f3b81612f21565b8114612f45575f80fd5b50565b5f81359050612f5681612f32565b92915050565b5f60208284031215612f7157612f70612e47565b5b5f612f7e84828501612f48565b91505092915050565b612f9081612f21565b82525050565b5f81519050919050565b5f82825260208201905092915050565b8281835e5f83830152505050565b5f601f19601f8301169050919050565b5f612fd882612f96565b612fe28185612fa0565b9350612ff2818560208601612fb0565b612ffb81612fbe565b840191505092915050565b61300f81612f21565b82525050565b5f60a083015f8301518482035f86015261302f8282612fce565b915050602083015184820360208601526130498282612fce565b915050604083015184820360408601526130638282612fce565b9150506060830151848203606086015261307d8282612fce565b91505060808301516130926080860182613006565b508091505092915050565b5f60a0820190506130b05f830188612f87565b81810360208301526130c28187613015565b90506130d16040830186612eda565b6130de6060830185612eda565b6130eb6080830184612eda565b9695505050505050565b5f819050919050565b613107816130f5565b8114613111575f80fd5b50565b5f81359050613122816130fe565b92915050565b5f806040838503121561313e5761313d612e47565b5b5f61314b85828601612f48565b925050602061315c85828601613114565b9150509250929050565b61316f816130f5565b82525050565b5f82825260208201905092915050565b5f61318f82612f96565b6131998185613175565b93506131a9818560208601612fb0565b6131b281612fbe565b840191505092915050565b5f60a0820190506131d05f830188612f87565b6131dd6020830187613166565b81810360408301526131ef8186613185565b90506131fe6060830185612eda565b61320b6080830184612eda565b9695505050505050565b5f60a0820190508181035f83015261322d8188613185565b905081810360208301526132418187613185565b905081810360408301526132558186613185565b905081810360608301526132698185613185565b90506132786080830184612f87565b9695505050505050565b5f6020828403121561329757613296612e47565b5b5f6132a484828501613114565b91505092915050565b5f6020820190506132c05f830184613166565b92915050565b5f80604083850312156132dc576132db612e47565b5b5f6132e985828601613114565b92505060206132fa85828601612f48565b9150509250929050565b5f819050919050565b61331681613304565b8114613320575f80fd5b50565b5f813590506133318161330d565b92915050565b5f6020828403121561334c5761334b612e47565b5b5f61335984828501613323565b91505092915050565b5f80fd5b5f80fd5b7f4e487b71000000000000000000000000000000000000000000000000000000005f52604160045260245ffd5b6133a082612fbe565b810181811067ffffffffffffffff821117156133bf576133be61336a565b5b80604052505050565b5f6133d1612e3e565b90506133dd8282613397565b919050565b5f67ffffffffffffffff8211156133fc576133fb61336a565b5b61340582612fbe565b9050602081019050919050565b828183375f83830152505050565b5f61343261342d846133e2565b6133c8565b90508281526020810184848401111561344e5761344d613366565b5b613459848285613412565b509392505050565b5f82601f83011261347557613474613362565b5b8135613485848260208601613420565b91505092915050565b5f80604083850312156134a4576134a3612e47565b5b5f6134b185828601613114565b925050602083013567ffffffffffffffff8111156134d2576134d1612e4b565b5b6134de85828601613461565b9150509250929050565b5f805f8060808587031215613500576134ff612e47565b5b5f85013567ffffffffffffffff81111561351d5761351c612e4b565b5b61352987828801613461565b945050602085013567ffffffffffffffff81111561354a57613549612e4b565b5b61355687828801613461565b935050604085013567ffffffffffffffff81111561357757613576612e4b565b5b61358387828801613461565b925050606085013567ffffffffffffffff8111156135a4576135a3612e4b565b5b6135b087828801613461565b91505092959194509250565b5f81519050919050565b5f82825260208201905092915050565b5f819050602082019050919050565b6135ee816130f5565b82525050565b6135fd81612ecf565b82525050565b5f60a083015f8301516136185f860182613006565b50602083015161362b60208601826135e5565b50604083015184820360408601526136438282612fce565b915050606083015161365860608601826135f4565b50608083015161366b60808601826135f4565b508091505092915050565b5f6136818383613603565b905092915050565b5f602082019050919050565b5f61369f826135bc565b6136a981856135c6565b9350836020820285016136bb856135d6565b805f5b858110156136f657848403895281516136d78582613676565b94506136e283613689565b925060208a019950506001810190506136be565b50829750879550505050505092915050565b5f6020820190508181035f8301526137208184613695565b905092915050565b7f4e487b71000000000000000000000000000000000000000000000000000000005f52602260045260245ffd5b5f600282049050600182168061376c57607f821691505b60208210810361377f5761377e613728565b5b50919050565b7f496e76616c6964206164647265737300000000000000000000000000000000005f82015250565b5f6137b9600f83613175565b91506137c482613785565b602082019050919050565b5f6020820190508181035f8301526137e6816137ad565b9050919050565b7f4e6f2070656e64696e67207265717565737400000000000000000000000000005f82015250565b5f613821601283613175565b915061382c826137ed565b602082019050919050565b5f6020820190508181035f83015261384e81613815565b9050919050565b7f416c72656164792068617320726f6c65000000000000000000000000000000005f82015250565b5f613889601083613175565b915061389482613855565b602082019050919050565b5f6020820190508181035f8301526138b68161387d565b9050919050565b7f526561736f6e20726571756972656400000000000000000000000000000000005f82015250565b5f6138f1600f83613175565b91506138fc826138bd565b602082019050919050565b5f6020820190508181035f83015261391e816138e5565b9050919050565b7f5265717565737420616c72656164792070656e64696e670000000000000000005f82015250565b5f613959601783613175565b915061396482613925565b602082019050919050565b5f6020820190508181035f8301526139868161394d565b9050919050565b5f819050815f5260205f209050919050565b5f6020601f8301049050919050565b5f82821b905092915050565b5f600883026139e97fffffffffffffffffffffffffffffffffffffffffffffffffffffffffffffffff826139ae565b6139f386836139ae565b95508019841693508086168417925050509392505050565b5f819050919050565b5f613a2e613a29613a2484613304565b613a0b565b613304565b9050919050565b5f819050919050565b613a4783613a14565b613a5b613a5382613a35565b8484546139ba565b825550505050565b5f90565b613a6f613a63565b613a7a818484613a3e565b505050565b5b81811015613a9d57613a925f82613a67565b600181019050613a80565b5050565b601f821115613ae257613ab38161398d565b613abc8461399f565b81016020851015613acb578190505b613adf613ad78561399f565b830182613a7f565b50505b505050565b5f82821c905092915050565b5f613b025f1984600802613ae7565b1980831691505092915050565b5f613b1a8383613af3565b9150826002028217905092915050565b613b3382612f96565b67ffffffffffffffff811115613b4c57613b4b61336a565b5b613b568254613755565b613b61828285613aa1565b5f60209050601f831160018114613b92575f8415613b80578287015190505b613b8a8582613b0f565b865550613bf1565b601f198416613ba08661398d565b5f5b82811015613bc757848901518255600182019150602085019450602081019050613ba2565b86831015613be45784890151613be0601f891682613af3565b8355505b6001600288020188555050505b505050505050565b5f6020820190508181035f830152613c118184613185565b905092915050565b7f4669727374206e616d65207265717569726564000000000000000000000000005f82015250565b5f613c4d601383613175565b9150613c5882613c19565b602082019050919050565b5f6020820190508181035f830152613c7a81613c41565b9050919050565b7f4c617374206e616d6520726571756972656400000000000000000000000000005f82015250565b5f613cb5601283613175565b9150613cc082613c81565b602082019050919050565b5f6020820190508181035f830152613ce281613ca9565b9050919050565b7f456d61696c2072657175697265640000000000000000000000000000000000005f82015250565b5f613d1d600e83613175565b9150613d2882613ce9565b602082019050919050565b5f6020820190508181035f830152613d4a81613d11565b9050919050565b5f81549050613d5f81613755565b9050919050565b818103613d74575050613e49565b613d7d82613d51565b67ffffffffffffffff811115613d9657613d9561336a565b5b613da08254613755565b613dab828285613aa1565b5f601f831160018114613dd8575f8415613dc6578287015490505b613dd08582613b0f565b865550613e42565b601f198416613de68761398d565b9650613df18661398d565b5f5b82811015613e1857848901548255600182019150600185019450602081019050613df3565b86831015613e355784890154613e31601f891682613af3565b8355505b6001600288020188555050505b5050505050505b565b7f5061757361626c653a20706175736564000000000000000000000000000000005f82015250565b5f613e7f601083613175565b9150613e8a82613e4b565b602082019050919050565b5f6020820190508181035f830152613eac81613e73565b9050919050565b7f4e487b71000000000000000000000000000000000000000000000000000000005f52603260045260245ffd5b7f4e487b71000000000000000000000000000000000000000000000000000000005f52601160045260245ffd5b5f613f1782613304565b9150613f2283613304565b9250828203905081811115613f3a57613f39613ee0565b5b92915050565b7f4e487b71000000000000000000000000000000000000000000000000000000005f52603160045260245ffd5b5f602082019050613f805f830184612f87565b92915050565b5f604082019050613f995f830185612f87565b613fa66020830184613166565b9392505050565b7f5061757361626c653a206e6f74207061757365640000000000000000000000005f82015250565b5f613fe1601483613175565b9150613fec82613fad565b602082019050919050565b5f6020820190508181035f83015261400e81613fd5565b905091905056fea2646970667358221220063b1be84c8a0356404257a42222a6480403926ffb9c7d33b755da72a54dd7aa64736f6c634300081a0033",
					"opcodes": "PUSH1 0x80 PUSH1 0x40 MSTORE CALLVALUE DUP1 ISZERO PUSH2 0xF JUMPI PUSH0 DUP1 REVERT JUMPDEST POP PUSH0 PUSH1 0x1 PUSH0 PUSH2 0x100 EXP DUP2 SLOAD DUP2 PUSH1 0xFF MUL NOT AND SWAP1 DUP4 ISZERO ISZERO MUL OR SWAP1 SSTORE POP PUSH2 0x3B PUSH0 DUP1 SHL CALLER PUSH2 0x72 PUSH1 0x20 SHL PUSH1 0x20 SHR JUMP JUMPDEST POP PUSH2 0x6C PUSH32 0xA49807205CE4D355092EF5A8A18F56E8913CF4A201FBE287825B095693C21775 CALLER PUSH2 0x72 PUSH1 0x20 SHL PUSH1 0x20 SHR JUMP JUMPDEST POP PUSH2 0x1D1 JUMP JUMPDEST PUSH0 PUSH2 0x83 DUP4 DUP4 PUSH2 0x167 PUSH1 0x20 SHL PUSH1 0x20 SHR JUMP JUMPDEST PUSH2 0x15D JUMPI PUSH1 0x1 PUSH0 DUP1 DUP6 DUP2 MSTORE PUSH1 0x20 ADD SWAP1 DUP2 MSTORE PUSH1 0x20 ADD PUSH0 KECCAK256 PUSH0 ADD PUSH0 DUP5 PUSH20 0xFFFFFFFFFFFFFFFFFFFFFFFFFFFFFFFFFFFFFFFF AND PUSH20 0xFFFFFFFFFFFFFFFFFFFFFFFFFFFFFFFFFFFFFFFF AND DUP2 MSTORE PUSH1 0x20 ADD SWAP1 DUP2 MSTORE PUSH1 0x20 ADD PUSH0 KECCAK256 PUSH0 PUSH2 0x100 EXP DUP2 SLOAD DUP2 PUSH1 0xFF MUL NOT AND SWAP1 DUP4 ISZERO ISZERO MUL OR SWAP1 SSTORE POP PUSH2 0xFA PUSH2 0x1CA PUSH1 0x20 SHL PUSH1 0x20 SHR JUMP JUMPDEST PUSH20 0xFFFFFFFFFFFFFFFFFFFFFFFFFFFFFFFFFFFFFFFF AND DUP3 PUSH20 0xFFFFFFFFFFFFFFFFFFFFFFFFFFFFFFFFFFFFFFFF AND DUP5 PUSH32 0x2F8788117E7EFF1D82E926EC794901D17C78024A50270940304540A733656F0D PUSH1 0x40 MLOAD PUSH1 0x40 MLOAD DUP1 SWAP2 SUB SWAP1 LOG4 PUSH1 0x1 SWAP1 POP PUSH2 0x161 JUMP JUMPDEST PUSH0 SWAP1 POP JUMPDEST SWAP3 SWAP2 POP POP JUMP JUMPDEST PUSH0 DUP1 PUSH0 DUP5 DUP2 MSTORE PUSH1 0x20 ADD SWAP1 DUP2 MSTORE PUSH1 0x20 ADD PUSH0 KECCAK256 PUSH0 ADD PUSH0 DUP4 PUSH20 0xFFFFFFFFFFFFFFFFFFFFFFFFFFFFFFFFFFFFFFFF AND PUSH20 0xFFFFFFFFFFFFFFFFFFFFFFFFFFFFFFFFFFFFFFFF AND DUP2 MSTORE PUSH1 0x20 ADD SWAP1 DUP2 MSTORE PUSH1 0x20 ADD PUSH0 KECCAK256 PUSH0 SWAP1 SLOAD SWAP1 PUSH2 0x100 EXP SWAP1 DIV PUSH1 0xFF AND SWAP1 POP SWAP3 SWAP2 POP POP JUMP JUMPDEST PUSH0 CALLER SWAP1 POP SWAP1 JUMP JUMPDEST PUSH2 0x404B DUP1 PUSH2 0x1DE PUSH0 CODECOPY PUSH0 RETURN INVALID PUSH1 0x80 PUSH1 0x40 MSTORE CALLVALUE DUP1 ISZERO PUSH2 0xF JUMPI PUSH0 DUP1 REVERT JUMPDEST POP PUSH1 0x4 CALLDATASIZE LT PUSH2 0x1D8 JUMPI PUSH0 CALLDATALOAD PUSH1 0xE0 SHR DUP1 PUSH4 0x75B238FC GT PUSH2 0x102 JUMPI DUP1 PUSH4 0x91D14854 GT PUSH2 0xA0 JUMPI DUP1 PUSH4 0xBD605121 GT PUSH2 0x6F JUMPI DUP1 PUSH4 0xBD605121 EQ PUSH2 0x56A JUMPI DUP1 PUSH4 0xC2D79444 EQ PUSH2 0x586 JUMPI DUP1 PUSH4 0xD547741F EQ PUSH2 0x5A4 JUMPI DUP1 PUSH4 0xFA90ACE3 EQ PUSH2 0x5C0 JUMPI PUSH2 0x1D8 JUMP JUMPDEST DUP1 PUSH4 0x91D14854 EQ PUSH2 0x4CA JUMPI DUP1 PUSH4 0x9411CA46 EQ PUSH2 0x4FA JUMPI DUP1 PUSH4 0x98E4ABB5 EQ PUSH2 0x52E JUMPI DUP1 PUSH4 0xA217FDDF EQ PUSH2 0x54C JUMPI PUSH2 0x1D8 JUMP JUMPDEST DUP1 PUSH4 0x78988EBD GT PUSH2 0xDC JUMPI DUP1 PUSH4 0x78988EBD EQ PUSH2 0x468 JUMPI DUP1 PUSH4 0x7E75D956 EQ PUSH2 0x486 JUMPI DUP1 PUSH4 0x80A1F712 EQ PUSH2 0x4A2 JUMPI DUP1 PUSH4 0x8456CB59 EQ PUSH2 0x4C0 JUMPI PUSH2 0x1D8 JUMP JUMPDEST DUP1 PUSH4 0x75B238FC EQ PUSH2 0x412 JUMPI DUP1 PUSH4 0x768B01AA EQ PUSH2 0x430 JUMPI DUP1 PUSH4 0x78426848 EQ PUSH2 0x44C JUMPI PUSH2 0x1D8 JUMP JUMPDEST DUP1 PUSH4 0x25DF448C GT PUSH2 0x17A JUMPI DUP1 PUSH4 0x3C652A9A GT PUSH2 0x149 JUMPI DUP1 PUSH4 0x3C652A9A EQ PUSH2 0x382 JUMPI DUP1 PUSH4 0x3F4BA83A EQ PUSH2 0x3B6 JUMPI DUP1 PUSH4 0x5C975ABB EQ PUSH2 0x3C0 JUMPI DUP1 PUSH4 0x6386C1C7 EQ PUSH2 0x3DE JUMPI PUSH2 0x1D8 JUMP JUMPDEST DUP1 PUSH4 0x25DF448C EQ PUSH2 0x310 JUMPI DUP1 PUSH4 0x2F2FF15D EQ PUSH2 0x32C JUMPI DUP1 PUSH4 0x303E3840 EQ PUSH2 0x348 JUMPI DUP1 PUSH4 0x36568ABE EQ PUSH2 0x366 JUMPI PUSH2 0x1D8 JUMP JUMPDEST DUP1 PUSH4 0x1959A002 GT PUSH2 0x1B6 JUMPI DUP1 PUSH4 0x1959A002 EQ PUSH2 0x274 JUMPI DUP1 PUSH4 0x1D9486DE EQ PUSH2 0x2A8 JUMPI DUP1 PUSH4 0x208DD1FF EQ PUSH2 0x2C4 JUMPI DUP1 PUSH4 0x248A9CA3 EQ PUSH2 0x2E0 JUMPI PUSH2 0x1D8 JUMP JUMPDEST DUP1 PUSH4 0x1FFC9A7 EQ PUSH2 0x1DC JUMPI DUP1 PUSH4 0x95C6E02 EQ PUSH2 0x20C JUMPI DUP1 PUSH4 0x18097B69 EQ PUSH2 0x240 JUMPI JUMPDEST PUSH0 DUP1 REVERT JUMPDEST PUSH2 0x1F6 PUSH1 0x4 DUP1 CALLDATASIZE SUB DUP2 ADD SWAP1 PUSH2 0x1F1 SWAP2 SWAP1 PUSH2 0x2EA4 JUMP JUMPDEST PUSH2 0x5DC JUMP JUMPDEST PUSH1 0x40 MLOAD PUSH2 0x203 SWAP2 SWAP1 PUSH2 0x2EE9 JUMP JUMPDEST PUSH1 0x40 MLOAD DUP1 SWAP2 SUB SWAP1 RETURN JUMPDEST PUSH2 0x226 PUSH1 0x4 DUP1 CALLDATASIZE SUB DUP2 ADD SWAP1 PUSH2 0x221 SWAP2 SWAP1 PUSH2 0x2F5C JUMP JUMPDEST PUSH2 0x655 JUMP JUMPDEST PUSH1 0x40 MLOAD PUSH2 0x237 SWAP6 SWAP5 SWAP4 SWAP3 SWAP2 SWAP1 PUSH2 0x309D JUMP JUMPDEST PUSH1 0x40 MLOAD DUP1 SWAP2 SUB SWAP1 RETURN JUMPDEST PUSH2 0x25A PUSH1 0x4 DUP1 CALLDATASIZE SUB DUP2 ADD SWAP1 PUSH2 0x255 SWAP2 SWAP1 PUSH2 0x3128 JUMP JUMPDEST PUSH2 0x96A JUMP JUMPDEST PUSH1 0x40 MLOAD PUSH2 0x26B SWAP6 SWAP5 SWAP4 SWAP3 SWAP2 SWAP1 PUSH2 0x31BD JUMP JUMPDEST PUSH1 0x40 MLOAD DUP1 SWAP2 SUB SWAP1 RETURN JUMPDEST PUSH2 0x28E PUSH1 0x4 DUP1 CALLDATASIZE SUB DUP2 ADD SWAP1 PUSH2 0x289 SWAP2 SWAP1 PUSH2 0x2F5C JUMP JUMPDEST PUSH2 0xB1A JUMP JUMPDEST PUSH1 0x40 MLOAD PUSH2 0x29F SWAP6 SWAP5 SWAP4 SWAP3 SWAP2 SWAP1 PUSH2 0x3215 JUMP JUMPDEST PUSH1 0x40 MLOAD DUP1 SWAP2 SUB SWAP1 RETURN JUMPDEST PUSH2 0x2C2 PUSH1 0x4 DUP1 CALLDATASIZE SUB DUP2 ADD SWAP1 PUSH2 0x2BD SWAP2 SWAP1 PUSH2 0x3128 JUMP JUMPDEST PUSH2 0xD83 JUMP JUMPDEST STOP JUMPDEST PUSH2 0x2DE PUSH1 0x4 DUP1 CALLDATASIZE SUB DUP2 ADD SWAP1 PUSH2 0x2D9 SWAP2 SWAP1 PUSH2 0x3128 JUMP JUMPDEST PUSH2 0xE77 JUMP JUMPDEST STOP JUMPDEST PUSH2 0x2FA PUSH1 0x4 DUP1 CALLDATASIZE SUB DUP2 ADD SWAP1 PUSH2 0x2F5 SWAP2 SWAP1 PUSH2 0x3282 JUMP JUMPDEST PUSH2 0xF6B JUMP JUMPDEST PUSH1 0x40 MLOAD PUSH2 0x307 SWAP2 SWAP1 PUSH2 0x32AD JUMP JUMPDEST PUSH1 0x40 MLOAD DUP1 SWAP2 SUB SWAP1 RETURN JUMPDEST PUSH2 0x32A PUSH1 0x4 DUP1 CALLDATASIZE SUB DUP2 ADD SWAP1 PUSH2 0x325 SWAP2 SWAP1 PUSH2 0x3128 JUMP JUMPDEST PUSH2 0xF87 JUMP JUMPDEST STOP JUMPDEST PUSH2 0x346 PUSH1 0x4 DUP1 CALLDATASIZE SUB DUP2 ADD SWAP1 PUSH2 0x341 SWAP2 SWAP1 PUSH2 0x32C6 JUMP JUMPDEST PUSH2 0x11A1 JUMP JUMPDEST STOP JUMPDEST PUSH2 0x350 PUSH2 0x11C3 JUMP JUMPDEST PUSH1 0x40 MLOAD PUSH2 0x35D SWAP2 SWAP1 PUSH2 0x32AD JUMP JUMPDEST PUSH1 0x40 MLOAD DUP1 SWAP2 SUB SWAP1 RETURN JUMPDEST PUSH2 0x380 PUSH1 0x4 DUP1 CALLDATASIZE SUB DUP2 ADD SWAP1 PUSH2 0x37B SWAP2 SWAP1 PUSH2 0x32C6 JUMP JUMPDEST PUSH2 0x11E7 JUMP JUMPDEST STOP JUMPDEST PUSH2 0x39C PUSH1 0x4 DUP1 CALLDATASIZE SUB DUP2 ADD SWAP1 PUSH2 0x397 SWAP2 SWAP1 PUSH2 0x3337 JUMP JUMPDEST PUSH2 0x1262 JUMP JUMPDEST PUSH1 0x40 MLOAD PUSH2 0x3AD SWAP6 SWAP5 SWAP4 SWAP3 SWAP2 SWAP1 PUSH2 0x31BD JUMP JUMPDEST PUSH1 0x40 MLOAD DUP1 SWAP2 SUB SWAP1 RETURN JUMPDEST PUSH2 0x3BE PUSH2 0x1361 JUMP JUMPDEST STOP JUMPDEST PUSH2 0x3C8 PUSH2 0x1396 JUMP JUMPDEST PUSH1 0x40 MLOAD PUSH2 0x3D5 SWAP2 SWAP1 PUSH2 0x2EE9 JUMP JUMPDEST PUSH1 0x40 MLOAD DUP1 SWAP2 SUB SWAP1 RETURN JUMPDEST PUSH2 0x3F8 PUSH1 0x4 DUP1 CALLDATASIZE SUB DUP2 ADD SWAP1 PUSH2 0x3F3 SWAP2 SWAP1 PUSH2 0x2F5C JUMP JUMPDEST PUSH2 0x13AB JUMP JUMPDEST PUSH1 0x40 MLOAD PUSH2 0x409 SWAP6 SWAP5 SWAP4 SWAP3 SWAP2 SWAP1 PUSH2 0x3215 JUMP JUMPDEST PUSH1 0x40 MLOAD DUP1 SWAP2 SUB SWAP1 RETURN JUMPDEST PUSH2 0x41A PUSH2 0x16BD JUMP JUMPDEST PUSH1 0x40 MLOAD PUSH2 0x427 SWAP2 SWAP1 PUSH2 0x32AD JUMP JUMPDEST PUSH1 0x40 MLOAD DUP1 SWAP2 SUB SWAP1 RETURN JUMPDEST PUSH2 0x44A PUSH1 0x4 DUP1 CALLDATASIZE SUB DUP2 ADD SWAP1 PUSH2 0x445 SWAP2 SWAP1 PUSH2 0x348E JUMP JUMPDEST PUSH2 0x16E1 JUMP JUMPDEST STOP JUMPDEST PUSH2 0x466 PUSH1 0x4 DUP1 CALLDATASIZE SUB DUP2 ADD SWAP1 PUSH2 0x461 SWAP2 SWAP1 PUSH2 0x34E8 JUMP JUMPDEST PUSH2 0x1A6C JUMP JUMPDEST STOP JUMPDEST PUSH2 0x470 PUSH2 0x1E33 JUMP JUMPDEST PUSH1 0x40 MLOAD PUSH2 0x47D SWAP2 SWAP1 PUSH2 0x32AD JUMP JUMPDEST PUSH1 0x40 MLOAD DUP1 SWAP2 SUB SWAP1 RETURN JUMPDEST PUSH2 0x4A0 PUSH1 0x4 DUP1 CALLDATASIZE SUB DUP2 ADD SWAP1 PUSH2 0x49B SWAP2 SWAP1 PUSH2 0x2F5C JUMP JUMPDEST PUSH2 0x1E57 JUMP JUMPDEST STOP JUMPDEST PUSH2 0x4AA PUSH2 0x1F9A JUMP JUMPDEST PUSH1 0x40 MLOAD PUSH2 0x4B7 SWAP2 SWAP1 PUSH2 0x3708 JUMP JUMPDEST PUSH1 0x40 MLOAD DUP1 SWAP2 SUB SWAP1 RETURN JUMPDEST PUSH2 0x4C8 PUSH2 0x2119 JUMP JUMPDEST STOP JUMPDEST PUSH2 0x4E4 PUSH1 0x4 DUP1 CALLDATASIZE SUB DUP2 ADD SWAP1 PUSH2 0x4DF SWAP2 SWAP1 PUSH2 0x32C6 JUMP JUMPDEST PUSH2 0x214E JUMP JUMPDEST PUSH1 0x40 MLOAD PUSH2 0x4F1 SWAP2 SWAP1 PUSH2 0x2EE9 JUMP JUMPDEST PUSH1 0x40 MLOAD DUP1 SWAP2 SUB SWAP1 RETURN JUMPDEST PUSH2 0x514 PUSH1 0x4 DUP1 CALLDATASIZE SUB DUP2 ADD SWAP1 PUSH2 0x50F SWAP2 SWAP1 PUSH2 0x3128 JUMP JUMPDEST PUSH2 0x21B1 JUMP JUMPDEST PUSH1 0x40 MLOAD PUSH2 0x525 SWAP6 SWAP5 SWAP4 SWAP3 SWAP2 SWAP1 PUSH2 0x31BD JUMP JUMPDEST PUSH1 0x40 MLOAD DUP1 SWAP2 SUB SWAP1 RETURN JUMPDEST PUSH2 0x536 PUSH2 0x22AC JUMP JUMPDEST PUSH1 0x40 MLOAD PUSH2 0x543 SWAP2 SWAP1 PUSH2 0x32AD JUMP JUMPDEST PUSH1 0x40 MLOAD DUP1 SWAP2 SUB SWAP1 RETURN JUMPDEST PUSH2 0x554 PUSH2 0x22D0 JUMP JUMPDEST PUSH1 0x40 MLOAD PUSH2 0x561 SWAP2 SWAP1 PUSH2 0x32AD JUMP JUMPDEST PUSH1 0x40 MLOAD DUP1 SWAP2 SUB SWAP1 RETURN JUMPDEST PUSH2 0x584 PUSH1 0x4 DUP1 CALLDATASIZE SUB DUP2 ADD SWAP1 PUSH2 0x57F SWAP2 SWAP1 PUSH2 0x3128 JUMP JUMPDEST PUSH2 0x22D6 JUMP JUMPDEST STOP JUMPDEST PUSH2 0x58E PUSH2 0x24A0 JUMP JUMPDEST PUSH1 0x40 MLOAD PUSH2 0x59B SWAP2 SWAP1 PUSH2 0x32AD JUMP JUMPDEST PUSH1 0x40 MLOAD DUP1 SWAP2 SUB SWAP1 RETURN JUMPDEST PUSH2 0x5BE PUSH1 0x4 DUP1 CALLDATASIZE SUB DUP2 ADD SWAP1 PUSH2 0x5B9 SWAP2 SWAP1 PUSH2 0x32C6 JUMP JUMPDEST PUSH2 0x24C4 JUMP JUMPDEST STOP JUMPDEST PUSH2 0x5DA PUSH1 0x4 DUP1 CALLDATASIZE SUB DUP2 ADD SWAP1 PUSH2 0x5D5 SWAP2 SWAP1 PUSH2 0x2F5C JUMP JUMPDEST PUSH2 0x24E6 JUMP JUMPDEST STOP JUMPDEST PUSH0 PUSH32 0x7965DB0B00000000000000000000000000000000000000000000000000000000 PUSH28 0xFFFFFFFFFFFFFFFFFFFFFFFFFFFFFFFFFFFFFFFFFFFFFFFFFFFFFFFF NOT AND DUP3 PUSH28 0xFFFFFFFFFFFFFFFFFFFFFFFFFFFFFFFFFFFFFFFFFFFFFFFFFFFFFFFF NOT AND EQ DUP1 PUSH2 0x64E JUMPI POP PUSH2 0x64D DUP3 PUSH2 0x2768 JUMP JUMPDEST JUMPDEST SWAP1 POP SWAP2 SWAP1 POP JUMP JUMPDEST PUSH1 0x3 PUSH1 0x20 MSTORE DUP1 PUSH0 MSTORE PUSH1 0x40 PUSH0 KECCAK256 PUSH0 SWAP2 POP SWAP1 POP DUP1 PUSH0 ADD PUSH0 SWAP1 SLOAD SWAP1 PUSH2 0x100 EXP SWAP1 DIV PUSH20 0xFFFFFFFFFFFFFFFFFFFFFFFFFFFFFFFFFFFFFFFF AND SWAP1 DUP1 PUSH1 0x1 ADD PUSH1 0x40 MLOAD DUP1 PUSH1 0xA0 ADD PUSH1 0x40 MSTORE SWAP1 DUP2 PUSH0 DUP3 ADD DUP1 SLOAD PUSH2 0x6A8 SWAP1 PUSH2 0x3755 JUMP JUMPDEST DUP1 PUSH1 0x1F ADD PUSH1 0x20 DUP1 SWAP2 DIV MUL PUSH1 0x20 ADD PUSH1 0x40 MLOAD SWAP1 DUP2 ADD PUSH1 0x40 MSTORE DUP1 SWAP3 SWAP2 SWAP1 DUP2 DUP2 MSTORE PUSH1 0x20 ADD DUP3 DUP1 SLOAD PUSH2 0x6D4 SWAP1 PUSH2 0x3755 JUMP JUMPDEST DUP1 ISZERO PUSH2 0x71F JUMPI DUP1 PUSH1 0x1F LT PUSH2 0x6F6 JUMPI PUSH2 0x100 DUP1 DUP4 SLOAD DIV MUL DUP4 MSTORE SWAP2 PUSH1 0x20 ADD SWAP2 PUSH2 0x71F JUMP JUMPDEST DUP3 ADD SWAP2 SWAP1 PUSH0 MSTORE PUSH1 0x20 PUSH0 KECCAK256 SWAP1 JUMPDEST DUP2 SLOAD DUP2 MSTORE SWAP1 PUSH1 0x1 ADD SWAP1 PUSH1 0x20 ADD DUP1 DUP4 GT PUSH2 0x702 JUMPI DUP3 SWAP1 SUB PUSH1 0x1F AND DUP3 ADD SWAP2 JUMPDEST POP POP POP POP POP DUP2 MSTORE PUSH1 0x20 ADD PUSH1 0x1 DUP3 ADD DUP1 SLOAD PUSH2 0x738 SWAP1 PUSH2 0x3755 JUMP JUMPDEST DUP1 PUSH1 0x1F ADD PUSH1 0x20 DUP1 SWAP2 DIV MUL PUSH1 0x20 ADD PUSH1 0x40 MLOAD SWAP1 DUP2 ADD PUSH1 0x40 MSTORE DUP1 SWAP3 SWAP2 SWAP1 DUP2 DUP2 MSTORE PUSH1 0x20 ADD DUP3 DUP1 SLOAD PUSH2 0x764 SWAP1 PUSH2 0x3755 JUMP JUMPDEST DUP1 ISZERO PUSH2 0x7AF JUMPI DUP1 PUSH1 0x1F LT PUSH2 0x786 JUMPI PUSH2 0x100 DUP1 DUP4 SLOAD DIV MUL DUP4 MSTORE SWAP2 PUSH1 0x20 ADD SWAP2 PUSH2 0x7AF JUMP JUMPDEST DUP3 ADD SWAP2 SWAP1 PUSH0 MSTORE PUSH1 0x20 PUSH0 KECCAK256 SWAP1 JUMPDEST DUP2 SLOAD DUP2 MSTORE SWAP1 PUSH1 0x1 ADD SWAP1 PUSH1 0x20 ADD DUP1 DUP4 GT PUSH2 0x792 JUMPI DUP3 SWAP1 SUB PUSH1 0x1F AND DUP3 ADD SWAP2 JUMPDEST POP POP POP POP POP DUP2 MSTORE PUSH1 0x20 ADD PUSH1 0x2 DUP3 ADD DUP1 SLOAD PUSH2 0x7C8 SWAP1 PUSH2 0x3755 JUMP JUMPDEST DUP1 PUSH1 0x1F ADD PUSH1 0x20 DUP1 SWAP2 DIV MUL PUSH1 0x20 ADD PUSH1 0x40 MLOAD SWAP1 DUP2 ADD PUSH1 0x40 MSTORE DUP1 SWAP3 SWAP2 SWAP1 DUP2 DUP2 MSTORE PUSH1 0x20 ADD DUP3 DUP1 SLOAD PUSH2 0x7F4 SWAP1 PUSH2 0x3755 JUMP JUMPDEST DUP1 ISZERO PUSH2 0x83F JUMPI DUP1 PUSH1 0x1F LT PUSH2 0x816 JUMPI PUSH2 0x100 DUP1 DUP4 SLOAD DIV MUL DUP4 MSTORE SWAP2 PUSH1 0x20 ADD SWAP2 PUSH2 0x83F JUMP JUMPDEST DUP3 ADD SWAP2 SWAP1 PUSH0 MSTORE PUSH1 0x20 PUSH0 KECCAK256 SWAP1 JUMPDEST DUP2 SLOAD DUP2 MSTORE SWAP1 PUSH1 0x1 ADD SWAP1 PUSH1 0x20 ADD DUP1 DUP4 GT PUSH2 0x822 JUMPI DUP3 SWAP1 SUB PUSH1 0x1F AND DUP3 ADD SWAP2 JUMPDEST POP POP POP POP POP DUP2 MSTORE PUSH1 0x20 ADD PUSH1 0x3 DUP3 ADD DUP1 SLOAD PUSH2 0x858 SWAP1 PUSH2 0x3755 JUMP JUMPDEST DUP1 PUSH1 0x1F ADD PUSH1 0x20 DUP1 SWAP2 DIV MUL PUSH1 0x20 ADD PUSH1 0x40 MLOAD SWAP1 DUP2 ADD PUSH1 0x40 MSTORE DUP1 SWAP3 SWAP2 SWAP1 DUP2 DUP2 MSTORE PUSH1 0x20 ADD DUP3 DUP1 SLOAD PUSH2 0x884 SWAP1 PUSH2 0x3755 JUMP JUMPDEST DUP1 ISZERO PUSH2 0x8CF JUMPI DUP1 PUSH1 0x1F LT PUSH2 0x8A6 JUMPI PUSH2 0x100 DUP1 DUP4 SLOAD DIV MUL DUP4 MSTORE SWAP2 PUSH1 0x20 ADD SWAP2 PUSH2 0x8CF JUMP JUMPDEST DUP3 ADD SWAP2 SWAP1 PUSH0 MSTORE PUSH1 0x20 PUSH0 KECCAK256 SWAP1 JUMPDEST DUP2 SLOAD DUP2 MSTORE SWAP1 PUSH1 0x1 ADD SWAP1 PUSH1 0x20 ADD DUP1 DUP4 GT PUSH2 0x8B2 JUMPI DUP3 SWAP1 SUB PUSH1 0x1F AND DUP3 ADD SWAP2 JUMPDEST POP POP POP POP POP DUP2 MSTORE PUSH1 0x20 ADD PUSH1 0x4 DUP3 ADD PUSH0 SWAP1 SLOAD SWAP1 PUSH2 0x100 EXP SWAP1 DIV PUSH20 0xFFFFFFFFFFFFFFFFFFFFFFFFFFFFFFFFFFFFFFFF AND PUSH20 0xFFFFFFFFFFFFFFFFFFFFFFFFFFFFFFFFFFFFFFFF AND PUSH20 0xFFFFFFFFFFFFFFFFFFFFFFFFFFFFFFFFFFFFFFFF AND DUP2 MSTORE POP POP SWAP1 DUP1 PUSH1 0x6 ADD PUSH0 SWAP1 SLOAD SWAP1 PUSH2 0x100 EXP SWAP1 DIV PUSH1 0xFF AND SWAP1 DUP1 PUSH1 0x6 ADD PUSH1 0x1 SWAP1 SLOAD SWAP1 PUSH2 0x100 EXP SWAP1 DIV PUSH1 0xFF AND SWAP1 DUP1 PUSH1 0x6 ADD PUSH1 0x2 SWAP1 SLOAD SWAP1 PUSH2 0x100 EXP SWAP1 DIV PUSH1 0xFF AND SWAP1 POP DUP6 JUMP JUMPDEST PUSH0 DUP1 PUSH1 0x60 PUSH0 DUP1 PUSH0 PUSH1 0x4 PUSH0 DUP10 PUSH20 0xFFFFFFFFFFFFFFFFFFFFFFFFFFFFFFFFFFFFFFFF AND PUSH20 0xFFFFFFFFFFFFFFFFFFFFFFFFFFFFFFFFFFFFFFFF AND DUP2 MSTORE PUSH1 0x20 ADD SWAP1 DUP2 MSTORE PUSH1 0x20 ADD PUSH0 KECCAK256 PUSH0 DUP9 DUP2 MSTORE PUSH1 0x20 ADD SWAP1 DUP2 MSTORE PUSH1 0x20 ADD PUSH0 KECCAK256 PUSH1 0x40 MLOAD DUP1 PUSH1 0xA0 ADD PUSH1 0x40 MSTORE SWAP1 DUP2 PUSH0 DUP3 ADD PUSH0 SWAP1 SLOAD SWAP1 PUSH2 0x100 EXP SWAP1 DIV PUSH20 0xFFFFFFFFFFFFFFFFFFFFFFFFFFFFFFFFFFFFFFFF AND PUSH20 0xFFFFFFFFFFFFFFFFFFFFFFFFFFFFFFFFFFFFFFFF AND PUSH20 0xFFFFFFFFFFFFFFFFFFFFFFFFFFFFFFFFFFFFFFFF AND DUP2 MSTORE PUSH1 0x20 ADD PUSH1 0x1 DUP3 ADD SLOAD DUP2 MSTORE PUSH1 0x20 ADD PUSH1 0x2 DUP3 ADD DUP1 SLOAD PUSH2 0xA36 SWAP1 PUSH2 0x3755 JUMP JUMPDEST DUP1 PUSH1 0x1F ADD PUSH1 0x20 DUP1 SWAP2 DIV MUL PUSH1 0x20 ADD PUSH1 0x40 MLOAD SWAP1 DUP2 ADD PUSH1 0x40 MSTORE DUP1 SWAP3 SWAP2 SWAP1 DUP2 DUP2 MSTORE PUSH1 0x20 ADD DUP3 DUP1 SLOAD PUSH2 0xA62 SWAP1 PUSH2 0x3755 JUMP JUMPDEST DUP1 ISZERO PUSH2 0xAAD JUMPI DUP1 PUSH1 0x1F LT PUSH2 0xA84 JUMPI PUSH2 0x100 DUP1 DUP4 SLOAD DIV MUL DUP4 MSTORE SWAP2 PUSH1 0x20 ADD SWAP2 PUSH2 0xAAD JUMP JUMPDEST DUP3 ADD SWAP2 SWAP1 PUSH0 MSTORE PUSH1 0x20 PUSH0 KECCAK256 SWAP1 JUMPDEST DUP2 SLOAD DUP2 MSTORE SWAP1 PUSH1 0x1 ADD SWAP1 PUSH1 0x20 ADD DUP1 DUP4 GT PUSH2 0xA90 JUMPI DUP3 SWAP1 SUB PUSH1 0x1F AND DUP3 ADD SWAP2 JUMPDEST POP POP POP POP POP DUP2 MSTORE PUSH1 0x20 ADD PUSH1 0x3 DUP3 ADD PUSH0 SWAP1 SLOAD SWAP1 PUSH2 0x100 EXP SWAP1 DIV PUSH1 0xFF AND ISZERO ISZERO ISZERO ISZERO DUP2 MSTORE PUSH1 0x20 ADD PUSH1 0x3 DUP3 ADD PUSH1 0x1 SWAP1 SLOAD SWAP1 PUSH2 0x100 EXP SWAP1 DIV PUSH1 0xFF AND ISZERO ISZERO ISZERO ISZERO DUP2 MSTORE POP POP SWAP1 POP DUP1 PUSH0 ADD MLOAD DUP2 PUSH1 0x20 ADD MLOAD DUP3 PUSH1 0x40 ADD MLOAD DUP4 PUSH1 0x60 ADD MLOAD DUP5 PUSH1 0x80 ADD MLOAD SWAP6 POP SWAP6 POP SWAP6 POP SWAP6 POP SWAP6 POP POP SWAP3 SWAP6 POP SWAP3 SWAP6 SWAP1 SWAP4 POP JUMP JUMPDEST PUSH1 0x2 PUSH1 0x20 MSTORE DUP1 PUSH0 MSTORE PUSH1 0x40 PUSH0 KECCAK256 PUSH0 SWAP2 POP SWAP1 POP DUP1 PUSH0 ADD DUP1 SLOAD PUSH2 0xB39 SWAP1 PUSH2 0x3755 JUMP JUMPDEST DUP1 PUSH1 0x1F ADD PUSH1 0x20 DUP1 SWAP2 DIV MUL PUSH1 0x20 ADD PUSH1 0x40 MLOAD SWAP1 DUP2 ADD PUSH1 0x40 MSTORE DUP1 SWAP3 SWAP2 SWAP1 DUP2 DUP2 MSTORE PUSH1 0x20 ADD DUP3 DUP1 SLOAD PUSH2 0xB65 SWAP1 PUSH2 0x3755 JUMP JUMPDEST DUP1 ISZERO PUSH2 0xBB0 JUMPI DUP1 PUSH1 0x1F LT PUSH2 0xB87 JUMPI PUSH2 0x100 DUP1 DUP4 SLOAD DIV MUL DUP4 MSTORE SWAP2 PUSH1 0x20 ADD SWAP2 PUSH2 0xBB0 JUMP JUMPDEST DUP3 ADD SWAP2 SWAP1 PUSH0 MSTORE PUSH1 0x20 PUSH0 KECCAK256 SWAP1 JUMPDEST DUP2 SLOAD DUP2 MSTORE SWAP1 PUSH1 0x1 ADD SWAP1 PUSH1 0x20 ADD DUP1 DUP4 GT PUSH2 0xB93 JUMPI DUP3 SWAP1 SUB PUSH1 0x1F AND DUP3 ADD SWAP2 JUMPDEST POP POP POP POP POP SWAP1 DUP1 PUSH1 0x1 ADD DUP1 SLOAD PUSH2 0xBC5 SWAP1 PUSH2 0x3755 JUMP JUMPDEST DUP1 PUSH1 0x1F ADD PUSH1 0x20 DUP1 SWAP2 DIV MUL PUSH1 0x20 ADD PUSH1 0x40 MLOAD SWAP1 DUP2 ADD PUSH1 0x40 MSTORE DUP1 SWAP3 SWAP2 SWAP1 DUP2 DUP2 MSTORE PUSH1 0x20 ADD DUP3 DUP1 SLOAD PUSH2 0xBF1 SWAP1 PUSH2 0x3755 JUMP JUMPDEST DUP1 ISZERO PUSH2 0xC3C JUMPI DUP1 PUSH1 0x1F LT PUSH2 0xC13 JUMPI PUSH2 0x100 DUP1 DUP4 SLOAD DIV MUL DUP4 MSTORE SWAP2 PUSH1 0x20 ADD SWAP2 PUSH2 0xC3C JUMP JUMPDEST DUP3 ADD SWAP2 SWAP1 PUSH0 MSTORE PUSH1 0x20 PUSH0 KECCAK256 SWAP1 JUMPDEST DUP2 SLOAD DUP2 MSTORE SWAP1 PUSH1 0x1 ADD SWAP1 PUSH1 0x20 ADD DUP1 DUP4 GT PUSH2 0xC1F JUMPI DUP3 SWAP1 SUB PUSH1 0x1F AND DUP3 ADD SWAP2 JUMPDEST POP POP POP POP POP SWAP1 DUP1 PUSH1 0x2 ADD DUP1 SLOAD PUSH2 0xC51 SWAP1 PUSH2 0x3755 JUMP JUMPDEST DUP1 PUSH1 0x1F ADD PUSH1 0x20 DUP1 SWAP2 DIV MUL PUSH1 0x20 ADD PUSH1 0x40 MLOAD SWAP1 DUP2 ADD PUSH1 0x40 MSTORE DUP1 SWAP3 SWAP2 SWAP1 DUP2 DUP2 MSTORE PUSH1 0x20 ADD DUP3 DUP1 SLOAD PUSH2 0xC7D SWAP1 PUSH2 0x3755 JUMP JUMPDEST DUP1 ISZERO PUSH2 0xCC8 JUMPI DUP1 PUSH1 0x1F LT PUSH2 0xC9F JUMPI PUSH2 0x100 DUP1 DUP4 SLOAD DIV MUL DUP4 MSTORE SWAP2 PUSH1 0x20 ADD SWAP2 PUSH2 0xCC8 JUMP JUMPDEST DUP3 ADD SWAP2 SWAP1 PUSH0 MSTORE PUSH1 0x20 PUSH0 KECCAK256 SWAP1 JUMPDEST DUP2 SLOAD DUP2 MSTORE SWAP1 PUSH1 0x1 ADD SWAP1 PUSH1 0x20 ADD DUP1 DUP4 GT PUSH2 0xCAB JUMPI DUP3 SWAP1 SUB PUSH1 0x1F AND DUP3 ADD SWAP2 JUMPDEST POP POP POP POP POP SWAP1 DUP1 PUSH1 0x3 ADD DUP1 SLOAD PUSH2 0xCDD SWAP1 PUSH2 0x3755 JUMP JUMPDEST DUP1 PUSH1 0x1F ADD PUSH1 0x20 DUP1 SWAP2 DIV MUL PUSH1 0x20 ADD PUSH1 0x40 MLOAD SWAP1 DUP2 ADD PUSH1 0x40 MSTORE DUP1 SWAP3 SWAP2 SWAP1 DUP2 DUP2 MSTORE PUSH1 0x20 ADD DUP3 DUP1 SLOAD PUSH2 0xD09 SWAP1 PUSH2 0x3755 JUMP JUMPDEST DUP1 ISZERO PUSH2 0xD54 JUMPI DUP1 PUSH1 0x1F LT PUSH2 0xD2B JUMPI PUSH2 0x100 DUP1 DUP4 SLOAD DIV MUL DUP4 MSTORE SWAP2 PUSH1 0x20 ADD SWAP2 PUSH2 0xD54 JUMP JUMPDEST DUP3 ADD SWAP2 SWAP1 PUSH0 MSTORE PUSH1 0x20 PUSH0 KECCAK256 SWAP1 JUMPDEST DUP2 SLOAD DUP2 MSTORE SWAP1 PUSH1 0x1 ADD SWAP1 PUSH1 0x20 ADD DUP1 DUP4 GT PUSH2 0xD37 JUMPI DUP3 SWAP1 SUB PUSH1 0x1F AND DUP3 ADD SWAP2 JUMPDEST POP POP POP POP POP SWAP1 DUP1 PUSH1 0x4 ADD PUSH0 SWAP1 SLOAD SWAP1 PUSH2 0x100 EXP SWAP1 DIV PUSH20 0xFFFFFFFFFFFFFFFFFFFFFFFFFFFFFFFFFFFFFFFF AND SWAP1 POP DUP6 JUMP JUMPDEST PUSH32 0xA49807205CE4D355092EF5A8A18F56E8913CF4A201FBE287825B095693C21775 PUSH2 0xDAD DUP2 PUSH2 0x27D1 JUMP JUMPDEST PUSH2 0xDB5 PUSH2 0x27E5 JUMP JUMPDEST PUSH0 PUSH20 0xFFFFFFFFFFFFFFFFFFFFFFFFFFFFFFFFFFFFFFFF AND DUP4 PUSH20 0xFFFFFFFFFFFFFFFFFFFFFFFFFFFFFFFFFFFFFFFF AND SUB PUSH2 0xE23 JUMPI PUSH1 0x40 MLOAD PUSH32 0x8C379A000000000000000000000000000000000000000000000000000000000 DUP2 MSTORE PUSH1 0x4 ADD PUSH2 0xE1A SWAP1 PUSH2 0x37CF JUMP JUMPDEST PUSH1 0x40 MLOAD DUP1 SWAP2 SUB SWAP1 REVERT JUMPDEST PUSH2 0xE2D DUP3 DUP5 PUSH2 0x282F JUMP JUMPDEST POP DUP2 DUP4 PUSH20 0xFFFFFFFFFFFFFFFFFFFFFFFFFFFFFFFFFFFFFFFF AND PUSH32 0x666448AAE9B9C8249FD8213A35A9C10218A0EAC2FB39B96ED90C67214C7E761 PUSH1 0x40 MLOAD PUSH1 0x40 MLOAD DUP1 SWAP2 SUB SWAP1 LOG3 POP POP POP JUMP JUMPDEST PUSH32 0xA49807205CE4D355092EF5A8A18F56E8913CF4A201FBE287825B095693C21775 PUSH2 0xEA1 DUP2 PUSH2 0x27D1 JUMP JUMPDEST PUSH2 0xEA9 PUSH2 0x27E5 JUMP JUMPDEST PUSH0 PUSH20 0xFFFFFFFFFFFFFFFFFFFFFFFFFFFFFFFFFFFFFFFF AND DUP4 PUSH20 0xFFFFFFFFFFFFFFFFFFFFFFFFFFFFFFFFFFFFFFFF AND SUB PUSH2 0xF17 JUMPI PUSH1 0x40 MLOAD PUSH32 0x8C379A000000000000000000000000000000000000000000000000000000000 DUP2 MSTORE PUSH1 0x4 ADD PUSH2 0xF0E SWAP1 PUSH2 0x37CF JUMP JUMPDEST PUSH1 0x40 MLOAD DUP1 SWAP2 SUB SWAP1 REVERT JUMPDEST PUSH2 0xF21 DUP3 DUP5 PUSH2 0x2918 JUMP JUMPDEST POP DUP2 DUP4 PUSH20 0xFFFFFFFFFFFFFFFFFFFFFFFFFFFFFFFFFFFFFFFF AND PUSH32 0xEA83A7CAEF01824E96446A8C4BC8FF4669EDD99E129B53E32C077F85D2168081 PUSH1 0x40 MLOAD PUSH1 0x40 MLOAD DUP1 SWAP2 SUB SWAP1 LOG3 POP POP POP JUMP JUMPDEST PUSH0 DUP1 PUSH0 DUP4 DUP2 MSTORE PUSH1 0x20 ADD SWAP1 DUP2 MSTORE PUSH1 0x20 ADD PUSH0 KECCAK256 PUSH1 0x1 ADD SLOAD SWAP1 POP SWAP2 SWAP1 POP JUMP JUMPDEST PUSH32 0xA49807205CE4D355092EF5A8A18F56E8913CF4A201FBE287825B095693C21775 PUSH2 0xFB1 DUP2 PUSH2 0x27D1 JUMP JUMPDEST PUSH2 0xFB9 PUSH2 0x27E5 JUMP JUMPDEST PUSH0 PUSH20 0xFFFFFFFFFFFFFFFFFFFFFFFFFFFFFFFFFFFFFFFF AND DUP4 PUSH20 0xFFFFFFFFFFFFFFFFFFFFFFFFFFFFFFFFFFFFFFFF AND SUB PUSH2 0x1027 JUMPI PUSH1 0x40 MLOAD PUSH32 0x8C379A000000000000000000000000000000000000000000000000000000000 DUP2 MSTORE PUSH1 0x4 ADD PUSH2 0x101E SWAP1 PUSH2 0x37CF JUMP JUMPDEST PUSH1 0x40 MLOAD DUP1 SWAP2 SUB SWAP1 REVERT JUMPDEST PUSH0 PUSH1 0x4 PUSH0 DUP6 PUSH20 0xFFFFFFFFFFFFFFFFFFFFFFFFFFFFFFFFFFFFFFFF AND PUSH20 0xFFFFFFFFFFFFFFFFFFFFFFFFFFFFFFFFFFFFFFFF AND DUP2 MSTORE PUSH1 0x20 ADD SWAP1 DUP2 MSTORE PUSH1 0x20 ADD PUSH0 KECCAK256 PUSH0 DUP5 DUP2 MSTORE PUSH1 0x20 ADD SWAP1 DUP2 MSTORE PUSH1 0x20 ADD PUSH0 KECCAK256 SWAP1 POP DUP1 PUSH1 0x3 ADD PUSH0 SWAP1 SLOAD SWAP1 PUSH2 0x100 EXP SWAP1 DIV PUSH1 0xFF AND PUSH2 0x10C6 JUMPI PUSH1 0x40 MLOAD PUSH32 0x8C379A000000000000000000000000000000000000000000000000000000000 DUP2 MSTORE PUSH1 0x4 ADD PUSH2 0x10BD SWAP1 PUSH2 0x3837 JUMP JUMPDEST PUSH1 0x40 MLOAD DUP1 SWAP2 SUB SWAP1 REVERT JUMPDEST PUSH0 DUP2 PUSH1 0x3 ADD PUSH0 PUSH2 0x100 EXP DUP2 SLOAD DUP2 PUSH1 0xFF MUL NOT AND SWAP1 DUP4 ISZERO ISZERO MUL OR SWAP1 SSTORE POP PUSH1 0x1 DUP2 PUSH1 0x3 ADD PUSH1 0x1 PUSH2 0x100 EXP DUP2 SLOAD DUP2 PUSH1 0xFF MUL NOT AND SWAP1 DUP4 ISZERO ISZERO MUL OR SWAP1 SSTORE POP PUSH2 0x1108 DUP5 DUP5 PUSH2 0x2A01 JUMP JUMPDEST PUSH2 0x1112 DUP4 DUP6 PUSH2 0x282F JUMP JUMPDEST POP DUP3 DUP5 PUSH20 0xFFFFFFFFFFFFFFFFFFFFFFFFFFFFFFFFFFFFFFFF AND PUSH32 0x7EB8B9D1E030C150EF76A2962C9E6F78AF369EB66F093314F8B59040FC5992DA PUSH1 0x40 MLOAD PUSH1 0x40 MLOAD DUP1 SWAP2 SUB SWAP1 LOG3 DUP3 DUP5 PUSH20 0xFFFFFFFFFFFFFFFFFFFFFFFFFFFFFFFFFFFFFFFF AND PUSH32 0x666448AAE9B9C8249FD8213A35A9C10218A0EAC2FB39B96ED90C67214C7E761 PUSH1 0x40 MLOAD PUSH1 0x40 MLOAD DUP1 SWAP2 SUB SWAP1 LOG3 POP POP POP POP JUMP JUMPDEST PUSH2 0x11AA DUP3 PUSH2 0xF6B JUMP JUMPDEST PUSH2 0x11B3 DUP2 PUSH2 0x27D1 JUMP JUMPDEST PUSH2 0x11BD DUP4 DUP4 PUSH2 0x282F JUMP JUMPDEST POP POP POP POP JUMP JUMPDEST PUSH32 0x709F71ABB733AA2493D642EC84D615695650E6806FD401C97E1FECBD9C84C1D6 DUP2 JUMP JUMPDEST PUSH2 0x11EF PUSH2 0x2C83 JUMP JUMPDEST PUSH20 0xFFFFFFFFFFFFFFFFFFFFFFFFFFFFFFFFFFFFFFFF AND DUP2 PUSH20 0xFFFFFFFFFFFFFFFFFFFFFFFFFFFFFFFFFFFFFFFF AND EQ PUSH2 0x1253 JUMPI PUSH1 0x40 MLOAD PUSH32 0x6697B23200000000000000000000000000000000000000000000000000000000 DUP2 MSTORE PUSH1 0x4 ADD PUSH1 0x40 MLOAD DUP1 SWAP2 SUB SWAP1 REVERT JUMPDEST PUSH2 0x125D DUP3 DUP3 PUSH2 0x2918 JUMP JUMPDEST POP POP POP JUMP JUMPDEST PUSH1 0x5 DUP2 DUP2 SLOAD DUP2 LT PUSH2 0x1271 JUMPI PUSH0 DUP1 REVERT JUMPDEST SWAP1 PUSH0 MSTORE PUSH1 0x20 PUSH0 KECCAK256 SWAP1 PUSH1 0x4 MUL ADD PUSH0 SWAP2 POP SWAP1 POP DUP1 PUSH0 ADD PUSH0 SWAP1 SLOAD SWAP1 PUSH2 0x100 EXP SWAP1 DIV PUSH20 0xFFFFFFFFFFFFFFFFFFFFFFFFFFFFFFFFFFFFFFFF AND SWAP1 DUP1 PUSH1 0x1 ADD SLOAD SWAP1 DUP1 PUSH1 0x2 ADD DUP1 SLOAD PUSH2 0x12BB SWAP1 PUSH2 0x3755 JUMP JUMPDEST DUP1 PUSH1 0x1F ADD PUSH1 0x20 DUP1 SWAP2 DIV MUL PUSH1 0x20 ADD PUSH1 0x40 MLOAD SWAP1 DUP2 ADD PUSH1 0x40 MSTORE DUP1 SWAP3 SWAP2 SWAP1 DUP2 DUP2 MSTORE PUSH1 0x20 ADD DUP3 DUP1 SLOAD PUSH2 0x12E7 SWAP1 PUSH2 0x3755 JUMP JUMPDEST DUP1 ISZERO PUSH2 0x1332 JUMPI DUP1 PUSH1 0x1F LT PUSH2 0x1309 JUMPI PUSH2 0x100 DUP1 DUP4 SLOAD DIV MUL DUP4 MSTORE SWAP2 PUSH1 0x20 ADD SWAP2 PUSH2 0x1332 JUMP JUMPDEST DUP3 ADD SWAP2 SWAP1 PUSH0 MSTORE PUSH1 0x20 PUSH0 KECCAK256 SWAP1 JUMPDEST DUP2 SLOAD DUP2 MSTORE SWAP1 PUSH1 0x1 ADD SWAP1 PUSH1 0x20 ADD DUP1 DUP4 GT PUSH2 0x1315 JUMPI DUP3 SWAP1 SUB PUSH1 0x1F AND DUP3 ADD SWAP2 JUMPDEST POP POP POP POP POP SWAP1 DUP1 PUSH1 0x3 ADD PUSH0 SWAP1 SLOAD SWAP1 PUSH2 0x100 EXP SWAP1 DIV PUSH1 0xFF AND SWAP1 DUP1 PUSH1 0x3 ADD PUSH1 0x1 SWAP1 SLOAD SWAP1 PUSH2 0x100 EXP SWAP1 DIV PUSH1 0xFF AND SWAP1 POP DUP6 JUMP JUMPDEST PUSH32 0xA49807205CE4D355092EF5A8A18F56E8913CF4A201FBE287825B095693C21775 PUSH2 0x138B DUP2 PUSH2 0x27D1 JUMP JUMPDEST PUSH2 0x1393 PUSH2 0x2C8A JUMP JUMPDEST POP JUMP JUMPDEST PUSH0 PUSH1 0x1 PUSH0 SWAP1 SLOAD SWAP1 PUSH2 0x100 EXP SWAP1 DIV PUSH1 0xFF AND SWAP1 POP SWAP1 JUMP JUMPDEST PUSH1 0x60 DUP1 PUSH1 0x60 DUP1 PUSH0 DUP1 PUSH1 0x2 PUSH0 DUP9 PUSH20 0xFFFFFFFFFFFFFFFFFFFFFFFFFFFFFFFFFFFFFFFF AND PUSH20 0xFFFFFFFFFFFFFFFFFFFFFFFFFFFFFFFFFFFFFFFF AND DUP2 MSTORE PUSH1 0x20 ADD SWAP1 DUP2 MSTORE PUSH1 0x20 ADD PUSH0 KECCAK256 PUSH1 0x40 MLOAD DUP1 PUSH1 0xA0 ADD PUSH1 0x40 MSTORE SWAP1 DUP2 PUSH0 DUP3 ADD DUP1 SLOAD PUSH2 0x140A SWAP1 PUSH2 0x3755 JUMP JUMPDEST DUP1 PUSH1 0x1F ADD PUSH1 0x20 DUP1 SWAP2 DIV MUL PUSH1 0x20 ADD PUSH1 0x40 MLOAD SWAP1 DUP2 ADD PUSH1 0x40 MSTORE DUP1 SWAP3 SWAP2 SWAP1 DUP2 DUP2 MSTORE PUSH1 0x20 ADD DUP3 DUP1 SLOAD PUSH2 0x1436 SWAP1 PUSH2 0x3755 JUMP JUMPDEST DUP1 ISZERO PUSH2 0x1481 JUMPI DUP1 PUSH1 0x1F LT PUSH2 0x1458 JUMPI PUSH2 0x100 DUP1 DUP4 SLOAD DIV MUL DUP4 MSTORE SWAP2 PUSH1 0x20 ADD SWAP2 PUSH2 0x1481 JUMP JUMPDEST DUP3 ADD SWAP2 SWAP1 PUSH0 MSTORE PUSH1 0x20 PUSH0 KECCAK256 SWAP1 JUMPDEST DUP2 SLOAD DUP2 MSTORE SWAP1 PUSH1 0x1 ADD SWAP1 PUSH1 0x20 ADD DUP1 DUP4 GT PUSH2 0x1464 JUMPI DUP3 SWAP1 SUB PUSH1 0x1F AND DUP3 ADD SWAP2 JUMPDEST POP POP POP POP POP DUP2 MSTORE PUSH1 0x20 ADD PUSH1 0x1 DUP3 ADD DUP1 SLOAD PUSH2 0x149A SWAP1 PUSH2 0x3755 JUMP JUMPDEST DUP1 PUSH1 0x1F ADD PUSH1 0x20 DUP1 SWAP2 DIV MUL PUSH1 0x20 ADD PUSH1 0x40 MLOAD SWAP1 DUP2 ADD PUSH1 0x40 MSTORE DUP1 SWAP3 SWAP2 SWAP1 DUP2 DUP2 MSTORE PUSH1 0x20 ADD DUP3 DUP1 SLOAD PUSH2 0x14C6 SWAP1 PUSH2 0x3755 JUMP JUMPDEST DUP1 ISZERO PUSH2 0x1511 JUMPI DUP1 PUSH1 0x1F LT PUSH2 0x14E8 JUMPI PUSH2 0x100 DUP1 DUP4 SLOAD DIV MUL DUP4 MSTORE SWAP2 PUSH1 0x20 ADD SWAP2 PUSH2 0x1511 JUMP JUMPDEST DUP3 ADD SWAP2 SWAP1 PUSH0 MSTORE PUSH1 0x20 PUSH0 KECCAK256 SWAP1 JUMPDEST DUP2 SLOAD DUP2 MSTORE SWAP1 PUSH1 0x1 ADD SWAP1 PUSH1 0x20 ADD DUP1 DUP4 GT PUSH2 0x14F4 JUMPI DUP3 SWAP1 SUB PUSH1 0x1F AND DUP3 ADD SWAP2 JUMPDEST POP POP POP POP POP DUP2 MSTORE PUSH1 0x20 ADD PUSH1 0x2 DUP3 ADD DUP1 SLOAD PUSH2 0x152A SWAP1 PUSH2 0x3755 JUMP JUMPDEST DUP1 PUSH1 0x1F ADD PUSH1 0x20 DUP1 SWAP2 DIV MUL PUSH1 0x20 ADD PUSH1 0x40 MLOAD SWAP1 DUP2 ADD PUSH1 0x40 MSTORE DUP1 SWAP3 SWAP2 SWAP1 DUP2 DUP2 MSTORE PUSH1 0x20 ADD DUP3 DUP1 SLOAD PUSH2 0x1556 SWAP1 PUSH2 0x3755 JUMP JUMPDEST DUP1 ISZERO PUSH2 0x15A1 JUMPI DUP1 PUSH1 0x1F LT PUSH2 0x1578 JUMPI PUSH2 0x100 DUP1 DUP4 SLOAD DIV MUL DUP4 MSTORE SWAP2 PUSH1 0x20 ADD SWAP2 PUSH2 0x15A1 JUMP JUMPDEST DUP3 ADD SWAP2 SWAP1 PUSH0 MSTORE PUSH1 0x20 PUSH0 KECCAK256 SWAP1 JUMPDEST DUP2 SLOAD DUP2 MSTORE SWAP1 PUSH1 0x1 ADD SWAP1 PUSH1 0x20 ADD DUP1 DUP4 GT PUSH2 0x1584 JUMPI DUP3 SWAP1 SUB PUSH1 0x1F AND DUP3 ADD SWAP2 JUMPDEST POP POP POP POP POP DUP2 MSTORE PUSH1 0x20 ADD PUSH1 0x3 DUP3 ADD DUP1 SLOAD PUSH2 0x15BA SWAP1 PUSH2 0x3755 JUMP JUMPDEST DUP1 PUSH1 0x1F ADD PUSH1 0x20 DUP1 SWAP2 DIV MUL PUSH1 0x20 ADD PUSH1 0x40 MLOAD SWAP1 DUP2 ADD PUSH1 0x40 MSTORE DUP1 SWAP3 SWAP2 SWAP1 DUP2 DUP2 MSTORE PUSH1 0x20 ADD DUP3 DUP1 SLOAD PUSH2 0x15E6 SWAP1 PUSH2 0x3755 JUMP JUMPDEST DUP1 ISZERO PUSH2 0x1631 JUMPI DUP1 PUSH1 0x1F LT PUSH2 0x1608 JUMPI PUSH2 0x100 DUP1 DUP4 SLOAD DIV MUL DUP4 MSTORE SWAP2 PUSH1 0x20 ADD SWAP2 PUSH2 0x1631 JUMP JUMPDEST DUP3 ADD SWAP2 SWAP1 PUSH0 MSTORE PUSH1 0x20 PUSH0 KECCAK256 SWAP1 JUMPDEST DUP2 SLOAD DUP2 MSTORE SWAP1 PUSH1 0x1 ADD SWAP1 PUSH1 0x20 ADD DUP1 DUP4 GT PUSH2 0x1614 JUMPI DUP3 SWAP1 SUB PUSH1 0x1F AND DUP3 ADD SWAP2 JUMPDEST POP POP POP POP POP DUP2 MSTORE PUSH1 0x20 ADD PUSH1 0x4 DUP3 ADD PUSH0 SWAP1 SLOAD SWAP1 PUSH2 0x100 EXP SWAP1 DIV PUSH20 0xFFFFFFFFFFFFFFFFFFFFFFFFFFFFFFFFFFFFFFFF AND PUSH20 0xFFFFFFFFFFFFFFFFFFFFFFFFFFFFFFFFFFFFFFFF AND PUSH20 0xFFFFFFFFFFFFFFFFFFFFFFFFFFFFFFFFFFFFFFFF AND DUP2 MSTORE POP POP SWAP1 POP DUP1 PUSH0 ADD MLOAD DUP2 PUSH1 0x20 ADD MLOAD DUP3 PUSH1 0x40 ADD MLOAD DUP4 PUSH1 0x60 ADD MLOAD DUP5 PUSH1 0x80 ADD MLOAD SWAP6 POP SWAP6 POP SWAP6 POP SWAP6 POP SWAP6 POP POP SWAP2 SWAP4 SWAP6 SWAP1 SWAP3 SWAP5 POP JUMP JUMPDEST PUSH32 0xA49807205CE4D355092EF5A8A18F56E8913CF4A201FBE287825B095693C21775 DUP2 JUMP JUMPDEST PUSH2 0x16E9 PUSH2 0x27E5 JUMP JUMPDEST PUSH2 0x16F3 DUP3 CALLER PUSH2 0x214E JUMP JUMPDEST ISZERO PUSH2 0x1733 JUMPI PUSH1 0x40 MLOAD PUSH32 0x8C379A000000000000000000000000000000000000000000000000000000000 DUP2 MSTORE PUSH1 0x4 ADD PUSH2 0x172A SWAP1 PUSH2 0x389F JUMP JUMPDEST PUSH1 0x40 MLOAD DUP1 SWAP2 SUB SWAP1 REVERT JUMPDEST PUSH0 DUP2 MLOAD GT PUSH2 0x1776 JUMPI PUSH1 0x40 MLOAD PUSH32 0x8C379A000000000000000000000000000000000000000000000000000000000 DUP2 MSTORE PUSH1 0x4 ADD PUSH2 0x176D SWAP1 PUSH2 0x3907 JUMP JUMPDEST PUSH1 0x40 MLOAD DUP1 SWAP2 SUB SWAP1 REVERT JUMPDEST PUSH1 0x4 PUSH0 CALLER PUSH20 0xFFFFFFFFFFFFFFFFFFFFFFFFFFFFFFFFFFFFFFFF AND PUSH20 0xFFFFFFFFFFFFFFFFFFFFFFFFFFFFFFFFFFFFFFFF AND DUP2 MSTORE PUSH1 0x20 ADD SWAP1 DUP2 MSTORE PUSH1 0x20 ADD PUSH0 KECCAK256 PUSH0 DUP4 DUP2 MSTORE PUSH1 0x20 ADD SWAP1 DUP2 MSTORE PUSH1 0x20 ADD PUSH0 KECCAK256 PUSH1 0x3 ADD PUSH0 SWAP1 SLOAD SWAP1 PUSH2 0x100 EXP SWAP1 DIV PUSH1 0xFF AND ISZERO PUSH2 0x1812 JUMPI PUSH1 0x40 MLOAD PUSH32 0x8C379A000000000000000000000000000000000000000000000000000000000 DUP2 MSTORE PUSH1 0x4 ADD PUSH2 0x1809 SWAP1 PUSH2 0x396F JUMP JUMPDEST PUSH1 0x40 MLOAD DUP1 SWAP2 SUB SWAP1 REVERT JUMPDEST PUSH0 PUSH1 0x40 MLOAD DUP1 PUSH1 0xA0 ADD PUSH1 0x40 MSTORE DUP1 CALLER PUSH20 0xFFFFFFFFFFFFFFFFFFFFFFFFFFFFFFFFFFFFFFFF AND DUP2 MSTORE PUSH1 0x20 ADD DUP5 DUP2 MSTORE PUSH1 0x20 ADD DUP4 DUP2 MSTORE PUSH1 0x20 ADD PUSH1 0x1 ISZERO ISZERO DUP2 MSTORE PUSH1 0x20 ADD PUSH0 ISZERO ISZERO DUP2 MSTORE POP SWAP1 POP DUP1 PUSH1 0x4 PUSH0 CALLER PUSH20 0xFFFFFFFFFFFFFFFFFFFFFFFFFFFFFFFFFFFFFFFF AND PUSH20 0xFFFFFFFFFFFFFFFFFFFFFFFFFFFFFFFFFFFFFFFF AND DUP2 MSTORE PUSH1 0x20 ADD SWAP1 DUP2 MSTORE PUSH1 0x20 ADD PUSH0 KECCAK256 PUSH0 DUP6 DUP2 MSTORE PUSH1 0x20 ADD SWAP1 DUP2 MSTORE PUSH1 0x20 ADD PUSH0 KECCAK256 PUSH0 DUP3 ADD MLOAD DUP2 PUSH0 ADD PUSH0 PUSH2 0x100 EXP DUP2 SLOAD DUP2 PUSH20 0xFFFFFFFFFFFFFFFFFFFFFFFFFFFFFFFFFFFFFFFF MUL NOT AND SWAP1 DUP4 PUSH20 0xFFFFFFFFFFFFFFFFFFFFFFFFFFFFFFFFFFFFFFFF AND MUL OR SWAP1 SSTORE POP PUSH1 0x20 DUP3 ADD MLOAD DUP2 PUSH1 0x1 ADD SSTORE PUSH1 0x40 DUP3 ADD MLOAD DUP2 PUSH1 0x2 ADD SWAP1 DUP2 PUSH2 0x1907 SWAP2 SWAP1 PUSH2 0x3B2A JUMP JUMPDEST POP PUSH1 0x60 DUP3 ADD MLOAD DUP2 PUSH1 0x3 ADD PUSH0 PUSH2 0x100 EXP DUP2 SLOAD DUP2 PUSH1 0xFF MUL NOT AND SWAP1 DUP4 ISZERO ISZERO MUL OR SWAP1 SSTORE POP PUSH1 0x80 DUP3 ADD MLOAD DUP2 PUSH1 0x3 ADD PUSH1 0x1 PUSH2 0x100 EXP DUP2 SLOAD DUP2 PUSH1 0xFF MUL NOT AND SWAP1 DUP4 ISZERO ISZERO MUL OR SWAP1 SSTORE POP SWAP1 POP POP PUSH1 0x5 DUP2 SWAP1 DUP1 PUSH1 0x1 DUP2 SLOAD ADD DUP1 DUP3 SSTORE DUP1 SWAP2 POP POP PUSH1 0x1 SWAP1 SUB SWAP1 PUSH0 MSTORE PUSH1 0x20 PUSH0 KECCAK256 SWAP1 PUSH1 0x4 MUL ADD PUSH0 SWAP1 SWAP2 SWAP1 SWAP2 SWAP1 SWAP2 POP PUSH0 DUP3 ADD MLOAD DUP2 PUSH0 ADD PUSH0 PUSH2 0x100 EXP DUP2 SLOAD DUP2 PUSH20 0xFFFFFFFFFFFFFFFFFFFFFFFFFFFFFFFFFFFFFFFF MUL NOT AND SWAP1 DUP4 PUSH20 0xFFFFFFFFFFFFFFFFFFFFFFFFFFFFFFFFFFFFFFFF AND MUL OR SWAP1 SSTORE POP PUSH1 0x20 DUP3 ADD MLOAD DUP2 PUSH1 0x1 ADD SSTORE PUSH1 0x40 DUP3 ADD MLOAD DUP2 PUSH1 0x2 ADD SWAP1 DUP2 PUSH2 0x19D6 SWAP2 SWAP1 PUSH2 0x3B2A JUMP JUMPDEST POP PUSH1 0x60 DUP3 ADD MLOAD DUP2 PUSH1 0x3 ADD PUSH0 PUSH2 0x100 EXP DUP2 SLOAD DUP2 PUSH1 0xFF MUL NOT AND SWAP1 DUP4 ISZERO ISZERO MUL OR SWAP1 SSTORE POP PUSH1 0x80 DUP3 ADD MLOAD DUP2 PUSH1 0x3 ADD PUSH1 0x1 PUSH2 0x100 EXP DUP2 SLOAD DUP2 PUSH1 0xFF MUL NOT AND SWAP1 DUP4 ISZERO ISZERO MUL OR SWAP1 SSTORE POP POP POP DUP3 CALLER PUSH20 0xFFFFFFFFFFFFFFFFFFFFFFFFFFFFFFFFFFFFFFFF AND PUSH32 0x98F6F2D133C420A141A671CE9479E3956417C7F04BD370DE1CD64CE10D385D94 DUP5 PUSH1 0x40 MLOAD PUSH2 0x1A5F SWAP2 SWAP1 PUSH2 0x3BF9 JUMP JUMPDEST PUSH1 0x40 MLOAD DUP1 SWAP2 SUB SWAP1 LOG3 POP POP POP JUMP JUMPDEST PUSH2 0x1A74 PUSH2 0x27E5 JUMP JUMPDEST PUSH0 DUP5 MLOAD GT PUSH2 0x1AB7 JUMPI PUSH1 0x40 MLOAD PUSH32 0x8C379A000000000000000000000000000000000000000000000000000000000 DUP2 MSTORE PUSH1 0x4 ADD PUSH2 0x1AAE SWAP1 PUSH2 0x3C63 JUMP JUMPDEST PUSH1 0x40 MLOAD DUP1 SWAP2 SUB SWAP1 REVERT JUMPDEST PUSH0 DUP4 MLOAD GT PUSH2 0x1AFA JUMPI PUSH1 0x40 MLOAD PUSH32 0x8C379A000000000000000000000000000000000000000000000000000000000 DUP2 MSTORE PUSH1 0x4 ADD PUSH2 0x1AF1 SWAP1 PUSH2 0x3CCB JUMP JUMPDEST PUSH1 0x40 MLOAD DUP1 SWAP2 SUB SWAP1 REVERT JUMPDEST PUSH0 DUP3 MLOAD GT PUSH2 0x1B3D JUMPI PUSH1 0x40 MLOAD PUSH32 0x8C379A000000000000000000000000000000000000000000000000000000000 DUP2 MSTORE PUSH1 0x4 ADD PUSH2 0x1B34 SWAP1 PUSH2 0x3D33 JUMP JUMPDEST PUSH1 0x40 MLOAD DUP1 SWAP2 SUB SWAP1 REVERT JUMPDEST PUSH0 PUSH1 0x40 MLOAD DUP1 PUSH1 0xA0 ADD PUSH1 0x40 MSTORE DUP1 DUP7 DUP2 MSTORE PUSH1 0x20 ADD DUP6 DUP2 MSTORE PUSH1 0x20 ADD DUP5 DUP2 MSTORE PUSH1 0x20 ADD DUP4 DUP2 MSTORE PUSH1 0x20 ADD CALLER PUSH20 0xFFFFFFFFFFFFFFFFFFFFFFFFFFFFFFFFFFFFFFFF AND DUP2 MSTORE POP SWAP1 POP PUSH0 DUP1 PUSH20 0xFFFFFFFFFFFFFFFFFFFFFFFFFFFFFFFFFFFFFFFF AND PUSH1 0x2 PUSH0 CALLER PUSH20 0xFFFFFFFFFFFFFFFFFFFFFFFFFFFFFFFFFFFFFFFF AND PUSH20 0xFFFFFFFFFFFFFFFFFFFFFFFFFFFFFFFFFFFFFFFF AND DUP2 MSTORE PUSH1 0x20 ADD SWAP1 DUP2 MSTORE PUSH1 0x20 ADD PUSH0 KECCAK256 PUSH1 0x4 ADD PUSH0 SWAP1 SLOAD SWAP1 PUSH2 0x100 EXP SWAP1 DIV PUSH20 0xFFFFFFFFFFFFFFFFFFFFFFFFFFFFFFFFFFFFFFFF AND PUSH20 0xFFFFFFFFFFFFFFFFFFFFFFFFFFFFFFFFFFFFFFFF AND EQ ISZERO SWAP1 POP PUSH1 0x40 MLOAD DUP1 PUSH1 0xA0 ADD PUSH1 0x40 MSTORE DUP1 CALLER PUSH20 0xFFFFFFFFFFFFFFFFFFFFFFFFFFFFFFFFFFFFFFFF AND DUP2 MSTORE PUSH1 0x20 ADD DUP4 DUP2 MSTORE PUSH1 0x20 ADD DUP3 ISZERO ISZERO DUP2 MSTORE PUSH1 0x20 ADD PUSH1 0x1 ISZERO ISZERO DUP2 MSTORE PUSH1 0x20 ADD PUSH0 ISZERO ISZERO DUP2 MSTORE POP PUSH1 0x3 PUSH0 CALLER PUSH20 0xFFFFFFFFFFFFFFFFFFFFFFFFFFFFFFFFFFFFFFFF AND PUSH20 0xFFFFFFFFFFFFFFFFFFFFFFFFFFFFFFFFFFFFFFFF AND DUP2 MSTORE PUSH1 0x20 ADD SWAP1 DUP2 MSTORE PUSH1 0x20 ADD PUSH0 KECCAK256 PUSH0 DUP3 ADD MLOAD DUP2 PUSH0 ADD PUSH0 PUSH2 0x100 EXP DUP2 SLOAD DUP2 PUSH20 0xFFFFFFFFFFFFFFFFFFFFFFFFFFFFFFFFFFFFFFFF MUL NOT AND SWAP1 DUP4 PUSH20 0xFFFFFFFFFFFFFFFFFFFFFFFFFFFFFFFFFFFFFFFF AND MUL OR SWAP1 SSTORE POP PUSH1 0x20 DUP3 ADD MLOAD DUP2 PUSH1 0x1 ADD PUSH0 DUP3 ADD MLOAD DUP2 PUSH0 ADD SWAP1 DUP2 PUSH2 0x1CF0 SWAP2 SWAP1 PUSH2 0x3B2A JUMP JUMPDEST POP PUSH1 0x20 DUP3 ADD MLOAD DUP2 PUSH1 0x1 ADD SWAP1 DUP2 PUSH2 0x1D06 SWAP2 SWAP1 PUSH2 0x3B2A JUMP JUMPDEST POP PUSH1 0x40 DUP3 ADD MLOAD DUP2 PUSH1 0x2 ADD SWAP1 DUP2 PUSH2 0x1D1C SWAP2 SWAP1 PUSH2 0x3B2A JUMP JUMPDEST POP PUSH1 0x60 DUP3 ADD MLOAD DUP2 PUSH1 0x3 ADD SWAP1 DUP2 PUSH2 0x1D32 SWAP2 SWAP1 PUSH2 0x3B2A JUMP JUMPDEST POP PUSH1 0x80 DUP3 ADD MLOAD DUP2 PUSH1 0x4 ADD PUSH0 PUSH2 0x100 EXP DUP2 SLOAD DUP2 PUSH20 0xFFFFFFFFFFFFFFFFFFFFFFFFFFFFFFFFFFFFFFFF MUL NOT AND SWAP1 DUP4 PUSH20 0xFFFFFFFFFFFFFFFFFFFFFFFFFFFFFFFFFFFFFFFF AND MUL OR SWAP1 SSTORE POP POP POP PUSH1 0x40 DUP3 ADD MLOAD DUP2 PUSH1 0x6 ADD PUSH0 PUSH2 0x100 EXP DUP2 SLOAD DUP2 PUSH1 0xFF MUL NOT AND SWAP1 DUP4 ISZERO ISZERO MUL OR SWAP1 SSTORE POP PUSH1 0x60 DUP3 ADD MLOAD DUP2 PUSH1 0x6 ADD PUSH1 0x1 PUSH2 0x100 EXP DUP2 SLOAD DUP2 PUSH1 0xFF MUL NOT AND SWAP1 DUP4 ISZERO ISZERO MUL OR SWAP1 SSTORE POP PUSH1 0x80 DUP3 ADD MLOAD DUP2 PUSH1 0x6 ADD PUSH1 0x2 PUSH2 0x100 EXP DUP2 SLOAD DUP2 PUSH1 0xFF MUL NOT AND SWAP1 DUP4 ISZERO ISZERO MUL OR SWAP1 SSTORE POP SWAP1 POP POP CALLER PUSH20 0xFFFFFFFFFFFFFFFFFFFFFFFFFFFFFFFFFFFFFFFF AND PUSH32 0x1F10437CB6D722F3E8A9E771FCDE4FBF82D9FDA13BB2666EA9E9EAA0310DADD3 DUP3 PUSH1 0x40 MLOAD PUSH2 0x1E23 SWAP2 SWAP1 PUSH2 0x2EE9 JUMP JUMPDEST PUSH1 0x40 MLOAD DUP1 SWAP2 SUB SWAP1 LOG2 POP POP POP POP POP POP JUMP JUMPDEST PUSH32 0x876BBBF5907D194533FAADCEAD8CFA42AD0F2B1653CC89D94228F5C04F389A15 DUP2 JUMP JUMPDEST PUSH32 0xA49807205CE4D355092EF5A8A18F56E8913CF4A201FBE287825B095693C21775 PUSH2 0x1E81 DUP2 PUSH2 0x27D1 JUMP JUMPDEST PUSH2 0x1E89 PUSH2 0x27E5 JUMP JUMPDEST PUSH0 PUSH1 0x3 PUSH0 DUP5 PUSH20 0xFFFFFFFFFFFFFFFFFFFFFFFFFFFFFFFFFFFFFFFF AND PUSH20 0xFFFFFFFFFFFFFFFFFFFFFFFFFFFFFFFFFFFFFFFF AND DUP2 MSTORE PUSH1 0x20 ADD SWAP1 DUP2 MSTORE PUSH1 0x20 ADD PUSH0 KECCAK256 SWAP1 POP DUP1 PUSH1 0x6 ADD PUSH1 0x1 SWAP1 SLOAD SWAP1 PUSH2 0x100 EXP SWAP1 DIV PUSH1 0xFF AND PUSH2 0x1F1A JUMPI PUSH1 0x40 MLOAD PUSH32 0x8C379A000000000000000000000000000000000000000000000000000000000 DUP2 MSTORE PUSH1 0x4 ADD PUSH2 0x1F11 SWAP1 PUSH2 0x3837 JUMP JUMPDEST PUSH1 0x40 MLOAD DUP1 SWAP2 SUB SWAP1 REVERT JUMPDEST PUSH0 DUP2 PUSH1 0x6 ADD PUSH1 0x1 PUSH2 0x100 EXP DUP2 SLOAD DUP2 PUSH1 0xFF MUL NOT AND SWAP1 DUP4 ISZERO ISZERO MUL OR SWAP1 SSTORE POP PUSH0 DUP2 PUSH1 0x6 ADD PUSH1 0x2 PUSH2 0x100 EXP DUP2 SLOAD DUP2 PUSH1 0xFF MUL NOT AND SWAP1 DUP4 ISZERO ISZERO MUL OR SWAP1 SSTORE POP DUP3 PUSH20 0xFFFFFFFFFFFFFFFFFFFFFFFFFFFFFFFFFFFFFFFF AND PUSH32 0xCD974FC27E84980D07E91443E7189AF0CD0DC142C2AB04F1D8AF6352DE3B625B PUSH1 0x40 MLOAD PUSH1 0x40 MLOAD DUP1 SWAP2 SUB SWAP1 LOG2 POP POP POP JUMP JUMPDEST PUSH1 0x60 PUSH1 0x5 DUP1 SLOAD DUP1 PUSH1 0x20 MUL PUSH1 0x20 ADD PUSH1 0x40 MLOAD SWAP1 DUP2 ADD PUSH1 0x40 MSTORE DUP1 SWAP3 SWAP2 SWAP1 DUP2 DUP2 MSTORE PUSH1 0x20 ADD PUSH0 SWAP1 JUMPDEST DUP3 DUP3 LT ISZERO PUSH2 0x2110 JUMPI DUP4 DUP3 SWAP1 PUSH0 MSTORE PUSH1 0x20 PUSH0 KECCAK256 SWAP1 PUSH1 0x4 MUL ADD PUSH1 0x40 MLOAD DUP1 PUSH1 0xA0 ADD PUSH1 0x40 MSTORE SWAP1 DUP2 PUSH0 DUP3 ADD PUSH0 SWAP1 SLOAD SWAP1 PUSH2 0x100 EXP SWAP1 DIV PUSH20 0xFFFFFFFFFFFFFFFFFFFFFFFFFFFFFFFFFFFFFFFF AND PUSH20 0xFFFFFFFFFFFFFFFFFFFFFFFFFFFFFFFFFFFFFFFF AND PUSH20 0xFFFFFFFFFFFFFFFFFFFFFFFFFFFFFFFFFFFFFFFF AND DUP2 MSTORE PUSH1 0x20 ADD PUSH1 0x1 DUP3 ADD SLOAD DUP2 MSTORE PUSH1 0x20 ADD PUSH1 0x2 DUP3 ADD DUP1 SLOAD PUSH2 0x204C SWAP1 PUSH2 0x3755 JUMP JUMPDEST DUP1 PUSH1 0x1F ADD PUSH1 0x20 DUP1 SWAP2 DIV MUL PUSH1 0x20 ADD PUSH1 0x40 MLOAD SWAP1 DUP2 ADD PUSH1 0x40 MSTORE DUP1 SWAP3 SWAP2 SWAP1 DUP2 DUP2 MSTORE PUSH1 0x20 ADD DUP3 DUP1 SLOAD PUSH2 0x2078 SWAP1 PUSH2 0x3755 JUMP JUMPDEST DUP1 ISZERO PUSH2 0x20C3 JUMPI DUP1 PUSH1 0x1F LT PUSH2 0x209A JUMPI PUSH2 0x100 DUP1 DUP4 SLOAD DIV MUL DUP4 MSTORE SWAP2 PUSH1 0x20 ADD SWAP2 PUSH2 0x20C3 JUMP JUMPDEST DUP3 ADD SWAP2 SWAP1 PUSH0 MSTORE PUSH1 0x20 PUSH0 KECCAK256 SWAP1 JUMPDEST DUP2 SLOAD DUP2 MSTORE SWAP1 PUSH1 0x1 ADD SWAP1 PUSH1 0x20 ADD DUP1 DUP4 GT PUSH2 0x20A6 JUMPI DUP3 SWAP1 SUB PUSH1 0x1F AND DUP3 ADD SWAP2 JUMPDEST POP POP POP POP POP DUP2 MSTORE PUSH1 0x20 ADD PUSH1 0x3 DUP3 ADD PUSH0 SWAP1 SLOAD SWAP1 PUSH2 0x100 EXP SWAP1 DIV PUSH1 0xFF AND ISZERO ISZERO ISZERO ISZERO DUP2 MSTORE PUSH1 0x20 ADD PUSH1 0x3 DUP3 ADD PUSH1 0x1 SWAP1 SLOAD SWAP1 PUSH2 0x100 EXP SWAP1 DIV PUSH1 0xFF AND ISZERO ISZERO ISZERO ISZERO DUP2 MSTORE POP POP DUP2 MSTORE PUSH1 0x20 ADD SWAP1 PUSH1 0x1 ADD SWAP1 PUSH2 0x1FBD JUMP JUMPDEST POP POP POP POP SWAP1 POP SWAP1 JUMP JUMPDEST PUSH32 0xA49807205CE4D355092EF5A8A18F56E8913CF4A201FBE287825B095693C21775 PUSH2 0x2143 DUP2 PUSH2 0x27D1 JUMP JUMPDEST PUSH2 0x214B PUSH2 0x2CEB JUMP JUMPDEST POP JUMP JUMPDEST PUSH0 DUP1 PUSH0 DUP5 DUP2 MSTORE PUSH1 0x20 ADD SWAP1 DUP2 MSTORE PUSH1 0x20 ADD PUSH0 KECCAK256 PUSH0 ADD PUSH0 DUP4 PUSH20 0xFFFFFFFFFFFFFFFFFFFFFFFFFFFFFFFFFFFFFFFF AND PUSH20 0xFFFFFFFFFFFFFFFFFFFFFFFFFFFFFFFFFFFFFFFF AND DUP2 MSTORE PUSH1 0x20 ADD SWAP1 DUP2 MSTORE PUSH1 0x20 ADD PUSH0 KECCAK256 PUSH0 SWAP1 SLOAD SWAP1 PUSH2 0x100 EXP SWAP1 DIV PUSH1 0xFF AND SWAP1 POP SWAP3 SWAP2 POP POP JUMP JUMPDEST PUSH1 0x4 PUSH1 0x20 MSTORE DUP2 PUSH0 MSTORE PUSH1 0x40 PUSH0 KECCAK256 PUSH1 0x20 MSTORE DUP1 PUSH0 MSTORE PUSH1 0x40 PUSH0 KECCAK256 PUSH0 SWAP2 POP SWAP2 POP POP DUP1 PUSH0 ADD PUSH0 SWAP1 SLOAD SWAP1 PUSH2 0x100 EXP SWAP1 DIV PUSH20 0xFFFFFFFFFFFFFFFFFFFFFFFFFFFFFFFFFFFFFFFF AND SWAP1 DUP1 PUSH1 0x1 ADD SLOAD SWAP1 DUP1 PUSH1 0x2 ADD DUP1 SLOAD PUSH2 0x2206 SWAP1 PUSH2 0x3755 JUMP JUMPDEST DUP1 PUSH1 0x1F ADD PUSH1 0x20 DUP1 SWAP2 DIV MUL PUSH1 0x20 ADD PUSH1 0x40 MLOAD SWAP1 DUP2 ADD PUSH1 0x40 MSTORE DUP1 SWAP3 SWAP2 SWAP1 DUP2 DUP2 MSTORE PUSH1 0x20 ADD DUP3 DUP1 SLOAD PUSH2 0x2232 SWAP1 PUSH2 0x3755 JUMP JUMPDEST DUP1 ISZERO PUSH2 0x227D JUMPI DUP1 PUSH1 0x1F LT PUSH2 0x2254 JUMPI PUSH2 0x100 DUP1 DUP4 SLOAD DIV MUL DUP4 MSTORE SWAP2 PUSH1 0x20 ADD SWAP2 PUSH2 0x227D JUMP JUMPDEST DUP3 ADD SWAP2 SWAP1 PUSH0 MSTORE PUSH1 0x20 PUSH0 KECCAK256 SWAP1 JUMPDEST DUP2 SLOAD DUP2 MSTORE SWAP1 PUSH1 0x1 ADD SWAP1 PUSH1 0x20 ADD DUP1 DUP4 GT PUSH2 0x2260 JUMPI DUP3 SWAP1 SUB PUSH1 0x1F AND DUP3 ADD SWAP2 JUMPDEST POP POP POP POP POP SWAP1 DUP1 PUSH1 0x3 ADD PUSH0 SWAP1 SLOAD SWAP1 PUSH2 0x100 EXP SWAP1 DIV PUSH1 0xFF AND SWAP1 DUP1 PUSH1 0x3 ADD PUSH1 0x1 SWAP1 SLOAD SWAP1 PUSH2 0x100 EXP SWAP1 DIV PUSH1 0xFF AND SWAP1 POP DUP6 JUMP JUMPDEST PUSH32 0x329C74013BA5A00A181F8B3DC9D0AE428C8A88AD0625246C0382E31759B580DB DUP2 JUMP JUMPDEST PUSH0 DUP1 SHL DUP2 JUMP JUMPDEST PUSH32 0xA49807205CE4D355092EF5A8A18F56E8913CF4A201FBE287825B095693C21775 PUSH2 0x2300 DUP2 PUSH2 0x27D1 JUMP JUMPDEST PUSH2 0x2308 PUSH2 0x27E5 JUMP JUMPDEST PUSH0 PUSH20 0xFFFFFFFFFFFFFFFFFFFFFFFFFFFFFFFFFFFFFFFF AND DUP4 PUSH20 0xFFFFFFFFFFFFFFFFFFFFFFFFFFFFFFFFFFFFFFFF AND SUB PUSH2 0x2376 JUMPI PUSH1 0x40 MLOAD PUSH32 0x8C379A000000000000000000000000000000000000000000000000000000000 DUP2 MSTORE PUSH1 0x4 ADD PUSH2 0x236D SWAP1 PUSH2 0x37CF JUMP JUMPDEST PUSH1 0x40 MLOAD DUP1 SWAP2 SUB SWAP1 REVERT JUMPDEST PUSH0 PUSH1 0x4 PUSH0 DUP6 PUSH20 0xFFFFFFFFFFFFFFFFFFFFFFFFFFFFFFFFFFFFFFFF AND PUSH20 0xFFFFFFFFFFFFFFFFFFFFFFFFFFFFFFFFFFFFFFFF AND DUP2 MSTORE PUSH1 0x20 ADD SWAP1 DUP2 MSTORE PUSH1 0x20 ADD PUSH0 KECCAK256 PUSH0 DUP5 DUP2 MSTORE PUSH1 0x20 ADD SWAP1 DUP2 MSTORE PUSH1 0x20 ADD PUSH0 KECCAK256 SWAP1 POP DUP1 PUSH1 0x3 ADD PUSH0 SWAP1 SLOAD SWAP1 PUSH2 0x100 EXP SWAP1 DIV PUSH1 0xFF AND PUSH2 0x2415 JUMPI PUSH1 0x40 MLOAD PUSH32 0x8C379A000000000000000000000000000000000000000000000000000000000 DUP2 MSTORE PUSH1 0x4 ADD PUSH2 0x240C SWAP1 PUSH2 0x3837 JUMP JUMPDEST PUSH1 0x40 MLOAD DUP1 SWAP2 SUB SWAP1 REVERT JUMPDEST PUSH0 DUP2 PUSH1 0x3 ADD PUSH0 PUSH2 0x100 EXP DUP2 SLOAD DUP2 PUSH1 0xFF MUL NOT AND SWAP1 DUP4 ISZERO ISZERO MUL OR SWAP1 SSTORE POP PUSH0 DUP2 PUSH1 0x3 ADD PUSH1 0x1 PUSH2 0x100 EXP DUP2 SLOAD DUP2 PUSH1 0xFF MUL NOT AND SWAP1 DUP4 ISZERO ISZERO MUL OR SWAP1 SSTORE POP PUSH2 0x2456 DUP5 DUP5 PUSH2 0x2A01 JUMP JUMPDEST DUP3 DUP5 PUSH20 0xFFFFFFFFFFFFFFFFFFFFFFFFFFFFFFFFFFFFFFFF AND PUSH32 0x4B685AB8ACE04EF41F36CFA424816013417E507B3C57629FDD55778C29587527 PUSH1 0x40 MLOAD PUSH1 0x40 MLOAD DUP1 SWAP2 SUB SWAP1 LOG3 POP POP POP POP JUMP JUMPDEST PUSH32 0x1597BC5E34FF090612F53164E4E642D2AB4FC78BFFE19ED1B602A0D12559561A DUP2 JUMP JUMPDEST PUSH2 0x24CD DUP3 PUSH2 0xF6B JUMP JUMPDEST PUSH2 0x24D6 DUP2 PUSH2 0x27D1 JUMP JUMPDEST PUSH2 0x24E0 DUP4 DUP4 PUSH2 0x2918 JUMP JUMPDEST POP POP POP POP JUMP JUMPDEST PUSH32 0xA49807205CE4D355092EF5A8A18F56E8913CF4A201FBE287825B095693C21775 PUSH2 0x2510 DUP2 PUSH2 0x27D1 JUMP JUMPDEST PUSH2 0x2518 PUSH2 0x27E5 JUMP JUMPDEST PUSH0 PUSH1 0x3 PUSH0 DUP5 PUSH20 0xFFFFFFFFFFFFFFFFFFFFFFFFFFFFFFFFFFFFFFFF AND PUSH20 0xFFFFFFFFFFFFFFFFFFFFFFFFFFFFFFFFFFFFFFFF AND DUP2 MSTORE PUSH1 0x20 ADD SWAP1 DUP2 MSTORE PUSH1 0x20 ADD PUSH0 KECCAK256 SWAP1 POP DUP1 PUSH1 0x6 ADD PUSH1 0x1 SWAP1 SLOAD SWAP1 PUSH2 0x100 EXP SWAP1 DIV PUSH1 0xFF AND PUSH2 0x25A9 JUMPI PUSH1 0x40 MLOAD PUSH32 0x8C379A000000000000000000000000000000000000000000000000000000000 DUP2 MSTORE PUSH1 0x4 ADD PUSH2 0x25A0 SWAP1 PUSH2 0x3837 JUMP JUMPDEST PUSH1 0x40 MLOAD DUP1 SWAP2 SUB SWAP1 REVERT JUMPDEST PUSH0 DUP2 PUSH1 0x6 ADD PUSH1 0x1 PUSH2 0x100 EXP DUP2 SLOAD DUP2 PUSH1 0xFF MUL NOT AND SWAP1 DUP4 ISZERO ISZERO MUL OR SWAP1 SSTORE POP PUSH1 0x1 DUP2 PUSH1 0x6 ADD PUSH1 0x2 PUSH2 0x100 EXP DUP2 SLOAD DUP2 PUSH1 0xFF MUL NOT AND SWAP1 DUP4 ISZERO ISZERO MUL OR SWAP1 SSTORE POP DUP1 PUSH1 0x1 ADD PUSH1 0x2 PUSH0 DUP6 PUSH20 0xFFFFFFFFFFFFFFFFFFFFFFFFFFFFFFFFFFFFFFFF AND PUSH20 0xFFFFFFFFFFFFFFFFFFFFFFFFFFFFFFFFFFFFFFFF AND DUP2 MSTORE PUSH1 0x20 ADD SWAP1 DUP2 MSTORE PUSH1 0x20 ADD PUSH0 KECCAK256 PUSH0 DUP3 ADD DUP2 PUSH0 ADD SWAP1 DUP2 PUSH2 0x2635 SWAP2 SWAP1 PUSH2 0x3D66 JUMP JUMPDEST POP PUSH1 0x1 DUP3 ADD DUP2 PUSH1 0x1 ADD SWAP1 DUP2 PUSH2 0x264A SWAP2 SWAP1 PUSH2 0x3D66 JUMP JUMPDEST POP PUSH1 0x2 DUP3 ADD DUP2 PUSH1 0x2 ADD SWAP1 DUP2 PUSH2 0x265F SWAP2 SWAP1 PUSH2 0x3D66 JUMP JUMPDEST POP PUSH1 0x3 DUP3 ADD DUP2 PUSH1 0x3 ADD SWAP1 DUP2 PUSH2 0x2674 SWAP2 SWAP1 PUSH2 0x3D66 JUMP JUMPDEST POP PUSH1 0x4 DUP3 ADD PUSH0 SWAP1 SLOAD SWAP1 PUSH2 0x100 EXP SWAP1 DIV PUSH20 0xFFFFFFFFFFFFFFFFFFFFFFFFFFFFFFFFFFFFFFFF AND DUP2 PUSH1 0x4 ADD PUSH0 PUSH2 0x100 EXP DUP2 SLOAD DUP2 PUSH20 0xFFFFFFFFFFFFFFFFFFFFFFFFFFFFFFFFFFFFFFFF MUL NOT AND SWAP1 DUP4 PUSH20 0xFFFFFFFFFFFFFFFFFFFFFFFFFFFFFFFFFFFFFFFF AND MUL OR SWAP1 SSTORE POP SWAP1 POP POP DUP3 PUSH20 0xFFFFFFFFFFFFFFFFFFFFFFFFFFFFFFFFFFFFFFFF AND PUSH32 0xB6336AD1E7F2606F8F101B70BCEBBB79F8F2D57A54AF67E13F196FD0CB5F861E PUSH1 0x40 MLOAD PUSH1 0x40 MLOAD DUP1 SWAP2 SUB SWAP1 LOG2 DUP3 PUSH20 0xFFFFFFFFFFFFFFFFFFFFFFFFFFFFFFFFFFFFFFFF AND PUSH32 0xA267530518909239D6D9966F12BF391177DDE455B3233F6166AB8CD424F17FD5 PUSH1 0x40 MLOAD PUSH1 0x40 MLOAD DUP1 SWAP2 SUB SWAP1 LOG2 POP POP POP JUMP JUMPDEST PUSH0 PUSH32 0x1FFC9A700000000000000000000000000000000000000000000000000000000 PUSH28 0xFFFFFFFFFFFFFFFFFFFFFFFFFFFFFFFFFFFFFFFFFFFFFFFFFFFFFFFF NOT AND DUP3 PUSH28 0xFFFFFFFFFFFFFFFFFFFFFFFFFFFFFFFFFFFFFFFFFFFFFFFFFFFFFFFF NOT AND EQ SWAP1 POP SWAP2 SWAP1 POP JUMP JUMPDEST PUSH2 0x27E2 DUP2 PUSH2 0x27DD PUSH2 0x2C83 JUMP JUMPDEST PUSH2 0x2D4C JUMP JUMPDEST POP JUMP JUMPDEST PUSH2 0x27ED PUSH2 0x1396 JUMP JUMPDEST ISZERO PUSH2 0x282D JUMPI PUSH1 0x40 MLOAD PUSH32 0x8C379A000000000000000000000000000000000000000000000000000000000 DUP2 MSTORE PUSH1 0x4 ADD PUSH2 0x2824 SWAP1 PUSH2 0x3E95 JUMP JUMPDEST PUSH1 0x40 MLOAD DUP1 SWAP2 SUB SWAP1 REVERT JUMPDEST JUMP JUMPDEST PUSH0 PUSH2 0x283A DUP4 DUP4 PUSH2 0x214E JUMP JUMPDEST PUSH2 0x290E JUMPI PUSH1 0x1 PUSH0 DUP1 DUP6 DUP2 MSTORE PUSH1 0x20 ADD SWAP1 DUP2 MSTORE PUSH1 0x20 ADD PUSH0 KECCAK256 PUSH0 ADD PUSH0 DUP5 PUSH20 0xFFFFFFFFFFFFFFFFFFFFFFFFFFFFFFFFFFFFFFFF AND PUSH20 0xFFFFFFFFFFFFFFFFFFFFFFFFFFFFFFFFFFFFFFFF AND DUP2 MSTORE PUSH1 0x20 ADD SWAP1 DUP2 MSTORE PUSH1 0x20 ADD PUSH0 KECCAK256 PUSH0 PUSH2 0x100 EXP DUP2 SLOAD DUP2 PUSH1 0xFF MUL NOT AND SWAP1 DUP4 ISZERO ISZERO MUL OR SWAP1 SSTORE POP PUSH2 0x28AB PUSH2 0x2C83 JUMP JUMPDEST PUSH20 0xFFFFFFFFFFFFFFFFFFFFFFFFFFFFFFFFFFFFFFFF AND DUP3 PUSH20 0xFFFFFFFFFFFFFFFFFFFFFFFFFFFFFFFFFFFFFFFF AND DUP5 PUSH32 0x2F8788117E7EFF1D82E926EC794901D17C78024A50270940304540A733656F0D PUSH1 0x40 MLOAD PUSH1 0x40 MLOAD DUP1 SWAP2 SUB SWAP1 LOG4 PUSH1 0x1 SWAP1 POP PUSH2 0x2912 JUMP JUMPDEST PUSH0 SWAP1 POP JUMPDEST SWAP3 SWAP2 POP POP JUMP JUMPDEST PUSH0 PUSH2 0x2923 DUP4 DUP4 PUSH2 0x214E JUMP JUMPDEST ISZERO PUSH2 0x29F7 JUMPI PUSH0 DUP1 PUSH0 DUP6 DUP2 MSTORE PUSH1 0x20 ADD SWAP1 DUP2 MSTORE PUSH1 0x20 ADD PUSH0 KECCAK256 PUSH0 ADD PUSH0 DUP5 PUSH20 0xFFFFFFFFFFFFFFFFFFFFFFFFFFFFFFFFFFFFFFFF AND PUSH20 0xFFFFFFFFFFFFFFFFFFFFFFFFFFFFFFFFFFFFFFFF AND DUP2 MSTORE PUSH1 0x20 ADD SWAP1 DUP2 MSTORE PUSH1 0x20 ADD PUSH0 KECCAK256 PUSH0 PUSH2 0x100 EXP DUP2 SLOAD DUP2 PUSH1 0xFF MUL NOT AND SWAP1 DUP4 ISZERO ISZERO MUL OR SWAP1 SSTORE POP PUSH2 0x2994 PUSH2 0x2C83 JUMP JUMPDEST PUSH20 0xFFFFFFFFFFFFFFFFFFFFFFFFFFFFFFFFFFFFFFFF AND DUP3 PUSH20 0xFFFFFFFFFFFFFFFFFFFFFFFFFFFFFFFFFFFFFFFF AND DUP5 PUSH32 0xF6391F5C32D9C69D2A47EA670B442974B53935D1EDC7FD64EB21E047A839171B PUSH1 0x40 MLOAD PUSH1 0x40 MLOAD DUP1 SWAP2 SUB SWAP1 LOG4 PUSH1 0x1 SWAP1 POP PUSH2 0x29FB JUMP JUMPDEST PUSH0 SWAP1 POP JUMPDEST SWAP3 SWAP2 POP POP JUMP JUMPDEST PUSH0 JUMPDEST PUSH1 0x5 DUP1 SLOAD SWAP1 POP DUP2 LT ISZERO PUSH2 0x2C7E JUMPI DUP3 PUSH20 0xFFFFFFFFFFFFFFFFFFFFFFFFFFFFFFFFFFFFFFFF AND PUSH1 0x5 DUP3 DUP2 SLOAD DUP2 LT PUSH2 0x2A3B JUMPI PUSH2 0x2A3A PUSH2 0x3EB3 JUMP JUMPDEST JUMPDEST SWAP1 PUSH0 MSTORE PUSH1 0x20 PUSH0 KECCAK256 SWAP1 PUSH1 0x4 MUL ADD PUSH0 ADD PUSH0 SWAP1 SLOAD SWAP1 PUSH2 0x100 EXP SWAP1 DIV PUSH20 0xFFFFFFFFFFFFFFFFFFFFFFFFFFFFFFFFFFFFFFFF AND PUSH20 0xFFFFFFFFFFFFFFFFFFFFFFFFFFFFFFFFFFFFFFFF AND EQ DUP1 ISZERO PUSH2 0x2AAE JUMPI POP DUP2 PUSH1 0x5 DUP3 DUP2 SLOAD DUP2 LT PUSH2 0x2A9C JUMPI PUSH2 0x2A9B PUSH2 0x3EB3 JUMP JUMPDEST JUMPDEST SWAP1 PUSH0 MSTORE PUSH1 0x20 PUSH0 KECCAK256 SWAP1 PUSH1 0x4 MUL ADD PUSH1 0x1 ADD SLOAD EQ JUMPDEST ISZERO PUSH2 0x2C71 JUMPI PUSH1 0x5 PUSH1 0x1 PUSH1 0x5 DUP1 SLOAD SWAP1 POP PUSH2 0x2AC7 SWAP2 SWAP1 PUSH2 0x3F0D JUMP JUMPDEST DUP2 SLOAD DUP2 LT PUSH2 0x2AD8 JUMPI PUSH2 0x2AD7 PUSH2 0x3EB3 JUMP JUMPDEST JUMPDEST SWAP1 PUSH0 MSTORE PUSH1 0x20 PUSH0 KECCAK256 SWAP1 PUSH1 0x4 MUL ADD PUSH1 0x5 DUP3 DUP2 SLOAD DUP2 LT PUSH2 0x2AF8 JUMPI PUSH2 0x2AF7 PUSH2 0x3EB3 JUMP JUMPDEST JUMPDEST SWAP1 PUSH0 MSTORE PUSH1 0x20 PUSH0 KECCAK256 SWAP1 PUSH1 0x4 MUL ADD PUSH0 DUP3 ADD PUSH0 SWAP1 SLOAD SWAP1 PUSH2 0x100 EXP SWAP1 DIV PUSH20 0xFFFFFFFFFFFFFFFFFFFFFFFFFFFFFFFFFFFFFFFF AND DUP2 PUSH0 ADD PUSH0 PUSH2 0x100 EXP DUP2 SLOAD DUP2 PUSH20 0xFFFFFFFFFFFFFFFFFFFFFFFFFFFFFFFFFFFFFFFF MUL NOT AND SWAP1 DUP4 PUSH20 0xFFFFFFFFFFFFFFFFFFFFFFFFFFFFFFFFFFFFFFFF AND MUL OR SWAP1 SSTORE POP PUSH1 0x1 DUP3 ADD SLOAD DUP2 PUSH1 0x1 ADD SSTORE PUSH1 0x2 DUP3 ADD DUP2 PUSH1 0x2 ADD SWAP1 DUP2 PUSH2 0x2B85 SWAP2 SWAP1 PUSH2 0x3D66 JUMP JUMPDEST POP PUSH1 0x3 DUP3 ADD PUSH0 SWAP1 SLOAD SWAP1 PUSH2 0x100 EXP SWAP1 DIV PUSH1 0xFF AND DUP2 PUSH1 0x3 ADD PUSH0 PUSH2 0x100 EXP DUP2 SLOAD DUP2 PUSH1 0xFF MUL NOT AND SWAP1 DUP4 ISZERO ISZERO MUL OR SWAP1 SSTORE POP PUSH1 0x3 DUP3 ADD PUSH1 0x1 SWAP1 SLOAD SWAP1 PUSH2 0x100 EXP SWAP1 DIV PUSH1 0xFF AND DUP2 PUSH1 0x3 ADD PUSH1 0x1 PUSH2 0x100 EXP DUP2 SLOAD DUP2 PUSH1 0xFF MUL NOT AND SWAP1 DUP4 ISZERO ISZERO MUL OR SWAP1 SSTORE POP SWAP1 POP POP PUSH1 0x5 DUP1 SLOAD DUP1 PUSH2 0x2BF3 JUMPI PUSH2 0x2BF2 PUSH2 0x3F40 JUMP JUMPDEST JUMPDEST PUSH1 0x1 SWAP1 SUB DUP2 DUP2 SWAP1 PUSH0 MSTORE PUSH1 0x20 PUSH0 KECCAK256 SWAP1 PUSH1 0x4 MUL ADD PUSH0 DUP1 DUP3 ADD PUSH0 PUSH2 0x100 EXP DUP2 SLOAD SWAP1 PUSH20 0xFFFFFFFFFFFFFFFFFFFFFFFFFFFFFFFFFFFFFFFF MUL NOT AND SWAP1 SSTORE PUSH1 0x1 DUP3 ADD PUSH0 SWAP1 SSTORE PUSH1 0x2 DUP3 ADD PUSH0 PUSH2 0x2C41 SWAP2 SWAP1 PUSH2 0x2DE6 JUMP JUMPDEST PUSH1 0x3 DUP3 ADD PUSH0 PUSH2 0x100 EXP DUP2 SLOAD SWAP1 PUSH1 0xFF MUL NOT AND SWAP1 SSTORE PUSH1 0x3 DUP3 ADD PUSH1 0x1 PUSH2 0x100 EXP DUP2 SLOAD SWAP1 PUSH1 0xFF MUL NOT AND SWAP1 SSTORE POP POP SWAP1 SSTORE PUSH2 0x2C7E JUMP JUMPDEST DUP1 DUP1 PUSH1 0x1 ADD SWAP2 POP POP PUSH2 0x2A03 JUMP JUMPDEST POP POP POP JUMP JUMPDEST PUSH0 CALLER SWAP1 POP SWAP1 JUMP JUMPDEST PUSH2 0x2C92 PUSH2 0x2D9D JUMP JUMPDEST PUSH0 PUSH1 0x1 PUSH0 PUSH2 0x100 EXP DUP2 SLOAD DUP2 PUSH1 0xFF MUL NOT AND SWAP1 DUP4 ISZERO ISZERO MUL OR SWAP1 SSTORE POP PUSH32 0x5DB9EE0A495BF2E6FF9C91A7834C1BA4FDD244A5E8AA4E537BD38AEAE4B073AA PUSH2 0x2CD4 PUSH2 0x2C83 JUMP JUMPDEST PUSH1 0x40 MLOAD PUSH2 0x2CE1 SWAP2 SWAP1 PUSH2 0x3F6D JUMP JUMPDEST PUSH1 0x40 MLOAD DUP1 SWAP2 SUB SWAP1 LOG1 JUMP JUMPDEST PUSH2 0x2CF3 PUSH2 0x27E5 JUMP JUMPDEST PUSH1 0x1 DUP1 PUSH0 PUSH2 0x100 EXP DUP2 SLOAD DUP2 PUSH1 0xFF MUL NOT AND SWAP1 DUP4 ISZERO ISZERO MUL OR SWAP1 SSTORE POP PUSH32 0x62E78CEA01BEE320CD4E420270B5EA74000D11B0C9F74754EBDBFC544B05A258 PUSH2 0x2D35 PUSH2 0x2C83 JUMP JUMPDEST PUSH1 0x40 MLOAD PUSH2 0x2D42 SWAP2 SWAP1 PUSH2 0x3F6D JUMP JUMPDEST PUSH1 0x40 MLOAD DUP1 SWAP2 SUB SWAP1 LOG1 JUMP JUMPDEST PUSH2 0x2D56 DUP3 DUP3 PUSH2 0x214E JUMP JUMPDEST PUSH2 0x2D99 JUMPI DUP1 DUP3 PUSH1 0x40 MLOAD PUSH32 0xE2517D3F00000000000000000000000000000000000000000000000000000000 DUP2 MSTORE PUSH1 0x4 ADD PUSH2 0x2D90 SWAP3 SWAP2 SWAP1 PUSH2 0x3F86 JUMP JUMPDEST PUSH1 0x40 MLOAD DUP1 SWAP2 SUB SWAP1 REVERT JUMPDEST POP POP JUMP JUMPDEST PUSH2 0x2DA5 PUSH2 0x1396 JUMP JUMPDEST PUSH2 0x2DE4 JUMPI PUSH1 0x40 MLOAD PUSH32 0x8C379A000000000000000000000000000000000000000000000000000000000 DUP2 MSTORE PUSH1 0x4 ADD PUSH2 0x2DDB SWAP1 PUSH2 0x3FF7 JUMP JUMPDEST PUSH1 0x40 MLOAD DUP1 SWAP2 SUB SWAP1 REVERT JUMPDEST JUMP JUMPDEST POP DUP1 SLOAD PUSH2 0x2DF2 SWAP1 PUSH2 0x3755 JUMP JUMPDEST PUSH0 DUP3 SSTORE DUP1 PUSH1 0x1F LT PUSH2 0x2E03 JUMPI POP PUSH2 0x2E20 JUMP JUMPDEST PUSH1 0x1F ADD PUSH1 0x20 SWAP1 DIV SWAP1 PUSH0 MSTORE PUSH1 0x20 PUSH0 KECCAK256 SWAP1 DUP2 ADD SWAP1 PUSH2 0x2E1F SWAP2 SWAP1 PUSH2 0x2E23 JUMP JUMPDEST JUMPDEST POP JUMP JUMPDEST JUMPDEST DUP1 DUP3 GT ISZERO PUSH2 0x2E3A JUMPI PUSH0 DUP2 PUSH0 SWAP1 SSTORE POP PUSH1 0x1 ADD PUSH2 0x2E24 JUMP JUMPDEST POP SWAP1 JUMP JUMPDEST PUSH0 PUSH1 0x40 MLOAD SWAP1 POP SWAP1 JUMP JUMPDEST PUSH0 DUP1 REVERT JUMPDEST PUSH0 DUP1 REVERT JUMPDEST PUSH0 PUSH32 0xFFFFFFFF00000000000000000000000000000000000000000000000000000000 DUP3 AND SWAP1 POP SWAP2 SWAP1 POP JUMP JUMPDEST PUSH2 0x2E83 DUP2 PUSH2 0x2E4F JUMP JUMPDEST DUP2 EQ PUSH2 0x2E8D JUMPI PUSH0 DUP1 REVERT JUMPDEST POP JUMP JUMPDEST PUSH0 DUP2 CALLDATALOAD SWAP1 POP PUSH2 0x2E9E DUP2 PUSH2 0x2E7A JUMP JUMPDEST SWAP3 SWAP2 POP POP JUMP JUMPDEST PUSH0 PUSH1 0x20 DUP3 DUP5 SUB SLT ISZERO PUSH2 0x2EB9 JUMPI PUSH2 0x2EB8 PUSH2 0x2E47 JUMP JUMPDEST JUMPDEST PUSH0 PUSH2 0x2EC6 DUP5 DUP3 DUP6 ADD PUSH2 0x2E90 JUMP JUMPDEST SWAP2 POP POP SWAP3 SWAP2 POP POP JUMP JUMPDEST PUSH0 DUP2 ISZERO ISZERO SWAP1 POP SWAP2 SWAP1 POP JUMP JUMPDEST PUSH2 0x2EE3 DUP2 PUSH2 0x2ECF JUMP JUMPDEST DUP3 MSTORE POP POP JUMP JUMPDEST PUSH0 PUSH1 0x20 DUP3 ADD SWAP1 POP PUSH2 0x2EFC PUSH0 DUP4 ADD DUP5 PUSH2 0x2EDA JUMP JUMPDEST SWAP3 SWAP2 POP POP JUMP JUMPDEST PUSH0 PUSH20 0xFFFFFFFFFFFFFFFFFFFFFFFFFFFFFFFFFFFFFFFF DUP3 AND SWAP1 POP SWAP2 SWAP1 POP JUMP JUMPDEST PUSH0 PUSH2 0x2F2B DUP3 PUSH2 0x2F02 JUMP JUMPDEST SWAP1 POP SWAP2 SWAP1 POP JUMP JUMPDEST PUSH2 0x2F3B DUP2 PUSH2 0x2F21 JUMP JUMPDEST DUP2 EQ PUSH2 0x2F45 JUMPI PUSH0 DUP1 REVERT JUMPDEST POP JUMP JUMPDEST PUSH0 DUP2 CALLDATALOAD SWAP1 POP PUSH2 0x2F56 DUP2 PUSH2 0x2F32 JUMP JUMPDEST SWAP3 SWAP2 POP POP JUMP JUMPDEST PUSH0 PUSH1 0x20 DUP3 DUP5 SUB SLT ISZERO PUSH2 0x2F71 JUMPI PUSH2 0x2F70 PUSH2 0x2E47 JUMP JUMPDEST JUMPDEST PUSH0 PUSH2 0x2F7E DUP5 DUP3 DUP6 ADD PUSH2 0x2F48 JUMP JUMPDEST SWAP2 POP POP SWAP3 SWAP2 POP POP JUMP JUMPDEST PUSH2 0x2F90 DUP2 PUSH2 0x2F21 JUMP JUMPDEST DUP3 MSTORE POP POP JUMP JUMPDEST PUSH0 DUP2 MLOAD SWAP1 POP SWAP2 SWAP1 POP JUMP JUMPDEST PUSH0 DUP3 DUP3 MSTORE PUSH1 0x20 DUP3 ADD SWAP1 POP SWAP3 SWAP2 POP POP JUMP JUMPDEST DUP3 DUP2 DUP4 MCOPY PUSH0 DUP4 DUP4 ADD MSTORE POP POP POP JUMP JUMPDEST PUSH0 PUSH1 0x1F NOT PUSH1 0x1F DUP4 ADD AND SWAP1 POP SWAP2 SWAP1 POP JUMP JUMPDEST PUSH0 PUSH2 0x2FD8 DUP3 PUSH2 0x2F96 JUMP JUMPDEST PUSH2 0x2FE2 DUP2 DUP6 PUSH2 0x2FA0 JUMP JUMPDEST SWAP4 POP PUSH2 0x2FF2 DUP2 DUP6 PUSH1 0x20 DUP7 ADD PUSH2 0x2FB0 JUMP JUMPDEST PUSH2 0x2FFB DUP2 PUSH2 0x2FBE JUMP JUMPDEST DUP5 ADD SWAP2 POP POP SWAP3 SWAP2 POP POP JUMP JUMPDEST PUSH2 0x300F DUP2 PUSH2 0x2F21 JUMP JUMPDEST DUP3 MSTORE POP POP JUMP JUMPDEST PUSH0 PUSH1 0xA0 DUP4 ADD PUSH0 DUP4 ADD MLOAD DUP5 DUP3 SUB PUSH0 DUP7 ADD MSTORE PUSH2 0x302F DUP3 DUP3 PUSH2 0x2FCE JUMP JUMPDEST SWAP2 POP POP PUSH1 0x20 DUP4 ADD MLOAD DUP5 DUP3 SUB PUSH1 0x20 DUP7 ADD MSTORE PUSH2 0x3049 DUP3 DUP3 PUSH2 0x2FCE JUMP JUMPDEST SWAP2 POP POP PUSH1 0x40 DUP4 ADD MLOAD DUP5 DUP3 SUB PUSH1 0x40 DUP7 ADD MSTORE PUSH2 0x3063 DUP3 DUP3 PUSH2 0x2FCE JUMP JUMPDEST SWAP2 POP POP PUSH1 0x60 DUP4 ADD MLOAD DUP5 DUP3 SUB PUSH1 0x60 DUP7 ADD MSTORE PUSH2 0x307D DUP3 DUP3 PUSH2 0x2FCE JUMP JUMPDEST SWAP2 POP POP PUSH1 0x80 DUP4 ADD MLOAD PUSH2 0x3092 PUSH1 0x80 DUP7 ADD DUP3 PUSH2 0x3006 JUMP JUMPDEST POP DUP1 SWAP2 POP POP SWAP3 SWAP2 POP POP JUMP JUMPDEST PUSH0 PUSH1 0xA0 DUP3 ADD SWAP1 POP PUSH2 0x30B0 PUSH0 DUP4 ADD DUP9 PUSH2 0x2F87 JUMP JUMPDEST DUP2 DUP2 SUB PUSH1 0x20 DUP4 ADD MSTORE PUSH2 0x30C2 DUP2 DUP8 PUSH2 0x3015 JUMP JUMPDEST SWAP1 POP PUSH2 0x30D1 PUSH1 0x40 DUP4 ADD DUP7 PUSH2 0x2EDA JUMP JUMPDEST PUSH2 0x30DE PUSH1 0x60 DUP4 ADD DUP6 PUSH2 0x2EDA JUMP JUMPDEST PUSH2 0x30EB PUSH1 0x80 DUP4 ADD DUP5 PUSH2 0x2EDA JUMP JUMPDEST SWAP7 SWAP6 POP POP POP POP POP POP JUMP JUMPDEST PUSH0 DUP2 SWAP1 POP SWAP2 SWAP1 POP JUMP JUMPDEST PUSH2 0x3107 DUP2 PUSH2 0x30F5 JUMP JUMPDEST DUP2 EQ PUSH2 0x3111 JUMPI PUSH0 DUP1 REVERT JUMPDEST POP JUMP JUMPDEST PUSH0 DUP2 CALLDATALOAD SWAP1 POP PUSH2 0x3122 DUP2 PUSH2 0x30FE JUMP JUMPDEST SWAP3 SWAP2 POP POP JUMP JUMPDEST PUSH0 DUP1 PUSH1 0x40 DUP4 DUP6 SUB SLT ISZERO PUSH2 0x313E JUMPI PUSH2 0x313D PUSH2 0x2E47 JUMP JUMPDEST JUMPDEST PUSH0 PUSH2 0x314B DUP6 DUP3 DUP7 ADD PUSH2 0x2F48 JUMP JUMPDEST SWAP3 POP POP PUSH1 0x20 PUSH2 0x315C DUP6 DUP3 DUP7 ADD PUSH2 0x3114 JUMP JUMPDEST SWAP2 POP POP SWAP3 POP SWAP3 SWAP1 POP JUMP JUMPDEST PUSH2 0x316F DUP2 PUSH2 0x30F5 JUMP JUMPDEST DUP3 MSTORE POP POP JUMP JUMPDEST PUSH0 DUP3 DUP3 MSTORE PUSH1 0x20 DUP3 ADD SWAP1 POP SWAP3 SWAP2 POP POP JUMP JUMPDEST PUSH0 PUSH2 0x318F DUP3 PUSH2 0x2F96 JUMP JUMPDEST PUSH2 0x3199 DUP2 DUP6 PUSH2 0x3175 JUMP JUMPDEST SWAP4 POP PUSH2 0x31A9 DUP2 DUP6 PUSH1 0x20 DUP7 ADD PUSH2 0x2FB0 JUMP JUMPDEST PUSH2 0x31B2 DUP2 PUSH2 0x2FBE JUMP JUMPDEST DUP5 ADD SWAP2 POP POP SWAP3 SWAP2 POP POP JUMP JUMPDEST PUSH0 PUSH1 0xA0 DUP3 ADD SWAP1 POP PUSH2 0x31D0 PUSH0 DUP4 ADD DUP9 PUSH2 0x2F87 JUMP JUMPDEST PUSH2 0x31DD PUSH1 0x20 DUP4 ADD DUP8 PUSH2 0x3166 JUMP JUMPDEST DUP2 DUP2 SUB PUSH1 0x40 DUP4 ADD MSTORE PUSH2 0x31EF DUP2 DUP7 PUSH2 0x3185 JUMP JUMPDEST SWAP1 POP PUSH2 0x31FE PUSH1 0x60 DUP4 ADD DUP6 PUSH2 0x2EDA JUMP JUMPDEST PUSH2 0x320B PUSH1 0x80 DUP4 ADD DUP5 PUSH2 0x2EDA JUMP JUMPDEST SWAP7 SWAP6 POP POP POP POP POP POP JUMP JUMPDEST PUSH0 PUSH1 0xA0 DUP3 ADD SWAP1 POP DUP2 DUP2 SUB PUSH0 DUP4 ADD MSTORE PUSH2 0x322D DUP2 DUP9 PUSH2 0x3185 JUMP JUMPDEST SWAP1 POP DUP2 DUP2 SUB PUSH1 0x20 DUP4 ADD MSTORE PUSH2 0x3241 DUP2 DUP8 PUSH2 0x3185 JUMP JUMPDEST SWAP1 POP DUP2 DUP2 SUB PUSH1 0x40 DUP4 ADD MSTORE PUSH2 0x3255 DUP2 DUP7 PUSH2 0x3185 JUMP JUMPDEST SWAP1 POP DUP2 DUP2 SUB PUSH1 0x60 DUP4 ADD MSTORE PUSH2 0x3269 DUP2 DUP6 PUSH2 0x3185 JUMP JUMPDEST SWAP1 POP PUSH2 0x3278 PUSH1 0x80 DUP4 ADD DUP5 PUSH2 0x2F87 JUMP JUMPDEST SWAP7 SWAP6 POP POP POP POP POP POP JUMP JUMPDEST PUSH0 PUSH1 0x20 DUP3 DUP5 SUB SLT ISZERO PUSH2 0x3297 JUMPI PUSH2 0x3296 PUSH2 0x2E47 JUMP JUMPDEST JUMPDEST PUSH0 PUSH2 0x32A4 DUP5 DUP3 DUP6 ADD PUSH2 0x3114 JUMP JUMPDEST SWAP2 POP POP SWAP3 SWAP2 POP POP JUMP JUMPDEST PUSH0 PUSH1 0x20 DUP3 ADD SWAP1 POP PUSH2 0x32C0 PUSH0 DUP4 ADD DUP5 PUSH2 0x3166 JUMP JUMPDEST SWAP3 SWAP2 POP POP JUMP JUMPDEST PUSH0 DUP1 PUSH1 0x40 DUP4 DUP6 SUB SLT ISZERO PUSH2 0x32DC JUMPI PUSH2 0x32DB PUSH2 0x2E47 JUMP JUMPDEST JUMPDEST PUSH0 PUSH2 0x32E9 DUP6 DUP3 DUP7 ADD PUSH2 0x3114 JUMP JUMPDEST SWAP3 POP POP PUSH1 0x20 PUSH2 0x32FA DUP6 DUP3 DUP7 ADD PUSH2 0x2F48 JUMP JUMPDEST SWAP2 POP POP SWAP3 POP SWAP3 SWAP1 POP JUMP JUMPDEST PUSH0 DUP2 SWAP1 POP SWAP2 SWAP1 POP JUMP JUMPDEST PUSH2 0x3316 DUP2 PUSH2 0x3304 JUMP JUMPDEST DUP2 EQ PUSH2 0x3320 JUMPI PUSH0 DUP1 REVERT JUMPDEST POP JUMP JUMPDEST PUSH0 DUP2 CALLDATALOAD SWAP1 POP PUSH2 0x3331 DUP2 PUSH2 0x330D JUMP JUMPDEST SWAP3 SWAP2 POP POP JUMP JUMPDEST PUSH0 PUSH1 0x20 DUP3 DUP5 SUB SLT ISZERO PUSH2 0x334C JUMPI PUSH2 0x334B PUSH2 0x2E47 JUMP JUMPDEST JUMPDEST PUSH0 PUSH2 0x3359 DUP5 DUP3 DUP6 ADD PUSH2 0x3323 JUMP JUMPDEST SWAP2 POP POP SWAP3 SWAP2 POP POP JUMP JUMPDEST PUSH0 DUP1 REVERT JUMPDEST PUSH0 DUP1 REVERT JUMPDEST PUSH32 0x4E487B7100000000000000000000000000000000000000000000000000000000 PUSH0 MSTORE PUSH1 0x41 PUSH1 0x4 MSTORE PUSH1 0x24 PUSH0 REVERT JUMPDEST PUSH2 0x33A0 DUP3 PUSH2 0x2FBE JUMP JUMPDEST DUP2 ADD DUP2 DUP2 LT PUSH8 0xFFFFFFFFFFFFFFFF DUP3 GT OR ISZERO PUSH2 0x33BF JUMPI PUSH2 0x33BE PUSH2 0x336A JUMP JUMPDEST JUMPDEST DUP1 PUSH1 0x40 MSTORE POP POP POP JUMP JUMPDEST PUSH0 PUSH2 0x33D1 PUSH2 0x2E3E JUMP JUMPDEST SWAP1 POP PUSH2 0x33DD DUP3 DUP3 PUSH2 0x3397 JUMP JUMPDEST SWAP2 SWAP1 POP JUMP JUMPDEST PUSH0 PUSH8 0xFFFFFFFFFFFFFFFF DUP3 GT ISZERO PUSH2 0x33FC JUMPI PUSH2 0x33FB PUSH2 0x336A JUMP JUMPDEST JUMPDEST PUSH2 0x3405 DUP3 PUSH2 0x2FBE JUMP JUMPDEST SWAP1 POP PUSH1 0x20 DUP2 ADD SWAP1 POP SWAP2 SWAP1 POP JUMP JUMPDEST DUP3 DUP2 DUP4 CALLDATACOPY PUSH0 DUP4 DUP4 ADD MSTORE POP POP POP JUMP JUMPDEST PUSH0 PUSH2 0x3432 PUSH2 0x342D DUP5 PUSH2 0x33E2 JUMP JUMPDEST PUSH2 0x33C8 JUMP JUMPDEST SWAP1 POP DUP3 DUP2 MSTORE PUSH1 0x20 DUP2 ADD DUP5 DUP5 DUP5 ADD GT ISZERO PUSH2 0x344E JUMPI PUSH2 0x344D PUSH2 0x3366 JUMP JUMPDEST JUMPDEST PUSH2 0x3459 DUP5 DUP3 DUP6 PUSH2 0x3412 JUMP JUMPDEST POP SWAP4 SWAP3 POP POP POP JUMP JUMPDEST PUSH0 DUP3 PUSH1 0x1F DUP4 ADD SLT PUSH2 0x3475 JUMPI PUSH2 0x3474 PUSH2 0x3362 JUMP JUMPDEST JUMPDEST DUP2 CALLDATALOAD PUSH2 0x3485 DUP5 DUP3 PUSH1 0x20 DUP7 ADD PUSH2 0x3420 JUMP JUMPDEST SWAP2 POP POP SWAP3 SWAP2 POP POP JUMP JUMPDEST PUSH0 DUP1 PUSH1 0x40 DUP4 DUP6 SUB SLT ISZERO PUSH2 0x34A4 JUMPI PUSH2 0x34A3 PUSH2 0x2E47 JUMP JUMPDEST JUMPDEST PUSH0 PUSH2 0x34B1 DUP6 DUP3 DUP7 ADD PUSH2 0x3114 JUMP JUMPDEST SWAP3 POP POP PUSH1 0x20 DUP4 ADD CALLDATALOAD PUSH8 0xFFFFFFFFFFFFFFFF DUP2 GT ISZERO PUSH2 0x34D2 JUMPI PUSH2 0x34D1 PUSH2 0x2E4B JUMP JUMPDEST JUMPDEST PUSH2 0x34DE DUP6 DUP3 DUP7 ADD PUSH2 0x3461 JUMP JUMPDEST SWAP2 POP POP SWAP3 POP SWAP3 SWAP1 POP JUMP JUMPDEST PUSH0 DUP1 PUSH0 DUP1 PUSH1 0x80 DUP6 DUP8 SUB SLT ISZERO PUSH2 0x3500 JUMPI PUSH2 0x34FF PUSH2 0x2E47 JUMP JUMPDEST JUMPDEST PUSH0 DUP6 ADD CALLDATALOAD PUSH8 0xFFFFFFFFFFFFFFFF DUP2 GT ISZERO PUSH2 0x351D JUMPI PUSH2 0x351C PUSH2 0x2E4B JUMP JUMPDEST JUMPDEST PUSH2 0x3529 DUP8 DUP3 DUP9 ADD PUSH2 0x3461 JUMP JUMPDEST SWAP5 POP POP PUSH1 0x20 DUP6 ADD CALLDATALOAD PUSH8 0xFFFFFFFFFFFFFFFF DUP2 GT ISZERO PUSH2 0x354A JUMPI PUSH2 0x3549 PUSH2 0x2E4B JUMP JUMPDEST JUMPDEST PUSH2 0x3556 DUP8 DUP3 DUP9 ADD PUSH2 0x3461 JUMP JUMPDEST SWAP4 POP POP PUSH1 0x40 DUP6 ADD CALLDATALOAD PUSH8 0xFFFFFFFFFFFFFFFF DUP2 GT ISZERO PUSH2 0x3577 JUMPI PUSH2 0x3576 PUSH2 0x2E4B JUMP JUMPDEST JUMPDEST PUSH2 0x3583 DUP8 DUP3 DUP9 ADD PUSH2 0x3461 JUMP JUMPDEST SWAP3 POP POP PUSH1 0x60 DUP6 ADD CALLDATALOAD PUSH8 0xFFFFFFFFFFFFFFFF DUP2 GT ISZERO PUSH2 0x35A4 JUMPI PUSH2 0x35A3 PUSH2 0x2E4B JUMP JUMPDEST JUMPDEST PUSH2 0x35B0 DUP8 DUP3 DUP9 ADD PUSH2 0x3461 JUMP JUMPDEST SWAP2 POP POP SWAP3 SWAP6 SWAP2 SWAP5 POP SWAP3 POP JUMP JUMPDEST PUSH0 DUP2 MLOAD SWAP1 POP SWAP2 SWAP1 POP JUMP JUMPDEST PUSH0 DUP3 DUP3 MSTORE PUSH1 0x20 DUP3 ADD SWAP1 POP SWAP3 SWAP2 POP POP JUMP JUMPDEST PUSH0 DUP2 SWAP1 POP PUSH1 0x20 DUP3 ADD SWAP1 POP SWAP2 SWAP1 POP JUMP JUMPDEST PUSH2 0x35EE DUP2 PUSH2 0x30F5 JUMP JUMPDEST DUP3 MSTORE POP POP JUMP JUMPDEST PUSH2 0x35FD DUP2 PUSH2 0x2ECF JUMP JUMPDEST DUP3 MSTORE POP POP JUMP JUMPDEST PUSH0 PUSH1 0xA0 DUP4 ADD PUSH0 DUP4 ADD MLOAD PUSH2 0x3618 PUSH0 DUP7 ADD DUP3 PUSH2 0x3006 JUMP JUMPDEST POP PUSH1 0x20 DUP4 ADD MLOAD PUSH2 0x362B PUSH1 0x20 DUP7 ADD DUP3 PUSH2 0x35E5 JUMP JUMPDEST POP PUSH1 0x40 DUP4 ADD MLOAD DUP5 DUP3 SUB PUSH1 0x40 DUP7 ADD MSTORE PUSH2 0x3643 DUP3 DUP3 PUSH2 0x2FCE JUMP JUMPDEST SWAP2 POP POP PUSH1 0x60 DUP4 ADD MLOAD PUSH2 0x3658 PUSH1 0x60 DUP7 ADD DUP3 PUSH2 0x35F4 JUMP JUMPDEST POP PUSH1 0x80 DUP4 ADD MLOAD PUSH2 0x366B PUSH1 0x80 DUP7 ADD DUP3 PUSH2 0x35F4 JUMP JUMPDEST POP DUP1 SWAP2 POP POP SWAP3 SWAP2 POP POP JUMP JUMPDEST PUSH0 PUSH2 0x3681 DUP4 DUP4 PUSH2 0x3603 JUMP JUMPDEST SWAP1 POP SWAP3 SWAP2 POP POP JUMP JUMPDEST PUSH0 PUSH1 0x20 DUP3 ADD SWAP1 POP SWAP2 SWAP1 POP JUMP JUMPDEST PUSH0 PUSH2 0x369F DUP3 PUSH2 0x35BC JUMP JUMPDEST PUSH2 0x36A9 DUP2 DUP6 PUSH2 0x35C6 JUMP JUMPDEST SWAP4 POP DUP4 PUSH1 0x20 DUP3 MUL DUP6 ADD PUSH2 0x36BB DUP6 PUSH2 0x35D6 JUMP JUMPDEST DUP1 PUSH0 JUMPDEST DUP6 DUP2 LT ISZERO PUSH2 0x36F6 JUMPI DUP5 DUP5 SUB DUP10 MSTORE DUP2 MLOAD PUSH2 0x36D7 DUP6 DUP3 PUSH2 0x3676 JUMP JUMPDEST SWAP5 POP PUSH2 0x36E2 DUP4 PUSH2 0x3689 JUMP JUMPDEST SWAP3 POP PUSH1 0x20 DUP11 ADD SWAP10 POP POP PUSH1 0x1 DUP2 ADD SWAP1 POP PUSH2 0x36BE JUMP JUMPDEST POP DUP3 SWAP8 POP DUP8 SWAP6 POP POP POP POP POP POP SWAP3 SWAP2 POP POP JUMP JUMPDEST PUSH0 PUSH1 0x20 DUP3 ADD SWAP1 POP DUP2 DUP2 SUB PUSH0 DUP4 ADD MSTORE PUSH2 0x3720 DUP2 DUP5 PUSH2 0x3695 JUMP JUMPDEST SWAP1 POP SWAP3 SWAP2 POP POP JUMP JUMPDEST PUSH32 0x4E487B7100000000000000000000000000000000000000000000000000000000 PUSH0 MSTORE PUSH1 0x22 PUSH1 0x4 MSTORE PUSH1 0x24 PUSH0 REVERT JUMPDEST PUSH0 PUSH1 0x2 DUP3 DIV SWAP1 POP PUSH1 0x1 DUP3 AND DUP1 PUSH2 0x376C JUMPI PUSH1 0x7F DUP3 AND SWAP2 POP JUMPDEST PUSH1 0x20 DUP3 LT DUP2 SUB PUSH2 0x377F JUMPI PUSH2 0x377E PUSH2 0x3728 JUMP JUMPDEST JUMPDEST POP SWAP2 SWAP1 POP JUMP JUMPDEST PUSH32 0x496E76616C696420616464726573730000000000000000000000000000000000 PUSH0 DUP3 ADD MSTORE POP JUMP JUMPDEST PUSH0 PUSH2 0x37B9 PUSH1 0xF DUP4 PUSH2 0x3175 JUMP JUMPDEST SWAP2 POP PUSH2 0x37C4 DUP3 PUSH2 0x3785 JUMP JUMPDEST PUSH1 0x20 DUP3 ADD SWAP1 POP SWAP2 SWAP1 POP JUMP JUMPDEST PUSH0 PUSH1 0x20 DUP3 ADD SWAP1 POP DUP2 DUP2 SUB PUSH0 DUP4 ADD MSTORE PUSH2 0x37E6 DUP2 PUSH2 0x37AD JUMP JUMPDEST SWAP1 POP SWAP2 SWAP1 POP JUMP JUMPDEST PUSH32 0x4E6F2070656E64696E6720726571756573740000000000000000000000000000 PUSH0 DUP3 ADD MSTORE POP JUMP JUMPDEST PUSH0 PUSH2 0x3821 PUSH1 0x12 DUP4 PUSH2 0x3175 JUMP JUMPDEST SWAP2 POP PUSH2 0x382C DUP3 PUSH2 0x37ED JUMP JUMPDEST PUSH1 0x20 DUP3 ADD SWAP1 POP SWAP2 SWAP1 POP JUMP JUMPDEST PUSH0 PUSH1 0x20 DUP3 ADD SWAP1 POP DUP2 DUP2 SUB PUSH0 DUP4 ADD MSTORE PUSH2 0x384E DUP2 PUSH2 0x3815 JUMP JUMPDEST SWAP1 POP SWAP2 SWAP1 POP JUMP JUMPDEST PUSH32 0x416C72656164792068617320726F6C6500000000000000000000000000000000 PUSH0 DUP3 ADD MSTORE POP JUMP JUMPDEST PUSH0 PUSH2 0x3889 PUSH1 0x10 DUP4 PUSH2 0x3175 JUMP JUMPDEST SWAP2 POP PUSH2 0x3894 DUP3 PUSH2 0x3855 JUMP JUMPDEST PUSH1 0x20 DUP3 ADD SWAP1 POP SWAP2 SWAP1 POP JUMP JUMPDEST PUSH0 PUSH1 0x20 DUP3 ADD SWAP1 POP DUP2 DUP2 SUB PUSH0 DUP4 ADD MSTORE PUSH2 0x38B6 DUP2 PUSH2 0x387D JUMP JUMPDEST SWAP1 POP SWAP2 SWAP1 POP JUMP JUMPDEST PUSH32 0x526561736F6E2072657175697265640000000000000000000000000000000000 PUSH0 DUP3 ADD MSTORE POP JUMP JUMPDEST PUSH0 PUSH2 0x38F1 PUSH1 0xF DUP4 PUSH2 0x3175 JUMP JUMPDEST SWAP2 POP PUSH2 0x38FC DUP3 PUSH2 0x38BD JUMP JUMPDEST PUSH1 0x20 DUP3 ADD SWAP1 POP SWAP2 SWAP1 POP JUMP JUMPDEST PUSH0 PUSH1 0x20 DUP3 ADD SWAP1 POP DUP2 DUP2 SUB PUSH0 DUP4 ADD MSTORE PUSH2 0x391E DUP2 PUSH2 0x38E5 JUMP JUMPDEST SWAP1 POP SWAP2 SWAP1 POP JUMP JUMPDEST PUSH32 0x5265717565737420616C72656164792070656E64696E67000000000000000000 PUSH0 DUP3 ADD MSTORE POP JUMP JUMPDEST PUSH0 PUSH2 0x3959 PUSH1 0x17 DUP4 PUSH2 0x3175 JUMP JUMPDEST SWAP2 POP PUSH2 0x3964 DUP3 PUSH2 0x3925 JUMP JUMPDEST PUSH1 0x20 DUP3 ADD SWAP1 POP SWAP2 SWAP1 POP JUMP JUMPDEST PUSH0 PUSH1 0x20 DUP3 ADD SWAP1 POP DUP2 DUP2 SUB PUSH0 DUP4 ADD MSTORE PUSH2 0x3986 DUP2 PUSH2 0x394D JUMP JUMPDEST SWAP1 POP SWAP2 SWAP1 POP JUMP JUMPDEST PUSH0 DUP2 SWAP1 POP DUP2 PUSH0 MSTORE PUSH1 0x20 PUSH0 KECCAK256 SWAP1 POP SWAP2 SWAP1 POP JUMP JUMPDEST PUSH0 PUSH1 0x20 PUSH1 0x1F DUP4 ADD DIV SWAP1 POP SWAP2 SWAP1 POP JUMP JUMPDEST PUSH0 DUP3 DUP3 SHL SWAP1 POP SWAP3 SWAP2 POP POP JUMP JUMPDEST PUSH0 PUSH1 0x8 DUP4 MUL PUSH2 0x39E9 PUSH32 0xFFFFFFFFFFFFFFFFFFFFFFFFFFFFFFFFFFFFFFFFFFFFFFFFFFFFFFFFFFFFFFFF DUP3 PUSH2 0x39AE JUMP JUMPDEST PUSH2 0x39F3 DUP7 DUP4 PUSH2 0x39AE JUMP JUMPDEST SWAP6 POP DUP1 NOT DUP5 AND SWAP4 POP DUP1 DUP7 AND DUP5 OR SWAP3 POP POP POP SWAP4 SWAP3 POP POP POP JUMP JUMPDEST PUSH0 DUP2 SWAP1 POP SWAP2 SWAP1 POP JUMP JUMPDEST PUSH0 PUSH2 0x3A2E PUSH2 0x3A29 PUSH2 0x3A24 DUP5 PUSH2 0x3304 JUMP JUMPDEST PUSH2 0x3A0B JUMP JUMPDEST PUSH2 0x3304 JUMP JUMPDEST SWAP1 POP SWAP2 SWAP1 POP JUMP JUMPDEST PUSH0 DUP2 SWAP1 POP SWAP2 SWAP1 POP JUMP JUMPDEST PUSH2 0x3A47 DUP4 PUSH2 0x3A14 JUMP JUMPDEST PUSH2 0x3A5B PUSH2 0x3A53 DUP3 PUSH2 0x3A35 JUMP JUMPDEST DUP5 DUP5 SLOAD PUSH2 0x39BA JUMP JUMPDEST DUP3 SSTORE POP POP POP POP JUMP JUMPDEST PUSH0 SWAP1 JUMP JUMPDEST PUSH2 0x3A6F PUSH2 0x3A63 JUMP JUMPDEST PUSH2 0x3A7A DUP2 DUP5 DUP5 PUSH2 0x3A3E JUMP JUMPDEST POP POP POP JUMP JUMPDEST JUMPDEST DUP2 DUP2 LT ISZERO PUSH2 0x3A9D JUMPI PUSH2 0x3A92 PUSH0 DUP3 PUSH2 0x3A67 JUMP JUMPDEST PUSH1 0x1 DUP2 ADD SWAP1 POP PUSH2 0x3A80 JUMP JUMPDEST POP POP JUMP JUMPDEST PUSH1 0x1F DUP3 GT ISZERO PUSH2 0x3AE2 JUMPI PUSH2 0x3AB3 DUP2 PUSH2 0x398D JUMP JUMPDEST PUSH2 0x3ABC DUP5 PUSH2 0x399F JUMP JUMPDEST DUP2 ADD PUSH1 0x20 DUP6 LT ISZERO PUSH2 0x3ACB JUMPI DUP2 SWAP1 POP JUMPDEST PUSH2 0x3ADF PUSH2 0x3AD7 DUP6 PUSH2 0x399F JUMP JUMPDEST DUP4 ADD DUP3 PUSH2 0x3A7F JUMP JUMPDEST POP POP JUMPDEST POP POP POP JUMP JUMPDEST PUSH0 DUP3 DUP3 SHR SWAP1 POP SWAP3 SWAP2 POP POP JUMP JUMPDEST PUSH0 PUSH2 0x3B02 PUSH0 NOT DUP5 PUSH1 0x8 MUL PUSH2 0x3AE7 JUMP JUMPDEST NOT DUP1 DUP4 AND SWAP2 POP POP SWAP3 SWAP2 POP POP JUMP JUMPDEST PUSH0 PUSH2 0x3B1A DUP4 DUP4 PUSH2 0x3AF3 JUMP JUMPDEST SWAP2 POP DUP3 PUSH1 0x2 MUL DUP3 OR SWAP1 POP SWAP3 SWAP2 POP POP JUMP JUMPDEST PUSH2 0x3B33 DUP3 PUSH2 0x2F96 JUMP JUMPDEST PUSH8 0xFFFFFFFFFFFFFFFF DUP2 GT ISZERO PUSH2 0x3B4C JUMPI PUSH2 0x3B4B PUSH2 0x336A JUMP JUMPDEST JUMPDEST PUSH2 0x3B56 DUP3 SLOAD PUSH2 0x3755 JUMP JUMPDEST PUSH2 0x3B61 DUP3 DUP3 DUP6 PUSH2 0x3AA1 JUMP JUMPDEST PUSH0 PUSH1 0x20 SWAP1 POP PUSH1 0x1F DUP4 GT PUSH1 0x1 DUP2 EQ PUSH2 0x3B92 JUMPI PUSH0 DUP5 ISZERO PUSH2 0x3B80 JUMPI DUP3 DUP8 ADD MLOAD SWAP1 POP JUMPDEST PUSH2 0x3B8A DUP6 DUP3 PUSH2 0x3B0F JUMP JUMPDEST DUP7 SSTORE POP PUSH2 0x3BF1 JUMP JUMPDEST PUSH1 0x1F NOT DUP5 AND PUSH2 0x3BA0 DUP7 PUSH2 0x398D JUMP JUMPDEST PUSH0 JUMPDEST DUP3 DUP2 LT ISZERO PUSH2 0x3BC7 JUMPI DUP5 DUP10 ADD MLOAD DUP3 SSTORE PUSH1 0x1 DUP3 ADD SWAP2 POP PUSH1 0x20 DUP6 ADD SWAP5 POP PUSH1 0x20 DUP2 ADD SWAP1 POP PUSH2 0x3BA2 JUMP JUMPDEST DUP7 DUP4 LT ISZERO PUSH2 0x3BE4 JUMPI DUP5 DUP10 ADD MLOAD PUSH2 0x3BE0 PUSH1 0x1F DUP10 AND DUP3 PUSH2 0x3AF3 JUMP JUMPDEST DUP4 SSTORE POP JUMPDEST PUSH1 0x1 PUSH1 0x2 DUP9 MUL ADD DUP9 SSTORE POP POP POP JUMPDEST POP POP POP POP POP POP JUMP JUMPDEST PUSH0 PUSH1 0x20 DUP3 ADD SWAP1 POP DUP2 DUP2 SUB PUSH0 DUP4 ADD MSTORE PUSH2 0x3C11 DUP2 DUP5 PUSH2 0x3185 JUMP JUMPDEST SWAP1 POP SWAP3 SWAP2 POP POP JUMP JUMPDEST PUSH32 0x4669727374206E616D6520726571756972656400000000000000000000000000 PUSH0 DUP3 ADD MSTORE POP JUMP JUMPDEST PUSH0 PUSH2 0x3C4D PUSH1 0x13 DUP4 PUSH2 0x3175 JUMP JUMPDEST SWAP2 POP PUSH2 0x3C58 DUP3 PUSH2 0x3C19 JUMP JUMPDEST PUSH1 0x20 DUP3 ADD SWAP1 POP SWAP2 SWAP1 POP JUMP JUMPDEST PUSH0 PUSH1 0x20 DUP3 ADD SWAP1 POP DUP2 DUP2 SUB PUSH0 DUP4 ADD MSTORE PUSH2 0x3C7A DUP2 PUSH2 0x3C41 JUMP JUMPDEST SWAP1 POP SWAP2 SWAP1 POP JUMP JUMPDEST PUSH32 0x4C617374206E616D652072657175697265640000000000000000000000000000 PUSH0 DUP3 ADD MSTORE POP JUMP JUMPDEST PUSH0 PUSH2 0x3CB5 PUSH1 0x12 DUP4 PUSH2 0x3175 JUMP JUMPDEST SWAP2 POP PUSH2 0x3CC0 DUP3 PUSH2 0x3C81 JUMP JUMPDEST PUSH1 0x20 DUP3 ADD SWAP1 POP SWAP2 SWAP1 POP JUMP JUMPDEST PUSH0 PUSH1 0x20 DUP3 ADD SWAP1 POP DUP2 DUP2 SUB PUSH0 DUP4 ADD MSTORE PUSH2 0x3CE2 DUP2 PUSH2 0x3CA9 JUMP JUMPDEST SWAP1 POP SWAP2 SWAP1 POP JUMP JUMPDEST PUSH32 0x456D61696C207265717569726564000000000000000000000000000000000000 PUSH0 DUP3 ADD MSTORE POP JUMP JUMPDEST PUSH0 PUSH2 0x3D1D PUSH1 0xE DUP4 PUSH2 0x3175 JUMP JUMPDEST SWAP2 POP PUSH2 0x3D28 DUP3 PUSH2 0x3CE9 JUMP JUMPDEST PUSH1 0x20 DUP3 ADD SWAP1 POP SWAP2 SWAP1 POP JUMP JUMPDEST PUSH0 PUSH1 0x20 DUP3 ADD SWAP1 POP DUP2 DUP2 SUB PUSH0 DUP4 ADD MSTORE PUSH2 0x3D4A DUP2 PUSH2 0x3D11 JUMP JUMPDEST SWAP1 POP SWAP2 SWAP1 POP JUMP JUMPDEST PUSH0 DUP2 SLOAD SWAP1 POP PUSH2 0x3D5F DUP2 PUSH2 0x3755 JUMP JUMPDEST SWAP1 POP SWAP2 SWAP1 POP JUMP JUMPDEST DUP2 DUP2 SUB PUSH2 0x3D74 JUMPI POP POP PUSH2 0x3E49 JUMP JUMPDEST PUSH2 0x3D7D DUP3 PUSH2 0x3D51 JUMP JUMPDEST PUSH8 0xFFFFFFFFFFFFFFFF DUP2 GT ISZERO PUSH2 0x3D96 JUMPI PUSH2 0x3D95 PUSH2 0x336A JUMP JUMPDEST JUMPDEST PUSH2 0x3DA0 DUP3 SLOAD PUSH2 0x3755 JUMP JUMPDEST PUSH2 0x3DAB DUP3 DUP3 DUP6 PUSH2 0x3AA1 JUMP JUMPDEST PUSH0 PUSH1 0x1F DUP4 GT PUSH1 0x1 DUP2 EQ PUSH2 0x3DD8 JUMPI PUSH0 DUP5 ISZERO PUSH2 0x3DC6 JUMPI DUP3 DUP8 ADD SLOAD SWAP1 POP JUMPDEST PUSH2 0x3DD0 DUP6 DUP3 PUSH2 0x3B0F JUMP JUMPDEST DUP7 SSTORE POP PUSH2 0x3E42 JUMP JUMPDEST PUSH1 0x1F NOT DUP5 AND PUSH2 0x3DE6 DUP8 PUSH2 0x398D JUMP JUMPDEST SWAP7 POP PUSH2 0x3DF1 DUP7 PUSH2 0x398D JUMP JUMPDEST PUSH0 JUMPDEST DUP3 DUP2 LT ISZERO PUSH2 0x3E18 JUMPI DUP5 DUP10 ADD SLOAD DUP3 SSTORE PUSH1 0x1 DUP3 ADD SWAP2 POP PUSH1 0x1 DUP6 ADD SWAP5 POP PUSH1 0x20 DUP2 ADD SWAP1 POP PUSH2 0x3DF3 JUMP JUMPDEST DUP7 DUP4 LT ISZERO PUSH2 0x3E35 JUMPI DUP5 DUP10 ADD SLOAD PUSH2 0x3E31 PUSH1 0x1F DUP10 AND DUP3 PUSH2 0x3AF3 JUMP JUMPDEST DUP4 SSTORE POP JUMPDEST PUSH1 0x1 PUSH1 0x2 DUP9 MUL ADD DUP9 SSTORE POP POP POP JUMPDEST POP POP POP POP POP POP JUMPDEST JUMP JUMPDEST PUSH32 0x5061757361626C653A2070617573656400000000000000000000000000000000 PUSH0 DUP3 ADD MSTORE POP JUMP JUMPDEST PUSH0 PUSH2 0x3E7F PUSH1 0x10 DUP4 PUSH2 0x3175 JUMP JUMPDEST SWAP2 POP PUSH2 0x3E8A DUP3 PUSH2 0x3E4B JUMP JUMPDEST PUSH1 0x20 DUP3 ADD SWAP1 POP SWAP2 SWAP1 POP JUMP JUMPDEST PUSH0 PUSH1 0x20 DUP3 ADD SWAP1 POP DUP2 DUP2 SUB PUSH0 DUP4 ADD MSTORE PUSH2 0x3EAC DUP2 PUSH2 0x3E73 JUMP JUMPDEST SWAP1 POP SWAP2 SWAP1 POP JUMP JUMPDEST PUSH32 0x4E487B7100000000000000000000000000000000000000000000000000000000 PUSH0 MSTORE PUSH1 0x32 PUSH1 0x4 MSTORE PUSH1 0x24 PUSH0 REVERT JUMPDEST PUSH32 0x4E487B7100000000000000000000000000000000000000000000000000000000 PUSH0 MSTORE PUSH1 0x11 PUSH1 0x4 MSTORE PUSH1 0x24 PUSH0 REVERT JUMPDEST PUSH0 PUSH2 0x3F17 DUP3 PUSH2 0x3304 JUMP JUMPDEST SWAP2 POP PUSH2 0x3F22 DUP4 PUSH2 0x3304 JUMP JUMPDEST SWAP3 POP DUP3 DUP3 SUB SWAP1 POP DUP2 DUP2 GT ISZERO PUSH2 0x3F3A JUMPI PUSH2 0x3F39 PUSH2 0x3EE0 JUMP JUMPDEST JUMPDEST SWAP3 SWAP2 POP POP JUMP JUMPDEST PUSH32 0x4E487B7100000000000000000000000000000000000000000000000000000000 PUSH0 MSTORE PUSH1 0x31 PUSH1 0x4 MSTORE PUSH1 0x24 PUSH0 REVERT JUMPDEST PUSH0 PUSH1 0x20 DUP3 ADD SWAP1 POP PUSH2 0x3F80 PUSH0 DUP4 ADD DUP5 PUSH2 0x2F87 JUMP JUMPDEST SWAP3 SWAP2 POP POP JUMP JUMPDEST PUSH0 PUSH1 0x40 DUP3 ADD SWAP1 POP PUSH2 0x3F99 PUSH0 DUP4 ADD DUP6 PUSH2 0x2F87 JUMP JUMPDEST PUSH2 0x3FA6 PUSH1 0x20 DUP4 ADD DUP5 PUSH2 0x3166 JUMP JUMPDEST SWAP4 SWAP3 POP POP POP JUMP JUMPDEST PUSH32 0x5061757361626C653A206E6F7420706175736564000000000000000000000000 PUSH0 DUP3 ADD MSTORE POP JUMP JUMPDEST PUSH0 PUSH2 0x3FE1 PUSH1 0x14 DUP4 PUSH2 0x3175 JUMP JUMPDEST SWAP2 POP PUSH2 0x3FEC DUP3 PUSH2 0x3FAD JUMP JUMPDEST PUSH1 0x20 DUP3 ADD SWAP1 POP SWAP2 SWAP1 POP JUMP JUMPDEST PUSH0 PUSH1 0x20 DUP3 ADD SWAP1 POP DUP2 DUP2 SUB PUSH0 DUP4 ADD MSTORE PUSH2 0x400E DUP2 PUSH2 0x3FD5 JUMP JUMPDEST SWAP1 POP SWAP2 SWAP1 POP JUMP INVALID LOG2 PUSH5 0x6970667358 0x22 SLT KECCAK256 MOD EXTCODESIZE SHL 0xE8 0x4C DUP11 SUB JUMP BLOCKHASH TIMESTAMP JUMPI LOG4 0x22 0x22 0xA6 BASEFEE DIV SUB SWAP3 PUSH16 0xFB9C7D33B755DA72A54DD7AA64736F6C PUSH4 0x4300081A STOP CALLER "
				},
				"gasEstimates": {
					"creation": {
						"codeDepositCost": "3291800",
						"executionCost": "infinite",
						"totalCost": "infinite"
					},
					"external": {
						"ADMIN_ROLE()": "371",
						"DEFAULT_ADMIN_ROLE()": "441",
						"GALLERY_OWNER_ROLE()": "370",
						"PAINTER_ROLE()": "415",
						"SPONSOR_ROLE()": "391",
						"WALL_OWNER_ROLE()": "414",
						"approveRoleRequest(address,bytes32)": "infinite",
						"approveUserInfoRequest(address)": "infinite",
						"assignRole(address,bytes32)": "infinite",
						"getPendingRequests()": "infinite",
						"getRoleAdmin(bytes32)": "infinite",
						"getRoleRequest(address,bytes32)": "infinite",
						"getUserInfo(address)": "infinite",
						"grantRole(bytes32,address)": "infinite",
						"hasRole(bytes32,address)": "3167",
						"pause()": "infinite",
						"paused()": "2562",
						"pendingRequests(uint256)": "infinite",
						"rejectRoleRequest(address,bytes32)": "infinite",
						"rejectUserInfoRequest(address)": "infinite",
						"renounceRole(bytes32,address)": "infinite",
						"requestRole(bytes32,string)": "infinite",
						"requestUserInfo(string,string,string,string)": "infinite",
						"revokeRole(address,bytes32)": "infinite",
						"revokeRole(bytes32,address)": "infinite",
						"roleRequests(address,bytes32)": "infinite",
						"supportsInterface(bytes4)": "764",
						"unpause()": "infinite",
						"userInfo(address)": "infinite",
						"userInfoRequests(address)": "infinite"
					},
					"internal": {
						"_removeFromPendingRequests(address,bytes32)": "infinite"
					}
				},
				"methodIdentifiers": {
					"ADMIN_ROLE()": "75b238fc",
					"DEFAULT_ADMIN_ROLE()": "a217fddf",
					"GALLERY_OWNER_ROLE()": "78988ebd",
					"PAINTER_ROLE()": "303e3840",
					"SPONSOR_ROLE()": "c2d79444",
					"WALL_OWNER_ROLE()": "98e4abb5",
					"approveRoleRequest(address,bytes32)": "25df448c",
					"approveUserInfoRequest(address)": "fa90ace3",
					"assignRole(address,bytes32)": "1d9486de",
					"getPendingRequests()": "80a1f712",
					"getRoleAdmin(bytes32)": "248a9ca3",
					"getRoleRequest(address,bytes32)": "18097b69",
					"getUserInfo(address)": "6386c1c7",
					"grantRole(bytes32,address)": "2f2ff15d",
					"hasRole(bytes32,address)": "91d14854",
					"pause()": "8456cb59",
					"paused()": "5c975abb",
					"pendingRequests(uint256)": "3c652a9a",
					"rejectRoleRequest(address,bytes32)": "bd605121",
					"rejectUserInfoRequest(address)": "7e75d956",
					"renounceRole(bytes32,address)": "36568abe",
					"requestRole(bytes32,string)": "768b01aa",
					"requestUserInfo(string,string,string,string)": "78426848",
					"revokeRole(address,bytes32)": "208dd1ff",
					"revokeRole(bytes32,address)": "d547741f",
					"roleRequests(address,bytes32)": "9411ca46",
					"supportsInterface(bytes4)": "01ffc9a7",
					"unpause()": "3f4ba83a",
					"userInfo(address)": "1959a002",
					"userInfoRequests(address)": "095c6e02"
				}
			},
			"storageLayout": {
				"storage": [
					{
						"astId": 26,
						"contract": "Wallery/Rolemanager.sol:RoleManager",
						"label": "_roles",
						"offset": 0,
						"slot": "0",
						"type": "t_mapping(t_bytes32,t_struct(RoleData)21_storage)"
					},
					{
						"astId": 396,
						"contract": "Wallery/Rolemanager.sol:RoleManager",
						"label": "_paused",
						"offset": 0,
						"slot": "1",
						"type": "t_bool"
					},
					{
						"astId": 624,
						"contract": "Wallery/Rolemanager.sol:RoleManager",
						"label": "userInfo",
						"offset": 0,
						"slot": "2",
						"type": "t_mapping(t_address,t_struct(UserInfo)596_storage)"
					},
					{
						"astId": 629,
						"contract": "Wallery/Rolemanager.sol:RoleManager",
						"label": "userInfoRequests",
						"offset": 0,
						"slot": "3",
						"type": "t_mapping(t_address,t_struct(UserInfoRequest)608_storage)"
					},
					{
						"astId": 636,
						"contract": "Wallery/Rolemanager.sol:RoleManager",
						"label": "roleRequests",
						"offset": 0,
						"slot": "4",
						"type": "t_mapping(t_address,t_mapping(t_bytes32,t_struct(RoleRequest)619_storage))"
					},
					{
						"astId": 640,
						"contract": "Wallery/Rolemanager.sol:RoleManager",
						"label": "pendingRequests",
						"offset": 0,
						"slot": "5",
						"type": "t_array(t_struct(RoleRequest)619_storage)dyn_storage"
					}
				],
				"types": {
					"t_address": {
						"encoding": "inplace",
						"label": "address",
						"numberOfBytes": "20"
					},
					"t_array(t_struct(RoleRequest)619_storage)dyn_storage": {
						"base": "t_struct(RoleRequest)619_storage",
						"encoding": "dynamic_array",
						"label": "struct RoleManager.RoleRequest[]",
						"numberOfBytes": "32"
					},
					"t_bool": {
						"encoding": "inplace",
						"label": "bool",
						"numberOfBytes": "1"
					},
					"t_bytes32": {
						"encoding": "inplace",
						"label": "bytes32",
						"numberOfBytes": "32"
					},
					"t_mapping(t_address,t_bool)": {
						"encoding": "mapping",
						"key": "t_address",
						"label": "mapping(address => bool)",
						"numberOfBytes": "32",
						"value": "t_bool"
					},
					"t_mapping(t_address,t_mapping(t_bytes32,t_struct(RoleRequest)619_storage))": {
						"encoding": "mapping",
						"key": "t_address",
						"label": "mapping(address => mapping(bytes32 => struct RoleManager.RoleRequest))",
						"numberOfBytes": "32",
						"value": "t_mapping(t_bytes32,t_struct(RoleRequest)619_storage)"
					},
					"t_mapping(t_address,t_struct(UserInfo)596_storage)": {
						"encoding": "mapping",
						"key": "t_address",
						"label": "mapping(address => struct RoleManager.UserInfo)",
						"numberOfBytes": "32",
						"value": "t_struct(UserInfo)596_storage"
					},
					"t_mapping(t_address,t_struct(UserInfoRequest)608_storage)": {
						"encoding": "mapping",
						"key": "t_address",
						"label": "mapping(address => struct RoleManager.UserInfoRequest)",
						"numberOfBytes": "32",
						"value": "t_struct(UserInfoRequest)608_storage"
					},
					"t_mapping(t_bytes32,t_struct(RoleData)21_storage)": {
						"encoding": "mapping",
						"key": "t_bytes32",
						"label": "mapping(bytes32 => struct AccessControl.RoleData)",
						"numberOfBytes": "32",
						"value": "t_struct(RoleData)21_storage"
					},
					"t_mapping(t_bytes32,t_struct(RoleRequest)619_storage)": {
						"encoding": "mapping",
						"key": "t_bytes32",
						"label": "mapping(bytes32 => struct RoleManager.RoleRequest)",
						"numberOfBytes": "32",
						"value": "t_struct(RoleRequest)619_storage"
					},
					"t_string_storage": {
						"encoding": "bytes",
						"label": "string",
						"numberOfBytes": "32"
					},
					"t_struct(RoleData)21_storage": {
						"encoding": "inplace",
						"label": "struct AccessControl.RoleData",
						"members": [
							{
								"astId": 18,
								"contract": "Wallery/Rolemanager.sol:RoleManager",
								"label": "hasRole",
								"offset": 0,
								"slot": "0",
								"type": "t_mapping(t_address,t_bool)"
							},
							{
								"astId": 20,
								"contract": "Wallery/Rolemanager.sol:RoleManager",
								"label": "adminRole",
								"offset": 0,
								"slot": "1",
								"type": "t_bytes32"
							}
						],
						"numberOfBytes": "64"
					},
					"t_struct(RoleRequest)619_storage": {
						"encoding": "inplace",
						"label": "struct RoleManager.RoleRequest",
						"members": [
							{
								"astId": 610,
								"contract": "Wallery/Rolemanager.sol:RoleManager",
								"label": "requester",
								"offset": 0,
								"slot": "0",
								"type": "t_address"
							},
							{
								"astId": 612,
								"contract": "Wallery/Rolemanager.sol:RoleManager",
								"label": "role",
								"offset": 0,
								"slot": "1",
								"type": "t_bytes32"
							},
							{
								"astId": 614,
								"contract": "Wallery/Rolemanager.sol:RoleManager",
								"label": "reason",
								"offset": 0,
								"slot": "2",
								"type": "t_string_storage"
							},
							{
								"astId": 616,
								"contract": "Wallery/Rolemanager.sol:RoleManager",
								"label": "pending",
								"offset": 0,
								"slot": "3",
								"type": "t_bool"
							},
							{
								"astId": 618,
								"contract": "Wallery/Rolemanager.sol:RoleManager",
								"label": "approved",
								"offset": 1,
								"slot": "3",
								"type": "t_bool"
							}
						],
						"numberOfBytes": "128"
					},
					"t_struct(UserInfo)596_storage": {
						"encoding": "inplace",
						"label": "struct RoleManager.UserInfo",
						"members": [
							{
								"astId": 587,
								"contract": "Wallery/Rolemanager.sol:RoleManager",
								"label": "firstName",
								"offset": 0,
								"slot": "0",
								"type": "t_string_storage"
							},
							{
								"astId": 589,
								"contract": "Wallery/Rolemanager.sol:RoleManager",
								"label": "lastName",
								"offset": 0,
								"slot": "1",
								"type": "t_string_storage"
							},
							{
								"astId": 591,
								"contract": "Wallery/Rolemanager.sol:RoleManager",
								"label": "email",
								"offset": 0,
								"slot": "2",
								"type": "t_string_storage"
							},
							{
								"astId": 593,
								"contract": "Wallery/Rolemanager.sol:RoleManager",
								"label": "organization",
								"offset": 0,
								"slot": "3",
								"type": "t_string_storage"
							},
							{
								"astId": 595,
								"contract": "Wallery/Rolemanager.sol:RoleManager",
								"label": "walletAddress",
								"offset": 0,
								"slot": "4",
								"type": "t_address"
							}
						],
						"numberOfBytes": "160"
					},
					"t_struct(UserInfoRequest)608_storage": {
						"encoding": "inplace",
						"label": "struct RoleManager.UserInfoRequest",
						"members": [
							{
								"astId": 598,
								"contract": "Wallery/Rolemanager.sol:RoleManager",
								"label": "requester",
								"offset": 0,
								"slot": "0",
								"type": "t_address"
							},
							{
								"astId": 601,
								"contract": "Wallery/Rolemanager.sol:RoleManager",
								"label": "info",
								"offset": 0,
								"slot": "1",
								"type": "t_struct(UserInfo)596_storage"
							},
							{
								"astId": 603,
								"contract": "Wallery/Rolemanager.sol:RoleManager",
								"label": "isUpdate",
								"offset": 0,
								"slot": "6",
								"type": "t_bool"
							},
							{
								"astId": 605,
								"contract": "Wallery/Rolemanager.sol:RoleManager",
								"label": "pending",
								"offset": 1,
								"slot": "6",
								"type": "t_bool"
							},
							{
								"astId": 607,
								"contract": "Wallery/Rolemanager.sol:RoleManager",
								"label": "approved",
								"offset": 2,
								"slot": "6",
								"type": "t_bool"
							}
						],
						"numberOfBytes": "224"
					}
				}
			},
			"userdoc": {
				"kind": "user",
				"methods": {},
				"version": 1
			}
		}
	}
}