{
	"Wallery/PaintingShares.sol": {
		"PaintingShares": {
			"abi": [
				{
					"inputs": [
						{
							"internalType": "address",
							"name": "initialOwner",
							"type": "address"
						}
					],
					"stateMutability": "nonpayable",
					"type": "constructor"
				},
				{
					"inputs": [
						{
							"internalType": "address",
							"name": "owner",
							"type": "address"
						}
					],
					"name": "OwnableInvalidOwner",
					"type": "error"
				},
				{
					"inputs": [
						{
							"internalType": "address",
							"name": "account",
							"type": "address"
						}
					],
					"name": "OwnableUnauthorizedAccount",
					"type": "error"
				},
				{
					"anonymous": false,
					"inputs": [
						{
							"indexed": true,
							"internalType": "uint256",
							"name": "paintingId",
							"type": "uint256"
						},
						{
							"indexed": true,
							"internalType": "address",
							"name": "owner",
							"type": "address"
						},
						{
							"indexed": true,
							"internalType": "address",
							"name": "spender",
							"type": "address"
						},
						{
							"indexed": false,
							"internalType": "uint256",
							"name": "value",
							"type": "uint256"
						}
					],
					"name": "Approval",
					"type": "event"
				},
				{
					"anonymous": false,
					"inputs": [
						{
							"indexed": true,
							"internalType": "address",
							"name": "previousOwner",
							"type": "address"
						},
						{
							"indexed": true,
							"internalType": "address",
							"name": "newOwner",
							"type": "address"
						}
					],
					"name": "OwnershipTransferred",
					"type": "event"
				},
				{
					"anonymous": false,
					"inputs": [
						{
							"indexed": false,
							"internalType": "address",
							"name": "account",
							"type": "address"
						}
					],
					"name": "Paused",
					"type": "event"
				},
				{
					"anonymous": false,
					"inputs": [
						{
							"indexed": true,
							"internalType": "uint256",
							"name": "paintingId",
							"type": "uint256"
						},
						{
							"indexed": false,
							"internalType": "string",
							"name": "name",
							"type": "string"
						},
						{
							"indexed": false,
							"internalType": "string",
							"name": "symbol",
							"type": "string"
						},
						{
							"indexed": false,
							"internalType": "uint256",
							"name": "platformShares",
							"type": "uint256"
						},
						{
							"indexed": false,
							"internalType": "uint256",
							"name": "wallOwnerShares",
							"type": "uint256"
						},
						{
							"indexed": false,
							"internalType": "uint256",
							"name": "galleryOwnerShares",
							"type": "uint256"
						},
						{
							"indexed": false,
							"internalType": "uint256",
							"name": "painterShares",
							"type": "uint256"
						}
					],
					"name": "SharesCreated",
					"type": "event"
				},
				{
					"anonymous": false,
					"inputs": [
						{
							"indexed": true,
							"internalType": "uint256",
							"name": "paintingId",
							"type": "uint256"
						},
						{
							"indexed": true,
							"internalType": "address",
							"name": "from",
							"type": "address"
						},
						{
							"indexed": true,
							"internalType": "address",
							"name": "to",
							"type": "address"
						},
						{
							"indexed": false,
							"internalType": "uint256",
							"name": "value",
							"type": "uint256"
						}
					],
					"name": "Transfer",
					"type": "event"
				},
				{
					"anonymous": false,
					"inputs": [
						{
							"indexed": false,
							"internalType": "address",
							"name": "account",
							"type": "address"
						}
					],
					"name": "Unpaused",
					"type": "event"
				},
				{
					"inputs": [],
					"name": "TOTAL_SHARES",
					"outputs": [
						{
							"internalType": "uint256",
							"name": "",
							"type": "uint256"
						}
					],
					"stateMutability": "view",
					"type": "function"
				},
				{
					"inputs": [
						{
							"internalType": "address",
							"name": "",
							"type": "address"
						},
						{
							"internalType": "address",
							"name": "",
							"type": "address"
						},
						{
							"internalType": "uint256",
							"name": "",
							"type": "uint256"
						}
					],
					"name": "allowance",
					"outputs": [
						{
							"internalType": "uint256",
							"name": "",
							"type": "uint256"
						}
					],
					"stateMutability": "view",
					"type": "function"
				},
				{
					"inputs": [
						{
							"internalType": "uint256",
							"name": "paintingId",
							"type": "uint256"
						},
						{
							"internalType": "address",
							"name": "spender",
							"type": "address"
						},
						{
							"internalType": "uint256",
							"name": "amount",
							"type": "uint256"
						}
					],
					"name": "approve",
					"outputs": [
						{
							"internalType": "bool",
							"name": "",
							"type": "bool"
						}
					],
					"stateMutability": "nonpayable",
					"type": "function"
				},
				{
					"inputs": [
						{
							"internalType": "address",
							"name": "",
							"type": "address"
						},
						{
							"internalType": "uint256",
							"name": "",
							"type": "uint256"
						}
					],
					"name": "balanceOf",
					"outputs": [
						{
							"internalType": "uint256",
							"name": "",
							"type": "uint256"
						}
					],
					"stateMutability": "view",
					"type": "function"
				},
				{
					"inputs": [
						{
							"internalType": "uint256",
							"name": "paintingId",
							"type": "uint256"
						},
						{
							"internalType": "address",
							"name": "",
							"type": "address"
						},
						{
							"internalType": "address",
							"name": "wallOwner",
							"type": "address"
						},
						{
							"internalType": "address",
							"name": "galleryOwner",
							"type": "address"
						},
						{
							"internalType": "address",
							"name": "painter",
							"type": "address"
						},
						{
							"internalType": "uint256",
							"name": "platformPercentage",
							"type": "uint256"
						},
						{
							"internalType": "uint256",
							"name": "wallOwnerPercentage",
							"type": "uint256"
						},
						{
							"internalType": "uint256",
							"name": "galleryOwnerPercentage",
							"type": "uint256"
						}
					],
					"name": "createSharesForPainting",
					"outputs": [],
					"stateMutability": "nonpayable",
					"type": "function"
				},
				{
					"inputs": [],
					"name": "debugPlatformAdmin",
					"outputs": [
						{
							"internalType": "address",
							"name": "platformAdmin",
							"type": "address"
						},
						{
							"internalType": "uint256",
							"name": "paintingId",
							"type": "uint256"
						},
						{
							"internalType": "uint256",
							"name": "adminShares",
							"type": "uint256"
						}
					],
					"stateMutability": "view",
					"type": "function"
				},
				{
					"inputs": [
						{
							"internalType": "uint256",
							"name": "platformPercentage",
							"type": "uint256"
						},
						{
							"internalType": "uint256",
							"name": "wallOwnerPercentage",
							"type": "uint256"
						},
						{
							"internalType": "uint256",
							"name": "galleryOwnerPercentage",
							"type": "uint256"
						}
					],
					"name": "debugShareCalculation",
					"outputs": [
						{
							"internalType": "uint256",
							"name": "platformShares",
							"type": "uint256"
						},
						{
							"internalType": "uint256",
							"name": "wallOwnerShares",
							"type": "uint256"
						},
						{
							"internalType": "uint256",
							"name": "galleryOwnerShares",
							"type": "uint256"
						},
						{
							"internalType": "uint256",
							"name": "remainingShares",
							"type": "uint256"
						}
					],
					"stateMutability": "pure",
					"type": "function"
				},
				{
					"inputs": [
						{
							"internalType": "uint256",
							"name": "paintingId",
							"type": "uint256"
						}
					],
					"name": "getShareInfo",
					"outputs": [
						{
							"internalType": "string",
							"name": "name",
							"type": "string"
						},
						{
							"internalType": "string",
							"name": "symbol",
							"type": "string"
						},
						{
							"internalType": "uint256",
							"name": "totalSupply",
							"type": "uint256"
						},
						{
							"internalType": "bool",
							"name": "exists",
							"type": "bool"
						}
					],
					"stateMutability": "view",
					"type": "function"
				},
				{
					"inputs": [],
					"name": "owner",
					"outputs": [
						{
							"internalType": "address",
							"name": "",
							"type": "address"
						}
					],
					"stateMutability": "view",
					"type": "function"
				},
				{
					"inputs": [],
					"name": "paintingNFTContract",
					"outputs": [
						{
							"internalType": "address",
							"name": "",
							"type": "address"
						}
					],
					"stateMutability": "view",
					"type": "function"
				},
				{
					"inputs": [],
					"name": "pause",
					"outputs": [],
					"stateMutability": "nonpayable",
					"type": "function"
				},
				{
					"inputs": [],
					"name": "paused",
					"outputs": [
						{
							"internalType": "bool",
							"name": "",
							"type": "bool"
						}
					],
					"stateMutability": "view",
					"type": "function"
				},
				{
					"inputs": [],
					"name": "renounceOwnership",
					"outputs": [],
					"stateMutability": "nonpayable",
					"type": "function"
				},
				{
					"inputs": [
						{
							"internalType": "address",
							"name": "_paintingNFTContract",
							"type": "address"
						}
					],
					"name": "setPaintingNFTContract",
					"outputs": [],
					"stateMutability": "nonpayable",
					"type": "function"
				},
				{
					"inputs": [
						{
							"internalType": "uint256",
							"name": "",
							"type": "uint256"
						}
					],
					"name": "shares",
					"outputs": [
						{
							"internalType": "string",
							"name": "name",
							"type": "string"
						},
						{
							"internalType": "string",
							"name": "symbol",
							"type": "string"
						},
						{
							"internalType": "uint256",
							"name": "totalSupply",
							"type": "uint256"
						},
						{
							"internalType": "bool",
							"name": "exists",
							"type": "bool"
						}
					],
					"stateMutability": "view",
					"type": "function"
				},
				{
					"inputs": [
						{
							"internalType": "uint256",
							"name": "paintingId",
							"type": "uint256"
						},
						{
							"internalType": "address",
							"name": "to",
							"type": "address"
						},
						{
							"internalType": "uint256",
							"name": "amount",
							"type": "uint256"
						}
					],
					"name": "transfer",
					"outputs": [
						{
							"internalType": "bool",
							"name": "",
							"type": "bool"
						}
					],
					"stateMutability": "nonpayable",
					"type": "function"
				},
				{
					"inputs": [
						{
							"internalType": "uint256",
							"name": "paintingId",
							"type": "uint256"
						},
						{
							"internalType": "address",
							"name": "from",
							"type": "address"
						},
						{
							"internalType": "address",
							"name": "to",
							"type": "address"
						},
						{
							"internalType": "uint256",
							"name": "amount",
							"type": "uint256"
						}
					],
					"name": "transferFrom",
					"outputs": [
						{
							"internalType": "bool",
							"name": "",
							"type": "bool"
						}
					],
					"stateMutability": "nonpayable",
					"type": "function"
				},
				{
					"inputs": [
						{
							"internalType": "address",
							"name": "newOwner",
							"type": "address"
						}
					],
					"name": "transferOwnership",
					"outputs": [],
					"stateMutability": "nonpayable",
					"type": "function"
				},
				{
					"inputs": [],
					"name": "unpause",
					"outputs": [],
					"stateMutability": "nonpayable",
					"type": "function"
				}
			],
			"devdoc": {
				"errors": {
					"OwnableInvalidOwner(address)": [
						{
							"details": "The owner is not a valid owner account. (eg. `address(0)`)"
						}
					],
					"OwnableUnauthorizedAccount(address)": [
						{
							"details": "The caller account is not authorized to perform an operation."
						}
					]
				},
				"events": {
					"Paused(address)": {
						"details": "Emitted when the pause is triggered by `account`."
					},
					"Unpaused(address)": {
						"details": "Emitted when the pause is lifted by `account`."
					}
				},
				"kind": "dev",
				"methods": {
					"owner()": {
						"details": "Returns the address of the current owner."
					},
					"paused()": {
						"details": "Returns true if the contract is paused, and false otherwise."
					},
					"renounceOwnership()": {
						"details": "Leaves the contract without owner. It will not be possible to call `onlyOwner` functions. Can only be called by the current owner. NOTE: Renouncing ownership will leave the contract without an owner, thereby disabling any functionality that is only available to the owner."
					},
					"transferOwnership(address)": {
						"details": "Transfers ownership of the contract to a new account (`newOwner`). Can only be called by the current owner."
					}
				},
				"version": 1
			},
			"evm": {
				"assembly": "    /* \"Wallery/PaintingShares.sol\":237:10067  contract PaintingShares is Ownable, Pausable, ReentrancyGuard {... */\n  mstore(0x40, 0x80)\n    /* \"Wallery/PaintingShares.sol\":1679:1804  constructor(address initialOwner) Ownable(initialOwner) {... */\n  callvalue\n  dup1\n  iszero\n  tag_1\n  jumpi\n  0x00\n  dup1\n  revert\ntag_1:\n  pop\n  mload(0x40)\n  sub(codesize, bytecodeSize)\n  dup1\n  bytecodeSize\n  dup4\n  codecopy\n  dup2\n  dup2\n  add\n  0x40\n  mstore\n  dup2\n  add\n  swap1\n  tag_2\n  swap2\n  swap1\n  tag_3\n  jump\t// in\ntag_2:\n    /* \"Wallery/PaintingShares.sol\":1721:1733  initialOwner */\n  dup1\n    /* \"@openzeppelin/contracts/access/Ownable.sol\":1297:1298  0 */\n  0x00\n    /* \"@openzeppelin/contracts/access/Ownable.sol\":1273:1299  initialOwner == address(0) */\n  0xffffffffffffffffffffffffffffffffffffffff\n  and\n    /* \"@openzeppelin/contracts/access/Ownable.sol\":1273:1285  initialOwner */\n  dup2\n    /* \"@openzeppelin/contracts/access/Ownable.sol\":1273:1299  initialOwner == address(0) */\n  0xffffffffffffffffffffffffffffffffffffffff\n  and\n  sub\n    /* \"@openzeppelin/contracts/access/Ownable.sol\":1269:1364  if (initialOwner == address(0)) {... */\n  tag_9\n  jumpi\n    /* \"@openzeppelin/contracts/access/Ownable.sol\":1350:1351  0 */\n  0x00\n    /* \"@openzeppelin/contracts/access/Ownable.sol\":1322:1353  OwnableInvalidOwner(address(0)) */\n  mload(0x40)\n  0x1e4fbdf700000000000000000000000000000000000000000000000000000000\n  dup2\n  mstore\n  0x04\n  add\n  tag_10\n  swap2\n  swap1\n  tag_11\n  jump\t// in\ntag_10:\n  mload(0x40)\n  dup1\n  swap2\n  sub\n  swap1\n  revert\n    /* \"@openzeppelin/contracts/access/Ownable.sol\":1269:1364  if (initialOwner == address(0)) {... */\ntag_9:\n    /* \"@openzeppelin/contracts/access/Ownable.sol\":1373:1405  _transferOwnership(initialOwner) */\n  tag_12\n    /* \"@openzeppelin/contracts/access/Ownable.sol\":1392:1404  initialOwner */\n  dup2\n    /* \"@openzeppelin/contracts/access/Ownable.sol\":1373:1391  _transferOwnership */\n  shl(0x20, tag_13)\n    /* \"@openzeppelin/contracts/access/Ownable.sol\":1373:1405  _transferOwnership(initialOwner) */\n  0x20\n  shr\n  jump\t// in\ntag_12:\n    /* \"@openzeppelin/contracts/access/Ownable.sol\":1225:1412  constructor(address initialOwner) {... */\n  pop\n    /* \"@openzeppelin/contracts/security/Pausable.sol\":1006:1011  false */\n  0x00\n    /* \"@openzeppelin/contracts/security/Pausable.sol\":996:1003  _paused */\n  dup1\n  0x14\n    /* \"@openzeppelin/contracts/security/Pausable.sol\":996:1011  _paused = false */\n  0x0100\n  exp\n  dup2\n  sload\n  dup2\n  0xff\n  mul\n  not\n  and\n  swap1\n  dup4\n  iszero\n  iszero\n  mul\n  or\n  swap1\n  sstore\n  pop\n    /* \"@openzeppelin/contracts/security/ReentrancyGuard.sol\":1716:1717  1 */\n  0x01\n    /* \"@openzeppelin/contracts/security/ReentrancyGuard.sol\":1821:1828  _status */\n  dup1\n    /* \"@openzeppelin/contracts/security/ReentrancyGuard.sol\":1821:1843  _status = _NOT_ENTERED */\n  dup2\n  swap1\n  sstore\n  pop\n    /* \"Wallery/PaintingShares.sol\":1742:1750  _pause() */\n  tag_17\n    /* \"Wallery/PaintingShares.sol\":1742:1748  _pause */\n  shl(0x20, tag_18)\n    /* \"Wallery/PaintingShares.sol\":1742:1750  _pause() */\n  0x20\n  shr\n  jump\t// in\ntag_17:\n    /* \"Wallery/PaintingShares.sol\":1679:1804  constructor(address initialOwner) Ownable(initialOwner) {... */\n  pop\n    /* \"Wallery/PaintingShares.sol\":237:10067  contract PaintingShares is Ownable, Pausable, ReentrancyGuard {... */\n  jump(tag_19)\n    /* \"@openzeppelin/contracts/access/Ownable.sol\":2912:3099  function _transferOwnership(address newOwner) internal virtual {... */\ntag_13:\n    /* \"@openzeppelin/contracts/access/Ownable.sol\":2985:3001  address oldOwner */\n  0x00\n    /* \"@openzeppelin/contracts/access/Ownable.sol\":3004:3010  _owner */\n  dup1\n  0x00\n  swap1\n  sload\n  swap1\n  0x0100\n  exp\n  swap1\n  div\n  0xffffffffffffffffffffffffffffffffffffffff\n  and\n    /* \"@openzeppelin/contracts/access/Ownable.sol\":2985:3010  address oldOwner = _owner */\n  swap1\n  pop\n    /* \"@openzeppelin/contracts/access/Ownable.sol\":3029:3037  newOwner */\n  dup2\n    /* \"@openzeppelin/contracts/access/Ownable.sol\":3020:3026  _owner */\n  0x00\n  dup1\n    /* \"@openzeppelin/contracts/access/Ownable.sol\":3020:3037  _owner = newOwner */\n  0x0100\n  exp\n  dup2\n  sload\n  dup2\n  0xffffffffffffffffffffffffffffffffffffffff\n  mul\n  not\n  and\n  swap1\n  dup4\n  0xffffffffffffffffffffffffffffffffffffffff\n  and\n  mul\n  or\n  swap1\n  sstore\n  pop\n    /* \"@openzeppelin/contracts/access/Ownable.sol\":3083:3091  newOwner */\n  dup2\n    /* \"@openzeppelin/contracts/access/Ownable.sol\":3052:3092  OwnershipTransferred(oldOwner, newOwner) */\n  0xffffffffffffffffffffffffffffffffffffffff\n  and\n    /* \"@openzeppelin/contracts/access/Ownable.sol\":3073:3081  oldOwner */\n  dup2\n    /* \"@openzeppelin/contracts/access/Ownable.sol\":3052:3092  OwnershipTransferred(oldOwner, newOwner) */\n  0xffffffffffffffffffffffffffffffffffffffff\n  and\n  0x8be0079c531659141344cd1fd0a4f28419497f9722a3daafe3b4186f6b6457e0\n  mload(0x40)\n  mload(0x40)\n  dup1\n  swap2\n  sub\n  swap1\n  log3\n    /* \"@openzeppelin/contracts/access/Ownable.sol\":2975:3099  {... */\n  pop\n    /* \"@openzeppelin/contracts/access/Ownable.sol\":2912:3099  function _transferOwnership(address newOwner) internal virtual {... */\n  pop\n  jump\t// out\n    /* \"@openzeppelin/contracts/security/Pausable.sol\":2186:2301  function _pause() internal virtual whenNotPaused {... */\ntag_18:\n    /* \"@openzeppelin/contracts/security/Pausable.sol\":1239:1258  _requireNotPaused() */\n  tag_22\n    /* \"@openzeppelin/contracts/security/Pausable.sol\":1239:1256  _requireNotPaused */\n  shl(0x20, tag_23)\n    /* \"@openzeppelin/contracts/security/Pausable.sol\":1239:1258  _requireNotPaused() */\n  0x20\n  shr\n  jump\t// in\ntag_22:\n    /* \"@openzeppelin/contracts/security/Pausable.sol\":2255:2259  true */\n  0x01\n    /* \"@openzeppelin/contracts/security/Pausable.sol\":2245:2252  _paused */\n  0x00\n  0x14\n    /* \"@openzeppelin/contracts/security/Pausable.sol\":2245:2259  _paused = true */\n  0x0100\n  exp\n  dup2\n  sload\n  dup2\n  0xff\n  mul\n  not\n  and\n  swap1\n  dup4\n  iszero\n  iszero\n  mul\n  or\n  swap1\n  sstore\n  pop\n    /* \"@openzeppelin/contracts/security/Pausable.sol\":2274:2294  Paused(_msgSender()) */\n  0x62e78cea01bee320cd4e420270b5ea74000d11b0c9f74754ebdbfc544b05a258\n    /* \"@openzeppelin/contracts/security/Pausable.sol\":2281:2293  _msgSender() */\n  tag_25\n    /* \"@openzeppelin/contracts/security/Pausable.sol\":2281:2291  _msgSender */\n  shl(0x20, tag_26)\n    /* \"@openzeppelin/contracts/security/Pausable.sol\":2281:2293  _msgSender() */\n  0x20\n  shr\n  jump\t// in\ntag_25:\n    /* \"@openzeppelin/contracts/security/Pausable.sol\":2274:2294  Paused(_msgSender()) */\n  mload(0x40)\n  tag_27\n  swap2\n  swap1\n  tag_11\n  jump\t// in\ntag_27:\n  mload(0x40)\n  dup1\n  swap2\n  sub\n  swap1\n  log1\n    /* \"@openzeppelin/contracts/security/Pausable.sol\":2186:2301  function _pause() internal virtual whenNotPaused {... */\n  jump\t// out\n    /* \"@openzeppelin/contracts/security/Pausable.sol\":1767:1873  function _requireNotPaused() internal view virtual {... */\ntag_23:\n    /* \"@openzeppelin/contracts/security/Pausable.sol\":1837:1845  paused() */\n  tag_29\n    /* \"@openzeppelin/contracts/security/Pausable.sol\":1837:1843  paused */\n  shl(0x20, tag_30)\n    /* \"@openzeppelin/contracts/security/Pausable.sol\":1837:1845  paused() */\n  0x20\n  shr\n  jump\t// in\ntag_29:\n    /* \"@openzeppelin/contracts/security/Pausable.sol\":1836:1845  !paused() */\n  iszero\n    /* \"@openzeppelin/contracts/security/Pausable.sol\":1828:1866  require(!paused(), \"Pausable: paused\") */\n  tag_31\n  jumpi\n  mload(0x40)\n  0x08c379a000000000000000000000000000000000000000000000000000000000\n  dup2\n  mstore\n  0x04\n  add\n  tag_32\n  swap1\n  tag_33\n  jump\t// in\ntag_32:\n  mload(0x40)\n  dup1\n  swap2\n  sub\n  swap1\n  revert\ntag_31:\n    /* \"@openzeppelin/contracts/security/Pausable.sol\":1767:1873  function _requireNotPaused() internal view virtual {... */\n  jump\t// out\n    /* \"@openzeppelin/contracts/utils/Context.sol\":656:752  function _msgSender() internal view virtual returns (address) {... */\ntag_26:\n    /* \"@openzeppelin/contracts/utils/Context.sol\":709:716  address */\n  0x00\n    /* \"@openzeppelin/contracts/utils/Context.sol\":735:745  msg.sender */\n  caller\n    /* \"@openzeppelin/contracts/utils/Context.sol\":728:745  return msg.sender */\n  swap1\n  pop\n    /* \"@openzeppelin/contracts/utils/Context.sol\":656:752  function _msgSender() internal view virtual returns (address) {... */\n  swap1\n  jump\t// out\n    /* \"@openzeppelin/contracts/security/Pausable.sol\":1615:1699  function paused() public view virtual returns (bool) {... */\ntag_30:\n    /* \"@openzeppelin/contracts/security/Pausable.sol\":1662:1666  bool */\n  0x00\n    /* \"@openzeppelin/contracts/security/Pausable.sol\":1685:1692  _paused */\n  dup1\n  0x14\n  swap1\n  sload\n  swap1\n  0x0100\n  exp\n  swap1\n  div\n  0xff\n  and\n    /* \"@openzeppelin/contracts/security/Pausable.sol\":1678:1692  return _paused */\n  swap1\n  pop\n    /* \"@openzeppelin/contracts/security/Pausable.sol\":1615:1699  function paused() public view virtual returns (bool) {... */\n  swap1\n  jump\t// out\n    /* \"#utility.yul\":88:205   */\ntag_37:\n    /* \"#utility.yul\":197:198   */\n  0x00\n    /* \"#utility.yul\":194:195   */\n  dup1\n    /* \"#utility.yul\":187:199   */\n  revert\n    /* \"#utility.yul\":334:460   */\ntag_39:\n    /* \"#utility.yul\":371:378   */\n  0x00\n    /* \"#utility.yul\":411:453   */\n  0xffffffffffffffffffffffffffffffffffffffff\n    /* \"#utility.yul\":404:409   */\n  dup3\n    /* \"#utility.yul\":400:454   */\n  and\n    /* \"#utility.yul\":389:454   */\n  swap1\n  pop\n    /* \"#utility.yul\":334:460   */\n  swap2\n  swap1\n  pop\n  jump\t// out\n    /* \"#utility.yul\":466:562   */\ntag_40:\n    /* \"#utility.yul\":503:510   */\n  0x00\n    /* \"#utility.yul\":532:556   */\n  tag_53\n    /* \"#utility.yul\":550:555   */\n  dup3\n    /* \"#utility.yul\":532:556   */\n  tag_39\n  jump\t// in\ntag_53:\n    /* \"#utility.yul\":521:556   */\n  swap1\n  pop\n    /* \"#utility.yul\":466:562   */\n  swap2\n  swap1\n  pop\n  jump\t// out\n    /* \"#utility.yul\":568:690   */\ntag_41:\n    /* \"#utility.yul\":641:665   */\n  tag_55\n    /* \"#utility.yul\":659:664   */\n  dup2\n    /* \"#utility.yul\":641:665   */\n  tag_40\n  jump\t// in\ntag_55:\n    /* \"#utility.yul\":634:639   */\n  dup2\n    /* \"#utility.yul\":631:666   */\n  eq\n    /* \"#utility.yul\":621:684   */\n  tag_56\n  jumpi\n    /* \"#utility.yul\":680:681   */\n  0x00\n    /* \"#utility.yul\":677:678   */\n  dup1\n    /* \"#utility.yul\":670:682   */\n  revert\n    /* \"#utility.yul\":621:684   */\ntag_56:\n    /* \"#utility.yul\":568:690   */\n  pop\n  jump\t// out\n    /* \"#utility.yul\":696:839   */\ntag_42:\n    /* \"#utility.yul\":753:758   */\n  0x00\n    /* \"#utility.yul\":784:790   */\n  dup2\n    /* \"#utility.yul\":778:791   */\n  mload\n    /* \"#utility.yul\":769:791   */\n  swap1\n  pop\n    /* \"#utility.yul\":800:833   */\n  tag_58\n    /* \"#utility.yul\":827:832   */\n  dup2\n    /* \"#utility.yul\":800:833   */\n  tag_41\n  jump\t// in\ntag_58:\n    /* \"#utility.yul\":696:839   */\n  swap3\n  swap2\n  pop\n  pop\n  jump\t// out\n    /* \"#utility.yul\":845:1196   */\ntag_3:\n    /* \"#utility.yul\":915:921   */\n  0x00\n    /* \"#utility.yul\":964:966   */\n  0x20\n    /* \"#utility.yul\":952:961   */\n  dup3\n    /* \"#utility.yul\":943:950   */\n  dup5\n    /* \"#utility.yul\":939:962   */\n  sub\n    /* \"#utility.yul\":935:967   */\n  slt\n    /* \"#utility.yul\":932:1051   */\n  iszero\n  tag_60\n  jumpi\n    /* \"#utility.yul\":970:1049   */\n  tag_61\n  tag_37\n  jump\t// in\ntag_61:\n    /* \"#utility.yul\":932:1051   */\ntag_60:\n    /* \"#utility.yul\":1090:1091   */\n  0x00\n    /* \"#utility.yul\":1115:1179   */\n  tag_62\n    /* \"#utility.yul\":1171:1178   */\n  dup5\n    /* \"#utility.yul\":1162:1168   */\n  dup3\n    /* \"#utility.yul\":1151:1160   */\n  dup6\n    /* \"#utility.yul\":1147:1169   */\n  add\n    /* \"#utility.yul\":1115:1179   */\n  tag_42\n  jump\t// in\ntag_62:\n    /* \"#utility.yul\":1105:1179   */\n  swap2\n  pop\n    /* \"#utility.yul\":1061:1189   */\n  pop\n    /* \"#utility.yul\":845:1196   */\n  swap3\n  swap2\n  pop\n  pop\n  jump\t// out\n    /* \"#utility.yul\":1202:1320   */\ntag_43:\n    /* \"#utility.yul\":1289:1313   */\n  tag_64\n    /* \"#utility.yul\":1307:1312   */\n  dup2\n    /* \"#utility.yul\":1289:1313   */\n  tag_40\n  jump\t// in\ntag_64:\n    /* \"#utility.yul\":1284:1287   */\n  dup3\n    /* \"#utility.yul\":1277:1314   */\n  mstore\n    /* \"#utility.yul\":1202:1320   */\n  pop\n  pop\n  jump\t// out\n    /* \"#utility.yul\":1326:1548   */\ntag_11:\n    /* \"#utility.yul\":1419:1423   */\n  0x00\n    /* \"#utility.yul\":1457:1459   */\n  0x20\n    /* \"#utility.yul\":1446:1455   */\n  dup3\n    /* \"#utility.yul\":1442:1460   */\n  add\n    /* \"#utility.yul\":1434:1460   */\n  swap1\n  pop\n    /* \"#utility.yul\":1470:1541   */\n  tag_66\n    /* \"#utility.yul\":1538:1539   */\n  0x00\n    /* \"#utility.yul\":1527:1536   */\n  dup4\n    /* \"#utility.yul\":1523:1540   */\n  add\n    /* \"#utility.yul\":1514:1520   */\n  dup5\n    /* \"#utility.yul\":1470:1541   */\n  tag_43\n  jump\t// in\ntag_66:\n    /* \"#utility.yul\":1326:1548   */\n  swap3\n  swap2\n  pop\n  pop\n  jump\t// out\n    /* \"#utility.yul\":1554:1723   */\ntag_44:\n    /* \"#utility.yul\":1638:1649   */\n  0x00\n    /* \"#utility.yul\":1672:1678   */\n  dup3\n    /* \"#utility.yul\":1667:1670   */\n  dup3\n    /* \"#utility.yul\":1660:1679   */\n  mstore\n    /* \"#utility.yul\":1712:1716   */\n  0x20\n    /* \"#utility.yul\":1707:1710   */\n  dup3\n    /* \"#utility.yul\":1703:1717   */\n  add\n    /* \"#utility.yul\":1688:1717   */\n  swap1\n  pop\n    /* \"#utility.yul\":1554:1723   */\n  swap3\n  swap2\n  pop\n  pop\n  jump\t// out\n    /* \"#utility.yul\":1729:1895   */\ntag_45:\n    /* \"#utility.yul\":1869:1887   */\n  0x5061757361626c653a2070617573656400000000000000000000000000000000\n    /* \"#utility.yul\":1865:1866   */\n  0x00\n    /* \"#utility.yul\":1857:1863   */\n  dup3\n    /* \"#utility.yul\":1853:1867   */\n  add\n    /* \"#utility.yul\":1846:1888   */\n  mstore\n    /* \"#utility.yul\":1729:1895   */\n  pop\n  jump\t// out\n    /* \"#utility.yul\":1901:2267   */\ntag_46:\n    /* \"#utility.yul\":2043:2046   */\n  0x00\n    /* \"#utility.yul\":2064:2131   */\n  tag_70\n    /* \"#utility.yul\":2128:2130   */\n  0x10\n    /* \"#utility.yul\":2123:2126   */\n  dup4\n    /* \"#utility.yul\":2064:2131   */\n  tag_44\n  jump\t// in\ntag_70:\n    /* \"#utility.yul\":2057:2131   */\n  swap2\n  pop\n    /* \"#utility.yul\":2140:2233   */\n  tag_71\n    /* \"#utility.yul\":2229:2232   */\n  dup3\n    /* \"#utility.yul\":2140:2233   */\n  tag_45\n  jump\t// in\ntag_71:\n    /* \"#utility.yul\":2258:2260   */\n  0x20\n    /* \"#utility.yul\":2253:2256   */\n  dup3\n    /* \"#utility.yul\":2249:2261   */\n  add\n    /* \"#utility.yul\":2242:2261   */\n  swap1\n  pop\n    /* \"#utility.yul\":1901:2267   */\n  swap2\n  swap1\n  pop\n  jump\t// out\n    /* \"#utility.yul\":2273:2692   */\ntag_33:\n    /* \"#utility.yul\":2439:2443   */\n  0x00\n    /* \"#utility.yul\":2477:2479   */\n  0x20\n    /* \"#utility.yul\":2466:2475   */\n  dup3\n    /* \"#utility.yul\":2462:2480   */\n  add\n    /* \"#utility.yul\":2454:2480   */\n  swap1\n  pop\n    /* \"#utility.yul\":2526:2535   */\n  dup2\n    /* \"#utility.yul\":2520:2524   */\n  dup2\n    /* \"#utility.yul\":2516:2536   */\n  sub\n    /* \"#utility.yul\":2512:2513   */\n  0x00\n    /* \"#utility.yul\":2501:2510   */\n  dup4\n    /* \"#utility.yul\":2497:2514   */\n  add\n    /* \"#utility.yul\":2490:2537   */\n  mstore\n    /* \"#utility.yul\":2554:2685   */\n  tag_73\n    /* \"#utility.yul\":2680:2684   */\n  dup2\n    /* \"#utility.yul\":2554:2685   */\n  tag_46\n  jump\t// in\ntag_73:\n    /* \"#utility.yul\":2546:2685   */\n  swap1\n  pop\n    /* \"#utility.yul\":2273:2692   */\n  swap2\n  swap1\n  pop\n  jump\t// out\n    /* \"Wallery/PaintingShares.sol\":237:10067  contract PaintingShares is Ownable, Pausable, ReentrancyGuard {... */\ntag_19:\n  dataSize(sub_0)\n  dup1\n  dataOffset(sub_0)\n  0x00\n  codecopy\n  0x00\n  return\nstop\n\nsub_0: assembly {\n        /* \"Wallery/PaintingShares.sol\":237:10067  contract PaintingShares is Ownable, Pausable, ReentrancyGuard {... */\n      mstore(0x40, 0x80)\n      callvalue\n      dup1\n      iszero\n      tag_1\n      jumpi\n      0x00\n      dup1\n      revert\n    tag_1:\n      pop\n      jumpi(tag_2, lt(calldatasize, 0x04))\n      shr(0xe0, calldataload(0x00))\n      dup1\n      0x598af9e7\n      gt\n      tag_22\n      jumpi\n      dup1\n      0x8cb0a511\n      gt\n      tag_23\n      jumpi\n      dup1\n      0x8cb0a511\n      eq\n      tag_17\n      jumpi\n      dup1\n      0x8da5cb5b\n      eq\n      tag_18\n      jumpi\n      dup1\n      0xad324cce\n      eq\n      tag_19\n      jumpi\n      dup1\n      0xf2fde38b\n      eq\n      tag_20\n      jumpi\n      dup1\n      0xf8548e36\n      eq\n      tag_21\n      jumpi\n      jump(tag_2)\n    tag_23:\n      dup1\n      0x598af9e7\n      eq\n      tag_12\n      jumpi\n      dup1\n      0x5c975abb\n      eq\n      tag_13\n      jumpi\n      dup1\n      0x715018a6\n      eq\n      tag_14\n      jumpi\n      dup1\n      0x8456cb59\n      eq\n      tag_15\n      jumpi\n      dup1\n      0x85e3f997\n      eq\n      tag_16\n      jumpi\n      jump(tag_2)\n    tag_22:\n      dup1\n      0x277b9efe\n      gt\n      tag_24\n      jumpi\n      dup1\n      0x277b9efe\n      eq\n      tag_7\n      jumpi\n      dup1\n      0x3f4ba83a\n      eq\n      tag_8\n      jumpi\n      dup1\n      0x4a03fa83\n      eq\n      tag_9\n      jumpi\n      dup1\n      0x5258ff13\n      eq\n      tag_10\n      jumpi\n      dup1\n      0x57a858fc\n      eq\n      tag_11\n      jumpi\n      jump(tag_2)\n    tag_24:\n      dup1\n      0xfdd58e\n      eq\n      tag_3\n      jumpi\n      dup1\n      0x17ba1245\n      eq\n      tag_4\n      jumpi\n      dup1\n      0x1c0f12b6\n      eq\n      tag_5\n      jumpi\n      dup1\n      0x1d92d3b9\n      eq\n      tag_6\n      jumpi\n    tag_2:\n      0x00\n      dup1\n      revert\n        /* \"Wallery/PaintingShares.sol\":841:905  mapping(address => mapping(uint256 => uint256)) public balanceOf */\n    tag_3:\n      tag_25\n      0x04\n      dup1\n      calldatasize\n      sub\n      dup2\n      add\n      swap1\n      tag_26\n      swap2\n      swap1\n      tag_27\n      jump\t// in\n    tag_26:\n      tag_28\n      jump\t// in\n    tag_25:\n      mload(0x40)\n      tag_29\n      swap2\n      swap1\n      tag_30\n      jump\t// in\n    tag_29:\n      mload(0x40)\n      dup1\n      swap2\n      sub\n      swap1\n      return\n        /* \"Wallery/PaintingShares.sol\":2329:3829  function createSharesForPainting(... */\n    tag_4:\n      tag_31\n      0x04\n      dup1\n      calldatasize\n      sub\n      dup2\n      add\n      swap1\n      tag_32\n      swap2\n      swap1\n      tag_33\n      jump\t// in\n    tag_32:\n      tag_34\n      jump\t// in\n    tag_31:\n      stop\n        /* \"Wallery/PaintingShares.sol\":6948:7536  function transferFrom(... */\n    tag_5:\n      tag_35\n      0x04\n      dup1\n      calldatasize\n      sub\n      dup2\n      add\n      swap1\n      tag_36\n      swap2\n      swap1\n      tag_37\n      jump\t// in\n    tag_36:\n      tag_38\n      jump\t// in\n    tag_35:\n      mload(0x40)\n      tag_39\n      swap2\n      swap1\n      tag_40\n      jump\t// in\n    tag_39:\n      mload(0x40)\n      dup1\n      swap2\n      sub\n      swap1\n      return\n        /* \"Wallery/PaintingShares.sol\":7544:7863  function getShareInfo(uint256 paintingId) external view returns (... */\n    tag_6:\n      tag_41\n      0x04\n      dup1\n      calldatasize\n      sub\n      dup2\n      add\n      swap1\n      tag_42\n      swap2\n      swap1\n      tag_43\n      jump\t// in\n    tag_42:\n      tag_44\n      jump\t// in\n    tag_41:\n      mload(0x40)\n      tag_45\n      swap5\n      swap4\n      swap3\n      swap2\n      swap1\n      tag_46\n      jump\t// in\n    tag_45:\n      mload(0x40)\n      dup1\n      swap2\n      sub\n      swap1\n      return\n        /* \"Wallery/PaintingShares.sol\":1078:1112  address public paintingNFTContract */\n    tag_7:\n      tag_47\n      tag_48\n      jump\t// in\n    tag_47:\n      mload(0x40)\n      tag_49\n      swap2\n      swap1\n      tag_50\n      jump\t// in\n    tag_49:\n      mload(0x40)\n      dup1\n      swap2\n      sub\n      swap1\n      return\n        /* \"Wallery/PaintingShares.sol\":9246:9313  function unpause() external onlyOwner {... */\n    tag_8:\n      tag_51\n      tag_52\n      jump\t// in\n    tag_51:\n      stop\n        /* \"Wallery/PaintingShares.sol\":5850:6109  function debugPlatformAdmin() external view returns (... */\n    tag_9:\n      tag_53\n      tag_54\n      jump\t// in\n    tag_53:\n      mload(0x40)\n      tag_55\n      swap4\n      swap3\n      swap2\n      swap1\n      tag_56\n      jump\t// in\n    tag_55:\n      mload(0x40)\n      dup1\n      swap2\n      sub\n      swap1\n      return\n        /* \"Wallery/PaintingShares.sol\":9321:10062  function debugShareCalculation(... */\n    tag_10:\n      tag_57\n      0x04\n      dup1\n      calldatasize\n      sub\n      dup2\n      add\n      swap1\n      tag_58\n      swap2\n      swap1\n      tag_59\n      jump\t// in\n    tag_58:\n      tag_60\n      jump\t// in\n    tag_57:\n      mload(0x40)\n      tag_61\n      swap5\n      swap4\n      swap3\n      swap2\n      swap1\n      tag_62\n      jump\t// in\n    tag_61:\n      mload(0x40)\n      dup1\n      swap2\n      sub\n      swap1\n      return\n        /* \"Wallery/PaintingShares.sol\":746:789  mapping(uint256 => ShareInfo) public shares */\n    tag_11:\n      tag_63\n      0x04\n      dup1\n      calldatasize\n      sub\n      dup2\n      add\n      swap1\n      tag_64\n      swap2\n      swap1\n      tag_43\n      jump\t// in\n    tag_64:\n      tag_65\n      jump\t// in\n    tag_63:\n      mload(0x40)\n      tag_66\n      swap5\n      swap4\n      swap3\n      swap2\n      swap1\n      tag_46\n      jump\t// in\n    tag_66:\n      mload(0x40)\n      dup1\n      swap2\n      sub\n      swap1\n      return\n        /* \"Wallery/PaintingShares.sol\":985:1069  mapping(address => mapping(address => mapping(uint256 => uint256))) public allowance */\n    tag_12:\n      tag_67\n      0x04\n      dup1\n      calldatasize\n      sub\n      dup2\n      add\n      swap1\n      tag_68\n      swap2\n      swap1\n      tag_69\n      jump\t// in\n    tag_68:\n      tag_70\n      jump\t// in\n    tag_67:\n      mload(0x40)\n      tag_71\n      swap2\n      swap1\n      tag_30\n      jump\t// in\n    tag_71:\n      mload(0x40)\n      dup1\n      swap2\n      sub\n      swap1\n      return\n        /* \"@openzeppelin/contracts/security/Pausable.sol\":1615:1699  function paused() public view virtual returns (bool) {... */\n    tag_13:\n      tag_72\n      tag_73\n      jump\t// in\n    tag_72:\n      mload(0x40)\n      tag_74\n      swap2\n      swap1\n      tag_40\n      jump\t// in\n    tag_74:\n      mload(0x40)\n      dup1\n      swap2\n      sub\n      swap1\n      return\n        /* \"@openzeppelin/contracts/access/Ownable.sol\":2293:2394  function renounceOwnership() public virtual onlyOwner {... */\n    tag_14:\n      tag_75\n      tag_76\n      jump\t// in\n    tag_75:\n      stop\n        /* \"Wallery/PaintingShares.sol\":9175:9238  function pause() external onlyOwner {... */\n    tag_15:\n      tag_77\n      tag_78\n      jump\t// in\n    tag_77:\n      stop\n        /* \"Wallery/PaintingShares.sol\":306:351  uint256 public constant TOTAL_SHARES = 100000 */\n    tag_16:\n      tag_79\n      tag_80\n      jump\t// in\n    tag_79:\n      mload(0x40)\n      tag_81\n      swap2\n      swap1\n      tag_30\n      jump\t// in\n    tag_81:\n      mload(0x40)\n      dup1\n      swap2\n      sub\n      swap1\n      return\n        /* \"Wallery/PaintingShares.sol\":6543:6940  function approve(... */\n    tag_17:\n      tag_82\n      0x04\n      dup1\n      calldatasize\n      sub\n      dup2\n      add\n      swap1\n      tag_83\n      swap2\n      swap1\n      tag_84\n      jump\t// in\n    tag_83:\n      tag_85\n      jump\t// in\n    tag_82:\n      mload(0x40)\n      tag_86\n      swap2\n      swap1\n      tag_40\n      jump\t// in\n    tag_86:\n      mload(0x40)\n      dup1\n      swap2\n      sub\n      swap1\n      return\n        /* \"@openzeppelin/contracts/access/Ownable.sol\":1638:1723  function owner() public view virtual returns (address) {... */\n    tag_18:\n      tag_87\n      tag_88\n      jump\t// in\n    tag_87:\n      mload(0x40)\n      tag_89\n      swap2\n      swap1\n      tag_50\n      jump\t// in\n    tag_89:\n      mload(0x40)\n      dup1\n      swap2\n      sub\n      swap1\n      return\n        /* \"Wallery/PaintingShares.sol\":2103:2323  function setPaintingNFTContract(address _paintingNFTContract) external onlyOwner {... */\n    tag_19:\n      tag_90\n      0x04\n      dup1\n      calldatasize\n      sub\n      dup2\n      add\n      swap1\n      tag_91\n      swap2\n      swap1\n      tag_92\n      jump\t// in\n    tag_91:\n      tag_93\n      jump\t// in\n    tag_90:\n      stop\n        /* \"@openzeppelin/contracts/access/Ownable.sol\":2543:2758  function transferOwnership(address newOwner) public virtual onlyOwner {... */\n    tag_20:\n      tag_94\n      0x04\n      dup1\n      calldatasize\n      sub\n      dup2\n      add\n      swap1\n      tag_95\n      swap2\n      swap1\n      tag_92\n      jump\t// in\n    tag_95:\n      tag_96\n      jump\t// in\n    tag_94:\n      stop\n        /* \"Wallery/PaintingShares.sol\":6117:6535  function transfer(... */\n    tag_21:\n      tag_97\n      0x04\n      dup1\n      calldatasize\n      sub\n      dup2\n      add\n      swap1\n      tag_98\n      swap2\n      swap1\n      tag_84\n      jump\t// in\n    tag_98:\n      tag_99\n      jump\t// in\n    tag_97:\n      mload(0x40)\n      tag_100\n      swap2\n      swap1\n      tag_40\n      jump\t// in\n    tag_100:\n      mload(0x40)\n      dup1\n      swap2\n      sub\n      swap1\n      return\n        /* \"Wallery/PaintingShares.sol\":841:905  mapping(address => mapping(uint256 => uint256)) public balanceOf */\n    tag_28:\n      mstore(0x20, 0x03)\n      dup2\n      0x00\n      mstore\n      mstore(0x20, keccak256(0x00, 0x40))\n      dup1\n      0x00\n      mstore\n      keccak256(0x00, 0x40)\n      0x00\n      swap2\n      pop\n      swap2\n      pop\n      pop\n      sload\n      dup2\n      jump\t// out\n        /* \"Wallery/PaintingShares.sol\":2329:3829  function createSharesForPainting(... */\n    tag_34:\n        /* \"Wallery/PaintingShares.sol\":1872:1891  paintingNFTContract */\n      0x05\n      0x00\n      swap1\n      sload\n      swap1\n      0x0100\n      exp\n      swap1\n      div\n      0xffffffffffffffffffffffffffffffffffffffff\n      and\n        /* \"Wallery/PaintingShares.sol\":1858:1891  msg.sender == paintingNFTContract */\n      0xffffffffffffffffffffffffffffffffffffffff\n      and\n        /* \"Wallery/PaintingShares.sol\":1858:1868  msg.sender */\n      caller\n        /* \"Wallery/PaintingShares.sol\":1858:1891  msg.sender == paintingNFTContract */\n      0xffffffffffffffffffffffffffffffffffffffff\n      and\n      eq\n        /* \"Wallery/PaintingShares.sol\":1850:1921  require(msg.sender == paintingNFTContract, \"Only PaintingNFT contract\") */\n      tag_102\n      jumpi\n      mload(0x40)\n      0x08c379a000000000000000000000000000000000000000000000000000000000\n      dup2\n      mstore\n      0x04\n      add\n      tag_103\n      swap1\n      tag_104\n      jump\t// in\n    tag_103:\n      mload(0x40)\n      dup1\n      swap2\n      sub\n      swap1\n      revert\n    tag_102:\n        /* \"@openzeppelin/contracts/security/Pausable.sol\":1239:1258  _requireNotPaused() */\n      tag_106\n        /* \"@openzeppelin/contracts/security/Pausable.sol\":1239:1256  _requireNotPaused */\n      tag_107\n        /* \"@openzeppelin/contracts/security/Pausable.sol\":1239:1258  _requireNotPaused() */\n      jump\t// in\n    tag_106:\n        /* \"Wallery/PaintingShares.sol\":2696:2702  shares */\n      0x02\n        /* \"Wallery/PaintingShares.sol\":2696:2714  shares[paintingId] */\n      0x00\n        /* \"Wallery/PaintingShares.sol\":2703:2713  paintingId */\n      dup10\n        /* \"Wallery/PaintingShares.sol\":2696:2714  shares[paintingId] */\n      dup2\n      mstore\n      0x20\n      add\n      swap1\n      dup2\n      mstore\n      0x20\n      add\n      0x00\n      keccak256\n        /* \"Wallery/PaintingShares.sol\":2696:2721  shares[paintingId].exists */\n      0x03\n      add\n      0x00\n      swap1\n      sload\n      swap1\n      0x0100\n      exp\n      swap1\n      div\n      0xff\n      and\n        /* \"Wallery/PaintingShares.sol\":2695:2721  !shares[paintingId].exists */\n      iszero\n        /* \"Wallery/PaintingShares.sol\":2687:2746  require(!shares[paintingId].exists, \"Shares already exist\") */\n      tag_109\n      jumpi\n      mload(0x40)\n      0x08c379a000000000000000000000000000000000000000000000000000000000\n      dup2\n      mstore\n      0x04\n      add\n      tag_110\n      swap1\n      tag_111\n      jump\t// in\n    tag_110:\n      mload(0x40)\n      dup1\n      swap2\n      sub\n      swap1\n      revert\n    tag_109:\n        /* \"Wallery/PaintingShares.sol\":2834:2837  100 */\n      0x64\n        /* \"Wallery/PaintingShares.sol\":2808:2830  galleryOwnerPercentage */\n      dup2\n        /* \"Wallery/PaintingShares.sol\":2786:2805  wallOwnerPercentage */\n      dup4\n        /* \"Wallery/PaintingShares.sol\":2765:2783  platformPercentage */\n      dup6\n        /* \"Wallery/PaintingShares.sol\":2765:2805  platformPercentage + wallOwnerPercentage */\n      tag_112\n      swap2\n      swap1\n      tag_113\n      jump\t// in\n    tag_112:\n        /* \"Wallery/PaintingShares.sol\":2765:2830  platformPercentage + wallOwnerPercentage + galleryOwnerPercentage */\n      tag_114\n      swap2\n      swap1\n      tag_113\n      jump\t// in\n    tag_114:\n        /* \"Wallery/PaintingShares.sol\":2765:2837  platformPercentage + wallOwnerPercentage + galleryOwnerPercentage <= 100 */\n      gt\n      iszero\n        /* \"Wallery/PaintingShares.sol\":2757:2879  require(platformPercentage + wallOwnerPercentage + galleryOwnerPercentage <= 100, ... */\n      tag_115\n      jumpi\n      mload(0x40)\n      0x08c379a000000000000000000000000000000000000000000000000000000000\n      dup2\n      mstore\n      0x04\n      add\n      tag_116\n      swap1\n      tag_117\n      jump\t// in\n    tag_116:\n      mload(0x40)\n      dup1\n      swap2\n      sub\n      swap1\n      revert\n    tag_115:\n        /* \"Wallery/PaintingShares.sol\":2892:2913  address platformAdmin */\n      0x00\n        /* \"Wallery/PaintingShares.sol\":2916:2923  owner() */\n      tag_118\n        /* \"Wallery/PaintingShares.sol\":2916:2921  owner */\n      tag_88\n        /* \"Wallery/PaintingShares.sol\":2916:2923  owner() */\n      jump\t// in\n    tag_118:\n        /* \"Wallery/PaintingShares.sol\":2892:2923  address platformAdmin = owner() */\n      swap1\n      pop\n        /* \"Wallery/PaintingShares.sol\":2959:2971  galleryOwner */\n      dup6\n        /* \"Wallery/PaintingShares.sol\":2942:2971  platformAdmin != galleryOwner */\n      0xffffffffffffffffffffffffffffffffffffffff\n      and\n        /* \"Wallery/PaintingShares.sol\":2942:2955  platformAdmin */\n      dup2\n        /* \"Wallery/PaintingShares.sol\":2942:2971  platformAdmin != galleryOwner */\n      0xffffffffffffffffffffffffffffffffffffffff\n      and\n      sub\n        /* \"Wallery/PaintingShares.sol\":2934:3014  require(platformAdmin != galleryOwner, \"Platform admin cannot be gallery owner\") */\n      tag_119\n      jumpi\n      mload(0x40)\n      0x08c379a000000000000000000000000000000000000000000000000000000000\n      dup2\n      mstore\n      0x04\n      add\n      tag_120\n      swap1\n      tag_121\n      jump\t// in\n    tag_120:\n      mload(0x40)\n      dup1\n      swap2\n      sub\n      swap1\n      revert\n    tag_119:\n        /* \"Wallery/PaintingShares.sol\":3072:3101  _initializeShares(paintingId) */\n      tag_122\n        /* \"Wallery/PaintingShares.sol\":3090:3100  paintingId */\n      dup10\n        /* \"Wallery/PaintingShares.sol\":3072:3089  _initializeShares */\n      tag_123\n        /* \"Wallery/PaintingShares.sol\":3072:3101  _initializeShares(paintingId) */\n      jump\t// in\n    tag_122:\n        /* \"Wallery/PaintingShares.sol\":3158:3186  ShareCalculation memory calc */\n      0x00\n        /* \"Wallery/PaintingShares.sol\":3189:3320  _calculateShares(... */\n      tag_124\n        /* \"Wallery/PaintingShares.sol\":3220:3238  platformPercentage */\n      dup6\n        /* \"Wallery/PaintingShares.sol\":3253:3272  wallOwnerPercentage */\n      dup6\n        /* \"Wallery/PaintingShares.sol\":3287:3309  galleryOwnerPercentage */\n      dup6\n        /* \"Wallery/PaintingShares.sol\":3189:3205  _calculateShares */\n      tag_125\n        /* \"Wallery/PaintingShares.sol\":3189:3320  _calculateShares(... */\n      jump\t// in\n    tag_124:\n        /* \"Wallery/PaintingShares.sol\":3158:3320  ShareCalculation memory calc = _calculateShares(... */\n      swap1\n      pop\n        /* \"Wallery/PaintingShares.sol\":3363:3536  _distributeShares(... */\n      tag_126\n        /* \"Wallery/PaintingShares.sol\":3395:3405  paintingId */\n      dup11\n        /* \"Wallery/PaintingShares.sol\":3420:3433  platformAdmin */\n      dup4\n        /* \"Wallery/PaintingShares.sol\":3448:3457  wallOwner */\n      dup11\n        /* \"Wallery/PaintingShares.sol\":3472:3484  galleryOwner */\n      dup11\n        /* \"Wallery/PaintingShares.sol\":3499:3506  painter */\n      dup11\n        /* \"Wallery/PaintingShares.sol\":3521:3525  calc */\n      dup7\n        /* \"Wallery/PaintingShares.sol\":3363:3380  _distributeShares */\n      tag_127\n        /* \"Wallery/PaintingShares.sol\":3363:3536  _distributeShares(... */\n      jump\t// in\n    tag_126:\n        /* \"Wallery/PaintingShares.sol\":3582:3592  paintingId */\n      dup10\n        /* \"Wallery/PaintingShares.sol\":3554:3821  SharesCreated(... */\n      0xd21d9e01a16a8c5d426f26258ec2882c31787698aba6246e133cc3692a370b0b\n        /* \"Wallery/PaintingShares.sol\":3607:3613  shares */\n      0x02\n        /* \"Wallery/PaintingShares.sol\":3607:3625  shares[paintingId] */\n      0x00\n        /* \"Wallery/PaintingShares.sol\":3614:3624  paintingId */\n      dup14\n        /* \"Wallery/PaintingShares.sol\":3607:3625  shares[paintingId] */\n      dup2\n      mstore\n      0x20\n      add\n      swap1\n      dup2\n      mstore\n      0x20\n      add\n      0x00\n      keccak256\n        /* \"Wallery/PaintingShares.sol\":3607:3630  shares[paintingId].name */\n      0x00\n      add\n        /* \"Wallery/PaintingShares.sol\":3645:3651  shares */\n      0x02\n        /* \"Wallery/PaintingShares.sol\":3645:3663  shares[paintingId] */\n      0x00\n        /* \"Wallery/PaintingShares.sol\":3652:3662  paintingId */\n      dup15\n        /* \"Wallery/PaintingShares.sol\":3645:3663  shares[paintingId] */\n      dup2\n      mstore\n      0x20\n      add\n      swap1\n      dup2\n      mstore\n      0x20\n      add\n      0x00\n      keccak256\n        /* \"Wallery/PaintingShares.sol\":3645:3670  shares[paintingId].symbol */\n      0x01\n      add\n        /* \"Wallery/PaintingShares.sol\":3685:3689  calc */\n      dup5\n        /* \"Wallery/PaintingShares.sol\":3685:3704  calc.platformShares */\n      0x00\n      add\n      mload\n        /* \"Wallery/PaintingShares.sol\":3719:3723  calc */\n      dup6\n        /* \"Wallery/PaintingShares.sol\":3719:3739  calc.wallOwnerShares */\n      0x20\n      add\n      mload\n        /* \"Wallery/PaintingShares.sol\":3754:3758  calc */\n      dup7\n        /* \"Wallery/PaintingShares.sol\":3754:3777  calc.galleryOwnerShares */\n      0x40\n      add\n      mload\n        /* \"Wallery/PaintingShares.sol\":3792:3796  calc */\n      dup8\n        /* \"Wallery/PaintingShares.sol\":3792:3810  calc.painterShares */\n      0x60\n      add\n      mload\n        /* \"Wallery/PaintingShares.sol\":3554:3821  SharesCreated(... */\n      mload(0x40)\n      tag_128\n      swap7\n      swap6\n      swap5\n      swap4\n      swap3\n      swap2\n      swap1\n      tag_129\n      jump\t// in\n    tag_128:\n      mload(0x40)\n      dup1\n      swap2\n      sub\n      swap1\n      log2\n        /* \"Wallery/PaintingShares.sol\":2676:3829  {... */\n      pop\n      pop\n        /* \"Wallery/PaintingShares.sol\":2329:3829  function createSharesForPainting(... */\n      pop\n      pop\n      pop\n      pop\n      pop\n      pop\n      pop\n      pop\n      jump\t// out\n        /* \"Wallery/PaintingShares.sol\":6948:7536  function transferFrom(... */\n    tag_38:\n        /* \"Wallery/PaintingShares.sol\":7148:7152  bool */\n      0x00\n        /* \"Wallery/PaintingShares.sol\":7100:7110  paintingId */\n      dup5\n        /* \"Wallery/PaintingShares.sol\":2013:2019  shares */\n      0x02\n        /* \"Wallery/PaintingShares.sol\":2013:2031  shares[paintingId] */\n      0x00\n        /* \"Wallery/PaintingShares.sol\":2020:2030  paintingId */\n      dup3\n        /* \"Wallery/PaintingShares.sol\":2013:2031  shares[paintingId] */\n      dup2\n      mstore\n      0x20\n      add\n      swap1\n      dup2\n      mstore\n      0x20\n      add\n      0x00\n      keccak256\n        /* \"Wallery/PaintingShares.sol\":2013:2038  shares[paintingId].exists */\n      0x03\n      add\n      0x00\n      swap1\n      sload\n      swap1\n      0x0100\n      exp\n      swap1\n      div\n      0xff\n      and\n        /* \"Wallery/PaintingShares.sol\":2005:2079  require(shares[paintingId].exists, \"Shares don't exist for this painting\") */\n      tag_131\n      jumpi\n      mload(0x40)\n      0x08c379a000000000000000000000000000000000000000000000000000000000\n      dup2\n      mstore\n      0x04\n      add\n      tag_132\n      swap1\n      tag_133\n      jump\t// in\n    tag_132:\n      mload(0x40)\n      dup1\n      swap2\n      sub\n      swap1\n      revert\n    tag_131:\n        /* \"@openzeppelin/contracts/security/Pausable.sol\":1239:1258  _requireNotPaused() */\n      tag_135\n        /* \"@openzeppelin/contracts/security/Pausable.sol\":1239:1256  _requireNotPaused */\n      tag_107\n        /* \"@openzeppelin/contracts/security/Pausable.sol\":1239:1258  _requireNotPaused() */\n      jump\t// in\n    tag_135:\n        /* \"@openzeppelin/contracts/security/ReentrancyGuard.sol\":2261:2282  _nonReentrantBefore() */\n      tag_137\n        /* \"@openzeppelin/contracts/security/ReentrancyGuard.sol\":2261:2280  _nonReentrantBefore */\n      tag_138\n        /* \"@openzeppelin/contracts/security/ReentrancyGuard.sol\":2261:2282  _nonReentrantBefore() */\n      jump\t// in\n    tag_137:\n        /* \"Wallery/PaintingShares.sol\":7187:7188  0 */\n      0x00\n        /* \"Wallery/PaintingShares.sol\":7173:7189  to != address(0) */\n      0xffffffffffffffffffffffffffffffffffffffff\n      and\n        /* \"Wallery/PaintingShares.sol\":7173:7175  to */\n      dup5\n        /* \"Wallery/PaintingShares.sol\":7173:7189  to != address(0) */\n      0xffffffffffffffffffffffffffffffffffffffff\n      and\n      sub\n        /* \"Wallery/PaintingShares.sol\":7165:7218  require(to != address(0), \"Transfer to zero address\") */\n      tag_140\n      jumpi\n      mload(0x40)\n      0x08c379a000000000000000000000000000000000000000000000000000000000\n      dup2\n      mstore\n      0x04\n      add\n      tag_141\n      swap1\n      tag_142\n      jump\t// in\n    tag_141:\n      mload(0x40)\n      dup1\n      swap2\n      sub\n      swap1\n      revert\n    tag_140:\n        /* \"Wallery/PaintingShares.sol\":7268:7274  amount */\n      dup3\n        /* \"Wallery/PaintingShares.sol\":7237:7246  balanceOf */\n      0x03\n        /* \"Wallery/PaintingShares.sol\":7237:7252  balanceOf[from] */\n      0x00\n        /* \"Wallery/PaintingShares.sol\":7247:7251  from */\n      dup8\n        /* \"Wallery/PaintingShares.sol\":7237:7252  balanceOf[from] */\n      0xffffffffffffffffffffffffffffffffffffffff\n      and\n      0xffffffffffffffffffffffffffffffffffffffff\n      and\n      dup2\n      mstore\n      0x20\n      add\n      swap1\n      dup2\n      mstore\n      0x20\n      add\n      0x00\n      keccak256\n        /* \"Wallery/PaintingShares.sol\":7237:7264  balanceOf[from][paintingId] */\n      0x00\n        /* \"Wallery/PaintingShares.sol\":7253:7263  paintingId */\n      dup9\n        /* \"Wallery/PaintingShares.sol\":7237:7264  balanceOf[from][paintingId] */\n      dup2\n      mstore\n      0x20\n      add\n      swap1\n      dup2\n      mstore\n      0x20\n      add\n      0x00\n      keccak256\n      sload\n        /* \"Wallery/PaintingShares.sol\":7237:7274  balanceOf[from][paintingId] >= amount */\n      lt\n      iszero\n        /* \"Wallery/PaintingShares.sol\":7229:7299  require(balanceOf[from][paintingId] >= amount, \"Insufficient balance\") */\n      tag_143\n      jumpi\n      mload(0x40)\n      0x08c379a000000000000000000000000000000000000000000000000000000000\n      dup2\n      mstore\n      0x04\n      add\n      tag_144\n      swap1\n      tag_145\n      jump\t// in\n    tag_144:\n      mload(0x40)\n      dup1\n      swap2\n      sub\n      swap1\n      revert\n    tag_143:\n        /* \"Wallery/PaintingShares.sol\":7361:7367  amount */\n      dup3\n        /* \"Wallery/PaintingShares.sol\":7318:7327  allowance */\n      0x04\n        /* \"Wallery/PaintingShares.sol\":7318:7333  allowance[from] */\n      0x00\n        /* \"Wallery/PaintingShares.sol\":7328:7332  from */\n      dup8\n        /* \"Wallery/PaintingShares.sol\":7318:7333  allowance[from] */\n      0xffffffffffffffffffffffffffffffffffffffff\n      and\n      0xffffffffffffffffffffffffffffffffffffffff\n      and\n      dup2\n      mstore\n      0x20\n      add\n      swap1\n      dup2\n      mstore\n      0x20\n      add\n      0x00\n      keccak256\n        /* \"Wallery/PaintingShares.sol\":7318:7345  allowance[from][msg.sender] */\n      0x00\n        /* \"Wallery/PaintingShares.sol\":7334:7344  msg.sender */\n      caller\n        /* \"Wallery/PaintingShares.sol\":7318:7345  allowance[from][msg.sender] */\n      0xffffffffffffffffffffffffffffffffffffffff\n      and\n      0xffffffffffffffffffffffffffffffffffffffff\n      and\n      dup2\n      mstore\n      0x20\n      add\n      swap1\n      dup2\n      mstore\n      0x20\n      add\n      0x00\n      keccak256\n        /* \"Wallery/PaintingShares.sol\":7318:7357  allowance[from][msg.sender][paintingId] */\n      0x00\n        /* \"Wallery/PaintingShares.sol\":7346:7356  paintingId */\n      dup9\n        /* \"Wallery/PaintingShares.sol\":7318:7357  allowance[from][msg.sender][paintingId] */\n      dup2\n      mstore\n      0x20\n      add\n      swap1\n      dup2\n      mstore\n      0x20\n      add\n      0x00\n      keccak256\n      sload\n        /* \"Wallery/PaintingShares.sol\":7318:7367  allowance[from][msg.sender][paintingId] >= amount */\n      lt\n      iszero\n        /* \"Wallery/PaintingShares.sol\":7310:7394  require(allowance[from][msg.sender][paintingId] >= amount, \"Insufficient allowance\") */\n      tag_146\n      jumpi\n      mload(0x40)\n      0x08c379a000000000000000000000000000000000000000000000000000000000\n      dup2\n      mstore\n      0x04\n      add\n      tag_147\n      swap1\n      tag_148\n      jump\t// in\n    tag_147:\n      mload(0x40)\n      dup1\n      swap2\n      sub\n      swap1\n      revert\n    tag_146:\n        /* \"Wallery/PaintingShares.sol\":7450:7456  amount */\n      dup3\n        /* \"Wallery/PaintingShares.sol\":7407:7416  allowance */\n      0x04\n        /* \"Wallery/PaintingShares.sol\":7407:7422  allowance[from] */\n      0x00\n        /* \"Wallery/PaintingShares.sol\":7417:7421  from */\n      dup8\n        /* \"Wallery/PaintingShares.sol\":7407:7422  allowance[from] */\n      0xffffffffffffffffffffffffffffffffffffffff\n      and\n      0xffffffffffffffffffffffffffffffffffffffff\n      and\n      dup2\n      mstore\n      0x20\n      add\n      swap1\n      dup2\n      mstore\n      0x20\n      add\n      0x00\n      keccak256\n        /* \"Wallery/PaintingShares.sol\":7407:7434  allowance[from][msg.sender] */\n      0x00\n        /* \"Wallery/PaintingShares.sol\":7423:7433  msg.sender */\n      caller\n        /* \"Wallery/PaintingShares.sol\":7407:7434  allowance[from][msg.sender] */\n      0xffffffffffffffffffffffffffffffffffffffff\n      and\n      0xffffffffffffffffffffffffffffffffffffffff\n      and\n      dup2\n      mstore\n      0x20\n      add\n      swap1\n      dup2\n      mstore\n      0x20\n      add\n      0x00\n      keccak256\n        /* \"Wallery/PaintingShares.sol\":7407:7446  allowance[from][msg.sender][paintingId] */\n      0x00\n        /* \"Wallery/PaintingShares.sol\":7435:7445  paintingId */\n      dup9\n        /* \"Wallery/PaintingShares.sol\":7407:7446  allowance[from][msg.sender][paintingId] */\n      dup2\n      mstore\n      0x20\n      add\n      swap1\n      dup2\n      mstore\n      0x20\n      add\n      0x00\n      keccak256\n      0x00\n        /* \"Wallery/PaintingShares.sol\":7407:7456  allowance[from][msg.sender][paintingId] -= amount */\n      dup3\n      dup3\n      sload\n      tag_149\n      swap2\n      swap1\n      tag_150\n      jump\t// in\n    tag_149:\n      swap3\n      pop\n      pop\n      dup2\n      swap1\n      sstore\n      pop\n        /* \"Wallery/PaintingShares.sol\":7467:7506  _transfer(paintingId, from, to, amount) */\n      tag_151\n        /* \"Wallery/PaintingShares.sol\":7477:7487  paintingId */\n      dup7\n        /* \"Wallery/PaintingShares.sol\":7489:7493  from */\n      dup7\n        /* \"Wallery/PaintingShares.sol\":7495:7497  to */\n      dup7\n        /* \"Wallery/PaintingShares.sol\":7499:7505  amount */\n      dup7\n        /* \"Wallery/PaintingShares.sol\":7467:7476  _transfer */\n      tag_152\n        /* \"Wallery/PaintingShares.sol\":7467:7506  _transfer(paintingId, from, to, amount) */\n      jump\t// in\n    tag_151:\n        /* \"Wallery/PaintingShares.sol\":7524:7528  true */\n      0x01\n        /* \"Wallery/PaintingShares.sol\":7517:7528  return true */\n      swap2\n      pop\n        /* \"@openzeppelin/contracts/security/ReentrancyGuard.sol\":2303:2323  _nonReentrantAfter() */\n      tag_153\n        /* \"@openzeppelin/contracts/security/ReentrancyGuard.sol\":2303:2321  _nonReentrantAfter */\n      tag_154\n        /* \"@openzeppelin/contracts/security/ReentrancyGuard.sol\":2303:2323  _nonReentrantAfter() */\n      jump\t// in\n    tag_153:\n        /* \"Wallery/PaintingShares.sol\":6948:7536  function transferFrom(... */\n      pop\n      swap5\n      swap4\n      pop\n      pop\n      pop\n      pop\n      jump\t// out\n        /* \"Wallery/PaintingShares.sol\":7544:7863  function getShareInfo(uint256 paintingId) external view returns (... */\n    tag_44:\n        /* \"Wallery/PaintingShares.sol\":7619:7637  string memory name */\n      0x60\n        /* \"Wallery/PaintingShares.sol\":7648:7668  string memory symbol */\n      dup1\n        /* \"Wallery/PaintingShares.sol\":7679:7698  uint256 totalSupply */\n      0x00\n        /* \"Wallery/PaintingShares.sol\":7709:7720  bool exists */\n      dup1\n        /* \"Wallery/PaintingShares.sol\":7739:7761  ShareInfo storage info */\n      0x00\n        /* \"Wallery/PaintingShares.sol\":7764:7770  shares */\n      0x02\n        /* \"Wallery/PaintingShares.sol\":7764:7782  shares[paintingId] */\n      0x00\n        /* \"Wallery/PaintingShares.sol\":7771:7781  paintingId */\n      dup8\n        /* \"Wallery/PaintingShares.sol\":7764:7782  shares[paintingId] */\n      dup2\n      mstore\n      0x20\n      add\n      swap1\n      dup2\n      mstore\n      0x20\n      add\n      0x00\n      keccak256\n        /* \"Wallery/PaintingShares.sol\":7739:7782  ShareInfo storage info = shares[paintingId] */\n      swap1\n      pop\n        /* \"Wallery/PaintingShares.sol\":7801:7805  info */\n      dup1\n        /* \"Wallery/PaintingShares.sol\":7801:7810  info.name */\n      0x00\n      add\n        /* \"Wallery/PaintingShares.sol\":7812:7816  info */\n      dup2\n        /* \"Wallery/PaintingShares.sol\":7812:7823  info.symbol */\n      0x01\n      add\n        /* \"Wallery/PaintingShares.sol\":7825:7829  info */\n      dup3\n        /* \"Wallery/PaintingShares.sol\":7825:7841  info.totalSupply */\n      0x02\n      add\n      sload\n        /* \"Wallery/PaintingShares.sol\":7843:7847  info */\n      dup4\n        /* \"Wallery/PaintingShares.sol\":7843:7854  info.exists */\n      0x03\n      add\n      0x00\n      swap1\n      sload\n      swap1\n      0x0100\n      exp\n      swap1\n      div\n      0xff\n      and\n        /* \"Wallery/PaintingShares.sol\":7793:7855  return (info.name, info.symbol, info.totalSupply, info.exists) */\n      dup4\n      dup1\n      sload\n      tag_156\n      swap1\n      tag_157\n      jump\t// in\n    tag_156:\n      dup1\n      0x1f\n      add\n      0x20\n      dup1\n      swap2\n      div\n      mul\n      0x20\n      add\n      mload(0x40)\n      swap1\n      dup2\n      add\n      0x40\n      mstore\n      dup1\n      swap3\n      swap2\n      swap1\n      dup2\n      dup2\n      mstore\n      0x20\n      add\n      dup3\n      dup1\n      sload\n      tag_158\n      swap1\n      tag_157\n      jump\t// in\n    tag_158:\n      dup1\n      iszero\n      tag_159\n      jumpi\n      dup1\n      0x1f\n      lt\n      tag_160\n      jumpi\n      0x0100\n      dup1\n      dup4\n      sload\n      div\n      mul\n      dup4\n      mstore\n      swap2\n      0x20\n      add\n      swap2\n      jump(tag_159)\n    tag_160:\n      dup3\n      add\n      swap2\n      swap1\n      0x00\n      mstore\n      keccak256(0x00, 0x20)\n      swap1\n    tag_161:\n      dup2\n      sload\n      dup2\n      mstore\n      swap1\n      0x01\n      add\n      swap1\n      0x20\n      add\n      dup1\n      dup4\n      gt\n      tag_161\n      jumpi\n      dup3\n      swap1\n      sub\n      0x1f\n      and\n      dup3\n      add\n      swap2\n    tag_159:\n      pop\n      pop\n      pop\n      pop\n      pop\n      swap4\n      pop\n      dup3\n      dup1\n      sload\n      tag_162\n      swap1\n      tag_157\n      jump\t// in\n    tag_162:\n      dup1\n      0x1f\n      add\n      0x20\n      dup1\n      swap2\n      div\n      mul\n      0x20\n      add\n      mload(0x40)\n      swap1\n      dup2\n      add\n      0x40\n      mstore\n      dup1\n      swap3\n      swap2\n      swap1\n      dup2\n      dup2\n      mstore\n      0x20\n      add\n      dup3\n      dup1\n      sload\n      tag_163\n      swap1\n      tag_157\n      jump\t// in\n    tag_163:\n      dup1\n      iszero\n      tag_164\n      jumpi\n      dup1\n      0x1f\n      lt\n      tag_165\n      jumpi\n      0x0100\n      dup1\n      dup4\n      sload\n      div\n      mul\n      dup4\n      mstore\n      swap2\n      0x20\n      add\n      swap2\n      jump(tag_164)\n    tag_165:\n      dup3\n      add\n      swap2\n      swap1\n      0x00\n      mstore\n      keccak256(0x00, 0x20)\n      swap1\n    tag_166:\n      dup2\n      sload\n      dup2\n      mstore\n      swap1\n      0x01\n      add\n      swap1\n      0x20\n      add\n      dup1\n      dup4\n      gt\n      tag_166\n      jumpi\n      dup3\n      swap1\n      sub\n      0x1f\n      and\n      dup3\n      add\n      swap2\n    tag_164:\n      pop\n      pop\n      pop\n      pop\n      pop\n      swap3\n      pop\n      swap5\n      pop\n      swap5\n      pop\n      swap5\n      pop\n      swap5\n      pop\n      pop\n        /* \"Wallery/PaintingShares.sol\":7544:7863  function getShareInfo(uint256 paintingId) external view returns (... */\n      swap2\n      swap4\n      pop\n      swap2\n      swap4\n      jump\t// out\n        /* \"Wallery/PaintingShares.sol\":1078:1112  address public paintingNFTContract */\n    tag_48:\n      0x05\n      0x00\n      swap1\n      sload\n      swap1\n      0x0100\n      exp\n      swap1\n      div\n      0xffffffffffffffffffffffffffffffffffffffff\n      and\n      dup2\n      jump\t// out\n        /* \"Wallery/PaintingShares.sol\":9246:9313  function unpause() external onlyOwner {... */\n    tag_52:\n        /* \"@openzeppelin/contracts/access/Ownable.sol\":1531:1544  _checkOwner() */\n      tag_168\n        /* \"@openzeppelin/contracts/access/Ownable.sol\":1531:1542  _checkOwner */\n      tag_169\n        /* \"@openzeppelin/contracts/access/Ownable.sol\":1531:1544  _checkOwner() */\n      jump\t// in\n    tag_168:\n        /* \"Wallery/PaintingShares.sol\":9295:9305  _unpause() */\n      tag_171\n        /* \"Wallery/PaintingShares.sol\":9295:9303  _unpause */\n      tag_172\n        /* \"Wallery/PaintingShares.sol\":9295:9305  _unpause() */\n      jump\t// in\n    tag_171:\n        /* \"Wallery/PaintingShares.sol\":9246:9313  function unpause() external onlyOwner {... */\n      jump\t// out\n        /* \"Wallery/PaintingShares.sol\":5850:6109  function debugPlatformAdmin() external view returns (... */\n    tag_54:\n        /* \"Wallery/PaintingShares.sol\":5909:5930  address platformAdmin */\n      0x00\n        /* \"Wallery/PaintingShares.sol\":5937:5955  uint256 paintingId */\n      dup1\n        /* \"Wallery/PaintingShares.sol\":5962:5981  uint256 adminShares */\n      0x00\n        /* \"Wallery/PaintingShares.sol\":6008:6015  owner() */\n      tag_174\n        /* \"Wallery/PaintingShares.sol\":6008:6013  owner */\n      tag_88\n        /* \"Wallery/PaintingShares.sol\":6008:6015  owner() */\n      jump\t// in\n    tag_174:\n        /* \"Wallery/PaintingShares.sol\":5992:6015  platformAdmin = owner() */\n      swap3\n      pop\n        /* \"Wallery/PaintingShares.sol\":6085:6098  platformAdmin */\n      dup3\n        /* \"Wallery/PaintingShares.sol\":6100:6101  0 */\n      0x00\n        /* \"Wallery/PaintingShares.sol\":6103:6104  0 */\n      dup1\n        /* \"Wallery/PaintingShares.sol\":6077:6105  return (platformAdmin, 0, 0) */\n      swap3\n      pop\n      swap3\n      pop\n      swap3\n      pop\n        /* \"Wallery/PaintingShares.sol\":5850:6109  function debugPlatformAdmin() external view returns (... */\n      swap1\n      swap2\n      swap3\n      jump\t// out\n        /* \"Wallery/PaintingShares.sol\":9321:10062  function debugShareCalculation(... */\n    tag_60:\n        /* \"Wallery/PaintingShares.sol\":9488:9510  uint256 platformShares */\n      0x00\n        /* \"Wallery/PaintingShares.sol\":9517:9540  uint256 wallOwnerShares */\n      dup1\n        /* \"Wallery/PaintingShares.sol\":9547:9573  uint256 galleryOwnerShares */\n      0x00\n        /* \"Wallery/PaintingShares.sol\":9580:9603  uint256 remainingShares */\n      dup1\n        /* \"Wallery/PaintingShares.sol\":9732:9735  100 */\n      0x64\n        /* \"Wallery/PaintingShares.sol\":9710:9728  platformPercentage */\n      dup8\n        /* \"Wallery/PaintingShares.sol\":345:351  100000 */\n      0x0186a0\n        /* \"Wallery/PaintingShares.sol\":9695:9728  TOTAL_SHARES * platformPercentage */\n      tag_176\n      swap2\n      swap1\n      tag_177\n      jump\t// in\n    tag_176:\n        /* \"Wallery/PaintingShares.sol\":9694:9735  (TOTAL_SHARES * platformPercentage) / 100 */\n      tag_178\n      swap2\n      swap1\n      tag_179\n      jump\t// in\n    tag_178:\n        /* \"Wallery/PaintingShares.sol\":9677:9735  platformShares = (TOTAL_SHARES * platformPercentage) / 100 */\n      swap4\n      pop\n        /* \"Wallery/PaintingShares.sol\":9799:9802  100 */\n      0x64\n        /* \"Wallery/PaintingShares.sol\":9776:9795  wallOwnerPercentage */\n      dup7\n        /* \"Wallery/PaintingShares.sol\":345:351  100000 */\n      0x0186a0\n        /* \"Wallery/PaintingShares.sol\":9761:9795  TOTAL_SHARES * wallOwnerPercentage */\n      tag_180\n      swap2\n      swap1\n      tag_177\n      jump\t// in\n    tag_180:\n        /* \"Wallery/PaintingShares.sol\":9760:9802  (TOTAL_SHARES * wallOwnerPercentage) / 100 */\n      tag_181\n      swap2\n      swap1\n      tag_179\n      jump\t// in\n    tag_181:\n        /* \"Wallery/PaintingShares.sol\":9742:9802  wallOwnerShares = (TOTAL_SHARES * wallOwnerPercentage) / 100 */\n      swap3\n      pop\n        /* \"Wallery/PaintingShares.sol\":9872:9875  100 */\n      0x64\n        /* \"Wallery/PaintingShares.sol\":9846:9868  galleryOwnerPercentage */\n      dup6\n        /* \"Wallery/PaintingShares.sol\":345:351  100000 */\n      0x0186a0\n        /* \"Wallery/PaintingShares.sol\":9831:9868  TOTAL_SHARES * galleryOwnerPercentage */\n      tag_182\n      swap2\n      swap1\n      tag_177\n      jump\t// in\n    tag_182:\n        /* \"Wallery/PaintingShares.sol\":9830:9875  (TOTAL_SHARES * galleryOwnerPercentage) / 100 */\n      tag_183\n      swap2\n      swap1\n      tag_179\n      jump\t// in\n    tag_183:\n        /* \"Wallery/PaintingShares.sol\":9809:9875  galleryOwnerShares = (TOTAL_SHARES * galleryOwnerPercentage) / 100 */\n      swap2\n      pop\n        /* \"Wallery/PaintingShares.sol\":9950:9968  galleryOwnerShares */\n      dup2\n        /* \"Wallery/PaintingShares.sol\":9932:9947  wallOwnerShares */\n      dup4\n        /* \"Wallery/PaintingShares.sol\":9915:9929  platformShares */\n      dup6\n        /* \"Wallery/PaintingShares.sol\":345:351  100000 */\n      0x0186a0\n        /* \"Wallery/PaintingShares.sol\":9900:9929  TOTAL_SHARES - platformShares */\n      tag_184\n      swap2\n      swap1\n      tag_150\n      jump\t// in\n    tag_184:\n        /* \"Wallery/PaintingShares.sol\":9900:9947  TOTAL_SHARES - platformShares - wallOwnerShares */\n      tag_185\n      swap2\n      swap1\n      tag_150\n      jump\t// in\n    tag_185:\n        /* \"Wallery/PaintingShares.sol\":9900:9968  TOTAL_SHARES - platformShares - wallOwnerShares - galleryOwnerShares */\n      tag_186\n      swap2\n      swap1\n      tag_150\n      jump\t// in\n    tag_186:\n        /* \"Wallery/PaintingShares.sol\":9882:9968  remainingShares = TOTAL_SHARES - platformShares - wallOwnerShares - galleryOwnerShares */\n      swap1\n      pop\n        /* \"Wallery/PaintingShares.sol\":9321:10062  function debugShareCalculation(... */\n      swap4\n      pop\n      swap4\n      pop\n      swap4\n      pop\n      swap4\n      jump\t// out\n        /* \"Wallery/PaintingShares.sol\":746:789  mapping(uint256 => ShareInfo) public shares */\n    tag_65:\n      mstore(0x20, 0x02)\n      dup1\n      0x00\n      mstore\n      keccak256(0x00, 0x40)\n      0x00\n      swap2\n      pop\n      swap1\n      pop\n      dup1\n      0x00\n      add\n      dup1\n      sload\n      tag_187\n      swap1\n      tag_157\n      jump\t// in\n    tag_187:\n      dup1\n      0x1f\n      add\n      0x20\n      dup1\n      swap2\n      div\n      mul\n      0x20\n      add\n      mload(0x40)\n      swap1\n      dup2\n      add\n      0x40\n      mstore\n      dup1\n      swap3\n      swap2\n      swap1\n      dup2\n      dup2\n      mstore\n      0x20\n      add\n      dup3\n      dup1\n      sload\n      tag_188\n      swap1\n      tag_157\n      jump\t// in\n    tag_188:\n      dup1\n      iszero\n      tag_189\n      jumpi\n      dup1\n      0x1f\n      lt\n      tag_190\n      jumpi\n      0x0100\n      dup1\n      dup4\n      sload\n      div\n      mul\n      dup4\n      mstore\n      swap2\n      0x20\n      add\n      swap2\n      jump(tag_189)\n    tag_190:\n      dup3\n      add\n      swap2\n      swap1\n      0x00\n      mstore\n      keccak256(0x00, 0x20)\n      swap1\n    tag_191:\n      dup2\n      sload\n      dup2\n      mstore\n      swap1\n      0x01\n      add\n      swap1\n      0x20\n      add\n      dup1\n      dup4\n      gt\n      tag_191\n      jumpi\n      dup3\n      swap1\n      sub\n      0x1f\n      and\n      dup3\n      add\n      swap2\n    tag_189:\n      pop\n      pop\n      pop\n      pop\n      pop\n      swap1\n      dup1\n      0x01\n      add\n      dup1\n      sload\n      tag_192\n      swap1\n      tag_157\n      jump\t// in\n    tag_192:\n      dup1\n      0x1f\n      add\n      0x20\n      dup1\n      swap2\n      div\n      mul\n      0x20\n      add\n      mload(0x40)\n      swap1\n      dup2\n      add\n      0x40\n      mstore\n      dup1\n      swap3\n      swap2\n      swap1\n      dup2\n      dup2\n      mstore\n      0x20\n      add\n      dup3\n      dup1\n      sload\n      tag_193\n      swap1\n      tag_157\n      jump\t// in\n    tag_193:\n      dup1\n      iszero\n      tag_194\n      jumpi\n      dup1\n      0x1f\n      lt\n      tag_195\n      jumpi\n      0x0100\n      dup1\n      dup4\n      sload\n      div\n      mul\n      dup4\n      mstore\n      swap2\n      0x20\n      add\n      swap2\n      jump(tag_194)\n    tag_195:\n      dup3\n      add\n      swap2\n      swap1\n      0x00\n      mstore\n      keccak256(0x00, 0x20)\n      swap1\n    tag_196:\n      dup2\n      sload\n      dup2\n      mstore\n      swap1\n      0x01\n      add\n      swap1\n      0x20\n      add\n      dup1\n      dup4\n      gt\n      tag_196\n      jumpi\n      dup3\n      swap1\n      sub\n      0x1f\n      and\n      dup3\n      add\n      swap2\n    tag_194:\n      pop\n      pop\n      pop\n      pop\n      pop\n      swap1\n      dup1\n      0x02\n      add\n      sload\n      swap1\n      dup1\n      0x03\n      add\n      0x00\n      swap1\n      sload\n      swap1\n      0x0100\n      exp\n      swap1\n      div\n      0xff\n      and\n      swap1\n      pop\n      dup5\n      jump\t// out\n        /* \"Wallery/PaintingShares.sol\":985:1069  mapping(address => mapping(address => mapping(uint256 => uint256))) public allowance */\n    tag_70:\n      mstore(0x20, 0x04)\n      dup3\n      0x00\n      mstore\n      mstore(0x20, keccak256(0x00, 0x40))\n      dup2\n      0x00\n      mstore\n      mstore(0x20, keccak256(0x00, 0x40))\n      dup1\n      0x00\n      mstore\n      keccak256(0x00, 0x40)\n      0x00\n      swap3\n      pop\n      swap3\n      pop\n      pop\n      pop\n      sload\n      dup2\n      jump\t// out\n        /* \"@openzeppelin/contracts/security/Pausable.sol\":1615:1699  function paused() public view virtual returns (bool) {... */\n    tag_73:\n        /* \"@openzeppelin/contracts/security/Pausable.sol\":1662:1666  bool */\n      0x00\n        /* \"@openzeppelin/contracts/security/Pausable.sol\":1685:1692  _paused */\n      dup1\n      0x14\n      swap1\n      sload\n      swap1\n      0x0100\n      exp\n      swap1\n      div\n      0xff\n      and\n        /* \"@openzeppelin/contracts/security/Pausable.sol\":1678:1692  return _paused */\n      swap1\n      pop\n        /* \"@openzeppelin/contracts/security/Pausable.sol\":1615:1699  function paused() public view virtual returns (bool) {... */\n      swap1\n      jump\t// out\n        /* \"@openzeppelin/contracts/access/Ownable.sol\":2293:2394  function renounceOwnership() public virtual onlyOwner {... */\n    tag_76:\n        /* \"@openzeppelin/contracts/access/Ownable.sol\":1531:1544  _checkOwner() */\n      tag_199\n        /* \"@openzeppelin/contracts/access/Ownable.sol\":1531:1542  _checkOwner */\n      tag_169\n        /* \"@openzeppelin/contracts/access/Ownable.sol\":1531:1544  _checkOwner() */\n      jump\t// in\n    tag_199:\n        /* \"@openzeppelin/contracts/access/Ownable.sol\":2357:2387  _transferOwnership(address(0)) */\n      tag_201\n        /* \"@openzeppelin/contracts/access/Ownable.sol\":2384:2385  0 */\n      0x00\n        /* \"@openzeppelin/contracts/access/Ownable.sol\":2357:2375  _transferOwnership */\n      tag_202\n        /* \"@openzeppelin/contracts/access/Ownable.sol\":2357:2387  _transferOwnership(address(0)) */\n      jump\t// in\n    tag_201:\n        /* \"@openzeppelin/contracts/access/Ownable.sol\":2293:2394  function renounceOwnership() public virtual onlyOwner {... */\n      jump\t// out\n        /* \"Wallery/PaintingShares.sol\":9175:9238  function pause() external onlyOwner {... */\n    tag_78:\n        /* \"@openzeppelin/contracts/access/Ownable.sol\":1531:1544  _checkOwner() */\n      tag_204\n        /* \"@openzeppelin/contracts/access/Ownable.sol\":1531:1542  _checkOwner */\n      tag_169\n        /* \"@openzeppelin/contracts/access/Ownable.sol\":1531:1544  _checkOwner() */\n      jump\t// in\n    tag_204:\n        /* \"Wallery/PaintingShares.sol\":9222:9230  _pause() */\n      tag_206\n        /* \"Wallery/PaintingShares.sol\":9222:9228  _pause */\n      tag_207\n        /* \"Wallery/PaintingShares.sol\":9222:9230  _pause() */\n      jump\t// in\n    tag_206:\n        /* \"Wallery/PaintingShares.sol\":9175:9238  function pause() external onlyOwner {... */\n      jump\t// out\n        /* \"Wallery/PaintingShares.sol\":306:351  uint256 public constant TOTAL_SHARES = 100000 */\n    tag_80:\n        /* \"Wallery/PaintingShares.sol\":345:351  100000 */\n      0x0186a0\n        /* \"Wallery/PaintingShares.sol\":306:351  uint256 public constant TOTAL_SHARES = 100000 */\n      dup2\n      jump\t// out\n        /* \"Wallery/PaintingShares.sol\":6543:6940  function approve(... */\n    tag_85:\n        /* \"Wallery/PaintingShares.sol\":6707:6711  bool */\n      0x00\n        /* \"Wallery/PaintingShares.sol\":6672:6682  paintingId */\n      dup4\n        /* \"Wallery/PaintingShares.sol\":2013:2019  shares */\n      0x02\n        /* \"Wallery/PaintingShares.sol\":2013:2031  shares[paintingId] */\n      0x00\n        /* \"Wallery/PaintingShares.sol\":2020:2030  paintingId */\n      dup3\n        /* \"Wallery/PaintingShares.sol\":2013:2031  shares[paintingId] */\n      dup2\n      mstore\n      0x20\n      add\n      swap1\n      dup2\n      mstore\n      0x20\n      add\n      0x00\n      keccak256\n        /* \"Wallery/PaintingShares.sol\":2013:2038  shares[paintingId].exists */\n      0x03\n      add\n      0x00\n      swap1\n      sload\n      swap1\n      0x0100\n      exp\n      swap1\n      div\n      0xff\n      and\n        /* \"Wallery/PaintingShares.sol\":2005:2079  require(shares[paintingId].exists, \"Shares don't exist for this painting\") */\n      tag_209\n      jumpi\n      mload(0x40)\n      0x08c379a000000000000000000000000000000000000000000000000000000000\n      dup2\n      mstore\n      0x04\n      add\n      tag_210\n      swap1\n      tag_133\n      jump\t// in\n    tag_210:\n      mload(0x40)\n      dup1\n      swap2\n      sub\n      swap1\n      revert\n    tag_209:\n        /* \"@openzeppelin/contracts/security/Pausable.sol\":1239:1258  _requireNotPaused() */\n      tag_212\n        /* \"@openzeppelin/contracts/security/Pausable.sol\":1239:1256  _requireNotPaused */\n      tag_107\n        /* \"@openzeppelin/contracts/security/Pausable.sol\":1239:1258  _requireNotPaused() */\n      jump\t// in\n    tag_212:\n        /* \"Wallery/PaintingShares.sol\":6751:6752  0 */\n      0x00\n        /* \"Wallery/PaintingShares.sol\":6732:6753  spender != address(0) */\n      0xffffffffffffffffffffffffffffffffffffffff\n      and\n        /* \"Wallery/PaintingShares.sol\":6732:6739  spender */\n      dup5\n        /* \"Wallery/PaintingShares.sol\":6732:6753  spender != address(0) */\n      0xffffffffffffffffffffffffffffffffffffffff\n      and\n      sub\n        /* \"Wallery/PaintingShares.sol\":6724:6781  require(spender != address(0), \"Approve to zero address\") */\n      tag_214\n      jumpi\n      mload(0x40)\n      0x08c379a000000000000000000000000000000000000000000000000000000000\n      dup2\n      mstore\n      0x04\n      add\n      tag_215\n      swap1\n      tag_216\n      jump\t// in\n    tag_215:\n      mload(0x40)\n      dup1\n      swap2\n      sub\n      swap1\n      revert\n    tag_214:\n        /* \"Wallery/PaintingShares.sol\":6839:6845  amount */\n      dup3\n        /* \"Wallery/PaintingShares.sol\":6794:6803  allowance */\n      0x04\n        /* \"Wallery/PaintingShares.sol\":6794:6815  allowance[msg.sender] */\n      0x00\n        /* \"Wallery/PaintingShares.sol\":6804:6814  msg.sender */\n      caller\n        /* \"Wallery/PaintingShares.sol\":6794:6815  allowance[msg.sender] */\n      0xffffffffffffffffffffffffffffffffffffffff\n      and\n      0xffffffffffffffffffffffffffffffffffffffff\n      and\n      dup2\n      mstore\n      0x20\n      add\n      swap1\n      dup2\n      mstore\n      0x20\n      add\n      0x00\n      keccak256\n        /* \"Wallery/PaintingShares.sol\":6794:6824  allowance[msg.sender][spender] */\n      0x00\n        /* \"Wallery/PaintingShares.sol\":6816:6823  spender */\n      dup7\n        /* \"Wallery/PaintingShares.sol\":6794:6824  allowance[msg.sender][spender] */\n      0xffffffffffffffffffffffffffffffffffffffff\n      and\n      0xffffffffffffffffffffffffffffffffffffffff\n      and\n      dup2\n      mstore\n      0x20\n      add\n      swap1\n      dup2\n      mstore\n      0x20\n      add\n      0x00\n      keccak256\n        /* \"Wallery/PaintingShares.sol\":6794:6836  allowance[msg.sender][spender][paintingId] */\n      0x00\n        /* \"Wallery/PaintingShares.sol\":6825:6835  paintingId */\n      dup8\n        /* \"Wallery/PaintingShares.sol\":6794:6836  allowance[msg.sender][spender][paintingId] */\n      dup2\n      mstore\n      0x20\n      add\n      swap1\n      dup2\n      mstore\n      0x20\n      add\n      0x00\n      keccak256\n        /* \"Wallery/PaintingShares.sol\":6794:6845  allowance[msg.sender][spender][paintingId] = amount */\n      dup2\n      swap1\n      sstore\n      pop\n        /* \"Wallery/PaintingShares.sol\":6894:6901  spender */\n      dup4\n        /* \"Wallery/PaintingShares.sol\":6861:6910  Approval(paintingId, msg.sender, spender, amount) */\n      0xffffffffffffffffffffffffffffffffffffffff\n      and\n        /* \"Wallery/PaintingShares.sol\":6882:6892  msg.sender */\n      caller\n        /* \"Wallery/PaintingShares.sol\":6861:6910  Approval(paintingId, msg.sender, spender, amount) */\n      0xffffffffffffffffffffffffffffffffffffffff\n      and\n        /* \"Wallery/PaintingShares.sol\":6870:6880  paintingId */\n      dup7\n        /* \"Wallery/PaintingShares.sol\":6861:6910  Approval(paintingId, msg.sender, spender, amount) */\n      0x69e4aaf23f9318cf40839ac20453d8fbedaac2955eb08a27ae5189cc71925716\n        /* \"Wallery/PaintingShares.sol\":6903:6909  amount */\n      dup7\n        /* \"Wallery/PaintingShares.sol\":6861:6910  Approval(paintingId, msg.sender, spender, amount) */\n      mload(0x40)\n      tag_217\n      swap2\n      swap1\n      tag_30\n      jump\t// in\n    tag_217:\n      mload(0x40)\n      dup1\n      swap2\n      sub\n      swap1\n      log4\n        /* \"Wallery/PaintingShares.sol\":6928:6932  true */\n      0x01\n        /* \"Wallery/PaintingShares.sol\":6921:6932  return true */\n      swap2\n      pop\n        /* \"Wallery/PaintingShares.sol\":6543:6940  function approve(... */\n      pop\n      swap4\n      swap3\n      pop\n      pop\n      pop\n      jump\t// out\n        /* \"@openzeppelin/contracts/access/Ownable.sol\":1638:1723  function owner() public view virtual returns (address) {... */\n    tag_88:\n        /* \"@openzeppelin/contracts/access/Ownable.sol\":1684:1691  address */\n      0x00\n        /* \"@openzeppelin/contracts/access/Ownable.sol\":1710:1716  _owner */\n      dup1\n      0x00\n      swap1\n      sload\n      swap1\n      0x0100\n      exp\n      swap1\n      div\n      0xffffffffffffffffffffffffffffffffffffffff\n      and\n        /* \"@openzeppelin/contracts/access/Ownable.sol\":1703:1716  return _owner */\n      swap1\n      pop\n        /* \"@openzeppelin/contracts/access/Ownable.sol\":1638:1723  function owner() public view virtual returns (address) {... */\n      swap1\n      jump\t// out\n        /* \"Wallery/PaintingShares.sol\":2103:2323  function setPaintingNFTContract(address _paintingNFTContract) external onlyOwner {... */\n    tag_93:\n        /* \"@openzeppelin/contracts/access/Ownable.sol\":1531:1544  _checkOwner() */\n      tag_220\n        /* \"@openzeppelin/contracts/access/Ownable.sol\":1531:1542  _checkOwner */\n      tag_169\n        /* \"@openzeppelin/contracts/access/Ownable.sol\":1531:1544  _checkOwner() */\n      jump\t// in\n    tag_220:\n        /* \"Wallery/PaintingShares.sol\":2231:2232  0 */\n      0x00\n        /* \"Wallery/PaintingShares.sol\":2199:2233  _paintingNFTContract != address(0) */\n      0xffffffffffffffffffffffffffffffffffffffff\n      and\n        /* \"Wallery/PaintingShares.sol\":2199:2219  _paintingNFTContract */\n      dup2\n        /* \"Wallery/PaintingShares.sol\":2199:2233  _paintingNFTContract != address(0) */\n      0xffffffffffffffffffffffffffffffffffffffff\n      and\n      sub\n        /* \"Wallery/PaintingShares.sol\":2191:2253  require(_paintingNFTContract != address(0), \"Invalid address\") */\n      tag_222\n      jumpi\n      mload(0x40)\n      0x08c379a000000000000000000000000000000000000000000000000000000000\n      dup2\n      mstore\n      0x04\n      add\n      tag_223\n      swap1\n      tag_224\n      jump\t// in\n    tag_223:\n      mload(0x40)\n      dup1\n      swap2\n      sub\n      swap1\n      revert\n    tag_222:\n        /* \"Wallery/PaintingShares.sol\":2282:2302  _paintingNFTContract */\n      dup1\n        /* \"Wallery/PaintingShares.sol\":2260:2279  paintingNFTContract */\n      0x05\n      0x00\n        /* \"Wallery/PaintingShares.sol\":2260:2302  paintingNFTContract = _paintingNFTContract */\n      0x0100\n      exp\n      dup2\n      sload\n      dup2\n      0xffffffffffffffffffffffffffffffffffffffff\n      mul\n      not\n      and\n      swap1\n      dup4\n      0xffffffffffffffffffffffffffffffffffffffff\n      and\n      mul\n      or\n      swap1\n      sstore\n      pop\n        /* \"Wallery/PaintingShares.sol\":2309:2319  _unpause() */\n      tag_225\n        /* \"Wallery/PaintingShares.sol\":2309:2317  _unpause */\n      tag_172\n        /* \"Wallery/PaintingShares.sol\":2309:2319  _unpause() */\n      jump\t// in\n    tag_225:\n        /* \"Wallery/PaintingShares.sol\":2103:2323  function setPaintingNFTContract(address _paintingNFTContract) external onlyOwner {... */\n      pop\n      jump\t// out\n        /* \"@openzeppelin/contracts/access/Ownable.sol\":2543:2758  function transferOwnership(address newOwner) public virtual onlyOwner {... */\n    tag_96:\n        /* \"@openzeppelin/contracts/access/Ownable.sol\":1531:1544  _checkOwner() */\n      tag_227\n        /* \"@openzeppelin/contracts/access/Ownable.sol\":1531:1542  _checkOwner */\n      tag_169\n        /* \"@openzeppelin/contracts/access/Ownable.sol\":1531:1544  _checkOwner() */\n      jump\t// in\n    tag_227:\n        /* \"@openzeppelin/contracts/access/Ownable.sol\":2647:2648  0 */\n      0x00\n        /* \"@openzeppelin/contracts/access/Ownable.sol\":2627:2649  newOwner == address(0) */\n      0xffffffffffffffffffffffffffffffffffffffff\n      and\n        /* \"@openzeppelin/contracts/access/Ownable.sol\":2627:2635  newOwner */\n      dup2\n        /* \"@openzeppelin/contracts/access/Ownable.sol\":2627:2649  newOwner == address(0) */\n      0xffffffffffffffffffffffffffffffffffffffff\n      and\n      sub\n        /* \"@openzeppelin/contracts/access/Ownable.sol\":2623:2714  if (newOwner == address(0)) {... */\n      tag_229\n      jumpi\n        /* \"@openzeppelin/contracts/access/Ownable.sol\":2700:2701  0 */\n      0x00\n        /* \"@openzeppelin/contracts/access/Ownable.sol\":2672:2703  OwnableInvalidOwner(address(0)) */\n      mload(0x40)\n      0x1e4fbdf700000000000000000000000000000000000000000000000000000000\n      dup2\n      mstore\n      0x04\n      add\n      tag_230\n      swap2\n      swap1\n      tag_50\n      jump\t// in\n    tag_230:\n      mload(0x40)\n      dup1\n      swap2\n      sub\n      swap1\n      revert\n        /* \"@openzeppelin/contracts/access/Ownable.sol\":2623:2714  if (newOwner == address(0)) {... */\n    tag_229:\n        /* \"@openzeppelin/contracts/access/Ownable.sol\":2723:2751  _transferOwnership(newOwner) */\n      tag_231\n        /* \"@openzeppelin/contracts/access/Ownable.sol\":2742:2750  newOwner */\n      dup2\n        /* \"@openzeppelin/contracts/access/Ownable.sol\":2723:2741  _transferOwnership */\n      tag_202\n        /* \"@openzeppelin/contracts/access/Ownable.sol\":2723:2751  _transferOwnership(newOwner) */\n      jump\t// in\n    tag_231:\n        /* \"@openzeppelin/contracts/access/Ownable.sol\":2543:2758  function transferOwnership(address newOwner) public virtual onlyOwner {... */\n      pop\n      jump\t// out\n        /* \"Wallery/PaintingShares.sol\":6117:6535  function transfer(... */\n    tag_99:\n        /* \"Wallery/PaintingShares.sol\":6290:6294  bool */\n      0x00\n        /* \"Wallery/PaintingShares.sol\":6242:6252  paintingId */\n      dup4\n        /* \"Wallery/PaintingShares.sol\":2013:2019  shares */\n      0x02\n        /* \"Wallery/PaintingShares.sol\":2013:2031  shares[paintingId] */\n      0x00\n        /* \"Wallery/PaintingShares.sol\":2020:2030  paintingId */\n      dup3\n        /* \"Wallery/PaintingShares.sol\":2013:2031  shares[paintingId] */\n      dup2\n      mstore\n      0x20\n      add\n      swap1\n      dup2\n      mstore\n      0x20\n      add\n      0x00\n      keccak256\n        /* \"Wallery/PaintingShares.sol\":2013:2038  shares[paintingId].exists */\n      0x03\n      add\n      0x00\n      swap1\n      sload\n      swap1\n      0x0100\n      exp\n      swap1\n      div\n      0xff\n      and\n        /* \"Wallery/PaintingShares.sol\":2005:2079  require(shares[paintingId].exists, \"Shares don't exist for this painting\") */\n      tag_233\n      jumpi\n      mload(0x40)\n      0x08c379a000000000000000000000000000000000000000000000000000000000\n      dup2\n      mstore\n      0x04\n      add\n      tag_234\n      swap1\n      tag_133\n      jump\t// in\n    tag_234:\n      mload(0x40)\n      dup1\n      swap2\n      sub\n      swap1\n      revert\n    tag_233:\n        /* \"@openzeppelin/contracts/security/Pausable.sol\":1239:1258  _requireNotPaused() */\n      tag_236\n        /* \"@openzeppelin/contracts/security/Pausable.sol\":1239:1256  _requireNotPaused */\n      tag_107\n        /* \"@openzeppelin/contracts/security/Pausable.sol\":1239:1258  _requireNotPaused() */\n      jump\t// in\n    tag_236:\n        /* \"@openzeppelin/contracts/security/ReentrancyGuard.sol\":2261:2282  _nonReentrantBefore() */\n      tag_238\n        /* \"@openzeppelin/contracts/security/ReentrancyGuard.sol\":2261:2280  _nonReentrantBefore */\n      tag_138\n        /* \"@openzeppelin/contracts/security/ReentrancyGuard.sol\":2261:2282  _nonReentrantBefore() */\n      jump\t// in\n    tag_238:\n        /* \"Wallery/PaintingShares.sol\":6329:6330  0 */\n      0x00\n        /* \"Wallery/PaintingShares.sol\":6315:6331  to != address(0) */\n      0xffffffffffffffffffffffffffffffffffffffff\n      and\n        /* \"Wallery/PaintingShares.sol\":6315:6317  to */\n      dup5\n        /* \"Wallery/PaintingShares.sol\":6315:6331  to != address(0) */\n      0xffffffffffffffffffffffffffffffffffffffff\n      and\n      sub\n        /* \"Wallery/PaintingShares.sol\":6307:6360  require(to != address(0), \"Transfer to zero address\") */\n      tag_240\n      jumpi\n      mload(0x40)\n      0x08c379a000000000000000000000000000000000000000000000000000000000\n      dup2\n      mstore\n      0x04\n      add\n      tag_241\n      swap1\n      tag_142\n      jump\t// in\n    tag_241:\n      mload(0x40)\n      dup1\n      swap2\n      sub\n      swap1\n      revert\n    tag_240:\n        /* \"Wallery/PaintingShares.sol\":6416:6422  amount */\n      dup3\n        /* \"Wallery/PaintingShares.sol\":6379:6388  balanceOf */\n      0x03\n        /* \"Wallery/PaintingShares.sol\":6379:6400  balanceOf[msg.sender] */\n      0x00\n        /* \"Wallery/PaintingShares.sol\":6389:6399  msg.sender */\n      caller\n        /* \"Wallery/PaintingShares.sol\":6379:6400  balanceOf[msg.sender] */\n      0xffffffffffffffffffffffffffffffffffffffff\n      and\n      0xffffffffffffffffffffffffffffffffffffffff\n      and\n      dup2\n      mstore\n      0x20\n      add\n      swap1\n      dup2\n      mstore\n      0x20\n      add\n      0x00\n      keccak256\n        /* \"Wallery/PaintingShares.sol\":6379:6412  balanceOf[msg.sender][paintingId] */\n      0x00\n        /* \"Wallery/PaintingShares.sol\":6401:6411  paintingId */\n      dup8\n        /* \"Wallery/PaintingShares.sol\":6379:6412  balanceOf[msg.sender][paintingId] */\n      dup2\n      mstore\n      0x20\n      add\n      swap1\n      dup2\n      mstore\n      0x20\n      add\n      0x00\n      keccak256\n      sload\n        /* \"Wallery/PaintingShares.sol\":6379:6422  balanceOf[msg.sender][paintingId] >= amount */\n      lt\n      iszero\n        /* \"Wallery/PaintingShares.sol\":6371:6447  require(balanceOf[msg.sender][paintingId] >= amount, \"Insufficient balance\") */\n      tag_242\n      jumpi\n      mload(0x40)\n      0x08c379a000000000000000000000000000000000000000000000000000000000\n      dup2\n      mstore\n      0x04\n      add\n      tag_243\n      swap1\n      tag_145\n      jump\t// in\n    tag_243:\n      mload(0x40)\n      dup1\n      swap2\n      sub\n      swap1\n      revert\n    tag_242:\n        /* \"Wallery/PaintingShares.sol\":6460:6505  _transfer(paintingId, msg.sender, to, amount) */\n      tag_244\n        /* \"Wallery/PaintingShares.sol\":6470:6480  paintingId */\n      dup6\n        /* \"Wallery/PaintingShares.sol\":6482:6492  msg.sender */\n      caller\n        /* \"Wallery/PaintingShares.sol\":6494:6496  to */\n      dup7\n        /* \"Wallery/PaintingShares.sol\":6498:6504  amount */\n      dup7\n        /* \"Wallery/PaintingShares.sol\":6460:6469  _transfer */\n      tag_152\n        /* \"Wallery/PaintingShares.sol\":6460:6505  _transfer(paintingId, msg.sender, to, amount) */\n      jump\t// in\n    tag_244:\n        /* \"Wallery/PaintingShares.sol\":6523:6527  true */\n      0x01\n        /* \"Wallery/PaintingShares.sol\":6516:6527  return true */\n      swap2\n      pop\n        /* \"@openzeppelin/contracts/security/ReentrancyGuard.sol\":2303:2323  _nonReentrantAfter() */\n      tag_245\n        /* \"@openzeppelin/contracts/security/ReentrancyGuard.sol\":2303:2321  _nonReentrantAfter */\n      tag_154\n        /* \"@openzeppelin/contracts/security/ReentrancyGuard.sol\":2303:2323  _nonReentrantAfter() */\n      jump\t// in\n    tag_245:\n        /* \"Wallery/PaintingShares.sol\":6117:6535  function transfer(... */\n      pop\n      swap4\n      swap3\n      pop\n      pop\n      pop\n      jump\t// out\n        /* \"@openzeppelin/contracts/security/Pausable.sol\":1767:1873  function _requireNotPaused() internal view virtual {... */\n    tag_107:\n        /* \"@openzeppelin/contracts/security/Pausable.sol\":1837:1845  paused() */\n      tag_247\n        /* \"@openzeppelin/contracts/security/Pausable.sol\":1837:1843  paused */\n      tag_73\n        /* \"@openzeppelin/contracts/security/Pausable.sol\":1837:1845  paused() */\n      jump\t// in\n    tag_247:\n        /* \"@openzeppelin/contracts/security/Pausable.sol\":1836:1845  !paused() */\n      iszero\n        /* \"@openzeppelin/contracts/security/Pausable.sol\":1828:1866  require(!paused(), \"Pausable: paused\") */\n      tag_248\n      jumpi\n      mload(0x40)\n      0x08c379a000000000000000000000000000000000000000000000000000000000\n      dup2\n      mstore\n      0x04\n      add\n      tag_249\n      swap1\n      tag_250\n      jump\t// in\n    tag_249:\n      mload(0x40)\n      dup1\n      swap2\n      sub\n      swap1\n      revert\n    tag_248:\n        /* \"@openzeppelin/contracts/security/Pausable.sol\":1767:1873  function _requireNotPaused() internal view virtual {... */\n      jump\t// out\n        /* \"Wallery/PaintingShares.sol\":3841:4307  function _initializeShares(uint256 paintingId) private {... */\n    tag_123:\n        /* \"Wallery/PaintingShares.sol\":3907:3925  string memory name */\n      0x00\n        /* \"Wallery/PaintingShares.sol\":3965:3986  _toString(paintingId) */\n      tag_252\n        /* \"Wallery/PaintingShares.sol\":3975:3985  paintingId */\n      dup3\n        /* \"Wallery/PaintingShares.sol\":3965:3974  _toString */\n      tag_253\n        /* \"Wallery/PaintingShares.sol\":3965:3986  _toString(paintingId) */\n      jump\t// in\n    tag_252:\n        /* \"Wallery/PaintingShares.sol\":3935:3998  abi.encodePacked(\"Painting \", _toString(paintingId), \" Shares\") */\n      add(0x20, mload(0x40))\n      tag_254\n      swap2\n      swap1\n      tag_255\n      jump\t// in\n    tag_254:\n      mload(0x40)\n      0x20\n      dup2\n      dup4\n      sub\n      sub\n      dup2\n      mstore\n      swap1\n      0x40\n      mstore\n        /* \"Wallery/PaintingShares.sol\":3907:3999  string memory name = string(abi.encodePacked(\"Painting \", _toString(paintingId), \" Shares\")) */\n      swap1\n      pop\n        /* \"Wallery/PaintingShares.sol\":4010:4030  string memory symbol */\n      0x00\n        /* \"Wallery/PaintingShares.sol\":4066:4087  _toString(paintingId) */\n      tag_256\n        /* \"Wallery/PaintingShares.sol\":4076:4086  paintingId */\n      dup4\n        /* \"Wallery/PaintingShares.sol\":4066:4075  _toString */\n      tag_253\n        /* \"Wallery/PaintingShares.sol\":4066:4087  _toString(paintingId) */\n      jump\t// in\n    tag_256:\n        /* \"Wallery/PaintingShares.sol\":4040:4088  abi.encodePacked(\"PAINT\", _toString(paintingId)) */\n      add(0x20, mload(0x40))\n      tag_257\n      swap2\n      swap1\n      tag_258\n      jump\t// in\n    tag_257:\n      mload(0x40)\n      0x20\n      dup2\n      dup4\n      sub\n      sub\n      dup2\n      mstore\n      swap1\n      0x40\n      mstore\n        /* \"Wallery/PaintingShares.sol\":4010:4089  string memory symbol = string(abi.encodePacked(\"PAINT\", _toString(paintingId))) */\n      swap1\n      pop\n        /* \"Wallery/PaintingShares.sol\":4102:4129  ShareInfo storage newShares */\n      0x00\n        /* \"Wallery/PaintingShares.sol\":4132:4138  shares */\n      0x02\n        /* \"Wallery/PaintingShares.sol\":4132:4150  shares[paintingId] */\n      0x00\n        /* \"Wallery/PaintingShares.sol\":4139:4149  paintingId */\n      dup6\n        /* \"Wallery/PaintingShares.sol\":4132:4150  shares[paintingId] */\n      dup2\n      mstore\n      0x20\n      add\n      swap1\n      dup2\n      mstore\n      0x20\n      add\n      0x00\n      keccak256\n        /* \"Wallery/PaintingShares.sol\":4102:4150  ShareInfo storage newShares = shares[paintingId] */\n      swap1\n      pop\n        /* \"Wallery/PaintingShares.sol\":4178:4182  name */\n      dup3\n        /* \"Wallery/PaintingShares.sol\":4161:4170  newShares */\n      dup2\n        /* \"Wallery/PaintingShares.sol\":4161:4175  newShares.name */\n      0x00\n      add\n        /* \"Wallery/PaintingShares.sol\":4161:4182  newShares.name = name */\n      swap1\n      dup2\n      tag_259\n      swap2\n      swap1\n      tag_260\n      jump\t// in\n    tag_259:\n      pop\n        /* \"Wallery/PaintingShares.sol\":4212:4218  symbol */\n      dup2\n        /* \"Wallery/PaintingShares.sol\":4193:4202  newShares */\n      dup2\n        /* \"Wallery/PaintingShares.sol\":4193:4209  newShares.symbol */\n      0x01\n      add\n        /* \"Wallery/PaintingShares.sol\":4193:4218  newShares.symbol = symbol */\n      swap1\n      dup2\n      tag_261\n      swap2\n      swap1\n      tag_260\n      jump\t// in\n    tag_261:\n      pop\n        /* \"Wallery/PaintingShares.sol\":4248:4252  true */\n      0x01\n        /* \"Wallery/PaintingShares.sol\":4229:4238  newShares */\n      dup2\n        /* \"Wallery/PaintingShares.sol\":4229:4245  newShares.exists */\n      0x03\n      add\n      0x00\n        /* \"Wallery/PaintingShares.sol\":4229:4252  newShares.exists = true */\n      0x0100\n      exp\n      dup2\n      sload\n      dup2\n      0xff\n      mul\n      not\n      and\n      swap1\n      dup4\n      iszero\n      iszero\n      mul\n      or\n      swap1\n      sstore\n      pop\n        /* \"Wallery/PaintingShares.sol\":345:351  100000 */\n      0x0186a0\n        /* \"Wallery/PaintingShares.sol\":4263:4272  newShares */\n      dup2\n        /* \"Wallery/PaintingShares.sol\":4263:4284  newShares.totalSupply */\n      0x02\n      add\n        /* \"Wallery/PaintingShares.sol\":4263:4299  newShares.totalSupply = TOTAL_SHARES */\n      dup2\n      swap1\n      sstore\n      pop\n        /* \"Wallery/PaintingShares.sol\":3896:4307  {... */\n      pop\n      pop\n      pop\n        /* \"Wallery/PaintingShares.sol\":3841:4307  function _initializeShares(uint256 paintingId) private {... */\n      pop\n      jump\t// out\n        /* \"Wallery/PaintingShares.sol\":4319:5104  function _calculateShares(... */\n    tag_125:\n        /* \"Wallery/PaintingShares.sol\":4490:4513  ShareCalculation memory */\n      tag_262\n      tag_263\n      jump\t// in\n    tag_262:\n        /* \"Wallery/PaintingShares.sol\":4526:4548  uint256 platformShares */\n      0x00\n        /* \"Wallery/PaintingShares.sol\":4589:4592  100 */\n      0x64\n        /* \"Wallery/PaintingShares.sol\":4567:4585  platformPercentage */\n      dup6\n        /* \"Wallery/PaintingShares.sol\":345:351  100000 */\n      0x0186a0\n        /* \"Wallery/PaintingShares.sol\":4552:4585  TOTAL_SHARES * platformPercentage */\n      tag_265\n      swap2\n      swap1\n      tag_177\n      jump\t// in\n    tag_265:\n        /* \"Wallery/PaintingShares.sol\":4551:4592  (TOTAL_SHARES * platformPercentage) / 100 */\n      tag_266\n      swap2\n      swap1\n      tag_179\n      jump\t// in\n    tag_266:\n        /* \"Wallery/PaintingShares.sol\":4526:4592  uint256 platformShares = (TOTAL_SHARES * platformPercentage) / 100 */\n      swap1\n      pop\n        /* \"Wallery/PaintingShares.sol\":4603:4626  uint256 wallOwnerShares */\n      0x00\n        /* \"Wallery/PaintingShares.sol\":4668:4671  100 */\n      0x64\n        /* \"Wallery/PaintingShares.sol\":4645:4664  wallOwnerPercentage */\n      dup6\n        /* \"Wallery/PaintingShares.sol\":345:351  100000 */\n      0x0186a0\n        /* \"Wallery/PaintingShares.sol\":4630:4664  TOTAL_SHARES * wallOwnerPercentage */\n      tag_267\n      swap2\n      swap1\n      tag_177\n      jump\t// in\n    tag_267:\n        /* \"Wallery/PaintingShares.sol\":4629:4671  (TOTAL_SHARES * wallOwnerPercentage) / 100 */\n      tag_268\n      swap2\n      swap1\n      tag_179\n      jump\t// in\n    tag_268:\n        /* \"Wallery/PaintingShares.sol\":4603:4671  uint256 wallOwnerShares = (TOTAL_SHARES * wallOwnerPercentage) / 100 */\n      swap1\n      pop\n        /* \"Wallery/PaintingShares.sol\":4682:4708  uint256 galleryOwnerShares */\n      0x00\n        /* \"Wallery/PaintingShares.sol\":4753:4756  100 */\n      0x64\n        /* \"Wallery/PaintingShares.sol\":4727:4749  galleryOwnerPercentage */\n      dup6\n        /* \"Wallery/PaintingShares.sol\":345:351  100000 */\n      0x0186a0\n        /* \"Wallery/PaintingShares.sol\":4712:4749  TOTAL_SHARES * galleryOwnerPercentage */\n      tag_269\n      swap2\n      swap1\n      tag_177\n      jump\t// in\n    tag_269:\n        /* \"Wallery/PaintingShares.sol\":4711:4756  (TOTAL_SHARES * galleryOwnerPercentage) / 100 */\n      tag_270\n      swap2\n      swap1\n      tag_179\n      jump\t// in\n    tag_270:\n        /* \"Wallery/PaintingShares.sol\":4682:4756  uint256 galleryOwnerShares = (TOTAL_SHARES * galleryOwnerPercentage) / 100 */\n      swap1\n      pop\n        /* \"Wallery/PaintingShares.sol\":4767:4788  uint256 painterShares */\n      0x00\n        /* \"Wallery/PaintingShares.sol\":4841:4859  galleryOwnerShares */\n      dup2\n        /* \"Wallery/PaintingShares.sol\":4823:4838  wallOwnerShares */\n      dup4\n        /* \"Wallery/PaintingShares.sol\":4806:4820  platformShares */\n      dup6\n        /* \"Wallery/PaintingShares.sol\":345:351  100000 */\n      0x0186a0\n        /* \"Wallery/PaintingShares.sol\":4791:4820  TOTAL_SHARES - platformShares */\n      tag_271\n      swap2\n      swap1\n      tag_150\n      jump\t// in\n    tag_271:\n        /* \"Wallery/PaintingShares.sol\":4791:4838  TOTAL_SHARES - platformShares - wallOwnerShares */\n      tag_272\n      swap2\n      swap1\n      tag_150\n      jump\t// in\n    tag_272:\n        /* \"Wallery/PaintingShares.sol\":4791:4859  TOTAL_SHARES - platformShares - wallOwnerShares - galleryOwnerShares */\n      tag_273\n      swap2\n      swap1\n      tag_150\n      jump\t// in\n    tag_273:\n        /* \"Wallery/PaintingShares.sol\":4767:4859  uint256 painterShares = TOTAL_SHARES - platformShares - wallOwnerShares - galleryOwnerShares */\n      swap1\n      pop\n        /* \"Wallery/PaintingShares.sol\":4879:5096  ShareCalculation({... */\n      mload(0x40)\n      dup1\n      0x80\n      add\n      0x40\n      mstore\n      dup1\n        /* \"Wallery/PaintingShares.sol\":4927:4941  platformShares */\n      dup6\n        /* \"Wallery/PaintingShares.sol\":4879:5096  ShareCalculation({... */\n      dup2\n      mstore\n      0x20\n      add\n        /* \"Wallery/PaintingShares.sol\":4973:4988  wallOwnerShares */\n      dup5\n        /* \"Wallery/PaintingShares.sol\":4879:5096  ShareCalculation({... */\n      dup2\n      mstore\n      0x20\n      add\n        /* \"Wallery/PaintingShares.sol\":5023:5041  galleryOwnerShares */\n      dup4\n        /* \"Wallery/PaintingShares.sol\":4879:5096  ShareCalculation({... */\n      dup2\n      mstore\n      0x20\n      add\n        /* \"Wallery/PaintingShares.sol\":5071:5084  painterShares */\n      dup3\n        /* \"Wallery/PaintingShares.sol\":4879:5096  ShareCalculation({... */\n      dup2\n      mstore\n      pop\n        /* \"Wallery/PaintingShares.sol\":4872:5096  return ShareCalculation({... */\n      swap5\n      pop\n      pop\n      pop\n      pop\n      pop\n        /* \"Wallery/PaintingShares.sol\":4319:5104  function _calculateShares(... */\n      swap4\n      swap3\n      pop\n      pop\n      pop\n      jump\t// out\n        /* \"Wallery/PaintingShares.sol\":5112:5844  function _distributeShares(... */\n    tag_127:\n        /* \"Wallery/PaintingShares.sol\":5376:5377  0 */\n      0x00\n        /* \"Wallery/PaintingShares.sol\":5354:5358  calc */\n      dup2\n        /* \"Wallery/PaintingShares.sol\":5354:5373  calc.platformShares */\n      0x00\n      add\n      mload\n        /* \"Wallery/PaintingShares.sol\":5354:5377  calc.platformShares > 0 */\n      gt\n        /* \"Wallery/PaintingShares.sol\":5350:5465  if (calc.platformShares > 0) {... */\n      iszero\n      tag_275\n      jumpi\n        /* \"Wallery/PaintingShares.sol\":5394:5453  _mintShares(paintingId, platformAdmin, calc.platformShares) */\n      tag_276\n        /* \"Wallery/PaintingShares.sol\":5406:5416  paintingId */\n      dup7\n        /* \"Wallery/PaintingShares.sol\":5418:5431  platformAdmin */\n      dup7\n        /* \"Wallery/PaintingShares.sol\":5433:5437  calc */\n      dup4\n        /* \"Wallery/PaintingShares.sol\":5433:5452  calc.platformShares */\n      0x00\n      add\n      mload\n        /* \"Wallery/PaintingShares.sol\":5394:5405  _mintShares */\n      tag_277\n        /* \"Wallery/PaintingShares.sol\":5394:5453  _mintShares(paintingId, platformAdmin, calc.platformShares) */\n      jump\t// in\n    tag_276:\n        /* \"Wallery/PaintingShares.sol\":5350:5465  if (calc.platformShares > 0) {... */\n    tag_275:\n        /* \"Wallery/PaintingShares.sol\":5502:5503  0 */\n      0x00\n        /* \"Wallery/PaintingShares.sol\":5479:5483  calc */\n      dup2\n        /* \"Wallery/PaintingShares.sol\":5479:5499  calc.wallOwnerShares */\n      0x20\n      add\n      mload\n        /* \"Wallery/PaintingShares.sol\":5479:5503  calc.wallOwnerShares > 0 */\n      gt\n        /* \"Wallery/PaintingShares.sol\":5475:5588  if (calc.wallOwnerShares > 0) {... */\n      iszero\n      tag_278\n      jumpi\n        /* \"Wallery/PaintingShares.sol\":5520:5576  _mintShares(paintingId, wallOwner, calc.wallOwnerShares) */\n      tag_279\n        /* \"Wallery/PaintingShares.sol\":5532:5542  paintingId */\n      dup7\n        /* \"Wallery/PaintingShares.sol\":5544:5553  wallOwner */\n      dup6\n        /* \"Wallery/PaintingShares.sol\":5555:5559  calc */\n      dup4\n        /* \"Wallery/PaintingShares.sol\":5555:5575  calc.wallOwnerShares */\n      0x20\n      add\n      mload\n        /* \"Wallery/PaintingShares.sol\":5520:5531  _mintShares */\n      tag_277\n        /* \"Wallery/PaintingShares.sol\":5520:5576  _mintShares(paintingId, wallOwner, calc.wallOwnerShares) */\n      jump\t// in\n    tag_279:\n        /* \"Wallery/PaintingShares.sol\":5475:5588  if (calc.wallOwnerShares > 0) {... */\n    tag_278:\n        /* \"Wallery/PaintingShares.sol\":5628:5629  0 */\n      0x00\n        /* \"Wallery/PaintingShares.sol\":5602:5606  calc */\n      dup2\n        /* \"Wallery/PaintingShares.sol\":5602:5625  calc.galleryOwnerShares */\n      0x40\n      add\n      mload\n        /* \"Wallery/PaintingShares.sol\":5602:5629  calc.galleryOwnerShares > 0 */\n      gt\n        /* \"Wallery/PaintingShares.sol\":5598:5720  if (calc.galleryOwnerShares > 0) {... */\n      iszero\n      tag_280\n      jumpi\n        /* \"Wallery/PaintingShares.sol\":5646:5708  _mintShares(paintingId, galleryOwner, calc.galleryOwnerShares) */\n      tag_281\n        /* \"Wallery/PaintingShares.sol\":5658:5668  paintingId */\n      dup7\n        /* \"Wallery/PaintingShares.sol\":5670:5682  galleryOwner */\n      dup5\n        /* \"Wallery/PaintingShares.sol\":5684:5688  calc */\n      dup4\n        /* \"Wallery/PaintingShares.sol\":5684:5707  calc.galleryOwnerShares */\n      0x40\n      add\n      mload\n        /* \"Wallery/PaintingShares.sol\":5646:5657  _mintShares */\n      tag_277\n        /* \"Wallery/PaintingShares.sol\":5646:5708  _mintShares(paintingId, galleryOwner, calc.galleryOwnerShares) */\n      jump\t// in\n    tag_281:\n        /* \"Wallery/PaintingShares.sol\":5598:5720  if (calc.galleryOwnerShares > 0) {... */\n    tag_280:\n        /* \"Wallery/PaintingShares.sol\":5755:5756  0 */\n      0x00\n        /* \"Wallery/PaintingShares.sol\":5734:5738  calc */\n      dup2\n        /* \"Wallery/PaintingShares.sol\":5734:5752  calc.painterShares */\n      0x60\n      add\n      mload\n        /* \"Wallery/PaintingShares.sol\":5734:5756  calc.painterShares > 0 */\n      gt\n        /* \"Wallery/PaintingShares.sol\":5730:5837  if (calc.painterShares > 0) {... */\n      iszero\n      tag_282\n      jumpi\n        /* \"Wallery/PaintingShares.sol\":5773:5825  _mintShares(paintingId, painter, calc.painterShares) */\n      tag_283\n        /* \"Wallery/PaintingShares.sol\":5785:5795  paintingId */\n      dup7\n        /* \"Wallery/PaintingShares.sol\":5797:5804  painter */\n      dup4\n        /* \"Wallery/PaintingShares.sol\":5806:5810  calc */\n      dup4\n        /* \"Wallery/PaintingShares.sol\":5806:5824  calc.painterShares */\n      0x60\n      add\n      mload\n        /* \"Wallery/PaintingShares.sol\":5773:5784  _mintShares */\n      tag_277\n        /* \"Wallery/PaintingShares.sol\":5773:5825  _mintShares(paintingId, painter, calc.painterShares) */\n      jump\t// in\n    tag_283:\n        /* \"Wallery/PaintingShares.sol\":5730:5837  if (calc.painterShares > 0) {... */\n    tag_282:\n        /* \"Wallery/PaintingShares.sol\":5112:5844  function _distributeShares(... */\n      pop\n      pop\n      pop\n      pop\n      pop\n      pop\n      jump\t// out\n        /* \"@openzeppelin/contracts/security/ReentrancyGuard.sol\":2336:2623  function _nonReentrantBefore() private {... */\n    tag_138:\n        /* \"@openzeppelin/contracts/security/ReentrancyGuard.sol\":1759:1760  2 */\n      0x02\n        /* \"@openzeppelin/contracts/security/ReentrancyGuard.sol\":2468:2475  _status */\n      sload(0x01)\n        /* \"@openzeppelin/contracts/security/ReentrancyGuard.sol\":2468:2487  _status != _ENTERED */\n      sub\n        /* \"@openzeppelin/contracts/security/ReentrancyGuard.sol\":2460:2523  require(_status != _ENTERED, \"ReentrancyGuard: reentrant call\") */\n      tag_285\n      jumpi\n      mload(0x40)\n      0x08c379a000000000000000000000000000000000000000000000000000000000\n      dup2\n      mstore\n      0x04\n      add\n      tag_286\n      swap1\n      tag_287\n      jump\t// in\n    tag_286:\n      mload(0x40)\n      dup1\n      swap2\n      sub\n      swap1\n      revert\n    tag_285:\n        /* \"@openzeppelin/contracts/security/ReentrancyGuard.sol\":1759:1760  2 */\n      0x02\n        /* \"@openzeppelin/contracts/security/ReentrancyGuard.sol\":2598:2605  _status */\n      0x01\n        /* \"@openzeppelin/contracts/security/ReentrancyGuard.sol\":2598:2616  _status = _ENTERED */\n      dup2\n      swap1\n      sstore\n      pop\n        /* \"@openzeppelin/contracts/security/ReentrancyGuard.sol\":2336:2623  function _nonReentrantBefore() private {... */\n      jump\t// out\n        /* \"Wallery/PaintingShares.sol\":7871:8268  function _transfer(... */\n    tag_152:\n        /* \"Wallery/PaintingShares.sol\":8046:8052  amount */\n      dup1\n        /* \"Wallery/PaintingShares.sol\":8015:8024  balanceOf */\n      0x03\n        /* \"Wallery/PaintingShares.sol\":8015:8030  balanceOf[from] */\n      0x00\n        /* \"Wallery/PaintingShares.sol\":8025:8029  from */\n      dup6\n        /* \"Wallery/PaintingShares.sol\":8015:8030  balanceOf[from] */\n      0xffffffffffffffffffffffffffffffffffffffff\n      and\n      0xffffffffffffffffffffffffffffffffffffffff\n      and\n      dup2\n      mstore\n      0x20\n      add\n      swap1\n      dup2\n      mstore\n      0x20\n      add\n      0x00\n      keccak256\n        /* \"Wallery/PaintingShares.sol\":8015:8042  balanceOf[from][paintingId] */\n      0x00\n        /* \"Wallery/PaintingShares.sol\":8031:8041  paintingId */\n      dup7\n        /* \"Wallery/PaintingShares.sol\":8015:8042  balanceOf[from][paintingId] */\n      dup2\n      mstore\n      0x20\n      add\n      swap1\n      dup2\n      mstore\n      0x20\n      add\n      0x00\n      keccak256\n      0x00\n        /* \"Wallery/PaintingShares.sol\":8015:8052  balanceOf[from][paintingId] -= amount */\n      dup3\n      dup3\n      sload\n      tag_289\n      swap2\n      swap1\n      tag_150\n      jump\t// in\n    tag_289:\n      swap3\n      pop\n      pop\n      dup2\n      swap1\n      sstore\n      pop\n        /* \"Wallery/PaintingShares.sol\":8092:8098  amount */\n      dup1\n        /* \"Wallery/PaintingShares.sol\":8063:8072  balanceOf */\n      0x03\n        /* \"Wallery/PaintingShares.sol\":8063:8076  balanceOf[to] */\n      0x00\n        /* \"Wallery/PaintingShares.sol\":8073:8075  to */\n      dup5\n        /* \"Wallery/PaintingShares.sol\":8063:8076  balanceOf[to] */\n      0xffffffffffffffffffffffffffffffffffffffff\n      and\n      0xffffffffffffffffffffffffffffffffffffffff\n      and\n      dup2\n      mstore\n      0x20\n      add\n      swap1\n      dup2\n      mstore\n      0x20\n      add\n      0x00\n      keccak256\n        /* \"Wallery/PaintingShares.sol\":8063:8088  balanceOf[to][paintingId] */\n      0x00\n        /* \"Wallery/PaintingShares.sol\":8077:8087  paintingId */\n      dup7\n        /* \"Wallery/PaintingShares.sol\":8063:8088  balanceOf[to][paintingId] */\n      dup2\n      mstore\n      0x20\n      add\n      swap1\n      dup2\n      mstore\n      0x20\n      add\n      0x00\n      keccak256\n      0x00\n        /* \"Wallery/PaintingShares.sol\":8063:8098  balanceOf[to][paintingId] += amount */\n      dup3\n      dup3\n      sload\n      tag_290\n      swap2\n      swap1\n      tag_113\n      jump\t// in\n    tag_290:\n      swap3\n      pop\n      pop\n      dup2\n      swap1\n      sstore\n      pop\n        /* \"Wallery/PaintingShares.sol\":8146:8152  amount */\n      dup1\n        /* \"Wallery/PaintingShares.sol\":8109:8115  shares */\n      0x02\n        /* \"Wallery/PaintingShares.sol\":8109:8127  shares[paintingId] */\n      0x00\n        /* \"Wallery/PaintingShares.sol\":8116:8126  paintingId */\n      dup7\n        /* \"Wallery/PaintingShares.sol\":8109:8127  shares[paintingId] */\n      dup2\n      mstore\n      0x20\n      add\n      swap1\n      dup2\n      mstore\n      0x20\n      add\n      0x00\n      keccak256\n        /* \"Wallery/PaintingShares.sol\":8109:8136  shares[paintingId].balances */\n      0x04\n      add\n        /* \"Wallery/PaintingShares.sol\":8109:8142  shares[paintingId].balances[from] */\n      0x00\n        /* \"Wallery/PaintingShares.sol\":8137:8141  from */\n      dup6\n        /* \"Wallery/PaintingShares.sol\":8109:8142  shares[paintingId].balances[from] */\n      0xffffffffffffffffffffffffffffffffffffffff\n      and\n      0xffffffffffffffffffffffffffffffffffffffff\n      and\n      dup2\n      mstore\n      0x20\n      add\n      swap1\n      dup2\n      mstore\n      0x20\n      add\n      0x00\n      keccak256\n      0x00\n        /* \"Wallery/PaintingShares.sol\":8109:8152  shares[paintingId].balances[from] -= amount */\n      dup3\n      dup3\n      sload\n      tag_291\n      swap2\n      swap1\n      tag_150\n      jump\t// in\n    tag_291:\n      swap3\n      pop\n      pop\n      dup2\n      swap1\n      sstore\n      pop\n        /* \"Wallery/PaintingShares.sol\":8198:8204  amount */\n      dup1\n        /* \"Wallery/PaintingShares.sol\":8163:8169  shares */\n      0x02\n        /* \"Wallery/PaintingShares.sol\":8163:8181  shares[paintingId] */\n      0x00\n        /* \"Wallery/PaintingShares.sol\":8170:8180  paintingId */\n      dup7\n        /* \"Wallery/PaintingShares.sol\":8163:8181  shares[paintingId] */\n      dup2\n      mstore\n      0x20\n      add\n      swap1\n      dup2\n      mstore\n      0x20\n      add\n      0x00\n      keccak256\n        /* \"Wallery/PaintingShares.sol\":8163:8190  shares[paintingId].balances */\n      0x04\n      add\n        /* \"Wallery/PaintingShares.sol\":8163:8194  shares[paintingId].balances[to] */\n      0x00\n        /* \"Wallery/PaintingShares.sol\":8191:8193  to */\n      dup5\n        /* \"Wallery/PaintingShares.sol\":8163:8194  shares[paintingId].balances[to] */\n      0xffffffffffffffffffffffffffffffffffffffff\n      and\n      0xffffffffffffffffffffffffffffffffffffffff\n      and\n      dup2\n      mstore\n      0x20\n      add\n      swap1\n      dup2\n      mstore\n      0x20\n      add\n      0x00\n      keccak256\n      0x00\n        /* \"Wallery/PaintingShares.sol\":8163:8204  shares[paintingId].balances[to] += amount */\n      dup3\n      dup3\n      sload\n      tag_292\n      swap2\n      swap1\n      tag_113\n      jump\t// in\n    tag_292:\n      swap3\n      pop\n      pop\n      dup2\n      swap1\n      sstore\n      pop\n        /* \"Wallery/PaintingShares.sol\":8249:8251  to */\n      dup2\n        /* \"Wallery/PaintingShares.sol\":8222:8260  Transfer(paintingId, from, to, amount) */\n      0xffffffffffffffffffffffffffffffffffffffff\n      and\n        /* \"Wallery/PaintingShares.sol\":8243:8247  from */\n      dup4\n        /* \"Wallery/PaintingShares.sol\":8222:8260  Transfer(paintingId, from, to, amount) */\n      0xffffffffffffffffffffffffffffffffffffffff\n      and\n        /* \"Wallery/PaintingShares.sol\":8231:8241  paintingId */\n      dup6\n        /* \"Wallery/PaintingShares.sol\":8222:8260  Transfer(paintingId, from, to, amount) */\n      0xf2dbd98d79f00f7aff338b824931d607bfcc63d47307162470f25a055102d3b0\n        /* \"Wallery/PaintingShares.sol\":8253:8259  amount */\n      dup5\n        /* \"Wallery/PaintingShares.sol\":8222:8260  Transfer(paintingId, from, to, amount) */\n      mload(0x40)\n      tag_293\n      swap2\n      swap1\n      tag_30\n      jump\t// in\n    tag_293:\n      mload(0x40)\n      dup1\n      swap2\n      sub\n      swap1\n      log4\n        /* \"Wallery/PaintingShares.sol\":7871:8268  function _transfer(... */\n      pop\n      pop\n      pop\n      pop\n      jump\t// out\n        /* \"@openzeppelin/contracts/security/ReentrancyGuard.sol\":2629:2838  function _nonReentrantAfter() private {... */\n    tag_154:\n        /* \"@openzeppelin/contracts/security/ReentrancyGuard.sol\":1716:1717  1 */\n      0x01\n        /* \"@openzeppelin/contracts/security/ReentrancyGuard.sol\":2809:2816  _status */\n      dup1\n        /* \"@openzeppelin/contracts/security/ReentrancyGuard.sol\":2809:2831  _status = _NOT_ENTERED */\n      dup2\n      swap1\n      sstore\n      pop\n        /* \"@openzeppelin/contracts/security/ReentrancyGuard.sol\":2629:2838  function _nonReentrantAfter() private {... */\n      jump\t// out\n        /* \"@openzeppelin/contracts/access/Ownable.sol\":1796:1958  function _checkOwner() internal view virtual {... */\n    tag_169:\n        /* \"@openzeppelin/contracts/access/Ownable.sol\":1866:1878  _msgSender() */\n      tag_296\n        /* \"@openzeppelin/contracts/access/Ownable.sol\":1866:1876  _msgSender */\n      tag_297\n        /* \"@openzeppelin/contracts/access/Ownable.sol\":1866:1878  _msgSender() */\n      jump\t// in\n    tag_296:\n        /* \"@openzeppelin/contracts/access/Ownable.sol\":1855:1878  owner() != _msgSender() */\n      0xffffffffffffffffffffffffffffffffffffffff\n      and\n        /* \"@openzeppelin/contracts/access/Ownable.sol\":1855:1862  owner() */\n      tag_298\n        /* \"@openzeppelin/contracts/access/Ownable.sol\":1855:1860  owner */\n      tag_88\n        /* \"@openzeppelin/contracts/access/Ownable.sol\":1855:1862  owner() */\n      jump\t// in\n    tag_298:\n        /* \"@openzeppelin/contracts/access/Ownable.sol\":1855:1878  owner() != _msgSender() */\n      0xffffffffffffffffffffffffffffffffffffffff\n      and\n      eq\n        /* \"@openzeppelin/contracts/access/Ownable.sol\":1851:1952  if (owner() != _msgSender()) {... */\n      tag_299\n      jumpi\n        /* \"@openzeppelin/contracts/access/Ownable.sol\":1928:1940  _msgSender() */\n      tag_300\n        /* \"@openzeppelin/contracts/access/Ownable.sol\":1928:1938  _msgSender */\n      tag_297\n        /* \"@openzeppelin/contracts/access/Ownable.sol\":1928:1940  _msgSender() */\n      jump\t// in\n    tag_300:\n        /* \"@openzeppelin/contracts/access/Ownable.sol\":1901:1941  OwnableUnauthorizedAccount(_msgSender()) */\n      mload(0x40)\n      0x118cdaa700000000000000000000000000000000000000000000000000000000\n      dup2\n      mstore\n      0x04\n      add\n      tag_301\n      swap2\n      swap1\n      tag_50\n      jump\t// in\n    tag_301:\n      mload(0x40)\n      dup1\n      swap2\n      sub\n      swap1\n      revert\n        /* \"@openzeppelin/contracts/access/Ownable.sol\":1851:1952  if (owner() != _msgSender()) {... */\n    tag_299:\n        /* \"@openzeppelin/contracts/access/Ownable.sol\":1796:1958  function _checkOwner() internal view virtual {... */\n      jump\t// out\n        /* \"@openzeppelin/contracts/security/Pausable.sol\":2433:2550  function _unpause() internal virtual whenPaused {... */\n    tag_172:\n        /* \"@openzeppelin/contracts/security/Pausable.sol\":1486:1502  _requirePaused() */\n      tag_303\n        /* \"@openzeppelin/contracts/security/Pausable.sol\":1486:1500  _requirePaused */\n      tag_304\n        /* \"@openzeppelin/contracts/security/Pausable.sol\":1486:1502  _requirePaused() */\n      jump\t// in\n    tag_303:\n        /* \"@openzeppelin/contracts/security/Pausable.sol\":2501:2506  false */\n      0x00\n        /* \"@openzeppelin/contracts/security/Pausable.sol\":2491:2498  _paused */\n      dup1\n      0x14\n        /* \"@openzeppelin/contracts/security/Pausable.sol\":2491:2506  _paused = false */\n      0x0100\n      exp\n      dup2\n      sload\n      dup2\n      0xff\n      mul\n      not\n      and\n      swap1\n      dup4\n      iszero\n      iszero\n      mul\n      or\n      swap1\n      sstore\n      pop\n        /* \"@openzeppelin/contracts/security/Pausable.sol\":2521:2543  Unpaused(_msgSender()) */\n      0x5db9ee0a495bf2e6ff9c91a7834c1ba4fdd244a5e8aa4e537bd38aeae4b073aa\n        /* \"@openzeppelin/contracts/security/Pausable.sol\":2530:2542  _msgSender() */\n      tag_306\n        /* \"@openzeppelin/contracts/security/Pausable.sol\":2530:2540  _msgSender */\n      tag_297\n        /* \"@openzeppelin/contracts/security/Pausable.sol\":2530:2542  _msgSender() */\n      jump\t// in\n    tag_306:\n        /* \"@openzeppelin/contracts/security/Pausable.sol\":2521:2543  Unpaused(_msgSender()) */\n      mload(0x40)\n      tag_307\n      swap2\n      swap1\n      tag_50\n      jump\t// in\n    tag_307:\n      mload(0x40)\n      dup1\n      swap2\n      sub\n      swap1\n      log1\n        /* \"@openzeppelin/contracts/security/Pausable.sol\":2433:2550  function _unpause() internal virtual whenPaused {... */\n      jump\t// out\n        /* \"@openzeppelin/contracts/access/Ownable.sol\":2912:3099  function _transferOwnership(address newOwner) internal virtual {... */\n    tag_202:\n        /* \"@openzeppelin/contracts/access/Ownable.sol\":2985:3001  address oldOwner */\n      0x00\n        /* \"@openzeppelin/contracts/access/Ownable.sol\":3004:3010  _owner */\n      dup1\n      0x00\n      swap1\n      sload\n      swap1\n      0x0100\n      exp\n      swap1\n      div\n      0xffffffffffffffffffffffffffffffffffffffff\n      and\n        /* \"@openzeppelin/contracts/access/Ownable.sol\":2985:3010  address oldOwner = _owner */\n      swap1\n      pop\n        /* \"@openzeppelin/contracts/access/Ownable.sol\":3029:3037  newOwner */\n      dup2\n        /* \"@openzeppelin/contracts/access/Ownable.sol\":3020:3026  _owner */\n      0x00\n      dup1\n        /* \"@openzeppelin/contracts/access/Ownable.sol\":3020:3037  _owner = newOwner */\n      0x0100\n      exp\n      dup2\n      sload\n      dup2\n      0xffffffffffffffffffffffffffffffffffffffff\n      mul\n      not\n      and\n      swap1\n      dup4\n      0xffffffffffffffffffffffffffffffffffffffff\n      and\n      mul\n      or\n      swap1\n      sstore\n      pop\n        /* \"@openzeppelin/contracts/access/Ownable.sol\":3083:3091  newOwner */\n      dup2\n        /* \"@openzeppelin/contracts/access/Ownable.sol\":3052:3092  OwnershipTransferred(oldOwner, newOwner) */\n      0xffffffffffffffffffffffffffffffffffffffff\n      and\n        /* \"@openzeppelin/contracts/access/Ownable.sol\":3073:3081  oldOwner */\n      dup2\n        /* \"@openzeppelin/contracts/access/Ownable.sol\":3052:3092  OwnershipTransferred(oldOwner, newOwner) */\n      0xffffffffffffffffffffffffffffffffffffffff\n      and\n      0x8be0079c531659141344cd1fd0a4f28419497f9722a3daafe3b4186f6b6457e0\n      mload(0x40)\n      mload(0x40)\n      dup1\n      swap2\n      sub\n      swap1\n      log3\n        /* \"@openzeppelin/contracts/access/Ownable.sol\":2975:3099  {... */\n      pop\n        /* \"@openzeppelin/contracts/access/Ownable.sol\":2912:3099  function _transferOwnership(address newOwner) internal virtual {... */\n      pop\n      jump\t// out\n        /* \"@openzeppelin/contracts/security/Pausable.sol\":2186:2301  function _pause() internal virtual whenNotPaused {... */\n    tag_207:\n        /* \"@openzeppelin/contracts/security/Pausable.sol\":1239:1258  _requireNotPaused() */\n      tag_310\n        /* \"@openzeppelin/contracts/security/Pausable.sol\":1239:1256  _requireNotPaused */\n      tag_107\n        /* \"@openzeppelin/contracts/security/Pausable.sol\":1239:1258  _requireNotPaused() */\n      jump\t// in\n    tag_310:\n        /* \"@openzeppelin/contracts/security/Pausable.sol\":2255:2259  true */\n      0x01\n        /* \"@openzeppelin/contracts/security/Pausable.sol\":2245:2252  _paused */\n      0x00\n      0x14\n        /* \"@openzeppelin/contracts/security/Pausable.sol\":2245:2259  _paused = true */\n      0x0100\n      exp\n      dup2\n      sload\n      dup2\n      0xff\n      mul\n      not\n      and\n      swap1\n      dup4\n      iszero\n      iszero\n      mul\n      or\n      swap1\n      sstore\n      pop\n        /* \"@openzeppelin/contracts/security/Pausable.sol\":2274:2294  Paused(_msgSender()) */\n      0x62e78cea01bee320cd4e420270b5ea74000d11b0c9f74754ebdbfc544b05a258\n        /* \"@openzeppelin/contracts/security/Pausable.sol\":2281:2293  _msgSender() */\n      tag_312\n        /* \"@openzeppelin/contracts/security/Pausable.sol\":2281:2291  _msgSender */\n      tag_297\n        /* \"@openzeppelin/contracts/security/Pausable.sol\":2281:2293  _msgSender() */\n      jump\t// in\n    tag_312:\n        /* \"@openzeppelin/contracts/security/Pausable.sol\":2274:2294  Paused(_msgSender()) */\n      mload(0x40)\n      tag_313\n      swap2\n      swap1\n      tag_50\n      jump\t// in\n    tag_313:\n      mload(0x40)\n      dup1\n      swap2\n      sub\n      swap1\n      log1\n        /* \"@openzeppelin/contracts/security/Pausable.sol\":2186:2301  function _pause() internal virtual whenNotPaused {... */\n      jump\t// out\n        /* \"Wallery/PaintingShares.sol\":8634:9167  function _toString(uint256 value) internal pure returns (string memory) {... */\n    tag_253:\n        /* \"Wallery/PaintingShares.sol\":8691:8704  string memory */\n      0x60\n        /* \"Wallery/PaintingShares.sol\":8730:8731  0 */\n      0x00\n        /* \"Wallery/PaintingShares.sol\":8721:8726  value */\n      dup3\n        /* \"Wallery/PaintingShares.sol\":8721:8731  value == 0 */\n      sub\n        /* \"Wallery/PaintingShares.sol\":8717:8770  if (value == 0) {... */\n      tag_315\n      jumpi\n        /* \"Wallery/PaintingShares.sol\":8748:8758  return \"0\" */\n      mload(0x40)\n      dup1\n      0x40\n      add\n      0x40\n      mstore\n      dup1\n      0x01\n      dup2\n      mstore\n      0x20\n      add\n      0x3000000000000000000000000000000000000000000000000000000000000000\n      dup2\n      mstore\n      pop\n      swap1\n      pop\n      jump(tag_314)\n        /* \"Wallery/PaintingShares.sol\":8717:8770  if (value == 0) {... */\n    tag_315:\n        /* \"Wallery/PaintingShares.sol\":8780:8792  uint256 temp */\n      0x00\n        /* \"Wallery/PaintingShares.sol\":8795:8800  value */\n      dup3\n        /* \"Wallery/PaintingShares.sol\":8780:8800  uint256 temp = value */\n      swap1\n      pop\n        /* \"Wallery/PaintingShares.sol\":8811:8825  uint256 digits */\n      0x00\n        /* \"Wallery/PaintingShares.sol\":8836:8914  while (temp != 0) {... */\n    tag_316:\n        /* \"Wallery/PaintingShares.sol\":8851:8852  0 */\n      0x00\n        /* \"Wallery/PaintingShares.sol\":8843:8847  temp */\n      dup3\n        /* \"Wallery/PaintingShares.sol\":8843:8852  temp != 0 */\n      eq\n        /* \"Wallery/PaintingShares.sol\":8836:8914  while (temp != 0) {... */\n      tag_317\n      jumpi\n        /* \"Wallery/PaintingShares.sol\":8869:8877  digits++ */\n      dup1\n      dup1\n      tag_318\n      swap1\n      tag_319\n      jump\t// in\n    tag_318:\n      swap2\n      pop\n      pop\n        /* \"Wallery/PaintingShares.sol\":8900:8902  10 */\n      0x0a\n        /* \"Wallery/PaintingShares.sol\":8892:8902  temp /= 10 */\n      dup3\n      tag_320\n      swap2\n      swap1\n      tag_179\n      jump\t// in\n    tag_320:\n      swap2\n      pop\n        /* \"Wallery/PaintingShares.sol\":8836:8914  while (temp != 0) {... */\n      jump(tag_316)\n    tag_317:\n        /* \"Wallery/PaintingShares.sol\":8924:8943  bytes memory buffer */\n      0x00\n        /* \"Wallery/PaintingShares.sol\":8956:8962  digits */\n      dup2\n        /* \"Wallery/PaintingShares.sol\":8946:8963  new bytes(digits) */\n      0xffffffffffffffff\n      dup2\n      gt\n      iszero\n      tag_321\n      jumpi\n      tag_322\n      tag_323\n      jump\t// in\n    tag_322:\n    tag_321:\n      mload(0x40)\n      swap1\n      dup1\n      dup3\n      mstore\n      dup1\n      0x1f\n      add\n      not(0x1f)\n      and\n      0x20\n      add\n      dup3\n      add\n      0x40\n      mstore\n      dup1\n      iszero\n      tag_324\n      jumpi\n      dup2\n      0x20\n      add\n      0x01\n      dup3\n      mul\n      dup1\n      calldatasize\n      dup4\n      calldatacopy\n      dup1\n      dup3\n      add\n      swap2\n      pop\n      pop\n      swap1\n      pop\n    tag_324:\n      pop\n        /* \"Wallery/PaintingShares.sol\":8924:8963  bytes memory buffer = new bytes(digits) */\n      swap1\n      pop\n        /* \"Wallery/PaintingShares.sol\":8974:9128  while (value != 0) {... */\n    tag_325:\n        /* \"Wallery/PaintingShares.sol\":8990:8991  0 */\n      0x00\n        /* \"Wallery/PaintingShares.sol\":8981:8986  value */\n      dup6\n        /* \"Wallery/PaintingShares.sol\":8981:8991  value != 0 */\n      eq\n        /* \"Wallery/PaintingShares.sol\":8974:9128  while (value != 0) {... */\n      tag_326\n      jumpi\n        /* \"Wallery/PaintingShares.sol\":9018:9019  1 */\n      0x01\n        /* \"Wallery/PaintingShares.sol\":9008:9019  digits -= 1 */\n      dup3\n      tag_327\n      swap2\n      swap1\n      tag_150\n      jump\t// in\n    tag_327:\n      swap2\n      pop\n        /* \"Wallery/PaintingShares.sol\":9085:9087  10 */\n      0x0a\n        /* \"Wallery/PaintingShares.sol\":9077:9082  value */\n      dup6\n        /* \"Wallery/PaintingShares.sol\":9077:9087  value % 10 */\n      tag_328\n      swap2\n      swap1\n      tag_329\n      jump\t// in\n    tag_328:\n        /* \"Wallery/PaintingShares.sol\":9064:9066  48 */\n      0x30\n        /* \"Wallery/PaintingShares.sol\":9064:9088  48 + uint256(value % 10) */\n      tag_330\n      swap2\n      swap1\n      tag_113\n      jump\t// in\n    tag_330:\n        /* \"Wallery/PaintingShares.sol\":9051:9090  bytes1(uint8(48 + uint256(value % 10))) */\n      0xf8\n      shl\n        /* \"Wallery/PaintingShares.sol\":9034:9040  buffer */\n      dup2\n        /* \"Wallery/PaintingShares.sol\":9041:9047  digits */\n      dup4\n        /* \"Wallery/PaintingShares.sol\":9034:9048  buffer[digits] */\n      dup2\n      mload\n      dup2\n      lt\n      tag_331\n      jumpi\n      tag_332\n      tag_333\n      jump\t// in\n    tag_332:\n    tag_331:\n      0x20\n      add\n      add\n        /* \"Wallery/PaintingShares.sol\":9034:9090  buffer[digits] = bytes1(uint8(48 + uint256(value % 10))) */\n      swap1\n      not(0xffffffffffffffffffffffffffffffffffffffffffffffffffffffffffffff)\n      and\n      swap1\n      dup2\n      0x00\n      byte\n      swap1\n      mstore8\n      pop\n        /* \"Wallery/PaintingShares.sol\":9114:9116  10 */\n      0x0a\n        /* \"Wallery/PaintingShares.sol\":9105:9116  value /= 10 */\n      dup6\n      tag_334\n      swap2\n      swap1\n      tag_179\n      jump\t// in\n    tag_334:\n      swap5\n      pop\n        /* \"Wallery/PaintingShares.sol\":8974:9128  while (value != 0) {... */\n      jump(tag_325)\n    tag_326:\n        /* \"Wallery/PaintingShares.sol\":9152:9158  buffer */\n      dup1\n        /* \"Wallery/PaintingShares.sol\":9138:9159  return string(buffer) */\n      swap4\n      pop\n      pop\n      pop\n      pop\n        /* \"Wallery/PaintingShares.sol\":8634:9167  function _toString(uint256 value) internal pure returns (string memory) {... */\n    tag_314:\n      swap2\n      swap1\n      pop\n      jump\t// out\n        /* \"Wallery/PaintingShares.sol\":8276:8626  function _mintShares(... */\n    tag_277:\n        /* \"Wallery/PaintingShares.sol\":8421:8422  0 */\n      0x00\n        /* \"Wallery/PaintingShares.sol\":8407:8423  to != address(0) */\n      0xffffffffffffffffffffffffffffffffffffffff\n      and\n        /* \"Wallery/PaintingShares.sol\":8407:8409  to */\n      dup3\n        /* \"Wallery/PaintingShares.sol\":8407:8423  to != address(0) */\n      0xffffffffffffffffffffffffffffffffffffffff\n      and\n      sub\n        /* \"Wallery/PaintingShares.sol\":8399:8448  require(to != address(0), \"Mint to zero address\") */\n      tag_336\n      jumpi\n      mload(0x40)\n      0x08c379a000000000000000000000000000000000000000000000000000000000\n      dup2\n      mstore\n      0x04\n      add\n      tag_337\n      swap1\n      tag_338\n      jump\t// in\n    tag_337:\n      mload(0x40)\n      dup1\n      swap2\n      sub\n      swap1\n      revert\n    tag_336:\n        /* \"Wallery/PaintingShares.sol\":8498:8504  amount */\n      dup1\n        /* \"Wallery/PaintingShares.sol\":8469:8478  balanceOf */\n      0x03\n        /* \"Wallery/PaintingShares.sol\":8469:8482  balanceOf[to] */\n      0x00\n        /* \"Wallery/PaintingShares.sol\":8479:8481  to */\n      dup5\n        /* \"Wallery/PaintingShares.sol\":8469:8482  balanceOf[to] */\n      0xffffffffffffffffffffffffffffffffffffffff\n      and\n      0xffffffffffffffffffffffffffffffffffffffff\n      and\n      dup2\n      mstore\n      0x20\n      add\n      swap1\n      dup2\n      mstore\n      0x20\n      add\n      0x00\n      keccak256\n        /* \"Wallery/PaintingShares.sol\":8469:8494  balanceOf[to][paintingId] */\n      0x00\n        /* \"Wallery/PaintingShares.sol\":8483:8493  paintingId */\n      dup6\n        /* \"Wallery/PaintingShares.sol\":8469:8494  balanceOf[to][paintingId] */\n      dup2\n      mstore\n      0x20\n      add\n      swap1\n      dup2\n      mstore\n      0x20\n      add\n      0x00\n      keccak256\n      0x00\n        /* \"Wallery/PaintingShares.sol\":8469:8504  balanceOf[to][paintingId] += amount */\n      dup3\n      dup3\n      sload\n      tag_339\n      swap2\n      swap1\n      tag_113\n      jump\t// in\n    tag_339:\n      swap3\n      pop\n      pop\n      dup2\n      swap1\n      sstore\n      pop\n        /* \"Wallery/PaintingShares.sol\":8550:8556  amount */\n      dup1\n        /* \"Wallery/PaintingShares.sol\":8515:8521  shares */\n      0x02\n        /* \"Wallery/PaintingShares.sol\":8515:8533  shares[paintingId] */\n      0x00\n        /* \"Wallery/PaintingShares.sol\":8522:8532  paintingId */\n      dup6\n        /* \"Wallery/PaintingShares.sol\":8515:8533  shares[paintingId] */\n      dup2\n      mstore\n      0x20\n      add\n      swap1\n      dup2\n      mstore\n      0x20\n      add\n      0x00\n      keccak256\n        /* \"Wallery/PaintingShares.sol\":8515:8542  shares[paintingId].balances */\n      0x04\n      add\n        /* \"Wallery/PaintingShares.sol\":8515:8546  shares[paintingId].balances[to] */\n      0x00\n        /* \"Wallery/PaintingShares.sol\":8543:8545  to */\n      dup5\n        /* \"Wallery/PaintingShares.sol\":8515:8546  shares[paintingId].balances[to] */\n      0xffffffffffffffffffffffffffffffffffffffff\n      and\n      0xffffffffffffffffffffffffffffffffffffffff\n      and\n      dup2\n      mstore\n      0x20\n      add\n      swap1\n      dup2\n      mstore\n      0x20\n      add\n      0x00\n      keccak256\n      0x00\n        /* \"Wallery/PaintingShares.sol\":8515:8556  shares[paintingId].balances[to] += amount */\n      dup3\n      dup3\n      sload\n      tag_340\n      swap2\n      swap1\n      tag_113\n      jump\t// in\n    tag_340:\n      swap3\n      pop\n      pop\n      dup2\n      swap1\n      sstore\n      pop\n        /* \"Wallery/PaintingShares.sol\":8607:8609  to */\n      dup2\n        /* \"Wallery/PaintingShares.sol\":8574:8618  Transfer(paintingId, address(0), to, amount) */\n      0xffffffffffffffffffffffffffffffffffffffff\n      and\n        /* \"Wallery/PaintingShares.sol\":8603:8604  0 */\n      0x00\n        /* \"Wallery/PaintingShares.sol\":8574:8618  Transfer(paintingId, address(0), to, amount) */\n      0xffffffffffffffffffffffffffffffffffffffff\n      and\n        /* \"Wallery/PaintingShares.sol\":8583:8593  paintingId */\n      dup5\n        /* \"Wallery/PaintingShares.sol\":8574:8618  Transfer(paintingId, address(0), to, amount) */\n      0xf2dbd98d79f00f7aff338b824931d607bfcc63d47307162470f25a055102d3b0\n        /* \"Wallery/PaintingShares.sol\":8611:8617  amount */\n      dup5\n        /* \"Wallery/PaintingShares.sol\":8574:8618  Transfer(paintingId, address(0), to, amount) */\n      mload(0x40)\n      tag_341\n      swap2\n      swap1\n      tag_30\n      jump\t// in\n    tag_341:\n      mload(0x40)\n      dup1\n      swap2\n      sub\n      swap1\n      log4\n        /* \"Wallery/PaintingShares.sol\":8276:8626  function _mintShares(... */\n      pop\n      pop\n      pop\n      jump\t// out\n        /* \"@openzeppelin/contracts/utils/Context.sol\":656:752  function _msgSender() internal view virtual returns (address) {... */\n    tag_297:\n        /* \"@openzeppelin/contracts/utils/Context.sol\":709:716  address */\n      0x00\n        /* \"@openzeppelin/contracts/utils/Context.sol\":735:745  msg.sender */\n      caller\n        /* \"@openzeppelin/contracts/utils/Context.sol\":728:745  return msg.sender */\n      swap1\n      pop\n        /* \"@openzeppelin/contracts/utils/Context.sol\":656:752  function _msgSender() internal view virtual returns (address) {... */\n      swap1\n      jump\t// out\n        /* \"@openzeppelin/contracts/security/Pausable.sol\":1945:2051  function _requirePaused() internal view virtual {... */\n    tag_304:\n        /* \"@openzeppelin/contracts/security/Pausable.sol\":2011:2019  paused() */\n      tag_344\n        /* \"@openzeppelin/contracts/security/Pausable.sol\":2011:2017  paused */\n      tag_73\n        /* \"@openzeppelin/contracts/security/Pausable.sol\":2011:2019  paused() */\n      jump\t// in\n    tag_344:\n        /* \"@openzeppelin/contracts/security/Pausable.sol\":2003:2044  require(paused(), \"Pausable: not paused\") */\n      tag_345\n      jumpi\n      mload(0x40)\n      0x08c379a000000000000000000000000000000000000000000000000000000000\n      dup2\n      mstore\n      0x04\n      add\n      tag_346\n      swap1\n      tag_347\n      jump\t// in\n    tag_346:\n      mload(0x40)\n      dup1\n      swap2\n      sub\n      swap1\n      revert\n    tag_345:\n        /* \"@openzeppelin/contracts/security/Pausable.sol\":1945:2051  function _requirePaused() internal view virtual {... */\n      jump\t// out\n    tag_263:\n      mload(0x40)\n      dup1\n      0x80\n      add\n      0x40\n      mstore\n      dup1\n      0x00\n      dup2\n      mstore\n      0x20\n      add\n      0x00\n      dup2\n      mstore\n      0x20\n      add\n      0x00\n      dup2\n      mstore\n      0x20\n      add\n      0x00\n      dup2\n      mstore\n      pop\n      swap1\n      jump\t// out\n        /* \"#utility.yul\":88:205   */\n    tag_349:\n        /* \"#utility.yul\":197:198   */\n      0x00\n        /* \"#utility.yul\":194:195   */\n      dup1\n        /* \"#utility.yul\":187:199   */\n      revert\n        /* \"#utility.yul\":334:460   */\n    tag_351:\n        /* \"#utility.yul\":371:378   */\n      0x00\n        /* \"#utility.yul\":411:453   */\n      0xffffffffffffffffffffffffffffffffffffffff\n        /* \"#utility.yul\":404:409   */\n      dup3\n        /* \"#utility.yul\":400:454   */\n      and\n        /* \"#utility.yul\":389:454   */\n      swap1\n      pop\n        /* \"#utility.yul\":334:460   */\n      swap2\n      swap1\n      pop\n      jump\t// out\n        /* \"#utility.yul\":466:562   */\n    tag_352:\n        /* \"#utility.yul\":503:510   */\n      0x00\n        /* \"#utility.yul\":532:556   */\n      tag_428\n        /* \"#utility.yul\":550:555   */\n      dup3\n        /* \"#utility.yul\":532:556   */\n      tag_351\n      jump\t// in\n    tag_428:\n        /* \"#utility.yul\":521:556   */\n      swap1\n      pop\n        /* \"#utility.yul\":466:562   */\n      swap2\n      swap1\n      pop\n      jump\t// out\n        /* \"#utility.yul\":568:690   */\n    tag_353:\n        /* \"#utility.yul\":641:665   */\n      tag_430\n        /* \"#utility.yul\":659:664   */\n      dup2\n        /* \"#utility.yul\":641:665   */\n      tag_352\n      jump\t// in\n    tag_430:\n        /* \"#utility.yul\":634:639   */\n      dup2\n        /* \"#utility.yul\":631:666   */\n      eq\n        /* \"#utility.yul\":621:684   */\n      tag_431\n      jumpi\n        /* \"#utility.yul\":680:681   */\n      0x00\n        /* \"#utility.yul\":677:678   */\n      dup1\n        /* \"#utility.yul\":670:682   */\n      revert\n        /* \"#utility.yul\":621:684   */\n    tag_431:\n        /* \"#utility.yul\":568:690   */\n      pop\n      jump\t// out\n        /* \"#utility.yul\":696:835   */\n    tag_354:\n        /* \"#utility.yul\":742:747   */\n      0x00\n        /* \"#utility.yul\":780:786   */\n      dup2\n        /* \"#utility.yul\":767:787   */\n      calldataload\n        /* \"#utility.yul\":758:787   */\n      swap1\n      pop\n        /* \"#utility.yul\":796:829   */\n      tag_433\n        /* \"#utility.yul\":823:828   */\n      dup2\n        /* \"#utility.yul\":796:829   */\n      tag_353\n      jump\t// in\n    tag_433:\n        /* \"#utility.yul\":696:835   */\n      swap3\n      swap2\n      pop\n      pop\n      jump\t// out\n        /* \"#utility.yul\":841:918   */\n    tag_355:\n        /* \"#utility.yul\":878:885   */\n      0x00\n        /* \"#utility.yul\":907:912   */\n      dup2\n        /* \"#utility.yul\":896:912   */\n      swap1\n      pop\n        /* \"#utility.yul\":841:918   */\n      swap2\n      swap1\n      pop\n      jump\t// out\n        /* \"#utility.yul\":924:1046   */\n    tag_356:\n        /* \"#utility.yul\":997:1021   */\n      tag_436\n        /* \"#utility.yul\":1015:1020   */\n      dup2\n        /* \"#utility.yul\":997:1021   */\n      tag_355\n      jump\t// in\n    tag_436:\n        /* \"#utility.yul\":990:995   */\n      dup2\n        /* \"#utility.yul\":987:1022   */\n      eq\n        /* \"#utility.yul\":977:1040   */\n      tag_437\n      jumpi\n        /* \"#utility.yul\":1036:1037   */\n      0x00\n        /* \"#utility.yul\":1033:1034   */\n      dup1\n        /* \"#utility.yul\":1026:1038   */\n      revert\n        /* \"#utility.yul\":977:1040   */\n    tag_437:\n        /* \"#utility.yul\":924:1046   */\n      pop\n      jump\t// out\n        /* \"#utility.yul\":1052:1191   */\n    tag_357:\n        /* \"#utility.yul\":1098:1103   */\n      0x00\n        /* \"#utility.yul\":1136:1142   */\n      dup2\n        /* \"#utility.yul\":1123:1143   */\n      calldataload\n        /* \"#utility.yul\":1114:1143   */\n      swap1\n      pop\n        /* \"#utility.yul\":1152:1185   */\n      tag_439\n        /* \"#utility.yul\":1179:1184   */\n      dup2\n        /* \"#utility.yul\":1152:1185   */\n      tag_356\n      jump\t// in\n    tag_439:\n        /* \"#utility.yul\":1052:1191   */\n      swap3\n      swap2\n      pop\n      pop\n      jump\t// out\n        /* \"#utility.yul\":1197:1671   */\n    tag_27:\n        /* \"#utility.yul\":1265:1271   */\n      0x00\n        /* \"#utility.yul\":1273:1279   */\n      dup1\n        /* \"#utility.yul\":1322:1324   */\n      0x40\n        /* \"#utility.yul\":1310:1319   */\n      dup4\n        /* \"#utility.yul\":1301:1308   */\n      dup6\n        /* \"#utility.yul\":1297:1320   */\n      sub\n        /* \"#utility.yul\":1293:1325   */\n      slt\n        /* \"#utility.yul\":1290:1409   */\n      iszero\n      tag_441\n      jumpi\n        /* \"#utility.yul\":1328:1407   */\n      tag_442\n      tag_349\n      jump\t// in\n    tag_442:\n        /* \"#utility.yul\":1290:1409   */\n    tag_441:\n        /* \"#utility.yul\":1448:1449   */\n      0x00\n        /* \"#utility.yul\":1473:1526   */\n      tag_443\n        /* \"#utility.yul\":1518:1525   */\n      dup6\n        /* \"#utility.yul\":1509:1515   */\n      dup3\n        /* \"#utility.yul\":1498:1507   */\n      dup7\n        /* \"#utility.yul\":1494:1516   */\n      add\n        /* \"#utility.yul\":1473:1526   */\n      tag_354\n      jump\t// in\n    tag_443:\n        /* \"#utility.yul\":1463:1526   */\n      swap3\n      pop\n        /* \"#utility.yul\":1419:1536   */\n      pop\n        /* \"#utility.yul\":1575:1577   */\n      0x20\n        /* \"#utility.yul\":1601:1654   */\n      tag_444\n        /* \"#utility.yul\":1646:1653   */\n      dup6\n        /* \"#utility.yul\":1637:1643   */\n      dup3\n        /* \"#utility.yul\":1626:1635   */\n      dup7\n        /* \"#utility.yul\":1622:1644   */\n      add\n        /* \"#utility.yul\":1601:1654   */\n      tag_357\n      jump\t// in\n    tag_444:\n        /* \"#utility.yul\":1591:1654   */\n      swap2\n      pop\n        /* \"#utility.yul\":1546:1664   */\n      pop\n        /* \"#utility.yul\":1197:1671   */\n      swap3\n      pop\n      swap3\n      swap1\n      pop\n      jump\t// out\n        /* \"#utility.yul\":1677:1795   */\n    tag_358:\n        /* \"#utility.yul\":1764:1788   */\n      tag_446\n        /* \"#utility.yul\":1782:1787   */\n      dup2\n        /* \"#utility.yul\":1764:1788   */\n      tag_355\n      jump\t// in\n    tag_446:\n        /* \"#utility.yul\":1759:1762   */\n      dup3\n        /* \"#utility.yul\":1752:1789   */\n      mstore\n        /* \"#utility.yul\":1677:1795   */\n      pop\n      pop\n      jump\t// out\n        /* \"#utility.yul\":1801:2023   */\n    tag_30:\n        /* \"#utility.yul\":1894:1898   */\n      0x00\n        /* \"#utility.yul\":1932:1934   */\n      0x20\n        /* \"#utility.yul\":1921:1930   */\n      dup3\n        /* \"#utility.yul\":1917:1935   */\n      add\n        /* \"#utility.yul\":1909:1935   */\n      swap1\n      pop\n        /* \"#utility.yul\":1945:2016   */\n      tag_448\n        /* \"#utility.yul\":2013:2014   */\n      0x00\n        /* \"#utility.yul\":2002:2011   */\n      dup4\n        /* \"#utility.yul\":1998:2015   */\n      add\n        /* \"#utility.yul\":1989:1995   */\n      dup5\n        /* \"#utility.yul\":1945:2016   */\n      tag_358\n      jump\t// in\n    tag_448:\n        /* \"#utility.yul\":1801:2023   */\n      swap3\n      swap2\n      pop\n      pop\n      jump\t// out\n        /* \"#utility.yul\":2029:3378   */\n    tag_33:\n        /* \"#utility.yul\":2151:2157   */\n      0x00\n        /* \"#utility.yul\":2159:2165   */\n      dup1\n        /* \"#utility.yul\":2167:2173   */\n      0x00\n        /* \"#utility.yul\":2175:2181   */\n      dup1\n        /* \"#utility.yul\":2183:2189   */\n      0x00\n        /* \"#utility.yul\":2191:2197   */\n      dup1\n        /* \"#utility.yul\":2199:2205   */\n      0x00\n        /* \"#utility.yul\":2207:2213   */\n      dup1\n        /* \"#utility.yul\":2256:2259   */\n      0x0100\n        /* \"#utility.yul\":2244:2253   */\n      dup10\n        /* \"#utility.yul\":2235:2242   */\n      dup12\n        /* \"#utility.yul\":2231:2254   */\n      sub\n        /* \"#utility.yul\":2227:2260   */\n      slt\n        /* \"#utility.yul\":2224:2344   */\n      iszero\n      tag_450\n      jumpi\n        /* \"#utility.yul\":2263:2342   */\n      tag_451\n      tag_349\n      jump\t// in\n    tag_451:\n        /* \"#utility.yul\":2224:2344   */\n    tag_450:\n        /* \"#utility.yul\":2383:2384   */\n      0x00\n        /* \"#utility.yul\":2408:2461   */\n      tag_452\n        /* \"#utility.yul\":2453:2460   */\n      dup12\n        /* \"#utility.yul\":2444:2450   */\n      dup3\n        /* \"#utility.yul\":2433:2442   */\n      dup13\n        /* \"#utility.yul\":2429:2451   */\n      add\n        /* \"#utility.yul\":2408:2461   */\n      tag_357\n      jump\t// in\n    tag_452:\n        /* \"#utility.yul\":2398:2461   */\n      swap9\n      pop\n        /* \"#utility.yul\":2354:2471   */\n      pop\n        /* \"#utility.yul\":2510:2512   */\n      0x20\n        /* \"#utility.yul\":2536:2589   */\n      tag_453\n        /* \"#utility.yul\":2581:2588   */\n      dup12\n        /* \"#utility.yul\":2572:2578   */\n      dup3\n        /* \"#utility.yul\":2561:2570   */\n      dup13\n        /* \"#utility.yul\":2557:2579   */\n      add\n        /* \"#utility.yul\":2536:2589   */\n      tag_354\n      jump\t// in\n    tag_453:\n        /* \"#utility.yul\":2526:2589   */\n      swap8\n      pop\n        /* \"#utility.yul\":2481:2599   */\n      pop\n        /* \"#utility.yul\":2638:2640   */\n      0x40\n        /* \"#utility.yul\":2664:2717   */\n      tag_454\n        /* \"#utility.yul\":2709:2716   */\n      dup12\n        /* \"#utility.yul\":2700:2706   */\n      dup3\n        /* \"#utility.yul\":2689:2698   */\n      dup13\n        /* \"#utility.yul\":2685:2707   */\n      add\n        /* \"#utility.yul\":2664:2717   */\n      tag_354\n      jump\t// in\n    tag_454:\n        /* \"#utility.yul\":2654:2717   */\n      swap7\n      pop\n        /* \"#utility.yul\":2609:2727   */\n      pop\n        /* \"#utility.yul\":2766:2768   */\n      0x60\n        /* \"#utility.yul\":2792:2845   */\n      tag_455\n        /* \"#utility.yul\":2837:2844   */\n      dup12\n        /* \"#utility.yul\":2828:2834   */\n      dup3\n        /* \"#utility.yul\":2817:2826   */\n      dup13\n        /* \"#utility.yul\":2813:2835   */\n      add\n        /* \"#utility.yul\":2792:2845   */\n      tag_354\n      jump\t// in\n    tag_455:\n        /* \"#utility.yul\":2782:2845   */\n      swap6\n      pop\n        /* \"#utility.yul\":2737:2855   */\n      pop\n        /* \"#utility.yul\":2894:2897   */\n      0x80\n        /* \"#utility.yul\":2921:2974   */\n      tag_456\n        /* \"#utility.yul\":2966:2973   */\n      dup12\n        /* \"#utility.yul\":2957:2963   */\n      dup3\n        /* \"#utility.yul\":2946:2955   */\n      dup13\n        /* \"#utility.yul\":2942:2964   */\n      add\n        /* \"#utility.yul\":2921:2974   */\n      tag_354\n      jump\t// in\n    tag_456:\n        /* \"#utility.yul\":2911:2974   */\n      swap5\n      pop\n        /* \"#utility.yul\":2865:2984   */\n      pop\n        /* \"#utility.yul\":3023:3026   */\n      0xa0\n        /* \"#utility.yul\":3050:3103   */\n      tag_457\n        /* \"#utility.yul\":3095:3102   */\n      dup12\n        /* \"#utility.yul\":3086:3092   */\n      dup3\n        /* \"#utility.yul\":3075:3084   */\n      dup13\n        /* \"#utility.yul\":3071:3093   */\n      add\n        /* \"#utility.yul\":3050:3103   */\n      tag_357\n      jump\t// in\n    tag_457:\n        /* \"#utility.yul\":3040:3103   */\n      swap4\n      pop\n        /* \"#utility.yul\":2994:3113   */\n      pop\n        /* \"#utility.yul\":3152:3155   */\n      0xc0\n        /* \"#utility.yul\":3179:3232   */\n      tag_458\n        /* \"#utility.yul\":3224:3231   */\n      dup12\n        /* \"#utility.yul\":3215:3221   */\n      dup3\n        /* \"#utility.yul\":3204:3213   */\n      dup13\n        /* \"#utility.yul\":3200:3222   */\n      add\n        /* \"#utility.yul\":3179:3232   */\n      tag_357\n      jump\t// in\n    tag_458:\n        /* \"#utility.yul\":3169:3232   */\n      swap3\n      pop\n        /* \"#utility.yul\":3123:3242   */\n      pop\n        /* \"#utility.yul\":3281:3284   */\n      0xe0\n        /* \"#utility.yul\":3308:3361   */\n      tag_459\n        /* \"#utility.yul\":3353:3360   */\n      dup12\n        /* \"#utility.yul\":3344:3350   */\n      dup3\n        /* \"#utility.yul\":3333:3342   */\n      dup13\n        /* \"#utility.yul\":3329:3351   */\n      add\n        /* \"#utility.yul\":3308:3361   */\n      tag_357\n      jump\t// in\n    tag_459:\n        /* \"#utility.yul\":3298:3361   */\n      swap2\n      pop\n        /* \"#utility.yul\":3252:3371   */\n      pop\n        /* \"#utility.yul\":2029:3378   */\n      swap3\n      swap6\n      swap9\n      pop\n      swap3\n      swap6\n      swap9\n      swap1\n      swap4\n      swap7\n      pop\n      jump\t// out\n        /* \"#utility.yul\":3384:4149   */\n    tag_37:\n        /* \"#utility.yul\":3470:3476   */\n      0x00\n        /* \"#utility.yul\":3478:3484   */\n      dup1\n        /* \"#utility.yul\":3486:3492   */\n      0x00\n        /* \"#utility.yul\":3494:3500   */\n      dup1\n        /* \"#utility.yul\":3543:3546   */\n      0x80\n        /* \"#utility.yul\":3531:3540   */\n      dup6\n        /* \"#utility.yul\":3522:3529   */\n      dup8\n        /* \"#utility.yul\":3518:3541   */\n      sub\n        /* \"#utility.yul\":3514:3547   */\n      slt\n        /* \"#utility.yul\":3511:3631   */\n      iszero\n      tag_461\n      jumpi\n        /* \"#utility.yul\":3550:3629   */\n      tag_462\n      tag_349\n      jump\t// in\n    tag_462:\n        /* \"#utility.yul\":3511:3631   */\n    tag_461:\n        /* \"#utility.yul\":3670:3671   */\n      0x00\n        /* \"#utility.yul\":3695:3748   */\n      tag_463\n        /* \"#utility.yul\":3740:3747   */\n      dup8\n        /* \"#utility.yul\":3731:3737   */\n      dup3\n        /* \"#utility.yul\":3720:3729   */\n      dup9\n        /* \"#utility.yul\":3716:3738   */\n      add\n        /* \"#utility.yul\":3695:3748   */\n      tag_357\n      jump\t// in\n    tag_463:\n        /* \"#utility.yul\":3685:3748   */\n      swap5\n      pop\n        /* \"#utility.yul\":3641:3758   */\n      pop\n        /* \"#utility.yul\":3797:3799   */\n      0x20\n        /* \"#utility.yul\":3823:3876   */\n      tag_464\n        /* \"#utility.yul\":3868:3875   */\n      dup8\n        /* \"#utility.yul\":3859:3865   */\n      dup3\n        /* \"#utility.yul\":3848:3857   */\n      dup9\n        /* \"#utility.yul\":3844:3866   */\n      add\n        /* \"#utility.yul\":3823:3876   */\n      tag_354\n      jump\t// in\n    tag_464:\n        /* \"#utility.yul\":3813:3876   */\n      swap4\n      pop\n        /* \"#utility.yul\":3768:3886   */\n      pop\n        /* \"#utility.yul\":3925:3927   */\n      0x40\n        /* \"#utility.yul\":3951:4004   */\n      tag_465\n        /* \"#utility.yul\":3996:4003   */\n      dup8\n        /* \"#utility.yul\":3987:3993   */\n      dup3\n        /* \"#utility.yul\":3976:3985   */\n      dup9\n        /* \"#utility.yul\":3972:3994   */\n      add\n        /* \"#utility.yul\":3951:4004   */\n      tag_354\n      jump\t// in\n    tag_465:\n        /* \"#utility.yul\":3941:4004   */\n      swap3\n      pop\n        /* \"#utility.yul\":3896:4014   */\n      pop\n        /* \"#utility.yul\":4053:4055   */\n      0x60\n        /* \"#utility.yul\":4079:4132   */\n      tag_466\n        /* \"#utility.yul\":4124:4131   */\n      dup8\n        /* \"#utility.yul\":4115:4121   */\n      dup3\n        /* \"#utility.yul\":4104:4113   */\n      dup9\n        /* \"#utility.yul\":4100:4122   */\n      add\n        /* \"#utility.yul\":4079:4132   */\n      tag_357\n      jump\t// in\n    tag_466:\n        /* \"#utility.yul\":4069:4132   */\n      swap2\n      pop\n        /* \"#utility.yul\":4024:4142   */\n      pop\n        /* \"#utility.yul\":3384:4149   */\n      swap3\n      swap6\n      swap2\n      swap5\n      pop\n      swap3\n      pop\n      jump\t// out\n        /* \"#utility.yul\":4155:4245   */\n    tag_359:\n        /* \"#utility.yul\":4189:4196   */\n      0x00\n        /* \"#utility.yul\":4232:4237   */\n      dup2\n        /* \"#utility.yul\":4225:4238   */\n      iszero\n        /* \"#utility.yul\":4218:4239   */\n      iszero\n        /* \"#utility.yul\":4207:4239   */\n      swap1\n      pop\n        /* \"#utility.yul\":4155:4245   */\n      swap2\n      swap1\n      pop\n      jump\t// out\n        /* \"#utility.yul\":4251:4360   */\n    tag_360:\n        /* \"#utility.yul\":4332:4353   */\n      tag_469\n        /* \"#utility.yul\":4347:4352   */\n      dup2\n        /* \"#utility.yul\":4332:4353   */\n      tag_359\n      jump\t// in\n    tag_469:\n        /* \"#utility.yul\":4327:4330   */\n      dup3\n        /* \"#utility.yul\":4320:4354   */\n      mstore\n        /* \"#utility.yul\":4251:4360   */\n      pop\n      pop\n      jump\t// out\n        /* \"#utility.yul\":4366:4576   */\n    tag_40:\n        /* \"#utility.yul\":4453:4457   */\n      0x00\n        /* \"#utility.yul\":4491:4493   */\n      0x20\n        /* \"#utility.yul\":4480:4489   */\n      dup3\n        /* \"#utility.yul\":4476:4494   */\n      add\n        /* \"#utility.yul\":4468:4494   */\n      swap1\n      pop\n        /* \"#utility.yul\":4504:4569   */\n      tag_471\n        /* \"#utility.yul\":4566:4567   */\n      0x00\n        /* \"#utility.yul\":4555:4564   */\n      dup4\n        /* \"#utility.yul\":4551:4568   */\n      add\n        /* \"#utility.yul\":4542:4548   */\n      dup5\n        /* \"#utility.yul\":4504:4569   */\n      tag_360\n      jump\t// in\n    tag_471:\n        /* \"#utility.yul\":4366:4576   */\n      swap3\n      swap2\n      pop\n      pop\n      jump\t// out\n        /* \"#utility.yul\":4582:4911   */\n    tag_43:\n        /* \"#utility.yul\":4641:4647   */\n      0x00\n        /* \"#utility.yul\":4690:4692   */\n      0x20\n        /* \"#utility.yul\":4678:4687   */\n      dup3\n        /* \"#utility.yul\":4669:4676   */\n      dup5\n        /* \"#utility.yul\":4665:4688   */\n      sub\n        /* \"#utility.yul\":4661:4693   */\n      slt\n        /* \"#utility.yul\":4658:4777   */\n      iszero\n      tag_473\n      jumpi\n        /* \"#utility.yul\":4696:4775   */\n      tag_474\n      tag_349\n      jump\t// in\n    tag_474:\n        /* \"#utility.yul\":4658:4777   */\n    tag_473:\n        /* \"#utility.yul\":4816:4817   */\n      0x00\n        /* \"#utility.yul\":4841:4894   */\n      tag_475\n        /* \"#utility.yul\":4886:4893   */\n      dup5\n        /* \"#utility.yul\":4877:4883   */\n      dup3\n        /* \"#utility.yul\":4866:4875   */\n      dup6\n        /* \"#utility.yul\":4862:4884   */\n      add\n        /* \"#utility.yul\":4841:4894   */\n      tag_357\n      jump\t// in\n    tag_475:\n        /* \"#utility.yul\":4831:4894   */\n      swap2\n      pop\n        /* \"#utility.yul\":4787:4904   */\n      pop\n        /* \"#utility.yul\":4582:4911   */\n      swap3\n      swap2\n      pop\n      pop\n      jump\t// out\n        /* \"#utility.yul\":4917:5016   */\n    tag_361:\n        /* \"#utility.yul\":4969:4975   */\n      0x00\n        /* \"#utility.yul\":5003:5008   */\n      dup2\n        /* \"#utility.yul\":4997:5009   */\n      mload\n        /* \"#utility.yul\":4987:5009   */\n      swap1\n      pop\n        /* \"#utility.yul\":4917:5016   */\n      swap2\n      swap1\n      pop\n      jump\t// out\n        /* \"#utility.yul\":5022:5191   */\n    tag_362:\n        /* \"#utility.yul\":5106:5117   */\n      0x00\n        /* \"#utility.yul\":5140:5146   */\n      dup3\n        /* \"#utility.yul\":5135:5138   */\n      dup3\n        /* \"#utility.yul\":5128:5147   */\n      mstore\n        /* \"#utility.yul\":5180:5184   */\n      0x20\n        /* \"#utility.yul\":5175:5178   */\n      dup3\n        /* \"#utility.yul\":5171:5185   */\n      add\n        /* \"#utility.yul\":5156:5185   */\n      swap1\n      pop\n        /* \"#utility.yul\":5022:5191   */\n      swap3\n      swap2\n      pop\n      pop\n      jump\t// out\n        /* \"#utility.yul\":5197:5443   */\n    tag_363:\n        /* \"#utility.yul\":5278:5279   */\n      0x00\n        /* \"#utility.yul\":5288:5401   */\n    tag_479:\n        /* \"#utility.yul\":5302:5308   */\n      dup4\n        /* \"#utility.yul\":5299:5300   */\n      dup2\n        /* \"#utility.yul\":5296:5309   */\n      lt\n        /* \"#utility.yul\":5288:5401   */\n      iszero\n      tag_481\n      jumpi\n        /* \"#utility.yul\":5387:5388   */\n      dup1\n        /* \"#utility.yul\":5382:5385   */\n      dup3\n        /* \"#utility.yul\":5378:5389   */\n      add\n        /* \"#utility.yul\":5372:5390   */\n      mload\n        /* \"#utility.yul\":5368:5369   */\n      dup2\n        /* \"#utility.yul\":5363:5366   */\n      dup5\n        /* \"#utility.yul\":5359:5370   */\n      add\n        /* \"#utility.yul\":5352:5391   */\n      mstore\n        /* \"#utility.yul\":5324:5326   */\n      0x20\n        /* \"#utility.yul\":5321:5322   */\n      dup2\n        /* \"#utility.yul\":5317:5327   */\n      add\n        /* \"#utility.yul\":5312:5327   */\n      swap1\n      pop\n        /* \"#utility.yul\":5288:5401   */\n      jump(tag_479)\n    tag_481:\n        /* \"#utility.yul\":5435:5436   */\n      0x00\n        /* \"#utility.yul\":5426:5432   */\n      dup5\n        /* \"#utility.yul\":5421:5424   */\n      dup5\n        /* \"#utility.yul\":5417:5433   */\n      add\n        /* \"#utility.yul\":5410:5437   */\n      mstore\n        /* \"#utility.yul\":5259:5443   */\n      pop\n        /* \"#utility.yul\":5197:5443   */\n      pop\n      pop\n      pop\n      jump\t// out\n        /* \"#utility.yul\":5449:5551   */\n    tag_364:\n        /* \"#utility.yul\":5490:5496   */\n      0x00\n        /* \"#utility.yul\":5541:5543   */\n      0x1f\n        /* \"#utility.yul\":5537:5544   */\n      not\n        /* \"#utility.yul\":5532:5534   */\n      0x1f\n        /* \"#utility.yul\":5525:5530   */\n      dup4\n        /* \"#utility.yul\":5521:5535   */\n      add\n        /* \"#utility.yul\":5517:5545   */\n      and\n        /* \"#utility.yul\":5507:5545   */\n      swap1\n      pop\n        /* \"#utility.yul\":5449:5551   */\n      swap2\n      swap1\n      pop\n      jump\t// out\n        /* \"#utility.yul\":5557:5934   */\n    tag_365:\n        /* \"#utility.yul\":5645:5648   */\n      0x00\n        /* \"#utility.yul\":5673:5712   */\n      tag_484\n        /* \"#utility.yul\":5706:5711   */\n      dup3\n        /* \"#utility.yul\":5673:5712   */\n      tag_361\n      jump\t// in\n    tag_484:\n        /* \"#utility.yul\":5728:5799   */\n      tag_485\n        /* \"#utility.yul\":5792:5798   */\n      dup2\n        /* \"#utility.yul\":5787:5790   */\n      dup6\n        /* \"#utility.yul\":5728:5799   */\n      tag_362\n      jump\t// in\n    tag_485:\n        /* \"#utility.yul\":5721:5799   */\n      swap4\n      pop\n        /* \"#utility.yul\":5808:5873   */\n      tag_486\n        /* \"#utility.yul\":5866:5872   */\n      dup2\n        /* \"#utility.yul\":5861:5864   */\n      dup6\n        /* \"#utility.yul\":5854:5858   */\n      0x20\n        /* \"#utility.yul\":5847:5852   */\n      dup7\n        /* \"#utility.yul\":5843:5859   */\n      add\n        /* \"#utility.yul\":5808:5873   */\n      tag_363\n      jump\t// in\n    tag_486:\n        /* \"#utility.yul\":5898:5927   */\n      tag_487\n        /* \"#utility.yul\":5920:5926   */\n      dup2\n        /* \"#utility.yul\":5898:5927   */\n      tag_364\n      jump\t// in\n    tag_487:\n        /* \"#utility.yul\":5893:5896   */\n      dup5\n        /* \"#utility.yul\":5889:5928   */\n      add\n        /* \"#utility.yul\":5882:5928   */\n      swap2\n      pop\n        /* \"#utility.yul\":5649:5934   */\n      pop\n        /* \"#utility.yul\":5557:5934   */\n      swap3\n      swap2\n      pop\n      pop\n      jump\t// out\n        /* \"#utility.yul\":5940:6663   */\n    tag_46:\n        /* \"#utility.yul\":6151:6155   */\n      0x00\n        /* \"#utility.yul\":6189:6192   */\n      0x80\n        /* \"#utility.yul\":6178:6187   */\n      dup3\n        /* \"#utility.yul\":6174:6193   */\n      add\n        /* \"#utility.yul\":6166:6193   */\n      swap1\n      pop\n        /* \"#utility.yul\":6239:6248   */\n      dup2\n        /* \"#utility.yul\":6233:6237   */\n      dup2\n        /* \"#utility.yul\":6229:6249   */\n      sub\n        /* \"#utility.yul\":6225:6226   */\n      0x00\n        /* \"#utility.yul\":6214:6223   */\n      dup4\n        /* \"#utility.yul\":6210:6227   */\n      add\n        /* \"#utility.yul\":6203:6250   */\n      mstore\n        /* \"#utility.yul\":6267:6345   */\n      tag_489\n        /* \"#utility.yul\":6340:6344   */\n      dup2\n        /* \"#utility.yul\":6331:6337   */\n      dup8\n        /* \"#utility.yul\":6267:6345   */\n      tag_365\n      jump\t// in\n    tag_489:\n        /* \"#utility.yul\":6259:6345   */\n      swap1\n      pop\n        /* \"#utility.yul\":6392:6401   */\n      dup2\n        /* \"#utility.yul\":6386:6390   */\n      dup2\n        /* \"#utility.yul\":6382:6402   */\n      sub\n        /* \"#utility.yul\":6377:6379   */\n      0x20\n        /* \"#utility.yul\":6366:6375   */\n      dup4\n        /* \"#utility.yul\":6362:6380   */\n      add\n        /* \"#utility.yul\":6355:6403   */\n      mstore\n        /* \"#utility.yul\":6420:6498   */\n      tag_490\n        /* \"#utility.yul\":6493:6497   */\n      dup2\n        /* \"#utility.yul\":6484:6490   */\n      dup7\n        /* \"#utility.yul\":6420:6498   */\n      tag_365\n      jump\t// in\n    tag_490:\n        /* \"#utility.yul\":6412:6498   */\n      swap1\n      pop\n        /* \"#utility.yul\":6508:6580   */\n      tag_491\n        /* \"#utility.yul\":6576:6578   */\n      0x40\n        /* \"#utility.yul\":6565:6574   */\n      dup4\n        /* \"#utility.yul\":6561:6579   */\n      add\n        /* \"#utility.yul\":6552:6558   */\n      dup6\n        /* \"#utility.yul\":6508:6580   */\n      tag_358\n      jump\t// in\n    tag_491:\n        /* \"#utility.yul\":6590:6656   */\n      tag_492\n        /* \"#utility.yul\":6652:6654   */\n      0x60\n        /* \"#utility.yul\":6641:6650   */\n      dup4\n        /* \"#utility.yul\":6637:6655   */\n      add\n        /* \"#utility.yul\":6628:6634   */\n      dup5\n        /* \"#utility.yul\":6590:6656   */\n      tag_360\n      jump\t// in\n    tag_492:\n        /* \"#utility.yul\":5940:6663   */\n      swap6\n      swap5\n      pop\n      pop\n      pop\n      pop\n      pop\n      jump\t// out\n        /* \"#utility.yul\":6669:6787   */\n    tag_366:\n        /* \"#utility.yul\":6756:6780   */\n      tag_494\n        /* \"#utility.yul\":6774:6779   */\n      dup2\n        /* \"#utility.yul\":6756:6780   */\n      tag_352\n      jump\t// in\n    tag_494:\n        /* \"#utility.yul\":6751:6754   */\n      dup3\n        /* \"#utility.yul\":6744:6781   */\n      mstore\n        /* \"#utility.yul\":6669:6787   */\n      pop\n      pop\n      jump\t// out\n        /* \"#utility.yul\":6793:7015   */\n    tag_50:\n        /* \"#utility.yul\":6886:6890   */\n      0x00\n        /* \"#utility.yul\":6924:6926   */\n      0x20\n        /* \"#utility.yul\":6913:6922   */\n      dup3\n        /* \"#utility.yul\":6909:6927   */\n      add\n        /* \"#utility.yul\":6901:6927   */\n      swap1\n      pop\n        /* \"#utility.yul\":6937:7008   */\n      tag_496\n        /* \"#utility.yul\":7005:7006   */\n      0x00\n        /* \"#utility.yul\":6994:7003   */\n      dup4\n        /* \"#utility.yul\":6990:7007   */\n      add\n        /* \"#utility.yul\":6981:6987   */\n      dup5\n        /* \"#utility.yul\":6937:7008   */\n      tag_366\n      jump\t// in\n    tag_496:\n        /* \"#utility.yul\":6793:7015   */\n      swap3\n      swap2\n      pop\n      pop\n      jump\t// out\n        /* \"#utility.yul\":7021:7463   */\n    tag_56:\n        /* \"#utility.yul\":7170:7174   */\n      0x00\n        /* \"#utility.yul\":7208:7210   */\n      0x60\n        /* \"#utility.yul\":7197:7206   */\n      dup3\n        /* \"#utility.yul\":7193:7211   */\n      add\n        /* \"#utility.yul\":7185:7211   */\n      swap1\n      pop\n        /* \"#utility.yul\":7221:7292   */\n      tag_498\n        /* \"#utility.yul\":7289:7290   */\n      0x00\n        /* \"#utility.yul\":7278:7287   */\n      dup4\n        /* \"#utility.yul\":7274:7291   */\n      add\n        /* \"#utility.yul\":7265:7271   */\n      dup7\n        /* \"#utility.yul\":7221:7292   */\n      tag_366\n      jump\t// in\n    tag_498:\n        /* \"#utility.yul\":7302:7374   */\n      tag_499\n        /* \"#utility.yul\":7370:7372   */\n      0x20\n        /* \"#utility.yul\":7359:7368   */\n      dup4\n        /* \"#utility.yul\":7355:7373   */\n      add\n        /* \"#utility.yul\":7346:7352   */\n      dup6\n        /* \"#utility.yul\":7302:7374   */\n      tag_358\n      jump\t// in\n    tag_499:\n        /* \"#utility.yul\":7384:7456   */\n      tag_500\n        /* \"#utility.yul\":7452:7454   */\n      0x40\n        /* \"#utility.yul\":7441:7450   */\n      dup4\n        /* \"#utility.yul\":7437:7455   */\n      add\n        /* \"#utility.yul\":7428:7434   */\n      dup5\n        /* \"#utility.yul\":7384:7456   */\n      tag_358\n      jump\t// in\n    tag_500:\n        /* \"#utility.yul\":7021:7463   */\n      swap5\n      swap4\n      pop\n      pop\n      pop\n      pop\n      jump\t// out\n        /* \"#utility.yul\":7469:8088   */\n    tag_59:\n        /* \"#utility.yul\":7546:7552   */\n      0x00\n        /* \"#utility.yul\":7554:7560   */\n      dup1\n        /* \"#utility.yul\":7562:7568   */\n      0x00\n        /* \"#utility.yul\":7611:7613   */\n      0x60\n        /* \"#utility.yul\":7599:7608   */\n      dup5\n        /* \"#utility.yul\":7590:7597   */\n      dup7\n        /* \"#utility.yul\":7586:7609   */\n      sub\n        /* \"#utility.yul\":7582:7614   */\n      slt\n        /* \"#utility.yul\":7579:7698   */\n      iszero\n      tag_502\n      jumpi\n        /* \"#utility.yul\":7617:7696   */\n      tag_503\n      tag_349\n      jump\t// in\n    tag_503:\n        /* \"#utility.yul\":7579:7698   */\n    tag_502:\n        /* \"#utility.yul\":7737:7738   */\n      0x00\n        /* \"#utility.yul\":7762:7815   */\n      tag_504\n        /* \"#utility.yul\":7807:7814   */\n      dup7\n        /* \"#utility.yul\":7798:7804   */\n      dup3\n        /* \"#utility.yul\":7787:7796   */\n      dup8\n        /* \"#utility.yul\":7783:7805   */\n      add\n        /* \"#utility.yul\":7762:7815   */\n      tag_357\n      jump\t// in\n    tag_504:\n        /* \"#utility.yul\":7752:7815   */\n      swap4\n      pop\n        /* \"#utility.yul\":7708:7825   */\n      pop\n        /* \"#utility.yul\":7864:7866   */\n      0x20\n        /* \"#utility.yul\":7890:7943   */\n      tag_505\n        /* \"#utility.yul\":7935:7942   */\n      dup7\n        /* \"#utility.yul\":7926:7932   */\n      dup3\n        /* \"#utility.yul\":7915:7924   */\n      dup8\n        /* \"#utility.yul\":7911:7933   */\n      add\n        /* \"#utility.yul\":7890:7943   */\n      tag_357\n      jump\t// in\n    tag_505:\n        /* \"#utility.yul\":7880:7943   */\n      swap3\n      pop\n        /* \"#utility.yul\":7835:7953   */\n      pop\n        /* \"#utility.yul\":7992:7994   */\n      0x40\n        /* \"#utility.yul\":8018:8071   */\n      tag_506\n        /* \"#utility.yul\":8063:8070   */\n      dup7\n        /* \"#utility.yul\":8054:8060   */\n      dup3\n        /* \"#utility.yul\":8043:8052   */\n      dup8\n        /* \"#utility.yul\":8039:8061   */\n      add\n        /* \"#utility.yul\":8018:8071   */\n      tag_357\n      jump\t// in\n    tag_506:\n        /* \"#utility.yul\":8008:8071   */\n      swap2\n      pop\n        /* \"#utility.yul\":7963:8081   */\n      pop\n        /* \"#utility.yul\":7469:8088   */\n      swap3\n      pop\n      swap3\n      pop\n      swap3\n      jump\t// out\n        /* \"#utility.yul\":8094:8647   */\n    tag_62:\n        /* \"#utility.yul\":8271:8275   */\n      0x00\n        /* \"#utility.yul\":8309:8312   */\n      0x80\n        /* \"#utility.yul\":8298:8307   */\n      dup3\n        /* \"#utility.yul\":8294:8313   */\n      add\n        /* \"#utility.yul\":8286:8313   */\n      swap1\n      pop\n        /* \"#utility.yul\":8323:8394   */\n      tag_508\n        /* \"#utility.yul\":8391:8392   */\n      0x00\n        /* \"#utility.yul\":8380:8389   */\n      dup4\n        /* \"#utility.yul\":8376:8393   */\n      add\n        /* \"#utility.yul\":8367:8373   */\n      dup8\n        /* \"#utility.yul\":8323:8394   */\n      tag_358\n      jump\t// in\n    tag_508:\n        /* \"#utility.yul\":8404:8476   */\n      tag_509\n        /* \"#utility.yul\":8472:8474   */\n      0x20\n        /* \"#utility.yul\":8461:8470   */\n      dup4\n        /* \"#utility.yul\":8457:8475   */\n      add\n        /* \"#utility.yul\":8448:8454   */\n      dup7\n        /* \"#utility.yul\":8404:8476   */\n      tag_358\n      jump\t// in\n    tag_509:\n        /* \"#utility.yul\":8486:8558   */\n      tag_510\n        /* \"#utility.yul\":8554:8556   */\n      0x40\n        /* \"#utility.yul\":8543:8552   */\n      dup4\n        /* \"#utility.yul\":8539:8557   */\n      add\n        /* \"#utility.yul\":8530:8536   */\n      dup6\n        /* \"#utility.yul\":8486:8558   */\n      tag_358\n      jump\t// in\n    tag_510:\n        /* \"#utility.yul\":8568:8640   */\n      tag_511\n        /* \"#utility.yul\":8636:8638   */\n      0x60\n        /* \"#utility.yul\":8625:8634   */\n      dup4\n        /* \"#utility.yul\":8621:8639   */\n      add\n        /* \"#utility.yul\":8612:8618   */\n      dup5\n        /* \"#utility.yul\":8568:8640   */\n      tag_358\n      jump\t// in\n    tag_511:\n        /* \"#utility.yul\":8094:8647   */\n      swap6\n      swap5\n      pop\n      pop\n      pop\n      pop\n      pop\n      jump\t// out\n        /* \"#utility.yul\":8653:9272   */\n    tag_69:\n        /* \"#utility.yul\":8730:8736   */\n      0x00\n        /* \"#utility.yul\":8738:8744   */\n      dup1\n        /* \"#utility.yul\":8746:8752   */\n      0x00\n        /* \"#utility.yul\":8795:8797   */\n      0x60\n        /* \"#utility.yul\":8783:8792   */\n      dup5\n        /* \"#utility.yul\":8774:8781   */\n      dup7\n        /* \"#utility.yul\":8770:8793   */\n      sub\n        /* \"#utility.yul\":8766:8798   */\n      slt\n        /* \"#utility.yul\":8763:8882   */\n      iszero\n      tag_513\n      jumpi\n        /* \"#utility.yul\":8801:8880   */\n      tag_514\n      tag_349\n      jump\t// in\n    tag_514:\n        /* \"#utility.yul\":8763:8882   */\n    tag_513:\n        /* \"#utility.yul\":8921:8922   */\n      0x00\n        /* \"#utility.yul\":8946:8999   */\n      tag_515\n        /* \"#utility.yul\":8991:8998   */\n      dup7\n        /* \"#utility.yul\":8982:8988   */\n      dup3\n        /* \"#utility.yul\":8971:8980   */\n      dup8\n        /* \"#utility.yul\":8967:8989   */\n      add\n        /* \"#utility.yul\":8946:8999   */\n      tag_354\n      jump\t// in\n    tag_515:\n        /* \"#utility.yul\":8936:8999   */\n      swap4\n      pop\n        /* \"#utility.yul\":8892:9009   */\n      pop\n        /* \"#utility.yul\":9048:9050   */\n      0x20\n        /* \"#utility.yul\":9074:9127   */\n      tag_516\n        /* \"#utility.yul\":9119:9126   */\n      dup7\n        /* \"#utility.yul\":9110:9116   */\n      dup3\n        /* \"#utility.yul\":9099:9108   */\n      dup8\n        /* \"#utility.yul\":9095:9117   */\n      add\n        /* \"#utility.yul\":9074:9127   */\n      tag_354\n      jump\t// in\n    tag_516:\n        /* \"#utility.yul\":9064:9127   */\n      swap3\n      pop\n        /* \"#utility.yul\":9019:9137   */\n      pop\n        /* \"#utility.yul\":9176:9178   */\n      0x40\n        /* \"#utility.yul\":9202:9255   */\n      tag_517\n        /* \"#utility.yul\":9247:9254   */\n      dup7\n        /* \"#utility.yul\":9238:9244   */\n      dup3\n        /* \"#utility.yul\":9227:9236   */\n      dup8\n        /* \"#utility.yul\":9223:9245   */\n      add\n        /* \"#utility.yul\":9202:9255   */\n      tag_357\n      jump\t// in\n    tag_517:\n        /* \"#utility.yul\":9192:9255   */\n      swap2\n      pop\n        /* \"#utility.yul\":9147:9265   */\n      pop\n        /* \"#utility.yul\":8653:9272   */\n      swap3\n      pop\n      swap3\n      pop\n      swap3\n      jump\t// out\n        /* \"#utility.yul\":9278:9897   */\n    tag_84:\n        /* \"#utility.yul\":9355:9361   */\n      0x00\n        /* \"#utility.yul\":9363:9369   */\n      dup1\n        /* \"#utility.yul\":9371:9377   */\n      0x00\n        /* \"#utility.yul\":9420:9422   */\n      0x60\n        /* \"#utility.yul\":9408:9417   */\n      dup5\n        /* \"#utility.yul\":9399:9406   */\n      dup7\n        /* \"#utility.yul\":9395:9418   */\n      sub\n        /* \"#utility.yul\":9391:9423   */\n      slt\n        /* \"#utility.yul\":9388:9507   */\n      iszero\n      tag_519\n      jumpi\n        /* \"#utility.yul\":9426:9505   */\n      tag_520\n      tag_349\n      jump\t// in\n    tag_520:\n        /* \"#utility.yul\":9388:9507   */\n    tag_519:\n        /* \"#utility.yul\":9546:9547   */\n      0x00\n        /* \"#utility.yul\":9571:9624   */\n      tag_521\n        /* \"#utility.yul\":9616:9623   */\n      dup7\n        /* \"#utility.yul\":9607:9613   */\n      dup3\n        /* \"#utility.yul\":9596:9605   */\n      dup8\n        /* \"#utility.yul\":9592:9614   */\n      add\n        /* \"#utility.yul\":9571:9624   */\n      tag_357\n      jump\t// in\n    tag_521:\n        /* \"#utility.yul\":9561:9624   */\n      swap4\n      pop\n        /* \"#utility.yul\":9517:9634   */\n      pop\n        /* \"#utility.yul\":9673:9675   */\n      0x20\n        /* \"#utility.yul\":9699:9752   */\n      tag_522\n        /* \"#utility.yul\":9744:9751   */\n      dup7\n        /* \"#utility.yul\":9735:9741   */\n      dup3\n        /* \"#utility.yul\":9724:9733   */\n      dup8\n        /* \"#utility.yul\":9720:9742   */\n      add\n        /* \"#utility.yul\":9699:9752   */\n      tag_354\n      jump\t// in\n    tag_522:\n        /* \"#utility.yul\":9689:9752   */\n      swap3\n      pop\n        /* \"#utility.yul\":9644:9762   */\n      pop\n        /* \"#utility.yul\":9801:9803   */\n      0x40\n        /* \"#utility.yul\":9827:9880   */\n      tag_523\n        /* \"#utility.yul\":9872:9879   */\n      dup7\n        /* \"#utility.yul\":9863:9869   */\n      dup3\n        /* \"#utility.yul\":9852:9861   */\n      dup8\n        /* \"#utility.yul\":9848:9870   */\n      add\n        /* \"#utility.yul\":9827:9880   */\n      tag_357\n      jump\t// in\n    tag_523:\n        /* \"#utility.yul\":9817:9880   */\n      swap2\n      pop\n        /* \"#utility.yul\":9772:9890   */\n      pop\n        /* \"#utility.yul\":9278:9897   */\n      swap3\n      pop\n      swap3\n      pop\n      swap3\n      jump\t// out\n        /* \"#utility.yul\":9903:10232   */\n    tag_92:\n        /* \"#utility.yul\":9962:9968   */\n      0x00\n        /* \"#utility.yul\":10011:10013   */\n      0x20\n        /* \"#utility.yul\":9999:10008   */\n      dup3\n        /* \"#utility.yul\":9990:9997   */\n      dup5\n        /* \"#utility.yul\":9986:10009   */\n      sub\n        /* \"#utility.yul\":9982:10014   */\n      slt\n        /* \"#utility.yul\":9979:10098   */\n      iszero\n      tag_525\n      jumpi\n        /* \"#utility.yul\":10017:10096   */\n      tag_526\n      tag_349\n      jump\t// in\n    tag_526:\n        /* \"#utility.yul\":9979:10098   */\n    tag_525:\n        /* \"#utility.yul\":10137:10138   */\n      0x00\n        /* \"#utility.yul\":10162:10215   */\n      tag_527\n        /* \"#utility.yul\":10207:10214   */\n      dup5\n        /* \"#utility.yul\":10198:10204   */\n      dup3\n        /* \"#utility.yul\":10187:10196   */\n      dup6\n        /* \"#utility.yul\":10183:10205   */\n      add\n        /* \"#utility.yul\":10162:10215   */\n      tag_354\n      jump\t// in\n    tag_527:\n        /* \"#utility.yul\":10152:10215   */\n      swap2\n      pop\n        /* \"#utility.yul\":10108:10225   */\n      pop\n        /* \"#utility.yul\":9903:10232   */\n      swap3\n      swap2\n      pop\n      pop\n      jump\t// out\n        /* \"#utility.yul\":10238:10413   */\n    tag_367:\n        /* \"#utility.yul\":10378:10405   */\n      0x4f6e6c79205061696e74696e674e465420636f6e747261637400000000000000\n        /* \"#utility.yul\":10374:10375   */\n      0x00\n        /* \"#utility.yul\":10366:10372   */\n      dup3\n        /* \"#utility.yul\":10362:10376   */\n      add\n        /* \"#utility.yul\":10355:10406   */\n      mstore\n        /* \"#utility.yul\":10238:10413   */\n      pop\n      jump\t// out\n        /* \"#utility.yul\":10419:10785   */\n    tag_368:\n        /* \"#utility.yul\":10561:10564   */\n      0x00\n        /* \"#utility.yul\":10582:10649   */\n      tag_530\n        /* \"#utility.yul\":10646:10648   */\n      0x19\n        /* \"#utility.yul\":10641:10644   */\n      dup4\n        /* \"#utility.yul\":10582:10649   */\n      tag_362\n      jump\t// in\n    tag_530:\n        /* \"#utility.yul\":10575:10649   */\n      swap2\n      pop\n        /* \"#utility.yul\":10658:10751   */\n      tag_531\n        /* \"#utility.yul\":10747:10750   */\n      dup3\n        /* \"#utility.yul\":10658:10751   */\n      tag_367\n      jump\t// in\n    tag_531:\n        /* \"#utility.yul\":10776:10778   */\n      0x20\n        /* \"#utility.yul\":10771:10774   */\n      dup3\n        /* \"#utility.yul\":10767:10779   */\n      add\n        /* \"#utility.yul\":10760:10779   */\n      swap1\n      pop\n        /* \"#utility.yul\":10419:10785   */\n      swap2\n      swap1\n      pop\n      jump\t// out\n        /* \"#utility.yul\":10791:11210   */\n    tag_104:\n        /* \"#utility.yul\":10957:10961   */\n      0x00\n        /* \"#utility.yul\":10995:10997   */\n      0x20\n        /* \"#utility.yul\":10984:10993   */\n      dup3\n        /* \"#utility.yul\":10980:10998   */\n      add\n        /* \"#utility.yul\":10972:10998   */\n      swap1\n      pop\n        /* \"#utility.yul\":11044:11053   */\n      dup2\n        /* \"#utility.yul\":11038:11042   */\n      dup2\n        /* \"#utility.yul\":11034:11054   */\n      sub\n        /* \"#utility.yul\":11030:11031   */\n      0x00\n        /* \"#utility.yul\":11019:11028   */\n      dup4\n        /* \"#utility.yul\":11015:11032   */\n      add\n        /* \"#utility.yul\":11008:11055   */\n      mstore\n        /* \"#utility.yul\":11072:11203   */\n      tag_533\n        /* \"#utility.yul\":11198:11202   */\n      dup2\n        /* \"#utility.yul\":11072:11203   */\n      tag_368\n      jump\t// in\n    tag_533:\n        /* \"#utility.yul\":11064:11203   */\n      swap1\n      pop\n        /* \"#utility.yul\":10791:11210   */\n      swap2\n      swap1\n      pop\n      jump\t// out\n        /* \"#utility.yul\":11216:11386   */\n    tag_369:\n        /* \"#utility.yul\":11356:11378   */\n      0x53686172657320616c7265616479206578697374000000000000000000000000\n        /* \"#utility.yul\":11352:11353   */\n      0x00\n        /* \"#utility.yul\":11344:11350   */\n      dup3\n        /* \"#utility.yul\":11340:11354   */\n      add\n        /* \"#utility.yul\":11333:11379   */\n      mstore\n        /* \"#utility.yul\":11216:11386   */\n      pop\n      jump\t// out\n        /* \"#utility.yul\":11392:11758   */\n    tag_370:\n        /* \"#utility.yul\":11534:11537   */\n      0x00\n        /* \"#utility.yul\":11555:11622   */\n      tag_536\n        /* \"#utility.yul\":11619:11621   */\n      0x14\n        /* \"#utility.yul\":11614:11617   */\n      dup4\n        /* \"#utility.yul\":11555:11622   */\n      tag_362\n      jump\t// in\n    tag_536:\n        /* \"#utility.yul\":11548:11622   */\n      swap2\n      pop\n        /* \"#utility.yul\":11631:11724   */\n      tag_537\n        /* \"#utility.yul\":11720:11723   */\n      dup3\n        /* \"#utility.yul\":11631:11724   */\n      tag_369\n      jump\t// in\n    tag_537:\n        /* \"#utility.yul\":11749:11751   */\n      0x20\n        /* \"#utility.yul\":11744:11747   */\n      dup3\n        /* \"#utility.yul\":11740:11752   */\n      add\n        /* \"#utility.yul\":11733:11752   */\n      swap1\n      pop\n        /* \"#utility.yul\":11392:11758   */\n      swap2\n      swap1\n      pop\n      jump\t// out\n        /* \"#utility.yul\":11764:12183   */\n    tag_111:\n        /* \"#utility.yul\":11930:11934   */\n      0x00\n        /* \"#utility.yul\":11968:11970   */\n      0x20\n        /* \"#utility.yul\":11957:11966   */\n      dup3\n        /* \"#utility.yul\":11953:11971   */\n      add\n        /* \"#utility.yul\":11945:11971   */\n      swap1\n      pop\n        /* \"#utility.yul\":12017:12026   */\n      dup2\n        /* \"#utility.yul\":12011:12015   */\n      dup2\n        /* \"#utility.yul\":12007:12027   */\n      sub\n        /* \"#utility.yul\":12003:12004   */\n      0x00\n        /* \"#utility.yul\":11992:12001   */\n      dup4\n        /* \"#utility.yul\":11988:12005   */\n      add\n        /* \"#utility.yul\":11981:12028   */\n      mstore\n        /* \"#utility.yul\":12045:12176   */\n      tag_539\n        /* \"#utility.yul\":12171:12175   */\n      dup2\n        /* \"#utility.yul\":12045:12176   */\n      tag_370\n      jump\t// in\n    tag_539:\n        /* \"#utility.yul\":12037:12176   */\n      swap1\n      pop\n        /* \"#utility.yul\":11764:12183   */\n      swap2\n      swap1\n      pop\n      jump\t// out\n        /* \"#utility.yul\":12189:12369   */\n    tag_371:\n        /* \"#utility.yul\":12237:12314   */\n      0x4e487b7100000000000000000000000000000000000000000000000000000000\n        /* \"#utility.yul\":12234:12235   */\n      0x00\n        /* \"#utility.yul\":12227:12315   */\n      mstore\n        /* \"#utility.yul\":12334:12338   */\n      0x11\n        /* \"#utility.yul\":12331:12332   */\n      0x04\n        /* \"#utility.yul\":12324:12339   */\n      mstore\n        /* \"#utility.yul\":12358:12362   */\n      0x24\n        /* \"#utility.yul\":12355:12356   */\n      0x00\n        /* \"#utility.yul\":12348:12363   */\n      revert\n        /* \"#utility.yul\":12375:12566   */\n    tag_113:\n        /* \"#utility.yul\":12415:12418   */\n      0x00\n        /* \"#utility.yul\":12434:12454   */\n      tag_542\n        /* \"#utility.yul\":12452:12453   */\n      dup3\n        /* \"#utility.yul\":12434:12454   */\n      tag_355\n      jump\t// in\n    tag_542:\n        /* \"#utility.yul\":12429:12454   */\n      swap2\n      pop\n        /* \"#utility.yul\":12468:12488   */\n      tag_543\n        /* \"#utility.yul\":12486:12487   */\n      dup4\n        /* \"#utility.yul\":12468:12488   */\n      tag_355\n      jump\t// in\n    tag_543:\n        /* \"#utility.yul\":12463:12488   */\n      swap3\n      pop\n        /* \"#utility.yul\":12511:12512   */\n      dup3\n        /* \"#utility.yul\":12508:12509   */\n      dup3\n        /* \"#utility.yul\":12504:12513   */\n      add\n        /* \"#utility.yul\":12497:12513   */\n      swap1\n      pop\n        /* \"#utility.yul\":12532:12535   */\n      dup1\n        /* \"#utility.yul\":12529:12530   */\n      dup3\n        /* \"#utility.yul\":12526:12536   */\n      gt\n        /* \"#utility.yul\":12523:12559   */\n      iszero\n      tag_544\n      jumpi\n        /* \"#utility.yul\":12539:12557   */\n      tag_545\n      tag_371\n      jump\t// in\n    tag_545:\n        /* \"#utility.yul\":12523:12559   */\n    tag_544:\n        /* \"#utility.yul\":12375:12566   */\n      swap3\n      swap2\n      pop\n      pop\n      jump\t// out\n        /* \"#utility.yul\":12572:12741   */\n    tag_372:\n        /* \"#utility.yul\":12712:12733   */\n      0x496e76616c69642070657263656e746167657300000000000000000000000000\n        /* \"#utility.yul\":12708:12709   */\n      0x00\n        /* \"#utility.yul\":12700:12706   */\n      dup3\n        /* \"#utility.yul\":12696:12710   */\n      add\n        /* \"#utility.yul\":12689:12734   */\n      mstore\n        /* \"#utility.yul\":12572:12741   */\n      pop\n      jump\t// out\n        /* \"#utility.yul\":12747:13113   */\n    tag_373:\n        /* \"#utility.yul\":12889:12892   */\n      0x00\n        /* \"#utility.yul\":12910:12977   */\n      tag_548\n        /* \"#utility.yul\":12974:12976   */\n      0x13\n        /* \"#utility.yul\":12969:12972   */\n      dup4\n        /* \"#utility.yul\":12910:12977   */\n      tag_362\n      jump\t// in\n    tag_548:\n        /* \"#utility.yul\":12903:12977   */\n      swap2\n      pop\n        /* \"#utility.yul\":12986:13079   */\n      tag_549\n        /* \"#utility.yul\":13075:13078   */\n      dup3\n        /* \"#utility.yul\":12986:13079   */\n      tag_372\n      jump\t// in\n    tag_549:\n        /* \"#utility.yul\":13104:13106   */\n      0x20\n        /* \"#utility.yul\":13099:13102   */\n      dup3\n        /* \"#utility.yul\":13095:13107   */\n      add\n        /* \"#utility.yul\":13088:13107   */\n      swap1\n      pop\n        /* \"#utility.yul\":12747:13113   */\n      swap2\n      swap1\n      pop\n      jump\t// out\n        /* \"#utility.yul\":13119:13538   */\n    tag_117:\n        /* \"#utility.yul\":13285:13289   */\n      0x00\n        /* \"#utility.yul\":13323:13325   */\n      0x20\n        /* \"#utility.yul\":13312:13321   */\n      dup3\n        /* \"#utility.yul\":13308:13326   */\n      add\n        /* \"#utility.yul\":13300:13326   */\n      swap1\n      pop\n        /* \"#utility.yul\":13372:13381   */\n      dup2\n        /* \"#utility.yul\":13366:13370   */\n      dup2\n        /* \"#utility.yul\":13362:13382   */\n      sub\n        /* \"#utility.yul\":13358:13359   */\n      0x00\n        /* \"#utility.yul\":13347:13356   */\n      dup4\n        /* \"#utility.yul\":13343:13360   */\n      add\n        /* \"#utility.yul\":13336:13383   */\n      mstore\n        /* \"#utility.yul\":13400:13531   */\n      tag_551\n        /* \"#utility.yul\":13526:13530   */\n      dup2\n        /* \"#utility.yul\":13400:13531   */\n      tag_373\n      jump\t// in\n    tag_551:\n        /* \"#utility.yul\":13392:13531   */\n      swap1\n      pop\n        /* \"#utility.yul\":13119:13538   */\n      swap2\n      swap1\n      pop\n      jump\t// out\n        /* \"#utility.yul\":13544:13769   */\n    tag_374:\n        /* \"#utility.yul\":13684:13718   */\n      0x506c6174666f726d2061646d696e2063616e6e6f742062652067616c6c657279\n        /* \"#utility.yul\":13680:13681   */\n      0x00\n        /* \"#utility.yul\":13672:13678   */\n      dup3\n        /* \"#utility.yul\":13668:13682   */\n      add\n        /* \"#utility.yul\":13661:13719   */\n      mstore\n        /* \"#utility.yul\":13753:13761   */\n      0x206f776e65720000000000000000000000000000000000000000000000000000\n        /* \"#utility.yul\":13748:13750   */\n      0x20\n        /* \"#utility.yul\":13740:13746   */\n      dup3\n        /* \"#utility.yul\":13736:13751   */\n      add\n        /* \"#utility.yul\":13729:13762   */\n      mstore\n        /* \"#utility.yul\":13544:13769   */\n      pop\n      jump\t// out\n        /* \"#utility.yul\":13775:14141   */\n    tag_375:\n        /* \"#utility.yul\":13917:13920   */\n      0x00\n        /* \"#utility.yul\":13938:14005   */\n      tag_554\n        /* \"#utility.yul\":14002:14004   */\n      0x26\n        /* \"#utility.yul\":13997:14000   */\n      dup4\n        /* \"#utility.yul\":13938:14005   */\n      tag_362\n      jump\t// in\n    tag_554:\n        /* \"#utility.yul\":13931:14005   */\n      swap2\n      pop\n        /* \"#utility.yul\":14014:14107   */\n      tag_555\n        /* \"#utility.yul\":14103:14106   */\n      dup3\n        /* \"#utility.yul\":14014:14107   */\n      tag_374\n      jump\t// in\n    tag_555:\n        /* \"#utility.yul\":14132:14134   */\n      0x40\n        /* \"#utility.yul\":14127:14130   */\n      dup3\n        /* \"#utility.yul\":14123:14135   */\n      add\n        /* \"#utility.yul\":14116:14135   */\n      swap1\n      pop\n        /* \"#utility.yul\":13775:14141   */\n      swap2\n      swap1\n      pop\n      jump\t// out\n        /* \"#utility.yul\":14147:14566   */\n    tag_121:\n        /* \"#utility.yul\":14313:14317   */\n      0x00\n        /* \"#utility.yul\":14351:14353   */\n      0x20\n        /* \"#utility.yul\":14340:14349   */\n      dup3\n        /* \"#utility.yul\":14336:14354   */\n      add\n        /* \"#utility.yul\":14328:14354   */\n      swap1\n      pop\n        /* \"#utility.yul\":14400:14409   */\n      dup2\n        /* \"#utility.yul\":14394:14398   */\n      dup2\n        /* \"#utility.yul\":14390:14410   */\n      sub\n        /* \"#utility.yul\":14386:14387   */\n      0x00\n        /* \"#utility.yul\":14375:14384   */\n      dup4\n        /* \"#utility.yul\":14371:14388   */\n      add\n        /* \"#utility.yul\":14364:14411   */\n      mstore\n        /* \"#utility.yul\":14428:14559   */\n      tag_557\n        /* \"#utility.yul\":14554:14558   */\n      dup2\n        /* \"#utility.yul\":14428:14559   */\n      tag_375\n      jump\t// in\n    tag_557:\n        /* \"#utility.yul\":14420:14559   */\n      swap1\n      pop\n        /* \"#utility.yul\":14147:14566   */\n      swap2\n      swap1\n      pop\n      jump\t// out\n        /* \"#utility.yul\":14572:14752   */\n    tag_376:\n        /* \"#utility.yul\":14620:14697   */\n      0x4e487b7100000000000000000000000000000000000000000000000000000000\n        /* \"#utility.yul\":14617:14618   */\n      0x00\n        /* \"#utility.yul\":14610:14698   */\n      mstore\n        /* \"#utility.yul\":14717:14721   */\n      0x22\n        /* \"#utility.yul\":14714:14715   */\n      0x04\n        /* \"#utility.yul\":14707:14722   */\n      mstore\n        /* \"#utility.yul\":14741:14745   */\n      0x24\n        /* \"#utility.yul\":14738:14739   */\n      0x00\n        /* \"#utility.yul\":14731:14746   */\n      revert\n        /* \"#utility.yul\":14758:15078   */\n    tag_157:\n        /* \"#utility.yul\":14802:14808   */\n      0x00\n        /* \"#utility.yul\":14839:14840   */\n      0x02\n        /* \"#utility.yul\":14833:14837   */\n      dup3\n        /* \"#utility.yul\":14829:14841   */\n      div\n        /* \"#utility.yul\":14819:14841   */\n      swap1\n      pop\n        /* \"#utility.yul\":14886:14887   */\n      0x01\n        /* \"#utility.yul\":14880:14884   */\n      dup3\n        /* \"#utility.yul\":14876:14888   */\n      and\n        /* \"#utility.yul\":14907:14925   */\n      dup1\n        /* \"#utility.yul\":14897:14978   */\n      tag_560\n      jumpi\n        /* \"#utility.yul\":14963:14967   */\n      0x7f\n        /* \"#utility.yul\":14955:14961   */\n      dup3\n        /* \"#utility.yul\":14951:14968   */\n      and\n        /* \"#utility.yul\":14941:14968   */\n      swap2\n      pop\n        /* \"#utility.yul\":14897:14978   */\n    tag_560:\n        /* \"#utility.yul\":15025:15027   */\n      0x20\n        /* \"#utility.yul\":15017:15023   */\n      dup3\n        /* \"#utility.yul\":15014:15028   */\n      lt\n        /* \"#utility.yul\":14994:15012   */\n      dup2\n        /* \"#utility.yul\":14991:15029   */\n      sub\n        /* \"#utility.yul\":14988:15072   */\n      tag_561\n      jumpi\n        /* \"#utility.yul\":15044:15062   */\n      tag_562\n      tag_376\n      jump\t// in\n    tag_562:\n        /* \"#utility.yul\":14988:15072   */\n    tag_561:\n        /* \"#utility.yul\":14809:15078   */\n      pop\n        /* \"#utility.yul\":14758:15078   */\n      swap2\n      swap1\n      pop\n      jump\t// out\n        /* \"#utility.yul\":15084:15225   */\n    tag_377:\n        /* \"#utility.yul\":15133:15137   */\n      0x00\n        /* \"#utility.yul\":15156:15159   */\n      dup2\n        /* \"#utility.yul\":15148:15159   */\n      swap1\n      pop\n        /* \"#utility.yul\":15179:15182   */\n      dup2\n        /* \"#utility.yul\":15176:15177   */\n      0x00\n        /* \"#utility.yul\":15169:15183   */\n      mstore\n        /* \"#utility.yul\":15213:15217   */\n      0x20\n        /* \"#utility.yul\":15210:15211   */\n      0x00\n        /* \"#utility.yul\":15200:15218   */\n      keccak256\n        /* \"#utility.yul\":15192:15218   */\n      swap1\n      pop\n        /* \"#utility.yul\":15084:15225   */\n      swap2\n      swap1\n      pop\n      jump\t// out\n        /* \"#utility.yul\":15255:16086   */\n    tag_378:\n        /* \"#utility.yul\":15340:15343   */\n      0x00\n        /* \"#utility.yul\":15377:15382   */\n      dup2\n        /* \"#utility.yul\":15371:15383   */\n      sload\n        /* \"#utility.yul\":15406:15442   */\n      tag_565\n        /* \"#utility.yul\":15432:15441   */\n      dup2\n        /* \"#utility.yul\":15406:15442   */\n      tag_157\n      jump\t// in\n    tag_565:\n        /* \"#utility.yul\":15458:15529   */\n      tag_566\n        /* \"#utility.yul\":15522:15528   */\n      dup2\n        /* \"#utility.yul\":15517:15520   */\n      dup7\n        /* \"#utility.yul\":15458:15529   */\n      tag_362\n      jump\t// in\n    tag_566:\n        /* \"#utility.yul\":15451:15529   */\n      swap5\n      pop\n        /* \"#utility.yul\":15560:15561   */\n      0x01\n        /* \"#utility.yul\":15549:15558   */\n      dup3\n        /* \"#utility.yul\":15545:15562   */\n      and\n        /* \"#utility.yul\":15576:15577   */\n      0x00\n        /* \"#utility.yul\":15571:15735   */\n      dup2\n      eq\n      tag_568\n      jumpi\n        /* \"#utility.yul\":15749:15750   */\n      0x01\n        /* \"#utility.yul\":15744:16080   */\n      dup2\n      eq\n      tag_569\n      jumpi\n        /* \"#utility.yul\":15538:16080   */\n      jump(tag_567)\n        /* \"#utility.yul\":15571:15735   */\n    tag_568:\n        /* \"#utility.yul\":15655:15659   */\n      0xff\n        /* \"#utility.yul\":15651:15660   */\n      not\n        /* \"#utility.yul\":15640:15649   */\n      dup4\n        /* \"#utility.yul\":15636:15661   */\n      and\n        /* \"#utility.yul\":15631:15634   */\n      dup7\n        /* \"#utility.yul\":15624:15662   */\n      mstore\n        /* \"#utility.yul\":15715:15721   */\n      dup2\n        /* \"#utility.yul\":15708:15722   */\n      iszero\n        /* \"#utility.yul\":15701:15723   */\n      iszero\n        /* \"#utility.yul\":15695:15699   */\n      0x20\n        /* \"#utility.yul\":15691:15724   */\n      mul\n        /* \"#utility.yul\":15686:15689   */\n      dup7\n        /* \"#utility.yul\":15682:15725   */\n      add\n        /* \"#utility.yul\":15675:15725   */\n      swap4\n      pop\n        /* \"#utility.yul\":15571:15735   */\n      jump(tag_567)\n        /* \"#utility.yul\":15744:16080   */\n    tag_569:\n        /* \"#utility.yul\":15811:15849   */\n      tag_570\n        /* \"#utility.yul\":15843:15848   */\n      dup6\n        /* \"#utility.yul\":15811:15849   */\n      tag_377\n      jump\t// in\n    tag_570:\n        /* \"#utility.yul\":15871:15872   */\n      0x00\n        /* \"#utility.yul\":15885:16039   */\n    tag_571:\n        /* \"#utility.yul\":15899:15905   */\n      dup4\n        /* \"#utility.yul\":15896:15897   */\n      dup2\n        /* \"#utility.yul\":15893:15906   */\n      lt\n        /* \"#utility.yul\":15885:16039   */\n      iszero\n      tag_573\n      jumpi\n        /* \"#utility.yul\":15973:15980   */\n      dup2\n        /* \"#utility.yul\":15967:15981   */\n      sload\n        /* \"#utility.yul\":15963:15964   */\n      dup2\n        /* \"#utility.yul\":15958:15961   */\n      dup10\n        /* \"#utility.yul\":15954:15965   */\n      add\n        /* \"#utility.yul\":15947:15982   */\n      mstore\n        /* \"#utility.yul\":16023:16024   */\n      0x01\n        /* \"#utility.yul\":16014:16021   */\n      dup3\n        /* \"#utility.yul\":16010:16025   */\n      add\n        /* \"#utility.yul\":15999:16025   */\n      swap2\n      pop\n        /* \"#utility.yul\":15921:15925   */\n      0x20\n        /* \"#utility.yul\":15918:15919   */\n      dup2\n        /* \"#utility.yul\":15914:15926   */\n      add\n        /* \"#utility.yul\":15909:15926   */\n      swap1\n      pop\n        /* \"#utility.yul\":15885:16039   */\n      jump(tag_571)\n    tag_573:\n        /* \"#utility.yul\":16068:16069   */\n      dup1\n        /* \"#utility.yul\":16063:16066   */\n      dup9\n        /* \"#utility.yul\":16059:16070   */\n      add\n        /* \"#utility.yul\":16052:16070   */\n      swap6\n      pop\n        /* \"#utility.yul\":15751:16080   */\n      pop\n      pop\n        /* \"#utility.yul\":15538:16080   */\n    tag_567:\n      pop\n        /* \"#utility.yul\":15344:16086   */\n      pop\n      pop\n        /* \"#utility.yul\":15255:16086   */\n      swap3\n      swap2\n      pop\n      pop\n      jump\t// out\n        /* \"#utility.yul\":16092:17037   */\n    tag_129:\n        /* \"#utility.yul\":16359:16363   */\n      0x00\n        /* \"#utility.yul\":16397:16400   */\n      0xc0\n        /* \"#utility.yul\":16386:16395   */\n      dup3\n        /* \"#utility.yul\":16382:16401   */\n      add\n        /* \"#utility.yul\":16374:16401   */\n      swap1\n      pop\n        /* \"#utility.yul\":16447:16456   */\n      dup2\n        /* \"#utility.yul\":16441:16445   */\n      dup2\n        /* \"#utility.yul\":16437:16457   */\n      sub\n        /* \"#utility.yul\":16433:16434   */\n      0x00\n        /* \"#utility.yul\":16422:16431   */\n      dup4\n        /* \"#utility.yul\":16418:16435   */\n      add\n        /* \"#utility.yul\":16411:16458   */\n      mstore\n        /* \"#utility.yul\":16475:16550   */\n      tag_575\n        /* \"#utility.yul\":16545:16549   */\n      dup2\n        /* \"#utility.yul\":16536:16542   */\n      dup10\n        /* \"#utility.yul\":16475:16550   */\n      tag_378\n      jump\t// in\n    tag_575:\n        /* \"#utility.yul\":16467:16550   */\n      swap1\n      pop\n        /* \"#utility.yul\":16597:16606   */\n      dup2\n        /* \"#utility.yul\":16591:16595   */\n      dup2\n        /* \"#utility.yul\":16587:16607   */\n      sub\n        /* \"#utility.yul\":16582:16584   */\n      0x20\n        /* \"#utility.yul\":16571:16580   */\n      dup4\n        /* \"#utility.yul\":16567:16585   */\n      add\n        /* \"#utility.yul\":16560:16608   */\n      mstore\n        /* \"#utility.yul\":16625:16700   */\n      tag_576\n        /* \"#utility.yul\":16695:16699   */\n      dup2\n        /* \"#utility.yul\":16686:16692   */\n      dup9\n        /* \"#utility.yul\":16625:16700   */\n      tag_378\n      jump\t// in\n    tag_576:\n        /* \"#utility.yul\":16617:16700   */\n      swap1\n      pop\n        /* \"#utility.yul\":16710:16782   */\n      tag_577\n        /* \"#utility.yul\":16778:16780   */\n      0x40\n        /* \"#utility.yul\":16767:16776   */\n      dup4\n        /* \"#utility.yul\":16763:16781   */\n      add\n        /* \"#utility.yul\":16754:16760   */\n      dup8\n        /* \"#utility.yul\":16710:16782   */\n      tag_358\n      jump\t// in\n    tag_577:\n        /* \"#utility.yul\":16792:16864   */\n      tag_578\n        /* \"#utility.yul\":16860:16862   */\n      0x60\n        /* \"#utility.yul\":16849:16858   */\n      dup4\n        /* \"#utility.yul\":16845:16863   */\n      add\n        /* \"#utility.yul\":16836:16842   */\n      dup7\n        /* \"#utility.yul\":16792:16864   */\n      tag_358\n      jump\t// in\n    tag_578:\n        /* \"#utility.yul\":16874:16947   */\n      tag_579\n        /* \"#utility.yul\":16942:16945   */\n      0x80\n        /* \"#utility.yul\":16931:16940   */\n      dup4\n        /* \"#utility.yul\":16927:16946   */\n      add\n        /* \"#utility.yul\":16918:16924   */\n      dup6\n        /* \"#utility.yul\":16874:16947   */\n      tag_358\n      jump\t// in\n    tag_579:\n        /* \"#utility.yul\":16957:17030   */\n      tag_580\n        /* \"#utility.yul\":17025:17028   */\n      0xa0\n        /* \"#utility.yul\":17014:17023   */\n      dup4\n        /* \"#utility.yul\":17010:17029   */\n      add\n        /* \"#utility.yul\":17001:17007   */\n      dup5\n        /* \"#utility.yul\":16957:17030   */\n      tag_358\n      jump\t// in\n    tag_580:\n        /* \"#utility.yul\":16092:17037   */\n      swap8\n      swap7\n      pop\n      pop\n      pop\n      pop\n      pop\n      pop\n      pop\n      jump\t// out\n        /* \"#utility.yul\":17043:17266   */\n    tag_379:\n        /* \"#utility.yul\":17183:17217   */\n      0x53686172657320646f6e277420657869737420666f722074686973207061696e\n        /* \"#utility.yul\":17179:17180   */\n      0x00\n        /* \"#utility.yul\":17171:17177   */\n      dup3\n        /* \"#utility.yul\":17167:17181   */\n      add\n        /* \"#utility.yul\":17160:17218   */\n      mstore\n        /* \"#utility.yul\":17252:17258   */\n      0x74696e6700000000000000000000000000000000000000000000000000000000\n        /* \"#utility.yul\":17247:17249   */\n      0x20\n        /* \"#utility.yul\":17239:17245   */\n      dup3\n        /* \"#utility.yul\":17235:17250   */\n      add\n        /* \"#utility.yul\":17228:17259   */\n      mstore\n        /* \"#utility.yul\":17043:17266   */\n      pop\n      jump\t// out\n        /* \"#utility.yul\":17272:17638   */\n    tag_380:\n        /* \"#utility.yul\":17414:17417   */\n      0x00\n        /* \"#utility.yul\":17435:17502   */\n      tag_583\n        /* \"#utility.yul\":17499:17501   */\n      0x24\n        /* \"#utility.yul\":17494:17497   */\n      dup4\n        /* \"#utility.yul\":17435:17502   */\n      tag_362\n      jump\t// in\n    tag_583:\n        /* \"#utility.yul\":17428:17502   */\n      swap2\n      pop\n        /* \"#utility.yul\":17511:17604   */\n      tag_584\n        /* \"#utility.yul\":17600:17603   */\n      dup3\n        /* \"#utility.yul\":17511:17604   */\n      tag_379\n      jump\t// in\n    tag_584:\n        /* \"#utility.yul\":17629:17631   */\n      0x40\n        /* \"#utility.yul\":17624:17627   */\n      dup3\n        /* \"#utility.yul\":17620:17632   */\n      add\n        /* \"#utility.yul\":17613:17632   */\n      swap1\n      pop\n        /* \"#utility.yul\":17272:17638   */\n      swap2\n      swap1\n      pop\n      jump\t// out\n        /* \"#utility.yul\":17644:18063   */\n    tag_133:\n        /* \"#utility.yul\":17810:17814   */\n      0x00\n        /* \"#utility.yul\":17848:17850   */\n      0x20\n        /* \"#utility.yul\":17837:17846   */\n      dup3\n        /* \"#utility.yul\":17833:17851   */\n      add\n        /* \"#utility.yul\":17825:17851   */\n      swap1\n      pop\n        /* \"#utility.yul\":17897:17906   */\n      dup2\n        /* \"#utility.yul\":17891:17895   */\n      dup2\n        /* \"#utility.yul\":17887:17907   */\n      sub\n        /* \"#utility.yul\":17883:17884   */\n      0x00\n        /* \"#utility.yul\":17872:17881   */\n      dup4\n        /* \"#utility.yul\":17868:17885   */\n      add\n        /* \"#utility.yul\":17861:17908   */\n      mstore\n        /* \"#utility.yul\":17925:18056   */\n      tag_586\n        /* \"#utility.yul\":18051:18055   */\n      dup2\n        /* \"#utility.yul\":17925:18056   */\n      tag_380\n      jump\t// in\n    tag_586:\n        /* \"#utility.yul\":17917:18056   */\n      swap1\n      pop\n        /* \"#utility.yul\":17644:18063   */\n      swap2\n      swap1\n      pop\n      jump\t// out\n        /* \"#utility.yul\":18069:18243   */\n    tag_381:\n        /* \"#utility.yul\":18209:18235   */\n      0x5472616e7366657220746f207a65726f20616464726573730000000000000000\n        /* \"#utility.yul\":18205:18206   */\n      0x00\n        /* \"#utility.yul\":18197:18203   */\n      dup3\n        /* \"#utility.yul\":18193:18207   */\n      add\n        /* \"#utility.yul\":18186:18236   */\n      mstore\n        /* \"#utility.yul\":18069:18243   */\n      pop\n      jump\t// out\n        /* \"#utility.yul\":18249:18615   */\n    tag_382:\n        /* \"#utility.yul\":18391:18394   */\n      0x00\n        /* \"#utility.yul\":18412:18479   */\n      tag_589\n        /* \"#utility.yul\":18476:18478   */\n      0x18\n        /* \"#utility.yul\":18471:18474   */\n      dup4\n        /* \"#utility.yul\":18412:18479   */\n      tag_362\n      jump\t// in\n    tag_589:\n        /* \"#utility.yul\":18405:18479   */\n      swap2\n      pop\n        /* \"#utility.yul\":18488:18581   */\n      tag_590\n        /* \"#utility.yul\":18577:18580   */\n      dup3\n        /* \"#utility.yul\":18488:18581   */\n      tag_381\n      jump\t// in\n    tag_590:\n        /* \"#utility.yul\":18606:18608   */\n      0x20\n        /* \"#utility.yul\":18601:18604   */\n      dup3\n        /* \"#utility.yul\":18597:18609   */\n      add\n        /* \"#utility.yul\":18590:18609   */\n      swap1\n      pop\n        /* \"#utility.yul\":18249:18615   */\n      swap2\n      swap1\n      pop\n      jump\t// out\n        /* \"#utility.yul\":18621:19040   */\n    tag_142:\n        /* \"#utility.yul\":18787:18791   */\n      0x00\n        /* \"#utility.yul\":18825:18827   */\n      0x20\n        /* \"#utility.yul\":18814:18823   */\n      dup3\n        /* \"#utility.yul\":18810:18828   */\n      add\n        /* \"#utility.yul\":18802:18828   */\n      swap1\n      pop\n        /* \"#utility.yul\":18874:18883   */\n      dup2\n        /* \"#utility.yul\":18868:18872   */\n      dup2\n        /* \"#utility.yul\":18864:18884   */\n      sub\n        /* \"#utility.yul\":18860:18861   */\n      0x00\n        /* \"#utility.yul\":18849:18858   */\n      dup4\n        /* \"#utility.yul\":18845:18862   */\n      add\n        /* \"#utility.yul\":18838:18885   */\n      mstore\n        /* \"#utility.yul\":18902:19033   */\n      tag_592\n        /* \"#utility.yul\":19028:19032   */\n      dup2\n        /* \"#utility.yul\":18902:19033   */\n      tag_382\n      jump\t// in\n    tag_592:\n        /* \"#utility.yul\":18894:19033   */\n      swap1\n      pop\n        /* \"#utility.yul\":18621:19040   */\n      swap2\n      swap1\n      pop\n      jump\t// out\n        /* \"#utility.yul\":19046:19216   */\n    tag_383:\n        /* \"#utility.yul\":19186:19208   */\n      0x496e73756666696369656e742062616c616e6365000000000000000000000000\n        /* \"#utility.yul\":19182:19183   */\n      0x00\n        /* \"#utility.yul\":19174:19180   */\n      dup3\n        /* \"#utility.yul\":19170:19184   */\n      add\n        /* \"#utility.yul\":19163:19209   */\n      mstore\n        /* \"#utility.yul\":19046:19216   */\n      pop\n      jump\t// out\n        /* \"#utility.yul\":19222:19588   */\n    tag_384:\n        /* \"#utility.yul\":19364:19367   */\n      0x00\n        /* \"#utility.yul\":19385:19452   */\n      tag_595\n        /* \"#utility.yul\":19449:19451   */\n      0x14\n        /* \"#utility.yul\":19444:19447   */\n      dup4\n        /* \"#utility.yul\":19385:19452   */\n      tag_362\n      jump\t// in\n    tag_595:\n        /* \"#utility.yul\":19378:19452   */\n      swap2\n      pop\n        /* \"#utility.yul\":19461:19554   */\n      tag_596\n        /* \"#utility.yul\":19550:19553   */\n      dup3\n        /* \"#utility.yul\":19461:19554   */\n      tag_383\n      jump\t// in\n    tag_596:\n        /* \"#utility.yul\":19579:19581   */\n      0x20\n        /* \"#utility.yul\":19574:19577   */\n      dup3\n        /* \"#utility.yul\":19570:19582   */\n      add\n        /* \"#utility.yul\":19563:19582   */\n      swap1\n      pop\n        /* \"#utility.yul\":19222:19588   */\n      swap2\n      swap1\n      pop\n      jump\t// out\n        /* \"#utility.yul\":19594:20013   */\n    tag_145:\n        /* \"#utility.yul\":19760:19764   */\n      0x00\n        /* \"#utility.yul\":19798:19800   */\n      0x20\n        /* \"#utility.yul\":19787:19796   */\n      dup3\n        /* \"#utility.yul\":19783:19801   */\n      add\n        /* \"#utility.yul\":19775:19801   */\n      swap1\n      pop\n        /* \"#utility.yul\":19847:19856   */\n      dup2\n        /* \"#utility.yul\":19841:19845   */\n      dup2\n        /* \"#utility.yul\":19837:19857   */\n      sub\n        /* \"#utility.yul\":19833:19834   */\n      0x00\n        /* \"#utility.yul\":19822:19831   */\n      dup4\n        /* \"#utility.yul\":19818:19835   */\n      add\n        /* \"#utility.yul\":19811:19858   */\n      mstore\n        /* \"#utility.yul\":19875:20006   */\n      tag_598\n        /* \"#utility.yul\":20001:20005   */\n      dup2\n        /* \"#utility.yul\":19875:20006   */\n      tag_384\n      jump\t// in\n    tag_598:\n        /* \"#utility.yul\":19867:20006   */\n      swap1\n      pop\n        /* \"#utility.yul\":19594:20013   */\n      swap2\n      swap1\n      pop\n      jump\t// out\n        /* \"#utility.yul\":20019:20191   */\n    tag_385:\n        /* \"#utility.yul\":20159:20183   */\n      0x496e73756666696369656e7420616c6c6f77616e636500000000000000000000\n        /* \"#utility.yul\":20155:20156   */\n      0x00\n        /* \"#utility.yul\":20147:20153   */\n      dup3\n        /* \"#utility.yul\":20143:20157   */\n      add\n        /* \"#utility.yul\":20136:20184   */\n      mstore\n        /* \"#utility.yul\":20019:20191   */\n      pop\n      jump\t// out\n        /* \"#utility.yul\":20197:20563   */\n    tag_386:\n        /* \"#utility.yul\":20339:20342   */\n      0x00\n        /* \"#utility.yul\":20360:20427   */\n      tag_601\n        /* \"#utility.yul\":20424:20426   */\n      0x16\n        /* \"#utility.yul\":20419:20422   */\n      dup4\n        /* \"#utility.yul\":20360:20427   */\n      tag_362\n      jump\t// in\n    tag_601:\n        /* \"#utility.yul\":20353:20427   */\n      swap2\n      pop\n        /* \"#utility.yul\":20436:20529   */\n      tag_602\n        /* \"#utility.yul\":20525:20528   */\n      dup3\n        /* \"#utility.yul\":20436:20529   */\n      tag_385\n      jump\t// in\n    tag_602:\n        /* \"#utility.yul\":20554:20556   */\n      0x20\n        /* \"#utility.yul\":20549:20552   */\n      dup3\n        /* \"#utility.yul\":20545:20557   */\n      add\n        /* \"#utility.yul\":20538:20557   */\n      swap1\n      pop\n        /* \"#utility.yul\":20197:20563   */\n      swap2\n      swap1\n      pop\n      jump\t// out\n        /* \"#utility.yul\":20569:20988   */\n    tag_148:\n        /* \"#utility.yul\":20735:20739   */\n      0x00\n        /* \"#utility.yul\":20773:20775   */\n      0x20\n        /* \"#utility.yul\":20762:20771   */\n      dup3\n        /* \"#utility.yul\":20758:20776   */\n      add\n        /* \"#utility.yul\":20750:20776   */\n      swap1\n      pop\n        /* \"#utility.yul\":20822:20831   */\n      dup2\n        /* \"#utility.yul\":20816:20820   */\n      dup2\n        /* \"#utility.yul\":20812:20832   */\n      sub\n        /* \"#utility.yul\":20808:20809   */\n      0x00\n        /* \"#utility.yul\":20797:20806   */\n      dup4\n        /* \"#utility.yul\":20793:20810   */\n      add\n        /* \"#utility.yul\":20786:20833   */\n      mstore\n        /* \"#utility.yul\":20850:20981   */\n      tag_604\n        /* \"#utility.yul\":20976:20980   */\n      dup2\n        /* \"#utility.yul\":20850:20981   */\n      tag_386\n      jump\t// in\n    tag_604:\n        /* \"#utility.yul\":20842:20981   */\n      swap1\n      pop\n        /* \"#utility.yul\":20569:20988   */\n      swap2\n      swap1\n      pop\n      jump\t// out\n        /* \"#utility.yul\":20994:21188   */\n    tag_150:\n        /* \"#utility.yul\":21034:21038   */\n      0x00\n        /* \"#utility.yul\":21054:21074   */\n      tag_606\n        /* \"#utility.yul\":21072:21073   */\n      dup3\n        /* \"#utility.yul\":21054:21074   */\n      tag_355\n      jump\t// in\n    tag_606:\n        /* \"#utility.yul\":21049:21074   */\n      swap2\n      pop\n        /* \"#utility.yul\":21088:21108   */\n      tag_607\n        /* \"#utility.yul\":21106:21107   */\n      dup4\n        /* \"#utility.yul\":21088:21108   */\n      tag_355\n      jump\t// in\n    tag_607:\n        /* \"#utility.yul\":21083:21108   */\n      swap3\n      pop\n        /* \"#utility.yul\":21132:21133   */\n      dup3\n        /* \"#utility.yul\":21129:21130   */\n      dup3\n        /* \"#utility.yul\":21125:21134   */\n      sub\n        /* \"#utility.yul\":21117:21134   */\n      swap1\n      pop\n        /* \"#utility.yul\":21156:21157   */\n      dup2\n        /* \"#utility.yul\":21150:21154   */\n      dup2\n        /* \"#utility.yul\":21147:21158   */\n      gt\n        /* \"#utility.yul\":21144:21181   */\n      iszero\n      tag_608\n      jumpi\n        /* \"#utility.yul\":21161:21179   */\n      tag_609\n      tag_371\n      jump\t// in\n    tag_609:\n        /* \"#utility.yul\":21144:21181   */\n    tag_608:\n        /* \"#utility.yul\":20994:21188   */\n      swap3\n      swap2\n      pop\n      pop\n      jump\t// out\n        /* \"#utility.yul\":21194:21604   */\n    tag_177:\n        /* \"#utility.yul\":21234:21241   */\n      0x00\n        /* \"#utility.yul\":21257:21277   */\n      tag_611\n        /* \"#utility.yul\":21275:21276   */\n      dup3\n        /* \"#utility.yul\":21257:21277   */\n      tag_355\n      jump\t// in\n    tag_611:\n        /* \"#utility.yul\":21252:21277   */\n      swap2\n      pop\n        /* \"#utility.yul\":21291:21311   */\n      tag_612\n        /* \"#utility.yul\":21309:21310   */\n      dup4\n        /* \"#utility.yul\":21291:21311   */\n      tag_355\n      jump\t// in\n    tag_612:\n        /* \"#utility.yul\":21286:21311   */\n      swap3\n      pop\n        /* \"#utility.yul\":21346:21347   */\n      dup3\n        /* \"#utility.yul\":21343:21344   */\n      dup3\n        /* \"#utility.yul\":21339:21348   */\n      mul\n        /* \"#utility.yul\":21368:21398   */\n      tag_613\n        /* \"#utility.yul\":21386:21397   */\n      dup2\n        /* \"#utility.yul\":21368:21398   */\n      tag_355\n      jump\t// in\n    tag_613:\n        /* \"#utility.yul\":21357:21398   */\n      swap2\n      pop\n        /* \"#utility.yul\":21547:21548   */\n      dup3\n        /* \"#utility.yul\":21538:21545   */\n      dup3\n        /* \"#utility.yul\":21534:21549   */\n      div\n        /* \"#utility.yul\":21531:21532   */\n      dup5\n        /* \"#utility.yul\":21528:21550   */\n      eq\n        /* \"#utility.yul\":21508:21509   */\n      dup4\n        /* \"#utility.yul\":21501:21510   */\n      iszero\n        /* \"#utility.yul\":21481:21564   */\n      or\n        /* \"#utility.yul\":21458:21597   */\n      tag_614\n      jumpi\n        /* \"#utility.yul\":21577:21595   */\n      tag_615\n      tag_371\n      jump\t// in\n    tag_615:\n        /* \"#utility.yul\":21458:21597   */\n    tag_614:\n        /* \"#utility.yul\":21242:21604   */\n      pop\n        /* \"#utility.yul\":21194:21604   */\n      swap3\n      swap2\n      pop\n      pop\n      jump\t// out\n        /* \"#utility.yul\":21610:21790   */\n    tag_387:\n        /* \"#utility.yul\":21658:21735   */\n      0x4e487b7100000000000000000000000000000000000000000000000000000000\n        /* \"#utility.yul\":21655:21656   */\n      0x00\n        /* \"#utility.yul\":21648:21736   */\n      mstore\n        /* \"#utility.yul\":21755:21759   */\n      0x12\n        /* \"#utility.yul\":21752:21753   */\n      0x04\n        /* \"#utility.yul\":21745:21760   */\n      mstore\n        /* \"#utility.yul\":21779:21783   */\n      0x24\n        /* \"#utility.yul\":21776:21777   */\n      0x00\n        /* \"#utility.yul\":21769:21784   */\n      revert\n        /* \"#utility.yul\":21796:21981   */\n    tag_179:\n        /* \"#utility.yul\":21836:21837   */\n      0x00\n        /* \"#utility.yul\":21853:21873   */\n      tag_618\n        /* \"#utility.yul\":21871:21872   */\n      dup3\n        /* \"#utility.yul\":21853:21873   */\n      tag_355\n      jump\t// in\n    tag_618:\n        /* \"#utility.yul\":21848:21873   */\n      swap2\n      pop\n        /* \"#utility.yul\":21887:21907   */\n      tag_619\n        /* \"#utility.yul\":21905:21906   */\n      dup4\n        /* \"#utility.yul\":21887:21907   */\n      tag_355\n      jump\t// in\n    tag_619:\n        /* \"#utility.yul\":21882:21907   */\n      swap3\n      pop\n        /* \"#utility.yul\":21926:21927   */\n      dup3\n        /* \"#utility.yul\":21916:21951   */\n      tag_620\n      jumpi\n        /* \"#utility.yul\":21931:21949   */\n      tag_621\n      tag_387\n      jump\t// in\n    tag_621:\n        /* \"#utility.yul\":21916:21951   */\n    tag_620:\n        /* \"#utility.yul\":21973:21974   */\n      dup3\n        /* \"#utility.yul\":21970:21971   */\n      dup3\n        /* \"#utility.yul\":21966:21975   */\n      div\n        /* \"#utility.yul\":21961:21975   */\n      swap1\n      pop\n        /* \"#utility.yul\":21796:21981   */\n      swap3\n      swap2\n      pop\n      pop\n      jump\t// out\n        /* \"#utility.yul\":21987:22160   */\n    tag_388:\n        /* \"#utility.yul\":22127:22152   */\n      0x417070726f766520746f207a65726f2061646472657373000000000000000000\n        /* \"#utility.yul\":22123:22124   */\n      0x00\n        /* \"#utility.yul\":22115:22121   */\n      dup3\n        /* \"#utility.yul\":22111:22125   */\n      add\n        /* \"#utility.yul\":22104:22153   */\n      mstore\n        /* \"#utility.yul\":21987:22160   */\n      pop\n      jump\t// out\n        /* \"#utility.yul\":22166:22532   */\n    tag_389:\n        /* \"#utility.yul\":22308:22311   */\n      0x00\n        /* \"#utility.yul\":22329:22396   */\n      tag_624\n        /* \"#utility.yul\":22393:22395   */\n      0x17\n        /* \"#utility.yul\":22388:22391   */\n      dup4\n        /* \"#utility.yul\":22329:22396   */\n      tag_362\n      jump\t// in\n    tag_624:\n        /* \"#utility.yul\":22322:22396   */\n      swap2\n      pop\n        /* \"#utility.yul\":22405:22498   */\n      tag_625\n        /* \"#utility.yul\":22494:22497   */\n      dup3\n        /* \"#utility.yul\":22405:22498   */\n      tag_388\n      jump\t// in\n    tag_625:\n        /* \"#utility.yul\":22523:22525   */\n      0x20\n        /* \"#utility.yul\":22518:22521   */\n      dup3\n        /* \"#utility.yul\":22514:22526   */\n      add\n        /* \"#utility.yul\":22507:22526   */\n      swap1\n      pop\n        /* \"#utility.yul\":22166:22532   */\n      swap2\n      swap1\n      pop\n      jump\t// out\n        /* \"#utility.yul\":22538:22957   */\n    tag_216:\n        /* \"#utility.yul\":22704:22708   */\n      0x00\n        /* \"#utility.yul\":22742:22744   */\n      0x20\n        /* \"#utility.yul\":22731:22740   */\n      dup3\n        /* \"#utility.yul\":22727:22745   */\n      add\n        /* \"#utility.yul\":22719:22745   */\n      swap1\n      pop\n        /* \"#utility.yul\":22791:22800   */\n      dup2\n        /* \"#utility.yul\":22785:22789   */\n      dup2\n        /* \"#utility.yul\":22781:22801   */\n      sub\n        /* \"#utility.yul\":22777:22778   */\n      0x00\n        /* \"#utility.yul\":22766:22775   */\n      dup4\n        /* \"#utility.yul\":22762:22779   */\n      add\n        /* \"#utility.yul\":22755:22802   */\n      mstore\n        /* \"#utility.yul\":22819:22950   */\n      tag_627\n        /* \"#utility.yul\":22945:22949   */\n      dup2\n        /* \"#utility.yul\":22819:22950   */\n      tag_389\n      jump\t// in\n    tag_627:\n        /* \"#utility.yul\":22811:22950   */\n      swap1\n      pop\n        /* \"#utility.yul\":22538:22957   */\n      swap2\n      swap1\n      pop\n      jump\t// out\n        /* \"#utility.yul\":22963:23128   */\n    tag_390:\n        /* \"#utility.yul\":23103:23120   */\n      0x496e76616c696420616464726573730000000000000000000000000000000000\n        /* \"#utility.yul\":23099:23100   */\n      0x00\n        /* \"#utility.yul\":23091:23097   */\n      dup3\n        /* \"#utility.yul\":23087:23101   */\n      add\n        /* \"#utility.yul\":23080:23121   */\n      mstore\n        /* \"#utility.yul\":22963:23128   */\n      pop\n      jump\t// out\n        /* \"#utility.yul\":23134:23500   */\n    tag_391:\n        /* \"#utility.yul\":23276:23279   */\n      0x00\n        /* \"#utility.yul\":23297:23364   */\n      tag_630\n        /* \"#utility.yul\":23361:23363   */\n      0x0f\n        /* \"#utility.yul\":23356:23359   */\n      dup4\n        /* \"#utility.yul\":23297:23364   */\n      tag_362\n      jump\t// in\n    tag_630:\n        /* \"#utility.yul\":23290:23364   */\n      swap2\n      pop\n        /* \"#utility.yul\":23373:23466   */\n      tag_631\n        /* \"#utility.yul\":23462:23465   */\n      dup3\n        /* \"#utility.yul\":23373:23466   */\n      tag_390\n      jump\t// in\n    tag_631:\n        /* \"#utility.yul\":23491:23493   */\n      0x20\n        /* \"#utility.yul\":23486:23489   */\n      dup3\n        /* \"#utility.yul\":23482:23494   */\n      add\n        /* \"#utility.yul\":23475:23494   */\n      swap1\n      pop\n        /* \"#utility.yul\":23134:23500   */\n      swap2\n      swap1\n      pop\n      jump\t// out\n        /* \"#utility.yul\":23506:23925   */\n    tag_224:\n        /* \"#utility.yul\":23672:23676   */\n      0x00\n        /* \"#utility.yul\":23710:23712   */\n      0x20\n        /* \"#utility.yul\":23699:23708   */\n      dup3\n        /* \"#utility.yul\":23695:23713   */\n      add\n        /* \"#utility.yul\":23687:23713   */\n      swap1\n      pop\n        /* \"#utility.yul\":23759:23768   */\n      dup2\n        /* \"#utility.yul\":23753:23757   */\n      dup2\n        /* \"#utility.yul\":23749:23769   */\n      sub\n        /* \"#utility.yul\":23745:23746   */\n      0x00\n        /* \"#utility.yul\":23734:23743   */\n      dup4\n        /* \"#utility.yul\":23730:23747   */\n      add\n        /* \"#utility.yul\":23723:23770   */\n      mstore\n        /* \"#utility.yul\":23787:23918   */\n      tag_633\n        /* \"#utility.yul\":23913:23917   */\n      dup2\n        /* \"#utility.yul\":23787:23918   */\n      tag_391\n      jump\t// in\n    tag_633:\n        /* \"#utility.yul\":23779:23918   */\n      swap1\n      pop\n        /* \"#utility.yul\":23506:23925   */\n      swap2\n      swap1\n      pop\n      jump\t// out\n        /* \"#utility.yul\":23931:24097   */\n    tag_392:\n        /* \"#utility.yul\":24071:24089   */\n      0x5061757361626c653a2070617573656400000000000000000000000000000000\n        /* \"#utility.yul\":24067:24068   */\n      0x00\n        /* \"#utility.yul\":24059:24065   */\n      dup3\n        /* \"#utility.yul\":24055:24069   */\n      add\n        /* \"#utility.yul\":24048:24090   */\n      mstore\n        /* \"#utility.yul\":23931:24097   */\n      pop\n      jump\t// out\n        /* \"#utility.yul\":24103:24469   */\n    tag_393:\n        /* \"#utility.yul\":24245:24248   */\n      0x00\n        /* \"#utility.yul\":24266:24333   */\n      tag_636\n        /* \"#utility.yul\":24330:24332   */\n      0x10\n        /* \"#utility.yul\":24325:24328   */\n      dup4\n        /* \"#utility.yul\":24266:24333   */\n      tag_362\n      jump\t// in\n    tag_636:\n        /* \"#utility.yul\":24259:24333   */\n      swap2\n      pop\n        /* \"#utility.yul\":24342:24435   */\n      tag_637\n        /* \"#utility.yul\":24431:24434   */\n      dup3\n        /* \"#utility.yul\":24342:24435   */\n      tag_392\n      jump\t// in\n    tag_637:\n        /* \"#utility.yul\":24460:24462   */\n      0x20\n        /* \"#utility.yul\":24455:24458   */\n      dup3\n        /* \"#utility.yul\":24451:24463   */\n      add\n        /* \"#utility.yul\":24444:24463   */\n      swap1\n      pop\n        /* \"#utility.yul\":24103:24469   */\n      swap2\n      swap1\n      pop\n      jump\t// out\n        /* \"#utility.yul\":24475:24894   */\n    tag_250:\n        /* \"#utility.yul\":24641:24645   */\n      0x00\n        /* \"#utility.yul\":24679:24681   */\n      0x20\n        /* \"#utility.yul\":24668:24677   */\n      dup3\n        /* \"#utility.yul\":24664:24682   */\n      add\n        /* \"#utility.yul\":24656:24682   */\n      swap1\n      pop\n        /* \"#utility.yul\":24728:24737   */\n      dup2\n        /* \"#utility.yul\":24722:24726   */\n      dup2\n        /* \"#utility.yul\":24718:24738   */\n      sub\n        /* \"#utility.yul\":24714:24715   */\n      0x00\n        /* \"#utility.yul\":24703:24712   */\n      dup4\n        /* \"#utility.yul\":24699:24716   */\n      add\n        /* \"#utility.yul\":24692:24739   */\n      mstore\n        /* \"#utility.yul\":24756:24887   */\n      tag_639\n        /* \"#utility.yul\":24882:24886   */\n      dup2\n        /* \"#utility.yul\":24756:24887   */\n      tag_393\n      jump\t// in\n    tag_639:\n        /* \"#utility.yul\":24748:24887   */\n      swap1\n      pop\n        /* \"#utility.yul\":24475:24894   */\n      swap2\n      swap1\n      pop\n      jump\t// out\n        /* \"#utility.yul\":24900:25048   */\n    tag_394:\n        /* \"#utility.yul\":25002:25013   */\n      0x00\n        /* \"#utility.yul\":25039:25042   */\n      dup2\n        /* \"#utility.yul\":25024:25042   */\n      swap1\n      pop\n        /* \"#utility.yul\":24900:25048   */\n      swap3\n      swap2\n      pop\n      pop\n      jump\t// out\n        /* \"#utility.yul\":25054:25213   */\n    tag_395:\n        /* \"#utility.yul\":25194:25205   */\n      0x5061696e74696e67200000000000000000000000000000000000000000000000\n        /* \"#utility.yul\":25190:25191   */\n      0x00\n        /* \"#utility.yul\":25182:25188   */\n      dup3\n        /* \"#utility.yul\":25178:25192   */\n      add\n        /* \"#utility.yul\":25171:25206   */\n      mstore\n        /* \"#utility.yul\":25054:25213   */\n      pop\n      jump\t// out\n        /* \"#utility.yul\":25219:25619   */\n    tag_396:\n        /* \"#utility.yul\":25379:25382   */\n      0x00\n        /* \"#utility.yul\":25400:25484   */\n      tag_643\n        /* \"#utility.yul\":25482:25483   */\n      0x09\n        /* \"#utility.yul\":25477:25480   */\n      dup4\n        /* \"#utility.yul\":25400:25484   */\n      tag_394\n      jump\t// in\n    tag_643:\n        /* \"#utility.yul\":25393:25484   */\n      swap2\n      pop\n        /* \"#utility.yul\":25493:25586   */\n      tag_644\n        /* \"#utility.yul\":25582:25585   */\n      dup3\n        /* \"#utility.yul\":25493:25586   */\n      tag_395\n      jump\t// in\n    tag_644:\n        /* \"#utility.yul\":25611:25612   */\n      0x09\n        /* \"#utility.yul\":25606:25609   */\n      dup3\n        /* \"#utility.yul\":25602:25613   */\n      add\n        /* \"#utility.yul\":25595:25613   */\n      swap1\n      pop\n        /* \"#utility.yul\":25219:25619   */\n      swap2\n      swap1\n      pop\n      jump\t// out\n        /* \"#utility.yul\":25625:26015   */\n    tag_397:\n        /* \"#utility.yul\":25731:25734   */\n      0x00\n        /* \"#utility.yul\":25759:25798   */\n      tag_646\n        /* \"#utility.yul\":25792:25797   */\n      dup3\n        /* \"#utility.yul\":25759:25798   */\n      tag_361\n      jump\t// in\n    tag_646:\n        /* \"#utility.yul\":25814:25903   */\n      tag_647\n        /* \"#utility.yul\":25896:25902   */\n      dup2\n        /* \"#utility.yul\":25891:25894   */\n      dup6\n        /* \"#utility.yul\":25814:25903   */\n      tag_394\n      jump\t// in\n    tag_647:\n        /* \"#utility.yul\":25807:25903   */\n      swap4\n      pop\n        /* \"#utility.yul\":25912:25977   */\n      tag_648\n        /* \"#utility.yul\":25970:25976   */\n      dup2\n        /* \"#utility.yul\":25965:25968   */\n      dup6\n        /* \"#utility.yul\":25958:25962   */\n      0x20\n        /* \"#utility.yul\":25951:25956   */\n      dup7\n        /* \"#utility.yul\":25947:25963   */\n      add\n        /* \"#utility.yul\":25912:25977   */\n      tag_363\n      jump\t// in\n    tag_648:\n        /* \"#utility.yul\":26002:26008   */\n      dup1\n        /* \"#utility.yul\":25997:26000   */\n      dup5\n        /* \"#utility.yul\":25993:26009   */\n      add\n        /* \"#utility.yul\":25986:26009   */\n      swap2\n      pop\n        /* \"#utility.yul\":25735:26015   */\n      pop\n        /* \"#utility.yul\":25625:26015   */\n      swap3\n      swap2\n      pop\n      pop\n      jump\t// out\n        /* \"#utility.yul\":26021:26178   */\n    tag_398:\n        /* \"#utility.yul\":26161:26170   */\n      0x2053686172657300000000000000000000000000000000000000000000000000\n        /* \"#utility.yul\":26157:26158   */\n      0x00\n        /* \"#utility.yul\":26149:26155   */\n      dup3\n        /* \"#utility.yul\":26145:26159   */\n      add\n        /* \"#utility.yul\":26138:26171   */\n      mstore\n        /* \"#utility.yul\":26021:26178   */\n      pop\n      jump\t// out\n        /* \"#utility.yul\":26184:26584   */\n    tag_399:\n        /* \"#utility.yul\":26344:26347   */\n      0x00\n        /* \"#utility.yul\":26365:26449   */\n      tag_651\n        /* \"#utility.yul\":26447:26448   */\n      0x07\n        /* \"#utility.yul\":26442:26445   */\n      dup4\n        /* \"#utility.yul\":26365:26449   */\n      tag_394\n      jump\t// in\n    tag_651:\n        /* \"#utility.yul\":26358:26449   */\n      swap2\n      pop\n        /* \"#utility.yul\":26458:26551   */\n      tag_652\n        /* \"#utility.yul\":26547:26550   */\n      dup3\n        /* \"#utility.yul\":26458:26551   */\n      tag_398\n      jump\t// in\n    tag_652:\n        /* \"#utility.yul\":26576:26577   */\n      0x07\n        /* \"#utility.yul\":26571:26574   */\n      dup3\n        /* \"#utility.yul\":26567:26578   */\n      add\n        /* \"#utility.yul\":26560:26578   */\n      swap1\n      pop\n        /* \"#utility.yul\":26184:26584   */\n      swap2\n      swap1\n      pop\n      jump\t// out\n        /* \"#utility.yul\":26590:27397   */\n    tag_255:\n        /* \"#utility.yul\":26924:26927   */\n      0x00\n        /* \"#utility.yul\":26946:27094   */\n      tag_654\n        /* \"#utility.yul\":27090:27093   */\n      dup3\n        /* \"#utility.yul\":26946:27094   */\n      tag_396\n      jump\t// in\n    tag_654:\n        /* \"#utility.yul\":26939:27094   */\n      swap2\n      pop\n        /* \"#utility.yul\":27111:27206   */\n      tag_655\n        /* \"#utility.yul\":27202:27205   */\n      dup3\n        /* \"#utility.yul\":27193:27199   */\n      dup5\n        /* \"#utility.yul\":27111:27206   */\n      tag_397\n      jump\t// in\n    tag_655:\n        /* \"#utility.yul\":27104:27206   */\n      swap2\n      pop\n        /* \"#utility.yul\":27223:27371   */\n      tag_656\n        /* \"#utility.yul\":27367:27370   */\n      dup3\n        /* \"#utility.yul\":27223:27371   */\n      tag_399\n      jump\t// in\n    tag_656:\n        /* \"#utility.yul\":27216:27371   */\n      swap2\n      pop\n        /* \"#utility.yul\":27388:27391   */\n      dup2\n        /* \"#utility.yul\":27381:27391   */\n      swap1\n      pop\n        /* \"#utility.yul\":26590:27397   */\n      swap3\n      swap2\n      pop\n      pop\n      jump\t// out\n        /* \"#utility.yul\":27403:27558   */\n    tag_400:\n        /* \"#utility.yul\":27543:27550   */\n      0x5041494e54000000000000000000000000000000000000000000000000000000\n        /* \"#utility.yul\":27539:27540   */\n      0x00\n        /* \"#utility.yul\":27531:27537   */\n      dup3\n        /* \"#utility.yul\":27527:27541   */\n      add\n        /* \"#utility.yul\":27520:27551   */\n      mstore\n        /* \"#utility.yul\":27403:27558   */\n      pop\n      jump\t// out\n        /* \"#utility.yul\":27564:27964   */\n    tag_401:\n        /* \"#utility.yul\":27724:27727   */\n      0x00\n        /* \"#utility.yul\":27745:27829   */\n      tag_659\n        /* \"#utility.yul\":27827:27828   */\n      0x05\n        /* \"#utility.yul\":27822:27825   */\n      dup4\n        /* \"#utility.yul\":27745:27829   */\n      tag_394\n      jump\t// in\n    tag_659:\n        /* \"#utility.yul\":27738:27829   */\n      swap2\n      pop\n        /* \"#utility.yul\":27838:27931   */\n      tag_660\n        /* \"#utility.yul\":27927:27930   */\n      dup3\n        /* \"#utility.yul\":27838:27931   */\n      tag_400\n      jump\t// in\n    tag_660:\n        /* \"#utility.yul\":27956:27957   */\n      0x05\n        /* \"#utility.yul\":27951:27954   */\n      dup3\n        /* \"#utility.yul\":27947:27958   */\n      add\n        /* \"#utility.yul\":27940:27958   */\n      swap1\n      pop\n        /* \"#utility.yul\":27564:27964   */\n      swap2\n      swap1\n      pop\n      jump\t// out\n        /* \"#utility.yul\":27970:28511   */\n    tag_258:\n        /* \"#utility.yul\":28203:28206   */\n      0x00\n        /* \"#utility.yul\":28225:28373   */\n      tag_662\n        /* \"#utility.yul\":28369:28372   */\n      dup3\n        /* \"#utility.yul\":28225:28373   */\n      tag_401\n      jump\t// in\n    tag_662:\n        /* \"#utility.yul\":28218:28373   */\n      swap2\n      pop\n        /* \"#utility.yul\":28390:28485   */\n      tag_663\n        /* \"#utility.yul\":28481:28484   */\n      dup3\n        /* \"#utility.yul\":28472:28478   */\n      dup5\n        /* \"#utility.yul\":28390:28485   */\n      tag_397\n      jump\t// in\n    tag_663:\n        /* \"#utility.yul\":28383:28485   */\n      swap2\n      pop\n        /* \"#utility.yul\":28502:28505   */\n      dup2\n        /* \"#utility.yul\":28495:28505   */\n      swap1\n      pop\n        /* \"#utility.yul\":27970:28511   */\n      swap3\n      swap2\n      pop\n      pop\n      jump\t// out\n        /* \"#utility.yul\":28517:28697   */\n    tag_323:\n        /* \"#utility.yul\":28565:28642   */\n      0x4e487b7100000000000000000000000000000000000000000000000000000000\n        /* \"#utility.yul\":28562:28563   */\n      0x00\n        /* \"#utility.yul\":28555:28643   */\n      mstore\n        /* \"#utility.yul\":28662:28666   */\n      0x41\n        /* \"#utility.yul\":28659:28660   */\n      0x04\n        /* \"#utility.yul\":28652:28667   */\n      mstore\n        /* \"#utility.yul\":28686:28690   */\n      0x24\n        /* \"#utility.yul\":28683:28684   */\n      0x00\n        /* \"#utility.yul\":28676:28691   */\n      revert\n        /* \"#utility.yul\":28703:28796   */\n    tag_402:\n        /* \"#utility.yul\":28740:28746   */\n      0x00\n        /* \"#utility.yul\":28787:28789   */\n      0x20\n        /* \"#utility.yul\":28782:28784   */\n      0x1f\n        /* \"#utility.yul\":28775:28780   */\n      dup4\n        /* \"#utility.yul\":28771:28785   */\n      add\n        /* \"#utility.yul\":28767:28790   */\n      div\n        /* \"#utility.yul\":28757:28790   */\n      swap1\n      pop\n        /* \"#utility.yul\":28703:28796   */\n      swap2\n      swap1\n      pop\n      jump\t// out\n        /* \"#utility.yul\":28802:28909   */\n    tag_403:\n        /* \"#utility.yul\":28846:28854   */\n      0x00\n        /* \"#utility.yul\":28896:28901   */\n      dup3\n        /* \"#utility.yul\":28890:28894   */\n      dup3\n        /* \"#utility.yul\":28886:28902   */\n      shl\n        /* \"#utility.yul\":28865:28902   */\n      swap1\n      pop\n        /* \"#utility.yul\":28802:28909   */\n      swap3\n      swap2\n      pop\n      pop\n      jump\t// out\n        /* \"#utility.yul\":28915:29308   */\n    tag_404:\n        /* \"#utility.yul\":28984:28990   */\n      0x00\n        /* \"#utility.yul\":29034:29035   */\n      0x08\n        /* \"#utility.yul\":29022:29032   */\n      dup4\n        /* \"#utility.yul\":29018:29036   */\n      mul\n        /* \"#utility.yul\":29057:29154   */\n      tag_668\n        /* \"#utility.yul\":29087:29153   */\n      0xffffffffffffffffffffffffffffffffffffffffffffffffffffffffffffffff\n        /* \"#utility.yul\":29076:29085   */\n      dup3\n        /* \"#utility.yul\":29057:29154   */\n      tag_403\n      jump\t// in\n    tag_668:\n        /* \"#utility.yul\":29175:29214   */\n      tag_669\n        /* \"#utility.yul\":29205:29213   */\n      dup7\n        /* \"#utility.yul\":29194:29203   */\n      dup4\n        /* \"#utility.yul\":29175:29214   */\n      tag_403\n      jump\t// in\n    tag_669:\n        /* \"#utility.yul\":29163:29214   */\n      swap6\n      pop\n        /* \"#utility.yul\":29247:29251   */\n      dup1\n        /* \"#utility.yul\":29243:29252   */\n      not\n        /* \"#utility.yul\":29236:29241   */\n      dup5\n        /* \"#utility.yul\":29232:29253   */\n      and\n        /* \"#utility.yul\":29223:29253   */\n      swap4\n      pop\n        /* \"#utility.yul\":29296:29300   */\n      dup1\n        /* \"#utility.yul\":29286:29294   */\n      dup7\n        /* \"#utility.yul\":29282:29301   */\n      and\n        /* \"#utility.yul\":29275:29280   */\n      dup5\n        /* \"#utility.yul\":29272:29302   */\n      or\n        /* \"#utility.yul\":29262:29302   */\n      swap3\n      pop\n        /* \"#utility.yul\":28991:29308   */\n      pop\n      pop\n        /* \"#utility.yul\":28915:29308   */\n      swap4\n      swap3\n      pop\n      pop\n      pop\n      jump\t// out\n        /* \"#utility.yul\":29314:29374   */\n    tag_405:\n        /* \"#utility.yul\":29342:29345   */\n      0x00\n        /* \"#utility.yul\":29363:29368   */\n      dup2\n        /* \"#utility.yul\":29356:29368   */\n      swap1\n      pop\n        /* \"#utility.yul\":29314:29374   */\n      swap2\n      swap1\n      pop\n      jump\t// out\n        /* \"#utility.yul\":29380:29522   */\n    tag_406:\n        /* \"#utility.yul\":29430:29439   */\n      0x00\n        /* \"#utility.yul\":29463:29516   */\n      tag_672\n        /* \"#utility.yul\":29481:29515   */\n      tag_673\n        /* \"#utility.yul\":29490:29514   */\n      tag_674\n        /* \"#utility.yul\":29508:29513   */\n      dup5\n        /* \"#utility.yul\":29490:29514   */\n      tag_355\n      jump\t// in\n    tag_674:\n        /* \"#utility.yul\":29481:29515   */\n      tag_405\n      jump\t// in\n    tag_673:\n        /* \"#utility.yul\":29463:29516   */\n      tag_355\n      jump\t// in\n    tag_672:\n        /* \"#utility.yul\":29450:29516   */\n      swap1\n      pop\n        /* \"#utility.yul\":29380:29522   */\n      swap2\n      swap1\n      pop\n      jump\t// out\n        /* \"#utility.yul\":29528:29603   */\n    tag_407:\n        /* \"#utility.yul\":29571:29574   */\n      0x00\n        /* \"#utility.yul\":29592:29597   */\n      dup2\n        /* \"#utility.yul\":29585:29597   */\n      swap1\n      pop\n        /* \"#utility.yul\":29528:29603   */\n      swap2\n      swap1\n      pop\n      jump\t// out\n        /* \"#utility.yul\":29609:29878   */\n    tag_408:\n        /* \"#utility.yul\":29719:29758   */\n      tag_677\n        /* \"#utility.yul\":29750:29757   */\n      dup4\n        /* \"#utility.yul\":29719:29758   */\n      tag_406\n      jump\t// in\n    tag_677:\n        /* \"#utility.yul\":29780:29871   */\n      tag_678\n        /* \"#utility.yul\":29829:29870   */\n      tag_679\n        /* \"#utility.yul\":29853:29869   */\n      dup3\n        /* \"#utility.yul\":29829:29870   */\n      tag_407\n      jump\t// in\n    tag_679:\n        /* \"#utility.yul\":29821:29827   */\n      dup5\n        /* \"#utility.yul\":29814:29818   */\n      dup5\n        /* \"#utility.yul\":29808:29819   */\n      sload\n        /* \"#utility.yul\":29780:29871   */\n      tag_404\n      jump\t// in\n    tag_678:\n        /* \"#utility.yul\":29774:29778   */\n      dup3\n        /* \"#utility.yul\":29767:29872   */\n      sstore\n        /* \"#utility.yul\":29685:29878   */\n      pop\n        /* \"#utility.yul\":29609:29878   */\n      pop\n      pop\n      pop\n      jump\t// out\n        /* \"#utility.yul\":29884:29957   */\n    tag_409:\n        /* \"#utility.yul\":29929:29932   */\n      0x00\n        /* \"#utility.yul\":29884:29957   */\n      swap1\n      jump\t// out\n        /* \"#utility.yul\":29963:30152   */\n    tag_410:\n        /* \"#utility.yul\":30040:30072   */\n      tag_682\n      tag_409\n      jump\t// in\n    tag_682:\n        /* \"#utility.yul\":30081:30146   */\n      tag_683\n        /* \"#utility.yul\":30139:30145   */\n      dup2\n        /* \"#utility.yul\":30131:30137   */\n      dup5\n        /* \"#utility.yul\":30125:30129   */\n      dup5\n        /* \"#utility.yul\":30081:30146   */\n      tag_408\n      jump\t// in\n    tag_683:\n        /* \"#utility.yul\":30016:30152   */\n      pop\n        /* \"#utility.yul\":29963:30152   */\n      pop\n      pop\n      jump\t// out\n        /* \"#utility.yul\":30158:30344   */\n    tag_411:\n        /* \"#utility.yul\":30218:30338   */\n    tag_685:\n        /* \"#utility.yul\":30235:30238   */\n      dup2\n        /* \"#utility.yul\":30228:30233   */\n      dup2\n        /* \"#utility.yul\":30225:30239   */\n      lt\n        /* \"#utility.yul\":30218:30338   */\n      iszero\n      tag_687\n      jumpi\n        /* \"#utility.yul\":30289:30328   */\n      tag_688\n        /* \"#utility.yul\":30326:30327   */\n      0x00\n        /* \"#utility.yul\":30319:30324   */\n      dup3\n        /* \"#utility.yul\":30289:30328   */\n      tag_410\n      jump\t// in\n    tag_688:\n        /* \"#utility.yul\":30262:30263   */\n      0x01\n        /* \"#utility.yul\":30255:30260   */\n      dup2\n        /* \"#utility.yul\":30251:30264   */\n      add\n        /* \"#utility.yul\":30242:30264   */\n      swap1\n      pop\n        /* \"#utility.yul\":30218:30338   */\n      jump(tag_685)\n    tag_687:\n        /* \"#utility.yul\":30158:30344   */\n      pop\n      pop\n      jump\t// out\n        /* \"#utility.yul\":30350:30893   */\n    tag_412:\n        /* \"#utility.yul\":30451:30453   */\n      0x1f\n        /* \"#utility.yul\":30446:30449   */\n      dup3\n        /* \"#utility.yul\":30443:30454   */\n      gt\n        /* \"#utility.yul\":30440:30886   */\n      iszero\n      tag_690\n      jumpi\n        /* \"#utility.yul\":30485:30523   */\n      tag_691\n        /* \"#utility.yul\":30517:30522   */\n      dup2\n        /* \"#utility.yul\":30485:30523   */\n      tag_377\n      jump\t// in\n    tag_691:\n        /* \"#utility.yul\":30569:30598   */\n      tag_692\n        /* \"#utility.yul\":30587:30597   */\n      dup5\n        /* \"#utility.yul\":30569:30598   */\n      tag_402\n      jump\t// in\n    tag_692:\n        /* \"#utility.yul\":30559:30567   */\n      dup2\n        /* \"#utility.yul\":30555:30599   */\n      add\n        /* \"#utility.yul\":30752:30754   */\n      0x20\n        /* \"#utility.yul\":30740:30750   */\n      dup6\n        /* \"#utility.yul\":30737:30755   */\n      lt\n        /* \"#utility.yul\":30734:30783   */\n      iszero\n      tag_693\n      jumpi\n        /* \"#utility.yul\":30773:30781   */\n      dup2\n        /* \"#utility.yul\":30758:30781   */\n      swap1\n      pop\n        /* \"#utility.yul\":30734:30783   */\n    tag_693:\n        /* \"#utility.yul\":30796:30876   */\n      tag_694\n        /* \"#utility.yul\":30852:30874   */\n      tag_695\n        /* \"#utility.yul\":30870:30873   */\n      dup6\n        /* \"#utility.yul\":30852:30874   */\n      tag_402\n      jump\t// in\n    tag_695:\n        /* \"#utility.yul\":30842:30850   */\n      dup4\n        /* \"#utility.yul\":30838:30875   */\n      add\n        /* \"#utility.yul\":30825:30836   */\n      dup3\n        /* \"#utility.yul\":30796:30876   */\n      tag_411\n      jump\t// in\n    tag_694:\n        /* \"#utility.yul\":30455:30886   */\n      pop\n      pop\n        /* \"#utility.yul\":30440:30886   */\n    tag_690:\n        /* \"#utility.yul\":30350:30893   */\n      pop\n      pop\n      pop\n      jump\t// out\n        /* \"#utility.yul\":30899:31016   */\n    tag_413:\n        /* \"#utility.yul\":30953:30961   */\n      0x00\n        /* \"#utility.yul\":31003:31008   */\n      dup3\n        /* \"#utility.yul\":30997:31001   */\n      dup3\n        /* \"#utility.yul\":30993:31009   */\n      shr\n        /* \"#utility.yul\":30972:31009   */\n      swap1\n      pop\n        /* \"#utility.yul\":30899:31016   */\n      swap3\n      swap2\n      pop\n      pop\n      jump\t// out\n        /* \"#utility.yul\":31022:31191   */\n    tag_414:\n        /* \"#utility.yul\":31066:31072   */\n      0x00\n        /* \"#utility.yul\":31099:31150   */\n      tag_698\n        /* \"#utility.yul\":31147:31148   */\n      0x00\n        /* \"#utility.yul\":31143:31149   */\n      not\n        /* \"#utility.yul\":31135:31140   */\n      dup5\n        /* \"#utility.yul\":31132:31133   */\n      0x08\n        /* \"#utility.yul\":31128:31141   */\n      mul\n        /* \"#utility.yul\":31099:31150   */\n      tag_413\n      jump\t// in\n    tag_698:\n        /* \"#utility.yul\":31095:31151   */\n      not\n        /* \"#utility.yul\":31180:31184   */\n      dup1\n        /* \"#utility.yul\":31174:31178   */\n      dup4\n        /* \"#utility.yul\":31170:31185   */\n      and\n        /* \"#utility.yul\":31160:31185   */\n      swap2\n      pop\n        /* \"#utility.yul\":31073:31191   */\n      pop\n        /* \"#utility.yul\":31022:31191   */\n      swap3\n      swap2\n      pop\n      pop\n      jump\t// out\n        /* \"#utility.yul\":31196:31491   */\n    tag_415:\n        /* \"#utility.yul\":31272:31276   */\n      0x00\n        /* \"#utility.yul\":31418:31447   */\n      tag_700\n        /* \"#utility.yul\":31443:31446   */\n      dup4\n        /* \"#utility.yul\":31437:31441   */\n      dup4\n        /* \"#utility.yul\":31418:31447   */\n      tag_414\n      jump\t// in\n    tag_700:\n        /* \"#utility.yul\":31410:31447   */\n      swap2\n      pop\n        /* \"#utility.yul\":31480:31483   */\n      dup3\n        /* \"#utility.yul\":31477:31478   */\n      0x02\n        /* \"#utility.yul\":31473:31484   */\n      mul\n        /* \"#utility.yul\":31467:31471   */\n      dup3\n        /* \"#utility.yul\":31464:31485   */\n      or\n        /* \"#utility.yul\":31456:31485   */\n      swap1\n      pop\n        /* \"#utility.yul\":31196:31491   */\n      swap3\n      swap2\n      pop\n      pop\n      jump\t// out\n        /* \"#utility.yul\":31496:32891   */\n    tag_260:\n        /* \"#utility.yul\":31613:31650   */\n      tag_702\n        /* \"#utility.yul\":31646:31649   */\n      dup3\n        /* \"#utility.yul\":31613:31650   */\n      tag_361\n      jump\t// in\n    tag_702:\n        /* \"#utility.yul\":31715:31733   */\n      0xffffffffffffffff\n        /* \"#utility.yul\":31707:31713   */\n      dup2\n        /* \"#utility.yul\":31704:31734   */\n      gt\n        /* \"#utility.yul\":31701:31757   */\n      iszero\n      tag_703\n      jumpi\n        /* \"#utility.yul\":31737:31755   */\n      tag_704\n      tag_323\n      jump\t// in\n    tag_704:\n        /* \"#utility.yul\":31701:31757   */\n    tag_703:\n        /* \"#utility.yul\":31781:31819   */\n      tag_705\n        /* \"#utility.yul\":31813:31817   */\n      dup3\n        /* \"#utility.yul\":31807:31818   */\n      sload\n        /* \"#utility.yul\":31781:31819   */\n      tag_157\n      jump\t// in\n    tag_705:\n        /* \"#utility.yul\":31866:31933   */\n      tag_706\n        /* \"#utility.yul\":31926:31932   */\n      dup3\n        /* \"#utility.yul\":31918:31924   */\n      dup3\n        /* \"#utility.yul\":31912:31916   */\n      dup6\n        /* \"#utility.yul\":31866:31933   */\n      tag_412\n      jump\t// in\n    tag_706:\n        /* \"#utility.yul\":31960:31961   */\n      0x00\n        /* \"#utility.yul\":31984:31988   */\n      0x20\n        /* \"#utility.yul\":31971:31988   */\n      swap1\n      pop\n        /* \"#utility.yul\":32016:32018   */\n      0x1f\n        /* \"#utility.yul\":32008:32014   */\n      dup4\n        /* \"#utility.yul\":32005:32019   */\n      gt\n        /* \"#utility.yul\":32033:32034   */\n      0x01\n        /* \"#utility.yul\":32028:32646   */\n      dup2\n      eq\n      tag_708\n      jumpi\n        /* \"#utility.yul\":32690:32691   */\n      0x00\n        /* \"#utility.yul\":32707:32713   */\n      dup5\n        /* \"#utility.yul\":32704:32781   */\n      iszero\n      tag_709\n      jumpi\n        /* \"#utility.yul\":32756:32765   */\n      dup3\n        /* \"#utility.yul\":32751:32754   */\n      dup8\n        /* \"#utility.yul\":32747:32766   */\n      add\n        /* \"#utility.yul\":32741:32767   */\n      mload\n        /* \"#utility.yul\":32732:32767   */\n      swap1\n      pop\n        /* \"#utility.yul\":32704:32781   */\n    tag_709:\n        /* \"#utility.yul\":32807:32874   */\n      tag_710\n        /* \"#utility.yul\":32867:32873   */\n      dup6\n        /* \"#utility.yul\":32860:32865   */\n      dup3\n        /* \"#utility.yul\":32807:32874   */\n      tag_415\n      jump\t// in\n    tag_710:\n        /* \"#utility.yul\":32801:32805   */\n      dup7\n        /* \"#utility.yul\":32794:32875   */\n      sstore\n        /* \"#utility.yul\":32663:32885   */\n      pop\n        /* \"#utility.yul\":31998:32885   */\n      jump(tag_707)\n        /* \"#utility.yul\":32028:32646   */\n    tag_708:\n        /* \"#utility.yul\":32080:32084   */\n      0x1f\n        /* \"#utility.yul\":32076:32085   */\n      not\n        /* \"#utility.yul\":32068:32074   */\n      dup5\n        /* \"#utility.yul\":32064:32086   */\n      and\n        /* \"#utility.yul\":32114:32151   */\n      tag_711\n        /* \"#utility.yul\":32146:32150   */\n      dup7\n        /* \"#utility.yul\":32114:32151   */\n      tag_377\n      jump\t// in\n    tag_711:\n        /* \"#utility.yul\":32173:32174   */\n      0x00\n        /* \"#utility.yul\":32187:32395   */\n    tag_712:\n        /* \"#utility.yul\":32201:32208   */\n      dup3\n        /* \"#utility.yul\":32198:32199   */\n      dup2\n        /* \"#utility.yul\":32195:32209   */\n      lt\n        /* \"#utility.yul\":32187:32395   */\n      iszero\n      tag_714\n      jumpi\n        /* \"#utility.yul\":32280:32289   */\n      dup5\n        /* \"#utility.yul\":32275:32278   */\n      dup10\n        /* \"#utility.yul\":32271:32290   */\n      add\n        /* \"#utility.yul\":32265:32291   */\n      mload\n        /* \"#utility.yul\":32257:32263   */\n      dup3\n        /* \"#utility.yul\":32250:32292   */\n      sstore\n        /* \"#utility.yul\":32331:32332   */\n      0x01\n        /* \"#utility.yul\":32323:32329   */\n      dup3\n        /* \"#utility.yul\":32319:32333   */\n      add\n        /* \"#utility.yul\":32309:32333   */\n      swap2\n      pop\n        /* \"#utility.yul\":32378:32380   */\n      0x20\n        /* \"#utility.yul\":32367:32376   */\n      dup6\n        /* \"#utility.yul\":32363:32381   */\n      add\n        /* \"#utility.yul\":32350:32381   */\n      swap5\n      pop\n        /* \"#utility.yul\":32224:32228   */\n      0x20\n        /* \"#utility.yul\":32221:32222   */\n      dup2\n        /* \"#utility.yul\":32217:32229   */\n      add\n        /* \"#utility.yul\":32212:32229   */\n      swap1\n      pop\n        /* \"#utility.yul\":32187:32395   */\n      jump(tag_712)\n    tag_714:\n        /* \"#utility.yul\":32423:32429   */\n      dup7\n        /* \"#utility.yul\":32414:32421   */\n      dup4\n        /* \"#utility.yul\":32411:32430   */\n      lt\n        /* \"#utility.yul\":32408:32587   */\n      iszero\n      tag_715\n      jumpi\n        /* \"#utility.yul\":32481:32490   */\n      dup5\n        /* \"#utility.yul\":32476:32479   */\n      dup10\n        /* \"#utility.yul\":32472:32491   */\n      add\n        /* \"#utility.yul\":32466:32492   */\n      mload\n        /* \"#utility.yul\":32524:32572   */\n      tag_716\n        /* \"#utility.yul\":32566:32570   */\n      0x1f\n        /* \"#utility.yul\":32558:32564   */\n      dup10\n        /* \"#utility.yul\":32554:32571   */\n      and\n        /* \"#utility.yul\":32543:32552   */\n      dup3\n        /* \"#utility.yul\":32524:32572   */\n      tag_414\n      jump\t// in\n    tag_716:\n        /* \"#utility.yul\":32516:32522   */\n      dup4\n        /* \"#utility.yul\":32509:32573   */\n      sstore\n        /* \"#utility.yul\":32431:32587   */\n      pop\n        /* \"#utility.yul\":32408:32587   */\n    tag_715:\n        /* \"#utility.yul\":32633:32634   */\n      0x01\n        /* \"#utility.yul\":32629:32630   */\n      0x02\n        /* \"#utility.yul\":32621:32627   */\n      dup9\n        /* \"#utility.yul\":32617:32631   */\n      mul\n        /* \"#utility.yul\":32613:32635   */\n      add\n        /* \"#utility.yul\":32607:32611   */\n      dup9\n        /* \"#utility.yul\":32600:32636   */\n      sstore\n        /* \"#utility.yul\":32035:32646   */\n      pop\n      pop\n      pop\n        /* \"#utility.yul\":31998:32885   */\n    tag_707:\n      pop\n        /* \"#utility.yul\":31588:32891   */\n      pop\n      pop\n      pop\n        /* \"#utility.yul\":31496:32891   */\n      pop\n      pop\n      jump\t// out\n        /* \"#utility.yul\":32897:33078   */\n    tag_416:\n        /* \"#utility.yul\":33037:33070   */\n      0x5265656e7472616e637947756172643a207265656e7472616e742063616c6c00\n        /* \"#utility.yul\":33033:33034   */\n      0x00\n        /* \"#utility.yul\":33025:33031   */\n      dup3\n        /* \"#utility.yul\":33021:33035   */\n      add\n        /* \"#utility.yul\":33014:33071   */\n      mstore\n        /* \"#utility.yul\":32897:33078   */\n      pop\n      jump\t// out\n        /* \"#utility.yul\":33084:33450   */\n    tag_417:\n        /* \"#utility.yul\":33226:33229   */\n      0x00\n        /* \"#utility.yul\":33247:33314   */\n      tag_719\n        /* \"#utility.yul\":33311:33313   */\n      0x1f\n        /* \"#utility.yul\":33306:33309   */\n      dup4\n        /* \"#utility.yul\":33247:33314   */\n      tag_362\n      jump\t// in\n    tag_719:\n        /* \"#utility.yul\":33240:33314   */\n      swap2\n      pop\n        /* \"#utility.yul\":33323:33416   */\n      tag_720\n        /* \"#utility.yul\":33412:33415   */\n      dup3\n        /* \"#utility.yul\":33323:33416   */\n      tag_416\n      jump\t// in\n    tag_720:\n        /* \"#utility.yul\":33441:33443   */\n      0x20\n        /* \"#utility.yul\":33436:33439   */\n      dup3\n        /* \"#utility.yul\":33432:33444   */\n      add\n        /* \"#utility.yul\":33425:33444   */\n      swap1\n      pop\n        /* \"#utility.yul\":33084:33450   */\n      swap2\n      swap1\n      pop\n      jump\t// out\n        /* \"#utility.yul\":33456:33875   */\n    tag_287:\n        /* \"#utility.yul\":33622:33626   */\n      0x00\n        /* \"#utility.yul\":33660:33662   */\n      0x20\n        /* \"#utility.yul\":33649:33658   */\n      dup3\n        /* \"#utility.yul\":33645:33663   */\n      add\n        /* \"#utility.yul\":33637:33663   */\n      swap1\n      pop\n        /* \"#utility.yul\":33709:33718   */\n      dup2\n        /* \"#utility.yul\":33703:33707   */\n      dup2\n        /* \"#utility.yul\":33699:33719   */\n      sub\n        /* \"#utility.yul\":33695:33696   */\n      0x00\n        /* \"#utility.yul\":33684:33693   */\n      dup4\n        /* \"#utility.yul\":33680:33697   */\n      add\n        /* \"#utility.yul\":33673:33720   */\n      mstore\n        /* \"#utility.yul\":33737:33868   */\n      tag_722\n        /* \"#utility.yul\":33863:33867   */\n      dup2\n        /* \"#utility.yul\":33737:33868   */\n      tag_417\n      jump\t// in\n    tag_722:\n        /* \"#utility.yul\":33729:33868   */\n      swap1\n      pop\n        /* \"#utility.yul\":33456:33875   */\n      swap2\n      swap1\n      pop\n      jump\t// out\n        /* \"#utility.yul\":33881:34114   */\n    tag_319:\n        /* \"#utility.yul\":33920:33923   */\n      0x00\n        /* \"#utility.yul\":33943:33967   */\n      tag_724\n        /* \"#utility.yul\":33961:33966   */\n      dup3\n        /* \"#utility.yul\":33943:33967   */\n      tag_355\n      jump\t// in\n    tag_724:\n        /* \"#utility.yul\":33934:33967   */\n      swap2\n      pop\n        /* \"#utility.yul\":33989:34055   */\n      0xffffffffffffffffffffffffffffffffffffffffffffffffffffffffffffffff\n        /* \"#utility.yul\":33982:33987   */\n      dup3\n        /* \"#utility.yul\":33979:34056   */\n      sub\n        /* \"#utility.yul\":33976:34079   */\n      tag_725\n      jumpi\n        /* \"#utility.yul\":34059:34077   */\n      tag_726\n      tag_371\n      jump\t// in\n    tag_726:\n        /* \"#utility.yul\":33976:34079   */\n    tag_725:\n        /* \"#utility.yul\":34106:34107   */\n      0x01\n        /* \"#utility.yul\":34099:34104   */\n      dup3\n        /* \"#utility.yul\":34095:34108   */\n      add\n        /* \"#utility.yul\":34088:34108   */\n      swap1\n      pop\n        /* \"#utility.yul\":33881:34114   */\n      swap2\n      swap1\n      pop\n      jump\t// out\n        /* \"#utility.yul\":34120:34296   */\n    tag_329:\n        /* \"#utility.yul\":34152:34153   */\n      0x00\n        /* \"#utility.yul\":34169:34189   */\n      tag_728\n        /* \"#utility.yul\":34187:34188   */\n      dup3\n        /* \"#utility.yul\":34169:34189   */\n      tag_355\n      jump\t// in\n    tag_728:\n        /* \"#utility.yul\":34164:34189   */\n      swap2\n      pop\n        /* \"#utility.yul\":34203:34223   */\n      tag_729\n        /* \"#utility.yul\":34221:34222   */\n      dup4\n        /* \"#utility.yul\":34203:34223   */\n      tag_355\n      jump\t// in\n    tag_729:\n        /* \"#utility.yul\":34198:34223   */\n      swap3\n      pop\n        /* \"#utility.yul\":34242:34243   */\n      dup3\n        /* \"#utility.yul\":34232:34267   */\n      tag_730\n      jumpi\n        /* \"#utility.yul\":34247:34265   */\n      tag_731\n      tag_387\n      jump\t// in\n    tag_731:\n        /* \"#utility.yul\":34232:34267   */\n    tag_730:\n        /* \"#utility.yul\":34288:34289   */\n      dup3\n        /* \"#utility.yul\":34285:34286   */\n      dup3\n        /* \"#utility.yul\":34281:34290   */\n      mod\n        /* \"#utility.yul\":34276:34290   */\n      swap1\n      pop\n        /* \"#utility.yul\":34120:34296   */\n      swap3\n      swap2\n      pop\n      pop\n      jump\t// out\n        /* \"#utility.yul\":34302:34482   */\n    tag_333:\n        /* \"#utility.yul\":34350:34427   */\n      0x4e487b7100000000000000000000000000000000000000000000000000000000\n        /* \"#utility.yul\":34347:34348   */\n      0x00\n        /* \"#utility.yul\":34340:34428   */\n      mstore\n        /* \"#utility.yul\":34447:34451   */\n      0x32\n        /* \"#utility.yul\":34444:34445   */\n      0x04\n        /* \"#utility.yul\":34437:34452   */\n      mstore\n        /* \"#utility.yul\":34471:34475   */\n      0x24\n        /* \"#utility.yul\":34468:34469   */\n      0x00\n        /* \"#utility.yul\":34461:34476   */\n      revert\n        /* \"#utility.yul\":34488:34658   */\n    tag_418:\n        /* \"#utility.yul\":34628:34650   */\n      0x4d696e7420746f207a65726f2061646472657373000000000000000000000000\n        /* \"#utility.yul\":34624:34625   */\n      0x00\n        /* \"#utility.yul\":34616:34622   */\n      dup3\n        /* \"#utility.yul\":34612:34626   */\n      add\n        /* \"#utility.yul\":34605:34651   */\n      mstore\n        /* \"#utility.yul\":34488:34658   */\n      pop\n      jump\t// out\n        /* \"#utility.yul\":34664:35030   */\n    tag_419:\n        /* \"#utility.yul\":34806:34809   */\n      0x00\n        /* \"#utility.yul\":34827:34894   */\n      tag_735\n        /* \"#utility.yul\":34891:34893   */\n      0x14\n        /* \"#utility.yul\":34886:34889   */\n      dup4\n        /* \"#utility.yul\":34827:34894   */\n      tag_362\n      jump\t// in\n    tag_735:\n        /* \"#utility.yul\":34820:34894   */\n      swap2\n      pop\n        /* \"#utility.yul\":34903:34996   */\n      tag_736\n        /* \"#utility.yul\":34992:34995   */\n      dup3\n        /* \"#utility.yul\":34903:34996   */\n      tag_418\n      jump\t// in\n    tag_736:\n        /* \"#utility.yul\":35021:35023   */\n      0x20\n        /* \"#utility.yul\":35016:35019   */\n      dup3\n        /* \"#utility.yul\":35012:35024   */\n      add\n        /* \"#utility.yul\":35005:35024   */\n      swap1\n      pop\n        /* \"#utility.yul\":34664:35030   */\n      swap2\n      swap1\n      pop\n      jump\t// out\n        /* \"#utility.yul\":35036:35455   */\n    tag_338:\n        /* \"#utility.yul\":35202:35206   */\n      0x00\n        /* \"#utility.yul\":35240:35242   */\n      0x20\n        /* \"#utility.yul\":35229:35238   */\n      dup3\n        /* \"#utility.yul\":35225:35243   */\n      add\n        /* \"#utility.yul\":35217:35243   */\n      swap1\n      pop\n        /* \"#utility.yul\":35289:35298   */\n      dup2\n        /* \"#utility.yul\":35283:35287   */\n      dup2\n        /* \"#utility.yul\":35279:35299   */\n      sub\n        /* \"#utility.yul\":35275:35276   */\n      0x00\n        /* \"#utility.yul\":35264:35273   */\n      dup4\n        /* \"#utility.yul\":35260:35277   */\n      add\n        /* \"#utility.yul\":35253:35300   */\n      mstore\n        /* \"#utility.yul\":35317:35448   */\n      tag_738\n        /* \"#utility.yul\":35443:35447   */\n      dup2\n        /* \"#utility.yul\":35317:35448   */\n      tag_419\n      jump\t// in\n    tag_738:\n        /* \"#utility.yul\":35309:35448   */\n      swap1\n      pop\n        /* \"#utility.yul\":35036:35455   */\n      swap2\n      swap1\n      pop\n      jump\t// out\n        /* \"#utility.yul\":35461:35631   */\n    tag_420:\n        /* \"#utility.yul\":35601:35623   */\n      0x5061757361626c653a206e6f7420706175736564000000000000000000000000\n        /* \"#utility.yul\":35597:35598   */\n      0x00\n        /* \"#utility.yul\":35589:35595   */\n      dup3\n        /* \"#utility.yul\":35585:35599   */\n      add\n        /* \"#utility.yul\":35578:35624   */\n      mstore\n        /* \"#utility.yul\":35461:35631   */\n      pop\n      jump\t// out\n        /* \"#utility.yul\":35637:36003   */\n    tag_421:\n        /* \"#utility.yul\":35779:35782   */\n      0x00\n        /* \"#utility.yul\":35800:35867   */\n      tag_741\n        /* \"#utility.yul\":35864:35866   */\n      0x14\n        /* \"#utility.yul\":35859:35862   */\n      dup4\n        /* \"#utility.yul\":35800:35867   */\n      tag_362\n      jump\t// in\n    tag_741:\n        /* \"#utility.yul\":35793:35867   */\n      swap2\n      pop\n        /* \"#utility.yul\":35876:35969   */\n      tag_742\n        /* \"#utility.yul\":35965:35968   */\n      dup3\n        /* \"#utility.yul\":35876:35969   */\n      tag_420\n      jump\t// in\n    tag_742:\n        /* \"#utility.yul\":35994:35996   */\n      0x20\n        /* \"#utility.yul\":35989:35992   */\n      dup3\n        /* \"#utility.yul\":35985:35997   */\n      add\n        /* \"#utility.yul\":35978:35997   */\n      swap1\n      pop\n        /* \"#utility.yul\":35637:36003   */\n      swap2\n      swap1\n      pop\n      jump\t// out\n        /* \"#utility.yul\":36009:36428   */\n    tag_347:\n        /* \"#utility.yul\":36175:36179   */\n      0x00\n        /* \"#utility.yul\":36213:36215   */\n      0x20\n        /* \"#utility.yul\":36202:36211   */\n      dup3\n        /* \"#utility.yul\":36198:36216   */\n      add\n        /* \"#utility.yul\":36190:36216   */\n      swap1\n      pop\n        /* \"#utility.yul\":36262:36271   */\n      dup2\n        /* \"#utility.yul\":36256:36260   */\n      dup2\n        /* \"#utility.yul\":36252:36272   */\n      sub\n        /* \"#utility.yul\":36248:36249   */\n      0x00\n        /* \"#utility.yul\":36237:36246   */\n      dup4\n        /* \"#utility.yul\":36233:36250   */\n      add\n        /* \"#utility.yul\":36226:36273   */\n      mstore\n        /* \"#utility.yul\":36290:36421   */\n      tag_744\n        /* \"#utility.yul\":36416:36420   */\n      dup2\n        /* \"#utility.yul\":36290:36421   */\n      tag_421\n      jump\t// in\n    tag_744:\n        /* \"#utility.yul\":36282:36421   */\n      swap1\n      pop\n        /* \"#utility.yul\":36009:36428   */\n      swap2\n      swap1\n      pop\n      jump\t// out\n\n    auxdata: 0xa26469706673582212203c170280be6d8d5c0897014cef0bd6c6552a7dde82c105933a58550f32b3090f64736f6c63430008140033\n}\n",
				"bytecode": {
					"linkReferences": {},
					"object": "608060405234801562000010575f80fd5b5060405162003229380380620032298339818101604052810190620000369190620002fe565b805f73ffffffffffffffffffffffffffffffffffffffff168173ffffffffffffffffffffffffffffffffffffffff1603620000aa575f6040517f1e4fbdf7000000000000000000000000000000000000000000000000000000008152600401620000a191906200033f565b60405180910390fd5b620000bb81620000f360201b60201c565b505f8060146101000a81548160ff02191690831515021790555060018081905550620000ec620001b460201b60201c565b50620003d8565b5f805f9054906101000a900473ffffffffffffffffffffffffffffffffffffffff169050815f806101000a81548173ffffffffffffffffffffffffffffffffffffffff021916908373ffffffffffffffffffffffffffffffffffffffff1602179055508173ffffffffffffffffffffffffffffffffffffffff168173ffffffffffffffffffffffffffffffffffffffff167f8be0079c531659141344cd1fd0a4f28419497f9722a3daafe3b4186f6b6457e060405160405180910390a35050565b620001c46200022860201b60201c565b60015f60146101000a81548160ff0219169083151502179055507f62e78cea01bee320cd4e420270b5ea74000d11b0c9f74754ebdbfc544b05a2586200020f6200027d60201b60201c565b6040516200021e91906200033f565b60405180910390a1565b620002386200028460201b60201c565b156200027b576040517f08c379a00000000000000000000000000000000000000000000000000000000081526004016200027290620003b8565b60405180910390fd5b565b5f33905090565b5f8060149054906101000a900460ff16905090565b5f80fd5b5f73ffffffffffffffffffffffffffffffffffffffff82169050919050565b5f620002c8826200029d565b9050919050565b620002da81620002bc565b8114620002e5575f80fd5b50565b5f81519050620002f881620002cf565b92915050565b5f6020828403121562000316576200031562000299565b5b5f6200032584828501620002e8565b91505092915050565b6200033981620002bc565b82525050565b5f602082019050620003545f8301846200032e565b92915050565b5f82825260208201905092915050565b7f5061757361626c653a20706175736564000000000000000000000000000000005f82015250565b5f620003a06010836200035a565b9150620003ad826200036a565b602082019050919050565b5f6020820190508181035f830152620003d18162000392565b9050919050565b612e4380620003e65f395ff3fe608060405234801561000f575f80fd5b506004361061011e575f3560e01c8063598af9e7116100ab5780638cb0a5111161006f5780638cb0a511146102ff5780638da5cb5b1461032f578063ad324cce1461034d578063f2fde38b14610369578063f8548e36146103855761011e565b8063598af9e71461027f5780635c975abb146102af578063715018a6146102cd5780638456cb59146102d757806385e3f997146102e15761011e565b8063277b9efe116100f2578063277b9efe146101d15780633f4ba83a146101ef5780634a03fa83146101f95780635258ff131461021957806357a858fc1461024c5761011e565b8062fdd58e1461012257806317ba1245146101525780631c0f12b61461016e5780631d92d3b91461019e575b5f80fd5b61013c60048036038101906101379190611c84565b6103b5565b6040516101499190611cd1565b60405180910390f35b61016c60048036038101906101679190611cea565b6103d5565b005b61018860048036038101906101839190611d9b565b610647565b6040516101959190611e19565b60405180910390f35b6101b860048036038101906101b39190611e32565b61093e565b6040516101c89493929190611ee7565b60405180910390f35b6101d9610a98565b6040516101e69190611f47565b60405180910390f35b6101f7610abd565b005b610201610acf565b60405161021093929190611f60565b60405180910390f35b610233600480360381019061022e9190611f95565b610aea565b6040516102439493929190611fe5565b60405180910390f35b61026660048036038101906102619190611e32565b610b75565b6040516102769493929190611ee7565b60405180910390f35b61029960048036038101906102949190612028565b610cb9565b6040516102a69190611cd1565b60405180910390f35b6102b7610ce4565b6040516102c49190611e19565b60405180910390f35b6102d5610cf9565b005b6102df610d0c565b005b6102e9610d1e565b6040516102f69190611cd1565b60405180910390f35b61031960048036038101906103149190612078565b610d25565b6040516103269190611e19565b60405180910390f35b610337610efb565b6040516103449190611f47565b60405180910390f35b610367600480360381019061036291906120c8565b610f22565b005b610383600480360381019061037e91906120c8565b610fe3565b005b61039f600480360381019061039a9190612078565b611067565b6040516103ac9190611e19565b60405180910390f35b6003602052815f5260405f20602052805f5260405f205f91509150505481565b60055f9054906101000a900473ffffffffffffffffffffffffffffffffffffffff1673ffffffffffffffffffffffffffffffffffffffff163373ffffffffffffffffffffffffffffffffffffffff1614610464576040517f08c379a000000000000000000000000000000000000000000000000000000000815260040161045b9061213d565b60405180910390fd5b61046c6111f6565b60025f8981526020019081526020015f206003015f9054906101000a900460ff16156104cd576040517f08c379a00000000000000000000000000000000000000000000000000000000081526004016104c4906121a5565b60405180910390fd5b60648183856104dc91906121f0565b6104e691906121f0565b1115610527576040517f08c379a000000000000000000000000000000000000000000000000000000000815260040161051e9061226d565b60405180910390fd5b5f610530610efb565b90508573ffffffffffffffffffffffffffffffffffffffff168173ffffffffffffffffffffffffffffffffffffffff16036105a0576040517f08c379a0000000000000000000000000000000000000000000000000000000008152600401610597906122fb565b60405180910390fd5b6105a989611240565b5f6105b58585856112fb565b90506105c58a838a8a8a866113b3565b897fd21d9e01a16a8c5d426f26258ec2882c31787698aba6246e133cc3692a370b0b60025f8d81526020019081526020015f205f0160025f8e81526020019081526020015f20600101845f015185602001518660400151876060015160405161063396959493929190612409565b60405180910390a250505050505050505050565b5f8460025f8281526020019081526020015f206003015f9054906101000a900460ff166106a9576040517f08c379a00000000000000000000000000000000000000000000000000000000081526004016106a0906124e6565b60405180910390fd5b6106b16111f6565b6106b9611429565b5f73ffffffffffffffffffffffffffffffffffffffff168473ffffffffffffffffffffffffffffffffffffffff1603610727576040517f08c379a000000000000000000000000000000000000000000000000000000000815260040161071e9061254e565b60405180910390fd5b8260035f8773ffffffffffffffffffffffffffffffffffffffff1673ffffffffffffffffffffffffffffffffffffffff1681526020019081526020015f205f8881526020019081526020015f205410156107b6576040517f08c379a00000000000000000000000000000000000000000000000000000000081526004016107ad906125b6565b60405180910390fd5b8260045f8773ffffffffffffffffffffffffffffffffffffffff1673ffffffffffffffffffffffffffffffffffffffff1681526020019081526020015f205f3373ffffffffffffffffffffffffffffffffffffffff1673ffffffffffffffffffffffffffffffffffffffff1681526020019081526020015f205f8881526020019081526020015f20541015610880576040517f08c379a00000000000000000000000000000000000000000000000000000000081526004016108779061261e565b60405180910390fd5b8260045f8773ffffffffffffffffffffffffffffffffffffffff1673ffffffffffffffffffffffffffffffffffffffff1681526020019081526020015f205f3373ffffffffffffffffffffffffffffffffffffffff1673ffffffffffffffffffffffffffffffffffffffff1681526020019081526020015f205f8881526020019081526020015f205f828254610916919061263c565b9250508190555061092986868686611478565b60019150610935611672565b50949350505050565b6060805f805f60025f8781526020019081526020015f209050805f01816001018260020154836003015f9054906101000a900460ff1683805461098090612346565b80601f01602080910402602001604051908101604052809291908181526020018280546109ac90612346565b80156109f75780601f106109ce576101008083540402835291602001916109f7565b820191905f5260205f20905b8154815290600101906020018083116109da57829003601f168201915b50505050509350828054610a0a90612346565b80601f0160208091040260200160405190810160405280929190818152602001828054610a3690612346565b8015610a815780601f10610a5857610100808354040283529160200191610a81565b820191905f5260205f20905b815481529060010190602001808311610a6457829003601f168201915b505050505092509450945094509450509193509193565b60055f9054906101000a900473ffffffffffffffffffffffffffffffffffffffff1681565b610ac561167b565b610acd611702565b565b5f805f610ada610efb565b9250825f80925092509250909192565b5f805f80606487620186a0610aff919061266f565b610b0991906126dd565b9350606486620186a0610b1c919061266f565b610b2691906126dd565b9250606485620186a0610b39919061266f565b610b4391906126dd565b9150818385620186a0610b56919061263c565b610b60919061263c565b610b6a919061263c565b905093509350935093565b6002602052805f5260405f205f91509050805f018054610b9490612346565b80601f0160208091040260200160405190810160405280929190818152602001828054610bc090612346565b8015610c0b5780601f10610be257610100808354040283529160200191610c0b565b820191905f5260205f20905b815481529060010190602001808311610bee57829003601f168201915b505050505090806001018054610c2090612346565b80601f0160208091040260200160405190810160405280929190818152602001828054610c4c90612346565b8015610c975780601f10610c6e57610100808354040283529160200191610c97565b820191905f5260205f20905b815481529060010190602001808311610c7a57829003601f168201915b505050505090806002015490806003015f9054906101000a900460ff16905084565b6004602052825f5260405f20602052815f5260405f20602052805f5260405f205f9250925050505481565b5f8060149054906101000a900460ff16905090565b610d0161167b565b610d0a5f611763565b565b610d1461167b565b610d1c611824565b565b620186a081565b5f8360025f8281526020019081526020015f206003015f9054906101000a900460ff16610d87576040517f08c379a0000000000000000000000000000000000000000000000000000000008152600401610d7e906124e6565b60405180910390fd5b610d8f6111f6565b5f73ffffffffffffffffffffffffffffffffffffffff168473ffffffffffffffffffffffffffffffffffffffff1603610dfd576040517f08c379a0000000000000000000000000000000000000000000000000000000008152600401610df490612757565b60405180910390fd5b8260045f3373ffffffffffffffffffffffffffffffffffffffff1673ffffffffffffffffffffffffffffffffffffffff1681526020019081526020015f205f8673ffffffffffffffffffffffffffffffffffffffff1673ffffffffffffffffffffffffffffffffffffffff1681526020019081526020015f205f8781526020019081526020015f20819055508373ffffffffffffffffffffffffffffffffffffffff163373ffffffffffffffffffffffffffffffffffffffff16867f69e4aaf23f9318cf40839ac20453d8fbedaac2955eb08a27ae5189cc7192571686604051610ee79190611cd1565b60405180910390a460019150509392505050565b5f805f9054906101000a900473ffffffffffffffffffffffffffffffffffffffff16905090565b610f2a61167b565b5f73ffffffffffffffffffffffffffffffffffffffff168173ffffffffffffffffffffffffffffffffffffffff1603610f98576040517f08c379a0000000000000000000000000000000000000000000000000000000008152600401610f8f906127bf565b60405180910390fd5b8060055f6101000a81548173ffffffffffffffffffffffffffffffffffffffff021916908373ffffffffffffffffffffffffffffffffffffffff160217905550610fe0611702565b50565b610feb61167b565b5f73ffffffffffffffffffffffffffffffffffffffff168173ffffffffffffffffffffffffffffffffffffffff160361105b575f6040517f1e4fbdf70000000000000000000000000000000000000000000000000000000081526004016110529190611f47565b60405180910390fd5b61106481611763565b50565b5f8360025f8281526020019081526020015f206003015f9054906101000a900460ff166110c9576040517f08c379a00000000000000000000000000000000000000000000000000000000081526004016110c0906124e6565b60405180910390fd5b6110d16111f6565b6110d9611429565b5f73ffffffffffffffffffffffffffffffffffffffff168473ffffffffffffffffffffffffffffffffffffffff1603611147576040517f08c379a000000000000000000000000000000000000000000000000000000000815260040161113e9061254e565b60405180910390fd5b8260035f3373ffffffffffffffffffffffffffffffffffffffff1673ffffffffffffffffffffffffffffffffffffffff1681526020019081526020015f205f8781526020019081526020015f205410156111d6576040517f08c379a00000000000000000000000000000000000000000000000000000000081526004016111cd906125b6565b60405180910390fd5b6111e285338686611478565b600191506111ee611672565b509392505050565b6111fe610ce4565b1561123e576040517f08c379a000000000000000000000000000000000000000000000000000000000815260040161123590612827565b60405180910390fd5b565b5f61124a82611886565b60405160200161125a9190612913565b60405160208183030381529060405290505f61127583611886565b6040516020016112859190612989565b60405160208183030381529060405290505f60025f8581526020019081526020015f20905082815f0190816112ba9190612b62565b50818160010190816112cc9190612b62565b506001816003015f6101000a81548160ff021916908315150217905550620186a0816002018190555050505050565b611303611bcf565b5f606485620186a0611315919061266f565b61131f91906126dd565b90505f606485620186a0611333919061266f565b61133d91906126dd565b90505f606485620186a0611351919061266f565b61135b91906126dd565b90505f818385620186a061136f919061263c565b611379919061263c565b611383919061263c565b90506040518060800160405280858152602001848152602001838152602001828152509450505050509392505050565b5f815f015111156113cd576113cc8686835f01516119df565b5b5f816020015111156113e9576113e8868583602001516119df565b5b5f8160400151111561140557611404868483604001516119df565b5b5f8160600151111561142157611420868383606001516119df565b5b505050505050565b60026001540361146e576040517f08c379a000000000000000000000000000000000000000000000000000000000815260040161146590612c7b565b60405180910390fd5b6002600181905550565b8060035f8573ffffffffffffffffffffffffffffffffffffffff1673ffffffffffffffffffffffffffffffffffffffff1681526020019081526020015f205f8681526020019081526020015f205f8282546114d3919061263c565b925050819055508060035f8473ffffffffffffffffffffffffffffffffffffffff1673ffffffffffffffffffffffffffffffffffffffff1681526020019081526020015f205f8681526020019081526020015f205f82825461153591906121f0565b925050819055508060025f8681526020019081526020015f206004015f8573ffffffffffffffffffffffffffffffffffffffff1673ffffffffffffffffffffffffffffffffffffffff1681526020019081526020015f205f82825461159a919061263c565b925050819055508060025f8681526020019081526020015f206004015f8473ffffffffffffffffffffffffffffffffffffffff1673ffffffffffffffffffffffffffffffffffffffff1681526020019081526020015f205f8282546115ff91906121f0565b925050819055508173ffffffffffffffffffffffffffffffffffffffff168373ffffffffffffffffffffffffffffffffffffffff16857ff2dbd98d79f00f7aff338b824931d607bfcc63d47307162470f25a055102d3b0846040516116649190611cd1565b60405180910390a450505050565b60018081905550565b611683611b7f565b73ffffffffffffffffffffffffffffffffffffffff166116a1610efb565b73ffffffffffffffffffffffffffffffffffffffff1614611700576116c4611b7f565b6040517f118cdaa70000000000000000000000000000000000000000000000000000000081526004016116f79190611f47565b60405180910390fd5b565b61170a611b86565b5f8060146101000a81548160ff0219169083151502179055507f5db9ee0a495bf2e6ff9c91a7834c1ba4fdd244a5e8aa4e537bd38aeae4b073aa61174c611b7f565b6040516117599190611f47565b60405180910390a1565b5f805f9054906101000a900473ffffffffffffffffffffffffffffffffffffffff169050815f806101000a81548173ffffffffffffffffffffffffffffffffffffffff021916908373ffffffffffffffffffffffffffffffffffffffff1602179055508173ffffffffffffffffffffffffffffffffffffffff168173ffffffffffffffffffffffffffffffffffffffff167f8be0079c531659141344cd1fd0a4f28419497f9722a3daafe3b4186f6b6457e060405160405180910390a35050565b61182c6111f6565b60015f60146101000a81548160ff0219169083151502179055507f62e78cea01bee320cd4e420270b5ea74000d11b0c9f74754ebdbfc544b05a25861186f611b7f565b60405161187c9190611f47565b60405180910390a1565b60605f82036118cc576040518060400160405280600181526020017f300000000000000000000000000000000000000000000000000000000000000081525090506119da565b5f8290505f5b5f82146118fb5780806118e490612c99565b915050600a826118f491906126dd565b91506118d2565b5f8167ffffffffffffffff811115611916576119156129aa565b5b6040519080825280601f01601f1916602001820160405280156119485781602001600182028036833780820191505090505b5090505b5f85146119d357600182611960919061263c565b9150600a8561196f9190612ce0565b603061197b91906121f0565b60f81b81838151811061199157611990612d10565b5b60200101907effffffffffffffffffffffffffffffffffffffffffffffffffffffffffffff191690815f1a905350600a856119cc91906126dd565b945061194c565b8093505050505b919050565b5f73ffffffffffffffffffffffffffffffffffffffff168273ffffffffffffffffffffffffffffffffffffffff1603611a4d576040517f08c379a0000000000000000000000000000000000000000000000000000000008152600401611a4490612d87565b60405180910390fd5b8060035f8473ffffffffffffffffffffffffffffffffffffffff1673ffffffffffffffffffffffffffffffffffffffff1681526020019081526020015f205f8581526020019081526020015f205f828254611aa891906121f0565b925050819055508060025f8581526020019081526020015f206004015f8473ffffffffffffffffffffffffffffffffffffffff1673ffffffffffffffffffffffffffffffffffffffff1681526020019081526020015f205f828254611b0d91906121f0565b925050819055508173ffffffffffffffffffffffffffffffffffffffff165f73ffffffffffffffffffffffffffffffffffffffff16847ff2dbd98d79f00f7aff338b824931d607bfcc63d47307162470f25a055102d3b084604051611b729190611cd1565b60405180910390a4505050565b5f33905090565b611b8e610ce4565b611bcd576040517f08c379a0000000000000000000000000000000000000000000000000000000008152600401611bc490612def565b60405180910390fd5b565b60405180608001604052805f81526020015f81526020015f81526020015f81525090565b5f80fd5b5f73ffffffffffffffffffffffffffffffffffffffff82169050919050565b5f611c2082611bf7565b9050919050565b611c3081611c16565b8114611c3a575f80fd5b50565b5f81359050611c4b81611c27565b92915050565b5f819050919050565b611c6381611c51565b8114611c6d575f80fd5b50565b5f81359050611c7e81611c5a565b92915050565b5f8060408385031215611c9a57611c99611bf3565b5b5f611ca785828601611c3d565b9250506020611cb885828601611c70565b9150509250929050565b611ccb81611c51565b82525050565b5f602082019050611ce45f830184611cc2565b92915050565b5f805f805f805f80610100898b031215611d0757611d06611bf3565b5b5f611d148b828c01611c70565b9850506020611d258b828c01611c3d565b9750506040611d368b828c01611c3d565b9650506060611d478b828c01611c3d565b9550506080611d588b828c01611c3d565b94505060a0611d698b828c01611c70565b93505060c0611d7a8b828c01611c70565b92505060e0611d8b8b828c01611c70565b9150509295985092959890939650565b5f805f8060808587031215611db357611db2611bf3565b5b5f611dc087828801611c70565b9450506020611dd187828801611c3d565b9350506040611de287828801611c3d565b9250506060611df387828801611c70565b91505092959194509250565b5f8115159050919050565b611e1381611dff565b82525050565b5f602082019050611e2c5f830184611e0a565b92915050565b5f60208284031215611e4757611e46611bf3565b5b5f611e5484828501611c70565b91505092915050565b5f81519050919050565b5f82825260208201905092915050565b5f5b83811015611e94578082015181840152602081019050611e79565b5f8484015250505050565b5f601f19601f8301169050919050565b5f611eb982611e5d565b611ec38185611e67565b9350611ed3818560208601611e77565b611edc81611e9f565b840191505092915050565b5f6080820190508181035f830152611eff8187611eaf565b90508181036020830152611f138186611eaf565b9050611f226040830185611cc2565b611f2f6060830184611e0a565b95945050505050565b611f4181611c16565b82525050565b5f602082019050611f5a5f830184611f38565b92915050565b5f606082019050611f735f830186611f38565b611f806020830185611cc2565b611f8d6040830184611cc2565b949350505050565b5f805f60608486031215611fac57611fab611bf3565b5b5f611fb986828701611c70565b9350506020611fca86828701611c70565b9250506040611fdb86828701611c70565b9150509250925092565b5f608082019050611ff85f830187611cc2565b6120056020830186611cc2565b6120126040830185611cc2565b61201f6060830184611cc2565b95945050505050565b5f805f6060848603121561203f5761203e611bf3565b5b5f61204c86828701611c3d565b935050602061205d86828701611c3d565b925050604061206e86828701611c70565b9150509250925092565b5f805f6060848603121561208f5761208e611bf3565b5b5f61209c86828701611c70565b93505060206120ad86828701611c3d565b92505060406120be86828701611c70565b9150509250925092565b5f602082840312156120dd576120dc611bf3565b5b5f6120ea84828501611c3d565b91505092915050565b7f4f6e6c79205061696e74696e674e465420636f6e7472616374000000000000005f82015250565b5f612127601983611e67565b9150612132826120f3565b602082019050919050565b5f6020820190508181035f8301526121548161211b565b9050919050565b7f53686172657320616c72656164792065786973740000000000000000000000005f82015250565b5f61218f601483611e67565b915061219a8261215b565b602082019050919050565b5f6020820190508181035f8301526121bc81612183565b9050919050565b7f4e487b71000000000000000000000000000000000000000000000000000000005f52601160045260245ffd5b5f6121fa82611c51565b915061220583611c51565b925082820190508082111561221d5761221c6121c3565b5b92915050565b7f496e76616c69642070657263656e7461676573000000000000000000000000005f82015250565b5f612257601383611e67565b915061226282612223565b602082019050919050565b5f6020820190508181035f8301526122848161224b565b9050919050565b7f506c6174666f726d2061646d696e2063616e6e6f742062652067616c6c6572795f8201527f206f776e65720000000000000000000000000000000000000000000000000000602082015250565b5f6122e5602683611e67565b91506122f08261228b565b604082019050919050565b5f6020820190508181035f830152612312816122d9565b9050919050565b7f4e487b71000000000000000000000000000000000000000000000000000000005f52602260045260245ffd5b5f600282049050600182168061235d57607f821691505b6020821081036123705761236f612319565b5b50919050565b5f819050815f5260205f209050919050565b5f815461239481612346565b61239e8186611e67565b9450600182165f81146123b857600181146123ce57612400565b60ff198316865281151560200286019350612400565b6123d785612376565b5f5b838110156123f8578154818901526001820191506020810190506123d9565b808801955050505b50505092915050565b5f60c0820190508181035f8301526124218189612388565b905081810360208301526124358188612388565b90506124446040830187611cc2565b6124516060830186611cc2565b61245e6080830185611cc2565b61246b60a0830184611cc2565b979650505050505050565b7f53686172657320646f6e277420657869737420666f722074686973207061696e5f8201527f74696e6700000000000000000000000000000000000000000000000000000000602082015250565b5f6124d0602483611e67565b91506124db82612476565b604082019050919050565b5f6020820190508181035f8301526124fd816124c4565b9050919050565b7f5472616e7366657220746f207a65726f206164647265737300000000000000005f82015250565b5f612538601883611e67565b915061254382612504565b602082019050919050565b5f6020820190508181035f8301526125658161252c565b9050919050565b7f496e73756666696369656e742062616c616e63650000000000000000000000005f82015250565b5f6125a0601483611e67565b91506125ab8261256c565b602082019050919050565b5f6020820190508181035f8301526125cd81612594565b9050919050565b7f496e73756666696369656e7420616c6c6f77616e6365000000000000000000005f82015250565b5f612608601683611e67565b9150612613826125d4565b602082019050919050565b5f6020820190508181035f830152612635816125fc565b9050919050565b5f61264682611c51565b915061265183611c51565b9250828203905081811115612669576126686121c3565b5b92915050565b5f61267982611c51565b915061268483611c51565b925082820261269281611c51565b915082820484148315176126a9576126a86121c3565b5b5092915050565b7f4e487b71000000000000000000000000000000000000000000000000000000005f52601260045260245ffd5b5f6126e782611c51565b91506126f283611c51565b925082612702576127016126b0565b5b828204905092915050565b7f417070726f766520746f207a65726f20616464726573730000000000000000005f82015250565b5f612741601783611e67565b915061274c8261270d565b602082019050919050565b5f6020820190508181035f83015261276e81612735565b9050919050565b7f496e76616c6964206164647265737300000000000000000000000000000000005f82015250565b5f6127a9600f83611e67565b91506127b482612775565b602082019050919050565b5f6020820190508181035f8301526127d68161279d565b9050919050565b7f5061757361626c653a20706175736564000000000000000000000000000000005f82015250565b5f612811601083611e67565b915061281c826127dd565b602082019050919050565b5f6020820190508181035f83015261283e81612805565b9050919050565b5f81905092915050565b7f5061696e74696e672000000000000000000000000000000000000000000000005f82015250565b5f612883600983612845565b915061288e8261284f565b600982019050919050565b5f6128a382611e5d565b6128ad8185612845565b93506128bd818560208601611e77565b80840191505092915050565b7f20536861726573000000000000000000000000000000000000000000000000005f82015250565b5f6128fd600783612845565b9150612908826128c9565b600782019050919050565b5f61291d82612877565b91506129298284612899565b9150612934826128f1565b915081905092915050565b7f5041494e540000000000000000000000000000000000000000000000000000005f82015250565b5f612973600583612845565b915061297e8261293f565b600582019050919050565b5f61299382612967565b915061299f8284612899565b915081905092915050565b7f4e487b71000000000000000000000000000000000000000000000000000000005f52604160045260245ffd5b5f6020601f8301049050919050565b5f82821b905092915050565b5f60088302612a217fffffffffffffffffffffffffffffffffffffffffffffffffffffffffffffffff826129e6565b612a2b86836129e6565b95508019841693508086168417925050509392505050565b5f819050919050565b5f612a66612a61612a5c84611c51565b612a43565b611c51565b9050919050565b5f819050919050565b612a7f83612a4c565b612a93612a8b82612a6d565b8484546129f2565b825550505050565b5f90565b612aa7612a9b565b612ab2818484612a76565b505050565b5b81811015612ad557612aca5f82612a9f565b600181019050612ab8565b5050565b601f821115612b1a57612aeb81612376565b612af4846129d7565b81016020851015612b03578190505b612b17612b0f856129d7565b830182612ab7565b50505b505050565b5f82821c905092915050565b5f612b3a5f1984600802612b1f565b1980831691505092915050565b5f612b528383612b2b565b9150826002028217905092915050565b612b6b82611e5d565b67ffffffffffffffff811115612b8457612b836129aa565b5b612b8e8254612346565b612b99828285612ad9565b5f60209050601f831160018114612bca575f8415612bb8578287015190505b612bc28582612b47565b865550612c29565b601f198416612bd886612376565b5f5b82811015612bff57848901518255600182019150602085019450602081019050612bda565b86831015612c1c5784890151612c18601f891682612b2b565b8355505b6001600288020188555050505b505050505050565b7f5265656e7472616e637947756172643a207265656e7472616e742063616c6c005f82015250565b5f612c65601f83611e67565b9150612c7082612c31565b602082019050919050565b5f6020820190508181035f830152612c9281612c59565b9050919050565b5f612ca382611c51565b91507fffffffffffffffffffffffffffffffffffffffffffffffffffffffffffffffff8203612cd557612cd46121c3565b5b600182019050919050565b5f612cea82611c51565b9150612cf583611c51565b925082612d0557612d046126b0565b5b828206905092915050565b7f4e487b71000000000000000000000000000000000000000000000000000000005f52603260045260245ffd5b7f4d696e7420746f207a65726f20616464726573730000000000000000000000005f82015250565b5f612d71601483611e67565b9150612d7c82612d3d565b602082019050919050565b5f6020820190508181035f830152612d9e81612d65565b9050919050565b7f5061757361626c653a206e6f74207061757365640000000000000000000000005f82015250565b5f612dd9601483611e67565b9150612de482612da5565b602082019050919050565b5f6020820190508181035f830152612e0681612dcd565b905091905056fea26469706673582212203c170280be6d8d5c0897014cef0bd6c6552a7dde82c105933a58550f32b3090f64736f6c63430008140033",
					"opcodes": "PUSH1 0x80 PUSH1 0x40 MSTORE CALLVALUE DUP1 ISZERO PUSH3 0x10 JUMPI PUSH0 DUP1 REVERT JUMPDEST POP PUSH1 0x40 MLOAD PUSH3 0x3229 CODESIZE SUB DUP1 PUSH3 0x3229 DUP4 CODECOPY DUP2 DUP2 ADD PUSH1 0x40 MSTORE DUP2 ADD SWAP1 PUSH3 0x36 SWAP2 SWAP1 PUSH3 0x2FE JUMP JUMPDEST DUP1 PUSH0 PUSH20 0xFFFFFFFFFFFFFFFFFFFFFFFFFFFFFFFFFFFFFFFF AND DUP2 PUSH20 0xFFFFFFFFFFFFFFFFFFFFFFFFFFFFFFFFFFFFFFFF AND SUB PUSH3 0xAA JUMPI PUSH0 PUSH1 0x40 MLOAD PUSH32 0x1E4FBDF700000000000000000000000000000000000000000000000000000000 DUP2 MSTORE PUSH1 0x4 ADD PUSH3 0xA1 SWAP2 SWAP1 PUSH3 0x33F JUMP JUMPDEST PUSH1 0x40 MLOAD DUP1 SWAP2 SUB SWAP1 REVERT JUMPDEST PUSH3 0xBB DUP2 PUSH3 0xF3 PUSH1 0x20 SHL PUSH1 0x20 SHR JUMP JUMPDEST POP PUSH0 DUP1 PUSH1 0x14 PUSH2 0x100 EXP DUP2 SLOAD DUP2 PUSH1 0xFF MUL NOT AND SWAP1 DUP4 ISZERO ISZERO MUL OR SWAP1 SSTORE POP PUSH1 0x1 DUP1 DUP2 SWAP1 SSTORE POP PUSH3 0xEC PUSH3 0x1B4 PUSH1 0x20 SHL PUSH1 0x20 SHR JUMP JUMPDEST POP PUSH3 0x3D8 JUMP JUMPDEST PUSH0 DUP1 PUSH0 SWAP1 SLOAD SWAP1 PUSH2 0x100 EXP SWAP1 DIV PUSH20 0xFFFFFFFFFFFFFFFFFFFFFFFFFFFFFFFFFFFFFFFF AND SWAP1 POP DUP2 PUSH0 DUP1 PUSH2 0x100 EXP DUP2 SLOAD DUP2 PUSH20 0xFFFFFFFFFFFFFFFFFFFFFFFFFFFFFFFFFFFFFFFF MUL NOT AND SWAP1 DUP4 PUSH20 0xFFFFFFFFFFFFFFFFFFFFFFFFFFFFFFFFFFFFFFFF AND MUL OR SWAP1 SSTORE POP DUP2 PUSH20 0xFFFFFFFFFFFFFFFFFFFFFFFFFFFFFFFFFFFFFFFF AND DUP2 PUSH20 0xFFFFFFFFFFFFFFFFFFFFFFFFFFFFFFFFFFFFFFFF AND PUSH32 0x8BE0079C531659141344CD1FD0A4F28419497F9722A3DAAFE3B4186F6B6457E0 PUSH1 0x40 MLOAD PUSH1 0x40 MLOAD DUP1 SWAP2 SUB SWAP1 LOG3 POP POP JUMP JUMPDEST PUSH3 0x1C4 PUSH3 0x228 PUSH1 0x20 SHL PUSH1 0x20 SHR JUMP JUMPDEST PUSH1 0x1 PUSH0 PUSH1 0x14 PUSH2 0x100 EXP DUP2 SLOAD DUP2 PUSH1 0xFF MUL NOT AND SWAP1 DUP4 ISZERO ISZERO MUL OR SWAP1 SSTORE POP PUSH32 0x62E78CEA01BEE320CD4E420270B5EA74000D11B0C9F74754EBDBFC544B05A258 PUSH3 0x20F PUSH3 0x27D PUSH1 0x20 SHL PUSH1 0x20 SHR JUMP JUMPDEST PUSH1 0x40 MLOAD PUSH3 0x21E SWAP2 SWAP1 PUSH3 0x33F JUMP JUMPDEST PUSH1 0x40 MLOAD DUP1 SWAP2 SUB SWAP1 LOG1 JUMP JUMPDEST PUSH3 0x238 PUSH3 0x284 PUSH1 0x20 SHL PUSH1 0x20 SHR JUMP JUMPDEST ISZERO PUSH3 0x27B JUMPI PUSH1 0x40 MLOAD PUSH32 0x8C379A000000000000000000000000000000000000000000000000000000000 DUP2 MSTORE PUSH1 0x4 ADD PUSH3 0x272 SWAP1 PUSH3 0x3B8 JUMP JUMPDEST PUSH1 0x40 MLOAD DUP1 SWAP2 SUB SWAP1 REVERT JUMPDEST JUMP JUMPDEST PUSH0 CALLER SWAP1 POP SWAP1 JUMP JUMPDEST PUSH0 DUP1 PUSH1 0x14 SWAP1 SLOAD SWAP1 PUSH2 0x100 EXP SWAP1 DIV PUSH1 0xFF AND SWAP1 POP SWAP1 JUMP JUMPDEST PUSH0 DUP1 REVERT JUMPDEST PUSH0 PUSH20 0xFFFFFFFFFFFFFFFFFFFFFFFFFFFFFFFFFFFFFFFF DUP3 AND SWAP1 POP SWAP2 SWAP1 POP JUMP JUMPDEST PUSH0 PUSH3 0x2C8 DUP3 PUSH3 0x29D JUMP JUMPDEST SWAP1 POP SWAP2 SWAP1 POP JUMP JUMPDEST PUSH3 0x2DA DUP2 PUSH3 0x2BC JUMP JUMPDEST DUP2 EQ PUSH3 0x2E5 JUMPI PUSH0 DUP1 REVERT JUMPDEST POP JUMP JUMPDEST PUSH0 DUP2 MLOAD SWAP1 POP PUSH3 0x2F8 DUP2 PUSH3 0x2CF JUMP JUMPDEST SWAP3 SWAP2 POP POP JUMP JUMPDEST PUSH0 PUSH1 0x20 DUP3 DUP5 SUB SLT ISZERO PUSH3 0x316 JUMPI PUSH3 0x315 PUSH3 0x299 JUMP JUMPDEST JUMPDEST PUSH0 PUSH3 0x325 DUP5 DUP3 DUP6 ADD PUSH3 0x2E8 JUMP JUMPDEST SWAP2 POP POP SWAP3 SWAP2 POP POP JUMP JUMPDEST PUSH3 0x339 DUP2 PUSH3 0x2BC JUMP JUMPDEST DUP3 MSTORE POP POP JUMP JUMPDEST PUSH0 PUSH1 0x20 DUP3 ADD SWAP1 POP PUSH3 0x354 PUSH0 DUP4 ADD DUP5 PUSH3 0x32E JUMP JUMPDEST SWAP3 SWAP2 POP POP JUMP JUMPDEST PUSH0 DUP3 DUP3 MSTORE PUSH1 0x20 DUP3 ADD SWAP1 POP SWAP3 SWAP2 POP POP JUMP JUMPDEST PUSH32 0x5061757361626C653A2070617573656400000000000000000000000000000000 PUSH0 DUP3 ADD MSTORE POP JUMP JUMPDEST PUSH0 PUSH3 0x3A0 PUSH1 0x10 DUP4 PUSH3 0x35A JUMP JUMPDEST SWAP2 POP PUSH3 0x3AD DUP3 PUSH3 0x36A JUMP JUMPDEST PUSH1 0x20 DUP3 ADD SWAP1 POP SWAP2 SWAP1 POP JUMP JUMPDEST PUSH0 PUSH1 0x20 DUP3 ADD SWAP1 POP DUP2 DUP2 SUB PUSH0 DUP4 ADD MSTORE PUSH3 0x3D1 DUP2 PUSH3 0x392 JUMP JUMPDEST SWAP1 POP SWAP2 SWAP1 POP JUMP JUMPDEST PUSH2 0x2E43 DUP1 PUSH3 0x3E6 PUSH0 CODECOPY PUSH0 RETURN INVALID PUSH1 0x80 PUSH1 0x40 MSTORE CALLVALUE DUP1 ISZERO PUSH2 0xF JUMPI PUSH0 DUP1 REVERT JUMPDEST POP PUSH1 0x4 CALLDATASIZE LT PUSH2 0x11E JUMPI PUSH0 CALLDATALOAD PUSH1 0xE0 SHR DUP1 PUSH4 0x598AF9E7 GT PUSH2 0xAB JUMPI DUP1 PUSH4 0x8CB0A511 GT PUSH2 0x6F JUMPI DUP1 PUSH4 0x8CB0A511 EQ PUSH2 0x2FF JUMPI DUP1 PUSH4 0x8DA5CB5B EQ PUSH2 0x32F JUMPI DUP1 PUSH4 0xAD324CCE EQ PUSH2 0x34D JUMPI DUP1 PUSH4 0xF2FDE38B EQ PUSH2 0x369 JUMPI DUP1 PUSH4 0xF8548E36 EQ PUSH2 0x385 JUMPI PUSH2 0x11E JUMP JUMPDEST DUP1 PUSH4 0x598AF9E7 EQ PUSH2 0x27F JUMPI DUP1 PUSH4 0x5C975ABB EQ PUSH2 0x2AF JUMPI DUP1 PUSH4 0x715018A6 EQ PUSH2 0x2CD JUMPI DUP1 PUSH4 0x8456CB59 EQ PUSH2 0x2D7 JUMPI DUP1 PUSH4 0x85E3F997 EQ PUSH2 0x2E1 JUMPI PUSH2 0x11E JUMP JUMPDEST DUP1 PUSH4 0x277B9EFE GT PUSH2 0xF2 JUMPI DUP1 PUSH4 0x277B9EFE EQ PUSH2 0x1D1 JUMPI DUP1 PUSH4 0x3F4BA83A EQ PUSH2 0x1EF JUMPI DUP1 PUSH4 0x4A03FA83 EQ PUSH2 0x1F9 JUMPI DUP1 PUSH4 0x5258FF13 EQ PUSH2 0x219 JUMPI DUP1 PUSH4 0x57A858FC EQ PUSH2 0x24C JUMPI PUSH2 0x11E JUMP JUMPDEST DUP1 PUSH3 0xFDD58E EQ PUSH2 0x122 JUMPI DUP1 PUSH4 0x17BA1245 EQ PUSH2 0x152 JUMPI DUP1 PUSH4 0x1C0F12B6 EQ PUSH2 0x16E JUMPI DUP1 PUSH4 0x1D92D3B9 EQ PUSH2 0x19E JUMPI JUMPDEST PUSH0 DUP1 REVERT JUMPDEST PUSH2 0x13C PUSH1 0x4 DUP1 CALLDATASIZE SUB DUP2 ADD SWAP1 PUSH2 0x137 SWAP2 SWAP1 PUSH2 0x1C84 JUMP JUMPDEST PUSH2 0x3B5 JUMP JUMPDEST PUSH1 0x40 MLOAD PUSH2 0x149 SWAP2 SWAP1 PUSH2 0x1CD1 JUMP JUMPDEST PUSH1 0x40 MLOAD DUP1 SWAP2 SUB SWAP1 RETURN JUMPDEST PUSH2 0x16C PUSH1 0x4 DUP1 CALLDATASIZE SUB DUP2 ADD SWAP1 PUSH2 0x167 SWAP2 SWAP1 PUSH2 0x1CEA JUMP JUMPDEST PUSH2 0x3D5 JUMP JUMPDEST STOP JUMPDEST PUSH2 0x188 PUSH1 0x4 DUP1 CALLDATASIZE SUB DUP2 ADD SWAP1 PUSH2 0x183 SWAP2 SWAP1 PUSH2 0x1D9B JUMP JUMPDEST PUSH2 0x647 JUMP JUMPDEST PUSH1 0x40 MLOAD PUSH2 0x195 SWAP2 SWAP1 PUSH2 0x1E19 JUMP JUMPDEST PUSH1 0x40 MLOAD DUP1 SWAP2 SUB SWAP1 RETURN JUMPDEST PUSH2 0x1B8 PUSH1 0x4 DUP1 CALLDATASIZE SUB DUP2 ADD SWAP1 PUSH2 0x1B3 SWAP2 SWAP1 PUSH2 0x1E32 JUMP JUMPDEST PUSH2 0x93E JUMP JUMPDEST PUSH1 0x40 MLOAD PUSH2 0x1C8 SWAP5 SWAP4 SWAP3 SWAP2 SWAP1 PUSH2 0x1EE7 JUMP JUMPDEST PUSH1 0x40 MLOAD DUP1 SWAP2 SUB SWAP1 RETURN JUMPDEST PUSH2 0x1D9 PUSH2 0xA98 JUMP JUMPDEST PUSH1 0x40 MLOAD PUSH2 0x1E6 SWAP2 SWAP1 PUSH2 0x1F47 JUMP JUMPDEST PUSH1 0x40 MLOAD DUP1 SWAP2 SUB SWAP1 RETURN JUMPDEST PUSH2 0x1F7 PUSH2 0xABD JUMP JUMPDEST STOP JUMPDEST PUSH2 0x201 PUSH2 0xACF JUMP JUMPDEST PUSH1 0x40 MLOAD PUSH2 0x210 SWAP4 SWAP3 SWAP2 SWAP1 PUSH2 0x1F60 JUMP JUMPDEST PUSH1 0x40 MLOAD DUP1 SWAP2 SUB SWAP1 RETURN JUMPDEST PUSH2 0x233 PUSH1 0x4 DUP1 CALLDATASIZE SUB DUP2 ADD SWAP1 PUSH2 0x22E SWAP2 SWAP1 PUSH2 0x1F95 JUMP JUMPDEST PUSH2 0xAEA JUMP JUMPDEST PUSH1 0x40 MLOAD PUSH2 0x243 SWAP5 SWAP4 SWAP3 SWAP2 SWAP1 PUSH2 0x1FE5 JUMP JUMPDEST PUSH1 0x40 MLOAD DUP1 SWAP2 SUB SWAP1 RETURN JUMPDEST PUSH2 0x266 PUSH1 0x4 DUP1 CALLDATASIZE SUB DUP2 ADD SWAP1 PUSH2 0x261 SWAP2 SWAP1 PUSH2 0x1E32 JUMP JUMPDEST PUSH2 0xB75 JUMP JUMPDEST PUSH1 0x40 MLOAD PUSH2 0x276 SWAP5 SWAP4 SWAP3 SWAP2 SWAP1 PUSH2 0x1EE7 JUMP JUMPDEST PUSH1 0x40 MLOAD DUP1 SWAP2 SUB SWAP1 RETURN JUMPDEST PUSH2 0x299 PUSH1 0x4 DUP1 CALLDATASIZE SUB DUP2 ADD SWAP1 PUSH2 0x294 SWAP2 SWAP1 PUSH2 0x2028 JUMP JUMPDEST PUSH2 0xCB9 JUMP JUMPDEST PUSH1 0x40 MLOAD PUSH2 0x2A6 SWAP2 SWAP1 PUSH2 0x1CD1 JUMP JUMPDEST PUSH1 0x40 MLOAD DUP1 SWAP2 SUB SWAP1 RETURN JUMPDEST PUSH2 0x2B7 PUSH2 0xCE4 JUMP JUMPDEST PUSH1 0x40 MLOAD PUSH2 0x2C4 SWAP2 SWAP1 PUSH2 0x1E19 JUMP JUMPDEST PUSH1 0x40 MLOAD DUP1 SWAP2 SUB SWAP1 RETURN JUMPDEST PUSH2 0x2D5 PUSH2 0xCF9 JUMP JUMPDEST STOP JUMPDEST PUSH2 0x2DF PUSH2 0xD0C JUMP JUMPDEST STOP JUMPDEST PUSH2 0x2E9 PUSH2 0xD1E JUMP JUMPDEST PUSH1 0x40 MLOAD PUSH2 0x2F6 SWAP2 SWAP1 PUSH2 0x1CD1 JUMP JUMPDEST PUSH1 0x40 MLOAD DUP1 SWAP2 SUB SWAP1 RETURN JUMPDEST PUSH2 0x319 PUSH1 0x4 DUP1 CALLDATASIZE SUB DUP2 ADD SWAP1 PUSH2 0x314 SWAP2 SWAP1 PUSH2 0x2078 JUMP JUMPDEST PUSH2 0xD25 JUMP JUMPDEST PUSH1 0x40 MLOAD PUSH2 0x326 SWAP2 SWAP1 PUSH2 0x1E19 JUMP JUMPDEST PUSH1 0x40 MLOAD DUP1 SWAP2 SUB SWAP1 RETURN JUMPDEST PUSH2 0x337 PUSH2 0xEFB JUMP JUMPDEST PUSH1 0x40 MLOAD PUSH2 0x344 SWAP2 SWAP1 PUSH2 0x1F47 JUMP JUMPDEST PUSH1 0x40 MLOAD DUP1 SWAP2 SUB SWAP1 RETURN JUMPDEST PUSH2 0x367 PUSH1 0x4 DUP1 CALLDATASIZE SUB DUP2 ADD SWAP1 PUSH2 0x362 SWAP2 SWAP1 PUSH2 0x20C8 JUMP JUMPDEST PUSH2 0xF22 JUMP JUMPDEST STOP JUMPDEST PUSH2 0x383 PUSH1 0x4 DUP1 CALLDATASIZE SUB DUP2 ADD SWAP1 PUSH2 0x37E SWAP2 SWAP1 PUSH2 0x20C8 JUMP JUMPDEST PUSH2 0xFE3 JUMP JUMPDEST STOP JUMPDEST PUSH2 0x39F PUSH1 0x4 DUP1 CALLDATASIZE SUB DUP2 ADD SWAP1 PUSH2 0x39A SWAP2 SWAP1 PUSH2 0x2078 JUMP JUMPDEST PUSH2 0x1067 JUMP JUMPDEST PUSH1 0x40 MLOAD PUSH2 0x3AC SWAP2 SWAP1 PUSH2 0x1E19 JUMP JUMPDEST PUSH1 0x40 MLOAD DUP1 SWAP2 SUB SWAP1 RETURN JUMPDEST PUSH1 0x3 PUSH1 0x20 MSTORE DUP2 PUSH0 MSTORE PUSH1 0x40 PUSH0 KECCAK256 PUSH1 0x20 MSTORE DUP1 PUSH0 MSTORE PUSH1 0x40 PUSH0 KECCAK256 PUSH0 SWAP2 POP SWAP2 POP POP SLOAD DUP2 JUMP JUMPDEST PUSH1 0x5 PUSH0 SWAP1 SLOAD SWAP1 PUSH2 0x100 EXP SWAP1 DIV PUSH20 0xFFFFFFFFFFFFFFFFFFFFFFFFFFFFFFFFFFFFFFFF AND PUSH20 0xFFFFFFFFFFFFFFFFFFFFFFFFFFFFFFFFFFFFFFFF AND CALLER PUSH20 0xFFFFFFFFFFFFFFFFFFFFFFFFFFFFFFFFFFFFFFFF AND EQ PUSH2 0x464 JUMPI PUSH1 0x40 MLOAD PUSH32 0x8C379A000000000000000000000000000000000000000000000000000000000 DUP2 MSTORE PUSH1 0x4 ADD PUSH2 0x45B SWAP1 PUSH2 0x213D JUMP JUMPDEST PUSH1 0x40 MLOAD DUP1 SWAP2 SUB SWAP1 REVERT JUMPDEST PUSH2 0x46C PUSH2 0x11F6 JUMP JUMPDEST PUSH1 0x2 PUSH0 DUP10 DUP2 MSTORE PUSH1 0x20 ADD SWAP1 DUP2 MSTORE PUSH1 0x20 ADD PUSH0 KECCAK256 PUSH1 0x3 ADD PUSH0 SWAP1 SLOAD SWAP1 PUSH2 0x100 EXP SWAP1 DIV PUSH1 0xFF AND ISZERO PUSH2 0x4CD JUMPI PUSH1 0x40 MLOAD PUSH32 0x8C379A000000000000000000000000000000000000000000000000000000000 DUP2 MSTORE PUSH1 0x4 ADD PUSH2 0x4C4 SWAP1 PUSH2 0x21A5 JUMP JUMPDEST PUSH1 0x40 MLOAD DUP1 SWAP2 SUB SWAP1 REVERT JUMPDEST PUSH1 0x64 DUP2 DUP4 DUP6 PUSH2 0x4DC SWAP2 SWAP1 PUSH2 0x21F0 JUMP JUMPDEST PUSH2 0x4E6 SWAP2 SWAP1 PUSH2 0x21F0 JUMP JUMPDEST GT ISZERO PUSH2 0x527 JUMPI PUSH1 0x40 MLOAD PUSH32 0x8C379A000000000000000000000000000000000000000000000000000000000 DUP2 MSTORE PUSH1 0x4 ADD PUSH2 0x51E SWAP1 PUSH2 0x226D JUMP JUMPDEST PUSH1 0x40 MLOAD DUP1 SWAP2 SUB SWAP1 REVERT JUMPDEST PUSH0 PUSH2 0x530 PUSH2 0xEFB JUMP JUMPDEST SWAP1 POP DUP6 PUSH20 0xFFFFFFFFFFFFFFFFFFFFFFFFFFFFFFFFFFFFFFFF AND DUP2 PUSH20 0xFFFFFFFFFFFFFFFFFFFFFFFFFFFFFFFFFFFFFFFF AND SUB PUSH2 0x5A0 JUMPI PUSH1 0x40 MLOAD PUSH32 0x8C379A000000000000000000000000000000000000000000000000000000000 DUP2 MSTORE PUSH1 0x4 ADD PUSH2 0x597 SWAP1 PUSH2 0x22FB JUMP JUMPDEST PUSH1 0x40 MLOAD DUP1 SWAP2 SUB SWAP1 REVERT JUMPDEST PUSH2 0x5A9 DUP10 PUSH2 0x1240 JUMP JUMPDEST PUSH0 PUSH2 0x5B5 DUP6 DUP6 DUP6 PUSH2 0x12FB JUMP JUMPDEST SWAP1 POP PUSH2 0x5C5 DUP11 DUP4 DUP11 DUP11 DUP11 DUP7 PUSH2 0x13B3 JUMP JUMPDEST DUP10 PUSH32 0xD21D9E01A16A8C5D426F26258EC2882C31787698ABA6246E133CC3692A370B0B PUSH1 0x2 PUSH0 DUP14 DUP2 MSTORE PUSH1 0x20 ADD SWAP1 DUP2 MSTORE PUSH1 0x20 ADD PUSH0 KECCAK256 PUSH0 ADD PUSH1 0x2 PUSH0 DUP15 DUP2 MSTORE PUSH1 0x20 ADD SWAP1 DUP2 MSTORE PUSH1 0x20 ADD PUSH0 KECCAK256 PUSH1 0x1 ADD DUP5 PUSH0 ADD MLOAD DUP6 PUSH1 0x20 ADD MLOAD DUP7 PUSH1 0x40 ADD MLOAD DUP8 PUSH1 0x60 ADD MLOAD PUSH1 0x40 MLOAD PUSH2 0x633 SWAP7 SWAP6 SWAP5 SWAP4 SWAP3 SWAP2 SWAP1 PUSH2 0x2409 JUMP JUMPDEST PUSH1 0x40 MLOAD DUP1 SWAP2 SUB SWAP1 LOG2 POP POP POP POP POP POP POP POP POP POP JUMP JUMPDEST PUSH0 DUP5 PUSH1 0x2 PUSH0 DUP3 DUP2 MSTORE PUSH1 0x20 ADD SWAP1 DUP2 MSTORE PUSH1 0x20 ADD PUSH0 KECCAK256 PUSH1 0x3 ADD PUSH0 SWAP1 SLOAD SWAP1 PUSH2 0x100 EXP SWAP1 DIV PUSH1 0xFF AND PUSH2 0x6A9 JUMPI PUSH1 0x40 MLOAD PUSH32 0x8C379A000000000000000000000000000000000000000000000000000000000 DUP2 MSTORE PUSH1 0x4 ADD PUSH2 0x6A0 SWAP1 PUSH2 0x24E6 JUMP JUMPDEST PUSH1 0x40 MLOAD DUP1 SWAP2 SUB SWAP1 REVERT JUMPDEST PUSH2 0x6B1 PUSH2 0x11F6 JUMP JUMPDEST PUSH2 0x6B9 PUSH2 0x1429 JUMP JUMPDEST PUSH0 PUSH20 0xFFFFFFFFFFFFFFFFFFFFFFFFFFFFFFFFFFFFFFFF AND DUP5 PUSH20 0xFFFFFFFFFFFFFFFFFFFFFFFFFFFFFFFFFFFFFFFF AND SUB PUSH2 0x727 JUMPI PUSH1 0x40 MLOAD PUSH32 0x8C379A000000000000000000000000000000000000000000000000000000000 DUP2 MSTORE PUSH1 0x4 ADD PUSH2 0x71E SWAP1 PUSH2 0x254E JUMP JUMPDEST PUSH1 0x40 MLOAD DUP1 SWAP2 SUB SWAP1 REVERT JUMPDEST DUP3 PUSH1 0x3 PUSH0 DUP8 PUSH20 0xFFFFFFFFFFFFFFFFFFFFFFFFFFFFFFFFFFFFFFFF AND PUSH20 0xFFFFFFFFFFFFFFFFFFFFFFFFFFFFFFFFFFFFFFFF AND DUP2 MSTORE PUSH1 0x20 ADD SWAP1 DUP2 MSTORE PUSH1 0x20 ADD PUSH0 KECCAK256 PUSH0 DUP9 DUP2 MSTORE PUSH1 0x20 ADD SWAP1 DUP2 MSTORE PUSH1 0x20 ADD PUSH0 KECCAK256 SLOAD LT ISZERO PUSH2 0x7B6 JUMPI PUSH1 0x40 MLOAD PUSH32 0x8C379A000000000000000000000000000000000000000000000000000000000 DUP2 MSTORE PUSH1 0x4 ADD PUSH2 0x7AD SWAP1 PUSH2 0x25B6 JUMP JUMPDEST PUSH1 0x40 MLOAD DUP1 SWAP2 SUB SWAP1 REVERT JUMPDEST DUP3 PUSH1 0x4 PUSH0 DUP8 PUSH20 0xFFFFFFFFFFFFFFFFFFFFFFFFFFFFFFFFFFFFFFFF AND PUSH20 0xFFFFFFFFFFFFFFFFFFFFFFFFFFFFFFFFFFFFFFFF AND DUP2 MSTORE PUSH1 0x20 ADD SWAP1 DUP2 MSTORE PUSH1 0x20 ADD PUSH0 KECCAK256 PUSH0 CALLER PUSH20 0xFFFFFFFFFFFFFFFFFFFFFFFFFFFFFFFFFFFFFFFF AND PUSH20 0xFFFFFFFFFFFFFFFFFFFFFFFFFFFFFFFFFFFFFFFF AND DUP2 MSTORE PUSH1 0x20 ADD SWAP1 DUP2 MSTORE PUSH1 0x20 ADD PUSH0 KECCAK256 PUSH0 DUP9 DUP2 MSTORE PUSH1 0x20 ADD SWAP1 DUP2 MSTORE PUSH1 0x20 ADD PUSH0 KECCAK256 SLOAD LT ISZERO PUSH2 0x880 JUMPI PUSH1 0x40 MLOAD PUSH32 0x8C379A000000000000000000000000000000000000000000000000000000000 DUP2 MSTORE PUSH1 0x4 ADD PUSH2 0x877 SWAP1 PUSH2 0x261E JUMP JUMPDEST PUSH1 0x40 MLOAD DUP1 SWAP2 SUB SWAP1 REVERT JUMPDEST DUP3 PUSH1 0x4 PUSH0 DUP8 PUSH20 0xFFFFFFFFFFFFFFFFFFFFFFFFFFFFFFFFFFFFFFFF AND PUSH20 0xFFFFFFFFFFFFFFFFFFFFFFFFFFFFFFFFFFFFFFFF AND DUP2 MSTORE PUSH1 0x20 ADD SWAP1 DUP2 MSTORE PUSH1 0x20 ADD PUSH0 KECCAK256 PUSH0 CALLER PUSH20 0xFFFFFFFFFFFFFFFFFFFFFFFFFFFFFFFFFFFFFFFF AND PUSH20 0xFFFFFFFFFFFFFFFFFFFFFFFFFFFFFFFFFFFFFFFF AND DUP2 MSTORE PUSH1 0x20 ADD SWAP1 DUP2 MSTORE PUSH1 0x20 ADD PUSH0 KECCAK256 PUSH0 DUP9 DUP2 MSTORE PUSH1 0x20 ADD SWAP1 DUP2 MSTORE PUSH1 0x20 ADD PUSH0 KECCAK256 PUSH0 DUP3 DUP3 SLOAD PUSH2 0x916 SWAP2 SWAP1 PUSH2 0x263C JUMP JUMPDEST SWAP3 POP POP DUP2 SWAP1 SSTORE POP PUSH2 0x929 DUP7 DUP7 DUP7 DUP7 PUSH2 0x1478 JUMP JUMPDEST PUSH1 0x1 SWAP2 POP PUSH2 0x935 PUSH2 0x1672 JUMP JUMPDEST POP SWAP5 SWAP4 POP POP POP POP JUMP JUMPDEST PUSH1 0x60 DUP1 PUSH0 DUP1 PUSH0 PUSH1 0x2 PUSH0 DUP8 DUP2 MSTORE PUSH1 0x20 ADD SWAP1 DUP2 MSTORE PUSH1 0x20 ADD PUSH0 KECCAK256 SWAP1 POP DUP1 PUSH0 ADD DUP2 PUSH1 0x1 ADD DUP3 PUSH1 0x2 ADD SLOAD DUP4 PUSH1 0x3 ADD PUSH0 SWAP1 SLOAD SWAP1 PUSH2 0x100 EXP SWAP1 DIV PUSH1 0xFF AND DUP4 DUP1 SLOAD PUSH2 0x980 SWAP1 PUSH2 0x2346 JUMP JUMPDEST DUP1 PUSH1 0x1F ADD PUSH1 0x20 DUP1 SWAP2 DIV MUL PUSH1 0x20 ADD PUSH1 0x40 MLOAD SWAP1 DUP2 ADD PUSH1 0x40 MSTORE DUP1 SWAP3 SWAP2 SWAP1 DUP2 DUP2 MSTORE PUSH1 0x20 ADD DUP3 DUP1 SLOAD PUSH2 0x9AC SWAP1 PUSH2 0x2346 JUMP JUMPDEST DUP1 ISZERO PUSH2 0x9F7 JUMPI DUP1 PUSH1 0x1F LT PUSH2 0x9CE JUMPI PUSH2 0x100 DUP1 DUP4 SLOAD DIV MUL DUP4 MSTORE SWAP2 PUSH1 0x20 ADD SWAP2 PUSH2 0x9F7 JUMP JUMPDEST DUP3 ADD SWAP2 SWAP1 PUSH0 MSTORE PUSH1 0x20 PUSH0 KECCAK256 SWAP1 JUMPDEST DUP2 SLOAD DUP2 MSTORE SWAP1 PUSH1 0x1 ADD SWAP1 PUSH1 0x20 ADD DUP1 DUP4 GT PUSH2 0x9DA JUMPI DUP3 SWAP1 SUB PUSH1 0x1F AND DUP3 ADD SWAP2 JUMPDEST POP POP POP POP POP SWAP4 POP DUP3 DUP1 SLOAD PUSH2 0xA0A SWAP1 PUSH2 0x2346 JUMP JUMPDEST DUP1 PUSH1 0x1F ADD PUSH1 0x20 DUP1 SWAP2 DIV MUL PUSH1 0x20 ADD PUSH1 0x40 MLOAD SWAP1 DUP2 ADD PUSH1 0x40 MSTORE DUP1 SWAP3 SWAP2 SWAP1 DUP2 DUP2 MSTORE PUSH1 0x20 ADD DUP3 DUP1 SLOAD PUSH2 0xA36 SWAP1 PUSH2 0x2346 JUMP JUMPDEST DUP1 ISZERO PUSH2 0xA81 JUMPI DUP1 PUSH1 0x1F LT PUSH2 0xA58 JUMPI PUSH2 0x100 DUP1 DUP4 SLOAD DIV MUL DUP4 MSTORE SWAP2 PUSH1 0x20 ADD SWAP2 PUSH2 0xA81 JUMP JUMPDEST DUP3 ADD SWAP2 SWAP1 PUSH0 MSTORE PUSH1 0x20 PUSH0 KECCAK256 SWAP1 JUMPDEST DUP2 SLOAD DUP2 MSTORE SWAP1 PUSH1 0x1 ADD SWAP1 PUSH1 0x20 ADD DUP1 DUP4 GT PUSH2 0xA64 JUMPI DUP3 SWAP1 SUB PUSH1 0x1F AND DUP3 ADD SWAP2 JUMPDEST POP POP POP POP POP SWAP3 POP SWAP5 POP SWAP5 POP SWAP5 POP SWAP5 POP POP SWAP2 SWAP4 POP SWAP2 SWAP4 JUMP JUMPDEST PUSH1 0x5 PUSH0 SWAP1 SLOAD SWAP1 PUSH2 0x100 EXP SWAP1 DIV PUSH20 0xFFFFFFFFFFFFFFFFFFFFFFFFFFFFFFFFFFFFFFFF AND DUP2 JUMP JUMPDEST PUSH2 0xAC5 PUSH2 0x167B JUMP JUMPDEST PUSH2 0xACD PUSH2 0x1702 JUMP JUMPDEST JUMP JUMPDEST PUSH0 DUP1 PUSH0 PUSH2 0xADA PUSH2 0xEFB JUMP JUMPDEST SWAP3 POP DUP3 PUSH0 DUP1 SWAP3 POP SWAP3 POP SWAP3 POP SWAP1 SWAP2 SWAP3 JUMP JUMPDEST PUSH0 DUP1 PUSH0 DUP1 PUSH1 0x64 DUP8 PUSH3 0x186A0 PUSH2 0xAFF SWAP2 SWAP1 PUSH2 0x266F JUMP JUMPDEST PUSH2 0xB09 SWAP2 SWAP1 PUSH2 0x26DD JUMP JUMPDEST SWAP4 POP PUSH1 0x64 DUP7 PUSH3 0x186A0 PUSH2 0xB1C SWAP2 SWAP1 PUSH2 0x266F JUMP JUMPDEST PUSH2 0xB26 SWAP2 SWAP1 PUSH2 0x26DD JUMP JUMPDEST SWAP3 POP PUSH1 0x64 DUP6 PUSH3 0x186A0 PUSH2 0xB39 SWAP2 SWAP1 PUSH2 0x266F JUMP JUMPDEST PUSH2 0xB43 SWAP2 SWAP1 PUSH2 0x26DD JUMP JUMPDEST SWAP2 POP DUP2 DUP4 DUP6 PUSH3 0x186A0 PUSH2 0xB56 SWAP2 SWAP1 PUSH2 0x263C JUMP JUMPDEST PUSH2 0xB60 SWAP2 SWAP1 PUSH2 0x263C JUMP JUMPDEST PUSH2 0xB6A SWAP2 SWAP1 PUSH2 0x263C JUMP JUMPDEST SWAP1 POP SWAP4 POP SWAP4 POP SWAP4 POP SWAP4 JUMP JUMPDEST PUSH1 0x2 PUSH1 0x20 MSTORE DUP1 PUSH0 MSTORE PUSH1 0x40 PUSH0 KECCAK256 PUSH0 SWAP2 POP SWAP1 POP DUP1 PUSH0 ADD DUP1 SLOAD PUSH2 0xB94 SWAP1 PUSH2 0x2346 JUMP JUMPDEST DUP1 PUSH1 0x1F ADD PUSH1 0x20 DUP1 SWAP2 DIV MUL PUSH1 0x20 ADD PUSH1 0x40 MLOAD SWAP1 DUP2 ADD PUSH1 0x40 MSTORE DUP1 SWAP3 SWAP2 SWAP1 DUP2 DUP2 MSTORE PUSH1 0x20 ADD DUP3 DUP1 SLOAD PUSH2 0xBC0 SWAP1 PUSH2 0x2346 JUMP JUMPDEST DUP1 ISZERO PUSH2 0xC0B JUMPI DUP1 PUSH1 0x1F LT PUSH2 0xBE2 JUMPI PUSH2 0x100 DUP1 DUP4 SLOAD DIV MUL DUP4 MSTORE SWAP2 PUSH1 0x20 ADD SWAP2 PUSH2 0xC0B JUMP JUMPDEST DUP3 ADD SWAP2 SWAP1 PUSH0 MSTORE PUSH1 0x20 PUSH0 KECCAK256 SWAP1 JUMPDEST DUP2 SLOAD DUP2 MSTORE SWAP1 PUSH1 0x1 ADD SWAP1 PUSH1 0x20 ADD DUP1 DUP4 GT PUSH2 0xBEE JUMPI DUP3 SWAP1 SUB PUSH1 0x1F AND DUP3 ADD SWAP2 JUMPDEST POP POP POP POP POP SWAP1 DUP1 PUSH1 0x1 ADD DUP1 SLOAD PUSH2 0xC20 SWAP1 PUSH2 0x2346 JUMP JUMPDEST DUP1 PUSH1 0x1F ADD PUSH1 0x20 DUP1 SWAP2 DIV MUL PUSH1 0x20 ADD PUSH1 0x40 MLOAD SWAP1 DUP2 ADD PUSH1 0x40 MSTORE DUP1 SWAP3 SWAP2 SWAP1 DUP2 DUP2 MSTORE PUSH1 0x20 ADD DUP3 DUP1 SLOAD PUSH2 0xC4C SWAP1 PUSH2 0x2346 JUMP JUMPDEST DUP1 ISZERO PUSH2 0xC97 JUMPI DUP1 PUSH1 0x1F LT PUSH2 0xC6E JUMPI PUSH2 0x100 DUP1 DUP4 SLOAD DIV MUL DUP4 MSTORE SWAP2 PUSH1 0x20 ADD SWAP2 PUSH2 0xC97 JUMP JUMPDEST DUP3 ADD SWAP2 SWAP1 PUSH0 MSTORE PUSH1 0x20 PUSH0 KECCAK256 SWAP1 JUMPDEST DUP2 SLOAD DUP2 MSTORE SWAP1 PUSH1 0x1 ADD SWAP1 PUSH1 0x20 ADD DUP1 DUP4 GT PUSH2 0xC7A JUMPI DUP3 SWAP1 SUB PUSH1 0x1F AND DUP3 ADD SWAP2 JUMPDEST POP POP POP POP POP SWAP1 DUP1 PUSH1 0x2 ADD SLOAD SWAP1 DUP1 PUSH1 0x3 ADD PUSH0 SWAP1 SLOAD SWAP1 PUSH2 0x100 EXP SWAP1 DIV PUSH1 0xFF AND SWAP1 POP DUP5 JUMP JUMPDEST PUSH1 0x4 PUSH1 0x20 MSTORE DUP3 PUSH0 MSTORE PUSH1 0x40 PUSH0 KECCAK256 PUSH1 0x20 MSTORE DUP2 PUSH0 MSTORE PUSH1 0x40 PUSH0 KECCAK256 PUSH1 0x20 MSTORE DUP1 PUSH0 MSTORE PUSH1 0x40 PUSH0 KECCAK256 PUSH0 SWAP3 POP SWAP3 POP POP POP SLOAD DUP2 JUMP JUMPDEST PUSH0 DUP1 PUSH1 0x14 SWAP1 SLOAD SWAP1 PUSH2 0x100 EXP SWAP1 DIV PUSH1 0xFF AND SWAP1 POP SWAP1 JUMP JUMPDEST PUSH2 0xD01 PUSH2 0x167B JUMP JUMPDEST PUSH2 0xD0A PUSH0 PUSH2 0x1763 JUMP JUMPDEST JUMP JUMPDEST PUSH2 0xD14 PUSH2 0x167B JUMP JUMPDEST PUSH2 0xD1C PUSH2 0x1824 JUMP JUMPDEST JUMP JUMPDEST PUSH3 0x186A0 DUP2 JUMP JUMPDEST PUSH0 DUP4 PUSH1 0x2 PUSH0 DUP3 DUP2 MSTORE PUSH1 0x20 ADD SWAP1 DUP2 MSTORE PUSH1 0x20 ADD PUSH0 KECCAK256 PUSH1 0x3 ADD PUSH0 SWAP1 SLOAD SWAP1 PUSH2 0x100 EXP SWAP1 DIV PUSH1 0xFF AND PUSH2 0xD87 JUMPI PUSH1 0x40 MLOAD PUSH32 0x8C379A000000000000000000000000000000000000000000000000000000000 DUP2 MSTORE PUSH1 0x4 ADD PUSH2 0xD7E SWAP1 PUSH2 0x24E6 JUMP JUMPDEST PUSH1 0x40 MLOAD DUP1 SWAP2 SUB SWAP1 REVERT JUMPDEST PUSH2 0xD8F PUSH2 0x11F6 JUMP JUMPDEST PUSH0 PUSH20 0xFFFFFFFFFFFFFFFFFFFFFFFFFFFFFFFFFFFFFFFF AND DUP5 PUSH20 0xFFFFFFFFFFFFFFFFFFFFFFFFFFFFFFFFFFFFFFFF AND SUB PUSH2 0xDFD JUMPI PUSH1 0x40 MLOAD PUSH32 0x8C379A000000000000000000000000000000000000000000000000000000000 DUP2 MSTORE PUSH1 0x4 ADD PUSH2 0xDF4 SWAP1 PUSH2 0x2757 JUMP JUMPDEST PUSH1 0x40 MLOAD DUP1 SWAP2 SUB SWAP1 REVERT JUMPDEST DUP3 PUSH1 0x4 PUSH0 CALLER PUSH20 0xFFFFFFFFFFFFFFFFFFFFFFFFFFFFFFFFFFFFFFFF AND PUSH20 0xFFFFFFFFFFFFFFFFFFFFFFFFFFFFFFFFFFFFFFFF AND DUP2 MSTORE PUSH1 0x20 ADD SWAP1 DUP2 MSTORE PUSH1 0x20 ADD PUSH0 KECCAK256 PUSH0 DUP7 PUSH20 0xFFFFFFFFFFFFFFFFFFFFFFFFFFFFFFFFFFFFFFFF AND PUSH20 0xFFFFFFFFFFFFFFFFFFFFFFFFFFFFFFFFFFFFFFFF AND DUP2 MSTORE PUSH1 0x20 ADD SWAP1 DUP2 MSTORE PUSH1 0x20 ADD PUSH0 KECCAK256 PUSH0 DUP8 DUP2 MSTORE PUSH1 0x20 ADD SWAP1 DUP2 MSTORE PUSH1 0x20 ADD PUSH0 KECCAK256 DUP2 SWAP1 SSTORE POP DUP4 PUSH20 0xFFFFFFFFFFFFFFFFFFFFFFFFFFFFFFFFFFFFFFFF AND CALLER PUSH20 0xFFFFFFFFFFFFFFFFFFFFFFFFFFFFFFFFFFFFFFFF AND DUP7 PUSH32 0x69E4AAF23F9318CF40839AC20453D8FBEDAAC2955EB08A27AE5189CC71925716 DUP7 PUSH1 0x40 MLOAD PUSH2 0xEE7 SWAP2 SWAP1 PUSH2 0x1CD1 JUMP JUMPDEST PUSH1 0x40 MLOAD DUP1 SWAP2 SUB SWAP1 LOG4 PUSH1 0x1 SWAP2 POP POP SWAP4 SWAP3 POP POP POP JUMP JUMPDEST PUSH0 DUP1 PUSH0 SWAP1 SLOAD SWAP1 PUSH2 0x100 EXP SWAP1 DIV PUSH20 0xFFFFFFFFFFFFFFFFFFFFFFFFFFFFFFFFFFFFFFFF AND SWAP1 POP SWAP1 JUMP JUMPDEST PUSH2 0xF2A PUSH2 0x167B JUMP JUMPDEST PUSH0 PUSH20 0xFFFFFFFFFFFFFFFFFFFFFFFFFFFFFFFFFFFFFFFF AND DUP2 PUSH20 0xFFFFFFFFFFFFFFFFFFFFFFFFFFFFFFFFFFFFFFFF AND SUB PUSH2 0xF98 JUMPI PUSH1 0x40 MLOAD PUSH32 0x8C379A000000000000000000000000000000000000000000000000000000000 DUP2 MSTORE PUSH1 0x4 ADD PUSH2 0xF8F SWAP1 PUSH2 0x27BF JUMP JUMPDEST PUSH1 0x40 MLOAD DUP1 SWAP2 SUB SWAP1 REVERT JUMPDEST DUP1 PUSH1 0x5 PUSH0 PUSH2 0x100 EXP DUP2 SLOAD DUP2 PUSH20 0xFFFFFFFFFFFFFFFFFFFFFFFFFFFFFFFFFFFFFFFF MUL NOT AND SWAP1 DUP4 PUSH20 0xFFFFFFFFFFFFFFFFFFFFFFFFFFFFFFFFFFFFFFFF AND MUL OR SWAP1 SSTORE POP PUSH2 0xFE0 PUSH2 0x1702 JUMP JUMPDEST POP JUMP JUMPDEST PUSH2 0xFEB PUSH2 0x167B JUMP JUMPDEST PUSH0 PUSH20 0xFFFFFFFFFFFFFFFFFFFFFFFFFFFFFFFFFFFFFFFF AND DUP2 PUSH20 0xFFFFFFFFFFFFFFFFFFFFFFFFFFFFFFFFFFFFFFFF AND SUB PUSH2 0x105B JUMPI PUSH0 PUSH1 0x40 MLOAD PUSH32 0x1E4FBDF700000000000000000000000000000000000000000000000000000000 DUP2 MSTORE PUSH1 0x4 ADD PUSH2 0x1052 SWAP2 SWAP1 PUSH2 0x1F47 JUMP JUMPDEST PUSH1 0x40 MLOAD DUP1 SWAP2 SUB SWAP1 REVERT JUMPDEST PUSH2 0x1064 DUP2 PUSH2 0x1763 JUMP JUMPDEST POP JUMP JUMPDEST PUSH0 DUP4 PUSH1 0x2 PUSH0 DUP3 DUP2 MSTORE PUSH1 0x20 ADD SWAP1 DUP2 MSTORE PUSH1 0x20 ADD PUSH0 KECCAK256 PUSH1 0x3 ADD PUSH0 SWAP1 SLOAD SWAP1 PUSH2 0x100 EXP SWAP1 DIV PUSH1 0xFF AND PUSH2 0x10C9 JUMPI PUSH1 0x40 MLOAD PUSH32 0x8C379A000000000000000000000000000000000000000000000000000000000 DUP2 MSTORE PUSH1 0x4 ADD PUSH2 0x10C0 SWAP1 PUSH2 0x24E6 JUMP JUMPDEST PUSH1 0x40 MLOAD DUP1 SWAP2 SUB SWAP1 REVERT JUMPDEST PUSH2 0x10D1 PUSH2 0x11F6 JUMP JUMPDEST PUSH2 0x10D9 PUSH2 0x1429 JUMP JUMPDEST PUSH0 PUSH20 0xFFFFFFFFFFFFFFFFFFFFFFFFFFFFFFFFFFFFFFFF AND DUP5 PUSH20 0xFFFFFFFFFFFFFFFFFFFFFFFFFFFFFFFFFFFFFFFF AND SUB PUSH2 0x1147 JUMPI PUSH1 0x40 MLOAD PUSH32 0x8C379A000000000000000000000000000000000000000000000000000000000 DUP2 MSTORE PUSH1 0x4 ADD PUSH2 0x113E SWAP1 PUSH2 0x254E JUMP JUMPDEST PUSH1 0x40 MLOAD DUP1 SWAP2 SUB SWAP1 REVERT JUMPDEST DUP3 PUSH1 0x3 PUSH0 CALLER PUSH20 0xFFFFFFFFFFFFFFFFFFFFFFFFFFFFFFFFFFFFFFFF AND PUSH20 0xFFFFFFFFFFFFFFFFFFFFFFFFFFFFFFFFFFFFFFFF AND DUP2 MSTORE PUSH1 0x20 ADD SWAP1 DUP2 MSTORE PUSH1 0x20 ADD PUSH0 KECCAK256 PUSH0 DUP8 DUP2 MSTORE PUSH1 0x20 ADD SWAP1 DUP2 MSTORE PUSH1 0x20 ADD PUSH0 KECCAK256 SLOAD LT ISZERO PUSH2 0x11D6 JUMPI PUSH1 0x40 MLOAD PUSH32 0x8C379A000000000000000000000000000000000000000000000000000000000 DUP2 MSTORE PUSH1 0x4 ADD PUSH2 0x11CD SWAP1 PUSH2 0x25B6 JUMP JUMPDEST PUSH1 0x40 MLOAD DUP1 SWAP2 SUB SWAP1 REVERT JUMPDEST PUSH2 0x11E2 DUP6 CALLER DUP7 DUP7 PUSH2 0x1478 JUMP JUMPDEST PUSH1 0x1 SWAP2 POP PUSH2 0x11EE PUSH2 0x1672 JUMP JUMPDEST POP SWAP4 SWAP3 POP POP POP JUMP JUMPDEST PUSH2 0x11FE PUSH2 0xCE4 JUMP JUMPDEST ISZERO PUSH2 0x123E JUMPI PUSH1 0x40 MLOAD PUSH32 0x8C379A000000000000000000000000000000000000000000000000000000000 DUP2 MSTORE PUSH1 0x4 ADD PUSH2 0x1235 SWAP1 PUSH2 0x2827 JUMP JUMPDEST PUSH1 0x40 MLOAD DUP1 SWAP2 SUB SWAP1 REVERT JUMPDEST JUMP JUMPDEST PUSH0 PUSH2 0x124A DUP3 PUSH2 0x1886 JUMP JUMPDEST PUSH1 0x40 MLOAD PUSH1 0x20 ADD PUSH2 0x125A SWAP2 SWAP1 PUSH2 0x2913 JUMP JUMPDEST PUSH1 0x40 MLOAD PUSH1 0x20 DUP2 DUP4 SUB SUB DUP2 MSTORE SWAP1 PUSH1 0x40 MSTORE SWAP1 POP PUSH0 PUSH2 0x1275 DUP4 PUSH2 0x1886 JUMP JUMPDEST PUSH1 0x40 MLOAD PUSH1 0x20 ADD PUSH2 0x1285 SWAP2 SWAP1 PUSH2 0x2989 JUMP JUMPDEST PUSH1 0x40 MLOAD PUSH1 0x20 DUP2 DUP4 SUB SUB DUP2 MSTORE SWAP1 PUSH1 0x40 MSTORE SWAP1 POP PUSH0 PUSH1 0x2 PUSH0 DUP6 DUP2 MSTORE PUSH1 0x20 ADD SWAP1 DUP2 MSTORE PUSH1 0x20 ADD PUSH0 KECCAK256 SWAP1 POP DUP3 DUP2 PUSH0 ADD SWAP1 DUP2 PUSH2 0x12BA SWAP2 SWAP1 PUSH2 0x2B62 JUMP JUMPDEST POP DUP2 DUP2 PUSH1 0x1 ADD SWAP1 DUP2 PUSH2 0x12CC SWAP2 SWAP1 PUSH2 0x2B62 JUMP JUMPDEST POP PUSH1 0x1 DUP2 PUSH1 0x3 ADD PUSH0 PUSH2 0x100 EXP DUP2 SLOAD DUP2 PUSH1 0xFF MUL NOT AND SWAP1 DUP4 ISZERO ISZERO MUL OR SWAP1 SSTORE POP PUSH3 0x186A0 DUP2 PUSH1 0x2 ADD DUP2 SWAP1 SSTORE POP POP POP POP POP JUMP JUMPDEST PUSH2 0x1303 PUSH2 0x1BCF JUMP JUMPDEST PUSH0 PUSH1 0x64 DUP6 PUSH3 0x186A0 PUSH2 0x1315 SWAP2 SWAP1 PUSH2 0x266F JUMP JUMPDEST PUSH2 0x131F SWAP2 SWAP1 PUSH2 0x26DD JUMP JUMPDEST SWAP1 POP PUSH0 PUSH1 0x64 DUP6 PUSH3 0x186A0 PUSH2 0x1333 SWAP2 SWAP1 PUSH2 0x266F JUMP JUMPDEST PUSH2 0x133D SWAP2 SWAP1 PUSH2 0x26DD JUMP JUMPDEST SWAP1 POP PUSH0 PUSH1 0x64 DUP6 PUSH3 0x186A0 PUSH2 0x1351 SWAP2 SWAP1 PUSH2 0x266F JUMP JUMPDEST PUSH2 0x135B SWAP2 SWAP1 PUSH2 0x26DD JUMP JUMPDEST SWAP1 POP PUSH0 DUP2 DUP4 DUP6 PUSH3 0x186A0 PUSH2 0x136F SWAP2 SWAP1 PUSH2 0x263C JUMP JUMPDEST PUSH2 0x1379 SWAP2 SWAP1 PUSH2 0x263C JUMP JUMPDEST PUSH2 0x1383 SWAP2 SWAP1 PUSH2 0x263C JUMP JUMPDEST SWAP1 POP PUSH1 0x40 MLOAD DUP1 PUSH1 0x80 ADD PUSH1 0x40 MSTORE DUP1 DUP6 DUP2 MSTORE PUSH1 0x20 ADD DUP5 DUP2 MSTORE PUSH1 0x20 ADD DUP4 DUP2 MSTORE PUSH1 0x20 ADD DUP3 DUP2 MSTORE POP SWAP5 POP POP POP POP POP SWAP4 SWAP3 POP POP POP JUMP JUMPDEST PUSH0 DUP2 PUSH0 ADD MLOAD GT ISZERO PUSH2 0x13CD JUMPI PUSH2 0x13CC DUP7 DUP7 DUP4 PUSH0 ADD MLOAD PUSH2 0x19DF JUMP JUMPDEST JUMPDEST PUSH0 DUP2 PUSH1 0x20 ADD MLOAD GT ISZERO PUSH2 0x13E9 JUMPI PUSH2 0x13E8 DUP7 DUP6 DUP4 PUSH1 0x20 ADD MLOAD PUSH2 0x19DF JUMP JUMPDEST JUMPDEST PUSH0 DUP2 PUSH1 0x40 ADD MLOAD GT ISZERO PUSH2 0x1405 JUMPI PUSH2 0x1404 DUP7 DUP5 DUP4 PUSH1 0x40 ADD MLOAD PUSH2 0x19DF JUMP JUMPDEST JUMPDEST PUSH0 DUP2 PUSH1 0x60 ADD MLOAD GT ISZERO PUSH2 0x1421 JUMPI PUSH2 0x1420 DUP7 DUP4 DUP4 PUSH1 0x60 ADD MLOAD PUSH2 0x19DF JUMP JUMPDEST JUMPDEST POP POP POP POP POP POP JUMP JUMPDEST PUSH1 0x2 PUSH1 0x1 SLOAD SUB PUSH2 0x146E JUMPI PUSH1 0x40 MLOAD PUSH32 0x8C379A000000000000000000000000000000000000000000000000000000000 DUP2 MSTORE PUSH1 0x4 ADD PUSH2 0x1465 SWAP1 PUSH2 0x2C7B JUMP JUMPDEST PUSH1 0x40 MLOAD DUP1 SWAP2 SUB SWAP1 REVERT JUMPDEST PUSH1 0x2 PUSH1 0x1 DUP2 SWAP1 SSTORE POP JUMP JUMPDEST DUP1 PUSH1 0x3 PUSH0 DUP6 PUSH20 0xFFFFFFFFFFFFFFFFFFFFFFFFFFFFFFFFFFFFFFFF AND PUSH20 0xFFFFFFFFFFFFFFFFFFFFFFFFFFFFFFFFFFFFFFFF AND DUP2 MSTORE PUSH1 0x20 ADD SWAP1 DUP2 MSTORE PUSH1 0x20 ADD PUSH0 KECCAK256 PUSH0 DUP7 DUP2 MSTORE PUSH1 0x20 ADD SWAP1 DUP2 MSTORE PUSH1 0x20 ADD PUSH0 KECCAK256 PUSH0 DUP3 DUP3 SLOAD PUSH2 0x14D3 SWAP2 SWAP1 PUSH2 0x263C JUMP JUMPDEST SWAP3 POP POP DUP2 SWAP1 SSTORE POP DUP1 PUSH1 0x3 PUSH0 DUP5 PUSH20 0xFFFFFFFFFFFFFFFFFFFFFFFFFFFFFFFFFFFFFFFF AND PUSH20 0xFFFFFFFFFFFFFFFFFFFFFFFFFFFFFFFFFFFFFFFF AND DUP2 MSTORE PUSH1 0x20 ADD SWAP1 DUP2 MSTORE PUSH1 0x20 ADD PUSH0 KECCAK256 PUSH0 DUP7 DUP2 MSTORE PUSH1 0x20 ADD SWAP1 DUP2 MSTORE PUSH1 0x20 ADD PUSH0 KECCAK256 PUSH0 DUP3 DUP3 SLOAD PUSH2 0x1535 SWAP2 SWAP1 PUSH2 0x21F0 JUMP JUMPDEST SWAP3 POP POP DUP2 SWAP1 SSTORE POP DUP1 PUSH1 0x2 PUSH0 DUP7 DUP2 MSTORE PUSH1 0x20 ADD SWAP1 DUP2 MSTORE PUSH1 0x20 ADD PUSH0 KECCAK256 PUSH1 0x4 ADD PUSH0 DUP6 PUSH20 0xFFFFFFFFFFFFFFFFFFFFFFFFFFFFFFFFFFFFFFFF AND PUSH20 0xFFFFFFFFFFFFFFFFFFFFFFFFFFFFFFFFFFFFFFFF AND DUP2 MSTORE PUSH1 0x20 ADD SWAP1 DUP2 MSTORE PUSH1 0x20 ADD PUSH0 KECCAK256 PUSH0 DUP3 DUP3 SLOAD PUSH2 0x159A SWAP2 SWAP1 PUSH2 0x263C JUMP JUMPDEST SWAP3 POP POP DUP2 SWAP1 SSTORE POP DUP1 PUSH1 0x2 PUSH0 DUP7 DUP2 MSTORE PUSH1 0x20 ADD SWAP1 DUP2 MSTORE PUSH1 0x20 ADD PUSH0 KECCAK256 PUSH1 0x4 ADD PUSH0 DUP5 PUSH20 0xFFFFFFFFFFFFFFFFFFFFFFFFFFFFFFFFFFFFFFFF AND PUSH20 0xFFFFFFFFFFFFFFFFFFFFFFFFFFFFFFFFFFFFFFFF AND DUP2 MSTORE PUSH1 0x20 ADD SWAP1 DUP2 MSTORE PUSH1 0x20 ADD PUSH0 KECCAK256 PUSH0 DUP3 DUP3 SLOAD PUSH2 0x15FF SWAP2 SWAP1 PUSH2 0x21F0 JUMP JUMPDEST SWAP3 POP POP DUP2 SWAP1 SSTORE POP DUP2 PUSH20 0xFFFFFFFFFFFFFFFFFFFFFFFFFFFFFFFFFFFFFFFF AND DUP4 PUSH20 0xFFFFFFFFFFFFFFFFFFFFFFFFFFFFFFFFFFFFFFFF AND DUP6 PUSH32 0xF2DBD98D79F00F7AFF338B824931D607BFCC63D47307162470F25A055102D3B0 DUP5 PUSH1 0x40 MLOAD PUSH2 0x1664 SWAP2 SWAP1 PUSH2 0x1CD1 JUMP JUMPDEST PUSH1 0x40 MLOAD DUP1 SWAP2 SUB SWAP1 LOG4 POP POP POP POP JUMP JUMPDEST PUSH1 0x1 DUP1 DUP2 SWAP1 SSTORE POP JUMP JUMPDEST PUSH2 0x1683 PUSH2 0x1B7F JUMP JUMPDEST PUSH20 0xFFFFFFFFFFFFFFFFFFFFFFFFFFFFFFFFFFFFFFFF AND PUSH2 0x16A1 PUSH2 0xEFB JUMP JUMPDEST PUSH20 0xFFFFFFFFFFFFFFFFFFFFFFFFFFFFFFFFFFFFFFFF AND EQ PUSH2 0x1700 JUMPI PUSH2 0x16C4 PUSH2 0x1B7F JUMP JUMPDEST PUSH1 0x40 MLOAD PUSH32 0x118CDAA700000000000000000000000000000000000000000000000000000000 DUP2 MSTORE PUSH1 0x4 ADD PUSH2 0x16F7 SWAP2 SWAP1 PUSH2 0x1F47 JUMP JUMPDEST PUSH1 0x40 MLOAD DUP1 SWAP2 SUB SWAP1 REVERT JUMPDEST JUMP JUMPDEST PUSH2 0x170A PUSH2 0x1B86 JUMP JUMPDEST PUSH0 DUP1 PUSH1 0x14 PUSH2 0x100 EXP DUP2 SLOAD DUP2 PUSH1 0xFF MUL NOT AND SWAP1 DUP4 ISZERO ISZERO MUL OR SWAP1 SSTORE POP PUSH32 0x5DB9EE0A495BF2E6FF9C91A7834C1BA4FDD244A5E8AA4E537BD38AEAE4B073AA PUSH2 0x174C PUSH2 0x1B7F JUMP JUMPDEST PUSH1 0x40 MLOAD PUSH2 0x1759 SWAP2 SWAP1 PUSH2 0x1F47 JUMP JUMPDEST PUSH1 0x40 MLOAD DUP1 SWAP2 SUB SWAP1 LOG1 JUMP JUMPDEST PUSH0 DUP1 PUSH0 SWAP1 SLOAD SWAP1 PUSH2 0x100 EXP SWAP1 DIV PUSH20 0xFFFFFFFFFFFFFFFFFFFFFFFFFFFFFFFFFFFFFFFF AND SWAP1 POP DUP2 PUSH0 DUP1 PUSH2 0x100 EXP DUP2 SLOAD DUP2 PUSH20 0xFFFFFFFFFFFFFFFFFFFFFFFFFFFFFFFFFFFFFFFF MUL NOT AND SWAP1 DUP4 PUSH20 0xFFFFFFFFFFFFFFFFFFFFFFFFFFFFFFFFFFFFFFFF AND MUL OR SWAP1 SSTORE POP DUP2 PUSH20 0xFFFFFFFFFFFFFFFFFFFFFFFFFFFFFFFFFFFFFFFF AND DUP2 PUSH20 0xFFFFFFFFFFFFFFFFFFFFFFFFFFFFFFFFFFFFFFFF AND PUSH32 0x8BE0079C531659141344CD1FD0A4F28419497F9722A3DAAFE3B4186F6B6457E0 PUSH1 0x40 MLOAD PUSH1 0x40 MLOAD DUP1 SWAP2 SUB SWAP1 LOG3 POP POP JUMP JUMPDEST PUSH2 0x182C PUSH2 0x11F6 JUMP JUMPDEST PUSH1 0x1 PUSH0 PUSH1 0x14 PUSH2 0x100 EXP DUP2 SLOAD DUP2 PUSH1 0xFF MUL NOT AND SWAP1 DUP4 ISZERO ISZERO MUL OR SWAP1 SSTORE POP PUSH32 0x62E78CEA01BEE320CD4E420270B5EA74000D11B0C9F74754EBDBFC544B05A258 PUSH2 0x186F PUSH2 0x1B7F JUMP JUMPDEST PUSH1 0x40 MLOAD PUSH2 0x187C SWAP2 SWAP1 PUSH2 0x1F47 JUMP JUMPDEST PUSH1 0x40 MLOAD DUP1 SWAP2 SUB SWAP1 LOG1 JUMP JUMPDEST PUSH1 0x60 PUSH0 DUP3 SUB PUSH2 0x18CC JUMPI PUSH1 0x40 MLOAD DUP1 PUSH1 0x40 ADD PUSH1 0x40 MSTORE DUP1 PUSH1 0x1 DUP2 MSTORE PUSH1 0x20 ADD PUSH32 0x3000000000000000000000000000000000000000000000000000000000000000 DUP2 MSTORE POP SWAP1 POP PUSH2 0x19DA JUMP JUMPDEST PUSH0 DUP3 SWAP1 POP PUSH0 JUMPDEST PUSH0 DUP3 EQ PUSH2 0x18FB JUMPI DUP1 DUP1 PUSH2 0x18E4 SWAP1 PUSH2 0x2C99 JUMP JUMPDEST SWAP2 POP POP PUSH1 0xA DUP3 PUSH2 0x18F4 SWAP2 SWAP1 PUSH2 0x26DD JUMP JUMPDEST SWAP2 POP PUSH2 0x18D2 JUMP JUMPDEST PUSH0 DUP2 PUSH8 0xFFFFFFFFFFFFFFFF DUP2 GT ISZERO PUSH2 0x1916 JUMPI PUSH2 0x1915 PUSH2 0x29AA JUMP JUMPDEST JUMPDEST PUSH1 0x40 MLOAD SWAP1 DUP1 DUP3 MSTORE DUP1 PUSH1 0x1F ADD PUSH1 0x1F NOT AND PUSH1 0x20 ADD DUP3 ADD PUSH1 0x40 MSTORE DUP1 ISZERO PUSH2 0x1948 JUMPI DUP2 PUSH1 0x20 ADD PUSH1 0x1 DUP3 MUL DUP1 CALLDATASIZE DUP4 CALLDATACOPY DUP1 DUP3 ADD SWAP2 POP POP SWAP1 POP JUMPDEST POP SWAP1 POP JUMPDEST PUSH0 DUP6 EQ PUSH2 0x19D3 JUMPI PUSH1 0x1 DUP3 PUSH2 0x1960 SWAP2 SWAP1 PUSH2 0x263C JUMP JUMPDEST SWAP2 POP PUSH1 0xA DUP6 PUSH2 0x196F SWAP2 SWAP1 PUSH2 0x2CE0 JUMP JUMPDEST PUSH1 0x30 PUSH2 0x197B SWAP2 SWAP1 PUSH2 0x21F0 JUMP JUMPDEST PUSH1 0xF8 SHL DUP2 DUP4 DUP2 MLOAD DUP2 LT PUSH2 0x1991 JUMPI PUSH2 0x1990 PUSH2 0x2D10 JUMP JUMPDEST JUMPDEST PUSH1 0x20 ADD ADD SWAP1 PUSH31 0xFFFFFFFFFFFFFFFFFFFFFFFFFFFFFFFFFFFFFFFFFFFFFFFFFFFFFFFFFFFFFF NOT AND SWAP1 DUP2 PUSH0 BYTE SWAP1 MSTORE8 POP PUSH1 0xA DUP6 PUSH2 0x19CC SWAP2 SWAP1 PUSH2 0x26DD JUMP JUMPDEST SWAP5 POP PUSH2 0x194C JUMP JUMPDEST DUP1 SWAP4 POP POP POP POP JUMPDEST SWAP2 SWAP1 POP JUMP JUMPDEST PUSH0 PUSH20 0xFFFFFFFFFFFFFFFFFFFFFFFFFFFFFFFFFFFFFFFF AND DUP3 PUSH20 0xFFFFFFFFFFFFFFFFFFFFFFFFFFFFFFFFFFFFFFFF AND SUB PUSH2 0x1A4D JUMPI PUSH1 0x40 MLOAD PUSH32 0x8C379A000000000000000000000000000000000000000000000000000000000 DUP2 MSTORE PUSH1 0x4 ADD PUSH2 0x1A44 SWAP1 PUSH2 0x2D87 JUMP JUMPDEST PUSH1 0x40 MLOAD DUP1 SWAP2 SUB SWAP1 REVERT JUMPDEST DUP1 PUSH1 0x3 PUSH0 DUP5 PUSH20 0xFFFFFFFFFFFFFFFFFFFFFFFFFFFFFFFFFFFFFFFF AND PUSH20 0xFFFFFFFFFFFFFFFFFFFFFFFFFFFFFFFFFFFFFFFF AND DUP2 MSTORE PUSH1 0x20 ADD SWAP1 DUP2 MSTORE PUSH1 0x20 ADD PUSH0 KECCAK256 PUSH0 DUP6 DUP2 MSTORE PUSH1 0x20 ADD SWAP1 DUP2 MSTORE PUSH1 0x20 ADD PUSH0 KECCAK256 PUSH0 DUP3 DUP3 SLOAD PUSH2 0x1AA8 SWAP2 SWAP1 PUSH2 0x21F0 JUMP JUMPDEST SWAP3 POP POP DUP2 SWAP1 SSTORE POP DUP1 PUSH1 0x2 PUSH0 DUP6 DUP2 MSTORE PUSH1 0x20 ADD SWAP1 DUP2 MSTORE PUSH1 0x20 ADD PUSH0 KECCAK256 PUSH1 0x4 ADD PUSH0 DUP5 PUSH20 0xFFFFFFFFFFFFFFFFFFFFFFFFFFFFFFFFFFFFFFFF AND PUSH20 0xFFFFFFFFFFFFFFFFFFFFFFFFFFFFFFFFFFFFFFFF AND DUP2 MSTORE PUSH1 0x20 ADD SWAP1 DUP2 MSTORE PUSH1 0x20 ADD PUSH0 KECCAK256 PUSH0 DUP3 DUP3 SLOAD PUSH2 0x1B0D SWAP2 SWAP1 PUSH2 0x21F0 JUMP JUMPDEST SWAP3 POP POP DUP2 SWAP1 SSTORE POP DUP2 PUSH20 0xFFFFFFFFFFFFFFFFFFFFFFFFFFFFFFFFFFFFFFFF AND PUSH0 PUSH20 0xFFFFFFFFFFFFFFFFFFFFFFFFFFFFFFFFFFFFFFFF AND DUP5 PUSH32 0xF2DBD98D79F00F7AFF338B824931D607BFCC63D47307162470F25A055102D3B0 DUP5 PUSH1 0x40 MLOAD PUSH2 0x1B72 SWAP2 SWAP1 PUSH2 0x1CD1 JUMP JUMPDEST PUSH1 0x40 MLOAD DUP1 SWAP2 SUB SWAP1 LOG4 POP POP POP JUMP JUMPDEST PUSH0 CALLER SWAP1 POP SWAP1 JUMP JUMPDEST PUSH2 0x1B8E PUSH2 0xCE4 JUMP JUMPDEST PUSH2 0x1BCD JUMPI PUSH1 0x40 MLOAD PUSH32 0x8C379A000000000000000000000000000000000000000000000000000000000 DUP2 MSTORE PUSH1 0x4 ADD PUSH2 0x1BC4 SWAP1 PUSH2 0x2DEF JUMP JUMPDEST PUSH1 0x40 MLOAD DUP1 SWAP2 SUB SWAP1 REVERT JUMPDEST JUMP JUMPDEST PUSH1 0x40 MLOAD DUP1 PUSH1 0x80 ADD PUSH1 0x40 MSTORE DUP1 PUSH0 DUP2 MSTORE PUSH1 0x20 ADD PUSH0 DUP2 MSTORE PUSH1 0x20 ADD PUSH0 DUP2 MSTORE PUSH1 0x20 ADD PUSH0 DUP2 MSTORE POP SWAP1 JUMP JUMPDEST PUSH0 DUP1 REVERT JUMPDEST PUSH0 PUSH20 0xFFFFFFFFFFFFFFFFFFFFFFFFFFFFFFFFFFFFFFFF DUP3 AND SWAP1 POP SWAP2 SWAP1 POP JUMP JUMPDEST PUSH0 PUSH2 0x1C20 DUP3 PUSH2 0x1BF7 JUMP JUMPDEST SWAP1 POP SWAP2 SWAP1 POP JUMP JUMPDEST PUSH2 0x1C30 DUP2 PUSH2 0x1C16 JUMP JUMPDEST DUP2 EQ PUSH2 0x1C3A JUMPI PUSH0 DUP1 REVERT JUMPDEST POP JUMP JUMPDEST PUSH0 DUP2 CALLDATALOAD SWAP1 POP PUSH2 0x1C4B DUP2 PUSH2 0x1C27 JUMP JUMPDEST SWAP3 SWAP2 POP POP JUMP JUMPDEST PUSH0 DUP2 SWAP1 POP SWAP2 SWAP1 POP JUMP JUMPDEST PUSH2 0x1C63 DUP2 PUSH2 0x1C51 JUMP JUMPDEST DUP2 EQ PUSH2 0x1C6D JUMPI PUSH0 DUP1 REVERT JUMPDEST POP JUMP JUMPDEST PUSH0 DUP2 CALLDATALOAD SWAP1 POP PUSH2 0x1C7E DUP2 PUSH2 0x1C5A JUMP JUMPDEST SWAP3 SWAP2 POP POP JUMP JUMPDEST PUSH0 DUP1 PUSH1 0x40 DUP4 DUP6 SUB SLT ISZERO PUSH2 0x1C9A JUMPI PUSH2 0x1C99 PUSH2 0x1BF3 JUMP JUMPDEST JUMPDEST PUSH0 PUSH2 0x1CA7 DUP6 DUP3 DUP7 ADD PUSH2 0x1C3D JUMP JUMPDEST SWAP3 POP POP PUSH1 0x20 PUSH2 0x1CB8 DUP6 DUP3 DUP7 ADD PUSH2 0x1C70 JUMP JUMPDEST SWAP2 POP POP SWAP3 POP SWAP3 SWAP1 POP JUMP JUMPDEST PUSH2 0x1CCB DUP2 PUSH2 0x1C51 JUMP JUMPDEST DUP3 MSTORE POP POP JUMP JUMPDEST PUSH0 PUSH1 0x20 DUP3 ADD SWAP1 POP PUSH2 0x1CE4 PUSH0 DUP4 ADD DUP5 PUSH2 0x1CC2 JUMP JUMPDEST SWAP3 SWAP2 POP POP JUMP JUMPDEST PUSH0 DUP1 PUSH0 DUP1 PUSH0 DUP1 PUSH0 DUP1 PUSH2 0x100 DUP10 DUP12 SUB SLT ISZERO PUSH2 0x1D07 JUMPI PUSH2 0x1D06 PUSH2 0x1BF3 JUMP JUMPDEST JUMPDEST PUSH0 PUSH2 0x1D14 DUP12 DUP3 DUP13 ADD PUSH2 0x1C70 JUMP JUMPDEST SWAP9 POP POP PUSH1 0x20 PUSH2 0x1D25 DUP12 DUP3 DUP13 ADD PUSH2 0x1C3D JUMP JUMPDEST SWAP8 POP POP PUSH1 0x40 PUSH2 0x1D36 DUP12 DUP3 DUP13 ADD PUSH2 0x1C3D JUMP JUMPDEST SWAP7 POP POP PUSH1 0x60 PUSH2 0x1D47 DUP12 DUP3 DUP13 ADD PUSH2 0x1C3D JUMP JUMPDEST SWAP6 POP POP PUSH1 0x80 PUSH2 0x1D58 DUP12 DUP3 DUP13 ADD PUSH2 0x1C3D JUMP JUMPDEST SWAP5 POP POP PUSH1 0xA0 PUSH2 0x1D69 DUP12 DUP3 DUP13 ADD PUSH2 0x1C70 JUMP JUMPDEST SWAP4 POP POP PUSH1 0xC0 PUSH2 0x1D7A DUP12 DUP3 DUP13 ADD PUSH2 0x1C70 JUMP JUMPDEST SWAP3 POP POP PUSH1 0xE0 PUSH2 0x1D8B DUP12 DUP3 DUP13 ADD PUSH2 0x1C70 JUMP JUMPDEST SWAP2 POP POP SWAP3 SWAP6 SWAP9 POP SWAP3 SWAP6 SWAP9 SWAP1 SWAP4 SWAP7 POP JUMP JUMPDEST PUSH0 DUP1 PUSH0 DUP1 PUSH1 0x80 DUP6 DUP8 SUB SLT ISZERO PUSH2 0x1DB3 JUMPI PUSH2 0x1DB2 PUSH2 0x1BF3 JUMP JUMPDEST JUMPDEST PUSH0 PUSH2 0x1DC0 DUP8 DUP3 DUP9 ADD PUSH2 0x1C70 JUMP JUMPDEST SWAP5 POP POP PUSH1 0x20 PUSH2 0x1DD1 DUP8 DUP3 DUP9 ADD PUSH2 0x1C3D JUMP JUMPDEST SWAP4 POP POP PUSH1 0x40 PUSH2 0x1DE2 DUP8 DUP3 DUP9 ADD PUSH2 0x1C3D JUMP JUMPDEST SWAP3 POP POP PUSH1 0x60 PUSH2 0x1DF3 DUP8 DUP3 DUP9 ADD PUSH2 0x1C70 JUMP JUMPDEST SWAP2 POP POP SWAP3 SWAP6 SWAP2 SWAP5 POP SWAP3 POP JUMP JUMPDEST PUSH0 DUP2 ISZERO ISZERO SWAP1 POP SWAP2 SWAP1 POP JUMP JUMPDEST PUSH2 0x1E13 DUP2 PUSH2 0x1DFF JUMP JUMPDEST DUP3 MSTORE POP POP JUMP JUMPDEST PUSH0 PUSH1 0x20 DUP3 ADD SWAP1 POP PUSH2 0x1E2C PUSH0 DUP4 ADD DUP5 PUSH2 0x1E0A JUMP JUMPDEST SWAP3 SWAP2 POP POP JUMP JUMPDEST PUSH0 PUSH1 0x20 DUP3 DUP5 SUB SLT ISZERO PUSH2 0x1E47 JUMPI PUSH2 0x1E46 PUSH2 0x1BF3 JUMP JUMPDEST JUMPDEST PUSH0 PUSH2 0x1E54 DUP5 DUP3 DUP6 ADD PUSH2 0x1C70 JUMP JUMPDEST SWAP2 POP POP SWAP3 SWAP2 POP POP JUMP JUMPDEST PUSH0 DUP2 MLOAD SWAP1 POP SWAP2 SWAP1 POP JUMP JUMPDEST PUSH0 DUP3 DUP3 MSTORE PUSH1 0x20 DUP3 ADD SWAP1 POP SWAP3 SWAP2 POP POP JUMP JUMPDEST PUSH0 JUMPDEST DUP4 DUP2 LT ISZERO PUSH2 0x1E94 JUMPI DUP1 DUP3 ADD MLOAD DUP2 DUP5 ADD MSTORE PUSH1 0x20 DUP2 ADD SWAP1 POP PUSH2 0x1E79 JUMP JUMPDEST PUSH0 DUP5 DUP5 ADD MSTORE POP POP POP POP JUMP JUMPDEST PUSH0 PUSH1 0x1F NOT PUSH1 0x1F DUP4 ADD AND SWAP1 POP SWAP2 SWAP1 POP JUMP JUMPDEST PUSH0 PUSH2 0x1EB9 DUP3 PUSH2 0x1E5D JUMP JUMPDEST PUSH2 0x1EC3 DUP2 DUP6 PUSH2 0x1E67 JUMP JUMPDEST SWAP4 POP PUSH2 0x1ED3 DUP2 DUP6 PUSH1 0x20 DUP7 ADD PUSH2 0x1E77 JUMP JUMPDEST PUSH2 0x1EDC DUP2 PUSH2 0x1E9F JUMP JUMPDEST DUP5 ADD SWAP2 POP POP SWAP3 SWAP2 POP POP JUMP JUMPDEST PUSH0 PUSH1 0x80 DUP3 ADD SWAP1 POP DUP2 DUP2 SUB PUSH0 DUP4 ADD MSTORE PUSH2 0x1EFF DUP2 DUP8 PUSH2 0x1EAF JUMP JUMPDEST SWAP1 POP DUP2 DUP2 SUB PUSH1 0x20 DUP4 ADD MSTORE PUSH2 0x1F13 DUP2 DUP7 PUSH2 0x1EAF JUMP JUMPDEST SWAP1 POP PUSH2 0x1F22 PUSH1 0x40 DUP4 ADD DUP6 PUSH2 0x1CC2 JUMP JUMPDEST PUSH2 0x1F2F PUSH1 0x60 DUP4 ADD DUP5 PUSH2 0x1E0A JUMP JUMPDEST SWAP6 SWAP5 POP POP POP POP POP JUMP JUMPDEST PUSH2 0x1F41 DUP2 PUSH2 0x1C16 JUMP JUMPDEST DUP3 MSTORE POP POP JUMP JUMPDEST PUSH0 PUSH1 0x20 DUP3 ADD SWAP1 POP PUSH2 0x1F5A PUSH0 DUP4 ADD DUP5 PUSH2 0x1F38 JUMP JUMPDEST SWAP3 SWAP2 POP POP JUMP JUMPDEST PUSH0 PUSH1 0x60 DUP3 ADD SWAP1 POP PUSH2 0x1F73 PUSH0 DUP4 ADD DUP7 PUSH2 0x1F38 JUMP JUMPDEST PUSH2 0x1F80 PUSH1 0x20 DUP4 ADD DUP6 PUSH2 0x1CC2 JUMP JUMPDEST PUSH2 0x1F8D PUSH1 0x40 DUP4 ADD DUP5 PUSH2 0x1CC2 JUMP JUMPDEST SWAP5 SWAP4 POP POP POP POP JUMP JUMPDEST PUSH0 DUP1 PUSH0 PUSH1 0x60 DUP5 DUP7 SUB SLT ISZERO PUSH2 0x1FAC JUMPI PUSH2 0x1FAB PUSH2 0x1BF3 JUMP JUMPDEST JUMPDEST PUSH0 PUSH2 0x1FB9 DUP7 DUP3 DUP8 ADD PUSH2 0x1C70 JUMP JUMPDEST SWAP4 POP POP PUSH1 0x20 PUSH2 0x1FCA DUP7 DUP3 DUP8 ADD PUSH2 0x1C70 JUMP JUMPDEST SWAP3 POP POP PUSH1 0x40 PUSH2 0x1FDB DUP7 DUP3 DUP8 ADD PUSH2 0x1C70 JUMP JUMPDEST SWAP2 POP POP SWAP3 POP SWAP3 POP SWAP3 JUMP JUMPDEST PUSH0 PUSH1 0x80 DUP3 ADD SWAP1 POP PUSH2 0x1FF8 PUSH0 DUP4 ADD DUP8 PUSH2 0x1CC2 JUMP JUMPDEST PUSH2 0x2005 PUSH1 0x20 DUP4 ADD DUP7 PUSH2 0x1CC2 JUMP JUMPDEST PUSH2 0x2012 PUSH1 0x40 DUP4 ADD DUP6 PUSH2 0x1CC2 JUMP JUMPDEST PUSH2 0x201F PUSH1 0x60 DUP4 ADD DUP5 PUSH2 0x1CC2 JUMP JUMPDEST SWAP6 SWAP5 POP POP POP POP POP JUMP JUMPDEST PUSH0 DUP1 PUSH0 PUSH1 0x60 DUP5 DUP7 SUB SLT ISZERO PUSH2 0x203F JUMPI PUSH2 0x203E PUSH2 0x1BF3 JUMP JUMPDEST JUMPDEST PUSH0 PUSH2 0x204C DUP7 DUP3 DUP8 ADD PUSH2 0x1C3D JUMP JUMPDEST SWAP4 POP POP PUSH1 0x20 PUSH2 0x205D DUP7 DUP3 DUP8 ADD PUSH2 0x1C3D JUMP JUMPDEST SWAP3 POP POP PUSH1 0x40 PUSH2 0x206E DUP7 DUP3 DUP8 ADD PUSH2 0x1C70 JUMP JUMPDEST SWAP2 POP POP SWAP3 POP SWAP3 POP SWAP3 JUMP JUMPDEST PUSH0 DUP1 PUSH0 PUSH1 0x60 DUP5 DUP7 SUB SLT ISZERO PUSH2 0x208F JUMPI PUSH2 0x208E PUSH2 0x1BF3 JUMP JUMPDEST JUMPDEST PUSH0 PUSH2 0x209C DUP7 DUP3 DUP8 ADD PUSH2 0x1C70 JUMP JUMPDEST SWAP4 POP POP PUSH1 0x20 PUSH2 0x20AD DUP7 DUP3 DUP8 ADD PUSH2 0x1C3D JUMP JUMPDEST SWAP3 POP POP PUSH1 0x40 PUSH2 0x20BE DUP7 DUP3 DUP8 ADD PUSH2 0x1C70 JUMP JUMPDEST SWAP2 POP POP SWAP3 POP SWAP3 POP SWAP3 JUMP JUMPDEST PUSH0 PUSH1 0x20 DUP3 DUP5 SUB SLT ISZERO PUSH2 0x20DD JUMPI PUSH2 0x20DC PUSH2 0x1BF3 JUMP JUMPDEST JUMPDEST PUSH0 PUSH2 0x20EA DUP5 DUP3 DUP6 ADD PUSH2 0x1C3D JUMP JUMPDEST SWAP2 POP POP SWAP3 SWAP2 POP POP JUMP JUMPDEST PUSH32 0x4F6E6C79205061696E74696E674E465420636F6E747261637400000000000000 PUSH0 DUP3 ADD MSTORE POP JUMP JUMPDEST PUSH0 PUSH2 0x2127 PUSH1 0x19 DUP4 PUSH2 0x1E67 JUMP JUMPDEST SWAP2 POP PUSH2 0x2132 DUP3 PUSH2 0x20F3 JUMP JUMPDEST PUSH1 0x20 DUP3 ADD SWAP1 POP SWAP2 SWAP1 POP JUMP JUMPDEST PUSH0 PUSH1 0x20 DUP3 ADD SWAP1 POP DUP2 DUP2 SUB PUSH0 DUP4 ADD MSTORE PUSH2 0x2154 DUP2 PUSH2 0x211B JUMP JUMPDEST SWAP1 POP SWAP2 SWAP1 POP JUMP JUMPDEST PUSH32 0x53686172657320616C7265616479206578697374000000000000000000000000 PUSH0 DUP3 ADD MSTORE POP JUMP JUMPDEST PUSH0 PUSH2 0x218F PUSH1 0x14 DUP4 PUSH2 0x1E67 JUMP JUMPDEST SWAP2 POP PUSH2 0x219A DUP3 PUSH2 0x215B JUMP JUMPDEST PUSH1 0x20 DUP3 ADD SWAP1 POP SWAP2 SWAP1 POP JUMP JUMPDEST PUSH0 PUSH1 0x20 DUP3 ADD SWAP1 POP DUP2 DUP2 SUB PUSH0 DUP4 ADD MSTORE PUSH2 0x21BC DUP2 PUSH2 0x2183 JUMP JUMPDEST SWAP1 POP SWAP2 SWAP1 POP JUMP JUMPDEST PUSH32 0x4E487B7100000000000000000000000000000000000000000000000000000000 PUSH0 MSTORE PUSH1 0x11 PUSH1 0x4 MSTORE PUSH1 0x24 PUSH0 REVERT JUMPDEST PUSH0 PUSH2 0x21FA DUP3 PUSH2 0x1C51 JUMP JUMPDEST SWAP2 POP PUSH2 0x2205 DUP4 PUSH2 0x1C51 JUMP JUMPDEST SWAP3 POP DUP3 DUP3 ADD SWAP1 POP DUP1 DUP3 GT ISZERO PUSH2 0x221D JUMPI PUSH2 0x221C PUSH2 0x21C3 JUMP JUMPDEST JUMPDEST SWAP3 SWAP2 POP POP JUMP JUMPDEST PUSH32 0x496E76616C69642070657263656E746167657300000000000000000000000000 PUSH0 DUP3 ADD MSTORE POP JUMP JUMPDEST PUSH0 PUSH2 0x2257 PUSH1 0x13 DUP4 PUSH2 0x1E67 JUMP JUMPDEST SWAP2 POP PUSH2 0x2262 DUP3 PUSH2 0x2223 JUMP JUMPDEST PUSH1 0x20 DUP3 ADD SWAP1 POP SWAP2 SWAP1 POP JUMP JUMPDEST PUSH0 PUSH1 0x20 DUP3 ADD SWAP1 POP DUP2 DUP2 SUB PUSH0 DUP4 ADD MSTORE PUSH2 0x2284 DUP2 PUSH2 0x224B JUMP JUMPDEST SWAP1 POP SWAP2 SWAP1 POP JUMP JUMPDEST PUSH32 0x506C6174666F726D2061646D696E2063616E6E6F742062652067616C6C657279 PUSH0 DUP3 ADD MSTORE PUSH32 0x206F776E65720000000000000000000000000000000000000000000000000000 PUSH1 0x20 DUP3 ADD MSTORE POP JUMP JUMPDEST PUSH0 PUSH2 0x22E5 PUSH1 0x26 DUP4 PUSH2 0x1E67 JUMP JUMPDEST SWAP2 POP PUSH2 0x22F0 DUP3 PUSH2 0x228B JUMP JUMPDEST PUSH1 0x40 DUP3 ADD SWAP1 POP SWAP2 SWAP1 POP JUMP JUMPDEST PUSH0 PUSH1 0x20 DUP3 ADD SWAP1 POP DUP2 DUP2 SUB PUSH0 DUP4 ADD MSTORE PUSH2 0x2312 DUP2 PUSH2 0x22D9 JUMP JUMPDEST SWAP1 POP SWAP2 SWAP1 POP JUMP JUMPDEST PUSH32 0x4E487B7100000000000000000000000000000000000000000000000000000000 PUSH0 MSTORE PUSH1 0x22 PUSH1 0x4 MSTORE PUSH1 0x24 PUSH0 REVERT JUMPDEST PUSH0 PUSH1 0x2 DUP3 DIV SWAP1 POP PUSH1 0x1 DUP3 AND DUP1 PUSH2 0x235D JUMPI PUSH1 0x7F DUP3 AND SWAP2 POP JUMPDEST PUSH1 0x20 DUP3 LT DUP2 SUB PUSH2 0x2370 JUMPI PUSH2 0x236F PUSH2 0x2319 JUMP JUMPDEST JUMPDEST POP SWAP2 SWAP1 POP JUMP JUMPDEST PUSH0 DUP2 SWAP1 POP DUP2 PUSH0 MSTORE PUSH1 0x20 PUSH0 KECCAK256 SWAP1 POP SWAP2 SWAP1 POP JUMP JUMPDEST PUSH0 DUP2 SLOAD PUSH2 0x2394 DUP2 PUSH2 0x2346 JUMP JUMPDEST PUSH2 0x239E DUP2 DUP7 PUSH2 0x1E67 JUMP JUMPDEST SWAP5 POP PUSH1 0x1 DUP3 AND PUSH0 DUP2 EQ PUSH2 0x23B8 JUMPI PUSH1 0x1 DUP2 EQ PUSH2 0x23CE JUMPI PUSH2 0x2400 JUMP JUMPDEST PUSH1 0xFF NOT DUP4 AND DUP7 MSTORE DUP2 ISZERO ISZERO PUSH1 0x20 MUL DUP7 ADD SWAP4 POP PUSH2 0x2400 JUMP JUMPDEST PUSH2 0x23D7 DUP6 PUSH2 0x2376 JUMP JUMPDEST PUSH0 JUMPDEST DUP4 DUP2 LT ISZERO PUSH2 0x23F8 JUMPI DUP2 SLOAD DUP2 DUP10 ADD MSTORE PUSH1 0x1 DUP3 ADD SWAP2 POP PUSH1 0x20 DUP2 ADD SWAP1 POP PUSH2 0x23D9 JUMP JUMPDEST DUP1 DUP9 ADD SWAP6 POP POP POP JUMPDEST POP POP POP SWAP3 SWAP2 POP POP JUMP JUMPDEST PUSH0 PUSH1 0xC0 DUP3 ADD SWAP1 POP DUP2 DUP2 SUB PUSH0 DUP4 ADD MSTORE PUSH2 0x2421 DUP2 DUP10 PUSH2 0x2388 JUMP JUMPDEST SWAP1 POP DUP2 DUP2 SUB PUSH1 0x20 DUP4 ADD MSTORE PUSH2 0x2435 DUP2 DUP9 PUSH2 0x2388 JUMP JUMPDEST SWAP1 POP PUSH2 0x2444 PUSH1 0x40 DUP4 ADD DUP8 PUSH2 0x1CC2 JUMP JUMPDEST PUSH2 0x2451 PUSH1 0x60 DUP4 ADD DUP7 PUSH2 0x1CC2 JUMP JUMPDEST PUSH2 0x245E PUSH1 0x80 DUP4 ADD DUP6 PUSH2 0x1CC2 JUMP JUMPDEST PUSH2 0x246B PUSH1 0xA0 DUP4 ADD DUP5 PUSH2 0x1CC2 JUMP JUMPDEST SWAP8 SWAP7 POP POP POP POP POP POP POP JUMP JUMPDEST PUSH32 0x53686172657320646F6E277420657869737420666F722074686973207061696E PUSH0 DUP3 ADD MSTORE PUSH32 0x74696E6700000000000000000000000000000000000000000000000000000000 PUSH1 0x20 DUP3 ADD MSTORE POP JUMP JUMPDEST PUSH0 PUSH2 0x24D0 PUSH1 0x24 DUP4 PUSH2 0x1E67 JUMP JUMPDEST SWAP2 POP PUSH2 0x24DB DUP3 PUSH2 0x2476 JUMP JUMPDEST PUSH1 0x40 DUP3 ADD SWAP1 POP SWAP2 SWAP1 POP JUMP JUMPDEST PUSH0 PUSH1 0x20 DUP3 ADD SWAP1 POP DUP2 DUP2 SUB PUSH0 DUP4 ADD MSTORE PUSH2 0x24FD DUP2 PUSH2 0x24C4 JUMP JUMPDEST SWAP1 POP SWAP2 SWAP1 POP JUMP JUMPDEST PUSH32 0x5472616E7366657220746F207A65726F20616464726573730000000000000000 PUSH0 DUP3 ADD MSTORE POP JUMP JUMPDEST PUSH0 PUSH2 0x2538 PUSH1 0x18 DUP4 PUSH2 0x1E67 JUMP JUMPDEST SWAP2 POP PUSH2 0x2543 DUP3 PUSH2 0x2504 JUMP JUMPDEST PUSH1 0x20 DUP3 ADD SWAP1 POP SWAP2 SWAP1 POP JUMP JUMPDEST PUSH0 PUSH1 0x20 DUP3 ADD SWAP1 POP DUP2 DUP2 SUB PUSH0 DUP4 ADD MSTORE PUSH2 0x2565 DUP2 PUSH2 0x252C JUMP JUMPDEST SWAP1 POP SWAP2 SWAP1 POP JUMP JUMPDEST PUSH32 0x496E73756666696369656E742062616C616E6365000000000000000000000000 PUSH0 DUP3 ADD MSTORE POP JUMP JUMPDEST PUSH0 PUSH2 0x25A0 PUSH1 0x14 DUP4 PUSH2 0x1E67 JUMP JUMPDEST SWAP2 POP PUSH2 0x25AB DUP3 PUSH2 0x256C JUMP JUMPDEST PUSH1 0x20 DUP3 ADD SWAP1 POP SWAP2 SWAP1 POP JUMP JUMPDEST PUSH0 PUSH1 0x20 DUP3 ADD SWAP1 POP DUP2 DUP2 SUB PUSH0 DUP4 ADD MSTORE PUSH2 0x25CD DUP2 PUSH2 0x2594 JUMP JUMPDEST SWAP1 POP SWAP2 SWAP1 POP JUMP JUMPDEST PUSH32 0x496E73756666696369656E7420616C6C6F77616E636500000000000000000000 PUSH0 DUP3 ADD MSTORE POP JUMP JUMPDEST PUSH0 PUSH2 0x2608 PUSH1 0x16 DUP4 PUSH2 0x1E67 JUMP JUMPDEST SWAP2 POP PUSH2 0x2613 DUP3 PUSH2 0x25D4 JUMP JUMPDEST PUSH1 0x20 DUP3 ADD SWAP1 POP SWAP2 SWAP1 POP JUMP JUMPDEST PUSH0 PUSH1 0x20 DUP3 ADD SWAP1 POP DUP2 DUP2 SUB PUSH0 DUP4 ADD MSTORE PUSH2 0x2635 DUP2 PUSH2 0x25FC JUMP JUMPDEST SWAP1 POP SWAP2 SWAP1 POP JUMP JUMPDEST PUSH0 PUSH2 0x2646 DUP3 PUSH2 0x1C51 JUMP JUMPDEST SWAP2 POP PUSH2 0x2651 DUP4 PUSH2 0x1C51 JUMP JUMPDEST SWAP3 POP DUP3 DUP3 SUB SWAP1 POP DUP2 DUP2 GT ISZERO PUSH2 0x2669 JUMPI PUSH2 0x2668 PUSH2 0x21C3 JUMP JUMPDEST JUMPDEST SWAP3 SWAP2 POP POP JUMP JUMPDEST PUSH0 PUSH2 0x2679 DUP3 PUSH2 0x1C51 JUMP JUMPDEST SWAP2 POP PUSH2 0x2684 DUP4 PUSH2 0x1C51 JUMP JUMPDEST SWAP3 POP DUP3 DUP3 MUL PUSH2 0x2692 DUP2 PUSH2 0x1C51 JUMP JUMPDEST SWAP2 POP DUP3 DUP3 DIV DUP5 EQ DUP4 ISZERO OR PUSH2 0x26A9 JUMPI PUSH2 0x26A8 PUSH2 0x21C3 JUMP JUMPDEST JUMPDEST POP SWAP3 SWAP2 POP POP JUMP JUMPDEST PUSH32 0x4E487B7100000000000000000000000000000000000000000000000000000000 PUSH0 MSTORE PUSH1 0x12 PUSH1 0x4 MSTORE PUSH1 0x24 PUSH0 REVERT JUMPDEST PUSH0 PUSH2 0x26E7 DUP3 PUSH2 0x1C51 JUMP JUMPDEST SWAP2 POP PUSH2 0x26F2 DUP4 PUSH2 0x1C51 JUMP JUMPDEST SWAP3 POP DUP3 PUSH2 0x2702 JUMPI PUSH2 0x2701 PUSH2 0x26B0 JUMP JUMPDEST JUMPDEST DUP3 DUP3 DIV SWAP1 POP SWAP3 SWAP2 POP POP JUMP JUMPDEST PUSH32 0x417070726F766520746F207A65726F2061646472657373000000000000000000 PUSH0 DUP3 ADD MSTORE POP JUMP JUMPDEST PUSH0 PUSH2 0x2741 PUSH1 0x17 DUP4 PUSH2 0x1E67 JUMP JUMPDEST SWAP2 POP PUSH2 0x274C DUP3 PUSH2 0x270D JUMP JUMPDEST PUSH1 0x20 DUP3 ADD SWAP1 POP SWAP2 SWAP1 POP JUMP JUMPDEST PUSH0 PUSH1 0x20 DUP3 ADD SWAP1 POP DUP2 DUP2 SUB PUSH0 DUP4 ADD MSTORE PUSH2 0x276E DUP2 PUSH2 0x2735 JUMP JUMPDEST SWAP1 POP SWAP2 SWAP1 POP JUMP JUMPDEST PUSH32 0x496E76616C696420616464726573730000000000000000000000000000000000 PUSH0 DUP3 ADD MSTORE POP JUMP JUMPDEST PUSH0 PUSH2 0x27A9 PUSH1 0xF DUP4 PUSH2 0x1E67 JUMP JUMPDEST SWAP2 POP PUSH2 0x27B4 DUP3 PUSH2 0x2775 JUMP JUMPDEST PUSH1 0x20 DUP3 ADD SWAP1 POP SWAP2 SWAP1 POP JUMP JUMPDEST PUSH0 PUSH1 0x20 DUP3 ADD SWAP1 POP DUP2 DUP2 SUB PUSH0 DUP4 ADD MSTORE PUSH2 0x27D6 DUP2 PUSH2 0x279D JUMP JUMPDEST SWAP1 POP SWAP2 SWAP1 POP JUMP JUMPDEST PUSH32 0x5061757361626C653A2070617573656400000000000000000000000000000000 PUSH0 DUP3 ADD MSTORE POP JUMP JUMPDEST PUSH0 PUSH2 0x2811 PUSH1 0x10 DUP4 PUSH2 0x1E67 JUMP JUMPDEST SWAP2 POP PUSH2 0x281C DUP3 PUSH2 0x27DD JUMP JUMPDEST PUSH1 0x20 DUP3 ADD SWAP1 POP SWAP2 SWAP1 POP JUMP JUMPDEST PUSH0 PUSH1 0x20 DUP3 ADD SWAP1 POP DUP2 DUP2 SUB PUSH0 DUP4 ADD MSTORE PUSH2 0x283E DUP2 PUSH2 0x2805 JUMP JUMPDEST SWAP1 POP SWAP2 SWAP1 POP JUMP JUMPDEST PUSH0 DUP2 SWAP1 POP SWAP3 SWAP2 POP POP JUMP JUMPDEST PUSH32 0x5061696E74696E67200000000000000000000000000000000000000000000000 PUSH0 DUP3 ADD MSTORE POP JUMP JUMPDEST PUSH0 PUSH2 0x2883 PUSH1 0x9 DUP4 PUSH2 0x2845 JUMP JUMPDEST SWAP2 POP PUSH2 0x288E DUP3 PUSH2 0x284F JUMP JUMPDEST PUSH1 0x9 DUP3 ADD SWAP1 POP SWAP2 SWAP1 POP JUMP JUMPDEST PUSH0 PUSH2 0x28A3 DUP3 PUSH2 0x1E5D JUMP JUMPDEST PUSH2 0x28AD DUP2 DUP6 PUSH2 0x2845 JUMP JUMPDEST SWAP4 POP PUSH2 0x28BD DUP2 DUP6 PUSH1 0x20 DUP7 ADD PUSH2 0x1E77 JUMP JUMPDEST DUP1 DUP5 ADD SWAP2 POP POP SWAP3 SWAP2 POP POP JUMP JUMPDEST PUSH32 0x2053686172657300000000000000000000000000000000000000000000000000 PUSH0 DUP3 ADD MSTORE POP JUMP JUMPDEST PUSH0 PUSH2 0x28FD PUSH1 0x7 DUP4 PUSH2 0x2845 JUMP JUMPDEST SWAP2 POP PUSH2 0x2908 DUP3 PUSH2 0x28C9 JUMP JUMPDEST PUSH1 0x7 DUP3 ADD SWAP1 POP SWAP2 SWAP1 POP JUMP JUMPDEST PUSH0 PUSH2 0x291D DUP3 PUSH2 0x2877 JUMP JUMPDEST SWAP2 POP PUSH2 0x2929 DUP3 DUP5 PUSH2 0x2899 JUMP JUMPDEST SWAP2 POP PUSH2 0x2934 DUP3 PUSH2 0x28F1 JUMP JUMPDEST SWAP2 POP DUP2 SWAP1 POP SWAP3 SWAP2 POP POP JUMP JUMPDEST PUSH32 0x5041494E54000000000000000000000000000000000000000000000000000000 PUSH0 DUP3 ADD MSTORE POP JUMP JUMPDEST PUSH0 PUSH2 0x2973 PUSH1 0x5 DUP4 PUSH2 0x2845 JUMP JUMPDEST SWAP2 POP PUSH2 0x297E DUP3 PUSH2 0x293F JUMP JUMPDEST PUSH1 0x5 DUP3 ADD SWAP1 POP SWAP2 SWAP1 POP JUMP JUMPDEST PUSH0 PUSH2 0x2993 DUP3 PUSH2 0x2967 JUMP JUMPDEST SWAP2 POP PUSH2 0x299F DUP3 DUP5 PUSH2 0x2899 JUMP JUMPDEST SWAP2 POP DUP2 SWAP1 POP SWAP3 SWAP2 POP POP JUMP JUMPDEST PUSH32 0x4E487B7100000000000000000000000000000000000000000000000000000000 PUSH0 MSTORE PUSH1 0x41 PUSH1 0x4 MSTORE PUSH1 0x24 PUSH0 REVERT JUMPDEST PUSH0 PUSH1 0x20 PUSH1 0x1F DUP4 ADD DIV SWAP1 POP SWAP2 SWAP1 POP JUMP JUMPDEST PUSH0 DUP3 DUP3 SHL SWAP1 POP SWAP3 SWAP2 POP POP JUMP JUMPDEST PUSH0 PUSH1 0x8 DUP4 MUL PUSH2 0x2A21 PUSH32 0xFFFFFFFFFFFFFFFFFFFFFFFFFFFFFFFFFFFFFFFFFFFFFFFFFFFFFFFFFFFFFFFF DUP3 PUSH2 0x29E6 JUMP JUMPDEST PUSH2 0x2A2B DUP7 DUP4 PUSH2 0x29E6 JUMP JUMPDEST SWAP6 POP DUP1 NOT DUP5 AND SWAP4 POP DUP1 DUP7 AND DUP5 OR SWAP3 POP POP POP SWAP4 SWAP3 POP POP POP JUMP JUMPDEST PUSH0 DUP2 SWAP1 POP SWAP2 SWAP1 POP JUMP JUMPDEST PUSH0 PUSH2 0x2A66 PUSH2 0x2A61 PUSH2 0x2A5C DUP5 PUSH2 0x1C51 JUMP JUMPDEST PUSH2 0x2A43 JUMP JUMPDEST PUSH2 0x1C51 JUMP JUMPDEST SWAP1 POP SWAP2 SWAP1 POP JUMP JUMPDEST PUSH0 DUP2 SWAP1 POP SWAP2 SWAP1 POP JUMP JUMPDEST PUSH2 0x2A7F DUP4 PUSH2 0x2A4C JUMP JUMPDEST PUSH2 0x2A93 PUSH2 0x2A8B DUP3 PUSH2 0x2A6D JUMP JUMPDEST DUP5 DUP5 SLOAD PUSH2 0x29F2 JUMP JUMPDEST DUP3 SSTORE POP POP POP POP JUMP JUMPDEST PUSH0 SWAP1 JUMP JUMPDEST PUSH2 0x2AA7 PUSH2 0x2A9B JUMP JUMPDEST PUSH2 0x2AB2 DUP2 DUP5 DUP5 PUSH2 0x2A76 JUMP JUMPDEST POP POP POP JUMP JUMPDEST JUMPDEST DUP2 DUP2 LT ISZERO PUSH2 0x2AD5 JUMPI PUSH2 0x2ACA PUSH0 DUP3 PUSH2 0x2A9F JUMP JUMPDEST PUSH1 0x1 DUP2 ADD SWAP1 POP PUSH2 0x2AB8 JUMP JUMPDEST POP POP JUMP JUMPDEST PUSH1 0x1F DUP3 GT ISZERO PUSH2 0x2B1A JUMPI PUSH2 0x2AEB DUP2 PUSH2 0x2376 JUMP JUMPDEST PUSH2 0x2AF4 DUP5 PUSH2 0x29D7 JUMP JUMPDEST DUP2 ADD PUSH1 0x20 DUP6 LT ISZERO PUSH2 0x2B03 JUMPI DUP2 SWAP1 POP JUMPDEST PUSH2 0x2B17 PUSH2 0x2B0F DUP6 PUSH2 0x29D7 JUMP JUMPDEST DUP4 ADD DUP3 PUSH2 0x2AB7 JUMP JUMPDEST POP POP JUMPDEST POP POP POP JUMP JUMPDEST PUSH0 DUP3 DUP3 SHR SWAP1 POP SWAP3 SWAP2 POP POP JUMP JUMPDEST PUSH0 PUSH2 0x2B3A PUSH0 NOT DUP5 PUSH1 0x8 MUL PUSH2 0x2B1F JUMP JUMPDEST NOT DUP1 DUP4 AND SWAP2 POP POP SWAP3 SWAP2 POP POP JUMP JUMPDEST PUSH0 PUSH2 0x2B52 DUP4 DUP4 PUSH2 0x2B2B JUMP JUMPDEST SWAP2 POP DUP3 PUSH1 0x2 MUL DUP3 OR SWAP1 POP SWAP3 SWAP2 POP POP JUMP JUMPDEST PUSH2 0x2B6B DUP3 PUSH2 0x1E5D JUMP JUMPDEST PUSH8 0xFFFFFFFFFFFFFFFF DUP2 GT ISZERO PUSH2 0x2B84 JUMPI PUSH2 0x2B83 PUSH2 0x29AA JUMP JUMPDEST JUMPDEST PUSH2 0x2B8E DUP3 SLOAD PUSH2 0x2346 JUMP JUMPDEST PUSH2 0x2B99 DUP3 DUP3 DUP6 PUSH2 0x2AD9 JUMP JUMPDEST PUSH0 PUSH1 0x20 SWAP1 POP PUSH1 0x1F DUP4 GT PUSH1 0x1 DUP2 EQ PUSH2 0x2BCA JUMPI PUSH0 DUP5 ISZERO PUSH2 0x2BB8 JUMPI DUP3 DUP8 ADD MLOAD SWAP1 POP JUMPDEST PUSH2 0x2BC2 DUP6 DUP3 PUSH2 0x2B47 JUMP JUMPDEST DUP7 SSTORE POP PUSH2 0x2C29 JUMP JUMPDEST PUSH1 0x1F NOT DUP5 AND PUSH2 0x2BD8 DUP7 PUSH2 0x2376 JUMP JUMPDEST PUSH0 JUMPDEST DUP3 DUP2 LT ISZERO PUSH2 0x2BFF JUMPI DUP5 DUP10 ADD MLOAD DUP3 SSTORE PUSH1 0x1 DUP3 ADD SWAP2 POP PUSH1 0x20 DUP6 ADD SWAP5 POP PUSH1 0x20 DUP2 ADD SWAP1 POP PUSH2 0x2BDA JUMP JUMPDEST DUP7 DUP4 LT ISZERO PUSH2 0x2C1C JUMPI DUP5 DUP10 ADD MLOAD PUSH2 0x2C18 PUSH1 0x1F DUP10 AND DUP3 PUSH2 0x2B2B JUMP JUMPDEST DUP4 SSTORE POP JUMPDEST PUSH1 0x1 PUSH1 0x2 DUP9 MUL ADD DUP9 SSTORE POP POP POP JUMPDEST POP POP POP POP POP POP JUMP JUMPDEST PUSH32 0x5265656E7472616E637947756172643A207265656E7472616E742063616C6C00 PUSH0 DUP3 ADD MSTORE POP JUMP JUMPDEST PUSH0 PUSH2 0x2C65 PUSH1 0x1F DUP4 PUSH2 0x1E67 JUMP JUMPDEST SWAP2 POP PUSH2 0x2C70 DUP3 PUSH2 0x2C31 JUMP JUMPDEST PUSH1 0x20 DUP3 ADD SWAP1 POP SWAP2 SWAP1 POP JUMP JUMPDEST PUSH0 PUSH1 0x20 DUP3 ADD SWAP1 POP DUP2 DUP2 SUB PUSH0 DUP4 ADD MSTORE PUSH2 0x2C92 DUP2 PUSH2 0x2C59 JUMP JUMPDEST SWAP1 POP SWAP2 SWAP1 POP JUMP JUMPDEST PUSH0 PUSH2 0x2CA3 DUP3 PUSH2 0x1C51 JUMP JUMPDEST SWAP2 POP PUSH32 0xFFFFFFFFFFFFFFFFFFFFFFFFFFFFFFFFFFFFFFFFFFFFFFFFFFFFFFFFFFFFFFFF DUP3 SUB PUSH2 0x2CD5 JUMPI PUSH2 0x2CD4 PUSH2 0x21C3 JUMP JUMPDEST JUMPDEST PUSH1 0x1 DUP3 ADD SWAP1 POP SWAP2 SWAP1 POP JUMP JUMPDEST PUSH0 PUSH2 0x2CEA DUP3 PUSH2 0x1C51 JUMP JUMPDEST SWAP2 POP PUSH2 0x2CF5 DUP4 PUSH2 0x1C51 JUMP JUMPDEST SWAP3 POP DUP3 PUSH2 0x2D05 JUMPI PUSH2 0x2D04 PUSH2 0x26B0 JUMP JUMPDEST JUMPDEST DUP3 DUP3 MOD SWAP1 POP SWAP3 SWAP2 POP POP JUMP JUMPDEST PUSH32 0x4E487B7100000000000000000000000000000000000000000000000000000000 PUSH0 MSTORE PUSH1 0x32 PUSH1 0x4 MSTORE PUSH1 0x24 PUSH0 REVERT JUMPDEST PUSH32 0x4D696E7420746F207A65726F2061646472657373000000000000000000000000 PUSH0 DUP3 ADD MSTORE POP JUMP JUMPDEST PUSH0 PUSH2 0x2D71 PUSH1 0x14 DUP4 PUSH2 0x1E67 JUMP JUMPDEST SWAP2 POP PUSH2 0x2D7C DUP3 PUSH2 0x2D3D JUMP JUMPDEST PUSH1 0x20 DUP3 ADD SWAP1 POP SWAP2 SWAP1 POP JUMP JUMPDEST PUSH0 PUSH1 0x20 DUP3 ADD SWAP1 POP DUP2 DUP2 SUB PUSH0 DUP4 ADD MSTORE PUSH2 0x2D9E DUP2 PUSH2 0x2D65 JUMP JUMPDEST SWAP1 POP SWAP2 SWAP1 POP JUMP JUMPDEST PUSH32 0x5061757361626C653A206E6F7420706175736564000000000000000000000000 PUSH0 DUP3 ADD MSTORE POP JUMP JUMPDEST PUSH0 PUSH2 0x2DD9 PUSH1 0x14 DUP4 PUSH2 0x1E67 JUMP JUMPDEST SWAP2 POP PUSH2 0x2DE4 DUP3 PUSH2 0x2DA5 JUMP JUMPDEST PUSH1 0x20 DUP3 ADD SWAP1 POP SWAP2 SWAP1 POP JUMP JUMPDEST PUSH0 PUSH1 0x20 DUP3 ADD SWAP1 POP DUP2 DUP2 SUB PUSH0 DUP4 ADD MSTORE PUSH2 0x2E06 DUP2 PUSH2 0x2DCD JUMP JUMPDEST SWAP1 POP SWAP2 SWAP1 POP JUMP INVALID LOG2 PUSH5 0x6970667358 0x22 SLT KECCAK256 EXTCODECOPY OR MUL DUP1 0xBE PUSH14 0x8D5C0897014CEF0BD6C6552A7DDE DUP3 0xC1 SDIV SWAP4 GASPRICE PC SSTORE 0xF ORIGIN 0xB3 MULMOD 0xF PUSH5 0x736F6C6343 STOP ADDMOD EQ STOP CALLER "
				},
				"gasEstimates": {
					"creation": {
						"codeDepositCost": "2368600",
						"executionCost": "infinite",
						"totalCost": "infinite"
					},
					"external": {
						"TOTAL_SHARES()": "436",
						"allowance(address,address,uint256)": "infinite",
						"approve(uint256,address,uint256)": "infinite",
						"balanceOf(address,uint256)": "infinite",
						"createSharesForPainting(uint256,address,address,address,address,uint256,uint256,uint256)": "infinite",
						"debugPlatformAdmin()": "infinite",
						"debugShareCalculation(uint256,uint256,uint256)": "infinite",
						"getShareInfo(uint256)": "infinite",
						"owner()": "2559",
						"paintingNFTContract()": "2531",
						"pause()": "infinite",
						"paused()": "2569",
						"renounceOwnership()": "infinite",
						"setPaintingNFTContract(address)": "infinite",
						"shares(uint256)": "infinite",
						"transfer(uint256,address,uint256)": "infinite",
						"transferFrom(uint256,address,address,uint256)": "infinite",
						"transferOwnership(address)": "infinite",
						"unpause()": "infinite"
					},
					"internal": {
						"_calculateShares(uint256,uint256,uint256)": "infinite",
						"_distributeShares(uint256,address,address,address,address,struct PaintingShares.ShareCalculation memory)": "infinite",
						"_initializeShares(uint256)": "infinite",
						"_mintShares(uint256,address,uint256)": "infinite",
						"_toString(uint256)": "infinite",
						"_transfer(uint256,address,address,uint256)": "infinite"
					}
				},
				"methodIdentifiers": {
					"TOTAL_SHARES()": "85e3f997",
					"allowance(address,address,uint256)": "598af9e7",
					"approve(uint256,address,uint256)": "8cb0a511",
					"balanceOf(address,uint256)": "00fdd58e",
					"createSharesForPainting(uint256,address,address,address,address,uint256,uint256,uint256)": "17ba1245",
					"debugPlatformAdmin()": "4a03fa83",
					"debugShareCalculation(uint256,uint256,uint256)": "5258ff13",
					"getShareInfo(uint256)": "1d92d3b9",
					"owner()": "8da5cb5b",
					"paintingNFTContract()": "277b9efe",
					"pause()": "8456cb59",
					"paused()": "5c975abb",
					"renounceOwnership()": "715018a6",
					"setPaintingNFTContract(address)": "ad324cce",
					"shares(uint256)": "57a858fc",
					"transfer(uint256,address,uint256)": "f8548e36",
					"transferFrom(uint256,address,address,uint256)": "1c0f12b6",
					"transferOwnership(address)": "f2fde38b",
					"unpause()": "3f4ba83a"
				}
			},
			"storageLayout": {
				"storage": [
					{
						"astId": 8,
						"contract": "Wallery/PaintingShares.sol:PaintingShares",
						"label": "_owner",
						"offset": 0,
						"slot": "0",
						"type": "t_address"
					},
					{
						"astId": 165,
						"contract": "Wallery/PaintingShares.sol:PaintingShares",
						"label": "_paused",
						"offset": 20,
						"slot": "0",
						"type": "t_bool"
					},
					{
						"astId": 266,
						"contract": "Wallery/PaintingShares.sol:PaintingShares",
						"label": "_status",
						"offset": 0,
						"slot": "1",
						"type": "t_uint256"
					},
					{
						"astId": 391,
						"contract": "Wallery/PaintingShares.sol:PaintingShares",
						"label": "shares",
						"offset": 0,
						"slot": "2",
						"type": "t_mapping(t_uint256,t_struct(ShareInfo)386_storage)"
					},
					{
						"astId": 397,
						"contract": "Wallery/PaintingShares.sol:PaintingShares",
						"label": "balanceOf",
						"offset": 0,
						"slot": "3",
						"type": "t_mapping(t_address,t_mapping(t_uint256,t_uint256))"
					},
					{
						"astId": 405,
						"contract": "Wallery/PaintingShares.sol:PaintingShares",
						"label": "allowance",
						"offset": 0,
						"slot": "4",
						"type": "t_mapping(t_address,t_mapping(t_address,t_mapping(t_uint256,t_uint256)))"
					},
					{
						"astId": 407,
						"contract": "Wallery/PaintingShares.sol:PaintingShares",
						"label": "paintingNFTContract",
						"offset": 0,
						"slot": "5",
						"type": "t_address"
					}
				],
				"types": {
					"t_address": {
						"encoding": "inplace",
						"label": "address",
						"numberOfBytes": "20"
					},
					"t_bool": {
						"encoding": "inplace",
						"label": "bool",
						"numberOfBytes": "1"
					},
					"t_mapping(t_address,t_mapping(t_address,t_mapping(t_uint256,t_uint256)))": {
						"encoding": "mapping",
						"key": "t_address",
						"label": "mapping(address => mapping(address => mapping(uint256 => uint256)))",
						"numberOfBytes": "32",
						"value": "t_mapping(t_address,t_mapping(t_uint256,t_uint256))"
					},
					"t_mapping(t_address,t_mapping(t_uint256,t_uint256))": {
						"encoding": "mapping",
						"key": "t_address",
						"label": "mapping(address => mapping(uint256 => uint256))",
						"numberOfBytes": "32",
						"value": "t_mapping(t_uint256,t_uint256)"
					},
					"t_mapping(t_address,t_uint256)": {
						"encoding": "mapping",
						"key": "t_address",
						"label": "mapping(address => uint256)",
						"numberOfBytes": "32",
						"value": "t_uint256"
					},
					"t_mapping(t_uint256,t_struct(ShareInfo)386_storage)": {
						"encoding": "mapping",
						"key": "t_uint256",
						"label": "mapping(uint256 => struct PaintingShares.ShareInfo)",
						"numberOfBytes": "32",
						"value": "t_struct(ShareInfo)386_storage"
					},
					"t_mapping(t_uint256,t_uint256)": {
						"encoding": "mapping",
						"key": "t_uint256",
						"label": "mapping(uint256 => uint256)",
						"numberOfBytes": "32",
						"value": "t_uint256"
					},
					"t_string_storage": {
						"encoding": "bytes",
						"label": "string",
						"numberOfBytes": "32"
					},
					"t_struct(ShareInfo)386_storage": {
						"encoding": "inplace",
						"label": "struct PaintingShares.ShareInfo",
						"members": [
							{
								"astId": 375,
								"contract": "Wallery/PaintingShares.sol:PaintingShares",
								"label": "name",
								"offset": 0,
								"slot": "0",
								"type": "t_string_storage"
							},
							{
								"astId": 377,
								"contract": "Wallery/PaintingShares.sol:PaintingShares",
								"label": "symbol",
								"offset": 0,
								"slot": "1",
								"type": "t_string_storage"
							},
							{
								"astId": 379,
								"contract": "Wallery/PaintingShares.sol:PaintingShares",
								"label": "totalSupply",
								"offset": 0,
								"slot": "2",
								"type": "t_uint256"
							},
							{
								"astId": 381,
								"contract": "Wallery/PaintingShares.sol:PaintingShares",
								"label": "exists",
								"offset": 0,
								"slot": "3",
								"type": "t_bool"
							},
							{
								"astId": 385,
								"contract": "Wallery/PaintingShares.sol:PaintingShares",
								"label": "balances",
								"offset": 0,
								"slot": "4",
								"type": "t_mapping(t_address,t_uint256)"
							}
						],
						"numberOfBytes": "160"
					},
					"t_uint256": {
						"encoding": "inplace",
						"label": "uint256",
						"numberOfBytes": "32"
					}
				}
			},
			"userdoc": {
				"kind": "user",
				"methods": {},
				"version": 1
			}
		}
	}
}