{
	"data": {
		"bytecode": {
			"linkReferences": {},
			"object": "608060405234801561000f575f80fd5b50336040518060400160405280601d81526020017f4c75787572792050726f647563742041757468656e7469636174696f6e0000008152506040518060400160405280600381526020017f4c50410000000000000000000000000000000000000000000000000000000000815250815f908161008b9190610420565b50806001908161009b9190610420565b5050505f73ffffffffffffffffffffffffffffffffffffffff168173ffffffffffffffffffffffffffffffffffffffff160361010e575f6040517f1e4fbdf7000000000000000000000000000000000000000000000000000000008152600401610105919061052e565b60405180910390fd5b61011d8161012360201b60201c565b50610547565b5f60065f9054906101000a900473ffffffffffffffffffffffffffffffffffffffff1690508160065f6101000a81548173ffffffffffffffffffffffffffffffffffffffff021916908373ffffffffffffffffffffffffffffffffffffffff1602179055508173ffffffffffffffffffffffffffffffffffffffff168173ffffffffffffffffffffffffffffffffffffffff167f8be0079c531659141344cd1fd0a4f28419497f9722a3daafe3b4186f6b6457e060405160405180910390a35050565b5f81519050919050565b7f4e487b71000000000000000000000000000000000000000000000000000000005f52604160045260245ffd5b7f4e487b71000000000000000000000000000000000000000000000000000000005f52602260045260245ffd5b5f600282049050600182168061026157607f821691505b6020821081036102745761027361021d565b5b50919050565b5f819050815f5260205f209050919050565b5f6020601f8301049050919050565b5f82821b905092915050565b5f600883026102d67fffffffffffffffffffffffffffffffffffffffffffffffffffffffffffffffff8261029b565b6102e0868361029b565b95508019841693508086168417925050509392505050565b5f819050919050565b5f819050919050565b5f61032461031f61031a846102f8565b610301565b6102f8565b9050919050565b5f819050919050565b61033d8361030a565b6103516103498261032b565b8484546102a7565b825550505050565b5f90565b610365610359565b610370818484610334565b505050565b5b81811015610393576103885f8261035d565b600181019050610376565b5050565b601f8211156103d8576103a98161027a565b6103b28461028c565b810160208510156103c1578190505b6103d56103cd8561028c565b830182610375565b50505b505050565b5f82821c905092915050565b5f6103f85f19846008026103dd565b1980831691505092915050565b5f61041083836103e9565b9150826002028217905092915050565b610429826101e6565b67ffffffffffffffff811115610442576104416101f0565b5b61044c825461024a565b610457828285610397565b5f60209050601f831160018114610488575f8415610476578287015190505b6104808582610405565b8655506104e7565b601f1984166104968661027a565b5f5b828110156104bd57848901518255600182019150602085019450602081019050610498565b868310156104da57848901516104d6601f8916826103e9565b8355505b6001600288020188555050505b505050505050565b5f73ffffffffffffffffffffffffffffffffffffffff82169050919050565b5f610518826104ef565b9050919050565b6105288161050e565b82525050565b5f6020820190506105415f83018461051f565b92915050565b613c03806105545f395ff3fe608060405234801561000f575f80fd5b5060043610610132575f3560e01c806370a08231116100b6578063a22cb4651161007a578063a22cb46514610346578063b88d4fde14610362578063bd81cfa01461037e578063c87b56dd146103ae578063e985e9c5146103de578063f2fde38b1461040e57610132565b806370a08231146102a0578063715018a6146102d05780637e2c579f146102da5780638da5cb5b1461030a57806395d89b411461032857610132565b8063095ea7b3116100fd578063095ea7b31461020057806323b872dd1461021c57806333977e2f1461023857806342842e0e146102545780636352211e1461027057610132565b8061ed0614610136578062c966be1461015257806301ffc9a71461018257806306fdde03146101b2578063081812fc146101d0575b5f80fd5b610150600480360381019061014b9190612c48565b61042a565b005b61016c60048036038101906101679190612cb4565b6106ad565b6040516101799190612dee565b60405180910390f35b61019c60048036038101906101979190612e63565b610801565b6040516101a99190612e9d565b60405180910390f35b6101ba6108e2565b6040516101c79190612f16565b60405180910390f35b6101ea60048036038101906101e59190612f36565b610971565b6040516101f79190612f70565b60405180910390f35b61021a60048036038101906102159190612f89565b61098c565b005b61023660048036038101906102319190612fc7565b6109a2565b005b610252600480360381019061024d9190613017565b610aa1565b005b61026e60048036038101906102699190612fc7565b610c18565b005b61028a60048036038101906102859190612f36565b610c37565b6040516102979190612f70565b60405180910390f35b6102ba60048036038101906102b59190613083565b610c48565b6040516102c791906130bd565b60405180910390f35b6102d8610cfe565b005b6102f460048036038101906102ef9190613017565b610d11565b6040516103019190612e9d565b60405180910390f35b610312610ddd565b60405161031f9190612f70565b60405180910390f35b610330610e05565b60405161033d9190612f16565b60405180910390f35b610360600480360381019061035b91906130d6565b610e95565b005b61037c600480360381019061037791906131b2565b610eab565b005b61039860048036038101906103939190612cb4565b610ed0565b6040516103a591906134c3565b60405180910390f35b6103c860048036038101906103c39190612f36565b611513565b6040516103d59190612f16565b60405180910390f35b6103f860048036038101906103f391906134e3565b611579565b6040516104059190612e9d565b60405180910390f35b61042860048036038101906104239190613083565b611607565b005b61043261168b565b5f6008845f0151604051610446919061355b565b90815260200160405180910390205414610495576040517f08c379a000000000000000000000000000000000000000000000000000000000815260040161048c906135bb565b60405180910390fd5b600a5f8154809291906104a790613606565b91905055505f600a5490506040518060e00160405280855f01518152602001856020015181526020018560400151815260200185606001518152602001856080015181526020018560a001518152602001600181525060075f8381526020019081526020015f205f820151815f0190816105219190613847565b506020820151816001015f820151815f01908161053e9190613847565b5060208201518160010190816105549190613847565b50604082015181600201908161056a9190613847565b5060608201518160030190816105809190613847565b506080820151816004015550506040820151816006015f820151815f015f6101000a81548160ff0219169083151502179055506020820151816001015560408201518160020155505060608201518160090190805190602001906105e5929190612515565b50608082015181600a019080519060200190610602929190612515565b5060a082015181600b01908051906020019061061f929190612515565b5060c082015181600c015590505060405180604001604052808381526020014281525060095f8381526020019081526020015f205f8081526020019081526020015f205f820151815f015560208201518160010155905050806008855f015160405161068b919061355b565b9081526020016040518091039020819055506106a78382611712565b50505050565b60605f6008836040516106c0919061355b565b90815260200160405180910390205490505f8103610713576040517f08c379a000000000000000000000000000000000000000000000000000000000815260040161070a90613960565b60405180910390fd5b5f60075f8381526020019081526020015f20600c015490505f8167ffffffffffffffff811115610746576107456126bd565b5b60405190808252806020026020018201604052801561077f57816020015b61076c61256c565b8152602001906001900390816107645790505b5090505f5b828110156107f55760095f8581526020019081526020015f205f8281526020019081526020015f206040518060400160405290815f82015481526020016001820154815250508282815181106107dd576107dc61397e565b5b60200260200101819052508080600101915050610784565b50809350505050919050565b5f7f80ac58cd000000000000000000000000000000000000000000000000000000007bffffffffffffffffffffffffffffffffffffffffffffffffffffffff1916827bffffffffffffffffffffffffffffffffffffffffffffffffffffffff191614806108cb57507f5b5e139f000000000000000000000000000000000000000000000000000000007bffffffffffffffffffffffffffffffffffffffffffffffffffffffff1916827bffffffffffffffffffffffffffffffffffffffffffffffffffffffff1916145b806108db57506108da8261172f565b5b9050919050565b60605f80546108f09061367a565b80601f016020809104026020016040519081016040528092919081815260200182805461091c9061367a565b80156109675780601f1061093e57610100808354040283529160200191610967565b820191905f5260205f20905b81548152906001019060200180831161094a57829003601f168201915b5050505050905090565b5f61097b82611798565b506109858261181e565b9050919050565b61099e8282610999611857565b61185e565b5050565b5f73ffffffffffffffffffffffffffffffffffffffff168273ffffffffffffffffffffffffffffffffffffffff1603610a12575f6040517f64a0ae92000000000000000000000000000000000000000000000000000000008152600401610a099190612f70565b60405180910390fd5b5f610a258383610a20611857565b611870565b90508373ffffffffffffffffffffffffffffffffffffffff168173ffffffffffffffffffffffffffffffffffffffff1614610a9b578382826040517f64283d7b000000000000000000000000000000000000000000000000000000008152600401610a92939291906139ab565b60405180910390fd5b50505050565b5f600884604051610ab2919061355b565b90815260200160405180910390205490505f8103610b05576040517f08c379a0000000000000000000000000000000000000000000000000000000008152600401610afc90613960565b60405180910390fd5b3373ffffffffffffffffffffffffffffffffffffffff16610b2582610c37565b73ffffffffffffffffffffffffffffffffffffffff1614610b7b576040517f08c379a0000000000000000000000000000000000000000000000000000000008152600401610b7290613a2a565b60405180910390fd5b5f60075f8381526020019081526020015f20600c0154905060405180604001604052808481526020014281525060095f8481526020019081526020015f205f8381526020019081526020015f205f820151815f01556020820151816001015590505060075f8381526020019081526020015f20600c015f815480929190610c0190613606565b9190505550610c11338584610c18565b5050505050565b610c3283838360405180602001604052805f815250610eab565b505050565b5f610c4182611798565b9050919050565b5f8073ffffffffffffffffffffffffffffffffffffffff168273ffffffffffffffffffffffffffffffffffffffff1603610cb9575f6040517f89c62b64000000000000000000000000000000000000000000000000000000008152600401610cb09190612f70565b60405180910390fd5b60035f8373ffffffffffffffffffffffffffffffffffffffff1673ffffffffffffffffffffffffffffffffffffffff1681526020019081526020015f20549050919050565b610d0661168b565b610d0f5f611a7b565b565b5f80600885604051610d23919061355b565b90815260200160405180910390205490505f8103610d44575f915050610dd6565b8373ffffffffffffffffffffffffffffffffffffffff16610d6482610c37565b73ffffffffffffffffffffffffffffffffffffffff1614610d88575f915050610dd6565b5f600160075f8481526020019081526020015f20600c0154610daa9190613a48565b90508360095f8481526020019081526020015f205f8381526020019081526020015f205f015414925050505b9392505050565b5f60065f9054906101000a900473ffffffffffffffffffffffffffffffffffffffff16905090565b606060018054610e149061367a565b80601f0160208091040260200160405190810160405280929190818152602001828054610e409061367a565b8015610e8b5780601f10610e6257610100808354040283529160200191610e8b565b820191905f5260205f20905b815481529060010190602001808311610e6e57829003601f168201915b5050505050905090565b610ea7610ea0611857565b8383611b3e565b5050565b610eb68484846109a2565b610eca610ec1611857565b85858585611ca7565b50505050565b610ed8612587565b5f600883604051610ee9919061355b565b90815260200160405180910390205490505f8103610f3c576040517f08c379a0000000000000000000000000000000000000000000000000000000008152600401610f3390613960565b60405180910390fd5b60075f8281526020019081526020015f206040518060e00160405290815f82018054610f679061367a565b80601f0160208091040260200160405190810160405280929190818152602001828054610f939061367a565b8015610fde5780601f10610fb557610100808354040283529160200191610fde565b820191905f5260205f20905b815481529060010190602001808311610fc157829003601f168201915b50505050508152602001600182016040518060a00160405290815f820180546110069061367a565b80601f01602080910402602001604051908101604052809291908181526020018280546110329061367a565b801561107d5780601f106110545761010080835404028352916020019161107d565b820191905f5260205f20905b81548152906001019060200180831161106057829003601f168201915b505050505081526020016001820180546110969061367a565b80601f01602080910402602001604051908101604052809291908181526020018280546110c29061367a565b801561110d5780601f106110e45761010080835404028352916020019161110d565b820191905f5260205f20905b8154815290600101906020018083116110f057829003601f168201915b505050505081526020016002820180546111269061367a565b80601f01602080910402602001604051908101604052809291908181526020018280546111529061367a565b801561119d5780601f106111745761010080835404028352916020019161119d565b820191905f5260205f20905b81548152906001019060200180831161118057829003601f168201915b505050505081526020016003820180546111b69061367a565b80601f01602080910402602001604051908101604052809291908181526020018280546111e29061367a565b801561122d5780601f106112045761010080835404028352916020019161122d565b820191905f5260205f20905b81548152906001019060200180831161121057829003601f168201915b505050505081526020016004820154815250508152602001600682016040518060600160405290815f82015f9054906101000a900460ff1615151515815260200160018201548152602001600282015481525050815260200160098201805480602002602001604051908101604052809291908181526020015f905b82821015611351578382905f5260205f200180546112c69061367a565b80601f01602080910402602001604051908101604052809291908181526020018280546112f29061367a565b801561133d5780601f106113145761010080835404028352916020019161133d565b820191905f5260205f20905b81548152906001019060200180831161132057829003601f168201915b5050505050815260200190600101906112a9565b505050508152602001600a8201805480602002602001604051908101604052809291908181526020015f905b82821015611425578382905f5260205f2001805461139a9061367a565b80601f01602080910402602001604051908101604052809291908181526020018280546113c69061367a565b80156114115780601f106113e857610100808354040283529160200191611411565b820191905f5260205f20905b8154815290600101906020018083116113f457829003601f168201915b50505050508152602001906001019061137d565b505050508152602001600b8201805480602002602001604051908101604052809291908181526020015f905b828210156114f9578382905f5260205f2001805461146e9061367a565b80601f016020809104026020016040519081016040528092919081815260200182805461149a9061367a565b80156114e55780601f106114bc576101008083540402835291602001916114e5565b820191905f5260205f20905b8154815290600101906020018083116114c857829003601f168201915b505050505081526020019060010190611451565b505050508152602001600c82015481525050915050919050565b606061151e82611798565b505f611528611e53565b90505f8151116115465760405180602001604052805f815250611571565b8061155084611e69565b604051602001611561929190613a7b565b6040516020818303038152906040525b915050919050565b5f60055f8473ffffffffffffffffffffffffffffffffffffffff1673ffffffffffffffffffffffffffffffffffffffff1681526020019081526020015f205f8373ffffffffffffffffffffffffffffffffffffffff1673ffffffffffffffffffffffffffffffffffffffff1681526020019081526020015f205f9054906101000a900460ff16905092915050565b61160f61168b565b5f73ffffffffffffffffffffffffffffffffffffffff168173ffffffffffffffffffffffffffffffffffffffff160361167f575f6040517f1e4fbdf70000000000000000000000000000000000000000000000000000000081526004016116769190612f70565b60405180910390fd5b61168881611a7b565b50565b611693611857565b73ffffffffffffffffffffffffffffffffffffffff166116b1610ddd565b73ffffffffffffffffffffffffffffffffffffffff1614611710576116d4611857565b6040517f118cdaa70000000000000000000000000000000000000000000000000000000081526004016117079190612f70565b60405180910390fd5b565b61172b828260405180602001604052805f815250611f33565b5050565b5f7f01ffc9a7000000000000000000000000000000000000000000000000000000007bffffffffffffffffffffffffffffffffffffffffffffffffffffffff1916827bffffffffffffffffffffffffffffffffffffffffffffffffffffffff1916149050919050565b5f806117a383611f56565b90505f73ffffffffffffffffffffffffffffffffffffffff168173ffffffffffffffffffffffffffffffffffffffff160361181557826040517f7e27328900000000000000000000000000000000000000000000000000000000815260040161180c91906130bd565b60405180910390fd5b80915050919050565b5f60045f8381526020019081526020015f205f9054906101000a900473ffffffffffffffffffffffffffffffffffffffff169050919050565b5f33905090565b61186b8383836001611f8f565b505050565b5f8061187b84611f56565b90505f73ffffffffffffffffffffffffffffffffffffffff168373ffffffffffffffffffffffffffffffffffffffff16146118bc576118bb81848661214e565b5b5f73ffffffffffffffffffffffffffffffffffffffff168173ffffffffffffffffffffffffffffffffffffffff1614611947576118fb5f855f80611f8f565b600160035f8373ffffffffffffffffffffffffffffffffffffffff1673ffffffffffffffffffffffffffffffffffffffff1681526020019081526020015f205f82825403925050819055505b5f73ffffffffffffffffffffffffffffffffffffffff168573ffffffffffffffffffffffffffffffffffffffff16146119c657600160035f8773ffffffffffffffffffffffffffffffffffffffff1673ffffffffffffffffffffffffffffffffffffffff1681526020019081526020015f205f82825401925050819055505b8460025f8681526020019081526020015f205f6101000a81548173ffffffffffffffffffffffffffffffffffffffff021916908373ffffffffffffffffffffffffffffffffffffffff160217905550838573ffffffffffffffffffffffffffffffffffffffff168273ffffffffffffffffffffffffffffffffffffffff167fddf252ad1be2c89b69c2b068fc378daa952ba7f163c4a11628f55a4df523b3ef60405160405180910390a4809150509392505050565b5f60065f9054906101000a900473ffffffffffffffffffffffffffffffffffffffff1690508160065f6101000a81548173ffffffffffffffffffffffffffffffffffffffff021916908373ffffffffffffffffffffffffffffffffffffffff1602179055508173ffffffffffffffffffffffffffffffffffffffff168173ffffffffffffffffffffffffffffffffffffffff167f8be0079c531659141344cd1fd0a4f28419497f9722a3daafe3b4186f6b6457e060405160405180910390a35050565b5f73ffffffffffffffffffffffffffffffffffffffff168273ffffffffffffffffffffffffffffffffffffffff1603611bae57816040517f5b08ba18000000000000000000000000000000000000000000000000000000008152600401611ba59190612f70565b60405180910390fd5b8060055f8573ffffffffffffffffffffffffffffffffffffffff1673ffffffffffffffffffffffffffffffffffffffff1681526020019081526020015f205f8473ffffffffffffffffffffffffffffffffffffffff1673ffffffffffffffffffffffffffffffffffffffff1681526020019081526020015f205f6101000a81548160ff0219169083151502179055508173ffffffffffffffffffffffffffffffffffffffff168373ffffffffffffffffffffffffffffffffffffffff167f17307eab39ab6107e8899845ad3d59bd9653f200f220920489ca2b5937696c3183604051611c9a9190612e9d565b60405180910390a3505050565b5f8373ffffffffffffffffffffffffffffffffffffffff163b1115611e4c578273ffffffffffffffffffffffffffffffffffffffff1663150b7a02868685856040518563ffffffff1660e01b8152600401611d059493929190613af0565b6020604051808303815f875af1925050508015611d4057506040513d601f19601f82011682018060405250810190611d3d9190613b4e565b60015b611dc1573d805f8114611d6e576040519150601f19603f3d011682016040523d82523d5f602084013e611d73565b606091505b505f815103611db957836040517f64a0ae92000000000000000000000000000000000000000000000000000000008152600401611db09190612f70565b60405180910390fd5b805181602001fd5b63150b7a0260e01b7bffffffffffffffffffffffffffffffffffffffffffffffffffffffff1916817bffffffffffffffffffffffffffffffffffffffffffffffffffffffff191614611e4a57836040517f64a0ae92000000000000000000000000000000000000000000000000000000008152600401611e419190612f70565b60405180910390fd5b505b5050505050565b606060405180602001604052805f815250905090565b60605f6001611e7784612211565b0190505f8167ffffffffffffffff811115611e9557611e946126bd565b5b6040519080825280601f01601f191660200182016040528015611ec75781602001600182028036833780820191505090505b5090505f82602001820190505b600115611f28578080600190039150507f3031323334353637383961626364656600000000000000000000000000000000600a86061a8153600a8581611f1d57611f1c613b79565b5b0494505f8503611ed4575b819350505050919050565b611f3d8383612362565b611f51611f48611857565b5f858585611ca7565b505050565b5f60025f8381526020019081526020015f205f9054906101000a900473ffffffffffffffffffffffffffffffffffffffff169050919050565b8080611fc757505f73ffffffffffffffffffffffffffffffffffffffff168273ffffffffffffffffffffffffffffffffffffffff1614155b156120f9575f611fd684611798565b90505f73ffffffffffffffffffffffffffffffffffffffff168373ffffffffffffffffffffffffffffffffffffffff161415801561204057508273ffffffffffffffffffffffffffffffffffffffff168173ffffffffffffffffffffffffffffffffffffffff1614155b801561205357506120518184611579565b155b1561209557826040517fa9fbf51f00000000000000000000000000000000000000000000000000000000815260040161208c9190612f70565b60405180910390fd5b81156120f757838573ffffffffffffffffffffffffffffffffffffffff168273ffffffffffffffffffffffffffffffffffffffff167f8c5be1e5ebec7d5bd14f71427d1e84f3dd0314c0f7b2291e5b200ac8c7c3b92560405160405180910390a45b505b8360045f8581526020019081526020015f205f6101000a81548173ffffffffffffffffffffffffffffffffffffffff021916908373ffffffffffffffffffffffffffffffffffffffff16021790555050505050565b612159838383612455565b61220c575f73ffffffffffffffffffffffffffffffffffffffff168373ffffffffffffffffffffffffffffffffffffffff16036121cd57806040517f7e2732890000000000000000000000000000000000000000000000000000000081526004016121c491906130bd565b60405180910390fd5b81816040517f177e802f000000000000000000000000000000000000000000000000000000008152600401612203929190613ba6565b60405180910390fd5b505050565b5f805f90507a184f03e93ff9f4daa797ed6e38ed64bf6a1f010000000000000000831061226d577a184f03e93ff9f4daa797ed6e38ed64bf6a1f010000000000000000838161226357612262613b79565b5b0492506040810190505b6d04ee2d6d415b85acef810000000083106122aa576d04ee2d6d415b85acef810000000083816122a05761229f613b79565b5b0492506020810190505b662386f26fc1000083106122d957662386f26fc1000083816122cf576122ce613b79565b5b0492506010810190505b6305f5e1008310612302576305f5e10083816122f8576122f7613b79565b5b0492506008810190505b612710831061232757612710838161231d5761231c613b79565b5b0492506004810190505b6064831061234a57606483816123405761233f613b79565b5b0492506002810190505b600a8310612359576001810190505b80915050919050565b5f73ffffffffffffffffffffffffffffffffffffffff168273ffffffffffffffffffffffffffffffffffffffff16036123d2575f6040517f64a0ae920000000000000000000000000000000000000000000000000000000081526004016123c99190612f70565b60405180910390fd5b5f6123de83835f611870565b90505f73ffffffffffffffffffffffffffffffffffffffff168173ffffffffffffffffffffffffffffffffffffffff1614612450575f6040517f73c6ac6e0000000000000000000000000000000000000000000000000000000081526004016124479190612f70565b60405180910390fd5b505050565b5f8073ffffffffffffffffffffffffffffffffffffffff168373ffffffffffffffffffffffffffffffffffffffff161415801561250c57508273ffffffffffffffffffffffffffffffffffffffff168473ffffffffffffffffffffffffffffffffffffffff1614806124cd57506124cc8484611579565b5b8061250b57508273ffffffffffffffffffffffffffffffffffffffff166124f38361181e565b73ffffffffffffffffffffffffffffffffffffffff16145b5b90509392505050565b828054828255905f5260205f2090810192821561255b579160200282015b8281111561255a57825182908161254a9190613847565b5091602001919060010190612533565b5b50905061256891906125cf565b5090565b60405180604001604052805f80191681526020015f81525090565b6040518060e00160405280606081526020016125a16125f2565b81526020016125ae612620565b81526020016060815260200160608152602001606081526020015f81525090565b5b808211156125ee575f81816125e59190612640565b506001016125d0565b5090565b6040518060a00160405280606081526020016060815260200160608152602001606081526020015f81525090565b60405180606001604052805f151581526020015f81526020015f81525090565b50805461264c9061367a565b5f825580601f1061265d575061267a565b601f0160209004905f5260205f2090810190612679919061267d565b5b50565b5b80821115612694575f815f90555060010161267e565b5090565b5f604051905090565b5f80fd5b5f80fd5b5f80fd5b5f601f19601f8301169050919050565b7f4e487b71000000000000000000000000000000000000000000000000000000005f52604160045260245ffd5b6126f3826126ad565b810181811067ffffffffffffffff82111715612712576127116126bd565b5b80604052505050565b5f612724612698565b905061273082826126ea565b919050565b5f80fd5b5f80fd5b5f80fd5b5f67ffffffffffffffff82111561275b5761275a6126bd565b5b612764826126ad565b9050602081019050919050565b828183375f83830152505050565b5f61279161278c84612741565b61271b565b9050828152602081018484840111156127ad576127ac61273d565b5b6127b8848285612771565b509392505050565b5f82601f8301126127d4576127d3612739565b5b81356127e484826020860161277f565b91505092915050565b5f819050919050565b6127ff816127ed565b8114612809575f80fd5b50565b5f8135905061281a816127f6565b92915050565b5f60a08284031215612835576128346126a9565b5b61283f60a061271b565b90505f82013567ffffffffffffffff81111561285e5761285d612735565b5b61286a848285016127c0565b5f83015250602082013567ffffffffffffffff81111561288d5761288c612735565b5b612899848285016127c0565b602083015250604082013567ffffffffffffffff8111156128bd576128bc612735565b5b6128c9848285016127c0565b604083015250606082013567ffffffffffffffff8111156128ed576128ec612735565b5b6128f9848285016127c0565b606083015250608061290d8482850161280c565b60808301525092915050565b5f8115159050919050565b61292d81612919565b8114612937575f80fd5b50565b5f8135905061294881612924565b92915050565b5f60608284031215612963576129626126a9565b5b61296d606061271b565b90505f61297c8482850161293a565b5f83015250602061298f8482850161280c565b60208301525060406129a38482850161280c565b60408301525092915050565b5f67ffffffffffffffff8211156129c9576129c86126bd565b5b602082029050602081019050919050565b5f80fd5b5f6129f06129eb846129af565b61271b565b90508083825260208201905060208402830185811115612a1357612a126129da565b5b835b81811015612a5a57803567ffffffffffffffff811115612a3857612a37612739565b5b808601612a4589826127c0565b85526020850194505050602081019050612a15565b5050509392505050565b5f82601f830112612a7857612a77612739565b5b8135612a888482602086016129de565b91505092915050565b5f6101008284031215612aa757612aa66126a9565b5b612ab160c061271b565b90505f82013567ffffffffffffffff811115612ad057612acf612735565b5b612adc848285016127c0565b5f83015250602082013567ffffffffffffffff811115612aff57612afe612735565b5b612b0b84828501612820565b6020830152506040612b1f8482850161294e565b60408301525060a082013567ffffffffffffffff811115612b4357612b42612735565b5b612b4f84828501612a64565b60608301525060c082013567ffffffffffffffff811115612b7357612b72612735565b5b612b7f84828501612a64565b60808301525060e082013567ffffffffffffffff811115612ba357612ba2612735565b5b612baf84828501612a64565b60a08301525092915050565b5f73ffffffffffffffffffffffffffffffffffffffff82169050919050565b5f612be482612bbb565b9050919050565b612bf481612bda565b8114612bfe575f80fd5b50565b5f81359050612c0f81612beb565b92915050565b5f819050919050565b612c2781612c15565b8114612c31575f80fd5b50565b5f81359050612c4281612c1e565b92915050565b5f805f60608486031215612c5f57612c5e6126a1565b5b5f84013567ffffffffffffffff811115612c7c57612c7b6126a5565b5b612c8886828701612a91565b9350506020612c9986828701612c01565b9250506040612caa86828701612c34565b9150509250925092565b5f60208284031215612cc957612cc86126a1565b5b5f82013567ffffffffffffffff811115612ce657612ce56126a5565b5b612cf2848285016127c0565b91505092915050565b5f81519050919050565b5f82825260208201905092915050565b5f819050602082019050919050565b612d2d81612c15565b82525050565b612d3c816127ed565b82525050565b604082015f820151612d565f850182612d24565b506020820151612d696020850182612d33565b50505050565b5f612d7a8383612d42565b60408301905092915050565b5f602082019050919050565b5f612d9c82612cfb565b612da68185612d05565b9350612db183612d15565b805f5b83811015612de1578151612dc88882612d6f565b9750612dd383612d86565b925050600181019050612db4565b5085935050505092915050565b5f6020820190508181035f830152612e068184612d92565b905092915050565b5f7fffffffff0000000000000000000000000000000000000000000000000000000082169050919050565b612e4281612e0e565b8114612e4c575f80fd5b50565b5f81359050612e5d81612e39565b92915050565b5f60208284031215612e7857612e776126a1565b5b5f612e8584828501612e4f565b91505092915050565b612e9781612919565b82525050565b5f602082019050612eb05f830184612e8e565b92915050565b5f81519050919050565b5f82825260208201905092915050565b8281835e5f83830152505050565b5f612ee882612eb6565b612ef28185612ec0565b9350612f02818560208601612ed0565b612f0b816126ad565b840191505092915050565b5f6020820190508181035f830152612f2e8184612ede565b905092915050565b5f60208284031215612f4b57612f4a6126a1565b5b5f612f588482850161280c565b91505092915050565b612f6a81612bda565b82525050565b5f602082019050612f835f830184612f61565b92915050565b5f8060408385031215612f9f57612f9e6126a1565b5b5f612fac85828601612c01565b9250506020612fbd8582860161280c565b9150509250929050565b5f805f60608486031215612fde57612fdd6126a1565b5b5f612feb86828701612c01565b9350506020612ffc86828701612c01565b925050604061300d8682870161280c565b9150509250925092565b5f805f6060848603121561302e5761302d6126a1565b5b5f84013567ffffffffffffffff81111561304b5761304a6126a5565b5b613057868287016127c0565b935050602061306886828701612c01565b925050604061307986828701612c34565b9150509250925092565b5f60208284031215613098576130976126a1565b5b5f6130a584828501612c01565b91505092915050565b6130b7816127ed565b82525050565b5f6020820190506130d05f8301846130ae565b92915050565b5f80604083850312156130ec576130eb6126a1565b5b5f6130f985828601612c01565b925050602061310a8582860161293a565b9150509250929050565b5f67ffffffffffffffff82111561312e5761312d6126bd565b5b613137826126ad565b9050602081019050919050565b5f61315661315184613114565b61271b565b9050828152602081018484840111156131725761317161273d565b5b61317d848285612771565b509392505050565b5f82601f83011261319957613198612739565b5b81356131a9848260208601613144565b91505092915050565b5f805f80608085870312156131ca576131c96126a1565b5b5f6131d787828801612c01565b94505060206131e887828801612c01565b93505060406131f98782880161280c565b925050606085013567ffffffffffffffff81111561321a576132196126a5565b5b61322687828801613185565b91505092959194509250565b5f82825260208201905092915050565b5f61324c82612eb6565b6132568185613232565b9350613266818560208601612ed0565b61326f816126ad565b840191505092915050565b5f60a083015f8301518482035f8601526132948282613242565b915050602083015184820360208601526132ae8282613242565b915050604083015184820360408601526132c88282613242565b915050606083015184820360608601526132e28282613242565b91505060808301516132f76080860182612d33565b508091505092915050565b61330b81612919565b82525050565b606082015f8201516133255f850182613302565b5060208201516133386020850182612d33565b50604082015161334b6040850182612d33565b50505050565b5f81519050919050565b5f82825260208201905092915050565b5f819050602082019050919050565b5f6133858383613242565b905092915050565b5f602082019050919050565b5f6133a382613351565b6133ad818561335b565b9350836020820285016133bf8561336b565b805f5b858110156133fa57848403895281516133db858261337a565b94506133e68361338d565b925060208a019950506001810190506133c2565b50829750879550505050505092915050565b5f61012083015f8301518482035f8601526134278282613242565b91505060208301518482036020860152613441828261327a565b91505060408301516134566040860182613311565b50606083015184820360a086015261346e8282613399565b915050608083015184820360c08601526134888282613399565b91505060a083015184820360e08601526134a28282613399565b91505060c08301516134b8610100860182612d33565b508091505092915050565b5f6020820190508181035f8301526134db818461340c565b905092915050565b5f80604083850312156134f9576134f86126a1565b5b5f61350685828601612c01565b925050602061351785828601612c01565b9150509250929050565b5f81905092915050565b5f61353582612eb6565b61353f8185613521565b935061354f818560208601612ed0565b80840191505092915050565b5f613566828461352b565b915081905092915050565b7f50726f6475637420616c726561647920726567697374657265640000000000005f82015250565b5f6135a5601a83612ec0565b91506135b082613571565b602082019050919050565b5f6020820190508181035f8301526135d281613599565b9050919050565b7f4e487b71000000000000000000000000000000000000000000000000000000005f52601160045260245ffd5b5f613610826127ed565b91507fffffffffffffffffffffffffffffffffffffffffffffffffffffffffffffffff8203613642576136416135d9565b5b600182019050919050565b7f4e487b71000000000000000000000000000000000000000000000000000000005f52602260045260245ffd5b5f600282049050600182168061369157607f821691505b6020821081036136a4576136a361364d565b5b50919050565b5f819050815f5260205f209050919050565b5f6020601f8301049050919050565b5f82821b905092915050565b5f600883026137067fffffffffffffffffffffffffffffffffffffffffffffffffffffffffffffffff826136cb565b61371086836136cb565b95508019841693508086168417925050509392505050565b5f819050919050565b5f61374b613746613741846127ed565b613728565b6127ed565b9050919050565b5f819050919050565b61376483613731565b61377861377082613752565b8484546136d7565b825550505050565b5f90565b61378c613780565b61379781848461375b565b505050565b5b818110156137ba576137af5f82613784565b60018101905061379d565b5050565b601f8211156137ff576137d0816136aa565b6137d9846136bc565b810160208510156137e8578190505b6137fc6137f4856136bc565b83018261379c565b50505b505050565b5f82821c905092915050565b5f61381f5f1984600802613804565b1980831691505092915050565b5f6138378383613810565b9150826002028217905092915050565b61385082612eb6565b67ffffffffffffffff811115613869576138686126bd565b5b613873825461367a565b61387e8282856137be565b5f60209050601f8311600181146138af575f841561389d578287015190505b6138a7858261382c565b86555061390e565b601f1984166138bd866136aa565b5f5b828110156138e4578489015182556001820191506020850194506020810190506138bf565b8683101561390157848901516138fd601f891682613810565b8355505b6001600288020188555050505b505050505050565b7f50726f64756374206e6f7420666f756e640000000000000000000000000000005f82015250565b5f61394a601183612ec0565b915061395582613916565b602082019050919050565b5f6020820190508181035f8301526139778161393e565b9050919050565b7f4e487b71000000000000000000000000000000000000000000000000000000005f52603260045260245ffd5b5f6060820190506139be5f830186612f61565b6139cb60208301856130ae565b6139d86040830184612f61565b949350505050565b7f4e6f7420746865206f776e6572000000000000000000000000000000000000005f82015250565b5f613a14600d83612ec0565b9150613a1f826139e0565b602082019050919050565b5f6020820190508181035f830152613a4181613a08565b9050919050565b5f613a52826127ed565b9150613a5d836127ed565b9250828203905081811115613a7557613a746135d9565b5b92915050565b5f613a86828561352b565b9150613a92828461352b565b91508190509392505050565b5f81519050919050565b5f82825260208201905092915050565b5f613ac282613a9e565b613acc8185613aa8565b9350613adc818560208601612ed0565b613ae5816126ad565b840191505092915050565b5f608082019050613b035f830187612f61565b613b106020830186612f61565b613b1d60408301856130ae565b8181036060830152613b2f8184613ab8565b905095945050505050565b5f81519050613b4881612e39565b92915050565b5f60208284031215613b6357613b626126a1565b5b5f613b7084828501613b3a565b91505092915050565b7f4e487b71000000000000000000000000000000000000000000000000000000005f52601260045260245ffd5b5f604082019050613bb95f830185612f61565b613bc660208301846130ae565b939250505056fea26469706673582212208771213ed54cf4908d49277cf38bf741e37835b34aa1414a89bfe43b80c6ec4964736f6c634300081a0033",
			"opcodes": "PUSH1 0x80 PUSH1 0x40 MSTORE CALLVALUE DUP1 ISZERO PUSH2 0xF JUMPI PUSH0 DUP1 REVERT JUMPDEST POP CALLER PUSH1 0x40 MLOAD DUP1 PUSH1 0x40 ADD PUSH1 0x40 MSTORE DUP1 PUSH1 0x1D DUP2 MSTORE PUSH1 0x20 ADD PUSH32 0x4C75787572792050726F647563742041757468656E7469636174696F6E000000 DUP2 MSTORE POP PUSH1 0x40 MLOAD DUP1 PUSH1 0x40 ADD PUSH1 0x40 MSTORE DUP1 PUSH1 0x3 DUP2 MSTORE PUSH1 0x20 ADD PUSH32 0x4C50410000000000000000000000000000000000000000000000000000000000 DUP2 MSTORE POP DUP2 PUSH0 SWAP1 DUP2 PUSH2 0x8B SWAP2 SWAP1 PUSH2 0x420 JUMP JUMPDEST POP DUP1 PUSH1 0x1 SWAP1 DUP2 PUSH2 0x9B SWAP2 SWAP1 PUSH2 0x420 JUMP JUMPDEST POP POP POP PUSH0 PUSH20 0xFFFFFFFFFFFFFFFFFFFFFFFFFFFFFFFFFFFFFFFF AND DUP2 PUSH20 0xFFFFFFFFFFFFFFFFFFFFFFFFFFFFFFFFFFFFFFFF AND SUB PUSH2 0x10E JUMPI PUSH0 PUSH1 0x40 MLOAD PUSH32 0x1E4FBDF700000000000000000000000000000000000000000000000000000000 DUP2 MSTORE PUSH1 0x4 ADD PUSH2 0x105 SWAP2 SWAP1 PUSH2 0x52E JUMP JUMPDEST PUSH1 0x40 MLOAD DUP1 SWAP2 SUB SWAP1 REVERT JUMPDEST PUSH2 0x11D DUP2 PUSH2 0x123 PUSH1 0x20 SHL PUSH1 0x20 SHR JUMP JUMPDEST POP PUSH2 0x547 JUMP JUMPDEST PUSH0 PUSH1 0x6 PUSH0 SWAP1 SLOAD SWAP1 PUSH2 0x100 EXP SWAP1 DIV PUSH20 0xFFFFFFFFFFFFFFFFFFFFFFFFFFFFFFFFFFFFFFFF AND SWAP1 POP DUP2 PUSH1 0x6 PUSH0 PUSH2 0x100 EXP DUP2 SLOAD DUP2 PUSH20 0xFFFFFFFFFFFFFFFFFFFFFFFFFFFFFFFFFFFFFFFF MUL NOT AND SWAP1 DUP4 PUSH20 0xFFFFFFFFFFFFFFFFFFFFFFFFFFFFFFFFFFFFFFFF AND MUL OR SWAP1 SSTORE POP DUP2 PUSH20 0xFFFFFFFFFFFFFFFFFFFFFFFFFFFFFFFFFFFFFFFF AND DUP2 PUSH20 0xFFFFFFFFFFFFFFFFFFFFFFFFFFFFFFFFFFFFFFFF AND PUSH32 0x8BE0079C531659141344CD1FD0A4F28419497F9722A3DAAFE3B4186F6B6457E0 PUSH1 0x40 MLOAD PUSH1 0x40 MLOAD DUP1 SWAP2 SUB SWAP1 LOG3 POP POP JUMP JUMPDEST PUSH0 DUP2 MLOAD SWAP1 POP SWAP2 SWAP1 POP JUMP JUMPDEST PUSH32 0x4E487B7100000000000000000000000000000000000000000000000000000000 PUSH0 MSTORE PUSH1 0x41 PUSH1 0x4 MSTORE PUSH1 0x24 PUSH0 REVERT JUMPDEST PUSH32 0x4E487B7100000000000000000000000000000000000000000000000000000000 PUSH0 MSTORE PUSH1 0x22 PUSH1 0x4 MSTORE PUSH1 0x24 PUSH0 REVERT JUMPDEST PUSH0 PUSH1 0x2 DUP3 DIV SWAP1 POP PUSH1 0x1 DUP3 AND DUP1 PUSH2 0x261 JUMPI PUSH1 0x7F DUP3 AND SWAP2 POP JUMPDEST PUSH1 0x20 DUP3 LT DUP2 SUB PUSH2 0x274 JUMPI PUSH2 0x273 PUSH2 0x21D JUMP JUMPDEST JUMPDEST POP SWAP2 SWAP1 POP JUMP JUMPDEST PUSH0 DUP2 SWAP1 POP DUP2 PUSH0 MSTORE PUSH1 0x20 PUSH0 KECCAK256 SWAP1 POP SWAP2 SWAP1 POP JUMP JUMPDEST PUSH0 PUSH1 0x20 PUSH1 0x1F DUP4 ADD DIV SWAP1 POP SWAP2 SWAP1 POP JUMP JUMPDEST PUSH0 DUP3 DUP3 SHL SWAP1 POP SWAP3 SWAP2 POP POP JUMP JUMPDEST PUSH0 PUSH1 0x8 DUP4 MUL PUSH2 0x2D6 PUSH32 0xFFFFFFFFFFFFFFFFFFFFFFFFFFFFFFFFFFFFFFFFFFFFFFFFFFFFFFFFFFFFFFFF DUP3 PUSH2 0x29B JUMP JUMPDEST PUSH2 0x2E0 DUP7 DUP4 PUSH2 0x29B JUMP JUMPDEST SWAP6 POP DUP1 NOT DUP5 AND SWAP4 POP DUP1 DUP7 AND DUP5 OR SWAP3 POP POP POP SWAP4 SWAP3 POP POP POP JUMP JUMPDEST PUSH0 DUP2 SWAP1 POP SWAP2 SWAP1 POP JUMP JUMPDEST PUSH0 DUP2 SWAP1 POP SWAP2 SWAP1 POP JUMP JUMPDEST PUSH0 PUSH2 0x324 PUSH2 0x31F PUSH2 0x31A DUP5 PUSH2 0x2F8 JUMP JUMPDEST PUSH2 0x301 JUMP JUMPDEST PUSH2 0x2F8 JUMP JUMPDEST SWAP1 POP SWAP2 SWAP1 POP JUMP JUMPDEST PUSH0 DUP2 SWAP1 POP SWAP2 SWAP1 POP JUMP JUMPDEST PUSH2 0x33D DUP4 PUSH2 0x30A JUMP JUMPDEST PUSH2 0x351 PUSH2 0x349 DUP3 PUSH2 0x32B JUMP JUMPDEST DUP5 DUP5 SLOAD PUSH2 0x2A7 JUMP JUMPDEST DUP3 SSTORE POP POP POP POP JUMP JUMPDEST PUSH0 SWAP1 JUMP JUMPDEST PUSH2 0x365 PUSH2 0x359 JUMP JUMPDEST PUSH2 0x370 DUP2 DUP5 DUP5 PUSH2 0x334 JUMP JUMPDEST POP POP POP JUMP JUMPDEST JUMPDEST DUP2 DUP2 LT ISZERO PUSH2 0x393 JUMPI PUSH2 0x388 PUSH0 DUP3 PUSH2 0x35D JUMP JUMPDEST PUSH1 0x1 DUP2 ADD SWAP1 POP PUSH2 0x376 JUMP JUMPDEST POP POP JUMP JUMPDEST PUSH1 0x1F DUP3 GT ISZERO PUSH2 0x3D8 JUMPI PUSH2 0x3A9 DUP2 PUSH2 0x27A JUMP JUMPDEST PUSH2 0x3B2 DUP5 PUSH2 0x28C JUMP JUMPDEST DUP2 ADD PUSH1 0x20 DUP6 LT ISZERO PUSH2 0x3C1 JUMPI DUP2 SWAP1 POP JUMPDEST PUSH2 0x3D5 PUSH2 0x3CD DUP6 PUSH2 0x28C JUMP JUMPDEST DUP4 ADD DUP3 PUSH2 0x375 JUMP JUMPDEST POP POP JUMPDEST POP POP POP JUMP JUMPDEST PUSH0 DUP3 DUP3 SHR SWAP1 POP SWAP3 SWAP2 POP POP JUMP JUMPDEST PUSH0 PUSH2 0x3F8 PUSH0 NOT DUP5 PUSH1 0x8 MUL PUSH2 0x3DD JUMP JUMPDEST NOT DUP1 DUP4 AND SWAP2 POP POP SWAP3 SWAP2 POP POP JUMP JUMPDEST PUSH0 PUSH2 0x410 DUP4 DUP4 PUSH2 0x3E9 JUMP JUMPDEST SWAP2 POP DUP3 PUSH1 0x2 MUL DUP3 OR SWAP1 POP SWAP3 SWAP2 POP POP JUMP JUMPDEST PUSH2 0x429 DUP3 PUSH2 0x1E6 JUMP JUMPDEST PUSH8 0xFFFFFFFFFFFFFFFF DUP2 GT ISZERO PUSH2 0x442 JUMPI PUSH2 0x441 PUSH2 0x1F0 JUMP JUMPDEST JUMPDEST PUSH2 0x44C DUP3 SLOAD PUSH2 0x24A JUMP JUMPDEST PUSH2 0x457 DUP3 DUP3 DUP6 PUSH2 0x397 JUMP JUMPDEST PUSH0 PUSH1 0x20 SWAP1 POP PUSH1 0x1F DUP4 GT PUSH1 0x1 DUP2 EQ PUSH2 0x488 JUMPI PUSH0 DUP5 ISZERO PUSH2 0x476 JUMPI DUP3 DUP8 ADD MLOAD SWAP1 POP JUMPDEST PUSH2 0x480 DUP6 DUP3 PUSH2 0x405 JUMP JUMPDEST DUP7 SSTORE POP PUSH2 0x4E7 JUMP JUMPDEST PUSH1 0x1F NOT DUP5 AND PUSH2 0x496 DUP7 PUSH2 0x27A JUMP JUMPDEST PUSH0 JUMPDEST DUP3 DUP2 LT ISZERO PUSH2 0x4BD JUMPI DUP5 DUP10 ADD MLOAD DUP3 SSTORE PUSH1 0x1 DUP3 ADD SWAP2 POP PUSH1 0x20 DUP6 ADD SWAP5 POP PUSH1 0x20 DUP2 ADD SWAP1 POP PUSH2 0x498 JUMP JUMPDEST DUP7 DUP4 LT ISZERO PUSH2 0x4DA JUMPI DUP5 DUP10 ADD MLOAD PUSH2 0x4D6 PUSH1 0x1F DUP10 AND DUP3 PUSH2 0x3E9 JUMP JUMPDEST DUP4 SSTORE POP JUMPDEST PUSH1 0x1 PUSH1 0x2 DUP9 MUL ADD DUP9 SSTORE POP POP POP JUMPDEST POP POP POP POP POP POP JUMP JUMPDEST PUSH0 PUSH20 0xFFFFFFFFFFFFFFFFFFFFFFFFFFFFFFFFFFFFFFFF DUP3 AND SWAP1 POP SWAP2 SWAP1 POP JUMP JUMPDEST PUSH0 PUSH2 0x518 DUP3 PUSH2 0x4EF JUMP JUMPDEST SWAP1 POP SWAP2 SWAP1 POP JUMP JUMPDEST PUSH2 0x528 DUP2 PUSH2 0x50E JUMP JUMPDEST DUP3 MSTORE POP POP JUMP JUMPDEST PUSH0 PUSH1 0x20 DUP3 ADD SWAP1 POP PUSH2 0x541 PUSH0 DUP4 ADD DUP5 PUSH2 0x51F JUMP JUMPDEST SWAP3 SWAP2 POP POP JUMP JUMPDEST PUSH2 0x3C03 DUP1 PUSH2 0x554 PUSH0 CODECOPY PUSH0 RETURN INVALID PUSH1 0x80 PUSH1 0x40 MSTORE CALLVALUE DUP1 ISZERO PUSH2 0xF JUMPI PUSH0 DUP1 REVERT JUMPDEST POP PUSH1 0x4 CALLDATASIZE LT PUSH2 0x132 JUMPI PUSH0 CALLDATALOAD PUSH1 0xE0 SHR DUP1 PUSH4 0x70A08231 GT PUSH2 0xB6 JUMPI DUP1 PUSH4 0xA22CB465 GT PUSH2 0x7A JUMPI DUP1 PUSH4 0xA22CB465 EQ PUSH2 0x346 JUMPI DUP1 PUSH4 0xB88D4FDE EQ PUSH2 0x362 JUMPI DUP1 PUSH4 0xBD81CFA0 EQ PUSH2 0x37E JUMPI DUP1 PUSH4 0xC87B56DD EQ PUSH2 0x3AE JUMPI DUP1 PUSH4 0xE985E9C5 EQ PUSH2 0x3DE JUMPI DUP1 PUSH4 0xF2FDE38B EQ PUSH2 0x40E JUMPI PUSH2 0x132 JUMP JUMPDEST DUP1 PUSH4 0x70A08231 EQ PUSH2 0x2A0 JUMPI DUP1 PUSH4 0x715018A6 EQ PUSH2 0x2D0 JUMPI DUP1 PUSH4 0x7E2C579F EQ PUSH2 0x2DA JUMPI DUP1 PUSH4 0x8DA5CB5B EQ PUSH2 0x30A JUMPI DUP1 PUSH4 0x95D89B41 EQ PUSH2 0x328 JUMPI PUSH2 0x132 JUMP JUMPDEST DUP1 PUSH4 0x95EA7B3 GT PUSH2 0xFD JUMPI DUP1 PUSH4 0x95EA7B3 EQ PUSH2 0x200 JUMPI DUP1 PUSH4 0x23B872DD EQ PUSH2 0x21C JUMPI DUP1 PUSH4 0x33977E2F EQ PUSH2 0x238 JUMPI DUP1 PUSH4 0x42842E0E EQ PUSH2 0x254 JUMPI DUP1 PUSH4 0x6352211E EQ PUSH2 0x270 JUMPI PUSH2 0x132 JUMP JUMPDEST DUP1 PUSH2 0xED06 EQ PUSH2 0x136 JUMPI DUP1 PUSH3 0xC966BE EQ PUSH2 0x152 JUMPI DUP1 PUSH4 0x1FFC9A7 EQ PUSH2 0x182 JUMPI DUP1 PUSH4 0x6FDDE03 EQ PUSH2 0x1B2 JUMPI DUP1 PUSH4 0x81812FC EQ PUSH2 0x1D0 JUMPI JUMPDEST PUSH0 DUP1 REVERT JUMPDEST PUSH2 0x150 PUSH1 0x4 DUP1 CALLDATASIZE SUB DUP2 ADD SWAP1 PUSH2 0x14B SWAP2 SWAP1 PUSH2 0x2C48 JUMP JUMPDEST PUSH2 0x42A JUMP JUMPDEST STOP JUMPDEST PUSH2 0x16C PUSH1 0x4 DUP1 CALLDATASIZE SUB DUP2 ADD SWAP1 PUSH2 0x167 SWAP2 SWAP1 PUSH2 0x2CB4 JUMP JUMPDEST PUSH2 0x6AD JUMP JUMPDEST PUSH1 0x40 MLOAD PUSH2 0x179 SWAP2 SWAP1 PUSH2 0x2DEE JUMP JUMPDEST PUSH1 0x40 MLOAD DUP1 SWAP2 SUB SWAP1 RETURN JUMPDEST PUSH2 0x19C PUSH1 0x4 DUP1 CALLDATASIZE SUB DUP2 ADD SWAP1 PUSH2 0x197 SWAP2 SWAP1 PUSH2 0x2E63 JUMP JUMPDEST PUSH2 0x801 JUMP JUMPDEST PUSH1 0x40 MLOAD PUSH2 0x1A9 SWAP2 SWAP1 PUSH2 0x2E9D JUMP JUMPDEST PUSH1 0x40 MLOAD DUP1 SWAP2 SUB SWAP1 RETURN JUMPDEST PUSH2 0x1BA PUSH2 0x8E2 JUMP JUMPDEST PUSH1 0x40 MLOAD PUSH2 0x1C7 SWAP2 SWAP1 PUSH2 0x2F16 JUMP JUMPDEST PUSH1 0x40 MLOAD DUP1 SWAP2 SUB SWAP1 RETURN JUMPDEST PUSH2 0x1EA PUSH1 0x4 DUP1 CALLDATASIZE SUB DUP2 ADD SWAP1 PUSH2 0x1E5 SWAP2 SWAP1 PUSH2 0x2F36 JUMP JUMPDEST PUSH2 0x971 JUMP JUMPDEST PUSH1 0x40 MLOAD PUSH2 0x1F7 SWAP2 SWAP1 PUSH2 0x2F70 JUMP JUMPDEST PUSH1 0x40 MLOAD DUP1 SWAP2 SUB SWAP1 RETURN JUMPDEST PUSH2 0x21A PUSH1 0x4 DUP1 CALLDATASIZE SUB DUP2 ADD SWAP1 PUSH2 0x215 SWAP2 SWAP1 PUSH2 0x2F89 JUMP JUMPDEST PUSH2 0x98C JUMP JUMPDEST STOP JUMPDEST PUSH2 0x236 PUSH1 0x4 DUP1 CALLDATASIZE SUB DUP2 ADD SWAP1 PUSH2 0x231 SWAP2 SWAP1 PUSH2 0x2FC7 JUMP JUMPDEST PUSH2 0x9A2 JUMP JUMPDEST STOP JUMPDEST PUSH2 0x252 PUSH1 0x4 DUP1 CALLDATASIZE SUB DUP2 ADD SWAP1 PUSH2 0x24D SWAP2 SWAP1 PUSH2 0x3017 JUMP JUMPDEST PUSH2 0xAA1 JUMP JUMPDEST STOP JUMPDEST PUSH2 0x26E PUSH1 0x4 DUP1 CALLDATASIZE SUB DUP2 ADD SWAP1 PUSH2 0x269 SWAP2 SWAP1 PUSH2 0x2FC7 JUMP JUMPDEST PUSH2 0xC18 JUMP JUMPDEST STOP JUMPDEST PUSH2 0x28A PUSH1 0x4 DUP1 CALLDATASIZE SUB DUP2 ADD SWAP1 PUSH2 0x285 SWAP2 SWAP1 PUSH2 0x2F36 JUMP JUMPDEST PUSH2 0xC37 JUMP JUMPDEST PUSH1 0x40 MLOAD PUSH2 0x297 SWAP2 SWAP1 PUSH2 0x2F70 JUMP JUMPDEST PUSH1 0x40 MLOAD DUP1 SWAP2 SUB SWAP1 RETURN JUMPDEST PUSH2 0x2BA PUSH1 0x4 DUP1 CALLDATASIZE SUB DUP2 ADD SWAP1 PUSH2 0x2B5 SWAP2 SWAP1 PUSH2 0x3083 JUMP JUMPDEST PUSH2 0xC48 JUMP JUMPDEST PUSH1 0x40 MLOAD PUSH2 0x2C7 SWAP2 SWAP1 PUSH2 0x30BD JUMP JUMPDEST PUSH1 0x40 MLOAD DUP1 SWAP2 SUB SWAP1 RETURN JUMPDEST PUSH2 0x2D8 PUSH2 0xCFE JUMP JUMPDEST STOP JUMPDEST PUSH2 0x2F4 PUSH1 0x4 DUP1 CALLDATASIZE SUB DUP2 ADD SWAP1 PUSH2 0x2EF SWAP2 SWAP1 PUSH2 0x3017 JUMP JUMPDEST PUSH2 0xD11 JUMP JUMPDEST PUSH1 0x40 MLOAD PUSH2 0x301 SWAP2 SWAP1 PUSH2 0x2E9D JUMP JUMPDEST PUSH1 0x40 MLOAD DUP1 SWAP2 SUB SWAP1 RETURN JUMPDEST PUSH2 0x312 PUSH2 0xDDD JUMP JUMPDEST PUSH1 0x40 MLOAD PUSH2 0x31F SWAP2 SWAP1 PUSH2 0x2F70 JUMP JUMPDEST PUSH1 0x40 MLOAD DUP1 SWAP2 SUB SWAP1 RETURN JUMPDEST PUSH2 0x330 PUSH2 0xE05 JUMP JUMPDEST PUSH1 0x40 MLOAD PUSH2 0x33D SWAP2 SWAP1 PUSH2 0x2F16 JUMP JUMPDEST PUSH1 0x40 MLOAD DUP1 SWAP2 SUB SWAP1 RETURN JUMPDEST PUSH2 0x360 PUSH1 0x4 DUP1 CALLDATASIZE SUB DUP2 ADD SWAP1 PUSH2 0x35B SWAP2 SWAP1 PUSH2 0x30D6 JUMP JUMPDEST PUSH2 0xE95 JUMP JUMPDEST STOP JUMPDEST PUSH2 0x37C PUSH1 0x4 DUP1 CALLDATASIZE SUB DUP2 ADD SWAP1 PUSH2 0x377 SWAP2 SWAP1 PUSH2 0x31B2 JUMP JUMPDEST PUSH2 0xEAB JUMP JUMPDEST STOP JUMPDEST PUSH2 0x398 PUSH1 0x4 DUP1 CALLDATASIZE SUB DUP2 ADD SWAP1 PUSH2 0x393 SWAP2 SWAP1 PUSH2 0x2CB4 JUMP JUMPDEST PUSH2 0xED0 JUMP JUMPDEST PUSH1 0x40 MLOAD PUSH2 0x3A5 SWAP2 SWAP1 PUSH2 0x34C3 JUMP JUMPDEST PUSH1 0x40 MLOAD DUP1 SWAP2 SUB SWAP1 RETURN JUMPDEST PUSH2 0x3C8 PUSH1 0x4 DUP1 CALLDATASIZE SUB DUP2 ADD SWAP1 PUSH2 0x3C3 SWAP2 SWAP1 PUSH2 0x2F36 JUMP JUMPDEST PUSH2 0x1513 JUMP JUMPDEST PUSH1 0x40 MLOAD PUSH2 0x3D5 SWAP2 SWAP1 PUSH2 0x2F16 JUMP JUMPDEST PUSH1 0x40 MLOAD DUP1 SWAP2 SUB SWAP1 RETURN JUMPDEST PUSH2 0x3F8 PUSH1 0x4 DUP1 CALLDATASIZE SUB DUP2 ADD SWAP1 PUSH2 0x3F3 SWAP2 SWAP1 PUSH2 0x34E3 JUMP JUMPDEST PUSH2 0x1579 JUMP JUMPDEST PUSH1 0x40 MLOAD PUSH2 0x405 SWAP2 SWAP1 PUSH2 0x2E9D JUMP JUMPDEST PUSH1 0x40 MLOAD DUP1 SWAP2 SUB SWAP1 RETURN JUMPDEST PUSH2 0x428 PUSH1 0x4 DUP1 CALLDATASIZE SUB DUP2 ADD SWAP1 PUSH2 0x423 SWAP2 SWAP1 PUSH2 0x3083 JUMP JUMPDEST PUSH2 0x1607 JUMP JUMPDEST STOP JUMPDEST PUSH2 0x432 PUSH2 0x168B JUMP JUMPDEST PUSH0 PUSH1 0x8 DUP5 PUSH0 ADD MLOAD PUSH1 0x40 MLOAD PUSH2 0x446 SWAP2 SWAP1 PUSH2 0x355B JUMP JUMPDEST SWAP1 DUP2 MSTORE PUSH1 0x20 ADD PUSH1 0x40 MLOAD DUP1 SWAP2 SUB SWAP1 KECCAK256 SLOAD EQ PUSH2 0x495 JUMPI PUSH1 0x40 MLOAD PUSH32 0x8C379A000000000000000000000000000000000000000000000000000000000 DUP2 MSTORE PUSH1 0x4 ADD PUSH2 0x48C SWAP1 PUSH2 0x35BB JUMP JUMPDEST PUSH1 0x40 MLOAD DUP1 SWAP2 SUB SWAP1 REVERT JUMPDEST PUSH1 0xA PUSH0 DUP2 SLOAD DUP1 SWAP3 SWAP2 SWAP1 PUSH2 0x4A7 SWAP1 PUSH2 0x3606 JUMP JUMPDEST SWAP2 SWAP1 POP SSTORE POP PUSH0 PUSH1 0xA SLOAD SWAP1 POP PUSH1 0x40 MLOAD DUP1 PUSH1 0xE0 ADD PUSH1 0x40 MSTORE DUP1 DUP6 PUSH0 ADD MLOAD DUP2 MSTORE PUSH1 0x20 ADD DUP6 PUSH1 0x20 ADD MLOAD DUP2 MSTORE PUSH1 0x20 ADD DUP6 PUSH1 0x40 ADD MLOAD DUP2 MSTORE PUSH1 0x20 ADD DUP6 PUSH1 0x60 ADD MLOAD DUP2 MSTORE PUSH1 0x20 ADD DUP6 PUSH1 0x80 ADD MLOAD DUP2 MSTORE PUSH1 0x20 ADD DUP6 PUSH1 0xA0 ADD MLOAD DUP2 MSTORE PUSH1 0x20 ADD PUSH1 0x1 DUP2 MSTORE POP PUSH1 0x7 PUSH0 DUP4 DUP2 MSTORE PUSH1 0x20 ADD SWAP1 DUP2 MSTORE PUSH1 0x20 ADD PUSH0 KECCAK256 PUSH0 DUP3 ADD MLOAD DUP2 PUSH0 ADD SWAP1 DUP2 PUSH2 0x521 SWAP2 SWAP1 PUSH2 0x3847 JUMP JUMPDEST POP PUSH1 0x20 DUP3 ADD MLOAD DUP2 PUSH1 0x1 ADD PUSH0 DUP3 ADD MLOAD DUP2 PUSH0 ADD SWAP1 DUP2 PUSH2 0x53E SWAP2 SWAP1 PUSH2 0x3847 JUMP JUMPDEST POP PUSH1 0x20 DUP3 ADD MLOAD DUP2 PUSH1 0x1 ADD SWAP1 DUP2 PUSH2 0x554 SWAP2 SWAP1 PUSH2 0x3847 JUMP JUMPDEST POP PUSH1 0x40 DUP3 ADD MLOAD DUP2 PUSH1 0x2 ADD SWAP1 DUP2 PUSH2 0x56A SWAP2 SWAP1 PUSH2 0x3847 JUMP JUMPDEST POP PUSH1 0x60 DUP3 ADD MLOAD DUP2 PUSH1 0x3 ADD SWAP1 DUP2 PUSH2 0x580 SWAP2 SWAP1 PUSH2 0x3847 JUMP JUMPDEST POP PUSH1 0x80 DUP3 ADD MLOAD DUP2 PUSH1 0x4 ADD SSTORE POP POP PUSH1 0x40 DUP3 ADD MLOAD DUP2 PUSH1 0x6 ADD PUSH0 DUP3 ADD MLOAD DUP2 PUSH0 ADD PUSH0 PUSH2 0x100 EXP DUP2 SLOAD DUP2 PUSH1 0xFF MUL NOT AND SWAP1 DUP4 ISZERO ISZERO MUL OR SWAP1 SSTORE POP PUSH1 0x20 DUP3 ADD MLOAD DUP2 PUSH1 0x1 ADD SSTORE PUSH1 0x40 DUP3 ADD MLOAD DUP2 PUSH1 0x2 ADD SSTORE POP POP PUSH1 0x60 DUP3 ADD MLOAD DUP2 PUSH1 0x9 ADD SWAP1 DUP1 MLOAD SWAP1 PUSH1 0x20 ADD SWAP1 PUSH2 0x5E5 SWAP3 SWAP2 SWAP1 PUSH2 0x2515 JUMP JUMPDEST POP PUSH1 0x80 DUP3 ADD MLOAD DUP2 PUSH1 0xA ADD SWAP1 DUP1 MLOAD SWAP1 PUSH1 0x20 ADD SWAP1 PUSH2 0x602 SWAP3 SWAP2 SWAP1 PUSH2 0x2515 JUMP JUMPDEST POP PUSH1 0xA0 DUP3 ADD MLOAD DUP2 PUSH1 0xB ADD SWAP1 DUP1 MLOAD SWAP1 PUSH1 0x20 ADD SWAP1 PUSH2 0x61F SWAP3 SWAP2 SWAP1 PUSH2 0x2515 JUMP JUMPDEST POP PUSH1 0xC0 DUP3 ADD MLOAD DUP2 PUSH1 0xC ADD SSTORE SWAP1 POP POP PUSH1 0x40 MLOAD DUP1 PUSH1 0x40 ADD PUSH1 0x40 MSTORE DUP1 DUP4 DUP2 MSTORE PUSH1 0x20 ADD TIMESTAMP DUP2 MSTORE POP PUSH1 0x9 PUSH0 DUP4 DUP2 MSTORE PUSH1 0x20 ADD SWAP1 DUP2 MSTORE PUSH1 0x20 ADD PUSH0 KECCAK256 PUSH0 DUP1 DUP2 MSTORE PUSH1 0x20 ADD SWAP1 DUP2 MSTORE PUSH1 0x20 ADD PUSH0 KECCAK256 PUSH0 DUP3 ADD MLOAD DUP2 PUSH0 ADD SSTORE PUSH1 0x20 DUP3 ADD MLOAD DUP2 PUSH1 0x1 ADD SSTORE SWAP1 POP POP DUP1 PUSH1 0x8 DUP6 PUSH0 ADD MLOAD PUSH1 0x40 MLOAD PUSH2 0x68B SWAP2 SWAP1 PUSH2 0x355B JUMP JUMPDEST SWAP1 DUP2 MSTORE PUSH1 0x20 ADD PUSH1 0x40 MLOAD DUP1 SWAP2 SUB SWAP1 KECCAK256 DUP2 SWAP1 SSTORE POP PUSH2 0x6A7 DUP4 DUP3 PUSH2 0x1712 JUMP JUMPDEST POP POP POP POP JUMP JUMPDEST PUSH1 0x60 PUSH0 PUSH1 0x8 DUP4 PUSH1 0x40 MLOAD PUSH2 0x6C0 SWAP2 SWAP1 PUSH2 0x355B JUMP JUMPDEST SWAP1 DUP2 MSTORE PUSH1 0x20 ADD PUSH1 0x40 MLOAD DUP1 SWAP2 SUB SWAP1 KECCAK256 SLOAD SWAP1 POP PUSH0 DUP2 SUB PUSH2 0x713 JUMPI PUSH1 0x40 MLOAD PUSH32 0x8C379A000000000000000000000000000000000000000000000000000000000 DUP2 MSTORE PUSH1 0x4 ADD PUSH2 0x70A SWAP1 PUSH2 0x3960 JUMP JUMPDEST PUSH1 0x40 MLOAD DUP1 SWAP2 SUB SWAP1 REVERT JUMPDEST PUSH0 PUSH1 0x7 PUSH0 DUP4 DUP2 MSTORE PUSH1 0x20 ADD SWAP1 DUP2 MSTORE PUSH1 0x20 ADD PUSH0 KECCAK256 PUSH1 0xC ADD SLOAD SWAP1 POP PUSH0 DUP2 PUSH8 0xFFFFFFFFFFFFFFFF DUP2 GT ISZERO PUSH2 0x746 JUMPI PUSH2 0x745 PUSH2 0x26BD JUMP JUMPDEST JUMPDEST PUSH1 0x40 MLOAD SWAP1 DUP1 DUP3 MSTORE DUP1 PUSH1 0x20 MUL PUSH1 0x20 ADD DUP3 ADD PUSH1 0x40 MSTORE DUP1 ISZERO PUSH2 0x77F JUMPI DUP2 PUSH1 0x20 ADD JUMPDEST PUSH2 0x76C PUSH2 0x256C JUMP JUMPDEST DUP2 MSTORE PUSH1 0x20 ADD SWAP1 PUSH1 0x1 SWAP1 SUB SWAP1 DUP2 PUSH2 0x764 JUMPI SWAP1 POP JUMPDEST POP SWAP1 POP PUSH0 JUMPDEST DUP3 DUP2 LT ISZERO PUSH2 0x7F5 JUMPI PUSH1 0x9 PUSH0 DUP6 DUP2 MSTORE PUSH1 0x20 ADD SWAP1 DUP2 MSTORE PUSH1 0x20 ADD PUSH0 KECCAK256 PUSH0 DUP3 DUP2 MSTORE PUSH1 0x20 ADD SWAP1 DUP2 MSTORE PUSH1 0x20 ADD PUSH0 KECCAK256 PUSH1 0x40 MLOAD DUP1 PUSH1 0x40 ADD PUSH1 0x40 MSTORE SWAP1 DUP2 PUSH0 DUP3 ADD SLOAD DUP2 MSTORE PUSH1 0x20 ADD PUSH1 0x1 DUP3 ADD SLOAD DUP2 MSTORE POP POP DUP3 DUP3 DUP2 MLOAD DUP2 LT PUSH2 0x7DD JUMPI PUSH2 0x7DC PUSH2 0x397E JUMP JUMPDEST JUMPDEST PUSH1 0x20 MUL PUSH1 0x20 ADD ADD DUP2 SWAP1 MSTORE POP DUP1 DUP1 PUSH1 0x1 ADD SWAP2 POP POP PUSH2 0x784 JUMP JUMPDEST POP DUP1 SWAP4 POP POP POP POP SWAP2 SWAP1 POP JUMP JUMPDEST PUSH0 PUSH32 0x80AC58CD00000000000000000000000000000000000000000000000000000000 PUSH28 0xFFFFFFFFFFFFFFFFFFFFFFFFFFFFFFFFFFFFFFFFFFFFFFFFFFFFFFFF NOT AND DUP3 PUSH28 0xFFFFFFFFFFFFFFFFFFFFFFFFFFFFFFFFFFFFFFFFFFFFFFFFFFFFFFFF NOT AND EQ DUP1 PUSH2 0x8CB JUMPI POP PUSH32 0x5B5E139F00000000000000000000000000000000000000000000000000000000 PUSH28 0xFFFFFFFFFFFFFFFFFFFFFFFFFFFFFFFFFFFFFFFFFFFFFFFFFFFFFFFF NOT AND DUP3 PUSH28 0xFFFFFFFFFFFFFFFFFFFFFFFFFFFFFFFFFFFFFFFFFFFFFFFFFFFFFFFF NOT AND EQ JUMPDEST DUP1 PUSH2 0x8DB JUMPI POP PUSH2 0x8DA DUP3 PUSH2 0x172F JUMP JUMPDEST JUMPDEST SWAP1 POP SWAP2 SWAP1 POP JUMP JUMPDEST PUSH1 0x60 PUSH0 DUP1 SLOAD PUSH2 0x8F0 SWAP1 PUSH2 0x367A JUMP JUMPDEST DUP1 PUSH1 0x1F ADD PUSH1 0x20 DUP1 SWAP2 DIV MUL PUSH1 0x20 ADD PUSH1 0x40 MLOAD SWAP1 DUP2 ADD PUSH1 0x40 MSTORE DUP1 SWAP3 SWAP2 SWAP1 DUP2 DUP2 MSTORE PUSH1 0x20 ADD DUP3 DUP1 SLOAD PUSH2 0x91C SWAP1 PUSH2 0x367A JUMP JUMPDEST DUP1 ISZERO PUSH2 0x967 JUMPI DUP1 PUSH1 0x1F LT PUSH2 0x93E JUMPI PUSH2 0x100 DUP1 DUP4 SLOAD DIV MUL DUP4 MSTORE SWAP2 PUSH1 0x20 ADD SWAP2 PUSH2 0x967 JUMP JUMPDEST DUP3 ADD SWAP2 SWAP1 PUSH0 MSTORE PUSH1 0x20 PUSH0 KECCAK256 SWAP1 JUMPDEST DUP2 SLOAD DUP2 MSTORE SWAP1 PUSH1 0x1 ADD SWAP1 PUSH1 0x20 ADD DUP1 DUP4 GT PUSH2 0x94A JUMPI DUP3 SWAP1 SUB PUSH1 0x1F AND DUP3 ADD SWAP2 JUMPDEST POP POP POP POP POP SWAP1 POP SWAP1 JUMP JUMPDEST PUSH0 PUSH2 0x97B DUP3 PUSH2 0x1798 JUMP JUMPDEST POP PUSH2 0x985 DUP3 PUSH2 0x181E JUMP JUMPDEST SWAP1 POP SWAP2 SWAP1 POP JUMP JUMPDEST PUSH2 0x99E DUP3 DUP3 PUSH2 0x999 PUSH2 0x1857 JUMP JUMPDEST PUSH2 0x185E JUMP JUMPDEST POP POP JUMP JUMPDEST PUSH0 PUSH20 0xFFFFFFFFFFFFFFFFFFFFFFFFFFFFFFFFFFFFFFFF AND DUP3 PUSH20 0xFFFFFFFFFFFFFFFFFFFFFFFFFFFFFFFFFFFFFFFF AND SUB PUSH2 0xA12 JUMPI PUSH0 PUSH1 0x40 MLOAD PUSH32 0x64A0AE9200000000000000000000000000000000000000000000000000000000 DUP2 MSTORE PUSH1 0x4 ADD PUSH2 0xA09 SWAP2 SWAP1 PUSH2 0x2F70 JUMP JUMPDEST PUSH1 0x40 MLOAD DUP1 SWAP2 SUB SWAP1 REVERT JUMPDEST PUSH0 PUSH2 0xA25 DUP4 DUP4 PUSH2 0xA20 PUSH2 0x1857 JUMP JUMPDEST PUSH2 0x1870 JUMP JUMPDEST SWAP1 POP DUP4 PUSH20 0xFFFFFFFFFFFFFFFFFFFFFFFFFFFFFFFFFFFFFFFF AND DUP2 PUSH20 0xFFFFFFFFFFFFFFFFFFFFFFFFFFFFFFFFFFFFFFFF AND EQ PUSH2 0xA9B JUMPI DUP4 DUP3 DUP3 PUSH1 0x40 MLOAD PUSH32 0x64283D7B00000000000000000000000000000000000000000000000000000000 DUP2 MSTORE PUSH1 0x4 ADD PUSH2 0xA92 SWAP4 SWAP3 SWAP2 SWAP1 PUSH2 0x39AB JUMP JUMPDEST PUSH1 0x40 MLOAD DUP1 SWAP2 SUB SWAP1 REVERT JUMPDEST POP POP POP POP JUMP JUMPDEST PUSH0 PUSH1 0x8 DUP5 PUSH1 0x40 MLOAD PUSH2 0xAB2 SWAP2 SWAP1 PUSH2 0x355B JUMP JUMPDEST SWAP1 DUP2 MSTORE PUSH1 0x20 ADD PUSH1 0x40 MLOAD DUP1 SWAP2 SUB SWAP1 KECCAK256 SLOAD SWAP1 POP PUSH0 DUP2 SUB PUSH2 0xB05 JUMPI PUSH1 0x40 MLOAD PUSH32 0x8C379A000000000000000000000000000000000000000000000000000000000 DUP2 MSTORE PUSH1 0x4 ADD PUSH2 0xAFC SWAP1 PUSH2 0x3960 JUMP JUMPDEST PUSH1 0x40 MLOAD DUP1 SWAP2 SUB SWAP1 REVERT JUMPDEST CALLER PUSH20 0xFFFFFFFFFFFFFFFFFFFFFFFFFFFFFFFFFFFFFFFF AND PUSH2 0xB25 DUP3 PUSH2 0xC37 JUMP JUMPDEST PUSH20 0xFFFFFFFFFFFFFFFFFFFFFFFFFFFFFFFFFFFFFFFF AND EQ PUSH2 0xB7B JUMPI PUSH1 0x40 MLOAD PUSH32 0x8C379A000000000000000000000000000000000000000000000000000000000 DUP2 MSTORE PUSH1 0x4 ADD PUSH2 0xB72 SWAP1 PUSH2 0x3A2A JUMP JUMPDEST PUSH1 0x40 MLOAD DUP1 SWAP2 SUB SWAP1 REVERT JUMPDEST PUSH0 PUSH1 0x7 PUSH0 DUP4 DUP2 MSTORE PUSH1 0x20 ADD SWAP1 DUP2 MSTORE PUSH1 0x20 ADD PUSH0 KECCAK256 PUSH1 0xC ADD SLOAD SWAP1 POP PUSH1 0x40 MLOAD DUP1 PUSH1 0x40 ADD PUSH1 0x40 MSTORE DUP1 DUP5 DUP2 MSTORE PUSH1 0x20 ADD TIMESTAMP DUP2 MSTORE POP PUSH1 0x9 PUSH0 DUP5 DUP2 MSTORE PUSH1 0x20 ADD SWAP1 DUP2 MSTORE PUSH1 0x20 ADD PUSH0 KECCAK256 PUSH0 DUP4 DUP2 MSTORE PUSH1 0x20 ADD SWAP1 DUP2 MSTORE PUSH1 0x20 ADD PUSH0 KECCAK256 PUSH0 DUP3 ADD MLOAD DUP2 PUSH0 ADD SSTORE PUSH1 0x20 DUP3 ADD MLOAD DUP2 PUSH1 0x1 ADD SSTORE SWAP1 POP POP PUSH1 0x7 PUSH0 DUP4 DUP2 MSTORE PUSH1 0x20 ADD SWAP1 DUP2 MSTORE PUSH1 0x20 ADD PUSH0 KECCAK256 PUSH1 0xC ADD PUSH0 DUP2 SLOAD DUP1 SWAP3 SWAP2 SWAP1 PUSH2 0xC01 SWAP1 PUSH2 0x3606 JUMP JUMPDEST SWAP2 SWAP1 POP SSTORE POP PUSH2 0xC11 CALLER DUP6 DUP5 PUSH2 0xC18 JUMP JUMPDEST POP POP POP POP POP JUMP JUMPDEST PUSH2 0xC32 DUP4 DUP4 DUP4 PUSH1 0x40 MLOAD DUP1 PUSH1 0x20 ADD PUSH1 0x40 MSTORE DUP1 PUSH0 DUP2 MSTORE POP PUSH2 0xEAB JUMP JUMPDEST POP POP POP JUMP JUMPDEST PUSH0 PUSH2 0xC41 DUP3 PUSH2 0x1798 JUMP JUMPDEST SWAP1 POP SWAP2 SWAP1 POP JUMP JUMPDEST PUSH0 DUP1 PUSH20 0xFFFFFFFFFFFFFFFFFFFFFFFFFFFFFFFFFFFFFFFF AND DUP3 PUSH20 0xFFFFFFFFFFFFFFFFFFFFFFFFFFFFFFFFFFFFFFFF AND SUB PUSH2 0xCB9 JUMPI PUSH0 PUSH1 0x40 MLOAD PUSH32 0x89C62B6400000000000000000000000000000000000000000000000000000000 DUP2 MSTORE PUSH1 0x4 ADD PUSH2 0xCB0 SWAP2 SWAP1 PUSH2 0x2F70 JUMP JUMPDEST PUSH1 0x40 MLOAD DUP1 SWAP2 SUB SWAP1 REVERT JUMPDEST PUSH1 0x3 PUSH0 DUP4 PUSH20 0xFFFFFFFFFFFFFFFFFFFFFFFFFFFFFFFFFFFFFFFF AND PUSH20 0xFFFFFFFFFFFFFFFFFFFFFFFFFFFFFFFFFFFFFFFF AND DUP2 MSTORE PUSH1 0x20 ADD SWAP1 DUP2 MSTORE PUSH1 0x20 ADD PUSH0 KECCAK256 SLOAD SWAP1 POP SWAP2 SWAP1 POP JUMP JUMPDEST PUSH2 0xD06 PUSH2 0x168B JUMP JUMPDEST PUSH2 0xD0F PUSH0 PUSH2 0x1A7B JUMP JUMPDEST JUMP JUMPDEST PUSH0 DUP1 PUSH1 0x8 DUP6 PUSH1 0x40 MLOAD PUSH2 0xD23 SWAP2 SWAP1 PUSH2 0x355B JUMP JUMPDEST SWAP1 DUP2 MSTORE PUSH1 0x20 ADD PUSH1 0x40 MLOAD DUP1 SWAP2 SUB SWAP1 KECCAK256 SLOAD SWAP1 POP PUSH0 DUP2 SUB PUSH2 0xD44 JUMPI PUSH0 SWAP2 POP POP PUSH2 0xDD6 JUMP JUMPDEST DUP4 PUSH20 0xFFFFFFFFFFFFFFFFFFFFFFFFFFFFFFFFFFFFFFFF AND PUSH2 0xD64 DUP3 PUSH2 0xC37 JUMP JUMPDEST PUSH20 0xFFFFFFFFFFFFFFFFFFFFFFFFFFFFFFFFFFFFFFFF AND EQ PUSH2 0xD88 JUMPI PUSH0 SWAP2 POP POP PUSH2 0xDD6 JUMP JUMPDEST PUSH0 PUSH1 0x1 PUSH1 0x7 PUSH0 DUP5 DUP2 MSTORE PUSH1 0x20 ADD SWAP1 DUP2 MSTORE PUSH1 0x20 ADD PUSH0 KECCAK256 PUSH1 0xC ADD SLOAD PUSH2 0xDAA SWAP2 SWAP1 PUSH2 0x3A48 JUMP JUMPDEST SWAP1 POP DUP4 PUSH1 0x9 PUSH0 DUP5 DUP2 MSTORE PUSH1 0x20 ADD SWAP1 DUP2 MSTORE PUSH1 0x20 ADD PUSH0 KECCAK256 PUSH0 DUP4 DUP2 MSTORE PUSH1 0x20 ADD SWAP1 DUP2 MSTORE PUSH1 0x20 ADD PUSH0 KECCAK256 PUSH0 ADD SLOAD EQ SWAP3 POP POP POP JUMPDEST SWAP4 SWAP3 POP POP POP JUMP JUMPDEST PUSH0 PUSH1 0x6 PUSH0 SWAP1 SLOAD SWAP1 PUSH2 0x100 EXP SWAP1 DIV PUSH20 0xFFFFFFFFFFFFFFFFFFFFFFFFFFFFFFFFFFFFFFFF AND SWAP1 POP SWAP1 JUMP JUMPDEST PUSH1 0x60 PUSH1 0x1 DUP1 SLOAD PUSH2 0xE14 SWAP1 PUSH2 0x367A JUMP JUMPDEST DUP1 PUSH1 0x1F ADD PUSH1 0x20 DUP1 SWAP2 DIV MUL PUSH1 0x20 ADD PUSH1 0x40 MLOAD SWAP1 DUP2 ADD PUSH1 0x40 MSTORE DUP1 SWAP3 SWAP2 SWAP1 DUP2 DUP2 MSTORE PUSH1 0x20 ADD DUP3 DUP1 SLOAD PUSH2 0xE40 SWAP1 PUSH2 0x367A JUMP JUMPDEST DUP1 ISZERO PUSH2 0xE8B JUMPI DUP1 PUSH1 0x1F LT PUSH2 0xE62 JUMPI PUSH2 0x100 DUP1 DUP4 SLOAD DIV MUL DUP4 MSTORE SWAP2 PUSH1 0x20 ADD SWAP2 PUSH2 0xE8B JUMP JUMPDEST DUP3 ADD SWAP2 SWAP1 PUSH0 MSTORE PUSH1 0x20 PUSH0 KECCAK256 SWAP1 JUMPDEST DUP2 SLOAD DUP2 MSTORE SWAP1 PUSH1 0x1 ADD SWAP1 PUSH1 0x20 ADD DUP1 DUP4 GT PUSH2 0xE6E JUMPI DUP3 SWAP1 SUB PUSH1 0x1F AND DUP3 ADD SWAP2 JUMPDEST POP POP POP POP POP SWAP1 POP SWAP1 JUMP JUMPDEST PUSH2 0xEA7 PUSH2 0xEA0 PUSH2 0x1857 JUMP JUMPDEST DUP4 DUP4 PUSH2 0x1B3E JUMP JUMPDEST POP POP JUMP JUMPDEST PUSH2 0xEB6 DUP5 DUP5 DUP5 PUSH2 0x9A2 JUMP JUMPDEST PUSH2 0xECA PUSH2 0xEC1 PUSH2 0x1857 JUMP JUMPDEST DUP6 DUP6 DUP6 DUP6 PUSH2 0x1CA7 JUMP JUMPDEST POP POP POP POP JUMP JUMPDEST PUSH2 0xED8 PUSH2 0x2587 JUMP JUMPDEST PUSH0 PUSH1 0x8 DUP4 PUSH1 0x40 MLOAD PUSH2 0xEE9 SWAP2 SWAP1 PUSH2 0x355B JUMP JUMPDEST SWAP1 DUP2 MSTORE PUSH1 0x20 ADD PUSH1 0x40 MLOAD DUP1 SWAP2 SUB SWAP1 KECCAK256 SLOAD SWAP1 POP PUSH0 DUP2 SUB PUSH2 0xF3C JUMPI PUSH1 0x40 MLOAD PUSH32 0x8C379A000000000000000000000000000000000000000000000000000000000 DUP2 MSTORE PUSH1 0x4 ADD PUSH2 0xF33 SWAP1 PUSH2 0x3960 JUMP JUMPDEST PUSH1 0x40 MLOAD DUP1 SWAP2 SUB SWAP1 REVERT JUMPDEST PUSH1 0x7 PUSH0 DUP3 DUP2 MSTORE PUSH1 0x20 ADD SWAP1 DUP2 MSTORE PUSH1 0x20 ADD PUSH0 KECCAK256 PUSH1 0x40 MLOAD DUP1 PUSH1 0xE0 ADD PUSH1 0x40 MSTORE SWAP1 DUP2 PUSH0 DUP3 ADD DUP1 SLOAD PUSH2 0xF67 SWAP1 PUSH2 0x367A JUMP JUMPDEST DUP1 PUSH1 0x1F ADD PUSH1 0x20 DUP1 SWAP2 DIV MUL PUSH1 0x20 ADD PUSH1 0x40 MLOAD SWAP1 DUP2 ADD PUSH1 0x40 MSTORE DUP1 SWAP3 SWAP2 SWAP1 DUP2 DUP2 MSTORE PUSH1 0x20 ADD DUP3 DUP1 SLOAD PUSH2 0xF93 SWAP1 PUSH2 0x367A JUMP JUMPDEST DUP1 ISZERO PUSH2 0xFDE JUMPI DUP1 PUSH1 0x1F LT PUSH2 0xFB5 JUMPI PUSH2 0x100 DUP1 DUP4 SLOAD DIV MUL DUP4 MSTORE SWAP2 PUSH1 0x20 ADD SWAP2 PUSH2 0xFDE JUMP JUMPDEST DUP3 ADD SWAP2 SWAP1 PUSH0 MSTORE PUSH1 0x20 PUSH0 KECCAK256 SWAP1 JUMPDEST DUP2 SLOAD DUP2 MSTORE SWAP1 PUSH1 0x1 ADD SWAP1 PUSH1 0x20 ADD DUP1 DUP4 GT PUSH2 0xFC1 JUMPI DUP3 SWAP1 SUB PUSH1 0x1F AND DUP3 ADD SWAP2 JUMPDEST POP POP POP POP POP DUP2 MSTORE PUSH1 0x20 ADD PUSH1 0x1 DUP3 ADD PUSH1 0x40 MLOAD DUP1 PUSH1 0xA0 ADD PUSH1 0x40 MSTORE SWAP1 DUP2 PUSH0 DUP3 ADD DUP1 SLOAD PUSH2 0x1006 SWAP1 PUSH2 0x367A JUMP JUMPDEST DUP1 PUSH1 0x1F ADD PUSH1 0x20 DUP1 SWAP2 DIV MUL PUSH1 0x20 ADD PUSH1 0x40 MLOAD SWAP1 DUP2 ADD PUSH1 0x40 MSTORE DUP1 SWAP3 SWAP2 SWAP1 DUP2 DUP2 MSTORE PUSH1 0x20 ADD DUP3 DUP1 SLOAD PUSH2 0x1032 SWAP1 PUSH2 0x367A JUMP JUMPDEST DUP1 ISZERO PUSH2 0x107D JUMPI DUP1 PUSH1 0x1F LT PUSH2 0x1054 JUMPI PUSH2 0x100 DUP1 DUP4 SLOAD DIV MUL DUP4 MSTORE SWAP2 PUSH1 0x20 ADD SWAP2 PUSH2 0x107D JUMP JUMPDEST DUP3 ADD SWAP2 SWAP1 PUSH0 MSTORE PUSH1 0x20 PUSH0 KECCAK256 SWAP1 JUMPDEST DUP2 SLOAD DUP2 MSTORE SWAP1 PUSH1 0x1 ADD SWAP1 PUSH1 0x20 ADD DUP1 DUP4 GT PUSH2 0x1060 JUMPI DUP3 SWAP1 SUB PUSH1 0x1F AND DUP3 ADD SWAP2 JUMPDEST POP POP POP POP POP DUP2 MSTORE PUSH1 0x20 ADD PUSH1 0x1 DUP3 ADD DUP1 SLOAD PUSH2 0x1096 SWAP1 PUSH2 0x367A JUMP JUMPDEST DUP1 PUSH1 0x1F ADD PUSH1 0x20 DUP1 SWAP2 DIV MUL PUSH1 0x20 ADD PUSH1 0x40 MLOAD SWAP1 DUP2 ADD PUSH1 0x40 MSTORE DUP1 SWAP3 SWAP2 SWAP1 DUP2 DUP2 MSTORE PUSH1 0x20 ADD DUP3 DUP1 SLOAD PUSH2 0x10C2 SWAP1 PUSH2 0x367A JUMP JUMPDEST DUP1 ISZERO PUSH2 0x110D JUMPI DUP1 PUSH1 0x1F LT PUSH2 0x10E4 JUMPI PUSH2 0x100 DUP1 DUP4 SLOAD DIV MUL DUP4 MSTORE SWAP2 PUSH1 0x20 ADD SWAP2 PUSH2 0x110D JUMP JUMPDEST DUP3 ADD SWAP2 SWAP1 PUSH0 MSTORE PUSH1 0x20 PUSH0 KECCAK256 SWAP1 JUMPDEST DUP2 SLOAD DUP2 MSTORE SWAP1 PUSH1 0x1 ADD SWAP1 PUSH1 0x20 ADD DUP1 DUP4 GT PUSH2 0x10F0 JUMPI DUP3 SWAP1 SUB PUSH1 0x1F AND DUP3 ADD SWAP2 JUMPDEST POP POP POP POP POP DUP2 MSTORE PUSH1 0x20 ADD PUSH1 0x2 DUP3 ADD DUP1 SLOAD PUSH2 0x1126 SWAP1 PUSH2 0x367A JUMP JUMPDEST DUP1 PUSH1 0x1F ADD PUSH1 0x20 DUP1 SWAP2 DIV MUL PUSH1 0x20 ADD PUSH1 0x40 MLOAD SWAP1 DUP2 ADD PUSH1 0x40 MSTORE DUP1 SWAP3 SWAP2 SWAP1 DUP2 DUP2 MSTORE PUSH1 0x20 ADD DUP3 DUP1 SLOAD PUSH2 0x1152 SWAP1 PUSH2 0x367A JUMP JUMPDEST DUP1 ISZERO PUSH2 0x119D JUMPI DUP1 PUSH1 0x1F LT PUSH2 0x1174 JUMPI PUSH2 0x100 DUP1 DUP4 SLOAD DIV MUL DUP4 MSTORE SWAP2 PUSH1 0x20 ADD SWAP2 PUSH2 0x119D JUMP JUMPDEST DUP3 ADD SWAP2 SWAP1 PUSH0 MSTORE PUSH1 0x20 PUSH0 KECCAK256 SWAP1 JUMPDEST DUP2 SLOAD DUP2 MSTORE SWAP1 PUSH1 0x1 ADD SWAP1 PUSH1 0x20 ADD DUP1 DUP4 GT PUSH2 0x1180 JUMPI DUP3 SWAP1 SUB PUSH1 0x1F AND DUP3 ADD SWAP2 JUMPDEST POP POP POP POP POP DUP2 MSTORE PUSH1 0x20 ADD PUSH1 0x3 DUP3 ADD DUP1 SLOAD PUSH2 0x11B6 SWAP1 PUSH2 0x367A JUMP JUMPDEST DUP1 PUSH1 0x1F ADD PUSH1 0x20 DUP1 SWAP2 DIV MUL PUSH1 0x20 ADD PUSH1 0x40 MLOAD SWAP1 DUP2 ADD PUSH1 0x40 MSTORE DUP1 SWAP3 SWAP2 SWAP1 DUP2 DUP2 MSTORE PUSH1 0x20 ADD DUP3 DUP1 SLOAD PUSH2 0x11E2 SWAP1 PUSH2 0x367A JUMP JUMPDEST DUP1 ISZERO PUSH2 0x122D JUMPI DUP1 PUSH1 0x1F LT PUSH2 0x1204 JUMPI PUSH2 0x100 DUP1 DUP4 SLOAD DIV MUL DUP4 MSTORE SWAP2 PUSH1 0x20 ADD SWAP2 PUSH2 0x122D JUMP JUMPDEST DUP3 ADD SWAP2 SWAP1 PUSH0 MSTORE PUSH1 0x20 PUSH0 KECCAK256 SWAP1 JUMPDEST DUP2 SLOAD DUP2 MSTORE SWAP1 PUSH1 0x1 ADD SWAP1 PUSH1 0x20 ADD DUP1 DUP4 GT PUSH2 0x1210 JUMPI DUP3 SWAP1 SUB PUSH1 0x1F AND DUP3 ADD SWAP2 JUMPDEST POP POP POP POP POP DUP2 MSTORE PUSH1 0x20 ADD PUSH1 0x4 DUP3 ADD SLOAD DUP2 MSTORE POP POP DUP2 MSTORE PUSH1 0x20 ADD PUSH1 0x6 DUP3 ADD PUSH1 0x40 MLOAD DUP1 PUSH1 0x60 ADD PUSH1 0x40 MSTORE SWAP1 DUP2 PUSH0 DUP3 ADD PUSH0 SWAP1 SLOAD SWAP1 PUSH2 0x100 EXP SWAP1 DIV PUSH1 0xFF AND ISZERO ISZERO ISZERO ISZERO DUP2 MSTORE PUSH1 0x20 ADD PUSH1 0x1 DUP3 ADD SLOAD DUP2 MSTORE PUSH1 0x20 ADD PUSH1 0x2 DUP3 ADD SLOAD DUP2 MSTORE POP POP DUP2 MSTORE PUSH1 0x20 ADD PUSH1 0x9 DUP3 ADD DUP1 SLOAD DUP1 PUSH1 0x20 MUL PUSH1 0x20 ADD PUSH1 0x40 MLOAD SWAP1 DUP2 ADD PUSH1 0x40 MSTORE DUP1 SWAP3 SWAP2 SWAP1 DUP2 DUP2 MSTORE PUSH1 0x20 ADD PUSH0 SWAP1 JUMPDEST DUP3 DUP3 LT ISZERO PUSH2 0x1351 JUMPI DUP4 DUP3 SWAP1 PUSH0 MSTORE PUSH1 0x20 PUSH0 KECCAK256 ADD DUP1 SLOAD PUSH2 0x12C6 SWAP1 PUSH2 0x367A JUMP JUMPDEST DUP1 PUSH1 0x1F ADD PUSH1 0x20 DUP1 SWAP2 DIV MUL PUSH1 0x20 ADD PUSH1 0x40 MLOAD SWAP1 DUP2 ADD PUSH1 0x40 MSTORE DUP1 SWAP3 SWAP2 SWAP1 DUP2 DUP2 MSTORE PUSH1 0x20 ADD DUP3 DUP1 SLOAD PUSH2 0x12F2 SWAP1 PUSH2 0x367A JUMP JUMPDEST DUP1 ISZERO PUSH2 0x133D JUMPI DUP1 PUSH1 0x1F LT PUSH2 0x1314 JUMPI PUSH2 0x100 DUP1 DUP4 SLOAD DIV MUL DUP4 MSTORE SWAP2 PUSH1 0x20 ADD SWAP2 PUSH2 0x133D JUMP JUMPDEST DUP3 ADD SWAP2 SWAP1 PUSH0 MSTORE PUSH1 0x20 PUSH0 KECCAK256 SWAP1 JUMPDEST DUP2 SLOAD DUP2 MSTORE SWAP1 PUSH1 0x1 ADD SWAP1 PUSH1 0x20 ADD DUP1 DUP4 GT PUSH2 0x1320 JUMPI DUP3 SWAP1 SUB PUSH1 0x1F AND DUP3 ADD SWAP2 JUMPDEST POP POP POP POP POP DUP2 MSTORE PUSH1 0x20 ADD SWAP1 PUSH1 0x1 ADD SWAP1 PUSH2 0x12A9 JUMP JUMPDEST POP POP POP POP DUP2 MSTORE PUSH1 0x20 ADD PUSH1 0xA DUP3 ADD DUP1 SLOAD DUP1 PUSH1 0x20 MUL PUSH1 0x20 ADD PUSH1 0x40 MLOAD SWAP1 DUP2 ADD PUSH1 0x40 MSTORE DUP1 SWAP3 SWAP2 SWAP1 DUP2 DUP2 MSTORE PUSH1 0x20 ADD PUSH0 SWAP1 JUMPDEST DUP3 DUP3 LT ISZERO PUSH2 0x1425 JUMPI DUP4 DUP3 SWAP1 PUSH0 MSTORE PUSH1 0x20 PUSH0 KECCAK256 ADD DUP1 SLOAD PUSH2 0x139A SWAP1 PUSH2 0x367A JUMP JUMPDEST DUP1 PUSH1 0x1F ADD PUSH1 0x20 DUP1 SWAP2 DIV MUL PUSH1 0x20 ADD PUSH1 0x40 MLOAD SWAP1 DUP2 ADD PUSH1 0x40 MSTORE DUP1 SWAP3 SWAP2 SWAP1 DUP2 DUP2 MSTORE PUSH1 0x20 ADD DUP3 DUP1 SLOAD PUSH2 0x13C6 SWAP1 PUSH2 0x367A JUMP JUMPDEST DUP1 ISZERO PUSH2 0x1411 JUMPI DUP1 PUSH1 0x1F LT PUSH2 0x13E8 JUMPI PUSH2 0x100 DUP1 DUP4 SLOAD DIV MUL DUP4 MSTORE SWAP2 PUSH1 0x20 ADD SWAP2 PUSH2 0x1411 JUMP JUMPDEST DUP3 ADD SWAP2 SWAP1 PUSH0 MSTORE PUSH1 0x20 PUSH0 KECCAK256 SWAP1 JUMPDEST DUP2 SLOAD DUP2 MSTORE SWAP1 PUSH1 0x1 ADD SWAP1 PUSH1 0x20 ADD DUP1 DUP4 GT PUSH2 0x13F4 JUMPI DUP3 SWAP1 SUB PUSH1 0x1F AND DUP3 ADD SWAP2 JUMPDEST POP POP POP POP POP DUP2 MSTORE PUSH1 0x20 ADD SWAP1 PUSH1 0x1 ADD SWAP1 PUSH2 0x137D JUMP JUMPDEST POP POP POP POP DUP2 MSTORE PUSH1 0x20 ADD PUSH1 0xB DUP3 ADD DUP1 SLOAD DUP1 PUSH1 0x20 MUL PUSH1 0x20 ADD PUSH1 0x40 MLOAD SWAP1 DUP2 ADD PUSH1 0x40 MSTORE DUP1 SWAP3 SWAP2 SWAP1 DUP2 DUP2 MSTORE PUSH1 0x20 ADD PUSH0 SWAP1 JUMPDEST DUP3 DUP3 LT ISZERO PUSH2 0x14F9 JUMPI DUP4 DUP3 SWAP1 PUSH0 MSTORE PUSH1 0x20 PUSH0 KECCAK256 ADD DUP1 SLOAD PUSH2 0x146E SWAP1 PUSH2 0x367A JUMP JUMPDEST DUP1 PUSH1 0x1F ADD PUSH1 0x20 DUP1 SWAP2 DIV MUL PUSH1 0x20 ADD PUSH1 0x40 MLOAD SWAP1 DUP2 ADD PUSH1 0x40 MSTORE DUP1 SWAP3 SWAP2 SWAP1 DUP2 DUP2 MSTORE PUSH1 0x20 ADD DUP3 DUP1 SLOAD PUSH2 0x149A SWAP1 PUSH2 0x367A JUMP JUMPDEST DUP1 ISZERO PUSH2 0x14E5 JUMPI DUP1 PUSH1 0x1F LT PUSH2 0x14BC JUMPI PUSH2 0x100 DUP1 DUP4 SLOAD DIV MUL DUP4 MSTORE SWAP2 PUSH1 0x20 ADD SWAP2 PUSH2 0x14E5 JUMP JUMPDEST DUP3 ADD SWAP2 SWAP1 PUSH0 MSTORE PUSH1 0x20 PUSH0 KECCAK256 SWAP1 JUMPDEST DUP2 SLOAD DUP2 MSTORE SWAP1 PUSH1 0x1 ADD SWAP1 PUSH1 0x20 ADD DUP1 DUP4 GT PUSH2 0x14C8 JUMPI DUP3 SWAP1 SUB PUSH1 0x1F AND DUP3 ADD SWAP2 JUMPDEST POP POP POP POP POP DUP2 MSTORE PUSH1 0x20 ADD SWAP1 PUSH1 0x1 ADD SWAP1 PUSH2 0x1451 JUMP JUMPDEST POP POP POP POP DUP2 MSTORE PUSH1 0x20 ADD PUSH1 0xC DUP3 ADD SLOAD DUP2 MSTORE POP POP SWAP2 POP POP SWAP2 SWAP1 POP JUMP JUMPDEST PUSH1 0x60 PUSH2 0x151E DUP3 PUSH2 0x1798 JUMP JUMPDEST POP PUSH0 PUSH2 0x1528 PUSH2 0x1E53 JUMP JUMPDEST SWAP1 POP PUSH0 DUP2 MLOAD GT PUSH2 0x1546 JUMPI PUSH1 0x40 MLOAD DUP1 PUSH1 0x20 ADD PUSH1 0x40 MSTORE DUP1 PUSH0 DUP2 MSTORE POP PUSH2 0x1571 JUMP JUMPDEST DUP1 PUSH2 0x1550 DUP5 PUSH2 0x1E69 JUMP JUMPDEST PUSH1 0x40 MLOAD PUSH1 0x20 ADD PUSH2 0x1561 SWAP3 SWAP2 SWAP1 PUSH2 0x3A7B JUMP JUMPDEST PUSH1 0x40 MLOAD PUSH1 0x20 DUP2 DUP4 SUB SUB DUP2 MSTORE SWAP1 PUSH1 0x40 MSTORE JUMPDEST SWAP2 POP POP SWAP2 SWAP1 POP JUMP JUMPDEST PUSH0 PUSH1 0x5 PUSH0 DUP5 PUSH20 0xFFFFFFFFFFFFFFFFFFFFFFFFFFFFFFFFFFFFFFFF AND PUSH20 0xFFFFFFFFFFFFFFFFFFFFFFFFFFFFFFFFFFFFFFFF AND DUP2 MSTORE PUSH1 0x20 ADD SWAP1 DUP2 MSTORE PUSH1 0x20 ADD PUSH0 KECCAK256 PUSH0 DUP4 PUSH20 0xFFFFFFFFFFFFFFFFFFFFFFFFFFFFFFFFFFFFFFFF AND PUSH20 0xFFFFFFFFFFFFFFFFFFFFFFFFFFFFFFFFFFFFFFFF AND DUP2 MSTORE PUSH1 0x20 ADD SWAP1 DUP2 MSTORE PUSH1 0x20 ADD PUSH0 KECCAK256 PUSH0 SWAP1 SLOAD SWAP1 PUSH2 0x100 EXP SWAP1 DIV PUSH1 0xFF AND SWAP1 POP SWAP3 SWAP2 POP POP JUMP JUMPDEST PUSH2 0x160F PUSH2 0x168B JUMP JUMPDEST PUSH0 PUSH20 0xFFFFFFFFFFFFFFFFFFFFFFFFFFFFFFFFFFFFFFFF AND DUP2 PUSH20 0xFFFFFFFFFFFFFFFFFFFFFFFFFFFFFFFFFFFFFFFF AND SUB PUSH2 0x167F JUMPI PUSH0 PUSH1 0x40 MLOAD PUSH32 0x1E4FBDF700000000000000000000000000000000000000000000000000000000 DUP2 MSTORE PUSH1 0x4 ADD PUSH2 0x1676 SWAP2 SWAP1 PUSH2 0x2F70 JUMP JUMPDEST PUSH1 0x40 MLOAD DUP1 SWAP2 SUB SWAP1 REVERT JUMPDEST PUSH2 0x1688 DUP2 PUSH2 0x1A7B JUMP JUMPDEST POP JUMP JUMPDEST PUSH2 0x1693 PUSH2 0x1857 JUMP JUMPDEST PUSH20 0xFFFFFFFFFFFFFFFFFFFFFFFFFFFFFFFFFFFFFFFF AND PUSH2 0x16B1 PUSH2 0xDDD JUMP JUMPDEST PUSH20 0xFFFFFFFFFFFFFFFFFFFFFFFFFFFFFFFFFFFFFFFF AND EQ PUSH2 0x1710 JUMPI PUSH2 0x16D4 PUSH2 0x1857 JUMP JUMPDEST PUSH1 0x40 MLOAD PUSH32 0x118CDAA700000000000000000000000000000000000000000000000000000000 DUP2 MSTORE PUSH1 0x4 ADD PUSH2 0x1707 SWAP2 SWAP1 PUSH2 0x2F70 JUMP JUMPDEST PUSH1 0x40 MLOAD DUP1 SWAP2 SUB SWAP1 REVERT JUMPDEST JUMP JUMPDEST PUSH2 0x172B DUP3 DUP3 PUSH1 0x40 MLOAD DUP1 PUSH1 0x20 ADD PUSH1 0x40 MSTORE DUP1 PUSH0 DUP2 MSTORE POP PUSH2 0x1F33 JUMP JUMPDEST POP POP JUMP JUMPDEST PUSH0 PUSH32 0x1FFC9A700000000000000000000000000000000000000000000000000000000 PUSH28 0xFFFFFFFFFFFFFFFFFFFFFFFFFFFFFFFFFFFFFFFFFFFFFFFFFFFFFFFF NOT AND DUP3 PUSH28 0xFFFFFFFFFFFFFFFFFFFFFFFFFFFFFFFFFFFFFFFFFFFFFFFFFFFFFFFF NOT AND EQ SWAP1 POP SWAP2 SWAP1 POP JUMP JUMPDEST PUSH0 DUP1 PUSH2 0x17A3 DUP4 PUSH2 0x1F56 JUMP JUMPDEST SWAP1 POP PUSH0 PUSH20 0xFFFFFFFFFFFFFFFFFFFFFFFFFFFFFFFFFFFFFFFF AND DUP2 PUSH20 0xFFFFFFFFFFFFFFFFFFFFFFFFFFFFFFFFFFFFFFFF AND SUB PUSH2 0x1815 JUMPI DUP3 PUSH1 0x40 MLOAD PUSH32 0x7E27328900000000000000000000000000000000000000000000000000000000 DUP2 MSTORE PUSH1 0x4 ADD PUSH2 0x180C SWAP2 SWAP1 PUSH2 0x30BD JUMP JUMPDEST PUSH1 0x40 MLOAD DUP1 SWAP2 SUB SWAP1 REVERT JUMPDEST DUP1 SWAP2 POP POP SWAP2 SWAP1 POP JUMP JUMPDEST PUSH0 PUSH1 0x4 PUSH0 DUP4 DUP2 MSTORE PUSH1 0x20 ADD SWAP1 DUP2 MSTORE PUSH1 0x20 ADD PUSH0 KECCAK256 PUSH0 SWAP1 SLOAD SWAP1 PUSH2 0x100 EXP SWAP1 DIV PUSH20 0xFFFFFFFFFFFFFFFFFFFFFFFFFFFFFFFFFFFFFFFF AND SWAP1 POP SWAP2 SWAP1 POP JUMP JUMPDEST PUSH0 CALLER SWAP1 POP SWAP1 JUMP JUMPDEST PUSH2 0x186B DUP4 DUP4 DUP4 PUSH1 0x1 PUSH2 0x1F8F JUMP JUMPDEST POP POP POP JUMP JUMPDEST PUSH0 DUP1 PUSH2 0x187B DUP5 PUSH2 0x1F56 JUMP JUMPDEST SWAP1 POP PUSH0 PUSH20 0xFFFFFFFFFFFFFFFFFFFFFFFFFFFFFFFFFFFFFFFF AND DUP4 PUSH20 0xFFFFFFFFFFFFFFFFFFFFFFFFFFFFFFFFFFFFFFFF AND EQ PUSH2 0x18BC JUMPI PUSH2 0x18BB DUP2 DUP5 DUP7 PUSH2 0x214E JUMP JUMPDEST JUMPDEST PUSH0 PUSH20 0xFFFFFFFFFFFFFFFFFFFFFFFFFFFFFFFFFFFFFFFF AND DUP2 PUSH20 0xFFFFFFFFFFFFFFFFFFFFFFFFFFFFFFFFFFFFFFFF AND EQ PUSH2 0x1947 JUMPI PUSH2 0x18FB PUSH0 DUP6 PUSH0 DUP1 PUSH2 0x1F8F JUMP JUMPDEST PUSH1 0x1 PUSH1 0x3 PUSH0 DUP4 PUSH20 0xFFFFFFFFFFFFFFFFFFFFFFFFFFFFFFFFFFFFFFFF AND PUSH20 0xFFFFFFFFFFFFFFFFFFFFFFFFFFFFFFFFFFFFFFFF AND DUP2 MSTORE PUSH1 0x20 ADD SWAP1 DUP2 MSTORE PUSH1 0x20 ADD PUSH0 KECCAK256 PUSH0 DUP3 DUP3 SLOAD SUB SWAP3 POP POP DUP2 SWAP1 SSTORE POP JUMPDEST PUSH0 PUSH20 0xFFFFFFFFFFFFFFFFFFFFFFFFFFFFFFFFFFFFFFFF AND DUP6 PUSH20 0xFFFFFFFFFFFFFFFFFFFFFFFFFFFFFFFFFFFFFFFF AND EQ PUSH2 0x19C6 JUMPI PUSH1 0x1 PUSH1 0x3 PUSH0 DUP8 PUSH20 0xFFFFFFFFFFFFFFFFFFFFFFFFFFFFFFFFFFFFFFFF AND PUSH20 0xFFFFFFFFFFFFFFFFFFFFFFFFFFFFFFFFFFFFFFFF AND DUP2 MSTORE PUSH1 0x20 ADD SWAP1 DUP2 MSTORE PUSH1 0x20 ADD PUSH0 KECCAK256 PUSH0 DUP3 DUP3 SLOAD ADD SWAP3 POP POP DUP2 SWAP1 SSTORE POP JUMPDEST DUP5 PUSH1 0x2 PUSH0 DUP7 DUP2 MSTORE PUSH1 0x20 ADD SWAP1 DUP2 MSTORE PUSH1 0x20 ADD PUSH0 KECCAK256 PUSH0 PUSH2 0x100 EXP DUP2 SLOAD DUP2 PUSH20 0xFFFFFFFFFFFFFFFFFFFFFFFFFFFFFFFFFFFFFFFF MUL NOT AND SWAP1 DUP4 PUSH20 0xFFFFFFFFFFFFFFFFFFFFFFFFFFFFFFFFFFFFFFFF AND MUL OR SWAP1 SSTORE POP DUP4 DUP6 PUSH20 0xFFFFFFFFFFFFFFFFFFFFFFFFFFFFFFFFFFFFFFFF AND DUP3 PUSH20 0xFFFFFFFFFFFFFFFFFFFFFFFFFFFFFFFFFFFFFFFF AND PUSH32 0xDDF252AD1BE2C89B69C2B068FC378DAA952BA7F163C4A11628F55A4DF523B3EF PUSH1 0x40 MLOAD PUSH1 0x40 MLOAD DUP1 SWAP2 SUB SWAP1 LOG4 DUP1 SWAP2 POP POP SWAP4 SWAP3 POP POP POP JUMP JUMPDEST PUSH0 PUSH1 0x6 PUSH0 SWAP1 SLOAD SWAP1 PUSH2 0x100 EXP SWAP1 DIV PUSH20 0xFFFFFFFFFFFFFFFFFFFFFFFFFFFFFFFFFFFFFFFF AND SWAP1 POP DUP2 PUSH1 0x6 PUSH0 PUSH2 0x100 EXP DUP2 SLOAD DUP2 PUSH20 0xFFFFFFFFFFFFFFFFFFFFFFFFFFFFFFFFFFFFFFFF MUL NOT AND SWAP1 DUP4 PUSH20 0xFFFFFFFFFFFFFFFFFFFFFFFFFFFFFFFFFFFFFFFF AND MUL OR SWAP1 SSTORE POP DUP2 PUSH20 0xFFFFFFFFFFFFFFFFFFFFFFFFFFFFFFFFFFFFFFFF AND DUP2 PUSH20 0xFFFFFFFFFFFFFFFFFFFFFFFFFFFFFFFFFFFFFFFF AND PUSH32 0x8BE0079C531659141344CD1FD0A4F28419497F9722A3DAAFE3B4186F6B6457E0 PUSH1 0x40 MLOAD PUSH1 0x40 MLOAD DUP1 SWAP2 SUB SWAP1 LOG3 POP POP JUMP JUMPDEST PUSH0 PUSH20 0xFFFFFFFFFFFFFFFFFFFFFFFFFFFFFFFFFFFFFFFF AND DUP3 PUSH20 0xFFFFFFFFFFFFFFFFFFFFFFFFFFFFFFFFFFFFFFFF AND SUB PUSH2 0x1BAE JUMPI DUP2 PUSH1 0x40 MLOAD PUSH32 0x5B08BA1800000000000000000000000000000000000000000000000000000000 DUP2 MSTORE PUSH1 0x4 ADD PUSH2 0x1BA5 SWAP2 SWAP1 PUSH2 0x2F70 JUMP JUMPDEST PUSH1 0x40 MLOAD DUP1 SWAP2 SUB SWAP1 REVERT JUMPDEST DUP1 PUSH1 0x5 PUSH0 DUP6 PUSH20 0xFFFFFFFFFFFFFFFFFFFFFFFFFFFFFFFFFFFFFFFF AND PUSH20 0xFFFFFFFFFFFFFFFFFFFFFFFFFFFFFFFFFFFFFFFF AND DUP2 MSTORE PUSH1 0x20 ADD SWAP1 DUP2 MSTORE PUSH1 0x20 ADD PUSH0 KECCAK256 PUSH0 DUP5 PUSH20 0xFFFFFFFFFFFFFFFFFFFFFFFFFFFFFFFFFFFFFFFF AND PUSH20 0xFFFFFFFFFFFFFFFFFFFFFFFFFFFFFFFFFFFFFFFF AND DUP2 MSTORE PUSH1 0x20 ADD SWAP1 DUP2 MSTORE PUSH1 0x20 ADD PUSH0 KECCAK256 PUSH0 PUSH2 0x100 EXP DUP2 SLOAD DUP2 PUSH1 0xFF MUL NOT AND SWAP1 DUP4 ISZERO ISZERO MUL OR SWAP1 SSTORE POP DUP2 PUSH20 0xFFFFFFFFFFFFFFFFFFFFFFFFFFFFFFFFFFFFFFFF AND DUP4 PUSH20 0xFFFFFFFFFFFFFFFFFFFFFFFFFFFFFFFFFFFFFFFF AND PUSH32 0x17307EAB39AB6107E8899845AD3D59BD9653F200F220920489CA2B5937696C31 DUP4 PUSH1 0x40 MLOAD PUSH2 0x1C9A SWAP2 SWAP1 PUSH2 0x2E9D JUMP JUMPDEST PUSH1 0x40 MLOAD DUP1 SWAP2 SUB SWAP1 LOG3 POP POP POP JUMP JUMPDEST PUSH0 DUP4 PUSH20 0xFFFFFFFFFFFFFFFFFFFFFFFFFFFFFFFFFFFFFFFF AND EXTCODESIZE GT ISZERO PUSH2 0x1E4C JUMPI DUP3 PUSH20 0xFFFFFFFFFFFFFFFFFFFFFFFFFFFFFFFFFFFFFFFF AND PUSH4 0x150B7A02 DUP7 DUP7 DUP6 DUP6 PUSH1 0x40 MLOAD DUP6 PUSH4 0xFFFFFFFF AND PUSH1 0xE0 SHL DUP2 MSTORE PUSH1 0x4 ADD PUSH2 0x1D05 SWAP5 SWAP4 SWAP3 SWAP2 SWAP1 PUSH2 0x3AF0 JUMP JUMPDEST PUSH1 0x20 PUSH1 0x40 MLOAD DUP1 DUP4 SUB DUP2 PUSH0 DUP8 GAS CALL SWAP3 POP POP POP DUP1 ISZERO PUSH2 0x1D40 JUMPI POP PUSH1 0x40 MLOAD RETURNDATASIZE PUSH1 0x1F NOT PUSH1 0x1F DUP3 ADD AND DUP3 ADD DUP1 PUSH1 0x40 MSTORE POP DUP2 ADD SWAP1 PUSH2 0x1D3D SWAP2 SWAP1 PUSH2 0x3B4E JUMP JUMPDEST PUSH1 0x1 JUMPDEST PUSH2 0x1DC1 JUMPI RETURNDATASIZE DUP1 PUSH0 DUP2 EQ PUSH2 0x1D6E JUMPI PUSH1 0x40 MLOAD SWAP2 POP PUSH1 0x1F NOT PUSH1 0x3F RETURNDATASIZE ADD AND DUP3 ADD PUSH1 0x40 MSTORE RETURNDATASIZE DUP3 MSTORE RETURNDATASIZE PUSH0 PUSH1 0x20 DUP5 ADD RETURNDATACOPY PUSH2 0x1D73 JUMP JUMPDEST PUSH1 0x60 SWAP2 POP JUMPDEST POP PUSH0 DUP2 MLOAD SUB PUSH2 0x1DB9 JUMPI DUP4 PUSH1 0x40 MLOAD PUSH32 0x64A0AE9200000000000000000000000000000000000000000000000000000000 DUP2 MSTORE PUSH1 0x4 ADD PUSH2 0x1DB0 SWAP2 SWAP1 PUSH2 0x2F70 JUMP JUMPDEST PUSH1 0x40 MLOAD DUP1 SWAP2 SUB SWAP1 REVERT JUMPDEST DUP1 MLOAD DUP2 PUSH1 0x20 ADD REVERT JUMPDEST PUSH4 0x150B7A02 PUSH1 0xE0 SHL PUSH28 0xFFFFFFFFFFFFFFFFFFFFFFFFFFFFFFFFFFFFFFFFFFFFFFFFFFFFFFFF NOT AND DUP2 PUSH28 0xFFFFFFFFFFFFFFFFFFFFFFFFFFFFFFFFFFFFFFFFFFFFFFFFFFFFFFFF NOT AND EQ PUSH2 0x1E4A JUMPI DUP4 PUSH1 0x40 MLOAD PUSH32 0x64A0AE9200000000000000000000000000000000000000000000000000000000 DUP2 MSTORE PUSH1 0x4 ADD PUSH2 0x1E41 SWAP2 SWAP1 PUSH2 0x2F70 JUMP JUMPDEST PUSH1 0x40 MLOAD DUP1 SWAP2 SUB SWAP1 REVERT JUMPDEST POP JUMPDEST POP POP POP POP POP JUMP JUMPDEST PUSH1 0x60 PUSH1 0x40 MLOAD DUP1 PUSH1 0x20 ADD PUSH1 0x40 MSTORE DUP1 PUSH0 DUP2 MSTORE POP SWAP1 POP SWAP1 JUMP JUMPDEST PUSH1 0x60 PUSH0 PUSH1 0x1 PUSH2 0x1E77 DUP5 PUSH2 0x2211 JUMP JUMPDEST ADD SWAP1 POP PUSH0 DUP2 PUSH8 0xFFFFFFFFFFFFFFFF DUP2 GT ISZERO PUSH2 0x1E95 JUMPI PUSH2 0x1E94 PUSH2 0x26BD JUMP JUMPDEST JUMPDEST PUSH1 0x40 MLOAD SWAP1 DUP1 DUP3 MSTORE DUP1 PUSH1 0x1F ADD PUSH1 0x1F NOT AND PUSH1 0x20 ADD DUP3 ADD PUSH1 0x40 MSTORE DUP1 ISZERO PUSH2 0x1EC7 JUMPI DUP2 PUSH1 0x20 ADD PUSH1 0x1 DUP3 MUL DUP1 CALLDATASIZE DUP4 CALLDATACOPY DUP1 DUP3 ADD SWAP2 POP POP SWAP1 POP JUMPDEST POP SWAP1 POP PUSH0 DUP3 PUSH1 0x20 ADD DUP3 ADD SWAP1 POP JUMPDEST PUSH1 0x1 ISZERO PUSH2 0x1F28 JUMPI DUP1 DUP1 PUSH1 0x1 SWAP1 SUB SWAP2 POP POP PUSH32 0x3031323334353637383961626364656600000000000000000000000000000000 PUSH1 0xA DUP7 MOD BYTE DUP2 MSTORE8 PUSH1 0xA DUP6 DUP2 PUSH2 0x1F1D JUMPI PUSH2 0x1F1C PUSH2 0x3B79 JUMP JUMPDEST JUMPDEST DIV SWAP5 POP PUSH0 DUP6 SUB PUSH2 0x1ED4 JUMPI JUMPDEST DUP2 SWAP4 POP POP POP POP SWAP2 SWAP1 POP JUMP JUMPDEST PUSH2 0x1F3D DUP4 DUP4 PUSH2 0x2362 JUMP JUMPDEST PUSH2 0x1F51 PUSH2 0x1F48 PUSH2 0x1857 JUMP JUMPDEST PUSH0 DUP6 DUP6 DUP6 PUSH2 0x1CA7 JUMP JUMPDEST POP POP POP JUMP JUMPDEST PUSH0 PUSH1 0x2 PUSH0 DUP4 DUP2 MSTORE PUSH1 0x20 ADD SWAP1 DUP2 MSTORE PUSH1 0x20 ADD PUSH0 KECCAK256 PUSH0 SWAP1 SLOAD SWAP1 PUSH2 0x100 EXP SWAP1 DIV PUSH20 0xFFFFFFFFFFFFFFFFFFFFFFFFFFFFFFFFFFFFFFFF AND SWAP1 POP SWAP2 SWAP1 POP JUMP JUMPDEST DUP1 DUP1 PUSH2 0x1FC7 JUMPI POP PUSH0 PUSH20 0xFFFFFFFFFFFFFFFFFFFFFFFFFFFFFFFFFFFFFFFF AND DUP3 PUSH20 0xFFFFFFFFFFFFFFFFFFFFFFFFFFFFFFFFFFFFFFFF AND EQ ISZERO JUMPDEST ISZERO PUSH2 0x20F9 JUMPI PUSH0 PUSH2 0x1FD6 DUP5 PUSH2 0x1798 JUMP JUMPDEST SWAP1 POP PUSH0 PUSH20 0xFFFFFFFFFFFFFFFFFFFFFFFFFFFFFFFFFFFFFFFF AND DUP4 PUSH20 0xFFFFFFFFFFFFFFFFFFFFFFFFFFFFFFFFFFFFFFFF AND EQ ISZERO DUP1 ISZERO PUSH2 0x2040 JUMPI POP DUP3 PUSH20 0xFFFFFFFFFFFFFFFFFFFFFFFFFFFFFFFFFFFFFFFF AND DUP2 PUSH20 0xFFFFFFFFFFFFFFFFFFFFFFFFFFFFFFFFFFFFFFFF AND EQ ISZERO JUMPDEST DUP1 ISZERO PUSH2 0x2053 JUMPI POP PUSH2 0x2051 DUP2 DUP5 PUSH2 0x1579 JUMP JUMPDEST ISZERO JUMPDEST ISZERO PUSH2 0x2095 JUMPI DUP3 PUSH1 0x40 MLOAD PUSH32 0xA9FBF51F00000000000000000000000000000000000000000000000000000000 DUP2 MSTORE PUSH1 0x4 ADD PUSH2 0x208C SWAP2 SWAP1 PUSH2 0x2F70 JUMP JUMPDEST PUSH1 0x40 MLOAD DUP1 SWAP2 SUB SWAP1 REVERT JUMPDEST DUP2 ISZERO PUSH2 0x20F7 JUMPI DUP4 DUP6 PUSH20 0xFFFFFFFFFFFFFFFFFFFFFFFFFFFFFFFFFFFFFFFF AND DUP3 PUSH20 0xFFFFFFFFFFFFFFFFFFFFFFFFFFFFFFFFFFFFFFFF AND PUSH32 0x8C5BE1E5EBEC7D5BD14F71427D1E84F3DD0314C0F7B2291E5B200AC8C7C3B925 PUSH1 0x40 MLOAD PUSH1 0x40 MLOAD DUP1 SWAP2 SUB SWAP1 LOG4 JUMPDEST POP JUMPDEST DUP4 PUSH1 0x4 PUSH0 DUP6 DUP2 MSTORE PUSH1 0x20 ADD SWAP1 DUP2 MSTORE PUSH1 0x20 ADD PUSH0 KECCAK256 PUSH0 PUSH2 0x100 EXP DUP2 SLOAD DUP2 PUSH20 0xFFFFFFFFFFFFFFFFFFFFFFFFFFFFFFFFFFFFFFFF MUL NOT AND SWAP1 DUP4 PUSH20 0xFFFFFFFFFFFFFFFFFFFFFFFFFFFFFFFFFFFFFFFF AND MUL OR SWAP1 SSTORE POP POP POP POP POP JUMP JUMPDEST PUSH2 0x2159 DUP4 DUP4 DUP4 PUSH2 0x2455 JUMP JUMPDEST PUSH2 0x220C JUMPI PUSH0 PUSH20 0xFFFFFFFFFFFFFFFFFFFFFFFFFFFFFFFFFFFFFFFF AND DUP4 PUSH20 0xFFFFFFFFFFFFFFFFFFFFFFFFFFFFFFFFFFFFFFFF AND SUB PUSH2 0x21CD JUMPI DUP1 PUSH1 0x40 MLOAD PUSH32 0x7E27328900000000000000000000000000000000000000000000000000000000 DUP2 MSTORE PUSH1 0x4 ADD PUSH2 0x21C4 SWAP2 SWAP1 PUSH2 0x30BD JUMP JUMPDEST PUSH1 0x40 MLOAD DUP1 SWAP2 SUB SWAP1 REVERT JUMPDEST DUP2 DUP2 PUSH1 0x40 MLOAD PUSH32 0x177E802F00000000000000000000000000000000000000000000000000000000 DUP2 MSTORE PUSH1 0x4 ADD PUSH2 0x2203 SWAP3 SWAP2 SWAP1 PUSH2 0x3BA6 JUMP JUMPDEST PUSH1 0x40 MLOAD DUP1 SWAP2 SUB SWAP1 REVERT JUMPDEST POP POP POP JUMP JUMPDEST PUSH0 DUP1 PUSH0 SWAP1 POP PUSH27 0x184F03E93FF9F4DAA797ED6E38ED64BF6A1F010000000000000000 DUP4 LT PUSH2 0x226D JUMPI PUSH27 0x184F03E93FF9F4DAA797ED6E38ED64BF6A1F010000000000000000 DUP4 DUP2 PUSH2 0x2263 JUMPI PUSH2 0x2262 PUSH2 0x3B79 JUMP JUMPDEST JUMPDEST DIV SWAP3 POP PUSH1 0x40 DUP2 ADD SWAP1 POP JUMPDEST PUSH14 0x4EE2D6D415B85ACEF8100000000 DUP4 LT PUSH2 0x22AA JUMPI PUSH14 0x4EE2D6D415B85ACEF8100000000 DUP4 DUP2 PUSH2 0x22A0 JUMPI PUSH2 0x229F PUSH2 0x3B79 JUMP JUMPDEST JUMPDEST DIV SWAP3 POP PUSH1 0x20 DUP2 ADD SWAP1 POP JUMPDEST PUSH7 0x2386F26FC10000 DUP4 LT PUSH2 0x22D9 JUMPI PUSH7 0x2386F26FC10000 DUP4 DUP2 PUSH2 0x22CF JUMPI PUSH2 0x22CE PUSH2 0x3B79 JUMP JUMPDEST JUMPDEST DIV SWAP3 POP PUSH1 0x10 DUP2 ADD SWAP1 POP JUMPDEST PUSH4 0x5F5E100 DUP4 LT PUSH2 0x2302 JUMPI PUSH4 0x5F5E100 DUP4 DUP2 PUSH2 0x22F8 JUMPI PUSH2 0x22F7 PUSH2 0x3B79 JUMP JUMPDEST JUMPDEST DIV SWAP3 POP PUSH1 0x8 DUP2 ADD SWAP1 POP JUMPDEST PUSH2 0x2710 DUP4 LT PUSH2 0x2327 JUMPI PUSH2 0x2710 DUP4 DUP2 PUSH2 0x231D JUMPI PUSH2 0x231C PUSH2 0x3B79 JUMP JUMPDEST JUMPDEST DIV SWAP3 POP PUSH1 0x4 DUP2 ADD SWAP1 POP JUMPDEST PUSH1 0x64 DUP4 LT PUSH2 0x234A JUMPI PUSH1 0x64 DUP4 DUP2 PUSH2 0x2340 JUMPI PUSH2 0x233F PUSH2 0x3B79 JUMP JUMPDEST JUMPDEST DIV SWAP3 POP PUSH1 0x2 DUP2 ADD SWAP1 POP JUMPDEST PUSH1 0xA DUP4 LT PUSH2 0x2359 JUMPI PUSH1 0x1 DUP2 ADD SWAP1 POP JUMPDEST DUP1 SWAP2 POP POP SWAP2 SWAP1 POP JUMP JUMPDEST PUSH0 PUSH20 0xFFFFFFFFFFFFFFFFFFFFFFFFFFFFFFFFFFFFFFFF AND DUP3 PUSH20 0xFFFFFFFFFFFFFFFFFFFFFFFFFFFFFFFFFFFFFFFF AND SUB PUSH2 0x23D2 JUMPI PUSH0 PUSH1 0x40 MLOAD PUSH32 0x64A0AE9200000000000000000000000000000000000000000000000000000000 DUP2 MSTORE PUSH1 0x4 ADD PUSH2 0x23C9 SWAP2 SWAP1 PUSH2 0x2F70 JUMP JUMPDEST PUSH1 0x40 MLOAD DUP1 SWAP2 SUB SWAP1 REVERT JUMPDEST PUSH0 PUSH2 0x23DE DUP4 DUP4 PUSH0 PUSH2 0x1870 JUMP JUMPDEST SWAP1 POP PUSH0 PUSH20 0xFFFFFFFFFFFFFFFFFFFFFFFFFFFFFFFFFFFFFFFF AND DUP2 PUSH20 0xFFFFFFFFFFFFFFFFFFFFFFFFFFFFFFFFFFFFFFFF AND EQ PUSH2 0x2450 JUMPI PUSH0 PUSH1 0x40 MLOAD PUSH32 0x73C6AC6E00000000000000000000000000000000000000000000000000000000 DUP2 MSTORE PUSH1 0x4 ADD PUSH2 0x2447 SWAP2 SWAP1 PUSH2 0x2F70 JUMP JUMPDEST PUSH1 0x40 MLOAD DUP1 SWAP2 SUB SWAP1 REVERT JUMPDEST POP POP POP JUMP JUMPDEST PUSH0 DUP1 PUSH20 0xFFFFFFFFFFFFFFFFFFFFFFFFFFFFFFFFFFFFFFFF AND DUP4 PUSH20 0xFFFFFFFFFFFFFFFFFFFFFFFFFFFFFFFFFFFFFFFF AND EQ ISZERO DUP1 ISZERO PUSH2 0x250C JUMPI POP DUP3 PUSH20 0xFFFFFFFFFFFFFFFFFFFFFFFFFFFFFFFFFFFFFFFF AND DUP5 PUSH20 0xFFFFFFFFFFFFFFFFFFFFFFFFFFFFFFFFFFFFFFFF AND EQ DUP1 PUSH2 0x24CD JUMPI POP PUSH2 0x24CC DUP5 DUP5 PUSH2 0x1579 JUMP JUMPDEST JUMPDEST DUP1 PUSH2 0x250B JUMPI POP DUP3 PUSH20 0xFFFFFFFFFFFFFFFFFFFFFFFFFFFFFFFFFFFFFFFF AND PUSH2 0x24F3 DUP4 PUSH2 0x181E JUMP JUMPDEST PUSH20 0xFFFFFFFFFFFFFFFFFFFFFFFFFFFFFFFFFFFFFFFF AND EQ JUMPDEST JUMPDEST SWAP1 POP SWAP4 SWAP3 POP POP POP JUMP JUMPDEST DUP3 DUP1 SLOAD DUP3 DUP3 SSTORE SWAP1 PUSH0 MSTORE PUSH1 0x20 PUSH0 KECCAK256 SWAP1 DUP2 ADD SWAP3 DUP3 ISZERO PUSH2 0x255B JUMPI SWAP2 PUSH1 0x20 MUL DUP3 ADD JUMPDEST DUP3 DUP2 GT ISZERO PUSH2 0x255A JUMPI DUP3 MLOAD DUP3 SWAP1 DUP2 PUSH2 0x254A SWAP2 SWAP1 PUSH2 0x3847 JUMP JUMPDEST POP SWAP2 PUSH1 0x20 ADD SWAP2 SWAP1 PUSH1 0x1 ADD SWAP1 PUSH2 0x2533 JUMP JUMPDEST JUMPDEST POP SWAP1 POP PUSH2 0x2568 SWAP2 SWAP1 PUSH2 0x25CF JUMP JUMPDEST POP SWAP1 JUMP JUMPDEST PUSH1 0x40 MLOAD DUP1 PUSH1 0x40 ADD PUSH1 0x40 MSTORE DUP1 PUSH0 DUP1 NOT AND DUP2 MSTORE PUSH1 0x20 ADD PUSH0 DUP2 MSTORE POP SWAP1 JUMP JUMPDEST PUSH1 0x40 MLOAD DUP1 PUSH1 0xE0 ADD PUSH1 0x40 MSTORE DUP1 PUSH1 0x60 DUP2 MSTORE PUSH1 0x20 ADD PUSH2 0x25A1 PUSH2 0x25F2 JUMP JUMPDEST DUP2 MSTORE PUSH1 0x20 ADD PUSH2 0x25AE PUSH2 0x2620 JUMP JUMPDEST DUP2 MSTORE PUSH1 0x20 ADD PUSH1 0x60 DUP2 MSTORE PUSH1 0x20 ADD PUSH1 0x60 DUP2 MSTORE PUSH1 0x20 ADD PUSH1 0x60 DUP2 MSTORE PUSH1 0x20 ADD PUSH0 DUP2 MSTORE POP SWAP1 JUMP JUMPDEST JUMPDEST DUP1 DUP3 GT ISZERO PUSH2 0x25EE JUMPI PUSH0 DUP2 DUP2 PUSH2 0x25E5 SWAP2 SWAP1 PUSH2 0x2640 JUMP JUMPDEST POP PUSH1 0x1 ADD PUSH2 0x25D0 JUMP JUMPDEST POP SWAP1 JUMP JUMPDEST PUSH1 0x40 MLOAD DUP1 PUSH1 0xA0 ADD PUSH1 0x40 MSTORE DUP1 PUSH1 0x60 DUP2 MSTORE PUSH1 0x20 ADD PUSH1 0x60 DUP2 MSTORE PUSH1 0x20 ADD PUSH1 0x60 DUP2 MSTORE PUSH1 0x20 ADD PUSH1 0x60 DUP2 MSTORE PUSH1 0x20 ADD PUSH0 DUP2 MSTORE POP SWAP1 JUMP JUMPDEST PUSH1 0x40 MLOAD DUP1 PUSH1 0x60 ADD PUSH1 0x40 MSTORE DUP1 PUSH0 ISZERO ISZERO DUP2 MSTORE PUSH1 0x20 ADD PUSH0 DUP2 MSTORE PUSH1 0x20 ADD PUSH0 DUP2 MSTORE POP SWAP1 JUMP JUMPDEST POP DUP1 SLOAD PUSH2 0x264C SWAP1 PUSH2 0x367A JUMP JUMPDEST PUSH0 DUP3 SSTORE DUP1 PUSH1 0x1F LT PUSH2 0x265D JUMPI POP PUSH2 0x267A JUMP JUMPDEST PUSH1 0x1F ADD PUSH1 0x20 SWAP1 DIV SWAP1 PUSH0 MSTORE PUSH1 0x20 PUSH0 KECCAK256 SWAP1 DUP2 ADD SWAP1 PUSH2 0x2679 SWAP2 SWAP1 PUSH2 0x267D JUMP JUMPDEST JUMPDEST POP JUMP JUMPDEST JUMPDEST DUP1 DUP3 GT ISZERO PUSH2 0x2694 JUMPI PUSH0 DUP2 PUSH0 SWAP1 SSTORE POP PUSH1 0x1 ADD PUSH2 0x267E JUMP JUMPDEST POP SWAP1 JUMP JUMPDEST PUSH0 PUSH1 0x40 MLOAD SWAP1 POP SWAP1 JUMP JUMPDEST PUSH0 DUP1 REVERT JUMPDEST PUSH0 DUP1 REVERT JUMPDEST PUSH0 DUP1 REVERT JUMPDEST PUSH0 PUSH1 0x1F NOT PUSH1 0x1F DUP4 ADD AND SWAP1 POP SWAP2 SWAP1 POP JUMP JUMPDEST PUSH32 0x4E487B7100000000000000000000000000000000000000000000000000000000 PUSH0 MSTORE PUSH1 0x41 PUSH1 0x4 MSTORE PUSH1 0x24 PUSH0 REVERT JUMPDEST PUSH2 0x26F3 DUP3 PUSH2 0x26AD JUMP JUMPDEST DUP2 ADD DUP2 DUP2 LT PUSH8 0xFFFFFFFFFFFFFFFF DUP3 GT OR ISZERO PUSH2 0x2712 JUMPI PUSH2 0x2711 PUSH2 0x26BD JUMP JUMPDEST JUMPDEST DUP1 PUSH1 0x40 MSTORE POP POP POP JUMP JUMPDEST PUSH0 PUSH2 0x2724 PUSH2 0x2698 JUMP JUMPDEST SWAP1 POP PUSH2 0x2730 DUP3 DUP3 PUSH2 0x26EA JUMP JUMPDEST SWAP2 SWAP1 POP JUMP JUMPDEST PUSH0 DUP1 REVERT JUMPDEST PUSH0 DUP1 REVERT JUMPDEST PUSH0 DUP1 REVERT JUMPDEST PUSH0 PUSH8 0xFFFFFFFFFFFFFFFF DUP3 GT ISZERO PUSH2 0x275B JUMPI PUSH2 0x275A PUSH2 0x26BD JUMP JUMPDEST JUMPDEST PUSH2 0x2764 DUP3 PUSH2 0x26AD JUMP JUMPDEST SWAP1 POP PUSH1 0x20 DUP2 ADD SWAP1 POP SWAP2 SWAP1 POP JUMP JUMPDEST DUP3 DUP2 DUP4 CALLDATACOPY PUSH0 DUP4 DUP4 ADD MSTORE POP POP POP JUMP JUMPDEST PUSH0 PUSH2 0x2791 PUSH2 0x278C DUP5 PUSH2 0x2741 JUMP JUMPDEST PUSH2 0x271B JUMP JUMPDEST SWAP1 POP DUP3 DUP2 MSTORE PUSH1 0x20 DUP2 ADD DUP5 DUP5 DUP5 ADD GT ISZERO PUSH2 0x27AD JUMPI PUSH2 0x27AC PUSH2 0x273D JUMP JUMPDEST JUMPDEST PUSH2 0x27B8 DUP5 DUP3 DUP6 PUSH2 0x2771 JUMP JUMPDEST POP SWAP4 SWAP3 POP POP POP JUMP JUMPDEST PUSH0 DUP3 PUSH1 0x1F DUP4 ADD SLT PUSH2 0x27D4 JUMPI PUSH2 0x27D3 PUSH2 0x2739 JUMP JUMPDEST JUMPDEST DUP2 CALLDATALOAD PUSH2 0x27E4 DUP5 DUP3 PUSH1 0x20 DUP7 ADD PUSH2 0x277F JUMP JUMPDEST SWAP2 POP POP SWAP3 SWAP2 POP POP JUMP JUMPDEST PUSH0 DUP2 SWAP1 POP SWAP2 SWAP1 POP JUMP JUMPDEST PUSH2 0x27FF DUP2 PUSH2 0x27ED JUMP JUMPDEST DUP2 EQ PUSH2 0x2809 JUMPI PUSH0 DUP1 REVERT JUMPDEST POP JUMP JUMPDEST PUSH0 DUP2 CALLDATALOAD SWAP1 POP PUSH2 0x281A DUP2 PUSH2 0x27F6 JUMP JUMPDEST SWAP3 SWAP2 POP POP JUMP JUMPDEST PUSH0 PUSH1 0xA0 DUP3 DUP5 SUB SLT ISZERO PUSH2 0x2835 JUMPI PUSH2 0x2834 PUSH2 0x26A9 JUMP JUMPDEST JUMPDEST PUSH2 0x283F PUSH1 0xA0 PUSH2 0x271B JUMP JUMPDEST SWAP1 POP PUSH0 DUP3 ADD CALLDATALOAD PUSH8 0xFFFFFFFFFFFFFFFF DUP2 GT ISZERO PUSH2 0x285E JUMPI PUSH2 0x285D PUSH2 0x2735 JUMP JUMPDEST JUMPDEST PUSH2 0x286A DUP5 DUP3 DUP6 ADD PUSH2 0x27C0 JUMP JUMPDEST PUSH0 DUP4 ADD MSTORE POP PUSH1 0x20 DUP3 ADD CALLDATALOAD PUSH8 0xFFFFFFFFFFFFFFFF DUP2 GT ISZERO PUSH2 0x288D JUMPI PUSH2 0x288C PUSH2 0x2735 JUMP JUMPDEST JUMPDEST PUSH2 0x2899 DUP5 DUP3 DUP6 ADD PUSH2 0x27C0 JUMP JUMPDEST PUSH1 0x20 DUP4 ADD MSTORE POP PUSH1 0x40 DUP3 ADD CALLDATALOAD PUSH8 0xFFFFFFFFFFFFFFFF DUP2 GT ISZERO PUSH2 0x28BD JUMPI PUSH2 0x28BC PUSH2 0x2735 JUMP JUMPDEST JUMPDEST PUSH2 0x28C9 DUP5 DUP3 DUP6 ADD PUSH2 0x27C0 JUMP JUMPDEST PUSH1 0x40 DUP4 ADD MSTORE POP PUSH1 0x60 DUP3 ADD CALLDATALOAD PUSH8 0xFFFFFFFFFFFFFFFF DUP2 GT ISZERO PUSH2 0x28ED JUMPI PUSH2 0x28EC PUSH2 0x2735 JUMP JUMPDEST JUMPDEST PUSH2 0x28F9 DUP5 DUP3 DUP6 ADD PUSH2 0x27C0 JUMP JUMPDEST PUSH1 0x60 DUP4 ADD MSTORE POP PUSH1 0x80 PUSH2 0x290D DUP5 DUP3 DUP6 ADD PUSH2 0x280C JUMP JUMPDEST PUSH1 0x80 DUP4 ADD MSTORE POP SWAP3 SWAP2 POP POP JUMP JUMPDEST PUSH0 DUP2 ISZERO ISZERO SWAP1 POP SWAP2 SWAP1 POP JUMP JUMPDEST PUSH2 0x292D DUP2 PUSH2 0x2919 JUMP JUMPDEST DUP2 EQ PUSH2 0x2937 JUMPI PUSH0 DUP1 REVERT JUMPDEST POP JUMP JUMPDEST PUSH0 DUP2 CALLDATALOAD SWAP1 POP PUSH2 0x2948 DUP2 PUSH2 0x2924 JUMP JUMPDEST SWAP3 SWAP2 POP POP JUMP JUMPDEST PUSH0 PUSH1 0x60 DUP3 DUP5 SUB SLT ISZERO PUSH2 0x2963 JUMPI PUSH2 0x2962 PUSH2 0x26A9 JUMP JUMPDEST JUMPDEST PUSH2 0x296D PUSH1 0x60 PUSH2 0x271B JUMP JUMPDEST SWAP1 POP PUSH0 PUSH2 0x297C DUP5 DUP3 DUP6 ADD PUSH2 0x293A JUMP JUMPDEST PUSH0 DUP4 ADD MSTORE POP PUSH1 0x20 PUSH2 0x298F DUP5 DUP3 DUP6 ADD PUSH2 0x280C JUMP JUMPDEST PUSH1 0x20 DUP4 ADD MSTORE POP PUSH1 0x40 PUSH2 0x29A3 DUP5 DUP3 DUP6 ADD PUSH2 0x280C JUMP JUMPDEST PUSH1 0x40 DUP4 ADD MSTORE POP SWAP3 SWAP2 POP POP JUMP JUMPDEST PUSH0 PUSH8 0xFFFFFFFFFFFFFFFF DUP3 GT ISZERO PUSH2 0x29C9 JUMPI PUSH2 0x29C8 PUSH2 0x26BD JUMP JUMPDEST JUMPDEST PUSH1 0x20 DUP3 MUL SWAP1 POP PUSH1 0x20 DUP2 ADD SWAP1 POP SWAP2 SWAP1 POP JUMP JUMPDEST PUSH0 DUP1 REVERT JUMPDEST PUSH0 PUSH2 0x29F0 PUSH2 0x29EB DUP5 PUSH2 0x29AF JUMP JUMPDEST PUSH2 0x271B JUMP JUMPDEST SWAP1 POP DUP1 DUP4 DUP3 MSTORE PUSH1 0x20 DUP3 ADD SWAP1 POP PUSH1 0x20 DUP5 MUL DUP4 ADD DUP6 DUP2 GT ISZERO PUSH2 0x2A13 JUMPI PUSH2 0x2A12 PUSH2 0x29DA JUMP JUMPDEST JUMPDEST DUP4 JUMPDEST DUP2 DUP2 LT ISZERO PUSH2 0x2A5A JUMPI DUP1 CALLDATALOAD PUSH8 0xFFFFFFFFFFFFFFFF DUP2 GT ISZERO PUSH2 0x2A38 JUMPI PUSH2 0x2A37 PUSH2 0x2739 JUMP JUMPDEST JUMPDEST DUP1 DUP7 ADD PUSH2 0x2A45 DUP10 DUP3 PUSH2 0x27C0 JUMP JUMPDEST DUP6 MSTORE PUSH1 0x20 DUP6 ADD SWAP5 POP POP POP PUSH1 0x20 DUP2 ADD SWAP1 POP PUSH2 0x2A15 JUMP JUMPDEST POP POP POP SWAP4 SWAP3 POP POP POP JUMP JUMPDEST PUSH0 DUP3 PUSH1 0x1F DUP4 ADD SLT PUSH2 0x2A78 JUMPI PUSH2 0x2A77 PUSH2 0x2739 JUMP JUMPDEST JUMPDEST DUP2 CALLDATALOAD PUSH2 0x2A88 DUP5 DUP3 PUSH1 0x20 DUP7 ADD PUSH2 0x29DE JUMP JUMPDEST SWAP2 POP POP SWAP3 SWAP2 POP POP JUMP JUMPDEST PUSH0 PUSH2 0x100 DUP3 DUP5 SUB SLT ISZERO PUSH2 0x2AA7 JUMPI PUSH2 0x2AA6 PUSH2 0x26A9 JUMP JUMPDEST JUMPDEST PUSH2 0x2AB1 PUSH1 0xC0 PUSH2 0x271B JUMP JUMPDEST SWAP1 POP PUSH0 DUP3 ADD CALLDATALOAD PUSH8 0xFFFFFFFFFFFFFFFF DUP2 GT ISZERO PUSH2 0x2AD0 JUMPI PUSH2 0x2ACF PUSH2 0x2735 JUMP JUMPDEST JUMPDEST PUSH2 0x2ADC DUP5 DUP3 DUP6 ADD PUSH2 0x27C0 JUMP JUMPDEST PUSH0 DUP4 ADD MSTORE POP PUSH1 0x20 DUP3 ADD CALLDATALOAD PUSH8 0xFFFFFFFFFFFFFFFF DUP2 GT ISZERO PUSH2 0x2AFF JUMPI PUSH2 0x2AFE PUSH2 0x2735 JUMP JUMPDEST JUMPDEST PUSH2 0x2B0B DUP5 DUP3 DUP6 ADD PUSH2 0x2820 JUMP JUMPDEST PUSH1 0x20 DUP4 ADD MSTORE POP PUSH1 0x40 PUSH2 0x2B1F DUP5 DUP3 DUP6 ADD PUSH2 0x294E JUMP JUMPDEST PUSH1 0x40 DUP4 ADD MSTORE POP PUSH1 0xA0 DUP3 ADD CALLDATALOAD PUSH8 0xFFFFFFFFFFFFFFFF DUP2 GT ISZERO PUSH2 0x2B43 JUMPI PUSH2 0x2B42 PUSH2 0x2735 JUMP JUMPDEST JUMPDEST PUSH2 0x2B4F DUP5 DUP3 DUP6 ADD PUSH2 0x2A64 JUMP JUMPDEST PUSH1 0x60 DUP4 ADD MSTORE POP PUSH1 0xC0 DUP3 ADD CALLDATALOAD PUSH8 0xFFFFFFFFFFFFFFFF DUP2 GT ISZERO PUSH2 0x2B73 JUMPI PUSH2 0x2B72 PUSH2 0x2735 JUMP JUMPDEST JUMPDEST PUSH2 0x2B7F DUP5 DUP3 DUP6 ADD PUSH2 0x2A64 JUMP JUMPDEST PUSH1 0x80 DUP4 ADD MSTORE POP PUSH1 0xE0 DUP3 ADD CALLDATALOAD PUSH8 0xFFFFFFFFFFFFFFFF DUP2 GT ISZERO PUSH2 0x2BA3 JUMPI PUSH2 0x2BA2 PUSH2 0x2735 JUMP JUMPDEST JUMPDEST PUSH2 0x2BAF DUP5 DUP3 DUP6 ADD PUSH2 0x2A64 JUMP JUMPDEST PUSH1 0xA0 DUP4 ADD MSTORE POP SWAP3 SWAP2 POP POP JUMP JUMPDEST PUSH0 PUSH20 0xFFFFFFFFFFFFFFFFFFFFFFFFFFFFFFFFFFFFFFFF DUP3 AND SWAP1 POP SWAP2 SWAP1 POP JUMP JUMPDEST PUSH0 PUSH2 0x2BE4 DUP3 PUSH2 0x2BBB JUMP JUMPDEST SWAP1 POP SWAP2 SWAP1 POP JUMP JUMPDEST PUSH2 0x2BF4 DUP2 PUSH2 0x2BDA JUMP JUMPDEST DUP2 EQ PUSH2 0x2BFE JUMPI PUSH0 DUP1 REVERT JUMPDEST POP JUMP JUMPDEST PUSH0 DUP2 CALLDATALOAD SWAP1 POP PUSH2 0x2C0F DUP2 PUSH2 0x2BEB JUMP JUMPDEST SWAP3 SWAP2 POP POP JUMP JUMPDEST PUSH0 DUP2 SWAP1 POP SWAP2 SWAP1 POP JUMP JUMPDEST PUSH2 0x2C27 DUP2 PUSH2 0x2C15 JUMP JUMPDEST DUP2 EQ PUSH2 0x2C31 JUMPI PUSH0 DUP1 REVERT JUMPDEST POP JUMP JUMPDEST PUSH0 DUP2 CALLDATALOAD SWAP1 POP PUSH2 0x2C42 DUP2 PUSH2 0x2C1E JUMP JUMPDEST SWAP3 SWAP2 POP POP JUMP JUMPDEST PUSH0 DUP1 PUSH0 PUSH1 0x60 DUP5 DUP7 SUB SLT ISZERO PUSH2 0x2C5F JUMPI PUSH2 0x2C5E PUSH2 0x26A1 JUMP JUMPDEST JUMPDEST PUSH0 DUP5 ADD CALLDATALOAD PUSH8 0xFFFFFFFFFFFFFFFF DUP2 GT ISZERO PUSH2 0x2C7C JUMPI PUSH2 0x2C7B PUSH2 0x26A5 JUMP JUMPDEST JUMPDEST PUSH2 0x2C88 DUP7 DUP3 DUP8 ADD PUSH2 0x2A91 JUMP JUMPDEST SWAP4 POP POP PUSH1 0x20 PUSH2 0x2C99 DUP7 DUP3 DUP8 ADD PUSH2 0x2C01 JUMP JUMPDEST SWAP3 POP POP PUSH1 0x40 PUSH2 0x2CAA DUP7 DUP3 DUP8 ADD PUSH2 0x2C34 JUMP JUMPDEST SWAP2 POP POP SWAP3 POP SWAP3 POP SWAP3 JUMP JUMPDEST PUSH0 PUSH1 0x20 DUP3 DUP5 SUB SLT ISZERO PUSH2 0x2CC9 JUMPI PUSH2 0x2CC8 PUSH2 0x26A1 JUMP JUMPDEST JUMPDEST PUSH0 DUP3 ADD CALLDATALOAD PUSH8 0xFFFFFFFFFFFFFFFF DUP2 GT ISZERO PUSH2 0x2CE6 JUMPI PUSH2 0x2CE5 PUSH2 0x26A5 JUMP JUMPDEST JUMPDEST PUSH2 0x2CF2 DUP5 DUP3 DUP6 ADD PUSH2 0x27C0 JUMP JUMPDEST SWAP2 POP POP SWAP3 SWAP2 POP POP JUMP JUMPDEST PUSH0 DUP2 MLOAD SWAP1 POP SWAP2 SWAP1 POP JUMP JUMPDEST PUSH0 DUP3 DUP3 MSTORE PUSH1 0x20 DUP3 ADD SWAP1 POP SWAP3 SWAP2 POP POP JUMP JUMPDEST PUSH0 DUP2 SWAP1 POP PUSH1 0x20 DUP3 ADD SWAP1 POP SWAP2 SWAP1 POP JUMP JUMPDEST PUSH2 0x2D2D DUP2 PUSH2 0x2C15 JUMP JUMPDEST DUP3 MSTORE POP POP JUMP JUMPDEST PUSH2 0x2D3C DUP2 PUSH2 0x27ED JUMP JUMPDEST DUP3 MSTORE POP POP JUMP JUMPDEST PUSH1 0x40 DUP3 ADD PUSH0 DUP3 ADD MLOAD PUSH2 0x2D56 PUSH0 DUP6 ADD DUP3 PUSH2 0x2D24 JUMP JUMPDEST POP PUSH1 0x20 DUP3 ADD MLOAD PUSH2 0x2D69 PUSH1 0x20 DUP6 ADD DUP3 PUSH2 0x2D33 JUMP JUMPDEST POP POP POP POP JUMP JUMPDEST PUSH0 PUSH2 0x2D7A DUP4 DUP4 PUSH2 0x2D42 JUMP JUMPDEST PUSH1 0x40 DUP4 ADD SWAP1 POP SWAP3 SWAP2 POP POP JUMP JUMPDEST PUSH0 PUSH1 0x20 DUP3 ADD SWAP1 POP SWAP2 SWAP1 POP JUMP JUMPDEST PUSH0 PUSH2 0x2D9C DUP3 PUSH2 0x2CFB JUMP JUMPDEST PUSH2 0x2DA6 DUP2 DUP6 PUSH2 0x2D05 JUMP JUMPDEST SWAP4 POP PUSH2 0x2DB1 DUP4 PUSH2 0x2D15 JUMP JUMPDEST DUP1 PUSH0 JUMPDEST DUP4 DUP2 LT ISZERO PUSH2 0x2DE1 JUMPI DUP2 MLOAD PUSH2 0x2DC8 DUP9 DUP3 PUSH2 0x2D6F JUMP JUMPDEST SWAP8 POP PUSH2 0x2DD3 DUP4 PUSH2 0x2D86 JUMP JUMPDEST SWAP3 POP POP PUSH1 0x1 DUP2 ADD SWAP1 POP PUSH2 0x2DB4 JUMP JUMPDEST POP DUP6 SWAP4 POP POP POP POP SWAP3 SWAP2 POP POP JUMP JUMPDEST PUSH0 PUSH1 0x20 DUP3 ADD SWAP1 POP DUP2 DUP2 SUB PUSH0 DUP4 ADD MSTORE PUSH2 0x2E06 DUP2 DUP5 PUSH2 0x2D92 JUMP JUMPDEST SWAP1 POP SWAP3 SWAP2 POP POP JUMP JUMPDEST PUSH0 PUSH32 0xFFFFFFFF00000000000000000000000000000000000000000000000000000000 DUP3 AND SWAP1 POP SWAP2 SWAP1 POP JUMP JUMPDEST PUSH2 0x2E42 DUP2 PUSH2 0x2E0E JUMP JUMPDEST DUP2 EQ PUSH2 0x2E4C JUMPI PUSH0 DUP1 REVERT JUMPDEST POP JUMP JUMPDEST PUSH0 DUP2 CALLDATALOAD SWAP1 POP PUSH2 0x2E5D DUP2 PUSH2 0x2E39 JUMP JUMPDEST SWAP3 SWAP2 POP POP JUMP JUMPDEST PUSH0 PUSH1 0x20 DUP3 DUP5 SUB SLT ISZERO PUSH2 0x2E78 JUMPI PUSH2 0x2E77 PUSH2 0x26A1 JUMP JUMPDEST JUMPDEST PUSH0 PUSH2 0x2E85 DUP5 DUP3 DUP6 ADD PUSH2 0x2E4F JUMP JUMPDEST SWAP2 POP POP SWAP3 SWAP2 POP POP JUMP JUMPDEST PUSH2 0x2E97 DUP2 PUSH2 0x2919 JUMP JUMPDEST DUP3 MSTORE POP POP JUMP JUMPDEST PUSH0 PUSH1 0x20 DUP3 ADD SWAP1 POP PUSH2 0x2EB0 PUSH0 DUP4 ADD DUP5 PUSH2 0x2E8E JUMP JUMPDEST SWAP3 SWAP2 POP POP JUMP JUMPDEST PUSH0 DUP2 MLOAD SWAP1 POP SWAP2 SWAP1 POP JUMP JUMPDEST PUSH0 DUP3 DUP3 MSTORE PUSH1 0x20 DUP3 ADD SWAP1 POP SWAP3 SWAP2 POP POP JUMP JUMPDEST DUP3 DUP2 DUP4 MCOPY PUSH0 DUP4 DUP4 ADD MSTORE POP POP POP JUMP JUMPDEST PUSH0 PUSH2 0x2EE8 DUP3 PUSH2 0x2EB6 JUMP JUMPDEST PUSH2 0x2EF2 DUP2 DUP6 PUSH2 0x2EC0 JUMP JUMPDEST SWAP4 POP PUSH2 0x2F02 DUP2 DUP6 PUSH1 0x20 DUP7 ADD PUSH2 0x2ED0 JUMP JUMPDEST PUSH2 0x2F0B DUP2 PUSH2 0x26AD JUMP JUMPDEST DUP5 ADD SWAP2 POP POP SWAP3 SWAP2 POP POP JUMP JUMPDEST PUSH0 PUSH1 0x20 DUP3 ADD SWAP1 POP DUP2 DUP2 SUB PUSH0 DUP4 ADD MSTORE PUSH2 0x2F2E DUP2 DUP5 PUSH2 0x2EDE JUMP JUMPDEST SWAP1 POP SWAP3 SWAP2 POP POP JUMP JUMPDEST PUSH0 PUSH1 0x20 DUP3 DUP5 SUB SLT ISZERO PUSH2 0x2F4B JUMPI PUSH2 0x2F4A PUSH2 0x26A1 JUMP JUMPDEST JUMPDEST PUSH0 PUSH2 0x2F58 DUP5 DUP3 DUP6 ADD PUSH2 0x280C JUMP JUMPDEST SWAP2 POP POP SWAP3 SWAP2 POP POP JUMP JUMPDEST PUSH2 0x2F6A DUP2 PUSH2 0x2BDA JUMP JUMPDEST DUP3 MSTORE POP POP JUMP JUMPDEST PUSH0 PUSH1 0x20 DUP3 ADD SWAP1 POP PUSH2 0x2F83 PUSH0 DUP4 ADD DUP5 PUSH2 0x2F61 JUMP JUMPDEST SWAP3 SWAP2 POP POP JUMP JUMPDEST PUSH0 DUP1 PUSH1 0x40 DUP4 DUP6 SUB SLT ISZERO PUSH2 0x2F9F JUMPI PUSH2 0x2F9E PUSH2 0x26A1 JUMP JUMPDEST JUMPDEST PUSH0 PUSH2 0x2FAC DUP6 DUP3 DUP7 ADD PUSH2 0x2C01 JUMP JUMPDEST SWAP3 POP POP PUSH1 0x20 PUSH2 0x2FBD DUP6 DUP3 DUP7 ADD PUSH2 0x280C JUMP JUMPDEST SWAP2 POP POP SWAP3 POP SWAP3 SWAP1 POP JUMP JUMPDEST PUSH0 DUP1 PUSH0 PUSH1 0x60 DUP5 DUP7 SUB SLT ISZERO PUSH2 0x2FDE JUMPI PUSH2 0x2FDD PUSH2 0x26A1 JUMP JUMPDEST JUMPDEST PUSH0 PUSH2 0x2FEB DUP7 DUP3 DUP8 ADD PUSH2 0x2C01 JUMP JUMPDEST SWAP4 POP POP PUSH1 0x20 PUSH2 0x2FFC DUP7 DUP3 DUP8 ADD PUSH2 0x2C01 JUMP JUMPDEST SWAP3 POP POP PUSH1 0x40 PUSH2 0x300D DUP7 DUP3 DUP8 ADD PUSH2 0x280C JUMP JUMPDEST SWAP2 POP POP SWAP3 POP SWAP3 POP SWAP3 JUMP JUMPDEST PUSH0 DUP1 PUSH0 PUSH1 0x60 DUP5 DUP7 SUB SLT ISZERO PUSH2 0x302E JUMPI PUSH2 0x302D PUSH2 0x26A1 JUMP JUMPDEST JUMPDEST PUSH0 DUP5 ADD CALLDATALOAD PUSH8 0xFFFFFFFFFFFFFFFF DUP2 GT ISZERO PUSH2 0x304B JUMPI PUSH2 0x304A PUSH2 0x26A5 JUMP JUMPDEST JUMPDEST PUSH2 0x3057 DUP7 DUP3 DUP8 ADD PUSH2 0x27C0 JUMP JUMPDEST SWAP4 POP POP PUSH1 0x20 PUSH2 0x3068 DUP7 DUP3 DUP8 ADD PUSH2 0x2C01 JUMP JUMPDEST SWAP3 POP POP PUSH1 0x40 PUSH2 0x3079 DUP7 DUP3 DUP8 ADD PUSH2 0x2C34 JUMP JUMPDEST SWAP2 POP POP SWAP3 POP SWAP3 POP SWAP3 JUMP JUMPDEST PUSH0 PUSH1 0x20 DUP3 DUP5 SUB SLT ISZERO PUSH2 0x3098 JUMPI PUSH2 0x3097 PUSH2 0x26A1 JUMP JUMPDEST JUMPDEST PUSH0 PUSH2 0x30A5 DUP5 DUP3 DUP6 ADD PUSH2 0x2C01 JUMP JUMPDEST SWAP2 POP POP SWAP3 SWAP2 POP POP JUMP JUMPDEST PUSH2 0x30B7 DUP2 PUSH2 0x27ED JUMP JUMPDEST DUP3 MSTORE POP POP JUMP JUMPDEST PUSH0 PUSH1 0x20 DUP3 ADD SWAP1 POP PUSH2 0x30D0 PUSH0 DUP4 ADD DUP5 PUSH2 0x30AE JUMP JUMPDEST SWAP3 SWAP2 POP POP JUMP JUMPDEST PUSH0 DUP1 PUSH1 0x40 DUP4 DUP6 SUB SLT ISZERO PUSH2 0x30EC JUMPI PUSH2 0x30EB PUSH2 0x26A1 JUMP JUMPDEST JUMPDEST PUSH0 PUSH2 0x30F9 DUP6 DUP3 DUP7 ADD PUSH2 0x2C01 JUMP JUMPDEST SWAP3 POP POP PUSH1 0x20 PUSH2 0x310A DUP6 DUP3 DUP7 ADD PUSH2 0x293A JUMP JUMPDEST SWAP2 POP POP SWAP3 POP SWAP3 SWAP1 POP JUMP JUMPDEST PUSH0 PUSH8 0xFFFFFFFFFFFFFFFF DUP3 GT ISZERO PUSH2 0x312E JUMPI PUSH2 0x312D PUSH2 0x26BD JUMP JUMPDEST JUMPDEST PUSH2 0x3137 DUP3 PUSH2 0x26AD JUMP JUMPDEST SWAP1 POP PUSH1 0x20 DUP2 ADD SWAP1 POP SWAP2 SWAP1 POP JUMP JUMPDEST PUSH0 PUSH2 0x3156 PUSH2 0x3151 DUP5 PUSH2 0x3114 JUMP JUMPDEST PUSH2 0x271B JUMP JUMPDEST SWAP1 POP DUP3 DUP2 MSTORE PUSH1 0x20 DUP2 ADD DUP5 DUP5 DUP5 ADD GT ISZERO PUSH2 0x3172 JUMPI PUSH2 0x3171 PUSH2 0x273D JUMP JUMPDEST JUMPDEST PUSH2 0x317D DUP5 DUP3 DUP6 PUSH2 0x2771 JUMP JUMPDEST POP SWAP4 SWAP3 POP POP POP JUMP JUMPDEST PUSH0 DUP3 PUSH1 0x1F DUP4 ADD SLT PUSH2 0x3199 JUMPI PUSH2 0x3198 PUSH2 0x2739 JUMP JUMPDEST JUMPDEST DUP2 CALLDATALOAD PUSH2 0x31A9 DUP5 DUP3 PUSH1 0x20 DUP7 ADD PUSH2 0x3144 JUMP JUMPDEST SWAP2 POP POP SWAP3 SWAP2 POP POP JUMP JUMPDEST PUSH0 DUP1 PUSH0 DUP1 PUSH1 0x80 DUP6 DUP8 SUB SLT ISZERO PUSH2 0x31CA JUMPI PUSH2 0x31C9 PUSH2 0x26A1 JUMP JUMPDEST JUMPDEST PUSH0 PUSH2 0x31D7 DUP8 DUP3 DUP9 ADD PUSH2 0x2C01 JUMP JUMPDEST SWAP5 POP POP PUSH1 0x20 PUSH2 0x31E8 DUP8 DUP3 DUP9 ADD PUSH2 0x2C01 JUMP JUMPDEST SWAP4 POP POP PUSH1 0x40 PUSH2 0x31F9 DUP8 DUP3 DUP9 ADD PUSH2 0x280C JUMP JUMPDEST SWAP3 POP POP PUSH1 0x60 DUP6 ADD CALLDATALOAD PUSH8 0xFFFFFFFFFFFFFFFF DUP2 GT ISZERO PUSH2 0x321A JUMPI PUSH2 0x3219 PUSH2 0x26A5 JUMP JUMPDEST JUMPDEST PUSH2 0x3226 DUP8 DUP3 DUP9 ADD PUSH2 0x3185 JUMP JUMPDEST SWAP2 POP POP SWAP3 SWAP6 SWAP2 SWAP5 POP SWAP3 POP JUMP JUMPDEST PUSH0 DUP3 DUP3 MSTORE PUSH1 0x20 DUP3 ADD SWAP1 POP SWAP3 SWAP2 POP POP JUMP JUMPDEST PUSH0 PUSH2 0x324C DUP3 PUSH2 0x2EB6 JUMP JUMPDEST PUSH2 0x3256 DUP2 DUP6 PUSH2 0x3232 JUMP JUMPDEST SWAP4 POP PUSH2 0x3266 DUP2 DUP6 PUSH1 0x20 DUP7 ADD PUSH2 0x2ED0 JUMP JUMPDEST PUSH2 0x326F DUP2 PUSH2 0x26AD JUMP JUMPDEST DUP5 ADD SWAP2 POP POP SWAP3 SWAP2 POP POP JUMP JUMPDEST PUSH0 PUSH1 0xA0 DUP4 ADD PUSH0 DUP4 ADD MLOAD DUP5 DUP3 SUB PUSH0 DUP7 ADD MSTORE PUSH2 0x3294 DUP3 DUP3 PUSH2 0x3242 JUMP JUMPDEST SWAP2 POP POP PUSH1 0x20 DUP4 ADD MLOAD DUP5 DUP3 SUB PUSH1 0x20 DUP7 ADD MSTORE PUSH2 0x32AE DUP3 DUP3 PUSH2 0x3242 JUMP JUMPDEST SWAP2 POP POP PUSH1 0x40 DUP4 ADD MLOAD DUP5 DUP3 SUB PUSH1 0x40 DUP7 ADD MSTORE PUSH2 0x32C8 DUP3 DUP3 PUSH2 0x3242 JUMP JUMPDEST SWAP2 POP POP PUSH1 0x60 DUP4 ADD MLOAD DUP5 DUP3 SUB PUSH1 0x60 DUP7 ADD MSTORE PUSH2 0x32E2 DUP3 DUP3 PUSH2 0x3242 JUMP JUMPDEST SWAP2 POP POP PUSH1 0x80 DUP4 ADD MLOAD PUSH2 0x32F7 PUSH1 0x80 DUP7 ADD DUP3 PUSH2 0x2D33 JUMP JUMPDEST POP DUP1 SWAP2 POP POP SWAP3 SWAP2 POP POP JUMP JUMPDEST PUSH2 0x330B DUP2 PUSH2 0x2919 JUMP JUMPDEST DUP3 MSTORE POP POP JUMP JUMPDEST PUSH1 0x60 DUP3 ADD PUSH0 DUP3 ADD MLOAD PUSH2 0x3325 PUSH0 DUP6 ADD DUP3 PUSH2 0x3302 JUMP JUMPDEST POP PUSH1 0x20 DUP3 ADD MLOAD PUSH2 0x3338 PUSH1 0x20 DUP6 ADD DUP3 PUSH2 0x2D33 JUMP JUMPDEST POP PUSH1 0x40 DUP3 ADD MLOAD PUSH2 0x334B PUSH1 0x40 DUP6 ADD DUP3 PUSH2 0x2D33 JUMP JUMPDEST POP POP POP POP JUMP JUMPDEST PUSH0 DUP2 MLOAD SWAP1 POP SWAP2 SWAP1 POP JUMP JUMPDEST PUSH0 DUP3 DUP3 MSTORE PUSH1 0x20 DUP3 ADD SWAP1 POP SWAP3 SWAP2 POP POP JUMP JUMPDEST PUSH0 DUP2 SWAP1 POP PUSH1 0x20 DUP3 ADD SWAP1 POP SWAP2 SWAP1 POP JUMP JUMPDEST PUSH0 PUSH2 0x3385 DUP4 DUP4 PUSH2 0x3242 JUMP JUMPDEST SWAP1 POP SWAP3 SWAP2 POP POP JUMP JUMPDEST PUSH0 PUSH1 0x20 DUP3 ADD SWAP1 POP SWAP2 SWAP1 POP JUMP JUMPDEST PUSH0 PUSH2 0x33A3 DUP3 PUSH2 0x3351 JUMP JUMPDEST PUSH2 0x33AD DUP2 DUP6 PUSH2 0x335B JUMP JUMPDEST SWAP4 POP DUP4 PUSH1 0x20 DUP3 MUL DUP6 ADD PUSH2 0x33BF DUP6 PUSH2 0x336B JUMP JUMPDEST DUP1 PUSH0 JUMPDEST DUP6 DUP2 LT ISZERO PUSH2 0x33FA JUMPI DUP5 DUP5 SUB DUP10 MSTORE DUP2 MLOAD PUSH2 0x33DB DUP6 DUP3 PUSH2 0x337A JUMP JUMPDEST SWAP5 POP PUSH2 0x33E6 DUP4 PUSH2 0x338D JUMP JUMPDEST SWAP3 POP PUSH1 0x20 DUP11 ADD SWAP10 POP POP PUSH1 0x1 DUP2 ADD SWAP1 POP PUSH2 0x33C2 JUMP JUMPDEST POP DUP3 SWAP8 POP DUP8 SWAP6 POP POP POP POP POP POP SWAP3 SWAP2 POP POP JUMP JUMPDEST PUSH0 PUSH2 0x120 DUP4 ADD PUSH0 DUP4 ADD MLOAD DUP5 DUP3 SUB PUSH0 DUP7 ADD MSTORE PUSH2 0x3427 DUP3 DUP3 PUSH2 0x3242 JUMP JUMPDEST SWAP2 POP POP PUSH1 0x20 DUP4 ADD MLOAD DUP5 DUP3 SUB PUSH1 0x20 DUP7 ADD MSTORE PUSH2 0x3441 DUP3 DUP3 PUSH2 0x327A JUMP JUMPDEST SWAP2 POP POP PUSH1 0x40 DUP4 ADD MLOAD PUSH2 0x3456 PUSH1 0x40 DUP7 ADD DUP3 PUSH2 0x3311 JUMP JUMPDEST POP PUSH1 0x60 DUP4 ADD MLOAD DUP5 DUP3 SUB PUSH1 0xA0 DUP7 ADD MSTORE PUSH2 0x346E DUP3 DUP3 PUSH2 0x3399 JUMP JUMPDEST SWAP2 POP POP PUSH1 0x80 DUP4 ADD MLOAD DUP5 DUP3 SUB PUSH1 0xC0 DUP7 ADD MSTORE PUSH2 0x3488 DUP3 DUP3 PUSH2 0x3399 JUMP JUMPDEST SWAP2 POP POP PUSH1 0xA0 DUP4 ADD MLOAD DUP5 DUP3 SUB PUSH1 0xE0 DUP7 ADD MSTORE PUSH2 0x34A2 DUP3 DUP3 PUSH2 0x3399 JUMP JUMPDEST SWAP2 POP POP PUSH1 0xC0 DUP4 ADD MLOAD PUSH2 0x34B8 PUSH2 0x100 DUP7 ADD DUP3 PUSH2 0x2D33 JUMP JUMPDEST POP DUP1 SWAP2 POP POP SWAP3 SWAP2 POP POP JUMP JUMPDEST PUSH0 PUSH1 0x20 DUP3 ADD SWAP1 POP DUP2 DUP2 SUB PUSH0 DUP4 ADD MSTORE PUSH2 0x34DB DUP2 DUP5 PUSH2 0x340C JUMP JUMPDEST SWAP1 POP SWAP3 SWAP2 POP POP JUMP JUMPDEST PUSH0 DUP1 PUSH1 0x40 DUP4 DUP6 SUB SLT ISZERO PUSH2 0x34F9 JUMPI PUSH2 0x34F8 PUSH2 0x26A1 JUMP JUMPDEST JUMPDEST PUSH0 PUSH2 0x3506 DUP6 DUP3 DUP7 ADD PUSH2 0x2C01 JUMP JUMPDEST SWAP3 POP POP PUSH1 0x20 PUSH2 0x3517 DUP6 DUP3 DUP7 ADD PUSH2 0x2C01 JUMP JUMPDEST SWAP2 POP POP SWAP3 POP SWAP3 SWAP1 POP JUMP JUMPDEST PUSH0 DUP2 SWAP1 POP SWAP3 SWAP2 POP POP JUMP JUMPDEST PUSH0 PUSH2 0x3535 DUP3 PUSH2 0x2EB6 JUMP JUMPDEST PUSH2 0x353F DUP2 DUP6 PUSH2 0x3521 JUMP JUMPDEST SWAP4 POP PUSH2 0x354F DUP2 DUP6 PUSH1 0x20 DUP7 ADD PUSH2 0x2ED0 JUMP JUMPDEST DUP1 DUP5 ADD SWAP2 POP POP SWAP3 SWAP2 POP POP JUMP JUMPDEST PUSH0 PUSH2 0x3566 DUP3 DUP5 PUSH2 0x352B JUMP JUMPDEST SWAP2 POP DUP2 SWAP1 POP SWAP3 SWAP2 POP POP JUMP JUMPDEST PUSH32 0x50726F6475637420616C72656164792072656769737465726564000000000000 PUSH0 DUP3 ADD MSTORE POP JUMP JUMPDEST PUSH0 PUSH2 0x35A5 PUSH1 0x1A DUP4 PUSH2 0x2EC0 JUMP JUMPDEST SWAP2 POP PUSH2 0x35B0 DUP3 PUSH2 0x3571 JUMP JUMPDEST PUSH1 0x20 DUP3 ADD SWAP1 POP SWAP2 SWAP1 POP JUMP JUMPDEST PUSH0 PUSH1 0x20 DUP3 ADD SWAP1 POP DUP2 DUP2 SUB PUSH0 DUP4 ADD MSTORE PUSH2 0x35D2 DUP2 PUSH2 0x3599 JUMP JUMPDEST SWAP1 POP SWAP2 SWAP1 POP JUMP JUMPDEST PUSH32 0x4E487B7100000000000000000000000000000000000000000000000000000000 PUSH0 MSTORE PUSH1 0x11 PUSH1 0x4 MSTORE PUSH1 0x24 PUSH0 REVERT JUMPDEST PUSH0 PUSH2 0x3610 DUP3 PUSH2 0x27ED JUMP JUMPDEST SWAP2 POP PUSH32 0xFFFFFFFFFFFFFFFFFFFFFFFFFFFFFFFFFFFFFFFFFFFFFFFFFFFFFFFFFFFFFFFF DUP3 SUB PUSH2 0x3642 JUMPI PUSH2 0x3641 PUSH2 0x35D9 JUMP JUMPDEST JUMPDEST PUSH1 0x1 DUP3 ADD SWAP1 POP SWAP2 SWAP1 POP JUMP JUMPDEST PUSH32 0x4E487B7100000000000000000000000000000000000000000000000000000000 PUSH0 MSTORE PUSH1 0x22 PUSH1 0x4 MSTORE PUSH1 0x24 PUSH0 REVERT JUMPDEST PUSH0 PUSH1 0x2 DUP3 DIV SWAP1 POP PUSH1 0x1 DUP3 AND DUP1 PUSH2 0x3691 JUMPI PUSH1 0x7F DUP3 AND SWAP2 POP JUMPDEST PUSH1 0x20 DUP3 LT DUP2 SUB PUSH2 0x36A4 JUMPI PUSH2 0x36A3 PUSH2 0x364D JUMP JUMPDEST JUMPDEST POP SWAP2 SWAP1 POP JUMP JUMPDEST PUSH0 DUP2 SWAP1 POP DUP2 PUSH0 MSTORE PUSH1 0x20 PUSH0 KECCAK256 SWAP1 POP SWAP2 SWAP1 POP JUMP JUMPDEST PUSH0 PUSH1 0x20 PUSH1 0x1F DUP4 ADD DIV SWAP1 POP SWAP2 SWAP1 POP JUMP JUMPDEST PUSH0 DUP3 DUP3 SHL SWAP1 POP SWAP3 SWAP2 POP POP JUMP JUMPDEST PUSH0 PUSH1 0x8 DUP4 MUL PUSH2 0x3706 PUSH32 0xFFFFFFFFFFFFFFFFFFFFFFFFFFFFFFFFFFFFFFFFFFFFFFFFFFFFFFFFFFFFFFFF DUP3 PUSH2 0x36CB JUMP JUMPDEST PUSH2 0x3710 DUP7 DUP4 PUSH2 0x36CB JUMP JUMPDEST SWAP6 POP DUP1 NOT DUP5 AND SWAP4 POP DUP1 DUP7 AND DUP5 OR SWAP3 POP POP POP SWAP4 SWAP3 POP POP POP JUMP JUMPDEST PUSH0 DUP2 SWAP1 POP SWAP2 SWAP1 POP JUMP JUMPDEST PUSH0 PUSH2 0x374B PUSH2 0x3746 PUSH2 0x3741 DUP5 PUSH2 0x27ED JUMP JUMPDEST PUSH2 0x3728 JUMP JUMPDEST PUSH2 0x27ED JUMP JUMPDEST SWAP1 POP SWAP2 SWAP1 POP JUMP JUMPDEST PUSH0 DUP2 SWAP1 POP SWAP2 SWAP1 POP JUMP JUMPDEST PUSH2 0x3764 DUP4 PUSH2 0x3731 JUMP JUMPDEST PUSH2 0x3778 PUSH2 0x3770 DUP3 PUSH2 0x3752 JUMP JUMPDEST DUP5 DUP5 SLOAD PUSH2 0x36D7 JUMP JUMPDEST DUP3 SSTORE POP POP POP POP JUMP JUMPDEST PUSH0 SWAP1 JUMP JUMPDEST PUSH2 0x378C PUSH2 0x3780 JUMP JUMPDEST PUSH2 0x3797 DUP2 DUP5 DUP5 PUSH2 0x375B JUMP JUMPDEST POP POP POP JUMP JUMPDEST JUMPDEST DUP2 DUP2 LT ISZERO PUSH2 0x37BA JUMPI PUSH2 0x37AF PUSH0 DUP3 PUSH2 0x3784 JUMP JUMPDEST PUSH1 0x1 DUP2 ADD SWAP1 POP PUSH2 0x379D JUMP JUMPDEST POP POP JUMP JUMPDEST PUSH1 0x1F DUP3 GT ISZERO PUSH2 0x37FF JUMPI PUSH2 0x37D0 DUP2 PUSH2 0x36AA JUMP JUMPDEST PUSH2 0x37D9 DUP5 PUSH2 0x36BC JUMP JUMPDEST DUP2 ADD PUSH1 0x20 DUP6 LT ISZERO PUSH2 0x37E8 JUMPI DUP2 SWAP1 POP JUMPDEST PUSH2 0x37FC PUSH2 0x37F4 DUP6 PUSH2 0x36BC JUMP JUMPDEST DUP4 ADD DUP3 PUSH2 0x379C JUMP JUMPDEST POP POP JUMPDEST POP POP POP JUMP JUMPDEST PUSH0 DUP3 DUP3 SHR SWAP1 POP SWAP3 SWAP2 POP POP JUMP JUMPDEST PUSH0 PUSH2 0x381F PUSH0 NOT DUP5 PUSH1 0x8 MUL PUSH2 0x3804 JUMP JUMPDEST NOT DUP1 DUP4 AND SWAP2 POP POP SWAP3 SWAP2 POP POP JUMP JUMPDEST PUSH0 PUSH2 0x3837 DUP4 DUP4 PUSH2 0x3810 JUMP JUMPDEST SWAP2 POP DUP3 PUSH1 0x2 MUL DUP3 OR SWAP1 POP SWAP3 SWAP2 POP POP JUMP JUMPDEST PUSH2 0x3850 DUP3 PUSH2 0x2EB6 JUMP JUMPDEST PUSH8 0xFFFFFFFFFFFFFFFF DUP2 GT ISZERO PUSH2 0x3869 JUMPI PUSH2 0x3868 PUSH2 0x26BD JUMP JUMPDEST JUMPDEST PUSH2 0x3873 DUP3 SLOAD PUSH2 0x367A JUMP JUMPDEST PUSH2 0x387E DUP3 DUP3 DUP6 PUSH2 0x37BE JUMP JUMPDEST PUSH0 PUSH1 0x20 SWAP1 POP PUSH1 0x1F DUP4 GT PUSH1 0x1 DUP2 EQ PUSH2 0x38AF JUMPI PUSH0 DUP5 ISZERO PUSH2 0x389D JUMPI DUP3 DUP8 ADD MLOAD SWAP1 POP JUMPDEST PUSH2 0x38A7 DUP6 DUP3 PUSH2 0x382C JUMP JUMPDEST DUP7 SSTORE POP PUSH2 0x390E JUMP JUMPDEST PUSH1 0x1F NOT DUP5 AND PUSH2 0x38BD DUP7 PUSH2 0x36AA JUMP JUMPDEST PUSH0 JUMPDEST DUP3 DUP2 LT ISZERO PUSH2 0x38E4 JUMPI DUP5 DUP10 ADD MLOAD DUP3 SSTORE PUSH1 0x1 DUP3 ADD SWAP2 POP PUSH1 0x20 DUP6 ADD SWAP5 POP PUSH1 0x20 DUP2 ADD SWAP1 POP PUSH2 0x38BF JUMP JUMPDEST DUP7 DUP4 LT ISZERO PUSH2 0x3901 JUMPI DUP5 DUP10 ADD MLOAD PUSH2 0x38FD PUSH1 0x1F DUP10 AND DUP3 PUSH2 0x3810 JUMP JUMPDEST DUP4 SSTORE POP JUMPDEST PUSH1 0x1 PUSH1 0x2 DUP9 MUL ADD DUP9 SSTORE POP POP POP JUMPDEST POP POP POP POP POP POP JUMP JUMPDEST PUSH32 0x50726F64756374206E6F7420666F756E64000000000000000000000000000000 PUSH0 DUP3 ADD MSTORE POP JUMP JUMPDEST PUSH0 PUSH2 0x394A PUSH1 0x11 DUP4 PUSH2 0x2EC0 JUMP JUMPDEST SWAP2 POP PUSH2 0x3955 DUP3 PUSH2 0x3916 JUMP JUMPDEST PUSH1 0x20 DUP3 ADD SWAP1 POP SWAP2 SWAP1 POP JUMP JUMPDEST PUSH0 PUSH1 0x20 DUP3 ADD SWAP1 POP DUP2 DUP2 SUB PUSH0 DUP4 ADD MSTORE PUSH2 0x3977 DUP2 PUSH2 0x393E JUMP JUMPDEST SWAP1 POP SWAP2 SWAP1 POP JUMP JUMPDEST PUSH32 0x4E487B7100000000000000000000000000000000000000000000000000000000 PUSH0 MSTORE PUSH1 0x32 PUSH1 0x4 MSTORE PUSH1 0x24 PUSH0 REVERT JUMPDEST PUSH0 PUSH1 0x60 DUP3 ADD SWAP1 POP PUSH2 0x39BE PUSH0 DUP4 ADD DUP7 PUSH2 0x2F61 JUMP JUMPDEST PUSH2 0x39CB PUSH1 0x20 DUP4 ADD DUP6 PUSH2 0x30AE JUMP JUMPDEST PUSH2 0x39D8 PUSH1 0x40 DUP4 ADD DUP5 PUSH2 0x2F61 JUMP JUMPDEST SWAP5 SWAP4 POP POP POP POP JUMP JUMPDEST PUSH32 0x4E6F7420746865206F776E657200000000000000000000000000000000000000 PUSH0 DUP3 ADD MSTORE POP JUMP JUMPDEST PUSH0 PUSH2 0x3A14 PUSH1 0xD DUP4 PUSH2 0x2EC0 JUMP JUMPDEST SWAP2 POP PUSH2 0x3A1F DUP3 PUSH2 0x39E0 JUMP JUMPDEST PUSH1 0x20 DUP3 ADD SWAP1 POP SWAP2 SWAP1 POP JUMP JUMPDEST PUSH0 PUSH1 0x20 DUP3 ADD SWAP1 POP DUP2 DUP2 SUB PUSH0 DUP4 ADD MSTORE PUSH2 0x3A41 DUP2 PUSH2 0x3A08 JUMP JUMPDEST SWAP1 POP SWAP2 SWAP1 POP JUMP JUMPDEST PUSH0 PUSH2 0x3A52 DUP3 PUSH2 0x27ED JUMP JUMPDEST SWAP2 POP PUSH2 0x3A5D DUP4 PUSH2 0x27ED JUMP JUMPDEST SWAP3 POP DUP3 DUP3 SUB SWAP1 POP DUP2 DUP2 GT ISZERO PUSH2 0x3A75 JUMPI PUSH2 0x3A74 PUSH2 0x35D9 JUMP JUMPDEST JUMPDEST SWAP3 SWAP2 POP POP JUMP JUMPDEST PUSH0 PUSH2 0x3A86 DUP3 DUP6 PUSH2 0x352B JUMP JUMPDEST SWAP2 POP PUSH2 0x3A92 DUP3 DUP5 PUSH2 0x352B JUMP JUMPDEST SWAP2 POP DUP2 SWAP1 POP SWAP4 SWAP3 POP POP POP JUMP JUMPDEST PUSH0 DUP2 MLOAD SWAP1 POP SWAP2 SWAP1 POP JUMP JUMPDEST PUSH0 DUP3 DUP3 MSTORE PUSH1 0x20 DUP3 ADD SWAP1 POP SWAP3 SWAP2 POP POP JUMP JUMPDEST PUSH0 PUSH2 0x3AC2 DUP3 PUSH2 0x3A9E JUMP JUMPDEST PUSH2 0x3ACC DUP2 DUP6 PUSH2 0x3AA8 JUMP JUMPDEST SWAP4 POP PUSH2 0x3ADC DUP2 DUP6 PUSH1 0x20 DUP7 ADD PUSH2 0x2ED0 JUMP JUMPDEST PUSH2 0x3AE5 DUP2 PUSH2 0x26AD JUMP JUMPDEST DUP5 ADD SWAP2 POP POP SWAP3 SWAP2 POP POP JUMP JUMPDEST PUSH0 PUSH1 0x80 DUP3 ADD SWAP1 POP PUSH2 0x3B03 PUSH0 DUP4 ADD DUP8 PUSH2 0x2F61 JUMP JUMPDEST PUSH2 0x3B10 PUSH1 0x20 DUP4 ADD DUP7 PUSH2 0x2F61 JUMP JUMPDEST PUSH2 0x3B1D PUSH1 0x40 DUP4 ADD DUP6 PUSH2 0x30AE JUMP JUMPDEST DUP2 DUP2 SUB PUSH1 0x60 DUP4 ADD MSTORE PUSH2 0x3B2F DUP2 DUP5 PUSH2 0x3AB8 JUMP JUMPDEST SWAP1 POP SWAP6 SWAP5 POP POP POP POP POP JUMP JUMPDEST PUSH0 DUP2 MLOAD SWAP1 POP PUSH2 0x3B48 DUP2 PUSH2 0x2E39 JUMP JUMPDEST SWAP3 SWAP2 POP POP JUMP JUMPDEST PUSH0 PUSH1 0x20 DUP3 DUP5 SUB SLT ISZERO PUSH2 0x3B63 JUMPI PUSH2 0x3B62 PUSH2 0x26A1 JUMP JUMPDEST JUMPDEST PUSH0 PUSH2 0x3B70 DUP5 DUP3 DUP6 ADD PUSH2 0x3B3A JUMP JUMPDEST SWAP2 POP POP SWAP3 SWAP2 POP POP JUMP JUMPDEST PUSH32 0x4E487B7100000000000000000000000000000000000000000000000000000000 PUSH0 MSTORE PUSH1 0x12 PUSH1 0x4 MSTORE PUSH1 0x24 PUSH0 REVERT JUMPDEST PUSH0 PUSH1 0x40 DUP3 ADD SWAP1 POP PUSH2 0x3BB9 PUSH0 DUP4 ADD DUP6 PUSH2 0x2F61 JUMP JUMPDEST PUSH2 0x3BC6 PUSH1 0x20 DUP4 ADD DUP5 PUSH2 0x30AE JUMP JUMPDEST SWAP4 SWAP3 POP POP POP JUMP INVALID LOG2 PUSH5 0x6970667358 0x22 SLT KECCAK256 DUP8 PUSH18 0x213ED54CF4908D49277CF38BF741E37835B3 BLOBBASEFEE LOG1 COINBASE BLOBBASEFEE DUP10 0xBF 0xE4 EXTCODESIZE DUP1 0xC6 0xEC BLOBHASH PUSH5 0x736F6C6343 STOP ADDMOD BYTE STOP CALLER "
		},
		"gasEstimates": {
			"creation": {
				"codeDepositCost": "3072600",
				"executionCost": "infinite",
				"totalCost": "infinite"
			},
			"external": {
				"approve(address,uint256)": "infinite",
				"balanceOf(address)": "infinite",
				"getApproved(uint256)": "infinite",
				"getOwnershipHistory(string)": "infinite",
				"getProductByProductId(string)": "infinite",
				"isApprovedForAll(address,address)": "infinite",
				"name()": "infinite",
				"owner()": "2604",
				"ownerOf(uint256)": "infinite",
				"registerProduct((string,(string,string,string,string,uint256),(bool,uint256,uint256),string[],string[],string[]),address,bytes32)": "infinite",
				"renounceOwnership()": "infinite",
				"safeTransferFrom(address,address,uint256)": "infinite",
				"safeTransferFrom(address,address,uint256,bytes)": "infinite",
				"setApprovalForAll(address,bool)": "infinite",
				"supportsInterface(bytes4)": "831",
				"symbol()": "infinite",
				"tokenURI(uint256)": "infinite",
				"transferFrom(address,address,uint256)": "infinite",
				"transferOwnership(address)": "infinite",
				"transferProductWithInfo(string,address,bytes32)": "infinite",
				"verifyOwnershipWithInfo(string,address,bytes32)": "infinite"
			}
		},
		"methodIdentifiers": {
			"approve(address,uint256)": "095ea7b3",
			"balanceOf(address)": "70a08231",
			"getApproved(uint256)": "081812fc",
			"getOwnershipHistory(string)": "00c966be",
			"getProductByProductId(string)": "bd81cfa0",
			"isApprovedForAll(address,address)": "e985e9c5",
			"name()": "06fdde03",
			"owner()": "8da5cb5b",
			"ownerOf(uint256)": "6352211e",
			"registerProduct((string,(string,string,string,string,uint256),(bool,uint256,uint256),string[],string[],string[]),address,bytes32)": "0000ed06",
			"renounceOwnership()": "715018a6",
			"safeTransferFrom(address,address,uint256)": "42842e0e",
			"safeTransferFrom(address,address,uint256,bytes)": "b88d4fde",
			"setApprovalForAll(address,bool)": "a22cb465",
			"supportsInterface(bytes4)": "01ffc9a7",
			"symbol()": "95d89b41",
			"tokenURI(uint256)": "c87b56dd",
			"transferFrom(address,address,uint256)": "23b872dd",
			"transferOwnership(address)": "f2fde38b",
			"transferProductWithInfo(string,address,bytes32)": "33977e2f",
			"verifyOwnershipWithInfo(string,address,bytes32)": "7e2c579f"
		}
	},
	"abi": [
		{
			"inputs": [],
			"stateMutability": "nonpayable",
			"type": "constructor"
		},
		{
			"inputs": [
				{
					"internalType": "address",
					"name": "sender",
					"type": "address"
				},
				{
					"internalType": "uint256",
					"name": "tokenId",
					"type": "uint256"
				},
				{
					"internalType": "address",
					"name": "owner",
					"type": "address"
				}
			],
			"name": "ERC721IncorrectOwner",
			"type": "error"
		},
		{
			"inputs": [
				{
					"internalType": "address",
					"name": "operator",
					"type": "address"
				},
				{
					"internalType": "uint256",
					"name": "tokenId",
					"type": "uint256"
				}
			],
			"name": "ERC721InsufficientApproval",
			"type": "error"
		},
		{
			"inputs": [
				{
					"internalType": "address",
					"name": "approver",
					"type": "address"
				}
			],
			"name": "ERC721InvalidApprover",
			"type": "error"
		},
		{
			"inputs": [
				{
					"internalType": "address",
					"name": "operator",
					"type": "address"
				}
			],
			"name": "ERC721InvalidOperator",
			"type": "error"
		},
		{
			"inputs": [
				{
					"internalType": "address",
					"name": "owner",
					"type": "address"
				}
			],
			"name": "ERC721InvalidOwner",
			"type": "error"
		},
		{
			"inputs": [
				{
					"internalType": "address",
					"name": "receiver",
					"type": "address"
				}
			],
			"name": "ERC721InvalidReceiver",
			"type": "error"
		},
		{
			"inputs": [
				{
					"internalType": "address",
					"name": "sender",
					"type": "address"
				}
			],
			"name": "ERC721InvalidSender",
			"type": "error"
		},
		{
			"inputs": [
				{
					"internalType": "uint256",
					"name": "tokenId",
					"type": "uint256"
				}
			],
			"name": "ERC721NonexistentToken",
			"type": "error"
		},
		{
			"inputs": [
				{
					"internalType": "address",
					"name": "owner",
					"type": "address"
				}
			],
			"name": "OwnableInvalidOwner",
			"type": "error"
		},
		{
			"inputs": [
				{
					"internalType": "address",
					"name": "account",
					"type": "address"
				}
			],
			"name": "OwnableUnauthorizedAccount",
			"type": "error"
		},
		{
			"anonymous": false,
			"inputs": [
				{
					"indexed": true,
					"internalType": "address",
					"name": "owner",
					"type": "address"
				},
				{
					"indexed": true,
					"internalType": "address",
					"name": "approved",
					"type": "address"
				},
				{
					"indexed": true,
					"internalType": "uint256",
					"name": "tokenId",
					"type": "uint256"
				}
			],
			"name": "Approval",
			"type": "event"
		},
		{
			"anonymous": false,
			"inputs": [
				{
					"indexed": true,
					"internalType": "address",
					"name": "owner",
					"type": "address"
				},
				{
					"indexed": true,
					"internalType": "address",
					"name": "operator",
					"type": "address"
				},
				{
					"indexed": false,
					"internalType": "bool",
					"name": "approved",
					"type": "bool"
				}
			],
			"name": "ApprovalForAll",
			"type": "event"
		},
		{
			"anonymous": false,
			"inputs": [
				{
					"indexed": true,
					"internalType": "address",
					"name": "previousOwner",
					"type": "address"
				},
				{
					"indexed": true,
					"internalType": "address",
					"name": "newOwner",
					"type": "address"
				}
			],
			"name": "OwnershipTransferred",
			"type": "event"
		},
		{
			"anonymous": false,
			"inputs": [
				{
					"indexed": true,
					"internalType": "address",
					"name": "from",
					"type": "address"
				},
				{
					"indexed": true,
					"internalType": "address",
					"name": "to",
					"type": "address"
				},
				{
					"indexed": true,
					"internalType": "uint256",
					"name": "tokenId",
					"type": "uint256"
				}
			],
			"name": "Transfer",
			"type": "event"
		},
		{
			"inputs": [
				{
					"internalType": "address",
					"name": "to",
					"type": "address"
				},
				{
					"internalType": "uint256",
					"name": "tokenId",
					"type": "uint256"
				}
			],
			"name": "approve",
			"outputs": [],
			"stateMutability": "nonpayable",
			"type": "function"
		},
		{
			"inputs": [
				{
					"internalType": "address",
					"name": "owner",
					"type": "address"
				}
			],
			"name": "balanceOf",
			"outputs": [
				{
					"internalType": "uint256",
					"name": "",
					"type": "uint256"
				}
			],
			"stateMutability": "view",
			"type": "function"
		},
		{
			"inputs": [
				{
					"internalType": "uint256",
					"name": "tokenId",
					"type": "uint256"
				}
			],
			"name": "getApproved",
			"outputs": [
				{
					"internalType": "address",
					"name": "",
					"type": "address"
				}
			],
			"stateMutability": "view",
			"type": "function"
		},
		{
			"inputs": [
				{
					"internalType": "string",
					"name": "productId",
					"type": "string"
				}
			],
			"name": "getOwnershipHistory",
			"outputs": [
				{
					"components": [
						{
							"internalType": "bytes32",
							"name": "infoHash",
							"type": "bytes32"
						},
						{
							"internalType": "uint256",
							"name": "timestamp",
							"type": "uint256"
						}
					],
					"internalType": "struct ProductTypes.OwnerInfo[]",
					"name": "",
					"type": "tuple[]"
				}
			],
			"stateMutability": "view",
			"type": "function"
		},
		{
			"inputs": [
				{
					"internalType": "string",
					"name": "productId",
					"type": "string"
				}
			],
			"name": "getProductByProductId",
			"outputs": [
				{
					"components": [
						{
							"internalType": "string",
							"name": "productId",
							"type": "string"
						},
						{
							"components": [
								{
									"internalType": "string",
									"name": "brand",
									"type": "string"
								},
								{
									"internalType": "string",
									"name": "name",
									"type": "string"
								},
								{
									"internalType": "string",
									"name": "description",
									"type": "string"
								},
								{
									"internalType": "string",
									"name": "designer",
									"type": "string"
								},
								{
									"internalType": "uint256",
									"name": "manufactureDate",
									"type": "uint256"
								}
							],
							"internalType": "struct ProductTypes.ProductDetails",
							"name": "details",
							"type": "tuple"
						},
						{
							"components": [
								{
									"internalType": "bool",
									"name": "isLimited",
									"type": "bool"
								},
								{
									"internalType": "uint256",
									"name": "limitedNumber",
									"type": "uint256"
								},
								{
									"internalType": "uint256",
									"name": "totalLimited",
									"type": "uint256"
								}
							],
							"internalType": "struct ProductTypes.ProductLimitation",
							"name": "limitation",
							"type": "tuple"
						},
						{
							"internalType": "string[]",
							"name": "certificates",
							"type": "string[]"
						},
						{
							"internalType": "string[]",
							"name": "features",
							"type": "string[]"
						},
						{
							"internalType": "string[]",
							"name": "images",
							"type": "string[]"
						},
						{
							"internalType": "uint256",
							"name": "ownerHistoryCount",
							"type": "uint256"
						}
					],
					"internalType": "struct ProductTypes.Product",
					"name": "",
					"type": "tuple"
				}
			],
			"stateMutability": "view",
			"type": "function"
		},
		{
			"inputs": [
				{
					"internalType": "address",
					"name": "owner",
					"type": "address"
				},
				{
					"internalType": "address",
					"name": "operator",
					"type": "address"
				}
			],
			"name": "isApprovedForAll",
			"outputs": [
				{
					"internalType": "bool",
					"name": "",
					"type": "bool"
				}
			],
			"stateMutability": "view",
			"type": "function"
		},
		{
			"inputs": [],
			"name": "name",
			"outputs": [
				{
					"internalType": "string",
					"name": "",
					"type": "string"
				}
			],
			"stateMutability": "view",
			"type": "function"
		},
		{
			"inputs": [],
			"name": "owner",
			"outputs": [
				{
					"internalType": "address",
					"name": "",
					"type": "address"
				}
			],
			"stateMutability": "view",
			"type": "function"
		},
		{
			"inputs": [
				{
					"internalType": "uint256",
					"name": "tokenId",
					"type": "uint256"
				}
			],
			"name": "ownerOf",
			"outputs": [
				{
					"internalType": "address",
					"name": "",
					"type": "address"
				}
			],
			"stateMutability": "view",
			"type": "function"
		},
		{
			"inputs": [
				{
					"components": [
						{
							"internalType": "string",
							"name": "productId",
							"type": "string"
						},
						{
							"components": [
								{
									"internalType": "string",
									"name": "brand",
									"type": "string"
								},
								{
									"internalType": "string",
									"name": "name",
									"type": "string"
								},
								{
									"internalType": "string",
									"name": "description",
									"type": "string"
								},
								{
									"internalType": "string",
									"name": "designer",
									"type": "string"
								},
								{
									"internalType": "uint256",
									"name": "manufactureDate",
									"type": "uint256"
								}
							],
							"internalType": "struct ProductTypes.ProductDetails",
							"name": "details",
							"type": "tuple"
						},
						{
							"components": [
								{
									"internalType": "bool",
									"name": "isLimited",
									"type": "bool"
								},
								{
									"internalType": "uint256",
									"name": "limitedNumber",
									"type": "uint256"
								},
								{
									"internalType": "uint256",
									"name": "totalLimited",
									"type": "uint256"
								}
							],
							"internalType": "struct ProductTypes.ProductLimitation",
							"name": "limitation",
							"type": "tuple"
						},
						{
							"internalType": "string[]",
							"name": "certificates",
							"type": "string[]"
						},
						{
							"internalType": "string[]",
							"name": "features",
							"type": "string[]"
						},
						{
							"internalType": "string[]",
							"name": "images",
							"type": "string[]"
						}
					],
					"internalType": "struct ProductTypes.RegistrationParams",
					"name": "params",
					"type": "tuple"
				},
				{
					"internalType": "address",
					"name": "owner",
					"type": "address"
				},
				{
					"internalType": "bytes32",
					"name": "ownerInfoHash",
					"type": "bytes32"
				}
			],
			"name": "registerProduct",
			"outputs": [],
			"stateMutability": "nonpayable",
			"type": "function"
		},
		{
			"inputs": [],
			"name": "renounceOwnership",
			"outputs": [],
			"stateMutability": "nonpayable",
			"type": "function"
		},
		{
			"inputs": [
				{
					"internalType": "address",
					"name": "from",
					"type": "address"
				},
				{
					"internalType": "address",
					"name": "to",
					"type": "address"
				},
				{
					"internalType": "uint256",
					"name": "tokenId",
					"type": "uint256"
				}
			],
			"name": "safeTransferFrom",
			"outputs": [],
			"stateMutability": "nonpayable",
			"type": "function"
		},
		{
			"inputs": [
				{
					"internalType": "address",
					"name": "from",
					"type": "address"
				},
				{
					"internalType": "address",
					"name": "to",
					"type": "address"
				},
				{
					"internalType": "uint256",
					"name": "tokenId",
					"type": "uint256"
				},
				{
					"internalType": "bytes",
					"name": "data",
					"type": "bytes"
				}
			],
			"name": "safeTransferFrom",
			"outputs": [],
			"stateMutability": "nonpayable",
			"type": "function"
		},
		{
			"inputs": [
				{
					"internalType": "address",
					"name": "operator",
					"type": "address"
				},
				{
					"internalType": "bool",
					"name": "approved",
					"type": "bool"
				}
			],
			"name": "setApprovalForAll",
			"outputs": [],
			"stateMutability": "nonpayable",
			"type": "function"
		},
		{
			"inputs": [
				{
					"internalType": "bytes4",
					"name": "interfaceId",
					"type": "bytes4"
				}
			],
			"name": "supportsInterface",
			"outputs": [
				{
					"internalType": "bool",
					"name": "",
					"type": "bool"
				}
			],
			"stateMutability": "view",
			"type": "function"
		},
		{
			"inputs": [],
			"name": "symbol",
			"outputs": [
				{
					"internalType": "string",
					"name": "",
					"type": "string"
				}
			],
			"stateMutability": "view",
			"type": "function"
		},
		{
			"inputs": [
				{
					"internalType": "uint256",
					"name": "tokenId",
					"type": "uint256"
				}
			],
			"name": "tokenURI",
			"outputs": [
				{
					"internalType": "string",
					"name": "",
					"type": "string"
				}
			],
			"stateMutability": "view",
			"type": "function"
		},
		{
			"inputs": [
				{
					"internalType": "address",
					"name": "from",
					"type": "address"
				},
				{
					"internalType": "address",
					"name": "to",
					"type": "address"
				},
				{
					"internalType": "uint256",
					"name": "tokenId",
					"type": "uint256"
				}
			],
			"name": "transferFrom",
			"outputs": [],
			"stateMutability": "nonpayable",
			"type": "function"
		},
		{
			"inputs": [
				{
					"internalType": "address",
					"name": "newOwner",
					"type": "address"
				}
			],
			"name": "transferOwnership",
			"outputs": [],
			"stateMutability": "nonpayable",
			"type": "function"
		},
		{
			"inputs": [
				{
					"internalType": "string",
					"name": "productId",
					"type": "string"
				},
				{
					"internalType": "address",
					"name": "to",
					"type": "address"
				},
				{
					"internalType": "bytes32",
					"name": "newOwnerInfoHash",
					"type": "bytes32"
				}
			],
			"name": "transferProductWithInfo",
			"outputs": [],
			"stateMutability": "nonpayable",
			"type": "function"
		},
		{
			"inputs": [
				{
					"internalType": "string",
					"name": "productId",
					"type": "string"
				},
				{
					"internalType": "address",
					"name": "owner",
					"type": "address"
				},
				{
					"internalType": "bytes32",
					"name": "infoHash",
					"type": "bytes32"
				}
			],
			"name": "verifyOwnershipWithInfo",
			"outputs": [
				{
					"internalType": "bool",
					"name": "",
					"type": "bool"
				}
			],
			"stateMutability": "view",
			"type": "function"
		}
	]
}