{
	"data": {
		"bytecode": {
			"linkReferences": {},
			"object": "60806040526001600b55600a600e55600a600f55612710601055348015610024575f80fd5b50336040518060400160405280600e81526020017f5369676e732047616d65204e46540000000000000000000000000000000000008152506040518060400160405280600481526020017f5349474e00000000000000000000000000000000000000000000000000000000815250815f90816100a0919061044f565b5080600190816100b0919061044f565b5050505f73ffffffffffffffffffffffffffffffffffffffff168173ffffffffffffffffffffffffffffffffffffffff1603610123575f6040517f1e4fbdf700000000000000000000000000000000000000000000000000000000815260040161011a919061055d565b60405180910390fd5b6101328161015260201b60201c565b505f600660146101000a81548160ff021916908315150217905550610576565b5f60065f9054906101000a900473ffffffffffffffffffffffffffffffffffffffff1690508160065f6101000a81548173ffffffffffffffffffffffffffffffffffffffff021916908373ffffffffffffffffffffffffffffffffffffffff1602179055508173ffffffffffffffffffffffffffffffffffffffff168173ffffffffffffffffffffffffffffffffffffffff167f8be0079c531659141344cd1fd0a4f28419497f9722a3daafe3b4186f6b6457e060405160405180910390a35050565b5f81519050919050565b7f4e487b71000000000000000000000000000000000000000000000000000000005f52604160045260245ffd5b7f4e487b71000000000000000000000000000000000000000000000000000000005f52602260045260245ffd5b5f600282049050600182168061029057607f821691505b6020821081036102a3576102a261024c565b5b50919050565b5f819050815f5260205f209050919050565b5f6020601f8301049050919050565b5f82821b905092915050565b5f600883026103057fffffffffffffffffffffffffffffffffffffffffffffffffffffffffffffffff826102ca565b61030f86836102ca565b95508019841693508086168417925050509392505050565b5f819050919050565b5f819050919050565b5f61035361034e61034984610327565b610330565b610327565b9050919050565b5f819050919050565b61036c83610339565b6103806103788261035a565b8484546102d6565b825550505050565b5f90565b610394610388565b61039f818484610363565b505050565b5b818110156103c2576103b75f8261038c565b6001810190506103a5565b5050565b601f821115610407576103d8816102a9565b6103e1846102bb565b810160208510156103f0578190505b6104046103fc856102bb565b8301826103a4565b50505b505050565b5f82821c905092915050565b5f6104275f198460080261040c565b1980831691505092915050565b5f61043f8383610418565b9150826002028217905092915050565b61045882610215565b67ffffffffffffffff8111156104715761047061021f565b5b61047b8254610279565b6104868282856103c6565b5f60209050601f8311600181146104b7575f84156104a5578287015190505b6104af8582610434565b865550610516565b601f1984166104c5866102a9565b5f5b828110156104ec578489015182556001820191506020850194506020810190506104c7565b868310156105095784890151610505601f891682610418565b8355505b6001600288020188555050505b505050505050565b5f73ffffffffffffffffffffffffffffffffffffffff82169050919050565b5f6105478261051e565b9050919050565b6105578161053d565b82525050565b5f6020820190506105705f83018461054e565b92915050565b614a36806105835f395ff3fe608060405234801561000f575f80fd5b5060043610610246575f3560e01c8063835bbbb211610139578063b88ba0fd116100b6578063cb75b9971161007a578063cb75b9971461069e578063d1768b13146106d6578063e29f5a07146106f2578063e985e9c514610710578063f2fde38b1461074057610246565b8063b88ba0fd146105fa578063b88d4fde14610618578063c159c45414610634578063c87b56dd14610652578063c90bc6ab1461068257610246565b80638da5cb5b116100fd5780638da5cb5b1461056a57806395d89b41146105885780639ff42522146105a6578063a22cb465146105c2578063acc1c1a0146105de57610246565b8063835bbbb2146104c657806383c30faa146104e45780638456cb59146105005780638535ab521461050a5780638ca138a01461053a57610246565b806342842e0e116101c75780636352211e1161018b5780636352211e14610420578063706d42831461045057806370a082311461046e578063715018a61461049e578063780f14f8146104a857610246565b806342842e0e1461037c578063458de77814610398578063526b444e146103b65780635c975abb146103e65780635f87a13f1461040457610246565b80630d64c0891161020e5780630d64c0891461030057806320fe5a101461031e57806321dd4d271461033a57806323b872dd146103565780633f4ba83a1461037257610246565b806301ffc9a71461024a57806306fdde031461027a578063080807be14610298578063081812fc146102b4578063095ea7b3146102e4575b5f80fd5b610264600480360381019061025f919061348c565b61075c565b60405161027191906134d1565b60405180910390f35b61028261083d565b60405161028f919061355a565b60405180910390f35b6102b260048036038101906102ad919061365c565b6108cc565b005b6102ce60048036038101906102c991906136e8565b610907565b6040516102db9190613722565b60405180910390f35b6102fe60048036038101906102f9919061373b565b610922565b005b61030861095d565b6040516103159190613788565b60405180910390f35b610338600480360381019061033391906137a1565b610963565b005b610354600480360381019061034f91906137f1565b610a0d565b005b610370600480360381019061036b919061382f565b610bd8565b005b61037a610cd7565b005b6103966004803603810190610391919061382f565b610ce9565b005b6103a0610d08565b6040516103ad91906138da565b60405180910390f35b6103d060048036038101906103cb91906138f3565b610d2d565b6040516103dd9190613788565b60405180910390f35b6103ee610f7e565b6040516103fb91906134d1565b60405180910390f35b61041e6004803603810190610419919061391e565b610f94565b005b61043a600480360381019061043591906136e8565b611654565b6040516104479190613722565b60405180910390f35b610458611665565b6040516104659190613788565b60405180910390f35b6104886004803603810190610483919061396e565b61166b565b6040516104959190613788565b60405180910390f35b6104a6611721565b005b6104b0611734565b6040516104bd9190613788565b60405180910390f35b6104ce61173a565b6040516104db9190613788565b60405180910390f35b6104fe60048036038101906104f9919061396e565b61173f565b005b61050861178a565b005b610524600480360381019061051f919061396e565b61179c565b6040516105319190613788565b60405180910390f35b610554600480360381019061054f91906136e8565b6117b1565b6040516105619190613722565b60405180910390f35b6105726117e1565b60405161057f9190613722565b60405180910390f35b610590611809565b60405161059d919061355a565b60405180910390f35b6105c060048036038101906105bb9190613999565b611899565b005b6105dc60048036038101906105d79190613a01565b61197b565b005b6105f860048036038101906105f391906137f1565b6119b6565b005b610602611d00565b60405161060f9190613788565b60405180910390f35b610632600480360381019061062d9190613b6b565b611d06565b005b61063c611d2b565b6040516106499190613788565b60405180910390f35b61066c600480360381019061066791906136e8565b611d30565b604051610679919061355a565b60405180910390f35b61069c6004803603810190610697919061396e565b611d96565b005b6106b860048036038101906106b391906136e8565b611e46565b6040516106cd99989796959493929190613c77565b60405180910390f35b6106f060048036038101906106eb91906136e8565b611fa0565b005b6106fa611fe9565b6040516107079190613d26565b60405180910390f35b61072a60048036038101906107259190613d3f565b61200e565b60405161073791906134d1565b60405180910390f35b61075a6004803603810190610755919061396e565b61209c565b005b5f7f80ac58cd000000000000000000000000000000000000000000000000000000007bffffffffffffffffffffffffffffffffffffffffffffffffffffffff1916827bffffffffffffffffffffffffffffffffffffffffffffffffffffffff1916148061082657507f5b5e139f000000000000000000000000000000000000000000000000000000007bffffffffffffffffffffffffffffffffffffffffffffffffffffffff1916827bffffffffffffffffffffffffffffffffffffffffffffffffffffffff1916145b80610836575061083582612120565b5b9050919050565b60605f805461084b90613daa565b80601f016020809104026020016040519081016040528092919081815260200182805461087790613daa565b80156108c25780601f10610899576101008083540402835291602001916108c2565b820191905f5260205f20905b8154815290600101906020018083116108a557829003601f168201915b5050505050905090565b6040517f08c379a00000000000000000000000000000000000000000000000000000000081526004016108fe90613e24565b60405180910390fd5b5f61091182612189565b5061091b8261220f565b9050919050565b6040517f08c379a000000000000000000000000000000000000000000000000000000000815260040161095490613eb2565b60405180910390fd5b600f5481565b61096b612248565b5f8211801561097957505f81115b6109b8576040517f08c379a00000000000000000000000000000000000000000000000000000000081526004016109af90613f1a565b60405180910390fd5b82600e8190555081600f81905550806010819055507fd8967ea7c9dca5ba59868b7dde8aa63e5138a60c8d9eab8a302e616f5cf4b5ea838383604051610a0093929190613f38565b60405180910390a1505050565b610a156122cf565b5f60085f8481526020019081526020015f2090505f73ffffffffffffffffffffffffffffffffffffffff16816005015f9054906101000a900473ffffffffffffffffffffffffffffffffffffffff1673ffffffffffffffffffffffffffffffffffffffff1603610ab1576040517f4d28580700000000000000000000000000000000000000000000000000000000815260040160405180910390fd5b3373ffffffffffffffffffffffffffffffffffffffff16816005015f9054906101000a900473ffffffffffffffffffffffffffffffffffffffff1673ffffffffffffffffffffffffffffffffffffffff1614610b39576040517f5ea428d200000000000000000000000000000000000000000000000000000000815260040160405180910390fd5b610b5282803603810190610b4d9190614026565b612319565b610b88576040517ff80f144500000000000000000000000000000000000000000000000000000000815260040160405180910390fd5b81815f018181610b989190614251565b905050827f5e3c2dc59961afd7162b57db3494a2c4fd3aa84094847a768067ad2fc16416c083604051610bcb91906142e3565b60405180910390a2505050565b5f73ffffffffffffffffffffffffffffffffffffffff168273ffffffffffffffffffffffffffffffffffffffff1603610c48575f6040517f64a0ae92000000000000000000000000000000000000000000000000000000008152600401610c3f9190613722565b60405180910390fd5b5f610c5b8383610c566123c2565b6123c9565b90508373ffffffffffffffffffffffffffffffffffffffff168173ffffffffffffffffffffffffffffffffffffffff1614610cd1578382826040517f64283d7b000000000000000000000000000000000000000000000000000000008152600401610cc8939291906142fc565b60405180910390fd5b50505050565b610cdf612248565b610ce7612448565b565b610d0383838360405180602001604052805f815250611d06565b505050565b600c5f9054906101000a900473ffffffffffffffffffffffffffffffffffffffff1681565b5f610d366122cf565b600160095f3373ffffffffffffffffffffffffffffffffffffffff1673ffffffffffffffffffffffffffffffffffffffff1681526020019081526020015f205410610dad576040517f5e1c472800000000000000000000000000000000000000000000000000000000815260040160405180910390fd5b610dc682803603810190610dc19190614026565b612319565b610dfc576040517ff80f144500000000000000000000000000000000000000000000000000000000815260040160405180910390fd5b610e0660076124aa565b5f610e1160076124be565b90505f60085f8381526020019081526020015f20905083815f018181610e379190614251565b90505083816001018181610e4b9190614251565b90505033816005015f6101000a81548173ffffffffffffffffffffffffffffffffffffffff021916908373ffffffffffffffffffffffffffffffffffffffff1602179055505f81600401819055505f81600301819055505f8160050160146101000a81548160ff021916908315150217905550600b54816007018190555060095f3373ffffffffffffffffffffffffffffffffffffffff1673ffffffffffffffffffffffffffffffffffffffff1681526020019081526020015f205f815480929190610f169061435e565b9190505550610f2533836124ca565b3373ffffffffffffffffffffffffffffffffffffffff16827fdffe517f254875de804b76d54da034367437a82635472ceaffe26b4c813beb0886604051610f6c91906142e3565b60405180910390a38192505050919050565b5f600660149054906101000a900460ff16905090565b610f9c6122cf565b5f73ffffffffffffffffffffffffffffffffffffffff16600c5f9054906101000a900473ffffffffffffffffffffffffffffffffffffffff1673ffffffffffffffffffffffffffffffffffffffff1603611022576040517fc8c5b00e00000000000000000000000000000000000000000000000000000000815260040160405180910390fd5b5f73ffffffffffffffffffffffffffffffffffffffff16600d5f9054906101000a900473ffffffffffffffffffffffffffffffffffffffff1673ffffffffffffffffffffffffffffffffffffffff16036110a8576040517fa2e5594200000000000000000000000000000000000000000000000000000000815260040160405180910390fd5b5f60085f8581526020019081526020015f2090505f73ffffffffffffffffffffffffffffffffffffffff16816005015f9054906101000a900473ffffffffffffffffffffffffffffffffffffffff1673ffffffffffffffffffffffffffffffffffffffff1603611144576040517f4d28580700000000000000000000000000000000000000000000000000000000815260040160405180910390fd5b8060050160149054906101000a900460ff1661118c576040517fa008845700000000000000000000000000000000000000000000000000000000815260040160405180910390fd5b3373ffffffffffffffffffffffffffffffffffffffff16600a5f8681526020019081526020015f205f9054906101000a900473ffffffffffffffffffffffffffffffffffffffff1673ffffffffffffffffffffffffffffffffffffffff1614611221576040517f5ea428d200000000000000000000000000000000000000000000000000000000815260040160405180910390fd5b61123a838036038101906112359190614026565b612319565b611270576040517ff80f144500000000000000000000000000000000000000000000000000000000815260040160405180910390fd5b5f816001016040518060600160405290815f82015f9054906101000a900460070b60070b60070b81526020015f820160089054906101000a900460070b60070b60070b81526020015f820160109054906101000a900467ffffffffffffffff1667ffffffffffffffff1667ffffffffffffffff16815250509050838260010181816112fb9190614251565b9050505f8260050160146101000a81548160ff021916908315150217905550816002015f81548092919061132e9061435e565b91905055505f61134e82868036038101906113499190614026565b6124e7565b905080836003015f82825461136391906143a5565b9250508190555061137c836002015484600301546125b9565b83600401819055508383600601819055505f6113ae8784888036038101906113a49190614026565b8760040154612622565b90505f600d5f9054906101000a900473ffffffffffffffffffffffffffffffffffffffff1673ffffffffffffffffffffffffffffffffffffffff1663ef9ecc1d8933856040518463ffffffff1660e01b815260040161140f939291906143d8565b6060604051808303815f875af115801561142b573d5f803e3d5ffd5b505050506040513d601f19601f8201168201806040525081019061144f9190614496565b9050600c5f9054906101000a900473ffffffffffffffffffffffffffffffffffffffff1673ffffffffffffffffffffffffffffffffffffffff1663080807be8933878b865f01518c6040518763ffffffff1660e01b81526004016114b8969594939291906144c1565b5f604051808303815f87803b1580156114cf575f80fd5b505af11580156114e1573d5f803e3d5ffd5b50505050600a5f8981526020019081526020015f205f6101000a81549073ffffffffffffffffffffffffffffffffffffffff02191690553373ffffffffffffffffffffffffffffffffffffffff16887fae2d7af13ac4bbb6c26a8ce1d47d0148f62f74bd05aebacd2562f16cbedd65fd8960405161155f91906142e3565b60405180910390a33373ffffffffffffffffffffffffffffffffffffffff16887f3d34cac5fc97a73234c81ca60d8bf759004df6f7769f9cb6c45345b8b2e78a09868a6040516115b0929190614523565b60405180910390a3877fd57ebcebd2ee998af04cc567d1d726db6e506e576a231810cfc85a1fbc438417876040516115e8919061454a565b60405180910390a23373ffffffffffffffffffffffffffffffffffffffff16887f8ea2ce75a1183d5e9f13d8a6b6769e4977f4968e54a4f766f33b97015844e47384845f0151856040015160405161164293929190614563565b60405180910390a35050505050505050565b5f61165e82612189565b9050919050565b600e5481565b5f8073ffffffffffffffffffffffffffffffffffffffff168273ffffffffffffffffffffffffffffffffffffffff16036116dc575f6040517f89c62b640000000000000000000000000000000000000000000000000000000081526004016116d39190613722565b60405180910390fd5b60035f8373ffffffffffffffffffffffffffffffffffffffff1673ffffffffffffffffffffffffffffffffffffffff1681526020019081526020015f20549050919050565b611729612248565b6117325f61275a565b565b600b5481565b600181565b611747612248565b80600c5f6101000a81548173ffffffffffffffffffffffffffffffffffffffff021916908373ffffffffffffffffffffffffffffffffffffffff16021790555050565b611792612248565b61179a61281d565b565b6009602052805f5260405f205f915090505481565b600a602052805f5260405f205f915054906101000a900473ffffffffffffffffffffffffffffffffffffffff1681565b5f60065f9054906101000a900473ffffffffffffffffffffffffffffffffffffffff16905090565b60606001805461181890613daa565b80601f016020809104026020016040519081016040528092919081815260200182805461184490613daa565b801561188f5780601f106118665761010080835404028352916020019161188f565b820191905f5260205f20905b81548152906001019060200180831161187257829003601f168201915b5050505050905090565b5f60085f8481526020019081526020015f2090503373ffffffffffffffffffffffffffffffffffffffff16816005015f9054906101000a900473ffffffffffffffffffffffffffffffffffffffff1673ffffffffffffffffffffffffffffffffffffffff1614611935576040517fde271cf500000000000000000000000000000000000000000000000000000000815260040160405180910390fd5b818160070181905550827f6d45aafd42922ecaf790edbeb5b45dfaca692040b5a8b8d0f0379035d18a38298360405161196e9190613788565b60405180910390a2505050565b6040517f08c379a00000000000000000000000000000000000000000000000000000000081526004016119ad90614608565b60405180910390fd5b6119be6122cf565b5f60085f8481526020019081526020015f2090505f73ffffffffffffffffffffffffffffffffffffffff16816005015f9054906101000a900473ffffffffffffffffffffffffffffffffffffffff1673ffffffffffffffffffffffffffffffffffffffff1603611a5a576040517f4d28580700000000000000000000000000000000000000000000000000000000815260040160405180910390fd5b8060050160149054906101000a900460ff1615611aa3576040517f7bb246a300000000000000000000000000000000000000000000000000000000815260040160405180910390fd5b806005015f9054906101000a900473ffffffffffffffffffffffffffffffffffffffff1673ffffffffffffffffffffffffffffffffffffffff163373ffffffffffffffffffffffffffffffffffffffff1603611b2b576040517f5ea428d200000000000000000000000000000000000000000000000000000000815260040160405180910390fd5b611bbb82803603810190611b3f9190614026565b826001016040518060600160405290815f82015f9054906101000a900460070b60070b60070b81526020015f820160089054906101000a900460070b60070b60070b81526020015f820160109054906101000a900467ffffffffffffffff1667ffffffffffffffff1667ffffffffffffffff1681525050612880565b611bf1576040517fe286e4cf00000000000000000000000000000000000000000000000000000000815260040160405180910390fd5b611c0a82803603810190611c059190614026565b612319565b611c40576040517ff80f144500000000000000000000000000000000000000000000000000000000815260040160405180910390fd5b60018160050160146101000a81548160ff02191690831515021790555033600a5f8581526020019081526020015f205f6101000a81548173ffffffffffffffffffffffffffffffffffffffff021916908373ffffffffffffffffffffffffffffffffffffffff1602179055503373ffffffffffffffffffffffffffffffffffffffff16837fad6ffa76ad6dfc74b39fb62c7f9e1a5255044c5c4dfbce7b7e9644d20dcbc6cc84604051611cf391906142e3565b60405180910390a3505050565b60105481565b611d11848484610bd8565b611d25611d1c6123c2565b85858585612964565b50505050565b606481565b6060611d3b82612189565b505f611d45612b10565b90505f815111611d635760405180602001604052805f815250611d8e565b80611d6d84612b26565b604051602001611d7e929190614660565b6040516020818303038152906040525b915050919050565b611d9e612248565b5f73ffffffffffffffffffffffffffffffffffffffff168173ffffffffffffffffffffffffffffffffffffffff1603611e03576040517fe6c4247b00000000000000000000000000000000000000000000000000000000815260040160405180910390fd5b80600d5f6101000a81548173ffffffffffffffffffffffffffffffffffffffff021916908373ffffffffffffffffffffffffffffffffffffffff16021790555050565b6008602052805f5260405f205f91509050805f016040518060600160405290815f82015f9054906101000a900460070b60070b60070b81526020015f820160089054906101000a900460070b60070b60070b81526020015f820160109054906101000a900467ffffffffffffffff1667ffffffffffffffff1667ffffffffffffffff168152505090806001016040518060600160405290815f82015f9054906101000a900460070b60070b60070b81526020015f820160089054906101000a900460070b60070b60070b81526020015f820160109054906101000a900467ffffffffffffffff1667ffffffffffffffff1667ffffffffffffffff168152505090806002015490806003015490806004015490806005015f9054906101000a900473ffffffffffffffffffffffffffffffffffffffff16908060050160149054906101000a900460ff16908060060154908060070154905089565b611fa8612248565b80600b819055507fbb9cc79cd65e537e25d290beb2ffb5bf3d7dae20c986aa6ada11022236d18a9a81604051611fde9190613788565b60405180910390a150565b600d5f9054906101000a900473ffffffffffffffffffffffffffffffffffffffff1681565b5f60055f8473ffffffffffffffffffffffffffffffffffffffff1673ffffffffffffffffffffffffffffffffffffffff1681526020019081526020015f205f8373ffffffffffffffffffffffffffffffffffffffff1673ffffffffffffffffffffffffffffffffffffffff1681526020019081526020015f205f9054906101000a900460ff16905092915050565b6120a4612248565b5f73ffffffffffffffffffffffffffffffffffffffff168173ffffffffffffffffffffffffffffffffffffffff1603612114575f6040517f1e4fbdf700000000000000000000000000000000000000000000000000000000815260040161210b9190613722565b60405180910390fd5b61211d8161275a565b50565b5f7f01ffc9a7000000000000000000000000000000000000000000000000000000007bffffffffffffffffffffffffffffffffffffffffffffffffffffffff1916827bffffffffffffffffffffffffffffffffffffffffffffffffffffffff1916149050919050565b5f8061219483612bf0565b90505f73ffffffffffffffffffffffffffffffffffffffff168173ffffffffffffffffffffffffffffffffffffffff160361220657826040517f7e2732890000000000000000000000000000000000000000000000000000000081526004016121fd9190613788565b60405180910390fd5b80915050919050565b5f60045f8381526020019081526020015f205f9054906101000a900473ffffffffffffffffffffffffffffffffffffffff169050919050565b6122506123c2565b73ffffffffffffffffffffffffffffffffffffffff1661226e6117e1565b73ffffffffffffffffffffffffffffffffffffffff16146122cd576122916123c2565b6040517f118cdaa70000000000000000000000000000000000000000000000000000000081526004016122c49190613722565b60405180910390fd5b565b6122d7610f7e565b15612317576040517f08c379a000000000000000000000000000000000000000000000000000000000815260040161230e906146cd565b60405180910390fd5b565b5f7ffffffffffffffffffffffffffffffffffffffffffffffffffffffffffff24460825f015160070b121580156123595750620dbba0825f015160070b13155b801561238c57507fffffffffffffffffffffffffffffffffffffffffffffffffffffffffffe488c0826020015160070b12155b80156123a25750621b7740826020015160070b13155b80156123bb57505f826040015167ffffffffffffffff16115b9050919050565b5f33905090565b5f6123d26122cf565b60085f8481526020019081526020015f2060050160149054906101000a900460ff1615612434576040517f08c379a000000000000000000000000000000000000000000000000000000000815260040161242b90614735565b60405180910390fd5b61243f848484612c29565b90509392505050565b612450612e34565b5f600660146101000a81548160ff0219169083151502179055507f5db9ee0a495bf2e6ff9c91a7834c1ba4fdd244a5e8aa4e537bd38aeae4b073aa6124936123c2565b6040516124a09190613722565b60405180910390a1565b6001815f015f828254019250508190555050565b5f815f01549050919050565b6124e3828260405180602001604052805f815250612e7d565b5050565b5f80835f0151835f01516124fb9190614753565b90505f846020015184602001516125129190614753565b90505f808360070b126125255782612530565b8261252f906147b2565b5b90505f808360070b12612543578261254e565b8261254d906147b2565b5b90505f8167ffffffffffffffff168267ffffffffffffffff1661257191906147f8565b8367ffffffffffffffff168467ffffffffffffffff1661259191906147f8565b61259b91906143a5565b90506201b198816125ac91906147f8565b9550505050505092915050565b5f80600f54600f54856125cc91906143a5565b6125d691906147f8565b600e5485866125e591906147f8565b6125ef91906147f8565b6125f99190614866565b90505f6010548461260a9190614866565b9050808261261891906143a5565b9250505092915050565b5f80845f0151845f01516126369190614753565b90505f8560200151856020015161264d9190614753565b90505f808360070b12612660578261266b565b8261266a906147b2565b5b90505f808360070b1261267e5782612689565b82612688906147b2565b5b90505f8167ffffffffffffffff168267ffffffffffffffff166126ac91906147f8565b8367ffffffffffffffff168467ffffffffffffffff166126cc91906147f8565b6126d691906143a5565b90505f6201b198826126e891906147f8565b90505f606460085f8e81526020019081526020015f20600701548361270d91906147f8565b6127179190614866565b90505f8961271061272891906143a5565b90505f612710828461273a91906147f8565b6127449190614866565b9050809950505050505050505050949350505050565b5f60065f9054906101000a900473ffffffffffffffffffffffffffffffffffffffff1690508160065f6101000a81548173ffffffffffffffffffffffffffffffffffffffff021916908373ffffffffffffffffffffffffffffffffffffffff1602179055508173ffffffffffffffffffffffffffffffffffffffff168173ffffffffffffffffffffffffffffffffffffffff167f8be0079c531659141344cd1fd0a4f28419497f9722a3daafe3b4186f6b6457e060405160405180910390a35050565b6128256122cf565b6001600660146101000a81548160ff0219169083151502179055507f62e78cea01bee320cd4e420270b5ea74000d11b0c9f74754ebdbfc544b05a2586128696123c2565b6040516128769190613722565b60405180910390a1565b5f80825f0151845f01516128949190614753565b90505f836020015185602001516128ab9190614753565b90505f808360070b126128be57826128c9565b826128c8906147b2565b5b90505f808360070b126128dc57826128e7565b826128e6906147b2565b5b90505f8167ffffffffffffffff168267ffffffffffffffff1661290a91906147f8565b8367ffffffffffffffff168467ffffffffffffffff1661292a91906147f8565b61293491906143a5565b90506201b198808261294691906147f8565b61295091906147f8565b905060648111159550505050505092915050565b5f8373ffffffffffffffffffffffffffffffffffffffff163b1115612b09578273ffffffffffffffffffffffffffffffffffffffff1663150b7a02868685856040518563ffffffff1660e01b81526004016129c294939291906148e8565b6020604051808303815f875af19250505080156129fd57506040513d601f19601f820116820180604052508101906129fa9190614946565b60015b612a7e573d805f8114612a2b576040519150601f19603f3d011682016040523d82523d5f602084013e612a30565b606091505b505f815103612a7657836040517f64a0ae92000000000000000000000000000000000000000000000000000000008152600401612a6d9190613722565b60405180910390fd5b805181602001fd5b63150b7a0260e01b7bffffffffffffffffffffffffffffffffffffffffffffffffffffffff1916817bffffffffffffffffffffffffffffffffffffffffffffffffffffffff191614612b0757836040517f64a0ae92000000000000000000000000000000000000000000000000000000008152600401612afe9190613722565b60405180910390fd5b505b5050505050565b606060405180602001604052805f815250905090565b60605f6001612b3484612ea0565b0190505f8167ffffffffffffffff811115612b5257612b51613a47565b5b6040519080825280601f01601f191660200182016040528015612b845781602001600182028036833780820191505090505b5090505f82602001820190505b600115612be5578080600190039150507f3031323334353637383961626364656600000000000000000000000000000000600a86061a8153600a8581612bda57612bd9614839565b5b0494505f8503612b91575b819350505050919050565b5f60025f8381526020019081526020015f205f9054906101000a900473ffffffffffffffffffffffffffffffffffffffff169050919050565b5f80612c3484612bf0565b90505f73ffffffffffffffffffffffffffffffffffffffff168373ffffffffffffffffffffffffffffffffffffffff1614612c7557612c74818486612ff1565b5b5f73ffffffffffffffffffffffffffffffffffffffff168173ffffffffffffffffffffffffffffffffffffffff1614612d0057612cb45f855f806130b4565b600160035f8373ffffffffffffffffffffffffffffffffffffffff1673ffffffffffffffffffffffffffffffffffffffff1681526020019081526020015f205f82825403925050819055505b5f73ffffffffffffffffffffffffffffffffffffffff168573ffffffffffffffffffffffffffffffffffffffff1614612d7f57600160035f8773ffffffffffffffffffffffffffffffffffffffff1673ffffffffffffffffffffffffffffffffffffffff1681526020019081526020015f205f82825401925050819055505b8460025f8681526020019081526020015f205f6101000a81548173ffffffffffffffffffffffffffffffffffffffff021916908373ffffffffffffffffffffffffffffffffffffffff160217905550838573ffffffffffffffffffffffffffffffffffffffff168273ffffffffffffffffffffffffffffffffffffffff167fddf252ad1be2c89b69c2b068fc378daa952ba7f163c4a11628f55a4df523b3ef60405160405180910390a4809150509392505050565b612e3c610f7e565b612e7b576040517f08c379a0000000000000000000000000000000000000000000000000000000008152600401612e72906149bb565b60405180910390fd5b565b612e878383613273565b612e9b612e926123c2565b5f858585612964565b505050565b5f805f90507a184f03e93ff9f4daa797ed6e38ed64bf6a1f0100000000000000008310612efc577a184f03e93ff9f4daa797ed6e38ed64bf6a1f0100000000000000008381612ef257612ef1614839565b5b0492506040810190505b6d04ee2d6d415b85acef81000000008310612f39576d04ee2d6d415b85acef81000000008381612f2f57612f2e614839565b5b0492506020810190505b662386f26fc100008310612f6857662386f26fc100008381612f5e57612f5d614839565b5b0492506010810190505b6305f5e1008310612f91576305f5e1008381612f8757612f86614839565b5b0492506008810190505b6127108310612fb6576127108381612fac57612fab614839565b5b0492506004810190505b60648310612fd95760648381612fcf57612fce614839565b5b0492506002810190505b600a8310612fe8576001810190505b80915050919050565b612ffc838383613366565b6130af575f73ffffffffffffffffffffffffffffffffffffffff168373ffffffffffffffffffffffffffffffffffffffff160361307057806040517f7e2732890000000000000000000000000000000000000000000000000000000081526004016130679190613788565b60405180910390fd5b81816040517f177e802f0000000000000000000000000000000000000000000000000000000081526004016130a69291906149d9565b60405180910390fd5b505050565b80806130ec57505f73ffffffffffffffffffffffffffffffffffffffff168273ffffffffffffffffffffffffffffffffffffffff1614155b1561321e575f6130fb84612189565b90505f73ffffffffffffffffffffffffffffffffffffffff168373ffffffffffffffffffffffffffffffffffffffff161415801561316557508273ffffffffffffffffffffffffffffffffffffffff168173ffffffffffffffffffffffffffffffffffffffff1614155b80156131785750613176818461200e565b155b156131ba57826040517fa9fbf51f0000000000000000000000000000000000000000000000000000000081526004016131b19190613722565b60405180910390fd5b811561321c57838573ffffffffffffffffffffffffffffffffffffffff168273ffffffffffffffffffffffffffffffffffffffff167f8c5be1e5ebec7d5bd14f71427d1e84f3dd0314c0f7b2291e5b200ac8c7c3b92560405160405180910390a45b505b8360045f8581526020019081526020015f205f6101000a81548173ffffffffffffffffffffffffffffffffffffffff021916908373ffffffffffffffffffffffffffffffffffffffff16021790555050505050565b5f73ffffffffffffffffffffffffffffffffffffffff168273ffffffffffffffffffffffffffffffffffffffff16036132e3575f6040517f64a0ae920000000000000000000000000000000000000000000000000000000081526004016132da9190613722565b60405180910390fd5b5f6132ef83835f6123c9565b90505f73ffffffffffffffffffffffffffffffffffffffff168173ffffffffffffffffffffffffffffffffffffffff1614613361575f6040517f73c6ac6e0000000000000000000000000000000000000000000000000000000081526004016133589190613722565b60405180910390fd5b505050565b5f8073ffffffffffffffffffffffffffffffffffffffff168373ffffffffffffffffffffffffffffffffffffffff161415801561341d57508273ffffffffffffffffffffffffffffffffffffffff168473ffffffffffffffffffffffffffffffffffffffff1614806133de57506133dd848461200e565b5b8061341c57508273ffffffffffffffffffffffffffffffffffffffff166134048361220f565b73ffffffffffffffffffffffffffffffffffffffff16145b5b90509392505050565b5f604051905090565b5f80fd5b5f80fd5b5f7fffffffff0000000000000000000000000000000000000000000000000000000082169050919050565b61346b81613437565b8114613475575f80fd5b50565b5f8135905061348681613462565b92915050565b5f602082840312156134a1576134a061342f565b5b5f6134ae84828501613478565b91505092915050565b5f8115159050919050565b6134cb816134b7565b82525050565b5f6020820190506134e45f8301846134c2565b92915050565b5f81519050919050565b5f82825260208201905092915050565b8281835e5f83830152505050565b5f601f19601f8301169050919050565b5f61352c826134ea565b61353681856134f4565b9350613546818560208601613504565b61354f81613512565b840191505092915050565b5f6020820190508181035f8301526135728184613522565b905092915050565b5f819050919050565b61358c8161357a565b8114613596575f80fd5b50565b5f813590506135a781613583565b92915050565b5f73ffffffffffffffffffffffffffffffffffffffff82169050919050565b5f6135d6826135ad565b9050919050565b6135e6816135cc565b81146135f0575f80fd5b50565b5f81359050613601816135dd565b92915050565b5f80fd5b5f606082840312156136205761361f613607565b5b81905092915050565b5f819050919050565b61363b81613629565b8114613645575f80fd5b50565b5f8135905061365681613632565b92915050565b5f805f805f8061014087890312156136775761367661342f565b5b5f61368489828a01613599565b965050602061369589828a016135f3565b95505060406136a689828a0161360b565b94505060a06136b789828a0161360b565b9350506101006136c989828a01613599565b9250506101206136db89828a01613648565b9150509295509295509295565b5f602082840312156136fd576136fc61342f565b5b5f61370a84828501613599565b91505092915050565b61371c816135cc565b82525050565b5f6020820190506137355f830184613713565b92915050565b5f80604083850312156137515761375061342f565b5b5f61375e858286016135f3565b925050602061376f85828601613599565b9150509250929050565b6137828161357a565b82525050565b5f60208201905061379b5f830184613779565b92915050565b5f805f606084860312156137b8576137b761342f565b5b5f6137c586828701613599565b93505060206137d686828701613599565b92505060406137e786828701613599565b9150509250925092565b5f80608083850312156138075761380661342f565b5b5f61381485828601613599565b92505060206138258582860161360b565b9150509250929050565b5f805f606084860312156138465761384561342f565b5b5f613853868287016135f3565b9350506020613864868287016135f3565b925050604061387586828701613599565b9150509250925092565b5f819050919050565b5f6138a261389d613898846135ad565b61387f565b6135ad565b9050919050565b5f6138b382613888565b9050919050565b5f6138c4826138a9565b9050919050565b6138d4816138ba565b82525050565b5f6020820190506138ed5f8301846138cb565b92915050565b5f606082840312156139085761390761342f565b5b5f6139158482850161360b565b91505092915050565b5f805f60a084860312156139355761393461342f565b5b5f61394286828701613599565b93505060206139538682870161360b565b925050608061396486828701613648565b9150509250925092565b5f602082840312156139835761398261342f565b5b5f613990848285016135f3565b91505092915050565b5f80604083850312156139af576139ae61342f565b5b5f6139bc85828601613599565b92505060206139cd85828601613599565b9150509250929050565b6139e0816134b7565b81146139ea575f80fd5b50565b5f813590506139fb816139d7565b92915050565b5f8060408385031215613a1757613a1661342f565b5b5f613a24858286016135f3565b9250506020613a35858286016139ed565b9150509250929050565b5f80fd5b5f80fd5b7f4e487b71000000000000000000000000000000000000000000000000000000005f52604160045260245ffd5b613a7d82613512565b810181811067ffffffffffffffff82111715613a9c57613a9b613a47565b5b80604052505050565b5f613aae613426565b9050613aba8282613a74565b919050565b5f67ffffffffffffffff821115613ad957613ad8613a47565b5b613ae282613512565b9050602081019050919050565b828183375f83830152505050565b5f613b0f613b0a84613abf565b613aa5565b905082815260208101848484011115613b2b57613b2a613a43565b5b613b36848285613aef565b509392505050565b5f82601f830112613b5257613b51613a3f565b5b8135613b62848260208601613afd565b91505092915050565b5f805f8060808587031215613b8357613b8261342f565b5b5f613b90878288016135f3565b9450506020613ba1878288016135f3565b9350506040613bb287828801613599565b925050606085013567ffffffffffffffff811115613bd357613bd2613433565b5b613bdf87828801613b3e565b91505092959194509250565b5f8160070b9050919050565b613c0081613beb565b82525050565b5f67ffffffffffffffff82169050919050565b613c2281613c06565b82525050565b606082015f820151613c3c5f850182613bf7565b506020820151613c4f6020850182613bf7565b506040820151613c626040850182613c19565b50505050565b613c7181613629565b82525050565b5f6101a082019050613c8b5f83018c613c28565b613c98606083018b613c28565b613ca560c083018a613779565b613cb260e0830189613779565b613cc0610100830188613779565b613cce610120830187613713565b613cdc6101408301866134c2565b613cea610160830185613c68565b613cf8610180830184613779565b9a9950505050505050505050565b5f613d10826138a9565b9050919050565b613d2081613d06565b82525050565b5f602082019050613d395f830184613d17565b92915050565b5f8060408385031215613d5557613d5461342f565b5b5f613d62858286016135f3565b9250506020613d73858286016135f3565b9150509250929050565b7f4e487b71000000000000000000000000000000000000000000000000000000005f52602260045260245ffd5b5f6002820490506001821680613dc157607f821691505b602082108103613dd457613dd3613d7d565b5b50919050565b7f5369676e734e46543a206e6f7420696d706c656d656e746564000000000000005f82015250565b5f613e0e6019836134f4565b9150613e1982613dda565b602082019050919050565b5f6020820190508181035f830152613e3b81613e02565b9050919050565b7f5369676e733a2064697265637420617070726f76616c206e6f7420616c6c6f775f8201527f6564000000000000000000000000000000000000000000000000000000000000602082015250565b5f613e9c6022836134f4565b9150613ea782613e42565b604082019050919050565b5f6020820190508181035f830152613ec981613e90565b9050919050565b7f496e76616c69642064697669736f7273000000000000000000000000000000005f82015250565b5f613f046010836134f4565b9150613f0f82613ed0565b602082019050919050565b5f6020820190508181035f830152613f3181613ef8565b9050919050565b5f606082019050613f4b5f830186613779565b613f586020830185613779565b613f656040830184613779565b949350505050565b5f80fd5b613f7a81613beb565b8114613f84575f80fd5b50565b5f81359050613f9581613f71565b92915050565b613fa481613c06565b8114613fae575f80fd5b50565b5f81359050613fbf81613f9b565b92915050565b5f60608284031215613fda57613fd9613f6d565b5b613fe46060613aa5565b90505f613ff384828501613f87565b5f83015250602061400684828501613f87565b602083015250604061401a84828501613fb1565b60408301525092915050565b5f6060828403121561403b5761403a61342f565b5b5f61404884828501613fc5565b91505092915050565b5f813561405d81613f71565b80915050919050565b5f815f1b9050919050565b5f67ffffffffffffffff61408484614066565b9350801983169250808416831791505092915050565b5f6140b46140af6140aa84613beb565b61387f565b613beb565b9050919050565b5f819050919050565b6140cd8261409a565b6140e06140d9826140bb565b8354614071565b8255505050565b5f8160401b9050919050565b5f6fffffffffffffffff000000000000000061410e846140e7565b9350801983169250808416831791505092915050565b61412d8261409a565b614140614139826140bb565b83546140f3565b8255505050565b5f813561415381613f9b565b80915050919050565b5f8160801b9050919050565b5f77ffffffffffffffff0000000000000000000000000000000061418b8461415c565b9350801983169250808416831791505092915050565b5f6141bb6141b66141b184613c06565b61387f565b613c06565b9050919050565b5f819050919050565b6141d4826141a1565b6141e76141e0826141c2565b8354614168565b8255505050565b5f81015f8301806141fe81614051565b905061420a81846140c4565b5050505f8101602083018061421e81614051565b905061422a8184614124565b5050505f8101604083018061423e81614147565b905061424a81846141cb565b5050505050565b61425b82826141ee565b5050565b5f61426d6020840184613f87565b905092915050565b5f6142836020840184613fb1565b905092915050565b6060820161429b5f83018361425f565b6142a75f850182613bf7565b506142b5602083018361425f565b6142c26020850182613bf7565b506142d06040830183614275565b6142dd6040850182613c19565b50505050565b5f6060820190506142f65f83018461428b565b92915050565b5f60608201905061430f5f830186613713565b61431c6020830185613779565b6143296040830184613713565b949350505050565b7f4e487b71000000000000000000000000000000000000000000000000000000005f52601160045260245ffd5b5f6143688261357a565b91507fffffffffffffffffffffffffffffffffffffffffffffffffffffffffffffffff820361439a57614399614331565b5b600182019050919050565b5f6143af8261357a565b91506143ba8361357a565b92508282019050808211156143d2576143d1614331565b5b92915050565b5f6060820190506143eb5f830186613779565b6143f86020830185613713565b6144056040830184613779565b949350505050565b5f8151905061441b81613583565b92915050565b5f8151905061442f816139d7565b92915050565b5f6060828403121561444a57614449613f6d565b5b6144546060613aa5565b90505f6144638482850161440d565b5f8301525060206144768482850161440d565b602083015250604061448a84828501614421565b60408301525092915050565b5f606082840312156144ab576144aa61342f565b5b5f6144b884828501614435565b91505092915050565b5f610140820190506144d55f830189613779565b6144e26020830188613713565b6144ef6040830187613c28565b6144fc60a083018661428b565b61450a610100830185613779565b614518610120830184613c68565b979650505050505050565b5f60c0820190506145365f830185613c28565b614543606083018461428b565b9392505050565b5f60208201905061455d5f830184613c68565b92915050565b5f6060820190506145765f830186613779565b6145836020830185613779565b61459060408301846134c2565b949350505050565b7f5369676e733a20617070726f76616c20666f7220616c6c206e6f7420616c6c6f5f8201527f7765640000000000000000000000000000000000000000000000000000000000602082015250565b5f6145f26023836134f4565b91506145fd82614598565b604082019050919050565b5f6020820190508181035f83015261461f816145e6565b9050919050565b5f81905092915050565b5f61463a826134ea565b6146448185614626565b9350614654818560208601613504565b80840191505092915050565b5f61466b8285614630565b91506146778284614630565b91508190509392505050565b7f5061757361626c653a20706175736564000000000000000000000000000000005f82015250565b5f6146b76010836134f4565b91506146c282614683565b602082019050919050565b5f6020820190508181035f8301526146e4816146ab565b9050919050565b7f5369676e2069732063757272656e746c79207069636b656420757000000000005f82015250565b5f61471f601b836134f4565b915061472a826146eb565b602082019050919050565b5f6020820190508181035f83015261474c81614713565b9050919050565b5f61475d82613beb565b915061476883613beb565b92508282039050677fffffffffffffff81137fffffffffffffffffffffffffffffffffffffffffffffffff8000000000000000821217156147ac576147ab614331565b5b92915050565b5f6147bc82613beb565b91507fffffffffffffffffffffffffffffffffffffffffffffffff800000000000000082036147ee576147ed614331565b5b815f039050919050565b5f6148028261357a565b915061480d8361357a565b925082820261481b8161357a565b9150828204841483151761483257614831614331565b5b5092915050565b7f4e487b71000000000000000000000000000000000000000000000000000000005f52601260045260245ffd5b5f6148708261357a565b915061487b8361357a565b92508261488b5761488a614839565b5b828204905092915050565b5f81519050919050565b5f82825260208201905092915050565b5f6148ba82614896565b6148c481856148a0565b93506148d4818560208601613504565b6148dd81613512565b840191505092915050565b5f6080820190506148fb5f830187613713565b6149086020830186613713565b6149156040830185613779565b818103606083015261492781846148b0565b905095945050505050565b5f8151905061494081613462565b92915050565b5f6020828403121561495b5761495a61342f565b5b5f61496884828501614932565b91505092915050565b7f5061757361626c653a206e6f74207061757365640000000000000000000000005f82015250565b5f6149a56014836134f4565b91506149b082614971565b602082019050919050565b5f6020820190508181035f8301526149d281614999565b9050919050565b5f6040820190506149ec5f830185613713565b6149f96020830184613779565b939250505056fea2646970667358221220e09738f5f1d02191d6ca9400cf626ad7fce33429b0de2c7e79c6a7a6c5cdeeb164736f6c634300081a0033",
			"opcodes": "PUSH1 0x80 PUSH1 0x40 MSTORE PUSH1 0x1 PUSH1 0xB SSTORE PUSH1 0xA PUSH1 0xE SSTORE PUSH1 0xA PUSH1 0xF SSTORE PUSH2 0x2710 PUSH1 0x10 SSTORE CALLVALUE DUP1 ISZERO PUSH2 0x24 JUMPI PUSH0 DUP1 REVERT JUMPDEST POP CALLER PUSH1 0x40 MLOAD DUP1 PUSH1 0x40 ADD PUSH1 0x40 MSTORE DUP1 PUSH1 0xE DUP2 MSTORE PUSH1 0x20 ADD PUSH32 0x5369676E732047616D65204E4654000000000000000000000000000000000000 DUP2 MSTORE POP PUSH1 0x40 MLOAD DUP1 PUSH1 0x40 ADD PUSH1 0x40 MSTORE DUP1 PUSH1 0x4 DUP2 MSTORE PUSH1 0x20 ADD PUSH32 0x5349474E00000000000000000000000000000000000000000000000000000000 DUP2 MSTORE POP DUP2 PUSH0 SWAP1 DUP2 PUSH2 0xA0 SWAP2 SWAP1 PUSH2 0x44F JUMP JUMPDEST POP DUP1 PUSH1 0x1 SWAP1 DUP2 PUSH2 0xB0 SWAP2 SWAP1 PUSH2 0x44F JUMP JUMPDEST POP POP POP PUSH0 PUSH20 0xFFFFFFFFFFFFFFFFFFFFFFFFFFFFFFFFFFFFFFFF AND DUP2 PUSH20 0xFFFFFFFFFFFFFFFFFFFFFFFFFFFFFFFFFFFFFFFF AND SUB PUSH2 0x123 JUMPI PUSH0 PUSH1 0x40 MLOAD PUSH32 0x1E4FBDF700000000000000000000000000000000000000000000000000000000 DUP2 MSTORE PUSH1 0x4 ADD PUSH2 0x11A SWAP2 SWAP1 PUSH2 0x55D JUMP JUMPDEST PUSH1 0x40 MLOAD DUP1 SWAP2 SUB SWAP1 REVERT JUMPDEST PUSH2 0x132 DUP2 PUSH2 0x152 PUSH1 0x20 SHL PUSH1 0x20 SHR JUMP JUMPDEST POP PUSH0 PUSH1 0x6 PUSH1 0x14 PUSH2 0x100 EXP DUP2 SLOAD DUP2 PUSH1 0xFF MUL NOT AND SWAP1 DUP4 ISZERO ISZERO MUL OR SWAP1 SSTORE POP PUSH2 0x576 JUMP JUMPDEST PUSH0 PUSH1 0x6 PUSH0 SWAP1 SLOAD SWAP1 PUSH2 0x100 EXP SWAP1 DIV PUSH20 0xFFFFFFFFFFFFFFFFFFFFFFFFFFFFFFFFFFFFFFFF AND SWAP1 POP DUP2 PUSH1 0x6 PUSH0 PUSH2 0x100 EXP DUP2 SLOAD DUP2 PUSH20 0xFFFFFFFFFFFFFFFFFFFFFFFFFFFFFFFFFFFFFFFF MUL NOT AND SWAP1 DUP4 PUSH20 0xFFFFFFFFFFFFFFFFFFFFFFFFFFFFFFFFFFFFFFFF AND MUL OR SWAP1 SSTORE POP DUP2 PUSH20 0xFFFFFFFFFFFFFFFFFFFFFFFFFFFFFFFFFFFFFFFF AND DUP2 PUSH20 0xFFFFFFFFFFFFFFFFFFFFFFFFFFFFFFFFFFFFFFFF AND PUSH32 0x8BE0079C531659141344CD1FD0A4F28419497F9722A3DAAFE3B4186F6B6457E0 PUSH1 0x40 MLOAD PUSH1 0x40 MLOAD DUP1 SWAP2 SUB SWAP1 LOG3 POP POP JUMP JUMPDEST PUSH0 DUP2 MLOAD SWAP1 POP SWAP2 SWAP1 POP JUMP JUMPDEST PUSH32 0x4E487B7100000000000000000000000000000000000000000000000000000000 PUSH0 MSTORE PUSH1 0x41 PUSH1 0x4 MSTORE PUSH1 0x24 PUSH0 REVERT JUMPDEST PUSH32 0x4E487B7100000000000000000000000000000000000000000000000000000000 PUSH0 MSTORE PUSH1 0x22 PUSH1 0x4 MSTORE PUSH1 0x24 PUSH0 REVERT JUMPDEST PUSH0 PUSH1 0x2 DUP3 DIV SWAP1 POP PUSH1 0x1 DUP3 AND DUP1 PUSH2 0x290 JUMPI PUSH1 0x7F DUP3 AND SWAP2 POP JUMPDEST PUSH1 0x20 DUP3 LT DUP2 SUB PUSH2 0x2A3 JUMPI PUSH2 0x2A2 PUSH2 0x24C JUMP JUMPDEST JUMPDEST POP SWAP2 SWAP1 POP JUMP JUMPDEST PUSH0 DUP2 SWAP1 POP DUP2 PUSH0 MSTORE PUSH1 0x20 PUSH0 KECCAK256 SWAP1 POP SWAP2 SWAP1 POP JUMP JUMPDEST PUSH0 PUSH1 0x20 PUSH1 0x1F DUP4 ADD DIV SWAP1 POP SWAP2 SWAP1 POP JUMP JUMPDEST PUSH0 DUP3 DUP3 SHL SWAP1 POP SWAP3 SWAP2 POP POP JUMP JUMPDEST PUSH0 PUSH1 0x8 DUP4 MUL PUSH2 0x305 PUSH32 0xFFFFFFFFFFFFFFFFFFFFFFFFFFFFFFFFFFFFFFFFFFFFFFFFFFFFFFFFFFFFFFFF DUP3 PUSH2 0x2CA JUMP JUMPDEST PUSH2 0x30F DUP7 DUP4 PUSH2 0x2CA JUMP JUMPDEST SWAP6 POP DUP1 NOT DUP5 AND SWAP4 POP DUP1 DUP7 AND DUP5 OR SWAP3 POP POP POP SWAP4 SWAP3 POP POP POP JUMP JUMPDEST PUSH0 DUP2 SWAP1 POP SWAP2 SWAP1 POP JUMP JUMPDEST PUSH0 DUP2 SWAP1 POP SWAP2 SWAP1 POP JUMP JUMPDEST PUSH0 PUSH2 0x353 PUSH2 0x34E PUSH2 0x349 DUP5 PUSH2 0x327 JUMP JUMPDEST PUSH2 0x330 JUMP JUMPDEST PUSH2 0x327 JUMP JUMPDEST SWAP1 POP SWAP2 SWAP1 POP JUMP JUMPDEST PUSH0 DUP2 SWAP1 POP SWAP2 SWAP1 POP JUMP JUMPDEST PUSH2 0x36C DUP4 PUSH2 0x339 JUMP JUMPDEST PUSH2 0x380 PUSH2 0x378 DUP3 PUSH2 0x35A JUMP JUMPDEST DUP5 DUP5 SLOAD PUSH2 0x2D6 JUMP JUMPDEST DUP3 SSTORE POP POP POP POP JUMP JUMPDEST PUSH0 SWAP1 JUMP JUMPDEST PUSH2 0x394 PUSH2 0x388 JUMP JUMPDEST PUSH2 0x39F DUP2 DUP5 DUP5 PUSH2 0x363 JUMP JUMPDEST POP POP POP JUMP JUMPDEST JUMPDEST DUP2 DUP2 LT ISZERO PUSH2 0x3C2 JUMPI PUSH2 0x3B7 PUSH0 DUP3 PUSH2 0x38C JUMP JUMPDEST PUSH1 0x1 DUP2 ADD SWAP1 POP PUSH2 0x3A5 JUMP JUMPDEST POP POP JUMP JUMPDEST PUSH1 0x1F DUP3 GT ISZERO PUSH2 0x407 JUMPI PUSH2 0x3D8 DUP2 PUSH2 0x2A9 JUMP JUMPDEST PUSH2 0x3E1 DUP5 PUSH2 0x2BB JUMP JUMPDEST DUP2 ADD PUSH1 0x20 DUP6 LT ISZERO PUSH2 0x3F0 JUMPI DUP2 SWAP1 POP JUMPDEST PUSH2 0x404 PUSH2 0x3FC DUP6 PUSH2 0x2BB JUMP JUMPDEST DUP4 ADD DUP3 PUSH2 0x3A4 JUMP JUMPDEST POP POP JUMPDEST POP POP POP JUMP JUMPDEST PUSH0 DUP3 DUP3 SHR SWAP1 POP SWAP3 SWAP2 POP POP JUMP JUMPDEST PUSH0 PUSH2 0x427 PUSH0 NOT DUP5 PUSH1 0x8 MUL PUSH2 0x40C JUMP JUMPDEST NOT DUP1 DUP4 AND SWAP2 POP POP SWAP3 SWAP2 POP POP JUMP JUMPDEST PUSH0 PUSH2 0x43F DUP4 DUP4 PUSH2 0x418 JUMP JUMPDEST SWAP2 POP DUP3 PUSH1 0x2 MUL DUP3 OR SWAP1 POP SWAP3 SWAP2 POP POP JUMP JUMPDEST PUSH2 0x458 DUP3 PUSH2 0x215 JUMP JUMPDEST PUSH8 0xFFFFFFFFFFFFFFFF DUP2 GT ISZERO PUSH2 0x471 JUMPI PUSH2 0x470 PUSH2 0x21F JUMP JUMPDEST JUMPDEST PUSH2 0x47B DUP3 SLOAD PUSH2 0x279 JUMP JUMPDEST PUSH2 0x486 DUP3 DUP3 DUP6 PUSH2 0x3C6 JUMP JUMPDEST PUSH0 PUSH1 0x20 SWAP1 POP PUSH1 0x1F DUP4 GT PUSH1 0x1 DUP2 EQ PUSH2 0x4B7 JUMPI PUSH0 DUP5 ISZERO PUSH2 0x4A5 JUMPI DUP3 DUP8 ADD MLOAD SWAP1 POP JUMPDEST PUSH2 0x4AF DUP6 DUP3 PUSH2 0x434 JUMP JUMPDEST DUP7 SSTORE POP PUSH2 0x516 JUMP JUMPDEST PUSH1 0x1F NOT DUP5 AND PUSH2 0x4C5 DUP7 PUSH2 0x2A9 JUMP JUMPDEST PUSH0 JUMPDEST DUP3 DUP2 LT ISZERO PUSH2 0x4EC JUMPI DUP5 DUP10 ADD MLOAD DUP3 SSTORE PUSH1 0x1 DUP3 ADD SWAP2 POP PUSH1 0x20 DUP6 ADD SWAP5 POP PUSH1 0x20 DUP2 ADD SWAP1 POP PUSH2 0x4C7 JUMP JUMPDEST DUP7 DUP4 LT ISZERO PUSH2 0x509 JUMPI DUP5 DUP10 ADD MLOAD PUSH2 0x505 PUSH1 0x1F DUP10 AND DUP3 PUSH2 0x418 JUMP JUMPDEST DUP4 SSTORE POP JUMPDEST PUSH1 0x1 PUSH1 0x2 DUP9 MUL ADD DUP9 SSTORE POP POP POP JUMPDEST POP POP POP POP POP POP JUMP JUMPDEST PUSH0 PUSH20 0xFFFFFFFFFFFFFFFFFFFFFFFFFFFFFFFFFFFFFFFF DUP3 AND SWAP1 POP SWAP2 SWAP1 POP JUMP JUMPDEST PUSH0 PUSH2 0x547 DUP3 PUSH2 0x51E JUMP JUMPDEST SWAP1 POP SWAP2 SWAP1 POP JUMP JUMPDEST PUSH2 0x557 DUP2 PUSH2 0x53D JUMP JUMPDEST DUP3 MSTORE POP POP JUMP JUMPDEST PUSH0 PUSH1 0x20 DUP3 ADD SWAP1 POP PUSH2 0x570 PUSH0 DUP4 ADD DUP5 PUSH2 0x54E JUMP JUMPDEST SWAP3 SWAP2 POP POP JUMP JUMPDEST PUSH2 0x4A36 DUP1 PUSH2 0x583 PUSH0 CODECOPY PUSH0 RETURN INVALID PUSH1 0x80 PUSH1 0x40 MSTORE CALLVALUE DUP1 ISZERO PUSH2 0xF JUMPI PUSH0 DUP1 REVERT JUMPDEST POP PUSH1 0x4 CALLDATASIZE LT PUSH2 0x246 JUMPI PUSH0 CALLDATALOAD PUSH1 0xE0 SHR DUP1 PUSH4 0x835BBBB2 GT PUSH2 0x139 JUMPI DUP1 PUSH4 0xB88BA0FD GT PUSH2 0xB6 JUMPI DUP1 PUSH4 0xCB75B997 GT PUSH2 0x7A JUMPI DUP1 PUSH4 0xCB75B997 EQ PUSH2 0x69E JUMPI DUP1 PUSH4 0xD1768B13 EQ PUSH2 0x6D6 JUMPI DUP1 PUSH4 0xE29F5A07 EQ PUSH2 0x6F2 JUMPI DUP1 PUSH4 0xE985E9C5 EQ PUSH2 0x710 JUMPI DUP1 PUSH4 0xF2FDE38B EQ PUSH2 0x740 JUMPI PUSH2 0x246 JUMP JUMPDEST DUP1 PUSH4 0xB88BA0FD EQ PUSH2 0x5FA JUMPI DUP1 PUSH4 0xB88D4FDE EQ PUSH2 0x618 JUMPI DUP1 PUSH4 0xC159C454 EQ PUSH2 0x634 JUMPI DUP1 PUSH4 0xC87B56DD EQ PUSH2 0x652 JUMPI DUP1 PUSH4 0xC90BC6AB EQ PUSH2 0x682 JUMPI PUSH2 0x246 JUMP JUMPDEST DUP1 PUSH4 0x8DA5CB5B GT PUSH2 0xFD JUMPI DUP1 PUSH4 0x8DA5CB5B EQ PUSH2 0x56A JUMPI DUP1 PUSH4 0x95D89B41 EQ PUSH2 0x588 JUMPI DUP1 PUSH4 0x9FF42522 EQ PUSH2 0x5A6 JUMPI DUP1 PUSH4 0xA22CB465 EQ PUSH2 0x5C2 JUMPI DUP1 PUSH4 0xACC1C1A0 EQ PUSH2 0x5DE JUMPI PUSH2 0x246 JUMP JUMPDEST DUP1 PUSH4 0x835BBBB2 EQ PUSH2 0x4C6 JUMPI DUP1 PUSH4 0x83C30FAA EQ PUSH2 0x4E4 JUMPI DUP1 PUSH4 0x8456CB59 EQ PUSH2 0x500 JUMPI DUP1 PUSH4 0x8535AB52 EQ PUSH2 0x50A JUMPI DUP1 PUSH4 0x8CA138A0 EQ PUSH2 0x53A JUMPI PUSH2 0x246 JUMP JUMPDEST DUP1 PUSH4 0x42842E0E GT PUSH2 0x1C7 JUMPI DUP1 PUSH4 0x6352211E GT PUSH2 0x18B JUMPI DUP1 PUSH4 0x6352211E EQ PUSH2 0x420 JUMPI DUP1 PUSH4 0x706D4283 EQ PUSH2 0x450 JUMPI DUP1 PUSH4 0x70A08231 EQ PUSH2 0x46E JUMPI DUP1 PUSH4 0x715018A6 EQ PUSH2 0x49E JUMPI DUP1 PUSH4 0x780F14F8 EQ PUSH2 0x4A8 JUMPI PUSH2 0x246 JUMP JUMPDEST DUP1 PUSH4 0x42842E0E EQ PUSH2 0x37C JUMPI DUP1 PUSH4 0x458DE778 EQ PUSH2 0x398 JUMPI DUP1 PUSH4 0x526B444E EQ PUSH2 0x3B6 JUMPI DUP1 PUSH4 0x5C975ABB EQ PUSH2 0x3E6 JUMPI DUP1 PUSH4 0x5F87A13F EQ PUSH2 0x404 JUMPI PUSH2 0x246 JUMP JUMPDEST DUP1 PUSH4 0xD64C089 GT PUSH2 0x20E JUMPI DUP1 PUSH4 0xD64C089 EQ PUSH2 0x300 JUMPI DUP1 PUSH4 0x20FE5A10 EQ PUSH2 0x31E JUMPI DUP1 PUSH4 0x21DD4D27 EQ PUSH2 0x33A JUMPI DUP1 PUSH4 0x23B872DD EQ PUSH2 0x356 JUMPI DUP1 PUSH4 0x3F4BA83A EQ PUSH2 0x372 JUMPI PUSH2 0x246 JUMP JUMPDEST DUP1 PUSH4 0x1FFC9A7 EQ PUSH2 0x24A JUMPI DUP1 PUSH4 0x6FDDE03 EQ PUSH2 0x27A JUMPI DUP1 PUSH4 0x80807BE EQ PUSH2 0x298 JUMPI DUP1 PUSH4 0x81812FC EQ PUSH2 0x2B4 JUMPI DUP1 PUSH4 0x95EA7B3 EQ PUSH2 0x2E4 JUMPI JUMPDEST PUSH0 DUP1 REVERT JUMPDEST PUSH2 0x264 PUSH1 0x4 DUP1 CALLDATASIZE SUB DUP2 ADD SWAP1 PUSH2 0x25F SWAP2 SWAP1 PUSH2 0x348C JUMP JUMPDEST PUSH2 0x75C JUMP JUMPDEST PUSH1 0x40 MLOAD PUSH2 0x271 SWAP2 SWAP1 PUSH2 0x34D1 JUMP JUMPDEST PUSH1 0x40 MLOAD DUP1 SWAP2 SUB SWAP1 RETURN JUMPDEST PUSH2 0x282 PUSH2 0x83D JUMP JUMPDEST PUSH1 0x40 MLOAD PUSH2 0x28F SWAP2 SWAP1 PUSH2 0x355A JUMP JUMPDEST PUSH1 0x40 MLOAD DUP1 SWAP2 SUB SWAP1 RETURN JUMPDEST PUSH2 0x2B2 PUSH1 0x4 DUP1 CALLDATASIZE SUB DUP2 ADD SWAP1 PUSH2 0x2AD SWAP2 SWAP1 PUSH2 0x365C JUMP JUMPDEST PUSH2 0x8CC JUMP JUMPDEST STOP JUMPDEST PUSH2 0x2CE PUSH1 0x4 DUP1 CALLDATASIZE SUB DUP2 ADD SWAP1 PUSH2 0x2C9 SWAP2 SWAP1 PUSH2 0x36E8 JUMP JUMPDEST PUSH2 0x907 JUMP JUMPDEST PUSH1 0x40 MLOAD PUSH2 0x2DB SWAP2 SWAP1 PUSH2 0x3722 JUMP JUMPDEST PUSH1 0x40 MLOAD DUP1 SWAP2 SUB SWAP1 RETURN JUMPDEST PUSH2 0x2FE PUSH1 0x4 DUP1 CALLDATASIZE SUB DUP2 ADD SWAP1 PUSH2 0x2F9 SWAP2 SWAP1 PUSH2 0x373B JUMP JUMPDEST PUSH2 0x922 JUMP JUMPDEST STOP JUMPDEST PUSH2 0x308 PUSH2 0x95D JUMP JUMPDEST PUSH1 0x40 MLOAD PUSH2 0x315 SWAP2 SWAP1 PUSH2 0x3788 JUMP JUMPDEST PUSH1 0x40 MLOAD DUP1 SWAP2 SUB SWAP1 RETURN JUMPDEST PUSH2 0x338 PUSH1 0x4 DUP1 CALLDATASIZE SUB DUP2 ADD SWAP1 PUSH2 0x333 SWAP2 SWAP1 PUSH2 0x37A1 JUMP JUMPDEST PUSH2 0x963 JUMP JUMPDEST STOP JUMPDEST PUSH2 0x354 PUSH1 0x4 DUP1 CALLDATASIZE SUB DUP2 ADD SWAP1 PUSH2 0x34F SWAP2 SWAP1 PUSH2 0x37F1 JUMP JUMPDEST PUSH2 0xA0D JUMP JUMPDEST STOP JUMPDEST PUSH2 0x370 PUSH1 0x4 DUP1 CALLDATASIZE SUB DUP2 ADD SWAP1 PUSH2 0x36B SWAP2 SWAP1 PUSH2 0x382F JUMP JUMPDEST PUSH2 0xBD8 JUMP JUMPDEST STOP JUMPDEST PUSH2 0x37A PUSH2 0xCD7 JUMP JUMPDEST STOP JUMPDEST PUSH2 0x396 PUSH1 0x4 DUP1 CALLDATASIZE SUB DUP2 ADD SWAP1 PUSH2 0x391 SWAP2 SWAP1 PUSH2 0x382F JUMP JUMPDEST PUSH2 0xCE9 JUMP JUMPDEST STOP JUMPDEST PUSH2 0x3A0 PUSH2 0xD08 JUMP JUMPDEST PUSH1 0x40 MLOAD PUSH2 0x3AD SWAP2 SWAP1 PUSH2 0x38DA JUMP JUMPDEST PUSH1 0x40 MLOAD DUP1 SWAP2 SUB SWAP1 RETURN JUMPDEST PUSH2 0x3D0 PUSH1 0x4 DUP1 CALLDATASIZE SUB DUP2 ADD SWAP1 PUSH2 0x3CB SWAP2 SWAP1 PUSH2 0x38F3 JUMP JUMPDEST PUSH2 0xD2D JUMP JUMPDEST PUSH1 0x40 MLOAD PUSH2 0x3DD SWAP2 SWAP1 PUSH2 0x3788 JUMP JUMPDEST PUSH1 0x40 MLOAD DUP1 SWAP2 SUB SWAP1 RETURN JUMPDEST PUSH2 0x3EE PUSH2 0xF7E JUMP JUMPDEST PUSH1 0x40 MLOAD PUSH2 0x3FB SWAP2 SWAP1 PUSH2 0x34D1 JUMP JUMPDEST PUSH1 0x40 MLOAD DUP1 SWAP2 SUB SWAP1 RETURN JUMPDEST PUSH2 0x41E PUSH1 0x4 DUP1 CALLDATASIZE SUB DUP2 ADD SWAP1 PUSH2 0x419 SWAP2 SWAP1 PUSH2 0x391E JUMP JUMPDEST PUSH2 0xF94 JUMP JUMPDEST STOP JUMPDEST PUSH2 0x43A PUSH1 0x4 DUP1 CALLDATASIZE SUB DUP2 ADD SWAP1 PUSH2 0x435 SWAP2 SWAP1 PUSH2 0x36E8 JUMP JUMPDEST PUSH2 0x1654 JUMP JUMPDEST PUSH1 0x40 MLOAD PUSH2 0x447 SWAP2 SWAP1 PUSH2 0x3722 JUMP JUMPDEST PUSH1 0x40 MLOAD DUP1 SWAP2 SUB SWAP1 RETURN JUMPDEST PUSH2 0x458 PUSH2 0x1665 JUMP JUMPDEST PUSH1 0x40 MLOAD PUSH2 0x465 SWAP2 SWAP1 PUSH2 0x3788 JUMP JUMPDEST PUSH1 0x40 MLOAD DUP1 SWAP2 SUB SWAP1 RETURN JUMPDEST PUSH2 0x488 PUSH1 0x4 DUP1 CALLDATASIZE SUB DUP2 ADD SWAP1 PUSH2 0x483 SWAP2 SWAP1 PUSH2 0x396E JUMP JUMPDEST PUSH2 0x166B JUMP JUMPDEST PUSH1 0x40 MLOAD PUSH2 0x495 SWAP2 SWAP1 PUSH2 0x3788 JUMP JUMPDEST PUSH1 0x40 MLOAD DUP1 SWAP2 SUB SWAP1 RETURN JUMPDEST PUSH2 0x4A6 PUSH2 0x1721 JUMP JUMPDEST STOP JUMPDEST PUSH2 0x4B0 PUSH2 0x1734 JUMP JUMPDEST PUSH1 0x40 MLOAD PUSH2 0x4BD SWAP2 SWAP1 PUSH2 0x3788 JUMP JUMPDEST PUSH1 0x40 MLOAD DUP1 SWAP2 SUB SWAP1 RETURN JUMPDEST PUSH2 0x4CE PUSH2 0x173A JUMP JUMPDEST PUSH1 0x40 MLOAD PUSH2 0x4DB SWAP2 SWAP1 PUSH2 0x3788 JUMP JUMPDEST PUSH1 0x40 MLOAD DUP1 SWAP2 SUB SWAP1 RETURN JUMPDEST PUSH2 0x4FE PUSH1 0x4 DUP1 CALLDATASIZE SUB DUP2 ADD SWAP1 PUSH2 0x4F9 SWAP2 SWAP1 PUSH2 0x396E JUMP JUMPDEST PUSH2 0x173F JUMP JUMPDEST STOP JUMPDEST PUSH2 0x508 PUSH2 0x178A JUMP JUMPDEST STOP JUMPDEST PUSH2 0x524 PUSH1 0x4 DUP1 CALLDATASIZE SUB DUP2 ADD SWAP1 PUSH2 0x51F SWAP2 SWAP1 PUSH2 0x396E JUMP JUMPDEST PUSH2 0x179C JUMP JUMPDEST PUSH1 0x40 MLOAD PUSH2 0x531 SWAP2 SWAP1 PUSH2 0x3788 JUMP JUMPDEST PUSH1 0x40 MLOAD DUP1 SWAP2 SUB SWAP1 RETURN JUMPDEST PUSH2 0x554 PUSH1 0x4 DUP1 CALLDATASIZE SUB DUP2 ADD SWAP1 PUSH2 0x54F SWAP2 SWAP1 PUSH2 0x36E8 JUMP JUMPDEST PUSH2 0x17B1 JUMP JUMPDEST PUSH1 0x40 MLOAD PUSH2 0x561 SWAP2 SWAP1 PUSH2 0x3722 JUMP JUMPDEST PUSH1 0x40 MLOAD DUP1 SWAP2 SUB SWAP1 RETURN JUMPDEST PUSH2 0x572 PUSH2 0x17E1 JUMP JUMPDEST PUSH1 0x40 MLOAD PUSH2 0x57F SWAP2 SWAP1 PUSH2 0x3722 JUMP JUMPDEST PUSH1 0x40 MLOAD DUP1 SWAP2 SUB SWAP1 RETURN JUMPDEST PUSH2 0x590 PUSH2 0x1809 JUMP JUMPDEST PUSH1 0x40 MLOAD PUSH2 0x59D SWAP2 SWAP1 PUSH2 0x355A JUMP JUMPDEST PUSH1 0x40 MLOAD DUP1 SWAP2 SUB SWAP1 RETURN JUMPDEST PUSH2 0x5C0 PUSH1 0x4 DUP1 CALLDATASIZE SUB DUP2 ADD SWAP1 PUSH2 0x5BB SWAP2 SWAP1 PUSH2 0x3999 JUMP JUMPDEST PUSH2 0x1899 JUMP JUMPDEST STOP JUMPDEST PUSH2 0x5DC PUSH1 0x4 DUP1 CALLDATASIZE SUB DUP2 ADD SWAP1 PUSH2 0x5D7 SWAP2 SWAP1 PUSH2 0x3A01 JUMP JUMPDEST PUSH2 0x197B JUMP JUMPDEST STOP JUMPDEST PUSH2 0x5F8 PUSH1 0x4 DUP1 CALLDATASIZE SUB DUP2 ADD SWAP1 PUSH2 0x5F3 SWAP2 SWAP1 PUSH2 0x37F1 JUMP JUMPDEST PUSH2 0x19B6 JUMP JUMPDEST STOP JUMPDEST PUSH2 0x602 PUSH2 0x1D00 JUMP JUMPDEST PUSH1 0x40 MLOAD PUSH2 0x60F SWAP2 SWAP1 PUSH2 0x3788 JUMP JUMPDEST PUSH1 0x40 MLOAD DUP1 SWAP2 SUB SWAP1 RETURN JUMPDEST PUSH2 0x632 PUSH1 0x4 DUP1 CALLDATASIZE SUB DUP2 ADD SWAP1 PUSH2 0x62D SWAP2 SWAP1 PUSH2 0x3B6B JUMP JUMPDEST PUSH2 0x1D06 JUMP JUMPDEST STOP JUMPDEST PUSH2 0x63C PUSH2 0x1D2B JUMP JUMPDEST PUSH1 0x40 MLOAD PUSH2 0x649 SWAP2 SWAP1 PUSH2 0x3788 JUMP JUMPDEST PUSH1 0x40 MLOAD DUP1 SWAP2 SUB SWAP1 RETURN JUMPDEST PUSH2 0x66C PUSH1 0x4 DUP1 CALLDATASIZE SUB DUP2 ADD SWAP1 PUSH2 0x667 SWAP2 SWAP1 PUSH2 0x36E8 JUMP JUMPDEST PUSH2 0x1D30 JUMP JUMPDEST PUSH1 0x40 MLOAD PUSH2 0x679 SWAP2 SWAP1 PUSH2 0x355A JUMP JUMPDEST PUSH1 0x40 MLOAD DUP1 SWAP2 SUB SWAP1 RETURN JUMPDEST PUSH2 0x69C PUSH1 0x4 DUP1 CALLDATASIZE SUB DUP2 ADD SWAP1 PUSH2 0x697 SWAP2 SWAP1 PUSH2 0x396E JUMP JUMPDEST PUSH2 0x1D96 JUMP JUMPDEST STOP JUMPDEST PUSH2 0x6B8 PUSH1 0x4 DUP1 CALLDATASIZE SUB DUP2 ADD SWAP1 PUSH2 0x6B3 SWAP2 SWAP1 PUSH2 0x36E8 JUMP JUMPDEST PUSH2 0x1E46 JUMP JUMPDEST PUSH1 0x40 MLOAD PUSH2 0x6CD SWAP10 SWAP9 SWAP8 SWAP7 SWAP6 SWAP5 SWAP4 SWAP3 SWAP2 SWAP1 PUSH2 0x3C77 JUMP JUMPDEST PUSH1 0x40 MLOAD DUP1 SWAP2 SUB SWAP1 RETURN JUMPDEST PUSH2 0x6F0 PUSH1 0x4 DUP1 CALLDATASIZE SUB DUP2 ADD SWAP1 PUSH2 0x6EB SWAP2 SWAP1 PUSH2 0x36E8 JUMP JUMPDEST PUSH2 0x1FA0 JUMP JUMPDEST STOP JUMPDEST PUSH2 0x6FA PUSH2 0x1FE9 JUMP JUMPDEST PUSH1 0x40 MLOAD PUSH2 0x707 SWAP2 SWAP1 PUSH2 0x3D26 JUMP JUMPDEST PUSH1 0x40 MLOAD DUP1 SWAP2 SUB SWAP1 RETURN JUMPDEST PUSH2 0x72A PUSH1 0x4 DUP1 CALLDATASIZE SUB DUP2 ADD SWAP1 PUSH2 0x725 SWAP2 SWAP1 PUSH2 0x3D3F JUMP JUMPDEST PUSH2 0x200E JUMP JUMPDEST PUSH1 0x40 MLOAD PUSH2 0x737 SWAP2 SWAP1 PUSH2 0x34D1 JUMP JUMPDEST PUSH1 0x40 MLOAD DUP1 SWAP2 SUB SWAP1 RETURN JUMPDEST PUSH2 0x75A PUSH1 0x4 DUP1 CALLDATASIZE SUB DUP2 ADD SWAP1 PUSH2 0x755 SWAP2 SWAP1 PUSH2 0x396E JUMP JUMPDEST PUSH2 0x209C JUMP JUMPDEST STOP JUMPDEST PUSH0 PUSH32 0x80AC58CD00000000000000000000000000000000000000000000000000000000 PUSH28 0xFFFFFFFFFFFFFFFFFFFFFFFFFFFFFFFFFFFFFFFFFFFFFFFFFFFFFFFF NOT AND DUP3 PUSH28 0xFFFFFFFFFFFFFFFFFFFFFFFFFFFFFFFFFFFFFFFFFFFFFFFFFFFFFFFF NOT AND EQ DUP1 PUSH2 0x826 JUMPI POP PUSH32 0x5B5E139F00000000000000000000000000000000000000000000000000000000 PUSH28 0xFFFFFFFFFFFFFFFFFFFFFFFFFFFFFFFFFFFFFFFFFFFFFFFFFFFFFFFF NOT AND DUP3 PUSH28 0xFFFFFFFFFFFFFFFFFFFFFFFFFFFFFFFFFFFFFFFFFFFFFFFFFFFFFFFF NOT AND EQ JUMPDEST DUP1 PUSH2 0x836 JUMPI POP PUSH2 0x835 DUP3 PUSH2 0x2120 JUMP JUMPDEST JUMPDEST SWAP1 POP SWAP2 SWAP1 POP JUMP JUMPDEST PUSH1 0x60 PUSH0 DUP1 SLOAD PUSH2 0x84B SWAP1 PUSH2 0x3DAA JUMP JUMPDEST DUP1 PUSH1 0x1F ADD PUSH1 0x20 DUP1 SWAP2 DIV MUL PUSH1 0x20 ADD PUSH1 0x40 MLOAD SWAP1 DUP2 ADD PUSH1 0x40 MSTORE DUP1 SWAP3 SWAP2 SWAP1 DUP2 DUP2 MSTORE PUSH1 0x20 ADD DUP3 DUP1 SLOAD PUSH2 0x877 SWAP1 PUSH2 0x3DAA JUMP JUMPDEST DUP1 ISZERO PUSH2 0x8C2 JUMPI DUP1 PUSH1 0x1F LT PUSH2 0x899 JUMPI PUSH2 0x100 DUP1 DUP4 SLOAD DIV MUL DUP4 MSTORE SWAP2 PUSH1 0x20 ADD SWAP2 PUSH2 0x8C2 JUMP JUMPDEST DUP3 ADD SWAP2 SWAP1 PUSH0 MSTORE PUSH1 0x20 PUSH0 KECCAK256 SWAP1 JUMPDEST DUP2 SLOAD DUP2 MSTORE SWAP1 PUSH1 0x1 ADD SWAP1 PUSH1 0x20 ADD DUP1 DUP4 GT PUSH2 0x8A5 JUMPI DUP3 SWAP1 SUB PUSH1 0x1F AND DUP3 ADD SWAP2 JUMPDEST POP POP POP POP POP SWAP1 POP SWAP1 JUMP JUMPDEST PUSH1 0x40 MLOAD PUSH32 0x8C379A000000000000000000000000000000000000000000000000000000000 DUP2 MSTORE PUSH1 0x4 ADD PUSH2 0x8FE SWAP1 PUSH2 0x3E24 JUMP JUMPDEST PUSH1 0x40 MLOAD DUP1 SWAP2 SUB SWAP1 REVERT JUMPDEST PUSH0 PUSH2 0x911 DUP3 PUSH2 0x2189 JUMP JUMPDEST POP PUSH2 0x91B DUP3 PUSH2 0x220F JUMP JUMPDEST SWAP1 POP SWAP2 SWAP1 POP JUMP JUMPDEST PUSH1 0x40 MLOAD PUSH32 0x8C379A000000000000000000000000000000000000000000000000000000000 DUP2 MSTORE PUSH1 0x4 ADD PUSH2 0x954 SWAP1 PUSH2 0x3EB2 JUMP JUMPDEST PUSH1 0x40 MLOAD DUP1 SWAP2 SUB SWAP1 REVERT JUMPDEST PUSH1 0xF SLOAD DUP2 JUMP JUMPDEST PUSH2 0x96B PUSH2 0x2248 JUMP JUMPDEST PUSH0 DUP3 GT DUP1 ISZERO PUSH2 0x979 JUMPI POP PUSH0 DUP2 GT JUMPDEST PUSH2 0x9B8 JUMPI PUSH1 0x40 MLOAD PUSH32 0x8C379A000000000000000000000000000000000000000000000000000000000 DUP2 MSTORE PUSH1 0x4 ADD PUSH2 0x9AF SWAP1 PUSH2 0x3F1A JUMP JUMPDEST PUSH1 0x40 MLOAD DUP1 SWAP2 SUB SWAP1 REVERT JUMPDEST DUP3 PUSH1 0xE DUP2 SWAP1 SSTORE POP DUP2 PUSH1 0xF DUP2 SWAP1 SSTORE POP DUP1 PUSH1 0x10 DUP2 SWAP1 SSTORE POP PUSH32 0xD8967EA7C9DCA5BA59868B7DDE8AA63E5138A60C8D9EAB8A302E616F5CF4B5EA DUP4 DUP4 DUP4 PUSH1 0x40 MLOAD PUSH2 0xA00 SWAP4 SWAP3 SWAP2 SWAP1 PUSH2 0x3F38 JUMP JUMPDEST PUSH1 0x40 MLOAD DUP1 SWAP2 SUB SWAP1 LOG1 POP POP POP JUMP JUMPDEST PUSH2 0xA15 PUSH2 0x22CF JUMP JUMPDEST PUSH0 PUSH1 0x8 PUSH0 DUP5 DUP2 MSTORE PUSH1 0x20 ADD SWAP1 DUP2 MSTORE PUSH1 0x20 ADD PUSH0 KECCAK256 SWAP1 POP PUSH0 PUSH20 0xFFFFFFFFFFFFFFFFFFFFFFFFFFFFFFFFFFFFFFFF AND DUP2 PUSH1 0x5 ADD PUSH0 SWAP1 SLOAD SWAP1 PUSH2 0x100 EXP SWAP1 DIV PUSH20 0xFFFFFFFFFFFFFFFFFFFFFFFFFFFFFFFFFFFFFFFF AND PUSH20 0xFFFFFFFFFFFFFFFFFFFFFFFFFFFFFFFFFFFFFFFF AND SUB PUSH2 0xAB1 JUMPI PUSH1 0x40 MLOAD PUSH32 0x4D28580700000000000000000000000000000000000000000000000000000000 DUP2 MSTORE PUSH1 0x4 ADD PUSH1 0x40 MLOAD DUP1 SWAP2 SUB SWAP1 REVERT JUMPDEST CALLER PUSH20 0xFFFFFFFFFFFFFFFFFFFFFFFFFFFFFFFFFFFFFFFF AND DUP2 PUSH1 0x5 ADD PUSH0 SWAP1 SLOAD SWAP1 PUSH2 0x100 EXP SWAP1 DIV PUSH20 0xFFFFFFFFFFFFFFFFFFFFFFFFFFFFFFFFFFFFFFFF AND PUSH20 0xFFFFFFFFFFFFFFFFFFFFFFFFFFFFFFFFFFFFFFFF AND EQ PUSH2 0xB39 JUMPI PUSH1 0x40 MLOAD PUSH32 0x5EA428D200000000000000000000000000000000000000000000000000000000 DUP2 MSTORE PUSH1 0x4 ADD PUSH1 0x40 MLOAD DUP1 SWAP2 SUB SWAP1 REVERT JUMPDEST PUSH2 0xB52 DUP3 DUP1 CALLDATASIZE SUB DUP2 ADD SWAP1 PUSH2 0xB4D SWAP2 SWAP1 PUSH2 0x4026 JUMP JUMPDEST PUSH2 0x2319 JUMP JUMPDEST PUSH2 0xB88 JUMPI PUSH1 0x40 MLOAD PUSH32 0xF80F144500000000000000000000000000000000000000000000000000000000 DUP2 MSTORE PUSH1 0x4 ADD PUSH1 0x40 MLOAD DUP1 SWAP2 SUB SWAP1 REVERT JUMPDEST DUP2 DUP2 PUSH0 ADD DUP2 DUP2 PUSH2 0xB98 SWAP2 SWAP1 PUSH2 0x4251 JUMP JUMPDEST SWAP1 POP POP DUP3 PUSH32 0x5E3C2DC59961AFD7162B57DB3494A2C4FD3AA84094847A768067AD2FC16416C0 DUP4 PUSH1 0x40 MLOAD PUSH2 0xBCB SWAP2 SWAP1 PUSH2 0x42E3 JUMP JUMPDEST PUSH1 0x40 MLOAD DUP1 SWAP2 SUB SWAP1 LOG2 POP POP POP JUMP JUMPDEST PUSH0 PUSH20 0xFFFFFFFFFFFFFFFFFFFFFFFFFFFFFFFFFFFFFFFF AND DUP3 PUSH20 0xFFFFFFFFFFFFFFFFFFFFFFFFFFFFFFFFFFFFFFFF AND SUB PUSH2 0xC48 JUMPI PUSH0 PUSH1 0x40 MLOAD PUSH32 0x64A0AE9200000000000000000000000000000000000000000000000000000000 DUP2 MSTORE PUSH1 0x4 ADD PUSH2 0xC3F SWAP2 SWAP1 PUSH2 0x3722 JUMP JUMPDEST PUSH1 0x40 MLOAD DUP1 SWAP2 SUB SWAP1 REVERT JUMPDEST PUSH0 PUSH2 0xC5B DUP4 DUP4 PUSH2 0xC56 PUSH2 0x23C2 JUMP JUMPDEST PUSH2 0x23C9 JUMP JUMPDEST SWAP1 POP DUP4 PUSH20 0xFFFFFFFFFFFFFFFFFFFFFFFFFFFFFFFFFFFFFFFF AND DUP2 PUSH20 0xFFFFFFFFFFFFFFFFFFFFFFFFFFFFFFFFFFFFFFFF AND EQ PUSH2 0xCD1 JUMPI DUP4 DUP3 DUP3 PUSH1 0x40 MLOAD PUSH32 0x64283D7B00000000000000000000000000000000000000000000000000000000 DUP2 MSTORE PUSH1 0x4 ADD PUSH2 0xCC8 SWAP4 SWAP3 SWAP2 SWAP1 PUSH2 0x42FC JUMP JUMPDEST PUSH1 0x40 MLOAD DUP1 SWAP2 SUB SWAP1 REVERT JUMPDEST POP POP POP POP JUMP JUMPDEST PUSH2 0xCDF PUSH2 0x2248 JUMP JUMPDEST PUSH2 0xCE7 PUSH2 0x2448 JUMP JUMPDEST JUMP JUMPDEST PUSH2 0xD03 DUP4 DUP4 DUP4 PUSH1 0x40 MLOAD DUP1 PUSH1 0x20 ADD PUSH1 0x40 MSTORE DUP1 PUSH0 DUP2 MSTORE POP PUSH2 0x1D06 JUMP JUMPDEST POP POP POP JUMP JUMPDEST PUSH1 0xC PUSH0 SWAP1 SLOAD SWAP1 PUSH2 0x100 EXP SWAP1 DIV PUSH20 0xFFFFFFFFFFFFFFFFFFFFFFFFFFFFFFFFFFFFFFFF AND DUP2 JUMP JUMPDEST PUSH0 PUSH2 0xD36 PUSH2 0x22CF JUMP JUMPDEST PUSH1 0x1 PUSH1 0x9 PUSH0 CALLER PUSH20 0xFFFFFFFFFFFFFFFFFFFFFFFFFFFFFFFFFFFFFFFF AND PUSH20 0xFFFFFFFFFFFFFFFFFFFFFFFFFFFFFFFFFFFFFFFF AND DUP2 MSTORE PUSH1 0x20 ADD SWAP1 DUP2 MSTORE PUSH1 0x20 ADD PUSH0 KECCAK256 SLOAD LT PUSH2 0xDAD JUMPI PUSH1 0x40 MLOAD PUSH32 0x5E1C472800000000000000000000000000000000000000000000000000000000 DUP2 MSTORE PUSH1 0x4 ADD PUSH1 0x40 MLOAD DUP1 SWAP2 SUB SWAP1 REVERT JUMPDEST PUSH2 0xDC6 DUP3 DUP1 CALLDATASIZE SUB DUP2 ADD SWAP1 PUSH2 0xDC1 SWAP2 SWAP1 PUSH2 0x4026 JUMP JUMPDEST PUSH2 0x2319 JUMP JUMPDEST PUSH2 0xDFC JUMPI PUSH1 0x40 MLOAD PUSH32 0xF80F144500000000000000000000000000000000000000000000000000000000 DUP2 MSTORE PUSH1 0x4 ADD PUSH1 0x40 MLOAD DUP1 SWAP2 SUB SWAP1 REVERT JUMPDEST PUSH2 0xE06 PUSH1 0x7 PUSH2 0x24AA JUMP JUMPDEST PUSH0 PUSH2 0xE11 PUSH1 0x7 PUSH2 0x24BE JUMP JUMPDEST SWAP1 POP PUSH0 PUSH1 0x8 PUSH0 DUP4 DUP2 MSTORE PUSH1 0x20 ADD SWAP1 DUP2 MSTORE PUSH1 0x20 ADD PUSH0 KECCAK256 SWAP1 POP DUP4 DUP2 PUSH0 ADD DUP2 DUP2 PUSH2 0xE37 SWAP2 SWAP1 PUSH2 0x4251 JUMP JUMPDEST SWAP1 POP POP DUP4 DUP2 PUSH1 0x1 ADD DUP2 DUP2 PUSH2 0xE4B SWAP2 SWAP1 PUSH2 0x4251 JUMP JUMPDEST SWAP1 POP POP CALLER DUP2 PUSH1 0x5 ADD PUSH0 PUSH2 0x100 EXP DUP2 SLOAD DUP2 PUSH20 0xFFFFFFFFFFFFFFFFFFFFFFFFFFFFFFFFFFFFFFFF MUL NOT AND SWAP1 DUP4 PUSH20 0xFFFFFFFFFFFFFFFFFFFFFFFFFFFFFFFFFFFFFFFF AND MUL OR SWAP1 SSTORE POP PUSH0 DUP2 PUSH1 0x4 ADD DUP2 SWAP1 SSTORE POP PUSH0 DUP2 PUSH1 0x3 ADD DUP2 SWAP1 SSTORE POP PUSH0 DUP2 PUSH1 0x5 ADD PUSH1 0x14 PUSH2 0x100 EXP DUP2 SLOAD DUP2 PUSH1 0xFF MUL NOT AND SWAP1 DUP4 ISZERO ISZERO MUL OR SWAP1 SSTORE POP PUSH1 0xB SLOAD DUP2 PUSH1 0x7 ADD DUP2 SWAP1 SSTORE POP PUSH1 0x9 PUSH0 CALLER PUSH20 0xFFFFFFFFFFFFFFFFFFFFFFFFFFFFFFFFFFFFFFFF AND PUSH20 0xFFFFFFFFFFFFFFFFFFFFFFFFFFFFFFFFFFFFFFFF AND DUP2 MSTORE PUSH1 0x20 ADD SWAP1 DUP2 MSTORE PUSH1 0x20 ADD PUSH0 KECCAK256 PUSH0 DUP2 SLOAD DUP1 SWAP3 SWAP2 SWAP1 PUSH2 0xF16 SWAP1 PUSH2 0x435E JUMP JUMPDEST SWAP2 SWAP1 POP SSTORE POP PUSH2 0xF25 CALLER DUP4 PUSH2 0x24CA JUMP JUMPDEST CALLER PUSH20 0xFFFFFFFFFFFFFFFFFFFFFFFFFFFFFFFFFFFFFFFF AND DUP3 PUSH32 0xDFFE517F254875DE804B76D54DA034367437A82635472CEAFFE26B4C813BEB08 DUP7 PUSH1 0x40 MLOAD PUSH2 0xF6C SWAP2 SWAP1 PUSH2 0x42E3 JUMP JUMPDEST PUSH1 0x40 MLOAD DUP1 SWAP2 SUB SWAP1 LOG3 DUP2 SWAP3 POP POP POP SWAP2 SWAP1 POP JUMP JUMPDEST PUSH0 PUSH1 0x6 PUSH1 0x14 SWAP1 SLOAD SWAP1 PUSH2 0x100 EXP SWAP1 DIV PUSH1 0xFF AND SWAP1 POP SWAP1 JUMP JUMPDEST PUSH2 0xF9C PUSH2 0x22CF JUMP JUMPDEST PUSH0 PUSH20 0xFFFFFFFFFFFFFFFFFFFFFFFFFFFFFFFFFFFFFFFF AND PUSH1 0xC PUSH0 SWAP1 SLOAD SWAP1 PUSH2 0x100 EXP SWAP1 DIV PUSH20 0xFFFFFFFFFFFFFFFFFFFFFFFFFFFFFFFFFFFFFFFF AND PUSH20 0xFFFFFFFFFFFFFFFFFFFFFFFFFFFFFFFFFFFFFFFF AND SUB PUSH2 0x1022 JUMPI PUSH1 0x40 MLOAD PUSH32 0xC8C5B00E00000000000000000000000000000000000000000000000000000000 DUP2 MSTORE PUSH1 0x4 ADD PUSH1 0x40 MLOAD DUP1 SWAP2 SUB SWAP1 REVERT JUMPDEST PUSH0 PUSH20 0xFFFFFFFFFFFFFFFFFFFFFFFFFFFFFFFFFFFFFFFF AND PUSH1 0xD PUSH0 SWAP1 SLOAD SWAP1 PUSH2 0x100 EXP SWAP1 DIV PUSH20 0xFFFFFFFFFFFFFFFFFFFFFFFFFFFFFFFFFFFFFFFF AND PUSH20 0xFFFFFFFFFFFFFFFFFFFFFFFFFFFFFFFFFFFFFFFF AND SUB PUSH2 0x10A8 JUMPI PUSH1 0x40 MLOAD PUSH32 0xA2E5594200000000000000000000000000000000000000000000000000000000 DUP2 MSTORE PUSH1 0x4 ADD PUSH1 0x40 MLOAD DUP1 SWAP2 SUB SWAP1 REVERT JUMPDEST PUSH0 PUSH1 0x8 PUSH0 DUP6 DUP2 MSTORE PUSH1 0x20 ADD SWAP1 DUP2 MSTORE PUSH1 0x20 ADD PUSH0 KECCAK256 SWAP1 POP PUSH0 PUSH20 0xFFFFFFFFFFFFFFFFFFFFFFFFFFFFFFFFFFFFFFFF AND DUP2 PUSH1 0x5 ADD PUSH0 SWAP1 SLOAD SWAP1 PUSH2 0x100 EXP SWAP1 DIV PUSH20 0xFFFFFFFFFFFFFFFFFFFFFFFFFFFFFFFFFFFFFFFF AND PUSH20 0xFFFFFFFFFFFFFFFFFFFFFFFFFFFFFFFFFFFFFFFF AND SUB PUSH2 0x1144 JUMPI PUSH1 0x40 MLOAD PUSH32 0x4D28580700000000000000000000000000000000000000000000000000000000 DUP2 MSTORE PUSH1 0x4 ADD PUSH1 0x40 MLOAD DUP1 SWAP2 SUB SWAP1 REVERT JUMPDEST DUP1 PUSH1 0x5 ADD PUSH1 0x14 SWAP1 SLOAD SWAP1 PUSH2 0x100 EXP SWAP1 DIV PUSH1 0xFF AND PUSH2 0x118C JUMPI PUSH1 0x40 MLOAD PUSH32 0xA008845700000000000000000000000000000000000000000000000000000000 DUP2 MSTORE PUSH1 0x4 ADD PUSH1 0x40 MLOAD DUP1 SWAP2 SUB SWAP1 REVERT JUMPDEST CALLER PUSH20 0xFFFFFFFFFFFFFFFFFFFFFFFFFFFFFFFFFFFFFFFF AND PUSH1 0xA PUSH0 DUP7 DUP2 MSTORE PUSH1 0x20 ADD SWAP1 DUP2 MSTORE PUSH1 0x20 ADD PUSH0 KECCAK256 PUSH0 SWAP1 SLOAD SWAP1 PUSH2 0x100 EXP SWAP1 DIV PUSH20 0xFFFFFFFFFFFFFFFFFFFFFFFFFFFFFFFFFFFFFFFF AND PUSH20 0xFFFFFFFFFFFFFFFFFFFFFFFFFFFFFFFFFFFFFFFF AND EQ PUSH2 0x1221 JUMPI PUSH1 0x40 MLOAD PUSH32 0x5EA428D200000000000000000000000000000000000000000000000000000000 DUP2 MSTORE PUSH1 0x4 ADD PUSH1 0x40 MLOAD DUP1 SWAP2 SUB SWAP1 REVERT JUMPDEST PUSH2 0x123A DUP4 DUP1 CALLDATASIZE SUB DUP2 ADD SWAP1 PUSH2 0x1235 SWAP2 SWAP1 PUSH2 0x4026 JUMP JUMPDEST PUSH2 0x2319 JUMP JUMPDEST PUSH2 0x1270 JUMPI PUSH1 0x40 MLOAD PUSH32 0xF80F144500000000000000000000000000000000000000000000000000000000 DUP2 MSTORE PUSH1 0x4 ADD PUSH1 0x40 MLOAD DUP1 SWAP2 SUB SWAP1 REVERT JUMPDEST PUSH0 DUP2 PUSH1 0x1 ADD PUSH1 0x40 MLOAD DUP1 PUSH1 0x60 ADD PUSH1 0x40 MSTORE SWAP1 DUP2 PUSH0 DUP3 ADD PUSH0 SWAP1 SLOAD SWAP1 PUSH2 0x100 EXP SWAP1 DIV PUSH1 0x7 SIGNEXTEND PUSH1 0x7 SIGNEXTEND PUSH1 0x7 SIGNEXTEND DUP2 MSTORE PUSH1 0x20 ADD PUSH0 DUP3 ADD PUSH1 0x8 SWAP1 SLOAD SWAP1 PUSH2 0x100 EXP SWAP1 DIV PUSH1 0x7 SIGNEXTEND PUSH1 0x7 SIGNEXTEND PUSH1 0x7 SIGNEXTEND DUP2 MSTORE PUSH1 0x20 ADD PUSH0 DUP3 ADD PUSH1 0x10 SWAP1 SLOAD SWAP1 PUSH2 0x100 EXP SWAP1 DIV PUSH8 0xFFFFFFFFFFFFFFFF AND PUSH8 0xFFFFFFFFFFFFFFFF AND PUSH8 0xFFFFFFFFFFFFFFFF AND DUP2 MSTORE POP POP SWAP1 POP DUP4 DUP3 PUSH1 0x1 ADD DUP2 DUP2 PUSH2 0x12FB SWAP2 SWAP1 PUSH2 0x4251 JUMP JUMPDEST SWAP1 POP POP PUSH0 DUP3 PUSH1 0x5 ADD PUSH1 0x14 PUSH2 0x100 EXP DUP2 SLOAD DUP2 PUSH1 0xFF MUL NOT AND SWAP1 DUP4 ISZERO ISZERO MUL OR SWAP1 SSTORE POP DUP2 PUSH1 0x2 ADD PUSH0 DUP2 SLOAD DUP1 SWAP3 SWAP2 SWAP1 PUSH2 0x132E SWAP1 PUSH2 0x435E JUMP JUMPDEST SWAP2 SWAP1 POP SSTORE POP PUSH0 PUSH2 0x134E DUP3 DUP7 DUP1 CALLDATASIZE SUB DUP2 ADD SWAP1 PUSH2 0x1349 SWAP2 SWAP1 PUSH2 0x4026 JUMP JUMPDEST PUSH2 0x24E7 JUMP JUMPDEST SWAP1 POP DUP1 DUP4 PUSH1 0x3 ADD PUSH0 DUP3 DUP3 SLOAD PUSH2 0x1363 SWAP2 SWAP1 PUSH2 0x43A5 JUMP JUMPDEST SWAP3 POP POP DUP2 SWAP1 SSTORE POP PUSH2 0x137C DUP4 PUSH1 0x2 ADD SLOAD DUP5 PUSH1 0x3 ADD SLOAD PUSH2 0x25B9 JUMP JUMPDEST DUP4 PUSH1 0x4 ADD DUP2 SWAP1 SSTORE POP DUP4 DUP4 PUSH1 0x6 ADD DUP2 SWAP1 SSTORE POP PUSH0 PUSH2 0x13AE DUP8 DUP5 DUP9 DUP1 CALLDATASIZE SUB DUP2 ADD SWAP1 PUSH2 0x13A4 SWAP2 SWAP1 PUSH2 0x4026 JUMP JUMPDEST DUP8 PUSH1 0x4 ADD SLOAD PUSH2 0x2622 JUMP JUMPDEST SWAP1 POP PUSH0 PUSH1 0xD PUSH0 SWAP1 SLOAD SWAP1 PUSH2 0x100 EXP SWAP1 DIV PUSH20 0xFFFFFFFFFFFFFFFFFFFFFFFFFFFFFFFFFFFFFFFF AND PUSH20 0xFFFFFFFFFFFFFFFFFFFFFFFFFFFFFFFFFFFFFFFF AND PUSH4 0xEF9ECC1D DUP10 CALLER DUP6 PUSH1 0x40 MLOAD DUP5 PUSH4 0xFFFFFFFF AND PUSH1 0xE0 SHL DUP2 MSTORE PUSH1 0x4 ADD PUSH2 0x140F SWAP4 SWAP3 SWAP2 SWAP1 PUSH2 0x43D8 JUMP JUMPDEST PUSH1 0x60 PUSH1 0x40 MLOAD DUP1 DUP4 SUB DUP2 PUSH0 DUP8 GAS CALL ISZERO DUP1 ISZERO PUSH2 0x142B JUMPI RETURNDATASIZE PUSH0 DUP1 RETURNDATACOPY RETURNDATASIZE PUSH0 REVERT JUMPDEST POP POP POP POP PUSH1 0x40 MLOAD RETURNDATASIZE PUSH1 0x1F NOT PUSH1 0x1F DUP3 ADD AND DUP3 ADD DUP1 PUSH1 0x40 MSTORE POP DUP2 ADD SWAP1 PUSH2 0x144F SWAP2 SWAP1 PUSH2 0x4496 JUMP JUMPDEST SWAP1 POP PUSH1 0xC PUSH0 SWAP1 SLOAD SWAP1 PUSH2 0x100 EXP SWAP1 DIV PUSH20 0xFFFFFFFFFFFFFFFFFFFFFFFFFFFFFFFFFFFFFFFF AND PUSH20 0xFFFFFFFFFFFFFFFFFFFFFFFFFFFFFFFFFFFFFFFF AND PUSH4 0x80807BE DUP10 CALLER DUP8 DUP12 DUP7 PUSH0 ADD MLOAD DUP13 PUSH1 0x40 MLOAD DUP8 PUSH4 0xFFFFFFFF AND PUSH1 0xE0 SHL DUP2 MSTORE PUSH1 0x4 ADD PUSH2 0x14B8 SWAP7 SWAP6 SWAP5 SWAP4 SWAP3 SWAP2 SWAP1 PUSH2 0x44C1 JUMP JUMPDEST PUSH0 PUSH1 0x40 MLOAD DUP1 DUP4 SUB DUP2 PUSH0 DUP8 DUP1 EXTCODESIZE ISZERO DUP1 ISZERO PUSH2 0x14CF JUMPI PUSH0 DUP1 REVERT JUMPDEST POP GAS CALL ISZERO DUP1 ISZERO PUSH2 0x14E1 JUMPI RETURNDATASIZE PUSH0 DUP1 RETURNDATACOPY RETURNDATASIZE PUSH0 REVERT JUMPDEST POP POP POP POP PUSH1 0xA PUSH0 DUP10 DUP2 MSTORE PUSH1 0x20 ADD SWAP1 DUP2 MSTORE PUSH1 0x20 ADD PUSH0 KECCAK256 PUSH0 PUSH2 0x100 EXP DUP2 SLOAD SWAP1 PUSH20 0xFFFFFFFFFFFFFFFFFFFFFFFFFFFFFFFFFFFFFFFF MUL NOT AND SWAP1 SSTORE CALLER PUSH20 0xFFFFFFFFFFFFFFFFFFFFFFFFFFFFFFFFFFFFFFFF AND DUP9 PUSH32 0xAE2D7AF13AC4BBB6C26A8CE1D47D0148F62F74BD05AEBACD2562F16CBEDD65FD DUP10 PUSH1 0x40 MLOAD PUSH2 0x155F SWAP2 SWAP1 PUSH2 0x42E3 JUMP JUMPDEST PUSH1 0x40 MLOAD DUP1 SWAP2 SUB SWAP1 LOG3 CALLER PUSH20 0xFFFFFFFFFFFFFFFFFFFFFFFFFFFFFFFFFFFFFFFF AND DUP9 PUSH32 0x3D34CAC5FC97A73234C81CA60D8BF759004DF6F7769F9CB6C45345B8B2E78A09 DUP7 DUP11 PUSH1 0x40 MLOAD PUSH2 0x15B0 SWAP3 SWAP2 SWAP1 PUSH2 0x4523 JUMP JUMPDEST PUSH1 0x40 MLOAD DUP1 SWAP2 SUB SWAP1 LOG3 DUP8 PUSH32 0xD57EBCEBD2EE998AF04CC567D1D726DB6E506E576A231810CFC85A1FBC438417 DUP8 PUSH1 0x40 MLOAD PUSH2 0x15E8 SWAP2 SWAP1 PUSH2 0x454A JUMP JUMPDEST PUSH1 0x40 MLOAD DUP1 SWAP2 SUB SWAP1 LOG2 CALLER PUSH20 0xFFFFFFFFFFFFFFFFFFFFFFFFFFFFFFFFFFFFFFFF AND DUP9 PUSH32 0x8EA2CE75A1183D5E9F13D8A6B6769E4977F4968E54A4F766F33B97015844E473 DUP5 DUP5 PUSH0 ADD MLOAD DUP6 PUSH1 0x40 ADD MLOAD PUSH1 0x40 MLOAD PUSH2 0x1642 SWAP4 SWAP3 SWAP2 SWAP1 PUSH2 0x4563 JUMP JUMPDEST PUSH1 0x40 MLOAD DUP1 SWAP2 SUB SWAP1 LOG3 POP POP POP POP POP POP POP POP JUMP JUMPDEST PUSH0 PUSH2 0x165E DUP3 PUSH2 0x2189 JUMP JUMPDEST SWAP1 POP SWAP2 SWAP1 POP JUMP JUMPDEST PUSH1 0xE SLOAD DUP2 JUMP JUMPDEST PUSH0 DUP1 PUSH20 0xFFFFFFFFFFFFFFFFFFFFFFFFFFFFFFFFFFFFFFFF AND DUP3 PUSH20 0xFFFFFFFFFFFFFFFFFFFFFFFFFFFFFFFFFFFFFFFF AND SUB PUSH2 0x16DC JUMPI PUSH0 PUSH1 0x40 MLOAD PUSH32 0x89C62B6400000000000000000000000000000000000000000000000000000000 DUP2 MSTORE PUSH1 0x4 ADD PUSH2 0x16D3 SWAP2 SWAP1 PUSH2 0x3722 JUMP JUMPDEST PUSH1 0x40 MLOAD DUP1 SWAP2 SUB SWAP1 REVERT JUMPDEST PUSH1 0x3 PUSH0 DUP4 PUSH20 0xFFFFFFFFFFFFFFFFFFFFFFFFFFFFFFFFFFFFFFFF AND PUSH20 0xFFFFFFFFFFFFFFFFFFFFFFFFFFFFFFFFFFFFFFFF AND DUP2 MSTORE PUSH1 0x20 ADD SWAP1 DUP2 MSTORE PUSH1 0x20 ADD PUSH0 KECCAK256 SLOAD SWAP1 POP SWAP2 SWAP1 POP JUMP JUMPDEST PUSH2 0x1729 PUSH2 0x2248 JUMP JUMPDEST PUSH2 0x1732 PUSH0 PUSH2 0x275A JUMP JUMPDEST JUMP JUMPDEST PUSH1 0xB SLOAD DUP2 JUMP JUMPDEST PUSH1 0x1 DUP2 JUMP JUMPDEST PUSH2 0x1747 PUSH2 0x2248 JUMP JUMPDEST DUP1 PUSH1 0xC PUSH0 PUSH2 0x100 EXP DUP2 SLOAD DUP2 PUSH20 0xFFFFFFFFFFFFFFFFFFFFFFFFFFFFFFFFFFFFFFFF MUL NOT AND SWAP1 DUP4 PUSH20 0xFFFFFFFFFFFFFFFFFFFFFFFFFFFFFFFFFFFFFFFF AND MUL OR SWAP1 SSTORE POP POP JUMP JUMPDEST PUSH2 0x1792 PUSH2 0x2248 JUMP JUMPDEST PUSH2 0x179A PUSH2 0x281D JUMP JUMPDEST JUMP JUMPDEST PUSH1 0x9 PUSH1 0x20 MSTORE DUP1 PUSH0 MSTORE PUSH1 0x40 PUSH0 KECCAK256 PUSH0 SWAP2 POP SWAP1 POP SLOAD DUP2 JUMP JUMPDEST PUSH1 0xA PUSH1 0x20 MSTORE DUP1 PUSH0 MSTORE PUSH1 0x40 PUSH0 KECCAK256 PUSH0 SWAP2 POP SLOAD SWAP1 PUSH2 0x100 EXP SWAP1 DIV PUSH20 0xFFFFFFFFFFFFFFFFFFFFFFFFFFFFFFFFFFFFFFFF AND DUP2 JUMP JUMPDEST PUSH0 PUSH1 0x6 PUSH0 SWAP1 SLOAD SWAP1 PUSH2 0x100 EXP SWAP1 DIV PUSH20 0xFFFFFFFFFFFFFFFFFFFFFFFFFFFFFFFFFFFFFFFF AND SWAP1 POP SWAP1 JUMP JUMPDEST PUSH1 0x60 PUSH1 0x1 DUP1 SLOAD PUSH2 0x1818 SWAP1 PUSH2 0x3DAA JUMP JUMPDEST DUP1 PUSH1 0x1F ADD PUSH1 0x20 DUP1 SWAP2 DIV MUL PUSH1 0x20 ADD PUSH1 0x40 MLOAD SWAP1 DUP2 ADD PUSH1 0x40 MSTORE DUP1 SWAP3 SWAP2 SWAP1 DUP2 DUP2 MSTORE PUSH1 0x20 ADD DUP3 DUP1 SLOAD PUSH2 0x1844 SWAP1 PUSH2 0x3DAA JUMP JUMPDEST DUP1 ISZERO PUSH2 0x188F JUMPI DUP1 PUSH1 0x1F LT PUSH2 0x1866 JUMPI PUSH2 0x100 DUP1 DUP4 SLOAD DIV MUL DUP4 MSTORE SWAP2 PUSH1 0x20 ADD SWAP2 PUSH2 0x188F JUMP JUMPDEST DUP3 ADD SWAP2 SWAP1 PUSH0 MSTORE PUSH1 0x20 PUSH0 KECCAK256 SWAP1 JUMPDEST DUP2 SLOAD DUP2 MSTORE SWAP1 PUSH1 0x1 ADD SWAP1 PUSH1 0x20 ADD DUP1 DUP4 GT PUSH2 0x1872 JUMPI DUP3 SWAP1 SUB PUSH1 0x1F AND DUP3 ADD SWAP2 JUMPDEST POP POP POP POP POP SWAP1 POP SWAP1 JUMP JUMPDEST PUSH0 PUSH1 0x8 PUSH0 DUP5 DUP2 MSTORE PUSH1 0x20 ADD SWAP1 DUP2 MSTORE PUSH1 0x20 ADD PUSH0 KECCAK256 SWAP1 POP CALLER PUSH20 0xFFFFFFFFFFFFFFFFFFFFFFFFFFFFFFFFFFFFFFFF AND DUP2 PUSH1 0x5 ADD PUSH0 SWAP1 SLOAD SWAP1 PUSH2 0x100 EXP SWAP1 DIV PUSH20 0xFFFFFFFFFFFFFFFFFFFFFFFFFFFFFFFFFFFFFFFF AND PUSH20 0xFFFFFFFFFFFFFFFFFFFFFFFFFFFFFFFFFFFFFFFF AND EQ PUSH2 0x1935 JUMPI PUSH1 0x40 MLOAD PUSH32 0xDE271CF500000000000000000000000000000000000000000000000000000000 DUP2 MSTORE PUSH1 0x4 ADD PUSH1 0x40 MLOAD DUP1 SWAP2 SUB SWAP1 REVERT JUMPDEST DUP2 DUP2 PUSH1 0x7 ADD DUP2 SWAP1 SSTORE POP DUP3 PUSH32 0x6D45AAFD42922ECAF790EDBEB5B45DFACA692040B5A8B8D0F0379035D18A3829 DUP4 PUSH1 0x40 MLOAD PUSH2 0x196E SWAP2 SWAP1 PUSH2 0x3788 JUMP JUMPDEST PUSH1 0x40 MLOAD DUP1 SWAP2 SUB SWAP1 LOG2 POP POP POP JUMP JUMPDEST PUSH1 0x40 MLOAD PUSH32 0x8C379A000000000000000000000000000000000000000000000000000000000 DUP2 MSTORE PUSH1 0x4 ADD PUSH2 0x19AD SWAP1 PUSH2 0x4608 JUMP JUMPDEST PUSH1 0x40 MLOAD DUP1 SWAP2 SUB SWAP1 REVERT JUMPDEST PUSH2 0x19BE PUSH2 0x22CF JUMP JUMPDEST PUSH0 PUSH1 0x8 PUSH0 DUP5 DUP2 MSTORE PUSH1 0x20 ADD SWAP1 DUP2 MSTORE PUSH1 0x20 ADD PUSH0 KECCAK256 SWAP1 POP PUSH0 PUSH20 0xFFFFFFFFFFFFFFFFFFFFFFFFFFFFFFFFFFFFFFFF AND DUP2 PUSH1 0x5 ADD PUSH0 SWAP1 SLOAD SWAP1 PUSH2 0x100 EXP SWAP1 DIV PUSH20 0xFFFFFFFFFFFFFFFFFFFFFFFFFFFFFFFFFFFFFFFF AND PUSH20 0xFFFFFFFFFFFFFFFFFFFFFFFFFFFFFFFFFFFFFFFF AND SUB PUSH2 0x1A5A JUMPI PUSH1 0x40 MLOAD PUSH32 0x4D28580700000000000000000000000000000000000000000000000000000000 DUP2 MSTORE PUSH1 0x4 ADD PUSH1 0x40 MLOAD DUP1 SWAP2 SUB SWAP1 REVERT JUMPDEST DUP1 PUSH1 0x5 ADD PUSH1 0x14 SWAP1 SLOAD SWAP1 PUSH2 0x100 EXP SWAP1 DIV PUSH1 0xFF AND ISZERO PUSH2 0x1AA3 JUMPI PUSH1 0x40 MLOAD PUSH32 0x7BB246A300000000000000000000000000000000000000000000000000000000 DUP2 MSTORE PUSH1 0x4 ADD PUSH1 0x40 MLOAD DUP1 SWAP2 SUB SWAP1 REVERT JUMPDEST DUP1 PUSH1 0x5 ADD PUSH0 SWAP1 SLOAD SWAP1 PUSH2 0x100 EXP SWAP1 DIV PUSH20 0xFFFFFFFFFFFFFFFFFFFFFFFFFFFFFFFFFFFFFFFF AND PUSH20 0xFFFFFFFFFFFFFFFFFFFFFFFFFFFFFFFFFFFFFFFF AND CALLER PUSH20 0xFFFFFFFFFFFFFFFFFFFFFFFFFFFFFFFFFFFFFFFF AND SUB PUSH2 0x1B2B JUMPI PUSH1 0x40 MLOAD PUSH32 0x5EA428D200000000000000000000000000000000000000000000000000000000 DUP2 MSTORE PUSH1 0x4 ADD PUSH1 0x40 MLOAD DUP1 SWAP2 SUB SWAP1 REVERT JUMPDEST PUSH2 0x1BBB DUP3 DUP1 CALLDATASIZE SUB DUP2 ADD SWAP1 PUSH2 0x1B3F SWAP2 SWAP1 PUSH2 0x4026 JUMP JUMPDEST DUP3 PUSH1 0x1 ADD PUSH1 0x40 MLOAD DUP1 PUSH1 0x60 ADD PUSH1 0x40 MSTORE SWAP1 DUP2 PUSH0 DUP3 ADD PUSH0 SWAP1 SLOAD SWAP1 PUSH2 0x100 EXP SWAP1 DIV PUSH1 0x7 SIGNEXTEND PUSH1 0x7 SIGNEXTEND PUSH1 0x7 SIGNEXTEND DUP2 MSTORE PUSH1 0x20 ADD PUSH0 DUP3 ADD PUSH1 0x8 SWAP1 SLOAD SWAP1 PUSH2 0x100 EXP SWAP1 DIV PUSH1 0x7 SIGNEXTEND PUSH1 0x7 SIGNEXTEND PUSH1 0x7 SIGNEXTEND DUP2 MSTORE PUSH1 0x20 ADD PUSH0 DUP3 ADD PUSH1 0x10 SWAP1 SLOAD SWAP1 PUSH2 0x100 EXP SWAP1 DIV PUSH8 0xFFFFFFFFFFFFFFFF AND PUSH8 0xFFFFFFFFFFFFFFFF AND PUSH8 0xFFFFFFFFFFFFFFFF AND DUP2 MSTORE POP POP PUSH2 0x2880 JUMP JUMPDEST PUSH2 0x1BF1 JUMPI PUSH1 0x40 MLOAD PUSH32 0xE286E4CF00000000000000000000000000000000000000000000000000000000 DUP2 MSTORE PUSH1 0x4 ADD PUSH1 0x40 MLOAD DUP1 SWAP2 SUB SWAP1 REVERT JUMPDEST PUSH2 0x1C0A DUP3 DUP1 CALLDATASIZE SUB DUP2 ADD SWAP1 PUSH2 0x1C05 SWAP2 SWAP1 PUSH2 0x4026 JUMP JUMPDEST PUSH2 0x2319 JUMP JUMPDEST PUSH2 0x1C40 JUMPI PUSH1 0x40 MLOAD PUSH32 0xF80F144500000000000000000000000000000000000000000000000000000000 DUP2 MSTORE PUSH1 0x4 ADD PUSH1 0x40 MLOAD DUP1 SWAP2 SUB SWAP1 REVERT JUMPDEST PUSH1 0x1 DUP2 PUSH1 0x5 ADD PUSH1 0x14 PUSH2 0x100 EXP DUP2 SLOAD DUP2 PUSH1 0xFF MUL NOT AND SWAP1 DUP4 ISZERO ISZERO MUL OR SWAP1 SSTORE POP CALLER PUSH1 0xA PUSH0 DUP6 DUP2 MSTORE PUSH1 0x20 ADD SWAP1 DUP2 MSTORE PUSH1 0x20 ADD PUSH0 KECCAK256 PUSH0 PUSH2 0x100 EXP DUP2 SLOAD DUP2 PUSH20 0xFFFFFFFFFFFFFFFFFFFFFFFFFFFFFFFFFFFFFFFF MUL NOT AND SWAP1 DUP4 PUSH20 0xFFFFFFFFFFFFFFFFFFFFFFFFFFFFFFFFFFFFFFFF AND MUL OR SWAP1 SSTORE POP CALLER PUSH20 0xFFFFFFFFFFFFFFFFFFFFFFFFFFFFFFFFFFFFFFFF AND DUP4 PUSH32 0xAD6FFA76AD6DFC74B39FB62C7F9E1A5255044C5C4DFBCE7B7E9644D20DCBC6CC DUP5 PUSH1 0x40 MLOAD PUSH2 0x1CF3 SWAP2 SWAP1 PUSH2 0x42E3 JUMP JUMPDEST PUSH1 0x40 MLOAD DUP1 SWAP2 SUB SWAP1 LOG3 POP POP POP JUMP JUMPDEST PUSH1 0x10 SLOAD DUP2 JUMP JUMPDEST PUSH2 0x1D11 DUP5 DUP5 DUP5 PUSH2 0xBD8 JUMP JUMPDEST PUSH2 0x1D25 PUSH2 0x1D1C PUSH2 0x23C2 JUMP JUMPDEST DUP6 DUP6 DUP6 DUP6 PUSH2 0x2964 JUMP JUMPDEST POP POP POP POP JUMP JUMPDEST PUSH1 0x64 DUP2 JUMP JUMPDEST PUSH1 0x60 PUSH2 0x1D3B DUP3 PUSH2 0x2189 JUMP JUMPDEST POP PUSH0 PUSH2 0x1D45 PUSH2 0x2B10 JUMP JUMPDEST SWAP1 POP PUSH0 DUP2 MLOAD GT PUSH2 0x1D63 JUMPI PUSH1 0x40 MLOAD DUP1 PUSH1 0x20 ADD PUSH1 0x40 MSTORE DUP1 PUSH0 DUP2 MSTORE POP PUSH2 0x1D8E JUMP JUMPDEST DUP1 PUSH2 0x1D6D DUP5 PUSH2 0x2B26 JUMP JUMPDEST PUSH1 0x40 MLOAD PUSH1 0x20 ADD PUSH2 0x1D7E SWAP3 SWAP2 SWAP1 PUSH2 0x4660 JUMP JUMPDEST PUSH1 0x40 MLOAD PUSH1 0x20 DUP2 DUP4 SUB SUB DUP2 MSTORE SWAP1 PUSH1 0x40 MSTORE JUMPDEST SWAP2 POP POP SWAP2 SWAP1 POP JUMP JUMPDEST PUSH2 0x1D9E PUSH2 0x2248 JUMP JUMPDEST PUSH0 PUSH20 0xFFFFFFFFFFFFFFFFFFFFFFFFFFFFFFFFFFFFFFFF AND DUP2 PUSH20 0xFFFFFFFFFFFFFFFFFFFFFFFFFFFFFFFFFFFFFFFF AND SUB PUSH2 0x1E03 JUMPI PUSH1 0x40 MLOAD PUSH32 0xE6C4247B00000000000000000000000000000000000000000000000000000000 DUP2 MSTORE PUSH1 0x4 ADD PUSH1 0x40 MLOAD DUP1 SWAP2 SUB SWAP1 REVERT JUMPDEST DUP1 PUSH1 0xD PUSH0 PUSH2 0x100 EXP DUP2 SLOAD DUP2 PUSH20 0xFFFFFFFFFFFFFFFFFFFFFFFFFFFFFFFFFFFFFFFF MUL NOT AND SWAP1 DUP4 PUSH20 0xFFFFFFFFFFFFFFFFFFFFFFFFFFFFFFFFFFFFFFFF AND MUL OR SWAP1 SSTORE POP POP JUMP JUMPDEST PUSH1 0x8 PUSH1 0x20 MSTORE DUP1 PUSH0 MSTORE PUSH1 0x40 PUSH0 KECCAK256 PUSH0 SWAP2 POP SWAP1 POP DUP1 PUSH0 ADD PUSH1 0x40 MLOAD DUP1 PUSH1 0x60 ADD PUSH1 0x40 MSTORE SWAP1 DUP2 PUSH0 DUP3 ADD PUSH0 SWAP1 SLOAD SWAP1 PUSH2 0x100 EXP SWAP1 DIV PUSH1 0x7 SIGNEXTEND PUSH1 0x7 SIGNEXTEND PUSH1 0x7 SIGNEXTEND DUP2 MSTORE PUSH1 0x20 ADD PUSH0 DUP3 ADD PUSH1 0x8 SWAP1 SLOAD SWAP1 PUSH2 0x100 EXP SWAP1 DIV PUSH1 0x7 SIGNEXTEND PUSH1 0x7 SIGNEXTEND PUSH1 0x7 SIGNEXTEND DUP2 MSTORE PUSH1 0x20 ADD PUSH0 DUP3 ADD PUSH1 0x10 SWAP1 SLOAD SWAP1 PUSH2 0x100 EXP SWAP1 DIV PUSH8 0xFFFFFFFFFFFFFFFF AND PUSH8 0xFFFFFFFFFFFFFFFF AND PUSH8 0xFFFFFFFFFFFFFFFF AND DUP2 MSTORE POP POP SWAP1 DUP1 PUSH1 0x1 ADD PUSH1 0x40 MLOAD DUP1 PUSH1 0x60 ADD PUSH1 0x40 MSTORE SWAP1 DUP2 PUSH0 DUP3 ADD PUSH0 SWAP1 SLOAD SWAP1 PUSH2 0x100 EXP SWAP1 DIV PUSH1 0x7 SIGNEXTEND PUSH1 0x7 SIGNEXTEND PUSH1 0x7 SIGNEXTEND DUP2 MSTORE PUSH1 0x20 ADD PUSH0 DUP3 ADD PUSH1 0x8 SWAP1 SLOAD SWAP1 PUSH2 0x100 EXP SWAP1 DIV PUSH1 0x7 SIGNEXTEND PUSH1 0x7 SIGNEXTEND PUSH1 0x7 SIGNEXTEND DUP2 MSTORE PUSH1 0x20 ADD PUSH0 DUP3 ADD PUSH1 0x10 SWAP1 SLOAD SWAP1 PUSH2 0x100 EXP SWAP1 DIV PUSH8 0xFFFFFFFFFFFFFFFF AND PUSH8 0xFFFFFFFFFFFFFFFF AND PUSH8 0xFFFFFFFFFFFFFFFF AND DUP2 MSTORE POP POP SWAP1 DUP1 PUSH1 0x2 ADD SLOAD SWAP1 DUP1 PUSH1 0x3 ADD SLOAD SWAP1 DUP1 PUSH1 0x4 ADD SLOAD SWAP1 DUP1 PUSH1 0x5 ADD PUSH0 SWAP1 SLOAD SWAP1 PUSH2 0x100 EXP SWAP1 DIV PUSH20 0xFFFFFFFFFFFFFFFFFFFFFFFFFFFFFFFFFFFFFFFF AND SWAP1 DUP1 PUSH1 0x5 ADD PUSH1 0x14 SWAP1 SLOAD SWAP1 PUSH2 0x100 EXP SWAP1 DIV PUSH1 0xFF AND SWAP1 DUP1 PUSH1 0x6 ADD SLOAD SWAP1 DUP1 PUSH1 0x7 ADD SLOAD SWAP1 POP DUP10 JUMP JUMPDEST PUSH2 0x1FA8 PUSH2 0x2248 JUMP JUMPDEST DUP1 PUSH1 0xB DUP2 SWAP1 SSTORE POP PUSH32 0xBB9CC79CD65E537E25D290BEB2FFB5BF3D7DAE20C986AA6ADA11022236D18A9A DUP2 PUSH1 0x40 MLOAD PUSH2 0x1FDE SWAP2 SWAP1 PUSH2 0x3788 JUMP JUMPDEST PUSH1 0x40 MLOAD DUP1 SWAP2 SUB SWAP1 LOG1 POP JUMP JUMPDEST PUSH1 0xD PUSH0 SWAP1 SLOAD SWAP1 PUSH2 0x100 EXP SWAP1 DIV PUSH20 0xFFFFFFFFFFFFFFFFFFFFFFFFFFFFFFFFFFFFFFFF AND DUP2 JUMP JUMPDEST PUSH0 PUSH1 0x5 PUSH0 DUP5 PUSH20 0xFFFFFFFFFFFFFFFFFFFFFFFFFFFFFFFFFFFFFFFF AND PUSH20 0xFFFFFFFFFFFFFFFFFFFFFFFFFFFFFFFFFFFFFFFF AND DUP2 MSTORE PUSH1 0x20 ADD SWAP1 DUP2 MSTORE PUSH1 0x20 ADD PUSH0 KECCAK256 PUSH0 DUP4 PUSH20 0xFFFFFFFFFFFFFFFFFFFFFFFFFFFFFFFFFFFFFFFF AND PUSH20 0xFFFFFFFFFFFFFFFFFFFFFFFFFFFFFFFFFFFFFFFF AND DUP2 MSTORE PUSH1 0x20 ADD SWAP1 DUP2 MSTORE PUSH1 0x20 ADD PUSH0 KECCAK256 PUSH0 SWAP1 SLOAD SWAP1 PUSH2 0x100 EXP SWAP1 DIV PUSH1 0xFF AND SWAP1 POP SWAP3 SWAP2 POP POP JUMP JUMPDEST PUSH2 0x20A4 PUSH2 0x2248 JUMP JUMPDEST PUSH0 PUSH20 0xFFFFFFFFFFFFFFFFFFFFFFFFFFFFFFFFFFFFFFFF AND DUP2 PUSH20 0xFFFFFFFFFFFFFFFFFFFFFFFFFFFFFFFFFFFFFFFF AND SUB PUSH2 0x2114 JUMPI PUSH0 PUSH1 0x40 MLOAD PUSH32 0x1E4FBDF700000000000000000000000000000000000000000000000000000000 DUP2 MSTORE PUSH1 0x4 ADD PUSH2 0x210B SWAP2 SWAP1 PUSH2 0x3722 JUMP JUMPDEST PUSH1 0x40 MLOAD DUP1 SWAP2 SUB SWAP1 REVERT JUMPDEST PUSH2 0x211D DUP2 PUSH2 0x275A JUMP JUMPDEST POP JUMP JUMPDEST PUSH0 PUSH32 0x1FFC9A700000000000000000000000000000000000000000000000000000000 PUSH28 0xFFFFFFFFFFFFFFFFFFFFFFFFFFFFFFFFFFFFFFFFFFFFFFFFFFFFFFFF NOT AND DUP3 PUSH28 0xFFFFFFFFFFFFFFFFFFFFFFFFFFFFFFFFFFFFFFFFFFFFFFFFFFFFFFFF NOT AND EQ SWAP1 POP SWAP2 SWAP1 POP JUMP JUMPDEST PUSH0 DUP1 PUSH2 0x2194 DUP4 PUSH2 0x2BF0 JUMP JUMPDEST SWAP1 POP PUSH0 PUSH20 0xFFFFFFFFFFFFFFFFFFFFFFFFFFFFFFFFFFFFFFFF AND DUP2 PUSH20 0xFFFFFFFFFFFFFFFFFFFFFFFFFFFFFFFFFFFFFFFF AND SUB PUSH2 0x2206 JUMPI DUP3 PUSH1 0x40 MLOAD PUSH32 0x7E27328900000000000000000000000000000000000000000000000000000000 DUP2 MSTORE PUSH1 0x4 ADD PUSH2 0x21FD SWAP2 SWAP1 PUSH2 0x3788 JUMP JUMPDEST PUSH1 0x40 MLOAD DUP1 SWAP2 SUB SWAP1 REVERT JUMPDEST DUP1 SWAP2 POP POP SWAP2 SWAP1 POP JUMP JUMPDEST PUSH0 PUSH1 0x4 PUSH0 DUP4 DUP2 MSTORE PUSH1 0x20 ADD SWAP1 DUP2 MSTORE PUSH1 0x20 ADD PUSH0 KECCAK256 PUSH0 SWAP1 SLOAD SWAP1 PUSH2 0x100 EXP SWAP1 DIV PUSH20 0xFFFFFFFFFFFFFFFFFFFFFFFFFFFFFFFFFFFFFFFF AND SWAP1 POP SWAP2 SWAP1 POP JUMP JUMPDEST PUSH2 0x2250 PUSH2 0x23C2 JUMP JUMPDEST PUSH20 0xFFFFFFFFFFFFFFFFFFFFFFFFFFFFFFFFFFFFFFFF AND PUSH2 0x226E PUSH2 0x17E1 JUMP JUMPDEST PUSH20 0xFFFFFFFFFFFFFFFFFFFFFFFFFFFFFFFFFFFFFFFF AND EQ PUSH2 0x22CD JUMPI PUSH2 0x2291 PUSH2 0x23C2 JUMP JUMPDEST PUSH1 0x40 MLOAD PUSH32 0x118CDAA700000000000000000000000000000000000000000000000000000000 DUP2 MSTORE PUSH1 0x4 ADD PUSH2 0x22C4 SWAP2 SWAP1 PUSH2 0x3722 JUMP JUMPDEST PUSH1 0x40 MLOAD DUP1 SWAP2 SUB SWAP1 REVERT JUMPDEST JUMP JUMPDEST PUSH2 0x22D7 PUSH2 0xF7E JUMP JUMPDEST ISZERO PUSH2 0x2317 JUMPI PUSH1 0x40 MLOAD PUSH32 0x8C379A000000000000000000000000000000000000000000000000000000000 DUP2 MSTORE PUSH1 0x4 ADD PUSH2 0x230E SWAP1 PUSH2 0x46CD JUMP JUMPDEST PUSH1 0x40 MLOAD DUP1 SWAP2 SUB SWAP1 REVERT JUMPDEST JUMP JUMPDEST PUSH0 PUSH32 0xFFFFFFFFFFFFFFFFFFFFFFFFFFFFFFFFFFFFFFFFFFFFFFFFFFFFFFFFFFF24460 DUP3 PUSH0 ADD MLOAD PUSH1 0x7 SIGNEXTEND SLT ISZERO DUP1 ISZERO PUSH2 0x2359 JUMPI POP PUSH3 0xDBBA0 DUP3 PUSH0 ADD MLOAD PUSH1 0x7 SIGNEXTEND SGT ISZERO JUMPDEST DUP1 ISZERO PUSH2 0x238C JUMPI POP PUSH32 0xFFFFFFFFFFFFFFFFFFFFFFFFFFFFFFFFFFFFFFFFFFFFFFFFFFFFFFFFFFE488C0 DUP3 PUSH1 0x20 ADD MLOAD PUSH1 0x7 SIGNEXTEND SLT ISZERO JUMPDEST DUP1 ISZERO PUSH2 0x23A2 JUMPI POP PUSH3 0x1B7740 DUP3 PUSH1 0x20 ADD MLOAD PUSH1 0x7 SIGNEXTEND SGT ISZERO JUMPDEST DUP1 ISZERO PUSH2 0x23BB JUMPI POP PUSH0 DUP3 PUSH1 0x40 ADD MLOAD PUSH8 0xFFFFFFFFFFFFFFFF AND GT JUMPDEST SWAP1 POP SWAP2 SWAP1 POP JUMP JUMPDEST PUSH0 CALLER SWAP1 POP SWAP1 JUMP JUMPDEST PUSH0 PUSH2 0x23D2 PUSH2 0x22CF JUMP JUMPDEST PUSH1 0x8 PUSH0 DUP5 DUP2 MSTORE PUSH1 0x20 ADD SWAP1 DUP2 MSTORE PUSH1 0x20 ADD PUSH0 KECCAK256 PUSH1 0x5 ADD PUSH1 0x14 SWAP1 SLOAD SWAP1 PUSH2 0x100 EXP SWAP1 DIV PUSH1 0xFF AND ISZERO PUSH2 0x2434 JUMPI PUSH1 0x40 MLOAD PUSH32 0x8C379A000000000000000000000000000000000000000000000000000000000 DUP2 MSTORE PUSH1 0x4 ADD PUSH2 0x242B SWAP1 PUSH2 0x4735 JUMP JUMPDEST PUSH1 0x40 MLOAD DUP1 SWAP2 SUB SWAP1 REVERT JUMPDEST PUSH2 0x243F DUP5 DUP5 DUP5 PUSH2 0x2C29 JUMP JUMPDEST SWAP1 POP SWAP4 SWAP3 POP POP POP JUMP JUMPDEST PUSH2 0x2450 PUSH2 0x2E34 JUMP JUMPDEST PUSH0 PUSH1 0x6 PUSH1 0x14 PUSH2 0x100 EXP DUP2 SLOAD DUP2 PUSH1 0xFF MUL NOT AND SWAP1 DUP4 ISZERO ISZERO MUL OR SWAP1 SSTORE POP PUSH32 0x5DB9EE0A495BF2E6FF9C91A7834C1BA4FDD244A5E8AA4E537BD38AEAE4B073AA PUSH2 0x2493 PUSH2 0x23C2 JUMP JUMPDEST PUSH1 0x40 MLOAD PUSH2 0x24A0 SWAP2 SWAP1 PUSH2 0x3722 JUMP JUMPDEST PUSH1 0x40 MLOAD DUP1 SWAP2 SUB SWAP1 LOG1 JUMP JUMPDEST PUSH1 0x1 DUP2 PUSH0 ADD PUSH0 DUP3 DUP3 SLOAD ADD SWAP3 POP POP DUP2 SWAP1 SSTORE POP POP JUMP JUMPDEST PUSH0 DUP2 PUSH0 ADD SLOAD SWAP1 POP SWAP2 SWAP1 POP JUMP JUMPDEST PUSH2 0x24E3 DUP3 DUP3 PUSH1 0x40 MLOAD DUP1 PUSH1 0x20 ADD PUSH1 0x40 MSTORE DUP1 PUSH0 DUP2 MSTORE POP PUSH2 0x2E7D JUMP JUMPDEST POP POP JUMP JUMPDEST PUSH0 DUP1 DUP4 PUSH0 ADD MLOAD DUP4 PUSH0 ADD MLOAD PUSH2 0x24FB SWAP2 SWAP1 PUSH2 0x4753 JUMP JUMPDEST SWAP1 POP PUSH0 DUP5 PUSH1 0x20 ADD MLOAD DUP5 PUSH1 0x20 ADD MLOAD PUSH2 0x2512 SWAP2 SWAP1 PUSH2 0x4753 JUMP JUMPDEST SWAP1 POP PUSH0 DUP1 DUP4 PUSH1 0x7 SIGNEXTEND SLT PUSH2 0x2525 JUMPI DUP3 PUSH2 0x2530 JUMP JUMPDEST DUP3 PUSH2 0x252F SWAP1 PUSH2 0x47B2 JUMP JUMPDEST JUMPDEST SWAP1 POP PUSH0 DUP1 DUP4 PUSH1 0x7 SIGNEXTEND SLT PUSH2 0x2543 JUMPI DUP3 PUSH2 0x254E JUMP JUMPDEST DUP3 PUSH2 0x254D SWAP1 PUSH2 0x47B2 JUMP JUMPDEST JUMPDEST SWAP1 POP PUSH0 DUP2 PUSH8 0xFFFFFFFFFFFFFFFF AND DUP3 PUSH8 0xFFFFFFFFFFFFFFFF AND PUSH2 0x2571 SWAP2 SWAP1 PUSH2 0x47F8 JUMP JUMPDEST DUP4 PUSH8 0xFFFFFFFFFFFFFFFF AND DUP5 PUSH8 0xFFFFFFFFFFFFFFFF AND PUSH2 0x2591 SWAP2 SWAP1 PUSH2 0x47F8 JUMP JUMPDEST PUSH2 0x259B SWAP2 SWAP1 PUSH2 0x43A5 JUMP JUMPDEST SWAP1 POP PUSH3 0x1B198 DUP2 PUSH2 0x25AC SWAP2 SWAP1 PUSH2 0x47F8 JUMP JUMPDEST SWAP6 POP POP POP POP POP POP SWAP3 SWAP2 POP POP JUMP JUMPDEST PUSH0 DUP1 PUSH1 0xF SLOAD PUSH1 0xF SLOAD DUP6 PUSH2 0x25CC SWAP2 SWAP1 PUSH2 0x43A5 JUMP JUMPDEST PUSH2 0x25D6 SWAP2 SWAP1 PUSH2 0x47F8 JUMP JUMPDEST PUSH1 0xE SLOAD DUP6 DUP7 PUSH2 0x25E5 SWAP2 SWAP1 PUSH2 0x47F8 JUMP JUMPDEST PUSH2 0x25EF SWAP2 SWAP1 PUSH2 0x47F8 JUMP JUMPDEST PUSH2 0x25F9 SWAP2 SWAP1 PUSH2 0x4866 JUMP JUMPDEST SWAP1 POP PUSH0 PUSH1 0x10 SLOAD DUP5 PUSH2 0x260A SWAP2 SWAP1 PUSH2 0x4866 JUMP JUMPDEST SWAP1 POP DUP1 DUP3 PUSH2 0x2618 SWAP2 SWAP1 PUSH2 0x43A5 JUMP JUMPDEST SWAP3 POP POP POP SWAP3 SWAP2 POP POP JUMP JUMPDEST PUSH0 DUP1 DUP5 PUSH0 ADD MLOAD DUP5 PUSH0 ADD MLOAD PUSH2 0x2636 SWAP2 SWAP1 PUSH2 0x4753 JUMP JUMPDEST SWAP1 POP PUSH0 DUP6 PUSH1 0x20 ADD MLOAD DUP6 PUSH1 0x20 ADD MLOAD PUSH2 0x264D SWAP2 SWAP1 PUSH2 0x4753 JUMP JUMPDEST SWAP1 POP PUSH0 DUP1 DUP4 PUSH1 0x7 SIGNEXTEND SLT PUSH2 0x2660 JUMPI DUP3 PUSH2 0x266B JUMP JUMPDEST DUP3 PUSH2 0x266A SWAP1 PUSH2 0x47B2 JUMP JUMPDEST JUMPDEST SWAP1 POP PUSH0 DUP1 DUP4 PUSH1 0x7 SIGNEXTEND SLT PUSH2 0x267E JUMPI DUP3 PUSH2 0x2689 JUMP JUMPDEST DUP3 PUSH2 0x2688 SWAP1 PUSH2 0x47B2 JUMP JUMPDEST JUMPDEST SWAP1 POP PUSH0 DUP2 PUSH8 0xFFFFFFFFFFFFFFFF AND DUP3 PUSH8 0xFFFFFFFFFFFFFFFF AND PUSH2 0x26AC SWAP2 SWAP1 PUSH2 0x47F8 JUMP JUMPDEST DUP4 PUSH8 0xFFFFFFFFFFFFFFFF AND DUP5 PUSH8 0xFFFFFFFFFFFFFFFF AND PUSH2 0x26CC SWAP2 SWAP1 PUSH2 0x47F8 JUMP JUMPDEST PUSH2 0x26D6 SWAP2 SWAP1 PUSH2 0x43A5 JUMP JUMPDEST SWAP1 POP PUSH0 PUSH3 0x1B198 DUP3 PUSH2 0x26E8 SWAP2 SWAP1 PUSH2 0x47F8 JUMP JUMPDEST SWAP1 POP PUSH0 PUSH1 0x64 PUSH1 0x8 PUSH0 DUP15 DUP2 MSTORE PUSH1 0x20 ADD SWAP1 DUP2 MSTORE PUSH1 0x20 ADD PUSH0 KECCAK256 PUSH1 0x7 ADD SLOAD DUP4 PUSH2 0x270D SWAP2 SWAP1 PUSH2 0x47F8 JUMP JUMPDEST PUSH2 0x2717 SWAP2 SWAP1 PUSH2 0x4866 JUMP JUMPDEST SWAP1 POP PUSH0 DUP10 PUSH2 0x2710 PUSH2 0x2728 SWAP2 SWAP1 PUSH2 0x43A5 JUMP JUMPDEST SWAP1 POP PUSH0 PUSH2 0x2710 DUP3 DUP5 PUSH2 0x273A SWAP2 SWAP1 PUSH2 0x47F8 JUMP JUMPDEST PUSH2 0x2744 SWAP2 SWAP1 PUSH2 0x4866 JUMP JUMPDEST SWAP1 POP DUP1 SWAP10 POP POP POP POP POP POP POP POP POP POP SWAP5 SWAP4 POP POP POP POP JUMP JUMPDEST PUSH0 PUSH1 0x6 PUSH0 SWAP1 SLOAD SWAP1 PUSH2 0x100 EXP SWAP1 DIV PUSH20 0xFFFFFFFFFFFFFFFFFFFFFFFFFFFFFFFFFFFFFFFF AND SWAP1 POP DUP2 PUSH1 0x6 PUSH0 PUSH2 0x100 EXP DUP2 SLOAD DUP2 PUSH20 0xFFFFFFFFFFFFFFFFFFFFFFFFFFFFFFFFFFFFFFFF MUL NOT AND SWAP1 DUP4 PUSH20 0xFFFFFFFFFFFFFFFFFFFFFFFFFFFFFFFFFFFFFFFF AND MUL OR SWAP1 SSTORE POP DUP2 PUSH20 0xFFFFFFFFFFFFFFFFFFFFFFFFFFFFFFFFFFFFFFFF AND DUP2 PUSH20 0xFFFFFFFFFFFFFFFFFFFFFFFFFFFFFFFFFFFFFFFF AND PUSH32 0x8BE0079C531659141344CD1FD0A4F28419497F9722A3DAAFE3B4186F6B6457E0 PUSH1 0x40 MLOAD PUSH1 0x40 MLOAD DUP1 SWAP2 SUB SWAP1 LOG3 POP POP JUMP JUMPDEST PUSH2 0x2825 PUSH2 0x22CF JUMP JUMPDEST PUSH1 0x1 PUSH1 0x6 PUSH1 0x14 PUSH2 0x100 EXP DUP2 SLOAD DUP2 PUSH1 0xFF MUL NOT AND SWAP1 DUP4 ISZERO ISZERO MUL OR SWAP1 SSTORE POP PUSH32 0x62E78CEA01BEE320CD4E420270B5EA74000D11B0C9F74754EBDBFC544B05A258 PUSH2 0x2869 PUSH2 0x23C2 JUMP JUMPDEST PUSH1 0x40 MLOAD PUSH2 0x2876 SWAP2 SWAP1 PUSH2 0x3722 JUMP JUMPDEST PUSH1 0x40 MLOAD DUP1 SWAP2 SUB SWAP1 LOG1 JUMP JUMPDEST PUSH0 DUP1 DUP3 PUSH0 ADD MLOAD DUP5 PUSH0 ADD MLOAD PUSH2 0x2894 SWAP2 SWAP1 PUSH2 0x4753 JUMP JUMPDEST SWAP1 POP PUSH0 DUP4 PUSH1 0x20 ADD MLOAD DUP6 PUSH1 0x20 ADD MLOAD PUSH2 0x28AB SWAP2 SWAP1 PUSH2 0x4753 JUMP JUMPDEST SWAP1 POP PUSH0 DUP1 DUP4 PUSH1 0x7 SIGNEXTEND SLT PUSH2 0x28BE JUMPI DUP3 PUSH2 0x28C9 JUMP JUMPDEST DUP3 PUSH2 0x28C8 SWAP1 PUSH2 0x47B2 JUMP JUMPDEST JUMPDEST SWAP1 POP PUSH0 DUP1 DUP4 PUSH1 0x7 SIGNEXTEND SLT PUSH2 0x28DC JUMPI DUP3 PUSH2 0x28E7 JUMP JUMPDEST DUP3 PUSH2 0x28E6 SWAP1 PUSH2 0x47B2 JUMP JUMPDEST JUMPDEST SWAP1 POP PUSH0 DUP2 PUSH8 0xFFFFFFFFFFFFFFFF AND DUP3 PUSH8 0xFFFFFFFFFFFFFFFF AND PUSH2 0x290A SWAP2 SWAP1 PUSH2 0x47F8 JUMP JUMPDEST DUP4 PUSH8 0xFFFFFFFFFFFFFFFF AND DUP5 PUSH8 0xFFFFFFFFFFFFFFFF AND PUSH2 0x292A SWAP2 SWAP1 PUSH2 0x47F8 JUMP JUMPDEST PUSH2 0x2934 SWAP2 SWAP1 PUSH2 0x43A5 JUMP JUMPDEST SWAP1 POP PUSH3 0x1B198 DUP1 DUP3 PUSH2 0x2946 SWAP2 SWAP1 PUSH2 0x47F8 JUMP JUMPDEST PUSH2 0x2950 SWAP2 SWAP1 PUSH2 0x47F8 JUMP JUMPDEST SWAP1 POP PUSH1 0x64 DUP2 GT ISZERO SWAP6 POP POP POP POP POP POP SWAP3 SWAP2 POP POP JUMP JUMPDEST PUSH0 DUP4 PUSH20 0xFFFFFFFFFFFFFFFFFFFFFFFFFFFFFFFFFFFFFFFF AND EXTCODESIZE GT ISZERO PUSH2 0x2B09 JUMPI DUP3 PUSH20 0xFFFFFFFFFFFFFFFFFFFFFFFFFFFFFFFFFFFFFFFF AND PUSH4 0x150B7A02 DUP7 DUP7 DUP6 DUP6 PUSH1 0x40 MLOAD DUP6 PUSH4 0xFFFFFFFF AND PUSH1 0xE0 SHL DUP2 MSTORE PUSH1 0x4 ADD PUSH2 0x29C2 SWAP5 SWAP4 SWAP3 SWAP2 SWAP1 PUSH2 0x48E8 JUMP JUMPDEST PUSH1 0x20 PUSH1 0x40 MLOAD DUP1 DUP4 SUB DUP2 PUSH0 DUP8 GAS CALL SWAP3 POP POP POP DUP1 ISZERO PUSH2 0x29FD JUMPI POP PUSH1 0x40 MLOAD RETURNDATASIZE PUSH1 0x1F NOT PUSH1 0x1F DUP3 ADD AND DUP3 ADD DUP1 PUSH1 0x40 MSTORE POP DUP2 ADD SWAP1 PUSH2 0x29FA SWAP2 SWAP1 PUSH2 0x4946 JUMP JUMPDEST PUSH1 0x1 JUMPDEST PUSH2 0x2A7E JUMPI RETURNDATASIZE DUP1 PUSH0 DUP2 EQ PUSH2 0x2A2B JUMPI PUSH1 0x40 MLOAD SWAP2 POP PUSH1 0x1F NOT PUSH1 0x3F RETURNDATASIZE ADD AND DUP3 ADD PUSH1 0x40 MSTORE RETURNDATASIZE DUP3 MSTORE RETURNDATASIZE PUSH0 PUSH1 0x20 DUP5 ADD RETURNDATACOPY PUSH2 0x2A30 JUMP JUMPDEST PUSH1 0x60 SWAP2 POP JUMPDEST POP PUSH0 DUP2 MLOAD SUB PUSH2 0x2A76 JUMPI DUP4 PUSH1 0x40 MLOAD PUSH32 0x64A0AE9200000000000000000000000000000000000000000000000000000000 DUP2 MSTORE PUSH1 0x4 ADD PUSH2 0x2A6D SWAP2 SWAP1 PUSH2 0x3722 JUMP JUMPDEST PUSH1 0x40 MLOAD DUP1 SWAP2 SUB SWAP1 REVERT JUMPDEST DUP1 MLOAD DUP2 PUSH1 0x20 ADD REVERT JUMPDEST PUSH4 0x150B7A02 PUSH1 0xE0 SHL PUSH28 0xFFFFFFFFFFFFFFFFFFFFFFFFFFFFFFFFFFFFFFFFFFFFFFFFFFFFFFFF NOT AND DUP2 PUSH28 0xFFFFFFFFFFFFFFFFFFFFFFFFFFFFFFFFFFFFFFFFFFFFFFFFFFFFFFFF NOT AND EQ PUSH2 0x2B07 JUMPI DUP4 PUSH1 0x40 MLOAD PUSH32 0x64A0AE9200000000000000000000000000000000000000000000000000000000 DUP2 MSTORE PUSH1 0x4 ADD PUSH2 0x2AFE SWAP2 SWAP1 PUSH2 0x3722 JUMP JUMPDEST PUSH1 0x40 MLOAD DUP1 SWAP2 SUB SWAP1 REVERT JUMPDEST POP JUMPDEST POP POP POP POP POP JUMP JUMPDEST PUSH1 0x60 PUSH1 0x40 MLOAD DUP1 PUSH1 0x20 ADD PUSH1 0x40 MSTORE DUP1 PUSH0 DUP2 MSTORE POP SWAP1 POP SWAP1 JUMP JUMPDEST PUSH1 0x60 PUSH0 PUSH1 0x1 PUSH2 0x2B34 DUP5 PUSH2 0x2EA0 JUMP JUMPDEST ADD SWAP1 POP PUSH0 DUP2 PUSH8 0xFFFFFFFFFFFFFFFF DUP2 GT ISZERO PUSH2 0x2B52 JUMPI PUSH2 0x2B51 PUSH2 0x3A47 JUMP JUMPDEST JUMPDEST PUSH1 0x40 MLOAD SWAP1 DUP1 DUP3 MSTORE DUP1 PUSH1 0x1F ADD PUSH1 0x1F NOT AND PUSH1 0x20 ADD DUP3 ADD PUSH1 0x40 MSTORE DUP1 ISZERO PUSH2 0x2B84 JUMPI DUP2 PUSH1 0x20 ADD PUSH1 0x1 DUP3 MUL DUP1 CALLDATASIZE DUP4 CALLDATACOPY DUP1 DUP3 ADD SWAP2 POP POP SWAP1 POP JUMPDEST POP SWAP1 POP PUSH0 DUP3 PUSH1 0x20 ADD DUP3 ADD SWAP1 POP JUMPDEST PUSH1 0x1 ISZERO PUSH2 0x2BE5 JUMPI DUP1 DUP1 PUSH1 0x1 SWAP1 SUB SWAP2 POP POP PUSH32 0x3031323334353637383961626364656600000000000000000000000000000000 PUSH1 0xA DUP7 MOD BYTE DUP2 MSTORE8 PUSH1 0xA DUP6 DUP2 PUSH2 0x2BDA JUMPI PUSH2 0x2BD9 PUSH2 0x4839 JUMP JUMPDEST JUMPDEST DIV SWAP5 POP PUSH0 DUP6 SUB PUSH2 0x2B91 JUMPI JUMPDEST DUP2 SWAP4 POP POP POP POP SWAP2 SWAP1 POP JUMP JUMPDEST PUSH0 PUSH1 0x2 PUSH0 DUP4 DUP2 MSTORE PUSH1 0x20 ADD SWAP1 DUP2 MSTORE PUSH1 0x20 ADD PUSH0 KECCAK256 PUSH0 SWAP1 SLOAD SWAP1 PUSH2 0x100 EXP SWAP1 DIV PUSH20 0xFFFFFFFFFFFFFFFFFFFFFFFFFFFFFFFFFFFFFFFF AND SWAP1 POP SWAP2 SWAP1 POP JUMP JUMPDEST PUSH0 DUP1 PUSH2 0x2C34 DUP5 PUSH2 0x2BF0 JUMP JUMPDEST SWAP1 POP PUSH0 PUSH20 0xFFFFFFFFFFFFFFFFFFFFFFFFFFFFFFFFFFFFFFFF AND DUP4 PUSH20 0xFFFFFFFFFFFFFFFFFFFFFFFFFFFFFFFFFFFFFFFF AND EQ PUSH2 0x2C75 JUMPI PUSH2 0x2C74 DUP2 DUP5 DUP7 PUSH2 0x2FF1 JUMP JUMPDEST JUMPDEST PUSH0 PUSH20 0xFFFFFFFFFFFFFFFFFFFFFFFFFFFFFFFFFFFFFFFF AND DUP2 PUSH20 0xFFFFFFFFFFFFFFFFFFFFFFFFFFFFFFFFFFFFFFFF AND EQ PUSH2 0x2D00 JUMPI PUSH2 0x2CB4 PUSH0 DUP6 PUSH0 DUP1 PUSH2 0x30B4 JUMP JUMPDEST PUSH1 0x1 PUSH1 0x3 PUSH0 DUP4 PUSH20 0xFFFFFFFFFFFFFFFFFFFFFFFFFFFFFFFFFFFFFFFF AND PUSH20 0xFFFFFFFFFFFFFFFFFFFFFFFFFFFFFFFFFFFFFFFF AND DUP2 MSTORE PUSH1 0x20 ADD SWAP1 DUP2 MSTORE PUSH1 0x20 ADD PUSH0 KECCAK256 PUSH0 DUP3 DUP3 SLOAD SUB SWAP3 POP POP DUP2 SWAP1 SSTORE POP JUMPDEST PUSH0 PUSH20 0xFFFFFFFFFFFFFFFFFFFFFFFFFFFFFFFFFFFFFFFF AND DUP6 PUSH20 0xFFFFFFFFFFFFFFFFFFFFFFFFFFFFFFFFFFFFFFFF AND EQ PUSH2 0x2D7F JUMPI PUSH1 0x1 PUSH1 0x3 PUSH0 DUP8 PUSH20 0xFFFFFFFFFFFFFFFFFFFFFFFFFFFFFFFFFFFFFFFF AND PUSH20 0xFFFFFFFFFFFFFFFFFFFFFFFFFFFFFFFFFFFFFFFF AND DUP2 MSTORE PUSH1 0x20 ADD SWAP1 DUP2 MSTORE PUSH1 0x20 ADD PUSH0 KECCAK256 PUSH0 DUP3 DUP3 SLOAD ADD SWAP3 POP POP DUP2 SWAP1 SSTORE POP JUMPDEST DUP5 PUSH1 0x2 PUSH0 DUP7 DUP2 MSTORE PUSH1 0x20 ADD SWAP1 DUP2 MSTORE PUSH1 0x20 ADD PUSH0 KECCAK256 PUSH0 PUSH2 0x100 EXP DUP2 SLOAD DUP2 PUSH20 0xFFFFFFFFFFFFFFFFFFFFFFFFFFFFFFFFFFFFFFFF MUL NOT AND SWAP1 DUP4 PUSH20 0xFFFFFFFFFFFFFFFFFFFFFFFFFFFFFFFFFFFFFFFF AND MUL OR SWAP1 SSTORE POP DUP4 DUP6 PUSH20 0xFFFFFFFFFFFFFFFFFFFFFFFFFFFFFFFFFFFFFFFF AND DUP3 PUSH20 0xFFFFFFFFFFFFFFFFFFFFFFFFFFFFFFFFFFFFFFFF AND PUSH32 0xDDF252AD1BE2C89B69C2B068FC378DAA952BA7F163C4A11628F55A4DF523B3EF PUSH1 0x40 MLOAD PUSH1 0x40 MLOAD DUP1 SWAP2 SUB SWAP1 LOG4 DUP1 SWAP2 POP POP SWAP4 SWAP3 POP POP POP JUMP JUMPDEST PUSH2 0x2E3C PUSH2 0xF7E JUMP JUMPDEST PUSH2 0x2E7B JUMPI PUSH1 0x40 MLOAD PUSH32 0x8C379A000000000000000000000000000000000000000000000000000000000 DUP2 MSTORE PUSH1 0x4 ADD PUSH2 0x2E72 SWAP1 PUSH2 0x49BB JUMP JUMPDEST PUSH1 0x40 MLOAD DUP1 SWAP2 SUB SWAP1 REVERT JUMPDEST JUMP JUMPDEST PUSH2 0x2E87 DUP4 DUP4 PUSH2 0x3273 JUMP JUMPDEST PUSH2 0x2E9B PUSH2 0x2E92 PUSH2 0x23C2 JUMP JUMPDEST PUSH0 DUP6 DUP6 DUP6 PUSH2 0x2964 JUMP JUMPDEST POP POP POP JUMP JUMPDEST PUSH0 DUP1 PUSH0 SWAP1 POP PUSH27 0x184F03E93FF9F4DAA797ED6E38ED64BF6A1F010000000000000000 DUP4 LT PUSH2 0x2EFC JUMPI PUSH27 0x184F03E93FF9F4DAA797ED6E38ED64BF6A1F010000000000000000 DUP4 DUP2 PUSH2 0x2EF2 JUMPI PUSH2 0x2EF1 PUSH2 0x4839 JUMP JUMPDEST JUMPDEST DIV SWAP3 POP PUSH1 0x40 DUP2 ADD SWAP1 POP JUMPDEST PUSH14 0x4EE2D6D415B85ACEF8100000000 DUP4 LT PUSH2 0x2F39 JUMPI PUSH14 0x4EE2D6D415B85ACEF8100000000 DUP4 DUP2 PUSH2 0x2F2F JUMPI PUSH2 0x2F2E PUSH2 0x4839 JUMP JUMPDEST JUMPDEST DIV SWAP3 POP PUSH1 0x20 DUP2 ADD SWAP1 POP JUMPDEST PUSH7 0x2386F26FC10000 DUP4 LT PUSH2 0x2F68 JUMPI PUSH7 0x2386F26FC10000 DUP4 DUP2 PUSH2 0x2F5E JUMPI PUSH2 0x2F5D PUSH2 0x4839 JUMP JUMPDEST JUMPDEST DIV SWAP3 POP PUSH1 0x10 DUP2 ADD SWAP1 POP JUMPDEST PUSH4 0x5F5E100 DUP4 LT PUSH2 0x2F91 JUMPI PUSH4 0x5F5E100 DUP4 DUP2 PUSH2 0x2F87 JUMPI PUSH2 0x2F86 PUSH2 0x4839 JUMP JUMPDEST JUMPDEST DIV SWAP3 POP PUSH1 0x8 DUP2 ADD SWAP1 POP JUMPDEST PUSH2 0x2710 DUP4 LT PUSH2 0x2FB6 JUMPI PUSH2 0x2710 DUP4 DUP2 PUSH2 0x2FAC JUMPI PUSH2 0x2FAB PUSH2 0x4839 JUMP JUMPDEST JUMPDEST DIV SWAP3 POP PUSH1 0x4 DUP2 ADD SWAP1 POP JUMPDEST PUSH1 0x64 DUP4 LT PUSH2 0x2FD9 JUMPI PUSH1 0x64 DUP4 DUP2 PUSH2 0x2FCF JUMPI PUSH2 0x2FCE PUSH2 0x4839 JUMP JUMPDEST JUMPDEST DIV SWAP3 POP PUSH1 0x2 DUP2 ADD SWAP1 POP JUMPDEST PUSH1 0xA DUP4 LT PUSH2 0x2FE8 JUMPI PUSH1 0x1 DUP2 ADD SWAP1 POP JUMPDEST DUP1 SWAP2 POP POP SWAP2 SWAP1 POP JUMP JUMPDEST PUSH2 0x2FFC DUP4 DUP4 DUP4 PUSH2 0x3366 JUMP JUMPDEST PUSH2 0x30AF JUMPI PUSH0 PUSH20 0xFFFFFFFFFFFFFFFFFFFFFFFFFFFFFFFFFFFFFFFF AND DUP4 PUSH20 0xFFFFFFFFFFFFFFFFFFFFFFFFFFFFFFFFFFFFFFFF AND SUB PUSH2 0x3070 JUMPI DUP1 PUSH1 0x40 MLOAD PUSH32 0x7E27328900000000000000000000000000000000000000000000000000000000 DUP2 MSTORE PUSH1 0x4 ADD PUSH2 0x3067 SWAP2 SWAP1 PUSH2 0x3788 JUMP JUMPDEST PUSH1 0x40 MLOAD DUP1 SWAP2 SUB SWAP1 REVERT JUMPDEST DUP2 DUP2 PUSH1 0x40 MLOAD PUSH32 0x177E802F00000000000000000000000000000000000000000000000000000000 DUP2 MSTORE PUSH1 0x4 ADD PUSH2 0x30A6 SWAP3 SWAP2 SWAP1 PUSH2 0x49D9 JUMP JUMPDEST PUSH1 0x40 MLOAD DUP1 SWAP2 SUB SWAP1 REVERT JUMPDEST POP POP POP JUMP JUMPDEST DUP1 DUP1 PUSH2 0x30EC JUMPI POP PUSH0 PUSH20 0xFFFFFFFFFFFFFFFFFFFFFFFFFFFFFFFFFFFFFFFF AND DUP3 PUSH20 0xFFFFFFFFFFFFFFFFFFFFFFFFFFFFFFFFFFFFFFFF AND EQ ISZERO JUMPDEST ISZERO PUSH2 0x321E JUMPI PUSH0 PUSH2 0x30FB DUP5 PUSH2 0x2189 JUMP JUMPDEST SWAP1 POP PUSH0 PUSH20 0xFFFFFFFFFFFFFFFFFFFFFFFFFFFFFFFFFFFFFFFF AND DUP4 PUSH20 0xFFFFFFFFFFFFFFFFFFFFFFFFFFFFFFFFFFFFFFFF AND EQ ISZERO DUP1 ISZERO PUSH2 0x3165 JUMPI POP DUP3 PUSH20 0xFFFFFFFFFFFFFFFFFFFFFFFFFFFFFFFFFFFFFFFF AND DUP2 PUSH20 0xFFFFFFFFFFFFFFFFFFFFFFFFFFFFFFFFFFFFFFFF AND EQ ISZERO JUMPDEST DUP1 ISZERO PUSH2 0x3178 JUMPI POP PUSH2 0x3176 DUP2 DUP5 PUSH2 0x200E JUMP JUMPDEST ISZERO JUMPDEST ISZERO PUSH2 0x31BA JUMPI DUP3 PUSH1 0x40 MLOAD PUSH32 0xA9FBF51F00000000000000000000000000000000000000000000000000000000 DUP2 MSTORE PUSH1 0x4 ADD PUSH2 0x31B1 SWAP2 SWAP1 PUSH2 0x3722 JUMP JUMPDEST PUSH1 0x40 MLOAD DUP1 SWAP2 SUB SWAP1 REVERT JUMPDEST DUP2 ISZERO PUSH2 0x321C JUMPI DUP4 DUP6 PUSH20 0xFFFFFFFFFFFFFFFFFFFFFFFFFFFFFFFFFFFFFFFF AND DUP3 PUSH20 0xFFFFFFFFFFFFFFFFFFFFFFFFFFFFFFFFFFFFFFFF AND PUSH32 0x8C5BE1E5EBEC7D5BD14F71427D1E84F3DD0314C0F7B2291E5B200AC8C7C3B925 PUSH1 0x40 MLOAD PUSH1 0x40 MLOAD DUP1 SWAP2 SUB SWAP1 LOG4 JUMPDEST POP JUMPDEST DUP4 PUSH1 0x4 PUSH0 DUP6 DUP2 MSTORE PUSH1 0x20 ADD SWAP1 DUP2 MSTORE PUSH1 0x20 ADD PUSH0 KECCAK256 PUSH0 PUSH2 0x100 EXP DUP2 SLOAD DUP2 PUSH20 0xFFFFFFFFFFFFFFFFFFFFFFFFFFFFFFFFFFFFFFFF MUL NOT AND SWAP1 DUP4 PUSH20 0xFFFFFFFFFFFFFFFFFFFFFFFFFFFFFFFFFFFFFFFF AND MUL OR SWAP1 SSTORE POP POP POP POP POP JUMP JUMPDEST PUSH0 PUSH20 0xFFFFFFFFFFFFFFFFFFFFFFFFFFFFFFFFFFFFFFFF AND DUP3 PUSH20 0xFFFFFFFFFFFFFFFFFFFFFFFFFFFFFFFFFFFFFFFF AND SUB PUSH2 0x32E3 JUMPI PUSH0 PUSH1 0x40 MLOAD PUSH32 0x64A0AE9200000000000000000000000000000000000000000000000000000000 DUP2 MSTORE PUSH1 0x4 ADD PUSH2 0x32DA SWAP2 SWAP1 PUSH2 0x3722 JUMP JUMPDEST PUSH1 0x40 MLOAD DUP1 SWAP2 SUB SWAP1 REVERT JUMPDEST PUSH0 PUSH2 0x32EF DUP4 DUP4 PUSH0 PUSH2 0x23C9 JUMP JUMPDEST SWAP1 POP PUSH0 PUSH20 0xFFFFFFFFFFFFFFFFFFFFFFFFFFFFFFFFFFFFFFFF AND DUP2 PUSH20 0xFFFFFFFFFFFFFFFFFFFFFFFFFFFFFFFFFFFFFFFF AND EQ PUSH2 0x3361 JUMPI PUSH0 PUSH1 0x40 MLOAD PUSH32 0x73C6AC6E00000000000000000000000000000000000000000000000000000000 DUP2 MSTORE PUSH1 0x4 ADD PUSH2 0x3358 SWAP2 SWAP1 PUSH2 0x3722 JUMP JUMPDEST PUSH1 0x40 MLOAD DUP1 SWAP2 SUB SWAP1 REVERT JUMPDEST POP POP POP JUMP JUMPDEST PUSH0 DUP1 PUSH20 0xFFFFFFFFFFFFFFFFFFFFFFFFFFFFFFFFFFFFFFFF AND DUP4 PUSH20 0xFFFFFFFFFFFFFFFFFFFFFFFFFFFFFFFFFFFFFFFF AND EQ ISZERO DUP1 ISZERO PUSH2 0x341D JUMPI POP DUP3 PUSH20 0xFFFFFFFFFFFFFFFFFFFFFFFFFFFFFFFFFFFFFFFF AND DUP5 PUSH20 0xFFFFFFFFFFFFFFFFFFFFFFFFFFFFFFFFFFFFFFFF AND EQ DUP1 PUSH2 0x33DE JUMPI POP PUSH2 0x33DD DUP5 DUP5 PUSH2 0x200E JUMP JUMPDEST JUMPDEST DUP1 PUSH2 0x341C JUMPI POP DUP3 PUSH20 0xFFFFFFFFFFFFFFFFFFFFFFFFFFFFFFFFFFFFFFFF AND PUSH2 0x3404 DUP4 PUSH2 0x220F JUMP JUMPDEST PUSH20 0xFFFFFFFFFFFFFFFFFFFFFFFFFFFFFFFFFFFFFFFF AND EQ JUMPDEST JUMPDEST SWAP1 POP SWAP4 SWAP3 POP POP POP JUMP JUMPDEST PUSH0 PUSH1 0x40 MLOAD SWAP1 POP SWAP1 JUMP JUMPDEST PUSH0 DUP1 REVERT JUMPDEST PUSH0 DUP1 REVERT JUMPDEST PUSH0 PUSH32 0xFFFFFFFF00000000000000000000000000000000000000000000000000000000 DUP3 AND SWAP1 POP SWAP2 SWAP1 POP JUMP JUMPDEST PUSH2 0x346B DUP2 PUSH2 0x3437 JUMP JUMPDEST DUP2 EQ PUSH2 0x3475 JUMPI PUSH0 DUP1 REVERT JUMPDEST POP JUMP JUMPDEST PUSH0 DUP2 CALLDATALOAD SWAP1 POP PUSH2 0x3486 DUP2 PUSH2 0x3462 JUMP JUMPDEST SWAP3 SWAP2 POP POP JUMP JUMPDEST PUSH0 PUSH1 0x20 DUP3 DUP5 SUB SLT ISZERO PUSH2 0x34A1 JUMPI PUSH2 0x34A0 PUSH2 0x342F JUMP JUMPDEST JUMPDEST PUSH0 PUSH2 0x34AE DUP5 DUP3 DUP6 ADD PUSH2 0x3478 JUMP JUMPDEST SWAP2 POP POP SWAP3 SWAP2 POP POP JUMP JUMPDEST PUSH0 DUP2 ISZERO ISZERO SWAP1 POP SWAP2 SWAP1 POP JUMP JUMPDEST PUSH2 0x34CB DUP2 PUSH2 0x34B7 JUMP JUMPDEST DUP3 MSTORE POP POP JUMP JUMPDEST PUSH0 PUSH1 0x20 DUP3 ADD SWAP1 POP PUSH2 0x34E4 PUSH0 DUP4 ADD DUP5 PUSH2 0x34C2 JUMP JUMPDEST SWAP3 SWAP2 POP POP JUMP JUMPDEST PUSH0 DUP2 MLOAD SWAP1 POP SWAP2 SWAP1 POP JUMP JUMPDEST PUSH0 DUP3 DUP3 MSTORE PUSH1 0x20 DUP3 ADD SWAP1 POP SWAP3 SWAP2 POP POP JUMP JUMPDEST DUP3 DUP2 DUP4 MCOPY PUSH0 DUP4 DUP4 ADD MSTORE POP POP POP JUMP JUMPDEST PUSH0 PUSH1 0x1F NOT PUSH1 0x1F DUP4 ADD AND SWAP1 POP SWAP2 SWAP1 POP JUMP JUMPDEST PUSH0 PUSH2 0x352C DUP3 PUSH2 0x34EA JUMP JUMPDEST PUSH2 0x3536 DUP2 DUP6 PUSH2 0x34F4 JUMP JUMPDEST SWAP4 POP PUSH2 0x3546 DUP2 DUP6 PUSH1 0x20 DUP7 ADD PUSH2 0x3504 JUMP JUMPDEST PUSH2 0x354F DUP2 PUSH2 0x3512 JUMP JUMPDEST DUP5 ADD SWAP2 POP POP SWAP3 SWAP2 POP POP JUMP JUMPDEST PUSH0 PUSH1 0x20 DUP3 ADD SWAP1 POP DUP2 DUP2 SUB PUSH0 DUP4 ADD MSTORE PUSH2 0x3572 DUP2 DUP5 PUSH2 0x3522 JUMP JUMPDEST SWAP1 POP SWAP3 SWAP2 POP POP JUMP JUMPDEST PUSH0 DUP2 SWAP1 POP SWAP2 SWAP1 POP JUMP JUMPDEST PUSH2 0x358C DUP2 PUSH2 0x357A JUMP JUMPDEST DUP2 EQ PUSH2 0x3596 JUMPI PUSH0 DUP1 REVERT JUMPDEST POP JUMP JUMPDEST PUSH0 DUP2 CALLDATALOAD SWAP1 POP PUSH2 0x35A7 DUP2 PUSH2 0x3583 JUMP JUMPDEST SWAP3 SWAP2 POP POP JUMP JUMPDEST PUSH0 PUSH20 0xFFFFFFFFFFFFFFFFFFFFFFFFFFFFFFFFFFFFFFFF DUP3 AND SWAP1 POP SWAP2 SWAP1 POP JUMP JUMPDEST PUSH0 PUSH2 0x35D6 DUP3 PUSH2 0x35AD JUMP JUMPDEST SWAP1 POP SWAP2 SWAP1 POP JUMP JUMPDEST PUSH2 0x35E6 DUP2 PUSH2 0x35CC JUMP JUMPDEST DUP2 EQ PUSH2 0x35F0 JUMPI PUSH0 DUP1 REVERT JUMPDEST POP JUMP JUMPDEST PUSH0 DUP2 CALLDATALOAD SWAP1 POP PUSH2 0x3601 DUP2 PUSH2 0x35DD JUMP JUMPDEST SWAP3 SWAP2 POP POP JUMP JUMPDEST PUSH0 DUP1 REVERT JUMPDEST PUSH0 PUSH1 0x60 DUP3 DUP5 SUB SLT ISZERO PUSH2 0x3620 JUMPI PUSH2 0x361F PUSH2 0x3607 JUMP JUMPDEST JUMPDEST DUP2 SWAP1 POP SWAP3 SWAP2 POP POP JUMP JUMPDEST PUSH0 DUP2 SWAP1 POP SWAP2 SWAP1 POP JUMP JUMPDEST PUSH2 0x363B DUP2 PUSH2 0x3629 JUMP JUMPDEST DUP2 EQ PUSH2 0x3645 JUMPI PUSH0 DUP1 REVERT JUMPDEST POP JUMP JUMPDEST PUSH0 DUP2 CALLDATALOAD SWAP1 POP PUSH2 0x3656 DUP2 PUSH2 0x3632 JUMP JUMPDEST SWAP3 SWAP2 POP POP JUMP JUMPDEST PUSH0 DUP1 PUSH0 DUP1 PUSH0 DUP1 PUSH2 0x140 DUP8 DUP10 SUB SLT ISZERO PUSH2 0x3677 JUMPI PUSH2 0x3676 PUSH2 0x342F JUMP JUMPDEST JUMPDEST PUSH0 PUSH2 0x3684 DUP10 DUP3 DUP11 ADD PUSH2 0x3599 JUMP JUMPDEST SWAP7 POP POP PUSH1 0x20 PUSH2 0x3695 DUP10 DUP3 DUP11 ADD PUSH2 0x35F3 JUMP JUMPDEST SWAP6 POP POP PUSH1 0x40 PUSH2 0x36A6 DUP10 DUP3 DUP11 ADD PUSH2 0x360B JUMP JUMPDEST SWAP5 POP POP PUSH1 0xA0 PUSH2 0x36B7 DUP10 DUP3 DUP11 ADD PUSH2 0x360B JUMP JUMPDEST SWAP4 POP POP PUSH2 0x100 PUSH2 0x36C9 DUP10 DUP3 DUP11 ADD PUSH2 0x3599 JUMP JUMPDEST SWAP3 POP POP PUSH2 0x120 PUSH2 0x36DB DUP10 DUP3 DUP11 ADD PUSH2 0x3648 JUMP JUMPDEST SWAP2 POP POP SWAP3 SWAP6 POP SWAP3 SWAP6 POP SWAP3 SWAP6 JUMP JUMPDEST PUSH0 PUSH1 0x20 DUP3 DUP5 SUB SLT ISZERO PUSH2 0x36FD JUMPI PUSH2 0x36FC PUSH2 0x342F JUMP JUMPDEST JUMPDEST PUSH0 PUSH2 0x370A DUP5 DUP3 DUP6 ADD PUSH2 0x3599 JUMP JUMPDEST SWAP2 POP POP SWAP3 SWAP2 POP POP JUMP JUMPDEST PUSH2 0x371C DUP2 PUSH2 0x35CC JUMP JUMPDEST DUP3 MSTORE POP POP JUMP JUMPDEST PUSH0 PUSH1 0x20 DUP3 ADD SWAP1 POP PUSH2 0x3735 PUSH0 DUP4 ADD DUP5 PUSH2 0x3713 JUMP JUMPDEST SWAP3 SWAP2 POP POP JUMP JUMPDEST PUSH0 DUP1 PUSH1 0x40 DUP4 DUP6 SUB SLT ISZERO PUSH2 0x3751 JUMPI PUSH2 0x3750 PUSH2 0x342F JUMP JUMPDEST JUMPDEST PUSH0 PUSH2 0x375E DUP6 DUP3 DUP7 ADD PUSH2 0x35F3 JUMP JUMPDEST SWAP3 POP POP PUSH1 0x20 PUSH2 0x376F DUP6 DUP3 DUP7 ADD PUSH2 0x3599 JUMP JUMPDEST SWAP2 POP POP SWAP3 POP SWAP3 SWAP1 POP JUMP JUMPDEST PUSH2 0x3782 DUP2 PUSH2 0x357A JUMP JUMPDEST DUP3 MSTORE POP POP JUMP JUMPDEST PUSH0 PUSH1 0x20 DUP3 ADD SWAP1 POP PUSH2 0x379B PUSH0 DUP4 ADD DUP5 PUSH2 0x3779 JUMP JUMPDEST SWAP3 SWAP2 POP POP JUMP JUMPDEST PUSH0 DUP1 PUSH0 PUSH1 0x60 DUP5 DUP7 SUB SLT ISZERO PUSH2 0x37B8 JUMPI PUSH2 0x37B7 PUSH2 0x342F JUMP JUMPDEST JUMPDEST PUSH0 PUSH2 0x37C5 DUP7 DUP3 DUP8 ADD PUSH2 0x3599 JUMP JUMPDEST SWAP4 POP POP PUSH1 0x20 PUSH2 0x37D6 DUP7 DUP3 DUP8 ADD PUSH2 0x3599 JUMP JUMPDEST SWAP3 POP POP PUSH1 0x40 PUSH2 0x37E7 DUP7 DUP3 DUP8 ADD PUSH2 0x3599 JUMP JUMPDEST SWAP2 POP POP SWAP3 POP SWAP3 POP SWAP3 JUMP JUMPDEST PUSH0 DUP1 PUSH1 0x80 DUP4 DUP6 SUB SLT ISZERO PUSH2 0x3807 JUMPI PUSH2 0x3806 PUSH2 0x342F JUMP JUMPDEST JUMPDEST PUSH0 PUSH2 0x3814 DUP6 DUP3 DUP7 ADD PUSH2 0x3599 JUMP JUMPDEST SWAP3 POP POP PUSH1 0x20 PUSH2 0x3825 DUP6 DUP3 DUP7 ADD PUSH2 0x360B JUMP JUMPDEST SWAP2 POP POP SWAP3 POP SWAP3 SWAP1 POP JUMP JUMPDEST PUSH0 DUP1 PUSH0 PUSH1 0x60 DUP5 DUP7 SUB SLT ISZERO PUSH2 0x3846 JUMPI PUSH2 0x3845 PUSH2 0x342F JUMP JUMPDEST JUMPDEST PUSH0 PUSH2 0x3853 DUP7 DUP3 DUP8 ADD PUSH2 0x35F3 JUMP JUMPDEST SWAP4 POP POP PUSH1 0x20 PUSH2 0x3864 DUP7 DUP3 DUP8 ADD PUSH2 0x35F3 JUMP JUMPDEST SWAP3 POP POP PUSH1 0x40 PUSH2 0x3875 DUP7 DUP3 DUP8 ADD PUSH2 0x3599 JUMP JUMPDEST SWAP2 POP POP SWAP3 POP SWAP3 POP SWAP3 JUMP JUMPDEST PUSH0 DUP2 SWAP1 POP SWAP2 SWAP1 POP JUMP JUMPDEST PUSH0 PUSH2 0x38A2 PUSH2 0x389D PUSH2 0x3898 DUP5 PUSH2 0x35AD JUMP JUMPDEST PUSH2 0x387F JUMP JUMPDEST PUSH2 0x35AD JUMP JUMPDEST SWAP1 POP SWAP2 SWAP1 POP JUMP JUMPDEST PUSH0 PUSH2 0x38B3 DUP3 PUSH2 0x3888 JUMP JUMPDEST SWAP1 POP SWAP2 SWAP1 POP JUMP JUMPDEST PUSH0 PUSH2 0x38C4 DUP3 PUSH2 0x38A9 JUMP JUMPDEST SWAP1 POP SWAP2 SWAP1 POP JUMP JUMPDEST PUSH2 0x38D4 DUP2 PUSH2 0x38BA JUMP JUMPDEST DUP3 MSTORE POP POP JUMP JUMPDEST PUSH0 PUSH1 0x20 DUP3 ADD SWAP1 POP PUSH2 0x38ED PUSH0 DUP4 ADD DUP5 PUSH2 0x38CB JUMP JUMPDEST SWAP3 SWAP2 POP POP JUMP JUMPDEST PUSH0 PUSH1 0x60 DUP3 DUP5 SUB SLT ISZERO PUSH2 0x3908 JUMPI PUSH2 0x3907 PUSH2 0x342F JUMP JUMPDEST JUMPDEST PUSH0 PUSH2 0x3915 DUP5 DUP3 DUP6 ADD PUSH2 0x360B JUMP JUMPDEST SWAP2 POP POP SWAP3 SWAP2 POP POP JUMP JUMPDEST PUSH0 DUP1 PUSH0 PUSH1 0xA0 DUP5 DUP7 SUB SLT ISZERO PUSH2 0x3935 JUMPI PUSH2 0x3934 PUSH2 0x342F JUMP JUMPDEST JUMPDEST PUSH0 PUSH2 0x3942 DUP7 DUP3 DUP8 ADD PUSH2 0x3599 JUMP JUMPDEST SWAP4 POP POP PUSH1 0x20 PUSH2 0x3953 DUP7 DUP3 DUP8 ADD PUSH2 0x360B JUMP JUMPDEST SWAP3 POP POP PUSH1 0x80 PUSH2 0x3964 DUP7 DUP3 DUP8 ADD PUSH2 0x3648 JUMP JUMPDEST SWAP2 POP POP SWAP3 POP SWAP3 POP SWAP3 JUMP JUMPDEST PUSH0 PUSH1 0x20 DUP3 DUP5 SUB SLT ISZERO PUSH2 0x3983 JUMPI PUSH2 0x3982 PUSH2 0x342F JUMP JUMPDEST JUMPDEST PUSH0 PUSH2 0x3990 DUP5 DUP3 DUP6 ADD PUSH2 0x35F3 JUMP JUMPDEST SWAP2 POP POP SWAP3 SWAP2 POP POP JUMP JUMPDEST PUSH0 DUP1 PUSH1 0x40 DUP4 DUP6 SUB SLT ISZERO PUSH2 0x39AF JUMPI PUSH2 0x39AE PUSH2 0x342F JUMP JUMPDEST JUMPDEST PUSH0 PUSH2 0x39BC DUP6 DUP3 DUP7 ADD PUSH2 0x3599 JUMP JUMPDEST SWAP3 POP POP PUSH1 0x20 PUSH2 0x39CD DUP6 DUP3 DUP7 ADD PUSH2 0x3599 JUMP JUMPDEST SWAP2 POP POP SWAP3 POP SWAP3 SWAP1 POP JUMP JUMPDEST PUSH2 0x39E0 DUP2 PUSH2 0x34B7 JUMP JUMPDEST DUP2 EQ PUSH2 0x39EA JUMPI PUSH0 DUP1 REVERT JUMPDEST POP JUMP JUMPDEST PUSH0 DUP2 CALLDATALOAD SWAP1 POP PUSH2 0x39FB DUP2 PUSH2 0x39D7 JUMP JUMPDEST SWAP3 SWAP2 POP POP JUMP JUMPDEST PUSH0 DUP1 PUSH1 0x40 DUP4 DUP6 SUB SLT ISZERO PUSH2 0x3A17 JUMPI PUSH2 0x3A16 PUSH2 0x342F JUMP JUMPDEST JUMPDEST PUSH0 PUSH2 0x3A24 DUP6 DUP3 DUP7 ADD PUSH2 0x35F3 JUMP JUMPDEST SWAP3 POP POP PUSH1 0x20 PUSH2 0x3A35 DUP6 DUP3 DUP7 ADD PUSH2 0x39ED JUMP JUMPDEST SWAP2 POP POP SWAP3 POP SWAP3 SWAP1 POP JUMP JUMPDEST PUSH0 DUP1 REVERT JUMPDEST PUSH0 DUP1 REVERT JUMPDEST PUSH32 0x4E487B7100000000000000000000000000000000000000000000000000000000 PUSH0 MSTORE PUSH1 0x41 PUSH1 0x4 MSTORE PUSH1 0x24 PUSH0 REVERT JUMPDEST PUSH2 0x3A7D DUP3 PUSH2 0x3512 JUMP JUMPDEST DUP2 ADD DUP2 DUP2 LT PUSH8 0xFFFFFFFFFFFFFFFF DUP3 GT OR ISZERO PUSH2 0x3A9C JUMPI PUSH2 0x3A9B PUSH2 0x3A47 JUMP JUMPDEST JUMPDEST DUP1 PUSH1 0x40 MSTORE POP POP POP JUMP JUMPDEST PUSH0 PUSH2 0x3AAE PUSH2 0x3426 JUMP JUMPDEST SWAP1 POP PUSH2 0x3ABA DUP3 DUP3 PUSH2 0x3A74 JUMP JUMPDEST SWAP2 SWAP1 POP JUMP JUMPDEST PUSH0 PUSH8 0xFFFFFFFFFFFFFFFF DUP3 GT ISZERO PUSH2 0x3AD9 JUMPI PUSH2 0x3AD8 PUSH2 0x3A47 JUMP JUMPDEST JUMPDEST PUSH2 0x3AE2 DUP3 PUSH2 0x3512 JUMP JUMPDEST SWAP1 POP PUSH1 0x20 DUP2 ADD SWAP1 POP SWAP2 SWAP1 POP JUMP JUMPDEST DUP3 DUP2 DUP4 CALLDATACOPY PUSH0 DUP4 DUP4 ADD MSTORE POP POP POP JUMP JUMPDEST PUSH0 PUSH2 0x3B0F PUSH2 0x3B0A DUP5 PUSH2 0x3ABF JUMP JUMPDEST PUSH2 0x3AA5 JUMP JUMPDEST SWAP1 POP DUP3 DUP2 MSTORE PUSH1 0x20 DUP2 ADD DUP5 DUP5 DUP5 ADD GT ISZERO PUSH2 0x3B2B JUMPI PUSH2 0x3B2A PUSH2 0x3A43 JUMP JUMPDEST JUMPDEST PUSH2 0x3B36 DUP5 DUP3 DUP6 PUSH2 0x3AEF JUMP JUMPDEST POP SWAP4 SWAP3 POP POP POP JUMP JUMPDEST PUSH0 DUP3 PUSH1 0x1F DUP4 ADD SLT PUSH2 0x3B52 JUMPI PUSH2 0x3B51 PUSH2 0x3A3F JUMP JUMPDEST JUMPDEST DUP2 CALLDATALOAD PUSH2 0x3B62 DUP5 DUP3 PUSH1 0x20 DUP7 ADD PUSH2 0x3AFD JUMP JUMPDEST SWAP2 POP POP SWAP3 SWAP2 POP POP JUMP JUMPDEST PUSH0 DUP1 PUSH0 DUP1 PUSH1 0x80 DUP6 DUP8 SUB SLT ISZERO PUSH2 0x3B83 JUMPI PUSH2 0x3B82 PUSH2 0x342F JUMP JUMPDEST JUMPDEST PUSH0 PUSH2 0x3B90 DUP8 DUP3 DUP9 ADD PUSH2 0x35F3 JUMP JUMPDEST SWAP5 POP POP PUSH1 0x20 PUSH2 0x3BA1 DUP8 DUP3 DUP9 ADD PUSH2 0x35F3 JUMP JUMPDEST SWAP4 POP POP PUSH1 0x40 PUSH2 0x3BB2 DUP8 DUP3 DUP9 ADD PUSH2 0x3599 JUMP JUMPDEST SWAP3 POP POP PUSH1 0x60 DUP6 ADD CALLDATALOAD PUSH8 0xFFFFFFFFFFFFFFFF DUP2 GT ISZERO PUSH2 0x3BD3 JUMPI PUSH2 0x3BD2 PUSH2 0x3433 JUMP JUMPDEST JUMPDEST PUSH2 0x3BDF DUP8 DUP3 DUP9 ADD PUSH2 0x3B3E JUMP JUMPDEST SWAP2 POP POP SWAP3 SWAP6 SWAP2 SWAP5 POP SWAP3 POP JUMP JUMPDEST PUSH0 DUP2 PUSH1 0x7 SIGNEXTEND SWAP1 POP SWAP2 SWAP1 POP JUMP JUMPDEST PUSH2 0x3C00 DUP2 PUSH2 0x3BEB JUMP JUMPDEST DUP3 MSTORE POP POP JUMP JUMPDEST PUSH0 PUSH8 0xFFFFFFFFFFFFFFFF DUP3 AND SWAP1 POP SWAP2 SWAP1 POP JUMP JUMPDEST PUSH2 0x3C22 DUP2 PUSH2 0x3C06 JUMP JUMPDEST DUP3 MSTORE POP POP JUMP JUMPDEST PUSH1 0x60 DUP3 ADD PUSH0 DUP3 ADD MLOAD PUSH2 0x3C3C PUSH0 DUP6 ADD DUP3 PUSH2 0x3BF7 JUMP JUMPDEST POP PUSH1 0x20 DUP3 ADD MLOAD PUSH2 0x3C4F PUSH1 0x20 DUP6 ADD DUP3 PUSH2 0x3BF7 JUMP JUMPDEST POP PUSH1 0x40 DUP3 ADD MLOAD PUSH2 0x3C62 PUSH1 0x40 DUP6 ADD DUP3 PUSH2 0x3C19 JUMP JUMPDEST POP POP POP POP JUMP JUMPDEST PUSH2 0x3C71 DUP2 PUSH2 0x3629 JUMP JUMPDEST DUP3 MSTORE POP POP JUMP JUMPDEST PUSH0 PUSH2 0x1A0 DUP3 ADD SWAP1 POP PUSH2 0x3C8B PUSH0 DUP4 ADD DUP13 PUSH2 0x3C28 JUMP JUMPDEST PUSH2 0x3C98 PUSH1 0x60 DUP4 ADD DUP12 PUSH2 0x3C28 JUMP JUMPDEST PUSH2 0x3CA5 PUSH1 0xC0 DUP4 ADD DUP11 PUSH2 0x3779 JUMP JUMPDEST PUSH2 0x3CB2 PUSH1 0xE0 DUP4 ADD DUP10 PUSH2 0x3779 JUMP JUMPDEST PUSH2 0x3CC0 PUSH2 0x100 DUP4 ADD DUP9 PUSH2 0x3779 JUMP JUMPDEST PUSH2 0x3CCE PUSH2 0x120 DUP4 ADD DUP8 PUSH2 0x3713 JUMP JUMPDEST PUSH2 0x3CDC PUSH2 0x140 DUP4 ADD DUP7 PUSH2 0x34C2 JUMP JUMPDEST PUSH2 0x3CEA PUSH2 0x160 DUP4 ADD DUP6 PUSH2 0x3C68 JUMP JUMPDEST PUSH2 0x3CF8 PUSH2 0x180 DUP4 ADD DUP5 PUSH2 0x3779 JUMP JUMPDEST SWAP11 SWAP10 POP POP POP POP POP POP POP POP POP POP JUMP JUMPDEST PUSH0 PUSH2 0x3D10 DUP3 PUSH2 0x38A9 JUMP JUMPDEST SWAP1 POP SWAP2 SWAP1 POP JUMP JUMPDEST PUSH2 0x3D20 DUP2 PUSH2 0x3D06 JUMP JUMPDEST DUP3 MSTORE POP POP JUMP JUMPDEST PUSH0 PUSH1 0x20 DUP3 ADD SWAP1 POP PUSH2 0x3D39 PUSH0 DUP4 ADD DUP5 PUSH2 0x3D17 JUMP JUMPDEST SWAP3 SWAP2 POP POP JUMP JUMPDEST PUSH0 DUP1 PUSH1 0x40 DUP4 DUP6 SUB SLT ISZERO PUSH2 0x3D55 JUMPI PUSH2 0x3D54 PUSH2 0x342F JUMP JUMPDEST JUMPDEST PUSH0 PUSH2 0x3D62 DUP6 DUP3 DUP7 ADD PUSH2 0x35F3 JUMP JUMPDEST SWAP3 POP POP PUSH1 0x20 PUSH2 0x3D73 DUP6 DUP3 DUP7 ADD PUSH2 0x35F3 JUMP JUMPDEST SWAP2 POP POP SWAP3 POP SWAP3 SWAP1 POP JUMP JUMPDEST PUSH32 0x4E487B7100000000000000000000000000000000000000000000000000000000 PUSH0 MSTORE PUSH1 0x22 PUSH1 0x4 MSTORE PUSH1 0x24 PUSH0 REVERT JUMPDEST PUSH0 PUSH1 0x2 DUP3 DIV SWAP1 POP PUSH1 0x1 DUP3 AND DUP1 PUSH2 0x3DC1 JUMPI PUSH1 0x7F DUP3 AND SWAP2 POP JUMPDEST PUSH1 0x20 DUP3 LT DUP2 SUB PUSH2 0x3DD4 JUMPI PUSH2 0x3DD3 PUSH2 0x3D7D JUMP JUMPDEST JUMPDEST POP SWAP2 SWAP1 POP JUMP JUMPDEST PUSH32 0x5369676E734E46543A206E6F7420696D706C656D656E74656400000000000000 PUSH0 DUP3 ADD MSTORE POP JUMP JUMPDEST PUSH0 PUSH2 0x3E0E PUSH1 0x19 DUP4 PUSH2 0x34F4 JUMP JUMPDEST SWAP2 POP PUSH2 0x3E19 DUP3 PUSH2 0x3DDA JUMP JUMPDEST PUSH1 0x20 DUP3 ADD SWAP1 POP SWAP2 SWAP1 POP JUMP JUMPDEST PUSH0 PUSH1 0x20 DUP3 ADD SWAP1 POP DUP2 DUP2 SUB PUSH0 DUP4 ADD MSTORE PUSH2 0x3E3B DUP2 PUSH2 0x3E02 JUMP JUMPDEST SWAP1 POP SWAP2 SWAP1 POP JUMP JUMPDEST PUSH32 0x5369676E733A2064697265637420617070726F76616C206E6F7420616C6C6F77 PUSH0 DUP3 ADD MSTORE PUSH32 0x6564000000000000000000000000000000000000000000000000000000000000 PUSH1 0x20 DUP3 ADD MSTORE POP JUMP JUMPDEST PUSH0 PUSH2 0x3E9C PUSH1 0x22 DUP4 PUSH2 0x34F4 JUMP JUMPDEST SWAP2 POP PUSH2 0x3EA7 DUP3 PUSH2 0x3E42 JUMP JUMPDEST PUSH1 0x40 DUP3 ADD SWAP1 POP SWAP2 SWAP1 POP JUMP JUMPDEST PUSH0 PUSH1 0x20 DUP3 ADD SWAP1 POP DUP2 DUP2 SUB PUSH0 DUP4 ADD MSTORE PUSH2 0x3EC9 DUP2 PUSH2 0x3E90 JUMP JUMPDEST SWAP1 POP SWAP2 SWAP1 POP JUMP JUMPDEST PUSH32 0x496E76616C69642064697669736F727300000000000000000000000000000000 PUSH0 DUP3 ADD MSTORE POP JUMP JUMPDEST PUSH0 PUSH2 0x3F04 PUSH1 0x10 DUP4 PUSH2 0x34F4 JUMP JUMPDEST SWAP2 POP PUSH2 0x3F0F DUP3 PUSH2 0x3ED0 JUMP JUMPDEST PUSH1 0x20 DUP3 ADD SWAP1 POP SWAP2 SWAP1 POP JUMP JUMPDEST PUSH0 PUSH1 0x20 DUP3 ADD SWAP1 POP DUP2 DUP2 SUB PUSH0 DUP4 ADD MSTORE PUSH2 0x3F31 DUP2 PUSH2 0x3EF8 JUMP JUMPDEST SWAP1 POP SWAP2 SWAP1 POP JUMP JUMPDEST PUSH0 PUSH1 0x60 DUP3 ADD SWAP1 POP PUSH2 0x3F4B PUSH0 DUP4 ADD DUP7 PUSH2 0x3779 JUMP JUMPDEST PUSH2 0x3F58 PUSH1 0x20 DUP4 ADD DUP6 PUSH2 0x3779 JUMP JUMPDEST PUSH2 0x3F65 PUSH1 0x40 DUP4 ADD DUP5 PUSH2 0x3779 JUMP JUMPDEST SWAP5 SWAP4 POP POP POP POP JUMP JUMPDEST PUSH0 DUP1 REVERT JUMPDEST PUSH2 0x3F7A DUP2 PUSH2 0x3BEB JUMP JUMPDEST DUP2 EQ PUSH2 0x3F84 JUMPI PUSH0 DUP1 REVERT JUMPDEST POP JUMP JUMPDEST PUSH0 DUP2 CALLDATALOAD SWAP1 POP PUSH2 0x3F95 DUP2 PUSH2 0x3F71 JUMP JUMPDEST SWAP3 SWAP2 POP POP JUMP JUMPDEST PUSH2 0x3FA4 DUP2 PUSH2 0x3C06 JUMP JUMPDEST DUP2 EQ PUSH2 0x3FAE JUMPI PUSH0 DUP1 REVERT JUMPDEST POP JUMP JUMPDEST PUSH0 DUP2 CALLDATALOAD SWAP1 POP PUSH2 0x3FBF DUP2 PUSH2 0x3F9B JUMP JUMPDEST SWAP3 SWAP2 POP POP JUMP JUMPDEST PUSH0 PUSH1 0x60 DUP3 DUP5 SUB SLT ISZERO PUSH2 0x3FDA JUMPI PUSH2 0x3FD9 PUSH2 0x3F6D JUMP JUMPDEST JUMPDEST PUSH2 0x3FE4 PUSH1 0x60 PUSH2 0x3AA5 JUMP JUMPDEST SWAP1 POP PUSH0 PUSH2 0x3FF3 DUP5 DUP3 DUP6 ADD PUSH2 0x3F87 JUMP JUMPDEST PUSH0 DUP4 ADD MSTORE POP PUSH1 0x20 PUSH2 0x4006 DUP5 DUP3 DUP6 ADD PUSH2 0x3F87 JUMP JUMPDEST PUSH1 0x20 DUP4 ADD MSTORE POP PUSH1 0x40 PUSH2 0x401A DUP5 DUP3 DUP6 ADD PUSH2 0x3FB1 JUMP JUMPDEST PUSH1 0x40 DUP4 ADD MSTORE POP SWAP3 SWAP2 POP POP JUMP JUMPDEST PUSH0 PUSH1 0x60 DUP3 DUP5 SUB SLT ISZERO PUSH2 0x403B JUMPI PUSH2 0x403A PUSH2 0x342F JUMP JUMPDEST JUMPDEST PUSH0 PUSH2 0x4048 DUP5 DUP3 DUP6 ADD PUSH2 0x3FC5 JUMP JUMPDEST SWAP2 POP POP SWAP3 SWAP2 POP POP JUMP JUMPDEST PUSH0 DUP2 CALLDATALOAD PUSH2 0x405D DUP2 PUSH2 0x3F71 JUMP JUMPDEST DUP1 SWAP2 POP POP SWAP2 SWAP1 POP JUMP JUMPDEST PUSH0 DUP2 PUSH0 SHL SWAP1 POP SWAP2 SWAP1 POP JUMP JUMPDEST PUSH0 PUSH8 0xFFFFFFFFFFFFFFFF PUSH2 0x4084 DUP5 PUSH2 0x4066 JUMP JUMPDEST SWAP4 POP DUP1 NOT DUP4 AND SWAP3 POP DUP1 DUP5 AND DUP4 OR SWAP2 POP POP SWAP3 SWAP2 POP POP JUMP JUMPDEST PUSH0 PUSH2 0x40B4 PUSH2 0x40AF PUSH2 0x40AA DUP5 PUSH2 0x3BEB JUMP JUMPDEST PUSH2 0x387F JUMP JUMPDEST PUSH2 0x3BEB JUMP JUMPDEST SWAP1 POP SWAP2 SWAP1 POP JUMP JUMPDEST PUSH0 DUP2 SWAP1 POP SWAP2 SWAP1 POP JUMP JUMPDEST PUSH2 0x40CD DUP3 PUSH2 0x409A JUMP JUMPDEST PUSH2 0x40E0 PUSH2 0x40D9 DUP3 PUSH2 0x40BB JUMP JUMPDEST DUP4 SLOAD PUSH2 0x4071 JUMP JUMPDEST DUP3 SSTORE POP POP POP JUMP JUMPDEST PUSH0 DUP2 PUSH1 0x40 SHL SWAP1 POP SWAP2 SWAP1 POP JUMP JUMPDEST PUSH0 PUSH16 0xFFFFFFFFFFFFFFFF0000000000000000 PUSH2 0x410E DUP5 PUSH2 0x40E7 JUMP JUMPDEST SWAP4 POP DUP1 NOT DUP4 AND SWAP3 POP DUP1 DUP5 AND DUP4 OR SWAP2 POP POP SWAP3 SWAP2 POP POP JUMP JUMPDEST PUSH2 0x412D DUP3 PUSH2 0x409A JUMP JUMPDEST PUSH2 0x4140 PUSH2 0x4139 DUP3 PUSH2 0x40BB JUMP JUMPDEST DUP4 SLOAD PUSH2 0x40F3 JUMP JUMPDEST DUP3 SSTORE POP POP POP JUMP JUMPDEST PUSH0 DUP2 CALLDATALOAD PUSH2 0x4153 DUP2 PUSH2 0x3F9B JUMP JUMPDEST DUP1 SWAP2 POP POP SWAP2 SWAP1 POP JUMP JUMPDEST PUSH0 DUP2 PUSH1 0x80 SHL SWAP1 POP SWAP2 SWAP1 POP JUMP JUMPDEST PUSH0 PUSH24 0xFFFFFFFFFFFFFFFF00000000000000000000000000000000 PUSH2 0x418B DUP5 PUSH2 0x415C JUMP JUMPDEST SWAP4 POP DUP1 NOT DUP4 AND SWAP3 POP DUP1 DUP5 AND DUP4 OR SWAP2 POP POP SWAP3 SWAP2 POP POP JUMP JUMPDEST PUSH0 PUSH2 0x41BB PUSH2 0x41B6 PUSH2 0x41B1 DUP5 PUSH2 0x3C06 JUMP JUMPDEST PUSH2 0x387F JUMP JUMPDEST PUSH2 0x3C06 JUMP JUMPDEST SWAP1 POP SWAP2 SWAP1 POP JUMP JUMPDEST PUSH0 DUP2 SWAP1 POP SWAP2 SWAP1 POP JUMP JUMPDEST PUSH2 0x41D4 DUP3 PUSH2 0x41A1 JUMP JUMPDEST PUSH2 0x41E7 PUSH2 0x41E0 DUP3 PUSH2 0x41C2 JUMP JUMPDEST DUP4 SLOAD PUSH2 0x4168 JUMP JUMPDEST DUP3 SSTORE POP POP POP JUMP JUMPDEST PUSH0 DUP2 ADD PUSH0 DUP4 ADD DUP1 PUSH2 0x41FE DUP2 PUSH2 0x4051 JUMP JUMPDEST SWAP1 POP PUSH2 0x420A DUP2 DUP5 PUSH2 0x40C4 JUMP JUMPDEST POP POP POP PUSH0 DUP2 ADD PUSH1 0x20 DUP4 ADD DUP1 PUSH2 0x421E DUP2 PUSH2 0x4051 JUMP JUMPDEST SWAP1 POP PUSH2 0x422A DUP2 DUP5 PUSH2 0x4124 JUMP JUMPDEST POP POP POP PUSH0 DUP2 ADD PUSH1 0x40 DUP4 ADD DUP1 PUSH2 0x423E DUP2 PUSH2 0x4147 JUMP JUMPDEST SWAP1 POP PUSH2 0x424A DUP2 DUP5 PUSH2 0x41CB JUMP JUMPDEST POP POP POP POP POP JUMP JUMPDEST PUSH2 0x425B DUP3 DUP3 PUSH2 0x41EE JUMP JUMPDEST POP POP JUMP JUMPDEST PUSH0 PUSH2 0x426D PUSH1 0x20 DUP5 ADD DUP5 PUSH2 0x3F87 JUMP JUMPDEST SWAP1 POP SWAP3 SWAP2 POP POP JUMP JUMPDEST PUSH0 PUSH2 0x4283 PUSH1 0x20 DUP5 ADD DUP5 PUSH2 0x3FB1 JUMP JUMPDEST SWAP1 POP SWAP3 SWAP2 POP POP JUMP JUMPDEST PUSH1 0x60 DUP3 ADD PUSH2 0x429B PUSH0 DUP4 ADD DUP4 PUSH2 0x425F JUMP JUMPDEST PUSH2 0x42A7 PUSH0 DUP6 ADD DUP3 PUSH2 0x3BF7 JUMP JUMPDEST POP PUSH2 0x42B5 PUSH1 0x20 DUP4 ADD DUP4 PUSH2 0x425F JUMP JUMPDEST PUSH2 0x42C2 PUSH1 0x20 DUP6 ADD DUP3 PUSH2 0x3BF7 JUMP JUMPDEST POP PUSH2 0x42D0 PUSH1 0x40 DUP4 ADD DUP4 PUSH2 0x4275 JUMP JUMPDEST PUSH2 0x42DD PUSH1 0x40 DUP6 ADD DUP3 PUSH2 0x3C19 JUMP JUMPDEST POP POP POP POP JUMP JUMPDEST PUSH0 PUSH1 0x60 DUP3 ADD SWAP1 POP PUSH2 0x42F6 PUSH0 DUP4 ADD DUP5 PUSH2 0x428B JUMP JUMPDEST SWAP3 SWAP2 POP POP JUMP JUMPDEST PUSH0 PUSH1 0x60 DUP3 ADD SWAP1 POP PUSH2 0x430F PUSH0 DUP4 ADD DUP7 PUSH2 0x3713 JUMP JUMPDEST PUSH2 0x431C PUSH1 0x20 DUP4 ADD DUP6 PUSH2 0x3779 JUMP JUMPDEST PUSH2 0x4329 PUSH1 0x40 DUP4 ADD DUP5 PUSH2 0x3713 JUMP JUMPDEST SWAP5 SWAP4 POP POP POP POP JUMP JUMPDEST PUSH32 0x4E487B7100000000000000000000000000000000000000000000000000000000 PUSH0 MSTORE PUSH1 0x11 PUSH1 0x4 MSTORE PUSH1 0x24 PUSH0 REVERT JUMPDEST PUSH0 PUSH2 0x4368 DUP3 PUSH2 0x357A JUMP JUMPDEST SWAP2 POP PUSH32 0xFFFFFFFFFFFFFFFFFFFFFFFFFFFFFFFFFFFFFFFFFFFFFFFFFFFFFFFFFFFFFFFF DUP3 SUB PUSH2 0x439A JUMPI PUSH2 0x4399 PUSH2 0x4331 JUMP JUMPDEST JUMPDEST PUSH1 0x1 DUP3 ADD SWAP1 POP SWAP2 SWAP1 POP JUMP JUMPDEST PUSH0 PUSH2 0x43AF DUP3 PUSH2 0x357A JUMP JUMPDEST SWAP2 POP PUSH2 0x43BA DUP4 PUSH2 0x357A JUMP JUMPDEST SWAP3 POP DUP3 DUP3 ADD SWAP1 POP DUP1 DUP3 GT ISZERO PUSH2 0x43D2 JUMPI PUSH2 0x43D1 PUSH2 0x4331 JUMP JUMPDEST JUMPDEST SWAP3 SWAP2 POP POP JUMP JUMPDEST PUSH0 PUSH1 0x60 DUP3 ADD SWAP1 POP PUSH2 0x43EB PUSH0 DUP4 ADD DUP7 PUSH2 0x3779 JUMP JUMPDEST PUSH2 0x43F8 PUSH1 0x20 DUP4 ADD DUP6 PUSH2 0x3713 JUMP JUMPDEST PUSH2 0x4405 PUSH1 0x40 DUP4 ADD DUP5 PUSH2 0x3779 JUMP JUMPDEST SWAP5 SWAP4 POP POP POP POP JUMP JUMPDEST PUSH0 DUP2 MLOAD SWAP1 POP PUSH2 0x441B DUP2 PUSH2 0x3583 JUMP JUMPDEST SWAP3 SWAP2 POP POP JUMP JUMPDEST PUSH0 DUP2 MLOAD SWAP1 POP PUSH2 0x442F DUP2 PUSH2 0x39D7 JUMP JUMPDEST SWAP3 SWAP2 POP POP JUMP JUMPDEST PUSH0 PUSH1 0x60 DUP3 DUP5 SUB SLT ISZERO PUSH2 0x444A JUMPI PUSH2 0x4449 PUSH2 0x3F6D JUMP JUMPDEST JUMPDEST PUSH2 0x4454 PUSH1 0x60 PUSH2 0x3AA5 JUMP JUMPDEST SWAP1 POP PUSH0 PUSH2 0x4463 DUP5 DUP3 DUP6 ADD PUSH2 0x440D JUMP JUMPDEST PUSH0 DUP4 ADD MSTORE POP PUSH1 0x20 PUSH2 0x4476 DUP5 DUP3 DUP6 ADD PUSH2 0x440D JUMP JUMPDEST PUSH1 0x20 DUP4 ADD MSTORE POP PUSH1 0x40 PUSH2 0x448A DUP5 DUP3 DUP6 ADD PUSH2 0x4421 JUMP JUMPDEST PUSH1 0x40 DUP4 ADD MSTORE POP SWAP3 SWAP2 POP POP JUMP JUMPDEST PUSH0 PUSH1 0x60 DUP3 DUP5 SUB SLT ISZERO PUSH2 0x44AB JUMPI PUSH2 0x44AA PUSH2 0x342F JUMP JUMPDEST JUMPDEST PUSH0 PUSH2 0x44B8 DUP5 DUP3 DUP6 ADD PUSH2 0x4435 JUMP JUMPDEST SWAP2 POP POP SWAP3 SWAP2 POP POP JUMP JUMPDEST PUSH0 PUSH2 0x140 DUP3 ADD SWAP1 POP PUSH2 0x44D5 PUSH0 DUP4 ADD DUP10 PUSH2 0x3779 JUMP JUMPDEST PUSH2 0x44E2 PUSH1 0x20 DUP4 ADD DUP9 PUSH2 0x3713 JUMP JUMPDEST PUSH2 0x44EF PUSH1 0x40 DUP4 ADD DUP8 PUSH2 0x3C28 JUMP JUMPDEST PUSH2 0x44FC PUSH1 0xA0 DUP4 ADD DUP7 PUSH2 0x428B JUMP JUMPDEST PUSH2 0x450A PUSH2 0x100 DUP4 ADD DUP6 PUSH2 0x3779 JUMP JUMPDEST PUSH2 0x4518 PUSH2 0x120 DUP4 ADD DUP5 PUSH2 0x3C68 JUMP JUMPDEST SWAP8 SWAP7 POP POP POP POP POP POP POP JUMP JUMPDEST PUSH0 PUSH1 0xC0 DUP3 ADD SWAP1 POP PUSH2 0x4536 PUSH0 DUP4 ADD DUP6 PUSH2 0x3C28 JUMP JUMPDEST PUSH2 0x4543 PUSH1 0x60 DUP4 ADD DUP5 PUSH2 0x428B JUMP JUMPDEST SWAP4 SWAP3 POP POP POP JUMP JUMPDEST PUSH0 PUSH1 0x20 DUP3 ADD SWAP1 POP PUSH2 0x455D PUSH0 DUP4 ADD DUP5 PUSH2 0x3C68 JUMP JUMPDEST SWAP3 SWAP2 POP POP JUMP JUMPDEST PUSH0 PUSH1 0x60 DUP3 ADD SWAP1 POP PUSH2 0x4576 PUSH0 DUP4 ADD DUP7 PUSH2 0x3779 JUMP JUMPDEST PUSH2 0x4583 PUSH1 0x20 DUP4 ADD DUP6 PUSH2 0x3779 JUMP JUMPDEST PUSH2 0x4590 PUSH1 0x40 DUP4 ADD DUP5 PUSH2 0x34C2 JUMP JUMPDEST SWAP5 SWAP4 POP POP POP POP JUMP JUMPDEST PUSH32 0x5369676E733A20617070726F76616C20666F7220616C6C206E6F7420616C6C6F PUSH0 DUP3 ADD MSTORE PUSH32 0x7765640000000000000000000000000000000000000000000000000000000000 PUSH1 0x20 DUP3 ADD MSTORE POP JUMP JUMPDEST PUSH0 PUSH2 0x45F2 PUSH1 0x23 DUP4 PUSH2 0x34F4 JUMP JUMPDEST SWAP2 POP PUSH2 0x45FD DUP3 PUSH2 0x4598 JUMP JUMPDEST PUSH1 0x40 DUP3 ADD SWAP1 POP SWAP2 SWAP1 POP JUMP JUMPDEST PUSH0 PUSH1 0x20 DUP3 ADD SWAP1 POP DUP2 DUP2 SUB PUSH0 DUP4 ADD MSTORE PUSH2 0x461F DUP2 PUSH2 0x45E6 JUMP JUMPDEST SWAP1 POP SWAP2 SWAP1 POP JUMP JUMPDEST PUSH0 DUP2 SWAP1 POP SWAP3 SWAP2 POP POP JUMP JUMPDEST PUSH0 PUSH2 0x463A DUP3 PUSH2 0x34EA JUMP JUMPDEST PUSH2 0x4644 DUP2 DUP6 PUSH2 0x4626 JUMP JUMPDEST SWAP4 POP PUSH2 0x4654 DUP2 DUP6 PUSH1 0x20 DUP7 ADD PUSH2 0x3504 JUMP JUMPDEST DUP1 DUP5 ADD SWAP2 POP POP SWAP3 SWAP2 POP POP JUMP JUMPDEST PUSH0 PUSH2 0x466B DUP3 DUP6 PUSH2 0x4630 JUMP JUMPDEST SWAP2 POP PUSH2 0x4677 DUP3 DUP5 PUSH2 0x4630 JUMP JUMPDEST SWAP2 POP DUP2 SWAP1 POP SWAP4 SWAP3 POP POP POP JUMP JUMPDEST PUSH32 0x5061757361626C653A2070617573656400000000000000000000000000000000 PUSH0 DUP3 ADD MSTORE POP JUMP JUMPDEST PUSH0 PUSH2 0x46B7 PUSH1 0x10 DUP4 PUSH2 0x34F4 JUMP JUMPDEST SWAP2 POP PUSH2 0x46C2 DUP3 PUSH2 0x4683 JUMP JUMPDEST PUSH1 0x20 DUP3 ADD SWAP1 POP SWAP2 SWAP1 POP JUMP JUMPDEST PUSH0 PUSH1 0x20 DUP3 ADD SWAP1 POP DUP2 DUP2 SUB PUSH0 DUP4 ADD MSTORE PUSH2 0x46E4 DUP2 PUSH2 0x46AB JUMP JUMPDEST SWAP1 POP SWAP2 SWAP1 POP JUMP JUMPDEST PUSH32 0x5369676E2069732063757272656E746C79207069636B65642075700000000000 PUSH0 DUP3 ADD MSTORE POP JUMP JUMPDEST PUSH0 PUSH2 0x471F PUSH1 0x1B DUP4 PUSH2 0x34F4 JUMP JUMPDEST SWAP2 POP PUSH2 0x472A DUP3 PUSH2 0x46EB JUMP JUMPDEST PUSH1 0x20 DUP3 ADD SWAP1 POP SWAP2 SWAP1 POP JUMP JUMPDEST PUSH0 PUSH1 0x20 DUP3 ADD SWAP1 POP DUP2 DUP2 SUB PUSH0 DUP4 ADD MSTORE PUSH2 0x474C DUP2 PUSH2 0x4713 JUMP JUMPDEST SWAP1 POP SWAP2 SWAP1 POP JUMP JUMPDEST PUSH0 PUSH2 0x475D DUP3 PUSH2 0x3BEB JUMP JUMPDEST SWAP2 POP PUSH2 0x4768 DUP4 PUSH2 0x3BEB JUMP JUMPDEST SWAP3 POP DUP3 DUP3 SUB SWAP1 POP PUSH8 0x7FFFFFFFFFFFFFFF DUP2 SGT PUSH32 0xFFFFFFFFFFFFFFFFFFFFFFFFFFFFFFFFFFFFFFFFFFFFFFFF8000000000000000 DUP3 SLT OR ISZERO PUSH2 0x47AC JUMPI PUSH2 0x47AB PUSH2 0x4331 JUMP JUMPDEST JUMPDEST SWAP3 SWAP2 POP POP JUMP JUMPDEST PUSH0 PUSH2 0x47BC DUP3 PUSH2 0x3BEB JUMP JUMPDEST SWAP2 POP PUSH32 0xFFFFFFFFFFFFFFFFFFFFFFFFFFFFFFFFFFFFFFFFFFFFFFFF8000000000000000 DUP3 SUB PUSH2 0x47EE JUMPI PUSH2 0x47ED PUSH2 0x4331 JUMP JUMPDEST JUMPDEST DUP2 PUSH0 SUB SWAP1 POP SWAP2 SWAP1 POP JUMP JUMPDEST PUSH0 PUSH2 0x4802 DUP3 PUSH2 0x357A JUMP JUMPDEST SWAP2 POP PUSH2 0x480D DUP4 PUSH2 0x357A JUMP JUMPDEST SWAP3 POP DUP3 DUP3 MUL PUSH2 0x481B DUP2 PUSH2 0x357A JUMP JUMPDEST SWAP2 POP DUP3 DUP3 DIV DUP5 EQ DUP4 ISZERO OR PUSH2 0x4832 JUMPI PUSH2 0x4831 PUSH2 0x4331 JUMP JUMPDEST JUMPDEST POP SWAP3 SWAP2 POP POP JUMP JUMPDEST PUSH32 0x4E487B7100000000000000000000000000000000000000000000000000000000 PUSH0 MSTORE PUSH1 0x12 PUSH1 0x4 MSTORE PUSH1 0x24 PUSH0 REVERT JUMPDEST PUSH0 PUSH2 0x4870 DUP3 PUSH2 0x357A JUMP JUMPDEST SWAP2 POP PUSH2 0x487B DUP4 PUSH2 0x357A JUMP JUMPDEST SWAP3 POP DUP3 PUSH2 0x488B JUMPI PUSH2 0x488A PUSH2 0x4839 JUMP JUMPDEST JUMPDEST DUP3 DUP3 DIV SWAP1 POP SWAP3 SWAP2 POP POP JUMP JUMPDEST PUSH0 DUP2 MLOAD SWAP1 POP SWAP2 SWAP1 POP JUMP JUMPDEST PUSH0 DUP3 DUP3 MSTORE PUSH1 0x20 DUP3 ADD SWAP1 POP SWAP3 SWAP2 POP POP JUMP JUMPDEST PUSH0 PUSH2 0x48BA DUP3 PUSH2 0x4896 JUMP JUMPDEST PUSH2 0x48C4 DUP2 DUP6 PUSH2 0x48A0 JUMP JUMPDEST SWAP4 POP PUSH2 0x48D4 DUP2 DUP6 PUSH1 0x20 DUP7 ADD PUSH2 0x3504 JUMP JUMPDEST PUSH2 0x48DD DUP2 PUSH2 0x3512 JUMP JUMPDEST DUP5 ADD SWAP2 POP POP SWAP3 SWAP2 POP POP JUMP JUMPDEST PUSH0 PUSH1 0x80 DUP3 ADD SWAP1 POP PUSH2 0x48FB PUSH0 DUP4 ADD DUP8 PUSH2 0x3713 JUMP JUMPDEST PUSH2 0x4908 PUSH1 0x20 DUP4 ADD DUP7 PUSH2 0x3713 JUMP JUMPDEST PUSH2 0x4915 PUSH1 0x40 DUP4 ADD DUP6 PUSH2 0x3779 JUMP JUMPDEST DUP2 DUP2 SUB PUSH1 0x60 DUP4 ADD MSTORE PUSH2 0x4927 DUP2 DUP5 PUSH2 0x48B0 JUMP JUMPDEST SWAP1 POP SWAP6 SWAP5 POP POP POP POP POP JUMP JUMPDEST PUSH0 DUP2 MLOAD SWAP1 POP PUSH2 0x4940 DUP2 PUSH2 0x3462 JUMP JUMPDEST SWAP3 SWAP2 POP POP JUMP JUMPDEST PUSH0 PUSH1 0x20 DUP3 DUP5 SUB SLT ISZERO PUSH2 0x495B JUMPI PUSH2 0x495A PUSH2 0x342F JUMP JUMPDEST JUMPDEST PUSH0 PUSH2 0x4968 DUP5 DUP3 DUP6 ADD PUSH2 0x4932 JUMP JUMPDEST SWAP2 POP POP SWAP3 SWAP2 POP POP JUMP JUMPDEST PUSH32 0x5061757361626C653A206E6F7420706175736564000000000000000000000000 PUSH0 DUP3 ADD MSTORE POP JUMP JUMPDEST PUSH0 PUSH2 0x49A5 PUSH1 0x14 DUP4 PUSH2 0x34F4 JUMP JUMPDEST SWAP2 POP PUSH2 0x49B0 DUP3 PUSH2 0x4971 JUMP JUMPDEST PUSH1 0x20 DUP3 ADD SWAP1 POP SWAP2 SWAP1 POP JUMP JUMPDEST PUSH0 PUSH1 0x20 DUP3 ADD SWAP1 POP DUP2 DUP2 SUB PUSH0 DUP4 ADD MSTORE PUSH2 0x49D2 DUP2 PUSH2 0x4999 JUMP JUMPDEST SWAP1 POP SWAP2 SWAP1 POP JUMP JUMPDEST PUSH0 PUSH1 0x40 DUP3 ADD SWAP1 POP PUSH2 0x49EC PUSH0 DUP4 ADD DUP6 PUSH2 0x3713 JUMP JUMPDEST PUSH2 0x49F9 PUSH1 0x20 DUP4 ADD DUP5 PUSH2 0x3779 JUMP JUMPDEST SWAP4 SWAP3 POP POP POP JUMP INVALID LOG2 PUSH5 0x6970667358 0x22 SLT KECCAK256 0xE0 SWAP8 CODESIZE CREATE2 CALL 0xD0 0x21 SWAP2 0xD6 0xCA SWAP5 STOP 0xCF PUSH3 0x6AD7FC 0xE3 CALLVALUE 0x29 0xB0 0xDE 0x2C PUSH31 0x79C6A7A6C5CDEEB164736F6C634300081A0033000000000000000000000000 "
		},
		"gasEstimates": {
			"creation": {
				"codeDepositCost": "3799600",
				"executionCost": "infinite",
				"totalCost": "infinite"
			},
			"external": {
				"MAX_PICKUP_RADIUS()": "414",
				"MAX_SIGNS_PER_USER()": "371",
				"approve(address,uint256)": "1054",
				"balanceOf(address)": "infinite",
				"baseWageRate()": "2558",
				"createSign((int64,int64,uint64))": "infinite",
				"distanceWeightDivisor()": "2470",
				"dropSign(uint256,(int64,int64,uint64),bytes32)": "infinite",
				"getApproved(uint256)": "infinite",
				"isApprovedForAll(address,address)": "infinite",
				"moveWeightDivisor()": "2471",
				"moveWeightMultiplier()": "2492",
				"name()": "infinite",
				"owner()": "2560",
				"ownerOf(uint256)": "infinite",
				"pause()": "infinite",
				"paused()": "2636",
				"pickupSign(uint256,(int64,int64,uint64))": "infinite",
				"recordMovement(uint256,address,(int64,int64,uint64),(int64,int64,uint64),uint256,bytes32)": "infinite",
				"renounceOwnership()": "infinite",
				"safeTransferFrom(address,address,uint256)": "infinite",
				"safeTransferFrom(address,address,uint256,bytes)": "infinite",
				"setApprovalForAll(address,bool)": "1036",
				"setSignToken(address)": "infinite",
				"setSignsHistory(address)": "infinite",
				"signCarriers(uint256)": "2961",
				"signToken()": "infinite",
				"signs(uint256)": "infinite",
				"signsHistory()": "infinite",
				"supportsInterface(bytes4)": "810",
				"symbol()": "infinite",
				"tokenURI(uint256)": "infinite",
				"transferFrom(address,address,uint256)": "infinite",
				"transferOwnership(address)": "infinite",
				"unpause()": "infinite",
				"updateBaseWageRate(uint256)": "infinite",
				"updateHome(uint256,(int64,int64,uint64))": "infinite",
				"updateSignWage(uint256,uint256)": "infinite",
				"updateWeightParameters(uint256,uint256,uint256)": "infinite",
				"userSignCount(address)": "2914"
			},
			"internal": {
				"_calculateDistance(struct ISigns.Location memory,struct ISigns.Location memory)": "infinite",
				"_calculateNewWeight(uint256,uint256)": "infinite",
				"_calculateWage(uint256,struct ISigns.Location memory,struct ISigns.Location memory,uint256)": "infinite",
				"_isValidLocation(struct ISigns.Location memory)": "infinite",
				"_isWithinRadius(struct ISigns.Location memory,struct ISigns.Location memory)": "infinite",
				"_update(address,uint256,address)": "infinite"
			}
		},
		"methodIdentifiers": {
			"MAX_PICKUP_RADIUS()": "c159c454",
			"MAX_SIGNS_PER_USER()": "835bbbb2",
			"approve(address,uint256)": "095ea7b3",
			"balanceOf(address)": "70a08231",
			"baseWageRate()": "780f14f8",
			"createSign((int64,int64,uint64))": "526b444e",
			"distanceWeightDivisor()": "b88ba0fd",
			"dropSign(uint256,(int64,int64,uint64),bytes32)": "5f87a13f",
			"getApproved(uint256)": "081812fc",
			"isApprovedForAll(address,address)": "e985e9c5",
			"moveWeightDivisor()": "0d64c089",
			"moveWeightMultiplier()": "706d4283",
			"name()": "06fdde03",
			"owner()": "8da5cb5b",
			"ownerOf(uint256)": "6352211e",
			"pause()": "8456cb59",
			"paused()": "5c975abb",
			"pickupSign(uint256,(int64,int64,uint64))": "acc1c1a0",
			"recordMovement(uint256,address,(int64,int64,uint64),(int64,int64,uint64),uint256,bytes32)": "080807be",
			"renounceOwnership()": "715018a6",
			"safeTransferFrom(address,address,uint256)": "42842e0e",
			"safeTransferFrom(address,address,uint256,bytes)": "b88d4fde",
			"setApprovalForAll(address,bool)": "a22cb465",
			"setSignToken(address)": "c90bc6ab",
			"setSignsHistory(address)": "83c30faa",
			"signCarriers(uint256)": "8ca138a0",
			"signToken()": "e29f5a07",
			"signs(uint256)": "cb75b997",
			"signsHistory()": "458de778",
			"supportsInterface(bytes4)": "01ffc9a7",
			"symbol()": "95d89b41",
			"tokenURI(uint256)": "c87b56dd",
			"transferFrom(address,address,uint256)": "23b872dd",
			"transferOwnership(address)": "f2fde38b",
			"unpause()": "3f4ba83a",
			"updateBaseWageRate(uint256)": "d1768b13",
			"updateHome(uint256,(int64,int64,uint64))": "21dd4d27",
			"updateSignWage(uint256,uint256)": "9ff42522",
			"updateWeightParameters(uint256,uint256,uint256)": "20fe5a10",
			"userSignCount(address)": "8535ab52"
		}
	},
	"abi": [
		{
			"inputs": [],
			"stateMutability": "nonpayable",
			"type": "constructor"
		},
		{
			"inputs": [
				{
					"internalType": "address",
					"name": "sender",
					"type": "address"
				},
				{
					"internalType": "uint256",
					"name": "tokenId",
					"type": "uint256"
				},
				{
					"internalType": "address",
					"name": "owner",
					"type": "address"
				}
			],
			"name": "ERC721IncorrectOwner",
			"type": "error"
		},
		{
			"inputs": [
				{
					"internalType": "address",
					"name": "operator",
					"type": "address"
				},
				{
					"internalType": "uint256",
					"name": "tokenId",
					"type": "uint256"
				}
			],
			"name": "ERC721InsufficientApproval",
			"type": "error"
		},
		{
			"inputs": [
				{
					"internalType": "address",
					"name": "approver",
					"type": "address"
				}
			],
			"name": "ERC721InvalidApprover",
			"type": "error"
		},
		{
			"inputs": [
				{
					"internalType": "address",
					"name": "operator",
					"type": "address"
				}
			],
			"name": "ERC721InvalidOperator",
			"type": "error"
		},
		{
			"inputs": [
				{
					"internalType": "address",
					"name": "owner",
					"type": "address"
				}
			],
			"name": "ERC721InvalidOwner",
			"type": "error"
		},
		{
			"inputs": [
				{
					"internalType": "address",
					"name": "receiver",
					"type": "address"
				}
			],
			"name": "ERC721InvalidReceiver",
			"type": "error"
		},
		{
			"inputs": [
				{
					"internalType": "address",
					"name": "sender",
					"type": "address"
				}
			],
			"name": "ERC721InvalidSender",
			"type": "error"
		},
		{
			"inputs": [
				{
					"internalType": "uint256",
					"name": "tokenId",
					"type": "uint256"
				}
			],
			"name": "ERC721NonexistentToken",
			"type": "error"
		},
		{
			"inputs": [],
			"name": "ExceedsMaxSignsPerUser",
			"type": "error"
		},
		{
			"inputs": [],
			"name": "InvalidAddress",
			"type": "error"
		},
		{
			"inputs": [],
			"name": "InvalidLocation",
			"type": "error"
		},
		{
			"inputs": [],
			"name": "InvalidSignsHistoryAddress",
			"type": "error"
		},
		{
			"inputs": [],
			"name": "InvalidWage",
			"type": "error"
		},
		{
			"inputs": [],
			"name": "OutsidePickupRadius",
			"type": "error"
		},
		{
			"inputs": [
				{
					"internalType": "address",
					"name": "owner",
					"type": "address"
				}
			],
			"name": "OwnableInvalidOwner",
			"type": "error"
		},
		{
			"inputs": [
				{
					"internalType": "address",
					"name": "account",
					"type": "address"
				}
			],
			"name": "OwnableUnauthorizedAccount",
			"type": "error"
		},
		{
			"inputs": [],
			"name": "SignAlreadyPickedUp",
			"type": "error"
		},
		{
			"inputs": [],
			"name": "SignNotFound",
			"type": "error"
		},
		{
			"inputs": [],
			"name": "SignNotPickedUp",
			"type": "error"
		},
		{
			"inputs": [],
			"name": "SignTokenNotSet",
			"type": "error"
		},
		{
			"inputs": [],
			"name": "SignsHistoryNotSet",
			"type": "error"
		},
		{
			"inputs": [],
			"name": "UnauthorizedCarrier",
			"type": "error"
		},
		{
			"inputs": [],
			"name": "UnauthorizedOwner",
			"type": "error"
		},
		{
			"anonymous": false,
			"inputs": [
				{
					"indexed": true,
					"internalType": "address",
					"name": "owner",
					"type": "address"
				},
				{
					"indexed": true,
					"internalType": "address",
					"name": "approved",
					"type": "address"
				},
				{
					"indexed": true,
					"internalType": "uint256",
					"name": "tokenId",
					"type": "uint256"
				}
			],
			"name": "Approval",
			"type": "event"
		},
		{
			"anonymous": false,
			"inputs": [
				{
					"indexed": true,
					"internalType": "address",
					"name": "owner",
					"type": "address"
				},
				{
					"indexed": true,
					"internalType": "address",
					"name": "operator",
					"type": "address"
				},
				{
					"indexed": false,
					"internalType": "bool",
					"name": "approved",
					"type": "bool"
				}
			],
			"name": "ApprovalForAll",
			"type": "event"
		},
		{
			"anonymous": false,
			"inputs": [
				{
					"indexed": false,
					"internalType": "uint256",
					"name": "newRate",
					"type": "uint256"
				}
			],
			"name": "BaseWageRateUpdated",
			"type": "event"
		},
		{
			"anonymous": false,
			"inputs": [
				{
					"indexed": true,
					"internalType": "uint256",
					"name": "tokenId",
					"type": "uint256"
				},
				{
					"indexed": false,
					"internalType": "bytes32",
					"name": "newContentHash",
					"type": "bytes32"
				}
			],
			"name": "ContentHashUpdated",
			"type": "event"
		},
		{
			"anonymous": false,
			"inputs": [
				{
					"indexed": true,
					"internalType": "uint256",
					"name": "tokenId",
					"type": "uint256"
				},
				{
					"components": [
						{
							"internalType": "int64",
							"name": "latitude",
							"type": "int64"
						},
						{
							"internalType": "int64",
							"name": "longitude",
							"type": "int64"
						},
						{
							"internalType": "uint64",
							"name": "timestamp",
							"type": "uint64"
						}
					],
					"indexed": false,
					"internalType": "struct ISigns.Location",
					"name": "newHome",
					"type": "tuple"
				}
			],
			"name": "HomeUpdated",
			"type": "event"
		},
		{
			"anonymous": false,
			"inputs": [
				{
					"indexed": true,
					"internalType": "address",
					"name": "previousOwner",
					"type": "address"
				},
				{
					"indexed": true,
					"internalType": "address",
					"name": "newOwner",
					"type": "address"
				}
			],
			"name": "OwnershipTransferred",
			"type": "event"
		},
		{
			"anonymous": false,
			"inputs": [
				{
					"indexed": false,
					"internalType": "address",
					"name": "account",
					"type": "address"
				}
			],
			"name": "Paused",
			"type": "event"
		},
		{
			"anonymous": false,
			"inputs": [
				{
					"indexed": true,
					"internalType": "uint256",
					"name": "tokenId",
					"type": "uint256"
				},
				{
					"indexed": true,
					"internalType": "address",
					"name": "owner",
					"type": "address"
				},
				{
					"components": [
						{
							"internalType": "int64",
							"name": "latitude",
							"type": "int64"
						},
						{
							"internalType": "int64",
							"name": "longitude",
							"type": "int64"
						},
						{
							"internalType": "uint64",
							"name": "timestamp",
							"type": "uint64"
						}
					],
					"indexed": false,
					"internalType": "struct ISigns.Location",
					"name": "home",
					"type": "tuple"
				}
			],
			"name": "SignCreated",
			"type": "event"
		},
		{
			"anonymous": false,
			"inputs": [
				{
					"indexed": true,
					"internalType": "uint256",
					"name": "tokenId",
					"type": "uint256"
				},
				{
					"indexed": true,
					"internalType": "address",
					"name": "carrier",
					"type": "address"
				},
				{
					"components": [
						{
							"internalType": "int64",
							"name": "latitude",
							"type": "int64"
						},
						{
							"internalType": "int64",
							"name": "longitude",
							"type": "int64"
						},
						{
							"internalType": "uint64",
							"name": "timestamp",
							"type": "uint64"
						}
					],
					"indexed": false,
					"internalType": "struct ISigns.Location",
					"name": "location",
					"type": "tuple"
				}
			],
			"name": "SignDropped",
			"type": "event"
		},
		{
			"anonymous": false,
			"inputs": [
				{
					"indexed": true,
					"internalType": "uint256",
					"name": "tokenId",
					"type": "uint256"
				},
				{
					"indexed": true,
					"internalType": "address",
					"name": "carrier",
					"type": "address"
				},
				{
					"components": [
						{
							"internalType": "int64",
							"name": "latitude",
							"type": "int64"
						},
						{
							"internalType": "int64",
							"name": "longitude",
							"type": "int64"
						},
						{
							"internalType": "uint64",
							"name": "timestamp",
							"type": "uint64"
						}
					],
					"indexed": false,
					"internalType": "struct ISigns.Location",
					"name": "from",
					"type": "tuple"
				},
				{
					"components": [
						{
							"internalType": "int64",
							"name": "latitude",
							"type": "int64"
						},
						{
							"internalType": "int64",
							"name": "longitude",
							"type": "int64"
						},
						{
							"internalType": "uint64",
							"name": "timestamp",
							"type": "uint64"
						}
					],
					"indexed": false,
					"internalType": "struct ISigns.Location",
					"name": "to",
					"type": "tuple"
				}
			],
			"name": "SignMoved",
			"type": "event"
		},
		{
			"anonymous": false,
			"inputs": [
				{
					"indexed": true,
					"internalType": "uint256",
					"name": "tokenId",
					"type": "uint256"
				},
				{
					"indexed": true,
					"internalType": "address",
					"name": "carrier",
					"type": "address"
				},
				{
					"components": [
						{
							"internalType": "int64",
							"name": "latitude",
							"type": "int64"
						},
						{
							"internalType": "int64",
							"name": "longitude",
							"type": "int64"
						},
						{
							"internalType": "uint64",
							"name": "timestamp",
							"type": "uint64"
						}
					],
					"indexed": false,
					"internalType": "struct ISigns.Location",
					"name": "location",
					"type": "tuple"
				}
			],
			"name": "SignPickedUp",
			"type": "event"
		},
		{
			"anonymous": false,
			"inputs": [
				{
					"indexed": true,
					"internalType": "uint256",
					"name": "tokenId",
					"type": "uint256"
				},
				{
					"indexed": false,
					"internalType": "uint256",
					"name": "newWage",
					"type": "uint256"
				}
			],
			"name": "SignWageUpdated",
			"type": "event"
		},
		{
			"anonymous": false,
			"inputs": [
				{
					"indexed": true,
					"internalType": "address",
					"name": "from",
					"type": "address"
				},
				{
					"indexed": true,
					"internalType": "address",
					"name": "to",
					"type": "address"
				},
				{
					"indexed": true,
					"internalType": "uint256",
					"name": "tokenId",
					"type": "uint256"
				}
			],
			"name": "Transfer",
			"type": "event"
		},
		{
			"anonymous": false,
			"inputs": [
				{
					"indexed": false,
					"internalType": "address",
					"name": "account",
					"type": "address"
				}
			],
			"name": "Unpaused",
			"type": "event"
		},
		{
			"anonymous": false,
			"inputs": [
				{
					"indexed": true,
					"internalType": "uint256",
					"name": "tokenId",
					"type": "uint256"
				},
				{
					"indexed": true,
					"internalType": "address",
					"name": "carrier",
					"type": "address"
				},
				{
					"indexed": false,
					"internalType": "uint256",
					"name": "requestedAmount",
					"type": "uint256"
				},
				{
					"indexed": false,
					"internalType": "uint256",
					"name": "paidAmount",
					"type": "uint256"
				},
				{
					"indexed": false,
					"internalType": "bool",
					"name": "isPartialPayment",
					"type": "bool"
				}
			],
			"name": "WagePaymentProcessed",
			"type": "event"
		},
		{
			"anonymous": false,
			"inputs": [
				{
					"indexed": false,
					"internalType": "uint256",
					"name": "newMoveWeightMultiplier",
					"type": "uint256"
				},
				{
					"indexed": false,
					"internalType": "uint256",
					"name": "newMoveWeightDivisor",
					"type": "uint256"
				},
				{
					"indexed": false,
					"internalType": "uint256",
					"name": "newDistanceWeightDivisor",
					"type": "uint256"
				}
			],
			"name": "WeightParametersUpdated",
			"type": "event"
		},
		{
			"inputs": [],
			"name": "MAX_PICKUP_RADIUS",
			"outputs": [
				{
					"internalType": "uint256",
					"name": "",
					"type": "uint256"
				}
			],
			"stateMutability": "view",
			"type": "function"
		},
		{
			"inputs": [],
			"name": "MAX_SIGNS_PER_USER",
			"outputs": [
				{
					"internalType": "uint256",
					"name": "",
					"type": "uint256"
				}
			],
			"stateMutability": "view",
			"type": "function"
		},
		{
			"inputs": [
				{
					"internalType": "address",
					"name": "to",
					"type": "address"
				},
				{
					"internalType": "uint256",
					"name": "tokenId",
					"type": "uint256"
				}
			],
			"name": "approve",
			"outputs": [],
			"stateMutability": "nonpayable",
			"type": "function"
		},
		{
			"inputs": [
				{
					"internalType": "address",
					"name": "owner",
					"type": "address"
				}
			],
			"name": "balanceOf",
			"outputs": [
				{
					"internalType": "uint256",
					"name": "",
					"type": "uint256"
				}
			],
			"stateMutability": "view",
			"type": "function"
		},
		{
			"inputs": [],
			"name": "baseWageRate",
			"outputs": [
				{
					"internalType": "uint256",
					"name": "",
					"type": "uint256"
				}
			],
			"stateMutability": "view",
			"type": "function"
		},
		{
			"inputs": [
				{
					"components": [
						{
							"internalType": "int64",
							"name": "latitude",
							"type": "int64"
						},
						{
							"internalType": "int64",
							"name": "longitude",
							"type": "int64"
						},
						{
							"internalType": "uint64",
							"name": "timestamp",
							"type": "uint64"
						}
					],
					"internalType": "struct ISigns.Location",
					"name": "homeLocation",
					"type": "tuple"
				}
			],
			"name": "createSign",
			"outputs": [
				{
					"internalType": "uint256",
					"name": "",
					"type": "uint256"
				}
			],
			"stateMutability": "nonpayable",
			"type": "function"
		},
		{
			"inputs": [],
			"name": "distanceWeightDivisor",
			"outputs": [
				{
					"internalType": "uint256",
					"name": "",
					"type": "uint256"
				}
			],
			"stateMutability": "view",
			"type": "function"
		},
		{
			"inputs": [
				{
					"internalType": "uint256",
					"name": "tokenId",
					"type": "uint256"
				},
				{
					"components": [
						{
							"internalType": "int64",
							"name": "latitude",
							"type": "int64"
						},
						{
							"internalType": "int64",
							"name": "longitude",
							"type": "int64"
						},
						{
							"internalType": "uint64",
							"name": "timestamp",
							"type": "uint64"
						}
					],
					"internalType": "struct ISigns.Location",
					"name": "location",
					"type": "tuple"
				},
				{
					"internalType": "bytes32",
					"name": "contentHash",
					"type": "bytes32"
				}
			],
			"name": "dropSign",
			"outputs": [],
			"stateMutability": "nonpayable",
			"type": "function"
		},
		{
			"inputs": [
				{
					"internalType": "uint256",
					"name": "tokenId",
					"type": "uint256"
				}
			],
			"name": "getApproved",
			"outputs": [
				{
					"internalType": "address",
					"name": "",
					"type": "address"
				}
			],
			"stateMutability": "view",
			"type": "function"
		},
		{
			"inputs": [
				{
					"internalType": "address",
					"name": "owner",
					"type": "address"
				},
				{
					"internalType": "address",
					"name": "operator",
					"type": "address"
				}
			],
			"name": "isApprovedForAll",
			"outputs": [
				{
					"internalType": "bool",
					"name": "",
					"type": "bool"
				}
			],
			"stateMutability": "view",
			"type": "function"
		},
		{
			"inputs": [],
			"name": "moveWeightDivisor",
			"outputs": [
				{
					"internalType": "uint256",
					"name": "",
					"type": "uint256"
				}
			],
			"stateMutability": "view",
			"type": "function"
		},
		{
			"inputs": [],
			"name": "moveWeightMultiplier",
			"outputs": [
				{
					"internalType": "uint256",
					"name": "",
					"type": "uint256"
				}
			],
			"stateMutability": "view",
			"type": "function"
		},
		{
			"inputs": [],
			"name": "name",
			"outputs": [
				{
					"internalType": "string",
					"name": "",
					"type": "string"
				}
			],
			"stateMutability": "view",
			"type": "function"
		},
		{
			"inputs": [],
			"name": "owner",
			"outputs": [
				{
					"internalType": "address",
					"name": "",
					"type": "address"
				}
			],
			"stateMutability": "view",
			"type": "function"
		},
		{
			"inputs": [
				{
					"internalType": "uint256",
					"name": "tokenId",
					"type": "uint256"
				}
			],
			"name": "ownerOf",
			"outputs": [
				{
					"internalType": "address",
					"name": "",
					"type": "address"
				}
			],
			"stateMutability": "view",
			"type": "function"
		},
		{
			"inputs": [],
			"name": "pause",
			"outputs": [],
			"stateMutability": "nonpayable",
			"type": "function"
		},
		{
			"inputs": [],
			"name": "paused",
			"outputs": [
				{
					"internalType": "bool",
					"name": "",
					"type": "bool"
				}
			],
			"stateMutability": "view",
			"type": "function"
		},
		{
			"inputs": [
				{
					"internalType": "uint256",
					"name": "tokenId",
					"type": "uint256"
				},
				{
					"components": [
						{
							"internalType": "int64",
							"name": "latitude",
							"type": "int64"
						},
						{
							"internalType": "int64",
							"name": "longitude",
							"type": "int64"
						},
						{
							"internalType": "uint64",
							"name": "timestamp",
							"type": "uint64"
						}
					],
					"internalType": "struct ISigns.Location",
					"name": "location",
					"type": "tuple"
				}
			],
			"name": "pickupSign",
			"outputs": [],
			"stateMutability": "nonpayable",
			"type": "function"
		},
		{
			"inputs": [
				{
					"internalType": "uint256",
					"name": "tokenId",
					"type": "uint256"
				},
				{
					"internalType": "address",
					"name": "carrier",
					"type": "address"
				},
				{
					"components": [
						{
							"internalType": "int64",
							"name": "latitude",
							"type": "int64"
						},
						{
							"internalType": "int64",
							"name": "longitude",
							"type": "int64"
						},
						{
							"internalType": "uint64",
							"name": "timestamp",
							"type": "uint64"
						}
					],
					"internalType": "struct ISigns.Location",
					"name": "fromLoc",
					"type": "tuple"
				},
				{
					"components": [
						{
							"internalType": "int64",
							"name": "latitude",
							"type": "int64"
						},
						{
							"internalType": "int64",
							"name": "longitude",
							"type": "int64"
						},
						{
							"internalType": "uint64",
							"name": "timestamp",
							"type": "uint64"
						}
					],
					"internalType": "struct ISigns.Location",
					"name": "toLoc",
					"type": "tuple"
				},
				{
					"internalType": "uint256",
					"name": "wage",
					"type": "uint256"
				},
				{
					"internalType": "bytes32",
					"name": "contentHash",
					"type": "bytes32"
				}
			],
			"name": "recordMovement",
			"outputs": [],
			"stateMutability": "pure",
			"type": "function"
		},
		{
			"inputs": [],
			"name": "renounceOwnership",
			"outputs": [],
			"stateMutability": "nonpayable",
			"type": "function"
		},
		{
			"inputs": [
				{
					"internalType": "address",
					"name": "from",
					"type": "address"
				},
				{
					"internalType": "address",
					"name": "to",
					"type": "address"
				},
				{
					"internalType": "uint256",
					"name": "tokenId",
					"type": "uint256"
				}
			],
			"name": "safeTransferFrom",
			"outputs": [],
			"stateMutability": "nonpayable",
			"type": "function"
		},
		{
			"inputs": [
				{
					"internalType": "address",
					"name": "from",
					"type": "address"
				},
				{
					"internalType": "address",
					"name": "to",
					"type": "address"
				},
				{
					"internalType": "uint256",
					"name": "tokenId",
					"type": "uint256"
				},
				{
					"internalType": "bytes",
					"name": "data",
					"type": "bytes"
				}
			],
			"name": "safeTransferFrom",
			"outputs": [],
			"stateMutability": "nonpayable",
			"type": "function"
		},
		{
			"inputs": [
				{
					"internalType": "address",
					"name": "operator",
					"type": "address"
				},
				{
					"internalType": "bool",
					"name": "approved",
					"type": "bool"
				}
			],
			"name": "setApprovalForAll",
			"outputs": [],
			"stateMutability": "nonpayable",
			"type": "function"
		},
		{
			"inputs": [
				{
					"internalType": "address",
					"name": "_signToken",
					"type": "address"
				}
			],
			"name": "setSignToken",
			"outputs": [],
			"stateMutability": "nonpayable",
			"type": "function"
		},
		{
			"inputs": [
				{
					"internalType": "address",
					"name": "_signsHistory",
					"type": "address"
				}
			],
			"name": "setSignsHistory",
			"outputs": [],
			"stateMutability": "nonpayable",
			"type": "function"
		},
		{
			"inputs": [
				{
					"internalType": "uint256",
					"name": "",
					"type": "uint256"
				}
			],
			"name": "signCarriers",
			"outputs": [
				{
					"internalType": "address",
					"name": "",
					"type": "address"
				}
			],
			"stateMutability": "view",
			"type": "function"
		},
		{
			"inputs": [],
			"name": "signToken",
			"outputs": [
				{
					"internalType": "contract ISignToken",
					"name": "",
					"type": "address"
				}
			],
			"stateMutability": "view",
			"type": "function"
		},
		{
			"inputs": [
				{
					"internalType": "uint256",
					"name": "",
					"type": "uint256"
				}
			],
			"name": "signs",
			"outputs": [
				{
					"components": [
						{
							"internalType": "int64",
							"name": "latitude",
							"type": "int64"
						},
						{
							"internalType": "int64",
							"name": "longitude",
							"type": "int64"
						},
						{
							"internalType": "uint64",
							"name": "timestamp",
							"type": "uint64"
						}
					],
					"internalType": "struct ISigns.Location",
					"name": "home",
					"type": "tuple"
				},
				{
					"components": [
						{
							"internalType": "int64",
							"name": "latitude",
							"type": "int64"
						},
						{
							"internalType": "int64",
							"name": "longitude",
							"type": "int64"
						},
						{
							"internalType": "uint64",
							"name": "timestamp",
							"type": "uint64"
						}
					],
					"internalType": "struct ISigns.Location",
					"name": "current",
					"type": "tuple"
				},
				{
					"internalType": "uint256",
					"name": "totalMoves",
					"type": "uint256"
				},
				{
					"internalType": "uint256",
					"name": "totalDistanceMeters",
					"type": "uint256"
				},
				{
					"internalType": "uint256",
					"name": "weight",
					"type": "uint256"
				},
				{
					"internalType": "address",
					"name": "owner",
					"type": "address"
				},
				{
					"internalType": "bool",
					"name": "isPickedUp",
					"type": "bool"
				},
				{
					"internalType": "bytes32",
					"name": "contentHash",
					"type": "bytes32"
				},
				{
					"internalType": "uint256",
					"name": "signWage",
					"type": "uint256"
				}
			],
			"stateMutability": "view",
			"type": "function"
		},
		{
			"inputs": [],
			"name": "signsHistory",
			"outputs": [
				{
					"internalType": "contract ISigns",
					"name": "",
					"type": "address"
				}
			],
			"stateMutability": "view",
			"type": "function"
		},
		{
			"inputs": [
				{
					"internalType": "bytes4",
					"name": "interfaceId",
					"type": "bytes4"
				}
			],
			"name": "supportsInterface",
			"outputs": [
				{
					"internalType": "bool",
					"name": "",
					"type": "bool"
				}
			],
			"stateMutability": "view",
			"type": "function"
		},
		{
			"inputs": [],
			"name": "symbol",
			"outputs": [
				{
					"internalType": "string",
					"name": "",
					"type": "string"
				}
			],
			"stateMutability": "view",
			"type": "function"
		},
		{
			"inputs": [
				{
					"internalType": "uint256",
					"name": "tokenId",
					"type": "uint256"
				}
			],
			"name": "tokenURI",
			"outputs": [
				{
					"internalType": "string",
					"name": "",
					"type": "string"
				}
			],
			"stateMutability": "view",
			"type": "function"
		},
		{
			"inputs": [
				{
					"internalType": "address",
					"name": "from",
					"type": "address"
				},
				{
					"internalType": "address",
					"name": "to",
					"type": "address"
				},
				{
					"internalType": "uint256",
					"name": "tokenId",
					"type": "uint256"
				}
			],
			"name": "transferFrom",
			"outputs": [],
			"stateMutability": "nonpayable",
			"type": "function"
		},
		{
			"inputs": [
				{
					"internalType": "address",
					"name": "newOwner",
					"type": "address"
				}
			],
			"name": "transferOwnership",
			"outputs": [],
			"stateMutability": "nonpayable",
			"type": "function"
		},
		{
			"inputs": [],
			"name": "unpause",
			"outputs": [],
			"stateMutability": "nonpayable",
			"type": "function"
		},
		{
			"inputs": [
				{
					"internalType": "uint256",
					"name": "newRate",
					"type": "uint256"
				}
			],
			"name": "updateBaseWageRate",
			"outputs": [],
			"stateMutability": "nonpayable",
			"type": "function"
		},
		{
			"inputs": [
				{
					"internalType": "uint256",
					"name": "tokenId",
					"type": "uint256"
				},
				{
					"components": [
						{
							"internalType": "int64",
							"name": "latitude",
							"type": "int64"
						},
						{
							"internalType": "int64",
							"name": "longitude",
							"type": "int64"
						},
						{
							"internalType": "uint64",
							"name": "timestamp",
							"type": "uint64"
						}
					],
					"internalType": "struct ISigns.Location",
					"name": "newHome",
					"type": "tuple"
				}
			],
			"name": "updateHome",
			"outputs": [],
			"stateMutability": "nonpayable",
			"type": "function"
		},
		{
			"inputs": [
				{
					"internalType": "uint256",
					"name": "tokenId",
					"type": "uint256"
				},
				{
					"internalType": "uint256",
					"name": "newWage",
					"type": "uint256"
				}
			],
			"name": "updateSignWage",
			"outputs": [],
			"stateMutability": "nonpayable",
			"type": "function"
		},
		{
			"inputs": [
				{
					"internalType": "uint256",
					"name": "newMoveWeightMultiplier",
					"type": "uint256"
				},
				{
					"internalType": "uint256",
					"name": "newMoveWeightDivisor",
					"type": "uint256"
				},
				{
					"internalType": "uint256",
					"name": "newDistanceWeightDivisor",
					"type": "uint256"
				}
			],
			"name": "updateWeightParameters",
			"outputs": [],
			"stateMutability": "nonpayable",
			"type": "function"
		},
		{
			"inputs": [
				{
					"internalType": "address",
					"name": "",
					"type": "address"
				}
			],
			"name": "userSignCount",
			"outputs": [
				{
					"internalType": "uint256",
					"name": "",
					"type": "uint256"
				}
			],
			"stateMutability": "view",
			"type": "function"
		}
	]
}