{
	"data": {
		"bytecode": {
			"linkReferences": {},
			"object": "60806040526001600b55600a600d55600a600e55612710600f55348015610024575f80fd5b50336040518060400160405280600e81526020017f5369676e732047616d65204e46540000000000000000000000000000000000008152506040518060400160405280600481526020017f5349474e00000000000000000000000000000000000000000000000000000000815250815f90816100a0919061044f565b5080600190816100b0919061044f565b5050505f73ffffffffffffffffffffffffffffffffffffffff168173ffffffffffffffffffffffffffffffffffffffff1603610123575f6040517f1e4fbdf700000000000000000000000000000000000000000000000000000000815260040161011a919061055d565b60405180910390fd5b6101328161015260201b60201c565b505f600660146101000a81548160ff021916908315150217905550610576565b5f60065f9054906101000a900473ffffffffffffffffffffffffffffffffffffffff1690508160065f6101000a81548173ffffffffffffffffffffffffffffffffffffffff021916908373ffffffffffffffffffffffffffffffffffffffff1602179055508173ffffffffffffffffffffffffffffffffffffffff168173ffffffffffffffffffffffffffffffffffffffff167f8be0079c531659141344cd1fd0a4f28419497f9722a3daafe3b4186f6b6457e060405160405180910390a35050565b5f81519050919050565b7f4e487b71000000000000000000000000000000000000000000000000000000005f52604160045260245ffd5b7f4e487b71000000000000000000000000000000000000000000000000000000005f52602260045260245ffd5b5f600282049050600182168061029057607f821691505b6020821081036102a3576102a261024c565b5b50919050565b5f819050815f5260205f209050919050565b5f6020601f8301049050919050565b5f82821b905092915050565b5f600883026103057fffffffffffffffffffffffffffffffffffffffffffffffffffffffffffffffff826102ca565b61030f86836102ca565b95508019841693508086168417925050509392505050565b5f819050919050565b5f819050919050565b5f61035361034e61034984610327565b610330565b610327565b9050919050565b5f819050919050565b61036c83610339565b6103806103788261035a565b8484546102d6565b825550505050565b5f90565b610394610388565b61039f818484610363565b505050565b5b818110156103c2576103b75f8261038c565b6001810190506103a5565b5050565b601f821115610407576103d8816102a9565b6103e1846102bb565b810160208510156103f0578190505b6104046103fc856102bb565b8301826103a4565b50505b505050565b5f82821c905092915050565b5f6104275f198460080261040c565b1980831691505092915050565b5f61043f8383610418565b9150826002028217905092915050565b61045882610215565b67ffffffffffffffff8111156104715761047061021f565b5b61047b8254610279565b6104868282856103c6565b5f60209050601f8311600181146104b7575f84156104a5578287015190505b6104af8582610434565b865550610516565b601f1984166104c5866102a9565b5f5b828110156104ec578489015182556001820191506020850194506020810190506104c7565b868310156105095784890151610505601f891682610418565b8355505b6001600288020188555050505b505050505050565b5f73ffffffffffffffffffffffffffffffffffffffff82169050919050565b5f6105478261051e565b9050919050565b6105578161053d565b82525050565b5f6020820190506105705f83018461054e565b92915050565b614635806105835f395ff3fe608060405234801561000f575f80fd5b5060043610610230575f3560e01c8063780f14f81161012e578063a22cb465116100b6578063c87b56dd1161007a578063c87b56dd1461063c578063cb75b9971461066c578063d1768b13146106a4578063e985e9c5146106c0578063f2fde38b146106f057610230565b8063a22cb465146105ac578063acc1c1a0146105c8578063b88ba0fd146105e4578063b88d4fde14610602578063c159c4541461061e57610230565b80638535ab52116100fd5780638535ab52146104f45780638ca138a0146105245780638da5cb5b1461055457806395d89b41146105725780639ff425221461059057610230565b8063780f14f814610492578063835bbbb2146104b057806383c30faa146104ce5780638456cb59146104ea57610230565b80633f4ba83a116101bc5780635f87a13f116101805780635f87a13f146103ee5780636352211e1461040a578063706d42831461043a57806370a0823114610458578063715018a61461048857610230565b80633f4ba83a1461035c57806342842e0e14610366578063458de77814610382578063526b444e146103a05780635c975abb146103d057610230565b8063095ea7b311610203578063095ea7b3146102ce5780630d64c089146102ea57806320fe5a101461030857806321dd4d271461032457806323b872dd1461034057610230565b806301ffc9a71461023457806306fdde0314610264578063080807be14610282578063081812fc1461029e575b5f80fd5b61024e600480360381019061024991906131e2565b61070c565b60405161025b9190613227565b60405180910390f35b61026c6107ed565b60405161027991906132b0565b60405180910390f35b61029c600480360381019061029791906133b2565b61087c565b005b6102b860048036038101906102b3919061343e565b6108b7565b6040516102c59190613478565b60405180910390f35b6102e860048036038101906102e39190613491565b6108d2565b005b6102f261090d565b6040516102ff91906134de565b60405180910390f35b610322600480360381019061031d91906134f7565b610913565b005b61033e60048036038101906103399190613547565b6109bd565b005b61035a60048036038101906103559190613585565b610b88565b005b610364610c87565b005b610380600480360381019061037b9190613585565b610c99565b005b61038a610cb8565b6040516103979190613630565b60405180910390f35b6103ba60048036038101906103b59190613649565b610cdd565b6040516103c791906134de565b60405180910390f35b6103d8610f2e565b6040516103e59190613227565b60405180910390f35b61040860048036038101906104039190613674565b610f44565b005b610424600480360381019061041f919061343e565b61147f565b6040516104319190613478565b60405180910390f35b610442611490565b60405161044f91906134de565b60405180910390f35b610472600480360381019061046d91906136c4565b611496565b60405161047f91906134de565b60405180910390f35b61049061154c565b005b61049a61155f565b6040516104a791906134de565b60405180910390f35b6104b8611565565b6040516104c591906134de565b60405180910390f35b6104e860048036038101906104e391906136c4565b61156a565b005b6104f26115b5565b005b61050e600480360381019061050991906136c4565b6115c7565b60405161051b91906134de565b60405180910390f35b61053e6004803603810190610539919061343e565b6115dc565b60405161054b9190613478565b60405180910390f35b61055c61160c565b6040516105699190613478565b60405180910390f35b61057a611634565b60405161058791906132b0565b60405180910390f35b6105aa60048036038101906105a591906136ef565b6116c4565b005b6105c660048036038101906105c19190613757565b6117a6565b005b6105e260048036038101906105dd9190613547565b6117e1565b005b6105ec611b2b565b6040516105f991906134de565b60405180910390f35b61061c600480360381019061061791906138c1565b611b31565b005b610626611b56565b60405161063391906134de565b60405180910390f35b6106566004803603810190610651919061343e565b611b5b565b60405161066391906132b0565b60405180910390f35b6106866004803603810190610681919061343e565b611bc1565b60405161069b999897969594939291906139cd565b60405180910390f35b6106be60048036038101906106b9919061343e565b611d1b565b005b6106da60048036038101906106d59190613a5c565b611d64565b6040516106e79190613227565b60405180910390f35b61070a600480360381019061070591906136c4565b611df2565b005b5f7f80ac58cd000000000000000000000000000000000000000000000000000000007bffffffffffffffffffffffffffffffffffffffffffffffffffffffff1916827bffffffffffffffffffffffffffffffffffffffffffffffffffffffff191614806107d657507f5b5e139f000000000000000000000000000000000000000000000000000000007bffffffffffffffffffffffffffffffffffffffffffffffffffffffff1916827bffffffffffffffffffffffffffffffffffffffffffffffffffffffff1916145b806107e657506107e582611e76565b5b9050919050565b60605f80546107fb90613ac7565b80601f016020809104026020016040519081016040528092919081815260200182805461082790613ac7565b80156108725780601f1061084957610100808354040283529160200191610872565b820191905f5260205f20905b81548152906001019060200180831161085557829003601f168201915b5050505050905090565b6040517f08c379a00000000000000000000000000000000000000000000000000000000081526004016108ae90613b41565b60405180910390fd5b5f6108c182611edf565b506108cb82611f65565b9050919050565b6040517f08c379a000000000000000000000000000000000000000000000000000000000815260040161090490613bcf565b60405180910390fd5b600e5481565b61091b611f9e565b5f8211801561092957505f81115b610968576040517f08c379a000000000000000000000000000000000000000000000000000000000815260040161095f90613c37565b60405180910390fd5b82600d8190555081600e8190555080600f819055507fd8967ea7c9dca5ba59868b7dde8aa63e5138a60c8d9eab8a302e616f5cf4b5ea8383836040516109b093929190613c55565b60405180910390a1505050565b6109c5612025565b5f60085f8481526020019081526020015f2090505f73ffffffffffffffffffffffffffffffffffffffff16816005015f9054906101000a900473ffffffffffffffffffffffffffffffffffffffff1673ffffffffffffffffffffffffffffffffffffffff1603610a61576040517f4d28580700000000000000000000000000000000000000000000000000000000815260040160405180910390fd5b3373ffffffffffffffffffffffffffffffffffffffff16816005015f9054906101000a900473ffffffffffffffffffffffffffffffffffffffff1673ffffffffffffffffffffffffffffffffffffffff1614610ae9576040517f5ea428d200000000000000000000000000000000000000000000000000000000815260040160405180910390fd5b610b0282803603810190610afd9190613d43565b61206f565b610b38576040517ff80f144500000000000000000000000000000000000000000000000000000000815260040160405180910390fd5b81815f018181610b489190613f6e565b905050827f5e3c2dc59961afd7162b57db3494a2c4fd3aa84094847a768067ad2fc16416c083604051610b7b9190614000565b60405180910390a2505050565b5f73ffffffffffffffffffffffffffffffffffffffff168273ffffffffffffffffffffffffffffffffffffffff1603610bf8575f6040517f64a0ae92000000000000000000000000000000000000000000000000000000008152600401610bef9190613478565b60405180910390fd5b5f610c0b8383610c06612118565b61211f565b90508373ffffffffffffffffffffffffffffffffffffffff168173ffffffffffffffffffffffffffffffffffffffff1614610c81578382826040517f64283d7b000000000000000000000000000000000000000000000000000000008152600401610c7893929190614019565b60405180910390fd5b50505050565b610c8f611f9e565b610c9761219e565b565b610cb383838360405180602001604052805f815250611b31565b505050565b600c5f9054906101000a900473ffffffffffffffffffffffffffffffffffffffff1681565b5f610ce6612025565b600160095f3373ffffffffffffffffffffffffffffffffffffffff1673ffffffffffffffffffffffffffffffffffffffff1681526020019081526020015f205410610d5d576040517f5e1c472800000000000000000000000000000000000000000000000000000000815260040160405180910390fd5b610d7682803603810190610d719190613d43565b61206f565b610dac576040517ff80f144500000000000000000000000000000000000000000000000000000000815260040160405180910390fd5b610db66007612200565b5f610dc16007612214565b90505f60085f8381526020019081526020015f20905083815f018181610de79190613f6e565b90505083816001018181610dfb9190613f6e565b90505033816005015f6101000a81548173ffffffffffffffffffffffffffffffffffffffff021916908373ffffffffffffffffffffffffffffffffffffffff1602179055505f81600401819055505f81600301819055505f8160050160146101000a81548160ff021916908315150217905550600b54816007018190555060095f3373ffffffffffffffffffffffffffffffffffffffff1673ffffffffffffffffffffffffffffffffffffffff1681526020019081526020015f205f815480929190610ec69061407b565b9190505550610ed53383612220565b3373ffffffffffffffffffffffffffffffffffffffff16827fdffe517f254875de804b76d54da034367437a82635472ceaffe26b4c813beb0886604051610f1c9190614000565b60405180910390a38192505050919050565b5f600660149054906101000a900460ff16905090565b610f4c612025565b5f73ffffffffffffffffffffffffffffffffffffffff16600c5f9054906101000a900473ffffffffffffffffffffffffffffffffffffffff1673ffffffffffffffffffffffffffffffffffffffff1603610fd2576040517fc8c5b00e00000000000000000000000000000000000000000000000000000000815260040160405180910390fd5b5f60085f8581526020019081526020015f2090505f73ffffffffffffffffffffffffffffffffffffffff16816005015f9054906101000a900473ffffffffffffffffffffffffffffffffffffffff1673ffffffffffffffffffffffffffffffffffffffff160361106e576040517f4d28580700000000000000000000000000000000000000000000000000000000815260040160405180910390fd5b8060050160149054906101000a900460ff166110b6576040517fa008845700000000000000000000000000000000000000000000000000000000815260040160405180910390fd5b3373ffffffffffffffffffffffffffffffffffffffff16600a5f8681526020019081526020015f205f9054906101000a900473ffffffffffffffffffffffffffffffffffffffff1673ffffffffffffffffffffffffffffffffffffffff161461114b576040517f5ea428d200000000000000000000000000000000000000000000000000000000815260040160405180910390fd5b6111648380360381019061115f9190613d43565b61206f565b61119a576040517ff80f144500000000000000000000000000000000000000000000000000000000815260040160405180910390fd5b5f816001016040518060600160405290815f82015f9054906101000a900460070b60070b60070b81526020015f820160089054906101000a900460070b60070b60070b81526020015f820160109054906101000a900467ffffffffffffffff1667ffffffffffffffff1667ffffffffffffffff16815250509050838260010181816112259190613f6e565b9050505f8260050160146101000a81548160ff021916908315150217905550816002015f8154809291906112589061407b565b91905055505f61127882868036038101906112739190613d43565b61223d565b905080836003015f82825461128d91906140c2565b925050819055506112a68360020154846003015461230f565b83600401819055508383600601819055505f6112d88784888036038101906112ce9190613d43565b8760040154612378565b9050600c5f9054906101000a900473ffffffffffffffffffffffffffffffffffffffff1673ffffffffffffffffffffffffffffffffffffffff1663080807be8833868a868b6040518763ffffffff1660e01b815260040161133e969594939291906140f5565b5f604051808303815f87803b158015611355575f80fd5b505af1158015611367573d5f803e3d5ffd5b50505050600a5f8881526020019081526020015f205f6101000a81549073ffffffffffffffffffffffffffffffffffffffff02191690553373ffffffffffffffffffffffffffffffffffffffff16877fae2d7af13ac4bbb6c26a8ce1d47d0148f62f74bd05aebacd2562f16cbedd65fd886040516113e59190614000565b60405180910390a33373ffffffffffffffffffffffffffffffffffffffff16877f3d34cac5fc97a73234c81ca60d8bf759004df6f7769f9cb6c45345b8b2e78a098589604051611436929190614157565b60405180910390a3867fd57ebcebd2ee998af04cc567d1d726db6e506e576a231810cfc85a1fbc4384178660405161146e919061417e565b60405180910390a250505050505050565b5f61148982611edf565b9050919050565b600d5481565b5f8073ffffffffffffffffffffffffffffffffffffffff168273ffffffffffffffffffffffffffffffffffffffff1603611507575f6040517f89c62b640000000000000000000000000000000000000000000000000000000081526004016114fe9190613478565b60405180910390fd5b60035f8373ffffffffffffffffffffffffffffffffffffffff1673ffffffffffffffffffffffffffffffffffffffff1681526020019081526020015f20549050919050565b611554611f9e565b61155d5f6124b0565b565b600b5481565b600181565b611572611f9e565b80600c5f6101000a81548173ffffffffffffffffffffffffffffffffffffffff021916908373ffffffffffffffffffffffffffffffffffffffff16021790555050565b6115bd611f9e565b6115c5612573565b565b6009602052805f5260405f205f915090505481565b600a602052805f5260405f205f915054906101000a900473ffffffffffffffffffffffffffffffffffffffff1681565b5f60065f9054906101000a900473ffffffffffffffffffffffffffffffffffffffff16905090565b60606001805461164390613ac7565b80601f016020809104026020016040519081016040528092919081815260200182805461166f90613ac7565b80156116ba5780601f10611691576101008083540402835291602001916116ba565b820191905f5260205f20905b81548152906001019060200180831161169d57829003601f168201915b5050505050905090565b5f60085f8481526020019081526020015f2090503373ffffffffffffffffffffffffffffffffffffffff16816005015f9054906101000a900473ffffffffffffffffffffffffffffffffffffffff1673ffffffffffffffffffffffffffffffffffffffff1614611760576040517fde271cf500000000000000000000000000000000000000000000000000000000815260040160405180910390fd5b818160070181905550827f6d45aafd42922ecaf790edbeb5b45dfaca692040b5a8b8d0f0379035d18a38298360405161179991906134de565b60405180910390a2505050565b6040517f08c379a00000000000000000000000000000000000000000000000000000000081526004016117d890614207565b60405180910390fd5b6117e9612025565b5f60085f8481526020019081526020015f2090505f73ffffffffffffffffffffffffffffffffffffffff16816005015f9054906101000a900473ffffffffffffffffffffffffffffffffffffffff1673ffffffffffffffffffffffffffffffffffffffff1603611885576040517f4d28580700000000000000000000000000000000000000000000000000000000815260040160405180910390fd5b8060050160149054906101000a900460ff16156118ce576040517f7bb246a300000000000000000000000000000000000000000000000000000000815260040160405180910390fd5b806005015f9054906101000a900473ffffffffffffffffffffffffffffffffffffffff1673ffffffffffffffffffffffffffffffffffffffff163373ffffffffffffffffffffffffffffffffffffffff1603611956576040517f5ea428d200000000000000000000000000000000000000000000000000000000815260040160405180910390fd5b6119e68280360381019061196a9190613d43565b826001016040518060600160405290815f82015f9054906101000a900460070b60070b60070b81526020015f820160089054906101000a900460070b60070b60070b81526020015f820160109054906101000a900467ffffffffffffffff1667ffffffffffffffff1667ffffffffffffffff16815250506125d6565b611a1c576040517fe286e4cf00000000000000000000000000000000000000000000000000000000815260040160405180910390fd5b611a3582803603810190611a309190613d43565b61206f565b611a6b576040517ff80f144500000000000000000000000000000000000000000000000000000000815260040160405180910390fd5b60018160050160146101000a81548160ff02191690831515021790555033600a5f8581526020019081526020015f205f6101000a81548173ffffffffffffffffffffffffffffffffffffffff021916908373ffffffffffffffffffffffffffffffffffffffff1602179055503373ffffffffffffffffffffffffffffffffffffffff16837fad6ffa76ad6dfc74b39fb62c7f9e1a5255044c5c4dfbce7b7e9644d20dcbc6cc84604051611b1e9190614000565b60405180910390a3505050565b600f5481565b611b3c848484610b88565b611b50611b47612118565b858585856126ba565b50505050565b606481565b6060611b6682611edf565b505f611b70612866565b90505f815111611b8e5760405180602001604052805f815250611bb9565b80611b988461287c565b604051602001611ba992919061425f565b6040516020818303038152906040525b915050919050565b6008602052805f5260405f205f91509050805f016040518060600160405290815f82015f9054906101000a900460070b60070b60070b81526020015f820160089054906101000a900460070b60070b60070b81526020015f820160109054906101000a900467ffffffffffffffff1667ffffffffffffffff1667ffffffffffffffff168152505090806001016040518060600160405290815f82015f9054906101000a900460070b60070b60070b81526020015f820160089054906101000a900460070b60070b60070b81526020015f820160109054906101000a900467ffffffffffffffff1667ffffffffffffffff1667ffffffffffffffff168152505090806002015490806003015490806004015490806005015f9054906101000a900473ffffffffffffffffffffffffffffffffffffffff16908060050160149054906101000a900460ff16908060060154908060070154905089565b611d23611f9e565b80600b819055507fbb9cc79cd65e537e25d290beb2ffb5bf3d7dae20c986aa6ada11022236d18a9a81604051611d5991906134de565b60405180910390a150565b5f60055f8473ffffffffffffffffffffffffffffffffffffffff1673ffffffffffffffffffffffffffffffffffffffff1681526020019081526020015f205f8373ffffffffffffffffffffffffffffffffffffffff1673ffffffffffffffffffffffffffffffffffffffff1681526020019081526020015f205f9054906101000a900460ff16905092915050565b611dfa611f9e565b5f73ffffffffffffffffffffffffffffffffffffffff168173ffffffffffffffffffffffffffffffffffffffff1603611e6a575f6040517f1e4fbdf7000000000000000000000000000000000000000000000000000000008152600401611e619190613478565b60405180910390fd5b611e73816124b0565b50565b5f7f01ffc9a7000000000000000000000000000000000000000000000000000000007bffffffffffffffffffffffffffffffffffffffffffffffffffffffff1916827bffffffffffffffffffffffffffffffffffffffffffffffffffffffff1916149050919050565b5f80611eea83612946565b90505f73ffffffffffffffffffffffffffffffffffffffff168173ffffffffffffffffffffffffffffffffffffffff1603611f5c57826040517f7e273289000000000000000000000000000000000000000000000000000000008152600401611f5391906134de565b60405180910390fd5b80915050919050565b5f60045f8381526020019081526020015f205f9054906101000a900473ffffffffffffffffffffffffffffffffffffffff169050919050565b611fa6612118565b73ffffffffffffffffffffffffffffffffffffffff16611fc461160c565b73ffffffffffffffffffffffffffffffffffffffff161461202357611fe7612118565b6040517f118cdaa700000000000000000000000000000000000000000000000000000000815260040161201a9190613478565b60405180910390fd5b565b61202d610f2e565b1561206d576040517f08c379a0000000000000000000000000000000000000000000000000000000008152600401612064906142cc565b60405180910390fd5b565b5f7ffffffffffffffffffffffffffffffffffffffffffffffffffffffffffff24460825f015160070b121580156120af5750620dbba0825f015160070b13155b80156120e257507fffffffffffffffffffffffffffffffffffffffffffffffffffffffffffe488c0826020015160070b12155b80156120f85750621b7740826020015160070b13155b801561211157505f826040015167ffffffffffffffff16115b9050919050565b5f33905090565b5f612128612025565b60085f8481526020019081526020015f2060050160149054906101000a900460ff161561218a576040517f08c379a000000000000000000000000000000000000000000000000000000000815260040161218190614334565b60405180910390fd5b61219584848461297f565b90509392505050565b6121a6612b8a565b5f600660146101000a81548160ff0219169083151502179055507f5db9ee0a495bf2e6ff9c91a7834c1ba4fdd244a5e8aa4e537bd38aeae4b073aa6121e9612118565b6040516121f69190613478565b60405180910390a1565b6001815f015f828254019250508190555050565b5f815f01549050919050565b612239828260405180602001604052805f815250612bd3565b5050565b5f80835f0151835f01516122519190614352565b90505f846020015184602001516122689190614352565b90505f808360070b1261227b5782612286565b82612285906143b1565b5b90505f808360070b1261229957826122a4565b826122a3906143b1565b5b90505f8167ffffffffffffffff168267ffffffffffffffff166122c791906143f7565b8367ffffffffffffffff168467ffffffffffffffff166122e791906143f7565b6122f191906140c2565b90506201b1988161230291906143f7565b9550505050505092915050565b5f80600e54600e548561232291906140c2565b61232c91906143f7565b600d54858661233b91906143f7565b61234591906143f7565b61234f9190614465565b90505f600f54846123609190614465565b9050808261236e91906140c2565b9250505092915050565b5f80845f0151845f015161238c9190614352565b90505f856020015185602001516123a39190614352565b90505f808360070b126123b657826123c1565b826123c0906143b1565b5b90505f808360070b126123d457826123df565b826123de906143b1565b5b90505f8167ffffffffffffffff168267ffffffffffffffff1661240291906143f7565b8367ffffffffffffffff168467ffffffffffffffff1661242291906143f7565b61242c91906140c2565b90505f6201b1988261243e91906143f7565b90505f606460085f8e81526020019081526020015f20600701548361246391906143f7565b61246d9190614465565b90505f8961271061247e91906140c2565b90505f612710828461249091906143f7565b61249a9190614465565b9050809950505050505050505050949350505050565b5f60065f9054906101000a900473ffffffffffffffffffffffffffffffffffffffff1690508160065f6101000a81548173ffffffffffffffffffffffffffffffffffffffff021916908373ffffffffffffffffffffffffffffffffffffffff1602179055508173ffffffffffffffffffffffffffffffffffffffff168173ffffffffffffffffffffffffffffffffffffffff167f8be0079c531659141344cd1fd0a4f28419497f9722a3daafe3b4186f6b6457e060405160405180910390a35050565b61257b612025565b6001600660146101000a81548160ff0219169083151502179055507f62e78cea01bee320cd4e420270b5ea74000d11b0c9f74754ebdbfc544b05a2586125bf612118565b6040516125cc9190613478565b60405180910390a1565b5f80825f0151845f01516125ea9190614352565b90505f836020015185602001516126019190614352565b90505f808360070b12612614578261261f565b8261261e906143b1565b5b90505f808360070b12612632578261263d565b8261263c906143b1565b5b90505f8167ffffffffffffffff168267ffffffffffffffff1661266091906143f7565b8367ffffffffffffffff168467ffffffffffffffff1661268091906143f7565b61268a91906140c2565b90506201b198808261269c91906143f7565b6126a691906143f7565b905060648111159550505050505092915050565b5f8373ffffffffffffffffffffffffffffffffffffffff163b111561285f578273ffffffffffffffffffffffffffffffffffffffff1663150b7a02868685856040518563ffffffff1660e01b815260040161271894939291906144e7565b6020604051808303815f875af192505050801561275357506040513d601f19601f820116820180604052508101906127509190614545565b60015b6127d4573d805f8114612781576040519150601f19603f3d011682016040523d82523d5f602084013e612786565b606091505b505f8151036127cc57836040517f64a0ae920000000000000000000000000000000000000000000000000000000081526004016127c39190613478565b60405180910390fd5b805181602001fd5b63150b7a0260e01b7bffffffffffffffffffffffffffffffffffffffffffffffffffffffff1916817bffffffffffffffffffffffffffffffffffffffffffffffffffffffff19161461285d57836040517f64a0ae920000000000000000000000000000000000000000000000000000000081526004016128549190613478565b60405180910390fd5b505b5050505050565b606060405180602001604052805f815250905090565b60605f600161288a84612bf6565b0190505f8167ffffffffffffffff8111156128a8576128a761379d565b5b6040519080825280601f01601f1916602001820160405280156128da5781602001600182028036833780820191505090505b5090505f82602001820190505b60011561293b578080600190039150507f3031323334353637383961626364656600000000000000000000000000000000600a86061a8153600a85816129305761292f614438565b5b0494505f85036128e7575b819350505050919050565b5f60025f8381526020019081526020015f205f9054906101000a900473ffffffffffffffffffffffffffffffffffffffff169050919050565b5f8061298a84612946565b90505f73ffffffffffffffffffffffffffffffffffffffff168373ffffffffffffffffffffffffffffffffffffffff16146129cb576129ca818486612d47565b5b5f73ffffffffffffffffffffffffffffffffffffffff168173ffffffffffffffffffffffffffffffffffffffff1614612a5657612a0a5f855f80612e0a565b600160035f8373ffffffffffffffffffffffffffffffffffffffff1673ffffffffffffffffffffffffffffffffffffffff1681526020019081526020015f205f82825403925050819055505b5f73ffffffffffffffffffffffffffffffffffffffff168573ffffffffffffffffffffffffffffffffffffffff1614612ad557600160035f8773ffffffffffffffffffffffffffffffffffffffff1673ffffffffffffffffffffffffffffffffffffffff1681526020019081526020015f205f82825401925050819055505b8460025f8681526020019081526020015f205f6101000a81548173ffffffffffffffffffffffffffffffffffffffff021916908373ffffffffffffffffffffffffffffffffffffffff160217905550838573ffffffffffffffffffffffffffffffffffffffff168273ffffffffffffffffffffffffffffffffffffffff167fddf252ad1be2c89b69c2b068fc378daa952ba7f163c4a11628f55a4df523b3ef60405160405180910390a4809150509392505050565b612b92610f2e565b612bd1576040517f08c379a0000000000000000000000000000000000000000000000000000000008152600401612bc8906145ba565b60405180910390fd5b565b612bdd8383612fc9565b612bf1612be8612118565b5f8585856126ba565b505050565b5f805f90507a184f03e93ff9f4daa797ed6e38ed64bf6a1f0100000000000000008310612c52577a184f03e93ff9f4daa797ed6e38ed64bf6a1f0100000000000000008381612c4857612c47614438565b5b0492506040810190505b6d04ee2d6d415b85acef81000000008310612c8f576d04ee2d6d415b85acef81000000008381612c8557612c84614438565b5b0492506020810190505b662386f26fc100008310612cbe57662386f26fc100008381612cb457612cb3614438565b5b0492506010810190505b6305f5e1008310612ce7576305f5e1008381612cdd57612cdc614438565b5b0492506008810190505b6127108310612d0c576127108381612d0257612d01614438565b5b0492506004810190505b60648310612d2f5760648381612d2557612d24614438565b5b0492506002810190505b600a8310612d3e576001810190505b80915050919050565b612d528383836130bc565b612e05575f73ffffffffffffffffffffffffffffffffffffffff168373ffffffffffffffffffffffffffffffffffffffff1603612dc657806040517f7e273289000000000000000000000000000000000000000000000000000000008152600401612dbd91906134de565b60405180910390fd5b81816040517f177e802f000000000000000000000000000000000000000000000000000000008152600401612dfc9291906145d8565b60405180910390fd5b505050565b8080612e4257505f73ffffffffffffffffffffffffffffffffffffffff168273ffffffffffffffffffffffffffffffffffffffff1614155b15612f74575f612e5184611edf565b90505f73ffffffffffffffffffffffffffffffffffffffff168373ffffffffffffffffffffffffffffffffffffffff1614158015612ebb57508273ffffffffffffffffffffffffffffffffffffffff168173ffffffffffffffffffffffffffffffffffffffff1614155b8015612ece5750612ecc8184611d64565b155b15612f1057826040517fa9fbf51f000000000000000000000000000000000000000000000000000000008152600401612f079190613478565b60405180910390fd5b8115612f7257838573ffffffffffffffffffffffffffffffffffffffff168273ffffffffffffffffffffffffffffffffffffffff167f8c5be1e5ebec7d5bd14f71427d1e84f3dd0314c0f7b2291e5b200ac8c7c3b92560405160405180910390a45b505b8360045f8581526020019081526020015f205f6101000a81548173ffffffffffffffffffffffffffffffffffffffff021916908373ffffffffffffffffffffffffffffffffffffffff16021790555050505050565b5f73ffffffffffffffffffffffffffffffffffffffff168273ffffffffffffffffffffffffffffffffffffffff1603613039575f6040517f64a0ae920000000000000000000000000000000000000000000000000000000081526004016130309190613478565b60405180910390fd5b5f61304583835f61211f565b90505f73ffffffffffffffffffffffffffffffffffffffff168173ffffffffffffffffffffffffffffffffffffffff16146130b7575f6040517f73c6ac6e0000000000000000000000000000000000000000000000000000000081526004016130ae9190613478565b60405180910390fd5b505050565b5f8073ffffffffffffffffffffffffffffffffffffffff168373ffffffffffffffffffffffffffffffffffffffff161415801561317357508273ffffffffffffffffffffffffffffffffffffffff168473ffffffffffffffffffffffffffffffffffffffff16148061313457506131338484611d64565b5b8061317257508273ffffffffffffffffffffffffffffffffffffffff1661315a83611f65565b73ffffffffffffffffffffffffffffffffffffffff16145b5b90509392505050565b5f604051905090565b5f80fd5b5f80fd5b5f7fffffffff0000000000000000000000000000000000000000000000000000000082169050919050565b6131c18161318d565b81146131cb575f80fd5b50565b5f813590506131dc816131b8565b92915050565b5f602082840312156131f7576131f6613185565b5b5f613204848285016131ce565b91505092915050565b5f8115159050919050565b6132218161320d565b82525050565b5f60208201905061323a5f830184613218565b92915050565b5f81519050919050565b5f82825260208201905092915050565b8281835e5f83830152505050565b5f601f19601f8301169050919050565b5f61328282613240565b61328c818561324a565b935061329c81856020860161325a565b6132a581613268565b840191505092915050565b5f6020820190508181035f8301526132c88184613278565b905092915050565b5f819050919050565b6132e2816132d0565b81146132ec575f80fd5b50565b5f813590506132fd816132d9565b92915050565b5f73ffffffffffffffffffffffffffffffffffffffff82169050919050565b5f61332c82613303565b9050919050565b61333c81613322565b8114613346575f80fd5b50565b5f8135905061335781613333565b92915050565b5f80fd5b5f606082840312156133765761337561335d565b5b81905092915050565b5f819050919050565b6133918161337f565b811461339b575f80fd5b50565b5f813590506133ac81613388565b92915050565b5f805f805f8061014087890312156133cd576133cc613185565b5b5f6133da89828a016132ef565b96505060206133eb89828a01613349565b95505060406133fc89828a01613361565b94505060a061340d89828a01613361565b93505061010061341f89828a016132ef565b92505061012061343189828a0161339e565b9150509295509295509295565b5f6020828403121561345357613452613185565b5b5f613460848285016132ef565b91505092915050565b61347281613322565b82525050565b5f60208201905061348b5f830184613469565b92915050565b5f80604083850312156134a7576134a6613185565b5b5f6134b485828601613349565b92505060206134c5858286016132ef565b9150509250929050565b6134d8816132d0565b82525050565b5f6020820190506134f15f8301846134cf565b92915050565b5f805f6060848603121561350e5761350d613185565b5b5f61351b868287016132ef565b935050602061352c868287016132ef565b925050604061353d868287016132ef565b9150509250925092565b5f806080838503121561355d5761355c613185565b5b5f61356a858286016132ef565b925050602061357b85828601613361565b9150509250929050565b5f805f6060848603121561359c5761359b613185565b5b5f6135a986828701613349565b93505060206135ba86828701613349565b92505060406135cb868287016132ef565b9150509250925092565b5f819050919050565b5f6135f86135f36135ee84613303565b6135d5565b613303565b9050919050565b5f613609826135de565b9050919050565b5f61361a826135ff565b9050919050565b61362a81613610565b82525050565b5f6020820190506136435f830184613621565b92915050565b5f6060828403121561365e5761365d613185565b5b5f61366b84828501613361565b91505092915050565b5f805f60a0848603121561368b5761368a613185565b5b5f613698868287016132ef565b93505060206136a986828701613361565b92505060806136ba8682870161339e565b9150509250925092565b5f602082840312156136d9576136d8613185565b5b5f6136e684828501613349565b91505092915050565b5f806040838503121561370557613704613185565b5b5f613712858286016132ef565b9250506020613723858286016132ef565b9150509250929050565b6137368161320d565b8114613740575f80fd5b50565b5f813590506137518161372d565b92915050565b5f806040838503121561376d5761376c613185565b5b5f61377a85828601613349565b925050602061378b85828601613743565b9150509250929050565b5f80fd5b5f80fd5b7f4e487b71000000000000000000000000000000000000000000000000000000005f52604160045260245ffd5b6137d382613268565b810181811067ffffffffffffffff821117156137f2576137f161379d565b5b80604052505050565b5f61380461317c565b905061381082826137ca565b919050565b5f67ffffffffffffffff82111561382f5761382e61379d565b5b61383882613268565b9050602081019050919050565b828183375f83830152505050565b5f61386561386084613815565b6137fb565b90508281526020810184848401111561388157613880613799565b5b61388c848285613845565b509392505050565b5f82601f8301126138a8576138a7613795565b5b81356138b8848260208601613853565b91505092915050565b5f805f80608085870312156138d9576138d8613185565b5b5f6138e687828801613349565b94505060206138f787828801613349565b9350506040613908878288016132ef565b925050606085013567ffffffffffffffff81111561392957613928613189565b5b61393587828801613894565b91505092959194509250565b5f8160070b9050919050565b61395681613941565b82525050565b5f67ffffffffffffffff82169050919050565b6139788161395c565b82525050565b606082015f8201516139925f85018261394d565b5060208201516139a5602085018261394d565b5060408201516139b8604085018261396f565b50505050565b6139c78161337f565b82525050565b5f6101a0820190506139e15f83018c61397e565b6139ee606083018b61397e565b6139fb60c083018a6134cf565b613a0860e08301896134cf565b613a166101008301886134cf565b613a24610120830187613469565b613a32610140830186613218565b613a406101608301856139be565b613a4e6101808301846134cf565b9a9950505050505050505050565b5f8060408385031215613a7257613a71613185565b5b5f613a7f85828601613349565b9250506020613a9085828601613349565b9150509250929050565b7f4e487b71000000000000000000000000000000000000000000000000000000005f52602260045260245ffd5b5f6002820490506001821680613ade57607f821691505b602082108103613af157613af0613a9a565b5b50919050565b7f5369676e734e46543a206e6f7420696d706c656d656e746564000000000000005f82015250565b5f613b2b60198361324a565b9150613b3682613af7565b602082019050919050565b5f6020820190508181035f830152613b5881613b1f565b9050919050565b7f5369676e733a2064697265637420617070726f76616c206e6f7420616c6c6f775f8201527f6564000000000000000000000000000000000000000000000000000000000000602082015250565b5f613bb960228361324a565b9150613bc482613b5f565b604082019050919050565b5f6020820190508181035f830152613be681613bad565b9050919050565b7f496e76616c69642064697669736f7273000000000000000000000000000000005f82015250565b5f613c2160108361324a565b9150613c2c82613bed565b602082019050919050565b5f6020820190508181035f830152613c4e81613c15565b9050919050565b5f606082019050613c685f8301866134cf565b613c7560208301856134cf565b613c8260408301846134cf565b949350505050565b5f80fd5b613c9781613941565b8114613ca1575f80fd5b50565b5f81359050613cb281613c8e565b92915050565b613cc18161395c565b8114613ccb575f80fd5b50565b5f81359050613cdc81613cb8565b92915050565b5f60608284031215613cf757613cf6613c8a565b5b613d0160606137fb565b90505f613d1084828501613ca4565b5f830152506020613d2384828501613ca4565b6020830152506040613d3784828501613cce565b60408301525092915050565b5f60608284031215613d5857613d57613185565b5b5f613d6584828501613ce2565b91505092915050565b5f8135613d7a81613c8e565b80915050919050565b5f815f1b9050919050565b5f67ffffffffffffffff613da184613d83565b9350801983169250808416831791505092915050565b5f613dd1613dcc613dc784613941565b6135d5565b613941565b9050919050565b5f819050919050565b613dea82613db7565b613dfd613df682613dd8565b8354613d8e565b8255505050565b5f8160401b9050919050565b5f6fffffffffffffffff0000000000000000613e2b84613e04565b9350801983169250808416831791505092915050565b613e4a82613db7565b613e5d613e5682613dd8565b8354613e10565b8255505050565b5f8135613e7081613cb8565b80915050919050565b5f8160801b9050919050565b5f77ffffffffffffffff00000000000000000000000000000000613ea884613e79565b9350801983169250808416831791505092915050565b5f613ed8613ed3613ece8461395c565b6135d5565b61395c565b9050919050565b5f819050919050565b613ef182613ebe565b613f04613efd82613edf565b8354613e85565b8255505050565b5f81015f830180613f1b81613d6e565b9050613f278184613de1565b5050505f81016020830180613f3b81613d6e565b9050613f478184613e41565b5050505f81016040830180613f5b81613e64565b9050613f678184613ee8565b5050505050565b613f788282613f0b565b5050565b5f613f8a6020840184613ca4565b905092915050565b5f613fa06020840184613cce565b905092915050565b60608201613fb85f830183613f7c565b613fc45f85018261394d565b50613fd26020830183613f7c565b613fdf602085018261394d565b50613fed6040830183613f92565b613ffa604085018261396f565b50505050565b5f6060820190506140135f830184613fa8565b92915050565b5f60608201905061402c5f830186613469565b61403960208301856134cf565b6140466040830184613469565b949350505050565b7f4e487b71000000000000000000000000000000000000000000000000000000005f52601160045260245ffd5b5f614085826132d0565b91507fffffffffffffffffffffffffffffffffffffffffffffffffffffffffffffffff82036140b7576140b661404e565b5b600182019050919050565b5f6140cc826132d0565b91506140d7836132d0565b92508282019050808211156140ef576140ee61404e565b5b92915050565b5f610140820190506141095f8301896134cf565b6141166020830188613469565b614123604083018761397e565b61413060a0830186613fa8565b61413e6101008301856134cf565b61414c6101208301846139be565b979650505050505050565b5f60c08201905061416a5f83018561397e565b6141776060830184613fa8565b9392505050565b5f6020820190506141915f8301846139be565b92915050565b7f5369676e733a20617070726f76616c20666f7220616c6c206e6f7420616c6c6f5f8201527f7765640000000000000000000000000000000000000000000000000000000000602082015250565b5f6141f160238361324a565b91506141fc82614197565b604082019050919050565b5f6020820190508181035f83015261421e816141e5565b9050919050565b5f81905092915050565b5f61423982613240565b6142438185614225565b935061425381856020860161325a565b80840191505092915050565b5f61426a828561422f565b9150614276828461422f565b91508190509392505050565b7f5061757361626c653a20706175736564000000000000000000000000000000005f82015250565b5f6142b660108361324a565b91506142c182614282565b602082019050919050565b5f6020820190508181035f8301526142e3816142aa565b9050919050565b7f5369676e2069732063757272656e746c79207069636b656420757000000000005f82015250565b5f61431e601b8361324a565b9150614329826142ea565b602082019050919050565b5f6020820190508181035f83015261434b81614312565b9050919050565b5f61435c82613941565b915061436783613941565b92508282039050677fffffffffffffff81137fffffffffffffffffffffffffffffffffffffffffffffffff8000000000000000821217156143ab576143aa61404e565b5b92915050565b5f6143bb82613941565b91507fffffffffffffffffffffffffffffffffffffffffffffffff800000000000000082036143ed576143ec61404e565b5b815f039050919050565b5f614401826132d0565b915061440c836132d0565b925082820261441a816132d0565b915082820484148315176144315761443061404e565b5b5092915050565b7f4e487b71000000000000000000000000000000000000000000000000000000005f52601260045260245ffd5b5f61446f826132d0565b915061447a836132d0565b92508261448a57614489614438565b5b828204905092915050565b5f81519050919050565b5f82825260208201905092915050565b5f6144b982614495565b6144c3818561449f565b93506144d381856020860161325a565b6144dc81613268565b840191505092915050565b5f6080820190506144fa5f830187613469565b6145076020830186613469565b61451460408301856134cf565b818103606083015261452681846144af565b905095945050505050565b5f8151905061453f816131b8565b92915050565b5f6020828403121561455a57614559613185565b5b5f61456784828501614531565b91505092915050565b7f5061757361626c653a206e6f74207061757365640000000000000000000000005f82015250565b5f6145a460148361324a565b91506145af82614570565b602082019050919050565b5f6020820190508181035f8301526145d181614598565b9050919050565b5f6040820190506145eb5f830185613469565b6145f860208301846134cf565b939250505056fea2646970667358221220a6f395a14379eb6de0816b44839dd0636717df09edd478d5c212bfbb2deb893e64736f6c634300081a0033",
			"opcodes": "PUSH1 0x80 PUSH1 0x40 MSTORE PUSH1 0x1 PUSH1 0xB SSTORE PUSH1 0xA PUSH1 0xD SSTORE PUSH1 0xA PUSH1 0xE SSTORE PUSH2 0x2710 PUSH1 0xF SSTORE CALLVALUE DUP1 ISZERO PUSH2 0x24 JUMPI PUSH0 DUP1 REVERT JUMPDEST POP CALLER PUSH1 0x40 MLOAD DUP1 PUSH1 0x40 ADD PUSH1 0x40 MSTORE DUP1 PUSH1 0xE DUP2 MSTORE PUSH1 0x20 ADD PUSH32 0x5369676E732047616D65204E4654000000000000000000000000000000000000 DUP2 MSTORE POP PUSH1 0x40 MLOAD DUP1 PUSH1 0x40 ADD PUSH1 0x40 MSTORE DUP1 PUSH1 0x4 DUP2 MSTORE PUSH1 0x20 ADD PUSH32 0x5349474E00000000000000000000000000000000000000000000000000000000 DUP2 MSTORE POP DUP2 PUSH0 SWAP1 DUP2 PUSH2 0xA0 SWAP2 SWAP1 PUSH2 0x44F JUMP JUMPDEST POP DUP1 PUSH1 0x1 SWAP1 DUP2 PUSH2 0xB0 SWAP2 SWAP1 PUSH2 0x44F JUMP JUMPDEST POP POP POP PUSH0 PUSH20 0xFFFFFFFFFFFFFFFFFFFFFFFFFFFFFFFFFFFFFFFF AND DUP2 PUSH20 0xFFFFFFFFFFFFFFFFFFFFFFFFFFFFFFFFFFFFFFFF AND SUB PUSH2 0x123 JUMPI PUSH0 PUSH1 0x40 MLOAD PUSH32 0x1E4FBDF700000000000000000000000000000000000000000000000000000000 DUP2 MSTORE PUSH1 0x4 ADD PUSH2 0x11A SWAP2 SWAP1 PUSH2 0x55D JUMP JUMPDEST PUSH1 0x40 MLOAD DUP1 SWAP2 SUB SWAP1 REVERT JUMPDEST PUSH2 0x132 DUP2 PUSH2 0x152 PUSH1 0x20 SHL PUSH1 0x20 SHR JUMP JUMPDEST POP PUSH0 PUSH1 0x6 PUSH1 0x14 PUSH2 0x100 EXP DUP2 SLOAD DUP2 PUSH1 0xFF MUL NOT AND SWAP1 DUP4 ISZERO ISZERO MUL OR SWAP1 SSTORE POP PUSH2 0x576 JUMP JUMPDEST PUSH0 PUSH1 0x6 PUSH0 SWAP1 SLOAD SWAP1 PUSH2 0x100 EXP SWAP1 DIV PUSH20 0xFFFFFFFFFFFFFFFFFFFFFFFFFFFFFFFFFFFFFFFF AND SWAP1 POP DUP2 PUSH1 0x6 PUSH0 PUSH2 0x100 EXP DUP2 SLOAD DUP2 PUSH20 0xFFFFFFFFFFFFFFFFFFFFFFFFFFFFFFFFFFFFFFFF MUL NOT AND SWAP1 DUP4 PUSH20 0xFFFFFFFFFFFFFFFFFFFFFFFFFFFFFFFFFFFFFFFF AND MUL OR SWAP1 SSTORE POP DUP2 PUSH20 0xFFFFFFFFFFFFFFFFFFFFFFFFFFFFFFFFFFFFFFFF AND DUP2 PUSH20 0xFFFFFFFFFFFFFFFFFFFFFFFFFFFFFFFFFFFFFFFF AND PUSH32 0x8BE0079C531659141344CD1FD0A4F28419497F9722A3DAAFE3B4186F6B6457E0 PUSH1 0x40 MLOAD PUSH1 0x40 MLOAD DUP1 SWAP2 SUB SWAP1 LOG3 POP POP JUMP JUMPDEST PUSH0 DUP2 MLOAD SWAP1 POP SWAP2 SWAP1 POP JUMP JUMPDEST PUSH32 0x4E487B7100000000000000000000000000000000000000000000000000000000 PUSH0 MSTORE PUSH1 0x41 PUSH1 0x4 MSTORE PUSH1 0x24 PUSH0 REVERT JUMPDEST PUSH32 0x4E487B7100000000000000000000000000000000000000000000000000000000 PUSH0 MSTORE PUSH1 0x22 PUSH1 0x4 MSTORE PUSH1 0x24 PUSH0 REVERT JUMPDEST PUSH0 PUSH1 0x2 DUP3 DIV SWAP1 POP PUSH1 0x1 DUP3 AND DUP1 PUSH2 0x290 JUMPI PUSH1 0x7F DUP3 AND SWAP2 POP JUMPDEST PUSH1 0x20 DUP3 LT DUP2 SUB PUSH2 0x2A3 JUMPI PUSH2 0x2A2 PUSH2 0x24C JUMP JUMPDEST JUMPDEST POP SWAP2 SWAP1 POP JUMP JUMPDEST PUSH0 DUP2 SWAP1 POP DUP2 PUSH0 MSTORE PUSH1 0x20 PUSH0 KECCAK256 SWAP1 POP SWAP2 SWAP1 POP JUMP JUMPDEST PUSH0 PUSH1 0x20 PUSH1 0x1F DUP4 ADD DIV SWAP1 POP SWAP2 SWAP1 POP JUMP JUMPDEST PUSH0 DUP3 DUP3 SHL SWAP1 POP SWAP3 SWAP2 POP POP JUMP JUMPDEST PUSH0 PUSH1 0x8 DUP4 MUL PUSH2 0x305 PUSH32 0xFFFFFFFFFFFFFFFFFFFFFFFFFFFFFFFFFFFFFFFFFFFFFFFFFFFFFFFFFFFFFFFF DUP3 PUSH2 0x2CA JUMP JUMPDEST PUSH2 0x30F DUP7 DUP4 PUSH2 0x2CA JUMP JUMPDEST SWAP6 POP DUP1 NOT DUP5 AND SWAP4 POP DUP1 DUP7 AND DUP5 OR SWAP3 POP POP POP SWAP4 SWAP3 POP POP POP JUMP JUMPDEST PUSH0 DUP2 SWAP1 POP SWAP2 SWAP1 POP JUMP JUMPDEST PUSH0 DUP2 SWAP1 POP SWAP2 SWAP1 POP JUMP JUMPDEST PUSH0 PUSH2 0x353 PUSH2 0x34E PUSH2 0x349 DUP5 PUSH2 0x327 JUMP JUMPDEST PUSH2 0x330 JUMP JUMPDEST PUSH2 0x327 JUMP JUMPDEST SWAP1 POP SWAP2 SWAP1 POP JUMP JUMPDEST PUSH0 DUP2 SWAP1 POP SWAP2 SWAP1 POP JUMP JUMPDEST PUSH2 0x36C DUP4 PUSH2 0x339 JUMP JUMPDEST PUSH2 0x380 PUSH2 0x378 DUP3 PUSH2 0x35A JUMP JUMPDEST DUP5 DUP5 SLOAD PUSH2 0x2D6 JUMP JUMPDEST DUP3 SSTORE POP POP POP POP JUMP JUMPDEST PUSH0 SWAP1 JUMP JUMPDEST PUSH2 0x394 PUSH2 0x388 JUMP JUMPDEST PUSH2 0x39F DUP2 DUP5 DUP5 PUSH2 0x363 JUMP JUMPDEST POP POP POP JUMP JUMPDEST JUMPDEST DUP2 DUP2 LT ISZERO PUSH2 0x3C2 JUMPI PUSH2 0x3B7 PUSH0 DUP3 PUSH2 0x38C JUMP JUMPDEST PUSH1 0x1 DUP2 ADD SWAP1 POP PUSH2 0x3A5 JUMP JUMPDEST POP POP JUMP JUMPDEST PUSH1 0x1F DUP3 GT ISZERO PUSH2 0x407 JUMPI PUSH2 0x3D8 DUP2 PUSH2 0x2A9 JUMP JUMPDEST PUSH2 0x3E1 DUP5 PUSH2 0x2BB JUMP JUMPDEST DUP2 ADD PUSH1 0x20 DUP6 LT ISZERO PUSH2 0x3F0 JUMPI DUP2 SWAP1 POP JUMPDEST PUSH2 0x404 PUSH2 0x3FC DUP6 PUSH2 0x2BB JUMP JUMPDEST DUP4 ADD DUP3 PUSH2 0x3A4 JUMP JUMPDEST POP POP JUMPDEST POP POP POP JUMP JUMPDEST PUSH0 DUP3 DUP3 SHR SWAP1 POP SWAP3 SWAP2 POP POP JUMP JUMPDEST PUSH0 PUSH2 0x427 PUSH0 NOT DUP5 PUSH1 0x8 MUL PUSH2 0x40C JUMP JUMPDEST NOT DUP1 DUP4 AND SWAP2 POP POP SWAP3 SWAP2 POP POP JUMP JUMPDEST PUSH0 PUSH2 0x43F DUP4 DUP4 PUSH2 0x418 JUMP JUMPDEST SWAP2 POP DUP3 PUSH1 0x2 MUL DUP3 OR SWAP1 POP SWAP3 SWAP2 POP POP JUMP JUMPDEST PUSH2 0x458 DUP3 PUSH2 0x215 JUMP JUMPDEST PUSH8 0xFFFFFFFFFFFFFFFF DUP2 GT ISZERO PUSH2 0x471 JUMPI PUSH2 0x470 PUSH2 0x21F JUMP JUMPDEST JUMPDEST PUSH2 0x47B DUP3 SLOAD PUSH2 0x279 JUMP JUMPDEST PUSH2 0x486 DUP3 DUP3 DUP6 PUSH2 0x3C6 JUMP JUMPDEST PUSH0 PUSH1 0x20 SWAP1 POP PUSH1 0x1F DUP4 GT PUSH1 0x1 DUP2 EQ PUSH2 0x4B7 JUMPI PUSH0 DUP5 ISZERO PUSH2 0x4A5 JUMPI DUP3 DUP8 ADD MLOAD SWAP1 POP JUMPDEST PUSH2 0x4AF DUP6 DUP3 PUSH2 0x434 JUMP JUMPDEST DUP7 SSTORE POP PUSH2 0x516 JUMP JUMPDEST PUSH1 0x1F NOT DUP5 AND PUSH2 0x4C5 DUP7 PUSH2 0x2A9 JUMP JUMPDEST PUSH0 JUMPDEST DUP3 DUP2 LT ISZERO PUSH2 0x4EC JUMPI DUP5 DUP10 ADD MLOAD DUP3 SSTORE PUSH1 0x1 DUP3 ADD SWAP2 POP PUSH1 0x20 DUP6 ADD SWAP5 POP PUSH1 0x20 DUP2 ADD SWAP1 POP PUSH2 0x4C7 JUMP JUMPDEST DUP7 DUP4 LT ISZERO PUSH2 0x509 JUMPI DUP5 DUP10 ADD MLOAD PUSH2 0x505 PUSH1 0x1F DUP10 AND DUP3 PUSH2 0x418 JUMP JUMPDEST DUP4 SSTORE POP JUMPDEST PUSH1 0x1 PUSH1 0x2 DUP9 MUL ADD DUP9 SSTORE POP POP POP JUMPDEST POP POP POP POP POP POP JUMP JUMPDEST PUSH0 PUSH20 0xFFFFFFFFFFFFFFFFFFFFFFFFFFFFFFFFFFFFFFFF DUP3 AND SWAP1 POP SWAP2 SWAP1 POP JUMP JUMPDEST PUSH0 PUSH2 0x547 DUP3 PUSH2 0x51E JUMP JUMPDEST SWAP1 POP SWAP2 SWAP1 POP JUMP JUMPDEST PUSH2 0x557 DUP2 PUSH2 0x53D JUMP JUMPDEST DUP3 MSTORE POP POP JUMP JUMPDEST PUSH0 PUSH1 0x20 DUP3 ADD SWAP1 POP PUSH2 0x570 PUSH0 DUP4 ADD DUP5 PUSH2 0x54E JUMP JUMPDEST SWAP3 SWAP2 POP POP JUMP JUMPDEST PUSH2 0x4635 DUP1 PUSH2 0x583 PUSH0 CODECOPY PUSH0 RETURN INVALID PUSH1 0x80 PUSH1 0x40 MSTORE CALLVALUE DUP1 ISZERO PUSH2 0xF JUMPI PUSH0 DUP1 REVERT JUMPDEST POP PUSH1 0x4 CALLDATASIZE LT PUSH2 0x230 JUMPI PUSH0 CALLDATALOAD PUSH1 0xE0 SHR DUP1 PUSH4 0x780F14F8 GT PUSH2 0x12E JUMPI DUP1 PUSH4 0xA22CB465 GT PUSH2 0xB6 JUMPI DUP1 PUSH4 0xC87B56DD GT PUSH2 0x7A JUMPI DUP1 PUSH4 0xC87B56DD EQ PUSH2 0x63C JUMPI DUP1 PUSH4 0xCB75B997 EQ PUSH2 0x66C JUMPI DUP1 PUSH4 0xD1768B13 EQ PUSH2 0x6A4 JUMPI DUP1 PUSH4 0xE985E9C5 EQ PUSH2 0x6C0 JUMPI DUP1 PUSH4 0xF2FDE38B EQ PUSH2 0x6F0 JUMPI PUSH2 0x230 JUMP JUMPDEST DUP1 PUSH4 0xA22CB465 EQ PUSH2 0x5AC JUMPI DUP1 PUSH4 0xACC1C1A0 EQ PUSH2 0x5C8 JUMPI DUP1 PUSH4 0xB88BA0FD EQ PUSH2 0x5E4 JUMPI DUP1 PUSH4 0xB88D4FDE EQ PUSH2 0x602 JUMPI DUP1 PUSH4 0xC159C454 EQ PUSH2 0x61E JUMPI PUSH2 0x230 JUMP JUMPDEST DUP1 PUSH4 0x8535AB52 GT PUSH2 0xFD JUMPI DUP1 PUSH4 0x8535AB52 EQ PUSH2 0x4F4 JUMPI DUP1 PUSH4 0x8CA138A0 EQ PUSH2 0x524 JUMPI DUP1 PUSH4 0x8DA5CB5B EQ PUSH2 0x554 JUMPI DUP1 PUSH4 0x95D89B41 EQ PUSH2 0x572 JUMPI DUP1 PUSH4 0x9FF42522 EQ PUSH2 0x590 JUMPI PUSH2 0x230 JUMP JUMPDEST DUP1 PUSH4 0x780F14F8 EQ PUSH2 0x492 JUMPI DUP1 PUSH4 0x835BBBB2 EQ PUSH2 0x4B0 JUMPI DUP1 PUSH4 0x83C30FAA EQ PUSH2 0x4CE JUMPI DUP1 PUSH4 0x8456CB59 EQ PUSH2 0x4EA JUMPI PUSH2 0x230 JUMP JUMPDEST DUP1 PUSH4 0x3F4BA83A GT PUSH2 0x1BC JUMPI DUP1 PUSH4 0x5F87A13F GT PUSH2 0x180 JUMPI DUP1 PUSH4 0x5F87A13F EQ PUSH2 0x3EE JUMPI DUP1 PUSH4 0x6352211E EQ PUSH2 0x40A JUMPI DUP1 PUSH4 0x706D4283 EQ PUSH2 0x43A JUMPI DUP1 PUSH4 0x70A08231 EQ PUSH2 0x458 JUMPI DUP1 PUSH4 0x715018A6 EQ PUSH2 0x488 JUMPI PUSH2 0x230 JUMP JUMPDEST DUP1 PUSH4 0x3F4BA83A EQ PUSH2 0x35C JUMPI DUP1 PUSH4 0x42842E0E EQ PUSH2 0x366 JUMPI DUP1 PUSH4 0x458DE778 EQ PUSH2 0x382 JUMPI DUP1 PUSH4 0x526B444E EQ PUSH2 0x3A0 JUMPI DUP1 PUSH4 0x5C975ABB EQ PUSH2 0x3D0 JUMPI PUSH2 0x230 JUMP JUMPDEST DUP1 PUSH4 0x95EA7B3 GT PUSH2 0x203 JUMPI DUP1 PUSH4 0x95EA7B3 EQ PUSH2 0x2CE JUMPI DUP1 PUSH4 0xD64C089 EQ PUSH2 0x2EA JUMPI DUP1 PUSH4 0x20FE5A10 EQ PUSH2 0x308 JUMPI DUP1 PUSH4 0x21DD4D27 EQ PUSH2 0x324 JUMPI DUP1 PUSH4 0x23B872DD EQ PUSH2 0x340 JUMPI PUSH2 0x230 JUMP JUMPDEST DUP1 PUSH4 0x1FFC9A7 EQ PUSH2 0x234 JUMPI DUP1 PUSH4 0x6FDDE03 EQ PUSH2 0x264 JUMPI DUP1 PUSH4 0x80807BE EQ PUSH2 0x282 JUMPI DUP1 PUSH4 0x81812FC EQ PUSH2 0x29E JUMPI JUMPDEST PUSH0 DUP1 REVERT JUMPDEST PUSH2 0x24E PUSH1 0x4 DUP1 CALLDATASIZE SUB DUP2 ADD SWAP1 PUSH2 0x249 SWAP2 SWAP1 PUSH2 0x31E2 JUMP JUMPDEST PUSH2 0x70C JUMP JUMPDEST PUSH1 0x40 MLOAD PUSH2 0x25B SWAP2 SWAP1 PUSH2 0x3227 JUMP JUMPDEST PUSH1 0x40 MLOAD DUP1 SWAP2 SUB SWAP1 RETURN JUMPDEST PUSH2 0x26C PUSH2 0x7ED JUMP JUMPDEST PUSH1 0x40 MLOAD PUSH2 0x279 SWAP2 SWAP1 PUSH2 0x32B0 JUMP JUMPDEST PUSH1 0x40 MLOAD DUP1 SWAP2 SUB SWAP1 RETURN JUMPDEST PUSH2 0x29C PUSH1 0x4 DUP1 CALLDATASIZE SUB DUP2 ADD SWAP1 PUSH2 0x297 SWAP2 SWAP1 PUSH2 0x33B2 JUMP JUMPDEST PUSH2 0x87C JUMP JUMPDEST STOP JUMPDEST PUSH2 0x2B8 PUSH1 0x4 DUP1 CALLDATASIZE SUB DUP2 ADD SWAP1 PUSH2 0x2B3 SWAP2 SWAP1 PUSH2 0x343E JUMP JUMPDEST PUSH2 0x8B7 JUMP JUMPDEST PUSH1 0x40 MLOAD PUSH2 0x2C5 SWAP2 SWAP1 PUSH2 0x3478 JUMP JUMPDEST PUSH1 0x40 MLOAD DUP1 SWAP2 SUB SWAP1 RETURN JUMPDEST PUSH2 0x2E8 PUSH1 0x4 DUP1 CALLDATASIZE SUB DUP2 ADD SWAP1 PUSH2 0x2E3 SWAP2 SWAP1 PUSH2 0x3491 JUMP JUMPDEST PUSH2 0x8D2 JUMP JUMPDEST STOP JUMPDEST PUSH2 0x2F2 PUSH2 0x90D JUMP JUMPDEST PUSH1 0x40 MLOAD PUSH2 0x2FF SWAP2 SWAP1 PUSH2 0x34DE JUMP JUMPDEST PUSH1 0x40 MLOAD DUP1 SWAP2 SUB SWAP1 RETURN JUMPDEST PUSH2 0x322 PUSH1 0x4 DUP1 CALLDATASIZE SUB DUP2 ADD SWAP1 PUSH2 0x31D SWAP2 SWAP1 PUSH2 0x34F7 JUMP JUMPDEST PUSH2 0x913 JUMP JUMPDEST STOP JUMPDEST PUSH2 0x33E PUSH1 0x4 DUP1 CALLDATASIZE SUB DUP2 ADD SWAP1 PUSH2 0x339 SWAP2 SWAP1 PUSH2 0x3547 JUMP JUMPDEST PUSH2 0x9BD JUMP JUMPDEST STOP JUMPDEST PUSH2 0x35A PUSH1 0x4 DUP1 CALLDATASIZE SUB DUP2 ADD SWAP1 PUSH2 0x355 SWAP2 SWAP1 PUSH2 0x3585 JUMP JUMPDEST PUSH2 0xB88 JUMP JUMPDEST STOP JUMPDEST PUSH2 0x364 PUSH2 0xC87 JUMP JUMPDEST STOP JUMPDEST PUSH2 0x380 PUSH1 0x4 DUP1 CALLDATASIZE SUB DUP2 ADD SWAP1 PUSH2 0x37B SWAP2 SWAP1 PUSH2 0x3585 JUMP JUMPDEST PUSH2 0xC99 JUMP JUMPDEST STOP JUMPDEST PUSH2 0x38A PUSH2 0xCB8 JUMP JUMPDEST PUSH1 0x40 MLOAD PUSH2 0x397 SWAP2 SWAP1 PUSH2 0x3630 JUMP JUMPDEST PUSH1 0x40 MLOAD DUP1 SWAP2 SUB SWAP1 RETURN JUMPDEST PUSH2 0x3BA PUSH1 0x4 DUP1 CALLDATASIZE SUB DUP2 ADD SWAP1 PUSH2 0x3B5 SWAP2 SWAP1 PUSH2 0x3649 JUMP JUMPDEST PUSH2 0xCDD JUMP JUMPDEST PUSH1 0x40 MLOAD PUSH2 0x3C7 SWAP2 SWAP1 PUSH2 0x34DE JUMP JUMPDEST PUSH1 0x40 MLOAD DUP1 SWAP2 SUB SWAP1 RETURN JUMPDEST PUSH2 0x3D8 PUSH2 0xF2E JUMP JUMPDEST PUSH1 0x40 MLOAD PUSH2 0x3E5 SWAP2 SWAP1 PUSH2 0x3227 JUMP JUMPDEST PUSH1 0x40 MLOAD DUP1 SWAP2 SUB SWAP1 RETURN JUMPDEST PUSH2 0x408 PUSH1 0x4 DUP1 CALLDATASIZE SUB DUP2 ADD SWAP1 PUSH2 0x403 SWAP2 SWAP1 PUSH2 0x3674 JUMP JUMPDEST PUSH2 0xF44 JUMP JUMPDEST STOP JUMPDEST PUSH2 0x424 PUSH1 0x4 DUP1 CALLDATASIZE SUB DUP2 ADD SWAP1 PUSH2 0x41F SWAP2 SWAP1 PUSH2 0x343E JUMP JUMPDEST PUSH2 0x147F JUMP JUMPDEST PUSH1 0x40 MLOAD PUSH2 0x431 SWAP2 SWAP1 PUSH2 0x3478 JUMP JUMPDEST PUSH1 0x40 MLOAD DUP1 SWAP2 SUB SWAP1 RETURN JUMPDEST PUSH2 0x442 PUSH2 0x1490 JUMP JUMPDEST PUSH1 0x40 MLOAD PUSH2 0x44F SWAP2 SWAP1 PUSH2 0x34DE JUMP JUMPDEST PUSH1 0x40 MLOAD DUP1 SWAP2 SUB SWAP1 RETURN JUMPDEST PUSH2 0x472 PUSH1 0x4 DUP1 CALLDATASIZE SUB DUP2 ADD SWAP1 PUSH2 0x46D SWAP2 SWAP1 PUSH2 0x36C4 JUMP JUMPDEST PUSH2 0x1496 JUMP JUMPDEST PUSH1 0x40 MLOAD PUSH2 0x47F SWAP2 SWAP1 PUSH2 0x34DE JUMP JUMPDEST PUSH1 0x40 MLOAD DUP1 SWAP2 SUB SWAP1 RETURN JUMPDEST PUSH2 0x490 PUSH2 0x154C JUMP JUMPDEST STOP JUMPDEST PUSH2 0x49A PUSH2 0x155F JUMP JUMPDEST PUSH1 0x40 MLOAD PUSH2 0x4A7 SWAP2 SWAP1 PUSH2 0x34DE JUMP JUMPDEST PUSH1 0x40 MLOAD DUP1 SWAP2 SUB SWAP1 RETURN JUMPDEST PUSH2 0x4B8 PUSH2 0x1565 JUMP JUMPDEST PUSH1 0x40 MLOAD PUSH2 0x4C5 SWAP2 SWAP1 PUSH2 0x34DE JUMP JUMPDEST PUSH1 0x40 MLOAD DUP1 SWAP2 SUB SWAP1 RETURN JUMPDEST PUSH2 0x4E8 PUSH1 0x4 DUP1 CALLDATASIZE SUB DUP2 ADD SWAP1 PUSH2 0x4E3 SWAP2 SWAP1 PUSH2 0x36C4 JUMP JUMPDEST PUSH2 0x156A JUMP JUMPDEST STOP JUMPDEST PUSH2 0x4F2 PUSH2 0x15B5 JUMP JUMPDEST STOP JUMPDEST PUSH2 0x50E PUSH1 0x4 DUP1 CALLDATASIZE SUB DUP2 ADD SWAP1 PUSH2 0x509 SWAP2 SWAP1 PUSH2 0x36C4 JUMP JUMPDEST PUSH2 0x15C7 JUMP JUMPDEST PUSH1 0x40 MLOAD PUSH2 0x51B SWAP2 SWAP1 PUSH2 0x34DE JUMP JUMPDEST PUSH1 0x40 MLOAD DUP1 SWAP2 SUB SWAP1 RETURN JUMPDEST PUSH2 0x53E PUSH1 0x4 DUP1 CALLDATASIZE SUB DUP2 ADD SWAP1 PUSH2 0x539 SWAP2 SWAP1 PUSH2 0x343E JUMP JUMPDEST PUSH2 0x15DC JUMP JUMPDEST PUSH1 0x40 MLOAD PUSH2 0x54B SWAP2 SWAP1 PUSH2 0x3478 JUMP JUMPDEST PUSH1 0x40 MLOAD DUP1 SWAP2 SUB SWAP1 RETURN JUMPDEST PUSH2 0x55C PUSH2 0x160C JUMP JUMPDEST PUSH1 0x40 MLOAD PUSH2 0x569 SWAP2 SWAP1 PUSH2 0x3478 JUMP JUMPDEST PUSH1 0x40 MLOAD DUP1 SWAP2 SUB SWAP1 RETURN JUMPDEST PUSH2 0x57A PUSH2 0x1634 JUMP JUMPDEST PUSH1 0x40 MLOAD PUSH2 0x587 SWAP2 SWAP1 PUSH2 0x32B0 JUMP JUMPDEST PUSH1 0x40 MLOAD DUP1 SWAP2 SUB SWAP1 RETURN JUMPDEST PUSH2 0x5AA PUSH1 0x4 DUP1 CALLDATASIZE SUB DUP2 ADD SWAP1 PUSH2 0x5A5 SWAP2 SWAP1 PUSH2 0x36EF JUMP JUMPDEST PUSH2 0x16C4 JUMP JUMPDEST STOP JUMPDEST PUSH2 0x5C6 PUSH1 0x4 DUP1 CALLDATASIZE SUB DUP2 ADD SWAP1 PUSH2 0x5C1 SWAP2 SWAP1 PUSH2 0x3757 JUMP JUMPDEST PUSH2 0x17A6 JUMP JUMPDEST STOP JUMPDEST PUSH2 0x5E2 PUSH1 0x4 DUP1 CALLDATASIZE SUB DUP2 ADD SWAP1 PUSH2 0x5DD SWAP2 SWAP1 PUSH2 0x3547 JUMP JUMPDEST PUSH2 0x17E1 JUMP JUMPDEST STOP JUMPDEST PUSH2 0x5EC PUSH2 0x1B2B JUMP JUMPDEST PUSH1 0x40 MLOAD PUSH2 0x5F9 SWAP2 SWAP1 PUSH2 0x34DE JUMP JUMPDEST PUSH1 0x40 MLOAD DUP1 SWAP2 SUB SWAP1 RETURN JUMPDEST PUSH2 0x61C PUSH1 0x4 DUP1 CALLDATASIZE SUB DUP2 ADD SWAP1 PUSH2 0x617 SWAP2 SWAP1 PUSH2 0x38C1 JUMP JUMPDEST PUSH2 0x1B31 JUMP JUMPDEST STOP JUMPDEST PUSH2 0x626 PUSH2 0x1B56 JUMP JUMPDEST PUSH1 0x40 MLOAD PUSH2 0x633 SWAP2 SWAP1 PUSH2 0x34DE JUMP JUMPDEST PUSH1 0x40 MLOAD DUP1 SWAP2 SUB SWAP1 RETURN JUMPDEST PUSH2 0x656 PUSH1 0x4 DUP1 CALLDATASIZE SUB DUP2 ADD SWAP1 PUSH2 0x651 SWAP2 SWAP1 PUSH2 0x343E JUMP JUMPDEST PUSH2 0x1B5B JUMP JUMPDEST PUSH1 0x40 MLOAD PUSH2 0x663 SWAP2 SWAP1 PUSH2 0x32B0 JUMP JUMPDEST PUSH1 0x40 MLOAD DUP1 SWAP2 SUB SWAP1 RETURN JUMPDEST PUSH2 0x686 PUSH1 0x4 DUP1 CALLDATASIZE SUB DUP2 ADD SWAP1 PUSH2 0x681 SWAP2 SWAP1 PUSH2 0x343E JUMP JUMPDEST PUSH2 0x1BC1 JUMP JUMPDEST PUSH1 0x40 MLOAD PUSH2 0x69B SWAP10 SWAP9 SWAP8 SWAP7 SWAP6 SWAP5 SWAP4 SWAP3 SWAP2 SWAP1 PUSH2 0x39CD JUMP JUMPDEST PUSH1 0x40 MLOAD DUP1 SWAP2 SUB SWAP1 RETURN JUMPDEST PUSH2 0x6BE PUSH1 0x4 DUP1 CALLDATASIZE SUB DUP2 ADD SWAP1 PUSH2 0x6B9 SWAP2 SWAP1 PUSH2 0x343E JUMP JUMPDEST PUSH2 0x1D1B JUMP JUMPDEST STOP JUMPDEST PUSH2 0x6DA PUSH1 0x4 DUP1 CALLDATASIZE SUB DUP2 ADD SWAP1 PUSH2 0x6D5 SWAP2 SWAP1 PUSH2 0x3A5C JUMP JUMPDEST PUSH2 0x1D64 JUMP JUMPDEST PUSH1 0x40 MLOAD PUSH2 0x6E7 SWAP2 SWAP1 PUSH2 0x3227 JUMP JUMPDEST PUSH1 0x40 MLOAD DUP1 SWAP2 SUB SWAP1 RETURN JUMPDEST PUSH2 0x70A PUSH1 0x4 DUP1 CALLDATASIZE SUB DUP2 ADD SWAP1 PUSH2 0x705 SWAP2 SWAP1 PUSH2 0x36C4 JUMP JUMPDEST PUSH2 0x1DF2 JUMP JUMPDEST STOP JUMPDEST PUSH0 PUSH32 0x80AC58CD00000000000000000000000000000000000000000000000000000000 PUSH28 0xFFFFFFFFFFFFFFFFFFFFFFFFFFFFFFFFFFFFFFFFFFFFFFFFFFFFFFFF NOT AND DUP3 PUSH28 0xFFFFFFFFFFFFFFFFFFFFFFFFFFFFFFFFFFFFFFFFFFFFFFFFFFFFFFFF NOT AND EQ DUP1 PUSH2 0x7D6 JUMPI POP PUSH32 0x5B5E139F00000000000000000000000000000000000000000000000000000000 PUSH28 0xFFFFFFFFFFFFFFFFFFFFFFFFFFFFFFFFFFFFFFFFFFFFFFFFFFFFFFFF NOT AND DUP3 PUSH28 0xFFFFFFFFFFFFFFFFFFFFFFFFFFFFFFFFFFFFFFFFFFFFFFFFFFFFFFFF NOT AND EQ JUMPDEST DUP1 PUSH2 0x7E6 JUMPI POP PUSH2 0x7E5 DUP3 PUSH2 0x1E76 JUMP JUMPDEST JUMPDEST SWAP1 POP SWAP2 SWAP1 POP JUMP JUMPDEST PUSH1 0x60 PUSH0 DUP1 SLOAD PUSH2 0x7FB SWAP1 PUSH2 0x3AC7 JUMP JUMPDEST DUP1 PUSH1 0x1F ADD PUSH1 0x20 DUP1 SWAP2 DIV MUL PUSH1 0x20 ADD PUSH1 0x40 MLOAD SWAP1 DUP2 ADD PUSH1 0x40 MSTORE DUP1 SWAP3 SWAP2 SWAP1 DUP2 DUP2 MSTORE PUSH1 0x20 ADD DUP3 DUP1 SLOAD PUSH2 0x827 SWAP1 PUSH2 0x3AC7 JUMP JUMPDEST DUP1 ISZERO PUSH2 0x872 JUMPI DUP1 PUSH1 0x1F LT PUSH2 0x849 JUMPI PUSH2 0x100 DUP1 DUP4 SLOAD DIV MUL DUP4 MSTORE SWAP2 PUSH1 0x20 ADD SWAP2 PUSH2 0x872 JUMP JUMPDEST DUP3 ADD SWAP2 SWAP1 PUSH0 MSTORE PUSH1 0x20 PUSH0 KECCAK256 SWAP1 JUMPDEST DUP2 SLOAD DUP2 MSTORE SWAP1 PUSH1 0x1 ADD SWAP1 PUSH1 0x20 ADD DUP1 DUP4 GT PUSH2 0x855 JUMPI DUP3 SWAP1 SUB PUSH1 0x1F AND DUP3 ADD SWAP2 JUMPDEST POP POP POP POP POP SWAP1 POP SWAP1 JUMP JUMPDEST PUSH1 0x40 MLOAD PUSH32 0x8C379A000000000000000000000000000000000000000000000000000000000 DUP2 MSTORE PUSH1 0x4 ADD PUSH2 0x8AE SWAP1 PUSH2 0x3B41 JUMP JUMPDEST PUSH1 0x40 MLOAD DUP1 SWAP2 SUB SWAP1 REVERT JUMPDEST PUSH0 PUSH2 0x8C1 DUP3 PUSH2 0x1EDF JUMP JUMPDEST POP PUSH2 0x8CB DUP3 PUSH2 0x1F65 JUMP JUMPDEST SWAP1 POP SWAP2 SWAP1 POP JUMP JUMPDEST PUSH1 0x40 MLOAD PUSH32 0x8C379A000000000000000000000000000000000000000000000000000000000 DUP2 MSTORE PUSH1 0x4 ADD PUSH2 0x904 SWAP1 PUSH2 0x3BCF JUMP JUMPDEST PUSH1 0x40 MLOAD DUP1 SWAP2 SUB SWAP1 REVERT JUMPDEST PUSH1 0xE SLOAD DUP2 JUMP JUMPDEST PUSH2 0x91B PUSH2 0x1F9E JUMP JUMPDEST PUSH0 DUP3 GT DUP1 ISZERO PUSH2 0x929 JUMPI POP PUSH0 DUP2 GT JUMPDEST PUSH2 0x968 JUMPI PUSH1 0x40 MLOAD PUSH32 0x8C379A000000000000000000000000000000000000000000000000000000000 DUP2 MSTORE PUSH1 0x4 ADD PUSH2 0x95F SWAP1 PUSH2 0x3C37 JUMP JUMPDEST PUSH1 0x40 MLOAD DUP1 SWAP2 SUB SWAP1 REVERT JUMPDEST DUP3 PUSH1 0xD DUP2 SWAP1 SSTORE POP DUP2 PUSH1 0xE DUP2 SWAP1 SSTORE POP DUP1 PUSH1 0xF DUP2 SWAP1 SSTORE POP PUSH32 0xD8967EA7C9DCA5BA59868B7DDE8AA63E5138A60C8D9EAB8A302E616F5CF4B5EA DUP4 DUP4 DUP4 PUSH1 0x40 MLOAD PUSH2 0x9B0 SWAP4 SWAP3 SWAP2 SWAP1 PUSH2 0x3C55 JUMP JUMPDEST PUSH1 0x40 MLOAD DUP1 SWAP2 SUB SWAP1 LOG1 POP POP POP JUMP JUMPDEST PUSH2 0x9C5 PUSH2 0x2025 JUMP JUMPDEST PUSH0 PUSH1 0x8 PUSH0 DUP5 DUP2 MSTORE PUSH1 0x20 ADD SWAP1 DUP2 MSTORE PUSH1 0x20 ADD PUSH0 KECCAK256 SWAP1 POP PUSH0 PUSH20 0xFFFFFFFFFFFFFFFFFFFFFFFFFFFFFFFFFFFFFFFF AND DUP2 PUSH1 0x5 ADD PUSH0 SWAP1 SLOAD SWAP1 PUSH2 0x100 EXP SWAP1 DIV PUSH20 0xFFFFFFFFFFFFFFFFFFFFFFFFFFFFFFFFFFFFFFFF AND PUSH20 0xFFFFFFFFFFFFFFFFFFFFFFFFFFFFFFFFFFFFFFFF AND SUB PUSH2 0xA61 JUMPI PUSH1 0x40 MLOAD PUSH32 0x4D28580700000000000000000000000000000000000000000000000000000000 DUP2 MSTORE PUSH1 0x4 ADD PUSH1 0x40 MLOAD DUP1 SWAP2 SUB SWAP1 REVERT JUMPDEST CALLER PUSH20 0xFFFFFFFFFFFFFFFFFFFFFFFFFFFFFFFFFFFFFFFF AND DUP2 PUSH1 0x5 ADD PUSH0 SWAP1 SLOAD SWAP1 PUSH2 0x100 EXP SWAP1 DIV PUSH20 0xFFFFFFFFFFFFFFFFFFFFFFFFFFFFFFFFFFFFFFFF AND PUSH20 0xFFFFFFFFFFFFFFFFFFFFFFFFFFFFFFFFFFFFFFFF AND EQ PUSH2 0xAE9 JUMPI PUSH1 0x40 MLOAD PUSH32 0x5EA428D200000000000000000000000000000000000000000000000000000000 DUP2 MSTORE PUSH1 0x4 ADD PUSH1 0x40 MLOAD DUP1 SWAP2 SUB SWAP1 REVERT JUMPDEST PUSH2 0xB02 DUP3 DUP1 CALLDATASIZE SUB DUP2 ADD SWAP1 PUSH2 0xAFD SWAP2 SWAP1 PUSH2 0x3D43 JUMP JUMPDEST PUSH2 0x206F JUMP JUMPDEST PUSH2 0xB38 JUMPI PUSH1 0x40 MLOAD PUSH32 0xF80F144500000000000000000000000000000000000000000000000000000000 DUP2 MSTORE PUSH1 0x4 ADD PUSH1 0x40 MLOAD DUP1 SWAP2 SUB SWAP1 REVERT JUMPDEST DUP2 DUP2 PUSH0 ADD DUP2 DUP2 PUSH2 0xB48 SWAP2 SWAP1 PUSH2 0x3F6E JUMP JUMPDEST SWAP1 POP POP DUP3 PUSH32 0x5E3C2DC59961AFD7162B57DB3494A2C4FD3AA84094847A768067AD2FC16416C0 DUP4 PUSH1 0x40 MLOAD PUSH2 0xB7B SWAP2 SWAP1 PUSH2 0x4000 JUMP JUMPDEST PUSH1 0x40 MLOAD DUP1 SWAP2 SUB SWAP1 LOG2 POP POP POP JUMP JUMPDEST PUSH0 PUSH20 0xFFFFFFFFFFFFFFFFFFFFFFFFFFFFFFFFFFFFFFFF AND DUP3 PUSH20 0xFFFFFFFFFFFFFFFFFFFFFFFFFFFFFFFFFFFFFFFF AND SUB PUSH2 0xBF8 JUMPI PUSH0 PUSH1 0x40 MLOAD PUSH32 0x64A0AE9200000000000000000000000000000000000000000000000000000000 DUP2 MSTORE PUSH1 0x4 ADD PUSH2 0xBEF SWAP2 SWAP1 PUSH2 0x3478 JUMP JUMPDEST PUSH1 0x40 MLOAD DUP1 SWAP2 SUB SWAP1 REVERT JUMPDEST PUSH0 PUSH2 0xC0B DUP4 DUP4 PUSH2 0xC06 PUSH2 0x2118 JUMP JUMPDEST PUSH2 0x211F JUMP JUMPDEST SWAP1 POP DUP4 PUSH20 0xFFFFFFFFFFFFFFFFFFFFFFFFFFFFFFFFFFFFFFFF AND DUP2 PUSH20 0xFFFFFFFFFFFFFFFFFFFFFFFFFFFFFFFFFFFFFFFF AND EQ PUSH2 0xC81 JUMPI DUP4 DUP3 DUP3 PUSH1 0x40 MLOAD PUSH32 0x64283D7B00000000000000000000000000000000000000000000000000000000 DUP2 MSTORE PUSH1 0x4 ADD PUSH2 0xC78 SWAP4 SWAP3 SWAP2 SWAP1 PUSH2 0x4019 JUMP JUMPDEST PUSH1 0x40 MLOAD DUP1 SWAP2 SUB SWAP1 REVERT JUMPDEST POP POP POP POP JUMP JUMPDEST PUSH2 0xC8F PUSH2 0x1F9E JUMP JUMPDEST PUSH2 0xC97 PUSH2 0x219E JUMP JUMPDEST JUMP JUMPDEST PUSH2 0xCB3 DUP4 DUP4 DUP4 PUSH1 0x40 MLOAD DUP1 PUSH1 0x20 ADD PUSH1 0x40 MSTORE DUP1 PUSH0 DUP2 MSTORE POP PUSH2 0x1B31 JUMP JUMPDEST POP POP POP JUMP JUMPDEST PUSH1 0xC PUSH0 SWAP1 SLOAD SWAP1 PUSH2 0x100 EXP SWAP1 DIV PUSH20 0xFFFFFFFFFFFFFFFFFFFFFFFFFFFFFFFFFFFFFFFF AND DUP2 JUMP JUMPDEST PUSH0 PUSH2 0xCE6 PUSH2 0x2025 JUMP JUMPDEST PUSH1 0x1 PUSH1 0x9 PUSH0 CALLER PUSH20 0xFFFFFFFFFFFFFFFFFFFFFFFFFFFFFFFFFFFFFFFF AND PUSH20 0xFFFFFFFFFFFFFFFFFFFFFFFFFFFFFFFFFFFFFFFF AND DUP2 MSTORE PUSH1 0x20 ADD SWAP1 DUP2 MSTORE PUSH1 0x20 ADD PUSH0 KECCAK256 SLOAD LT PUSH2 0xD5D JUMPI PUSH1 0x40 MLOAD PUSH32 0x5E1C472800000000000000000000000000000000000000000000000000000000 DUP2 MSTORE PUSH1 0x4 ADD PUSH1 0x40 MLOAD DUP1 SWAP2 SUB SWAP1 REVERT JUMPDEST PUSH2 0xD76 DUP3 DUP1 CALLDATASIZE SUB DUP2 ADD SWAP1 PUSH2 0xD71 SWAP2 SWAP1 PUSH2 0x3D43 JUMP JUMPDEST PUSH2 0x206F JUMP JUMPDEST PUSH2 0xDAC JUMPI PUSH1 0x40 MLOAD PUSH32 0xF80F144500000000000000000000000000000000000000000000000000000000 DUP2 MSTORE PUSH1 0x4 ADD PUSH1 0x40 MLOAD DUP1 SWAP2 SUB SWAP1 REVERT JUMPDEST PUSH2 0xDB6 PUSH1 0x7 PUSH2 0x2200 JUMP JUMPDEST PUSH0 PUSH2 0xDC1 PUSH1 0x7 PUSH2 0x2214 JUMP JUMPDEST SWAP1 POP PUSH0 PUSH1 0x8 PUSH0 DUP4 DUP2 MSTORE PUSH1 0x20 ADD SWAP1 DUP2 MSTORE PUSH1 0x20 ADD PUSH0 KECCAK256 SWAP1 POP DUP4 DUP2 PUSH0 ADD DUP2 DUP2 PUSH2 0xDE7 SWAP2 SWAP1 PUSH2 0x3F6E JUMP JUMPDEST SWAP1 POP POP DUP4 DUP2 PUSH1 0x1 ADD DUP2 DUP2 PUSH2 0xDFB SWAP2 SWAP1 PUSH2 0x3F6E JUMP JUMPDEST SWAP1 POP POP CALLER DUP2 PUSH1 0x5 ADD PUSH0 PUSH2 0x100 EXP DUP2 SLOAD DUP2 PUSH20 0xFFFFFFFFFFFFFFFFFFFFFFFFFFFFFFFFFFFFFFFF MUL NOT AND SWAP1 DUP4 PUSH20 0xFFFFFFFFFFFFFFFFFFFFFFFFFFFFFFFFFFFFFFFF AND MUL OR SWAP1 SSTORE POP PUSH0 DUP2 PUSH1 0x4 ADD DUP2 SWAP1 SSTORE POP PUSH0 DUP2 PUSH1 0x3 ADD DUP2 SWAP1 SSTORE POP PUSH0 DUP2 PUSH1 0x5 ADD PUSH1 0x14 PUSH2 0x100 EXP DUP2 SLOAD DUP2 PUSH1 0xFF MUL NOT AND SWAP1 DUP4 ISZERO ISZERO MUL OR SWAP1 SSTORE POP PUSH1 0xB SLOAD DUP2 PUSH1 0x7 ADD DUP2 SWAP1 SSTORE POP PUSH1 0x9 PUSH0 CALLER PUSH20 0xFFFFFFFFFFFFFFFFFFFFFFFFFFFFFFFFFFFFFFFF AND PUSH20 0xFFFFFFFFFFFFFFFFFFFFFFFFFFFFFFFFFFFFFFFF AND DUP2 MSTORE PUSH1 0x20 ADD SWAP1 DUP2 MSTORE PUSH1 0x20 ADD PUSH0 KECCAK256 PUSH0 DUP2 SLOAD DUP1 SWAP3 SWAP2 SWAP1 PUSH2 0xEC6 SWAP1 PUSH2 0x407B JUMP JUMPDEST SWAP2 SWAP1 POP SSTORE POP PUSH2 0xED5 CALLER DUP4 PUSH2 0x2220 JUMP JUMPDEST CALLER PUSH20 0xFFFFFFFFFFFFFFFFFFFFFFFFFFFFFFFFFFFFFFFF AND DUP3 PUSH32 0xDFFE517F254875DE804B76D54DA034367437A82635472CEAFFE26B4C813BEB08 DUP7 PUSH1 0x40 MLOAD PUSH2 0xF1C SWAP2 SWAP1 PUSH2 0x4000 JUMP JUMPDEST PUSH1 0x40 MLOAD DUP1 SWAP2 SUB SWAP1 LOG3 DUP2 SWAP3 POP POP POP SWAP2 SWAP1 POP JUMP JUMPDEST PUSH0 PUSH1 0x6 PUSH1 0x14 SWAP1 SLOAD SWAP1 PUSH2 0x100 EXP SWAP1 DIV PUSH1 0xFF AND SWAP1 POP SWAP1 JUMP JUMPDEST PUSH2 0xF4C PUSH2 0x2025 JUMP JUMPDEST PUSH0 PUSH20 0xFFFFFFFFFFFFFFFFFFFFFFFFFFFFFFFFFFFFFFFF AND PUSH1 0xC PUSH0 SWAP1 SLOAD SWAP1 PUSH2 0x100 EXP SWAP1 DIV PUSH20 0xFFFFFFFFFFFFFFFFFFFFFFFFFFFFFFFFFFFFFFFF AND PUSH20 0xFFFFFFFFFFFFFFFFFFFFFFFFFFFFFFFFFFFFFFFF AND SUB PUSH2 0xFD2 JUMPI PUSH1 0x40 MLOAD PUSH32 0xC8C5B00E00000000000000000000000000000000000000000000000000000000 DUP2 MSTORE PUSH1 0x4 ADD PUSH1 0x40 MLOAD DUP1 SWAP2 SUB SWAP1 REVERT JUMPDEST PUSH0 PUSH1 0x8 PUSH0 DUP6 DUP2 MSTORE PUSH1 0x20 ADD SWAP1 DUP2 MSTORE PUSH1 0x20 ADD PUSH0 KECCAK256 SWAP1 POP PUSH0 PUSH20 0xFFFFFFFFFFFFFFFFFFFFFFFFFFFFFFFFFFFFFFFF AND DUP2 PUSH1 0x5 ADD PUSH0 SWAP1 SLOAD SWAP1 PUSH2 0x100 EXP SWAP1 DIV PUSH20 0xFFFFFFFFFFFFFFFFFFFFFFFFFFFFFFFFFFFFFFFF AND PUSH20 0xFFFFFFFFFFFFFFFFFFFFFFFFFFFFFFFFFFFFFFFF AND SUB PUSH2 0x106E JUMPI PUSH1 0x40 MLOAD PUSH32 0x4D28580700000000000000000000000000000000000000000000000000000000 DUP2 MSTORE PUSH1 0x4 ADD PUSH1 0x40 MLOAD DUP1 SWAP2 SUB SWAP1 REVERT JUMPDEST DUP1 PUSH1 0x5 ADD PUSH1 0x14 SWAP1 SLOAD SWAP1 PUSH2 0x100 EXP SWAP1 DIV PUSH1 0xFF AND PUSH2 0x10B6 JUMPI PUSH1 0x40 MLOAD PUSH32 0xA008845700000000000000000000000000000000000000000000000000000000 DUP2 MSTORE PUSH1 0x4 ADD PUSH1 0x40 MLOAD DUP1 SWAP2 SUB SWAP1 REVERT JUMPDEST CALLER PUSH20 0xFFFFFFFFFFFFFFFFFFFFFFFFFFFFFFFFFFFFFFFF AND PUSH1 0xA PUSH0 DUP7 DUP2 MSTORE PUSH1 0x20 ADD SWAP1 DUP2 MSTORE PUSH1 0x20 ADD PUSH0 KECCAK256 PUSH0 SWAP1 SLOAD SWAP1 PUSH2 0x100 EXP SWAP1 DIV PUSH20 0xFFFFFFFFFFFFFFFFFFFFFFFFFFFFFFFFFFFFFFFF AND PUSH20 0xFFFFFFFFFFFFFFFFFFFFFFFFFFFFFFFFFFFFFFFF AND EQ PUSH2 0x114B JUMPI PUSH1 0x40 MLOAD PUSH32 0x5EA428D200000000000000000000000000000000000000000000000000000000 DUP2 MSTORE PUSH1 0x4 ADD PUSH1 0x40 MLOAD DUP1 SWAP2 SUB SWAP1 REVERT JUMPDEST PUSH2 0x1164 DUP4 DUP1 CALLDATASIZE SUB DUP2 ADD SWAP1 PUSH2 0x115F SWAP2 SWAP1 PUSH2 0x3D43 JUMP JUMPDEST PUSH2 0x206F JUMP JUMPDEST PUSH2 0x119A JUMPI PUSH1 0x40 MLOAD PUSH32 0xF80F144500000000000000000000000000000000000000000000000000000000 DUP2 MSTORE PUSH1 0x4 ADD PUSH1 0x40 MLOAD DUP1 SWAP2 SUB SWAP1 REVERT JUMPDEST PUSH0 DUP2 PUSH1 0x1 ADD PUSH1 0x40 MLOAD DUP1 PUSH1 0x60 ADD PUSH1 0x40 MSTORE SWAP1 DUP2 PUSH0 DUP3 ADD PUSH0 SWAP1 SLOAD SWAP1 PUSH2 0x100 EXP SWAP1 DIV PUSH1 0x7 SIGNEXTEND PUSH1 0x7 SIGNEXTEND PUSH1 0x7 SIGNEXTEND DUP2 MSTORE PUSH1 0x20 ADD PUSH0 DUP3 ADD PUSH1 0x8 SWAP1 SLOAD SWAP1 PUSH2 0x100 EXP SWAP1 DIV PUSH1 0x7 SIGNEXTEND PUSH1 0x7 SIGNEXTEND PUSH1 0x7 SIGNEXTEND DUP2 MSTORE PUSH1 0x20 ADD PUSH0 DUP3 ADD PUSH1 0x10 SWAP1 SLOAD SWAP1 PUSH2 0x100 EXP SWAP1 DIV PUSH8 0xFFFFFFFFFFFFFFFF AND PUSH8 0xFFFFFFFFFFFFFFFF AND PUSH8 0xFFFFFFFFFFFFFFFF AND DUP2 MSTORE POP POP SWAP1 POP DUP4 DUP3 PUSH1 0x1 ADD DUP2 DUP2 PUSH2 0x1225 SWAP2 SWAP1 PUSH2 0x3F6E JUMP JUMPDEST SWAP1 POP POP PUSH0 DUP3 PUSH1 0x5 ADD PUSH1 0x14 PUSH2 0x100 EXP DUP2 SLOAD DUP2 PUSH1 0xFF MUL NOT AND SWAP1 DUP4 ISZERO ISZERO MUL OR SWAP1 SSTORE POP DUP2 PUSH1 0x2 ADD PUSH0 DUP2 SLOAD DUP1 SWAP3 SWAP2 SWAP1 PUSH2 0x1258 SWAP1 PUSH2 0x407B JUMP JUMPDEST SWAP2 SWAP1 POP SSTORE POP PUSH0 PUSH2 0x1278 DUP3 DUP7 DUP1 CALLDATASIZE SUB DUP2 ADD SWAP1 PUSH2 0x1273 SWAP2 SWAP1 PUSH2 0x3D43 JUMP JUMPDEST PUSH2 0x223D JUMP JUMPDEST SWAP1 POP DUP1 DUP4 PUSH1 0x3 ADD PUSH0 DUP3 DUP3 SLOAD PUSH2 0x128D SWAP2 SWAP1 PUSH2 0x40C2 JUMP JUMPDEST SWAP3 POP POP DUP2 SWAP1 SSTORE POP PUSH2 0x12A6 DUP4 PUSH1 0x2 ADD SLOAD DUP5 PUSH1 0x3 ADD SLOAD PUSH2 0x230F JUMP JUMPDEST DUP4 PUSH1 0x4 ADD DUP2 SWAP1 SSTORE POP DUP4 DUP4 PUSH1 0x6 ADD DUP2 SWAP1 SSTORE POP PUSH0 PUSH2 0x12D8 DUP8 DUP5 DUP9 DUP1 CALLDATASIZE SUB DUP2 ADD SWAP1 PUSH2 0x12CE SWAP2 SWAP1 PUSH2 0x3D43 JUMP JUMPDEST DUP8 PUSH1 0x4 ADD SLOAD PUSH2 0x2378 JUMP JUMPDEST SWAP1 POP PUSH1 0xC PUSH0 SWAP1 SLOAD SWAP1 PUSH2 0x100 EXP SWAP1 DIV PUSH20 0xFFFFFFFFFFFFFFFFFFFFFFFFFFFFFFFFFFFFFFFF AND PUSH20 0xFFFFFFFFFFFFFFFFFFFFFFFFFFFFFFFFFFFFFFFF AND PUSH4 0x80807BE DUP9 CALLER DUP7 DUP11 DUP7 DUP12 PUSH1 0x40 MLOAD DUP8 PUSH4 0xFFFFFFFF AND PUSH1 0xE0 SHL DUP2 MSTORE PUSH1 0x4 ADD PUSH2 0x133E SWAP7 SWAP6 SWAP5 SWAP4 SWAP3 SWAP2 SWAP1 PUSH2 0x40F5 JUMP JUMPDEST PUSH0 PUSH1 0x40 MLOAD DUP1 DUP4 SUB DUP2 PUSH0 DUP8 DUP1 EXTCODESIZE ISZERO DUP1 ISZERO PUSH2 0x1355 JUMPI PUSH0 DUP1 REVERT JUMPDEST POP GAS CALL ISZERO DUP1 ISZERO PUSH2 0x1367 JUMPI RETURNDATASIZE PUSH0 DUP1 RETURNDATACOPY RETURNDATASIZE PUSH0 REVERT JUMPDEST POP POP POP POP PUSH1 0xA PUSH0 DUP9 DUP2 MSTORE PUSH1 0x20 ADD SWAP1 DUP2 MSTORE PUSH1 0x20 ADD PUSH0 KECCAK256 PUSH0 PUSH2 0x100 EXP DUP2 SLOAD SWAP1 PUSH20 0xFFFFFFFFFFFFFFFFFFFFFFFFFFFFFFFFFFFFFFFF MUL NOT AND SWAP1 SSTORE CALLER PUSH20 0xFFFFFFFFFFFFFFFFFFFFFFFFFFFFFFFFFFFFFFFF AND DUP8 PUSH32 0xAE2D7AF13AC4BBB6C26A8CE1D47D0148F62F74BD05AEBACD2562F16CBEDD65FD DUP9 PUSH1 0x40 MLOAD PUSH2 0x13E5 SWAP2 SWAP1 PUSH2 0x4000 JUMP JUMPDEST PUSH1 0x40 MLOAD DUP1 SWAP2 SUB SWAP1 LOG3 CALLER PUSH20 0xFFFFFFFFFFFFFFFFFFFFFFFFFFFFFFFFFFFFFFFF AND DUP8 PUSH32 0x3D34CAC5FC97A73234C81CA60D8BF759004DF6F7769F9CB6C45345B8B2E78A09 DUP6 DUP10 PUSH1 0x40 MLOAD PUSH2 0x1436 SWAP3 SWAP2 SWAP1 PUSH2 0x4157 JUMP JUMPDEST PUSH1 0x40 MLOAD DUP1 SWAP2 SUB SWAP1 LOG3 DUP7 PUSH32 0xD57EBCEBD2EE998AF04CC567D1D726DB6E506E576A231810CFC85A1FBC438417 DUP7 PUSH1 0x40 MLOAD PUSH2 0x146E SWAP2 SWAP1 PUSH2 0x417E JUMP JUMPDEST PUSH1 0x40 MLOAD DUP1 SWAP2 SUB SWAP1 LOG2 POP POP POP POP POP POP POP JUMP JUMPDEST PUSH0 PUSH2 0x1489 DUP3 PUSH2 0x1EDF JUMP JUMPDEST SWAP1 POP SWAP2 SWAP1 POP JUMP JUMPDEST PUSH1 0xD SLOAD DUP2 JUMP JUMPDEST PUSH0 DUP1 PUSH20 0xFFFFFFFFFFFFFFFFFFFFFFFFFFFFFFFFFFFFFFFF AND DUP3 PUSH20 0xFFFFFFFFFFFFFFFFFFFFFFFFFFFFFFFFFFFFFFFF AND SUB PUSH2 0x1507 JUMPI PUSH0 PUSH1 0x40 MLOAD PUSH32 0x89C62B6400000000000000000000000000000000000000000000000000000000 DUP2 MSTORE PUSH1 0x4 ADD PUSH2 0x14FE SWAP2 SWAP1 PUSH2 0x3478 JUMP JUMPDEST PUSH1 0x40 MLOAD DUP1 SWAP2 SUB SWAP1 REVERT JUMPDEST PUSH1 0x3 PUSH0 DUP4 PUSH20 0xFFFFFFFFFFFFFFFFFFFFFFFFFFFFFFFFFFFFFFFF AND PUSH20 0xFFFFFFFFFFFFFFFFFFFFFFFFFFFFFFFFFFFFFFFF AND DUP2 MSTORE PUSH1 0x20 ADD SWAP1 DUP2 MSTORE PUSH1 0x20 ADD PUSH0 KECCAK256 SLOAD SWAP1 POP SWAP2 SWAP1 POP JUMP JUMPDEST PUSH2 0x1554 PUSH2 0x1F9E JUMP JUMPDEST PUSH2 0x155D PUSH0 PUSH2 0x24B0 JUMP JUMPDEST JUMP JUMPDEST PUSH1 0xB SLOAD DUP2 JUMP JUMPDEST PUSH1 0x1 DUP2 JUMP JUMPDEST PUSH2 0x1572 PUSH2 0x1F9E JUMP JUMPDEST DUP1 PUSH1 0xC PUSH0 PUSH2 0x100 EXP DUP2 SLOAD DUP2 PUSH20 0xFFFFFFFFFFFFFFFFFFFFFFFFFFFFFFFFFFFFFFFF MUL NOT AND SWAP1 DUP4 PUSH20 0xFFFFFFFFFFFFFFFFFFFFFFFFFFFFFFFFFFFFFFFF AND MUL OR SWAP1 SSTORE POP POP JUMP JUMPDEST PUSH2 0x15BD PUSH2 0x1F9E JUMP JUMPDEST PUSH2 0x15C5 PUSH2 0x2573 JUMP JUMPDEST JUMP JUMPDEST PUSH1 0x9 PUSH1 0x20 MSTORE DUP1 PUSH0 MSTORE PUSH1 0x40 PUSH0 KECCAK256 PUSH0 SWAP2 POP SWAP1 POP SLOAD DUP2 JUMP JUMPDEST PUSH1 0xA PUSH1 0x20 MSTORE DUP1 PUSH0 MSTORE PUSH1 0x40 PUSH0 KECCAK256 PUSH0 SWAP2 POP SLOAD SWAP1 PUSH2 0x100 EXP SWAP1 DIV PUSH20 0xFFFFFFFFFFFFFFFFFFFFFFFFFFFFFFFFFFFFFFFF AND DUP2 JUMP JUMPDEST PUSH0 PUSH1 0x6 PUSH0 SWAP1 SLOAD SWAP1 PUSH2 0x100 EXP SWAP1 DIV PUSH20 0xFFFFFFFFFFFFFFFFFFFFFFFFFFFFFFFFFFFFFFFF AND SWAP1 POP SWAP1 JUMP JUMPDEST PUSH1 0x60 PUSH1 0x1 DUP1 SLOAD PUSH2 0x1643 SWAP1 PUSH2 0x3AC7 JUMP JUMPDEST DUP1 PUSH1 0x1F ADD PUSH1 0x20 DUP1 SWAP2 DIV MUL PUSH1 0x20 ADD PUSH1 0x40 MLOAD SWAP1 DUP2 ADD PUSH1 0x40 MSTORE DUP1 SWAP3 SWAP2 SWAP1 DUP2 DUP2 MSTORE PUSH1 0x20 ADD DUP3 DUP1 SLOAD PUSH2 0x166F SWAP1 PUSH2 0x3AC7 JUMP JUMPDEST DUP1 ISZERO PUSH2 0x16BA JUMPI DUP1 PUSH1 0x1F LT PUSH2 0x1691 JUMPI PUSH2 0x100 DUP1 DUP4 SLOAD DIV MUL DUP4 MSTORE SWAP2 PUSH1 0x20 ADD SWAP2 PUSH2 0x16BA JUMP JUMPDEST DUP3 ADD SWAP2 SWAP1 PUSH0 MSTORE PUSH1 0x20 PUSH0 KECCAK256 SWAP1 JUMPDEST DUP2 SLOAD DUP2 MSTORE SWAP1 PUSH1 0x1 ADD SWAP1 PUSH1 0x20 ADD DUP1 DUP4 GT PUSH2 0x169D JUMPI DUP3 SWAP1 SUB PUSH1 0x1F AND DUP3 ADD SWAP2 JUMPDEST POP POP POP POP POP SWAP1 POP SWAP1 JUMP JUMPDEST PUSH0 PUSH1 0x8 PUSH0 DUP5 DUP2 MSTORE PUSH1 0x20 ADD SWAP1 DUP2 MSTORE PUSH1 0x20 ADD PUSH0 KECCAK256 SWAP1 POP CALLER PUSH20 0xFFFFFFFFFFFFFFFFFFFFFFFFFFFFFFFFFFFFFFFF AND DUP2 PUSH1 0x5 ADD PUSH0 SWAP1 SLOAD SWAP1 PUSH2 0x100 EXP SWAP1 DIV PUSH20 0xFFFFFFFFFFFFFFFFFFFFFFFFFFFFFFFFFFFFFFFF AND PUSH20 0xFFFFFFFFFFFFFFFFFFFFFFFFFFFFFFFFFFFFFFFF AND EQ PUSH2 0x1760 JUMPI PUSH1 0x40 MLOAD PUSH32 0xDE271CF500000000000000000000000000000000000000000000000000000000 DUP2 MSTORE PUSH1 0x4 ADD PUSH1 0x40 MLOAD DUP1 SWAP2 SUB SWAP1 REVERT JUMPDEST DUP2 DUP2 PUSH1 0x7 ADD DUP2 SWAP1 SSTORE POP DUP3 PUSH32 0x6D45AAFD42922ECAF790EDBEB5B45DFACA692040B5A8B8D0F0379035D18A3829 DUP4 PUSH1 0x40 MLOAD PUSH2 0x1799 SWAP2 SWAP1 PUSH2 0x34DE JUMP JUMPDEST PUSH1 0x40 MLOAD DUP1 SWAP2 SUB SWAP1 LOG2 POP POP POP JUMP JUMPDEST PUSH1 0x40 MLOAD PUSH32 0x8C379A000000000000000000000000000000000000000000000000000000000 DUP2 MSTORE PUSH1 0x4 ADD PUSH2 0x17D8 SWAP1 PUSH2 0x4207 JUMP JUMPDEST PUSH1 0x40 MLOAD DUP1 SWAP2 SUB SWAP1 REVERT JUMPDEST PUSH2 0x17E9 PUSH2 0x2025 JUMP JUMPDEST PUSH0 PUSH1 0x8 PUSH0 DUP5 DUP2 MSTORE PUSH1 0x20 ADD SWAP1 DUP2 MSTORE PUSH1 0x20 ADD PUSH0 KECCAK256 SWAP1 POP PUSH0 PUSH20 0xFFFFFFFFFFFFFFFFFFFFFFFFFFFFFFFFFFFFFFFF AND DUP2 PUSH1 0x5 ADD PUSH0 SWAP1 SLOAD SWAP1 PUSH2 0x100 EXP SWAP1 DIV PUSH20 0xFFFFFFFFFFFFFFFFFFFFFFFFFFFFFFFFFFFFFFFF AND PUSH20 0xFFFFFFFFFFFFFFFFFFFFFFFFFFFFFFFFFFFFFFFF AND SUB PUSH2 0x1885 JUMPI PUSH1 0x40 MLOAD PUSH32 0x4D28580700000000000000000000000000000000000000000000000000000000 DUP2 MSTORE PUSH1 0x4 ADD PUSH1 0x40 MLOAD DUP1 SWAP2 SUB SWAP1 REVERT JUMPDEST DUP1 PUSH1 0x5 ADD PUSH1 0x14 SWAP1 SLOAD SWAP1 PUSH2 0x100 EXP SWAP1 DIV PUSH1 0xFF AND ISZERO PUSH2 0x18CE JUMPI PUSH1 0x40 MLOAD PUSH32 0x7BB246A300000000000000000000000000000000000000000000000000000000 DUP2 MSTORE PUSH1 0x4 ADD PUSH1 0x40 MLOAD DUP1 SWAP2 SUB SWAP1 REVERT JUMPDEST DUP1 PUSH1 0x5 ADD PUSH0 SWAP1 SLOAD SWAP1 PUSH2 0x100 EXP SWAP1 DIV PUSH20 0xFFFFFFFFFFFFFFFFFFFFFFFFFFFFFFFFFFFFFFFF AND PUSH20 0xFFFFFFFFFFFFFFFFFFFFFFFFFFFFFFFFFFFFFFFF AND CALLER PUSH20 0xFFFFFFFFFFFFFFFFFFFFFFFFFFFFFFFFFFFFFFFF AND SUB PUSH2 0x1956 JUMPI PUSH1 0x40 MLOAD PUSH32 0x5EA428D200000000000000000000000000000000000000000000000000000000 DUP2 MSTORE PUSH1 0x4 ADD PUSH1 0x40 MLOAD DUP1 SWAP2 SUB SWAP1 REVERT JUMPDEST PUSH2 0x19E6 DUP3 DUP1 CALLDATASIZE SUB DUP2 ADD SWAP1 PUSH2 0x196A SWAP2 SWAP1 PUSH2 0x3D43 JUMP JUMPDEST DUP3 PUSH1 0x1 ADD PUSH1 0x40 MLOAD DUP1 PUSH1 0x60 ADD PUSH1 0x40 MSTORE SWAP1 DUP2 PUSH0 DUP3 ADD PUSH0 SWAP1 SLOAD SWAP1 PUSH2 0x100 EXP SWAP1 DIV PUSH1 0x7 SIGNEXTEND PUSH1 0x7 SIGNEXTEND PUSH1 0x7 SIGNEXTEND DUP2 MSTORE PUSH1 0x20 ADD PUSH0 DUP3 ADD PUSH1 0x8 SWAP1 SLOAD SWAP1 PUSH2 0x100 EXP SWAP1 DIV PUSH1 0x7 SIGNEXTEND PUSH1 0x7 SIGNEXTEND PUSH1 0x7 SIGNEXTEND DUP2 MSTORE PUSH1 0x20 ADD PUSH0 DUP3 ADD PUSH1 0x10 SWAP1 SLOAD SWAP1 PUSH2 0x100 EXP SWAP1 DIV PUSH8 0xFFFFFFFFFFFFFFFF AND PUSH8 0xFFFFFFFFFFFFFFFF AND PUSH8 0xFFFFFFFFFFFFFFFF AND DUP2 MSTORE POP POP PUSH2 0x25D6 JUMP JUMPDEST PUSH2 0x1A1C JUMPI PUSH1 0x40 MLOAD PUSH32 0xE286E4CF00000000000000000000000000000000000000000000000000000000 DUP2 MSTORE PUSH1 0x4 ADD PUSH1 0x40 MLOAD DUP1 SWAP2 SUB SWAP1 REVERT JUMPDEST PUSH2 0x1A35 DUP3 DUP1 CALLDATASIZE SUB DUP2 ADD SWAP1 PUSH2 0x1A30 SWAP2 SWAP1 PUSH2 0x3D43 JUMP JUMPDEST PUSH2 0x206F JUMP JUMPDEST PUSH2 0x1A6B JUMPI PUSH1 0x40 MLOAD PUSH32 0xF80F144500000000000000000000000000000000000000000000000000000000 DUP2 MSTORE PUSH1 0x4 ADD PUSH1 0x40 MLOAD DUP1 SWAP2 SUB SWAP1 REVERT JUMPDEST PUSH1 0x1 DUP2 PUSH1 0x5 ADD PUSH1 0x14 PUSH2 0x100 EXP DUP2 SLOAD DUP2 PUSH1 0xFF MUL NOT AND SWAP1 DUP4 ISZERO ISZERO MUL OR SWAP1 SSTORE POP CALLER PUSH1 0xA PUSH0 DUP6 DUP2 MSTORE PUSH1 0x20 ADD SWAP1 DUP2 MSTORE PUSH1 0x20 ADD PUSH0 KECCAK256 PUSH0 PUSH2 0x100 EXP DUP2 SLOAD DUP2 PUSH20 0xFFFFFFFFFFFFFFFFFFFFFFFFFFFFFFFFFFFFFFFF MUL NOT AND SWAP1 DUP4 PUSH20 0xFFFFFFFFFFFFFFFFFFFFFFFFFFFFFFFFFFFFFFFF AND MUL OR SWAP1 SSTORE POP CALLER PUSH20 0xFFFFFFFFFFFFFFFFFFFFFFFFFFFFFFFFFFFFFFFF AND DUP4 PUSH32 0xAD6FFA76AD6DFC74B39FB62C7F9E1A5255044C5C4DFBCE7B7E9644D20DCBC6CC DUP5 PUSH1 0x40 MLOAD PUSH2 0x1B1E SWAP2 SWAP1 PUSH2 0x4000 JUMP JUMPDEST PUSH1 0x40 MLOAD DUP1 SWAP2 SUB SWAP1 LOG3 POP POP POP JUMP JUMPDEST PUSH1 0xF SLOAD DUP2 JUMP JUMPDEST PUSH2 0x1B3C DUP5 DUP5 DUP5 PUSH2 0xB88 JUMP JUMPDEST PUSH2 0x1B50 PUSH2 0x1B47 PUSH2 0x2118 JUMP JUMPDEST DUP6 DUP6 DUP6 DUP6 PUSH2 0x26BA JUMP JUMPDEST POP POP POP POP JUMP JUMPDEST PUSH1 0x64 DUP2 JUMP JUMPDEST PUSH1 0x60 PUSH2 0x1B66 DUP3 PUSH2 0x1EDF JUMP JUMPDEST POP PUSH0 PUSH2 0x1B70 PUSH2 0x2866 JUMP JUMPDEST SWAP1 POP PUSH0 DUP2 MLOAD GT PUSH2 0x1B8E JUMPI PUSH1 0x40 MLOAD DUP1 PUSH1 0x20 ADD PUSH1 0x40 MSTORE DUP1 PUSH0 DUP2 MSTORE POP PUSH2 0x1BB9 JUMP JUMPDEST DUP1 PUSH2 0x1B98 DUP5 PUSH2 0x287C JUMP JUMPDEST PUSH1 0x40 MLOAD PUSH1 0x20 ADD PUSH2 0x1BA9 SWAP3 SWAP2 SWAP1 PUSH2 0x425F JUMP JUMPDEST PUSH1 0x40 MLOAD PUSH1 0x20 DUP2 DUP4 SUB SUB DUP2 MSTORE SWAP1 PUSH1 0x40 MSTORE JUMPDEST SWAP2 POP POP SWAP2 SWAP1 POP JUMP JUMPDEST PUSH1 0x8 PUSH1 0x20 MSTORE DUP1 PUSH0 MSTORE PUSH1 0x40 PUSH0 KECCAK256 PUSH0 SWAP2 POP SWAP1 POP DUP1 PUSH0 ADD PUSH1 0x40 MLOAD DUP1 PUSH1 0x60 ADD PUSH1 0x40 MSTORE SWAP1 DUP2 PUSH0 DUP3 ADD PUSH0 SWAP1 SLOAD SWAP1 PUSH2 0x100 EXP SWAP1 DIV PUSH1 0x7 SIGNEXTEND PUSH1 0x7 SIGNEXTEND PUSH1 0x7 SIGNEXTEND DUP2 MSTORE PUSH1 0x20 ADD PUSH0 DUP3 ADD PUSH1 0x8 SWAP1 SLOAD SWAP1 PUSH2 0x100 EXP SWAP1 DIV PUSH1 0x7 SIGNEXTEND PUSH1 0x7 SIGNEXTEND PUSH1 0x7 SIGNEXTEND DUP2 MSTORE PUSH1 0x20 ADD PUSH0 DUP3 ADD PUSH1 0x10 SWAP1 SLOAD SWAP1 PUSH2 0x100 EXP SWAP1 DIV PUSH8 0xFFFFFFFFFFFFFFFF AND PUSH8 0xFFFFFFFFFFFFFFFF AND PUSH8 0xFFFFFFFFFFFFFFFF AND DUP2 MSTORE POP POP SWAP1 DUP1 PUSH1 0x1 ADD PUSH1 0x40 MLOAD DUP1 PUSH1 0x60 ADD PUSH1 0x40 MSTORE SWAP1 DUP2 PUSH0 DUP3 ADD PUSH0 SWAP1 SLOAD SWAP1 PUSH2 0x100 EXP SWAP1 DIV PUSH1 0x7 SIGNEXTEND PUSH1 0x7 SIGNEXTEND PUSH1 0x7 SIGNEXTEND DUP2 MSTORE PUSH1 0x20 ADD PUSH0 DUP3 ADD PUSH1 0x8 SWAP1 SLOAD SWAP1 PUSH2 0x100 EXP SWAP1 DIV PUSH1 0x7 SIGNEXTEND PUSH1 0x7 SIGNEXTEND PUSH1 0x7 SIGNEXTEND DUP2 MSTORE PUSH1 0x20 ADD PUSH0 DUP3 ADD PUSH1 0x10 SWAP1 SLOAD SWAP1 PUSH2 0x100 EXP SWAP1 DIV PUSH8 0xFFFFFFFFFFFFFFFF AND PUSH8 0xFFFFFFFFFFFFFFFF AND PUSH8 0xFFFFFFFFFFFFFFFF AND DUP2 MSTORE POP POP SWAP1 DUP1 PUSH1 0x2 ADD SLOAD SWAP1 DUP1 PUSH1 0x3 ADD SLOAD SWAP1 DUP1 PUSH1 0x4 ADD SLOAD SWAP1 DUP1 PUSH1 0x5 ADD PUSH0 SWAP1 SLOAD SWAP1 PUSH2 0x100 EXP SWAP1 DIV PUSH20 0xFFFFFFFFFFFFFFFFFFFFFFFFFFFFFFFFFFFFFFFF AND SWAP1 DUP1 PUSH1 0x5 ADD PUSH1 0x14 SWAP1 SLOAD SWAP1 PUSH2 0x100 EXP SWAP1 DIV PUSH1 0xFF AND SWAP1 DUP1 PUSH1 0x6 ADD SLOAD SWAP1 DUP1 PUSH1 0x7 ADD SLOAD SWAP1 POP DUP10 JUMP JUMPDEST PUSH2 0x1D23 PUSH2 0x1F9E JUMP JUMPDEST DUP1 PUSH1 0xB DUP2 SWAP1 SSTORE POP PUSH32 0xBB9CC79CD65E537E25D290BEB2FFB5BF3D7DAE20C986AA6ADA11022236D18A9A DUP2 PUSH1 0x40 MLOAD PUSH2 0x1D59 SWAP2 SWAP1 PUSH2 0x34DE JUMP JUMPDEST PUSH1 0x40 MLOAD DUP1 SWAP2 SUB SWAP1 LOG1 POP JUMP JUMPDEST PUSH0 PUSH1 0x5 PUSH0 DUP5 PUSH20 0xFFFFFFFFFFFFFFFFFFFFFFFFFFFFFFFFFFFFFFFF AND PUSH20 0xFFFFFFFFFFFFFFFFFFFFFFFFFFFFFFFFFFFFFFFF AND DUP2 MSTORE PUSH1 0x20 ADD SWAP1 DUP2 MSTORE PUSH1 0x20 ADD PUSH0 KECCAK256 PUSH0 DUP4 PUSH20 0xFFFFFFFFFFFFFFFFFFFFFFFFFFFFFFFFFFFFFFFF AND PUSH20 0xFFFFFFFFFFFFFFFFFFFFFFFFFFFFFFFFFFFFFFFF AND DUP2 MSTORE PUSH1 0x20 ADD SWAP1 DUP2 MSTORE PUSH1 0x20 ADD PUSH0 KECCAK256 PUSH0 SWAP1 SLOAD SWAP1 PUSH2 0x100 EXP SWAP1 DIV PUSH1 0xFF AND SWAP1 POP SWAP3 SWAP2 POP POP JUMP JUMPDEST PUSH2 0x1DFA PUSH2 0x1F9E JUMP JUMPDEST PUSH0 PUSH20 0xFFFFFFFFFFFFFFFFFFFFFFFFFFFFFFFFFFFFFFFF AND DUP2 PUSH20 0xFFFFFFFFFFFFFFFFFFFFFFFFFFFFFFFFFFFFFFFF AND SUB PUSH2 0x1E6A JUMPI PUSH0 PUSH1 0x40 MLOAD PUSH32 0x1E4FBDF700000000000000000000000000000000000000000000000000000000 DUP2 MSTORE PUSH1 0x4 ADD PUSH2 0x1E61 SWAP2 SWAP1 PUSH2 0x3478 JUMP JUMPDEST PUSH1 0x40 MLOAD DUP1 SWAP2 SUB SWAP1 REVERT JUMPDEST PUSH2 0x1E73 DUP2 PUSH2 0x24B0 JUMP JUMPDEST POP JUMP JUMPDEST PUSH0 PUSH32 0x1FFC9A700000000000000000000000000000000000000000000000000000000 PUSH28 0xFFFFFFFFFFFFFFFFFFFFFFFFFFFFFFFFFFFFFFFFFFFFFFFFFFFFFFFF NOT AND DUP3 PUSH28 0xFFFFFFFFFFFFFFFFFFFFFFFFFFFFFFFFFFFFFFFFFFFFFFFFFFFFFFFF NOT AND EQ SWAP1 POP SWAP2 SWAP1 POP JUMP JUMPDEST PUSH0 DUP1 PUSH2 0x1EEA DUP4 PUSH2 0x2946 JUMP JUMPDEST SWAP1 POP PUSH0 PUSH20 0xFFFFFFFFFFFFFFFFFFFFFFFFFFFFFFFFFFFFFFFF AND DUP2 PUSH20 0xFFFFFFFFFFFFFFFFFFFFFFFFFFFFFFFFFFFFFFFF AND SUB PUSH2 0x1F5C JUMPI DUP3 PUSH1 0x40 MLOAD PUSH32 0x7E27328900000000000000000000000000000000000000000000000000000000 DUP2 MSTORE PUSH1 0x4 ADD PUSH2 0x1F53 SWAP2 SWAP1 PUSH2 0x34DE JUMP JUMPDEST PUSH1 0x40 MLOAD DUP1 SWAP2 SUB SWAP1 REVERT JUMPDEST DUP1 SWAP2 POP POP SWAP2 SWAP1 POP JUMP JUMPDEST PUSH0 PUSH1 0x4 PUSH0 DUP4 DUP2 MSTORE PUSH1 0x20 ADD SWAP1 DUP2 MSTORE PUSH1 0x20 ADD PUSH0 KECCAK256 PUSH0 SWAP1 SLOAD SWAP1 PUSH2 0x100 EXP SWAP1 DIV PUSH20 0xFFFFFFFFFFFFFFFFFFFFFFFFFFFFFFFFFFFFFFFF AND SWAP1 POP SWAP2 SWAP1 POP JUMP JUMPDEST PUSH2 0x1FA6 PUSH2 0x2118 JUMP JUMPDEST PUSH20 0xFFFFFFFFFFFFFFFFFFFFFFFFFFFFFFFFFFFFFFFF AND PUSH2 0x1FC4 PUSH2 0x160C JUMP JUMPDEST PUSH20 0xFFFFFFFFFFFFFFFFFFFFFFFFFFFFFFFFFFFFFFFF AND EQ PUSH2 0x2023 JUMPI PUSH2 0x1FE7 PUSH2 0x2118 JUMP JUMPDEST PUSH1 0x40 MLOAD PUSH32 0x118CDAA700000000000000000000000000000000000000000000000000000000 DUP2 MSTORE PUSH1 0x4 ADD PUSH2 0x201A SWAP2 SWAP1 PUSH2 0x3478 JUMP JUMPDEST PUSH1 0x40 MLOAD DUP1 SWAP2 SUB SWAP1 REVERT JUMPDEST JUMP JUMPDEST PUSH2 0x202D PUSH2 0xF2E JUMP JUMPDEST ISZERO PUSH2 0x206D JUMPI PUSH1 0x40 MLOAD PUSH32 0x8C379A000000000000000000000000000000000000000000000000000000000 DUP2 MSTORE PUSH1 0x4 ADD PUSH2 0x2064 SWAP1 PUSH2 0x42CC JUMP JUMPDEST PUSH1 0x40 MLOAD DUP1 SWAP2 SUB SWAP1 REVERT JUMPDEST JUMP JUMPDEST PUSH0 PUSH32 0xFFFFFFFFFFFFFFFFFFFFFFFFFFFFFFFFFFFFFFFFFFFFFFFFFFFFFFFFFFF24460 DUP3 PUSH0 ADD MLOAD PUSH1 0x7 SIGNEXTEND SLT ISZERO DUP1 ISZERO PUSH2 0x20AF JUMPI POP PUSH3 0xDBBA0 DUP3 PUSH0 ADD MLOAD PUSH1 0x7 SIGNEXTEND SGT ISZERO JUMPDEST DUP1 ISZERO PUSH2 0x20E2 JUMPI POP PUSH32 0xFFFFFFFFFFFFFFFFFFFFFFFFFFFFFFFFFFFFFFFFFFFFFFFFFFFFFFFFFFE488C0 DUP3 PUSH1 0x20 ADD MLOAD PUSH1 0x7 SIGNEXTEND SLT ISZERO JUMPDEST DUP1 ISZERO PUSH2 0x20F8 JUMPI POP PUSH3 0x1B7740 DUP3 PUSH1 0x20 ADD MLOAD PUSH1 0x7 SIGNEXTEND SGT ISZERO JUMPDEST DUP1 ISZERO PUSH2 0x2111 JUMPI POP PUSH0 DUP3 PUSH1 0x40 ADD MLOAD PUSH8 0xFFFFFFFFFFFFFFFF AND GT JUMPDEST SWAP1 POP SWAP2 SWAP1 POP JUMP JUMPDEST PUSH0 CALLER SWAP1 POP SWAP1 JUMP JUMPDEST PUSH0 PUSH2 0x2128 PUSH2 0x2025 JUMP JUMPDEST PUSH1 0x8 PUSH0 DUP5 DUP2 MSTORE PUSH1 0x20 ADD SWAP1 DUP2 MSTORE PUSH1 0x20 ADD PUSH0 KECCAK256 PUSH1 0x5 ADD PUSH1 0x14 SWAP1 SLOAD SWAP1 PUSH2 0x100 EXP SWAP1 DIV PUSH1 0xFF AND ISZERO PUSH2 0x218A JUMPI PUSH1 0x40 MLOAD PUSH32 0x8C379A000000000000000000000000000000000000000000000000000000000 DUP2 MSTORE PUSH1 0x4 ADD PUSH2 0x2181 SWAP1 PUSH2 0x4334 JUMP JUMPDEST PUSH1 0x40 MLOAD DUP1 SWAP2 SUB SWAP1 REVERT JUMPDEST PUSH2 0x2195 DUP5 DUP5 DUP5 PUSH2 0x297F JUMP JUMPDEST SWAP1 POP SWAP4 SWAP3 POP POP POP JUMP JUMPDEST PUSH2 0x21A6 PUSH2 0x2B8A JUMP JUMPDEST PUSH0 PUSH1 0x6 PUSH1 0x14 PUSH2 0x100 EXP DUP2 SLOAD DUP2 PUSH1 0xFF MUL NOT AND SWAP1 DUP4 ISZERO ISZERO MUL OR SWAP1 SSTORE POP PUSH32 0x5DB9EE0A495BF2E6FF9C91A7834C1BA4FDD244A5E8AA4E537BD38AEAE4B073AA PUSH2 0x21E9 PUSH2 0x2118 JUMP JUMPDEST PUSH1 0x40 MLOAD PUSH2 0x21F6 SWAP2 SWAP1 PUSH2 0x3478 JUMP JUMPDEST PUSH1 0x40 MLOAD DUP1 SWAP2 SUB SWAP1 LOG1 JUMP JUMPDEST PUSH1 0x1 DUP2 PUSH0 ADD PUSH0 DUP3 DUP3 SLOAD ADD SWAP3 POP POP DUP2 SWAP1 SSTORE POP POP JUMP JUMPDEST PUSH0 DUP2 PUSH0 ADD SLOAD SWAP1 POP SWAP2 SWAP1 POP JUMP JUMPDEST PUSH2 0x2239 DUP3 DUP3 PUSH1 0x40 MLOAD DUP1 PUSH1 0x20 ADD PUSH1 0x40 MSTORE DUP1 PUSH0 DUP2 MSTORE POP PUSH2 0x2BD3 JUMP JUMPDEST POP POP JUMP JUMPDEST PUSH0 DUP1 DUP4 PUSH0 ADD MLOAD DUP4 PUSH0 ADD MLOAD PUSH2 0x2251 SWAP2 SWAP1 PUSH2 0x4352 JUMP JUMPDEST SWAP1 POP PUSH0 DUP5 PUSH1 0x20 ADD MLOAD DUP5 PUSH1 0x20 ADD MLOAD PUSH2 0x2268 SWAP2 SWAP1 PUSH2 0x4352 JUMP JUMPDEST SWAP1 POP PUSH0 DUP1 DUP4 PUSH1 0x7 SIGNEXTEND SLT PUSH2 0x227B JUMPI DUP3 PUSH2 0x2286 JUMP JUMPDEST DUP3 PUSH2 0x2285 SWAP1 PUSH2 0x43B1 JUMP JUMPDEST JUMPDEST SWAP1 POP PUSH0 DUP1 DUP4 PUSH1 0x7 SIGNEXTEND SLT PUSH2 0x2299 JUMPI DUP3 PUSH2 0x22A4 JUMP JUMPDEST DUP3 PUSH2 0x22A3 SWAP1 PUSH2 0x43B1 JUMP JUMPDEST JUMPDEST SWAP1 POP PUSH0 DUP2 PUSH8 0xFFFFFFFFFFFFFFFF AND DUP3 PUSH8 0xFFFFFFFFFFFFFFFF AND PUSH2 0x22C7 SWAP2 SWAP1 PUSH2 0x43F7 JUMP JUMPDEST DUP4 PUSH8 0xFFFFFFFFFFFFFFFF AND DUP5 PUSH8 0xFFFFFFFFFFFFFFFF AND PUSH2 0x22E7 SWAP2 SWAP1 PUSH2 0x43F7 JUMP JUMPDEST PUSH2 0x22F1 SWAP2 SWAP1 PUSH2 0x40C2 JUMP JUMPDEST SWAP1 POP PUSH3 0x1B198 DUP2 PUSH2 0x2302 SWAP2 SWAP1 PUSH2 0x43F7 JUMP JUMPDEST SWAP6 POP POP POP POP POP POP SWAP3 SWAP2 POP POP JUMP JUMPDEST PUSH0 DUP1 PUSH1 0xE SLOAD PUSH1 0xE SLOAD DUP6 PUSH2 0x2322 SWAP2 SWAP1 PUSH2 0x40C2 JUMP JUMPDEST PUSH2 0x232C SWAP2 SWAP1 PUSH2 0x43F7 JUMP JUMPDEST PUSH1 0xD SLOAD DUP6 DUP7 PUSH2 0x233B SWAP2 SWAP1 PUSH2 0x43F7 JUMP JUMPDEST PUSH2 0x2345 SWAP2 SWAP1 PUSH2 0x43F7 JUMP JUMPDEST PUSH2 0x234F SWAP2 SWAP1 PUSH2 0x4465 JUMP JUMPDEST SWAP1 POP PUSH0 PUSH1 0xF SLOAD DUP5 PUSH2 0x2360 SWAP2 SWAP1 PUSH2 0x4465 JUMP JUMPDEST SWAP1 POP DUP1 DUP3 PUSH2 0x236E SWAP2 SWAP1 PUSH2 0x40C2 JUMP JUMPDEST SWAP3 POP POP POP SWAP3 SWAP2 POP POP JUMP JUMPDEST PUSH0 DUP1 DUP5 PUSH0 ADD MLOAD DUP5 PUSH0 ADD MLOAD PUSH2 0x238C SWAP2 SWAP1 PUSH2 0x4352 JUMP JUMPDEST SWAP1 POP PUSH0 DUP6 PUSH1 0x20 ADD MLOAD DUP6 PUSH1 0x20 ADD MLOAD PUSH2 0x23A3 SWAP2 SWAP1 PUSH2 0x4352 JUMP JUMPDEST SWAP1 POP PUSH0 DUP1 DUP4 PUSH1 0x7 SIGNEXTEND SLT PUSH2 0x23B6 JUMPI DUP3 PUSH2 0x23C1 JUMP JUMPDEST DUP3 PUSH2 0x23C0 SWAP1 PUSH2 0x43B1 JUMP JUMPDEST JUMPDEST SWAP1 POP PUSH0 DUP1 DUP4 PUSH1 0x7 SIGNEXTEND SLT PUSH2 0x23D4 JUMPI DUP3 PUSH2 0x23DF JUMP JUMPDEST DUP3 PUSH2 0x23DE SWAP1 PUSH2 0x43B1 JUMP JUMPDEST JUMPDEST SWAP1 POP PUSH0 DUP2 PUSH8 0xFFFFFFFFFFFFFFFF AND DUP3 PUSH8 0xFFFFFFFFFFFFFFFF AND PUSH2 0x2402 SWAP2 SWAP1 PUSH2 0x43F7 JUMP JUMPDEST DUP4 PUSH8 0xFFFFFFFFFFFFFFFF AND DUP5 PUSH8 0xFFFFFFFFFFFFFFFF AND PUSH2 0x2422 SWAP2 SWAP1 PUSH2 0x43F7 JUMP JUMPDEST PUSH2 0x242C SWAP2 SWAP1 PUSH2 0x40C2 JUMP JUMPDEST SWAP1 POP PUSH0 PUSH3 0x1B198 DUP3 PUSH2 0x243E SWAP2 SWAP1 PUSH2 0x43F7 JUMP JUMPDEST SWAP1 POP PUSH0 PUSH1 0x64 PUSH1 0x8 PUSH0 DUP15 DUP2 MSTORE PUSH1 0x20 ADD SWAP1 DUP2 MSTORE PUSH1 0x20 ADD PUSH0 KECCAK256 PUSH1 0x7 ADD SLOAD DUP4 PUSH2 0x2463 SWAP2 SWAP1 PUSH2 0x43F7 JUMP JUMPDEST PUSH2 0x246D SWAP2 SWAP1 PUSH2 0x4465 JUMP JUMPDEST SWAP1 POP PUSH0 DUP10 PUSH2 0x2710 PUSH2 0x247E SWAP2 SWAP1 PUSH2 0x40C2 JUMP JUMPDEST SWAP1 POP PUSH0 PUSH2 0x2710 DUP3 DUP5 PUSH2 0x2490 SWAP2 SWAP1 PUSH2 0x43F7 JUMP JUMPDEST PUSH2 0x249A SWAP2 SWAP1 PUSH2 0x4465 JUMP JUMPDEST SWAP1 POP DUP1 SWAP10 POP POP POP POP POP POP POP POP POP POP SWAP5 SWAP4 POP POP POP POP JUMP JUMPDEST PUSH0 PUSH1 0x6 PUSH0 SWAP1 SLOAD SWAP1 PUSH2 0x100 EXP SWAP1 DIV PUSH20 0xFFFFFFFFFFFFFFFFFFFFFFFFFFFFFFFFFFFFFFFF AND SWAP1 POP DUP2 PUSH1 0x6 PUSH0 PUSH2 0x100 EXP DUP2 SLOAD DUP2 PUSH20 0xFFFFFFFFFFFFFFFFFFFFFFFFFFFFFFFFFFFFFFFF MUL NOT AND SWAP1 DUP4 PUSH20 0xFFFFFFFFFFFFFFFFFFFFFFFFFFFFFFFFFFFFFFFF AND MUL OR SWAP1 SSTORE POP DUP2 PUSH20 0xFFFFFFFFFFFFFFFFFFFFFFFFFFFFFFFFFFFFFFFF AND DUP2 PUSH20 0xFFFFFFFFFFFFFFFFFFFFFFFFFFFFFFFFFFFFFFFF AND PUSH32 0x8BE0079C531659141344CD1FD0A4F28419497F9722A3DAAFE3B4186F6B6457E0 PUSH1 0x40 MLOAD PUSH1 0x40 MLOAD DUP1 SWAP2 SUB SWAP1 LOG3 POP POP JUMP JUMPDEST PUSH2 0x257B PUSH2 0x2025 JUMP JUMPDEST PUSH1 0x1 PUSH1 0x6 PUSH1 0x14 PUSH2 0x100 EXP DUP2 SLOAD DUP2 PUSH1 0xFF MUL NOT AND SWAP1 DUP4 ISZERO ISZERO MUL OR SWAP1 SSTORE POP PUSH32 0x62E78CEA01BEE320CD4E420270B5EA74000D11B0C9F74754EBDBFC544B05A258 PUSH2 0x25BF PUSH2 0x2118 JUMP JUMPDEST PUSH1 0x40 MLOAD PUSH2 0x25CC SWAP2 SWAP1 PUSH2 0x3478 JUMP JUMPDEST PUSH1 0x40 MLOAD DUP1 SWAP2 SUB SWAP1 LOG1 JUMP JUMPDEST PUSH0 DUP1 DUP3 PUSH0 ADD MLOAD DUP5 PUSH0 ADD MLOAD PUSH2 0x25EA SWAP2 SWAP1 PUSH2 0x4352 JUMP JUMPDEST SWAP1 POP PUSH0 DUP4 PUSH1 0x20 ADD MLOAD DUP6 PUSH1 0x20 ADD MLOAD PUSH2 0x2601 SWAP2 SWAP1 PUSH2 0x4352 JUMP JUMPDEST SWAP1 POP PUSH0 DUP1 DUP4 PUSH1 0x7 SIGNEXTEND SLT PUSH2 0x2614 JUMPI DUP3 PUSH2 0x261F JUMP JUMPDEST DUP3 PUSH2 0x261E SWAP1 PUSH2 0x43B1 JUMP JUMPDEST JUMPDEST SWAP1 POP PUSH0 DUP1 DUP4 PUSH1 0x7 SIGNEXTEND SLT PUSH2 0x2632 JUMPI DUP3 PUSH2 0x263D JUMP JUMPDEST DUP3 PUSH2 0x263C SWAP1 PUSH2 0x43B1 JUMP JUMPDEST JUMPDEST SWAP1 POP PUSH0 DUP2 PUSH8 0xFFFFFFFFFFFFFFFF AND DUP3 PUSH8 0xFFFFFFFFFFFFFFFF AND PUSH2 0x2660 SWAP2 SWAP1 PUSH2 0x43F7 JUMP JUMPDEST DUP4 PUSH8 0xFFFFFFFFFFFFFFFF AND DUP5 PUSH8 0xFFFFFFFFFFFFFFFF AND PUSH2 0x2680 SWAP2 SWAP1 PUSH2 0x43F7 JUMP JUMPDEST PUSH2 0x268A SWAP2 SWAP1 PUSH2 0x40C2 JUMP JUMPDEST SWAP1 POP PUSH3 0x1B198 DUP1 DUP3 PUSH2 0x269C SWAP2 SWAP1 PUSH2 0x43F7 JUMP JUMPDEST PUSH2 0x26A6 SWAP2 SWAP1 PUSH2 0x43F7 JUMP JUMPDEST SWAP1 POP PUSH1 0x64 DUP2 GT ISZERO SWAP6 POP POP POP POP POP POP SWAP3 SWAP2 POP POP JUMP JUMPDEST PUSH0 DUP4 PUSH20 0xFFFFFFFFFFFFFFFFFFFFFFFFFFFFFFFFFFFFFFFF AND EXTCODESIZE GT ISZERO PUSH2 0x285F JUMPI DUP3 PUSH20 0xFFFFFFFFFFFFFFFFFFFFFFFFFFFFFFFFFFFFFFFF AND PUSH4 0x150B7A02 DUP7 DUP7 DUP6 DUP6 PUSH1 0x40 MLOAD DUP6 PUSH4 0xFFFFFFFF AND PUSH1 0xE0 SHL DUP2 MSTORE PUSH1 0x4 ADD PUSH2 0x2718 SWAP5 SWAP4 SWAP3 SWAP2 SWAP1 PUSH2 0x44E7 JUMP JUMPDEST PUSH1 0x20 PUSH1 0x40 MLOAD DUP1 DUP4 SUB DUP2 PUSH0 DUP8 GAS CALL SWAP3 POP POP POP DUP1 ISZERO PUSH2 0x2753 JUMPI POP PUSH1 0x40 MLOAD RETURNDATASIZE PUSH1 0x1F NOT PUSH1 0x1F DUP3 ADD AND DUP3 ADD DUP1 PUSH1 0x40 MSTORE POP DUP2 ADD SWAP1 PUSH2 0x2750 SWAP2 SWAP1 PUSH2 0x4545 JUMP JUMPDEST PUSH1 0x1 JUMPDEST PUSH2 0x27D4 JUMPI RETURNDATASIZE DUP1 PUSH0 DUP2 EQ PUSH2 0x2781 JUMPI PUSH1 0x40 MLOAD SWAP2 POP PUSH1 0x1F NOT PUSH1 0x3F RETURNDATASIZE ADD AND DUP3 ADD PUSH1 0x40 MSTORE RETURNDATASIZE DUP3 MSTORE RETURNDATASIZE PUSH0 PUSH1 0x20 DUP5 ADD RETURNDATACOPY PUSH2 0x2786 JUMP JUMPDEST PUSH1 0x60 SWAP2 POP JUMPDEST POP PUSH0 DUP2 MLOAD SUB PUSH2 0x27CC JUMPI DUP4 PUSH1 0x40 MLOAD PUSH32 0x64A0AE9200000000000000000000000000000000000000000000000000000000 DUP2 MSTORE PUSH1 0x4 ADD PUSH2 0x27C3 SWAP2 SWAP1 PUSH2 0x3478 JUMP JUMPDEST PUSH1 0x40 MLOAD DUP1 SWAP2 SUB SWAP1 REVERT JUMPDEST DUP1 MLOAD DUP2 PUSH1 0x20 ADD REVERT JUMPDEST PUSH4 0x150B7A02 PUSH1 0xE0 SHL PUSH28 0xFFFFFFFFFFFFFFFFFFFFFFFFFFFFFFFFFFFFFFFFFFFFFFFFFFFFFFFF NOT AND DUP2 PUSH28 0xFFFFFFFFFFFFFFFFFFFFFFFFFFFFFFFFFFFFFFFFFFFFFFFFFFFFFFFF NOT AND EQ PUSH2 0x285D JUMPI DUP4 PUSH1 0x40 MLOAD PUSH32 0x64A0AE9200000000000000000000000000000000000000000000000000000000 DUP2 MSTORE PUSH1 0x4 ADD PUSH2 0x2854 SWAP2 SWAP1 PUSH2 0x3478 JUMP JUMPDEST PUSH1 0x40 MLOAD DUP1 SWAP2 SUB SWAP1 REVERT JUMPDEST POP JUMPDEST POP POP POP POP POP JUMP JUMPDEST PUSH1 0x60 PUSH1 0x40 MLOAD DUP1 PUSH1 0x20 ADD PUSH1 0x40 MSTORE DUP1 PUSH0 DUP2 MSTORE POP SWAP1 POP SWAP1 JUMP JUMPDEST PUSH1 0x60 PUSH0 PUSH1 0x1 PUSH2 0x288A DUP5 PUSH2 0x2BF6 JUMP JUMPDEST ADD SWAP1 POP PUSH0 DUP2 PUSH8 0xFFFFFFFFFFFFFFFF DUP2 GT ISZERO PUSH2 0x28A8 JUMPI PUSH2 0x28A7 PUSH2 0x379D JUMP JUMPDEST JUMPDEST PUSH1 0x40 MLOAD SWAP1 DUP1 DUP3 MSTORE DUP1 PUSH1 0x1F ADD PUSH1 0x1F NOT AND PUSH1 0x20 ADD DUP3 ADD PUSH1 0x40 MSTORE DUP1 ISZERO PUSH2 0x28DA JUMPI DUP2 PUSH1 0x20 ADD PUSH1 0x1 DUP3 MUL DUP1 CALLDATASIZE DUP4 CALLDATACOPY DUP1 DUP3 ADD SWAP2 POP POP SWAP1 POP JUMPDEST POP SWAP1 POP PUSH0 DUP3 PUSH1 0x20 ADD DUP3 ADD SWAP1 POP JUMPDEST PUSH1 0x1 ISZERO PUSH2 0x293B JUMPI DUP1 DUP1 PUSH1 0x1 SWAP1 SUB SWAP2 POP POP PUSH32 0x3031323334353637383961626364656600000000000000000000000000000000 PUSH1 0xA DUP7 MOD BYTE DUP2 MSTORE8 PUSH1 0xA DUP6 DUP2 PUSH2 0x2930 JUMPI PUSH2 0x292F PUSH2 0x4438 JUMP JUMPDEST JUMPDEST DIV SWAP5 POP PUSH0 DUP6 SUB PUSH2 0x28E7 JUMPI JUMPDEST DUP2 SWAP4 POP POP POP POP SWAP2 SWAP1 POP JUMP JUMPDEST PUSH0 PUSH1 0x2 PUSH0 DUP4 DUP2 MSTORE PUSH1 0x20 ADD SWAP1 DUP2 MSTORE PUSH1 0x20 ADD PUSH0 KECCAK256 PUSH0 SWAP1 SLOAD SWAP1 PUSH2 0x100 EXP SWAP1 DIV PUSH20 0xFFFFFFFFFFFFFFFFFFFFFFFFFFFFFFFFFFFFFFFF AND SWAP1 POP SWAP2 SWAP1 POP JUMP JUMPDEST PUSH0 DUP1 PUSH2 0x298A DUP5 PUSH2 0x2946 JUMP JUMPDEST SWAP1 POP PUSH0 PUSH20 0xFFFFFFFFFFFFFFFFFFFFFFFFFFFFFFFFFFFFFFFF AND DUP4 PUSH20 0xFFFFFFFFFFFFFFFFFFFFFFFFFFFFFFFFFFFFFFFF AND EQ PUSH2 0x29CB JUMPI PUSH2 0x29CA DUP2 DUP5 DUP7 PUSH2 0x2D47 JUMP JUMPDEST JUMPDEST PUSH0 PUSH20 0xFFFFFFFFFFFFFFFFFFFFFFFFFFFFFFFFFFFFFFFF AND DUP2 PUSH20 0xFFFFFFFFFFFFFFFFFFFFFFFFFFFFFFFFFFFFFFFF AND EQ PUSH2 0x2A56 JUMPI PUSH2 0x2A0A PUSH0 DUP6 PUSH0 DUP1 PUSH2 0x2E0A JUMP JUMPDEST PUSH1 0x1 PUSH1 0x3 PUSH0 DUP4 PUSH20 0xFFFFFFFFFFFFFFFFFFFFFFFFFFFFFFFFFFFFFFFF AND PUSH20 0xFFFFFFFFFFFFFFFFFFFFFFFFFFFFFFFFFFFFFFFF AND DUP2 MSTORE PUSH1 0x20 ADD SWAP1 DUP2 MSTORE PUSH1 0x20 ADD PUSH0 KECCAK256 PUSH0 DUP3 DUP3 SLOAD SUB SWAP3 POP POP DUP2 SWAP1 SSTORE POP JUMPDEST PUSH0 PUSH20 0xFFFFFFFFFFFFFFFFFFFFFFFFFFFFFFFFFFFFFFFF AND DUP6 PUSH20 0xFFFFFFFFFFFFFFFFFFFFFFFFFFFFFFFFFFFFFFFF AND EQ PUSH2 0x2AD5 JUMPI PUSH1 0x1 PUSH1 0x3 PUSH0 DUP8 PUSH20 0xFFFFFFFFFFFFFFFFFFFFFFFFFFFFFFFFFFFFFFFF AND PUSH20 0xFFFFFFFFFFFFFFFFFFFFFFFFFFFFFFFFFFFFFFFF AND DUP2 MSTORE PUSH1 0x20 ADD SWAP1 DUP2 MSTORE PUSH1 0x20 ADD PUSH0 KECCAK256 PUSH0 DUP3 DUP3 SLOAD ADD SWAP3 POP POP DUP2 SWAP1 SSTORE POP JUMPDEST DUP5 PUSH1 0x2 PUSH0 DUP7 DUP2 MSTORE PUSH1 0x20 ADD SWAP1 DUP2 MSTORE PUSH1 0x20 ADD PUSH0 KECCAK256 PUSH0 PUSH2 0x100 EXP DUP2 SLOAD DUP2 PUSH20 0xFFFFFFFFFFFFFFFFFFFFFFFFFFFFFFFFFFFFFFFF MUL NOT AND SWAP1 DUP4 PUSH20 0xFFFFFFFFFFFFFFFFFFFFFFFFFFFFFFFFFFFFFFFF AND MUL OR SWAP1 SSTORE POP DUP4 DUP6 PUSH20 0xFFFFFFFFFFFFFFFFFFFFFFFFFFFFFFFFFFFFFFFF AND DUP3 PUSH20 0xFFFFFFFFFFFFFFFFFFFFFFFFFFFFFFFFFFFFFFFF AND PUSH32 0xDDF252AD1BE2C89B69C2B068FC378DAA952BA7F163C4A11628F55A4DF523B3EF PUSH1 0x40 MLOAD PUSH1 0x40 MLOAD DUP1 SWAP2 SUB SWAP1 LOG4 DUP1 SWAP2 POP POP SWAP4 SWAP3 POP POP POP JUMP JUMPDEST PUSH2 0x2B92 PUSH2 0xF2E JUMP JUMPDEST PUSH2 0x2BD1 JUMPI PUSH1 0x40 MLOAD PUSH32 0x8C379A000000000000000000000000000000000000000000000000000000000 DUP2 MSTORE PUSH1 0x4 ADD PUSH2 0x2BC8 SWAP1 PUSH2 0x45BA JUMP JUMPDEST PUSH1 0x40 MLOAD DUP1 SWAP2 SUB SWAP1 REVERT JUMPDEST JUMP JUMPDEST PUSH2 0x2BDD DUP4 DUP4 PUSH2 0x2FC9 JUMP JUMPDEST PUSH2 0x2BF1 PUSH2 0x2BE8 PUSH2 0x2118 JUMP JUMPDEST PUSH0 DUP6 DUP6 DUP6 PUSH2 0x26BA JUMP JUMPDEST POP POP POP JUMP JUMPDEST PUSH0 DUP1 PUSH0 SWAP1 POP PUSH27 0x184F03E93FF9F4DAA797ED6E38ED64BF6A1F010000000000000000 DUP4 LT PUSH2 0x2C52 JUMPI PUSH27 0x184F03E93FF9F4DAA797ED6E38ED64BF6A1F010000000000000000 DUP4 DUP2 PUSH2 0x2C48 JUMPI PUSH2 0x2C47 PUSH2 0x4438 JUMP JUMPDEST JUMPDEST DIV SWAP3 POP PUSH1 0x40 DUP2 ADD SWAP1 POP JUMPDEST PUSH14 0x4EE2D6D415B85ACEF8100000000 DUP4 LT PUSH2 0x2C8F JUMPI PUSH14 0x4EE2D6D415B85ACEF8100000000 DUP4 DUP2 PUSH2 0x2C85 JUMPI PUSH2 0x2C84 PUSH2 0x4438 JUMP JUMPDEST JUMPDEST DIV SWAP3 POP PUSH1 0x20 DUP2 ADD SWAP1 POP JUMPDEST PUSH7 0x2386F26FC10000 DUP4 LT PUSH2 0x2CBE JUMPI PUSH7 0x2386F26FC10000 DUP4 DUP2 PUSH2 0x2CB4 JUMPI PUSH2 0x2CB3 PUSH2 0x4438 JUMP JUMPDEST JUMPDEST DIV SWAP3 POP PUSH1 0x10 DUP2 ADD SWAP1 POP JUMPDEST PUSH4 0x5F5E100 DUP4 LT PUSH2 0x2CE7 JUMPI PUSH4 0x5F5E100 DUP4 DUP2 PUSH2 0x2CDD JUMPI PUSH2 0x2CDC PUSH2 0x4438 JUMP JUMPDEST JUMPDEST DIV SWAP3 POP PUSH1 0x8 DUP2 ADD SWAP1 POP JUMPDEST PUSH2 0x2710 DUP4 LT PUSH2 0x2D0C JUMPI PUSH2 0x2710 DUP4 DUP2 PUSH2 0x2D02 JUMPI PUSH2 0x2D01 PUSH2 0x4438 JUMP JUMPDEST JUMPDEST DIV SWAP3 POP PUSH1 0x4 DUP2 ADD SWAP1 POP JUMPDEST PUSH1 0x64 DUP4 LT PUSH2 0x2D2F JUMPI PUSH1 0x64 DUP4 DUP2 PUSH2 0x2D25 JUMPI PUSH2 0x2D24 PUSH2 0x4438 JUMP JUMPDEST JUMPDEST DIV SWAP3 POP PUSH1 0x2 DUP2 ADD SWAP1 POP JUMPDEST PUSH1 0xA DUP4 LT PUSH2 0x2D3E JUMPI PUSH1 0x1 DUP2 ADD SWAP1 POP JUMPDEST DUP1 SWAP2 POP POP SWAP2 SWAP1 POP JUMP JUMPDEST PUSH2 0x2D52 DUP4 DUP4 DUP4 PUSH2 0x30BC JUMP JUMPDEST PUSH2 0x2E05 JUMPI PUSH0 PUSH20 0xFFFFFFFFFFFFFFFFFFFFFFFFFFFFFFFFFFFFFFFF AND DUP4 PUSH20 0xFFFFFFFFFFFFFFFFFFFFFFFFFFFFFFFFFFFFFFFF AND SUB PUSH2 0x2DC6 JUMPI DUP1 PUSH1 0x40 MLOAD PUSH32 0x7E27328900000000000000000000000000000000000000000000000000000000 DUP2 MSTORE PUSH1 0x4 ADD PUSH2 0x2DBD SWAP2 SWAP1 PUSH2 0x34DE JUMP JUMPDEST PUSH1 0x40 MLOAD DUP1 SWAP2 SUB SWAP1 REVERT JUMPDEST DUP2 DUP2 PUSH1 0x40 MLOAD PUSH32 0x177E802F00000000000000000000000000000000000000000000000000000000 DUP2 MSTORE PUSH1 0x4 ADD PUSH2 0x2DFC SWAP3 SWAP2 SWAP1 PUSH2 0x45D8 JUMP JUMPDEST PUSH1 0x40 MLOAD DUP1 SWAP2 SUB SWAP1 REVERT JUMPDEST POP POP POP JUMP JUMPDEST DUP1 DUP1 PUSH2 0x2E42 JUMPI POP PUSH0 PUSH20 0xFFFFFFFFFFFFFFFFFFFFFFFFFFFFFFFFFFFFFFFF AND DUP3 PUSH20 0xFFFFFFFFFFFFFFFFFFFFFFFFFFFFFFFFFFFFFFFF AND EQ ISZERO JUMPDEST ISZERO PUSH2 0x2F74 JUMPI PUSH0 PUSH2 0x2E51 DUP5 PUSH2 0x1EDF JUMP JUMPDEST SWAP1 POP PUSH0 PUSH20 0xFFFFFFFFFFFFFFFFFFFFFFFFFFFFFFFFFFFFFFFF AND DUP4 PUSH20 0xFFFFFFFFFFFFFFFFFFFFFFFFFFFFFFFFFFFFFFFF AND EQ ISZERO DUP1 ISZERO PUSH2 0x2EBB JUMPI POP DUP3 PUSH20 0xFFFFFFFFFFFFFFFFFFFFFFFFFFFFFFFFFFFFFFFF AND DUP2 PUSH20 0xFFFFFFFFFFFFFFFFFFFFFFFFFFFFFFFFFFFFFFFF AND EQ ISZERO JUMPDEST DUP1 ISZERO PUSH2 0x2ECE JUMPI POP PUSH2 0x2ECC DUP2 DUP5 PUSH2 0x1D64 JUMP JUMPDEST ISZERO JUMPDEST ISZERO PUSH2 0x2F10 JUMPI DUP3 PUSH1 0x40 MLOAD PUSH32 0xA9FBF51F00000000000000000000000000000000000000000000000000000000 DUP2 MSTORE PUSH1 0x4 ADD PUSH2 0x2F07 SWAP2 SWAP1 PUSH2 0x3478 JUMP JUMPDEST PUSH1 0x40 MLOAD DUP1 SWAP2 SUB SWAP1 REVERT JUMPDEST DUP2 ISZERO PUSH2 0x2F72 JUMPI DUP4 DUP6 PUSH20 0xFFFFFFFFFFFFFFFFFFFFFFFFFFFFFFFFFFFFFFFF AND DUP3 PUSH20 0xFFFFFFFFFFFFFFFFFFFFFFFFFFFFFFFFFFFFFFFF AND PUSH32 0x8C5BE1E5EBEC7D5BD14F71427D1E84F3DD0314C0F7B2291E5B200AC8C7C3B925 PUSH1 0x40 MLOAD PUSH1 0x40 MLOAD DUP1 SWAP2 SUB SWAP1 LOG4 JUMPDEST POP JUMPDEST DUP4 PUSH1 0x4 PUSH0 DUP6 DUP2 MSTORE PUSH1 0x20 ADD SWAP1 DUP2 MSTORE PUSH1 0x20 ADD PUSH0 KECCAK256 PUSH0 PUSH2 0x100 EXP DUP2 SLOAD DUP2 PUSH20 0xFFFFFFFFFFFFFFFFFFFFFFFFFFFFFFFFFFFFFFFF MUL NOT AND SWAP1 DUP4 PUSH20 0xFFFFFFFFFFFFFFFFFFFFFFFFFFFFFFFFFFFFFFFF AND MUL OR SWAP1 SSTORE POP POP POP POP POP JUMP JUMPDEST PUSH0 PUSH20 0xFFFFFFFFFFFFFFFFFFFFFFFFFFFFFFFFFFFFFFFF AND DUP3 PUSH20 0xFFFFFFFFFFFFFFFFFFFFFFFFFFFFFFFFFFFFFFFF AND SUB PUSH2 0x3039 JUMPI PUSH0 PUSH1 0x40 MLOAD PUSH32 0x64A0AE9200000000000000000000000000000000000000000000000000000000 DUP2 MSTORE PUSH1 0x4 ADD PUSH2 0x3030 SWAP2 SWAP1 PUSH2 0x3478 JUMP JUMPDEST PUSH1 0x40 MLOAD DUP1 SWAP2 SUB SWAP1 REVERT JUMPDEST PUSH0 PUSH2 0x3045 DUP4 DUP4 PUSH0 PUSH2 0x211F JUMP JUMPDEST SWAP1 POP PUSH0 PUSH20 0xFFFFFFFFFFFFFFFFFFFFFFFFFFFFFFFFFFFFFFFF AND DUP2 PUSH20 0xFFFFFFFFFFFFFFFFFFFFFFFFFFFFFFFFFFFFFFFF AND EQ PUSH2 0x30B7 JUMPI PUSH0 PUSH1 0x40 MLOAD PUSH32 0x73C6AC6E00000000000000000000000000000000000000000000000000000000 DUP2 MSTORE PUSH1 0x4 ADD PUSH2 0x30AE SWAP2 SWAP1 PUSH2 0x3478 JUMP JUMPDEST PUSH1 0x40 MLOAD DUP1 SWAP2 SUB SWAP1 REVERT JUMPDEST POP POP POP JUMP JUMPDEST PUSH0 DUP1 PUSH20 0xFFFFFFFFFFFFFFFFFFFFFFFFFFFFFFFFFFFFFFFF AND DUP4 PUSH20 0xFFFFFFFFFFFFFFFFFFFFFFFFFFFFFFFFFFFFFFFF AND EQ ISZERO DUP1 ISZERO PUSH2 0x3173 JUMPI POP DUP3 PUSH20 0xFFFFFFFFFFFFFFFFFFFFFFFFFFFFFFFFFFFFFFFF AND DUP5 PUSH20 0xFFFFFFFFFFFFFFFFFFFFFFFFFFFFFFFFFFFFFFFF AND EQ DUP1 PUSH2 0x3134 JUMPI POP PUSH2 0x3133 DUP5 DUP5 PUSH2 0x1D64 JUMP JUMPDEST JUMPDEST DUP1 PUSH2 0x3172 JUMPI POP DUP3 PUSH20 0xFFFFFFFFFFFFFFFFFFFFFFFFFFFFFFFFFFFFFFFF AND PUSH2 0x315A DUP4 PUSH2 0x1F65 JUMP JUMPDEST PUSH20 0xFFFFFFFFFFFFFFFFFFFFFFFFFFFFFFFFFFFFFFFF AND EQ JUMPDEST JUMPDEST SWAP1 POP SWAP4 SWAP3 POP POP POP JUMP JUMPDEST PUSH0 PUSH1 0x40 MLOAD SWAP1 POP SWAP1 JUMP JUMPDEST PUSH0 DUP1 REVERT JUMPDEST PUSH0 DUP1 REVERT JUMPDEST PUSH0 PUSH32 0xFFFFFFFF00000000000000000000000000000000000000000000000000000000 DUP3 AND SWAP1 POP SWAP2 SWAP1 POP JUMP JUMPDEST PUSH2 0x31C1 DUP2 PUSH2 0x318D JUMP JUMPDEST DUP2 EQ PUSH2 0x31CB JUMPI PUSH0 DUP1 REVERT JUMPDEST POP JUMP JUMPDEST PUSH0 DUP2 CALLDATALOAD SWAP1 POP PUSH2 0x31DC DUP2 PUSH2 0x31B8 JUMP JUMPDEST SWAP3 SWAP2 POP POP JUMP JUMPDEST PUSH0 PUSH1 0x20 DUP3 DUP5 SUB SLT ISZERO PUSH2 0x31F7 JUMPI PUSH2 0x31F6 PUSH2 0x3185 JUMP JUMPDEST JUMPDEST PUSH0 PUSH2 0x3204 DUP5 DUP3 DUP6 ADD PUSH2 0x31CE JUMP JUMPDEST SWAP2 POP POP SWAP3 SWAP2 POP POP JUMP JUMPDEST PUSH0 DUP2 ISZERO ISZERO SWAP1 POP SWAP2 SWAP1 POP JUMP JUMPDEST PUSH2 0x3221 DUP2 PUSH2 0x320D JUMP JUMPDEST DUP3 MSTORE POP POP JUMP JUMPDEST PUSH0 PUSH1 0x20 DUP3 ADD SWAP1 POP PUSH2 0x323A PUSH0 DUP4 ADD DUP5 PUSH2 0x3218 JUMP JUMPDEST SWAP3 SWAP2 POP POP JUMP JUMPDEST PUSH0 DUP2 MLOAD SWAP1 POP SWAP2 SWAP1 POP JUMP JUMPDEST PUSH0 DUP3 DUP3 MSTORE PUSH1 0x20 DUP3 ADD SWAP1 POP SWAP3 SWAP2 POP POP JUMP JUMPDEST DUP3 DUP2 DUP4 MCOPY PUSH0 DUP4 DUP4 ADD MSTORE POP POP POP JUMP JUMPDEST PUSH0 PUSH1 0x1F NOT PUSH1 0x1F DUP4 ADD AND SWAP1 POP SWAP2 SWAP1 POP JUMP JUMPDEST PUSH0 PUSH2 0x3282 DUP3 PUSH2 0x3240 JUMP JUMPDEST PUSH2 0x328C DUP2 DUP6 PUSH2 0x324A JUMP JUMPDEST SWAP4 POP PUSH2 0x329C DUP2 DUP6 PUSH1 0x20 DUP7 ADD PUSH2 0x325A JUMP JUMPDEST PUSH2 0x32A5 DUP2 PUSH2 0x3268 JUMP JUMPDEST DUP5 ADD SWAP2 POP POP SWAP3 SWAP2 POP POP JUMP JUMPDEST PUSH0 PUSH1 0x20 DUP3 ADD SWAP1 POP DUP2 DUP2 SUB PUSH0 DUP4 ADD MSTORE PUSH2 0x32C8 DUP2 DUP5 PUSH2 0x3278 JUMP JUMPDEST SWAP1 POP SWAP3 SWAP2 POP POP JUMP JUMPDEST PUSH0 DUP2 SWAP1 POP SWAP2 SWAP1 POP JUMP JUMPDEST PUSH2 0x32E2 DUP2 PUSH2 0x32D0 JUMP JUMPDEST DUP2 EQ PUSH2 0x32EC JUMPI PUSH0 DUP1 REVERT JUMPDEST POP JUMP JUMPDEST PUSH0 DUP2 CALLDATALOAD SWAP1 POP PUSH2 0x32FD DUP2 PUSH2 0x32D9 JUMP JUMPDEST SWAP3 SWAP2 POP POP JUMP JUMPDEST PUSH0 PUSH20 0xFFFFFFFFFFFFFFFFFFFFFFFFFFFFFFFFFFFFFFFF DUP3 AND SWAP1 POP SWAP2 SWAP1 POP JUMP JUMPDEST PUSH0 PUSH2 0x332C DUP3 PUSH2 0x3303 JUMP JUMPDEST SWAP1 POP SWAP2 SWAP1 POP JUMP JUMPDEST PUSH2 0x333C DUP2 PUSH2 0x3322 JUMP JUMPDEST DUP2 EQ PUSH2 0x3346 JUMPI PUSH0 DUP1 REVERT JUMPDEST POP JUMP JUMPDEST PUSH0 DUP2 CALLDATALOAD SWAP1 POP PUSH2 0x3357 DUP2 PUSH2 0x3333 JUMP JUMPDEST SWAP3 SWAP2 POP POP JUMP JUMPDEST PUSH0 DUP1 REVERT JUMPDEST PUSH0 PUSH1 0x60 DUP3 DUP5 SUB SLT ISZERO PUSH2 0x3376 JUMPI PUSH2 0x3375 PUSH2 0x335D JUMP JUMPDEST JUMPDEST DUP2 SWAP1 POP SWAP3 SWAP2 POP POP JUMP JUMPDEST PUSH0 DUP2 SWAP1 POP SWAP2 SWAP1 POP JUMP JUMPDEST PUSH2 0x3391 DUP2 PUSH2 0x337F JUMP JUMPDEST DUP2 EQ PUSH2 0x339B JUMPI PUSH0 DUP1 REVERT JUMPDEST POP JUMP JUMPDEST PUSH0 DUP2 CALLDATALOAD SWAP1 POP PUSH2 0x33AC DUP2 PUSH2 0x3388 JUMP JUMPDEST SWAP3 SWAP2 POP POP JUMP JUMPDEST PUSH0 DUP1 PUSH0 DUP1 PUSH0 DUP1 PUSH2 0x140 DUP8 DUP10 SUB SLT ISZERO PUSH2 0x33CD JUMPI PUSH2 0x33CC PUSH2 0x3185 JUMP JUMPDEST JUMPDEST PUSH0 PUSH2 0x33DA DUP10 DUP3 DUP11 ADD PUSH2 0x32EF JUMP JUMPDEST SWAP7 POP POP PUSH1 0x20 PUSH2 0x33EB DUP10 DUP3 DUP11 ADD PUSH2 0x3349 JUMP JUMPDEST SWAP6 POP POP PUSH1 0x40 PUSH2 0x33FC DUP10 DUP3 DUP11 ADD PUSH2 0x3361 JUMP JUMPDEST SWAP5 POP POP PUSH1 0xA0 PUSH2 0x340D DUP10 DUP3 DUP11 ADD PUSH2 0x3361 JUMP JUMPDEST SWAP4 POP POP PUSH2 0x100 PUSH2 0x341F DUP10 DUP3 DUP11 ADD PUSH2 0x32EF JUMP JUMPDEST SWAP3 POP POP PUSH2 0x120 PUSH2 0x3431 DUP10 DUP3 DUP11 ADD PUSH2 0x339E JUMP JUMPDEST SWAP2 POP POP SWAP3 SWAP6 POP SWAP3 SWAP6 POP SWAP3 SWAP6 JUMP JUMPDEST PUSH0 PUSH1 0x20 DUP3 DUP5 SUB SLT ISZERO PUSH2 0x3453 JUMPI PUSH2 0x3452 PUSH2 0x3185 JUMP JUMPDEST JUMPDEST PUSH0 PUSH2 0x3460 DUP5 DUP3 DUP6 ADD PUSH2 0x32EF JUMP JUMPDEST SWAP2 POP POP SWAP3 SWAP2 POP POP JUMP JUMPDEST PUSH2 0x3472 DUP2 PUSH2 0x3322 JUMP JUMPDEST DUP3 MSTORE POP POP JUMP JUMPDEST PUSH0 PUSH1 0x20 DUP3 ADD SWAP1 POP PUSH2 0x348B PUSH0 DUP4 ADD DUP5 PUSH2 0x3469 JUMP JUMPDEST SWAP3 SWAP2 POP POP JUMP JUMPDEST PUSH0 DUP1 PUSH1 0x40 DUP4 DUP6 SUB SLT ISZERO PUSH2 0x34A7 JUMPI PUSH2 0x34A6 PUSH2 0x3185 JUMP JUMPDEST JUMPDEST PUSH0 PUSH2 0x34B4 DUP6 DUP3 DUP7 ADD PUSH2 0x3349 JUMP JUMPDEST SWAP3 POP POP PUSH1 0x20 PUSH2 0x34C5 DUP6 DUP3 DUP7 ADD PUSH2 0x32EF JUMP JUMPDEST SWAP2 POP POP SWAP3 POP SWAP3 SWAP1 POP JUMP JUMPDEST PUSH2 0x34D8 DUP2 PUSH2 0x32D0 JUMP JUMPDEST DUP3 MSTORE POP POP JUMP JUMPDEST PUSH0 PUSH1 0x20 DUP3 ADD SWAP1 POP PUSH2 0x34F1 PUSH0 DUP4 ADD DUP5 PUSH2 0x34CF JUMP JUMPDEST SWAP3 SWAP2 POP POP JUMP JUMPDEST PUSH0 DUP1 PUSH0 PUSH1 0x60 DUP5 DUP7 SUB SLT ISZERO PUSH2 0x350E JUMPI PUSH2 0x350D PUSH2 0x3185 JUMP JUMPDEST JUMPDEST PUSH0 PUSH2 0x351B DUP7 DUP3 DUP8 ADD PUSH2 0x32EF JUMP JUMPDEST SWAP4 POP POP PUSH1 0x20 PUSH2 0x352C DUP7 DUP3 DUP8 ADD PUSH2 0x32EF JUMP JUMPDEST SWAP3 POP POP PUSH1 0x40 PUSH2 0x353D DUP7 DUP3 DUP8 ADD PUSH2 0x32EF JUMP JUMPDEST SWAP2 POP POP SWAP3 POP SWAP3 POP SWAP3 JUMP JUMPDEST PUSH0 DUP1 PUSH1 0x80 DUP4 DUP6 SUB SLT ISZERO PUSH2 0x355D JUMPI PUSH2 0x355C PUSH2 0x3185 JUMP JUMPDEST JUMPDEST PUSH0 PUSH2 0x356A DUP6 DUP3 DUP7 ADD PUSH2 0x32EF JUMP JUMPDEST SWAP3 POP POP PUSH1 0x20 PUSH2 0x357B DUP6 DUP3 DUP7 ADD PUSH2 0x3361 JUMP JUMPDEST SWAP2 POP POP SWAP3 POP SWAP3 SWAP1 POP JUMP JUMPDEST PUSH0 DUP1 PUSH0 PUSH1 0x60 DUP5 DUP7 SUB SLT ISZERO PUSH2 0x359C JUMPI PUSH2 0x359B PUSH2 0x3185 JUMP JUMPDEST JUMPDEST PUSH0 PUSH2 0x35A9 DUP7 DUP3 DUP8 ADD PUSH2 0x3349 JUMP JUMPDEST SWAP4 POP POP PUSH1 0x20 PUSH2 0x35BA DUP7 DUP3 DUP8 ADD PUSH2 0x3349 JUMP JUMPDEST SWAP3 POP POP PUSH1 0x40 PUSH2 0x35CB DUP7 DUP3 DUP8 ADD PUSH2 0x32EF JUMP JUMPDEST SWAP2 POP POP SWAP3 POP SWAP3 POP SWAP3 JUMP JUMPDEST PUSH0 DUP2 SWAP1 POP SWAP2 SWAP1 POP JUMP JUMPDEST PUSH0 PUSH2 0x35F8 PUSH2 0x35F3 PUSH2 0x35EE DUP5 PUSH2 0x3303 JUMP JUMPDEST PUSH2 0x35D5 JUMP JUMPDEST PUSH2 0x3303 JUMP JUMPDEST SWAP1 POP SWAP2 SWAP1 POP JUMP JUMPDEST PUSH0 PUSH2 0x3609 DUP3 PUSH2 0x35DE JUMP JUMPDEST SWAP1 POP SWAP2 SWAP1 POP JUMP JUMPDEST PUSH0 PUSH2 0x361A DUP3 PUSH2 0x35FF JUMP JUMPDEST SWAP1 POP SWAP2 SWAP1 POP JUMP JUMPDEST PUSH2 0x362A DUP2 PUSH2 0x3610 JUMP JUMPDEST DUP3 MSTORE POP POP JUMP JUMPDEST PUSH0 PUSH1 0x20 DUP3 ADD SWAP1 POP PUSH2 0x3643 PUSH0 DUP4 ADD DUP5 PUSH2 0x3621 JUMP JUMPDEST SWAP3 SWAP2 POP POP JUMP JUMPDEST PUSH0 PUSH1 0x60 DUP3 DUP5 SUB SLT ISZERO PUSH2 0x365E JUMPI PUSH2 0x365D PUSH2 0x3185 JUMP JUMPDEST JUMPDEST PUSH0 PUSH2 0x366B DUP5 DUP3 DUP6 ADD PUSH2 0x3361 JUMP JUMPDEST SWAP2 POP POP SWAP3 SWAP2 POP POP JUMP JUMPDEST PUSH0 DUP1 PUSH0 PUSH1 0xA0 DUP5 DUP7 SUB SLT ISZERO PUSH2 0x368B JUMPI PUSH2 0x368A PUSH2 0x3185 JUMP JUMPDEST JUMPDEST PUSH0 PUSH2 0x3698 DUP7 DUP3 DUP8 ADD PUSH2 0x32EF JUMP JUMPDEST SWAP4 POP POP PUSH1 0x20 PUSH2 0x36A9 DUP7 DUP3 DUP8 ADD PUSH2 0x3361 JUMP JUMPDEST SWAP3 POP POP PUSH1 0x80 PUSH2 0x36BA DUP7 DUP3 DUP8 ADD PUSH2 0x339E JUMP JUMPDEST SWAP2 POP POP SWAP3 POP SWAP3 POP SWAP3 JUMP JUMPDEST PUSH0 PUSH1 0x20 DUP3 DUP5 SUB SLT ISZERO PUSH2 0x36D9 JUMPI PUSH2 0x36D8 PUSH2 0x3185 JUMP JUMPDEST JUMPDEST PUSH0 PUSH2 0x36E6 DUP5 DUP3 DUP6 ADD PUSH2 0x3349 JUMP JUMPDEST SWAP2 POP POP SWAP3 SWAP2 POP POP JUMP JUMPDEST PUSH0 DUP1 PUSH1 0x40 DUP4 DUP6 SUB SLT ISZERO PUSH2 0x3705 JUMPI PUSH2 0x3704 PUSH2 0x3185 JUMP JUMPDEST JUMPDEST PUSH0 PUSH2 0x3712 DUP6 DUP3 DUP7 ADD PUSH2 0x32EF JUMP JUMPDEST SWAP3 POP POP PUSH1 0x20 PUSH2 0x3723 DUP6 DUP3 DUP7 ADD PUSH2 0x32EF JUMP JUMPDEST SWAP2 POP POP SWAP3 POP SWAP3 SWAP1 POP JUMP JUMPDEST PUSH2 0x3736 DUP2 PUSH2 0x320D JUMP JUMPDEST DUP2 EQ PUSH2 0x3740 JUMPI PUSH0 DUP1 REVERT JUMPDEST POP JUMP JUMPDEST PUSH0 DUP2 CALLDATALOAD SWAP1 POP PUSH2 0x3751 DUP2 PUSH2 0x372D JUMP JUMPDEST SWAP3 SWAP2 POP POP JUMP JUMPDEST PUSH0 DUP1 PUSH1 0x40 DUP4 DUP6 SUB SLT ISZERO PUSH2 0x376D JUMPI PUSH2 0x376C PUSH2 0x3185 JUMP JUMPDEST JUMPDEST PUSH0 PUSH2 0x377A DUP6 DUP3 DUP7 ADD PUSH2 0x3349 JUMP JUMPDEST SWAP3 POP POP PUSH1 0x20 PUSH2 0x378B DUP6 DUP3 DUP7 ADD PUSH2 0x3743 JUMP JUMPDEST SWAP2 POP POP SWAP3 POP SWAP3 SWAP1 POP JUMP JUMPDEST PUSH0 DUP1 REVERT JUMPDEST PUSH0 DUP1 REVERT JUMPDEST PUSH32 0x4E487B7100000000000000000000000000000000000000000000000000000000 PUSH0 MSTORE PUSH1 0x41 PUSH1 0x4 MSTORE PUSH1 0x24 PUSH0 REVERT JUMPDEST PUSH2 0x37D3 DUP3 PUSH2 0x3268 JUMP JUMPDEST DUP2 ADD DUP2 DUP2 LT PUSH8 0xFFFFFFFFFFFFFFFF DUP3 GT OR ISZERO PUSH2 0x37F2 JUMPI PUSH2 0x37F1 PUSH2 0x379D JUMP JUMPDEST JUMPDEST DUP1 PUSH1 0x40 MSTORE POP POP POP JUMP JUMPDEST PUSH0 PUSH2 0x3804 PUSH2 0x317C JUMP JUMPDEST SWAP1 POP PUSH2 0x3810 DUP3 DUP3 PUSH2 0x37CA JUMP JUMPDEST SWAP2 SWAP1 POP JUMP JUMPDEST PUSH0 PUSH8 0xFFFFFFFFFFFFFFFF DUP3 GT ISZERO PUSH2 0x382F JUMPI PUSH2 0x382E PUSH2 0x379D JUMP JUMPDEST JUMPDEST PUSH2 0x3838 DUP3 PUSH2 0x3268 JUMP JUMPDEST SWAP1 POP PUSH1 0x20 DUP2 ADD SWAP1 POP SWAP2 SWAP1 POP JUMP JUMPDEST DUP3 DUP2 DUP4 CALLDATACOPY PUSH0 DUP4 DUP4 ADD MSTORE POP POP POP JUMP JUMPDEST PUSH0 PUSH2 0x3865 PUSH2 0x3860 DUP5 PUSH2 0x3815 JUMP JUMPDEST PUSH2 0x37FB JUMP JUMPDEST SWAP1 POP DUP3 DUP2 MSTORE PUSH1 0x20 DUP2 ADD DUP5 DUP5 DUP5 ADD GT ISZERO PUSH2 0x3881 JUMPI PUSH2 0x3880 PUSH2 0x3799 JUMP JUMPDEST JUMPDEST PUSH2 0x388C DUP5 DUP3 DUP6 PUSH2 0x3845 JUMP JUMPDEST POP SWAP4 SWAP3 POP POP POP JUMP JUMPDEST PUSH0 DUP3 PUSH1 0x1F DUP4 ADD SLT PUSH2 0x38A8 JUMPI PUSH2 0x38A7 PUSH2 0x3795 JUMP JUMPDEST JUMPDEST DUP2 CALLDATALOAD PUSH2 0x38B8 DUP5 DUP3 PUSH1 0x20 DUP7 ADD PUSH2 0x3853 JUMP JUMPDEST SWAP2 POP POP SWAP3 SWAP2 POP POP JUMP JUMPDEST PUSH0 DUP1 PUSH0 DUP1 PUSH1 0x80 DUP6 DUP8 SUB SLT ISZERO PUSH2 0x38D9 JUMPI PUSH2 0x38D8 PUSH2 0x3185 JUMP JUMPDEST JUMPDEST PUSH0 PUSH2 0x38E6 DUP8 DUP3 DUP9 ADD PUSH2 0x3349 JUMP JUMPDEST SWAP5 POP POP PUSH1 0x20 PUSH2 0x38F7 DUP8 DUP3 DUP9 ADD PUSH2 0x3349 JUMP JUMPDEST SWAP4 POP POP PUSH1 0x40 PUSH2 0x3908 DUP8 DUP3 DUP9 ADD PUSH2 0x32EF JUMP JUMPDEST SWAP3 POP POP PUSH1 0x60 DUP6 ADD CALLDATALOAD PUSH8 0xFFFFFFFFFFFFFFFF DUP2 GT ISZERO PUSH2 0x3929 JUMPI PUSH2 0x3928 PUSH2 0x3189 JUMP JUMPDEST JUMPDEST PUSH2 0x3935 DUP8 DUP3 DUP9 ADD PUSH2 0x3894 JUMP JUMPDEST SWAP2 POP POP SWAP3 SWAP6 SWAP2 SWAP5 POP SWAP3 POP JUMP JUMPDEST PUSH0 DUP2 PUSH1 0x7 SIGNEXTEND SWAP1 POP SWAP2 SWAP1 POP JUMP JUMPDEST PUSH2 0x3956 DUP2 PUSH2 0x3941 JUMP JUMPDEST DUP3 MSTORE POP POP JUMP JUMPDEST PUSH0 PUSH8 0xFFFFFFFFFFFFFFFF DUP3 AND SWAP1 POP SWAP2 SWAP1 POP JUMP JUMPDEST PUSH2 0x3978 DUP2 PUSH2 0x395C JUMP JUMPDEST DUP3 MSTORE POP POP JUMP JUMPDEST PUSH1 0x60 DUP3 ADD PUSH0 DUP3 ADD MLOAD PUSH2 0x3992 PUSH0 DUP6 ADD DUP3 PUSH2 0x394D JUMP JUMPDEST POP PUSH1 0x20 DUP3 ADD MLOAD PUSH2 0x39A5 PUSH1 0x20 DUP6 ADD DUP3 PUSH2 0x394D JUMP JUMPDEST POP PUSH1 0x40 DUP3 ADD MLOAD PUSH2 0x39B8 PUSH1 0x40 DUP6 ADD DUP3 PUSH2 0x396F JUMP JUMPDEST POP POP POP POP JUMP JUMPDEST PUSH2 0x39C7 DUP2 PUSH2 0x337F JUMP JUMPDEST DUP3 MSTORE POP POP JUMP JUMPDEST PUSH0 PUSH2 0x1A0 DUP3 ADD SWAP1 POP PUSH2 0x39E1 PUSH0 DUP4 ADD DUP13 PUSH2 0x397E JUMP JUMPDEST PUSH2 0x39EE PUSH1 0x60 DUP4 ADD DUP12 PUSH2 0x397E JUMP JUMPDEST PUSH2 0x39FB PUSH1 0xC0 DUP4 ADD DUP11 PUSH2 0x34CF JUMP JUMPDEST PUSH2 0x3A08 PUSH1 0xE0 DUP4 ADD DUP10 PUSH2 0x34CF JUMP JUMPDEST PUSH2 0x3A16 PUSH2 0x100 DUP4 ADD DUP9 PUSH2 0x34CF JUMP JUMPDEST PUSH2 0x3A24 PUSH2 0x120 DUP4 ADD DUP8 PUSH2 0x3469 JUMP JUMPDEST PUSH2 0x3A32 PUSH2 0x140 DUP4 ADD DUP7 PUSH2 0x3218 JUMP JUMPDEST PUSH2 0x3A40 PUSH2 0x160 DUP4 ADD DUP6 PUSH2 0x39BE JUMP JUMPDEST PUSH2 0x3A4E PUSH2 0x180 DUP4 ADD DUP5 PUSH2 0x34CF JUMP JUMPDEST SWAP11 SWAP10 POP POP POP POP POP POP POP POP POP POP JUMP JUMPDEST PUSH0 DUP1 PUSH1 0x40 DUP4 DUP6 SUB SLT ISZERO PUSH2 0x3A72 JUMPI PUSH2 0x3A71 PUSH2 0x3185 JUMP JUMPDEST JUMPDEST PUSH0 PUSH2 0x3A7F DUP6 DUP3 DUP7 ADD PUSH2 0x3349 JUMP JUMPDEST SWAP3 POP POP PUSH1 0x20 PUSH2 0x3A90 DUP6 DUP3 DUP7 ADD PUSH2 0x3349 JUMP JUMPDEST SWAP2 POP POP SWAP3 POP SWAP3 SWAP1 POP JUMP JUMPDEST PUSH32 0x4E487B7100000000000000000000000000000000000000000000000000000000 PUSH0 MSTORE PUSH1 0x22 PUSH1 0x4 MSTORE PUSH1 0x24 PUSH0 REVERT JUMPDEST PUSH0 PUSH1 0x2 DUP3 DIV SWAP1 POP PUSH1 0x1 DUP3 AND DUP1 PUSH2 0x3ADE JUMPI PUSH1 0x7F DUP3 AND SWAP2 POP JUMPDEST PUSH1 0x20 DUP3 LT DUP2 SUB PUSH2 0x3AF1 JUMPI PUSH2 0x3AF0 PUSH2 0x3A9A JUMP JUMPDEST JUMPDEST POP SWAP2 SWAP1 POP JUMP JUMPDEST PUSH32 0x5369676E734E46543A206E6F7420696D706C656D656E74656400000000000000 PUSH0 DUP3 ADD MSTORE POP JUMP JUMPDEST PUSH0 PUSH2 0x3B2B PUSH1 0x19 DUP4 PUSH2 0x324A JUMP JUMPDEST SWAP2 POP PUSH2 0x3B36 DUP3 PUSH2 0x3AF7 JUMP JUMPDEST PUSH1 0x20 DUP3 ADD SWAP1 POP SWAP2 SWAP1 POP JUMP JUMPDEST PUSH0 PUSH1 0x20 DUP3 ADD SWAP1 POP DUP2 DUP2 SUB PUSH0 DUP4 ADD MSTORE PUSH2 0x3B58 DUP2 PUSH2 0x3B1F JUMP JUMPDEST SWAP1 POP SWAP2 SWAP1 POP JUMP JUMPDEST PUSH32 0x5369676E733A2064697265637420617070726F76616C206E6F7420616C6C6F77 PUSH0 DUP3 ADD MSTORE PUSH32 0x6564000000000000000000000000000000000000000000000000000000000000 PUSH1 0x20 DUP3 ADD MSTORE POP JUMP JUMPDEST PUSH0 PUSH2 0x3BB9 PUSH1 0x22 DUP4 PUSH2 0x324A JUMP JUMPDEST SWAP2 POP PUSH2 0x3BC4 DUP3 PUSH2 0x3B5F JUMP JUMPDEST PUSH1 0x40 DUP3 ADD SWAP1 POP SWAP2 SWAP1 POP JUMP JUMPDEST PUSH0 PUSH1 0x20 DUP3 ADD SWAP1 POP DUP2 DUP2 SUB PUSH0 DUP4 ADD MSTORE PUSH2 0x3BE6 DUP2 PUSH2 0x3BAD JUMP JUMPDEST SWAP1 POP SWAP2 SWAP1 POP JUMP JUMPDEST PUSH32 0x496E76616C69642064697669736F727300000000000000000000000000000000 PUSH0 DUP3 ADD MSTORE POP JUMP JUMPDEST PUSH0 PUSH2 0x3C21 PUSH1 0x10 DUP4 PUSH2 0x324A JUMP JUMPDEST SWAP2 POP PUSH2 0x3C2C DUP3 PUSH2 0x3BED JUMP JUMPDEST PUSH1 0x20 DUP3 ADD SWAP1 POP SWAP2 SWAP1 POP JUMP JUMPDEST PUSH0 PUSH1 0x20 DUP3 ADD SWAP1 POP DUP2 DUP2 SUB PUSH0 DUP4 ADD MSTORE PUSH2 0x3C4E DUP2 PUSH2 0x3C15 JUMP JUMPDEST SWAP1 POP SWAP2 SWAP1 POP JUMP JUMPDEST PUSH0 PUSH1 0x60 DUP3 ADD SWAP1 POP PUSH2 0x3C68 PUSH0 DUP4 ADD DUP7 PUSH2 0x34CF JUMP JUMPDEST PUSH2 0x3C75 PUSH1 0x20 DUP4 ADD DUP6 PUSH2 0x34CF JUMP JUMPDEST PUSH2 0x3C82 PUSH1 0x40 DUP4 ADD DUP5 PUSH2 0x34CF JUMP JUMPDEST SWAP5 SWAP4 POP POP POP POP JUMP JUMPDEST PUSH0 DUP1 REVERT JUMPDEST PUSH2 0x3C97 DUP2 PUSH2 0x3941 JUMP JUMPDEST DUP2 EQ PUSH2 0x3CA1 JUMPI PUSH0 DUP1 REVERT JUMPDEST POP JUMP JUMPDEST PUSH0 DUP2 CALLDATALOAD SWAP1 POP PUSH2 0x3CB2 DUP2 PUSH2 0x3C8E JUMP JUMPDEST SWAP3 SWAP2 POP POP JUMP JUMPDEST PUSH2 0x3CC1 DUP2 PUSH2 0x395C JUMP JUMPDEST DUP2 EQ PUSH2 0x3CCB JUMPI PUSH0 DUP1 REVERT JUMPDEST POP JUMP JUMPDEST PUSH0 DUP2 CALLDATALOAD SWAP1 POP PUSH2 0x3CDC DUP2 PUSH2 0x3CB8 JUMP JUMPDEST SWAP3 SWAP2 POP POP JUMP JUMPDEST PUSH0 PUSH1 0x60 DUP3 DUP5 SUB SLT ISZERO PUSH2 0x3CF7 JUMPI PUSH2 0x3CF6 PUSH2 0x3C8A JUMP JUMPDEST JUMPDEST PUSH2 0x3D01 PUSH1 0x60 PUSH2 0x37FB JUMP JUMPDEST SWAP1 POP PUSH0 PUSH2 0x3D10 DUP5 DUP3 DUP6 ADD PUSH2 0x3CA4 JUMP JUMPDEST PUSH0 DUP4 ADD MSTORE POP PUSH1 0x20 PUSH2 0x3D23 DUP5 DUP3 DUP6 ADD PUSH2 0x3CA4 JUMP JUMPDEST PUSH1 0x20 DUP4 ADD MSTORE POP PUSH1 0x40 PUSH2 0x3D37 DUP5 DUP3 DUP6 ADD PUSH2 0x3CCE JUMP JUMPDEST PUSH1 0x40 DUP4 ADD MSTORE POP SWAP3 SWAP2 POP POP JUMP JUMPDEST PUSH0 PUSH1 0x60 DUP3 DUP5 SUB SLT ISZERO PUSH2 0x3D58 JUMPI PUSH2 0x3D57 PUSH2 0x3185 JUMP JUMPDEST JUMPDEST PUSH0 PUSH2 0x3D65 DUP5 DUP3 DUP6 ADD PUSH2 0x3CE2 JUMP JUMPDEST SWAP2 POP POP SWAP3 SWAP2 POP POP JUMP JUMPDEST PUSH0 DUP2 CALLDATALOAD PUSH2 0x3D7A DUP2 PUSH2 0x3C8E JUMP JUMPDEST DUP1 SWAP2 POP POP SWAP2 SWAP1 POP JUMP JUMPDEST PUSH0 DUP2 PUSH0 SHL SWAP1 POP SWAP2 SWAP1 POP JUMP JUMPDEST PUSH0 PUSH8 0xFFFFFFFFFFFFFFFF PUSH2 0x3DA1 DUP5 PUSH2 0x3D83 JUMP JUMPDEST SWAP4 POP DUP1 NOT DUP4 AND SWAP3 POP DUP1 DUP5 AND DUP4 OR SWAP2 POP POP SWAP3 SWAP2 POP POP JUMP JUMPDEST PUSH0 PUSH2 0x3DD1 PUSH2 0x3DCC PUSH2 0x3DC7 DUP5 PUSH2 0x3941 JUMP JUMPDEST PUSH2 0x35D5 JUMP JUMPDEST PUSH2 0x3941 JUMP JUMPDEST SWAP1 POP SWAP2 SWAP1 POP JUMP JUMPDEST PUSH0 DUP2 SWAP1 POP SWAP2 SWAP1 POP JUMP JUMPDEST PUSH2 0x3DEA DUP3 PUSH2 0x3DB7 JUMP JUMPDEST PUSH2 0x3DFD PUSH2 0x3DF6 DUP3 PUSH2 0x3DD8 JUMP JUMPDEST DUP4 SLOAD PUSH2 0x3D8E JUMP JUMPDEST DUP3 SSTORE POP POP POP JUMP JUMPDEST PUSH0 DUP2 PUSH1 0x40 SHL SWAP1 POP SWAP2 SWAP1 POP JUMP JUMPDEST PUSH0 PUSH16 0xFFFFFFFFFFFFFFFF0000000000000000 PUSH2 0x3E2B DUP5 PUSH2 0x3E04 JUMP JUMPDEST SWAP4 POP DUP1 NOT DUP4 AND SWAP3 POP DUP1 DUP5 AND DUP4 OR SWAP2 POP POP SWAP3 SWAP2 POP POP JUMP JUMPDEST PUSH2 0x3E4A DUP3 PUSH2 0x3DB7 JUMP JUMPDEST PUSH2 0x3E5D PUSH2 0x3E56 DUP3 PUSH2 0x3DD8 JUMP JUMPDEST DUP4 SLOAD PUSH2 0x3E10 JUMP JUMPDEST DUP3 SSTORE POP POP POP JUMP JUMPDEST PUSH0 DUP2 CALLDATALOAD PUSH2 0x3E70 DUP2 PUSH2 0x3CB8 JUMP JUMPDEST DUP1 SWAP2 POP POP SWAP2 SWAP1 POP JUMP JUMPDEST PUSH0 DUP2 PUSH1 0x80 SHL SWAP1 POP SWAP2 SWAP1 POP JUMP JUMPDEST PUSH0 PUSH24 0xFFFFFFFFFFFFFFFF00000000000000000000000000000000 PUSH2 0x3EA8 DUP5 PUSH2 0x3E79 JUMP JUMPDEST SWAP4 POP DUP1 NOT DUP4 AND SWAP3 POP DUP1 DUP5 AND DUP4 OR SWAP2 POP POP SWAP3 SWAP2 POP POP JUMP JUMPDEST PUSH0 PUSH2 0x3ED8 PUSH2 0x3ED3 PUSH2 0x3ECE DUP5 PUSH2 0x395C JUMP JUMPDEST PUSH2 0x35D5 JUMP JUMPDEST PUSH2 0x395C JUMP JUMPDEST SWAP1 POP SWAP2 SWAP1 POP JUMP JUMPDEST PUSH0 DUP2 SWAP1 POP SWAP2 SWAP1 POP JUMP JUMPDEST PUSH2 0x3EF1 DUP3 PUSH2 0x3EBE JUMP JUMPDEST PUSH2 0x3F04 PUSH2 0x3EFD DUP3 PUSH2 0x3EDF JUMP JUMPDEST DUP4 SLOAD PUSH2 0x3E85 JUMP JUMPDEST DUP3 SSTORE POP POP POP JUMP JUMPDEST PUSH0 DUP2 ADD PUSH0 DUP4 ADD DUP1 PUSH2 0x3F1B DUP2 PUSH2 0x3D6E JUMP JUMPDEST SWAP1 POP PUSH2 0x3F27 DUP2 DUP5 PUSH2 0x3DE1 JUMP JUMPDEST POP POP POP PUSH0 DUP2 ADD PUSH1 0x20 DUP4 ADD DUP1 PUSH2 0x3F3B DUP2 PUSH2 0x3D6E JUMP JUMPDEST SWAP1 POP PUSH2 0x3F47 DUP2 DUP5 PUSH2 0x3E41 JUMP JUMPDEST POP POP POP PUSH0 DUP2 ADD PUSH1 0x40 DUP4 ADD DUP1 PUSH2 0x3F5B DUP2 PUSH2 0x3E64 JUMP JUMPDEST SWAP1 POP PUSH2 0x3F67 DUP2 DUP5 PUSH2 0x3EE8 JUMP JUMPDEST POP POP POP POP POP JUMP JUMPDEST PUSH2 0x3F78 DUP3 DUP3 PUSH2 0x3F0B JUMP JUMPDEST POP POP JUMP JUMPDEST PUSH0 PUSH2 0x3F8A PUSH1 0x20 DUP5 ADD DUP5 PUSH2 0x3CA4 JUMP JUMPDEST SWAP1 POP SWAP3 SWAP2 POP POP JUMP JUMPDEST PUSH0 PUSH2 0x3FA0 PUSH1 0x20 DUP5 ADD DUP5 PUSH2 0x3CCE JUMP JUMPDEST SWAP1 POP SWAP3 SWAP2 POP POP JUMP JUMPDEST PUSH1 0x60 DUP3 ADD PUSH2 0x3FB8 PUSH0 DUP4 ADD DUP4 PUSH2 0x3F7C JUMP JUMPDEST PUSH2 0x3FC4 PUSH0 DUP6 ADD DUP3 PUSH2 0x394D JUMP JUMPDEST POP PUSH2 0x3FD2 PUSH1 0x20 DUP4 ADD DUP4 PUSH2 0x3F7C JUMP JUMPDEST PUSH2 0x3FDF PUSH1 0x20 DUP6 ADD DUP3 PUSH2 0x394D JUMP JUMPDEST POP PUSH2 0x3FED PUSH1 0x40 DUP4 ADD DUP4 PUSH2 0x3F92 JUMP JUMPDEST PUSH2 0x3FFA PUSH1 0x40 DUP6 ADD DUP3 PUSH2 0x396F JUMP JUMPDEST POP POP POP POP JUMP JUMPDEST PUSH0 PUSH1 0x60 DUP3 ADD SWAP1 POP PUSH2 0x4013 PUSH0 DUP4 ADD DUP5 PUSH2 0x3FA8 JUMP JUMPDEST SWAP3 SWAP2 POP POP JUMP JUMPDEST PUSH0 PUSH1 0x60 DUP3 ADD SWAP1 POP PUSH2 0x402C PUSH0 DUP4 ADD DUP7 PUSH2 0x3469 JUMP JUMPDEST PUSH2 0x4039 PUSH1 0x20 DUP4 ADD DUP6 PUSH2 0x34CF JUMP JUMPDEST PUSH2 0x4046 PUSH1 0x40 DUP4 ADD DUP5 PUSH2 0x3469 JUMP JUMPDEST SWAP5 SWAP4 POP POP POP POP JUMP JUMPDEST PUSH32 0x4E487B7100000000000000000000000000000000000000000000000000000000 PUSH0 MSTORE PUSH1 0x11 PUSH1 0x4 MSTORE PUSH1 0x24 PUSH0 REVERT JUMPDEST PUSH0 PUSH2 0x4085 DUP3 PUSH2 0x32D0 JUMP JUMPDEST SWAP2 POP PUSH32 0xFFFFFFFFFFFFFFFFFFFFFFFFFFFFFFFFFFFFFFFFFFFFFFFFFFFFFFFFFFFFFFFF DUP3 SUB PUSH2 0x40B7 JUMPI PUSH2 0x40B6 PUSH2 0x404E JUMP JUMPDEST JUMPDEST PUSH1 0x1 DUP3 ADD SWAP1 POP SWAP2 SWAP1 POP JUMP JUMPDEST PUSH0 PUSH2 0x40CC DUP3 PUSH2 0x32D0 JUMP JUMPDEST SWAP2 POP PUSH2 0x40D7 DUP4 PUSH2 0x32D0 JUMP JUMPDEST SWAP3 POP DUP3 DUP3 ADD SWAP1 POP DUP1 DUP3 GT ISZERO PUSH2 0x40EF JUMPI PUSH2 0x40EE PUSH2 0x404E JUMP JUMPDEST JUMPDEST SWAP3 SWAP2 POP POP JUMP JUMPDEST PUSH0 PUSH2 0x140 DUP3 ADD SWAP1 POP PUSH2 0x4109 PUSH0 DUP4 ADD DUP10 PUSH2 0x34CF JUMP JUMPDEST PUSH2 0x4116 PUSH1 0x20 DUP4 ADD DUP9 PUSH2 0x3469 JUMP JUMPDEST PUSH2 0x4123 PUSH1 0x40 DUP4 ADD DUP8 PUSH2 0x397E JUMP JUMPDEST PUSH2 0x4130 PUSH1 0xA0 DUP4 ADD DUP7 PUSH2 0x3FA8 JUMP JUMPDEST PUSH2 0x413E PUSH2 0x100 DUP4 ADD DUP6 PUSH2 0x34CF JUMP JUMPDEST PUSH2 0x414C PUSH2 0x120 DUP4 ADD DUP5 PUSH2 0x39BE JUMP JUMPDEST SWAP8 SWAP7 POP POP POP POP POP POP POP JUMP JUMPDEST PUSH0 PUSH1 0xC0 DUP3 ADD SWAP1 POP PUSH2 0x416A PUSH0 DUP4 ADD DUP6 PUSH2 0x397E JUMP JUMPDEST PUSH2 0x4177 PUSH1 0x60 DUP4 ADD DUP5 PUSH2 0x3FA8 JUMP JUMPDEST SWAP4 SWAP3 POP POP POP JUMP JUMPDEST PUSH0 PUSH1 0x20 DUP3 ADD SWAP1 POP PUSH2 0x4191 PUSH0 DUP4 ADD DUP5 PUSH2 0x39BE JUMP JUMPDEST SWAP3 SWAP2 POP POP JUMP JUMPDEST PUSH32 0x5369676E733A20617070726F76616C20666F7220616C6C206E6F7420616C6C6F PUSH0 DUP3 ADD MSTORE PUSH32 0x7765640000000000000000000000000000000000000000000000000000000000 PUSH1 0x20 DUP3 ADD MSTORE POP JUMP JUMPDEST PUSH0 PUSH2 0x41F1 PUSH1 0x23 DUP4 PUSH2 0x324A JUMP JUMPDEST SWAP2 POP PUSH2 0x41FC DUP3 PUSH2 0x4197 JUMP JUMPDEST PUSH1 0x40 DUP3 ADD SWAP1 POP SWAP2 SWAP1 POP JUMP JUMPDEST PUSH0 PUSH1 0x20 DUP3 ADD SWAP1 POP DUP2 DUP2 SUB PUSH0 DUP4 ADD MSTORE PUSH2 0x421E DUP2 PUSH2 0x41E5 JUMP JUMPDEST SWAP1 POP SWAP2 SWAP1 POP JUMP JUMPDEST PUSH0 DUP2 SWAP1 POP SWAP3 SWAP2 POP POP JUMP JUMPDEST PUSH0 PUSH2 0x4239 DUP3 PUSH2 0x3240 JUMP JUMPDEST PUSH2 0x4243 DUP2 DUP6 PUSH2 0x4225 JUMP JUMPDEST SWAP4 POP PUSH2 0x4253 DUP2 DUP6 PUSH1 0x20 DUP7 ADD PUSH2 0x325A JUMP JUMPDEST DUP1 DUP5 ADD SWAP2 POP POP SWAP3 SWAP2 POP POP JUMP JUMPDEST PUSH0 PUSH2 0x426A DUP3 DUP6 PUSH2 0x422F JUMP JUMPDEST SWAP2 POP PUSH2 0x4276 DUP3 DUP5 PUSH2 0x422F JUMP JUMPDEST SWAP2 POP DUP2 SWAP1 POP SWAP4 SWAP3 POP POP POP JUMP JUMPDEST PUSH32 0x5061757361626C653A2070617573656400000000000000000000000000000000 PUSH0 DUP3 ADD MSTORE POP JUMP JUMPDEST PUSH0 PUSH2 0x42B6 PUSH1 0x10 DUP4 PUSH2 0x324A JUMP JUMPDEST SWAP2 POP PUSH2 0x42C1 DUP3 PUSH2 0x4282 JUMP JUMPDEST PUSH1 0x20 DUP3 ADD SWAP1 POP SWAP2 SWAP1 POP JUMP JUMPDEST PUSH0 PUSH1 0x20 DUP3 ADD SWAP1 POP DUP2 DUP2 SUB PUSH0 DUP4 ADD MSTORE PUSH2 0x42E3 DUP2 PUSH2 0x42AA JUMP JUMPDEST SWAP1 POP SWAP2 SWAP1 POP JUMP JUMPDEST PUSH32 0x5369676E2069732063757272656E746C79207069636B65642075700000000000 PUSH0 DUP3 ADD MSTORE POP JUMP JUMPDEST PUSH0 PUSH2 0x431E PUSH1 0x1B DUP4 PUSH2 0x324A JUMP JUMPDEST SWAP2 POP PUSH2 0x4329 DUP3 PUSH2 0x42EA JUMP JUMPDEST PUSH1 0x20 DUP3 ADD SWAP1 POP SWAP2 SWAP1 POP JUMP JUMPDEST PUSH0 PUSH1 0x20 DUP3 ADD SWAP1 POP DUP2 DUP2 SUB PUSH0 DUP4 ADD MSTORE PUSH2 0x434B DUP2 PUSH2 0x4312 JUMP JUMPDEST SWAP1 POP SWAP2 SWAP1 POP JUMP JUMPDEST PUSH0 PUSH2 0x435C DUP3 PUSH2 0x3941 JUMP JUMPDEST SWAP2 POP PUSH2 0x4367 DUP4 PUSH2 0x3941 JUMP JUMPDEST SWAP3 POP DUP3 DUP3 SUB SWAP1 POP PUSH8 0x7FFFFFFFFFFFFFFF DUP2 SGT PUSH32 0xFFFFFFFFFFFFFFFFFFFFFFFFFFFFFFFFFFFFFFFFFFFFFFFF8000000000000000 DUP3 SLT OR ISZERO PUSH2 0x43AB JUMPI PUSH2 0x43AA PUSH2 0x404E JUMP JUMPDEST JUMPDEST SWAP3 SWAP2 POP POP JUMP JUMPDEST PUSH0 PUSH2 0x43BB DUP3 PUSH2 0x3941 JUMP JUMPDEST SWAP2 POP PUSH32 0xFFFFFFFFFFFFFFFFFFFFFFFFFFFFFFFFFFFFFFFFFFFFFFFF8000000000000000 DUP3 SUB PUSH2 0x43ED JUMPI PUSH2 0x43EC PUSH2 0x404E JUMP JUMPDEST JUMPDEST DUP2 PUSH0 SUB SWAP1 POP SWAP2 SWAP1 POP JUMP JUMPDEST PUSH0 PUSH2 0x4401 DUP3 PUSH2 0x32D0 JUMP JUMPDEST SWAP2 POP PUSH2 0x440C DUP4 PUSH2 0x32D0 JUMP JUMPDEST SWAP3 POP DUP3 DUP3 MUL PUSH2 0x441A DUP2 PUSH2 0x32D0 JUMP JUMPDEST SWAP2 POP DUP3 DUP3 DIV DUP5 EQ DUP4 ISZERO OR PUSH2 0x4431 JUMPI PUSH2 0x4430 PUSH2 0x404E JUMP JUMPDEST JUMPDEST POP SWAP3 SWAP2 POP POP JUMP JUMPDEST PUSH32 0x4E487B7100000000000000000000000000000000000000000000000000000000 PUSH0 MSTORE PUSH1 0x12 PUSH1 0x4 MSTORE PUSH1 0x24 PUSH0 REVERT JUMPDEST PUSH0 PUSH2 0x446F DUP3 PUSH2 0x32D0 JUMP JUMPDEST SWAP2 POP PUSH2 0x447A DUP4 PUSH2 0x32D0 JUMP JUMPDEST SWAP3 POP DUP3 PUSH2 0x448A JUMPI PUSH2 0x4489 PUSH2 0x4438 JUMP JUMPDEST JUMPDEST DUP3 DUP3 DIV SWAP1 POP SWAP3 SWAP2 POP POP JUMP JUMPDEST PUSH0 DUP2 MLOAD SWAP1 POP SWAP2 SWAP1 POP JUMP JUMPDEST PUSH0 DUP3 DUP3 MSTORE PUSH1 0x20 DUP3 ADD SWAP1 POP SWAP3 SWAP2 POP POP JUMP JUMPDEST PUSH0 PUSH2 0x44B9 DUP3 PUSH2 0x4495 JUMP JUMPDEST PUSH2 0x44C3 DUP2 DUP6 PUSH2 0x449F JUMP JUMPDEST SWAP4 POP PUSH2 0x44D3 DUP2 DUP6 PUSH1 0x20 DUP7 ADD PUSH2 0x325A JUMP JUMPDEST PUSH2 0x44DC DUP2 PUSH2 0x3268 JUMP JUMPDEST DUP5 ADD SWAP2 POP POP SWAP3 SWAP2 POP POP JUMP JUMPDEST PUSH0 PUSH1 0x80 DUP3 ADD SWAP1 POP PUSH2 0x44FA PUSH0 DUP4 ADD DUP8 PUSH2 0x3469 JUMP JUMPDEST PUSH2 0x4507 PUSH1 0x20 DUP4 ADD DUP7 PUSH2 0x3469 JUMP JUMPDEST PUSH2 0x4514 PUSH1 0x40 DUP4 ADD DUP6 PUSH2 0x34CF JUMP JUMPDEST DUP2 DUP2 SUB PUSH1 0x60 DUP4 ADD MSTORE PUSH2 0x4526 DUP2 DUP5 PUSH2 0x44AF JUMP JUMPDEST SWAP1 POP SWAP6 SWAP5 POP POP POP POP POP JUMP JUMPDEST PUSH0 DUP2 MLOAD SWAP1 POP PUSH2 0x453F DUP2 PUSH2 0x31B8 JUMP JUMPDEST SWAP3 SWAP2 POP POP JUMP JUMPDEST PUSH0 PUSH1 0x20 DUP3 DUP5 SUB SLT ISZERO PUSH2 0x455A JUMPI PUSH2 0x4559 PUSH2 0x3185 JUMP JUMPDEST JUMPDEST PUSH0 PUSH2 0x4567 DUP5 DUP3 DUP6 ADD PUSH2 0x4531 JUMP JUMPDEST SWAP2 POP POP SWAP3 SWAP2 POP POP JUMP JUMPDEST PUSH32 0x5061757361626C653A206E6F7420706175736564000000000000000000000000 PUSH0 DUP3 ADD MSTORE POP JUMP JUMPDEST PUSH0 PUSH2 0x45A4 PUSH1 0x14 DUP4 PUSH2 0x324A JUMP JUMPDEST SWAP2 POP PUSH2 0x45AF DUP3 PUSH2 0x4570 JUMP JUMPDEST PUSH1 0x20 DUP3 ADD SWAP1 POP SWAP2 SWAP1 POP JUMP JUMPDEST PUSH0 PUSH1 0x20 DUP3 ADD SWAP1 POP DUP2 DUP2 SUB PUSH0 DUP4 ADD MSTORE PUSH2 0x45D1 DUP2 PUSH2 0x4598 JUMP JUMPDEST SWAP1 POP SWAP2 SWAP1 POP JUMP JUMPDEST PUSH0 PUSH1 0x40 DUP3 ADD SWAP1 POP PUSH2 0x45EB PUSH0 DUP4 ADD DUP6 PUSH2 0x3469 JUMP JUMPDEST PUSH2 0x45F8 PUSH1 0x20 DUP4 ADD DUP5 PUSH2 0x34CF JUMP JUMPDEST SWAP4 SWAP3 POP POP POP JUMP INVALID LOG2 PUSH5 0x6970667358 0x22 SLT KECCAK256 0xA6 RETURN SWAP6 LOG1 NUMBER PUSH26 0xEB6DE0816B44839DD0636717DF09EDD478D5C212BFBB2DEB893E PUSH5 0x736F6C6343 STOP ADDMOD BYTE STOP CALLER "
		},
		"gasEstimates": {
			"creation": {
				"codeDepositCost": "3594600",
				"executionCost": "infinite",
				"totalCost": "infinite"
			},
			"external": {
				"MAX_PICKUP_RADIUS()": "458",
				"MAX_SIGNS_PER_USER()": "393",
				"approve(address,uint256)": "965",
				"balanceOf(address)": "infinite",
				"baseWageRate()": "2471",
				"createSign((int64,int64,uint64))": "infinite",
				"distanceWeightDivisor()": "2514",
				"dropSign(uint256,(int64,int64,uint64),bytes32)": "infinite",
				"getApproved(uint256)": "infinite",
				"isApprovedForAll(address,address)": "infinite",
				"moveWeightDivisor()": "2493",
				"moveWeightMultiplier()": "2514",
				"name()": "infinite",
				"owner()": "2604",
				"ownerOf(uint256)": "infinite",
				"pause()": "infinite",
				"paused()": "2658",
				"pickupSign(uint256,(int64,int64,uint64))": "infinite",
				"recordMovement(uint256,address,(int64,int64,uint64),(int64,int64,uint64),uint256,bytes32)": "infinite",
				"renounceOwnership()": "infinite",
				"safeTransferFrom(address,address,uint256)": "infinite",
				"safeTransferFrom(address,address,uint256,bytes)": "infinite",
				"setApprovalForAll(address,bool)": "970",
				"setSignsHistory(address)": "infinite",
				"signCarriers(uint256)": "2894",
				"signs(uint256)": "infinite",
				"signsHistory()": "infinite",
				"supportsInterface(bytes4)": "810",
				"symbol()": "infinite",
				"tokenURI(uint256)": "infinite",
				"transferFrom(address,address,uint256)": "infinite",
				"transferOwnership(address)": "infinite",
				"unpause()": "infinite",
				"updateBaseWageRate(uint256)": "infinite",
				"updateHome(uint256,(int64,int64,uint64))": "infinite",
				"updateSignWage(uint256,uint256)": "infinite",
				"updateWeightParameters(uint256,uint256,uint256)": "infinite",
				"userSignCount(address)": "2847"
			},
			"internal": {
				"_calculateDistance(struct ISigns.Location memory,struct ISigns.Location memory)": "infinite",
				"_calculateNewWeight(uint256,uint256)": "infinite",
				"_calculateWage(uint256,struct ISigns.Location memory,struct ISigns.Location memory,uint256)": "infinite",
				"_isValidLocation(struct ISigns.Location memory)": "infinite",
				"_isWithinRadius(struct ISigns.Location memory,struct ISigns.Location memory)": "infinite",
				"_update(address,uint256,address)": "infinite"
			}
		},
		"methodIdentifiers": {
			"MAX_PICKUP_RADIUS()": "c159c454",
			"MAX_SIGNS_PER_USER()": "835bbbb2",
			"approve(address,uint256)": "095ea7b3",
			"balanceOf(address)": "70a08231",
			"baseWageRate()": "780f14f8",
			"createSign((int64,int64,uint64))": "526b444e",
			"distanceWeightDivisor()": "b88ba0fd",
			"dropSign(uint256,(int64,int64,uint64),bytes32)": "5f87a13f",
			"getApproved(uint256)": "081812fc",
			"isApprovedForAll(address,address)": "e985e9c5",
			"moveWeightDivisor()": "0d64c089",
			"moveWeightMultiplier()": "706d4283",
			"name()": "06fdde03",
			"owner()": "8da5cb5b",
			"ownerOf(uint256)": "6352211e",
			"pause()": "8456cb59",
			"paused()": "5c975abb",
			"pickupSign(uint256,(int64,int64,uint64))": "acc1c1a0",
			"recordMovement(uint256,address,(int64,int64,uint64),(int64,int64,uint64),uint256,bytes32)": "080807be",
			"renounceOwnership()": "715018a6",
			"safeTransferFrom(address,address,uint256)": "42842e0e",
			"safeTransferFrom(address,address,uint256,bytes)": "b88d4fde",
			"setApprovalForAll(address,bool)": "a22cb465",
			"setSignsHistory(address)": "83c30faa",
			"signCarriers(uint256)": "8ca138a0",
			"signs(uint256)": "cb75b997",
			"signsHistory()": "458de778",
			"supportsInterface(bytes4)": "01ffc9a7",
			"symbol()": "95d89b41",
			"tokenURI(uint256)": "c87b56dd",
			"transferFrom(address,address,uint256)": "23b872dd",
			"transferOwnership(address)": "f2fde38b",
			"unpause()": "3f4ba83a",
			"updateBaseWageRate(uint256)": "d1768b13",
			"updateHome(uint256,(int64,int64,uint64))": "21dd4d27",
			"updateSignWage(uint256,uint256)": "9ff42522",
			"updateWeightParameters(uint256,uint256,uint256)": "20fe5a10",
			"userSignCount(address)": "8535ab52"
		}
	},
	"abi": [
		{
			"inputs": [],
			"stateMutability": "nonpayable",
			"type": "constructor"
		},
		{
			"inputs": [
				{
					"internalType": "address",
					"name": "sender",
					"type": "address"
				},
				{
					"internalType": "uint256",
					"name": "tokenId",
					"type": "uint256"
				},
				{
					"internalType": "address",
					"name": "owner",
					"type": "address"
				}
			],
			"name": "ERC721IncorrectOwner",
			"type": "error"
		},
		{
			"inputs": [
				{
					"internalType": "address",
					"name": "operator",
					"type": "address"
				},
				{
					"internalType": "uint256",
					"name": "tokenId",
					"type": "uint256"
				}
			],
			"name": "ERC721InsufficientApproval",
			"type": "error"
		},
		{
			"inputs": [
				{
					"internalType": "address",
					"name": "approver",
					"type": "address"
				}
			],
			"name": "ERC721InvalidApprover",
			"type": "error"
		},
		{
			"inputs": [
				{
					"internalType": "address",
					"name": "operator",
					"type": "address"
				}
			],
			"name": "ERC721InvalidOperator",
			"type": "error"
		},
		{
			"inputs": [
				{
					"internalType": "address",
					"name": "owner",
					"type": "address"
				}
			],
			"name": "ERC721InvalidOwner",
			"type": "error"
		},
		{
			"inputs": [
				{
					"internalType": "address",
					"name": "receiver",
					"type": "address"
				}
			],
			"name": "ERC721InvalidReceiver",
			"type": "error"
		},
		{
			"inputs": [
				{
					"internalType": "address",
					"name": "sender",
					"type": "address"
				}
			],
			"name": "ERC721InvalidSender",
			"type": "error"
		},
		{
			"inputs": [
				{
					"internalType": "uint256",
					"name": "tokenId",
					"type": "uint256"
				}
			],
			"name": "ERC721NonexistentToken",
			"type": "error"
		},
		{
			"inputs": [],
			"name": "ExceedsMaxSignsPerUser",
			"type": "error"
		},
		{
			"inputs": [],
			"name": "InvalidLocation",
			"type": "error"
		},
		{
			"inputs": [],
			"name": "InvalidWage",
			"type": "error"
		},
		{
			"inputs": [],
			"name": "OutsidePickupRadius",
			"type": "error"
		},
		{
			"inputs": [
				{
					"internalType": "address",
					"name": "owner",
					"type": "address"
				}
			],
			"name": "OwnableInvalidOwner",
			"type": "error"
		},
		{
			"inputs": [
				{
					"internalType": "address",
					"name": "account",
					"type": "address"
				}
			],
			"name": "OwnableUnauthorizedAccount",
			"type": "error"
		},
		{
			"inputs": [],
			"name": "SignAlreadyPickedUp",
			"type": "error"
		},
		{
			"inputs": [],
			"name": "SignNotFound",
			"type": "error"
		},
		{
			"inputs": [],
			"name": "SignNotPickedUp",
			"type": "error"
		},
		{
			"inputs": [],
			"name": "SignsHistoryNotSet",
			"type": "error"
		},
		{
			"inputs": [],
			"name": "UnauthorizedCarrier",
			"type": "error"
		},
		{
			"inputs": [],
			"name": "UnauthorizedOwner",
			"type": "error"
		},
		{
			"anonymous": false,
			"inputs": [
				{
					"indexed": true,
					"internalType": "address",
					"name": "owner",
					"type": "address"
				},
				{
					"indexed": true,
					"internalType": "address",
					"name": "approved",
					"type": "address"
				},
				{
					"indexed": true,
					"internalType": "uint256",
					"name": "tokenId",
					"type": "uint256"
				}
			],
			"name": "Approval",
			"type": "event"
		},
		{
			"anonymous": false,
			"inputs": [
				{
					"indexed": true,
					"internalType": "address",
					"name": "owner",
					"type": "address"
				},
				{
					"indexed": true,
					"internalType": "address",
					"name": "operator",
					"type": "address"
				},
				{
					"indexed": false,
					"internalType": "bool",
					"name": "approved",
					"type": "bool"
				}
			],
			"name": "ApprovalForAll",
			"type": "event"
		},
		{
			"anonymous": false,
			"inputs": [
				{
					"indexed": false,
					"internalType": "uint256",
					"name": "newRate",
					"type": "uint256"
				}
			],
			"name": "BaseWageRateUpdated",
			"type": "event"
		},
		{
			"anonymous": false,
			"inputs": [
				{
					"indexed": true,
					"internalType": "uint256",
					"name": "tokenId",
					"type": "uint256"
				},
				{
					"indexed": false,
					"internalType": "bytes32",
					"name": "newContentHash",
					"type": "bytes32"
				}
			],
			"name": "ContentHashUpdated",
			"type": "event"
		},
		{
			"anonymous": false,
			"inputs": [
				{
					"indexed": true,
					"internalType": "uint256",
					"name": "tokenId",
					"type": "uint256"
				},
				{
					"components": [
						{
							"internalType": "int64",
							"name": "latitude",
							"type": "int64"
						},
						{
							"internalType": "int64",
							"name": "longitude",
							"type": "int64"
						},
						{
							"internalType": "uint64",
							"name": "timestamp",
							"type": "uint64"
						}
					],
					"indexed": false,
					"internalType": "struct ISigns.Location",
					"name": "newHome",
					"type": "tuple"
				}
			],
			"name": "HomeUpdated",
			"type": "event"
		},
		{
			"anonymous": false,
			"inputs": [
				{
					"indexed": true,
					"internalType": "address",
					"name": "previousOwner",
					"type": "address"
				},
				{
					"indexed": true,
					"internalType": "address",
					"name": "newOwner",
					"type": "address"
				}
			],
			"name": "OwnershipTransferred",
			"type": "event"
		},
		{
			"anonymous": false,
			"inputs": [
				{
					"indexed": false,
					"internalType": "address",
					"name": "account",
					"type": "address"
				}
			],
			"name": "Paused",
			"type": "event"
		},
		{
			"anonymous": false,
			"inputs": [
				{
					"indexed": true,
					"internalType": "uint256",
					"name": "tokenId",
					"type": "uint256"
				},
				{
					"indexed": true,
					"internalType": "address",
					"name": "owner",
					"type": "address"
				},
				{
					"components": [
						{
							"internalType": "int64",
							"name": "latitude",
							"type": "int64"
						},
						{
							"internalType": "int64",
							"name": "longitude",
							"type": "int64"
						},
						{
							"internalType": "uint64",
							"name": "timestamp",
							"type": "uint64"
						}
					],
					"indexed": false,
					"internalType": "struct ISigns.Location",
					"name": "home",
					"type": "tuple"
				}
			],
			"name": "SignCreated",
			"type": "event"
		},
		{
			"anonymous": false,
			"inputs": [
				{
					"indexed": true,
					"internalType": "uint256",
					"name": "tokenId",
					"type": "uint256"
				},
				{
					"indexed": true,
					"internalType": "address",
					"name": "carrier",
					"type": "address"
				},
				{
					"components": [
						{
							"internalType": "int64",
							"name": "latitude",
							"type": "int64"
						},
						{
							"internalType": "int64",
							"name": "longitude",
							"type": "int64"
						},
						{
							"internalType": "uint64",
							"name": "timestamp",
							"type": "uint64"
						}
					],
					"indexed": false,
					"internalType": "struct ISigns.Location",
					"name": "location",
					"type": "tuple"
				}
			],
			"name": "SignDropped",
			"type": "event"
		},
		{
			"anonymous": false,
			"inputs": [
				{
					"indexed": true,
					"internalType": "uint256",
					"name": "tokenId",
					"type": "uint256"
				},
				{
					"indexed": true,
					"internalType": "address",
					"name": "carrier",
					"type": "address"
				},
				{
					"components": [
						{
							"internalType": "int64",
							"name": "latitude",
							"type": "int64"
						},
						{
							"internalType": "int64",
							"name": "longitude",
							"type": "int64"
						},
						{
							"internalType": "uint64",
							"name": "timestamp",
							"type": "uint64"
						}
					],
					"indexed": false,
					"internalType": "struct ISigns.Location",
					"name": "from",
					"type": "tuple"
				},
				{
					"components": [
						{
							"internalType": "int64",
							"name": "latitude",
							"type": "int64"
						},
						{
							"internalType": "int64",
							"name": "longitude",
							"type": "int64"
						},
						{
							"internalType": "uint64",
							"name": "timestamp",
							"type": "uint64"
						}
					],
					"indexed": false,
					"internalType": "struct ISigns.Location",
					"name": "to",
					"type": "tuple"
				}
			],
			"name": "SignMoved",
			"type": "event"
		},
		{
			"anonymous": false,
			"inputs": [
				{
					"indexed": true,
					"internalType": "uint256",
					"name": "tokenId",
					"type": "uint256"
				},
				{
					"indexed": true,
					"internalType": "address",
					"name": "carrier",
					"type": "address"
				},
				{
					"components": [
						{
							"internalType": "int64",
							"name": "latitude",
							"type": "int64"
						},
						{
							"internalType": "int64",
							"name": "longitude",
							"type": "int64"
						},
						{
							"internalType": "uint64",
							"name": "timestamp",
							"type": "uint64"
						}
					],
					"indexed": false,
					"internalType": "struct ISigns.Location",
					"name": "location",
					"type": "tuple"
				}
			],
			"name": "SignPickedUp",
			"type": "event"
		},
		{
			"anonymous": false,
			"inputs": [
				{
					"indexed": true,
					"internalType": "uint256",
					"name": "tokenId",
					"type": "uint256"
				},
				{
					"indexed": false,
					"internalType": "uint256",
					"name": "newWage",
					"type": "uint256"
				}
			],
			"name": "SignWageUpdated",
			"type": "event"
		},
		{
			"anonymous": false,
			"inputs": [
				{
					"indexed": true,
					"internalType": "address",
					"name": "from",
					"type": "address"
				},
				{
					"indexed": true,
					"internalType": "address",
					"name": "to",
					"type": "address"
				},
				{
					"indexed": true,
					"internalType": "uint256",
					"name": "tokenId",
					"type": "uint256"
				}
			],
			"name": "Transfer",
			"type": "event"
		},
		{
			"anonymous": false,
			"inputs": [
				{
					"indexed": false,
					"internalType": "address",
					"name": "account",
					"type": "address"
				}
			],
			"name": "Unpaused",
			"type": "event"
		},
		{
			"anonymous": false,
			"inputs": [
				{
					"indexed": false,
					"internalType": "uint256",
					"name": "newMoveWeightMultiplier",
					"type": "uint256"
				},
				{
					"indexed": false,
					"internalType": "uint256",
					"name": "newMoveWeightDivisor",
					"type": "uint256"
				},
				{
					"indexed": false,
					"internalType": "uint256",
					"name": "newDistanceWeightDivisor",
					"type": "uint256"
				}
			],
			"name": "WeightParametersUpdated",
			"type": "event"
		},
		{
			"inputs": [],
			"name": "MAX_PICKUP_RADIUS",
			"outputs": [
				{
					"internalType": "uint256",
					"name": "",
					"type": "uint256"
				}
			],
			"stateMutability": "view",
			"type": "function"
		},
		{
			"inputs": [],
			"name": "MAX_SIGNS_PER_USER",
			"outputs": [
				{
					"internalType": "uint256",
					"name": "",
					"type": "uint256"
				}
			],
			"stateMutability": "view",
			"type": "function"
		},
		{
			"inputs": [
				{
					"internalType": "address",
					"name": "to",
					"type": "address"
				},
				{
					"internalType": "uint256",
					"name": "tokenId",
					"type": "uint256"
				}
			],
			"name": "approve",
			"outputs": [],
			"stateMutability": "nonpayable",
			"type": "function"
		},
		{
			"inputs": [
				{
					"internalType": "address",
					"name": "owner",
					"type": "address"
				}
			],
			"name": "balanceOf",
			"outputs": [
				{
					"internalType": "uint256",
					"name": "",
					"type": "uint256"
				}
			],
			"stateMutability": "view",
			"type": "function"
		},
		{
			"inputs": [],
			"name": "baseWageRate",
			"outputs": [
				{
					"internalType": "uint256",
					"name": "",
					"type": "uint256"
				}
			],
			"stateMutability": "view",
			"type": "function"
		},
		{
			"inputs": [
				{
					"components": [
						{
							"internalType": "int64",
							"name": "latitude",
							"type": "int64"
						},
						{
							"internalType": "int64",
							"name": "longitude",
							"type": "int64"
						},
						{
							"internalType": "uint64",
							"name": "timestamp",
							"type": "uint64"
						}
					],
					"internalType": "struct ISigns.Location",
					"name": "homeLocation",
					"type": "tuple"
				}
			],
			"name": "createSign",
			"outputs": [
				{
					"internalType": "uint256",
					"name": "",
					"type": "uint256"
				}
			],
			"stateMutability": "nonpayable",
			"type": "function"
		},
		{
			"inputs": [],
			"name": "distanceWeightDivisor",
			"outputs": [
				{
					"internalType": "uint256",
					"name": "",
					"type": "uint256"
				}
			],
			"stateMutability": "view",
			"type": "function"
		},
		{
			"inputs": [
				{
					"internalType": "uint256",
					"name": "tokenId",
					"type": "uint256"
				},
				{
					"components": [
						{
							"internalType": "int64",
							"name": "latitude",
							"type": "int64"
						},
						{
							"internalType": "int64",
							"name": "longitude",
							"type": "int64"
						},
						{
							"internalType": "uint64",
							"name": "timestamp",
							"type": "uint64"
						}
					],
					"internalType": "struct ISigns.Location",
					"name": "location",
					"type": "tuple"
				},
				{
					"internalType": "bytes32",
					"name": "contentHash",
					"type": "bytes32"
				}
			],
			"name": "dropSign",
			"outputs": [],
			"stateMutability": "nonpayable",
			"type": "function"
		},
		{
			"inputs": [
				{
					"internalType": "uint256",
					"name": "tokenId",
					"type": "uint256"
				}
			],
			"name": "getApproved",
			"outputs": [
				{
					"internalType": "address",
					"name": "",
					"type": "address"
				}
			],
			"stateMutability": "view",
			"type": "function"
		},
		{
			"inputs": [
				{
					"internalType": "address",
					"name": "owner",
					"type": "address"
				},
				{
					"internalType": "address",
					"name": "operator",
					"type": "address"
				}
			],
			"name": "isApprovedForAll",
			"outputs": [
				{
					"internalType": "bool",
					"name": "",
					"type": "bool"
				}
			],
			"stateMutability": "view",
			"type": "function"
		},
		{
			"inputs": [],
			"name": "moveWeightDivisor",
			"outputs": [
				{
					"internalType": "uint256",
					"name": "",
					"type": "uint256"
				}
			],
			"stateMutability": "view",
			"type": "function"
		},
		{
			"inputs": [],
			"name": "moveWeightMultiplier",
			"outputs": [
				{
					"internalType": "uint256",
					"name": "",
					"type": "uint256"
				}
			],
			"stateMutability": "view",
			"type": "function"
		},
		{
			"inputs": [],
			"name": "name",
			"outputs": [
				{
					"internalType": "string",
					"name": "",
					"type": "string"
				}
			],
			"stateMutability": "view",
			"type": "function"
		},
		{
			"inputs": [],
			"name": "owner",
			"outputs": [
				{
					"internalType": "address",
					"name": "",
					"type": "address"
				}
			],
			"stateMutability": "view",
			"type": "function"
		},
		{
			"inputs": [
				{
					"internalType": "uint256",
					"name": "tokenId",
					"type": "uint256"
				}
			],
			"name": "ownerOf",
			"outputs": [
				{
					"internalType": "address",
					"name": "",
					"type": "address"
				}
			],
			"stateMutability": "view",
			"type": "function"
		},
		{
			"inputs": [],
			"name": "pause",
			"outputs": [],
			"stateMutability": "nonpayable",
			"type": "function"
		},
		{
			"inputs": [],
			"name": "paused",
			"outputs": [
				{
					"internalType": "bool",
					"name": "",
					"type": "bool"
				}
			],
			"stateMutability": "view",
			"type": "function"
		},
		{
			"inputs": [
				{
					"internalType": "uint256",
					"name": "tokenId",
					"type": "uint256"
				},
				{
					"components": [
						{
							"internalType": "int64",
							"name": "latitude",
							"type": "int64"
						},
						{
							"internalType": "int64",
							"name": "longitude",
							"type": "int64"
						},
						{
							"internalType": "uint64",
							"name": "timestamp",
							"type": "uint64"
						}
					],
					"internalType": "struct ISigns.Location",
					"name": "location",
					"type": "tuple"
				}
			],
			"name": "pickupSign",
			"outputs": [],
			"stateMutability": "nonpayable",
			"type": "function"
		},
		{
			"inputs": [
				{
					"internalType": "uint256",
					"name": "tokenId",
					"type": "uint256"
				},
				{
					"internalType": "address",
					"name": "carrier",
					"type": "address"
				},
				{
					"components": [
						{
							"internalType": "int64",
							"name": "latitude",
							"type": "int64"
						},
						{
							"internalType": "int64",
							"name": "longitude",
							"type": "int64"
						},
						{
							"internalType": "uint64",
							"name": "timestamp",
							"type": "uint64"
						}
					],
					"internalType": "struct ISigns.Location",
					"name": "fromLoc",
					"type": "tuple"
				},
				{
					"components": [
						{
							"internalType": "int64",
							"name": "latitude",
							"type": "int64"
						},
						{
							"internalType": "int64",
							"name": "longitude",
							"type": "int64"
						},
						{
							"internalType": "uint64",
							"name": "timestamp",
							"type": "uint64"
						}
					],
					"internalType": "struct ISigns.Location",
					"name": "toLoc",
					"type": "tuple"
				},
				{
					"internalType": "uint256",
					"name": "wage",
					"type": "uint256"
				},
				{
					"internalType": "bytes32",
					"name": "contentHash",
					"type": "bytes32"
				}
			],
			"name": "recordMovement",
			"outputs": [],
			"stateMutability": "pure",
			"type": "function"
		},
		{
			"inputs": [],
			"name": "renounceOwnership",
			"outputs": [],
			"stateMutability": "nonpayable",
			"type": "function"
		},
		{
			"inputs": [
				{
					"internalType": "address",
					"name": "from",
					"type": "address"
				},
				{
					"internalType": "address",
					"name": "to",
					"type": "address"
				},
				{
					"internalType": "uint256",
					"name": "tokenId",
					"type": "uint256"
				}
			],
			"name": "safeTransferFrom",
			"outputs": [],
			"stateMutability": "nonpayable",
			"type": "function"
		},
		{
			"inputs": [
				{
					"internalType": "address",
					"name": "from",
					"type": "address"
				},
				{
					"internalType": "address",
					"name": "to",
					"type": "address"
				},
				{
					"internalType": "uint256",
					"name": "tokenId",
					"type": "uint256"
				},
				{
					"internalType": "bytes",
					"name": "data",
					"type": "bytes"
				}
			],
			"name": "safeTransferFrom",
			"outputs": [],
			"stateMutability": "nonpayable",
			"type": "function"
		},
		{
			"inputs": [
				{
					"internalType": "address",
					"name": "operator",
					"type": "address"
				},
				{
					"internalType": "bool",
					"name": "approved",
					"type": "bool"
				}
			],
			"name": "setApprovalForAll",
			"outputs": [],
			"stateMutability": "nonpayable",
			"type": "function"
		},
		{
			"inputs": [
				{
					"internalType": "address",
					"name": "_signsHistory",
					"type": "address"
				}
			],
			"name": "setSignsHistory",
			"outputs": [],
			"stateMutability": "nonpayable",
			"type": "function"
		},
		{
			"inputs": [
				{
					"internalType": "uint256",
					"name": "",
					"type": "uint256"
				}
			],
			"name": "signCarriers",
			"outputs": [
				{
					"internalType": "address",
					"name": "",
					"type": "address"
				}
			],
			"stateMutability": "view",
			"type": "function"
		},
		{
			"inputs": [
				{
					"internalType": "uint256",
					"name": "",
					"type": "uint256"
				}
			],
			"name": "signs",
			"outputs": [
				{
					"components": [
						{
							"internalType": "int64",
							"name": "latitude",
							"type": "int64"
						},
						{
							"internalType": "int64",
							"name": "longitude",
							"type": "int64"
						},
						{
							"internalType": "uint64",
							"name": "timestamp",
							"type": "uint64"
						}
					],
					"internalType": "struct ISigns.Location",
					"name": "home",
					"type": "tuple"
				},
				{
					"components": [
						{
							"internalType": "int64",
							"name": "latitude",
							"type": "int64"
						},
						{
							"internalType": "int64",
							"name": "longitude",
							"type": "int64"
						},
						{
							"internalType": "uint64",
							"name": "timestamp",
							"type": "uint64"
						}
					],
					"internalType": "struct ISigns.Location",
					"name": "current",
					"type": "tuple"
				},
				{
					"internalType": "uint256",
					"name": "totalMoves",
					"type": "uint256"
				},
				{
					"internalType": "uint256",
					"name": "totalDistanceMeters",
					"type": "uint256"
				},
				{
					"internalType": "uint256",
					"name": "weight",
					"type": "uint256"
				},
				{
					"internalType": "address",
					"name": "owner",
					"type": "address"
				},
				{
					"internalType": "bool",
					"name": "isPickedUp",
					"type": "bool"
				},
				{
					"internalType": "bytes32",
					"name": "contentHash",
					"type": "bytes32"
				},
				{
					"internalType": "uint256",
					"name": "signWage",
					"type": "uint256"
				}
			],
			"stateMutability": "view",
			"type": "function"
		},
		{
			"inputs": [],
			"name": "signsHistory",
			"outputs": [
				{
					"internalType": "contract ISigns",
					"name": "",
					"type": "address"
				}
			],
			"stateMutability": "view",
			"type": "function"
		},
		{
			"inputs": [
				{
					"internalType": "bytes4",
					"name": "interfaceId",
					"type": "bytes4"
				}
			],
			"name": "supportsInterface",
			"outputs": [
				{
					"internalType": "bool",
					"name": "",
					"type": "bool"
				}
			],
			"stateMutability": "view",
			"type": "function"
		},
		{
			"inputs": [],
			"name": "symbol",
			"outputs": [
				{
					"internalType": "string",
					"name": "",
					"type": "string"
				}
			],
			"stateMutability": "view",
			"type": "function"
		},
		{
			"inputs": [
				{
					"internalType": "uint256",
					"name": "tokenId",
					"type": "uint256"
				}
			],
			"name": "tokenURI",
			"outputs": [
				{
					"internalType": "string",
					"name": "",
					"type": "string"
				}
			],
			"stateMutability": "view",
			"type": "function"
		},
		{
			"inputs": [
				{
					"internalType": "address",
					"name": "from",
					"type": "address"
				},
				{
					"internalType": "address",
					"name": "to",
					"type": "address"
				},
				{
					"internalType": "uint256",
					"name": "tokenId",
					"type": "uint256"
				}
			],
			"name": "transferFrom",
			"outputs": [],
			"stateMutability": "nonpayable",
			"type": "function"
		},
		{
			"inputs": [
				{
					"internalType": "address",
					"name": "newOwner",
					"type": "address"
				}
			],
			"name": "transferOwnership",
			"outputs": [],
			"stateMutability": "nonpayable",
			"type": "function"
		},
		{
			"inputs": [],
			"name": "unpause",
			"outputs": [],
			"stateMutability": "nonpayable",
			"type": "function"
		},
		{
			"inputs": [
				{
					"internalType": "uint256",
					"name": "newRate",
					"type": "uint256"
				}
			],
			"name": "updateBaseWageRate",
			"outputs": [],
			"stateMutability": "nonpayable",
			"type": "function"
		},
		{
			"inputs": [
				{
					"internalType": "uint256",
					"name": "tokenId",
					"type": "uint256"
				},
				{
					"components": [
						{
							"internalType": "int64",
							"name": "latitude",
							"type": "int64"
						},
						{
							"internalType": "int64",
							"name": "longitude",
							"type": "int64"
						},
						{
							"internalType": "uint64",
							"name": "timestamp",
							"type": "uint64"
						}
					],
					"internalType": "struct ISigns.Location",
					"name": "newHome",
					"type": "tuple"
				}
			],
			"name": "updateHome",
			"outputs": [],
			"stateMutability": "nonpayable",
			"type": "function"
		},
		{
			"inputs": [
				{
					"internalType": "uint256",
					"name": "tokenId",
					"type": "uint256"
				},
				{
					"internalType": "uint256",
					"name": "newWage",
					"type": "uint256"
				}
			],
			"name": "updateSignWage",
			"outputs": [],
			"stateMutability": "nonpayable",
			"type": "function"
		},
		{
			"inputs": [
				{
					"internalType": "uint256",
					"name": "newMoveWeightMultiplier",
					"type": "uint256"
				},
				{
					"internalType": "uint256",
					"name": "newMoveWeightDivisor",
					"type": "uint256"
				},
				{
					"internalType": "uint256",
					"name": "newDistanceWeightDivisor",
					"type": "uint256"
				}
			],
			"name": "updateWeightParameters",
			"outputs": [],
			"stateMutability": "nonpayable",
			"type": "function"
		},
		{
			"inputs": [
				{
					"internalType": "address",
					"name": "",
					"type": "address"
				}
			],
			"name": "userSignCount",
			"outputs": [
				{
					"internalType": "uint256",
					"name": "",
					"type": "uint256"
				}
			],
			"stateMutability": "view",
			"type": "function"
		}
	]
}