{
	"data": {
		"bytecode": {
			"linkReferences": {},
			"object": "608060405234801561000f575f80fd5b5060405161311b38038061311b8339818101604052810190610031919061079c565b33848481600390816100439190610a45565b5080600490816100539190610a45565b5050505f60055f6101000a81548160ff0219169083151502179055505f73ffffffffffffffffffffffffffffffffffffffff168173ffffffffffffffffffffffffffffffffffffffff16036100df575f6040517f1e4fbdf70000000000000000000000000000000000000000000000000000000081526004016100d69190610b23565b60405180910390fd5b6100ee8161028a60201b60201c565b5060016006819055505f73ffffffffffffffffffffffffffffffffffffffff168273ffffffffffffffffffffffffffffffffffffffff160361015c576040517ff8af67e500000000000000000000000000000000000000000000000000000000815260040160405180910390fd5b5f73ffffffffffffffffffffffffffffffffffffffff168173ffffffffffffffffffffffffffffffffffffffff16036101c1576040517fcfe2ea6300000000000000000000000000000000000000000000000000000000815260040160405180910390fd5b8160075f6101000a81548173ffffffffffffffffffffffffffffffffffffffff021916908373ffffffffffffffffffffffffffffffffffffffff1602179055508060095f6101000a81548173ffffffffffffffffffffffffffffffffffffffff021916908373ffffffffffffffffffffffffffffffffffffffff1602179055506101f46008819055506102813361025c61034f60201b60201c565b600a6102689190610ca4565b620f42406102769190610cee565b61035760201b60201c565b50505050610dbf565b5f600560019054906101000a900473ffffffffffffffffffffffffffffffffffffffff16905081600560016101000a81548173ffffffffffffffffffffffffffffffffffffffff021916908373ffffffffffffffffffffffffffffffffffffffff1602179055508173ffffffffffffffffffffffffffffffffffffffff168173ffffffffffffffffffffffffffffffffffffffff167f8be0079c531659141344cd1fd0a4f28419497f9722a3daafe3b4186f6b6457e060405160405180910390a35050565b5f6012905090565b5f73ffffffffffffffffffffffffffffffffffffffff168273ffffffffffffffffffffffffffffffffffffffff16036103c7575f6040517fec442f050000000000000000000000000000000000000000000000000000000081526004016103be9190610b23565b60405180910390fd5b6103d85f83836103dc60201b60201c565b5050565b5f73ffffffffffffffffffffffffffffffffffffffff168373ffffffffffffffffffffffffffffffffffffffff160361042c578060025f8282546104209190610d2f565b925050819055506104fa565b5f805f8573ffffffffffffffffffffffffffffffffffffffff1673ffffffffffffffffffffffffffffffffffffffff1681526020019081526020015f20549050818110156104b5578381836040517fe450d38c0000000000000000000000000000000000000000000000000000000081526004016104ac93929190610d71565b60405180910390fd5b8181035f808673ffffffffffffffffffffffffffffffffffffffff1673ffffffffffffffffffffffffffffffffffffffff1681526020019081526020015f2081905550505b5f73ffffffffffffffffffffffffffffffffffffffff168273ffffffffffffffffffffffffffffffffffffffff1603610541578060025f828254039250508190555061058b565b805f808473ffffffffffffffffffffffffffffffffffffffff1673ffffffffffffffffffffffffffffffffffffffff1681526020019081526020015f205f82825401925050819055505b8173ffffffffffffffffffffffffffffffffffffffff168373ffffffffffffffffffffffffffffffffffffffff167fddf252ad1be2c89b69c2b068fc378daa952ba7f163c4a11628f55a4df523b3ef836040516105e89190610da6565b60405180910390a3505050565b5f604051905090565b5f80fd5b5f80fd5b5f80fd5b5f80fd5b5f601f19601f8301169050919050565b7f4e487b71000000000000000000000000000000000000000000000000000000005f52604160045260245ffd5b6106548261060e565b810181811067ffffffffffffffff821117156106735761067261061e565b5b80604052505050565b5f6106856105f5565b9050610691828261064b565b919050565b5f67ffffffffffffffff8211156106b0576106af61061e565b5b6106b98261060e565b9050602081019050919050565b8281835e5f83830152505050565b5f6106e66106e184610696565b61067c565b9050828152602081018484840111156107025761070161060a565b5b61070d8482856106c6565b509392505050565b5f82601f83011261072957610728610606565b5b81516107398482602086016106d4565b91505092915050565b5f73ffffffffffffffffffffffffffffffffffffffff82169050919050565b5f61076b82610742565b9050919050565b61077b81610761565b8114610785575f80fd5b50565b5f8151905061079681610772565b92915050565b5f805f80608085870312156107b4576107b36105fe565b5b5f85015167ffffffffffffffff8111156107d1576107d0610602565b5b6107dd87828801610715565b945050602085015167ffffffffffffffff8111156107fe576107fd610602565b5b61080a87828801610715565b935050604061081b87828801610788565b925050606061082c87828801610788565b91505092959194509250565b5f81519050919050565b7f4e487b71000000000000000000000000000000000000000000000000000000005f52602260045260245ffd5b5f600282049050600182168061088657607f821691505b60208210810361089957610898610842565b5b50919050565b5f819050815f5260205f209050919050565b5f6020601f8301049050919050565b5f82821b905092915050565b5f600883026108fb7fffffffffffffffffffffffffffffffffffffffffffffffffffffffffffffffff826108c0565b61090586836108c0565b95508019841693508086168417925050509392505050565b5f819050919050565b5f819050919050565b5f61094961094461093f8461091d565b610926565b61091d565b9050919050565b5f819050919050565b6109628361092f565b61097661096e82610950565b8484546108cc565b825550505050565b5f90565b61098a61097e565b610995818484610959565b505050565b5b818110156109b8576109ad5f82610982565b60018101905061099b565b5050565b601f8211156109fd576109ce8161089f565b6109d7846108b1565b810160208510156109e6578190505b6109fa6109f2856108b1565b83018261099a565b50505b505050565b5f82821c905092915050565b5f610a1d5f1984600802610a02565b1980831691505092915050565b5f610a358383610a0e565b9150826002028217905092915050565b610a4e82610838565b67ffffffffffffffff811115610a6757610a6661061e565b5b610a71825461086f565b610a7c8282856109bc565b5f60209050601f831160018114610aad575f8415610a9b578287015190505b610aa58582610a2a565b865550610b0c565b601f198416610abb8661089f565b5f5b82811015610ae257848901518255600182019150602085019450602081019050610abd565b86831015610aff5784890151610afb601f891682610a0e565b8355505b6001600288020188555050505b505050505050565b610b1d81610761565b82525050565b5f602082019050610b365f830184610b14565b92915050565b7f4e487b71000000000000000000000000000000000000000000000000000000005f52601160045260245ffd5b5f8160011c9050919050565b5f808291508390505b6001851115610bbe57808604811115610b9a57610b99610b3c565b5b6001851615610ba95780820291505b8081029050610bb785610b69565b9450610b7e565b94509492505050565b5f82610bd65760019050610c91565b81610be3575f9050610c91565b8160018114610bf95760028114610c0357610c32565b6001915050610c91565b60ff841115610c1557610c14610b3c565b5b8360020a915084821115610c2c57610c2b610b3c565b5b50610c91565b5060208310610133831016604e8410600b8410161715610c675782820a905083811115610c6257610c61610b3c565b5b610c91565b610c748484846001610b75565b92509050818404811115610c8b57610c8a610b3c565b5b81810290505b9392505050565b5f60ff82169050919050565b5f610cae8261091d565b9150610cb983610c98565b9250610ce67fffffffffffffffffffffffffffffffffffffffffffffffffffffffffffffffff8484610bc7565b905092915050565b5f610cf88261091d565b9150610d038361091d565b9250828202610d118161091d565b91508282048414831517610d2857610d27610b3c565b5b5092915050565b5f610d398261091d565b9150610d448361091d565b9250828201905080821115610d5c57610d5b610b3c565b5b92915050565b610d6b8161091d565b82525050565b5f606082019050610d845f830186610b14565b610d916020830185610d62565b610d9e6040830184610d62565b949350505050565b5f602082019050610db95f830184610d62565b92915050565b61234f80610dcc5f395ff3fe608060405234801561000f575f80fd5b506004361061018c575f3560e01c806377d3550b116100dc578063a9059cbb11610095578063dd62ed3e1161006f578063dd62ed3e1461044b578063e95850df1461047b578063ef9ecc1d14610499578063f2fde38b146104c95761018c565b8063a9059cbb146103cf578063a9b493e0146103ff578063ca5254851461041b5761018c565b806377d3550b146103315780638456cb591461034f5780638da5cb5b1461035957806395d89b41146103775780639d55fba714610395578063a3262ea2146103b15761018c565b8063313ce567116101495780635e182096116101235780635e182096146102bf57806370a08231146102db578063715018a61461030b57806374612f19146103155761018c565b8063313ce567146102795780633f4ba83a146102975780635c975abb146102a15761018c565b806306fdde0314610190578063095ea7b3146101ae57806318160ddd146101de5780631ec48cf7146101fc57806323b872dd1461022d5780632fcdc5fd1461025d575b5f80fd5b6101986104e5565b6040516101a59190611ac8565b60405180910390f35b6101c860048036038101906101c39190611b79565b610575565b6040516101d59190611bd1565b60405180910390f35b6101e6610597565b6040516101f39190611bf9565b60405180910390f35b61021660048036038101906102119190611c12565b6105a0565b604051610224929190611c3d565b60405180910390f35b61024760048036038101906102429190611c64565b6105be565b6040516102549190611bd1565b60405180910390f35b61027760048036038101906102729190611c12565b6105db565b005b6102816106c2565b60405161028e9190611ccf565b60405180910390f35b61029f6106ca565b005b6102a96106dc565b6040516102b69190611bd1565b60405180910390f35b6102d960048036038101906102d49190611ce8565b6106f1565b005b6102f560048036038101906102f09190611c12565b6107c5565b6040516103029190611bf9565b60405180910390f35b61031361080a565b005b61032f600480360381019061032a9190611c12565b61081d565b005b610339610904565b6040516103469190611bf9565b60405180910390f35b61035761090a565b005b61036161091c565b60405161036e9190611d35565b60405180910390f35b61037f610945565b60405161038c9190611ac8565b60405180910390f35b6103af60048036038101906103aa9190611d4e565b6109d5565b005b6103b9610a5a565b6040516103c69190611d35565b60405180910390f35b6103e960048036038101906103e49190611b79565b610a7f565b6040516103f69190611bd1565b60405180910390f35b61041960048036038101906104149190611ce8565b610a9a565b005b61043560048036038101906104309190611d4e565b610c3e565b6040516104429190611bf9565b60405180910390f35b61046560048036038101906104609190611d79565b610c53565b6040516104729190611bf9565b60405180910390f35b610483610cd5565b6040516104909190611d35565b60405180910390f35b6104b360048036038101906104ae9190611db7565b610cfa565b6040516104c09190611e65565b60405180910390f35b6104e360048036038101906104de9190611c12565b6110db565b005b6060600380546104f490611eab565b80601f016020809104026020016040519081016040528092919081815260200182805461052090611eab565b801561056b5780601f106105425761010080835404028352916020019161056b565b820191905f5260205f20905b81548152906001019060200180831161054e57829003601f168201915b5050505050905090565b5f8061057f61115f565b905061058c818585611166565b600191505092915050565b5f600254905090565b5f806105ab836107c5565b6105b58430610c53565b91509150915091565b5f6105c7611178565b6105d28484846111c2565b90509392505050565b6105e36111f0565b5f73ffffffffffffffffffffffffffffffffffffffff168173ffffffffffffffffffffffffffffffffffffffff1603610648576040517ff8af67e500000000000000000000000000000000000000000000000000000000815260040160405180910390fd5b8060075f6101000a81548173ffffffffffffffffffffffffffffffffffffffff021916908373ffffffffffffffffffffffffffffffffffffffff1602179055507ff2610996d245d9b77e4ff84c2174eea0b76fb44c422218404f66e28816d78fb9816040516106b79190611d35565b60405180910390a150565b5f6012905090565b6106d26111f0565b6106da611277565b565b5f60055f9054906101000a900460ff16905090565b6106f96112d8565b610701611178565b5f810361073a576040517f2c5211c600000000000000000000000000000000000000000000000000000000815260040160405180910390fd5b5f3390505f30905061074d828285611327565b6107588282856113b9565b82600a5f8681526020019081526020015f205f8282546107789190611f08565b92505081905550837f577dfadb80ab9a5336c633f3fa5f59c296d18a29aa6ae9e4598762748e1f4afd846040516107af9190611bf9565b60405180910390a250506107c16114a9565b5050565b5f805f8373ffffffffffffffffffffffffffffffffffffffff1673ffffffffffffffffffffffffffffffffffffffff1681526020019081526020015f20549050919050565b6108126111f0565b61081b5f6114b3565b565b6108256111f0565b5f73ffffffffffffffffffffffffffffffffffffffff168173ffffffffffffffffffffffffffffffffffffffff160361088a576040517fcfe2ea6300000000000000000000000000000000000000000000000000000000815260040160405180910390fd5b8060095f6101000a81548173ffffffffffffffffffffffffffffffffffffffff021916908373ffffffffffffffffffffffffffffffffffffffff1602179055507f4422c0c4b301436298cce7de4b586b1e044e671d0efbfeb88689161ebd95dd4f816040516108f99190611d35565b60405180910390a150565b60085481565b6109126111f0565b61091a611578565b565b5f600560019054906101000a900473ffffffffffffffffffffffffffffffffffffffff16905090565b60606004805461095490611eab565b80601f016020809104026020016040519081016040528092919081815260200182805461098090611eab565b80156109cb5780601f106109a2576101008083540402835291602001916109cb565b820191905f5260205f20905b8154815290600101906020018083116109ae57829003601f168201915b5050505050905090565b6109dd6111f0565b612710811115610a19576040517fdc81db8500000000000000000000000000000000000000000000000000000000815260040160405180910390fd5b806008819055507f13f60dd2b588490608c3ff1932a3daeb4087f3d5af04b97e5c2a16b5b4c0302e81604051610a4f9190611bf9565b60405180910390a150565b60075f9054906101000a900473ffffffffffffffffffffffffffffffffffffffff1681565b5f610a88611178565b610a9283836115da565b905092915050565b610aa26112d8565b610aaa611178565b610ab433836115fc565b610aea576040517fde271cf500000000000000000000000000000000000000000000000000000000815260040160405180910390fd5b5f8103610b23576040517f2c5211c600000000000000000000000000000000000000000000000000000000815260040160405180910390fd5b80600a5f8481526020019081526020015f20541015610b6e576040517fa77130ef00000000000000000000000000000000000000000000000000000000815260040160405180910390fd5b80600a5f8481526020019081526020015f205f828254610b8e9190611f3b565b925050819055505f610ba03383610a7f565b905080610be2576040517f08c379a0000000000000000000000000000000000000000000000000000000008152600401610bd990611fb8565b60405180910390fd5b3373ffffffffffffffffffffffffffffffffffffffff16837f4e073dd16eec477fbb059bda1f0796f0d06eebc4c53568e3e77a4084228fd4eb84604051610c299190611bf9565b60405180910390a350610c3a6114a9565b5050565b600a602052805f5260405f205f915090505481565b5f60015f8473ffffffffffffffffffffffffffffffffffffffff1673ffffffffffffffffffffffffffffffffffffffff1681526020019081526020015f205f8373ffffffffffffffffffffffffffffffffffffffff1673ffffffffffffffffffffffffffffffffffffffff1681526020019081526020015f2054905092915050565b60095f9054906101000a900473ffffffffffffffffffffffffffffffffffffffff1681565b610d02611a38565b60075f9054906101000a900473ffffffffffffffffffffffffffffffffffffffff1673ffffffffffffffffffffffffffffffffffffffff163373ffffffffffffffffffffffffffffffffffffffff1614610d88576040517f5c427cd900000000000000000000000000000000000000000000000000000000815260040160405180910390fd5b610d906112d8565b610d98611178565b5f8203610dd1576040517f2c5211c600000000000000000000000000000000000000000000000000000000815260040160405180910390fd5b5f600a5f8681526020019081526020015f205490505f8382101590505f808215610f935761271060085487610e069190611fd6565b610e109190612044565b90508086610e1e9190611f3b565b91508584610e2c9190611f3b565b600a5f8a81526020019081526020015f20819055505f811115610ef1575f610e7560095f9054906101000a900473ffffffffffffffffffffffffffffffffffffffff1683610a7f565b905080610eb7576040517f08c379a0000000000000000000000000000000000000000000000000000000008152600401610eae906120be565b60405180910390fd5b887facfa15ebe340982fef95d43aafc25d741382d7928a00055a209274fa615d527783604051610ee79190611bf9565b60405180910390a2505b5f610efc8884610a7f565b905080610f3e576040517f08c379a0000000000000000000000000000000000000000000000000000000008152600401610f3590612126565b60405180910390fd5b8773ffffffffffffffffffffffffffffffffffffffff16897f4c3044279daea82275bc16a26600fe0c196cb65422b138c02dc86fb861b174ca85604051610f859190611bf9565b60405180910390a35061109d565b8391505f90505f600a5f8a81526020019081526020015f20819055505f821115611062575f610fc28884610a7f565b905080611004576040517f08c379a0000000000000000000000000000000000000000000000000000000008152600401610ffb9061218e565b60405180910390fd5b8773ffffffffffffffffffffffffffffffffffffffff16897f5d16c483bee69284681447fe545192acc0f537a2cd7c2cd35593a1edb524329085868b61104a9190611f3b565b604051611058929190611c3d565b60405180910390a3505b877f574264649c9d702f91c09e683982319da6546e5cfee0a4898a3bd6bf1c63042f8588604051611094929190611c3d565b60405180910390a25b604051806060016040528083815260200183886110ba9190611f3b565b8152602001841515158152509450505050506110d46114a9565b9392505050565b6110e36111f0565b5f73ffffffffffffffffffffffffffffffffffffffff168173ffffffffffffffffffffffffffffffffffffffff1603611153575f6040517f1e4fbdf700000000000000000000000000000000000000000000000000000000815260040161114a9190611d35565b60405180910390fd5b61115c816114b3565b50565b5f33905090565b6111738383836001611607565b505050565b6111806106dc565b156111c0576040517f08c379a00000000000000000000000000000000000000000000000000000000081526004016111b7906121f6565b60405180910390fd5b565b5f806111cc61115f565b90506111d9858285611327565b6111e48585856113b9565b60019150509392505050565b6111f861115f565b73ffffffffffffffffffffffffffffffffffffffff1661121661091c565b73ffffffffffffffffffffffffffffffffffffffff16146112755761123961115f565b6040517f118cdaa700000000000000000000000000000000000000000000000000000000815260040161126c9190611d35565b60405180910390fd5b565b61127f6117d6565b5f60055f6101000a81548160ff0219169083151502179055507f5db9ee0a495bf2e6ff9c91a7834c1ba4fdd244a5e8aa4e537bd38aeae4b073aa6112c161115f565b6040516112ce9190611d35565b60405180910390a1565b60026006540361131d576040517f08c379a00000000000000000000000000000000000000000000000000000000081526004016113149061225e565b60405180910390fd5b6002600681905550565b5f6113328484610c53565b90507fffffffffffffffffffffffffffffffffffffffffffffffffffffffffffffffff81146113b357818110156113a4578281836040517ffb8f41b200000000000000000000000000000000000000000000000000000000815260040161139b9392919061227c565b60405180910390fd5b6113b284848484035f611607565b5b50505050565b5f73ffffffffffffffffffffffffffffffffffffffff168373ffffffffffffffffffffffffffffffffffffffff1603611429575f6040517f96c6fd1e0000000000000000000000000000000000000000000000000000000081526004016114209190611d35565b60405180910390fd5b5f73ffffffffffffffffffffffffffffffffffffffff168273ffffffffffffffffffffffffffffffffffffffff1603611499575f6040517fec442f050000000000000000000000000000000000000000000000000000000081526004016114909190611d35565b60405180910390fd5b6114a483838361181f565b505050565b6001600681905550565b5f600560019054906101000a900473ffffffffffffffffffffffffffffffffffffffff16905081600560016101000a81548173ffffffffffffffffffffffffffffffffffffffff021916908373ffffffffffffffffffffffffffffffffffffffff1602179055508173ffffffffffffffffffffffffffffffffffffffff168173ffffffffffffffffffffffffffffffffffffffff167f8be0079c531659141344cd1fd0a4f28419497f9722a3daafe3b4186f6b6457e060405160405180910390a35050565b611580611178565b600160055f6101000a81548160ff0219169083151502179055507f62e78cea01bee320cd4e420270b5ea74000d11b0c9f74754ebdbfc544b05a2586115c361115f565b6040516115d09190611d35565b60405180910390a1565b5f806115e461115f565b90506115f18185856113b9565b600191505092915050565b5f6001905092915050565b5f73ffffffffffffffffffffffffffffffffffffffff168473ffffffffffffffffffffffffffffffffffffffff1603611677575f6040517fe602df0500000000000000000000000000000000000000000000000000000000815260040161166e9190611d35565b60405180910390fd5b5f73ffffffffffffffffffffffffffffffffffffffff168373ffffffffffffffffffffffffffffffffffffffff16036116e7575f6040517f94280d620000000000000000000000000000000000000000000000000000000081526004016116de9190611d35565b60405180910390fd5b8160015f8673ffffffffffffffffffffffffffffffffffffffff1673ffffffffffffffffffffffffffffffffffffffff1681526020019081526020015f205f8573ffffffffffffffffffffffffffffffffffffffff1673ffffffffffffffffffffffffffffffffffffffff1681526020019081526020015f208190555080156117d0578273ffffffffffffffffffffffffffffffffffffffff168473ffffffffffffffffffffffffffffffffffffffff167f8c5be1e5ebec7d5bd14f71427d1e84f3dd0314c0f7b2291e5b200ac8c7c3b925846040516117c79190611bf9565b60405180910390a35b50505050565b6117de6106dc565b61181d576040517f08c379a0000000000000000000000000000000000000000000000000000000008152600401611814906122fb565b60405180910390fd5b565b5f73ffffffffffffffffffffffffffffffffffffffff168373ffffffffffffffffffffffffffffffffffffffff160361186f578060025f8282546118639190611f08565b9250508190555061193d565b5f805f8573ffffffffffffffffffffffffffffffffffffffff1673ffffffffffffffffffffffffffffffffffffffff1681526020019081526020015f20549050818110156118f8578381836040517fe450d38c0000000000000000000000000000000000000000000000000000000081526004016118ef9392919061227c565b60405180910390fd5b8181035f808673ffffffffffffffffffffffffffffffffffffffff1673ffffffffffffffffffffffffffffffffffffffff1681526020019081526020015f2081905550505b5f73ffffffffffffffffffffffffffffffffffffffff168273ffffffffffffffffffffffffffffffffffffffff1603611984578060025f82825403925050819055506119ce565b805f808473ffffffffffffffffffffffffffffffffffffffff1673ffffffffffffffffffffffffffffffffffffffff1681526020019081526020015f205f82825401925050819055505b8173ffffffffffffffffffffffffffffffffffffffff168373ffffffffffffffffffffffffffffffffffffffff167fddf252ad1be2c89b69c2b068fc378daa952ba7f163c4a11628f55a4df523b3ef83604051611a2b9190611bf9565b60405180910390a3505050565b60405180606001604052805f81526020015f81526020015f151581525090565b5f81519050919050565b5f82825260208201905092915050565b8281835e5f83830152505050565b5f601f19601f8301169050919050565b5f611a9a82611a58565b611aa48185611a62565b9350611ab4818560208601611a72565b611abd81611a80565b840191505092915050565b5f6020820190508181035f830152611ae08184611a90565b905092915050565b5f80fd5b5f73ffffffffffffffffffffffffffffffffffffffff82169050919050565b5f611b1582611aec565b9050919050565b611b2581611b0b565b8114611b2f575f80fd5b50565b5f81359050611b4081611b1c565b92915050565b5f819050919050565b611b5881611b46565b8114611b62575f80fd5b50565b5f81359050611b7381611b4f565b92915050565b5f8060408385031215611b8f57611b8e611ae8565b5b5f611b9c85828601611b32565b9250506020611bad85828601611b65565b9150509250929050565b5f8115159050919050565b611bcb81611bb7565b82525050565b5f602082019050611be45f830184611bc2565b92915050565b611bf381611b46565b82525050565b5f602082019050611c0c5f830184611bea565b92915050565b5f60208284031215611c2757611c26611ae8565b5b5f611c3484828501611b32565b91505092915050565b5f604082019050611c505f830185611bea565b611c5d6020830184611bea565b9392505050565b5f805f60608486031215611c7b57611c7a611ae8565b5b5f611c8886828701611b32565b9350506020611c9986828701611b32565b9250506040611caa86828701611b65565b9150509250925092565b5f60ff82169050919050565b611cc981611cb4565b82525050565b5f602082019050611ce25f830184611cc0565b92915050565b5f8060408385031215611cfe57611cfd611ae8565b5b5f611d0b85828601611b65565b9250506020611d1c85828601611b65565b9150509250929050565b611d2f81611b0b565b82525050565b5f602082019050611d485f830184611d26565b92915050565b5f60208284031215611d6357611d62611ae8565b5b5f611d7084828501611b65565b91505092915050565b5f8060408385031215611d8f57611d8e611ae8565b5b5f611d9c85828601611b32565b9250506020611dad85828601611b32565b9150509250929050565b5f805f60608486031215611dce57611dcd611ae8565b5b5f611ddb86828701611b65565b9350506020611dec86828701611b32565b9250506040611dfd86828701611b65565b9150509250925092565b611e1081611b46565b82525050565b611e1f81611bb7565b82525050565b606082015f820151611e395f850182611e07565b506020820151611e4c6020850182611e07565b506040820151611e5f6040850182611e16565b50505050565b5f606082019050611e785f830184611e25565b92915050565b7f4e487b71000000000000000000000000000000000000000000000000000000005f52602260045260245ffd5b5f6002820490506001821680611ec257607f821691505b602082108103611ed557611ed4611e7e565b5b50919050565b7f4e487b71000000000000000000000000000000000000000000000000000000005f52601160045260245ffd5b5f611f1282611b46565b9150611f1d83611b46565b9250828201905080821115611f3557611f34611edb565b5b92915050565b5f611f4582611b46565b9150611f5083611b46565b9250828203905081811115611f6857611f67611edb565b5b92915050565b7f5472616e73666572206661696c656400000000000000000000000000000000005f82015250565b5f611fa2600f83611a62565b9150611fad82611f6e565b602082019050919050565b5f6020820190508181035f830152611fcf81611f96565b9050919050565b5f611fe082611b46565b9150611feb83611b46565b9250828202611ff981611b46565b915082820484148315176120105761200f611edb565b5b5092915050565b7f4e487b71000000000000000000000000000000000000000000000000000000005f52601260045260245ffd5b5f61204e82611b46565b915061205983611b46565b92508261206957612068612017565b5b828204905092915050565b7f436f6d6d697373696f6e207472616e73666572206661696c65640000000000005f82015250565b5f6120a8601a83611a62565b91506120b382612074565b602082019050919050565b5f6020820190508181035f8301526120d58161209c565b9050919050565b7f57616765207472616e73666572206661696c65640000000000000000000000005f82015250565b5f612110601483611a62565b915061211b826120dc565b602082019050919050565b5f6020820190508181035f83015261213d81612104565b9050919050565b7f5061727469616c2077616765207472616e73666572206661696c6564000000005f82015250565b5f612178601c83611a62565b915061218382612144565b602082019050919050565b5f6020820190508181035f8301526121a58161216c565b9050919050565b7f5061757361626c653a20706175736564000000000000000000000000000000005f82015250565b5f6121e0601083611a62565b91506121eb826121ac565b602082019050919050565b5f6020820190508181035f83015261220d816121d4565b9050919050565b7f5265656e7472616e637947756172643a207265656e7472616e742063616c6c005f82015250565b5f612248601f83611a62565b915061225382612214565b602082019050919050565b5f6020820190508181035f8301526122758161223c565b9050919050565b5f60608201905061228f5f830186611d26565b61229c6020830185611bea565b6122a96040830184611bea565b949350505050565b7f5061757361626c653a206e6f74207061757365640000000000000000000000005f82015250565b5f6122e5601483611a62565b91506122f0826122b1565b602082019050919050565b5f6020820190508181035f830152612312816122d9565b905091905056fea26469706673582212203501cbd271b1f4877697d87cede09c92ac36cf5b87d50f1a06d9b6f6caa7733264736f6c634300081a0033",
			"opcodes": "PUSH1 0x80 PUSH1 0x40 MSTORE CALLVALUE DUP1 ISZERO PUSH2 0xF JUMPI PUSH0 DUP1 REVERT JUMPDEST POP PUSH1 0x40 MLOAD PUSH2 0x311B CODESIZE SUB DUP1 PUSH2 0x311B DUP4 CODECOPY DUP2 DUP2 ADD PUSH1 0x40 MSTORE DUP2 ADD SWAP1 PUSH2 0x31 SWAP2 SWAP1 PUSH2 0x79C JUMP JUMPDEST CALLER DUP5 DUP5 DUP2 PUSH1 0x3 SWAP1 DUP2 PUSH2 0x43 SWAP2 SWAP1 PUSH2 0xA45 JUMP JUMPDEST POP DUP1 PUSH1 0x4 SWAP1 DUP2 PUSH2 0x53 SWAP2 SWAP1 PUSH2 0xA45 JUMP JUMPDEST POP POP POP PUSH0 PUSH1 0x5 PUSH0 PUSH2 0x100 EXP DUP2 SLOAD DUP2 PUSH1 0xFF MUL NOT AND SWAP1 DUP4 ISZERO ISZERO MUL OR SWAP1 SSTORE POP PUSH0 PUSH20 0xFFFFFFFFFFFFFFFFFFFFFFFFFFFFFFFFFFFFFFFF AND DUP2 PUSH20 0xFFFFFFFFFFFFFFFFFFFFFFFFFFFFFFFFFFFFFFFF AND SUB PUSH2 0xDF JUMPI PUSH0 PUSH1 0x40 MLOAD PUSH32 0x1E4FBDF700000000000000000000000000000000000000000000000000000000 DUP2 MSTORE PUSH1 0x4 ADD PUSH2 0xD6 SWAP2 SWAP1 PUSH2 0xB23 JUMP JUMPDEST PUSH1 0x40 MLOAD DUP1 SWAP2 SUB SWAP1 REVERT JUMPDEST PUSH2 0xEE DUP2 PUSH2 0x28A PUSH1 0x20 SHL PUSH1 0x20 SHR JUMP JUMPDEST POP PUSH1 0x1 PUSH1 0x6 DUP2 SWAP1 SSTORE POP PUSH0 PUSH20 0xFFFFFFFFFFFFFFFFFFFFFFFFFFFFFFFFFFFFFFFF AND DUP3 PUSH20 0xFFFFFFFFFFFFFFFFFFFFFFFFFFFFFFFFFFFFFFFF AND SUB PUSH2 0x15C JUMPI PUSH1 0x40 MLOAD PUSH32 0xF8AF67E500000000000000000000000000000000000000000000000000000000 DUP2 MSTORE PUSH1 0x4 ADD PUSH1 0x40 MLOAD DUP1 SWAP2 SUB SWAP1 REVERT JUMPDEST PUSH0 PUSH20 0xFFFFFFFFFFFFFFFFFFFFFFFFFFFFFFFFFFFFFFFF AND DUP2 PUSH20 0xFFFFFFFFFFFFFFFFFFFFFFFFFFFFFFFFFFFFFFFF AND SUB PUSH2 0x1C1 JUMPI PUSH1 0x40 MLOAD PUSH32 0xCFE2EA6300000000000000000000000000000000000000000000000000000000 DUP2 MSTORE PUSH1 0x4 ADD PUSH1 0x40 MLOAD DUP1 SWAP2 SUB SWAP1 REVERT JUMPDEST DUP2 PUSH1 0x7 PUSH0 PUSH2 0x100 EXP DUP2 SLOAD DUP2 PUSH20 0xFFFFFFFFFFFFFFFFFFFFFFFFFFFFFFFFFFFFFFFF MUL NOT AND SWAP1 DUP4 PUSH20 0xFFFFFFFFFFFFFFFFFFFFFFFFFFFFFFFFFFFFFFFF AND MUL OR SWAP1 SSTORE POP DUP1 PUSH1 0x9 PUSH0 PUSH2 0x100 EXP DUP2 SLOAD DUP2 PUSH20 0xFFFFFFFFFFFFFFFFFFFFFFFFFFFFFFFFFFFFFFFF MUL NOT AND SWAP1 DUP4 PUSH20 0xFFFFFFFFFFFFFFFFFFFFFFFFFFFFFFFFFFFFFFFF AND MUL OR SWAP1 SSTORE POP PUSH2 0x1F4 PUSH1 0x8 DUP2 SWAP1 SSTORE POP PUSH2 0x281 CALLER PUSH2 0x25C PUSH2 0x34F PUSH1 0x20 SHL PUSH1 0x20 SHR JUMP JUMPDEST PUSH1 0xA PUSH2 0x268 SWAP2 SWAP1 PUSH2 0xCA4 JUMP JUMPDEST PUSH3 0xF4240 PUSH2 0x276 SWAP2 SWAP1 PUSH2 0xCEE JUMP JUMPDEST PUSH2 0x357 PUSH1 0x20 SHL PUSH1 0x20 SHR JUMP JUMPDEST POP POP POP POP PUSH2 0xDBF JUMP JUMPDEST PUSH0 PUSH1 0x5 PUSH1 0x1 SWAP1 SLOAD SWAP1 PUSH2 0x100 EXP SWAP1 DIV PUSH20 0xFFFFFFFFFFFFFFFFFFFFFFFFFFFFFFFFFFFFFFFF AND SWAP1 POP DUP2 PUSH1 0x5 PUSH1 0x1 PUSH2 0x100 EXP DUP2 SLOAD DUP2 PUSH20 0xFFFFFFFFFFFFFFFFFFFFFFFFFFFFFFFFFFFFFFFF MUL NOT AND SWAP1 DUP4 PUSH20 0xFFFFFFFFFFFFFFFFFFFFFFFFFFFFFFFFFFFFFFFF AND MUL OR SWAP1 SSTORE POP DUP2 PUSH20 0xFFFFFFFFFFFFFFFFFFFFFFFFFFFFFFFFFFFFFFFF AND DUP2 PUSH20 0xFFFFFFFFFFFFFFFFFFFFFFFFFFFFFFFFFFFFFFFF AND PUSH32 0x8BE0079C531659141344CD1FD0A4F28419497F9722A3DAAFE3B4186F6B6457E0 PUSH1 0x40 MLOAD PUSH1 0x40 MLOAD DUP1 SWAP2 SUB SWAP1 LOG3 POP POP JUMP JUMPDEST PUSH0 PUSH1 0x12 SWAP1 POP SWAP1 JUMP JUMPDEST PUSH0 PUSH20 0xFFFFFFFFFFFFFFFFFFFFFFFFFFFFFFFFFFFFFFFF AND DUP3 PUSH20 0xFFFFFFFFFFFFFFFFFFFFFFFFFFFFFFFFFFFFFFFF AND SUB PUSH2 0x3C7 JUMPI PUSH0 PUSH1 0x40 MLOAD PUSH32 0xEC442F0500000000000000000000000000000000000000000000000000000000 DUP2 MSTORE PUSH1 0x4 ADD PUSH2 0x3BE SWAP2 SWAP1 PUSH2 0xB23 JUMP JUMPDEST PUSH1 0x40 MLOAD DUP1 SWAP2 SUB SWAP1 REVERT JUMPDEST PUSH2 0x3D8 PUSH0 DUP4 DUP4 PUSH2 0x3DC PUSH1 0x20 SHL PUSH1 0x20 SHR JUMP JUMPDEST POP POP JUMP JUMPDEST PUSH0 PUSH20 0xFFFFFFFFFFFFFFFFFFFFFFFFFFFFFFFFFFFFFFFF AND DUP4 PUSH20 0xFFFFFFFFFFFFFFFFFFFFFFFFFFFFFFFFFFFFFFFF AND SUB PUSH2 0x42C JUMPI DUP1 PUSH1 0x2 PUSH0 DUP3 DUP3 SLOAD PUSH2 0x420 SWAP2 SWAP1 PUSH2 0xD2F JUMP JUMPDEST SWAP3 POP POP DUP2 SWAP1 SSTORE POP PUSH2 0x4FA JUMP JUMPDEST PUSH0 DUP1 PUSH0 DUP6 PUSH20 0xFFFFFFFFFFFFFFFFFFFFFFFFFFFFFFFFFFFFFFFF AND PUSH20 0xFFFFFFFFFFFFFFFFFFFFFFFFFFFFFFFFFFFFFFFF AND DUP2 MSTORE PUSH1 0x20 ADD SWAP1 DUP2 MSTORE PUSH1 0x20 ADD PUSH0 KECCAK256 SLOAD SWAP1 POP DUP2 DUP2 LT ISZERO PUSH2 0x4B5 JUMPI DUP4 DUP2 DUP4 PUSH1 0x40 MLOAD PUSH32 0xE450D38C00000000000000000000000000000000000000000000000000000000 DUP2 MSTORE PUSH1 0x4 ADD PUSH2 0x4AC SWAP4 SWAP3 SWAP2 SWAP1 PUSH2 0xD71 JUMP JUMPDEST PUSH1 0x40 MLOAD DUP1 SWAP2 SUB SWAP1 REVERT JUMPDEST DUP2 DUP2 SUB PUSH0 DUP1 DUP7 PUSH20 0xFFFFFFFFFFFFFFFFFFFFFFFFFFFFFFFFFFFFFFFF AND PUSH20 0xFFFFFFFFFFFFFFFFFFFFFFFFFFFFFFFFFFFFFFFF AND DUP2 MSTORE PUSH1 0x20 ADD SWAP1 DUP2 MSTORE PUSH1 0x20 ADD PUSH0 KECCAK256 DUP2 SWAP1 SSTORE POP POP JUMPDEST PUSH0 PUSH20 0xFFFFFFFFFFFFFFFFFFFFFFFFFFFFFFFFFFFFFFFF AND DUP3 PUSH20 0xFFFFFFFFFFFFFFFFFFFFFFFFFFFFFFFFFFFFFFFF AND SUB PUSH2 0x541 JUMPI DUP1 PUSH1 0x2 PUSH0 DUP3 DUP3 SLOAD SUB SWAP3 POP POP DUP2 SWAP1 SSTORE POP PUSH2 0x58B JUMP JUMPDEST DUP1 PUSH0 DUP1 DUP5 PUSH20 0xFFFFFFFFFFFFFFFFFFFFFFFFFFFFFFFFFFFFFFFF AND PUSH20 0xFFFFFFFFFFFFFFFFFFFFFFFFFFFFFFFFFFFFFFFF AND DUP2 MSTORE PUSH1 0x20 ADD SWAP1 DUP2 MSTORE PUSH1 0x20 ADD PUSH0 KECCAK256 PUSH0 DUP3 DUP3 SLOAD ADD SWAP3 POP POP DUP2 SWAP1 SSTORE POP JUMPDEST DUP2 PUSH20 0xFFFFFFFFFFFFFFFFFFFFFFFFFFFFFFFFFFFFFFFF AND DUP4 PUSH20 0xFFFFFFFFFFFFFFFFFFFFFFFFFFFFFFFFFFFFFFFF AND PUSH32 0xDDF252AD1BE2C89B69C2B068FC378DAA952BA7F163C4A11628F55A4DF523B3EF DUP4 PUSH1 0x40 MLOAD PUSH2 0x5E8 SWAP2 SWAP1 PUSH2 0xDA6 JUMP JUMPDEST PUSH1 0x40 MLOAD DUP1 SWAP2 SUB SWAP1 LOG3 POP POP POP JUMP JUMPDEST PUSH0 PUSH1 0x40 MLOAD SWAP1 POP SWAP1 JUMP JUMPDEST PUSH0 DUP1 REVERT JUMPDEST PUSH0 DUP1 REVERT JUMPDEST PUSH0 DUP1 REVERT JUMPDEST PUSH0 DUP1 REVERT JUMPDEST PUSH0 PUSH1 0x1F NOT PUSH1 0x1F DUP4 ADD AND SWAP1 POP SWAP2 SWAP1 POP JUMP JUMPDEST PUSH32 0x4E487B7100000000000000000000000000000000000000000000000000000000 PUSH0 MSTORE PUSH1 0x41 PUSH1 0x4 MSTORE PUSH1 0x24 PUSH0 REVERT JUMPDEST PUSH2 0x654 DUP3 PUSH2 0x60E JUMP JUMPDEST DUP2 ADD DUP2 DUP2 LT PUSH8 0xFFFFFFFFFFFFFFFF DUP3 GT OR ISZERO PUSH2 0x673 JUMPI PUSH2 0x672 PUSH2 0x61E JUMP JUMPDEST JUMPDEST DUP1 PUSH1 0x40 MSTORE POP POP POP JUMP JUMPDEST PUSH0 PUSH2 0x685 PUSH2 0x5F5 JUMP JUMPDEST SWAP1 POP PUSH2 0x691 DUP3 DUP3 PUSH2 0x64B JUMP JUMPDEST SWAP2 SWAP1 POP JUMP JUMPDEST PUSH0 PUSH8 0xFFFFFFFFFFFFFFFF DUP3 GT ISZERO PUSH2 0x6B0 JUMPI PUSH2 0x6AF PUSH2 0x61E JUMP JUMPDEST JUMPDEST PUSH2 0x6B9 DUP3 PUSH2 0x60E JUMP JUMPDEST SWAP1 POP PUSH1 0x20 DUP2 ADD SWAP1 POP SWAP2 SWAP1 POP JUMP JUMPDEST DUP3 DUP2 DUP4 MCOPY PUSH0 DUP4 DUP4 ADD MSTORE POP POP POP JUMP JUMPDEST PUSH0 PUSH2 0x6E6 PUSH2 0x6E1 DUP5 PUSH2 0x696 JUMP JUMPDEST PUSH2 0x67C JUMP JUMPDEST SWAP1 POP DUP3 DUP2 MSTORE PUSH1 0x20 DUP2 ADD DUP5 DUP5 DUP5 ADD GT ISZERO PUSH2 0x702 JUMPI PUSH2 0x701 PUSH2 0x60A JUMP JUMPDEST JUMPDEST PUSH2 0x70D DUP5 DUP3 DUP6 PUSH2 0x6C6 JUMP JUMPDEST POP SWAP4 SWAP3 POP POP POP JUMP JUMPDEST PUSH0 DUP3 PUSH1 0x1F DUP4 ADD SLT PUSH2 0x729 JUMPI PUSH2 0x728 PUSH2 0x606 JUMP JUMPDEST JUMPDEST DUP2 MLOAD PUSH2 0x739 DUP5 DUP3 PUSH1 0x20 DUP7 ADD PUSH2 0x6D4 JUMP JUMPDEST SWAP2 POP POP SWAP3 SWAP2 POP POP JUMP JUMPDEST PUSH0 PUSH20 0xFFFFFFFFFFFFFFFFFFFFFFFFFFFFFFFFFFFFFFFF DUP3 AND SWAP1 POP SWAP2 SWAP1 POP JUMP JUMPDEST PUSH0 PUSH2 0x76B DUP3 PUSH2 0x742 JUMP JUMPDEST SWAP1 POP SWAP2 SWAP1 POP JUMP JUMPDEST PUSH2 0x77B DUP2 PUSH2 0x761 JUMP JUMPDEST DUP2 EQ PUSH2 0x785 JUMPI PUSH0 DUP1 REVERT JUMPDEST POP JUMP JUMPDEST PUSH0 DUP2 MLOAD SWAP1 POP PUSH2 0x796 DUP2 PUSH2 0x772 JUMP JUMPDEST SWAP3 SWAP2 POP POP JUMP JUMPDEST PUSH0 DUP1 PUSH0 DUP1 PUSH1 0x80 DUP6 DUP8 SUB SLT ISZERO PUSH2 0x7B4 JUMPI PUSH2 0x7B3 PUSH2 0x5FE JUMP JUMPDEST JUMPDEST PUSH0 DUP6 ADD MLOAD PUSH8 0xFFFFFFFFFFFFFFFF DUP2 GT ISZERO PUSH2 0x7D1 JUMPI PUSH2 0x7D0 PUSH2 0x602 JUMP JUMPDEST JUMPDEST PUSH2 0x7DD DUP8 DUP3 DUP9 ADD PUSH2 0x715 JUMP JUMPDEST SWAP5 POP POP PUSH1 0x20 DUP6 ADD MLOAD PUSH8 0xFFFFFFFFFFFFFFFF DUP2 GT ISZERO PUSH2 0x7FE JUMPI PUSH2 0x7FD PUSH2 0x602 JUMP JUMPDEST JUMPDEST PUSH2 0x80A DUP8 DUP3 DUP9 ADD PUSH2 0x715 JUMP JUMPDEST SWAP4 POP POP PUSH1 0x40 PUSH2 0x81B DUP8 DUP3 DUP9 ADD PUSH2 0x788 JUMP JUMPDEST SWAP3 POP POP PUSH1 0x60 PUSH2 0x82C DUP8 DUP3 DUP9 ADD PUSH2 0x788 JUMP JUMPDEST SWAP2 POP POP SWAP3 SWAP6 SWAP2 SWAP5 POP SWAP3 POP JUMP JUMPDEST PUSH0 DUP2 MLOAD SWAP1 POP SWAP2 SWAP1 POP JUMP JUMPDEST PUSH32 0x4E487B7100000000000000000000000000000000000000000000000000000000 PUSH0 MSTORE PUSH1 0x22 PUSH1 0x4 MSTORE PUSH1 0x24 PUSH0 REVERT JUMPDEST PUSH0 PUSH1 0x2 DUP3 DIV SWAP1 POP PUSH1 0x1 DUP3 AND DUP1 PUSH2 0x886 JUMPI PUSH1 0x7F DUP3 AND SWAP2 POP JUMPDEST PUSH1 0x20 DUP3 LT DUP2 SUB PUSH2 0x899 JUMPI PUSH2 0x898 PUSH2 0x842 JUMP JUMPDEST JUMPDEST POP SWAP2 SWAP1 POP JUMP JUMPDEST PUSH0 DUP2 SWAP1 POP DUP2 PUSH0 MSTORE PUSH1 0x20 PUSH0 KECCAK256 SWAP1 POP SWAP2 SWAP1 POP JUMP JUMPDEST PUSH0 PUSH1 0x20 PUSH1 0x1F DUP4 ADD DIV SWAP1 POP SWAP2 SWAP1 POP JUMP JUMPDEST PUSH0 DUP3 DUP3 SHL SWAP1 POP SWAP3 SWAP2 POP POP JUMP JUMPDEST PUSH0 PUSH1 0x8 DUP4 MUL PUSH2 0x8FB PUSH32 0xFFFFFFFFFFFFFFFFFFFFFFFFFFFFFFFFFFFFFFFFFFFFFFFFFFFFFFFFFFFFFFFF DUP3 PUSH2 0x8C0 JUMP JUMPDEST PUSH2 0x905 DUP7 DUP4 PUSH2 0x8C0 JUMP JUMPDEST SWAP6 POP DUP1 NOT DUP5 AND SWAP4 POP DUP1 DUP7 AND DUP5 OR SWAP3 POP POP POP SWAP4 SWAP3 POP POP POP JUMP JUMPDEST PUSH0 DUP2 SWAP1 POP SWAP2 SWAP1 POP JUMP JUMPDEST PUSH0 DUP2 SWAP1 POP SWAP2 SWAP1 POP JUMP JUMPDEST PUSH0 PUSH2 0x949 PUSH2 0x944 PUSH2 0x93F DUP5 PUSH2 0x91D JUMP JUMPDEST PUSH2 0x926 JUMP JUMPDEST PUSH2 0x91D JUMP JUMPDEST SWAP1 POP SWAP2 SWAP1 POP JUMP JUMPDEST PUSH0 DUP2 SWAP1 POP SWAP2 SWAP1 POP JUMP JUMPDEST PUSH2 0x962 DUP4 PUSH2 0x92F JUMP JUMPDEST PUSH2 0x976 PUSH2 0x96E DUP3 PUSH2 0x950 JUMP JUMPDEST DUP5 DUP5 SLOAD PUSH2 0x8CC JUMP JUMPDEST DUP3 SSTORE POP POP POP POP JUMP JUMPDEST PUSH0 SWAP1 JUMP JUMPDEST PUSH2 0x98A PUSH2 0x97E JUMP JUMPDEST PUSH2 0x995 DUP2 DUP5 DUP5 PUSH2 0x959 JUMP JUMPDEST POP POP POP JUMP JUMPDEST JUMPDEST DUP2 DUP2 LT ISZERO PUSH2 0x9B8 JUMPI PUSH2 0x9AD PUSH0 DUP3 PUSH2 0x982 JUMP JUMPDEST PUSH1 0x1 DUP2 ADD SWAP1 POP PUSH2 0x99B JUMP JUMPDEST POP POP JUMP JUMPDEST PUSH1 0x1F DUP3 GT ISZERO PUSH2 0x9FD JUMPI PUSH2 0x9CE DUP2 PUSH2 0x89F JUMP JUMPDEST PUSH2 0x9D7 DUP5 PUSH2 0x8B1 JUMP JUMPDEST DUP2 ADD PUSH1 0x20 DUP6 LT ISZERO PUSH2 0x9E6 JUMPI DUP2 SWAP1 POP JUMPDEST PUSH2 0x9FA PUSH2 0x9F2 DUP6 PUSH2 0x8B1 JUMP JUMPDEST DUP4 ADD DUP3 PUSH2 0x99A JUMP JUMPDEST POP POP JUMPDEST POP POP POP JUMP JUMPDEST PUSH0 DUP3 DUP3 SHR SWAP1 POP SWAP3 SWAP2 POP POP JUMP JUMPDEST PUSH0 PUSH2 0xA1D PUSH0 NOT DUP5 PUSH1 0x8 MUL PUSH2 0xA02 JUMP JUMPDEST NOT DUP1 DUP4 AND SWAP2 POP POP SWAP3 SWAP2 POP POP JUMP JUMPDEST PUSH0 PUSH2 0xA35 DUP4 DUP4 PUSH2 0xA0E JUMP JUMPDEST SWAP2 POP DUP3 PUSH1 0x2 MUL DUP3 OR SWAP1 POP SWAP3 SWAP2 POP POP JUMP JUMPDEST PUSH2 0xA4E DUP3 PUSH2 0x838 JUMP JUMPDEST PUSH8 0xFFFFFFFFFFFFFFFF DUP2 GT ISZERO PUSH2 0xA67 JUMPI PUSH2 0xA66 PUSH2 0x61E JUMP JUMPDEST JUMPDEST PUSH2 0xA71 DUP3 SLOAD PUSH2 0x86F JUMP JUMPDEST PUSH2 0xA7C DUP3 DUP3 DUP6 PUSH2 0x9BC JUMP JUMPDEST PUSH0 PUSH1 0x20 SWAP1 POP PUSH1 0x1F DUP4 GT PUSH1 0x1 DUP2 EQ PUSH2 0xAAD JUMPI PUSH0 DUP5 ISZERO PUSH2 0xA9B JUMPI DUP3 DUP8 ADD MLOAD SWAP1 POP JUMPDEST PUSH2 0xAA5 DUP6 DUP3 PUSH2 0xA2A JUMP JUMPDEST DUP7 SSTORE POP PUSH2 0xB0C JUMP JUMPDEST PUSH1 0x1F NOT DUP5 AND PUSH2 0xABB DUP7 PUSH2 0x89F JUMP JUMPDEST PUSH0 JUMPDEST DUP3 DUP2 LT ISZERO PUSH2 0xAE2 JUMPI DUP5 DUP10 ADD MLOAD DUP3 SSTORE PUSH1 0x1 DUP3 ADD SWAP2 POP PUSH1 0x20 DUP6 ADD SWAP5 POP PUSH1 0x20 DUP2 ADD SWAP1 POP PUSH2 0xABD JUMP JUMPDEST DUP7 DUP4 LT ISZERO PUSH2 0xAFF JUMPI DUP5 DUP10 ADD MLOAD PUSH2 0xAFB PUSH1 0x1F DUP10 AND DUP3 PUSH2 0xA0E JUMP JUMPDEST DUP4 SSTORE POP JUMPDEST PUSH1 0x1 PUSH1 0x2 DUP9 MUL ADD DUP9 SSTORE POP POP POP JUMPDEST POP POP POP POP POP POP JUMP JUMPDEST PUSH2 0xB1D DUP2 PUSH2 0x761 JUMP JUMPDEST DUP3 MSTORE POP POP JUMP JUMPDEST PUSH0 PUSH1 0x20 DUP3 ADD SWAP1 POP PUSH2 0xB36 PUSH0 DUP4 ADD DUP5 PUSH2 0xB14 JUMP JUMPDEST SWAP3 SWAP2 POP POP JUMP JUMPDEST PUSH32 0x4E487B7100000000000000000000000000000000000000000000000000000000 PUSH0 MSTORE PUSH1 0x11 PUSH1 0x4 MSTORE PUSH1 0x24 PUSH0 REVERT JUMPDEST PUSH0 DUP2 PUSH1 0x1 SHR SWAP1 POP SWAP2 SWAP1 POP JUMP JUMPDEST PUSH0 DUP1 DUP3 SWAP2 POP DUP4 SWAP1 POP JUMPDEST PUSH1 0x1 DUP6 GT ISZERO PUSH2 0xBBE JUMPI DUP1 DUP7 DIV DUP2 GT ISZERO PUSH2 0xB9A JUMPI PUSH2 0xB99 PUSH2 0xB3C JUMP JUMPDEST JUMPDEST PUSH1 0x1 DUP6 AND ISZERO PUSH2 0xBA9 JUMPI DUP1 DUP3 MUL SWAP2 POP JUMPDEST DUP1 DUP2 MUL SWAP1 POP PUSH2 0xBB7 DUP6 PUSH2 0xB69 JUMP JUMPDEST SWAP5 POP PUSH2 0xB7E JUMP JUMPDEST SWAP5 POP SWAP5 SWAP3 POP POP POP JUMP JUMPDEST PUSH0 DUP3 PUSH2 0xBD6 JUMPI PUSH1 0x1 SWAP1 POP PUSH2 0xC91 JUMP JUMPDEST DUP2 PUSH2 0xBE3 JUMPI PUSH0 SWAP1 POP PUSH2 0xC91 JUMP JUMPDEST DUP2 PUSH1 0x1 DUP2 EQ PUSH2 0xBF9 JUMPI PUSH1 0x2 DUP2 EQ PUSH2 0xC03 JUMPI PUSH2 0xC32 JUMP JUMPDEST PUSH1 0x1 SWAP2 POP POP PUSH2 0xC91 JUMP JUMPDEST PUSH1 0xFF DUP5 GT ISZERO PUSH2 0xC15 JUMPI PUSH2 0xC14 PUSH2 0xB3C JUMP JUMPDEST JUMPDEST DUP4 PUSH1 0x2 EXP SWAP2 POP DUP5 DUP3 GT ISZERO PUSH2 0xC2C JUMPI PUSH2 0xC2B PUSH2 0xB3C JUMP JUMPDEST JUMPDEST POP PUSH2 0xC91 JUMP JUMPDEST POP PUSH1 0x20 DUP4 LT PUSH2 0x133 DUP4 LT AND PUSH1 0x4E DUP5 LT PUSH1 0xB DUP5 LT AND OR ISZERO PUSH2 0xC67 JUMPI DUP3 DUP3 EXP SWAP1 POP DUP4 DUP2 GT ISZERO PUSH2 0xC62 JUMPI PUSH2 0xC61 PUSH2 0xB3C JUMP JUMPDEST JUMPDEST PUSH2 0xC91 JUMP JUMPDEST PUSH2 0xC74 DUP5 DUP5 DUP5 PUSH1 0x1 PUSH2 0xB75 JUMP JUMPDEST SWAP3 POP SWAP1 POP DUP2 DUP5 DIV DUP2 GT ISZERO PUSH2 0xC8B JUMPI PUSH2 0xC8A PUSH2 0xB3C JUMP JUMPDEST JUMPDEST DUP2 DUP2 MUL SWAP1 POP JUMPDEST SWAP4 SWAP3 POP POP POP JUMP JUMPDEST PUSH0 PUSH1 0xFF DUP3 AND SWAP1 POP SWAP2 SWAP1 POP JUMP JUMPDEST PUSH0 PUSH2 0xCAE DUP3 PUSH2 0x91D JUMP JUMPDEST SWAP2 POP PUSH2 0xCB9 DUP4 PUSH2 0xC98 JUMP JUMPDEST SWAP3 POP PUSH2 0xCE6 PUSH32 0xFFFFFFFFFFFFFFFFFFFFFFFFFFFFFFFFFFFFFFFFFFFFFFFFFFFFFFFFFFFFFFFF DUP5 DUP5 PUSH2 0xBC7 JUMP JUMPDEST SWAP1 POP SWAP3 SWAP2 POP POP JUMP JUMPDEST PUSH0 PUSH2 0xCF8 DUP3 PUSH2 0x91D JUMP JUMPDEST SWAP2 POP PUSH2 0xD03 DUP4 PUSH2 0x91D JUMP JUMPDEST SWAP3 POP DUP3 DUP3 MUL PUSH2 0xD11 DUP2 PUSH2 0x91D JUMP JUMPDEST SWAP2 POP DUP3 DUP3 DIV DUP5 EQ DUP4 ISZERO OR PUSH2 0xD28 JUMPI PUSH2 0xD27 PUSH2 0xB3C JUMP JUMPDEST JUMPDEST POP SWAP3 SWAP2 POP POP JUMP JUMPDEST PUSH0 PUSH2 0xD39 DUP3 PUSH2 0x91D JUMP JUMPDEST SWAP2 POP PUSH2 0xD44 DUP4 PUSH2 0x91D JUMP JUMPDEST SWAP3 POP DUP3 DUP3 ADD SWAP1 POP DUP1 DUP3 GT ISZERO PUSH2 0xD5C JUMPI PUSH2 0xD5B PUSH2 0xB3C JUMP JUMPDEST JUMPDEST SWAP3 SWAP2 POP POP JUMP JUMPDEST PUSH2 0xD6B DUP2 PUSH2 0x91D JUMP JUMPDEST DUP3 MSTORE POP POP JUMP JUMPDEST PUSH0 PUSH1 0x60 DUP3 ADD SWAP1 POP PUSH2 0xD84 PUSH0 DUP4 ADD DUP7 PUSH2 0xB14 JUMP JUMPDEST PUSH2 0xD91 PUSH1 0x20 DUP4 ADD DUP6 PUSH2 0xD62 JUMP JUMPDEST PUSH2 0xD9E PUSH1 0x40 DUP4 ADD DUP5 PUSH2 0xD62 JUMP JUMPDEST SWAP5 SWAP4 POP POP POP POP JUMP JUMPDEST PUSH0 PUSH1 0x20 DUP3 ADD SWAP1 POP PUSH2 0xDB9 PUSH0 DUP4 ADD DUP5 PUSH2 0xD62 JUMP JUMPDEST SWAP3 SWAP2 POP POP JUMP JUMPDEST PUSH2 0x234F DUP1 PUSH2 0xDCC PUSH0 CODECOPY PUSH0 RETURN INVALID PUSH1 0x80 PUSH1 0x40 MSTORE CALLVALUE DUP1 ISZERO PUSH2 0xF JUMPI PUSH0 DUP1 REVERT JUMPDEST POP PUSH1 0x4 CALLDATASIZE LT PUSH2 0x18C JUMPI PUSH0 CALLDATALOAD PUSH1 0xE0 SHR DUP1 PUSH4 0x77D3550B GT PUSH2 0xDC JUMPI DUP1 PUSH4 0xA9059CBB GT PUSH2 0x95 JUMPI DUP1 PUSH4 0xDD62ED3E GT PUSH2 0x6F JUMPI DUP1 PUSH4 0xDD62ED3E EQ PUSH2 0x44B JUMPI DUP1 PUSH4 0xE95850DF EQ PUSH2 0x47B JUMPI DUP1 PUSH4 0xEF9ECC1D EQ PUSH2 0x499 JUMPI DUP1 PUSH4 0xF2FDE38B EQ PUSH2 0x4C9 JUMPI PUSH2 0x18C JUMP JUMPDEST DUP1 PUSH4 0xA9059CBB EQ PUSH2 0x3CF JUMPI DUP1 PUSH4 0xA9B493E0 EQ PUSH2 0x3FF JUMPI DUP1 PUSH4 0xCA525485 EQ PUSH2 0x41B JUMPI PUSH2 0x18C JUMP JUMPDEST DUP1 PUSH4 0x77D3550B EQ PUSH2 0x331 JUMPI DUP1 PUSH4 0x8456CB59 EQ PUSH2 0x34F JUMPI DUP1 PUSH4 0x8DA5CB5B EQ PUSH2 0x359 JUMPI DUP1 PUSH4 0x95D89B41 EQ PUSH2 0x377 JUMPI DUP1 PUSH4 0x9D55FBA7 EQ PUSH2 0x395 JUMPI DUP1 PUSH4 0xA3262EA2 EQ PUSH2 0x3B1 JUMPI PUSH2 0x18C JUMP JUMPDEST DUP1 PUSH4 0x313CE567 GT PUSH2 0x149 JUMPI DUP1 PUSH4 0x5E182096 GT PUSH2 0x123 JUMPI DUP1 PUSH4 0x5E182096 EQ PUSH2 0x2BF JUMPI DUP1 PUSH4 0x70A08231 EQ PUSH2 0x2DB JUMPI DUP1 PUSH4 0x715018A6 EQ PUSH2 0x30B JUMPI DUP1 PUSH4 0x74612F19 EQ PUSH2 0x315 JUMPI PUSH2 0x18C JUMP JUMPDEST DUP1 PUSH4 0x313CE567 EQ PUSH2 0x279 JUMPI DUP1 PUSH4 0x3F4BA83A EQ PUSH2 0x297 JUMPI DUP1 PUSH4 0x5C975ABB EQ PUSH2 0x2A1 JUMPI PUSH2 0x18C JUMP JUMPDEST DUP1 PUSH4 0x6FDDE03 EQ PUSH2 0x190 JUMPI DUP1 PUSH4 0x95EA7B3 EQ PUSH2 0x1AE JUMPI DUP1 PUSH4 0x18160DDD EQ PUSH2 0x1DE JUMPI DUP1 PUSH4 0x1EC48CF7 EQ PUSH2 0x1FC JUMPI DUP1 PUSH4 0x23B872DD EQ PUSH2 0x22D JUMPI DUP1 PUSH4 0x2FCDC5FD EQ PUSH2 0x25D JUMPI JUMPDEST PUSH0 DUP1 REVERT JUMPDEST PUSH2 0x198 PUSH2 0x4E5 JUMP JUMPDEST PUSH1 0x40 MLOAD PUSH2 0x1A5 SWAP2 SWAP1 PUSH2 0x1AC8 JUMP JUMPDEST PUSH1 0x40 MLOAD DUP1 SWAP2 SUB SWAP1 RETURN JUMPDEST PUSH2 0x1C8 PUSH1 0x4 DUP1 CALLDATASIZE SUB DUP2 ADD SWAP1 PUSH2 0x1C3 SWAP2 SWAP1 PUSH2 0x1B79 JUMP JUMPDEST PUSH2 0x575 JUMP JUMPDEST PUSH1 0x40 MLOAD PUSH2 0x1D5 SWAP2 SWAP1 PUSH2 0x1BD1 JUMP JUMPDEST PUSH1 0x40 MLOAD DUP1 SWAP2 SUB SWAP1 RETURN JUMPDEST PUSH2 0x1E6 PUSH2 0x597 JUMP JUMPDEST PUSH1 0x40 MLOAD PUSH2 0x1F3 SWAP2 SWAP1 PUSH2 0x1BF9 JUMP JUMPDEST PUSH1 0x40 MLOAD DUP1 SWAP2 SUB SWAP1 RETURN JUMPDEST PUSH2 0x216 PUSH1 0x4 DUP1 CALLDATASIZE SUB DUP2 ADD SWAP1 PUSH2 0x211 SWAP2 SWAP1 PUSH2 0x1C12 JUMP JUMPDEST PUSH2 0x5A0 JUMP JUMPDEST PUSH1 0x40 MLOAD PUSH2 0x224 SWAP3 SWAP2 SWAP1 PUSH2 0x1C3D JUMP JUMPDEST PUSH1 0x40 MLOAD DUP1 SWAP2 SUB SWAP1 RETURN JUMPDEST PUSH2 0x247 PUSH1 0x4 DUP1 CALLDATASIZE SUB DUP2 ADD SWAP1 PUSH2 0x242 SWAP2 SWAP1 PUSH2 0x1C64 JUMP JUMPDEST PUSH2 0x5BE JUMP JUMPDEST PUSH1 0x40 MLOAD PUSH2 0x254 SWAP2 SWAP1 PUSH2 0x1BD1 JUMP JUMPDEST PUSH1 0x40 MLOAD DUP1 SWAP2 SUB SWAP1 RETURN JUMPDEST PUSH2 0x277 PUSH1 0x4 DUP1 CALLDATASIZE SUB DUP2 ADD SWAP1 PUSH2 0x272 SWAP2 SWAP1 PUSH2 0x1C12 JUMP JUMPDEST PUSH2 0x5DB JUMP JUMPDEST STOP JUMPDEST PUSH2 0x281 PUSH2 0x6C2 JUMP JUMPDEST PUSH1 0x40 MLOAD PUSH2 0x28E SWAP2 SWAP1 PUSH2 0x1CCF JUMP JUMPDEST PUSH1 0x40 MLOAD DUP1 SWAP2 SUB SWAP1 RETURN JUMPDEST PUSH2 0x29F PUSH2 0x6CA JUMP JUMPDEST STOP JUMPDEST PUSH2 0x2A9 PUSH2 0x6DC JUMP JUMPDEST PUSH1 0x40 MLOAD PUSH2 0x2B6 SWAP2 SWAP1 PUSH2 0x1BD1 JUMP JUMPDEST PUSH1 0x40 MLOAD DUP1 SWAP2 SUB SWAP1 RETURN JUMPDEST PUSH2 0x2D9 PUSH1 0x4 DUP1 CALLDATASIZE SUB DUP2 ADD SWAP1 PUSH2 0x2D4 SWAP2 SWAP1 PUSH2 0x1CE8 JUMP JUMPDEST PUSH2 0x6F1 JUMP JUMPDEST STOP JUMPDEST PUSH2 0x2F5 PUSH1 0x4 DUP1 CALLDATASIZE SUB DUP2 ADD SWAP1 PUSH2 0x2F0 SWAP2 SWAP1 PUSH2 0x1C12 JUMP JUMPDEST PUSH2 0x7C5 JUMP JUMPDEST PUSH1 0x40 MLOAD PUSH2 0x302 SWAP2 SWAP1 PUSH2 0x1BF9 JUMP JUMPDEST PUSH1 0x40 MLOAD DUP1 SWAP2 SUB SWAP1 RETURN JUMPDEST PUSH2 0x313 PUSH2 0x80A JUMP JUMPDEST STOP JUMPDEST PUSH2 0x32F PUSH1 0x4 DUP1 CALLDATASIZE SUB DUP2 ADD SWAP1 PUSH2 0x32A SWAP2 SWAP1 PUSH2 0x1C12 JUMP JUMPDEST PUSH2 0x81D JUMP JUMPDEST STOP JUMPDEST PUSH2 0x339 PUSH2 0x904 JUMP JUMPDEST PUSH1 0x40 MLOAD PUSH2 0x346 SWAP2 SWAP1 PUSH2 0x1BF9 JUMP JUMPDEST PUSH1 0x40 MLOAD DUP1 SWAP2 SUB SWAP1 RETURN JUMPDEST PUSH2 0x357 PUSH2 0x90A JUMP JUMPDEST STOP JUMPDEST PUSH2 0x361 PUSH2 0x91C JUMP JUMPDEST PUSH1 0x40 MLOAD PUSH2 0x36E SWAP2 SWAP1 PUSH2 0x1D35 JUMP JUMPDEST PUSH1 0x40 MLOAD DUP1 SWAP2 SUB SWAP1 RETURN JUMPDEST PUSH2 0x37F PUSH2 0x945 JUMP JUMPDEST PUSH1 0x40 MLOAD PUSH2 0x38C SWAP2 SWAP1 PUSH2 0x1AC8 JUMP JUMPDEST PUSH1 0x40 MLOAD DUP1 SWAP2 SUB SWAP1 RETURN JUMPDEST PUSH2 0x3AF PUSH1 0x4 DUP1 CALLDATASIZE SUB DUP2 ADD SWAP1 PUSH2 0x3AA SWAP2 SWAP1 PUSH2 0x1D4E JUMP JUMPDEST PUSH2 0x9D5 JUMP JUMPDEST STOP JUMPDEST PUSH2 0x3B9 PUSH2 0xA5A JUMP JUMPDEST PUSH1 0x40 MLOAD PUSH2 0x3C6 SWAP2 SWAP1 PUSH2 0x1D35 JUMP JUMPDEST PUSH1 0x40 MLOAD DUP1 SWAP2 SUB SWAP1 RETURN JUMPDEST PUSH2 0x3E9 PUSH1 0x4 DUP1 CALLDATASIZE SUB DUP2 ADD SWAP1 PUSH2 0x3E4 SWAP2 SWAP1 PUSH2 0x1B79 JUMP JUMPDEST PUSH2 0xA7F JUMP JUMPDEST PUSH1 0x40 MLOAD PUSH2 0x3F6 SWAP2 SWAP1 PUSH2 0x1BD1 JUMP JUMPDEST PUSH1 0x40 MLOAD DUP1 SWAP2 SUB SWAP1 RETURN JUMPDEST PUSH2 0x419 PUSH1 0x4 DUP1 CALLDATASIZE SUB DUP2 ADD SWAP1 PUSH2 0x414 SWAP2 SWAP1 PUSH2 0x1CE8 JUMP JUMPDEST PUSH2 0xA9A JUMP JUMPDEST STOP JUMPDEST PUSH2 0x435 PUSH1 0x4 DUP1 CALLDATASIZE SUB DUP2 ADD SWAP1 PUSH2 0x430 SWAP2 SWAP1 PUSH2 0x1D4E JUMP JUMPDEST PUSH2 0xC3E JUMP JUMPDEST PUSH1 0x40 MLOAD PUSH2 0x442 SWAP2 SWAP1 PUSH2 0x1BF9 JUMP JUMPDEST PUSH1 0x40 MLOAD DUP1 SWAP2 SUB SWAP1 RETURN JUMPDEST PUSH2 0x465 PUSH1 0x4 DUP1 CALLDATASIZE SUB DUP2 ADD SWAP1 PUSH2 0x460 SWAP2 SWAP1 PUSH2 0x1D79 JUMP JUMPDEST PUSH2 0xC53 JUMP JUMPDEST PUSH1 0x40 MLOAD PUSH2 0x472 SWAP2 SWAP1 PUSH2 0x1BF9 JUMP JUMPDEST PUSH1 0x40 MLOAD DUP1 SWAP2 SUB SWAP1 RETURN JUMPDEST PUSH2 0x483 PUSH2 0xCD5 JUMP JUMPDEST PUSH1 0x40 MLOAD PUSH2 0x490 SWAP2 SWAP1 PUSH2 0x1D35 JUMP JUMPDEST PUSH1 0x40 MLOAD DUP1 SWAP2 SUB SWAP1 RETURN JUMPDEST PUSH2 0x4B3 PUSH1 0x4 DUP1 CALLDATASIZE SUB DUP2 ADD SWAP1 PUSH2 0x4AE SWAP2 SWAP1 PUSH2 0x1DB7 JUMP JUMPDEST PUSH2 0xCFA JUMP JUMPDEST PUSH1 0x40 MLOAD PUSH2 0x4C0 SWAP2 SWAP1 PUSH2 0x1E65 JUMP JUMPDEST PUSH1 0x40 MLOAD DUP1 SWAP2 SUB SWAP1 RETURN JUMPDEST PUSH2 0x4E3 PUSH1 0x4 DUP1 CALLDATASIZE SUB DUP2 ADD SWAP1 PUSH2 0x4DE SWAP2 SWAP1 PUSH2 0x1C12 JUMP JUMPDEST PUSH2 0x10DB JUMP JUMPDEST STOP JUMPDEST PUSH1 0x60 PUSH1 0x3 DUP1 SLOAD PUSH2 0x4F4 SWAP1 PUSH2 0x1EAB JUMP JUMPDEST DUP1 PUSH1 0x1F ADD PUSH1 0x20 DUP1 SWAP2 DIV MUL PUSH1 0x20 ADD PUSH1 0x40 MLOAD SWAP1 DUP2 ADD PUSH1 0x40 MSTORE DUP1 SWAP3 SWAP2 SWAP1 DUP2 DUP2 MSTORE PUSH1 0x20 ADD DUP3 DUP1 SLOAD PUSH2 0x520 SWAP1 PUSH2 0x1EAB JUMP JUMPDEST DUP1 ISZERO PUSH2 0x56B JUMPI DUP1 PUSH1 0x1F LT PUSH2 0x542 JUMPI PUSH2 0x100 DUP1 DUP4 SLOAD DIV MUL DUP4 MSTORE SWAP2 PUSH1 0x20 ADD SWAP2 PUSH2 0x56B JUMP JUMPDEST DUP3 ADD SWAP2 SWAP1 PUSH0 MSTORE PUSH1 0x20 PUSH0 KECCAK256 SWAP1 JUMPDEST DUP2 SLOAD DUP2 MSTORE SWAP1 PUSH1 0x1 ADD SWAP1 PUSH1 0x20 ADD DUP1 DUP4 GT PUSH2 0x54E JUMPI DUP3 SWAP1 SUB PUSH1 0x1F AND DUP3 ADD SWAP2 JUMPDEST POP POP POP POP POP SWAP1 POP SWAP1 JUMP JUMPDEST PUSH0 DUP1 PUSH2 0x57F PUSH2 0x115F JUMP JUMPDEST SWAP1 POP PUSH2 0x58C DUP2 DUP6 DUP6 PUSH2 0x1166 JUMP JUMPDEST PUSH1 0x1 SWAP2 POP POP SWAP3 SWAP2 POP POP JUMP JUMPDEST PUSH0 PUSH1 0x2 SLOAD SWAP1 POP SWAP1 JUMP JUMPDEST PUSH0 DUP1 PUSH2 0x5AB DUP4 PUSH2 0x7C5 JUMP JUMPDEST PUSH2 0x5B5 DUP5 ADDRESS PUSH2 0xC53 JUMP JUMPDEST SWAP2 POP SWAP2 POP SWAP2 POP SWAP2 JUMP JUMPDEST PUSH0 PUSH2 0x5C7 PUSH2 0x1178 JUMP JUMPDEST PUSH2 0x5D2 DUP5 DUP5 DUP5 PUSH2 0x11C2 JUMP JUMPDEST SWAP1 POP SWAP4 SWAP3 POP POP POP JUMP JUMPDEST PUSH2 0x5E3 PUSH2 0x11F0 JUMP JUMPDEST PUSH0 PUSH20 0xFFFFFFFFFFFFFFFFFFFFFFFFFFFFFFFFFFFFFFFF AND DUP2 PUSH20 0xFFFFFFFFFFFFFFFFFFFFFFFFFFFFFFFFFFFFFFFF AND SUB PUSH2 0x648 JUMPI PUSH1 0x40 MLOAD PUSH32 0xF8AF67E500000000000000000000000000000000000000000000000000000000 DUP2 MSTORE PUSH1 0x4 ADD PUSH1 0x40 MLOAD DUP1 SWAP2 SUB SWAP1 REVERT JUMPDEST DUP1 PUSH1 0x7 PUSH0 PUSH2 0x100 EXP DUP2 SLOAD DUP2 PUSH20 0xFFFFFFFFFFFFFFFFFFFFFFFFFFFFFFFFFFFFFFFF MUL NOT AND SWAP1 DUP4 PUSH20 0xFFFFFFFFFFFFFFFFFFFFFFFFFFFFFFFFFFFFFFFF AND MUL OR SWAP1 SSTORE POP PUSH32 0xF2610996D245D9B77E4FF84C2174EEA0B76FB44C422218404F66E28816D78FB9 DUP2 PUSH1 0x40 MLOAD PUSH2 0x6B7 SWAP2 SWAP1 PUSH2 0x1D35 JUMP JUMPDEST PUSH1 0x40 MLOAD DUP1 SWAP2 SUB SWAP1 LOG1 POP JUMP JUMPDEST PUSH0 PUSH1 0x12 SWAP1 POP SWAP1 JUMP JUMPDEST PUSH2 0x6D2 PUSH2 0x11F0 JUMP JUMPDEST PUSH2 0x6DA PUSH2 0x1277 JUMP JUMPDEST JUMP JUMPDEST PUSH0 PUSH1 0x5 PUSH0 SWAP1 SLOAD SWAP1 PUSH2 0x100 EXP SWAP1 DIV PUSH1 0xFF AND SWAP1 POP SWAP1 JUMP JUMPDEST PUSH2 0x6F9 PUSH2 0x12D8 JUMP JUMPDEST PUSH2 0x701 PUSH2 0x1178 JUMP JUMPDEST PUSH0 DUP2 SUB PUSH2 0x73A JUMPI PUSH1 0x40 MLOAD PUSH32 0x2C5211C600000000000000000000000000000000000000000000000000000000 DUP2 MSTORE PUSH1 0x4 ADD PUSH1 0x40 MLOAD DUP1 SWAP2 SUB SWAP1 REVERT JUMPDEST PUSH0 CALLER SWAP1 POP PUSH0 ADDRESS SWAP1 POP PUSH2 0x74D DUP3 DUP3 DUP6 PUSH2 0x1327 JUMP JUMPDEST PUSH2 0x758 DUP3 DUP3 DUP6 PUSH2 0x13B9 JUMP JUMPDEST DUP3 PUSH1 0xA PUSH0 DUP7 DUP2 MSTORE PUSH1 0x20 ADD SWAP1 DUP2 MSTORE PUSH1 0x20 ADD PUSH0 KECCAK256 PUSH0 DUP3 DUP3 SLOAD PUSH2 0x778 SWAP2 SWAP1 PUSH2 0x1F08 JUMP JUMPDEST SWAP3 POP POP DUP2 SWAP1 SSTORE POP DUP4 PUSH32 0x577DFADB80AB9A5336C633F3FA5F59C296D18A29AA6AE9E4598762748E1F4AFD DUP5 PUSH1 0x40 MLOAD PUSH2 0x7AF SWAP2 SWAP1 PUSH2 0x1BF9 JUMP JUMPDEST PUSH1 0x40 MLOAD DUP1 SWAP2 SUB SWAP1 LOG2 POP POP PUSH2 0x7C1 PUSH2 0x14A9 JUMP JUMPDEST POP POP JUMP JUMPDEST PUSH0 DUP1 PUSH0 DUP4 PUSH20 0xFFFFFFFFFFFFFFFFFFFFFFFFFFFFFFFFFFFFFFFF AND PUSH20 0xFFFFFFFFFFFFFFFFFFFFFFFFFFFFFFFFFFFFFFFF AND DUP2 MSTORE PUSH1 0x20 ADD SWAP1 DUP2 MSTORE PUSH1 0x20 ADD PUSH0 KECCAK256 SLOAD SWAP1 POP SWAP2 SWAP1 POP JUMP JUMPDEST PUSH2 0x812 PUSH2 0x11F0 JUMP JUMPDEST PUSH2 0x81B PUSH0 PUSH2 0x14B3 JUMP JUMPDEST JUMP JUMPDEST PUSH2 0x825 PUSH2 0x11F0 JUMP JUMPDEST PUSH0 PUSH20 0xFFFFFFFFFFFFFFFFFFFFFFFFFFFFFFFFFFFFFFFF AND DUP2 PUSH20 0xFFFFFFFFFFFFFFFFFFFFFFFFFFFFFFFFFFFFFFFF AND SUB PUSH2 0x88A JUMPI PUSH1 0x40 MLOAD PUSH32 0xCFE2EA6300000000000000000000000000000000000000000000000000000000 DUP2 MSTORE PUSH1 0x4 ADD PUSH1 0x40 MLOAD DUP1 SWAP2 SUB SWAP1 REVERT JUMPDEST DUP1 PUSH1 0x9 PUSH0 PUSH2 0x100 EXP DUP2 SLOAD DUP2 PUSH20 0xFFFFFFFFFFFFFFFFFFFFFFFFFFFFFFFFFFFFFFFF MUL NOT AND SWAP1 DUP4 PUSH20 0xFFFFFFFFFFFFFFFFFFFFFFFFFFFFFFFFFFFFFFFF AND MUL OR SWAP1 SSTORE POP PUSH32 0x4422C0C4B301436298CCE7DE4B586B1E044E671D0EFBFEB88689161EBD95DD4F DUP2 PUSH1 0x40 MLOAD PUSH2 0x8F9 SWAP2 SWAP1 PUSH2 0x1D35 JUMP JUMPDEST PUSH1 0x40 MLOAD DUP1 SWAP2 SUB SWAP1 LOG1 POP JUMP JUMPDEST PUSH1 0x8 SLOAD DUP2 JUMP JUMPDEST PUSH2 0x912 PUSH2 0x11F0 JUMP JUMPDEST PUSH2 0x91A PUSH2 0x1578 JUMP JUMPDEST JUMP JUMPDEST PUSH0 PUSH1 0x5 PUSH1 0x1 SWAP1 SLOAD SWAP1 PUSH2 0x100 EXP SWAP1 DIV PUSH20 0xFFFFFFFFFFFFFFFFFFFFFFFFFFFFFFFFFFFFFFFF AND SWAP1 POP SWAP1 JUMP JUMPDEST PUSH1 0x60 PUSH1 0x4 DUP1 SLOAD PUSH2 0x954 SWAP1 PUSH2 0x1EAB JUMP JUMPDEST DUP1 PUSH1 0x1F ADD PUSH1 0x20 DUP1 SWAP2 DIV MUL PUSH1 0x20 ADD PUSH1 0x40 MLOAD SWAP1 DUP2 ADD PUSH1 0x40 MSTORE DUP1 SWAP3 SWAP2 SWAP1 DUP2 DUP2 MSTORE PUSH1 0x20 ADD DUP3 DUP1 SLOAD PUSH2 0x980 SWAP1 PUSH2 0x1EAB JUMP JUMPDEST DUP1 ISZERO PUSH2 0x9CB JUMPI DUP1 PUSH1 0x1F LT PUSH2 0x9A2 JUMPI PUSH2 0x100 DUP1 DUP4 SLOAD DIV MUL DUP4 MSTORE SWAP2 PUSH1 0x20 ADD SWAP2 PUSH2 0x9CB JUMP JUMPDEST DUP3 ADD SWAP2 SWAP1 PUSH0 MSTORE PUSH1 0x20 PUSH0 KECCAK256 SWAP1 JUMPDEST DUP2 SLOAD DUP2 MSTORE SWAP1 PUSH1 0x1 ADD SWAP1 PUSH1 0x20 ADD DUP1 DUP4 GT PUSH2 0x9AE JUMPI DUP3 SWAP1 SUB PUSH1 0x1F AND DUP3 ADD SWAP2 JUMPDEST POP POP POP POP POP SWAP1 POP SWAP1 JUMP JUMPDEST PUSH2 0x9DD PUSH2 0x11F0 JUMP JUMPDEST PUSH2 0x2710 DUP2 GT ISZERO PUSH2 0xA19 JUMPI PUSH1 0x40 MLOAD PUSH32 0xDC81DB8500000000000000000000000000000000000000000000000000000000 DUP2 MSTORE PUSH1 0x4 ADD PUSH1 0x40 MLOAD DUP1 SWAP2 SUB SWAP1 REVERT JUMPDEST DUP1 PUSH1 0x8 DUP2 SWAP1 SSTORE POP PUSH32 0x13F60DD2B588490608C3FF1932A3DAEB4087F3D5AF04B97E5C2A16B5B4C0302E DUP2 PUSH1 0x40 MLOAD PUSH2 0xA4F SWAP2 SWAP1 PUSH2 0x1BF9 JUMP JUMPDEST PUSH1 0x40 MLOAD DUP1 SWAP2 SUB SWAP1 LOG1 POP JUMP JUMPDEST PUSH1 0x7 PUSH0 SWAP1 SLOAD SWAP1 PUSH2 0x100 EXP SWAP1 DIV PUSH20 0xFFFFFFFFFFFFFFFFFFFFFFFFFFFFFFFFFFFFFFFF AND DUP2 JUMP JUMPDEST PUSH0 PUSH2 0xA88 PUSH2 0x1178 JUMP JUMPDEST PUSH2 0xA92 DUP4 DUP4 PUSH2 0x15DA JUMP JUMPDEST SWAP1 POP SWAP3 SWAP2 POP POP JUMP JUMPDEST PUSH2 0xAA2 PUSH2 0x12D8 JUMP JUMPDEST PUSH2 0xAAA PUSH2 0x1178 JUMP JUMPDEST PUSH2 0xAB4 CALLER DUP4 PUSH2 0x15FC JUMP JUMPDEST PUSH2 0xAEA JUMPI PUSH1 0x40 MLOAD PUSH32 0xDE271CF500000000000000000000000000000000000000000000000000000000 DUP2 MSTORE PUSH1 0x4 ADD PUSH1 0x40 MLOAD DUP1 SWAP2 SUB SWAP1 REVERT JUMPDEST PUSH0 DUP2 SUB PUSH2 0xB23 JUMPI PUSH1 0x40 MLOAD PUSH32 0x2C5211C600000000000000000000000000000000000000000000000000000000 DUP2 MSTORE PUSH1 0x4 ADD PUSH1 0x40 MLOAD DUP1 SWAP2 SUB SWAP1 REVERT JUMPDEST DUP1 PUSH1 0xA PUSH0 DUP5 DUP2 MSTORE PUSH1 0x20 ADD SWAP1 DUP2 MSTORE PUSH1 0x20 ADD PUSH0 KECCAK256 SLOAD LT ISZERO PUSH2 0xB6E JUMPI PUSH1 0x40 MLOAD PUSH32 0xA77130EF00000000000000000000000000000000000000000000000000000000 DUP2 MSTORE PUSH1 0x4 ADD PUSH1 0x40 MLOAD DUP1 SWAP2 SUB SWAP1 REVERT JUMPDEST DUP1 PUSH1 0xA PUSH0 DUP5 DUP2 MSTORE PUSH1 0x20 ADD SWAP1 DUP2 MSTORE PUSH1 0x20 ADD PUSH0 KECCAK256 PUSH0 DUP3 DUP3 SLOAD PUSH2 0xB8E SWAP2 SWAP1 PUSH2 0x1F3B JUMP JUMPDEST SWAP3 POP POP DUP2 SWAP1 SSTORE POP PUSH0 PUSH2 0xBA0 CALLER DUP4 PUSH2 0xA7F JUMP JUMPDEST SWAP1 POP DUP1 PUSH2 0xBE2 JUMPI PUSH1 0x40 MLOAD PUSH32 0x8C379A000000000000000000000000000000000000000000000000000000000 DUP2 MSTORE PUSH1 0x4 ADD PUSH2 0xBD9 SWAP1 PUSH2 0x1FB8 JUMP JUMPDEST PUSH1 0x40 MLOAD DUP1 SWAP2 SUB SWAP1 REVERT JUMPDEST CALLER PUSH20 0xFFFFFFFFFFFFFFFFFFFFFFFFFFFFFFFFFFFFFFFF AND DUP4 PUSH32 0x4E073DD16EEC477FBB059BDA1F0796F0D06EEBC4C53568E3E77A4084228FD4EB DUP5 PUSH1 0x40 MLOAD PUSH2 0xC29 SWAP2 SWAP1 PUSH2 0x1BF9 JUMP JUMPDEST PUSH1 0x40 MLOAD DUP1 SWAP2 SUB SWAP1 LOG3 POP PUSH2 0xC3A PUSH2 0x14A9 JUMP JUMPDEST POP POP JUMP JUMPDEST PUSH1 0xA PUSH1 0x20 MSTORE DUP1 PUSH0 MSTORE PUSH1 0x40 PUSH0 KECCAK256 PUSH0 SWAP2 POP SWAP1 POP SLOAD DUP2 JUMP JUMPDEST PUSH0 PUSH1 0x1 PUSH0 DUP5 PUSH20 0xFFFFFFFFFFFFFFFFFFFFFFFFFFFFFFFFFFFFFFFF AND PUSH20 0xFFFFFFFFFFFFFFFFFFFFFFFFFFFFFFFFFFFFFFFF AND DUP2 MSTORE PUSH1 0x20 ADD SWAP1 DUP2 MSTORE PUSH1 0x20 ADD PUSH0 KECCAK256 PUSH0 DUP4 PUSH20 0xFFFFFFFFFFFFFFFFFFFFFFFFFFFFFFFFFFFFFFFF AND PUSH20 0xFFFFFFFFFFFFFFFFFFFFFFFFFFFFFFFFFFFFFFFF AND DUP2 MSTORE PUSH1 0x20 ADD SWAP1 DUP2 MSTORE PUSH1 0x20 ADD PUSH0 KECCAK256 SLOAD SWAP1 POP SWAP3 SWAP2 POP POP JUMP JUMPDEST PUSH1 0x9 PUSH0 SWAP1 SLOAD SWAP1 PUSH2 0x100 EXP SWAP1 DIV PUSH20 0xFFFFFFFFFFFFFFFFFFFFFFFFFFFFFFFFFFFFFFFF AND DUP2 JUMP JUMPDEST PUSH2 0xD02 PUSH2 0x1A38 JUMP JUMPDEST PUSH1 0x7 PUSH0 SWAP1 SLOAD SWAP1 PUSH2 0x100 EXP SWAP1 DIV PUSH20 0xFFFFFFFFFFFFFFFFFFFFFFFFFFFFFFFFFFFFFFFF AND PUSH20 0xFFFFFFFFFFFFFFFFFFFFFFFFFFFFFFFFFFFFFFFF AND CALLER PUSH20 0xFFFFFFFFFFFFFFFFFFFFFFFFFFFFFFFFFFFFFFFF AND EQ PUSH2 0xD88 JUMPI PUSH1 0x40 MLOAD PUSH32 0x5C427CD900000000000000000000000000000000000000000000000000000000 DUP2 MSTORE PUSH1 0x4 ADD PUSH1 0x40 MLOAD DUP1 SWAP2 SUB SWAP1 REVERT JUMPDEST PUSH2 0xD90 PUSH2 0x12D8 JUMP JUMPDEST PUSH2 0xD98 PUSH2 0x1178 JUMP JUMPDEST PUSH0 DUP3 SUB PUSH2 0xDD1 JUMPI PUSH1 0x40 MLOAD PUSH32 0x2C5211C600000000000000000000000000000000000000000000000000000000 DUP2 MSTORE PUSH1 0x4 ADD PUSH1 0x40 MLOAD DUP1 SWAP2 SUB SWAP1 REVERT JUMPDEST PUSH0 PUSH1 0xA PUSH0 DUP7 DUP2 MSTORE PUSH1 0x20 ADD SWAP1 DUP2 MSTORE PUSH1 0x20 ADD PUSH0 KECCAK256 SLOAD SWAP1 POP PUSH0 DUP4 DUP3 LT ISZERO SWAP1 POP PUSH0 DUP1 DUP3 ISZERO PUSH2 0xF93 JUMPI PUSH2 0x2710 PUSH1 0x8 SLOAD DUP8 PUSH2 0xE06 SWAP2 SWAP1 PUSH2 0x1FD6 JUMP JUMPDEST PUSH2 0xE10 SWAP2 SWAP1 PUSH2 0x2044 JUMP JUMPDEST SWAP1 POP DUP1 DUP7 PUSH2 0xE1E SWAP2 SWAP1 PUSH2 0x1F3B JUMP JUMPDEST SWAP2 POP DUP6 DUP5 PUSH2 0xE2C SWAP2 SWAP1 PUSH2 0x1F3B JUMP JUMPDEST PUSH1 0xA PUSH0 DUP11 DUP2 MSTORE PUSH1 0x20 ADD SWAP1 DUP2 MSTORE PUSH1 0x20 ADD PUSH0 KECCAK256 DUP2 SWAP1 SSTORE POP PUSH0 DUP2 GT ISZERO PUSH2 0xEF1 JUMPI PUSH0 PUSH2 0xE75 PUSH1 0x9 PUSH0 SWAP1 SLOAD SWAP1 PUSH2 0x100 EXP SWAP1 DIV PUSH20 0xFFFFFFFFFFFFFFFFFFFFFFFFFFFFFFFFFFFFFFFF AND DUP4 PUSH2 0xA7F JUMP JUMPDEST SWAP1 POP DUP1 PUSH2 0xEB7 JUMPI PUSH1 0x40 MLOAD PUSH32 0x8C379A000000000000000000000000000000000000000000000000000000000 DUP2 MSTORE PUSH1 0x4 ADD PUSH2 0xEAE SWAP1 PUSH2 0x20BE JUMP JUMPDEST PUSH1 0x40 MLOAD DUP1 SWAP2 SUB SWAP1 REVERT JUMPDEST DUP9 PUSH32 0xACFA15EBE340982FEF95D43AAFC25D741382D7928A00055A209274FA615D5277 DUP4 PUSH1 0x40 MLOAD PUSH2 0xEE7 SWAP2 SWAP1 PUSH2 0x1BF9 JUMP JUMPDEST PUSH1 0x40 MLOAD DUP1 SWAP2 SUB SWAP1 LOG2 POP JUMPDEST PUSH0 PUSH2 0xEFC DUP9 DUP5 PUSH2 0xA7F JUMP JUMPDEST SWAP1 POP DUP1 PUSH2 0xF3E JUMPI PUSH1 0x40 MLOAD PUSH32 0x8C379A000000000000000000000000000000000000000000000000000000000 DUP2 MSTORE PUSH1 0x4 ADD PUSH2 0xF35 SWAP1 PUSH2 0x2126 JUMP JUMPDEST PUSH1 0x40 MLOAD DUP1 SWAP2 SUB SWAP1 REVERT JUMPDEST DUP8 PUSH20 0xFFFFFFFFFFFFFFFFFFFFFFFFFFFFFFFFFFFFFFFF AND DUP10 PUSH32 0x4C3044279DAEA82275BC16A26600FE0C196CB65422B138C02DC86FB861B174CA DUP6 PUSH1 0x40 MLOAD PUSH2 0xF85 SWAP2 SWAP1 PUSH2 0x1BF9 JUMP JUMPDEST PUSH1 0x40 MLOAD DUP1 SWAP2 SUB SWAP1 LOG3 POP PUSH2 0x109D JUMP JUMPDEST DUP4 SWAP2 POP PUSH0 SWAP1 POP PUSH0 PUSH1 0xA PUSH0 DUP11 DUP2 MSTORE PUSH1 0x20 ADD SWAP1 DUP2 MSTORE PUSH1 0x20 ADD PUSH0 KECCAK256 DUP2 SWAP1 SSTORE POP PUSH0 DUP3 GT ISZERO PUSH2 0x1062 JUMPI PUSH0 PUSH2 0xFC2 DUP9 DUP5 PUSH2 0xA7F JUMP JUMPDEST SWAP1 POP DUP1 PUSH2 0x1004 JUMPI PUSH1 0x40 MLOAD PUSH32 0x8C379A000000000000000000000000000000000000000000000000000000000 DUP2 MSTORE PUSH1 0x4 ADD PUSH2 0xFFB SWAP1 PUSH2 0x218E JUMP JUMPDEST PUSH1 0x40 MLOAD DUP1 SWAP2 SUB SWAP1 REVERT JUMPDEST DUP8 PUSH20 0xFFFFFFFFFFFFFFFFFFFFFFFFFFFFFFFFFFFFFFFF AND DUP10 PUSH32 0x5D16C483BEE69284681447FE545192ACC0F537A2CD7C2CD35593A1EDB5243290 DUP6 DUP7 DUP12 PUSH2 0x104A SWAP2 SWAP1 PUSH2 0x1F3B JUMP JUMPDEST PUSH1 0x40 MLOAD PUSH2 0x1058 SWAP3 SWAP2 SWAP1 PUSH2 0x1C3D JUMP JUMPDEST PUSH1 0x40 MLOAD DUP1 SWAP2 SUB SWAP1 LOG3 POP JUMPDEST DUP8 PUSH32 0x574264649C9D702F91C09E683982319DA6546E5CFEE0A4898A3BD6BF1C63042F DUP6 DUP9 PUSH1 0x40 MLOAD PUSH2 0x1094 SWAP3 SWAP2 SWAP1 PUSH2 0x1C3D JUMP JUMPDEST PUSH1 0x40 MLOAD DUP1 SWAP2 SUB SWAP1 LOG2 JUMPDEST PUSH1 0x40 MLOAD DUP1 PUSH1 0x60 ADD PUSH1 0x40 MSTORE DUP1 DUP4 DUP2 MSTORE PUSH1 0x20 ADD DUP4 DUP9 PUSH2 0x10BA SWAP2 SWAP1 PUSH2 0x1F3B JUMP JUMPDEST DUP2 MSTORE PUSH1 0x20 ADD DUP5 ISZERO ISZERO ISZERO DUP2 MSTORE POP SWAP5 POP POP POP POP POP PUSH2 0x10D4 PUSH2 0x14A9 JUMP JUMPDEST SWAP4 SWAP3 POP POP POP JUMP JUMPDEST PUSH2 0x10E3 PUSH2 0x11F0 JUMP JUMPDEST PUSH0 PUSH20 0xFFFFFFFFFFFFFFFFFFFFFFFFFFFFFFFFFFFFFFFF AND DUP2 PUSH20 0xFFFFFFFFFFFFFFFFFFFFFFFFFFFFFFFFFFFFFFFF AND SUB PUSH2 0x1153 JUMPI PUSH0 PUSH1 0x40 MLOAD PUSH32 0x1E4FBDF700000000000000000000000000000000000000000000000000000000 DUP2 MSTORE PUSH1 0x4 ADD PUSH2 0x114A SWAP2 SWAP1 PUSH2 0x1D35 JUMP JUMPDEST PUSH1 0x40 MLOAD DUP1 SWAP2 SUB SWAP1 REVERT JUMPDEST PUSH2 0x115C DUP2 PUSH2 0x14B3 JUMP JUMPDEST POP JUMP JUMPDEST PUSH0 CALLER SWAP1 POP SWAP1 JUMP JUMPDEST PUSH2 0x1173 DUP4 DUP4 DUP4 PUSH1 0x1 PUSH2 0x1607 JUMP JUMPDEST POP POP POP JUMP JUMPDEST PUSH2 0x1180 PUSH2 0x6DC JUMP JUMPDEST ISZERO PUSH2 0x11C0 JUMPI PUSH1 0x40 MLOAD PUSH32 0x8C379A000000000000000000000000000000000000000000000000000000000 DUP2 MSTORE PUSH1 0x4 ADD PUSH2 0x11B7 SWAP1 PUSH2 0x21F6 JUMP JUMPDEST PUSH1 0x40 MLOAD DUP1 SWAP2 SUB SWAP1 REVERT JUMPDEST JUMP JUMPDEST PUSH0 DUP1 PUSH2 0x11CC PUSH2 0x115F JUMP JUMPDEST SWAP1 POP PUSH2 0x11D9 DUP6 DUP3 DUP6 PUSH2 0x1327 JUMP JUMPDEST PUSH2 0x11E4 DUP6 DUP6 DUP6 PUSH2 0x13B9 JUMP JUMPDEST PUSH1 0x1 SWAP2 POP POP SWAP4 SWAP3 POP POP POP JUMP JUMPDEST PUSH2 0x11F8 PUSH2 0x115F JUMP JUMPDEST PUSH20 0xFFFFFFFFFFFFFFFFFFFFFFFFFFFFFFFFFFFFFFFF AND PUSH2 0x1216 PUSH2 0x91C JUMP JUMPDEST PUSH20 0xFFFFFFFFFFFFFFFFFFFFFFFFFFFFFFFFFFFFFFFF AND EQ PUSH2 0x1275 JUMPI PUSH2 0x1239 PUSH2 0x115F JUMP JUMPDEST PUSH1 0x40 MLOAD PUSH32 0x118CDAA700000000000000000000000000000000000000000000000000000000 DUP2 MSTORE PUSH1 0x4 ADD PUSH2 0x126C SWAP2 SWAP1 PUSH2 0x1D35 JUMP JUMPDEST PUSH1 0x40 MLOAD DUP1 SWAP2 SUB SWAP1 REVERT JUMPDEST JUMP JUMPDEST PUSH2 0x127F PUSH2 0x17D6 JUMP JUMPDEST PUSH0 PUSH1 0x5 PUSH0 PUSH2 0x100 EXP DUP2 SLOAD DUP2 PUSH1 0xFF MUL NOT AND SWAP1 DUP4 ISZERO ISZERO MUL OR SWAP1 SSTORE POP PUSH32 0x5DB9EE0A495BF2E6FF9C91A7834C1BA4FDD244A5E8AA4E537BD38AEAE4B073AA PUSH2 0x12C1 PUSH2 0x115F JUMP JUMPDEST PUSH1 0x40 MLOAD PUSH2 0x12CE SWAP2 SWAP1 PUSH2 0x1D35 JUMP JUMPDEST PUSH1 0x40 MLOAD DUP1 SWAP2 SUB SWAP1 LOG1 JUMP JUMPDEST PUSH1 0x2 PUSH1 0x6 SLOAD SUB PUSH2 0x131D JUMPI PUSH1 0x40 MLOAD PUSH32 0x8C379A000000000000000000000000000000000000000000000000000000000 DUP2 MSTORE PUSH1 0x4 ADD PUSH2 0x1314 SWAP1 PUSH2 0x225E JUMP JUMPDEST PUSH1 0x40 MLOAD DUP1 SWAP2 SUB SWAP1 REVERT JUMPDEST PUSH1 0x2 PUSH1 0x6 DUP2 SWAP1 SSTORE POP JUMP JUMPDEST PUSH0 PUSH2 0x1332 DUP5 DUP5 PUSH2 0xC53 JUMP JUMPDEST SWAP1 POP PUSH32 0xFFFFFFFFFFFFFFFFFFFFFFFFFFFFFFFFFFFFFFFFFFFFFFFFFFFFFFFFFFFFFFFF DUP2 EQ PUSH2 0x13B3 JUMPI DUP2 DUP2 LT ISZERO PUSH2 0x13A4 JUMPI DUP3 DUP2 DUP4 PUSH1 0x40 MLOAD PUSH32 0xFB8F41B200000000000000000000000000000000000000000000000000000000 DUP2 MSTORE PUSH1 0x4 ADD PUSH2 0x139B SWAP4 SWAP3 SWAP2 SWAP1 PUSH2 0x227C JUMP JUMPDEST PUSH1 0x40 MLOAD DUP1 SWAP2 SUB SWAP1 REVERT JUMPDEST PUSH2 0x13B2 DUP5 DUP5 DUP5 DUP5 SUB PUSH0 PUSH2 0x1607 JUMP JUMPDEST JUMPDEST POP POP POP POP JUMP JUMPDEST PUSH0 PUSH20 0xFFFFFFFFFFFFFFFFFFFFFFFFFFFFFFFFFFFFFFFF AND DUP4 PUSH20 0xFFFFFFFFFFFFFFFFFFFFFFFFFFFFFFFFFFFFFFFF AND SUB PUSH2 0x1429 JUMPI PUSH0 PUSH1 0x40 MLOAD PUSH32 0x96C6FD1E00000000000000000000000000000000000000000000000000000000 DUP2 MSTORE PUSH1 0x4 ADD PUSH2 0x1420 SWAP2 SWAP1 PUSH2 0x1D35 JUMP JUMPDEST PUSH1 0x40 MLOAD DUP1 SWAP2 SUB SWAP1 REVERT JUMPDEST PUSH0 PUSH20 0xFFFFFFFFFFFFFFFFFFFFFFFFFFFFFFFFFFFFFFFF AND DUP3 PUSH20 0xFFFFFFFFFFFFFFFFFFFFFFFFFFFFFFFFFFFFFFFF AND SUB PUSH2 0x1499 JUMPI PUSH0 PUSH1 0x40 MLOAD PUSH32 0xEC442F0500000000000000000000000000000000000000000000000000000000 DUP2 MSTORE PUSH1 0x4 ADD PUSH2 0x1490 SWAP2 SWAP1 PUSH2 0x1D35 JUMP JUMPDEST PUSH1 0x40 MLOAD DUP1 SWAP2 SUB SWAP1 REVERT JUMPDEST PUSH2 0x14A4 DUP4 DUP4 DUP4 PUSH2 0x181F JUMP JUMPDEST POP POP POP JUMP JUMPDEST PUSH1 0x1 PUSH1 0x6 DUP2 SWAP1 SSTORE POP JUMP JUMPDEST PUSH0 PUSH1 0x5 PUSH1 0x1 SWAP1 SLOAD SWAP1 PUSH2 0x100 EXP SWAP1 DIV PUSH20 0xFFFFFFFFFFFFFFFFFFFFFFFFFFFFFFFFFFFFFFFF AND SWAP1 POP DUP2 PUSH1 0x5 PUSH1 0x1 PUSH2 0x100 EXP DUP2 SLOAD DUP2 PUSH20 0xFFFFFFFFFFFFFFFFFFFFFFFFFFFFFFFFFFFFFFFF MUL NOT AND SWAP1 DUP4 PUSH20 0xFFFFFFFFFFFFFFFFFFFFFFFFFFFFFFFFFFFFFFFF AND MUL OR SWAP1 SSTORE POP DUP2 PUSH20 0xFFFFFFFFFFFFFFFFFFFFFFFFFFFFFFFFFFFFFFFF AND DUP2 PUSH20 0xFFFFFFFFFFFFFFFFFFFFFFFFFFFFFFFFFFFFFFFF AND PUSH32 0x8BE0079C531659141344CD1FD0A4F28419497F9722A3DAAFE3B4186F6B6457E0 PUSH1 0x40 MLOAD PUSH1 0x40 MLOAD DUP1 SWAP2 SUB SWAP1 LOG3 POP POP JUMP JUMPDEST PUSH2 0x1580 PUSH2 0x1178 JUMP JUMPDEST PUSH1 0x1 PUSH1 0x5 PUSH0 PUSH2 0x100 EXP DUP2 SLOAD DUP2 PUSH1 0xFF MUL NOT AND SWAP1 DUP4 ISZERO ISZERO MUL OR SWAP1 SSTORE POP PUSH32 0x62E78CEA01BEE320CD4E420270B5EA74000D11B0C9F74754EBDBFC544B05A258 PUSH2 0x15C3 PUSH2 0x115F JUMP JUMPDEST PUSH1 0x40 MLOAD PUSH2 0x15D0 SWAP2 SWAP1 PUSH2 0x1D35 JUMP JUMPDEST PUSH1 0x40 MLOAD DUP1 SWAP2 SUB SWAP1 LOG1 JUMP JUMPDEST PUSH0 DUP1 PUSH2 0x15E4 PUSH2 0x115F JUMP JUMPDEST SWAP1 POP PUSH2 0x15F1 DUP2 DUP6 DUP6 PUSH2 0x13B9 JUMP JUMPDEST PUSH1 0x1 SWAP2 POP POP SWAP3 SWAP2 POP POP JUMP JUMPDEST PUSH0 PUSH1 0x1 SWAP1 POP SWAP3 SWAP2 POP POP JUMP JUMPDEST PUSH0 PUSH20 0xFFFFFFFFFFFFFFFFFFFFFFFFFFFFFFFFFFFFFFFF AND DUP5 PUSH20 0xFFFFFFFFFFFFFFFFFFFFFFFFFFFFFFFFFFFFFFFF AND SUB PUSH2 0x1677 JUMPI PUSH0 PUSH1 0x40 MLOAD PUSH32 0xE602DF0500000000000000000000000000000000000000000000000000000000 DUP2 MSTORE PUSH1 0x4 ADD PUSH2 0x166E SWAP2 SWAP1 PUSH2 0x1D35 JUMP JUMPDEST PUSH1 0x40 MLOAD DUP1 SWAP2 SUB SWAP1 REVERT JUMPDEST PUSH0 PUSH20 0xFFFFFFFFFFFFFFFFFFFFFFFFFFFFFFFFFFFFFFFF AND DUP4 PUSH20 0xFFFFFFFFFFFFFFFFFFFFFFFFFFFFFFFFFFFFFFFF AND SUB PUSH2 0x16E7 JUMPI PUSH0 PUSH1 0x40 MLOAD PUSH32 0x94280D6200000000000000000000000000000000000000000000000000000000 DUP2 MSTORE PUSH1 0x4 ADD PUSH2 0x16DE SWAP2 SWAP1 PUSH2 0x1D35 JUMP JUMPDEST PUSH1 0x40 MLOAD DUP1 SWAP2 SUB SWAP1 REVERT JUMPDEST DUP2 PUSH1 0x1 PUSH0 DUP7 PUSH20 0xFFFFFFFFFFFFFFFFFFFFFFFFFFFFFFFFFFFFFFFF AND PUSH20 0xFFFFFFFFFFFFFFFFFFFFFFFFFFFFFFFFFFFFFFFF AND DUP2 MSTORE PUSH1 0x20 ADD SWAP1 DUP2 MSTORE PUSH1 0x20 ADD PUSH0 KECCAK256 PUSH0 DUP6 PUSH20 0xFFFFFFFFFFFFFFFFFFFFFFFFFFFFFFFFFFFFFFFF AND PUSH20 0xFFFFFFFFFFFFFFFFFFFFFFFFFFFFFFFFFFFFFFFF AND DUP2 MSTORE PUSH1 0x20 ADD SWAP1 DUP2 MSTORE PUSH1 0x20 ADD PUSH0 KECCAK256 DUP2 SWAP1 SSTORE POP DUP1 ISZERO PUSH2 0x17D0 JUMPI DUP3 PUSH20 0xFFFFFFFFFFFFFFFFFFFFFFFFFFFFFFFFFFFFFFFF AND DUP5 PUSH20 0xFFFFFFFFFFFFFFFFFFFFFFFFFFFFFFFFFFFFFFFF AND PUSH32 0x8C5BE1E5EBEC7D5BD14F71427D1E84F3DD0314C0F7B2291E5B200AC8C7C3B925 DUP5 PUSH1 0x40 MLOAD PUSH2 0x17C7 SWAP2 SWAP1 PUSH2 0x1BF9 JUMP JUMPDEST PUSH1 0x40 MLOAD DUP1 SWAP2 SUB SWAP1 LOG3 JUMPDEST POP POP POP POP JUMP JUMPDEST PUSH2 0x17DE PUSH2 0x6DC JUMP JUMPDEST PUSH2 0x181D JUMPI PUSH1 0x40 MLOAD PUSH32 0x8C379A000000000000000000000000000000000000000000000000000000000 DUP2 MSTORE PUSH1 0x4 ADD PUSH2 0x1814 SWAP1 PUSH2 0x22FB JUMP JUMPDEST PUSH1 0x40 MLOAD DUP1 SWAP2 SUB SWAP1 REVERT JUMPDEST JUMP JUMPDEST PUSH0 PUSH20 0xFFFFFFFFFFFFFFFFFFFFFFFFFFFFFFFFFFFFFFFF AND DUP4 PUSH20 0xFFFFFFFFFFFFFFFFFFFFFFFFFFFFFFFFFFFFFFFF AND SUB PUSH2 0x186F JUMPI DUP1 PUSH1 0x2 PUSH0 DUP3 DUP3 SLOAD PUSH2 0x1863 SWAP2 SWAP1 PUSH2 0x1F08 JUMP JUMPDEST SWAP3 POP POP DUP2 SWAP1 SSTORE POP PUSH2 0x193D JUMP JUMPDEST PUSH0 DUP1 PUSH0 DUP6 PUSH20 0xFFFFFFFFFFFFFFFFFFFFFFFFFFFFFFFFFFFFFFFF AND PUSH20 0xFFFFFFFFFFFFFFFFFFFFFFFFFFFFFFFFFFFFFFFF AND DUP2 MSTORE PUSH1 0x20 ADD SWAP1 DUP2 MSTORE PUSH1 0x20 ADD PUSH0 KECCAK256 SLOAD SWAP1 POP DUP2 DUP2 LT ISZERO PUSH2 0x18F8 JUMPI DUP4 DUP2 DUP4 PUSH1 0x40 MLOAD PUSH32 0xE450D38C00000000000000000000000000000000000000000000000000000000 DUP2 MSTORE PUSH1 0x4 ADD PUSH2 0x18EF SWAP4 SWAP3 SWAP2 SWAP1 PUSH2 0x227C JUMP JUMPDEST PUSH1 0x40 MLOAD DUP1 SWAP2 SUB SWAP1 REVERT JUMPDEST DUP2 DUP2 SUB PUSH0 DUP1 DUP7 PUSH20 0xFFFFFFFFFFFFFFFFFFFFFFFFFFFFFFFFFFFFFFFF AND PUSH20 0xFFFFFFFFFFFFFFFFFFFFFFFFFFFFFFFFFFFFFFFF AND DUP2 MSTORE PUSH1 0x20 ADD SWAP1 DUP2 MSTORE PUSH1 0x20 ADD PUSH0 KECCAK256 DUP2 SWAP1 SSTORE POP POP JUMPDEST PUSH0 PUSH20 0xFFFFFFFFFFFFFFFFFFFFFFFFFFFFFFFFFFFFFFFF AND DUP3 PUSH20 0xFFFFFFFFFFFFFFFFFFFFFFFFFFFFFFFFFFFFFFFF AND SUB PUSH2 0x1984 JUMPI DUP1 PUSH1 0x2 PUSH0 DUP3 DUP3 SLOAD SUB SWAP3 POP POP DUP2 SWAP1 SSTORE POP PUSH2 0x19CE JUMP JUMPDEST DUP1 PUSH0 DUP1 DUP5 PUSH20 0xFFFFFFFFFFFFFFFFFFFFFFFFFFFFFFFFFFFFFFFF AND PUSH20 0xFFFFFFFFFFFFFFFFFFFFFFFFFFFFFFFFFFFFFFFF AND DUP2 MSTORE PUSH1 0x20 ADD SWAP1 DUP2 MSTORE PUSH1 0x20 ADD PUSH0 KECCAK256 PUSH0 DUP3 DUP3 SLOAD ADD SWAP3 POP POP DUP2 SWAP1 SSTORE POP JUMPDEST DUP2 PUSH20 0xFFFFFFFFFFFFFFFFFFFFFFFFFFFFFFFFFFFFFFFF AND DUP4 PUSH20 0xFFFFFFFFFFFFFFFFFFFFFFFFFFFFFFFFFFFFFFFF AND PUSH32 0xDDF252AD1BE2C89B69C2B068FC378DAA952BA7F163C4A11628F55A4DF523B3EF DUP4 PUSH1 0x40 MLOAD PUSH2 0x1A2B SWAP2 SWAP1 PUSH2 0x1BF9 JUMP JUMPDEST PUSH1 0x40 MLOAD DUP1 SWAP2 SUB SWAP1 LOG3 POP POP POP JUMP JUMPDEST PUSH1 0x40 MLOAD DUP1 PUSH1 0x60 ADD PUSH1 0x40 MSTORE DUP1 PUSH0 DUP2 MSTORE PUSH1 0x20 ADD PUSH0 DUP2 MSTORE PUSH1 0x20 ADD PUSH0 ISZERO ISZERO DUP2 MSTORE POP SWAP1 JUMP JUMPDEST PUSH0 DUP2 MLOAD SWAP1 POP SWAP2 SWAP1 POP JUMP JUMPDEST PUSH0 DUP3 DUP3 MSTORE PUSH1 0x20 DUP3 ADD SWAP1 POP SWAP3 SWAP2 POP POP JUMP JUMPDEST DUP3 DUP2 DUP4 MCOPY PUSH0 DUP4 DUP4 ADD MSTORE POP POP POP JUMP JUMPDEST PUSH0 PUSH1 0x1F NOT PUSH1 0x1F DUP4 ADD AND SWAP1 POP SWAP2 SWAP1 POP JUMP JUMPDEST PUSH0 PUSH2 0x1A9A DUP3 PUSH2 0x1A58 JUMP JUMPDEST PUSH2 0x1AA4 DUP2 DUP6 PUSH2 0x1A62 JUMP JUMPDEST SWAP4 POP PUSH2 0x1AB4 DUP2 DUP6 PUSH1 0x20 DUP7 ADD PUSH2 0x1A72 JUMP JUMPDEST PUSH2 0x1ABD DUP2 PUSH2 0x1A80 JUMP JUMPDEST DUP5 ADD SWAP2 POP POP SWAP3 SWAP2 POP POP JUMP JUMPDEST PUSH0 PUSH1 0x20 DUP3 ADD SWAP1 POP DUP2 DUP2 SUB PUSH0 DUP4 ADD MSTORE PUSH2 0x1AE0 DUP2 DUP5 PUSH2 0x1A90 JUMP JUMPDEST SWAP1 POP SWAP3 SWAP2 POP POP JUMP JUMPDEST PUSH0 DUP1 REVERT JUMPDEST PUSH0 PUSH20 0xFFFFFFFFFFFFFFFFFFFFFFFFFFFFFFFFFFFFFFFF DUP3 AND SWAP1 POP SWAP2 SWAP1 POP JUMP JUMPDEST PUSH0 PUSH2 0x1B15 DUP3 PUSH2 0x1AEC JUMP JUMPDEST SWAP1 POP SWAP2 SWAP1 POP JUMP JUMPDEST PUSH2 0x1B25 DUP2 PUSH2 0x1B0B JUMP JUMPDEST DUP2 EQ PUSH2 0x1B2F JUMPI PUSH0 DUP1 REVERT JUMPDEST POP JUMP JUMPDEST PUSH0 DUP2 CALLDATALOAD SWAP1 POP PUSH2 0x1B40 DUP2 PUSH2 0x1B1C JUMP JUMPDEST SWAP3 SWAP2 POP POP JUMP JUMPDEST PUSH0 DUP2 SWAP1 POP SWAP2 SWAP1 POP JUMP JUMPDEST PUSH2 0x1B58 DUP2 PUSH2 0x1B46 JUMP JUMPDEST DUP2 EQ PUSH2 0x1B62 JUMPI PUSH0 DUP1 REVERT JUMPDEST POP JUMP JUMPDEST PUSH0 DUP2 CALLDATALOAD SWAP1 POP PUSH2 0x1B73 DUP2 PUSH2 0x1B4F JUMP JUMPDEST SWAP3 SWAP2 POP POP JUMP JUMPDEST PUSH0 DUP1 PUSH1 0x40 DUP4 DUP6 SUB SLT ISZERO PUSH2 0x1B8F JUMPI PUSH2 0x1B8E PUSH2 0x1AE8 JUMP JUMPDEST JUMPDEST PUSH0 PUSH2 0x1B9C DUP6 DUP3 DUP7 ADD PUSH2 0x1B32 JUMP JUMPDEST SWAP3 POP POP PUSH1 0x20 PUSH2 0x1BAD DUP6 DUP3 DUP7 ADD PUSH2 0x1B65 JUMP JUMPDEST SWAP2 POP POP SWAP3 POP SWAP3 SWAP1 POP JUMP JUMPDEST PUSH0 DUP2 ISZERO ISZERO SWAP1 POP SWAP2 SWAP1 POP JUMP JUMPDEST PUSH2 0x1BCB DUP2 PUSH2 0x1BB7 JUMP JUMPDEST DUP3 MSTORE POP POP JUMP JUMPDEST PUSH0 PUSH1 0x20 DUP3 ADD SWAP1 POP PUSH2 0x1BE4 PUSH0 DUP4 ADD DUP5 PUSH2 0x1BC2 JUMP JUMPDEST SWAP3 SWAP2 POP POP JUMP JUMPDEST PUSH2 0x1BF3 DUP2 PUSH2 0x1B46 JUMP JUMPDEST DUP3 MSTORE POP POP JUMP JUMPDEST PUSH0 PUSH1 0x20 DUP3 ADD SWAP1 POP PUSH2 0x1C0C PUSH0 DUP4 ADD DUP5 PUSH2 0x1BEA JUMP JUMPDEST SWAP3 SWAP2 POP POP JUMP JUMPDEST PUSH0 PUSH1 0x20 DUP3 DUP5 SUB SLT ISZERO PUSH2 0x1C27 JUMPI PUSH2 0x1C26 PUSH2 0x1AE8 JUMP JUMPDEST JUMPDEST PUSH0 PUSH2 0x1C34 DUP5 DUP3 DUP6 ADD PUSH2 0x1B32 JUMP JUMPDEST SWAP2 POP POP SWAP3 SWAP2 POP POP JUMP JUMPDEST PUSH0 PUSH1 0x40 DUP3 ADD SWAP1 POP PUSH2 0x1C50 PUSH0 DUP4 ADD DUP6 PUSH2 0x1BEA JUMP JUMPDEST PUSH2 0x1C5D PUSH1 0x20 DUP4 ADD DUP5 PUSH2 0x1BEA JUMP JUMPDEST SWAP4 SWAP3 POP POP POP JUMP JUMPDEST PUSH0 DUP1 PUSH0 PUSH1 0x60 DUP5 DUP7 SUB SLT ISZERO PUSH2 0x1C7B JUMPI PUSH2 0x1C7A PUSH2 0x1AE8 JUMP JUMPDEST JUMPDEST PUSH0 PUSH2 0x1C88 DUP7 DUP3 DUP8 ADD PUSH2 0x1B32 JUMP JUMPDEST SWAP4 POP POP PUSH1 0x20 PUSH2 0x1C99 DUP7 DUP3 DUP8 ADD PUSH2 0x1B32 JUMP JUMPDEST SWAP3 POP POP PUSH1 0x40 PUSH2 0x1CAA DUP7 DUP3 DUP8 ADD PUSH2 0x1B65 JUMP JUMPDEST SWAP2 POP POP SWAP3 POP SWAP3 POP SWAP3 JUMP JUMPDEST PUSH0 PUSH1 0xFF DUP3 AND SWAP1 POP SWAP2 SWAP1 POP JUMP JUMPDEST PUSH2 0x1CC9 DUP2 PUSH2 0x1CB4 JUMP JUMPDEST DUP3 MSTORE POP POP JUMP JUMPDEST PUSH0 PUSH1 0x20 DUP3 ADD SWAP1 POP PUSH2 0x1CE2 PUSH0 DUP4 ADD DUP5 PUSH2 0x1CC0 JUMP JUMPDEST SWAP3 SWAP2 POP POP JUMP JUMPDEST PUSH0 DUP1 PUSH1 0x40 DUP4 DUP6 SUB SLT ISZERO PUSH2 0x1CFE JUMPI PUSH2 0x1CFD PUSH2 0x1AE8 JUMP JUMPDEST JUMPDEST PUSH0 PUSH2 0x1D0B DUP6 DUP3 DUP7 ADD PUSH2 0x1B65 JUMP JUMPDEST SWAP3 POP POP PUSH1 0x20 PUSH2 0x1D1C DUP6 DUP3 DUP7 ADD PUSH2 0x1B65 JUMP JUMPDEST SWAP2 POP POP SWAP3 POP SWAP3 SWAP1 POP JUMP JUMPDEST PUSH2 0x1D2F DUP2 PUSH2 0x1B0B JUMP JUMPDEST DUP3 MSTORE POP POP JUMP JUMPDEST PUSH0 PUSH1 0x20 DUP3 ADD SWAP1 POP PUSH2 0x1D48 PUSH0 DUP4 ADD DUP5 PUSH2 0x1D26 JUMP JUMPDEST SWAP3 SWAP2 POP POP JUMP JUMPDEST PUSH0 PUSH1 0x20 DUP3 DUP5 SUB SLT ISZERO PUSH2 0x1D63 JUMPI PUSH2 0x1D62 PUSH2 0x1AE8 JUMP JUMPDEST JUMPDEST PUSH0 PUSH2 0x1D70 DUP5 DUP3 DUP6 ADD PUSH2 0x1B65 JUMP JUMPDEST SWAP2 POP POP SWAP3 SWAP2 POP POP JUMP JUMPDEST PUSH0 DUP1 PUSH1 0x40 DUP4 DUP6 SUB SLT ISZERO PUSH2 0x1D8F JUMPI PUSH2 0x1D8E PUSH2 0x1AE8 JUMP JUMPDEST JUMPDEST PUSH0 PUSH2 0x1D9C DUP6 DUP3 DUP7 ADD PUSH2 0x1B32 JUMP JUMPDEST SWAP3 POP POP PUSH1 0x20 PUSH2 0x1DAD DUP6 DUP3 DUP7 ADD PUSH2 0x1B32 JUMP JUMPDEST SWAP2 POP POP SWAP3 POP SWAP3 SWAP1 POP JUMP JUMPDEST PUSH0 DUP1 PUSH0 PUSH1 0x60 DUP5 DUP7 SUB SLT ISZERO PUSH2 0x1DCE JUMPI PUSH2 0x1DCD PUSH2 0x1AE8 JUMP JUMPDEST JUMPDEST PUSH0 PUSH2 0x1DDB DUP7 DUP3 DUP8 ADD PUSH2 0x1B65 JUMP JUMPDEST SWAP4 POP POP PUSH1 0x20 PUSH2 0x1DEC DUP7 DUP3 DUP8 ADD PUSH2 0x1B32 JUMP JUMPDEST SWAP3 POP POP PUSH1 0x40 PUSH2 0x1DFD DUP7 DUP3 DUP8 ADD PUSH2 0x1B65 JUMP JUMPDEST SWAP2 POP POP SWAP3 POP SWAP3 POP SWAP3 JUMP JUMPDEST PUSH2 0x1E10 DUP2 PUSH2 0x1B46 JUMP JUMPDEST DUP3 MSTORE POP POP JUMP JUMPDEST PUSH2 0x1E1F DUP2 PUSH2 0x1BB7 JUMP JUMPDEST DUP3 MSTORE POP POP JUMP JUMPDEST PUSH1 0x60 DUP3 ADD PUSH0 DUP3 ADD MLOAD PUSH2 0x1E39 PUSH0 DUP6 ADD DUP3 PUSH2 0x1E07 JUMP JUMPDEST POP PUSH1 0x20 DUP3 ADD MLOAD PUSH2 0x1E4C PUSH1 0x20 DUP6 ADD DUP3 PUSH2 0x1E07 JUMP JUMPDEST POP PUSH1 0x40 DUP3 ADD MLOAD PUSH2 0x1E5F PUSH1 0x40 DUP6 ADD DUP3 PUSH2 0x1E16 JUMP JUMPDEST POP POP POP POP JUMP JUMPDEST PUSH0 PUSH1 0x60 DUP3 ADD SWAP1 POP PUSH2 0x1E78 PUSH0 DUP4 ADD DUP5 PUSH2 0x1E25 JUMP JUMPDEST SWAP3 SWAP2 POP POP JUMP JUMPDEST PUSH32 0x4E487B7100000000000000000000000000000000000000000000000000000000 PUSH0 MSTORE PUSH1 0x22 PUSH1 0x4 MSTORE PUSH1 0x24 PUSH0 REVERT JUMPDEST PUSH0 PUSH1 0x2 DUP3 DIV SWAP1 POP PUSH1 0x1 DUP3 AND DUP1 PUSH2 0x1EC2 JUMPI PUSH1 0x7F DUP3 AND SWAP2 POP JUMPDEST PUSH1 0x20 DUP3 LT DUP2 SUB PUSH2 0x1ED5 JUMPI PUSH2 0x1ED4 PUSH2 0x1E7E JUMP JUMPDEST JUMPDEST POP SWAP2 SWAP1 POP JUMP JUMPDEST PUSH32 0x4E487B7100000000000000000000000000000000000000000000000000000000 PUSH0 MSTORE PUSH1 0x11 PUSH1 0x4 MSTORE PUSH1 0x24 PUSH0 REVERT JUMPDEST PUSH0 PUSH2 0x1F12 DUP3 PUSH2 0x1B46 JUMP JUMPDEST SWAP2 POP PUSH2 0x1F1D DUP4 PUSH2 0x1B46 JUMP JUMPDEST SWAP3 POP DUP3 DUP3 ADD SWAP1 POP DUP1 DUP3 GT ISZERO PUSH2 0x1F35 JUMPI PUSH2 0x1F34 PUSH2 0x1EDB JUMP JUMPDEST JUMPDEST SWAP3 SWAP2 POP POP JUMP JUMPDEST PUSH0 PUSH2 0x1F45 DUP3 PUSH2 0x1B46 JUMP JUMPDEST SWAP2 POP PUSH2 0x1F50 DUP4 PUSH2 0x1B46 JUMP JUMPDEST SWAP3 POP DUP3 DUP3 SUB SWAP1 POP DUP2 DUP2 GT ISZERO PUSH2 0x1F68 JUMPI PUSH2 0x1F67 PUSH2 0x1EDB JUMP JUMPDEST JUMPDEST SWAP3 SWAP2 POP POP JUMP JUMPDEST PUSH32 0x5472616E73666572206661696C65640000000000000000000000000000000000 PUSH0 DUP3 ADD MSTORE POP JUMP JUMPDEST PUSH0 PUSH2 0x1FA2 PUSH1 0xF DUP4 PUSH2 0x1A62 JUMP JUMPDEST SWAP2 POP PUSH2 0x1FAD DUP3 PUSH2 0x1F6E JUMP JUMPDEST PUSH1 0x20 DUP3 ADD SWAP1 POP SWAP2 SWAP1 POP JUMP JUMPDEST PUSH0 PUSH1 0x20 DUP3 ADD SWAP1 POP DUP2 DUP2 SUB PUSH0 DUP4 ADD MSTORE PUSH2 0x1FCF DUP2 PUSH2 0x1F96 JUMP JUMPDEST SWAP1 POP SWAP2 SWAP1 POP JUMP JUMPDEST PUSH0 PUSH2 0x1FE0 DUP3 PUSH2 0x1B46 JUMP JUMPDEST SWAP2 POP PUSH2 0x1FEB DUP4 PUSH2 0x1B46 JUMP JUMPDEST SWAP3 POP DUP3 DUP3 MUL PUSH2 0x1FF9 DUP2 PUSH2 0x1B46 JUMP JUMPDEST SWAP2 POP DUP3 DUP3 DIV DUP5 EQ DUP4 ISZERO OR PUSH2 0x2010 JUMPI PUSH2 0x200F PUSH2 0x1EDB JUMP JUMPDEST JUMPDEST POP SWAP3 SWAP2 POP POP JUMP JUMPDEST PUSH32 0x4E487B7100000000000000000000000000000000000000000000000000000000 PUSH0 MSTORE PUSH1 0x12 PUSH1 0x4 MSTORE PUSH1 0x24 PUSH0 REVERT JUMPDEST PUSH0 PUSH2 0x204E DUP3 PUSH2 0x1B46 JUMP JUMPDEST SWAP2 POP PUSH2 0x2059 DUP4 PUSH2 0x1B46 JUMP JUMPDEST SWAP3 POP DUP3 PUSH2 0x2069 JUMPI PUSH2 0x2068 PUSH2 0x2017 JUMP JUMPDEST JUMPDEST DUP3 DUP3 DIV SWAP1 POP SWAP3 SWAP2 POP POP JUMP JUMPDEST PUSH32 0x436F6D6D697373696F6E207472616E73666572206661696C6564000000000000 PUSH0 DUP3 ADD MSTORE POP JUMP JUMPDEST PUSH0 PUSH2 0x20A8 PUSH1 0x1A DUP4 PUSH2 0x1A62 JUMP JUMPDEST SWAP2 POP PUSH2 0x20B3 DUP3 PUSH2 0x2074 JUMP JUMPDEST PUSH1 0x20 DUP3 ADD SWAP1 POP SWAP2 SWAP1 POP JUMP JUMPDEST PUSH0 PUSH1 0x20 DUP3 ADD SWAP1 POP DUP2 DUP2 SUB PUSH0 DUP4 ADD MSTORE PUSH2 0x20D5 DUP2 PUSH2 0x209C JUMP JUMPDEST SWAP1 POP SWAP2 SWAP1 POP JUMP JUMPDEST PUSH32 0x57616765207472616E73666572206661696C6564000000000000000000000000 PUSH0 DUP3 ADD MSTORE POP JUMP JUMPDEST PUSH0 PUSH2 0x2110 PUSH1 0x14 DUP4 PUSH2 0x1A62 JUMP JUMPDEST SWAP2 POP PUSH2 0x211B DUP3 PUSH2 0x20DC JUMP JUMPDEST PUSH1 0x20 DUP3 ADD SWAP1 POP SWAP2 SWAP1 POP JUMP JUMPDEST PUSH0 PUSH1 0x20 DUP3 ADD SWAP1 POP DUP2 DUP2 SUB PUSH0 DUP4 ADD MSTORE PUSH2 0x213D DUP2 PUSH2 0x2104 JUMP JUMPDEST SWAP1 POP SWAP2 SWAP1 POP JUMP JUMPDEST PUSH32 0x5061727469616C2077616765207472616E73666572206661696C656400000000 PUSH0 DUP3 ADD MSTORE POP JUMP JUMPDEST PUSH0 PUSH2 0x2178 PUSH1 0x1C DUP4 PUSH2 0x1A62 JUMP JUMPDEST SWAP2 POP PUSH2 0x2183 DUP3 PUSH2 0x2144 JUMP JUMPDEST PUSH1 0x20 DUP3 ADD SWAP1 POP SWAP2 SWAP1 POP JUMP JUMPDEST PUSH0 PUSH1 0x20 DUP3 ADD SWAP1 POP DUP2 DUP2 SUB PUSH0 DUP4 ADD MSTORE PUSH2 0x21A5 DUP2 PUSH2 0x216C JUMP JUMPDEST SWAP1 POP SWAP2 SWAP1 POP JUMP JUMPDEST PUSH32 0x5061757361626C653A2070617573656400000000000000000000000000000000 PUSH0 DUP3 ADD MSTORE POP JUMP JUMPDEST PUSH0 PUSH2 0x21E0 PUSH1 0x10 DUP4 PUSH2 0x1A62 JUMP JUMPDEST SWAP2 POP PUSH2 0x21EB DUP3 PUSH2 0x21AC JUMP JUMPDEST PUSH1 0x20 DUP3 ADD SWAP1 POP SWAP2 SWAP1 POP JUMP JUMPDEST PUSH0 PUSH1 0x20 DUP3 ADD SWAP1 POP DUP2 DUP2 SUB PUSH0 DUP4 ADD MSTORE PUSH2 0x220D DUP2 PUSH2 0x21D4 JUMP JUMPDEST SWAP1 POP SWAP2 SWAP1 POP JUMP JUMPDEST PUSH32 0x5265656E7472616E637947756172643A207265656E7472616E742063616C6C00 PUSH0 DUP3 ADD MSTORE POP JUMP JUMPDEST PUSH0 PUSH2 0x2248 PUSH1 0x1F DUP4 PUSH2 0x1A62 JUMP JUMPDEST SWAP2 POP PUSH2 0x2253 DUP3 PUSH2 0x2214 JUMP JUMPDEST PUSH1 0x20 DUP3 ADD SWAP1 POP SWAP2 SWAP1 POP JUMP JUMPDEST PUSH0 PUSH1 0x20 DUP3 ADD SWAP1 POP DUP2 DUP2 SUB PUSH0 DUP4 ADD MSTORE PUSH2 0x2275 DUP2 PUSH2 0x223C JUMP JUMPDEST SWAP1 POP SWAP2 SWAP1 POP JUMP JUMPDEST PUSH0 PUSH1 0x60 DUP3 ADD SWAP1 POP PUSH2 0x228F PUSH0 DUP4 ADD DUP7 PUSH2 0x1D26 JUMP JUMPDEST PUSH2 0x229C PUSH1 0x20 DUP4 ADD DUP6 PUSH2 0x1BEA JUMP JUMPDEST PUSH2 0x22A9 PUSH1 0x40 DUP4 ADD DUP5 PUSH2 0x1BEA JUMP JUMPDEST SWAP5 SWAP4 POP POP POP POP JUMP JUMPDEST PUSH32 0x5061757361626C653A206E6F7420706175736564000000000000000000000000 PUSH0 DUP3 ADD MSTORE POP JUMP JUMPDEST PUSH0 PUSH2 0x22E5 PUSH1 0x14 DUP4 PUSH2 0x1A62 JUMP JUMPDEST SWAP2 POP PUSH2 0x22F0 DUP3 PUSH2 0x22B1 JUMP JUMPDEST PUSH1 0x20 DUP3 ADD SWAP1 POP SWAP2 SWAP1 POP JUMP JUMPDEST PUSH0 PUSH1 0x20 DUP3 ADD SWAP1 POP DUP2 DUP2 SUB PUSH0 DUP4 ADD MSTORE PUSH2 0x2312 DUP2 PUSH2 0x22D9 JUMP JUMPDEST SWAP1 POP SWAP2 SWAP1 POP JUMP INVALID LOG2 PUSH5 0x6970667358 0x22 SLT KECCAK256 CALLDATALOAD ADD 0xCB 0xD2 PUSH18 0xB1F4877697D87CEDE09C92AC36CF5B87D50F BYTE MOD 0xD9 0xB6 0xF6 0xCA 0xA7 PUSH20 0x3264736F6C634300081A00330000000000000000 "
		},
		"gasEstimates": {
			"creation": {
				"codeDepositCost": "1807800",
				"executionCost": "infinite",
				"totalCost": "infinite"
			},
			"external": {
				"allowance(address,address)": "infinite",
				"approve(address,uint256)": "infinite",
				"balanceOf(address)": "2896",
				"chargeSignBalance(uint256,uint256)": "infinite",
				"commissionPercent()": "2448",
				"commissionTreasury()": "2574",
				"decimals()": "384",
				"getApprovalInfo(address)": "infinite",
				"name()": "infinite",
				"owner()": "2633",
				"pause()": "infinite",
				"paused()": "2563",
				"payWage(uint256,address,uint256)": "infinite",
				"renounceOwnership()": "infinite",
				"signBalances(uint256)": "infinite",
				"signsNFTContract()": "2641",
				"symbol()": "infinite",
				"totalSupply()": "2500",
				"transfer(address,uint256)": "infinite",
				"transferFrom(address,address,uint256)": "infinite",
				"transferOwnership(address)": "infinite",
				"unpause()": "infinite",
				"updateCommission(uint256)": "infinite",
				"updateCommissionTreasury(address)": "infinite",
				"updateSignsNFTContract(address)": "infinite",
				"withdrawSignBalance(uint256,uint256)": "infinite"
			},
			"internal": {
				"_isSignOwner(address,uint256)": "29"
			}
		},
		"methodIdentifiers": {
			"allowance(address,address)": "dd62ed3e",
			"approve(address,uint256)": "095ea7b3",
			"balanceOf(address)": "70a08231",
			"chargeSignBalance(uint256,uint256)": "5e182096",
			"commissionPercent()": "77d3550b",
			"commissionTreasury()": "e95850df",
			"decimals()": "313ce567",
			"getApprovalInfo(address)": "1ec48cf7",
			"name()": "06fdde03",
			"owner()": "8da5cb5b",
			"pause()": "8456cb59",
			"paused()": "5c975abb",
			"payWage(uint256,address,uint256)": "ef9ecc1d",
			"renounceOwnership()": "715018a6",
			"signBalances(uint256)": "ca525485",
			"signsNFTContract()": "a3262ea2",
			"symbol()": "95d89b41",
			"totalSupply()": "18160ddd",
			"transfer(address,uint256)": "a9059cbb",
			"transferFrom(address,address,uint256)": "23b872dd",
			"transferOwnership(address)": "f2fde38b",
			"unpause()": "3f4ba83a",
			"updateCommission(uint256)": "9d55fba7",
			"updateCommissionTreasury(address)": "74612f19",
			"updateSignsNFTContract(address)": "2fcdc5fd",
			"withdrawSignBalance(uint256,uint256)": "a9b493e0"
		}
	},
	"abi": [
		{
			"inputs": [
				{
					"internalType": "string",
					"name": "name",
					"type": "string"
				},
				{
					"internalType": "string",
					"name": "symbol",
					"type": "string"
				},
				{
					"internalType": "address",
					"name": "_signsNFTContract",
					"type": "address"
				},
				{
					"internalType": "address",
					"name": "_commissionTreasury",
					"type": "address"
				}
			],
			"stateMutability": "nonpayable",
			"type": "constructor"
		},
		{
			"inputs": [
				{
					"internalType": "address",
					"name": "spender",
					"type": "address"
				},
				{
					"internalType": "uint256",
					"name": "allowance",
					"type": "uint256"
				},
				{
					"internalType": "uint256",
					"name": "needed",
					"type": "uint256"
				}
			],
			"name": "ERC20InsufficientAllowance",
			"type": "error"
		},
		{
			"inputs": [
				{
					"internalType": "address",
					"name": "sender",
					"type": "address"
				},
				{
					"internalType": "uint256",
					"name": "balance",
					"type": "uint256"
				},
				{
					"internalType": "uint256",
					"name": "needed",
					"type": "uint256"
				}
			],
			"name": "ERC20InsufficientBalance",
			"type": "error"
		},
		{
			"inputs": [
				{
					"internalType": "address",
					"name": "approver",
					"type": "address"
				}
			],
			"name": "ERC20InvalidApprover",
			"type": "error"
		},
		{
			"inputs": [
				{
					"internalType": "address",
					"name": "receiver",
					"type": "address"
				}
			],
			"name": "ERC20InvalidReceiver",
			"type": "error"
		},
		{
			"inputs": [
				{
					"internalType": "address",
					"name": "sender",
					"type": "address"
				}
			],
			"name": "ERC20InvalidSender",
			"type": "error"
		},
		{
			"inputs": [
				{
					"internalType": "address",
					"name": "spender",
					"type": "address"
				}
			],
			"name": "ERC20InvalidSpender",
			"type": "error"
		},
		{
			"inputs": [],
			"name": "InsufficientBalance",
			"type": "error"
		},
		{
			"inputs": [],
			"name": "InsufficientSignBalance",
			"type": "error"
		},
		{
			"inputs": [],
			"name": "InvalidAmount",
			"type": "error"
		},
		{
			"inputs": [],
			"name": "InvalidCommission",
			"type": "error"
		},
		{
			"inputs": [],
			"name": "InvalidNFTContract",
			"type": "error"
		},
		{
			"inputs": [],
			"name": "InvalidTreasuryAddress",
			"type": "error"
		},
		{
			"inputs": [
				{
					"internalType": "address",
					"name": "owner",
					"type": "address"
				}
			],
			"name": "OwnableInvalidOwner",
			"type": "error"
		},
		{
			"inputs": [
				{
					"internalType": "address",
					"name": "account",
					"type": "address"
				}
			],
			"name": "OwnableUnauthorizedAccount",
			"type": "error"
		},
		{
			"inputs": [],
			"name": "UnauthorizedCaller",
			"type": "error"
		},
		{
			"inputs": [],
			"name": "UnauthorizedOwner",
			"type": "error"
		},
		{
			"anonymous": false,
			"inputs": [
				{
					"indexed": true,
					"internalType": "address",
					"name": "owner",
					"type": "address"
				},
				{
					"indexed": true,
					"internalType": "address",
					"name": "spender",
					"type": "address"
				},
				{
					"indexed": false,
					"internalType": "uint256",
					"name": "value",
					"type": "uint256"
				}
			],
			"name": "Approval",
			"type": "event"
		},
		{
			"anonymous": false,
			"inputs": [
				{
					"indexed": true,
					"internalType": "uint256",
					"name": "tokenId",
					"type": "uint256"
				},
				{
					"indexed": false,
					"internalType": "uint256",
					"name": "amount",
					"type": "uint256"
				}
			],
			"name": "CommissionPaid",
			"type": "event"
		},
		{
			"anonymous": false,
			"inputs": [
				{
					"indexed": false,
					"internalType": "address",
					"name": "newTreasury",
					"type": "address"
				}
			],
			"name": "CommissionTreasuryUpdated",
			"type": "event"
		},
		{
			"anonymous": false,
			"inputs": [
				{
					"indexed": false,
					"internalType": "uint256",
					"name": "newCommissionPercent",
					"type": "uint256"
				}
			],
			"name": "CommissionUpdated",
			"type": "event"
		},
		{
			"anonymous": false,
			"inputs": [
				{
					"indexed": true,
					"internalType": "uint256",
					"name": "tokenId",
					"type": "uint256"
				},
				{
					"indexed": false,
					"internalType": "uint256",
					"name": "currentBalance",
					"type": "uint256"
				},
				{
					"indexed": false,
					"internalType": "uint256",
					"name": "requiredAmount",
					"type": "uint256"
				}
			],
			"name": "LowSignBalance",
			"type": "event"
		},
		{
			"anonymous": false,
			"inputs": [
				{
					"indexed": false,
					"internalType": "address",
					"name": "newAddress",
					"type": "address"
				}
			],
			"name": "NFTContractUpdated",
			"type": "event"
		},
		{
			"anonymous": false,
			"inputs": [
				{
					"indexed": true,
					"internalType": "address",
					"name": "previousOwner",
					"type": "address"
				},
				{
					"indexed": true,
					"internalType": "address",
					"name": "newOwner",
					"type": "address"
				}
			],
			"name": "OwnershipTransferred",
			"type": "event"
		},
		{
			"anonymous": false,
			"inputs": [
				{
					"indexed": true,
					"internalType": "uint256",
					"name": "tokenId",
					"type": "uint256"
				},
				{
					"indexed": true,
					"internalType": "address",
					"name": "carrier",
					"type": "address"
				},
				{
					"indexed": false,
					"internalType": "uint256",
					"name": "paidAmount",
					"type": "uint256"
				},
				{
					"indexed": false,
					"internalType": "uint256",
					"name": "remainingUnpaid",
					"type": "uint256"
				}
			],
			"name": "PartialWagePaid",
			"type": "event"
		},
		{
			"anonymous": false,
			"inputs": [
				{
					"indexed": false,
					"internalType": "address",
					"name": "account",
					"type": "address"
				}
			],
			"name": "Paused",
			"type": "event"
		},
		{
			"anonymous": false,
			"inputs": [
				{
					"indexed": true,
					"internalType": "uint256",
					"name": "tokenId",
					"type": "uint256"
				},
				{
					"indexed": false,
					"internalType": "uint256",
					"name": "amount",
					"type": "uint256"
				}
			],
			"name": "SignBalanceCharged",
			"type": "event"
		},
		{
			"anonymous": false,
			"inputs": [
				{
					"indexed": true,
					"internalType": "uint256",
					"name": "tokenId",
					"type": "uint256"
				},
				{
					"indexed": true,
					"internalType": "address",
					"name": "owner",
					"type": "address"
				},
				{
					"indexed": false,
					"internalType": "uint256",
					"name": "amount",
					"type": "uint256"
				}
			],
			"name": "SignBalanceWithdrawn",
			"type": "event"
		},
		{
			"anonymous": false,
			"inputs": [
				{
					"indexed": true,
					"internalType": "address",
					"name": "from",
					"type": "address"
				},
				{
					"indexed": true,
					"internalType": "address",
					"name": "to",
					"type": "address"
				},
				{
					"indexed": false,
					"internalType": "uint256",
					"name": "value",
					"type": "uint256"
				}
			],
			"name": "Transfer",
			"type": "event"
		},
		{
			"anonymous": false,
			"inputs": [
				{
					"indexed": false,
					"internalType": "address",
					"name": "account",
					"type": "address"
				}
			],
			"name": "Unpaused",
			"type": "event"
		},
		{
			"anonymous": false,
			"inputs": [
				{
					"indexed": true,
					"internalType": "uint256",
					"name": "tokenId",
					"type": "uint256"
				},
				{
					"indexed": true,
					"internalType": "address",
					"name": "carrier",
					"type": "address"
				},
				{
					"indexed": false,
					"internalType": "uint256",
					"name": "amount",
					"type": "uint256"
				}
			],
			"name": "WagePaid",
			"type": "event"
		},
		{
			"inputs": [
				{
					"internalType": "address",
					"name": "owner",
					"type": "address"
				},
				{
					"internalType": "address",
					"name": "spender",
					"type": "address"
				}
			],
			"name": "allowance",
			"outputs": [
				{
					"internalType": "uint256",
					"name": "",
					"type": "uint256"
				}
			],
			"stateMutability": "view",
			"type": "function"
		},
		{
			"inputs": [
				{
					"internalType": "address",
					"name": "spender",
					"type": "address"
				},
				{
					"internalType": "uint256",
					"name": "value",
					"type": "uint256"
				}
			],
			"name": "approve",
			"outputs": [
				{
					"internalType": "bool",
					"name": "",
					"type": "bool"
				}
			],
			"stateMutability": "nonpayable",
			"type": "function"
		},
		{
			"inputs": [
				{
					"internalType": "address",
					"name": "account",
					"type": "address"
				}
			],
			"name": "balanceOf",
			"outputs": [
				{
					"internalType": "uint256",
					"name": "",
					"type": "uint256"
				}
			],
			"stateMutability": "view",
			"type": "function"
		},
		{
			"inputs": [
				{
					"internalType": "uint256",
					"name": "tokenId",
					"type": "uint256"
				},
				{
					"internalType": "uint256",
					"name": "amount",
					"type": "uint256"
				}
			],
			"name": "chargeSignBalance",
			"outputs": [],
			"stateMutability": "nonpayable",
			"type": "function"
		},
		{
			"inputs": [],
			"name": "commissionPercent",
			"outputs": [
				{
					"internalType": "uint256",
					"name": "",
					"type": "uint256"
				}
			],
			"stateMutability": "view",
			"type": "function"
		},
		{
			"inputs": [],
			"name": "commissionTreasury",
			"outputs": [
				{
					"internalType": "address",
					"name": "",
					"type": "address"
				}
			],
			"stateMutability": "view",
			"type": "function"
		},
		{
			"inputs": [],
			"name": "decimals",
			"outputs": [
				{
					"internalType": "uint8",
					"name": "",
					"type": "uint8"
				}
			],
			"stateMutability": "view",
			"type": "function"
		},
		{
			"inputs": [
				{
					"internalType": "address",
					"name": "owner",
					"type": "address"
				}
			],
			"name": "getApprovalInfo",
			"outputs": [
				{
					"internalType": "uint256",
					"name": "balance",
					"type": "uint256"
				},
				{
					"internalType": "uint256",
					"name": "contractAllowance",
					"type": "uint256"
				}
			],
			"stateMutability": "view",
			"type": "function"
		},
		{
			"inputs": [],
			"name": "name",
			"outputs": [
				{
					"internalType": "string",
					"name": "",
					"type": "string"
				}
			],
			"stateMutability": "view",
			"type": "function"
		},
		{
			"inputs": [],
			"name": "owner",
			"outputs": [
				{
					"internalType": "address",
					"name": "",
					"type": "address"
				}
			],
			"stateMutability": "view",
			"type": "function"
		},
		{
			"inputs": [],
			"name": "pause",
			"outputs": [],
			"stateMutability": "nonpayable",
			"type": "function"
		},
		{
			"inputs": [],
			"name": "paused",
			"outputs": [
				{
					"internalType": "bool",
					"name": "",
					"type": "bool"
				}
			],
			"stateMutability": "view",
			"type": "function"
		},
		{
			"inputs": [
				{
					"internalType": "uint256",
					"name": "tokenId",
					"type": "uint256"
				},
				{
					"internalType": "address",
					"name": "carrier",
					"type": "address"
				},
				{
					"internalType": "uint256",
					"name": "amount",
					"type": "uint256"
				}
			],
			"name": "payWage",
			"outputs": [
				{
					"components": [
						{
							"internalType": "uint256",
							"name": "paidAmount",
							"type": "uint256"
						},
						{
							"internalType": "uint256",
							"name": "remainingWage",
							"type": "uint256"
						},
						{
							"internalType": "bool",
							"name": "isPartialPayment",
							"type": "bool"
						}
					],
					"internalType": "struct SignToken.WagePaymentResult",
					"name": "",
					"type": "tuple"
				}
			],
			"stateMutability": "nonpayable",
			"type": "function"
		},
		{
			"inputs": [],
			"name": "renounceOwnership",
			"outputs": [],
			"stateMutability": "nonpayable",
			"type": "function"
		},
		{
			"inputs": [
				{
					"internalType": "uint256",
					"name": "",
					"type": "uint256"
				}
			],
			"name": "signBalances",
			"outputs": [
				{
					"internalType": "uint256",
					"name": "",
					"type": "uint256"
				}
			],
			"stateMutability": "view",
			"type": "function"
		},
		{
			"inputs": [],
			"name": "signsNFTContract",
			"outputs": [
				{
					"internalType": "address",
					"name": "",
					"type": "address"
				}
			],
			"stateMutability": "view",
			"type": "function"
		},
		{
			"inputs": [],
			"name": "symbol",
			"outputs": [
				{
					"internalType": "string",
					"name": "",
					"type": "string"
				}
			],
			"stateMutability": "view",
			"type": "function"
		},
		{
			"inputs": [],
			"name": "totalSupply",
			"outputs": [
				{
					"internalType": "uint256",
					"name": "",
					"type": "uint256"
				}
			],
			"stateMutability": "view",
			"type": "function"
		},
		{
			"inputs": [
				{
					"internalType": "address",
					"name": "to",
					"type": "address"
				},
				{
					"internalType": "uint256",
					"name": "amount",
					"type": "uint256"
				}
			],
			"name": "transfer",
			"outputs": [
				{
					"internalType": "bool",
					"name": "",
					"type": "bool"
				}
			],
			"stateMutability": "nonpayable",
			"type": "function"
		},
		{
			"inputs": [
				{
					"internalType": "address",
					"name": "from",
					"type": "address"
				},
				{
					"internalType": "address",
					"name": "to",
					"type": "address"
				},
				{
					"internalType": "uint256",
					"name": "amount",
					"type": "uint256"
				}
			],
			"name": "transferFrom",
			"outputs": [
				{
					"internalType": "bool",
					"name": "",
					"type": "bool"
				}
			],
			"stateMutability": "nonpayable",
			"type": "function"
		},
		{
			"inputs": [
				{
					"internalType": "address",
					"name": "newOwner",
					"type": "address"
				}
			],
			"name": "transferOwnership",
			"outputs": [],
			"stateMutability": "nonpayable",
			"type": "function"
		},
		{
			"inputs": [],
			"name": "unpause",
			"outputs": [],
			"stateMutability": "nonpayable",
			"type": "function"
		},
		{
			"inputs": [
				{
					"internalType": "uint256",
					"name": "newCommissionPercent",
					"type": "uint256"
				}
			],
			"name": "updateCommission",
			"outputs": [],
			"stateMutability": "nonpayable",
			"type": "function"
		},
		{
			"inputs": [
				{
					"internalType": "address",
					"name": "newTreasury",
					"type": "address"
				}
			],
			"name": "updateCommissionTreasury",
			"outputs": [],
			"stateMutability": "nonpayable",
			"type": "function"
		},
		{
			"inputs": [
				{
					"internalType": "address",
					"name": "_newAddress",
					"type": "address"
				}
			],
			"name": "updateSignsNFTContract",
			"outputs": [],
			"stateMutability": "nonpayable",
			"type": "function"
		},
		{
			"inputs": [
				{
					"internalType": "uint256",
					"name": "tokenId",
					"type": "uint256"
				},
				{
					"internalType": "uint256",
					"name": "amount",
					"type": "uint256"
				}
			],
			"name": "withdrawSignBalance",
			"outputs": [],
			"stateMutability": "nonpayable",
			"type": "function"
		}
	]
}