{
	"data": {
		"bytecode": {
			"linkReferences": {},
			"object": "608060405234801562000010575f80fd5b50604051620031d6380380620031d683398181016040528101906200003691906200029b565b805f73ffffffffffffffffffffffffffffffffffffffff168173ffffffffffffffffffffffffffffffffffffffff1603620000aa575f6040517f1e4fbdf7000000000000000000000000000000000000000000000000000000008152600401620000a19190620002f1565b60405180910390fd5b620000bb816200017560201b60201c565b505f73ffffffffffffffffffffffffffffffffffffffff168273ffffffffffffffffffffffffffffffffffffffff16036200012d576040517f08c379a000000000000000000000000000000000000000000000000000000000815260040162000124906200036a565b60405180910390fd5b8160015f6101000a81548173ffffffffffffffffffffffffffffffffffffffff021916908373ffffffffffffffffffffffffffffffffffffffff16021790555050506200038a565b5f805f9054906101000a900473ffffffffffffffffffffffffffffffffffffffff169050815f806101000a81548173ffffffffffffffffffffffffffffffffffffffff021916908373ffffffffffffffffffffffffffffffffffffffff1602179055508173ffffffffffffffffffffffffffffffffffffffff168173ffffffffffffffffffffffffffffffffffffffff167f8be0079c531659141344cd1fd0a4f28419497f9722a3daafe3b4186f6b6457e060405160405180910390a35050565b5f80fd5b5f73ffffffffffffffffffffffffffffffffffffffff82169050919050565b5f62000265826200023a565b9050919050565b620002778162000259565b811462000282575f80fd5b50565b5f8151905062000295816200026c565b92915050565b5f8060408385031215620002b457620002b362000236565b5b5f620002c38582860162000285565b9250506020620002d68582860162000285565b9150509250929050565b620002eb8162000259565b82525050565b5f602082019050620003065f830184620002e0565b92915050565b5f82825260208201905092915050565b7f496e76616c6964204e465420636f6e74726163740000000000000000000000005f82015250565b5f620003526014836200030c565b91506200035f826200031c565b602082019050919050565b5f6020820190508181035f830152620003838162000344565b9050919050565b612e3e80620003985f395ff3fe608060405234801562000010575f80fd5b506004361062000068575f3560e01c806317ba1245146200006c578063277b9efe14620000a2578063715018a614620000c45780638da5cb5b14620000d0578063ad324cce14620000f2578063f2fde38b1462000112575b5f80fd5b6200008a600480360381019062000084919062000bf5565b62000132565b60405162000099919062000cca565b60405180910390f35b620000ac62000256565b604051620000bb919062000cca565b60405180910390f35b620000ce6200027b565b005b620000da62000292565b604051620000e9919062000cca565b60405180910390f35b6200011060048036038101906200010a919062000ce5565b620002b9565b005b6200013060048036038101906200012a919062000ce5565b62000377565b005b5f60015f9054906101000a900473ffffffffffffffffffffffffffffffffffffffff1673ffffffffffffffffffffffffffffffffffffffff163373ffffffffffffffffffffffffffffffffffffffff1614620001c5576040517f08c379a0000000000000000000000000000000000000000000000000000000008152600401620001bc9062000d73565b60405180910390fd5b5f620001d18a62000402565b90505f620001e58a8a8a8a8a8a8a620004d7565b9050620001f3828262000618565b8a7f1b80e2e4e2a1ea9551d57ab669ef968135918dcb4e558c2786d6009decc8d86d8383608001518460a001518560c001518660e001516040516200023d95949392919062000da4565b60405180910390a2819250505098975050505050505050565b60015f9054906101000a900473ffffffffffffffffffffffffffffffffffffffff1681565b62000285620007eb565b620002905f6200087b565b565b5f805f9054906101000a900473ffffffffffffffffffffffffffffffffffffffff16905090565b620002c3620007eb565b5f73ffffffffffffffffffffffffffffffffffffffff168173ffffffffffffffffffffffffffffffffffffffff160362000334576040517f08c379a00000000000000000000000000000000000000000000000000000000081526004016200032b9062000e4d565b60405180910390fd5b8060015f6101000a81548173ffffffffffffffffffffffffffffffffffffffff021916908373ffffffffffffffffffffffffffffffffffffffff16021790555050565b62000381620007eb565b5f73ffffffffffffffffffffffffffffffffffffffff168173ffffffffffffffffffffffffffffffffffffffff1603620003f4575f6040517f1e4fbdf7000000000000000000000000000000000000000000000000000000008152600401620003eb919062000cca565b60405180910390fd5b620003ff816200087b565b50565b5f806200040f836200093c565b60405160200162000421919062000f7d565b60405160208183030381529060405290505f6200043e846200093c565b60405160200162000450919062000ffd565b60405160208183030381529060405290505f82828660015f9054906101000a900473ffffffffffffffffffffffffffffffffffffffff166200049162000292565b6040516200049f9062000ab5565b620004af95949392919062001072565b604051809103905ff080158015620004c9573d5f803e3d5ffd5b509050809350505050919050565b620004e162000ac3565b5f606485620186a0620004f5919062001108565b6200050191906200117f565b90505f606485620186a062000517919062001108565b6200052391906200117f565b90505f606485620186a062000539919062001108565b6200054591906200117f565b90505f818385620186a06200055b9190620011b6565b620005679190620011b6565b620005739190620011b6565b90506040518061010001604052808d73ffffffffffffffffffffffffffffffffffffffff1681526020018c73ffffffffffffffffffffffffffffffffffffffff1681526020018b73ffffffffffffffffffffffffffffffffffffffff1681526020018a73ffffffffffffffffffffffffffffffffffffffff16815260200185815260200184815260200183815260200182815250945050505050979650505050505050565b8173ffffffffffffffffffffffffffffffffffffffff166340c10f19825f015183608001516040518363ffffffff1660e01b81526004016200065c929190620011f0565b5f604051808303815f87803b15801562000674575f80fd5b505af115801562000687573d5f803e3d5ffd5b505050508173ffffffffffffffffffffffffffffffffffffffff166340c10f1982602001518360a001516040518363ffffffff1660e01b8152600401620006d0929190620011f0565b5f604051808303815f87803b158015620006e8575f80fd5b505af1158015620006fb573d5f803e3d5ffd5b505050508173ffffffffffffffffffffffffffffffffffffffff166340c10f1982604001518360c001516040518363ffffffff1660e01b815260040162000744929190620011f0565b5f604051808303815f87803b1580156200075c575f80fd5b505af11580156200076f573d5f803e3d5ffd5b505050508173ffffffffffffffffffffffffffffffffffffffff166340c10f1982606001518360e001516040518363ffffffff1660e01b8152600401620007b8929190620011f0565b5f604051808303815f87803b158015620007d0575f80fd5b505af1158015620007e3573d5f803e3d5ffd5b505050505050565b620007f562000aae565b73ffffffffffffffffffffffffffffffffffffffff166200081562000292565b73ffffffffffffffffffffffffffffffffffffffff161462000879576200083b62000aae565b6040517f118cdaa700000000000000000000000000000000000000000000000000000000815260040162000870919062000cca565b60405180910390fd5b565b5f805f9054906101000a900473ffffffffffffffffffffffffffffffffffffffff169050815f806101000a81548173ffffffffffffffffffffffffffffffffffffffff021916908373ffffffffffffffffffffffffffffffffffffffff1602179055508173ffffffffffffffffffffffffffffffffffffffff168173ffffffffffffffffffffffffffffffffffffffff167f8be0079c531659141344cd1fd0a4f28419497f9722a3daafe3b4186f6b6457e060405160405180910390a35050565b60605f820362000984576040518060400160405280600181526020017f3000000000000000000000000000000000000000000000000000000000000000815250905062000aa9565b5f8290505f5b5f8214620009b95780806200099f906200121b565b915050600a82620009b191906200117f565b91506200098a565b5f8167ffffffffffffffff811115620009d757620009d662001267565b5b6040519080825280601f01601f19166020018201604052801562000a0a5781602001600182028036833780820191505090505b5090505b5f851462000aa25760018262000a259190620011b6565b9150600a8562000a36919062001294565b603062000a449190620012cb565b60f81b81838151811062000a5d5762000a5c62001305565b5b60200101907effffffffffffffffffffffffffffffffffffffffffffffffffffffffffffff191690815f1a905350600a8562000a9a91906200117f565b945062000a0e565b8093505050505b919050565b5f33905090565b611ad6806200133383390190565b6040518061010001604052805f73ffffffffffffffffffffffffffffffffffffffff1681526020015f73ffffffffffffffffffffffffffffffffffffffff1681526020015f73ffffffffffffffffffffffffffffffffffffffff1681526020015f73ffffffffffffffffffffffffffffffffffffffff1681526020015f81526020015f81526020015f81526020015f81525090565b5f80fd5b5f819050919050565b62000b708162000b5c565b811462000b7b575f80fd5b50565b5f8135905062000b8e8162000b65565b92915050565b5f73ffffffffffffffffffffffffffffffffffffffff82169050919050565b5f62000bbf8262000b94565b9050919050565b62000bd18162000bb3565b811462000bdc575f80fd5b50565b5f8135905062000bef8162000bc6565b92915050565b5f805f805f805f80610100898b03121562000c155762000c1462000b58565b5b5f62000c248b828c0162000b7e565b985050602062000c378b828c0162000bdf565b975050604062000c4a8b828c0162000bdf565b965050606062000c5d8b828c0162000bdf565b955050608062000c708b828c0162000bdf565b94505060a062000c838b828c0162000b7e565b93505060c062000c968b828c0162000b7e565b92505060e062000ca98b828c0162000b7e565b9150509295985092959890939650565b62000cc48162000bb3565b82525050565b5f60208201905062000cdf5f83018462000cb9565b92915050565b5f6020828403121562000cfd5762000cfc62000b58565b5b5f62000d0c8482850162000bdf565b91505092915050565b5f82825260208201905092915050565b7f4f6e6c79205061696e74696e674e465420636f6e7472616374000000000000005f82015250565b5f62000d5b60198362000d15565b915062000d688262000d25565b602082019050919050565b5f6020820190508181035f83015262000d8c8162000d4d565b9050919050565b62000d9e8162000b5c565b82525050565b5f60a08201905062000db95f83018862000cb9565b62000dc8602083018762000d93565b62000dd7604083018662000d93565b62000de6606083018562000d93565b62000df5608083018462000d93565b9695505050505050565b7f496e76616c6964206164647265737300000000000000000000000000000000005f82015250565b5f62000e35600f8362000d15565b915062000e428262000dff565b602082019050919050565b5f6020820190508181035f83015262000e668162000e27565b9050919050565b5f81905092915050565b7f5061696e74696e672000000000000000000000000000000000000000000000005f82015250565b5f62000ead60098362000e6d565b915062000eba8262000e77565b600982019050919050565b5f81519050919050565b5f5b8381101562000eee57808201518184015260208101905062000ed1565b5f8484015250505050565b5f62000f058262000ec5565b62000f11818562000e6d565b935062000f2381856020860162000ecf565b80840191505092915050565b7f20536861726573000000000000000000000000000000000000000000000000005f82015250565b5f62000f6560078362000e6d565b915062000f728262000f2f565b600782019050919050565b5f62000f898262000e9f565b915062000f97828462000ef9565b915062000fa48262000f57565b915081905092915050565b7f5041494e540000000000000000000000000000000000000000000000000000005f82015250565b5f62000fe560058362000e6d565b915062000ff28262000faf565b600582019050919050565b5f620010098262000fd7565b915062001017828462000ef9565b915081905092915050565b5f601f19601f8301169050919050565b5f6200103e8262000ec5565b6200104a818562000d15565b93506200105c81856020860162000ecf565b620010678162001022565b840191505092915050565b5f60a0820190508181035f8301526200108c818862001032565b90508181036020830152620010a2818762001032565b9050620010b3604083018662000d93565b620010c2606083018562000cb9565b620010d1608083018462000cb9565b9695505050505050565b7f4e487b71000000000000000000000000000000000000000000000000000000005f52601160045260245ffd5b5f620011148262000b5c565b9150620011218362000b5c565b9250828202620011318162000b5c565b915082820484148315176200114b576200114a620010db565b5b5092915050565b7f4e487b71000000000000000000000000000000000000000000000000000000005f52601260045260245ffd5b5f6200118b8262000b5c565b9150620011988362000b5c565b925082620011ab57620011aa62001152565b5b828204905092915050565b5f620011c28262000b5c565b9150620011cf8362000b5c565b9250828203905081811115620011ea57620011e9620010db565b5b92915050565b5f604082019050620012055f83018562000cb9565b62001214602083018462000d93565b9392505050565b5f620012278262000b5c565b91507fffffffffffffffffffffffffffffffffffffffffffffffffffffffffffffffff82036200125c576200125b620010db565b5b600182019050919050565b7f4e487b71000000000000000000000000000000000000000000000000000000005f52604160045260245ffd5b5f620012a08262000b5c565b9150620012ad8362000b5c565b925082620012c057620012bf62001152565b5b828206905092915050565b5f620012d78262000b5c565b9150620012e48362000b5c565b9250828201905080821115620012ff57620012fe620010db565b5b92915050565b7f4e487b71000000000000000000000000000000000000000000000000000000005f52603260045260245ffdfe608060405234801562000010575f80fd5b5060405162001ad638038062001ad6833981810160405281019062000036919062000417565b80858581600390816200004a919062000707565b5080600490816200005c919062000707565b5050505f73ffffffffffffffffffffffffffffffffffffffff168173ffffffffffffffffffffffffffffffffffffffff1603620000d2575f6040517f1e4fbdf7000000000000000000000000000000000000000000000000000000008152600401620000c99190620007fc565b60405180910390fd5b620000e3816200013660201b60201c565b50826007819055508160065f6101000a81548173ffffffffffffffffffffffffffffffffffffffff021916908373ffffffffffffffffffffffffffffffffffffffff160217905550505050505062000817565b5f60055f9054906101000a900473ffffffffffffffffffffffffffffffffffffffff1690508160055f6101000a81548173ffffffffffffffffffffffffffffffffffffffff021916908373ffffffffffffffffffffffffffffffffffffffff1602179055508173ffffffffffffffffffffffffffffffffffffffff168173ffffffffffffffffffffffffffffffffffffffff167f8be0079c531659141344cd1fd0a4f28419497f9722a3daafe3b4186f6b6457e060405160405180910390a35050565b5f604051905090565b5f80fd5b5f80fd5b5f80fd5b5f80fd5b5f601f19601f8301169050919050565b7f4e487b71000000000000000000000000000000000000000000000000000000005f52604160045260245ffd5b6200025a8262000212565b810181811067ffffffffffffffff821117156200027c576200027b62000222565b5b80604052505050565b5f62000290620001f9565b90506200029e82826200024f565b919050565b5f67ffffffffffffffff821115620002c057620002bf62000222565b5b620002cb8262000212565b9050602081019050919050565b5f5b83811015620002f7578082015181840152602081019050620002da565b5f8484015250505050565b5f620003186200031284620002a3565b62000285565b9050828152602081018484840111156200033757620003366200020e565b5b62000344848285620002d8565b509392505050565b5f82601f8301126200036357620003626200020a565b5b81516200037584826020860162000302565b91505092915050565b5f819050919050565b62000392816200037e565b81146200039d575f80fd5b50565b5f81519050620003b08162000387565b92915050565b5f73ffffffffffffffffffffffffffffffffffffffff82169050919050565b5f620003e182620003b6565b9050919050565b620003f381620003d5565b8114620003fe575f80fd5b50565b5f815190506200041181620003e8565b92915050565b5f805f805f60a0868803121562000433576200043262000202565b5b5f86015167ffffffffffffffff81111562000453576200045262000206565b5b62000461888289016200034c565b955050602086015167ffffffffffffffff81111562000485576200048462000206565b5b62000493888289016200034c565b9450506040620004a688828901620003a0565b9350506060620004b98882890162000401565b9250506080620004cc8882890162000401565b9150509295509295909350565b5f81519050919050565b7f4e487b71000000000000000000000000000000000000000000000000000000005f52602260045260245ffd5b5f60028204905060018216806200052857607f821691505b6020821081036200053e576200053d620004e3565b5b50919050565b5f819050815f5260205f209050919050565b5f6020601f8301049050919050565b5f82821b905092915050565b5f60088302620005a27fffffffffffffffffffffffffffffffffffffffffffffffffffffffffffffffff8262000565565b620005ae868362000565565b95508019841693508086168417925050509392505050565b5f819050919050565b5f620005ef620005e9620005e3846200037e565b620005c6565b6200037e565b9050919050565b5f819050919050565b6200060a83620005cf565b620006226200061982620005f6565b84845462000571565b825550505050565b5f90565b620006386200062a565b62000645818484620005ff565b505050565b5b818110156200066c57620006605f826200062e565b6001810190506200064b565b5050565b601f821115620006bb57620006858162000544565b620006908462000556565b81016020851015620006a0578190505b620006b8620006af8562000556565b8301826200064a565b50505b505050565b5f82821c905092915050565b5f620006dd5f1984600802620006c0565b1980831691505092915050565b5f620006f78383620006cc565b9150826002028217905092915050565b6200071282620004d9565b67ffffffffffffffff8111156200072e576200072d62000222565b5b6200073a825462000510565b6200074782828562000670565b5f60209050601f8311600181146200077d575f841562000768578287015190505b620007748582620006ea565b865550620007e3565b601f1984166200078d8662000544565b5f5b82811015620007b6578489015182556001820191506020850194506020810190506200078f565b86831015620007d65784890151620007d2601f891682620006cc565b8355505b6001600288020188555050505b505050505050565b620007f681620003d5565b82525050565b5f602082019050620008115f830184620007eb565b92915050565b6112b180620008255f395ff3fe608060405234801561000f575f80fd5b50600436106100f3575f3560e01c806370a0823111610095578063a9059cbb11610064578063a9059cbb14610261578063dd62ed3e14610291578063e04d2684146102c1578063f2fde38b146102df576100f3565b806370a08231146101eb578063715018a61461021b5780638da5cb5b1461022557806395d89b4114610243576100f3565b806318160ddd116100d157806318160ddd1461016357806323b872dd14610181578063313ce567146101b157806340c10f19146101cf576100f3565b806306fdde03146100f7578063095ea7b314610115578063107377af14610145575b5f80fd5b6100ff6102fb565b60405161010c9190610ec2565b60405180910390f35b61012f600480360381019061012a9190610f73565b61038b565b60405161013c9190610fcb565b60405180910390f35b61014d6103ad565b60405161015a9190610ff3565b60405180910390f35b61016b6103d2565b604051610178919061101b565b60405180910390f35b61019b60048036038101906101969190611034565b6103db565b6040516101a89190610fcb565b60405180910390f35b6101b9610409565b6040516101c6919061109f565b60405180910390f35b6101e960048036038101906101e49190610f73565b610411565b005b610205600480360381019061020091906110b8565b6104ae565b604051610212919061101b565b60405180910390f35b6102236104f3565b005b61022d610506565b60405161023a9190610ff3565b60405180910390f35b61024b61052e565b6040516102589190610ec2565b60405180910390f35b61027b60048036038101906102769190610f73565b6105be565b6040516102889190610fcb565b60405180910390f35b6102ab60048036038101906102a691906110e3565b6105e0565b6040516102b8919061101b565b60405180910390f35b6102c9610662565b6040516102d6919061101b565b60405180910390f35b6102f960048036038101906102f491906110b8565b610668565b005b60606003805461030a9061114e565b80601f01602080910402602001604051908101604052809291908181526020018280546103369061114e565b80156103815780601f1061035857610100808354040283529160200191610381565b820191905f5260205f20905b81548152906001019060200180831161036457829003601f168201915b5050505050905090565b5f806103956106ec565b90506103a28185856106f3565b600191505092915050565b60065f9054906101000a900473ffffffffffffffffffffffffffffffffffffffff1681565b5f600254905090565b5f806103e56106ec565b90506103f2858285610705565b6103fd858585610797565b60019150509392505050565b5f6012905090565b60065f9054906101000a900473ffffffffffffffffffffffffffffffffffffffff1673ffffffffffffffffffffffffffffffffffffffff163373ffffffffffffffffffffffffffffffffffffffff16146104a0576040517f08c379a0000000000000000000000000000000000000000000000000000000008152600401610497906111c8565b60405180910390fd5b6104aa8282610887565b5050565b5f805f8373ffffffffffffffffffffffffffffffffffffffff1673ffffffffffffffffffffffffffffffffffffffff1681526020019081526020015f20549050919050565b6104fb610906565b6105045f61098d565b565b5f60055f9054906101000a900473ffffffffffffffffffffffffffffffffffffffff16905090565b60606004805461053d9061114e565b80601f01602080910402602001604051908101604052809291908181526020018280546105699061114e565b80156105b45780601f1061058b576101008083540402835291602001916105b4565b820191905f5260205f20905b81548152906001019060200180831161059757829003601f168201915b5050505050905090565b5f806105c86106ec565b90506105d5818585610797565b600191505092915050565b5f60015f8473ffffffffffffffffffffffffffffffffffffffff1673ffffffffffffffffffffffffffffffffffffffff1681526020019081526020015f205f8373ffffffffffffffffffffffffffffffffffffffff1673ffffffffffffffffffffffffffffffffffffffff1681526020019081526020015f2054905092915050565b60075481565b610670610906565b5f73ffffffffffffffffffffffffffffffffffffffff168173ffffffffffffffffffffffffffffffffffffffff16036106e0575f6040517f1e4fbdf70000000000000000000000000000000000000000000000000000000081526004016106d79190610ff3565b60405180910390fd5b6106e98161098d565b50565b5f33905090565b6107008383836001610a50565b505050565b5f61071084846105e0565b90507fffffffffffffffffffffffffffffffffffffffffffffffffffffffffffffffff81146107915781811015610782578281836040517ffb8f41b2000000000000000000000000000000000000000000000000000000008152600401610779939291906111e6565b60405180910390fd5b61079084848484035f610a50565b5b50505050565b5f73ffffffffffffffffffffffffffffffffffffffff168373ffffffffffffffffffffffffffffffffffffffff1603610807575f6040517f96c6fd1e0000000000000000000000000000000000000000000000000000000081526004016107fe9190610ff3565b60405180910390fd5b5f73ffffffffffffffffffffffffffffffffffffffff168273ffffffffffffffffffffffffffffffffffffffff1603610877575f6040517fec442f0500000000000000000000000000000000000000000000000000000000815260040161086e9190610ff3565b60405180910390fd5b610882838383610c1f565b505050565b5f73ffffffffffffffffffffffffffffffffffffffff168273ffffffffffffffffffffffffffffffffffffffff16036108f7575f6040517fec442f050000000000000000000000000000000000000000000000000000000081526004016108ee9190610ff3565b60405180910390fd5b6109025f8383610c1f565b5050565b61090e6106ec565b73ffffffffffffffffffffffffffffffffffffffff1661092c610506565b73ffffffffffffffffffffffffffffffffffffffff161461098b5761094f6106ec565b6040517f118cdaa70000000000000000000000000000000000000000000000000000000081526004016109829190610ff3565b60405180910390fd5b565b5f60055f9054906101000a900473ffffffffffffffffffffffffffffffffffffffff1690508160055f6101000a81548173ffffffffffffffffffffffffffffffffffffffff021916908373ffffffffffffffffffffffffffffffffffffffff1602179055508173ffffffffffffffffffffffffffffffffffffffff168173ffffffffffffffffffffffffffffffffffffffff167f8be0079c531659141344cd1fd0a4f28419497f9722a3daafe3b4186f6b6457e060405160405180910390a35050565b5f73ffffffffffffffffffffffffffffffffffffffff168473ffffffffffffffffffffffffffffffffffffffff1603610ac0575f6040517fe602df05000000000000000000000000000000000000000000000000000000008152600401610ab79190610ff3565b60405180910390fd5b5f73ffffffffffffffffffffffffffffffffffffffff168373ffffffffffffffffffffffffffffffffffffffff1603610b30575f6040517f94280d62000000000000000000000000000000000000000000000000000000008152600401610b279190610ff3565b60405180910390fd5b8160015f8673ffffffffffffffffffffffffffffffffffffffff1673ffffffffffffffffffffffffffffffffffffffff1681526020019081526020015f205f8573ffffffffffffffffffffffffffffffffffffffff1673ffffffffffffffffffffffffffffffffffffffff1681526020019081526020015f20819055508015610c19578273ffffffffffffffffffffffffffffffffffffffff168473ffffffffffffffffffffffffffffffffffffffff167f8c5be1e5ebec7d5bd14f71427d1e84f3dd0314c0f7b2291e5b200ac8c7c3b92584604051610c10919061101b565b60405180910390a35b50505050565b5f73ffffffffffffffffffffffffffffffffffffffff168373ffffffffffffffffffffffffffffffffffffffff1603610c6f578060025f828254610c639190611248565b92505081905550610d3d565b5f805f8573ffffffffffffffffffffffffffffffffffffffff1673ffffffffffffffffffffffffffffffffffffffff1681526020019081526020015f2054905081811015610cf8578381836040517fe450d38c000000000000000000000000000000000000000000000000000000008152600401610cef939291906111e6565b60405180910390fd5b8181035f808673ffffffffffffffffffffffffffffffffffffffff1673ffffffffffffffffffffffffffffffffffffffff1681526020019081526020015f2081905550505b5f73ffffffffffffffffffffffffffffffffffffffff168273ffffffffffffffffffffffffffffffffffffffff1603610d84578060025f8282540392505081905550610dce565b805f808473ffffffffffffffffffffffffffffffffffffffff1673ffffffffffffffffffffffffffffffffffffffff1681526020019081526020015f205f82825401925050819055505b8173ffffffffffffffffffffffffffffffffffffffff168373ffffffffffffffffffffffffffffffffffffffff167fddf252ad1be2c89b69c2b068fc378daa952ba7f163c4a11628f55a4df523b3ef83604051610e2b919061101b565b60405180910390a3505050565b5f81519050919050565b5f82825260208201905092915050565b5f5b83811015610e6f578082015181840152602081019050610e54565b5f8484015250505050565b5f601f19601f8301169050919050565b5f610e9482610e38565b610e9e8185610e42565b9350610eae818560208601610e52565b610eb781610e7a565b840191505092915050565b5f6020820190508181035f830152610eda8184610e8a565b905092915050565b5f80fd5b5f73ffffffffffffffffffffffffffffffffffffffff82169050919050565b5f610f0f82610ee6565b9050919050565b610f1f81610f05565b8114610f29575f80fd5b50565b5f81359050610f3a81610f16565b92915050565b5f819050919050565b610f5281610f40565b8114610f5c575f80fd5b50565b5f81359050610f6d81610f49565b92915050565b5f8060408385031215610f8957610f88610ee2565b5b5f610f9685828601610f2c565b9250506020610fa785828601610f5f565b9150509250929050565b5f8115159050919050565b610fc581610fb1565b82525050565b5f602082019050610fde5f830184610fbc565b92915050565b610fed81610f05565b82525050565b5f6020820190506110065f830184610fe4565b92915050565b61101581610f40565b82525050565b5f60208201905061102e5f83018461100c565b92915050565b5f805f6060848603121561104b5761104a610ee2565b5b5f61105886828701610f2c565b935050602061106986828701610f2c565b925050604061107a86828701610f5f565b9150509250925092565b5f60ff82169050919050565b61109981611084565b82525050565b5f6020820190506110b25f830184611090565b92915050565b5f602082840312156110cd576110cc610ee2565b5b5f6110da84828501610f2c565b91505092915050565b5f80604083850312156110f9576110f8610ee2565b5b5f61110685828601610f2c565b925050602061111785828601610f2c565b9150509250929050565b7f4e487b71000000000000000000000000000000000000000000000000000000005f52602260045260245ffd5b5f600282049050600182168061116557607f821691505b60208210810361117857611177611121565b5b50919050565b7f4f6e6c79205061696e74696e674e46542063616e206d696e74000000000000005f82015250565b5f6111b2601983610e42565b91506111bd8261117e565b602082019050919050565b5f6020820190508181035f8301526111df816111a6565b9050919050565b5f6060820190506111f95f830186610fe4565b611206602083018561100c565b611213604083018461100c565b949350505050565b7f4e487b71000000000000000000000000000000000000000000000000000000005f52601160045260245ffd5b5f61125282610f40565b915061125d83610f40565b92508282019050808211156112755761127461121b565b5b9291505056fea26469706673582212208483270fe0996f644d0185782cb66fcded4eb5299eb50dd22956c2185552b0f864736f6c63430008140033a2646970667358221220086a94b4b69df9de9ce18f4cae657d86d640d6c6caacc622b9c97ef32c563e1764736f6c63430008140033",
			"opcodes": "PUSH1 0x80 PUSH1 0x40 MSTORE CALLVALUE DUP1 ISZERO PUSH3 0x10 JUMPI PUSH0 DUP1 REVERT JUMPDEST POP PUSH1 0x40 MLOAD PUSH3 0x31D6 CODESIZE SUB DUP1 PUSH3 0x31D6 DUP4 CODECOPY DUP2 DUP2 ADD PUSH1 0x40 MSTORE DUP2 ADD SWAP1 PUSH3 0x36 SWAP2 SWAP1 PUSH3 0x29B JUMP JUMPDEST DUP1 PUSH0 PUSH20 0xFFFFFFFFFFFFFFFFFFFFFFFFFFFFFFFFFFFFFFFF AND DUP2 PUSH20 0xFFFFFFFFFFFFFFFFFFFFFFFFFFFFFFFFFFFFFFFF AND SUB PUSH3 0xAA JUMPI PUSH0 PUSH1 0x40 MLOAD PUSH32 0x1E4FBDF700000000000000000000000000000000000000000000000000000000 DUP2 MSTORE PUSH1 0x4 ADD PUSH3 0xA1 SWAP2 SWAP1 PUSH3 0x2F1 JUMP JUMPDEST PUSH1 0x40 MLOAD DUP1 SWAP2 SUB SWAP1 REVERT JUMPDEST PUSH3 0xBB DUP2 PUSH3 0x175 PUSH1 0x20 SHL PUSH1 0x20 SHR JUMP JUMPDEST POP PUSH0 PUSH20 0xFFFFFFFFFFFFFFFFFFFFFFFFFFFFFFFFFFFFFFFF AND DUP3 PUSH20 0xFFFFFFFFFFFFFFFFFFFFFFFFFFFFFFFFFFFFFFFF AND SUB PUSH3 0x12D JUMPI PUSH1 0x40 MLOAD PUSH32 0x8C379A000000000000000000000000000000000000000000000000000000000 DUP2 MSTORE PUSH1 0x4 ADD PUSH3 0x124 SWAP1 PUSH3 0x36A JUMP JUMPDEST PUSH1 0x40 MLOAD DUP1 SWAP2 SUB SWAP1 REVERT JUMPDEST DUP2 PUSH1 0x1 PUSH0 PUSH2 0x100 EXP DUP2 SLOAD DUP2 PUSH20 0xFFFFFFFFFFFFFFFFFFFFFFFFFFFFFFFFFFFFFFFF MUL NOT AND SWAP1 DUP4 PUSH20 0xFFFFFFFFFFFFFFFFFFFFFFFFFFFFFFFFFFFFFFFF AND MUL OR SWAP1 SSTORE POP POP POP PUSH3 0x38A JUMP JUMPDEST PUSH0 DUP1 PUSH0 SWAP1 SLOAD SWAP1 PUSH2 0x100 EXP SWAP1 DIV PUSH20 0xFFFFFFFFFFFFFFFFFFFFFFFFFFFFFFFFFFFFFFFF AND SWAP1 POP DUP2 PUSH0 DUP1 PUSH2 0x100 EXP DUP2 SLOAD DUP2 PUSH20 0xFFFFFFFFFFFFFFFFFFFFFFFFFFFFFFFFFFFFFFFF MUL NOT AND SWAP1 DUP4 PUSH20 0xFFFFFFFFFFFFFFFFFFFFFFFFFFFFFFFFFFFFFFFF AND MUL OR SWAP1 SSTORE POP DUP2 PUSH20 0xFFFFFFFFFFFFFFFFFFFFFFFFFFFFFFFFFFFFFFFF AND DUP2 PUSH20 0xFFFFFFFFFFFFFFFFFFFFFFFFFFFFFFFFFFFFFFFF AND PUSH32 0x8BE0079C531659141344CD1FD0A4F28419497F9722A3DAAFE3B4186F6B6457E0 PUSH1 0x40 MLOAD PUSH1 0x40 MLOAD DUP1 SWAP2 SUB SWAP1 LOG3 POP POP JUMP JUMPDEST PUSH0 DUP1 REVERT JUMPDEST PUSH0 PUSH20 0xFFFFFFFFFFFFFFFFFFFFFFFFFFFFFFFFFFFFFFFF DUP3 AND SWAP1 POP SWAP2 SWAP1 POP JUMP JUMPDEST PUSH0 PUSH3 0x265 DUP3 PUSH3 0x23A JUMP JUMPDEST SWAP1 POP SWAP2 SWAP1 POP JUMP JUMPDEST PUSH3 0x277 DUP2 PUSH3 0x259 JUMP JUMPDEST DUP2 EQ PUSH3 0x282 JUMPI PUSH0 DUP1 REVERT JUMPDEST POP JUMP JUMPDEST PUSH0 DUP2 MLOAD SWAP1 POP PUSH3 0x295 DUP2 PUSH3 0x26C JUMP JUMPDEST SWAP3 SWAP2 POP POP JUMP JUMPDEST PUSH0 DUP1 PUSH1 0x40 DUP4 DUP6 SUB SLT ISZERO PUSH3 0x2B4 JUMPI PUSH3 0x2B3 PUSH3 0x236 JUMP JUMPDEST JUMPDEST PUSH0 PUSH3 0x2C3 DUP6 DUP3 DUP7 ADD PUSH3 0x285 JUMP JUMPDEST SWAP3 POP POP PUSH1 0x20 PUSH3 0x2D6 DUP6 DUP3 DUP7 ADD PUSH3 0x285 JUMP JUMPDEST SWAP2 POP POP SWAP3 POP SWAP3 SWAP1 POP JUMP JUMPDEST PUSH3 0x2EB DUP2 PUSH3 0x259 JUMP JUMPDEST DUP3 MSTORE POP POP JUMP JUMPDEST PUSH0 PUSH1 0x20 DUP3 ADD SWAP1 POP PUSH3 0x306 PUSH0 DUP4 ADD DUP5 PUSH3 0x2E0 JUMP JUMPDEST SWAP3 SWAP2 POP POP JUMP JUMPDEST PUSH0 DUP3 DUP3 MSTORE PUSH1 0x20 DUP3 ADD SWAP1 POP SWAP3 SWAP2 POP POP JUMP JUMPDEST PUSH32 0x496E76616C6964204E465420636F6E7472616374000000000000000000000000 PUSH0 DUP3 ADD MSTORE POP JUMP JUMPDEST PUSH0 PUSH3 0x352 PUSH1 0x14 DUP4 PUSH3 0x30C JUMP JUMPDEST SWAP2 POP PUSH3 0x35F DUP3 PUSH3 0x31C JUMP JUMPDEST PUSH1 0x20 DUP3 ADD SWAP1 POP SWAP2 SWAP1 POP JUMP JUMPDEST PUSH0 PUSH1 0x20 DUP3 ADD SWAP1 POP DUP2 DUP2 SUB PUSH0 DUP4 ADD MSTORE PUSH3 0x383 DUP2 PUSH3 0x344 JUMP JUMPDEST SWAP1 POP SWAP2 SWAP1 POP JUMP JUMPDEST PUSH2 0x2E3E DUP1 PUSH3 0x398 PUSH0 CODECOPY PUSH0 RETURN INVALID PUSH1 0x80 PUSH1 0x40 MSTORE CALLVALUE DUP1 ISZERO PUSH3 0x10 JUMPI PUSH0 DUP1 REVERT JUMPDEST POP PUSH1 0x4 CALLDATASIZE LT PUSH3 0x68 JUMPI PUSH0 CALLDATALOAD PUSH1 0xE0 SHR DUP1 PUSH4 0x17BA1245 EQ PUSH3 0x6C JUMPI DUP1 PUSH4 0x277B9EFE EQ PUSH3 0xA2 JUMPI DUP1 PUSH4 0x715018A6 EQ PUSH3 0xC4 JUMPI DUP1 PUSH4 0x8DA5CB5B EQ PUSH3 0xD0 JUMPI DUP1 PUSH4 0xAD324CCE EQ PUSH3 0xF2 JUMPI DUP1 PUSH4 0xF2FDE38B EQ PUSH3 0x112 JUMPI JUMPDEST PUSH0 DUP1 REVERT JUMPDEST PUSH3 0x8A PUSH1 0x4 DUP1 CALLDATASIZE SUB DUP2 ADD SWAP1 PUSH3 0x84 SWAP2 SWAP1 PUSH3 0xBF5 JUMP JUMPDEST PUSH3 0x132 JUMP JUMPDEST PUSH1 0x40 MLOAD PUSH3 0x99 SWAP2 SWAP1 PUSH3 0xCCA JUMP JUMPDEST PUSH1 0x40 MLOAD DUP1 SWAP2 SUB SWAP1 RETURN JUMPDEST PUSH3 0xAC PUSH3 0x256 JUMP JUMPDEST PUSH1 0x40 MLOAD PUSH3 0xBB SWAP2 SWAP1 PUSH3 0xCCA JUMP JUMPDEST PUSH1 0x40 MLOAD DUP1 SWAP2 SUB SWAP1 RETURN JUMPDEST PUSH3 0xCE PUSH3 0x27B JUMP JUMPDEST STOP JUMPDEST PUSH3 0xDA PUSH3 0x292 JUMP JUMPDEST PUSH1 0x40 MLOAD PUSH3 0xE9 SWAP2 SWAP1 PUSH3 0xCCA JUMP JUMPDEST PUSH1 0x40 MLOAD DUP1 SWAP2 SUB SWAP1 RETURN JUMPDEST PUSH3 0x110 PUSH1 0x4 DUP1 CALLDATASIZE SUB DUP2 ADD SWAP1 PUSH3 0x10A SWAP2 SWAP1 PUSH3 0xCE5 JUMP JUMPDEST PUSH3 0x2B9 JUMP JUMPDEST STOP JUMPDEST PUSH3 0x130 PUSH1 0x4 DUP1 CALLDATASIZE SUB DUP2 ADD SWAP1 PUSH3 0x12A SWAP2 SWAP1 PUSH3 0xCE5 JUMP JUMPDEST PUSH3 0x377 JUMP JUMPDEST STOP JUMPDEST PUSH0 PUSH1 0x1 PUSH0 SWAP1 SLOAD SWAP1 PUSH2 0x100 EXP SWAP1 DIV PUSH20 0xFFFFFFFFFFFFFFFFFFFFFFFFFFFFFFFFFFFFFFFF AND PUSH20 0xFFFFFFFFFFFFFFFFFFFFFFFFFFFFFFFFFFFFFFFF AND CALLER PUSH20 0xFFFFFFFFFFFFFFFFFFFFFFFFFFFFFFFFFFFFFFFF AND EQ PUSH3 0x1C5 JUMPI PUSH1 0x40 MLOAD PUSH32 0x8C379A000000000000000000000000000000000000000000000000000000000 DUP2 MSTORE PUSH1 0x4 ADD PUSH3 0x1BC SWAP1 PUSH3 0xD73 JUMP JUMPDEST PUSH1 0x40 MLOAD DUP1 SWAP2 SUB SWAP1 REVERT JUMPDEST PUSH0 PUSH3 0x1D1 DUP11 PUSH3 0x402 JUMP JUMPDEST SWAP1 POP PUSH0 PUSH3 0x1E5 DUP11 DUP11 DUP11 DUP11 DUP11 DUP11 DUP11 PUSH3 0x4D7 JUMP JUMPDEST SWAP1 POP PUSH3 0x1F3 DUP3 DUP3 PUSH3 0x618 JUMP JUMPDEST DUP11 PUSH32 0x1B80E2E4E2A1EA9551D57AB669EF968135918DCB4E558C2786D6009DECC8D86D DUP4 DUP4 PUSH1 0x80 ADD MLOAD DUP5 PUSH1 0xA0 ADD MLOAD DUP6 PUSH1 0xC0 ADD MLOAD DUP7 PUSH1 0xE0 ADD MLOAD PUSH1 0x40 MLOAD PUSH3 0x23D SWAP6 SWAP5 SWAP4 SWAP3 SWAP2 SWAP1 PUSH3 0xDA4 JUMP JUMPDEST PUSH1 0x40 MLOAD DUP1 SWAP2 SUB SWAP1 LOG2 DUP2 SWAP3 POP POP POP SWAP9 SWAP8 POP POP POP POP POP POP POP POP JUMP JUMPDEST PUSH1 0x1 PUSH0 SWAP1 SLOAD SWAP1 PUSH2 0x100 EXP SWAP1 DIV PUSH20 0xFFFFFFFFFFFFFFFFFFFFFFFFFFFFFFFFFFFFFFFF AND DUP2 JUMP JUMPDEST PUSH3 0x285 PUSH3 0x7EB JUMP JUMPDEST PUSH3 0x290 PUSH0 PUSH3 0x87B JUMP JUMPDEST JUMP JUMPDEST PUSH0 DUP1 PUSH0 SWAP1 SLOAD SWAP1 PUSH2 0x100 EXP SWAP1 DIV PUSH20 0xFFFFFFFFFFFFFFFFFFFFFFFFFFFFFFFFFFFFFFFF AND SWAP1 POP SWAP1 JUMP JUMPDEST PUSH3 0x2C3 PUSH3 0x7EB JUMP JUMPDEST PUSH0 PUSH20 0xFFFFFFFFFFFFFFFFFFFFFFFFFFFFFFFFFFFFFFFF AND DUP2 PUSH20 0xFFFFFFFFFFFFFFFFFFFFFFFFFFFFFFFFFFFFFFFF AND SUB PUSH3 0x334 JUMPI PUSH1 0x40 MLOAD PUSH32 0x8C379A000000000000000000000000000000000000000000000000000000000 DUP2 MSTORE PUSH1 0x4 ADD PUSH3 0x32B SWAP1 PUSH3 0xE4D JUMP JUMPDEST PUSH1 0x40 MLOAD DUP1 SWAP2 SUB SWAP1 REVERT JUMPDEST DUP1 PUSH1 0x1 PUSH0 PUSH2 0x100 EXP DUP2 SLOAD DUP2 PUSH20 0xFFFFFFFFFFFFFFFFFFFFFFFFFFFFFFFFFFFFFFFF MUL NOT AND SWAP1 DUP4 PUSH20 0xFFFFFFFFFFFFFFFFFFFFFFFFFFFFFFFFFFFFFFFF AND MUL OR SWAP1 SSTORE POP POP JUMP JUMPDEST PUSH3 0x381 PUSH3 0x7EB JUMP JUMPDEST PUSH0 PUSH20 0xFFFFFFFFFFFFFFFFFFFFFFFFFFFFFFFFFFFFFFFF AND DUP2 PUSH20 0xFFFFFFFFFFFFFFFFFFFFFFFFFFFFFFFFFFFFFFFF AND SUB PUSH3 0x3F4 JUMPI PUSH0 PUSH1 0x40 MLOAD PUSH32 0x1E4FBDF700000000000000000000000000000000000000000000000000000000 DUP2 MSTORE PUSH1 0x4 ADD PUSH3 0x3EB SWAP2 SWAP1 PUSH3 0xCCA JUMP JUMPDEST PUSH1 0x40 MLOAD DUP1 SWAP2 SUB SWAP1 REVERT JUMPDEST PUSH3 0x3FF DUP2 PUSH3 0x87B JUMP JUMPDEST POP JUMP JUMPDEST PUSH0 DUP1 PUSH3 0x40F DUP4 PUSH3 0x93C JUMP JUMPDEST PUSH1 0x40 MLOAD PUSH1 0x20 ADD PUSH3 0x421 SWAP2 SWAP1 PUSH3 0xF7D JUMP JUMPDEST PUSH1 0x40 MLOAD PUSH1 0x20 DUP2 DUP4 SUB SUB DUP2 MSTORE SWAP1 PUSH1 0x40 MSTORE SWAP1 POP PUSH0 PUSH3 0x43E DUP5 PUSH3 0x93C JUMP JUMPDEST PUSH1 0x40 MLOAD PUSH1 0x20 ADD PUSH3 0x450 SWAP2 SWAP1 PUSH3 0xFFD JUMP JUMPDEST PUSH1 0x40 MLOAD PUSH1 0x20 DUP2 DUP4 SUB SUB DUP2 MSTORE SWAP1 PUSH1 0x40 MSTORE SWAP1 POP PUSH0 DUP3 DUP3 DUP7 PUSH1 0x1 PUSH0 SWAP1 SLOAD SWAP1 PUSH2 0x100 EXP SWAP1 DIV PUSH20 0xFFFFFFFFFFFFFFFFFFFFFFFFFFFFFFFFFFFFFFFF AND PUSH3 0x491 PUSH3 0x292 JUMP JUMPDEST PUSH1 0x40 MLOAD PUSH3 0x49F SWAP1 PUSH3 0xAB5 JUMP JUMPDEST PUSH3 0x4AF SWAP6 SWAP5 SWAP4 SWAP3 SWAP2 SWAP1 PUSH3 0x1072 JUMP JUMPDEST PUSH1 0x40 MLOAD DUP1 SWAP2 SUB SWAP1 PUSH0 CREATE DUP1 ISZERO DUP1 ISZERO PUSH3 0x4C9 JUMPI RETURNDATASIZE PUSH0 DUP1 RETURNDATACOPY RETURNDATASIZE PUSH0 REVERT JUMPDEST POP SWAP1 POP DUP1 SWAP4 POP POP POP POP SWAP2 SWAP1 POP JUMP JUMPDEST PUSH3 0x4E1 PUSH3 0xAC3 JUMP JUMPDEST PUSH0 PUSH1 0x64 DUP6 PUSH3 0x186A0 PUSH3 0x4F5 SWAP2 SWAP1 PUSH3 0x1108 JUMP JUMPDEST PUSH3 0x501 SWAP2 SWAP1 PUSH3 0x117F JUMP JUMPDEST SWAP1 POP PUSH0 PUSH1 0x64 DUP6 PUSH3 0x186A0 PUSH3 0x517 SWAP2 SWAP1 PUSH3 0x1108 JUMP JUMPDEST PUSH3 0x523 SWAP2 SWAP1 PUSH3 0x117F JUMP JUMPDEST SWAP1 POP PUSH0 PUSH1 0x64 DUP6 PUSH3 0x186A0 PUSH3 0x539 SWAP2 SWAP1 PUSH3 0x1108 JUMP JUMPDEST PUSH3 0x545 SWAP2 SWAP1 PUSH3 0x117F JUMP JUMPDEST SWAP1 POP PUSH0 DUP2 DUP4 DUP6 PUSH3 0x186A0 PUSH3 0x55B SWAP2 SWAP1 PUSH3 0x11B6 JUMP JUMPDEST PUSH3 0x567 SWAP2 SWAP1 PUSH3 0x11B6 JUMP JUMPDEST PUSH3 0x573 SWAP2 SWAP1 PUSH3 0x11B6 JUMP JUMPDEST SWAP1 POP PUSH1 0x40 MLOAD DUP1 PUSH2 0x100 ADD PUSH1 0x40 MSTORE DUP1 DUP14 PUSH20 0xFFFFFFFFFFFFFFFFFFFFFFFFFFFFFFFFFFFFFFFF AND DUP2 MSTORE PUSH1 0x20 ADD DUP13 PUSH20 0xFFFFFFFFFFFFFFFFFFFFFFFFFFFFFFFFFFFFFFFF AND DUP2 MSTORE PUSH1 0x20 ADD DUP12 PUSH20 0xFFFFFFFFFFFFFFFFFFFFFFFFFFFFFFFFFFFFFFFF AND DUP2 MSTORE PUSH1 0x20 ADD DUP11 PUSH20 0xFFFFFFFFFFFFFFFFFFFFFFFFFFFFFFFFFFFFFFFF AND DUP2 MSTORE PUSH1 0x20 ADD DUP6 DUP2 MSTORE PUSH1 0x20 ADD DUP5 DUP2 MSTORE PUSH1 0x20 ADD DUP4 DUP2 MSTORE PUSH1 0x20 ADD DUP3 DUP2 MSTORE POP SWAP5 POP POP POP POP POP SWAP8 SWAP7 POP POP POP POP POP POP POP JUMP JUMPDEST DUP2 PUSH20 0xFFFFFFFFFFFFFFFFFFFFFFFFFFFFFFFFFFFFFFFF AND PUSH4 0x40C10F19 DUP3 PUSH0 ADD MLOAD DUP4 PUSH1 0x80 ADD MLOAD PUSH1 0x40 MLOAD DUP4 PUSH4 0xFFFFFFFF AND PUSH1 0xE0 SHL DUP2 MSTORE PUSH1 0x4 ADD PUSH3 0x65C SWAP3 SWAP2 SWAP1 PUSH3 0x11F0 JUMP JUMPDEST PUSH0 PUSH1 0x40 MLOAD DUP1 DUP4 SUB DUP2 PUSH0 DUP8 DUP1 EXTCODESIZE ISZERO DUP1 ISZERO PUSH3 0x674 JUMPI PUSH0 DUP1 REVERT JUMPDEST POP GAS CALL ISZERO DUP1 ISZERO PUSH3 0x687 JUMPI RETURNDATASIZE PUSH0 DUP1 RETURNDATACOPY RETURNDATASIZE PUSH0 REVERT JUMPDEST POP POP POP POP DUP2 PUSH20 0xFFFFFFFFFFFFFFFFFFFFFFFFFFFFFFFFFFFFFFFF AND PUSH4 0x40C10F19 DUP3 PUSH1 0x20 ADD MLOAD DUP4 PUSH1 0xA0 ADD MLOAD PUSH1 0x40 MLOAD DUP4 PUSH4 0xFFFFFFFF AND PUSH1 0xE0 SHL DUP2 MSTORE PUSH1 0x4 ADD PUSH3 0x6D0 SWAP3 SWAP2 SWAP1 PUSH3 0x11F0 JUMP JUMPDEST PUSH0 PUSH1 0x40 MLOAD DUP1 DUP4 SUB DUP2 PUSH0 DUP8 DUP1 EXTCODESIZE ISZERO DUP1 ISZERO PUSH3 0x6E8 JUMPI PUSH0 DUP1 REVERT JUMPDEST POP GAS CALL ISZERO DUP1 ISZERO PUSH3 0x6FB JUMPI RETURNDATASIZE PUSH0 DUP1 RETURNDATACOPY RETURNDATASIZE PUSH0 REVERT JUMPDEST POP POP POP POP DUP2 PUSH20 0xFFFFFFFFFFFFFFFFFFFFFFFFFFFFFFFFFFFFFFFF AND PUSH4 0x40C10F19 DUP3 PUSH1 0x40 ADD MLOAD DUP4 PUSH1 0xC0 ADD MLOAD PUSH1 0x40 MLOAD DUP4 PUSH4 0xFFFFFFFF AND PUSH1 0xE0 SHL DUP2 MSTORE PUSH1 0x4 ADD PUSH3 0x744 SWAP3 SWAP2 SWAP1 PUSH3 0x11F0 JUMP JUMPDEST PUSH0 PUSH1 0x40 MLOAD DUP1 DUP4 SUB DUP2 PUSH0 DUP8 DUP1 EXTCODESIZE ISZERO DUP1 ISZERO PUSH3 0x75C JUMPI PUSH0 DUP1 REVERT JUMPDEST POP GAS CALL ISZERO DUP1 ISZERO PUSH3 0x76F JUMPI RETURNDATASIZE PUSH0 DUP1 RETURNDATACOPY RETURNDATASIZE PUSH0 REVERT JUMPDEST POP POP POP POP DUP2 PUSH20 0xFFFFFFFFFFFFFFFFFFFFFFFFFFFFFFFFFFFFFFFF AND PUSH4 0x40C10F19 DUP3 PUSH1 0x60 ADD MLOAD DUP4 PUSH1 0xE0 ADD MLOAD PUSH1 0x40 MLOAD DUP4 PUSH4 0xFFFFFFFF AND PUSH1 0xE0 SHL DUP2 MSTORE PUSH1 0x4 ADD PUSH3 0x7B8 SWAP3 SWAP2 SWAP1 PUSH3 0x11F0 JUMP JUMPDEST PUSH0 PUSH1 0x40 MLOAD DUP1 DUP4 SUB DUP2 PUSH0 DUP8 DUP1 EXTCODESIZE ISZERO DUP1 ISZERO PUSH3 0x7D0 JUMPI PUSH0 DUP1 REVERT JUMPDEST POP GAS CALL ISZERO DUP1 ISZERO PUSH3 0x7E3 JUMPI RETURNDATASIZE PUSH0 DUP1 RETURNDATACOPY RETURNDATASIZE PUSH0 REVERT JUMPDEST POP POP POP POP POP POP JUMP JUMPDEST PUSH3 0x7F5 PUSH3 0xAAE JUMP JUMPDEST PUSH20 0xFFFFFFFFFFFFFFFFFFFFFFFFFFFFFFFFFFFFFFFF AND PUSH3 0x815 PUSH3 0x292 JUMP JUMPDEST PUSH20 0xFFFFFFFFFFFFFFFFFFFFFFFFFFFFFFFFFFFFFFFF AND EQ PUSH3 0x879 JUMPI PUSH3 0x83B PUSH3 0xAAE JUMP JUMPDEST PUSH1 0x40 MLOAD PUSH32 0x118CDAA700000000000000000000000000000000000000000000000000000000 DUP2 MSTORE PUSH1 0x4 ADD PUSH3 0x870 SWAP2 SWAP1 PUSH3 0xCCA JUMP JUMPDEST PUSH1 0x40 MLOAD DUP1 SWAP2 SUB SWAP1 REVERT JUMPDEST JUMP JUMPDEST PUSH0 DUP1 PUSH0 SWAP1 SLOAD SWAP1 PUSH2 0x100 EXP SWAP1 DIV PUSH20 0xFFFFFFFFFFFFFFFFFFFFFFFFFFFFFFFFFFFFFFFF AND SWAP1 POP DUP2 PUSH0 DUP1 PUSH2 0x100 EXP DUP2 SLOAD DUP2 PUSH20 0xFFFFFFFFFFFFFFFFFFFFFFFFFFFFFFFFFFFFFFFF MUL NOT AND SWAP1 DUP4 PUSH20 0xFFFFFFFFFFFFFFFFFFFFFFFFFFFFFFFFFFFFFFFF AND MUL OR SWAP1 SSTORE POP DUP2 PUSH20 0xFFFFFFFFFFFFFFFFFFFFFFFFFFFFFFFFFFFFFFFF AND DUP2 PUSH20 0xFFFFFFFFFFFFFFFFFFFFFFFFFFFFFFFFFFFFFFFF AND PUSH32 0x8BE0079C531659141344CD1FD0A4F28419497F9722A3DAAFE3B4186F6B6457E0 PUSH1 0x40 MLOAD PUSH1 0x40 MLOAD DUP1 SWAP2 SUB SWAP1 LOG3 POP POP JUMP JUMPDEST PUSH1 0x60 PUSH0 DUP3 SUB PUSH3 0x984 JUMPI PUSH1 0x40 MLOAD DUP1 PUSH1 0x40 ADD PUSH1 0x40 MSTORE DUP1 PUSH1 0x1 DUP2 MSTORE PUSH1 0x20 ADD PUSH32 0x3000000000000000000000000000000000000000000000000000000000000000 DUP2 MSTORE POP SWAP1 POP PUSH3 0xAA9 JUMP JUMPDEST PUSH0 DUP3 SWAP1 POP PUSH0 JUMPDEST PUSH0 DUP3 EQ PUSH3 0x9B9 JUMPI DUP1 DUP1 PUSH3 0x99F SWAP1 PUSH3 0x121B JUMP JUMPDEST SWAP2 POP POP PUSH1 0xA DUP3 PUSH3 0x9B1 SWAP2 SWAP1 PUSH3 0x117F JUMP JUMPDEST SWAP2 POP PUSH3 0x98A JUMP JUMPDEST PUSH0 DUP2 PUSH8 0xFFFFFFFFFFFFFFFF DUP2 GT ISZERO PUSH3 0x9D7 JUMPI PUSH3 0x9D6 PUSH3 0x1267 JUMP JUMPDEST JUMPDEST PUSH1 0x40 MLOAD SWAP1 DUP1 DUP3 MSTORE DUP1 PUSH1 0x1F ADD PUSH1 0x1F NOT AND PUSH1 0x20 ADD DUP3 ADD PUSH1 0x40 MSTORE DUP1 ISZERO PUSH3 0xA0A JUMPI DUP2 PUSH1 0x20 ADD PUSH1 0x1 DUP3 MUL DUP1 CALLDATASIZE DUP4 CALLDATACOPY DUP1 DUP3 ADD SWAP2 POP POP SWAP1 POP JUMPDEST POP SWAP1 POP JUMPDEST PUSH0 DUP6 EQ PUSH3 0xAA2 JUMPI PUSH1 0x1 DUP3 PUSH3 0xA25 SWAP2 SWAP1 PUSH3 0x11B6 JUMP JUMPDEST SWAP2 POP PUSH1 0xA DUP6 PUSH3 0xA36 SWAP2 SWAP1 PUSH3 0x1294 JUMP JUMPDEST PUSH1 0x30 PUSH3 0xA44 SWAP2 SWAP1 PUSH3 0x12CB JUMP JUMPDEST PUSH1 0xF8 SHL DUP2 DUP4 DUP2 MLOAD DUP2 LT PUSH3 0xA5D JUMPI PUSH3 0xA5C PUSH3 0x1305 JUMP JUMPDEST JUMPDEST PUSH1 0x20 ADD ADD SWAP1 PUSH31 0xFFFFFFFFFFFFFFFFFFFFFFFFFFFFFFFFFFFFFFFFFFFFFFFFFFFFFFFFFFFFFF NOT AND SWAP1 DUP2 PUSH0 BYTE SWAP1 MSTORE8 POP PUSH1 0xA DUP6 PUSH3 0xA9A SWAP2 SWAP1 PUSH3 0x117F JUMP JUMPDEST SWAP5 POP PUSH3 0xA0E JUMP JUMPDEST DUP1 SWAP4 POP POP POP POP JUMPDEST SWAP2 SWAP1 POP JUMP JUMPDEST PUSH0 CALLER SWAP1 POP SWAP1 JUMP JUMPDEST PUSH2 0x1AD6 DUP1 PUSH3 0x1333 DUP4 CODECOPY ADD SWAP1 JUMP JUMPDEST PUSH1 0x40 MLOAD DUP1 PUSH2 0x100 ADD PUSH1 0x40 MSTORE DUP1 PUSH0 PUSH20 0xFFFFFFFFFFFFFFFFFFFFFFFFFFFFFFFFFFFFFFFF AND DUP2 MSTORE PUSH1 0x20 ADD PUSH0 PUSH20 0xFFFFFFFFFFFFFFFFFFFFFFFFFFFFFFFFFFFFFFFF AND DUP2 MSTORE PUSH1 0x20 ADD PUSH0 PUSH20 0xFFFFFFFFFFFFFFFFFFFFFFFFFFFFFFFFFFFFFFFF AND DUP2 MSTORE PUSH1 0x20 ADD PUSH0 PUSH20 0xFFFFFFFFFFFFFFFFFFFFFFFFFFFFFFFFFFFFFFFF AND DUP2 MSTORE PUSH1 0x20 ADD PUSH0 DUP2 MSTORE PUSH1 0x20 ADD PUSH0 DUP2 MSTORE PUSH1 0x20 ADD PUSH0 DUP2 MSTORE PUSH1 0x20 ADD PUSH0 DUP2 MSTORE POP SWAP1 JUMP JUMPDEST PUSH0 DUP1 REVERT JUMPDEST PUSH0 DUP2 SWAP1 POP SWAP2 SWAP1 POP JUMP JUMPDEST PUSH3 0xB70 DUP2 PUSH3 0xB5C JUMP JUMPDEST DUP2 EQ PUSH3 0xB7B JUMPI PUSH0 DUP1 REVERT JUMPDEST POP JUMP JUMPDEST PUSH0 DUP2 CALLDATALOAD SWAP1 POP PUSH3 0xB8E DUP2 PUSH3 0xB65 JUMP JUMPDEST SWAP3 SWAP2 POP POP JUMP JUMPDEST PUSH0 PUSH20 0xFFFFFFFFFFFFFFFFFFFFFFFFFFFFFFFFFFFFFFFF DUP3 AND SWAP1 POP SWAP2 SWAP1 POP JUMP JUMPDEST PUSH0 PUSH3 0xBBF DUP3 PUSH3 0xB94 JUMP JUMPDEST SWAP1 POP SWAP2 SWAP1 POP JUMP JUMPDEST PUSH3 0xBD1 DUP2 PUSH3 0xBB3 JUMP JUMPDEST DUP2 EQ PUSH3 0xBDC JUMPI PUSH0 DUP1 REVERT JUMPDEST POP JUMP JUMPDEST PUSH0 DUP2 CALLDATALOAD SWAP1 POP PUSH3 0xBEF DUP2 PUSH3 0xBC6 JUMP JUMPDEST SWAP3 SWAP2 POP POP JUMP JUMPDEST PUSH0 DUP1 PUSH0 DUP1 PUSH0 DUP1 PUSH0 DUP1 PUSH2 0x100 DUP10 DUP12 SUB SLT ISZERO PUSH3 0xC15 JUMPI PUSH3 0xC14 PUSH3 0xB58 JUMP JUMPDEST JUMPDEST PUSH0 PUSH3 0xC24 DUP12 DUP3 DUP13 ADD PUSH3 0xB7E JUMP JUMPDEST SWAP9 POP POP PUSH1 0x20 PUSH3 0xC37 DUP12 DUP3 DUP13 ADD PUSH3 0xBDF JUMP JUMPDEST SWAP8 POP POP PUSH1 0x40 PUSH3 0xC4A DUP12 DUP3 DUP13 ADD PUSH3 0xBDF JUMP JUMPDEST SWAP7 POP POP PUSH1 0x60 PUSH3 0xC5D DUP12 DUP3 DUP13 ADD PUSH3 0xBDF JUMP JUMPDEST SWAP6 POP POP PUSH1 0x80 PUSH3 0xC70 DUP12 DUP3 DUP13 ADD PUSH3 0xBDF JUMP JUMPDEST SWAP5 POP POP PUSH1 0xA0 PUSH3 0xC83 DUP12 DUP3 DUP13 ADD PUSH3 0xB7E JUMP JUMPDEST SWAP4 POP POP PUSH1 0xC0 PUSH3 0xC96 DUP12 DUP3 DUP13 ADD PUSH3 0xB7E JUMP JUMPDEST SWAP3 POP POP PUSH1 0xE0 PUSH3 0xCA9 DUP12 DUP3 DUP13 ADD PUSH3 0xB7E JUMP JUMPDEST SWAP2 POP POP SWAP3 SWAP6 SWAP9 POP SWAP3 SWAP6 SWAP9 SWAP1 SWAP4 SWAP7 POP JUMP JUMPDEST PUSH3 0xCC4 DUP2 PUSH3 0xBB3 JUMP JUMPDEST DUP3 MSTORE POP POP JUMP JUMPDEST PUSH0 PUSH1 0x20 DUP3 ADD SWAP1 POP PUSH3 0xCDF PUSH0 DUP4 ADD DUP5 PUSH3 0xCB9 JUMP JUMPDEST SWAP3 SWAP2 POP POP JUMP JUMPDEST PUSH0 PUSH1 0x20 DUP3 DUP5 SUB SLT ISZERO PUSH3 0xCFD JUMPI PUSH3 0xCFC PUSH3 0xB58 JUMP JUMPDEST JUMPDEST PUSH0 PUSH3 0xD0C DUP5 DUP3 DUP6 ADD PUSH3 0xBDF JUMP JUMPDEST SWAP2 POP POP SWAP3 SWAP2 POP POP JUMP JUMPDEST PUSH0 DUP3 DUP3 MSTORE PUSH1 0x20 DUP3 ADD SWAP1 POP SWAP3 SWAP2 POP POP JUMP JUMPDEST PUSH32 0x4F6E6C79205061696E74696E674E465420636F6E747261637400000000000000 PUSH0 DUP3 ADD MSTORE POP JUMP JUMPDEST PUSH0 PUSH3 0xD5B PUSH1 0x19 DUP4 PUSH3 0xD15 JUMP JUMPDEST SWAP2 POP PUSH3 0xD68 DUP3 PUSH3 0xD25 JUMP JUMPDEST PUSH1 0x20 DUP3 ADD SWAP1 POP SWAP2 SWAP1 POP JUMP JUMPDEST PUSH0 PUSH1 0x20 DUP3 ADD SWAP1 POP DUP2 DUP2 SUB PUSH0 DUP4 ADD MSTORE PUSH3 0xD8C DUP2 PUSH3 0xD4D JUMP JUMPDEST SWAP1 POP SWAP2 SWAP1 POP JUMP JUMPDEST PUSH3 0xD9E DUP2 PUSH3 0xB5C JUMP JUMPDEST DUP3 MSTORE POP POP JUMP JUMPDEST PUSH0 PUSH1 0xA0 DUP3 ADD SWAP1 POP PUSH3 0xDB9 PUSH0 DUP4 ADD DUP9 PUSH3 0xCB9 JUMP JUMPDEST PUSH3 0xDC8 PUSH1 0x20 DUP4 ADD DUP8 PUSH3 0xD93 JUMP JUMPDEST PUSH3 0xDD7 PUSH1 0x40 DUP4 ADD DUP7 PUSH3 0xD93 JUMP JUMPDEST PUSH3 0xDE6 PUSH1 0x60 DUP4 ADD DUP6 PUSH3 0xD93 JUMP JUMPDEST PUSH3 0xDF5 PUSH1 0x80 DUP4 ADD DUP5 PUSH3 0xD93 JUMP JUMPDEST SWAP7 SWAP6 POP POP POP POP POP POP JUMP JUMPDEST PUSH32 0x496E76616C696420616464726573730000000000000000000000000000000000 PUSH0 DUP3 ADD MSTORE POP JUMP JUMPDEST PUSH0 PUSH3 0xE35 PUSH1 0xF DUP4 PUSH3 0xD15 JUMP JUMPDEST SWAP2 POP PUSH3 0xE42 DUP3 PUSH3 0xDFF JUMP JUMPDEST PUSH1 0x20 DUP3 ADD SWAP1 POP SWAP2 SWAP1 POP JUMP JUMPDEST PUSH0 PUSH1 0x20 DUP3 ADD SWAP1 POP DUP2 DUP2 SUB PUSH0 DUP4 ADD MSTORE PUSH3 0xE66 DUP2 PUSH3 0xE27 JUMP JUMPDEST SWAP1 POP SWAP2 SWAP1 POP JUMP JUMPDEST PUSH0 DUP2 SWAP1 POP SWAP3 SWAP2 POP POP JUMP JUMPDEST PUSH32 0x5061696E74696E67200000000000000000000000000000000000000000000000 PUSH0 DUP3 ADD MSTORE POP JUMP JUMPDEST PUSH0 PUSH3 0xEAD PUSH1 0x9 DUP4 PUSH3 0xE6D JUMP JUMPDEST SWAP2 POP PUSH3 0xEBA DUP3 PUSH3 0xE77 JUMP JUMPDEST PUSH1 0x9 DUP3 ADD SWAP1 POP SWAP2 SWAP1 POP JUMP JUMPDEST PUSH0 DUP2 MLOAD SWAP1 POP SWAP2 SWAP1 POP JUMP JUMPDEST PUSH0 JUMPDEST DUP4 DUP2 LT ISZERO PUSH3 0xEEE JUMPI DUP1 DUP3 ADD MLOAD DUP2 DUP5 ADD MSTORE PUSH1 0x20 DUP2 ADD SWAP1 POP PUSH3 0xED1 JUMP JUMPDEST PUSH0 DUP5 DUP5 ADD MSTORE POP POP POP POP JUMP JUMPDEST PUSH0 PUSH3 0xF05 DUP3 PUSH3 0xEC5 JUMP JUMPDEST PUSH3 0xF11 DUP2 DUP6 PUSH3 0xE6D JUMP JUMPDEST SWAP4 POP PUSH3 0xF23 DUP2 DUP6 PUSH1 0x20 DUP7 ADD PUSH3 0xECF JUMP JUMPDEST DUP1 DUP5 ADD SWAP2 POP POP SWAP3 SWAP2 POP POP JUMP JUMPDEST PUSH32 0x2053686172657300000000000000000000000000000000000000000000000000 PUSH0 DUP3 ADD MSTORE POP JUMP JUMPDEST PUSH0 PUSH3 0xF65 PUSH1 0x7 DUP4 PUSH3 0xE6D JUMP JUMPDEST SWAP2 POP PUSH3 0xF72 DUP3 PUSH3 0xF2F JUMP JUMPDEST PUSH1 0x7 DUP3 ADD SWAP1 POP SWAP2 SWAP1 POP JUMP JUMPDEST PUSH0 PUSH3 0xF89 DUP3 PUSH3 0xE9F JUMP JUMPDEST SWAP2 POP PUSH3 0xF97 DUP3 DUP5 PUSH3 0xEF9 JUMP JUMPDEST SWAP2 POP PUSH3 0xFA4 DUP3 PUSH3 0xF57 JUMP JUMPDEST SWAP2 POP DUP2 SWAP1 POP SWAP3 SWAP2 POP POP JUMP JUMPDEST PUSH32 0x5041494E54000000000000000000000000000000000000000000000000000000 PUSH0 DUP3 ADD MSTORE POP JUMP JUMPDEST PUSH0 PUSH3 0xFE5 PUSH1 0x5 DUP4 PUSH3 0xE6D JUMP JUMPDEST SWAP2 POP PUSH3 0xFF2 DUP3 PUSH3 0xFAF JUMP JUMPDEST PUSH1 0x5 DUP3 ADD SWAP1 POP SWAP2 SWAP1 POP JUMP JUMPDEST PUSH0 PUSH3 0x1009 DUP3 PUSH3 0xFD7 JUMP JUMPDEST SWAP2 POP PUSH3 0x1017 DUP3 DUP5 PUSH3 0xEF9 JUMP JUMPDEST SWAP2 POP DUP2 SWAP1 POP SWAP3 SWAP2 POP POP JUMP JUMPDEST PUSH0 PUSH1 0x1F NOT PUSH1 0x1F DUP4 ADD AND SWAP1 POP SWAP2 SWAP1 POP JUMP JUMPDEST PUSH0 PUSH3 0x103E DUP3 PUSH3 0xEC5 JUMP JUMPDEST PUSH3 0x104A DUP2 DUP6 PUSH3 0xD15 JUMP JUMPDEST SWAP4 POP PUSH3 0x105C DUP2 DUP6 PUSH1 0x20 DUP7 ADD PUSH3 0xECF JUMP JUMPDEST PUSH3 0x1067 DUP2 PUSH3 0x1022 JUMP JUMPDEST DUP5 ADD SWAP2 POP POP SWAP3 SWAP2 POP POP JUMP JUMPDEST PUSH0 PUSH1 0xA0 DUP3 ADD SWAP1 POP DUP2 DUP2 SUB PUSH0 DUP4 ADD MSTORE PUSH3 0x108C DUP2 DUP9 PUSH3 0x1032 JUMP JUMPDEST SWAP1 POP DUP2 DUP2 SUB PUSH1 0x20 DUP4 ADD MSTORE PUSH3 0x10A2 DUP2 DUP8 PUSH3 0x1032 JUMP JUMPDEST SWAP1 POP PUSH3 0x10B3 PUSH1 0x40 DUP4 ADD DUP7 PUSH3 0xD93 JUMP JUMPDEST PUSH3 0x10C2 PUSH1 0x60 DUP4 ADD DUP6 PUSH3 0xCB9 JUMP JUMPDEST PUSH3 0x10D1 PUSH1 0x80 DUP4 ADD DUP5 PUSH3 0xCB9 JUMP JUMPDEST SWAP7 SWAP6 POP POP POP POP POP POP JUMP JUMPDEST PUSH32 0x4E487B7100000000000000000000000000000000000000000000000000000000 PUSH0 MSTORE PUSH1 0x11 PUSH1 0x4 MSTORE PUSH1 0x24 PUSH0 REVERT JUMPDEST PUSH0 PUSH3 0x1114 DUP3 PUSH3 0xB5C JUMP JUMPDEST SWAP2 POP PUSH3 0x1121 DUP4 PUSH3 0xB5C JUMP JUMPDEST SWAP3 POP DUP3 DUP3 MUL PUSH3 0x1131 DUP2 PUSH3 0xB5C JUMP JUMPDEST SWAP2 POP DUP3 DUP3 DIV DUP5 EQ DUP4 ISZERO OR PUSH3 0x114B JUMPI PUSH3 0x114A PUSH3 0x10DB JUMP JUMPDEST JUMPDEST POP SWAP3 SWAP2 POP POP JUMP JUMPDEST PUSH32 0x4E487B7100000000000000000000000000000000000000000000000000000000 PUSH0 MSTORE PUSH1 0x12 PUSH1 0x4 MSTORE PUSH1 0x24 PUSH0 REVERT JUMPDEST PUSH0 PUSH3 0x118B DUP3 PUSH3 0xB5C JUMP JUMPDEST SWAP2 POP PUSH3 0x1198 DUP4 PUSH3 0xB5C JUMP JUMPDEST SWAP3 POP DUP3 PUSH3 0x11AB JUMPI PUSH3 0x11AA PUSH3 0x1152 JUMP JUMPDEST JUMPDEST DUP3 DUP3 DIV SWAP1 POP SWAP3 SWAP2 POP POP JUMP JUMPDEST PUSH0 PUSH3 0x11C2 DUP3 PUSH3 0xB5C JUMP JUMPDEST SWAP2 POP PUSH3 0x11CF DUP4 PUSH3 0xB5C JUMP JUMPDEST SWAP3 POP DUP3 DUP3 SUB SWAP1 POP DUP2 DUP2 GT ISZERO PUSH3 0x11EA JUMPI PUSH3 0x11E9 PUSH3 0x10DB JUMP JUMPDEST JUMPDEST SWAP3 SWAP2 POP POP JUMP JUMPDEST PUSH0 PUSH1 0x40 DUP3 ADD SWAP1 POP PUSH3 0x1205 PUSH0 DUP4 ADD DUP6 PUSH3 0xCB9 JUMP JUMPDEST PUSH3 0x1214 PUSH1 0x20 DUP4 ADD DUP5 PUSH3 0xD93 JUMP JUMPDEST SWAP4 SWAP3 POP POP POP JUMP JUMPDEST PUSH0 PUSH3 0x1227 DUP3 PUSH3 0xB5C JUMP JUMPDEST SWAP2 POP PUSH32 0xFFFFFFFFFFFFFFFFFFFFFFFFFFFFFFFFFFFFFFFFFFFFFFFFFFFFFFFFFFFFFFFF DUP3 SUB PUSH3 0x125C JUMPI PUSH3 0x125B PUSH3 0x10DB JUMP JUMPDEST JUMPDEST PUSH1 0x1 DUP3 ADD SWAP1 POP SWAP2 SWAP1 POP JUMP JUMPDEST PUSH32 0x4E487B7100000000000000000000000000000000000000000000000000000000 PUSH0 MSTORE PUSH1 0x41 PUSH1 0x4 MSTORE PUSH1 0x24 PUSH0 REVERT JUMPDEST PUSH0 PUSH3 0x12A0 DUP3 PUSH3 0xB5C JUMP JUMPDEST SWAP2 POP PUSH3 0x12AD DUP4 PUSH3 0xB5C JUMP JUMPDEST SWAP3 POP DUP3 PUSH3 0x12C0 JUMPI PUSH3 0x12BF PUSH3 0x1152 JUMP JUMPDEST JUMPDEST DUP3 DUP3 MOD SWAP1 POP SWAP3 SWAP2 POP POP JUMP JUMPDEST PUSH0 PUSH3 0x12D7 DUP3 PUSH3 0xB5C JUMP JUMPDEST SWAP2 POP PUSH3 0x12E4 DUP4 PUSH3 0xB5C JUMP JUMPDEST SWAP3 POP DUP3 DUP3 ADD SWAP1 POP DUP1 DUP3 GT ISZERO PUSH3 0x12FF JUMPI PUSH3 0x12FE PUSH3 0x10DB JUMP JUMPDEST JUMPDEST SWAP3 SWAP2 POP POP JUMP JUMPDEST PUSH32 0x4E487B7100000000000000000000000000000000000000000000000000000000 PUSH0 MSTORE PUSH1 0x32 PUSH1 0x4 MSTORE PUSH1 0x24 PUSH0 REVERT INVALID PUSH1 0x80 PUSH1 0x40 MSTORE CALLVALUE DUP1 ISZERO PUSH3 0x10 JUMPI PUSH0 DUP1 REVERT JUMPDEST POP PUSH1 0x40 MLOAD PUSH3 0x1AD6 CODESIZE SUB DUP1 PUSH3 0x1AD6 DUP4 CODECOPY DUP2 DUP2 ADD PUSH1 0x40 MSTORE DUP2 ADD SWAP1 PUSH3 0x36 SWAP2 SWAP1 PUSH3 0x417 JUMP JUMPDEST DUP1 DUP6 DUP6 DUP2 PUSH1 0x3 SWAP1 DUP2 PUSH3 0x4A SWAP2 SWAP1 PUSH3 0x707 JUMP JUMPDEST POP DUP1 PUSH1 0x4 SWAP1 DUP2 PUSH3 0x5C SWAP2 SWAP1 PUSH3 0x707 JUMP JUMPDEST POP POP POP PUSH0 PUSH20 0xFFFFFFFFFFFFFFFFFFFFFFFFFFFFFFFFFFFFFFFF AND DUP2 PUSH20 0xFFFFFFFFFFFFFFFFFFFFFFFFFFFFFFFFFFFFFFFF AND SUB PUSH3 0xD2 JUMPI PUSH0 PUSH1 0x40 MLOAD PUSH32 0x1E4FBDF700000000000000000000000000000000000000000000000000000000 DUP2 MSTORE PUSH1 0x4 ADD PUSH3 0xC9 SWAP2 SWAP1 PUSH3 0x7FC JUMP JUMPDEST PUSH1 0x40 MLOAD DUP1 SWAP2 SUB SWAP1 REVERT JUMPDEST PUSH3 0xE3 DUP2 PUSH3 0x136 PUSH1 0x20 SHL PUSH1 0x20 SHR JUMP JUMPDEST POP DUP3 PUSH1 0x7 DUP2 SWAP1 SSTORE POP DUP2 PUSH1 0x6 PUSH0 PUSH2 0x100 EXP DUP2 SLOAD DUP2 PUSH20 0xFFFFFFFFFFFFFFFFFFFFFFFFFFFFFFFFFFFFFFFF MUL NOT AND SWAP1 DUP4 PUSH20 0xFFFFFFFFFFFFFFFFFFFFFFFFFFFFFFFFFFFFFFFF AND MUL OR SWAP1 SSTORE POP POP POP POP POP POP PUSH3 0x817 JUMP JUMPDEST PUSH0 PUSH1 0x5 PUSH0 SWAP1 SLOAD SWAP1 PUSH2 0x100 EXP SWAP1 DIV PUSH20 0xFFFFFFFFFFFFFFFFFFFFFFFFFFFFFFFFFFFFFFFF AND SWAP1 POP DUP2 PUSH1 0x5 PUSH0 PUSH2 0x100 EXP DUP2 SLOAD DUP2 PUSH20 0xFFFFFFFFFFFFFFFFFFFFFFFFFFFFFFFFFFFFFFFF MUL NOT AND SWAP1 DUP4 PUSH20 0xFFFFFFFFFFFFFFFFFFFFFFFFFFFFFFFFFFFFFFFF AND MUL OR SWAP1 SSTORE POP DUP2 PUSH20 0xFFFFFFFFFFFFFFFFFFFFFFFFFFFFFFFFFFFFFFFF AND DUP2 PUSH20 0xFFFFFFFFFFFFFFFFFFFFFFFFFFFFFFFFFFFFFFFF AND PUSH32 0x8BE0079C531659141344CD1FD0A4F28419497F9722A3DAAFE3B4186F6B6457E0 PUSH1 0x40 MLOAD PUSH1 0x40 MLOAD DUP1 SWAP2 SUB SWAP1 LOG3 POP POP JUMP JUMPDEST PUSH0 PUSH1 0x40 MLOAD SWAP1 POP SWAP1 JUMP JUMPDEST PUSH0 DUP1 REVERT JUMPDEST PUSH0 DUP1 REVERT JUMPDEST PUSH0 DUP1 REVERT JUMPDEST PUSH0 DUP1 REVERT JUMPDEST PUSH0 PUSH1 0x1F NOT PUSH1 0x1F DUP4 ADD AND SWAP1 POP SWAP2 SWAP1 POP JUMP JUMPDEST PUSH32 0x4E487B7100000000000000000000000000000000000000000000000000000000 PUSH0 MSTORE PUSH1 0x41 PUSH1 0x4 MSTORE PUSH1 0x24 PUSH0 REVERT JUMPDEST PUSH3 0x25A DUP3 PUSH3 0x212 JUMP JUMPDEST DUP2 ADD DUP2 DUP2 LT PUSH8 0xFFFFFFFFFFFFFFFF DUP3 GT OR ISZERO PUSH3 0x27C JUMPI PUSH3 0x27B PUSH3 0x222 JUMP JUMPDEST JUMPDEST DUP1 PUSH1 0x40 MSTORE POP POP POP JUMP JUMPDEST PUSH0 PUSH3 0x290 PUSH3 0x1F9 JUMP JUMPDEST SWAP1 POP PUSH3 0x29E DUP3 DUP3 PUSH3 0x24F JUMP JUMPDEST SWAP2 SWAP1 POP JUMP JUMPDEST PUSH0 PUSH8 0xFFFFFFFFFFFFFFFF DUP3 GT ISZERO PUSH3 0x2C0 JUMPI PUSH3 0x2BF PUSH3 0x222 JUMP JUMPDEST JUMPDEST PUSH3 0x2CB DUP3 PUSH3 0x212 JUMP JUMPDEST SWAP1 POP PUSH1 0x20 DUP2 ADD SWAP1 POP SWAP2 SWAP1 POP JUMP JUMPDEST PUSH0 JUMPDEST DUP4 DUP2 LT ISZERO PUSH3 0x2F7 JUMPI DUP1 DUP3 ADD MLOAD DUP2 DUP5 ADD MSTORE PUSH1 0x20 DUP2 ADD SWAP1 POP PUSH3 0x2DA JUMP JUMPDEST PUSH0 DUP5 DUP5 ADD MSTORE POP POP POP POP JUMP JUMPDEST PUSH0 PUSH3 0x318 PUSH3 0x312 DUP5 PUSH3 0x2A3 JUMP JUMPDEST PUSH3 0x285 JUMP JUMPDEST SWAP1 POP DUP3 DUP2 MSTORE PUSH1 0x20 DUP2 ADD DUP5 DUP5 DUP5 ADD GT ISZERO PUSH3 0x337 JUMPI PUSH3 0x336 PUSH3 0x20E JUMP JUMPDEST JUMPDEST PUSH3 0x344 DUP5 DUP3 DUP6 PUSH3 0x2D8 JUMP JUMPDEST POP SWAP4 SWAP3 POP POP POP JUMP JUMPDEST PUSH0 DUP3 PUSH1 0x1F DUP4 ADD SLT PUSH3 0x363 JUMPI PUSH3 0x362 PUSH3 0x20A JUMP JUMPDEST JUMPDEST DUP2 MLOAD PUSH3 0x375 DUP5 DUP3 PUSH1 0x20 DUP7 ADD PUSH3 0x302 JUMP JUMPDEST SWAP2 POP POP SWAP3 SWAP2 POP POP JUMP JUMPDEST PUSH0 DUP2 SWAP1 POP SWAP2 SWAP1 POP JUMP JUMPDEST PUSH3 0x392 DUP2 PUSH3 0x37E JUMP JUMPDEST DUP2 EQ PUSH3 0x39D JUMPI PUSH0 DUP1 REVERT JUMPDEST POP JUMP JUMPDEST PUSH0 DUP2 MLOAD SWAP1 POP PUSH3 0x3B0 DUP2 PUSH3 0x387 JUMP JUMPDEST SWAP3 SWAP2 POP POP JUMP JUMPDEST PUSH0 PUSH20 0xFFFFFFFFFFFFFFFFFFFFFFFFFFFFFFFFFFFFFFFF DUP3 AND SWAP1 POP SWAP2 SWAP1 POP JUMP JUMPDEST PUSH0 PUSH3 0x3E1 DUP3 PUSH3 0x3B6 JUMP JUMPDEST SWAP1 POP SWAP2 SWAP1 POP JUMP JUMPDEST PUSH3 0x3F3 DUP2 PUSH3 0x3D5 JUMP JUMPDEST DUP2 EQ PUSH3 0x3FE JUMPI PUSH0 DUP1 REVERT JUMPDEST POP JUMP JUMPDEST PUSH0 DUP2 MLOAD SWAP1 POP PUSH3 0x411 DUP2 PUSH3 0x3E8 JUMP JUMPDEST SWAP3 SWAP2 POP POP JUMP JUMPDEST PUSH0 DUP1 PUSH0 DUP1 PUSH0 PUSH1 0xA0 DUP7 DUP9 SUB SLT ISZERO PUSH3 0x433 JUMPI PUSH3 0x432 PUSH3 0x202 JUMP JUMPDEST JUMPDEST PUSH0 DUP7 ADD MLOAD PUSH8 0xFFFFFFFFFFFFFFFF DUP2 GT ISZERO PUSH3 0x453 JUMPI PUSH3 0x452 PUSH3 0x206 JUMP JUMPDEST JUMPDEST PUSH3 0x461 DUP9 DUP3 DUP10 ADD PUSH3 0x34C JUMP JUMPDEST SWAP6 POP POP PUSH1 0x20 DUP7 ADD MLOAD PUSH8 0xFFFFFFFFFFFFFFFF DUP2 GT ISZERO PUSH3 0x485 JUMPI PUSH3 0x484 PUSH3 0x206 JUMP JUMPDEST JUMPDEST PUSH3 0x493 DUP9 DUP3 DUP10 ADD PUSH3 0x34C JUMP JUMPDEST SWAP5 POP POP PUSH1 0x40 PUSH3 0x4A6 DUP9 DUP3 DUP10 ADD PUSH3 0x3A0 JUMP JUMPDEST SWAP4 POP POP PUSH1 0x60 PUSH3 0x4B9 DUP9 DUP3 DUP10 ADD PUSH3 0x401 JUMP JUMPDEST SWAP3 POP POP PUSH1 0x80 PUSH3 0x4CC DUP9 DUP3 DUP10 ADD PUSH3 0x401 JUMP JUMPDEST SWAP2 POP POP SWAP3 SWAP6 POP SWAP3 SWAP6 SWAP1 SWAP4 POP JUMP JUMPDEST PUSH0 DUP2 MLOAD SWAP1 POP SWAP2 SWAP1 POP JUMP JUMPDEST PUSH32 0x4E487B7100000000000000000000000000000000000000000000000000000000 PUSH0 MSTORE PUSH1 0x22 PUSH1 0x4 MSTORE PUSH1 0x24 PUSH0 REVERT JUMPDEST PUSH0 PUSH1 0x2 DUP3 DIV SWAP1 POP PUSH1 0x1 DUP3 AND DUP1 PUSH3 0x528 JUMPI PUSH1 0x7F DUP3 AND SWAP2 POP JUMPDEST PUSH1 0x20 DUP3 LT DUP2 SUB PUSH3 0x53E JUMPI PUSH3 0x53D PUSH3 0x4E3 JUMP JUMPDEST JUMPDEST POP SWAP2 SWAP1 POP JUMP JUMPDEST PUSH0 DUP2 SWAP1 POP DUP2 PUSH0 MSTORE PUSH1 0x20 PUSH0 KECCAK256 SWAP1 POP SWAP2 SWAP1 POP JUMP JUMPDEST PUSH0 PUSH1 0x20 PUSH1 0x1F DUP4 ADD DIV SWAP1 POP SWAP2 SWAP1 POP JUMP JUMPDEST PUSH0 DUP3 DUP3 SHL SWAP1 POP SWAP3 SWAP2 POP POP JUMP JUMPDEST PUSH0 PUSH1 0x8 DUP4 MUL PUSH3 0x5A2 PUSH32 0xFFFFFFFFFFFFFFFFFFFFFFFFFFFFFFFFFFFFFFFFFFFFFFFFFFFFFFFFFFFFFFFF DUP3 PUSH3 0x565 JUMP JUMPDEST PUSH3 0x5AE DUP7 DUP4 PUSH3 0x565 JUMP JUMPDEST SWAP6 POP DUP1 NOT DUP5 AND SWAP4 POP DUP1 DUP7 AND DUP5 OR SWAP3 POP POP POP SWAP4 SWAP3 POP POP POP JUMP JUMPDEST PUSH0 DUP2 SWAP1 POP SWAP2 SWAP1 POP JUMP JUMPDEST PUSH0 PUSH3 0x5EF PUSH3 0x5E9 PUSH3 0x5E3 DUP5 PUSH3 0x37E JUMP JUMPDEST PUSH3 0x5C6 JUMP JUMPDEST PUSH3 0x37E JUMP JUMPDEST SWAP1 POP SWAP2 SWAP1 POP JUMP JUMPDEST PUSH0 DUP2 SWAP1 POP SWAP2 SWAP1 POP JUMP JUMPDEST PUSH3 0x60A DUP4 PUSH3 0x5CF JUMP JUMPDEST PUSH3 0x622 PUSH3 0x619 DUP3 PUSH3 0x5F6 JUMP JUMPDEST DUP5 DUP5 SLOAD PUSH3 0x571 JUMP JUMPDEST DUP3 SSTORE POP POP POP POP JUMP JUMPDEST PUSH0 SWAP1 JUMP JUMPDEST PUSH3 0x638 PUSH3 0x62A JUMP JUMPDEST PUSH3 0x645 DUP2 DUP5 DUP5 PUSH3 0x5FF JUMP JUMPDEST POP POP POP JUMP JUMPDEST JUMPDEST DUP2 DUP2 LT ISZERO PUSH3 0x66C JUMPI PUSH3 0x660 PUSH0 DUP3 PUSH3 0x62E JUMP JUMPDEST PUSH1 0x1 DUP2 ADD SWAP1 POP PUSH3 0x64B JUMP JUMPDEST POP POP JUMP JUMPDEST PUSH1 0x1F DUP3 GT ISZERO PUSH3 0x6BB JUMPI PUSH3 0x685 DUP2 PUSH3 0x544 JUMP JUMPDEST PUSH3 0x690 DUP5 PUSH3 0x556 JUMP JUMPDEST DUP2 ADD PUSH1 0x20 DUP6 LT ISZERO PUSH3 0x6A0 JUMPI DUP2 SWAP1 POP JUMPDEST PUSH3 0x6B8 PUSH3 0x6AF DUP6 PUSH3 0x556 JUMP JUMPDEST DUP4 ADD DUP3 PUSH3 0x64A JUMP JUMPDEST POP POP JUMPDEST POP POP POP JUMP JUMPDEST PUSH0 DUP3 DUP3 SHR SWAP1 POP SWAP3 SWAP2 POP POP JUMP JUMPDEST PUSH0 PUSH3 0x6DD PUSH0 NOT DUP5 PUSH1 0x8 MUL PUSH3 0x6C0 JUMP JUMPDEST NOT DUP1 DUP4 AND SWAP2 POP POP SWAP3 SWAP2 POP POP JUMP JUMPDEST PUSH0 PUSH3 0x6F7 DUP4 DUP4 PUSH3 0x6CC JUMP JUMPDEST SWAP2 POP DUP3 PUSH1 0x2 MUL DUP3 OR SWAP1 POP SWAP3 SWAP2 POP POP JUMP JUMPDEST PUSH3 0x712 DUP3 PUSH3 0x4D9 JUMP JUMPDEST PUSH8 0xFFFFFFFFFFFFFFFF DUP2 GT ISZERO PUSH3 0x72E JUMPI PUSH3 0x72D PUSH3 0x222 JUMP JUMPDEST JUMPDEST PUSH3 0x73A DUP3 SLOAD PUSH3 0x510 JUMP JUMPDEST PUSH3 0x747 DUP3 DUP3 DUP6 PUSH3 0x670 JUMP JUMPDEST PUSH0 PUSH1 0x20 SWAP1 POP PUSH1 0x1F DUP4 GT PUSH1 0x1 DUP2 EQ PUSH3 0x77D JUMPI PUSH0 DUP5 ISZERO PUSH3 0x768 JUMPI DUP3 DUP8 ADD MLOAD SWAP1 POP JUMPDEST PUSH3 0x774 DUP6 DUP3 PUSH3 0x6EA JUMP JUMPDEST DUP7 SSTORE POP PUSH3 0x7E3 JUMP JUMPDEST PUSH1 0x1F NOT DUP5 AND PUSH3 0x78D DUP7 PUSH3 0x544 JUMP JUMPDEST PUSH0 JUMPDEST DUP3 DUP2 LT ISZERO PUSH3 0x7B6 JUMPI DUP5 DUP10 ADD MLOAD DUP3 SSTORE PUSH1 0x1 DUP3 ADD SWAP2 POP PUSH1 0x20 DUP6 ADD SWAP5 POP PUSH1 0x20 DUP2 ADD SWAP1 POP PUSH3 0x78F JUMP JUMPDEST DUP7 DUP4 LT ISZERO PUSH3 0x7D6 JUMPI DUP5 DUP10 ADD MLOAD PUSH3 0x7D2 PUSH1 0x1F DUP10 AND DUP3 PUSH3 0x6CC JUMP JUMPDEST DUP4 SSTORE POP JUMPDEST PUSH1 0x1 PUSH1 0x2 DUP9 MUL ADD DUP9 SSTORE POP POP POP JUMPDEST POP POP POP POP POP POP JUMP JUMPDEST PUSH3 0x7F6 DUP2 PUSH3 0x3D5 JUMP JUMPDEST DUP3 MSTORE POP POP JUMP JUMPDEST PUSH0 PUSH1 0x20 DUP3 ADD SWAP1 POP PUSH3 0x811 PUSH0 DUP4 ADD DUP5 PUSH3 0x7EB JUMP JUMPDEST SWAP3 SWAP2 POP POP JUMP JUMPDEST PUSH2 0x12B1 DUP1 PUSH3 0x825 PUSH0 CODECOPY PUSH0 RETURN INVALID PUSH1 0x80 PUSH1 0x40 MSTORE CALLVALUE DUP1 ISZERO PUSH2 0xF JUMPI PUSH0 DUP1 REVERT JUMPDEST POP PUSH1 0x4 CALLDATASIZE LT PUSH2 0xF3 JUMPI PUSH0 CALLDATALOAD PUSH1 0xE0 SHR DUP1 PUSH4 0x70A08231 GT PUSH2 0x95 JUMPI DUP1 PUSH4 0xA9059CBB GT PUSH2 0x64 JUMPI DUP1 PUSH4 0xA9059CBB EQ PUSH2 0x261 JUMPI DUP1 PUSH4 0xDD62ED3E EQ PUSH2 0x291 JUMPI DUP1 PUSH4 0xE04D2684 EQ PUSH2 0x2C1 JUMPI DUP1 PUSH4 0xF2FDE38B EQ PUSH2 0x2DF JUMPI PUSH2 0xF3 JUMP JUMPDEST DUP1 PUSH4 0x70A08231 EQ PUSH2 0x1EB JUMPI DUP1 PUSH4 0x715018A6 EQ PUSH2 0x21B JUMPI DUP1 PUSH4 0x8DA5CB5B EQ PUSH2 0x225 JUMPI DUP1 PUSH4 0x95D89B41 EQ PUSH2 0x243 JUMPI PUSH2 0xF3 JUMP JUMPDEST DUP1 PUSH4 0x18160DDD GT PUSH2 0xD1 JUMPI DUP1 PUSH4 0x18160DDD EQ PUSH2 0x163 JUMPI DUP1 PUSH4 0x23B872DD EQ PUSH2 0x181 JUMPI DUP1 PUSH4 0x313CE567 EQ PUSH2 0x1B1 JUMPI DUP1 PUSH4 0x40C10F19 EQ PUSH2 0x1CF JUMPI PUSH2 0xF3 JUMP JUMPDEST DUP1 PUSH4 0x6FDDE03 EQ PUSH2 0xF7 JUMPI DUP1 PUSH4 0x95EA7B3 EQ PUSH2 0x115 JUMPI DUP1 PUSH4 0x107377AF EQ PUSH2 0x145 JUMPI JUMPDEST PUSH0 DUP1 REVERT JUMPDEST PUSH2 0xFF PUSH2 0x2FB JUMP JUMPDEST PUSH1 0x40 MLOAD PUSH2 0x10C SWAP2 SWAP1 PUSH2 0xEC2 JUMP JUMPDEST PUSH1 0x40 MLOAD DUP1 SWAP2 SUB SWAP1 RETURN JUMPDEST PUSH2 0x12F PUSH1 0x4 DUP1 CALLDATASIZE SUB DUP2 ADD SWAP1 PUSH2 0x12A SWAP2 SWAP1 PUSH2 0xF73 JUMP JUMPDEST PUSH2 0x38B JUMP JUMPDEST PUSH1 0x40 MLOAD PUSH2 0x13C SWAP2 SWAP1 PUSH2 0xFCB JUMP JUMPDEST PUSH1 0x40 MLOAD DUP1 SWAP2 SUB SWAP1 RETURN JUMPDEST PUSH2 0x14D PUSH2 0x3AD JUMP JUMPDEST PUSH1 0x40 MLOAD PUSH2 0x15A SWAP2 SWAP1 PUSH2 0xFF3 JUMP JUMPDEST PUSH1 0x40 MLOAD DUP1 SWAP2 SUB SWAP1 RETURN JUMPDEST PUSH2 0x16B PUSH2 0x3D2 JUMP JUMPDEST PUSH1 0x40 MLOAD PUSH2 0x178 SWAP2 SWAP1 PUSH2 0x101B JUMP JUMPDEST PUSH1 0x40 MLOAD DUP1 SWAP2 SUB SWAP1 RETURN JUMPDEST PUSH2 0x19B PUSH1 0x4 DUP1 CALLDATASIZE SUB DUP2 ADD SWAP1 PUSH2 0x196 SWAP2 SWAP1 PUSH2 0x1034 JUMP JUMPDEST PUSH2 0x3DB JUMP JUMPDEST PUSH1 0x40 MLOAD PUSH2 0x1A8 SWAP2 SWAP1 PUSH2 0xFCB JUMP JUMPDEST PUSH1 0x40 MLOAD DUP1 SWAP2 SUB SWAP1 RETURN JUMPDEST PUSH2 0x1B9 PUSH2 0x409 JUMP JUMPDEST PUSH1 0x40 MLOAD PUSH2 0x1C6 SWAP2 SWAP1 PUSH2 0x109F JUMP JUMPDEST PUSH1 0x40 MLOAD DUP1 SWAP2 SUB SWAP1 RETURN JUMPDEST PUSH2 0x1E9 PUSH1 0x4 DUP1 CALLDATASIZE SUB DUP2 ADD SWAP1 PUSH2 0x1E4 SWAP2 SWAP1 PUSH2 0xF73 JUMP JUMPDEST PUSH2 0x411 JUMP JUMPDEST STOP JUMPDEST PUSH2 0x205 PUSH1 0x4 DUP1 CALLDATASIZE SUB DUP2 ADD SWAP1 PUSH2 0x200 SWAP2 SWAP1 PUSH2 0x10B8 JUMP JUMPDEST PUSH2 0x4AE JUMP JUMPDEST PUSH1 0x40 MLOAD PUSH2 0x212 SWAP2 SWAP1 PUSH2 0x101B JUMP JUMPDEST PUSH1 0x40 MLOAD DUP1 SWAP2 SUB SWAP1 RETURN JUMPDEST PUSH2 0x223 PUSH2 0x4F3 JUMP JUMPDEST STOP JUMPDEST PUSH2 0x22D PUSH2 0x506 JUMP JUMPDEST PUSH1 0x40 MLOAD PUSH2 0x23A SWAP2 SWAP1 PUSH2 0xFF3 JUMP JUMPDEST PUSH1 0x40 MLOAD DUP1 SWAP2 SUB SWAP1 RETURN JUMPDEST PUSH2 0x24B PUSH2 0x52E JUMP JUMPDEST PUSH1 0x40 MLOAD PUSH2 0x258 SWAP2 SWAP1 PUSH2 0xEC2 JUMP JUMPDEST PUSH1 0x40 MLOAD DUP1 SWAP2 SUB SWAP1 RETURN JUMPDEST PUSH2 0x27B PUSH1 0x4 DUP1 CALLDATASIZE SUB DUP2 ADD SWAP1 PUSH2 0x276 SWAP2 SWAP1 PUSH2 0xF73 JUMP JUMPDEST PUSH2 0x5BE JUMP JUMPDEST PUSH1 0x40 MLOAD PUSH2 0x288 SWAP2 SWAP1 PUSH2 0xFCB JUMP JUMPDEST PUSH1 0x40 MLOAD DUP1 SWAP2 SUB SWAP1 RETURN JUMPDEST PUSH2 0x2AB PUSH1 0x4 DUP1 CALLDATASIZE SUB DUP2 ADD SWAP1 PUSH2 0x2A6 SWAP2 SWAP1 PUSH2 0x10E3 JUMP JUMPDEST PUSH2 0x5E0 JUMP JUMPDEST PUSH1 0x40 MLOAD PUSH2 0x2B8 SWAP2 SWAP1 PUSH2 0x101B JUMP JUMPDEST PUSH1 0x40 MLOAD DUP1 SWAP2 SUB SWAP1 RETURN JUMPDEST PUSH2 0x2C9 PUSH2 0x662 JUMP JUMPDEST PUSH1 0x40 MLOAD PUSH2 0x2D6 SWAP2 SWAP1 PUSH2 0x101B JUMP JUMPDEST PUSH1 0x40 MLOAD DUP1 SWAP2 SUB SWAP1 RETURN JUMPDEST PUSH2 0x2F9 PUSH1 0x4 DUP1 CALLDATASIZE SUB DUP2 ADD SWAP1 PUSH2 0x2F4 SWAP2 SWAP1 PUSH2 0x10B8 JUMP JUMPDEST PUSH2 0x668 JUMP JUMPDEST STOP JUMPDEST PUSH1 0x60 PUSH1 0x3 DUP1 SLOAD PUSH2 0x30A SWAP1 PUSH2 0x114E JUMP JUMPDEST DUP1 PUSH1 0x1F ADD PUSH1 0x20 DUP1 SWAP2 DIV MUL PUSH1 0x20 ADD PUSH1 0x40 MLOAD SWAP1 DUP2 ADD PUSH1 0x40 MSTORE DUP1 SWAP3 SWAP2 SWAP1 DUP2 DUP2 MSTORE PUSH1 0x20 ADD DUP3 DUP1 SLOAD PUSH2 0x336 SWAP1 PUSH2 0x114E JUMP JUMPDEST DUP1 ISZERO PUSH2 0x381 JUMPI DUP1 PUSH1 0x1F LT PUSH2 0x358 JUMPI PUSH2 0x100 DUP1 DUP4 SLOAD DIV MUL DUP4 MSTORE SWAP2 PUSH1 0x20 ADD SWAP2 PUSH2 0x381 JUMP JUMPDEST DUP3 ADD SWAP2 SWAP1 PUSH0 MSTORE PUSH1 0x20 PUSH0 KECCAK256 SWAP1 JUMPDEST DUP2 SLOAD DUP2 MSTORE SWAP1 PUSH1 0x1 ADD SWAP1 PUSH1 0x20 ADD DUP1 DUP4 GT PUSH2 0x364 JUMPI DUP3 SWAP1 SUB PUSH1 0x1F AND DUP3 ADD SWAP2 JUMPDEST POP POP POP POP POP SWAP1 POP SWAP1 JUMP JUMPDEST PUSH0 DUP1 PUSH2 0x395 PUSH2 0x6EC JUMP JUMPDEST SWAP1 POP PUSH2 0x3A2 DUP2 DUP6 DUP6 PUSH2 0x6F3 JUMP JUMPDEST PUSH1 0x1 SWAP2 POP POP SWAP3 SWAP2 POP POP JUMP JUMPDEST PUSH1 0x6 PUSH0 SWAP1 SLOAD SWAP1 PUSH2 0x100 EXP SWAP1 DIV PUSH20 0xFFFFFFFFFFFFFFFFFFFFFFFFFFFFFFFFFFFFFFFF AND DUP2 JUMP JUMPDEST PUSH0 PUSH1 0x2 SLOAD SWAP1 POP SWAP1 JUMP JUMPDEST PUSH0 DUP1 PUSH2 0x3E5 PUSH2 0x6EC JUMP JUMPDEST SWAP1 POP PUSH2 0x3F2 DUP6 DUP3 DUP6 PUSH2 0x705 JUMP JUMPDEST PUSH2 0x3FD DUP6 DUP6 DUP6 PUSH2 0x797 JUMP JUMPDEST PUSH1 0x1 SWAP2 POP POP SWAP4 SWAP3 POP POP POP JUMP JUMPDEST PUSH0 PUSH1 0x12 SWAP1 POP SWAP1 JUMP JUMPDEST PUSH1 0x6 PUSH0 SWAP1 SLOAD SWAP1 PUSH2 0x100 EXP SWAP1 DIV PUSH20 0xFFFFFFFFFFFFFFFFFFFFFFFFFFFFFFFFFFFFFFFF AND PUSH20 0xFFFFFFFFFFFFFFFFFFFFFFFFFFFFFFFFFFFFFFFF AND CALLER PUSH20 0xFFFFFFFFFFFFFFFFFFFFFFFFFFFFFFFFFFFFFFFF AND EQ PUSH2 0x4A0 JUMPI PUSH1 0x40 MLOAD PUSH32 0x8C379A000000000000000000000000000000000000000000000000000000000 DUP2 MSTORE PUSH1 0x4 ADD PUSH2 0x497 SWAP1 PUSH2 0x11C8 JUMP JUMPDEST PUSH1 0x40 MLOAD DUP1 SWAP2 SUB SWAP1 REVERT JUMPDEST PUSH2 0x4AA DUP3 DUP3 PUSH2 0x887 JUMP JUMPDEST POP POP JUMP JUMPDEST PUSH0 DUP1 PUSH0 DUP4 PUSH20 0xFFFFFFFFFFFFFFFFFFFFFFFFFFFFFFFFFFFFFFFF AND PUSH20 0xFFFFFFFFFFFFFFFFFFFFFFFFFFFFFFFFFFFFFFFF AND DUP2 MSTORE PUSH1 0x20 ADD SWAP1 DUP2 MSTORE PUSH1 0x20 ADD PUSH0 KECCAK256 SLOAD SWAP1 POP SWAP2 SWAP1 POP JUMP JUMPDEST PUSH2 0x4FB PUSH2 0x906 JUMP JUMPDEST PUSH2 0x504 PUSH0 PUSH2 0x98D JUMP JUMPDEST JUMP JUMPDEST PUSH0 PUSH1 0x5 PUSH0 SWAP1 SLOAD SWAP1 PUSH2 0x100 EXP SWAP1 DIV PUSH20 0xFFFFFFFFFFFFFFFFFFFFFFFFFFFFFFFFFFFFFFFF AND SWAP1 POP SWAP1 JUMP JUMPDEST PUSH1 0x60 PUSH1 0x4 DUP1 SLOAD PUSH2 0x53D SWAP1 PUSH2 0x114E JUMP JUMPDEST DUP1 PUSH1 0x1F ADD PUSH1 0x20 DUP1 SWAP2 DIV MUL PUSH1 0x20 ADD PUSH1 0x40 MLOAD SWAP1 DUP2 ADD PUSH1 0x40 MSTORE DUP1 SWAP3 SWAP2 SWAP1 DUP2 DUP2 MSTORE PUSH1 0x20 ADD DUP3 DUP1 SLOAD PUSH2 0x569 SWAP1 PUSH2 0x114E JUMP JUMPDEST DUP1 ISZERO PUSH2 0x5B4 JUMPI DUP1 PUSH1 0x1F LT PUSH2 0x58B JUMPI PUSH2 0x100 DUP1 DUP4 SLOAD DIV MUL DUP4 MSTORE SWAP2 PUSH1 0x20 ADD SWAP2 PUSH2 0x5B4 JUMP JUMPDEST DUP3 ADD SWAP2 SWAP1 PUSH0 MSTORE PUSH1 0x20 PUSH0 KECCAK256 SWAP1 JUMPDEST DUP2 SLOAD DUP2 MSTORE SWAP1 PUSH1 0x1 ADD SWAP1 PUSH1 0x20 ADD DUP1 DUP4 GT PUSH2 0x597 JUMPI DUP3 SWAP1 SUB PUSH1 0x1F AND DUP3 ADD SWAP2 JUMPDEST POP POP POP POP POP SWAP1 POP SWAP1 JUMP JUMPDEST PUSH0 DUP1 PUSH2 0x5C8 PUSH2 0x6EC JUMP JUMPDEST SWAP1 POP PUSH2 0x5D5 DUP2 DUP6 DUP6 PUSH2 0x797 JUMP JUMPDEST PUSH1 0x1 SWAP2 POP POP SWAP3 SWAP2 POP POP JUMP JUMPDEST PUSH0 PUSH1 0x1 PUSH0 DUP5 PUSH20 0xFFFFFFFFFFFFFFFFFFFFFFFFFFFFFFFFFFFFFFFF AND PUSH20 0xFFFFFFFFFFFFFFFFFFFFFFFFFFFFFFFFFFFFFFFF AND DUP2 MSTORE PUSH1 0x20 ADD SWAP1 DUP2 MSTORE PUSH1 0x20 ADD PUSH0 KECCAK256 PUSH0 DUP4 PUSH20 0xFFFFFFFFFFFFFFFFFFFFFFFFFFFFFFFFFFFFFFFF AND PUSH20 0xFFFFFFFFFFFFFFFFFFFFFFFFFFFFFFFFFFFFFFFF AND DUP2 MSTORE PUSH1 0x20 ADD SWAP1 DUP2 MSTORE PUSH1 0x20 ADD PUSH0 KECCAK256 SLOAD SWAP1 POP SWAP3 SWAP2 POP POP JUMP JUMPDEST PUSH1 0x7 SLOAD DUP2 JUMP JUMPDEST PUSH2 0x670 PUSH2 0x906 JUMP JUMPDEST PUSH0 PUSH20 0xFFFFFFFFFFFFFFFFFFFFFFFFFFFFFFFFFFFFFFFF AND DUP2 PUSH20 0xFFFFFFFFFFFFFFFFFFFFFFFFFFFFFFFFFFFFFFFF AND SUB PUSH2 0x6E0 JUMPI PUSH0 PUSH1 0x40 MLOAD PUSH32 0x1E4FBDF700000000000000000000000000000000000000000000000000000000 DUP2 MSTORE PUSH1 0x4 ADD PUSH2 0x6D7 SWAP2 SWAP1 PUSH2 0xFF3 JUMP JUMPDEST PUSH1 0x40 MLOAD DUP1 SWAP2 SUB SWAP1 REVERT JUMPDEST PUSH2 0x6E9 DUP2 PUSH2 0x98D JUMP JUMPDEST POP JUMP JUMPDEST PUSH0 CALLER SWAP1 POP SWAP1 JUMP JUMPDEST PUSH2 0x700 DUP4 DUP4 DUP4 PUSH1 0x1 PUSH2 0xA50 JUMP JUMPDEST POP POP POP JUMP JUMPDEST PUSH0 PUSH2 0x710 DUP5 DUP5 PUSH2 0x5E0 JUMP JUMPDEST SWAP1 POP PUSH32 0xFFFFFFFFFFFFFFFFFFFFFFFFFFFFFFFFFFFFFFFFFFFFFFFFFFFFFFFFFFFFFFFF DUP2 EQ PUSH2 0x791 JUMPI DUP2 DUP2 LT ISZERO PUSH2 0x782 JUMPI DUP3 DUP2 DUP4 PUSH1 0x40 MLOAD PUSH32 0xFB8F41B200000000000000000000000000000000000000000000000000000000 DUP2 MSTORE PUSH1 0x4 ADD PUSH2 0x779 SWAP4 SWAP3 SWAP2 SWAP1 PUSH2 0x11E6 JUMP JUMPDEST PUSH1 0x40 MLOAD DUP1 SWAP2 SUB SWAP1 REVERT JUMPDEST PUSH2 0x790 DUP5 DUP5 DUP5 DUP5 SUB PUSH0 PUSH2 0xA50 JUMP JUMPDEST JUMPDEST POP POP POP POP JUMP JUMPDEST PUSH0 PUSH20 0xFFFFFFFFFFFFFFFFFFFFFFFFFFFFFFFFFFFFFFFF AND DUP4 PUSH20 0xFFFFFFFFFFFFFFFFFFFFFFFFFFFFFFFFFFFFFFFF AND SUB PUSH2 0x807 JUMPI PUSH0 PUSH1 0x40 MLOAD PUSH32 0x96C6FD1E00000000000000000000000000000000000000000000000000000000 DUP2 MSTORE PUSH1 0x4 ADD PUSH2 0x7FE SWAP2 SWAP1 PUSH2 0xFF3 JUMP JUMPDEST PUSH1 0x40 MLOAD DUP1 SWAP2 SUB SWAP1 REVERT JUMPDEST PUSH0 PUSH20 0xFFFFFFFFFFFFFFFFFFFFFFFFFFFFFFFFFFFFFFFF AND DUP3 PUSH20 0xFFFFFFFFFFFFFFFFFFFFFFFFFFFFFFFFFFFFFFFF AND SUB PUSH2 0x877 JUMPI PUSH0 PUSH1 0x40 MLOAD PUSH32 0xEC442F0500000000000000000000000000000000000000000000000000000000 DUP2 MSTORE PUSH1 0x4 ADD PUSH2 0x86E SWAP2 SWAP1 PUSH2 0xFF3 JUMP JUMPDEST PUSH1 0x40 MLOAD DUP1 SWAP2 SUB SWAP1 REVERT JUMPDEST PUSH2 0x882 DUP4 DUP4 DUP4 PUSH2 0xC1F JUMP JUMPDEST POP POP POP JUMP JUMPDEST PUSH0 PUSH20 0xFFFFFFFFFFFFFFFFFFFFFFFFFFFFFFFFFFFFFFFF AND DUP3 PUSH20 0xFFFFFFFFFFFFFFFFFFFFFFFFFFFFFFFFFFFFFFFF AND SUB PUSH2 0x8F7 JUMPI PUSH0 PUSH1 0x40 MLOAD PUSH32 0xEC442F0500000000000000000000000000000000000000000000000000000000 DUP2 MSTORE PUSH1 0x4 ADD PUSH2 0x8EE SWAP2 SWAP1 PUSH2 0xFF3 JUMP JUMPDEST PUSH1 0x40 MLOAD DUP1 SWAP2 SUB SWAP1 REVERT JUMPDEST PUSH2 0x902 PUSH0 DUP4 DUP4 PUSH2 0xC1F JUMP JUMPDEST POP POP JUMP JUMPDEST PUSH2 0x90E PUSH2 0x6EC JUMP JUMPDEST PUSH20 0xFFFFFFFFFFFFFFFFFFFFFFFFFFFFFFFFFFFFFFFF AND PUSH2 0x92C PUSH2 0x506 JUMP JUMPDEST PUSH20 0xFFFFFFFFFFFFFFFFFFFFFFFFFFFFFFFFFFFFFFFF AND EQ PUSH2 0x98B JUMPI PUSH2 0x94F PUSH2 0x6EC JUMP JUMPDEST PUSH1 0x40 MLOAD PUSH32 0x118CDAA700000000000000000000000000000000000000000000000000000000 DUP2 MSTORE PUSH1 0x4 ADD PUSH2 0x982 SWAP2 SWAP1 PUSH2 0xFF3 JUMP JUMPDEST PUSH1 0x40 MLOAD DUP1 SWAP2 SUB SWAP1 REVERT JUMPDEST JUMP JUMPDEST PUSH0 PUSH1 0x5 PUSH0 SWAP1 SLOAD SWAP1 PUSH2 0x100 EXP SWAP1 DIV PUSH20 0xFFFFFFFFFFFFFFFFFFFFFFFFFFFFFFFFFFFFFFFF AND SWAP1 POP DUP2 PUSH1 0x5 PUSH0 PUSH2 0x100 EXP DUP2 SLOAD DUP2 PUSH20 0xFFFFFFFFFFFFFFFFFFFFFFFFFFFFFFFFFFFFFFFF MUL NOT AND SWAP1 DUP4 PUSH20 0xFFFFFFFFFFFFFFFFFFFFFFFFFFFFFFFFFFFFFFFF AND MUL OR SWAP1 SSTORE POP DUP2 PUSH20 0xFFFFFFFFFFFFFFFFFFFFFFFFFFFFFFFFFFFFFFFF AND DUP2 PUSH20 0xFFFFFFFFFFFFFFFFFFFFFFFFFFFFFFFFFFFFFFFF AND PUSH32 0x8BE0079C531659141344CD1FD0A4F28419497F9722A3DAAFE3B4186F6B6457E0 PUSH1 0x40 MLOAD PUSH1 0x40 MLOAD DUP1 SWAP2 SUB SWAP1 LOG3 POP POP JUMP JUMPDEST PUSH0 PUSH20 0xFFFFFFFFFFFFFFFFFFFFFFFFFFFFFFFFFFFFFFFF AND DUP5 PUSH20 0xFFFFFFFFFFFFFFFFFFFFFFFFFFFFFFFFFFFFFFFF AND SUB PUSH2 0xAC0 JUMPI PUSH0 PUSH1 0x40 MLOAD PUSH32 0xE602DF0500000000000000000000000000000000000000000000000000000000 DUP2 MSTORE PUSH1 0x4 ADD PUSH2 0xAB7 SWAP2 SWAP1 PUSH2 0xFF3 JUMP JUMPDEST PUSH1 0x40 MLOAD DUP1 SWAP2 SUB SWAP1 REVERT JUMPDEST PUSH0 PUSH20 0xFFFFFFFFFFFFFFFFFFFFFFFFFFFFFFFFFFFFFFFF AND DUP4 PUSH20 0xFFFFFFFFFFFFFFFFFFFFFFFFFFFFFFFFFFFFFFFF AND SUB PUSH2 0xB30 JUMPI PUSH0 PUSH1 0x40 MLOAD PUSH32 0x94280D6200000000000000000000000000000000000000000000000000000000 DUP2 MSTORE PUSH1 0x4 ADD PUSH2 0xB27 SWAP2 SWAP1 PUSH2 0xFF3 JUMP JUMPDEST PUSH1 0x40 MLOAD DUP1 SWAP2 SUB SWAP1 REVERT JUMPDEST DUP2 PUSH1 0x1 PUSH0 DUP7 PUSH20 0xFFFFFFFFFFFFFFFFFFFFFFFFFFFFFFFFFFFFFFFF AND PUSH20 0xFFFFFFFFFFFFFFFFFFFFFFFFFFFFFFFFFFFFFFFF AND DUP2 MSTORE PUSH1 0x20 ADD SWAP1 DUP2 MSTORE PUSH1 0x20 ADD PUSH0 KECCAK256 PUSH0 DUP6 PUSH20 0xFFFFFFFFFFFFFFFFFFFFFFFFFFFFFFFFFFFFFFFF AND PUSH20 0xFFFFFFFFFFFFFFFFFFFFFFFFFFFFFFFFFFFFFFFF AND DUP2 MSTORE PUSH1 0x20 ADD SWAP1 DUP2 MSTORE PUSH1 0x20 ADD PUSH0 KECCAK256 DUP2 SWAP1 SSTORE POP DUP1 ISZERO PUSH2 0xC19 JUMPI DUP3 PUSH20 0xFFFFFFFFFFFFFFFFFFFFFFFFFFFFFFFFFFFFFFFF AND DUP5 PUSH20 0xFFFFFFFFFFFFFFFFFFFFFFFFFFFFFFFFFFFFFFFF AND PUSH32 0x8C5BE1E5EBEC7D5BD14F71427D1E84F3DD0314C0F7B2291E5B200AC8C7C3B925 DUP5 PUSH1 0x40 MLOAD PUSH2 0xC10 SWAP2 SWAP1 PUSH2 0x101B JUMP JUMPDEST PUSH1 0x40 MLOAD DUP1 SWAP2 SUB SWAP1 LOG3 JUMPDEST POP POP POP POP JUMP JUMPDEST PUSH0 PUSH20 0xFFFFFFFFFFFFFFFFFFFFFFFFFFFFFFFFFFFFFFFF AND DUP4 PUSH20 0xFFFFFFFFFFFFFFFFFFFFFFFFFFFFFFFFFFFFFFFF AND SUB PUSH2 0xC6F JUMPI DUP1 PUSH1 0x2 PUSH0 DUP3 DUP3 SLOAD PUSH2 0xC63 SWAP2 SWAP1 PUSH2 0x1248 JUMP JUMPDEST SWAP3 POP POP DUP2 SWAP1 SSTORE POP PUSH2 0xD3D JUMP JUMPDEST PUSH0 DUP1 PUSH0 DUP6 PUSH20 0xFFFFFFFFFFFFFFFFFFFFFFFFFFFFFFFFFFFFFFFF AND PUSH20 0xFFFFFFFFFFFFFFFFFFFFFFFFFFFFFFFFFFFFFFFF AND DUP2 MSTORE PUSH1 0x20 ADD SWAP1 DUP2 MSTORE PUSH1 0x20 ADD PUSH0 KECCAK256 SLOAD SWAP1 POP DUP2 DUP2 LT ISZERO PUSH2 0xCF8 JUMPI DUP4 DUP2 DUP4 PUSH1 0x40 MLOAD PUSH32 0xE450D38C00000000000000000000000000000000000000000000000000000000 DUP2 MSTORE PUSH1 0x4 ADD PUSH2 0xCEF SWAP4 SWAP3 SWAP2 SWAP1 PUSH2 0x11E6 JUMP JUMPDEST PUSH1 0x40 MLOAD DUP1 SWAP2 SUB SWAP1 REVERT JUMPDEST DUP2 DUP2 SUB PUSH0 DUP1 DUP7 PUSH20 0xFFFFFFFFFFFFFFFFFFFFFFFFFFFFFFFFFFFFFFFF AND PUSH20 0xFFFFFFFFFFFFFFFFFFFFFFFFFFFFFFFFFFFFFFFF AND DUP2 MSTORE PUSH1 0x20 ADD SWAP1 DUP2 MSTORE PUSH1 0x20 ADD PUSH0 KECCAK256 DUP2 SWAP1 SSTORE POP POP JUMPDEST PUSH0 PUSH20 0xFFFFFFFFFFFFFFFFFFFFFFFFFFFFFFFFFFFFFFFF AND DUP3 PUSH20 0xFFFFFFFFFFFFFFFFFFFFFFFFFFFFFFFFFFFFFFFF AND SUB PUSH2 0xD84 JUMPI DUP1 PUSH1 0x2 PUSH0 DUP3 DUP3 SLOAD SUB SWAP3 POP POP DUP2 SWAP1 SSTORE POP PUSH2 0xDCE JUMP JUMPDEST DUP1 PUSH0 DUP1 DUP5 PUSH20 0xFFFFFFFFFFFFFFFFFFFFFFFFFFFFFFFFFFFFFFFF AND PUSH20 0xFFFFFFFFFFFFFFFFFFFFFFFFFFFFFFFFFFFFFFFF AND DUP2 MSTORE PUSH1 0x20 ADD SWAP1 DUP2 MSTORE PUSH1 0x20 ADD PUSH0 KECCAK256 PUSH0 DUP3 DUP3 SLOAD ADD SWAP3 POP POP DUP2 SWAP1 SSTORE POP JUMPDEST DUP2 PUSH20 0xFFFFFFFFFFFFFFFFFFFFFFFFFFFFFFFFFFFFFFFF AND DUP4 PUSH20 0xFFFFFFFFFFFFFFFFFFFFFFFFFFFFFFFFFFFFFFFF AND PUSH32 0xDDF252AD1BE2C89B69C2B068FC378DAA952BA7F163C4A11628F55A4DF523B3EF DUP4 PUSH1 0x40 MLOAD PUSH2 0xE2B SWAP2 SWAP1 PUSH2 0x101B JUMP JUMPDEST PUSH1 0x40 MLOAD DUP1 SWAP2 SUB SWAP1 LOG3 POP POP POP JUMP JUMPDEST PUSH0 DUP2 MLOAD SWAP1 POP SWAP2 SWAP1 POP JUMP JUMPDEST PUSH0 DUP3 DUP3 MSTORE PUSH1 0x20 DUP3 ADD SWAP1 POP SWAP3 SWAP2 POP POP JUMP JUMPDEST PUSH0 JUMPDEST DUP4 DUP2 LT ISZERO PUSH2 0xE6F JUMPI DUP1 DUP3 ADD MLOAD DUP2 DUP5 ADD MSTORE PUSH1 0x20 DUP2 ADD SWAP1 POP PUSH2 0xE54 JUMP JUMPDEST PUSH0 DUP5 DUP5 ADD MSTORE POP POP POP POP JUMP JUMPDEST PUSH0 PUSH1 0x1F NOT PUSH1 0x1F DUP4 ADD AND SWAP1 POP SWAP2 SWAP1 POP JUMP JUMPDEST PUSH0 PUSH2 0xE94 DUP3 PUSH2 0xE38 JUMP JUMPDEST PUSH2 0xE9E DUP2 DUP6 PUSH2 0xE42 JUMP JUMPDEST SWAP4 POP PUSH2 0xEAE DUP2 DUP6 PUSH1 0x20 DUP7 ADD PUSH2 0xE52 JUMP JUMPDEST PUSH2 0xEB7 DUP2 PUSH2 0xE7A JUMP JUMPDEST DUP5 ADD SWAP2 POP POP SWAP3 SWAP2 POP POP JUMP JUMPDEST PUSH0 PUSH1 0x20 DUP3 ADD SWAP1 POP DUP2 DUP2 SUB PUSH0 DUP4 ADD MSTORE PUSH2 0xEDA DUP2 DUP5 PUSH2 0xE8A JUMP JUMPDEST SWAP1 POP SWAP3 SWAP2 POP POP JUMP JUMPDEST PUSH0 DUP1 REVERT JUMPDEST PUSH0 PUSH20 0xFFFFFFFFFFFFFFFFFFFFFFFFFFFFFFFFFFFFFFFF DUP3 AND SWAP1 POP SWAP2 SWAP1 POP JUMP JUMPDEST PUSH0 PUSH2 0xF0F DUP3 PUSH2 0xEE6 JUMP JUMPDEST SWAP1 POP SWAP2 SWAP1 POP JUMP JUMPDEST PUSH2 0xF1F DUP2 PUSH2 0xF05 JUMP JUMPDEST DUP2 EQ PUSH2 0xF29 JUMPI PUSH0 DUP1 REVERT JUMPDEST POP JUMP JUMPDEST PUSH0 DUP2 CALLDATALOAD SWAP1 POP PUSH2 0xF3A DUP2 PUSH2 0xF16 JUMP JUMPDEST SWAP3 SWAP2 POP POP JUMP JUMPDEST PUSH0 DUP2 SWAP1 POP SWAP2 SWAP1 POP JUMP JUMPDEST PUSH2 0xF52 DUP2 PUSH2 0xF40 JUMP JUMPDEST DUP2 EQ PUSH2 0xF5C JUMPI PUSH0 DUP1 REVERT JUMPDEST POP JUMP JUMPDEST PUSH0 DUP2 CALLDATALOAD SWAP1 POP PUSH2 0xF6D DUP2 PUSH2 0xF49 JUMP JUMPDEST SWAP3 SWAP2 POP POP JUMP JUMPDEST PUSH0 DUP1 PUSH1 0x40 DUP4 DUP6 SUB SLT ISZERO PUSH2 0xF89 JUMPI PUSH2 0xF88 PUSH2 0xEE2 JUMP JUMPDEST JUMPDEST PUSH0 PUSH2 0xF96 DUP6 DUP3 DUP7 ADD PUSH2 0xF2C JUMP JUMPDEST SWAP3 POP POP PUSH1 0x20 PUSH2 0xFA7 DUP6 DUP3 DUP7 ADD PUSH2 0xF5F JUMP JUMPDEST SWAP2 POP POP SWAP3 POP SWAP3 SWAP1 POP JUMP JUMPDEST PUSH0 DUP2 ISZERO ISZERO SWAP1 POP SWAP2 SWAP1 POP JUMP JUMPDEST PUSH2 0xFC5 DUP2 PUSH2 0xFB1 JUMP JUMPDEST DUP3 MSTORE POP POP JUMP JUMPDEST PUSH0 PUSH1 0x20 DUP3 ADD SWAP1 POP PUSH2 0xFDE PUSH0 DUP4 ADD DUP5 PUSH2 0xFBC JUMP JUMPDEST SWAP3 SWAP2 POP POP JUMP JUMPDEST PUSH2 0xFED DUP2 PUSH2 0xF05 JUMP JUMPDEST DUP3 MSTORE POP POP JUMP JUMPDEST PUSH0 PUSH1 0x20 DUP3 ADD SWAP1 POP PUSH2 0x1006 PUSH0 DUP4 ADD DUP5 PUSH2 0xFE4 JUMP JUMPDEST SWAP3 SWAP2 POP POP JUMP JUMPDEST PUSH2 0x1015 DUP2 PUSH2 0xF40 JUMP JUMPDEST DUP3 MSTORE POP POP JUMP JUMPDEST PUSH0 PUSH1 0x20 DUP3 ADD SWAP1 POP PUSH2 0x102E PUSH0 DUP4 ADD DUP5 PUSH2 0x100C JUMP JUMPDEST SWAP3 SWAP2 POP POP JUMP JUMPDEST PUSH0 DUP1 PUSH0 PUSH1 0x60 DUP5 DUP7 SUB SLT ISZERO PUSH2 0x104B JUMPI PUSH2 0x104A PUSH2 0xEE2 JUMP JUMPDEST JUMPDEST PUSH0 PUSH2 0x1058 DUP7 DUP3 DUP8 ADD PUSH2 0xF2C JUMP JUMPDEST SWAP4 POP POP PUSH1 0x20 PUSH2 0x1069 DUP7 DUP3 DUP8 ADD PUSH2 0xF2C JUMP JUMPDEST SWAP3 POP POP PUSH1 0x40 PUSH2 0x107A DUP7 DUP3 DUP8 ADD PUSH2 0xF5F JUMP JUMPDEST SWAP2 POP POP SWAP3 POP SWAP3 POP SWAP3 JUMP JUMPDEST PUSH0 PUSH1 0xFF DUP3 AND SWAP1 POP SWAP2 SWAP1 POP JUMP JUMPDEST PUSH2 0x1099 DUP2 PUSH2 0x1084 JUMP JUMPDEST DUP3 MSTORE POP POP JUMP JUMPDEST PUSH0 PUSH1 0x20 DUP3 ADD SWAP1 POP PUSH2 0x10B2 PUSH0 DUP4 ADD DUP5 PUSH2 0x1090 JUMP JUMPDEST SWAP3 SWAP2 POP POP JUMP JUMPDEST PUSH0 PUSH1 0x20 DUP3 DUP5 SUB SLT ISZERO PUSH2 0x10CD JUMPI PUSH2 0x10CC PUSH2 0xEE2 JUMP JUMPDEST JUMPDEST PUSH0 PUSH2 0x10DA DUP5 DUP3 DUP6 ADD PUSH2 0xF2C JUMP JUMPDEST SWAP2 POP POP SWAP3 SWAP2 POP POP JUMP JUMPDEST PUSH0 DUP1 PUSH1 0x40 DUP4 DUP6 SUB SLT ISZERO PUSH2 0x10F9 JUMPI PUSH2 0x10F8 PUSH2 0xEE2 JUMP JUMPDEST JUMPDEST PUSH0 PUSH2 0x1106 DUP6 DUP3 DUP7 ADD PUSH2 0xF2C JUMP JUMPDEST SWAP3 POP POP PUSH1 0x20 PUSH2 0x1117 DUP6 DUP3 DUP7 ADD PUSH2 0xF2C JUMP JUMPDEST SWAP2 POP POP SWAP3 POP SWAP3 SWAP1 POP JUMP JUMPDEST PUSH32 0x4E487B7100000000000000000000000000000000000000000000000000000000 PUSH0 MSTORE PUSH1 0x22 PUSH1 0x4 MSTORE PUSH1 0x24 PUSH0 REVERT JUMPDEST PUSH0 PUSH1 0x2 DUP3 DIV SWAP1 POP PUSH1 0x1 DUP3 AND DUP1 PUSH2 0x1165 JUMPI PUSH1 0x7F DUP3 AND SWAP2 POP JUMPDEST PUSH1 0x20 DUP3 LT DUP2 SUB PUSH2 0x1178 JUMPI PUSH2 0x1177 PUSH2 0x1121 JUMP JUMPDEST JUMPDEST POP SWAP2 SWAP1 POP JUMP JUMPDEST PUSH32 0x4F6E6C79205061696E74696E674E46542063616E206D696E7400000000000000 PUSH0 DUP3 ADD MSTORE POP JUMP JUMPDEST PUSH0 PUSH2 0x11B2 PUSH1 0x19 DUP4 PUSH2 0xE42 JUMP JUMPDEST SWAP2 POP PUSH2 0x11BD DUP3 PUSH2 0x117E JUMP JUMPDEST PUSH1 0x20 DUP3 ADD SWAP1 POP SWAP2 SWAP1 POP JUMP JUMPDEST PUSH0 PUSH1 0x20 DUP3 ADD SWAP1 POP DUP2 DUP2 SUB PUSH0 DUP4 ADD MSTORE PUSH2 0x11DF DUP2 PUSH2 0x11A6 JUMP JUMPDEST SWAP1 POP SWAP2 SWAP1 POP JUMP JUMPDEST PUSH0 PUSH1 0x60 DUP3 ADD SWAP1 POP PUSH2 0x11F9 PUSH0 DUP4 ADD DUP7 PUSH2 0xFE4 JUMP JUMPDEST PUSH2 0x1206 PUSH1 0x20 DUP4 ADD DUP6 PUSH2 0x100C JUMP JUMPDEST PUSH2 0x1213 PUSH1 0x40 DUP4 ADD DUP5 PUSH2 0x100C JUMP JUMPDEST SWAP5 SWAP4 POP POP POP POP JUMP JUMPDEST PUSH32 0x4E487B7100000000000000000000000000000000000000000000000000000000 PUSH0 MSTORE PUSH1 0x11 PUSH1 0x4 MSTORE PUSH1 0x24 PUSH0 REVERT JUMPDEST PUSH0 PUSH2 0x1252 DUP3 PUSH2 0xF40 JUMP JUMPDEST SWAP2 POP PUSH2 0x125D DUP4 PUSH2 0xF40 JUMP JUMPDEST SWAP3 POP DUP3 DUP3 ADD SWAP1 POP DUP1 DUP3 GT ISZERO PUSH2 0x1275 JUMPI PUSH2 0x1274 PUSH2 0x121B JUMP JUMPDEST JUMPDEST SWAP3 SWAP2 POP POP JUMP INVALID LOG2 PUSH5 0x6970667358 0x22 SLT KECCAK256 DUP5 DUP4 0x27 0xF 0xE0 SWAP10 PUSH16 0x644D0185782CB66FCDED4EB5299EB50D 0xD2 0x29 JUMP 0xC2 XOR SSTORE MSTORE 0xB0 0xF8 PUSH5 0x736F6C6343 STOP ADDMOD EQ STOP CALLER LOG2 PUSH5 0x6970667358 0x22 SLT KECCAK256 ADDMOD PUSH11 0x94B4B69DF9DE9CE18F4CAE PUSH6 0x7D86D640D6C6 0xCA 0xAC 0xC6 0x22 0xB9 0xC9 PUSH31 0xF32C563E1764736F6C63430008140033000000000000000000000000000000 "
		},
		"gasEstimates": {
			"creation": {
				"codeDepositCost": "2367600",
				"executionCost": "infinite",
				"totalCost": "infinite"
			},
			"external": {
				"createSharesForPainting(uint256,address,address,address,address,uint256,uint256,uint256)": "infinite",
				"owner()": "2559",
				"paintingNFTContract()": "2508",
				"renounceOwnership()": "infinite",
				"setPaintingNFTContract(address)": "infinite",
				"transferOwnership(address)": "infinite"
			},
			"internal": {
				"_calculateShares(address,address,address,address,uint256,uint256,uint256)": "infinite",
				"_createSharesContract(uint256)": "infinite",
				"_distributeShares(address,struct PaintingSharesFactory.ShareDistribution memory)": "infinite",
				"_toString(uint256)": "infinite"
			}
		},
		"methodIdentifiers": {
			"createSharesForPainting(uint256,address,address,address,address,uint256,uint256,uint256)": "17ba1245",
			"owner()": "8da5cb5b",
			"paintingNFTContract()": "277b9efe",
			"renounceOwnership()": "715018a6",
			"setPaintingNFTContract(address)": "ad324cce",
			"transferOwnership(address)": "f2fde38b"
		}
	},
	"abi": [
		{
			"inputs": [
				{
					"internalType": "address",
					"name": "_paintingNFTContract",
					"type": "address"
				},
				{
					"internalType": "address",
					"name": "initialOwner",
					"type": "address"
				}
			],
			"stateMutability": "nonpayable",
			"type": "constructor"
		},
		{
			"inputs": [
				{
					"internalType": "address",
					"name": "owner",
					"type": "address"
				}
			],
			"name": "OwnableInvalidOwner",
			"type": "error"
		},
		{
			"inputs": [
				{
					"internalType": "address",
					"name": "account",
					"type": "address"
				}
			],
			"name": "OwnableUnauthorizedAccount",
			"type": "error"
		},
		{
			"anonymous": false,
			"inputs": [
				{
					"indexed": true,
					"internalType": "address",
					"name": "previousOwner",
					"type": "address"
				},
				{
					"indexed": true,
					"internalType": "address",
					"name": "newOwner",
					"type": "address"
				}
			],
			"name": "OwnershipTransferred",
			"type": "event"
		},
		{
			"anonymous": false,
			"inputs": [
				{
					"indexed": true,
					"internalType": "uint256",
					"name": "paintingId",
					"type": "uint256"
				},
				{
					"indexed": false,
					"internalType": "address",
					"name": "sharesContract",
					"type": "address"
				},
				{
					"indexed": false,
					"internalType": "uint256",
					"name": "platformShares",
					"type": "uint256"
				},
				{
					"indexed": false,
					"internalType": "uint256",
					"name": "wallOwnerShares",
					"type": "uint256"
				},
				{
					"indexed": false,
					"internalType": "uint256",
					"name": "galleryOwnerShares",
					"type": "uint256"
				},
				{
					"indexed": false,
					"internalType": "uint256",
					"name": "painterShares",
					"type": "uint256"
				}
			],
			"name": "SharesCreated",
			"type": "event"
		},
		{
			"inputs": [
				{
					"internalType": "uint256",
					"name": "paintingId",
					"type": "uint256"
				},
				{
					"internalType": "address",
					"name": "platformAdmin",
					"type": "address"
				},
				{
					"internalType": "address",
					"name": "wallOwner",
					"type": "address"
				},
				{
					"internalType": "address",
					"name": "galleryOwner",
					"type": "address"
				},
				{
					"internalType": "address",
					"name": "painter",
					"type": "address"
				},
				{
					"internalType": "uint256",
					"name": "platformPercentage",
					"type": "uint256"
				},
				{
					"internalType": "uint256",
					"name": "wallOwnerPercentage",
					"type": "uint256"
				},
				{
					"internalType": "uint256",
					"name": "galleryOwnerPercentage",
					"type": "uint256"
				}
			],
			"name": "createSharesForPainting",
			"outputs": [
				{
					"internalType": "address",
					"name": "",
					"type": "address"
				}
			],
			"stateMutability": "nonpayable",
			"type": "function"
		},
		{
			"inputs": [],
			"name": "owner",
			"outputs": [
				{
					"internalType": "address",
					"name": "",
					"type": "address"
				}
			],
			"stateMutability": "view",
			"type": "function"
		},
		{
			"inputs": [],
			"name": "paintingNFTContract",
			"outputs": [
				{
					"internalType": "address",
					"name": "",
					"type": "address"
				}
			],
			"stateMutability": "view",
			"type": "function"
		},
		{
			"inputs": [],
			"name": "renounceOwnership",
			"outputs": [],
			"stateMutability": "nonpayable",
			"type": "function"
		},
		{
			"inputs": [
				{
					"internalType": "address",
					"name": "_newAddress",
					"type": "address"
				}
			],
			"name": "setPaintingNFTContract",
			"outputs": [],
			"stateMutability": "nonpayable",
			"type": "function"
		},
		{
			"inputs": [
				{
					"internalType": "address",
					"name": "newOwner",
					"type": "address"
				}
			],
			"name": "transferOwnership",
			"outputs": [],
			"stateMutability": "nonpayable",
			"type": "function"
		}
	]
}