{
	"data": {
		"bytecode": {
			"linkReferences": {},
			"object": "60ba61004d600b8282823980515f1a607314610041577f4e487b71000000000000000000000000000000000000000000000000000000005f525f60045260245ffd5b305f52607381538281f3fe73000000000000000000000000000000000000000030146080604052600436106032575f3560e01c806385e3f997146036575b5f80fd5b603c6050565b60405160479190606d565b60405180910390f35b620186a081565b5f819050919050565b6067816057565b82525050565b5f602082019050607e5f8301846060565b9291505056fea2646970667358221220382b61d4fe35a7ffa15f817e9236d4ef49d9ddec7636313d4439c419bb7392fc64736f6c63430008140033",
			"opcodes": "PUSH1 0xBA PUSH2 0x4D PUSH1 0xB DUP3 DUP3 DUP3 CODECOPY DUP1 MLOAD PUSH0 BYTE PUSH1 0x73 EQ PUSH2 0x41 JUMPI PUSH32 0x4E487B7100000000000000000000000000000000000000000000000000000000 PUSH0 MSTORE PUSH0 PUSH1 0x4 MSTORE PUSH1 0x24 PUSH0 REVERT JUMPDEST ADDRESS PUSH0 MSTORE PUSH1 0x73 DUP2 MSTORE8 DUP3 DUP2 RETURN INVALID PUSH20 0x0 ADDRESS EQ PUSH1 0x80 PUSH1 0x40 MSTORE PUSH1 0x4 CALLDATASIZE LT PUSH1 0x32 JUMPI PUSH0 CALLDATALOAD PUSH1 0xE0 SHR DUP1 PUSH4 0x85E3F997 EQ PUSH1 0x36 JUMPI JUMPDEST PUSH0 DUP1 REVERT JUMPDEST PUSH1 0x3C PUSH1 0x50 JUMP JUMPDEST PUSH1 0x40 MLOAD PUSH1 0x47 SWAP2 SWAP1 PUSH1 0x6D JUMP JUMPDEST PUSH1 0x40 MLOAD DUP1 SWAP2 SUB SWAP1 RETURN JUMPDEST PUSH3 0x186A0 DUP2 JUMP JUMPDEST PUSH0 DUP2 SWAP1 POP SWAP2 SWAP1 POP JUMP JUMPDEST PUSH1 0x67 DUP2 PUSH1 0x57 JUMP JUMPDEST DUP3 MSTORE POP POP JUMP JUMPDEST PUSH0 PUSH1 0x20 DUP3 ADD SWAP1 POP PUSH1 0x7E PUSH0 DUP4 ADD DUP5 PUSH1 0x60 JUMP JUMPDEST SWAP3 SWAP2 POP POP JUMP INVALID LOG2 PUSH5 0x6970667358 0x22 SLT KECCAK256 CODESIZE 0x2B PUSH2 0xD4FE CALLDATALOAD 0xA7 SELFDESTRUCT LOG1 PUSH0 DUP2 PUSH31 0x9236D4EF49D9DDEC7636313D4439C419BB7392FC64736F6C63430008140033 "
		},
		"gasEstimates": {
			"creation": {
				"codeDepositCost": "37200",
				"executionCost": "113",
				"totalCost": "37313"
			},
			"external": {
				"TOTAL_SHARES()": "287"
			}
		},
		"methodIdentifiers": {
			"TOTAL_SHARES()": "85e3f997"
		}
	},
	"abi": [
		{
			"inputs": [],
			"name": "TOTAL_SHARES",
			"outputs": [
				{
					"internalType": "uint256",
					"name": "",
					"type": "uint256"
				}
			],
			"stateMutability": "view",
			"type": "function"
		}
	]
}