{
	"Proofication/DocumentAudit.sol": {
		"DocumentAudit": {
			"abi": [
				{
					"inputs": [
						{
							"internalType": "address",
							"name": "trustedForwarder",
							"type": "address"
						}
					],
					"stateMutability": "nonpayable",
					"type": "constructor"
				},
				{
					"inputs": [
						{
							"internalType": "address",
							"name": "owner",
							"type": "address"
						}
					],
					"name": "OwnableInvalidOwner",
					"type": "error"
				},
				{
					"inputs": [
						{
							"internalType": "address",
							"name": "account",
							"type": "address"
						}
					],
					"name": "OwnableUnauthorizedAccount",
					"type": "error"
				},
				{
					"anonymous": false,
					"inputs": [
						{
							"indexed": true,
							"internalType": "bytes32",
							"name": "documentHash",
							"type": "bytes32"
						},
						{
							"indexed": true,
							"internalType": "address",
							"name": "owner",
							"type": "address"
						},
						{
							"indexed": false,
							"internalType": "string",
							"name": "registrantName",
							"type": "string"
						},
						{
							"indexed": false,
							"internalType": "string",
							"name": "organization",
							"type": "string"
						},
						{
							"indexed": false,
							"internalType": "string",
							"name": "identifier",
							"type": "string"
						},
						{
							"indexed": false,
							"internalType": "bool",
							"name": "isGasless",
							"type": "bool"
						}
					],
					"name": "DocumentRegistered",
					"type": "event"
				},
				{
					"anonymous": false,
					"inputs": [
						{
							"indexed": true,
							"internalType": "address",
							"name": "previousOwner",
							"type": "address"
						},
						{
							"indexed": true,
							"internalType": "address",
							"name": "newOwner",
							"type": "address"
						}
					],
					"name": "OwnershipTransferred",
					"type": "event"
				},
				{
					"anonymous": false,
					"inputs": [
						{
							"indexed": true,
							"internalType": "bytes32",
							"name": "documentHash",
							"type": "bytes32"
						},
						{
							"indexed": true,
							"internalType": "address",
							"name": "oldOwner",
							"type": "address"
						},
						{
							"indexed": true,
							"internalType": "address",
							"name": "newOwner",
							"type": "address"
						}
					],
					"name": "OwnershipTransferred",
					"type": "event"
				},
				{
					"anonymous": false,
					"inputs": [
						{
							"indexed": false,
							"internalType": "address",
							"name": "account",
							"type": "address"
						}
					],
					"name": "Paused",
					"type": "event"
				},
				{
					"anonymous": false,
					"inputs": [
						{
							"indexed": false,
							"internalType": "address",
							"name": "account",
							"type": "address"
						}
					],
					"name": "Unpaused",
					"type": "event"
				},
				{
					"inputs": [
						{
							"internalType": "bytes32",
							"name": "documentHash",
							"type": "bytes32"
						}
					],
					"name": "getDocumentDetails",
					"outputs": [
						{
							"internalType": "address",
							"name": "owner",
							"type": "address"
						},
						{
							"internalType": "uint256",
							"name": "timestamp",
							"type": "uint256"
						},
						{
							"internalType": "string",
							"name": "registrantName",
							"type": "string"
						},
						{
							"internalType": "string",
							"name": "organization",
							"type": "string"
						},
						{
							"internalType": "string",
							"name": "identifier",
							"type": "string"
						},
						{
							"internalType": "bool",
							"name": "isGasless",
							"type": "bool"
						}
					],
					"stateMutability": "view",
					"type": "function"
				},
				{
					"inputs": [
						{
							"internalType": "bytes32",
							"name": "documentHash",
							"type": "bytes32"
						}
					],
					"name": "getDocumentOwner",
					"outputs": [
						{
							"internalType": "address",
							"name": "",
							"type": "address"
						}
					],
					"stateMutability": "view",
					"type": "function"
				},
				{
					"inputs": [
						{
							"internalType": "bytes32",
							"name": "documentHash",
							"type": "bytes32"
						}
					],
					"name": "getDocumentTimestamp",
					"outputs": [
						{
							"internalType": "uint256",
							"name": "",
							"type": "uint256"
						}
					],
					"stateMutability": "view",
					"type": "function"
				},
				{
					"inputs": [
						{
							"internalType": "bytes32",
							"name": "documentHash",
							"type": "bytes32"
						}
					],
					"name": "isDocumentRegistered",
					"outputs": [
						{
							"internalType": "bool",
							"name": "",
							"type": "bool"
						}
					],
					"stateMutability": "view",
					"type": "function"
				},
				{
					"inputs": [
						{
							"internalType": "address",
							"name": "forwarder",
							"type": "address"
						}
					],
					"name": "isTrustedForwarder",
					"outputs": [
						{
							"internalType": "bool",
							"name": "",
							"type": "bool"
						}
					],
					"stateMutability": "view",
					"type": "function"
				},
				{
					"inputs": [],
					"name": "owner",
					"outputs": [
						{
							"internalType": "address",
							"name": "",
							"type": "address"
						}
					],
					"stateMutability": "view",
					"type": "function"
				},
				{
					"inputs": [],
					"name": "pauseContract",
					"outputs": [],
					"stateMutability": "nonpayable",
					"type": "function"
				},
				{
					"inputs": [],
					"name": "paused",
					"outputs": [
						{
							"internalType": "bool",
							"name": "",
							"type": "bool"
						}
					],
					"stateMutability": "view",
					"type": "function"
				},
				{
					"inputs": [
						{
							"internalType": "bytes32",
							"name": "documentHash",
							"type": "bytes32"
						},
						{
							"internalType": "string",
							"name": "registrantName",
							"type": "string"
						},
						{
							"internalType": "string",
							"name": "organization",
							"type": "string"
						},
						{
							"internalType": "string",
							"name": "identifier",
							"type": "string"
						},
						{
							"internalType": "bool",
							"name": "useGasless",
							"type": "bool"
						}
					],
					"name": "registerDocument",
					"outputs": [],
					"stateMutability": "nonpayable",
					"type": "function"
				},
				{
					"inputs": [
						{
							"internalType": "bytes32",
							"name": "documentHash",
							"type": "bytes32"
						},
						{
							"internalType": "string",
							"name": "registrantName",
							"type": "string"
						},
						{
							"internalType": "string",
							"name": "organization",
							"type": "string"
						},
						{
							"internalType": "string",
							"name": "identifier",
							"type": "string"
						}
					],
					"name": "registerDocumentGasless",
					"outputs": [],
					"stateMutability": "nonpayable",
					"type": "function"
				},
				{
					"inputs": [
						{
							"internalType": "bytes32",
							"name": "documentHash",
							"type": "bytes32"
						},
						{
							"internalType": "string",
							"name": "registrantName",
							"type": "string"
						},
						{
							"internalType": "string",
							"name": "organization",
							"type": "string"
						},
						{
							"internalType": "string",
							"name": "identifier",
							"type": "string"
						}
					],
					"name": "registerDocumentWithGas",
					"outputs": [],
					"stateMutability": "nonpayable",
					"type": "function"
				},
				{
					"inputs": [],
					"name": "renounceOwnership",
					"outputs": [],
					"stateMutability": "nonpayable",
					"type": "function"
				},
				{
					"inputs": [
						{
							"internalType": "bytes32",
							"name": "documentHash",
							"type": "bytes32"
						},
						{
							"internalType": "address",
							"name": "newOwner",
							"type": "address"
						},
						{
							"internalType": "bool",
							"name": "useGasless",
							"type": "bool"
						}
					],
					"name": "transferDocumentOwnership",
					"outputs": [],
					"stateMutability": "nonpayable",
					"type": "function"
				},
				{
					"inputs": [
						{
							"internalType": "address",
							"name": "newOwner",
							"type": "address"
						}
					],
					"name": "transferOwnership",
					"outputs": [],
					"stateMutability": "nonpayable",
					"type": "function"
				},
				{
					"inputs": [],
					"name": "trustedForwarder",
					"outputs": [
						{
							"internalType": "address",
							"name": "",
							"type": "address"
						}
					],
					"stateMutability": "view",
					"type": "function"
				},
				{
					"inputs": [],
					"name": "unpauseContract",
					"outputs": [],
					"stateMutability": "nonpayable",
					"type": "function"
				},
				{
					"inputs": [
						{
							"internalType": "bytes32",
							"name": "documentHash",
							"type": "bytes32"
						}
					],
					"name": "verifyDocument",
					"outputs": [
						{
							"internalType": "bool",
							"name": "",
							"type": "bool"
						}
					],
					"stateMutability": "view",
					"type": "function"
				}
			],
			"devdoc": {
				"errors": {
					"OwnableInvalidOwner(address)": [
						{
							"details": "The owner is not a valid owner account. (eg. `address(0)`)"
						}
					],
					"OwnableUnauthorizedAccount(address)": [
						{
							"details": "The caller account is not authorized to perform an operation."
						}
					]
				},
				"events": {
					"Paused(address)": {
						"details": "Emitted when the pause is triggered by `account`."
					},
					"Unpaused(address)": {
						"details": "Emitted when the pause is lifted by `account`."
					}
				},
				"kind": "dev",
				"methods": {
					"isTrustedForwarder(address)": {
						"details": "Indicates whether any particular address is the trusted forwarder."
					},
					"owner()": {
						"details": "Returns the address of the current owner."
					},
					"paused()": {
						"details": "Returns true if the contract is paused, and false otherwise."
					},
					"renounceOwnership()": {
						"details": "Leaves the contract without owner. It will not be possible to call `onlyOwner` functions. Can only be called by the current owner. NOTE: Renouncing ownership will leave the contract without an owner, thereby disabling any functionality that is only available to the owner."
					},
					"transferOwnership(address)": {
						"details": "Transfers ownership of the contract to a new account (`newOwner`). Can only be called by the current owner."
					},
					"trustedForwarder()": {
						"details": "Returns the address of the trusted forwarder."
					}
				},
				"version": 1
			},
			"evm": {
				"assembly": "    /* \"Proofication/DocumentAudit.sol\":234:5443  contract DocumentAudit is ERC2771Context, Ownable, Pausable {... */\n  mstore(0x40, 0xa0)\n    /* \"Proofication/DocumentAudit.sol\":984:1105  constructor(address trustedForwarder) ... */\n  callvalue\n  dup1\n  iszero\n  tag_1\n  jumpi\n  0x00\n  dup1\n  revert\ntag_1:\n  pop\n  mload(0x40)\n  sub(codesize, bytecodeSize)\n  dup1\n  bytecodeSize\n  dup4\n  codecopy\n  dup2\n  dup2\n  add\n  0x40\n  mstore\n  dup2\n  add\n  swap1\n  tag_2\n  swap2\n  swap1\n  tag_3\n  jump\t// in\ntag_2:\n    /* \"Proofication/DocumentAudit.sol\":1083:1095  _msgSender() */\n  tag_6\n    /* \"Proofication/DocumentAudit.sol\":1083:1093  _msgSender */\n  shl(0x20, tag_7)\n    /* \"Proofication/DocumentAudit.sol\":1083:1095  _msgSender() */\n  0x20\n  shr\n  jump\t// in\ntag_6:\n    /* \"Proofication/DocumentAudit.sol\":1047:1063  trustedForwarder */\n  dup2\n    /* \"@openzeppelin/contracts/metatx/ERC2771Context.sol\":1520:1537  trustedForwarder_ */\n  dup1\n    /* \"@openzeppelin/contracts/metatx/ERC2771Context.sol\":1500:1537  _trustedForwarder = trustedForwarder_ */\n  0xffffffffffffffffffffffffffffffffffffffff\n  and\n  0x80\n  dup2\n  0xffffffffffffffffffffffffffffffffffffffff\n  and\n  dup2\n  mstore\n  pop\n  pop\n    /* \"@openzeppelin/contracts/metatx/ERC2771Context.sol\":1451:1544  constructor(address trustedForwarder_) {... */\n  pop\n    /* \"@openzeppelin/contracts/access/Ownable.sol\":1297:1298  0 */\n  0x00\n    /* \"@openzeppelin/contracts/access/Ownable.sol\":1273:1299  initialOwner == address(0) */\n  0xffffffffffffffffffffffffffffffffffffffff\n  and\n    /* \"@openzeppelin/contracts/access/Ownable.sol\":1273:1285  initialOwner */\n  dup2\n    /* \"@openzeppelin/contracts/access/Ownable.sol\":1273:1299  initialOwner == address(0) */\n  0xffffffffffffffffffffffffffffffffffffffff\n  and\n  sub\n    /* \"@openzeppelin/contracts/access/Ownable.sol\":1269:1364  if (initialOwner == address(0)) {... */\n  tag_12\n  jumpi\n    /* \"@openzeppelin/contracts/access/Ownable.sol\":1350:1351  0 */\n  0x00\n    /* \"@openzeppelin/contracts/access/Ownable.sol\":1322:1353  OwnableInvalidOwner(address(0)) */\n  mload(0x40)\n  0x1e4fbdf700000000000000000000000000000000000000000000000000000000\n  dup2\n  mstore\n  0x04\n  add\n  tag_13\n  swap2\n  swap1\n  tag_14\n  jump\t// in\ntag_13:\n  mload(0x40)\n  dup1\n  swap2\n  sub\n  swap1\n  revert\n    /* \"@openzeppelin/contracts/access/Ownable.sol\":1269:1364  if (initialOwner == address(0)) {... */\ntag_12:\n    /* \"@openzeppelin/contracts/access/Ownable.sol\":1373:1405  _transferOwnership(initialOwner) */\n  tag_15\n    /* \"@openzeppelin/contracts/access/Ownable.sol\":1392:1404  initialOwner */\n  dup2\n    /* \"@openzeppelin/contracts/access/Ownable.sol\":1373:1391  _transferOwnership */\n  shl(0x20, tag_16)\n    /* \"@openzeppelin/contracts/access/Ownable.sol\":1373:1405  _transferOwnership(initialOwner) */\n  0x20\n  shr\n  jump\t// in\ntag_15:\n    /* \"@openzeppelin/contracts/access/Ownable.sol\":1225:1412  constructor(address initialOwner) {... */\n  pop\n    /* \"@openzeppelin/contracts/security/Pausable.sol\":1006:1011  false */\n  0x00\n    /* \"@openzeppelin/contracts/security/Pausable.sol\":996:1003  _paused */\n  dup1\n  0x14\n    /* \"@openzeppelin/contracts/security/Pausable.sol\":996:1011  _paused = false */\n  0x0100\n  exp\n  dup2\n  sload\n  dup2\n  0xff\n  mul\n  not\n  and\n  swap1\n  dup4\n  iszero\n  iszero\n  mul\n  or\n  swap1\n  sstore\n  pop\n    /* \"Proofication/DocumentAudit.sol\":984:1105  constructor(address trustedForwarder) ... */\n  pop\n    /* \"Proofication/DocumentAudit.sol\":234:5443  contract DocumentAudit is ERC2771Context, Ownable, Pausable {... */\n  jump(tag_19)\n    /* \"Proofication/DocumentAudit.sol\":4960:5110  function _msgSender() internal view override(Context, ERC2771Context)... */\ntag_7:\n    /* \"Proofication/DocumentAudit.sol\":5048:5055  address */\n  0x00\n    /* \"Proofication/DocumentAudit.sol\":5075:5102  ERC2771Context._msgSender() */\n  tag_21\n    /* \"Proofication/DocumentAudit.sol\":5075:5100  ERC2771Context._msgSender */\n  shl(0x20, tag_22)\n    /* \"Proofication/DocumentAudit.sol\":5075:5102  ERC2771Context._msgSender() */\n  0x20\n  shr\n  jump\t// in\ntag_21:\n    /* \"Proofication/DocumentAudit.sol\":5068:5102  return ERC2771Context._msgSender() */\n  swap1\n  pop\n    /* \"Proofication/DocumentAudit.sol\":4960:5110  function _msgSender() internal view override(Context, ERC2771Context)... */\n  swap1\n  jump\t// out\n    /* \"@openzeppelin/contracts/access/Ownable.sol\":2912:3099  function _transferOwnership(address newOwner) internal virtual {... */\ntag_16:\n    /* \"@openzeppelin/contracts/access/Ownable.sol\":2985:3001  address oldOwner */\n  0x00\n    /* \"@openzeppelin/contracts/access/Ownable.sol\":3004:3010  _owner */\n  dup1\n  0x00\n  swap1\n  sload\n  swap1\n  0x0100\n  exp\n  swap1\n  div\n  0xffffffffffffffffffffffffffffffffffffffff\n  and\n    /* \"@openzeppelin/contracts/access/Ownable.sol\":2985:3010  address oldOwner = _owner */\n  swap1\n  pop\n    /* \"@openzeppelin/contracts/access/Ownable.sol\":3029:3037  newOwner */\n  dup2\n    /* \"@openzeppelin/contracts/access/Ownable.sol\":3020:3026  _owner */\n  0x00\n  dup1\n    /* \"@openzeppelin/contracts/access/Ownable.sol\":3020:3037  _owner = newOwner */\n  0x0100\n  exp\n  dup2\n  sload\n  dup2\n  0xffffffffffffffffffffffffffffffffffffffff\n  mul\n  not\n  and\n  swap1\n  dup4\n  0xffffffffffffffffffffffffffffffffffffffff\n  and\n  mul\n  or\n  swap1\n  sstore\n  pop\n    /* \"@openzeppelin/contracts/access/Ownable.sol\":3083:3091  newOwner */\n  dup2\n    /* \"@openzeppelin/contracts/access/Ownable.sol\":3052:3092  OwnershipTransferred(oldOwner, newOwner) */\n  0xffffffffffffffffffffffffffffffffffffffff\n  and\n    /* \"@openzeppelin/contracts/access/Ownable.sol\":3073:3081  oldOwner */\n  dup2\n    /* \"@openzeppelin/contracts/access/Ownable.sol\":3052:3092  OwnershipTransferred(oldOwner, newOwner) */\n  0xffffffffffffffffffffffffffffffffffffffff\n  and\n  0x8be0079c531659141344cd1fd0a4f28419497f9722a3daafe3b4186f6b6457e0\n  mload(0x40)\n  mload(0x40)\n  dup1\n  swap2\n  sub\n  swap1\n  log3\n    /* \"@openzeppelin/contracts/access/Ownable.sol\":2975:3099  {... */\n  pop\n    /* \"@openzeppelin/contracts/access/Ownable.sol\":2912:3099  function _transferOwnership(address newOwner) internal virtual {... */\n  pop\n  jump\t// out\n    /* \"@openzeppelin/contracts/metatx/ERC2771Context.sol\":2206:2635  function _msgSender() internal view virtual override returns (address) {... */\ntag_22:\n    /* \"@openzeppelin/contracts/metatx/ERC2771Context.sol\":2268:2275  address */\n  0x00\n    /* \"@openzeppelin/contracts/metatx/ERC2771Context.sol\":2287:2309  uint256 calldataLength */\n  dup1\n    /* \"@openzeppelin/contracts/metatx/ERC2771Context.sol\":2312:2320  msg.data */\n  0x00\n  calldatasize\n    /* \"@openzeppelin/contracts/metatx/ERC2771Context.sol\":2312:2327  msg.data.length */\n  swap1\n  pop\n    /* \"@openzeppelin/contracts/metatx/ERC2771Context.sol\":2287:2327  uint256 calldataLength = msg.data.length */\n  swap1\n  pop\n    /* \"@openzeppelin/contracts/metatx/ERC2771Context.sol\":2337:2364  uint256 contextSuffixLength */\n  0x00\n    /* \"@openzeppelin/contracts/metatx/ERC2771Context.sol\":2367:2389  _contextSuffixLength() */\n  tag_25\n    /* \"@openzeppelin/contracts/metatx/ERC2771Context.sol\":2367:2387  _contextSuffixLength */\n  shl(0x20, tag_26)\n    /* \"@openzeppelin/contracts/metatx/ERC2771Context.sol\":2367:2389  _contextSuffixLength() */\n  0x20\n  shr\n  jump\t// in\ntag_25:\n    /* \"@openzeppelin/contracts/metatx/ERC2771Context.sol\":2337:2389  uint256 contextSuffixLength = _contextSuffixLength() */\n  swap1\n  pop\n    /* \"@openzeppelin/contracts/metatx/ERC2771Context.sol\":2403:2433  isTrustedForwarder(msg.sender) */\n  tag_27\n    /* \"@openzeppelin/contracts/metatx/ERC2771Context.sol\":2422:2432  msg.sender */\n  caller\n    /* \"@openzeppelin/contracts/metatx/ERC2771Context.sol\":2403:2421  isTrustedForwarder */\n  shl(0x20, tag_28)\n    /* \"@openzeppelin/contracts/metatx/ERC2771Context.sol\":2403:2433  isTrustedForwarder(msg.sender) */\n  0x20\n  shr\n  jump\t// in\ntag_27:\n    /* \"@openzeppelin/contracts/metatx/ERC2771Context.sol\":2403:2474  isTrustedForwarder(msg.sender) && calldataLength >= contextSuffixLength */\n  dup1\n  iszero\n  tag_29\n  jumpi\n  pop\n    /* \"@openzeppelin/contracts/metatx/ERC2771Context.sol\":2455:2474  contextSuffixLength */\n  dup1\n    /* \"@openzeppelin/contracts/metatx/ERC2771Context.sol\":2437:2451  calldataLength */\n  dup3\n    /* \"@openzeppelin/contracts/metatx/ERC2771Context.sol\":2437:2474  calldataLength >= contextSuffixLength */\n  lt\n  iszero\n    /* \"@openzeppelin/contracts/metatx/ERC2771Context.sol\":2403:2474  isTrustedForwarder(msg.sender) && calldataLength >= contextSuffixLength */\ntag_29:\n    /* \"@openzeppelin/contracts/metatx/ERC2771Context.sol\":2399:2629  if (isTrustedForwarder(msg.sender) && calldataLength >= contextSuffixLength) {... */\n  iszero\n  tag_30\n  jumpi\n    /* \"@openzeppelin/contracts/metatx/ERC2771Context.sol\":2513:2521  msg.data */\n  0x00\n  calldatasize\n    /* \"@openzeppelin/contracts/metatx/ERC2771Context.sol\":2539:2558  contextSuffixLength */\n  dup3\n    /* \"@openzeppelin/contracts/metatx/ERC2771Context.sol\":2522:2536  calldataLength */\n  dup5\n    /* \"@openzeppelin/contracts/metatx/ERC2771Context.sol\":2522:2558  calldataLength - contextSuffixLength */\n  tag_31\n  swap2\n  swap1\n  tag_32\n  jump\t// in\ntag_31:\n    /* \"@openzeppelin/contracts/metatx/ERC2771Context.sol\":2513:2560  msg.data[calldataLength - contextSuffixLength:] */\n  swap1\n  dup1\n  swap3\n  tag_33\n  swap4\n  swap3\n  swap2\n  swap1\n  tag_34\n  jump\t// in\ntag_33:\n    /* \"@openzeppelin/contracts/metatx/ERC2771Context.sol\":2505:2561  bytes20(msg.data[calldataLength - contextSuffixLength:]) */\n  swap1\n  tag_35\n  swap2\n  swap1\n  tag_36\n  jump\t// in\ntag_35:\n    /* \"@openzeppelin/contracts/metatx/ERC2771Context.sol\":2497:2562  address(bytes20(msg.data[calldataLength - contextSuffixLength:])) */\n  0x60\n  shr\n    /* \"@openzeppelin/contracts/metatx/ERC2771Context.sol\":2490:2562  return address(bytes20(msg.data[calldataLength - contextSuffixLength:])) */\n  swap3\n  pop\n  pop\n  pop\n  jump(tag_24)\n    /* \"@openzeppelin/contracts/metatx/ERC2771Context.sol\":2399:2629  if (isTrustedForwarder(msg.sender) && calldataLength >= contextSuffixLength) {... */\ntag_30:\n    /* \"@openzeppelin/contracts/metatx/ERC2771Context.sol\":2600:2618  super._msgSender() */\n  tag_38\n    /* \"@openzeppelin/contracts/metatx/ERC2771Context.sol\":2600:2616  super._msgSender */\n  shl(0x20, tag_39)\n    /* \"@openzeppelin/contracts/metatx/ERC2771Context.sol\":2600:2618  super._msgSender() */\n  0x20\n  shr\n  jump\t// in\ntag_38:\n    /* \"@openzeppelin/contracts/metatx/ERC2771Context.sol\":2593:2618  return super._msgSender() */\n  swap3\n  pop\n  pop\n  pop\n    /* \"@openzeppelin/contracts/metatx/ERC2771Context.sol\":2206:2635  function _msgSender() internal view virtual override returns (address) {... */\ntag_24:\n  swap1\n  jump\t// out\n    /* \"Proofication/DocumentAudit.sol\":5279:5440  function _contextSuffixLength() internal view override(Context, ERC2771Context) returns (uint256) {... */\ntag_26:\n    /* \"Proofication/DocumentAudit.sol\":5368:5375  uint256 */\n  0x00\n    /* \"Proofication/DocumentAudit.sol\":5395:5432  ERC2771Context._contextSuffixLength() */\n  tag_41\n    /* \"Proofication/DocumentAudit.sol\":5395:5430  ERC2771Context._contextSuffixLength */\n  shl(0x20, tag_42)\n    /* \"Proofication/DocumentAudit.sol\":5395:5432  ERC2771Context._contextSuffixLength() */\n  0x20\n  shr\n  jump\t// in\ntag_41:\n    /* \"Proofication/DocumentAudit.sol\":5388:5432  return ERC2771Context._contextSuffixLength() */\n  swap1\n  pop\n    /* \"Proofication/DocumentAudit.sol\":5279:5440  function _contextSuffixLength() internal view override(Context, ERC2771Context) returns (uint256) {... */\n  swap1\n  jump\t// out\n    /* \"@openzeppelin/contracts/metatx/ERC2771Context.sol\":1832:1969  function isTrustedForwarder(address forwarder) public view virtual returns (bool) {... */\ntag_28:\n    /* \"@openzeppelin/contracts/metatx/ERC2771Context.sol\":1908:1912  bool */\n  0x00\n    /* \"@openzeppelin/contracts/metatx/ERC2771Context.sol\":1944:1962  trustedForwarder() */\n  tag_44\n    /* \"@openzeppelin/contracts/metatx/ERC2771Context.sol\":1944:1960  trustedForwarder */\n  shl(0x20, tag_45)\n    /* \"@openzeppelin/contracts/metatx/ERC2771Context.sol\":1944:1962  trustedForwarder() */\n  0x20\n  shr\n  jump\t// in\ntag_44:\n    /* \"@openzeppelin/contracts/metatx/ERC2771Context.sol\":1931:1962  forwarder == trustedForwarder() */\n  0xffffffffffffffffffffffffffffffffffffffff\n  and\n    /* \"@openzeppelin/contracts/metatx/ERC2771Context.sol\":1931:1940  forwarder */\n  dup3\n    /* \"@openzeppelin/contracts/metatx/ERC2771Context.sol\":1931:1962  forwarder == trustedForwarder() */\n  0xffffffffffffffffffffffffffffffffffffffff\n  and\n  eq\n    /* \"@openzeppelin/contracts/metatx/ERC2771Context.sol\":1924:1962  return forwarder == trustedForwarder() */\n  swap1\n  pop\n    /* \"@openzeppelin/contracts/metatx/ERC2771Context.sol\":1832:1969  function isTrustedForwarder(address forwarder) public view virtual returns (bool) {... */\n  swap2\n  swap1\n  pop\n  jump\t// out\n    /* \"@openzeppelin/contracts/utils/Context.sol\":656:752  function _msgSender() internal view virtual returns (address) {... */\ntag_39:\n    /* \"@openzeppelin/contracts/utils/Context.sol\":709:716  address */\n  0x00\n    /* \"@openzeppelin/contracts/utils/Context.sol\":735:745  msg.sender */\n  caller\n    /* \"@openzeppelin/contracts/utils/Context.sol\":728:745  return msg.sender */\n  swap1\n  pop\n    /* \"@openzeppelin/contracts/utils/Context.sol\":656:752  function _msgSender() internal view virtual returns (address) {... */\n  swap1\n  jump\t// out\n    /* \"@openzeppelin/contracts/metatx/ERC2771Context.sol\":3385:3492  function _contextSuffixLength() internal view virtual override returns (uint256) {... */\ntag_42:\n    /* \"@openzeppelin/contracts/metatx/ERC2771Context.sol\":3457:3464  uint256 */\n  0x00\n    /* \"@openzeppelin/contracts/metatx/ERC2771Context.sol\":3483:3485  20 */\n  0x14\n    /* \"@openzeppelin/contracts/metatx/ERC2771Context.sol\":3476:3485  return 20 */\n  swap1\n  pop\n    /* \"@openzeppelin/contracts/metatx/ERC2771Context.sol\":3385:3492  function _contextSuffixLength() internal view virtual override returns (uint256) {... */\n  swap1\n  jump\t// out\n    /* \"@openzeppelin/contracts/metatx/ERC2771Context.sol\":1624:1731  function trustedForwarder() public view virtual returns (address) {... */\ntag_45:\n    /* \"@openzeppelin/contracts/metatx/ERC2771Context.sol\":1681:1688  address */\n  0x00\n    /* \"@openzeppelin/contracts/metatx/ERC2771Context.sol\":1707:1724  _trustedForwarder */\n  mload(0x80)\n    /* \"@openzeppelin/contracts/metatx/ERC2771Context.sol\":1700:1724  return _trustedForwarder */\n  swap1\n  pop\n    /* \"@openzeppelin/contracts/metatx/ERC2771Context.sol\":1624:1731  function trustedForwarder() public view virtual returns (address) {... */\n  swap1\n  jump\t// out\n    /* \"#utility.yul\":88:205   */\ntag_50:\n    /* \"#utility.yul\":197:198   */\n  0x00\n    /* \"#utility.yul\":194:195   */\n  dup1\n    /* \"#utility.yul\":187:199   */\n  revert\n    /* \"#utility.yul\":334:460   */\ntag_52:\n    /* \"#utility.yul\":371:378   */\n  0x00\n    /* \"#utility.yul\":411:453   */\n  0xffffffffffffffffffffffffffffffffffffffff\n    /* \"#utility.yul\":404:409   */\n  dup3\n    /* \"#utility.yul\":400:454   */\n  and\n    /* \"#utility.yul\":389:454   */\n  swap1\n  pop\n    /* \"#utility.yul\":334:460   */\n  swap2\n  swap1\n  pop\n  jump\t// out\n    /* \"#utility.yul\":466:562   */\ntag_53:\n    /* \"#utility.yul\":503:510   */\n  0x00\n    /* \"#utility.yul\":532:556   */\n  tag_71\n    /* \"#utility.yul\":550:555   */\n  dup3\n    /* \"#utility.yul\":532:556   */\n  tag_52\n  jump\t// in\ntag_71:\n    /* \"#utility.yul\":521:556   */\n  swap1\n  pop\n    /* \"#utility.yul\":466:562   */\n  swap2\n  swap1\n  pop\n  jump\t// out\n    /* \"#utility.yul\":568:690   */\ntag_54:\n    /* \"#utility.yul\":641:665   */\n  tag_73\n    /* \"#utility.yul\":659:664   */\n  dup2\n    /* \"#utility.yul\":641:665   */\n  tag_53\n  jump\t// in\ntag_73:\n    /* \"#utility.yul\":634:639   */\n  dup2\n    /* \"#utility.yul\":631:666   */\n  eq\n    /* \"#utility.yul\":621:684   */\n  tag_74\n  jumpi\n    /* \"#utility.yul\":680:681   */\n  0x00\n    /* \"#utility.yul\":677:678   */\n  dup1\n    /* \"#utility.yul\":670:682   */\n  revert\n    /* \"#utility.yul\":621:684   */\ntag_74:\n    /* \"#utility.yul\":568:690   */\n  pop\n  jump\t// out\n    /* \"#utility.yul\":696:839   */\ntag_55:\n    /* \"#utility.yul\":753:758   */\n  0x00\n    /* \"#utility.yul\":784:790   */\n  dup2\n    /* \"#utility.yul\":778:791   */\n  mload\n    /* \"#utility.yul\":769:791   */\n  swap1\n  pop\n    /* \"#utility.yul\":800:833   */\n  tag_76\n    /* \"#utility.yul\":827:832   */\n  dup2\n    /* \"#utility.yul\":800:833   */\n  tag_54\n  jump\t// in\ntag_76:\n    /* \"#utility.yul\":696:839   */\n  swap3\n  swap2\n  pop\n  pop\n  jump\t// out\n    /* \"#utility.yul\":845:1196   */\ntag_3:\n    /* \"#utility.yul\":915:921   */\n  0x00\n    /* \"#utility.yul\":964:966   */\n  0x20\n    /* \"#utility.yul\":952:961   */\n  dup3\n    /* \"#utility.yul\":943:950   */\n  dup5\n    /* \"#utility.yul\":939:962   */\n  sub\n    /* \"#utility.yul\":935:967   */\n  slt\n    /* \"#utility.yul\":932:1051   */\n  iszero\n  tag_78\n  jumpi\n    /* \"#utility.yul\":970:1049   */\n  tag_79\n  tag_50\n  jump\t// in\ntag_79:\n    /* \"#utility.yul\":932:1051   */\ntag_78:\n    /* \"#utility.yul\":1090:1091   */\n  0x00\n    /* \"#utility.yul\":1115:1179   */\n  tag_80\n    /* \"#utility.yul\":1171:1178   */\n  dup5\n    /* \"#utility.yul\":1162:1168   */\n  dup3\n    /* \"#utility.yul\":1151:1160   */\n  dup6\n    /* \"#utility.yul\":1147:1169   */\n  add\n    /* \"#utility.yul\":1115:1179   */\n  tag_55\n  jump\t// in\ntag_80:\n    /* \"#utility.yul\":1105:1179   */\n  swap2\n  pop\n    /* \"#utility.yul\":1061:1189   */\n  pop\n    /* \"#utility.yul\":845:1196   */\n  swap3\n  swap2\n  pop\n  pop\n  jump\t// out\n    /* \"#utility.yul\":1202:1320   */\ntag_56:\n    /* \"#utility.yul\":1289:1313   */\n  tag_82\n    /* \"#utility.yul\":1307:1312   */\n  dup2\n    /* \"#utility.yul\":1289:1313   */\n  tag_53\n  jump\t// in\ntag_82:\n    /* \"#utility.yul\":1284:1287   */\n  dup3\n    /* \"#utility.yul\":1277:1314   */\n  mstore\n    /* \"#utility.yul\":1202:1320   */\n  pop\n  pop\n  jump\t// out\n    /* \"#utility.yul\":1326:1548   */\ntag_14:\n    /* \"#utility.yul\":1419:1423   */\n  0x00\n    /* \"#utility.yul\":1457:1459   */\n  0x20\n    /* \"#utility.yul\":1446:1455   */\n  dup3\n    /* \"#utility.yul\":1442:1460   */\n  add\n    /* \"#utility.yul\":1434:1460   */\n  swap1\n  pop\n    /* \"#utility.yul\":1470:1541   */\n  tag_84\n    /* \"#utility.yul\":1538:1539   */\n  0x00\n    /* \"#utility.yul\":1527:1536   */\n  dup4\n    /* \"#utility.yul\":1523:1540   */\n  add\n    /* \"#utility.yul\":1514:1520   */\n  dup5\n    /* \"#utility.yul\":1470:1541   */\n  tag_56\n  jump\t// in\ntag_84:\n    /* \"#utility.yul\":1326:1548   */\n  swap3\n  swap2\n  pop\n  pop\n  jump\t// out\n    /* \"#utility.yul\":1554:1631   */\ntag_57:\n    /* \"#utility.yul\":1591:1598   */\n  0x00\n    /* \"#utility.yul\":1620:1625   */\n  dup2\n    /* \"#utility.yul\":1609:1625   */\n  swap1\n  pop\n    /* \"#utility.yul\":1554:1631   */\n  swap2\n  swap1\n  pop\n  jump\t// out\n    /* \"#utility.yul\":1637:1817   */\ntag_58:\n    /* \"#utility.yul\":1685:1762   */\n  0x4e487b7100000000000000000000000000000000000000000000000000000000\n    /* \"#utility.yul\":1682:1683   */\n  0x00\n    /* \"#utility.yul\":1675:1763   */\n  mstore\n    /* \"#utility.yul\":1782:1786   */\n  0x11\n    /* \"#utility.yul\":1779:1780   */\n  0x04\n    /* \"#utility.yul\":1772:1787   */\n  mstore\n    /* \"#utility.yul\":1806:1810   */\n  0x24\n    /* \"#utility.yul\":1803:1804   */\n  0x00\n    /* \"#utility.yul\":1796:1811   */\n  revert\n    /* \"#utility.yul\":1823:2017   */\ntag_32:\n    /* \"#utility.yul\":1863:1867   */\n  0x00\n    /* \"#utility.yul\":1883:1903   */\n  tag_88\n    /* \"#utility.yul\":1901:1902   */\n  dup3\n    /* \"#utility.yul\":1883:1903   */\n  tag_57\n  jump\t// in\ntag_88:\n    /* \"#utility.yul\":1878:1903   */\n  swap2\n  pop\n    /* \"#utility.yul\":1917:1937   */\n  tag_89\n    /* \"#utility.yul\":1935:1936   */\n  dup4\n    /* \"#utility.yul\":1917:1937   */\n  tag_57\n  jump\t// in\ntag_89:\n    /* \"#utility.yul\":1912:1937   */\n  swap3\n  pop\n    /* \"#utility.yul\":1961:1962   */\n  dup3\n    /* \"#utility.yul\":1958:1959   */\n  dup3\n    /* \"#utility.yul\":1954:1963   */\n  sub\n    /* \"#utility.yul\":1946:1963   */\n  swap1\n  pop\n    /* \"#utility.yul\":1985:1986   */\n  dup2\n    /* \"#utility.yul\":1979:1983   */\n  dup2\n    /* \"#utility.yul\":1976:1987   */\n  gt\n    /* \"#utility.yul\":1973:2010   */\n  iszero\n  tag_90\n  jumpi\n    /* \"#utility.yul\":1990:2008   */\n  tag_91\n  tag_58\n  jump\t// in\ntag_91:\n    /* \"#utility.yul\":1973:2010   */\ntag_90:\n    /* \"#utility.yul\":1823:2017   */\n  swap3\n  swap2\n  pop\n  pop\n  jump\t// out\n    /* \"#utility.yul\":2023:2140   */\ntag_59:\n    /* \"#utility.yul\":2132:2133   */\n  0x00\n    /* \"#utility.yul\":2129:2130   */\n  dup1\n    /* \"#utility.yul\":2122:2134   */\n  revert\n    /* \"#utility.yul\":2146:2263   */\ntag_60:\n    /* \"#utility.yul\":2255:2256   */\n  0x00\n    /* \"#utility.yul\":2252:2253   */\n  dup1\n    /* \"#utility.yul\":2245:2257   */\n  revert\n    /* \"#utility.yul\":2269:2738   */\ntag_34:\n    /* \"#utility.yul\":2374:2383   */\n  0x00\n    /* \"#utility.yul\":2385:2394   */\n  dup1\n    /* \"#utility.yul\":2423:2431   */\n  dup6\n    /* \"#utility.yul\":2411:2421   */\n  dup6\n    /* \"#utility.yul\":2408:2432   */\n  gt\n    /* \"#utility.yul\":2405:2516   */\n  iszero\n  tag_95\n  jumpi\n    /* \"#utility.yul\":2435:2514   */\n  tag_96\n  tag_59\n  jump\t// in\ntag_96:\n    /* \"#utility.yul\":2405:2516   */\ntag_95:\n    /* \"#utility.yul\":2541:2547   */\n  dup4\n    /* \"#utility.yul\":2531:2539   */\n  dup7\n    /* \"#utility.yul\":2528:2548   */\n  gt\n    /* \"#utility.yul\":2525:2632   */\n  iszero\n  tag_97\n  jumpi\n    /* \"#utility.yul\":2551:2630   */\n  tag_98\n  tag_60\n  jump\t// in\ntag_98:\n    /* \"#utility.yul\":2525:2632   */\ntag_97:\n    /* \"#utility.yul\":2682:2683   */\n  0x01\n    /* \"#utility.yul\":2670:2680   */\n  dup6\n    /* \"#utility.yul\":2666:2684   */\n  mul\n    /* \"#utility.yul\":2658:2664   */\n  dup4\n    /* \"#utility.yul\":2654:2685   */\n  add\n    /* \"#utility.yul\":2641:2685   */\n  swap2\n  pop\n    /* \"#utility.yul\":2721:2731   */\n  dup5\n    /* \"#utility.yul\":2711:2719   */\n  dup7\n    /* \"#utility.yul\":2707:2732   */\n  sub\n    /* \"#utility.yul\":2694:2732   */\n  swap1\n  pop\n    /* \"#utility.yul\":2269:2738   */\n  swap5\n  pop\n  swap5\n  swap3\n  pop\n  pop\n  pop\n  jump\t// out\n    /* \"#utility.yul\":2744:2840   */\ntag_61:\n    /* \"#utility.yul\":2802:2808   */\n  0x00\n    /* \"#utility.yul\":2830:2833   */\n  dup3\n    /* \"#utility.yul\":2820:2833   */\n  swap1\n  pop\n    /* \"#utility.yul\":2744:2840   */\n  swap3\n  swap2\n  pop\n  pop\n  jump\t// out\n    /* \"#utility.yul\":2938:3088   */\ntag_63:\n    /* \"#utility.yul\":2975:2982   */\n  0x00\n    /* \"#utility.yul\":3015:3081   */\n  0xffffffffffffffffffffffffffffffffffffffff000000000000000000000000\n    /* \"#utility.yul\":3008:3013   */\n  dup3\n    /* \"#utility.yul\":3004:3082   */\n  and\n    /* \"#utility.yul\":2993:3082   */\n  swap1\n  pop\n    /* \"#utility.yul\":2938:3088   */\n  swap2\n  swap1\n  pop\n  jump\t// out\n    /* \"#utility.yul\":3094:3201   */\ntag_64:\n    /* \"#utility.yul\":3138:3146   */\n  0x00\n    /* \"#utility.yul\":3188:3193   */\n  dup3\n    /* \"#utility.yul\":3182:3186   */\n  dup3\n    /* \"#utility.yul\":3178:3194   */\n  shl\n    /* \"#utility.yul\":3157:3194   */\n  swap1\n  pop\n    /* \"#utility.yul\":3094:3201   */\n  swap3\n  swap2\n  pop\n  pop\n  jump\t// out\n    /* \"#utility.yul\":3207:3759   */\ntag_36:\n    /* \"#utility.yul\":3298:3303   */\n  0x00\n    /* \"#utility.yul\":3329:3374   */\n  tag_104\n    /* \"#utility.yul\":3370:3373   */\n  dup4\n    /* \"#utility.yul\":3363:3368   */\n  dup4\n    /* \"#utility.yul\":3329:3374   */\n  tag_61\n  jump\t// in\ntag_104:\n    /* \"#utility.yul\":3399:3404   */\n  dup3\n    /* \"#utility.yul\":3423:3464   */\n  tag_105\n    /* \"#utility.yul\":3454:3462   */\n  dup2\n    /* \"#utility.yul\":3441:3463   */\n  calldataload\n    /* \"#utility.yul\":3423:3464   */\n  tag_63\n  jump\t// in\ntag_105:\n    /* \"#utility.yul\":3414:3464   */\n  swap3\n  pop\n    /* \"#utility.yul\":3488:3490   */\n  0x14\n    /* \"#utility.yul\":3480:3486   */\n  dup3\n    /* \"#utility.yul\":3477:3491   */\n  lt\n    /* \"#utility.yul\":3474:3752   */\n  iszero\n  tag_106\n  jumpi\n    /* \"#utility.yul\":3559:3728   */\n  tag_107\n    /* \"#utility.yul\":3644:3710   */\n  0xffffffffffffffffffffffffffffffffffffffff000000000000000000000000\n    /* \"#utility.yul\":3614:3620   */\n  dup4\n    /* \"#utility.yul\":3610:3612   */\n  0x14\n    /* \"#utility.yul\":3606:3621   */\n  sub\n    /* \"#utility.yul\":3603:3604   */\n  0x08\n    /* \"#utility.yul\":3599:3622   */\n  mul\n    /* \"#utility.yul\":3559:3728   */\n  tag_64\n  jump\t// in\ntag_107:\n    /* \"#utility.yul\":3536:3541   */\n  dup4\n    /* \"#utility.yul\":3515:3742   */\n  and\n    /* \"#utility.yul\":3506:3742   */\n  swap3\n  pop\n    /* \"#utility.yul\":3474:3752   */\ntag_106:\n    /* \"#utility.yul\":3304:3759   */\n  pop\n  pop\n    /* \"#utility.yul\":3207:3759   */\n  swap3\n  swap2\n  pop\n  pop\n  jump\t// out\n    /* \"Proofication/DocumentAudit.sol\":234:5443  contract DocumentAudit is ERC2771Context, Ownable, Pausable {... */\ntag_19:\n  mload(0x80)\n  codecopy(0x00, dataOffset(sub_0), dataSize(sub_0))\n  0x00\n  assignImmutable(\"0x0330c0d84464f890f3c81afbba7a3a05e0e864ec2e31676dedcb075b2bf855a0\")\n  return(0x00, dataSize(sub_0))\nstop\n\nsub_0: assembly {\n        /* \"Proofication/DocumentAudit.sol\":234:5443  contract DocumentAudit is ERC2771Context, Ownable, Pausable {... */\n      mstore(0x40, 0x80)\n      callvalue\n      dup1\n      iszero\n      tag_1\n      jumpi\n      0x00\n      dup1\n      revert\n    tag_1:\n      pop\n      jumpi(tag_2, lt(calldatasize, 0x04))\n      shr(0xe0, calldataload(0x00))\n      dup1\n      0x8e4d0f40\n      gt\n      tag_20\n      jumpi\n      dup1\n      0xb33712c5\n      gt\n      tag_21\n      jumpi\n      dup1\n      0xb33712c5\n      eq\n      tag_15\n      jumpi\n      dup1\n      0xb83597d3\n      eq\n      tag_16\n      jumpi\n      dup1\n      0xe215a58e\n      eq\n      tag_17\n      jumpi\n      dup1\n      0xf2fde38b\n      eq\n      tag_18\n      jumpi\n      dup1\n      0xfe35089f\n      eq\n      tag_19\n      jumpi\n      jump(tag_2)\n    tag_21:\n      dup1\n      0x8e4d0f40\n      eq\n      tag_11\n      jumpi\n      dup1\n      0x95f2f9f4\n      eq\n      tag_12\n      jumpi\n      dup1\n      0xa2428b73\n      eq\n      tag_13\n      jumpi\n      dup1\n      0xab2add76\n      eq\n      tag_14\n      jumpi\n      jump(tag_2)\n    tag_20:\n      dup1\n      0x618e6ce6\n      gt\n      tag_22\n      jumpi\n      dup1\n      0x618e6ce6\n      eq\n      tag_7\n      jumpi\n      dup1\n      0x715018a6\n      eq\n      tag_8\n      jumpi\n      dup1\n      0x7da0a877\n      eq\n      tag_9\n      jumpi\n      dup1\n      0x8da5cb5b\n      eq\n      tag_10\n      jumpi\n      jump(tag_2)\n    tag_22:\n      dup1\n      0x439766ce\n      eq\n      tag_3\n      jumpi\n      dup1\n      0x571e8720\n      eq\n      tag_4\n      jumpi\n      dup1\n      0x572b6c05\n      eq\n      tag_5\n      jumpi\n      dup1\n      0x5c975abb\n      eq\n      tag_6\n      jumpi\n    tag_2:\n      0x00\n      dup1\n      revert\n        /* \"Proofication/DocumentAudit.sol\":4756:4825  function pauseContract() public onlyOwner {... */\n    tag_3:\n      tag_23\n      tag_24\n      jump\t// in\n    tag_23:\n      stop\n        /* \"Proofication/DocumentAudit.sol\":2412:2712  function registerDocumentGasless(... */\n    tag_4:\n      tag_25\n      0x04\n      dup1\n      calldatasize\n      sub\n      dup2\n      add\n      swap1\n      tag_26\n      swap2\n      swap1\n      tag_27\n      jump\t// in\n    tag_26:\n      tag_28\n      jump\t// in\n    tag_25:\n      stop\n        /* \"@openzeppelin/contracts/metatx/ERC2771Context.sol\":1832:1969  function isTrustedForwarder(address forwarder) public view virtual returns (bool) {... */\n    tag_5:\n      tag_29\n      0x04\n      dup1\n      calldatasize\n      sub\n      dup2\n      add\n      swap1\n      tag_30\n      swap2\n      swap1\n      tag_31\n      jump\t// in\n    tag_30:\n      tag_32\n      jump\t// in\n    tag_29:\n      mload(0x40)\n      tag_33\n      swap2\n      swap1\n      tag_34\n      jump\t// in\n    tag_33:\n      mload(0x40)\n      dup1\n      swap2\n      sub\n      swap1\n      return\n        /* \"@openzeppelin/contracts/security/Pausable.sol\":1615:1699  function paused() public view virtual returns (bool) {... */\n    tag_6:\n      tag_35\n      tag_36\n      jump\t// in\n    tag_35:\n      mload(0x40)\n      tag_37\n      swap2\n      swap1\n      tag_34\n      jump\t// in\n    tag_37:\n      mload(0x40)\n      dup1\n      swap2\n      sub\n      swap1\n      return\n        /* \"Proofication/DocumentAudit.sol\":4020:4163  function isDocumentRegistered(bytes32 documentHash) public view returns (bool) {... */\n    tag_7:\n      tag_38\n      0x04\n      dup1\n      calldatasize\n      sub\n      dup2\n      add\n      swap1\n      tag_39\n      swap2\n      swap1\n      tag_40\n      jump\t// in\n    tag_39:\n      tag_41\n      jump\t// in\n    tag_38:\n      mload(0x40)\n      tag_42\n      swap2\n      swap1\n      tag_34\n      jump\t// in\n    tag_42:\n      mload(0x40)\n      dup1\n      swap2\n      sub\n      swap1\n      return\n        /* \"@openzeppelin/contracts/access/Ownable.sol\":2293:2394  function renounceOwnership() public virtual onlyOwner {... */\n    tag_8:\n      tag_43\n      tag_44\n      jump\t// in\n    tag_43:\n      stop\n        /* \"@openzeppelin/contracts/metatx/ERC2771Context.sol\":1624:1731  function trustedForwarder() public view virtual returns (address) {... */\n    tag_9:\n      tag_45\n      tag_46\n      jump\t// in\n    tag_45:\n      mload(0x40)\n      tag_47\n      swap2\n      swap1\n      tag_48\n      jump\t// in\n    tag_47:\n      mload(0x40)\n      dup1\n      swap2\n      sub\n      swap1\n      return\n        /* \"@openzeppelin/contracts/access/Ownable.sol\":1638:1723  function owner() public view virtual returns (address) {... */\n    tag_10:\n      tag_49\n      tag_50\n      jump\t// in\n    tag_49:\n      mload(0x40)\n      tag_51\n      swap2\n      swap1\n      tag_48\n      jump\t// in\n    tag_51:\n      mload(0x40)\n      dup1\n      swap2\n      sub\n      swap1\n      return\n        /* \"Proofication/DocumentAudit.sol\":2720:3372  function getDocumentDetails(bytes32 documentHash)... */\n    tag_11:\n      tag_52\n      0x04\n      dup1\n      calldatasize\n      sub\n      dup2\n      add\n      swap1\n      tag_53\n      swap2\n      swap1\n      tag_40\n      jump\t// in\n    tag_53:\n      tag_54\n      jump\t// in\n    tag_52:\n      mload(0x40)\n      tag_55\n      swap7\n      swap6\n      swap5\n      swap4\n      swap3\n      swap2\n      swap1\n      tag_56\n      jump\t// in\n    tag_55:\n      mload(0x40)\n      dup1\n      swap2\n      sub\n      swap1\n      return\n        /* \"Proofication/DocumentAudit.sol\":4530:4748  function getDocumentTimestamp(bytes32 documentHash) public view returns (uint256) {... */\n    tag_12:\n      tag_57\n      0x04\n      dup1\n      calldatasize\n      sub\n      dup2\n      add\n      swap1\n      tag_58\n      swap2\n      swap1\n      tag_40\n      jump\t// in\n    tag_58:\n      tag_59\n      jump\t// in\n    tag_57:\n      mload(0x40)\n      tag_60\n      swap2\n      swap1\n      tag_61\n      jump\t// in\n    tag_60:\n      mload(0x40)\n      dup1\n      swap2\n      sub\n      swap1\n      return\n        /* \"Proofication/DocumentAudit.sol\":4171:4381  function getDocumentOwner(bytes32 documentHash) public view returns (address) {... */\n    tag_13:\n      tag_62\n      0x04\n      dup1\n      calldatasize\n      sub\n      dup2\n      add\n      swap1\n      tag_63\n      swap2\n      swap1\n      tag_40\n      jump\t// in\n    tag_63:\n      tag_64\n      jump\t// in\n    tag_62:\n      mload(0x40)\n      tag_65\n      swap2\n      swap1\n      tag_48\n      jump\t// in\n    tag_65:\n      mload(0x40)\n      dup1\n      swap2\n      sub\n      swap1\n      return\n        /* \"Proofication/DocumentAudit.sol\":3380:4012  function transferDocumentOwnership(bytes32 documentHash, address newOwner, bool useGasless) public whenNotPaused {... */\n    tag_14:\n      tag_66\n      0x04\n      dup1\n      calldatasize\n      sub\n      dup2\n      add\n      swap1\n      tag_67\n      swap2\n      swap1\n      tag_68\n      jump\t// in\n    tag_67:\n      tag_69\n      jump\t// in\n    tag_66:\n      stop\n        /* \"Proofication/DocumentAudit.sol\":4833:4906  function unpauseContract() public onlyOwner {... */\n    tag_15:\n      tag_70\n      tag_71\n      jump\t// in\n    tag_70:\n      stop\n        /* \"Proofication/DocumentAudit.sol\":1168:1990  function registerDocument(... */\n    tag_16:\n      tag_72\n      0x04\n      dup1\n      calldatasize\n      sub\n      dup2\n      add\n      swap1\n      tag_73\n      swap2\n      swap1\n      tag_74\n      jump\t// in\n    tag_73:\n      tag_75\n      jump\t// in\n    tag_72:\n      stop\n        /* \"Proofication/DocumentAudit.sol\":2059:2360  function registerDocumentWithGas(... */\n    tag_17:\n      tag_76\n      0x04\n      dup1\n      calldatasize\n      sub\n      dup2\n      add\n      swap1\n      tag_77\n      swap2\n      swap1\n      tag_27\n      jump\t// in\n    tag_77:\n      tag_78\n      jump\t// in\n    tag_76:\n      stop\n        /* \"@openzeppelin/contracts/access/Ownable.sol\":2543:2758  function transferOwnership(address newOwner) public virtual onlyOwner {... */\n    tag_18:\n      tag_79\n      0x04\n      dup1\n      calldatasize\n      sub\n      dup2\n      add\n      swap1\n      tag_80\n      swap2\n      swap1\n      tag_31\n      jump\t// in\n    tag_80:\n      tag_81\n      jump\t// in\n    tag_79:\n      stop\n        /* \"Proofication/DocumentAudit.sol\":4389:4522  function verifyDocument(bytes32 documentHash) public view returns (bool) {... */\n    tag_19:\n      tag_82\n      0x04\n      dup1\n      calldatasize\n      sub\n      dup2\n      add\n      swap1\n      tag_83\n      swap2\n      swap1\n      tag_40\n      jump\t// in\n    tag_83:\n      tag_84\n      jump\t// in\n    tag_82:\n      mload(0x40)\n      tag_85\n      swap2\n      swap1\n      tag_34\n      jump\t// in\n    tag_85:\n      mload(0x40)\n      dup1\n      swap2\n      sub\n      swap1\n      return\n        /* \"Proofication/DocumentAudit.sol\":4756:4825  function pauseContract() public onlyOwner {... */\n    tag_24:\n        /* \"@openzeppelin/contracts/access/Ownable.sol\":1531:1544  _checkOwner() */\n      tag_87\n        /* \"@openzeppelin/contracts/access/Ownable.sol\":1531:1542  _checkOwner */\n      tag_88\n        /* \"@openzeppelin/contracts/access/Ownable.sol\":1531:1544  _checkOwner() */\n      jump\t// in\n    tag_87:\n        /* \"Proofication/DocumentAudit.sol\":4809:4817  _pause() */\n      tag_90\n        /* \"Proofication/DocumentAudit.sol\":4809:4815  _pause */\n      tag_91\n        /* \"Proofication/DocumentAudit.sol\":4809:4817  _pause() */\n      jump\t// in\n    tag_90:\n        /* \"Proofication/DocumentAudit.sol\":4756:4825  function pauseContract() public onlyOwner {... */\n      jump\t// out\n        /* \"Proofication/DocumentAudit.sol\":2412:2712  function registerDocumentGasless(... */\n    tag_28:\n        /* \"@openzeppelin/contracts/security/Pausable.sol\":1239:1258  _requireNotPaused() */\n      tag_93\n        /* \"@openzeppelin/contracts/security/Pausable.sol\":1239:1256  _requireNotPaused */\n      tag_94\n        /* \"@openzeppelin/contracts/security/Pausable.sol\":1239:1258  _requireNotPaused() */\n      jump\t// in\n    tag_93:\n        /* \"Proofication/DocumentAudit.sol\":2626:2704  registerDocument(documentHash, registrantName, organization, identifier, true) */\n      tag_96\n        /* \"Proofication/DocumentAudit.sol\":2643:2655  documentHash */\n      dup5\n        /* \"Proofication/DocumentAudit.sol\":2657:2671  registrantName */\n      dup5\n        /* \"Proofication/DocumentAudit.sol\":2673:2685  organization */\n      dup5\n        /* \"Proofication/DocumentAudit.sol\":2687:2697  identifier */\n      dup5\n        /* \"Proofication/DocumentAudit.sol\":2699:2703  true */\n      0x01\n        /* \"Proofication/DocumentAudit.sol\":2626:2642  registerDocument */\n      tag_75\n        /* \"Proofication/DocumentAudit.sol\":2626:2704  registerDocument(documentHash, registrantName, organization, identifier, true) */\n      jump\t// in\n    tag_96:\n        /* \"Proofication/DocumentAudit.sol\":2412:2712  function registerDocumentGasless(... */\n      pop\n      pop\n      pop\n      pop\n      jump\t// out\n        /* \"@openzeppelin/contracts/metatx/ERC2771Context.sol\":1832:1969  function isTrustedForwarder(address forwarder) public view virtual returns (bool) {... */\n    tag_32:\n        /* \"@openzeppelin/contracts/metatx/ERC2771Context.sol\":1908:1912  bool */\n      0x00\n        /* \"@openzeppelin/contracts/metatx/ERC2771Context.sol\":1944:1962  trustedForwarder() */\n      tag_98\n        /* \"@openzeppelin/contracts/metatx/ERC2771Context.sol\":1944:1960  trustedForwarder */\n      tag_46\n        /* \"@openzeppelin/contracts/metatx/ERC2771Context.sol\":1944:1962  trustedForwarder() */\n      jump\t// in\n    tag_98:\n        /* \"@openzeppelin/contracts/metatx/ERC2771Context.sol\":1931:1962  forwarder == trustedForwarder() */\n      0xffffffffffffffffffffffffffffffffffffffff\n      and\n        /* \"@openzeppelin/contracts/metatx/ERC2771Context.sol\":1931:1940  forwarder */\n      dup3\n        /* \"@openzeppelin/contracts/metatx/ERC2771Context.sol\":1931:1962  forwarder == trustedForwarder() */\n      0xffffffffffffffffffffffffffffffffffffffff\n      and\n      eq\n        /* \"@openzeppelin/contracts/metatx/ERC2771Context.sol\":1924:1962  return forwarder == trustedForwarder() */\n      swap1\n      pop\n        /* \"@openzeppelin/contracts/metatx/ERC2771Context.sol\":1832:1969  function isTrustedForwarder(address forwarder) public view virtual returns (bool) {... */\n      swap2\n      swap1\n      pop\n      jump\t// out\n        /* \"@openzeppelin/contracts/security/Pausable.sol\":1615:1699  function paused() public view virtual returns (bool) {... */\n    tag_36:\n        /* \"@openzeppelin/contracts/security/Pausable.sol\":1662:1666  bool */\n      0x00\n        /* \"@openzeppelin/contracts/security/Pausable.sol\":1685:1692  _paused */\n      dup1\n      0x14\n      swap1\n      sload\n      swap1\n      0x0100\n      exp\n      swap1\n      div\n      0xff\n      and\n        /* \"@openzeppelin/contracts/security/Pausable.sol\":1678:1692  return _paused */\n      swap1\n      pop\n        /* \"@openzeppelin/contracts/security/Pausable.sol\":1615:1699  function paused() public view virtual returns (bool) {... */\n      swap1\n      jump\t// out\n        /* \"Proofication/DocumentAudit.sol\":4020:4163  function isDocumentRegistered(bytes32 documentHash) public view returns (bool) {... */\n    tag_41:\n        /* \"Proofication/DocumentAudit.sol\":4093:4097  bool */\n      0x00\n        /* \"Proofication/DocumentAudit.sol\":4154:4155  0 */\n      dup1\n        /* \"Proofication/DocumentAudit.sol\":4117:4126  documents */\n      0x01\n        /* \"Proofication/DocumentAudit.sol\":4117:4140  documents[documentHash] */\n      0x00\n        /* \"Proofication/DocumentAudit.sol\":4127:4139  documentHash */\n      dup5\n        /* \"Proofication/DocumentAudit.sol\":4117:4140  documents[documentHash] */\n      dup2\n      mstore\n      0x20\n      add\n      swap1\n      dup2\n      mstore\n      0x20\n      add\n      0x00\n      keccak256\n        /* \"Proofication/DocumentAudit.sol\":4117:4150  documents[documentHash].timestamp */\n      0x01\n      add\n      sload\n        /* \"Proofication/DocumentAudit.sol\":4117:4155  documents[documentHash].timestamp != 0 */\n      eq\n      iszero\n        /* \"Proofication/DocumentAudit.sol\":4110:4155  return documents[documentHash].timestamp != 0 */\n      swap1\n      pop\n        /* \"Proofication/DocumentAudit.sol\":4020:4163  function isDocumentRegistered(bytes32 documentHash) public view returns (bool) {... */\n      swap2\n      swap1\n      pop\n      jump\t// out\n        /* \"@openzeppelin/contracts/access/Ownable.sol\":2293:2394  function renounceOwnership() public virtual onlyOwner {... */\n    tag_44:\n        /* \"@openzeppelin/contracts/access/Ownable.sol\":1531:1544  _checkOwner() */\n      tag_102\n        /* \"@openzeppelin/contracts/access/Ownable.sol\":1531:1542  _checkOwner */\n      tag_88\n        /* \"@openzeppelin/contracts/access/Ownable.sol\":1531:1544  _checkOwner() */\n      jump\t// in\n    tag_102:\n        /* \"@openzeppelin/contracts/access/Ownable.sol\":2357:2387  _transferOwnership(address(0)) */\n      tag_104\n        /* \"@openzeppelin/contracts/access/Ownable.sol\":2384:2385  0 */\n      0x00\n        /* \"@openzeppelin/contracts/access/Ownable.sol\":2357:2375  _transferOwnership */\n      tag_105\n        /* \"@openzeppelin/contracts/access/Ownable.sol\":2357:2387  _transferOwnership(address(0)) */\n      jump\t// in\n    tag_104:\n        /* \"@openzeppelin/contracts/access/Ownable.sol\":2293:2394  function renounceOwnership() public virtual onlyOwner {... */\n      jump\t// out\n        /* \"@openzeppelin/contracts/metatx/ERC2771Context.sol\":1624:1731  function trustedForwarder() public view virtual returns (address) {... */\n    tag_46:\n        /* \"@openzeppelin/contracts/metatx/ERC2771Context.sol\":1681:1688  address */\n      0x00\n        /* \"@openzeppelin/contracts/metatx/ERC2771Context.sol\":1707:1724  _trustedForwarder */\n      immutable(\"0x0330c0d84464f890f3c81afbba7a3a05e0e864ec2e31676dedcb075b2bf855a0\")\n        /* \"@openzeppelin/contracts/metatx/ERC2771Context.sol\":1700:1724  return _trustedForwarder */\n      swap1\n      pop\n        /* \"@openzeppelin/contracts/metatx/ERC2771Context.sol\":1624:1731  function trustedForwarder() public view virtual returns (address) {... */\n      swap1\n      jump\t// out\n        /* \"@openzeppelin/contracts/access/Ownable.sol\":1638:1723  function owner() public view virtual returns (address) {... */\n    tag_50:\n        /* \"@openzeppelin/contracts/access/Ownable.sol\":1684:1691  address */\n      0x00\n        /* \"@openzeppelin/contracts/access/Ownable.sol\":1710:1716  _owner */\n      dup1\n      0x00\n      swap1\n      sload\n      swap1\n      0x0100\n      exp\n      swap1\n      div\n      0xffffffffffffffffffffffffffffffffffffffff\n      and\n        /* \"@openzeppelin/contracts/access/Ownable.sol\":1703:1716  return _owner */\n      swap1\n      pop\n        /* \"@openzeppelin/contracts/access/Ownable.sol\":1638:1723  function owner() public view virtual returns (address) {... */\n      swap1\n      jump\t// out\n        /* \"Proofication/DocumentAudit.sol\":2720:3372  function getDocumentDetails(bytes32 documentHash)... */\n    tag_54:\n        /* \"Proofication/DocumentAudit.sol\":2814:2827  address owner */\n      0x00\n        /* \"Proofication/DocumentAudit.sol\":2842:2859  uint256 timestamp */\n      dup1\n        /* \"Proofication/DocumentAudit.sol\":2874:2902  string memory registrantName */\n      0x60\n        /* \"Proofication/DocumentAudit.sol\":2917:2943  string memory organization */\n      dup1\n        /* \"Proofication/DocumentAudit.sol\":2958:2982  string memory identifier */\n      0x60\n        /* \"Proofication/DocumentAudit.sol\":2997:3011  bool isGasless */\n      0x00\n        /* \"Proofication/DocumentAudit.sol\":3047:3081  isDocumentRegistered(documentHash) */\n      tag_109\n        /* \"Proofication/DocumentAudit.sol\":3068:3080  documentHash */\n      dup8\n        /* \"Proofication/DocumentAudit.sol\":3047:3067  isDocumentRegistered */\n      tag_41\n        /* \"Proofication/DocumentAudit.sol\":3047:3081  isDocumentRegistered(documentHash) */\n      jump\t// in\n    tag_109:\n        /* \"Proofication/DocumentAudit.sol\":3039:3105  require(isDocumentRegistered(documentHash), \"Document not found.\") */\n      tag_110\n      jumpi\n      mload(0x40)\n      0x08c379a000000000000000000000000000000000000000000000000000000000\n      dup2\n      mstore\n      0x04\n      add\n      tag_111\n      swap1\n      tag_112\n      jump\t// in\n    tag_111:\n      mload(0x40)\n      dup1\n      swap2\n      sub\n      swap1\n      revert\n    tag_110:\n        /* \"Proofication/DocumentAudit.sol\":3116:3136  Document storage doc */\n      0x00\n        /* \"Proofication/DocumentAudit.sol\":3139:3148  documents */\n      0x01\n        /* \"Proofication/DocumentAudit.sol\":3139:3162  documents[documentHash] */\n      0x00\n        /* \"Proofication/DocumentAudit.sol\":3149:3161  documentHash */\n      dup10\n        /* \"Proofication/DocumentAudit.sol\":3139:3162  documents[documentHash] */\n      dup2\n      mstore\n      0x20\n      add\n      swap1\n      dup2\n      mstore\n      0x20\n      add\n      0x00\n      keccak256\n        /* \"Proofication/DocumentAudit.sol\":3116:3162  Document storage doc = documents[documentHash] */\n      swap1\n      pop\n        /* \"Proofication/DocumentAudit.sol\":3195:3198  doc */\n      dup1\n        /* \"Proofication/DocumentAudit.sol\":3195:3204  doc.owner */\n      0x00\n      add\n      0x00\n      swap1\n      sload\n      swap1\n      0x0100\n      exp\n      swap1\n      div\n      0xffffffffffffffffffffffffffffffffffffffff\n      and\n        /* \"Proofication/DocumentAudit.sol\":3219:3222  doc */\n      dup2\n        /* \"Proofication/DocumentAudit.sol\":3219:3232  doc.timestamp */\n      0x01\n      add\n      sload\n        /* \"Proofication/DocumentAudit.sol\":3247:3250  doc */\n      dup3\n        /* \"Proofication/DocumentAudit.sol\":3247:3265  doc.registrantName */\n      0x02\n      add\n        /* \"Proofication/DocumentAudit.sol\":3280:3283  doc */\n      dup4\n        /* \"Proofication/DocumentAudit.sol\":3280:3296  doc.organization */\n      0x03\n      add\n        /* \"Proofication/DocumentAudit.sol\":3311:3314  doc */\n      dup5\n        /* \"Proofication/DocumentAudit.sol\":3311:3325  doc.identifier */\n      0x04\n      add\n        /* \"Proofication/DocumentAudit.sol\":3340:3343  doc */\n      dup6\n        /* \"Proofication/DocumentAudit.sol\":3340:3353  doc.isGasless */\n      0x05\n      add\n      0x00\n      swap1\n      sload\n      swap1\n      0x0100\n      exp\n      swap1\n      div\n      0xff\n      and\n        /* \"Proofication/DocumentAudit.sol\":3173:3364  return (... */\n      dup4\n      dup1\n      sload\n      tag_113\n      swap1\n      tag_114\n      jump\t// in\n    tag_113:\n      dup1\n      0x1f\n      add\n      0x20\n      dup1\n      swap2\n      div\n      mul\n      0x20\n      add\n      mload(0x40)\n      swap1\n      dup2\n      add\n      0x40\n      mstore\n      dup1\n      swap3\n      swap2\n      swap1\n      dup2\n      dup2\n      mstore\n      0x20\n      add\n      dup3\n      dup1\n      sload\n      tag_115\n      swap1\n      tag_114\n      jump\t// in\n    tag_115:\n      dup1\n      iszero\n      tag_116\n      jumpi\n      dup1\n      0x1f\n      lt\n      tag_117\n      jumpi\n      0x0100\n      dup1\n      dup4\n      sload\n      div\n      mul\n      dup4\n      mstore\n      swap2\n      0x20\n      add\n      swap2\n      jump(tag_116)\n    tag_117:\n      dup3\n      add\n      swap2\n      swap1\n      0x00\n      mstore\n      keccak256(0x00, 0x20)\n      swap1\n    tag_118:\n      dup2\n      sload\n      dup2\n      mstore\n      swap1\n      0x01\n      add\n      swap1\n      0x20\n      add\n      dup1\n      dup4\n      gt\n      tag_118\n      jumpi\n      dup3\n      swap1\n      sub\n      0x1f\n      and\n      dup3\n      add\n      swap2\n    tag_116:\n      pop\n      pop\n      pop\n      pop\n      pop\n      swap4\n      pop\n      dup3\n      dup1\n      sload\n      tag_119\n      swap1\n      tag_114\n      jump\t// in\n    tag_119:\n      dup1\n      0x1f\n      add\n      0x20\n      dup1\n      swap2\n      div\n      mul\n      0x20\n      add\n      mload(0x40)\n      swap1\n      dup2\n      add\n      0x40\n      mstore\n      dup1\n      swap3\n      swap2\n      swap1\n      dup2\n      dup2\n      mstore\n      0x20\n      add\n      dup3\n      dup1\n      sload\n      tag_120\n      swap1\n      tag_114\n      jump\t// in\n    tag_120:\n      dup1\n      iszero\n      tag_121\n      jumpi\n      dup1\n      0x1f\n      lt\n      tag_122\n      jumpi\n      0x0100\n      dup1\n      dup4\n      sload\n      div\n      mul\n      dup4\n      mstore\n      swap2\n      0x20\n      add\n      swap2\n      jump(tag_121)\n    tag_122:\n      dup3\n      add\n      swap2\n      swap1\n      0x00\n      mstore\n      keccak256(0x00, 0x20)\n      swap1\n    tag_123:\n      dup2\n      sload\n      dup2\n      mstore\n      swap1\n      0x01\n      add\n      swap1\n      0x20\n      add\n      dup1\n      dup4\n      gt\n      tag_123\n      jumpi\n      dup3\n      swap1\n      sub\n      0x1f\n      and\n      dup3\n      add\n      swap2\n    tag_121:\n      pop\n      pop\n      pop\n      pop\n      pop\n      swap3\n      pop\n      dup2\n      dup1\n      sload\n      tag_124\n      swap1\n      tag_114\n      jump\t// in\n    tag_124:\n      dup1\n      0x1f\n      add\n      0x20\n      dup1\n      swap2\n      div\n      mul\n      0x20\n      add\n      mload(0x40)\n      swap1\n      dup2\n      add\n      0x40\n      mstore\n      dup1\n      swap3\n      swap2\n      swap1\n      dup2\n      dup2\n      mstore\n      0x20\n      add\n      dup3\n      dup1\n      sload\n      tag_125\n      swap1\n      tag_114\n      jump\t// in\n    tag_125:\n      dup1\n      iszero\n      tag_126\n      jumpi\n      dup1\n      0x1f\n      lt\n      tag_127\n      jumpi\n      0x0100\n      dup1\n      dup4\n      sload\n      div\n      mul\n      dup4\n      mstore\n      swap2\n      0x20\n      add\n      swap2\n      jump(tag_126)\n    tag_127:\n      dup3\n      add\n      swap2\n      swap1\n      0x00\n      mstore\n      keccak256(0x00, 0x20)\n      swap1\n    tag_128:\n      dup2\n      sload\n      dup2\n      mstore\n      swap1\n      0x01\n      add\n      swap1\n      0x20\n      add\n      dup1\n      dup4\n      gt\n      tag_128\n      jumpi\n      dup3\n      swap1\n      sub\n      0x1f\n      and\n      dup3\n      add\n      swap2\n    tag_126:\n      pop\n      pop\n      pop\n      pop\n      pop\n      swap2\n      pop\n      swap7\n      pop\n      swap7\n      pop\n      swap7\n      pop\n      swap7\n      pop\n      swap7\n      pop\n      swap7\n      pop\n      pop\n        /* \"Proofication/DocumentAudit.sol\":2720:3372  function getDocumentDetails(bytes32 documentHash)... */\n      swap2\n      swap4\n      swap6\n      pop\n      swap2\n      swap4\n      swap6\n      jump\t// out\n        /* \"Proofication/DocumentAudit.sol\":4530:4748  function getDocumentTimestamp(bytes32 documentHash) public view returns (uint256) {... */\n    tag_59:\n        /* \"Proofication/DocumentAudit.sol\":4603:4610  uint256 */\n      0x00\n        /* \"Proofication/DocumentAudit.sol\":4631:4665  isDocumentRegistered(documentHash) */\n      tag_130\n        /* \"Proofication/DocumentAudit.sol\":4652:4664  documentHash */\n      dup3\n        /* \"Proofication/DocumentAudit.sol\":4631:4651  isDocumentRegistered */\n      tag_41\n        /* \"Proofication/DocumentAudit.sol\":4631:4665  isDocumentRegistered(documentHash) */\n      jump\t// in\n    tag_130:\n        /* \"Proofication/DocumentAudit.sol\":4623:4689  require(isDocumentRegistered(documentHash), \"Document not found.\") */\n      tag_131\n      jumpi\n      mload(0x40)\n      0x08c379a000000000000000000000000000000000000000000000000000000000\n      dup2\n      mstore\n      0x04\n      add\n      tag_132\n      swap1\n      tag_112\n      jump\t// in\n    tag_132:\n      mload(0x40)\n      dup1\n      swap2\n      sub\n      swap1\n      revert\n    tag_131:\n        /* \"Proofication/DocumentAudit.sol\":4707:4716  documents */\n      0x01\n        /* \"Proofication/DocumentAudit.sol\":4707:4730  documents[documentHash] */\n      0x00\n        /* \"Proofication/DocumentAudit.sol\":4717:4729  documentHash */\n      dup4\n        /* \"Proofication/DocumentAudit.sol\":4707:4730  documents[documentHash] */\n      dup2\n      mstore\n      0x20\n      add\n      swap1\n      dup2\n      mstore\n      0x20\n      add\n      0x00\n      keccak256\n        /* \"Proofication/DocumentAudit.sol\":4707:4740  documents[documentHash].timestamp */\n      0x01\n      add\n      sload\n        /* \"Proofication/DocumentAudit.sol\":4700:4740  return documents[documentHash].timestamp */\n      swap1\n      pop\n        /* \"Proofication/DocumentAudit.sol\":4530:4748  function getDocumentTimestamp(bytes32 documentHash) public view returns (uint256) {... */\n      swap2\n      swap1\n      pop\n      jump\t// out\n        /* \"Proofication/DocumentAudit.sol\":4171:4381  function getDocumentOwner(bytes32 documentHash) public view returns (address) {... */\n    tag_64:\n        /* \"Proofication/DocumentAudit.sol\":4240:4247  address */\n      0x00\n        /* \"Proofication/DocumentAudit.sol\":4268:4302  isDocumentRegistered(documentHash) */\n      tag_134\n        /* \"Proofication/DocumentAudit.sol\":4289:4301  documentHash */\n      dup3\n        /* \"Proofication/DocumentAudit.sol\":4268:4288  isDocumentRegistered */\n      tag_41\n        /* \"Proofication/DocumentAudit.sol\":4268:4302  isDocumentRegistered(documentHash) */\n      jump\t// in\n    tag_134:\n        /* \"Proofication/DocumentAudit.sol\":4260:4326  require(isDocumentRegistered(documentHash), \"Document not found.\") */\n      tag_135\n      jumpi\n      mload(0x40)\n      0x08c379a000000000000000000000000000000000000000000000000000000000\n      dup2\n      mstore\n      0x04\n      add\n      tag_136\n      swap1\n      tag_112\n      jump\t// in\n    tag_136:\n      mload(0x40)\n      dup1\n      swap2\n      sub\n      swap1\n      revert\n    tag_135:\n        /* \"Proofication/DocumentAudit.sol\":4344:4353  documents */\n      0x01\n        /* \"Proofication/DocumentAudit.sol\":4344:4367  documents[documentHash] */\n      0x00\n        /* \"Proofication/DocumentAudit.sol\":4354:4366  documentHash */\n      dup4\n        /* \"Proofication/DocumentAudit.sol\":4344:4367  documents[documentHash] */\n      dup2\n      mstore\n      0x20\n      add\n      swap1\n      dup2\n      mstore\n      0x20\n      add\n      0x00\n      keccak256\n        /* \"Proofication/DocumentAudit.sol\":4344:4373  documents[documentHash].owner */\n      0x00\n      add\n      0x00\n      swap1\n      sload\n      swap1\n      0x0100\n      exp\n      swap1\n      div\n      0xffffffffffffffffffffffffffffffffffffffff\n      and\n        /* \"Proofication/DocumentAudit.sol\":4337:4373  return documents[documentHash].owner */\n      swap1\n      pop\n        /* \"Proofication/DocumentAudit.sol\":4171:4381  function getDocumentOwner(bytes32 documentHash) public view returns (address) {... */\n      swap2\n      swap1\n      pop\n      jump\t// out\n        /* \"Proofication/DocumentAudit.sol\":3380:4012  function transferDocumentOwnership(bytes32 documentHash, address newOwner, bool useGasless) public whenNotPaused {... */\n    tag_69:\n        /* \"@openzeppelin/contracts/security/Pausable.sol\":1239:1258  _requireNotPaused() */\n      tag_138\n        /* \"@openzeppelin/contracts/security/Pausable.sol\":1239:1256  _requireNotPaused */\n      tag_94\n        /* \"@openzeppelin/contracts/security/Pausable.sol\":1239:1258  _requireNotPaused() */\n      jump\t// in\n    tag_138:\n        /* \"Proofication/DocumentAudit.sol\":3512:3546  isDocumentRegistered(documentHash) */\n      tag_140\n        /* \"Proofication/DocumentAudit.sol\":3533:3545  documentHash */\n      dup4\n        /* \"Proofication/DocumentAudit.sol\":3512:3532  isDocumentRegistered */\n      tag_41\n        /* \"Proofication/DocumentAudit.sol\":3512:3546  isDocumentRegistered(documentHash) */\n      jump\t// in\n    tag_140:\n        /* \"Proofication/DocumentAudit.sol\":3504:3570  require(isDocumentRegistered(documentHash), \"Document not found.\") */\n      tag_141\n      jumpi\n      mload(0x40)\n      0x08c379a000000000000000000000000000000000000000000000000000000000\n      dup2\n      mstore\n      0x04\n      add\n      tag_142\n      swap1\n      tag_112\n      jump\t// in\n    tag_142:\n      mload(0x40)\n      dup1\n      swap2\n      sub\n      swap1\n      revert\n    tag_141:\n        /* \"Proofication/DocumentAudit.sol\":3581:3595  address sender */\n      0x00\n        /* \"Proofication/DocumentAudit.sol\":3598:3608  useGasless */\n      dup2\n        /* \"Proofication/DocumentAudit.sol\":3598:3636  useGasless ? _msgSender() : msg.sender */\n      tag_143\n      jumpi\n        /* \"Proofication/DocumentAudit.sol\":3626:3636  msg.sender */\n      caller\n        /* \"Proofication/DocumentAudit.sol\":3598:3636  useGasless ? _msgSender() : msg.sender */\n      jump(tag_144)\n    tag_143:\n        /* \"Proofication/DocumentAudit.sol\":3611:3623  _msgSender() */\n      tag_145\n        /* \"Proofication/DocumentAudit.sol\":3611:3621  _msgSender */\n      tag_146\n        /* \"Proofication/DocumentAudit.sol\":3611:3623  _msgSender() */\n      jump\t// in\n    tag_145:\n        /* \"Proofication/DocumentAudit.sol\":3598:3636  useGasless ? _msgSender() : msg.sender */\n    tag_144:\n        /* \"Proofication/DocumentAudit.sol\":3581:3636  address sender = useGasless ? _msgSender() : msg.sender */\n      swap1\n      pop\n        /* \"Proofication/DocumentAudit.sol\":3665:3674  documents */\n      0x01\n        /* \"Proofication/DocumentAudit.sol\":3665:3688  documents[documentHash] */\n      0x00\n        /* \"Proofication/DocumentAudit.sol\":3675:3687  documentHash */\n      dup6\n        /* \"Proofication/DocumentAudit.sol\":3665:3688  documents[documentHash] */\n      dup2\n      mstore\n      0x20\n      add\n      swap1\n      dup2\n      mstore\n      0x20\n      add\n      0x00\n      keccak256\n        /* \"Proofication/DocumentAudit.sol\":3665:3694  documents[documentHash].owner */\n      0x00\n      add\n      0x00\n      swap1\n      sload\n      swap1\n      0x0100\n      exp\n      swap1\n      div\n      0xffffffffffffffffffffffffffffffffffffffff\n      and\n        /* \"Proofication/DocumentAudit.sol\":3655:3694  sender == documents[documentHash].owner */\n      0xffffffffffffffffffffffffffffffffffffffff\n      and\n        /* \"Proofication/DocumentAudit.sol\":3655:3661  sender */\n      dup2\n        /* \"Proofication/DocumentAudit.sol\":3655:3694  sender == documents[documentHash].owner */\n      0xffffffffffffffffffffffffffffffffffffffff\n      and\n      eq\n        /* \"Proofication/DocumentAudit.sol\":3647:3737  require(sender == documents[documentHash].owner, \"Only the owner can transfer ownership.\") */\n      tag_147\n      jumpi\n      mload(0x40)\n      0x08c379a000000000000000000000000000000000000000000000000000000000\n      dup2\n      mstore\n      0x04\n      add\n      tag_148\n      swap1\n      tag_149\n      jump\t// in\n    tag_148:\n      mload(0x40)\n      dup1\n      swap2\n      sub\n      swap1\n      revert\n    tag_147:\n        /* \"Proofication/DocumentAudit.sol\":3776:3777  0 */\n      0x00\n        /* \"Proofication/DocumentAudit.sol\":3756:3778  newOwner != address(0) */\n      0xffffffffffffffffffffffffffffffffffffffff\n      and\n        /* \"Proofication/DocumentAudit.sol\":3756:3764  newOwner */\n      dup4\n        /* \"Proofication/DocumentAudit.sol\":3756:3778  newOwner != address(0) */\n      0xffffffffffffffffffffffffffffffffffffffff\n      and\n      sub\n        /* \"Proofication/DocumentAudit.sol\":3748:3820  require(newOwner != address(0), \"New owner cannot be the zero address.\") */\n      tag_150\n      jumpi\n      mload(0x40)\n      0x08c379a000000000000000000000000000000000000000000000000000000000\n      dup2\n      mstore\n      0x04\n      add\n      tag_151\n      swap1\n      tag_152\n      jump\t// in\n    tag_151:\n      mload(0x40)\n      dup1\n      swap2\n      sub\n      swap1\n      revert\n    tag_150:\n        /* \"Proofication/DocumentAudit.sol\":3833:3849  address oldOwner */\n      0x00\n        /* \"Proofication/DocumentAudit.sol\":3852:3861  documents */\n      0x01\n        /* \"Proofication/DocumentAudit.sol\":3852:3875  documents[documentHash] */\n      0x00\n        /* \"Proofication/DocumentAudit.sol\":3862:3874  documentHash */\n      dup7\n        /* \"Proofication/DocumentAudit.sol\":3852:3875  documents[documentHash] */\n      dup2\n      mstore\n      0x20\n      add\n      swap1\n      dup2\n      mstore\n      0x20\n      add\n      0x00\n      keccak256\n        /* \"Proofication/DocumentAudit.sol\":3852:3881  documents[documentHash].owner */\n      0x00\n      add\n      0x00\n      swap1\n      sload\n      swap1\n      0x0100\n      exp\n      swap1\n      div\n      0xffffffffffffffffffffffffffffffffffffffff\n      and\n        /* \"Proofication/DocumentAudit.sol\":3833:3881  address oldOwner = documents[documentHash].owner */\n      swap1\n      pop\n        /* \"Proofication/DocumentAudit.sol\":3924:3932  newOwner */\n      dup4\n        /* \"Proofication/DocumentAudit.sol\":3892:3901  documents */\n      0x01\n        /* \"Proofication/DocumentAudit.sol\":3892:3915  documents[documentHash] */\n      0x00\n        /* \"Proofication/DocumentAudit.sol\":3902:3914  documentHash */\n      dup8\n        /* \"Proofication/DocumentAudit.sol\":3892:3915  documents[documentHash] */\n      dup2\n      mstore\n      0x20\n      add\n      swap1\n      dup2\n      mstore\n      0x20\n      add\n      0x00\n      keccak256\n        /* \"Proofication/DocumentAudit.sol\":3892:3921  documents[documentHash].owner */\n      0x00\n      add\n      0x00\n        /* \"Proofication/DocumentAudit.sol\":3892:3932  documents[documentHash].owner = newOwner */\n      0x0100\n      exp\n      dup2\n      sload\n      dup2\n      0xffffffffffffffffffffffffffffffffffffffff\n      mul\n      not\n      and\n      swap1\n      dup4\n      0xffffffffffffffffffffffffffffffffffffffff\n      and\n      mul\n      or\n      swap1\n      sstore\n      pop\n        /* \"Proofication/DocumentAudit.sol\":3995:4003  newOwner */\n      dup4\n        /* \"Proofication/DocumentAudit.sol\":3950:4004  OwnershipTransferred(documentHash, oldOwner, newOwner) */\n      0xffffffffffffffffffffffffffffffffffffffff\n      and\n        /* \"Proofication/DocumentAudit.sol\":3985:3993  oldOwner */\n      dup2\n        /* \"Proofication/DocumentAudit.sol\":3950:4004  OwnershipTransferred(documentHash, oldOwner, newOwner) */\n      0xffffffffffffffffffffffffffffffffffffffff\n      and\n        /* \"Proofication/DocumentAudit.sol\":3971:3983  documentHash */\n      dup7\n        /* \"Proofication/DocumentAudit.sol\":3950:4004  OwnershipTransferred(documentHash, oldOwner, newOwner) */\n      0x0b659dccc8eb950324170e8d9598af5ee04ee070883eb28651a96788721fbf83\n      mload(0x40)\n      mload(0x40)\n      dup1\n      swap2\n      sub\n      swap1\n      log4\n        /* \"Proofication/DocumentAudit.sol\":3493:4012  {... */\n      pop\n      pop\n        /* \"Proofication/DocumentAudit.sol\":3380:4012  function transferDocumentOwnership(bytes32 documentHash, address newOwner, bool useGasless) public whenNotPaused {... */\n      pop\n      pop\n      pop\n      jump\t// out\n        /* \"Proofication/DocumentAudit.sol\":4833:4906  function unpauseContract() public onlyOwner {... */\n    tag_71:\n        /* \"@openzeppelin/contracts/access/Ownable.sol\":1531:1544  _checkOwner() */\n      tag_154\n        /* \"@openzeppelin/contracts/access/Ownable.sol\":1531:1542  _checkOwner */\n      tag_88\n        /* \"@openzeppelin/contracts/access/Ownable.sol\":1531:1544  _checkOwner() */\n      jump\t// in\n    tag_154:\n        /* \"Proofication/DocumentAudit.sol\":4888:4898  _unpause() */\n      tag_156\n        /* \"Proofication/DocumentAudit.sol\":4888:4896  _unpause */\n      tag_157\n        /* \"Proofication/DocumentAudit.sol\":4888:4898  _unpause() */\n      jump\t// in\n    tag_156:\n        /* \"Proofication/DocumentAudit.sol\":4833:4906  function unpauseContract() public onlyOwner {... */\n      jump\t// out\n        /* \"Proofication/DocumentAudit.sol\":1168:1990  function registerDocument(... */\n    tag_75:\n        /* \"@openzeppelin/contracts/security/Pausable.sol\":1239:1258  _requireNotPaused() */\n      tag_159\n        /* \"@openzeppelin/contracts/security/Pausable.sol\":1239:1256  _requireNotPaused */\n      tag_94\n        /* \"@openzeppelin/contracts/security/Pausable.sol\":1239:1258  _requireNotPaused() */\n      jump\t// in\n    tag_159:\n        /* \"Proofication/DocumentAudit.sol\":1410:1444  isDocumentRegistered(documentHash) */\n      tag_161\n        /* \"Proofication/DocumentAudit.sol\":1431:1443  documentHash */\n      dup6\n        /* \"Proofication/DocumentAudit.sol\":1410:1430  isDocumentRegistered */\n      tag_41\n        /* \"Proofication/DocumentAudit.sol\":1410:1444  isDocumentRegistered(documentHash) */\n      jump\t// in\n    tag_161:\n        /* \"Proofication/DocumentAudit.sol\":1409:1444  !isDocumentRegistered(documentHash) */\n      iszero\n        /* \"Proofication/DocumentAudit.sol\":1401:1477  require(!isDocumentRegistered(documentHash), \"Document already registered.\") */\n      tag_162\n      jumpi\n      mload(0x40)\n      0x08c379a000000000000000000000000000000000000000000000000000000000\n      dup2\n      mstore\n      0x04\n      add\n      tag_163\n      swap1\n      tag_164\n      jump\t// in\n    tag_163:\n      mload(0x40)\n      dup1\n      swap2\n      sub\n      swap1\n      revert\n    tag_162:\n        /* \"Proofication/DocumentAudit.sol\":1516:1771  Document({... */\n      mload(0x40)\n      dup1\n      0xc0\n      add\n      0x40\n      mstore\n      dup1\n        /* \"Proofication/DocumentAudit.sol\":1547:1559  _msgSender() */\n      tag_165\n        /* \"Proofication/DocumentAudit.sol\":1547:1557  _msgSender */\n      tag_146\n        /* \"Proofication/DocumentAudit.sol\":1547:1559  _msgSender() */\n      jump\t// in\n    tag_165:\n        /* \"Proofication/DocumentAudit.sol\":1516:1771  Document({... */\n      0xffffffffffffffffffffffffffffffffffffffff\n      and\n      dup2\n      mstore\n      0x20\n      add\n        /* \"Proofication/DocumentAudit.sol\":1585:1600  block.timestamp */\n      timestamp\n        /* \"Proofication/DocumentAudit.sol\":1516:1771  Document({... */\n      dup2\n      mstore\n      0x20\n      add\n        /* \"Proofication/DocumentAudit.sol\":1631:1645  registrantName */\n      dup6\n        /* \"Proofication/DocumentAudit.sol\":1516:1771  Document({... */\n      dup2\n      mstore\n      0x20\n      add\n        /* \"Proofication/DocumentAudit.sol\":1674:1686  organization */\n      dup5\n        /* \"Proofication/DocumentAudit.sol\":1516:1771  Document({... */\n      dup2\n      mstore\n      0x20\n      add\n        /* \"Proofication/DocumentAudit.sol\":1713:1723  identifier */\n      dup4\n        /* \"Proofication/DocumentAudit.sol\":1516:1771  Document({... */\n      dup2\n      mstore\n      0x20\n      add\n        /* \"Proofication/DocumentAudit.sol\":1749:1759  useGasless */\n      dup3\n        /* \"Proofication/DocumentAudit.sol\":1516:1771  Document({... */\n      iszero\n      iszero\n      dup2\n      mstore\n      pop\n        /* \"Proofication/DocumentAudit.sol\":1490:1499  documents */\n      0x01\n        /* \"Proofication/DocumentAudit.sol\":1490:1513  documents[documentHash] */\n      0x00\n        /* \"Proofication/DocumentAudit.sol\":1500:1512  documentHash */\n      dup8\n        /* \"Proofication/DocumentAudit.sol\":1490:1513  documents[documentHash] */\n      dup2\n      mstore\n      0x20\n      add\n      swap1\n      dup2\n      mstore\n      0x20\n      add\n      0x00\n      keccak256\n        /* \"Proofication/DocumentAudit.sol\":1490:1771  documents[documentHash] = Document({... */\n      0x00\n      dup3\n      add\n      mload\n      dup2\n      0x00\n      add\n      exp(0x0100, 0x00)\n      dup2\n      sload\n      dup2\n      0xffffffffffffffffffffffffffffffffffffffff\n      mul\n      not\n      and\n      swap1\n      dup4\n      0xffffffffffffffffffffffffffffffffffffffff\n      and\n      mul\n      or\n      swap1\n      sstore\n      pop\n      0x20\n      dup3\n      add\n      mload\n      dup2\n      0x01\n      add\n      sstore\n      0x40\n      dup3\n      add\n      mload\n      dup2\n      0x02\n      add\n      swap1\n      dup2\n      tag_166\n      swap2\n      swap1\n      tag_167\n      jump\t// in\n    tag_166:\n      pop\n      0x60\n      dup3\n      add\n      mload\n      dup2\n      0x03\n      add\n      swap1\n      dup2\n      tag_168\n      swap2\n      swap1\n      tag_167\n      jump\t// in\n    tag_168:\n      pop\n      0x80\n      dup3\n      add\n      mload\n      dup2\n      0x04\n      add\n      swap1\n      dup2\n      tag_169\n      swap2\n      swap1\n      tag_167\n      jump\t// in\n    tag_169:\n      pop\n      0xa0\n      dup3\n      add\n      mload\n      dup2\n      0x05\n      add\n      exp(0x0100, 0x00)\n      dup2\n      sload\n      dup2\n      0xff\n      mul\n      not\n      and\n      swap1\n      dup4\n      iszero\n      iszero\n      mul\n      or\n      swap1\n      sstore\n      pop\n      swap1\n      pop\n      pop\n        /* \"Proofication/DocumentAudit.sol\":1850:1862  _msgSender() */\n      tag_170\n        /* \"Proofication/DocumentAudit.sol\":1850:1860  _msgSender */\n      tag_146\n        /* \"Proofication/DocumentAudit.sol\":1850:1862  _msgSender() */\n      jump\t// in\n    tag_170:\n        /* \"Proofication/DocumentAudit.sol\":1789:1982  DocumentRegistered(... */\n      0xffffffffffffffffffffffffffffffffffffffff\n      and\n        /* \"Proofication/DocumentAudit.sol\":1822:1834  documentHash */\n      dup6\n        /* \"Proofication/DocumentAudit.sol\":1789:1982  DocumentRegistered(... */\n      0xae5ab09589867efdd9d9d1b4259d914151a9730d97b10bf71109e597a65155e6\n        /* \"Proofication/DocumentAudit.sol\":1878:1892  registrantName */\n      dup7\n        /* \"Proofication/DocumentAudit.sol\":1908:1920  organization */\n      dup7\n        /* \"Proofication/DocumentAudit.sol\":1936:1946  identifier */\n      dup7\n        /* \"Proofication/DocumentAudit.sol\":1961:1971  useGasless */\n      dup7\n        /* \"Proofication/DocumentAudit.sol\":1789:1982  DocumentRegistered(... */\n      mload(0x40)\n      tag_171\n      swap5\n      swap4\n      swap3\n      swap2\n      swap1\n      tag_172\n      jump\t// in\n    tag_171:\n      mload(0x40)\n      dup1\n      swap2\n      sub\n      swap1\n      log3\n        /* \"Proofication/DocumentAudit.sol\":1168:1990  function registerDocument(... */\n      pop\n      pop\n      pop\n      pop\n      pop\n      jump\t// out\n        /* \"Proofication/DocumentAudit.sol\":2059:2360  function registerDocumentWithGas(... */\n    tag_78:\n        /* \"@openzeppelin/contracts/security/Pausable.sol\":1239:1258  _requireNotPaused() */\n      tag_174\n        /* \"@openzeppelin/contracts/security/Pausable.sol\":1239:1256  _requireNotPaused */\n      tag_94\n        /* \"@openzeppelin/contracts/security/Pausable.sol\":1239:1258  _requireNotPaused() */\n      jump\t// in\n    tag_174:\n        /* \"Proofication/DocumentAudit.sol\":2273:2352  registerDocument(documentHash, registrantName, organization, identifier, false) */\n      tag_176\n        /* \"Proofication/DocumentAudit.sol\":2290:2302  documentHash */\n      dup5\n        /* \"Proofication/DocumentAudit.sol\":2304:2318  registrantName */\n      dup5\n        /* \"Proofication/DocumentAudit.sol\":2320:2332  organization */\n      dup5\n        /* \"Proofication/DocumentAudit.sol\":2334:2344  identifier */\n      dup5\n        /* \"Proofication/DocumentAudit.sol\":2346:2351  false */\n      0x00\n        /* \"Proofication/DocumentAudit.sol\":2273:2289  registerDocument */\n      tag_75\n        /* \"Proofication/DocumentAudit.sol\":2273:2352  registerDocument(documentHash, registrantName, organization, identifier, false) */\n      jump\t// in\n    tag_176:\n        /* \"Proofication/DocumentAudit.sol\":2059:2360  function registerDocumentWithGas(... */\n      pop\n      pop\n      pop\n      pop\n      jump\t// out\n        /* \"@openzeppelin/contracts/access/Ownable.sol\":2543:2758  function transferOwnership(address newOwner) public virtual onlyOwner {... */\n    tag_81:\n        /* \"@openzeppelin/contracts/access/Ownable.sol\":1531:1544  _checkOwner() */\n      tag_178\n        /* \"@openzeppelin/contracts/access/Ownable.sol\":1531:1542  _checkOwner */\n      tag_88\n        /* \"@openzeppelin/contracts/access/Ownable.sol\":1531:1544  _checkOwner() */\n      jump\t// in\n    tag_178:\n        /* \"@openzeppelin/contracts/access/Ownable.sol\":2647:2648  0 */\n      0x00\n        /* \"@openzeppelin/contracts/access/Ownable.sol\":2627:2649  newOwner == address(0) */\n      0xffffffffffffffffffffffffffffffffffffffff\n      and\n        /* \"@openzeppelin/contracts/access/Ownable.sol\":2627:2635  newOwner */\n      dup2\n        /* \"@openzeppelin/contracts/access/Ownable.sol\":2627:2649  newOwner == address(0) */\n      0xffffffffffffffffffffffffffffffffffffffff\n      and\n      sub\n        /* \"@openzeppelin/contracts/access/Ownable.sol\":2623:2714  if (newOwner == address(0)) {... */\n      tag_180\n      jumpi\n        /* \"@openzeppelin/contracts/access/Ownable.sol\":2700:2701  0 */\n      0x00\n        /* \"@openzeppelin/contracts/access/Ownable.sol\":2672:2703  OwnableInvalidOwner(address(0)) */\n      mload(0x40)\n      0x1e4fbdf700000000000000000000000000000000000000000000000000000000\n      dup2\n      mstore\n      0x04\n      add\n      tag_181\n      swap2\n      swap1\n      tag_48\n      jump\t// in\n    tag_181:\n      mload(0x40)\n      dup1\n      swap2\n      sub\n      swap1\n      revert\n        /* \"@openzeppelin/contracts/access/Ownable.sol\":2623:2714  if (newOwner == address(0)) {... */\n    tag_180:\n        /* \"@openzeppelin/contracts/access/Ownable.sol\":2723:2751  _transferOwnership(newOwner) */\n      tag_182\n        /* \"@openzeppelin/contracts/access/Ownable.sol\":2742:2750  newOwner */\n      dup2\n        /* \"@openzeppelin/contracts/access/Ownable.sol\":2723:2741  _transferOwnership */\n      tag_105\n        /* \"@openzeppelin/contracts/access/Ownable.sol\":2723:2751  _transferOwnership(newOwner) */\n      jump\t// in\n    tag_182:\n        /* \"@openzeppelin/contracts/access/Ownable.sol\":2543:2758  function transferOwnership(address newOwner) public virtual onlyOwner {... */\n      pop\n      jump\t// out\n        /* \"Proofication/DocumentAudit.sol\":4389:4522  function verifyDocument(bytes32 documentHash) public view returns (bool) {... */\n    tag_84:\n        /* \"Proofication/DocumentAudit.sol\":4456:4460  bool */\n      0x00\n        /* \"Proofication/DocumentAudit.sol\":4480:4514  isDocumentRegistered(documentHash) */\n      tag_184\n        /* \"Proofication/DocumentAudit.sol\":4501:4513  documentHash */\n      dup3\n        /* \"Proofication/DocumentAudit.sol\":4480:4500  isDocumentRegistered */\n      tag_41\n        /* \"Proofication/DocumentAudit.sol\":4480:4514  isDocumentRegistered(documentHash) */\n      jump\t// in\n    tag_184:\n        /* \"Proofication/DocumentAudit.sol\":4473:4514  return isDocumentRegistered(documentHash) */\n      swap1\n      pop\n        /* \"Proofication/DocumentAudit.sol\":4389:4522  function verifyDocument(bytes32 documentHash) public view returns (bool) {... */\n      swap2\n      swap1\n      pop\n      jump\t// out\n        /* \"@openzeppelin/contracts/access/Ownable.sol\":1796:1958  function _checkOwner() internal view virtual {... */\n    tag_88:\n        /* \"@openzeppelin/contracts/access/Ownable.sol\":1866:1878  _msgSender() */\n      tag_186\n        /* \"@openzeppelin/contracts/access/Ownable.sol\":1866:1876  _msgSender */\n      tag_146\n        /* \"@openzeppelin/contracts/access/Ownable.sol\":1866:1878  _msgSender() */\n      jump\t// in\n    tag_186:\n        /* \"@openzeppelin/contracts/access/Ownable.sol\":1855:1878  owner() != _msgSender() */\n      0xffffffffffffffffffffffffffffffffffffffff\n      and\n        /* \"@openzeppelin/contracts/access/Ownable.sol\":1855:1862  owner() */\n      tag_187\n        /* \"@openzeppelin/contracts/access/Ownable.sol\":1855:1860  owner */\n      tag_50\n        /* \"@openzeppelin/contracts/access/Ownable.sol\":1855:1862  owner() */\n      jump\t// in\n    tag_187:\n        /* \"@openzeppelin/contracts/access/Ownable.sol\":1855:1878  owner() != _msgSender() */\n      0xffffffffffffffffffffffffffffffffffffffff\n      and\n      eq\n        /* \"@openzeppelin/contracts/access/Ownable.sol\":1851:1952  if (owner() != _msgSender()) {... */\n      tag_188\n      jumpi\n        /* \"@openzeppelin/contracts/access/Ownable.sol\":1928:1940  _msgSender() */\n      tag_189\n        /* \"@openzeppelin/contracts/access/Ownable.sol\":1928:1938  _msgSender */\n      tag_146\n        /* \"@openzeppelin/contracts/access/Ownable.sol\":1928:1940  _msgSender() */\n      jump\t// in\n    tag_189:\n        /* \"@openzeppelin/contracts/access/Ownable.sol\":1901:1941  OwnableUnauthorizedAccount(_msgSender()) */\n      mload(0x40)\n      0x118cdaa700000000000000000000000000000000000000000000000000000000\n      dup2\n      mstore\n      0x04\n      add\n      tag_190\n      swap2\n      swap1\n      tag_48\n      jump\t// in\n    tag_190:\n      mload(0x40)\n      dup1\n      swap2\n      sub\n      swap1\n      revert\n        /* \"@openzeppelin/contracts/access/Ownable.sol\":1851:1952  if (owner() != _msgSender()) {... */\n    tag_188:\n        /* \"@openzeppelin/contracts/access/Ownable.sol\":1796:1958  function _checkOwner() internal view virtual {... */\n      jump\t// out\n        /* \"@openzeppelin/contracts/security/Pausable.sol\":2186:2301  function _pause() internal virtual whenNotPaused {... */\n    tag_91:\n        /* \"@openzeppelin/contracts/security/Pausable.sol\":1239:1258  _requireNotPaused() */\n      tag_192\n        /* \"@openzeppelin/contracts/security/Pausable.sol\":1239:1256  _requireNotPaused */\n      tag_94\n        /* \"@openzeppelin/contracts/security/Pausable.sol\":1239:1258  _requireNotPaused() */\n      jump\t// in\n    tag_192:\n        /* \"@openzeppelin/contracts/security/Pausable.sol\":2255:2259  true */\n      0x01\n        /* \"@openzeppelin/contracts/security/Pausable.sol\":2245:2252  _paused */\n      0x00\n      0x14\n        /* \"@openzeppelin/contracts/security/Pausable.sol\":2245:2259  _paused = true */\n      0x0100\n      exp\n      dup2\n      sload\n      dup2\n      0xff\n      mul\n      not\n      and\n      swap1\n      dup4\n      iszero\n      iszero\n      mul\n      or\n      swap1\n      sstore\n      pop\n        /* \"@openzeppelin/contracts/security/Pausable.sol\":2274:2294  Paused(_msgSender()) */\n      0x62e78cea01bee320cd4e420270b5ea74000d11b0c9f74754ebdbfc544b05a258\n        /* \"@openzeppelin/contracts/security/Pausable.sol\":2281:2293  _msgSender() */\n      tag_194\n        /* \"@openzeppelin/contracts/security/Pausable.sol\":2281:2291  _msgSender */\n      tag_146\n        /* \"@openzeppelin/contracts/security/Pausable.sol\":2281:2293  _msgSender() */\n      jump\t// in\n    tag_194:\n        /* \"@openzeppelin/contracts/security/Pausable.sol\":2274:2294  Paused(_msgSender()) */\n      mload(0x40)\n      tag_195\n      swap2\n      swap1\n      tag_48\n      jump\t// in\n    tag_195:\n      mload(0x40)\n      dup1\n      swap2\n      sub\n      swap1\n      log1\n        /* \"@openzeppelin/contracts/security/Pausable.sol\":2186:2301  function _pause() internal virtual whenNotPaused {... */\n      jump\t// out\n        /* \"@openzeppelin/contracts/security/Pausable.sol\":1767:1873  function _requireNotPaused() internal view virtual {... */\n    tag_94:\n        /* \"@openzeppelin/contracts/security/Pausable.sol\":1837:1845  paused() */\n      tag_197\n        /* \"@openzeppelin/contracts/security/Pausable.sol\":1837:1843  paused */\n      tag_36\n        /* \"@openzeppelin/contracts/security/Pausable.sol\":1837:1845  paused() */\n      jump\t// in\n    tag_197:\n        /* \"@openzeppelin/contracts/security/Pausable.sol\":1836:1845  !paused() */\n      iszero\n        /* \"@openzeppelin/contracts/security/Pausable.sol\":1828:1866  require(!paused(), \"Pausable: paused\") */\n      tag_198\n      jumpi\n      mload(0x40)\n      0x08c379a000000000000000000000000000000000000000000000000000000000\n      dup2\n      mstore\n      0x04\n      add\n      tag_199\n      swap1\n      tag_200\n      jump\t// in\n    tag_199:\n      mload(0x40)\n      dup1\n      swap2\n      sub\n      swap1\n      revert\n    tag_198:\n        /* \"@openzeppelin/contracts/security/Pausable.sol\":1767:1873  function _requireNotPaused() internal view virtual {... */\n      jump\t// out\n        /* \"@openzeppelin/contracts/access/Ownable.sol\":2912:3099  function _transferOwnership(address newOwner) internal virtual {... */\n    tag_105:\n        /* \"@openzeppelin/contracts/access/Ownable.sol\":2985:3001  address oldOwner */\n      0x00\n        /* \"@openzeppelin/contracts/access/Ownable.sol\":3004:3010  _owner */\n      dup1\n      0x00\n      swap1\n      sload\n      swap1\n      0x0100\n      exp\n      swap1\n      div\n      0xffffffffffffffffffffffffffffffffffffffff\n      and\n        /* \"@openzeppelin/contracts/access/Ownable.sol\":2985:3010  address oldOwner = _owner */\n      swap1\n      pop\n        /* \"@openzeppelin/contracts/access/Ownable.sol\":3029:3037  newOwner */\n      dup2\n        /* \"@openzeppelin/contracts/access/Ownable.sol\":3020:3026  _owner */\n      0x00\n      dup1\n        /* \"@openzeppelin/contracts/access/Ownable.sol\":3020:3037  _owner = newOwner */\n      0x0100\n      exp\n      dup2\n      sload\n      dup2\n      0xffffffffffffffffffffffffffffffffffffffff\n      mul\n      not\n      and\n      swap1\n      dup4\n      0xffffffffffffffffffffffffffffffffffffffff\n      and\n      mul\n      or\n      swap1\n      sstore\n      pop\n        /* \"@openzeppelin/contracts/access/Ownable.sol\":3083:3091  newOwner */\n      dup2\n        /* \"@openzeppelin/contracts/access/Ownable.sol\":3052:3092  OwnershipTransferred(oldOwner, newOwner) */\n      0xffffffffffffffffffffffffffffffffffffffff\n      and\n        /* \"@openzeppelin/contracts/access/Ownable.sol\":3073:3081  oldOwner */\n      dup2\n        /* \"@openzeppelin/contracts/access/Ownable.sol\":3052:3092  OwnershipTransferred(oldOwner, newOwner) */\n      0xffffffffffffffffffffffffffffffffffffffff\n      and\n      0x8be0079c531659141344cd1fd0a4f28419497f9722a3daafe3b4186f6b6457e0\n      mload(0x40)\n      mload(0x40)\n      dup1\n      swap2\n      sub\n      swap1\n      log3\n        /* \"@openzeppelin/contracts/access/Ownable.sol\":2975:3099  {... */\n      pop\n        /* \"@openzeppelin/contracts/access/Ownable.sol\":2912:3099  function _transferOwnership(address newOwner) internal virtual {... */\n      pop\n      jump\t// out\n        /* \"Proofication/DocumentAudit.sol\":4960:5110  function _msgSender() internal view override(Context, ERC2771Context)... */\n    tag_146:\n        /* \"Proofication/DocumentAudit.sol\":5048:5055  address */\n      0x00\n        /* \"Proofication/DocumentAudit.sol\":5075:5102  ERC2771Context._msgSender() */\n      tag_203\n        /* \"Proofication/DocumentAudit.sol\":5075:5100  ERC2771Context._msgSender */\n      tag_204\n        /* \"Proofication/DocumentAudit.sol\":5075:5102  ERC2771Context._msgSender() */\n      jump\t// in\n    tag_203:\n        /* \"Proofication/DocumentAudit.sol\":5068:5102  return ERC2771Context._msgSender() */\n      swap1\n      pop\n        /* \"Proofication/DocumentAudit.sol\":4960:5110  function _msgSender() internal view override(Context, ERC2771Context)... */\n      swap1\n      jump\t// out\n        /* \"@openzeppelin/contracts/security/Pausable.sol\":2433:2550  function _unpause() internal virtual whenPaused {... */\n    tag_157:\n        /* \"@openzeppelin/contracts/security/Pausable.sol\":1486:1502  _requirePaused() */\n      tag_206\n        /* \"@openzeppelin/contracts/security/Pausable.sol\":1486:1500  _requirePaused */\n      tag_207\n        /* \"@openzeppelin/contracts/security/Pausable.sol\":1486:1502  _requirePaused() */\n      jump\t// in\n    tag_206:\n        /* \"@openzeppelin/contracts/security/Pausable.sol\":2501:2506  false */\n      0x00\n        /* \"@openzeppelin/contracts/security/Pausable.sol\":2491:2498  _paused */\n      dup1\n      0x14\n        /* \"@openzeppelin/contracts/security/Pausable.sol\":2491:2506  _paused = false */\n      0x0100\n      exp\n      dup2\n      sload\n      dup2\n      0xff\n      mul\n      not\n      and\n      swap1\n      dup4\n      iszero\n      iszero\n      mul\n      or\n      swap1\n      sstore\n      pop\n        /* \"@openzeppelin/contracts/security/Pausable.sol\":2521:2543  Unpaused(_msgSender()) */\n      0x5db9ee0a495bf2e6ff9c91a7834c1ba4fdd244a5e8aa4e537bd38aeae4b073aa\n        /* \"@openzeppelin/contracts/security/Pausable.sol\":2530:2542  _msgSender() */\n      tag_209\n        /* \"@openzeppelin/contracts/security/Pausable.sol\":2530:2540  _msgSender */\n      tag_146\n        /* \"@openzeppelin/contracts/security/Pausable.sol\":2530:2542  _msgSender() */\n      jump\t// in\n    tag_209:\n        /* \"@openzeppelin/contracts/security/Pausable.sol\":2521:2543  Unpaused(_msgSender()) */\n      mload(0x40)\n      tag_210\n      swap2\n      swap1\n      tag_48\n      jump\t// in\n    tag_210:\n      mload(0x40)\n      dup1\n      swap2\n      sub\n      swap1\n      log1\n        /* \"@openzeppelin/contracts/security/Pausable.sol\":2433:2550  function _unpause() internal virtual whenPaused {... */\n      jump\t// out\n        /* \"@openzeppelin/contracts/metatx/ERC2771Context.sol\":2206:2635  function _msgSender() internal view virtual override returns (address) {... */\n    tag_204:\n        /* \"@openzeppelin/contracts/metatx/ERC2771Context.sol\":2268:2275  address */\n      0x00\n        /* \"@openzeppelin/contracts/metatx/ERC2771Context.sol\":2287:2309  uint256 calldataLength */\n      dup1\n        /* \"@openzeppelin/contracts/metatx/ERC2771Context.sol\":2312:2320  msg.data */\n      0x00\n      calldatasize\n        /* \"@openzeppelin/contracts/metatx/ERC2771Context.sol\":2312:2327  msg.data.length */\n      swap1\n      pop\n        /* \"@openzeppelin/contracts/metatx/ERC2771Context.sol\":2287:2327  uint256 calldataLength = msg.data.length */\n      swap1\n      pop\n        /* \"@openzeppelin/contracts/metatx/ERC2771Context.sol\":2337:2364  uint256 contextSuffixLength */\n      0x00\n        /* \"@openzeppelin/contracts/metatx/ERC2771Context.sol\":2367:2389  _contextSuffixLength() */\n      tag_212\n        /* \"@openzeppelin/contracts/metatx/ERC2771Context.sol\":2367:2387  _contextSuffixLength */\n      tag_213\n        /* \"@openzeppelin/contracts/metatx/ERC2771Context.sol\":2367:2389  _contextSuffixLength() */\n      jump\t// in\n    tag_212:\n        /* \"@openzeppelin/contracts/metatx/ERC2771Context.sol\":2337:2389  uint256 contextSuffixLength = _contextSuffixLength() */\n      swap1\n      pop\n        /* \"@openzeppelin/contracts/metatx/ERC2771Context.sol\":2403:2433  isTrustedForwarder(msg.sender) */\n      tag_214\n        /* \"@openzeppelin/contracts/metatx/ERC2771Context.sol\":2422:2432  msg.sender */\n      caller\n        /* \"@openzeppelin/contracts/metatx/ERC2771Context.sol\":2403:2421  isTrustedForwarder */\n      tag_32\n        /* \"@openzeppelin/contracts/metatx/ERC2771Context.sol\":2403:2433  isTrustedForwarder(msg.sender) */\n      jump\t// in\n    tag_214:\n        /* \"@openzeppelin/contracts/metatx/ERC2771Context.sol\":2403:2474  isTrustedForwarder(msg.sender) && calldataLength >= contextSuffixLength */\n      dup1\n      iszero\n      tag_215\n      jumpi\n      pop\n        /* \"@openzeppelin/contracts/metatx/ERC2771Context.sol\":2455:2474  contextSuffixLength */\n      dup1\n        /* \"@openzeppelin/contracts/metatx/ERC2771Context.sol\":2437:2451  calldataLength */\n      dup3\n        /* \"@openzeppelin/contracts/metatx/ERC2771Context.sol\":2437:2474  calldataLength >= contextSuffixLength */\n      lt\n      iszero\n        /* \"@openzeppelin/contracts/metatx/ERC2771Context.sol\":2403:2474  isTrustedForwarder(msg.sender) && calldataLength >= contextSuffixLength */\n    tag_215:\n        /* \"@openzeppelin/contracts/metatx/ERC2771Context.sol\":2399:2629  if (isTrustedForwarder(msg.sender) && calldataLength >= contextSuffixLength) {... */\n      iszero\n      tag_216\n      jumpi\n        /* \"@openzeppelin/contracts/metatx/ERC2771Context.sol\":2513:2521  msg.data */\n      0x00\n      calldatasize\n        /* \"@openzeppelin/contracts/metatx/ERC2771Context.sol\":2539:2558  contextSuffixLength */\n      dup3\n        /* \"@openzeppelin/contracts/metatx/ERC2771Context.sol\":2522:2536  calldataLength */\n      dup5\n        /* \"@openzeppelin/contracts/metatx/ERC2771Context.sol\":2522:2558  calldataLength - contextSuffixLength */\n      tag_217\n      swap2\n      swap1\n      tag_218\n      jump\t// in\n    tag_217:\n        /* \"@openzeppelin/contracts/metatx/ERC2771Context.sol\":2513:2560  msg.data[calldataLength - contextSuffixLength:] */\n      swap1\n      dup1\n      swap3\n      tag_219\n      swap4\n      swap3\n      swap2\n      swap1\n      tag_220\n      jump\t// in\n    tag_219:\n        /* \"@openzeppelin/contracts/metatx/ERC2771Context.sol\":2505:2561  bytes20(msg.data[calldataLength - contextSuffixLength:]) */\n      swap1\n      tag_221\n      swap2\n      swap1\n      tag_222\n      jump\t// in\n    tag_221:\n        /* \"@openzeppelin/contracts/metatx/ERC2771Context.sol\":2497:2562  address(bytes20(msg.data[calldataLength - contextSuffixLength:])) */\n      0x60\n      shr\n        /* \"@openzeppelin/contracts/metatx/ERC2771Context.sol\":2490:2562  return address(bytes20(msg.data[calldataLength - contextSuffixLength:])) */\n      swap3\n      pop\n      pop\n      pop\n      jump(tag_211)\n        /* \"@openzeppelin/contracts/metatx/ERC2771Context.sol\":2399:2629  if (isTrustedForwarder(msg.sender) && calldataLength >= contextSuffixLength) {... */\n    tag_216:\n        /* \"@openzeppelin/contracts/metatx/ERC2771Context.sol\":2600:2618  super._msgSender() */\n      tag_224\n        /* \"@openzeppelin/contracts/metatx/ERC2771Context.sol\":2600:2616  super._msgSender */\n      tag_225\n        /* \"@openzeppelin/contracts/metatx/ERC2771Context.sol\":2600:2618  super._msgSender() */\n      jump\t// in\n    tag_224:\n        /* \"@openzeppelin/contracts/metatx/ERC2771Context.sol\":2593:2618  return super._msgSender() */\n      swap3\n      pop\n      pop\n      pop\n        /* \"@openzeppelin/contracts/metatx/ERC2771Context.sol\":2206:2635  function _msgSender() internal view virtual override returns (address) {... */\n    tag_211:\n      swap1\n      jump\t// out\n        /* \"@openzeppelin/contracts/security/Pausable.sol\":1945:2051  function _requirePaused() internal view virtual {... */\n    tag_207:\n        /* \"@openzeppelin/contracts/security/Pausable.sol\":2011:2019  paused() */\n      tag_227\n        /* \"@openzeppelin/contracts/security/Pausable.sol\":2011:2017  paused */\n      tag_36\n        /* \"@openzeppelin/contracts/security/Pausable.sol\":2011:2019  paused() */\n      jump\t// in\n    tag_227:\n        /* \"@openzeppelin/contracts/security/Pausable.sol\":2003:2044  require(paused(), \"Pausable: not paused\") */\n      tag_228\n      jumpi\n      mload(0x40)\n      0x08c379a000000000000000000000000000000000000000000000000000000000\n      dup2\n      mstore\n      0x04\n      add\n      tag_229\n      swap1\n      tag_230\n      jump\t// in\n    tag_229:\n      mload(0x40)\n      dup1\n      swap2\n      sub\n      swap1\n      revert\n    tag_228:\n        /* \"@openzeppelin/contracts/security/Pausable.sol\":1945:2051  function _requirePaused() internal view virtual {... */\n      jump\t// out\n        /* \"Proofication/DocumentAudit.sol\":5279:5440  function _contextSuffixLength() internal view override(Context, ERC2771Context) returns (uint256) {... */\n    tag_213:\n        /* \"Proofication/DocumentAudit.sol\":5368:5375  uint256 */\n      0x00\n        /* \"Proofication/DocumentAudit.sol\":5395:5432  ERC2771Context._contextSuffixLength() */\n      tag_232\n        /* \"Proofication/DocumentAudit.sol\":5395:5430  ERC2771Context._contextSuffixLength */\n      tag_233\n        /* \"Proofication/DocumentAudit.sol\":5395:5432  ERC2771Context._contextSuffixLength() */\n      jump\t// in\n    tag_232:\n        /* \"Proofication/DocumentAudit.sol\":5388:5432  return ERC2771Context._contextSuffixLength() */\n      swap1\n      pop\n        /* \"Proofication/DocumentAudit.sol\":5279:5440  function _contextSuffixLength() internal view override(Context, ERC2771Context) returns (uint256) {... */\n      swap1\n      jump\t// out\n        /* \"@openzeppelin/contracts/utils/Context.sol\":656:752  function _msgSender() internal view virtual returns (address) {... */\n    tag_225:\n        /* \"@openzeppelin/contracts/utils/Context.sol\":709:716  address */\n      0x00\n        /* \"@openzeppelin/contracts/utils/Context.sol\":735:745  msg.sender */\n      caller\n        /* \"@openzeppelin/contracts/utils/Context.sol\":728:745  return msg.sender */\n      swap1\n      pop\n        /* \"@openzeppelin/contracts/utils/Context.sol\":656:752  function _msgSender() internal view virtual returns (address) {... */\n      swap1\n      jump\t// out\n        /* \"@openzeppelin/contracts/metatx/ERC2771Context.sol\":3385:3492  function _contextSuffixLength() internal view virtual override returns (uint256) {... */\n    tag_233:\n        /* \"@openzeppelin/contracts/metatx/ERC2771Context.sol\":3457:3464  uint256 */\n      0x00\n        /* \"@openzeppelin/contracts/metatx/ERC2771Context.sol\":3483:3485  20 */\n      0x14\n        /* \"@openzeppelin/contracts/metatx/ERC2771Context.sol\":3476:3485  return 20 */\n      swap1\n      pop\n        /* \"@openzeppelin/contracts/metatx/ERC2771Context.sol\":3385:3492  function _contextSuffixLength() internal view virtual override returns (uint256) {... */\n      swap1\n      jump\t// out\n        /* \"#utility.yul\":7:82   */\n    tag_236:\n        /* \"#utility.yul\":40:46   */\n      0x00\n        /* \"#utility.yul\":73:75   */\n      0x40\n        /* \"#utility.yul\":67:76   */\n      mload\n        /* \"#utility.yul\":57:76   */\n      swap1\n      pop\n        /* \"#utility.yul\":7:82   */\n      swap1\n      jump\t// out\n        /* \"#utility.yul\":88:205   */\n    tag_237:\n        /* \"#utility.yul\":197:198   */\n      0x00\n        /* \"#utility.yul\":194:195   */\n      dup1\n        /* \"#utility.yul\":187:199   */\n      revert\n        /* \"#utility.yul\":211:328   */\n    tag_238:\n        /* \"#utility.yul\":320:321   */\n      0x00\n        /* \"#utility.yul\":317:318   */\n      dup1\n        /* \"#utility.yul\":310:322   */\n      revert\n        /* \"#utility.yul\":334:411   */\n    tag_239:\n        /* \"#utility.yul\":371:378   */\n      0x00\n        /* \"#utility.yul\":400:405   */\n      dup2\n        /* \"#utility.yul\":389:405   */\n      swap1\n      pop\n        /* \"#utility.yul\":334:411   */\n      swap2\n      swap1\n      pop\n      jump\t// out\n        /* \"#utility.yul\":417:539   */\n    tag_240:\n        /* \"#utility.yul\":490:514   */\n      tag_307\n        /* \"#utility.yul\":508:513   */\n      dup2\n        /* \"#utility.yul\":490:514   */\n      tag_239\n      jump\t// in\n    tag_307:\n        /* \"#utility.yul\":483:488   */\n      dup2\n        /* \"#utility.yul\":480:515   */\n      eq\n        /* \"#utility.yul\":470:533   */\n      tag_308\n      jumpi\n        /* \"#utility.yul\":529:530   */\n      0x00\n        /* \"#utility.yul\":526:527   */\n      dup1\n        /* \"#utility.yul\":519:531   */\n      revert\n        /* \"#utility.yul\":470:533   */\n    tag_308:\n        /* \"#utility.yul\":417:539   */\n      pop\n      jump\t// out\n        /* \"#utility.yul\":545:684   */\n    tag_241:\n        /* \"#utility.yul\":591:596   */\n      0x00\n        /* \"#utility.yul\":629:635   */\n      dup2\n        /* \"#utility.yul\":616:636   */\n      calldataload\n        /* \"#utility.yul\":607:636   */\n      swap1\n      pop\n        /* \"#utility.yul\":645:678   */\n      tag_310\n        /* \"#utility.yul\":672:677   */\n      dup2\n        /* \"#utility.yul\":645:678   */\n      tag_240\n      jump\t// in\n    tag_310:\n        /* \"#utility.yul\":545:684   */\n      swap3\n      swap2\n      pop\n      pop\n      jump\t// out\n        /* \"#utility.yul\":690:807   */\n    tag_242:\n        /* \"#utility.yul\":799:800   */\n      0x00\n        /* \"#utility.yul\":796:797   */\n      dup1\n        /* \"#utility.yul\":789:801   */\n      revert\n        /* \"#utility.yul\":813:930   */\n    tag_243:\n        /* \"#utility.yul\":922:923   */\n      0x00\n        /* \"#utility.yul\":919:920   */\n      dup1\n        /* \"#utility.yul\":912:924   */\n      revert\n        /* \"#utility.yul\":936:1038   */\n    tag_244:\n        /* \"#utility.yul\":977:983   */\n      0x00\n        /* \"#utility.yul\":1028:1030   */\n      0x1f\n        /* \"#utility.yul\":1024:1031   */\n      not\n        /* \"#utility.yul\":1019:1021   */\n      0x1f\n        /* \"#utility.yul\":1012:1017   */\n      dup4\n        /* \"#utility.yul\":1008:1022   */\n      add\n        /* \"#utility.yul\":1004:1032   */\n      and\n        /* \"#utility.yul\":994:1032   */\n      swap1\n      pop\n        /* \"#utility.yul\":936:1038   */\n      swap2\n      swap1\n      pop\n      jump\t// out\n        /* \"#utility.yul\":1044:1224   */\n    tag_245:\n        /* \"#utility.yul\":1092:1169   */\n      0x4e487b7100000000000000000000000000000000000000000000000000000000\n        /* \"#utility.yul\":1089:1090   */\n      0x00\n        /* \"#utility.yul\":1082:1170   */\n      mstore\n        /* \"#utility.yul\":1189:1193   */\n      0x41\n        /* \"#utility.yul\":1186:1187   */\n      0x04\n        /* \"#utility.yul\":1179:1194   */\n      mstore\n        /* \"#utility.yul\":1213:1217   */\n      0x24\n        /* \"#utility.yul\":1210:1211   */\n      0x00\n        /* \"#utility.yul\":1203:1218   */\n      revert\n        /* \"#utility.yul\":1230:1511   */\n    tag_246:\n        /* \"#utility.yul\":1313:1340   */\n      tag_316\n        /* \"#utility.yul\":1335:1339   */\n      dup3\n        /* \"#utility.yul\":1313:1340   */\n      tag_244\n      jump\t// in\n    tag_316:\n        /* \"#utility.yul\":1305:1311   */\n      dup2\n        /* \"#utility.yul\":1301:1341   */\n      add\n        /* \"#utility.yul\":1443:1449   */\n      dup2\n        /* \"#utility.yul\":1431:1441   */\n      dup2\n        /* \"#utility.yul\":1428:1450   */\n      lt\n        /* \"#utility.yul\":1407:1425   */\n      0xffffffffffffffff\n        /* \"#utility.yul\":1395:1405   */\n      dup3\n        /* \"#utility.yul\":1392:1426   */\n      gt\n        /* \"#utility.yul\":1389:1451   */\n      or\n        /* \"#utility.yul\":1386:1474   */\n      iszero\n      tag_317\n      jumpi\n        /* \"#utility.yul\":1454:1472   */\n      tag_318\n      tag_245\n      jump\t// in\n    tag_318:\n        /* \"#utility.yul\":1386:1474   */\n    tag_317:\n        /* \"#utility.yul\":1494:1504   */\n      dup1\n        /* \"#utility.yul\":1490:1492   */\n      0x40\n        /* \"#utility.yul\":1483:1505   */\n      mstore\n        /* \"#utility.yul\":1273:1511   */\n      pop\n        /* \"#utility.yul\":1230:1511   */\n      pop\n      pop\n      jump\t// out\n        /* \"#utility.yul\":1517:1646   */\n    tag_247:\n        /* \"#utility.yul\":1551:1557   */\n      0x00\n        /* \"#utility.yul\":1578:1598   */\n      tag_320\n      tag_236\n      jump\t// in\n    tag_320:\n        /* \"#utility.yul\":1568:1598   */\n      swap1\n      pop\n        /* \"#utility.yul\":1607:1640   */\n      tag_321\n        /* \"#utility.yul\":1635:1639   */\n      dup3\n        /* \"#utility.yul\":1627:1633   */\n      dup3\n        /* \"#utility.yul\":1607:1640   */\n      tag_246\n      jump\t// in\n    tag_321:\n        /* \"#utility.yul\":1517:1646   */\n      swap2\n      swap1\n      pop\n      jump\t// out\n        /* \"#utility.yul\":1652:1960   */\n    tag_248:\n        /* \"#utility.yul\":1714:1718   */\n      0x00\n        /* \"#utility.yul\":1804:1822   */\n      0xffffffffffffffff\n        /* \"#utility.yul\":1796:1802   */\n      dup3\n        /* \"#utility.yul\":1793:1823   */\n      gt\n        /* \"#utility.yul\":1790:1846   */\n      iszero\n      tag_323\n      jumpi\n        /* \"#utility.yul\":1826:1844   */\n      tag_324\n      tag_245\n      jump\t// in\n    tag_324:\n        /* \"#utility.yul\":1790:1846   */\n    tag_323:\n        /* \"#utility.yul\":1864:1893   */\n      tag_325\n        /* \"#utility.yul\":1886:1892   */\n      dup3\n        /* \"#utility.yul\":1864:1893   */\n      tag_244\n      jump\t// in\n    tag_325:\n        /* \"#utility.yul\":1856:1893   */\n      swap1\n      pop\n        /* \"#utility.yul\":1948:1952   */\n      0x20\n        /* \"#utility.yul\":1942:1946   */\n      dup2\n        /* \"#utility.yul\":1938:1953   */\n      add\n        /* \"#utility.yul\":1930:1953   */\n      swap1\n      pop\n        /* \"#utility.yul\":1652:1960   */\n      swap2\n      swap1\n      pop\n      jump\t// out\n        /* \"#utility.yul\":1966:2114   */\n    tag_249:\n        /* \"#utility.yul\":2064:2070   */\n      dup3\n        /* \"#utility.yul\":2059:2062   */\n      dup2\n        /* \"#utility.yul\":2054:2057   */\n      dup4\n        /* \"#utility.yul\":2041:2071   */\n      calldatacopy\n        /* \"#utility.yul\":2105:2106   */\n      0x00\n        /* \"#utility.yul\":2096:2102   */\n      dup4\n        /* \"#utility.yul\":2091:2094   */\n      dup4\n        /* \"#utility.yul\":2087:2103   */\n      add\n        /* \"#utility.yul\":2080:2107   */\n      mstore\n        /* \"#utility.yul\":1966:2114   */\n      pop\n      pop\n      pop\n      jump\t// out\n        /* \"#utility.yul\":2120:2545   */\n    tag_250:\n        /* \"#utility.yul\":2198:2203   */\n      0x00\n        /* \"#utility.yul\":2223:2289   */\n      tag_328\n        /* \"#utility.yul\":2239:2288   */\n      tag_329\n        /* \"#utility.yul\":2281:2287   */\n      dup5\n        /* \"#utility.yul\":2239:2288   */\n      tag_248\n      jump\t// in\n    tag_329:\n        /* \"#utility.yul\":2223:2289   */\n      tag_247\n      jump\t// in\n    tag_328:\n        /* \"#utility.yul\":2214:2289   */\n      swap1\n      pop\n        /* \"#utility.yul\":2312:2318   */\n      dup3\n        /* \"#utility.yul\":2305:2310   */\n      dup2\n        /* \"#utility.yul\":2298:2319   */\n      mstore\n        /* \"#utility.yul\":2350:2354   */\n      0x20\n        /* \"#utility.yul\":2343:2348   */\n      dup2\n        /* \"#utility.yul\":2339:2355   */\n      add\n        /* \"#utility.yul\":2388:2391   */\n      dup5\n        /* \"#utility.yul\":2379:2385   */\n      dup5\n        /* \"#utility.yul\":2374:2377   */\n      dup5\n        /* \"#utility.yul\":2370:2386   */\n      add\n        /* \"#utility.yul\":2367:2392   */\n      gt\n        /* \"#utility.yul\":2364:2476   */\n      iszero\n      tag_330\n      jumpi\n        /* \"#utility.yul\":2395:2474   */\n      tag_331\n      tag_243\n      jump\t// in\n    tag_331:\n        /* \"#utility.yul\":2364:2476   */\n    tag_330:\n        /* \"#utility.yul\":2485:2539   */\n      tag_332\n        /* \"#utility.yul\":2532:2538   */\n      dup5\n        /* \"#utility.yul\":2527:2530   */\n      dup3\n        /* \"#utility.yul\":2522:2525   */\n      dup6\n        /* \"#utility.yul\":2485:2539   */\n      tag_249\n      jump\t// in\n    tag_332:\n        /* \"#utility.yul\":2204:2545   */\n      pop\n        /* \"#utility.yul\":2120:2545   */\n      swap4\n      swap3\n      pop\n      pop\n      pop\n      jump\t// out\n        /* \"#utility.yul\":2565:2905   */\n    tag_251:\n        /* \"#utility.yul\":2621:2626   */\n      0x00\n        /* \"#utility.yul\":2670:2673   */\n      dup3\n        /* \"#utility.yul\":2663:2667   */\n      0x1f\n        /* \"#utility.yul\":2655:2661   */\n      dup4\n        /* \"#utility.yul\":2651:2668   */\n      add\n        /* \"#utility.yul\":2647:2674   */\n      slt\n        /* \"#utility.yul\":2637:2759   */\n      tag_334\n      jumpi\n        /* \"#utility.yul\":2678:2757   */\n      tag_335\n      tag_242\n      jump\t// in\n    tag_335:\n        /* \"#utility.yul\":2637:2759   */\n    tag_334:\n        /* \"#utility.yul\":2795:2801   */\n      dup2\n        /* \"#utility.yul\":2782:2802   */\n      calldataload\n        /* \"#utility.yul\":2820:2899   */\n      tag_336\n        /* \"#utility.yul\":2895:2898   */\n      dup5\n        /* \"#utility.yul\":2887:2893   */\n      dup3\n        /* \"#utility.yul\":2880:2884   */\n      0x20\n        /* \"#utility.yul\":2872:2878   */\n      dup7\n        /* \"#utility.yul\":2868:2885   */\n      add\n        /* \"#utility.yul\":2820:2899   */\n      tag_250\n      jump\t// in\n    tag_336:\n        /* \"#utility.yul\":2811:2899   */\n      swap2\n      pop\n        /* \"#utility.yul\":2627:2905   */\n      pop\n        /* \"#utility.yul\":2565:2905   */\n      swap3\n      swap2\n      pop\n      pop\n      jump\t// out\n        /* \"#utility.yul\":2911:4216   */\n    tag_27:\n        /* \"#utility.yul\":3027:3033   */\n      0x00\n        /* \"#utility.yul\":3035:3041   */\n      dup1\n        /* \"#utility.yul\":3043:3049   */\n      0x00\n        /* \"#utility.yul\":3051:3057   */\n      dup1\n        /* \"#utility.yul\":3100:3103   */\n      0x80\n        /* \"#utility.yul\":3088:3097   */\n      dup6\n        /* \"#utility.yul\":3079:3086   */\n      dup8\n        /* \"#utility.yul\":3075:3098   */\n      sub\n        /* \"#utility.yul\":3071:3104   */\n      slt\n        /* \"#utility.yul\":3068:3188   */\n      iszero\n      tag_338\n      jumpi\n        /* \"#utility.yul\":3107:3186   */\n      tag_339\n      tag_237\n      jump\t// in\n    tag_339:\n        /* \"#utility.yul\":3068:3188   */\n    tag_338:\n        /* \"#utility.yul\":3227:3228   */\n      0x00\n        /* \"#utility.yul\":3252:3305   */\n      tag_340\n        /* \"#utility.yul\":3297:3304   */\n      dup8\n        /* \"#utility.yul\":3288:3294   */\n      dup3\n        /* \"#utility.yul\":3277:3286   */\n      dup9\n        /* \"#utility.yul\":3273:3295   */\n      add\n        /* \"#utility.yul\":3252:3305   */\n      tag_241\n      jump\t// in\n    tag_340:\n        /* \"#utility.yul\":3242:3305   */\n      swap5\n      pop\n        /* \"#utility.yul\":3198:3315   */\n      pop\n        /* \"#utility.yul\":3382:3384   */\n      0x20\n        /* \"#utility.yul\":3371:3380   */\n      dup6\n        /* \"#utility.yul\":3367:3385   */\n      add\n        /* \"#utility.yul\":3354:3386   */\n      calldataload\n        /* \"#utility.yul\":3413:3431   */\n      0xffffffffffffffff\n        /* \"#utility.yul\":3405:3411   */\n      dup2\n        /* \"#utility.yul\":3402:3432   */\n      gt\n        /* \"#utility.yul\":3399:3516   */\n      iszero\n      tag_341\n      jumpi\n        /* \"#utility.yul\":3435:3514   */\n      tag_342\n      tag_238\n      jump\t// in\n    tag_342:\n        /* \"#utility.yul\":3399:3516   */\n    tag_341:\n        /* \"#utility.yul\":3540:3603   */\n      tag_343\n        /* \"#utility.yul\":3595:3602   */\n      dup8\n        /* \"#utility.yul\":3586:3592   */\n      dup3\n        /* \"#utility.yul\":3575:3584   */\n      dup9\n        /* \"#utility.yul\":3571:3593   */\n      add\n        /* \"#utility.yul\":3540:3603   */\n      tag_251\n      jump\t// in\n    tag_343:\n        /* \"#utility.yul\":3530:3603   */\n      swap4\n      pop\n        /* \"#utility.yul\":3325:3613   */\n      pop\n        /* \"#utility.yul\":3680:3682   */\n      0x40\n        /* \"#utility.yul\":3669:3678   */\n      dup6\n        /* \"#utility.yul\":3665:3683   */\n      add\n        /* \"#utility.yul\":3652:3684   */\n      calldataload\n        /* \"#utility.yul\":3711:3729   */\n      0xffffffffffffffff\n        /* \"#utility.yul\":3703:3709   */\n      dup2\n        /* \"#utility.yul\":3700:3730   */\n      gt\n        /* \"#utility.yul\":3697:3814   */\n      iszero\n      tag_344\n      jumpi\n        /* \"#utility.yul\":3733:3812   */\n      tag_345\n      tag_238\n      jump\t// in\n    tag_345:\n        /* \"#utility.yul\":3697:3814   */\n    tag_344:\n        /* \"#utility.yul\":3838:3901   */\n      tag_346\n        /* \"#utility.yul\":3893:3900   */\n      dup8\n        /* \"#utility.yul\":3884:3890   */\n      dup3\n        /* \"#utility.yul\":3873:3882   */\n      dup9\n        /* \"#utility.yul\":3869:3891   */\n      add\n        /* \"#utility.yul\":3838:3901   */\n      tag_251\n      jump\t// in\n    tag_346:\n        /* \"#utility.yul\":3828:3901   */\n      swap3\n      pop\n        /* \"#utility.yul\":3623:3911   */\n      pop\n        /* \"#utility.yul\":3978:3980   */\n      0x60\n        /* \"#utility.yul\":3967:3976   */\n      dup6\n        /* \"#utility.yul\":3963:3981   */\n      add\n        /* \"#utility.yul\":3950:3982   */\n      calldataload\n        /* \"#utility.yul\":4009:4027   */\n      0xffffffffffffffff\n        /* \"#utility.yul\":4001:4007   */\n      dup2\n        /* \"#utility.yul\":3998:4028   */\n      gt\n        /* \"#utility.yul\":3995:4112   */\n      iszero\n      tag_347\n      jumpi\n        /* \"#utility.yul\":4031:4110   */\n      tag_348\n      tag_238\n      jump\t// in\n    tag_348:\n        /* \"#utility.yul\":3995:4112   */\n    tag_347:\n        /* \"#utility.yul\":4136:4199   */\n      tag_349\n        /* \"#utility.yul\":4191:4198   */\n      dup8\n        /* \"#utility.yul\":4182:4188   */\n      dup3\n        /* \"#utility.yul\":4171:4180   */\n      dup9\n        /* \"#utility.yul\":4167:4189   */\n      add\n        /* \"#utility.yul\":4136:4199   */\n      tag_251\n      jump\t// in\n    tag_349:\n        /* \"#utility.yul\":4126:4199   */\n      swap2\n      pop\n        /* \"#utility.yul\":3921:4209   */\n      pop\n        /* \"#utility.yul\":2911:4216   */\n      swap3\n      swap6\n      swap2\n      swap5\n      pop\n      swap3\n      pop\n      jump\t// out\n        /* \"#utility.yul\":4222:4348   */\n    tag_252:\n        /* \"#utility.yul\":4259:4266   */\n      0x00\n        /* \"#utility.yul\":4299:4341   */\n      0xffffffffffffffffffffffffffffffffffffffff\n        /* \"#utility.yul\":4292:4297   */\n      dup3\n        /* \"#utility.yul\":4288:4342   */\n      and\n        /* \"#utility.yul\":4277:4342   */\n      swap1\n      pop\n        /* \"#utility.yul\":4222:4348   */\n      swap2\n      swap1\n      pop\n      jump\t// out\n        /* \"#utility.yul\":4354:4450   */\n    tag_253:\n        /* \"#utility.yul\":4391:4398   */\n      0x00\n        /* \"#utility.yul\":4420:4444   */\n      tag_352\n        /* \"#utility.yul\":4438:4443   */\n      dup3\n        /* \"#utility.yul\":4420:4444   */\n      tag_252\n      jump\t// in\n    tag_352:\n        /* \"#utility.yul\":4409:4444   */\n      swap1\n      pop\n        /* \"#utility.yul\":4354:4450   */\n      swap2\n      swap1\n      pop\n      jump\t// out\n        /* \"#utility.yul\":4456:4578   */\n    tag_254:\n        /* \"#utility.yul\":4529:4553   */\n      tag_354\n        /* \"#utility.yul\":4547:4552   */\n      dup2\n        /* \"#utility.yul\":4529:4553   */\n      tag_253\n      jump\t// in\n    tag_354:\n        /* \"#utility.yul\":4522:4527   */\n      dup2\n        /* \"#utility.yul\":4519:4554   */\n      eq\n        /* \"#utility.yul\":4509:4572   */\n      tag_355\n      jumpi\n        /* \"#utility.yul\":4568:4569   */\n      0x00\n        /* \"#utility.yul\":4565:4566   */\n      dup1\n        /* \"#utility.yul\":4558:4570   */\n      revert\n        /* \"#utility.yul\":4509:4572   */\n    tag_355:\n        /* \"#utility.yul\":4456:4578   */\n      pop\n      jump\t// out\n        /* \"#utility.yul\":4584:4723   */\n    tag_255:\n        /* \"#utility.yul\":4630:4635   */\n      0x00\n        /* \"#utility.yul\":4668:4674   */\n      dup2\n        /* \"#utility.yul\":4655:4675   */\n      calldataload\n        /* \"#utility.yul\":4646:4675   */\n      swap1\n      pop\n        /* \"#utility.yul\":4684:4717   */\n      tag_357\n        /* \"#utility.yul\":4711:4716   */\n      dup2\n        /* \"#utility.yul\":4684:4717   */\n      tag_254\n      jump\t// in\n    tag_357:\n        /* \"#utility.yul\":4584:4723   */\n      swap3\n      swap2\n      pop\n      pop\n      jump\t// out\n        /* \"#utility.yul\":4729:5058   */\n    tag_31:\n        /* \"#utility.yul\":4788:4794   */\n      0x00\n        /* \"#utility.yul\":4837:4839   */\n      0x20\n        /* \"#utility.yul\":4825:4834   */\n      dup3\n        /* \"#utility.yul\":4816:4823   */\n      dup5\n        /* \"#utility.yul\":4812:4835   */\n      sub\n        /* \"#utility.yul\":4808:4840   */\n      slt\n        /* \"#utility.yul\":4805:4924   */\n      iszero\n      tag_359\n      jumpi\n        /* \"#utility.yul\":4843:4922   */\n      tag_360\n      tag_237\n      jump\t// in\n    tag_360:\n        /* \"#utility.yul\":4805:4924   */\n    tag_359:\n        /* \"#utility.yul\":4963:4964   */\n      0x00\n        /* \"#utility.yul\":4988:5041   */\n      tag_361\n        /* \"#utility.yul\":5033:5040   */\n      dup5\n        /* \"#utility.yul\":5024:5030   */\n      dup3\n        /* \"#utility.yul\":5013:5022   */\n      dup6\n        /* \"#utility.yul\":5009:5031   */\n      add\n        /* \"#utility.yul\":4988:5041   */\n      tag_255\n      jump\t// in\n    tag_361:\n        /* \"#utility.yul\":4978:5041   */\n      swap2\n      pop\n        /* \"#utility.yul\":4934:5051   */\n      pop\n        /* \"#utility.yul\":4729:5058   */\n      swap3\n      swap2\n      pop\n      pop\n      jump\t// out\n        /* \"#utility.yul\":5064:5154   */\n    tag_256:\n        /* \"#utility.yul\":5098:5105   */\n      0x00\n        /* \"#utility.yul\":5141:5146   */\n      dup2\n        /* \"#utility.yul\":5134:5147   */\n      iszero\n        /* \"#utility.yul\":5127:5148   */\n      iszero\n        /* \"#utility.yul\":5116:5148   */\n      swap1\n      pop\n        /* \"#utility.yul\":5064:5154   */\n      swap2\n      swap1\n      pop\n      jump\t// out\n        /* \"#utility.yul\":5160:5269   */\n    tag_257:\n        /* \"#utility.yul\":5241:5262   */\n      tag_364\n        /* \"#utility.yul\":5256:5261   */\n      dup2\n        /* \"#utility.yul\":5241:5262   */\n      tag_256\n      jump\t// in\n    tag_364:\n        /* \"#utility.yul\":5236:5239   */\n      dup3\n        /* \"#utility.yul\":5229:5263   */\n      mstore\n        /* \"#utility.yul\":5160:5269   */\n      pop\n      pop\n      jump\t// out\n        /* \"#utility.yul\":5275:5485   */\n    tag_34:\n        /* \"#utility.yul\":5362:5366   */\n      0x00\n        /* \"#utility.yul\":5400:5402   */\n      0x20\n        /* \"#utility.yul\":5389:5398   */\n      dup3\n        /* \"#utility.yul\":5385:5403   */\n      add\n        /* \"#utility.yul\":5377:5403   */\n      swap1\n      pop\n        /* \"#utility.yul\":5413:5478   */\n      tag_366\n        /* \"#utility.yul\":5475:5476   */\n      0x00\n        /* \"#utility.yul\":5464:5473   */\n      dup4\n        /* \"#utility.yul\":5460:5477   */\n      add\n        /* \"#utility.yul\":5451:5457   */\n      dup5\n        /* \"#utility.yul\":5413:5478   */\n      tag_257\n      jump\t// in\n    tag_366:\n        /* \"#utility.yul\":5275:5485   */\n      swap3\n      swap2\n      pop\n      pop\n      jump\t// out\n        /* \"#utility.yul\":5491:5820   */\n    tag_40:\n        /* \"#utility.yul\":5550:5556   */\n      0x00\n        /* \"#utility.yul\":5599:5601   */\n      0x20\n        /* \"#utility.yul\":5587:5596   */\n      dup3\n        /* \"#utility.yul\":5578:5585   */\n      dup5\n        /* \"#utility.yul\":5574:5597   */\n      sub\n        /* \"#utility.yul\":5570:5602   */\n      slt\n        /* \"#utility.yul\":5567:5686   */\n      iszero\n      tag_368\n      jumpi\n        /* \"#utility.yul\":5605:5684   */\n      tag_369\n      tag_237\n      jump\t// in\n    tag_369:\n        /* \"#utility.yul\":5567:5686   */\n    tag_368:\n        /* \"#utility.yul\":5725:5726   */\n      0x00\n        /* \"#utility.yul\":5750:5803   */\n      tag_370\n        /* \"#utility.yul\":5795:5802   */\n      dup5\n        /* \"#utility.yul\":5786:5792   */\n      dup3\n        /* \"#utility.yul\":5775:5784   */\n      dup6\n        /* \"#utility.yul\":5771:5793   */\n      add\n        /* \"#utility.yul\":5750:5803   */\n      tag_241\n      jump\t// in\n    tag_370:\n        /* \"#utility.yul\":5740:5803   */\n      swap2\n      pop\n        /* \"#utility.yul\":5696:5813   */\n      pop\n        /* \"#utility.yul\":5491:5820   */\n      swap3\n      swap2\n      pop\n      pop\n      jump\t// out\n        /* \"#utility.yul\":5826:5944   */\n    tag_258:\n        /* \"#utility.yul\":5913:5937   */\n      tag_372\n        /* \"#utility.yul\":5931:5936   */\n      dup2\n        /* \"#utility.yul\":5913:5937   */\n      tag_253\n      jump\t// in\n    tag_372:\n        /* \"#utility.yul\":5908:5911   */\n      dup3\n        /* \"#utility.yul\":5901:5938   */\n      mstore\n        /* \"#utility.yul\":5826:5944   */\n      pop\n      pop\n      jump\t// out\n        /* \"#utility.yul\":5950:6172   */\n    tag_48:\n        /* \"#utility.yul\":6043:6047   */\n      0x00\n        /* \"#utility.yul\":6081:6083   */\n      0x20\n        /* \"#utility.yul\":6070:6079   */\n      dup3\n        /* \"#utility.yul\":6066:6084   */\n      add\n        /* \"#utility.yul\":6058:6084   */\n      swap1\n      pop\n        /* \"#utility.yul\":6094:6165   */\n      tag_374\n        /* \"#utility.yul\":6162:6163   */\n      0x00\n        /* \"#utility.yul\":6151:6160   */\n      dup4\n        /* \"#utility.yul\":6147:6164   */\n      add\n        /* \"#utility.yul\":6138:6144   */\n      dup5\n        /* \"#utility.yul\":6094:6165   */\n      tag_258\n      jump\t// in\n    tag_374:\n        /* \"#utility.yul\":5950:6172   */\n      swap3\n      swap2\n      pop\n      pop\n      jump\t// out\n        /* \"#utility.yul\":6178:6255   */\n    tag_259:\n        /* \"#utility.yul\":6215:6222   */\n      0x00\n        /* \"#utility.yul\":6244:6249   */\n      dup2\n        /* \"#utility.yul\":6233:6249   */\n      swap1\n      pop\n        /* \"#utility.yul\":6178:6255   */\n      swap2\n      swap1\n      pop\n      jump\t// out\n        /* \"#utility.yul\":6261:6379   */\n    tag_260:\n        /* \"#utility.yul\":6348:6372   */\n      tag_377\n        /* \"#utility.yul\":6366:6371   */\n      dup2\n        /* \"#utility.yul\":6348:6372   */\n      tag_259\n      jump\t// in\n    tag_377:\n        /* \"#utility.yul\":6343:6346   */\n      dup3\n        /* \"#utility.yul\":6336:6373   */\n      mstore\n        /* \"#utility.yul\":6261:6379   */\n      pop\n      pop\n      jump\t// out\n        /* \"#utility.yul\":6385:6484   */\n    tag_261:\n        /* \"#utility.yul\":6437:6443   */\n      0x00\n        /* \"#utility.yul\":6471:6476   */\n      dup2\n        /* \"#utility.yul\":6465:6477   */\n      mload\n        /* \"#utility.yul\":6455:6477   */\n      swap1\n      pop\n        /* \"#utility.yul\":6385:6484   */\n      swap2\n      swap1\n      pop\n      jump\t// out\n        /* \"#utility.yul\":6490:6659   */\n    tag_262:\n        /* \"#utility.yul\":6574:6585   */\n      0x00\n        /* \"#utility.yul\":6608:6614   */\n      dup3\n        /* \"#utility.yul\":6603:6606   */\n      dup3\n        /* \"#utility.yul\":6596:6615   */\n      mstore\n        /* \"#utility.yul\":6648:6652   */\n      0x20\n        /* \"#utility.yul\":6643:6646   */\n      dup3\n        /* \"#utility.yul\":6639:6653   */\n      add\n        /* \"#utility.yul\":6624:6653   */\n      swap1\n      pop\n        /* \"#utility.yul\":6490:6659   */\n      swap3\n      swap2\n      pop\n      pop\n      jump\t// out\n        /* \"#utility.yul\":6665:6804   */\n    tag_263:\n        /* \"#utility.yul\":6754:6760   */\n      dup3\n        /* \"#utility.yul\":6749:6752   */\n      dup2\n        /* \"#utility.yul\":6744:6747   */\n      dup4\n        /* \"#utility.yul\":6738:6761   */\n      mcopy\n        /* \"#utility.yul\":6795:6796   */\n      0x00\n        /* \"#utility.yul\":6786:6792   */\n      dup4\n        /* \"#utility.yul\":6781:6784   */\n      dup4\n        /* \"#utility.yul\":6777:6793   */\n      add\n        /* \"#utility.yul\":6770:6797   */\n      mstore\n        /* \"#utility.yul\":6665:6804   */\n      pop\n      pop\n      pop\n      jump\t// out\n        /* \"#utility.yul\":6810:7187   */\n    tag_264:\n        /* \"#utility.yul\":6898:6901   */\n      0x00\n        /* \"#utility.yul\":6926:6965   */\n      tag_382\n        /* \"#utility.yul\":6959:6964   */\n      dup3\n        /* \"#utility.yul\":6926:6965   */\n      tag_261\n      jump\t// in\n    tag_382:\n        /* \"#utility.yul\":6981:7052   */\n      tag_383\n        /* \"#utility.yul\":7045:7051   */\n      dup2\n        /* \"#utility.yul\":7040:7043   */\n      dup6\n        /* \"#utility.yul\":6981:7052   */\n      tag_262\n      jump\t// in\n    tag_383:\n        /* \"#utility.yul\":6974:7052   */\n      swap4\n      pop\n        /* \"#utility.yul\":7061:7126   */\n      tag_384\n        /* \"#utility.yul\":7119:7125   */\n      dup2\n        /* \"#utility.yul\":7114:7117   */\n      dup6\n        /* \"#utility.yul\":7107:7111   */\n      0x20\n        /* \"#utility.yul\":7100:7105   */\n      dup7\n        /* \"#utility.yul\":7096:7112   */\n      add\n        /* \"#utility.yul\":7061:7126   */\n      tag_263\n      jump\t// in\n    tag_384:\n        /* \"#utility.yul\":7151:7180   */\n      tag_385\n        /* \"#utility.yul\":7173:7179   */\n      dup2\n        /* \"#utility.yul\":7151:7180   */\n      tag_244\n      jump\t// in\n    tag_385:\n        /* \"#utility.yul\":7146:7149   */\n      dup5\n        /* \"#utility.yul\":7142:7181   */\n      add\n        /* \"#utility.yul\":7135:7181   */\n      swap2\n      pop\n        /* \"#utility.yul\":6902:7187   */\n      pop\n        /* \"#utility.yul\":6810:7187   */\n      swap3\n      swap2\n      pop\n      pop\n      jump\t// out\n        /* \"#utility.yul\":7193:8229   */\n    tag_56:\n        /* \"#utility.yul\":7480:7484   */\n      0x00\n        /* \"#utility.yul\":7518:7521   */\n      0xc0\n        /* \"#utility.yul\":7507:7516   */\n      dup3\n        /* \"#utility.yul\":7503:7522   */\n      add\n        /* \"#utility.yul\":7495:7522   */\n      swap1\n      pop\n        /* \"#utility.yul\":7532:7603   */\n      tag_387\n        /* \"#utility.yul\":7600:7601   */\n      0x00\n        /* \"#utility.yul\":7589:7598   */\n      dup4\n        /* \"#utility.yul\":7585:7602   */\n      add\n        /* \"#utility.yul\":7576:7582   */\n      dup10\n        /* \"#utility.yul\":7532:7603   */\n      tag_258\n      jump\t// in\n    tag_387:\n        /* \"#utility.yul\":7613:7685   */\n      tag_388\n        /* \"#utility.yul\":7681:7683   */\n      0x20\n        /* \"#utility.yul\":7670:7679   */\n      dup4\n        /* \"#utility.yul\":7666:7684   */\n      add\n        /* \"#utility.yul\":7657:7663   */\n      dup9\n        /* \"#utility.yul\":7613:7685   */\n      tag_260\n      jump\t// in\n    tag_388:\n        /* \"#utility.yul\":7732:7741   */\n      dup2\n        /* \"#utility.yul\":7726:7730   */\n      dup2\n        /* \"#utility.yul\":7722:7742   */\n      sub\n        /* \"#utility.yul\":7717:7719   */\n      0x40\n        /* \"#utility.yul\":7706:7715   */\n      dup4\n        /* \"#utility.yul\":7702:7720   */\n      add\n        /* \"#utility.yul\":7695:7743   */\n      mstore\n        /* \"#utility.yul\":7760:7838   */\n      tag_389\n        /* \"#utility.yul\":7833:7837   */\n      dup2\n        /* \"#utility.yul\":7824:7830   */\n      dup8\n        /* \"#utility.yul\":7760:7838   */\n      tag_264\n      jump\t// in\n    tag_389:\n        /* \"#utility.yul\":7752:7838   */\n      swap1\n      pop\n        /* \"#utility.yul\":7885:7894   */\n      dup2\n        /* \"#utility.yul\":7879:7883   */\n      dup2\n        /* \"#utility.yul\":7875:7895   */\n      sub\n        /* \"#utility.yul\":7870:7872   */\n      0x60\n        /* \"#utility.yul\":7859:7868   */\n      dup4\n        /* \"#utility.yul\":7855:7873   */\n      add\n        /* \"#utility.yul\":7848:7896   */\n      mstore\n        /* \"#utility.yul\":7913:7991   */\n      tag_390\n        /* \"#utility.yul\":7986:7990   */\n      dup2\n        /* \"#utility.yul\":7977:7983   */\n      dup7\n        /* \"#utility.yul\":7913:7991   */\n      tag_264\n      jump\t// in\n    tag_390:\n        /* \"#utility.yul\":7905:7991   */\n      swap1\n      pop\n        /* \"#utility.yul\":8039:8048   */\n      dup2\n        /* \"#utility.yul\":8033:8037   */\n      dup2\n        /* \"#utility.yul\":8029:8049   */\n      sub\n        /* \"#utility.yul\":8023:8026   */\n      0x80\n        /* \"#utility.yul\":8012:8021   */\n      dup4\n        /* \"#utility.yul\":8008:8027   */\n      add\n        /* \"#utility.yul\":8001:8050   */\n      mstore\n        /* \"#utility.yul\":8067:8145   */\n      tag_391\n        /* \"#utility.yul\":8140:8144   */\n      dup2\n        /* \"#utility.yul\":8131:8137   */\n      dup6\n        /* \"#utility.yul\":8067:8145   */\n      tag_264\n      jump\t// in\n    tag_391:\n        /* \"#utility.yul\":8059:8145   */\n      swap1\n      pop\n        /* \"#utility.yul\":8155:8222   */\n      tag_392\n        /* \"#utility.yul\":8217:8220   */\n      0xa0\n        /* \"#utility.yul\":8206:8215   */\n      dup4\n        /* \"#utility.yul\":8202:8221   */\n      add\n        /* \"#utility.yul\":8193:8199   */\n      dup5\n        /* \"#utility.yul\":8155:8222   */\n      tag_257\n      jump\t// in\n    tag_392:\n        /* \"#utility.yul\":7193:8229   */\n      swap8\n      swap7\n      pop\n      pop\n      pop\n      pop\n      pop\n      pop\n      pop\n      jump\t// out\n        /* \"#utility.yul\":8235:8457   */\n    tag_61:\n        /* \"#utility.yul\":8328:8332   */\n      0x00\n        /* \"#utility.yul\":8366:8368   */\n      0x20\n        /* \"#utility.yul\":8355:8364   */\n      dup3\n        /* \"#utility.yul\":8351:8369   */\n      add\n        /* \"#utility.yul\":8343:8369   */\n      swap1\n      pop\n        /* \"#utility.yul\":8379:8450   */\n      tag_394\n        /* \"#utility.yul\":8447:8448   */\n      0x00\n        /* \"#utility.yul\":8436:8445   */\n      dup4\n        /* \"#utility.yul\":8432:8449   */\n      add\n        /* \"#utility.yul\":8423:8429   */\n      dup5\n        /* \"#utility.yul\":8379:8450   */\n      tag_260\n      jump\t// in\n    tag_394:\n        /* \"#utility.yul\":8235:8457   */\n      swap3\n      swap2\n      pop\n      pop\n      jump\t// out\n        /* \"#utility.yul\":8463:8579   */\n    tag_265:\n        /* \"#utility.yul\":8533:8554   */\n      tag_396\n        /* \"#utility.yul\":8548:8553   */\n      dup2\n        /* \"#utility.yul\":8533:8554   */\n      tag_256\n      jump\t// in\n    tag_396:\n        /* \"#utility.yul\":8526:8531   */\n      dup2\n        /* \"#utility.yul\":8523:8555   */\n      eq\n        /* \"#utility.yul\":8513:8573   */\n      tag_397\n      jumpi\n        /* \"#utility.yul\":8569:8570   */\n      0x00\n        /* \"#utility.yul\":8566:8567   */\n      dup1\n        /* \"#utility.yul\":8559:8571   */\n      revert\n        /* \"#utility.yul\":8513:8573   */\n    tag_397:\n        /* \"#utility.yul\":8463:8579   */\n      pop\n      jump\t// out\n        /* \"#utility.yul\":8585:8718   */\n    tag_266:\n        /* \"#utility.yul\":8628:8633   */\n      0x00\n        /* \"#utility.yul\":8666:8672   */\n      dup2\n        /* \"#utility.yul\":8653:8673   */\n      calldataload\n        /* \"#utility.yul\":8644:8673   */\n      swap1\n      pop\n        /* \"#utility.yul\":8682:8712   */\n      tag_399\n        /* \"#utility.yul\":8706:8711   */\n      dup2\n        /* \"#utility.yul\":8682:8712   */\n      tag_265\n      jump\t// in\n    tag_399:\n        /* \"#utility.yul\":8585:8718   */\n      swap3\n      swap2\n      pop\n      pop\n      jump\t// out\n        /* \"#utility.yul\":8724:9337   */\n    tag_68:\n        /* \"#utility.yul\":8798:8804   */\n      0x00\n        /* \"#utility.yul\":8806:8812   */\n      dup1\n        /* \"#utility.yul\":8814:8820   */\n      0x00\n        /* \"#utility.yul\":8863:8865   */\n      0x60\n        /* \"#utility.yul\":8851:8860   */\n      dup5\n        /* \"#utility.yul\":8842:8849   */\n      dup7\n        /* \"#utility.yul\":8838:8861   */\n      sub\n        /* \"#utility.yul\":8834:8866   */\n      slt\n        /* \"#utility.yul\":8831:8950   */\n      iszero\n      tag_401\n      jumpi\n        /* \"#utility.yul\":8869:8948   */\n      tag_402\n      tag_237\n      jump\t// in\n    tag_402:\n        /* \"#utility.yul\":8831:8950   */\n    tag_401:\n        /* \"#utility.yul\":8989:8990   */\n      0x00\n        /* \"#utility.yul\":9014:9067   */\n      tag_403\n        /* \"#utility.yul\":9059:9066   */\n      dup7\n        /* \"#utility.yul\":9050:9056   */\n      dup3\n        /* \"#utility.yul\":9039:9048   */\n      dup8\n        /* \"#utility.yul\":9035:9057   */\n      add\n        /* \"#utility.yul\":9014:9067   */\n      tag_241\n      jump\t// in\n    tag_403:\n        /* \"#utility.yul\":9004:9067   */\n      swap4\n      pop\n        /* \"#utility.yul\":8960:9077   */\n      pop\n        /* \"#utility.yul\":9116:9118   */\n      0x20\n        /* \"#utility.yul\":9142:9195   */\n      tag_404\n        /* \"#utility.yul\":9187:9194   */\n      dup7\n        /* \"#utility.yul\":9178:9184   */\n      dup3\n        /* \"#utility.yul\":9167:9176   */\n      dup8\n        /* \"#utility.yul\":9163:9185   */\n      add\n        /* \"#utility.yul\":9142:9195   */\n      tag_255\n      jump\t// in\n    tag_404:\n        /* \"#utility.yul\":9132:9195   */\n      swap3\n      pop\n        /* \"#utility.yul\":9087:9205   */\n      pop\n        /* \"#utility.yul\":9244:9246   */\n      0x40\n        /* \"#utility.yul\":9270:9320   */\n      tag_405\n        /* \"#utility.yul\":9312:9319   */\n      dup7\n        /* \"#utility.yul\":9303:9309   */\n      dup3\n        /* \"#utility.yul\":9292:9301   */\n      dup8\n        /* \"#utility.yul\":9288:9310   */\n      add\n        /* \"#utility.yul\":9270:9320   */\n      tag_266\n      jump\t// in\n    tag_405:\n        /* \"#utility.yul\":9260:9320   */\n      swap2\n      pop\n        /* \"#utility.yul\":9215:9330   */\n      pop\n        /* \"#utility.yul\":8724:9337   */\n      swap3\n      pop\n      swap3\n      pop\n      swap3\n      jump\t// out\n        /* \"#utility.yul\":9343:10788   */\n    tag_74:\n        /* \"#utility.yul\":9465:9471   */\n      0x00\n        /* \"#utility.yul\":9473:9479   */\n      dup1\n        /* \"#utility.yul\":9481:9487   */\n      0x00\n        /* \"#utility.yul\":9489:9495   */\n      dup1\n        /* \"#utility.yul\":9497:9503   */\n      0x00\n        /* \"#utility.yul\":9546:9549   */\n      0xa0\n        /* \"#utility.yul\":9534:9543   */\n      dup7\n        /* \"#utility.yul\":9525:9532   */\n      dup9\n        /* \"#utility.yul\":9521:9544   */\n      sub\n        /* \"#utility.yul\":9517:9550   */\n      slt\n        /* \"#utility.yul\":9514:9634   */\n      iszero\n      tag_407\n      jumpi\n        /* \"#utility.yul\":9553:9632   */\n      tag_408\n      tag_237\n      jump\t// in\n    tag_408:\n        /* \"#utility.yul\":9514:9634   */\n    tag_407:\n        /* \"#utility.yul\":9673:9674   */\n      0x00\n        /* \"#utility.yul\":9698:9751   */\n      tag_409\n        /* \"#utility.yul\":9743:9750   */\n      dup9\n        /* \"#utility.yul\":9734:9740   */\n      dup3\n        /* \"#utility.yul\":9723:9732   */\n      dup10\n        /* \"#utility.yul\":9719:9741   */\n      add\n        /* \"#utility.yul\":9698:9751   */\n      tag_241\n      jump\t// in\n    tag_409:\n        /* \"#utility.yul\":9688:9751   */\n      swap6\n      pop\n        /* \"#utility.yul\":9644:9761   */\n      pop\n        /* \"#utility.yul\":9828:9830   */\n      0x20\n        /* \"#utility.yul\":9817:9826   */\n      dup7\n        /* \"#utility.yul\":9813:9831   */\n      add\n        /* \"#utility.yul\":9800:9832   */\n      calldataload\n        /* \"#utility.yul\":9859:9877   */\n      0xffffffffffffffff\n        /* \"#utility.yul\":9851:9857   */\n      dup2\n        /* \"#utility.yul\":9848:9878   */\n      gt\n        /* \"#utility.yul\":9845:9962   */\n      iszero\n      tag_410\n      jumpi\n        /* \"#utility.yul\":9881:9960   */\n      tag_411\n      tag_238\n      jump\t// in\n    tag_411:\n        /* \"#utility.yul\":9845:9962   */\n    tag_410:\n        /* \"#utility.yul\":9986:10049   */\n      tag_412\n        /* \"#utility.yul\":10041:10048   */\n      dup9\n        /* \"#utility.yul\":10032:10038   */\n      dup3\n        /* \"#utility.yul\":10021:10030   */\n      dup10\n        /* \"#utility.yul\":10017:10039   */\n      add\n        /* \"#utility.yul\":9986:10049   */\n      tag_251\n      jump\t// in\n    tag_412:\n        /* \"#utility.yul\":9976:10049   */\n      swap5\n      pop\n        /* \"#utility.yul\":9771:10059   */\n      pop\n        /* \"#utility.yul\":10126:10128   */\n      0x40\n        /* \"#utility.yul\":10115:10124   */\n      dup7\n        /* \"#utility.yul\":10111:10129   */\n      add\n        /* \"#utility.yul\":10098:10130   */\n      calldataload\n        /* \"#utility.yul\":10157:10175   */\n      0xffffffffffffffff\n        /* \"#utility.yul\":10149:10155   */\n      dup2\n        /* \"#utility.yul\":10146:10176   */\n      gt\n        /* \"#utility.yul\":10143:10260   */\n      iszero\n      tag_413\n      jumpi\n        /* \"#utility.yul\":10179:10258   */\n      tag_414\n      tag_238\n      jump\t// in\n    tag_414:\n        /* \"#utility.yul\":10143:10260   */\n    tag_413:\n        /* \"#utility.yul\":10284:10347   */\n      tag_415\n        /* \"#utility.yul\":10339:10346   */\n      dup9\n        /* \"#utility.yul\":10330:10336   */\n      dup3\n        /* \"#utility.yul\":10319:10328   */\n      dup10\n        /* \"#utility.yul\":10315:10337   */\n      add\n        /* \"#utility.yul\":10284:10347   */\n      tag_251\n      jump\t// in\n    tag_415:\n        /* \"#utility.yul\":10274:10347   */\n      swap4\n      pop\n        /* \"#utility.yul\":10069:10357   */\n      pop\n        /* \"#utility.yul\":10424:10426   */\n      0x60\n        /* \"#utility.yul\":10413:10422   */\n      dup7\n        /* \"#utility.yul\":10409:10427   */\n      add\n        /* \"#utility.yul\":10396:10428   */\n      calldataload\n        /* \"#utility.yul\":10455:10473   */\n      0xffffffffffffffff\n        /* \"#utility.yul\":10447:10453   */\n      dup2\n        /* \"#utility.yul\":10444:10474   */\n      gt\n        /* \"#utility.yul\":10441:10558   */\n      iszero\n      tag_416\n      jumpi\n        /* \"#utility.yul\":10477:10556   */\n      tag_417\n      tag_238\n      jump\t// in\n    tag_417:\n        /* \"#utility.yul\":10441:10558   */\n    tag_416:\n        /* \"#utility.yul\":10582:10645   */\n      tag_418\n        /* \"#utility.yul\":10637:10644   */\n      dup9\n        /* \"#utility.yul\":10628:10634   */\n      dup3\n        /* \"#utility.yul\":10617:10626   */\n      dup10\n        /* \"#utility.yul\":10613:10635   */\n      add\n        /* \"#utility.yul\":10582:10645   */\n      tag_251\n      jump\t// in\n    tag_418:\n        /* \"#utility.yul\":10572:10645   */\n      swap3\n      pop\n        /* \"#utility.yul\":10367:10655   */\n      pop\n        /* \"#utility.yul\":10694:10697   */\n      0x80\n        /* \"#utility.yul\":10721:10771   */\n      tag_419\n        /* \"#utility.yul\":10763:10770   */\n      dup9\n        /* \"#utility.yul\":10754:10760   */\n      dup3\n        /* \"#utility.yul\":10743:10752   */\n      dup10\n        /* \"#utility.yul\":10739:10761   */\n      add\n        /* \"#utility.yul\":10721:10771   */\n      tag_266\n      jump\t// in\n    tag_419:\n        /* \"#utility.yul\":10711:10771   */\n      swap2\n      pop\n        /* \"#utility.yul\":10665:10781   */\n      pop\n        /* \"#utility.yul\":9343:10788   */\n      swap3\n      swap6\n      pop\n      swap3\n      swap6\n      swap1\n      swap4\n      pop\n      jump\t// out\n        /* \"#utility.yul\":10794:10963   */\n    tag_267:\n        /* \"#utility.yul\":10934:10955   */\n      0x446f63756d656e74206e6f7420666f756e642e00000000000000000000000000\n        /* \"#utility.yul\":10930:10931   */\n      0x00\n        /* \"#utility.yul\":10922:10928   */\n      dup3\n        /* \"#utility.yul\":10918:10932   */\n      add\n        /* \"#utility.yul\":10911:10956   */\n      mstore\n        /* \"#utility.yul\":10794:10963   */\n      pop\n      jump\t// out\n        /* \"#utility.yul\":10969:11335   */\n    tag_268:\n        /* \"#utility.yul\":11111:11114   */\n      0x00\n        /* \"#utility.yul\":11132:11199   */\n      tag_422\n        /* \"#utility.yul\":11196:11198   */\n      0x13\n        /* \"#utility.yul\":11191:11194   */\n      dup4\n        /* \"#utility.yul\":11132:11199   */\n      tag_262\n      jump\t// in\n    tag_422:\n        /* \"#utility.yul\":11125:11199   */\n      swap2\n      pop\n        /* \"#utility.yul\":11208:11301   */\n      tag_423\n        /* \"#utility.yul\":11297:11300   */\n      dup3\n        /* \"#utility.yul\":11208:11301   */\n      tag_267\n      jump\t// in\n    tag_423:\n        /* \"#utility.yul\":11326:11328   */\n      0x20\n        /* \"#utility.yul\":11321:11324   */\n      dup3\n        /* \"#utility.yul\":11317:11329   */\n      add\n        /* \"#utility.yul\":11310:11329   */\n      swap1\n      pop\n        /* \"#utility.yul\":10969:11335   */\n      swap2\n      swap1\n      pop\n      jump\t// out\n        /* \"#utility.yul\":11341:11760   */\n    tag_112:\n        /* \"#utility.yul\":11507:11511   */\n      0x00\n        /* \"#utility.yul\":11545:11547   */\n      0x20\n        /* \"#utility.yul\":11534:11543   */\n      dup3\n        /* \"#utility.yul\":11530:11548   */\n      add\n        /* \"#utility.yul\":11522:11548   */\n      swap1\n      pop\n        /* \"#utility.yul\":11594:11603   */\n      dup2\n        /* \"#utility.yul\":11588:11592   */\n      dup2\n        /* \"#utility.yul\":11584:11604   */\n      sub\n        /* \"#utility.yul\":11580:11581   */\n      0x00\n        /* \"#utility.yul\":11569:11578   */\n      dup4\n        /* \"#utility.yul\":11565:11582   */\n      add\n        /* \"#utility.yul\":11558:11605   */\n      mstore\n        /* \"#utility.yul\":11622:11753   */\n      tag_425\n        /* \"#utility.yul\":11748:11752   */\n      dup2\n        /* \"#utility.yul\":11622:11753   */\n      tag_268\n      jump\t// in\n    tag_425:\n        /* \"#utility.yul\":11614:11753   */\n      swap1\n      pop\n        /* \"#utility.yul\":11341:11760   */\n      swap2\n      swap1\n      pop\n      jump\t// out\n        /* \"#utility.yul\":11766:11946   */\n    tag_269:\n        /* \"#utility.yul\":11814:11891   */\n      0x4e487b7100000000000000000000000000000000000000000000000000000000\n        /* \"#utility.yul\":11811:11812   */\n      0x00\n        /* \"#utility.yul\":11804:11892   */\n      mstore\n        /* \"#utility.yul\":11911:11915   */\n      0x22\n        /* \"#utility.yul\":11908:11909   */\n      0x04\n        /* \"#utility.yul\":11901:11916   */\n      mstore\n        /* \"#utility.yul\":11935:11939   */\n      0x24\n        /* \"#utility.yul\":11932:11933   */\n      0x00\n        /* \"#utility.yul\":11925:11940   */\n      revert\n        /* \"#utility.yul\":11952:12272   */\n    tag_114:\n        /* \"#utility.yul\":11996:12002   */\n      0x00\n        /* \"#utility.yul\":12033:12034   */\n      0x02\n        /* \"#utility.yul\":12027:12031   */\n      dup3\n        /* \"#utility.yul\":12023:12035   */\n      div\n        /* \"#utility.yul\":12013:12035   */\n      swap1\n      pop\n        /* \"#utility.yul\":12080:12081   */\n      0x01\n        /* \"#utility.yul\":12074:12078   */\n      dup3\n        /* \"#utility.yul\":12070:12082   */\n      and\n        /* \"#utility.yul\":12101:12119   */\n      dup1\n        /* \"#utility.yul\":12091:12172   */\n      tag_428\n      jumpi\n        /* \"#utility.yul\":12157:12161   */\n      0x7f\n        /* \"#utility.yul\":12149:12155   */\n      dup3\n        /* \"#utility.yul\":12145:12162   */\n      and\n        /* \"#utility.yul\":12135:12162   */\n      swap2\n      pop\n        /* \"#utility.yul\":12091:12172   */\n    tag_428:\n        /* \"#utility.yul\":12219:12221   */\n      0x20\n        /* \"#utility.yul\":12211:12217   */\n      dup3\n        /* \"#utility.yul\":12208:12222   */\n      lt\n        /* \"#utility.yul\":12188:12206   */\n      dup2\n        /* \"#utility.yul\":12185:12223   */\n      sub\n        /* \"#utility.yul\":12182:12266   */\n      tag_429\n      jumpi\n        /* \"#utility.yul\":12238:12256   */\n      tag_430\n      tag_269\n      jump\t// in\n    tag_430:\n        /* \"#utility.yul\":12182:12266   */\n    tag_429:\n        /* \"#utility.yul\":12003:12272   */\n      pop\n        /* \"#utility.yul\":11952:12272   */\n      swap2\n      swap1\n      pop\n      jump\t// out\n        /* \"#utility.yul\":12278:12503   */\n    tag_270:\n        /* \"#utility.yul\":12418:12452   */\n      0x4f6e6c7920746865206f776e65722063616e207472616e73666572206f776e65\n        /* \"#utility.yul\":12414:12415   */\n      0x00\n        /* \"#utility.yul\":12406:12412   */\n      dup3\n        /* \"#utility.yul\":12402:12416   */\n      add\n        /* \"#utility.yul\":12395:12453   */\n      mstore\n        /* \"#utility.yul\":12487:12495   */\n      0x72736869702e0000000000000000000000000000000000000000000000000000\n        /* \"#utility.yul\":12482:12484   */\n      0x20\n        /* \"#utility.yul\":12474:12480   */\n      dup3\n        /* \"#utility.yul\":12470:12485   */\n      add\n        /* \"#utility.yul\":12463:12496   */\n      mstore\n        /* \"#utility.yul\":12278:12503   */\n      pop\n      jump\t// out\n        /* \"#utility.yul\":12509:12875   */\n    tag_271:\n        /* \"#utility.yul\":12651:12654   */\n      0x00\n        /* \"#utility.yul\":12672:12739   */\n      tag_433\n        /* \"#utility.yul\":12736:12738   */\n      0x26\n        /* \"#utility.yul\":12731:12734   */\n      dup4\n        /* \"#utility.yul\":12672:12739   */\n      tag_262\n      jump\t// in\n    tag_433:\n        /* \"#utility.yul\":12665:12739   */\n      swap2\n      pop\n        /* \"#utility.yul\":12748:12841   */\n      tag_434\n        /* \"#utility.yul\":12837:12840   */\n      dup3\n        /* \"#utility.yul\":12748:12841   */\n      tag_270\n      jump\t// in\n    tag_434:\n        /* \"#utility.yul\":12866:12868   */\n      0x40\n        /* \"#utility.yul\":12861:12864   */\n      dup3\n        /* \"#utility.yul\":12857:12869   */\n      add\n        /* \"#utility.yul\":12850:12869   */\n      swap1\n      pop\n        /* \"#utility.yul\":12509:12875   */\n      swap2\n      swap1\n      pop\n      jump\t// out\n        /* \"#utility.yul\":12881:13300   */\n    tag_149:\n        /* \"#utility.yul\":13047:13051   */\n      0x00\n        /* \"#utility.yul\":13085:13087   */\n      0x20\n        /* \"#utility.yul\":13074:13083   */\n      dup3\n        /* \"#utility.yul\":13070:13088   */\n      add\n        /* \"#utility.yul\":13062:13088   */\n      swap1\n      pop\n        /* \"#utility.yul\":13134:13143   */\n      dup2\n        /* \"#utility.yul\":13128:13132   */\n      dup2\n        /* \"#utility.yul\":13124:13144   */\n      sub\n        /* \"#utility.yul\":13120:13121   */\n      0x00\n        /* \"#utility.yul\":13109:13118   */\n      dup4\n        /* \"#utility.yul\":13105:13122   */\n      add\n        /* \"#utility.yul\":13098:13145   */\n      mstore\n        /* \"#utility.yul\":13162:13293   */\n      tag_436\n        /* \"#utility.yul\":13288:13292   */\n      dup2\n        /* \"#utility.yul\":13162:13293   */\n      tag_271\n      jump\t// in\n    tag_436:\n        /* \"#utility.yul\":13154:13293   */\n      swap1\n      pop\n        /* \"#utility.yul\":12881:13300   */\n      swap2\n      swap1\n      pop\n      jump\t// out\n        /* \"#utility.yul\":13306:13530   */\n    tag_272:\n        /* \"#utility.yul\":13446:13480   */\n      0x4e6577206f776e65722063616e6e6f7420626520746865207a65726f20616464\n        /* \"#utility.yul\":13442:13443   */\n      0x00\n        /* \"#utility.yul\":13434:13440   */\n      dup3\n        /* \"#utility.yul\":13430:13444   */\n      add\n        /* \"#utility.yul\":13423:13481   */\n      mstore\n        /* \"#utility.yul\":13515:13522   */\n      0x726573732e000000000000000000000000000000000000000000000000000000\n        /* \"#utility.yul\":13510:13512   */\n      0x20\n        /* \"#utility.yul\":13502:13508   */\n      dup3\n        /* \"#utility.yul\":13498:13513   */\n      add\n        /* \"#utility.yul\":13491:13523   */\n      mstore\n        /* \"#utility.yul\":13306:13530   */\n      pop\n      jump\t// out\n        /* \"#utility.yul\":13536:13902   */\n    tag_273:\n        /* \"#utility.yul\":13678:13681   */\n      0x00\n        /* \"#utility.yul\":13699:13766   */\n      tag_439\n        /* \"#utility.yul\":13763:13765   */\n      0x25\n        /* \"#utility.yul\":13758:13761   */\n      dup4\n        /* \"#utility.yul\":13699:13766   */\n      tag_262\n      jump\t// in\n    tag_439:\n        /* \"#utility.yul\":13692:13766   */\n      swap2\n      pop\n        /* \"#utility.yul\":13775:13868   */\n      tag_440\n        /* \"#utility.yul\":13864:13867   */\n      dup3\n        /* \"#utility.yul\":13775:13868   */\n      tag_272\n      jump\t// in\n    tag_440:\n        /* \"#utility.yul\":13893:13895   */\n      0x40\n        /* \"#utility.yul\":13888:13891   */\n      dup3\n        /* \"#utility.yul\":13884:13896   */\n      add\n        /* \"#utility.yul\":13877:13896   */\n      swap1\n      pop\n        /* \"#utility.yul\":13536:13902   */\n      swap2\n      swap1\n      pop\n      jump\t// out\n        /* \"#utility.yul\":13908:14327   */\n    tag_152:\n        /* \"#utility.yul\":14074:14078   */\n      0x00\n        /* \"#utility.yul\":14112:14114   */\n      0x20\n        /* \"#utility.yul\":14101:14110   */\n      dup3\n        /* \"#utility.yul\":14097:14115   */\n      add\n        /* \"#utility.yul\":14089:14115   */\n      swap1\n      pop\n        /* \"#utility.yul\":14161:14170   */\n      dup2\n        /* \"#utility.yul\":14155:14159   */\n      dup2\n        /* \"#utility.yul\":14151:14171   */\n      sub\n        /* \"#utility.yul\":14147:14148   */\n      0x00\n        /* \"#utility.yul\":14136:14145   */\n      dup4\n        /* \"#utility.yul\":14132:14149   */\n      add\n        /* \"#utility.yul\":14125:14172   */\n      mstore\n        /* \"#utility.yul\":14189:14320   */\n      tag_442\n        /* \"#utility.yul\":14315:14319   */\n      dup2\n        /* \"#utility.yul\":14189:14320   */\n      tag_273\n      jump\t// in\n    tag_442:\n        /* \"#utility.yul\":14181:14320   */\n      swap1\n      pop\n        /* \"#utility.yul\":13908:14327   */\n      swap2\n      swap1\n      pop\n      jump\t// out\n        /* \"#utility.yul\":14333:14511   */\n    tag_274:\n        /* \"#utility.yul\":14473:14503   */\n      0x446f63756d656e7420616c726561647920726567697374657265642e00000000\n        /* \"#utility.yul\":14469:14470   */\n      0x00\n        /* \"#utility.yul\":14461:14467   */\n      dup3\n        /* \"#utility.yul\":14457:14471   */\n      add\n        /* \"#utility.yul\":14450:14504   */\n      mstore\n        /* \"#utility.yul\":14333:14511   */\n      pop\n      jump\t// out\n        /* \"#utility.yul\":14517:14883   */\n    tag_275:\n        /* \"#utility.yul\":14659:14662   */\n      0x00\n        /* \"#utility.yul\":14680:14747   */\n      tag_445\n        /* \"#utility.yul\":14744:14746   */\n      0x1c\n        /* \"#utility.yul\":14739:14742   */\n      dup4\n        /* \"#utility.yul\":14680:14747   */\n      tag_262\n      jump\t// in\n    tag_445:\n        /* \"#utility.yul\":14673:14747   */\n      swap2\n      pop\n        /* \"#utility.yul\":14756:14849   */\n      tag_446\n        /* \"#utility.yul\":14845:14848   */\n      dup3\n        /* \"#utility.yul\":14756:14849   */\n      tag_274\n      jump\t// in\n    tag_446:\n        /* \"#utility.yul\":14874:14876   */\n      0x20\n        /* \"#utility.yul\":14869:14872   */\n      dup3\n        /* \"#utility.yul\":14865:14877   */\n      add\n        /* \"#utility.yul\":14858:14877   */\n      swap1\n      pop\n        /* \"#utility.yul\":14517:14883   */\n      swap2\n      swap1\n      pop\n      jump\t// out\n        /* \"#utility.yul\":14889:15308   */\n    tag_164:\n        /* \"#utility.yul\":15055:15059   */\n      0x00\n        /* \"#utility.yul\":15093:15095   */\n      0x20\n        /* \"#utility.yul\":15082:15091   */\n      dup3\n        /* \"#utility.yul\":15078:15096   */\n      add\n        /* \"#utility.yul\":15070:15096   */\n      swap1\n      pop\n        /* \"#utility.yul\":15142:15151   */\n      dup2\n        /* \"#utility.yul\":15136:15140   */\n      dup2\n        /* \"#utility.yul\":15132:15152   */\n      sub\n        /* \"#utility.yul\":15128:15129   */\n      0x00\n        /* \"#utility.yul\":15117:15126   */\n      dup4\n        /* \"#utility.yul\":15113:15130   */\n      add\n        /* \"#utility.yul\":15106:15153   */\n      mstore\n        /* \"#utility.yul\":15170:15301   */\n      tag_448\n        /* \"#utility.yul\":15296:15300   */\n      dup2\n        /* \"#utility.yul\":15170:15301   */\n      tag_275\n      jump\t// in\n    tag_448:\n        /* \"#utility.yul\":15162:15301   */\n      swap1\n      pop\n        /* \"#utility.yul\":14889:15308   */\n      swap2\n      swap1\n      pop\n      jump\t// out\n        /* \"#utility.yul\":15314:15455   */\n    tag_276:\n        /* \"#utility.yul\":15363:15367   */\n      0x00\n        /* \"#utility.yul\":15386:15389   */\n      dup2\n        /* \"#utility.yul\":15378:15389   */\n      swap1\n      pop\n        /* \"#utility.yul\":15409:15412   */\n      dup2\n        /* \"#utility.yul\":15406:15407   */\n      0x00\n        /* \"#utility.yul\":15399:15413   */\n      mstore\n        /* \"#utility.yul\":15443:15447   */\n      0x20\n        /* \"#utility.yul\":15440:15441   */\n      0x00\n        /* \"#utility.yul\":15430:15448   */\n      keccak256\n        /* \"#utility.yul\":15422:15448   */\n      swap1\n      pop\n        /* \"#utility.yul\":15314:15455   */\n      swap2\n      swap1\n      pop\n      jump\t// out\n        /* \"#utility.yul\":15461:15554   */\n    tag_277:\n        /* \"#utility.yul\":15498:15504   */\n      0x00\n        /* \"#utility.yul\":15545:15547   */\n      0x20\n        /* \"#utility.yul\":15540:15542   */\n      0x1f\n        /* \"#utility.yul\":15533:15538   */\n      dup4\n        /* \"#utility.yul\":15529:15543   */\n      add\n        /* \"#utility.yul\":15525:15548   */\n      div\n        /* \"#utility.yul\":15515:15548   */\n      swap1\n      pop\n        /* \"#utility.yul\":15461:15554   */\n      swap2\n      swap1\n      pop\n      jump\t// out\n        /* \"#utility.yul\":15560:15667   */\n    tag_278:\n        /* \"#utility.yul\":15604:15612   */\n      0x00\n        /* \"#utility.yul\":15654:15659   */\n      dup3\n        /* \"#utility.yul\":15648:15652   */\n      dup3\n        /* \"#utility.yul\":15644:15660   */\n      shl\n        /* \"#utility.yul\":15623:15660   */\n      swap1\n      pop\n        /* \"#utility.yul\":15560:15667   */\n      swap3\n      swap2\n      pop\n      pop\n      jump\t// out\n        /* \"#utility.yul\":15673:16066   */\n    tag_279:\n        /* \"#utility.yul\":15742:15748   */\n      0x00\n        /* \"#utility.yul\":15792:15793   */\n      0x08\n        /* \"#utility.yul\":15780:15790   */\n      dup4\n        /* \"#utility.yul\":15776:15794   */\n      mul\n        /* \"#utility.yul\":15815:15912   */\n      tag_453\n        /* \"#utility.yul\":15845:15911   */\n      0xffffffffffffffffffffffffffffffffffffffffffffffffffffffffffffffff\n        /* \"#utility.yul\":15834:15843   */\n      dup3\n        /* \"#utility.yul\":15815:15912   */\n      tag_278\n      jump\t// in\n    tag_453:\n        /* \"#utility.yul\":15933:15972   */\n      tag_454\n        /* \"#utility.yul\":15963:15971   */\n      dup7\n        /* \"#utility.yul\":15952:15961   */\n      dup4\n        /* \"#utility.yul\":15933:15972   */\n      tag_278\n      jump\t// in\n    tag_454:\n        /* \"#utility.yul\":15921:15972   */\n      swap6\n      pop\n        /* \"#utility.yul\":16005:16009   */\n      dup1\n        /* \"#utility.yul\":16001:16010   */\n      not\n        /* \"#utility.yul\":15994:15999   */\n      dup5\n        /* \"#utility.yul\":15990:16011   */\n      and\n        /* \"#utility.yul\":15981:16011   */\n      swap4\n      pop\n        /* \"#utility.yul\":16054:16058   */\n      dup1\n        /* \"#utility.yul\":16044:16052   */\n      dup7\n        /* \"#utility.yul\":16040:16059   */\n      and\n        /* \"#utility.yul\":16033:16038   */\n      dup5\n        /* \"#utility.yul\":16030:16060   */\n      or\n        /* \"#utility.yul\":16020:16060   */\n      swap3\n      pop\n        /* \"#utility.yul\":15749:16066   */\n      pop\n      pop\n        /* \"#utility.yul\":15673:16066   */\n      swap4\n      swap3\n      pop\n      pop\n      pop\n      jump\t// out\n        /* \"#utility.yul\":16072:16132   */\n    tag_280:\n        /* \"#utility.yul\":16100:16103   */\n      0x00\n        /* \"#utility.yul\":16121:16126   */\n      dup2\n        /* \"#utility.yul\":16114:16126   */\n      swap1\n      pop\n        /* \"#utility.yul\":16072:16132   */\n      swap2\n      swap1\n      pop\n      jump\t// out\n        /* \"#utility.yul\":16138:16280   */\n    tag_281:\n        /* \"#utility.yul\":16188:16197   */\n      0x00\n        /* \"#utility.yul\":16221:16274   */\n      tag_457\n        /* \"#utility.yul\":16239:16273   */\n      tag_458\n        /* \"#utility.yul\":16248:16272   */\n      tag_459\n        /* \"#utility.yul\":16266:16271   */\n      dup5\n        /* \"#utility.yul\":16248:16272   */\n      tag_259\n      jump\t// in\n    tag_459:\n        /* \"#utility.yul\":16239:16273   */\n      tag_280\n      jump\t// in\n    tag_458:\n        /* \"#utility.yul\":16221:16274   */\n      tag_259\n      jump\t// in\n    tag_457:\n        /* \"#utility.yul\":16208:16274   */\n      swap1\n      pop\n        /* \"#utility.yul\":16138:16280   */\n      swap2\n      swap1\n      pop\n      jump\t// out\n        /* \"#utility.yul\":16286:16361   */\n    tag_282:\n        /* \"#utility.yul\":16329:16332   */\n      0x00\n        /* \"#utility.yul\":16350:16355   */\n      dup2\n        /* \"#utility.yul\":16343:16355   */\n      swap1\n      pop\n        /* \"#utility.yul\":16286:16361   */\n      swap2\n      swap1\n      pop\n      jump\t// out\n        /* \"#utility.yul\":16367:16636   */\n    tag_283:\n        /* \"#utility.yul\":16477:16516   */\n      tag_462\n        /* \"#utility.yul\":16508:16515   */\n      dup4\n        /* \"#utility.yul\":16477:16516   */\n      tag_281\n      jump\t// in\n    tag_462:\n        /* \"#utility.yul\":16538:16629   */\n      tag_463\n        /* \"#utility.yul\":16587:16628   */\n      tag_464\n        /* \"#utility.yul\":16611:16627   */\n      dup3\n        /* \"#utility.yul\":16587:16628   */\n      tag_282\n      jump\t// in\n    tag_464:\n        /* \"#utility.yul\":16579:16585   */\n      dup5\n        /* \"#utility.yul\":16572:16576   */\n      dup5\n        /* \"#utility.yul\":16566:16577   */\n      sload\n        /* \"#utility.yul\":16538:16629   */\n      tag_279\n      jump\t// in\n    tag_463:\n        /* \"#utility.yul\":16532:16536   */\n      dup3\n        /* \"#utility.yul\":16525:16630   */\n      sstore\n        /* \"#utility.yul\":16443:16636   */\n      pop\n        /* \"#utility.yul\":16367:16636   */\n      pop\n      pop\n      pop\n      jump\t// out\n        /* \"#utility.yul\":16642:16715   */\n    tag_284:\n        /* \"#utility.yul\":16687:16690   */\n      0x00\n        /* \"#utility.yul\":16642:16715   */\n      swap1\n      jump\t// out\n        /* \"#utility.yul\":16721:16910   */\n    tag_285:\n        /* \"#utility.yul\":16798:16830   */\n      tag_467\n      tag_284\n      jump\t// in\n    tag_467:\n        /* \"#utility.yul\":16839:16904   */\n      tag_468\n        /* \"#utility.yul\":16897:16903   */\n      dup2\n        /* \"#utility.yul\":16889:16895   */\n      dup5\n        /* \"#utility.yul\":16883:16887   */\n      dup5\n        /* \"#utility.yul\":16839:16904   */\n      tag_283\n      jump\t// in\n    tag_468:\n        /* \"#utility.yul\":16774:16910   */\n      pop\n        /* \"#utility.yul\":16721:16910   */\n      pop\n      pop\n      jump\t// out\n        /* \"#utility.yul\":16916:17102   */\n    tag_286:\n        /* \"#utility.yul\":16976:17096   */\n    tag_470:\n        /* \"#utility.yul\":16993:16996   */\n      dup2\n        /* \"#utility.yul\":16986:16991   */\n      dup2\n        /* \"#utility.yul\":16983:16997   */\n      lt\n        /* \"#utility.yul\":16976:17096   */\n      iszero\n      tag_472\n      jumpi\n        /* \"#utility.yul\":17047:17086   */\n      tag_473\n        /* \"#utility.yul\":17084:17085   */\n      0x00\n        /* \"#utility.yul\":17077:17082   */\n      dup3\n        /* \"#utility.yul\":17047:17086   */\n      tag_285\n      jump\t// in\n    tag_473:\n        /* \"#utility.yul\":17020:17021   */\n      0x01\n        /* \"#utility.yul\":17013:17018   */\n      dup2\n        /* \"#utility.yul\":17009:17022   */\n      add\n        /* \"#utility.yul\":17000:17022   */\n      swap1\n      pop\n        /* \"#utility.yul\":16976:17096   */\n      jump(tag_470)\n    tag_472:\n        /* \"#utility.yul\":16916:17102   */\n      pop\n      pop\n      jump\t// out\n        /* \"#utility.yul\":17108:17651   */\n    tag_287:\n        /* \"#utility.yul\":17209:17211   */\n      0x1f\n        /* \"#utility.yul\":17204:17207   */\n      dup3\n        /* \"#utility.yul\":17201:17212   */\n      gt\n        /* \"#utility.yul\":17198:17644   */\n      iszero\n      tag_475\n      jumpi\n        /* \"#utility.yul\":17243:17281   */\n      tag_476\n        /* \"#utility.yul\":17275:17280   */\n      dup2\n        /* \"#utility.yul\":17243:17281   */\n      tag_276\n      jump\t// in\n    tag_476:\n        /* \"#utility.yul\":17327:17356   */\n      tag_477\n        /* \"#utility.yul\":17345:17355   */\n      dup5\n        /* \"#utility.yul\":17327:17356   */\n      tag_277\n      jump\t// in\n    tag_477:\n        /* \"#utility.yul\":17317:17325   */\n      dup2\n        /* \"#utility.yul\":17313:17357   */\n      add\n        /* \"#utility.yul\":17510:17512   */\n      0x20\n        /* \"#utility.yul\":17498:17508   */\n      dup6\n        /* \"#utility.yul\":17495:17513   */\n      lt\n        /* \"#utility.yul\":17492:17541   */\n      iszero\n      tag_478\n      jumpi\n        /* \"#utility.yul\":17531:17539   */\n      dup2\n        /* \"#utility.yul\":17516:17539   */\n      swap1\n      pop\n        /* \"#utility.yul\":17492:17541   */\n    tag_478:\n        /* \"#utility.yul\":17554:17634   */\n      tag_479\n        /* \"#utility.yul\":17610:17632   */\n      tag_480\n        /* \"#utility.yul\":17628:17631   */\n      dup6\n        /* \"#utility.yul\":17610:17632   */\n      tag_277\n      jump\t// in\n    tag_480:\n        /* \"#utility.yul\":17600:17608   */\n      dup4\n        /* \"#utility.yul\":17596:17633   */\n      add\n        /* \"#utility.yul\":17583:17594   */\n      dup3\n        /* \"#utility.yul\":17554:17634   */\n      tag_286\n      jump\t// in\n    tag_479:\n        /* \"#utility.yul\":17213:17644   */\n      pop\n      pop\n        /* \"#utility.yul\":17198:17644   */\n    tag_475:\n        /* \"#utility.yul\":17108:17651   */\n      pop\n      pop\n      pop\n      jump\t// out\n        /* \"#utility.yul\":17657:17774   */\n    tag_288:\n        /* \"#utility.yul\":17711:17719   */\n      0x00\n        /* \"#utility.yul\":17761:17766   */\n      dup3\n        /* \"#utility.yul\":17755:17759   */\n      dup3\n        /* \"#utility.yul\":17751:17767   */\n      shr\n        /* \"#utility.yul\":17730:17767   */\n      swap1\n      pop\n        /* \"#utility.yul\":17657:17774   */\n      swap3\n      swap2\n      pop\n      pop\n      jump\t// out\n        /* \"#utility.yul\":17780:17949   */\n    tag_289:\n        /* \"#utility.yul\":17824:17830   */\n      0x00\n        /* \"#utility.yul\":17857:17908   */\n      tag_483\n        /* \"#utility.yul\":17905:17906   */\n      0x00\n        /* \"#utility.yul\":17901:17907   */\n      not\n        /* \"#utility.yul\":17893:17898   */\n      dup5\n        /* \"#utility.yul\":17890:17891   */\n      0x08\n        /* \"#utility.yul\":17886:17899   */\n      mul\n        /* \"#utility.yul\":17857:17908   */\n      tag_288\n      jump\t// in\n    tag_483:\n        /* \"#utility.yul\":17853:17909   */\n      not\n        /* \"#utility.yul\":17938:17942   */\n      dup1\n        /* \"#utility.yul\":17932:17936   */\n      dup4\n        /* \"#utility.yul\":17928:17943   */\n      and\n        /* \"#utility.yul\":17918:17943   */\n      swap2\n      pop\n        /* \"#utility.yul\":17831:17949   */\n      pop\n        /* \"#utility.yul\":17780:17949   */\n      swap3\n      swap2\n      pop\n      pop\n      jump\t// out\n        /* \"#utility.yul\":17954:18249   */\n    tag_290:\n        /* \"#utility.yul\":18030:18034   */\n      0x00\n        /* \"#utility.yul\":18176:18205   */\n      tag_485\n        /* \"#utility.yul\":18201:18204   */\n      dup4\n        /* \"#utility.yul\":18195:18199   */\n      dup4\n        /* \"#utility.yul\":18176:18205   */\n      tag_289\n      jump\t// in\n    tag_485:\n        /* \"#utility.yul\":18168:18205   */\n      swap2\n      pop\n        /* \"#utility.yul\":18238:18241   */\n      dup3\n        /* \"#utility.yul\":18235:18236   */\n      0x02\n        /* \"#utility.yul\":18231:18242   */\n      mul\n        /* \"#utility.yul\":18225:18229   */\n      dup3\n        /* \"#utility.yul\":18222:18243   */\n      or\n        /* \"#utility.yul\":18214:18243   */\n      swap1\n      pop\n        /* \"#utility.yul\":17954:18249   */\n      swap3\n      swap2\n      pop\n      pop\n      jump\t// out\n        /* \"#utility.yul\":18254:19649   */\n    tag_167:\n        /* \"#utility.yul\":18371:18408   */\n      tag_487\n        /* \"#utility.yul\":18404:18407   */\n      dup3\n        /* \"#utility.yul\":18371:18408   */\n      tag_261\n      jump\t// in\n    tag_487:\n        /* \"#utility.yul\":18473:18491   */\n      0xffffffffffffffff\n        /* \"#utility.yul\":18465:18471   */\n      dup2\n        /* \"#utility.yul\":18462:18492   */\n      gt\n        /* \"#utility.yul\":18459:18515   */\n      iszero\n      tag_488\n      jumpi\n        /* \"#utility.yul\":18495:18513   */\n      tag_489\n      tag_245\n      jump\t// in\n    tag_489:\n        /* \"#utility.yul\":18459:18515   */\n    tag_488:\n        /* \"#utility.yul\":18539:18577   */\n      tag_490\n        /* \"#utility.yul\":18571:18575   */\n      dup3\n        /* \"#utility.yul\":18565:18576   */\n      sload\n        /* \"#utility.yul\":18539:18577   */\n      tag_114\n      jump\t// in\n    tag_490:\n        /* \"#utility.yul\":18624:18691   */\n      tag_491\n        /* \"#utility.yul\":18684:18690   */\n      dup3\n        /* \"#utility.yul\":18676:18682   */\n      dup3\n        /* \"#utility.yul\":18670:18674   */\n      dup6\n        /* \"#utility.yul\":18624:18691   */\n      tag_287\n      jump\t// in\n    tag_491:\n        /* \"#utility.yul\":18718:18719   */\n      0x00\n        /* \"#utility.yul\":18742:18746   */\n      0x20\n        /* \"#utility.yul\":18729:18746   */\n      swap1\n      pop\n        /* \"#utility.yul\":18774:18776   */\n      0x1f\n        /* \"#utility.yul\":18766:18772   */\n      dup4\n        /* \"#utility.yul\":18763:18777   */\n      gt\n        /* \"#utility.yul\":18791:18792   */\n      0x01\n        /* \"#utility.yul\":18786:19404   */\n      dup2\n      eq\n      tag_493\n      jumpi\n        /* \"#utility.yul\":19448:19449   */\n      0x00\n        /* \"#utility.yul\":19465:19471   */\n      dup5\n        /* \"#utility.yul\":19462:19539   */\n      iszero\n      tag_494\n      jumpi\n        /* \"#utility.yul\":19514:19523   */\n      dup3\n        /* \"#utility.yul\":19509:19512   */\n      dup8\n        /* \"#utility.yul\":19505:19524   */\n      add\n        /* \"#utility.yul\":19499:19525   */\n      mload\n        /* \"#utility.yul\":19490:19525   */\n      swap1\n      pop\n        /* \"#utility.yul\":19462:19539   */\n    tag_494:\n        /* \"#utility.yul\":19565:19632   */\n      tag_495\n        /* \"#utility.yul\":19625:19631   */\n      dup6\n        /* \"#utility.yul\":19618:19623   */\n      dup3\n        /* \"#utility.yul\":19565:19632   */\n      tag_290\n      jump\t// in\n    tag_495:\n        /* \"#utility.yul\":19559:19563   */\n      dup7\n        /* \"#utility.yul\":19552:19633   */\n      sstore\n        /* \"#utility.yul\":19421:19643   */\n      pop\n        /* \"#utility.yul\":18756:19643   */\n      jump(tag_492)\n        /* \"#utility.yul\":18786:19404   */\n    tag_493:\n        /* \"#utility.yul\":18838:18842   */\n      0x1f\n        /* \"#utility.yul\":18834:18843   */\n      not\n        /* \"#utility.yul\":18826:18832   */\n      dup5\n        /* \"#utility.yul\":18822:18844   */\n      and\n        /* \"#utility.yul\":18872:18909   */\n      tag_496\n        /* \"#utility.yul\":18904:18908   */\n      dup7\n        /* \"#utility.yul\":18872:18909   */\n      tag_276\n      jump\t// in\n    tag_496:\n        /* \"#utility.yul\":18931:18932   */\n      0x00\n        /* \"#utility.yul\":18945:19153   */\n    tag_497:\n        /* \"#utility.yul\":18959:18966   */\n      dup3\n        /* \"#utility.yul\":18956:18957   */\n      dup2\n        /* \"#utility.yul\":18953:18967   */\n      lt\n        /* \"#utility.yul\":18945:19153   */\n      iszero\n      tag_499\n      jumpi\n        /* \"#utility.yul\":19038:19047   */\n      dup5\n        /* \"#utility.yul\":19033:19036   */\n      dup10\n        /* \"#utility.yul\":19029:19048   */\n      add\n        /* \"#utility.yul\":19023:19049   */\n      mload\n        /* \"#utility.yul\":19015:19021   */\n      dup3\n        /* \"#utility.yul\":19008:19050   */\n      sstore\n        /* \"#utility.yul\":19089:19090   */\n      0x01\n        /* \"#utility.yul\":19081:19087   */\n      dup3\n        /* \"#utility.yul\":19077:19091   */\n      add\n        /* \"#utility.yul\":19067:19091   */\n      swap2\n      pop\n        /* \"#utility.yul\":19136:19138   */\n      0x20\n        /* \"#utility.yul\":19125:19134   */\n      dup6\n        /* \"#utility.yul\":19121:19139   */\n      add\n        /* \"#utility.yul\":19108:19139   */\n      swap5\n      pop\n        /* \"#utility.yul\":18982:18986   */\n      0x20\n        /* \"#utility.yul\":18979:18980   */\n      dup2\n        /* \"#utility.yul\":18975:18987   */\n      add\n        /* \"#utility.yul\":18970:18987   */\n      swap1\n      pop\n        /* \"#utility.yul\":18945:19153   */\n      jump(tag_497)\n    tag_499:\n        /* \"#utility.yul\":19181:19187   */\n      dup7\n        /* \"#utility.yul\":19172:19179   */\n      dup4\n        /* \"#utility.yul\":19169:19188   */\n      lt\n        /* \"#utility.yul\":19166:19345   */\n      iszero\n      tag_500\n      jumpi\n        /* \"#utility.yul\":19239:19248   */\n      dup5\n        /* \"#utility.yul\":19234:19237   */\n      dup10\n        /* \"#utility.yul\":19230:19249   */\n      add\n        /* \"#utility.yul\":19224:19250   */\n      mload\n        /* \"#utility.yul\":19282:19330   */\n      tag_501\n        /* \"#utility.yul\":19324:19328   */\n      0x1f\n        /* \"#utility.yul\":19316:19322   */\n      dup10\n        /* \"#utility.yul\":19312:19329   */\n      and\n        /* \"#utility.yul\":19301:19310   */\n      dup3\n        /* \"#utility.yul\":19282:19330   */\n      tag_289\n      jump\t// in\n    tag_501:\n        /* \"#utility.yul\":19274:19280   */\n      dup4\n        /* \"#utility.yul\":19267:19331   */\n      sstore\n        /* \"#utility.yul\":19189:19345   */\n      pop\n        /* \"#utility.yul\":19166:19345   */\n    tag_500:\n        /* \"#utility.yul\":19391:19392   */\n      0x01\n        /* \"#utility.yul\":19387:19388   */\n      0x02\n        /* \"#utility.yul\":19379:19385   */\n      dup9\n        /* \"#utility.yul\":19375:19389   */\n      mul\n        /* \"#utility.yul\":19371:19393   */\n      add\n        /* \"#utility.yul\":19365:19369   */\n      dup9\n        /* \"#utility.yul\":19358:19394   */\n      sstore\n        /* \"#utility.yul\":18793:19404   */\n      pop\n      pop\n      pop\n        /* \"#utility.yul\":18756:19643   */\n    tag_492:\n      pop\n        /* \"#utility.yul\":18346:19649   */\n      pop\n      pop\n      pop\n        /* \"#utility.yul\":18254:19649   */\n      pop\n      pop\n      jump\t// out\n        /* \"#utility.yul\":19655:20469   */\n    tag_172:\n        /* \"#utility.yul\":19886:19890   */\n      0x00\n        /* \"#utility.yul\":19924:19927   */\n      0x80\n        /* \"#utility.yul\":19913:19922   */\n      dup3\n        /* \"#utility.yul\":19909:19928   */\n      add\n        /* \"#utility.yul\":19901:19928   */\n      swap1\n      pop\n        /* \"#utility.yul\":19974:19983   */\n      dup2\n        /* \"#utility.yul\":19968:19972   */\n      dup2\n        /* \"#utility.yul\":19964:19984   */\n      sub\n        /* \"#utility.yul\":19960:19961   */\n      0x00\n        /* \"#utility.yul\":19949:19958   */\n      dup4\n        /* \"#utility.yul\":19945:19962   */\n      add\n        /* \"#utility.yul\":19938:19985   */\n      mstore\n        /* \"#utility.yul\":20002:20080   */\n      tag_503\n        /* \"#utility.yul\":20075:20079   */\n      dup2\n        /* \"#utility.yul\":20066:20072   */\n      dup8\n        /* \"#utility.yul\":20002:20080   */\n      tag_264\n      jump\t// in\n    tag_503:\n        /* \"#utility.yul\":19994:20080   */\n      swap1\n      pop\n        /* \"#utility.yul\":20127:20136   */\n      dup2\n        /* \"#utility.yul\":20121:20125   */\n      dup2\n        /* \"#utility.yul\":20117:20137   */\n      sub\n        /* \"#utility.yul\":20112:20114   */\n      0x20\n        /* \"#utility.yul\":20101:20110   */\n      dup4\n        /* \"#utility.yul\":20097:20115   */\n      add\n        /* \"#utility.yul\":20090:20138   */\n      mstore\n        /* \"#utility.yul\":20155:20233   */\n      tag_504\n        /* \"#utility.yul\":20228:20232   */\n      dup2\n        /* \"#utility.yul\":20219:20225   */\n      dup7\n        /* \"#utility.yul\":20155:20233   */\n      tag_264\n      jump\t// in\n    tag_504:\n        /* \"#utility.yul\":20147:20233   */\n      swap1\n      pop\n        /* \"#utility.yul\":20280:20289   */\n      dup2\n        /* \"#utility.yul\":20274:20278   */\n      dup2\n        /* \"#utility.yul\":20270:20290   */\n      sub\n        /* \"#utility.yul\":20265:20267   */\n      0x40\n        /* \"#utility.yul\":20254:20263   */\n      dup4\n        /* \"#utility.yul\":20250:20268   */\n      add\n        /* \"#utility.yul\":20243:20291   */\n      mstore\n        /* \"#utility.yul\":20308:20386   */\n      tag_505\n        /* \"#utility.yul\":20381:20385   */\n      dup2\n        /* \"#utility.yul\":20372:20378   */\n      dup6\n        /* \"#utility.yul\":20308:20386   */\n      tag_264\n      jump\t// in\n    tag_505:\n        /* \"#utility.yul\":20300:20386   */\n      swap1\n      pop\n        /* \"#utility.yul\":20396:20462   */\n      tag_506\n        /* \"#utility.yul\":20458:20460   */\n      0x60\n        /* \"#utility.yul\":20447:20456   */\n      dup4\n        /* \"#utility.yul\":20443:20461   */\n      add\n        /* \"#utility.yul\":20434:20440   */\n      dup5\n        /* \"#utility.yul\":20396:20462   */\n      tag_257\n      jump\t// in\n    tag_506:\n        /* \"#utility.yul\":19655:20469   */\n      swap6\n      swap5\n      pop\n      pop\n      pop\n      pop\n      pop\n      jump\t// out\n        /* \"#utility.yul\":20475:20641   */\n    tag_291:\n        /* \"#utility.yul\":20615:20633   */\n      0x5061757361626c653a2070617573656400000000000000000000000000000000\n        /* \"#utility.yul\":20611:20612   */\n      0x00\n        /* \"#utility.yul\":20603:20609   */\n      dup3\n        /* \"#utility.yul\":20599:20613   */\n      add\n        /* \"#utility.yul\":20592:20634   */\n      mstore\n        /* \"#utility.yul\":20475:20641   */\n      pop\n      jump\t// out\n        /* \"#utility.yul\":20647:21013   */\n    tag_292:\n        /* \"#utility.yul\":20789:20792   */\n      0x00\n        /* \"#utility.yul\":20810:20877   */\n      tag_509\n        /* \"#utility.yul\":20874:20876   */\n      0x10\n        /* \"#utility.yul\":20869:20872   */\n      dup4\n        /* \"#utility.yul\":20810:20877   */\n      tag_262\n      jump\t// in\n    tag_509:\n        /* \"#utility.yul\":20803:20877   */\n      swap2\n      pop\n        /* \"#utility.yul\":20886:20979   */\n      tag_510\n        /* \"#utility.yul\":20975:20978   */\n      dup3\n        /* \"#utility.yul\":20886:20979   */\n      tag_291\n      jump\t// in\n    tag_510:\n        /* \"#utility.yul\":21004:21006   */\n      0x20\n        /* \"#utility.yul\":20999:21002   */\n      dup3\n        /* \"#utility.yul\":20995:21007   */\n      add\n        /* \"#utility.yul\":20988:21007   */\n      swap1\n      pop\n        /* \"#utility.yul\":20647:21013   */\n      swap2\n      swap1\n      pop\n      jump\t// out\n        /* \"#utility.yul\":21019:21438   */\n    tag_200:\n        /* \"#utility.yul\":21185:21189   */\n      0x00\n        /* \"#utility.yul\":21223:21225   */\n      0x20\n        /* \"#utility.yul\":21212:21221   */\n      dup3\n        /* \"#utility.yul\":21208:21226   */\n      add\n        /* \"#utility.yul\":21200:21226   */\n      swap1\n      pop\n        /* \"#utility.yul\":21272:21281   */\n      dup2\n        /* \"#utility.yul\":21266:21270   */\n      dup2\n        /* \"#utility.yul\":21262:21282   */\n      sub\n        /* \"#utility.yul\":21258:21259   */\n      0x00\n        /* \"#utility.yul\":21247:21256   */\n      dup4\n        /* \"#utility.yul\":21243:21260   */\n      add\n        /* \"#utility.yul\":21236:21283   */\n      mstore\n        /* \"#utility.yul\":21300:21431   */\n      tag_512\n        /* \"#utility.yul\":21426:21430   */\n      dup2\n        /* \"#utility.yul\":21300:21431   */\n      tag_292\n      jump\t// in\n    tag_512:\n        /* \"#utility.yul\":21292:21431   */\n      swap1\n      pop\n        /* \"#utility.yul\":21019:21438   */\n      swap2\n      swap1\n      pop\n      jump\t// out\n        /* \"#utility.yul\":21444:21624   */\n    tag_293:\n        /* \"#utility.yul\":21492:21569   */\n      0x4e487b7100000000000000000000000000000000000000000000000000000000\n        /* \"#utility.yul\":21489:21490   */\n      0x00\n        /* \"#utility.yul\":21482:21570   */\n      mstore\n        /* \"#utility.yul\":21589:21593   */\n      0x11\n        /* \"#utility.yul\":21586:21587   */\n      0x04\n        /* \"#utility.yul\":21579:21594   */\n      mstore\n        /* \"#utility.yul\":21613:21617   */\n      0x24\n        /* \"#utility.yul\":21610:21611   */\n      0x00\n        /* \"#utility.yul\":21603:21618   */\n      revert\n        /* \"#utility.yul\":21630:21824   */\n    tag_218:\n        /* \"#utility.yul\":21670:21674   */\n      0x00\n        /* \"#utility.yul\":21690:21710   */\n      tag_515\n        /* \"#utility.yul\":21708:21709   */\n      dup3\n        /* \"#utility.yul\":21690:21710   */\n      tag_259\n      jump\t// in\n    tag_515:\n        /* \"#utility.yul\":21685:21710   */\n      swap2\n      pop\n        /* \"#utility.yul\":21724:21744   */\n      tag_516\n        /* \"#utility.yul\":21742:21743   */\n      dup4\n        /* \"#utility.yul\":21724:21744   */\n      tag_259\n      jump\t// in\n    tag_516:\n        /* \"#utility.yul\":21719:21744   */\n      swap3\n      pop\n        /* \"#utility.yul\":21768:21769   */\n      dup3\n        /* \"#utility.yul\":21765:21766   */\n      dup3\n        /* \"#utility.yul\":21761:21770   */\n      sub\n        /* \"#utility.yul\":21753:21770   */\n      swap1\n      pop\n        /* \"#utility.yul\":21792:21793   */\n      dup2\n        /* \"#utility.yul\":21786:21790   */\n      dup2\n        /* \"#utility.yul\":21783:21794   */\n      gt\n        /* \"#utility.yul\":21780:21817   */\n      iszero\n      tag_517\n      jumpi\n        /* \"#utility.yul\":21797:21815   */\n      tag_518\n      tag_293\n      jump\t// in\n    tag_518:\n        /* \"#utility.yul\":21780:21817   */\n    tag_517:\n        /* \"#utility.yul\":21630:21824   */\n      swap3\n      swap2\n      pop\n      pop\n      jump\t// out\n        /* \"#utility.yul\":21830:21947   */\n    tag_294:\n        /* \"#utility.yul\":21939:21940   */\n      0x00\n        /* \"#utility.yul\":21936:21937   */\n      dup1\n        /* \"#utility.yul\":21929:21941   */\n      revert\n        /* \"#utility.yul\":21953:22070   */\n    tag_295:\n        /* \"#utility.yul\":22062:22063   */\n      0x00\n        /* \"#utility.yul\":22059:22060   */\n      dup1\n        /* \"#utility.yul\":22052:22064   */\n      revert\n        /* \"#utility.yul\":22076:22545   */\n    tag_220:\n        /* \"#utility.yul\":22181:22190   */\n      0x00\n        /* \"#utility.yul\":22192:22201   */\n      dup1\n        /* \"#utility.yul\":22230:22238   */\n      dup6\n        /* \"#utility.yul\":22218:22228   */\n      dup6\n        /* \"#utility.yul\":22215:22239   */\n      gt\n        /* \"#utility.yul\":22212:22323   */\n      iszero\n      tag_522\n      jumpi\n        /* \"#utility.yul\":22242:22321   */\n      tag_523\n      tag_294\n      jump\t// in\n    tag_523:\n        /* \"#utility.yul\":22212:22323   */\n    tag_522:\n        /* \"#utility.yul\":22348:22354   */\n      dup4\n        /* \"#utility.yul\":22338:22346   */\n      dup7\n        /* \"#utility.yul\":22335:22355   */\n      gt\n        /* \"#utility.yul\":22332:22439   */\n      iszero\n      tag_524\n      jumpi\n        /* \"#utility.yul\":22358:22437   */\n      tag_525\n      tag_295\n      jump\t// in\n    tag_525:\n        /* \"#utility.yul\":22332:22439   */\n    tag_524:\n        /* \"#utility.yul\":22489:22490   */\n      0x01\n        /* \"#utility.yul\":22477:22487   */\n      dup6\n        /* \"#utility.yul\":22473:22491   */\n      mul\n        /* \"#utility.yul\":22465:22471   */\n      dup4\n        /* \"#utility.yul\":22461:22492   */\n      add\n        /* \"#utility.yul\":22448:22492   */\n      swap2\n      pop\n        /* \"#utility.yul\":22528:22538   */\n      dup5\n        /* \"#utility.yul\":22518:22526   */\n      dup7\n        /* \"#utility.yul\":22514:22539   */\n      sub\n        /* \"#utility.yul\":22501:22539   */\n      swap1\n      pop\n        /* \"#utility.yul\":22076:22545   */\n      swap5\n      pop\n      swap5\n      swap3\n      pop\n      pop\n      pop\n      jump\t// out\n        /* \"#utility.yul\":22551:22647   */\n    tag_296:\n        /* \"#utility.yul\":22609:22615   */\n      0x00\n        /* \"#utility.yul\":22637:22640   */\n      dup3\n        /* \"#utility.yul\":22627:22640   */\n      swap1\n      pop\n        /* \"#utility.yul\":22551:22647   */\n      swap3\n      swap2\n      pop\n      pop\n      jump\t// out\n        /* \"#utility.yul\":22745:22895   */\n    tag_298:\n        /* \"#utility.yul\":22782:22789   */\n      0x00\n        /* \"#utility.yul\":22822:22888   */\n      0xffffffffffffffffffffffffffffffffffffffff000000000000000000000000\n        /* \"#utility.yul\":22815:22820   */\n      dup3\n        /* \"#utility.yul\":22811:22889   */\n      and\n        /* \"#utility.yul\":22800:22889   */\n      swap1\n      pop\n        /* \"#utility.yul\":22745:22895   */\n      swap2\n      swap1\n      pop\n      jump\t// out\n        /* \"#utility.yul\":22901:23453   */\n    tag_222:\n        /* \"#utility.yul\":22992:22997   */\n      0x00\n        /* \"#utility.yul\":23023:23068   */\n      tag_530\n        /* \"#utility.yul\":23064:23067   */\n      dup4\n        /* \"#utility.yul\":23057:23062   */\n      dup4\n        /* \"#utility.yul\":23023:23068   */\n      tag_296\n      jump\t// in\n    tag_530:\n        /* \"#utility.yul\":23093:23098   */\n      dup3\n        /* \"#utility.yul\":23117:23158   */\n      tag_531\n        /* \"#utility.yul\":23148:23156   */\n      dup2\n        /* \"#utility.yul\":23135:23157   */\n      calldataload\n        /* \"#utility.yul\":23117:23158   */\n      tag_298\n      jump\t// in\n    tag_531:\n        /* \"#utility.yul\":23108:23158   */\n      swap3\n      pop\n        /* \"#utility.yul\":23182:23184   */\n      0x14\n        /* \"#utility.yul\":23174:23180   */\n      dup3\n        /* \"#utility.yul\":23171:23185   */\n      lt\n        /* \"#utility.yul\":23168:23446   */\n      iszero\n      tag_532\n      jumpi\n        /* \"#utility.yul\":23253:23422   */\n      tag_533\n        /* \"#utility.yul\":23338:23404   */\n      0xffffffffffffffffffffffffffffffffffffffff000000000000000000000000\n        /* \"#utility.yul\":23308:23314   */\n      dup4\n        /* \"#utility.yul\":23304:23306   */\n      0x14\n        /* \"#utility.yul\":23300:23315   */\n      sub\n        /* \"#utility.yul\":23297:23298   */\n      0x08\n        /* \"#utility.yul\":23293:23316   */\n      mul\n        /* \"#utility.yul\":23253:23422   */\n      tag_278\n      jump\t// in\n    tag_533:\n        /* \"#utility.yul\":23230:23235   */\n      dup4\n        /* \"#utility.yul\":23209:23436   */\n      and\n        /* \"#utility.yul\":23200:23436   */\n      swap3\n      pop\n        /* \"#utility.yul\":23168:23446   */\n    tag_532:\n        /* \"#utility.yul\":22998:23453   */\n      pop\n      pop\n        /* \"#utility.yul\":22901:23453   */\n      swap3\n      swap2\n      pop\n      pop\n      jump\t// out\n        /* \"#utility.yul\":23459:23629   */\n    tag_299:\n        /* \"#utility.yul\":23599:23621   */\n      0x5061757361626c653a206e6f7420706175736564000000000000000000000000\n        /* \"#utility.yul\":23595:23596   */\n      0x00\n        /* \"#utility.yul\":23587:23593   */\n      dup3\n        /* \"#utility.yul\":23583:23597   */\n      add\n        /* \"#utility.yul\":23576:23622   */\n      mstore\n        /* \"#utility.yul\":23459:23629   */\n      pop\n      jump\t// out\n        /* \"#utility.yul\":23635:24001   */\n    tag_300:\n        /* \"#utility.yul\":23777:23780   */\n      0x00\n        /* \"#utility.yul\":23798:23865   */\n      tag_536\n        /* \"#utility.yul\":23862:23864   */\n      0x14\n        /* \"#utility.yul\":23857:23860   */\n      dup4\n        /* \"#utility.yul\":23798:23865   */\n      tag_262\n      jump\t// in\n    tag_536:\n        /* \"#utility.yul\":23791:23865   */\n      swap2\n      pop\n        /* \"#utility.yul\":23874:23967   */\n      tag_537\n        /* \"#utility.yul\":23963:23966   */\n      dup3\n        /* \"#utility.yul\":23874:23967   */\n      tag_299\n      jump\t// in\n    tag_537:\n        /* \"#utility.yul\":23992:23994   */\n      0x20\n        /* \"#utility.yul\":23987:23990   */\n      dup3\n        /* \"#utility.yul\":23983:23995   */\n      add\n        /* \"#utility.yul\":23976:23995   */\n      swap1\n      pop\n        /* \"#utility.yul\":23635:24001   */\n      swap2\n      swap1\n      pop\n      jump\t// out\n        /* \"#utility.yul\":24007:24426   */\n    tag_230:\n        /* \"#utility.yul\":24173:24177   */\n      0x00\n        /* \"#utility.yul\":24211:24213   */\n      0x20\n        /* \"#utility.yul\":24200:24209   */\n      dup3\n        /* \"#utility.yul\":24196:24214   */\n      add\n        /* \"#utility.yul\":24188:24214   */\n      swap1\n      pop\n        /* \"#utility.yul\":24260:24269   */\n      dup2\n        /* \"#utility.yul\":24254:24258   */\n      dup2\n        /* \"#utility.yul\":24250:24270   */\n      sub\n        /* \"#utility.yul\":24246:24247   */\n      0x00\n        /* \"#utility.yul\":24235:24244   */\n      dup4\n        /* \"#utility.yul\":24231:24248   */\n      add\n        /* \"#utility.yul\":24224:24271   */\n      mstore\n        /* \"#utility.yul\":24288:24419   */\n      tag_539\n        /* \"#utility.yul\":24414:24418   */\n      dup2\n        /* \"#utility.yul\":24288:24419   */\n      tag_300\n      jump\t// in\n    tag_539:\n        /* \"#utility.yul\":24280:24419   */\n      swap1\n      pop\n        /* \"#utility.yul\":24007:24426   */\n      swap2\n      swap1\n      pop\n      jump\t// out\n\n    auxdata: 0xa26469706673582212202b0a890cf86140c8c5ea0691b931c43179b1c24b590e250449b4002ec75d300b64736f6c634300081a0033\n}\n",
				"bytecode": {
					"linkReferences": {},
					"object": "60a060405234801561000f575f80fd5b5060405161215e38038061215e8339818101604052810190610031919061033a565b61003f61011460201b60201c565b818073ffffffffffffffffffffffffffffffffffffffff1660808173ffffffffffffffffffffffffffffffffffffffff1681525050505f73ffffffffffffffffffffffffffffffffffffffff168173ffffffffffffffffffffffffffffffffffffffff16036100e5575f6040517f1e4fbdf70000000000000000000000000000000000000000000000000000000081526004016100dc9190610374565b60405180910390fd5b6100f48161012860201b60201c565b505f8060146101000a81548160ff021916908315150217905550506104d7565b5f6101236101e960201b60201c565b905090565b5f805f9054906101000a900473ffffffffffffffffffffffffffffffffffffffff169050815f806101000a81548173ffffffffffffffffffffffffffffffffffffffff021916908373ffffffffffffffffffffffffffffffffffffffff1602179055508173ffffffffffffffffffffffffffffffffffffffff168173ffffffffffffffffffffffffffffffffffffffff167f8be0079c531659141344cd1fd0a4f28419497f9722a3daafe3b4186f6b6457e060405160405180910390a35050565b5f805f36905090505f61020061026c60201b60201c565b90506102113361028060201b60201c565b801561021d5750808210155b15610256575f36828461023091906103c3565b90809261023f939291906103fe565b9061024a9190610479565b60601c92505050610269565b6102646102c460201b60201c565b925050505b90565b5f61027b6102cb60201b60201c565b905090565b5f61028f6102d360201b60201c565b73ffffffffffffffffffffffffffffffffffffffff168273ffffffffffffffffffffffffffffffffffffffff16149050919050565b5f33905090565b5f6014905090565b5f608051905090565b5f80fd5b5f73ffffffffffffffffffffffffffffffffffffffff82169050919050565b5f610309826102e0565b9050919050565b610319816102ff565b8114610323575f80fd5b50565b5f8151905061033481610310565b92915050565b5f6020828403121561034f5761034e6102dc565b5b5f61035c84828501610326565b91505092915050565b61036e816102ff565b82525050565b5f6020820190506103875f830184610365565b92915050565b5f819050919050565b7f4e487b71000000000000000000000000000000000000000000000000000000005f52601160045260245ffd5b5f6103cd8261038d565b91506103d88361038d565b92508282039050818111156103f0576103ef610396565b5b92915050565b5f80fd5b5f80fd5b5f8085851115610411576104106103f6565b5b83861115610422576104216103fa565b5b6001850283019150848603905094509492505050565b5f82905092915050565b5f7fffffffffffffffffffffffffffffffffffffffff00000000000000000000000082169050919050565b5f82821b905092915050565b5f6104848383610438565b8261048f8135610442565b925060148210156104cf576104ca7fffffffffffffffffffffffffffffffffffffffff0000000000000000000000008360140360080261046d565b831692505b505092915050565b608051611c6f6104ef5f395f6103ed0152611c6f5ff3fe608060405234801561000f575f80fd5b5060043610610109575f3560e01c80638e4d0f40116100a0578063b33712c51161006f578063b33712c5146102a8578063b83597d3146102b2578063e215a58e146102ce578063f2fde38b146102ea578063fe35089f1461030657610109565b80638e4d0f40146101f757806395f2f9f41461022c578063a2428b731461025c578063ab2add761461028c57610109565b8063618e6ce6116100dc578063618e6ce614610181578063715018a6146101b15780637da0a877146101bb5780638da5cb5b146101d957610109565b8063439766ce1461010d578063571e872014610117578063572b6c05146101335780635c975abb14610163575b5f80fd5b610115610336565b005b610131600480360381019061012c919061111a565b610348565b005b61014d6004803603810190610148919061122c565b610364565b60405161015a9190611271565b60405180910390f35b61016b6103a2565b6040516101789190611271565b60405180910390f35b61019b6004803603810190610196919061128a565b6103b7565b6040516101a89190611271565b60405180910390f35b6101b96103d7565b005b6101c36103ea565b6040516101d091906112c4565b60405180910390f35b6101e1610411565b6040516101ee91906112c4565b60405180910390f35b610211600480360381019061020c919061128a565b610438565b60405161022396959493929190611355565b60405180910390f35b6102466004803603810190610241919061128a565b610695565b60405161025391906113c9565b60405180910390f35b6102766004803603810190610271919061128a565b6106fa565b60405161028391906112c4565b60405180910390f35b6102a660048036038101906102a1919061140c565b61077d565b005b6102b06109db565b005b6102cc60048036038101906102c7919061145c565b6109ed565b005b6102e860048036038101906102e3919061111a565b610bb0565b005b61030460048036038101906102ff919061122c565b610bcb565b005b610320600480360381019061031b919061128a565b610c4f565b60405161032d9190611271565b60405180910390f35b61033e610c60565b610346610ce7565b565b610350610d49565b61035e8484848460016109ed565b50505050565b5f61036d6103ea565b73ffffffffffffffffffffffffffffffffffffffff168273ffffffffffffffffffffffffffffffffffffffff16149050919050565b5f8060149054906101000a900460ff16905090565b5f8060015f8481526020019081526020015f206001015414159050919050565b6103df610c60565b6103e85f610d93565b565b5f7f0000000000000000000000000000000000000000000000000000000000000000905090565b5f805f9054906101000a900473ffffffffffffffffffffffffffffffffffffffff16905090565b5f8060608060605f610449876103b7565b610488576040517f08c379a000000000000000000000000000000000000000000000000000000000815260040161047f90611571565b60405180910390fd5b5f60015f8981526020019081526020015f209050805f015f9054906101000a900473ffffffffffffffffffffffffffffffffffffffff168160010154826002018360030184600401856005015f9054906101000a900460ff168380546104ed906115bc565b80601f0160208091040260200160405190810160405280929190818152602001828054610519906115bc565b80156105645780601f1061053b57610100808354040283529160200191610564565b820191905f5260205f20905b81548152906001019060200180831161054757829003601f168201915b50505050509350828054610577906115bc565b80601f01602080910402602001604051908101604052809291908181526020018280546105a3906115bc565b80156105ee5780601f106105c5576101008083540402835291602001916105ee565b820191905f5260205f20905b8154815290600101906020018083116105d157829003601f168201915b50505050509250818054610601906115bc565b80601f016020809104026020016040519081016040528092919081815260200182805461062d906115bc565b80156106785780601f1061064f57610100808354040283529160200191610678565b820191905f5260205f20905b81548152906001019060200180831161065b57829003601f168201915b505050505091509650965096509650965096505091939550919395565b5f61069f826103b7565b6106de576040517f08c379a00000000000000000000000000000000000000000000000000000000081526004016106d590611571565b60405180910390fd5b60015f8381526020019081526020015f20600101549050919050565b5f610704826103b7565b610743576040517f08c379a000000000000000000000000000000000000000000000000000000000815260040161073a90611571565b60405180910390fd5b60015f8381526020019081526020015f205f015f9054906101000a900473ffffffffffffffffffffffffffffffffffffffff169050919050565b610785610d49565b61078e836103b7565b6107cd576040517f08c379a00000000000000000000000000000000000000000000000000000000081526004016107c490611571565b60405180910390fd5b5f816107d957336107e2565b6107e1610e54565b5b905060015f8581526020019081526020015f205f015f9054906101000a900473ffffffffffffffffffffffffffffffffffffffff1673ffffffffffffffffffffffffffffffffffffffff168173ffffffffffffffffffffffffffffffffffffffff1614610884576040517f08c379a000000000000000000000000000000000000000000000000000000000815260040161087b9061165c565b60405180910390fd5b5f73ffffffffffffffffffffffffffffffffffffffff168373ffffffffffffffffffffffffffffffffffffffff16036108f2576040517f08c379a00000000000000000000000000000000000000000000000000000000081526004016108e9906116ea565b60405180910390fd5b5f60015f8681526020019081526020015f205f015f9054906101000a900473ffffffffffffffffffffffffffffffffffffffff1690508360015f8781526020019081526020015f205f015f6101000a81548173ffffffffffffffffffffffffffffffffffffffff021916908373ffffffffffffffffffffffffffffffffffffffff1602179055508373ffffffffffffffffffffffffffffffffffffffff168173ffffffffffffffffffffffffffffffffffffffff16867f0b659dccc8eb950324170e8d9598af5ee04ee070883eb28651a96788721fbf8360405160405180910390a45050505050565b6109e3610c60565b6109eb610e62565b565b6109f5610d49565b6109fe856103b7565b15610a3e576040517f08c379a0000000000000000000000000000000000000000000000000000000008152600401610a3590611752565b60405180910390fd5b6040518060c00160405280610a51610e54565b73ffffffffffffffffffffffffffffffffffffffff16815260200142815260200185815260200184815260200183815260200182151581525060015f8781526020019081526020015f205f820151815f015f6101000a81548173ffffffffffffffffffffffffffffffffffffffff021916908373ffffffffffffffffffffffffffffffffffffffff160217905550602082015181600101556040820151816002019081610afe919061190d565b506060820151816003019081610b14919061190d565b506080820151816004019081610b2a919061190d565b5060a0820151816005015f6101000a81548160ff021916908315150217905550905050610b55610e54565b73ffffffffffffffffffffffffffffffffffffffff16857fae5ab09589867efdd9d9d1b4259d914151a9730d97b10bf71109e597a65155e686868686604051610ba194939291906119dc565b60405180910390a35050505050565b610bb8610d49565b610bc5848484845f6109ed565b50505050565b610bd3610c60565b5f73ffffffffffffffffffffffffffffffffffffffff168173ffffffffffffffffffffffffffffffffffffffff1603610c43575f6040517f1e4fbdf7000000000000000000000000000000000000000000000000000000008152600401610c3a91906112c4565b60405180910390fd5b610c4c81610d93565b50565b5f610c59826103b7565b9050919050565b610c68610e54565b73ffffffffffffffffffffffffffffffffffffffff16610c86610411565b73ffffffffffffffffffffffffffffffffffffffff1614610ce557610ca9610e54565b6040517f118cdaa7000000000000000000000000000000000000000000000000000000008152600401610cdc91906112c4565b60405180910390fd5b565b610cef610d49565b60015f60146101000a81548160ff0219169083151502179055507f62e78cea01bee320cd4e420270b5ea74000d11b0c9f74754ebdbfc544b05a258610d32610e54565b604051610d3f91906112c4565b60405180910390a1565b610d516103a2565b15610d91576040517f08c379a0000000000000000000000000000000000000000000000000000000008152600401610d8890611a7e565b60405180910390fd5b565b5f805f9054906101000a900473ffffffffffffffffffffffffffffffffffffffff169050815f806101000a81548173ffffffffffffffffffffffffffffffffffffffff021916908373ffffffffffffffffffffffffffffffffffffffff1602179055508173ffffffffffffffffffffffffffffffffffffffff168173ffffffffffffffffffffffffffffffffffffffff167f8be0079c531659141344cd1fd0a4f28419497f9722a3daafe3b4186f6b6457e060405160405180910390a35050565b5f610e5d610ec3565b905090565b610e6a610f34565b5f8060146101000a81548160ff0219169083151502179055507f5db9ee0a495bf2e6ff9c91a7834c1ba4fdd244a5e8aa4e537bd38aeae4b073aa610eac610e54565b604051610eb991906112c4565b60405180910390a1565b5f805f36905090505f610ed4610f7d565b9050610edf33610364565b8015610eeb5750808210155b15610f24575f368284610efe9190611ac9565b908092610f0d93929190611b04565b90610f189190611b73565b60601c92505050610f31565b610f2c610f8b565b925050505b90565b610f3c6103a2565b610f7b576040517f08c379a0000000000000000000000000000000000000000000000000000000008152600401610f7290611c1b565b60405180910390fd5b565b5f610f86610f92565b905090565b5f33905090565b5f6014905090565b5f604051905090565b5f80fd5b5f80fd5b5f819050919050565b610fbd81610fab565b8114610fc7575f80fd5b50565b5f81359050610fd881610fb4565b92915050565b5f80fd5b5f80fd5b5f601f19601f8301169050919050565b7f4e487b71000000000000000000000000000000000000000000000000000000005f52604160045260245ffd5b61102c82610fe6565b810181811067ffffffffffffffff8211171561104b5761104a610ff6565b5b80604052505050565b5f61105d610f9a565b90506110698282611023565b919050565b5f67ffffffffffffffff82111561108857611087610ff6565b5b61109182610fe6565b9050602081019050919050565b828183375f83830152505050565b5f6110be6110b98461106e565b611054565b9050828152602081018484840111156110da576110d9610fe2565b5b6110e584828561109e565b509392505050565b5f82601f83011261110157611100610fde565b5b81356111118482602086016110ac565b91505092915050565b5f805f806080858703121561113257611131610fa3565b5b5f61113f87828801610fca565b945050602085013567ffffffffffffffff8111156111605761115f610fa7565b5b61116c878288016110ed565b935050604085013567ffffffffffffffff81111561118d5761118c610fa7565b5b611199878288016110ed565b925050606085013567ffffffffffffffff8111156111ba576111b9610fa7565b5b6111c6878288016110ed565b91505092959194509250565b5f73ffffffffffffffffffffffffffffffffffffffff82169050919050565b5f6111fb826111d2565b9050919050565b61120b816111f1565b8114611215575f80fd5b50565b5f8135905061122681611202565b92915050565b5f6020828403121561124157611240610fa3565b5b5f61124e84828501611218565b91505092915050565b5f8115159050919050565b61126b81611257565b82525050565b5f6020820190506112845f830184611262565b92915050565b5f6020828403121561129f5761129e610fa3565b5b5f6112ac84828501610fca565b91505092915050565b6112be816111f1565b82525050565b5f6020820190506112d75f8301846112b5565b92915050565b5f819050919050565b6112ef816112dd565b82525050565b5f81519050919050565b5f82825260208201905092915050565b8281835e5f83830152505050565b5f611327826112f5565b61133181856112ff565b935061134181856020860161130f565b61134a81610fe6565b840191505092915050565b5f60c0820190506113685f8301896112b5565b61137560208301886112e6565b8181036040830152611387818761131d565b9050818103606083015261139b818661131d565b905081810360808301526113af818561131d565b90506113be60a0830184611262565b979650505050505050565b5f6020820190506113dc5f8301846112e6565b92915050565b6113eb81611257565b81146113f5575f80fd5b50565b5f81359050611406816113e2565b92915050565b5f805f6060848603121561142357611422610fa3565b5b5f61143086828701610fca565b935050602061144186828701611218565b9250506040611452868287016113f8565b9150509250925092565b5f805f805f60a0868803121561147557611474610fa3565b5b5f61148288828901610fca565b955050602086013567ffffffffffffffff8111156114a3576114a2610fa7565b5b6114af888289016110ed565b945050604086013567ffffffffffffffff8111156114d0576114cf610fa7565b5b6114dc888289016110ed565b935050606086013567ffffffffffffffff8111156114fd576114fc610fa7565b5b611509888289016110ed565b925050608061151a888289016113f8565b9150509295509295909350565b7f446f63756d656e74206e6f7420666f756e642e000000000000000000000000005f82015250565b5f61155b6013836112ff565b915061156682611527565b602082019050919050565b5f6020820190508181035f8301526115888161154f565b9050919050565b7f4e487b71000000000000000000000000000000000000000000000000000000005f52602260045260245ffd5b5f60028204905060018216806115d357607f821691505b6020821081036115e6576115e561158f565b5b50919050565b7f4f6e6c7920746865206f776e65722063616e207472616e73666572206f776e655f8201527f72736869702e0000000000000000000000000000000000000000000000000000602082015250565b5f6116466026836112ff565b9150611651826115ec565b604082019050919050565b5f6020820190508181035f8301526116738161163a565b9050919050565b7f4e6577206f776e65722063616e6e6f7420626520746865207a65726f206164645f8201527f726573732e000000000000000000000000000000000000000000000000000000602082015250565b5f6116d46025836112ff565b91506116df8261167a565b604082019050919050565b5f6020820190508181035f830152611701816116c8565b9050919050565b7f446f63756d656e7420616c726561647920726567697374657265642e000000005f82015250565b5f61173c601c836112ff565b915061174782611708565b602082019050919050565b5f6020820190508181035f83015261176981611730565b9050919050565b5f819050815f5260205f209050919050565b5f6020601f8301049050919050565b5f82821b905092915050565b5f600883026117cc7fffffffffffffffffffffffffffffffffffffffffffffffffffffffffffffffff82611791565b6117d68683611791565b95508019841693508086168417925050509392505050565b5f819050919050565b5f61181161180c611807846112dd565b6117ee565b6112dd565b9050919050565b5f819050919050565b61182a836117f7565b61183e61183682611818565b84845461179d565b825550505050565b5f90565b611852611846565b61185d818484611821565b505050565b5b81811015611880576118755f8261184a565b600181019050611863565b5050565b601f8211156118c55761189681611770565b61189f84611782565b810160208510156118ae578190505b6118c26118ba85611782565b830182611862565b50505b505050565b5f82821c905092915050565b5f6118e55f19846008026118ca565b1980831691505092915050565b5f6118fd83836118d6565b9150826002028217905092915050565b611916826112f5565b67ffffffffffffffff81111561192f5761192e610ff6565b5b61193982546115bc565b611944828285611884565b5f60209050601f831160018114611975575f8415611963578287015190505b61196d85826118f2565b8655506119d4565b601f19841661198386611770565b5f5b828110156119aa57848901518255600182019150602085019450602081019050611985565b868310156119c757848901516119c3601f8916826118d6565b8355505b6001600288020188555050505b505050505050565b5f6080820190508181035f8301526119f4818761131d565b90508181036020830152611a08818661131d565b90508181036040830152611a1c818561131d565b9050611a2b6060830184611262565b95945050505050565b7f5061757361626c653a20706175736564000000000000000000000000000000005f82015250565b5f611a686010836112ff565b9150611a7382611a34565b602082019050919050565b5f6020820190508181035f830152611a9581611a5c565b9050919050565b7f4e487b71000000000000000000000000000000000000000000000000000000005f52601160045260245ffd5b5f611ad3826112dd565b9150611ade836112dd565b9250828203905081811115611af657611af5611a9c565b5b92915050565b5f80fd5b5f80fd5b5f8085851115611b1757611b16611afc565b5b83861115611b2857611b27611b00565b5b6001850283019150848603905094509492505050565b5f82905092915050565b5f7fffffffffffffffffffffffffffffffffffffffff00000000000000000000000082169050919050565b5f611b7e8383611b3e565b82611b898135611b48565b92506014821015611bc957611bc47fffffffffffffffffffffffffffffffffffffffff00000000000000000000000083601403600802611791565b831692505b505092915050565b7f5061757361626c653a206e6f74207061757365640000000000000000000000005f82015250565b5f611c056014836112ff565b9150611c1082611bd1565b602082019050919050565b5f6020820190508181035f830152611c3281611bf9565b905091905056fea26469706673582212202b0a890cf86140c8c5ea0691b931c43179b1c24b590e250449b4002ec75d300b64736f6c634300081a0033",
					"opcodes": "PUSH1 0xA0 PUSH1 0x40 MSTORE CALLVALUE DUP1 ISZERO PUSH2 0xF JUMPI PUSH0 DUP1 REVERT JUMPDEST POP PUSH1 0x40 MLOAD PUSH2 0x215E CODESIZE SUB DUP1 PUSH2 0x215E DUP4 CODECOPY DUP2 DUP2 ADD PUSH1 0x40 MSTORE DUP2 ADD SWAP1 PUSH2 0x31 SWAP2 SWAP1 PUSH2 0x33A JUMP JUMPDEST PUSH2 0x3F PUSH2 0x114 PUSH1 0x20 SHL PUSH1 0x20 SHR JUMP JUMPDEST DUP2 DUP1 PUSH20 0xFFFFFFFFFFFFFFFFFFFFFFFFFFFFFFFFFFFFFFFF AND PUSH1 0x80 DUP2 PUSH20 0xFFFFFFFFFFFFFFFFFFFFFFFFFFFFFFFFFFFFFFFF AND DUP2 MSTORE POP POP POP PUSH0 PUSH20 0xFFFFFFFFFFFFFFFFFFFFFFFFFFFFFFFFFFFFFFFF AND DUP2 PUSH20 0xFFFFFFFFFFFFFFFFFFFFFFFFFFFFFFFFFFFFFFFF AND SUB PUSH2 0xE5 JUMPI PUSH0 PUSH1 0x40 MLOAD PUSH32 0x1E4FBDF700000000000000000000000000000000000000000000000000000000 DUP2 MSTORE PUSH1 0x4 ADD PUSH2 0xDC SWAP2 SWAP1 PUSH2 0x374 JUMP JUMPDEST PUSH1 0x40 MLOAD DUP1 SWAP2 SUB SWAP1 REVERT JUMPDEST PUSH2 0xF4 DUP2 PUSH2 0x128 PUSH1 0x20 SHL PUSH1 0x20 SHR JUMP JUMPDEST POP PUSH0 DUP1 PUSH1 0x14 PUSH2 0x100 EXP DUP2 SLOAD DUP2 PUSH1 0xFF MUL NOT AND SWAP1 DUP4 ISZERO ISZERO MUL OR SWAP1 SSTORE POP POP PUSH2 0x4D7 JUMP JUMPDEST PUSH0 PUSH2 0x123 PUSH2 0x1E9 PUSH1 0x20 SHL PUSH1 0x20 SHR JUMP JUMPDEST SWAP1 POP SWAP1 JUMP JUMPDEST PUSH0 DUP1 PUSH0 SWAP1 SLOAD SWAP1 PUSH2 0x100 EXP SWAP1 DIV PUSH20 0xFFFFFFFFFFFFFFFFFFFFFFFFFFFFFFFFFFFFFFFF AND SWAP1 POP DUP2 PUSH0 DUP1 PUSH2 0x100 EXP DUP2 SLOAD DUP2 PUSH20 0xFFFFFFFFFFFFFFFFFFFFFFFFFFFFFFFFFFFFFFFF MUL NOT AND SWAP1 DUP4 PUSH20 0xFFFFFFFFFFFFFFFFFFFFFFFFFFFFFFFFFFFFFFFF AND MUL OR SWAP1 SSTORE POP DUP2 PUSH20 0xFFFFFFFFFFFFFFFFFFFFFFFFFFFFFFFFFFFFFFFF AND DUP2 PUSH20 0xFFFFFFFFFFFFFFFFFFFFFFFFFFFFFFFFFFFFFFFF AND PUSH32 0x8BE0079C531659141344CD1FD0A4F28419497F9722A3DAAFE3B4186F6B6457E0 PUSH1 0x40 MLOAD PUSH1 0x40 MLOAD DUP1 SWAP2 SUB SWAP1 LOG3 POP POP JUMP JUMPDEST PUSH0 DUP1 PUSH0 CALLDATASIZE SWAP1 POP SWAP1 POP PUSH0 PUSH2 0x200 PUSH2 0x26C PUSH1 0x20 SHL PUSH1 0x20 SHR JUMP JUMPDEST SWAP1 POP PUSH2 0x211 CALLER PUSH2 0x280 PUSH1 0x20 SHL PUSH1 0x20 SHR JUMP JUMPDEST DUP1 ISZERO PUSH2 0x21D JUMPI POP DUP1 DUP3 LT ISZERO JUMPDEST ISZERO PUSH2 0x256 JUMPI PUSH0 CALLDATASIZE DUP3 DUP5 PUSH2 0x230 SWAP2 SWAP1 PUSH2 0x3C3 JUMP JUMPDEST SWAP1 DUP1 SWAP3 PUSH2 0x23F SWAP4 SWAP3 SWAP2 SWAP1 PUSH2 0x3FE JUMP JUMPDEST SWAP1 PUSH2 0x24A SWAP2 SWAP1 PUSH2 0x479 JUMP JUMPDEST PUSH1 0x60 SHR SWAP3 POP POP POP PUSH2 0x269 JUMP JUMPDEST PUSH2 0x264 PUSH2 0x2C4 PUSH1 0x20 SHL PUSH1 0x20 SHR JUMP JUMPDEST SWAP3 POP POP POP JUMPDEST SWAP1 JUMP JUMPDEST PUSH0 PUSH2 0x27B PUSH2 0x2CB PUSH1 0x20 SHL PUSH1 0x20 SHR JUMP JUMPDEST SWAP1 POP SWAP1 JUMP JUMPDEST PUSH0 PUSH2 0x28F PUSH2 0x2D3 PUSH1 0x20 SHL PUSH1 0x20 SHR JUMP JUMPDEST PUSH20 0xFFFFFFFFFFFFFFFFFFFFFFFFFFFFFFFFFFFFFFFF AND DUP3 PUSH20 0xFFFFFFFFFFFFFFFFFFFFFFFFFFFFFFFFFFFFFFFF AND EQ SWAP1 POP SWAP2 SWAP1 POP JUMP JUMPDEST PUSH0 CALLER SWAP1 POP SWAP1 JUMP JUMPDEST PUSH0 PUSH1 0x14 SWAP1 POP SWAP1 JUMP JUMPDEST PUSH0 PUSH1 0x80 MLOAD SWAP1 POP SWAP1 JUMP JUMPDEST PUSH0 DUP1 REVERT JUMPDEST PUSH0 PUSH20 0xFFFFFFFFFFFFFFFFFFFFFFFFFFFFFFFFFFFFFFFF DUP3 AND SWAP1 POP SWAP2 SWAP1 POP JUMP JUMPDEST PUSH0 PUSH2 0x309 DUP3 PUSH2 0x2E0 JUMP JUMPDEST SWAP1 POP SWAP2 SWAP1 POP JUMP JUMPDEST PUSH2 0x319 DUP2 PUSH2 0x2FF JUMP JUMPDEST DUP2 EQ PUSH2 0x323 JUMPI PUSH0 DUP1 REVERT JUMPDEST POP JUMP JUMPDEST PUSH0 DUP2 MLOAD SWAP1 POP PUSH2 0x334 DUP2 PUSH2 0x310 JUMP JUMPDEST SWAP3 SWAP2 POP POP JUMP JUMPDEST PUSH0 PUSH1 0x20 DUP3 DUP5 SUB SLT ISZERO PUSH2 0x34F JUMPI PUSH2 0x34E PUSH2 0x2DC JUMP JUMPDEST JUMPDEST PUSH0 PUSH2 0x35C DUP5 DUP3 DUP6 ADD PUSH2 0x326 JUMP JUMPDEST SWAP2 POP POP SWAP3 SWAP2 POP POP JUMP JUMPDEST PUSH2 0x36E DUP2 PUSH2 0x2FF JUMP JUMPDEST DUP3 MSTORE POP POP JUMP JUMPDEST PUSH0 PUSH1 0x20 DUP3 ADD SWAP1 POP PUSH2 0x387 PUSH0 DUP4 ADD DUP5 PUSH2 0x365 JUMP JUMPDEST SWAP3 SWAP2 POP POP JUMP JUMPDEST PUSH0 DUP2 SWAP1 POP SWAP2 SWAP1 POP JUMP JUMPDEST PUSH32 0x4E487B7100000000000000000000000000000000000000000000000000000000 PUSH0 MSTORE PUSH1 0x11 PUSH1 0x4 MSTORE PUSH1 0x24 PUSH0 REVERT JUMPDEST PUSH0 PUSH2 0x3CD DUP3 PUSH2 0x38D JUMP JUMPDEST SWAP2 POP PUSH2 0x3D8 DUP4 PUSH2 0x38D JUMP JUMPDEST SWAP3 POP DUP3 DUP3 SUB SWAP1 POP DUP2 DUP2 GT ISZERO PUSH2 0x3F0 JUMPI PUSH2 0x3EF PUSH2 0x396 JUMP JUMPDEST JUMPDEST SWAP3 SWAP2 POP POP JUMP JUMPDEST PUSH0 DUP1 REVERT JUMPDEST PUSH0 DUP1 REVERT JUMPDEST PUSH0 DUP1 DUP6 DUP6 GT ISZERO PUSH2 0x411 JUMPI PUSH2 0x410 PUSH2 0x3F6 JUMP JUMPDEST JUMPDEST DUP4 DUP7 GT ISZERO PUSH2 0x422 JUMPI PUSH2 0x421 PUSH2 0x3FA JUMP JUMPDEST JUMPDEST PUSH1 0x1 DUP6 MUL DUP4 ADD SWAP2 POP DUP5 DUP7 SUB SWAP1 POP SWAP5 POP SWAP5 SWAP3 POP POP POP JUMP JUMPDEST PUSH0 DUP3 SWAP1 POP SWAP3 SWAP2 POP POP JUMP JUMPDEST PUSH0 PUSH32 0xFFFFFFFFFFFFFFFFFFFFFFFFFFFFFFFFFFFFFFFF000000000000000000000000 DUP3 AND SWAP1 POP SWAP2 SWAP1 POP JUMP JUMPDEST PUSH0 DUP3 DUP3 SHL SWAP1 POP SWAP3 SWAP2 POP POP JUMP JUMPDEST PUSH0 PUSH2 0x484 DUP4 DUP4 PUSH2 0x438 JUMP JUMPDEST DUP3 PUSH2 0x48F DUP2 CALLDATALOAD PUSH2 0x442 JUMP JUMPDEST SWAP3 POP PUSH1 0x14 DUP3 LT ISZERO PUSH2 0x4CF JUMPI PUSH2 0x4CA PUSH32 0xFFFFFFFFFFFFFFFFFFFFFFFFFFFFFFFFFFFFFFFF000000000000000000000000 DUP4 PUSH1 0x14 SUB PUSH1 0x8 MUL PUSH2 0x46D JUMP JUMPDEST DUP4 AND SWAP3 POP JUMPDEST POP POP SWAP3 SWAP2 POP POP JUMP JUMPDEST PUSH1 0x80 MLOAD PUSH2 0x1C6F PUSH2 0x4EF PUSH0 CODECOPY PUSH0 PUSH2 0x3ED ADD MSTORE PUSH2 0x1C6F PUSH0 RETURN INVALID PUSH1 0x80 PUSH1 0x40 MSTORE CALLVALUE DUP1 ISZERO PUSH2 0xF JUMPI PUSH0 DUP1 REVERT JUMPDEST POP PUSH1 0x4 CALLDATASIZE LT PUSH2 0x109 JUMPI PUSH0 CALLDATALOAD PUSH1 0xE0 SHR DUP1 PUSH4 0x8E4D0F40 GT PUSH2 0xA0 JUMPI DUP1 PUSH4 0xB33712C5 GT PUSH2 0x6F JUMPI DUP1 PUSH4 0xB33712C5 EQ PUSH2 0x2A8 JUMPI DUP1 PUSH4 0xB83597D3 EQ PUSH2 0x2B2 JUMPI DUP1 PUSH4 0xE215A58E EQ PUSH2 0x2CE JUMPI DUP1 PUSH4 0xF2FDE38B EQ PUSH2 0x2EA JUMPI DUP1 PUSH4 0xFE35089F EQ PUSH2 0x306 JUMPI PUSH2 0x109 JUMP JUMPDEST DUP1 PUSH4 0x8E4D0F40 EQ PUSH2 0x1F7 JUMPI DUP1 PUSH4 0x95F2F9F4 EQ PUSH2 0x22C JUMPI DUP1 PUSH4 0xA2428B73 EQ PUSH2 0x25C JUMPI DUP1 PUSH4 0xAB2ADD76 EQ PUSH2 0x28C JUMPI PUSH2 0x109 JUMP JUMPDEST DUP1 PUSH4 0x618E6CE6 GT PUSH2 0xDC JUMPI DUP1 PUSH4 0x618E6CE6 EQ PUSH2 0x181 JUMPI DUP1 PUSH4 0x715018A6 EQ PUSH2 0x1B1 JUMPI DUP1 PUSH4 0x7DA0A877 EQ PUSH2 0x1BB JUMPI DUP1 PUSH4 0x8DA5CB5B EQ PUSH2 0x1D9 JUMPI PUSH2 0x109 JUMP JUMPDEST DUP1 PUSH4 0x439766CE EQ PUSH2 0x10D JUMPI DUP1 PUSH4 0x571E8720 EQ PUSH2 0x117 JUMPI DUP1 PUSH4 0x572B6C05 EQ PUSH2 0x133 JUMPI DUP1 PUSH4 0x5C975ABB EQ PUSH2 0x163 JUMPI JUMPDEST PUSH0 DUP1 REVERT JUMPDEST PUSH2 0x115 PUSH2 0x336 JUMP JUMPDEST STOP JUMPDEST PUSH2 0x131 PUSH1 0x4 DUP1 CALLDATASIZE SUB DUP2 ADD SWAP1 PUSH2 0x12C SWAP2 SWAP1 PUSH2 0x111A JUMP JUMPDEST PUSH2 0x348 JUMP JUMPDEST STOP JUMPDEST PUSH2 0x14D PUSH1 0x4 DUP1 CALLDATASIZE SUB DUP2 ADD SWAP1 PUSH2 0x148 SWAP2 SWAP1 PUSH2 0x122C JUMP JUMPDEST PUSH2 0x364 JUMP JUMPDEST PUSH1 0x40 MLOAD PUSH2 0x15A SWAP2 SWAP1 PUSH2 0x1271 JUMP JUMPDEST PUSH1 0x40 MLOAD DUP1 SWAP2 SUB SWAP1 RETURN JUMPDEST PUSH2 0x16B PUSH2 0x3A2 JUMP JUMPDEST PUSH1 0x40 MLOAD PUSH2 0x178 SWAP2 SWAP1 PUSH2 0x1271 JUMP JUMPDEST PUSH1 0x40 MLOAD DUP1 SWAP2 SUB SWAP1 RETURN JUMPDEST PUSH2 0x19B PUSH1 0x4 DUP1 CALLDATASIZE SUB DUP2 ADD SWAP1 PUSH2 0x196 SWAP2 SWAP1 PUSH2 0x128A JUMP JUMPDEST PUSH2 0x3B7 JUMP JUMPDEST PUSH1 0x40 MLOAD PUSH2 0x1A8 SWAP2 SWAP1 PUSH2 0x1271 JUMP JUMPDEST PUSH1 0x40 MLOAD DUP1 SWAP2 SUB SWAP1 RETURN JUMPDEST PUSH2 0x1B9 PUSH2 0x3D7 JUMP JUMPDEST STOP JUMPDEST PUSH2 0x1C3 PUSH2 0x3EA JUMP JUMPDEST PUSH1 0x40 MLOAD PUSH2 0x1D0 SWAP2 SWAP1 PUSH2 0x12C4 JUMP JUMPDEST PUSH1 0x40 MLOAD DUP1 SWAP2 SUB SWAP1 RETURN JUMPDEST PUSH2 0x1E1 PUSH2 0x411 JUMP JUMPDEST PUSH1 0x40 MLOAD PUSH2 0x1EE SWAP2 SWAP1 PUSH2 0x12C4 JUMP JUMPDEST PUSH1 0x40 MLOAD DUP1 SWAP2 SUB SWAP1 RETURN JUMPDEST PUSH2 0x211 PUSH1 0x4 DUP1 CALLDATASIZE SUB DUP2 ADD SWAP1 PUSH2 0x20C SWAP2 SWAP1 PUSH2 0x128A JUMP JUMPDEST PUSH2 0x438 JUMP JUMPDEST PUSH1 0x40 MLOAD PUSH2 0x223 SWAP7 SWAP6 SWAP5 SWAP4 SWAP3 SWAP2 SWAP1 PUSH2 0x1355 JUMP JUMPDEST PUSH1 0x40 MLOAD DUP1 SWAP2 SUB SWAP1 RETURN JUMPDEST PUSH2 0x246 PUSH1 0x4 DUP1 CALLDATASIZE SUB DUP2 ADD SWAP1 PUSH2 0x241 SWAP2 SWAP1 PUSH2 0x128A JUMP JUMPDEST PUSH2 0x695 JUMP JUMPDEST PUSH1 0x40 MLOAD PUSH2 0x253 SWAP2 SWAP1 PUSH2 0x13C9 JUMP JUMPDEST PUSH1 0x40 MLOAD DUP1 SWAP2 SUB SWAP1 RETURN JUMPDEST PUSH2 0x276 PUSH1 0x4 DUP1 CALLDATASIZE SUB DUP2 ADD SWAP1 PUSH2 0x271 SWAP2 SWAP1 PUSH2 0x128A JUMP JUMPDEST PUSH2 0x6FA JUMP JUMPDEST PUSH1 0x40 MLOAD PUSH2 0x283 SWAP2 SWAP1 PUSH2 0x12C4 JUMP JUMPDEST PUSH1 0x40 MLOAD DUP1 SWAP2 SUB SWAP1 RETURN JUMPDEST PUSH2 0x2A6 PUSH1 0x4 DUP1 CALLDATASIZE SUB DUP2 ADD SWAP1 PUSH2 0x2A1 SWAP2 SWAP1 PUSH2 0x140C JUMP JUMPDEST PUSH2 0x77D JUMP JUMPDEST STOP JUMPDEST PUSH2 0x2B0 PUSH2 0x9DB JUMP JUMPDEST STOP JUMPDEST PUSH2 0x2CC PUSH1 0x4 DUP1 CALLDATASIZE SUB DUP2 ADD SWAP1 PUSH2 0x2C7 SWAP2 SWAP1 PUSH2 0x145C JUMP JUMPDEST PUSH2 0x9ED JUMP JUMPDEST STOP JUMPDEST PUSH2 0x2E8 PUSH1 0x4 DUP1 CALLDATASIZE SUB DUP2 ADD SWAP1 PUSH2 0x2E3 SWAP2 SWAP1 PUSH2 0x111A JUMP JUMPDEST PUSH2 0xBB0 JUMP JUMPDEST STOP JUMPDEST PUSH2 0x304 PUSH1 0x4 DUP1 CALLDATASIZE SUB DUP2 ADD SWAP1 PUSH2 0x2FF SWAP2 SWAP1 PUSH2 0x122C JUMP JUMPDEST PUSH2 0xBCB JUMP JUMPDEST STOP JUMPDEST PUSH2 0x320 PUSH1 0x4 DUP1 CALLDATASIZE SUB DUP2 ADD SWAP1 PUSH2 0x31B SWAP2 SWAP1 PUSH2 0x128A JUMP JUMPDEST PUSH2 0xC4F JUMP JUMPDEST PUSH1 0x40 MLOAD PUSH2 0x32D SWAP2 SWAP1 PUSH2 0x1271 JUMP JUMPDEST PUSH1 0x40 MLOAD DUP1 SWAP2 SUB SWAP1 RETURN JUMPDEST PUSH2 0x33E PUSH2 0xC60 JUMP JUMPDEST PUSH2 0x346 PUSH2 0xCE7 JUMP JUMPDEST JUMP JUMPDEST PUSH2 0x350 PUSH2 0xD49 JUMP JUMPDEST PUSH2 0x35E DUP5 DUP5 DUP5 DUP5 PUSH1 0x1 PUSH2 0x9ED JUMP JUMPDEST POP POP POP POP JUMP JUMPDEST PUSH0 PUSH2 0x36D PUSH2 0x3EA JUMP JUMPDEST PUSH20 0xFFFFFFFFFFFFFFFFFFFFFFFFFFFFFFFFFFFFFFFF AND DUP3 PUSH20 0xFFFFFFFFFFFFFFFFFFFFFFFFFFFFFFFFFFFFFFFF AND EQ SWAP1 POP SWAP2 SWAP1 POP JUMP JUMPDEST PUSH0 DUP1 PUSH1 0x14 SWAP1 SLOAD SWAP1 PUSH2 0x100 EXP SWAP1 DIV PUSH1 0xFF AND SWAP1 POP SWAP1 JUMP JUMPDEST PUSH0 DUP1 PUSH1 0x1 PUSH0 DUP5 DUP2 MSTORE PUSH1 0x20 ADD SWAP1 DUP2 MSTORE PUSH1 0x20 ADD PUSH0 KECCAK256 PUSH1 0x1 ADD SLOAD EQ ISZERO SWAP1 POP SWAP2 SWAP1 POP JUMP JUMPDEST PUSH2 0x3DF PUSH2 0xC60 JUMP JUMPDEST PUSH2 0x3E8 PUSH0 PUSH2 0xD93 JUMP JUMPDEST JUMP JUMPDEST PUSH0 PUSH32 0x0 SWAP1 POP SWAP1 JUMP JUMPDEST PUSH0 DUP1 PUSH0 SWAP1 SLOAD SWAP1 PUSH2 0x100 EXP SWAP1 DIV PUSH20 0xFFFFFFFFFFFFFFFFFFFFFFFFFFFFFFFFFFFFFFFF AND SWAP1 POP SWAP1 JUMP JUMPDEST PUSH0 DUP1 PUSH1 0x60 DUP1 PUSH1 0x60 PUSH0 PUSH2 0x449 DUP8 PUSH2 0x3B7 JUMP JUMPDEST PUSH2 0x488 JUMPI PUSH1 0x40 MLOAD PUSH32 0x8C379A000000000000000000000000000000000000000000000000000000000 DUP2 MSTORE PUSH1 0x4 ADD PUSH2 0x47F SWAP1 PUSH2 0x1571 JUMP JUMPDEST PUSH1 0x40 MLOAD DUP1 SWAP2 SUB SWAP1 REVERT JUMPDEST PUSH0 PUSH1 0x1 PUSH0 DUP10 DUP2 MSTORE PUSH1 0x20 ADD SWAP1 DUP2 MSTORE PUSH1 0x20 ADD PUSH0 KECCAK256 SWAP1 POP DUP1 PUSH0 ADD PUSH0 SWAP1 SLOAD SWAP1 PUSH2 0x100 EXP SWAP1 DIV PUSH20 0xFFFFFFFFFFFFFFFFFFFFFFFFFFFFFFFFFFFFFFFF AND DUP2 PUSH1 0x1 ADD SLOAD DUP3 PUSH1 0x2 ADD DUP4 PUSH1 0x3 ADD DUP5 PUSH1 0x4 ADD DUP6 PUSH1 0x5 ADD PUSH0 SWAP1 SLOAD SWAP1 PUSH2 0x100 EXP SWAP1 DIV PUSH1 0xFF AND DUP4 DUP1 SLOAD PUSH2 0x4ED SWAP1 PUSH2 0x15BC JUMP JUMPDEST DUP1 PUSH1 0x1F ADD PUSH1 0x20 DUP1 SWAP2 DIV MUL PUSH1 0x20 ADD PUSH1 0x40 MLOAD SWAP1 DUP2 ADD PUSH1 0x40 MSTORE DUP1 SWAP3 SWAP2 SWAP1 DUP2 DUP2 MSTORE PUSH1 0x20 ADD DUP3 DUP1 SLOAD PUSH2 0x519 SWAP1 PUSH2 0x15BC JUMP JUMPDEST DUP1 ISZERO PUSH2 0x564 JUMPI DUP1 PUSH1 0x1F LT PUSH2 0x53B JUMPI PUSH2 0x100 DUP1 DUP4 SLOAD DIV MUL DUP4 MSTORE SWAP2 PUSH1 0x20 ADD SWAP2 PUSH2 0x564 JUMP JUMPDEST DUP3 ADD SWAP2 SWAP1 PUSH0 MSTORE PUSH1 0x20 PUSH0 KECCAK256 SWAP1 JUMPDEST DUP2 SLOAD DUP2 MSTORE SWAP1 PUSH1 0x1 ADD SWAP1 PUSH1 0x20 ADD DUP1 DUP4 GT PUSH2 0x547 JUMPI DUP3 SWAP1 SUB PUSH1 0x1F AND DUP3 ADD SWAP2 JUMPDEST POP POP POP POP POP SWAP4 POP DUP3 DUP1 SLOAD PUSH2 0x577 SWAP1 PUSH2 0x15BC JUMP JUMPDEST DUP1 PUSH1 0x1F ADD PUSH1 0x20 DUP1 SWAP2 DIV MUL PUSH1 0x20 ADD PUSH1 0x40 MLOAD SWAP1 DUP2 ADD PUSH1 0x40 MSTORE DUP1 SWAP3 SWAP2 SWAP1 DUP2 DUP2 MSTORE PUSH1 0x20 ADD DUP3 DUP1 SLOAD PUSH2 0x5A3 SWAP1 PUSH2 0x15BC JUMP JUMPDEST DUP1 ISZERO PUSH2 0x5EE JUMPI DUP1 PUSH1 0x1F LT PUSH2 0x5C5 JUMPI PUSH2 0x100 DUP1 DUP4 SLOAD DIV MUL DUP4 MSTORE SWAP2 PUSH1 0x20 ADD SWAP2 PUSH2 0x5EE JUMP JUMPDEST DUP3 ADD SWAP2 SWAP1 PUSH0 MSTORE PUSH1 0x20 PUSH0 KECCAK256 SWAP1 JUMPDEST DUP2 SLOAD DUP2 MSTORE SWAP1 PUSH1 0x1 ADD SWAP1 PUSH1 0x20 ADD DUP1 DUP4 GT PUSH2 0x5D1 JUMPI DUP3 SWAP1 SUB PUSH1 0x1F AND DUP3 ADD SWAP2 JUMPDEST POP POP POP POP POP SWAP3 POP DUP2 DUP1 SLOAD PUSH2 0x601 SWAP1 PUSH2 0x15BC JUMP JUMPDEST DUP1 PUSH1 0x1F ADD PUSH1 0x20 DUP1 SWAP2 DIV MUL PUSH1 0x20 ADD PUSH1 0x40 MLOAD SWAP1 DUP2 ADD PUSH1 0x40 MSTORE DUP1 SWAP3 SWAP2 SWAP1 DUP2 DUP2 MSTORE PUSH1 0x20 ADD DUP3 DUP1 SLOAD PUSH2 0x62D SWAP1 PUSH2 0x15BC JUMP JUMPDEST DUP1 ISZERO PUSH2 0x678 JUMPI DUP1 PUSH1 0x1F LT PUSH2 0x64F JUMPI PUSH2 0x100 DUP1 DUP4 SLOAD DIV MUL DUP4 MSTORE SWAP2 PUSH1 0x20 ADD SWAP2 PUSH2 0x678 JUMP JUMPDEST DUP3 ADD SWAP2 SWAP1 PUSH0 MSTORE PUSH1 0x20 PUSH0 KECCAK256 SWAP1 JUMPDEST DUP2 SLOAD DUP2 MSTORE SWAP1 PUSH1 0x1 ADD SWAP1 PUSH1 0x20 ADD DUP1 DUP4 GT PUSH2 0x65B JUMPI DUP3 SWAP1 SUB PUSH1 0x1F AND DUP3 ADD SWAP2 JUMPDEST POP POP POP POP POP SWAP2 POP SWAP7 POP SWAP7 POP SWAP7 POP SWAP7 POP SWAP7 POP SWAP7 POP POP SWAP2 SWAP4 SWAP6 POP SWAP2 SWAP4 SWAP6 JUMP JUMPDEST PUSH0 PUSH2 0x69F DUP3 PUSH2 0x3B7 JUMP JUMPDEST PUSH2 0x6DE JUMPI PUSH1 0x40 MLOAD PUSH32 0x8C379A000000000000000000000000000000000000000000000000000000000 DUP2 MSTORE PUSH1 0x4 ADD PUSH2 0x6D5 SWAP1 PUSH2 0x1571 JUMP JUMPDEST PUSH1 0x40 MLOAD DUP1 SWAP2 SUB SWAP1 REVERT JUMPDEST PUSH1 0x1 PUSH0 DUP4 DUP2 MSTORE PUSH1 0x20 ADD SWAP1 DUP2 MSTORE PUSH1 0x20 ADD PUSH0 KECCAK256 PUSH1 0x1 ADD SLOAD SWAP1 POP SWAP2 SWAP1 POP JUMP JUMPDEST PUSH0 PUSH2 0x704 DUP3 PUSH2 0x3B7 JUMP JUMPDEST PUSH2 0x743 JUMPI PUSH1 0x40 MLOAD PUSH32 0x8C379A000000000000000000000000000000000000000000000000000000000 DUP2 MSTORE PUSH1 0x4 ADD PUSH2 0x73A SWAP1 PUSH2 0x1571 JUMP JUMPDEST PUSH1 0x40 MLOAD DUP1 SWAP2 SUB SWAP1 REVERT JUMPDEST PUSH1 0x1 PUSH0 DUP4 DUP2 MSTORE PUSH1 0x20 ADD SWAP1 DUP2 MSTORE PUSH1 0x20 ADD PUSH0 KECCAK256 PUSH0 ADD PUSH0 SWAP1 SLOAD SWAP1 PUSH2 0x100 EXP SWAP1 DIV PUSH20 0xFFFFFFFFFFFFFFFFFFFFFFFFFFFFFFFFFFFFFFFF AND SWAP1 POP SWAP2 SWAP1 POP JUMP JUMPDEST PUSH2 0x785 PUSH2 0xD49 JUMP JUMPDEST PUSH2 0x78E DUP4 PUSH2 0x3B7 JUMP JUMPDEST PUSH2 0x7CD JUMPI PUSH1 0x40 MLOAD PUSH32 0x8C379A000000000000000000000000000000000000000000000000000000000 DUP2 MSTORE PUSH1 0x4 ADD PUSH2 0x7C4 SWAP1 PUSH2 0x1571 JUMP JUMPDEST PUSH1 0x40 MLOAD DUP1 SWAP2 SUB SWAP1 REVERT JUMPDEST PUSH0 DUP2 PUSH2 0x7D9 JUMPI CALLER PUSH2 0x7E2 JUMP JUMPDEST PUSH2 0x7E1 PUSH2 0xE54 JUMP JUMPDEST JUMPDEST SWAP1 POP PUSH1 0x1 PUSH0 DUP6 DUP2 MSTORE PUSH1 0x20 ADD SWAP1 DUP2 MSTORE PUSH1 0x20 ADD PUSH0 KECCAK256 PUSH0 ADD PUSH0 SWAP1 SLOAD SWAP1 PUSH2 0x100 EXP SWAP1 DIV PUSH20 0xFFFFFFFFFFFFFFFFFFFFFFFFFFFFFFFFFFFFFFFF AND PUSH20 0xFFFFFFFFFFFFFFFFFFFFFFFFFFFFFFFFFFFFFFFF AND DUP2 PUSH20 0xFFFFFFFFFFFFFFFFFFFFFFFFFFFFFFFFFFFFFFFF AND EQ PUSH2 0x884 JUMPI PUSH1 0x40 MLOAD PUSH32 0x8C379A000000000000000000000000000000000000000000000000000000000 DUP2 MSTORE PUSH1 0x4 ADD PUSH2 0x87B SWAP1 PUSH2 0x165C JUMP JUMPDEST PUSH1 0x40 MLOAD DUP1 SWAP2 SUB SWAP1 REVERT JUMPDEST PUSH0 PUSH20 0xFFFFFFFFFFFFFFFFFFFFFFFFFFFFFFFFFFFFFFFF AND DUP4 PUSH20 0xFFFFFFFFFFFFFFFFFFFFFFFFFFFFFFFFFFFFFFFF AND SUB PUSH2 0x8F2 JUMPI PUSH1 0x40 MLOAD PUSH32 0x8C379A000000000000000000000000000000000000000000000000000000000 DUP2 MSTORE PUSH1 0x4 ADD PUSH2 0x8E9 SWAP1 PUSH2 0x16EA JUMP JUMPDEST PUSH1 0x40 MLOAD DUP1 SWAP2 SUB SWAP1 REVERT JUMPDEST PUSH0 PUSH1 0x1 PUSH0 DUP7 DUP2 MSTORE PUSH1 0x20 ADD SWAP1 DUP2 MSTORE PUSH1 0x20 ADD PUSH0 KECCAK256 PUSH0 ADD PUSH0 SWAP1 SLOAD SWAP1 PUSH2 0x100 EXP SWAP1 DIV PUSH20 0xFFFFFFFFFFFFFFFFFFFFFFFFFFFFFFFFFFFFFFFF AND SWAP1 POP DUP4 PUSH1 0x1 PUSH0 DUP8 DUP2 MSTORE PUSH1 0x20 ADD SWAP1 DUP2 MSTORE PUSH1 0x20 ADD PUSH0 KECCAK256 PUSH0 ADD PUSH0 PUSH2 0x100 EXP DUP2 SLOAD DUP2 PUSH20 0xFFFFFFFFFFFFFFFFFFFFFFFFFFFFFFFFFFFFFFFF MUL NOT AND SWAP1 DUP4 PUSH20 0xFFFFFFFFFFFFFFFFFFFFFFFFFFFFFFFFFFFFFFFF AND MUL OR SWAP1 SSTORE POP DUP4 PUSH20 0xFFFFFFFFFFFFFFFFFFFFFFFFFFFFFFFFFFFFFFFF AND DUP2 PUSH20 0xFFFFFFFFFFFFFFFFFFFFFFFFFFFFFFFFFFFFFFFF AND DUP7 PUSH32 0xB659DCCC8EB950324170E8D9598AF5EE04EE070883EB28651A96788721FBF83 PUSH1 0x40 MLOAD PUSH1 0x40 MLOAD DUP1 SWAP2 SUB SWAP1 LOG4 POP POP POP POP POP JUMP JUMPDEST PUSH2 0x9E3 PUSH2 0xC60 JUMP JUMPDEST PUSH2 0x9EB PUSH2 0xE62 JUMP JUMPDEST JUMP JUMPDEST PUSH2 0x9F5 PUSH2 0xD49 JUMP JUMPDEST PUSH2 0x9FE DUP6 PUSH2 0x3B7 JUMP JUMPDEST ISZERO PUSH2 0xA3E JUMPI PUSH1 0x40 MLOAD PUSH32 0x8C379A000000000000000000000000000000000000000000000000000000000 DUP2 MSTORE PUSH1 0x4 ADD PUSH2 0xA35 SWAP1 PUSH2 0x1752 JUMP JUMPDEST PUSH1 0x40 MLOAD DUP1 SWAP2 SUB SWAP1 REVERT JUMPDEST PUSH1 0x40 MLOAD DUP1 PUSH1 0xC0 ADD PUSH1 0x40 MSTORE DUP1 PUSH2 0xA51 PUSH2 0xE54 JUMP JUMPDEST PUSH20 0xFFFFFFFFFFFFFFFFFFFFFFFFFFFFFFFFFFFFFFFF AND DUP2 MSTORE PUSH1 0x20 ADD TIMESTAMP DUP2 MSTORE PUSH1 0x20 ADD DUP6 DUP2 MSTORE PUSH1 0x20 ADD DUP5 DUP2 MSTORE PUSH1 0x20 ADD DUP4 DUP2 MSTORE PUSH1 0x20 ADD DUP3 ISZERO ISZERO DUP2 MSTORE POP PUSH1 0x1 PUSH0 DUP8 DUP2 MSTORE PUSH1 0x20 ADD SWAP1 DUP2 MSTORE PUSH1 0x20 ADD PUSH0 KECCAK256 PUSH0 DUP3 ADD MLOAD DUP2 PUSH0 ADD PUSH0 PUSH2 0x100 EXP DUP2 SLOAD DUP2 PUSH20 0xFFFFFFFFFFFFFFFFFFFFFFFFFFFFFFFFFFFFFFFF MUL NOT AND SWAP1 DUP4 PUSH20 0xFFFFFFFFFFFFFFFFFFFFFFFFFFFFFFFFFFFFFFFF AND MUL OR SWAP1 SSTORE POP PUSH1 0x20 DUP3 ADD MLOAD DUP2 PUSH1 0x1 ADD SSTORE PUSH1 0x40 DUP3 ADD MLOAD DUP2 PUSH1 0x2 ADD SWAP1 DUP2 PUSH2 0xAFE SWAP2 SWAP1 PUSH2 0x190D JUMP JUMPDEST POP PUSH1 0x60 DUP3 ADD MLOAD DUP2 PUSH1 0x3 ADD SWAP1 DUP2 PUSH2 0xB14 SWAP2 SWAP1 PUSH2 0x190D JUMP JUMPDEST POP PUSH1 0x80 DUP3 ADD MLOAD DUP2 PUSH1 0x4 ADD SWAP1 DUP2 PUSH2 0xB2A SWAP2 SWAP1 PUSH2 0x190D JUMP JUMPDEST POP PUSH1 0xA0 DUP3 ADD MLOAD DUP2 PUSH1 0x5 ADD PUSH0 PUSH2 0x100 EXP DUP2 SLOAD DUP2 PUSH1 0xFF MUL NOT AND SWAP1 DUP4 ISZERO ISZERO MUL OR SWAP1 SSTORE POP SWAP1 POP POP PUSH2 0xB55 PUSH2 0xE54 JUMP JUMPDEST PUSH20 0xFFFFFFFFFFFFFFFFFFFFFFFFFFFFFFFFFFFFFFFF AND DUP6 PUSH32 0xAE5AB09589867EFDD9D9D1B4259D914151A9730D97B10BF71109E597A65155E6 DUP7 DUP7 DUP7 DUP7 PUSH1 0x40 MLOAD PUSH2 0xBA1 SWAP5 SWAP4 SWAP3 SWAP2 SWAP1 PUSH2 0x19DC JUMP JUMPDEST PUSH1 0x40 MLOAD DUP1 SWAP2 SUB SWAP1 LOG3 POP POP POP POP POP JUMP JUMPDEST PUSH2 0xBB8 PUSH2 0xD49 JUMP JUMPDEST PUSH2 0xBC5 DUP5 DUP5 DUP5 DUP5 PUSH0 PUSH2 0x9ED JUMP JUMPDEST POP POP POP POP JUMP JUMPDEST PUSH2 0xBD3 PUSH2 0xC60 JUMP JUMPDEST PUSH0 PUSH20 0xFFFFFFFFFFFFFFFFFFFFFFFFFFFFFFFFFFFFFFFF AND DUP2 PUSH20 0xFFFFFFFFFFFFFFFFFFFFFFFFFFFFFFFFFFFFFFFF AND SUB PUSH2 0xC43 JUMPI PUSH0 PUSH1 0x40 MLOAD PUSH32 0x1E4FBDF700000000000000000000000000000000000000000000000000000000 DUP2 MSTORE PUSH1 0x4 ADD PUSH2 0xC3A SWAP2 SWAP1 PUSH2 0x12C4 JUMP JUMPDEST PUSH1 0x40 MLOAD DUP1 SWAP2 SUB SWAP1 REVERT JUMPDEST PUSH2 0xC4C DUP2 PUSH2 0xD93 JUMP JUMPDEST POP JUMP JUMPDEST PUSH0 PUSH2 0xC59 DUP3 PUSH2 0x3B7 JUMP JUMPDEST SWAP1 POP SWAP2 SWAP1 POP JUMP JUMPDEST PUSH2 0xC68 PUSH2 0xE54 JUMP JUMPDEST PUSH20 0xFFFFFFFFFFFFFFFFFFFFFFFFFFFFFFFFFFFFFFFF AND PUSH2 0xC86 PUSH2 0x411 JUMP JUMPDEST PUSH20 0xFFFFFFFFFFFFFFFFFFFFFFFFFFFFFFFFFFFFFFFF AND EQ PUSH2 0xCE5 JUMPI PUSH2 0xCA9 PUSH2 0xE54 JUMP JUMPDEST PUSH1 0x40 MLOAD PUSH32 0x118CDAA700000000000000000000000000000000000000000000000000000000 DUP2 MSTORE PUSH1 0x4 ADD PUSH2 0xCDC SWAP2 SWAP1 PUSH2 0x12C4 JUMP JUMPDEST PUSH1 0x40 MLOAD DUP1 SWAP2 SUB SWAP1 REVERT JUMPDEST JUMP JUMPDEST PUSH2 0xCEF PUSH2 0xD49 JUMP JUMPDEST PUSH1 0x1 PUSH0 PUSH1 0x14 PUSH2 0x100 EXP DUP2 SLOAD DUP2 PUSH1 0xFF MUL NOT AND SWAP1 DUP4 ISZERO ISZERO MUL OR SWAP1 SSTORE POP PUSH32 0x62E78CEA01BEE320CD4E420270B5EA74000D11B0C9F74754EBDBFC544B05A258 PUSH2 0xD32 PUSH2 0xE54 JUMP JUMPDEST PUSH1 0x40 MLOAD PUSH2 0xD3F SWAP2 SWAP1 PUSH2 0x12C4 JUMP JUMPDEST PUSH1 0x40 MLOAD DUP1 SWAP2 SUB SWAP1 LOG1 JUMP JUMPDEST PUSH2 0xD51 PUSH2 0x3A2 JUMP JUMPDEST ISZERO PUSH2 0xD91 JUMPI PUSH1 0x40 MLOAD PUSH32 0x8C379A000000000000000000000000000000000000000000000000000000000 DUP2 MSTORE PUSH1 0x4 ADD PUSH2 0xD88 SWAP1 PUSH2 0x1A7E JUMP JUMPDEST PUSH1 0x40 MLOAD DUP1 SWAP2 SUB SWAP1 REVERT JUMPDEST JUMP JUMPDEST PUSH0 DUP1 PUSH0 SWAP1 SLOAD SWAP1 PUSH2 0x100 EXP SWAP1 DIV PUSH20 0xFFFFFFFFFFFFFFFFFFFFFFFFFFFFFFFFFFFFFFFF AND SWAP1 POP DUP2 PUSH0 DUP1 PUSH2 0x100 EXP DUP2 SLOAD DUP2 PUSH20 0xFFFFFFFFFFFFFFFFFFFFFFFFFFFFFFFFFFFFFFFF MUL NOT AND SWAP1 DUP4 PUSH20 0xFFFFFFFFFFFFFFFFFFFFFFFFFFFFFFFFFFFFFFFF AND MUL OR SWAP1 SSTORE POP DUP2 PUSH20 0xFFFFFFFFFFFFFFFFFFFFFFFFFFFFFFFFFFFFFFFF AND DUP2 PUSH20 0xFFFFFFFFFFFFFFFFFFFFFFFFFFFFFFFFFFFFFFFF AND PUSH32 0x8BE0079C531659141344CD1FD0A4F28419497F9722A3DAAFE3B4186F6B6457E0 PUSH1 0x40 MLOAD PUSH1 0x40 MLOAD DUP1 SWAP2 SUB SWAP1 LOG3 POP POP JUMP JUMPDEST PUSH0 PUSH2 0xE5D PUSH2 0xEC3 JUMP JUMPDEST SWAP1 POP SWAP1 JUMP JUMPDEST PUSH2 0xE6A PUSH2 0xF34 JUMP JUMPDEST PUSH0 DUP1 PUSH1 0x14 PUSH2 0x100 EXP DUP2 SLOAD DUP2 PUSH1 0xFF MUL NOT AND SWAP1 DUP4 ISZERO ISZERO MUL OR SWAP1 SSTORE POP PUSH32 0x5DB9EE0A495BF2E6FF9C91A7834C1BA4FDD244A5E8AA4E537BD38AEAE4B073AA PUSH2 0xEAC PUSH2 0xE54 JUMP JUMPDEST PUSH1 0x40 MLOAD PUSH2 0xEB9 SWAP2 SWAP1 PUSH2 0x12C4 JUMP JUMPDEST PUSH1 0x40 MLOAD DUP1 SWAP2 SUB SWAP1 LOG1 JUMP JUMPDEST PUSH0 DUP1 PUSH0 CALLDATASIZE SWAP1 POP SWAP1 POP PUSH0 PUSH2 0xED4 PUSH2 0xF7D JUMP JUMPDEST SWAP1 POP PUSH2 0xEDF CALLER PUSH2 0x364 JUMP JUMPDEST DUP1 ISZERO PUSH2 0xEEB JUMPI POP DUP1 DUP3 LT ISZERO JUMPDEST ISZERO PUSH2 0xF24 JUMPI PUSH0 CALLDATASIZE DUP3 DUP5 PUSH2 0xEFE SWAP2 SWAP1 PUSH2 0x1AC9 JUMP JUMPDEST SWAP1 DUP1 SWAP3 PUSH2 0xF0D SWAP4 SWAP3 SWAP2 SWAP1 PUSH2 0x1B04 JUMP JUMPDEST SWAP1 PUSH2 0xF18 SWAP2 SWAP1 PUSH2 0x1B73 JUMP JUMPDEST PUSH1 0x60 SHR SWAP3 POP POP POP PUSH2 0xF31 JUMP JUMPDEST PUSH2 0xF2C PUSH2 0xF8B JUMP JUMPDEST SWAP3 POP POP POP JUMPDEST SWAP1 JUMP JUMPDEST PUSH2 0xF3C PUSH2 0x3A2 JUMP JUMPDEST PUSH2 0xF7B JUMPI PUSH1 0x40 MLOAD PUSH32 0x8C379A000000000000000000000000000000000000000000000000000000000 DUP2 MSTORE PUSH1 0x4 ADD PUSH2 0xF72 SWAP1 PUSH2 0x1C1B JUMP JUMPDEST PUSH1 0x40 MLOAD DUP1 SWAP2 SUB SWAP1 REVERT JUMPDEST JUMP JUMPDEST PUSH0 PUSH2 0xF86 PUSH2 0xF92 JUMP JUMPDEST SWAP1 POP SWAP1 JUMP JUMPDEST PUSH0 CALLER SWAP1 POP SWAP1 JUMP JUMPDEST PUSH0 PUSH1 0x14 SWAP1 POP SWAP1 JUMP JUMPDEST PUSH0 PUSH1 0x40 MLOAD SWAP1 POP SWAP1 JUMP JUMPDEST PUSH0 DUP1 REVERT JUMPDEST PUSH0 DUP1 REVERT JUMPDEST PUSH0 DUP2 SWAP1 POP SWAP2 SWAP1 POP JUMP JUMPDEST PUSH2 0xFBD DUP2 PUSH2 0xFAB JUMP JUMPDEST DUP2 EQ PUSH2 0xFC7 JUMPI PUSH0 DUP1 REVERT JUMPDEST POP JUMP JUMPDEST PUSH0 DUP2 CALLDATALOAD SWAP1 POP PUSH2 0xFD8 DUP2 PUSH2 0xFB4 JUMP JUMPDEST SWAP3 SWAP2 POP POP JUMP JUMPDEST PUSH0 DUP1 REVERT JUMPDEST PUSH0 DUP1 REVERT JUMPDEST PUSH0 PUSH1 0x1F NOT PUSH1 0x1F DUP4 ADD AND SWAP1 POP SWAP2 SWAP1 POP JUMP JUMPDEST PUSH32 0x4E487B7100000000000000000000000000000000000000000000000000000000 PUSH0 MSTORE PUSH1 0x41 PUSH1 0x4 MSTORE PUSH1 0x24 PUSH0 REVERT JUMPDEST PUSH2 0x102C DUP3 PUSH2 0xFE6 JUMP JUMPDEST DUP2 ADD DUP2 DUP2 LT PUSH8 0xFFFFFFFFFFFFFFFF DUP3 GT OR ISZERO PUSH2 0x104B JUMPI PUSH2 0x104A PUSH2 0xFF6 JUMP JUMPDEST JUMPDEST DUP1 PUSH1 0x40 MSTORE POP POP POP JUMP JUMPDEST PUSH0 PUSH2 0x105D PUSH2 0xF9A JUMP JUMPDEST SWAP1 POP PUSH2 0x1069 DUP3 DUP3 PUSH2 0x1023 JUMP JUMPDEST SWAP2 SWAP1 POP JUMP JUMPDEST PUSH0 PUSH8 0xFFFFFFFFFFFFFFFF DUP3 GT ISZERO PUSH2 0x1088 JUMPI PUSH2 0x1087 PUSH2 0xFF6 JUMP JUMPDEST JUMPDEST PUSH2 0x1091 DUP3 PUSH2 0xFE6 JUMP JUMPDEST SWAP1 POP PUSH1 0x20 DUP2 ADD SWAP1 POP SWAP2 SWAP1 POP JUMP JUMPDEST DUP3 DUP2 DUP4 CALLDATACOPY PUSH0 DUP4 DUP4 ADD MSTORE POP POP POP JUMP JUMPDEST PUSH0 PUSH2 0x10BE PUSH2 0x10B9 DUP5 PUSH2 0x106E JUMP JUMPDEST PUSH2 0x1054 JUMP JUMPDEST SWAP1 POP DUP3 DUP2 MSTORE PUSH1 0x20 DUP2 ADD DUP5 DUP5 DUP5 ADD GT ISZERO PUSH2 0x10DA JUMPI PUSH2 0x10D9 PUSH2 0xFE2 JUMP JUMPDEST JUMPDEST PUSH2 0x10E5 DUP5 DUP3 DUP6 PUSH2 0x109E JUMP JUMPDEST POP SWAP4 SWAP3 POP POP POP JUMP JUMPDEST PUSH0 DUP3 PUSH1 0x1F DUP4 ADD SLT PUSH2 0x1101 JUMPI PUSH2 0x1100 PUSH2 0xFDE JUMP JUMPDEST JUMPDEST DUP2 CALLDATALOAD PUSH2 0x1111 DUP5 DUP3 PUSH1 0x20 DUP7 ADD PUSH2 0x10AC JUMP JUMPDEST SWAP2 POP POP SWAP3 SWAP2 POP POP JUMP JUMPDEST PUSH0 DUP1 PUSH0 DUP1 PUSH1 0x80 DUP6 DUP8 SUB SLT ISZERO PUSH2 0x1132 JUMPI PUSH2 0x1131 PUSH2 0xFA3 JUMP JUMPDEST JUMPDEST PUSH0 PUSH2 0x113F DUP8 DUP3 DUP9 ADD PUSH2 0xFCA JUMP JUMPDEST SWAP5 POP POP PUSH1 0x20 DUP6 ADD CALLDATALOAD PUSH8 0xFFFFFFFFFFFFFFFF DUP2 GT ISZERO PUSH2 0x1160 JUMPI PUSH2 0x115F PUSH2 0xFA7 JUMP JUMPDEST JUMPDEST PUSH2 0x116C DUP8 DUP3 DUP9 ADD PUSH2 0x10ED JUMP JUMPDEST SWAP4 POP POP PUSH1 0x40 DUP6 ADD CALLDATALOAD PUSH8 0xFFFFFFFFFFFFFFFF DUP2 GT ISZERO PUSH2 0x118D JUMPI PUSH2 0x118C PUSH2 0xFA7 JUMP JUMPDEST JUMPDEST PUSH2 0x1199 DUP8 DUP3 DUP9 ADD PUSH2 0x10ED JUMP JUMPDEST SWAP3 POP POP PUSH1 0x60 DUP6 ADD CALLDATALOAD PUSH8 0xFFFFFFFFFFFFFFFF DUP2 GT ISZERO PUSH2 0x11BA JUMPI PUSH2 0x11B9 PUSH2 0xFA7 JUMP JUMPDEST JUMPDEST PUSH2 0x11C6 DUP8 DUP3 DUP9 ADD PUSH2 0x10ED JUMP JUMPDEST SWAP2 POP POP SWAP3 SWAP6 SWAP2 SWAP5 POP SWAP3 POP JUMP JUMPDEST PUSH0 PUSH20 0xFFFFFFFFFFFFFFFFFFFFFFFFFFFFFFFFFFFFFFFF DUP3 AND SWAP1 POP SWAP2 SWAP1 POP JUMP JUMPDEST PUSH0 PUSH2 0x11FB DUP3 PUSH2 0x11D2 JUMP JUMPDEST SWAP1 POP SWAP2 SWAP1 POP JUMP JUMPDEST PUSH2 0x120B DUP2 PUSH2 0x11F1 JUMP JUMPDEST DUP2 EQ PUSH2 0x1215 JUMPI PUSH0 DUP1 REVERT JUMPDEST POP JUMP JUMPDEST PUSH0 DUP2 CALLDATALOAD SWAP1 POP PUSH2 0x1226 DUP2 PUSH2 0x1202 JUMP JUMPDEST SWAP3 SWAP2 POP POP JUMP JUMPDEST PUSH0 PUSH1 0x20 DUP3 DUP5 SUB SLT ISZERO PUSH2 0x1241 JUMPI PUSH2 0x1240 PUSH2 0xFA3 JUMP JUMPDEST JUMPDEST PUSH0 PUSH2 0x124E DUP5 DUP3 DUP6 ADD PUSH2 0x1218 JUMP JUMPDEST SWAP2 POP POP SWAP3 SWAP2 POP POP JUMP JUMPDEST PUSH0 DUP2 ISZERO ISZERO SWAP1 POP SWAP2 SWAP1 POP JUMP JUMPDEST PUSH2 0x126B DUP2 PUSH2 0x1257 JUMP JUMPDEST DUP3 MSTORE POP POP JUMP JUMPDEST PUSH0 PUSH1 0x20 DUP3 ADD SWAP1 POP PUSH2 0x1284 PUSH0 DUP4 ADD DUP5 PUSH2 0x1262 JUMP JUMPDEST SWAP3 SWAP2 POP POP JUMP JUMPDEST PUSH0 PUSH1 0x20 DUP3 DUP5 SUB SLT ISZERO PUSH2 0x129F JUMPI PUSH2 0x129E PUSH2 0xFA3 JUMP JUMPDEST JUMPDEST PUSH0 PUSH2 0x12AC DUP5 DUP3 DUP6 ADD PUSH2 0xFCA JUMP JUMPDEST SWAP2 POP POP SWAP3 SWAP2 POP POP JUMP JUMPDEST PUSH2 0x12BE DUP2 PUSH2 0x11F1 JUMP JUMPDEST DUP3 MSTORE POP POP JUMP JUMPDEST PUSH0 PUSH1 0x20 DUP3 ADD SWAP1 POP PUSH2 0x12D7 PUSH0 DUP4 ADD DUP5 PUSH2 0x12B5 JUMP JUMPDEST SWAP3 SWAP2 POP POP JUMP JUMPDEST PUSH0 DUP2 SWAP1 POP SWAP2 SWAP1 POP JUMP JUMPDEST PUSH2 0x12EF DUP2 PUSH2 0x12DD JUMP JUMPDEST DUP3 MSTORE POP POP JUMP JUMPDEST PUSH0 DUP2 MLOAD SWAP1 POP SWAP2 SWAP1 POP JUMP JUMPDEST PUSH0 DUP3 DUP3 MSTORE PUSH1 0x20 DUP3 ADD SWAP1 POP SWAP3 SWAP2 POP POP JUMP JUMPDEST DUP3 DUP2 DUP4 MCOPY PUSH0 DUP4 DUP4 ADD MSTORE POP POP POP JUMP JUMPDEST PUSH0 PUSH2 0x1327 DUP3 PUSH2 0x12F5 JUMP JUMPDEST PUSH2 0x1331 DUP2 DUP6 PUSH2 0x12FF JUMP JUMPDEST SWAP4 POP PUSH2 0x1341 DUP2 DUP6 PUSH1 0x20 DUP7 ADD PUSH2 0x130F JUMP JUMPDEST PUSH2 0x134A DUP2 PUSH2 0xFE6 JUMP JUMPDEST DUP5 ADD SWAP2 POP POP SWAP3 SWAP2 POP POP JUMP JUMPDEST PUSH0 PUSH1 0xC0 DUP3 ADD SWAP1 POP PUSH2 0x1368 PUSH0 DUP4 ADD DUP10 PUSH2 0x12B5 JUMP JUMPDEST PUSH2 0x1375 PUSH1 0x20 DUP4 ADD DUP9 PUSH2 0x12E6 JUMP JUMPDEST DUP2 DUP2 SUB PUSH1 0x40 DUP4 ADD MSTORE PUSH2 0x1387 DUP2 DUP8 PUSH2 0x131D JUMP JUMPDEST SWAP1 POP DUP2 DUP2 SUB PUSH1 0x60 DUP4 ADD MSTORE PUSH2 0x139B DUP2 DUP7 PUSH2 0x131D JUMP JUMPDEST SWAP1 POP DUP2 DUP2 SUB PUSH1 0x80 DUP4 ADD MSTORE PUSH2 0x13AF DUP2 DUP6 PUSH2 0x131D JUMP JUMPDEST SWAP1 POP PUSH2 0x13BE PUSH1 0xA0 DUP4 ADD DUP5 PUSH2 0x1262 JUMP JUMPDEST SWAP8 SWAP7 POP POP POP POP POP POP POP JUMP JUMPDEST PUSH0 PUSH1 0x20 DUP3 ADD SWAP1 POP PUSH2 0x13DC PUSH0 DUP4 ADD DUP5 PUSH2 0x12E6 JUMP JUMPDEST SWAP3 SWAP2 POP POP JUMP JUMPDEST PUSH2 0x13EB DUP2 PUSH2 0x1257 JUMP JUMPDEST DUP2 EQ PUSH2 0x13F5 JUMPI PUSH0 DUP1 REVERT JUMPDEST POP JUMP JUMPDEST PUSH0 DUP2 CALLDATALOAD SWAP1 POP PUSH2 0x1406 DUP2 PUSH2 0x13E2 JUMP JUMPDEST SWAP3 SWAP2 POP POP JUMP JUMPDEST PUSH0 DUP1 PUSH0 PUSH1 0x60 DUP5 DUP7 SUB SLT ISZERO PUSH2 0x1423 JUMPI PUSH2 0x1422 PUSH2 0xFA3 JUMP JUMPDEST JUMPDEST PUSH0 PUSH2 0x1430 DUP7 DUP3 DUP8 ADD PUSH2 0xFCA JUMP JUMPDEST SWAP4 POP POP PUSH1 0x20 PUSH2 0x1441 DUP7 DUP3 DUP8 ADD PUSH2 0x1218 JUMP JUMPDEST SWAP3 POP POP PUSH1 0x40 PUSH2 0x1452 DUP7 DUP3 DUP8 ADD PUSH2 0x13F8 JUMP JUMPDEST SWAP2 POP POP SWAP3 POP SWAP3 POP SWAP3 JUMP JUMPDEST PUSH0 DUP1 PUSH0 DUP1 PUSH0 PUSH1 0xA0 DUP7 DUP9 SUB SLT ISZERO PUSH2 0x1475 JUMPI PUSH2 0x1474 PUSH2 0xFA3 JUMP JUMPDEST JUMPDEST PUSH0 PUSH2 0x1482 DUP9 DUP3 DUP10 ADD PUSH2 0xFCA JUMP JUMPDEST SWAP6 POP POP PUSH1 0x20 DUP7 ADD CALLDATALOAD PUSH8 0xFFFFFFFFFFFFFFFF DUP2 GT ISZERO PUSH2 0x14A3 JUMPI PUSH2 0x14A2 PUSH2 0xFA7 JUMP JUMPDEST JUMPDEST PUSH2 0x14AF DUP9 DUP3 DUP10 ADD PUSH2 0x10ED JUMP JUMPDEST SWAP5 POP POP PUSH1 0x40 DUP7 ADD CALLDATALOAD PUSH8 0xFFFFFFFFFFFFFFFF DUP2 GT ISZERO PUSH2 0x14D0 JUMPI PUSH2 0x14CF PUSH2 0xFA7 JUMP JUMPDEST JUMPDEST PUSH2 0x14DC DUP9 DUP3 DUP10 ADD PUSH2 0x10ED JUMP JUMPDEST SWAP4 POP POP PUSH1 0x60 DUP7 ADD CALLDATALOAD PUSH8 0xFFFFFFFFFFFFFFFF DUP2 GT ISZERO PUSH2 0x14FD JUMPI PUSH2 0x14FC PUSH2 0xFA7 JUMP JUMPDEST JUMPDEST PUSH2 0x1509 DUP9 DUP3 DUP10 ADD PUSH2 0x10ED JUMP JUMPDEST SWAP3 POP POP PUSH1 0x80 PUSH2 0x151A DUP9 DUP3 DUP10 ADD PUSH2 0x13F8 JUMP JUMPDEST SWAP2 POP POP SWAP3 SWAP6 POP SWAP3 SWAP6 SWAP1 SWAP4 POP JUMP JUMPDEST PUSH32 0x446F63756D656E74206E6F7420666F756E642E00000000000000000000000000 PUSH0 DUP3 ADD MSTORE POP JUMP JUMPDEST PUSH0 PUSH2 0x155B PUSH1 0x13 DUP4 PUSH2 0x12FF JUMP JUMPDEST SWAP2 POP PUSH2 0x1566 DUP3 PUSH2 0x1527 JUMP JUMPDEST PUSH1 0x20 DUP3 ADD SWAP1 POP SWAP2 SWAP1 POP JUMP JUMPDEST PUSH0 PUSH1 0x20 DUP3 ADD SWAP1 POP DUP2 DUP2 SUB PUSH0 DUP4 ADD MSTORE PUSH2 0x1588 DUP2 PUSH2 0x154F JUMP JUMPDEST SWAP1 POP SWAP2 SWAP1 POP JUMP JUMPDEST PUSH32 0x4E487B7100000000000000000000000000000000000000000000000000000000 PUSH0 MSTORE PUSH1 0x22 PUSH1 0x4 MSTORE PUSH1 0x24 PUSH0 REVERT JUMPDEST PUSH0 PUSH1 0x2 DUP3 DIV SWAP1 POP PUSH1 0x1 DUP3 AND DUP1 PUSH2 0x15D3 JUMPI PUSH1 0x7F DUP3 AND SWAP2 POP JUMPDEST PUSH1 0x20 DUP3 LT DUP2 SUB PUSH2 0x15E6 JUMPI PUSH2 0x15E5 PUSH2 0x158F JUMP JUMPDEST JUMPDEST POP SWAP2 SWAP1 POP JUMP JUMPDEST PUSH32 0x4F6E6C7920746865206F776E65722063616E207472616E73666572206F776E65 PUSH0 DUP3 ADD MSTORE PUSH32 0x72736869702E0000000000000000000000000000000000000000000000000000 PUSH1 0x20 DUP3 ADD MSTORE POP JUMP JUMPDEST PUSH0 PUSH2 0x1646 PUSH1 0x26 DUP4 PUSH2 0x12FF JUMP JUMPDEST SWAP2 POP PUSH2 0x1651 DUP3 PUSH2 0x15EC JUMP JUMPDEST PUSH1 0x40 DUP3 ADD SWAP1 POP SWAP2 SWAP1 POP JUMP JUMPDEST PUSH0 PUSH1 0x20 DUP3 ADD SWAP1 POP DUP2 DUP2 SUB PUSH0 DUP4 ADD MSTORE PUSH2 0x1673 DUP2 PUSH2 0x163A JUMP JUMPDEST SWAP1 POP SWAP2 SWAP1 POP JUMP JUMPDEST PUSH32 0x4E6577206F776E65722063616E6E6F7420626520746865207A65726F20616464 PUSH0 DUP3 ADD MSTORE PUSH32 0x726573732E000000000000000000000000000000000000000000000000000000 PUSH1 0x20 DUP3 ADD MSTORE POP JUMP JUMPDEST PUSH0 PUSH2 0x16D4 PUSH1 0x25 DUP4 PUSH2 0x12FF JUMP JUMPDEST SWAP2 POP PUSH2 0x16DF DUP3 PUSH2 0x167A JUMP JUMPDEST PUSH1 0x40 DUP3 ADD SWAP1 POP SWAP2 SWAP1 POP JUMP JUMPDEST PUSH0 PUSH1 0x20 DUP3 ADD SWAP1 POP DUP2 DUP2 SUB PUSH0 DUP4 ADD MSTORE PUSH2 0x1701 DUP2 PUSH2 0x16C8 JUMP JUMPDEST SWAP1 POP SWAP2 SWAP1 POP JUMP JUMPDEST PUSH32 0x446F63756D656E7420616C726561647920726567697374657265642E00000000 PUSH0 DUP3 ADD MSTORE POP JUMP JUMPDEST PUSH0 PUSH2 0x173C PUSH1 0x1C DUP4 PUSH2 0x12FF JUMP JUMPDEST SWAP2 POP PUSH2 0x1747 DUP3 PUSH2 0x1708 JUMP JUMPDEST PUSH1 0x20 DUP3 ADD SWAP1 POP SWAP2 SWAP1 POP JUMP JUMPDEST PUSH0 PUSH1 0x20 DUP3 ADD SWAP1 POP DUP2 DUP2 SUB PUSH0 DUP4 ADD MSTORE PUSH2 0x1769 DUP2 PUSH2 0x1730 JUMP JUMPDEST SWAP1 POP SWAP2 SWAP1 POP JUMP JUMPDEST PUSH0 DUP2 SWAP1 POP DUP2 PUSH0 MSTORE PUSH1 0x20 PUSH0 KECCAK256 SWAP1 POP SWAP2 SWAP1 POP JUMP JUMPDEST PUSH0 PUSH1 0x20 PUSH1 0x1F DUP4 ADD DIV SWAP1 POP SWAP2 SWAP1 POP JUMP JUMPDEST PUSH0 DUP3 DUP3 SHL SWAP1 POP SWAP3 SWAP2 POP POP JUMP JUMPDEST PUSH0 PUSH1 0x8 DUP4 MUL PUSH2 0x17CC PUSH32 0xFFFFFFFFFFFFFFFFFFFFFFFFFFFFFFFFFFFFFFFFFFFFFFFFFFFFFFFFFFFFFFFF DUP3 PUSH2 0x1791 JUMP JUMPDEST PUSH2 0x17D6 DUP7 DUP4 PUSH2 0x1791 JUMP JUMPDEST SWAP6 POP DUP1 NOT DUP5 AND SWAP4 POP DUP1 DUP7 AND DUP5 OR SWAP3 POP POP POP SWAP4 SWAP3 POP POP POP JUMP JUMPDEST PUSH0 DUP2 SWAP1 POP SWAP2 SWAP1 POP JUMP JUMPDEST PUSH0 PUSH2 0x1811 PUSH2 0x180C PUSH2 0x1807 DUP5 PUSH2 0x12DD JUMP JUMPDEST PUSH2 0x17EE JUMP JUMPDEST PUSH2 0x12DD JUMP JUMPDEST SWAP1 POP SWAP2 SWAP1 POP JUMP JUMPDEST PUSH0 DUP2 SWAP1 POP SWAP2 SWAP1 POP JUMP JUMPDEST PUSH2 0x182A DUP4 PUSH2 0x17F7 JUMP JUMPDEST PUSH2 0x183E PUSH2 0x1836 DUP3 PUSH2 0x1818 JUMP JUMPDEST DUP5 DUP5 SLOAD PUSH2 0x179D JUMP JUMPDEST DUP3 SSTORE POP POP POP POP JUMP JUMPDEST PUSH0 SWAP1 JUMP JUMPDEST PUSH2 0x1852 PUSH2 0x1846 JUMP JUMPDEST PUSH2 0x185D DUP2 DUP5 DUP5 PUSH2 0x1821 JUMP JUMPDEST POP POP POP JUMP JUMPDEST JUMPDEST DUP2 DUP2 LT ISZERO PUSH2 0x1880 JUMPI PUSH2 0x1875 PUSH0 DUP3 PUSH2 0x184A JUMP JUMPDEST PUSH1 0x1 DUP2 ADD SWAP1 POP PUSH2 0x1863 JUMP JUMPDEST POP POP JUMP JUMPDEST PUSH1 0x1F DUP3 GT ISZERO PUSH2 0x18C5 JUMPI PUSH2 0x1896 DUP2 PUSH2 0x1770 JUMP JUMPDEST PUSH2 0x189F DUP5 PUSH2 0x1782 JUMP JUMPDEST DUP2 ADD PUSH1 0x20 DUP6 LT ISZERO PUSH2 0x18AE JUMPI DUP2 SWAP1 POP JUMPDEST PUSH2 0x18C2 PUSH2 0x18BA DUP6 PUSH2 0x1782 JUMP JUMPDEST DUP4 ADD DUP3 PUSH2 0x1862 JUMP JUMPDEST POP POP JUMPDEST POP POP POP JUMP JUMPDEST PUSH0 DUP3 DUP3 SHR SWAP1 POP SWAP3 SWAP2 POP POP JUMP JUMPDEST PUSH0 PUSH2 0x18E5 PUSH0 NOT DUP5 PUSH1 0x8 MUL PUSH2 0x18CA JUMP JUMPDEST NOT DUP1 DUP4 AND SWAP2 POP POP SWAP3 SWAP2 POP POP JUMP JUMPDEST PUSH0 PUSH2 0x18FD DUP4 DUP4 PUSH2 0x18D6 JUMP JUMPDEST SWAP2 POP DUP3 PUSH1 0x2 MUL DUP3 OR SWAP1 POP SWAP3 SWAP2 POP POP JUMP JUMPDEST PUSH2 0x1916 DUP3 PUSH2 0x12F5 JUMP JUMPDEST PUSH8 0xFFFFFFFFFFFFFFFF DUP2 GT ISZERO PUSH2 0x192F JUMPI PUSH2 0x192E PUSH2 0xFF6 JUMP JUMPDEST JUMPDEST PUSH2 0x1939 DUP3 SLOAD PUSH2 0x15BC JUMP JUMPDEST PUSH2 0x1944 DUP3 DUP3 DUP6 PUSH2 0x1884 JUMP JUMPDEST PUSH0 PUSH1 0x20 SWAP1 POP PUSH1 0x1F DUP4 GT PUSH1 0x1 DUP2 EQ PUSH2 0x1975 JUMPI PUSH0 DUP5 ISZERO PUSH2 0x1963 JUMPI DUP3 DUP8 ADD MLOAD SWAP1 POP JUMPDEST PUSH2 0x196D DUP6 DUP3 PUSH2 0x18F2 JUMP JUMPDEST DUP7 SSTORE POP PUSH2 0x19D4 JUMP JUMPDEST PUSH1 0x1F NOT DUP5 AND PUSH2 0x1983 DUP7 PUSH2 0x1770 JUMP JUMPDEST PUSH0 JUMPDEST DUP3 DUP2 LT ISZERO PUSH2 0x19AA JUMPI DUP5 DUP10 ADD MLOAD DUP3 SSTORE PUSH1 0x1 DUP3 ADD SWAP2 POP PUSH1 0x20 DUP6 ADD SWAP5 POP PUSH1 0x20 DUP2 ADD SWAP1 POP PUSH2 0x1985 JUMP JUMPDEST DUP7 DUP4 LT ISZERO PUSH2 0x19C7 JUMPI DUP5 DUP10 ADD MLOAD PUSH2 0x19C3 PUSH1 0x1F DUP10 AND DUP3 PUSH2 0x18D6 JUMP JUMPDEST DUP4 SSTORE POP JUMPDEST PUSH1 0x1 PUSH1 0x2 DUP9 MUL ADD DUP9 SSTORE POP POP POP JUMPDEST POP POP POP POP POP POP JUMP JUMPDEST PUSH0 PUSH1 0x80 DUP3 ADD SWAP1 POP DUP2 DUP2 SUB PUSH0 DUP4 ADD MSTORE PUSH2 0x19F4 DUP2 DUP8 PUSH2 0x131D JUMP JUMPDEST SWAP1 POP DUP2 DUP2 SUB PUSH1 0x20 DUP4 ADD MSTORE PUSH2 0x1A08 DUP2 DUP7 PUSH2 0x131D JUMP JUMPDEST SWAP1 POP DUP2 DUP2 SUB PUSH1 0x40 DUP4 ADD MSTORE PUSH2 0x1A1C DUP2 DUP6 PUSH2 0x131D JUMP JUMPDEST SWAP1 POP PUSH2 0x1A2B PUSH1 0x60 DUP4 ADD DUP5 PUSH2 0x1262 JUMP JUMPDEST SWAP6 SWAP5 POP POP POP POP POP JUMP JUMPDEST PUSH32 0x5061757361626C653A2070617573656400000000000000000000000000000000 PUSH0 DUP3 ADD MSTORE POP JUMP JUMPDEST PUSH0 PUSH2 0x1A68 PUSH1 0x10 DUP4 PUSH2 0x12FF JUMP JUMPDEST SWAP2 POP PUSH2 0x1A73 DUP3 PUSH2 0x1A34 JUMP JUMPDEST PUSH1 0x20 DUP3 ADD SWAP1 POP SWAP2 SWAP1 POP JUMP JUMPDEST PUSH0 PUSH1 0x20 DUP3 ADD SWAP1 POP DUP2 DUP2 SUB PUSH0 DUP4 ADD MSTORE PUSH2 0x1A95 DUP2 PUSH2 0x1A5C JUMP JUMPDEST SWAP1 POP SWAP2 SWAP1 POP JUMP JUMPDEST PUSH32 0x4E487B7100000000000000000000000000000000000000000000000000000000 PUSH0 MSTORE PUSH1 0x11 PUSH1 0x4 MSTORE PUSH1 0x24 PUSH0 REVERT JUMPDEST PUSH0 PUSH2 0x1AD3 DUP3 PUSH2 0x12DD JUMP JUMPDEST SWAP2 POP PUSH2 0x1ADE DUP4 PUSH2 0x12DD JUMP JUMPDEST SWAP3 POP DUP3 DUP3 SUB SWAP1 POP DUP2 DUP2 GT ISZERO PUSH2 0x1AF6 JUMPI PUSH2 0x1AF5 PUSH2 0x1A9C JUMP JUMPDEST JUMPDEST SWAP3 SWAP2 POP POP JUMP JUMPDEST PUSH0 DUP1 REVERT JUMPDEST PUSH0 DUP1 REVERT JUMPDEST PUSH0 DUP1 DUP6 DUP6 GT ISZERO PUSH2 0x1B17 JUMPI PUSH2 0x1B16 PUSH2 0x1AFC JUMP JUMPDEST JUMPDEST DUP4 DUP7 GT ISZERO PUSH2 0x1B28 JUMPI PUSH2 0x1B27 PUSH2 0x1B00 JUMP JUMPDEST JUMPDEST PUSH1 0x1 DUP6 MUL DUP4 ADD SWAP2 POP DUP5 DUP7 SUB SWAP1 POP SWAP5 POP SWAP5 SWAP3 POP POP POP JUMP JUMPDEST PUSH0 DUP3 SWAP1 POP SWAP3 SWAP2 POP POP JUMP JUMPDEST PUSH0 PUSH32 0xFFFFFFFFFFFFFFFFFFFFFFFFFFFFFFFFFFFFFFFF000000000000000000000000 DUP3 AND SWAP1 POP SWAP2 SWAP1 POP JUMP JUMPDEST PUSH0 PUSH2 0x1B7E DUP4 DUP4 PUSH2 0x1B3E JUMP JUMPDEST DUP3 PUSH2 0x1B89 DUP2 CALLDATALOAD PUSH2 0x1B48 JUMP JUMPDEST SWAP3 POP PUSH1 0x14 DUP3 LT ISZERO PUSH2 0x1BC9 JUMPI PUSH2 0x1BC4 PUSH32 0xFFFFFFFFFFFFFFFFFFFFFFFFFFFFFFFFFFFFFFFF000000000000000000000000 DUP4 PUSH1 0x14 SUB PUSH1 0x8 MUL PUSH2 0x1791 JUMP JUMPDEST DUP4 AND SWAP3 POP JUMPDEST POP POP SWAP3 SWAP2 POP POP JUMP JUMPDEST PUSH32 0x5061757361626C653A206E6F7420706175736564000000000000000000000000 PUSH0 DUP3 ADD MSTORE POP JUMP JUMPDEST PUSH0 PUSH2 0x1C05 PUSH1 0x14 DUP4 PUSH2 0x12FF JUMP JUMPDEST SWAP2 POP PUSH2 0x1C10 DUP3 PUSH2 0x1BD1 JUMP JUMPDEST PUSH1 0x20 DUP3 ADD SWAP1 POP SWAP2 SWAP1 POP JUMP JUMPDEST PUSH0 PUSH1 0x20 DUP3 ADD SWAP1 POP DUP2 DUP2 SUB PUSH0 DUP4 ADD MSTORE PUSH2 0x1C32 DUP2 PUSH2 0x1BF9 JUMP JUMPDEST SWAP1 POP SWAP2 SWAP1 POP JUMP INVALID LOG2 PUSH5 0x6970667358 0x22 SLT KECCAK256 0x2B EXP DUP10 0xC 0xF8 PUSH2 0x40C8 0xC5 0xEA MOD SWAP2 0xB9 BALANCE 0xC4 BALANCE PUSH26 0xB1C24B590E250449B4002EC75D300B64736F6C634300081A0033 "
				},
				"gasEstimates": {
					"creation": {
						"codeDepositCost": "1455800",
						"executionCost": "infinite",
						"totalCost": "infinite"
					},
					"external": {
						"getDocumentDetails(bytes32)": "infinite",
						"getDocumentOwner(bytes32)": "5174",
						"getDocumentTimestamp(bytes32)": "5070",
						"isDocumentRegistered(bytes32)": "2813",
						"isTrustedForwarder(address)": "infinite",
						"owner()": "2604",
						"pauseContract()": "infinite",
						"paused()": "2614",
						"registerDocument(bytes32,string,string,string,bool)": "infinite",
						"registerDocumentGasless(bytes32,string,string,string)": "infinite",
						"registerDocumentWithGas(bytes32,string,string,string)": "infinite",
						"renounceOwnership()": "infinite",
						"transferDocumentOwnership(bytes32,address,bool)": "infinite",
						"transferOwnership(address)": "infinite",
						"trustedForwarder()": "infinite",
						"unpauseContract()": "infinite",
						"verifyDocument(bytes32)": "2942"
					},
					"internal": {
						"_contextSuffixLength()": "56",
						"_msgData()": "infinite",
						"_msgSender()": "infinite"
					}
				},
				"methodIdentifiers": {
					"getDocumentDetails(bytes32)": "8e4d0f40",
					"getDocumentOwner(bytes32)": "a2428b73",
					"getDocumentTimestamp(bytes32)": "95f2f9f4",
					"isDocumentRegistered(bytes32)": "618e6ce6",
					"isTrustedForwarder(address)": "572b6c05",
					"owner()": "8da5cb5b",
					"pauseContract()": "439766ce",
					"paused()": "5c975abb",
					"registerDocument(bytes32,string,string,string,bool)": "b83597d3",
					"registerDocumentGasless(bytes32,string,string,string)": "571e8720",
					"registerDocumentWithGas(bytes32,string,string,string)": "e215a58e",
					"renounceOwnership()": "715018a6",
					"transferDocumentOwnership(bytes32,address,bool)": "ab2add76",
					"transferOwnership(address)": "f2fde38b",
					"trustedForwarder()": "7da0a877",
					"unpauseContract()": "b33712c5",
					"verifyDocument(bytes32)": "fe35089f"
				}
			},
			"storageLayout": {
				"storage": [
					{
						"astId": 8,
						"contract": "Proofication/DocumentAudit.sol:DocumentAudit",
						"label": "_owner",
						"offset": 0,
						"slot": "0",
						"type": "t_address"
					},
					{
						"astId": 308,
						"contract": "Proofication/DocumentAudit.sol:DocumentAudit",
						"label": "_paused",
						"offset": 20,
						"slot": "0",
						"type": "t_bool"
					},
					{
						"astId": 457,
						"contract": "Proofication/DocumentAudit.sol:DocumentAudit",
						"label": "documents",
						"offset": 0,
						"slot": "1",
						"type": "t_mapping(t_bytes32,t_struct(Document)452_storage)"
					}
				],
				"types": {
					"t_address": {
						"encoding": "inplace",
						"label": "address",
						"numberOfBytes": "20"
					},
					"t_bool": {
						"encoding": "inplace",
						"label": "bool",
						"numberOfBytes": "1"
					},
					"t_bytes32": {
						"encoding": "inplace",
						"label": "bytes32",
						"numberOfBytes": "32"
					},
					"t_mapping(t_bytes32,t_struct(Document)452_storage)": {
						"encoding": "mapping",
						"key": "t_bytes32",
						"label": "mapping(bytes32 => struct DocumentAudit.Document)",
						"numberOfBytes": "32",
						"value": "t_struct(Document)452_storage"
					},
					"t_string_storage": {
						"encoding": "bytes",
						"label": "string",
						"numberOfBytes": "32"
					},
					"t_struct(Document)452_storage": {
						"encoding": "inplace",
						"label": "struct DocumentAudit.Document",
						"members": [
							{
								"astId": 441,
								"contract": "Proofication/DocumentAudit.sol:DocumentAudit",
								"label": "owner",
								"offset": 0,
								"slot": "0",
								"type": "t_address"
							},
							{
								"astId": 443,
								"contract": "Proofication/DocumentAudit.sol:DocumentAudit",
								"label": "timestamp",
								"offset": 0,
								"slot": "1",
								"type": "t_uint256"
							},
							{
								"astId": 445,
								"contract": "Proofication/DocumentAudit.sol:DocumentAudit",
								"label": "registrantName",
								"offset": 0,
								"slot": "2",
								"type": "t_string_storage"
							},
							{
								"astId": 447,
								"contract": "Proofication/DocumentAudit.sol:DocumentAudit",
								"label": "organization",
								"offset": 0,
								"slot": "3",
								"type": "t_string_storage"
							},
							{
								"astId": 449,
								"contract": "Proofication/DocumentAudit.sol:DocumentAudit",
								"label": "identifier",
								"offset": 0,
								"slot": "4",
								"type": "t_string_storage"
							},
							{
								"astId": 451,
								"contract": "Proofication/DocumentAudit.sol:DocumentAudit",
								"label": "isGasless",
								"offset": 0,
								"slot": "5",
								"type": "t_bool"
							}
						],
						"numberOfBytes": "192"
					},
					"t_uint256": {
						"encoding": "inplace",
						"label": "uint256",
						"numberOfBytes": "32"
					}
				}
			},
			"userdoc": {
				"kind": "user",
				"methods": {},
				"version": 1
			}
		}
	}
}