{
	"Proofication/DocumentAudit1.sol": {
		"DocumentAudit": {
			"abi": [
				{
					"inputs": [
						{
							"internalType": "address",
							"name": "trustedForwarder",
							"type": "address"
						}
					],
					"stateMutability": "nonpayable",
					"type": "constructor"
				},
				{
					"inputs": [
						{
							"internalType": "address",
							"name": "owner",
							"type": "address"
						}
					],
					"name": "OwnableInvalidOwner",
					"type": "error"
				},
				{
					"inputs": [
						{
							"internalType": "address",
							"name": "account",
							"type": "address"
						}
					],
					"name": "OwnableUnauthorizedAccount",
					"type": "error"
				},
				{
					"anonymous": false,
					"inputs": [
						{
							"indexed": true,
							"internalType": "bytes32",
							"name": "documentHash",
							"type": "bytes32"
						},
						{
							"indexed": true,
							"internalType": "address",
							"name": "owner",
							"type": "address"
						},
						{
							"indexed": false,
							"internalType": "string",
							"name": "registrantName",
							"type": "string"
						},
						{
							"indexed": false,
							"internalType": "string",
							"name": "organization",
							"type": "string"
						},
						{
							"indexed": false,
							"internalType": "string",
							"name": "identifier",
							"type": "string"
						},
						{
							"indexed": false,
							"internalType": "bool",
							"name": "isGasless",
							"type": "bool"
						}
					],
					"name": "DocumentRegistered",
					"type": "event"
				},
				{
					"anonymous": false,
					"inputs": [
						{
							"indexed": true,
							"internalType": "address",
							"name": "user",
							"type": "address"
						},
						{
							"indexed": false,
							"internalType": "bool",
							"name": "enabled",
							"type": "bool"
						}
					],
					"name": "GaslessPreferenceUpdated",
					"type": "event"
				},
				{
					"anonymous": false,
					"inputs": [
						{
							"indexed": true,
							"internalType": "address",
							"name": "previousOwner",
							"type": "address"
						},
						{
							"indexed": true,
							"internalType": "address",
							"name": "newOwner",
							"type": "address"
						}
					],
					"name": "OwnershipTransferred",
					"type": "event"
				},
				{
					"anonymous": false,
					"inputs": [
						{
							"indexed": true,
							"internalType": "bytes32",
							"name": "documentHash",
							"type": "bytes32"
						},
						{
							"indexed": true,
							"internalType": "address",
							"name": "oldOwner",
							"type": "address"
						},
						{
							"indexed": true,
							"internalType": "address",
							"name": "newOwner",
							"type": "address"
						}
					],
					"name": "OwnershipTransferred",
					"type": "event"
				},
				{
					"anonymous": false,
					"inputs": [
						{
							"indexed": false,
							"internalType": "address",
							"name": "account",
							"type": "address"
						}
					],
					"name": "Paused",
					"type": "event"
				},
				{
					"anonymous": false,
					"inputs": [
						{
							"indexed": false,
							"internalType": "address",
							"name": "account",
							"type": "address"
						}
					],
					"name": "Unpaused",
					"type": "event"
				},
				{
					"inputs": [
						{
							"internalType": "address",
							"name": "",
							"type": "address"
						}
					],
					"name": "gaslessEnabled",
					"outputs": [
						{
							"internalType": "bool",
							"name": "",
							"type": "bool"
						}
					],
					"stateMutability": "view",
					"type": "function"
				},
				{
					"inputs": [
						{
							"internalType": "bytes32",
							"name": "documentHash",
							"type": "bytes32"
						}
					],
					"name": "getDocumentDetails",
					"outputs": [
						{
							"internalType": "address",
							"name": "owner",
							"type": "address"
						},
						{
							"internalType": "uint256",
							"name": "timestamp",
							"type": "uint256"
						},
						{
							"internalType": "string",
							"name": "registrantName",
							"type": "string"
						},
						{
							"internalType": "string",
							"name": "organization",
							"type": "string"
						},
						{
							"internalType": "string",
							"name": "identifier",
							"type": "string"
						},
						{
							"internalType": "bool",
							"name": "isGasless",
							"type": "bool"
						}
					],
					"stateMutability": "view",
					"type": "function"
				},
				{
					"inputs": [
						{
							"internalType": "bytes32",
							"name": "documentHash",
							"type": "bytes32"
						}
					],
					"name": "getDocumentOwner",
					"outputs": [
						{
							"internalType": "address",
							"name": "",
							"type": "address"
						}
					],
					"stateMutability": "view",
					"type": "function"
				},
				{
					"inputs": [
						{
							"internalType": "bytes32",
							"name": "documentHash",
							"type": "bytes32"
						}
					],
					"name": "getDocumentTimestamp",
					"outputs": [
						{
							"internalType": "uint256",
							"name": "",
							"type": "uint256"
						}
					],
					"stateMutability": "view",
					"type": "function"
				},
				{
					"inputs": [
						{
							"internalType": "bytes32",
							"name": "documentHash",
							"type": "bytes32"
						}
					],
					"name": "isDocumentRegistered",
					"outputs": [
						{
							"internalType": "bool",
							"name": "",
							"type": "bool"
						}
					],
					"stateMutability": "view",
					"type": "function"
				},
				{
					"inputs": [
						{
							"internalType": "address",
							"name": "user",
							"type": "address"
						}
					],
					"name": "isGaslessEnabled",
					"outputs": [
						{
							"internalType": "bool",
							"name": "",
							"type": "bool"
						}
					],
					"stateMutability": "view",
					"type": "function"
				},
				{
					"inputs": [
						{
							"internalType": "address",
							"name": "forwarder",
							"type": "address"
						}
					],
					"name": "isTrustedForwarder",
					"outputs": [
						{
							"internalType": "bool",
							"name": "",
							"type": "bool"
						}
					],
					"stateMutability": "view",
					"type": "function"
				},
				{
					"inputs": [],
					"name": "owner",
					"outputs": [
						{
							"internalType": "address",
							"name": "",
							"type": "address"
						}
					],
					"stateMutability": "view",
					"type": "function"
				},
				{
					"inputs": [],
					"name": "pauseContract",
					"outputs": [],
					"stateMutability": "nonpayable",
					"type": "function"
				},
				{
					"inputs": [],
					"name": "paused",
					"outputs": [
						{
							"internalType": "bool",
							"name": "",
							"type": "bool"
						}
					],
					"stateMutability": "view",
					"type": "function"
				},
				{
					"inputs": [
						{
							"internalType": "bytes32",
							"name": "documentHash",
							"type": "bytes32"
						},
						{
							"internalType": "string",
							"name": "registrantName",
							"type": "string"
						},
						{
							"internalType": "string",
							"name": "organization",
							"type": "string"
						},
						{
							"internalType": "string",
							"name": "identifier",
							"type": "string"
						},
						{
							"internalType": "bool",
							"name": "useGasless",
							"type": "bool"
						}
					],
					"name": "registerDocument",
					"outputs": [],
					"stateMutability": "nonpayable",
					"type": "function"
				},
				{
					"inputs": [
						{
							"internalType": "bytes32",
							"name": "documentHash",
							"type": "bytes32"
						},
						{
							"internalType": "string",
							"name": "registrantName",
							"type": "string"
						},
						{
							"internalType": "string",
							"name": "organization",
							"type": "string"
						},
						{
							"internalType": "string",
							"name": "identifier",
							"type": "string"
						}
					],
					"name": "registerDocumentGasless",
					"outputs": [],
					"stateMutability": "nonpayable",
					"type": "function"
				},
				{
					"inputs": [
						{
							"internalType": "bytes32",
							"name": "documentHash",
							"type": "bytes32"
						},
						{
							"internalType": "string",
							"name": "registrantName",
							"type": "string"
						},
						{
							"internalType": "string",
							"name": "organization",
							"type": "string"
						},
						{
							"internalType": "string",
							"name": "identifier",
							"type": "string"
						}
					],
					"name": "registerDocumentWithGas",
					"outputs": [],
					"stateMutability": "nonpayable",
					"type": "function"
				},
				{
					"inputs": [],
					"name": "renounceOwnership",
					"outputs": [],
					"stateMutability": "nonpayable",
					"type": "function"
				},
				{
					"inputs": [
						{
							"internalType": "bool",
							"name": "enabled",
							"type": "bool"
						}
					],
					"name": "setGaslessPreference",
					"outputs": [],
					"stateMutability": "nonpayable",
					"type": "function"
				},
				{
					"inputs": [
						{
							"internalType": "bytes32",
							"name": "documentHash",
							"type": "bytes32"
						},
						{
							"internalType": "address",
							"name": "newOwner",
							"type": "address"
						},
						{
							"internalType": "bool",
							"name": "useGasless",
							"type": "bool"
						}
					],
					"name": "transferDocumentOwnership",
					"outputs": [],
					"stateMutability": "nonpayable",
					"type": "function"
				},
				{
					"inputs": [
						{
							"internalType": "address",
							"name": "newOwner",
							"type": "address"
						}
					],
					"name": "transferOwnership",
					"outputs": [],
					"stateMutability": "nonpayable",
					"type": "function"
				},
				{
					"inputs": [],
					"name": "trustedForwarder",
					"outputs": [
						{
							"internalType": "address",
							"name": "",
							"type": "address"
						}
					],
					"stateMutability": "view",
					"type": "function"
				},
				{
					"inputs": [],
					"name": "unpauseContract",
					"outputs": [],
					"stateMutability": "nonpayable",
					"type": "function"
				},
				{
					"inputs": [
						{
							"internalType": "bytes32",
							"name": "documentHash",
							"type": "bytes32"
						}
					],
					"name": "verifyDocument",
					"outputs": [
						{
							"internalType": "bool",
							"name": "",
							"type": "bool"
						}
					],
					"stateMutability": "view",
					"type": "function"
				}
			],
			"devdoc": {
				"errors": {
					"OwnableInvalidOwner(address)": [
						{
							"details": "The owner is not a valid owner account. (eg. `address(0)`)"
						}
					],
					"OwnableUnauthorizedAccount(address)": [
						{
							"details": "The caller account is not authorized to perform an operation."
						}
					]
				},
				"events": {
					"Paused(address)": {
						"details": "Emitted when the pause is triggered by `account`."
					},
					"Unpaused(address)": {
						"details": "Emitted when the pause is lifted by `account`."
					}
				},
				"kind": "dev",
				"methods": {
					"isTrustedForwarder(address)": {
						"details": "Indicates whether any particular address is the trusted forwarder."
					},
					"owner()": {
						"details": "Returns the address of the current owner."
					},
					"paused()": {
						"details": "Returns true if the contract is paused, and false otherwise."
					},
					"renounceOwnership()": {
						"details": "Leaves the contract without owner. It will not be possible to call `onlyOwner` functions. Can only be called by the current owner. NOTE: Renouncing ownership will leave the contract without an owner, thereby disabling any functionality that is only available to the owner."
					},
					"transferOwnership(address)": {
						"details": "Transfers ownership of the contract to a new account (`newOwner`). Can only be called by the current owner."
					},
					"trustedForwarder()": {
						"details": "Returns the address of the trusted forwarder."
					}
				},
				"version": 1
			},
			"evm": {
				"assembly": "    /* \"Proofication/DocumentAudit1.sol\":234:6463  contract DocumentAudit is ERC2771Context, Ownable, Pausable {... */\n  mstore(0x40, 0xa0)\n    /* \"Proofication/DocumentAudit1.sol\":1157:1278  constructor(address trustedForwarder) ... */\n  callvalue\n  dup1\n  iszero\n  tag_1\n  jumpi\n  0x00\n  dup1\n  revert\ntag_1:\n  pop\n  mload(0x40)\n  sub(codesize, bytecodeSize)\n  dup1\n  bytecodeSize\n  dup4\n  codecopy\n  dup2\n  dup2\n  add\n  0x40\n  mstore\n  dup2\n  add\n  swap1\n  tag_2\n  swap2\n  swap1\n  tag_3\n  jump\t// in\ntag_2:\n    /* \"Proofication/DocumentAudit1.sol\":1256:1268  _msgSender() */\n  tag_6\n    /* \"Proofication/DocumentAudit1.sol\":1256:1266  _msgSender */\n  shl(0x20, tag_7)\n    /* \"Proofication/DocumentAudit1.sol\":1256:1268  _msgSender() */\n  0x20\n  shr\n  jump\t// in\ntag_6:\n    /* \"Proofication/DocumentAudit1.sol\":1220:1236  trustedForwarder */\n  dup2\n    /* \"@openzeppelin/contracts/metatx/ERC2771Context.sol\":1520:1537  trustedForwarder_ */\n  dup1\n    /* \"@openzeppelin/contracts/metatx/ERC2771Context.sol\":1500:1537  _trustedForwarder = trustedForwarder_ */\n  0xffffffffffffffffffffffffffffffffffffffff\n  and\n  0x80\n  dup2\n  0xffffffffffffffffffffffffffffffffffffffff\n  and\n  dup2\n  mstore\n  pop\n  pop\n    /* \"@openzeppelin/contracts/metatx/ERC2771Context.sol\":1451:1544  constructor(address trustedForwarder_) {... */\n  pop\n    /* \"@openzeppelin/contracts/access/Ownable.sol\":1297:1298  0 */\n  0x00\n    /* \"@openzeppelin/contracts/access/Ownable.sol\":1273:1299  initialOwner == address(0) */\n  0xffffffffffffffffffffffffffffffffffffffff\n  and\n    /* \"@openzeppelin/contracts/access/Ownable.sol\":1273:1285  initialOwner */\n  dup2\n    /* \"@openzeppelin/contracts/access/Ownable.sol\":1273:1299  initialOwner == address(0) */\n  0xffffffffffffffffffffffffffffffffffffffff\n  and\n  sub\n    /* \"@openzeppelin/contracts/access/Ownable.sol\":1269:1364  if (initialOwner == address(0)) {... */\n  tag_12\n  jumpi\n    /* \"@openzeppelin/contracts/access/Ownable.sol\":1350:1351  0 */\n  0x00\n    /* \"@openzeppelin/contracts/access/Ownable.sol\":1322:1353  OwnableInvalidOwner(address(0)) */\n  mload(0x40)\n  0x1e4fbdf700000000000000000000000000000000000000000000000000000000\n  dup2\n  mstore\n  0x04\n  add\n  tag_13\n  swap2\n  swap1\n  tag_14\n  jump\t// in\ntag_13:\n  mload(0x40)\n  dup1\n  swap2\n  sub\n  swap1\n  revert\n    /* \"@openzeppelin/contracts/access/Ownable.sol\":1269:1364  if (initialOwner == address(0)) {... */\ntag_12:\n    /* \"@openzeppelin/contracts/access/Ownable.sol\":1373:1405  _transferOwnership(initialOwner) */\n  tag_15\n    /* \"@openzeppelin/contracts/access/Ownable.sol\":1392:1404  initialOwner */\n  dup2\n    /* \"@openzeppelin/contracts/access/Ownable.sol\":1373:1391  _transferOwnership */\n  shl(0x20, tag_16)\n    /* \"@openzeppelin/contracts/access/Ownable.sol\":1373:1405  _transferOwnership(initialOwner) */\n  0x20\n  shr\n  jump\t// in\ntag_15:\n    /* \"@openzeppelin/contracts/access/Ownable.sol\":1225:1412  constructor(address initialOwner) {... */\n  pop\n    /* \"@openzeppelin/contracts/security/Pausable.sol\":1006:1011  false */\n  0x00\n    /* \"@openzeppelin/contracts/security/Pausable.sol\":996:1003  _paused */\n  dup1\n  0x14\n    /* \"@openzeppelin/contracts/security/Pausable.sol\":996:1011  _paused = false */\n  0x0100\n  exp\n  dup2\n  sload\n  dup2\n  0xff\n  mul\n  not\n  and\n  swap1\n  dup4\n  iszero\n  iszero\n  mul\n  or\n  swap1\n  sstore\n  pop\n    /* \"Proofication/DocumentAudit1.sol\":1157:1278  constructor(address trustedForwarder) ... */\n  pop\n    /* \"Proofication/DocumentAudit1.sol\":234:6463  contract DocumentAudit is ERC2771Context, Ownable, Pausable {... */\n  jump(tag_19)\n    /* \"Proofication/DocumentAudit1.sol\":5980:6130  function _msgSender() internal view override(Context, ERC2771Context)... */\ntag_7:\n    /* \"Proofication/DocumentAudit1.sol\":6068:6075  address */\n  0x00\n    /* \"Proofication/DocumentAudit1.sol\":6095:6122  ERC2771Context._msgSender() */\n  tag_21\n    /* \"Proofication/DocumentAudit1.sol\":6095:6120  ERC2771Context._msgSender */\n  shl(0x20, tag_22)\n    /* \"Proofication/DocumentAudit1.sol\":6095:6122  ERC2771Context._msgSender() */\n  0x20\n  shr\n  jump\t// in\ntag_21:\n    /* \"Proofication/DocumentAudit1.sol\":6088:6122  return ERC2771Context._msgSender() */\n  swap1\n  pop\n    /* \"Proofication/DocumentAudit1.sol\":5980:6130  function _msgSender() internal view override(Context, ERC2771Context)... */\n  swap1\n  jump\t// out\n    /* \"@openzeppelin/contracts/access/Ownable.sol\":2912:3099  function _transferOwnership(address newOwner) internal virtual {... */\ntag_16:\n    /* \"@openzeppelin/contracts/access/Ownable.sol\":2985:3001  address oldOwner */\n  0x00\n    /* \"@openzeppelin/contracts/access/Ownable.sol\":3004:3010  _owner */\n  dup1\n  0x00\n  swap1\n  sload\n  swap1\n  0x0100\n  exp\n  swap1\n  div\n  0xffffffffffffffffffffffffffffffffffffffff\n  and\n    /* \"@openzeppelin/contracts/access/Ownable.sol\":2985:3010  address oldOwner = _owner */\n  swap1\n  pop\n    /* \"@openzeppelin/contracts/access/Ownable.sol\":3029:3037  newOwner */\n  dup2\n    /* \"@openzeppelin/contracts/access/Ownable.sol\":3020:3026  _owner */\n  0x00\n  dup1\n    /* \"@openzeppelin/contracts/access/Ownable.sol\":3020:3037  _owner = newOwner */\n  0x0100\n  exp\n  dup2\n  sload\n  dup2\n  0xffffffffffffffffffffffffffffffffffffffff\n  mul\n  not\n  and\n  swap1\n  dup4\n  0xffffffffffffffffffffffffffffffffffffffff\n  and\n  mul\n  or\n  swap1\n  sstore\n  pop\n    /* \"@openzeppelin/contracts/access/Ownable.sol\":3083:3091  newOwner */\n  dup2\n    /* \"@openzeppelin/contracts/access/Ownable.sol\":3052:3092  OwnershipTransferred(oldOwner, newOwner) */\n  0xffffffffffffffffffffffffffffffffffffffff\n  and\n    /* \"@openzeppelin/contracts/access/Ownable.sol\":3073:3081  oldOwner */\n  dup2\n    /* \"@openzeppelin/contracts/access/Ownable.sol\":3052:3092  OwnershipTransferred(oldOwner, newOwner) */\n  0xffffffffffffffffffffffffffffffffffffffff\n  and\n  0x8be0079c531659141344cd1fd0a4f28419497f9722a3daafe3b4186f6b6457e0\n  mload(0x40)\n  mload(0x40)\n  dup1\n  swap2\n  sub\n  swap1\n  log3\n    /* \"@openzeppelin/contracts/access/Ownable.sol\":2975:3099  {... */\n  pop\n    /* \"@openzeppelin/contracts/access/Ownable.sol\":2912:3099  function _transferOwnership(address newOwner) internal virtual {... */\n  pop\n  jump\t// out\n    /* \"@openzeppelin/contracts/metatx/ERC2771Context.sol\":2206:2635  function _msgSender() internal view virtual override returns (address) {... */\ntag_22:\n    /* \"@openzeppelin/contracts/metatx/ERC2771Context.sol\":2268:2275  address */\n  0x00\n    /* \"@openzeppelin/contracts/metatx/ERC2771Context.sol\":2287:2309  uint256 calldataLength */\n  dup1\n    /* \"@openzeppelin/contracts/metatx/ERC2771Context.sol\":2312:2320  msg.data */\n  0x00\n  calldatasize\n    /* \"@openzeppelin/contracts/metatx/ERC2771Context.sol\":2312:2327  msg.data.length */\n  swap1\n  pop\n    /* \"@openzeppelin/contracts/metatx/ERC2771Context.sol\":2287:2327  uint256 calldataLength = msg.data.length */\n  swap1\n  pop\n    /* \"@openzeppelin/contracts/metatx/ERC2771Context.sol\":2337:2364  uint256 contextSuffixLength */\n  0x00\n    /* \"@openzeppelin/contracts/metatx/ERC2771Context.sol\":2367:2389  _contextSuffixLength() */\n  tag_25\n    /* \"@openzeppelin/contracts/metatx/ERC2771Context.sol\":2367:2387  _contextSuffixLength */\n  shl(0x20, tag_26)\n    /* \"@openzeppelin/contracts/metatx/ERC2771Context.sol\":2367:2389  _contextSuffixLength() */\n  0x20\n  shr\n  jump\t// in\ntag_25:\n    /* \"@openzeppelin/contracts/metatx/ERC2771Context.sol\":2337:2389  uint256 contextSuffixLength = _contextSuffixLength() */\n  swap1\n  pop\n    /* \"@openzeppelin/contracts/metatx/ERC2771Context.sol\":2403:2433  isTrustedForwarder(msg.sender) */\n  tag_27\n    /* \"@openzeppelin/contracts/metatx/ERC2771Context.sol\":2422:2432  msg.sender */\n  caller\n    /* \"@openzeppelin/contracts/metatx/ERC2771Context.sol\":2403:2421  isTrustedForwarder */\n  shl(0x20, tag_28)\n    /* \"@openzeppelin/contracts/metatx/ERC2771Context.sol\":2403:2433  isTrustedForwarder(msg.sender) */\n  0x20\n  shr\n  jump\t// in\ntag_27:\n    /* \"@openzeppelin/contracts/metatx/ERC2771Context.sol\":2403:2474  isTrustedForwarder(msg.sender) && calldataLength >= contextSuffixLength */\n  dup1\n  iszero\n  tag_29\n  jumpi\n  pop\n    /* \"@openzeppelin/contracts/metatx/ERC2771Context.sol\":2455:2474  contextSuffixLength */\n  dup1\n    /* \"@openzeppelin/contracts/metatx/ERC2771Context.sol\":2437:2451  calldataLength */\n  dup3\n    /* \"@openzeppelin/contracts/metatx/ERC2771Context.sol\":2437:2474  calldataLength >= contextSuffixLength */\n  lt\n  iszero\n    /* \"@openzeppelin/contracts/metatx/ERC2771Context.sol\":2403:2474  isTrustedForwarder(msg.sender) && calldataLength >= contextSuffixLength */\ntag_29:\n    /* \"@openzeppelin/contracts/metatx/ERC2771Context.sol\":2399:2629  if (isTrustedForwarder(msg.sender) && calldataLength >= contextSuffixLength) {... */\n  iszero\n  tag_30\n  jumpi\n    /* \"@openzeppelin/contracts/metatx/ERC2771Context.sol\":2513:2521  msg.data */\n  0x00\n  calldatasize\n    /* \"@openzeppelin/contracts/metatx/ERC2771Context.sol\":2539:2558  contextSuffixLength */\n  dup3\n    /* \"@openzeppelin/contracts/metatx/ERC2771Context.sol\":2522:2536  calldataLength */\n  dup5\n    /* \"@openzeppelin/contracts/metatx/ERC2771Context.sol\":2522:2558  calldataLength - contextSuffixLength */\n  tag_31\n  swap2\n  swap1\n  tag_32\n  jump\t// in\ntag_31:\n    /* \"@openzeppelin/contracts/metatx/ERC2771Context.sol\":2513:2560  msg.data[calldataLength - contextSuffixLength:] */\n  swap1\n  dup1\n  swap3\n  tag_33\n  swap4\n  swap3\n  swap2\n  swap1\n  tag_34\n  jump\t// in\ntag_33:\n    /* \"@openzeppelin/contracts/metatx/ERC2771Context.sol\":2505:2561  bytes20(msg.data[calldataLength - contextSuffixLength:]) */\n  swap1\n  tag_35\n  swap2\n  swap1\n  tag_36\n  jump\t// in\ntag_35:\n    /* \"@openzeppelin/contracts/metatx/ERC2771Context.sol\":2497:2562  address(bytes20(msg.data[calldataLength - contextSuffixLength:])) */\n  0x60\n  shr\n    /* \"@openzeppelin/contracts/metatx/ERC2771Context.sol\":2490:2562  return address(bytes20(msg.data[calldataLength - contextSuffixLength:])) */\n  swap3\n  pop\n  pop\n  pop\n  jump(tag_24)\n    /* \"@openzeppelin/contracts/metatx/ERC2771Context.sol\":2399:2629  if (isTrustedForwarder(msg.sender) && calldataLength >= contextSuffixLength) {... */\ntag_30:\n    /* \"@openzeppelin/contracts/metatx/ERC2771Context.sol\":2600:2618  super._msgSender() */\n  tag_38\n    /* \"@openzeppelin/contracts/metatx/ERC2771Context.sol\":2600:2616  super._msgSender */\n  shl(0x20, tag_39)\n    /* \"@openzeppelin/contracts/metatx/ERC2771Context.sol\":2600:2618  super._msgSender() */\n  0x20\n  shr\n  jump\t// in\ntag_38:\n    /* \"@openzeppelin/contracts/metatx/ERC2771Context.sol\":2593:2618  return super._msgSender() */\n  swap3\n  pop\n  pop\n  pop\n    /* \"@openzeppelin/contracts/metatx/ERC2771Context.sol\":2206:2635  function _msgSender() internal view virtual override returns (address) {... */\ntag_24:\n  swap1\n  jump\t// out\n    /* \"Proofication/DocumentAudit1.sol\":6299:6460  function _contextSuffixLength() internal view override(Context, ERC2771Context) returns (uint256) {... */\ntag_26:\n    /* \"Proofication/DocumentAudit1.sol\":6388:6395  uint256 */\n  0x00\n    /* \"Proofication/DocumentAudit1.sol\":6415:6452  ERC2771Context._contextSuffixLength() */\n  tag_41\n    /* \"Proofication/DocumentAudit1.sol\":6415:6450  ERC2771Context._contextSuffixLength */\n  shl(0x20, tag_42)\n    /* \"Proofication/DocumentAudit1.sol\":6415:6452  ERC2771Context._contextSuffixLength() */\n  0x20\n  shr\n  jump\t// in\ntag_41:\n    /* \"Proofication/DocumentAudit1.sol\":6408:6452  return ERC2771Context._contextSuffixLength() */\n  swap1\n  pop\n    /* \"Proofication/DocumentAudit1.sol\":6299:6460  function _contextSuffixLength() internal view override(Context, ERC2771Context) returns (uint256) {... */\n  swap1\n  jump\t// out\n    /* \"@openzeppelin/contracts/metatx/ERC2771Context.sol\":1832:1969  function isTrustedForwarder(address forwarder) public view virtual returns (bool) {... */\ntag_28:\n    /* \"@openzeppelin/contracts/metatx/ERC2771Context.sol\":1908:1912  bool */\n  0x00\n    /* \"@openzeppelin/contracts/metatx/ERC2771Context.sol\":1944:1962  trustedForwarder() */\n  tag_44\n    /* \"@openzeppelin/contracts/metatx/ERC2771Context.sol\":1944:1960  trustedForwarder */\n  shl(0x20, tag_45)\n    /* \"@openzeppelin/contracts/metatx/ERC2771Context.sol\":1944:1962  trustedForwarder() */\n  0x20\n  shr\n  jump\t// in\ntag_44:\n    /* \"@openzeppelin/contracts/metatx/ERC2771Context.sol\":1931:1962  forwarder == trustedForwarder() */\n  0xffffffffffffffffffffffffffffffffffffffff\n  and\n    /* \"@openzeppelin/contracts/metatx/ERC2771Context.sol\":1931:1940  forwarder */\n  dup3\n    /* \"@openzeppelin/contracts/metatx/ERC2771Context.sol\":1931:1962  forwarder == trustedForwarder() */\n  0xffffffffffffffffffffffffffffffffffffffff\n  and\n  eq\n    /* \"@openzeppelin/contracts/metatx/ERC2771Context.sol\":1924:1962  return forwarder == trustedForwarder() */\n  swap1\n  pop\n    /* \"@openzeppelin/contracts/metatx/ERC2771Context.sol\":1832:1969  function isTrustedForwarder(address forwarder) public view virtual returns (bool) {... */\n  swap2\n  swap1\n  pop\n  jump\t// out\n    /* \"@openzeppelin/contracts/utils/Context.sol\":656:752  function _msgSender() internal view virtual returns (address) {... */\ntag_39:\n    /* \"@openzeppelin/contracts/utils/Context.sol\":709:716  address */\n  0x00\n    /* \"@openzeppelin/contracts/utils/Context.sol\":735:745  msg.sender */\n  caller\n    /* \"@openzeppelin/contracts/utils/Context.sol\":728:745  return msg.sender */\n  swap1\n  pop\n    /* \"@openzeppelin/contracts/utils/Context.sol\":656:752  function _msgSender() internal view virtual returns (address) {... */\n  swap1\n  jump\t// out\n    /* \"@openzeppelin/contracts/metatx/ERC2771Context.sol\":3385:3492  function _contextSuffixLength() internal view virtual override returns (uint256) {... */\ntag_42:\n    /* \"@openzeppelin/contracts/metatx/ERC2771Context.sol\":3457:3464  uint256 */\n  0x00\n    /* \"@openzeppelin/contracts/metatx/ERC2771Context.sol\":3483:3485  20 */\n  0x14\n    /* \"@openzeppelin/contracts/metatx/ERC2771Context.sol\":3476:3485  return 20 */\n  swap1\n  pop\n    /* \"@openzeppelin/contracts/metatx/ERC2771Context.sol\":3385:3492  function _contextSuffixLength() internal view virtual override returns (uint256) {... */\n  swap1\n  jump\t// out\n    /* \"@openzeppelin/contracts/metatx/ERC2771Context.sol\":1624:1731  function trustedForwarder() public view virtual returns (address) {... */\ntag_45:\n    /* \"@openzeppelin/contracts/metatx/ERC2771Context.sol\":1681:1688  address */\n  0x00\n    /* \"@openzeppelin/contracts/metatx/ERC2771Context.sol\":1707:1724  _trustedForwarder */\n  mload(0x80)\n    /* \"@openzeppelin/contracts/metatx/ERC2771Context.sol\":1700:1724  return _trustedForwarder */\n  swap1\n  pop\n    /* \"@openzeppelin/contracts/metatx/ERC2771Context.sol\":1624:1731  function trustedForwarder() public view virtual returns (address) {... */\n  swap1\n  jump\t// out\n    /* \"#utility.yul\":88:205   */\ntag_50:\n    /* \"#utility.yul\":197:198   */\n  0x00\n    /* \"#utility.yul\":194:195   */\n  dup1\n    /* \"#utility.yul\":187:199   */\n  revert\n    /* \"#utility.yul\":334:460   */\ntag_52:\n    /* \"#utility.yul\":371:378   */\n  0x00\n    /* \"#utility.yul\":411:453   */\n  0xffffffffffffffffffffffffffffffffffffffff\n    /* \"#utility.yul\":404:409   */\n  dup3\n    /* \"#utility.yul\":400:454   */\n  and\n    /* \"#utility.yul\":389:454   */\n  swap1\n  pop\n    /* \"#utility.yul\":334:460   */\n  swap2\n  swap1\n  pop\n  jump\t// out\n    /* \"#utility.yul\":466:562   */\ntag_53:\n    /* \"#utility.yul\":503:510   */\n  0x00\n    /* \"#utility.yul\":532:556   */\n  tag_71\n    /* \"#utility.yul\":550:555   */\n  dup3\n    /* \"#utility.yul\":532:556   */\n  tag_52\n  jump\t// in\ntag_71:\n    /* \"#utility.yul\":521:556   */\n  swap1\n  pop\n    /* \"#utility.yul\":466:562   */\n  swap2\n  swap1\n  pop\n  jump\t// out\n    /* \"#utility.yul\":568:690   */\ntag_54:\n    /* \"#utility.yul\":641:665   */\n  tag_73\n    /* \"#utility.yul\":659:664   */\n  dup2\n    /* \"#utility.yul\":641:665   */\n  tag_53\n  jump\t// in\ntag_73:\n    /* \"#utility.yul\":634:639   */\n  dup2\n    /* \"#utility.yul\":631:666   */\n  eq\n    /* \"#utility.yul\":621:684   */\n  tag_74\n  jumpi\n    /* \"#utility.yul\":680:681   */\n  0x00\n    /* \"#utility.yul\":677:678   */\n  dup1\n    /* \"#utility.yul\":670:682   */\n  revert\n    /* \"#utility.yul\":621:684   */\ntag_74:\n    /* \"#utility.yul\":568:690   */\n  pop\n  jump\t// out\n    /* \"#utility.yul\":696:839   */\ntag_55:\n    /* \"#utility.yul\":753:758   */\n  0x00\n    /* \"#utility.yul\":784:790   */\n  dup2\n    /* \"#utility.yul\":778:791   */\n  mload\n    /* \"#utility.yul\":769:791   */\n  swap1\n  pop\n    /* \"#utility.yul\":800:833   */\n  tag_76\n    /* \"#utility.yul\":827:832   */\n  dup2\n    /* \"#utility.yul\":800:833   */\n  tag_54\n  jump\t// in\ntag_76:\n    /* \"#utility.yul\":696:839   */\n  swap3\n  swap2\n  pop\n  pop\n  jump\t// out\n    /* \"#utility.yul\":845:1196   */\ntag_3:\n    /* \"#utility.yul\":915:921   */\n  0x00\n    /* \"#utility.yul\":964:966   */\n  0x20\n    /* \"#utility.yul\":952:961   */\n  dup3\n    /* \"#utility.yul\":943:950   */\n  dup5\n    /* \"#utility.yul\":939:962   */\n  sub\n    /* \"#utility.yul\":935:967   */\n  slt\n    /* \"#utility.yul\":932:1051   */\n  iszero\n  tag_78\n  jumpi\n    /* \"#utility.yul\":970:1049   */\n  tag_79\n  tag_50\n  jump\t// in\ntag_79:\n    /* \"#utility.yul\":932:1051   */\ntag_78:\n    /* \"#utility.yul\":1090:1091   */\n  0x00\n    /* \"#utility.yul\":1115:1179   */\n  tag_80\n    /* \"#utility.yul\":1171:1178   */\n  dup5\n    /* \"#utility.yul\":1162:1168   */\n  dup3\n    /* \"#utility.yul\":1151:1160   */\n  dup6\n    /* \"#utility.yul\":1147:1169   */\n  add\n    /* \"#utility.yul\":1115:1179   */\n  tag_55\n  jump\t// in\ntag_80:\n    /* \"#utility.yul\":1105:1179   */\n  swap2\n  pop\n    /* \"#utility.yul\":1061:1189   */\n  pop\n    /* \"#utility.yul\":845:1196   */\n  swap3\n  swap2\n  pop\n  pop\n  jump\t// out\n    /* \"#utility.yul\":1202:1320   */\ntag_56:\n    /* \"#utility.yul\":1289:1313   */\n  tag_82\n    /* \"#utility.yul\":1307:1312   */\n  dup2\n    /* \"#utility.yul\":1289:1313   */\n  tag_53\n  jump\t// in\ntag_82:\n    /* \"#utility.yul\":1284:1287   */\n  dup3\n    /* \"#utility.yul\":1277:1314   */\n  mstore\n    /* \"#utility.yul\":1202:1320   */\n  pop\n  pop\n  jump\t// out\n    /* \"#utility.yul\":1326:1548   */\ntag_14:\n    /* \"#utility.yul\":1419:1423   */\n  0x00\n    /* \"#utility.yul\":1457:1459   */\n  0x20\n    /* \"#utility.yul\":1446:1455   */\n  dup3\n    /* \"#utility.yul\":1442:1460   */\n  add\n    /* \"#utility.yul\":1434:1460   */\n  swap1\n  pop\n    /* \"#utility.yul\":1470:1541   */\n  tag_84\n    /* \"#utility.yul\":1538:1539   */\n  0x00\n    /* \"#utility.yul\":1527:1536   */\n  dup4\n    /* \"#utility.yul\":1523:1540   */\n  add\n    /* \"#utility.yul\":1514:1520   */\n  dup5\n    /* \"#utility.yul\":1470:1541   */\n  tag_56\n  jump\t// in\ntag_84:\n    /* \"#utility.yul\":1326:1548   */\n  swap3\n  swap2\n  pop\n  pop\n  jump\t// out\n    /* \"#utility.yul\":1554:1631   */\ntag_57:\n    /* \"#utility.yul\":1591:1598   */\n  0x00\n    /* \"#utility.yul\":1620:1625   */\n  dup2\n    /* \"#utility.yul\":1609:1625   */\n  swap1\n  pop\n    /* \"#utility.yul\":1554:1631   */\n  swap2\n  swap1\n  pop\n  jump\t// out\n    /* \"#utility.yul\":1637:1817   */\ntag_58:\n    /* \"#utility.yul\":1685:1762   */\n  0x4e487b7100000000000000000000000000000000000000000000000000000000\n    /* \"#utility.yul\":1682:1683   */\n  0x00\n    /* \"#utility.yul\":1675:1763   */\n  mstore\n    /* \"#utility.yul\":1782:1786   */\n  0x11\n    /* \"#utility.yul\":1779:1780   */\n  0x04\n    /* \"#utility.yul\":1772:1787   */\n  mstore\n    /* \"#utility.yul\":1806:1810   */\n  0x24\n    /* \"#utility.yul\":1803:1804   */\n  0x00\n    /* \"#utility.yul\":1796:1811   */\n  revert\n    /* \"#utility.yul\":1823:2017   */\ntag_32:\n    /* \"#utility.yul\":1863:1867   */\n  0x00\n    /* \"#utility.yul\":1883:1903   */\n  tag_88\n    /* \"#utility.yul\":1901:1902   */\n  dup3\n    /* \"#utility.yul\":1883:1903   */\n  tag_57\n  jump\t// in\ntag_88:\n    /* \"#utility.yul\":1878:1903   */\n  swap2\n  pop\n    /* \"#utility.yul\":1917:1937   */\n  tag_89\n    /* \"#utility.yul\":1935:1936   */\n  dup4\n    /* \"#utility.yul\":1917:1937   */\n  tag_57\n  jump\t// in\ntag_89:\n    /* \"#utility.yul\":1912:1937   */\n  swap3\n  pop\n    /* \"#utility.yul\":1961:1962   */\n  dup3\n    /* \"#utility.yul\":1958:1959   */\n  dup3\n    /* \"#utility.yul\":1954:1963   */\n  sub\n    /* \"#utility.yul\":1946:1963   */\n  swap1\n  pop\n    /* \"#utility.yul\":1985:1986   */\n  dup2\n    /* \"#utility.yul\":1979:1983   */\n  dup2\n    /* \"#utility.yul\":1976:1987   */\n  gt\n    /* \"#utility.yul\":1973:2010   */\n  iszero\n  tag_90\n  jumpi\n    /* \"#utility.yul\":1990:2008   */\n  tag_91\n  tag_58\n  jump\t// in\ntag_91:\n    /* \"#utility.yul\":1973:2010   */\ntag_90:\n    /* \"#utility.yul\":1823:2017   */\n  swap3\n  swap2\n  pop\n  pop\n  jump\t// out\n    /* \"#utility.yul\":2023:2140   */\ntag_59:\n    /* \"#utility.yul\":2132:2133   */\n  0x00\n    /* \"#utility.yul\":2129:2130   */\n  dup1\n    /* \"#utility.yul\":2122:2134   */\n  revert\n    /* \"#utility.yul\":2146:2263   */\ntag_60:\n    /* \"#utility.yul\":2255:2256   */\n  0x00\n    /* \"#utility.yul\":2252:2253   */\n  dup1\n    /* \"#utility.yul\":2245:2257   */\n  revert\n    /* \"#utility.yul\":2269:2738   */\ntag_34:\n    /* \"#utility.yul\":2374:2383   */\n  0x00\n    /* \"#utility.yul\":2385:2394   */\n  dup1\n    /* \"#utility.yul\":2423:2431   */\n  dup6\n    /* \"#utility.yul\":2411:2421   */\n  dup6\n    /* \"#utility.yul\":2408:2432   */\n  gt\n    /* \"#utility.yul\":2405:2516   */\n  iszero\n  tag_95\n  jumpi\n    /* \"#utility.yul\":2435:2514   */\n  tag_96\n  tag_59\n  jump\t// in\ntag_96:\n    /* \"#utility.yul\":2405:2516   */\ntag_95:\n    /* \"#utility.yul\":2541:2547   */\n  dup4\n    /* \"#utility.yul\":2531:2539   */\n  dup7\n    /* \"#utility.yul\":2528:2548   */\n  gt\n    /* \"#utility.yul\":2525:2632   */\n  iszero\n  tag_97\n  jumpi\n    /* \"#utility.yul\":2551:2630   */\n  tag_98\n  tag_60\n  jump\t// in\ntag_98:\n    /* \"#utility.yul\":2525:2632   */\ntag_97:\n    /* \"#utility.yul\":2682:2683   */\n  0x01\n    /* \"#utility.yul\":2670:2680   */\n  dup6\n    /* \"#utility.yul\":2666:2684   */\n  mul\n    /* \"#utility.yul\":2658:2664   */\n  dup4\n    /* \"#utility.yul\":2654:2685   */\n  add\n    /* \"#utility.yul\":2641:2685   */\n  swap2\n  pop\n    /* \"#utility.yul\":2721:2731   */\n  dup5\n    /* \"#utility.yul\":2711:2719   */\n  dup7\n    /* \"#utility.yul\":2707:2732   */\n  sub\n    /* \"#utility.yul\":2694:2732   */\n  swap1\n  pop\n    /* \"#utility.yul\":2269:2738   */\n  swap5\n  pop\n  swap5\n  swap3\n  pop\n  pop\n  pop\n  jump\t// out\n    /* \"#utility.yul\":2744:2840   */\ntag_61:\n    /* \"#utility.yul\":2802:2808   */\n  0x00\n    /* \"#utility.yul\":2830:2833   */\n  dup3\n    /* \"#utility.yul\":2820:2833   */\n  swap1\n  pop\n    /* \"#utility.yul\":2744:2840   */\n  swap3\n  swap2\n  pop\n  pop\n  jump\t// out\n    /* \"#utility.yul\":2938:3088   */\ntag_63:\n    /* \"#utility.yul\":2975:2982   */\n  0x00\n    /* \"#utility.yul\":3015:3081   */\n  0xffffffffffffffffffffffffffffffffffffffff000000000000000000000000\n    /* \"#utility.yul\":3008:3013   */\n  dup3\n    /* \"#utility.yul\":3004:3082   */\n  and\n    /* \"#utility.yul\":2993:3082   */\n  swap1\n  pop\n    /* \"#utility.yul\":2938:3088   */\n  swap2\n  swap1\n  pop\n  jump\t// out\n    /* \"#utility.yul\":3094:3201   */\ntag_64:\n    /* \"#utility.yul\":3138:3146   */\n  0x00\n    /* \"#utility.yul\":3188:3193   */\n  dup3\n    /* \"#utility.yul\":3182:3186   */\n  dup3\n    /* \"#utility.yul\":3178:3194   */\n  shl\n    /* \"#utility.yul\":3157:3194   */\n  swap1\n  pop\n    /* \"#utility.yul\":3094:3201   */\n  swap3\n  swap2\n  pop\n  pop\n  jump\t// out\n    /* \"#utility.yul\":3207:3759   */\ntag_36:\n    /* \"#utility.yul\":3298:3303   */\n  0x00\n    /* \"#utility.yul\":3329:3374   */\n  tag_104\n    /* \"#utility.yul\":3370:3373   */\n  dup4\n    /* \"#utility.yul\":3363:3368   */\n  dup4\n    /* \"#utility.yul\":3329:3374   */\n  tag_61\n  jump\t// in\ntag_104:\n    /* \"#utility.yul\":3399:3404   */\n  dup3\n    /* \"#utility.yul\":3423:3464   */\n  tag_105\n    /* \"#utility.yul\":3454:3462   */\n  dup2\n    /* \"#utility.yul\":3441:3463   */\n  calldataload\n    /* \"#utility.yul\":3423:3464   */\n  tag_63\n  jump\t// in\ntag_105:\n    /* \"#utility.yul\":3414:3464   */\n  swap3\n  pop\n    /* \"#utility.yul\":3488:3490   */\n  0x14\n    /* \"#utility.yul\":3480:3486   */\n  dup3\n    /* \"#utility.yul\":3477:3491   */\n  lt\n    /* \"#utility.yul\":3474:3752   */\n  iszero\n  tag_106\n  jumpi\n    /* \"#utility.yul\":3559:3728   */\n  tag_107\n    /* \"#utility.yul\":3644:3710   */\n  0xffffffffffffffffffffffffffffffffffffffff000000000000000000000000\n    /* \"#utility.yul\":3614:3620   */\n  dup4\n    /* \"#utility.yul\":3610:3612   */\n  0x14\n    /* \"#utility.yul\":3606:3621   */\n  sub\n    /* \"#utility.yul\":3603:3604   */\n  0x08\n    /* \"#utility.yul\":3599:3622   */\n  mul\n    /* \"#utility.yul\":3559:3728   */\n  tag_64\n  jump\t// in\ntag_107:\n    /* \"#utility.yul\":3536:3541   */\n  dup4\n    /* \"#utility.yul\":3515:3742   */\n  and\n    /* \"#utility.yul\":3506:3742   */\n  swap3\n  pop\n    /* \"#utility.yul\":3474:3752   */\ntag_106:\n    /* \"#utility.yul\":3304:3759   */\n  pop\n  pop\n    /* \"#utility.yul\":3207:3759   */\n  swap3\n  swap2\n  pop\n  pop\n  jump\t// out\n    /* \"Proofication/DocumentAudit1.sol\":234:6463  contract DocumentAudit is ERC2771Context, Ownable, Pausable {... */\ntag_19:\n  mload(0x80)\n  codecopy(0x00, dataOffset(sub_0), dataSize(sub_0))\n  0x00\n  assignImmutable(\"0x0330c0d84464f890f3c81afbba7a3a05e0e864ec2e31676dedcb075b2bf855a0\")\n  return(0x00, dataSize(sub_0))\nstop\n\nsub_0: assembly {\n        /* \"Proofication/DocumentAudit1.sol\":234:6463  contract DocumentAudit is ERC2771Context, Ownable, Pausable {... */\n      mstore(0x40, 0x80)\n      callvalue\n      dup1\n      iszero\n      tag_1\n      jumpi\n      0x00\n      dup1\n      revert\n    tag_1:\n      pop\n      jumpi(tag_2, lt(calldatasize, 0x04))\n      shr(0xe0, calldataload(0x00))\n      dup1\n      0x8da5cb5b\n      gt\n      tag_23\n      jumpi\n      dup1\n      0xb33712c5\n      gt\n      tag_24\n      jumpi\n      dup1\n      0xb33712c5\n      eq\n      tag_18\n      jumpi\n      dup1\n      0xb83597d3\n      eq\n      tag_19\n      jumpi\n      dup1\n      0xe215a58e\n      eq\n      tag_20\n      jumpi\n      dup1\n      0xf2fde38b\n      eq\n      tag_21\n      jumpi\n      dup1\n      0xfe35089f\n      eq\n      tag_22\n      jumpi\n      jump(tag_2)\n    tag_24:\n      dup1\n      0x8da5cb5b\n      eq\n      tag_13\n      jumpi\n      dup1\n      0x8e4d0f40\n      eq\n      tag_14\n      jumpi\n      dup1\n      0x95f2f9f4\n      eq\n      tag_15\n      jumpi\n      dup1\n      0xa2428b73\n      eq\n      tag_16\n      jumpi\n      dup1\n      0xab2add76\n      eq\n      tag_17\n      jumpi\n      jump(tag_2)\n    tag_23:\n      dup1\n      0x5c975abb\n      gt\n      tag_25\n      jumpi\n      dup1\n      0x5c975abb\n      eq\n      tag_8\n      jumpi\n      dup1\n      0x618e6ce6\n      eq\n      tag_9\n      jumpi\n      dup1\n      0x6a97de3a\n      eq\n      tag_10\n      jumpi\n      dup1\n      0x715018a6\n      eq\n      tag_11\n      jumpi\n      dup1\n      0x7da0a877\n      eq\n      tag_12\n      jumpi\n      jump(tag_2)\n    tag_25:\n      dup1\n      0x542d0b\n      eq\n      tag_3\n      jumpi\n      dup1\n      0x058e3b6b\n      eq\n      tag_4\n      jumpi\n      dup1\n      0x439766ce\n      eq\n      tag_5\n      jumpi\n      dup1\n      0x571e8720\n      eq\n      tag_6\n      jumpi\n      dup1\n      0x572b6c05\n      eq\n      tag_7\n      jumpi\n    tag_2:\n      0x00\n      dup1\n      revert\n        /* \"Proofication/DocumentAudit1.sol\":1587:1700  function isGaslessEnabled(address user) public view returns (bool) {... */\n    tag_3:\n      tag_26\n      0x04\n      dup1\n      calldatasize\n      sub\n      dup2\n      add\n      swap1\n      tag_27\n      swap2\n      swap1\n      tag_28\n      jump\t// in\n    tag_27:\n      tag_29\n      jump\t// in\n    tag_26:\n      mload(0x40)\n      tag_30\n      swap2\n      swap1\n      tag_31\n      jump\t// in\n    tag_30:\n      mload(0x40)\n      dup1\n      swap2\n      sub\n      swap1\n      return\n        /* \"Proofication/DocumentAudit1.sol\":605:651  mapping(address => bool) public gaslessEnabled */\n    tag_4:\n      tag_32\n      0x04\n      dup1\n      calldatasize\n      sub\n      dup2\n      add\n      swap1\n      tag_33\n      swap2\n      swap1\n      tag_28\n      jump\t// in\n    tag_33:\n      tag_34\n      jump\t// in\n    tag_32:\n      mload(0x40)\n      tag_35\n      swap2\n      swap1\n      tag_31\n      jump\t// in\n    tag_35:\n      mload(0x40)\n      dup1\n      swap2\n      sub\n      swap1\n      return\n        /* \"Proofication/DocumentAudit1.sol\":5776:5845  function pauseContract() public onlyOwner {... */\n    tag_5:\n      tag_36\n      tag_37\n      jump\t// in\n    tag_36:\n      stop\n        /* \"Proofication/DocumentAudit1.sol\":3221:3521  function registerDocumentGasless(... */\n    tag_6:\n      tag_38\n      0x04\n      dup1\n      calldatasize\n      sub\n      dup2\n      add\n      swap1\n      tag_39\n      swap2\n      swap1\n      tag_40\n      jump\t// in\n    tag_39:\n      tag_41\n      jump\t// in\n    tag_38:\n      stop\n        /* \"@openzeppelin/contracts/metatx/ERC2771Context.sol\":1832:1969  function isTrustedForwarder(address forwarder) public view virtual returns (bool) {... */\n    tag_7:\n      tag_42\n      0x04\n      dup1\n      calldatasize\n      sub\n      dup2\n      add\n      swap1\n      tag_43\n      swap2\n      swap1\n      tag_28\n      jump\t// in\n    tag_43:\n      tag_44\n      jump\t// in\n    tag_42:\n      mload(0x40)\n      tag_45\n      swap2\n      swap1\n      tag_31\n      jump\t// in\n    tag_45:\n      mload(0x40)\n      dup1\n      swap2\n      sub\n      swap1\n      return\n        /* \"@openzeppelin/contracts/security/Pausable.sol\":1615:1699  function paused() public view virtual returns (bool) {... */\n    tag_8:\n      tag_46\n      tag_47\n      jump\t// in\n    tag_46:\n      mload(0x40)\n      tag_48\n      swap2\n      swap1\n      tag_31\n      jump\t// in\n    tag_48:\n      mload(0x40)\n      dup1\n      swap2\n      sub\n      swap1\n      return\n        /* \"Proofication/DocumentAudit1.sol\":5040:5183  function isDocumentRegistered(bytes32 documentHash) public view returns (bool) {... */\n    tag_9:\n      tag_49\n      0x04\n      dup1\n      calldatasize\n      sub\n      dup2\n      add\n      swap1\n      tag_50\n      swap2\n      swap1\n      tag_51\n      jump\t// in\n    tag_50:\n      tag_52\n      jump\t// in\n    tag_49:\n      mload(0x40)\n      tag_53\n      swap2\n      swap1\n      tag_31\n      jump\t// in\n    tag_53:\n      mload(0x40)\n      dup1\n      swap2\n      sub\n      swap1\n      return\n        /* \"Proofication/DocumentAudit1.sol\":1355:1524  function setGaslessPreference(bool enabled) external {... */\n    tag_10:\n      tag_54\n      0x04\n      dup1\n      calldatasize\n      sub\n      dup2\n      add\n      swap1\n      tag_55\n      swap2\n      swap1\n      tag_56\n      jump\t// in\n    tag_55:\n      tag_57\n      jump\t// in\n    tag_54:\n      stop\n        /* \"@openzeppelin/contracts/access/Ownable.sol\":2293:2394  function renounceOwnership() public virtual onlyOwner {... */\n    tag_11:\n      tag_58\n      tag_59\n      jump\t// in\n    tag_58:\n      stop\n        /* \"@openzeppelin/contracts/metatx/ERC2771Context.sol\":1624:1731  function trustedForwarder() public view virtual returns (address) {... */\n    tag_12:\n      tag_60\n      tag_61\n      jump\t// in\n    tag_60:\n      mload(0x40)\n      tag_62\n      swap2\n      swap1\n      tag_63\n      jump\t// in\n    tag_62:\n      mload(0x40)\n      dup1\n      swap2\n      sub\n      swap1\n      return\n        /* \"@openzeppelin/contracts/access/Ownable.sol\":1638:1723  function owner() public view virtual returns (address) {... */\n    tag_13:\n      tag_64\n      tag_65\n      jump\t// in\n    tag_64:\n      mload(0x40)\n      tag_66\n      swap2\n      swap1\n      tag_63\n      jump\t// in\n    tag_66:\n      mload(0x40)\n      dup1\n      swap2\n      sub\n      swap1\n      return\n        /* \"Proofication/DocumentAudit1.sol\":3529:4181  function getDocumentDetails(bytes32 documentHash)... */\n    tag_14:\n      tag_67\n      0x04\n      dup1\n      calldatasize\n      sub\n      dup2\n      add\n      swap1\n      tag_68\n      swap2\n      swap1\n      tag_51\n      jump\t// in\n    tag_68:\n      tag_69\n      jump\t// in\n    tag_67:\n      mload(0x40)\n      tag_70\n      swap7\n      swap6\n      swap5\n      swap4\n      swap3\n      swap2\n      swap1\n      tag_71\n      jump\t// in\n    tag_70:\n      mload(0x40)\n      dup1\n      swap2\n      sub\n      swap1\n      return\n        /* \"Proofication/DocumentAudit1.sol\":5550:5768  function getDocumentTimestamp(bytes32 documentHash) public view returns (uint256) {... */\n    tag_15:\n      tag_72\n      0x04\n      dup1\n      calldatasize\n      sub\n      dup2\n      add\n      swap1\n      tag_73\n      swap2\n      swap1\n      tag_51\n      jump\t// in\n    tag_73:\n      tag_74\n      jump\t// in\n    tag_72:\n      mload(0x40)\n      tag_75\n      swap2\n      swap1\n      tag_76\n      jump\t// in\n    tag_75:\n      mload(0x40)\n      dup1\n      swap2\n      sub\n      swap1\n      return\n        /* \"Proofication/DocumentAudit1.sol\":5191:5401  function getDocumentOwner(bytes32 documentHash) public view returns (address) {... */\n    tag_16:\n      tag_77\n      0x04\n      dup1\n      calldatasize\n      sub\n      dup2\n      add\n      swap1\n      tag_78\n      swap2\n      swap1\n      tag_51\n      jump\t// in\n    tag_78:\n      tag_79\n      jump\t// in\n    tag_77:\n      mload(0x40)\n      tag_80\n      swap2\n      swap1\n      tag_63\n      jump\t// in\n    tag_80:\n      mload(0x40)\n      dup1\n      swap2\n      sub\n      swap1\n      return\n        /* \"Proofication/DocumentAudit1.sol\":4189:5032  function transferDocumentOwnership(bytes32 documentHash, address newOwner, bool useGasless) public whenNotPaused {... */\n    tag_17:\n      tag_81\n      0x04\n      dup1\n      calldatasize\n      sub\n      dup2\n      add\n      swap1\n      tag_82\n      swap2\n      swap1\n      tag_83\n      jump\t// in\n    tag_82:\n      tag_84\n      jump\t// in\n    tag_81:\n      stop\n        /* \"Proofication/DocumentAudit1.sol\":5853:5926  function unpauseContract() public onlyOwner {... */\n    tag_18:\n      tag_85\n      tag_86\n      jump\t// in\n    tag_85:\n      stop\n        /* \"Proofication/DocumentAudit1.sol\":1763:2799  function registerDocument(... */\n    tag_19:\n      tag_87\n      0x04\n      dup1\n      calldatasize\n      sub\n      dup2\n      add\n      swap1\n      tag_88\n      swap2\n      swap1\n      tag_89\n      jump\t// in\n    tag_88:\n      tag_90\n      jump\t// in\n    tag_87:\n      stop\n        /* \"Proofication/DocumentAudit1.sol\":2868:3169  function registerDocumentWithGas(... */\n    tag_20:\n      tag_91\n      0x04\n      dup1\n      calldatasize\n      sub\n      dup2\n      add\n      swap1\n      tag_92\n      swap2\n      swap1\n      tag_40\n      jump\t// in\n    tag_92:\n      tag_93\n      jump\t// in\n    tag_91:\n      stop\n        /* \"@openzeppelin/contracts/access/Ownable.sol\":2543:2758  function transferOwnership(address newOwner) public virtual onlyOwner {... */\n    tag_21:\n      tag_94\n      0x04\n      dup1\n      calldatasize\n      sub\n      dup2\n      add\n      swap1\n      tag_95\n      swap2\n      swap1\n      tag_28\n      jump\t// in\n    tag_95:\n      tag_96\n      jump\t// in\n    tag_94:\n      stop\n        /* \"Proofication/DocumentAudit1.sol\":5409:5542  function verifyDocument(bytes32 documentHash) public view returns (bool) {... */\n    tag_22:\n      tag_97\n      0x04\n      dup1\n      calldatasize\n      sub\n      dup2\n      add\n      swap1\n      tag_98\n      swap2\n      swap1\n      tag_51\n      jump\t// in\n    tag_98:\n      tag_99\n      jump\t// in\n    tag_97:\n      mload(0x40)\n      tag_100\n      swap2\n      swap1\n      tag_31\n      jump\t// in\n    tag_100:\n      mload(0x40)\n      dup1\n      swap2\n      sub\n      swap1\n      return\n        /* \"Proofication/DocumentAudit1.sol\":1587:1700  function isGaslessEnabled(address user) public view returns (bool) {... */\n    tag_29:\n        /* \"Proofication/DocumentAudit1.sol\":1648:1652  bool */\n      0x00\n        /* \"Proofication/DocumentAudit1.sol\":1672:1686  gaslessEnabled */\n      0x02\n        /* \"Proofication/DocumentAudit1.sol\":1672:1692  gaslessEnabled[user] */\n      0x00\n        /* \"Proofication/DocumentAudit1.sol\":1687:1691  user */\n      dup4\n        /* \"Proofication/DocumentAudit1.sol\":1672:1692  gaslessEnabled[user] */\n      0xffffffffffffffffffffffffffffffffffffffff\n      and\n      0xffffffffffffffffffffffffffffffffffffffff\n      and\n      dup2\n      mstore\n      0x20\n      add\n      swap1\n      dup2\n      mstore\n      0x20\n      add\n      0x00\n      keccak256\n      0x00\n      swap1\n      sload\n      swap1\n      0x0100\n      exp\n      swap1\n      div\n      0xff\n      and\n        /* \"Proofication/DocumentAudit1.sol\":1665:1692  return gaslessEnabled[user] */\n      swap1\n      pop\n        /* \"Proofication/DocumentAudit1.sol\":1587:1700  function isGaslessEnabled(address user) public view returns (bool) {... */\n      swap2\n      swap1\n      pop\n      jump\t// out\n        /* \"Proofication/DocumentAudit1.sol\":605:651  mapping(address => bool) public gaslessEnabled */\n    tag_34:\n      mstore(0x20, 0x02)\n      dup1\n      0x00\n      mstore\n      keccak256(0x00, 0x40)\n      0x00\n      swap2\n      pop\n      sload\n      swap1\n      0x0100\n      exp\n      swap1\n      div\n      0xff\n      and\n      dup2\n      jump\t// out\n        /* \"Proofication/DocumentAudit1.sol\":5776:5845  function pauseContract() public onlyOwner {... */\n    tag_37:\n        /* \"@openzeppelin/contracts/access/Ownable.sol\":1531:1544  _checkOwner() */\n      tag_103\n        /* \"@openzeppelin/contracts/access/Ownable.sol\":1531:1542  _checkOwner */\n      tag_104\n        /* \"@openzeppelin/contracts/access/Ownable.sol\":1531:1544  _checkOwner() */\n      jump\t// in\n    tag_103:\n        /* \"Proofication/DocumentAudit1.sol\":5829:5837  _pause() */\n      tag_106\n        /* \"Proofication/DocumentAudit1.sol\":5829:5835  _pause */\n      tag_107\n        /* \"Proofication/DocumentAudit1.sol\":5829:5837  _pause() */\n      jump\t// in\n    tag_106:\n        /* \"Proofication/DocumentAudit1.sol\":5776:5845  function pauseContract() public onlyOwner {... */\n      jump\t// out\n        /* \"Proofication/DocumentAudit1.sol\":3221:3521  function registerDocumentGasless(... */\n    tag_41:\n        /* \"@openzeppelin/contracts/security/Pausable.sol\":1239:1258  _requireNotPaused() */\n      tag_109\n        /* \"@openzeppelin/contracts/security/Pausable.sol\":1239:1256  _requireNotPaused */\n      tag_110\n        /* \"@openzeppelin/contracts/security/Pausable.sol\":1239:1258  _requireNotPaused() */\n      jump\t// in\n    tag_109:\n        /* \"Proofication/DocumentAudit1.sol\":3435:3513  registerDocument(documentHash, registrantName, organization, identifier, true) */\n      tag_112\n        /* \"Proofication/DocumentAudit1.sol\":3452:3464  documentHash */\n      dup5\n        /* \"Proofication/DocumentAudit1.sol\":3466:3480  registrantName */\n      dup5\n        /* \"Proofication/DocumentAudit1.sol\":3482:3494  organization */\n      dup5\n        /* \"Proofication/DocumentAudit1.sol\":3496:3506  identifier */\n      dup5\n        /* \"Proofication/DocumentAudit1.sol\":3508:3512  true */\n      0x01\n        /* \"Proofication/DocumentAudit1.sol\":3435:3451  registerDocument */\n      tag_90\n        /* \"Proofication/DocumentAudit1.sol\":3435:3513  registerDocument(documentHash, registrantName, organization, identifier, true) */\n      jump\t// in\n    tag_112:\n        /* \"Proofication/DocumentAudit1.sol\":3221:3521  function registerDocumentGasless(... */\n      pop\n      pop\n      pop\n      pop\n      jump\t// out\n        /* \"@openzeppelin/contracts/metatx/ERC2771Context.sol\":1832:1969  function isTrustedForwarder(address forwarder) public view virtual returns (bool) {... */\n    tag_44:\n        /* \"@openzeppelin/contracts/metatx/ERC2771Context.sol\":1908:1912  bool */\n      0x00\n        /* \"@openzeppelin/contracts/metatx/ERC2771Context.sol\":1944:1962  trustedForwarder() */\n      tag_114\n        /* \"@openzeppelin/contracts/metatx/ERC2771Context.sol\":1944:1960  trustedForwarder */\n      tag_61\n        /* \"@openzeppelin/contracts/metatx/ERC2771Context.sol\":1944:1962  trustedForwarder() */\n      jump\t// in\n    tag_114:\n        /* \"@openzeppelin/contracts/metatx/ERC2771Context.sol\":1931:1962  forwarder == trustedForwarder() */\n      0xffffffffffffffffffffffffffffffffffffffff\n      and\n        /* \"@openzeppelin/contracts/metatx/ERC2771Context.sol\":1931:1940  forwarder */\n      dup3\n        /* \"@openzeppelin/contracts/metatx/ERC2771Context.sol\":1931:1962  forwarder == trustedForwarder() */\n      0xffffffffffffffffffffffffffffffffffffffff\n      and\n      eq\n        /* \"@openzeppelin/contracts/metatx/ERC2771Context.sol\":1924:1962  return forwarder == trustedForwarder() */\n      swap1\n      pop\n        /* \"@openzeppelin/contracts/metatx/ERC2771Context.sol\":1832:1969  function isTrustedForwarder(address forwarder) public view virtual returns (bool) {... */\n      swap2\n      swap1\n      pop\n      jump\t// out\n        /* \"@openzeppelin/contracts/security/Pausable.sol\":1615:1699  function paused() public view virtual returns (bool) {... */\n    tag_47:\n        /* \"@openzeppelin/contracts/security/Pausable.sol\":1662:1666  bool */\n      0x00\n        /* \"@openzeppelin/contracts/security/Pausable.sol\":1685:1692  _paused */\n      dup1\n      0x14\n      swap1\n      sload\n      swap1\n      0x0100\n      exp\n      swap1\n      div\n      0xff\n      and\n        /* \"@openzeppelin/contracts/security/Pausable.sol\":1678:1692  return _paused */\n      swap1\n      pop\n        /* \"@openzeppelin/contracts/security/Pausable.sol\":1615:1699  function paused() public view virtual returns (bool) {... */\n      swap1\n      jump\t// out\n        /* \"Proofication/DocumentAudit1.sol\":5040:5183  function isDocumentRegistered(bytes32 documentHash) public view returns (bool) {... */\n    tag_52:\n        /* \"Proofication/DocumentAudit1.sol\":5113:5117  bool */\n      0x00\n        /* \"Proofication/DocumentAudit1.sol\":5174:5175  0 */\n      dup1\n        /* \"Proofication/DocumentAudit1.sol\":5137:5146  documents */\n      0x01\n        /* \"Proofication/DocumentAudit1.sol\":5137:5160  documents[documentHash] */\n      0x00\n        /* \"Proofication/DocumentAudit1.sol\":5147:5159  documentHash */\n      dup5\n        /* \"Proofication/DocumentAudit1.sol\":5137:5160  documents[documentHash] */\n      dup2\n      mstore\n      0x20\n      add\n      swap1\n      dup2\n      mstore\n      0x20\n      add\n      0x00\n      keccak256\n        /* \"Proofication/DocumentAudit1.sol\":5137:5170  documents[documentHash].timestamp */\n      0x01\n      add\n      sload\n        /* \"Proofication/DocumentAudit1.sol\":5137:5175  documents[documentHash].timestamp != 0 */\n      eq\n      iszero\n        /* \"Proofication/DocumentAudit1.sol\":5130:5175  return documents[documentHash].timestamp != 0 */\n      swap1\n      pop\n        /* \"Proofication/DocumentAudit1.sol\":5040:5183  function isDocumentRegistered(bytes32 documentHash) public view returns (bool) {... */\n      swap2\n      swap1\n      pop\n      jump\t// out\n        /* \"Proofication/DocumentAudit1.sol\":1355:1524  function setGaslessPreference(bool enabled) external {... */\n    tag_57:\n        /* \"Proofication/DocumentAudit1.sol\":1448:1455  enabled */\n      dup1\n        /* \"Proofication/DocumentAudit1.sol\":1419:1433  gaslessEnabled */\n      0x02\n        /* \"Proofication/DocumentAudit1.sol\":1419:1445  gaslessEnabled[msg.sender] */\n      0x00\n        /* \"Proofication/DocumentAudit1.sol\":1434:1444  msg.sender */\n      caller\n        /* \"Proofication/DocumentAudit1.sol\":1419:1445  gaslessEnabled[msg.sender] */\n      0xffffffffffffffffffffffffffffffffffffffff\n      and\n      0xffffffffffffffffffffffffffffffffffffffff\n      and\n      dup2\n      mstore\n      0x20\n      add\n      swap1\n      dup2\n      mstore\n      0x20\n      add\n      0x00\n      keccak256\n      0x00\n        /* \"Proofication/DocumentAudit1.sol\":1419:1455  gaslessEnabled[msg.sender] = enabled */\n      0x0100\n      exp\n      dup2\n      sload\n      dup2\n      0xff\n      mul\n      not\n      and\n      swap1\n      dup4\n      iszero\n      iszero\n      mul\n      or\n      swap1\n      sstore\n      pop\n        /* \"Proofication/DocumentAudit1.sol\":1496:1506  msg.sender */\n      caller\n        /* \"Proofication/DocumentAudit1.sol\":1471:1516  GaslessPreferenceUpdated(msg.sender, enabled) */\n      0xffffffffffffffffffffffffffffffffffffffff\n      and\n      0x696b9bad72c623f4143a9a1658343950dc7558beb6c2ded9c5c9ff7fece328c0\n        /* \"Proofication/DocumentAudit1.sol\":1508:1515  enabled */\n      dup3\n        /* \"Proofication/DocumentAudit1.sol\":1471:1516  GaslessPreferenceUpdated(msg.sender, enabled) */\n      mload(0x40)\n      tag_118\n      swap2\n      swap1\n      tag_31\n      jump\t// in\n    tag_118:\n      mload(0x40)\n      dup1\n      swap2\n      sub\n      swap1\n      log2\n        /* \"Proofication/DocumentAudit1.sol\":1355:1524  function setGaslessPreference(bool enabled) external {... */\n      pop\n      jump\t// out\n        /* \"@openzeppelin/contracts/access/Ownable.sol\":2293:2394  function renounceOwnership() public virtual onlyOwner {... */\n    tag_59:\n        /* \"@openzeppelin/contracts/access/Ownable.sol\":1531:1544  _checkOwner() */\n      tag_120\n        /* \"@openzeppelin/contracts/access/Ownable.sol\":1531:1542  _checkOwner */\n      tag_104\n        /* \"@openzeppelin/contracts/access/Ownable.sol\":1531:1544  _checkOwner() */\n      jump\t// in\n    tag_120:\n        /* \"@openzeppelin/contracts/access/Ownable.sol\":2357:2387  _transferOwnership(address(0)) */\n      tag_122\n        /* \"@openzeppelin/contracts/access/Ownable.sol\":2384:2385  0 */\n      0x00\n        /* \"@openzeppelin/contracts/access/Ownable.sol\":2357:2375  _transferOwnership */\n      tag_123\n        /* \"@openzeppelin/contracts/access/Ownable.sol\":2357:2387  _transferOwnership(address(0)) */\n      jump\t// in\n    tag_122:\n        /* \"@openzeppelin/contracts/access/Ownable.sol\":2293:2394  function renounceOwnership() public virtual onlyOwner {... */\n      jump\t// out\n        /* \"@openzeppelin/contracts/metatx/ERC2771Context.sol\":1624:1731  function trustedForwarder() public view virtual returns (address) {... */\n    tag_61:\n        /* \"@openzeppelin/contracts/metatx/ERC2771Context.sol\":1681:1688  address */\n      0x00\n        /* \"@openzeppelin/contracts/metatx/ERC2771Context.sol\":1707:1724  _trustedForwarder */\n      immutable(\"0x0330c0d84464f890f3c81afbba7a3a05e0e864ec2e31676dedcb075b2bf855a0\")\n        /* \"@openzeppelin/contracts/metatx/ERC2771Context.sol\":1700:1724  return _trustedForwarder */\n      swap1\n      pop\n        /* \"@openzeppelin/contracts/metatx/ERC2771Context.sol\":1624:1731  function trustedForwarder() public view virtual returns (address) {... */\n      swap1\n      jump\t// out\n        /* \"@openzeppelin/contracts/access/Ownable.sol\":1638:1723  function owner() public view virtual returns (address) {... */\n    tag_65:\n        /* \"@openzeppelin/contracts/access/Ownable.sol\":1684:1691  address */\n      0x00\n        /* \"@openzeppelin/contracts/access/Ownable.sol\":1710:1716  _owner */\n      dup1\n      0x00\n      swap1\n      sload\n      swap1\n      0x0100\n      exp\n      swap1\n      div\n      0xffffffffffffffffffffffffffffffffffffffff\n      and\n        /* \"@openzeppelin/contracts/access/Ownable.sol\":1703:1716  return _owner */\n      swap1\n      pop\n        /* \"@openzeppelin/contracts/access/Ownable.sol\":1638:1723  function owner() public view virtual returns (address) {... */\n      swap1\n      jump\t// out\n        /* \"Proofication/DocumentAudit1.sol\":3529:4181  function getDocumentDetails(bytes32 documentHash)... */\n    tag_69:\n        /* \"Proofication/DocumentAudit1.sol\":3623:3636  address owner */\n      0x00\n        /* \"Proofication/DocumentAudit1.sol\":3651:3668  uint256 timestamp */\n      dup1\n        /* \"Proofication/DocumentAudit1.sol\":3683:3711  string memory registrantName */\n      0x60\n        /* \"Proofication/DocumentAudit1.sol\":3726:3752  string memory organization */\n      dup1\n        /* \"Proofication/DocumentAudit1.sol\":3767:3791  string memory identifier */\n      0x60\n        /* \"Proofication/DocumentAudit1.sol\":3806:3820  bool isGasless */\n      0x00\n        /* \"Proofication/DocumentAudit1.sol\":3856:3890  isDocumentRegistered(documentHash) */\n      tag_127\n        /* \"Proofication/DocumentAudit1.sol\":3877:3889  documentHash */\n      dup8\n        /* \"Proofication/DocumentAudit1.sol\":3856:3876  isDocumentRegistered */\n      tag_52\n        /* \"Proofication/DocumentAudit1.sol\":3856:3890  isDocumentRegistered(documentHash) */\n      jump\t// in\n    tag_127:\n        /* \"Proofication/DocumentAudit1.sol\":3848:3914  require(isDocumentRegistered(documentHash), \"Document not found.\") */\n      tag_128\n      jumpi\n      mload(0x40)\n      0x08c379a000000000000000000000000000000000000000000000000000000000\n      dup2\n      mstore\n      0x04\n      add\n      tag_129\n      swap1\n      tag_130\n      jump\t// in\n    tag_129:\n      mload(0x40)\n      dup1\n      swap2\n      sub\n      swap1\n      revert\n    tag_128:\n        /* \"Proofication/DocumentAudit1.sol\":3925:3945  Document storage doc */\n      0x00\n        /* \"Proofication/DocumentAudit1.sol\":3948:3957  documents */\n      0x01\n        /* \"Proofication/DocumentAudit1.sol\":3948:3971  documents[documentHash] */\n      0x00\n        /* \"Proofication/DocumentAudit1.sol\":3958:3970  documentHash */\n      dup10\n        /* \"Proofication/DocumentAudit1.sol\":3948:3971  documents[documentHash] */\n      dup2\n      mstore\n      0x20\n      add\n      swap1\n      dup2\n      mstore\n      0x20\n      add\n      0x00\n      keccak256\n        /* \"Proofication/DocumentAudit1.sol\":3925:3971  Document storage doc = documents[documentHash] */\n      swap1\n      pop\n        /* \"Proofication/DocumentAudit1.sol\":4004:4007  doc */\n      dup1\n        /* \"Proofication/DocumentAudit1.sol\":4004:4013  doc.owner */\n      0x00\n      add\n      0x00\n      swap1\n      sload\n      swap1\n      0x0100\n      exp\n      swap1\n      div\n      0xffffffffffffffffffffffffffffffffffffffff\n      and\n        /* \"Proofication/DocumentAudit1.sol\":4028:4031  doc */\n      dup2\n        /* \"Proofication/DocumentAudit1.sol\":4028:4041  doc.timestamp */\n      0x01\n      add\n      sload\n        /* \"Proofication/DocumentAudit1.sol\":4056:4059  doc */\n      dup3\n        /* \"Proofication/DocumentAudit1.sol\":4056:4074  doc.registrantName */\n      0x02\n      add\n        /* \"Proofication/DocumentAudit1.sol\":4089:4092  doc */\n      dup4\n        /* \"Proofication/DocumentAudit1.sol\":4089:4105  doc.organization */\n      0x03\n      add\n        /* \"Proofication/DocumentAudit1.sol\":4120:4123  doc */\n      dup5\n        /* \"Proofication/DocumentAudit1.sol\":4120:4134  doc.identifier */\n      0x04\n      add\n        /* \"Proofication/DocumentAudit1.sol\":4149:4152  doc */\n      dup6\n        /* \"Proofication/DocumentAudit1.sol\":4149:4162  doc.isGasless */\n      0x05\n      add\n      0x00\n      swap1\n      sload\n      swap1\n      0x0100\n      exp\n      swap1\n      div\n      0xff\n      and\n        /* \"Proofication/DocumentAudit1.sol\":3982:4173  return (... */\n      dup4\n      dup1\n      sload\n      tag_131\n      swap1\n      tag_132\n      jump\t// in\n    tag_131:\n      dup1\n      0x1f\n      add\n      0x20\n      dup1\n      swap2\n      div\n      mul\n      0x20\n      add\n      mload(0x40)\n      swap1\n      dup2\n      add\n      0x40\n      mstore\n      dup1\n      swap3\n      swap2\n      swap1\n      dup2\n      dup2\n      mstore\n      0x20\n      add\n      dup3\n      dup1\n      sload\n      tag_133\n      swap1\n      tag_132\n      jump\t// in\n    tag_133:\n      dup1\n      iszero\n      tag_134\n      jumpi\n      dup1\n      0x1f\n      lt\n      tag_135\n      jumpi\n      0x0100\n      dup1\n      dup4\n      sload\n      div\n      mul\n      dup4\n      mstore\n      swap2\n      0x20\n      add\n      swap2\n      jump(tag_134)\n    tag_135:\n      dup3\n      add\n      swap2\n      swap1\n      0x00\n      mstore\n      keccak256(0x00, 0x20)\n      swap1\n    tag_136:\n      dup2\n      sload\n      dup2\n      mstore\n      swap1\n      0x01\n      add\n      swap1\n      0x20\n      add\n      dup1\n      dup4\n      gt\n      tag_136\n      jumpi\n      dup3\n      swap1\n      sub\n      0x1f\n      and\n      dup3\n      add\n      swap2\n    tag_134:\n      pop\n      pop\n      pop\n      pop\n      pop\n      swap4\n      pop\n      dup3\n      dup1\n      sload\n      tag_137\n      swap1\n      tag_132\n      jump\t// in\n    tag_137:\n      dup1\n      0x1f\n      add\n      0x20\n      dup1\n      swap2\n      div\n      mul\n      0x20\n      add\n      mload(0x40)\n      swap1\n      dup2\n      add\n      0x40\n      mstore\n      dup1\n      swap3\n      swap2\n      swap1\n      dup2\n      dup2\n      mstore\n      0x20\n      add\n      dup3\n      dup1\n      sload\n      tag_138\n      swap1\n      tag_132\n      jump\t// in\n    tag_138:\n      dup1\n      iszero\n      tag_139\n      jumpi\n      dup1\n      0x1f\n      lt\n      tag_140\n      jumpi\n      0x0100\n      dup1\n      dup4\n      sload\n      div\n      mul\n      dup4\n      mstore\n      swap2\n      0x20\n      add\n      swap2\n      jump(tag_139)\n    tag_140:\n      dup3\n      add\n      swap2\n      swap1\n      0x00\n      mstore\n      keccak256(0x00, 0x20)\n      swap1\n    tag_141:\n      dup2\n      sload\n      dup2\n      mstore\n      swap1\n      0x01\n      add\n      swap1\n      0x20\n      add\n      dup1\n      dup4\n      gt\n      tag_141\n      jumpi\n      dup3\n      swap1\n      sub\n      0x1f\n      and\n      dup3\n      add\n      swap2\n    tag_139:\n      pop\n      pop\n      pop\n      pop\n      pop\n      swap3\n      pop\n      dup2\n      dup1\n      sload\n      tag_142\n      swap1\n      tag_132\n      jump\t// in\n    tag_142:\n      dup1\n      0x1f\n      add\n      0x20\n      dup1\n      swap2\n      div\n      mul\n      0x20\n      add\n      mload(0x40)\n      swap1\n      dup2\n      add\n      0x40\n      mstore\n      dup1\n      swap3\n      swap2\n      swap1\n      dup2\n      dup2\n      mstore\n      0x20\n      add\n      dup3\n      dup1\n      sload\n      tag_143\n      swap1\n      tag_132\n      jump\t// in\n    tag_143:\n      dup1\n      iszero\n      tag_144\n      jumpi\n      dup1\n      0x1f\n      lt\n      tag_145\n      jumpi\n      0x0100\n      dup1\n      dup4\n      sload\n      div\n      mul\n      dup4\n      mstore\n      swap2\n      0x20\n      add\n      swap2\n      jump(tag_144)\n    tag_145:\n      dup3\n      add\n      swap2\n      swap1\n      0x00\n      mstore\n      keccak256(0x00, 0x20)\n      swap1\n    tag_146:\n      dup2\n      sload\n      dup2\n      mstore\n      swap1\n      0x01\n      add\n      swap1\n      0x20\n      add\n      dup1\n      dup4\n      gt\n      tag_146\n      jumpi\n      dup3\n      swap1\n      sub\n      0x1f\n      and\n      dup3\n      add\n      swap2\n    tag_144:\n      pop\n      pop\n      pop\n      pop\n      pop\n      swap2\n      pop\n      swap7\n      pop\n      swap7\n      pop\n      swap7\n      pop\n      swap7\n      pop\n      swap7\n      pop\n      swap7\n      pop\n      pop\n        /* \"Proofication/DocumentAudit1.sol\":3529:4181  function getDocumentDetails(bytes32 documentHash)... */\n      swap2\n      swap4\n      swap6\n      pop\n      swap2\n      swap4\n      swap6\n      jump\t// out\n        /* \"Proofication/DocumentAudit1.sol\":5550:5768  function getDocumentTimestamp(bytes32 documentHash) public view returns (uint256) {... */\n    tag_74:\n        /* \"Proofication/DocumentAudit1.sol\":5623:5630  uint256 */\n      0x00\n        /* \"Proofication/DocumentAudit1.sol\":5651:5685  isDocumentRegistered(documentHash) */\n      tag_148\n        /* \"Proofication/DocumentAudit1.sol\":5672:5684  documentHash */\n      dup3\n        /* \"Proofication/DocumentAudit1.sol\":5651:5671  isDocumentRegistered */\n      tag_52\n        /* \"Proofication/DocumentAudit1.sol\":5651:5685  isDocumentRegistered(documentHash) */\n      jump\t// in\n    tag_148:\n        /* \"Proofication/DocumentAudit1.sol\":5643:5709  require(isDocumentRegistered(documentHash), \"Document not found.\") */\n      tag_149\n      jumpi\n      mload(0x40)\n      0x08c379a000000000000000000000000000000000000000000000000000000000\n      dup2\n      mstore\n      0x04\n      add\n      tag_150\n      swap1\n      tag_130\n      jump\t// in\n    tag_150:\n      mload(0x40)\n      dup1\n      swap2\n      sub\n      swap1\n      revert\n    tag_149:\n        /* \"Proofication/DocumentAudit1.sol\":5727:5736  documents */\n      0x01\n        /* \"Proofication/DocumentAudit1.sol\":5727:5750  documents[documentHash] */\n      0x00\n        /* \"Proofication/DocumentAudit1.sol\":5737:5749  documentHash */\n      dup4\n        /* \"Proofication/DocumentAudit1.sol\":5727:5750  documents[documentHash] */\n      dup2\n      mstore\n      0x20\n      add\n      swap1\n      dup2\n      mstore\n      0x20\n      add\n      0x00\n      keccak256\n        /* \"Proofication/DocumentAudit1.sol\":5727:5760  documents[documentHash].timestamp */\n      0x01\n      add\n      sload\n        /* \"Proofication/DocumentAudit1.sol\":5720:5760  return documents[documentHash].timestamp */\n      swap1\n      pop\n        /* \"Proofication/DocumentAudit1.sol\":5550:5768  function getDocumentTimestamp(bytes32 documentHash) public view returns (uint256) {... */\n      swap2\n      swap1\n      pop\n      jump\t// out\n        /* \"Proofication/DocumentAudit1.sol\":5191:5401  function getDocumentOwner(bytes32 documentHash) public view returns (address) {... */\n    tag_79:\n        /* \"Proofication/DocumentAudit1.sol\":5260:5267  address */\n      0x00\n        /* \"Proofication/DocumentAudit1.sol\":5288:5322  isDocumentRegistered(documentHash) */\n      tag_152\n        /* \"Proofication/DocumentAudit1.sol\":5309:5321  documentHash */\n      dup3\n        /* \"Proofication/DocumentAudit1.sol\":5288:5308  isDocumentRegistered */\n      tag_52\n        /* \"Proofication/DocumentAudit1.sol\":5288:5322  isDocumentRegistered(documentHash) */\n      jump\t// in\n    tag_152:\n        /* \"Proofication/DocumentAudit1.sol\":5280:5346  require(isDocumentRegistered(documentHash), \"Document not found.\") */\n      tag_153\n      jumpi\n      mload(0x40)\n      0x08c379a000000000000000000000000000000000000000000000000000000000\n      dup2\n      mstore\n      0x04\n      add\n      tag_154\n      swap1\n      tag_130\n      jump\t// in\n    tag_154:\n      mload(0x40)\n      dup1\n      swap2\n      sub\n      swap1\n      revert\n    tag_153:\n        /* \"Proofication/DocumentAudit1.sol\":5364:5373  documents */\n      0x01\n        /* \"Proofication/DocumentAudit1.sol\":5364:5387  documents[documentHash] */\n      0x00\n        /* \"Proofication/DocumentAudit1.sol\":5374:5386  documentHash */\n      dup4\n        /* \"Proofication/DocumentAudit1.sol\":5364:5387  documents[documentHash] */\n      dup2\n      mstore\n      0x20\n      add\n      swap1\n      dup2\n      mstore\n      0x20\n      add\n      0x00\n      keccak256\n        /* \"Proofication/DocumentAudit1.sol\":5364:5393  documents[documentHash].owner */\n      0x00\n      add\n      0x00\n      swap1\n      sload\n      swap1\n      0x0100\n      exp\n      swap1\n      div\n      0xffffffffffffffffffffffffffffffffffffffff\n      and\n        /* \"Proofication/DocumentAudit1.sol\":5357:5393  return documents[documentHash].owner */\n      swap1\n      pop\n        /* \"Proofication/DocumentAudit1.sol\":5191:5401  function getDocumentOwner(bytes32 documentHash) public view returns (address) {... */\n      swap2\n      swap1\n      pop\n      jump\t// out\n        /* \"Proofication/DocumentAudit1.sol\":4189:5032  function transferDocumentOwnership(bytes32 documentHash, address newOwner, bool useGasless) public whenNotPaused {... */\n    tag_84:\n        /* \"@openzeppelin/contracts/security/Pausable.sol\":1239:1258  _requireNotPaused() */\n      tag_156\n        /* \"@openzeppelin/contracts/security/Pausable.sol\":1239:1256  _requireNotPaused */\n      tag_110\n        /* \"@openzeppelin/contracts/security/Pausable.sol\":1239:1258  _requireNotPaused() */\n      jump\t// in\n    tag_156:\n        /* \"Proofication/DocumentAudit1.sol\":4321:4355  isDocumentRegistered(documentHash) */\n      tag_158\n        /* \"Proofication/DocumentAudit1.sol\":4342:4354  documentHash */\n      dup4\n        /* \"Proofication/DocumentAudit1.sol\":4321:4341  isDocumentRegistered */\n      tag_52\n        /* \"Proofication/DocumentAudit1.sol\":4321:4355  isDocumentRegistered(documentHash) */\n      jump\t// in\n    tag_158:\n        /* \"Proofication/DocumentAudit1.sol\":4313:4379  require(isDocumentRegistered(documentHash), \"Document not found.\") */\n      tag_159\n      jumpi\n      mload(0x40)\n      0x08c379a000000000000000000000000000000000000000000000000000000000\n      dup2\n      mstore\n      0x04\n      add\n      tag_160\n      swap1\n      tag_130\n      jump\t// in\n    tag_160:\n      mload(0x40)\n      dup1\n      swap2\n      sub\n      swap1\n      revert\n    tag_159:\n        /* \"Proofication/DocumentAudit1.sol\":4394:4404  useGasless */\n      dup1\n        /* \"Proofication/DocumentAudit1.sol\":4390:4758  if (useGasless) {... */\n      iszero\n      tag_161\n      jumpi\n        /* \"Proofication/DocumentAudit1.sol\":4429:4443  gaslessEnabled */\n      0x02\n        /* \"Proofication/DocumentAudit1.sol\":4429:4457  gaslessEnabled[_msgSender()] */\n      0x00\n        /* \"Proofication/DocumentAudit1.sol\":4444:4456  _msgSender() */\n      tag_162\n        /* \"Proofication/DocumentAudit1.sol\":4444:4454  _msgSender */\n      tag_163\n        /* \"Proofication/DocumentAudit1.sol\":4444:4456  _msgSender() */\n      jump\t// in\n    tag_162:\n        /* \"Proofication/DocumentAudit1.sol\":4429:4457  gaslessEnabled[_msgSender()] */\n      0xffffffffffffffffffffffffffffffffffffffff\n      and\n      0xffffffffffffffffffffffffffffffffffffffff\n      and\n      dup2\n      mstore\n      0x20\n      add\n      swap1\n      dup2\n      mstore\n      0x20\n      add\n      0x00\n      keccak256\n      0x00\n      swap1\n      sload\n      swap1\n      0x0100\n      exp\n      swap1\n      div\n      0xff\n      and\n        /* \"Proofication/DocumentAudit1.sol\":4421:4508  require(gaslessEnabled[_msgSender()], \"Gasless transactions not enabled for this user\") */\n      tag_164\n      jumpi\n      mload(0x40)\n      0x08c379a000000000000000000000000000000000000000000000000000000000\n      dup2\n      mstore\n      0x04\n      add\n      tag_165\n      swap1\n      tag_166\n      jump\t// in\n    tag_165:\n      mload(0x40)\n      dup1\n      swap2\n      sub\n      swap1\n      revert\n    tag_164:\n        /* \"Proofication/DocumentAudit1.sol\":4547:4556  documents */\n      0x01\n        /* \"Proofication/DocumentAudit1.sol\":4547:4570  documents[documentHash] */\n      0x00\n        /* \"Proofication/DocumentAudit1.sol\":4557:4569  documentHash */\n      dup5\n        /* \"Proofication/DocumentAudit1.sol\":4547:4570  documents[documentHash] */\n      dup2\n      mstore\n      0x20\n      add\n      swap1\n      dup2\n      mstore\n      0x20\n      add\n      0x00\n      keccak256\n        /* \"Proofication/DocumentAudit1.sol\":4547:4576  documents[documentHash].owner */\n      0x00\n      add\n      0x00\n      swap1\n      sload\n      swap1\n      0x0100\n      exp\n      swap1\n      div\n      0xffffffffffffffffffffffffffffffffffffffff\n      and\n        /* \"Proofication/DocumentAudit1.sol\":4531:4576  _msgSender() == documents[documentHash].owner */\n      0xffffffffffffffffffffffffffffffffffffffff\n      and\n        /* \"Proofication/DocumentAudit1.sol\":4531:4543  _msgSender() */\n      tag_167\n        /* \"Proofication/DocumentAudit1.sol\":4531:4541  _msgSender */\n      tag_163\n        /* \"Proofication/DocumentAudit1.sol\":4531:4543  _msgSender() */\n      jump\t// in\n    tag_167:\n        /* \"Proofication/DocumentAudit1.sol\":4531:4576  _msgSender() == documents[documentHash].owner */\n      0xffffffffffffffffffffffffffffffffffffffff\n      and\n      eq\n        /* \"Proofication/DocumentAudit1.sol\":4523:4619  require(_msgSender() == documents[documentHash].owner, \"Only the owner can transfer ownership.\") */\n      tag_168\n      jumpi\n      mload(0x40)\n      0x08c379a000000000000000000000000000000000000000000000000000000000\n      dup2\n      mstore\n      0x04\n      add\n      tag_169\n      swap1\n      tag_170\n      jump\t// in\n    tag_169:\n      mload(0x40)\n      dup1\n      swap2\n      sub\n      swap1\n      revert\n    tag_168:\n        /* \"Proofication/DocumentAudit1.sol\":4390:4758  if (useGasless) {... */\n      jump(tag_171)\n    tag_161:\n        /* \"Proofication/DocumentAudit1.sol\":4674:4683  documents */\n      0x01\n        /* \"Proofication/DocumentAudit1.sol\":4674:4697  documents[documentHash] */\n      0x00\n        /* \"Proofication/DocumentAudit1.sol\":4684:4696  documentHash */\n      dup5\n        /* \"Proofication/DocumentAudit1.sol\":4674:4697  documents[documentHash] */\n      dup2\n      mstore\n      0x20\n      add\n      swap1\n      dup2\n      mstore\n      0x20\n      add\n      0x00\n      keccak256\n        /* \"Proofication/DocumentAudit1.sol\":4674:4703  documents[documentHash].owner */\n      0x00\n      add\n      0x00\n      swap1\n      sload\n      swap1\n      0x0100\n      exp\n      swap1\n      div\n      0xffffffffffffffffffffffffffffffffffffffff\n      and\n        /* \"Proofication/DocumentAudit1.sol\":4660:4703  msg.sender == documents[documentHash].owner */\n      0xffffffffffffffffffffffffffffffffffffffff\n      and\n        /* \"Proofication/DocumentAudit1.sol\":4660:4670  msg.sender */\n      caller\n        /* \"Proofication/DocumentAudit1.sol\":4660:4703  msg.sender == documents[documentHash].owner */\n      0xffffffffffffffffffffffffffffffffffffffff\n      and\n      eq\n        /* \"Proofication/DocumentAudit1.sol\":4652:4746  require(msg.sender == documents[documentHash].owner, \"Only the owner can transfer ownership.\") */\n      tag_172\n      jumpi\n      mload(0x40)\n      0x08c379a000000000000000000000000000000000000000000000000000000000\n      dup2\n      mstore\n      0x04\n      add\n      tag_173\n      swap1\n      tag_170\n      jump\t// in\n    tag_173:\n      mload(0x40)\n      dup1\n      swap2\n      sub\n      swap1\n      revert\n    tag_172:\n        /* \"Proofication/DocumentAudit1.sol\":4390:4758  if (useGasless) {... */\n    tag_171:\n        /* \"Proofication/DocumentAudit1.sol\":4796:4797  0 */\n      0x00\n        /* \"Proofication/DocumentAudit1.sol\":4776:4798  newOwner != address(0) */\n      0xffffffffffffffffffffffffffffffffffffffff\n      and\n        /* \"Proofication/DocumentAudit1.sol\":4776:4784  newOwner */\n      dup3\n        /* \"Proofication/DocumentAudit1.sol\":4776:4798  newOwner != address(0) */\n      0xffffffffffffffffffffffffffffffffffffffff\n      and\n      sub\n        /* \"Proofication/DocumentAudit1.sol\":4768:4840  require(newOwner != address(0), \"New owner cannot be the zero address.\") */\n      tag_174\n      jumpi\n      mload(0x40)\n      0x08c379a000000000000000000000000000000000000000000000000000000000\n      dup2\n      mstore\n      0x04\n      add\n      tag_175\n      swap1\n      tag_176\n      jump\t// in\n    tag_175:\n      mload(0x40)\n      dup1\n      swap2\n      sub\n      swap1\n      revert\n    tag_174:\n        /* \"Proofication/DocumentAudit1.sol\":4853:4869  address oldOwner */\n      0x00\n        /* \"Proofication/DocumentAudit1.sol\":4872:4881  documents */\n      0x01\n        /* \"Proofication/DocumentAudit1.sol\":4872:4895  documents[documentHash] */\n      0x00\n        /* \"Proofication/DocumentAudit1.sol\":4882:4894  documentHash */\n      dup6\n        /* \"Proofication/DocumentAudit1.sol\":4872:4895  documents[documentHash] */\n      dup2\n      mstore\n      0x20\n      add\n      swap1\n      dup2\n      mstore\n      0x20\n      add\n      0x00\n      keccak256\n        /* \"Proofication/DocumentAudit1.sol\":4872:4901  documents[documentHash].owner */\n      0x00\n      add\n      0x00\n      swap1\n      sload\n      swap1\n      0x0100\n      exp\n      swap1\n      div\n      0xffffffffffffffffffffffffffffffffffffffff\n      and\n        /* \"Proofication/DocumentAudit1.sol\":4853:4901  address oldOwner = documents[documentHash].owner */\n      swap1\n      pop\n        /* \"Proofication/DocumentAudit1.sol\":4944:4952  newOwner */\n      dup3\n        /* \"Proofication/DocumentAudit1.sol\":4912:4921  documents */\n      0x01\n        /* \"Proofication/DocumentAudit1.sol\":4912:4935  documents[documentHash] */\n      0x00\n        /* \"Proofication/DocumentAudit1.sol\":4922:4934  documentHash */\n      dup7\n        /* \"Proofication/DocumentAudit1.sol\":4912:4935  documents[documentHash] */\n      dup2\n      mstore\n      0x20\n      add\n      swap1\n      dup2\n      mstore\n      0x20\n      add\n      0x00\n      keccak256\n        /* \"Proofication/DocumentAudit1.sol\":4912:4941  documents[documentHash].owner */\n      0x00\n      add\n      0x00\n        /* \"Proofication/DocumentAudit1.sol\":4912:4952  documents[documentHash].owner = newOwner */\n      0x0100\n      exp\n      dup2\n      sload\n      dup2\n      0xffffffffffffffffffffffffffffffffffffffff\n      mul\n      not\n      and\n      swap1\n      dup4\n      0xffffffffffffffffffffffffffffffffffffffff\n      and\n      mul\n      or\n      swap1\n      sstore\n      pop\n        /* \"Proofication/DocumentAudit1.sol\":5015:5023  newOwner */\n      dup3\n        /* \"Proofication/DocumentAudit1.sol\":4970:5024  OwnershipTransferred(documentHash, oldOwner, newOwner) */\n      0xffffffffffffffffffffffffffffffffffffffff\n      and\n        /* \"Proofication/DocumentAudit1.sol\":5005:5013  oldOwner */\n      dup2\n        /* \"Proofication/DocumentAudit1.sol\":4970:5024  OwnershipTransferred(documentHash, oldOwner, newOwner) */\n      0xffffffffffffffffffffffffffffffffffffffff\n      and\n        /* \"Proofication/DocumentAudit1.sol\":4991:5003  documentHash */\n      dup6\n        /* \"Proofication/DocumentAudit1.sol\":4970:5024  OwnershipTransferred(documentHash, oldOwner, newOwner) */\n      0x0b659dccc8eb950324170e8d9598af5ee04ee070883eb28651a96788721fbf83\n      mload(0x40)\n      mload(0x40)\n      dup1\n      swap2\n      sub\n      swap1\n      log4\n        /* \"Proofication/DocumentAudit1.sol\":4302:5032  {... */\n      pop\n        /* \"Proofication/DocumentAudit1.sol\":4189:5032  function transferDocumentOwnership(bytes32 documentHash, address newOwner, bool useGasless) public whenNotPaused {... */\n      pop\n      pop\n      pop\n      jump\t// out\n        /* \"Proofication/DocumentAudit1.sol\":5853:5926  function unpauseContract() public onlyOwner {... */\n    tag_86:\n        /* \"@openzeppelin/contracts/access/Ownable.sol\":1531:1544  _checkOwner() */\n      tag_178\n        /* \"@openzeppelin/contracts/access/Ownable.sol\":1531:1542  _checkOwner */\n      tag_104\n        /* \"@openzeppelin/contracts/access/Ownable.sol\":1531:1544  _checkOwner() */\n      jump\t// in\n    tag_178:\n        /* \"Proofication/DocumentAudit1.sol\":5908:5918  _unpause() */\n      tag_180\n        /* \"Proofication/DocumentAudit1.sol\":5908:5916  _unpause */\n      tag_181\n        /* \"Proofication/DocumentAudit1.sol\":5908:5918  _unpause() */\n      jump\t// in\n    tag_180:\n        /* \"Proofication/DocumentAudit1.sol\":5853:5926  function unpauseContract() public onlyOwner {... */\n      jump\t// out\n        /* \"Proofication/DocumentAudit1.sol\":1763:2799  function registerDocument(... */\n    tag_90:\n        /* \"@openzeppelin/contracts/security/Pausable.sol\":1239:1258  _requireNotPaused() */\n      tag_183\n        /* \"@openzeppelin/contracts/security/Pausable.sol\":1239:1256  _requireNotPaused */\n      tag_110\n        /* \"@openzeppelin/contracts/security/Pausable.sol\":1239:1258  _requireNotPaused() */\n      jump\t// in\n    tag_183:\n        /* \"Proofication/DocumentAudit1.sol\":2005:2039  isDocumentRegistered(documentHash) */\n      tag_185\n        /* \"Proofication/DocumentAudit1.sol\":2026:2038  documentHash */\n      dup6\n        /* \"Proofication/DocumentAudit1.sol\":2005:2025  isDocumentRegistered */\n      tag_52\n        /* \"Proofication/DocumentAudit1.sol\":2005:2039  isDocumentRegistered(documentHash) */\n      jump\t// in\n    tag_185:\n        /* \"Proofication/DocumentAudit1.sol\":2004:2039  !isDocumentRegistered(documentHash) */\n      iszero\n        /* \"Proofication/DocumentAudit1.sol\":1996:2072  require(!isDocumentRegistered(documentHash), \"Document already registered.\") */\n      tag_186\n      jumpi\n      mload(0x40)\n      0x08c379a000000000000000000000000000000000000000000000000000000000\n      dup2\n      mstore\n      0x04\n      add\n      tag_187\n      swap1\n      tag_188\n      jump\t// in\n    tag_187:\n      mload(0x40)\n      dup1\n      swap2\n      sub\n      swap1\n      revert\n    tag_186:\n        /* \"Proofication/DocumentAudit1.sol\":2161:2171  useGasless */\n      dup1\n        /* \"Proofication/DocumentAudit1.sol\":2157:2287  if (useGasless) {... */\n      iszero\n      tag_189\n      jumpi\n        /* \"Proofication/DocumentAudit1.sol\":2196:2210  gaslessEnabled */\n      0x02\n        /* \"Proofication/DocumentAudit1.sol\":2196:2224  gaslessEnabled[_msgSender()] */\n      0x00\n        /* \"Proofication/DocumentAudit1.sol\":2211:2223  _msgSender() */\n      tag_190\n        /* \"Proofication/DocumentAudit1.sol\":2211:2221  _msgSender */\n      tag_163\n        /* \"Proofication/DocumentAudit1.sol\":2211:2223  _msgSender() */\n      jump\t// in\n    tag_190:\n        /* \"Proofication/DocumentAudit1.sol\":2196:2224  gaslessEnabled[_msgSender()] */\n      0xffffffffffffffffffffffffffffffffffffffff\n      and\n      0xffffffffffffffffffffffffffffffffffffffff\n      and\n      dup2\n      mstore\n      0x20\n      add\n      swap1\n      dup2\n      mstore\n      0x20\n      add\n      0x00\n      keccak256\n      0x00\n      swap1\n      sload\n      swap1\n      0x0100\n      exp\n      swap1\n      div\n      0xff\n      and\n        /* \"Proofication/DocumentAudit1.sol\":2188:2275  require(gaslessEnabled[_msgSender()], \"Gasless transactions not enabled for this user\") */\n      tag_191\n      jumpi\n      mload(0x40)\n      0x08c379a000000000000000000000000000000000000000000000000000000000\n      dup2\n      mstore\n      0x04\n      add\n      tag_192\n      swap1\n      tag_166\n      jump\t// in\n    tag_192:\n      mload(0x40)\n      dup1\n      swap2\n      sub\n      swap1\n      revert\n    tag_191:\n        /* \"Proofication/DocumentAudit1.sol\":2157:2287  if (useGasless) {... */\n    tag_189:\n        /* \"Proofication/DocumentAudit1.sol\":2325:2580  Document({... */\n      mload(0x40)\n      dup1\n      0xc0\n      add\n      0x40\n      mstore\n      dup1\n        /* \"Proofication/DocumentAudit1.sol\":2356:2368  _msgSender() */\n      tag_193\n        /* \"Proofication/DocumentAudit1.sol\":2356:2366  _msgSender */\n      tag_163\n        /* \"Proofication/DocumentAudit1.sol\":2356:2368  _msgSender() */\n      jump\t// in\n    tag_193:\n        /* \"Proofication/DocumentAudit1.sol\":2325:2580  Document({... */\n      0xffffffffffffffffffffffffffffffffffffffff\n      and\n      dup2\n      mstore\n      0x20\n      add\n        /* \"Proofication/DocumentAudit1.sol\":2394:2409  block.timestamp */\n      timestamp\n        /* \"Proofication/DocumentAudit1.sol\":2325:2580  Document({... */\n      dup2\n      mstore\n      0x20\n      add\n        /* \"Proofication/DocumentAudit1.sol\":2440:2454  registrantName */\n      dup6\n        /* \"Proofication/DocumentAudit1.sol\":2325:2580  Document({... */\n      dup2\n      mstore\n      0x20\n      add\n        /* \"Proofication/DocumentAudit1.sol\":2483:2495  organization */\n      dup5\n        /* \"Proofication/DocumentAudit1.sol\":2325:2580  Document({... */\n      dup2\n      mstore\n      0x20\n      add\n        /* \"Proofication/DocumentAudit1.sol\":2522:2532  identifier */\n      dup4\n        /* \"Proofication/DocumentAudit1.sol\":2325:2580  Document({... */\n      dup2\n      mstore\n      0x20\n      add\n        /* \"Proofication/DocumentAudit1.sol\":2558:2568  useGasless */\n      dup3\n        /* \"Proofication/DocumentAudit1.sol\":2325:2580  Document({... */\n      iszero\n      iszero\n      dup2\n      mstore\n      pop\n        /* \"Proofication/DocumentAudit1.sol\":2299:2308  documents */\n      0x01\n        /* \"Proofication/DocumentAudit1.sol\":2299:2322  documents[documentHash] */\n      0x00\n        /* \"Proofication/DocumentAudit1.sol\":2309:2321  documentHash */\n      dup8\n        /* \"Proofication/DocumentAudit1.sol\":2299:2322  documents[documentHash] */\n      dup2\n      mstore\n      0x20\n      add\n      swap1\n      dup2\n      mstore\n      0x20\n      add\n      0x00\n      keccak256\n        /* \"Proofication/DocumentAudit1.sol\":2299:2580  documents[documentHash] = Document({... */\n      0x00\n      dup3\n      add\n      mload\n      dup2\n      0x00\n      add\n      exp(0x0100, 0x00)\n      dup2\n      sload\n      dup2\n      0xffffffffffffffffffffffffffffffffffffffff\n      mul\n      not\n      and\n      swap1\n      dup4\n      0xffffffffffffffffffffffffffffffffffffffff\n      and\n      mul\n      or\n      swap1\n      sstore\n      pop\n      0x20\n      dup3\n      add\n      mload\n      dup2\n      0x01\n      add\n      sstore\n      0x40\n      dup3\n      add\n      mload\n      dup2\n      0x02\n      add\n      swap1\n      dup2\n      tag_194\n      swap2\n      swap1\n      tag_195\n      jump\t// in\n    tag_194:\n      pop\n      0x60\n      dup3\n      add\n      mload\n      dup2\n      0x03\n      add\n      swap1\n      dup2\n      tag_196\n      swap2\n      swap1\n      tag_195\n      jump\t// in\n    tag_196:\n      pop\n      0x80\n      dup3\n      add\n      mload\n      dup2\n      0x04\n      add\n      swap1\n      dup2\n      tag_197\n      swap2\n      swap1\n      tag_195\n      jump\t// in\n    tag_197:\n      pop\n      0xa0\n      dup3\n      add\n      mload\n      dup2\n      0x05\n      add\n      exp(0x0100, 0x00)\n      dup2\n      sload\n      dup2\n      0xff\n      mul\n      not\n      and\n      swap1\n      dup4\n      iszero\n      iszero\n      mul\n      or\n      swap1\n      sstore\n      pop\n      swap1\n      pop\n      pop\n        /* \"Proofication/DocumentAudit1.sol\":2659:2671  _msgSender() */\n      tag_198\n        /* \"Proofication/DocumentAudit1.sol\":2659:2669  _msgSender */\n      tag_163\n        /* \"Proofication/DocumentAudit1.sol\":2659:2671  _msgSender() */\n      jump\t// in\n    tag_198:\n        /* \"Proofication/DocumentAudit1.sol\":2598:2791  DocumentRegistered(... */\n      0xffffffffffffffffffffffffffffffffffffffff\n      and\n        /* \"Proofication/DocumentAudit1.sol\":2631:2643  documentHash */\n      dup6\n        /* \"Proofication/DocumentAudit1.sol\":2598:2791  DocumentRegistered(... */\n      0xae5ab09589867efdd9d9d1b4259d914151a9730d97b10bf71109e597a65155e6\n        /* \"Proofication/DocumentAudit1.sol\":2687:2701  registrantName */\n      dup7\n        /* \"Proofication/DocumentAudit1.sol\":2717:2729  organization */\n      dup7\n        /* \"Proofication/DocumentAudit1.sol\":2745:2755  identifier */\n      dup7\n        /* \"Proofication/DocumentAudit1.sol\":2770:2780  useGasless */\n      dup7\n        /* \"Proofication/DocumentAudit1.sol\":2598:2791  DocumentRegistered(... */\n      mload(0x40)\n      tag_199\n      swap5\n      swap4\n      swap3\n      swap2\n      swap1\n      tag_200\n      jump\t// in\n    tag_199:\n      mload(0x40)\n      dup1\n      swap2\n      sub\n      swap1\n      log3\n        /* \"Proofication/DocumentAudit1.sol\":1763:2799  function registerDocument(... */\n      pop\n      pop\n      pop\n      pop\n      pop\n      jump\t// out\n        /* \"Proofication/DocumentAudit1.sol\":2868:3169  function registerDocumentWithGas(... */\n    tag_93:\n        /* \"@openzeppelin/contracts/security/Pausable.sol\":1239:1258  _requireNotPaused() */\n      tag_202\n        /* \"@openzeppelin/contracts/security/Pausable.sol\":1239:1256  _requireNotPaused */\n      tag_110\n        /* \"@openzeppelin/contracts/security/Pausable.sol\":1239:1258  _requireNotPaused() */\n      jump\t// in\n    tag_202:\n        /* \"Proofication/DocumentAudit1.sol\":3082:3161  registerDocument(documentHash, registrantName, organization, identifier, false) */\n      tag_204\n        /* \"Proofication/DocumentAudit1.sol\":3099:3111  documentHash */\n      dup5\n        /* \"Proofication/DocumentAudit1.sol\":3113:3127  registrantName */\n      dup5\n        /* \"Proofication/DocumentAudit1.sol\":3129:3141  organization */\n      dup5\n        /* \"Proofication/DocumentAudit1.sol\":3143:3153  identifier */\n      dup5\n        /* \"Proofication/DocumentAudit1.sol\":3155:3160  false */\n      0x00\n        /* \"Proofication/DocumentAudit1.sol\":3082:3098  registerDocument */\n      tag_90\n        /* \"Proofication/DocumentAudit1.sol\":3082:3161  registerDocument(documentHash, registrantName, organization, identifier, false) */\n      jump\t// in\n    tag_204:\n        /* \"Proofication/DocumentAudit1.sol\":2868:3169  function registerDocumentWithGas(... */\n      pop\n      pop\n      pop\n      pop\n      jump\t// out\n        /* \"@openzeppelin/contracts/access/Ownable.sol\":2543:2758  function transferOwnership(address newOwner) public virtual onlyOwner {... */\n    tag_96:\n        /* \"@openzeppelin/contracts/access/Ownable.sol\":1531:1544  _checkOwner() */\n      tag_206\n        /* \"@openzeppelin/contracts/access/Ownable.sol\":1531:1542  _checkOwner */\n      tag_104\n        /* \"@openzeppelin/contracts/access/Ownable.sol\":1531:1544  _checkOwner() */\n      jump\t// in\n    tag_206:\n        /* \"@openzeppelin/contracts/access/Ownable.sol\":2647:2648  0 */\n      0x00\n        /* \"@openzeppelin/contracts/access/Ownable.sol\":2627:2649  newOwner == address(0) */\n      0xffffffffffffffffffffffffffffffffffffffff\n      and\n        /* \"@openzeppelin/contracts/access/Ownable.sol\":2627:2635  newOwner */\n      dup2\n        /* \"@openzeppelin/contracts/access/Ownable.sol\":2627:2649  newOwner == address(0) */\n      0xffffffffffffffffffffffffffffffffffffffff\n      and\n      sub\n        /* \"@openzeppelin/contracts/access/Ownable.sol\":2623:2714  if (newOwner == address(0)) {... */\n      tag_208\n      jumpi\n        /* \"@openzeppelin/contracts/access/Ownable.sol\":2700:2701  0 */\n      0x00\n        /* \"@openzeppelin/contracts/access/Ownable.sol\":2672:2703  OwnableInvalidOwner(address(0)) */\n      mload(0x40)\n      0x1e4fbdf700000000000000000000000000000000000000000000000000000000\n      dup2\n      mstore\n      0x04\n      add\n      tag_209\n      swap2\n      swap1\n      tag_63\n      jump\t// in\n    tag_209:\n      mload(0x40)\n      dup1\n      swap2\n      sub\n      swap1\n      revert\n        /* \"@openzeppelin/contracts/access/Ownable.sol\":2623:2714  if (newOwner == address(0)) {... */\n    tag_208:\n        /* \"@openzeppelin/contracts/access/Ownable.sol\":2723:2751  _transferOwnership(newOwner) */\n      tag_210\n        /* \"@openzeppelin/contracts/access/Ownable.sol\":2742:2750  newOwner */\n      dup2\n        /* \"@openzeppelin/contracts/access/Ownable.sol\":2723:2741  _transferOwnership */\n      tag_123\n        /* \"@openzeppelin/contracts/access/Ownable.sol\":2723:2751  _transferOwnership(newOwner) */\n      jump\t// in\n    tag_210:\n        /* \"@openzeppelin/contracts/access/Ownable.sol\":2543:2758  function transferOwnership(address newOwner) public virtual onlyOwner {... */\n      pop\n      jump\t// out\n        /* \"Proofication/DocumentAudit1.sol\":5409:5542  function verifyDocument(bytes32 documentHash) public view returns (bool) {... */\n    tag_99:\n        /* \"Proofication/DocumentAudit1.sol\":5476:5480  bool */\n      0x00\n        /* \"Proofication/DocumentAudit1.sol\":5500:5534  isDocumentRegistered(documentHash) */\n      tag_212\n        /* \"Proofication/DocumentAudit1.sol\":5521:5533  documentHash */\n      dup3\n        /* \"Proofication/DocumentAudit1.sol\":5500:5520  isDocumentRegistered */\n      tag_52\n        /* \"Proofication/DocumentAudit1.sol\":5500:5534  isDocumentRegistered(documentHash) */\n      jump\t// in\n    tag_212:\n        /* \"Proofication/DocumentAudit1.sol\":5493:5534  return isDocumentRegistered(documentHash) */\n      swap1\n      pop\n        /* \"Proofication/DocumentAudit1.sol\":5409:5542  function verifyDocument(bytes32 documentHash) public view returns (bool) {... */\n      swap2\n      swap1\n      pop\n      jump\t// out\n        /* \"@openzeppelin/contracts/access/Ownable.sol\":1796:1958  function _checkOwner() internal view virtual {... */\n    tag_104:\n        /* \"@openzeppelin/contracts/access/Ownable.sol\":1866:1878  _msgSender() */\n      tag_214\n        /* \"@openzeppelin/contracts/access/Ownable.sol\":1866:1876  _msgSender */\n      tag_163\n        /* \"@openzeppelin/contracts/access/Ownable.sol\":1866:1878  _msgSender() */\n      jump\t// in\n    tag_214:\n        /* \"@openzeppelin/contracts/access/Ownable.sol\":1855:1878  owner() != _msgSender() */\n      0xffffffffffffffffffffffffffffffffffffffff\n      and\n        /* \"@openzeppelin/contracts/access/Ownable.sol\":1855:1862  owner() */\n      tag_215\n        /* \"@openzeppelin/contracts/access/Ownable.sol\":1855:1860  owner */\n      tag_65\n        /* \"@openzeppelin/contracts/access/Ownable.sol\":1855:1862  owner() */\n      jump\t// in\n    tag_215:\n        /* \"@openzeppelin/contracts/access/Ownable.sol\":1855:1878  owner() != _msgSender() */\n      0xffffffffffffffffffffffffffffffffffffffff\n      and\n      eq\n        /* \"@openzeppelin/contracts/access/Ownable.sol\":1851:1952  if (owner() != _msgSender()) {... */\n      tag_216\n      jumpi\n        /* \"@openzeppelin/contracts/access/Ownable.sol\":1928:1940  _msgSender() */\n      tag_217\n        /* \"@openzeppelin/contracts/access/Ownable.sol\":1928:1938  _msgSender */\n      tag_163\n        /* \"@openzeppelin/contracts/access/Ownable.sol\":1928:1940  _msgSender() */\n      jump\t// in\n    tag_217:\n        /* \"@openzeppelin/contracts/access/Ownable.sol\":1901:1941  OwnableUnauthorizedAccount(_msgSender()) */\n      mload(0x40)\n      0x118cdaa700000000000000000000000000000000000000000000000000000000\n      dup2\n      mstore\n      0x04\n      add\n      tag_218\n      swap2\n      swap1\n      tag_63\n      jump\t// in\n    tag_218:\n      mload(0x40)\n      dup1\n      swap2\n      sub\n      swap1\n      revert\n        /* \"@openzeppelin/contracts/access/Ownable.sol\":1851:1952  if (owner() != _msgSender()) {... */\n    tag_216:\n        /* \"@openzeppelin/contracts/access/Ownable.sol\":1796:1958  function _checkOwner() internal view virtual {... */\n      jump\t// out\n        /* \"@openzeppelin/contracts/security/Pausable.sol\":2186:2301  function _pause() internal virtual whenNotPaused {... */\n    tag_107:\n        /* \"@openzeppelin/contracts/security/Pausable.sol\":1239:1258  _requireNotPaused() */\n      tag_220\n        /* \"@openzeppelin/contracts/security/Pausable.sol\":1239:1256  _requireNotPaused */\n      tag_110\n        /* \"@openzeppelin/contracts/security/Pausable.sol\":1239:1258  _requireNotPaused() */\n      jump\t// in\n    tag_220:\n        /* \"@openzeppelin/contracts/security/Pausable.sol\":2255:2259  true */\n      0x01\n        /* \"@openzeppelin/contracts/security/Pausable.sol\":2245:2252  _paused */\n      0x00\n      0x14\n        /* \"@openzeppelin/contracts/security/Pausable.sol\":2245:2259  _paused = true */\n      0x0100\n      exp\n      dup2\n      sload\n      dup2\n      0xff\n      mul\n      not\n      and\n      swap1\n      dup4\n      iszero\n      iszero\n      mul\n      or\n      swap1\n      sstore\n      pop\n        /* \"@openzeppelin/contracts/security/Pausable.sol\":2274:2294  Paused(_msgSender()) */\n      0x62e78cea01bee320cd4e420270b5ea74000d11b0c9f74754ebdbfc544b05a258\n        /* \"@openzeppelin/contracts/security/Pausable.sol\":2281:2293  _msgSender() */\n      tag_222\n        /* \"@openzeppelin/contracts/security/Pausable.sol\":2281:2291  _msgSender */\n      tag_163\n        /* \"@openzeppelin/contracts/security/Pausable.sol\":2281:2293  _msgSender() */\n      jump\t// in\n    tag_222:\n        /* \"@openzeppelin/contracts/security/Pausable.sol\":2274:2294  Paused(_msgSender()) */\n      mload(0x40)\n      tag_223\n      swap2\n      swap1\n      tag_63\n      jump\t// in\n    tag_223:\n      mload(0x40)\n      dup1\n      swap2\n      sub\n      swap1\n      log1\n        /* \"@openzeppelin/contracts/security/Pausable.sol\":2186:2301  function _pause() internal virtual whenNotPaused {... */\n      jump\t// out\n        /* \"@openzeppelin/contracts/security/Pausable.sol\":1767:1873  function _requireNotPaused() internal view virtual {... */\n    tag_110:\n        /* \"@openzeppelin/contracts/security/Pausable.sol\":1837:1845  paused() */\n      tag_225\n        /* \"@openzeppelin/contracts/security/Pausable.sol\":1837:1843  paused */\n      tag_47\n        /* \"@openzeppelin/contracts/security/Pausable.sol\":1837:1845  paused() */\n      jump\t// in\n    tag_225:\n        /* \"@openzeppelin/contracts/security/Pausable.sol\":1836:1845  !paused() */\n      iszero\n        /* \"@openzeppelin/contracts/security/Pausable.sol\":1828:1866  require(!paused(), \"Pausable: paused\") */\n      tag_226\n      jumpi\n      mload(0x40)\n      0x08c379a000000000000000000000000000000000000000000000000000000000\n      dup2\n      mstore\n      0x04\n      add\n      tag_227\n      swap1\n      tag_228\n      jump\t// in\n    tag_227:\n      mload(0x40)\n      dup1\n      swap2\n      sub\n      swap1\n      revert\n    tag_226:\n        /* \"@openzeppelin/contracts/security/Pausable.sol\":1767:1873  function _requireNotPaused() internal view virtual {... */\n      jump\t// out\n        /* \"@openzeppelin/contracts/access/Ownable.sol\":2912:3099  function _transferOwnership(address newOwner) internal virtual {... */\n    tag_123:\n        /* \"@openzeppelin/contracts/access/Ownable.sol\":2985:3001  address oldOwner */\n      0x00\n        /* \"@openzeppelin/contracts/access/Ownable.sol\":3004:3010  _owner */\n      dup1\n      0x00\n      swap1\n      sload\n      swap1\n      0x0100\n      exp\n      swap1\n      div\n      0xffffffffffffffffffffffffffffffffffffffff\n      and\n        /* \"@openzeppelin/contracts/access/Ownable.sol\":2985:3010  address oldOwner = _owner */\n      swap1\n      pop\n        /* \"@openzeppelin/contracts/access/Ownable.sol\":3029:3037  newOwner */\n      dup2\n        /* \"@openzeppelin/contracts/access/Ownable.sol\":3020:3026  _owner */\n      0x00\n      dup1\n        /* \"@openzeppelin/contracts/access/Ownable.sol\":3020:3037  _owner = newOwner */\n      0x0100\n      exp\n      dup2\n      sload\n      dup2\n      0xffffffffffffffffffffffffffffffffffffffff\n      mul\n      not\n      and\n      swap1\n      dup4\n      0xffffffffffffffffffffffffffffffffffffffff\n      and\n      mul\n      or\n      swap1\n      sstore\n      pop\n        /* \"@openzeppelin/contracts/access/Ownable.sol\":3083:3091  newOwner */\n      dup2\n        /* \"@openzeppelin/contracts/access/Ownable.sol\":3052:3092  OwnershipTransferred(oldOwner, newOwner) */\n      0xffffffffffffffffffffffffffffffffffffffff\n      and\n        /* \"@openzeppelin/contracts/access/Ownable.sol\":3073:3081  oldOwner */\n      dup2\n        /* \"@openzeppelin/contracts/access/Ownable.sol\":3052:3092  OwnershipTransferred(oldOwner, newOwner) */\n      0xffffffffffffffffffffffffffffffffffffffff\n      and\n      0x8be0079c531659141344cd1fd0a4f28419497f9722a3daafe3b4186f6b6457e0\n      mload(0x40)\n      mload(0x40)\n      dup1\n      swap2\n      sub\n      swap1\n      log3\n        /* \"@openzeppelin/contracts/access/Ownable.sol\":2975:3099  {... */\n      pop\n        /* \"@openzeppelin/contracts/access/Ownable.sol\":2912:3099  function _transferOwnership(address newOwner) internal virtual {... */\n      pop\n      jump\t// out\n        /* \"Proofication/DocumentAudit1.sol\":5980:6130  function _msgSender() internal view override(Context, ERC2771Context)... */\n    tag_163:\n        /* \"Proofication/DocumentAudit1.sol\":6068:6075  address */\n      0x00\n        /* \"Proofication/DocumentAudit1.sol\":6095:6122  ERC2771Context._msgSender() */\n      tag_231\n        /* \"Proofication/DocumentAudit1.sol\":6095:6120  ERC2771Context._msgSender */\n      tag_232\n        /* \"Proofication/DocumentAudit1.sol\":6095:6122  ERC2771Context._msgSender() */\n      jump\t// in\n    tag_231:\n        /* \"Proofication/DocumentAudit1.sol\":6088:6122  return ERC2771Context._msgSender() */\n      swap1\n      pop\n        /* \"Proofication/DocumentAudit1.sol\":5980:6130  function _msgSender() internal view override(Context, ERC2771Context)... */\n      swap1\n      jump\t// out\n        /* \"@openzeppelin/contracts/security/Pausable.sol\":2433:2550  function _unpause() internal virtual whenPaused {... */\n    tag_181:\n        /* \"@openzeppelin/contracts/security/Pausable.sol\":1486:1502  _requirePaused() */\n      tag_234\n        /* \"@openzeppelin/contracts/security/Pausable.sol\":1486:1500  _requirePaused */\n      tag_235\n        /* \"@openzeppelin/contracts/security/Pausable.sol\":1486:1502  _requirePaused() */\n      jump\t// in\n    tag_234:\n        /* \"@openzeppelin/contracts/security/Pausable.sol\":2501:2506  false */\n      0x00\n        /* \"@openzeppelin/contracts/security/Pausable.sol\":2491:2498  _paused */\n      dup1\n      0x14\n        /* \"@openzeppelin/contracts/security/Pausable.sol\":2491:2506  _paused = false */\n      0x0100\n      exp\n      dup2\n      sload\n      dup2\n      0xff\n      mul\n      not\n      and\n      swap1\n      dup4\n      iszero\n      iszero\n      mul\n      or\n      swap1\n      sstore\n      pop\n        /* \"@openzeppelin/contracts/security/Pausable.sol\":2521:2543  Unpaused(_msgSender()) */\n      0x5db9ee0a495bf2e6ff9c91a7834c1ba4fdd244a5e8aa4e537bd38aeae4b073aa\n        /* \"@openzeppelin/contracts/security/Pausable.sol\":2530:2542  _msgSender() */\n      tag_237\n        /* \"@openzeppelin/contracts/security/Pausable.sol\":2530:2540  _msgSender */\n      tag_163\n        /* \"@openzeppelin/contracts/security/Pausable.sol\":2530:2542  _msgSender() */\n      jump\t// in\n    tag_237:\n        /* \"@openzeppelin/contracts/security/Pausable.sol\":2521:2543  Unpaused(_msgSender()) */\n      mload(0x40)\n      tag_238\n      swap2\n      swap1\n      tag_63\n      jump\t// in\n    tag_238:\n      mload(0x40)\n      dup1\n      swap2\n      sub\n      swap1\n      log1\n        /* \"@openzeppelin/contracts/security/Pausable.sol\":2433:2550  function _unpause() internal virtual whenPaused {... */\n      jump\t// out\n        /* \"@openzeppelin/contracts/metatx/ERC2771Context.sol\":2206:2635  function _msgSender() internal view virtual override returns (address) {... */\n    tag_232:\n        /* \"@openzeppelin/contracts/metatx/ERC2771Context.sol\":2268:2275  address */\n      0x00\n        /* \"@openzeppelin/contracts/metatx/ERC2771Context.sol\":2287:2309  uint256 calldataLength */\n      dup1\n        /* \"@openzeppelin/contracts/metatx/ERC2771Context.sol\":2312:2320  msg.data */\n      0x00\n      calldatasize\n        /* \"@openzeppelin/contracts/metatx/ERC2771Context.sol\":2312:2327  msg.data.length */\n      swap1\n      pop\n        /* \"@openzeppelin/contracts/metatx/ERC2771Context.sol\":2287:2327  uint256 calldataLength = msg.data.length */\n      swap1\n      pop\n        /* \"@openzeppelin/contracts/metatx/ERC2771Context.sol\":2337:2364  uint256 contextSuffixLength */\n      0x00\n        /* \"@openzeppelin/contracts/metatx/ERC2771Context.sol\":2367:2389  _contextSuffixLength() */\n      tag_240\n        /* \"@openzeppelin/contracts/metatx/ERC2771Context.sol\":2367:2387  _contextSuffixLength */\n      tag_241\n        /* \"@openzeppelin/contracts/metatx/ERC2771Context.sol\":2367:2389  _contextSuffixLength() */\n      jump\t// in\n    tag_240:\n        /* \"@openzeppelin/contracts/metatx/ERC2771Context.sol\":2337:2389  uint256 contextSuffixLength = _contextSuffixLength() */\n      swap1\n      pop\n        /* \"@openzeppelin/contracts/metatx/ERC2771Context.sol\":2403:2433  isTrustedForwarder(msg.sender) */\n      tag_242\n        /* \"@openzeppelin/contracts/metatx/ERC2771Context.sol\":2422:2432  msg.sender */\n      caller\n        /* \"@openzeppelin/contracts/metatx/ERC2771Context.sol\":2403:2421  isTrustedForwarder */\n      tag_44\n        /* \"@openzeppelin/contracts/metatx/ERC2771Context.sol\":2403:2433  isTrustedForwarder(msg.sender) */\n      jump\t// in\n    tag_242:\n        /* \"@openzeppelin/contracts/metatx/ERC2771Context.sol\":2403:2474  isTrustedForwarder(msg.sender) && calldataLength >= contextSuffixLength */\n      dup1\n      iszero\n      tag_243\n      jumpi\n      pop\n        /* \"@openzeppelin/contracts/metatx/ERC2771Context.sol\":2455:2474  contextSuffixLength */\n      dup1\n        /* \"@openzeppelin/contracts/metatx/ERC2771Context.sol\":2437:2451  calldataLength */\n      dup3\n        /* \"@openzeppelin/contracts/metatx/ERC2771Context.sol\":2437:2474  calldataLength >= contextSuffixLength */\n      lt\n      iszero\n        /* \"@openzeppelin/contracts/metatx/ERC2771Context.sol\":2403:2474  isTrustedForwarder(msg.sender) && calldataLength >= contextSuffixLength */\n    tag_243:\n        /* \"@openzeppelin/contracts/metatx/ERC2771Context.sol\":2399:2629  if (isTrustedForwarder(msg.sender) && calldataLength >= contextSuffixLength) {... */\n      iszero\n      tag_244\n      jumpi\n        /* \"@openzeppelin/contracts/metatx/ERC2771Context.sol\":2513:2521  msg.data */\n      0x00\n      calldatasize\n        /* \"@openzeppelin/contracts/metatx/ERC2771Context.sol\":2539:2558  contextSuffixLength */\n      dup3\n        /* \"@openzeppelin/contracts/metatx/ERC2771Context.sol\":2522:2536  calldataLength */\n      dup5\n        /* \"@openzeppelin/contracts/metatx/ERC2771Context.sol\":2522:2558  calldataLength - contextSuffixLength */\n      tag_245\n      swap2\n      swap1\n      tag_246\n      jump\t// in\n    tag_245:\n        /* \"@openzeppelin/contracts/metatx/ERC2771Context.sol\":2513:2560  msg.data[calldataLength - contextSuffixLength:] */\n      swap1\n      dup1\n      swap3\n      tag_247\n      swap4\n      swap3\n      swap2\n      swap1\n      tag_248\n      jump\t// in\n    tag_247:\n        /* \"@openzeppelin/contracts/metatx/ERC2771Context.sol\":2505:2561  bytes20(msg.data[calldataLength - contextSuffixLength:]) */\n      swap1\n      tag_249\n      swap2\n      swap1\n      tag_250\n      jump\t// in\n    tag_249:\n        /* \"@openzeppelin/contracts/metatx/ERC2771Context.sol\":2497:2562  address(bytes20(msg.data[calldataLength - contextSuffixLength:])) */\n      0x60\n      shr\n        /* \"@openzeppelin/contracts/metatx/ERC2771Context.sol\":2490:2562  return address(bytes20(msg.data[calldataLength - contextSuffixLength:])) */\n      swap3\n      pop\n      pop\n      pop\n      jump(tag_239)\n        /* \"@openzeppelin/contracts/metatx/ERC2771Context.sol\":2399:2629  if (isTrustedForwarder(msg.sender) && calldataLength >= contextSuffixLength) {... */\n    tag_244:\n        /* \"@openzeppelin/contracts/metatx/ERC2771Context.sol\":2600:2618  super._msgSender() */\n      tag_252\n        /* \"@openzeppelin/contracts/metatx/ERC2771Context.sol\":2600:2616  super._msgSender */\n      tag_253\n        /* \"@openzeppelin/contracts/metatx/ERC2771Context.sol\":2600:2618  super._msgSender() */\n      jump\t// in\n    tag_252:\n        /* \"@openzeppelin/contracts/metatx/ERC2771Context.sol\":2593:2618  return super._msgSender() */\n      swap3\n      pop\n      pop\n      pop\n        /* \"@openzeppelin/contracts/metatx/ERC2771Context.sol\":2206:2635  function _msgSender() internal view virtual override returns (address) {... */\n    tag_239:\n      swap1\n      jump\t// out\n        /* \"@openzeppelin/contracts/security/Pausable.sol\":1945:2051  function _requirePaused() internal view virtual {... */\n    tag_235:\n        /* \"@openzeppelin/contracts/security/Pausable.sol\":2011:2019  paused() */\n      tag_255\n        /* \"@openzeppelin/contracts/security/Pausable.sol\":2011:2017  paused */\n      tag_47\n        /* \"@openzeppelin/contracts/security/Pausable.sol\":2011:2019  paused() */\n      jump\t// in\n    tag_255:\n        /* \"@openzeppelin/contracts/security/Pausable.sol\":2003:2044  require(paused(), \"Pausable: not paused\") */\n      tag_256\n      jumpi\n      mload(0x40)\n      0x08c379a000000000000000000000000000000000000000000000000000000000\n      dup2\n      mstore\n      0x04\n      add\n      tag_257\n      swap1\n      tag_258\n      jump\t// in\n    tag_257:\n      mload(0x40)\n      dup1\n      swap2\n      sub\n      swap1\n      revert\n    tag_256:\n        /* \"@openzeppelin/contracts/security/Pausable.sol\":1945:2051  function _requirePaused() internal view virtual {... */\n      jump\t// out\n        /* \"Proofication/DocumentAudit1.sol\":6299:6460  function _contextSuffixLength() internal view override(Context, ERC2771Context) returns (uint256) {... */\n    tag_241:\n        /* \"Proofication/DocumentAudit1.sol\":6388:6395  uint256 */\n      0x00\n        /* \"Proofication/DocumentAudit1.sol\":6415:6452  ERC2771Context._contextSuffixLength() */\n      tag_260\n        /* \"Proofication/DocumentAudit1.sol\":6415:6450  ERC2771Context._contextSuffixLength */\n      tag_261\n        /* \"Proofication/DocumentAudit1.sol\":6415:6452  ERC2771Context._contextSuffixLength() */\n      jump\t// in\n    tag_260:\n        /* \"Proofication/DocumentAudit1.sol\":6408:6452  return ERC2771Context._contextSuffixLength() */\n      swap1\n      pop\n        /* \"Proofication/DocumentAudit1.sol\":6299:6460  function _contextSuffixLength() internal view override(Context, ERC2771Context) returns (uint256) {... */\n      swap1\n      jump\t// out\n        /* \"@openzeppelin/contracts/utils/Context.sol\":656:752  function _msgSender() internal view virtual returns (address) {... */\n    tag_253:\n        /* \"@openzeppelin/contracts/utils/Context.sol\":709:716  address */\n      0x00\n        /* \"@openzeppelin/contracts/utils/Context.sol\":735:745  msg.sender */\n      caller\n        /* \"@openzeppelin/contracts/utils/Context.sol\":728:745  return msg.sender */\n      swap1\n      pop\n        /* \"@openzeppelin/contracts/utils/Context.sol\":656:752  function _msgSender() internal view virtual returns (address) {... */\n      swap1\n      jump\t// out\n        /* \"@openzeppelin/contracts/metatx/ERC2771Context.sol\":3385:3492  function _contextSuffixLength() internal view virtual override returns (uint256) {... */\n    tag_261:\n        /* \"@openzeppelin/contracts/metatx/ERC2771Context.sol\":3457:3464  uint256 */\n      0x00\n        /* \"@openzeppelin/contracts/metatx/ERC2771Context.sol\":3483:3485  20 */\n      0x14\n        /* \"@openzeppelin/contracts/metatx/ERC2771Context.sol\":3476:3485  return 20 */\n      swap1\n      pop\n        /* \"@openzeppelin/contracts/metatx/ERC2771Context.sol\":3385:3492  function _contextSuffixLength() internal view virtual override returns (uint256) {... */\n      swap1\n      jump\t// out\n        /* \"#utility.yul\":7:82   */\n    tag_264:\n        /* \"#utility.yul\":40:46   */\n      0x00\n        /* \"#utility.yul\":73:75   */\n      0x40\n        /* \"#utility.yul\":67:76   */\n      mload\n        /* \"#utility.yul\":57:76   */\n      swap1\n      pop\n        /* \"#utility.yul\":7:82   */\n      swap1\n      jump\t// out\n        /* \"#utility.yul\":88:205   */\n    tag_265:\n        /* \"#utility.yul\":197:198   */\n      0x00\n        /* \"#utility.yul\":194:195   */\n      dup1\n        /* \"#utility.yul\":187:199   */\n      revert\n        /* \"#utility.yul\":211:328   */\n    tag_266:\n        /* \"#utility.yul\":320:321   */\n      0x00\n        /* \"#utility.yul\":317:318   */\n      dup1\n        /* \"#utility.yul\":310:322   */\n      revert\n        /* \"#utility.yul\":334:460   */\n    tag_267:\n        /* \"#utility.yul\":371:378   */\n      0x00\n        /* \"#utility.yul\":411:453   */\n      0xffffffffffffffffffffffffffffffffffffffff\n        /* \"#utility.yul\":404:409   */\n      dup3\n        /* \"#utility.yul\":400:454   */\n      and\n        /* \"#utility.yul\":389:454   */\n      swap1\n      pop\n        /* \"#utility.yul\":334:460   */\n      swap2\n      swap1\n      pop\n      jump\t// out\n        /* \"#utility.yul\":466:562   */\n    tag_268:\n        /* \"#utility.yul\":503:510   */\n      0x00\n        /* \"#utility.yul\":532:556   */\n      tag_337\n        /* \"#utility.yul\":550:555   */\n      dup3\n        /* \"#utility.yul\":532:556   */\n      tag_267\n      jump\t// in\n    tag_337:\n        /* \"#utility.yul\":521:556   */\n      swap1\n      pop\n        /* \"#utility.yul\":466:562   */\n      swap2\n      swap1\n      pop\n      jump\t// out\n        /* \"#utility.yul\":568:690   */\n    tag_269:\n        /* \"#utility.yul\":641:665   */\n      tag_339\n        /* \"#utility.yul\":659:664   */\n      dup2\n        /* \"#utility.yul\":641:665   */\n      tag_268\n      jump\t// in\n    tag_339:\n        /* \"#utility.yul\":634:639   */\n      dup2\n        /* \"#utility.yul\":631:666   */\n      eq\n        /* \"#utility.yul\":621:684   */\n      tag_340\n      jumpi\n        /* \"#utility.yul\":680:681   */\n      0x00\n        /* \"#utility.yul\":677:678   */\n      dup1\n        /* \"#utility.yul\":670:682   */\n      revert\n        /* \"#utility.yul\":621:684   */\n    tag_340:\n        /* \"#utility.yul\":568:690   */\n      pop\n      jump\t// out\n        /* \"#utility.yul\":696:835   */\n    tag_270:\n        /* \"#utility.yul\":742:747   */\n      0x00\n        /* \"#utility.yul\":780:786   */\n      dup2\n        /* \"#utility.yul\":767:787   */\n      calldataload\n        /* \"#utility.yul\":758:787   */\n      swap1\n      pop\n        /* \"#utility.yul\":796:829   */\n      tag_342\n        /* \"#utility.yul\":823:828   */\n      dup2\n        /* \"#utility.yul\":796:829   */\n      tag_269\n      jump\t// in\n    tag_342:\n        /* \"#utility.yul\":696:835   */\n      swap3\n      swap2\n      pop\n      pop\n      jump\t// out\n        /* \"#utility.yul\":841:1170   */\n    tag_28:\n        /* \"#utility.yul\":900:906   */\n      0x00\n        /* \"#utility.yul\":949:951   */\n      0x20\n        /* \"#utility.yul\":937:946   */\n      dup3\n        /* \"#utility.yul\":928:935   */\n      dup5\n        /* \"#utility.yul\":924:947   */\n      sub\n        /* \"#utility.yul\":920:952   */\n      slt\n        /* \"#utility.yul\":917:1036   */\n      iszero\n      tag_344\n      jumpi\n        /* \"#utility.yul\":955:1034   */\n      tag_345\n      tag_265\n      jump\t// in\n    tag_345:\n        /* \"#utility.yul\":917:1036   */\n    tag_344:\n        /* \"#utility.yul\":1075:1076   */\n      0x00\n        /* \"#utility.yul\":1100:1153   */\n      tag_346\n        /* \"#utility.yul\":1145:1152   */\n      dup5\n        /* \"#utility.yul\":1136:1142   */\n      dup3\n        /* \"#utility.yul\":1125:1134   */\n      dup6\n        /* \"#utility.yul\":1121:1143   */\n      add\n        /* \"#utility.yul\":1100:1153   */\n      tag_270\n      jump\t// in\n    tag_346:\n        /* \"#utility.yul\":1090:1153   */\n      swap2\n      pop\n        /* \"#utility.yul\":1046:1163   */\n      pop\n        /* \"#utility.yul\":841:1170   */\n      swap3\n      swap2\n      pop\n      pop\n      jump\t// out\n        /* \"#utility.yul\":1176:1266   */\n    tag_271:\n        /* \"#utility.yul\":1210:1217   */\n      0x00\n        /* \"#utility.yul\":1253:1258   */\n      dup2\n        /* \"#utility.yul\":1246:1259   */\n      iszero\n        /* \"#utility.yul\":1239:1260   */\n      iszero\n        /* \"#utility.yul\":1228:1260   */\n      swap1\n      pop\n        /* \"#utility.yul\":1176:1266   */\n      swap2\n      swap1\n      pop\n      jump\t// out\n        /* \"#utility.yul\":1272:1381   */\n    tag_272:\n        /* \"#utility.yul\":1353:1374   */\n      tag_349\n        /* \"#utility.yul\":1368:1373   */\n      dup2\n        /* \"#utility.yul\":1353:1374   */\n      tag_271\n      jump\t// in\n    tag_349:\n        /* \"#utility.yul\":1348:1351   */\n      dup3\n        /* \"#utility.yul\":1341:1375   */\n      mstore\n        /* \"#utility.yul\":1272:1381   */\n      pop\n      pop\n      jump\t// out\n        /* \"#utility.yul\":1387:1597   */\n    tag_31:\n        /* \"#utility.yul\":1474:1478   */\n      0x00\n        /* \"#utility.yul\":1512:1514   */\n      0x20\n        /* \"#utility.yul\":1501:1510   */\n      dup3\n        /* \"#utility.yul\":1497:1515   */\n      add\n        /* \"#utility.yul\":1489:1515   */\n      swap1\n      pop\n        /* \"#utility.yul\":1525:1590   */\n      tag_351\n        /* \"#utility.yul\":1587:1588   */\n      0x00\n        /* \"#utility.yul\":1576:1585   */\n      dup4\n        /* \"#utility.yul\":1572:1589   */\n      add\n        /* \"#utility.yul\":1563:1569   */\n      dup5\n        /* \"#utility.yul\":1525:1590   */\n      tag_272\n      jump\t// in\n    tag_351:\n        /* \"#utility.yul\":1387:1597   */\n      swap3\n      swap2\n      pop\n      pop\n      jump\t// out\n        /* \"#utility.yul\":1603:1680   */\n    tag_273:\n        /* \"#utility.yul\":1640:1647   */\n      0x00\n        /* \"#utility.yul\":1669:1674   */\n      dup2\n        /* \"#utility.yul\":1658:1674   */\n      swap1\n      pop\n        /* \"#utility.yul\":1603:1680   */\n      swap2\n      swap1\n      pop\n      jump\t// out\n        /* \"#utility.yul\":1686:1808   */\n    tag_274:\n        /* \"#utility.yul\":1759:1783   */\n      tag_354\n        /* \"#utility.yul\":1777:1782   */\n      dup2\n        /* \"#utility.yul\":1759:1783   */\n      tag_273\n      jump\t// in\n    tag_354:\n        /* \"#utility.yul\":1752:1757   */\n      dup2\n        /* \"#utility.yul\":1749:1784   */\n      eq\n        /* \"#utility.yul\":1739:1802   */\n      tag_355\n      jumpi\n        /* \"#utility.yul\":1798:1799   */\n      0x00\n        /* \"#utility.yul\":1795:1796   */\n      dup1\n        /* \"#utility.yul\":1788:1800   */\n      revert\n        /* \"#utility.yul\":1739:1802   */\n    tag_355:\n        /* \"#utility.yul\":1686:1808   */\n      pop\n      jump\t// out\n        /* \"#utility.yul\":1814:1953   */\n    tag_275:\n        /* \"#utility.yul\":1860:1865   */\n      0x00\n        /* \"#utility.yul\":1898:1904   */\n      dup2\n        /* \"#utility.yul\":1885:1905   */\n      calldataload\n        /* \"#utility.yul\":1876:1905   */\n      swap1\n      pop\n        /* \"#utility.yul\":1914:1947   */\n      tag_357\n        /* \"#utility.yul\":1941:1946   */\n      dup2\n        /* \"#utility.yul\":1914:1947   */\n      tag_274\n      jump\t// in\n    tag_357:\n        /* \"#utility.yul\":1814:1953   */\n      swap3\n      swap2\n      pop\n      pop\n      jump\t// out\n        /* \"#utility.yul\":1959:2076   */\n    tag_276:\n        /* \"#utility.yul\":2068:2069   */\n      0x00\n        /* \"#utility.yul\":2065:2066   */\n      dup1\n        /* \"#utility.yul\":2058:2070   */\n      revert\n        /* \"#utility.yul\":2082:2199   */\n    tag_277:\n        /* \"#utility.yul\":2191:2192   */\n      0x00\n        /* \"#utility.yul\":2188:2189   */\n      dup1\n        /* \"#utility.yul\":2181:2193   */\n      revert\n        /* \"#utility.yul\":2205:2307   */\n    tag_278:\n        /* \"#utility.yul\":2246:2252   */\n      0x00\n        /* \"#utility.yul\":2297:2299   */\n      0x1f\n        /* \"#utility.yul\":2293:2300   */\n      not\n        /* \"#utility.yul\":2288:2290   */\n      0x1f\n        /* \"#utility.yul\":2281:2286   */\n      dup4\n        /* \"#utility.yul\":2277:2291   */\n      add\n        /* \"#utility.yul\":2273:2301   */\n      and\n        /* \"#utility.yul\":2263:2301   */\n      swap1\n      pop\n        /* \"#utility.yul\":2205:2307   */\n      swap2\n      swap1\n      pop\n      jump\t// out\n        /* \"#utility.yul\":2313:2493   */\n    tag_279:\n        /* \"#utility.yul\":2361:2438   */\n      0x4e487b7100000000000000000000000000000000000000000000000000000000\n        /* \"#utility.yul\":2358:2359   */\n      0x00\n        /* \"#utility.yul\":2351:2439   */\n      mstore\n        /* \"#utility.yul\":2458:2462   */\n      0x41\n        /* \"#utility.yul\":2455:2456   */\n      0x04\n        /* \"#utility.yul\":2448:2463   */\n      mstore\n        /* \"#utility.yul\":2482:2486   */\n      0x24\n        /* \"#utility.yul\":2479:2480   */\n      0x00\n        /* \"#utility.yul\":2472:2487   */\n      revert\n        /* \"#utility.yul\":2499:2780   */\n    tag_280:\n        /* \"#utility.yul\":2582:2609   */\n      tag_363\n        /* \"#utility.yul\":2604:2608   */\n      dup3\n        /* \"#utility.yul\":2582:2609   */\n      tag_278\n      jump\t// in\n    tag_363:\n        /* \"#utility.yul\":2574:2580   */\n      dup2\n        /* \"#utility.yul\":2570:2610   */\n      add\n        /* \"#utility.yul\":2712:2718   */\n      dup2\n        /* \"#utility.yul\":2700:2710   */\n      dup2\n        /* \"#utility.yul\":2697:2719   */\n      lt\n        /* \"#utility.yul\":2676:2694   */\n      0xffffffffffffffff\n        /* \"#utility.yul\":2664:2674   */\n      dup3\n        /* \"#utility.yul\":2661:2695   */\n      gt\n        /* \"#utility.yul\":2658:2720   */\n      or\n        /* \"#utility.yul\":2655:2743   */\n      iszero\n      tag_364\n      jumpi\n        /* \"#utility.yul\":2723:2741   */\n      tag_365\n      tag_279\n      jump\t// in\n    tag_365:\n        /* \"#utility.yul\":2655:2743   */\n    tag_364:\n        /* \"#utility.yul\":2763:2773   */\n      dup1\n        /* \"#utility.yul\":2759:2761   */\n      0x40\n        /* \"#utility.yul\":2752:2774   */\n      mstore\n        /* \"#utility.yul\":2542:2780   */\n      pop\n        /* \"#utility.yul\":2499:2780   */\n      pop\n      pop\n      jump\t// out\n        /* \"#utility.yul\":2786:2915   */\n    tag_281:\n        /* \"#utility.yul\":2820:2826   */\n      0x00\n        /* \"#utility.yul\":2847:2867   */\n      tag_367\n      tag_264\n      jump\t// in\n    tag_367:\n        /* \"#utility.yul\":2837:2867   */\n      swap1\n      pop\n        /* \"#utility.yul\":2876:2909   */\n      tag_368\n        /* \"#utility.yul\":2904:2908   */\n      dup3\n        /* \"#utility.yul\":2896:2902   */\n      dup3\n        /* \"#utility.yul\":2876:2909   */\n      tag_280\n      jump\t// in\n    tag_368:\n        /* \"#utility.yul\":2786:2915   */\n      swap2\n      swap1\n      pop\n      jump\t// out\n        /* \"#utility.yul\":2921:3229   */\n    tag_282:\n        /* \"#utility.yul\":2983:2987   */\n      0x00\n        /* \"#utility.yul\":3073:3091   */\n      0xffffffffffffffff\n        /* \"#utility.yul\":3065:3071   */\n      dup3\n        /* \"#utility.yul\":3062:3092   */\n      gt\n        /* \"#utility.yul\":3059:3115   */\n      iszero\n      tag_370\n      jumpi\n        /* \"#utility.yul\":3095:3113   */\n      tag_371\n      tag_279\n      jump\t// in\n    tag_371:\n        /* \"#utility.yul\":3059:3115   */\n    tag_370:\n        /* \"#utility.yul\":3133:3162   */\n      tag_372\n        /* \"#utility.yul\":3155:3161   */\n      dup3\n        /* \"#utility.yul\":3133:3162   */\n      tag_278\n      jump\t// in\n    tag_372:\n        /* \"#utility.yul\":3125:3162   */\n      swap1\n      pop\n        /* \"#utility.yul\":3217:3221   */\n      0x20\n        /* \"#utility.yul\":3211:3215   */\n      dup2\n        /* \"#utility.yul\":3207:3222   */\n      add\n        /* \"#utility.yul\":3199:3222   */\n      swap1\n      pop\n        /* \"#utility.yul\":2921:3229   */\n      swap2\n      swap1\n      pop\n      jump\t// out\n        /* \"#utility.yul\":3235:3383   */\n    tag_283:\n        /* \"#utility.yul\":3333:3339   */\n      dup3\n        /* \"#utility.yul\":3328:3331   */\n      dup2\n        /* \"#utility.yul\":3323:3326   */\n      dup4\n        /* \"#utility.yul\":3310:3340   */\n      calldatacopy\n        /* \"#utility.yul\":3374:3375   */\n      0x00\n        /* \"#utility.yul\":3365:3371   */\n      dup4\n        /* \"#utility.yul\":3360:3363   */\n      dup4\n        /* \"#utility.yul\":3356:3372   */\n      add\n        /* \"#utility.yul\":3349:3376   */\n      mstore\n        /* \"#utility.yul\":3235:3383   */\n      pop\n      pop\n      pop\n      jump\t// out\n        /* \"#utility.yul\":3389:3814   */\n    tag_284:\n        /* \"#utility.yul\":3467:3472   */\n      0x00\n        /* \"#utility.yul\":3492:3558   */\n      tag_375\n        /* \"#utility.yul\":3508:3557   */\n      tag_376\n        /* \"#utility.yul\":3550:3556   */\n      dup5\n        /* \"#utility.yul\":3508:3557   */\n      tag_282\n      jump\t// in\n    tag_376:\n        /* \"#utility.yul\":3492:3558   */\n      tag_281\n      jump\t// in\n    tag_375:\n        /* \"#utility.yul\":3483:3558   */\n      swap1\n      pop\n        /* \"#utility.yul\":3581:3587   */\n      dup3\n        /* \"#utility.yul\":3574:3579   */\n      dup2\n        /* \"#utility.yul\":3567:3588   */\n      mstore\n        /* \"#utility.yul\":3619:3623   */\n      0x20\n        /* \"#utility.yul\":3612:3617   */\n      dup2\n        /* \"#utility.yul\":3608:3624   */\n      add\n        /* \"#utility.yul\":3657:3660   */\n      dup5\n        /* \"#utility.yul\":3648:3654   */\n      dup5\n        /* \"#utility.yul\":3643:3646   */\n      dup5\n        /* \"#utility.yul\":3639:3655   */\n      add\n        /* \"#utility.yul\":3636:3661   */\n      gt\n        /* \"#utility.yul\":3633:3745   */\n      iszero\n      tag_377\n      jumpi\n        /* \"#utility.yul\":3664:3743   */\n      tag_378\n      tag_277\n      jump\t// in\n    tag_378:\n        /* \"#utility.yul\":3633:3745   */\n    tag_377:\n        /* \"#utility.yul\":3754:3808   */\n      tag_379\n        /* \"#utility.yul\":3801:3807   */\n      dup5\n        /* \"#utility.yul\":3796:3799   */\n      dup3\n        /* \"#utility.yul\":3791:3794   */\n      dup6\n        /* \"#utility.yul\":3754:3808   */\n      tag_283\n      jump\t// in\n    tag_379:\n        /* \"#utility.yul\":3473:3814   */\n      pop\n        /* \"#utility.yul\":3389:3814   */\n      swap4\n      swap3\n      pop\n      pop\n      pop\n      jump\t// out\n        /* \"#utility.yul\":3834:4174   */\n    tag_285:\n        /* \"#utility.yul\":3890:3895   */\n      0x00\n        /* \"#utility.yul\":3939:3942   */\n      dup3\n        /* \"#utility.yul\":3932:3936   */\n      0x1f\n        /* \"#utility.yul\":3924:3930   */\n      dup4\n        /* \"#utility.yul\":3920:3937   */\n      add\n        /* \"#utility.yul\":3916:3943   */\n      slt\n        /* \"#utility.yul\":3906:4028   */\n      tag_381\n      jumpi\n        /* \"#utility.yul\":3947:4026   */\n      tag_382\n      tag_276\n      jump\t// in\n    tag_382:\n        /* \"#utility.yul\":3906:4028   */\n    tag_381:\n        /* \"#utility.yul\":4064:4070   */\n      dup2\n        /* \"#utility.yul\":4051:4071   */\n      calldataload\n        /* \"#utility.yul\":4089:4168   */\n      tag_383\n        /* \"#utility.yul\":4164:4167   */\n      dup5\n        /* \"#utility.yul\":4156:4162   */\n      dup3\n        /* \"#utility.yul\":4149:4153   */\n      0x20\n        /* \"#utility.yul\":4141:4147   */\n      dup7\n        /* \"#utility.yul\":4137:4154   */\n      add\n        /* \"#utility.yul\":4089:4168   */\n      tag_284\n      jump\t// in\n    tag_383:\n        /* \"#utility.yul\":4080:4168   */\n      swap2\n      pop\n        /* \"#utility.yul\":3896:4174   */\n      pop\n        /* \"#utility.yul\":3834:4174   */\n      swap3\n      swap2\n      pop\n      pop\n      jump\t// out\n        /* \"#utility.yul\":4180:5485   */\n    tag_40:\n        /* \"#utility.yul\":4296:4302   */\n      0x00\n        /* \"#utility.yul\":4304:4310   */\n      dup1\n        /* \"#utility.yul\":4312:4318   */\n      0x00\n        /* \"#utility.yul\":4320:4326   */\n      dup1\n        /* \"#utility.yul\":4369:4372   */\n      0x80\n        /* \"#utility.yul\":4357:4366   */\n      dup6\n        /* \"#utility.yul\":4348:4355   */\n      dup8\n        /* \"#utility.yul\":4344:4367   */\n      sub\n        /* \"#utility.yul\":4340:4373   */\n      slt\n        /* \"#utility.yul\":4337:4457   */\n      iszero\n      tag_385\n      jumpi\n        /* \"#utility.yul\":4376:4455   */\n      tag_386\n      tag_265\n      jump\t// in\n    tag_386:\n        /* \"#utility.yul\":4337:4457   */\n    tag_385:\n        /* \"#utility.yul\":4496:4497   */\n      0x00\n        /* \"#utility.yul\":4521:4574   */\n      tag_387\n        /* \"#utility.yul\":4566:4573   */\n      dup8\n        /* \"#utility.yul\":4557:4563   */\n      dup3\n        /* \"#utility.yul\":4546:4555   */\n      dup9\n        /* \"#utility.yul\":4542:4564   */\n      add\n        /* \"#utility.yul\":4521:4574   */\n      tag_275\n      jump\t// in\n    tag_387:\n        /* \"#utility.yul\":4511:4574   */\n      swap5\n      pop\n        /* \"#utility.yul\":4467:4584   */\n      pop\n        /* \"#utility.yul\":4651:4653   */\n      0x20\n        /* \"#utility.yul\":4640:4649   */\n      dup6\n        /* \"#utility.yul\":4636:4654   */\n      add\n        /* \"#utility.yul\":4623:4655   */\n      calldataload\n        /* \"#utility.yul\":4682:4700   */\n      0xffffffffffffffff\n        /* \"#utility.yul\":4674:4680   */\n      dup2\n        /* \"#utility.yul\":4671:4701   */\n      gt\n        /* \"#utility.yul\":4668:4785   */\n      iszero\n      tag_388\n      jumpi\n        /* \"#utility.yul\":4704:4783   */\n      tag_389\n      tag_266\n      jump\t// in\n    tag_389:\n        /* \"#utility.yul\":4668:4785   */\n    tag_388:\n        /* \"#utility.yul\":4809:4872   */\n      tag_390\n        /* \"#utility.yul\":4864:4871   */\n      dup8\n        /* \"#utility.yul\":4855:4861   */\n      dup3\n        /* \"#utility.yul\":4844:4853   */\n      dup9\n        /* \"#utility.yul\":4840:4862   */\n      add\n        /* \"#utility.yul\":4809:4872   */\n      tag_285\n      jump\t// in\n    tag_390:\n        /* \"#utility.yul\":4799:4872   */\n      swap4\n      pop\n        /* \"#utility.yul\":4594:4882   */\n      pop\n        /* \"#utility.yul\":4949:4951   */\n      0x40\n        /* \"#utility.yul\":4938:4947   */\n      dup6\n        /* \"#utility.yul\":4934:4952   */\n      add\n        /* \"#utility.yul\":4921:4953   */\n      calldataload\n        /* \"#utility.yul\":4980:4998   */\n      0xffffffffffffffff\n        /* \"#utility.yul\":4972:4978   */\n      dup2\n        /* \"#utility.yul\":4969:4999   */\n      gt\n        /* \"#utility.yul\":4966:5083   */\n      iszero\n      tag_391\n      jumpi\n        /* \"#utility.yul\":5002:5081   */\n      tag_392\n      tag_266\n      jump\t// in\n    tag_392:\n        /* \"#utility.yul\":4966:5083   */\n    tag_391:\n        /* \"#utility.yul\":5107:5170   */\n      tag_393\n        /* \"#utility.yul\":5162:5169   */\n      dup8\n        /* \"#utility.yul\":5153:5159   */\n      dup3\n        /* \"#utility.yul\":5142:5151   */\n      dup9\n        /* \"#utility.yul\":5138:5160   */\n      add\n        /* \"#utility.yul\":5107:5170   */\n      tag_285\n      jump\t// in\n    tag_393:\n        /* \"#utility.yul\":5097:5170   */\n      swap3\n      pop\n        /* \"#utility.yul\":4892:5180   */\n      pop\n        /* \"#utility.yul\":5247:5249   */\n      0x60\n        /* \"#utility.yul\":5236:5245   */\n      dup6\n        /* \"#utility.yul\":5232:5250   */\n      add\n        /* \"#utility.yul\":5219:5251   */\n      calldataload\n        /* \"#utility.yul\":5278:5296   */\n      0xffffffffffffffff\n        /* \"#utility.yul\":5270:5276   */\n      dup2\n        /* \"#utility.yul\":5267:5297   */\n      gt\n        /* \"#utility.yul\":5264:5381   */\n      iszero\n      tag_394\n      jumpi\n        /* \"#utility.yul\":5300:5379   */\n      tag_395\n      tag_266\n      jump\t// in\n    tag_395:\n        /* \"#utility.yul\":5264:5381   */\n    tag_394:\n        /* \"#utility.yul\":5405:5468   */\n      tag_396\n        /* \"#utility.yul\":5460:5467   */\n      dup8\n        /* \"#utility.yul\":5451:5457   */\n      dup3\n        /* \"#utility.yul\":5440:5449   */\n      dup9\n        /* \"#utility.yul\":5436:5458   */\n      add\n        /* \"#utility.yul\":5405:5468   */\n      tag_285\n      jump\t// in\n    tag_396:\n        /* \"#utility.yul\":5395:5468   */\n      swap2\n      pop\n        /* \"#utility.yul\":5190:5478   */\n      pop\n        /* \"#utility.yul\":4180:5485   */\n      swap3\n      swap6\n      swap2\n      swap5\n      pop\n      swap3\n      pop\n      jump\t// out\n        /* \"#utility.yul\":5491:5820   */\n    tag_51:\n        /* \"#utility.yul\":5550:5556   */\n      0x00\n        /* \"#utility.yul\":5599:5601   */\n      0x20\n        /* \"#utility.yul\":5587:5596   */\n      dup3\n        /* \"#utility.yul\":5578:5585   */\n      dup5\n        /* \"#utility.yul\":5574:5597   */\n      sub\n        /* \"#utility.yul\":5570:5602   */\n      slt\n        /* \"#utility.yul\":5567:5686   */\n      iszero\n      tag_398\n      jumpi\n        /* \"#utility.yul\":5605:5684   */\n      tag_399\n      tag_265\n      jump\t// in\n    tag_399:\n        /* \"#utility.yul\":5567:5686   */\n    tag_398:\n        /* \"#utility.yul\":5725:5726   */\n      0x00\n        /* \"#utility.yul\":5750:5803   */\n      tag_400\n        /* \"#utility.yul\":5795:5802   */\n      dup5\n        /* \"#utility.yul\":5786:5792   */\n      dup3\n        /* \"#utility.yul\":5775:5784   */\n      dup6\n        /* \"#utility.yul\":5771:5793   */\n      add\n        /* \"#utility.yul\":5750:5803   */\n      tag_275\n      jump\t// in\n    tag_400:\n        /* \"#utility.yul\":5740:5803   */\n      swap2\n      pop\n        /* \"#utility.yul\":5696:5813   */\n      pop\n        /* \"#utility.yul\":5491:5820   */\n      swap3\n      swap2\n      pop\n      pop\n      jump\t// out\n        /* \"#utility.yul\":5826:5942   */\n    tag_286:\n        /* \"#utility.yul\":5896:5917   */\n      tag_402\n        /* \"#utility.yul\":5911:5916   */\n      dup2\n        /* \"#utility.yul\":5896:5917   */\n      tag_271\n      jump\t// in\n    tag_402:\n        /* \"#utility.yul\":5889:5894   */\n      dup2\n        /* \"#utility.yul\":5886:5918   */\n      eq\n        /* \"#utility.yul\":5876:5936   */\n      tag_403\n      jumpi\n        /* \"#utility.yul\":5932:5933   */\n      0x00\n        /* \"#utility.yul\":5929:5930   */\n      dup1\n        /* \"#utility.yul\":5922:5934   */\n      revert\n        /* \"#utility.yul\":5876:5936   */\n    tag_403:\n        /* \"#utility.yul\":5826:5942   */\n      pop\n      jump\t// out\n        /* \"#utility.yul\":5948:6081   */\n    tag_287:\n        /* \"#utility.yul\":5991:5996   */\n      0x00\n        /* \"#utility.yul\":6029:6035   */\n      dup2\n        /* \"#utility.yul\":6016:6036   */\n      calldataload\n        /* \"#utility.yul\":6007:6036   */\n      swap1\n      pop\n        /* \"#utility.yul\":6045:6075   */\n      tag_405\n        /* \"#utility.yul\":6069:6074   */\n      dup2\n        /* \"#utility.yul\":6045:6075   */\n      tag_286\n      jump\t// in\n    tag_405:\n        /* \"#utility.yul\":5948:6081   */\n      swap3\n      swap2\n      pop\n      pop\n      jump\t// out\n        /* \"#utility.yul\":6087:6410   */\n    tag_56:\n        /* \"#utility.yul\":6143:6149   */\n      0x00\n        /* \"#utility.yul\":6192:6194   */\n      0x20\n        /* \"#utility.yul\":6180:6189   */\n      dup3\n        /* \"#utility.yul\":6171:6178   */\n      dup5\n        /* \"#utility.yul\":6167:6190   */\n      sub\n        /* \"#utility.yul\":6163:6195   */\n      slt\n        /* \"#utility.yul\":6160:6279   */\n      iszero\n      tag_407\n      jumpi\n        /* \"#utility.yul\":6198:6277   */\n      tag_408\n      tag_265\n      jump\t// in\n    tag_408:\n        /* \"#utility.yul\":6160:6279   */\n    tag_407:\n        /* \"#utility.yul\":6318:6319   */\n      0x00\n        /* \"#utility.yul\":6343:6393   */\n      tag_409\n        /* \"#utility.yul\":6385:6392   */\n      dup5\n        /* \"#utility.yul\":6376:6382   */\n      dup3\n        /* \"#utility.yul\":6365:6374   */\n      dup6\n        /* \"#utility.yul\":6361:6383   */\n      add\n        /* \"#utility.yul\":6343:6393   */\n      tag_287\n      jump\t// in\n    tag_409:\n        /* \"#utility.yul\":6333:6393   */\n      swap2\n      pop\n        /* \"#utility.yul\":6289:6403   */\n      pop\n        /* \"#utility.yul\":6087:6410   */\n      swap3\n      swap2\n      pop\n      pop\n      jump\t// out\n        /* \"#utility.yul\":6416:6534   */\n    tag_288:\n        /* \"#utility.yul\":6503:6527   */\n      tag_411\n        /* \"#utility.yul\":6521:6526   */\n      dup2\n        /* \"#utility.yul\":6503:6527   */\n      tag_268\n      jump\t// in\n    tag_411:\n        /* \"#utility.yul\":6498:6501   */\n      dup3\n        /* \"#utility.yul\":6491:6528   */\n      mstore\n        /* \"#utility.yul\":6416:6534   */\n      pop\n      pop\n      jump\t// out\n        /* \"#utility.yul\":6540:6762   */\n    tag_63:\n        /* \"#utility.yul\":6633:6637   */\n      0x00\n        /* \"#utility.yul\":6671:6673   */\n      0x20\n        /* \"#utility.yul\":6660:6669   */\n      dup3\n        /* \"#utility.yul\":6656:6674   */\n      add\n        /* \"#utility.yul\":6648:6674   */\n      swap1\n      pop\n        /* \"#utility.yul\":6684:6755   */\n      tag_413\n        /* \"#utility.yul\":6752:6753   */\n      0x00\n        /* \"#utility.yul\":6741:6750   */\n      dup4\n        /* \"#utility.yul\":6737:6754   */\n      add\n        /* \"#utility.yul\":6728:6734   */\n      dup5\n        /* \"#utility.yul\":6684:6755   */\n      tag_288\n      jump\t// in\n    tag_413:\n        /* \"#utility.yul\":6540:6762   */\n      swap3\n      swap2\n      pop\n      pop\n      jump\t// out\n        /* \"#utility.yul\":6768:6845   */\n    tag_289:\n        /* \"#utility.yul\":6805:6812   */\n      0x00\n        /* \"#utility.yul\":6834:6839   */\n      dup2\n        /* \"#utility.yul\":6823:6839   */\n      swap1\n      pop\n        /* \"#utility.yul\":6768:6845   */\n      swap2\n      swap1\n      pop\n      jump\t// out\n        /* \"#utility.yul\":6851:6969   */\n    tag_290:\n        /* \"#utility.yul\":6938:6962   */\n      tag_416\n        /* \"#utility.yul\":6956:6961   */\n      dup2\n        /* \"#utility.yul\":6938:6962   */\n      tag_289\n      jump\t// in\n    tag_416:\n        /* \"#utility.yul\":6933:6936   */\n      dup3\n        /* \"#utility.yul\":6926:6963   */\n      mstore\n        /* \"#utility.yul\":6851:6969   */\n      pop\n      pop\n      jump\t// out\n        /* \"#utility.yul\":6975:7074   */\n    tag_291:\n        /* \"#utility.yul\":7027:7033   */\n      0x00\n        /* \"#utility.yul\":7061:7066   */\n      dup2\n        /* \"#utility.yul\":7055:7067   */\n      mload\n        /* \"#utility.yul\":7045:7067   */\n      swap1\n      pop\n        /* \"#utility.yul\":6975:7074   */\n      swap2\n      swap1\n      pop\n      jump\t// out\n        /* \"#utility.yul\":7080:7249   */\n    tag_292:\n        /* \"#utility.yul\":7164:7175   */\n      0x00\n        /* \"#utility.yul\":7198:7204   */\n      dup3\n        /* \"#utility.yul\":7193:7196   */\n      dup3\n        /* \"#utility.yul\":7186:7205   */\n      mstore\n        /* \"#utility.yul\":7238:7242   */\n      0x20\n        /* \"#utility.yul\":7233:7236   */\n      dup3\n        /* \"#utility.yul\":7229:7243   */\n      add\n        /* \"#utility.yul\":7214:7243   */\n      swap1\n      pop\n        /* \"#utility.yul\":7080:7249   */\n      swap3\n      swap2\n      pop\n      pop\n      jump\t// out\n        /* \"#utility.yul\":7255:7394   */\n    tag_293:\n        /* \"#utility.yul\":7344:7350   */\n      dup3\n        /* \"#utility.yul\":7339:7342   */\n      dup2\n        /* \"#utility.yul\":7334:7337   */\n      dup4\n        /* \"#utility.yul\":7328:7351   */\n      mcopy\n        /* \"#utility.yul\":7385:7386   */\n      0x00\n        /* \"#utility.yul\":7376:7382   */\n      dup4\n        /* \"#utility.yul\":7371:7374   */\n      dup4\n        /* \"#utility.yul\":7367:7383   */\n      add\n        /* \"#utility.yul\":7360:7387   */\n      mstore\n        /* \"#utility.yul\":7255:7394   */\n      pop\n      pop\n      pop\n      jump\t// out\n        /* \"#utility.yul\":7400:7777   */\n    tag_294:\n        /* \"#utility.yul\":7488:7491   */\n      0x00\n        /* \"#utility.yul\":7516:7555   */\n      tag_421\n        /* \"#utility.yul\":7549:7554   */\n      dup3\n        /* \"#utility.yul\":7516:7555   */\n      tag_291\n      jump\t// in\n    tag_421:\n        /* \"#utility.yul\":7571:7642   */\n      tag_422\n        /* \"#utility.yul\":7635:7641   */\n      dup2\n        /* \"#utility.yul\":7630:7633   */\n      dup6\n        /* \"#utility.yul\":7571:7642   */\n      tag_292\n      jump\t// in\n    tag_422:\n        /* \"#utility.yul\":7564:7642   */\n      swap4\n      pop\n        /* \"#utility.yul\":7651:7716   */\n      tag_423\n        /* \"#utility.yul\":7709:7715   */\n      dup2\n        /* \"#utility.yul\":7704:7707   */\n      dup6\n        /* \"#utility.yul\":7697:7701   */\n      0x20\n        /* \"#utility.yul\":7690:7695   */\n      dup7\n        /* \"#utility.yul\":7686:7702   */\n      add\n        /* \"#utility.yul\":7651:7716   */\n      tag_293\n      jump\t// in\n    tag_423:\n        /* \"#utility.yul\":7741:7770   */\n      tag_424\n        /* \"#utility.yul\":7763:7769   */\n      dup2\n        /* \"#utility.yul\":7741:7770   */\n      tag_278\n      jump\t// in\n    tag_424:\n        /* \"#utility.yul\":7736:7739   */\n      dup5\n        /* \"#utility.yul\":7732:7771   */\n      add\n        /* \"#utility.yul\":7725:7771   */\n      swap2\n      pop\n        /* \"#utility.yul\":7492:7777   */\n      pop\n        /* \"#utility.yul\":7400:7777   */\n      swap3\n      swap2\n      pop\n      pop\n      jump\t// out\n        /* \"#utility.yul\":7783:8819   */\n    tag_71:\n        /* \"#utility.yul\":8070:8074   */\n      0x00\n        /* \"#utility.yul\":8108:8111   */\n      0xc0\n        /* \"#utility.yul\":8097:8106   */\n      dup3\n        /* \"#utility.yul\":8093:8112   */\n      add\n        /* \"#utility.yul\":8085:8112   */\n      swap1\n      pop\n        /* \"#utility.yul\":8122:8193   */\n      tag_426\n        /* \"#utility.yul\":8190:8191   */\n      0x00\n        /* \"#utility.yul\":8179:8188   */\n      dup4\n        /* \"#utility.yul\":8175:8192   */\n      add\n        /* \"#utility.yul\":8166:8172   */\n      dup10\n        /* \"#utility.yul\":8122:8193   */\n      tag_288\n      jump\t// in\n    tag_426:\n        /* \"#utility.yul\":8203:8275   */\n      tag_427\n        /* \"#utility.yul\":8271:8273   */\n      0x20\n        /* \"#utility.yul\":8260:8269   */\n      dup4\n        /* \"#utility.yul\":8256:8274   */\n      add\n        /* \"#utility.yul\":8247:8253   */\n      dup9\n        /* \"#utility.yul\":8203:8275   */\n      tag_290\n      jump\t// in\n    tag_427:\n        /* \"#utility.yul\":8322:8331   */\n      dup2\n        /* \"#utility.yul\":8316:8320   */\n      dup2\n        /* \"#utility.yul\":8312:8332   */\n      sub\n        /* \"#utility.yul\":8307:8309   */\n      0x40\n        /* \"#utility.yul\":8296:8305   */\n      dup4\n        /* \"#utility.yul\":8292:8310   */\n      add\n        /* \"#utility.yul\":8285:8333   */\n      mstore\n        /* \"#utility.yul\":8350:8428   */\n      tag_428\n        /* \"#utility.yul\":8423:8427   */\n      dup2\n        /* \"#utility.yul\":8414:8420   */\n      dup8\n        /* \"#utility.yul\":8350:8428   */\n      tag_294\n      jump\t// in\n    tag_428:\n        /* \"#utility.yul\":8342:8428   */\n      swap1\n      pop\n        /* \"#utility.yul\":8475:8484   */\n      dup2\n        /* \"#utility.yul\":8469:8473   */\n      dup2\n        /* \"#utility.yul\":8465:8485   */\n      sub\n        /* \"#utility.yul\":8460:8462   */\n      0x60\n        /* \"#utility.yul\":8449:8458   */\n      dup4\n        /* \"#utility.yul\":8445:8463   */\n      add\n        /* \"#utility.yul\":8438:8486   */\n      mstore\n        /* \"#utility.yul\":8503:8581   */\n      tag_429\n        /* \"#utility.yul\":8576:8580   */\n      dup2\n        /* \"#utility.yul\":8567:8573   */\n      dup7\n        /* \"#utility.yul\":8503:8581   */\n      tag_294\n      jump\t// in\n    tag_429:\n        /* \"#utility.yul\":8495:8581   */\n      swap1\n      pop\n        /* \"#utility.yul\":8629:8638   */\n      dup2\n        /* \"#utility.yul\":8623:8627   */\n      dup2\n        /* \"#utility.yul\":8619:8639   */\n      sub\n        /* \"#utility.yul\":8613:8616   */\n      0x80\n        /* \"#utility.yul\":8602:8611   */\n      dup4\n        /* \"#utility.yul\":8598:8617   */\n      add\n        /* \"#utility.yul\":8591:8640   */\n      mstore\n        /* \"#utility.yul\":8657:8735   */\n      tag_430\n        /* \"#utility.yul\":8730:8734   */\n      dup2\n        /* \"#utility.yul\":8721:8727   */\n      dup6\n        /* \"#utility.yul\":8657:8735   */\n      tag_294\n      jump\t// in\n    tag_430:\n        /* \"#utility.yul\":8649:8735   */\n      swap1\n      pop\n        /* \"#utility.yul\":8745:8812   */\n      tag_431\n        /* \"#utility.yul\":8807:8810   */\n      0xa0\n        /* \"#utility.yul\":8796:8805   */\n      dup4\n        /* \"#utility.yul\":8792:8811   */\n      add\n        /* \"#utility.yul\":8783:8789   */\n      dup5\n        /* \"#utility.yul\":8745:8812   */\n      tag_272\n      jump\t// in\n    tag_431:\n        /* \"#utility.yul\":7783:8819   */\n      swap8\n      swap7\n      pop\n      pop\n      pop\n      pop\n      pop\n      pop\n      pop\n      jump\t// out\n        /* \"#utility.yul\":8825:9047   */\n    tag_76:\n        /* \"#utility.yul\":8918:8922   */\n      0x00\n        /* \"#utility.yul\":8956:8958   */\n      0x20\n        /* \"#utility.yul\":8945:8954   */\n      dup3\n        /* \"#utility.yul\":8941:8959   */\n      add\n        /* \"#utility.yul\":8933:8959   */\n      swap1\n      pop\n        /* \"#utility.yul\":8969:9040   */\n      tag_433\n        /* \"#utility.yul\":9037:9038   */\n      0x00\n        /* \"#utility.yul\":9026:9035   */\n      dup4\n        /* \"#utility.yul\":9022:9039   */\n      add\n        /* \"#utility.yul\":9013:9019   */\n      dup5\n        /* \"#utility.yul\":8969:9040   */\n      tag_290\n      jump\t// in\n    tag_433:\n        /* \"#utility.yul\":8825:9047   */\n      swap3\n      swap2\n      pop\n      pop\n      jump\t// out\n        /* \"#utility.yul\":9053:9666   */\n    tag_83:\n        /* \"#utility.yul\":9127:9133   */\n      0x00\n        /* \"#utility.yul\":9135:9141   */\n      dup1\n        /* \"#utility.yul\":9143:9149   */\n      0x00\n        /* \"#utility.yul\":9192:9194   */\n      0x60\n        /* \"#utility.yul\":9180:9189   */\n      dup5\n        /* \"#utility.yul\":9171:9178   */\n      dup7\n        /* \"#utility.yul\":9167:9190   */\n      sub\n        /* \"#utility.yul\":9163:9195   */\n      slt\n        /* \"#utility.yul\":9160:9279   */\n      iszero\n      tag_435\n      jumpi\n        /* \"#utility.yul\":9198:9277   */\n      tag_436\n      tag_265\n      jump\t// in\n    tag_436:\n        /* \"#utility.yul\":9160:9279   */\n    tag_435:\n        /* \"#utility.yul\":9318:9319   */\n      0x00\n        /* \"#utility.yul\":9343:9396   */\n      tag_437\n        /* \"#utility.yul\":9388:9395   */\n      dup7\n        /* \"#utility.yul\":9379:9385   */\n      dup3\n        /* \"#utility.yul\":9368:9377   */\n      dup8\n        /* \"#utility.yul\":9364:9386   */\n      add\n        /* \"#utility.yul\":9343:9396   */\n      tag_275\n      jump\t// in\n    tag_437:\n        /* \"#utility.yul\":9333:9396   */\n      swap4\n      pop\n        /* \"#utility.yul\":9289:9406   */\n      pop\n        /* \"#utility.yul\":9445:9447   */\n      0x20\n        /* \"#utility.yul\":9471:9524   */\n      tag_438\n        /* \"#utility.yul\":9516:9523   */\n      dup7\n        /* \"#utility.yul\":9507:9513   */\n      dup3\n        /* \"#utility.yul\":9496:9505   */\n      dup8\n        /* \"#utility.yul\":9492:9514   */\n      add\n        /* \"#utility.yul\":9471:9524   */\n      tag_270\n      jump\t// in\n    tag_438:\n        /* \"#utility.yul\":9461:9524   */\n      swap3\n      pop\n        /* \"#utility.yul\":9416:9534   */\n      pop\n        /* \"#utility.yul\":9573:9575   */\n      0x40\n        /* \"#utility.yul\":9599:9649   */\n      tag_439\n        /* \"#utility.yul\":9641:9648   */\n      dup7\n        /* \"#utility.yul\":9632:9638   */\n      dup3\n        /* \"#utility.yul\":9621:9630   */\n      dup8\n        /* \"#utility.yul\":9617:9639   */\n      add\n        /* \"#utility.yul\":9599:9649   */\n      tag_287\n      jump\t// in\n    tag_439:\n        /* \"#utility.yul\":9589:9649   */\n      swap2\n      pop\n        /* \"#utility.yul\":9544:9659   */\n      pop\n        /* \"#utility.yul\":9053:9666   */\n      swap3\n      pop\n      swap3\n      pop\n      swap3\n      jump\t// out\n        /* \"#utility.yul\":9672:11117   */\n    tag_89:\n        /* \"#utility.yul\":9794:9800   */\n      0x00\n        /* \"#utility.yul\":9802:9808   */\n      dup1\n        /* \"#utility.yul\":9810:9816   */\n      0x00\n        /* \"#utility.yul\":9818:9824   */\n      dup1\n        /* \"#utility.yul\":9826:9832   */\n      0x00\n        /* \"#utility.yul\":9875:9878   */\n      0xa0\n        /* \"#utility.yul\":9863:9872   */\n      dup7\n        /* \"#utility.yul\":9854:9861   */\n      dup9\n        /* \"#utility.yul\":9850:9873   */\n      sub\n        /* \"#utility.yul\":9846:9879   */\n      slt\n        /* \"#utility.yul\":9843:9963   */\n      iszero\n      tag_441\n      jumpi\n        /* \"#utility.yul\":9882:9961   */\n      tag_442\n      tag_265\n      jump\t// in\n    tag_442:\n        /* \"#utility.yul\":9843:9963   */\n    tag_441:\n        /* \"#utility.yul\":10002:10003   */\n      0x00\n        /* \"#utility.yul\":10027:10080   */\n      tag_443\n        /* \"#utility.yul\":10072:10079   */\n      dup9\n        /* \"#utility.yul\":10063:10069   */\n      dup3\n        /* \"#utility.yul\":10052:10061   */\n      dup10\n        /* \"#utility.yul\":10048:10070   */\n      add\n        /* \"#utility.yul\":10027:10080   */\n      tag_275\n      jump\t// in\n    tag_443:\n        /* \"#utility.yul\":10017:10080   */\n      swap6\n      pop\n        /* \"#utility.yul\":9973:10090   */\n      pop\n        /* \"#utility.yul\":10157:10159   */\n      0x20\n        /* \"#utility.yul\":10146:10155   */\n      dup7\n        /* \"#utility.yul\":10142:10160   */\n      add\n        /* \"#utility.yul\":10129:10161   */\n      calldataload\n        /* \"#utility.yul\":10188:10206   */\n      0xffffffffffffffff\n        /* \"#utility.yul\":10180:10186   */\n      dup2\n        /* \"#utility.yul\":10177:10207   */\n      gt\n        /* \"#utility.yul\":10174:10291   */\n      iszero\n      tag_444\n      jumpi\n        /* \"#utility.yul\":10210:10289   */\n      tag_445\n      tag_266\n      jump\t// in\n    tag_445:\n        /* \"#utility.yul\":10174:10291   */\n    tag_444:\n        /* \"#utility.yul\":10315:10378   */\n      tag_446\n        /* \"#utility.yul\":10370:10377   */\n      dup9\n        /* \"#utility.yul\":10361:10367   */\n      dup3\n        /* \"#utility.yul\":10350:10359   */\n      dup10\n        /* \"#utility.yul\":10346:10368   */\n      add\n        /* \"#utility.yul\":10315:10378   */\n      tag_285\n      jump\t// in\n    tag_446:\n        /* \"#utility.yul\":10305:10378   */\n      swap5\n      pop\n        /* \"#utility.yul\":10100:10388   */\n      pop\n        /* \"#utility.yul\":10455:10457   */\n      0x40\n        /* \"#utility.yul\":10444:10453   */\n      dup7\n        /* \"#utility.yul\":10440:10458   */\n      add\n        /* \"#utility.yul\":10427:10459   */\n      calldataload\n        /* \"#utility.yul\":10486:10504   */\n      0xffffffffffffffff\n        /* \"#utility.yul\":10478:10484   */\n      dup2\n        /* \"#utility.yul\":10475:10505   */\n      gt\n        /* \"#utility.yul\":10472:10589   */\n      iszero\n      tag_447\n      jumpi\n        /* \"#utility.yul\":10508:10587   */\n      tag_448\n      tag_266\n      jump\t// in\n    tag_448:\n        /* \"#utility.yul\":10472:10589   */\n    tag_447:\n        /* \"#utility.yul\":10613:10676   */\n      tag_449\n        /* \"#utility.yul\":10668:10675   */\n      dup9\n        /* \"#utility.yul\":10659:10665   */\n      dup3\n        /* \"#utility.yul\":10648:10657   */\n      dup10\n        /* \"#utility.yul\":10644:10666   */\n      add\n        /* \"#utility.yul\":10613:10676   */\n      tag_285\n      jump\t// in\n    tag_449:\n        /* \"#utility.yul\":10603:10676   */\n      swap4\n      pop\n        /* \"#utility.yul\":10398:10686   */\n      pop\n        /* \"#utility.yul\":10753:10755   */\n      0x60\n        /* \"#utility.yul\":10742:10751   */\n      dup7\n        /* \"#utility.yul\":10738:10756   */\n      add\n        /* \"#utility.yul\":10725:10757   */\n      calldataload\n        /* \"#utility.yul\":10784:10802   */\n      0xffffffffffffffff\n        /* \"#utility.yul\":10776:10782   */\n      dup2\n        /* \"#utility.yul\":10773:10803   */\n      gt\n        /* \"#utility.yul\":10770:10887   */\n      iszero\n      tag_450\n      jumpi\n        /* \"#utility.yul\":10806:10885   */\n      tag_451\n      tag_266\n      jump\t// in\n    tag_451:\n        /* \"#utility.yul\":10770:10887   */\n    tag_450:\n        /* \"#utility.yul\":10911:10974   */\n      tag_452\n        /* \"#utility.yul\":10966:10973   */\n      dup9\n        /* \"#utility.yul\":10957:10963   */\n      dup3\n        /* \"#utility.yul\":10946:10955   */\n      dup10\n        /* \"#utility.yul\":10942:10964   */\n      add\n        /* \"#utility.yul\":10911:10974   */\n      tag_285\n      jump\t// in\n    tag_452:\n        /* \"#utility.yul\":10901:10974   */\n      swap3\n      pop\n        /* \"#utility.yul\":10696:10984   */\n      pop\n        /* \"#utility.yul\":11023:11026   */\n      0x80\n        /* \"#utility.yul\":11050:11100   */\n      tag_453\n        /* \"#utility.yul\":11092:11099   */\n      dup9\n        /* \"#utility.yul\":11083:11089   */\n      dup3\n        /* \"#utility.yul\":11072:11081   */\n      dup10\n        /* \"#utility.yul\":11068:11090   */\n      add\n        /* \"#utility.yul\":11050:11100   */\n      tag_287\n      jump\t// in\n    tag_453:\n        /* \"#utility.yul\":11040:11100   */\n      swap2\n      pop\n        /* \"#utility.yul\":10994:11110   */\n      pop\n        /* \"#utility.yul\":9672:11117   */\n      swap3\n      swap6\n      pop\n      swap3\n      swap6\n      swap1\n      swap4\n      pop\n      jump\t// out\n        /* \"#utility.yul\":11123:11292   */\n    tag_295:\n        /* \"#utility.yul\":11263:11284   */\n      0x446f63756d656e74206e6f7420666f756e642e00000000000000000000000000\n        /* \"#utility.yul\":11259:11260   */\n      0x00\n        /* \"#utility.yul\":11251:11257   */\n      dup3\n        /* \"#utility.yul\":11247:11261   */\n      add\n        /* \"#utility.yul\":11240:11285   */\n      mstore\n        /* \"#utility.yul\":11123:11292   */\n      pop\n      jump\t// out\n        /* \"#utility.yul\":11298:11664   */\n    tag_296:\n        /* \"#utility.yul\":11440:11443   */\n      0x00\n        /* \"#utility.yul\":11461:11528   */\n      tag_456\n        /* \"#utility.yul\":11525:11527   */\n      0x13\n        /* \"#utility.yul\":11520:11523   */\n      dup4\n        /* \"#utility.yul\":11461:11528   */\n      tag_292\n      jump\t// in\n    tag_456:\n        /* \"#utility.yul\":11454:11528   */\n      swap2\n      pop\n        /* \"#utility.yul\":11537:11630   */\n      tag_457\n        /* \"#utility.yul\":11626:11629   */\n      dup3\n        /* \"#utility.yul\":11537:11630   */\n      tag_295\n      jump\t// in\n    tag_457:\n        /* \"#utility.yul\":11655:11657   */\n      0x20\n        /* \"#utility.yul\":11650:11653   */\n      dup3\n        /* \"#utility.yul\":11646:11658   */\n      add\n        /* \"#utility.yul\":11639:11658   */\n      swap1\n      pop\n        /* \"#utility.yul\":11298:11664   */\n      swap2\n      swap1\n      pop\n      jump\t// out\n        /* \"#utility.yul\":11670:12089   */\n    tag_130:\n        /* \"#utility.yul\":11836:11840   */\n      0x00\n        /* \"#utility.yul\":11874:11876   */\n      0x20\n        /* \"#utility.yul\":11863:11872   */\n      dup3\n        /* \"#utility.yul\":11859:11877   */\n      add\n        /* \"#utility.yul\":11851:11877   */\n      swap1\n      pop\n        /* \"#utility.yul\":11923:11932   */\n      dup2\n        /* \"#utility.yul\":11917:11921   */\n      dup2\n        /* \"#utility.yul\":11913:11933   */\n      sub\n        /* \"#utility.yul\":11909:11910   */\n      0x00\n        /* \"#utility.yul\":11898:11907   */\n      dup4\n        /* \"#utility.yul\":11894:11911   */\n      add\n        /* \"#utility.yul\":11887:11934   */\n      mstore\n        /* \"#utility.yul\":11951:12082   */\n      tag_459\n        /* \"#utility.yul\":12077:12081   */\n      dup2\n        /* \"#utility.yul\":11951:12082   */\n      tag_296\n      jump\t// in\n    tag_459:\n        /* \"#utility.yul\":11943:12082   */\n      swap1\n      pop\n        /* \"#utility.yul\":11670:12089   */\n      swap2\n      swap1\n      pop\n      jump\t// out\n        /* \"#utility.yul\":12095:12275   */\n    tag_297:\n        /* \"#utility.yul\":12143:12220   */\n      0x4e487b7100000000000000000000000000000000000000000000000000000000\n        /* \"#utility.yul\":12140:12141   */\n      0x00\n        /* \"#utility.yul\":12133:12221   */\n      mstore\n        /* \"#utility.yul\":12240:12244   */\n      0x22\n        /* \"#utility.yul\":12237:12238   */\n      0x04\n        /* \"#utility.yul\":12230:12245   */\n      mstore\n        /* \"#utility.yul\":12264:12268   */\n      0x24\n        /* \"#utility.yul\":12261:12262   */\n      0x00\n        /* \"#utility.yul\":12254:12269   */\n      revert\n        /* \"#utility.yul\":12281:12601   */\n    tag_132:\n        /* \"#utility.yul\":12325:12331   */\n      0x00\n        /* \"#utility.yul\":12362:12363   */\n      0x02\n        /* \"#utility.yul\":12356:12360   */\n      dup3\n        /* \"#utility.yul\":12352:12364   */\n      div\n        /* \"#utility.yul\":12342:12364   */\n      swap1\n      pop\n        /* \"#utility.yul\":12409:12410   */\n      0x01\n        /* \"#utility.yul\":12403:12407   */\n      dup3\n        /* \"#utility.yul\":12399:12411   */\n      and\n        /* \"#utility.yul\":12430:12448   */\n      dup1\n        /* \"#utility.yul\":12420:12501   */\n      tag_462\n      jumpi\n        /* \"#utility.yul\":12486:12490   */\n      0x7f\n        /* \"#utility.yul\":12478:12484   */\n      dup3\n        /* \"#utility.yul\":12474:12491   */\n      and\n        /* \"#utility.yul\":12464:12491   */\n      swap2\n      pop\n        /* \"#utility.yul\":12420:12501   */\n    tag_462:\n        /* \"#utility.yul\":12548:12550   */\n      0x20\n        /* \"#utility.yul\":12540:12546   */\n      dup3\n        /* \"#utility.yul\":12537:12551   */\n      lt\n        /* \"#utility.yul\":12517:12535   */\n      dup2\n        /* \"#utility.yul\":12514:12552   */\n      sub\n        /* \"#utility.yul\":12511:12595   */\n      tag_463\n      jumpi\n        /* \"#utility.yul\":12567:12585   */\n      tag_464\n      tag_297\n      jump\t// in\n    tag_464:\n        /* \"#utility.yul\":12511:12595   */\n    tag_463:\n        /* \"#utility.yul\":12332:12601   */\n      pop\n        /* \"#utility.yul\":12281:12601   */\n      swap2\n      swap1\n      pop\n      jump\t// out\n        /* \"#utility.yul\":12607:12840   */\n    tag_298:\n        /* \"#utility.yul\":12747:12781   */\n      0x4761736c657373207472616e73616374696f6e73206e6f7420656e61626c6564\n        /* \"#utility.yul\":12743:12744   */\n      0x00\n        /* \"#utility.yul\":12735:12741   */\n      dup3\n        /* \"#utility.yul\":12731:12745   */\n      add\n        /* \"#utility.yul\":12724:12782   */\n      mstore\n        /* \"#utility.yul\":12816:12832   */\n      0x20666f7220746869732075736572000000000000000000000000000000000000\n        /* \"#utility.yul\":12811:12813   */\n      0x20\n        /* \"#utility.yul\":12803:12809   */\n      dup3\n        /* \"#utility.yul\":12799:12814   */\n      add\n        /* \"#utility.yul\":12792:12833   */\n      mstore\n        /* \"#utility.yul\":12607:12840   */\n      pop\n      jump\t// out\n        /* \"#utility.yul\":12846:13212   */\n    tag_299:\n        /* \"#utility.yul\":12988:12991   */\n      0x00\n        /* \"#utility.yul\":13009:13076   */\n      tag_467\n        /* \"#utility.yul\":13073:13075   */\n      0x2e\n        /* \"#utility.yul\":13068:13071   */\n      dup4\n        /* \"#utility.yul\":13009:13076   */\n      tag_292\n      jump\t// in\n    tag_467:\n        /* \"#utility.yul\":13002:13076   */\n      swap2\n      pop\n        /* \"#utility.yul\":13085:13178   */\n      tag_468\n        /* \"#utility.yul\":13174:13177   */\n      dup3\n        /* \"#utility.yul\":13085:13178   */\n      tag_298\n      jump\t// in\n    tag_468:\n        /* \"#utility.yul\":13203:13205   */\n      0x40\n        /* \"#utility.yul\":13198:13201   */\n      dup3\n        /* \"#utility.yul\":13194:13206   */\n      add\n        /* \"#utility.yul\":13187:13206   */\n      swap1\n      pop\n        /* \"#utility.yul\":12846:13212   */\n      swap2\n      swap1\n      pop\n      jump\t// out\n        /* \"#utility.yul\":13218:13637   */\n    tag_166:\n        /* \"#utility.yul\":13384:13388   */\n      0x00\n        /* \"#utility.yul\":13422:13424   */\n      0x20\n        /* \"#utility.yul\":13411:13420   */\n      dup3\n        /* \"#utility.yul\":13407:13425   */\n      add\n        /* \"#utility.yul\":13399:13425   */\n      swap1\n      pop\n        /* \"#utility.yul\":13471:13480   */\n      dup2\n        /* \"#utility.yul\":13465:13469   */\n      dup2\n        /* \"#utility.yul\":13461:13481   */\n      sub\n        /* \"#utility.yul\":13457:13458   */\n      0x00\n        /* \"#utility.yul\":13446:13455   */\n      dup4\n        /* \"#utility.yul\":13442:13459   */\n      add\n        /* \"#utility.yul\":13435:13482   */\n      mstore\n        /* \"#utility.yul\":13499:13630   */\n      tag_470\n        /* \"#utility.yul\":13625:13629   */\n      dup2\n        /* \"#utility.yul\":13499:13630   */\n      tag_299\n      jump\t// in\n    tag_470:\n        /* \"#utility.yul\":13491:13630   */\n      swap1\n      pop\n        /* \"#utility.yul\":13218:13637   */\n      swap2\n      swap1\n      pop\n      jump\t// out\n        /* \"#utility.yul\":13643:13868   */\n    tag_300:\n        /* \"#utility.yul\":13783:13817   */\n      0x4f6e6c7920746865206f776e65722063616e207472616e73666572206f776e65\n        /* \"#utility.yul\":13779:13780   */\n      0x00\n        /* \"#utility.yul\":13771:13777   */\n      dup3\n        /* \"#utility.yul\":13767:13781   */\n      add\n        /* \"#utility.yul\":13760:13818   */\n      mstore\n        /* \"#utility.yul\":13852:13860   */\n      0x72736869702e0000000000000000000000000000000000000000000000000000\n        /* \"#utility.yul\":13847:13849   */\n      0x20\n        /* \"#utility.yul\":13839:13845   */\n      dup3\n        /* \"#utility.yul\":13835:13850   */\n      add\n        /* \"#utility.yul\":13828:13861   */\n      mstore\n        /* \"#utility.yul\":13643:13868   */\n      pop\n      jump\t// out\n        /* \"#utility.yul\":13874:14240   */\n    tag_301:\n        /* \"#utility.yul\":14016:14019   */\n      0x00\n        /* \"#utility.yul\":14037:14104   */\n      tag_473\n        /* \"#utility.yul\":14101:14103   */\n      0x26\n        /* \"#utility.yul\":14096:14099   */\n      dup4\n        /* \"#utility.yul\":14037:14104   */\n      tag_292\n      jump\t// in\n    tag_473:\n        /* \"#utility.yul\":14030:14104   */\n      swap2\n      pop\n        /* \"#utility.yul\":14113:14206   */\n      tag_474\n        /* \"#utility.yul\":14202:14205   */\n      dup3\n        /* \"#utility.yul\":14113:14206   */\n      tag_300\n      jump\t// in\n    tag_474:\n        /* \"#utility.yul\":14231:14233   */\n      0x40\n        /* \"#utility.yul\":14226:14229   */\n      dup3\n        /* \"#utility.yul\":14222:14234   */\n      add\n        /* \"#utility.yul\":14215:14234   */\n      swap1\n      pop\n        /* \"#utility.yul\":13874:14240   */\n      swap2\n      swap1\n      pop\n      jump\t// out\n        /* \"#utility.yul\":14246:14665   */\n    tag_170:\n        /* \"#utility.yul\":14412:14416   */\n      0x00\n        /* \"#utility.yul\":14450:14452   */\n      0x20\n        /* \"#utility.yul\":14439:14448   */\n      dup3\n        /* \"#utility.yul\":14435:14453   */\n      add\n        /* \"#utility.yul\":14427:14453   */\n      swap1\n      pop\n        /* \"#utility.yul\":14499:14508   */\n      dup2\n        /* \"#utility.yul\":14493:14497   */\n      dup2\n        /* \"#utility.yul\":14489:14509   */\n      sub\n        /* \"#utility.yul\":14485:14486   */\n      0x00\n        /* \"#utility.yul\":14474:14483   */\n      dup4\n        /* \"#utility.yul\":14470:14487   */\n      add\n        /* \"#utility.yul\":14463:14510   */\n      mstore\n        /* \"#utility.yul\":14527:14658   */\n      tag_476\n        /* \"#utility.yul\":14653:14657   */\n      dup2\n        /* \"#utility.yul\":14527:14658   */\n      tag_301\n      jump\t// in\n    tag_476:\n        /* \"#utility.yul\":14519:14658   */\n      swap1\n      pop\n        /* \"#utility.yul\":14246:14665   */\n      swap2\n      swap1\n      pop\n      jump\t// out\n        /* \"#utility.yul\":14671:14895   */\n    tag_302:\n        /* \"#utility.yul\":14811:14845   */\n      0x4e6577206f776e65722063616e6e6f7420626520746865207a65726f20616464\n        /* \"#utility.yul\":14807:14808   */\n      0x00\n        /* \"#utility.yul\":14799:14805   */\n      dup3\n        /* \"#utility.yul\":14795:14809   */\n      add\n        /* \"#utility.yul\":14788:14846   */\n      mstore\n        /* \"#utility.yul\":14880:14887   */\n      0x726573732e000000000000000000000000000000000000000000000000000000\n        /* \"#utility.yul\":14875:14877   */\n      0x20\n        /* \"#utility.yul\":14867:14873   */\n      dup3\n        /* \"#utility.yul\":14863:14878   */\n      add\n        /* \"#utility.yul\":14856:14888   */\n      mstore\n        /* \"#utility.yul\":14671:14895   */\n      pop\n      jump\t// out\n        /* \"#utility.yul\":14901:15267   */\n    tag_303:\n        /* \"#utility.yul\":15043:15046   */\n      0x00\n        /* \"#utility.yul\":15064:15131   */\n      tag_479\n        /* \"#utility.yul\":15128:15130   */\n      0x25\n        /* \"#utility.yul\":15123:15126   */\n      dup4\n        /* \"#utility.yul\":15064:15131   */\n      tag_292\n      jump\t// in\n    tag_479:\n        /* \"#utility.yul\":15057:15131   */\n      swap2\n      pop\n        /* \"#utility.yul\":15140:15233   */\n      tag_480\n        /* \"#utility.yul\":15229:15232   */\n      dup3\n        /* \"#utility.yul\":15140:15233   */\n      tag_302\n      jump\t// in\n    tag_480:\n        /* \"#utility.yul\":15258:15260   */\n      0x40\n        /* \"#utility.yul\":15253:15256   */\n      dup3\n        /* \"#utility.yul\":15249:15261   */\n      add\n        /* \"#utility.yul\":15242:15261   */\n      swap1\n      pop\n        /* \"#utility.yul\":14901:15267   */\n      swap2\n      swap1\n      pop\n      jump\t// out\n        /* \"#utility.yul\":15273:15692   */\n    tag_176:\n        /* \"#utility.yul\":15439:15443   */\n      0x00\n        /* \"#utility.yul\":15477:15479   */\n      0x20\n        /* \"#utility.yul\":15466:15475   */\n      dup3\n        /* \"#utility.yul\":15462:15480   */\n      add\n        /* \"#utility.yul\":15454:15480   */\n      swap1\n      pop\n        /* \"#utility.yul\":15526:15535   */\n      dup2\n        /* \"#utility.yul\":15520:15524   */\n      dup2\n        /* \"#utility.yul\":15516:15536   */\n      sub\n        /* \"#utility.yul\":15512:15513   */\n      0x00\n        /* \"#utility.yul\":15501:15510   */\n      dup4\n        /* \"#utility.yul\":15497:15514   */\n      add\n        /* \"#utility.yul\":15490:15537   */\n      mstore\n        /* \"#utility.yul\":15554:15685   */\n      tag_482\n        /* \"#utility.yul\":15680:15684   */\n      dup2\n        /* \"#utility.yul\":15554:15685   */\n      tag_303\n      jump\t// in\n    tag_482:\n        /* \"#utility.yul\":15546:15685   */\n      swap1\n      pop\n        /* \"#utility.yul\":15273:15692   */\n      swap2\n      swap1\n      pop\n      jump\t// out\n        /* \"#utility.yul\":15698:15876   */\n    tag_304:\n        /* \"#utility.yul\":15838:15868   */\n      0x446f63756d656e7420616c726561647920726567697374657265642e00000000\n        /* \"#utility.yul\":15834:15835   */\n      0x00\n        /* \"#utility.yul\":15826:15832   */\n      dup3\n        /* \"#utility.yul\":15822:15836   */\n      add\n        /* \"#utility.yul\":15815:15869   */\n      mstore\n        /* \"#utility.yul\":15698:15876   */\n      pop\n      jump\t// out\n        /* \"#utility.yul\":15882:16248   */\n    tag_305:\n        /* \"#utility.yul\":16024:16027   */\n      0x00\n        /* \"#utility.yul\":16045:16112   */\n      tag_485\n        /* \"#utility.yul\":16109:16111   */\n      0x1c\n        /* \"#utility.yul\":16104:16107   */\n      dup4\n        /* \"#utility.yul\":16045:16112   */\n      tag_292\n      jump\t// in\n    tag_485:\n        /* \"#utility.yul\":16038:16112   */\n      swap2\n      pop\n        /* \"#utility.yul\":16121:16214   */\n      tag_486\n        /* \"#utility.yul\":16210:16213   */\n      dup3\n        /* \"#utility.yul\":16121:16214   */\n      tag_304\n      jump\t// in\n    tag_486:\n        /* \"#utility.yul\":16239:16241   */\n      0x20\n        /* \"#utility.yul\":16234:16237   */\n      dup3\n        /* \"#utility.yul\":16230:16242   */\n      add\n        /* \"#utility.yul\":16223:16242   */\n      swap1\n      pop\n        /* \"#utility.yul\":15882:16248   */\n      swap2\n      swap1\n      pop\n      jump\t// out\n        /* \"#utility.yul\":16254:16673   */\n    tag_188:\n        /* \"#utility.yul\":16420:16424   */\n      0x00\n        /* \"#utility.yul\":16458:16460   */\n      0x20\n        /* \"#utility.yul\":16447:16456   */\n      dup3\n        /* \"#utility.yul\":16443:16461   */\n      add\n        /* \"#utility.yul\":16435:16461   */\n      swap1\n      pop\n        /* \"#utility.yul\":16507:16516   */\n      dup2\n        /* \"#utility.yul\":16501:16505   */\n      dup2\n        /* \"#utility.yul\":16497:16517   */\n      sub\n        /* \"#utility.yul\":16493:16494   */\n      0x00\n        /* \"#utility.yul\":16482:16491   */\n      dup4\n        /* \"#utility.yul\":16478:16495   */\n      add\n        /* \"#utility.yul\":16471:16518   */\n      mstore\n        /* \"#utility.yul\":16535:16666   */\n      tag_488\n        /* \"#utility.yul\":16661:16665   */\n      dup2\n        /* \"#utility.yul\":16535:16666   */\n      tag_305\n      jump\t// in\n    tag_488:\n        /* \"#utility.yul\":16527:16666   */\n      swap1\n      pop\n        /* \"#utility.yul\":16254:16673   */\n      swap2\n      swap1\n      pop\n      jump\t// out\n        /* \"#utility.yul\":16679:16820   */\n    tag_306:\n        /* \"#utility.yul\":16728:16732   */\n      0x00\n        /* \"#utility.yul\":16751:16754   */\n      dup2\n        /* \"#utility.yul\":16743:16754   */\n      swap1\n      pop\n        /* \"#utility.yul\":16774:16777   */\n      dup2\n        /* \"#utility.yul\":16771:16772   */\n      0x00\n        /* \"#utility.yul\":16764:16778   */\n      mstore\n        /* \"#utility.yul\":16808:16812   */\n      0x20\n        /* \"#utility.yul\":16805:16806   */\n      0x00\n        /* \"#utility.yul\":16795:16813   */\n      keccak256\n        /* \"#utility.yul\":16787:16813   */\n      swap1\n      pop\n        /* \"#utility.yul\":16679:16820   */\n      swap2\n      swap1\n      pop\n      jump\t// out\n        /* \"#utility.yul\":16826:16919   */\n    tag_307:\n        /* \"#utility.yul\":16863:16869   */\n      0x00\n        /* \"#utility.yul\":16910:16912   */\n      0x20\n        /* \"#utility.yul\":16905:16907   */\n      0x1f\n        /* \"#utility.yul\":16898:16903   */\n      dup4\n        /* \"#utility.yul\":16894:16908   */\n      add\n        /* \"#utility.yul\":16890:16913   */\n      div\n        /* \"#utility.yul\":16880:16913   */\n      swap1\n      pop\n        /* \"#utility.yul\":16826:16919   */\n      swap2\n      swap1\n      pop\n      jump\t// out\n        /* \"#utility.yul\":16925:17032   */\n    tag_308:\n        /* \"#utility.yul\":16969:16977   */\n      0x00\n        /* \"#utility.yul\":17019:17024   */\n      dup3\n        /* \"#utility.yul\":17013:17017   */\n      dup3\n        /* \"#utility.yul\":17009:17025   */\n      shl\n        /* \"#utility.yul\":16988:17025   */\n      swap1\n      pop\n        /* \"#utility.yul\":16925:17032   */\n      swap3\n      swap2\n      pop\n      pop\n      jump\t// out\n        /* \"#utility.yul\":17038:17431   */\n    tag_309:\n        /* \"#utility.yul\":17107:17113   */\n      0x00\n        /* \"#utility.yul\":17157:17158   */\n      0x08\n        /* \"#utility.yul\":17145:17155   */\n      dup4\n        /* \"#utility.yul\":17141:17159   */\n      mul\n        /* \"#utility.yul\":17180:17277   */\n      tag_493\n        /* \"#utility.yul\":17210:17276   */\n      0xffffffffffffffffffffffffffffffffffffffffffffffffffffffffffffffff\n        /* \"#utility.yul\":17199:17208   */\n      dup3\n        /* \"#utility.yul\":17180:17277   */\n      tag_308\n      jump\t// in\n    tag_493:\n        /* \"#utility.yul\":17298:17337   */\n      tag_494\n        /* \"#utility.yul\":17328:17336   */\n      dup7\n        /* \"#utility.yul\":17317:17326   */\n      dup4\n        /* \"#utility.yul\":17298:17337   */\n      tag_308\n      jump\t// in\n    tag_494:\n        /* \"#utility.yul\":17286:17337   */\n      swap6\n      pop\n        /* \"#utility.yul\":17370:17374   */\n      dup1\n        /* \"#utility.yul\":17366:17375   */\n      not\n        /* \"#utility.yul\":17359:17364   */\n      dup5\n        /* \"#utility.yul\":17355:17376   */\n      and\n        /* \"#utility.yul\":17346:17376   */\n      swap4\n      pop\n        /* \"#utility.yul\":17419:17423   */\n      dup1\n        /* \"#utility.yul\":17409:17417   */\n      dup7\n        /* \"#utility.yul\":17405:17424   */\n      and\n        /* \"#utility.yul\":17398:17403   */\n      dup5\n        /* \"#utility.yul\":17395:17425   */\n      or\n        /* \"#utility.yul\":17385:17425   */\n      swap3\n      pop\n        /* \"#utility.yul\":17114:17431   */\n      pop\n      pop\n        /* \"#utility.yul\":17038:17431   */\n      swap4\n      swap3\n      pop\n      pop\n      pop\n      jump\t// out\n        /* \"#utility.yul\":17437:17497   */\n    tag_310:\n        /* \"#utility.yul\":17465:17468   */\n      0x00\n        /* \"#utility.yul\":17486:17491   */\n      dup2\n        /* \"#utility.yul\":17479:17491   */\n      swap1\n      pop\n        /* \"#utility.yul\":17437:17497   */\n      swap2\n      swap1\n      pop\n      jump\t// out\n        /* \"#utility.yul\":17503:17645   */\n    tag_311:\n        /* \"#utility.yul\":17553:17562   */\n      0x00\n        /* \"#utility.yul\":17586:17639   */\n      tag_497\n        /* \"#utility.yul\":17604:17638   */\n      tag_498\n        /* \"#utility.yul\":17613:17637   */\n      tag_499\n        /* \"#utility.yul\":17631:17636   */\n      dup5\n        /* \"#utility.yul\":17613:17637   */\n      tag_289\n      jump\t// in\n    tag_499:\n        /* \"#utility.yul\":17604:17638   */\n      tag_310\n      jump\t// in\n    tag_498:\n        /* \"#utility.yul\":17586:17639   */\n      tag_289\n      jump\t// in\n    tag_497:\n        /* \"#utility.yul\":17573:17639   */\n      swap1\n      pop\n        /* \"#utility.yul\":17503:17645   */\n      swap2\n      swap1\n      pop\n      jump\t// out\n        /* \"#utility.yul\":17651:17726   */\n    tag_312:\n        /* \"#utility.yul\":17694:17697   */\n      0x00\n        /* \"#utility.yul\":17715:17720   */\n      dup2\n        /* \"#utility.yul\":17708:17720   */\n      swap1\n      pop\n        /* \"#utility.yul\":17651:17726   */\n      swap2\n      swap1\n      pop\n      jump\t// out\n        /* \"#utility.yul\":17732:18001   */\n    tag_313:\n        /* \"#utility.yul\":17842:17881   */\n      tag_502\n        /* \"#utility.yul\":17873:17880   */\n      dup4\n        /* \"#utility.yul\":17842:17881   */\n      tag_311\n      jump\t// in\n    tag_502:\n        /* \"#utility.yul\":17903:17994   */\n      tag_503\n        /* \"#utility.yul\":17952:17993   */\n      tag_504\n        /* \"#utility.yul\":17976:17992   */\n      dup3\n        /* \"#utility.yul\":17952:17993   */\n      tag_312\n      jump\t// in\n    tag_504:\n        /* \"#utility.yul\":17944:17950   */\n      dup5\n        /* \"#utility.yul\":17937:17941   */\n      dup5\n        /* \"#utility.yul\":17931:17942   */\n      sload\n        /* \"#utility.yul\":17903:17994   */\n      tag_309\n      jump\t// in\n    tag_503:\n        /* \"#utility.yul\":17897:17901   */\n      dup3\n        /* \"#utility.yul\":17890:17995   */\n      sstore\n        /* \"#utility.yul\":17808:18001   */\n      pop\n        /* \"#utility.yul\":17732:18001   */\n      pop\n      pop\n      pop\n      jump\t// out\n        /* \"#utility.yul\":18007:18080   */\n    tag_314:\n        /* \"#utility.yul\":18052:18055   */\n      0x00\n        /* \"#utility.yul\":18007:18080   */\n      swap1\n      jump\t// out\n        /* \"#utility.yul\":18086:18275   */\n    tag_315:\n        /* \"#utility.yul\":18163:18195   */\n      tag_507\n      tag_314\n      jump\t// in\n    tag_507:\n        /* \"#utility.yul\":18204:18269   */\n      tag_508\n        /* \"#utility.yul\":18262:18268   */\n      dup2\n        /* \"#utility.yul\":18254:18260   */\n      dup5\n        /* \"#utility.yul\":18248:18252   */\n      dup5\n        /* \"#utility.yul\":18204:18269   */\n      tag_313\n      jump\t// in\n    tag_508:\n        /* \"#utility.yul\":18139:18275   */\n      pop\n        /* \"#utility.yul\":18086:18275   */\n      pop\n      pop\n      jump\t// out\n        /* \"#utility.yul\":18281:18467   */\n    tag_316:\n        /* \"#utility.yul\":18341:18461   */\n    tag_510:\n        /* \"#utility.yul\":18358:18361   */\n      dup2\n        /* \"#utility.yul\":18351:18356   */\n      dup2\n        /* \"#utility.yul\":18348:18362   */\n      lt\n        /* \"#utility.yul\":18341:18461   */\n      iszero\n      tag_512\n      jumpi\n        /* \"#utility.yul\":18412:18451   */\n      tag_513\n        /* \"#utility.yul\":18449:18450   */\n      0x00\n        /* \"#utility.yul\":18442:18447   */\n      dup3\n        /* \"#utility.yul\":18412:18451   */\n      tag_315\n      jump\t// in\n    tag_513:\n        /* \"#utility.yul\":18385:18386   */\n      0x01\n        /* \"#utility.yul\":18378:18383   */\n      dup2\n        /* \"#utility.yul\":18374:18387   */\n      add\n        /* \"#utility.yul\":18365:18387   */\n      swap1\n      pop\n        /* \"#utility.yul\":18341:18461   */\n      jump(tag_510)\n    tag_512:\n        /* \"#utility.yul\":18281:18467   */\n      pop\n      pop\n      jump\t// out\n        /* \"#utility.yul\":18473:19016   */\n    tag_317:\n        /* \"#utility.yul\":18574:18576   */\n      0x1f\n        /* \"#utility.yul\":18569:18572   */\n      dup3\n        /* \"#utility.yul\":18566:18577   */\n      gt\n        /* \"#utility.yul\":18563:19009   */\n      iszero\n      tag_515\n      jumpi\n        /* \"#utility.yul\":18608:18646   */\n      tag_516\n        /* \"#utility.yul\":18640:18645   */\n      dup2\n        /* \"#utility.yul\":18608:18646   */\n      tag_306\n      jump\t// in\n    tag_516:\n        /* \"#utility.yul\":18692:18721   */\n      tag_517\n        /* \"#utility.yul\":18710:18720   */\n      dup5\n        /* \"#utility.yul\":18692:18721   */\n      tag_307\n      jump\t// in\n    tag_517:\n        /* \"#utility.yul\":18682:18690   */\n      dup2\n        /* \"#utility.yul\":18678:18722   */\n      add\n        /* \"#utility.yul\":18875:18877   */\n      0x20\n        /* \"#utility.yul\":18863:18873   */\n      dup6\n        /* \"#utility.yul\":18860:18878   */\n      lt\n        /* \"#utility.yul\":18857:18906   */\n      iszero\n      tag_518\n      jumpi\n        /* \"#utility.yul\":18896:18904   */\n      dup2\n        /* \"#utility.yul\":18881:18904   */\n      swap1\n      pop\n        /* \"#utility.yul\":18857:18906   */\n    tag_518:\n        /* \"#utility.yul\":18919:18999   */\n      tag_519\n        /* \"#utility.yul\":18975:18997   */\n      tag_520\n        /* \"#utility.yul\":18993:18996   */\n      dup6\n        /* \"#utility.yul\":18975:18997   */\n      tag_307\n      jump\t// in\n    tag_520:\n        /* \"#utility.yul\":18965:18973   */\n      dup4\n        /* \"#utility.yul\":18961:18998   */\n      add\n        /* \"#utility.yul\":18948:18959   */\n      dup3\n        /* \"#utility.yul\":18919:18999   */\n      tag_316\n      jump\t// in\n    tag_519:\n        /* \"#utility.yul\":18578:19009   */\n      pop\n      pop\n        /* \"#utility.yul\":18563:19009   */\n    tag_515:\n        /* \"#utility.yul\":18473:19016   */\n      pop\n      pop\n      pop\n      jump\t// out\n        /* \"#utility.yul\":19022:19139   */\n    tag_318:\n        /* \"#utility.yul\":19076:19084   */\n      0x00\n        /* \"#utility.yul\":19126:19131   */\n      dup3\n        /* \"#utility.yul\":19120:19124   */\n      dup3\n        /* \"#utility.yul\":19116:19132   */\n      shr\n        /* \"#utility.yul\":19095:19132   */\n      swap1\n      pop\n        /* \"#utility.yul\":19022:19139   */\n      swap3\n      swap2\n      pop\n      pop\n      jump\t// out\n        /* \"#utility.yul\":19145:19314   */\n    tag_319:\n        /* \"#utility.yul\":19189:19195   */\n      0x00\n        /* \"#utility.yul\":19222:19273   */\n      tag_523\n        /* \"#utility.yul\":19270:19271   */\n      0x00\n        /* \"#utility.yul\":19266:19272   */\n      not\n        /* \"#utility.yul\":19258:19263   */\n      dup5\n        /* \"#utility.yul\":19255:19256   */\n      0x08\n        /* \"#utility.yul\":19251:19264   */\n      mul\n        /* \"#utility.yul\":19222:19273   */\n      tag_318\n      jump\t// in\n    tag_523:\n        /* \"#utility.yul\":19218:19274   */\n      not\n        /* \"#utility.yul\":19303:19307   */\n      dup1\n        /* \"#utility.yul\":19297:19301   */\n      dup4\n        /* \"#utility.yul\":19293:19308   */\n      and\n        /* \"#utility.yul\":19283:19308   */\n      swap2\n      pop\n        /* \"#utility.yul\":19196:19314   */\n      pop\n        /* \"#utility.yul\":19145:19314   */\n      swap3\n      swap2\n      pop\n      pop\n      jump\t// out\n        /* \"#utility.yul\":19319:19614   */\n    tag_320:\n        /* \"#utility.yul\":19395:19399   */\n      0x00\n        /* \"#utility.yul\":19541:19570   */\n      tag_525\n        /* \"#utility.yul\":19566:19569   */\n      dup4\n        /* \"#utility.yul\":19560:19564   */\n      dup4\n        /* \"#utility.yul\":19541:19570   */\n      tag_319\n      jump\t// in\n    tag_525:\n        /* \"#utility.yul\":19533:19570   */\n      swap2\n      pop\n        /* \"#utility.yul\":19603:19606   */\n      dup3\n        /* \"#utility.yul\":19600:19601   */\n      0x02\n        /* \"#utility.yul\":19596:19607   */\n      mul\n        /* \"#utility.yul\":19590:19594   */\n      dup3\n        /* \"#utility.yul\":19587:19608   */\n      or\n        /* \"#utility.yul\":19579:19608   */\n      swap1\n      pop\n        /* \"#utility.yul\":19319:19614   */\n      swap3\n      swap2\n      pop\n      pop\n      jump\t// out\n        /* \"#utility.yul\":19619:21014   */\n    tag_195:\n        /* \"#utility.yul\":19736:19773   */\n      tag_527\n        /* \"#utility.yul\":19769:19772   */\n      dup3\n        /* \"#utility.yul\":19736:19773   */\n      tag_291\n      jump\t// in\n    tag_527:\n        /* \"#utility.yul\":19838:19856   */\n      0xffffffffffffffff\n        /* \"#utility.yul\":19830:19836   */\n      dup2\n        /* \"#utility.yul\":19827:19857   */\n      gt\n        /* \"#utility.yul\":19824:19880   */\n      iszero\n      tag_528\n      jumpi\n        /* \"#utility.yul\":19860:19878   */\n      tag_529\n      tag_279\n      jump\t// in\n    tag_529:\n        /* \"#utility.yul\":19824:19880   */\n    tag_528:\n        /* \"#utility.yul\":19904:19942   */\n      tag_530\n        /* \"#utility.yul\":19936:19940   */\n      dup3\n        /* \"#utility.yul\":19930:19941   */\n      sload\n        /* \"#utility.yul\":19904:19942   */\n      tag_132\n      jump\t// in\n    tag_530:\n        /* \"#utility.yul\":19989:20056   */\n      tag_531\n        /* \"#utility.yul\":20049:20055   */\n      dup3\n        /* \"#utility.yul\":20041:20047   */\n      dup3\n        /* \"#utility.yul\":20035:20039   */\n      dup6\n        /* \"#utility.yul\":19989:20056   */\n      tag_317\n      jump\t// in\n    tag_531:\n        /* \"#utility.yul\":20083:20084   */\n      0x00\n        /* \"#utility.yul\":20107:20111   */\n      0x20\n        /* \"#utility.yul\":20094:20111   */\n      swap1\n      pop\n        /* \"#utility.yul\":20139:20141   */\n      0x1f\n        /* \"#utility.yul\":20131:20137   */\n      dup4\n        /* \"#utility.yul\":20128:20142   */\n      gt\n        /* \"#utility.yul\":20156:20157   */\n      0x01\n        /* \"#utility.yul\":20151:20769   */\n      dup2\n      eq\n      tag_533\n      jumpi\n        /* \"#utility.yul\":20813:20814   */\n      0x00\n        /* \"#utility.yul\":20830:20836   */\n      dup5\n        /* \"#utility.yul\":20827:20904   */\n      iszero\n      tag_534\n      jumpi\n        /* \"#utility.yul\":20879:20888   */\n      dup3\n        /* \"#utility.yul\":20874:20877   */\n      dup8\n        /* \"#utility.yul\":20870:20889   */\n      add\n        /* \"#utility.yul\":20864:20890   */\n      mload\n        /* \"#utility.yul\":20855:20890   */\n      swap1\n      pop\n        /* \"#utility.yul\":20827:20904   */\n    tag_534:\n        /* \"#utility.yul\":20930:20997   */\n      tag_535\n        /* \"#utility.yul\":20990:20996   */\n      dup6\n        /* \"#utility.yul\":20983:20988   */\n      dup3\n        /* \"#utility.yul\":20930:20997   */\n      tag_320\n      jump\t// in\n    tag_535:\n        /* \"#utility.yul\":20924:20928   */\n      dup7\n        /* \"#utility.yul\":20917:20998   */\n      sstore\n        /* \"#utility.yul\":20786:21008   */\n      pop\n        /* \"#utility.yul\":20121:21008   */\n      jump(tag_532)\n        /* \"#utility.yul\":20151:20769   */\n    tag_533:\n        /* \"#utility.yul\":20203:20207   */\n      0x1f\n        /* \"#utility.yul\":20199:20208   */\n      not\n        /* \"#utility.yul\":20191:20197   */\n      dup5\n        /* \"#utility.yul\":20187:20209   */\n      and\n        /* \"#utility.yul\":20237:20274   */\n      tag_536\n        /* \"#utility.yul\":20269:20273   */\n      dup7\n        /* \"#utility.yul\":20237:20274   */\n      tag_306\n      jump\t// in\n    tag_536:\n        /* \"#utility.yul\":20296:20297   */\n      0x00\n        /* \"#utility.yul\":20310:20518   */\n    tag_537:\n        /* \"#utility.yul\":20324:20331   */\n      dup3\n        /* \"#utility.yul\":20321:20322   */\n      dup2\n        /* \"#utility.yul\":20318:20332   */\n      lt\n        /* \"#utility.yul\":20310:20518   */\n      iszero\n      tag_539\n      jumpi\n        /* \"#utility.yul\":20403:20412   */\n      dup5\n        /* \"#utility.yul\":20398:20401   */\n      dup10\n        /* \"#utility.yul\":20394:20413   */\n      add\n        /* \"#utility.yul\":20388:20414   */\n      mload\n        /* \"#utility.yul\":20380:20386   */\n      dup3\n        /* \"#utility.yul\":20373:20415   */\n      sstore\n        /* \"#utility.yul\":20454:20455   */\n      0x01\n        /* \"#utility.yul\":20446:20452   */\n      dup3\n        /* \"#utility.yul\":20442:20456   */\n      add\n        /* \"#utility.yul\":20432:20456   */\n      swap2\n      pop\n        /* \"#utility.yul\":20501:20503   */\n      0x20\n        /* \"#utility.yul\":20490:20499   */\n      dup6\n        /* \"#utility.yul\":20486:20504   */\n      add\n        /* \"#utility.yul\":20473:20504   */\n      swap5\n      pop\n        /* \"#utility.yul\":20347:20351   */\n      0x20\n        /* \"#utility.yul\":20344:20345   */\n      dup2\n        /* \"#utility.yul\":20340:20352   */\n      add\n        /* \"#utility.yul\":20335:20352   */\n      swap1\n      pop\n        /* \"#utility.yul\":20310:20518   */\n      jump(tag_537)\n    tag_539:\n        /* \"#utility.yul\":20546:20552   */\n      dup7\n        /* \"#utility.yul\":20537:20544   */\n      dup4\n        /* \"#utility.yul\":20534:20553   */\n      lt\n        /* \"#utility.yul\":20531:20710   */\n      iszero\n      tag_540\n      jumpi\n        /* \"#utility.yul\":20604:20613   */\n      dup5\n        /* \"#utility.yul\":20599:20602   */\n      dup10\n        /* \"#utility.yul\":20595:20614   */\n      add\n        /* \"#utility.yul\":20589:20615   */\n      mload\n        /* \"#utility.yul\":20647:20695   */\n      tag_541\n        /* \"#utility.yul\":20689:20693   */\n      0x1f\n        /* \"#utility.yul\":20681:20687   */\n      dup10\n        /* \"#utility.yul\":20677:20694   */\n      and\n        /* \"#utility.yul\":20666:20675   */\n      dup3\n        /* \"#utility.yul\":20647:20695   */\n      tag_319\n      jump\t// in\n    tag_541:\n        /* \"#utility.yul\":20639:20645   */\n      dup4\n        /* \"#utility.yul\":20632:20696   */\n      sstore\n        /* \"#utility.yul\":20554:20710   */\n      pop\n        /* \"#utility.yul\":20531:20710   */\n    tag_540:\n        /* \"#utility.yul\":20756:20757   */\n      0x01\n        /* \"#utility.yul\":20752:20753   */\n      0x02\n        /* \"#utility.yul\":20744:20750   */\n      dup9\n        /* \"#utility.yul\":20740:20754   */\n      mul\n        /* \"#utility.yul\":20736:20758   */\n      add\n        /* \"#utility.yul\":20730:20734   */\n      dup9\n        /* \"#utility.yul\":20723:20759   */\n      sstore\n        /* \"#utility.yul\":20158:20769   */\n      pop\n      pop\n      pop\n        /* \"#utility.yul\":20121:21008   */\n    tag_532:\n      pop\n        /* \"#utility.yul\":19711:21014   */\n      pop\n      pop\n      pop\n        /* \"#utility.yul\":19619:21014   */\n      pop\n      pop\n      jump\t// out\n        /* \"#utility.yul\":21020:21834   */\n    tag_200:\n        /* \"#utility.yul\":21251:21255   */\n      0x00\n        /* \"#utility.yul\":21289:21292   */\n      0x80\n        /* \"#utility.yul\":21278:21287   */\n      dup3\n        /* \"#utility.yul\":21274:21293   */\n      add\n        /* \"#utility.yul\":21266:21293   */\n      swap1\n      pop\n        /* \"#utility.yul\":21339:21348   */\n      dup2\n        /* \"#utility.yul\":21333:21337   */\n      dup2\n        /* \"#utility.yul\":21329:21349   */\n      sub\n        /* \"#utility.yul\":21325:21326   */\n      0x00\n        /* \"#utility.yul\":21314:21323   */\n      dup4\n        /* \"#utility.yul\":21310:21327   */\n      add\n        /* \"#utility.yul\":21303:21350   */\n      mstore\n        /* \"#utility.yul\":21367:21445   */\n      tag_543\n        /* \"#utility.yul\":21440:21444   */\n      dup2\n        /* \"#utility.yul\":21431:21437   */\n      dup8\n        /* \"#utility.yul\":21367:21445   */\n      tag_294\n      jump\t// in\n    tag_543:\n        /* \"#utility.yul\":21359:21445   */\n      swap1\n      pop\n        /* \"#utility.yul\":21492:21501   */\n      dup2\n        /* \"#utility.yul\":21486:21490   */\n      dup2\n        /* \"#utility.yul\":21482:21502   */\n      sub\n        /* \"#utility.yul\":21477:21479   */\n      0x20\n        /* \"#utility.yul\":21466:21475   */\n      dup4\n        /* \"#utility.yul\":21462:21480   */\n      add\n        /* \"#utility.yul\":21455:21503   */\n      mstore\n        /* \"#utility.yul\":21520:21598   */\n      tag_544\n        /* \"#utility.yul\":21593:21597   */\n      dup2\n        /* \"#utility.yul\":21584:21590   */\n      dup7\n        /* \"#utility.yul\":21520:21598   */\n      tag_294\n      jump\t// in\n    tag_544:\n        /* \"#utility.yul\":21512:21598   */\n      swap1\n      pop\n        /* \"#utility.yul\":21645:21654   */\n      dup2\n        /* \"#utility.yul\":21639:21643   */\n      dup2\n        /* \"#utility.yul\":21635:21655   */\n      sub\n        /* \"#utility.yul\":21630:21632   */\n      0x40\n        /* \"#utility.yul\":21619:21628   */\n      dup4\n        /* \"#utility.yul\":21615:21633   */\n      add\n        /* \"#utility.yul\":21608:21656   */\n      mstore\n        /* \"#utility.yul\":21673:21751   */\n      tag_545\n        /* \"#utility.yul\":21746:21750   */\n      dup2\n        /* \"#utility.yul\":21737:21743   */\n      dup6\n        /* \"#utility.yul\":21673:21751   */\n      tag_294\n      jump\t// in\n    tag_545:\n        /* \"#utility.yul\":21665:21751   */\n      swap1\n      pop\n        /* \"#utility.yul\":21761:21827   */\n      tag_546\n        /* \"#utility.yul\":21823:21825   */\n      0x60\n        /* \"#utility.yul\":21812:21821   */\n      dup4\n        /* \"#utility.yul\":21808:21826   */\n      add\n        /* \"#utility.yul\":21799:21805   */\n      dup5\n        /* \"#utility.yul\":21761:21827   */\n      tag_272\n      jump\t// in\n    tag_546:\n        /* \"#utility.yul\":21020:21834   */\n      swap6\n      swap5\n      pop\n      pop\n      pop\n      pop\n      pop\n      jump\t// out\n        /* \"#utility.yul\":21840:22006   */\n    tag_321:\n        /* \"#utility.yul\":21980:21998   */\n      0x5061757361626c653a2070617573656400000000000000000000000000000000\n        /* \"#utility.yul\":21976:21977   */\n      0x00\n        /* \"#utility.yul\":21968:21974   */\n      dup3\n        /* \"#utility.yul\":21964:21978   */\n      add\n        /* \"#utility.yul\":21957:21999   */\n      mstore\n        /* \"#utility.yul\":21840:22006   */\n      pop\n      jump\t// out\n        /* \"#utility.yul\":22012:22378   */\n    tag_322:\n        /* \"#utility.yul\":22154:22157   */\n      0x00\n        /* \"#utility.yul\":22175:22242   */\n      tag_549\n        /* \"#utility.yul\":22239:22241   */\n      0x10\n        /* \"#utility.yul\":22234:22237   */\n      dup4\n        /* \"#utility.yul\":22175:22242   */\n      tag_292\n      jump\t// in\n    tag_549:\n        /* \"#utility.yul\":22168:22242   */\n      swap2\n      pop\n        /* \"#utility.yul\":22251:22344   */\n      tag_550\n        /* \"#utility.yul\":22340:22343   */\n      dup3\n        /* \"#utility.yul\":22251:22344   */\n      tag_321\n      jump\t// in\n    tag_550:\n        /* \"#utility.yul\":22369:22371   */\n      0x20\n        /* \"#utility.yul\":22364:22367   */\n      dup3\n        /* \"#utility.yul\":22360:22372   */\n      add\n        /* \"#utility.yul\":22353:22372   */\n      swap1\n      pop\n        /* \"#utility.yul\":22012:22378   */\n      swap2\n      swap1\n      pop\n      jump\t// out\n        /* \"#utility.yul\":22384:22803   */\n    tag_228:\n        /* \"#utility.yul\":22550:22554   */\n      0x00\n        /* \"#utility.yul\":22588:22590   */\n      0x20\n        /* \"#utility.yul\":22577:22586   */\n      dup3\n        /* \"#utility.yul\":22573:22591   */\n      add\n        /* \"#utility.yul\":22565:22591   */\n      swap1\n      pop\n        /* \"#utility.yul\":22637:22646   */\n      dup2\n        /* \"#utility.yul\":22631:22635   */\n      dup2\n        /* \"#utility.yul\":22627:22647   */\n      sub\n        /* \"#utility.yul\":22623:22624   */\n      0x00\n        /* \"#utility.yul\":22612:22621   */\n      dup4\n        /* \"#utility.yul\":22608:22625   */\n      add\n        /* \"#utility.yul\":22601:22648   */\n      mstore\n        /* \"#utility.yul\":22665:22796   */\n      tag_552\n        /* \"#utility.yul\":22791:22795   */\n      dup2\n        /* \"#utility.yul\":22665:22796   */\n      tag_322\n      jump\t// in\n    tag_552:\n        /* \"#utility.yul\":22657:22796   */\n      swap1\n      pop\n        /* \"#utility.yul\":22384:22803   */\n      swap2\n      swap1\n      pop\n      jump\t// out\n        /* \"#utility.yul\":22809:22989   */\n    tag_323:\n        /* \"#utility.yul\":22857:22934   */\n      0x4e487b7100000000000000000000000000000000000000000000000000000000\n        /* \"#utility.yul\":22854:22855   */\n      0x00\n        /* \"#utility.yul\":22847:22935   */\n      mstore\n        /* \"#utility.yul\":22954:22958   */\n      0x11\n        /* \"#utility.yul\":22951:22952   */\n      0x04\n        /* \"#utility.yul\":22944:22959   */\n      mstore\n        /* \"#utility.yul\":22978:22982   */\n      0x24\n        /* \"#utility.yul\":22975:22976   */\n      0x00\n        /* \"#utility.yul\":22968:22983   */\n      revert\n        /* \"#utility.yul\":22995:23189   */\n    tag_246:\n        /* \"#utility.yul\":23035:23039   */\n      0x00\n        /* \"#utility.yul\":23055:23075   */\n      tag_555\n        /* \"#utility.yul\":23073:23074   */\n      dup3\n        /* \"#utility.yul\":23055:23075   */\n      tag_289\n      jump\t// in\n    tag_555:\n        /* \"#utility.yul\":23050:23075   */\n      swap2\n      pop\n        /* \"#utility.yul\":23089:23109   */\n      tag_556\n        /* \"#utility.yul\":23107:23108   */\n      dup4\n        /* \"#utility.yul\":23089:23109   */\n      tag_289\n      jump\t// in\n    tag_556:\n        /* \"#utility.yul\":23084:23109   */\n      swap3\n      pop\n        /* \"#utility.yul\":23133:23134   */\n      dup3\n        /* \"#utility.yul\":23130:23131   */\n      dup3\n        /* \"#utility.yul\":23126:23135   */\n      sub\n        /* \"#utility.yul\":23118:23135   */\n      swap1\n      pop\n        /* \"#utility.yul\":23157:23158   */\n      dup2\n        /* \"#utility.yul\":23151:23155   */\n      dup2\n        /* \"#utility.yul\":23148:23159   */\n      gt\n        /* \"#utility.yul\":23145:23182   */\n      iszero\n      tag_557\n      jumpi\n        /* \"#utility.yul\":23162:23180   */\n      tag_558\n      tag_323\n      jump\t// in\n    tag_558:\n        /* \"#utility.yul\":23145:23182   */\n    tag_557:\n        /* \"#utility.yul\":22995:23189   */\n      swap3\n      swap2\n      pop\n      pop\n      jump\t// out\n        /* \"#utility.yul\":23195:23312   */\n    tag_324:\n        /* \"#utility.yul\":23304:23305   */\n      0x00\n        /* \"#utility.yul\":23301:23302   */\n      dup1\n        /* \"#utility.yul\":23294:23306   */\n      revert\n        /* \"#utility.yul\":23318:23435   */\n    tag_325:\n        /* \"#utility.yul\":23427:23428   */\n      0x00\n        /* \"#utility.yul\":23424:23425   */\n      dup1\n        /* \"#utility.yul\":23417:23429   */\n      revert\n        /* \"#utility.yul\":23441:23910   */\n    tag_248:\n        /* \"#utility.yul\":23546:23555   */\n      0x00\n        /* \"#utility.yul\":23557:23566   */\n      dup1\n        /* \"#utility.yul\":23595:23603   */\n      dup6\n        /* \"#utility.yul\":23583:23593   */\n      dup6\n        /* \"#utility.yul\":23580:23604   */\n      gt\n        /* \"#utility.yul\":23577:23688   */\n      iszero\n      tag_562\n      jumpi\n        /* \"#utility.yul\":23607:23686   */\n      tag_563\n      tag_324\n      jump\t// in\n    tag_563:\n        /* \"#utility.yul\":23577:23688   */\n    tag_562:\n        /* \"#utility.yul\":23713:23719   */\n      dup4\n        /* \"#utility.yul\":23703:23711   */\n      dup7\n        /* \"#utility.yul\":23700:23720   */\n      gt\n        /* \"#utility.yul\":23697:23804   */\n      iszero\n      tag_564\n      jumpi\n        /* \"#utility.yul\":23723:23802   */\n      tag_565\n      tag_325\n      jump\t// in\n    tag_565:\n        /* \"#utility.yul\":23697:23804   */\n    tag_564:\n        /* \"#utility.yul\":23854:23855   */\n      0x01\n        /* \"#utility.yul\":23842:23852   */\n      dup6\n        /* \"#utility.yul\":23838:23856   */\n      mul\n        /* \"#utility.yul\":23830:23836   */\n      dup4\n        /* \"#utility.yul\":23826:23857   */\n      add\n        /* \"#utility.yul\":23813:23857   */\n      swap2\n      pop\n        /* \"#utility.yul\":23893:23903   */\n      dup5\n        /* \"#utility.yul\":23883:23891   */\n      dup7\n        /* \"#utility.yul\":23879:23904   */\n      sub\n        /* \"#utility.yul\":23866:23904   */\n      swap1\n      pop\n        /* \"#utility.yul\":23441:23910   */\n      swap5\n      pop\n      swap5\n      swap3\n      pop\n      pop\n      pop\n      jump\t// out\n        /* \"#utility.yul\":23916:24012   */\n    tag_326:\n        /* \"#utility.yul\":23974:23980   */\n      0x00\n        /* \"#utility.yul\":24002:24005   */\n      dup3\n        /* \"#utility.yul\":23992:24005   */\n      swap1\n      pop\n        /* \"#utility.yul\":23916:24012   */\n      swap3\n      swap2\n      pop\n      pop\n      jump\t// out\n        /* \"#utility.yul\":24110:24260   */\n    tag_328:\n        /* \"#utility.yul\":24147:24154   */\n      0x00\n        /* \"#utility.yul\":24187:24253   */\n      0xffffffffffffffffffffffffffffffffffffffff000000000000000000000000\n        /* \"#utility.yul\":24180:24185   */\n      dup3\n        /* \"#utility.yul\":24176:24254   */\n      and\n        /* \"#utility.yul\":24165:24254   */\n      swap1\n      pop\n        /* \"#utility.yul\":24110:24260   */\n      swap2\n      swap1\n      pop\n      jump\t// out\n        /* \"#utility.yul\":24266:24818   */\n    tag_250:\n        /* \"#utility.yul\":24357:24362   */\n      0x00\n        /* \"#utility.yul\":24388:24433   */\n      tag_570\n        /* \"#utility.yul\":24429:24432   */\n      dup4\n        /* \"#utility.yul\":24422:24427   */\n      dup4\n        /* \"#utility.yul\":24388:24433   */\n      tag_326\n      jump\t// in\n    tag_570:\n        /* \"#utility.yul\":24458:24463   */\n      dup3\n        /* \"#utility.yul\":24482:24523   */\n      tag_571\n        /* \"#utility.yul\":24513:24521   */\n      dup2\n        /* \"#utility.yul\":24500:24522   */\n      calldataload\n        /* \"#utility.yul\":24482:24523   */\n      tag_328\n      jump\t// in\n    tag_571:\n        /* \"#utility.yul\":24473:24523   */\n      swap3\n      pop\n        /* \"#utility.yul\":24547:24549   */\n      0x14\n        /* \"#utility.yul\":24539:24545   */\n      dup3\n        /* \"#utility.yul\":24536:24550   */\n      lt\n        /* \"#utility.yul\":24533:24811   */\n      iszero\n      tag_572\n      jumpi\n        /* \"#utility.yul\":24618:24787   */\n      tag_573\n        /* \"#utility.yul\":24703:24769   */\n      0xffffffffffffffffffffffffffffffffffffffff000000000000000000000000\n        /* \"#utility.yul\":24673:24679   */\n      dup4\n        /* \"#utility.yul\":24669:24671   */\n      0x14\n        /* \"#utility.yul\":24665:24680   */\n      sub\n        /* \"#utility.yul\":24662:24663   */\n      0x08\n        /* \"#utility.yul\":24658:24681   */\n      mul\n        /* \"#utility.yul\":24618:24787   */\n      tag_308\n      jump\t// in\n    tag_573:\n        /* \"#utility.yul\":24595:24600   */\n      dup4\n        /* \"#utility.yul\":24574:24801   */\n      and\n        /* \"#utility.yul\":24565:24801   */\n      swap3\n      pop\n        /* \"#utility.yul\":24533:24811   */\n    tag_572:\n        /* \"#utility.yul\":24363:24818   */\n      pop\n      pop\n        /* \"#utility.yul\":24266:24818   */\n      swap3\n      swap2\n      pop\n      pop\n      jump\t// out\n        /* \"#utility.yul\":24824:24994   */\n    tag_329:\n        /* \"#utility.yul\":24964:24986   */\n      0x5061757361626c653a206e6f7420706175736564000000000000000000000000\n        /* \"#utility.yul\":24960:24961   */\n      0x00\n        /* \"#utility.yul\":24952:24958   */\n      dup3\n        /* \"#utility.yul\":24948:24962   */\n      add\n        /* \"#utility.yul\":24941:24987   */\n      mstore\n        /* \"#utility.yul\":24824:24994   */\n      pop\n      jump\t// out\n        /* \"#utility.yul\":25000:25366   */\n    tag_330:\n        /* \"#utility.yul\":25142:25145   */\n      0x00\n        /* \"#utility.yul\":25163:25230   */\n      tag_576\n        /* \"#utility.yul\":25227:25229   */\n      0x14\n        /* \"#utility.yul\":25222:25225   */\n      dup4\n        /* \"#utility.yul\":25163:25230   */\n      tag_292\n      jump\t// in\n    tag_576:\n        /* \"#utility.yul\":25156:25230   */\n      swap2\n      pop\n        /* \"#utility.yul\":25239:25332   */\n      tag_577\n        /* \"#utility.yul\":25328:25331   */\n      dup3\n        /* \"#utility.yul\":25239:25332   */\n      tag_329\n      jump\t// in\n    tag_577:\n        /* \"#utility.yul\":25357:25359   */\n      0x20\n        /* \"#utility.yul\":25352:25355   */\n      dup3\n        /* \"#utility.yul\":25348:25360   */\n      add\n        /* \"#utility.yul\":25341:25360   */\n      swap1\n      pop\n        /* \"#utility.yul\":25000:25366   */\n      swap2\n      swap1\n      pop\n      jump\t// out\n        /* \"#utility.yul\":25372:25791   */\n    tag_258:\n        /* \"#utility.yul\":25538:25542   */\n      0x00\n        /* \"#utility.yul\":25576:25578   */\n      0x20\n        /* \"#utility.yul\":25565:25574   */\n      dup3\n        /* \"#utility.yul\":25561:25579   */\n      add\n        /* \"#utility.yul\":25553:25579   */\n      swap1\n      pop\n        /* \"#utility.yul\":25625:25634   */\n      dup2\n        /* \"#utility.yul\":25619:25623   */\n      dup2\n        /* \"#utility.yul\":25615:25635   */\n      sub\n        /* \"#utility.yul\":25611:25612   */\n      0x00\n        /* \"#utility.yul\":25600:25609   */\n      dup4\n        /* \"#utility.yul\":25596:25613   */\n      add\n        /* \"#utility.yul\":25589:25636   */\n      mstore\n        /* \"#utility.yul\":25653:25784   */\n      tag_579\n        /* \"#utility.yul\":25779:25783   */\n      dup2\n        /* \"#utility.yul\":25653:25784   */\n      tag_330\n      jump\t// in\n    tag_579:\n        /* \"#utility.yul\":25645:25784   */\n      swap1\n      pop\n        /* \"#utility.yul\":25372:25791   */\n      swap2\n      swap1\n      pop\n      jump\t// out\n\n    auxdata: 0xa2646970667358221220ca88941614d3ff16a147dc50864db0a3cf6840a260fd604c61758ef98372b28964736f6c634300081a0033\n}\n",
				"bytecode": {
					"linkReferences": {},
					"object": "60a060405234801561000f575f80fd5b506040516125893803806125898339818101604052810190610031919061033a565b61003f61011460201b60201c565b818073ffffffffffffffffffffffffffffffffffffffff1660808173ffffffffffffffffffffffffffffffffffffffff1681525050505f73ffffffffffffffffffffffffffffffffffffffff168173ffffffffffffffffffffffffffffffffffffffff16036100e5575f6040517f1e4fbdf70000000000000000000000000000000000000000000000000000000081526004016100dc9190610374565b60405180910390fd5b6100f48161012860201b60201c565b505f8060146101000a81548160ff021916908315150217905550506104d7565b5f6101236101e960201b60201c565b905090565b5f805f9054906101000a900473ffffffffffffffffffffffffffffffffffffffff169050815f806101000a81548173ffffffffffffffffffffffffffffffffffffffff021916908373ffffffffffffffffffffffffffffffffffffffff1602179055508173ffffffffffffffffffffffffffffffffffffffff168173ffffffffffffffffffffffffffffffffffffffff167f8be0079c531659141344cd1fd0a4f28419497f9722a3daafe3b4186f6b6457e060405160405180910390a35050565b5f805f36905090505f61020061026c60201b60201c565b90506102113361028060201b60201c565b801561021d5750808210155b15610256575f36828461023091906103c3565b90809261023f939291906103fe565b9061024a9190610479565b60601c92505050610269565b6102646102c460201b60201c565b925050505b90565b5f61027b6102cb60201b60201c565b905090565b5f61028f6102d360201b60201c565b73ffffffffffffffffffffffffffffffffffffffff168273ffffffffffffffffffffffffffffffffffffffff16149050919050565b5f33905090565b5f6014905090565b5f608051905090565b5f80fd5b5f73ffffffffffffffffffffffffffffffffffffffff82169050919050565b5f610309826102e0565b9050919050565b610319816102ff565b8114610323575f80fd5b50565b5f8151905061033481610310565b92915050565b5f6020828403121561034f5761034e6102dc565b5b5f61035c84828501610326565b91505092915050565b61036e816102ff565b82525050565b5f6020820190506103875f830184610365565b92915050565b5f819050919050565b7f4e487b71000000000000000000000000000000000000000000000000000000005f52601160045260245ffd5b5f6103cd8261038d565b91506103d88361038d565b92508282039050818111156103f0576103ef610396565b5b92915050565b5f80fd5b5f80fd5b5f8085851115610411576104106103f6565b5b83861115610422576104216103fa565b5b6001850283019150848603905094509492505050565b5f82905092915050565b5f7fffffffffffffffffffffffffffffffffffffffff00000000000000000000000082169050919050565b5f82821b905092915050565b5f6104848383610438565b8261048f8135610442565b925060148210156104cf576104ca7fffffffffffffffffffffffffffffffffffffffff0000000000000000000000008360140360080261046d565b831692505b505092915050565b60805161209a6104ef5f395f61059d015261209a5ff3fe608060405234801561000f575f80fd5b5060043610610129575f3560e01c80638da5cb5b116100ab578063b33712c51161006f578063b33712c514610344578063b83597d31461034e578063e215a58e1461036a578063f2fde38b14610386578063fe35089f146103a257610129565b80638da5cb5b146102755780638e4d0f401461029357806395f2f9f4146102c8578063a2428b73146102f8578063ab2add761461032857610129565b80635c975abb116100f25780635c975abb146101e3578063618e6ce6146102015780636a97de3a14610231578063715018a61461024d5780637da0a8771461025757610129565b8062542d0b1461012d578063058e3b6b1461015d578063439766ce1461018d578063571e872014610197578063572b6c05146101b3575b5f80fd5b61014760048036038101906101429190611377565b6103d2565b60405161015491906113bc565b60405180910390f35b61017760048036038101906101729190611377565b610424565b60405161018491906113bc565b60405180910390f35b610195610441565b005b6101b160048036038101906101ac9190611544565b610453565b005b6101cd60048036038101906101c89190611377565b61046f565b6040516101da91906113bc565b60405180910390f35b6101eb6104ad565b6040516101f891906113bc565b60405180910390f35b61021b600480360381019061021691906115fc565b6104c2565b60405161022891906113bc565b60405180910390f35b61024b60048036038101906102469190611651565b6104e2565b005b610255610587565b005b61025f61059a565b60405161026c919061168b565b60405180910390f35b61027d6105c1565b60405161028a919061168b565b60405180910390f35b6102ad60048036038101906102a891906115fc565b6105e8565b6040516102bf9695949392919061171c565b60405180910390f35b6102e260048036038101906102dd91906115fc565b610845565b6040516102ef9190611790565b60405180910390f35b610312600480360381019061030d91906115fc565b6108aa565b60405161031f919061168b565b60405180910390f35b610342600480360381019061033d91906117a9565b61092d565b005b61034c610cb6565b005b610368600480360381019061036391906117f9565b610cc8565b005b610384600480360381019061037f9190611544565b610f22565b005b6103a0600480360381019061039b9190611377565b610f3d565b005b6103bc60048036038101906103b791906115fc565b610fc1565b6040516103c991906113bc565b60405180910390f35b5f60025f8373ffffffffffffffffffffffffffffffffffffffff1673ffffffffffffffffffffffffffffffffffffffff1681526020019081526020015f205f9054906101000a900460ff169050919050565b6002602052805f5260405f205f915054906101000a900460ff1681565b610449610fd2565b610451611059565b565b61045b6110bb565b610469848484846001610cc8565b50505050565b5f61047861059a565b73ffffffffffffffffffffffffffffffffffffffff168273ffffffffffffffffffffffffffffffffffffffff16149050919050565b5f8060149054906101000a900460ff16905090565b5f8060015f8481526020019081526020015f206001015414159050919050565b8060025f3373ffffffffffffffffffffffffffffffffffffffff1673ffffffffffffffffffffffffffffffffffffffff1681526020019081526020015f205f6101000a81548160ff0219169083151502179055503373ffffffffffffffffffffffffffffffffffffffff167f696b9bad72c623f4143a9a1658343950dc7558beb6c2ded9c5c9ff7fece328c08260405161057c91906113bc565b60405180910390a250565b61058f610fd2565b6105985f611105565b565b5f7f0000000000000000000000000000000000000000000000000000000000000000905090565b5f805f9054906101000a900473ffffffffffffffffffffffffffffffffffffffff16905090565b5f8060608060605f6105f9876104c2565b610638576040517f08c379a000000000000000000000000000000000000000000000000000000000815260040161062f9061190e565b60405180910390fd5b5f60015f8981526020019081526020015f209050805f015f9054906101000a900473ffffffffffffffffffffffffffffffffffffffff168160010154826002018360030184600401856005015f9054906101000a900460ff1683805461069d90611959565b80601f01602080910402602001604051908101604052809291908181526020018280546106c990611959565b80156107145780601f106106eb57610100808354040283529160200191610714565b820191905f5260205f20905b8154815290600101906020018083116106f757829003601f168201915b5050505050935082805461072790611959565b80601f016020809104026020016040519081016040528092919081815260200182805461075390611959565b801561079e5780601f106107755761010080835404028352916020019161079e565b820191905f5260205f20905b81548152906001019060200180831161078157829003601f168201915b505050505092508180546107b190611959565b80601f01602080910402602001604051908101604052809291908181526020018280546107dd90611959565b80156108285780601f106107ff57610100808354040283529160200191610828565b820191905f5260205f20905b81548152906001019060200180831161080b57829003601f168201915b505050505091509650965096509650965096505091939550919395565b5f61084f826104c2565b61088e576040517f08c379a00000000000000000000000000000000000000000000000000000000081526004016108859061190e565b60405180910390fd5b60015f8381526020019081526020015f20600101549050919050565b5f6108b4826104c2565b6108f3576040517f08c379a00000000000000000000000000000000000000000000000000000000081526004016108ea9061190e565b60405180910390fd5b60015f8381526020019081526020015f205f015f9054906101000a900473ffffffffffffffffffffffffffffffffffffffff169050919050565b6109356110bb565b61093e836104c2565b61097d576040517f08c379a00000000000000000000000000000000000000000000000000000000081526004016109749061190e565b60405180910390fd5b8015610abf5760025f61098e6111c6565b73ffffffffffffffffffffffffffffffffffffffff1673ffffffffffffffffffffffffffffffffffffffff1681526020019081526020015f205f9054906101000a900460ff16610a13576040517f08c379a0000000000000000000000000000000000000000000000000000000008152600401610a0a906119f9565b60405180910390fd5b60015f8481526020019081526020015f205f015f9054906101000a900473ffffffffffffffffffffffffffffffffffffffff1673ffffffffffffffffffffffffffffffffffffffff16610a646111c6565b73ffffffffffffffffffffffffffffffffffffffff1614610aba576040517f08c379a0000000000000000000000000000000000000000000000000000000008152600401610ab190611a87565b60405180910390fd5b610b60565b60015f8481526020019081526020015f205f015f9054906101000a900473ffffffffffffffffffffffffffffffffffffffff1673ffffffffffffffffffffffffffffffffffffffff163373ffffffffffffffffffffffffffffffffffffffff1614610b5f576040517f08c379a0000000000000000000000000000000000000000000000000000000008152600401610b5690611a87565b60405180910390fd5b5b5f73ffffffffffffffffffffffffffffffffffffffff168273ffffffffffffffffffffffffffffffffffffffff1603610bce576040517f08c379a0000000000000000000000000000000000000000000000000000000008152600401610bc590611b15565b60405180910390fd5b5f60015f8581526020019081526020015f205f015f9054906101000a900473ffffffffffffffffffffffffffffffffffffffff1690508260015f8681526020019081526020015f205f015f6101000a81548173ffffffffffffffffffffffffffffffffffffffff021916908373ffffffffffffffffffffffffffffffffffffffff1602179055508273ffffffffffffffffffffffffffffffffffffffff168173ffffffffffffffffffffffffffffffffffffffff16857f0b659dccc8eb950324170e8d9598af5ee04ee070883eb28651a96788721fbf8360405160405180910390a450505050565b610cbe610fd2565b610cc66111d4565b565b610cd06110bb565b610cd9856104c2565b15610d19576040517f08c379a0000000000000000000000000000000000000000000000000000000008152600401610d1090611b7d565b60405180910390fd5b8015610db05760025f610d2a6111c6565b73ffffffffffffffffffffffffffffffffffffffff1673ffffffffffffffffffffffffffffffffffffffff1681526020019081526020015f205f9054906101000a900460ff16610daf576040517f08c379a0000000000000000000000000000000000000000000000000000000008152600401610da6906119f9565b60405180910390fd5b5b6040518060c00160405280610dc36111c6565b73ffffffffffffffffffffffffffffffffffffffff16815260200142815260200185815260200184815260200183815260200182151581525060015f8781526020019081526020015f205f820151815f015f6101000a81548173ffffffffffffffffffffffffffffffffffffffff021916908373ffffffffffffffffffffffffffffffffffffffff160217905550602082015181600101556040820151816002019081610e709190611d38565b506060820151816003019081610e869190611d38565b506080820151816004019081610e9c9190611d38565b5060a0820151816005015f6101000a81548160ff021916908315150217905550905050610ec76111c6565b73ffffffffffffffffffffffffffffffffffffffff16857fae5ab09589867efdd9d9d1b4259d914151a9730d97b10bf71109e597a65155e686868686604051610f139493929190611e07565b60405180910390a35050505050565b610f2a6110bb565b610f37848484845f610cc8565b50505050565b610f45610fd2565b5f73ffffffffffffffffffffffffffffffffffffffff168173ffffffffffffffffffffffffffffffffffffffff1603610fb5575f6040517f1e4fbdf7000000000000000000000000000000000000000000000000000000008152600401610fac919061168b565b60405180910390fd5b610fbe81611105565b50565b5f610fcb826104c2565b9050919050565b610fda6111c6565b73ffffffffffffffffffffffffffffffffffffffff16610ff86105c1565b73ffffffffffffffffffffffffffffffffffffffff16146110575761101b6111c6565b6040517f118cdaa700000000000000000000000000000000000000000000000000000000815260040161104e919061168b565b60405180910390fd5b565b6110616110bb565b60015f60146101000a81548160ff0219169083151502179055507f62e78cea01bee320cd4e420270b5ea74000d11b0c9f74754ebdbfc544b05a2586110a46111c6565b6040516110b1919061168b565b60405180910390a1565b6110c36104ad565b15611103576040517f08c379a00000000000000000000000000000000000000000000000000000000081526004016110fa90611ea9565b60405180910390fd5b565b5f805f9054906101000a900473ffffffffffffffffffffffffffffffffffffffff169050815f806101000a81548173ffffffffffffffffffffffffffffffffffffffff021916908373ffffffffffffffffffffffffffffffffffffffff1602179055508173ffffffffffffffffffffffffffffffffffffffff168173ffffffffffffffffffffffffffffffffffffffff167f8be0079c531659141344cd1fd0a4f28419497f9722a3daafe3b4186f6b6457e060405160405180910390a35050565b5f6111cf611235565b905090565b6111dc6112a6565b5f8060146101000a81548160ff0219169083151502179055507f5db9ee0a495bf2e6ff9c91a7834c1ba4fdd244a5e8aa4e537bd38aeae4b073aa61121e6111c6565b60405161122b919061168b565b60405180910390a1565b5f805f36905090505f6112466112ef565b90506112513361046f565b801561125d5750808210155b15611296575f3682846112709190611ef4565b90809261127f93929190611f2f565b9061128a9190611f9e565b60601c925050506112a3565b61129e6112fd565b925050505b90565b6112ae6104ad565b6112ed576040517f08c379a00000000000000000000000000000000000000000000000000000000081526004016112e490612046565b60405180910390fd5b565b5f6112f8611304565b905090565b5f33905090565b5f6014905090565b5f604051905090565b5f80fd5b5f80fd5b5f73ffffffffffffffffffffffffffffffffffffffff82169050919050565b5f6113468261131d565b9050919050565b6113568161133c565b8114611360575f80fd5b50565b5f813590506113718161134d565b92915050565b5f6020828403121561138c5761138b611315565b5b5f61139984828501611363565b91505092915050565b5f8115159050919050565b6113b6816113a2565b82525050565b5f6020820190506113cf5f8301846113ad565b92915050565b5f819050919050565b6113e7816113d5565b81146113f1575f80fd5b50565b5f81359050611402816113de565b92915050565b5f80fd5b5f80fd5b5f601f19601f8301169050919050565b7f4e487b71000000000000000000000000000000000000000000000000000000005f52604160045260245ffd5b61145682611410565b810181811067ffffffffffffffff8211171561147557611474611420565b5b80604052505050565b5f61148761130c565b9050611493828261144d565b919050565b5f67ffffffffffffffff8211156114b2576114b1611420565b5b6114bb82611410565b9050602081019050919050565b828183375f83830152505050565b5f6114e86114e384611498565b61147e565b9050828152602081018484840111156115045761150361140c565b5b61150f8482856114c8565b509392505050565b5f82601f83011261152b5761152a611408565b5b813561153b8482602086016114d6565b91505092915050565b5f805f806080858703121561155c5761155b611315565b5b5f611569878288016113f4565b945050602085013567ffffffffffffffff81111561158a57611589611319565b5b61159687828801611517565b935050604085013567ffffffffffffffff8111156115b7576115b6611319565b5b6115c387828801611517565b925050606085013567ffffffffffffffff8111156115e4576115e3611319565b5b6115f087828801611517565b91505092959194509250565b5f6020828403121561161157611610611315565b5b5f61161e848285016113f4565b91505092915050565b611630816113a2565b811461163a575f80fd5b50565b5f8135905061164b81611627565b92915050565b5f6020828403121561166657611665611315565b5b5f6116738482850161163d565b91505092915050565b6116858161133c565b82525050565b5f60208201905061169e5f83018461167c565b92915050565b5f819050919050565b6116b6816116a4565b82525050565b5f81519050919050565b5f82825260208201905092915050565b8281835e5f83830152505050565b5f6116ee826116bc565b6116f881856116c6565b93506117088185602086016116d6565b61171181611410565b840191505092915050565b5f60c08201905061172f5f83018961167c565b61173c60208301886116ad565b818103604083015261174e81876116e4565b9050818103606083015261176281866116e4565b9050818103608083015261177681856116e4565b905061178560a08301846113ad565b979650505050505050565b5f6020820190506117a35f8301846116ad565b92915050565b5f805f606084860312156117c0576117bf611315565b5b5f6117cd868287016113f4565b93505060206117de86828701611363565b92505060406117ef8682870161163d565b9150509250925092565b5f805f805f60a0868803121561181257611811611315565b5b5f61181f888289016113f4565b955050602086013567ffffffffffffffff8111156118405761183f611319565b5b61184c88828901611517565b945050604086013567ffffffffffffffff81111561186d5761186c611319565b5b61187988828901611517565b935050606086013567ffffffffffffffff81111561189a57611899611319565b5b6118a688828901611517565b92505060806118b78882890161163d565b9150509295509295909350565b7f446f63756d656e74206e6f7420666f756e642e000000000000000000000000005f82015250565b5f6118f86013836116c6565b9150611903826118c4565b602082019050919050565b5f6020820190508181035f830152611925816118ec565b9050919050565b7f4e487b71000000000000000000000000000000000000000000000000000000005f52602260045260245ffd5b5f600282049050600182168061197057607f821691505b6020821081036119835761198261192c565b5b50919050565b7f4761736c657373207472616e73616374696f6e73206e6f7420656e61626c65645f8201527f20666f7220746869732075736572000000000000000000000000000000000000602082015250565b5f6119e3602e836116c6565b91506119ee82611989565b604082019050919050565b5f6020820190508181035f830152611a10816119d7565b9050919050565b7f4f6e6c7920746865206f776e65722063616e207472616e73666572206f776e655f8201527f72736869702e0000000000000000000000000000000000000000000000000000602082015250565b5f611a716026836116c6565b9150611a7c82611a17565b604082019050919050565b5f6020820190508181035f830152611a9e81611a65565b9050919050565b7f4e6577206f776e65722063616e6e6f7420626520746865207a65726f206164645f8201527f726573732e000000000000000000000000000000000000000000000000000000602082015250565b5f611aff6025836116c6565b9150611b0a82611aa5565b604082019050919050565b5f6020820190508181035f830152611b2c81611af3565b9050919050565b7f446f63756d656e7420616c726561647920726567697374657265642e000000005f82015250565b5f611b67601c836116c6565b9150611b7282611b33565b602082019050919050565b5f6020820190508181035f830152611b9481611b5b565b9050919050565b5f819050815f5260205f209050919050565b5f6020601f8301049050919050565b5f82821b905092915050565b5f60088302611bf77fffffffffffffffffffffffffffffffffffffffffffffffffffffffffffffffff82611bbc565b611c018683611bbc565b95508019841693508086168417925050509392505050565b5f819050919050565b5f611c3c611c37611c32846116a4565b611c19565b6116a4565b9050919050565b5f819050919050565b611c5583611c22565b611c69611c6182611c43565b848454611bc8565b825550505050565b5f90565b611c7d611c71565b611c88818484611c4c565b505050565b5b81811015611cab57611ca05f82611c75565b600181019050611c8e565b5050565b601f821115611cf057611cc181611b9b565b611cca84611bad565b81016020851015611cd9578190505b611ced611ce585611bad565b830182611c8d565b50505b505050565b5f82821c905092915050565b5f611d105f1984600802611cf5565b1980831691505092915050565b5f611d288383611d01565b9150826002028217905092915050565b611d41826116bc565b67ffffffffffffffff811115611d5a57611d59611420565b5b611d648254611959565b611d6f828285611caf565b5f60209050601f831160018114611da0575f8415611d8e578287015190505b611d988582611d1d565b865550611dff565b601f198416611dae86611b9b565b5f5b82811015611dd557848901518255600182019150602085019450602081019050611db0565b86831015611df25784890151611dee601f891682611d01565b8355505b6001600288020188555050505b505050505050565b5f6080820190508181035f830152611e1f81876116e4565b90508181036020830152611e3381866116e4565b90508181036040830152611e4781856116e4565b9050611e5660608301846113ad565b95945050505050565b7f5061757361626c653a20706175736564000000000000000000000000000000005f82015250565b5f611e936010836116c6565b9150611e9e82611e5f565b602082019050919050565b5f6020820190508181035f830152611ec081611e87565b9050919050565b7f4e487b71000000000000000000000000000000000000000000000000000000005f52601160045260245ffd5b5f611efe826116a4565b9150611f09836116a4565b9250828203905081811115611f2157611f20611ec7565b5b92915050565b5f80fd5b5f80fd5b5f8085851115611f4257611f41611f27565b5b83861115611f5357611f52611f2b565b5b6001850283019150848603905094509492505050565b5f82905092915050565b5f7fffffffffffffffffffffffffffffffffffffffff00000000000000000000000082169050919050565b5f611fa98383611f69565b82611fb48135611f73565b92506014821015611ff457611fef7fffffffffffffffffffffffffffffffffffffffff00000000000000000000000083601403600802611bbc565b831692505b505092915050565b7f5061757361626c653a206e6f74207061757365640000000000000000000000005f82015250565b5f6120306014836116c6565b915061203b82611ffc565b602082019050919050565b5f6020820190508181035f83015261205d81612024565b905091905056fea2646970667358221220ca88941614d3ff16a147dc50864db0a3cf6840a260fd604c61758ef98372b28964736f6c634300081a0033",
					"opcodes": "PUSH1 0xA0 PUSH1 0x40 MSTORE CALLVALUE DUP1 ISZERO PUSH2 0xF JUMPI PUSH0 DUP1 REVERT JUMPDEST POP PUSH1 0x40 MLOAD PUSH2 0x2589 CODESIZE SUB DUP1 PUSH2 0x2589 DUP4 CODECOPY DUP2 DUP2 ADD PUSH1 0x40 MSTORE DUP2 ADD SWAP1 PUSH2 0x31 SWAP2 SWAP1 PUSH2 0x33A JUMP JUMPDEST PUSH2 0x3F PUSH2 0x114 PUSH1 0x20 SHL PUSH1 0x20 SHR JUMP JUMPDEST DUP2 DUP1 PUSH20 0xFFFFFFFFFFFFFFFFFFFFFFFFFFFFFFFFFFFFFFFF AND PUSH1 0x80 DUP2 PUSH20 0xFFFFFFFFFFFFFFFFFFFFFFFFFFFFFFFFFFFFFFFF AND DUP2 MSTORE POP POP POP PUSH0 PUSH20 0xFFFFFFFFFFFFFFFFFFFFFFFFFFFFFFFFFFFFFFFF AND DUP2 PUSH20 0xFFFFFFFFFFFFFFFFFFFFFFFFFFFFFFFFFFFFFFFF AND SUB PUSH2 0xE5 JUMPI PUSH0 PUSH1 0x40 MLOAD PUSH32 0x1E4FBDF700000000000000000000000000000000000000000000000000000000 DUP2 MSTORE PUSH1 0x4 ADD PUSH2 0xDC SWAP2 SWAP1 PUSH2 0x374 JUMP JUMPDEST PUSH1 0x40 MLOAD DUP1 SWAP2 SUB SWAP1 REVERT JUMPDEST PUSH2 0xF4 DUP2 PUSH2 0x128 PUSH1 0x20 SHL PUSH1 0x20 SHR JUMP JUMPDEST POP PUSH0 DUP1 PUSH1 0x14 PUSH2 0x100 EXP DUP2 SLOAD DUP2 PUSH1 0xFF MUL NOT AND SWAP1 DUP4 ISZERO ISZERO MUL OR SWAP1 SSTORE POP POP PUSH2 0x4D7 JUMP JUMPDEST PUSH0 PUSH2 0x123 PUSH2 0x1E9 PUSH1 0x20 SHL PUSH1 0x20 SHR JUMP JUMPDEST SWAP1 POP SWAP1 JUMP JUMPDEST PUSH0 DUP1 PUSH0 SWAP1 SLOAD SWAP1 PUSH2 0x100 EXP SWAP1 DIV PUSH20 0xFFFFFFFFFFFFFFFFFFFFFFFFFFFFFFFFFFFFFFFF AND SWAP1 POP DUP2 PUSH0 DUP1 PUSH2 0x100 EXP DUP2 SLOAD DUP2 PUSH20 0xFFFFFFFFFFFFFFFFFFFFFFFFFFFFFFFFFFFFFFFF MUL NOT AND SWAP1 DUP4 PUSH20 0xFFFFFFFFFFFFFFFFFFFFFFFFFFFFFFFFFFFFFFFF AND MUL OR SWAP1 SSTORE POP DUP2 PUSH20 0xFFFFFFFFFFFFFFFFFFFFFFFFFFFFFFFFFFFFFFFF AND DUP2 PUSH20 0xFFFFFFFFFFFFFFFFFFFFFFFFFFFFFFFFFFFFFFFF AND PUSH32 0x8BE0079C531659141344CD1FD0A4F28419497F9722A3DAAFE3B4186F6B6457E0 PUSH1 0x40 MLOAD PUSH1 0x40 MLOAD DUP1 SWAP2 SUB SWAP1 LOG3 POP POP JUMP JUMPDEST PUSH0 DUP1 PUSH0 CALLDATASIZE SWAP1 POP SWAP1 POP PUSH0 PUSH2 0x200 PUSH2 0x26C PUSH1 0x20 SHL PUSH1 0x20 SHR JUMP JUMPDEST SWAP1 POP PUSH2 0x211 CALLER PUSH2 0x280 PUSH1 0x20 SHL PUSH1 0x20 SHR JUMP JUMPDEST DUP1 ISZERO PUSH2 0x21D JUMPI POP DUP1 DUP3 LT ISZERO JUMPDEST ISZERO PUSH2 0x256 JUMPI PUSH0 CALLDATASIZE DUP3 DUP5 PUSH2 0x230 SWAP2 SWAP1 PUSH2 0x3C3 JUMP JUMPDEST SWAP1 DUP1 SWAP3 PUSH2 0x23F SWAP4 SWAP3 SWAP2 SWAP1 PUSH2 0x3FE JUMP JUMPDEST SWAP1 PUSH2 0x24A SWAP2 SWAP1 PUSH2 0x479 JUMP JUMPDEST PUSH1 0x60 SHR SWAP3 POP POP POP PUSH2 0x269 JUMP JUMPDEST PUSH2 0x264 PUSH2 0x2C4 PUSH1 0x20 SHL PUSH1 0x20 SHR JUMP JUMPDEST SWAP3 POP POP POP JUMPDEST SWAP1 JUMP JUMPDEST PUSH0 PUSH2 0x27B PUSH2 0x2CB PUSH1 0x20 SHL PUSH1 0x20 SHR JUMP JUMPDEST SWAP1 POP SWAP1 JUMP JUMPDEST PUSH0 PUSH2 0x28F PUSH2 0x2D3 PUSH1 0x20 SHL PUSH1 0x20 SHR JUMP JUMPDEST PUSH20 0xFFFFFFFFFFFFFFFFFFFFFFFFFFFFFFFFFFFFFFFF AND DUP3 PUSH20 0xFFFFFFFFFFFFFFFFFFFFFFFFFFFFFFFFFFFFFFFF AND EQ SWAP1 POP SWAP2 SWAP1 POP JUMP JUMPDEST PUSH0 CALLER SWAP1 POP SWAP1 JUMP JUMPDEST PUSH0 PUSH1 0x14 SWAP1 POP SWAP1 JUMP JUMPDEST PUSH0 PUSH1 0x80 MLOAD SWAP1 POP SWAP1 JUMP JUMPDEST PUSH0 DUP1 REVERT JUMPDEST PUSH0 PUSH20 0xFFFFFFFFFFFFFFFFFFFFFFFFFFFFFFFFFFFFFFFF DUP3 AND SWAP1 POP SWAP2 SWAP1 POP JUMP JUMPDEST PUSH0 PUSH2 0x309 DUP3 PUSH2 0x2E0 JUMP JUMPDEST SWAP1 POP SWAP2 SWAP1 POP JUMP JUMPDEST PUSH2 0x319 DUP2 PUSH2 0x2FF JUMP JUMPDEST DUP2 EQ PUSH2 0x323 JUMPI PUSH0 DUP1 REVERT JUMPDEST POP JUMP JUMPDEST PUSH0 DUP2 MLOAD SWAP1 POP PUSH2 0x334 DUP2 PUSH2 0x310 JUMP JUMPDEST SWAP3 SWAP2 POP POP JUMP JUMPDEST PUSH0 PUSH1 0x20 DUP3 DUP5 SUB SLT ISZERO PUSH2 0x34F JUMPI PUSH2 0x34E PUSH2 0x2DC JUMP JUMPDEST JUMPDEST PUSH0 PUSH2 0x35C DUP5 DUP3 DUP6 ADD PUSH2 0x326 JUMP JUMPDEST SWAP2 POP POP SWAP3 SWAP2 POP POP JUMP JUMPDEST PUSH2 0x36E DUP2 PUSH2 0x2FF JUMP JUMPDEST DUP3 MSTORE POP POP JUMP JUMPDEST PUSH0 PUSH1 0x20 DUP3 ADD SWAP1 POP PUSH2 0x387 PUSH0 DUP4 ADD DUP5 PUSH2 0x365 JUMP JUMPDEST SWAP3 SWAP2 POP POP JUMP JUMPDEST PUSH0 DUP2 SWAP1 POP SWAP2 SWAP1 POP JUMP JUMPDEST PUSH32 0x4E487B7100000000000000000000000000000000000000000000000000000000 PUSH0 MSTORE PUSH1 0x11 PUSH1 0x4 MSTORE PUSH1 0x24 PUSH0 REVERT JUMPDEST PUSH0 PUSH2 0x3CD DUP3 PUSH2 0x38D JUMP JUMPDEST SWAP2 POP PUSH2 0x3D8 DUP4 PUSH2 0x38D JUMP JUMPDEST SWAP3 POP DUP3 DUP3 SUB SWAP1 POP DUP2 DUP2 GT ISZERO PUSH2 0x3F0 JUMPI PUSH2 0x3EF PUSH2 0x396 JUMP JUMPDEST JUMPDEST SWAP3 SWAP2 POP POP JUMP JUMPDEST PUSH0 DUP1 REVERT JUMPDEST PUSH0 DUP1 REVERT JUMPDEST PUSH0 DUP1 DUP6 DUP6 GT ISZERO PUSH2 0x411 JUMPI PUSH2 0x410 PUSH2 0x3F6 JUMP JUMPDEST JUMPDEST DUP4 DUP7 GT ISZERO PUSH2 0x422 JUMPI PUSH2 0x421 PUSH2 0x3FA JUMP JUMPDEST JUMPDEST PUSH1 0x1 DUP6 MUL DUP4 ADD SWAP2 POP DUP5 DUP7 SUB SWAP1 POP SWAP5 POP SWAP5 SWAP3 POP POP POP JUMP JUMPDEST PUSH0 DUP3 SWAP1 POP SWAP3 SWAP2 POP POP JUMP JUMPDEST PUSH0 PUSH32 0xFFFFFFFFFFFFFFFFFFFFFFFFFFFFFFFFFFFFFFFF000000000000000000000000 DUP3 AND SWAP1 POP SWAP2 SWAP1 POP JUMP JUMPDEST PUSH0 DUP3 DUP3 SHL SWAP1 POP SWAP3 SWAP2 POP POP JUMP JUMPDEST PUSH0 PUSH2 0x484 DUP4 DUP4 PUSH2 0x438 JUMP JUMPDEST DUP3 PUSH2 0x48F DUP2 CALLDATALOAD PUSH2 0x442 JUMP JUMPDEST SWAP3 POP PUSH1 0x14 DUP3 LT ISZERO PUSH2 0x4CF JUMPI PUSH2 0x4CA PUSH32 0xFFFFFFFFFFFFFFFFFFFFFFFFFFFFFFFFFFFFFFFF000000000000000000000000 DUP4 PUSH1 0x14 SUB PUSH1 0x8 MUL PUSH2 0x46D JUMP JUMPDEST DUP4 AND SWAP3 POP JUMPDEST POP POP SWAP3 SWAP2 POP POP JUMP JUMPDEST PUSH1 0x80 MLOAD PUSH2 0x209A PUSH2 0x4EF PUSH0 CODECOPY PUSH0 PUSH2 0x59D ADD MSTORE PUSH2 0x209A PUSH0 RETURN INVALID PUSH1 0x80 PUSH1 0x40 MSTORE CALLVALUE DUP1 ISZERO PUSH2 0xF JUMPI PUSH0 DUP1 REVERT JUMPDEST POP PUSH1 0x4 CALLDATASIZE LT PUSH2 0x129 JUMPI PUSH0 CALLDATALOAD PUSH1 0xE0 SHR DUP1 PUSH4 0x8DA5CB5B GT PUSH2 0xAB JUMPI DUP1 PUSH4 0xB33712C5 GT PUSH2 0x6F JUMPI DUP1 PUSH4 0xB33712C5 EQ PUSH2 0x344 JUMPI DUP1 PUSH4 0xB83597D3 EQ PUSH2 0x34E JUMPI DUP1 PUSH4 0xE215A58E EQ PUSH2 0x36A JUMPI DUP1 PUSH4 0xF2FDE38B EQ PUSH2 0x386 JUMPI DUP1 PUSH4 0xFE35089F EQ PUSH2 0x3A2 JUMPI PUSH2 0x129 JUMP JUMPDEST DUP1 PUSH4 0x8DA5CB5B EQ PUSH2 0x275 JUMPI DUP1 PUSH4 0x8E4D0F40 EQ PUSH2 0x293 JUMPI DUP1 PUSH4 0x95F2F9F4 EQ PUSH2 0x2C8 JUMPI DUP1 PUSH4 0xA2428B73 EQ PUSH2 0x2F8 JUMPI DUP1 PUSH4 0xAB2ADD76 EQ PUSH2 0x328 JUMPI PUSH2 0x129 JUMP JUMPDEST DUP1 PUSH4 0x5C975ABB GT PUSH2 0xF2 JUMPI DUP1 PUSH4 0x5C975ABB EQ PUSH2 0x1E3 JUMPI DUP1 PUSH4 0x618E6CE6 EQ PUSH2 0x201 JUMPI DUP1 PUSH4 0x6A97DE3A EQ PUSH2 0x231 JUMPI DUP1 PUSH4 0x715018A6 EQ PUSH2 0x24D JUMPI DUP1 PUSH4 0x7DA0A877 EQ PUSH2 0x257 JUMPI PUSH2 0x129 JUMP JUMPDEST DUP1 PUSH3 0x542D0B EQ PUSH2 0x12D JUMPI DUP1 PUSH4 0x58E3B6B EQ PUSH2 0x15D JUMPI DUP1 PUSH4 0x439766CE EQ PUSH2 0x18D JUMPI DUP1 PUSH4 0x571E8720 EQ PUSH2 0x197 JUMPI DUP1 PUSH4 0x572B6C05 EQ PUSH2 0x1B3 JUMPI JUMPDEST PUSH0 DUP1 REVERT JUMPDEST PUSH2 0x147 PUSH1 0x4 DUP1 CALLDATASIZE SUB DUP2 ADD SWAP1 PUSH2 0x142 SWAP2 SWAP1 PUSH2 0x1377 JUMP JUMPDEST PUSH2 0x3D2 JUMP JUMPDEST PUSH1 0x40 MLOAD PUSH2 0x154 SWAP2 SWAP1 PUSH2 0x13BC JUMP JUMPDEST PUSH1 0x40 MLOAD DUP1 SWAP2 SUB SWAP1 RETURN JUMPDEST PUSH2 0x177 PUSH1 0x4 DUP1 CALLDATASIZE SUB DUP2 ADD SWAP1 PUSH2 0x172 SWAP2 SWAP1 PUSH2 0x1377 JUMP JUMPDEST PUSH2 0x424 JUMP JUMPDEST PUSH1 0x40 MLOAD PUSH2 0x184 SWAP2 SWAP1 PUSH2 0x13BC JUMP JUMPDEST PUSH1 0x40 MLOAD DUP1 SWAP2 SUB SWAP1 RETURN JUMPDEST PUSH2 0x195 PUSH2 0x441 JUMP JUMPDEST STOP JUMPDEST PUSH2 0x1B1 PUSH1 0x4 DUP1 CALLDATASIZE SUB DUP2 ADD SWAP1 PUSH2 0x1AC SWAP2 SWAP1 PUSH2 0x1544 JUMP JUMPDEST PUSH2 0x453 JUMP JUMPDEST STOP JUMPDEST PUSH2 0x1CD PUSH1 0x4 DUP1 CALLDATASIZE SUB DUP2 ADD SWAP1 PUSH2 0x1C8 SWAP2 SWAP1 PUSH2 0x1377 JUMP JUMPDEST PUSH2 0x46F JUMP JUMPDEST PUSH1 0x40 MLOAD PUSH2 0x1DA SWAP2 SWAP1 PUSH2 0x13BC JUMP JUMPDEST PUSH1 0x40 MLOAD DUP1 SWAP2 SUB SWAP1 RETURN JUMPDEST PUSH2 0x1EB PUSH2 0x4AD JUMP JUMPDEST PUSH1 0x40 MLOAD PUSH2 0x1F8 SWAP2 SWAP1 PUSH2 0x13BC JUMP JUMPDEST PUSH1 0x40 MLOAD DUP1 SWAP2 SUB SWAP1 RETURN JUMPDEST PUSH2 0x21B PUSH1 0x4 DUP1 CALLDATASIZE SUB DUP2 ADD SWAP1 PUSH2 0x216 SWAP2 SWAP1 PUSH2 0x15FC JUMP JUMPDEST PUSH2 0x4C2 JUMP JUMPDEST PUSH1 0x40 MLOAD PUSH2 0x228 SWAP2 SWAP1 PUSH2 0x13BC JUMP JUMPDEST PUSH1 0x40 MLOAD DUP1 SWAP2 SUB SWAP1 RETURN JUMPDEST PUSH2 0x24B PUSH1 0x4 DUP1 CALLDATASIZE SUB DUP2 ADD SWAP1 PUSH2 0x246 SWAP2 SWAP1 PUSH2 0x1651 JUMP JUMPDEST PUSH2 0x4E2 JUMP JUMPDEST STOP JUMPDEST PUSH2 0x255 PUSH2 0x587 JUMP JUMPDEST STOP JUMPDEST PUSH2 0x25F PUSH2 0x59A JUMP JUMPDEST PUSH1 0x40 MLOAD PUSH2 0x26C SWAP2 SWAP1 PUSH2 0x168B JUMP JUMPDEST PUSH1 0x40 MLOAD DUP1 SWAP2 SUB SWAP1 RETURN JUMPDEST PUSH2 0x27D PUSH2 0x5C1 JUMP JUMPDEST PUSH1 0x40 MLOAD PUSH2 0x28A SWAP2 SWAP1 PUSH2 0x168B JUMP JUMPDEST PUSH1 0x40 MLOAD DUP1 SWAP2 SUB SWAP1 RETURN JUMPDEST PUSH2 0x2AD PUSH1 0x4 DUP1 CALLDATASIZE SUB DUP2 ADD SWAP1 PUSH2 0x2A8 SWAP2 SWAP1 PUSH2 0x15FC JUMP JUMPDEST PUSH2 0x5E8 JUMP JUMPDEST PUSH1 0x40 MLOAD PUSH2 0x2BF SWAP7 SWAP6 SWAP5 SWAP4 SWAP3 SWAP2 SWAP1 PUSH2 0x171C JUMP JUMPDEST PUSH1 0x40 MLOAD DUP1 SWAP2 SUB SWAP1 RETURN JUMPDEST PUSH2 0x2E2 PUSH1 0x4 DUP1 CALLDATASIZE SUB DUP2 ADD SWAP1 PUSH2 0x2DD SWAP2 SWAP1 PUSH2 0x15FC JUMP JUMPDEST PUSH2 0x845 JUMP JUMPDEST PUSH1 0x40 MLOAD PUSH2 0x2EF SWAP2 SWAP1 PUSH2 0x1790 JUMP JUMPDEST PUSH1 0x40 MLOAD DUP1 SWAP2 SUB SWAP1 RETURN JUMPDEST PUSH2 0x312 PUSH1 0x4 DUP1 CALLDATASIZE SUB DUP2 ADD SWAP1 PUSH2 0x30D SWAP2 SWAP1 PUSH2 0x15FC JUMP JUMPDEST PUSH2 0x8AA JUMP JUMPDEST PUSH1 0x40 MLOAD PUSH2 0x31F SWAP2 SWAP1 PUSH2 0x168B JUMP JUMPDEST PUSH1 0x40 MLOAD DUP1 SWAP2 SUB SWAP1 RETURN JUMPDEST PUSH2 0x342 PUSH1 0x4 DUP1 CALLDATASIZE SUB DUP2 ADD SWAP1 PUSH2 0x33D SWAP2 SWAP1 PUSH2 0x17A9 JUMP JUMPDEST PUSH2 0x92D JUMP JUMPDEST STOP JUMPDEST PUSH2 0x34C PUSH2 0xCB6 JUMP JUMPDEST STOP JUMPDEST PUSH2 0x368 PUSH1 0x4 DUP1 CALLDATASIZE SUB DUP2 ADD SWAP1 PUSH2 0x363 SWAP2 SWAP1 PUSH2 0x17F9 JUMP JUMPDEST PUSH2 0xCC8 JUMP JUMPDEST STOP JUMPDEST PUSH2 0x384 PUSH1 0x4 DUP1 CALLDATASIZE SUB DUP2 ADD SWAP1 PUSH2 0x37F SWAP2 SWAP1 PUSH2 0x1544 JUMP JUMPDEST PUSH2 0xF22 JUMP JUMPDEST STOP JUMPDEST PUSH2 0x3A0 PUSH1 0x4 DUP1 CALLDATASIZE SUB DUP2 ADD SWAP1 PUSH2 0x39B SWAP2 SWAP1 PUSH2 0x1377 JUMP JUMPDEST PUSH2 0xF3D JUMP JUMPDEST STOP JUMPDEST PUSH2 0x3BC PUSH1 0x4 DUP1 CALLDATASIZE SUB DUP2 ADD SWAP1 PUSH2 0x3B7 SWAP2 SWAP1 PUSH2 0x15FC JUMP JUMPDEST PUSH2 0xFC1 JUMP JUMPDEST PUSH1 0x40 MLOAD PUSH2 0x3C9 SWAP2 SWAP1 PUSH2 0x13BC JUMP JUMPDEST PUSH1 0x40 MLOAD DUP1 SWAP2 SUB SWAP1 RETURN JUMPDEST PUSH0 PUSH1 0x2 PUSH0 DUP4 PUSH20 0xFFFFFFFFFFFFFFFFFFFFFFFFFFFFFFFFFFFFFFFF AND PUSH20 0xFFFFFFFFFFFFFFFFFFFFFFFFFFFFFFFFFFFFFFFF AND DUP2 MSTORE PUSH1 0x20 ADD SWAP1 DUP2 MSTORE PUSH1 0x20 ADD PUSH0 KECCAK256 PUSH0 SWAP1 SLOAD SWAP1 PUSH2 0x100 EXP SWAP1 DIV PUSH1 0xFF AND SWAP1 POP SWAP2 SWAP1 POP JUMP JUMPDEST PUSH1 0x2 PUSH1 0x20 MSTORE DUP1 PUSH0 MSTORE PUSH1 0x40 PUSH0 KECCAK256 PUSH0 SWAP2 POP SLOAD SWAP1 PUSH2 0x100 EXP SWAP1 DIV PUSH1 0xFF AND DUP2 JUMP JUMPDEST PUSH2 0x449 PUSH2 0xFD2 JUMP JUMPDEST PUSH2 0x451 PUSH2 0x1059 JUMP JUMPDEST JUMP JUMPDEST PUSH2 0x45B PUSH2 0x10BB JUMP JUMPDEST PUSH2 0x469 DUP5 DUP5 DUP5 DUP5 PUSH1 0x1 PUSH2 0xCC8 JUMP JUMPDEST POP POP POP POP JUMP JUMPDEST PUSH0 PUSH2 0x478 PUSH2 0x59A JUMP JUMPDEST PUSH20 0xFFFFFFFFFFFFFFFFFFFFFFFFFFFFFFFFFFFFFFFF AND DUP3 PUSH20 0xFFFFFFFFFFFFFFFFFFFFFFFFFFFFFFFFFFFFFFFF AND EQ SWAP1 POP SWAP2 SWAP1 POP JUMP JUMPDEST PUSH0 DUP1 PUSH1 0x14 SWAP1 SLOAD SWAP1 PUSH2 0x100 EXP SWAP1 DIV PUSH1 0xFF AND SWAP1 POP SWAP1 JUMP JUMPDEST PUSH0 DUP1 PUSH1 0x1 PUSH0 DUP5 DUP2 MSTORE PUSH1 0x20 ADD SWAP1 DUP2 MSTORE PUSH1 0x20 ADD PUSH0 KECCAK256 PUSH1 0x1 ADD SLOAD EQ ISZERO SWAP1 POP SWAP2 SWAP1 POP JUMP JUMPDEST DUP1 PUSH1 0x2 PUSH0 CALLER PUSH20 0xFFFFFFFFFFFFFFFFFFFFFFFFFFFFFFFFFFFFFFFF AND PUSH20 0xFFFFFFFFFFFFFFFFFFFFFFFFFFFFFFFFFFFFFFFF AND DUP2 MSTORE PUSH1 0x20 ADD SWAP1 DUP2 MSTORE PUSH1 0x20 ADD PUSH0 KECCAK256 PUSH0 PUSH2 0x100 EXP DUP2 SLOAD DUP2 PUSH1 0xFF MUL NOT AND SWAP1 DUP4 ISZERO ISZERO MUL OR SWAP1 SSTORE POP CALLER PUSH20 0xFFFFFFFFFFFFFFFFFFFFFFFFFFFFFFFFFFFFFFFF AND PUSH32 0x696B9BAD72C623F4143A9A1658343950DC7558BEB6C2DED9C5C9FF7FECE328C0 DUP3 PUSH1 0x40 MLOAD PUSH2 0x57C SWAP2 SWAP1 PUSH2 0x13BC JUMP JUMPDEST PUSH1 0x40 MLOAD DUP1 SWAP2 SUB SWAP1 LOG2 POP JUMP JUMPDEST PUSH2 0x58F PUSH2 0xFD2 JUMP JUMPDEST PUSH2 0x598 PUSH0 PUSH2 0x1105 JUMP JUMPDEST JUMP JUMPDEST PUSH0 PUSH32 0x0 SWAP1 POP SWAP1 JUMP JUMPDEST PUSH0 DUP1 PUSH0 SWAP1 SLOAD SWAP1 PUSH2 0x100 EXP SWAP1 DIV PUSH20 0xFFFFFFFFFFFFFFFFFFFFFFFFFFFFFFFFFFFFFFFF AND SWAP1 POP SWAP1 JUMP JUMPDEST PUSH0 DUP1 PUSH1 0x60 DUP1 PUSH1 0x60 PUSH0 PUSH2 0x5F9 DUP8 PUSH2 0x4C2 JUMP JUMPDEST PUSH2 0x638 JUMPI PUSH1 0x40 MLOAD PUSH32 0x8C379A000000000000000000000000000000000000000000000000000000000 DUP2 MSTORE PUSH1 0x4 ADD PUSH2 0x62F SWAP1 PUSH2 0x190E JUMP JUMPDEST PUSH1 0x40 MLOAD DUP1 SWAP2 SUB SWAP1 REVERT JUMPDEST PUSH0 PUSH1 0x1 PUSH0 DUP10 DUP2 MSTORE PUSH1 0x20 ADD SWAP1 DUP2 MSTORE PUSH1 0x20 ADD PUSH0 KECCAK256 SWAP1 POP DUP1 PUSH0 ADD PUSH0 SWAP1 SLOAD SWAP1 PUSH2 0x100 EXP SWAP1 DIV PUSH20 0xFFFFFFFFFFFFFFFFFFFFFFFFFFFFFFFFFFFFFFFF AND DUP2 PUSH1 0x1 ADD SLOAD DUP3 PUSH1 0x2 ADD DUP4 PUSH1 0x3 ADD DUP5 PUSH1 0x4 ADD DUP6 PUSH1 0x5 ADD PUSH0 SWAP1 SLOAD SWAP1 PUSH2 0x100 EXP SWAP1 DIV PUSH1 0xFF AND DUP4 DUP1 SLOAD PUSH2 0x69D SWAP1 PUSH2 0x1959 JUMP JUMPDEST DUP1 PUSH1 0x1F ADD PUSH1 0x20 DUP1 SWAP2 DIV MUL PUSH1 0x20 ADD PUSH1 0x40 MLOAD SWAP1 DUP2 ADD PUSH1 0x40 MSTORE DUP1 SWAP3 SWAP2 SWAP1 DUP2 DUP2 MSTORE PUSH1 0x20 ADD DUP3 DUP1 SLOAD PUSH2 0x6C9 SWAP1 PUSH2 0x1959 JUMP JUMPDEST DUP1 ISZERO PUSH2 0x714 JUMPI DUP1 PUSH1 0x1F LT PUSH2 0x6EB JUMPI PUSH2 0x100 DUP1 DUP4 SLOAD DIV MUL DUP4 MSTORE SWAP2 PUSH1 0x20 ADD SWAP2 PUSH2 0x714 JUMP JUMPDEST DUP3 ADD SWAP2 SWAP1 PUSH0 MSTORE PUSH1 0x20 PUSH0 KECCAK256 SWAP1 JUMPDEST DUP2 SLOAD DUP2 MSTORE SWAP1 PUSH1 0x1 ADD SWAP1 PUSH1 0x20 ADD DUP1 DUP4 GT PUSH2 0x6F7 JUMPI DUP3 SWAP1 SUB PUSH1 0x1F AND DUP3 ADD SWAP2 JUMPDEST POP POP POP POP POP SWAP4 POP DUP3 DUP1 SLOAD PUSH2 0x727 SWAP1 PUSH2 0x1959 JUMP JUMPDEST DUP1 PUSH1 0x1F ADD PUSH1 0x20 DUP1 SWAP2 DIV MUL PUSH1 0x20 ADD PUSH1 0x40 MLOAD SWAP1 DUP2 ADD PUSH1 0x40 MSTORE DUP1 SWAP3 SWAP2 SWAP1 DUP2 DUP2 MSTORE PUSH1 0x20 ADD DUP3 DUP1 SLOAD PUSH2 0x753 SWAP1 PUSH2 0x1959 JUMP JUMPDEST DUP1 ISZERO PUSH2 0x79E JUMPI DUP1 PUSH1 0x1F LT PUSH2 0x775 JUMPI PUSH2 0x100 DUP1 DUP4 SLOAD DIV MUL DUP4 MSTORE SWAP2 PUSH1 0x20 ADD SWAP2 PUSH2 0x79E JUMP JUMPDEST DUP3 ADD SWAP2 SWAP1 PUSH0 MSTORE PUSH1 0x20 PUSH0 KECCAK256 SWAP1 JUMPDEST DUP2 SLOAD DUP2 MSTORE SWAP1 PUSH1 0x1 ADD SWAP1 PUSH1 0x20 ADD DUP1 DUP4 GT PUSH2 0x781 JUMPI DUP3 SWAP1 SUB PUSH1 0x1F AND DUP3 ADD SWAP2 JUMPDEST POP POP POP POP POP SWAP3 POP DUP2 DUP1 SLOAD PUSH2 0x7B1 SWAP1 PUSH2 0x1959 JUMP JUMPDEST DUP1 PUSH1 0x1F ADD PUSH1 0x20 DUP1 SWAP2 DIV MUL PUSH1 0x20 ADD PUSH1 0x40 MLOAD SWAP1 DUP2 ADD PUSH1 0x40 MSTORE DUP1 SWAP3 SWAP2 SWAP1 DUP2 DUP2 MSTORE PUSH1 0x20 ADD DUP3 DUP1 SLOAD PUSH2 0x7DD SWAP1 PUSH2 0x1959 JUMP JUMPDEST DUP1 ISZERO PUSH2 0x828 JUMPI DUP1 PUSH1 0x1F LT PUSH2 0x7FF JUMPI PUSH2 0x100 DUP1 DUP4 SLOAD DIV MUL DUP4 MSTORE SWAP2 PUSH1 0x20 ADD SWAP2 PUSH2 0x828 JUMP JUMPDEST DUP3 ADD SWAP2 SWAP1 PUSH0 MSTORE PUSH1 0x20 PUSH0 KECCAK256 SWAP1 JUMPDEST DUP2 SLOAD DUP2 MSTORE SWAP1 PUSH1 0x1 ADD SWAP1 PUSH1 0x20 ADD DUP1 DUP4 GT PUSH2 0x80B JUMPI DUP3 SWAP1 SUB PUSH1 0x1F AND DUP3 ADD SWAP2 JUMPDEST POP POP POP POP POP SWAP2 POP SWAP7 POP SWAP7 POP SWAP7 POP SWAP7 POP SWAP7 POP SWAP7 POP POP SWAP2 SWAP4 SWAP6 POP SWAP2 SWAP4 SWAP6 JUMP JUMPDEST PUSH0 PUSH2 0x84F DUP3 PUSH2 0x4C2 JUMP JUMPDEST PUSH2 0x88E JUMPI PUSH1 0x40 MLOAD PUSH32 0x8C379A000000000000000000000000000000000000000000000000000000000 DUP2 MSTORE PUSH1 0x4 ADD PUSH2 0x885 SWAP1 PUSH2 0x190E JUMP JUMPDEST PUSH1 0x40 MLOAD DUP1 SWAP2 SUB SWAP1 REVERT JUMPDEST PUSH1 0x1 PUSH0 DUP4 DUP2 MSTORE PUSH1 0x20 ADD SWAP1 DUP2 MSTORE PUSH1 0x20 ADD PUSH0 KECCAK256 PUSH1 0x1 ADD SLOAD SWAP1 POP SWAP2 SWAP1 POP JUMP JUMPDEST PUSH0 PUSH2 0x8B4 DUP3 PUSH2 0x4C2 JUMP JUMPDEST PUSH2 0x8F3 JUMPI PUSH1 0x40 MLOAD PUSH32 0x8C379A000000000000000000000000000000000000000000000000000000000 DUP2 MSTORE PUSH1 0x4 ADD PUSH2 0x8EA SWAP1 PUSH2 0x190E JUMP JUMPDEST PUSH1 0x40 MLOAD DUP1 SWAP2 SUB SWAP1 REVERT JUMPDEST PUSH1 0x1 PUSH0 DUP4 DUP2 MSTORE PUSH1 0x20 ADD SWAP1 DUP2 MSTORE PUSH1 0x20 ADD PUSH0 KECCAK256 PUSH0 ADD PUSH0 SWAP1 SLOAD SWAP1 PUSH2 0x100 EXP SWAP1 DIV PUSH20 0xFFFFFFFFFFFFFFFFFFFFFFFFFFFFFFFFFFFFFFFF AND SWAP1 POP SWAP2 SWAP1 POP JUMP JUMPDEST PUSH2 0x935 PUSH2 0x10BB JUMP JUMPDEST PUSH2 0x93E DUP4 PUSH2 0x4C2 JUMP JUMPDEST PUSH2 0x97D JUMPI PUSH1 0x40 MLOAD PUSH32 0x8C379A000000000000000000000000000000000000000000000000000000000 DUP2 MSTORE PUSH1 0x4 ADD PUSH2 0x974 SWAP1 PUSH2 0x190E JUMP JUMPDEST PUSH1 0x40 MLOAD DUP1 SWAP2 SUB SWAP1 REVERT JUMPDEST DUP1 ISZERO PUSH2 0xABF JUMPI PUSH1 0x2 PUSH0 PUSH2 0x98E PUSH2 0x11C6 JUMP JUMPDEST PUSH20 0xFFFFFFFFFFFFFFFFFFFFFFFFFFFFFFFFFFFFFFFF AND PUSH20 0xFFFFFFFFFFFFFFFFFFFFFFFFFFFFFFFFFFFFFFFF AND DUP2 MSTORE PUSH1 0x20 ADD SWAP1 DUP2 MSTORE PUSH1 0x20 ADD PUSH0 KECCAK256 PUSH0 SWAP1 SLOAD SWAP1 PUSH2 0x100 EXP SWAP1 DIV PUSH1 0xFF AND PUSH2 0xA13 JUMPI PUSH1 0x40 MLOAD PUSH32 0x8C379A000000000000000000000000000000000000000000000000000000000 DUP2 MSTORE PUSH1 0x4 ADD PUSH2 0xA0A SWAP1 PUSH2 0x19F9 JUMP JUMPDEST PUSH1 0x40 MLOAD DUP1 SWAP2 SUB SWAP1 REVERT JUMPDEST PUSH1 0x1 PUSH0 DUP5 DUP2 MSTORE PUSH1 0x20 ADD SWAP1 DUP2 MSTORE PUSH1 0x20 ADD PUSH0 KECCAK256 PUSH0 ADD PUSH0 SWAP1 SLOAD SWAP1 PUSH2 0x100 EXP SWAP1 DIV PUSH20 0xFFFFFFFFFFFFFFFFFFFFFFFFFFFFFFFFFFFFFFFF AND PUSH20 0xFFFFFFFFFFFFFFFFFFFFFFFFFFFFFFFFFFFFFFFF AND PUSH2 0xA64 PUSH2 0x11C6 JUMP JUMPDEST PUSH20 0xFFFFFFFFFFFFFFFFFFFFFFFFFFFFFFFFFFFFFFFF AND EQ PUSH2 0xABA JUMPI PUSH1 0x40 MLOAD PUSH32 0x8C379A000000000000000000000000000000000000000000000000000000000 DUP2 MSTORE PUSH1 0x4 ADD PUSH2 0xAB1 SWAP1 PUSH2 0x1A87 JUMP JUMPDEST PUSH1 0x40 MLOAD DUP1 SWAP2 SUB SWAP1 REVERT JUMPDEST PUSH2 0xB60 JUMP JUMPDEST PUSH1 0x1 PUSH0 DUP5 DUP2 MSTORE PUSH1 0x20 ADD SWAP1 DUP2 MSTORE PUSH1 0x20 ADD PUSH0 KECCAK256 PUSH0 ADD PUSH0 SWAP1 SLOAD SWAP1 PUSH2 0x100 EXP SWAP1 DIV PUSH20 0xFFFFFFFFFFFFFFFFFFFFFFFFFFFFFFFFFFFFFFFF AND PUSH20 0xFFFFFFFFFFFFFFFFFFFFFFFFFFFFFFFFFFFFFFFF AND CALLER PUSH20 0xFFFFFFFFFFFFFFFFFFFFFFFFFFFFFFFFFFFFFFFF AND EQ PUSH2 0xB5F JUMPI PUSH1 0x40 MLOAD PUSH32 0x8C379A000000000000000000000000000000000000000000000000000000000 DUP2 MSTORE PUSH1 0x4 ADD PUSH2 0xB56 SWAP1 PUSH2 0x1A87 JUMP JUMPDEST PUSH1 0x40 MLOAD DUP1 SWAP2 SUB SWAP1 REVERT JUMPDEST JUMPDEST PUSH0 PUSH20 0xFFFFFFFFFFFFFFFFFFFFFFFFFFFFFFFFFFFFFFFF AND DUP3 PUSH20 0xFFFFFFFFFFFFFFFFFFFFFFFFFFFFFFFFFFFFFFFF AND SUB PUSH2 0xBCE JUMPI PUSH1 0x40 MLOAD PUSH32 0x8C379A000000000000000000000000000000000000000000000000000000000 DUP2 MSTORE PUSH1 0x4 ADD PUSH2 0xBC5 SWAP1 PUSH2 0x1B15 JUMP JUMPDEST PUSH1 0x40 MLOAD DUP1 SWAP2 SUB SWAP1 REVERT JUMPDEST PUSH0 PUSH1 0x1 PUSH0 DUP6 DUP2 MSTORE PUSH1 0x20 ADD SWAP1 DUP2 MSTORE PUSH1 0x20 ADD PUSH0 KECCAK256 PUSH0 ADD PUSH0 SWAP1 SLOAD SWAP1 PUSH2 0x100 EXP SWAP1 DIV PUSH20 0xFFFFFFFFFFFFFFFFFFFFFFFFFFFFFFFFFFFFFFFF AND SWAP1 POP DUP3 PUSH1 0x1 PUSH0 DUP7 DUP2 MSTORE PUSH1 0x20 ADD SWAP1 DUP2 MSTORE PUSH1 0x20 ADD PUSH0 KECCAK256 PUSH0 ADD PUSH0 PUSH2 0x100 EXP DUP2 SLOAD DUP2 PUSH20 0xFFFFFFFFFFFFFFFFFFFFFFFFFFFFFFFFFFFFFFFF MUL NOT AND SWAP1 DUP4 PUSH20 0xFFFFFFFFFFFFFFFFFFFFFFFFFFFFFFFFFFFFFFFF AND MUL OR SWAP1 SSTORE POP DUP3 PUSH20 0xFFFFFFFFFFFFFFFFFFFFFFFFFFFFFFFFFFFFFFFF AND DUP2 PUSH20 0xFFFFFFFFFFFFFFFFFFFFFFFFFFFFFFFFFFFFFFFF AND DUP6 PUSH32 0xB659DCCC8EB950324170E8D9598AF5EE04EE070883EB28651A96788721FBF83 PUSH1 0x40 MLOAD PUSH1 0x40 MLOAD DUP1 SWAP2 SUB SWAP1 LOG4 POP POP POP POP JUMP JUMPDEST PUSH2 0xCBE PUSH2 0xFD2 JUMP JUMPDEST PUSH2 0xCC6 PUSH2 0x11D4 JUMP JUMPDEST JUMP JUMPDEST PUSH2 0xCD0 PUSH2 0x10BB JUMP JUMPDEST PUSH2 0xCD9 DUP6 PUSH2 0x4C2 JUMP JUMPDEST ISZERO PUSH2 0xD19 JUMPI PUSH1 0x40 MLOAD PUSH32 0x8C379A000000000000000000000000000000000000000000000000000000000 DUP2 MSTORE PUSH1 0x4 ADD PUSH2 0xD10 SWAP1 PUSH2 0x1B7D JUMP JUMPDEST PUSH1 0x40 MLOAD DUP1 SWAP2 SUB SWAP1 REVERT JUMPDEST DUP1 ISZERO PUSH2 0xDB0 JUMPI PUSH1 0x2 PUSH0 PUSH2 0xD2A PUSH2 0x11C6 JUMP JUMPDEST PUSH20 0xFFFFFFFFFFFFFFFFFFFFFFFFFFFFFFFFFFFFFFFF AND PUSH20 0xFFFFFFFFFFFFFFFFFFFFFFFFFFFFFFFFFFFFFFFF AND DUP2 MSTORE PUSH1 0x20 ADD SWAP1 DUP2 MSTORE PUSH1 0x20 ADD PUSH0 KECCAK256 PUSH0 SWAP1 SLOAD SWAP1 PUSH2 0x100 EXP SWAP1 DIV PUSH1 0xFF AND PUSH2 0xDAF JUMPI PUSH1 0x40 MLOAD PUSH32 0x8C379A000000000000000000000000000000000000000000000000000000000 DUP2 MSTORE PUSH1 0x4 ADD PUSH2 0xDA6 SWAP1 PUSH2 0x19F9 JUMP JUMPDEST PUSH1 0x40 MLOAD DUP1 SWAP2 SUB SWAP1 REVERT JUMPDEST JUMPDEST PUSH1 0x40 MLOAD DUP1 PUSH1 0xC0 ADD PUSH1 0x40 MSTORE DUP1 PUSH2 0xDC3 PUSH2 0x11C6 JUMP JUMPDEST PUSH20 0xFFFFFFFFFFFFFFFFFFFFFFFFFFFFFFFFFFFFFFFF AND DUP2 MSTORE PUSH1 0x20 ADD TIMESTAMP DUP2 MSTORE PUSH1 0x20 ADD DUP6 DUP2 MSTORE PUSH1 0x20 ADD DUP5 DUP2 MSTORE PUSH1 0x20 ADD DUP4 DUP2 MSTORE PUSH1 0x20 ADD DUP3 ISZERO ISZERO DUP2 MSTORE POP PUSH1 0x1 PUSH0 DUP8 DUP2 MSTORE PUSH1 0x20 ADD SWAP1 DUP2 MSTORE PUSH1 0x20 ADD PUSH0 KECCAK256 PUSH0 DUP3 ADD MLOAD DUP2 PUSH0 ADD PUSH0 PUSH2 0x100 EXP DUP2 SLOAD DUP2 PUSH20 0xFFFFFFFFFFFFFFFFFFFFFFFFFFFFFFFFFFFFFFFF MUL NOT AND SWAP1 DUP4 PUSH20 0xFFFFFFFFFFFFFFFFFFFFFFFFFFFFFFFFFFFFFFFF AND MUL OR SWAP1 SSTORE POP PUSH1 0x20 DUP3 ADD MLOAD DUP2 PUSH1 0x1 ADD SSTORE PUSH1 0x40 DUP3 ADD MLOAD DUP2 PUSH1 0x2 ADD SWAP1 DUP2 PUSH2 0xE70 SWAP2 SWAP1 PUSH2 0x1D38 JUMP JUMPDEST POP PUSH1 0x60 DUP3 ADD MLOAD DUP2 PUSH1 0x3 ADD SWAP1 DUP2 PUSH2 0xE86 SWAP2 SWAP1 PUSH2 0x1D38 JUMP JUMPDEST POP PUSH1 0x80 DUP3 ADD MLOAD DUP2 PUSH1 0x4 ADD SWAP1 DUP2 PUSH2 0xE9C SWAP2 SWAP1 PUSH2 0x1D38 JUMP JUMPDEST POP PUSH1 0xA0 DUP3 ADD MLOAD DUP2 PUSH1 0x5 ADD PUSH0 PUSH2 0x100 EXP DUP2 SLOAD DUP2 PUSH1 0xFF MUL NOT AND SWAP1 DUP4 ISZERO ISZERO MUL OR SWAP1 SSTORE POP SWAP1 POP POP PUSH2 0xEC7 PUSH2 0x11C6 JUMP JUMPDEST PUSH20 0xFFFFFFFFFFFFFFFFFFFFFFFFFFFFFFFFFFFFFFFF AND DUP6 PUSH32 0xAE5AB09589867EFDD9D9D1B4259D914151A9730D97B10BF71109E597A65155E6 DUP7 DUP7 DUP7 DUP7 PUSH1 0x40 MLOAD PUSH2 0xF13 SWAP5 SWAP4 SWAP3 SWAP2 SWAP1 PUSH2 0x1E07 JUMP JUMPDEST PUSH1 0x40 MLOAD DUP1 SWAP2 SUB SWAP1 LOG3 POP POP POP POP POP JUMP JUMPDEST PUSH2 0xF2A PUSH2 0x10BB JUMP JUMPDEST PUSH2 0xF37 DUP5 DUP5 DUP5 DUP5 PUSH0 PUSH2 0xCC8 JUMP JUMPDEST POP POP POP POP JUMP JUMPDEST PUSH2 0xF45 PUSH2 0xFD2 JUMP JUMPDEST PUSH0 PUSH20 0xFFFFFFFFFFFFFFFFFFFFFFFFFFFFFFFFFFFFFFFF AND DUP2 PUSH20 0xFFFFFFFFFFFFFFFFFFFFFFFFFFFFFFFFFFFFFFFF AND SUB PUSH2 0xFB5 JUMPI PUSH0 PUSH1 0x40 MLOAD PUSH32 0x1E4FBDF700000000000000000000000000000000000000000000000000000000 DUP2 MSTORE PUSH1 0x4 ADD PUSH2 0xFAC SWAP2 SWAP1 PUSH2 0x168B JUMP JUMPDEST PUSH1 0x40 MLOAD DUP1 SWAP2 SUB SWAP1 REVERT JUMPDEST PUSH2 0xFBE DUP2 PUSH2 0x1105 JUMP JUMPDEST POP JUMP JUMPDEST PUSH0 PUSH2 0xFCB DUP3 PUSH2 0x4C2 JUMP JUMPDEST SWAP1 POP SWAP2 SWAP1 POP JUMP JUMPDEST PUSH2 0xFDA PUSH2 0x11C6 JUMP JUMPDEST PUSH20 0xFFFFFFFFFFFFFFFFFFFFFFFFFFFFFFFFFFFFFFFF AND PUSH2 0xFF8 PUSH2 0x5C1 JUMP JUMPDEST PUSH20 0xFFFFFFFFFFFFFFFFFFFFFFFFFFFFFFFFFFFFFFFF AND EQ PUSH2 0x1057 JUMPI PUSH2 0x101B PUSH2 0x11C6 JUMP JUMPDEST PUSH1 0x40 MLOAD PUSH32 0x118CDAA700000000000000000000000000000000000000000000000000000000 DUP2 MSTORE PUSH1 0x4 ADD PUSH2 0x104E SWAP2 SWAP1 PUSH2 0x168B JUMP JUMPDEST PUSH1 0x40 MLOAD DUP1 SWAP2 SUB SWAP1 REVERT JUMPDEST JUMP JUMPDEST PUSH2 0x1061 PUSH2 0x10BB JUMP JUMPDEST PUSH1 0x1 PUSH0 PUSH1 0x14 PUSH2 0x100 EXP DUP2 SLOAD DUP2 PUSH1 0xFF MUL NOT AND SWAP1 DUP4 ISZERO ISZERO MUL OR SWAP1 SSTORE POP PUSH32 0x62E78CEA01BEE320CD4E420270B5EA74000D11B0C9F74754EBDBFC544B05A258 PUSH2 0x10A4 PUSH2 0x11C6 JUMP JUMPDEST PUSH1 0x40 MLOAD PUSH2 0x10B1 SWAP2 SWAP1 PUSH2 0x168B JUMP JUMPDEST PUSH1 0x40 MLOAD DUP1 SWAP2 SUB SWAP1 LOG1 JUMP JUMPDEST PUSH2 0x10C3 PUSH2 0x4AD JUMP JUMPDEST ISZERO PUSH2 0x1103 JUMPI PUSH1 0x40 MLOAD PUSH32 0x8C379A000000000000000000000000000000000000000000000000000000000 DUP2 MSTORE PUSH1 0x4 ADD PUSH2 0x10FA SWAP1 PUSH2 0x1EA9 JUMP JUMPDEST PUSH1 0x40 MLOAD DUP1 SWAP2 SUB SWAP1 REVERT JUMPDEST JUMP JUMPDEST PUSH0 DUP1 PUSH0 SWAP1 SLOAD SWAP1 PUSH2 0x100 EXP SWAP1 DIV PUSH20 0xFFFFFFFFFFFFFFFFFFFFFFFFFFFFFFFFFFFFFFFF AND SWAP1 POP DUP2 PUSH0 DUP1 PUSH2 0x100 EXP DUP2 SLOAD DUP2 PUSH20 0xFFFFFFFFFFFFFFFFFFFFFFFFFFFFFFFFFFFFFFFF MUL NOT AND SWAP1 DUP4 PUSH20 0xFFFFFFFFFFFFFFFFFFFFFFFFFFFFFFFFFFFFFFFF AND MUL OR SWAP1 SSTORE POP DUP2 PUSH20 0xFFFFFFFFFFFFFFFFFFFFFFFFFFFFFFFFFFFFFFFF AND DUP2 PUSH20 0xFFFFFFFFFFFFFFFFFFFFFFFFFFFFFFFFFFFFFFFF AND PUSH32 0x8BE0079C531659141344CD1FD0A4F28419497F9722A3DAAFE3B4186F6B6457E0 PUSH1 0x40 MLOAD PUSH1 0x40 MLOAD DUP1 SWAP2 SUB SWAP1 LOG3 POP POP JUMP JUMPDEST PUSH0 PUSH2 0x11CF PUSH2 0x1235 JUMP JUMPDEST SWAP1 POP SWAP1 JUMP JUMPDEST PUSH2 0x11DC PUSH2 0x12A6 JUMP JUMPDEST PUSH0 DUP1 PUSH1 0x14 PUSH2 0x100 EXP DUP2 SLOAD DUP2 PUSH1 0xFF MUL NOT AND SWAP1 DUP4 ISZERO ISZERO MUL OR SWAP1 SSTORE POP PUSH32 0x5DB9EE0A495BF2E6FF9C91A7834C1BA4FDD244A5E8AA4E537BD38AEAE4B073AA PUSH2 0x121E PUSH2 0x11C6 JUMP JUMPDEST PUSH1 0x40 MLOAD PUSH2 0x122B SWAP2 SWAP1 PUSH2 0x168B JUMP JUMPDEST PUSH1 0x40 MLOAD DUP1 SWAP2 SUB SWAP1 LOG1 JUMP JUMPDEST PUSH0 DUP1 PUSH0 CALLDATASIZE SWAP1 POP SWAP1 POP PUSH0 PUSH2 0x1246 PUSH2 0x12EF JUMP JUMPDEST SWAP1 POP PUSH2 0x1251 CALLER PUSH2 0x46F JUMP JUMPDEST DUP1 ISZERO PUSH2 0x125D JUMPI POP DUP1 DUP3 LT ISZERO JUMPDEST ISZERO PUSH2 0x1296 JUMPI PUSH0 CALLDATASIZE DUP3 DUP5 PUSH2 0x1270 SWAP2 SWAP1 PUSH2 0x1EF4 JUMP JUMPDEST SWAP1 DUP1 SWAP3 PUSH2 0x127F SWAP4 SWAP3 SWAP2 SWAP1 PUSH2 0x1F2F JUMP JUMPDEST SWAP1 PUSH2 0x128A SWAP2 SWAP1 PUSH2 0x1F9E JUMP JUMPDEST PUSH1 0x60 SHR SWAP3 POP POP POP PUSH2 0x12A3 JUMP JUMPDEST PUSH2 0x129E PUSH2 0x12FD JUMP JUMPDEST SWAP3 POP POP POP JUMPDEST SWAP1 JUMP JUMPDEST PUSH2 0x12AE PUSH2 0x4AD JUMP JUMPDEST PUSH2 0x12ED JUMPI PUSH1 0x40 MLOAD PUSH32 0x8C379A000000000000000000000000000000000000000000000000000000000 DUP2 MSTORE PUSH1 0x4 ADD PUSH2 0x12E4 SWAP1 PUSH2 0x2046 JUMP JUMPDEST PUSH1 0x40 MLOAD DUP1 SWAP2 SUB SWAP1 REVERT JUMPDEST JUMP JUMPDEST PUSH0 PUSH2 0x12F8 PUSH2 0x1304 JUMP JUMPDEST SWAP1 POP SWAP1 JUMP JUMPDEST PUSH0 CALLER SWAP1 POP SWAP1 JUMP JUMPDEST PUSH0 PUSH1 0x14 SWAP1 POP SWAP1 JUMP JUMPDEST PUSH0 PUSH1 0x40 MLOAD SWAP1 POP SWAP1 JUMP JUMPDEST PUSH0 DUP1 REVERT JUMPDEST PUSH0 DUP1 REVERT JUMPDEST PUSH0 PUSH20 0xFFFFFFFFFFFFFFFFFFFFFFFFFFFFFFFFFFFFFFFF DUP3 AND SWAP1 POP SWAP2 SWAP1 POP JUMP JUMPDEST PUSH0 PUSH2 0x1346 DUP3 PUSH2 0x131D JUMP JUMPDEST SWAP1 POP SWAP2 SWAP1 POP JUMP JUMPDEST PUSH2 0x1356 DUP2 PUSH2 0x133C JUMP JUMPDEST DUP2 EQ PUSH2 0x1360 JUMPI PUSH0 DUP1 REVERT JUMPDEST POP JUMP JUMPDEST PUSH0 DUP2 CALLDATALOAD SWAP1 POP PUSH2 0x1371 DUP2 PUSH2 0x134D JUMP JUMPDEST SWAP3 SWAP2 POP POP JUMP JUMPDEST PUSH0 PUSH1 0x20 DUP3 DUP5 SUB SLT ISZERO PUSH2 0x138C JUMPI PUSH2 0x138B PUSH2 0x1315 JUMP JUMPDEST JUMPDEST PUSH0 PUSH2 0x1399 DUP5 DUP3 DUP6 ADD PUSH2 0x1363 JUMP JUMPDEST SWAP2 POP POP SWAP3 SWAP2 POP POP JUMP JUMPDEST PUSH0 DUP2 ISZERO ISZERO SWAP1 POP SWAP2 SWAP1 POP JUMP JUMPDEST PUSH2 0x13B6 DUP2 PUSH2 0x13A2 JUMP JUMPDEST DUP3 MSTORE POP POP JUMP JUMPDEST PUSH0 PUSH1 0x20 DUP3 ADD SWAP1 POP PUSH2 0x13CF PUSH0 DUP4 ADD DUP5 PUSH2 0x13AD JUMP JUMPDEST SWAP3 SWAP2 POP POP JUMP JUMPDEST PUSH0 DUP2 SWAP1 POP SWAP2 SWAP1 POP JUMP JUMPDEST PUSH2 0x13E7 DUP2 PUSH2 0x13D5 JUMP JUMPDEST DUP2 EQ PUSH2 0x13F1 JUMPI PUSH0 DUP1 REVERT JUMPDEST POP JUMP JUMPDEST PUSH0 DUP2 CALLDATALOAD SWAP1 POP PUSH2 0x1402 DUP2 PUSH2 0x13DE JUMP JUMPDEST SWAP3 SWAP2 POP POP JUMP JUMPDEST PUSH0 DUP1 REVERT JUMPDEST PUSH0 DUP1 REVERT JUMPDEST PUSH0 PUSH1 0x1F NOT PUSH1 0x1F DUP4 ADD AND SWAP1 POP SWAP2 SWAP1 POP JUMP JUMPDEST PUSH32 0x4E487B7100000000000000000000000000000000000000000000000000000000 PUSH0 MSTORE PUSH1 0x41 PUSH1 0x4 MSTORE PUSH1 0x24 PUSH0 REVERT JUMPDEST PUSH2 0x1456 DUP3 PUSH2 0x1410 JUMP JUMPDEST DUP2 ADD DUP2 DUP2 LT PUSH8 0xFFFFFFFFFFFFFFFF DUP3 GT OR ISZERO PUSH2 0x1475 JUMPI PUSH2 0x1474 PUSH2 0x1420 JUMP JUMPDEST JUMPDEST DUP1 PUSH1 0x40 MSTORE POP POP POP JUMP JUMPDEST PUSH0 PUSH2 0x1487 PUSH2 0x130C JUMP JUMPDEST SWAP1 POP PUSH2 0x1493 DUP3 DUP3 PUSH2 0x144D JUMP JUMPDEST SWAP2 SWAP1 POP JUMP JUMPDEST PUSH0 PUSH8 0xFFFFFFFFFFFFFFFF DUP3 GT ISZERO PUSH2 0x14B2 JUMPI PUSH2 0x14B1 PUSH2 0x1420 JUMP JUMPDEST JUMPDEST PUSH2 0x14BB DUP3 PUSH2 0x1410 JUMP JUMPDEST SWAP1 POP PUSH1 0x20 DUP2 ADD SWAP1 POP SWAP2 SWAP1 POP JUMP JUMPDEST DUP3 DUP2 DUP4 CALLDATACOPY PUSH0 DUP4 DUP4 ADD MSTORE POP POP POP JUMP JUMPDEST PUSH0 PUSH2 0x14E8 PUSH2 0x14E3 DUP5 PUSH2 0x1498 JUMP JUMPDEST PUSH2 0x147E JUMP JUMPDEST SWAP1 POP DUP3 DUP2 MSTORE PUSH1 0x20 DUP2 ADD DUP5 DUP5 DUP5 ADD GT ISZERO PUSH2 0x1504 JUMPI PUSH2 0x1503 PUSH2 0x140C JUMP JUMPDEST JUMPDEST PUSH2 0x150F DUP5 DUP3 DUP6 PUSH2 0x14C8 JUMP JUMPDEST POP SWAP4 SWAP3 POP POP POP JUMP JUMPDEST PUSH0 DUP3 PUSH1 0x1F DUP4 ADD SLT PUSH2 0x152B JUMPI PUSH2 0x152A PUSH2 0x1408 JUMP JUMPDEST JUMPDEST DUP2 CALLDATALOAD PUSH2 0x153B DUP5 DUP3 PUSH1 0x20 DUP7 ADD PUSH2 0x14D6 JUMP JUMPDEST SWAP2 POP POP SWAP3 SWAP2 POP POP JUMP JUMPDEST PUSH0 DUP1 PUSH0 DUP1 PUSH1 0x80 DUP6 DUP8 SUB SLT ISZERO PUSH2 0x155C JUMPI PUSH2 0x155B PUSH2 0x1315 JUMP JUMPDEST JUMPDEST PUSH0 PUSH2 0x1569 DUP8 DUP3 DUP9 ADD PUSH2 0x13F4 JUMP JUMPDEST SWAP5 POP POP PUSH1 0x20 DUP6 ADD CALLDATALOAD PUSH8 0xFFFFFFFFFFFFFFFF DUP2 GT ISZERO PUSH2 0x158A JUMPI PUSH2 0x1589 PUSH2 0x1319 JUMP JUMPDEST JUMPDEST PUSH2 0x1596 DUP8 DUP3 DUP9 ADD PUSH2 0x1517 JUMP JUMPDEST SWAP4 POP POP PUSH1 0x40 DUP6 ADD CALLDATALOAD PUSH8 0xFFFFFFFFFFFFFFFF DUP2 GT ISZERO PUSH2 0x15B7 JUMPI PUSH2 0x15B6 PUSH2 0x1319 JUMP JUMPDEST JUMPDEST PUSH2 0x15C3 DUP8 DUP3 DUP9 ADD PUSH2 0x1517 JUMP JUMPDEST SWAP3 POP POP PUSH1 0x60 DUP6 ADD CALLDATALOAD PUSH8 0xFFFFFFFFFFFFFFFF DUP2 GT ISZERO PUSH2 0x15E4 JUMPI PUSH2 0x15E3 PUSH2 0x1319 JUMP JUMPDEST JUMPDEST PUSH2 0x15F0 DUP8 DUP3 DUP9 ADD PUSH2 0x1517 JUMP JUMPDEST SWAP2 POP POP SWAP3 SWAP6 SWAP2 SWAP5 POP SWAP3 POP JUMP JUMPDEST PUSH0 PUSH1 0x20 DUP3 DUP5 SUB SLT ISZERO PUSH2 0x1611 JUMPI PUSH2 0x1610 PUSH2 0x1315 JUMP JUMPDEST JUMPDEST PUSH0 PUSH2 0x161E DUP5 DUP3 DUP6 ADD PUSH2 0x13F4 JUMP JUMPDEST SWAP2 POP POP SWAP3 SWAP2 POP POP JUMP JUMPDEST PUSH2 0x1630 DUP2 PUSH2 0x13A2 JUMP JUMPDEST DUP2 EQ PUSH2 0x163A JUMPI PUSH0 DUP1 REVERT JUMPDEST POP JUMP JUMPDEST PUSH0 DUP2 CALLDATALOAD SWAP1 POP PUSH2 0x164B DUP2 PUSH2 0x1627 JUMP JUMPDEST SWAP3 SWAP2 POP POP JUMP JUMPDEST PUSH0 PUSH1 0x20 DUP3 DUP5 SUB SLT ISZERO PUSH2 0x1666 JUMPI PUSH2 0x1665 PUSH2 0x1315 JUMP JUMPDEST JUMPDEST PUSH0 PUSH2 0x1673 DUP5 DUP3 DUP6 ADD PUSH2 0x163D JUMP JUMPDEST SWAP2 POP POP SWAP3 SWAP2 POP POP JUMP JUMPDEST PUSH2 0x1685 DUP2 PUSH2 0x133C JUMP JUMPDEST DUP3 MSTORE POP POP JUMP JUMPDEST PUSH0 PUSH1 0x20 DUP3 ADD SWAP1 POP PUSH2 0x169E PUSH0 DUP4 ADD DUP5 PUSH2 0x167C JUMP JUMPDEST SWAP3 SWAP2 POP POP JUMP JUMPDEST PUSH0 DUP2 SWAP1 POP SWAP2 SWAP1 POP JUMP JUMPDEST PUSH2 0x16B6 DUP2 PUSH2 0x16A4 JUMP JUMPDEST DUP3 MSTORE POP POP JUMP JUMPDEST PUSH0 DUP2 MLOAD SWAP1 POP SWAP2 SWAP1 POP JUMP JUMPDEST PUSH0 DUP3 DUP3 MSTORE PUSH1 0x20 DUP3 ADD SWAP1 POP SWAP3 SWAP2 POP POP JUMP JUMPDEST DUP3 DUP2 DUP4 MCOPY PUSH0 DUP4 DUP4 ADD MSTORE POP POP POP JUMP JUMPDEST PUSH0 PUSH2 0x16EE DUP3 PUSH2 0x16BC JUMP JUMPDEST PUSH2 0x16F8 DUP2 DUP6 PUSH2 0x16C6 JUMP JUMPDEST SWAP4 POP PUSH2 0x1708 DUP2 DUP6 PUSH1 0x20 DUP7 ADD PUSH2 0x16D6 JUMP JUMPDEST PUSH2 0x1711 DUP2 PUSH2 0x1410 JUMP JUMPDEST DUP5 ADD SWAP2 POP POP SWAP3 SWAP2 POP POP JUMP JUMPDEST PUSH0 PUSH1 0xC0 DUP3 ADD SWAP1 POP PUSH2 0x172F PUSH0 DUP4 ADD DUP10 PUSH2 0x167C JUMP JUMPDEST PUSH2 0x173C PUSH1 0x20 DUP4 ADD DUP9 PUSH2 0x16AD JUMP JUMPDEST DUP2 DUP2 SUB PUSH1 0x40 DUP4 ADD MSTORE PUSH2 0x174E DUP2 DUP8 PUSH2 0x16E4 JUMP JUMPDEST SWAP1 POP DUP2 DUP2 SUB PUSH1 0x60 DUP4 ADD MSTORE PUSH2 0x1762 DUP2 DUP7 PUSH2 0x16E4 JUMP JUMPDEST SWAP1 POP DUP2 DUP2 SUB PUSH1 0x80 DUP4 ADD MSTORE PUSH2 0x1776 DUP2 DUP6 PUSH2 0x16E4 JUMP JUMPDEST SWAP1 POP PUSH2 0x1785 PUSH1 0xA0 DUP4 ADD DUP5 PUSH2 0x13AD JUMP JUMPDEST SWAP8 SWAP7 POP POP POP POP POP POP POP JUMP JUMPDEST PUSH0 PUSH1 0x20 DUP3 ADD SWAP1 POP PUSH2 0x17A3 PUSH0 DUP4 ADD DUP5 PUSH2 0x16AD JUMP JUMPDEST SWAP3 SWAP2 POP POP JUMP JUMPDEST PUSH0 DUP1 PUSH0 PUSH1 0x60 DUP5 DUP7 SUB SLT ISZERO PUSH2 0x17C0 JUMPI PUSH2 0x17BF PUSH2 0x1315 JUMP JUMPDEST JUMPDEST PUSH0 PUSH2 0x17CD DUP7 DUP3 DUP8 ADD PUSH2 0x13F4 JUMP JUMPDEST SWAP4 POP POP PUSH1 0x20 PUSH2 0x17DE DUP7 DUP3 DUP8 ADD PUSH2 0x1363 JUMP JUMPDEST SWAP3 POP POP PUSH1 0x40 PUSH2 0x17EF DUP7 DUP3 DUP8 ADD PUSH2 0x163D JUMP JUMPDEST SWAP2 POP POP SWAP3 POP SWAP3 POP SWAP3 JUMP JUMPDEST PUSH0 DUP1 PUSH0 DUP1 PUSH0 PUSH1 0xA0 DUP7 DUP9 SUB SLT ISZERO PUSH2 0x1812 JUMPI PUSH2 0x1811 PUSH2 0x1315 JUMP JUMPDEST JUMPDEST PUSH0 PUSH2 0x181F DUP9 DUP3 DUP10 ADD PUSH2 0x13F4 JUMP JUMPDEST SWAP6 POP POP PUSH1 0x20 DUP7 ADD CALLDATALOAD PUSH8 0xFFFFFFFFFFFFFFFF DUP2 GT ISZERO PUSH2 0x1840 JUMPI PUSH2 0x183F PUSH2 0x1319 JUMP JUMPDEST JUMPDEST PUSH2 0x184C DUP9 DUP3 DUP10 ADD PUSH2 0x1517 JUMP JUMPDEST SWAP5 POP POP PUSH1 0x40 DUP7 ADD CALLDATALOAD PUSH8 0xFFFFFFFFFFFFFFFF DUP2 GT ISZERO PUSH2 0x186D JUMPI PUSH2 0x186C PUSH2 0x1319 JUMP JUMPDEST JUMPDEST PUSH2 0x1879 DUP9 DUP3 DUP10 ADD PUSH2 0x1517 JUMP JUMPDEST SWAP4 POP POP PUSH1 0x60 DUP7 ADD CALLDATALOAD PUSH8 0xFFFFFFFFFFFFFFFF DUP2 GT ISZERO PUSH2 0x189A JUMPI PUSH2 0x1899 PUSH2 0x1319 JUMP JUMPDEST JUMPDEST PUSH2 0x18A6 DUP9 DUP3 DUP10 ADD PUSH2 0x1517 JUMP JUMPDEST SWAP3 POP POP PUSH1 0x80 PUSH2 0x18B7 DUP9 DUP3 DUP10 ADD PUSH2 0x163D JUMP JUMPDEST SWAP2 POP POP SWAP3 SWAP6 POP SWAP3 SWAP6 SWAP1 SWAP4 POP JUMP JUMPDEST PUSH32 0x446F63756D656E74206E6F7420666F756E642E00000000000000000000000000 PUSH0 DUP3 ADD MSTORE POP JUMP JUMPDEST PUSH0 PUSH2 0x18F8 PUSH1 0x13 DUP4 PUSH2 0x16C6 JUMP JUMPDEST SWAP2 POP PUSH2 0x1903 DUP3 PUSH2 0x18C4 JUMP JUMPDEST PUSH1 0x20 DUP3 ADD SWAP1 POP SWAP2 SWAP1 POP JUMP JUMPDEST PUSH0 PUSH1 0x20 DUP3 ADD SWAP1 POP DUP2 DUP2 SUB PUSH0 DUP4 ADD MSTORE PUSH2 0x1925 DUP2 PUSH2 0x18EC JUMP JUMPDEST SWAP1 POP SWAP2 SWAP1 POP JUMP JUMPDEST PUSH32 0x4E487B7100000000000000000000000000000000000000000000000000000000 PUSH0 MSTORE PUSH1 0x22 PUSH1 0x4 MSTORE PUSH1 0x24 PUSH0 REVERT JUMPDEST PUSH0 PUSH1 0x2 DUP3 DIV SWAP1 POP PUSH1 0x1 DUP3 AND DUP1 PUSH2 0x1970 JUMPI PUSH1 0x7F DUP3 AND SWAP2 POP JUMPDEST PUSH1 0x20 DUP3 LT DUP2 SUB PUSH2 0x1983 JUMPI PUSH2 0x1982 PUSH2 0x192C JUMP JUMPDEST JUMPDEST POP SWAP2 SWAP1 POP JUMP JUMPDEST PUSH32 0x4761736C657373207472616E73616374696F6E73206E6F7420656E61626C6564 PUSH0 DUP3 ADD MSTORE PUSH32 0x20666F7220746869732075736572000000000000000000000000000000000000 PUSH1 0x20 DUP3 ADD MSTORE POP JUMP JUMPDEST PUSH0 PUSH2 0x19E3 PUSH1 0x2E DUP4 PUSH2 0x16C6 JUMP JUMPDEST SWAP2 POP PUSH2 0x19EE DUP3 PUSH2 0x1989 JUMP JUMPDEST PUSH1 0x40 DUP3 ADD SWAP1 POP SWAP2 SWAP1 POP JUMP JUMPDEST PUSH0 PUSH1 0x20 DUP3 ADD SWAP1 POP DUP2 DUP2 SUB PUSH0 DUP4 ADD MSTORE PUSH2 0x1A10 DUP2 PUSH2 0x19D7 JUMP JUMPDEST SWAP1 POP SWAP2 SWAP1 POP JUMP JUMPDEST PUSH32 0x4F6E6C7920746865206F776E65722063616E207472616E73666572206F776E65 PUSH0 DUP3 ADD MSTORE PUSH32 0x72736869702E0000000000000000000000000000000000000000000000000000 PUSH1 0x20 DUP3 ADD MSTORE POP JUMP JUMPDEST PUSH0 PUSH2 0x1A71 PUSH1 0x26 DUP4 PUSH2 0x16C6 JUMP JUMPDEST SWAP2 POP PUSH2 0x1A7C DUP3 PUSH2 0x1A17 JUMP JUMPDEST PUSH1 0x40 DUP3 ADD SWAP1 POP SWAP2 SWAP1 POP JUMP JUMPDEST PUSH0 PUSH1 0x20 DUP3 ADD SWAP1 POP DUP2 DUP2 SUB PUSH0 DUP4 ADD MSTORE PUSH2 0x1A9E DUP2 PUSH2 0x1A65 JUMP JUMPDEST SWAP1 POP SWAP2 SWAP1 POP JUMP JUMPDEST PUSH32 0x4E6577206F776E65722063616E6E6F7420626520746865207A65726F20616464 PUSH0 DUP3 ADD MSTORE PUSH32 0x726573732E000000000000000000000000000000000000000000000000000000 PUSH1 0x20 DUP3 ADD MSTORE POP JUMP JUMPDEST PUSH0 PUSH2 0x1AFF PUSH1 0x25 DUP4 PUSH2 0x16C6 JUMP JUMPDEST SWAP2 POP PUSH2 0x1B0A DUP3 PUSH2 0x1AA5 JUMP JUMPDEST PUSH1 0x40 DUP3 ADD SWAP1 POP SWAP2 SWAP1 POP JUMP JUMPDEST PUSH0 PUSH1 0x20 DUP3 ADD SWAP1 POP DUP2 DUP2 SUB PUSH0 DUP4 ADD MSTORE PUSH2 0x1B2C DUP2 PUSH2 0x1AF3 JUMP JUMPDEST SWAP1 POP SWAP2 SWAP1 POP JUMP JUMPDEST PUSH32 0x446F63756D656E7420616C726561647920726567697374657265642E00000000 PUSH0 DUP3 ADD MSTORE POP JUMP JUMPDEST PUSH0 PUSH2 0x1B67 PUSH1 0x1C DUP4 PUSH2 0x16C6 JUMP JUMPDEST SWAP2 POP PUSH2 0x1B72 DUP3 PUSH2 0x1B33 JUMP JUMPDEST PUSH1 0x20 DUP3 ADD SWAP1 POP SWAP2 SWAP1 POP JUMP JUMPDEST PUSH0 PUSH1 0x20 DUP3 ADD SWAP1 POP DUP2 DUP2 SUB PUSH0 DUP4 ADD MSTORE PUSH2 0x1B94 DUP2 PUSH2 0x1B5B JUMP JUMPDEST SWAP1 POP SWAP2 SWAP1 POP JUMP JUMPDEST PUSH0 DUP2 SWAP1 POP DUP2 PUSH0 MSTORE PUSH1 0x20 PUSH0 KECCAK256 SWAP1 POP SWAP2 SWAP1 POP JUMP JUMPDEST PUSH0 PUSH1 0x20 PUSH1 0x1F DUP4 ADD DIV SWAP1 POP SWAP2 SWAP1 POP JUMP JUMPDEST PUSH0 DUP3 DUP3 SHL SWAP1 POP SWAP3 SWAP2 POP POP JUMP JUMPDEST PUSH0 PUSH1 0x8 DUP4 MUL PUSH2 0x1BF7 PUSH32 0xFFFFFFFFFFFFFFFFFFFFFFFFFFFFFFFFFFFFFFFFFFFFFFFFFFFFFFFFFFFFFFFF DUP3 PUSH2 0x1BBC JUMP JUMPDEST PUSH2 0x1C01 DUP7 DUP4 PUSH2 0x1BBC JUMP JUMPDEST SWAP6 POP DUP1 NOT DUP5 AND SWAP4 POP DUP1 DUP7 AND DUP5 OR SWAP3 POP POP POP SWAP4 SWAP3 POP POP POP JUMP JUMPDEST PUSH0 DUP2 SWAP1 POP SWAP2 SWAP1 POP JUMP JUMPDEST PUSH0 PUSH2 0x1C3C PUSH2 0x1C37 PUSH2 0x1C32 DUP5 PUSH2 0x16A4 JUMP JUMPDEST PUSH2 0x1C19 JUMP JUMPDEST PUSH2 0x16A4 JUMP JUMPDEST SWAP1 POP SWAP2 SWAP1 POP JUMP JUMPDEST PUSH0 DUP2 SWAP1 POP SWAP2 SWAP1 POP JUMP JUMPDEST PUSH2 0x1C55 DUP4 PUSH2 0x1C22 JUMP JUMPDEST PUSH2 0x1C69 PUSH2 0x1C61 DUP3 PUSH2 0x1C43 JUMP JUMPDEST DUP5 DUP5 SLOAD PUSH2 0x1BC8 JUMP JUMPDEST DUP3 SSTORE POP POP POP POP JUMP JUMPDEST PUSH0 SWAP1 JUMP JUMPDEST PUSH2 0x1C7D PUSH2 0x1C71 JUMP JUMPDEST PUSH2 0x1C88 DUP2 DUP5 DUP5 PUSH2 0x1C4C JUMP JUMPDEST POP POP POP JUMP JUMPDEST JUMPDEST DUP2 DUP2 LT ISZERO PUSH2 0x1CAB JUMPI PUSH2 0x1CA0 PUSH0 DUP3 PUSH2 0x1C75 JUMP JUMPDEST PUSH1 0x1 DUP2 ADD SWAP1 POP PUSH2 0x1C8E JUMP JUMPDEST POP POP JUMP JUMPDEST PUSH1 0x1F DUP3 GT ISZERO PUSH2 0x1CF0 JUMPI PUSH2 0x1CC1 DUP2 PUSH2 0x1B9B JUMP JUMPDEST PUSH2 0x1CCA DUP5 PUSH2 0x1BAD JUMP JUMPDEST DUP2 ADD PUSH1 0x20 DUP6 LT ISZERO PUSH2 0x1CD9 JUMPI DUP2 SWAP1 POP JUMPDEST PUSH2 0x1CED PUSH2 0x1CE5 DUP6 PUSH2 0x1BAD JUMP JUMPDEST DUP4 ADD DUP3 PUSH2 0x1C8D JUMP JUMPDEST POP POP JUMPDEST POP POP POP JUMP JUMPDEST PUSH0 DUP3 DUP3 SHR SWAP1 POP SWAP3 SWAP2 POP POP JUMP JUMPDEST PUSH0 PUSH2 0x1D10 PUSH0 NOT DUP5 PUSH1 0x8 MUL PUSH2 0x1CF5 JUMP JUMPDEST NOT DUP1 DUP4 AND SWAP2 POP POP SWAP3 SWAP2 POP POP JUMP JUMPDEST PUSH0 PUSH2 0x1D28 DUP4 DUP4 PUSH2 0x1D01 JUMP JUMPDEST SWAP2 POP DUP3 PUSH1 0x2 MUL DUP3 OR SWAP1 POP SWAP3 SWAP2 POP POP JUMP JUMPDEST PUSH2 0x1D41 DUP3 PUSH2 0x16BC JUMP JUMPDEST PUSH8 0xFFFFFFFFFFFFFFFF DUP2 GT ISZERO PUSH2 0x1D5A JUMPI PUSH2 0x1D59 PUSH2 0x1420 JUMP JUMPDEST JUMPDEST PUSH2 0x1D64 DUP3 SLOAD PUSH2 0x1959 JUMP JUMPDEST PUSH2 0x1D6F DUP3 DUP3 DUP6 PUSH2 0x1CAF JUMP JUMPDEST PUSH0 PUSH1 0x20 SWAP1 POP PUSH1 0x1F DUP4 GT PUSH1 0x1 DUP2 EQ PUSH2 0x1DA0 JUMPI PUSH0 DUP5 ISZERO PUSH2 0x1D8E JUMPI DUP3 DUP8 ADD MLOAD SWAP1 POP JUMPDEST PUSH2 0x1D98 DUP6 DUP3 PUSH2 0x1D1D JUMP JUMPDEST DUP7 SSTORE POP PUSH2 0x1DFF JUMP JUMPDEST PUSH1 0x1F NOT DUP5 AND PUSH2 0x1DAE DUP7 PUSH2 0x1B9B JUMP JUMPDEST PUSH0 JUMPDEST DUP3 DUP2 LT ISZERO PUSH2 0x1DD5 JUMPI DUP5 DUP10 ADD MLOAD DUP3 SSTORE PUSH1 0x1 DUP3 ADD SWAP2 POP PUSH1 0x20 DUP6 ADD SWAP5 POP PUSH1 0x20 DUP2 ADD SWAP1 POP PUSH2 0x1DB0 JUMP JUMPDEST DUP7 DUP4 LT ISZERO PUSH2 0x1DF2 JUMPI DUP5 DUP10 ADD MLOAD PUSH2 0x1DEE PUSH1 0x1F DUP10 AND DUP3 PUSH2 0x1D01 JUMP JUMPDEST DUP4 SSTORE POP JUMPDEST PUSH1 0x1 PUSH1 0x2 DUP9 MUL ADD DUP9 SSTORE POP POP POP JUMPDEST POP POP POP POP POP POP JUMP JUMPDEST PUSH0 PUSH1 0x80 DUP3 ADD SWAP1 POP DUP2 DUP2 SUB PUSH0 DUP4 ADD MSTORE PUSH2 0x1E1F DUP2 DUP8 PUSH2 0x16E4 JUMP JUMPDEST SWAP1 POP DUP2 DUP2 SUB PUSH1 0x20 DUP4 ADD MSTORE PUSH2 0x1E33 DUP2 DUP7 PUSH2 0x16E4 JUMP JUMPDEST SWAP1 POP DUP2 DUP2 SUB PUSH1 0x40 DUP4 ADD MSTORE PUSH2 0x1E47 DUP2 DUP6 PUSH2 0x16E4 JUMP JUMPDEST SWAP1 POP PUSH2 0x1E56 PUSH1 0x60 DUP4 ADD DUP5 PUSH2 0x13AD JUMP JUMPDEST SWAP6 SWAP5 POP POP POP POP POP JUMP JUMPDEST PUSH32 0x5061757361626C653A2070617573656400000000000000000000000000000000 PUSH0 DUP3 ADD MSTORE POP JUMP JUMPDEST PUSH0 PUSH2 0x1E93 PUSH1 0x10 DUP4 PUSH2 0x16C6 JUMP JUMPDEST SWAP2 POP PUSH2 0x1E9E DUP3 PUSH2 0x1E5F JUMP JUMPDEST PUSH1 0x20 DUP3 ADD SWAP1 POP SWAP2 SWAP1 POP JUMP JUMPDEST PUSH0 PUSH1 0x20 DUP3 ADD SWAP1 POP DUP2 DUP2 SUB PUSH0 DUP4 ADD MSTORE PUSH2 0x1EC0 DUP2 PUSH2 0x1E87 JUMP JUMPDEST SWAP1 POP SWAP2 SWAP1 POP JUMP JUMPDEST PUSH32 0x4E487B7100000000000000000000000000000000000000000000000000000000 PUSH0 MSTORE PUSH1 0x11 PUSH1 0x4 MSTORE PUSH1 0x24 PUSH0 REVERT JUMPDEST PUSH0 PUSH2 0x1EFE DUP3 PUSH2 0x16A4 JUMP JUMPDEST SWAP2 POP PUSH2 0x1F09 DUP4 PUSH2 0x16A4 JUMP JUMPDEST SWAP3 POP DUP3 DUP3 SUB SWAP1 POP DUP2 DUP2 GT ISZERO PUSH2 0x1F21 JUMPI PUSH2 0x1F20 PUSH2 0x1EC7 JUMP JUMPDEST JUMPDEST SWAP3 SWAP2 POP POP JUMP JUMPDEST PUSH0 DUP1 REVERT JUMPDEST PUSH0 DUP1 REVERT JUMPDEST PUSH0 DUP1 DUP6 DUP6 GT ISZERO PUSH2 0x1F42 JUMPI PUSH2 0x1F41 PUSH2 0x1F27 JUMP JUMPDEST JUMPDEST DUP4 DUP7 GT ISZERO PUSH2 0x1F53 JUMPI PUSH2 0x1F52 PUSH2 0x1F2B JUMP JUMPDEST JUMPDEST PUSH1 0x1 DUP6 MUL DUP4 ADD SWAP2 POP DUP5 DUP7 SUB SWAP1 POP SWAP5 POP SWAP5 SWAP3 POP POP POP JUMP JUMPDEST PUSH0 DUP3 SWAP1 POP SWAP3 SWAP2 POP POP JUMP JUMPDEST PUSH0 PUSH32 0xFFFFFFFFFFFFFFFFFFFFFFFFFFFFFFFFFFFFFFFF000000000000000000000000 DUP3 AND SWAP1 POP SWAP2 SWAP1 POP JUMP JUMPDEST PUSH0 PUSH2 0x1FA9 DUP4 DUP4 PUSH2 0x1F69 JUMP JUMPDEST DUP3 PUSH2 0x1FB4 DUP2 CALLDATALOAD PUSH2 0x1F73 JUMP JUMPDEST SWAP3 POP PUSH1 0x14 DUP3 LT ISZERO PUSH2 0x1FF4 JUMPI PUSH2 0x1FEF PUSH32 0xFFFFFFFFFFFFFFFFFFFFFFFFFFFFFFFFFFFFFFFF000000000000000000000000 DUP4 PUSH1 0x14 SUB PUSH1 0x8 MUL PUSH2 0x1BBC JUMP JUMPDEST DUP4 AND SWAP3 POP JUMPDEST POP POP SWAP3 SWAP2 POP POP JUMP JUMPDEST PUSH32 0x5061757361626C653A206E6F7420706175736564000000000000000000000000 PUSH0 DUP3 ADD MSTORE POP JUMP JUMPDEST PUSH0 PUSH2 0x2030 PUSH1 0x14 DUP4 PUSH2 0x16C6 JUMP JUMPDEST SWAP2 POP PUSH2 0x203B DUP3 PUSH2 0x1FFC JUMP JUMPDEST PUSH1 0x20 DUP3 ADD SWAP1 POP SWAP2 SWAP1 POP JUMP JUMPDEST PUSH0 PUSH1 0x20 DUP3 ADD SWAP1 POP DUP2 DUP2 SUB PUSH0 DUP4 ADD MSTORE PUSH2 0x205D DUP2 PUSH2 0x2024 JUMP JUMPDEST SWAP1 POP SWAP2 SWAP1 POP JUMP INVALID LOG2 PUSH5 0x6970667358 0x22 SLT KECCAK256 0xCA DUP9 SWAP5 AND EQ 0xD3 SELFDESTRUCT AND LOG1 SELFBALANCE 0xDC POP DUP7 0x4D 0xB0 LOG3 0xCF PUSH9 0x40A260FD604C61758E 0xF9 DUP4 PUSH19 0xB28964736F6C634300081A0033000000000000 "
				},
				"gasEstimates": {
					"creation": {
						"codeDepositCost": "1669200",
						"executionCost": "infinite",
						"totalCost": "infinite"
					},
					"external": {
						"gaslessEnabled(address)": "2879",
						"getDocumentDetails(bytes32)": "infinite",
						"getDocumentOwner(bytes32)": "5196",
						"getDocumentTimestamp(bytes32)": "5092",
						"isDocumentRegistered(bytes32)": "2835",
						"isGaslessEnabled(address)": "2894",
						"isTrustedForwarder(address)": "infinite",
						"owner()": "2538",
						"pauseContract()": "infinite",
						"paused()": "2547",
						"registerDocument(bytes32,string,string,string,bool)": "infinite",
						"registerDocumentGasless(bytes32,string,string,string)": "infinite",
						"registerDocumentWithGas(bytes32,string,string,string)": "infinite",
						"renounceOwnership()": "infinite",
						"setGaslessPreference(bool)": "infinite",
						"transferDocumentOwnership(bytes32,address,bool)": "infinite",
						"transferOwnership(address)": "infinite",
						"trustedForwarder()": "infinite",
						"unpauseContract()": "infinite",
						"verifyDocument(bytes32)": "2942"
					},
					"internal": {
						"_contextSuffixLength()": "56",
						"_msgData()": "infinite",
						"_msgSender()": "infinite"
					}
				},
				"methodIdentifiers": {
					"gaslessEnabled(address)": "058e3b6b",
					"getDocumentDetails(bytes32)": "8e4d0f40",
					"getDocumentOwner(bytes32)": "a2428b73",
					"getDocumentTimestamp(bytes32)": "95f2f9f4",
					"isDocumentRegistered(bytes32)": "618e6ce6",
					"isGaslessEnabled(address)": "00542d0b",
					"isTrustedForwarder(address)": "572b6c05",
					"owner()": "8da5cb5b",
					"pauseContract()": "439766ce",
					"paused()": "5c975abb",
					"registerDocument(bytes32,string,string,string,bool)": "b83597d3",
					"registerDocumentGasless(bytes32,string,string,string)": "571e8720",
					"registerDocumentWithGas(bytes32,string,string,string)": "e215a58e",
					"renounceOwnership()": "715018a6",
					"setGaslessPreference(bool)": "6a97de3a",
					"transferDocumentOwnership(bytes32,address,bool)": "ab2add76",
					"transferOwnership(address)": "f2fde38b",
					"trustedForwarder()": "7da0a877",
					"unpauseContract()": "b33712c5",
					"verifyDocument(bytes32)": "fe35089f"
				}
			},
			"storageLayout": {
				"storage": [
					{
						"astId": 8,
						"contract": "Proofication/DocumentAudit1.sol:DocumentAudit",
						"label": "_owner",
						"offset": 0,
						"slot": "0",
						"type": "t_address"
					},
					{
						"astId": 308,
						"contract": "Proofication/DocumentAudit1.sol:DocumentAudit",
						"label": "_paused",
						"offset": 20,
						"slot": "0",
						"type": "t_bool"
					},
					{
						"astId": 457,
						"contract": "Proofication/DocumentAudit1.sol:DocumentAudit",
						"label": "documents",
						"offset": 0,
						"slot": "1",
						"type": "t_mapping(t_bytes32,t_struct(Document)452_storage)"
					},
					{
						"astId": 461,
						"contract": "Proofication/DocumentAudit1.sol:DocumentAudit",
						"label": "gaslessEnabled",
						"offset": 0,
						"slot": "2",
						"type": "t_mapping(t_address,t_bool)"
					}
				],
				"types": {
					"t_address": {
						"encoding": "inplace",
						"label": "address",
						"numberOfBytes": "20"
					},
					"t_bool": {
						"encoding": "inplace",
						"label": "bool",
						"numberOfBytes": "1"
					},
					"t_bytes32": {
						"encoding": "inplace",
						"label": "bytes32",
						"numberOfBytes": "32"
					},
					"t_mapping(t_address,t_bool)": {
						"encoding": "mapping",
						"key": "t_address",
						"label": "mapping(address => bool)",
						"numberOfBytes": "32",
						"value": "t_bool"
					},
					"t_mapping(t_bytes32,t_struct(Document)452_storage)": {
						"encoding": "mapping",
						"key": "t_bytes32",
						"label": "mapping(bytes32 => struct DocumentAudit.Document)",
						"numberOfBytes": "32",
						"value": "t_struct(Document)452_storage"
					},
					"t_string_storage": {
						"encoding": "bytes",
						"label": "string",
						"numberOfBytes": "32"
					},
					"t_struct(Document)452_storage": {
						"encoding": "inplace",
						"label": "struct DocumentAudit.Document",
						"members": [
							{
								"astId": 441,
								"contract": "Proofication/DocumentAudit1.sol:DocumentAudit",
								"label": "owner",
								"offset": 0,
								"slot": "0",
								"type": "t_address"
							},
							{
								"astId": 443,
								"contract": "Proofication/DocumentAudit1.sol:DocumentAudit",
								"label": "timestamp",
								"offset": 0,
								"slot": "1",
								"type": "t_uint256"
							},
							{
								"astId": 445,
								"contract": "Proofication/DocumentAudit1.sol:DocumentAudit",
								"label": "registrantName",
								"offset": 0,
								"slot": "2",
								"type": "t_string_storage"
							},
							{
								"astId": 447,
								"contract": "Proofication/DocumentAudit1.sol:DocumentAudit",
								"label": "organization",
								"offset": 0,
								"slot": "3",
								"type": "t_string_storage"
							},
							{
								"astId": 449,
								"contract": "Proofication/DocumentAudit1.sol:DocumentAudit",
								"label": "identifier",
								"offset": 0,
								"slot": "4",
								"type": "t_string_storage"
							},
							{
								"astId": 451,
								"contract": "Proofication/DocumentAudit1.sol:DocumentAudit",
								"label": "isGasless",
								"offset": 0,
								"slot": "5",
								"type": "t_bool"
							}
						],
						"numberOfBytes": "192"
					},
					"t_uint256": {
						"encoding": "inplace",
						"label": "uint256",
						"numberOfBytes": "32"
					}
				}
			},
			"userdoc": {
				"kind": "user",
				"methods": {},
				"version": 1
			}
		}
	}
}