{
	"Proofication/DocumentAudit.sol": {
		"DocumentAudit": {
			"abi": [
				{
					"inputs": [],
					"stateMutability": "nonpayable",
					"type": "constructor"
				},
				{
					"inputs": [
						{
							"internalType": "address",
							"name": "owner",
							"type": "address"
						}
					],
					"name": "OwnableInvalidOwner",
					"type": "error"
				},
				{
					"inputs": [
						{
							"internalType": "address",
							"name": "account",
							"type": "address"
						}
					],
					"name": "OwnableUnauthorizedAccount",
					"type": "error"
				},
				{
					"anonymous": false,
					"inputs": [
						{
							"indexed": true,
							"internalType": "bytes32",
							"name": "documentHash",
							"type": "bytes32"
						},
						{
							"indexed": true,
							"internalType": "address",
							"name": "owner",
							"type": "address"
						},
						{
							"indexed": false,
							"internalType": "string",
							"name": "registrantName",
							"type": "string"
						},
						{
							"indexed": false,
							"internalType": "string",
							"name": "organization",
							"type": "string"
						},
						{
							"indexed": false,
							"internalType": "string",
							"name": "identifier",
							"type": "string"
						}
					],
					"name": "DocumentRegistered",
					"type": "event"
				},
				{
					"anonymous": false,
					"inputs": [
						{
							"indexed": true,
							"internalType": "address",
							"name": "previousOwner",
							"type": "address"
						},
						{
							"indexed": true,
							"internalType": "address",
							"name": "newOwner",
							"type": "address"
						}
					],
					"name": "OwnershipTransferred",
					"type": "event"
				},
				{
					"anonymous": false,
					"inputs": [
						{
							"indexed": true,
							"internalType": "bytes32",
							"name": "documentHash",
							"type": "bytes32"
						},
						{
							"indexed": true,
							"internalType": "address",
							"name": "oldOwner",
							"type": "address"
						},
						{
							"indexed": true,
							"internalType": "address",
							"name": "newOwner",
							"type": "address"
						}
					],
					"name": "OwnershipTransferred",
					"type": "event"
				},
				{
					"anonymous": false,
					"inputs": [
						{
							"indexed": false,
							"internalType": "address",
							"name": "account",
							"type": "address"
						}
					],
					"name": "Paused",
					"type": "event"
				},
				{
					"anonymous": false,
					"inputs": [
						{
							"indexed": false,
							"internalType": "address",
							"name": "account",
							"type": "address"
						}
					],
					"name": "Unpaused",
					"type": "event"
				},
				{
					"inputs": [
						{
							"internalType": "bytes32",
							"name": "documentHash",
							"type": "bytes32"
						}
					],
					"name": "getDocumentDetails",
					"outputs": [
						{
							"internalType": "address",
							"name": "owner",
							"type": "address"
						},
						{
							"internalType": "uint256",
							"name": "timestamp",
							"type": "uint256"
						},
						{
							"internalType": "string",
							"name": "registrantName",
							"type": "string"
						},
						{
							"internalType": "string",
							"name": "organization",
							"type": "string"
						},
						{
							"internalType": "string",
							"name": "identifier",
							"type": "string"
						}
					],
					"stateMutability": "view",
					"type": "function"
				},
				{
					"inputs": [
						{
							"internalType": "bytes32",
							"name": "documentHash",
							"type": "bytes32"
						}
					],
					"name": "getDocumentOwner",
					"outputs": [
						{
							"internalType": "address",
							"name": "",
							"type": "address"
						}
					],
					"stateMutability": "view",
					"type": "function"
				},
				{
					"inputs": [
						{
							"internalType": "bytes32",
							"name": "documentHash",
							"type": "bytes32"
						}
					],
					"name": "getDocumentTimestamp",
					"outputs": [
						{
							"internalType": "uint256",
							"name": "",
							"type": "uint256"
						}
					],
					"stateMutability": "view",
					"type": "function"
				},
				{
					"inputs": [
						{
							"internalType": "bytes32",
							"name": "documentHash",
							"type": "bytes32"
						}
					],
					"name": "isDocumentRegistered",
					"outputs": [
						{
							"internalType": "bool",
							"name": "",
							"type": "bool"
						}
					],
					"stateMutability": "view",
					"type": "function"
				},
				{
					"inputs": [],
					"name": "owner",
					"outputs": [
						{
							"internalType": "address",
							"name": "",
							"type": "address"
						}
					],
					"stateMutability": "view",
					"type": "function"
				},
				{
					"inputs": [],
					"name": "pauseContract",
					"outputs": [],
					"stateMutability": "nonpayable",
					"type": "function"
				},
				{
					"inputs": [],
					"name": "paused",
					"outputs": [
						{
							"internalType": "bool",
							"name": "",
							"type": "bool"
						}
					],
					"stateMutability": "view",
					"type": "function"
				},
				{
					"inputs": [
						{
							"internalType": "bytes32",
							"name": "documentHash",
							"type": "bytes32"
						},
						{
							"internalType": "string",
							"name": "registrantName",
							"type": "string"
						},
						{
							"internalType": "string",
							"name": "organization",
							"type": "string"
						},
						{
							"internalType": "string",
							"name": "identifier",
							"type": "string"
						}
					],
					"name": "registerDocument",
					"outputs": [],
					"stateMutability": "nonpayable",
					"type": "function"
				},
				{
					"inputs": [],
					"name": "renounceOwnership",
					"outputs": [],
					"stateMutability": "nonpayable",
					"type": "function"
				},
				{
					"inputs": [
						{
							"internalType": "bytes32",
							"name": "documentHash",
							"type": "bytes32"
						},
						{
							"internalType": "address",
							"name": "newOwner",
							"type": "address"
						}
					],
					"name": "transferDocumentOwnership",
					"outputs": [],
					"stateMutability": "nonpayable",
					"type": "function"
				},
				{
					"inputs": [
						{
							"internalType": "address",
							"name": "newOwner",
							"type": "address"
						}
					],
					"name": "transferOwnership",
					"outputs": [],
					"stateMutability": "nonpayable",
					"type": "function"
				},
				{
					"inputs": [],
					"name": "unpauseContract",
					"outputs": [],
					"stateMutability": "nonpayable",
					"type": "function"
				},
				{
					"inputs": [
						{
							"internalType": "bytes32",
							"name": "documentHash",
							"type": "bytes32"
						}
					],
					"name": "verifyDocument",
					"outputs": [
						{
							"internalType": "bool",
							"name": "",
							"type": "bool"
						}
					],
					"stateMutability": "view",
					"type": "function"
				}
			],
			"devdoc": {
				"errors": {
					"OwnableInvalidOwner(address)": [
						{
							"details": "The owner is not a valid owner account. (eg. `address(0)`)"
						}
					],
					"OwnableUnauthorizedAccount(address)": [
						{
							"details": "The caller account is not authorized to perform an operation."
						}
					]
				},
				"events": {
					"Paused(address)": {
						"details": "Emitted when the pause is triggered by `account`."
					},
					"Unpaused(address)": {
						"details": "Emitted when the pause is lifted by `account`."
					}
				},
				"kind": "dev",
				"methods": {
					"owner()": {
						"details": "Returns the address of the current owner."
					},
					"paused()": {
						"details": "Returns true if the contract is paused, and false otherwise."
					},
					"renounceOwnership()": {
						"details": "Leaves the contract without owner. It will not be possible to call `onlyOwner` functions. Can only be called by the current owner. NOTE: Renouncing ownership will leave the contract without an owner, thereby disabling any functionality that is only available to the owner."
					},
					"transferOwnership(address)": {
						"details": "Transfers ownership of the contract to a new account (`newOwner`). Can only be called by the current owner."
					}
				},
				"version": 1
			},
			"evm": {
				"assembly": "    /* \"Proofication/DocumentAudit.sol\":173:4132  contract DocumentAudit is Ownable, Pausable {... */\n  mstore(0x40, 0x80)\n    /* \"Proofication/DocumentAudit.sol\":975:1011  constructor() Ownable(msg.sender) {} */\n  callvalue\n  dup1\n  iszero\n  tag_1\n  jumpi\n  0x00\n  dup1\n  revert\ntag_1:\n  pop\n    /* \"Proofication/DocumentAudit.sol\":997:1007  msg.sender */\n  caller\n    /* \"@openzeppelin/contracts/access/Ownable.sol\":1297:1298  0 */\n  0x00\n    /* \"@openzeppelin/contracts/access/Ownable.sol\":1273:1299  initialOwner == address(0) */\n  0xffffffffffffffffffffffffffffffffffffffff\n  and\n    /* \"@openzeppelin/contracts/access/Ownable.sol\":1273:1285  initialOwner */\n  dup2\n    /* \"@openzeppelin/contracts/access/Ownable.sol\":1273:1299  initialOwner == address(0) */\n  0xffffffffffffffffffffffffffffffffffffffff\n  and\n  sub\n    /* \"@openzeppelin/contracts/access/Ownable.sol\":1269:1364  if (initialOwner == address(0)) {... */\n  tag_6\n  jumpi\n    /* \"@openzeppelin/contracts/access/Ownable.sol\":1350:1351  0 */\n  0x00\n    /* \"@openzeppelin/contracts/access/Ownable.sol\":1322:1353  OwnableInvalidOwner(address(0)) */\n  mload(0x40)\n  0x1e4fbdf700000000000000000000000000000000000000000000000000000000\n  dup2\n  mstore\n  0x04\n  add\n  tag_7\n  swap2\n  swap1\n  tag_8\n  jump\t// in\ntag_7:\n  mload(0x40)\n  dup1\n  swap2\n  sub\n  swap1\n  revert\n    /* \"@openzeppelin/contracts/access/Ownable.sol\":1269:1364  if (initialOwner == address(0)) {... */\ntag_6:\n    /* \"@openzeppelin/contracts/access/Ownable.sol\":1373:1405  _transferOwnership(initialOwner) */\n  tag_9\n    /* \"@openzeppelin/contracts/access/Ownable.sol\":1392:1404  initialOwner */\n  dup2\n    /* \"@openzeppelin/contracts/access/Ownable.sol\":1373:1391  _transferOwnership */\n  shl(0x20, tag_10)\n    /* \"@openzeppelin/contracts/access/Ownable.sol\":1373:1405  _transferOwnership(initialOwner) */\n  0x20\n  shr\n  jump\t// in\ntag_9:\n    /* \"@openzeppelin/contracts/access/Ownable.sol\":1225:1412  constructor(address initialOwner) {... */\n  pop\n    /* \"@openzeppelin/contracts/security/Pausable.sol\":1006:1011  false */\n  0x00\n    /* \"@openzeppelin/contracts/security/Pausable.sol\":996:1003  _paused */\n  dup1\n  0x14\n    /* \"@openzeppelin/contracts/security/Pausable.sol\":996:1011  _paused = false */\n  0x0100\n  exp\n  dup2\n  sload\n  dup2\n  0xff\n  mul\n  not\n  and\n  swap1\n  dup4\n  iszero\n  iszero\n  mul\n  or\n  swap1\n  sstore\n  pop\n    /* \"Proofication/DocumentAudit.sol\":173:4132  contract DocumentAudit is Ownable, Pausable {... */\n  jump(tag_13)\n    /* \"@openzeppelin/contracts/access/Ownable.sol\":2912:3099  function _transferOwnership(address newOwner) internal virtual {... */\ntag_10:\n    /* \"@openzeppelin/contracts/access/Ownable.sol\":2985:3001  address oldOwner */\n  0x00\n    /* \"@openzeppelin/contracts/access/Ownable.sol\":3004:3010  _owner */\n  dup1\n  0x00\n  swap1\n  sload\n  swap1\n  0x0100\n  exp\n  swap1\n  div\n  0xffffffffffffffffffffffffffffffffffffffff\n  and\n    /* \"@openzeppelin/contracts/access/Ownable.sol\":2985:3010  address oldOwner = _owner */\n  swap1\n  pop\n    /* \"@openzeppelin/contracts/access/Ownable.sol\":3029:3037  newOwner */\n  dup2\n    /* \"@openzeppelin/contracts/access/Ownable.sol\":3020:3026  _owner */\n  0x00\n  dup1\n    /* \"@openzeppelin/contracts/access/Ownable.sol\":3020:3037  _owner = newOwner */\n  0x0100\n  exp\n  dup2\n  sload\n  dup2\n  0xffffffffffffffffffffffffffffffffffffffff\n  mul\n  not\n  and\n  swap1\n  dup4\n  0xffffffffffffffffffffffffffffffffffffffff\n  and\n  mul\n  or\n  swap1\n  sstore\n  pop\n    /* \"@openzeppelin/contracts/access/Ownable.sol\":3083:3091  newOwner */\n  dup2\n    /* \"@openzeppelin/contracts/access/Ownable.sol\":3052:3092  OwnershipTransferred(oldOwner, newOwner) */\n  0xffffffffffffffffffffffffffffffffffffffff\n  and\n    /* \"@openzeppelin/contracts/access/Ownable.sol\":3073:3081  oldOwner */\n  dup2\n    /* \"@openzeppelin/contracts/access/Ownable.sol\":3052:3092  OwnershipTransferred(oldOwner, newOwner) */\n  0xffffffffffffffffffffffffffffffffffffffff\n  and\n  0x8be0079c531659141344cd1fd0a4f28419497f9722a3daafe3b4186f6b6457e0\n  mload(0x40)\n  mload(0x40)\n  dup1\n  swap2\n  sub\n  swap1\n  log3\n    /* \"@openzeppelin/contracts/access/Ownable.sol\":2975:3099  {... */\n  pop\n    /* \"@openzeppelin/contracts/access/Ownable.sol\":2912:3099  function _transferOwnership(address newOwner) internal virtual {... */\n  pop\n  jump\t// out\n    /* \"#utility.yul\":7:133   */\ntag_15:\n    /* \"#utility.yul\":44:51   */\n  0x00\n    /* \"#utility.yul\":84:126   */\n  0xffffffffffffffffffffffffffffffffffffffff\n    /* \"#utility.yul\":77:82   */\n  dup3\n    /* \"#utility.yul\":73:127   */\n  and\n    /* \"#utility.yul\":62:127   */\n  swap1\n  pop\n    /* \"#utility.yul\":7:133   */\n  swap2\n  swap1\n  pop\n  jump\t// out\n    /* \"#utility.yul\":139:235   */\ntag_16:\n    /* \"#utility.yul\":176:183   */\n  0x00\n    /* \"#utility.yul\":205:229   */\n  tag_21\n    /* \"#utility.yul\":223:228   */\n  dup3\n    /* \"#utility.yul\":205:229   */\n  tag_15\n  jump\t// in\ntag_21:\n    /* \"#utility.yul\":194:229   */\n  swap1\n  pop\n    /* \"#utility.yul\":139:235   */\n  swap2\n  swap1\n  pop\n  jump\t// out\n    /* \"#utility.yul\":241:359   */\ntag_17:\n    /* \"#utility.yul\":328:352   */\n  tag_23\n    /* \"#utility.yul\":346:351   */\n  dup2\n    /* \"#utility.yul\":328:352   */\n  tag_16\n  jump\t// in\ntag_23:\n    /* \"#utility.yul\":323:326   */\n  dup3\n    /* \"#utility.yul\":316:353   */\n  mstore\n    /* \"#utility.yul\":241:359   */\n  pop\n  pop\n  jump\t// out\n    /* \"#utility.yul\":365:587   */\ntag_8:\n    /* \"#utility.yul\":458:462   */\n  0x00\n    /* \"#utility.yul\":496:498   */\n  0x20\n    /* \"#utility.yul\":485:494   */\n  dup3\n    /* \"#utility.yul\":481:499   */\n  add\n    /* \"#utility.yul\":473:499   */\n  swap1\n  pop\n    /* \"#utility.yul\":509:580   */\n  tag_25\n    /* \"#utility.yul\":577:578   */\n  0x00\n    /* \"#utility.yul\":566:575   */\n  dup4\n    /* \"#utility.yul\":562:579   */\n  add\n    /* \"#utility.yul\":553:559   */\n  dup5\n    /* \"#utility.yul\":509:580   */\n  tag_17\n  jump\t// in\ntag_25:\n    /* \"#utility.yul\":365:587   */\n  swap3\n  swap2\n  pop\n  pop\n  jump\t// out\n    /* \"Proofication/DocumentAudit.sol\":173:4132  contract DocumentAudit is Ownable, Pausable {... */\ntag_13:\n  dataSize(sub_0)\n  dup1\n  dataOffset(sub_0)\n  0x00\n  codecopy\n  0x00\n  return\nstop\n\nsub_0: assembly {\n        /* \"Proofication/DocumentAudit.sol\":173:4132  contract DocumentAudit is Ownable, Pausable {... */\n      mstore(0x40, 0x80)\n      callvalue\n      dup1\n      iszero\n      tag_1\n      jumpi\n      0x00\n      dup1\n      revert\n    tag_1:\n      pop\n      jumpi(tag_2, lt(calldatasize, 0x04))\n      shr(0xe0, calldataload(0x00))\n      dup1\n      0x8e4d0f40\n      gt\n      tag_16\n      jumpi\n      dup1\n      0xb33712c5\n      gt\n      tag_17\n      jumpi\n      dup1\n      0xb33712c5\n      eq\n      tag_12\n      jumpi\n      dup1\n      0xe8c5fdfe\n      eq\n      tag_13\n      jumpi\n      dup1\n      0xf2fde38b\n      eq\n      tag_14\n      jumpi\n      dup1\n      0xfe35089f\n      eq\n      tag_15\n      jumpi\n      jump(tag_2)\n    tag_17:\n      dup1\n      0x8e4d0f40\n      eq\n      tag_9\n      jumpi\n      dup1\n      0x95f2f9f4\n      eq\n      tag_10\n      jumpi\n      dup1\n      0xa2428b73\n      eq\n      tag_11\n      jumpi\n      jump(tag_2)\n    tag_16:\n      dup1\n      0x439766ce\n      eq\n      tag_3\n      jumpi\n      dup1\n      0x4640c148\n      eq\n      tag_4\n      jumpi\n      dup1\n      0x5c975abb\n      eq\n      tag_5\n      jumpi\n      dup1\n      0x618e6ce6\n      eq\n      tag_6\n      jumpi\n      dup1\n      0x715018a6\n      eq\n      tag_7\n      jumpi\n      dup1\n      0x8da5cb5b\n      eq\n      tag_8\n      jumpi\n    tag_2:\n      0x00\n      dup1\n      revert\n        /* \"Proofication/DocumentAudit.sol\":3949:4018  function pauseContract() public onlyOwner {... */\n    tag_3:\n      tag_18\n      tag_19\n      jump\t// in\n    tag_18:\n      stop\n        /* \"Proofication/DocumentAudit.sol\":1052:1703  function registerDocument(... */\n    tag_4:\n      tag_20\n      0x04\n      dup1\n      calldatasize\n      sub\n      dup2\n      add\n      swap1\n      tag_21\n      swap2\n      swap1\n      tag_22\n      jump\t// in\n    tag_21:\n      tag_23\n      jump\t// in\n    tag_20:\n      stop\n        /* \"@openzeppelin/contracts/security/Pausable.sol\":1615:1699  function paused() public view virtual returns (bool) {... */\n    tag_5:\n      tag_24\n      tag_25\n      jump\t// in\n    tag_24:\n      mload(0x40)\n      tag_26\n      swap2\n      swap1\n      tag_27\n      jump\t// in\n    tag_26:\n      mload(0x40)\n      dup1\n      swap2\n      sub\n      swap1\n      return\n        /* \"Proofication/DocumentAudit.sol\":1767:1910  function isDocumentRegistered(bytes32 documentHash) public view returns (bool) {... */\n    tag_6:\n      tag_28\n      0x04\n      dup1\n      calldatasize\n      sub\n      dup2\n      add\n      swap1\n      tag_29\n      swap2\n      swap1\n      tag_30\n      jump\t// in\n    tag_29:\n      tag_31\n      jump\t// in\n    tag_28:\n      mload(0x40)\n      tag_32\n      swap2\n      swap1\n      tag_27\n      jump\t// in\n    tag_32:\n      mload(0x40)\n      dup1\n      swap2\n      sub\n      swap1\n      return\n        /* \"@openzeppelin/contracts/access/Ownable.sol\":2293:2394  function renounceOwnership() public virtual onlyOwner {... */\n    tag_7:\n      tag_33\n      tag_34\n      jump\t// in\n    tag_33:\n      stop\n        /* \"@openzeppelin/contracts/access/Ownable.sol\":1638:1723  function owner() public view virtual returns (address) {... */\n    tag_8:\n      tag_35\n      tag_36\n      jump\t// in\n    tag_35:\n      mload(0x40)\n      tag_37\n      swap2\n      swap1\n      tag_38\n      jump\t// in\n    tag_37:\n      mload(0x40)\n      dup1\n      swap2\n      sub\n      swap1\n      return\n        /* \"Proofication/DocumentAudit.sol\":1973:2494  function getDocumentDetails(bytes32 documentHash)... */\n    tag_9:\n      tag_39\n      0x04\n      dup1\n      calldatasize\n      sub\n      dup2\n      add\n      swap1\n      tag_40\n      swap2\n      swap1\n      tag_30\n      jump\t// in\n    tag_40:\n      tag_41\n      jump\t// in\n    tag_39:\n      mload(0x40)\n      tag_42\n      swap6\n      swap5\n      swap4\n      swap3\n      swap2\n      swap1\n      tag_43\n      jump\t// in\n    tag_42:\n      mload(0x40)\n      dup1\n      swap2\n      sub\n      swap1\n      return\n        /* \"Proofication/DocumentAudit.sol\":3659:3877  function getDocumentTimestamp(bytes32 documentHash) public view returns (uint256) {... */\n    tag_10:\n      tag_44\n      0x04\n      dup1\n      calldatasize\n      sub\n      dup2\n      add\n      swap1\n      tag_45\n      swap2\n      swap1\n      tag_30\n      jump\t// in\n    tag_45:\n      tag_46\n      jump\t// in\n    tag_44:\n      mload(0x40)\n      tag_47\n      swap2\n      swap1\n      tag_48\n      jump\t// in\n    tag_47:\n      mload(0x40)\n      dup1\n      swap2\n      sub\n      swap1\n      return\n        /* \"Proofication/DocumentAudit.sol\":3180:3390  function getDocumentOwner(bytes32 documentHash) public view returns (address) {... */\n    tag_11:\n      tag_49\n      0x04\n      dup1\n      calldatasize\n      sub\n      dup2\n      add\n      swap1\n      tag_50\n      swap2\n      swap1\n      tag_30\n      jump\t// in\n    tag_50:\n      tag_51\n      jump\t// in\n    tag_49:\n      mload(0x40)\n      tag_52\n      swap2\n      swap1\n      tag_38\n      jump\t// in\n    tag_52:\n      mload(0x40)\n      dup1\n      swap2\n      sub\n      swap1\n      return\n        /* \"Proofication/DocumentAudit.sol\":4056:4129  function unpauseContract() public onlyOwner {... */\n    tag_12:\n      tag_53\n      tag_54\n      jump\t// in\n    tag_53:\n      stop\n        /* \"Proofication/DocumentAudit.sol\":2561:3114  function transferDocumentOwnership(bytes32 documentHash, address newOwner) public whenNotPaused {... */\n    tag_13:\n      tag_55\n      0x04\n      dup1\n      calldatasize\n      sub\n      dup2\n      add\n      swap1\n      tag_56\n      swap2\n      swap1\n      tag_57\n      jump\t// in\n    tag_56:\n      tag_58\n      jump\t// in\n    tag_55:\n      stop\n        /* \"@openzeppelin/contracts/access/Ownable.sol\":2543:2758  function transferOwnership(address newOwner) public virtual onlyOwner {... */\n    tag_14:\n      tag_59\n      0x04\n      dup1\n      calldatasize\n      sub\n      dup2\n      add\n      swap1\n      tag_60\n      swap2\n      swap1\n      tag_61\n      jump\t// in\n    tag_60:\n      tag_62\n      jump\t// in\n    tag_59:\n      stop\n        /* \"Proofication/DocumentAudit.sol\":3452:3585  function verifyDocument(bytes32 documentHash) public view returns (bool) {... */\n    tag_15:\n      tag_63\n      0x04\n      dup1\n      calldatasize\n      sub\n      dup2\n      add\n      swap1\n      tag_64\n      swap2\n      swap1\n      tag_30\n      jump\t// in\n    tag_64:\n      tag_65\n      jump\t// in\n    tag_63:\n      mload(0x40)\n      tag_66\n      swap2\n      swap1\n      tag_27\n      jump\t// in\n    tag_66:\n      mload(0x40)\n      dup1\n      swap2\n      sub\n      swap1\n      return\n        /* \"Proofication/DocumentAudit.sol\":3949:4018  function pauseContract() public onlyOwner {... */\n    tag_19:\n        /* \"@openzeppelin/contracts/access/Ownable.sol\":1531:1544  _checkOwner() */\n      tag_68\n        /* \"@openzeppelin/contracts/access/Ownable.sol\":1531:1542  _checkOwner */\n      tag_69\n        /* \"@openzeppelin/contracts/access/Ownable.sol\":1531:1544  _checkOwner() */\n      jump\t// in\n    tag_68:\n        /* \"Proofication/DocumentAudit.sol\":4002:4010  _pause() */\n      tag_71\n        /* \"Proofication/DocumentAudit.sol\":4002:4008  _pause */\n      tag_72\n        /* \"Proofication/DocumentAudit.sol\":4002:4010  _pause() */\n      jump\t// in\n    tag_71:\n        /* \"Proofication/DocumentAudit.sol\":3949:4018  function pauseContract() public onlyOwner {... */\n      jump\t// out\n        /* \"Proofication/DocumentAudit.sol\":1052:1703  function registerDocument(... */\n    tag_23:\n        /* \"@openzeppelin/contracts/security/Pausable.sol\":1239:1258  _requireNotPaused() */\n      tag_74\n        /* \"@openzeppelin/contracts/security/Pausable.sol\":1239:1256  _requireNotPaused */\n      tag_75\n        /* \"@openzeppelin/contracts/security/Pausable.sol\":1239:1258  _requireNotPaused() */\n      jump\t// in\n    tag_74:\n        /* \"Proofication/DocumentAudit.sol\":1268:1302  isDocumentRegistered(documentHash) */\n      tag_77\n        /* \"Proofication/DocumentAudit.sol\":1289:1301  documentHash */\n      dup5\n        /* \"Proofication/DocumentAudit.sol\":1268:1288  isDocumentRegistered */\n      tag_31\n        /* \"Proofication/DocumentAudit.sol\":1268:1302  isDocumentRegistered(documentHash) */\n      jump\t// in\n    tag_77:\n        /* \"Proofication/DocumentAudit.sol\":1267:1302  !isDocumentRegistered(documentHash) */\n      iszero\n        /* \"Proofication/DocumentAudit.sol\":1259:1335  require(!isDocumentRegistered(documentHash), \"Document already registered.\") */\n      tag_78\n      jumpi\n      mload(0x40)\n      0x08c379a000000000000000000000000000000000000000000000000000000000\n      dup2\n      mstore\n      0x04\n      add\n      tag_79\n      swap1\n      tag_80\n      jump\t// in\n    tag_79:\n      mload(0x40)\n      dup1\n      swap2\n      sub\n      swap1\n      revert\n    tag_78:\n        /* \"Proofication/DocumentAudit.sol\":1374:1591  Document({... */\n      mload(0x40)\n      dup1\n      0xa0\n      add\n      0x40\n      mstore\n      dup1\n        /* \"Proofication/DocumentAudit.sol\":1405:1415  msg.sender */\n      caller\n        /* \"Proofication/DocumentAudit.sol\":1374:1591  Document({... */\n      0xffffffffffffffffffffffffffffffffffffffff\n      and\n      dup2\n      mstore\n      0x20\n      add\n        /* \"Proofication/DocumentAudit.sol\":1441:1456  block.timestamp */\n      timestamp\n        /* \"Proofication/DocumentAudit.sol\":1374:1591  Document({... */\n      dup2\n      mstore\n      0x20\n      add\n        /* \"Proofication/DocumentAudit.sol\":1487:1501  registrantName */\n      dup5\n        /* \"Proofication/DocumentAudit.sol\":1374:1591  Document({... */\n      dup2\n      mstore\n      0x20\n      add\n        /* \"Proofication/DocumentAudit.sol\":1530:1542  organization */\n      dup4\n        /* \"Proofication/DocumentAudit.sol\":1374:1591  Document({... */\n      dup2\n      mstore\n      0x20\n      add\n        /* \"Proofication/DocumentAudit.sol\":1569:1579  identifier */\n      dup3\n        /* \"Proofication/DocumentAudit.sol\":1374:1591  Document({... */\n      dup2\n      mstore\n      pop\n        /* \"Proofication/DocumentAudit.sol\":1348:1357  documents */\n      0x01\n        /* \"Proofication/DocumentAudit.sol\":1348:1371  documents[documentHash] */\n      0x00\n        /* \"Proofication/DocumentAudit.sol\":1358:1370  documentHash */\n      dup7\n        /* \"Proofication/DocumentAudit.sol\":1348:1371  documents[documentHash] */\n      dup2\n      mstore\n      0x20\n      add\n      swap1\n      dup2\n      mstore\n      0x20\n      add\n      0x00\n      keccak256\n        /* \"Proofication/DocumentAudit.sol\":1348:1591  documents[documentHash] = Document({... */\n      0x00\n      dup3\n      add\n      mload\n      dup2\n      0x00\n      add\n      exp(0x0100, 0x00)\n      dup2\n      sload\n      dup2\n      0xffffffffffffffffffffffffffffffffffffffff\n      mul\n      not\n      and\n      swap1\n      dup4\n      0xffffffffffffffffffffffffffffffffffffffff\n      and\n      mul\n      or\n      swap1\n      sstore\n      pop\n      0x20\n      dup3\n      add\n      mload\n      dup2\n      0x01\n      add\n      sstore\n      0x40\n      dup3\n      add\n      mload\n      dup2\n      0x02\n      add\n      swap1\n      dup2\n      tag_81\n      swap2\n      swap1\n      tag_82\n      jump\t// in\n    tag_81:\n      pop\n      0x60\n      dup3\n      add\n      mload\n      dup2\n      0x03\n      add\n      swap1\n      dup2\n      tag_83\n      swap2\n      swap1\n      tag_82\n      jump\t// in\n    tag_83:\n      pop\n      0x80\n      dup3\n      add\n      mload\n      dup2\n      0x04\n      add\n      swap1\n      dup2\n      tag_84\n      swap2\n      swap1\n      tag_82\n      jump\t// in\n    tag_84:\n      pop\n      swap1\n      pop\n      pop\n        /* \"Proofication/DocumentAudit.sol\":1642:1652  msg.sender */\n      caller\n        /* \"Proofication/DocumentAudit.sol\":1609:1695  DocumentRegistered(documentHash, msg.sender, registrantName, organization, identifier) */\n      0xffffffffffffffffffffffffffffffffffffffff\n      and\n        /* \"Proofication/DocumentAudit.sol\":1628:1640  documentHash */\n      dup5\n        /* \"Proofication/DocumentAudit.sol\":1609:1695  DocumentRegistered(documentHash, msg.sender, registrantName, organization, identifier) */\n      0x31cd9bde24fe44ab9472bbdb7a0ee0bf791aa49fc520688e00ec27cc37847f91\n        /* \"Proofication/DocumentAudit.sol\":1654:1668  registrantName */\n      dup6\n        /* \"Proofication/DocumentAudit.sol\":1670:1682  organization */\n      dup6\n        /* \"Proofication/DocumentAudit.sol\":1684:1694  identifier */\n      dup6\n        /* \"Proofication/DocumentAudit.sol\":1609:1695  DocumentRegistered(documentHash, msg.sender, registrantName, organization, identifier) */\n      mload(0x40)\n      tag_85\n      swap4\n      swap3\n      swap2\n      swap1\n      tag_86\n      jump\t// in\n    tag_85:\n      mload(0x40)\n      dup1\n      swap2\n      sub\n      swap1\n      log3\n        /* \"Proofication/DocumentAudit.sol\":1052:1703  function registerDocument(... */\n      pop\n      pop\n      pop\n      pop\n      jump\t// out\n        /* \"@openzeppelin/contracts/security/Pausable.sol\":1615:1699  function paused() public view virtual returns (bool) {... */\n    tag_25:\n        /* \"@openzeppelin/contracts/security/Pausable.sol\":1662:1666  bool */\n      0x00\n        /* \"@openzeppelin/contracts/security/Pausable.sol\":1685:1692  _paused */\n      dup1\n      0x14\n      swap1\n      sload\n      swap1\n      0x0100\n      exp\n      swap1\n      div\n      0xff\n      and\n        /* \"@openzeppelin/contracts/security/Pausable.sol\":1678:1692  return _paused */\n      swap1\n      pop\n        /* \"@openzeppelin/contracts/security/Pausable.sol\":1615:1699  function paused() public view virtual returns (bool) {... */\n      swap1\n      jump\t// out\n        /* \"Proofication/DocumentAudit.sol\":1767:1910  function isDocumentRegistered(bytes32 documentHash) public view returns (bool) {... */\n    tag_31:\n        /* \"Proofication/DocumentAudit.sol\":1840:1844  bool */\n      0x00\n        /* \"Proofication/DocumentAudit.sol\":1901:1902  0 */\n      dup1\n        /* \"Proofication/DocumentAudit.sol\":1864:1873  documents */\n      0x01\n        /* \"Proofication/DocumentAudit.sol\":1864:1887  documents[documentHash] */\n      0x00\n        /* \"Proofication/DocumentAudit.sol\":1874:1886  documentHash */\n      dup5\n        /* \"Proofication/DocumentAudit.sol\":1864:1887  documents[documentHash] */\n      dup2\n      mstore\n      0x20\n      add\n      swap1\n      dup2\n      mstore\n      0x20\n      add\n      0x00\n      keccak256\n        /* \"Proofication/DocumentAudit.sol\":1864:1897  documents[documentHash].timestamp */\n      0x01\n      add\n      sload\n        /* \"Proofication/DocumentAudit.sol\":1864:1902  documents[documentHash].timestamp != 0 */\n      eq\n      iszero\n        /* \"Proofication/DocumentAudit.sol\":1857:1902  return documents[documentHash].timestamp != 0 */\n      swap1\n      pop\n        /* \"Proofication/DocumentAudit.sol\":1767:1910  function isDocumentRegistered(bytes32 documentHash) public view returns (bool) {... */\n      swap2\n      swap1\n      pop\n      jump\t// out\n        /* \"@openzeppelin/contracts/access/Ownable.sol\":2293:2394  function renounceOwnership() public virtual onlyOwner {... */\n    tag_34:\n        /* \"@openzeppelin/contracts/access/Ownable.sol\":1531:1544  _checkOwner() */\n      tag_90\n        /* \"@openzeppelin/contracts/access/Ownable.sol\":1531:1542  _checkOwner */\n      tag_69\n        /* \"@openzeppelin/contracts/access/Ownable.sol\":1531:1544  _checkOwner() */\n      jump\t// in\n    tag_90:\n        /* \"@openzeppelin/contracts/access/Ownable.sol\":2357:2387  _transferOwnership(address(0)) */\n      tag_92\n        /* \"@openzeppelin/contracts/access/Ownable.sol\":2384:2385  0 */\n      0x00\n        /* \"@openzeppelin/contracts/access/Ownable.sol\":2357:2375  _transferOwnership */\n      tag_93\n        /* \"@openzeppelin/contracts/access/Ownable.sol\":2357:2387  _transferOwnership(address(0)) */\n      jump\t// in\n    tag_92:\n        /* \"@openzeppelin/contracts/access/Ownable.sol\":2293:2394  function renounceOwnership() public virtual onlyOwner {... */\n      jump\t// out\n        /* \"@openzeppelin/contracts/access/Ownable.sol\":1638:1723  function owner() public view virtual returns (address) {... */\n    tag_36:\n        /* \"@openzeppelin/contracts/access/Ownable.sol\":1684:1691  address */\n      0x00\n        /* \"@openzeppelin/contracts/access/Ownable.sol\":1710:1716  _owner */\n      dup1\n      0x00\n      swap1\n      sload\n      swap1\n      0x0100\n      exp\n      swap1\n      div\n      0xffffffffffffffffffffffffffffffffffffffff\n      and\n        /* \"@openzeppelin/contracts/access/Ownable.sol\":1703:1716  return _owner */\n      swap1\n      pop\n        /* \"@openzeppelin/contracts/access/Ownable.sol\":1638:1723  function owner() public view virtual returns (address) {... */\n      swap1\n      jump\t// out\n        /* \"Proofication/DocumentAudit.sol\":1973:2494  function getDocumentDetails(bytes32 documentHash)... */\n    tag_41:\n        /* \"Proofication/DocumentAudit.sol\":2067:2080  address owner */\n      0x00\n        /* \"Proofication/DocumentAudit.sol\":2095:2112  uint256 timestamp */\n      dup1\n        /* \"Proofication/DocumentAudit.sol\":2127:2155  string memory registrantName */\n      0x60\n        /* \"Proofication/DocumentAudit.sol\":2170:2196  string memory organization */\n      dup1\n        /* \"Proofication/DocumentAudit.sol\":2211:2235  string memory identifier */\n      0x60\n        /* \"Proofication/DocumentAudit.sol\":2271:2305  isDocumentRegistered(documentHash) */\n      tag_96\n        /* \"Proofication/DocumentAudit.sol\":2292:2304  documentHash */\n      dup7\n        /* \"Proofication/DocumentAudit.sol\":2271:2291  isDocumentRegistered */\n      tag_31\n        /* \"Proofication/DocumentAudit.sol\":2271:2305  isDocumentRegistered(documentHash) */\n      jump\t// in\n    tag_96:\n        /* \"Proofication/DocumentAudit.sol\":2263:2329  require(isDocumentRegistered(documentHash), \"Document not found.\") */\n      tag_97\n      jumpi\n      mload(0x40)\n      0x08c379a000000000000000000000000000000000000000000000000000000000\n      dup2\n      mstore\n      0x04\n      add\n      tag_98\n      swap1\n      tag_99\n      jump\t// in\n    tag_98:\n      mload(0x40)\n      dup1\n      swap2\n      sub\n      swap1\n      revert\n    tag_97:\n        /* \"Proofication/DocumentAudit.sol\":2342:2362  Document storage doc */\n      0x00\n        /* \"Proofication/DocumentAudit.sol\":2365:2374  documents */\n      0x01\n        /* \"Proofication/DocumentAudit.sol\":2365:2388  documents[documentHash] */\n      0x00\n        /* \"Proofication/DocumentAudit.sol\":2375:2387  documentHash */\n      dup9\n        /* \"Proofication/DocumentAudit.sol\":2365:2388  documents[documentHash] */\n      dup2\n      mstore\n      0x20\n      add\n      swap1\n      dup2\n      mstore\n      0x20\n      add\n      0x00\n      keccak256\n        /* \"Proofication/DocumentAudit.sol\":2342:2388  Document storage doc = documents[documentHash] */\n      swap1\n      pop\n        /* \"Proofication/DocumentAudit.sol\":2407:2410  doc */\n      dup1\n        /* \"Proofication/DocumentAudit.sol\":2407:2416  doc.owner */\n      0x00\n      add\n      0x00\n      swap1\n      sload\n      swap1\n      0x0100\n      exp\n      swap1\n      div\n      0xffffffffffffffffffffffffffffffffffffffff\n      and\n        /* \"Proofication/DocumentAudit.sol\":2418:2421  doc */\n      dup2\n        /* \"Proofication/DocumentAudit.sol\":2418:2431  doc.timestamp */\n      0x01\n      add\n      sload\n        /* \"Proofication/DocumentAudit.sol\":2433:2436  doc */\n      dup3\n        /* \"Proofication/DocumentAudit.sol\":2433:2451  doc.registrantName */\n      0x02\n      add\n        /* \"Proofication/DocumentAudit.sol\":2453:2456  doc */\n      dup4\n        /* \"Proofication/DocumentAudit.sol\":2453:2469  doc.organization */\n      0x03\n      add\n        /* \"Proofication/DocumentAudit.sol\":2471:2474  doc */\n      dup5\n        /* \"Proofication/DocumentAudit.sol\":2471:2485  doc.identifier */\n      0x04\n      add\n        /* \"Proofication/DocumentAudit.sol\":2399:2486  return (doc.owner, doc.timestamp, doc.registrantName, doc.organization, doc.identifier) */\n      dup3\n      dup1\n      sload\n      tag_100\n      swap1\n      tag_101\n      jump\t// in\n    tag_100:\n      dup1\n      0x1f\n      add\n      0x20\n      dup1\n      swap2\n      div\n      mul\n      0x20\n      add\n      mload(0x40)\n      swap1\n      dup2\n      add\n      0x40\n      mstore\n      dup1\n      swap3\n      swap2\n      swap1\n      dup2\n      dup2\n      mstore\n      0x20\n      add\n      dup3\n      dup1\n      sload\n      tag_102\n      swap1\n      tag_101\n      jump\t// in\n    tag_102:\n      dup1\n      iszero\n      tag_103\n      jumpi\n      dup1\n      0x1f\n      lt\n      tag_104\n      jumpi\n      0x0100\n      dup1\n      dup4\n      sload\n      div\n      mul\n      dup4\n      mstore\n      swap2\n      0x20\n      add\n      swap2\n      jump(tag_103)\n    tag_104:\n      dup3\n      add\n      swap2\n      swap1\n      0x00\n      mstore\n      keccak256(0x00, 0x20)\n      swap1\n    tag_105:\n      dup2\n      sload\n      dup2\n      mstore\n      swap1\n      0x01\n      add\n      swap1\n      0x20\n      add\n      dup1\n      dup4\n      gt\n      tag_105\n      jumpi\n      dup3\n      swap1\n      sub\n      0x1f\n      and\n      dup3\n      add\n      swap2\n    tag_103:\n      pop\n      pop\n      pop\n      pop\n      pop\n      swap3\n      pop\n      dup2\n      dup1\n      sload\n      tag_106\n      swap1\n      tag_101\n      jump\t// in\n    tag_106:\n      dup1\n      0x1f\n      add\n      0x20\n      dup1\n      swap2\n      div\n      mul\n      0x20\n      add\n      mload(0x40)\n      swap1\n      dup2\n      add\n      0x40\n      mstore\n      dup1\n      swap3\n      swap2\n      swap1\n      dup2\n      dup2\n      mstore\n      0x20\n      add\n      dup3\n      dup1\n      sload\n      tag_107\n      swap1\n      tag_101\n      jump\t// in\n    tag_107:\n      dup1\n      iszero\n      tag_108\n      jumpi\n      dup1\n      0x1f\n      lt\n      tag_109\n      jumpi\n      0x0100\n      dup1\n      dup4\n      sload\n      div\n      mul\n      dup4\n      mstore\n      swap2\n      0x20\n      add\n      swap2\n      jump(tag_108)\n    tag_109:\n      dup3\n      add\n      swap2\n      swap1\n      0x00\n      mstore\n      keccak256(0x00, 0x20)\n      swap1\n    tag_110:\n      dup2\n      sload\n      dup2\n      mstore\n      swap1\n      0x01\n      add\n      swap1\n      0x20\n      add\n      dup1\n      dup4\n      gt\n      tag_110\n      jumpi\n      dup3\n      swap1\n      sub\n      0x1f\n      and\n      dup3\n      add\n      swap2\n    tag_108:\n      pop\n      pop\n      pop\n      pop\n      pop\n      swap2\n      pop\n      dup1\n      dup1\n      sload\n      tag_111\n      swap1\n      tag_101\n      jump\t// in\n    tag_111:\n      dup1\n      0x1f\n      add\n      0x20\n      dup1\n      swap2\n      div\n      mul\n      0x20\n      add\n      mload(0x40)\n      swap1\n      dup2\n      add\n      0x40\n      mstore\n      dup1\n      swap3\n      swap2\n      swap1\n      dup2\n      dup2\n      mstore\n      0x20\n      add\n      dup3\n      dup1\n      sload\n      tag_112\n      swap1\n      tag_101\n      jump\t// in\n    tag_112:\n      dup1\n      iszero\n      tag_113\n      jumpi\n      dup1\n      0x1f\n      lt\n      tag_114\n      jumpi\n      0x0100\n      dup1\n      dup4\n      sload\n      div\n      mul\n      dup4\n      mstore\n      swap2\n      0x20\n      add\n      swap2\n      jump(tag_113)\n    tag_114:\n      dup3\n      add\n      swap2\n      swap1\n      0x00\n      mstore\n      keccak256(0x00, 0x20)\n      swap1\n    tag_115:\n      dup2\n      sload\n      dup2\n      mstore\n      swap1\n      0x01\n      add\n      swap1\n      0x20\n      add\n      dup1\n      dup4\n      gt\n      tag_115\n      jumpi\n      dup3\n      swap1\n      sub\n      0x1f\n      and\n      dup3\n      add\n      swap2\n    tag_113:\n      pop\n      pop\n      pop\n      pop\n      pop\n      swap1\n      pop\n      swap6\n      pop\n      swap6\n      pop\n      swap6\n      pop\n      swap6\n      pop\n      swap6\n      pop\n      pop\n        /* \"Proofication/DocumentAudit.sol\":1973:2494  function getDocumentDetails(bytes32 documentHash)... */\n      swap2\n      swap4\n      swap6\n      swap1\n      swap3\n      swap5\n      pop\n      jump\t// out\n        /* \"Proofication/DocumentAudit.sol\":3659:3877  function getDocumentTimestamp(bytes32 documentHash) public view returns (uint256) {... */\n    tag_46:\n        /* \"Proofication/DocumentAudit.sol\":3732:3739  uint256 */\n      0x00\n        /* \"Proofication/DocumentAudit.sol\":3760:3794  isDocumentRegistered(documentHash) */\n      tag_117\n        /* \"Proofication/DocumentAudit.sol\":3781:3793  documentHash */\n      dup3\n        /* \"Proofication/DocumentAudit.sol\":3760:3780  isDocumentRegistered */\n      tag_31\n        /* \"Proofication/DocumentAudit.sol\":3760:3794  isDocumentRegistered(documentHash) */\n      jump\t// in\n    tag_117:\n        /* \"Proofication/DocumentAudit.sol\":3752:3818  require(isDocumentRegistered(documentHash), \"Document not found.\") */\n      tag_118\n      jumpi\n      mload(0x40)\n      0x08c379a000000000000000000000000000000000000000000000000000000000\n      dup2\n      mstore\n      0x04\n      add\n      tag_119\n      swap1\n      tag_99\n      jump\t// in\n    tag_119:\n      mload(0x40)\n      dup1\n      swap2\n      sub\n      swap1\n      revert\n    tag_118:\n        /* \"Proofication/DocumentAudit.sol\":3836:3845  documents */\n      0x01\n        /* \"Proofication/DocumentAudit.sol\":3836:3859  documents[documentHash] */\n      0x00\n        /* \"Proofication/DocumentAudit.sol\":3846:3858  documentHash */\n      dup4\n        /* \"Proofication/DocumentAudit.sol\":3836:3859  documents[documentHash] */\n      dup2\n      mstore\n      0x20\n      add\n      swap1\n      dup2\n      mstore\n      0x20\n      add\n      0x00\n      keccak256\n        /* \"Proofication/DocumentAudit.sol\":3836:3869  documents[documentHash].timestamp */\n      0x01\n      add\n      sload\n        /* \"Proofication/DocumentAudit.sol\":3829:3869  return documents[documentHash].timestamp */\n      swap1\n      pop\n        /* \"Proofication/DocumentAudit.sol\":3659:3877  function getDocumentTimestamp(bytes32 documentHash) public view returns (uint256) {... */\n      swap2\n      swap1\n      pop\n      jump\t// out\n        /* \"Proofication/DocumentAudit.sol\":3180:3390  function getDocumentOwner(bytes32 documentHash) public view returns (address) {... */\n    tag_51:\n        /* \"Proofication/DocumentAudit.sol\":3249:3256  address */\n      0x00\n        /* \"Proofication/DocumentAudit.sol\":3277:3311  isDocumentRegistered(documentHash) */\n      tag_121\n        /* \"Proofication/DocumentAudit.sol\":3298:3310  documentHash */\n      dup3\n        /* \"Proofication/DocumentAudit.sol\":3277:3297  isDocumentRegistered */\n      tag_31\n        /* \"Proofication/DocumentAudit.sol\":3277:3311  isDocumentRegistered(documentHash) */\n      jump\t// in\n    tag_121:\n        /* \"Proofication/DocumentAudit.sol\":3269:3335  require(isDocumentRegistered(documentHash), \"Document not found.\") */\n      tag_122\n      jumpi\n      mload(0x40)\n      0x08c379a000000000000000000000000000000000000000000000000000000000\n      dup2\n      mstore\n      0x04\n      add\n      tag_123\n      swap1\n      tag_99\n      jump\t// in\n    tag_123:\n      mload(0x40)\n      dup1\n      swap2\n      sub\n      swap1\n      revert\n    tag_122:\n        /* \"Proofication/DocumentAudit.sol\":3353:3362  documents */\n      0x01\n        /* \"Proofication/DocumentAudit.sol\":3353:3376  documents[documentHash] */\n      0x00\n        /* \"Proofication/DocumentAudit.sol\":3363:3375  documentHash */\n      dup4\n        /* \"Proofication/DocumentAudit.sol\":3353:3376  documents[documentHash] */\n      dup2\n      mstore\n      0x20\n      add\n      swap1\n      dup2\n      mstore\n      0x20\n      add\n      0x00\n      keccak256\n        /* \"Proofication/DocumentAudit.sol\":3353:3382  documents[documentHash].owner */\n      0x00\n      add\n      0x00\n      swap1\n      sload\n      swap1\n      0x0100\n      exp\n      swap1\n      div\n      0xffffffffffffffffffffffffffffffffffffffff\n      and\n        /* \"Proofication/DocumentAudit.sol\":3346:3382  return documents[documentHash].owner */\n      swap1\n      pop\n        /* \"Proofication/DocumentAudit.sol\":3180:3390  function getDocumentOwner(bytes32 documentHash) public view returns (address) {... */\n      swap2\n      swap1\n      pop\n      jump\t// out\n        /* \"Proofication/DocumentAudit.sol\":4056:4129  function unpauseContract() public onlyOwner {... */\n    tag_54:\n        /* \"@openzeppelin/contracts/access/Ownable.sol\":1531:1544  _checkOwner() */\n      tag_125\n        /* \"@openzeppelin/contracts/access/Ownable.sol\":1531:1542  _checkOwner */\n      tag_69\n        /* \"@openzeppelin/contracts/access/Ownable.sol\":1531:1544  _checkOwner() */\n      jump\t// in\n    tag_125:\n        /* \"Proofication/DocumentAudit.sol\":4111:4121  _unpause() */\n      tag_127\n        /* \"Proofication/DocumentAudit.sol\":4111:4119  _unpause */\n      tag_128\n        /* \"Proofication/DocumentAudit.sol\":4111:4121  _unpause() */\n      jump\t// in\n    tag_127:\n        /* \"Proofication/DocumentAudit.sol\":4056:4129  function unpauseContract() public onlyOwner {... */\n      jump\t// out\n        /* \"Proofication/DocumentAudit.sol\":2561:3114  function transferDocumentOwnership(bytes32 documentHash, address newOwner) public whenNotPaused {... */\n    tag_58:\n        /* \"@openzeppelin/contracts/security/Pausable.sol\":1239:1258  _requireNotPaused() */\n      tag_130\n        /* \"@openzeppelin/contracts/security/Pausable.sol\":1239:1256  _requireNotPaused */\n      tag_75\n        /* \"@openzeppelin/contracts/security/Pausable.sol\":1239:1258  _requireNotPaused() */\n      jump\t// in\n    tag_130:\n        /* \"Proofication/DocumentAudit.sol\":2676:2710  isDocumentRegistered(documentHash) */\n      tag_132\n        /* \"Proofication/DocumentAudit.sol\":2697:2709  documentHash */\n      dup3\n        /* \"Proofication/DocumentAudit.sol\":2676:2696  isDocumentRegistered */\n      tag_31\n        /* \"Proofication/DocumentAudit.sol\":2676:2710  isDocumentRegistered(documentHash) */\n      jump\t// in\n    tag_132:\n        /* \"Proofication/DocumentAudit.sol\":2668:2734  require(isDocumentRegistered(documentHash), \"Document not found.\") */\n      tag_133\n      jumpi\n      mload(0x40)\n      0x08c379a000000000000000000000000000000000000000000000000000000000\n      dup2\n      mstore\n      0x04\n      add\n      tag_134\n      swap1\n      tag_99\n      jump\t// in\n    tag_134:\n      mload(0x40)\n      dup1\n      swap2\n      sub\n      swap1\n      revert\n    tag_133:\n        /* \"Proofication/DocumentAudit.sol\":2767:2776  documents */\n      0x01\n        /* \"Proofication/DocumentAudit.sol\":2767:2790  documents[documentHash] */\n      0x00\n        /* \"Proofication/DocumentAudit.sol\":2777:2789  documentHash */\n      dup4\n        /* \"Proofication/DocumentAudit.sol\":2767:2790  documents[documentHash] */\n      dup2\n      mstore\n      0x20\n      add\n      swap1\n      dup2\n      mstore\n      0x20\n      add\n      0x00\n      keccak256\n        /* \"Proofication/DocumentAudit.sol\":2767:2796  documents[documentHash].owner */\n      0x00\n      add\n      0x00\n      swap1\n      sload\n      swap1\n      0x0100\n      exp\n      swap1\n      div\n      0xffffffffffffffffffffffffffffffffffffffff\n      and\n        /* \"Proofication/DocumentAudit.sol\":2753:2796  msg.sender == documents[documentHash].owner */\n      0xffffffffffffffffffffffffffffffffffffffff\n      and\n        /* \"Proofication/DocumentAudit.sol\":2753:2763  msg.sender */\n      caller\n        /* \"Proofication/DocumentAudit.sol\":2753:2796  msg.sender == documents[documentHash].owner */\n      0xffffffffffffffffffffffffffffffffffffffff\n      and\n      eq\n        /* \"Proofication/DocumentAudit.sol\":2745:2839  require(msg.sender == documents[documentHash].owner, \"Only the owner can transfer ownership.\") */\n      tag_135\n      jumpi\n      mload(0x40)\n      0x08c379a000000000000000000000000000000000000000000000000000000000\n      dup2\n      mstore\n      0x04\n      add\n      tag_136\n      swap1\n      tag_137\n      jump\t// in\n    tag_136:\n      mload(0x40)\n      dup1\n      swap2\n      sub\n      swap1\n      revert\n    tag_135:\n        /* \"Proofication/DocumentAudit.sol\":2878:2879  0 */\n      0x00\n        /* \"Proofication/DocumentAudit.sol\":2858:2880  newOwner != address(0) */\n      0xffffffffffffffffffffffffffffffffffffffff\n      and\n        /* \"Proofication/DocumentAudit.sol\":2858:2866  newOwner */\n      dup2\n        /* \"Proofication/DocumentAudit.sol\":2858:2880  newOwner != address(0) */\n      0xffffffffffffffffffffffffffffffffffffffff\n      and\n      sub\n        /* \"Proofication/DocumentAudit.sol\":2850:2922  require(newOwner != address(0), \"New owner cannot be the zero address.\") */\n      tag_138\n      jumpi\n      mload(0x40)\n      0x08c379a000000000000000000000000000000000000000000000000000000000\n      dup2\n      mstore\n      0x04\n      add\n      tag_139\n      swap1\n      tag_140\n      jump\t// in\n    tag_139:\n      mload(0x40)\n      dup1\n      swap2\n      sub\n      swap1\n      revert\n    tag_138:\n        /* \"Proofication/DocumentAudit.sol\":2935:2951  address oldOwner */\n      0x00\n        /* \"Proofication/DocumentAudit.sol\":2954:2963  documents */\n      0x01\n        /* \"Proofication/DocumentAudit.sol\":2954:2977  documents[documentHash] */\n      0x00\n        /* \"Proofication/DocumentAudit.sol\":2964:2976  documentHash */\n      dup5\n        /* \"Proofication/DocumentAudit.sol\":2954:2977  documents[documentHash] */\n      dup2\n      mstore\n      0x20\n      add\n      swap1\n      dup2\n      mstore\n      0x20\n      add\n      0x00\n      keccak256\n        /* \"Proofication/DocumentAudit.sol\":2954:2983  documents[documentHash].owner */\n      0x00\n      add\n      0x00\n      swap1\n      sload\n      swap1\n      0x0100\n      exp\n      swap1\n      div\n      0xffffffffffffffffffffffffffffffffffffffff\n      and\n        /* \"Proofication/DocumentAudit.sol\":2935:2983  address oldOwner = documents[documentHash].owner */\n      swap1\n      pop\n        /* \"Proofication/DocumentAudit.sol\":3026:3034  newOwner */\n      dup2\n        /* \"Proofication/DocumentAudit.sol\":2994:3003  documents */\n      0x01\n        /* \"Proofication/DocumentAudit.sol\":2994:3017  documents[documentHash] */\n      0x00\n        /* \"Proofication/DocumentAudit.sol\":3004:3016  documentHash */\n      dup6\n        /* \"Proofication/DocumentAudit.sol\":2994:3017  documents[documentHash] */\n      dup2\n      mstore\n      0x20\n      add\n      swap1\n      dup2\n      mstore\n      0x20\n      add\n      0x00\n      keccak256\n        /* \"Proofication/DocumentAudit.sol\":2994:3023  documents[documentHash].owner */\n      0x00\n      add\n      0x00\n        /* \"Proofication/DocumentAudit.sol\":2994:3034  documents[documentHash].owner = newOwner */\n      0x0100\n      exp\n      dup2\n      sload\n      dup2\n      0xffffffffffffffffffffffffffffffffffffffff\n      mul\n      not\n      and\n      swap1\n      dup4\n      0xffffffffffffffffffffffffffffffffffffffff\n      and\n      mul\n      or\n      swap1\n      sstore\n      pop\n        /* \"Proofication/DocumentAudit.sol\":3097:3105  newOwner */\n      dup2\n        /* \"Proofication/DocumentAudit.sol\":3052:3106  OwnershipTransferred(documentHash, oldOwner, newOwner) */\n      0xffffffffffffffffffffffffffffffffffffffff\n      and\n        /* \"Proofication/DocumentAudit.sol\":3087:3095  oldOwner */\n      dup2\n        /* \"Proofication/DocumentAudit.sol\":3052:3106  OwnershipTransferred(documentHash, oldOwner, newOwner) */\n      0xffffffffffffffffffffffffffffffffffffffff\n      and\n        /* \"Proofication/DocumentAudit.sol\":3073:3085  documentHash */\n      dup5\n        /* \"Proofication/DocumentAudit.sol\":3052:3106  OwnershipTransferred(documentHash, oldOwner, newOwner) */\n      0x0b659dccc8eb950324170e8d9598af5ee04ee070883eb28651a96788721fbf83\n      mload(0x40)\n      mload(0x40)\n      dup1\n      swap2\n      sub\n      swap1\n      log4\n        /* \"Proofication/DocumentAudit.sol\":2657:3114  {... */\n      pop\n        /* \"Proofication/DocumentAudit.sol\":2561:3114  function transferDocumentOwnership(bytes32 documentHash, address newOwner) public whenNotPaused {... */\n      pop\n      pop\n      jump\t// out\n        /* \"@openzeppelin/contracts/access/Ownable.sol\":2543:2758  function transferOwnership(address newOwner) public virtual onlyOwner {... */\n    tag_62:\n        /* \"@openzeppelin/contracts/access/Ownable.sol\":1531:1544  _checkOwner() */\n      tag_142\n        /* \"@openzeppelin/contracts/access/Ownable.sol\":1531:1542  _checkOwner */\n      tag_69\n        /* \"@openzeppelin/contracts/access/Ownable.sol\":1531:1544  _checkOwner() */\n      jump\t// in\n    tag_142:\n        /* \"@openzeppelin/contracts/access/Ownable.sol\":2647:2648  0 */\n      0x00\n        /* \"@openzeppelin/contracts/access/Ownable.sol\":2627:2649  newOwner == address(0) */\n      0xffffffffffffffffffffffffffffffffffffffff\n      and\n        /* \"@openzeppelin/contracts/access/Ownable.sol\":2627:2635  newOwner */\n      dup2\n        /* \"@openzeppelin/contracts/access/Ownable.sol\":2627:2649  newOwner == address(0) */\n      0xffffffffffffffffffffffffffffffffffffffff\n      and\n      sub\n        /* \"@openzeppelin/contracts/access/Ownable.sol\":2623:2714  if (newOwner == address(0)) {... */\n      tag_144\n      jumpi\n        /* \"@openzeppelin/contracts/access/Ownable.sol\":2700:2701  0 */\n      0x00\n        /* \"@openzeppelin/contracts/access/Ownable.sol\":2672:2703  OwnableInvalidOwner(address(0)) */\n      mload(0x40)\n      0x1e4fbdf700000000000000000000000000000000000000000000000000000000\n      dup2\n      mstore\n      0x04\n      add\n      tag_145\n      swap2\n      swap1\n      tag_38\n      jump\t// in\n    tag_145:\n      mload(0x40)\n      dup1\n      swap2\n      sub\n      swap1\n      revert\n        /* \"@openzeppelin/contracts/access/Ownable.sol\":2623:2714  if (newOwner == address(0)) {... */\n    tag_144:\n        /* \"@openzeppelin/contracts/access/Ownable.sol\":2723:2751  _transferOwnership(newOwner) */\n      tag_146\n        /* \"@openzeppelin/contracts/access/Ownable.sol\":2742:2750  newOwner */\n      dup2\n        /* \"@openzeppelin/contracts/access/Ownable.sol\":2723:2741  _transferOwnership */\n      tag_93\n        /* \"@openzeppelin/contracts/access/Ownable.sol\":2723:2751  _transferOwnership(newOwner) */\n      jump\t// in\n    tag_146:\n        /* \"@openzeppelin/contracts/access/Ownable.sol\":2543:2758  function transferOwnership(address newOwner) public virtual onlyOwner {... */\n      pop\n      jump\t// out\n        /* \"Proofication/DocumentAudit.sol\":3452:3585  function verifyDocument(bytes32 documentHash) public view returns (bool) {... */\n    tag_65:\n        /* \"Proofication/DocumentAudit.sol\":3519:3523  bool */\n      0x00\n        /* \"Proofication/DocumentAudit.sol\":3543:3577  isDocumentRegistered(documentHash) */\n      tag_148\n        /* \"Proofication/DocumentAudit.sol\":3564:3576  documentHash */\n      dup3\n        /* \"Proofication/DocumentAudit.sol\":3543:3563  isDocumentRegistered */\n      tag_31\n        /* \"Proofication/DocumentAudit.sol\":3543:3577  isDocumentRegistered(documentHash) */\n      jump\t// in\n    tag_148:\n        /* \"Proofication/DocumentAudit.sol\":3536:3577  return isDocumentRegistered(documentHash) */\n      swap1\n      pop\n        /* \"Proofication/DocumentAudit.sol\":3452:3585  function verifyDocument(bytes32 documentHash) public view returns (bool) {... */\n      swap2\n      swap1\n      pop\n      jump\t// out\n        /* \"@openzeppelin/contracts/access/Ownable.sol\":1796:1958  function _checkOwner() internal view virtual {... */\n    tag_69:\n        /* \"@openzeppelin/contracts/access/Ownable.sol\":1866:1878  _msgSender() */\n      tag_150\n        /* \"@openzeppelin/contracts/access/Ownable.sol\":1866:1876  _msgSender */\n      tag_151\n        /* \"@openzeppelin/contracts/access/Ownable.sol\":1866:1878  _msgSender() */\n      jump\t// in\n    tag_150:\n        /* \"@openzeppelin/contracts/access/Ownable.sol\":1855:1878  owner() != _msgSender() */\n      0xffffffffffffffffffffffffffffffffffffffff\n      and\n        /* \"@openzeppelin/contracts/access/Ownable.sol\":1855:1862  owner() */\n      tag_152\n        /* \"@openzeppelin/contracts/access/Ownable.sol\":1855:1860  owner */\n      tag_36\n        /* \"@openzeppelin/contracts/access/Ownable.sol\":1855:1862  owner() */\n      jump\t// in\n    tag_152:\n        /* \"@openzeppelin/contracts/access/Ownable.sol\":1855:1878  owner() != _msgSender() */\n      0xffffffffffffffffffffffffffffffffffffffff\n      and\n      eq\n        /* \"@openzeppelin/contracts/access/Ownable.sol\":1851:1952  if (owner() != _msgSender()) {... */\n      tag_153\n      jumpi\n        /* \"@openzeppelin/contracts/access/Ownable.sol\":1928:1940  _msgSender() */\n      tag_154\n        /* \"@openzeppelin/contracts/access/Ownable.sol\":1928:1938  _msgSender */\n      tag_151\n        /* \"@openzeppelin/contracts/access/Ownable.sol\":1928:1940  _msgSender() */\n      jump\t// in\n    tag_154:\n        /* \"@openzeppelin/contracts/access/Ownable.sol\":1901:1941  OwnableUnauthorizedAccount(_msgSender()) */\n      mload(0x40)\n      0x118cdaa700000000000000000000000000000000000000000000000000000000\n      dup2\n      mstore\n      0x04\n      add\n      tag_155\n      swap2\n      swap1\n      tag_38\n      jump\t// in\n    tag_155:\n      mload(0x40)\n      dup1\n      swap2\n      sub\n      swap1\n      revert\n        /* \"@openzeppelin/contracts/access/Ownable.sol\":1851:1952  if (owner() != _msgSender()) {... */\n    tag_153:\n        /* \"@openzeppelin/contracts/access/Ownable.sol\":1796:1958  function _checkOwner() internal view virtual {... */\n      jump\t// out\n        /* \"@openzeppelin/contracts/security/Pausable.sol\":2186:2301  function _pause() internal virtual whenNotPaused {... */\n    tag_72:\n        /* \"@openzeppelin/contracts/security/Pausable.sol\":1239:1258  _requireNotPaused() */\n      tag_157\n        /* \"@openzeppelin/contracts/security/Pausable.sol\":1239:1256  _requireNotPaused */\n      tag_75\n        /* \"@openzeppelin/contracts/security/Pausable.sol\":1239:1258  _requireNotPaused() */\n      jump\t// in\n    tag_157:\n        /* \"@openzeppelin/contracts/security/Pausable.sol\":2255:2259  true */\n      0x01\n        /* \"@openzeppelin/contracts/security/Pausable.sol\":2245:2252  _paused */\n      0x00\n      0x14\n        /* \"@openzeppelin/contracts/security/Pausable.sol\":2245:2259  _paused = true */\n      0x0100\n      exp\n      dup2\n      sload\n      dup2\n      0xff\n      mul\n      not\n      and\n      swap1\n      dup4\n      iszero\n      iszero\n      mul\n      or\n      swap1\n      sstore\n      pop\n        /* \"@openzeppelin/contracts/security/Pausable.sol\":2274:2294  Paused(_msgSender()) */\n      0x62e78cea01bee320cd4e420270b5ea74000d11b0c9f74754ebdbfc544b05a258\n        /* \"@openzeppelin/contracts/security/Pausable.sol\":2281:2293  _msgSender() */\n      tag_159\n        /* \"@openzeppelin/contracts/security/Pausable.sol\":2281:2291  _msgSender */\n      tag_151\n        /* \"@openzeppelin/contracts/security/Pausable.sol\":2281:2293  _msgSender() */\n      jump\t// in\n    tag_159:\n        /* \"@openzeppelin/contracts/security/Pausable.sol\":2274:2294  Paused(_msgSender()) */\n      mload(0x40)\n      tag_160\n      swap2\n      swap1\n      tag_38\n      jump\t// in\n    tag_160:\n      mload(0x40)\n      dup1\n      swap2\n      sub\n      swap1\n      log1\n        /* \"@openzeppelin/contracts/security/Pausable.sol\":2186:2301  function _pause() internal virtual whenNotPaused {... */\n      jump\t// out\n        /* \"@openzeppelin/contracts/security/Pausable.sol\":1767:1873  function _requireNotPaused() internal view virtual {... */\n    tag_75:\n        /* \"@openzeppelin/contracts/security/Pausable.sol\":1837:1845  paused() */\n      tag_162\n        /* \"@openzeppelin/contracts/security/Pausable.sol\":1837:1843  paused */\n      tag_25\n        /* \"@openzeppelin/contracts/security/Pausable.sol\":1837:1845  paused() */\n      jump\t// in\n    tag_162:\n        /* \"@openzeppelin/contracts/security/Pausable.sol\":1836:1845  !paused() */\n      iszero\n        /* \"@openzeppelin/contracts/security/Pausable.sol\":1828:1866  require(!paused(), \"Pausable: paused\") */\n      tag_163\n      jumpi\n      mload(0x40)\n      0x08c379a000000000000000000000000000000000000000000000000000000000\n      dup2\n      mstore\n      0x04\n      add\n      tag_164\n      swap1\n      tag_165\n      jump\t// in\n    tag_164:\n      mload(0x40)\n      dup1\n      swap2\n      sub\n      swap1\n      revert\n    tag_163:\n        /* \"@openzeppelin/contracts/security/Pausable.sol\":1767:1873  function _requireNotPaused() internal view virtual {... */\n      jump\t// out\n        /* \"@openzeppelin/contracts/access/Ownable.sol\":2912:3099  function _transferOwnership(address newOwner) internal virtual {... */\n    tag_93:\n        /* \"@openzeppelin/contracts/access/Ownable.sol\":2985:3001  address oldOwner */\n      0x00\n        /* \"@openzeppelin/contracts/access/Ownable.sol\":3004:3010  _owner */\n      dup1\n      0x00\n      swap1\n      sload\n      swap1\n      0x0100\n      exp\n      swap1\n      div\n      0xffffffffffffffffffffffffffffffffffffffff\n      and\n        /* \"@openzeppelin/contracts/access/Ownable.sol\":2985:3010  address oldOwner = _owner */\n      swap1\n      pop\n        /* \"@openzeppelin/contracts/access/Ownable.sol\":3029:3037  newOwner */\n      dup2\n        /* \"@openzeppelin/contracts/access/Ownable.sol\":3020:3026  _owner */\n      0x00\n      dup1\n        /* \"@openzeppelin/contracts/access/Ownable.sol\":3020:3037  _owner = newOwner */\n      0x0100\n      exp\n      dup2\n      sload\n      dup2\n      0xffffffffffffffffffffffffffffffffffffffff\n      mul\n      not\n      and\n      swap1\n      dup4\n      0xffffffffffffffffffffffffffffffffffffffff\n      and\n      mul\n      or\n      swap1\n      sstore\n      pop\n        /* \"@openzeppelin/contracts/access/Ownable.sol\":3083:3091  newOwner */\n      dup2\n        /* \"@openzeppelin/contracts/access/Ownable.sol\":3052:3092  OwnershipTransferred(oldOwner, newOwner) */\n      0xffffffffffffffffffffffffffffffffffffffff\n      and\n        /* \"@openzeppelin/contracts/access/Ownable.sol\":3073:3081  oldOwner */\n      dup2\n        /* \"@openzeppelin/contracts/access/Ownable.sol\":3052:3092  OwnershipTransferred(oldOwner, newOwner) */\n      0xffffffffffffffffffffffffffffffffffffffff\n      and\n      0x8be0079c531659141344cd1fd0a4f28419497f9722a3daafe3b4186f6b6457e0\n      mload(0x40)\n      mload(0x40)\n      dup1\n      swap2\n      sub\n      swap1\n      log3\n        /* \"@openzeppelin/contracts/access/Ownable.sol\":2975:3099  {... */\n      pop\n        /* \"@openzeppelin/contracts/access/Ownable.sol\":2912:3099  function _transferOwnership(address newOwner) internal virtual {... */\n      pop\n      jump\t// out\n        /* \"@openzeppelin/contracts/security/Pausable.sol\":2433:2550  function _unpause() internal virtual whenPaused {... */\n    tag_128:\n        /* \"@openzeppelin/contracts/security/Pausable.sol\":1486:1502  _requirePaused() */\n      tag_168\n        /* \"@openzeppelin/contracts/security/Pausable.sol\":1486:1500  _requirePaused */\n      tag_169\n        /* \"@openzeppelin/contracts/security/Pausable.sol\":1486:1502  _requirePaused() */\n      jump\t// in\n    tag_168:\n        /* \"@openzeppelin/contracts/security/Pausable.sol\":2501:2506  false */\n      0x00\n        /* \"@openzeppelin/contracts/security/Pausable.sol\":2491:2498  _paused */\n      dup1\n      0x14\n        /* \"@openzeppelin/contracts/security/Pausable.sol\":2491:2506  _paused = false */\n      0x0100\n      exp\n      dup2\n      sload\n      dup2\n      0xff\n      mul\n      not\n      and\n      swap1\n      dup4\n      iszero\n      iszero\n      mul\n      or\n      swap1\n      sstore\n      pop\n        /* \"@openzeppelin/contracts/security/Pausable.sol\":2521:2543  Unpaused(_msgSender()) */\n      0x5db9ee0a495bf2e6ff9c91a7834c1ba4fdd244a5e8aa4e537bd38aeae4b073aa\n        /* \"@openzeppelin/contracts/security/Pausable.sol\":2530:2542  _msgSender() */\n      tag_171\n        /* \"@openzeppelin/contracts/security/Pausable.sol\":2530:2540  _msgSender */\n      tag_151\n        /* \"@openzeppelin/contracts/security/Pausable.sol\":2530:2542  _msgSender() */\n      jump\t// in\n    tag_171:\n        /* \"@openzeppelin/contracts/security/Pausable.sol\":2521:2543  Unpaused(_msgSender()) */\n      mload(0x40)\n      tag_172\n      swap2\n      swap1\n      tag_38\n      jump\t// in\n    tag_172:\n      mload(0x40)\n      dup1\n      swap2\n      sub\n      swap1\n      log1\n        /* \"@openzeppelin/contracts/security/Pausable.sol\":2433:2550  function _unpause() internal virtual whenPaused {... */\n      jump\t// out\n        /* \"@openzeppelin/contracts/utils/Context.sol\":656:752  function _msgSender() internal view virtual returns (address) {... */\n    tag_151:\n        /* \"@openzeppelin/contracts/utils/Context.sol\":709:716  address */\n      0x00\n        /* \"@openzeppelin/contracts/utils/Context.sol\":735:745  msg.sender */\n      caller\n        /* \"@openzeppelin/contracts/utils/Context.sol\":728:745  return msg.sender */\n      swap1\n      pop\n        /* \"@openzeppelin/contracts/utils/Context.sol\":656:752  function _msgSender() internal view virtual returns (address) {... */\n      swap1\n      jump\t// out\n        /* \"@openzeppelin/contracts/security/Pausable.sol\":1945:2051  function _requirePaused() internal view virtual {... */\n    tag_169:\n        /* \"@openzeppelin/contracts/security/Pausable.sol\":2011:2019  paused() */\n      tag_175\n        /* \"@openzeppelin/contracts/security/Pausable.sol\":2011:2017  paused */\n      tag_25\n        /* \"@openzeppelin/contracts/security/Pausable.sol\":2011:2019  paused() */\n      jump\t// in\n    tag_175:\n        /* \"@openzeppelin/contracts/security/Pausable.sol\":2003:2044  require(paused(), \"Pausable: not paused\") */\n      tag_176\n      jumpi\n      mload(0x40)\n      0x08c379a000000000000000000000000000000000000000000000000000000000\n      dup2\n      mstore\n      0x04\n      add\n      tag_177\n      swap1\n      tag_178\n      jump\t// in\n    tag_177:\n      mload(0x40)\n      dup1\n      swap2\n      sub\n      swap1\n      revert\n    tag_176:\n        /* \"@openzeppelin/contracts/security/Pausable.sol\":1945:2051  function _requirePaused() internal view virtual {... */\n      jump\t// out\n        /* \"#utility.yul\":7:82   */\n    tag_179:\n        /* \"#utility.yul\":40:46   */\n      0x00\n        /* \"#utility.yul\":73:75   */\n      0x40\n        /* \"#utility.yul\":67:76   */\n      mload\n        /* \"#utility.yul\":57:76   */\n      swap1\n      pop\n        /* \"#utility.yul\":7:82   */\n      swap1\n      jump\t// out\n        /* \"#utility.yul\":88:205   */\n    tag_180:\n        /* \"#utility.yul\":197:198   */\n      0x00\n        /* \"#utility.yul\":194:195   */\n      dup1\n        /* \"#utility.yul\":187:199   */\n      revert\n        /* \"#utility.yul\":211:328   */\n    tag_181:\n        /* \"#utility.yul\":320:321   */\n      0x00\n        /* \"#utility.yul\":317:318   */\n      dup1\n        /* \"#utility.yul\":310:322   */\n      revert\n        /* \"#utility.yul\":334:411   */\n    tag_182:\n        /* \"#utility.yul\":371:378   */\n      0x00\n        /* \"#utility.yul\":400:405   */\n      dup2\n        /* \"#utility.yul\":389:405   */\n      swap1\n      pop\n        /* \"#utility.yul\":334:411   */\n      swap2\n      swap1\n      pop\n      jump\t// out\n        /* \"#utility.yul\":417:539   */\n    tag_183:\n        /* \"#utility.yul\":490:514   */\n      tag_242\n        /* \"#utility.yul\":508:513   */\n      dup2\n        /* \"#utility.yul\":490:514   */\n      tag_182\n      jump\t// in\n    tag_242:\n        /* \"#utility.yul\":483:488   */\n      dup2\n        /* \"#utility.yul\":480:515   */\n      eq\n        /* \"#utility.yul\":470:533   */\n      tag_243\n      jumpi\n        /* \"#utility.yul\":529:530   */\n      0x00\n        /* \"#utility.yul\":526:527   */\n      dup1\n        /* \"#utility.yul\":519:531   */\n      revert\n        /* \"#utility.yul\":470:533   */\n    tag_243:\n        /* \"#utility.yul\":417:539   */\n      pop\n      jump\t// out\n        /* \"#utility.yul\":545:684   */\n    tag_184:\n        /* \"#utility.yul\":591:596   */\n      0x00\n        /* \"#utility.yul\":629:635   */\n      dup2\n        /* \"#utility.yul\":616:636   */\n      calldataload\n        /* \"#utility.yul\":607:636   */\n      swap1\n      pop\n        /* \"#utility.yul\":645:678   */\n      tag_245\n        /* \"#utility.yul\":672:677   */\n      dup2\n        /* \"#utility.yul\":645:678   */\n      tag_183\n      jump\t// in\n    tag_245:\n        /* \"#utility.yul\":545:684   */\n      swap3\n      swap2\n      pop\n      pop\n      jump\t// out\n        /* \"#utility.yul\":690:807   */\n    tag_185:\n        /* \"#utility.yul\":799:800   */\n      0x00\n        /* \"#utility.yul\":796:797   */\n      dup1\n        /* \"#utility.yul\":789:801   */\n      revert\n        /* \"#utility.yul\":813:930   */\n    tag_186:\n        /* \"#utility.yul\":922:923   */\n      0x00\n        /* \"#utility.yul\":919:920   */\n      dup1\n        /* \"#utility.yul\":912:924   */\n      revert\n        /* \"#utility.yul\":936:1038   */\n    tag_187:\n        /* \"#utility.yul\":977:983   */\n      0x00\n        /* \"#utility.yul\":1028:1030   */\n      0x1f\n        /* \"#utility.yul\":1024:1031   */\n      not\n        /* \"#utility.yul\":1019:1021   */\n      0x1f\n        /* \"#utility.yul\":1012:1017   */\n      dup4\n        /* \"#utility.yul\":1008:1022   */\n      add\n        /* \"#utility.yul\":1004:1032   */\n      and\n        /* \"#utility.yul\":994:1032   */\n      swap1\n      pop\n        /* \"#utility.yul\":936:1038   */\n      swap2\n      swap1\n      pop\n      jump\t// out\n        /* \"#utility.yul\":1044:1224   */\n    tag_188:\n        /* \"#utility.yul\":1092:1169   */\n      0x4e487b7100000000000000000000000000000000000000000000000000000000\n        /* \"#utility.yul\":1089:1090   */\n      0x00\n        /* \"#utility.yul\":1082:1170   */\n      mstore\n        /* \"#utility.yul\":1189:1193   */\n      0x41\n        /* \"#utility.yul\":1186:1187   */\n      0x04\n        /* \"#utility.yul\":1179:1194   */\n      mstore\n        /* \"#utility.yul\":1213:1217   */\n      0x24\n        /* \"#utility.yul\":1210:1211   */\n      0x00\n        /* \"#utility.yul\":1203:1218   */\n      revert\n        /* \"#utility.yul\":1230:1511   */\n    tag_189:\n        /* \"#utility.yul\":1313:1340   */\n      tag_251\n        /* \"#utility.yul\":1335:1339   */\n      dup3\n        /* \"#utility.yul\":1313:1340   */\n      tag_187\n      jump\t// in\n    tag_251:\n        /* \"#utility.yul\":1305:1311   */\n      dup2\n        /* \"#utility.yul\":1301:1341   */\n      add\n        /* \"#utility.yul\":1443:1449   */\n      dup2\n        /* \"#utility.yul\":1431:1441   */\n      dup2\n        /* \"#utility.yul\":1428:1450   */\n      lt\n        /* \"#utility.yul\":1407:1425   */\n      0xffffffffffffffff\n        /* \"#utility.yul\":1395:1405   */\n      dup3\n        /* \"#utility.yul\":1392:1426   */\n      gt\n        /* \"#utility.yul\":1389:1451   */\n      or\n        /* \"#utility.yul\":1386:1474   */\n      iszero\n      tag_252\n      jumpi\n        /* \"#utility.yul\":1454:1472   */\n      tag_253\n      tag_188\n      jump\t// in\n    tag_253:\n        /* \"#utility.yul\":1386:1474   */\n    tag_252:\n        /* \"#utility.yul\":1494:1504   */\n      dup1\n        /* \"#utility.yul\":1490:1492   */\n      0x40\n        /* \"#utility.yul\":1483:1505   */\n      mstore\n        /* \"#utility.yul\":1273:1511   */\n      pop\n        /* \"#utility.yul\":1230:1511   */\n      pop\n      pop\n      jump\t// out\n        /* \"#utility.yul\":1517:1646   */\n    tag_190:\n        /* \"#utility.yul\":1551:1557   */\n      0x00\n        /* \"#utility.yul\":1578:1598   */\n      tag_255\n      tag_179\n      jump\t// in\n    tag_255:\n        /* \"#utility.yul\":1568:1598   */\n      swap1\n      pop\n        /* \"#utility.yul\":1607:1640   */\n      tag_256\n        /* \"#utility.yul\":1635:1639   */\n      dup3\n        /* \"#utility.yul\":1627:1633   */\n      dup3\n        /* \"#utility.yul\":1607:1640   */\n      tag_189\n      jump\t// in\n    tag_256:\n        /* \"#utility.yul\":1517:1646   */\n      swap2\n      swap1\n      pop\n      jump\t// out\n        /* \"#utility.yul\":1652:1960   */\n    tag_191:\n        /* \"#utility.yul\":1714:1718   */\n      0x00\n        /* \"#utility.yul\":1804:1822   */\n      0xffffffffffffffff\n        /* \"#utility.yul\":1796:1802   */\n      dup3\n        /* \"#utility.yul\":1793:1823   */\n      gt\n        /* \"#utility.yul\":1790:1846   */\n      iszero\n      tag_258\n      jumpi\n        /* \"#utility.yul\":1826:1844   */\n      tag_259\n      tag_188\n      jump\t// in\n    tag_259:\n        /* \"#utility.yul\":1790:1846   */\n    tag_258:\n        /* \"#utility.yul\":1864:1893   */\n      tag_260\n        /* \"#utility.yul\":1886:1892   */\n      dup3\n        /* \"#utility.yul\":1864:1893   */\n      tag_187\n      jump\t// in\n    tag_260:\n        /* \"#utility.yul\":1856:1893   */\n      swap1\n      pop\n        /* \"#utility.yul\":1948:1952   */\n      0x20\n        /* \"#utility.yul\":1942:1946   */\n      dup2\n        /* \"#utility.yul\":1938:1953   */\n      add\n        /* \"#utility.yul\":1930:1953   */\n      swap1\n      pop\n        /* \"#utility.yul\":1652:1960   */\n      swap2\n      swap1\n      pop\n      jump\t// out\n        /* \"#utility.yul\":1966:2114   */\n    tag_192:\n        /* \"#utility.yul\":2064:2070   */\n      dup3\n        /* \"#utility.yul\":2059:2062   */\n      dup2\n        /* \"#utility.yul\":2054:2057   */\n      dup4\n        /* \"#utility.yul\":2041:2071   */\n      calldatacopy\n        /* \"#utility.yul\":2105:2106   */\n      0x00\n        /* \"#utility.yul\":2096:2102   */\n      dup4\n        /* \"#utility.yul\":2091:2094   */\n      dup4\n        /* \"#utility.yul\":2087:2103   */\n      add\n        /* \"#utility.yul\":2080:2107   */\n      mstore\n        /* \"#utility.yul\":1966:2114   */\n      pop\n      pop\n      pop\n      jump\t// out\n        /* \"#utility.yul\":2120:2545   */\n    tag_193:\n        /* \"#utility.yul\":2198:2203   */\n      0x00\n        /* \"#utility.yul\":2223:2289   */\n      tag_263\n        /* \"#utility.yul\":2239:2288   */\n      tag_264\n        /* \"#utility.yul\":2281:2287   */\n      dup5\n        /* \"#utility.yul\":2239:2288   */\n      tag_191\n      jump\t// in\n    tag_264:\n        /* \"#utility.yul\":2223:2289   */\n      tag_190\n      jump\t// in\n    tag_263:\n        /* \"#utility.yul\":2214:2289   */\n      swap1\n      pop\n        /* \"#utility.yul\":2312:2318   */\n      dup3\n        /* \"#utility.yul\":2305:2310   */\n      dup2\n        /* \"#utility.yul\":2298:2319   */\n      mstore\n        /* \"#utility.yul\":2350:2354   */\n      0x20\n        /* \"#utility.yul\":2343:2348   */\n      dup2\n        /* \"#utility.yul\":2339:2355   */\n      add\n        /* \"#utility.yul\":2388:2391   */\n      dup5\n        /* \"#utility.yul\":2379:2385   */\n      dup5\n        /* \"#utility.yul\":2374:2377   */\n      dup5\n        /* \"#utility.yul\":2370:2386   */\n      add\n        /* \"#utility.yul\":2367:2392   */\n      gt\n        /* \"#utility.yul\":2364:2476   */\n      iszero\n      tag_265\n      jumpi\n        /* \"#utility.yul\":2395:2474   */\n      tag_266\n      tag_186\n      jump\t// in\n    tag_266:\n        /* \"#utility.yul\":2364:2476   */\n    tag_265:\n        /* \"#utility.yul\":2485:2539   */\n      tag_267\n        /* \"#utility.yul\":2532:2538   */\n      dup5\n        /* \"#utility.yul\":2527:2530   */\n      dup3\n        /* \"#utility.yul\":2522:2525   */\n      dup6\n        /* \"#utility.yul\":2485:2539   */\n      tag_192\n      jump\t// in\n    tag_267:\n        /* \"#utility.yul\":2204:2545   */\n      pop\n        /* \"#utility.yul\":2120:2545   */\n      swap4\n      swap3\n      pop\n      pop\n      pop\n      jump\t// out\n        /* \"#utility.yul\":2565:2905   */\n    tag_194:\n        /* \"#utility.yul\":2621:2626   */\n      0x00\n        /* \"#utility.yul\":2670:2673   */\n      dup3\n        /* \"#utility.yul\":2663:2667   */\n      0x1f\n        /* \"#utility.yul\":2655:2661   */\n      dup4\n        /* \"#utility.yul\":2651:2668   */\n      add\n        /* \"#utility.yul\":2647:2674   */\n      slt\n        /* \"#utility.yul\":2637:2759   */\n      tag_269\n      jumpi\n        /* \"#utility.yul\":2678:2757   */\n      tag_270\n      tag_185\n      jump\t// in\n    tag_270:\n        /* \"#utility.yul\":2637:2759   */\n    tag_269:\n        /* \"#utility.yul\":2795:2801   */\n      dup2\n        /* \"#utility.yul\":2782:2802   */\n      calldataload\n        /* \"#utility.yul\":2820:2899   */\n      tag_271\n        /* \"#utility.yul\":2895:2898   */\n      dup5\n        /* \"#utility.yul\":2887:2893   */\n      dup3\n        /* \"#utility.yul\":2880:2884   */\n      0x20\n        /* \"#utility.yul\":2872:2878   */\n      dup7\n        /* \"#utility.yul\":2868:2885   */\n      add\n        /* \"#utility.yul\":2820:2899   */\n      tag_193\n      jump\t// in\n    tag_271:\n        /* \"#utility.yul\":2811:2899   */\n      swap2\n      pop\n        /* \"#utility.yul\":2627:2905   */\n      pop\n        /* \"#utility.yul\":2565:2905   */\n      swap3\n      swap2\n      pop\n      pop\n      jump\t// out\n        /* \"#utility.yul\":2911:4216   */\n    tag_22:\n        /* \"#utility.yul\":3027:3033   */\n      0x00\n        /* \"#utility.yul\":3035:3041   */\n      dup1\n        /* \"#utility.yul\":3043:3049   */\n      0x00\n        /* \"#utility.yul\":3051:3057   */\n      dup1\n        /* \"#utility.yul\":3100:3103   */\n      0x80\n        /* \"#utility.yul\":3088:3097   */\n      dup6\n        /* \"#utility.yul\":3079:3086   */\n      dup8\n        /* \"#utility.yul\":3075:3098   */\n      sub\n        /* \"#utility.yul\":3071:3104   */\n      slt\n        /* \"#utility.yul\":3068:3188   */\n      iszero\n      tag_273\n      jumpi\n        /* \"#utility.yul\":3107:3186   */\n      tag_274\n      tag_180\n      jump\t// in\n    tag_274:\n        /* \"#utility.yul\":3068:3188   */\n    tag_273:\n        /* \"#utility.yul\":3227:3228   */\n      0x00\n        /* \"#utility.yul\":3252:3305   */\n      tag_275\n        /* \"#utility.yul\":3297:3304   */\n      dup8\n        /* \"#utility.yul\":3288:3294   */\n      dup3\n        /* \"#utility.yul\":3277:3286   */\n      dup9\n        /* \"#utility.yul\":3273:3295   */\n      add\n        /* \"#utility.yul\":3252:3305   */\n      tag_184\n      jump\t// in\n    tag_275:\n        /* \"#utility.yul\":3242:3305   */\n      swap5\n      pop\n        /* \"#utility.yul\":3198:3315   */\n      pop\n        /* \"#utility.yul\":3382:3384   */\n      0x20\n        /* \"#utility.yul\":3371:3380   */\n      dup6\n        /* \"#utility.yul\":3367:3385   */\n      add\n        /* \"#utility.yul\":3354:3386   */\n      calldataload\n        /* \"#utility.yul\":3413:3431   */\n      0xffffffffffffffff\n        /* \"#utility.yul\":3405:3411   */\n      dup2\n        /* \"#utility.yul\":3402:3432   */\n      gt\n        /* \"#utility.yul\":3399:3516   */\n      iszero\n      tag_276\n      jumpi\n        /* \"#utility.yul\":3435:3514   */\n      tag_277\n      tag_181\n      jump\t// in\n    tag_277:\n        /* \"#utility.yul\":3399:3516   */\n    tag_276:\n        /* \"#utility.yul\":3540:3603   */\n      tag_278\n        /* \"#utility.yul\":3595:3602   */\n      dup8\n        /* \"#utility.yul\":3586:3592   */\n      dup3\n        /* \"#utility.yul\":3575:3584   */\n      dup9\n        /* \"#utility.yul\":3571:3593   */\n      add\n        /* \"#utility.yul\":3540:3603   */\n      tag_194\n      jump\t// in\n    tag_278:\n        /* \"#utility.yul\":3530:3603   */\n      swap4\n      pop\n        /* \"#utility.yul\":3325:3613   */\n      pop\n        /* \"#utility.yul\":3680:3682   */\n      0x40\n        /* \"#utility.yul\":3669:3678   */\n      dup6\n        /* \"#utility.yul\":3665:3683   */\n      add\n        /* \"#utility.yul\":3652:3684   */\n      calldataload\n        /* \"#utility.yul\":3711:3729   */\n      0xffffffffffffffff\n        /* \"#utility.yul\":3703:3709   */\n      dup2\n        /* \"#utility.yul\":3700:3730   */\n      gt\n        /* \"#utility.yul\":3697:3814   */\n      iszero\n      tag_279\n      jumpi\n        /* \"#utility.yul\":3733:3812   */\n      tag_280\n      tag_181\n      jump\t// in\n    tag_280:\n        /* \"#utility.yul\":3697:3814   */\n    tag_279:\n        /* \"#utility.yul\":3838:3901   */\n      tag_281\n        /* \"#utility.yul\":3893:3900   */\n      dup8\n        /* \"#utility.yul\":3884:3890   */\n      dup3\n        /* \"#utility.yul\":3873:3882   */\n      dup9\n        /* \"#utility.yul\":3869:3891   */\n      add\n        /* \"#utility.yul\":3838:3901   */\n      tag_194\n      jump\t// in\n    tag_281:\n        /* \"#utility.yul\":3828:3901   */\n      swap3\n      pop\n        /* \"#utility.yul\":3623:3911   */\n      pop\n        /* \"#utility.yul\":3978:3980   */\n      0x60\n        /* \"#utility.yul\":3967:3976   */\n      dup6\n        /* \"#utility.yul\":3963:3981   */\n      add\n        /* \"#utility.yul\":3950:3982   */\n      calldataload\n        /* \"#utility.yul\":4009:4027   */\n      0xffffffffffffffff\n        /* \"#utility.yul\":4001:4007   */\n      dup2\n        /* \"#utility.yul\":3998:4028   */\n      gt\n        /* \"#utility.yul\":3995:4112   */\n      iszero\n      tag_282\n      jumpi\n        /* \"#utility.yul\":4031:4110   */\n      tag_283\n      tag_181\n      jump\t// in\n    tag_283:\n        /* \"#utility.yul\":3995:4112   */\n    tag_282:\n        /* \"#utility.yul\":4136:4199   */\n      tag_284\n        /* \"#utility.yul\":4191:4198   */\n      dup8\n        /* \"#utility.yul\":4182:4188   */\n      dup3\n        /* \"#utility.yul\":4171:4180   */\n      dup9\n        /* \"#utility.yul\":4167:4189   */\n      add\n        /* \"#utility.yul\":4136:4199   */\n      tag_194\n      jump\t// in\n    tag_284:\n        /* \"#utility.yul\":4126:4199   */\n      swap2\n      pop\n        /* \"#utility.yul\":3921:4209   */\n      pop\n        /* \"#utility.yul\":2911:4216   */\n      swap3\n      swap6\n      swap2\n      swap5\n      pop\n      swap3\n      pop\n      jump\t// out\n        /* \"#utility.yul\":4222:4312   */\n    tag_195:\n        /* \"#utility.yul\":4256:4263   */\n      0x00\n        /* \"#utility.yul\":4299:4304   */\n      dup2\n        /* \"#utility.yul\":4292:4305   */\n      iszero\n        /* \"#utility.yul\":4285:4306   */\n      iszero\n        /* \"#utility.yul\":4274:4306   */\n      swap1\n      pop\n        /* \"#utility.yul\":4222:4312   */\n      swap2\n      swap1\n      pop\n      jump\t// out\n        /* \"#utility.yul\":4318:4427   */\n    tag_196:\n        /* \"#utility.yul\":4399:4420   */\n      tag_287\n        /* \"#utility.yul\":4414:4419   */\n      dup2\n        /* \"#utility.yul\":4399:4420   */\n      tag_195\n      jump\t// in\n    tag_287:\n        /* \"#utility.yul\":4394:4397   */\n      dup3\n        /* \"#utility.yul\":4387:4421   */\n      mstore\n        /* \"#utility.yul\":4318:4427   */\n      pop\n      pop\n      jump\t// out\n        /* \"#utility.yul\":4433:4643   */\n    tag_27:\n        /* \"#utility.yul\":4520:4524   */\n      0x00\n        /* \"#utility.yul\":4558:4560   */\n      0x20\n        /* \"#utility.yul\":4547:4556   */\n      dup3\n        /* \"#utility.yul\":4543:4561   */\n      add\n        /* \"#utility.yul\":4535:4561   */\n      swap1\n      pop\n        /* \"#utility.yul\":4571:4636   */\n      tag_289\n        /* \"#utility.yul\":4633:4634   */\n      0x00\n        /* \"#utility.yul\":4622:4631   */\n      dup4\n        /* \"#utility.yul\":4618:4635   */\n      add\n        /* \"#utility.yul\":4609:4615   */\n      dup5\n        /* \"#utility.yul\":4571:4636   */\n      tag_196\n      jump\t// in\n    tag_289:\n        /* \"#utility.yul\":4433:4643   */\n      swap3\n      swap2\n      pop\n      pop\n      jump\t// out\n        /* \"#utility.yul\":4649:4978   */\n    tag_30:\n        /* \"#utility.yul\":4708:4714   */\n      0x00\n        /* \"#utility.yul\":4757:4759   */\n      0x20\n        /* \"#utility.yul\":4745:4754   */\n      dup3\n        /* \"#utility.yul\":4736:4743   */\n      dup5\n        /* \"#utility.yul\":4732:4755   */\n      sub\n        /* \"#utility.yul\":4728:4760   */\n      slt\n        /* \"#utility.yul\":4725:4844   */\n      iszero\n      tag_291\n      jumpi\n        /* \"#utility.yul\":4763:4842   */\n      tag_292\n      tag_180\n      jump\t// in\n    tag_292:\n        /* \"#utility.yul\":4725:4844   */\n    tag_291:\n        /* \"#utility.yul\":4883:4884   */\n      0x00\n        /* \"#utility.yul\":4908:4961   */\n      tag_293\n        /* \"#utility.yul\":4953:4960   */\n      dup5\n        /* \"#utility.yul\":4944:4950   */\n      dup3\n        /* \"#utility.yul\":4933:4942   */\n      dup6\n        /* \"#utility.yul\":4929:4951   */\n      add\n        /* \"#utility.yul\":4908:4961   */\n      tag_184\n      jump\t// in\n    tag_293:\n        /* \"#utility.yul\":4898:4961   */\n      swap2\n      pop\n        /* \"#utility.yul\":4854:4971   */\n      pop\n        /* \"#utility.yul\":4649:4978   */\n      swap3\n      swap2\n      pop\n      pop\n      jump\t// out\n        /* \"#utility.yul\":4984:5110   */\n    tag_197:\n        /* \"#utility.yul\":5021:5028   */\n      0x00\n        /* \"#utility.yul\":5061:5103   */\n      0xffffffffffffffffffffffffffffffffffffffff\n        /* \"#utility.yul\":5054:5059   */\n      dup3\n        /* \"#utility.yul\":5050:5104   */\n      and\n        /* \"#utility.yul\":5039:5104   */\n      swap1\n      pop\n        /* \"#utility.yul\":4984:5110   */\n      swap2\n      swap1\n      pop\n      jump\t// out\n        /* \"#utility.yul\":5116:5212   */\n    tag_198:\n        /* \"#utility.yul\":5153:5160   */\n      0x00\n        /* \"#utility.yul\":5182:5206   */\n      tag_296\n        /* \"#utility.yul\":5200:5205   */\n      dup3\n        /* \"#utility.yul\":5182:5206   */\n      tag_197\n      jump\t// in\n    tag_296:\n        /* \"#utility.yul\":5171:5206   */\n      swap1\n      pop\n        /* \"#utility.yul\":5116:5212   */\n      swap2\n      swap1\n      pop\n      jump\t// out\n        /* \"#utility.yul\":5218:5336   */\n    tag_199:\n        /* \"#utility.yul\":5305:5329   */\n      tag_298\n        /* \"#utility.yul\":5323:5328   */\n      dup2\n        /* \"#utility.yul\":5305:5329   */\n      tag_198\n      jump\t// in\n    tag_298:\n        /* \"#utility.yul\":5300:5303   */\n      dup3\n        /* \"#utility.yul\":5293:5330   */\n      mstore\n        /* \"#utility.yul\":5218:5336   */\n      pop\n      pop\n      jump\t// out\n        /* \"#utility.yul\":5342:5564   */\n    tag_38:\n        /* \"#utility.yul\":5435:5439   */\n      0x00\n        /* \"#utility.yul\":5473:5475   */\n      0x20\n        /* \"#utility.yul\":5462:5471   */\n      dup3\n        /* \"#utility.yul\":5458:5476   */\n      add\n        /* \"#utility.yul\":5450:5476   */\n      swap1\n      pop\n        /* \"#utility.yul\":5486:5557   */\n      tag_300\n        /* \"#utility.yul\":5554:5555   */\n      0x00\n        /* \"#utility.yul\":5543:5552   */\n      dup4\n        /* \"#utility.yul\":5539:5556   */\n      add\n        /* \"#utility.yul\":5530:5536   */\n      dup5\n        /* \"#utility.yul\":5486:5557   */\n      tag_199\n      jump\t// in\n    tag_300:\n        /* \"#utility.yul\":5342:5564   */\n      swap3\n      swap2\n      pop\n      pop\n      jump\t// out\n        /* \"#utility.yul\":5570:5647   */\n    tag_200:\n        /* \"#utility.yul\":5607:5614   */\n      0x00\n        /* \"#utility.yul\":5636:5641   */\n      dup2\n        /* \"#utility.yul\":5625:5641   */\n      swap1\n      pop\n        /* \"#utility.yul\":5570:5647   */\n      swap2\n      swap1\n      pop\n      jump\t// out\n        /* \"#utility.yul\":5653:5771   */\n    tag_201:\n        /* \"#utility.yul\":5740:5764   */\n      tag_303\n        /* \"#utility.yul\":5758:5763   */\n      dup2\n        /* \"#utility.yul\":5740:5764   */\n      tag_200\n      jump\t// in\n    tag_303:\n        /* \"#utility.yul\":5735:5738   */\n      dup3\n        /* \"#utility.yul\":5728:5765   */\n      mstore\n        /* \"#utility.yul\":5653:5771   */\n      pop\n      pop\n      jump\t// out\n        /* \"#utility.yul\":5777:5876   */\n    tag_202:\n        /* \"#utility.yul\":5829:5835   */\n      0x00\n        /* \"#utility.yul\":5863:5868   */\n      dup2\n        /* \"#utility.yul\":5857:5869   */\n      mload\n        /* \"#utility.yul\":5847:5869   */\n      swap1\n      pop\n        /* \"#utility.yul\":5777:5876   */\n      swap2\n      swap1\n      pop\n      jump\t// out\n        /* \"#utility.yul\":5882:6051   */\n    tag_203:\n        /* \"#utility.yul\":5966:5977   */\n      0x00\n        /* \"#utility.yul\":6000:6006   */\n      dup3\n        /* \"#utility.yul\":5995:5998   */\n      dup3\n        /* \"#utility.yul\":5988:6007   */\n      mstore\n        /* \"#utility.yul\":6040:6044   */\n      0x20\n        /* \"#utility.yul\":6035:6038   */\n      dup3\n        /* \"#utility.yul\":6031:6045   */\n      add\n        /* \"#utility.yul\":6016:6045   */\n      swap1\n      pop\n        /* \"#utility.yul\":5882:6051   */\n      swap3\n      swap2\n      pop\n      pop\n      jump\t// out\n        /* \"#utility.yul\":6057:6196   */\n    tag_204:\n        /* \"#utility.yul\":6146:6152   */\n      dup3\n        /* \"#utility.yul\":6141:6144   */\n      dup2\n        /* \"#utility.yul\":6136:6139   */\n      dup4\n        /* \"#utility.yul\":6130:6153   */\n      mcopy\n        /* \"#utility.yul\":6187:6188   */\n      0x00\n        /* \"#utility.yul\":6178:6184   */\n      dup4\n        /* \"#utility.yul\":6173:6176   */\n      dup4\n        /* \"#utility.yul\":6169:6185   */\n      add\n        /* \"#utility.yul\":6162:6189   */\n      mstore\n        /* \"#utility.yul\":6057:6196   */\n      pop\n      pop\n      pop\n      jump\t// out\n        /* \"#utility.yul\":6202:6579   */\n    tag_205:\n        /* \"#utility.yul\":6290:6293   */\n      0x00\n        /* \"#utility.yul\":6318:6357   */\n      tag_308\n        /* \"#utility.yul\":6351:6356   */\n      dup3\n        /* \"#utility.yul\":6318:6357   */\n      tag_202\n      jump\t// in\n    tag_308:\n        /* \"#utility.yul\":6373:6444   */\n      tag_309\n        /* \"#utility.yul\":6437:6443   */\n      dup2\n        /* \"#utility.yul\":6432:6435   */\n      dup6\n        /* \"#utility.yul\":6373:6444   */\n      tag_203\n      jump\t// in\n    tag_309:\n        /* \"#utility.yul\":6366:6444   */\n      swap4\n      pop\n        /* \"#utility.yul\":6453:6518   */\n      tag_310\n        /* \"#utility.yul\":6511:6517   */\n      dup2\n        /* \"#utility.yul\":6506:6509   */\n      dup6\n        /* \"#utility.yul\":6499:6503   */\n      0x20\n        /* \"#utility.yul\":6492:6497   */\n      dup7\n        /* \"#utility.yul\":6488:6504   */\n      add\n        /* \"#utility.yul\":6453:6518   */\n      tag_204\n      jump\t// in\n    tag_310:\n        /* \"#utility.yul\":6543:6572   */\n      tag_311\n        /* \"#utility.yul\":6565:6571   */\n      dup2\n        /* \"#utility.yul\":6543:6572   */\n      tag_187\n      jump\t// in\n    tag_311:\n        /* \"#utility.yul\":6538:6541   */\n      dup5\n        /* \"#utility.yul\":6534:6573   */\n      add\n        /* \"#utility.yul\":6527:6573   */\n      swap2\n      pop\n        /* \"#utility.yul\":6294:6579   */\n      pop\n        /* \"#utility.yul\":6202:6579   */\n      swap3\n      swap2\n      pop\n      pop\n      jump\t// out\n        /* \"#utility.yul\":6585:7522   */\n    tag_43:\n        /* \"#utility.yul\":6850:6854   */\n      0x00\n        /* \"#utility.yul\":6888:6891   */\n      0xa0\n        /* \"#utility.yul\":6877:6886   */\n      dup3\n        /* \"#utility.yul\":6873:6892   */\n      add\n        /* \"#utility.yul\":6865:6892   */\n      swap1\n      pop\n        /* \"#utility.yul\":6902:6973   */\n      tag_313\n        /* \"#utility.yul\":6970:6971   */\n      0x00\n        /* \"#utility.yul\":6959:6968   */\n      dup4\n        /* \"#utility.yul\":6955:6972   */\n      add\n        /* \"#utility.yul\":6946:6952   */\n      dup9\n        /* \"#utility.yul\":6902:6973   */\n      tag_199\n      jump\t// in\n    tag_313:\n        /* \"#utility.yul\":6983:7055   */\n      tag_314\n        /* \"#utility.yul\":7051:7053   */\n      0x20\n        /* \"#utility.yul\":7040:7049   */\n      dup4\n        /* \"#utility.yul\":7036:7054   */\n      add\n        /* \"#utility.yul\":7027:7033   */\n      dup8\n        /* \"#utility.yul\":6983:7055   */\n      tag_201\n      jump\t// in\n    tag_314:\n        /* \"#utility.yul\":7102:7111   */\n      dup2\n        /* \"#utility.yul\":7096:7100   */\n      dup2\n        /* \"#utility.yul\":7092:7112   */\n      sub\n        /* \"#utility.yul\":7087:7089   */\n      0x40\n        /* \"#utility.yul\":7076:7085   */\n      dup4\n        /* \"#utility.yul\":7072:7090   */\n      add\n        /* \"#utility.yul\":7065:7113   */\n      mstore\n        /* \"#utility.yul\":7130:7208   */\n      tag_315\n        /* \"#utility.yul\":7203:7207   */\n      dup2\n        /* \"#utility.yul\":7194:7200   */\n      dup7\n        /* \"#utility.yul\":7130:7208   */\n      tag_205\n      jump\t// in\n    tag_315:\n        /* \"#utility.yul\":7122:7208   */\n      swap1\n      pop\n        /* \"#utility.yul\":7255:7264   */\n      dup2\n        /* \"#utility.yul\":7249:7253   */\n      dup2\n        /* \"#utility.yul\":7245:7265   */\n      sub\n        /* \"#utility.yul\":7240:7242   */\n      0x60\n        /* \"#utility.yul\":7229:7238   */\n      dup4\n        /* \"#utility.yul\":7225:7243   */\n      add\n        /* \"#utility.yul\":7218:7266   */\n      mstore\n        /* \"#utility.yul\":7283:7361   */\n      tag_316\n        /* \"#utility.yul\":7356:7360   */\n      dup2\n        /* \"#utility.yul\":7347:7353   */\n      dup6\n        /* \"#utility.yul\":7283:7361   */\n      tag_205\n      jump\t// in\n    tag_316:\n        /* \"#utility.yul\":7275:7361   */\n      swap1\n      pop\n        /* \"#utility.yul\":7409:7418   */\n      dup2\n        /* \"#utility.yul\":7403:7407   */\n      dup2\n        /* \"#utility.yul\":7399:7419   */\n      sub\n        /* \"#utility.yul\":7393:7396   */\n      0x80\n        /* \"#utility.yul\":7382:7391   */\n      dup4\n        /* \"#utility.yul\":7378:7397   */\n      add\n        /* \"#utility.yul\":7371:7420   */\n      mstore\n        /* \"#utility.yul\":7437:7515   */\n      tag_317\n        /* \"#utility.yul\":7510:7514   */\n      dup2\n        /* \"#utility.yul\":7501:7507   */\n      dup5\n        /* \"#utility.yul\":7437:7515   */\n      tag_205\n      jump\t// in\n    tag_317:\n        /* \"#utility.yul\":7429:7515   */\n      swap1\n      pop\n        /* \"#utility.yul\":6585:7522   */\n      swap7\n      swap6\n      pop\n      pop\n      pop\n      pop\n      pop\n      pop\n      jump\t// out\n        /* \"#utility.yul\":7528:7750   */\n    tag_48:\n        /* \"#utility.yul\":7621:7625   */\n      0x00\n        /* \"#utility.yul\":7659:7661   */\n      0x20\n        /* \"#utility.yul\":7648:7657   */\n      dup3\n        /* \"#utility.yul\":7644:7662   */\n      add\n        /* \"#utility.yul\":7636:7662   */\n      swap1\n      pop\n        /* \"#utility.yul\":7672:7743   */\n      tag_319\n        /* \"#utility.yul\":7740:7741   */\n      0x00\n        /* \"#utility.yul\":7729:7738   */\n      dup4\n        /* \"#utility.yul\":7725:7742   */\n      add\n        /* \"#utility.yul\":7716:7722   */\n      dup5\n        /* \"#utility.yul\":7672:7743   */\n      tag_201\n      jump\t// in\n    tag_319:\n        /* \"#utility.yul\":7528:7750   */\n      swap3\n      swap2\n      pop\n      pop\n      jump\t// out\n        /* \"#utility.yul\":7756:7878   */\n    tag_206:\n        /* \"#utility.yul\":7829:7853   */\n      tag_321\n        /* \"#utility.yul\":7847:7852   */\n      dup2\n        /* \"#utility.yul\":7829:7853   */\n      tag_198\n      jump\t// in\n    tag_321:\n        /* \"#utility.yul\":7822:7827   */\n      dup2\n        /* \"#utility.yul\":7819:7854   */\n      eq\n        /* \"#utility.yul\":7809:7872   */\n      tag_322\n      jumpi\n        /* \"#utility.yul\":7868:7869   */\n      0x00\n        /* \"#utility.yul\":7865:7866   */\n      dup1\n        /* \"#utility.yul\":7858:7870   */\n      revert\n        /* \"#utility.yul\":7809:7872   */\n    tag_322:\n        /* \"#utility.yul\":7756:7878   */\n      pop\n      jump\t// out\n        /* \"#utility.yul\":7884:8023   */\n    tag_207:\n        /* \"#utility.yul\":7930:7935   */\n      0x00\n        /* \"#utility.yul\":7968:7974   */\n      dup2\n        /* \"#utility.yul\":7955:7975   */\n      calldataload\n        /* \"#utility.yul\":7946:7975   */\n      swap1\n      pop\n        /* \"#utility.yul\":7984:8017   */\n      tag_324\n        /* \"#utility.yul\":8011:8016   */\n      dup2\n        /* \"#utility.yul\":7984:8017   */\n      tag_206\n      jump\t// in\n    tag_324:\n        /* \"#utility.yul\":7884:8023   */\n      swap3\n      swap2\n      pop\n      pop\n      jump\t// out\n        /* \"#utility.yul\":8029:8503   */\n    tag_57:\n        /* \"#utility.yul\":8097:8103   */\n      0x00\n        /* \"#utility.yul\":8105:8111   */\n      dup1\n        /* \"#utility.yul\":8154:8156   */\n      0x40\n        /* \"#utility.yul\":8142:8151   */\n      dup4\n        /* \"#utility.yul\":8133:8140   */\n      dup6\n        /* \"#utility.yul\":8129:8152   */\n      sub\n        /* \"#utility.yul\":8125:8157   */\n      slt\n        /* \"#utility.yul\":8122:8241   */\n      iszero\n      tag_326\n      jumpi\n        /* \"#utility.yul\":8160:8239   */\n      tag_327\n      tag_180\n      jump\t// in\n    tag_327:\n        /* \"#utility.yul\":8122:8241   */\n    tag_326:\n        /* \"#utility.yul\":8280:8281   */\n      0x00\n        /* \"#utility.yul\":8305:8358   */\n      tag_328\n        /* \"#utility.yul\":8350:8357   */\n      dup6\n        /* \"#utility.yul\":8341:8347   */\n      dup3\n        /* \"#utility.yul\":8330:8339   */\n      dup7\n        /* \"#utility.yul\":8326:8348   */\n      add\n        /* \"#utility.yul\":8305:8358   */\n      tag_184\n      jump\t// in\n    tag_328:\n        /* \"#utility.yul\":8295:8358   */\n      swap3\n      pop\n        /* \"#utility.yul\":8251:8368   */\n      pop\n        /* \"#utility.yul\":8407:8409   */\n      0x20\n        /* \"#utility.yul\":8433:8486   */\n      tag_329\n        /* \"#utility.yul\":8478:8485   */\n      dup6\n        /* \"#utility.yul\":8469:8475   */\n      dup3\n        /* \"#utility.yul\":8458:8467   */\n      dup7\n        /* \"#utility.yul\":8454:8476   */\n      add\n        /* \"#utility.yul\":8433:8486   */\n      tag_207\n      jump\t// in\n    tag_329:\n        /* \"#utility.yul\":8423:8486   */\n      swap2\n      pop\n        /* \"#utility.yul\":8378:8496   */\n      pop\n        /* \"#utility.yul\":8029:8503   */\n      swap3\n      pop\n      swap3\n      swap1\n      pop\n      jump\t// out\n        /* \"#utility.yul\":8509:8838   */\n    tag_61:\n        /* \"#utility.yul\":8568:8574   */\n      0x00\n        /* \"#utility.yul\":8617:8619   */\n      0x20\n        /* \"#utility.yul\":8605:8614   */\n      dup3\n        /* \"#utility.yul\":8596:8603   */\n      dup5\n        /* \"#utility.yul\":8592:8615   */\n      sub\n        /* \"#utility.yul\":8588:8620   */\n      slt\n        /* \"#utility.yul\":8585:8704   */\n      iszero\n      tag_331\n      jumpi\n        /* \"#utility.yul\":8623:8702   */\n      tag_332\n      tag_180\n      jump\t// in\n    tag_332:\n        /* \"#utility.yul\":8585:8704   */\n    tag_331:\n        /* \"#utility.yul\":8743:8744   */\n      0x00\n        /* \"#utility.yul\":8768:8821   */\n      tag_333\n        /* \"#utility.yul\":8813:8820   */\n      dup5\n        /* \"#utility.yul\":8804:8810   */\n      dup3\n        /* \"#utility.yul\":8793:8802   */\n      dup6\n        /* \"#utility.yul\":8789:8811   */\n      add\n        /* \"#utility.yul\":8768:8821   */\n      tag_207\n      jump\t// in\n    tag_333:\n        /* \"#utility.yul\":8758:8821   */\n      swap2\n      pop\n        /* \"#utility.yul\":8714:8831   */\n      pop\n        /* \"#utility.yul\":8509:8838   */\n      swap3\n      swap2\n      pop\n      pop\n      jump\t// out\n        /* \"#utility.yul\":8844:9022   */\n    tag_208:\n        /* \"#utility.yul\":8984:9014   */\n      0x446f63756d656e7420616c726561647920726567697374657265642e00000000\n        /* \"#utility.yul\":8980:8981   */\n      0x00\n        /* \"#utility.yul\":8972:8978   */\n      dup3\n        /* \"#utility.yul\":8968:8982   */\n      add\n        /* \"#utility.yul\":8961:9015   */\n      mstore\n        /* \"#utility.yul\":8844:9022   */\n      pop\n      jump\t// out\n        /* \"#utility.yul\":9028:9394   */\n    tag_209:\n        /* \"#utility.yul\":9170:9173   */\n      0x00\n        /* \"#utility.yul\":9191:9258   */\n      tag_336\n        /* \"#utility.yul\":9255:9257   */\n      0x1c\n        /* \"#utility.yul\":9250:9253   */\n      dup4\n        /* \"#utility.yul\":9191:9258   */\n      tag_203\n      jump\t// in\n    tag_336:\n        /* \"#utility.yul\":9184:9258   */\n      swap2\n      pop\n        /* \"#utility.yul\":9267:9360   */\n      tag_337\n        /* \"#utility.yul\":9356:9359   */\n      dup3\n        /* \"#utility.yul\":9267:9360   */\n      tag_208\n      jump\t// in\n    tag_337:\n        /* \"#utility.yul\":9385:9387   */\n      0x20\n        /* \"#utility.yul\":9380:9383   */\n      dup3\n        /* \"#utility.yul\":9376:9388   */\n      add\n        /* \"#utility.yul\":9369:9388   */\n      swap1\n      pop\n        /* \"#utility.yul\":9028:9394   */\n      swap2\n      swap1\n      pop\n      jump\t// out\n        /* \"#utility.yul\":9400:9819   */\n    tag_80:\n        /* \"#utility.yul\":9566:9570   */\n      0x00\n        /* \"#utility.yul\":9604:9606   */\n      0x20\n        /* \"#utility.yul\":9593:9602   */\n      dup3\n        /* \"#utility.yul\":9589:9607   */\n      add\n        /* \"#utility.yul\":9581:9607   */\n      swap1\n      pop\n        /* \"#utility.yul\":9653:9662   */\n      dup2\n        /* \"#utility.yul\":9647:9651   */\n      dup2\n        /* \"#utility.yul\":9643:9663   */\n      sub\n        /* \"#utility.yul\":9639:9640   */\n      0x00\n        /* \"#utility.yul\":9628:9637   */\n      dup4\n        /* \"#utility.yul\":9624:9641   */\n      add\n        /* \"#utility.yul\":9617:9664   */\n      mstore\n        /* \"#utility.yul\":9681:9812   */\n      tag_339\n        /* \"#utility.yul\":9807:9811   */\n      dup2\n        /* \"#utility.yul\":9681:9812   */\n      tag_209\n      jump\t// in\n    tag_339:\n        /* \"#utility.yul\":9673:9812   */\n      swap1\n      pop\n        /* \"#utility.yul\":9400:9819   */\n      swap2\n      swap1\n      pop\n      jump\t// out\n        /* \"#utility.yul\":9825:10005   */\n    tag_210:\n        /* \"#utility.yul\":9873:9950   */\n      0x4e487b7100000000000000000000000000000000000000000000000000000000\n        /* \"#utility.yul\":9870:9871   */\n      0x00\n        /* \"#utility.yul\":9863:9951   */\n      mstore\n        /* \"#utility.yul\":9970:9974   */\n      0x22\n        /* \"#utility.yul\":9967:9968   */\n      0x04\n        /* \"#utility.yul\":9960:9975   */\n      mstore\n        /* \"#utility.yul\":9994:9998   */\n      0x24\n        /* \"#utility.yul\":9991:9992   */\n      0x00\n        /* \"#utility.yul\":9984:9999   */\n      revert\n        /* \"#utility.yul\":10011:10331   */\n    tag_101:\n        /* \"#utility.yul\":10055:10061   */\n      0x00\n        /* \"#utility.yul\":10092:10093   */\n      0x02\n        /* \"#utility.yul\":10086:10090   */\n      dup3\n        /* \"#utility.yul\":10082:10094   */\n      div\n        /* \"#utility.yul\":10072:10094   */\n      swap1\n      pop\n        /* \"#utility.yul\":10139:10140   */\n      0x01\n        /* \"#utility.yul\":10133:10137   */\n      dup3\n        /* \"#utility.yul\":10129:10141   */\n      and\n        /* \"#utility.yul\":10160:10178   */\n      dup1\n        /* \"#utility.yul\":10150:10231   */\n      tag_342\n      jumpi\n        /* \"#utility.yul\":10216:10220   */\n      0x7f\n        /* \"#utility.yul\":10208:10214   */\n      dup3\n        /* \"#utility.yul\":10204:10221   */\n      and\n        /* \"#utility.yul\":10194:10221   */\n      swap2\n      pop\n        /* \"#utility.yul\":10150:10231   */\n    tag_342:\n        /* \"#utility.yul\":10278:10280   */\n      0x20\n        /* \"#utility.yul\":10270:10276   */\n      dup3\n        /* \"#utility.yul\":10267:10281   */\n      lt\n        /* \"#utility.yul\":10247:10265   */\n      dup2\n        /* \"#utility.yul\":10244:10282   */\n      sub\n        /* \"#utility.yul\":10241:10325   */\n      tag_343\n      jumpi\n        /* \"#utility.yul\":10297:10315   */\n      tag_344\n      tag_210\n      jump\t// in\n    tag_344:\n        /* \"#utility.yul\":10241:10325   */\n    tag_343:\n        /* \"#utility.yul\":10062:10331   */\n      pop\n        /* \"#utility.yul\":10011:10331   */\n      swap2\n      swap1\n      pop\n      jump\t// out\n        /* \"#utility.yul\":10337:10478   */\n    tag_211:\n        /* \"#utility.yul\":10386:10390   */\n      0x00\n        /* \"#utility.yul\":10409:10412   */\n      dup2\n        /* \"#utility.yul\":10401:10412   */\n      swap1\n      pop\n        /* \"#utility.yul\":10432:10435   */\n      dup2\n        /* \"#utility.yul\":10429:10430   */\n      0x00\n        /* \"#utility.yul\":10422:10436   */\n      mstore\n        /* \"#utility.yul\":10466:10470   */\n      0x20\n        /* \"#utility.yul\":10463:10464   */\n      0x00\n        /* \"#utility.yul\":10453:10471   */\n      keccak256\n        /* \"#utility.yul\":10445:10471   */\n      swap1\n      pop\n        /* \"#utility.yul\":10337:10478   */\n      swap2\n      swap1\n      pop\n      jump\t// out\n        /* \"#utility.yul\":10484:10577   */\n    tag_212:\n        /* \"#utility.yul\":10521:10527   */\n      0x00\n        /* \"#utility.yul\":10568:10570   */\n      0x20\n        /* \"#utility.yul\":10563:10565   */\n      0x1f\n        /* \"#utility.yul\":10556:10561   */\n      dup4\n        /* \"#utility.yul\":10552:10566   */\n      add\n        /* \"#utility.yul\":10548:10571   */\n      div\n        /* \"#utility.yul\":10538:10571   */\n      swap1\n      pop\n        /* \"#utility.yul\":10484:10577   */\n      swap2\n      swap1\n      pop\n      jump\t// out\n        /* \"#utility.yul\":10583:10690   */\n    tag_213:\n        /* \"#utility.yul\":10627:10635   */\n      0x00\n        /* \"#utility.yul\":10677:10682   */\n      dup3\n        /* \"#utility.yul\":10671:10675   */\n      dup3\n        /* \"#utility.yul\":10667:10683   */\n      shl\n        /* \"#utility.yul\":10646:10683   */\n      swap1\n      pop\n        /* \"#utility.yul\":10583:10690   */\n      swap3\n      swap2\n      pop\n      pop\n      jump\t// out\n        /* \"#utility.yul\":10696:11089   */\n    tag_214:\n        /* \"#utility.yul\":10765:10771   */\n      0x00\n        /* \"#utility.yul\":10815:10816   */\n      0x08\n        /* \"#utility.yul\":10803:10813   */\n      dup4\n        /* \"#utility.yul\":10799:10817   */\n      mul\n        /* \"#utility.yul\":10838:10935   */\n      tag_349\n        /* \"#utility.yul\":10868:10934   */\n      0xffffffffffffffffffffffffffffffffffffffffffffffffffffffffffffffff\n        /* \"#utility.yul\":10857:10866   */\n      dup3\n        /* \"#utility.yul\":10838:10935   */\n      tag_213\n      jump\t// in\n    tag_349:\n        /* \"#utility.yul\":10956:10995   */\n      tag_350\n        /* \"#utility.yul\":10986:10994   */\n      dup7\n        /* \"#utility.yul\":10975:10984   */\n      dup4\n        /* \"#utility.yul\":10956:10995   */\n      tag_213\n      jump\t// in\n    tag_350:\n        /* \"#utility.yul\":10944:10995   */\n      swap6\n      pop\n        /* \"#utility.yul\":11028:11032   */\n      dup1\n        /* \"#utility.yul\":11024:11033   */\n      not\n        /* \"#utility.yul\":11017:11022   */\n      dup5\n        /* \"#utility.yul\":11013:11034   */\n      and\n        /* \"#utility.yul\":11004:11034   */\n      swap4\n      pop\n        /* \"#utility.yul\":11077:11081   */\n      dup1\n        /* \"#utility.yul\":11067:11075   */\n      dup7\n        /* \"#utility.yul\":11063:11082   */\n      and\n        /* \"#utility.yul\":11056:11061   */\n      dup5\n        /* \"#utility.yul\":11053:11083   */\n      or\n        /* \"#utility.yul\":11043:11083   */\n      swap3\n      pop\n        /* \"#utility.yul\":10772:11089   */\n      pop\n      pop\n        /* \"#utility.yul\":10696:11089   */\n      swap4\n      swap3\n      pop\n      pop\n      pop\n      jump\t// out\n        /* \"#utility.yul\":11095:11155   */\n    tag_215:\n        /* \"#utility.yul\":11123:11126   */\n      0x00\n        /* \"#utility.yul\":11144:11149   */\n      dup2\n        /* \"#utility.yul\":11137:11149   */\n      swap1\n      pop\n        /* \"#utility.yul\":11095:11155   */\n      swap2\n      swap1\n      pop\n      jump\t// out\n        /* \"#utility.yul\":11161:11303   */\n    tag_216:\n        /* \"#utility.yul\":11211:11220   */\n      0x00\n        /* \"#utility.yul\":11244:11297   */\n      tag_353\n        /* \"#utility.yul\":11262:11296   */\n      tag_354\n        /* \"#utility.yul\":11271:11295   */\n      tag_355\n        /* \"#utility.yul\":11289:11294   */\n      dup5\n        /* \"#utility.yul\":11271:11295   */\n      tag_200\n      jump\t// in\n    tag_355:\n        /* \"#utility.yul\":11262:11296   */\n      tag_215\n      jump\t// in\n    tag_354:\n        /* \"#utility.yul\":11244:11297   */\n      tag_200\n      jump\t// in\n    tag_353:\n        /* \"#utility.yul\":11231:11297   */\n      swap1\n      pop\n        /* \"#utility.yul\":11161:11303   */\n      swap2\n      swap1\n      pop\n      jump\t// out\n        /* \"#utility.yul\":11309:11384   */\n    tag_217:\n        /* \"#utility.yul\":11352:11355   */\n      0x00\n        /* \"#utility.yul\":11373:11378   */\n      dup2\n        /* \"#utility.yul\":11366:11378   */\n      swap1\n      pop\n        /* \"#utility.yul\":11309:11384   */\n      swap2\n      swap1\n      pop\n      jump\t// out\n        /* \"#utility.yul\":11390:11659   */\n    tag_218:\n        /* \"#utility.yul\":11500:11539   */\n      tag_358\n        /* \"#utility.yul\":11531:11538   */\n      dup4\n        /* \"#utility.yul\":11500:11539   */\n      tag_216\n      jump\t// in\n    tag_358:\n        /* \"#utility.yul\":11561:11652   */\n      tag_359\n        /* \"#utility.yul\":11610:11651   */\n      tag_360\n        /* \"#utility.yul\":11634:11650   */\n      dup3\n        /* \"#utility.yul\":11610:11651   */\n      tag_217\n      jump\t// in\n    tag_360:\n        /* \"#utility.yul\":11602:11608   */\n      dup5\n        /* \"#utility.yul\":11595:11599   */\n      dup5\n        /* \"#utility.yul\":11589:11600   */\n      sload\n        /* \"#utility.yul\":11561:11652   */\n      tag_214\n      jump\t// in\n    tag_359:\n        /* \"#utility.yul\":11555:11559   */\n      dup3\n        /* \"#utility.yul\":11548:11653   */\n      sstore\n        /* \"#utility.yul\":11466:11659   */\n      pop\n        /* \"#utility.yul\":11390:11659   */\n      pop\n      pop\n      pop\n      jump\t// out\n        /* \"#utility.yul\":11665:11738   */\n    tag_219:\n        /* \"#utility.yul\":11710:11713   */\n      0x00\n        /* \"#utility.yul\":11665:11738   */\n      swap1\n      jump\t// out\n        /* \"#utility.yul\":11744:11933   */\n    tag_220:\n        /* \"#utility.yul\":11821:11853   */\n      tag_363\n      tag_219\n      jump\t// in\n    tag_363:\n        /* \"#utility.yul\":11862:11927   */\n      tag_364\n        /* \"#utility.yul\":11920:11926   */\n      dup2\n        /* \"#utility.yul\":11912:11918   */\n      dup5\n        /* \"#utility.yul\":11906:11910   */\n      dup5\n        /* \"#utility.yul\":11862:11927   */\n      tag_218\n      jump\t// in\n    tag_364:\n        /* \"#utility.yul\":11797:11933   */\n      pop\n        /* \"#utility.yul\":11744:11933   */\n      pop\n      pop\n      jump\t// out\n        /* \"#utility.yul\":11939:12125   */\n    tag_221:\n        /* \"#utility.yul\":11999:12119   */\n    tag_366:\n        /* \"#utility.yul\":12016:12019   */\n      dup2\n        /* \"#utility.yul\":12009:12014   */\n      dup2\n        /* \"#utility.yul\":12006:12020   */\n      lt\n        /* \"#utility.yul\":11999:12119   */\n      iszero\n      tag_368\n      jumpi\n        /* \"#utility.yul\":12070:12109   */\n      tag_369\n        /* \"#utility.yul\":12107:12108   */\n      0x00\n        /* \"#utility.yul\":12100:12105   */\n      dup3\n        /* \"#utility.yul\":12070:12109   */\n      tag_220\n      jump\t// in\n    tag_369:\n        /* \"#utility.yul\":12043:12044   */\n      0x01\n        /* \"#utility.yul\":12036:12041   */\n      dup2\n        /* \"#utility.yul\":12032:12045   */\n      add\n        /* \"#utility.yul\":12023:12045   */\n      swap1\n      pop\n        /* \"#utility.yul\":11999:12119   */\n      jump(tag_366)\n    tag_368:\n        /* \"#utility.yul\":11939:12125   */\n      pop\n      pop\n      jump\t// out\n        /* \"#utility.yul\":12131:12674   */\n    tag_222:\n        /* \"#utility.yul\":12232:12234   */\n      0x1f\n        /* \"#utility.yul\":12227:12230   */\n      dup3\n        /* \"#utility.yul\":12224:12235   */\n      gt\n        /* \"#utility.yul\":12221:12667   */\n      iszero\n      tag_371\n      jumpi\n        /* \"#utility.yul\":12266:12304   */\n      tag_372\n        /* \"#utility.yul\":12298:12303   */\n      dup2\n        /* \"#utility.yul\":12266:12304   */\n      tag_211\n      jump\t// in\n    tag_372:\n        /* \"#utility.yul\":12350:12379   */\n      tag_373\n        /* \"#utility.yul\":12368:12378   */\n      dup5\n        /* \"#utility.yul\":12350:12379   */\n      tag_212\n      jump\t// in\n    tag_373:\n        /* \"#utility.yul\":12340:12348   */\n      dup2\n        /* \"#utility.yul\":12336:12380   */\n      add\n        /* \"#utility.yul\":12533:12535   */\n      0x20\n        /* \"#utility.yul\":12521:12531   */\n      dup6\n        /* \"#utility.yul\":12518:12536   */\n      lt\n        /* \"#utility.yul\":12515:12564   */\n      iszero\n      tag_374\n      jumpi\n        /* \"#utility.yul\":12554:12562   */\n      dup2\n        /* \"#utility.yul\":12539:12562   */\n      swap1\n      pop\n        /* \"#utility.yul\":12515:12564   */\n    tag_374:\n        /* \"#utility.yul\":12577:12657   */\n      tag_375\n        /* \"#utility.yul\":12633:12655   */\n      tag_376\n        /* \"#utility.yul\":12651:12654   */\n      dup6\n        /* \"#utility.yul\":12633:12655   */\n      tag_212\n      jump\t// in\n    tag_376:\n        /* \"#utility.yul\":12623:12631   */\n      dup4\n        /* \"#utility.yul\":12619:12656   */\n      add\n        /* \"#utility.yul\":12606:12617   */\n      dup3\n        /* \"#utility.yul\":12577:12657   */\n      tag_221\n      jump\t// in\n    tag_375:\n        /* \"#utility.yul\":12236:12667   */\n      pop\n      pop\n        /* \"#utility.yul\":12221:12667   */\n    tag_371:\n        /* \"#utility.yul\":12131:12674   */\n      pop\n      pop\n      pop\n      jump\t// out\n        /* \"#utility.yul\":12680:12797   */\n    tag_223:\n        /* \"#utility.yul\":12734:12742   */\n      0x00\n        /* \"#utility.yul\":12784:12789   */\n      dup3\n        /* \"#utility.yul\":12778:12782   */\n      dup3\n        /* \"#utility.yul\":12774:12790   */\n      shr\n        /* \"#utility.yul\":12753:12790   */\n      swap1\n      pop\n        /* \"#utility.yul\":12680:12797   */\n      swap3\n      swap2\n      pop\n      pop\n      jump\t// out\n        /* \"#utility.yul\":12803:12972   */\n    tag_224:\n        /* \"#utility.yul\":12847:12853   */\n      0x00\n        /* \"#utility.yul\":12880:12931   */\n      tag_379\n        /* \"#utility.yul\":12928:12929   */\n      0x00\n        /* \"#utility.yul\":12924:12930   */\n      not\n        /* \"#utility.yul\":12916:12921   */\n      dup5\n        /* \"#utility.yul\":12913:12914   */\n      0x08\n        /* \"#utility.yul\":12909:12922   */\n      mul\n        /* \"#utility.yul\":12880:12931   */\n      tag_223\n      jump\t// in\n    tag_379:\n        /* \"#utility.yul\":12876:12932   */\n      not\n        /* \"#utility.yul\":12961:12965   */\n      dup1\n        /* \"#utility.yul\":12955:12959   */\n      dup4\n        /* \"#utility.yul\":12951:12966   */\n      and\n        /* \"#utility.yul\":12941:12966   */\n      swap2\n      pop\n        /* \"#utility.yul\":12854:12972   */\n      pop\n        /* \"#utility.yul\":12803:12972   */\n      swap3\n      swap2\n      pop\n      pop\n      jump\t// out\n        /* \"#utility.yul\":12977:13272   */\n    tag_225:\n        /* \"#utility.yul\":13053:13057   */\n      0x00\n        /* \"#utility.yul\":13199:13228   */\n      tag_381\n        /* \"#utility.yul\":13224:13227   */\n      dup4\n        /* \"#utility.yul\":13218:13222   */\n      dup4\n        /* \"#utility.yul\":13199:13228   */\n      tag_224\n      jump\t// in\n    tag_381:\n        /* \"#utility.yul\":13191:13228   */\n      swap2\n      pop\n        /* \"#utility.yul\":13261:13264   */\n      dup3\n        /* \"#utility.yul\":13258:13259   */\n      0x02\n        /* \"#utility.yul\":13254:13265   */\n      mul\n        /* \"#utility.yul\":13248:13252   */\n      dup3\n        /* \"#utility.yul\":13245:13266   */\n      or\n        /* \"#utility.yul\":13237:13266   */\n      swap1\n      pop\n        /* \"#utility.yul\":12977:13272   */\n      swap3\n      swap2\n      pop\n      pop\n      jump\t// out\n        /* \"#utility.yul\":13277:14672   */\n    tag_82:\n        /* \"#utility.yul\":13394:13431   */\n      tag_383\n        /* \"#utility.yul\":13427:13430   */\n      dup3\n        /* \"#utility.yul\":13394:13431   */\n      tag_202\n      jump\t// in\n    tag_383:\n        /* \"#utility.yul\":13496:13514   */\n      0xffffffffffffffff\n        /* \"#utility.yul\":13488:13494   */\n      dup2\n        /* \"#utility.yul\":13485:13515   */\n      gt\n        /* \"#utility.yul\":13482:13538   */\n      iszero\n      tag_384\n      jumpi\n        /* \"#utility.yul\":13518:13536   */\n      tag_385\n      tag_188\n      jump\t// in\n    tag_385:\n        /* \"#utility.yul\":13482:13538   */\n    tag_384:\n        /* \"#utility.yul\":13562:13600   */\n      tag_386\n        /* \"#utility.yul\":13594:13598   */\n      dup3\n        /* \"#utility.yul\":13588:13599   */\n      sload\n        /* \"#utility.yul\":13562:13600   */\n      tag_101\n      jump\t// in\n    tag_386:\n        /* \"#utility.yul\":13647:13714   */\n      tag_387\n        /* \"#utility.yul\":13707:13713   */\n      dup3\n        /* \"#utility.yul\":13699:13705   */\n      dup3\n        /* \"#utility.yul\":13693:13697   */\n      dup6\n        /* \"#utility.yul\":13647:13714   */\n      tag_222\n      jump\t// in\n    tag_387:\n        /* \"#utility.yul\":13741:13742   */\n      0x00\n        /* \"#utility.yul\":13765:13769   */\n      0x20\n        /* \"#utility.yul\":13752:13769   */\n      swap1\n      pop\n        /* \"#utility.yul\":13797:13799   */\n      0x1f\n        /* \"#utility.yul\":13789:13795   */\n      dup4\n        /* \"#utility.yul\":13786:13800   */\n      gt\n        /* \"#utility.yul\":13814:13815   */\n      0x01\n        /* \"#utility.yul\":13809:14427   */\n      dup2\n      eq\n      tag_389\n      jumpi\n        /* \"#utility.yul\":14471:14472   */\n      0x00\n        /* \"#utility.yul\":14488:14494   */\n      dup5\n        /* \"#utility.yul\":14485:14562   */\n      iszero\n      tag_390\n      jumpi\n        /* \"#utility.yul\":14537:14546   */\n      dup3\n        /* \"#utility.yul\":14532:14535   */\n      dup8\n        /* \"#utility.yul\":14528:14547   */\n      add\n        /* \"#utility.yul\":14522:14548   */\n      mload\n        /* \"#utility.yul\":14513:14548   */\n      swap1\n      pop\n        /* \"#utility.yul\":14485:14562   */\n    tag_390:\n        /* \"#utility.yul\":14588:14655   */\n      tag_391\n        /* \"#utility.yul\":14648:14654   */\n      dup6\n        /* \"#utility.yul\":14641:14646   */\n      dup3\n        /* \"#utility.yul\":14588:14655   */\n      tag_225\n      jump\t// in\n    tag_391:\n        /* \"#utility.yul\":14582:14586   */\n      dup7\n        /* \"#utility.yul\":14575:14656   */\n      sstore\n        /* \"#utility.yul\":14444:14666   */\n      pop\n        /* \"#utility.yul\":13779:14666   */\n      jump(tag_388)\n        /* \"#utility.yul\":13809:14427   */\n    tag_389:\n        /* \"#utility.yul\":13861:13865   */\n      0x1f\n        /* \"#utility.yul\":13857:13866   */\n      not\n        /* \"#utility.yul\":13849:13855   */\n      dup5\n        /* \"#utility.yul\":13845:13867   */\n      and\n        /* \"#utility.yul\":13895:13932   */\n      tag_392\n        /* \"#utility.yul\":13927:13931   */\n      dup7\n        /* \"#utility.yul\":13895:13932   */\n      tag_211\n      jump\t// in\n    tag_392:\n        /* \"#utility.yul\":13954:13955   */\n      0x00\n        /* \"#utility.yul\":13968:14176   */\n    tag_393:\n        /* \"#utility.yul\":13982:13989   */\n      dup3\n        /* \"#utility.yul\":13979:13980   */\n      dup2\n        /* \"#utility.yul\":13976:13990   */\n      lt\n        /* \"#utility.yul\":13968:14176   */\n      iszero\n      tag_395\n      jumpi\n        /* \"#utility.yul\":14061:14070   */\n      dup5\n        /* \"#utility.yul\":14056:14059   */\n      dup10\n        /* \"#utility.yul\":14052:14071   */\n      add\n        /* \"#utility.yul\":14046:14072   */\n      mload\n        /* \"#utility.yul\":14038:14044   */\n      dup3\n        /* \"#utility.yul\":14031:14073   */\n      sstore\n        /* \"#utility.yul\":14112:14113   */\n      0x01\n        /* \"#utility.yul\":14104:14110   */\n      dup3\n        /* \"#utility.yul\":14100:14114   */\n      add\n        /* \"#utility.yul\":14090:14114   */\n      swap2\n      pop\n        /* \"#utility.yul\":14159:14161   */\n      0x20\n        /* \"#utility.yul\":14148:14157   */\n      dup6\n        /* \"#utility.yul\":14144:14162   */\n      add\n        /* \"#utility.yul\":14131:14162   */\n      swap5\n      pop\n        /* \"#utility.yul\":14005:14009   */\n      0x20\n        /* \"#utility.yul\":14002:14003   */\n      dup2\n        /* \"#utility.yul\":13998:14010   */\n      add\n        /* \"#utility.yul\":13993:14010   */\n      swap1\n      pop\n        /* \"#utility.yul\":13968:14176   */\n      jump(tag_393)\n    tag_395:\n        /* \"#utility.yul\":14204:14210   */\n      dup7\n        /* \"#utility.yul\":14195:14202   */\n      dup4\n        /* \"#utility.yul\":14192:14211   */\n      lt\n        /* \"#utility.yul\":14189:14368   */\n      iszero\n      tag_396\n      jumpi\n        /* \"#utility.yul\":14262:14271   */\n      dup5\n        /* \"#utility.yul\":14257:14260   */\n      dup10\n        /* \"#utility.yul\":14253:14272   */\n      add\n        /* \"#utility.yul\":14247:14273   */\n      mload\n        /* \"#utility.yul\":14305:14353   */\n      tag_397\n        /* \"#utility.yul\":14347:14351   */\n      0x1f\n        /* \"#utility.yul\":14339:14345   */\n      dup10\n        /* \"#utility.yul\":14335:14352   */\n      and\n        /* \"#utility.yul\":14324:14333   */\n      dup3\n        /* \"#utility.yul\":14305:14353   */\n      tag_224\n      jump\t// in\n    tag_397:\n        /* \"#utility.yul\":14297:14303   */\n      dup4\n        /* \"#utility.yul\":14290:14354   */\n      sstore\n        /* \"#utility.yul\":14212:14368   */\n      pop\n        /* \"#utility.yul\":14189:14368   */\n    tag_396:\n        /* \"#utility.yul\":14414:14415   */\n      0x01\n        /* \"#utility.yul\":14410:14411   */\n      0x02\n        /* \"#utility.yul\":14402:14408   */\n      dup9\n        /* \"#utility.yul\":14398:14412   */\n      mul\n        /* \"#utility.yul\":14394:14416   */\n      add\n        /* \"#utility.yul\":14388:14392   */\n      dup9\n        /* \"#utility.yul\":14381:14417   */\n      sstore\n        /* \"#utility.yul\":13816:14427   */\n      pop\n      pop\n      pop\n        /* \"#utility.yul\":13779:14666   */\n    tag_388:\n      pop\n        /* \"#utility.yul\":13369:14672   */\n      pop\n      pop\n      pop\n        /* \"#utility.yul\":13277:14672   */\n      pop\n      pop\n      jump\t// out\n        /* \"#utility.yul\":14678:15393   */\n    tag_86:\n        /* \"#utility.yul\":14887:14891   */\n      0x00\n        /* \"#utility.yul\":14925:14927   */\n      0x60\n        /* \"#utility.yul\":14914:14923   */\n      dup3\n        /* \"#utility.yul\":14910:14928   */\n      add\n        /* \"#utility.yul\":14902:14928   */\n      swap1\n      pop\n        /* \"#utility.yul\":14974:14983   */\n      dup2\n        /* \"#utility.yul\":14968:14972   */\n      dup2\n        /* \"#utility.yul\":14964:14984   */\n      sub\n        /* \"#utility.yul\":14960:14961   */\n      0x00\n        /* \"#utility.yul\":14949:14958   */\n      dup4\n        /* \"#utility.yul\":14945:14962   */\n      add\n        /* \"#utility.yul\":14938:14985   */\n      mstore\n        /* \"#utility.yul\":15002:15080   */\n      tag_399\n        /* \"#utility.yul\":15075:15079   */\n      dup2\n        /* \"#utility.yul\":15066:15072   */\n      dup7\n        /* \"#utility.yul\":15002:15080   */\n      tag_205\n      jump\t// in\n    tag_399:\n        /* \"#utility.yul\":14994:15080   */\n      swap1\n      pop\n        /* \"#utility.yul\":15127:15136   */\n      dup2\n        /* \"#utility.yul\":15121:15125   */\n      dup2\n        /* \"#utility.yul\":15117:15137   */\n      sub\n        /* \"#utility.yul\":15112:15114   */\n      0x20\n        /* \"#utility.yul\":15101:15110   */\n      dup4\n        /* \"#utility.yul\":15097:15115   */\n      add\n        /* \"#utility.yul\":15090:15138   */\n      mstore\n        /* \"#utility.yul\":15155:15233   */\n      tag_400\n        /* \"#utility.yul\":15228:15232   */\n      dup2\n        /* \"#utility.yul\":15219:15225   */\n      dup6\n        /* \"#utility.yul\":15155:15233   */\n      tag_205\n      jump\t// in\n    tag_400:\n        /* \"#utility.yul\":15147:15233   */\n      swap1\n      pop\n        /* \"#utility.yul\":15280:15289   */\n      dup2\n        /* \"#utility.yul\":15274:15278   */\n      dup2\n        /* \"#utility.yul\":15270:15290   */\n      sub\n        /* \"#utility.yul\":15265:15267   */\n      0x40\n        /* \"#utility.yul\":15254:15263   */\n      dup4\n        /* \"#utility.yul\":15250:15268   */\n      add\n        /* \"#utility.yul\":15243:15291   */\n      mstore\n        /* \"#utility.yul\":15308:15386   */\n      tag_401\n        /* \"#utility.yul\":15381:15385   */\n      dup2\n        /* \"#utility.yul\":15372:15378   */\n      dup5\n        /* \"#utility.yul\":15308:15386   */\n      tag_205\n      jump\t// in\n    tag_401:\n        /* \"#utility.yul\":15300:15386   */\n      swap1\n      pop\n        /* \"#utility.yul\":14678:15393   */\n      swap5\n      swap4\n      pop\n      pop\n      pop\n      pop\n      jump\t// out\n        /* \"#utility.yul\":15399:15568   */\n    tag_226:\n        /* \"#utility.yul\":15539:15560   */\n      0x446f63756d656e74206e6f7420666f756e642e00000000000000000000000000\n        /* \"#utility.yul\":15535:15536   */\n      0x00\n        /* \"#utility.yul\":15527:15533   */\n      dup3\n        /* \"#utility.yul\":15523:15537   */\n      add\n        /* \"#utility.yul\":15516:15561   */\n      mstore\n        /* \"#utility.yul\":15399:15568   */\n      pop\n      jump\t// out\n        /* \"#utility.yul\":15574:15940   */\n    tag_227:\n        /* \"#utility.yul\":15716:15719   */\n      0x00\n        /* \"#utility.yul\":15737:15804   */\n      tag_404\n        /* \"#utility.yul\":15801:15803   */\n      0x13\n        /* \"#utility.yul\":15796:15799   */\n      dup4\n        /* \"#utility.yul\":15737:15804   */\n      tag_203\n      jump\t// in\n    tag_404:\n        /* \"#utility.yul\":15730:15804   */\n      swap2\n      pop\n        /* \"#utility.yul\":15813:15906   */\n      tag_405\n        /* \"#utility.yul\":15902:15905   */\n      dup3\n        /* \"#utility.yul\":15813:15906   */\n      tag_226\n      jump\t// in\n    tag_405:\n        /* \"#utility.yul\":15931:15933   */\n      0x20\n        /* \"#utility.yul\":15926:15929   */\n      dup3\n        /* \"#utility.yul\":15922:15934   */\n      add\n        /* \"#utility.yul\":15915:15934   */\n      swap1\n      pop\n        /* \"#utility.yul\":15574:15940   */\n      swap2\n      swap1\n      pop\n      jump\t// out\n        /* \"#utility.yul\":15946:16365   */\n    tag_99:\n        /* \"#utility.yul\":16112:16116   */\n      0x00\n        /* \"#utility.yul\":16150:16152   */\n      0x20\n        /* \"#utility.yul\":16139:16148   */\n      dup3\n        /* \"#utility.yul\":16135:16153   */\n      add\n        /* \"#utility.yul\":16127:16153   */\n      swap1\n      pop\n        /* \"#utility.yul\":16199:16208   */\n      dup2\n        /* \"#utility.yul\":16193:16197   */\n      dup2\n        /* \"#utility.yul\":16189:16209   */\n      sub\n        /* \"#utility.yul\":16185:16186   */\n      0x00\n        /* \"#utility.yul\":16174:16183   */\n      dup4\n        /* \"#utility.yul\":16170:16187   */\n      add\n        /* \"#utility.yul\":16163:16210   */\n      mstore\n        /* \"#utility.yul\":16227:16358   */\n      tag_407\n        /* \"#utility.yul\":16353:16357   */\n      dup2\n        /* \"#utility.yul\":16227:16358   */\n      tag_227\n      jump\t// in\n    tag_407:\n        /* \"#utility.yul\":16219:16358   */\n      swap1\n      pop\n        /* \"#utility.yul\":15946:16365   */\n      swap2\n      swap1\n      pop\n      jump\t// out\n        /* \"#utility.yul\":16371:16596   */\n    tag_228:\n        /* \"#utility.yul\":16511:16545   */\n      0x4f6e6c7920746865206f776e65722063616e207472616e73666572206f776e65\n        /* \"#utility.yul\":16507:16508   */\n      0x00\n        /* \"#utility.yul\":16499:16505   */\n      dup3\n        /* \"#utility.yul\":16495:16509   */\n      add\n        /* \"#utility.yul\":16488:16546   */\n      mstore\n        /* \"#utility.yul\":16580:16588   */\n      0x72736869702e0000000000000000000000000000000000000000000000000000\n        /* \"#utility.yul\":16575:16577   */\n      0x20\n        /* \"#utility.yul\":16567:16573   */\n      dup3\n        /* \"#utility.yul\":16563:16578   */\n      add\n        /* \"#utility.yul\":16556:16589   */\n      mstore\n        /* \"#utility.yul\":16371:16596   */\n      pop\n      jump\t// out\n        /* \"#utility.yul\":16602:16968   */\n    tag_229:\n        /* \"#utility.yul\":16744:16747   */\n      0x00\n        /* \"#utility.yul\":16765:16832   */\n      tag_410\n        /* \"#utility.yul\":16829:16831   */\n      0x26\n        /* \"#utility.yul\":16824:16827   */\n      dup4\n        /* \"#utility.yul\":16765:16832   */\n      tag_203\n      jump\t// in\n    tag_410:\n        /* \"#utility.yul\":16758:16832   */\n      swap2\n      pop\n        /* \"#utility.yul\":16841:16934   */\n      tag_411\n        /* \"#utility.yul\":16930:16933   */\n      dup3\n        /* \"#utility.yul\":16841:16934   */\n      tag_228\n      jump\t// in\n    tag_411:\n        /* \"#utility.yul\":16959:16961   */\n      0x40\n        /* \"#utility.yul\":16954:16957   */\n      dup3\n        /* \"#utility.yul\":16950:16962   */\n      add\n        /* \"#utility.yul\":16943:16962   */\n      swap1\n      pop\n        /* \"#utility.yul\":16602:16968   */\n      swap2\n      swap1\n      pop\n      jump\t// out\n        /* \"#utility.yul\":16974:17393   */\n    tag_137:\n        /* \"#utility.yul\":17140:17144   */\n      0x00\n        /* \"#utility.yul\":17178:17180   */\n      0x20\n        /* \"#utility.yul\":17167:17176   */\n      dup3\n        /* \"#utility.yul\":17163:17181   */\n      add\n        /* \"#utility.yul\":17155:17181   */\n      swap1\n      pop\n        /* \"#utility.yul\":17227:17236   */\n      dup2\n        /* \"#utility.yul\":17221:17225   */\n      dup2\n        /* \"#utility.yul\":17217:17237   */\n      sub\n        /* \"#utility.yul\":17213:17214   */\n      0x00\n        /* \"#utility.yul\":17202:17211   */\n      dup4\n        /* \"#utility.yul\":17198:17215   */\n      add\n        /* \"#utility.yul\":17191:17238   */\n      mstore\n        /* \"#utility.yul\":17255:17386   */\n      tag_413\n        /* \"#utility.yul\":17381:17385   */\n      dup2\n        /* \"#utility.yul\":17255:17386   */\n      tag_229\n      jump\t// in\n    tag_413:\n        /* \"#utility.yul\":17247:17386   */\n      swap1\n      pop\n        /* \"#utility.yul\":16974:17393   */\n      swap2\n      swap1\n      pop\n      jump\t// out\n        /* \"#utility.yul\":17399:17623   */\n    tag_230:\n        /* \"#utility.yul\":17539:17573   */\n      0x4e6577206f776e65722063616e6e6f7420626520746865207a65726f20616464\n        /* \"#utility.yul\":17535:17536   */\n      0x00\n        /* \"#utility.yul\":17527:17533   */\n      dup3\n        /* \"#utility.yul\":17523:17537   */\n      add\n        /* \"#utility.yul\":17516:17574   */\n      mstore\n        /* \"#utility.yul\":17608:17615   */\n      0x726573732e000000000000000000000000000000000000000000000000000000\n        /* \"#utility.yul\":17603:17605   */\n      0x20\n        /* \"#utility.yul\":17595:17601   */\n      dup3\n        /* \"#utility.yul\":17591:17606   */\n      add\n        /* \"#utility.yul\":17584:17616   */\n      mstore\n        /* \"#utility.yul\":17399:17623   */\n      pop\n      jump\t// out\n        /* \"#utility.yul\":17629:17995   */\n    tag_231:\n        /* \"#utility.yul\":17771:17774   */\n      0x00\n        /* \"#utility.yul\":17792:17859   */\n      tag_416\n        /* \"#utility.yul\":17856:17858   */\n      0x25\n        /* \"#utility.yul\":17851:17854   */\n      dup4\n        /* \"#utility.yul\":17792:17859   */\n      tag_203\n      jump\t// in\n    tag_416:\n        /* \"#utility.yul\":17785:17859   */\n      swap2\n      pop\n        /* \"#utility.yul\":17868:17961   */\n      tag_417\n        /* \"#utility.yul\":17957:17960   */\n      dup3\n        /* \"#utility.yul\":17868:17961   */\n      tag_230\n      jump\t// in\n    tag_417:\n        /* \"#utility.yul\":17986:17988   */\n      0x40\n        /* \"#utility.yul\":17981:17984   */\n      dup3\n        /* \"#utility.yul\":17977:17989   */\n      add\n        /* \"#utility.yul\":17970:17989   */\n      swap1\n      pop\n        /* \"#utility.yul\":17629:17995   */\n      swap2\n      swap1\n      pop\n      jump\t// out\n        /* \"#utility.yul\":18001:18420   */\n    tag_140:\n        /* \"#utility.yul\":18167:18171   */\n      0x00\n        /* \"#utility.yul\":18205:18207   */\n      0x20\n        /* \"#utility.yul\":18194:18203   */\n      dup3\n        /* \"#utility.yul\":18190:18208   */\n      add\n        /* \"#utility.yul\":18182:18208   */\n      swap1\n      pop\n        /* \"#utility.yul\":18254:18263   */\n      dup2\n        /* \"#utility.yul\":18248:18252   */\n      dup2\n        /* \"#utility.yul\":18244:18264   */\n      sub\n        /* \"#utility.yul\":18240:18241   */\n      0x00\n        /* \"#utility.yul\":18229:18238   */\n      dup4\n        /* \"#utility.yul\":18225:18242   */\n      add\n        /* \"#utility.yul\":18218:18265   */\n      mstore\n        /* \"#utility.yul\":18282:18413   */\n      tag_419\n        /* \"#utility.yul\":18408:18412   */\n      dup2\n        /* \"#utility.yul\":18282:18413   */\n      tag_231\n      jump\t// in\n    tag_419:\n        /* \"#utility.yul\":18274:18413   */\n      swap1\n      pop\n        /* \"#utility.yul\":18001:18420   */\n      swap2\n      swap1\n      pop\n      jump\t// out\n        /* \"#utility.yul\":18426:18592   */\n    tag_232:\n        /* \"#utility.yul\":18566:18584   */\n      0x5061757361626c653a2070617573656400000000000000000000000000000000\n        /* \"#utility.yul\":18562:18563   */\n      0x00\n        /* \"#utility.yul\":18554:18560   */\n      dup3\n        /* \"#utility.yul\":18550:18564   */\n      add\n        /* \"#utility.yul\":18543:18585   */\n      mstore\n        /* \"#utility.yul\":18426:18592   */\n      pop\n      jump\t// out\n        /* \"#utility.yul\":18598:18964   */\n    tag_233:\n        /* \"#utility.yul\":18740:18743   */\n      0x00\n        /* \"#utility.yul\":18761:18828   */\n      tag_422\n        /* \"#utility.yul\":18825:18827   */\n      0x10\n        /* \"#utility.yul\":18820:18823   */\n      dup4\n        /* \"#utility.yul\":18761:18828   */\n      tag_203\n      jump\t// in\n    tag_422:\n        /* \"#utility.yul\":18754:18828   */\n      swap2\n      pop\n        /* \"#utility.yul\":18837:18930   */\n      tag_423\n        /* \"#utility.yul\":18926:18929   */\n      dup3\n        /* \"#utility.yul\":18837:18930   */\n      tag_232\n      jump\t// in\n    tag_423:\n        /* \"#utility.yul\":18955:18957   */\n      0x20\n        /* \"#utility.yul\":18950:18953   */\n      dup3\n        /* \"#utility.yul\":18946:18958   */\n      add\n        /* \"#utility.yul\":18939:18958   */\n      swap1\n      pop\n        /* \"#utility.yul\":18598:18964   */\n      swap2\n      swap1\n      pop\n      jump\t// out\n        /* \"#utility.yul\":18970:19389   */\n    tag_165:\n        /* \"#utility.yul\":19136:19140   */\n      0x00\n        /* \"#utility.yul\":19174:19176   */\n      0x20\n        /* \"#utility.yul\":19163:19172   */\n      dup3\n        /* \"#utility.yul\":19159:19177   */\n      add\n        /* \"#utility.yul\":19151:19177   */\n      swap1\n      pop\n        /* \"#utility.yul\":19223:19232   */\n      dup2\n        /* \"#utility.yul\":19217:19221   */\n      dup2\n        /* \"#utility.yul\":19213:19233   */\n      sub\n        /* \"#utility.yul\":19209:19210   */\n      0x00\n        /* \"#utility.yul\":19198:19207   */\n      dup4\n        /* \"#utility.yul\":19194:19211   */\n      add\n        /* \"#utility.yul\":19187:19234   */\n      mstore\n        /* \"#utility.yul\":19251:19382   */\n      tag_425\n        /* \"#utility.yul\":19377:19381   */\n      dup2\n        /* \"#utility.yul\":19251:19382   */\n      tag_233\n      jump\t// in\n    tag_425:\n        /* \"#utility.yul\":19243:19382   */\n      swap1\n      pop\n        /* \"#utility.yul\":18970:19389   */\n      swap2\n      swap1\n      pop\n      jump\t// out\n        /* \"#utility.yul\":19395:19565   */\n    tag_234:\n        /* \"#utility.yul\":19535:19557   */\n      0x5061757361626c653a206e6f7420706175736564000000000000000000000000\n        /* \"#utility.yul\":19531:19532   */\n      0x00\n        /* \"#utility.yul\":19523:19529   */\n      dup3\n        /* \"#utility.yul\":19519:19533   */\n      add\n        /* \"#utility.yul\":19512:19558   */\n      mstore\n        /* \"#utility.yul\":19395:19565   */\n      pop\n      jump\t// out\n        /* \"#utility.yul\":19571:19937   */\n    tag_235:\n        /* \"#utility.yul\":19713:19716   */\n      0x00\n        /* \"#utility.yul\":19734:19801   */\n      tag_428\n        /* \"#utility.yul\":19798:19800   */\n      0x14\n        /* \"#utility.yul\":19793:19796   */\n      dup4\n        /* \"#utility.yul\":19734:19801   */\n      tag_203\n      jump\t// in\n    tag_428:\n        /* \"#utility.yul\":19727:19801   */\n      swap2\n      pop\n        /* \"#utility.yul\":19810:19903   */\n      tag_429\n        /* \"#utility.yul\":19899:19902   */\n      dup3\n        /* \"#utility.yul\":19810:19903   */\n      tag_234\n      jump\t// in\n    tag_429:\n        /* \"#utility.yul\":19928:19930   */\n      0x20\n        /* \"#utility.yul\":19923:19926   */\n      dup3\n        /* \"#utility.yul\":19919:19931   */\n      add\n        /* \"#utility.yul\":19912:19931   */\n      swap1\n      pop\n        /* \"#utility.yul\":19571:19937   */\n      swap2\n      swap1\n      pop\n      jump\t// out\n        /* \"#utility.yul\":19943:20362   */\n    tag_178:\n        /* \"#utility.yul\":20109:20113   */\n      0x00\n        /* \"#utility.yul\":20147:20149   */\n      0x20\n        /* \"#utility.yul\":20136:20145   */\n      dup3\n        /* \"#utility.yul\":20132:20150   */\n      add\n        /* \"#utility.yul\":20124:20150   */\n      swap1\n      pop\n        /* \"#utility.yul\":20196:20205   */\n      dup2\n        /* \"#utility.yul\":20190:20194   */\n      dup2\n        /* \"#utility.yul\":20186:20206   */\n      sub\n        /* \"#utility.yul\":20182:20183   */\n      0x00\n        /* \"#utility.yul\":20171:20180   */\n      dup4\n        /* \"#utility.yul\":20167:20184   */\n      add\n        /* \"#utility.yul\":20160:20207   */\n      mstore\n        /* \"#utility.yul\":20224:20355   */\n      tag_431\n        /* \"#utility.yul\":20350:20354   */\n      dup2\n        /* \"#utility.yul\":20224:20355   */\n      tag_235\n      jump\t// in\n    tag_431:\n        /* \"#utility.yul\":20216:20355   */\n      swap1\n      pop\n        /* \"#utility.yul\":19943:20362   */\n      swap2\n      swap1\n      pop\n      jump\t// out\n\n    auxdata: 0xa2646970667358221220af046ef16d644c9e34b3e2b4ac5b5293ed89ba1db8496e465f24ff7899f6e6e264736f6c634300081a0033\n}\n",
				"bytecode": {
					"linkReferences": {},
					"object": "608060405234801561000f575f80fd5b50335f73ffffffffffffffffffffffffffffffffffffffff168173ffffffffffffffffffffffffffffffffffffffff1603610081575f6040517f1e4fbdf700000000000000000000000000000000000000000000000000000000815260040161007891906101af565b60405180910390fd5b610090816100af60201b60201c565b505f8060146101000a81548160ff0219169083151502179055506101c8565b5f805f9054906101000a900473ffffffffffffffffffffffffffffffffffffffff169050815f806101000a81548173ffffffffffffffffffffffffffffffffffffffff021916908373ffffffffffffffffffffffffffffffffffffffff1602179055508173ffffffffffffffffffffffffffffffffffffffff168173ffffffffffffffffffffffffffffffffffffffff167f8be0079c531659141344cd1fd0a4f28419497f9722a3daafe3b4186f6b6457e060405160405180910390a35050565b5f73ffffffffffffffffffffffffffffffffffffffff82169050919050565b5f61019982610170565b9050919050565b6101a98161018f565b82525050565b5f6020820190506101c25f8301846101a0565b92915050565b6117be806101d55f395ff3fe608060405234801561000f575f80fd5b50600436106100cd575f3560e01c80638e4d0f401161008a578063b33712c511610064578063b33712c514610201578063e8c5fdfe1461020b578063f2fde38b14610227578063fe35089f14610243576100cd565b80638e4d0f401461016d57806395f2f9f4146101a1578063a2428b73146101d1576100cd565b8063439766ce146100d15780634640c148146100db5780635c975abb146100f7578063618e6ce614610115578063715018a6146101455780638da5cb5b1461014f575b5f80fd5b6100d9610273565b005b6100f560048036038101906100f09190610ec1565b610285565b005b6100ff610410565b60405161010c9190610f93565b60405180910390f35b61012f600480360381019061012a9190610fac565b610425565b60405161013c9190610f93565b60405180910390f35b61014d610445565b005b610157610458565b6040516101649190611016565b60405180910390f35b61018760048036038101906101829190610fac565b61047f565b6040516101989594939291906110a7565b60405180910390f35b6101bb60048036038101906101b69190610fac565b6106c8565b6040516101c8919061110d565b60405180910390f35b6101eb60048036038101906101e69190610fac565b61072d565b6040516101f89190611016565b60405180910390f35b6102096107b0565b005b61022560048036038101906102209190611150565b6107c2565b005b610241600480360381019061023c919061118e565b610a07565b005b61025d60048036038101906102589190610fac565b610a8b565b60405161026a9190610f93565b60405180910390f35b61027b610a9c565b610283610b23565b565b61028d610b85565b61029684610425565b156102d6576040517f08c379a00000000000000000000000000000000000000000000000000000000081526004016102cd90611203565b60405180910390fd5b6040518060a001604052803373ffffffffffffffffffffffffffffffffffffffff1681526020014281526020018481526020018381526020018281525060015f8681526020019081526020015f205f820151815f015f6101000a81548173ffffffffffffffffffffffffffffffffffffffff021916908373ffffffffffffffffffffffffffffffffffffffff160217905550602082015181600101556040820151816002019081610387919061141b565b50606082015181600301908161039d919061141b565b5060808201518160040190816103b3919061141b565b509050503373ffffffffffffffffffffffffffffffffffffffff16847f31cd9bde24fe44ab9472bbdb7a0ee0bf791aa49fc520688e00ec27cc37847f91858585604051610402939291906114ea565b60405180910390a350505050565b5f8060149054906101000a900460ff16905090565b5f8060015f8481526020019081526020015f206001015414159050919050565b61044d610a9c565b6104565f610bcf565b565b5f805f9054906101000a900473ffffffffffffffffffffffffffffffffffffffff16905090565b5f80606080606061048f86610425565b6104ce576040517f08c379a00000000000000000000000000000000000000000000000000000000081526004016104c59061157e565b60405180910390fd5b5f60015f8881526020019081526020015f209050805f015f9054906101000a900473ffffffffffffffffffffffffffffffffffffffff1681600101548260020183600301846004018280546105229061124e565b80601f016020809104026020016040519081016040528092919081815260200182805461054e9061124e565b80156105995780601f1061057057610100808354040283529160200191610599565b820191905f5260205f20905b81548152906001019060200180831161057c57829003601f168201915b505050505092508180546105ac9061124e565b80601f01602080910402602001604051908101604052809291908181526020018280546105d89061124e565b80156106235780601f106105fa57610100808354040283529160200191610623565b820191905f5260205f20905b81548152906001019060200180831161060657829003601f168201915b505050505091508080546106369061124e565b80601f01602080910402602001604051908101604052809291908181526020018280546106629061124e565b80156106ad5780601f10610684576101008083540402835291602001916106ad565b820191905f5260205f20905b81548152906001019060200180831161069057829003601f168201915b50505050509050955095509550955095505091939590929450565b5f6106d282610425565b610711576040517f08c379a00000000000000000000000000000000000000000000000000000000081526004016107089061157e565b60405180910390fd5b60015f8381526020019081526020015f20600101549050919050565b5f61073782610425565b610776576040517f08c379a000000000000000000000000000000000000000000000000000000000815260040161076d9061157e565b60405180910390fd5b60015f8381526020019081526020015f205f015f9054906101000a900473ffffffffffffffffffffffffffffffffffffffff169050919050565b6107b8610a9c565b6107c0610c90565b565b6107ca610b85565b6107d382610425565b610812576040517f08c379a00000000000000000000000000000000000000000000000000000000081526004016108099061157e565b60405180910390fd5b60015f8381526020019081526020015f205f015f9054906101000a900473ffffffffffffffffffffffffffffffffffffffff1673ffffffffffffffffffffffffffffffffffffffff163373ffffffffffffffffffffffffffffffffffffffff16146108b2576040517f08c379a00000000000000000000000000000000000000000000000000000000081526004016108a99061160c565b60405180910390fd5b5f73ffffffffffffffffffffffffffffffffffffffff168173ffffffffffffffffffffffffffffffffffffffff1603610920576040517f08c379a00000000000000000000000000000000000000000000000000000000081526004016109179061169a565b60405180910390fd5b5f60015f8481526020019081526020015f205f015f9054906101000a900473ffffffffffffffffffffffffffffffffffffffff1690508160015f8581526020019081526020015f205f015f6101000a81548173ffffffffffffffffffffffffffffffffffffffff021916908373ffffffffffffffffffffffffffffffffffffffff1602179055508173ffffffffffffffffffffffffffffffffffffffff168173ffffffffffffffffffffffffffffffffffffffff16847f0b659dccc8eb950324170e8d9598af5ee04ee070883eb28651a96788721fbf8360405160405180910390a4505050565b610a0f610a9c565b5f73ffffffffffffffffffffffffffffffffffffffff168173ffffffffffffffffffffffffffffffffffffffff1603610a7f575f6040517f1e4fbdf7000000000000000000000000000000000000000000000000000000008152600401610a769190611016565b60405180910390fd5b610a8881610bcf565b50565b5f610a9582610425565b9050919050565b610aa4610cf1565b73ffffffffffffffffffffffffffffffffffffffff16610ac2610458565b73ffffffffffffffffffffffffffffffffffffffff1614610b2157610ae5610cf1565b6040517f118cdaa7000000000000000000000000000000000000000000000000000000008152600401610b189190611016565b60405180910390fd5b565b610b2b610b85565b60015f60146101000a81548160ff0219169083151502179055507f62e78cea01bee320cd4e420270b5ea74000d11b0c9f74754ebdbfc544b05a258610b6e610cf1565b604051610b7b9190611016565b60405180910390a1565b610b8d610410565b15610bcd576040517f08c379a0000000000000000000000000000000000000000000000000000000008152600401610bc490611702565b60405180910390fd5b565b5f805f9054906101000a900473ffffffffffffffffffffffffffffffffffffffff169050815f806101000a81548173ffffffffffffffffffffffffffffffffffffffff021916908373ffffffffffffffffffffffffffffffffffffffff1602179055508173ffffffffffffffffffffffffffffffffffffffff168173ffffffffffffffffffffffffffffffffffffffff167f8be0079c531659141344cd1fd0a4f28419497f9722a3daafe3b4186f6b6457e060405160405180910390a35050565b610c98610cf8565b5f8060146101000a81548160ff0219169083151502179055507f5db9ee0a495bf2e6ff9c91a7834c1ba4fdd244a5e8aa4e537bd38aeae4b073aa610cda610cf1565b604051610ce79190611016565b60405180910390a1565b5f33905090565b610d00610410565b610d3f576040517f08c379a0000000000000000000000000000000000000000000000000000000008152600401610d369061176a565b60405180910390fd5b565b5f604051905090565b5f80fd5b5f80fd5b5f819050919050565b610d6481610d52565b8114610d6e575f80fd5b50565b5f81359050610d7f81610d5b565b92915050565b5f80fd5b5f80fd5b5f601f19601f8301169050919050565b7f4e487b71000000000000000000000000000000000000000000000000000000005f52604160045260245ffd5b610dd382610d8d565b810181811067ffffffffffffffff82111715610df257610df1610d9d565b5b80604052505050565b5f610e04610d41565b9050610e108282610dca565b919050565b5f67ffffffffffffffff821115610e2f57610e2e610d9d565b5b610e3882610d8d565b9050602081019050919050565b828183375f83830152505050565b5f610e65610e6084610e15565b610dfb565b905082815260208101848484011115610e8157610e80610d89565b5b610e8c848285610e45565b509392505050565b5f82601f830112610ea857610ea7610d85565b5b8135610eb8848260208601610e53565b91505092915050565b5f805f8060808587031215610ed957610ed8610d4a565b5b5f610ee687828801610d71565b945050602085013567ffffffffffffffff811115610f0757610f06610d4e565b5b610f1387828801610e94565b935050604085013567ffffffffffffffff811115610f3457610f33610d4e565b5b610f4087828801610e94565b925050606085013567ffffffffffffffff811115610f6157610f60610d4e565b5b610f6d87828801610e94565b91505092959194509250565b5f8115159050919050565b610f8d81610f79565b82525050565b5f602082019050610fa65f830184610f84565b92915050565b5f60208284031215610fc157610fc0610d4a565b5b5f610fce84828501610d71565b91505092915050565b5f73ffffffffffffffffffffffffffffffffffffffff82169050919050565b5f61100082610fd7565b9050919050565b61101081610ff6565b82525050565b5f6020820190506110295f830184611007565b92915050565b5f819050919050565b6110418161102f565b82525050565b5f81519050919050565b5f82825260208201905092915050565b8281835e5f83830152505050565b5f61107982611047565b6110838185611051565b9350611093818560208601611061565b61109c81610d8d565b840191505092915050565b5f60a0820190506110ba5f830188611007565b6110c76020830187611038565b81810360408301526110d9818661106f565b905081810360608301526110ed818561106f565b90508181036080830152611101818461106f565b90509695505050505050565b5f6020820190506111205f830184611038565b92915050565b61112f81610ff6565b8114611139575f80fd5b50565b5f8135905061114a81611126565b92915050565b5f806040838503121561116657611165610d4a565b5b5f61117385828601610d71565b92505060206111848582860161113c565b9150509250929050565b5f602082840312156111a3576111a2610d4a565b5b5f6111b08482850161113c565b91505092915050565b7f446f63756d656e7420616c726561647920726567697374657265642e000000005f82015250565b5f6111ed601c83611051565b91506111f8826111b9565b602082019050919050565b5f6020820190508181035f83015261121a816111e1565b9050919050565b7f4e487b71000000000000000000000000000000000000000000000000000000005f52602260045260245ffd5b5f600282049050600182168061126557607f821691505b60208210810361127857611277611221565b5b50919050565b5f819050815f5260205f209050919050565b5f6020601f8301049050919050565b5f82821b905092915050565b5f600883026112da7fffffffffffffffffffffffffffffffffffffffffffffffffffffffffffffffff8261129f565b6112e4868361129f565b95508019841693508086168417925050509392505050565b5f819050919050565b5f61131f61131a6113158461102f565b6112fc565b61102f565b9050919050565b5f819050919050565b61133883611305565b61134c61134482611326565b8484546112ab565b825550505050565b5f90565b611360611354565b61136b81848461132f565b505050565b5b8181101561138e576113835f82611358565b600181019050611371565b5050565b601f8211156113d3576113a48161127e565b6113ad84611290565b810160208510156113bc578190505b6113d06113c885611290565b830182611370565b50505b505050565b5f82821c905092915050565b5f6113f35f19846008026113d8565b1980831691505092915050565b5f61140b83836113e4565b9150826002028217905092915050565b61142482611047565b67ffffffffffffffff81111561143d5761143c610d9d565b5b611447825461124e565b611452828285611392565b5f60209050601f831160018114611483575f8415611471578287015190505b61147b8582611400565b8655506114e2565b601f1984166114918661127e565b5f5b828110156114b857848901518255600182019150602085019450602081019050611493565b868310156114d557848901516114d1601f8916826113e4565b8355505b6001600288020188555050505b505050505050565b5f6060820190508181035f830152611502818661106f565b90508181036020830152611516818561106f565b9050818103604083015261152a818461106f565b9050949350505050565b7f446f63756d656e74206e6f7420666f756e642e000000000000000000000000005f82015250565b5f611568601383611051565b915061157382611534565b602082019050919050565b5f6020820190508181035f8301526115958161155c565b9050919050565b7f4f6e6c7920746865206f776e65722063616e207472616e73666572206f776e655f8201527f72736869702e0000000000000000000000000000000000000000000000000000602082015250565b5f6115f6602683611051565b91506116018261159c565b604082019050919050565b5f6020820190508181035f830152611623816115ea565b9050919050565b7f4e6577206f776e65722063616e6e6f7420626520746865207a65726f206164645f8201527f726573732e000000000000000000000000000000000000000000000000000000602082015250565b5f611684602583611051565b915061168f8261162a565b604082019050919050565b5f6020820190508181035f8301526116b181611678565b9050919050565b7f5061757361626c653a20706175736564000000000000000000000000000000005f82015250565b5f6116ec601083611051565b91506116f7826116b8565b602082019050919050565b5f6020820190508181035f830152611719816116e0565b9050919050565b7f5061757361626c653a206e6f74207061757365640000000000000000000000005f82015250565b5f611754601483611051565b915061175f82611720565b602082019050919050565b5f6020820190508181035f83015261178181611748565b905091905056fea2646970667358221220af046ef16d644c9e34b3e2b4ac5b5293ed89ba1db8496e465f24ff7899f6e6e264736f6c634300081a0033",
					"opcodes": "PUSH1 0x80 PUSH1 0x40 MSTORE CALLVALUE DUP1 ISZERO PUSH2 0xF JUMPI PUSH0 DUP1 REVERT JUMPDEST POP CALLER PUSH0 PUSH20 0xFFFFFFFFFFFFFFFFFFFFFFFFFFFFFFFFFFFFFFFF AND DUP2 PUSH20 0xFFFFFFFFFFFFFFFFFFFFFFFFFFFFFFFFFFFFFFFF AND SUB PUSH2 0x81 JUMPI PUSH0 PUSH1 0x40 MLOAD PUSH32 0x1E4FBDF700000000000000000000000000000000000000000000000000000000 DUP2 MSTORE PUSH1 0x4 ADD PUSH2 0x78 SWAP2 SWAP1 PUSH2 0x1AF JUMP JUMPDEST PUSH1 0x40 MLOAD DUP1 SWAP2 SUB SWAP1 REVERT JUMPDEST PUSH2 0x90 DUP2 PUSH2 0xAF PUSH1 0x20 SHL PUSH1 0x20 SHR JUMP JUMPDEST POP PUSH0 DUP1 PUSH1 0x14 PUSH2 0x100 EXP DUP2 SLOAD DUP2 PUSH1 0xFF MUL NOT AND SWAP1 DUP4 ISZERO ISZERO MUL OR SWAP1 SSTORE POP PUSH2 0x1C8 JUMP JUMPDEST PUSH0 DUP1 PUSH0 SWAP1 SLOAD SWAP1 PUSH2 0x100 EXP SWAP1 DIV PUSH20 0xFFFFFFFFFFFFFFFFFFFFFFFFFFFFFFFFFFFFFFFF AND SWAP1 POP DUP2 PUSH0 DUP1 PUSH2 0x100 EXP DUP2 SLOAD DUP2 PUSH20 0xFFFFFFFFFFFFFFFFFFFFFFFFFFFFFFFFFFFFFFFF MUL NOT AND SWAP1 DUP4 PUSH20 0xFFFFFFFFFFFFFFFFFFFFFFFFFFFFFFFFFFFFFFFF AND MUL OR SWAP1 SSTORE POP DUP2 PUSH20 0xFFFFFFFFFFFFFFFFFFFFFFFFFFFFFFFFFFFFFFFF AND DUP2 PUSH20 0xFFFFFFFFFFFFFFFFFFFFFFFFFFFFFFFFFFFFFFFF AND PUSH32 0x8BE0079C531659141344CD1FD0A4F28419497F9722A3DAAFE3B4186F6B6457E0 PUSH1 0x40 MLOAD PUSH1 0x40 MLOAD DUP1 SWAP2 SUB SWAP1 LOG3 POP POP JUMP JUMPDEST PUSH0 PUSH20 0xFFFFFFFFFFFFFFFFFFFFFFFFFFFFFFFFFFFFFFFF DUP3 AND SWAP1 POP SWAP2 SWAP1 POP JUMP JUMPDEST PUSH0 PUSH2 0x199 DUP3 PUSH2 0x170 JUMP JUMPDEST SWAP1 POP SWAP2 SWAP1 POP JUMP JUMPDEST PUSH2 0x1A9 DUP2 PUSH2 0x18F JUMP JUMPDEST DUP3 MSTORE POP POP JUMP JUMPDEST PUSH0 PUSH1 0x20 DUP3 ADD SWAP1 POP PUSH2 0x1C2 PUSH0 DUP4 ADD DUP5 PUSH2 0x1A0 JUMP JUMPDEST SWAP3 SWAP2 POP POP JUMP JUMPDEST PUSH2 0x17BE DUP1 PUSH2 0x1D5 PUSH0 CODECOPY PUSH0 RETURN INVALID PUSH1 0x80 PUSH1 0x40 MSTORE CALLVALUE DUP1 ISZERO PUSH2 0xF JUMPI PUSH0 DUP1 REVERT JUMPDEST POP PUSH1 0x4 CALLDATASIZE LT PUSH2 0xCD JUMPI PUSH0 CALLDATALOAD PUSH1 0xE0 SHR DUP1 PUSH4 0x8E4D0F40 GT PUSH2 0x8A JUMPI DUP1 PUSH4 0xB33712C5 GT PUSH2 0x64 JUMPI DUP1 PUSH4 0xB33712C5 EQ PUSH2 0x201 JUMPI DUP1 PUSH4 0xE8C5FDFE EQ PUSH2 0x20B JUMPI DUP1 PUSH4 0xF2FDE38B EQ PUSH2 0x227 JUMPI DUP1 PUSH4 0xFE35089F EQ PUSH2 0x243 JUMPI PUSH2 0xCD JUMP JUMPDEST DUP1 PUSH4 0x8E4D0F40 EQ PUSH2 0x16D JUMPI DUP1 PUSH4 0x95F2F9F4 EQ PUSH2 0x1A1 JUMPI DUP1 PUSH4 0xA2428B73 EQ PUSH2 0x1D1 JUMPI PUSH2 0xCD JUMP JUMPDEST DUP1 PUSH4 0x439766CE EQ PUSH2 0xD1 JUMPI DUP1 PUSH4 0x4640C148 EQ PUSH2 0xDB JUMPI DUP1 PUSH4 0x5C975ABB EQ PUSH2 0xF7 JUMPI DUP1 PUSH4 0x618E6CE6 EQ PUSH2 0x115 JUMPI DUP1 PUSH4 0x715018A6 EQ PUSH2 0x145 JUMPI DUP1 PUSH4 0x8DA5CB5B EQ PUSH2 0x14F JUMPI JUMPDEST PUSH0 DUP1 REVERT JUMPDEST PUSH2 0xD9 PUSH2 0x273 JUMP JUMPDEST STOP JUMPDEST PUSH2 0xF5 PUSH1 0x4 DUP1 CALLDATASIZE SUB DUP2 ADD SWAP1 PUSH2 0xF0 SWAP2 SWAP1 PUSH2 0xEC1 JUMP JUMPDEST PUSH2 0x285 JUMP JUMPDEST STOP JUMPDEST PUSH2 0xFF PUSH2 0x410 JUMP JUMPDEST PUSH1 0x40 MLOAD PUSH2 0x10C SWAP2 SWAP1 PUSH2 0xF93 JUMP JUMPDEST PUSH1 0x40 MLOAD DUP1 SWAP2 SUB SWAP1 RETURN JUMPDEST PUSH2 0x12F PUSH1 0x4 DUP1 CALLDATASIZE SUB DUP2 ADD SWAP1 PUSH2 0x12A SWAP2 SWAP1 PUSH2 0xFAC JUMP JUMPDEST PUSH2 0x425 JUMP JUMPDEST PUSH1 0x40 MLOAD PUSH2 0x13C SWAP2 SWAP1 PUSH2 0xF93 JUMP JUMPDEST PUSH1 0x40 MLOAD DUP1 SWAP2 SUB SWAP1 RETURN JUMPDEST PUSH2 0x14D PUSH2 0x445 JUMP JUMPDEST STOP JUMPDEST PUSH2 0x157 PUSH2 0x458 JUMP JUMPDEST PUSH1 0x40 MLOAD PUSH2 0x164 SWAP2 SWAP1 PUSH2 0x1016 JUMP JUMPDEST PUSH1 0x40 MLOAD DUP1 SWAP2 SUB SWAP1 RETURN JUMPDEST PUSH2 0x187 PUSH1 0x4 DUP1 CALLDATASIZE SUB DUP2 ADD SWAP1 PUSH2 0x182 SWAP2 SWAP1 PUSH2 0xFAC JUMP JUMPDEST PUSH2 0x47F JUMP JUMPDEST PUSH1 0x40 MLOAD PUSH2 0x198 SWAP6 SWAP5 SWAP4 SWAP3 SWAP2 SWAP1 PUSH2 0x10A7 JUMP JUMPDEST PUSH1 0x40 MLOAD DUP1 SWAP2 SUB SWAP1 RETURN JUMPDEST PUSH2 0x1BB PUSH1 0x4 DUP1 CALLDATASIZE SUB DUP2 ADD SWAP1 PUSH2 0x1B6 SWAP2 SWAP1 PUSH2 0xFAC JUMP JUMPDEST PUSH2 0x6C8 JUMP JUMPDEST PUSH1 0x40 MLOAD PUSH2 0x1C8 SWAP2 SWAP1 PUSH2 0x110D JUMP JUMPDEST PUSH1 0x40 MLOAD DUP1 SWAP2 SUB SWAP1 RETURN JUMPDEST PUSH2 0x1EB PUSH1 0x4 DUP1 CALLDATASIZE SUB DUP2 ADD SWAP1 PUSH2 0x1E6 SWAP2 SWAP1 PUSH2 0xFAC JUMP JUMPDEST PUSH2 0x72D JUMP JUMPDEST PUSH1 0x40 MLOAD PUSH2 0x1F8 SWAP2 SWAP1 PUSH2 0x1016 JUMP JUMPDEST PUSH1 0x40 MLOAD DUP1 SWAP2 SUB SWAP1 RETURN JUMPDEST PUSH2 0x209 PUSH2 0x7B0 JUMP JUMPDEST STOP JUMPDEST PUSH2 0x225 PUSH1 0x4 DUP1 CALLDATASIZE SUB DUP2 ADD SWAP1 PUSH2 0x220 SWAP2 SWAP1 PUSH2 0x1150 JUMP JUMPDEST PUSH2 0x7C2 JUMP JUMPDEST STOP JUMPDEST PUSH2 0x241 PUSH1 0x4 DUP1 CALLDATASIZE SUB DUP2 ADD SWAP1 PUSH2 0x23C SWAP2 SWAP1 PUSH2 0x118E JUMP JUMPDEST PUSH2 0xA07 JUMP JUMPDEST STOP JUMPDEST PUSH2 0x25D PUSH1 0x4 DUP1 CALLDATASIZE SUB DUP2 ADD SWAP1 PUSH2 0x258 SWAP2 SWAP1 PUSH2 0xFAC JUMP JUMPDEST PUSH2 0xA8B JUMP JUMPDEST PUSH1 0x40 MLOAD PUSH2 0x26A SWAP2 SWAP1 PUSH2 0xF93 JUMP JUMPDEST PUSH1 0x40 MLOAD DUP1 SWAP2 SUB SWAP1 RETURN JUMPDEST PUSH2 0x27B PUSH2 0xA9C JUMP JUMPDEST PUSH2 0x283 PUSH2 0xB23 JUMP JUMPDEST JUMP JUMPDEST PUSH2 0x28D PUSH2 0xB85 JUMP JUMPDEST PUSH2 0x296 DUP5 PUSH2 0x425 JUMP JUMPDEST ISZERO PUSH2 0x2D6 JUMPI PUSH1 0x40 MLOAD PUSH32 0x8C379A000000000000000000000000000000000000000000000000000000000 DUP2 MSTORE PUSH1 0x4 ADD PUSH2 0x2CD SWAP1 PUSH2 0x1203 JUMP JUMPDEST PUSH1 0x40 MLOAD DUP1 SWAP2 SUB SWAP1 REVERT JUMPDEST PUSH1 0x40 MLOAD DUP1 PUSH1 0xA0 ADD PUSH1 0x40 MSTORE DUP1 CALLER PUSH20 0xFFFFFFFFFFFFFFFFFFFFFFFFFFFFFFFFFFFFFFFF AND DUP2 MSTORE PUSH1 0x20 ADD TIMESTAMP DUP2 MSTORE PUSH1 0x20 ADD DUP5 DUP2 MSTORE PUSH1 0x20 ADD DUP4 DUP2 MSTORE PUSH1 0x20 ADD DUP3 DUP2 MSTORE POP PUSH1 0x1 PUSH0 DUP7 DUP2 MSTORE PUSH1 0x20 ADD SWAP1 DUP2 MSTORE PUSH1 0x20 ADD PUSH0 KECCAK256 PUSH0 DUP3 ADD MLOAD DUP2 PUSH0 ADD PUSH0 PUSH2 0x100 EXP DUP2 SLOAD DUP2 PUSH20 0xFFFFFFFFFFFFFFFFFFFFFFFFFFFFFFFFFFFFFFFF MUL NOT AND SWAP1 DUP4 PUSH20 0xFFFFFFFFFFFFFFFFFFFFFFFFFFFFFFFFFFFFFFFF AND MUL OR SWAP1 SSTORE POP PUSH1 0x20 DUP3 ADD MLOAD DUP2 PUSH1 0x1 ADD SSTORE PUSH1 0x40 DUP3 ADD MLOAD DUP2 PUSH1 0x2 ADD SWAP1 DUP2 PUSH2 0x387 SWAP2 SWAP1 PUSH2 0x141B JUMP JUMPDEST POP PUSH1 0x60 DUP3 ADD MLOAD DUP2 PUSH1 0x3 ADD SWAP1 DUP2 PUSH2 0x39D SWAP2 SWAP1 PUSH2 0x141B JUMP JUMPDEST POP PUSH1 0x80 DUP3 ADD MLOAD DUP2 PUSH1 0x4 ADD SWAP1 DUP2 PUSH2 0x3B3 SWAP2 SWAP1 PUSH2 0x141B JUMP JUMPDEST POP SWAP1 POP POP CALLER PUSH20 0xFFFFFFFFFFFFFFFFFFFFFFFFFFFFFFFFFFFFFFFF AND DUP5 PUSH32 0x31CD9BDE24FE44AB9472BBDB7A0EE0BF791AA49FC520688E00EC27CC37847F91 DUP6 DUP6 DUP6 PUSH1 0x40 MLOAD PUSH2 0x402 SWAP4 SWAP3 SWAP2 SWAP1 PUSH2 0x14EA JUMP JUMPDEST PUSH1 0x40 MLOAD DUP1 SWAP2 SUB SWAP1 LOG3 POP POP POP POP JUMP JUMPDEST PUSH0 DUP1 PUSH1 0x14 SWAP1 SLOAD SWAP1 PUSH2 0x100 EXP SWAP1 DIV PUSH1 0xFF AND SWAP1 POP SWAP1 JUMP JUMPDEST PUSH0 DUP1 PUSH1 0x1 PUSH0 DUP5 DUP2 MSTORE PUSH1 0x20 ADD SWAP1 DUP2 MSTORE PUSH1 0x20 ADD PUSH0 KECCAK256 PUSH1 0x1 ADD SLOAD EQ ISZERO SWAP1 POP SWAP2 SWAP1 POP JUMP JUMPDEST PUSH2 0x44D PUSH2 0xA9C JUMP JUMPDEST PUSH2 0x456 PUSH0 PUSH2 0xBCF JUMP JUMPDEST JUMP JUMPDEST PUSH0 DUP1 PUSH0 SWAP1 SLOAD SWAP1 PUSH2 0x100 EXP SWAP1 DIV PUSH20 0xFFFFFFFFFFFFFFFFFFFFFFFFFFFFFFFFFFFFFFFF AND SWAP1 POP SWAP1 JUMP JUMPDEST PUSH0 DUP1 PUSH1 0x60 DUP1 PUSH1 0x60 PUSH2 0x48F DUP7 PUSH2 0x425 JUMP JUMPDEST PUSH2 0x4CE JUMPI PUSH1 0x40 MLOAD PUSH32 0x8C379A000000000000000000000000000000000000000000000000000000000 DUP2 MSTORE PUSH1 0x4 ADD PUSH2 0x4C5 SWAP1 PUSH2 0x157E JUMP JUMPDEST PUSH1 0x40 MLOAD DUP1 SWAP2 SUB SWAP1 REVERT JUMPDEST PUSH0 PUSH1 0x1 PUSH0 DUP9 DUP2 MSTORE PUSH1 0x20 ADD SWAP1 DUP2 MSTORE PUSH1 0x20 ADD PUSH0 KECCAK256 SWAP1 POP DUP1 PUSH0 ADD PUSH0 SWAP1 SLOAD SWAP1 PUSH2 0x100 EXP SWAP1 DIV PUSH20 0xFFFFFFFFFFFFFFFFFFFFFFFFFFFFFFFFFFFFFFFF AND DUP2 PUSH1 0x1 ADD SLOAD DUP3 PUSH1 0x2 ADD DUP4 PUSH1 0x3 ADD DUP5 PUSH1 0x4 ADD DUP3 DUP1 SLOAD PUSH2 0x522 SWAP1 PUSH2 0x124E JUMP JUMPDEST DUP1 PUSH1 0x1F ADD PUSH1 0x20 DUP1 SWAP2 DIV MUL PUSH1 0x20 ADD PUSH1 0x40 MLOAD SWAP1 DUP2 ADD PUSH1 0x40 MSTORE DUP1 SWAP3 SWAP2 SWAP1 DUP2 DUP2 MSTORE PUSH1 0x20 ADD DUP3 DUP1 SLOAD PUSH2 0x54E SWAP1 PUSH2 0x124E JUMP JUMPDEST DUP1 ISZERO PUSH2 0x599 JUMPI DUP1 PUSH1 0x1F LT PUSH2 0x570 JUMPI PUSH2 0x100 DUP1 DUP4 SLOAD DIV MUL DUP4 MSTORE SWAP2 PUSH1 0x20 ADD SWAP2 PUSH2 0x599 JUMP JUMPDEST DUP3 ADD SWAP2 SWAP1 PUSH0 MSTORE PUSH1 0x20 PUSH0 KECCAK256 SWAP1 JUMPDEST DUP2 SLOAD DUP2 MSTORE SWAP1 PUSH1 0x1 ADD SWAP1 PUSH1 0x20 ADD DUP1 DUP4 GT PUSH2 0x57C JUMPI DUP3 SWAP1 SUB PUSH1 0x1F AND DUP3 ADD SWAP2 JUMPDEST POP POP POP POP POP SWAP3 POP DUP2 DUP1 SLOAD PUSH2 0x5AC SWAP1 PUSH2 0x124E JUMP JUMPDEST DUP1 PUSH1 0x1F ADD PUSH1 0x20 DUP1 SWAP2 DIV MUL PUSH1 0x20 ADD PUSH1 0x40 MLOAD SWAP1 DUP2 ADD PUSH1 0x40 MSTORE DUP1 SWAP3 SWAP2 SWAP1 DUP2 DUP2 MSTORE PUSH1 0x20 ADD DUP3 DUP1 SLOAD PUSH2 0x5D8 SWAP1 PUSH2 0x124E JUMP JUMPDEST DUP1 ISZERO PUSH2 0x623 JUMPI DUP1 PUSH1 0x1F LT PUSH2 0x5FA JUMPI PUSH2 0x100 DUP1 DUP4 SLOAD DIV MUL DUP4 MSTORE SWAP2 PUSH1 0x20 ADD SWAP2 PUSH2 0x623 JUMP JUMPDEST DUP3 ADD SWAP2 SWAP1 PUSH0 MSTORE PUSH1 0x20 PUSH0 KECCAK256 SWAP1 JUMPDEST DUP2 SLOAD DUP2 MSTORE SWAP1 PUSH1 0x1 ADD SWAP1 PUSH1 0x20 ADD DUP1 DUP4 GT PUSH2 0x606 JUMPI DUP3 SWAP1 SUB PUSH1 0x1F AND DUP3 ADD SWAP2 JUMPDEST POP POP POP POP POP SWAP2 POP DUP1 DUP1 SLOAD PUSH2 0x636 SWAP1 PUSH2 0x124E JUMP JUMPDEST DUP1 PUSH1 0x1F ADD PUSH1 0x20 DUP1 SWAP2 DIV MUL PUSH1 0x20 ADD PUSH1 0x40 MLOAD SWAP1 DUP2 ADD PUSH1 0x40 MSTORE DUP1 SWAP3 SWAP2 SWAP1 DUP2 DUP2 MSTORE PUSH1 0x20 ADD DUP3 DUP1 SLOAD PUSH2 0x662 SWAP1 PUSH2 0x124E JUMP JUMPDEST DUP1 ISZERO PUSH2 0x6AD JUMPI DUP1 PUSH1 0x1F LT PUSH2 0x684 JUMPI PUSH2 0x100 DUP1 DUP4 SLOAD DIV MUL DUP4 MSTORE SWAP2 PUSH1 0x20 ADD SWAP2 PUSH2 0x6AD JUMP JUMPDEST DUP3 ADD SWAP2 SWAP1 PUSH0 MSTORE PUSH1 0x20 PUSH0 KECCAK256 SWAP1 JUMPDEST DUP2 SLOAD DUP2 MSTORE SWAP1 PUSH1 0x1 ADD SWAP1 PUSH1 0x20 ADD DUP1 DUP4 GT PUSH2 0x690 JUMPI DUP3 SWAP1 SUB PUSH1 0x1F AND DUP3 ADD SWAP2 JUMPDEST POP POP POP POP POP SWAP1 POP SWAP6 POP SWAP6 POP SWAP6 POP SWAP6 POP SWAP6 POP POP SWAP2 SWAP4 SWAP6 SWAP1 SWAP3 SWAP5 POP JUMP JUMPDEST PUSH0 PUSH2 0x6D2 DUP3 PUSH2 0x425 JUMP JUMPDEST PUSH2 0x711 JUMPI PUSH1 0x40 MLOAD PUSH32 0x8C379A000000000000000000000000000000000000000000000000000000000 DUP2 MSTORE PUSH1 0x4 ADD PUSH2 0x708 SWAP1 PUSH2 0x157E JUMP JUMPDEST PUSH1 0x40 MLOAD DUP1 SWAP2 SUB SWAP1 REVERT JUMPDEST PUSH1 0x1 PUSH0 DUP4 DUP2 MSTORE PUSH1 0x20 ADD SWAP1 DUP2 MSTORE PUSH1 0x20 ADD PUSH0 KECCAK256 PUSH1 0x1 ADD SLOAD SWAP1 POP SWAP2 SWAP1 POP JUMP JUMPDEST PUSH0 PUSH2 0x737 DUP3 PUSH2 0x425 JUMP JUMPDEST PUSH2 0x776 JUMPI PUSH1 0x40 MLOAD PUSH32 0x8C379A000000000000000000000000000000000000000000000000000000000 DUP2 MSTORE PUSH1 0x4 ADD PUSH2 0x76D SWAP1 PUSH2 0x157E JUMP JUMPDEST PUSH1 0x40 MLOAD DUP1 SWAP2 SUB SWAP1 REVERT JUMPDEST PUSH1 0x1 PUSH0 DUP4 DUP2 MSTORE PUSH1 0x20 ADD SWAP1 DUP2 MSTORE PUSH1 0x20 ADD PUSH0 KECCAK256 PUSH0 ADD PUSH0 SWAP1 SLOAD SWAP1 PUSH2 0x100 EXP SWAP1 DIV PUSH20 0xFFFFFFFFFFFFFFFFFFFFFFFFFFFFFFFFFFFFFFFF AND SWAP1 POP SWAP2 SWAP1 POP JUMP JUMPDEST PUSH2 0x7B8 PUSH2 0xA9C JUMP JUMPDEST PUSH2 0x7C0 PUSH2 0xC90 JUMP JUMPDEST JUMP JUMPDEST PUSH2 0x7CA PUSH2 0xB85 JUMP JUMPDEST PUSH2 0x7D3 DUP3 PUSH2 0x425 JUMP JUMPDEST PUSH2 0x812 JUMPI PUSH1 0x40 MLOAD PUSH32 0x8C379A000000000000000000000000000000000000000000000000000000000 DUP2 MSTORE PUSH1 0x4 ADD PUSH2 0x809 SWAP1 PUSH2 0x157E JUMP JUMPDEST PUSH1 0x40 MLOAD DUP1 SWAP2 SUB SWAP1 REVERT JUMPDEST PUSH1 0x1 PUSH0 DUP4 DUP2 MSTORE PUSH1 0x20 ADD SWAP1 DUP2 MSTORE PUSH1 0x20 ADD PUSH0 KECCAK256 PUSH0 ADD PUSH0 SWAP1 SLOAD SWAP1 PUSH2 0x100 EXP SWAP1 DIV PUSH20 0xFFFFFFFFFFFFFFFFFFFFFFFFFFFFFFFFFFFFFFFF AND PUSH20 0xFFFFFFFFFFFFFFFFFFFFFFFFFFFFFFFFFFFFFFFF AND CALLER PUSH20 0xFFFFFFFFFFFFFFFFFFFFFFFFFFFFFFFFFFFFFFFF AND EQ PUSH2 0x8B2 JUMPI PUSH1 0x40 MLOAD PUSH32 0x8C379A000000000000000000000000000000000000000000000000000000000 DUP2 MSTORE PUSH1 0x4 ADD PUSH2 0x8A9 SWAP1 PUSH2 0x160C JUMP JUMPDEST PUSH1 0x40 MLOAD DUP1 SWAP2 SUB SWAP1 REVERT JUMPDEST PUSH0 PUSH20 0xFFFFFFFFFFFFFFFFFFFFFFFFFFFFFFFFFFFFFFFF AND DUP2 PUSH20 0xFFFFFFFFFFFFFFFFFFFFFFFFFFFFFFFFFFFFFFFF AND SUB PUSH2 0x920 JUMPI PUSH1 0x40 MLOAD PUSH32 0x8C379A000000000000000000000000000000000000000000000000000000000 DUP2 MSTORE PUSH1 0x4 ADD PUSH2 0x917 SWAP1 PUSH2 0x169A JUMP JUMPDEST PUSH1 0x40 MLOAD DUP1 SWAP2 SUB SWAP1 REVERT JUMPDEST PUSH0 PUSH1 0x1 PUSH0 DUP5 DUP2 MSTORE PUSH1 0x20 ADD SWAP1 DUP2 MSTORE PUSH1 0x20 ADD PUSH0 KECCAK256 PUSH0 ADD PUSH0 SWAP1 SLOAD SWAP1 PUSH2 0x100 EXP SWAP1 DIV PUSH20 0xFFFFFFFFFFFFFFFFFFFFFFFFFFFFFFFFFFFFFFFF AND SWAP1 POP DUP2 PUSH1 0x1 PUSH0 DUP6 DUP2 MSTORE PUSH1 0x20 ADD SWAP1 DUP2 MSTORE PUSH1 0x20 ADD PUSH0 KECCAK256 PUSH0 ADD PUSH0 PUSH2 0x100 EXP DUP2 SLOAD DUP2 PUSH20 0xFFFFFFFFFFFFFFFFFFFFFFFFFFFFFFFFFFFFFFFF MUL NOT AND SWAP1 DUP4 PUSH20 0xFFFFFFFFFFFFFFFFFFFFFFFFFFFFFFFFFFFFFFFF AND MUL OR SWAP1 SSTORE POP DUP2 PUSH20 0xFFFFFFFFFFFFFFFFFFFFFFFFFFFFFFFFFFFFFFFF AND DUP2 PUSH20 0xFFFFFFFFFFFFFFFFFFFFFFFFFFFFFFFFFFFFFFFF AND DUP5 PUSH32 0xB659DCCC8EB950324170E8D9598AF5EE04EE070883EB28651A96788721FBF83 PUSH1 0x40 MLOAD PUSH1 0x40 MLOAD DUP1 SWAP2 SUB SWAP1 LOG4 POP POP POP JUMP JUMPDEST PUSH2 0xA0F PUSH2 0xA9C JUMP JUMPDEST PUSH0 PUSH20 0xFFFFFFFFFFFFFFFFFFFFFFFFFFFFFFFFFFFFFFFF AND DUP2 PUSH20 0xFFFFFFFFFFFFFFFFFFFFFFFFFFFFFFFFFFFFFFFF AND SUB PUSH2 0xA7F JUMPI PUSH0 PUSH1 0x40 MLOAD PUSH32 0x1E4FBDF700000000000000000000000000000000000000000000000000000000 DUP2 MSTORE PUSH1 0x4 ADD PUSH2 0xA76 SWAP2 SWAP1 PUSH2 0x1016 JUMP JUMPDEST PUSH1 0x40 MLOAD DUP1 SWAP2 SUB SWAP1 REVERT JUMPDEST PUSH2 0xA88 DUP2 PUSH2 0xBCF JUMP JUMPDEST POP JUMP JUMPDEST PUSH0 PUSH2 0xA95 DUP3 PUSH2 0x425 JUMP JUMPDEST SWAP1 POP SWAP2 SWAP1 POP JUMP JUMPDEST PUSH2 0xAA4 PUSH2 0xCF1 JUMP JUMPDEST PUSH20 0xFFFFFFFFFFFFFFFFFFFFFFFFFFFFFFFFFFFFFFFF AND PUSH2 0xAC2 PUSH2 0x458 JUMP JUMPDEST PUSH20 0xFFFFFFFFFFFFFFFFFFFFFFFFFFFFFFFFFFFFFFFF AND EQ PUSH2 0xB21 JUMPI PUSH2 0xAE5 PUSH2 0xCF1 JUMP JUMPDEST PUSH1 0x40 MLOAD PUSH32 0x118CDAA700000000000000000000000000000000000000000000000000000000 DUP2 MSTORE PUSH1 0x4 ADD PUSH2 0xB18 SWAP2 SWAP1 PUSH2 0x1016 JUMP JUMPDEST PUSH1 0x40 MLOAD DUP1 SWAP2 SUB SWAP1 REVERT JUMPDEST JUMP JUMPDEST PUSH2 0xB2B PUSH2 0xB85 JUMP JUMPDEST PUSH1 0x1 PUSH0 PUSH1 0x14 PUSH2 0x100 EXP DUP2 SLOAD DUP2 PUSH1 0xFF MUL NOT AND SWAP1 DUP4 ISZERO ISZERO MUL OR SWAP1 SSTORE POP PUSH32 0x62E78CEA01BEE320CD4E420270B5EA74000D11B0C9F74754EBDBFC544B05A258 PUSH2 0xB6E PUSH2 0xCF1 JUMP JUMPDEST PUSH1 0x40 MLOAD PUSH2 0xB7B SWAP2 SWAP1 PUSH2 0x1016 JUMP JUMPDEST PUSH1 0x40 MLOAD DUP1 SWAP2 SUB SWAP1 LOG1 JUMP JUMPDEST PUSH2 0xB8D PUSH2 0x410 JUMP JUMPDEST ISZERO PUSH2 0xBCD JUMPI PUSH1 0x40 MLOAD PUSH32 0x8C379A000000000000000000000000000000000000000000000000000000000 DUP2 MSTORE PUSH1 0x4 ADD PUSH2 0xBC4 SWAP1 PUSH2 0x1702 JUMP JUMPDEST PUSH1 0x40 MLOAD DUP1 SWAP2 SUB SWAP1 REVERT JUMPDEST JUMP JUMPDEST PUSH0 DUP1 PUSH0 SWAP1 SLOAD SWAP1 PUSH2 0x100 EXP SWAP1 DIV PUSH20 0xFFFFFFFFFFFFFFFFFFFFFFFFFFFFFFFFFFFFFFFF AND SWAP1 POP DUP2 PUSH0 DUP1 PUSH2 0x100 EXP DUP2 SLOAD DUP2 PUSH20 0xFFFFFFFFFFFFFFFFFFFFFFFFFFFFFFFFFFFFFFFF MUL NOT AND SWAP1 DUP4 PUSH20 0xFFFFFFFFFFFFFFFFFFFFFFFFFFFFFFFFFFFFFFFF AND MUL OR SWAP1 SSTORE POP DUP2 PUSH20 0xFFFFFFFFFFFFFFFFFFFFFFFFFFFFFFFFFFFFFFFF AND DUP2 PUSH20 0xFFFFFFFFFFFFFFFFFFFFFFFFFFFFFFFFFFFFFFFF AND PUSH32 0x8BE0079C531659141344CD1FD0A4F28419497F9722A3DAAFE3B4186F6B6457E0 PUSH1 0x40 MLOAD PUSH1 0x40 MLOAD DUP1 SWAP2 SUB SWAP1 LOG3 POP POP JUMP JUMPDEST PUSH2 0xC98 PUSH2 0xCF8 JUMP JUMPDEST PUSH0 DUP1 PUSH1 0x14 PUSH2 0x100 EXP DUP2 SLOAD DUP2 PUSH1 0xFF MUL NOT AND SWAP1 DUP4 ISZERO ISZERO MUL OR SWAP1 SSTORE POP PUSH32 0x5DB9EE0A495BF2E6FF9C91A7834C1BA4FDD244A5E8AA4E537BD38AEAE4B073AA PUSH2 0xCDA PUSH2 0xCF1 JUMP JUMPDEST PUSH1 0x40 MLOAD PUSH2 0xCE7 SWAP2 SWAP1 PUSH2 0x1016 JUMP JUMPDEST PUSH1 0x40 MLOAD DUP1 SWAP2 SUB SWAP1 LOG1 JUMP JUMPDEST PUSH0 CALLER SWAP1 POP SWAP1 JUMP JUMPDEST PUSH2 0xD00 PUSH2 0x410 JUMP JUMPDEST PUSH2 0xD3F JUMPI PUSH1 0x40 MLOAD PUSH32 0x8C379A000000000000000000000000000000000000000000000000000000000 DUP2 MSTORE PUSH1 0x4 ADD PUSH2 0xD36 SWAP1 PUSH2 0x176A JUMP JUMPDEST PUSH1 0x40 MLOAD DUP1 SWAP2 SUB SWAP1 REVERT JUMPDEST JUMP JUMPDEST PUSH0 PUSH1 0x40 MLOAD SWAP1 POP SWAP1 JUMP JUMPDEST PUSH0 DUP1 REVERT JUMPDEST PUSH0 DUP1 REVERT JUMPDEST PUSH0 DUP2 SWAP1 POP SWAP2 SWAP1 POP JUMP JUMPDEST PUSH2 0xD64 DUP2 PUSH2 0xD52 JUMP JUMPDEST DUP2 EQ PUSH2 0xD6E JUMPI PUSH0 DUP1 REVERT JUMPDEST POP JUMP JUMPDEST PUSH0 DUP2 CALLDATALOAD SWAP1 POP PUSH2 0xD7F DUP2 PUSH2 0xD5B JUMP JUMPDEST SWAP3 SWAP2 POP POP JUMP JUMPDEST PUSH0 DUP1 REVERT JUMPDEST PUSH0 DUP1 REVERT JUMPDEST PUSH0 PUSH1 0x1F NOT PUSH1 0x1F DUP4 ADD AND SWAP1 POP SWAP2 SWAP1 POP JUMP JUMPDEST PUSH32 0x4E487B7100000000000000000000000000000000000000000000000000000000 PUSH0 MSTORE PUSH1 0x41 PUSH1 0x4 MSTORE PUSH1 0x24 PUSH0 REVERT JUMPDEST PUSH2 0xDD3 DUP3 PUSH2 0xD8D JUMP JUMPDEST DUP2 ADD DUP2 DUP2 LT PUSH8 0xFFFFFFFFFFFFFFFF DUP3 GT OR ISZERO PUSH2 0xDF2 JUMPI PUSH2 0xDF1 PUSH2 0xD9D JUMP JUMPDEST JUMPDEST DUP1 PUSH1 0x40 MSTORE POP POP POP JUMP JUMPDEST PUSH0 PUSH2 0xE04 PUSH2 0xD41 JUMP JUMPDEST SWAP1 POP PUSH2 0xE10 DUP3 DUP3 PUSH2 0xDCA JUMP JUMPDEST SWAP2 SWAP1 POP JUMP JUMPDEST PUSH0 PUSH8 0xFFFFFFFFFFFFFFFF DUP3 GT ISZERO PUSH2 0xE2F JUMPI PUSH2 0xE2E PUSH2 0xD9D JUMP JUMPDEST JUMPDEST PUSH2 0xE38 DUP3 PUSH2 0xD8D JUMP JUMPDEST SWAP1 POP PUSH1 0x20 DUP2 ADD SWAP1 POP SWAP2 SWAP1 POP JUMP JUMPDEST DUP3 DUP2 DUP4 CALLDATACOPY PUSH0 DUP4 DUP4 ADD MSTORE POP POP POP JUMP JUMPDEST PUSH0 PUSH2 0xE65 PUSH2 0xE60 DUP5 PUSH2 0xE15 JUMP JUMPDEST PUSH2 0xDFB JUMP JUMPDEST SWAP1 POP DUP3 DUP2 MSTORE PUSH1 0x20 DUP2 ADD DUP5 DUP5 DUP5 ADD GT ISZERO PUSH2 0xE81 JUMPI PUSH2 0xE80 PUSH2 0xD89 JUMP JUMPDEST JUMPDEST PUSH2 0xE8C DUP5 DUP3 DUP6 PUSH2 0xE45 JUMP JUMPDEST POP SWAP4 SWAP3 POP POP POP JUMP JUMPDEST PUSH0 DUP3 PUSH1 0x1F DUP4 ADD SLT PUSH2 0xEA8 JUMPI PUSH2 0xEA7 PUSH2 0xD85 JUMP JUMPDEST JUMPDEST DUP2 CALLDATALOAD PUSH2 0xEB8 DUP5 DUP3 PUSH1 0x20 DUP7 ADD PUSH2 0xE53 JUMP JUMPDEST SWAP2 POP POP SWAP3 SWAP2 POP POP JUMP JUMPDEST PUSH0 DUP1 PUSH0 DUP1 PUSH1 0x80 DUP6 DUP8 SUB SLT ISZERO PUSH2 0xED9 JUMPI PUSH2 0xED8 PUSH2 0xD4A JUMP JUMPDEST JUMPDEST PUSH0 PUSH2 0xEE6 DUP8 DUP3 DUP9 ADD PUSH2 0xD71 JUMP JUMPDEST SWAP5 POP POP PUSH1 0x20 DUP6 ADD CALLDATALOAD PUSH8 0xFFFFFFFFFFFFFFFF DUP2 GT ISZERO PUSH2 0xF07 JUMPI PUSH2 0xF06 PUSH2 0xD4E JUMP JUMPDEST JUMPDEST PUSH2 0xF13 DUP8 DUP3 DUP9 ADD PUSH2 0xE94 JUMP JUMPDEST SWAP4 POP POP PUSH1 0x40 DUP6 ADD CALLDATALOAD PUSH8 0xFFFFFFFFFFFFFFFF DUP2 GT ISZERO PUSH2 0xF34 JUMPI PUSH2 0xF33 PUSH2 0xD4E JUMP JUMPDEST JUMPDEST PUSH2 0xF40 DUP8 DUP3 DUP9 ADD PUSH2 0xE94 JUMP JUMPDEST SWAP3 POP POP PUSH1 0x60 DUP6 ADD CALLDATALOAD PUSH8 0xFFFFFFFFFFFFFFFF DUP2 GT ISZERO PUSH2 0xF61 JUMPI PUSH2 0xF60 PUSH2 0xD4E JUMP JUMPDEST JUMPDEST PUSH2 0xF6D DUP8 DUP3 DUP9 ADD PUSH2 0xE94 JUMP JUMPDEST SWAP2 POP POP SWAP3 SWAP6 SWAP2 SWAP5 POP SWAP3 POP JUMP JUMPDEST PUSH0 DUP2 ISZERO ISZERO SWAP1 POP SWAP2 SWAP1 POP JUMP JUMPDEST PUSH2 0xF8D DUP2 PUSH2 0xF79 JUMP JUMPDEST DUP3 MSTORE POP POP JUMP JUMPDEST PUSH0 PUSH1 0x20 DUP3 ADD SWAP1 POP PUSH2 0xFA6 PUSH0 DUP4 ADD DUP5 PUSH2 0xF84 JUMP JUMPDEST SWAP3 SWAP2 POP POP JUMP JUMPDEST PUSH0 PUSH1 0x20 DUP3 DUP5 SUB SLT ISZERO PUSH2 0xFC1 JUMPI PUSH2 0xFC0 PUSH2 0xD4A JUMP JUMPDEST JUMPDEST PUSH0 PUSH2 0xFCE DUP5 DUP3 DUP6 ADD PUSH2 0xD71 JUMP JUMPDEST SWAP2 POP POP SWAP3 SWAP2 POP POP JUMP JUMPDEST PUSH0 PUSH20 0xFFFFFFFFFFFFFFFFFFFFFFFFFFFFFFFFFFFFFFFF DUP3 AND SWAP1 POP SWAP2 SWAP1 POP JUMP JUMPDEST PUSH0 PUSH2 0x1000 DUP3 PUSH2 0xFD7 JUMP JUMPDEST SWAP1 POP SWAP2 SWAP1 POP JUMP JUMPDEST PUSH2 0x1010 DUP2 PUSH2 0xFF6 JUMP JUMPDEST DUP3 MSTORE POP POP JUMP JUMPDEST PUSH0 PUSH1 0x20 DUP3 ADD SWAP1 POP PUSH2 0x1029 PUSH0 DUP4 ADD DUP5 PUSH2 0x1007 JUMP JUMPDEST SWAP3 SWAP2 POP POP JUMP JUMPDEST PUSH0 DUP2 SWAP1 POP SWAP2 SWAP1 POP JUMP JUMPDEST PUSH2 0x1041 DUP2 PUSH2 0x102F JUMP JUMPDEST DUP3 MSTORE POP POP JUMP JUMPDEST PUSH0 DUP2 MLOAD SWAP1 POP SWAP2 SWAP1 POP JUMP JUMPDEST PUSH0 DUP3 DUP3 MSTORE PUSH1 0x20 DUP3 ADD SWAP1 POP SWAP3 SWAP2 POP POP JUMP JUMPDEST DUP3 DUP2 DUP4 MCOPY PUSH0 DUP4 DUP4 ADD MSTORE POP POP POP JUMP JUMPDEST PUSH0 PUSH2 0x1079 DUP3 PUSH2 0x1047 JUMP JUMPDEST PUSH2 0x1083 DUP2 DUP6 PUSH2 0x1051 JUMP JUMPDEST SWAP4 POP PUSH2 0x1093 DUP2 DUP6 PUSH1 0x20 DUP7 ADD PUSH2 0x1061 JUMP JUMPDEST PUSH2 0x109C DUP2 PUSH2 0xD8D JUMP JUMPDEST DUP5 ADD SWAP2 POP POP SWAP3 SWAP2 POP POP JUMP JUMPDEST PUSH0 PUSH1 0xA0 DUP3 ADD SWAP1 POP PUSH2 0x10BA PUSH0 DUP4 ADD DUP9 PUSH2 0x1007 JUMP JUMPDEST PUSH2 0x10C7 PUSH1 0x20 DUP4 ADD DUP8 PUSH2 0x1038 JUMP JUMPDEST DUP2 DUP2 SUB PUSH1 0x40 DUP4 ADD MSTORE PUSH2 0x10D9 DUP2 DUP7 PUSH2 0x106F JUMP JUMPDEST SWAP1 POP DUP2 DUP2 SUB PUSH1 0x60 DUP4 ADD MSTORE PUSH2 0x10ED DUP2 DUP6 PUSH2 0x106F JUMP JUMPDEST SWAP1 POP DUP2 DUP2 SUB PUSH1 0x80 DUP4 ADD MSTORE PUSH2 0x1101 DUP2 DUP5 PUSH2 0x106F JUMP JUMPDEST SWAP1 POP SWAP7 SWAP6 POP POP POP POP POP POP JUMP JUMPDEST PUSH0 PUSH1 0x20 DUP3 ADD SWAP1 POP PUSH2 0x1120 PUSH0 DUP4 ADD DUP5 PUSH2 0x1038 JUMP JUMPDEST SWAP3 SWAP2 POP POP JUMP JUMPDEST PUSH2 0x112F DUP2 PUSH2 0xFF6 JUMP JUMPDEST DUP2 EQ PUSH2 0x1139 JUMPI PUSH0 DUP1 REVERT JUMPDEST POP JUMP JUMPDEST PUSH0 DUP2 CALLDATALOAD SWAP1 POP PUSH2 0x114A DUP2 PUSH2 0x1126 JUMP JUMPDEST SWAP3 SWAP2 POP POP JUMP JUMPDEST PUSH0 DUP1 PUSH1 0x40 DUP4 DUP6 SUB SLT ISZERO PUSH2 0x1166 JUMPI PUSH2 0x1165 PUSH2 0xD4A JUMP JUMPDEST JUMPDEST PUSH0 PUSH2 0x1173 DUP6 DUP3 DUP7 ADD PUSH2 0xD71 JUMP JUMPDEST SWAP3 POP POP PUSH1 0x20 PUSH2 0x1184 DUP6 DUP3 DUP7 ADD PUSH2 0x113C JUMP JUMPDEST SWAP2 POP POP SWAP3 POP SWAP3 SWAP1 POP JUMP JUMPDEST PUSH0 PUSH1 0x20 DUP3 DUP5 SUB SLT ISZERO PUSH2 0x11A3 JUMPI PUSH2 0x11A2 PUSH2 0xD4A JUMP JUMPDEST JUMPDEST PUSH0 PUSH2 0x11B0 DUP5 DUP3 DUP6 ADD PUSH2 0x113C JUMP JUMPDEST SWAP2 POP POP SWAP3 SWAP2 POP POP JUMP JUMPDEST PUSH32 0x446F63756D656E7420616C726561647920726567697374657265642E00000000 PUSH0 DUP3 ADD MSTORE POP JUMP JUMPDEST PUSH0 PUSH2 0x11ED PUSH1 0x1C DUP4 PUSH2 0x1051 JUMP JUMPDEST SWAP2 POP PUSH2 0x11F8 DUP3 PUSH2 0x11B9 JUMP JUMPDEST PUSH1 0x20 DUP3 ADD SWAP1 POP SWAP2 SWAP1 POP JUMP JUMPDEST PUSH0 PUSH1 0x20 DUP3 ADD SWAP1 POP DUP2 DUP2 SUB PUSH0 DUP4 ADD MSTORE PUSH2 0x121A DUP2 PUSH2 0x11E1 JUMP JUMPDEST SWAP1 POP SWAP2 SWAP1 POP JUMP JUMPDEST PUSH32 0x4E487B7100000000000000000000000000000000000000000000000000000000 PUSH0 MSTORE PUSH1 0x22 PUSH1 0x4 MSTORE PUSH1 0x24 PUSH0 REVERT JUMPDEST PUSH0 PUSH1 0x2 DUP3 DIV SWAP1 POP PUSH1 0x1 DUP3 AND DUP1 PUSH2 0x1265 JUMPI PUSH1 0x7F DUP3 AND SWAP2 POP JUMPDEST PUSH1 0x20 DUP3 LT DUP2 SUB PUSH2 0x1278 JUMPI PUSH2 0x1277 PUSH2 0x1221 JUMP JUMPDEST JUMPDEST POP SWAP2 SWAP1 POP JUMP JUMPDEST PUSH0 DUP2 SWAP1 POP DUP2 PUSH0 MSTORE PUSH1 0x20 PUSH0 KECCAK256 SWAP1 POP SWAP2 SWAP1 POP JUMP JUMPDEST PUSH0 PUSH1 0x20 PUSH1 0x1F DUP4 ADD DIV SWAP1 POP SWAP2 SWAP1 POP JUMP JUMPDEST PUSH0 DUP3 DUP3 SHL SWAP1 POP SWAP3 SWAP2 POP POP JUMP JUMPDEST PUSH0 PUSH1 0x8 DUP4 MUL PUSH2 0x12DA PUSH32 0xFFFFFFFFFFFFFFFFFFFFFFFFFFFFFFFFFFFFFFFFFFFFFFFFFFFFFFFFFFFFFFFF DUP3 PUSH2 0x129F JUMP JUMPDEST PUSH2 0x12E4 DUP7 DUP4 PUSH2 0x129F JUMP JUMPDEST SWAP6 POP DUP1 NOT DUP5 AND SWAP4 POP DUP1 DUP7 AND DUP5 OR SWAP3 POP POP POP SWAP4 SWAP3 POP POP POP JUMP JUMPDEST PUSH0 DUP2 SWAP1 POP SWAP2 SWAP1 POP JUMP JUMPDEST PUSH0 PUSH2 0x131F PUSH2 0x131A PUSH2 0x1315 DUP5 PUSH2 0x102F JUMP JUMPDEST PUSH2 0x12FC JUMP JUMPDEST PUSH2 0x102F JUMP JUMPDEST SWAP1 POP SWAP2 SWAP1 POP JUMP JUMPDEST PUSH0 DUP2 SWAP1 POP SWAP2 SWAP1 POP JUMP JUMPDEST PUSH2 0x1338 DUP4 PUSH2 0x1305 JUMP JUMPDEST PUSH2 0x134C PUSH2 0x1344 DUP3 PUSH2 0x1326 JUMP JUMPDEST DUP5 DUP5 SLOAD PUSH2 0x12AB JUMP JUMPDEST DUP3 SSTORE POP POP POP POP JUMP JUMPDEST PUSH0 SWAP1 JUMP JUMPDEST PUSH2 0x1360 PUSH2 0x1354 JUMP JUMPDEST PUSH2 0x136B DUP2 DUP5 DUP5 PUSH2 0x132F JUMP JUMPDEST POP POP POP JUMP JUMPDEST JUMPDEST DUP2 DUP2 LT ISZERO PUSH2 0x138E JUMPI PUSH2 0x1383 PUSH0 DUP3 PUSH2 0x1358 JUMP JUMPDEST PUSH1 0x1 DUP2 ADD SWAP1 POP PUSH2 0x1371 JUMP JUMPDEST POP POP JUMP JUMPDEST PUSH1 0x1F DUP3 GT ISZERO PUSH2 0x13D3 JUMPI PUSH2 0x13A4 DUP2 PUSH2 0x127E JUMP JUMPDEST PUSH2 0x13AD DUP5 PUSH2 0x1290 JUMP JUMPDEST DUP2 ADD PUSH1 0x20 DUP6 LT ISZERO PUSH2 0x13BC JUMPI DUP2 SWAP1 POP JUMPDEST PUSH2 0x13D0 PUSH2 0x13C8 DUP6 PUSH2 0x1290 JUMP JUMPDEST DUP4 ADD DUP3 PUSH2 0x1370 JUMP JUMPDEST POP POP JUMPDEST POP POP POP JUMP JUMPDEST PUSH0 DUP3 DUP3 SHR SWAP1 POP SWAP3 SWAP2 POP POP JUMP JUMPDEST PUSH0 PUSH2 0x13F3 PUSH0 NOT DUP5 PUSH1 0x8 MUL PUSH2 0x13D8 JUMP JUMPDEST NOT DUP1 DUP4 AND SWAP2 POP POP SWAP3 SWAP2 POP POP JUMP JUMPDEST PUSH0 PUSH2 0x140B DUP4 DUP4 PUSH2 0x13E4 JUMP JUMPDEST SWAP2 POP DUP3 PUSH1 0x2 MUL DUP3 OR SWAP1 POP SWAP3 SWAP2 POP POP JUMP JUMPDEST PUSH2 0x1424 DUP3 PUSH2 0x1047 JUMP JUMPDEST PUSH8 0xFFFFFFFFFFFFFFFF DUP2 GT ISZERO PUSH2 0x143D JUMPI PUSH2 0x143C PUSH2 0xD9D JUMP JUMPDEST JUMPDEST PUSH2 0x1447 DUP3 SLOAD PUSH2 0x124E JUMP JUMPDEST PUSH2 0x1452 DUP3 DUP3 DUP6 PUSH2 0x1392 JUMP JUMPDEST PUSH0 PUSH1 0x20 SWAP1 POP PUSH1 0x1F DUP4 GT PUSH1 0x1 DUP2 EQ PUSH2 0x1483 JUMPI PUSH0 DUP5 ISZERO PUSH2 0x1471 JUMPI DUP3 DUP8 ADD MLOAD SWAP1 POP JUMPDEST PUSH2 0x147B DUP6 DUP3 PUSH2 0x1400 JUMP JUMPDEST DUP7 SSTORE POP PUSH2 0x14E2 JUMP JUMPDEST PUSH1 0x1F NOT DUP5 AND PUSH2 0x1491 DUP7 PUSH2 0x127E JUMP JUMPDEST PUSH0 JUMPDEST DUP3 DUP2 LT ISZERO PUSH2 0x14B8 JUMPI DUP5 DUP10 ADD MLOAD DUP3 SSTORE PUSH1 0x1 DUP3 ADD SWAP2 POP PUSH1 0x20 DUP6 ADD SWAP5 POP PUSH1 0x20 DUP2 ADD SWAP1 POP PUSH2 0x1493 JUMP JUMPDEST DUP7 DUP4 LT ISZERO PUSH2 0x14D5 JUMPI DUP5 DUP10 ADD MLOAD PUSH2 0x14D1 PUSH1 0x1F DUP10 AND DUP3 PUSH2 0x13E4 JUMP JUMPDEST DUP4 SSTORE POP JUMPDEST PUSH1 0x1 PUSH1 0x2 DUP9 MUL ADD DUP9 SSTORE POP POP POP JUMPDEST POP POP POP POP POP POP JUMP JUMPDEST PUSH0 PUSH1 0x60 DUP3 ADD SWAP1 POP DUP2 DUP2 SUB PUSH0 DUP4 ADD MSTORE PUSH2 0x1502 DUP2 DUP7 PUSH2 0x106F JUMP JUMPDEST SWAP1 POP DUP2 DUP2 SUB PUSH1 0x20 DUP4 ADD MSTORE PUSH2 0x1516 DUP2 DUP6 PUSH2 0x106F JUMP JUMPDEST SWAP1 POP DUP2 DUP2 SUB PUSH1 0x40 DUP4 ADD MSTORE PUSH2 0x152A DUP2 DUP5 PUSH2 0x106F JUMP JUMPDEST SWAP1 POP SWAP5 SWAP4 POP POP POP POP JUMP JUMPDEST PUSH32 0x446F63756D656E74206E6F7420666F756E642E00000000000000000000000000 PUSH0 DUP3 ADD MSTORE POP JUMP JUMPDEST PUSH0 PUSH2 0x1568 PUSH1 0x13 DUP4 PUSH2 0x1051 JUMP JUMPDEST SWAP2 POP PUSH2 0x1573 DUP3 PUSH2 0x1534 JUMP JUMPDEST PUSH1 0x20 DUP3 ADD SWAP1 POP SWAP2 SWAP1 POP JUMP JUMPDEST PUSH0 PUSH1 0x20 DUP3 ADD SWAP1 POP DUP2 DUP2 SUB PUSH0 DUP4 ADD MSTORE PUSH2 0x1595 DUP2 PUSH2 0x155C JUMP JUMPDEST SWAP1 POP SWAP2 SWAP1 POP JUMP JUMPDEST PUSH32 0x4F6E6C7920746865206F776E65722063616E207472616E73666572206F776E65 PUSH0 DUP3 ADD MSTORE PUSH32 0x72736869702E0000000000000000000000000000000000000000000000000000 PUSH1 0x20 DUP3 ADD MSTORE POP JUMP JUMPDEST PUSH0 PUSH2 0x15F6 PUSH1 0x26 DUP4 PUSH2 0x1051 JUMP JUMPDEST SWAP2 POP PUSH2 0x1601 DUP3 PUSH2 0x159C JUMP JUMPDEST PUSH1 0x40 DUP3 ADD SWAP1 POP SWAP2 SWAP1 POP JUMP JUMPDEST PUSH0 PUSH1 0x20 DUP3 ADD SWAP1 POP DUP2 DUP2 SUB PUSH0 DUP4 ADD MSTORE PUSH2 0x1623 DUP2 PUSH2 0x15EA JUMP JUMPDEST SWAP1 POP SWAP2 SWAP1 POP JUMP JUMPDEST PUSH32 0x4E6577206F776E65722063616E6E6F7420626520746865207A65726F20616464 PUSH0 DUP3 ADD MSTORE PUSH32 0x726573732E000000000000000000000000000000000000000000000000000000 PUSH1 0x20 DUP3 ADD MSTORE POP JUMP JUMPDEST PUSH0 PUSH2 0x1684 PUSH1 0x25 DUP4 PUSH2 0x1051 JUMP JUMPDEST SWAP2 POP PUSH2 0x168F DUP3 PUSH2 0x162A JUMP JUMPDEST PUSH1 0x40 DUP3 ADD SWAP1 POP SWAP2 SWAP1 POP JUMP JUMPDEST PUSH0 PUSH1 0x20 DUP3 ADD SWAP1 POP DUP2 DUP2 SUB PUSH0 DUP4 ADD MSTORE PUSH2 0x16B1 DUP2 PUSH2 0x1678 JUMP JUMPDEST SWAP1 POP SWAP2 SWAP1 POP JUMP JUMPDEST PUSH32 0x5061757361626C653A2070617573656400000000000000000000000000000000 PUSH0 DUP3 ADD MSTORE POP JUMP JUMPDEST PUSH0 PUSH2 0x16EC PUSH1 0x10 DUP4 PUSH2 0x1051 JUMP JUMPDEST SWAP2 POP PUSH2 0x16F7 DUP3 PUSH2 0x16B8 JUMP JUMPDEST PUSH1 0x20 DUP3 ADD SWAP1 POP SWAP2 SWAP1 POP JUMP JUMPDEST PUSH0 PUSH1 0x20 DUP3 ADD SWAP1 POP DUP2 DUP2 SUB PUSH0 DUP4 ADD MSTORE PUSH2 0x1719 DUP2 PUSH2 0x16E0 JUMP JUMPDEST SWAP1 POP SWAP2 SWAP1 POP JUMP JUMPDEST PUSH32 0x5061757361626C653A206E6F7420706175736564000000000000000000000000 PUSH0 DUP3 ADD MSTORE POP JUMP JUMPDEST PUSH0 PUSH2 0x1754 PUSH1 0x14 DUP4 PUSH2 0x1051 JUMP JUMPDEST SWAP2 POP PUSH2 0x175F DUP3 PUSH2 0x1720 JUMP JUMPDEST PUSH1 0x20 DUP3 ADD SWAP1 POP SWAP2 SWAP1 POP JUMP JUMPDEST PUSH0 PUSH1 0x20 DUP3 ADD SWAP1 POP DUP2 DUP2 SUB PUSH0 DUP4 ADD MSTORE PUSH2 0x1781 DUP2 PUSH2 0x1748 JUMP JUMPDEST SWAP1 POP SWAP2 SWAP1 POP JUMP INVALID LOG2 PUSH5 0x6970667358 0x22 SLT KECCAK256 0xAF DIV PUSH15 0xF16D644C9E34B3E2B4AC5B5293ED89 0xBA SAR 0xB8 BLOBHASH PUSH15 0x465F24FF7899F6E6E264736F6C6343 STOP ADDMOD BYTE STOP CALLER "
				},
				"gasEstimates": {
					"creation": {
						"codeDepositCost": "1215600",
						"executionCost": "infinite",
						"totalCost": "infinite"
					},
					"external": {
						"getDocumentDetails(bytes32)": "infinite",
						"getDocumentOwner(bytes32)": "5174",
						"getDocumentTimestamp(bytes32)": "5070",
						"isDocumentRegistered(bytes32)": "2857",
						"owner()": "2626",
						"pauseContract()": "infinite",
						"paused()": "2569",
						"registerDocument(bytes32,string,string,string)": "infinite",
						"renounceOwnership()": "infinite",
						"transferDocumentOwnership(bytes32,address)": "35960",
						"transferOwnership(address)": "infinite",
						"unpauseContract()": "infinite",
						"verifyDocument(bytes32)": "2920"
					}
				},
				"methodIdentifiers": {
					"getDocumentDetails(bytes32)": "8e4d0f40",
					"getDocumentOwner(bytes32)": "a2428b73",
					"getDocumentTimestamp(bytes32)": "95f2f9f4",
					"isDocumentRegistered(bytes32)": "618e6ce6",
					"owner()": "8da5cb5b",
					"pauseContract()": "439766ce",
					"paused()": "5c975abb",
					"registerDocument(bytes32,string,string,string)": "4640c148",
					"renounceOwnership()": "715018a6",
					"transferDocumentOwnership(bytes32,address)": "e8c5fdfe",
					"transferOwnership(address)": "f2fde38b",
					"unpauseContract()": "b33712c5",
					"verifyDocument(bytes32)": "fe35089f"
				}
			},
			"storageLayout": {
				"storage": [
					{
						"astId": 8,
						"contract": "Proofication/DocumentAudit.sol:DocumentAudit",
						"label": "_owner",
						"offset": 0,
						"slot": "0",
						"type": "t_address"
					},
					{
						"astId": 165,
						"contract": "Proofication/DocumentAudit.sol:DocumentAudit",
						"label": "_paused",
						"offset": 20,
						"slot": "0",
						"type": "t_bool"
					},
					{
						"astId": 309,
						"contract": "Proofication/DocumentAudit.sol:DocumentAudit",
						"label": "documents",
						"offset": 0,
						"slot": "1",
						"type": "t_mapping(t_bytes32,t_struct(Document)304_storage)"
					}
				],
				"types": {
					"t_address": {
						"encoding": "inplace",
						"label": "address",
						"numberOfBytes": "20"
					},
					"t_bool": {
						"encoding": "inplace",
						"label": "bool",
						"numberOfBytes": "1"
					},
					"t_bytes32": {
						"encoding": "inplace",
						"label": "bytes32",
						"numberOfBytes": "32"
					},
					"t_mapping(t_bytes32,t_struct(Document)304_storage)": {
						"encoding": "mapping",
						"key": "t_bytes32",
						"label": "mapping(bytes32 => struct DocumentAudit.Document)",
						"numberOfBytes": "32",
						"value": "t_struct(Document)304_storage"
					},
					"t_string_storage": {
						"encoding": "bytes",
						"label": "string",
						"numberOfBytes": "32"
					},
					"t_struct(Document)304_storage": {
						"encoding": "inplace",
						"label": "struct DocumentAudit.Document",
						"members": [
							{
								"astId": 295,
								"contract": "Proofication/DocumentAudit.sol:DocumentAudit",
								"label": "owner",
								"offset": 0,
								"slot": "0",
								"type": "t_address"
							},
							{
								"astId": 297,
								"contract": "Proofication/DocumentAudit.sol:DocumentAudit",
								"label": "timestamp",
								"offset": 0,
								"slot": "1",
								"type": "t_uint256"
							},
							{
								"astId": 299,
								"contract": "Proofication/DocumentAudit.sol:DocumentAudit",
								"label": "registrantName",
								"offset": 0,
								"slot": "2",
								"type": "t_string_storage"
							},
							{
								"astId": 301,
								"contract": "Proofication/DocumentAudit.sol:DocumentAudit",
								"label": "organization",
								"offset": 0,
								"slot": "3",
								"type": "t_string_storage"
							},
							{
								"astId": 303,
								"contract": "Proofication/DocumentAudit.sol:DocumentAudit",
								"label": "identifier",
								"offset": 0,
								"slot": "4",
								"type": "t_string_storage"
							}
						],
						"numberOfBytes": "160"
					},
					"t_uint256": {
						"encoding": "inplace",
						"label": "uint256",
						"numberOfBytes": "32"
					}
				}
			},
			"userdoc": {
				"kind": "user",
				"methods": {},
				"version": 1
			}
		}
	}
}