{
	"data": {
		"bytecode": {
			"linkReferences": {},
			"object": "608060405234801561000f575f80fd5b50336040518060400160405280600981526020017f50757a7a6c654e465400000000000000000000000000000000000000000000008152506040518060400160405280600481526020017f504e465400000000000000000000000000000000000000000000000000000000815250815f908161008b9190610420565b50806001908161009b9190610420565b5050505f73ffffffffffffffffffffffffffffffffffffffff168173ffffffffffffffffffffffffffffffffffffffff160361010e575f6040517f1e4fbdf7000000000000000000000000000000000000000000000000000000008152600401610105919061052e565b60405180910390fd5b61011d8161012360201b60201c565b50610547565b5f60075f9054906101000a900473ffffffffffffffffffffffffffffffffffffffff1690508160075f6101000a81548173ffffffffffffffffffffffffffffffffffffffff021916908373ffffffffffffffffffffffffffffffffffffffff1602179055508173ffffffffffffffffffffffffffffffffffffffff168173ffffffffffffffffffffffffffffffffffffffff167f8be0079c531659141344cd1fd0a4f28419497f9722a3daafe3b4186f6b6457e060405160405180910390a35050565b5f81519050919050565b7f4e487b71000000000000000000000000000000000000000000000000000000005f52604160045260245ffd5b7f4e487b71000000000000000000000000000000000000000000000000000000005f52602260045260245ffd5b5f600282049050600182168061026157607f821691505b6020821081036102745761027361021d565b5b50919050565b5f819050815f5260205f209050919050565b5f6020601f8301049050919050565b5f82821b905092915050565b5f600883026102d67fffffffffffffffffffffffffffffffffffffffffffffffffffffffffffffffff8261029b565b6102e0868361029b565b95508019841693508086168417925050509392505050565b5f819050919050565b5f819050919050565b5f61032461031f61031a846102f8565b610301565b6102f8565b9050919050565b5f819050919050565b61033d8361030a565b6103516103498261032b565b8484546102a7565b825550505050565b5f90565b610365610359565b610370818484610334565b505050565b5b81811015610393576103885f8261035d565b600181019050610376565b5050565b601f8211156103d8576103a98161027a565b6103b28461028c565b810160208510156103c1578190505b6103d56103cd8561028c565b830182610375565b50505b505050565b5f82821c905092915050565b5f6103f85f19846008026103dd565b1980831691505092915050565b5f61041083836103e9565b9150826002028217905092915050565b610429826101e6565b67ffffffffffffffff811115610442576104416101f0565b5b61044c825461024a565b610457828285610397565b5f60209050601f831160018114610488575f8415610476578287015190505b6104808582610405565b8655506104e7565b601f1984166104968661027a565b5f5b828110156104bd57848901518255600182019150602085019450602081019050610498565b868310156104da57848901516104d6601f8916826103e9565b8355505b6001600288020188555050505b505050505050565b5f73ffffffffffffffffffffffffffffffffffffffff82169050919050565b5f610518826104ef565b9050919050565b6105288161050e565b82525050565b5f6020820190506105415f83018461051f565b92915050565b613245806105545f395ff3fe608060405234801561000f575f80fd5b506004361061014b575f3560e01c806370a08231116100c1578063a22cb4651161007a578063a22cb46514610389578063b88d4fde146103a5578063c87b56dd146103c1578063ce4dc192146103f1578063e985e9c51461040d578063f2fde38b1461043d5761014b565b806370a08231146102c7578063715018a6146102f75780637280f217146103015780638462151c1461031d5780638da5cb5b1461034d57806395d89b411461036b5761014b565b80632004ffd9116101135780632004ffd91461021957806323b872dd146102235780633da8d1a51461023f57806342842e0e1461025d5780634515faf9146102795780636352211e146102975761014b565b806301ffc9a71461014f57806306fdde031461017f578063081812fc1461019d578063095ea7b3146101cd5780630d41ec54146101e9575b5f80fd5b610169600480360381019061016491906122d9565b610459565b604051610176919061231e565b60405180910390f35b6101876104b9565b60405161019491906123a7565b60405180910390f35b6101b760048036038101906101b291906123fa565b610548565b6040516101c49190612464565b60405180910390f35b6101e760048036038101906101e291906124a7565b610563565b005b61020360048036038101906101fe91906123fa565b610579565b60405161021091906124f4565b60405180910390f35b61022161058e565b005b61023d6004803603810190610238919061250d565b61076f565b005b61024761086e565b60405161025491906124f4565b60405180910390f35b6102776004803603810190610272919061250d565b610873565b005b610281610892565b60405161028e9190612464565b60405180910390f35b6102b160048036038101906102ac91906123fa565b6108b7565b6040516102be9190612464565b60405180910390f35b6102e160048036038101906102dc919061255d565b6108c8565b6040516102ee91906124f4565b60405180910390f35b6102ff61097e565b005b61031b600480360381019061031691906124a7565b610991565b005b6103376004803603810190610332919061255d565b610a86565b604051610344919061263f565b60405180910390f35b610355610b19565b6040516103629190612464565b60405180910390f35b610373610b41565b60405161038091906123a7565b60405180910390f35b6103a3600480360381019061039e9190612689565b610bd1565b005b6103bf60048036038101906103ba91906127f3565b610be7565b005b6103db60048036038101906103d691906123fa565b610c0c565b6040516103e891906123a7565b60405180910390f35b61040b6004803603810190610406919061255d565b610d17565b005b61042760048036038101906104229190612873565b610d62565b604051610434919061231e565b60405180910390f35b6104576004803603810190610452919061255d565b610df0565b005b5f634906490660e01b7bffffffffffffffffffffffffffffffffffffffffffffffffffffffff1916827bffffffffffffffffffffffffffffffffffffffffffffffffffffffff191614806104b257506104b182610e74565b5b9050919050565b60605f80546104c7906128de565b80601f01602080910402602001604051908101604052809291908181526020018280546104f3906128de565b801561053e5780601f106105155761010080835404028352916020019161053e565b820191905f5260205f20905b81548152906001019060200180831161052157829003601f168201915b5050505050905090565b5f61055282610f55565b5061055c82610fdb565b9050919050565b6105758282610570611014565b61101b565b5050565b600b602052805f5260405f205f915090505481565b600a5f3373ffffffffffffffffffffffffffffffffffffffff1673ffffffffffffffffffffffffffffffffffffffff1681526020019081526020015f205f9054906101000a900460ff1615610618576040517f08c379a000000000000000000000000000000000000000000000000000000000815260040161060f90612958565b60405180910390fd5b6103e8603c61062791906129a3565b610631600861102d565b10610671576040517f08c379a000000000000000000000000000000000000000000000000000000000815260040161066890612a2e565b60405180910390fd5b5f61067c600861102d565b90506106886008611039565b5f6106923361104d565b905080600b5f8481526020019081526020015f20819055506106b4338361109f565b6001600a5f3373ffffffffffffffffffffffffffffffffffffffff1673ffffffffffffffffffffffffffffffffffffffff1681526020019081526020015f205f6101000a81548160ff0219169083151502179055505f610713826110bc565b6040516020016107239190612b40565b604051602081830303815290604052905061073e838261123a565b61076a60095f9054906101000a900473ffffffffffffffffffffffffffffffffffffffff166001610bd1565b505050565b5f73ffffffffffffffffffffffffffffffffffffffff168273ffffffffffffffffffffffffffffffffffffffff16036107df575f6040517f64a0ae920000000000000000000000000000000000000000000000000000000081526004016107d69190612464565b60405180910390fd5b5f6107f283836107ed611014565b611294565b90508373ffffffffffffffffffffffffffffffffffffffff168173ffffffffffffffffffffffffffffffffffffffff1614610868578382826040517f64283d7b00000000000000000000000000000000000000000000000000000000815260040161085f93929190612b6c565b60405180910390fd5b50505050565b603c81565b61088d83838360405180602001604052805f815250610be7565b505050565b60095f9054906101000a900473ffffffffffffffffffffffffffffffffffffffff1681565b5f6108c182610f55565b9050919050565b5f8073ffffffffffffffffffffffffffffffffffffffff168273ffffffffffffffffffffffffffffffffffffffff1603610939575f6040517f89c62b640000000000000000000000000000000000000000000000000000000081526004016109309190612464565b60405180910390fd5b60035f8373ffffffffffffffffffffffffffffffffffffffff1673ffffffffffffffffffffffffffffffffffffffff1681526020019081526020015f20549050919050565b610986611381565b61098f5f611408565b565b610999611381565b5f811180156109a95750603c8111155b6109e8576040517f08c379a00000000000000000000000000000000000000000000000000000000081526004016109df90612beb565b60405180910390fd5b5f6109f3600861102d565b90506109ff6008611039565b81600b5f8381526020019081526020015f2081905550610a1f838261109f565b5f610a29836110bc565b604051602001610a399190612b40565b6040516020818303038152906040529050610a54828261123a565b610a8060095f9054906101000a900473ffffffffffffffffffffffffffffffffffffffff166001610bd1565b50505050565b6060600c5f8373ffffffffffffffffffffffffffffffffffffffff1673ffffffffffffffffffffffffffffffffffffffff1681526020019081526020015f20805480602002602001604051908101604052809291908181526020018280548015610b0d57602002820191905f5260205f20905b815481526020019060010190808311610af9575b50505050509050919050565b5f60075f9054906101000a900473ffffffffffffffffffffffffffffffffffffffff16905090565b606060018054610b50906128de565b80601f0160208091040260200160405190810160405280929190818152602001828054610b7c906128de565b8015610bc75780601f10610b9e57610100808354040283529160200191610bc7565b820191905f5260205f20905b815481529060010190602001808311610baa57829003601f168201915b5050505050905090565b610be3610bdc611014565b83836114cb565b5050565b610bf284848461076f565b610c06610bfd611014565b85858585611634565b50505050565b6060610c1782610f55565b505f60065f8481526020019081526020015f208054610c35906128de565b80601f0160208091040260200160405190810160405280929190818152602001828054610c61906128de565b8015610cac5780601f10610c8357610100808354040283529160200191610cac565b820191905f5260205f20905b815481529060010190602001808311610c8f57829003601f168201915b505050505090505f610cbc6117e0565b90505f815103610cd0578192505050610d12565b5f82511115610d04578082604051602001610cec929190612c09565b60405160208183030381529060405292505050610d12565b610d0d846117f6565b925050505b919050565b610d1f611381565b8060095f6101000a81548173ffffffffffffffffffffffffffffffffffffffff021916908373ffffffffffffffffffffffffffffffffffffffff16021790555050565b5f60055f8473ffffffffffffffffffffffffffffffffffffffff1673ffffffffffffffffffffffffffffffffffffffff1681526020019081526020015f205f8373ffffffffffffffffffffffffffffffffffffffff1673ffffffffffffffffffffffffffffffffffffffff1681526020019081526020015f205f9054906101000a900460ff16905092915050565b610df8611381565b5f73ffffffffffffffffffffffffffffffffffffffff168173ffffffffffffffffffffffffffffffffffffffff1603610e68575f6040517f1e4fbdf7000000000000000000000000000000000000000000000000000000008152600401610e5f9190612464565b60405180910390fd5b610e7181611408565b50565b5f7f80ac58cd000000000000000000000000000000000000000000000000000000007bffffffffffffffffffffffffffffffffffffffffffffffffffffffff1916827bffffffffffffffffffffffffffffffffffffffffffffffffffffffff19161480610f3e57507f5b5e139f000000000000000000000000000000000000000000000000000000007bffffffffffffffffffffffffffffffffffffffffffffffffffffffff1916827bffffffffffffffffffffffffffffffffffffffffffffffffffffffff1916145b80610f4e5750610f4d8261185c565b5b9050919050565b5f80610f60836118c5565b90505f73ffffffffffffffffffffffffffffffffffffffff168173ffffffffffffffffffffffffffffffffffffffff1603610fd257826040517f7e273289000000000000000000000000000000000000000000000000000000008152600401610fc991906124f4565b60405180910390fd5b80915050919050565b5f60045f8381526020019081526020015f205f9054906101000a900473ffffffffffffffffffffffffffffffffffffffff169050919050565b5f33905090565b61102883838360016118fe565b505050565b5f815f01549050919050565b6001815f015f828254019250508190555050565b5f8042448460405160200161106493929190612c91565b604051602081830303815290604052805190602001205f1c90506001603c8261108d9190612cfa565b6110979190612d2a565b915050919050565b6110b8828260405180602001604052805f815250611abd565b5050565b60605f8203611102576040518060400160405280600181526020017f30000000000000000000000000000000000000000000000000000000000000008152509050611235565b5f8290505f5b5f821461113157808061111a90612d5d565b915050600a8261112a9190612da4565b9150611108565b5f8167ffffffffffffffff81111561114c5761114b6126cf565b5b6040519080825280601f01601f19166020018201604052801561117e5781602001600182028036833780820191505090505b5090505f8290505b5f861461122d5760018161119a9190612dd4565b90505f600a80886111ab9190612da4565b6111b591906129a3565b876111c09190612dd4565b60306111cc9190612e13565b90505f8160f81b9050808484815181106111e9576111e8612e47565b5b60200101907effffffffffffffffffffffffffffffffffffffffffffffffffffffffffffff191690815f1a905350600a886112249190612da4565b97505050611186565b819450505050505b919050565b8060065f8481526020019081526020015f2090816112589190613011565b507ff8e1a15aba9398e019f0b49df1a4fde98ee17ae345cb5f6b5e2c27f5033e8ce78260405161128891906124f4565b60405180910390a15050565b5f806112a1858585611ae0565b90505f73ffffffffffffffffffffffffffffffffffffffff168173ffffffffffffffffffffffffffffffffffffffff16146112e1576112e08185611ceb565b5b5f73ffffffffffffffffffffffffffffffffffffffff168573ffffffffffffffffffffffffffffffffffffffff161461137657600c5f8673ffffffffffffffffffffffffffffffffffffffff1673ffffffffffffffffffffffffffffffffffffffff1681526020019081526020015f2084908060018154018082558091505060019003905f5260205f20015f90919091909150555b809150509392505050565b611389611014565b73ffffffffffffffffffffffffffffffffffffffff166113a7610b19565b73ffffffffffffffffffffffffffffffffffffffff1614611406576113ca611014565b6040517f118cdaa70000000000000000000000000000000000000000000000000000000081526004016113fd9190612464565b60405180910390fd5b565b5f60075f9054906101000a900473ffffffffffffffffffffffffffffffffffffffff1690508160075f6101000a81548173ffffffffffffffffffffffffffffffffffffffff021916908373ffffffffffffffffffffffffffffffffffffffff1602179055508173ffffffffffffffffffffffffffffffffffffffff168173ffffffffffffffffffffffffffffffffffffffff167f8be0079c531659141344cd1fd0a4f28419497f9722a3daafe3b4186f6b6457e060405160405180910390a35050565b5f73ffffffffffffffffffffffffffffffffffffffff168273ffffffffffffffffffffffffffffffffffffffff160361153b57816040517f5b08ba180000000000000000000000000000000000000000000000000000000081526004016115329190612464565b60405180910390fd5b8060055f8573ffffffffffffffffffffffffffffffffffffffff1673ffffffffffffffffffffffffffffffffffffffff1681526020019081526020015f205f8473ffffffffffffffffffffffffffffffffffffffff1673ffffffffffffffffffffffffffffffffffffffff1681526020019081526020015f205f6101000a81548160ff0219169083151502179055508173ffffffffffffffffffffffffffffffffffffffff168373ffffffffffffffffffffffffffffffffffffffff167f17307eab39ab6107e8899845ad3d59bd9653f200f220920489ca2b5937696c3183604051611627919061231e565b60405180910390a3505050565b5f8373ffffffffffffffffffffffffffffffffffffffff163b11156117d9578273ffffffffffffffffffffffffffffffffffffffff1663150b7a02868685856040518563ffffffff1660e01b81526004016116929493929190613132565b6020604051808303815f875af19250505080156116cd57506040513d601f19601f820116820180604052508101906116ca9190613190565b60015b61174e573d805f81146116fb576040519150601f19603f3d011682016040523d82523d5f602084013e611700565b606091505b505f81510361174657836040517f64a0ae9200000000000000000000000000000000000000000000000000000000815260040161173d9190612464565b60405180910390fd5b805181602001fd5b63150b7a0260e01b7bffffffffffffffffffffffffffffffffffffffffffffffffffffffff1916817bffffffffffffffffffffffffffffffffffffffffffffffffffffffff1916146117d757836040517f64a0ae920000000000000000000000000000000000000000000000000000000081526004016117ce9190612464565b60405180910390fd5b505b5050505050565b606060405180602001604052805f815250905090565b606061180182610f55565b505f61180b6117e0565b90505f8151116118295760405180602001604052805f815250611854565b8061183384611de2565b604051602001611844929190612c09565b6040516020818303038152906040525b915050919050565b5f7f01ffc9a7000000000000000000000000000000000000000000000000000000007bffffffffffffffffffffffffffffffffffffffffffffffffffffffff1916827bffffffffffffffffffffffffffffffffffffffffffffffffffffffff1916149050919050565b5f60025f8381526020019081526020015f205f9054906101000a900473ffffffffffffffffffffffffffffffffffffffff169050919050565b808061193657505f73ffffffffffffffffffffffffffffffffffffffff168273ffffffffffffffffffffffffffffffffffffffff1614155b15611a68575f61194584610f55565b90505f73ffffffffffffffffffffffffffffffffffffffff168373ffffffffffffffffffffffffffffffffffffffff16141580156119af57508273ffffffffffffffffffffffffffffffffffffffff168173ffffffffffffffffffffffffffffffffffffffff1614155b80156119c257506119c08184610d62565b155b15611a0457826040517fa9fbf51f0000000000000000000000000000000000000000000000000000000081526004016119fb9190612464565b60405180910390fd5b8115611a6657838573ffffffffffffffffffffffffffffffffffffffff168273ffffffffffffffffffffffffffffffffffffffff167f8c5be1e5ebec7d5bd14f71427d1e84f3dd0314c0f7b2291e5b200ac8c7c3b92560405160405180910390a45b505b8360045f8581526020019081526020015f205f6101000a81548173ffffffffffffffffffffffffffffffffffffffff021916908373ffffffffffffffffffffffffffffffffffffffff16021790555050505050565b611ac78383611eac565b611adb611ad2611014565b5f858585611634565b505050565b5f80611aeb846118c5565b90505f73ffffffffffffffffffffffffffffffffffffffff168373ffffffffffffffffffffffffffffffffffffffff1614611b2c57611b2b818486611f9f565b5b5f73ffffffffffffffffffffffffffffffffffffffff168173ffffffffffffffffffffffffffffffffffffffff1614611bb757611b6b5f855f806118fe565b600160035f8373ffffffffffffffffffffffffffffffffffffffff1673ffffffffffffffffffffffffffffffffffffffff1681526020019081526020015f205f82825403925050819055505b5f73ffffffffffffffffffffffffffffffffffffffff168573ffffffffffffffffffffffffffffffffffffffff1614611c3657600160035f8773ffffffffffffffffffffffffffffffffffffffff1673ffffffffffffffffffffffffffffffffffffffff1681526020019081526020015f205f82825401925050819055505b8460025f8681526020019081526020015f205f6101000a81548173ffffffffffffffffffffffffffffffffffffffff021916908373ffffffffffffffffffffffffffffffffffffffff160217905550838573ffffffffffffffffffffffffffffffffffffffff168273ffffffffffffffffffffffffffffffffffffffff167fddf252ad1be2c89b69c2b068fc378daa952ba7f163c4a11628f55a4df523b3ef60405160405180910390a4809150509392505050565b5f600c5f8473ffffffffffffffffffffffffffffffffffffffff1673ffffffffffffffffffffffffffffffffffffffff1681526020019081526020015f2090505f5b8180549050811015611ddc5782828281548110611d4d57611d4c612e47565b5b905f5260205f20015403611dcf578160018380549050611d6d9190612dd4565b81548110611d7e57611d7d612e47565b5b905f5260205f200154828281548110611d9a57611d99612e47565b5b905f5260205f20018190555081805480611db757611db66131bb565b5b600190038181905f5260205f20015f90559055611ddc565b8080600101915050611d2d565b50505050565b60605f6001611df084612062565b0190505f8167ffffffffffffffff811115611e0e57611e0d6126cf565b5b6040519080825280601f01601f191660200182016040528015611e405781602001600182028036833780820191505090505b5090505f82602001820190505b600115611ea1578080600190039150507f3031323334353637383961626364656600000000000000000000000000000000600a86061a8153600a8581611e9657611e95612ccd565b5b0494505f8503611e4d575b819350505050919050565b5f73ffffffffffffffffffffffffffffffffffffffff168273ffffffffffffffffffffffffffffffffffffffff1603611f1c575f6040517f64a0ae92000000000000000000000000000000000000000000000000000000008152600401611f139190612464565b60405180910390fd5b5f611f2883835f611294565b90505f73ffffffffffffffffffffffffffffffffffffffff168173ffffffffffffffffffffffffffffffffffffffff1614611f9a575f6040517f73c6ac6e000000000000000000000000000000000000000000000000000000008152600401611f919190612464565b60405180910390fd5b505050565b611faa8383836121b3565b61205d575f73ffffffffffffffffffffffffffffffffffffffff168373ffffffffffffffffffffffffffffffffffffffff160361201e57806040517f7e27328900000000000000000000000000000000000000000000000000000000815260040161201591906124f4565b60405180910390fd5b81816040517f177e802f0000000000000000000000000000000000000000000000000000000081526004016120549291906131e8565b60405180910390fd5b505050565b5f805f90507a184f03e93ff9f4daa797ed6e38ed64bf6a1f01000000000000000083106120be577a184f03e93ff9f4daa797ed6e38ed64bf6a1f01000000000000000083816120b4576120b3612ccd565b5b0492506040810190505b6d04ee2d6d415b85acef810000000083106120fb576d04ee2d6d415b85acef810000000083816120f1576120f0612ccd565b5b0492506020810190505b662386f26fc10000831061212a57662386f26fc1000083816121205761211f612ccd565b5b0492506010810190505b6305f5e1008310612153576305f5e100838161214957612148612ccd565b5b0492506008810190505b612710831061217857612710838161216e5761216d612ccd565b5b0492506004810190505b6064831061219b576064838161219157612190612ccd565b5b0492506002810190505b600a83106121aa576001810190505b80915050919050565b5f8073ffffffffffffffffffffffffffffffffffffffff168373ffffffffffffffffffffffffffffffffffffffff161415801561226a57508273ffffffffffffffffffffffffffffffffffffffff168473ffffffffffffffffffffffffffffffffffffffff16148061222b575061222a8484610d62565b5b8061226957508273ffffffffffffffffffffffffffffffffffffffff1661225183610fdb565b73ffffffffffffffffffffffffffffffffffffffff16145b5b90509392505050565b5f604051905090565b5f80fd5b5f80fd5b5f7fffffffff0000000000000000000000000000000000000000000000000000000082169050919050565b6122b881612284565b81146122c2575f80fd5b50565b5f813590506122d3816122af565b92915050565b5f602082840312156122ee576122ed61227c565b5b5f6122fb848285016122c5565b91505092915050565b5f8115159050919050565b61231881612304565b82525050565b5f6020820190506123315f83018461230f565b92915050565b5f81519050919050565b5f82825260208201905092915050565b8281835e5f83830152505050565b5f601f19601f8301169050919050565b5f61237982612337565b6123838185612341565b9350612393818560208601612351565b61239c8161235f565b840191505092915050565b5f6020820190508181035f8301526123bf818461236f565b905092915050565b5f819050919050565b6123d9816123c7565b81146123e3575f80fd5b50565b5f813590506123f4816123d0565b92915050565b5f6020828403121561240f5761240e61227c565b5b5f61241c848285016123e6565b91505092915050565b5f73ffffffffffffffffffffffffffffffffffffffff82169050919050565b5f61244e82612425565b9050919050565b61245e81612444565b82525050565b5f6020820190506124775f830184612455565b92915050565b61248681612444565b8114612490575f80fd5b50565b5f813590506124a18161247d565b92915050565b5f80604083850312156124bd576124bc61227c565b5b5f6124ca85828601612493565b92505060206124db858286016123e6565b9150509250929050565b6124ee816123c7565b82525050565b5f6020820190506125075f8301846124e5565b92915050565b5f805f606084860312156125245761252361227c565b5b5f61253186828701612493565b935050602061254286828701612493565b9250506040612553868287016123e6565b9150509250925092565b5f602082840312156125725761257161227c565b5b5f61257f84828501612493565b91505092915050565b5f81519050919050565b5f82825260208201905092915050565b5f819050602082019050919050565b6125ba816123c7565b82525050565b5f6125cb83836125b1565b60208301905092915050565b5f602082019050919050565b5f6125ed82612588565b6125f78185612592565b9350612602836125a2565b805f5b8381101561263257815161261988826125c0565b9750612624836125d7565b925050600181019050612605565b5085935050505092915050565b5f6020820190508181035f83015261265781846125e3565b905092915050565b61266881612304565b8114612672575f80fd5b50565b5f813590506126838161265f565b92915050565b5f806040838503121561269f5761269e61227c565b5b5f6126ac85828601612493565b92505060206126bd85828601612675565b9150509250929050565b5f80fd5b5f80fd5b7f4e487b71000000000000000000000000000000000000000000000000000000005f52604160045260245ffd5b6127058261235f565b810181811067ffffffffffffffff82111715612724576127236126cf565b5b80604052505050565b5f612736612273565b905061274282826126fc565b919050565b5f67ffffffffffffffff821115612761576127606126cf565b5b61276a8261235f565b9050602081019050919050565b828183375f83830152505050565b5f61279761279284612747565b61272d565b9050828152602081018484840111156127b3576127b26126cb565b5b6127be848285612777565b509392505050565b5f82601f8301126127da576127d96126c7565b5b81356127ea848260208601612785565b91505092915050565b5f805f806080858703121561280b5761280a61227c565b5b5f61281887828801612493565b945050602061282987828801612493565b935050604061283a878288016123e6565b925050606085013567ffffffffffffffff81111561285b5761285a612280565b5b612867878288016127c6565b91505092959194509250565b5f80604083850312156128895761288861227c565b5b5f61289685828601612493565b92505060206128a785828601612493565b9150509250929050565b7f4e487b71000000000000000000000000000000000000000000000000000000005f52602260045260245ffd5b5f60028204905060018216806128f557607f821691505b602082108103612908576129076128b1565b5b50919050565b7f596f752063616e206f6e6c79206d696e74206f6e6520746f6b656e2e000000005f82015250565b5f612942601c83612341565b915061294d8261290e565b602082019050919050565b5f6020820190508181035f83015261296f81612936565b9050919050565b7f4e487b71000000000000000000000000000000000000000000000000000000005f52601160045260245ffd5b5f6129ad826123c7565b91506129b8836123c7565b92508282026129c6816123c7565b915082820484148315176129dd576129dc612976565b5b5092915050565b7f4d6178696d756d20746f6b656e73206d696e7465642e000000000000000000005f82015250565b5f612a18601683612341565b9150612a23826129e4565b602082019050919050565b5f6020820190508181035f830152612a4581612a0c565b9050919050565b5f81905092915050565b7f68747470733a2f2f716f6c642e62697472612e6d61726b65742f77702d696e635f8201527f6c756465732f70757a7a6c652f00000000000000000000000000000000000000602082015250565b5f612ab0602d83612a4c565b9150612abb82612a56565b602d82019050919050565b5f612ad082612337565b612ada8185612a4c565b9350612aea818560208601612351565b80840191505092915050565b7f2e6a736f6e0000000000000000000000000000000000000000000000000000005f82015250565b5f612b2a600583612a4c565b9150612b3582612af6565b600582019050919050565b5f612b4a82612aa4565b9150612b568284612ac6565b9150612b6182612b1e565b915081905092915050565b5f606082019050612b7f5f830186612455565b612b8c60208301856124e5565b612b996040830184612455565b949350505050565b7f496e76616c696420696d6167652049442e0000000000000000000000000000005f82015250565b5f612bd5601183612341565b9150612be082612ba1565b602082019050919050565b5f6020820190508181035f830152612c0281612bc9565b9050919050565b5f612c148285612ac6565b9150612c208284612ac6565b91508190509392505050565b5f819050919050565b612c46612c41826123c7565b612c2c565b82525050565b5f8160601b9050919050565b5f612c6282612c4c565b9050919050565b5f612c7382612c58565b9050919050565b612c8b612c8682612444565b612c69565b82525050565b5f612c9c8286612c35565b602082019150612cac8285612c35565b602082019150612cbc8284612c7a565b601482019150819050949350505050565b7f4e487b71000000000000000000000000000000000000000000000000000000005f52601260045260245ffd5b5f612d04826123c7565b9150612d0f836123c7565b925082612d1f57612d1e612ccd565b5b828206905092915050565b5f612d34826123c7565b9150612d3f836123c7565b9250828201905080821115612d5757612d56612976565b5b92915050565b5f612d67826123c7565b91507fffffffffffffffffffffffffffffffffffffffffffffffffffffffffffffffff8203612d9957612d98612976565b5b600182019050919050565b5f612dae826123c7565b9150612db9836123c7565b925082612dc957612dc8612ccd565b5b828204905092915050565b5f612dde826123c7565b9150612de9836123c7565b9250828203905081811115612e0157612e00612976565b5b92915050565b5f60ff82169050919050565b5f612e1d82612e07565b9150612e2883612e07565b9250828201905060ff811115612e4157612e40612976565b5b92915050565b7f4e487b71000000000000000000000000000000000000000000000000000000005f52603260045260245ffd5b5f819050815f5260205f209050919050565b5f6020601f8301049050919050565b5f82821b905092915050565b5f60088302612ed07fffffffffffffffffffffffffffffffffffffffffffffffffffffffffffffffff82612e95565b612eda8683612e95565b95508019841693508086168417925050509392505050565b5f819050919050565b5f612f15612f10612f0b846123c7565b612ef2565b6123c7565b9050919050565b5f819050919050565b612f2e83612efb565b612f42612f3a82612f1c565b848454612ea1565b825550505050565b5f90565b612f56612f4a565b612f61818484612f25565b505050565b5b81811015612f8457612f795f82612f4e565b600181019050612f67565b5050565b601f821115612fc957612f9a81612e74565b612fa384612e86565b81016020851015612fb2578190505b612fc6612fbe85612e86565b830182612f66565b50505b505050565b5f82821c905092915050565b5f612fe95f1984600802612fce565b1980831691505092915050565b5f6130018383612fda565b9150826002028217905092915050565b61301a82612337565b67ffffffffffffffff811115613033576130326126cf565b5b61303d82546128de565b613048828285612f88565b5f60209050601f831160018114613079575f8415613067578287015190505b6130718582612ff6565b8655506130d8565b601f19841661308786612e74565b5f5b828110156130ae57848901518255600182019150602085019450602081019050613089565b868310156130cb57848901516130c7601f891682612fda565b8355505b6001600288020188555050505b505050505050565b5f81519050919050565b5f82825260208201905092915050565b5f613104826130e0565b61310e81856130ea565b935061311e818560208601612351565b6131278161235f565b840191505092915050565b5f6080820190506131455f830187612455565b6131526020830186612455565b61315f60408301856124e5565b818103606083015261317181846130fa565b905095945050505050565b5f8151905061318a816122af565b92915050565b5f602082840312156131a5576131a461227c565b5b5f6131b28482850161317c565b91505092915050565b7f4e487b71000000000000000000000000000000000000000000000000000000005f52603160045260245ffd5b5f6040820190506131fb5f830185612455565b61320860208301846124e5565b939250505056fea26469706673582212204672200de072dbf97420831d6be04c8855553b0215d1bae5267fb3681f758e6a64736f6c634300081a0033",
			"opcodes": "PUSH1 0x80 PUSH1 0x40 MSTORE CALLVALUE DUP1 ISZERO PUSH2 0xF JUMPI PUSH0 DUP1 REVERT JUMPDEST POP CALLER PUSH1 0x40 MLOAD DUP1 PUSH1 0x40 ADD PUSH1 0x40 MSTORE DUP1 PUSH1 0x9 DUP2 MSTORE PUSH1 0x20 ADD PUSH32 0x50757A7A6C654E46540000000000000000000000000000000000000000000000 DUP2 MSTORE POP PUSH1 0x40 MLOAD DUP1 PUSH1 0x40 ADD PUSH1 0x40 MSTORE DUP1 PUSH1 0x4 DUP2 MSTORE PUSH1 0x20 ADD PUSH32 0x504E465400000000000000000000000000000000000000000000000000000000 DUP2 MSTORE POP DUP2 PUSH0 SWAP1 DUP2 PUSH2 0x8B SWAP2 SWAP1 PUSH2 0x420 JUMP JUMPDEST POP DUP1 PUSH1 0x1 SWAP1 DUP2 PUSH2 0x9B SWAP2 SWAP1 PUSH2 0x420 JUMP JUMPDEST POP POP POP PUSH0 PUSH20 0xFFFFFFFFFFFFFFFFFFFFFFFFFFFFFFFFFFFFFFFF AND DUP2 PUSH20 0xFFFFFFFFFFFFFFFFFFFFFFFFFFFFFFFFFFFFFFFF AND SUB PUSH2 0x10E JUMPI PUSH0 PUSH1 0x40 MLOAD PUSH32 0x1E4FBDF700000000000000000000000000000000000000000000000000000000 DUP2 MSTORE PUSH1 0x4 ADD PUSH2 0x105 SWAP2 SWAP1 PUSH2 0x52E JUMP JUMPDEST PUSH1 0x40 MLOAD DUP1 SWAP2 SUB SWAP1 REVERT JUMPDEST PUSH2 0x11D DUP2 PUSH2 0x123 PUSH1 0x20 SHL PUSH1 0x20 SHR JUMP JUMPDEST POP PUSH2 0x547 JUMP JUMPDEST PUSH0 PUSH1 0x7 PUSH0 SWAP1 SLOAD SWAP1 PUSH2 0x100 EXP SWAP1 DIV PUSH20 0xFFFFFFFFFFFFFFFFFFFFFFFFFFFFFFFFFFFFFFFF AND SWAP1 POP DUP2 PUSH1 0x7 PUSH0 PUSH2 0x100 EXP DUP2 SLOAD DUP2 PUSH20 0xFFFFFFFFFFFFFFFFFFFFFFFFFFFFFFFFFFFFFFFF MUL NOT AND SWAP1 DUP4 PUSH20 0xFFFFFFFFFFFFFFFFFFFFFFFFFFFFFFFFFFFFFFFF AND MUL OR SWAP1 SSTORE POP DUP2 PUSH20 0xFFFFFFFFFFFFFFFFFFFFFFFFFFFFFFFFFFFFFFFF AND DUP2 PUSH20 0xFFFFFFFFFFFFFFFFFFFFFFFFFFFFFFFFFFFFFFFF AND PUSH32 0x8BE0079C531659141344CD1FD0A4F28419497F9722A3DAAFE3B4186F6B6457E0 PUSH1 0x40 MLOAD PUSH1 0x40 MLOAD DUP1 SWAP2 SUB SWAP1 LOG3 POP POP JUMP JUMPDEST PUSH0 DUP2 MLOAD SWAP1 POP SWAP2 SWAP1 POP JUMP JUMPDEST PUSH32 0x4E487B7100000000000000000000000000000000000000000000000000000000 PUSH0 MSTORE PUSH1 0x41 PUSH1 0x4 MSTORE PUSH1 0x24 PUSH0 REVERT JUMPDEST PUSH32 0x4E487B7100000000000000000000000000000000000000000000000000000000 PUSH0 MSTORE PUSH1 0x22 PUSH1 0x4 MSTORE PUSH1 0x24 PUSH0 REVERT JUMPDEST PUSH0 PUSH1 0x2 DUP3 DIV SWAP1 POP PUSH1 0x1 DUP3 AND DUP1 PUSH2 0x261 JUMPI PUSH1 0x7F DUP3 AND SWAP2 POP JUMPDEST PUSH1 0x20 DUP3 LT DUP2 SUB PUSH2 0x274 JUMPI PUSH2 0x273 PUSH2 0x21D JUMP JUMPDEST JUMPDEST POP SWAP2 SWAP1 POP JUMP JUMPDEST PUSH0 DUP2 SWAP1 POP DUP2 PUSH0 MSTORE PUSH1 0x20 PUSH0 KECCAK256 SWAP1 POP SWAP2 SWAP1 POP JUMP JUMPDEST PUSH0 PUSH1 0x20 PUSH1 0x1F DUP4 ADD DIV SWAP1 POP SWAP2 SWAP1 POP JUMP JUMPDEST PUSH0 DUP3 DUP3 SHL SWAP1 POP SWAP3 SWAP2 POP POP JUMP JUMPDEST PUSH0 PUSH1 0x8 DUP4 MUL PUSH2 0x2D6 PUSH32 0xFFFFFFFFFFFFFFFFFFFFFFFFFFFFFFFFFFFFFFFFFFFFFFFFFFFFFFFFFFFFFFFF DUP3 PUSH2 0x29B JUMP JUMPDEST PUSH2 0x2E0 DUP7 DUP4 PUSH2 0x29B JUMP JUMPDEST SWAP6 POP DUP1 NOT DUP5 AND SWAP4 POP DUP1 DUP7 AND DUP5 OR SWAP3 POP POP POP SWAP4 SWAP3 POP POP POP JUMP JUMPDEST PUSH0 DUP2 SWAP1 POP SWAP2 SWAP1 POP JUMP JUMPDEST PUSH0 DUP2 SWAP1 POP SWAP2 SWAP1 POP JUMP JUMPDEST PUSH0 PUSH2 0x324 PUSH2 0x31F PUSH2 0x31A DUP5 PUSH2 0x2F8 JUMP JUMPDEST PUSH2 0x301 JUMP JUMPDEST PUSH2 0x2F8 JUMP JUMPDEST SWAP1 POP SWAP2 SWAP1 POP JUMP JUMPDEST PUSH0 DUP2 SWAP1 POP SWAP2 SWAP1 POP JUMP JUMPDEST PUSH2 0x33D DUP4 PUSH2 0x30A JUMP JUMPDEST PUSH2 0x351 PUSH2 0x349 DUP3 PUSH2 0x32B JUMP JUMPDEST DUP5 DUP5 SLOAD PUSH2 0x2A7 JUMP JUMPDEST DUP3 SSTORE POP POP POP POP JUMP JUMPDEST PUSH0 SWAP1 JUMP JUMPDEST PUSH2 0x365 PUSH2 0x359 JUMP JUMPDEST PUSH2 0x370 DUP2 DUP5 DUP5 PUSH2 0x334 JUMP JUMPDEST POP POP POP JUMP JUMPDEST JUMPDEST DUP2 DUP2 LT ISZERO PUSH2 0x393 JUMPI PUSH2 0x388 PUSH0 DUP3 PUSH2 0x35D JUMP JUMPDEST PUSH1 0x1 DUP2 ADD SWAP1 POP PUSH2 0x376 JUMP JUMPDEST POP POP JUMP JUMPDEST PUSH1 0x1F DUP3 GT ISZERO PUSH2 0x3D8 JUMPI PUSH2 0x3A9 DUP2 PUSH2 0x27A JUMP JUMPDEST PUSH2 0x3B2 DUP5 PUSH2 0x28C JUMP JUMPDEST DUP2 ADD PUSH1 0x20 DUP6 LT ISZERO PUSH2 0x3C1 JUMPI DUP2 SWAP1 POP JUMPDEST PUSH2 0x3D5 PUSH2 0x3CD DUP6 PUSH2 0x28C JUMP JUMPDEST DUP4 ADD DUP3 PUSH2 0x375 JUMP JUMPDEST POP POP JUMPDEST POP POP POP JUMP JUMPDEST PUSH0 DUP3 DUP3 SHR SWAP1 POP SWAP3 SWAP2 POP POP JUMP JUMPDEST PUSH0 PUSH2 0x3F8 PUSH0 NOT DUP5 PUSH1 0x8 MUL PUSH2 0x3DD JUMP JUMPDEST NOT DUP1 DUP4 AND SWAP2 POP POP SWAP3 SWAP2 POP POP JUMP JUMPDEST PUSH0 PUSH2 0x410 DUP4 DUP4 PUSH2 0x3E9 JUMP JUMPDEST SWAP2 POP DUP3 PUSH1 0x2 MUL DUP3 OR SWAP1 POP SWAP3 SWAP2 POP POP JUMP JUMPDEST PUSH2 0x429 DUP3 PUSH2 0x1E6 JUMP JUMPDEST PUSH8 0xFFFFFFFFFFFFFFFF DUP2 GT ISZERO PUSH2 0x442 JUMPI PUSH2 0x441 PUSH2 0x1F0 JUMP JUMPDEST JUMPDEST PUSH2 0x44C DUP3 SLOAD PUSH2 0x24A JUMP JUMPDEST PUSH2 0x457 DUP3 DUP3 DUP6 PUSH2 0x397 JUMP JUMPDEST PUSH0 PUSH1 0x20 SWAP1 POP PUSH1 0x1F DUP4 GT PUSH1 0x1 DUP2 EQ PUSH2 0x488 JUMPI PUSH0 DUP5 ISZERO PUSH2 0x476 JUMPI DUP3 DUP8 ADD MLOAD SWAP1 POP JUMPDEST PUSH2 0x480 DUP6 DUP3 PUSH2 0x405 JUMP JUMPDEST DUP7 SSTORE POP PUSH2 0x4E7 JUMP JUMPDEST PUSH1 0x1F NOT DUP5 AND PUSH2 0x496 DUP7 PUSH2 0x27A JUMP JUMPDEST PUSH0 JUMPDEST DUP3 DUP2 LT ISZERO PUSH2 0x4BD JUMPI DUP5 DUP10 ADD MLOAD DUP3 SSTORE PUSH1 0x1 DUP3 ADD SWAP2 POP PUSH1 0x20 DUP6 ADD SWAP5 POP PUSH1 0x20 DUP2 ADD SWAP1 POP PUSH2 0x498 JUMP JUMPDEST DUP7 DUP4 LT ISZERO PUSH2 0x4DA JUMPI DUP5 DUP10 ADD MLOAD PUSH2 0x4D6 PUSH1 0x1F DUP10 AND DUP3 PUSH2 0x3E9 JUMP JUMPDEST DUP4 SSTORE POP JUMPDEST PUSH1 0x1 PUSH1 0x2 DUP9 MUL ADD DUP9 SSTORE POP POP POP JUMPDEST POP POP POP POP POP POP JUMP JUMPDEST PUSH0 PUSH20 0xFFFFFFFFFFFFFFFFFFFFFFFFFFFFFFFFFFFFFFFF DUP3 AND SWAP1 POP SWAP2 SWAP1 POP JUMP JUMPDEST PUSH0 PUSH2 0x518 DUP3 PUSH2 0x4EF JUMP JUMPDEST SWAP1 POP SWAP2 SWAP1 POP JUMP JUMPDEST PUSH2 0x528 DUP2 PUSH2 0x50E JUMP JUMPDEST DUP3 MSTORE POP POP JUMP JUMPDEST PUSH0 PUSH1 0x20 DUP3 ADD SWAP1 POP PUSH2 0x541 PUSH0 DUP4 ADD DUP5 PUSH2 0x51F JUMP JUMPDEST SWAP3 SWAP2 POP POP JUMP JUMPDEST PUSH2 0x3245 DUP1 PUSH2 0x554 PUSH0 CODECOPY PUSH0 RETURN INVALID PUSH1 0x80 PUSH1 0x40 MSTORE CALLVALUE DUP1 ISZERO PUSH2 0xF JUMPI PUSH0 DUP1 REVERT JUMPDEST POP PUSH1 0x4 CALLDATASIZE LT PUSH2 0x14B JUMPI PUSH0 CALLDATALOAD PUSH1 0xE0 SHR DUP1 PUSH4 0x70A08231 GT PUSH2 0xC1 JUMPI DUP1 PUSH4 0xA22CB465 GT PUSH2 0x7A JUMPI DUP1 PUSH4 0xA22CB465 EQ PUSH2 0x389 JUMPI DUP1 PUSH4 0xB88D4FDE EQ PUSH2 0x3A5 JUMPI DUP1 PUSH4 0xC87B56DD EQ PUSH2 0x3C1 JUMPI DUP1 PUSH4 0xCE4DC192 EQ PUSH2 0x3F1 JUMPI DUP1 PUSH4 0xE985E9C5 EQ PUSH2 0x40D JUMPI DUP1 PUSH4 0xF2FDE38B EQ PUSH2 0x43D JUMPI PUSH2 0x14B JUMP JUMPDEST DUP1 PUSH4 0x70A08231 EQ PUSH2 0x2C7 JUMPI DUP1 PUSH4 0x715018A6 EQ PUSH2 0x2F7 JUMPI DUP1 PUSH4 0x7280F217 EQ PUSH2 0x301 JUMPI DUP1 PUSH4 0x8462151C EQ PUSH2 0x31D JUMPI DUP1 PUSH4 0x8DA5CB5B EQ PUSH2 0x34D JUMPI DUP1 PUSH4 0x95D89B41 EQ PUSH2 0x36B JUMPI PUSH2 0x14B JUMP JUMPDEST DUP1 PUSH4 0x2004FFD9 GT PUSH2 0x113 JUMPI DUP1 PUSH4 0x2004FFD9 EQ PUSH2 0x219 JUMPI DUP1 PUSH4 0x23B872DD EQ PUSH2 0x223 JUMPI DUP1 PUSH4 0x3DA8D1A5 EQ PUSH2 0x23F JUMPI DUP1 PUSH4 0x42842E0E EQ PUSH2 0x25D JUMPI DUP1 PUSH4 0x4515FAF9 EQ PUSH2 0x279 JUMPI DUP1 PUSH4 0x6352211E EQ PUSH2 0x297 JUMPI PUSH2 0x14B JUMP JUMPDEST DUP1 PUSH4 0x1FFC9A7 EQ PUSH2 0x14F JUMPI DUP1 PUSH4 0x6FDDE03 EQ PUSH2 0x17F JUMPI DUP1 PUSH4 0x81812FC EQ PUSH2 0x19D JUMPI DUP1 PUSH4 0x95EA7B3 EQ PUSH2 0x1CD JUMPI DUP1 PUSH4 0xD41EC54 EQ PUSH2 0x1E9 JUMPI JUMPDEST PUSH0 DUP1 REVERT JUMPDEST PUSH2 0x169 PUSH1 0x4 DUP1 CALLDATASIZE SUB DUP2 ADD SWAP1 PUSH2 0x164 SWAP2 SWAP1 PUSH2 0x22D9 JUMP JUMPDEST PUSH2 0x459 JUMP JUMPDEST PUSH1 0x40 MLOAD PUSH2 0x176 SWAP2 SWAP1 PUSH2 0x231E JUMP JUMPDEST PUSH1 0x40 MLOAD DUP1 SWAP2 SUB SWAP1 RETURN JUMPDEST PUSH2 0x187 PUSH2 0x4B9 JUMP JUMPDEST PUSH1 0x40 MLOAD PUSH2 0x194 SWAP2 SWAP1 PUSH2 0x23A7 JUMP JUMPDEST PUSH1 0x40 MLOAD DUP1 SWAP2 SUB SWAP1 RETURN JUMPDEST PUSH2 0x1B7 PUSH1 0x4 DUP1 CALLDATASIZE SUB DUP2 ADD SWAP1 PUSH2 0x1B2 SWAP2 SWAP1 PUSH2 0x23FA JUMP JUMPDEST PUSH2 0x548 JUMP JUMPDEST PUSH1 0x40 MLOAD PUSH2 0x1C4 SWAP2 SWAP1 PUSH2 0x2464 JUMP JUMPDEST PUSH1 0x40 MLOAD DUP1 SWAP2 SUB SWAP1 RETURN JUMPDEST PUSH2 0x1E7 PUSH1 0x4 DUP1 CALLDATASIZE SUB DUP2 ADD SWAP1 PUSH2 0x1E2 SWAP2 SWAP1 PUSH2 0x24A7 JUMP JUMPDEST PUSH2 0x563 JUMP JUMPDEST STOP JUMPDEST PUSH2 0x203 PUSH1 0x4 DUP1 CALLDATASIZE SUB DUP2 ADD SWAP1 PUSH2 0x1FE SWAP2 SWAP1 PUSH2 0x23FA JUMP JUMPDEST PUSH2 0x579 JUMP JUMPDEST PUSH1 0x40 MLOAD PUSH2 0x210 SWAP2 SWAP1 PUSH2 0x24F4 JUMP JUMPDEST PUSH1 0x40 MLOAD DUP1 SWAP2 SUB SWAP1 RETURN JUMPDEST PUSH2 0x221 PUSH2 0x58E JUMP JUMPDEST STOP JUMPDEST PUSH2 0x23D PUSH1 0x4 DUP1 CALLDATASIZE SUB DUP2 ADD SWAP1 PUSH2 0x238 SWAP2 SWAP1 PUSH2 0x250D JUMP JUMPDEST PUSH2 0x76F JUMP JUMPDEST STOP JUMPDEST PUSH2 0x247 PUSH2 0x86E JUMP JUMPDEST PUSH1 0x40 MLOAD PUSH2 0x254 SWAP2 SWAP1 PUSH2 0x24F4 JUMP JUMPDEST PUSH1 0x40 MLOAD DUP1 SWAP2 SUB SWAP1 RETURN JUMPDEST PUSH2 0x277 PUSH1 0x4 DUP1 CALLDATASIZE SUB DUP2 ADD SWAP1 PUSH2 0x272 SWAP2 SWAP1 PUSH2 0x250D JUMP JUMPDEST PUSH2 0x873 JUMP JUMPDEST STOP JUMPDEST PUSH2 0x281 PUSH2 0x892 JUMP JUMPDEST PUSH1 0x40 MLOAD PUSH2 0x28E SWAP2 SWAP1 PUSH2 0x2464 JUMP JUMPDEST PUSH1 0x40 MLOAD DUP1 SWAP2 SUB SWAP1 RETURN JUMPDEST PUSH2 0x2B1 PUSH1 0x4 DUP1 CALLDATASIZE SUB DUP2 ADD SWAP1 PUSH2 0x2AC SWAP2 SWAP1 PUSH2 0x23FA JUMP JUMPDEST PUSH2 0x8B7 JUMP JUMPDEST PUSH1 0x40 MLOAD PUSH2 0x2BE SWAP2 SWAP1 PUSH2 0x2464 JUMP JUMPDEST PUSH1 0x40 MLOAD DUP1 SWAP2 SUB SWAP1 RETURN JUMPDEST PUSH2 0x2E1 PUSH1 0x4 DUP1 CALLDATASIZE SUB DUP2 ADD SWAP1 PUSH2 0x2DC SWAP2 SWAP1 PUSH2 0x255D JUMP JUMPDEST PUSH2 0x8C8 JUMP JUMPDEST PUSH1 0x40 MLOAD PUSH2 0x2EE SWAP2 SWAP1 PUSH2 0x24F4 JUMP JUMPDEST PUSH1 0x40 MLOAD DUP1 SWAP2 SUB SWAP1 RETURN JUMPDEST PUSH2 0x2FF PUSH2 0x97E JUMP JUMPDEST STOP JUMPDEST PUSH2 0x31B PUSH1 0x4 DUP1 CALLDATASIZE SUB DUP2 ADD SWAP1 PUSH2 0x316 SWAP2 SWAP1 PUSH2 0x24A7 JUMP JUMPDEST PUSH2 0x991 JUMP JUMPDEST STOP JUMPDEST PUSH2 0x337 PUSH1 0x4 DUP1 CALLDATASIZE SUB DUP2 ADD SWAP1 PUSH2 0x332 SWAP2 SWAP1 PUSH2 0x255D JUMP JUMPDEST PUSH2 0xA86 JUMP JUMPDEST PUSH1 0x40 MLOAD PUSH2 0x344 SWAP2 SWAP1 PUSH2 0x263F JUMP JUMPDEST PUSH1 0x40 MLOAD DUP1 SWAP2 SUB SWAP1 RETURN JUMPDEST PUSH2 0x355 PUSH2 0xB19 JUMP JUMPDEST PUSH1 0x40 MLOAD PUSH2 0x362 SWAP2 SWAP1 PUSH2 0x2464 JUMP JUMPDEST PUSH1 0x40 MLOAD DUP1 SWAP2 SUB SWAP1 RETURN JUMPDEST PUSH2 0x373 PUSH2 0xB41 JUMP JUMPDEST PUSH1 0x40 MLOAD PUSH2 0x380 SWAP2 SWAP1 PUSH2 0x23A7 JUMP JUMPDEST PUSH1 0x40 MLOAD DUP1 SWAP2 SUB SWAP1 RETURN JUMPDEST PUSH2 0x3A3 PUSH1 0x4 DUP1 CALLDATASIZE SUB DUP2 ADD SWAP1 PUSH2 0x39E SWAP2 SWAP1 PUSH2 0x2689 JUMP JUMPDEST PUSH2 0xBD1 JUMP JUMPDEST STOP JUMPDEST PUSH2 0x3BF PUSH1 0x4 DUP1 CALLDATASIZE SUB DUP2 ADD SWAP1 PUSH2 0x3BA SWAP2 SWAP1 PUSH2 0x27F3 JUMP JUMPDEST PUSH2 0xBE7 JUMP JUMPDEST STOP JUMPDEST PUSH2 0x3DB PUSH1 0x4 DUP1 CALLDATASIZE SUB DUP2 ADD SWAP1 PUSH2 0x3D6 SWAP2 SWAP1 PUSH2 0x23FA JUMP JUMPDEST PUSH2 0xC0C JUMP JUMPDEST PUSH1 0x40 MLOAD PUSH2 0x3E8 SWAP2 SWAP1 PUSH2 0x23A7 JUMP JUMPDEST PUSH1 0x40 MLOAD DUP1 SWAP2 SUB SWAP1 RETURN JUMPDEST PUSH2 0x40B PUSH1 0x4 DUP1 CALLDATASIZE SUB DUP2 ADD SWAP1 PUSH2 0x406 SWAP2 SWAP1 PUSH2 0x255D JUMP JUMPDEST PUSH2 0xD17 JUMP JUMPDEST STOP JUMPDEST PUSH2 0x427 PUSH1 0x4 DUP1 CALLDATASIZE SUB DUP2 ADD SWAP1 PUSH2 0x422 SWAP2 SWAP1 PUSH2 0x2873 JUMP JUMPDEST PUSH2 0xD62 JUMP JUMPDEST PUSH1 0x40 MLOAD PUSH2 0x434 SWAP2 SWAP1 PUSH2 0x231E JUMP JUMPDEST PUSH1 0x40 MLOAD DUP1 SWAP2 SUB SWAP1 RETURN JUMPDEST PUSH2 0x457 PUSH1 0x4 DUP1 CALLDATASIZE SUB DUP2 ADD SWAP1 PUSH2 0x452 SWAP2 SWAP1 PUSH2 0x255D JUMP JUMPDEST PUSH2 0xDF0 JUMP JUMPDEST STOP JUMPDEST PUSH0 PUSH4 0x49064906 PUSH1 0xE0 SHL PUSH28 0xFFFFFFFFFFFFFFFFFFFFFFFFFFFFFFFFFFFFFFFFFFFFFFFFFFFFFFFF NOT AND DUP3 PUSH28 0xFFFFFFFFFFFFFFFFFFFFFFFFFFFFFFFFFFFFFFFFFFFFFFFFFFFFFFFF NOT AND EQ DUP1 PUSH2 0x4B2 JUMPI POP PUSH2 0x4B1 DUP3 PUSH2 0xE74 JUMP JUMPDEST JUMPDEST SWAP1 POP SWAP2 SWAP1 POP JUMP JUMPDEST PUSH1 0x60 PUSH0 DUP1 SLOAD PUSH2 0x4C7 SWAP1 PUSH2 0x28DE JUMP JUMPDEST DUP1 PUSH1 0x1F ADD PUSH1 0x20 DUP1 SWAP2 DIV MUL PUSH1 0x20 ADD PUSH1 0x40 MLOAD SWAP1 DUP2 ADD PUSH1 0x40 MSTORE DUP1 SWAP3 SWAP2 SWAP1 DUP2 DUP2 MSTORE PUSH1 0x20 ADD DUP3 DUP1 SLOAD PUSH2 0x4F3 SWAP1 PUSH2 0x28DE JUMP JUMPDEST DUP1 ISZERO PUSH2 0x53E JUMPI DUP1 PUSH1 0x1F LT PUSH2 0x515 JUMPI PUSH2 0x100 DUP1 DUP4 SLOAD DIV MUL DUP4 MSTORE SWAP2 PUSH1 0x20 ADD SWAP2 PUSH2 0x53E JUMP JUMPDEST DUP3 ADD SWAP2 SWAP1 PUSH0 MSTORE PUSH1 0x20 PUSH0 KECCAK256 SWAP1 JUMPDEST DUP2 SLOAD DUP2 MSTORE SWAP1 PUSH1 0x1 ADD SWAP1 PUSH1 0x20 ADD DUP1 DUP4 GT PUSH2 0x521 JUMPI DUP3 SWAP1 SUB PUSH1 0x1F AND DUP3 ADD SWAP2 JUMPDEST POP POP POP POP POP SWAP1 POP SWAP1 JUMP JUMPDEST PUSH0 PUSH2 0x552 DUP3 PUSH2 0xF55 JUMP JUMPDEST POP PUSH2 0x55C DUP3 PUSH2 0xFDB JUMP JUMPDEST SWAP1 POP SWAP2 SWAP1 POP JUMP JUMPDEST PUSH2 0x575 DUP3 DUP3 PUSH2 0x570 PUSH2 0x1014 JUMP JUMPDEST PUSH2 0x101B JUMP JUMPDEST POP POP JUMP JUMPDEST PUSH1 0xB PUSH1 0x20 MSTORE DUP1 PUSH0 MSTORE PUSH1 0x40 PUSH0 KECCAK256 PUSH0 SWAP2 POP SWAP1 POP SLOAD DUP2 JUMP JUMPDEST PUSH1 0xA PUSH0 CALLER PUSH20 0xFFFFFFFFFFFFFFFFFFFFFFFFFFFFFFFFFFFFFFFF AND PUSH20 0xFFFFFFFFFFFFFFFFFFFFFFFFFFFFFFFFFFFFFFFF AND DUP2 MSTORE PUSH1 0x20 ADD SWAP1 DUP2 MSTORE PUSH1 0x20 ADD PUSH0 KECCAK256 PUSH0 SWAP1 SLOAD SWAP1 PUSH2 0x100 EXP SWAP1 DIV PUSH1 0xFF AND ISZERO PUSH2 0x618 JUMPI PUSH1 0x40 MLOAD PUSH32 0x8C379A000000000000000000000000000000000000000000000000000000000 DUP2 MSTORE PUSH1 0x4 ADD PUSH2 0x60F SWAP1 PUSH2 0x2958 JUMP JUMPDEST PUSH1 0x40 MLOAD DUP1 SWAP2 SUB SWAP1 REVERT JUMPDEST PUSH2 0x3E8 PUSH1 0x3C PUSH2 0x627 SWAP2 SWAP1 PUSH2 0x29A3 JUMP JUMPDEST PUSH2 0x631 PUSH1 0x8 PUSH2 0x102D JUMP JUMPDEST LT PUSH2 0x671 JUMPI PUSH1 0x40 MLOAD PUSH32 0x8C379A000000000000000000000000000000000000000000000000000000000 DUP2 MSTORE PUSH1 0x4 ADD PUSH2 0x668 SWAP1 PUSH2 0x2A2E JUMP JUMPDEST PUSH1 0x40 MLOAD DUP1 SWAP2 SUB SWAP1 REVERT JUMPDEST PUSH0 PUSH2 0x67C PUSH1 0x8 PUSH2 0x102D JUMP JUMPDEST SWAP1 POP PUSH2 0x688 PUSH1 0x8 PUSH2 0x1039 JUMP JUMPDEST PUSH0 PUSH2 0x692 CALLER PUSH2 0x104D JUMP JUMPDEST SWAP1 POP DUP1 PUSH1 0xB PUSH0 DUP5 DUP2 MSTORE PUSH1 0x20 ADD SWAP1 DUP2 MSTORE PUSH1 0x20 ADD PUSH0 KECCAK256 DUP2 SWAP1 SSTORE POP PUSH2 0x6B4 CALLER DUP4 PUSH2 0x109F JUMP JUMPDEST PUSH1 0x1 PUSH1 0xA PUSH0 CALLER PUSH20 0xFFFFFFFFFFFFFFFFFFFFFFFFFFFFFFFFFFFFFFFF AND PUSH20 0xFFFFFFFFFFFFFFFFFFFFFFFFFFFFFFFFFFFFFFFF AND DUP2 MSTORE PUSH1 0x20 ADD SWAP1 DUP2 MSTORE PUSH1 0x20 ADD PUSH0 KECCAK256 PUSH0 PUSH2 0x100 EXP DUP2 SLOAD DUP2 PUSH1 0xFF MUL NOT AND SWAP1 DUP4 ISZERO ISZERO MUL OR SWAP1 SSTORE POP PUSH0 PUSH2 0x713 DUP3 PUSH2 0x10BC JUMP JUMPDEST PUSH1 0x40 MLOAD PUSH1 0x20 ADD PUSH2 0x723 SWAP2 SWAP1 PUSH2 0x2B40 JUMP JUMPDEST PUSH1 0x40 MLOAD PUSH1 0x20 DUP2 DUP4 SUB SUB DUP2 MSTORE SWAP1 PUSH1 0x40 MSTORE SWAP1 POP PUSH2 0x73E DUP4 DUP3 PUSH2 0x123A JUMP JUMPDEST PUSH2 0x76A PUSH1 0x9 PUSH0 SWAP1 SLOAD SWAP1 PUSH2 0x100 EXP SWAP1 DIV PUSH20 0xFFFFFFFFFFFFFFFFFFFFFFFFFFFFFFFFFFFFFFFF AND PUSH1 0x1 PUSH2 0xBD1 JUMP JUMPDEST POP POP POP JUMP JUMPDEST PUSH0 PUSH20 0xFFFFFFFFFFFFFFFFFFFFFFFFFFFFFFFFFFFFFFFF AND DUP3 PUSH20 0xFFFFFFFFFFFFFFFFFFFFFFFFFFFFFFFFFFFFFFFF AND SUB PUSH2 0x7DF JUMPI PUSH0 PUSH1 0x40 MLOAD PUSH32 0x64A0AE9200000000000000000000000000000000000000000000000000000000 DUP2 MSTORE PUSH1 0x4 ADD PUSH2 0x7D6 SWAP2 SWAP1 PUSH2 0x2464 JUMP JUMPDEST PUSH1 0x40 MLOAD DUP1 SWAP2 SUB SWAP1 REVERT JUMPDEST PUSH0 PUSH2 0x7F2 DUP4 DUP4 PUSH2 0x7ED PUSH2 0x1014 JUMP JUMPDEST PUSH2 0x1294 JUMP JUMPDEST SWAP1 POP DUP4 PUSH20 0xFFFFFFFFFFFFFFFFFFFFFFFFFFFFFFFFFFFFFFFF AND DUP2 PUSH20 0xFFFFFFFFFFFFFFFFFFFFFFFFFFFFFFFFFFFFFFFF AND EQ PUSH2 0x868 JUMPI DUP4 DUP3 DUP3 PUSH1 0x40 MLOAD PUSH32 0x64283D7B00000000000000000000000000000000000000000000000000000000 DUP2 MSTORE PUSH1 0x4 ADD PUSH2 0x85F SWAP4 SWAP3 SWAP2 SWAP1 PUSH2 0x2B6C JUMP JUMPDEST PUSH1 0x40 MLOAD DUP1 SWAP2 SUB SWAP1 REVERT JUMPDEST POP POP POP POP JUMP JUMPDEST PUSH1 0x3C DUP2 JUMP JUMPDEST PUSH2 0x88D DUP4 DUP4 DUP4 PUSH1 0x40 MLOAD DUP1 PUSH1 0x20 ADD PUSH1 0x40 MSTORE DUP1 PUSH0 DUP2 MSTORE POP PUSH2 0xBE7 JUMP JUMPDEST POP POP POP JUMP JUMPDEST PUSH1 0x9 PUSH0 SWAP1 SLOAD SWAP1 PUSH2 0x100 EXP SWAP1 DIV PUSH20 0xFFFFFFFFFFFFFFFFFFFFFFFFFFFFFFFFFFFFFFFF AND DUP2 JUMP JUMPDEST PUSH0 PUSH2 0x8C1 DUP3 PUSH2 0xF55 JUMP JUMPDEST SWAP1 POP SWAP2 SWAP1 POP JUMP JUMPDEST PUSH0 DUP1 PUSH20 0xFFFFFFFFFFFFFFFFFFFFFFFFFFFFFFFFFFFFFFFF AND DUP3 PUSH20 0xFFFFFFFFFFFFFFFFFFFFFFFFFFFFFFFFFFFFFFFF AND SUB PUSH2 0x939 JUMPI PUSH0 PUSH1 0x40 MLOAD PUSH32 0x89C62B6400000000000000000000000000000000000000000000000000000000 DUP2 MSTORE PUSH1 0x4 ADD PUSH2 0x930 SWAP2 SWAP1 PUSH2 0x2464 JUMP JUMPDEST PUSH1 0x40 MLOAD DUP1 SWAP2 SUB SWAP1 REVERT JUMPDEST PUSH1 0x3 PUSH0 DUP4 PUSH20 0xFFFFFFFFFFFFFFFFFFFFFFFFFFFFFFFFFFFFFFFF AND PUSH20 0xFFFFFFFFFFFFFFFFFFFFFFFFFFFFFFFFFFFFFFFF AND DUP2 MSTORE PUSH1 0x20 ADD SWAP1 DUP2 MSTORE PUSH1 0x20 ADD PUSH0 KECCAK256 SLOAD SWAP1 POP SWAP2 SWAP1 POP JUMP JUMPDEST PUSH2 0x986 PUSH2 0x1381 JUMP JUMPDEST PUSH2 0x98F PUSH0 PUSH2 0x1408 JUMP JUMPDEST JUMP JUMPDEST PUSH2 0x999 PUSH2 0x1381 JUMP JUMPDEST PUSH0 DUP2 GT DUP1 ISZERO PUSH2 0x9A9 JUMPI POP PUSH1 0x3C DUP2 GT ISZERO JUMPDEST PUSH2 0x9E8 JUMPI PUSH1 0x40 MLOAD PUSH32 0x8C379A000000000000000000000000000000000000000000000000000000000 DUP2 MSTORE PUSH1 0x4 ADD PUSH2 0x9DF SWAP1 PUSH2 0x2BEB JUMP JUMPDEST PUSH1 0x40 MLOAD DUP1 SWAP2 SUB SWAP1 REVERT JUMPDEST PUSH0 PUSH2 0x9F3 PUSH1 0x8 PUSH2 0x102D JUMP JUMPDEST SWAP1 POP PUSH2 0x9FF PUSH1 0x8 PUSH2 0x1039 JUMP JUMPDEST DUP2 PUSH1 0xB PUSH0 DUP4 DUP2 MSTORE PUSH1 0x20 ADD SWAP1 DUP2 MSTORE PUSH1 0x20 ADD PUSH0 KECCAK256 DUP2 SWAP1 SSTORE POP PUSH2 0xA1F DUP4 DUP3 PUSH2 0x109F JUMP JUMPDEST PUSH0 PUSH2 0xA29 DUP4 PUSH2 0x10BC JUMP JUMPDEST PUSH1 0x40 MLOAD PUSH1 0x20 ADD PUSH2 0xA39 SWAP2 SWAP1 PUSH2 0x2B40 JUMP JUMPDEST PUSH1 0x40 MLOAD PUSH1 0x20 DUP2 DUP4 SUB SUB DUP2 MSTORE SWAP1 PUSH1 0x40 MSTORE SWAP1 POP PUSH2 0xA54 DUP3 DUP3 PUSH2 0x123A JUMP JUMPDEST PUSH2 0xA80 PUSH1 0x9 PUSH0 SWAP1 SLOAD SWAP1 PUSH2 0x100 EXP SWAP1 DIV PUSH20 0xFFFFFFFFFFFFFFFFFFFFFFFFFFFFFFFFFFFFFFFF AND PUSH1 0x1 PUSH2 0xBD1 JUMP JUMPDEST POP POP POP POP JUMP JUMPDEST PUSH1 0x60 PUSH1 0xC PUSH0 DUP4 PUSH20 0xFFFFFFFFFFFFFFFFFFFFFFFFFFFFFFFFFFFFFFFF AND PUSH20 0xFFFFFFFFFFFFFFFFFFFFFFFFFFFFFFFFFFFFFFFF AND DUP2 MSTORE PUSH1 0x20 ADD SWAP1 DUP2 MSTORE PUSH1 0x20 ADD PUSH0 KECCAK256 DUP1 SLOAD DUP1 PUSH1 0x20 MUL PUSH1 0x20 ADD PUSH1 0x40 MLOAD SWAP1 DUP2 ADD PUSH1 0x40 MSTORE DUP1 SWAP3 SWAP2 SWAP1 DUP2 DUP2 MSTORE PUSH1 0x20 ADD DUP3 DUP1 SLOAD DUP1 ISZERO PUSH2 0xB0D JUMPI PUSH1 0x20 MUL DUP3 ADD SWAP2 SWAP1 PUSH0 MSTORE PUSH1 0x20 PUSH0 KECCAK256 SWAP1 JUMPDEST DUP2 SLOAD DUP2 MSTORE PUSH1 0x20 ADD SWAP1 PUSH1 0x1 ADD SWAP1 DUP1 DUP4 GT PUSH2 0xAF9 JUMPI JUMPDEST POP POP POP POP POP SWAP1 POP SWAP2 SWAP1 POP JUMP JUMPDEST PUSH0 PUSH1 0x7 PUSH0 SWAP1 SLOAD SWAP1 PUSH2 0x100 EXP SWAP1 DIV PUSH20 0xFFFFFFFFFFFFFFFFFFFFFFFFFFFFFFFFFFFFFFFF AND SWAP1 POP SWAP1 JUMP JUMPDEST PUSH1 0x60 PUSH1 0x1 DUP1 SLOAD PUSH2 0xB50 SWAP1 PUSH2 0x28DE JUMP JUMPDEST DUP1 PUSH1 0x1F ADD PUSH1 0x20 DUP1 SWAP2 DIV MUL PUSH1 0x20 ADD PUSH1 0x40 MLOAD SWAP1 DUP2 ADD PUSH1 0x40 MSTORE DUP1 SWAP3 SWAP2 SWAP1 DUP2 DUP2 MSTORE PUSH1 0x20 ADD DUP3 DUP1 SLOAD PUSH2 0xB7C SWAP1 PUSH2 0x28DE JUMP JUMPDEST DUP1 ISZERO PUSH2 0xBC7 JUMPI DUP1 PUSH1 0x1F LT PUSH2 0xB9E JUMPI PUSH2 0x100 DUP1 DUP4 SLOAD DIV MUL DUP4 MSTORE SWAP2 PUSH1 0x20 ADD SWAP2 PUSH2 0xBC7 JUMP JUMPDEST DUP3 ADD SWAP2 SWAP1 PUSH0 MSTORE PUSH1 0x20 PUSH0 KECCAK256 SWAP1 JUMPDEST DUP2 SLOAD DUP2 MSTORE SWAP1 PUSH1 0x1 ADD SWAP1 PUSH1 0x20 ADD DUP1 DUP4 GT PUSH2 0xBAA JUMPI DUP3 SWAP1 SUB PUSH1 0x1F AND DUP3 ADD SWAP2 JUMPDEST POP POP POP POP POP SWAP1 POP SWAP1 JUMP JUMPDEST PUSH2 0xBE3 PUSH2 0xBDC PUSH2 0x1014 JUMP JUMPDEST DUP4 DUP4 PUSH2 0x14CB JUMP JUMPDEST POP POP JUMP JUMPDEST PUSH2 0xBF2 DUP5 DUP5 DUP5 PUSH2 0x76F JUMP JUMPDEST PUSH2 0xC06 PUSH2 0xBFD PUSH2 0x1014 JUMP JUMPDEST DUP6 DUP6 DUP6 DUP6 PUSH2 0x1634 JUMP JUMPDEST POP POP POP POP JUMP JUMPDEST PUSH1 0x60 PUSH2 0xC17 DUP3 PUSH2 0xF55 JUMP JUMPDEST POP PUSH0 PUSH1 0x6 PUSH0 DUP5 DUP2 MSTORE PUSH1 0x20 ADD SWAP1 DUP2 MSTORE PUSH1 0x20 ADD PUSH0 KECCAK256 DUP1 SLOAD PUSH2 0xC35 SWAP1 PUSH2 0x28DE JUMP JUMPDEST DUP1 PUSH1 0x1F ADD PUSH1 0x20 DUP1 SWAP2 DIV MUL PUSH1 0x20 ADD PUSH1 0x40 MLOAD SWAP1 DUP2 ADD PUSH1 0x40 MSTORE DUP1 SWAP3 SWAP2 SWAP1 DUP2 DUP2 MSTORE PUSH1 0x20 ADD DUP3 DUP1 SLOAD PUSH2 0xC61 SWAP1 PUSH2 0x28DE JUMP JUMPDEST DUP1 ISZERO PUSH2 0xCAC JUMPI DUP1 PUSH1 0x1F LT PUSH2 0xC83 JUMPI PUSH2 0x100 DUP1 DUP4 SLOAD DIV MUL DUP4 MSTORE SWAP2 PUSH1 0x20 ADD SWAP2 PUSH2 0xCAC JUMP JUMPDEST DUP3 ADD SWAP2 SWAP1 PUSH0 MSTORE PUSH1 0x20 PUSH0 KECCAK256 SWAP1 JUMPDEST DUP2 SLOAD DUP2 MSTORE SWAP1 PUSH1 0x1 ADD SWAP1 PUSH1 0x20 ADD DUP1 DUP4 GT PUSH2 0xC8F JUMPI DUP3 SWAP1 SUB PUSH1 0x1F AND DUP3 ADD SWAP2 JUMPDEST POP POP POP POP POP SWAP1 POP PUSH0 PUSH2 0xCBC PUSH2 0x17E0 JUMP JUMPDEST SWAP1 POP PUSH0 DUP2 MLOAD SUB PUSH2 0xCD0 JUMPI DUP2 SWAP3 POP POP POP PUSH2 0xD12 JUMP JUMPDEST PUSH0 DUP3 MLOAD GT ISZERO PUSH2 0xD04 JUMPI DUP1 DUP3 PUSH1 0x40 MLOAD PUSH1 0x20 ADD PUSH2 0xCEC SWAP3 SWAP2 SWAP1 PUSH2 0x2C09 JUMP JUMPDEST PUSH1 0x40 MLOAD PUSH1 0x20 DUP2 DUP4 SUB SUB DUP2 MSTORE SWAP1 PUSH1 0x40 MSTORE SWAP3 POP POP POP PUSH2 0xD12 JUMP JUMPDEST PUSH2 0xD0D DUP5 PUSH2 0x17F6 JUMP JUMPDEST SWAP3 POP POP POP JUMPDEST SWAP2 SWAP1 POP JUMP JUMPDEST PUSH2 0xD1F PUSH2 0x1381 JUMP JUMPDEST DUP1 PUSH1 0x9 PUSH0 PUSH2 0x100 EXP DUP2 SLOAD DUP2 PUSH20 0xFFFFFFFFFFFFFFFFFFFFFFFFFFFFFFFFFFFFFFFF MUL NOT AND SWAP1 DUP4 PUSH20 0xFFFFFFFFFFFFFFFFFFFFFFFFFFFFFFFFFFFFFFFF AND MUL OR SWAP1 SSTORE POP POP JUMP JUMPDEST PUSH0 PUSH1 0x5 PUSH0 DUP5 PUSH20 0xFFFFFFFFFFFFFFFFFFFFFFFFFFFFFFFFFFFFFFFF AND PUSH20 0xFFFFFFFFFFFFFFFFFFFFFFFFFFFFFFFFFFFFFFFF AND DUP2 MSTORE PUSH1 0x20 ADD SWAP1 DUP2 MSTORE PUSH1 0x20 ADD PUSH0 KECCAK256 PUSH0 DUP4 PUSH20 0xFFFFFFFFFFFFFFFFFFFFFFFFFFFFFFFFFFFFFFFF AND PUSH20 0xFFFFFFFFFFFFFFFFFFFFFFFFFFFFFFFFFFFFFFFF AND DUP2 MSTORE PUSH1 0x20 ADD SWAP1 DUP2 MSTORE PUSH1 0x20 ADD PUSH0 KECCAK256 PUSH0 SWAP1 SLOAD SWAP1 PUSH2 0x100 EXP SWAP1 DIV PUSH1 0xFF AND SWAP1 POP SWAP3 SWAP2 POP POP JUMP JUMPDEST PUSH2 0xDF8 PUSH2 0x1381 JUMP JUMPDEST PUSH0 PUSH20 0xFFFFFFFFFFFFFFFFFFFFFFFFFFFFFFFFFFFFFFFF AND DUP2 PUSH20 0xFFFFFFFFFFFFFFFFFFFFFFFFFFFFFFFFFFFFFFFF AND SUB PUSH2 0xE68 JUMPI PUSH0 PUSH1 0x40 MLOAD PUSH32 0x1E4FBDF700000000000000000000000000000000000000000000000000000000 DUP2 MSTORE PUSH1 0x4 ADD PUSH2 0xE5F SWAP2 SWAP1 PUSH2 0x2464 JUMP JUMPDEST PUSH1 0x40 MLOAD DUP1 SWAP2 SUB SWAP1 REVERT JUMPDEST PUSH2 0xE71 DUP2 PUSH2 0x1408 JUMP JUMPDEST POP JUMP JUMPDEST PUSH0 PUSH32 0x80AC58CD00000000000000000000000000000000000000000000000000000000 PUSH28 0xFFFFFFFFFFFFFFFFFFFFFFFFFFFFFFFFFFFFFFFFFFFFFFFFFFFFFFFF NOT AND DUP3 PUSH28 0xFFFFFFFFFFFFFFFFFFFFFFFFFFFFFFFFFFFFFFFFFFFFFFFFFFFFFFFF NOT AND EQ DUP1 PUSH2 0xF3E JUMPI POP PUSH32 0x5B5E139F00000000000000000000000000000000000000000000000000000000 PUSH28 0xFFFFFFFFFFFFFFFFFFFFFFFFFFFFFFFFFFFFFFFFFFFFFFFFFFFFFFFF NOT AND DUP3 PUSH28 0xFFFFFFFFFFFFFFFFFFFFFFFFFFFFFFFFFFFFFFFFFFFFFFFFFFFFFFFF NOT AND EQ JUMPDEST DUP1 PUSH2 0xF4E JUMPI POP PUSH2 0xF4D DUP3 PUSH2 0x185C JUMP JUMPDEST JUMPDEST SWAP1 POP SWAP2 SWAP1 POP JUMP JUMPDEST PUSH0 DUP1 PUSH2 0xF60 DUP4 PUSH2 0x18C5 JUMP JUMPDEST SWAP1 POP PUSH0 PUSH20 0xFFFFFFFFFFFFFFFFFFFFFFFFFFFFFFFFFFFFFFFF AND DUP2 PUSH20 0xFFFFFFFFFFFFFFFFFFFFFFFFFFFFFFFFFFFFFFFF AND SUB PUSH2 0xFD2 JUMPI DUP3 PUSH1 0x40 MLOAD PUSH32 0x7E27328900000000000000000000000000000000000000000000000000000000 DUP2 MSTORE PUSH1 0x4 ADD PUSH2 0xFC9 SWAP2 SWAP1 PUSH2 0x24F4 JUMP JUMPDEST PUSH1 0x40 MLOAD DUP1 SWAP2 SUB SWAP1 REVERT JUMPDEST DUP1 SWAP2 POP POP SWAP2 SWAP1 POP JUMP JUMPDEST PUSH0 PUSH1 0x4 PUSH0 DUP4 DUP2 MSTORE PUSH1 0x20 ADD SWAP1 DUP2 MSTORE PUSH1 0x20 ADD PUSH0 KECCAK256 PUSH0 SWAP1 SLOAD SWAP1 PUSH2 0x100 EXP SWAP1 DIV PUSH20 0xFFFFFFFFFFFFFFFFFFFFFFFFFFFFFFFFFFFFFFFF AND SWAP1 POP SWAP2 SWAP1 POP JUMP JUMPDEST PUSH0 CALLER SWAP1 POP SWAP1 JUMP JUMPDEST PUSH2 0x1028 DUP4 DUP4 DUP4 PUSH1 0x1 PUSH2 0x18FE JUMP JUMPDEST POP POP POP JUMP JUMPDEST PUSH0 DUP2 PUSH0 ADD SLOAD SWAP1 POP SWAP2 SWAP1 POP JUMP JUMPDEST PUSH1 0x1 DUP2 PUSH0 ADD PUSH0 DUP3 DUP3 SLOAD ADD SWAP3 POP POP DUP2 SWAP1 SSTORE POP POP JUMP JUMPDEST PUSH0 DUP1 TIMESTAMP PREVRANDAO DUP5 PUSH1 0x40 MLOAD PUSH1 0x20 ADD PUSH2 0x1064 SWAP4 SWAP3 SWAP2 SWAP1 PUSH2 0x2C91 JUMP JUMPDEST PUSH1 0x40 MLOAD PUSH1 0x20 DUP2 DUP4 SUB SUB DUP2 MSTORE SWAP1 PUSH1 0x40 MSTORE DUP1 MLOAD SWAP1 PUSH1 0x20 ADD KECCAK256 PUSH0 SHR SWAP1 POP PUSH1 0x1 PUSH1 0x3C DUP3 PUSH2 0x108D SWAP2 SWAP1 PUSH2 0x2CFA JUMP JUMPDEST PUSH2 0x1097 SWAP2 SWAP1 PUSH2 0x2D2A JUMP JUMPDEST SWAP2 POP POP SWAP2 SWAP1 POP JUMP JUMPDEST PUSH2 0x10B8 DUP3 DUP3 PUSH1 0x40 MLOAD DUP1 PUSH1 0x20 ADD PUSH1 0x40 MSTORE DUP1 PUSH0 DUP2 MSTORE POP PUSH2 0x1ABD JUMP JUMPDEST POP POP JUMP JUMPDEST PUSH1 0x60 PUSH0 DUP3 SUB PUSH2 0x1102 JUMPI PUSH1 0x40 MLOAD DUP1 PUSH1 0x40 ADD PUSH1 0x40 MSTORE DUP1 PUSH1 0x1 DUP2 MSTORE PUSH1 0x20 ADD PUSH32 0x3000000000000000000000000000000000000000000000000000000000000000 DUP2 MSTORE POP SWAP1 POP PUSH2 0x1235 JUMP JUMPDEST PUSH0 DUP3 SWAP1 POP PUSH0 JUMPDEST PUSH0 DUP3 EQ PUSH2 0x1131 JUMPI DUP1 DUP1 PUSH2 0x111A SWAP1 PUSH2 0x2D5D JUMP JUMPDEST SWAP2 POP POP PUSH1 0xA DUP3 PUSH2 0x112A SWAP2 SWAP1 PUSH2 0x2DA4 JUMP JUMPDEST SWAP2 POP PUSH2 0x1108 JUMP JUMPDEST PUSH0 DUP2 PUSH8 0xFFFFFFFFFFFFFFFF DUP2 GT ISZERO PUSH2 0x114C JUMPI PUSH2 0x114B PUSH2 0x26CF JUMP JUMPDEST JUMPDEST PUSH1 0x40 MLOAD SWAP1 DUP1 DUP3 MSTORE DUP1 PUSH1 0x1F ADD PUSH1 0x1F NOT AND PUSH1 0x20 ADD DUP3 ADD PUSH1 0x40 MSTORE DUP1 ISZERO PUSH2 0x117E JUMPI DUP2 PUSH1 0x20 ADD PUSH1 0x1 DUP3 MUL DUP1 CALLDATASIZE DUP4 CALLDATACOPY DUP1 DUP3 ADD SWAP2 POP POP SWAP1 POP JUMPDEST POP SWAP1 POP PUSH0 DUP3 SWAP1 POP JUMPDEST PUSH0 DUP7 EQ PUSH2 0x122D JUMPI PUSH1 0x1 DUP2 PUSH2 0x119A SWAP2 SWAP1 PUSH2 0x2DD4 JUMP JUMPDEST SWAP1 POP PUSH0 PUSH1 0xA DUP1 DUP9 PUSH2 0x11AB SWAP2 SWAP1 PUSH2 0x2DA4 JUMP JUMPDEST PUSH2 0x11B5 SWAP2 SWAP1 PUSH2 0x29A3 JUMP JUMPDEST DUP8 PUSH2 0x11C0 SWAP2 SWAP1 PUSH2 0x2DD4 JUMP JUMPDEST PUSH1 0x30 PUSH2 0x11CC SWAP2 SWAP1 PUSH2 0x2E13 JUMP JUMPDEST SWAP1 POP PUSH0 DUP2 PUSH1 0xF8 SHL SWAP1 POP DUP1 DUP5 DUP5 DUP2 MLOAD DUP2 LT PUSH2 0x11E9 JUMPI PUSH2 0x11E8 PUSH2 0x2E47 JUMP JUMPDEST JUMPDEST PUSH1 0x20 ADD ADD SWAP1 PUSH31 0xFFFFFFFFFFFFFFFFFFFFFFFFFFFFFFFFFFFFFFFFFFFFFFFFFFFFFFFFFFFFFF NOT AND SWAP1 DUP2 PUSH0 BYTE SWAP1 MSTORE8 POP PUSH1 0xA DUP9 PUSH2 0x1224 SWAP2 SWAP1 PUSH2 0x2DA4 JUMP JUMPDEST SWAP8 POP POP POP PUSH2 0x1186 JUMP JUMPDEST DUP2 SWAP5 POP POP POP POP POP JUMPDEST SWAP2 SWAP1 POP JUMP JUMPDEST DUP1 PUSH1 0x6 PUSH0 DUP5 DUP2 MSTORE PUSH1 0x20 ADD SWAP1 DUP2 MSTORE PUSH1 0x20 ADD PUSH0 KECCAK256 SWAP1 DUP2 PUSH2 0x1258 SWAP2 SWAP1 PUSH2 0x3011 JUMP JUMPDEST POP PUSH32 0xF8E1A15ABA9398E019F0B49DF1A4FDE98EE17AE345CB5F6B5E2C27F5033E8CE7 DUP3 PUSH1 0x40 MLOAD PUSH2 0x1288 SWAP2 SWAP1 PUSH2 0x24F4 JUMP JUMPDEST PUSH1 0x40 MLOAD DUP1 SWAP2 SUB SWAP1 LOG1 POP POP JUMP JUMPDEST PUSH0 DUP1 PUSH2 0x12A1 DUP6 DUP6 DUP6 PUSH2 0x1AE0 JUMP JUMPDEST SWAP1 POP PUSH0 PUSH20 0xFFFFFFFFFFFFFFFFFFFFFFFFFFFFFFFFFFFFFFFF AND DUP2 PUSH20 0xFFFFFFFFFFFFFFFFFFFFFFFFFFFFFFFFFFFFFFFF AND EQ PUSH2 0x12E1 JUMPI PUSH2 0x12E0 DUP2 DUP6 PUSH2 0x1CEB JUMP JUMPDEST JUMPDEST PUSH0 PUSH20 0xFFFFFFFFFFFFFFFFFFFFFFFFFFFFFFFFFFFFFFFF AND DUP6 PUSH20 0xFFFFFFFFFFFFFFFFFFFFFFFFFFFFFFFFFFFFFFFF AND EQ PUSH2 0x1376 JUMPI PUSH1 0xC PUSH0 DUP7 PUSH20 0xFFFFFFFFFFFFFFFFFFFFFFFFFFFFFFFFFFFFFFFF AND PUSH20 0xFFFFFFFFFFFFFFFFFFFFFFFFFFFFFFFFFFFFFFFF AND DUP2 MSTORE PUSH1 0x20 ADD SWAP1 DUP2 MSTORE PUSH1 0x20 ADD PUSH0 KECCAK256 DUP5 SWAP1 DUP1 PUSH1 0x1 DUP2 SLOAD ADD DUP1 DUP3 SSTORE DUP1 SWAP2 POP POP PUSH1 0x1 SWAP1 SUB SWAP1 PUSH0 MSTORE PUSH1 0x20 PUSH0 KECCAK256 ADD PUSH0 SWAP1 SWAP2 SWAP1 SWAP2 SWAP1 SWAP2 POP SSTORE JUMPDEST DUP1 SWAP2 POP POP SWAP4 SWAP3 POP POP POP JUMP JUMPDEST PUSH2 0x1389 PUSH2 0x1014 JUMP JUMPDEST PUSH20 0xFFFFFFFFFFFFFFFFFFFFFFFFFFFFFFFFFFFFFFFF AND PUSH2 0x13A7 PUSH2 0xB19 JUMP JUMPDEST PUSH20 0xFFFFFFFFFFFFFFFFFFFFFFFFFFFFFFFFFFFFFFFF AND EQ PUSH2 0x1406 JUMPI PUSH2 0x13CA PUSH2 0x1014 JUMP JUMPDEST PUSH1 0x40 MLOAD PUSH32 0x118CDAA700000000000000000000000000000000000000000000000000000000 DUP2 MSTORE PUSH1 0x4 ADD PUSH2 0x13FD SWAP2 SWAP1 PUSH2 0x2464 JUMP JUMPDEST PUSH1 0x40 MLOAD DUP1 SWAP2 SUB SWAP1 REVERT JUMPDEST JUMP JUMPDEST PUSH0 PUSH1 0x7 PUSH0 SWAP1 SLOAD SWAP1 PUSH2 0x100 EXP SWAP1 DIV PUSH20 0xFFFFFFFFFFFFFFFFFFFFFFFFFFFFFFFFFFFFFFFF AND SWAP1 POP DUP2 PUSH1 0x7 PUSH0 PUSH2 0x100 EXP DUP2 SLOAD DUP2 PUSH20 0xFFFFFFFFFFFFFFFFFFFFFFFFFFFFFFFFFFFFFFFF MUL NOT AND SWAP1 DUP4 PUSH20 0xFFFFFFFFFFFFFFFFFFFFFFFFFFFFFFFFFFFFFFFF AND MUL OR SWAP1 SSTORE POP DUP2 PUSH20 0xFFFFFFFFFFFFFFFFFFFFFFFFFFFFFFFFFFFFFFFF AND DUP2 PUSH20 0xFFFFFFFFFFFFFFFFFFFFFFFFFFFFFFFFFFFFFFFF AND PUSH32 0x8BE0079C531659141344CD1FD0A4F28419497F9722A3DAAFE3B4186F6B6457E0 PUSH1 0x40 MLOAD PUSH1 0x40 MLOAD DUP1 SWAP2 SUB SWAP1 LOG3 POP POP JUMP JUMPDEST PUSH0 PUSH20 0xFFFFFFFFFFFFFFFFFFFFFFFFFFFFFFFFFFFFFFFF AND DUP3 PUSH20 0xFFFFFFFFFFFFFFFFFFFFFFFFFFFFFFFFFFFFFFFF AND SUB PUSH2 0x153B JUMPI DUP2 PUSH1 0x40 MLOAD PUSH32 0x5B08BA1800000000000000000000000000000000000000000000000000000000 DUP2 MSTORE PUSH1 0x4 ADD PUSH2 0x1532 SWAP2 SWAP1 PUSH2 0x2464 JUMP JUMPDEST PUSH1 0x40 MLOAD DUP1 SWAP2 SUB SWAP1 REVERT JUMPDEST DUP1 PUSH1 0x5 PUSH0 DUP6 PUSH20 0xFFFFFFFFFFFFFFFFFFFFFFFFFFFFFFFFFFFFFFFF AND PUSH20 0xFFFFFFFFFFFFFFFFFFFFFFFFFFFFFFFFFFFFFFFF AND DUP2 MSTORE PUSH1 0x20 ADD SWAP1 DUP2 MSTORE PUSH1 0x20 ADD PUSH0 KECCAK256 PUSH0 DUP5 PUSH20 0xFFFFFFFFFFFFFFFFFFFFFFFFFFFFFFFFFFFFFFFF AND PUSH20 0xFFFFFFFFFFFFFFFFFFFFFFFFFFFFFFFFFFFFFFFF AND DUP2 MSTORE PUSH1 0x20 ADD SWAP1 DUP2 MSTORE PUSH1 0x20 ADD PUSH0 KECCAK256 PUSH0 PUSH2 0x100 EXP DUP2 SLOAD DUP2 PUSH1 0xFF MUL NOT AND SWAP1 DUP4 ISZERO ISZERO MUL OR SWAP1 SSTORE POP DUP2 PUSH20 0xFFFFFFFFFFFFFFFFFFFFFFFFFFFFFFFFFFFFFFFF AND DUP4 PUSH20 0xFFFFFFFFFFFFFFFFFFFFFFFFFFFFFFFFFFFFFFFF AND PUSH32 0x17307EAB39AB6107E8899845AD3D59BD9653F200F220920489CA2B5937696C31 DUP4 PUSH1 0x40 MLOAD PUSH2 0x1627 SWAP2 SWAP1 PUSH2 0x231E JUMP JUMPDEST PUSH1 0x40 MLOAD DUP1 SWAP2 SUB SWAP1 LOG3 POP POP POP JUMP JUMPDEST PUSH0 DUP4 PUSH20 0xFFFFFFFFFFFFFFFFFFFFFFFFFFFFFFFFFFFFFFFF AND EXTCODESIZE GT ISZERO PUSH2 0x17D9 JUMPI DUP3 PUSH20 0xFFFFFFFFFFFFFFFFFFFFFFFFFFFFFFFFFFFFFFFF AND PUSH4 0x150B7A02 DUP7 DUP7 DUP6 DUP6 PUSH1 0x40 MLOAD DUP6 PUSH4 0xFFFFFFFF AND PUSH1 0xE0 SHL DUP2 MSTORE PUSH1 0x4 ADD PUSH2 0x1692 SWAP5 SWAP4 SWAP3 SWAP2 SWAP1 PUSH2 0x3132 JUMP JUMPDEST PUSH1 0x20 PUSH1 0x40 MLOAD DUP1 DUP4 SUB DUP2 PUSH0 DUP8 GAS CALL SWAP3 POP POP POP DUP1 ISZERO PUSH2 0x16CD JUMPI POP PUSH1 0x40 MLOAD RETURNDATASIZE PUSH1 0x1F NOT PUSH1 0x1F DUP3 ADD AND DUP3 ADD DUP1 PUSH1 0x40 MSTORE POP DUP2 ADD SWAP1 PUSH2 0x16CA SWAP2 SWAP1 PUSH2 0x3190 JUMP JUMPDEST PUSH1 0x1 JUMPDEST PUSH2 0x174E JUMPI RETURNDATASIZE DUP1 PUSH0 DUP2 EQ PUSH2 0x16FB JUMPI PUSH1 0x40 MLOAD SWAP2 POP PUSH1 0x1F NOT PUSH1 0x3F RETURNDATASIZE ADD AND DUP3 ADD PUSH1 0x40 MSTORE RETURNDATASIZE DUP3 MSTORE RETURNDATASIZE PUSH0 PUSH1 0x20 DUP5 ADD RETURNDATACOPY PUSH2 0x1700 JUMP JUMPDEST PUSH1 0x60 SWAP2 POP JUMPDEST POP PUSH0 DUP2 MLOAD SUB PUSH2 0x1746 JUMPI DUP4 PUSH1 0x40 MLOAD PUSH32 0x64A0AE9200000000000000000000000000000000000000000000000000000000 DUP2 MSTORE PUSH1 0x4 ADD PUSH2 0x173D SWAP2 SWAP1 PUSH2 0x2464 JUMP JUMPDEST PUSH1 0x40 MLOAD DUP1 SWAP2 SUB SWAP1 REVERT JUMPDEST DUP1 MLOAD DUP2 PUSH1 0x20 ADD REVERT JUMPDEST PUSH4 0x150B7A02 PUSH1 0xE0 SHL PUSH28 0xFFFFFFFFFFFFFFFFFFFFFFFFFFFFFFFFFFFFFFFFFFFFFFFFFFFFFFFF NOT AND DUP2 PUSH28 0xFFFFFFFFFFFFFFFFFFFFFFFFFFFFFFFFFFFFFFFFFFFFFFFFFFFFFFFF NOT AND EQ PUSH2 0x17D7 JUMPI DUP4 PUSH1 0x40 MLOAD PUSH32 0x64A0AE9200000000000000000000000000000000000000000000000000000000 DUP2 MSTORE PUSH1 0x4 ADD PUSH2 0x17CE SWAP2 SWAP1 PUSH2 0x2464 JUMP JUMPDEST PUSH1 0x40 MLOAD DUP1 SWAP2 SUB SWAP1 REVERT JUMPDEST POP JUMPDEST POP POP POP POP POP JUMP JUMPDEST PUSH1 0x60 PUSH1 0x40 MLOAD DUP1 PUSH1 0x20 ADD PUSH1 0x40 MSTORE DUP1 PUSH0 DUP2 MSTORE POP SWAP1 POP SWAP1 JUMP JUMPDEST PUSH1 0x60 PUSH2 0x1801 DUP3 PUSH2 0xF55 JUMP JUMPDEST POP PUSH0 PUSH2 0x180B PUSH2 0x17E0 JUMP JUMPDEST SWAP1 POP PUSH0 DUP2 MLOAD GT PUSH2 0x1829 JUMPI PUSH1 0x40 MLOAD DUP1 PUSH1 0x20 ADD PUSH1 0x40 MSTORE DUP1 PUSH0 DUP2 MSTORE POP PUSH2 0x1854 JUMP JUMPDEST DUP1 PUSH2 0x1833 DUP5 PUSH2 0x1DE2 JUMP JUMPDEST PUSH1 0x40 MLOAD PUSH1 0x20 ADD PUSH2 0x1844 SWAP3 SWAP2 SWAP1 PUSH2 0x2C09 JUMP JUMPDEST PUSH1 0x40 MLOAD PUSH1 0x20 DUP2 DUP4 SUB SUB DUP2 MSTORE SWAP1 PUSH1 0x40 MSTORE JUMPDEST SWAP2 POP POP SWAP2 SWAP1 POP JUMP JUMPDEST PUSH0 PUSH32 0x1FFC9A700000000000000000000000000000000000000000000000000000000 PUSH28 0xFFFFFFFFFFFFFFFFFFFFFFFFFFFFFFFFFFFFFFFFFFFFFFFFFFFFFFFF NOT AND DUP3 PUSH28 0xFFFFFFFFFFFFFFFFFFFFFFFFFFFFFFFFFFFFFFFFFFFFFFFFFFFFFFFF NOT AND EQ SWAP1 POP SWAP2 SWAP1 POP JUMP JUMPDEST PUSH0 PUSH1 0x2 PUSH0 DUP4 DUP2 MSTORE PUSH1 0x20 ADD SWAP1 DUP2 MSTORE PUSH1 0x20 ADD PUSH0 KECCAK256 PUSH0 SWAP1 SLOAD SWAP1 PUSH2 0x100 EXP SWAP1 DIV PUSH20 0xFFFFFFFFFFFFFFFFFFFFFFFFFFFFFFFFFFFFFFFF AND SWAP1 POP SWAP2 SWAP1 POP JUMP JUMPDEST DUP1 DUP1 PUSH2 0x1936 JUMPI POP PUSH0 PUSH20 0xFFFFFFFFFFFFFFFFFFFFFFFFFFFFFFFFFFFFFFFF AND DUP3 PUSH20 0xFFFFFFFFFFFFFFFFFFFFFFFFFFFFFFFFFFFFFFFF AND EQ ISZERO JUMPDEST ISZERO PUSH2 0x1A68 JUMPI PUSH0 PUSH2 0x1945 DUP5 PUSH2 0xF55 JUMP JUMPDEST SWAP1 POP PUSH0 PUSH20 0xFFFFFFFFFFFFFFFFFFFFFFFFFFFFFFFFFFFFFFFF AND DUP4 PUSH20 0xFFFFFFFFFFFFFFFFFFFFFFFFFFFFFFFFFFFFFFFF AND EQ ISZERO DUP1 ISZERO PUSH2 0x19AF JUMPI POP DUP3 PUSH20 0xFFFFFFFFFFFFFFFFFFFFFFFFFFFFFFFFFFFFFFFF AND DUP2 PUSH20 0xFFFFFFFFFFFFFFFFFFFFFFFFFFFFFFFFFFFFFFFF AND EQ ISZERO JUMPDEST DUP1 ISZERO PUSH2 0x19C2 JUMPI POP PUSH2 0x19C0 DUP2 DUP5 PUSH2 0xD62 JUMP JUMPDEST ISZERO JUMPDEST ISZERO PUSH2 0x1A04 JUMPI DUP3 PUSH1 0x40 MLOAD PUSH32 0xA9FBF51F00000000000000000000000000000000000000000000000000000000 DUP2 MSTORE PUSH1 0x4 ADD PUSH2 0x19FB SWAP2 SWAP1 PUSH2 0x2464 JUMP JUMPDEST PUSH1 0x40 MLOAD DUP1 SWAP2 SUB SWAP1 REVERT JUMPDEST DUP2 ISZERO PUSH2 0x1A66 JUMPI DUP4 DUP6 PUSH20 0xFFFFFFFFFFFFFFFFFFFFFFFFFFFFFFFFFFFFFFFF AND DUP3 PUSH20 0xFFFFFFFFFFFFFFFFFFFFFFFFFFFFFFFFFFFFFFFF AND PUSH32 0x8C5BE1E5EBEC7D5BD14F71427D1E84F3DD0314C0F7B2291E5B200AC8C7C3B925 PUSH1 0x40 MLOAD PUSH1 0x40 MLOAD DUP1 SWAP2 SUB SWAP1 LOG4 JUMPDEST POP JUMPDEST DUP4 PUSH1 0x4 PUSH0 DUP6 DUP2 MSTORE PUSH1 0x20 ADD SWAP1 DUP2 MSTORE PUSH1 0x20 ADD PUSH0 KECCAK256 PUSH0 PUSH2 0x100 EXP DUP2 SLOAD DUP2 PUSH20 0xFFFFFFFFFFFFFFFFFFFFFFFFFFFFFFFFFFFFFFFF MUL NOT AND SWAP1 DUP4 PUSH20 0xFFFFFFFFFFFFFFFFFFFFFFFFFFFFFFFFFFFFFFFF AND MUL OR SWAP1 SSTORE POP POP POP POP POP JUMP JUMPDEST PUSH2 0x1AC7 DUP4 DUP4 PUSH2 0x1EAC JUMP JUMPDEST PUSH2 0x1ADB PUSH2 0x1AD2 PUSH2 0x1014 JUMP JUMPDEST PUSH0 DUP6 DUP6 DUP6 PUSH2 0x1634 JUMP JUMPDEST POP POP POP JUMP JUMPDEST PUSH0 DUP1 PUSH2 0x1AEB DUP5 PUSH2 0x18C5 JUMP JUMPDEST SWAP1 POP PUSH0 PUSH20 0xFFFFFFFFFFFFFFFFFFFFFFFFFFFFFFFFFFFFFFFF AND DUP4 PUSH20 0xFFFFFFFFFFFFFFFFFFFFFFFFFFFFFFFFFFFFFFFF AND EQ PUSH2 0x1B2C JUMPI PUSH2 0x1B2B DUP2 DUP5 DUP7 PUSH2 0x1F9F JUMP JUMPDEST JUMPDEST PUSH0 PUSH20 0xFFFFFFFFFFFFFFFFFFFFFFFFFFFFFFFFFFFFFFFF AND DUP2 PUSH20 0xFFFFFFFFFFFFFFFFFFFFFFFFFFFFFFFFFFFFFFFF AND EQ PUSH2 0x1BB7 JUMPI PUSH2 0x1B6B PUSH0 DUP6 PUSH0 DUP1 PUSH2 0x18FE JUMP JUMPDEST PUSH1 0x1 PUSH1 0x3 PUSH0 DUP4 PUSH20 0xFFFFFFFFFFFFFFFFFFFFFFFFFFFFFFFFFFFFFFFF AND PUSH20 0xFFFFFFFFFFFFFFFFFFFFFFFFFFFFFFFFFFFFFFFF AND DUP2 MSTORE PUSH1 0x20 ADD SWAP1 DUP2 MSTORE PUSH1 0x20 ADD PUSH0 KECCAK256 PUSH0 DUP3 DUP3 SLOAD SUB SWAP3 POP POP DUP2 SWAP1 SSTORE POP JUMPDEST PUSH0 PUSH20 0xFFFFFFFFFFFFFFFFFFFFFFFFFFFFFFFFFFFFFFFF AND DUP6 PUSH20 0xFFFFFFFFFFFFFFFFFFFFFFFFFFFFFFFFFFFFFFFF AND EQ PUSH2 0x1C36 JUMPI PUSH1 0x1 PUSH1 0x3 PUSH0 DUP8 PUSH20 0xFFFFFFFFFFFFFFFFFFFFFFFFFFFFFFFFFFFFFFFF AND PUSH20 0xFFFFFFFFFFFFFFFFFFFFFFFFFFFFFFFFFFFFFFFF AND DUP2 MSTORE PUSH1 0x20 ADD SWAP1 DUP2 MSTORE PUSH1 0x20 ADD PUSH0 KECCAK256 PUSH0 DUP3 DUP3 SLOAD ADD SWAP3 POP POP DUP2 SWAP1 SSTORE POP JUMPDEST DUP5 PUSH1 0x2 PUSH0 DUP7 DUP2 MSTORE PUSH1 0x20 ADD SWAP1 DUP2 MSTORE PUSH1 0x20 ADD PUSH0 KECCAK256 PUSH0 PUSH2 0x100 EXP DUP2 SLOAD DUP2 PUSH20 0xFFFFFFFFFFFFFFFFFFFFFFFFFFFFFFFFFFFFFFFF MUL NOT AND SWAP1 DUP4 PUSH20 0xFFFFFFFFFFFFFFFFFFFFFFFFFFFFFFFFFFFFFFFF AND MUL OR SWAP1 SSTORE POP DUP4 DUP6 PUSH20 0xFFFFFFFFFFFFFFFFFFFFFFFFFFFFFFFFFFFFFFFF AND DUP3 PUSH20 0xFFFFFFFFFFFFFFFFFFFFFFFFFFFFFFFFFFFFFFFF AND PUSH32 0xDDF252AD1BE2C89B69C2B068FC378DAA952BA7F163C4A11628F55A4DF523B3EF PUSH1 0x40 MLOAD PUSH1 0x40 MLOAD DUP1 SWAP2 SUB SWAP1 LOG4 DUP1 SWAP2 POP POP SWAP4 SWAP3 POP POP POP JUMP JUMPDEST PUSH0 PUSH1 0xC PUSH0 DUP5 PUSH20 0xFFFFFFFFFFFFFFFFFFFFFFFFFFFFFFFFFFFFFFFF AND PUSH20 0xFFFFFFFFFFFFFFFFFFFFFFFFFFFFFFFFFFFFFFFF AND DUP2 MSTORE PUSH1 0x20 ADD SWAP1 DUP2 MSTORE PUSH1 0x20 ADD PUSH0 KECCAK256 SWAP1 POP PUSH0 JUMPDEST DUP2 DUP1 SLOAD SWAP1 POP DUP2 LT ISZERO PUSH2 0x1DDC JUMPI DUP3 DUP3 DUP3 DUP2 SLOAD DUP2 LT PUSH2 0x1D4D JUMPI PUSH2 0x1D4C PUSH2 0x2E47 JUMP JUMPDEST JUMPDEST SWAP1 PUSH0 MSTORE PUSH1 0x20 PUSH0 KECCAK256 ADD SLOAD SUB PUSH2 0x1DCF JUMPI DUP2 PUSH1 0x1 DUP4 DUP1 SLOAD SWAP1 POP PUSH2 0x1D6D SWAP2 SWAP1 PUSH2 0x2DD4 JUMP JUMPDEST DUP2 SLOAD DUP2 LT PUSH2 0x1D7E JUMPI PUSH2 0x1D7D PUSH2 0x2E47 JUMP JUMPDEST JUMPDEST SWAP1 PUSH0 MSTORE PUSH1 0x20 PUSH0 KECCAK256 ADD SLOAD DUP3 DUP3 DUP2 SLOAD DUP2 LT PUSH2 0x1D9A JUMPI PUSH2 0x1D99 PUSH2 0x2E47 JUMP JUMPDEST JUMPDEST SWAP1 PUSH0 MSTORE PUSH1 0x20 PUSH0 KECCAK256 ADD DUP2 SWAP1 SSTORE POP DUP2 DUP1 SLOAD DUP1 PUSH2 0x1DB7 JUMPI PUSH2 0x1DB6 PUSH2 0x31BB JUMP JUMPDEST JUMPDEST PUSH1 0x1 SWAP1 SUB DUP2 DUP2 SWAP1 PUSH0 MSTORE PUSH1 0x20 PUSH0 KECCAK256 ADD PUSH0 SWAP1 SSTORE SWAP1 SSTORE PUSH2 0x1DDC JUMP JUMPDEST DUP1 DUP1 PUSH1 0x1 ADD SWAP2 POP POP PUSH2 0x1D2D JUMP JUMPDEST POP POP POP POP JUMP JUMPDEST PUSH1 0x60 PUSH0 PUSH1 0x1 PUSH2 0x1DF0 DUP5 PUSH2 0x2062 JUMP JUMPDEST ADD SWAP1 POP PUSH0 DUP2 PUSH8 0xFFFFFFFFFFFFFFFF DUP2 GT ISZERO PUSH2 0x1E0E JUMPI PUSH2 0x1E0D PUSH2 0x26CF JUMP JUMPDEST JUMPDEST PUSH1 0x40 MLOAD SWAP1 DUP1 DUP3 MSTORE DUP1 PUSH1 0x1F ADD PUSH1 0x1F NOT AND PUSH1 0x20 ADD DUP3 ADD PUSH1 0x40 MSTORE DUP1 ISZERO PUSH2 0x1E40 JUMPI DUP2 PUSH1 0x20 ADD PUSH1 0x1 DUP3 MUL DUP1 CALLDATASIZE DUP4 CALLDATACOPY DUP1 DUP3 ADD SWAP2 POP POP SWAP1 POP JUMPDEST POP SWAP1 POP PUSH0 DUP3 PUSH1 0x20 ADD DUP3 ADD SWAP1 POP JUMPDEST PUSH1 0x1 ISZERO PUSH2 0x1EA1 JUMPI DUP1 DUP1 PUSH1 0x1 SWAP1 SUB SWAP2 POP POP PUSH32 0x3031323334353637383961626364656600000000000000000000000000000000 PUSH1 0xA DUP7 MOD BYTE DUP2 MSTORE8 PUSH1 0xA DUP6 DUP2 PUSH2 0x1E96 JUMPI PUSH2 0x1E95 PUSH2 0x2CCD JUMP JUMPDEST JUMPDEST DIV SWAP5 POP PUSH0 DUP6 SUB PUSH2 0x1E4D JUMPI JUMPDEST DUP2 SWAP4 POP POP POP POP SWAP2 SWAP1 POP JUMP JUMPDEST PUSH0 PUSH20 0xFFFFFFFFFFFFFFFFFFFFFFFFFFFFFFFFFFFFFFFF AND DUP3 PUSH20 0xFFFFFFFFFFFFFFFFFFFFFFFFFFFFFFFFFFFFFFFF AND SUB PUSH2 0x1F1C JUMPI PUSH0 PUSH1 0x40 MLOAD PUSH32 0x64A0AE9200000000000000000000000000000000000000000000000000000000 DUP2 MSTORE PUSH1 0x4 ADD PUSH2 0x1F13 SWAP2 SWAP1 PUSH2 0x2464 JUMP JUMPDEST PUSH1 0x40 MLOAD DUP1 SWAP2 SUB SWAP1 REVERT JUMPDEST PUSH0 PUSH2 0x1F28 DUP4 DUP4 PUSH0 PUSH2 0x1294 JUMP JUMPDEST SWAP1 POP PUSH0 PUSH20 0xFFFFFFFFFFFFFFFFFFFFFFFFFFFFFFFFFFFFFFFF AND DUP2 PUSH20 0xFFFFFFFFFFFFFFFFFFFFFFFFFFFFFFFFFFFFFFFF AND EQ PUSH2 0x1F9A JUMPI PUSH0 PUSH1 0x40 MLOAD PUSH32 0x73C6AC6E00000000000000000000000000000000000000000000000000000000 DUP2 MSTORE PUSH1 0x4 ADD PUSH2 0x1F91 SWAP2 SWAP1 PUSH2 0x2464 JUMP JUMPDEST PUSH1 0x40 MLOAD DUP1 SWAP2 SUB SWAP1 REVERT JUMPDEST POP POP POP JUMP JUMPDEST PUSH2 0x1FAA DUP4 DUP4 DUP4 PUSH2 0x21B3 JUMP JUMPDEST PUSH2 0x205D JUMPI PUSH0 PUSH20 0xFFFFFFFFFFFFFFFFFFFFFFFFFFFFFFFFFFFFFFFF AND DUP4 PUSH20 0xFFFFFFFFFFFFFFFFFFFFFFFFFFFFFFFFFFFFFFFF AND SUB PUSH2 0x201E JUMPI DUP1 PUSH1 0x40 MLOAD PUSH32 0x7E27328900000000000000000000000000000000000000000000000000000000 DUP2 MSTORE PUSH1 0x4 ADD PUSH2 0x2015 SWAP2 SWAP1 PUSH2 0x24F4 JUMP JUMPDEST PUSH1 0x40 MLOAD DUP1 SWAP2 SUB SWAP1 REVERT JUMPDEST DUP2 DUP2 PUSH1 0x40 MLOAD PUSH32 0x177E802F00000000000000000000000000000000000000000000000000000000 DUP2 MSTORE PUSH1 0x4 ADD PUSH2 0x2054 SWAP3 SWAP2 SWAP1 PUSH2 0x31E8 JUMP JUMPDEST PUSH1 0x40 MLOAD DUP1 SWAP2 SUB SWAP1 REVERT JUMPDEST POP POP POP JUMP JUMPDEST PUSH0 DUP1 PUSH0 SWAP1 POP PUSH27 0x184F03E93FF9F4DAA797ED6E38ED64BF6A1F010000000000000000 DUP4 LT PUSH2 0x20BE JUMPI PUSH27 0x184F03E93FF9F4DAA797ED6E38ED64BF6A1F010000000000000000 DUP4 DUP2 PUSH2 0x20B4 JUMPI PUSH2 0x20B3 PUSH2 0x2CCD JUMP JUMPDEST JUMPDEST DIV SWAP3 POP PUSH1 0x40 DUP2 ADD SWAP1 POP JUMPDEST PUSH14 0x4EE2D6D415B85ACEF8100000000 DUP4 LT PUSH2 0x20FB JUMPI PUSH14 0x4EE2D6D415B85ACEF8100000000 DUP4 DUP2 PUSH2 0x20F1 JUMPI PUSH2 0x20F0 PUSH2 0x2CCD JUMP JUMPDEST JUMPDEST DIV SWAP3 POP PUSH1 0x20 DUP2 ADD SWAP1 POP JUMPDEST PUSH7 0x2386F26FC10000 DUP4 LT PUSH2 0x212A JUMPI PUSH7 0x2386F26FC10000 DUP4 DUP2 PUSH2 0x2120 JUMPI PUSH2 0x211F PUSH2 0x2CCD JUMP JUMPDEST JUMPDEST DIV SWAP3 POP PUSH1 0x10 DUP2 ADD SWAP1 POP JUMPDEST PUSH4 0x5F5E100 DUP4 LT PUSH2 0x2153 JUMPI PUSH4 0x5F5E100 DUP4 DUP2 PUSH2 0x2149 JUMPI PUSH2 0x2148 PUSH2 0x2CCD JUMP JUMPDEST JUMPDEST DIV SWAP3 POP PUSH1 0x8 DUP2 ADD SWAP1 POP JUMPDEST PUSH2 0x2710 DUP4 LT PUSH2 0x2178 JUMPI PUSH2 0x2710 DUP4 DUP2 PUSH2 0x216E JUMPI PUSH2 0x216D PUSH2 0x2CCD JUMP JUMPDEST JUMPDEST DIV SWAP3 POP PUSH1 0x4 DUP2 ADD SWAP1 POP JUMPDEST PUSH1 0x64 DUP4 LT PUSH2 0x219B JUMPI PUSH1 0x64 DUP4 DUP2 PUSH2 0x2191 JUMPI PUSH2 0x2190 PUSH2 0x2CCD JUMP JUMPDEST JUMPDEST DIV SWAP3 POP PUSH1 0x2 DUP2 ADD SWAP1 POP JUMPDEST PUSH1 0xA DUP4 LT PUSH2 0x21AA JUMPI PUSH1 0x1 DUP2 ADD SWAP1 POP JUMPDEST DUP1 SWAP2 POP POP SWAP2 SWAP1 POP JUMP JUMPDEST PUSH0 DUP1 PUSH20 0xFFFFFFFFFFFFFFFFFFFFFFFFFFFFFFFFFFFFFFFF AND DUP4 PUSH20 0xFFFFFFFFFFFFFFFFFFFFFFFFFFFFFFFFFFFFFFFF AND EQ ISZERO DUP1 ISZERO PUSH2 0x226A JUMPI POP DUP3 PUSH20 0xFFFFFFFFFFFFFFFFFFFFFFFFFFFFFFFFFFFFFFFF AND DUP5 PUSH20 0xFFFFFFFFFFFFFFFFFFFFFFFFFFFFFFFFFFFFFFFF AND EQ DUP1 PUSH2 0x222B JUMPI POP PUSH2 0x222A DUP5 DUP5 PUSH2 0xD62 JUMP JUMPDEST JUMPDEST DUP1 PUSH2 0x2269 JUMPI POP DUP3 PUSH20 0xFFFFFFFFFFFFFFFFFFFFFFFFFFFFFFFFFFFFFFFF AND PUSH2 0x2251 DUP4 PUSH2 0xFDB JUMP JUMPDEST PUSH20 0xFFFFFFFFFFFFFFFFFFFFFFFFFFFFFFFFFFFFFFFF AND EQ JUMPDEST JUMPDEST SWAP1 POP SWAP4 SWAP3 POP POP POP JUMP JUMPDEST PUSH0 PUSH1 0x40 MLOAD SWAP1 POP SWAP1 JUMP JUMPDEST PUSH0 DUP1 REVERT JUMPDEST PUSH0 DUP1 REVERT JUMPDEST PUSH0 PUSH32 0xFFFFFFFF00000000000000000000000000000000000000000000000000000000 DUP3 AND SWAP1 POP SWAP2 SWAP1 POP JUMP JUMPDEST PUSH2 0x22B8 DUP2 PUSH2 0x2284 JUMP JUMPDEST DUP2 EQ PUSH2 0x22C2 JUMPI PUSH0 DUP1 REVERT JUMPDEST POP JUMP JUMPDEST PUSH0 DUP2 CALLDATALOAD SWAP1 POP PUSH2 0x22D3 DUP2 PUSH2 0x22AF JUMP JUMPDEST SWAP3 SWAP2 POP POP JUMP JUMPDEST PUSH0 PUSH1 0x20 DUP3 DUP5 SUB SLT ISZERO PUSH2 0x22EE JUMPI PUSH2 0x22ED PUSH2 0x227C JUMP JUMPDEST JUMPDEST PUSH0 PUSH2 0x22FB DUP5 DUP3 DUP6 ADD PUSH2 0x22C5 JUMP JUMPDEST SWAP2 POP POP SWAP3 SWAP2 POP POP JUMP JUMPDEST PUSH0 DUP2 ISZERO ISZERO SWAP1 POP SWAP2 SWAP1 POP JUMP JUMPDEST PUSH2 0x2318 DUP2 PUSH2 0x2304 JUMP JUMPDEST DUP3 MSTORE POP POP JUMP JUMPDEST PUSH0 PUSH1 0x20 DUP3 ADD SWAP1 POP PUSH2 0x2331 PUSH0 DUP4 ADD DUP5 PUSH2 0x230F JUMP JUMPDEST SWAP3 SWAP2 POP POP JUMP JUMPDEST PUSH0 DUP2 MLOAD SWAP1 POP SWAP2 SWAP1 POP JUMP JUMPDEST PUSH0 DUP3 DUP3 MSTORE PUSH1 0x20 DUP3 ADD SWAP1 POP SWAP3 SWAP2 POP POP JUMP JUMPDEST DUP3 DUP2 DUP4 MCOPY PUSH0 DUP4 DUP4 ADD MSTORE POP POP POP JUMP JUMPDEST PUSH0 PUSH1 0x1F NOT PUSH1 0x1F DUP4 ADD AND SWAP1 POP SWAP2 SWAP1 POP JUMP JUMPDEST PUSH0 PUSH2 0x2379 DUP3 PUSH2 0x2337 JUMP JUMPDEST PUSH2 0x2383 DUP2 DUP6 PUSH2 0x2341 JUMP JUMPDEST SWAP4 POP PUSH2 0x2393 DUP2 DUP6 PUSH1 0x20 DUP7 ADD PUSH2 0x2351 JUMP JUMPDEST PUSH2 0x239C DUP2 PUSH2 0x235F JUMP JUMPDEST DUP5 ADD SWAP2 POP POP SWAP3 SWAP2 POP POP JUMP JUMPDEST PUSH0 PUSH1 0x20 DUP3 ADD SWAP1 POP DUP2 DUP2 SUB PUSH0 DUP4 ADD MSTORE PUSH2 0x23BF DUP2 DUP5 PUSH2 0x236F JUMP JUMPDEST SWAP1 POP SWAP3 SWAP2 POP POP JUMP JUMPDEST PUSH0 DUP2 SWAP1 POP SWAP2 SWAP1 POP JUMP JUMPDEST PUSH2 0x23D9 DUP2 PUSH2 0x23C7 JUMP JUMPDEST DUP2 EQ PUSH2 0x23E3 JUMPI PUSH0 DUP1 REVERT JUMPDEST POP JUMP JUMPDEST PUSH0 DUP2 CALLDATALOAD SWAP1 POP PUSH2 0x23F4 DUP2 PUSH2 0x23D0 JUMP JUMPDEST SWAP3 SWAP2 POP POP JUMP JUMPDEST PUSH0 PUSH1 0x20 DUP3 DUP5 SUB SLT ISZERO PUSH2 0x240F JUMPI PUSH2 0x240E PUSH2 0x227C JUMP JUMPDEST JUMPDEST PUSH0 PUSH2 0x241C DUP5 DUP3 DUP6 ADD PUSH2 0x23E6 JUMP JUMPDEST SWAP2 POP POP SWAP3 SWAP2 POP POP JUMP JUMPDEST PUSH0 PUSH20 0xFFFFFFFFFFFFFFFFFFFFFFFFFFFFFFFFFFFFFFFF DUP3 AND SWAP1 POP SWAP2 SWAP1 POP JUMP JUMPDEST PUSH0 PUSH2 0x244E DUP3 PUSH2 0x2425 JUMP JUMPDEST SWAP1 POP SWAP2 SWAP1 POP JUMP JUMPDEST PUSH2 0x245E DUP2 PUSH2 0x2444 JUMP JUMPDEST DUP3 MSTORE POP POP JUMP JUMPDEST PUSH0 PUSH1 0x20 DUP3 ADD SWAP1 POP PUSH2 0x2477 PUSH0 DUP4 ADD DUP5 PUSH2 0x2455 JUMP JUMPDEST SWAP3 SWAP2 POP POP JUMP JUMPDEST PUSH2 0x2486 DUP2 PUSH2 0x2444 JUMP JUMPDEST DUP2 EQ PUSH2 0x2490 JUMPI PUSH0 DUP1 REVERT JUMPDEST POP JUMP JUMPDEST PUSH0 DUP2 CALLDATALOAD SWAP1 POP PUSH2 0x24A1 DUP2 PUSH2 0x247D JUMP JUMPDEST SWAP3 SWAP2 POP POP JUMP JUMPDEST PUSH0 DUP1 PUSH1 0x40 DUP4 DUP6 SUB SLT ISZERO PUSH2 0x24BD JUMPI PUSH2 0x24BC PUSH2 0x227C JUMP JUMPDEST JUMPDEST PUSH0 PUSH2 0x24CA DUP6 DUP3 DUP7 ADD PUSH2 0x2493 JUMP JUMPDEST SWAP3 POP POP PUSH1 0x20 PUSH2 0x24DB DUP6 DUP3 DUP7 ADD PUSH2 0x23E6 JUMP JUMPDEST SWAP2 POP POP SWAP3 POP SWAP3 SWAP1 POP JUMP JUMPDEST PUSH2 0x24EE DUP2 PUSH2 0x23C7 JUMP JUMPDEST DUP3 MSTORE POP POP JUMP JUMPDEST PUSH0 PUSH1 0x20 DUP3 ADD SWAP1 POP PUSH2 0x2507 PUSH0 DUP4 ADD DUP5 PUSH2 0x24E5 JUMP JUMPDEST SWAP3 SWAP2 POP POP JUMP JUMPDEST PUSH0 DUP1 PUSH0 PUSH1 0x60 DUP5 DUP7 SUB SLT ISZERO PUSH2 0x2524 JUMPI PUSH2 0x2523 PUSH2 0x227C JUMP JUMPDEST JUMPDEST PUSH0 PUSH2 0x2531 DUP7 DUP3 DUP8 ADD PUSH2 0x2493 JUMP JUMPDEST SWAP4 POP POP PUSH1 0x20 PUSH2 0x2542 DUP7 DUP3 DUP8 ADD PUSH2 0x2493 JUMP JUMPDEST SWAP3 POP POP PUSH1 0x40 PUSH2 0x2553 DUP7 DUP3 DUP8 ADD PUSH2 0x23E6 JUMP JUMPDEST SWAP2 POP POP SWAP3 POP SWAP3 POP SWAP3 JUMP JUMPDEST PUSH0 PUSH1 0x20 DUP3 DUP5 SUB SLT ISZERO PUSH2 0x2572 JUMPI PUSH2 0x2571 PUSH2 0x227C JUMP JUMPDEST JUMPDEST PUSH0 PUSH2 0x257F DUP5 DUP3 DUP6 ADD PUSH2 0x2493 JUMP JUMPDEST SWAP2 POP POP SWAP3 SWAP2 POP POP JUMP JUMPDEST PUSH0 DUP2 MLOAD SWAP1 POP SWAP2 SWAP1 POP JUMP JUMPDEST PUSH0 DUP3 DUP3 MSTORE PUSH1 0x20 DUP3 ADD SWAP1 POP SWAP3 SWAP2 POP POP JUMP JUMPDEST PUSH0 DUP2 SWAP1 POP PUSH1 0x20 DUP3 ADD SWAP1 POP SWAP2 SWAP1 POP JUMP JUMPDEST PUSH2 0x25BA DUP2 PUSH2 0x23C7 JUMP JUMPDEST DUP3 MSTORE POP POP JUMP JUMPDEST PUSH0 PUSH2 0x25CB DUP4 DUP4 PUSH2 0x25B1 JUMP JUMPDEST PUSH1 0x20 DUP4 ADD SWAP1 POP SWAP3 SWAP2 POP POP JUMP JUMPDEST PUSH0 PUSH1 0x20 DUP3 ADD SWAP1 POP SWAP2 SWAP1 POP JUMP JUMPDEST PUSH0 PUSH2 0x25ED DUP3 PUSH2 0x2588 JUMP JUMPDEST PUSH2 0x25F7 DUP2 DUP6 PUSH2 0x2592 JUMP JUMPDEST SWAP4 POP PUSH2 0x2602 DUP4 PUSH2 0x25A2 JUMP JUMPDEST DUP1 PUSH0 JUMPDEST DUP4 DUP2 LT ISZERO PUSH2 0x2632 JUMPI DUP2 MLOAD PUSH2 0x2619 DUP9 DUP3 PUSH2 0x25C0 JUMP JUMPDEST SWAP8 POP PUSH2 0x2624 DUP4 PUSH2 0x25D7 JUMP JUMPDEST SWAP3 POP POP PUSH1 0x1 DUP2 ADD SWAP1 POP PUSH2 0x2605 JUMP JUMPDEST POP DUP6 SWAP4 POP POP POP POP SWAP3 SWAP2 POP POP JUMP JUMPDEST PUSH0 PUSH1 0x20 DUP3 ADD SWAP1 POP DUP2 DUP2 SUB PUSH0 DUP4 ADD MSTORE PUSH2 0x2657 DUP2 DUP5 PUSH2 0x25E3 JUMP JUMPDEST SWAP1 POP SWAP3 SWAP2 POP POP JUMP JUMPDEST PUSH2 0x2668 DUP2 PUSH2 0x2304 JUMP JUMPDEST DUP2 EQ PUSH2 0x2672 JUMPI PUSH0 DUP1 REVERT JUMPDEST POP JUMP JUMPDEST PUSH0 DUP2 CALLDATALOAD SWAP1 POP PUSH2 0x2683 DUP2 PUSH2 0x265F JUMP JUMPDEST SWAP3 SWAP2 POP POP JUMP JUMPDEST PUSH0 DUP1 PUSH1 0x40 DUP4 DUP6 SUB SLT ISZERO PUSH2 0x269F JUMPI PUSH2 0x269E PUSH2 0x227C JUMP JUMPDEST JUMPDEST PUSH0 PUSH2 0x26AC DUP6 DUP3 DUP7 ADD PUSH2 0x2493 JUMP JUMPDEST SWAP3 POP POP PUSH1 0x20 PUSH2 0x26BD DUP6 DUP3 DUP7 ADD PUSH2 0x2675 JUMP JUMPDEST SWAP2 POP POP SWAP3 POP SWAP3 SWAP1 POP JUMP JUMPDEST PUSH0 DUP1 REVERT JUMPDEST PUSH0 DUP1 REVERT JUMPDEST PUSH32 0x4E487B7100000000000000000000000000000000000000000000000000000000 PUSH0 MSTORE PUSH1 0x41 PUSH1 0x4 MSTORE PUSH1 0x24 PUSH0 REVERT JUMPDEST PUSH2 0x2705 DUP3 PUSH2 0x235F JUMP JUMPDEST DUP2 ADD DUP2 DUP2 LT PUSH8 0xFFFFFFFFFFFFFFFF DUP3 GT OR ISZERO PUSH2 0x2724 JUMPI PUSH2 0x2723 PUSH2 0x26CF JUMP JUMPDEST JUMPDEST DUP1 PUSH1 0x40 MSTORE POP POP POP JUMP JUMPDEST PUSH0 PUSH2 0x2736 PUSH2 0x2273 JUMP JUMPDEST SWAP1 POP PUSH2 0x2742 DUP3 DUP3 PUSH2 0x26FC JUMP JUMPDEST SWAP2 SWAP1 POP JUMP JUMPDEST PUSH0 PUSH8 0xFFFFFFFFFFFFFFFF DUP3 GT ISZERO PUSH2 0x2761 JUMPI PUSH2 0x2760 PUSH2 0x26CF JUMP JUMPDEST JUMPDEST PUSH2 0x276A DUP3 PUSH2 0x235F JUMP JUMPDEST SWAP1 POP PUSH1 0x20 DUP2 ADD SWAP1 POP SWAP2 SWAP1 POP JUMP JUMPDEST DUP3 DUP2 DUP4 CALLDATACOPY PUSH0 DUP4 DUP4 ADD MSTORE POP POP POP JUMP JUMPDEST PUSH0 PUSH2 0x2797 PUSH2 0x2792 DUP5 PUSH2 0x2747 JUMP JUMPDEST PUSH2 0x272D JUMP JUMPDEST SWAP1 POP DUP3 DUP2 MSTORE PUSH1 0x20 DUP2 ADD DUP5 DUP5 DUP5 ADD GT ISZERO PUSH2 0x27B3 JUMPI PUSH2 0x27B2 PUSH2 0x26CB JUMP JUMPDEST JUMPDEST PUSH2 0x27BE DUP5 DUP3 DUP6 PUSH2 0x2777 JUMP JUMPDEST POP SWAP4 SWAP3 POP POP POP JUMP JUMPDEST PUSH0 DUP3 PUSH1 0x1F DUP4 ADD SLT PUSH2 0x27DA JUMPI PUSH2 0x27D9 PUSH2 0x26C7 JUMP JUMPDEST JUMPDEST DUP2 CALLDATALOAD PUSH2 0x27EA DUP5 DUP3 PUSH1 0x20 DUP7 ADD PUSH2 0x2785 JUMP JUMPDEST SWAP2 POP POP SWAP3 SWAP2 POP POP JUMP JUMPDEST PUSH0 DUP1 PUSH0 DUP1 PUSH1 0x80 DUP6 DUP8 SUB SLT ISZERO PUSH2 0x280B JUMPI PUSH2 0x280A PUSH2 0x227C JUMP JUMPDEST JUMPDEST PUSH0 PUSH2 0x2818 DUP8 DUP3 DUP9 ADD PUSH2 0x2493 JUMP JUMPDEST SWAP5 POP POP PUSH1 0x20 PUSH2 0x2829 DUP8 DUP3 DUP9 ADD PUSH2 0x2493 JUMP JUMPDEST SWAP4 POP POP PUSH1 0x40 PUSH2 0x283A DUP8 DUP3 DUP9 ADD PUSH2 0x23E6 JUMP JUMPDEST SWAP3 POP POP PUSH1 0x60 DUP6 ADD CALLDATALOAD PUSH8 0xFFFFFFFFFFFFFFFF DUP2 GT ISZERO PUSH2 0x285B JUMPI PUSH2 0x285A PUSH2 0x2280 JUMP JUMPDEST JUMPDEST PUSH2 0x2867 DUP8 DUP3 DUP9 ADD PUSH2 0x27C6 JUMP JUMPDEST SWAP2 POP POP SWAP3 SWAP6 SWAP2 SWAP5 POP SWAP3 POP JUMP JUMPDEST PUSH0 DUP1 PUSH1 0x40 DUP4 DUP6 SUB SLT ISZERO PUSH2 0x2889 JUMPI PUSH2 0x2888 PUSH2 0x227C JUMP JUMPDEST JUMPDEST PUSH0 PUSH2 0x2896 DUP6 DUP3 DUP7 ADD PUSH2 0x2493 JUMP JUMPDEST SWAP3 POP POP PUSH1 0x20 PUSH2 0x28A7 DUP6 DUP3 DUP7 ADD PUSH2 0x2493 JUMP JUMPDEST SWAP2 POP POP SWAP3 POP SWAP3 SWAP1 POP JUMP JUMPDEST PUSH32 0x4E487B7100000000000000000000000000000000000000000000000000000000 PUSH0 MSTORE PUSH1 0x22 PUSH1 0x4 MSTORE PUSH1 0x24 PUSH0 REVERT JUMPDEST PUSH0 PUSH1 0x2 DUP3 DIV SWAP1 POP PUSH1 0x1 DUP3 AND DUP1 PUSH2 0x28F5 JUMPI PUSH1 0x7F DUP3 AND SWAP2 POP JUMPDEST PUSH1 0x20 DUP3 LT DUP2 SUB PUSH2 0x2908 JUMPI PUSH2 0x2907 PUSH2 0x28B1 JUMP JUMPDEST JUMPDEST POP SWAP2 SWAP1 POP JUMP JUMPDEST PUSH32 0x596F752063616E206F6E6C79206D696E74206F6E6520746F6B656E2E00000000 PUSH0 DUP3 ADD MSTORE POP JUMP JUMPDEST PUSH0 PUSH2 0x2942 PUSH1 0x1C DUP4 PUSH2 0x2341 JUMP JUMPDEST SWAP2 POP PUSH2 0x294D DUP3 PUSH2 0x290E JUMP JUMPDEST PUSH1 0x20 DUP3 ADD SWAP1 POP SWAP2 SWAP1 POP JUMP JUMPDEST PUSH0 PUSH1 0x20 DUP3 ADD SWAP1 POP DUP2 DUP2 SUB PUSH0 DUP4 ADD MSTORE PUSH2 0x296F DUP2 PUSH2 0x2936 JUMP JUMPDEST SWAP1 POP SWAP2 SWAP1 POP JUMP JUMPDEST PUSH32 0x4E487B7100000000000000000000000000000000000000000000000000000000 PUSH0 MSTORE PUSH1 0x11 PUSH1 0x4 MSTORE PUSH1 0x24 PUSH0 REVERT JUMPDEST PUSH0 PUSH2 0x29AD DUP3 PUSH2 0x23C7 JUMP JUMPDEST SWAP2 POP PUSH2 0x29B8 DUP4 PUSH2 0x23C7 JUMP JUMPDEST SWAP3 POP DUP3 DUP3 MUL PUSH2 0x29C6 DUP2 PUSH2 0x23C7 JUMP JUMPDEST SWAP2 POP DUP3 DUP3 DIV DUP5 EQ DUP4 ISZERO OR PUSH2 0x29DD JUMPI PUSH2 0x29DC PUSH2 0x2976 JUMP JUMPDEST JUMPDEST POP SWAP3 SWAP2 POP POP JUMP JUMPDEST PUSH32 0x4D6178696D756D20746F6B656E73206D696E7465642E00000000000000000000 PUSH0 DUP3 ADD MSTORE POP JUMP JUMPDEST PUSH0 PUSH2 0x2A18 PUSH1 0x16 DUP4 PUSH2 0x2341 JUMP JUMPDEST SWAP2 POP PUSH2 0x2A23 DUP3 PUSH2 0x29E4 JUMP JUMPDEST PUSH1 0x20 DUP3 ADD SWAP1 POP SWAP2 SWAP1 POP JUMP JUMPDEST PUSH0 PUSH1 0x20 DUP3 ADD SWAP1 POP DUP2 DUP2 SUB PUSH0 DUP4 ADD MSTORE PUSH2 0x2A45 DUP2 PUSH2 0x2A0C JUMP JUMPDEST SWAP1 POP SWAP2 SWAP1 POP JUMP JUMPDEST PUSH0 DUP2 SWAP1 POP SWAP3 SWAP2 POP POP JUMP JUMPDEST PUSH32 0x68747470733A2F2F716F6C642E62697472612E6D61726B65742F77702D696E63 PUSH0 DUP3 ADD MSTORE PUSH32 0x6C756465732F70757A7A6C652F00000000000000000000000000000000000000 PUSH1 0x20 DUP3 ADD MSTORE POP JUMP JUMPDEST PUSH0 PUSH2 0x2AB0 PUSH1 0x2D DUP4 PUSH2 0x2A4C JUMP JUMPDEST SWAP2 POP PUSH2 0x2ABB DUP3 PUSH2 0x2A56 JUMP JUMPDEST PUSH1 0x2D DUP3 ADD SWAP1 POP SWAP2 SWAP1 POP JUMP JUMPDEST PUSH0 PUSH2 0x2AD0 DUP3 PUSH2 0x2337 JUMP JUMPDEST PUSH2 0x2ADA DUP2 DUP6 PUSH2 0x2A4C JUMP JUMPDEST SWAP4 POP PUSH2 0x2AEA DUP2 DUP6 PUSH1 0x20 DUP7 ADD PUSH2 0x2351 JUMP JUMPDEST DUP1 DUP5 ADD SWAP2 POP POP SWAP3 SWAP2 POP POP JUMP JUMPDEST PUSH32 0x2E6A736F6E000000000000000000000000000000000000000000000000000000 PUSH0 DUP3 ADD MSTORE POP JUMP JUMPDEST PUSH0 PUSH2 0x2B2A PUSH1 0x5 DUP4 PUSH2 0x2A4C JUMP JUMPDEST SWAP2 POP PUSH2 0x2B35 DUP3 PUSH2 0x2AF6 JUMP JUMPDEST PUSH1 0x5 DUP3 ADD SWAP1 POP SWAP2 SWAP1 POP JUMP JUMPDEST PUSH0 PUSH2 0x2B4A DUP3 PUSH2 0x2AA4 JUMP JUMPDEST SWAP2 POP PUSH2 0x2B56 DUP3 DUP5 PUSH2 0x2AC6 JUMP JUMPDEST SWAP2 POP PUSH2 0x2B61 DUP3 PUSH2 0x2B1E JUMP JUMPDEST SWAP2 POP DUP2 SWAP1 POP SWAP3 SWAP2 POP POP JUMP JUMPDEST PUSH0 PUSH1 0x60 DUP3 ADD SWAP1 POP PUSH2 0x2B7F PUSH0 DUP4 ADD DUP7 PUSH2 0x2455 JUMP JUMPDEST PUSH2 0x2B8C PUSH1 0x20 DUP4 ADD DUP6 PUSH2 0x24E5 JUMP JUMPDEST PUSH2 0x2B99 PUSH1 0x40 DUP4 ADD DUP5 PUSH2 0x2455 JUMP JUMPDEST SWAP5 SWAP4 POP POP POP POP JUMP JUMPDEST PUSH32 0x496E76616C696420696D6167652049442E000000000000000000000000000000 PUSH0 DUP3 ADD MSTORE POP JUMP JUMPDEST PUSH0 PUSH2 0x2BD5 PUSH1 0x11 DUP4 PUSH2 0x2341 JUMP JUMPDEST SWAP2 POP PUSH2 0x2BE0 DUP3 PUSH2 0x2BA1 JUMP JUMPDEST PUSH1 0x20 DUP3 ADD SWAP1 POP SWAP2 SWAP1 POP JUMP JUMPDEST PUSH0 PUSH1 0x20 DUP3 ADD SWAP1 POP DUP2 DUP2 SUB PUSH0 DUP4 ADD MSTORE PUSH2 0x2C02 DUP2 PUSH2 0x2BC9 JUMP JUMPDEST SWAP1 POP SWAP2 SWAP1 POP JUMP JUMPDEST PUSH0 PUSH2 0x2C14 DUP3 DUP6 PUSH2 0x2AC6 JUMP JUMPDEST SWAP2 POP PUSH2 0x2C20 DUP3 DUP5 PUSH2 0x2AC6 JUMP JUMPDEST SWAP2 POP DUP2 SWAP1 POP SWAP4 SWAP3 POP POP POP JUMP JUMPDEST PUSH0 DUP2 SWAP1 POP SWAP2 SWAP1 POP JUMP JUMPDEST PUSH2 0x2C46 PUSH2 0x2C41 DUP3 PUSH2 0x23C7 JUMP JUMPDEST PUSH2 0x2C2C JUMP JUMPDEST DUP3 MSTORE POP POP JUMP JUMPDEST PUSH0 DUP2 PUSH1 0x60 SHL SWAP1 POP SWAP2 SWAP1 POP JUMP JUMPDEST PUSH0 PUSH2 0x2C62 DUP3 PUSH2 0x2C4C JUMP JUMPDEST SWAP1 POP SWAP2 SWAP1 POP JUMP JUMPDEST PUSH0 PUSH2 0x2C73 DUP3 PUSH2 0x2C58 JUMP JUMPDEST SWAP1 POP SWAP2 SWAP1 POP JUMP JUMPDEST PUSH2 0x2C8B PUSH2 0x2C86 DUP3 PUSH2 0x2444 JUMP JUMPDEST PUSH2 0x2C69 JUMP JUMPDEST DUP3 MSTORE POP POP JUMP JUMPDEST PUSH0 PUSH2 0x2C9C DUP3 DUP7 PUSH2 0x2C35 JUMP JUMPDEST PUSH1 0x20 DUP3 ADD SWAP2 POP PUSH2 0x2CAC DUP3 DUP6 PUSH2 0x2C35 JUMP JUMPDEST PUSH1 0x20 DUP3 ADD SWAP2 POP PUSH2 0x2CBC DUP3 DUP5 PUSH2 0x2C7A JUMP JUMPDEST PUSH1 0x14 DUP3 ADD SWAP2 POP DUP2 SWAP1 POP SWAP5 SWAP4 POP POP POP POP JUMP JUMPDEST PUSH32 0x4E487B7100000000000000000000000000000000000000000000000000000000 PUSH0 MSTORE PUSH1 0x12 PUSH1 0x4 MSTORE PUSH1 0x24 PUSH0 REVERT JUMPDEST PUSH0 PUSH2 0x2D04 DUP3 PUSH2 0x23C7 JUMP JUMPDEST SWAP2 POP PUSH2 0x2D0F DUP4 PUSH2 0x23C7 JUMP JUMPDEST SWAP3 POP DUP3 PUSH2 0x2D1F JUMPI PUSH2 0x2D1E PUSH2 0x2CCD JUMP JUMPDEST JUMPDEST DUP3 DUP3 MOD SWAP1 POP SWAP3 SWAP2 POP POP JUMP JUMPDEST PUSH0 PUSH2 0x2D34 DUP3 PUSH2 0x23C7 JUMP JUMPDEST SWAP2 POP PUSH2 0x2D3F DUP4 PUSH2 0x23C7 JUMP JUMPDEST SWAP3 POP DUP3 DUP3 ADD SWAP1 POP DUP1 DUP3 GT ISZERO PUSH2 0x2D57 JUMPI PUSH2 0x2D56 PUSH2 0x2976 JUMP JUMPDEST JUMPDEST SWAP3 SWAP2 POP POP JUMP JUMPDEST PUSH0 PUSH2 0x2D67 DUP3 PUSH2 0x23C7 JUMP JUMPDEST SWAP2 POP PUSH32 0xFFFFFFFFFFFFFFFFFFFFFFFFFFFFFFFFFFFFFFFFFFFFFFFFFFFFFFFFFFFFFFFF DUP3 SUB PUSH2 0x2D99 JUMPI PUSH2 0x2D98 PUSH2 0x2976 JUMP JUMPDEST JUMPDEST PUSH1 0x1 DUP3 ADD SWAP1 POP SWAP2 SWAP1 POP JUMP JUMPDEST PUSH0 PUSH2 0x2DAE DUP3 PUSH2 0x23C7 JUMP JUMPDEST SWAP2 POP PUSH2 0x2DB9 DUP4 PUSH2 0x23C7 JUMP JUMPDEST SWAP3 POP DUP3 PUSH2 0x2DC9 JUMPI PUSH2 0x2DC8 PUSH2 0x2CCD JUMP JUMPDEST JUMPDEST DUP3 DUP3 DIV SWAP1 POP SWAP3 SWAP2 POP POP JUMP JUMPDEST PUSH0 PUSH2 0x2DDE DUP3 PUSH2 0x23C7 JUMP JUMPDEST SWAP2 POP PUSH2 0x2DE9 DUP4 PUSH2 0x23C7 JUMP JUMPDEST SWAP3 POP DUP3 DUP3 SUB SWAP1 POP DUP2 DUP2 GT ISZERO PUSH2 0x2E01 JUMPI PUSH2 0x2E00 PUSH2 0x2976 JUMP JUMPDEST JUMPDEST SWAP3 SWAP2 POP POP JUMP JUMPDEST PUSH0 PUSH1 0xFF DUP3 AND SWAP1 POP SWAP2 SWAP1 POP JUMP JUMPDEST PUSH0 PUSH2 0x2E1D DUP3 PUSH2 0x2E07 JUMP JUMPDEST SWAP2 POP PUSH2 0x2E28 DUP4 PUSH2 0x2E07 JUMP JUMPDEST SWAP3 POP DUP3 DUP3 ADD SWAP1 POP PUSH1 0xFF DUP2 GT ISZERO PUSH2 0x2E41 JUMPI PUSH2 0x2E40 PUSH2 0x2976 JUMP JUMPDEST JUMPDEST SWAP3 SWAP2 POP POP JUMP JUMPDEST PUSH32 0x4E487B7100000000000000000000000000000000000000000000000000000000 PUSH0 MSTORE PUSH1 0x32 PUSH1 0x4 MSTORE PUSH1 0x24 PUSH0 REVERT JUMPDEST PUSH0 DUP2 SWAP1 POP DUP2 PUSH0 MSTORE PUSH1 0x20 PUSH0 KECCAK256 SWAP1 POP SWAP2 SWAP1 POP JUMP JUMPDEST PUSH0 PUSH1 0x20 PUSH1 0x1F DUP4 ADD DIV SWAP1 POP SWAP2 SWAP1 POP JUMP JUMPDEST PUSH0 DUP3 DUP3 SHL SWAP1 POP SWAP3 SWAP2 POP POP JUMP JUMPDEST PUSH0 PUSH1 0x8 DUP4 MUL PUSH2 0x2ED0 PUSH32 0xFFFFFFFFFFFFFFFFFFFFFFFFFFFFFFFFFFFFFFFFFFFFFFFFFFFFFFFFFFFFFFFF DUP3 PUSH2 0x2E95 JUMP JUMPDEST PUSH2 0x2EDA DUP7 DUP4 PUSH2 0x2E95 JUMP JUMPDEST SWAP6 POP DUP1 NOT DUP5 AND SWAP4 POP DUP1 DUP7 AND DUP5 OR SWAP3 POP POP POP SWAP4 SWAP3 POP POP POP JUMP JUMPDEST PUSH0 DUP2 SWAP1 POP SWAP2 SWAP1 POP JUMP JUMPDEST PUSH0 PUSH2 0x2F15 PUSH2 0x2F10 PUSH2 0x2F0B DUP5 PUSH2 0x23C7 JUMP JUMPDEST PUSH2 0x2EF2 JUMP JUMPDEST PUSH2 0x23C7 JUMP JUMPDEST SWAP1 POP SWAP2 SWAP1 POP JUMP JUMPDEST PUSH0 DUP2 SWAP1 POP SWAP2 SWAP1 POP JUMP JUMPDEST PUSH2 0x2F2E DUP4 PUSH2 0x2EFB JUMP JUMPDEST PUSH2 0x2F42 PUSH2 0x2F3A DUP3 PUSH2 0x2F1C JUMP JUMPDEST DUP5 DUP5 SLOAD PUSH2 0x2EA1 JUMP JUMPDEST DUP3 SSTORE POP POP POP POP JUMP JUMPDEST PUSH0 SWAP1 JUMP JUMPDEST PUSH2 0x2F56 PUSH2 0x2F4A JUMP JUMPDEST PUSH2 0x2F61 DUP2 DUP5 DUP5 PUSH2 0x2F25 JUMP JUMPDEST POP POP POP JUMP JUMPDEST JUMPDEST DUP2 DUP2 LT ISZERO PUSH2 0x2F84 JUMPI PUSH2 0x2F79 PUSH0 DUP3 PUSH2 0x2F4E JUMP JUMPDEST PUSH1 0x1 DUP2 ADD SWAP1 POP PUSH2 0x2F67 JUMP JUMPDEST POP POP JUMP JUMPDEST PUSH1 0x1F DUP3 GT ISZERO PUSH2 0x2FC9 JUMPI PUSH2 0x2F9A DUP2 PUSH2 0x2E74 JUMP JUMPDEST PUSH2 0x2FA3 DUP5 PUSH2 0x2E86 JUMP JUMPDEST DUP2 ADD PUSH1 0x20 DUP6 LT ISZERO PUSH2 0x2FB2 JUMPI DUP2 SWAP1 POP JUMPDEST PUSH2 0x2FC6 PUSH2 0x2FBE DUP6 PUSH2 0x2E86 JUMP JUMPDEST DUP4 ADD DUP3 PUSH2 0x2F66 JUMP JUMPDEST POP POP JUMPDEST POP POP POP JUMP JUMPDEST PUSH0 DUP3 DUP3 SHR SWAP1 POP SWAP3 SWAP2 POP POP JUMP JUMPDEST PUSH0 PUSH2 0x2FE9 PUSH0 NOT DUP5 PUSH1 0x8 MUL PUSH2 0x2FCE JUMP JUMPDEST NOT DUP1 DUP4 AND SWAP2 POP POP SWAP3 SWAP2 POP POP JUMP JUMPDEST PUSH0 PUSH2 0x3001 DUP4 DUP4 PUSH2 0x2FDA JUMP JUMPDEST SWAP2 POP DUP3 PUSH1 0x2 MUL DUP3 OR SWAP1 POP SWAP3 SWAP2 POP POP JUMP JUMPDEST PUSH2 0x301A DUP3 PUSH2 0x2337 JUMP JUMPDEST PUSH8 0xFFFFFFFFFFFFFFFF DUP2 GT ISZERO PUSH2 0x3033 JUMPI PUSH2 0x3032 PUSH2 0x26CF JUMP JUMPDEST JUMPDEST PUSH2 0x303D DUP3 SLOAD PUSH2 0x28DE JUMP JUMPDEST PUSH2 0x3048 DUP3 DUP3 DUP6 PUSH2 0x2F88 JUMP JUMPDEST PUSH0 PUSH1 0x20 SWAP1 POP PUSH1 0x1F DUP4 GT PUSH1 0x1 DUP2 EQ PUSH2 0x3079 JUMPI PUSH0 DUP5 ISZERO PUSH2 0x3067 JUMPI DUP3 DUP8 ADD MLOAD SWAP1 POP JUMPDEST PUSH2 0x3071 DUP6 DUP3 PUSH2 0x2FF6 JUMP JUMPDEST DUP7 SSTORE POP PUSH2 0x30D8 JUMP JUMPDEST PUSH1 0x1F NOT DUP5 AND PUSH2 0x3087 DUP7 PUSH2 0x2E74 JUMP JUMPDEST PUSH0 JUMPDEST DUP3 DUP2 LT ISZERO PUSH2 0x30AE JUMPI DUP5 DUP10 ADD MLOAD DUP3 SSTORE PUSH1 0x1 DUP3 ADD SWAP2 POP PUSH1 0x20 DUP6 ADD SWAP5 POP PUSH1 0x20 DUP2 ADD SWAP1 POP PUSH2 0x3089 JUMP JUMPDEST DUP7 DUP4 LT ISZERO PUSH2 0x30CB JUMPI DUP5 DUP10 ADD MLOAD PUSH2 0x30C7 PUSH1 0x1F DUP10 AND DUP3 PUSH2 0x2FDA JUMP JUMPDEST DUP4 SSTORE POP JUMPDEST PUSH1 0x1 PUSH1 0x2 DUP9 MUL ADD DUP9 SSTORE POP POP POP JUMPDEST POP POP POP POP POP POP JUMP JUMPDEST PUSH0 DUP2 MLOAD SWAP1 POP SWAP2 SWAP1 POP JUMP JUMPDEST PUSH0 DUP3 DUP3 MSTORE PUSH1 0x20 DUP3 ADD SWAP1 POP SWAP3 SWAP2 POP POP JUMP JUMPDEST PUSH0 PUSH2 0x3104 DUP3 PUSH2 0x30E0 JUMP JUMPDEST PUSH2 0x310E DUP2 DUP6 PUSH2 0x30EA JUMP JUMPDEST SWAP4 POP PUSH2 0x311E DUP2 DUP6 PUSH1 0x20 DUP7 ADD PUSH2 0x2351 JUMP JUMPDEST PUSH2 0x3127 DUP2 PUSH2 0x235F JUMP JUMPDEST DUP5 ADD SWAP2 POP POP SWAP3 SWAP2 POP POP JUMP JUMPDEST PUSH0 PUSH1 0x80 DUP3 ADD SWAP1 POP PUSH2 0x3145 PUSH0 DUP4 ADD DUP8 PUSH2 0x2455 JUMP JUMPDEST PUSH2 0x3152 PUSH1 0x20 DUP4 ADD DUP7 PUSH2 0x2455 JUMP JUMPDEST PUSH2 0x315F PUSH1 0x40 DUP4 ADD DUP6 PUSH2 0x24E5 JUMP JUMPDEST DUP2 DUP2 SUB PUSH1 0x60 DUP4 ADD MSTORE PUSH2 0x3171 DUP2 DUP5 PUSH2 0x30FA JUMP JUMPDEST SWAP1 POP SWAP6 SWAP5 POP POP POP POP POP JUMP JUMPDEST PUSH0 DUP2 MLOAD SWAP1 POP PUSH2 0x318A DUP2 PUSH2 0x22AF JUMP JUMPDEST SWAP3 SWAP2 POP POP JUMP JUMPDEST PUSH0 PUSH1 0x20 DUP3 DUP5 SUB SLT ISZERO PUSH2 0x31A5 JUMPI PUSH2 0x31A4 PUSH2 0x227C JUMP JUMPDEST JUMPDEST PUSH0 PUSH2 0x31B2 DUP5 DUP3 DUP6 ADD PUSH2 0x317C JUMP JUMPDEST SWAP2 POP POP SWAP3 SWAP2 POP POP JUMP JUMPDEST PUSH32 0x4E487B7100000000000000000000000000000000000000000000000000000000 PUSH0 MSTORE PUSH1 0x31 PUSH1 0x4 MSTORE PUSH1 0x24 PUSH0 REVERT JUMPDEST PUSH0 PUSH1 0x40 DUP3 ADD SWAP1 POP PUSH2 0x31FB PUSH0 DUP4 ADD DUP6 PUSH2 0x2455 JUMP JUMPDEST PUSH2 0x3208 PUSH1 0x20 DUP4 ADD DUP5 PUSH2 0x24E5 JUMP JUMPDEST SWAP4 SWAP3 POP POP POP JUMP INVALID LOG2 PUSH5 0x6970667358 0x22 SLT KECCAK256 CHAINID PUSH19 0x200DE072DBF97420831D6BE04C8855553B0215 0xD1 0xBA 0xE5 0x26 PUSH32 0xB3681F758E6A64736F6C634300081A0033000000000000000000000000000000 "
		},
		"gasEstimates": {
			"creation": {
				"codeDepositCost": "2573800",
				"executionCost": "infinite",
				"totalCost": "infinite"
			},
			"external": {
				"TOTAL_IMAGES()": "392",
				"approve(address,uint256)": "infinite",
				"balanceOf(address)": "infinite",
				"getApproved(uint256)": "infinite",
				"isApprovedForAll(address,address)": "infinite",
				"mintToken()": "infinite",
				"name()": "infinite",
				"owner()": "2626",
				"ownerMintToken(address,uint256)": "infinite",
				"ownerOf(uint256)": "infinite",
				"puzzleGameContract()": "2619",
				"renounceOwnership()": "infinite",
				"safeTransferFrom(address,address,uint256)": "infinite",
				"safeTransferFrom(address,address,uint256,bytes)": "infinite",
				"setApprovalForAll(address,bool)": "infinite",
				"setPuzzleGameContract(address)": "infinite",
				"supportsInterface(bytes4)": "881",
				"symbol()": "infinite",
				"tokenImageId(uint256)": "infinite",
				"tokenURI(uint256)": "infinite",
				"tokensOfOwner(address)": "infinite",
				"transferFrom(address,address,uint256)": "infinite",
				"transferOwnership(address)": "infinite"
			},
			"internal": {
				"_removeTokenFromOwnerArray(address,uint256)": "infinite",
				"_update(address,uint256,address)": "infinite",
				"getRandomImageId(address)": "infinite",
				"uint2str(uint256)": "infinite"
			}
		},
		"methodIdentifiers": {
			"TOTAL_IMAGES()": "3da8d1a5",
			"approve(address,uint256)": "095ea7b3",
			"balanceOf(address)": "70a08231",
			"getApproved(uint256)": "081812fc",
			"isApprovedForAll(address,address)": "e985e9c5",
			"mintToken()": "2004ffd9",
			"name()": "06fdde03",
			"owner()": "8da5cb5b",
			"ownerMintToken(address,uint256)": "7280f217",
			"ownerOf(uint256)": "6352211e",
			"puzzleGameContract()": "4515faf9",
			"renounceOwnership()": "715018a6",
			"safeTransferFrom(address,address,uint256)": "42842e0e",
			"safeTransferFrom(address,address,uint256,bytes)": "b88d4fde",
			"setApprovalForAll(address,bool)": "a22cb465",
			"setPuzzleGameContract(address)": "ce4dc192",
			"supportsInterface(bytes4)": "01ffc9a7",
			"symbol()": "95d89b41",
			"tokenImageId(uint256)": "0d41ec54",
			"tokenURI(uint256)": "c87b56dd",
			"tokensOfOwner(address)": "8462151c",
			"transferFrom(address,address,uint256)": "23b872dd",
			"transferOwnership(address)": "f2fde38b"
		}
	},
	"abi": [
		{
			"inputs": [],
			"stateMutability": "nonpayable",
			"type": "constructor"
		},
		{
			"inputs": [
				{
					"internalType": "address",
					"name": "sender",
					"type": "address"
				},
				{
					"internalType": "uint256",
					"name": "tokenId",
					"type": "uint256"
				},
				{
					"internalType": "address",
					"name": "owner",
					"type": "address"
				}
			],
			"name": "ERC721IncorrectOwner",
			"type": "error"
		},
		{
			"inputs": [
				{
					"internalType": "address",
					"name": "operator",
					"type": "address"
				},
				{
					"internalType": "uint256",
					"name": "tokenId",
					"type": "uint256"
				}
			],
			"name": "ERC721InsufficientApproval",
			"type": "error"
		},
		{
			"inputs": [
				{
					"internalType": "address",
					"name": "approver",
					"type": "address"
				}
			],
			"name": "ERC721InvalidApprover",
			"type": "error"
		},
		{
			"inputs": [
				{
					"internalType": "address",
					"name": "operator",
					"type": "address"
				}
			],
			"name": "ERC721InvalidOperator",
			"type": "error"
		},
		{
			"inputs": [
				{
					"internalType": "address",
					"name": "owner",
					"type": "address"
				}
			],
			"name": "ERC721InvalidOwner",
			"type": "error"
		},
		{
			"inputs": [
				{
					"internalType": "address",
					"name": "receiver",
					"type": "address"
				}
			],
			"name": "ERC721InvalidReceiver",
			"type": "error"
		},
		{
			"inputs": [
				{
					"internalType": "address",
					"name": "sender",
					"type": "address"
				}
			],
			"name": "ERC721InvalidSender",
			"type": "error"
		},
		{
			"inputs": [
				{
					"internalType": "uint256",
					"name": "tokenId",
					"type": "uint256"
				}
			],
			"name": "ERC721NonexistentToken",
			"type": "error"
		},
		{
			"inputs": [
				{
					"internalType": "address",
					"name": "owner",
					"type": "address"
				}
			],
			"name": "OwnableInvalidOwner",
			"type": "error"
		},
		{
			"inputs": [
				{
					"internalType": "address",
					"name": "account",
					"type": "address"
				}
			],
			"name": "OwnableUnauthorizedAccount",
			"type": "error"
		},
		{
			"anonymous": false,
			"inputs": [
				{
					"indexed": true,
					"internalType": "address",
					"name": "owner",
					"type": "address"
				},
				{
					"indexed": true,
					"internalType": "address",
					"name": "approved",
					"type": "address"
				},
				{
					"indexed": true,
					"internalType": "uint256",
					"name": "tokenId",
					"type": "uint256"
				}
			],
			"name": "Approval",
			"type": "event"
		},
		{
			"anonymous": false,
			"inputs": [
				{
					"indexed": true,
					"internalType": "address",
					"name": "owner",
					"type": "address"
				},
				{
					"indexed": true,
					"internalType": "address",
					"name": "operator",
					"type": "address"
				},
				{
					"indexed": false,
					"internalType": "bool",
					"name": "approved",
					"type": "bool"
				}
			],
			"name": "ApprovalForAll",
			"type": "event"
		},
		{
			"anonymous": false,
			"inputs": [
				{
					"indexed": false,
					"internalType": "uint256",
					"name": "_fromTokenId",
					"type": "uint256"
				},
				{
					"indexed": false,
					"internalType": "uint256",
					"name": "_toTokenId",
					"type": "uint256"
				}
			],
			"name": "BatchMetadataUpdate",
			"type": "event"
		},
		{
			"anonymous": false,
			"inputs": [
				{
					"indexed": false,
					"internalType": "uint256",
					"name": "_tokenId",
					"type": "uint256"
				}
			],
			"name": "MetadataUpdate",
			"type": "event"
		},
		{
			"anonymous": false,
			"inputs": [
				{
					"indexed": true,
					"internalType": "address",
					"name": "previousOwner",
					"type": "address"
				},
				{
					"indexed": true,
					"internalType": "address",
					"name": "newOwner",
					"type": "address"
				}
			],
			"name": "OwnershipTransferred",
			"type": "event"
		},
		{
			"anonymous": false,
			"inputs": [
				{
					"indexed": true,
					"internalType": "address",
					"name": "from",
					"type": "address"
				},
				{
					"indexed": true,
					"internalType": "address",
					"name": "to",
					"type": "address"
				},
				{
					"indexed": true,
					"internalType": "uint256",
					"name": "tokenId",
					"type": "uint256"
				}
			],
			"name": "Transfer",
			"type": "event"
		},
		{
			"inputs": [],
			"name": "TOTAL_IMAGES",
			"outputs": [
				{
					"internalType": "uint256",
					"name": "",
					"type": "uint256"
				}
			],
			"stateMutability": "view",
			"type": "function"
		},
		{
			"inputs": [
				{
					"internalType": "address",
					"name": "to",
					"type": "address"
				},
				{
					"internalType": "uint256",
					"name": "tokenId",
					"type": "uint256"
				}
			],
			"name": "approve",
			"outputs": [],
			"stateMutability": "nonpayable",
			"type": "function"
		},
		{
			"inputs": [
				{
					"internalType": "address",
					"name": "owner",
					"type": "address"
				}
			],
			"name": "balanceOf",
			"outputs": [
				{
					"internalType": "uint256",
					"name": "",
					"type": "uint256"
				}
			],
			"stateMutability": "view",
			"type": "function"
		},
		{
			"inputs": [
				{
					"internalType": "uint256",
					"name": "tokenId",
					"type": "uint256"
				}
			],
			"name": "getApproved",
			"outputs": [
				{
					"internalType": "address",
					"name": "",
					"type": "address"
				}
			],
			"stateMutability": "view",
			"type": "function"
		},
		{
			"inputs": [
				{
					"internalType": "address",
					"name": "owner",
					"type": "address"
				},
				{
					"internalType": "address",
					"name": "operator",
					"type": "address"
				}
			],
			"name": "isApprovedForAll",
			"outputs": [
				{
					"internalType": "bool",
					"name": "",
					"type": "bool"
				}
			],
			"stateMutability": "view",
			"type": "function"
		},
		{
			"inputs": [],
			"name": "mintToken",
			"outputs": [],
			"stateMutability": "nonpayable",
			"type": "function"
		},
		{
			"inputs": [],
			"name": "name",
			"outputs": [
				{
					"internalType": "string",
					"name": "",
					"type": "string"
				}
			],
			"stateMutability": "view",
			"type": "function"
		},
		{
			"inputs": [],
			"name": "owner",
			"outputs": [
				{
					"internalType": "address",
					"name": "",
					"type": "address"
				}
			],
			"stateMutability": "view",
			"type": "function"
		},
		{
			"inputs": [
				{
					"internalType": "address",
					"name": "to",
					"type": "address"
				},
				{
					"internalType": "uint256",
					"name": "specificImageId",
					"type": "uint256"
				}
			],
			"name": "ownerMintToken",
			"outputs": [],
			"stateMutability": "nonpayable",
			"type": "function"
		},
		{
			"inputs": [
				{
					"internalType": "uint256",
					"name": "tokenId",
					"type": "uint256"
				}
			],
			"name": "ownerOf",
			"outputs": [
				{
					"internalType": "address",
					"name": "",
					"type": "address"
				}
			],
			"stateMutability": "view",
			"type": "function"
		},
		{
			"inputs": [],
			"name": "puzzleGameContract",
			"outputs": [
				{
					"internalType": "address",
					"name": "",
					"type": "address"
				}
			],
			"stateMutability": "view",
			"type": "function"
		},
		{
			"inputs": [],
			"name": "renounceOwnership",
			"outputs": [],
			"stateMutability": "nonpayable",
			"type": "function"
		},
		{
			"inputs": [
				{
					"internalType": "address",
					"name": "from",
					"type": "address"
				},
				{
					"internalType": "address",
					"name": "to",
					"type": "address"
				},
				{
					"internalType": "uint256",
					"name": "tokenId",
					"type": "uint256"
				}
			],
			"name": "safeTransferFrom",
			"outputs": [],
			"stateMutability": "nonpayable",
			"type": "function"
		},
		{
			"inputs": [
				{
					"internalType": "address",
					"name": "from",
					"type": "address"
				},
				{
					"internalType": "address",
					"name": "to",
					"type": "address"
				},
				{
					"internalType": "uint256",
					"name": "tokenId",
					"type": "uint256"
				},
				{
					"internalType": "bytes",
					"name": "data",
					"type": "bytes"
				}
			],
			"name": "safeTransferFrom",
			"outputs": [],
			"stateMutability": "nonpayable",
			"type": "function"
		},
		{
			"inputs": [
				{
					"internalType": "address",
					"name": "operator",
					"type": "address"
				},
				{
					"internalType": "bool",
					"name": "approved",
					"type": "bool"
				}
			],
			"name": "setApprovalForAll",
			"outputs": [],
			"stateMutability": "nonpayable",
			"type": "function"
		},
		{
			"inputs": [
				{
					"internalType": "address",
					"name": "_puzzleGameContract",
					"type": "address"
				}
			],
			"name": "setPuzzleGameContract",
			"outputs": [],
			"stateMutability": "nonpayable",
			"type": "function"
		},
		{
			"inputs": [
				{
					"internalType": "bytes4",
					"name": "interfaceId",
					"type": "bytes4"
				}
			],
			"name": "supportsInterface",
			"outputs": [
				{
					"internalType": "bool",
					"name": "",
					"type": "bool"
				}
			],
			"stateMutability": "view",
			"type": "function"
		},
		{
			"inputs": [],
			"name": "symbol",
			"outputs": [
				{
					"internalType": "string",
					"name": "",
					"type": "string"
				}
			],
			"stateMutability": "view",
			"type": "function"
		},
		{
			"inputs": [
				{
					"internalType": "uint256",
					"name": "",
					"type": "uint256"
				}
			],
			"name": "tokenImageId",
			"outputs": [
				{
					"internalType": "uint256",
					"name": "",
					"type": "uint256"
				}
			],
			"stateMutability": "view",
			"type": "function"
		},
		{
			"inputs": [
				{
					"internalType": "uint256",
					"name": "tokenId",
					"type": "uint256"
				}
			],
			"name": "tokenURI",
			"outputs": [
				{
					"internalType": "string",
					"name": "",
					"type": "string"
				}
			],
			"stateMutability": "view",
			"type": "function"
		},
		{
			"inputs": [
				{
					"internalType": "address",
					"name": "owner",
					"type": "address"
				}
			],
			"name": "tokensOfOwner",
			"outputs": [
				{
					"internalType": "uint256[]",
					"name": "",
					"type": "uint256[]"
				}
			],
			"stateMutability": "view",
			"type": "function"
		},
		{
			"inputs": [
				{
					"internalType": "address",
					"name": "from",
					"type": "address"
				},
				{
					"internalType": "address",
					"name": "to",
					"type": "address"
				},
				{
					"internalType": "uint256",
					"name": "tokenId",
					"type": "uint256"
				}
			],
			"name": "transferFrom",
			"outputs": [],
			"stateMutability": "nonpayable",
			"type": "function"
		},
		{
			"inputs": [
				{
					"internalType": "address",
					"name": "newOwner",
					"type": "address"
				}
			],
			"name": "transferOwnership",
			"outputs": [],
			"stateMutability": "nonpayable",
			"type": "function"
		}
	]
}