{
	"data": {
		"bytecode": {
			"linkReferences": {},
			"object": "608060405234801562000010575f80fd5b5060405162004d2b38038062004d2b83398181016040528101906200003691906200016b565b5f805f6101000a81548160ff0219169083151502179055505f73ffffffffffffffffffffffffffffffffffffffff168173ffffffffffffffffffffffffffffffffffffffff1603620000bf576040517f08c379a0000000000000000000000000000000000000000000000000000000008152600401620000b690620001f9565b60405180910390fd5b805f60016101000a81548173ffffffffffffffffffffffffffffffffffffffff021916908373ffffffffffffffffffffffffffffffffffffffff1602179055505062000219565b5f80fd5b5f73ffffffffffffffffffffffffffffffffffffffff82169050919050565b5f62000135826200010a565b9050919050565b620001478162000129565b811462000152575f80fd5b50565b5f8151905062000165816200013c565b92915050565b5f6020828403121562000183576200018262000106565b5b5f620001928482850162000155565b91505092915050565b5f82825260208201905092915050565b7f496e76616c696420526f6c654d616e61676572206164647265737300000000005f82015250565b5f620001e1601b836200019b565b9150620001ee82620001ab565b602082019050919050565b5f6020820190508181035f8301526200021281620001d3565b9050919050565b614b0480620002275f395ff3fe608060405234801561000f575f80fd5b506004361061011e575f3560e01c806389cf7ddf116100ab578063da817a241161006f578063da817a24146102d3578063de5b3ea214610303578063efc953ef1461031f578063f64fee981461034f578063ff91e4891461036b5761011e565b806389cf7ddf146102455780639944f1bc14610261578063a1519b111461027d578063aab3475614610299578063cb3de478146102b75761011e565b806354f9d9e8116100f257806354f9d9e814610199578063550a3dba146101b55780635c975abb146101ed5780636f725c131461020b5780638456cb591461023b5761011e565b8062435da5146101225780632596133b146101405780633f4ba83a1461015c57806344ee00b714610166575b5f80fd5b61012a61039b565b604051610137919061366c565b60405180910390f35b61015a600480360381019061015591906136c0565b6103c0565b005b6101646107d9565b005b610180600480360381019061017b91906136c0565b61094a565b6040516101909493929190613937565b60405180910390f35b6101b360048036038101906101ae91906139a3565b610c97565b005b6101cf60048036038101906101ca91906136c0565b6110b1565b6040516101e499989796959493929190613a8d565b60405180910390f35b6101f5611320565b6040516102029190613b1f565b60405180910390f35b61022560048036038101906102209190613b62565b611334565b6040516102329190613ba0565b60405180910390f35b61024361135f565b005b61025f600480360381019061025a9190613bb9565b6114d0565b005b61027b600480360381019061027691906136c0565b6119de565b005b61029760048036038101906102929190613c00565b611d81565b005b6102a1612340565b6040516102ae9190613ce6565b60405180910390f35b6102d160048036038101906102cc91906136c0565b612396565b005b6102ed60048036038101906102e891906136c0565b61281c565b6040516102fa9190613ba0565b60405180910390f35b61031d600480360381019061031891906136c0565b61283c565b005b61033960048036038101906103349190613d06565b612b8e565b6040516103469190613ce6565b60405180910390f35b610369600480360381019061036491906136c0565b612c21565b005b610385600480360381019061038091906136c0565b612e65565b6040516103929190613d31565b60405180910390f35b5f60019054906101000a900473ffffffffffffffffffffffffffffffffffffffff1681565b805f73ffffffffffffffffffffffffffffffffffffffff1660025f8381526020019081526020015f206001015f9054906101000a900473ffffffffffffffffffffffffffffffffffffffff1673ffffffffffffffffffffffffffffffffffffffff1603610462576040517f08c379a000000000000000000000000000000000000000000000000000000000815260040161045990613dab565b60405180910390fd5b61046a613212565b5f60019054906101000a900473ffffffffffffffffffffffffffffffffffffffff1673ffffffffffffffffffffffffffffffffffffffff166391d148545f60019054906101000a900473ffffffffffffffffffffffffffffffffffffffff1673ffffffffffffffffffffffffffffffffffffffff1663303e38406040518163ffffffff1660e01b8152600401602060405180830381865afa158015610511573d5f803e3d5ffd5b505050506040513d601f19601f820116820180604052508101906105359190613dfc565b336040518363ffffffff1660e01b8152600401610553929190613e36565b602060405180830381865afa15801561056e573d5f803e3d5ffd5b505050506040513d601f19601f820116820180604052508101906105929190613e87565b806106c157505f60019054906101000a900473ffffffffffffffffffffffffffffffffffffffff1673ffffffffffffffffffffffffffffffffffffffff166391d148545f60019054906101000a900473ffffffffffffffffffffffffffffffffffffffff1673ffffffffffffffffffffffffffffffffffffffff166375b238fc6040518163ffffffff1660e01b8152600401602060405180830381865afa15801561063f573d5f803e3d5ffd5b505050506040513d601f19601f820116820180604052508101906106639190613dfc565b336040518363ffffffff1660e01b8152600401610681929190613e36565b602060405180830381865afa15801561069c573d5f803e3d5ffd5b505050506040513d601f19601f820116820180604052508101906106c09190613e87565b5b610700576040517f08c379a00000000000000000000000000000000000000000000000000000000081526004016106f790613efc565b60405180910390fd5b60025f8381526020019081526020015f2060080160019054906101000a900460ff1615610762576040517f08c379a000000000000000000000000000000000000000000000000000000000815260040161075990613f64565b60405180910390fd5b600160025f8481526020019081526020015f2060080160016101000a81548160ff0219169083151502179055504260025f8481526020019081526020015f20600a0181905550817fec94de210998ba2eacea6999d704553270a7bf8688113bbacb31773450e6b74860405160405180910390a25050565b5f60019054906101000a900473ffffffffffffffffffffffffffffffffffffffff1673ffffffffffffffffffffffffffffffffffffffff166391d148545f60019054906101000a900473ffffffffffffffffffffffffffffffffffffffff1673ffffffffffffffffffffffffffffffffffffffff166375b238fc6040518163ffffffff1660e01b8152600401602060405180830381865afa158015610880573d5f803e3d5ffd5b505050506040513d601f19601f820116820180604052508101906108a49190613dfc565b336040518363ffffffff1660e01b81526004016108c2929190613e36565b602060405180830381865afa1580156108dd573d5f803e3d5ffd5b505050506040513d601f19601f820116820180604052508101906109019190613e87565b610940576040517f08c379a000000000000000000000000000000000000000000000000000000000815260040161093790613fcc565b60405180910390fd5b61094861325c565b565b6003602052805f5260405f205f91509050805f015f9054906101000a900473ffffffffffffffffffffffffffffffffffffffff169080600101604051806101200160405290815f8201548152602001600182015f9054906101000a900473ffffffffffffffffffffffffffffffffffffffff1673ffffffffffffffffffffffffffffffffffffffff1673ffffffffffffffffffffffffffffffffffffffff168152602001600282016040518060a00160405290815f82018054610a0c90614017565b80601f0160208091040260200160405190810160405280929190818152602001828054610a3890614017565b8015610a835780601f10610a5a57610100808354040283529160200191610a83565b820191905f5260205f20905b815481529060010190602001808311610a6657829003601f168201915b50505050508152602001600182018054610a9c90614017565b80601f0160208091040260200160405190810160405280929190818152602001828054610ac890614017565b8015610b135780601f10610aea57610100808354040283529160200191610b13565b820191905f5260205f20905b815481529060010190602001808311610af657829003601f168201915b50505050508152602001600282018054610b2c90614017565b80601f0160208091040260200160405190810160405280929190818152602001828054610b5890614017565b8015610ba35780601f10610b7a57610100808354040283529160200191610ba3565b820191905f5260205f20905b815481529060010190602001808311610b8657829003601f168201915b5050505050815260200160038201548152602001600482015481525050815260200160078201548152602001600882015f9054906101000a900460ff161515151581526020016008820160019054906101000a900460ff161515151581526020016008820160029054906101000a900473ffffffffffffffffffffffffffffffffffffffff1673ffffffffffffffffffffffffffffffffffffffff1673ffffffffffffffffffffffffffffffffffffffff16815260200160098201548152602001600a820154815250509080600c015f9054906101000a900460ff169080600c0160019054906101000a900460ff16905084565b815f73ffffffffffffffffffffffffffffffffffffffff1660025f8381526020019081526020015f206001015f9054906101000a900473ffffffffffffffffffffffffffffffffffffffff1673ffffffffffffffffffffffffffffffffffffffff1603610d39576040517f08c379a0000000000000000000000000000000000000000000000000000000008152600401610d3090613dab565b60405180910390fd5b823373ffffffffffffffffffffffffffffffffffffffff1660025f8381526020019081526020015f206001015f9054906101000a900473ffffffffffffffffffffffffffffffffffffffff1673ffffffffffffffffffffffffffffffffffffffff161480610ecb57505f60019054906101000a900473ffffffffffffffffffffffffffffffffffffffff1673ffffffffffffffffffffffffffffffffffffffff166391d148545f60019054906101000a900473ffffffffffffffffffffffffffffffffffffffff1673ffffffffffffffffffffffffffffffffffffffff166398e4abb56040518163ffffffff1660e01b8152600401602060405180830381865afa158015610e49573d5f803e3d5ffd5b505050506040513d601f19601f82011682018060405250810190610e6d9190613dfc565b336040518363ffffffff1660e01b8152600401610e8b929190613e36565b602060405180830381865afa158015610ea6573d5f803e3d5ffd5b505050506040513d601f19601f82011682018060405250810190610eca9190613e87565b5b610f0a576040517f08c379a0000000000000000000000000000000000000000000000000000000008152600401610f0190614091565b60405180910390fd5b610f12613212565b5f83805f0190610f2291906140bb565b9050118015610f4157505f838060200190610f3d91906140bb565b9050115b610f80576040517f08c379a0000000000000000000000000000000000000000000000000000000008152600401610f7790614167565b60405180910390fd5b5f8360a0013511610fc6576040517f08c379a0000000000000000000000000000000000000000000000000000000008152600401610fbd906141cf565b60405180910390fd5b5f60025f8681526020019081526020015f20905083805f0190610fe991906140bb565b826002015f019182610ffc9291906143b8565b5083806020019061100d91906140bb565b8260020160010191826110219291906143b8565b5083806040019061103291906140bb565b8260020160020191826110469291906143b8565b5083606001358160020160030181905550836080013581600201600401819055508360a0013581600701819055504281600a0181905550847fd62fa94c71eba8cfe5ab835190623c67e15149837fd0cd60c1c170a8f31439e360405160405180910390a25050505050565b6002602052805f5260405f205f91509050805f015490806001015f9054906101000a900473ffffffffffffffffffffffffffffffffffffffff1690806002016040518060a00160405290815f8201805461110a90614017565b80601f016020809104026020016040519081016040528092919081815260200182805461113690614017565b80156111815780601f1061115857610100808354040283529160200191611181565b820191905f5260205f20905b81548152906001019060200180831161116457829003601f168201915b5050505050815260200160018201805461119a90614017565b80601f01602080910402602001604051908101604052809291908181526020018280546111c690614017565b80156112115780601f106111e857610100808354040283529160200191611211565b820191905f5260205f20905b8154815290600101906020018083116111f457829003601f168201915b5050505050815260200160028201805461122a90614017565b80601f016020809104026020016040519081016040528092919081815260200182805461125690614017565b80156112a15780601f10611278576101008083540402835291602001916112a1565b820191905f5260205f20905b81548152906001019060200180831161128457829003601f168201915b505050505081526020016003820154815260200160048201548152505090806007015490806008015f9054906101000a900460ff16908060080160019054906101000a900460ff16908060080160029054906101000a900473ffffffffffffffffffffffffffffffffffffffff169080600901549080600a0154905089565b5f805f9054906101000a900460ff16905090565b6004602052815f5260405f20818154811061134d575f80fd5b905f5260205f20015f91509150505481565b5f60019054906101000a900473ffffffffffffffffffffffffffffffffffffffff1673ffffffffffffffffffffffffffffffffffffffff166391d148545f60019054906101000a900473ffffffffffffffffffffffffffffffffffffffff1673ffffffffffffffffffffffffffffffffffffffff166375b238fc6040518163ffffffff1660e01b8152600401602060405180830381865afa158015611406573d5f803e3d5ffd5b505050506040513d601f19601f8201168201806040525081019061142a9190613dfc565b336040518363ffffffff1660e01b8152600401611448929190613e36565b602060405180830381865afa158015611463573d5f803e3d5ffd5b505050506040513d601f19601f820116820180604052508101906114879190613e87565b6114c6576040517f08c379a00000000000000000000000000000000000000000000000000000000081526004016114bd90613fcc565b60405180910390fd5b6114ce6132bc565b565b6114d8613212565b5f81805f01906114e891906140bb565b905011801561150757505f81806020019061150391906140bb565b9050115b611546576040517f08c379a000000000000000000000000000000000000000000000000000000000815260040161153d90614167565b60405180910390fd5b5f8160a001351161158c576040517f08c379a0000000000000000000000000000000000000000000000000000000008152600401611583906141cf565b60405180910390fd5b5f611597600161331d565b90506115a36001613329565b5f6040518060a0016040528084805f01906115be91906140bb565b8080601f0160208091040260200160405190810160405280939291908181526020018383808284375f81840152601f19601f82011690508083019250505050505050815260200184806020019061161591906140bb565b8080601f0160208091040260200160405190810160405280939291908181526020018383808284375f81840152601f19601f82011690508083019250505050505050815260200184806040019061166c91906140bb565b8080601f0160208091040260200160405190810160405280939291908181526020018383808284375f81840152601f19601f82011690508083019250505050505050815260200184606001358152602001846080013581525090505f6040518061012001604052808481526020013373ffffffffffffffffffffffffffffffffffffffff1681526020018381526020018560a0013581526020015f151581526020015f151581526020015f73ffffffffffffffffffffffffffffffffffffffff16815260200142815260200142815250905060405180608001604052803373ffffffffffffffffffffffffffffffffffffffff1681526020018281526020016001151581526020015f151581525060035f8581526020019081526020015f205f820151815f015f6101000a81548173ffffffffffffffffffffffffffffffffffffffff021916908373ffffffffffffffffffffffffffffffffffffffff1602179055506020820151816001015f820151815f01556020820151816001015f6101000a81548173ffffffffffffffffffffffffffffffffffffffff021916908373ffffffffffffffffffffffffffffffffffffffff1602179055506040820151816002015f820151815f0190816118429190614485565b5060208201518160010190816118589190614485565b50604082015181600201908161186e9190614485565b5060608201518160030155608082015181600401555050606082015181600701556080820151816008015f6101000a81548160ff02191690831515021790555060a08201518160080160016101000a81548160ff02191690831515021790555060c08201518160080160026101000a81548173ffffffffffffffffffffffffffffffffffffffff021916908373ffffffffffffffffffffffffffffffffffffffff16021790555060e0820151816009015561010082015181600a01555050604082015181600c015f6101000a81548160ff021916908315150217905550606082015181600c0160016101000a81548160ff021916908315150217905550905050600583908060018154018082558091505060019003905f5260205f20015f90919091909150553373ffffffffffffffffffffffffffffffffffffffff16837fcbbbcc1725193dff50b4699b7d4be5dfa0b8091ac6b9081400e3704fc8ed244c60405160405180910390a350505050565b805f73ffffffffffffffffffffffffffffffffffffffff1660025f8381526020019081526020015f206001015f9054906101000a900473ffffffffffffffffffffffffffffffffffffffff1673ffffffffffffffffffffffffffffffffffffffff1603611a80576040517f08c379a0000000000000000000000000000000000000000000000000000000008152600401611a7790613dab565b60405180910390fd5b611a88613212565b60025f8381526020019081526020015f206008015f9054906101000a900460ff16611ae8576040517f08c379a0000000000000000000000000000000000000000000000000000000008152600401611adf9061459e565b60405180910390fd5b60025f8381526020019081526020015f2060080160029054906101000a900473ffffffffffffffffffffffffffffffffffffffff1673ffffffffffffffffffffffffffffffffffffffff163373ffffffffffffffffffffffffffffffffffffffff161480611c7a57505f60019054906101000a900473ffffffffffffffffffffffffffffffffffffffff1673ffffffffffffffffffffffffffffffffffffffff166391d148545f60019054906101000a900473ffffffffffffffffffffffffffffffffffffffff1673ffffffffffffffffffffffffffffffffffffffff166375b238fc6040518163ffffffff1660e01b8152600401602060405180830381865afa158015611bf8573d5f803e3d5ffd5b505050506040513d601f19601f82011682018060405250810190611c1c9190613dfc565b336040518363ffffffff1660e01b8152600401611c3a929190613e36565b602060405180830381865afa158015611c55573d5f803e3d5ffd5b505050506040513d601f19601f82011682018060405250810190611c799190613e87565b5b611cb9576040517f08c379a0000000000000000000000000000000000000000000000000000000008152600401611cb090613efc565b60405180910390fd5b5f60025f8481526020019081526020015f206008015f6101000a81548160ff0219169083151502179055505f60025f8481526020019081526020015f2060080160026101000a81548173ffffffffffffffffffffffffffffffffffffffff021916908373ffffffffffffffffffffffffffffffffffffffff1602179055504260025f8481526020019081526020015f20600a0181905550817f7371f9cfa7face3b4d28a038d95006b16e8cb594408ef3985257823e5c6f8fdd60405160405180910390a25050565b815f73ffffffffffffffffffffffffffffffffffffffff1660025f8381526020019081526020015f206001015f9054906101000a900473ffffffffffffffffffffffffffffffffffffffff1673ffffffffffffffffffffffffffffffffffffffff1603611e23576040517f08c379a0000000000000000000000000000000000000000000000000000000008152600401611e1a90613dab565b60405180910390fd5b823373ffffffffffffffffffffffffffffffffffffffff1660025f8381526020019081526020015f206001015f9054906101000a900473ffffffffffffffffffffffffffffffffffffffff1673ffffffffffffffffffffffffffffffffffffffff161480611fb557505f60019054906101000a900473ffffffffffffffffffffffffffffffffffffffff1673ffffffffffffffffffffffffffffffffffffffff166391d148545f60019054906101000a900473ffffffffffffffffffffffffffffffffffffffff1673ffffffffffffffffffffffffffffffffffffffff166398e4abb56040518163ffffffff1660e01b8152600401602060405180830381865afa158015611f33573d5f803e3d5ffd5b505050506040513d601f19601f82011682018060405250810190611f579190613dfc565b336040518363ffffffff1660e01b8152600401611f75929190613e36565b602060405180830381865afa158015611f90573d5f803e3d5ffd5b505050506040513d601f19601f82011682018060405250810190611fb49190613e87565b5b611ff4576040517f08c379a0000000000000000000000000000000000000000000000000000000008152600401611feb90614091565b60405180910390fd5b611ffc613212565b5f73ffffffffffffffffffffffffffffffffffffffff168373ffffffffffffffffffffffffffffffffffffffff160361206a576040517f08c379a000000000000000000000000000000000000000000000000000000000815260040161206190614606565b60405180910390fd5b5f60019054906101000a900473ffffffffffffffffffffffffffffffffffffffff1673ffffffffffffffffffffffffffffffffffffffff166391d148545f60019054906101000a900473ffffffffffffffffffffffffffffffffffffffff1673ffffffffffffffffffffffffffffffffffffffff166398e4abb56040518163ffffffff1660e01b8152600401602060405180830381865afa158015612111573d5f803e3d5ffd5b505050506040513d601f19601f820116820180604052508101906121359190613dfc565b856040518363ffffffff1660e01b8152600401612153929190613e36565b602060405180830381865afa15801561216e573d5f803e3d5ffd5b505050506040513d601f19601f820116820180604052508101906121929190613e87565b6121d1576040517f08c379a00000000000000000000000000000000000000000000000000000000081526004016121c890614694565b60405180910390fd5b5f60025f8681526020019081526020015f206001015f9054906101000a900473ffffffffffffffffffffffffffffffffffffffff1690508360025f8781526020019081526020015f206001015f6101000a81548173ffffffffffffffffffffffffffffffffffffffff021916908373ffffffffffffffffffffffffffffffffffffffff1602179055504260025f8781526020019081526020015f20600a018190555061227d858261333d565b60045f8573ffffffffffffffffffffffffffffffffffffffff1673ffffffffffffffffffffffffffffffffffffffff1681526020019081526020015f2085908060018154018082558091505060019003905f5260205f20015f90919091909150558373ffffffffffffffffffffffffffffffffffffffff168173ffffffffffffffffffffffffffffffffffffffff16867fa54354750c707642a038f4ac683faa206a3649a6c35a44f9640d34d20578b15b60405160405180910390a45050505050565b6060600580548060200260200160405190810160405280929190818152602001828054801561238c57602002820191905f5260205f20905b815481526020019060010190808311612378575b5050505050905090565b5f60019054906101000a900473ffffffffffffffffffffffffffffffffffffffff1673ffffffffffffffffffffffffffffffffffffffff166391d148545f60019054906101000a900473ffffffffffffffffffffffffffffffffffffffff1673ffffffffffffffffffffffffffffffffffffffff166375b238fc6040518163ffffffff1660e01b8152600401602060405180830381865afa15801561243d573d5f803e3d5ffd5b505050506040513d601f19601f820116820180604052508101906124619190613dfc565b336040518363ffffffff1660e01b815260040161247f929190613e36565b602060405180830381865afa15801561249a573d5f803e3d5ffd5b505050506040513d601f19601f820116820180604052508101906124be9190613e87565b6124fd576040517f08c379a00000000000000000000000000000000000000000000000000000000081526004016124f490613fcc565b60405180910390fd5b612505613212565b5f60035f8381526020019081526020015f20905080600c015f9054906101000a900460ff16612569576040517f08c379a0000000000000000000000000000000000000000000000000000000008152600401612560906146fc565b60405180910390fd5b5f81600c015f6101000a81548160ff021916908315150217905550600181600c0160016101000a81548160ff0219169083151502179055508060010160025f8481526020019081526020015f205f820154815f0155600182015f9054906101000a900473ffffffffffffffffffffffffffffffffffffffff16816001015f6101000a81548173ffffffffffffffffffffffffffffffffffffffff021916908373ffffffffffffffffffffffffffffffffffffffff16021790555060028201816002015f8201815f01908161263d919061472f565b5060018201816001019081612652919061472f565b5060028201816002019081612667919061472f565b506003820154816003015560048201548160040155505060078201548160070155600882015f9054906101000a900460ff16816008015f6101000a81548160ff0219169083151502179055506008820160019054906101000a900460ff168160080160016101000a81548160ff0219169083151502179055506008820160029054906101000a900473ffffffffffffffffffffffffffffffffffffffff168160080160026101000a81548173ffffffffffffffffffffffffffffffffffffffff021916908373ffffffffffffffffffffffffffffffffffffffff16021790555060098201548160090155600a82015481600a015590505060045f825f015f9054906101000a900473ffffffffffffffffffffffffffffffffffffffff1673ffffffffffffffffffffffffffffffffffffffff1673ffffffffffffffffffffffffffffffffffffffff1681526020019081526020015f2082908060018154018082558091505060019003905f5260205f20015f90919091909150556127ea8261343a565b81827f9f590c35d933762074155ff5a113fc98b6f567020152980d42abc18fbff30e9360405160405180910390a35050565b6005818154811061282b575f80fd5b905f5260205f20015f915090505481565b805f73ffffffffffffffffffffffffffffffffffffffff1660025f8381526020019081526020015f206001015f9054906101000a900473ffffffffffffffffffffffffffffffffffffffff1673ffffffffffffffffffffffffffffffffffffffff16036128de576040517f08c379a00000000000000000000000000000000000000000000000000000000081526004016128d590613dab565b60405180910390fd5b5f60019054906101000a900473ffffffffffffffffffffffffffffffffffffffff1673ffffffffffffffffffffffffffffffffffffffff166391d148545f60019054906101000a900473ffffffffffffffffffffffffffffffffffffffff1673ffffffffffffffffffffffffffffffffffffffff166378988ebd6040518163ffffffff1660e01b8152600401602060405180830381865afa158015612985573d5f803e3d5ffd5b505050506040513d601f19601f820116820180604052508101906129a99190613dfc565b336040518363ffffffff1660e01b81526004016129c7929190613e36565b602060405180830381865afa1580156129e2573d5f803e3d5ffd5b505050506040513d601f19601f82011682018060405250810190612a069190613e87565b612a45576040517f08c379a0000000000000000000000000000000000000000000000000000000008152600401612a3c9061485e565b60405180910390fd5b612a4d613212565b60025f8381526020019081526020015f206008015f9054906101000a900460ff1615612aae576040517f08c379a0000000000000000000000000000000000000000000000000000000008152600401612aa5906148c6565b60405180910390fd5b600160025f8481526020019081526020015f206008015f6101000a81548160ff0219169083151502179055503360025f8481526020019081526020015f2060080160026101000a81548173ffffffffffffffffffffffffffffffffffffffff021916908373ffffffffffffffffffffffffffffffffffffffff1602179055504260025f8481526020019081526020015f20600a01819055503373ffffffffffffffffffffffffffffffffffffffff16827f707376974f27963cd1c675d4dd78fa5360604fdb7255fb2918395d001182c9dc60405160405180910390a35050565b606060045f8373ffffffffffffffffffffffffffffffffffffffff1673ffffffffffffffffffffffffffffffffffffffff1681526020019081526020015f20805480602002602001604051908101604052809291908181526020018280548015612c1557602002820191905f5260205f20905b815481526020019060010190808311612c01575b50505050509050919050565b5f60019054906101000a900473ffffffffffffffffffffffffffffffffffffffff1673ffffffffffffffffffffffffffffffffffffffff166391d148545f60019054906101000a900473ffffffffffffffffffffffffffffffffffffffff1673ffffffffffffffffffffffffffffffffffffffff166375b238fc6040518163ffffffff1660e01b8152600401602060405180830381865afa158015612cc8573d5f803e3d5ffd5b505050506040513d601f19601f82011682018060405250810190612cec9190613dfc565b336040518363ffffffff1660e01b8152600401612d0a929190613e36565b602060405180830381865afa158015612d25573d5f803e3d5ffd5b505050506040513d601f19601f82011682018060405250810190612d499190613e87565b612d88576040517f08c379a0000000000000000000000000000000000000000000000000000000008152600401612d7f90613fcc565b60405180910390fd5b612d90613212565b5f60035f8381526020019081526020015f20905080600c015f9054906101000a900460ff16612df4576040517f08c379a0000000000000000000000000000000000000000000000000000000008152600401612deb906146fc565b60405180910390fd5b5f81600c015f6101000a81548160ff0219169083151502179055505f81600c0160016101000a81548160ff021916908315150217905550612e348261343a565b817ffc16a62acc42f1401e209c71f8bb430a6f13ab2cf2b6b9d9f0090f44b57314aa60405160405180910390a25050565b612e6d61354b565b815f73ffffffffffffffffffffffffffffffffffffffff1660025f8381526020019081526020015f206001015f9054906101000a900473ffffffffffffffffffffffffffffffffffffffff1673ffffffffffffffffffffffffffffffffffffffff1603612f0f576040517f08c379a0000000000000000000000000000000000000000000000000000000008152600401612f0690613dab565b60405180910390fd5b60025f8481526020019081526020015f20604051806101200160405290815f8201548152602001600182015f9054906101000a900473ffffffffffffffffffffffffffffffffffffffff1673ffffffffffffffffffffffffffffffffffffffff1673ffffffffffffffffffffffffffffffffffffffff168152602001600282016040518060a00160405290815f82018054612fa990614017565b80601f0160208091040260200160405190810160405280929190818152602001828054612fd590614017565b80156130205780601f10612ff757610100808354040283529160200191613020565b820191905f5260205f20905b81548152906001019060200180831161300357829003601f168201915b5050505050815260200160018201805461303990614017565b80601f016020809104026020016040519081016040528092919081815260200182805461306590614017565b80156130b05780601f10613087576101008083540402835291602001916130b0565b820191905f5260205f20905b81548152906001019060200180831161309357829003601f168201915b505050505081526020016002820180546130c990614017565b80601f01602080910402602001604051908101604052809291908181526020018280546130f590614017565b80156131405780601f1061311757610100808354040283529160200191613140565b820191905f5260205f20905b81548152906001019060200180831161312357829003601f168201915b5050505050815260200160038201548152602001600482015481525050815260200160078201548152602001600882015f9054906101000a900460ff161515151581526020016008820160019054906101000a900460ff161515151581526020016008820160029054906101000a900473ffffffffffffffffffffffffffffffffffffffff1673ffffffffffffffffffffffffffffffffffffffff1673ffffffffffffffffffffffffffffffffffffffff16815260200160098201548152602001600a82015481525050915050919050565b61321a611320565b1561325a576040517f08c379a00000000000000000000000000000000000000000000000000000000081526004016132519061492e565b60405180910390fd5b565b6132646134fb565b5f805f6101000a81548160ff0219169083151502179055507f5db9ee0a495bf2e6ff9c91a7834c1ba4fdd244a5e8aa4e537bd38aeae4b073aa6132a5613544565b6040516132b2919061494c565b60405180910390a1565b6132c4613212565b60015f806101000a81548160ff0219169083151502179055507f62e78cea01bee320cd4e420270b5ea74000d11b0c9f74754ebdbfc544b05a258613306613544565b604051613313919061494c565b60405180910390a1565b5f815f01549050919050565b6001815f015f828254019250508190555050565b5f60045f8373ffffffffffffffffffffffffffffffffffffffff1673ffffffffffffffffffffffffffffffffffffffff1681526020019081526020015f2090505f5b8180549050811015613434578382828154811061339f5761339e614965565b5b905f5260205f200154036134215781600183805490506133bf91906149bf565b815481106133d0576133cf614965565b5b905f5260205f2001548282815481106133ec576133eb614965565b5b905f5260205f20018190555081805480613409576134086149f2565b5b600190038181905f5260205f20015f90559055613434565b808061342c90614a1f565b91505061337f565b50505050565b5f5b6005805490508110156134f757816005828154811061345e5761345d614965565b5b905f5260205f200154036134e4576005600160058054905061348091906149bf565b8154811061349157613490614965565b5b905f5260205f200154600582815481106134ae576134ad614965565b5b905f5260205f20018190555060058054806134cc576134cb6149f2565b5b600190038181905f5260205f20015f905590556134f7565b80806134ef90614a1f565b91505061343c565b5050565b613503611320565b613542576040517f08c379a000000000000000000000000000000000000000000000000000000000815260040161353990614ab0565b60405180910390fd5b565b5f33905090565b6040518061012001604052805f81526020015f73ffffffffffffffffffffffffffffffffffffffff1681526020016135816135c5565b81526020015f81526020015f151581526020015f151581526020015f73ffffffffffffffffffffffffffffffffffffffff1681526020015f81526020015f81525090565b6040518060a001604052806060815260200160608152602001606081526020015f81526020015f81525090565b5f73ffffffffffffffffffffffffffffffffffffffff82169050919050565b5f819050919050565b5f61363461362f61362a846135f2565b613611565b6135f2565b9050919050565b5f6136458261361a565b9050919050565b5f6136568261363b565b9050919050565b6136668161364c565b82525050565b5f60208201905061367f5f83018461365d565b92915050565b5f80fd5b5f80fd5b5f819050919050565b61369f8161368d565b81146136a9575f80fd5b50565b5f813590506136ba81613696565b92915050565b5f602082840312156136d5576136d4613685565b5b5f6136e2848285016136ac565b91505092915050565b5f6136f5826135f2565b9050919050565b613705816136eb565b82525050565b6137148161368d565b82525050565b613723816136eb565b82525050565b5f81519050919050565b5f82825260208201905092915050565b5f5b83811015613760578082015181840152602081019050613745565b5f8484015250505050565b5f601f19601f8301169050919050565b5f61378582613729565b61378f8185613733565b935061379f818560208601613743565b6137a88161376b565b840191505092915050565b5f819050919050565b6137c5816137b3565b82525050565b5f60a083015f8301518482035f8601526137e5828261377b565b915050602083015184820360208601526137ff828261377b565b91505060408301518482036040860152613819828261377b565b915050606083015161382e60608601826137bc565b50608083015161384160808601826137bc565b508091505092915050565b5f8115159050919050565b6138608161384c565b82525050565b5f61012083015f83015161387c5f86018261370b565b50602083015161388f602086018261371a565b50604083015184820360408601526138a782826137cb565b91505060608301516138bc606086018261370b565b5060808301516138cf6080860182613857565b5060a08301516138e260a0860182613857565b5060c08301516138f560c086018261371a565b5060e083015161390860e086018261370b565b5061010083015161391d61010086018261370b565b508091505092915050565b6139318161384c565b82525050565b5f60808201905061394a5f8301876136fc565b818103602083015261395c8186613866565b905061396b6040830185613928565b6139786060830184613928565b95945050505050565b5f80fd5b5f60c0828403121561399a57613999613981565b5b81905092915050565b5f80604083850312156139b9576139b8613685565b5b5f6139c6858286016136ac565b925050602083013567ffffffffffffffff8111156139e7576139e6613689565b5b6139f385828601613985565b9150509250929050565b613a068161368d565b82525050565b5f60a083015f8301518482035f860152613a26828261377b565b91505060208301518482036020860152613a40828261377b565b91505060408301518482036040860152613a5a828261377b565b9150506060830151613a6f60608601826137bc565b506080830151613a8260808601826137bc565b508091505092915050565b5f61012082019050613aa15f83018c6139fd565b613aae602083018b6136fc565b8181036040830152613ac0818a613a0c565b9050613acf60608301896139fd565b613adc6080830188613928565b613ae960a0830187613928565b613af660c08301866136fc565b613b0360e08301856139fd565b613b116101008301846139fd565b9a9950505050505050505050565b5f602082019050613b325f830184613928565b92915050565b613b41816136eb565b8114613b4b575f80fd5b50565b5f81359050613b5c81613b38565b92915050565b5f8060408385031215613b7857613b77613685565b5b5f613b8585828601613b4e565b9250506020613b96858286016136ac565b9150509250929050565b5f602082019050613bb35f8301846139fd565b92915050565b5f60208284031215613bce57613bcd613685565b5b5f82013567ffffffffffffffff811115613beb57613bea613689565b5b613bf784828501613985565b91505092915050565b5f8060408385031215613c1657613c15613685565b5b5f613c23858286016136ac565b9250506020613c3485828601613b4e565b9150509250929050565b5f81519050919050565b5f82825260208201905092915050565b5f819050602082019050919050565b5f613c72838361370b565b60208301905092915050565b5f602082019050919050565b5f613c9482613c3e565b613c9e8185613c48565b9350613ca983613c58565b805f5b83811015613cd9578151613cc08882613c67565b9750613ccb83613c7e565b925050600181019050613cac565b5085935050505092915050565b5f6020820190508181035f830152613cfe8184613c8a565b905092915050565b5f60208284031215613d1b57613d1a613685565b5b5f613d2884828501613b4e565b91505092915050565b5f6020820190508181035f830152613d498184613866565b905092915050565b5f82825260208201905092915050565b7f57616c6c20646f6573206e6f74206578697374000000000000000000000000005f82015250565b5f613d95601383613d51565b9150613da082613d61565b602082019050919050565b5f6020820190508181035f830152613dc281613d89565b9050919050565b5f819050919050565b613ddb81613dc9565b8114613de5575f80fd5b50565b5f81519050613df681613dd2565b92915050565b5f60208284031215613e1157613e10613685565b5b5f613e1e84828501613de8565b91505092915050565b613e3081613dc9565b82525050565b5f604082019050613e495f830185613e27565b613e5660208301846136fc565b9392505050565b613e668161384c565b8114613e70575f80fd5b50565b5f81519050613e8181613e5d565b92915050565b5f60208284031215613e9c57613e9b613685565b5b5f613ea984828501613e73565b91505092915050565b7f4e6f7420617574686f72697a65640000000000000000000000000000000000005f82015250565b5f613ee6600e83613d51565b9150613ef182613eb2565b602082019050919050565b5f6020820190508181035f830152613f1381613eda565b9050919050565b7f57616c6c20616c7265616479207061696e7465640000000000000000000000005f82015250565b5f613f4e601483613d51565b9150613f5982613f1a565b602082019050919050565b5f6020820190508181035f830152613f7b81613f42565b9050919050565b7f43616c6c6572206973206e6f7420616e2061646d696e000000000000000000005f82015250565b5f613fb6601683613d51565b9150613fc182613f82565b602082019050919050565b5f6020820190508181035f830152613fe381613faa565b9050919050565b7f4e487b71000000000000000000000000000000000000000000000000000000005f52602260045260245ffd5b5f600282049050600182168061402e57607f821691505b60208210810361404157614040613fea565b5b50919050565b7f43616c6c6572206973206e6f74207468652077616c6c206f776e6572000000005f82015250565b5f61407b601c83613d51565b915061408682614047565b602082019050919050565b5f6020820190508181035f8301526140a88161406f565b9050919050565b5f80fd5b5f80fd5b5f80fd5b5f80833560016020038436030381126140d7576140d66140af565b5b80840192508235915067ffffffffffffffff8211156140f9576140f86140b3565b5b602083019250600182023603831315614115576141146140b7565b5b509250929050565b7f496e76616c6964206c6f636174696f6e206461746100000000000000000000005f82015250565b5f614151601583613d51565b915061415c8261411d565b602082019050919050565b5f6020820190508181035f83015261417e81614145565b9050919050565b7f496e76616c69642073697a6500000000000000000000000000000000000000005f82015250565b5f6141b9600c83613d51565b91506141c482614185565b602082019050919050565b5f6020820190508181035f8301526141e6816141ad565b9050919050565b5f82905092915050565b7f4e487b71000000000000000000000000000000000000000000000000000000005f52604160045260245ffd5b5f819050815f5260205f209050919050565b5f6020601f8301049050919050565b5f82821b905092915050565b5f600883026142807fffffffffffffffffffffffffffffffffffffffffffffffffffffffffffffffff82614245565b61428a8683614245565b95508019841693508086168417925050509392505050565b5f6142bc6142b76142b28461368d565b613611565b61368d565b9050919050565b5f819050919050565b6142d5836142a2565b6142e96142e1826142c3565b848454614251565b825550505050565b5f90565b6142fd6142f1565b6143088184846142cc565b505050565b5b8181101561432b576143205f826142f5565b60018101905061430e565b5050565b601f8211156143705761434181614224565b61434a84614236565b81016020851015614359578190505b61436d61436585614236565b83018261430d565b50505b505050565b5f82821c905092915050565b5f6143905f1984600802614375565b1980831691505092915050565b5f6143a88383614381565b9150826002028217905092915050565b6143c283836141ed565b67ffffffffffffffff8111156143db576143da6141f7565b5b6143e58254614017565b6143f082828561432f565b5f601f83116001811461441d575f841561440b578287013590505b614415858261439d565b86555061447c565b601f19841661442b86614224565b5f5b828110156144525784890135825560018201915060208501945060208101905061442d565b8683101561446f578489013561446b601f891682614381565b8355505b6001600288020188555050505b50505050505050565b61448e82613729565b67ffffffffffffffff8111156144a7576144a66141f7565b5b6144b18254614017565b6144bc82828561432f565b5f60209050601f8311600181146144ed575f84156144db578287015190505b6144e5858261439d565b86555061454c565b601f1984166144fb86614224565b5f5b82811015614522578489015182556001820191506020850194506020810190506144fd565b8683101561453f578489015161453b601f891682614381565b8355505b6001600288020188555050505b505050505050565b7f57616c6c206e6f7420696e20612067616c6c65727900000000000000000000005f82015250565b5f614588601583613d51565b915061459382614554565b602082019050919050565b5f6020820190508181035f8301526145b58161457c565b9050919050565b7f496e76616c6964206e6577206f776e65720000000000000000000000000000005f82015250565b5f6145f0601183613d51565b91506145fb826145bc565b602082019050919050565b5f6020820190508181035f83015261461d816145e4565b9050919050565b7f4e6577206f776e6572206d75737420686176652057414c4c5f4f574e45525f525f8201527f4f4c450000000000000000000000000000000000000000000000000000000000602082015250565b5f61467e602383613d51565b915061468982614624565b604082019050919050565b5f6020820190508181035f8301526146ab81614672565b9050919050565b7f52657175657374206e6f742070656e64696e67000000000000000000000000005f82015250565b5f6146e6601383613d51565b91506146f1826146b2565b602082019050919050565b5f6020820190508181035f830152614713816146da565b9050919050565b5f8154905061472881614017565b9050919050565b81810361473d575050614812565b6147468261471a565b67ffffffffffffffff81111561475f5761475e6141f7565b5b6147698254614017565b61477482828561432f565b5f601f8311600181146147a1575f841561478f578287015490505b614799858261439d565b86555061480b565b601f1984166147af87614224565b96506147ba86614224565b5f5b828110156147e1578489015482556001820191506001850194506020810190506147bc565b868310156147fe57848901546147fa601f891682614381565b8355505b6001600288020188555050505b5050505050505b565b7f43616c6c6572206973206e6f7420612067616c6c657279206f776e65720000005f82015250565b5f614848601d83613d51565b915061485382614814565b602082019050919050565b5f6020820190508181035f8301526148758161483c565b9050919050565b7f57616c6c20616c726561647920696e20612067616c6c657279000000000000005f82015250565b5f6148b0601983613d51565b91506148bb8261487c565b602082019050919050565b5f6020820190508181035f8301526148dd816148a4565b9050919050565b7f5061757361626c653a20706175736564000000000000000000000000000000005f82015250565b5f614918601083613d51565b9150614923826148e4565b602082019050919050565b5f6020820190508181035f8301526149458161490c565b9050919050565b5f60208201905061495f5f8301846136fc565b92915050565b7f4e487b71000000000000000000000000000000000000000000000000000000005f52603260045260245ffd5b7f4e487b71000000000000000000000000000000000000000000000000000000005f52601160045260245ffd5b5f6149c98261368d565b91506149d48361368d565b92508282039050818111156149ec576149eb614992565b5b92915050565b7f4e487b71000000000000000000000000000000000000000000000000000000005f52603160045260245ffd5b5f614a298261368d565b91507fffffffffffffffffffffffffffffffffffffffffffffffffffffffffffffffff8203614a5b57614a5a614992565b5b600182019050919050565b7f5061757361626c653a206e6f74207061757365640000000000000000000000005f82015250565b5f614a9a601483613d51565b9150614aa582614a66565b602082019050919050565b5f6020820190508181035f830152614ac781614a8e565b905091905056fea2646970667358221220ea27a409ab062068e66526e161dd1e17aa61a4eadaadfbe989a5ada7d1f5b46d64736f6c63430008140033",
			"opcodes": "PUSH1 0x80 PUSH1 0x40 MSTORE CALLVALUE DUP1 ISZERO PUSH3 0x10 JUMPI PUSH0 DUP1 REVERT JUMPDEST POP PUSH1 0x40 MLOAD PUSH3 0x4D2B CODESIZE SUB DUP1 PUSH3 0x4D2B DUP4 CODECOPY DUP2 DUP2 ADD PUSH1 0x40 MSTORE DUP2 ADD SWAP1 PUSH3 0x36 SWAP2 SWAP1 PUSH3 0x16B JUMP JUMPDEST PUSH0 DUP1 PUSH0 PUSH2 0x100 EXP DUP2 SLOAD DUP2 PUSH1 0xFF MUL NOT AND SWAP1 DUP4 ISZERO ISZERO MUL OR SWAP1 SSTORE POP PUSH0 PUSH20 0xFFFFFFFFFFFFFFFFFFFFFFFFFFFFFFFFFFFFFFFF AND DUP2 PUSH20 0xFFFFFFFFFFFFFFFFFFFFFFFFFFFFFFFFFFFFFFFF AND SUB PUSH3 0xBF JUMPI PUSH1 0x40 MLOAD PUSH32 0x8C379A000000000000000000000000000000000000000000000000000000000 DUP2 MSTORE PUSH1 0x4 ADD PUSH3 0xB6 SWAP1 PUSH3 0x1F9 JUMP JUMPDEST PUSH1 0x40 MLOAD DUP1 SWAP2 SUB SWAP1 REVERT JUMPDEST DUP1 PUSH0 PUSH1 0x1 PUSH2 0x100 EXP DUP2 SLOAD DUP2 PUSH20 0xFFFFFFFFFFFFFFFFFFFFFFFFFFFFFFFFFFFFFFFF MUL NOT AND SWAP1 DUP4 PUSH20 0xFFFFFFFFFFFFFFFFFFFFFFFFFFFFFFFFFFFFFFFF AND MUL OR SWAP1 SSTORE POP POP PUSH3 0x219 JUMP JUMPDEST PUSH0 DUP1 REVERT JUMPDEST PUSH0 PUSH20 0xFFFFFFFFFFFFFFFFFFFFFFFFFFFFFFFFFFFFFFFF DUP3 AND SWAP1 POP SWAP2 SWAP1 POP JUMP JUMPDEST PUSH0 PUSH3 0x135 DUP3 PUSH3 0x10A JUMP JUMPDEST SWAP1 POP SWAP2 SWAP1 POP JUMP JUMPDEST PUSH3 0x147 DUP2 PUSH3 0x129 JUMP JUMPDEST DUP2 EQ PUSH3 0x152 JUMPI PUSH0 DUP1 REVERT JUMPDEST POP JUMP JUMPDEST PUSH0 DUP2 MLOAD SWAP1 POP PUSH3 0x165 DUP2 PUSH3 0x13C JUMP JUMPDEST SWAP3 SWAP2 POP POP JUMP JUMPDEST PUSH0 PUSH1 0x20 DUP3 DUP5 SUB SLT ISZERO PUSH3 0x183 JUMPI PUSH3 0x182 PUSH3 0x106 JUMP JUMPDEST JUMPDEST PUSH0 PUSH3 0x192 DUP5 DUP3 DUP6 ADD PUSH3 0x155 JUMP JUMPDEST SWAP2 POP POP SWAP3 SWAP2 POP POP JUMP JUMPDEST PUSH0 DUP3 DUP3 MSTORE PUSH1 0x20 DUP3 ADD SWAP1 POP SWAP3 SWAP2 POP POP JUMP JUMPDEST PUSH32 0x496E76616C696420526F6C654D616E6167657220616464726573730000000000 PUSH0 DUP3 ADD MSTORE POP JUMP JUMPDEST PUSH0 PUSH3 0x1E1 PUSH1 0x1B DUP4 PUSH3 0x19B JUMP JUMPDEST SWAP2 POP PUSH3 0x1EE DUP3 PUSH3 0x1AB JUMP JUMPDEST PUSH1 0x20 DUP3 ADD SWAP1 POP SWAP2 SWAP1 POP JUMP JUMPDEST PUSH0 PUSH1 0x20 DUP3 ADD SWAP1 POP DUP2 DUP2 SUB PUSH0 DUP4 ADD MSTORE PUSH3 0x212 DUP2 PUSH3 0x1D3 JUMP JUMPDEST SWAP1 POP SWAP2 SWAP1 POP JUMP JUMPDEST PUSH2 0x4B04 DUP1 PUSH3 0x227 PUSH0 CODECOPY PUSH0 RETURN INVALID PUSH1 0x80 PUSH1 0x40 MSTORE CALLVALUE DUP1 ISZERO PUSH2 0xF JUMPI PUSH0 DUP1 REVERT JUMPDEST POP PUSH1 0x4 CALLDATASIZE LT PUSH2 0x11E JUMPI PUSH0 CALLDATALOAD PUSH1 0xE0 SHR DUP1 PUSH4 0x89CF7DDF GT PUSH2 0xAB JUMPI DUP1 PUSH4 0xDA817A24 GT PUSH2 0x6F JUMPI DUP1 PUSH4 0xDA817A24 EQ PUSH2 0x2D3 JUMPI DUP1 PUSH4 0xDE5B3EA2 EQ PUSH2 0x303 JUMPI DUP1 PUSH4 0xEFC953EF EQ PUSH2 0x31F JUMPI DUP1 PUSH4 0xF64FEE98 EQ PUSH2 0x34F JUMPI DUP1 PUSH4 0xFF91E489 EQ PUSH2 0x36B JUMPI PUSH2 0x11E JUMP JUMPDEST DUP1 PUSH4 0x89CF7DDF EQ PUSH2 0x245 JUMPI DUP1 PUSH4 0x9944F1BC EQ PUSH2 0x261 JUMPI DUP1 PUSH4 0xA1519B11 EQ PUSH2 0x27D JUMPI DUP1 PUSH4 0xAAB34756 EQ PUSH2 0x299 JUMPI DUP1 PUSH4 0xCB3DE478 EQ PUSH2 0x2B7 JUMPI PUSH2 0x11E JUMP JUMPDEST DUP1 PUSH4 0x54F9D9E8 GT PUSH2 0xF2 JUMPI DUP1 PUSH4 0x54F9D9E8 EQ PUSH2 0x199 JUMPI DUP1 PUSH4 0x550A3DBA EQ PUSH2 0x1B5 JUMPI DUP1 PUSH4 0x5C975ABB EQ PUSH2 0x1ED JUMPI DUP1 PUSH4 0x6F725C13 EQ PUSH2 0x20B JUMPI DUP1 PUSH4 0x8456CB59 EQ PUSH2 0x23B JUMPI PUSH2 0x11E JUMP JUMPDEST DUP1 PUSH3 0x435DA5 EQ PUSH2 0x122 JUMPI DUP1 PUSH4 0x2596133B EQ PUSH2 0x140 JUMPI DUP1 PUSH4 0x3F4BA83A EQ PUSH2 0x15C JUMPI DUP1 PUSH4 0x44EE00B7 EQ PUSH2 0x166 JUMPI JUMPDEST PUSH0 DUP1 REVERT JUMPDEST PUSH2 0x12A PUSH2 0x39B JUMP JUMPDEST PUSH1 0x40 MLOAD PUSH2 0x137 SWAP2 SWAP1 PUSH2 0x366C JUMP JUMPDEST PUSH1 0x40 MLOAD DUP1 SWAP2 SUB SWAP1 RETURN JUMPDEST PUSH2 0x15A PUSH1 0x4 DUP1 CALLDATASIZE SUB DUP2 ADD SWAP1 PUSH2 0x155 SWAP2 SWAP1 PUSH2 0x36C0 JUMP JUMPDEST PUSH2 0x3C0 JUMP JUMPDEST STOP JUMPDEST PUSH2 0x164 PUSH2 0x7D9 JUMP JUMPDEST STOP JUMPDEST PUSH2 0x180 PUSH1 0x4 DUP1 CALLDATASIZE SUB DUP2 ADD SWAP1 PUSH2 0x17B SWAP2 SWAP1 PUSH2 0x36C0 JUMP JUMPDEST PUSH2 0x94A JUMP JUMPDEST PUSH1 0x40 MLOAD PUSH2 0x190 SWAP5 SWAP4 SWAP3 SWAP2 SWAP1 PUSH2 0x3937 JUMP JUMPDEST PUSH1 0x40 MLOAD DUP1 SWAP2 SUB SWAP1 RETURN JUMPDEST PUSH2 0x1B3 PUSH1 0x4 DUP1 CALLDATASIZE SUB DUP2 ADD SWAP1 PUSH2 0x1AE SWAP2 SWAP1 PUSH2 0x39A3 JUMP JUMPDEST PUSH2 0xC97 JUMP JUMPDEST STOP JUMPDEST PUSH2 0x1CF PUSH1 0x4 DUP1 CALLDATASIZE SUB DUP2 ADD SWAP1 PUSH2 0x1CA SWAP2 SWAP1 PUSH2 0x36C0 JUMP JUMPDEST PUSH2 0x10B1 JUMP JUMPDEST PUSH1 0x40 MLOAD PUSH2 0x1E4 SWAP10 SWAP9 SWAP8 SWAP7 SWAP6 SWAP5 SWAP4 SWAP3 SWAP2 SWAP1 PUSH2 0x3A8D JUMP JUMPDEST PUSH1 0x40 MLOAD DUP1 SWAP2 SUB SWAP1 RETURN JUMPDEST PUSH2 0x1F5 PUSH2 0x1320 JUMP JUMPDEST PUSH1 0x40 MLOAD PUSH2 0x202 SWAP2 SWAP1 PUSH2 0x3B1F JUMP JUMPDEST PUSH1 0x40 MLOAD DUP1 SWAP2 SUB SWAP1 RETURN JUMPDEST PUSH2 0x225 PUSH1 0x4 DUP1 CALLDATASIZE SUB DUP2 ADD SWAP1 PUSH2 0x220 SWAP2 SWAP1 PUSH2 0x3B62 JUMP JUMPDEST PUSH2 0x1334 JUMP JUMPDEST PUSH1 0x40 MLOAD PUSH2 0x232 SWAP2 SWAP1 PUSH2 0x3BA0 JUMP JUMPDEST PUSH1 0x40 MLOAD DUP1 SWAP2 SUB SWAP1 RETURN JUMPDEST PUSH2 0x243 PUSH2 0x135F JUMP JUMPDEST STOP JUMPDEST PUSH2 0x25F PUSH1 0x4 DUP1 CALLDATASIZE SUB DUP2 ADD SWAP1 PUSH2 0x25A SWAP2 SWAP1 PUSH2 0x3BB9 JUMP JUMPDEST PUSH2 0x14D0 JUMP JUMPDEST STOP JUMPDEST PUSH2 0x27B PUSH1 0x4 DUP1 CALLDATASIZE SUB DUP2 ADD SWAP1 PUSH2 0x276 SWAP2 SWAP1 PUSH2 0x36C0 JUMP JUMPDEST PUSH2 0x19DE JUMP JUMPDEST STOP JUMPDEST PUSH2 0x297 PUSH1 0x4 DUP1 CALLDATASIZE SUB DUP2 ADD SWAP1 PUSH2 0x292 SWAP2 SWAP1 PUSH2 0x3C00 JUMP JUMPDEST PUSH2 0x1D81 JUMP JUMPDEST STOP JUMPDEST PUSH2 0x2A1 PUSH2 0x2340 JUMP JUMPDEST PUSH1 0x40 MLOAD PUSH2 0x2AE SWAP2 SWAP1 PUSH2 0x3CE6 JUMP JUMPDEST PUSH1 0x40 MLOAD DUP1 SWAP2 SUB SWAP1 RETURN JUMPDEST PUSH2 0x2D1 PUSH1 0x4 DUP1 CALLDATASIZE SUB DUP2 ADD SWAP1 PUSH2 0x2CC SWAP2 SWAP1 PUSH2 0x36C0 JUMP JUMPDEST PUSH2 0x2396 JUMP JUMPDEST STOP JUMPDEST PUSH2 0x2ED PUSH1 0x4 DUP1 CALLDATASIZE SUB DUP2 ADD SWAP1 PUSH2 0x2E8 SWAP2 SWAP1 PUSH2 0x36C0 JUMP JUMPDEST PUSH2 0x281C JUMP JUMPDEST PUSH1 0x40 MLOAD PUSH2 0x2FA SWAP2 SWAP1 PUSH2 0x3BA0 JUMP JUMPDEST PUSH1 0x40 MLOAD DUP1 SWAP2 SUB SWAP1 RETURN JUMPDEST PUSH2 0x31D PUSH1 0x4 DUP1 CALLDATASIZE SUB DUP2 ADD SWAP1 PUSH2 0x318 SWAP2 SWAP1 PUSH2 0x36C0 JUMP JUMPDEST PUSH2 0x283C JUMP JUMPDEST STOP JUMPDEST PUSH2 0x339 PUSH1 0x4 DUP1 CALLDATASIZE SUB DUP2 ADD SWAP1 PUSH2 0x334 SWAP2 SWAP1 PUSH2 0x3D06 JUMP JUMPDEST PUSH2 0x2B8E JUMP JUMPDEST PUSH1 0x40 MLOAD PUSH2 0x346 SWAP2 SWAP1 PUSH2 0x3CE6 JUMP JUMPDEST PUSH1 0x40 MLOAD DUP1 SWAP2 SUB SWAP1 RETURN JUMPDEST PUSH2 0x369 PUSH1 0x4 DUP1 CALLDATASIZE SUB DUP2 ADD SWAP1 PUSH2 0x364 SWAP2 SWAP1 PUSH2 0x36C0 JUMP JUMPDEST PUSH2 0x2C21 JUMP JUMPDEST STOP JUMPDEST PUSH2 0x385 PUSH1 0x4 DUP1 CALLDATASIZE SUB DUP2 ADD SWAP1 PUSH2 0x380 SWAP2 SWAP1 PUSH2 0x36C0 JUMP JUMPDEST PUSH2 0x2E65 JUMP JUMPDEST PUSH1 0x40 MLOAD PUSH2 0x392 SWAP2 SWAP1 PUSH2 0x3D31 JUMP JUMPDEST PUSH1 0x40 MLOAD DUP1 SWAP2 SUB SWAP1 RETURN JUMPDEST PUSH0 PUSH1 0x1 SWAP1 SLOAD SWAP1 PUSH2 0x100 EXP SWAP1 DIV PUSH20 0xFFFFFFFFFFFFFFFFFFFFFFFFFFFFFFFFFFFFFFFF AND DUP2 JUMP JUMPDEST DUP1 PUSH0 PUSH20 0xFFFFFFFFFFFFFFFFFFFFFFFFFFFFFFFFFFFFFFFF AND PUSH1 0x2 PUSH0 DUP4 DUP2 MSTORE PUSH1 0x20 ADD SWAP1 DUP2 MSTORE PUSH1 0x20 ADD PUSH0 KECCAK256 PUSH1 0x1 ADD PUSH0 SWAP1 SLOAD SWAP1 PUSH2 0x100 EXP SWAP1 DIV PUSH20 0xFFFFFFFFFFFFFFFFFFFFFFFFFFFFFFFFFFFFFFFF AND PUSH20 0xFFFFFFFFFFFFFFFFFFFFFFFFFFFFFFFFFFFFFFFF AND SUB PUSH2 0x462 JUMPI PUSH1 0x40 MLOAD PUSH32 0x8C379A000000000000000000000000000000000000000000000000000000000 DUP2 MSTORE PUSH1 0x4 ADD PUSH2 0x459 SWAP1 PUSH2 0x3DAB JUMP JUMPDEST PUSH1 0x40 MLOAD DUP1 SWAP2 SUB SWAP1 REVERT JUMPDEST PUSH2 0x46A PUSH2 0x3212 JUMP JUMPDEST PUSH0 PUSH1 0x1 SWAP1 SLOAD SWAP1 PUSH2 0x100 EXP SWAP1 DIV PUSH20 0xFFFFFFFFFFFFFFFFFFFFFFFFFFFFFFFFFFFFFFFF AND PUSH20 0xFFFFFFFFFFFFFFFFFFFFFFFFFFFFFFFFFFFFFFFF AND PUSH4 0x91D14854 PUSH0 PUSH1 0x1 SWAP1 SLOAD SWAP1 PUSH2 0x100 EXP SWAP1 DIV PUSH20 0xFFFFFFFFFFFFFFFFFFFFFFFFFFFFFFFFFFFFFFFF AND PUSH20 0xFFFFFFFFFFFFFFFFFFFFFFFFFFFFFFFFFFFFFFFF AND PUSH4 0x303E3840 PUSH1 0x40 MLOAD DUP2 PUSH4 0xFFFFFFFF AND PUSH1 0xE0 SHL DUP2 MSTORE PUSH1 0x4 ADD PUSH1 0x20 PUSH1 0x40 MLOAD DUP1 DUP4 SUB DUP2 DUP7 GAS STATICCALL ISZERO DUP1 ISZERO PUSH2 0x511 JUMPI RETURNDATASIZE PUSH0 DUP1 RETURNDATACOPY RETURNDATASIZE PUSH0 REVERT JUMPDEST POP POP POP POP PUSH1 0x40 MLOAD RETURNDATASIZE PUSH1 0x1F NOT PUSH1 0x1F DUP3 ADD AND DUP3 ADD DUP1 PUSH1 0x40 MSTORE POP DUP2 ADD SWAP1 PUSH2 0x535 SWAP2 SWAP1 PUSH2 0x3DFC JUMP JUMPDEST CALLER PUSH1 0x40 MLOAD DUP4 PUSH4 0xFFFFFFFF AND PUSH1 0xE0 SHL DUP2 MSTORE PUSH1 0x4 ADD PUSH2 0x553 SWAP3 SWAP2 SWAP1 PUSH2 0x3E36 JUMP JUMPDEST PUSH1 0x20 PUSH1 0x40 MLOAD DUP1 DUP4 SUB DUP2 DUP7 GAS STATICCALL ISZERO DUP1 ISZERO PUSH2 0x56E JUMPI RETURNDATASIZE PUSH0 DUP1 RETURNDATACOPY RETURNDATASIZE PUSH0 REVERT JUMPDEST POP POP POP POP PUSH1 0x40 MLOAD RETURNDATASIZE PUSH1 0x1F NOT PUSH1 0x1F DUP3 ADD AND DUP3 ADD DUP1 PUSH1 0x40 MSTORE POP DUP2 ADD SWAP1 PUSH2 0x592 SWAP2 SWAP1 PUSH2 0x3E87 JUMP JUMPDEST DUP1 PUSH2 0x6C1 JUMPI POP PUSH0 PUSH1 0x1 SWAP1 SLOAD SWAP1 PUSH2 0x100 EXP SWAP1 DIV PUSH20 0xFFFFFFFFFFFFFFFFFFFFFFFFFFFFFFFFFFFFFFFF AND PUSH20 0xFFFFFFFFFFFFFFFFFFFFFFFFFFFFFFFFFFFFFFFF AND PUSH4 0x91D14854 PUSH0 PUSH1 0x1 SWAP1 SLOAD SWAP1 PUSH2 0x100 EXP SWAP1 DIV PUSH20 0xFFFFFFFFFFFFFFFFFFFFFFFFFFFFFFFFFFFFFFFF AND PUSH20 0xFFFFFFFFFFFFFFFFFFFFFFFFFFFFFFFFFFFFFFFF AND PUSH4 0x75B238FC PUSH1 0x40 MLOAD DUP2 PUSH4 0xFFFFFFFF AND PUSH1 0xE0 SHL DUP2 MSTORE PUSH1 0x4 ADD PUSH1 0x20 PUSH1 0x40 MLOAD DUP1 DUP4 SUB DUP2 DUP7 GAS STATICCALL ISZERO DUP1 ISZERO PUSH2 0x63F JUMPI RETURNDATASIZE PUSH0 DUP1 RETURNDATACOPY RETURNDATASIZE PUSH0 REVERT JUMPDEST POP POP POP POP PUSH1 0x40 MLOAD RETURNDATASIZE PUSH1 0x1F NOT PUSH1 0x1F DUP3 ADD AND DUP3 ADD DUP1 PUSH1 0x40 MSTORE POP DUP2 ADD SWAP1 PUSH2 0x663 SWAP2 SWAP1 PUSH2 0x3DFC JUMP JUMPDEST CALLER PUSH1 0x40 MLOAD DUP4 PUSH4 0xFFFFFFFF AND PUSH1 0xE0 SHL DUP2 MSTORE PUSH1 0x4 ADD PUSH2 0x681 SWAP3 SWAP2 SWAP1 PUSH2 0x3E36 JUMP JUMPDEST PUSH1 0x20 PUSH1 0x40 MLOAD DUP1 DUP4 SUB DUP2 DUP7 GAS STATICCALL ISZERO DUP1 ISZERO PUSH2 0x69C JUMPI RETURNDATASIZE PUSH0 DUP1 RETURNDATACOPY RETURNDATASIZE PUSH0 REVERT JUMPDEST POP POP POP POP PUSH1 0x40 MLOAD RETURNDATASIZE PUSH1 0x1F NOT PUSH1 0x1F DUP3 ADD AND DUP3 ADD DUP1 PUSH1 0x40 MSTORE POP DUP2 ADD SWAP1 PUSH2 0x6C0 SWAP2 SWAP1 PUSH2 0x3E87 JUMP JUMPDEST JUMPDEST PUSH2 0x700 JUMPI PUSH1 0x40 MLOAD PUSH32 0x8C379A000000000000000000000000000000000000000000000000000000000 DUP2 MSTORE PUSH1 0x4 ADD PUSH2 0x6F7 SWAP1 PUSH2 0x3EFC JUMP JUMPDEST PUSH1 0x40 MLOAD DUP1 SWAP2 SUB SWAP1 REVERT JUMPDEST PUSH1 0x2 PUSH0 DUP4 DUP2 MSTORE PUSH1 0x20 ADD SWAP1 DUP2 MSTORE PUSH1 0x20 ADD PUSH0 KECCAK256 PUSH1 0x8 ADD PUSH1 0x1 SWAP1 SLOAD SWAP1 PUSH2 0x100 EXP SWAP1 DIV PUSH1 0xFF AND ISZERO PUSH2 0x762 JUMPI PUSH1 0x40 MLOAD PUSH32 0x8C379A000000000000000000000000000000000000000000000000000000000 DUP2 MSTORE PUSH1 0x4 ADD PUSH2 0x759 SWAP1 PUSH2 0x3F64 JUMP JUMPDEST PUSH1 0x40 MLOAD DUP1 SWAP2 SUB SWAP1 REVERT JUMPDEST PUSH1 0x1 PUSH1 0x2 PUSH0 DUP5 DUP2 MSTORE PUSH1 0x20 ADD SWAP1 DUP2 MSTORE PUSH1 0x20 ADD PUSH0 KECCAK256 PUSH1 0x8 ADD PUSH1 0x1 PUSH2 0x100 EXP DUP2 SLOAD DUP2 PUSH1 0xFF MUL NOT AND SWAP1 DUP4 ISZERO ISZERO MUL OR SWAP1 SSTORE POP TIMESTAMP PUSH1 0x2 PUSH0 DUP5 DUP2 MSTORE PUSH1 0x20 ADD SWAP1 DUP2 MSTORE PUSH1 0x20 ADD PUSH0 KECCAK256 PUSH1 0xA ADD DUP2 SWAP1 SSTORE POP DUP2 PUSH32 0xEC94DE210998BA2EACEA6999D704553270A7BF8688113BBACB31773450E6B748 PUSH1 0x40 MLOAD PUSH1 0x40 MLOAD DUP1 SWAP2 SUB SWAP1 LOG2 POP POP JUMP JUMPDEST PUSH0 PUSH1 0x1 SWAP1 SLOAD SWAP1 PUSH2 0x100 EXP SWAP1 DIV PUSH20 0xFFFFFFFFFFFFFFFFFFFFFFFFFFFFFFFFFFFFFFFF AND PUSH20 0xFFFFFFFFFFFFFFFFFFFFFFFFFFFFFFFFFFFFFFFF AND PUSH4 0x91D14854 PUSH0 PUSH1 0x1 SWAP1 SLOAD SWAP1 PUSH2 0x100 EXP SWAP1 DIV PUSH20 0xFFFFFFFFFFFFFFFFFFFFFFFFFFFFFFFFFFFFFFFF AND PUSH20 0xFFFFFFFFFFFFFFFFFFFFFFFFFFFFFFFFFFFFFFFF AND PUSH4 0x75B238FC PUSH1 0x40 MLOAD DUP2 PUSH4 0xFFFFFFFF AND PUSH1 0xE0 SHL DUP2 MSTORE PUSH1 0x4 ADD PUSH1 0x20 PUSH1 0x40 MLOAD DUP1 DUP4 SUB DUP2 DUP7 GAS STATICCALL ISZERO DUP1 ISZERO PUSH2 0x880 JUMPI RETURNDATASIZE PUSH0 DUP1 RETURNDATACOPY RETURNDATASIZE PUSH0 REVERT JUMPDEST POP POP POP POP PUSH1 0x40 MLOAD RETURNDATASIZE PUSH1 0x1F NOT PUSH1 0x1F DUP3 ADD AND DUP3 ADD DUP1 PUSH1 0x40 MSTORE POP DUP2 ADD SWAP1 PUSH2 0x8A4 SWAP2 SWAP1 PUSH2 0x3DFC JUMP JUMPDEST CALLER PUSH1 0x40 MLOAD DUP4 PUSH4 0xFFFFFFFF AND PUSH1 0xE0 SHL DUP2 MSTORE PUSH1 0x4 ADD PUSH2 0x8C2 SWAP3 SWAP2 SWAP1 PUSH2 0x3E36 JUMP JUMPDEST PUSH1 0x20 PUSH1 0x40 MLOAD DUP1 DUP4 SUB DUP2 DUP7 GAS STATICCALL ISZERO DUP1 ISZERO PUSH2 0x8DD JUMPI RETURNDATASIZE PUSH0 DUP1 RETURNDATACOPY RETURNDATASIZE PUSH0 REVERT JUMPDEST POP POP POP POP PUSH1 0x40 MLOAD RETURNDATASIZE PUSH1 0x1F NOT PUSH1 0x1F DUP3 ADD AND DUP3 ADD DUP1 PUSH1 0x40 MSTORE POP DUP2 ADD SWAP1 PUSH2 0x901 SWAP2 SWAP1 PUSH2 0x3E87 JUMP JUMPDEST PUSH2 0x940 JUMPI PUSH1 0x40 MLOAD PUSH32 0x8C379A000000000000000000000000000000000000000000000000000000000 DUP2 MSTORE PUSH1 0x4 ADD PUSH2 0x937 SWAP1 PUSH2 0x3FCC JUMP JUMPDEST PUSH1 0x40 MLOAD DUP1 SWAP2 SUB SWAP1 REVERT JUMPDEST PUSH2 0x948 PUSH2 0x325C JUMP JUMPDEST JUMP JUMPDEST PUSH1 0x3 PUSH1 0x20 MSTORE DUP1 PUSH0 MSTORE PUSH1 0x40 PUSH0 KECCAK256 PUSH0 SWAP2 POP SWAP1 POP DUP1 PUSH0 ADD PUSH0 SWAP1 SLOAD SWAP1 PUSH2 0x100 EXP SWAP1 DIV PUSH20 0xFFFFFFFFFFFFFFFFFFFFFFFFFFFFFFFFFFFFFFFF AND SWAP1 DUP1 PUSH1 0x1 ADD PUSH1 0x40 MLOAD DUP1 PUSH2 0x120 ADD PUSH1 0x40 MSTORE SWAP1 DUP2 PUSH0 DUP3 ADD SLOAD DUP2 MSTORE PUSH1 0x20 ADD PUSH1 0x1 DUP3 ADD PUSH0 SWAP1 SLOAD SWAP1 PUSH2 0x100 EXP SWAP1 DIV PUSH20 0xFFFFFFFFFFFFFFFFFFFFFFFFFFFFFFFFFFFFFFFF AND PUSH20 0xFFFFFFFFFFFFFFFFFFFFFFFFFFFFFFFFFFFFFFFF AND PUSH20 0xFFFFFFFFFFFFFFFFFFFFFFFFFFFFFFFFFFFFFFFF AND DUP2 MSTORE PUSH1 0x20 ADD PUSH1 0x2 DUP3 ADD PUSH1 0x40 MLOAD DUP1 PUSH1 0xA0 ADD PUSH1 0x40 MSTORE SWAP1 DUP2 PUSH0 DUP3 ADD DUP1 SLOAD PUSH2 0xA0C SWAP1 PUSH2 0x4017 JUMP JUMPDEST DUP1 PUSH1 0x1F ADD PUSH1 0x20 DUP1 SWAP2 DIV MUL PUSH1 0x20 ADD PUSH1 0x40 MLOAD SWAP1 DUP2 ADD PUSH1 0x40 MSTORE DUP1 SWAP3 SWAP2 SWAP1 DUP2 DUP2 MSTORE PUSH1 0x20 ADD DUP3 DUP1 SLOAD PUSH2 0xA38 SWAP1 PUSH2 0x4017 JUMP JUMPDEST DUP1 ISZERO PUSH2 0xA83 JUMPI DUP1 PUSH1 0x1F LT PUSH2 0xA5A JUMPI PUSH2 0x100 DUP1 DUP4 SLOAD DIV MUL DUP4 MSTORE SWAP2 PUSH1 0x20 ADD SWAP2 PUSH2 0xA83 JUMP JUMPDEST DUP3 ADD SWAP2 SWAP1 PUSH0 MSTORE PUSH1 0x20 PUSH0 KECCAK256 SWAP1 JUMPDEST DUP2 SLOAD DUP2 MSTORE SWAP1 PUSH1 0x1 ADD SWAP1 PUSH1 0x20 ADD DUP1 DUP4 GT PUSH2 0xA66 JUMPI DUP3 SWAP1 SUB PUSH1 0x1F AND DUP3 ADD SWAP2 JUMPDEST POP POP POP POP POP DUP2 MSTORE PUSH1 0x20 ADD PUSH1 0x1 DUP3 ADD DUP1 SLOAD PUSH2 0xA9C SWAP1 PUSH2 0x4017 JUMP JUMPDEST DUP1 PUSH1 0x1F ADD PUSH1 0x20 DUP1 SWAP2 DIV MUL PUSH1 0x20 ADD PUSH1 0x40 MLOAD SWAP1 DUP2 ADD PUSH1 0x40 MSTORE DUP1 SWAP3 SWAP2 SWAP1 DUP2 DUP2 MSTORE PUSH1 0x20 ADD DUP3 DUP1 SLOAD PUSH2 0xAC8 SWAP1 PUSH2 0x4017 JUMP JUMPDEST DUP1 ISZERO PUSH2 0xB13 JUMPI DUP1 PUSH1 0x1F LT PUSH2 0xAEA JUMPI PUSH2 0x100 DUP1 DUP4 SLOAD DIV MUL DUP4 MSTORE SWAP2 PUSH1 0x20 ADD SWAP2 PUSH2 0xB13 JUMP JUMPDEST DUP3 ADD SWAP2 SWAP1 PUSH0 MSTORE PUSH1 0x20 PUSH0 KECCAK256 SWAP1 JUMPDEST DUP2 SLOAD DUP2 MSTORE SWAP1 PUSH1 0x1 ADD SWAP1 PUSH1 0x20 ADD DUP1 DUP4 GT PUSH2 0xAF6 JUMPI DUP3 SWAP1 SUB PUSH1 0x1F AND DUP3 ADD SWAP2 JUMPDEST POP POP POP POP POP DUP2 MSTORE PUSH1 0x20 ADD PUSH1 0x2 DUP3 ADD DUP1 SLOAD PUSH2 0xB2C SWAP1 PUSH2 0x4017 JUMP JUMPDEST DUP1 PUSH1 0x1F ADD PUSH1 0x20 DUP1 SWAP2 DIV MUL PUSH1 0x20 ADD PUSH1 0x40 MLOAD SWAP1 DUP2 ADD PUSH1 0x40 MSTORE DUP1 SWAP3 SWAP2 SWAP1 DUP2 DUP2 MSTORE PUSH1 0x20 ADD DUP3 DUP1 SLOAD PUSH2 0xB58 SWAP1 PUSH2 0x4017 JUMP JUMPDEST DUP1 ISZERO PUSH2 0xBA3 JUMPI DUP1 PUSH1 0x1F LT PUSH2 0xB7A JUMPI PUSH2 0x100 DUP1 DUP4 SLOAD DIV MUL DUP4 MSTORE SWAP2 PUSH1 0x20 ADD SWAP2 PUSH2 0xBA3 JUMP JUMPDEST DUP3 ADD SWAP2 SWAP1 PUSH0 MSTORE PUSH1 0x20 PUSH0 KECCAK256 SWAP1 JUMPDEST DUP2 SLOAD DUP2 MSTORE SWAP1 PUSH1 0x1 ADD SWAP1 PUSH1 0x20 ADD DUP1 DUP4 GT PUSH2 0xB86 JUMPI DUP3 SWAP1 SUB PUSH1 0x1F AND DUP3 ADD SWAP2 JUMPDEST POP POP POP POP POP DUP2 MSTORE PUSH1 0x20 ADD PUSH1 0x3 DUP3 ADD SLOAD DUP2 MSTORE PUSH1 0x20 ADD PUSH1 0x4 DUP3 ADD SLOAD DUP2 MSTORE POP POP DUP2 MSTORE PUSH1 0x20 ADD PUSH1 0x7 DUP3 ADD SLOAD DUP2 MSTORE PUSH1 0x20 ADD PUSH1 0x8 DUP3 ADD PUSH0 SWAP1 SLOAD SWAP1 PUSH2 0x100 EXP SWAP1 DIV PUSH1 0xFF AND ISZERO ISZERO ISZERO ISZERO DUP2 MSTORE PUSH1 0x20 ADD PUSH1 0x8 DUP3 ADD PUSH1 0x1 SWAP1 SLOAD SWAP1 PUSH2 0x100 EXP SWAP1 DIV PUSH1 0xFF AND ISZERO ISZERO ISZERO ISZERO DUP2 MSTORE PUSH1 0x20 ADD PUSH1 0x8 DUP3 ADD PUSH1 0x2 SWAP1 SLOAD SWAP1 PUSH2 0x100 EXP SWAP1 DIV PUSH20 0xFFFFFFFFFFFFFFFFFFFFFFFFFFFFFFFFFFFFFFFF AND PUSH20 0xFFFFFFFFFFFFFFFFFFFFFFFFFFFFFFFFFFFFFFFF AND PUSH20 0xFFFFFFFFFFFFFFFFFFFFFFFFFFFFFFFFFFFFFFFF AND DUP2 MSTORE PUSH1 0x20 ADD PUSH1 0x9 DUP3 ADD SLOAD DUP2 MSTORE PUSH1 0x20 ADD PUSH1 0xA DUP3 ADD SLOAD DUP2 MSTORE POP POP SWAP1 DUP1 PUSH1 0xC ADD PUSH0 SWAP1 SLOAD SWAP1 PUSH2 0x100 EXP SWAP1 DIV PUSH1 0xFF AND SWAP1 DUP1 PUSH1 0xC ADD PUSH1 0x1 SWAP1 SLOAD SWAP1 PUSH2 0x100 EXP SWAP1 DIV PUSH1 0xFF AND SWAP1 POP DUP5 JUMP JUMPDEST DUP2 PUSH0 PUSH20 0xFFFFFFFFFFFFFFFFFFFFFFFFFFFFFFFFFFFFFFFF AND PUSH1 0x2 PUSH0 DUP4 DUP2 MSTORE PUSH1 0x20 ADD SWAP1 DUP2 MSTORE PUSH1 0x20 ADD PUSH0 KECCAK256 PUSH1 0x1 ADD PUSH0 SWAP1 SLOAD SWAP1 PUSH2 0x100 EXP SWAP1 DIV PUSH20 0xFFFFFFFFFFFFFFFFFFFFFFFFFFFFFFFFFFFFFFFF AND PUSH20 0xFFFFFFFFFFFFFFFFFFFFFFFFFFFFFFFFFFFFFFFF AND SUB PUSH2 0xD39 JUMPI PUSH1 0x40 MLOAD PUSH32 0x8C379A000000000000000000000000000000000000000000000000000000000 DUP2 MSTORE PUSH1 0x4 ADD PUSH2 0xD30 SWAP1 PUSH2 0x3DAB JUMP JUMPDEST PUSH1 0x40 MLOAD DUP1 SWAP2 SUB SWAP1 REVERT JUMPDEST DUP3 CALLER PUSH20 0xFFFFFFFFFFFFFFFFFFFFFFFFFFFFFFFFFFFFFFFF AND PUSH1 0x2 PUSH0 DUP4 DUP2 MSTORE PUSH1 0x20 ADD SWAP1 DUP2 MSTORE PUSH1 0x20 ADD PUSH0 KECCAK256 PUSH1 0x1 ADD PUSH0 SWAP1 SLOAD SWAP1 PUSH2 0x100 EXP SWAP1 DIV PUSH20 0xFFFFFFFFFFFFFFFFFFFFFFFFFFFFFFFFFFFFFFFF AND PUSH20 0xFFFFFFFFFFFFFFFFFFFFFFFFFFFFFFFFFFFFFFFF AND EQ DUP1 PUSH2 0xECB JUMPI POP PUSH0 PUSH1 0x1 SWAP1 SLOAD SWAP1 PUSH2 0x100 EXP SWAP1 DIV PUSH20 0xFFFFFFFFFFFFFFFFFFFFFFFFFFFFFFFFFFFFFFFF AND PUSH20 0xFFFFFFFFFFFFFFFFFFFFFFFFFFFFFFFFFFFFFFFF AND PUSH4 0x91D14854 PUSH0 PUSH1 0x1 SWAP1 SLOAD SWAP1 PUSH2 0x100 EXP SWAP1 DIV PUSH20 0xFFFFFFFFFFFFFFFFFFFFFFFFFFFFFFFFFFFFFFFF AND PUSH20 0xFFFFFFFFFFFFFFFFFFFFFFFFFFFFFFFFFFFFFFFF AND PUSH4 0x98E4ABB5 PUSH1 0x40 MLOAD DUP2 PUSH4 0xFFFFFFFF AND PUSH1 0xE0 SHL DUP2 MSTORE PUSH1 0x4 ADD PUSH1 0x20 PUSH1 0x40 MLOAD DUP1 DUP4 SUB DUP2 DUP7 GAS STATICCALL ISZERO DUP1 ISZERO PUSH2 0xE49 JUMPI RETURNDATASIZE PUSH0 DUP1 RETURNDATACOPY RETURNDATASIZE PUSH0 REVERT JUMPDEST POP POP POP POP PUSH1 0x40 MLOAD RETURNDATASIZE PUSH1 0x1F NOT PUSH1 0x1F DUP3 ADD AND DUP3 ADD DUP1 PUSH1 0x40 MSTORE POP DUP2 ADD SWAP1 PUSH2 0xE6D SWAP2 SWAP1 PUSH2 0x3DFC JUMP JUMPDEST CALLER PUSH1 0x40 MLOAD DUP4 PUSH4 0xFFFFFFFF AND PUSH1 0xE0 SHL DUP2 MSTORE PUSH1 0x4 ADD PUSH2 0xE8B SWAP3 SWAP2 SWAP1 PUSH2 0x3E36 JUMP JUMPDEST PUSH1 0x20 PUSH1 0x40 MLOAD DUP1 DUP4 SUB DUP2 DUP7 GAS STATICCALL ISZERO DUP1 ISZERO PUSH2 0xEA6 JUMPI RETURNDATASIZE PUSH0 DUP1 RETURNDATACOPY RETURNDATASIZE PUSH0 REVERT JUMPDEST POP POP POP POP PUSH1 0x40 MLOAD RETURNDATASIZE PUSH1 0x1F NOT PUSH1 0x1F DUP3 ADD AND DUP3 ADD DUP1 PUSH1 0x40 MSTORE POP DUP2 ADD SWAP1 PUSH2 0xECA SWAP2 SWAP1 PUSH2 0x3E87 JUMP JUMPDEST JUMPDEST PUSH2 0xF0A JUMPI PUSH1 0x40 MLOAD PUSH32 0x8C379A000000000000000000000000000000000000000000000000000000000 DUP2 MSTORE PUSH1 0x4 ADD PUSH2 0xF01 SWAP1 PUSH2 0x4091 JUMP JUMPDEST PUSH1 0x40 MLOAD DUP1 SWAP2 SUB SWAP1 REVERT JUMPDEST PUSH2 0xF12 PUSH2 0x3212 JUMP JUMPDEST PUSH0 DUP4 DUP1 PUSH0 ADD SWAP1 PUSH2 0xF22 SWAP2 SWAP1 PUSH2 0x40BB JUMP JUMPDEST SWAP1 POP GT DUP1 ISZERO PUSH2 0xF41 JUMPI POP PUSH0 DUP4 DUP1 PUSH1 0x20 ADD SWAP1 PUSH2 0xF3D SWAP2 SWAP1 PUSH2 0x40BB JUMP JUMPDEST SWAP1 POP GT JUMPDEST PUSH2 0xF80 JUMPI PUSH1 0x40 MLOAD PUSH32 0x8C379A000000000000000000000000000000000000000000000000000000000 DUP2 MSTORE PUSH1 0x4 ADD PUSH2 0xF77 SWAP1 PUSH2 0x4167 JUMP JUMPDEST PUSH1 0x40 MLOAD DUP1 SWAP2 SUB SWAP1 REVERT JUMPDEST PUSH0 DUP4 PUSH1 0xA0 ADD CALLDATALOAD GT PUSH2 0xFC6 JUMPI PUSH1 0x40 MLOAD PUSH32 0x8C379A000000000000000000000000000000000000000000000000000000000 DUP2 MSTORE PUSH1 0x4 ADD PUSH2 0xFBD SWAP1 PUSH2 0x41CF JUMP JUMPDEST PUSH1 0x40 MLOAD DUP1 SWAP2 SUB SWAP1 REVERT JUMPDEST PUSH0 PUSH1 0x2 PUSH0 DUP7 DUP2 MSTORE PUSH1 0x20 ADD SWAP1 DUP2 MSTORE PUSH1 0x20 ADD PUSH0 KECCAK256 SWAP1 POP DUP4 DUP1 PUSH0 ADD SWAP1 PUSH2 0xFE9 SWAP2 SWAP1 PUSH2 0x40BB JUMP JUMPDEST DUP3 PUSH1 0x2 ADD PUSH0 ADD SWAP2 DUP3 PUSH2 0xFFC SWAP3 SWAP2 SWAP1 PUSH2 0x43B8 JUMP JUMPDEST POP DUP4 DUP1 PUSH1 0x20 ADD SWAP1 PUSH2 0x100D SWAP2 SWAP1 PUSH2 0x40BB JUMP JUMPDEST DUP3 PUSH1 0x2 ADD PUSH1 0x1 ADD SWAP2 DUP3 PUSH2 0x1021 SWAP3 SWAP2 SWAP1 PUSH2 0x43B8 JUMP JUMPDEST POP DUP4 DUP1 PUSH1 0x40 ADD SWAP1 PUSH2 0x1032 SWAP2 SWAP1 PUSH2 0x40BB JUMP JUMPDEST DUP3 PUSH1 0x2 ADD PUSH1 0x2 ADD SWAP2 DUP3 PUSH2 0x1046 SWAP3 SWAP2 SWAP1 PUSH2 0x43B8 JUMP JUMPDEST POP DUP4 PUSH1 0x60 ADD CALLDATALOAD DUP2 PUSH1 0x2 ADD PUSH1 0x3 ADD DUP2 SWAP1 SSTORE POP DUP4 PUSH1 0x80 ADD CALLDATALOAD DUP2 PUSH1 0x2 ADD PUSH1 0x4 ADD DUP2 SWAP1 SSTORE POP DUP4 PUSH1 0xA0 ADD CALLDATALOAD DUP2 PUSH1 0x7 ADD DUP2 SWAP1 SSTORE POP TIMESTAMP DUP2 PUSH1 0xA ADD DUP2 SWAP1 SSTORE POP DUP5 PUSH32 0xD62FA94C71EBA8CFE5AB835190623C67E15149837FD0CD60C1C170A8F31439E3 PUSH1 0x40 MLOAD PUSH1 0x40 MLOAD DUP1 SWAP2 SUB SWAP1 LOG2 POP POP POP POP POP JUMP JUMPDEST PUSH1 0x2 PUSH1 0x20 MSTORE DUP1 PUSH0 MSTORE PUSH1 0x40 PUSH0 KECCAK256 PUSH0 SWAP2 POP SWAP1 POP DUP1 PUSH0 ADD SLOAD SWAP1 DUP1 PUSH1 0x1 ADD PUSH0 SWAP1 SLOAD SWAP1 PUSH2 0x100 EXP SWAP1 DIV PUSH20 0xFFFFFFFFFFFFFFFFFFFFFFFFFFFFFFFFFFFFFFFF AND SWAP1 DUP1 PUSH1 0x2 ADD PUSH1 0x40 MLOAD DUP1 PUSH1 0xA0 ADD PUSH1 0x40 MSTORE SWAP1 DUP2 PUSH0 DUP3 ADD DUP1 SLOAD PUSH2 0x110A SWAP1 PUSH2 0x4017 JUMP JUMPDEST DUP1 PUSH1 0x1F ADD PUSH1 0x20 DUP1 SWAP2 DIV MUL PUSH1 0x20 ADD PUSH1 0x40 MLOAD SWAP1 DUP2 ADD PUSH1 0x40 MSTORE DUP1 SWAP3 SWAP2 SWAP1 DUP2 DUP2 MSTORE PUSH1 0x20 ADD DUP3 DUP1 SLOAD PUSH2 0x1136 SWAP1 PUSH2 0x4017 JUMP JUMPDEST DUP1 ISZERO PUSH2 0x1181 JUMPI DUP1 PUSH1 0x1F LT PUSH2 0x1158 JUMPI PUSH2 0x100 DUP1 DUP4 SLOAD DIV MUL DUP4 MSTORE SWAP2 PUSH1 0x20 ADD SWAP2 PUSH2 0x1181 JUMP JUMPDEST DUP3 ADD SWAP2 SWAP1 PUSH0 MSTORE PUSH1 0x20 PUSH0 KECCAK256 SWAP1 JUMPDEST DUP2 SLOAD DUP2 MSTORE SWAP1 PUSH1 0x1 ADD SWAP1 PUSH1 0x20 ADD DUP1 DUP4 GT PUSH2 0x1164 JUMPI DUP3 SWAP1 SUB PUSH1 0x1F AND DUP3 ADD SWAP2 JUMPDEST POP POP POP POP POP DUP2 MSTORE PUSH1 0x20 ADD PUSH1 0x1 DUP3 ADD DUP1 SLOAD PUSH2 0x119A SWAP1 PUSH2 0x4017 JUMP JUMPDEST DUP1 PUSH1 0x1F ADD PUSH1 0x20 DUP1 SWAP2 DIV MUL PUSH1 0x20 ADD PUSH1 0x40 MLOAD SWAP1 DUP2 ADD PUSH1 0x40 MSTORE DUP1 SWAP3 SWAP2 SWAP1 DUP2 DUP2 MSTORE PUSH1 0x20 ADD DUP3 DUP1 SLOAD PUSH2 0x11C6 SWAP1 PUSH2 0x4017 JUMP JUMPDEST DUP1 ISZERO PUSH2 0x1211 JUMPI DUP1 PUSH1 0x1F LT PUSH2 0x11E8 JUMPI PUSH2 0x100 DUP1 DUP4 SLOAD DIV MUL DUP4 MSTORE SWAP2 PUSH1 0x20 ADD SWAP2 PUSH2 0x1211 JUMP JUMPDEST DUP3 ADD SWAP2 SWAP1 PUSH0 MSTORE PUSH1 0x20 PUSH0 KECCAK256 SWAP1 JUMPDEST DUP2 SLOAD DUP2 MSTORE SWAP1 PUSH1 0x1 ADD SWAP1 PUSH1 0x20 ADD DUP1 DUP4 GT PUSH2 0x11F4 JUMPI DUP3 SWAP1 SUB PUSH1 0x1F AND DUP3 ADD SWAP2 JUMPDEST POP POP POP POP POP DUP2 MSTORE PUSH1 0x20 ADD PUSH1 0x2 DUP3 ADD DUP1 SLOAD PUSH2 0x122A SWAP1 PUSH2 0x4017 JUMP JUMPDEST DUP1 PUSH1 0x1F ADD PUSH1 0x20 DUP1 SWAP2 DIV MUL PUSH1 0x20 ADD PUSH1 0x40 MLOAD SWAP1 DUP2 ADD PUSH1 0x40 MSTORE DUP1 SWAP3 SWAP2 SWAP1 DUP2 DUP2 MSTORE PUSH1 0x20 ADD DUP3 DUP1 SLOAD PUSH2 0x1256 SWAP1 PUSH2 0x4017 JUMP JUMPDEST DUP1 ISZERO PUSH2 0x12A1 JUMPI DUP1 PUSH1 0x1F LT PUSH2 0x1278 JUMPI PUSH2 0x100 DUP1 DUP4 SLOAD DIV MUL DUP4 MSTORE SWAP2 PUSH1 0x20 ADD SWAP2 PUSH2 0x12A1 JUMP JUMPDEST DUP3 ADD SWAP2 SWAP1 PUSH0 MSTORE PUSH1 0x20 PUSH0 KECCAK256 SWAP1 JUMPDEST DUP2 SLOAD DUP2 MSTORE SWAP1 PUSH1 0x1 ADD SWAP1 PUSH1 0x20 ADD DUP1 DUP4 GT PUSH2 0x1284 JUMPI DUP3 SWAP1 SUB PUSH1 0x1F AND DUP3 ADD SWAP2 JUMPDEST POP POP POP POP POP DUP2 MSTORE PUSH1 0x20 ADD PUSH1 0x3 DUP3 ADD SLOAD DUP2 MSTORE PUSH1 0x20 ADD PUSH1 0x4 DUP3 ADD SLOAD DUP2 MSTORE POP POP SWAP1 DUP1 PUSH1 0x7 ADD SLOAD SWAP1 DUP1 PUSH1 0x8 ADD PUSH0 SWAP1 SLOAD SWAP1 PUSH2 0x100 EXP SWAP1 DIV PUSH1 0xFF AND SWAP1 DUP1 PUSH1 0x8 ADD PUSH1 0x1 SWAP1 SLOAD SWAP1 PUSH2 0x100 EXP SWAP1 DIV PUSH1 0xFF AND SWAP1 DUP1 PUSH1 0x8 ADD PUSH1 0x2 SWAP1 SLOAD SWAP1 PUSH2 0x100 EXP SWAP1 DIV PUSH20 0xFFFFFFFFFFFFFFFFFFFFFFFFFFFFFFFFFFFFFFFF AND SWAP1 DUP1 PUSH1 0x9 ADD SLOAD SWAP1 DUP1 PUSH1 0xA ADD SLOAD SWAP1 POP DUP10 JUMP JUMPDEST PUSH0 DUP1 PUSH0 SWAP1 SLOAD SWAP1 PUSH2 0x100 EXP SWAP1 DIV PUSH1 0xFF AND SWAP1 POP SWAP1 JUMP JUMPDEST PUSH1 0x4 PUSH1 0x20 MSTORE DUP2 PUSH0 MSTORE PUSH1 0x40 PUSH0 KECCAK256 DUP2 DUP2 SLOAD DUP2 LT PUSH2 0x134D JUMPI PUSH0 DUP1 REVERT JUMPDEST SWAP1 PUSH0 MSTORE PUSH1 0x20 PUSH0 KECCAK256 ADD PUSH0 SWAP2 POP SWAP2 POP POP SLOAD DUP2 JUMP JUMPDEST PUSH0 PUSH1 0x1 SWAP1 SLOAD SWAP1 PUSH2 0x100 EXP SWAP1 DIV PUSH20 0xFFFFFFFFFFFFFFFFFFFFFFFFFFFFFFFFFFFFFFFF AND PUSH20 0xFFFFFFFFFFFFFFFFFFFFFFFFFFFFFFFFFFFFFFFF AND PUSH4 0x91D14854 PUSH0 PUSH1 0x1 SWAP1 SLOAD SWAP1 PUSH2 0x100 EXP SWAP1 DIV PUSH20 0xFFFFFFFFFFFFFFFFFFFFFFFFFFFFFFFFFFFFFFFF AND PUSH20 0xFFFFFFFFFFFFFFFFFFFFFFFFFFFFFFFFFFFFFFFF AND PUSH4 0x75B238FC PUSH1 0x40 MLOAD DUP2 PUSH4 0xFFFFFFFF AND PUSH1 0xE0 SHL DUP2 MSTORE PUSH1 0x4 ADD PUSH1 0x20 PUSH1 0x40 MLOAD DUP1 DUP4 SUB DUP2 DUP7 GAS STATICCALL ISZERO DUP1 ISZERO PUSH2 0x1406 JUMPI RETURNDATASIZE PUSH0 DUP1 RETURNDATACOPY RETURNDATASIZE PUSH0 REVERT JUMPDEST POP POP POP POP PUSH1 0x40 MLOAD RETURNDATASIZE PUSH1 0x1F NOT PUSH1 0x1F DUP3 ADD AND DUP3 ADD DUP1 PUSH1 0x40 MSTORE POP DUP2 ADD SWAP1 PUSH2 0x142A SWAP2 SWAP1 PUSH2 0x3DFC JUMP JUMPDEST CALLER PUSH1 0x40 MLOAD DUP4 PUSH4 0xFFFFFFFF AND PUSH1 0xE0 SHL DUP2 MSTORE PUSH1 0x4 ADD PUSH2 0x1448 SWAP3 SWAP2 SWAP1 PUSH2 0x3E36 JUMP JUMPDEST PUSH1 0x20 PUSH1 0x40 MLOAD DUP1 DUP4 SUB DUP2 DUP7 GAS STATICCALL ISZERO DUP1 ISZERO PUSH2 0x1463 JUMPI RETURNDATASIZE PUSH0 DUP1 RETURNDATACOPY RETURNDATASIZE PUSH0 REVERT JUMPDEST POP POP POP POP PUSH1 0x40 MLOAD RETURNDATASIZE PUSH1 0x1F NOT PUSH1 0x1F DUP3 ADD AND DUP3 ADD DUP1 PUSH1 0x40 MSTORE POP DUP2 ADD SWAP1 PUSH2 0x1487 SWAP2 SWAP1 PUSH2 0x3E87 JUMP JUMPDEST PUSH2 0x14C6 JUMPI PUSH1 0x40 MLOAD PUSH32 0x8C379A000000000000000000000000000000000000000000000000000000000 DUP2 MSTORE PUSH1 0x4 ADD PUSH2 0x14BD SWAP1 PUSH2 0x3FCC JUMP JUMPDEST PUSH1 0x40 MLOAD DUP1 SWAP2 SUB SWAP1 REVERT JUMPDEST PUSH2 0x14CE PUSH2 0x32BC JUMP JUMPDEST JUMP JUMPDEST PUSH2 0x14D8 PUSH2 0x3212 JUMP JUMPDEST PUSH0 DUP2 DUP1 PUSH0 ADD SWAP1 PUSH2 0x14E8 SWAP2 SWAP1 PUSH2 0x40BB JUMP JUMPDEST SWAP1 POP GT DUP1 ISZERO PUSH2 0x1507 JUMPI POP PUSH0 DUP2 DUP1 PUSH1 0x20 ADD SWAP1 PUSH2 0x1503 SWAP2 SWAP1 PUSH2 0x40BB JUMP JUMPDEST SWAP1 POP GT JUMPDEST PUSH2 0x1546 JUMPI PUSH1 0x40 MLOAD PUSH32 0x8C379A000000000000000000000000000000000000000000000000000000000 DUP2 MSTORE PUSH1 0x4 ADD PUSH2 0x153D SWAP1 PUSH2 0x4167 JUMP JUMPDEST PUSH1 0x40 MLOAD DUP1 SWAP2 SUB SWAP1 REVERT JUMPDEST PUSH0 DUP2 PUSH1 0xA0 ADD CALLDATALOAD GT PUSH2 0x158C JUMPI PUSH1 0x40 MLOAD PUSH32 0x8C379A000000000000000000000000000000000000000000000000000000000 DUP2 MSTORE PUSH1 0x4 ADD PUSH2 0x1583 SWAP1 PUSH2 0x41CF JUMP JUMPDEST PUSH1 0x40 MLOAD DUP1 SWAP2 SUB SWAP1 REVERT JUMPDEST PUSH0 PUSH2 0x1597 PUSH1 0x1 PUSH2 0x331D JUMP JUMPDEST SWAP1 POP PUSH2 0x15A3 PUSH1 0x1 PUSH2 0x3329 JUMP JUMPDEST PUSH0 PUSH1 0x40 MLOAD DUP1 PUSH1 0xA0 ADD PUSH1 0x40 MSTORE DUP1 DUP5 DUP1 PUSH0 ADD SWAP1 PUSH2 0x15BE SWAP2 SWAP1 PUSH2 0x40BB JUMP JUMPDEST DUP1 DUP1 PUSH1 0x1F ADD PUSH1 0x20 DUP1 SWAP2 DIV MUL PUSH1 0x20 ADD PUSH1 0x40 MLOAD SWAP1 DUP2 ADD PUSH1 0x40 MSTORE DUP1 SWAP4 SWAP3 SWAP2 SWAP1 DUP2 DUP2 MSTORE PUSH1 0x20 ADD DUP4 DUP4 DUP1 DUP3 DUP5 CALLDATACOPY PUSH0 DUP2 DUP5 ADD MSTORE PUSH1 0x1F NOT PUSH1 0x1F DUP3 ADD AND SWAP1 POP DUP1 DUP4 ADD SWAP3 POP POP POP POP POP POP POP DUP2 MSTORE PUSH1 0x20 ADD DUP5 DUP1 PUSH1 0x20 ADD SWAP1 PUSH2 0x1615 SWAP2 SWAP1 PUSH2 0x40BB JUMP JUMPDEST DUP1 DUP1 PUSH1 0x1F ADD PUSH1 0x20 DUP1 SWAP2 DIV MUL PUSH1 0x20 ADD PUSH1 0x40 MLOAD SWAP1 DUP2 ADD PUSH1 0x40 MSTORE DUP1 SWAP4 SWAP3 SWAP2 SWAP1 DUP2 DUP2 MSTORE PUSH1 0x20 ADD DUP4 DUP4 DUP1 DUP3 DUP5 CALLDATACOPY PUSH0 DUP2 DUP5 ADD MSTORE PUSH1 0x1F NOT PUSH1 0x1F DUP3 ADD AND SWAP1 POP DUP1 DUP4 ADD SWAP3 POP POP POP POP POP POP POP DUP2 MSTORE PUSH1 0x20 ADD DUP5 DUP1 PUSH1 0x40 ADD SWAP1 PUSH2 0x166C SWAP2 SWAP1 PUSH2 0x40BB JUMP JUMPDEST DUP1 DUP1 PUSH1 0x1F ADD PUSH1 0x20 DUP1 SWAP2 DIV MUL PUSH1 0x20 ADD PUSH1 0x40 MLOAD SWAP1 DUP2 ADD PUSH1 0x40 MSTORE DUP1 SWAP4 SWAP3 SWAP2 SWAP1 DUP2 DUP2 MSTORE PUSH1 0x20 ADD DUP4 DUP4 DUP1 DUP3 DUP5 CALLDATACOPY PUSH0 DUP2 DUP5 ADD MSTORE PUSH1 0x1F NOT PUSH1 0x1F DUP3 ADD AND SWAP1 POP DUP1 DUP4 ADD SWAP3 POP POP POP POP POP POP POP DUP2 MSTORE PUSH1 0x20 ADD DUP5 PUSH1 0x60 ADD CALLDATALOAD DUP2 MSTORE PUSH1 0x20 ADD DUP5 PUSH1 0x80 ADD CALLDATALOAD DUP2 MSTORE POP SWAP1 POP PUSH0 PUSH1 0x40 MLOAD DUP1 PUSH2 0x120 ADD PUSH1 0x40 MSTORE DUP1 DUP5 DUP2 MSTORE PUSH1 0x20 ADD CALLER PUSH20 0xFFFFFFFFFFFFFFFFFFFFFFFFFFFFFFFFFFFFFFFF AND DUP2 MSTORE PUSH1 0x20 ADD DUP4 DUP2 MSTORE PUSH1 0x20 ADD DUP6 PUSH1 0xA0 ADD CALLDATALOAD DUP2 MSTORE PUSH1 0x20 ADD PUSH0 ISZERO ISZERO DUP2 MSTORE PUSH1 0x20 ADD PUSH0 ISZERO ISZERO DUP2 MSTORE PUSH1 0x20 ADD PUSH0 PUSH20 0xFFFFFFFFFFFFFFFFFFFFFFFFFFFFFFFFFFFFFFFF AND DUP2 MSTORE PUSH1 0x20 ADD TIMESTAMP DUP2 MSTORE PUSH1 0x20 ADD TIMESTAMP DUP2 MSTORE POP SWAP1 POP PUSH1 0x40 MLOAD DUP1 PUSH1 0x80 ADD PUSH1 0x40 MSTORE DUP1 CALLER PUSH20 0xFFFFFFFFFFFFFFFFFFFFFFFFFFFFFFFFFFFFFFFF AND DUP2 MSTORE PUSH1 0x20 ADD DUP3 DUP2 MSTORE PUSH1 0x20 ADD PUSH1 0x1 ISZERO ISZERO DUP2 MSTORE PUSH1 0x20 ADD PUSH0 ISZERO ISZERO DUP2 MSTORE POP PUSH1 0x3 PUSH0 DUP6 DUP2 MSTORE PUSH1 0x20 ADD SWAP1 DUP2 MSTORE PUSH1 0x20 ADD PUSH0 KECCAK256 PUSH0 DUP3 ADD MLOAD DUP2 PUSH0 ADD PUSH0 PUSH2 0x100 EXP DUP2 SLOAD DUP2 PUSH20 0xFFFFFFFFFFFFFFFFFFFFFFFFFFFFFFFFFFFFFFFF MUL NOT AND SWAP1 DUP4 PUSH20 0xFFFFFFFFFFFFFFFFFFFFFFFFFFFFFFFFFFFFFFFF AND MUL OR SWAP1 SSTORE POP PUSH1 0x20 DUP3 ADD MLOAD DUP2 PUSH1 0x1 ADD PUSH0 DUP3 ADD MLOAD DUP2 PUSH0 ADD SSTORE PUSH1 0x20 DUP3 ADD MLOAD DUP2 PUSH1 0x1 ADD PUSH0 PUSH2 0x100 EXP DUP2 SLOAD DUP2 PUSH20 0xFFFFFFFFFFFFFFFFFFFFFFFFFFFFFFFFFFFFFFFF MUL NOT AND SWAP1 DUP4 PUSH20 0xFFFFFFFFFFFFFFFFFFFFFFFFFFFFFFFFFFFFFFFF AND MUL OR SWAP1 SSTORE POP PUSH1 0x40 DUP3 ADD MLOAD DUP2 PUSH1 0x2 ADD PUSH0 DUP3 ADD MLOAD DUP2 PUSH0 ADD SWAP1 DUP2 PUSH2 0x1842 SWAP2 SWAP1 PUSH2 0x4485 JUMP JUMPDEST POP PUSH1 0x20 DUP3 ADD MLOAD DUP2 PUSH1 0x1 ADD SWAP1 DUP2 PUSH2 0x1858 SWAP2 SWAP1 PUSH2 0x4485 JUMP JUMPDEST POP PUSH1 0x40 DUP3 ADD MLOAD DUP2 PUSH1 0x2 ADD SWAP1 DUP2 PUSH2 0x186E SWAP2 SWAP1 PUSH2 0x4485 JUMP JUMPDEST POP PUSH1 0x60 DUP3 ADD MLOAD DUP2 PUSH1 0x3 ADD SSTORE PUSH1 0x80 DUP3 ADD MLOAD DUP2 PUSH1 0x4 ADD SSTORE POP POP PUSH1 0x60 DUP3 ADD MLOAD DUP2 PUSH1 0x7 ADD SSTORE PUSH1 0x80 DUP3 ADD MLOAD DUP2 PUSH1 0x8 ADD PUSH0 PUSH2 0x100 EXP DUP2 SLOAD DUP2 PUSH1 0xFF MUL NOT AND SWAP1 DUP4 ISZERO ISZERO MUL OR SWAP1 SSTORE POP PUSH1 0xA0 DUP3 ADD MLOAD DUP2 PUSH1 0x8 ADD PUSH1 0x1 PUSH2 0x100 EXP DUP2 SLOAD DUP2 PUSH1 0xFF MUL NOT AND SWAP1 DUP4 ISZERO ISZERO MUL OR SWAP1 SSTORE POP PUSH1 0xC0 DUP3 ADD MLOAD DUP2 PUSH1 0x8 ADD PUSH1 0x2 PUSH2 0x100 EXP DUP2 SLOAD DUP2 PUSH20 0xFFFFFFFFFFFFFFFFFFFFFFFFFFFFFFFFFFFFFFFF MUL NOT AND SWAP1 DUP4 PUSH20 0xFFFFFFFFFFFFFFFFFFFFFFFFFFFFFFFFFFFFFFFF AND MUL OR SWAP1 SSTORE POP PUSH1 0xE0 DUP3 ADD MLOAD DUP2 PUSH1 0x9 ADD SSTORE PUSH2 0x100 DUP3 ADD MLOAD DUP2 PUSH1 0xA ADD SSTORE POP POP PUSH1 0x40 DUP3 ADD MLOAD DUP2 PUSH1 0xC ADD PUSH0 PUSH2 0x100 EXP DUP2 SLOAD DUP2 PUSH1 0xFF MUL NOT AND SWAP1 DUP4 ISZERO ISZERO MUL OR SWAP1 SSTORE POP PUSH1 0x60 DUP3 ADD MLOAD DUP2 PUSH1 0xC ADD PUSH1 0x1 PUSH2 0x100 EXP DUP2 SLOAD DUP2 PUSH1 0xFF MUL NOT AND SWAP1 DUP4 ISZERO ISZERO MUL OR SWAP1 SSTORE POP SWAP1 POP POP PUSH1 0x5 DUP4 SWAP1 DUP1 PUSH1 0x1 DUP2 SLOAD ADD DUP1 DUP3 SSTORE DUP1 SWAP2 POP POP PUSH1 0x1 SWAP1 SUB SWAP1 PUSH0 MSTORE PUSH1 0x20 PUSH0 KECCAK256 ADD PUSH0 SWAP1 SWAP2 SWAP1 SWAP2 SWAP1 SWAP2 POP SSTORE CALLER PUSH20 0xFFFFFFFFFFFFFFFFFFFFFFFFFFFFFFFFFFFFFFFF AND DUP4 PUSH32 0xCBBBCC1725193DFF50B4699B7D4BE5DFA0B8091AC6B9081400E3704FC8ED244C PUSH1 0x40 MLOAD PUSH1 0x40 MLOAD DUP1 SWAP2 SUB SWAP1 LOG3 POP POP POP POP JUMP JUMPDEST DUP1 PUSH0 PUSH20 0xFFFFFFFFFFFFFFFFFFFFFFFFFFFFFFFFFFFFFFFF AND PUSH1 0x2 PUSH0 DUP4 DUP2 MSTORE PUSH1 0x20 ADD SWAP1 DUP2 MSTORE PUSH1 0x20 ADD PUSH0 KECCAK256 PUSH1 0x1 ADD PUSH0 SWAP1 SLOAD SWAP1 PUSH2 0x100 EXP SWAP1 DIV PUSH20 0xFFFFFFFFFFFFFFFFFFFFFFFFFFFFFFFFFFFFFFFF AND PUSH20 0xFFFFFFFFFFFFFFFFFFFFFFFFFFFFFFFFFFFFFFFF AND SUB PUSH2 0x1A80 JUMPI PUSH1 0x40 MLOAD PUSH32 0x8C379A000000000000000000000000000000000000000000000000000000000 DUP2 MSTORE PUSH1 0x4 ADD PUSH2 0x1A77 SWAP1 PUSH2 0x3DAB JUMP JUMPDEST PUSH1 0x40 MLOAD DUP1 SWAP2 SUB SWAP1 REVERT JUMPDEST PUSH2 0x1A88 PUSH2 0x3212 JUMP JUMPDEST PUSH1 0x2 PUSH0 DUP4 DUP2 MSTORE PUSH1 0x20 ADD SWAP1 DUP2 MSTORE PUSH1 0x20 ADD PUSH0 KECCAK256 PUSH1 0x8 ADD PUSH0 SWAP1 SLOAD SWAP1 PUSH2 0x100 EXP SWAP1 DIV PUSH1 0xFF AND PUSH2 0x1AE8 JUMPI PUSH1 0x40 MLOAD PUSH32 0x8C379A000000000000000000000000000000000000000000000000000000000 DUP2 MSTORE PUSH1 0x4 ADD PUSH2 0x1ADF SWAP1 PUSH2 0x459E JUMP JUMPDEST PUSH1 0x40 MLOAD DUP1 SWAP2 SUB SWAP1 REVERT JUMPDEST PUSH1 0x2 PUSH0 DUP4 DUP2 MSTORE PUSH1 0x20 ADD SWAP1 DUP2 MSTORE PUSH1 0x20 ADD PUSH0 KECCAK256 PUSH1 0x8 ADD PUSH1 0x2 SWAP1 SLOAD SWAP1 PUSH2 0x100 EXP SWAP1 DIV PUSH20 0xFFFFFFFFFFFFFFFFFFFFFFFFFFFFFFFFFFFFFFFF AND PUSH20 0xFFFFFFFFFFFFFFFFFFFFFFFFFFFFFFFFFFFFFFFF AND CALLER PUSH20 0xFFFFFFFFFFFFFFFFFFFFFFFFFFFFFFFFFFFFFFFF AND EQ DUP1 PUSH2 0x1C7A JUMPI POP PUSH0 PUSH1 0x1 SWAP1 SLOAD SWAP1 PUSH2 0x100 EXP SWAP1 DIV PUSH20 0xFFFFFFFFFFFFFFFFFFFFFFFFFFFFFFFFFFFFFFFF AND PUSH20 0xFFFFFFFFFFFFFFFFFFFFFFFFFFFFFFFFFFFFFFFF AND PUSH4 0x91D14854 PUSH0 PUSH1 0x1 SWAP1 SLOAD SWAP1 PUSH2 0x100 EXP SWAP1 DIV PUSH20 0xFFFFFFFFFFFFFFFFFFFFFFFFFFFFFFFFFFFFFFFF AND PUSH20 0xFFFFFFFFFFFFFFFFFFFFFFFFFFFFFFFFFFFFFFFF AND PUSH4 0x75B238FC PUSH1 0x40 MLOAD DUP2 PUSH4 0xFFFFFFFF AND PUSH1 0xE0 SHL DUP2 MSTORE PUSH1 0x4 ADD PUSH1 0x20 PUSH1 0x40 MLOAD DUP1 DUP4 SUB DUP2 DUP7 GAS STATICCALL ISZERO DUP1 ISZERO PUSH2 0x1BF8 JUMPI RETURNDATASIZE PUSH0 DUP1 RETURNDATACOPY RETURNDATASIZE PUSH0 REVERT JUMPDEST POP POP POP POP PUSH1 0x40 MLOAD RETURNDATASIZE PUSH1 0x1F NOT PUSH1 0x1F DUP3 ADD AND DUP3 ADD DUP1 PUSH1 0x40 MSTORE POP DUP2 ADD SWAP1 PUSH2 0x1C1C SWAP2 SWAP1 PUSH2 0x3DFC JUMP JUMPDEST CALLER PUSH1 0x40 MLOAD DUP4 PUSH4 0xFFFFFFFF AND PUSH1 0xE0 SHL DUP2 MSTORE PUSH1 0x4 ADD PUSH2 0x1C3A SWAP3 SWAP2 SWAP1 PUSH2 0x3E36 JUMP JUMPDEST PUSH1 0x20 PUSH1 0x40 MLOAD DUP1 DUP4 SUB DUP2 DUP7 GAS STATICCALL ISZERO DUP1 ISZERO PUSH2 0x1C55 JUMPI RETURNDATASIZE PUSH0 DUP1 RETURNDATACOPY RETURNDATASIZE PUSH0 REVERT JUMPDEST POP POP POP POP PUSH1 0x40 MLOAD RETURNDATASIZE PUSH1 0x1F NOT PUSH1 0x1F DUP3 ADD AND DUP3 ADD DUP1 PUSH1 0x40 MSTORE POP DUP2 ADD SWAP1 PUSH2 0x1C79 SWAP2 SWAP1 PUSH2 0x3E87 JUMP JUMPDEST JUMPDEST PUSH2 0x1CB9 JUMPI PUSH1 0x40 MLOAD PUSH32 0x8C379A000000000000000000000000000000000000000000000000000000000 DUP2 MSTORE PUSH1 0x4 ADD PUSH2 0x1CB0 SWAP1 PUSH2 0x3EFC JUMP JUMPDEST PUSH1 0x40 MLOAD DUP1 SWAP2 SUB SWAP1 REVERT JUMPDEST PUSH0 PUSH1 0x2 PUSH0 DUP5 DUP2 MSTORE PUSH1 0x20 ADD SWAP1 DUP2 MSTORE PUSH1 0x20 ADD PUSH0 KECCAK256 PUSH1 0x8 ADD PUSH0 PUSH2 0x100 EXP DUP2 SLOAD DUP2 PUSH1 0xFF MUL NOT AND SWAP1 DUP4 ISZERO ISZERO MUL OR SWAP1 SSTORE POP PUSH0 PUSH1 0x2 PUSH0 DUP5 DUP2 MSTORE PUSH1 0x20 ADD SWAP1 DUP2 MSTORE PUSH1 0x20 ADD PUSH0 KECCAK256 PUSH1 0x8 ADD PUSH1 0x2 PUSH2 0x100 EXP DUP2 SLOAD DUP2 PUSH20 0xFFFFFFFFFFFFFFFFFFFFFFFFFFFFFFFFFFFFFFFF MUL NOT AND SWAP1 DUP4 PUSH20 0xFFFFFFFFFFFFFFFFFFFFFFFFFFFFFFFFFFFFFFFF AND MUL OR SWAP1 SSTORE POP TIMESTAMP PUSH1 0x2 PUSH0 DUP5 DUP2 MSTORE PUSH1 0x20 ADD SWAP1 DUP2 MSTORE PUSH1 0x20 ADD PUSH0 KECCAK256 PUSH1 0xA ADD DUP2 SWAP1 SSTORE POP DUP2 PUSH32 0x7371F9CFA7FACE3B4D28A038D95006B16E8CB594408EF3985257823E5C6F8FDD PUSH1 0x40 MLOAD PUSH1 0x40 MLOAD DUP1 SWAP2 SUB SWAP1 LOG2 POP POP JUMP JUMPDEST DUP2 PUSH0 PUSH20 0xFFFFFFFFFFFFFFFFFFFFFFFFFFFFFFFFFFFFFFFF AND PUSH1 0x2 PUSH0 DUP4 DUP2 MSTORE PUSH1 0x20 ADD SWAP1 DUP2 MSTORE PUSH1 0x20 ADD PUSH0 KECCAK256 PUSH1 0x1 ADD PUSH0 SWAP1 SLOAD SWAP1 PUSH2 0x100 EXP SWAP1 DIV PUSH20 0xFFFFFFFFFFFFFFFFFFFFFFFFFFFFFFFFFFFFFFFF AND PUSH20 0xFFFFFFFFFFFFFFFFFFFFFFFFFFFFFFFFFFFFFFFF AND SUB PUSH2 0x1E23 JUMPI PUSH1 0x40 MLOAD PUSH32 0x8C379A000000000000000000000000000000000000000000000000000000000 DUP2 MSTORE PUSH1 0x4 ADD PUSH2 0x1E1A SWAP1 PUSH2 0x3DAB JUMP JUMPDEST PUSH1 0x40 MLOAD DUP1 SWAP2 SUB SWAP1 REVERT JUMPDEST DUP3 CALLER PUSH20 0xFFFFFFFFFFFFFFFFFFFFFFFFFFFFFFFFFFFFFFFF AND PUSH1 0x2 PUSH0 DUP4 DUP2 MSTORE PUSH1 0x20 ADD SWAP1 DUP2 MSTORE PUSH1 0x20 ADD PUSH0 KECCAK256 PUSH1 0x1 ADD PUSH0 SWAP1 SLOAD SWAP1 PUSH2 0x100 EXP SWAP1 DIV PUSH20 0xFFFFFFFFFFFFFFFFFFFFFFFFFFFFFFFFFFFFFFFF AND PUSH20 0xFFFFFFFFFFFFFFFFFFFFFFFFFFFFFFFFFFFFFFFF AND EQ DUP1 PUSH2 0x1FB5 JUMPI POP PUSH0 PUSH1 0x1 SWAP1 SLOAD SWAP1 PUSH2 0x100 EXP SWAP1 DIV PUSH20 0xFFFFFFFFFFFFFFFFFFFFFFFFFFFFFFFFFFFFFFFF AND PUSH20 0xFFFFFFFFFFFFFFFFFFFFFFFFFFFFFFFFFFFFFFFF AND PUSH4 0x91D14854 PUSH0 PUSH1 0x1 SWAP1 SLOAD SWAP1 PUSH2 0x100 EXP SWAP1 DIV PUSH20 0xFFFFFFFFFFFFFFFFFFFFFFFFFFFFFFFFFFFFFFFF AND PUSH20 0xFFFFFFFFFFFFFFFFFFFFFFFFFFFFFFFFFFFFFFFF AND PUSH4 0x98E4ABB5 PUSH1 0x40 MLOAD DUP2 PUSH4 0xFFFFFFFF AND PUSH1 0xE0 SHL DUP2 MSTORE PUSH1 0x4 ADD PUSH1 0x20 PUSH1 0x40 MLOAD DUP1 DUP4 SUB DUP2 DUP7 GAS STATICCALL ISZERO DUP1 ISZERO PUSH2 0x1F33 JUMPI RETURNDATASIZE PUSH0 DUP1 RETURNDATACOPY RETURNDATASIZE PUSH0 REVERT JUMPDEST POP POP POP POP PUSH1 0x40 MLOAD RETURNDATASIZE PUSH1 0x1F NOT PUSH1 0x1F DUP3 ADD AND DUP3 ADD DUP1 PUSH1 0x40 MSTORE POP DUP2 ADD SWAP1 PUSH2 0x1F57 SWAP2 SWAP1 PUSH2 0x3DFC JUMP JUMPDEST CALLER PUSH1 0x40 MLOAD DUP4 PUSH4 0xFFFFFFFF AND PUSH1 0xE0 SHL DUP2 MSTORE PUSH1 0x4 ADD PUSH2 0x1F75 SWAP3 SWAP2 SWAP1 PUSH2 0x3E36 JUMP JUMPDEST PUSH1 0x20 PUSH1 0x40 MLOAD DUP1 DUP4 SUB DUP2 DUP7 GAS STATICCALL ISZERO DUP1 ISZERO PUSH2 0x1F90 JUMPI RETURNDATASIZE PUSH0 DUP1 RETURNDATACOPY RETURNDATASIZE PUSH0 REVERT JUMPDEST POP POP POP POP PUSH1 0x40 MLOAD RETURNDATASIZE PUSH1 0x1F NOT PUSH1 0x1F DUP3 ADD AND DUP3 ADD DUP1 PUSH1 0x40 MSTORE POP DUP2 ADD SWAP1 PUSH2 0x1FB4 SWAP2 SWAP1 PUSH2 0x3E87 JUMP JUMPDEST JUMPDEST PUSH2 0x1FF4 JUMPI PUSH1 0x40 MLOAD PUSH32 0x8C379A000000000000000000000000000000000000000000000000000000000 DUP2 MSTORE PUSH1 0x4 ADD PUSH2 0x1FEB SWAP1 PUSH2 0x4091 JUMP JUMPDEST PUSH1 0x40 MLOAD DUP1 SWAP2 SUB SWAP1 REVERT JUMPDEST PUSH2 0x1FFC PUSH2 0x3212 JUMP JUMPDEST PUSH0 PUSH20 0xFFFFFFFFFFFFFFFFFFFFFFFFFFFFFFFFFFFFFFFF AND DUP4 PUSH20 0xFFFFFFFFFFFFFFFFFFFFFFFFFFFFFFFFFFFFFFFF AND SUB PUSH2 0x206A JUMPI PUSH1 0x40 MLOAD PUSH32 0x8C379A000000000000000000000000000000000000000000000000000000000 DUP2 MSTORE PUSH1 0x4 ADD PUSH2 0x2061 SWAP1 PUSH2 0x4606 JUMP JUMPDEST PUSH1 0x40 MLOAD DUP1 SWAP2 SUB SWAP1 REVERT JUMPDEST PUSH0 PUSH1 0x1 SWAP1 SLOAD SWAP1 PUSH2 0x100 EXP SWAP1 DIV PUSH20 0xFFFFFFFFFFFFFFFFFFFFFFFFFFFFFFFFFFFFFFFF AND PUSH20 0xFFFFFFFFFFFFFFFFFFFFFFFFFFFFFFFFFFFFFFFF AND PUSH4 0x91D14854 PUSH0 PUSH1 0x1 SWAP1 SLOAD SWAP1 PUSH2 0x100 EXP SWAP1 DIV PUSH20 0xFFFFFFFFFFFFFFFFFFFFFFFFFFFFFFFFFFFFFFFF AND PUSH20 0xFFFFFFFFFFFFFFFFFFFFFFFFFFFFFFFFFFFFFFFF AND PUSH4 0x98E4ABB5 PUSH1 0x40 MLOAD DUP2 PUSH4 0xFFFFFFFF AND PUSH1 0xE0 SHL DUP2 MSTORE PUSH1 0x4 ADD PUSH1 0x20 PUSH1 0x40 MLOAD DUP1 DUP4 SUB DUP2 DUP7 GAS STATICCALL ISZERO DUP1 ISZERO PUSH2 0x2111 JUMPI RETURNDATASIZE PUSH0 DUP1 RETURNDATACOPY RETURNDATASIZE PUSH0 REVERT JUMPDEST POP POP POP POP PUSH1 0x40 MLOAD RETURNDATASIZE PUSH1 0x1F NOT PUSH1 0x1F DUP3 ADD AND DUP3 ADD DUP1 PUSH1 0x40 MSTORE POP DUP2 ADD SWAP1 PUSH2 0x2135 SWAP2 SWAP1 PUSH2 0x3DFC JUMP JUMPDEST DUP6 PUSH1 0x40 MLOAD DUP4 PUSH4 0xFFFFFFFF AND PUSH1 0xE0 SHL DUP2 MSTORE PUSH1 0x4 ADD PUSH2 0x2153 SWAP3 SWAP2 SWAP1 PUSH2 0x3E36 JUMP JUMPDEST PUSH1 0x20 PUSH1 0x40 MLOAD DUP1 DUP4 SUB DUP2 DUP7 GAS STATICCALL ISZERO DUP1 ISZERO PUSH2 0x216E JUMPI RETURNDATASIZE PUSH0 DUP1 RETURNDATACOPY RETURNDATASIZE PUSH0 REVERT JUMPDEST POP POP POP POP PUSH1 0x40 MLOAD RETURNDATASIZE PUSH1 0x1F NOT PUSH1 0x1F DUP3 ADD AND DUP3 ADD DUP1 PUSH1 0x40 MSTORE POP DUP2 ADD SWAP1 PUSH2 0x2192 SWAP2 SWAP1 PUSH2 0x3E87 JUMP JUMPDEST PUSH2 0x21D1 JUMPI PUSH1 0x40 MLOAD PUSH32 0x8C379A000000000000000000000000000000000000000000000000000000000 DUP2 MSTORE PUSH1 0x4 ADD PUSH2 0x21C8 SWAP1 PUSH2 0x4694 JUMP JUMPDEST PUSH1 0x40 MLOAD DUP1 SWAP2 SUB SWAP1 REVERT JUMPDEST PUSH0 PUSH1 0x2 PUSH0 DUP7 DUP2 MSTORE PUSH1 0x20 ADD SWAP1 DUP2 MSTORE PUSH1 0x20 ADD PUSH0 KECCAK256 PUSH1 0x1 ADD PUSH0 SWAP1 SLOAD SWAP1 PUSH2 0x100 EXP SWAP1 DIV PUSH20 0xFFFFFFFFFFFFFFFFFFFFFFFFFFFFFFFFFFFFFFFF AND SWAP1 POP DUP4 PUSH1 0x2 PUSH0 DUP8 DUP2 MSTORE PUSH1 0x20 ADD SWAP1 DUP2 MSTORE PUSH1 0x20 ADD PUSH0 KECCAK256 PUSH1 0x1 ADD PUSH0 PUSH2 0x100 EXP DUP2 SLOAD DUP2 PUSH20 0xFFFFFFFFFFFFFFFFFFFFFFFFFFFFFFFFFFFFFFFF MUL NOT AND SWAP1 DUP4 PUSH20 0xFFFFFFFFFFFFFFFFFFFFFFFFFFFFFFFFFFFFFFFF AND MUL OR SWAP1 SSTORE POP TIMESTAMP PUSH1 0x2 PUSH0 DUP8 DUP2 MSTORE PUSH1 0x20 ADD SWAP1 DUP2 MSTORE PUSH1 0x20 ADD PUSH0 KECCAK256 PUSH1 0xA ADD DUP2 SWAP1 SSTORE POP PUSH2 0x227D DUP6 DUP3 PUSH2 0x333D JUMP JUMPDEST PUSH1 0x4 PUSH0 DUP6 PUSH20 0xFFFFFFFFFFFFFFFFFFFFFFFFFFFFFFFFFFFFFFFF AND PUSH20 0xFFFFFFFFFFFFFFFFFFFFFFFFFFFFFFFFFFFFFFFF AND DUP2 MSTORE PUSH1 0x20 ADD SWAP1 DUP2 MSTORE PUSH1 0x20 ADD PUSH0 KECCAK256 DUP6 SWAP1 DUP1 PUSH1 0x1 DUP2 SLOAD ADD DUP1 DUP3 SSTORE DUP1 SWAP2 POP POP PUSH1 0x1 SWAP1 SUB SWAP1 PUSH0 MSTORE PUSH1 0x20 PUSH0 KECCAK256 ADD PUSH0 SWAP1 SWAP2 SWAP1 SWAP2 SWAP1 SWAP2 POP SSTORE DUP4 PUSH20 0xFFFFFFFFFFFFFFFFFFFFFFFFFFFFFFFFFFFFFFFF AND DUP2 PUSH20 0xFFFFFFFFFFFFFFFFFFFFFFFFFFFFFFFFFFFFFFFF AND DUP7 PUSH32 0xA54354750C707642A038F4AC683FAA206A3649A6C35A44F9640D34D20578B15B PUSH1 0x40 MLOAD PUSH1 0x40 MLOAD DUP1 SWAP2 SUB SWAP1 LOG4 POP POP POP POP POP JUMP JUMPDEST PUSH1 0x60 PUSH1 0x5 DUP1 SLOAD DUP1 PUSH1 0x20 MUL PUSH1 0x20 ADD PUSH1 0x40 MLOAD SWAP1 DUP2 ADD PUSH1 0x40 MSTORE DUP1 SWAP3 SWAP2 SWAP1 DUP2 DUP2 MSTORE PUSH1 0x20 ADD DUP3 DUP1 SLOAD DUP1 ISZERO PUSH2 0x238C JUMPI PUSH1 0x20 MUL DUP3 ADD SWAP2 SWAP1 PUSH0 MSTORE PUSH1 0x20 PUSH0 KECCAK256 SWAP1 JUMPDEST DUP2 SLOAD DUP2 MSTORE PUSH1 0x20 ADD SWAP1 PUSH1 0x1 ADD SWAP1 DUP1 DUP4 GT PUSH2 0x2378 JUMPI JUMPDEST POP POP POP POP POP SWAP1 POP SWAP1 JUMP JUMPDEST PUSH0 PUSH1 0x1 SWAP1 SLOAD SWAP1 PUSH2 0x100 EXP SWAP1 DIV PUSH20 0xFFFFFFFFFFFFFFFFFFFFFFFFFFFFFFFFFFFFFFFF AND PUSH20 0xFFFFFFFFFFFFFFFFFFFFFFFFFFFFFFFFFFFFFFFF AND PUSH4 0x91D14854 PUSH0 PUSH1 0x1 SWAP1 SLOAD SWAP1 PUSH2 0x100 EXP SWAP1 DIV PUSH20 0xFFFFFFFFFFFFFFFFFFFFFFFFFFFFFFFFFFFFFFFF AND PUSH20 0xFFFFFFFFFFFFFFFFFFFFFFFFFFFFFFFFFFFFFFFF AND PUSH4 0x75B238FC PUSH1 0x40 MLOAD DUP2 PUSH4 0xFFFFFFFF AND PUSH1 0xE0 SHL DUP2 MSTORE PUSH1 0x4 ADD PUSH1 0x20 PUSH1 0x40 MLOAD DUP1 DUP4 SUB DUP2 DUP7 GAS STATICCALL ISZERO DUP1 ISZERO PUSH2 0x243D JUMPI RETURNDATASIZE PUSH0 DUP1 RETURNDATACOPY RETURNDATASIZE PUSH0 REVERT JUMPDEST POP POP POP POP PUSH1 0x40 MLOAD RETURNDATASIZE PUSH1 0x1F NOT PUSH1 0x1F DUP3 ADD AND DUP3 ADD DUP1 PUSH1 0x40 MSTORE POP DUP2 ADD SWAP1 PUSH2 0x2461 SWAP2 SWAP1 PUSH2 0x3DFC JUMP JUMPDEST CALLER PUSH1 0x40 MLOAD DUP4 PUSH4 0xFFFFFFFF AND PUSH1 0xE0 SHL DUP2 MSTORE PUSH1 0x4 ADD PUSH2 0x247F SWAP3 SWAP2 SWAP1 PUSH2 0x3E36 JUMP JUMPDEST PUSH1 0x20 PUSH1 0x40 MLOAD DUP1 DUP4 SUB DUP2 DUP7 GAS STATICCALL ISZERO DUP1 ISZERO PUSH2 0x249A JUMPI RETURNDATASIZE PUSH0 DUP1 RETURNDATACOPY RETURNDATASIZE PUSH0 REVERT JUMPDEST POP POP POP POP PUSH1 0x40 MLOAD RETURNDATASIZE PUSH1 0x1F NOT PUSH1 0x1F DUP3 ADD AND DUP3 ADD DUP1 PUSH1 0x40 MSTORE POP DUP2 ADD SWAP1 PUSH2 0x24BE SWAP2 SWAP1 PUSH2 0x3E87 JUMP JUMPDEST PUSH2 0x24FD JUMPI PUSH1 0x40 MLOAD PUSH32 0x8C379A000000000000000000000000000000000000000000000000000000000 DUP2 MSTORE PUSH1 0x4 ADD PUSH2 0x24F4 SWAP1 PUSH2 0x3FCC JUMP JUMPDEST PUSH1 0x40 MLOAD DUP1 SWAP2 SUB SWAP1 REVERT JUMPDEST PUSH2 0x2505 PUSH2 0x3212 JUMP JUMPDEST PUSH0 PUSH1 0x3 PUSH0 DUP4 DUP2 MSTORE PUSH1 0x20 ADD SWAP1 DUP2 MSTORE PUSH1 0x20 ADD PUSH0 KECCAK256 SWAP1 POP DUP1 PUSH1 0xC ADD PUSH0 SWAP1 SLOAD SWAP1 PUSH2 0x100 EXP SWAP1 DIV PUSH1 0xFF AND PUSH2 0x2569 JUMPI PUSH1 0x40 MLOAD PUSH32 0x8C379A000000000000000000000000000000000000000000000000000000000 DUP2 MSTORE PUSH1 0x4 ADD PUSH2 0x2560 SWAP1 PUSH2 0x46FC JUMP JUMPDEST PUSH1 0x40 MLOAD DUP1 SWAP2 SUB SWAP1 REVERT JUMPDEST PUSH0 DUP2 PUSH1 0xC ADD PUSH0 PUSH2 0x100 EXP DUP2 SLOAD DUP2 PUSH1 0xFF MUL NOT AND SWAP1 DUP4 ISZERO ISZERO MUL OR SWAP1 SSTORE POP PUSH1 0x1 DUP2 PUSH1 0xC ADD PUSH1 0x1 PUSH2 0x100 EXP DUP2 SLOAD DUP2 PUSH1 0xFF MUL NOT AND SWAP1 DUP4 ISZERO ISZERO MUL OR SWAP1 SSTORE POP DUP1 PUSH1 0x1 ADD PUSH1 0x2 PUSH0 DUP5 DUP2 MSTORE PUSH1 0x20 ADD SWAP1 DUP2 MSTORE PUSH1 0x20 ADD PUSH0 KECCAK256 PUSH0 DUP3 ADD SLOAD DUP2 PUSH0 ADD SSTORE PUSH1 0x1 DUP3 ADD PUSH0 SWAP1 SLOAD SWAP1 PUSH2 0x100 EXP SWAP1 DIV PUSH20 0xFFFFFFFFFFFFFFFFFFFFFFFFFFFFFFFFFFFFFFFF AND DUP2 PUSH1 0x1 ADD PUSH0 PUSH2 0x100 EXP DUP2 SLOAD DUP2 PUSH20 0xFFFFFFFFFFFFFFFFFFFFFFFFFFFFFFFFFFFFFFFF MUL NOT AND SWAP1 DUP4 PUSH20 0xFFFFFFFFFFFFFFFFFFFFFFFFFFFFFFFFFFFFFFFF AND MUL OR SWAP1 SSTORE POP PUSH1 0x2 DUP3 ADD DUP2 PUSH1 0x2 ADD PUSH0 DUP3 ADD DUP2 PUSH0 ADD SWAP1 DUP2 PUSH2 0x263D SWAP2 SWAP1 PUSH2 0x472F JUMP JUMPDEST POP PUSH1 0x1 DUP3 ADD DUP2 PUSH1 0x1 ADD SWAP1 DUP2 PUSH2 0x2652 SWAP2 SWAP1 PUSH2 0x472F JUMP JUMPDEST POP PUSH1 0x2 DUP3 ADD DUP2 PUSH1 0x2 ADD SWAP1 DUP2 PUSH2 0x2667 SWAP2 SWAP1 PUSH2 0x472F JUMP JUMPDEST POP PUSH1 0x3 DUP3 ADD SLOAD DUP2 PUSH1 0x3 ADD SSTORE PUSH1 0x4 DUP3 ADD SLOAD DUP2 PUSH1 0x4 ADD SSTORE POP POP PUSH1 0x7 DUP3 ADD SLOAD DUP2 PUSH1 0x7 ADD SSTORE PUSH1 0x8 DUP3 ADD PUSH0 SWAP1 SLOAD SWAP1 PUSH2 0x100 EXP SWAP1 DIV PUSH1 0xFF AND DUP2 PUSH1 0x8 ADD PUSH0 PUSH2 0x100 EXP DUP2 SLOAD DUP2 PUSH1 0xFF MUL NOT AND SWAP1 DUP4 ISZERO ISZERO MUL OR SWAP1 SSTORE POP PUSH1 0x8 DUP3 ADD PUSH1 0x1 SWAP1 SLOAD SWAP1 PUSH2 0x100 EXP SWAP1 DIV PUSH1 0xFF AND DUP2 PUSH1 0x8 ADD PUSH1 0x1 PUSH2 0x100 EXP DUP2 SLOAD DUP2 PUSH1 0xFF MUL NOT AND SWAP1 DUP4 ISZERO ISZERO MUL OR SWAP1 SSTORE POP PUSH1 0x8 DUP3 ADD PUSH1 0x2 SWAP1 SLOAD SWAP1 PUSH2 0x100 EXP SWAP1 DIV PUSH20 0xFFFFFFFFFFFFFFFFFFFFFFFFFFFFFFFFFFFFFFFF AND DUP2 PUSH1 0x8 ADD PUSH1 0x2 PUSH2 0x100 EXP DUP2 SLOAD DUP2 PUSH20 0xFFFFFFFFFFFFFFFFFFFFFFFFFFFFFFFFFFFFFFFF MUL NOT AND SWAP1 DUP4 PUSH20 0xFFFFFFFFFFFFFFFFFFFFFFFFFFFFFFFFFFFFFFFF AND MUL OR SWAP1 SSTORE POP PUSH1 0x9 DUP3 ADD SLOAD DUP2 PUSH1 0x9 ADD SSTORE PUSH1 0xA DUP3 ADD SLOAD DUP2 PUSH1 0xA ADD SSTORE SWAP1 POP POP PUSH1 0x4 PUSH0 DUP3 PUSH0 ADD PUSH0 SWAP1 SLOAD SWAP1 PUSH2 0x100 EXP SWAP1 DIV PUSH20 0xFFFFFFFFFFFFFFFFFFFFFFFFFFFFFFFFFFFFFFFF AND PUSH20 0xFFFFFFFFFFFFFFFFFFFFFFFFFFFFFFFFFFFFFFFF AND PUSH20 0xFFFFFFFFFFFFFFFFFFFFFFFFFFFFFFFFFFFFFFFF AND DUP2 MSTORE PUSH1 0x20 ADD SWAP1 DUP2 MSTORE PUSH1 0x20 ADD PUSH0 KECCAK256 DUP3 SWAP1 DUP1 PUSH1 0x1 DUP2 SLOAD ADD DUP1 DUP3 SSTORE DUP1 SWAP2 POP POP PUSH1 0x1 SWAP1 SUB SWAP1 PUSH0 MSTORE PUSH1 0x20 PUSH0 KECCAK256 ADD PUSH0 SWAP1 SWAP2 SWAP1 SWAP2 SWAP1 SWAP2 POP SSTORE PUSH2 0x27EA DUP3 PUSH2 0x343A JUMP JUMPDEST DUP2 DUP3 PUSH32 0x9F590C35D933762074155FF5A113FC98B6F567020152980D42ABC18FBFF30E93 PUSH1 0x40 MLOAD PUSH1 0x40 MLOAD DUP1 SWAP2 SUB SWAP1 LOG3 POP POP JUMP JUMPDEST PUSH1 0x5 DUP2 DUP2 SLOAD DUP2 LT PUSH2 0x282B JUMPI PUSH0 DUP1 REVERT JUMPDEST SWAP1 PUSH0 MSTORE PUSH1 0x20 PUSH0 KECCAK256 ADD PUSH0 SWAP2 POP SWAP1 POP SLOAD DUP2 JUMP JUMPDEST DUP1 PUSH0 PUSH20 0xFFFFFFFFFFFFFFFFFFFFFFFFFFFFFFFFFFFFFFFF AND PUSH1 0x2 PUSH0 DUP4 DUP2 MSTORE PUSH1 0x20 ADD SWAP1 DUP2 MSTORE PUSH1 0x20 ADD PUSH0 KECCAK256 PUSH1 0x1 ADD PUSH0 SWAP1 SLOAD SWAP1 PUSH2 0x100 EXP SWAP1 DIV PUSH20 0xFFFFFFFFFFFFFFFFFFFFFFFFFFFFFFFFFFFFFFFF AND PUSH20 0xFFFFFFFFFFFFFFFFFFFFFFFFFFFFFFFFFFFFFFFF AND SUB PUSH2 0x28DE JUMPI PUSH1 0x40 MLOAD PUSH32 0x8C379A000000000000000000000000000000000000000000000000000000000 DUP2 MSTORE PUSH1 0x4 ADD PUSH2 0x28D5 SWAP1 PUSH2 0x3DAB JUMP JUMPDEST PUSH1 0x40 MLOAD DUP1 SWAP2 SUB SWAP1 REVERT JUMPDEST PUSH0 PUSH1 0x1 SWAP1 SLOAD SWAP1 PUSH2 0x100 EXP SWAP1 DIV PUSH20 0xFFFFFFFFFFFFFFFFFFFFFFFFFFFFFFFFFFFFFFFF AND PUSH20 0xFFFFFFFFFFFFFFFFFFFFFFFFFFFFFFFFFFFFFFFF AND PUSH4 0x91D14854 PUSH0 PUSH1 0x1 SWAP1 SLOAD SWAP1 PUSH2 0x100 EXP SWAP1 DIV PUSH20 0xFFFFFFFFFFFFFFFFFFFFFFFFFFFFFFFFFFFFFFFF AND PUSH20 0xFFFFFFFFFFFFFFFFFFFFFFFFFFFFFFFFFFFFFFFF AND PUSH4 0x78988EBD PUSH1 0x40 MLOAD DUP2 PUSH4 0xFFFFFFFF AND PUSH1 0xE0 SHL DUP2 MSTORE PUSH1 0x4 ADD PUSH1 0x20 PUSH1 0x40 MLOAD DUP1 DUP4 SUB DUP2 DUP7 GAS STATICCALL ISZERO DUP1 ISZERO PUSH2 0x2985 JUMPI RETURNDATASIZE PUSH0 DUP1 RETURNDATACOPY RETURNDATASIZE PUSH0 REVERT JUMPDEST POP POP POP POP PUSH1 0x40 MLOAD RETURNDATASIZE PUSH1 0x1F NOT PUSH1 0x1F DUP3 ADD AND DUP3 ADD DUP1 PUSH1 0x40 MSTORE POP DUP2 ADD SWAP1 PUSH2 0x29A9 SWAP2 SWAP1 PUSH2 0x3DFC JUMP JUMPDEST CALLER PUSH1 0x40 MLOAD DUP4 PUSH4 0xFFFFFFFF AND PUSH1 0xE0 SHL DUP2 MSTORE PUSH1 0x4 ADD PUSH2 0x29C7 SWAP3 SWAP2 SWAP1 PUSH2 0x3E36 JUMP JUMPDEST PUSH1 0x20 PUSH1 0x40 MLOAD DUP1 DUP4 SUB DUP2 DUP7 GAS STATICCALL ISZERO DUP1 ISZERO PUSH2 0x29E2 JUMPI RETURNDATASIZE PUSH0 DUP1 RETURNDATACOPY RETURNDATASIZE PUSH0 REVERT JUMPDEST POP POP POP POP PUSH1 0x40 MLOAD RETURNDATASIZE PUSH1 0x1F NOT PUSH1 0x1F DUP3 ADD AND DUP3 ADD DUP1 PUSH1 0x40 MSTORE POP DUP2 ADD SWAP1 PUSH2 0x2A06 SWAP2 SWAP1 PUSH2 0x3E87 JUMP JUMPDEST PUSH2 0x2A45 JUMPI PUSH1 0x40 MLOAD PUSH32 0x8C379A000000000000000000000000000000000000000000000000000000000 DUP2 MSTORE PUSH1 0x4 ADD PUSH2 0x2A3C SWAP1 PUSH2 0x485E JUMP JUMPDEST PUSH1 0x40 MLOAD DUP1 SWAP2 SUB SWAP1 REVERT JUMPDEST PUSH2 0x2A4D PUSH2 0x3212 JUMP JUMPDEST PUSH1 0x2 PUSH0 DUP4 DUP2 MSTORE PUSH1 0x20 ADD SWAP1 DUP2 MSTORE PUSH1 0x20 ADD PUSH0 KECCAK256 PUSH1 0x8 ADD PUSH0 SWAP1 SLOAD SWAP1 PUSH2 0x100 EXP SWAP1 DIV PUSH1 0xFF AND ISZERO PUSH2 0x2AAE JUMPI PUSH1 0x40 MLOAD PUSH32 0x8C379A000000000000000000000000000000000000000000000000000000000 DUP2 MSTORE PUSH1 0x4 ADD PUSH2 0x2AA5 SWAP1 PUSH2 0x48C6 JUMP JUMPDEST PUSH1 0x40 MLOAD DUP1 SWAP2 SUB SWAP1 REVERT JUMPDEST PUSH1 0x1 PUSH1 0x2 PUSH0 DUP5 DUP2 MSTORE PUSH1 0x20 ADD SWAP1 DUP2 MSTORE PUSH1 0x20 ADD PUSH0 KECCAK256 PUSH1 0x8 ADD PUSH0 PUSH2 0x100 EXP DUP2 SLOAD DUP2 PUSH1 0xFF MUL NOT AND SWAP1 DUP4 ISZERO ISZERO MUL OR SWAP1 SSTORE POP CALLER PUSH1 0x2 PUSH0 DUP5 DUP2 MSTORE PUSH1 0x20 ADD SWAP1 DUP2 MSTORE PUSH1 0x20 ADD PUSH0 KECCAK256 PUSH1 0x8 ADD PUSH1 0x2 PUSH2 0x100 EXP DUP2 SLOAD DUP2 PUSH20 0xFFFFFFFFFFFFFFFFFFFFFFFFFFFFFFFFFFFFFFFF MUL NOT AND SWAP1 DUP4 PUSH20 0xFFFFFFFFFFFFFFFFFFFFFFFFFFFFFFFFFFFFFFFF AND MUL OR SWAP1 SSTORE POP TIMESTAMP PUSH1 0x2 PUSH0 DUP5 DUP2 MSTORE PUSH1 0x20 ADD SWAP1 DUP2 MSTORE PUSH1 0x20 ADD PUSH0 KECCAK256 PUSH1 0xA ADD DUP2 SWAP1 SSTORE POP CALLER PUSH20 0xFFFFFFFFFFFFFFFFFFFFFFFFFFFFFFFFFFFFFFFF AND DUP3 PUSH32 0x707376974F27963CD1C675D4DD78FA5360604FDB7255FB2918395D001182C9DC PUSH1 0x40 MLOAD PUSH1 0x40 MLOAD DUP1 SWAP2 SUB SWAP1 LOG3 POP POP JUMP JUMPDEST PUSH1 0x60 PUSH1 0x4 PUSH0 DUP4 PUSH20 0xFFFFFFFFFFFFFFFFFFFFFFFFFFFFFFFFFFFFFFFF AND PUSH20 0xFFFFFFFFFFFFFFFFFFFFFFFFFFFFFFFFFFFFFFFF AND DUP2 MSTORE PUSH1 0x20 ADD SWAP1 DUP2 MSTORE PUSH1 0x20 ADD PUSH0 KECCAK256 DUP1 SLOAD DUP1 PUSH1 0x20 MUL PUSH1 0x20 ADD PUSH1 0x40 MLOAD SWAP1 DUP2 ADD PUSH1 0x40 MSTORE DUP1 SWAP3 SWAP2 SWAP1 DUP2 DUP2 MSTORE PUSH1 0x20 ADD DUP3 DUP1 SLOAD DUP1 ISZERO PUSH2 0x2C15 JUMPI PUSH1 0x20 MUL DUP3 ADD SWAP2 SWAP1 PUSH0 MSTORE PUSH1 0x20 PUSH0 KECCAK256 SWAP1 JUMPDEST DUP2 SLOAD DUP2 MSTORE PUSH1 0x20 ADD SWAP1 PUSH1 0x1 ADD SWAP1 DUP1 DUP4 GT PUSH2 0x2C01 JUMPI JUMPDEST POP POP POP POP POP SWAP1 POP SWAP2 SWAP1 POP JUMP JUMPDEST PUSH0 PUSH1 0x1 SWAP1 SLOAD SWAP1 PUSH2 0x100 EXP SWAP1 DIV PUSH20 0xFFFFFFFFFFFFFFFFFFFFFFFFFFFFFFFFFFFFFFFF AND PUSH20 0xFFFFFFFFFFFFFFFFFFFFFFFFFFFFFFFFFFFFFFFF AND PUSH4 0x91D14854 PUSH0 PUSH1 0x1 SWAP1 SLOAD SWAP1 PUSH2 0x100 EXP SWAP1 DIV PUSH20 0xFFFFFFFFFFFFFFFFFFFFFFFFFFFFFFFFFFFFFFFF AND PUSH20 0xFFFFFFFFFFFFFFFFFFFFFFFFFFFFFFFFFFFFFFFF AND PUSH4 0x75B238FC PUSH1 0x40 MLOAD DUP2 PUSH4 0xFFFFFFFF AND PUSH1 0xE0 SHL DUP2 MSTORE PUSH1 0x4 ADD PUSH1 0x20 PUSH1 0x40 MLOAD DUP1 DUP4 SUB DUP2 DUP7 GAS STATICCALL ISZERO DUP1 ISZERO PUSH2 0x2CC8 JUMPI RETURNDATASIZE PUSH0 DUP1 RETURNDATACOPY RETURNDATASIZE PUSH0 REVERT JUMPDEST POP POP POP POP PUSH1 0x40 MLOAD RETURNDATASIZE PUSH1 0x1F NOT PUSH1 0x1F DUP3 ADD AND DUP3 ADD DUP1 PUSH1 0x40 MSTORE POP DUP2 ADD SWAP1 PUSH2 0x2CEC SWAP2 SWAP1 PUSH2 0x3DFC JUMP JUMPDEST CALLER PUSH1 0x40 MLOAD DUP4 PUSH4 0xFFFFFFFF AND PUSH1 0xE0 SHL DUP2 MSTORE PUSH1 0x4 ADD PUSH2 0x2D0A SWAP3 SWAP2 SWAP1 PUSH2 0x3E36 JUMP JUMPDEST PUSH1 0x20 PUSH1 0x40 MLOAD DUP1 DUP4 SUB DUP2 DUP7 GAS STATICCALL ISZERO DUP1 ISZERO PUSH2 0x2D25 JUMPI RETURNDATASIZE PUSH0 DUP1 RETURNDATACOPY RETURNDATASIZE PUSH0 REVERT JUMPDEST POP POP POP POP PUSH1 0x40 MLOAD RETURNDATASIZE PUSH1 0x1F NOT PUSH1 0x1F DUP3 ADD AND DUP3 ADD DUP1 PUSH1 0x40 MSTORE POP DUP2 ADD SWAP1 PUSH2 0x2D49 SWAP2 SWAP1 PUSH2 0x3E87 JUMP JUMPDEST PUSH2 0x2D88 JUMPI PUSH1 0x40 MLOAD PUSH32 0x8C379A000000000000000000000000000000000000000000000000000000000 DUP2 MSTORE PUSH1 0x4 ADD PUSH2 0x2D7F SWAP1 PUSH2 0x3FCC JUMP JUMPDEST PUSH1 0x40 MLOAD DUP1 SWAP2 SUB SWAP1 REVERT JUMPDEST PUSH2 0x2D90 PUSH2 0x3212 JUMP JUMPDEST PUSH0 PUSH1 0x3 PUSH0 DUP4 DUP2 MSTORE PUSH1 0x20 ADD SWAP1 DUP2 MSTORE PUSH1 0x20 ADD PUSH0 KECCAK256 SWAP1 POP DUP1 PUSH1 0xC ADD PUSH0 SWAP1 SLOAD SWAP1 PUSH2 0x100 EXP SWAP1 DIV PUSH1 0xFF AND PUSH2 0x2DF4 JUMPI PUSH1 0x40 MLOAD PUSH32 0x8C379A000000000000000000000000000000000000000000000000000000000 DUP2 MSTORE PUSH1 0x4 ADD PUSH2 0x2DEB SWAP1 PUSH2 0x46FC JUMP JUMPDEST PUSH1 0x40 MLOAD DUP1 SWAP2 SUB SWAP1 REVERT JUMPDEST PUSH0 DUP2 PUSH1 0xC ADD PUSH0 PUSH2 0x100 EXP DUP2 SLOAD DUP2 PUSH1 0xFF MUL NOT AND SWAP1 DUP4 ISZERO ISZERO MUL OR SWAP1 SSTORE POP PUSH0 DUP2 PUSH1 0xC ADD PUSH1 0x1 PUSH2 0x100 EXP DUP2 SLOAD DUP2 PUSH1 0xFF MUL NOT AND SWAP1 DUP4 ISZERO ISZERO MUL OR SWAP1 SSTORE POP PUSH2 0x2E34 DUP3 PUSH2 0x343A JUMP JUMPDEST DUP2 PUSH32 0xFC16A62ACC42F1401E209C71F8BB430A6F13AB2CF2B6B9D9F0090F44B57314AA PUSH1 0x40 MLOAD PUSH1 0x40 MLOAD DUP1 SWAP2 SUB SWAP1 LOG2 POP POP JUMP JUMPDEST PUSH2 0x2E6D PUSH2 0x354B JUMP JUMPDEST DUP2 PUSH0 PUSH20 0xFFFFFFFFFFFFFFFFFFFFFFFFFFFFFFFFFFFFFFFF AND PUSH1 0x2 PUSH0 DUP4 DUP2 MSTORE PUSH1 0x20 ADD SWAP1 DUP2 MSTORE PUSH1 0x20 ADD PUSH0 KECCAK256 PUSH1 0x1 ADD PUSH0 SWAP1 SLOAD SWAP1 PUSH2 0x100 EXP SWAP1 DIV PUSH20 0xFFFFFFFFFFFFFFFFFFFFFFFFFFFFFFFFFFFFFFFF AND PUSH20 0xFFFFFFFFFFFFFFFFFFFFFFFFFFFFFFFFFFFFFFFF AND SUB PUSH2 0x2F0F JUMPI PUSH1 0x40 MLOAD PUSH32 0x8C379A000000000000000000000000000000000000000000000000000000000 DUP2 MSTORE PUSH1 0x4 ADD PUSH2 0x2F06 SWAP1 PUSH2 0x3DAB JUMP JUMPDEST PUSH1 0x40 MLOAD DUP1 SWAP2 SUB SWAP1 REVERT JUMPDEST PUSH1 0x2 PUSH0 DUP5 DUP2 MSTORE PUSH1 0x20 ADD SWAP1 DUP2 MSTORE PUSH1 0x20 ADD PUSH0 KECCAK256 PUSH1 0x40 MLOAD DUP1 PUSH2 0x120 ADD PUSH1 0x40 MSTORE SWAP1 DUP2 PUSH0 DUP3 ADD SLOAD DUP2 MSTORE PUSH1 0x20 ADD PUSH1 0x1 DUP3 ADD PUSH0 SWAP1 SLOAD SWAP1 PUSH2 0x100 EXP SWAP1 DIV PUSH20 0xFFFFFFFFFFFFFFFFFFFFFFFFFFFFFFFFFFFFFFFF AND PUSH20 0xFFFFFFFFFFFFFFFFFFFFFFFFFFFFFFFFFFFFFFFF AND PUSH20 0xFFFFFFFFFFFFFFFFFFFFFFFFFFFFFFFFFFFFFFFF AND DUP2 MSTORE PUSH1 0x20 ADD PUSH1 0x2 DUP3 ADD PUSH1 0x40 MLOAD DUP1 PUSH1 0xA0 ADD PUSH1 0x40 MSTORE SWAP1 DUP2 PUSH0 DUP3 ADD DUP1 SLOAD PUSH2 0x2FA9 SWAP1 PUSH2 0x4017 JUMP JUMPDEST DUP1 PUSH1 0x1F ADD PUSH1 0x20 DUP1 SWAP2 DIV MUL PUSH1 0x20 ADD PUSH1 0x40 MLOAD SWAP1 DUP2 ADD PUSH1 0x40 MSTORE DUP1 SWAP3 SWAP2 SWAP1 DUP2 DUP2 MSTORE PUSH1 0x20 ADD DUP3 DUP1 SLOAD PUSH2 0x2FD5 SWAP1 PUSH2 0x4017 JUMP JUMPDEST DUP1 ISZERO PUSH2 0x3020 JUMPI DUP1 PUSH1 0x1F LT PUSH2 0x2FF7 JUMPI PUSH2 0x100 DUP1 DUP4 SLOAD DIV MUL DUP4 MSTORE SWAP2 PUSH1 0x20 ADD SWAP2 PUSH2 0x3020 JUMP JUMPDEST DUP3 ADD SWAP2 SWAP1 PUSH0 MSTORE PUSH1 0x20 PUSH0 KECCAK256 SWAP1 JUMPDEST DUP2 SLOAD DUP2 MSTORE SWAP1 PUSH1 0x1 ADD SWAP1 PUSH1 0x20 ADD DUP1 DUP4 GT PUSH2 0x3003 JUMPI DUP3 SWAP1 SUB PUSH1 0x1F AND DUP3 ADD SWAP2 JUMPDEST POP POP POP POP POP DUP2 MSTORE PUSH1 0x20 ADD PUSH1 0x1 DUP3 ADD DUP1 SLOAD PUSH2 0x3039 SWAP1 PUSH2 0x4017 JUMP JUMPDEST DUP1 PUSH1 0x1F ADD PUSH1 0x20 DUP1 SWAP2 DIV MUL PUSH1 0x20 ADD PUSH1 0x40 MLOAD SWAP1 DUP2 ADD PUSH1 0x40 MSTORE DUP1 SWAP3 SWAP2 SWAP1 DUP2 DUP2 MSTORE PUSH1 0x20 ADD DUP3 DUP1 SLOAD PUSH2 0x3065 SWAP1 PUSH2 0x4017 JUMP JUMPDEST DUP1 ISZERO PUSH2 0x30B0 JUMPI DUP1 PUSH1 0x1F LT PUSH2 0x3087 JUMPI PUSH2 0x100 DUP1 DUP4 SLOAD DIV MUL DUP4 MSTORE SWAP2 PUSH1 0x20 ADD SWAP2 PUSH2 0x30B0 JUMP JUMPDEST DUP3 ADD SWAP2 SWAP1 PUSH0 MSTORE PUSH1 0x20 PUSH0 KECCAK256 SWAP1 JUMPDEST DUP2 SLOAD DUP2 MSTORE SWAP1 PUSH1 0x1 ADD SWAP1 PUSH1 0x20 ADD DUP1 DUP4 GT PUSH2 0x3093 JUMPI DUP3 SWAP1 SUB PUSH1 0x1F AND DUP3 ADD SWAP2 JUMPDEST POP POP POP POP POP DUP2 MSTORE PUSH1 0x20 ADD PUSH1 0x2 DUP3 ADD DUP1 SLOAD PUSH2 0x30C9 SWAP1 PUSH2 0x4017 JUMP JUMPDEST DUP1 PUSH1 0x1F ADD PUSH1 0x20 DUP1 SWAP2 DIV MUL PUSH1 0x20 ADD PUSH1 0x40 MLOAD SWAP1 DUP2 ADD PUSH1 0x40 MSTORE DUP1 SWAP3 SWAP2 SWAP1 DUP2 DUP2 MSTORE PUSH1 0x20 ADD DUP3 DUP1 SLOAD PUSH2 0x30F5 SWAP1 PUSH2 0x4017 JUMP JUMPDEST DUP1 ISZERO PUSH2 0x3140 JUMPI DUP1 PUSH1 0x1F LT PUSH2 0x3117 JUMPI PUSH2 0x100 DUP1 DUP4 SLOAD DIV MUL DUP4 MSTORE SWAP2 PUSH1 0x20 ADD SWAP2 PUSH2 0x3140 JUMP JUMPDEST DUP3 ADD SWAP2 SWAP1 PUSH0 MSTORE PUSH1 0x20 PUSH0 KECCAK256 SWAP1 JUMPDEST DUP2 SLOAD DUP2 MSTORE SWAP1 PUSH1 0x1 ADD SWAP1 PUSH1 0x20 ADD DUP1 DUP4 GT PUSH2 0x3123 JUMPI DUP3 SWAP1 SUB PUSH1 0x1F AND DUP3 ADD SWAP2 JUMPDEST POP POP POP POP POP DUP2 MSTORE PUSH1 0x20 ADD PUSH1 0x3 DUP3 ADD SLOAD DUP2 MSTORE PUSH1 0x20 ADD PUSH1 0x4 DUP3 ADD SLOAD DUP2 MSTORE POP POP DUP2 MSTORE PUSH1 0x20 ADD PUSH1 0x7 DUP3 ADD SLOAD DUP2 MSTORE PUSH1 0x20 ADD PUSH1 0x8 DUP3 ADD PUSH0 SWAP1 SLOAD SWAP1 PUSH2 0x100 EXP SWAP1 DIV PUSH1 0xFF AND ISZERO ISZERO ISZERO ISZERO DUP2 MSTORE PUSH1 0x20 ADD PUSH1 0x8 DUP3 ADD PUSH1 0x1 SWAP1 SLOAD SWAP1 PUSH2 0x100 EXP SWAP1 DIV PUSH1 0xFF AND ISZERO ISZERO ISZERO ISZERO DUP2 MSTORE PUSH1 0x20 ADD PUSH1 0x8 DUP3 ADD PUSH1 0x2 SWAP1 SLOAD SWAP1 PUSH2 0x100 EXP SWAP1 DIV PUSH20 0xFFFFFFFFFFFFFFFFFFFFFFFFFFFFFFFFFFFFFFFF AND PUSH20 0xFFFFFFFFFFFFFFFFFFFFFFFFFFFFFFFFFFFFFFFF AND PUSH20 0xFFFFFFFFFFFFFFFFFFFFFFFFFFFFFFFFFFFFFFFF AND DUP2 MSTORE PUSH1 0x20 ADD PUSH1 0x9 DUP3 ADD SLOAD DUP2 MSTORE PUSH1 0x20 ADD PUSH1 0xA DUP3 ADD SLOAD DUP2 MSTORE POP POP SWAP2 POP POP SWAP2 SWAP1 POP JUMP JUMPDEST PUSH2 0x321A PUSH2 0x1320 JUMP JUMPDEST ISZERO PUSH2 0x325A JUMPI PUSH1 0x40 MLOAD PUSH32 0x8C379A000000000000000000000000000000000000000000000000000000000 DUP2 MSTORE PUSH1 0x4 ADD PUSH2 0x3251 SWAP1 PUSH2 0x492E JUMP JUMPDEST PUSH1 0x40 MLOAD DUP1 SWAP2 SUB SWAP1 REVERT JUMPDEST JUMP JUMPDEST PUSH2 0x3264 PUSH2 0x34FB JUMP JUMPDEST PUSH0 DUP1 PUSH0 PUSH2 0x100 EXP DUP2 SLOAD DUP2 PUSH1 0xFF MUL NOT AND SWAP1 DUP4 ISZERO ISZERO MUL OR SWAP1 SSTORE POP PUSH32 0x5DB9EE0A495BF2E6FF9C91A7834C1BA4FDD244A5E8AA4E537BD38AEAE4B073AA PUSH2 0x32A5 PUSH2 0x3544 JUMP JUMPDEST PUSH1 0x40 MLOAD PUSH2 0x32B2 SWAP2 SWAP1 PUSH2 0x494C JUMP JUMPDEST PUSH1 0x40 MLOAD DUP1 SWAP2 SUB SWAP1 LOG1 JUMP JUMPDEST PUSH2 0x32C4 PUSH2 0x3212 JUMP JUMPDEST PUSH1 0x1 PUSH0 DUP1 PUSH2 0x100 EXP DUP2 SLOAD DUP2 PUSH1 0xFF MUL NOT AND SWAP1 DUP4 ISZERO ISZERO MUL OR SWAP1 SSTORE POP PUSH32 0x62E78CEA01BEE320CD4E420270B5EA74000D11B0C9F74754EBDBFC544B05A258 PUSH2 0x3306 PUSH2 0x3544 JUMP JUMPDEST PUSH1 0x40 MLOAD PUSH2 0x3313 SWAP2 SWAP1 PUSH2 0x494C JUMP JUMPDEST PUSH1 0x40 MLOAD DUP1 SWAP2 SUB SWAP1 LOG1 JUMP JUMPDEST PUSH0 DUP2 PUSH0 ADD SLOAD SWAP1 POP SWAP2 SWAP1 POP JUMP JUMPDEST PUSH1 0x1 DUP2 PUSH0 ADD PUSH0 DUP3 DUP3 SLOAD ADD SWAP3 POP POP DUP2 SWAP1 SSTORE POP POP JUMP JUMPDEST PUSH0 PUSH1 0x4 PUSH0 DUP4 PUSH20 0xFFFFFFFFFFFFFFFFFFFFFFFFFFFFFFFFFFFFFFFF AND PUSH20 0xFFFFFFFFFFFFFFFFFFFFFFFFFFFFFFFFFFFFFFFF AND DUP2 MSTORE PUSH1 0x20 ADD SWAP1 DUP2 MSTORE PUSH1 0x20 ADD PUSH0 KECCAK256 SWAP1 POP PUSH0 JUMPDEST DUP2 DUP1 SLOAD SWAP1 POP DUP2 LT ISZERO PUSH2 0x3434 JUMPI DUP4 DUP3 DUP3 DUP2 SLOAD DUP2 LT PUSH2 0x339F JUMPI PUSH2 0x339E PUSH2 0x4965 JUMP JUMPDEST JUMPDEST SWAP1 PUSH0 MSTORE PUSH1 0x20 PUSH0 KECCAK256 ADD SLOAD SUB PUSH2 0x3421 JUMPI DUP2 PUSH1 0x1 DUP4 DUP1 SLOAD SWAP1 POP PUSH2 0x33BF SWAP2 SWAP1 PUSH2 0x49BF JUMP JUMPDEST DUP2 SLOAD DUP2 LT PUSH2 0x33D0 JUMPI PUSH2 0x33CF PUSH2 0x4965 JUMP JUMPDEST JUMPDEST SWAP1 PUSH0 MSTORE PUSH1 0x20 PUSH0 KECCAK256 ADD SLOAD DUP3 DUP3 DUP2 SLOAD DUP2 LT PUSH2 0x33EC JUMPI PUSH2 0x33EB PUSH2 0x4965 JUMP JUMPDEST JUMPDEST SWAP1 PUSH0 MSTORE PUSH1 0x20 PUSH0 KECCAK256 ADD DUP2 SWAP1 SSTORE POP DUP2 DUP1 SLOAD DUP1 PUSH2 0x3409 JUMPI PUSH2 0x3408 PUSH2 0x49F2 JUMP JUMPDEST JUMPDEST PUSH1 0x1 SWAP1 SUB DUP2 DUP2 SWAP1 PUSH0 MSTORE PUSH1 0x20 PUSH0 KECCAK256 ADD PUSH0 SWAP1 SSTORE SWAP1 SSTORE PUSH2 0x3434 JUMP JUMPDEST DUP1 DUP1 PUSH2 0x342C SWAP1 PUSH2 0x4A1F JUMP JUMPDEST SWAP2 POP POP PUSH2 0x337F JUMP JUMPDEST POP POP POP POP JUMP JUMPDEST PUSH0 JUMPDEST PUSH1 0x5 DUP1 SLOAD SWAP1 POP DUP2 LT ISZERO PUSH2 0x34F7 JUMPI DUP2 PUSH1 0x5 DUP3 DUP2 SLOAD DUP2 LT PUSH2 0x345E JUMPI PUSH2 0x345D PUSH2 0x4965 JUMP JUMPDEST JUMPDEST SWAP1 PUSH0 MSTORE PUSH1 0x20 PUSH0 KECCAK256 ADD SLOAD SUB PUSH2 0x34E4 JUMPI PUSH1 0x5 PUSH1 0x1 PUSH1 0x5 DUP1 SLOAD SWAP1 POP PUSH2 0x3480 SWAP2 SWAP1 PUSH2 0x49BF JUMP JUMPDEST DUP2 SLOAD DUP2 LT PUSH2 0x3491 JUMPI PUSH2 0x3490 PUSH2 0x4965 JUMP JUMPDEST JUMPDEST SWAP1 PUSH0 MSTORE PUSH1 0x20 PUSH0 KECCAK256 ADD SLOAD PUSH1 0x5 DUP3 DUP2 SLOAD DUP2 LT PUSH2 0x34AE JUMPI PUSH2 0x34AD PUSH2 0x4965 JUMP JUMPDEST JUMPDEST SWAP1 PUSH0 MSTORE PUSH1 0x20 PUSH0 KECCAK256 ADD DUP2 SWAP1 SSTORE POP PUSH1 0x5 DUP1 SLOAD DUP1 PUSH2 0x34CC JUMPI PUSH2 0x34CB PUSH2 0x49F2 JUMP JUMPDEST JUMPDEST PUSH1 0x1 SWAP1 SUB DUP2 DUP2 SWAP1 PUSH0 MSTORE PUSH1 0x20 PUSH0 KECCAK256 ADD PUSH0 SWAP1 SSTORE SWAP1 SSTORE PUSH2 0x34F7 JUMP JUMPDEST DUP1 DUP1 PUSH2 0x34EF SWAP1 PUSH2 0x4A1F JUMP JUMPDEST SWAP2 POP POP PUSH2 0x343C JUMP JUMPDEST POP POP JUMP JUMPDEST PUSH2 0x3503 PUSH2 0x1320 JUMP JUMPDEST PUSH2 0x3542 JUMPI PUSH1 0x40 MLOAD PUSH32 0x8C379A000000000000000000000000000000000000000000000000000000000 DUP2 MSTORE PUSH1 0x4 ADD PUSH2 0x3539 SWAP1 PUSH2 0x4AB0 JUMP JUMPDEST PUSH1 0x40 MLOAD DUP1 SWAP2 SUB SWAP1 REVERT JUMPDEST JUMP JUMPDEST PUSH0 CALLER SWAP1 POP SWAP1 JUMP JUMPDEST PUSH1 0x40 MLOAD DUP1 PUSH2 0x120 ADD PUSH1 0x40 MSTORE DUP1 PUSH0 DUP2 MSTORE PUSH1 0x20 ADD PUSH0 PUSH20 0xFFFFFFFFFFFFFFFFFFFFFFFFFFFFFFFFFFFFFFFF AND DUP2 MSTORE PUSH1 0x20 ADD PUSH2 0x3581 PUSH2 0x35C5 JUMP JUMPDEST DUP2 MSTORE PUSH1 0x20 ADD PUSH0 DUP2 MSTORE PUSH1 0x20 ADD PUSH0 ISZERO ISZERO DUP2 MSTORE PUSH1 0x20 ADD PUSH0 ISZERO ISZERO DUP2 MSTORE PUSH1 0x20 ADD PUSH0 PUSH20 0xFFFFFFFFFFFFFFFFFFFFFFFFFFFFFFFFFFFFFFFF AND DUP2 MSTORE PUSH1 0x20 ADD PUSH0 DUP2 MSTORE PUSH1 0x20 ADD PUSH0 DUP2 MSTORE POP SWAP1 JUMP JUMPDEST PUSH1 0x40 MLOAD DUP1 PUSH1 0xA0 ADD PUSH1 0x40 MSTORE DUP1 PUSH1 0x60 DUP2 MSTORE PUSH1 0x20 ADD PUSH1 0x60 DUP2 MSTORE PUSH1 0x20 ADD PUSH1 0x60 DUP2 MSTORE PUSH1 0x20 ADD PUSH0 DUP2 MSTORE PUSH1 0x20 ADD PUSH0 DUP2 MSTORE POP SWAP1 JUMP JUMPDEST PUSH0 PUSH20 0xFFFFFFFFFFFFFFFFFFFFFFFFFFFFFFFFFFFFFFFF DUP3 AND SWAP1 POP SWAP2 SWAP1 POP JUMP JUMPDEST PUSH0 DUP2 SWAP1 POP SWAP2 SWAP1 POP JUMP JUMPDEST PUSH0 PUSH2 0x3634 PUSH2 0x362F PUSH2 0x362A DUP5 PUSH2 0x35F2 JUMP JUMPDEST PUSH2 0x3611 JUMP JUMPDEST PUSH2 0x35F2 JUMP JUMPDEST SWAP1 POP SWAP2 SWAP1 POP JUMP JUMPDEST PUSH0 PUSH2 0x3645 DUP3 PUSH2 0x361A JUMP JUMPDEST SWAP1 POP SWAP2 SWAP1 POP JUMP JUMPDEST PUSH0 PUSH2 0x3656 DUP3 PUSH2 0x363B JUMP JUMPDEST SWAP1 POP SWAP2 SWAP1 POP JUMP JUMPDEST PUSH2 0x3666 DUP2 PUSH2 0x364C JUMP JUMPDEST DUP3 MSTORE POP POP JUMP JUMPDEST PUSH0 PUSH1 0x20 DUP3 ADD SWAP1 POP PUSH2 0x367F PUSH0 DUP4 ADD DUP5 PUSH2 0x365D JUMP JUMPDEST SWAP3 SWAP2 POP POP JUMP JUMPDEST PUSH0 DUP1 REVERT JUMPDEST PUSH0 DUP1 REVERT JUMPDEST PUSH0 DUP2 SWAP1 POP SWAP2 SWAP1 POP JUMP JUMPDEST PUSH2 0x369F DUP2 PUSH2 0x368D JUMP JUMPDEST DUP2 EQ PUSH2 0x36A9 JUMPI PUSH0 DUP1 REVERT JUMPDEST POP JUMP JUMPDEST PUSH0 DUP2 CALLDATALOAD SWAP1 POP PUSH2 0x36BA DUP2 PUSH2 0x3696 JUMP JUMPDEST SWAP3 SWAP2 POP POP JUMP JUMPDEST PUSH0 PUSH1 0x20 DUP3 DUP5 SUB SLT ISZERO PUSH2 0x36D5 JUMPI PUSH2 0x36D4 PUSH2 0x3685 JUMP JUMPDEST JUMPDEST PUSH0 PUSH2 0x36E2 DUP5 DUP3 DUP6 ADD PUSH2 0x36AC JUMP JUMPDEST SWAP2 POP POP SWAP3 SWAP2 POP POP JUMP JUMPDEST PUSH0 PUSH2 0x36F5 DUP3 PUSH2 0x35F2 JUMP JUMPDEST SWAP1 POP SWAP2 SWAP1 POP JUMP JUMPDEST PUSH2 0x3705 DUP2 PUSH2 0x36EB JUMP JUMPDEST DUP3 MSTORE POP POP JUMP JUMPDEST PUSH2 0x3714 DUP2 PUSH2 0x368D JUMP JUMPDEST DUP3 MSTORE POP POP JUMP JUMPDEST PUSH2 0x3723 DUP2 PUSH2 0x36EB JUMP JUMPDEST DUP3 MSTORE POP POP JUMP JUMPDEST PUSH0 DUP2 MLOAD SWAP1 POP SWAP2 SWAP1 POP JUMP JUMPDEST PUSH0 DUP3 DUP3 MSTORE PUSH1 0x20 DUP3 ADD SWAP1 POP SWAP3 SWAP2 POP POP JUMP JUMPDEST PUSH0 JUMPDEST DUP4 DUP2 LT ISZERO PUSH2 0x3760 JUMPI DUP1 DUP3 ADD MLOAD DUP2 DUP5 ADD MSTORE PUSH1 0x20 DUP2 ADD SWAP1 POP PUSH2 0x3745 JUMP JUMPDEST PUSH0 DUP5 DUP5 ADD MSTORE POP POP POP POP JUMP JUMPDEST PUSH0 PUSH1 0x1F NOT PUSH1 0x1F DUP4 ADD AND SWAP1 POP SWAP2 SWAP1 POP JUMP JUMPDEST PUSH0 PUSH2 0x3785 DUP3 PUSH2 0x3729 JUMP JUMPDEST PUSH2 0x378F DUP2 DUP6 PUSH2 0x3733 JUMP JUMPDEST SWAP4 POP PUSH2 0x379F DUP2 DUP6 PUSH1 0x20 DUP7 ADD PUSH2 0x3743 JUMP JUMPDEST PUSH2 0x37A8 DUP2 PUSH2 0x376B JUMP JUMPDEST DUP5 ADD SWAP2 POP POP SWAP3 SWAP2 POP POP JUMP JUMPDEST PUSH0 DUP2 SWAP1 POP SWAP2 SWAP1 POP JUMP JUMPDEST PUSH2 0x37C5 DUP2 PUSH2 0x37B3 JUMP JUMPDEST DUP3 MSTORE POP POP JUMP JUMPDEST PUSH0 PUSH1 0xA0 DUP4 ADD PUSH0 DUP4 ADD MLOAD DUP5 DUP3 SUB PUSH0 DUP7 ADD MSTORE PUSH2 0x37E5 DUP3 DUP3 PUSH2 0x377B JUMP JUMPDEST SWAP2 POP POP PUSH1 0x20 DUP4 ADD MLOAD DUP5 DUP3 SUB PUSH1 0x20 DUP7 ADD MSTORE PUSH2 0x37FF DUP3 DUP3 PUSH2 0x377B JUMP JUMPDEST SWAP2 POP POP PUSH1 0x40 DUP4 ADD MLOAD DUP5 DUP3 SUB PUSH1 0x40 DUP7 ADD MSTORE PUSH2 0x3819 DUP3 DUP3 PUSH2 0x377B JUMP JUMPDEST SWAP2 POP POP PUSH1 0x60 DUP4 ADD MLOAD PUSH2 0x382E PUSH1 0x60 DUP7 ADD DUP3 PUSH2 0x37BC JUMP JUMPDEST POP PUSH1 0x80 DUP4 ADD MLOAD PUSH2 0x3841 PUSH1 0x80 DUP7 ADD DUP3 PUSH2 0x37BC JUMP JUMPDEST POP DUP1 SWAP2 POP POP SWAP3 SWAP2 POP POP JUMP JUMPDEST PUSH0 DUP2 ISZERO ISZERO SWAP1 POP SWAP2 SWAP1 POP JUMP JUMPDEST PUSH2 0x3860 DUP2 PUSH2 0x384C JUMP JUMPDEST DUP3 MSTORE POP POP JUMP JUMPDEST PUSH0 PUSH2 0x120 DUP4 ADD PUSH0 DUP4 ADD MLOAD PUSH2 0x387C PUSH0 DUP7 ADD DUP3 PUSH2 0x370B JUMP JUMPDEST POP PUSH1 0x20 DUP4 ADD MLOAD PUSH2 0x388F PUSH1 0x20 DUP7 ADD DUP3 PUSH2 0x371A JUMP JUMPDEST POP PUSH1 0x40 DUP4 ADD MLOAD DUP5 DUP3 SUB PUSH1 0x40 DUP7 ADD MSTORE PUSH2 0x38A7 DUP3 DUP3 PUSH2 0x37CB JUMP JUMPDEST SWAP2 POP POP PUSH1 0x60 DUP4 ADD MLOAD PUSH2 0x38BC PUSH1 0x60 DUP7 ADD DUP3 PUSH2 0x370B JUMP JUMPDEST POP PUSH1 0x80 DUP4 ADD MLOAD PUSH2 0x38CF PUSH1 0x80 DUP7 ADD DUP3 PUSH2 0x3857 JUMP JUMPDEST POP PUSH1 0xA0 DUP4 ADD MLOAD PUSH2 0x38E2 PUSH1 0xA0 DUP7 ADD DUP3 PUSH2 0x3857 JUMP JUMPDEST POP PUSH1 0xC0 DUP4 ADD MLOAD PUSH2 0x38F5 PUSH1 0xC0 DUP7 ADD DUP3 PUSH2 0x371A JUMP JUMPDEST POP PUSH1 0xE0 DUP4 ADD MLOAD PUSH2 0x3908 PUSH1 0xE0 DUP7 ADD DUP3 PUSH2 0x370B JUMP JUMPDEST POP PUSH2 0x100 DUP4 ADD MLOAD PUSH2 0x391D PUSH2 0x100 DUP7 ADD DUP3 PUSH2 0x370B JUMP JUMPDEST POP DUP1 SWAP2 POP POP SWAP3 SWAP2 POP POP JUMP JUMPDEST PUSH2 0x3931 DUP2 PUSH2 0x384C JUMP JUMPDEST DUP3 MSTORE POP POP JUMP JUMPDEST PUSH0 PUSH1 0x80 DUP3 ADD SWAP1 POP PUSH2 0x394A PUSH0 DUP4 ADD DUP8 PUSH2 0x36FC JUMP JUMPDEST DUP2 DUP2 SUB PUSH1 0x20 DUP4 ADD MSTORE PUSH2 0x395C DUP2 DUP7 PUSH2 0x3866 JUMP JUMPDEST SWAP1 POP PUSH2 0x396B PUSH1 0x40 DUP4 ADD DUP6 PUSH2 0x3928 JUMP JUMPDEST PUSH2 0x3978 PUSH1 0x60 DUP4 ADD DUP5 PUSH2 0x3928 JUMP JUMPDEST SWAP6 SWAP5 POP POP POP POP POP JUMP JUMPDEST PUSH0 DUP1 REVERT JUMPDEST PUSH0 PUSH1 0xC0 DUP3 DUP5 SUB SLT ISZERO PUSH2 0x399A JUMPI PUSH2 0x3999 PUSH2 0x3981 JUMP JUMPDEST JUMPDEST DUP2 SWAP1 POP SWAP3 SWAP2 POP POP JUMP JUMPDEST PUSH0 DUP1 PUSH1 0x40 DUP4 DUP6 SUB SLT ISZERO PUSH2 0x39B9 JUMPI PUSH2 0x39B8 PUSH2 0x3685 JUMP JUMPDEST JUMPDEST PUSH0 PUSH2 0x39C6 DUP6 DUP3 DUP7 ADD PUSH2 0x36AC JUMP JUMPDEST SWAP3 POP POP PUSH1 0x20 DUP4 ADD CALLDATALOAD PUSH8 0xFFFFFFFFFFFFFFFF DUP2 GT ISZERO PUSH2 0x39E7 JUMPI PUSH2 0x39E6 PUSH2 0x3689 JUMP JUMPDEST JUMPDEST PUSH2 0x39F3 DUP6 DUP3 DUP7 ADD PUSH2 0x3985 JUMP JUMPDEST SWAP2 POP POP SWAP3 POP SWAP3 SWAP1 POP JUMP JUMPDEST PUSH2 0x3A06 DUP2 PUSH2 0x368D JUMP JUMPDEST DUP3 MSTORE POP POP JUMP JUMPDEST PUSH0 PUSH1 0xA0 DUP4 ADD PUSH0 DUP4 ADD MLOAD DUP5 DUP3 SUB PUSH0 DUP7 ADD MSTORE PUSH2 0x3A26 DUP3 DUP3 PUSH2 0x377B JUMP JUMPDEST SWAP2 POP POP PUSH1 0x20 DUP4 ADD MLOAD DUP5 DUP3 SUB PUSH1 0x20 DUP7 ADD MSTORE PUSH2 0x3A40 DUP3 DUP3 PUSH2 0x377B JUMP JUMPDEST SWAP2 POP POP PUSH1 0x40 DUP4 ADD MLOAD DUP5 DUP3 SUB PUSH1 0x40 DUP7 ADD MSTORE PUSH2 0x3A5A DUP3 DUP3 PUSH2 0x377B JUMP JUMPDEST SWAP2 POP POP PUSH1 0x60 DUP4 ADD MLOAD PUSH2 0x3A6F PUSH1 0x60 DUP7 ADD DUP3 PUSH2 0x37BC JUMP JUMPDEST POP PUSH1 0x80 DUP4 ADD MLOAD PUSH2 0x3A82 PUSH1 0x80 DUP7 ADD DUP3 PUSH2 0x37BC JUMP JUMPDEST POP DUP1 SWAP2 POP POP SWAP3 SWAP2 POP POP JUMP JUMPDEST PUSH0 PUSH2 0x120 DUP3 ADD SWAP1 POP PUSH2 0x3AA1 PUSH0 DUP4 ADD DUP13 PUSH2 0x39FD JUMP JUMPDEST PUSH2 0x3AAE PUSH1 0x20 DUP4 ADD DUP12 PUSH2 0x36FC JUMP JUMPDEST DUP2 DUP2 SUB PUSH1 0x40 DUP4 ADD MSTORE PUSH2 0x3AC0 DUP2 DUP11 PUSH2 0x3A0C JUMP JUMPDEST SWAP1 POP PUSH2 0x3ACF PUSH1 0x60 DUP4 ADD DUP10 PUSH2 0x39FD JUMP JUMPDEST PUSH2 0x3ADC PUSH1 0x80 DUP4 ADD DUP9 PUSH2 0x3928 JUMP JUMPDEST PUSH2 0x3AE9 PUSH1 0xA0 DUP4 ADD DUP8 PUSH2 0x3928 JUMP JUMPDEST PUSH2 0x3AF6 PUSH1 0xC0 DUP4 ADD DUP7 PUSH2 0x36FC JUMP JUMPDEST PUSH2 0x3B03 PUSH1 0xE0 DUP4 ADD DUP6 PUSH2 0x39FD JUMP JUMPDEST PUSH2 0x3B11 PUSH2 0x100 DUP4 ADD DUP5 PUSH2 0x39FD JUMP JUMPDEST SWAP11 SWAP10 POP POP POP POP POP POP POP POP POP POP JUMP JUMPDEST PUSH0 PUSH1 0x20 DUP3 ADD SWAP1 POP PUSH2 0x3B32 PUSH0 DUP4 ADD DUP5 PUSH2 0x3928 JUMP JUMPDEST SWAP3 SWAP2 POP POP JUMP JUMPDEST PUSH2 0x3B41 DUP2 PUSH2 0x36EB JUMP JUMPDEST DUP2 EQ PUSH2 0x3B4B JUMPI PUSH0 DUP1 REVERT JUMPDEST POP JUMP JUMPDEST PUSH0 DUP2 CALLDATALOAD SWAP1 POP PUSH2 0x3B5C DUP2 PUSH2 0x3B38 JUMP JUMPDEST SWAP3 SWAP2 POP POP JUMP JUMPDEST PUSH0 DUP1 PUSH1 0x40 DUP4 DUP6 SUB SLT ISZERO PUSH2 0x3B78 JUMPI PUSH2 0x3B77 PUSH2 0x3685 JUMP JUMPDEST JUMPDEST PUSH0 PUSH2 0x3B85 DUP6 DUP3 DUP7 ADD PUSH2 0x3B4E JUMP JUMPDEST SWAP3 POP POP PUSH1 0x20 PUSH2 0x3B96 DUP6 DUP3 DUP7 ADD PUSH2 0x36AC JUMP JUMPDEST SWAP2 POP POP SWAP3 POP SWAP3 SWAP1 POP JUMP JUMPDEST PUSH0 PUSH1 0x20 DUP3 ADD SWAP1 POP PUSH2 0x3BB3 PUSH0 DUP4 ADD DUP5 PUSH2 0x39FD JUMP JUMPDEST SWAP3 SWAP2 POP POP JUMP JUMPDEST PUSH0 PUSH1 0x20 DUP3 DUP5 SUB SLT ISZERO PUSH2 0x3BCE JUMPI PUSH2 0x3BCD PUSH2 0x3685 JUMP JUMPDEST JUMPDEST PUSH0 DUP3 ADD CALLDATALOAD PUSH8 0xFFFFFFFFFFFFFFFF DUP2 GT ISZERO PUSH2 0x3BEB JUMPI PUSH2 0x3BEA PUSH2 0x3689 JUMP JUMPDEST JUMPDEST PUSH2 0x3BF7 DUP5 DUP3 DUP6 ADD PUSH2 0x3985 JUMP JUMPDEST SWAP2 POP POP SWAP3 SWAP2 POP POP JUMP JUMPDEST PUSH0 DUP1 PUSH1 0x40 DUP4 DUP6 SUB SLT ISZERO PUSH2 0x3C16 JUMPI PUSH2 0x3C15 PUSH2 0x3685 JUMP JUMPDEST JUMPDEST PUSH0 PUSH2 0x3C23 DUP6 DUP3 DUP7 ADD PUSH2 0x36AC JUMP JUMPDEST SWAP3 POP POP PUSH1 0x20 PUSH2 0x3C34 DUP6 DUP3 DUP7 ADD PUSH2 0x3B4E JUMP JUMPDEST SWAP2 POP POP SWAP3 POP SWAP3 SWAP1 POP JUMP JUMPDEST PUSH0 DUP2 MLOAD SWAP1 POP SWAP2 SWAP1 POP JUMP JUMPDEST PUSH0 DUP3 DUP3 MSTORE PUSH1 0x20 DUP3 ADD SWAP1 POP SWAP3 SWAP2 POP POP JUMP JUMPDEST PUSH0 DUP2 SWAP1 POP PUSH1 0x20 DUP3 ADD SWAP1 POP SWAP2 SWAP1 POP JUMP JUMPDEST PUSH0 PUSH2 0x3C72 DUP4 DUP4 PUSH2 0x370B JUMP JUMPDEST PUSH1 0x20 DUP4 ADD SWAP1 POP SWAP3 SWAP2 POP POP JUMP JUMPDEST PUSH0 PUSH1 0x20 DUP3 ADD SWAP1 POP SWAP2 SWAP1 POP JUMP JUMPDEST PUSH0 PUSH2 0x3C94 DUP3 PUSH2 0x3C3E JUMP JUMPDEST PUSH2 0x3C9E DUP2 DUP6 PUSH2 0x3C48 JUMP JUMPDEST SWAP4 POP PUSH2 0x3CA9 DUP4 PUSH2 0x3C58 JUMP JUMPDEST DUP1 PUSH0 JUMPDEST DUP4 DUP2 LT ISZERO PUSH2 0x3CD9 JUMPI DUP2 MLOAD PUSH2 0x3CC0 DUP9 DUP3 PUSH2 0x3C67 JUMP JUMPDEST SWAP8 POP PUSH2 0x3CCB DUP4 PUSH2 0x3C7E JUMP JUMPDEST SWAP3 POP POP PUSH1 0x1 DUP2 ADD SWAP1 POP PUSH2 0x3CAC JUMP JUMPDEST POP DUP6 SWAP4 POP POP POP POP SWAP3 SWAP2 POP POP JUMP JUMPDEST PUSH0 PUSH1 0x20 DUP3 ADD SWAP1 POP DUP2 DUP2 SUB PUSH0 DUP4 ADD MSTORE PUSH2 0x3CFE DUP2 DUP5 PUSH2 0x3C8A JUMP JUMPDEST SWAP1 POP SWAP3 SWAP2 POP POP JUMP JUMPDEST PUSH0 PUSH1 0x20 DUP3 DUP5 SUB SLT ISZERO PUSH2 0x3D1B JUMPI PUSH2 0x3D1A PUSH2 0x3685 JUMP JUMPDEST JUMPDEST PUSH0 PUSH2 0x3D28 DUP5 DUP3 DUP6 ADD PUSH2 0x3B4E JUMP JUMPDEST SWAP2 POP POP SWAP3 SWAP2 POP POP JUMP JUMPDEST PUSH0 PUSH1 0x20 DUP3 ADD SWAP1 POP DUP2 DUP2 SUB PUSH0 DUP4 ADD MSTORE PUSH2 0x3D49 DUP2 DUP5 PUSH2 0x3866 JUMP JUMPDEST SWAP1 POP SWAP3 SWAP2 POP POP JUMP JUMPDEST PUSH0 DUP3 DUP3 MSTORE PUSH1 0x20 DUP3 ADD SWAP1 POP SWAP3 SWAP2 POP POP JUMP JUMPDEST PUSH32 0x57616C6C20646F6573206E6F7420657869737400000000000000000000000000 PUSH0 DUP3 ADD MSTORE POP JUMP JUMPDEST PUSH0 PUSH2 0x3D95 PUSH1 0x13 DUP4 PUSH2 0x3D51 JUMP JUMPDEST SWAP2 POP PUSH2 0x3DA0 DUP3 PUSH2 0x3D61 JUMP JUMPDEST PUSH1 0x20 DUP3 ADD SWAP1 POP SWAP2 SWAP1 POP JUMP JUMPDEST PUSH0 PUSH1 0x20 DUP3 ADD SWAP1 POP DUP2 DUP2 SUB PUSH0 DUP4 ADD MSTORE PUSH2 0x3DC2 DUP2 PUSH2 0x3D89 JUMP JUMPDEST SWAP1 POP SWAP2 SWAP1 POP JUMP JUMPDEST PUSH0 DUP2 SWAP1 POP SWAP2 SWAP1 POP JUMP JUMPDEST PUSH2 0x3DDB DUP2 PUSH2 0x3DC9 JUMP JUMPDEST DUP2 EQ PUSH2 0x3DE5 JUMPI PUSH0 DUP1 REVERT JUMPDEST POP JUMP JUMPDEST PUSH0 DUP2 MLOAD SWAP1 POP PUSH2 0x3DF6 DUP2 PUSH2 0x3DD2 JUMP JUMPDEST SWAP3 SWAP2 POP POP JUMP JUMPDEST PUSH0 PUSH1 0x20 DUP3 DUP5 SUB SLT ISZERO PUSH2 0x3E11 JUMPI PUSH2 0x3E10 PUSH2 0x3685 JUMP JUMPDEST JUMPDEST PUSH0 PUSH2 0x3E1E DUP5 DUP3 DUP6 ADD PUSH2 0x3DE8 JUMP JUMPDEST SWAP2 POP POP SWAP3 SWAP2 POP POP JUMP JUMPDEST PUSH2 0x3E30 DUP2 PUSH2 0x3DC9 JUMP JUMPDEST DUP3 MSTORE POP POP JUMP JUMPDEST PUSH0 PUSH1 0x40 DUP3 ADD SWAP1 POP PUSH2 0x3E49 PUSH0 DUP4 ADD DUP6 PUSH2 0x3E27 JUMP JUMPDEST PUSH2 0x3E56 PUSH1 0x20 DUP4 ADD DUP5 PUSH2 0x36FC JUMP JUMPDEST SWAP4 SWAP3 POP POP POP JUMP JUMPDEST PUSH2 0x3E66 DUP2 PUSH2 0x384C JUMP JUMPDEST DUP2 EQ PUSH2 0x3E70 JUMPI PUSH0 DUP1 REVERT JUMPDEST POP JUMP JUMPDEST PUSH0 DUP2 MLOAD SWAP1 POP PUSH2 0x3E81 DUP2 PUSH2 0x3E5D JUMP JUMPDEST SWAP3 SWAP2 POP POP JUMP JUMPDEST PUSH0 PUSH1 0x20 DUP3 DUP5 SUB SLT ISZERO PUSH2 0x3E9C JUMPI PUSH2 0x3E9B PUSH2 0x3685 JUMP JUMPDEST JUMPDEST PUSH0 PUSH2 0x3EA9 DUP5 DUP3 DUP6 ADD PUSH2 0x3E73 JUMP JUMPDEST SWAP2 POP POP SWAP3 SWAP2 POP POP JUMP JUMPDEST PUSH32 0x4E6F7420617574686F72697A6564000000000000000000000000000000000000 PUSH0 DUP3 ADD MSTORE POP JUMP JUMPDEST PUSH0 PUSH2 0x3EE6 PUSH1 0xE DUP4 PUSH2 0x3D51 JUMP JUMPDEST SWAP2 POP PUSH2 0x3EF1 DUP3 PUSH2 0x3EB2 JUMP JUMPDEST PUSH1 0x20 DUP3 ADD SWAP1 POP SWAP2 SWAP1 POP JUMP JUMPDEST PUSH0 PUSH1 0x20 DUP3 ADD SWAP1 POP DUP2 DUP2 SUB PUSH0 DUP4 ADD MSTORE PUSH2 0x3F13 DUP2 PUSH2 0x3EDA JUMP JUMPDEST SWAP1 POP SWAP2 SWAP1 POP JUMP JUMPDEST PUSH32 0x57616C6C20616C7265616479207061696E746564000000000000000000000000 PUSH0 DUP3 ADD MSTORE POP JUMP JUMPDEST PUSH0 PUSH2 0x3F4E PUSH1 0x14 DUP4 PUSH2 0x3D51 JUMP JUMPDEST SWAP2 POP PUSH2 0x3F59 DUP3 PUSH2 0x3F1A JUMP JUMPDEST PUSH1 0x20 DUP3 ADD SWAP1 POP SWAP2 SWAP1 POP JUMP JUMPDEST PUSH0 PUSH1 0x20 DUP3 ADD SWAP1 POP DUP2 DUP2 SUB PUSH0 DUP4 ADD MSTORE PUSH2 0x3F7B DUP2 PUSH2 0x3F42 JUMP JUMPDEST SWAP1 POP SWAP2 SWAP1 POP JUMP JUMPDEST PUSH32 0x43616C6C6572206973206E6F7420616E2061646D696E00000000000000000000 PUSH0 DUP3 ADD MSTORE POP JUMP JUMPDEST PUSH0 PUSH2 0x3FB6 PUSH1 0x16 DUP4 PUSH2 0x3D51 JUMP JUMPDEST SWAP2 POP PUSH2 0x3FC1 DUP3 PUSH2 0x3F82 JUMP JUMPDEST PUSH1 0x20 DUP3 ADD SWAP1 POP SWAP2 SWAP1 POP JUMP JUMPDEST PUSH0 PUSH1 0x20 DUP3 ADD SWAP1 POP DUP2 DUP2 SUB PUSH0 DUP4 ADD MSTORE PUSH2 0x3FE3 DUP2 PUSH2 0x3FAA JUMP JUMPDEST SWAP1 POP SWAP2 SWAP1 POP JUMP JUMPDEST PUSH32 0x4E487B7100000000000000000000000000000000000000000000000000000000 PUSH0 MSTORE PUSH1 0x22 PUSH1 0x4 MSTORE PUSH1 0x24 PUSH0 REVERT JUMPDEST PUSH0 PUSH1 0x2 DUP3 DIV SWAP1 POP PUSH1 0x1 DUP3 AND DUP1 PUSH2 0x402E JUMPI PUSH1 0x7F DUP3 AND SWAP2 POP JUMPDEST PUSH1 0x20 DUP3 LT DUP2 SUB PUSH2 0x4041 JUMPI PUSH2 0x4040 PUSH2 0x3FEA JUMP JUMPDEST JUMPDEST POP SWAP2 SWAP1 POP JUMP JUMPDEST PUSH32 0x43616C6C6572206973206E6F74207468652077616C6C206F776E657200000000 PUSH0 DUP3 ADD MSTORE POP JUMP JUMPDEST PUSH0 PUSH2 0x407B PUSH1 0x1C DUP4 PUSH2 0x3D51 JUMP JUMPDEST SWAP2 POP PUSH2 0x4086 DUP3 PUSH2 0x4047 JUMP JUMPDEST PUSH1 0x20 DUP3 ADD SWAP1 POP SWAP2 SWAP1 POP JUMP JUMPDEST PUSH0 PUSH1 0x20 DUP3 ADD SWAP1 POP DUP2 DUP2 SUB PUSH0 DUP4 ADD MSTORE PUSH2 0x40A8 DUP2 PUSH2 0x406F JUMP JUMPDEST SWAP1 POP SWAP2 SWAP1 POP JUMP JUMPDEST PUSH0 DUP1 REVERT JUMPDEST PUSH0 DUP1 REVERT JUMPDEST PUSH0 DUP1 REVERT JUMPDEST PUSH0 DUP1 DUP4 CALLDATALOAD PUSH1 0x1 PUSH1 0x20 SUB DUP5 CALLDATASIZE SUB SUB DUP2 SLT PUSH2 0x40D7 JUMPI PUSH2 0x40D6 PUSH2 0x40AF JUMP JUMPDEST JUMPDEST DUP1 DUP5 ADD SWAP3 POP DUP3 CALLDATALOAD SWAP2 POP PUSH8 0xFFFFFFFFFFFFFFFF DUP3 GT ISZERO PUSH2 0x40F9 JUMPI PUSH2 0x40F8 PUSH2 0x40B3 JUMP JUMPDEST JUMPDEST PUSH1 0x20 DUP4 ADD SWAP3 POP PUSH1 0x1 DUP3 MUL CALLDATASIZE SUB DUP4 SGT ISZERO PUSH2 0x4115 JUMPI PUSH2 0x4114 PUSH2 0x40B7 JUMP JUMPDEST JUMPDEST POP SWAP3 POP SWAP3 SWAP1 POP JUMP JUMPDEST PUSH32 0x496E76616C6964206C6F636174696F6E20646174610000000000000000000000 PUSH0 DUP3 ADD MSTORE POP JUMP JUMPDEST PUSH0 PUSH2 0x4151 PUSH1 0x15 DUP4 PUSH2 0x3D51 JUMP JUMPDEST SWAP2 POP PUSH2 0x415C DUP3 PUSH2 0x411D JUMP JUMPDEST PUSH1 0x20 DUP3 ADD SWAP1 POP SWAP2 SWAP1 POP JUMP JUMPDEST PUSH0 PUSH1 0x20 DUP3 ADD SWAP1 POP DUP2 DUP2 SUB PUSH0 DUP4 ADD MSTORE PUSH2 0x417E DUP2 PUSH2 0x4145 JUMP JUMPDEST SWAP1 POP SWAP2 SWAP1 POP JUMP JUMPDEST PUSH32 0x496E76616C69642073697A650000000000000000000000000000000000000000 PUSH0 DUP3 ADD MSTORE POP JUMP JUMPDEST PUSH0 PUSH2 0x41B9 PUSH1 0xC DUP4 PUSH2 0x3D51 JUMP JUMPDEST SWAP2 POP PUSH2 0x41C4 DUP3 PUSH2 0x4185 JUMP JUMPDEST PUSH1 0x20 DUP3 ADD SWAP1 POP SWAP2 SWAP1 POP JUMP JUMPDEST PUSH0 PUSH1 0x20 DUP3 ADD SWAP1 POP DUP2 DUP2 SUB PUSH0 DUP4 ADD MSTORE PUSH2 0x41E6 DUP2 PUSH2 0x41AD JUMP JUMPDEST SWAP1 POP SWAP2 SWAP1 POP JUMP JUMPDEST PUSH0 DUP3 SWAP1 POP SWAP3 SWAP2 POP POP JUMP JUMPDEST PUSH32 0x4E487B7100000000000000000000000000000000000000000000000000000000 PUSH0 MSTORE PUSH1 0x41 PUSH1 0x4 MSTORE PUSH1 0x24 PUSH0 REVERT JUMPDEST PUSH0 DUP2 SWAP1 POP DUP2 PUSH0 MSTORE PUSH1 0x20 PUSH0 KECCAK256 SWAP1 POP SWAP2 SWAP1 POP JUMP JUMPDEST PUSH0 PUSH1 0x20 PUSH1 0x1F DUP4 ADD DIV SWAP1 POP SWAP2 SWAP1 POP JUMP JUMPDEST PUSH0 DUP3 DUP3 SHL SWAP1 POP SWAP3 SWAP2 POP POP JUMP JUMPDEST PUSH0 PUSH1 0x8 DUP4 MUL PUSH2 0x4280 PUSH32 0xFFFFFFFFFFFFFFFFFFFFFFFFFFFFFFFFFFFFFFFFFFFFFFFFFFFFFFFFFFFFFFFF DUP3 PUSH2 0x4245 JUMP JUMPDEST PUSH2 0x428A DUP7 DUP4 PUSH2 0x4245 JUMP JUMPDEST SWAP6 POP DUP1 NOT DUP5 AND SWAP4 POP DUP1 DUP7 AND DUP5 OR SWAP3 POP POP POP SWAP4 SWAP3 POP POP POP JUMP JUMPDEST PUSH0 PUSH2 0x42BC PUSH2 0x42B7 PUSH2 0x42B2 DUP5 PUSH2 0x368D JUMP JUMPDEST PUSH2 0x3611 JUMP JUMPDEST PUSH2 0x368D JUMP JUMPDEST SWAP1 POP SWAP2 SWAP1 POP JUMP JUMPDEST PUSH0 DUP2 SWAP1 POP SWAP2 SWAP1 POP JUMP JUMPDEST PUSH2 0x42D5 DUP4 PUSH2 0x42A2 JUMP JUMPDEST PUSH2 0x42E9 PUSH2 0x42E1 DUP3 PUSH2 0x42C3 JUMP JUMPDEST DUP5 DUP5 SLOAD PUSH2 0x4251 JUMP JUMPDEST DUP3 SSTORE POP POP POP POP JUMP JUMPDEST PUSH0 SWAP1 JUMP JUMPDEST PUSH2 0x42FD PUSH2 0x42F1 JUMP JUMPDEST PUSH2 0x4308 DUP2 DUP5 DUP5 PUSH2 0x42CC JUMP JUMPDEST POP POP POP JUMP JUMPDEST JUMPDEST DUP2 DUP2 LT ISZERO PUSH2 0x432B JUMPI PUSH2 0x4320 PUSH0 DUP3 PUSH2 0x42F5 JUMP JUMPDEST PUSH1 0x1 DUP2 ADD SWAP1 POP PUSH2 0x430E JUMP JUMPDEST POP POP JUMP JUMPDEST PUSH1 0x1F DUP3 GT ISZERO PUSH2 0x4370 JUMPI PUSH2 0x4341 DUP2 PUSH2 0x4224 JUMP JUMPDEST PUSH2 0x434A DUP5 PUSH2 0x4236 JUMP JUMPDEST DUP2 ADD PUSH1 0x20 DUP6 LT ISZERO PUSH2 0x4359 JUMPI DUP2 SWAP1 POP JUMPDEST PUSH2 0x436D PUSH2 0x4365 DUP6 PUSH2 0x4236 JUMP JUMPDEST DUP4 ADD DUP3 PUSH2 0x430D JUMP JUMPDEST POP POP JUMPDEST POP POP POP JUMP JUMPDEST PUSH0 DUP3 DUP3 SHR SWAP1 POP SWAP3 SWAP2 POP POP JUMP JUMPDEST PUSH0 PUSH2 0x4390 PUSH0 NOT DUP5 PUSH1 0x8 MUL PUSH2 0x4375 JUMP JUMPDEST NOT DUP1 DUP4 AND SWAP2 POP POP SWAP3 SWAP2 POP POP JUMP JUMPDEST PUSH0 PUSH2 0x43A8 DUP4 DUP4 PUSH2 0x4381 JUMP JUMPDEST SWAP2 POP DUP3 PUSH1 0x2 MUL DUP3 OR SWAP1 POP SWAP3 SWAP2 POP POP JUMP JUMPDEST PUSH2 0x43C2 DUP4 DUP4 PUSH2 0x41ED JUMP JUMPDEST PUSH8 0xFFFFFFFFFFFFFFFF DUP2 GT ISZERO PUSH2 0x43DB JUMPI PUSH2 0x43DA PUSH2 0x41F7 JUMP JUMPDEST JUMPDEST PUSH2 0x43E5 DUP3 SLOAD PUSH2 0x4017 JUMP JUMPDEST PUSH2 0x43F0 DUP3 DUP3 DUP6 PUSH2 0x432F JUMP JUMPDEST PUSH0 PUSH1 0x1F DUP4 GT PUSH1 0x1 DUP2 EQ PUSH2 0x441D JUMPI PUSH0 DUP5 ISZERO PUSH2 0x440B JUMPI DUP3 DUP8 ADD CALLDATALOAD SWAP1 POP JUMPDEST PUSH2 0x4415 DUP6 DUP3 PUSH2 0x439D JUMP JUMPDEST DUP7 SSTORE POP PUSH2 0x447C JUMP JUMPDEST PUSH1 0x1F NOT DUP5 AND PUSH2 0x442B DUP7 PUSH2 0x4224 JUMP JUMPDEST PUSH0 JUMPDEST DUP3 DUP2 LT ISZERO PUSH2 0x4452 JUMPI DUP5 DUP10 ADD CALLDATALOAD DUP3 SSTORE PUSH1 0x1 DUP3 ADD SWAP2 POP PUSH1 0x20 DUP6 ADD SWAP5 POP PUSH1 0x20 DUP2 ADD SWAP1 POP PUSH2 0x442D JUMP JUMPDEST DUP7 DUP4 LT ISZERO PUSH2 0x446F JUMPI DUP5 DUP10 ADD CALLDATALOAD PUSH2 0x446B PUSH1 0x1F DUP10 AND DUP3 PUSH2 0x4381 JUMP JUMPDEST DUP4 SSTORE POP JUMPDEST PUSH1 0x1 PUSH1 0x2 DUP9 MUL ADD DUP9 SSTORE POP POP POP JUMPDEST POP POP POP POP POP POP POP JUMP JUMPDEST PUSH2 0x448E DUP3 PUSH2 0x3729 JUMP JUMPDEST PUSH8 0xFFFFFFFFFFFFFFFF DUP2 GT ISZERO PUSH2 0x44A7 JUMPI PUSH2 0x44A6 PUSH2 0x41F7 JUMP JUMPDEST JUMPDEST PUSH2 0x44B1 DUP3 SLOAD PUSH2 0x4017 JUMP JUMPDEST PUSH2 0x44BC DUP3 DUP3 DUP6 PUSH2 0x432F JUMP JUMPDEST PUSH0 PUSH1 0x20 SWAP1 POP PUSH1 0x1F DUP4 GT PUSH1 0x1 DUP2 EQ PUSH2 0x44ED JUMPI PUSH0 DUP5 ISZERO PUSH2 0x44DB JUMPI DUP3 DUP8 ADD MLOAD SWAP1 POP JUMPDEST PUSH2 0x44E5 DUP6 DUP3 PUSH2 0x439D JUMP JUMPDEST DUP7 SSTORE POP PUSH2 0x454C JUMP JUMPDEST PUSH1 0x1F NOT DUP5 AND PUSH2 0x44FB DUP7 PUSH2 0x4224 JUMP JUMPDEST PUSH0 JUMPDEST DUP3 DUP2 LT ISZERO PUSH2 0x4522 JUMPI DUP5 DUP10 ADD MLOAD DUP3 SSTORE PUSH1 0x1 DUP3 ADD SWAP2 POP PUSH1 0x20 DUP6 ADD SWAP5 POP PUSH1 0x20 DUP2 ADD SWAP1 POP PUSH2 0x44FD JUMP JUMPDEST DUP7 DUP4 LT ISZERO PUSH2 0x453F JUMPI DUP5 DUP10 ADD MLOAD PUSH2 0x453B PUSH1 0x1F DUP10 AND DUP3 PUSH2 0x4381 JUMP JUMPDEST DUP4 SSTORE POP JUMPDEST PUSH1 0x1 PUSH1 0x2 DUP9 MUL ADD DUP9 SSTORE POP POP POP JUMPDEST POP POP POP POP POP POP JUMP JUMPDEST PUSH32 0x57616C6C206E6F7420696E20612067616C6C6572790000000000000000000000 PUSH0 DUP3 ADD MSTORE POP JUMP JUMPDEST PUSH0 PUSH2 0x4588 PUSH1 0x15 DUP4 PUSH2 0x3D51 JUMP JUMPDEST SWAP2 POP PUSH2 0x4593 DUP3 PUSH2 0x4554 JUMP JUMPDEST PUSH1 0x20 DUP3 ADD SWAP1 POP SWAP2 SWAP1 POP JUMP JUMPDEST PUSH0 PUSH1 0x20 DUP3 ADD SWAP1 POP DUP2 DUP2 SUB PUSH0 DUP4 ADD MSTORE PUSH2 0x45B5 DUP2 PUSH2 0x457C JUMP JUMPDEST SWAP1 POP SWAP2 SWAP1 POP JUMP JUMPDEST PUSH32 0x496E76616C6964206E6577206F776E6572000000000000000000000000000000 PUSH0 DUP3 ADD MSTORE POP JUMP JUMPDEST PUSH0 PUSH2 0x45F0 PUSH1 0x11 DUP4 PUSH2 0x3D51 JUMP JUMPDEST SWAP2 POP PUSH2 0x45FB DUP3 PUSH2 0x45BC JUMP JUMPDEST PUSH1 0x20 DUP3 ADD SWAP1 POP SWAP2 SWAP1 POP JUMP JUMPDEST PUSH0 PUSH1 0x20 DUP3 ADD SWAP1 POP DUP2 DUP2 SUB PUSH0 DUP4 ADD MSTORE PUSH2 0x461D DUP2 PUSH2 0x45E4 JUMP JUMPDEST SWAP1 POP SWAP2 SWAP1 POP JUMP JUMPDEST PUSH32 0x4E6577206F776E6572206D75737420686176652057414C4C5F4F574E45525F52 PUSH0 DUP3 ADD MSTORE PUSH32 0x4F4C450000000000000000000000000000000000000000000000000000000000 PUSH1 0x20 DUP3 ADD MSTORE POP JUMP JUMPDEST PUSH0 PUSH2 0x467E PUSH1 0x23 DUP4 PUSH2 0x3D51 JUMP JUMPDEST SWAP2 POP PUSH2 0x4689 DUP3 PUSH2 0x4624 JUMP JUMPDEST PUSH1 0x40 DUP3 ADD SWAP1 POP SWAP2 SWAP1 POP JUMP JUMPDEST PUSH0 PUSH1 0x20 DUP3 ADD SWAP1 POP DUP2 DUP2 SUB PUSH0 DUP4 ADD MSTORE PUSH2 0x46AB DUP2 PUSH2 0x4672 JUMP JUMPDEST SWAP1 POP SWAP2 SWAP1 POP JUMP JUMPDEST PUSH32 0x52657175657374206E6F742070656E64696E6700000000000000000000000000 PUSH0 DUP3 ADD MSTORE POP JUMP JUMPDEST PUSH0 PUSH2 0x46E6 PUSH1 0x13 DUP4 PUSH2 0x3D51 JUMP JUMPDEST SWAP2 POP PUSH2 0x46F1 DUP3 PUSH2 0x46B2 JUMP JUMPDEST PUSH1 0x20 DUP3 ADD SWAP1 POP SWAP2 SWAP1 POP JUMP JUMPDEST PUSH0 PUSH1 0x20 DUP3 ADD SWAP1 POP DUP2 DUP2 SUB PUSH0 DUP4 ADD MSTORE PUSH2 0x4713 DUP2 PUSH2 0x46DA JUMP JUMPDEST SWAP1 POP SWAP2 SWAP1 POP JUMP JUMPDEST PUSH0 DUP2 SLOAD SWAP1 POP PUSH2 0x4728 DUP2 PUSH2 0x4017 JUMP JUMPDEST SWAP1 POP SWAP2 SWAP1 POP JUMP JUMPDEST DUP2 DUP2 SUB PUSH2 0x473D JUMPI POP POP PUSH2 0x4812 JUMP JUMPDEST PUSH2 0x4746 DUP3 PUSH2 0x471A JUMP JUMPDEST PUSH8 0xFFFFFFFFFFFFFFFF DUP2 GT ISZERO PUSH2 0x475F JUMPI PUSH2 0x475E PUSH2 0x41F7 JUMP JUMPDEST JUMPDEST PUSH2 0x4769 DUP3 SLOAD PUSH2 0x4017 JUMP JUMPDEST PUSH2 0x4774 DUP3 DUP3 DUP6 PUSH2 0x432F JUMP JUMPDEST PUSH0 PUSH1 0x1F DUP4 GT PUSH1 0x1 DUP2 EQ PUSH2 0x47A1 JUMPI PUSH0 DUP5 ISZERO PUSH2 0x478F JUMPI DUP3 DUP8 ADD SLOAD SWAP1 POP JUMPDEST PUSH2 0x4799 DUP6 DUP3 PUSH2 0x439D JUMP JUMPDEST DUP7 SSTORE POP PUSH2 0x480B JUMP JUMPDEST PUSH1 0x1F NOT DUP5 AND PUSH2 0x47AF DUP8 PUSH2 0x4224 JUMP JUMPDEST SWAP7 POP PUSH2 0x47BA DUP7 PUSH2 0x4224 JUMP JUMPDEST PUSH0 JUMPDEST DUP3 DUP2 LT ISZERO PUSH2 0x47E1 JUMPI DUP5 DUP10 ADD SLOAD DUP3 SSTORE PUSH1 0x1 DUP3 ADD SWAP2 POP PUSH1 0x1 DUP6 ADD SWAP5 POP PUSH1 0x20 DUP2 ADD SWAP1 POP PUSH2 0x47BC JUMP JUMPDEST DUP7 DUP4 LT ISZERO PUSH2 0x47FE JUMPI DUP5 DUP10 ADD SLOAD PUSH2 0x47FA PUSH1 0x1F DUP10 AND DUP3 PUSH2 0x4381 JUMP JUMPDEST DUP4 SSTORE POP JUMPDEST PUSH1 0x1 PUSH1 0x2 DUP9 MUL ADD DUP9 SSTORE POP POP POP JUMPDEST POP POP POP POP POP POP JUMPDEST JUMP JUMPDEST PUSH32 0x43616C6C6572206973206E6F7420612067616C6C657279206F776E6572000000 PUSH0 DUP3 ADD MSTORE POP JUMP JUMPDEST PUSH0 PUSH2 0x4848 PUSH1 0x1D DUP4 PUSH2 0x3D51 JUMP JUMPDEST SWAP2 POP PUSH2 0x4853 DUP3 PUSH2 0x4814 JUMP JUMPDEST PUSH1 0x20 DUP3 ADD SWAP1 POP SWAP2 SWAP1 POP JUMP JUMPDEST PUSH0 PUSH1 0x20 DUP3 ADD SWAP1 POP DUP2 DUP2 SUB PUSH0 DUP4 ADD MSTORE PUSH2 0x4875 DUP2 PUSH2 0x483C JUMP JUMPDEST SWAP1 POP SWAP2 SWAP1 POP JUMP JUMPDEST PUSH32 0x57616C6C20616C726561647920696E20612067616C6C65727900000000000000 PUSH0 DUP3 ADD MSTORE POP JUMP JUMPDEST PUSH0 PUSH2 0x48B0 PUSH1 0x19 DUP4 PUSH2 0x3D51 JUMP JUMPDEST SWAP2 POP PUSH2 0x48BB DUP3 PUSH2 0x487C JUMP JUMPDEST PUSH1 0x20 DUP3 ADD SWAP1 POP SWAP2 SWAP1 POP JUMP JUMPDEST PUSH0 PUSH1 0x20 DUP3 ADD SWAP1 POP DUP2 DUP2 SUB PUSH0 DUP4 ADD MSTORE PUSH2 0x48DD DUP2 PUSH2 0x48A4 JUMP JUMPDEST SWAP1 POP SWAP2 SWAP1 POP JUMP JUMPDEST PUSH32 0x5061757361626C653A2070617573656400000000000000000000000000000000 PUSH0 DUP3 ADD MSTORE POP JUMP JUMPDEST PUSH0 PUSH2 0x4918 PUSH1 0x10 DUP4 PUSH2 0x3D51 JUMP JUMPDEST SWAP2 POP PUSH2 0x4923 DUP3 PUSH2 0x48E4 JUMP JUMPDEST PUSH1 0x20 DUP3 ADD SWAP1 POP SWAP2 SWAP1 POP JUMP JUMPDEST PUSH0 PUSH1 0x20 DUP3 ADD SWAP1 POP DUP2 DUP2 SUB PUSH0 DUP4 ADD MSTORE PUSH2 0x4945 DUP2 PUSH2 0x490C JUMP JUMPDEST SWAP1 POP SWAP2 SWAP1 POP JUMP JUMPDEST PUSH0 PUSH1 0x20 DUP3 ADD SWAP1 POP PUSH2 0x495F PUSH0 DUP4 ADD DUP5 PUSH2 0x36FC JUMP JUMPDEST SWAP3 SWAP2 POP POP JUMP JUMPDEST PUSH32 0x4E487B7100000000000000000000000000000000000000000000000000000000 PUSH0 MSTORE PUSH1 0x32 PUSH1 0x4 MSTORE PUSH1 0x24 PUSH0 REVERT JUMPDEST PUSH32 0x4E487B7100000000000000000000000000000000000000000000000000000000 PUSH0 MSTORE PUSH1 0x11 PUSH1 0x4 MSTORE PUSH1 0x24 PUSH0 REVERT JUMPDEST PUSH0 PUSH2 0x49C9 DUP3 PUSH2 0x368D JUMP JUMPDEST SWAP2 POP PUSH2 0x49D4 DUP4 PUSH2 0x368D JUMP JUMPDEST SWAP3 POP DUP3 DUP3 SUB SWAP1 POP DUP2 DUP2 GT ISZERO PUSH2 0x49EC JUMPI PUSH2 0x49EB PUSH2 0x4992 JUMP JUMPDEST JUMPDEST SWAP3 SWAP2 POP POP JUMP JUMPDEST PUSH32 0x4E487B7100000000000000000000000000000000000000000000000000000000 PUSH0 MSTORE PUSH1 0x31 PUSH1 0x4 MSTORE PUSH1 0x24 PUSH0 REVERT JUMPDEST PUSH0 PUSH2 0x4A29 DUP3 PUSH2 0x368D JUMP JUMPDEST SWAP2 POP PUSH32 0xFFFFFFFFFFFFFFFFFFFFFFFFFFFFFFFFFFFFFFFFFFFFFFFFFFFFFFFFFFFFFFFF DUP3 SUB PUSH2 0x4A5B JUMPI PUSH2 0x4A5A PUSH2 0x4992 JUMP JUMPDEST JUMPDEST PUSH1 0x1 DUP3 ADD SWAP1 POP SWAP2 SWAP1 POP JUMP JUMPDEST PUSH32 0x5061757361626C653A206E6F7420706175736564000000000000000000000000 PUSH0 DUP3 ADD MSTORE POP JUMP JUMPDEST PUSH0 PUSH2 0x4A9A PUSH1 0x14 DUP4 PUSH2 0x3D51 JUMP JUMPDEST SWAP2 POP PUSH2 0x4AA5 DUP3 PUSH2 0x4A66 JUMP JUMPDEST PUSH1 0x20 DUP3 ADD SWAP1 POP SWAP2 SWAP1 POP JUMP JUMPDEST PUSH0 PUSH1 0x20 DUP3 ADD SWAP1 POP DUP2 DUP2 SUB PUSH0 DUP4 ADD MSTORE PUSH2 0x4AC7 DUP2 PUSH2 0x4A8E JUMP JUMPDEST SWAP1 POP SWAP2 SWAP1 POP JUMP INVALID LOG2 PUSH5 0x6970667358 0x22 SLT KECCAK256 0xEA 0x27 LOG4 MULMOD 0xAB MOD KECCAK256 PUSH9 0xE66526E161DD1E17AA PUSH2 0xA4EA 0xDA 0xAD 0xFB 0xE9 DUP10 0xA5 0xAD 0xA7 0xD1 CREATE2 0xB4 PUSH14 0x64736F6C63430008140033000000 "
		},
		"gasEstimates": {
			"creation": {
				"codeDepositCost": "3840800",
				"executionCost": "infinite",
				"totalCost": "infinite"
			},
			"external": {
				"addWallToGallery(uint256)": "infinite",
				"approveWallRequest(uint256)": "infinite",
				"getPendingWallRequests()": "infinite",
				"getWall(uint256)": "infinite",
				"getWallsByOwner(address)": "infinite",
				"markWallAsPainted(uint256)": "infinite",
				"ownerWalls(address,uint256)": "infinite",
				"pause()": "infinite",
				"paused()": "2540",
				"pendingWallRequests(uint256)": "infinite",
				"rejectWallRequest(uint256)": "infinite",
				"removeWallFromGallery(uint256)": "infinite",
				"requestWall((string,string,string,int256,int256,uint256))": "infinite",
				"roleManager()": "infinite",
				"transferWall(uint256,address)": "infinite",
				"unpause()": "infinite",
				"updateWall(uint256,(string,string,string,int256,int256,uint256))": "infinite",
				"wallRequests(uint256)": "infinite",
				"walls(uint256)": "infinite"
			},
			"internal": {
				"_removeFromPendingRequests(uint256)": "infinite",
				"_removeWallFromOwner(uint256,address)": "infinite"
			}
		},
		"methodIdentifiers": {
			"addWallToGallery(uint256)": "de5b3ea2",
			"approveWallRequest(uint256)": "cb3de478",
			"getPendingWallRequests()": "aab34756",
			"getWall(uint256)": "ff91e489",
			"getWallsByOwner(address)": "efc953ef",
			"markWallAsPainted(uint256)": "2596133b",
			"ownerWalls(address,uint256)": "6f725c13",
			"pause()": "8456cb59",
			"paused()": "5c975abb",
			"pendingWallRequests(uint256)": "da817a24",
			"rejectWallRequest(uint256)": "f64fee98",
			"removeWallFromGallery(uint256)": "9944f1bc",
			"requestWall((string,string,string,int256,int256,uint256))": "89cf7ddf",
			"roleManager()": "00435da5",
			"transferWall(uint256,address)": "a1519b11",
			"unpause()": "3f4ba83a",
			"updateWall(uint256,(string,string,string,int256,int256,uint256))": "54f9d9e8",
			"wallRequests(uint256)": "44ee00b7",
			"walls(uint256)": "550a3dba"
		}
	},
	"abi": [
		{
			"inputs": [
				{
					"internalType": "address",
					"name": "_roleManagerAddress",
					"type": "address"
				}
			],
			"stateMutability": "nonpayable",
			"type": "constructor"
		},
		{
			"anonymous": false,
			"inputs": [
				{
					"indexed": false,
					"internalType": "address",
					"name": "account",
					"type": "address"
				}
			],
			"name": "Paused",
			"type": "event"
		},
		{
			"anonymous": false,
			"inputs": [
				{
					"indexed": false,
					"internalType": "address",
					"name": "account",
					"type": "address"
				}
			],
			"name": "Unpaused",
			"type": "event"
		},
		{
			"anonymous": false,
			"inputs": [
				{
					"indexed": true,
					"internalType": "uint256",
					"name": "wallId",
					"type": "uint256"
				},
				{
					"indexed": true,
					"internalType": "address",
					"name": "galleryOwner",
					"type": "address"
				}
			],
			"name": "WallAddedToGallery",
			"type": "event"
		},
		{
			"anonymous": false,
			"inputs": [
				{
					"indexed": true,
					"internalType": "uint256",
					"name": "wallId",
					"type": "uint256"
				}
			],
			"name": "WallPainted",
			"type": "event"
		},
		{
			"anonymous": false,
			"inputs": [
				{
					"indexed": true,
					"internalType": "uint256",
					"name": "wallId",
					"type": "uint256"
				}
			],
			"name": "WallRemovedFromGallery",
			"type": "event"
		},
		{
			"anonymous": false,
			"inputs": [
				{
					"indexed": true,
					"internalType": "uint256",
					"name": "requestId",
					"type": "uint256"
				},
				{
					"indexed": true,
					"internalType": "uint256",
					"name": "wallId",
					"type": "uint256"
				}
			],
			"name": "WallRequestApproved",
			"type": "event"
		},
		{
			"anonymous": false,
			"inputs": [
				{
					"indexed": true,
					"internalType": "uint256",
					"name": "requestId",
					"type": "uint256"
				}
			],
			"name": "WallRequestRejected",
			"type": "event"
		},
		{
			"anonymous": false,
			"inputs": [
				{
					"indexed": true,
					"internalType": "uint256",
					"name": "requestId",
					"type": "uint256"
				},
				{
					"indexed": true,
					"internalType": "address",
					"name": "requester",
					"type": "address"
				}
			],
			"name": "WallRequested",
			"type": "event"
		},
		{
			"anonymous": false,
			"inputs": [
				{
					"indexed": true,
					"internalType": "uint256",
					"name": "wallId",
					"type": "uint256"
				},
				{
					"indexed": true,
					"internalType": "address",
					"name": "from",
					"type": "address"
				},
				{
					"indexed": true,
					"internalType": "address",
					"name": "to",
					"type": "address"
				}
			],
			"name": "WallTransferred",
			"type": "event"
		},
		{
			"anonymous": false,
			"inputs": [
				{
					"indexed": true,
					"internalType": "uint256",
					"name": "wallId",
					"type": "uint256"
				}
			],
			"name": "WallUpdated",
			"type": "event"
		},
		{
			"inputs": [
				{
					"internalType": "uint256",
					"name": "wallId",
					"type": "uint256"
				}
			],
			"name": "addWallToGallery",
			"outputs": [],
			"stateMutability": "nonpayable",
			"type": "function"
		},
		{
			"inputs": [
				{
					"internalType": "uint256",
					"name": "requestId",
					"type": "uint256"
				}
			],
			"name": "approveWallRequest",
			"outputs": [],
			"stateMutability": "nonpayable",
			"type": "function"
		},
		{
			"inputs": [],
			"name": "getPendingWallRequests",
			"outputs": [
				{
					"internalType": "uint256[]",
					"name": "",
					"type": "uint256[]"
				}
			],
			"stateMutability": "view",
			"type": "function"
		},
		{
			"inputs": [
				{
					"internalType": "uint256",
					"name": "wallId",
					"type": "uint256"
				}
			],
			"name": "getWall",
			"outputs": [
				{
					"components": [
						{
							"internalType": "uint256",
							"name": "id",
							"type": "uint256"
						},
						{
							"internalType": "address",
							"name": "owner",
							"type": "address"
						},
						{
							"components": [
								{
									"internalType": "string",
									"name": "country",
									"type": "string"
								},
								{
									"internalType": "string",
									"name": "city",
									"type": "string"
								},
								{
									"internalType": "string",
									"name": "physicalAddress",
									"type": "string"
								},
								{
									"internalType": "int256",
									"name": "longitude",
									"type": "int256"
								},
								{
									"internalType": "int256",
									"name": "latitude",
									"type": "int256"
								}
							],
							"internalType": "struct Wall.Location",
							"name": "location",
							"type": "tuple"
						},
						{
							"internalType": "uint256",
							"name": "size",
							"type": "uint256"
						},
						{
							"internalType": "bool",
							"name": "isInGallery",
							"type": "bool"
						},
						{
							"internalType": "bool",
							"name": "isPainted",
							"type": "bool"
						},
						{
							"internalType": "address",
							"name": "galleryOwner",
							"type": "address"
						},
						{
							"internalType": "uint256",
							"name": "createdAt",
							"type": "uint256"
						},
						{
							"internalType": "uint256",
							"name": "lastUpdated",
							"type": "uint256"
						}
					],
					"internalType": "struct Wall.WallData",
					"name": "",
					"type": "tuple"
				}
			],
			"stateMutability": "view",
			"type": "function"
		},
		{
			"inputs": [
				{
					"internalType": "address",
					"name": "owner",
					"type": "address"
				}
			],
			"name": "getWallsByOwner",
			"outputs": [
				{
					"internalType": "uint256[]",
					"name": "",
					"type": "uint256[]"
				}
			],
			"stateMutability": "view",
			"type": "function"
		},
		{
			"inputs": [
				{
					"internalType": "uint256",
					"name": "wallId",
					"type": "uint256"
				}
			],
			"name": "markWallAsPainted",
			"outputs": [],
			"stateMutability": "nonpayable",
			"type": "function"
		},
		{
			"inputs": [
				{
					"internalType": "address",
					"name": "",
					"type": "address"
				},
				{
					"internalType": "uint256",
					"name": "",
					"type": "uint256"
				}
			],
			"name": "ownerWalls",
			"outputs": [
				{
					"internalType": "uint256",
					"name": "",
					"type": "uint256"
				}
			],
			"stateMutability": "view",
			"type": "function"
		},
		{
			"inputs": [],
			"name": "pause",
			"outputs": [],
			"stateMutability": "nonpayable",
			"type": "function"
		},
		{
			"inputs": [],
			"name": "paused",
			"outputs": [
				{
					"internalType": "bool",
					"name": "",
					"type": "bool"
				}
			],
			"stateMutability": "view",
			"type": "function"
		},
		{
			"inputs": [
				{
					"internalType": "uint256",
					"name": "",
					"type": "uint256"
				}
			],
			"name": "pendingWallRequests",
			"outputs": [
				{
					"internalType": "uint256",
					"name": "",
					"type": "uint256"
				}
			],
			"stateMutability": "view",
			"type": "function"
		},
		{
			"inputs": [
				{
					"internalType": "uint256",
					"name": "requestId",
					"type": "uint256"
				}
			],
			"name": "rejectWallRequest",
			"outputs": [],
			"stateMutability": "nonpayable",
			"type": "function"
		},
		{
			"inputs": [
				{
					"internalType": "uint256",
					"name": "wallId",
					"type": "uint256"
				}
			],
			"name": "removeWallFromGallery",
			"outputs": [],
			"stateMutability": "nonpayable",
			"type": "function"
		},
		{
			"inputs": [
				{
					"components": [
						{
							"internalType": "string",
							"name": "country",
							"type": "string"
						},
						{
							"internalType": "string",
							"name": "city",
							"type": "string"
						},
						{
							"internalType": "string",
							"name": "physicalAddress",
							"type": "string"
						},
						{
							"internalType": "int256",
							"name": "longitude",
							"type": "int256"
						},
						{
							"internalType": "int256",
							"name": "latitude",
							"type": "int256"
						},
						{
							"internalType": "uint256",
							"name": "size",
							"type": "uint256"
						}
					],
					"internalType": "struct Wall.WallRequestParams",
					"name": "params",
					"type": "tuple"
				}
			],
			"name": "requestWall",
			"outputs": [],
			"stateMutability": "nonpayable",
			"type": "function"
		},
		{
			"inputs": [],
			"name": "roleManager",
			"outputs": [
				{
					"internalType": "contract IRoleManager",
					"name": "",
					"type": "address"
				}
			],
			"stateMutability": "view",
			"type": "function"
		},
		{
			"inputs": [
				{
					"internalType": "uint256",
					"name": "wallId",
					"type": "uint256"
				},
				{
					"internalType": "address",
					"name": "newOwner",
					"type": "address"
				}
			],
			"name": "transferWall",
			"outputs": [],
			"stateMutability": "nonpayable",
			"type": "function"
		},
		{
			"inputs": [],
			"name": "unpause",
			"outputs": [],
			"stateMutability": "nonpayable",
			"type": "function"
		},
		{
			"inputs": [
				{
					"internalType": "uint256",
					"name": "wallId",
					"type": "uint256"
				},
				{
					"components": [
						{
							"internalType": "string",
							"name": "country",
							"type": "string"
						},
						{
							"internalType": "string",
							"name": "city",
							"type": "string"
						},
						{
							"internalType": "string",
							"name": "physicalAddress",
							"type": "string"
						},
						{
							"internalType": "int256",
							"name": "longitude",
							"type": "int256"
						},
						{
							"internalType": "int256",
							"name": "latitude",
							"type": "int256"
						},
						{
							"internalType": "uint256",
							"name": "size",
							"type": "uint256"
						}
					],
					"internalType": "struct Wall.WallRequestParams",
					"name": "params",
					"type": "tuple"
				}
			],
			"name": "updateWall",
			"outputs": [],
			"stateMutability": "nonpayable",
			"type": "function"
		},
		{
			"inputs": [
				{
					"internalType": "uint256",
					"name": "",
					"type": "uint256"
				}
			],
			"name": "wallRequests",
			"outputs": [
				{
					"internalType": "address",
					"name": "requester",
					"type": "address"
				},
				{
					"components": [
						{
							"internalType": "uint256",
							"name": "id",
							"type": "uint256"
						},
						{
							"internalType": "address",
							"name": "owner",
							"type": "address"
						},
						{
							"components": [
								{
									"internalType": "string",
									"name": "country",
									"type": "string"
								},
								{
									"internalType": "string",
									"name": "city",
									"type": "string"
								},
								{
									"internalType": "string",
									"name": "physicalAddress",
									"type": "string"
								},
								{
									"internalType": "int256",
									"name": "longitude",
									"type": "int256"
								},
								{
									"internalType": "int256",
									"name": "latitude",
									"type": "int256"
								}
							],
							"internalType": "struct Wall.Location",
							"name": "location",
							"type": "tuple"
						},
						{
							"internalType": "uint256",
							"name": "size",
							"type": "uint256"
						},
						{
							"internalType": "bool",
							"name": "isInGallery",
							"type": "bool"
						},
						{
							"internalType": "bool",
							"name": "isPainted",
							"type": "bool"
						},
						{
							"internalType": "address",
							"name": "galleryOwner",
							"type": "address"
						},
						{
							"internalType": "uint256",
							"name": "createdAt",
							"type": "uint256"
						},
						{
							"internalType": "uint256",
							"name": "lastUpdated",
							"type": "uint256"
						}
					],
					"internalType": "struct Wall.WallData",
					"name": "wallData",
					"type": "tuple"
				},
				{
					"internalType": "bool",
					"name": "pending",
					"type": "bool"
				},
				{
					"internalType": "bool",
					"name": "approved",
					"type": "bool"
				}
			],
			"stateMutability": "view",
			"type": "function"
		},
		{
			"inputs": [
				{
					"internalType": "uint256",
					"name": "",
					"type": "uint256"
				}
			],
			"name": "walls",
			"outputs": [
				{
					"internalType": "uint256",
					"name": "id",
					"type": "uint256"
				},
				{
					"internalType": "address",
					"name": "owner",
					"type": "address"
				},
				{
					"components": [
						{
							"internalType": "string",
							"name": "country",
							"type": "string"
						},
						{
							"internalType": "string",
							"name": "city",
							"type": "string"
						},
						{
							"internalType": "string",
							"name": "physicalAddress",
							"type": "string"
						},
						{
							"internalType": "int256",
							"name": "longitude",
							"type": "int256"
						},
						{
							"internalType": "int256",
							"name": "latitude",
							"type": "int256"
						}
					],
					"internalType": "struct Wall.Location",
					"name": "location",
					"type": "tuple"
				},
				{
					"internalType": "uint256",
					"name": "size",
					"type": "uint256"
				},
				{
					"internalType": "bool",
					"name": "isInGallery",
					"type": "bool"
				},
				{
					"internalType": "bool",
					"name": "isPainted",
					"type": "bool"
				},
				{
					"internalType": "address",
					"name": "galleryOwner",
					"type": "address"
				},
				{
					"internalType": "uint256",
					"name": "createdAt",
					"type": "uint256"
				},
				{
					"internalType": "uint256",
					"name": "lastUpdated",
					"type": "uint256"
				}
			],
			"stateMutability": "view",
			"type": "function"
		}
	]
}