{
	"data": {
		"bytecode": {
			"linkReferences": {},
			"object": "608060405234801562000010575f80fd5b50604051620024333803806200243383398181016040528101906200003691906200016d565b805f805f6101000a81548160ff0219169083151502179055505f73ffffffffffffffffffffffffffffffffffffffff168173ffffffffffffffffffffffffffffffffffffffff1603620000c0576040517f08c379a0000000000000000000000000000000000000000000000000000000008152600401620000b790620001fb565b60405180910390fd5b805f60016101000a81548173ffffffffffffffffffffffffffffffffffffffff021916908373ffffffffffffffffffffffffffffffffffffffff16021790555050506200021b565b5f80fd5b5f73ffffffffffffffffffffffffffffffffffffffff82169050919050565b5f62000137826200010c565b9050919050565b62000149816200012b565b811462000154575f80fd5b50565b5f8151905062000167816200013e565b92915050565b5f6020828403121562000185576200018462000108565b5b5f620001948482850162000157565b91505092915050565b5f82825260208201905092915050565b7f496e76616c696420526f6c654d616e61676572206164647265737300000000005f82015250565b5f620001e3601b836200019d565b9150620001f082620001ad565b602082019050919050565b5f6020820190508181035f8301526200021481620001d5565b9050919050565b61220a80620002295f395ff3fe608060405234801561000f575f80fd5b506004361061007a575f3560e01c80635c975abb116100595780635c975abb146100f05780636f725c131461010e5780639fd199f61461013e578063a1519b111461015a5761007a565b8062435da51461007e5780632596133b1461009c578063550a3dba146100b8575b5f80fd5b610086610176565b60405161009391906113ac565b60405180910390f35b6100b660048036038101906100b19190611400565b61019b565b005b6100d260048036038101906100cd9190611400565b6105b4565b6040516100e799989796959493929190611597565b60405180910390f35b6100f8610823565b6040516101059190611629565b60405180910390f35b6101286004803603810190610123919061166c565b610837565b60405161013591906116aa565b60405180910390f35b6101586004803603810190610153919061174e565b610862565b005b610174600480360381019061016f919061184b565b610c2e565b005b5f60019054906101000a900473ffffffffffffffffffffffffffffffffffffffff1681565b805f73ffffffffffffffffffffffffffffffffffffffff1660025f8381526020019081526020015f206001015f9054906101000a900473ffffffffffffffffffffffffffffffffffffffff1673ffffffffffffffffffffffffffffffffffffffff160361023d576040517f08c379a0000000000000000000000000000000000000000000000000000000008152600401610234906118e3565b60405180910390fd5b6102456111eb565b5f60019054906101000a900473ffffffffffffffffffffffffffffffffffffffff1673ffffffffffffffffffffffffffffffffffffffff166391d148545f60019054906101000a900473ffffffffffffffffffffffffffffffffffffffff1673ffffffffffffffffffffffffffffffffffffffff1663303e38406040518163ffffffff1660e01b8152600401602060405180830381865afa1580156102ec573d5f803e3d5ffd5b505050506040513d601f19601f820116820180604052508101906103109190611934565b336040518363ffffffff1660e01b815260040161032e92919061196e565b602060405180830381865afa158015610349573d5f803e3d5ffd5b505050506040513d601f19601f8201168201806040525081019061036d91906119bf565b8061049c57505f60019054906101000a900473ffffffffffffffffffffffffffffffffffffffff1673ffffffffffffffffffffffffffffffffffffffff166391d148545f60019054906101000a900473ffffffffffffffffffffffffffffffffffffffff1673ffffffffffffffffffffffffffffffffffffffff166375b238fc6040518163ffffffff1660e01b8152600401602060405180830381865afa15801561041a573d5f803e3d5ffd5b505050506040513d601f19601f8201168201806040525081019061043e9190611934565b336040518363ffffffff1660e01b815260040161045c92919061196e565b602060405180830381865afa158015610477573d5f803e3d5ffd5b505050506040513d601f19601f8201168201806040525081019061049b91906119bf565b5b6104db576040517f08c379a00000000000000000000000000000000000000000000000000000000081526004016104d290611a5a565b60405180910390fd5b60025f8381526020019081526020015f2060080160019054906101000a900460ff161561053d576040517f08c379a000000000000000000000000000000000000000000000000000000000815260040161053490611ac2565b60405180910390fd5b600160025f8481526020019081526020015f2060080160016101000a81548160ff0219169083151502179055504260025f8481526020019081526020015f20600a0181905550817fec94de210998ba2eacea6999d704553270a7bf8688113bbacb31773450e6b74860405160405180910390a25050565b6002602052805f5260405f205f91509050805f015490806001015f9054906101000a900473ffffffffffffffffffffffffffffffffffffffff1690806002016040518060a00160405290815f8201805461060d90611b0d565b80601f016020809104026020016040519081016040528092919081815260200182805461063990611b0d565b80156106845780601f1061065b57610100808354040283529160200191610684565b820191905f5260205f20905b81548152906001019060200180831161066757829003601f168201915b5050505050815260200160018201805461069d90611b0d565b80601f01602080910402602001604051908101604052809291908181526020018280546106c990611b0d565b80156107145780601f106106eb57610100808354040283529160200191610714565b820191905f5260205f20905b8154815290600101906020018083116106f757829003601f168201915b5050505050815260200160028201805461072d90611b0d565b80601f016020809104026020016040519081016040528092919081815260200182805461075990611b0d565b80156107a45780601f1061077b576101008083540402835291602001916107a4565b820191905f5260205f20905b81548152906001019060200180831161078757829003601f168201915b505050505081526020016003820154815260200160048201548152505090806007015490806008015f9054906101000a900460ff16908060080160019054906101000a900460ff16908060080160029054906101000a900473ffffffffffffffffffffffffffffffffffffffff169080600901549080600a0154905089565b5f805f9054906101000a900460ff16905090565b6003602052815f5260405f208181548110610850575f80fd5b905f5260205f20015f91509150505481565b895f73ffffffffffffffffffffffffffffffffffffffff1660025f8381526020019081526020015f206001015f9054906101000a900473ffffffffffffffffffffffffffffffffffffffff1673ffffffffffffffffffffffffffffffffffffffff1603610904576040517f08c379a00000000000000000000000000000000000000000000000000000000081526004016108fb906118e3565b60405180910390fd5b61090c6111eb565b3373ffffffffffffffffffffffffffffffffffffffff1660025f8d81526020019081526020015f206001015f9054906101000a900473ffffffffffffffffffffffffffffffffffffffff1673ffffffffffffffffffffffffffffffffffffffff161480610a9d57505f60019054906101000a900473ffffffffffffffffffffffffffffffffffffffff1673ffffffffffffffffffffffffffffffffffffffff166391d148545f60019054906101000a900473ffffffffffffffffffffffffffffffffffffffff1673ffffffffffffffffffffffffffffffffffffffff166375b238fc6040518163ffffffff1660e01b8152600401602060405180830381865afa158015610a1b573d5f803e3d5ffd5b505050506040513d601f19601f82011682018060405250810190610a3f9190611934565b336040518363ffffffff1660e01b8152600401610a5d92919061196e565b602060405180830381865afa158015610a78573d5f803e3d5ffd5b505050506040513d601f19601f82011682018060405250810190610a9c91906119bf565b5b610adc576040517f08c379a0000000000000000000000000000000000000000000000000000000008152600401610ad390611b87565b60405180910390fd5b5f8a8a9050118015610af057505f88889050115b610b2f576040517f08c379a0000000000000000000000000000000000000000000000000000000008152600401610b2690611bef565b60405180910390fd5b5f8211610b71576040517f08c379a0000000000000000000000000000000000000000000000000000000008152600401610b6890611c57565b60405180910390fd5b5f60025f8d81526020019081526020015f2090508a8a826002015f019182610b9a929190611e40565b508888826002016001019182610bb1929190611e40565b508686826002016002019182610bc8929190611e40565b508481600201600301819055508381600201600401819055508281600701819055504281600a01819055508b7fd62fa94c71eba8cfe5ab835190623c67e15149837fd0cd60c1c170a8f31439e360405160405180910390a2505050505050505050505050565b815f73ffffffffffffffffffffffffffffffffffffffff1660025f8381526020019081526020015f206001015f9054906101000a900473ffffffffffffffffffffffffffffffffffffffff1673ffffffffffffffffffffffffffffffffffffffff1603610cd0576040517f08c379a0000000000000000000000000000000000000000000000000000000008152600401610cc7906118e3565b60405180910390fd5b610cd86111eb565b3373ffffffffffffffffffffffffffffffffffffffff1660025f8581526020019081526020015f206001015f9054906101000a900473ffffffffffffffffffffffffffffffffffffffff1673ffffffffffffffffffffffffffffffffffffffff161480610e6957505f60019054906101000a900473ffffffffffffffffffffffffffffffffffffffff1673ffffffffffffffffffffffffffffffffffffffff166391d148545f60019054906101000a900473ffffffffffffffffffffffffffffffffffffffff1673ffffffffffffffffffffffffffffffffffffffff166375b238fc6040518163ffffffff1660e01b8152600401602060405180830381865afa158015610de7573d5f803e3d5ffd5b505050506040513d601f19601f82011682018060405250810190610e0b9190611934565b336040518363ffffffff1660e01b8152600401610e2992919061196e565b602060405180830381865afa158015610e44573d5f803e3d5ffd5b505050506040513d601f19601f82011682018060405250810190610e6891906119bf565b5b610ea8576040517f08c379a0000000000000000000000000000000000000000000000000000000008152600401610e9f90611f57565b60405180910390fd5b5f73ffffffffffffffffffffffffffffffffffffffff168273ffffffffffffffffffffffffffffffffffffffff1603610f16576040517f08c379a0000000000000000000000000000000000000000000000000000000008152600401610f0d90611fbf565b60405180910390fd5b5f60019054906101000a900473ffffffffffffffffffffffffffffffffffffffff1673ffffffffffffffffffffffffffffffffffffffff166391d148545f60019054906101000a900473ffffffffffffffffffffffffffffffffffffffff1673ffffffffffffffffffffffffffffffffffffffff166398e4abb56040518163ffffffff1660e01b8152600401602060405180830381865afa158015610fbd573d5f803e3d5ffd5b505050506040513d601f19601f82011682018060405250810190610fe19190611934565b846040518363ffffffff1660e01b8152600401610fff92919061196e565b602060405180830381865afa15801561101a573d5f803e3d5ffd5b505050506040513d601f19601f8201168201806040525081019061103e91906119bf565b61107d576040517f08c379a00000000000000000000000000000000000000000000000000000000081526004016110749061204d565b60405180910390fd5b5f60025f8581526020019081526020015f206001015f9054906101000a900473ffffffffffffffffffffffffffffffffffffffff1690508260025f8681526020019081526020015f206001015f6101000a81548173ffffffffffffffffffffffffffffffffffffffff021916908373ffffffffffffffffffffffffffffffffffffffff1602179055504260025f8681526020019081526020015f20600a01819055506111298482611235565b60035f8473ffffffffffffffffffffffffffffffffffffffff1673ffffffffffffffffffffffffffffffffffffffff1681526020019081526020015f2084908060018154018082558091505060019003905f5260205f20015f90919091909150558273ffffffffffffffffffffffffffffffffffffffff168173ffffffffffffffffffffffffffffffffffffffff16857fa54354750c707642a038f4ac683faa206a3649a6c35a44f9640d34d20578b15b60405160405180910390a450505050565b6111f3610823565b15611233576040517f08c379a000000000000000000000000000000000000000000000000000000000815260040161122a906120b5565b60405180910390fd5b565b5f60035f8373ffffffffffffffffffffffffffffffffffffffff1673ffffffffffffffffffffffffffffffffffffffff1681526020019081526020015f2090505f5b818054905081101561132c5783828281548110611297576112966120d3565b5b905f5260205f200154036113195781600183805490506112b7919061212d565b815481106112c8576112c76120d3565b5b905f5260205f2001548282815481106112e4576112e36120d3565b5b905f5260205f2001819055508180548061130157611300612160565b5b600190038181905f5260205f20015f9055905561132c565b80806113249061218d565b915050611277565b50505050565b5f73ffffffffffffffffffffffffffffffffffffffff82169050919050565b5f819050919050565b5f61137461136f61136a84611332565b611351565b611332565b9050919050565b5f6113858261135a565b9050919050565b5f6113968261137b565b9050919050565b6113a68161138c565b82525050565b5f6020820190506113bf5f83018461139d565b92915050565b5f80fd5b5f80fd5b5f819050919050565b6113df816113cd565b81146113e9575f80fd5b50565b5f813590506113fa816113d6565b92915050565b5f60208284031215611415576114146113c5565b5b5f611422848285016113ec565b91505092915050565b611434816113cd565b82525050565b5f61144482611332565b9050919050565b6114548161143a565b82525050565b5f81519050919050565b5f82825260208201905092915050565b5f5b83811015611491578082015181840152602081019050611476565b5f8484015250505050565b5f601f19601f8301169050919050565b5f6114b68261145a565b6114c08185611464565b93506114d0818560208601611474565b6114d98161149c565b840191505092915050565b5f819050919050565b6114f6816114e4565b82525050565b5f60a083015f8301518482035f86015261151682826114ac565b9150506020830151848203602086015261153082826114ac565b9150506040830151848203604086015261154a82826114ac565b915050606083015161155f60608601826114ed565b50608083015161157260808601826114ed565b508091505092915050565b5f8115159050919050565b6115918161157d565b82525050565b5f610120820190506115ab5f83018c61142b565b6115b8602083018b61144b565b81810360408301526115ca818a6114fc565b90506115d9606083018961142b565b6115e66080830188611588565b6115f360a0830187611588565b61160060c083018661144b565b61160d60e083018561142b565b61161b61010083018461142b565b9a9950505050505050505050565b5f60208201905061163c5f830184611588565b92915050565b61164b8161143a565b8114611655575f80fd5b50565b5f8135905061166681611642565b92915050565b5f8060408385031215611682576116816113c5565b5b5f61168f85828601611658565b92505060206116a0858286016113ec565b9150509250929050565b5f6020820190506116bd5f83018461142b565b92915050565b5f80fd5b5f80fd5b5f80fd5b5f8083601f8401126116e4576116e36116c3565b5b8235905067ffffffffffffffff811115611701576117006116c7565b5b60208301915083600182028301111561171d5761171c6116cb565b5b9250929050565b61172d816114e4565b8114611737575f80fd5b50565b5f8135905061174881611724565b92915050565b5f805f805f805f805f8060e08b8d03121561176c5761176b6113c5565b5b5f6117798d828e016113ec565b9a505060208b013567ffffffffffffffff81111561179a576117996113c9565b5b6117a68d828e016116cf565b995099505060408b013567ffffffffffffffff8111156117c9576117c86113c9565b5b6117d58d828e016116cf565b975097505060608b013567ffffffffffffffff8111156117f8576117f76113c9565b5b6118048d828e016116cf565b955095505060806118178d828e0161173a565b93505060a06118288d828e0161173a565b92505060c06118398d828e016113ec565b9150509295989b9194979a5092959850565b5f8060408385031215611861576118606113c5565b5b5f61186e858286016113ec565b925050602061187f85828601611658565b9150509250929050565b5f82825260208201905092915050565b7f57616c6c20646f6573206e6f74206578697374000000000000000000000000005f82015250565b5f6118cd601383611889565b91506118d882611899565b602082019050919050565b5f6020820190508181035f8301526118fa816118c1565b9050919050565b5f819050919050565b61191381611901565b811461191d575f80fd5b50565b5f8151905061192e8161190a565b92915050565b5f60208284031215611949576119486113c5565b5b5f61195684828501611920565b91505092915050565b61196881611901565b82525050565b5f6040820190506119815f83018561195f565b61198e602083018461144b565b9392505050565b61199e8161157d565b81146119a8575f80fd5b50565b5f815190506119b981611995565b92915050565b5f602082840312156119d4576119d36113c5565b5b5f6119e1848285016119ab565b91505092915050565b7f4e6f7420617574686f72697a656420746f206d61726b2077616c6c20617320705f8201527f61696e7465640000000000000000000000000000000000000000000000000000602082015250565b5f611a44602683611889565b9150611a4f826119ea565b604082019050919050565b5f6020820190508181035f830152611a7181611a38565b9050919050565b7f57616c6c20616c7265616479207061696e7465640000000000000000000000005f82015250565b5f611aac601483611889565b9150611ab782611a78565b602082019050919050565b5f6020820190508181035f830152611ad981611aa0565b9050919050565b7f4e487b71000000000000000000000000000000000000000000000000000000005f52602260045260245ffd5b5f6002820490506001821680611b2457607f821691505b602082108103611b3757611b36611ae0565b5b50919050565b7f4e6f7420617574686f72697a656420746f207570646174652077616c6c0000005f82015250565b5f611b71601d83611889565b9150611b7c82611b3d565b602082019050919050565b5f6020820190508181035f830152611b9e81611b65565b9050919050565b7f496e76616c6964206c6f636174696f6e206461746100000000000000000000005f82015250565b5f611bd9601583611889565b9150611be482611ba5565b602082019050919050565b5f6020820190508181035f830152611c0681611bcd565b9050919050565b7f496e76616c69642073697a6500000000000000000000000000000000000000005f82015250565b5f611c41600c83611889565b9150611c4c82611c0d565b602082019050919050565b5f6020820190508181035f830152611c6e81611c35565b9050919050565b5f82905092915050565b7f4e487b71000000000000000000000000000000000000000000000000000000005f52604160045260245ffd5b5f819050815f5260205f209050919050565b5f6020601f8301049050919050565b5f82821b905092915050565b5f60088302611d087fffffffffffffffffffffffffffffffffffffffffffffffffffffffffffffffff82611ccd565b611d128683611ccd565b95508019841693508086168417925050509392505050565b5f611d44611d3f611d3a846113cd565b611351565b6113cd565b9050919050565b5f819050919050565b611d5d83611d2a565b611d71611d6982611d4b565b848454611cd9565b825550505050565b5f90565b611d85611d79565b611d90818484611d54565b505050565b5b81811015611db357611da85f82611d7d565b600181019050611d96565b5050565b601f821115611df857611dc981611cac565b611dd284611cbe565b81016020851015611de1578190505b611df5611ded85611cbe565b830182611d95565b50505b505050565b5f82821c905092915050565b5f611e185f1984600802611dfd565b1980831691505092915050565b5f611e308383611e09565b9150826002028217905092915050565b611e4a8383611c75565b67ffffffffffffffff811115611e6357611e62611c7f565b5b611e6d8254611b0d565b611e78828285611db7565b5f601f831160018114611ea5575f8415611e93578287013590505b611e9d8582611e25565b865550611f04565b601f198416611eb386611cac565b5f5b82811015611eda57848901358255600182019150602085019450602081019050611eb5565b86831015611ef75784890135611ef3601f891682611e09565b8355505b6001600288020188555050505b50505050505050565b7f4e6f7420617574686f72697a656420746f207472616e736665722077616c6c005f82015250565b5f611f41601f83611889565b9150611f4c82611f0d565b602082019050919050565b5f6020820190508181035f830152611f6e81611f35565b9050919050565b7f496e76616c6964206e6577206f776e65720000000000000000000000000000005f82015250565b5f611fa9601183611889565b9150611fb482611f75565b602082019050919050565b5f6020820190508181035f830152611fd681611f9d565b9050919050565b7f4e6577206f776e6572206d75737420686176652057414c4c5f4f574e45525f525f8201527f4f4c450000000000000000000000000000000000000000000000000000000000602082015250565b5f612037602383611889565b915061204282611fdd565b604082019050919050565b5f6020820190508181035f8301526120648161202b565b9050919050565b7f5061757361626c653a20706175736564000000000000000000000000000000005f82015250565b5f61209f601083611889565b91506120aa8261206b565b602082019050919050565b5f6020820190508181035f8301526120cc81612093565b9050919050565b7f4e487b71000000000000000000000000000000000000000000000000000000005f52603260045260245ffd5b7f4e487b71000000000000000000000000000000000000000000000000000000005f52601160045260245ffd5b5f612137826113cd565b9150612142836113cd565b925082820390508181111561215a57612159612100565b5b92915050565b7f4e487b71000000000000000000000000000000000000000000000000000000005f52603160045260245ffd5b5f612197826113cd565b91507fffffffffffffffffffffffffffffffffffffffffffffffffffffffffffffffff82036121c9576121c8612100565b5b60018201905091905056fea26469706673582212201e40776ca3b250cc506a69987ebe8469de0e337c09db7d96e0012acc97cf165164736f6c63430008140033",
			"opcodes": "PUSH1 0x80 PUSH1 0x40 MSTORE CALLVALUE DUP1 ISZERO PUSH3 0x10 JUMPI PUSH0 DUP1 REVERT JUMPDEST POP PUSH1 0x40 MLOAD PUSH3 0x2433 CODESIZE SUB DUP1 PUSH3 0x2433 DUP4 CODECOPY DUP2 DUP2 ADD PUSH1 0x40 MSTORE DUP2 ADD SWAP1 PUSH3 0x36 SWAP2 SWAP1 PUSH3 0x16D JUMP JUMPDEST DUP1 PUSH0 DUP1 PUSH0 PUSH2 0x100 EXP DUP2 SLOAD DUP2 PUSH1 0xFF MUL NOT AND SWAP1 DUP4 ISZERO ISZERO MUL OR SWAP1 SSTORE POP PUSH0 PUSH20 0xFFFFFFFFFFFFFFFFFFFFFFFFFFFFFFFFFFFFFFFF AND DUP2 PUSH20 0xFFFFFFFFFFFFFFFFFFFFFFFFFFFFFFFFFFFFFFFF AND SUB PUSH3 0xC0 JUMPI PUSH1 0x40 MLOAD PUSH32 0x8C379A000000000000000000000000000000000000000000000000000000000 DUP2 MSTORE PUSH1 0x4 ADD PUSH3 0xB7 SWAP1 PUSH3 0x1FB JUMP JUMPDEST PUSH1 0x40 MLOAD DUP1 SWAP2 SUB SWAP1 REVERT JUMPDEST DUP1 PUSH0 PUSH1 0x1 PUSH2 0x100 EXP DUP2 SLOAD DUP2 PUSH20 0xFFFFFFFFFFFFFFFFFFFFFFFFFFFFFFFFFFFFFFFF MUL NOT AND SWAP1 DUP4 PUSH20 0xFFFFFFFFFFFFFFFFFFFFFFFFFFFFFFFFFFFFFFFF AND MUL OR SWAP1 SSTORE POP POP POP PUSH3 0x21B JUMP JUMPDEST PUSH0 DUP1 REVERT JUMPDEST PUSH0 PUSH20 0xFFFFFFFFFFFFFFFFFFFFFFFFFFFFFFFFFFFFFFFF DUP3 AND SWAP1 POP SWAP2 SWAP1 POP JUMP JUMPDEST PUSH0 PUSH3 0x137 DUP3 PUSH3 0x10C JUMP JUMPDEST SWAP1 POP SWAP2 SWAP1 POP JUMP JUMPDEST PUSH3 0x149 DUP2 PUSH3 0x12B JUMP JUMPDEST DUP2 EQ PUSH3 0x154 JUMPI PUSH0 DUP1 REVERT JUMPDEST POP JUMP JUMPDEST PUSH0 DUP2 MLOAD SWAP1 POP PUSH3 0x167 DUP2 PUSH3 0x13E JUMP JUMPDEST SWAP3 SWAP2 POP POP JUMP JUMPDEST PUSH0 PUSH1 0x20 DUP3 DUP5 SUB SLT ISZERO PUSH3 0x185 JUMPI PUSH3 0x184 PUSH3 0x108 JUMP JUMPDEST JUMPDEST PUSH0 PUSH3 0x194 DUP5 DUP3 DUP6 ADD PUSH3 0x157 JUMP JUMPDEST SWAP2 POP POP SWAP3 SWAP2 POP POP JUMP JUMPDEST PUSH0 DUP3 DUP3 MSTORE PUSH1 0x20 DUP3 ADD SWAP1 POP SWAP3 SWAP2 POP POP JUMP JUMPDEST PUSH32 0x496E76616C696420526F6C654D616E6167657220616464726573730000000000 PUSH0 DUP3 ADD MSTORE POP JUMP JUMPDEST PUSH0 PUSH3 0x1E3 PUSH1 0x1B DUP4 PUSH3 0x19D JUMP JUMPDEST SWAP2 POP PUSH3 0x1F0 DUP3 PUSH3 0x1AD JUMP JUMPDEST PUSH1 0x20 DUP3 ADD SWAP1 POP SWAP2 SWAP1 POP JUMP JUMPDEST PUSH0 PUSH1 0x20 DUP3 ADD SWAP1 POP DUP2 DUP2 SUB PUSH0 DUP4 ADD MSTORE PUSH3 0x214 DUP2 PUSH3 0x1D5 JUMP JUMPDEST SWAP1 POP SWAP2 SWAP1 POP JUMP JUMPDEST PUSH2 0x220A DUP1 PUSH3 0x229 PUSH0 CODECOPY PUSH0 RETURN INVALID PUSH1 0x80 PUSH1 0x40 MSTORE CALLVALUE DUP1 ISZERO PUSH2 0xF JUMPI PUSH0 DUP1 REVERT JUMPDEST POP PUSH1 0x4 CALLDATASIZE LT PUSH2 0x7A JUMPI PUSH0 CALLDATALOAD PUSH1 0xE0 SHR DUP1 PUSH4 0x5C975ABB GT PUSH2 0x59 JUMPI DUP1 PUSH4 0x5C975ABB EQ PUSH2 0xF0 JUMPI DUP1 PUSH4 0x6F725C13 EQ PUSH2 0x10E JUMPI DUP1 PUSH4 0x9FD199F6 EQ PUSH2 0x13E JUMPI DUP1 PUSH4 0xA1519B11 EQ PUSH2 0x15A JUMPI PUSH2 0x7A JUMP JUMPDEST DUP1 PUSH3 0x435DA5 EQ PUSH2 0x7E JUMPI DUP1 PUSH4 0x2596133B EQ PUSH2 0x9C JUMPI DUP1 PUSH4 0x550A3DBA EQ PUSH2 0xB8 JUMPI JUMPDEST PUSH0 DUP1 REVERT JUMPDEST PUSH2 0x86 PUSH2 0x176 JUMP JUMPDEST PUSH1 0x40 MLOAD PUSH2 0x93 SWAP2 SWAP1 PUSH2 0x13AC JUMP JUMPDEST PUSH1 0x40 MLOAD DUP1 SWAP2 SUB SWAP1 RETURN JUMPDEST PUSH2 0xB6 PUSH1 0x4 DUP1 CALLDATASIZE SUB DUP2 ADD SWAP1 PUSH2 0xB1 SWAP2 SWAP1 PUSH2 0x1400 JUMP JUMPDEST PUSH2 0x19B JUMP JUMPDEST STOP JUMPDEST PUSH2 0xD2 PUSH1 0x4 DUP1 CALLDATASIZE SUB DUP2 ADD SWAP1 PUSH2 0xCD SWAP2 SWAP1 PUSH2 0x1400 JUMP JUMPDEST PUSH2 0x5B4 JUMP JUMPDEST PUSH1 0x40 MLOAD PUSH2 0xE7 SWAP10 SWAP9 SWAP8 SWAP7 SWAP6 SWAP5 SWAP4 SWAP3 SWAP2 SWAP1 PUSH2 0x1597 JUMP JUMPDEST PUSH1 0x40 MLOAD DUP1 SWAP2 SUB SWAP1 RETURN JUMPDEST PUSH2 0xF8 PUSH2 0x823 JUMP JUMPDEST PUSH1 0x40 MLOAD PUSH2 0x105 SWAP2 SWAP1 PUSH2 0x1629 JUMP JUMPDEST PUSH1 0x40 MLOAD DUP1 SWAP2 SUB SWAP1 RETURN JUMPDEST PUSH2 0x128 PUSH1 0x4 DUP1 CALLDATASIZE SUB DUP2 ADD SWAP1 PUSH2 0x123 SWAP2 SWAP1 PUSH2 0x166C JUMP JUMPDEST PUSH2 0x837 JUMP JUMPDEST PUSH1 0x40 MLOAD PUSH2 0x135 SWAP2 SWAP1 PUSH2 0x16AA JUMP JUMPDEST PUSH1 0x40 MLOAD DUP1 SWAP2 SUB SWAP1 RETURN JUMPDEST PUSH2 0x158 PUSH1 0x4 DUP1 CALLDATASIZE SUB DUP2 ADD SWAP1 PUSH2 0x153 SWAP2 SWAP1 PUSH2 0x174E JUMP JUMPDEST PUSH2 0x862 JUMP JUMPDEST STOP JUMPDEST PUSH2 0x174 PUSH1 0x4 DUP1 CALLDATASIZE SUB DUP2 ADD SWAP1 PUSH2 0x16F SWAP2 SWAP1 PUSH2 0x184B JUMP JUMPDEST PUSH2 0xC2E JUMP JUMPDEST STOP JUMPDEST PUSH0 PUSH1 0x1 SWAP1 SLOAD SWAP1 PUSH2 0x100 EXP SWAP1 DIV PUSH20 0xFFFFFFFFFFFFFFFFFFFFFFFFFFFFFFFFFFFFFFFF AND DUP2 JUMP JUMPDEST DUP1 PUSH0 PUSH20 0xFFFFFFFFFFFFFFFFFFFFFFFFFFFFFFFFFFFFFFFF AND PUSH1 0x2 PUSH0 DUP4 DUP2 MSTORE PUSH1 0x20 ADD SWAP1 DUP2 MSTORE PUSH1 0x20 ADD PUSH0 KECCAK256 PUSH1 0x1 ADD PUSH0 SWAP1 SLOAD SWAP1 PUSH2 0x100 EXP SWAP1 DIV PUSH20 0xFFFFFFFFFFFFFFFFFFFFFFFFFFFFFFFFFFFFFFFF AND PUSH20 0xFFFFFFFFFFFFFFFFFFFFFFFFFFFFFFFFFFFFFFFF AND SUB PUSH2 0x23D JUMPI PUSH1 0x40 MLOAD PUSH32 0x8C379A000000000000000000000000000000000000000000000000000000000 DUP2 MSTORE PUSH1 0x4 ADD PUSH2 0x234 SWAP1 PUSH2 0x18E3 JUMP JUMPDEST PUSH1 0x40 MLOAD DUP1 SWAP2 SUB SWAP1 REVERT JUMPDEST PUSH2 0x245 PUSH2 0x11EB JUMP JUMPDEST PUSH0 PUSH1 0x1 SWAP1 SLOAD SWAP1 PUSH2 0x100 EXP SWAP1 DIV PUSH20 0xFFFFFFFFFFFFFFFFFFFFFFFFFFFFFFFFFFFFFFFF AND PUSH20 0xFFFFFFFFFFFFFFFFFFFFFFFFFFFFFFFFFFFFFFFF AND PUSH4 0x91D14854 PUSH0 PUSH1 0x1 SWAP1 SLOAD SWAP1 PUSH2 0x100 EXP SWAP1 DIV PUSH20 0xFFFFFFFFFFFFFFFFFFFFFFFFFFFFFFFFFFFFFFFF AND PUSH20 0xFFFFFFFFFFFFFFFFFFFFFFFFFFFFFFFFFFFFFFFF AND PUSH4 0x303E3840 PUSH1 0x40 MLOAD DUP2 PUSH4 0xFFFFFFFF AND PUSH1 0xE0 SHL DUP2 MSTORE PUSH1 0x4 ADD PUSH1 0x20 PUSH1 0x40 MLOAD DUP1 DUP4 SUB DUP2 DUP7 GAS STATICCALL ISZERO DUP1 ISZERO PUSH2 0x2EC JUMPI RETURNDATASIZE PUSH0 DUP1 RETURNDATACOPY RETURNDATASIZE PUSH0 REVERT JUMPDEST POP POP POP POP PUSH1 0x40 MLOAD RETURNDATASIZE PUSH1 0x1F NOT PUSH1 0x1F DUP3 ADD AND DUP3 ADD DUP1 PUSH1 0x40 MSTORE POP DUP2 ADD SWAP1 PUSH2 0x310 SWAP2 SWAP1 PUSH2 0x1934 JUMP JUMPDEST CALLER PUSH1 0x40 MLOAD DUP4 PUSH4 0xFFFFFFFF AND PUSH1 0xE0 SHL DUP2 MSTORE PUSH1 0x4 ADD PUSH2 0x32E SWAP3 SWAP2 SWAP1 PUSH2 0x196E JUMP JUMPDEST PUSH1 0x20 PUSH1 0x40 MLOAD DUP1 DUP4 SUB DUP2 DUP7 GAS STATICCALL ISZERO DUP1 ISZERO PUSH2 0x349 JUMPI RETURNDATASIZE PUSH0 DUP1 RETURNDATACOPY RETURNDATASIZE PUSH0 REVERT JUMPDEST POP POP POP POP PUSH1 0x40 MLOAD RETURNDATASIZE PUSH1 0x1F NOT PUSH1 0x1F DUP3 ADD AND DUP3 ADD DUP1 PUSH1 0x40 MSTORE POP DUP2 ADD SWAP1 PUSH2 0x36D SWAP2 SWAP1 PUSH2 0x19BF JUMP JUMPDEST DUP1 PUSH2 0x49C JUMPI POP PUSH0 PUSH1 0x1 SWAP1 SLOAD SWAP1 PUSH2 0x100 EXP SWAP1 DIV PUSH20 0xFFFFFFFFFFFFFFFFFFFFFFFFFFFFFFFFFFFFFFFF AND PUSH20 0xFFFFFFFFFFFFFFFFFFFFFFFFFFFFFFFFFFFFFFFF AND PUSH4 0x91D14854 PUSH0 PUSH1 0x1 SWAP1 SLOAD SWAP1 PUSH2 0x100 EXP SWAP1 DIV PUSH20 0xFFFFFFFFFFFFFFFFFFFFFFFFFFFFFFFFFFFFFFFF AND PUSH20 0xFFFFFFFFFFFFFFFFFFFFFFFFFFFFFFFFFFFFFFFF AND PUSH4 0x75B238FC PUSH1 0x40 MLOAD DUP2 PUSH4 0xFFFFFFFF AND PUSH1 0xE0 SHL DUP2 MSTORE PUSH1 0x4 ADD PUSH1 0x20 PUSH1 0x40 MLOAD DUP1 DUP4 SUB DUP2 DUP7 GAS STATICCALL ISZERO DUP1 ISZERO PUSH2 0x41A JUMPI RETURNDATASIZE PUSH0 DUP1 RETURNDATACOPY RETURNDATASIZE PUSH0 REVERT JUMPDEST POP POP POP POP PUSH1 0x40 MLOAD RETURNDATASIZE PUSH1 0x1F NOT PUSH1 0x1F DUP3 ADD AND DUP3 ADD DUP1 PUSH1 0x40 MSTORE POP DUP2 ADD SWAP1 PUSH2 0x43E SWAP2 SWAP1 PUSH2 0x1934 JUMP JUMPDEST CALLER PUSH1 0x40 MLOAD DUP4 PUSH4 0xFFFFFFFF AND PUSH1 0xE0 SHL DUP2 MSTORE PUSH1 0x4 ADD PUSH2 0x45C SWAP3 SWAP2 SWAP1 PUSH2 0x196E JUMP JUMPDEST PUSH1 0x20 PUSH1 0x40 MLOAD DUP1 DUP4 SUB DUP2 DUP7 GAS STATICCALL ISZERO DUP1 ISZERO PUSH2 0x477 JUMPI RETURNDATASIZE PUSH0 DUP1 RETURNDATACOPY RETURNDATASIZE PUSH0 REVERT JUMPDEST POP POP POP POP PUSH1 0x40 MLOAD RETURNDATASIZE PUSH1 0x1F NOT PUSH1 0x1F DUP3 ADD AND DUP3 ADD DUP1 PUSH1 0x40 MSTORE POP DUP2 ADD SWAP1 PUSH2 0x49B SWAP2 SWAP1 PUSH2 0x19BF JUMP JUMPDEST JUMPDEST PUSH2 0x4DB JUMPI PUSH1 0x40 MLOAD PUSH32 0x8C379A000000000000000000000000000000000000000000000000000000000 DUP2 MSTORE PUSH1 0x4 ADD PUSH2 0x4D2 SWAP1 PUSH2 0x1A5A JUMP JUMPDEST PUSH1 0x40 MLOAD DUP1 SWAP2 SUB SWAP1 REVERT JUMPDEST PUSH1 0x2 PUSH0 DUP4 DUP2 MSTORE PUSH1 0x20 ADD SWAP1 DUP2 MSTORE PUSH1 0x20 ADD PUSH0 KECCAK256 PUSH1 0x8 ADD PUSH1 0x1 SWAP1 SLOAD SWAP1 PUSH2 0x100 EXP SWAP1 DIV PUSH1 0xFF AND ISZERO PUSH2 0x53D JUMPI PUSH1 0x40 MLOAD PUSH32 0x8C379A000000000000000000000000000000000000000000000000000000000 DUP2 MSTORE PUSH1 0x4 ADD PUSH2 0x534 SWAP1 PUSH2 0x1AC2 JUMP JUMPDEST PUSH1 0x40 MLOAD DUP1 SWAP2 SUB SWAP1 REVERT JUMPDEST PUSH1 0x1 PUSH1 0x2 PUSH0 DUP5 DUP2 MSTORE PUSH1 0x20 ADD SWAP1 DUP2 MSTORE PUSH1 0x20 ADD PUSH0 KECCAK256 PUSH1 0x8 ADD PUSH1 0x1 PUSH2 0x100 EXP DUP2 SLOAD DUP2 PUSH1 0xFF MUL NOT AND SWAP1 DUP4 ISZERO ISZERO MUL OR SWAP1 SSTORE POP TIMESTAMP PUSH1 0x2 PUSH0 DUP5 DUP2 MSTORE PUSH1 0x20 ADD SWAP1 DUP2 MSTORE PUSH1 0x20 ADD PUSH0 KECCAK256 PUSH1 0xA ADD DUP2 SWAP1 SSTORE POP DUP2 PUSH32 0xEC94DE210998BA2EACEA6999D704553270A7BF8688113BBACB31773450E6B748 PUSH1 0x40 MLOAD PUSH1 0x40 MLOAD DUP1 SWAP2 SUB SWAP1 LOG2 POP POP JUMP JUMPDEST PUSH1 0x2 PUSH1 0x20 MSTORE DUP1 PUSH0 MSTORE PUSH1 0x40 PUSH0 KECCAK256 PUSH0 SWAP2 POP SWAP1 POP DUP1 PUSH0 ADD SLOAD SWAP1 DUP1 PUSH1 0x1 ADD PUSH0 SWAP1 SLOAD SWAP1 PUSH2 0x100 EXP SWAP1 DIV PUSH20 0xFFFFFFFFFFFFFFFFFFFFFFFFFFFFFFFFFFFFFFFF AND SWAP1 DUP1 PUSH1 0x2 ADD PUSH1 0x40 MLOAD DUP1 PUSH1 0xA0 ADD PUSH1 0x40 MSTORE SWAP1 DUP2 PUSH0 DUP3 ADD DUP1 SLOAD PUSH2 0x60D SWAP1 PUSH2 0x1B0D JUMP JUMPDEST DUP1 PUSH1 0x1F ADD PUSH1 0x20 DUP1 SWAP2 DIV MUL PUSH1 0x20 ADD PUSH1 0x40 MLOAD SWAP1 DUP2 ADD PUSH1 0x40 MSTORE DUP1 SWAP3 SWAP2 SWAP1 DUP2 DUP2 MSTORE PUSH1 0x20 ADD DUP3 DUP1 SLOAD PUSH2 0x639 SWAP1 PUSH2 0x1B0D JUMP JUMPDEST DUP1 ISZERO PUSH2 0x684 JUMPI DUP1 PUSH1 0x1F LT PUSH2 0x65B JUMPI PUSH2 0x100 DUP1 DUP4 SLOAD DIV MUL DUP4 MSTORE SWAP2 PUSH1 0x20 ADD SWAP2 PUSH2 0x684 JUMP JUMPDEST DUP3 ADD SWAP2 SWAP1 PUSH0 MSTORE PUSH1 0x20 PUSH0 KECCAK256 SWAP1 JUMPDEST DUP2 SLOAD DUP2 MSTORE SWAP1 PUSH1 0x1 ADD SWAP1 PUSH1 0x20 ADD DUP1 DUP4 GT PUSH2 0x667 JUMPI DUP3 SWAP1 SUB PUSH1 0x1F AND DUP3 ADD SWAP2 JUMPDEST POP POP POP POP POP DUP2 MSTORE PUSH1 0x20 ADD PUSH1 0x1 DUP3 ADD DUP1 SLOAD PUSH2 0x69D SWAP1 PUSH2 0x1B0D JUMP JUMPDEST DUP1 PUSH1 0x1F ADD PUSH1 0x20 DUP1 SWAP2 DIV MUL PUSH1 0x20 ADD PUSH1 0x40 MLOAD SWAP1 DUP2 ADD PUSH1 0x40 MSTORE DUP1 SWAP3 SWAP2 SWAP1 DUP2 DUP2 MSTORE PUSH1 0x20 ADD DUP3 DUP1 SLOAD PUSH2 0x6C9 SWAP1 PUSH2 0x1B0D JUMP JUMPDEST DUP1 ISZERO PUSH2 0x714 JUMPI DUP1 PUSH1 0x1F LT PUSH2 0x6EB JUMPI PUSH2 0x100 DUP1 DUP4 SLOAD DIV MUL DUP4 MSTORE SWAP2 PUSH1 0x20 ADD SWAP2 PUSH2 0x714 JUMP JUMPDEST DUP3 ADD SWAP2 SWAP1 PUSH0 MSTORE PUSH1 0x20 PUSH0 KECCAK256 SWAP1 JUMPDEST DUP2 SLOAD DUP2 MSTORE SWAP1 PUSH1 0x1 ADD SWAP1 PUSH1 0x20 ADD DUP1 DUP4 GT PUSH2 0x6F7 JUMPI DUP3 SWAP1 SUB PUSH1 0x1F AND DUP3 ADD SWAP2 JUMPDEST POP POP POP POP POP DUP2 MSTORE PUSH1 0x20 ADD PUSH1 0x2 DUP3 ADD DUP1 SLOAD PUSH2 0x72D SWAP1 PUSH2 0x1B0D JUMP JUMPDEST DUP1 PUSH1 0x1F ADD PUSH1 0x20 DUP1 SWAP2 DIV MUL PUSH1 0x20 ADD PUSH1 0x40 MLOAD SWAP1 DUP2 ADD PUSH1 0x40 MSTORE DUP1 SWAP3 SWAP2 SWAP1 DUP2 DUP2 MSTORE PUSH1 0x20 ADD DUP3 DUP1 SLOAD PUSH2 0x759 SWAP1 PUSH2 0x1B0D JUMP JUMPDEST DUP1 ISZERO PUSH2 0x7A4 JUMPI DUP1 PUSH1 0x1F LT PUSH2 0x77B JUMPI PUSH2 0x100 DUP1 DUP4 SLOAD DIV MUL DUP4 MSTORE SWAP2 PUSH1 0x20 ADD SWAP2 PUSH2 0x7A4 JUMP JUMPDEST DUP3 ADD SWAP2 SWAP1 PUSH0 MSTORE PUSH1 0x20 PUSH0 KECCAK256 SWAP1 JUMPDEST DUP2 SLOAD DUP2 MSTORE SWAP1 PUSH1 0x1 ADD SWAP1 PUSH1 0x20 ADD DUP1 DUP4 GT PUSH2 0x787 JUMPI DUP3 SWAP1 SUB PUSH1 0x1F AND DUP3 ADD SWAP2 JUMPDEST POP POP POP POP POP DUP2 MSTORE PUSH1 0x20 ADD PUSH1 0x3 DUP3 ADD SLOAD DUP2 MSTORE PUSH1 0x20 ADD PUSH1 0x4 DUP3 ADD SLOAD DUP2 MSTORE POP POP SWAP1 DUP1 PUSH1 0x7 ADD SLOAD SWAP1 DUP1 PUSH1 0x8 ADD PUSH0 SWAP1 SLOAD SWAP1 PUSH2 0x100 EXP SWAP1 DIV PUSH1 0xFF AND SWAP1 DUP1 PUSH1 0x8 ADD PUSH1 0x1 SWAP1 SLOAD SWAP1 PUSH2 0x100 EXP SWAP1 DIV PUSH1 0xFF AND SWAP1 DUP1 PUSH1 0x8 ADD PUSH1 0x2 SWAP1 SLOAD SWAP1 PUSH2 0x100 EXP SWAP1 DIV PUSH20 0xFFFFFFFFFFFFFFFFFFFFFFFFFFFFFFFFFFFFFFFF AND SWAP1 DUP1 PUSH1 0x9 ADD SLOAD SWAP1 DUP1 PUSH1 0xA ADD SLOAD SWAP1 POP DUP10 JUMP JUMPDEST PUSH0 DUP1 PUSH0 SWAP1 SLOAD SWAP1 PUSH2 0x100 EXP SWAP1 DIV PUSH1 0xFF AND SWAP1 POP SWAP1 JUMP JUMPDEST PUSH1 0x3 PUSH1 0x20 MSTORE DUP2 PUSH0 MSTORE PUSH1 0x40 PUSH0 KECCAK256 DUP2 DUP2 SLOAD DUP2 LT PUSH2 0x850 JUMPI PUSH0 DUP1 REVERT JUMPDEST SWAP1 PUSH0 MSTORE PUSH1 0x20 PUSH0 KECCAK256 ADD PUSH0 SWAP2 POP SWAP2 POP POP SLOAD DUP2 JUMP JUMPDEST DUP10 PUSH0 PUSH20 0xFFFFFFFFFFFFFFFFFFFFFFFFFFFFFFFFFFFFFFFF AND PUSH1 0x2 PUSH0 DUP4 DUP2 MSTORE PUSH1 0x20 ADD SWAP1 DUP2 MSTORE PUSH1 0x20 ADD PUSH0 KECCAK256 PUSH1 0x1 ADD PUSH0 SWAP1 SLOAD SWAP1 PUSH2 0x100 EXP SWAP1 DIV PUSH20 0xFFFFFFFFFFFFFFFFFFFFFFFFFFFFFFFFFFFFFFFF AND PUSH20 0xFFFFFFFFFFFFFFFFFFFFFFFFFFFFFFFFFFFFFFFF AND SUB PUSH2 0x904 JUMPI PUSH1 0x40 MLOAD PUSH32 0x8C379A000000000000000000000000000000000000000000000000000000000 DUP2 MSTORE PUSH1 0x4 ADD PUSH2 0x8FB SWAP1 PUSH2 0x18E3 JUMP JUMPDEST PUSH1 0x40 MLOAD DUP1 SWAP2 SUB SWAP1 REVERT JUMPDEST PUSH2 0x90C PUSH2 0x11EB JUMP JUMPDEST CALLER PUSH20 0xFFFFFFFFFFFFFFFFFFFFFFFFFFFFFFFFFFFFFFFF AND PUSH1 0x2 PUSH0 DUP14 DUP2 MSTORE PUSH1 0x20 ADD SWAP1 DUP2 MSTORE PUSH1 0x20 ADD PUSH0 KECCAK256 PUSH1 0x1 ADD PUSH0 SWAP1 SLOAD SWAP1 PUSH2 0x100 EXP SWAP1 DIV PUSH20 0xFFFFFFFFFFFFFFFFFFFFFFFFFFFFFFFFFFFFFFFF AND PUSH20 0xFFFFFFFFFFFFFFFFFFFFFFFFFFFFFFFFFFFFFFFF AND EQ DUP1 PUSH2 0xA9D JUMPI POP PUSH0 PUSH1 0x1 SWAP1 SLOAD SWAP1 PUSH2 0x100 EXP SWAP1 DIV PUSH20 0xFFFFFFFFFFFFFFFFFFFFFFFFFFFFFFFFFFFFFFFF AND PUSH20 0xFFFFFFFFFFFFFFFFFFFFFFFFFFFFFFFFFFFFFFFF AND PUSH4 0x91D14854 PUSH0 PUSH1 0x1 SWAP1 SLOAD SWAP1 PUSH2 0x100 EXP SWAP1 DIV PUSH20 0xFFFFFFFFFFFFFFFFFFFFFFFFFFFFFFFFFFFFFFFF AND PUSH20 0xFFFFFFFFFFFFFFFFFFFFFFFFFFFFFFFFFFFFFFFF AND PUSH4 0x75B238FC PUSH1 0x40 MLOAD DUP2 PUSH4 0xFFFFFFFF AND PUSH1 0xE0 SHL DUP2 MSTORE PUSH1 0x4 ADD PUSH1 0x20 PUSH1 0x40 MLOAD DUP1 DUP4 SUB DUP2 DUP7 GAS STATICCALL ISZERO DUP1 ISZERO PUSH2 0xA1B JUMPI RETURNDATASIZE PUSH0 DUP1 RETURNDATACOPY RETURNDATASIZE PUSH0 REVERT JUMPDEST POP POP POP POP PUSH1 0x40 MLOAD RETURNDATASIZE PUSH1 0x1F NOT PUSH1 0x1F DUP3 ADD AND DUP3 ADD DUP1 PUSH1 0x40 MSTORE POP DUP2 ADD SWAP1 PUSH2 0xA3F SWAP2 SWAP1 PUSH2 0x1934 JUMP JUMPDEST CALLER PUSH1 0x40 MLOAD DUP4 PUSH4 0xFFFFFFFF AND PUSH1 0xE0 SHL DUP2 MSTORE PUSH1 0x4 ADD PUSH2 0xA5D SWAP3 SWAP2 SWAP1 PUSH2 0x196E JUMP JUMPDEST PUSH1 0x20 PUSH1 0x40 MLOAD DUP1 DUP4 SUB DUP2 DUP7 GAS STATICCALL ISZERO DUP1 ISZERO PUSH2 0xA78 JUMPI RETURNDATASIZE PUSH0 DUP1 RETURNDATACOPY RETURNDATASIZE PUSH0 REVERT JUMPDEST POP POP POP POP PUSH1 0x40 MLOAD RETURNDATASIZE PUSH1 0x1F NOT PUSH1 0x1F DUP3 ADD AND DUP3 ADD DUP1 PUSH1 0x40 MSTORE POP DUP2 ADD SWAP1 PUSH2 0xA9C SWAP2 SWAP1 PUSH2 0x19BF JUMP JUMPDEST JUMPDEST PUSH2 0xADC JUMPI PUSH1 0x40 MLOAD PUSH32 0x8C379A000000000000000000000000000000000000000000000000000000000 DUP2 MSTORE PUSH1 0x4 ADD PUSH2 0xAD3 SWAP1 PUSH2 0x1B87 JUMP JUMPDEST PUSH1 0x40 MLOAD DUP1 SWAP2 SUB SWAP1 REVERT JUMPDEST PUSH0 DUP11 DUP11 SWAP1 POP GT DUP1 ISZERO PUSH2 0xAF0 JUMPI POP PUSH0 DUP9 DUP9 SWAP1 POP GT JUMPDEST PUSH2 0xB2F JUMPI PUSH1 0x40 MLOAD PUSH32 0x8C379A000000000000000000000000000000000000000000000000000000000 DUP2 MSTORE PUSH1 0x4 ADD PUSH2 0xB26 SWAP1 PUSH2 0x1BEF JUMP JUMPDEST PUSH1 0x40 MLOAD DUP1 SWAP2 SUB SWAP1 REVERT JUMPDEST PUSH0 DUP3 GT PUSH2 0xB71 JUMPI PUSH1 0x40 MLOAD PUSH32 0x8C379A000000000000000000000000000000000000000000000000000000000 DUP2 MSTORE PUSH1 0x4 ADD PUSH2 0xB68 SWAP1 PUSH2 0x1C57 JUMP JUMPDEST PUSH1 0x40 MLOAD DUP1 SWAP2 SUB SWAP1 REVERT JUMPDEST PUSH0 PUSH1 0x2 PUSH0 DUP14 DUP2 MSTORE PUSH1 0x20 ADD SWAP1 DUP2 MSTORE PUSH1 0x20 ADD PUSH0 KECCAK256 SWAP1 POP DUP11 DUP11 DUP3 PUSH1 0x2 ADD PUSH0 ADD SWAP2 DUP3 PUSH2 0xB9A SWAP3 SWAP2 SWAP1 PUSH2 0x1E40 JUMP JUMPDEST POP DUP9 DUP9 DUP3 PUSH1 0x2 ADD PUSH1 0x1 ADD SWAP2 DUP3 PUSH2 0xBB1 SWAP3 SWAP2 SWAP1 PUSH2 0x1E40 JUMP JUMPDEST POP DUP7 DUP7 DUP3 PUSH1 0x2 ADD PUSH1 0x2 ADD SWAP2 DUP3 PUSH2 0xBC8 SWAP3 SWAP2 SWAP1 PUSH2 0x1E40 JUMP JUMPDEST POP DUP5 DUP2 PUSH1 0x2 ADD PUSH1 0x3 ADD DUP2 SWAP1 SSTORE POP DUP4 DUP2 PUSH1 0x2 ADD PUSH1 0x4 ADD DUP2 SWAP1 SSTORE POP DUP3 DUP2 PUSH1 0x7 ADD DUP2 SWAP1 SSTORE POP TIMESTAMP DUP2 PUSH1 0xA ADD DUP2 SWAP1 SSTORE POP DUP12 PUSH32 0xD62FA94C71EBA8CFE5AB835190623C67E15149837FD0CD60C1C170A8F31439E3 PUSH1 0x40 MLOAD PUSH1 0x40 MLOAD DUP1 SWAP2 SUB SWAP1 LOG2 POP POP POP POP POP POP POP POP POP POP POP POP JUMP JUMPDEST DUP2 PUSH0 PUSH20 0xFFFFFFFFFFFFFFFFFFFFFFFFFFFFFFFFFFFFFFFF AND PUSH1 0x2 PUSH0 DUP4 DUP2 MSTORE PUSH1 0x20 ADD SWAP1 DUP2 MSTORE PUSH1 0x20 ADD PUSH0 KECCAK256 PUSH1 0x1 ADD PUSH0 SWAP1 SLOAD SWAP1 PUSH2 0x100 EXP SWAP1 DIV PUSH20 0xFFFFFFFFFFFFFFFFFFFFFFFFFFFFFFFFFFFFFFFF AND PUSH20 0xFFFFFFFFFFFFFFFFFFFFFFFFFFFFFFFFFFFFFFFF AND SUB PUSH2 0xCD0 JUMPI PUSH1 0x40 MLOAD PUSH32 0x8C379A000000000000000000000000000000000000000000000000000000000 DUP2 MSTORE PUSH1 0x4 ADD PUSH2 0xCC7 SWAP1 PUSH2 0x18E3 JUMP JUMPDEST PUSH1 0x40 MLOAD DUP1 SWAP2 SUB SWAP1 REVERT JUMPDEST PUSH2 0xCD8 PUSH2 0x11EB JUMP JUMPDEST CALLER PUSH20 0xFFFFFFFFFFFFFFFFFFFFFFFFFFFFFFFFFFFFFFFF AND PUSH1 0x2 PUSH0 DUP6 DUP2 MSTORE PUSH1 0x20 ADD SWAP1 DUP2 MSTORE PUSH1 0x20 ADD PUSH0 KECCAK256 PUSH1 0x1 ADD PUSH0 SWAP1 SLOAD SWAP1 PUSH2 0x100 EXP SWAP1 DIV PUSH20 0xFFFFFFFFFFFFFFFFFFFFFFFFFFFFFFFFFFFFFFFF AND PUSH20 0xFFFFFFFFFFFFFFFFFFFFFFFFFFFFFFFFFFFFFFFF AND EQ DUP1 PUSH2 0xE69 JUMPI POP PUSH0 PUSH1 0x1 SWAP1 SLOAD SWAP1 PUSH2 0x100 EXP SWAP1 DIV PUSH20 0xFFFFFFFFFFFFFFFFFFFFFFFFFFFFFFFFFFFFFFFF AND PUSH20 0xFFFFFFFFFFFFFFFFFFFFFFFFFFFFFFFFFFFFFFFF AND PUSH4 0x91D14854 PUSH0 PUSH1 0x1 SWAP1 SLOAD SWAP1 PUSH2 0x100 EXP SWAP1 DIV PUSH20 0xFFFFFFFFFFFFFFFFFFFFFFFFFFFFFFFFFFFFFFFF AND PUSH20 0xFFFFFFFFFFFFFFFFFFFFFFFFFFFFFFFFFFFFFFFF AND PUSH4 0x75B238FC PUSH1 0x40 MLOAD DUP2 PUSH4 0xFFFFFFFF AND PUSH1 0xE0 SHL DUP2 MSTORE PUSH1 0x4 ADD PUSH1 0x20 PUSH1 0x40 MLOAD DUP1 DUP4 SUB DUP2 DUP7 GAS STATICCALL ISZERO DUP1 ISZERO PUSH2 0xDE7 JUMPI RETURNDATASIZE PUSH0 DUP1 RETURNDATACOPY RETURNDATASIZE PUSH0 REVERT JUMPDEST POP POP POP POP PUSH1 0x40 MLOAD RETURNDATASIZE PUSH1 0x1F NOT PUSH1 0x1F DUP3 ADD AND DUP3 ADD DUP1 PUSH1 0x40 MSTORE POP DUP2 ADD SWAP1 PUSH2 0xE0B SWAP2 SWAP1 PUSH2 0x1934 JUMP JUMPDEST CALLER PUSH1 0x40 MLOAD DUP4 PUSH4 0xFFFFFFFF AND PUSH1 0xE0 SHL DUP2 MSTORE PUSH1 0x4 ADD PUSH2 0xE29 SWAP3 SWAP2 SWAP1 PUSH2 0x196E JUMP JUMPDEST PUSH1 0x20 PUSH1 0x40 MLOAD DUP1 DUP4 SUB DUP2 DUP7 GAS STATICCALL ISZERO DUP1 ISZERO PUSH2 0xE44 JUMPI RETURNDATASIZE PUSH0 DUP1 RETURNDATACOPY RETURNDATASIZE PUSH0 REVERT JUMPDEST POP POP POP POP PUSH1 0x40 MLOAD RETURNDATASIZE PUSH1 0x1F NOT PUSH1 0x1F DUP3 ADD AND DUP3 ADD DUP1 PUSH1 0x40 MSTORE POP DUP2 ADD SWAP1 PUSH2 0xE68 SWAP2 SWAP1 PUSH2 0x19BF JUMP JUMPDEST JUMPDEST PUSH2 0xEA8 JUMPI PUSH1 0x40 MLOAD PUSH32 0x8C379A000000000000000000000000000000000000000000000000000000000 DUP2 MSTORE PUSH1 0x4 ADD PUSH2 0xE9F SWAP1 PUSH2 0x1F57 JUMP JUMPDEST PUSH1 0x40 MLOAD DUP1 SWAP2 SUB SWAP1 REVERT JUMPDEST PUSH0 PUSH20 0xFFFFFFFFFFFFFFFFFFFFFFFFFFFFFFFFFFFFFFFF AND DUP3 PUSH20 0xFFFFFFFFFFFFFFFFFFFFFFFFFFFFFFFFFFFFFFFF AND SUB PUSH2 0xF16 JUMPI PUSH1 0x40 MLOAD PUSH32 0x8C379A000000000000000000000000000000000000000000000000000000000 DUP2 MSTORE PUSH1 0x4 ADD PUSH2 0xF0D SWAP1 PUSH2 0x1FBF JUMP JUMPDEST PUSH1 0x40 MLOAD DUP1 SWAP2 SUB SWAP1 REVERT JUMPDEST PUSH0 PUSH1 0x1 SWAP1 SLOAD SWAP1 PUSH2 0x100 EXP SWAP1 DIV PUSH20 0xFFFFFFFFFFFFFFFFFFFFFFFFFFFFFFFFFFFFFFFF AND PUSH20 0xFFFFFFFFFFFFFFFFFFFFFFFFFFFFFFFFFFFFFFFF AND PUSH4 0x91D14854 PUSH0 PUSH1 0x1 SWAP1 SLOAD SWAP1 PUSH2 0x100 EXP SWAP1 DIV PUSH20 0xFFFFFFFFFFFFFFFFFFFFFFFFFFFFFFFFFFFFFFFF AND PUSH20 0xFFFFFFFFFFFFFFFFFFFFFFFFFFFFFFFFFFFFFFFF AND PUSH4 0x98E4ABB5 PUSH1 0x40 MLOAD DUP2 PUSH4 0xFFFFFFFF AND PUSH1 0xE0 SHL DUP2 MSTORE PUSH1 0x4 ADD PUSH1 0x20 PUSH1 0x40 MLOAD DUP1 DUP4 SUB DUP2 DUP7 GAS STATICCALL ISZERO DUP1 ISZERO PUSH2 0xFBD JUMPI RETURNDATASIZE PUSH0 DUP1 RETURNDATACOPY RETURNDATASIZE PUSH0 REVERT JUMPDEST POP POP POP POP PUSH1 0x40 MLOAD RETURNDATASIZE PUSH1 0x1F NOT PUSH1 0x1F DUP3 ADD AND DUP3 ADD DUP1 PUSH1 0x40 MSTORE POP DUP2 ADD SWAP1 PUSH2 0xFE1 SWAP2 SWAP1 PUSH2 0x1934 JUMP JUMPDEST DUP5 PUSH1 0x40 MLOAD DUP4 PUSH4 0xFFFFFFFF AND PUSH1 0xE0 SHL DUP2 MSTORE PUSH1 0x4 ADD PUSH2 0xFFF SWAP3 SWAP2 SWAP1 PUSH2 0x196E JUMP JUMPDEST PUSH1 0x20 PUSH1 0x40 MLOAD DUP1 DUP4 SUB DUP2 DUP7 GAS STATICCALL ISZERO DUP1 ISZERO PUSH2 0x101A JUMPI RETURNDATASIZE PUSH0 DUP1 RETURNDATACOPY RETURNDATASIZE PUSH0 REVERT JUMPDEST POP POP POP POP PUSH1 0x40 MLOAD RETURNDATASIZE PUSH1 0x1F NOT PUSH1 0x1F DUP3 ADD AND DUP3 ADD DUP1 PUSH1 0x40 MSTORE POP DUP2 ADD SWAP1 PUSH2 0x103E SWAP2 SWAP1 PUSH2 0x19BF JUMP JUMPDEST PUSH2 0x107D JUMPI PUSH1 0x40 MLOAD PUSH32 0x8C379A000000000000000000000000000000000000000000000000000000000 DUP2 MSTORE PUSH1 0x4 ADD PUSH2 0x1074 SWAP1 PUSH2 0x204D JUMP JUMPDEST PUSH1 0x40 MLOAD DUP1 SWAP2 SUB SWAP1 REVERT JUMPDEST PUSH0 PUSH1 0x2 PUSH0 DUP6 DUP2 MSTORE PUSH1 0x20 ADD SWAP1 DUP2 MSTORE PUSH1 0x20 ADD PUSH0 KECCAK256 PUSH1 0x1 ADD PUSH0 SWAP1 SLOAD SWAP1 PUSH2 0x100 EXP SWAP1 DIV PUSH20 0xFFFFFFFFFFFFFFFFFFFFFFFFFFFFFFFFFFFFFFFF AND SWAP1 POP DUP3 PUSH1 0x2 PUSH0 DUP7 DUP2 MSTORE PUSH1 0x20 ADD SWAP1 DUP2 MSTORE PUSH1 0x20 ADD PUSH0 KECCAK256 PUSH1 0x1 ADD PUSH0 PUSH2 0x100 EXP DUP2 SLOAD DUP2 PUSH20 0xFFFFFFFFFFFFFFFFFFFFFFFFFFFFFFFFFFFFFFFF MUL NOT AND SWAP1 DUP4 PUSH20 0xFFFFFFFFFFFFFFFFFFFFFFFFFFFFFFFFFFFFFFFF AND MUL OR SWAP1 SSTORE POP TIMESTAMP PUSH1 0x2 PUSH0 DUP7 DUP2 MSTORE PUSH1 0x20 ADD SWAP1 DUP2 MSTORE PUSH1 0x20 ADD PUSH0 KECCAK256 PUSH1 0xA ADD DUP2 SWAP1 SSTORE POP PUSH2 0x1129 DUP5 DUP3 PUSH2 0x1235 JUMP JUMPDEST PUSH1 0x3 PUSH0 DUP5 PUSH20 0xFFFFFFFFFFFFFFFFFFFFFFFFFFFFFFFFFFFFFFFF AND PUSH20 0xFFFFFFFFFFFFFFFFFFFFFFFFFFFFFFFFFFFFFFFF AND DUP2 MSTORE PUSH1 0x20 ADD SWAP1 DUP2 MSTORE PUSH1 0x20 ADD PUSH0 KECCAK256 DUP5 SWAP1 DUP1 PUSH1 0x1 DUP2 SLOAD ADD DUP1 DUP3 SSTORE DUP1 SWAP2 POP POP PUSH1 0x1 SWAP1 SUB SWAP1 PUSH0 MSTORE PUSH1 0x20 PUSH0 KECCAK256 ADD PUSH0 SWAP1 SWAP2 SWAP1 SWAP2 SWAP1 SWAP2 POP SSTORE DUP3 PUSH20 0xFFFFFFFFFFFFFFFFFFFFFFFFFFFFFFFFFFFFFFFF AND DUP2 PUSH20 0xFFFFFFFFFFFFFFFFFFFFFFFFFFFFFFFFFFFFFFFF AND DUP6 PUSH32 0xA54354750C707642A038F4AC683FAA206A3649A6C35A44F9640D34D20578B15B PUSH1 0x40 MLOAD PUSH1 0x40 MLOAD DUP1 SWAP2 SUB SWAP1 LOG4 POP POP POP POP JUMP JUMPDEST PUSH2 0x11F3 PUSH2 0x823 JUMP JUMPDEST ISZERO PUSH2 0x1233 JUMPI PUSH1 0x40 MLOAD PUSH32 0x8C379A000000000000000000000000000000000000000000000000000000000 DUP2 MSTORE PUSH1 0x4 ADD PUSH2 0x122A SWAP1 PUSH2 0x20B5 JUMP JUMPDEST PUSH1 0x40 MLOAD DUP1 SWAP2 SUB SWAP1 REVERT JUMPDEST JUMP JUMPDEST PUSH0 PUSH1 0x3 PUSH0 DUP4 PUSH20 0xFFFFFFFFFFFFFFFFFFFFFFFFFFFFFFFFFFFFFFFF AND PUSH20 0xFFFFFFFFFFFFFFFFFFFFFFFFFFFFFFFFFFFFFFFF AND DUP2 MSTORE PUSH1 0x20 ADD SWAP1 DUP2 MSTORE PUSH1 0x20 ADD PUSH0 KECCAK256 SWAP1 POP PUSH0 JUMPDEST DUP2 DUP1 SLOAD SWAP1 POP DUP2 LT ISZERO PUSH2 0x132C JUMPI DUP4 DUP3 DUP3 DUP2 SLOAD DUP2 LT PUSH2 0x1297 JUMPI PUSH2 0x1296 PUSH2 0x20D3 JUMP JUMPDEST JUMPDEST SWAP1 PUSH0 MSTORE PUSH1 0x20 PUSH0 KECCAK256 ADD SLOAD SUB PUSH2 0x1319 JUMPI DUP2 PUSH1 0x1 DUP4 DUP1 SLOAD SWAP1 POP PUSH2 0x12B7 SWAP2 SWAP1 PUSH2 0x212D JUMP JUMPDEST DUP2 SLOAD DUP2 LT PUSH2 0x12C8 JUMPI PUSH2 0x12C7 PUSH2 0x20D3 JUMP JUMPDEST JUMPDEST SWAP1 PUSH0 MSTORE PUSH1 0x20 PUSH0 KECCAK256 ADD SLOAD DUP3 DUP3 DUP2 SLOAD DUP2 LT PUSH2 0x12E4 JUMPI PUSH2 0x12E3 PUSH2 0x20D3 JUMP JUMPDEST JUMPDEST SWAP1 PUSH0 MSTORE PUSH1 0x20 PUSH0 KECCAK256 ADD DUP2 SWAP1 SSTORE POP DUP2 DUP1 SLOAD DUP1 PUSH2 0x1301 JUMPI PUSH2 0x1300 PUSH2 0x2160 JUMP JUMPDEST JUMPDEST PUSH1 0x1 SWAP1 SUB DUP2 DUP2 SWAP1 PUSH0 MSTORE PUSH1 0x20 PUSH0 KECCAK256 ADD PUSH0 SWAP1 SSTORE SWAP1 SSTORE PUSH2 0x132C JUMP JUMPDEST DUP1 DUP1 PUSH2 0x1324 SWAP1 PUSH2 0x218D JUMP JUMPDEST SWAP2 POP POP PUSH2 0x1277 JUMP JUMPDEST POP POP POP POP JUMP JUMPDEST PUSH0 PUSH20 0xFFFFFFFFFFFFFFFFFFFFFFFFFFFFFFFFFFFFFFFF DUP3 AND SWAP1 POP SWAP2 SWAP1 POP JUMP JUMPDEST PUSH0 DUP2 SWAP1 POP SWAP2 SWAP1 POP JUMP JUMPDEST PUSH0 PUSH2 0x1374 PUSH2 0x136F PUSH2 0x136A DUP5 PUSH2 0x1332 JUMP JUMPDEST PUSH2 0x1351 JUMP JUMPDEST PUSH2 0x1332 JUMP JUMPDEST SWAP1 POP SWAP2 SWAP1 POP JUMP JUMPDEST PUSH0 PUSH2 0x1385 DUP3 PUSH2 0x135A JUMP JUMPDEST SWAP1 POP SWAP2 SWAP1 POP JUMP JUMPDEST PUSH0 PUSH2 0x1396 DUP3 PUSH2 0x137B JUMP JUMPDEST SWAP1 POP SWAP2 SWAP1 POP JUMP JUMPDEST PUSH2 0x13A6 DUP2 PUSH2 0x138C JUMP JUMPDEST DUP3 MSTORE POP POP JUMP JUMPDEST PUSH0 PUSH1 0x20 DUP3 ADD SWAP1 POP PUSH2 0x13BF PUSH0 DUP4 ADD DUP5 PUSH2 0x139D JUMP JUMPDEST SWAP3 SWAP2 POP POP JUMP JUMPDEST PUSH0 DUP1 REVERT JUMPDEST PUSH0 DUP1 REVERT JUMPDEST PUSH0 DUP2 SWAP1 POP SWAP2 SWAP1 POP JUMP JUMPDEST PUSH2 0x13DF DUP2 PUSH2 0x13CD JUMP JUMPDEST DUP2 EQ PUSH2 0x13E9 JUMPI PUSH0 DUP1 REVERT JUMPDEST POP JUMP JUMPDEST PUSH0 DUP2 CALLDATALOAD SWAP1 POP PUSH2 0x13FA DUP2 PUSH2 0x13D6 JUMP JUMPDEST SWAP3 SWAP2 POP POP JUMP JUMPDEST PUSH0 PUSH1 0x20 DUP3 DUP5 SUB SLT ISZERO PUSH2 0x1415 JUMPI PUSH2 0x1414 PUSH2 0x13C5 JUMP JUMPDEST JUMPDEST PUSH0 PUSH2 0x1422 DUP5 DUP3 DUP6 ADD PUSH2 0x13EC JUMP JUMPDEST SWAP2 POP POP SWAP3 SWAP2 POP POP JUMP JUMPDEST PUSH2 0x1434 DUP2 PUSH2 0x13CD JUMP JUMPDEST DUP3 MSTORE POP POP JUMP JUMPDEST PUSH0 PUSH2 0x1444 DUP3 PUSH2 0x1332 JUMP JUMPDEST SWAP1 POP SWAP2 SWAP1 POP JUMP JUMPDEST PUSH2 0x1454 DUP2 PUSH2 0x143A JUMP JUMPDEST DUP3 MSTORE POP POP JUMP JUMPDEST PUSH0 DUP2 MLOAD SWAP1 POP SWAP2 SWAP1 POP JUMP JUMPDEST PUSH0 DUP3 DUP3 MSTORE PUSH1 0x20 DUP3 ADD SWAP1 POP SWAP3 SWAP2 POP POP JUMP JUMPDEST PUSH0 JUMPDEST DUP4 DUP2 LT ISZERO PUSH2 0x1491 JUMPI DUP1 DUP3 ADD MLOAD DUP2 DUP5 ADD MSTORE PUSH1 0x20 DUP2 ADD SWAP1 POP PUSH2 0x1476 JUMP JUMPDEST PUSH0 DUP5 DUP5 ADD MSTORE POP POP POP POP JUMP JUMPDEST PUSH0 PUSH1 0x1F NOT PUSH1 0x1F DUP4 ADD AND SWAP1 POP SWAP2 SWAP1 POP JUMP JUMPDEST PUSH0 PUSH2 0x14B6 DUP3 PUSH2 0x145A JUMP JUMPDEST PUSH2 0x14C0 DUP2 DUP6 PUSH2 0x1464 JUMP JUMPDEST SWAP4 POP PUSH2 0x14D0 DUP2 DUP6 PUSH1 0x20 DUP7 ADD PUSH2 0x1474 JUMP JUMPDEST PUSH2 0x14D9 DUP2 PUSH2 0x149C JUMP JUMPDEST DUP5 ADD SWAP2 POP POP SWAP3 SWAP2 POP POP JUMP JUMPDEST PUSH0 DUP2 SWAP1 POP SWAP2 SWAP1 POP JUMP JUMPDEST PUSH2 0x14F6 DUP2 PUSH2 0x14E4 JUMP JUMPDEST DUP3 MSTORE POP POP JUMP JUMPDEST PUSH0 PUSH1 0xA0 DUP4 ADD PUSH0 DUP4 ADD MLOAD DUP5 DUP3 SUB PUSH0 DUP7 ADD MSTORE PUSH2 0x1516 DUP3 DUP3 PUSH2 0x14AC JUMP JUMPDEST SWAP2 POP POP PUSH1 0x20 DUP4 ADD MLOAD DUP5 DUP3 SUB PUSH1 0x20 DUP7 ADD MSTORE PUSH2 0x1530 DUP3 DUP3 PUSH2 0x14AC JUMP JUMPDEST SWAP2 POP POP PUSH1 0x40 DUP4 ADD MLOAD DUP5 DUP3 SUB PUSH1 0x40 DUP7 ADD MSTORE PUSH2 0x154A DUP3 DUP3 PUSH2 0x14AC JUMP JUMPDEST SWAP2 POP POP PUSH1 0x60 DUP4 ADD MLOAD PUSH2 0x155F PUSH1 0x60 DUP7 ADD DUP3 PUSH2 0x14ED JUMP JUMPDEST POP PUSH1 0x80 DUP4 ADD MLOAD PUSH2 0x1572 PUSH1 0x80 DUP7 ADD DUP3 PUSH2 0x14ED JUMP JUMPDEST POP DUP1 SWAP2 POP POP SWAP3 SWAP2 POP POP JUMP JUMPDEST PUSH0 DUP2 ISZERO ISZERO SWAP1 POP SWAP2 SWAP1 POP JUMP JUMPDEST PUSH2 0x1591 DUP2 PUSH2 0x157D JUMP JUMPDEST DUP3 MSTORE POP POP JUMP JUMPDEST PUSH0 PUSH2 0x120 DUP3 ADD SWAP1 POP PUSH2 0x15AB PUSH0 DUP4 ADD DUP13 PUSH2 0x142B JUMP JUMPDEST PUSH2 0x15B8 PUSH1 0x20 DUP4 ADD DUP12 PUSH2 0x144B JUMP JUMPDEST DUP2 DUP2 SUB PUSH1 0x40 DUP4 ADD MSTORE PUSH2 0x15CA DUP2 DUP11 PUSH2 0x14FC JUMP JUMPDEST SWAP1 POP PUSH2 0x15D9 PUSH1 0x60 DUP4 ADD DUP10 PUSH2 0x142B JUMP JUMPDEST PUSH2 0x15E6 PUSH1 0x80 DUP4 ADD DUP9 PUSH2 0x1588 JUMP JUMPDEST PUSH2 0x15F3 PUSH1 0xA0 DUP4 ADD DUP8 PUSH2 0x1588 JUMP JUMPDEST PUSH2 0x1600 PUSH1 0xC0 DUP4 ADD DUP7 PUSH2 0x144B JUMP JUMPDEST PUSH2 0x160D PUSH1 0xE0 DUP4 ADD DUP6 PUSH2 0x142B JUMP JUMPDEST PUSH2 0x161B PUSH2 0x100 DUP4 ADD DUP5 PUSH2 0x142B JUMP JUMPDEST SWAP11 SWAP10 POP POP POP POP POP POP POP POP POP POP JUMP JUMPDEST PUSH0 PUSH1 0x20 DUP3 ADD SWAP1 POP PUSH2 0x163C PUSH0 DUP4 ADD DUP5 PUSH2 0x1588 JUMP JUMPDEST SWAP3 SWAP2 POP POP JUMP JUMPDEST PUSH2 0x164B DUP2 PUSH2 0x143A JUMP JUMPDEST DUP2 EQ PUSH2 0x1655 JUMPI PUSH0 DUP1 REVERT JUMPDEST POP JUMP JUMPDEST PUSH0 DUP2 CALLDATALOAD SWAP1 POP PUSH2 0x1666 DUP2 PUSH2 0x1642 JUMP JUMPDEST SWAP3 SWAP2 POP POP JUMP JUMPDEST PUSH0 DUP1 PUSH1 0x40 DUP4 DUP6 SUB SLT ISZERO PUSH2 0x1682 JUMPI PUSH2 0x1681 PUSH2 0x13C5 JUMP JUMPDEST JUMPDEST PUSH0 PUSH2 0x168F DUP6 DUP3 DUP7 ADD PUSH2 0x1658 JUMP JUMPDEST SWAP3 POP POP PUSH1 0x20 PUSH2 0x16A0 DUP6 DUP3 DUP7 ADD PUSH2 0x13EC JUMP JUMPDEST SWAP2 POP POP SWAP3 POP SWAP3 SWAP1 POP JUMP JUMPDEST PUSH0 PUSH1 0x20 DUP3 ADD SWAP1 POP PUSH2 0x16BD PUSH0 DUP4 ADD DUP5 PUSH2 0x142B JUMP JUMPDEST SWAP3 SWAP2 POP POP JUMP JUMPDEST PUSH0 DUP1 REVERT JUMPDEST PUSH0 DUP1 REVERT JUMPDEST PUSH0 DUP1 REVERT JUMPDEST PUSH0 DUP1 DUP4 PUSH1 0x1F DUP5 ADD SLT PUSH2 0x16E4 JUMPI PUSH2 0x16E3 PUSH2 0x16C3 JUMP JUMPDEST JUMPDEST DUP3 CALLDATALOAD SWAP1 POP PUSH8 0xFFFFFFFFFFFFFFFF DUP2 GT ISZERO PUSH2 0x1701 JUMPI PUSH2 0x1700 PUSH2 0x16C7 JUMP JUMPDEST JUMPDEST PUSH1 0x20 DUP4 ADD SWAP2 POP DUP4 PUSH1 0x1 DUP3 MUL DUP4 ADD GT ISZERO PUSH2 0x171D JUMPI PUSH2 0x171C PUSH2 0x16CB JUMP JUMPDEST JUMPDEST SWAP3 POP SWAP3 SWAP1 POP JUMP JUMPDEST PUSH2 0x172D DUP2 PUSH2 0x14E4 JUMP JUMPDEST DUP2 EQ PUSH2 0x1737 JUMPI PUSH0 DUP1 REVERT JUMPDEST POP JUMP JUMPDEST PUSH0 DUP2 CALLDATALOAD SWAP1 POP PUSH2 0x1748 DUP2 PUSH2 0x1724 JUMP JUMPDEST SWAP3 SWAP2 POP POP JUMP JUMPDEST PUSH0 DUP1 PUSH0 DUP1 PUSH0 DUP1 PUSH0 DUP1 PUSH0 DUP1 PUSH1 0xE0 DUP12 DUP14 SUB SLT ISZERO PUSH2 0x176C JUMPI PUSH2 0x176B PUSH2 0x13C5 JUMP JUMPDEST JUMPDEST PUSH0 PUSH2 0x1779 DUP14 DUP3 DUP15 ADD PUSH2 0x13EC JUMP JUMPDEST SWAP11 POP POP PUSH1 0x20 DUP12 ADD CALLDATALOAD PUSH8 0xFFFFFFFFFFFFFFFF DUP2 GT ISZERO PUSH2 0x179A JUMPI PUSH2 0x1799 PUSH2 0x13C9 JUMP JUMPDEST JUMPDEST PUSH2 0x17A6 DUP14 DUP3 DUP15 ADD PUSH2 0x16CF JUMP JUMPDEST SWAP10 POP SWAP10 POP POP PUSH1 0x40 DUP12 ADD CALLDATALOAD PUSH8 0xFFFFFFFFFFFFFFFF DUP2 GT ISZERO PUSH2 0x17C9 JUMPI PUSH2 0x17C8 PUSH2 0x13C9 JUMP JUMPDEST JUMPDEST PUSH2 0x17D5 DUP14 DUP3 DUP15 ADD PUSH2 0x16CF JUMP JUMPDEST SWAP8 POP SWAP8 POP POP PUSH1 0x60 DUP12 ADD CALLDATALOAD PUSH8 0xFFFFFFFFFFFFFFFF DUP2 GT ISZERO PUSH2 0x17F8 JUMPI PUSH2 0x17F7 PUSH2 0x13C9 JUMP JUMPDEST JUMPDEST PUSH2 0x1804 DUP14 DUP3 DUP15 ADD PUSH2 0x16CF JUMP JUMPDEST SWAP6 POP SWAP6 POP POP PUSH1 0x80 PUSH2 0x1817 DUP14 DUP3 DUP15 ADD PUSH2 0x173A JUMP JUMPDEST SWAP4 POP POP PUSH1 0xA0 PUSH2 0x1828 DUP14 DUP3 DUP15 ADD PUSH2 0x173A JUMP JUMPDEST SWAP3 POP POP PUSH1 0xC0 PUSH2 0x1839 DUP14 DUP3 DUP15 ADD PUSH2 0x13EC JUMP JUMPDEST SWAP2 POP POP SWAP3 SWAP6 SWAP9 SWAP12 SWAP2 SWAP5 SWAP8 SWAP11 POP SWAP3 SWAP6 SWAP9 POP JUMP JUMPDEST PUSH0 DUP1 PUSH1 0x40 DUP4 DUP6 SUB SLT ISZERO PUSH2 0x1861 JUMPI PUSH2 0x1860 PUSH2 0x13C5 JUMP JUMPDEST JUMPDEST PUSH0 PUSH2 0x186E DUP6 DUP3 DUP7 ADD PUSH2 0x13EC JUMP JUMPDEST SWAP3 POP POP PUSH1 0x20 PUSH2 0x187F DUP6 DUP3 DUP7 ADD PUSH2 0x1658 JUMP JUMPDEST SWAP2 POP POP SWAP3 POP SWAP3 SWAP1 POP JUMP JUMPDEST PUSH0 DUP3 DUP3 MSTORE PUSH1 0x20 DUP3 ADD SWAP1 POP SWAP3 SWAP2 POP POP JUMP JUMPDEST PUSH32 0x57616C6C20646F6573206E6F7420657869737400000000000000000000000000 PUSH0 DUP3 ADD MSTORE POP JUMP JUMPDEST PUSH0 PUSH2 0x18CD PUSH1 0x13 DUP4 PUSH2 0x1889 JUMP JUMPDEST SWAP2 POP PUSH2 0x18D8 DUP3 PUSH2 0x1899 JUMP JUMPDEST PUSH1 0x20 DUP3 ADD SWAP1 POP SWAP2 SWAP1 POP JUMP JUMPDEST PUSH0 PUSH1 0x20 DUP3 ADD SWAP1 POP DUP2 DUP2 SUB PUSH0 DUP4 ADD MSTORE PUSH2 0x18FA DUP2 PUSH2 0x18C1 JUMP JUMPDEST SWAP1 POP SWAP2 SWAP1 POP JUMP JUMPDEST PUSH0 DUP2 SWAP1 POP SWAP2 SWAP1 POP JUMP JUMPDEST PUSH2 0x1913 DUP2 PUSH2 0x1901 JUMP JUMPDEST DUP2 EQ PUSH2 0x191D JUMPI PUSH0 DUP1 REVERT JUMPDEST POP JUMP JUMPDEST PUSH0 DUP2 MLOAD SWAP1 POP PUSH2 0x192E DUP2 PUSH2 0x190A JUMP JUMPDEST SWAP3 SWAP2 POP POP JUMP JUMPDEST PUSH0 PUSH1 0x20 DUP3 DUP5 SUB SLT ISZERO PUSH2 0x1949 JUMPI PUSH2 0x1948 PUSH2 0x13C5 JUMP JUMPDEST JUMPDEST PUSH0 PUSH2 0x1956 DUP5 DUP3 DUP6 ADD PUSH2 0x1920 JUMP JUMPDEST SWAP2 POP POP SWAP3 SWAP2 POP POP JUMP JUMPDEST PUSH2 0x1968 DUP2 PUSH2 0x1901 JUMP JUMPDEST DUP3 MSTORE POP POP JUMP JUMPDEST PUSH0 PUSH1 0x40 DUP3 ADD SWAP1 POP PUSH2 0x1981 PUSH0 DUP4 ADD DUP6 PUSH2 0x195F JUMP JUMPDEST PUSH2 0x198E PUSH1 0x20 DUP4 ADD DUP5 PUSH2 0x144B JUMP JUMPDEST SWAP4 SWAP3 POP POP POP JUMP JUMPDEST PUSH2 0x199E DUP2 PUSH2 0x157D JUMP JUMPDEST DUP2 EQ PUSH2 0x19A8 JUMPI PUSH0 DUP1 REVERT JUMPDEST POP JUMP JUMPDEST PUSH0 DUP2 MLOAD SWAP1 POP PUSH2 0x19B9 DUP2 PUSH2 0x1995 JUMP JUMPDEST SWAP3 SWAP2 POP POP JUMP JUMPDEST PUSH0 PUSH1 0x20 DUP3 DUP5 SUB SLT ISZERO PUSH2 0x19D4 JUMPI PUSH2 0x19D3 PUSH2 0x13C5 JUMP JUMPDEST JUMPDEST PUSH0 PUSH2 0x19E1 DUP5 DUP3 DUP6 ADD PUSH2 0x19AB JUMP JUMPDEST SWAP2 POP POP SWAP3 SWAP2 POP POP JUMP JUMPDEST PUSH32 0x4E6F7420617574686F72697A656420746F206D61726B2077616C6C2061732070 PUSH0 DUP3 ADD MSTORE PUSH32 0x61696E7465640000000000000000000000000000000000000000000000000000 PUSH1 0x20 DUP3 ADD MSTORE POP JUMP JUMPDEST PUSH0 PUSH2 0x1A44 PUSH1 0x26 DUP4 PUSH2 0x1889 JUMP JUMPDEST SWAP2 POP PUSH2 0x1A4F DUP3 PUSH2 0x19EA JUMP JUMPDEST PUSH1 0x40 DUP3 ADD SWAP1 POP SWAP2 SWAP1 POP JUMP JUMPDEST PUSH0 PUSH1 0x20 DUP3 ADD SWAP1 POP DUP2 DUP2 SUB PUSH0 DUP4 ADD MSTORE PUSH2 0x1A71 DUP2 PUSH2 0x1A38 JUMP JUMPDEST SWAP1 POP SWAP2 SWAP1 POP JUMP JUMPDEST PUSH32 0x57616C6C20616C7265616479207061696E746564000000000000000000000000 PUSH0 DUP3 ADD MSTORE POP JUMP JUMPDEST PUSH0 PUSH2 0x1AAC PUSH1 0x14 DUP4 PUSH2 0x1889 JUMP JUMPDEST SWAP2 POP PUSH2 0x1AB7 DUP3 PUSH2 0x1A78 JUMP JUMPDEST PUSH1 0x20 DUP3 ADD SWAP1 POP SWAP2 SWAP1 POP JUMP JUMPDEST PUSH0 PUSH1 0x20 DUP3 ADD SWAP1 POP DUP2 DUP2 SUB PUSH0 DUP4 ADD MSTORE PUSH2 0x1AD9 DUP2 PUSH2 0x1AA0 JUMP JUMPDEST SWAP1 POP SWAP2 SWAP1 POP JUMP JUMPDEST PUSH32 0x4E487B7100000000000000000000000000000000000000000000000000000000 PUSH0 MSTORE PUSH1 0x22 PUSH1 0x4 MSTORE PUSH1 0x24 PUSH0 REVERT JUMPDEST PUSH0 PUSH1 0x2 DUP3 DIV SWAP1 POP PUSH1 0x1 DUP3 AND DUP1 PUSH2 0x1B24 JUMPI PUSH1 0x7F DUP3 AND SWAP2 POP JUMPDEST PUSH1 0x20 DUP3 LT DUP2 SUB PUSH2 0x1B37 JUMPI PUSH2 0x1B36 PUSH2 0x1AE0 JUMP JUMPDEST JUMPDEST POP SWAP2 SWAP1 POP JUMP JUMPDEST PUSH32 0x4E6F7420617574686F72697A656420746F207570646174652077616C6C000000 PUSH0 DUP3 ADD MSTORE POP JUMP JUMPDEST PUSH0 PUSH2 0x1B71 PUSH1 0x1D DUP4 PUSH2 0x1889 JUMP JUMPDEST SWAP2 POP PUSH2 0x1B7C DUP3 PUSH2 0x1B3D JUMP JUMPDEST PUSH1 0x20 DUP3 ADD SWAP1 POP SWAP2 SWAP1 POP JUMP JUMPDEST PUSH0 PUSH1 0x20 DUP3 ADD SWAP1 POP DUP2 DUP2 SUB PUSH0 DUP4 ADD MSTORE PUSH2 0x1B9E DUP2 PUSH2 0x1B65 JUMP JUMPDEST SWAP1 POP SWAP2 SWAP1 POP JUMP JUMPDEST PUSH32 0x496E76616C6964206C6F636174696F6E20646174610000000000000000000000 PUSH0 DUP3 ADD MSTORE POP JUMP JUMPDEST PUSH0 PUSH2 0x1BD9 PUSH1 0x15 DUP4 PUSH2 0x1889 JUMP JUMPDEST SWAP2 POP PUSH2 0x1BE4 DUP3 PUSH2 0x1BA5 JUMP JUMPDEST PUSH1 0x20 DUP3 ADD SWAP1 POP SWAP2 SWAP1 POP JUMP JUMPDEST PUSH0 PUSH1 0x20 DUP3 ADD SWAP1 POP DUP2 DUP2 SUB PUSH0 DUP4 ADD MSTORE PUSH2 0x1C06 DUP2 PUSH2 0x1BCD JUMP JUMPDEST SWAP1 POP SWAP2 SWAP1 POP JUMP JUMPDEST PUSH32 0x496E76616C69642073697A650000000000000000000000000000000000000000 PUSH0 DUP3 ADD MSTORE POP JUMP JUMPDEST PUSH0 PUSH2 0x1C41 PUSH1 0xC DUP4 PUSH2 0x1889 JUMP JUMPDEST SWAP2 POP PUSH2 0x1C4C DUP3 PUSH2 0x1C0D JUMP JUMPDEST PUSH1 0x20 DUP3 ADD SWAP1 POP SWAP2 SWAP1 POP JUMP JUMPDEST PUSH0 PUSH1 0x20 DUP3 ADD SWAP1 POP DUP2 DUP2 SUB PUSH0 DUP4 ADD MSTORE PUSH2 0x1C6E DUP2 PUSH2 0x1C35 JUMP JUMPDEST SWAP1 POP SWAP2 SWAP1 POP JUMP JUMPDEST PUSH0 DUP3 SWAP1 POP SWAP3 SWAP2 POP POP JUMP JUMPDEST PUSH32 0x4E487B7100000000000000000000000000000000000000000000000000000000 PUSH0 MSTORE PUSH1 0x41 PUSH1 0x4 MSTORE PUSH1 0x24 PUSH0 REVERT JUMPDEST PUSH0 DUP2 SWAP1 POP DUP2 PUSH0 MSTORE PUSH1 0x20 PUSH0 KECCAK256 SWAP1 POP SWAP2 SWAP1 POP JUMP JUMPDEST PUSH0 PUSH1 0x20 PUSH1 0x1F DUP4 ADD DIV SWAP1 POP SWAP2 SWAP1 POP JUMP JUMPDEST PUSH0 DUP3 DUP3 SHL SWAP1 POP SWAP3 SWAP2 POP POP JUMP JUMPDEST PUSH0 PUSH1 0x8 DUP4 MUL PUSH2 0x1D08 PUSH32 0xFFFFFFFFFFFFFFFFFFFFFFFFFFFFFFFFFFFFFFFFFFFFFFFFFFFFFFFFFFFFFFFF DUP3 PUSH2 0x1CCD JUMP JUMPDEST PUSH2 0x1D12 DUP7 DUP4 PUSH2 0x1CCD JUMP JUMPDEST SWAP6 POP DUP1 NOT DUP5 AND SWAP4 POP DUP1 DUP7 AND DUP5 OR SWAP3 POP POP POP SWAP4 SWAP3 POP POP POP JUMP JUMPDEST PUSH0 PUSH2 0x1D44 PUSH2 0x1D3F PUSH2 0x1D3A DUP5 PUSH2 0x13CD JUMP JUMPDEST PUSH2 0x1351 JUMP JUMPDEST PUSH2 0x13CD JUMP JUMPDEST SWAP1 POP SWAP2 SWAP1 POP JUMP JUMPDEST PUSH0 DUP2 SWAP1 POP SWAP2 SWAP1 POP JUMP JUMPDEST PUSH2 0x1D5D DUP4 PUSH2 0x1D2A JUMP JUMPDEST PUSH2 0x1D71 PUSH2 0x1D69 DUP3 PUSH2 0x1D4B JUMP JUMPDEST DUP5 DUP5 SLOAD PUSH2 0x1CD9 JUMP JUMPDEST DUP3 SSTORE POP POP POP POP JUMP JUMPDEST PUSH0 SWAP1 JUMP JUMPDEST PUSH2 0x1D85 PUSH2 0x1D79 JUMP JUMPDEST PUSH2 0x1D90 DUP2 DUP5 DUP5 PUSH2 0x1D54 JUMP JUMPDEST POP POP POP JUMP JUMPDEST JUMPDEST DUP2 DUP2 LT ISZERO PUSH2 0x1DB3 JUMPI PUSH2 0x1DA8 PUSH0 DUP3 PUSH2 0x1D7D JUMP JUMPDEST PUSH1 0x1 DUP2 ADD SWAP1 POP PUSH2 0x1D96 JUMP JUMPDEST POP POP JUMP JUMPDEST PUSH1 0x1F DUP3 GT ISZERO PUSH2 0x1DF8 JUMPI PUSH2 0x1DC9 DUP2 PUSH2 0x1CAC JUMP JUMPDEST PUSH2 0x1DD2 DUP5 PUSH2 0x1CBE JUMP JUMPDEST DUP2 ADD PUSH1 0x20 DUP6 LT ISZERO PUSH2 0x1DE1 JUMPI DUP2 SWAP1 POP JUMPDEST PUSH2 0x1DF5 PUSH2 0x1DED DUP6 PUSH2 0x1CBE JUMP JUMPDEST DUP4 ADD DUP3 PUSH2 0x1D95 JUMP JUMPDEST POP POP JUMPDEST POP POP POP JUMP JUMPDEST PUSH0 DUP3 DUP3 SHR SWAP1 POP SWAP3 SWAP2 POP POP JUMP JUMPDEST PUSH0 PUSH2 0x1E18 PUSH0 NOT DUP5 PUSH1 0x8 MUL PUSH2 0x1DFD JUMP JUMPDEST NOT DUP1 DUP4 AND SWAP2 POP POP SWAP3 SWAP2 POP POP JUMP JUMPDEST PUSH0 PUSH2 0x1E30 DUP4 DUP4 PUSH2 0x1E09 JUMP JUMPDEST SWAP2 POP DUP3 PUSH1 0x2 MUL DUP3 OR SWAP1 POP SWAP3 SWAP2 POP POP JUMP JUMPDEST PUSH2 0x1E4A DUP4 DUP4 PUSH2 0x1C75 JUMP JUMPDEST PUSH8 0xFFFFFFFFFFFFFFFF DUP2 GT ISZERO PUSH2 0x1E63 JUMPI PUSH2 0x1E62 PUSH2 0x1C7F JUMP JUMPDEST JUMPDEST PUSH2 0x1E6D DUP3 SLOAD PUSH2 0x1B0D JUMP JUMPDEST PUSH2 0x1E78 DUP3 DUP3 DUP6 PUSH2 0x1DB7 JUMP JUMPDEST PUSH0 PUSH1 0x1F DUP4 GT PUSH1 0x1 DUP2 EQ PUSH2 0x1EA5 JUMPI PUSH0 DUP5 ISZERO PUSH2 0x1E93 JUMPI DUP3 DUP8 ADD CALLDATALOAD SWAP1 POP JUMPDEST PUSH2 0x1E9D DUP6 DUP3 PUSH2 0x1E25 JUMP JUMPDEST DUP7 SSTORE POP PUSH2 0x1F04 JUMP JUMPDEST PUSH1 0x1F NOT DUP5 AND PUSH2 0x1EB3 DUP7 PUSH2 0x1CAC JUMP JUMPDEST PUSH0 JUMPDEST DUP3 DUP2 LT ISZERO PUSH2 0x1EDA JUMPI DUP5 DUP10 ADD CALLDATALOAD DUP3 SSTORE PUSH1 0x1 DUP3 ADD SWAP2 POP PUSH1 0x20 DUP6 ADD SWAP5 POP PUSH1 0x20 DUP2 ADD SWAP1 POP PUSH2 0x1EB5 JUMP JUMPDEST DUP7 DUP4 LT ISZERO PUSH2 0x1EF7 JUMPI DUP5 DUP10 ADD CALLDATALOAD PUSH2 0x1EF3 PUSH1 0x1F DUP10 AND DUP3 PUSH2 0x1E09 JUMP JUMPDEST DUP4 SSTORE POP JUMPDEST PUSH1 0x1 PUSH1 0x2 DUP9 MUL ADD DUP9 SSTORE POP POP POP JUMPDEST POP POP POP POP POP POP POP JUMP JUMPDEST PUSH32 0x4E6F7420617574686F72697A656420746F207472616E736665722077616C6C00 PUSH0 DUP3 ADD MSTORE POP JUMP JUMPDEST PUSH0 PUSH2 0x1F41 PUSH1 0x1F DUP4 PUSH2 0x1889 JUMP JUMPDEST SWAP2 POP PUSH2 0x1F4C DUP3 PUSH2 0x1F0D JUMP JUMPDEST PUSH1 0x20 DUP3 ADD SWAP1 POP SWAP2 SWAP1 POP JUMP JUMPDEST PUSH0 PUSH1 0x20 DUP3 ADD SWAP1 POP DUP2 DUP2 SUB PUSH0 DUP4 ADD MSTORE PUSH2 0x1F6E DUP2 PUSH2 0x1F35 JUMP JUMPDEST SWAP1 POP SWAP2 SWAP1 POP JUMP JUMPDEST PUSH32 0x496E76616C6964206E6577206F776E6572000000000000000000000000000000 PUSH0 DUP3 ADD MSTORE POP JUMP JUMPDEST PUSH0 PUSH2 0x1FA9 PUSH1 0x11 DUP4 PUSH2 0x1889 JUMP JUMPDEST SWAP2 POP PUSH2 0x1FB4 DUP3 PUSH2 0x1F75 JUMP JUMPDEST PUSH1 0x20 DUP3 ADD SWAP1 POP SWAP2 SWAP1 POP JUMP JUMPDEST PUSH0 PUSH1 0x20 DUP3 ADD SWAP1 POP DUP2 DUP2 SUB PUSH0 DUP4 ADD MSTORE PUSH2 0x1FD6 DUP2 PUSH2 0x1F9D JUMP JUMPDEST SWAP1 POP SWAP2 SWAP1 POP JUMP JUMPDEST PUSH32 0x4E6577206F776E6572206D75737420686176652057414C4C5F4F574E45525F52 PUSH0 DUP3 ADD MSTORE PUSH32 0x4F4C450000000000000000000000000000000000000000000000000000000000 PUSH1 0x20 DUP3 ADD MSTORE POP JUMP JUMPDEST PUSH0 PUSH2 0x2037 PUSH1 0x23 DUP4 PUSH2 0x1889 JUMP JUMPDEST SWAP2 POP PUSH2 0x2042 DUP3 PUSH2 0x1FDD JUMP JUMPDEST PUSH1 0x40 DUP3 ADD SWAP1 POP SWAP2 SWAP1 POP JUMP JUMPDEST PUSH0 PUSH1 0x20 DUP3 ADD SWAP1 POP DUP2 DUP2 SUB PUSH0 DUP4 ADD MSTORE PUSH2 0x2064 DUP2 PUSH2 0x202B JUMP JUMPDEST SWAP1 POP SWAP2 SWAP1 POP JUMP JUMPDEST PUSH32 0x5061757361626C653A2070617573656400000000000000000000000000000000 PUSH0 DUP3 ADD MSTORE POP JUMP JUMPDEST PUSH0 PUSH2 0x209F PUSH1 0x10 DUP4 PUSH2 0x1889 JUMP JUMPDEST SWAP2 POP PUSH2 0x20AA DUP3 PUSH2 0x206B JUMP JUMPDEST PUSH1 0x20 DUP3 ADD SWAP1 POP SWAP2 SWAP1 POP JUMP JUMPDEST PUSH0 PUSH1 0x20 DUP3 ADD SWAP1 POP DUP2 DUP2 SUB PUSH0 DUP4 ADD MSTORE PUSH2 0x20CC DUP2 PUSH2 0x2093 JUMP JUMPDEST SWAP1 POP SWAP2 SWAP1 POP JUMP JUMPDEST PUSH32 0x4E487B7100000000000000000000000000000000000000000000000000000000 PUSH0 MSTORE PUSH1 0x32 PUSH1 0x4 MSTORE PUSH1 0x24 PUSH0 REVERT JUMPDEST PUSH32 0x4E487B7100000000000000000000000000000000000000000000000000000000 PUSH0 MSTORE PUSH1 0x11 PUSH1 0x4 MSTORE PUSH1 0x24 PUSH0 REVERT JUMPDEST PUSH0 PUSH2 0x2137 DUP3 PUSH2 0x13CD JUMP JUMPDEST SWAP2 POP PUSH2 0x2142 DUP4 PUSH2 0x13CD JUMP JUMPDEST SWAP3 POP DUP3 DUP3 SUB SWAP1 POP DUP2 DUP2 GT ISZERO PUSH2 0x215A JUMPI PUSH2 0x2159 PUSH2 0x2100 JUMP JUMPDEST JUMPDEST SWAP3 SWAP2 POP POP JUMP JUMPDEST PUSH32 0x4E487B7100000000000000000000000000000000000000000000000000000000 PUSH0 MSTORE PUSH1 0x31 PUSH1 0x4 MSTORE PUSH1 0x24 PUSH0 REVERT JUMPDEST PUSH0 PUSH2 0x2197 DUP3 PUSH2 0x13CD JUMP JUMPDEST SWAP2 POP PUSH32 0xFFFFFFFFFFFFFFFFFFFFFFFFFFFFFFFFFFFFFFFFFFFFFFFFFFFFFFFFFFFFFFFF DUP3 SUB PUSH2 0x21C9 JUMPI PUSH2 0x21C8 PUSH2 0x2100 JUMP JUMPDEST JUMPDEST PUSH1 0x1 DUP3 ADD SWAP1 POP SWAP2 SWAP1 POP JUMP INVALID LOG2 PUSH5 0x6970667358 0x22 SLT KECCAK256 0x1E BLOCKHASH PUSH24 0x6CA3B250CC506A69987EBE8469DE0E337C09DB7D96E0012A 0xCC SWAP8 0xCF AND MLOAD PUSH5 0x736F6C6343 STOP ADDMOD EQ STOP CALLER "
		},
		"gasEstimates": {
			"creation": {
				"codeDepositCost": "1742800",
				"executionCost": "infinite",
				"totalCost": "infinite"
			},
			"external": {
				"markWallAsPainted(uint256)": "infinite",
				"ownerWalls(address,uint256)": "infinite",
				"paused()": "2473",
				"roleManager()": "infinite",
				"transferWall(uint256,address)": "infinite",
				"updateWall(uint256,string,string,string,int256,int256,uint256)": "infinite",
				"walls(uint256)": "infinite"
			}
		},
		"methodIdentifiers": {
			"markWallAsPainted(uint256)": "2596133b",
			"ownerWalls(address,uint256)": "6f725c13",
			"paused()": "5c975abb",
			"roleManager()": "00435da5",
			"transferWall(uint256,address)": "a1519b11",
			"updateWall(uint256,string,string,string,int256,int256,uint256)": "9fd199f6",
			"walls(uint256)": "550a3dba"
		}
	},
	"abi": [
		{
			"inputs": [
				{
					"internalType": "address",
					"name": "_roleManager",
					"type": "address"
				}
			],
			"stateMutability": "nonpayable",
			"type": "constructor"
		},
		{
			"anonymous": false,
			"inputs": [
				{
					"indexed": false,
					"internalType": "address",
					"name": "account",
					"type": "address"
				}
			],
			"name": "Paused",
			"type": "event"
		},
		{
			"anonymous": false,
			"inputs": [
				{
					"indexed": false,
					"internalType": "address",
					"name": "account",
					"type": "address"
				}
			],
			"name": "Unpaused",
			"type": "event"
		},
		{
			"anonymous": false,
			"inputs": [
				{
					"indexed": true,
					"internalType": "uint256",
					"name": "wallId",
					"type": "uint256"
				}
			],
			"name": "WallPainted",
			"type": "event"
		},
		{
			"anonymous": false,
			"inputs": [
				{
					"indexed": true,
					"internalType": "uint256",
					"name": "wallId",
					"type": "uint256"
				},
				{
					"indexed": true,
					"internalType": "address",
					"name": "from",
					"type": "address"
				},
				{
					"indexed": true,
					"internalType": "address",
					"name": "to",
					"type": "address"
				}
			],
			"name": "WallTransferred",
			"type": "event"
		},
		{
			"anonymous": false,
			"inputs": [
				{
					"indexed": true,
					"internalType": "uint256",
					"name": "wallId",
					"type": "uint256"
				}
			],
			"name": "WallUpdated",
			"type": "event"
		},
		{
			"inputs": [
				{
					"internalType": "uint256",
					"name": "wallId",
					"type": "uint256"
				}
			],
			"name": "markWallAsPainted",
			"outputs": [],
			"stateMutability": "nonpayable",
			"type": "function"
		},
		{
			"inputs": [
				{
					"internalType": "address",
					"name": "",
					"type": "address"
				},
				{
					"internalType": "uint256",
					"name": "",
					"type": "uint256"
				}
			],
			"name": "ownerWalls",
			"outputs": [
				{
					"internalType": "uint256",
					"name": "",
					"type": "uint256"
				}
			],
			"stateMutability": "view",
			"type": "function"
		},
		{
			"inputs": [],
			"name": "paused",
			"outputs": [
				{
					"internalType": "bool",
					"name": "",
					"type": "bool"
				}
			],
			"stateMutability": "view",
			"type": "function"
		},
		{
			"inputs": [],
			"name": "roleManager",
			"outputs": [
				{
					"internalType": "contract IRoleManager",
					"name": "",
					"type": "address"
				}
			],
			"stateMutability": "view",
			"type": "function"
		},
		{
			"inputs": [
				{
					"internalType": "uint256",
					"name": "wallId",
					"type": "uint256"
				},
				{
					"internalType": "address",
					"name": "newOwner",
					"type": "address"
				}
			],
			"name": "transferWall",
			"outputs": [],
			"stateMutability": "nonpayable",
			"type": "function"
		},
		{
			"inputs": [
				{
					"internalType": "uint256",
					"name": "wallId",
					"type": "uint256"
				},
				{
					"internalType": "string",
					"name": "country",
					"type": "string"
				},
				{
					"internalType": "string",
					"name": "city",
					"type": "string"
				},
				{
					"internalType": "string",
					"name": "physicalAddress",
					"type": "string"
				},
				{
					"internalType": "int256",
					"name": "longitude",
					"type": "int256"
				},
				{
					"internalType": "int256",
					"name": "latitude",
					"type": "int256"
				},
				{
					"internalType": "uint256",
					"name": "size",
					"type": "uint256"
				}
			],
			"name": "updateWall",
			"outputs": [],
			"stateMutability": "nonpayable",
			"type": "function"
		},
		{
			"inputs": [
				{
					"internalType": "uint256",
					"name": "",
					"type": "uint256"
				}
			],
			"name": "walls",
			"outputs": [
				{
					"internalType": "uint256",
					"name": "id",
					"type": "uint256"
				},
				{
					"internalType": "address",
					"name": "owner",
					"type": "address"
				},
				{
					"components": [
						{
							"internalType": "string",
							"name": "country",
							"type": "string"
						},
						{
							"internalType": "string",
							"name": "city",
							"type": "string"
						},
						{
							"internalType": "string",
							"name": "physicalAddress",
							"type": "string"
						},
						{
							"internalType": "int256",
							"name": "longitude",
							"type": "int256"
						},
						{
							"internalType": "int256",
							"name": "latitude",
							"type": "int256"
						}
					],
					"internalType": "struct WallBase.Location",
					"name": "location",
					"type": "tuple"
				},
				{
					"internalType": "uint256",
					"name": "size",
					"type": "uint256"
				},
				{
					"internalType": "bool",
					"name": "isInGallery",
					"type": "bool"
				},
				{
					"internalType": "bool",
					"name": "isPainted",
					"type": "bool"
				},
				{
					"internalType": "address",
					"name": "galleryOwner",
					"type": "address"
				},
				{
					"internalType": "uint256",
					"name": "createdAt",
					"type": "uint256"
				},
				{
					"internalType": "uint256",
					"name": "lastUpdated",
					"type": "uint256"
				}
			],
			"stateMutability": "view",
			"type": "function"
		}
	]
}